{
  "contractName": "Exchange",
  "abi": [
    {
      "inputs": [
        {
          "internalType": "contract OptionVault",
          "name": "_optionVault",
          "type": "address"
        }
      ],
      "stateMutability": "nonpayable",
      "type": "constructor"
    },
    {
      "anonymous": false,
      "inputs": [
        {
          "indexed": true,
          "internalType": "address",
          "name": "_holder",
          "type": "address"
        },
        {
          "indexed": true,
          "internalType": "address",
          "name": "_pool",
          "type": "address"
        },
        {
          "indexed": false,
          "internalType": "uint256",
          "name": "_id",
          "type": "uint256"
        },
        {
          "indexed": false,
          "internalType": "uint256",
          "name": "_payoff",
          "type": "uint256"
        },
        {
          "indexed": false,
          "internalType": "address",
          "name": "_bot",
          "type": "address"
        }
      ],
      "name": "Expire",
      "type": "event"
    },
    {
      "anonymous": false,
      "inputs": [
        {
          "indexed": true,
          "internalType": "address",
          "name": "_hedger",
          "type": "address"
        },
        {
          "indexed": true,
          "internalType": "address",
          "name": "_market",
          "type": "address"
        },
        {
          "indexed": false,
          "internalType": "bool",
          "name": "success",
          "type": "bool"
        },
        {
          "indexed": false,
          "internalType": "bytes",
          "name": "data",
          "type": "bytes"
        }
      ],
      "name": "HedgeResponse",
      "type": "event"
    },
    {
      "anonymous": false,
      "inputs": [
        {
          "indexed": true,
          "internalType": "address",
          "name": "_hedger",
          "type": "address"
        },
        {
          "indexed": true,
          "internalType": "address",
          "name": "_market",
          "type": "address"
        },
        {
          "indexed": false,
          "internalType": "uint256[]",
          "name": "amounts",
          "type": "uint256[]"
        }
      ],
      "name": "HedgeSwapResponse",
      "type": "event"
    },
    {
      "anonymous": false,
      "inputs": [
        {
          "indexed": true,
          "internalType": "address",
          "name": "_purchaser",
          "type": "address"
        },
        {
          "indexed": true,
          "internalType": "address",
          "name": "_underlying",
          "type": "address"
        },
        {
          "indexed": false,
          "internalType": "uint256",
          "name": "_optionId",
          "type": "uint256"
        }
      ],
      "name": "NewOption",
      "type": "event"
    },
    {
      "anonymous": false,
      "inputs": [
        {
          "indexed": false,
          "internalType": "address",
          "name": "_newBot",
          "type": "address"
        }
      ],
      "name": "ResetBotAddress",
      "type": "event"
    },
    {
      "anonymous": false,
      "inputs": [
        {
          "indexed": true,
          "internalType": "uint256",
          "name": "_parameterId",
          "type": "uint256"
        },
        {
          "indexed": false,
          "internalType": "uint256",
          "name": "_parameter",
          "type": "uint256"
        }
      ],
      "name": "ResetParameter",
      "type": "event"
    },
    {
      "anonymous": false,
      "inputs": [
        {
          "indexed": true,
          "internalType": "address",
          "name": "_purchaser",
          "type": "address"
        },
        {
          "indexed": true,
          "internalType": "address",
          "name": "_pool",
          "type": "address"
        },
        {
          "indexed": false,
          "internalType": "uint256",
          "name": "_cost",
          "type": "uint256"
        },
        {
          "indexed": false,
          "internalType": "uint256",
          "name": "_volAmount",
          "type": "uint256"
        },
        {
          "indexed": false,
          "internalType": "bool",
          "name": "_isPurchase",
          "type": "bool"
        }
      ],
      "name": "TradeVolatility",
      "type": "event"
    },
    {
      "anonymous": false,
      "inputs": [
        {
          "indexed": true,
          "internalType": "address",
          "name": "_holder",
          "type": "address"
        },
        {
          "indexed": true,
          "internalType": "address",
          "name": "_pool",
          "type": "address"
        },
        {
          "indexed": false,
          "internalType": "uint256",
          "name": "_id",
          "type": "uint256"
        },
        {
          "indexed": false,
          "internalType": "uint256",
          "name": "_payoff",
          "type": "uint256"
        }
      ],
      "name": "Unwind",
      "type": "event"
    },
    {
      "inputs": [],
      "name": "vault",
      "outputs": [
        {
          "internalType": "contract OptionVault",
          "name": "",
          "type": "address"
        }
      ],
      "stateMutability": "view",
      "type": "function"
    },
    {
      "inputs": [
        {
          "internalType": "contract Pool",
          "name": "_pool",
          "type": "address"
        },
        {
          "internalType": "uint256",
          "name": "_tenor",
          "type": "uint256"
        },
        {
          "internalType": "uint256",
          "name": "_strike",
          "type": "uint256"
        },
        {
          "internalType": "uint256",
          "name": "_spread",
          "type": "uint256"
        },
        {
          "internalType": "uint256",
          "name": "_amount",
          "type": "uint256"
        },
        {
          "internalType": "enum OptionLib.PayoffType",
          "name": "_poType",
          "type": "uint8"
        },
        {
          "internalType": "enum OptionLib.OptionSide",
          "name": "_side",
          "type": "uint8"
        }
      ],
      "name": "queryOption",
      "outputs": [
        {
          "internalType": "uint256",
          "name": "_premium",
          "type": "uint256"
        },
        {
          "internalType": "uint256",
          "name": "_collateral",
          "type": "uint256"
        },
        {
          "internalType": "uint256",
          "name": "_price",
          "type": "uint256"
        },
        {
          "internalType": "uint256",
          "name": "_volatility",
          "type": "uint256"
        },
        {
          "internalType": "int256",
          "name": "_exposure",
          "type": "int256"
        }
      ],
      "stateMutability": "view",
      "type": "function"
    },
    {
      "inputs": [
        {
          "internalType": "contract Pool",
          "name": "_pool",
          "type": "address"
        },
        {
          "internalType": "uint256",
          "name": "_tenor",
          "type": "uint256"
        },
        {
          "internalType": "uint256",
          "name": "_strike",
          "type": "uint256"
        },
        {
          "internalType": "uint256",
          "name": "_spread",
          "type": "uint256"
        },
        {
          "internalType": "uint256",
          "name": "_amount",
          "type": "uint256"
        },
        {
          "internalType": "enum OptionLib.PayoffType",
          "name": "_poType",
          "type": "uint8"
        },
        {
          "internalType": "enum OptionLib.OptionSide",
          "name": "_side",
          "type": "uint8"
        },
        {
          "internalType": "enum OptionLib.PaymentMethod",
          "name": "_payment",
          "type": "uint8"
        }
      ],
      "name": "tradeOption",
      "outputs": [],
      "stateMutability": "nonpayable",
      "type": "function"
    },
    {
      "inputs": [
        {
          "internalType": "contract Pool",
          "name": "_pool",
          "type": "address"
        },
        {
          "internalType": "uint256",
          "name": "_tenor",
          "type": "uint256"
        },
        {
          "internalType": "uint256",
          "name": "_amount",
          "type": "uint256"
        },
        {
          "internalType": "enum OptionLib.OptionSide",
          "name": "_side",
          "type": "uint8"
        }
      ],
      "name": "tradeVolToken",
      "outputs": [],
      "stateMutability": "nonpayable",
      "type": "function"
    },
    {
      "inputs": [
        {
          "internalType": "contract Pool",
          "name": "_pool",
          "type": "address"
        },
        {
          "internalType": "uint256",
          "name": "_tenor",
          "type": "uint256"
        }
      ],
      "name": "getVolatilityToken",
      "outputs": [
        {
          "internalType": "contract VolatilityToken",
          "name": "",
          "type": "address"
        }
      ],
      "stateMutability": "view",
      "type": "function"
    },
    {
      "inputs": [
        {
          "internalType": "contract Pool",
          "name": "_pool",
          "type": "address"
        }
      ],
      "name": "getVolatilityChain",
      "outputs": [
        {
          "internalType": "contract VolatilityChain",
          "name": "",
          "type": "address"
        }
      ],
      "stateMutability": "view",
      "type": "function"
    },
    {
      "inputs": [
        {
          "internalType": "uint256",
          "name": "_expiringId",
          "type": "uint256"
        },
        {
          "internalType": "address",
          "name": "_exerciseFeeRecipient",
          "type": "address"
        }
      ],
      "name": "expireOption",
      "outputs": [],
      "stateMutability": "nonpayable",
      "type": "function"
    },
    {
      "inputs": [
        {
          "internalType": "uint256",
          "name": "_optionId",
          "type": "uint256"
        }
      ],
      "name": "unwindOption",
      "outputs": [],
      "stateMutability": "nonpayable",
      "type": "function"
    },
    {
      "inputs": [
        {
          "internalType": "contract Pool",
          "name": "_pool",
          "type": "address"
        },
        {
          "internalType": "uint256",
          "name": "_depositAmount",
          "type": "uint256"
        }
      ],
      "name": "addCapital",
      "outputs": [],
      "stateMutability": "nonpayable",
      "type": "function"
    },
    {
      "inputs": [
        {
          "internalType": "contract Pool",
          "name": "_pool",
          "type": "address"
        },
        {
          "internalType": "uint256",
          "name": "_burnPoolAmount",
          "type": "uint256"
        }
      ],
      "name": "withdrawCapital",
      "outputs": [],
      "stateMutability": "nonpayable",
      "type": "function"
    }
  ],
  "bytecode": "0x60a06040523480156200001157600080fd5b5060405162005188380380620051888339818101604052810190620000379190620000f0565b8073ffffffffffffffffffffffffffffffffffffffff1660808173ffffffffffffffffffffffffffffffffffffffff16815250505062000122565b600080fd5b600073ffffffffffffffffffffffffffffffffffffffff82169050919050565b6000620000a48262000077565b9050919050565b6000620000b88262000097565b9050919050565b620000ca81620000ab565b8114620000d657600080fd5b50565b600081519050620000ea81620000bf565b92915050565b60006020828403121562000109576200010862000072565b5b60006200011984828501620000d9565b91505092915050565b608051614fef62000199600039600081816102ef015281816103f4015281816104820152818161098901528181610a8001528181610b2801528181610d0d01528181610e1e01528181610eae015281816119e001528181611f51015281816124780152818161252e01526129850152614fef6000f3fe608060405234801561001057600080fd5b506004361061009e5760003560e01c8063826fdbbd11610066578063826fdbbd146101575780639111fccd14610173578063b3c5a1011461018f578063e98254bb146101c3578063fbfa77cf146101df5761009e565b806315dc2e9d146100a35780631df9fa81146100d357806331d975d2146100ef57806354f6e8c81461010b5780636cce891614610127575b600080fd5b6100bd60048036038101906100b89190613d72565b6101fd565b6040516100ca9190613dfe565b60405180910390f35b6100ed60048036038101906100e89190613e4f565b6102e8565b005b61010960048036038101906101049190613eeb565b6107b7565b005b61012560048036038101906101209190613fcd565b610d05565b005b610141600480360381019061013c919061400d565b611258565b60405161014e919061406e565b60405180910390f35b610171600480360381019061016c9190614089565b61142d565b005b61018d6004803603810190610188919061400d565b611f4d565b005b6101a960048036038101906101a491906140f0565b612383565b6040516101ba9594939291906141ba565b60405180910390f35b6101dd60048036038101906101d8919061400d565b61252a565b005b6101e7612983565b6040516101f4919061422e565b60405180910390f35b6000808273ffffffffffffffffffffffffffffffffffffffff16631f21f9af6040518163ffffffff1660e01b8152600401602060405180830381865afa15801561024b573d6000803e3d6000fd5b505050506040513d601f19601f8201168201806040525081019061026f9190614287565b90508073ffffffffffffffffffffffffffffffffffffffff1663c0a16f6a6040518163ffffffff1660e01b8152600401602060405180830381865afa1580156102bc573d6000803e3d6000fd5b505050506040513d601f19601f820116820180604052508101906102e091906142f2565b915050919050565b60008060007f000000000000000000000000000000000000000000000000000000000000000073ffffffffffffffffffffffffffffffffffffffff1663fc9d80e0856040518263ffffffff1660e01b8152600401610346919061431f565b608060405180830381865afa158015610363573d6000803e3d6000fd5b505050506040513d601f19601f82011682018060405250810190610387919061439e565b93509350509250600160038111156103a2576103a1614405565b5b8360038111156103b5576103b4614405565b5b1480156103ed57503373ffffffffffffffffffffffffffffffffffffffff168273ffffffffffffffffffffffffffffffffffffffff16145b156107b1577f000000000000000000000000000000000000000000000000000000000000000073ffffffffffffffffffffffffffffffffffffffff1663637baf60856040518263ffffffff1660e01b815260040161044b919061431f565b600060405180830381600087803b15801561046557600080fd5b505af1158015610479573d6000803e3d6000fd5b505050506000807f000000000000000000000000000000000000000000000000000000000000000073ffffffffffffffffffffffffffffffffffffffff166335080705876040518263ffffffff1660e01b81526004016104d9919061431f565b6040805180830381865afa1580156104f5573d6000803e3d6000fd5b505050506040513d601f19601f820116820180604052508101906105199190614434565b9150915060008373ffffffffffffffffffffffffffffffffffffffff16631f21f9af6040518163ffffffff1660e01b8152600401602060405180830381865afa15801561056a573d6000803e3d6000fd5b505050506040513d601f19601f8201168201806040525081019061058e9190614287565b90508073ffffffffffffffffffffffffffffffffffffffff16633e60e34886856040518363ffffffff1660e01b81526004016105cb929190614483565b600060405180830381600087803b1580156105e557600080fd5b505af11580156105f9573d6000803e3d6000fd5b505050508073ffffffffffffffffffffffffffffffffffffffff16633e60e3488273ffffffffffffffffffffffffffffffffffffffff166305268cff6040518163ffffffff1660e01b8152600401602060405180830381865afa158015610664573d6000803e3d6000fd5b505050506040513d601f19601f8201168201806040525081019061068891906144ea565b73ffffffffffffffffffffffffffffffffffffffff166364df049e6040518163ffffffff1660e01b8152600401602060405180830381865afa1580156106d2573d6000803e3d6000fd5b505050506040513d601f19601f820116820180604052508101906106f69190614517565b846040518363ffffffff1660e01b8152600401610714929190614483565b600060405180830381600087803b15801561072e57600080fd5b505af1158015610742573d6000803e3d6000fd5b505050508373ffffffffffffffffffffffffffffffffffffffff168573ffffffffffffffffffffffffffffffffffffffff167fc4283de4990ce720e1ebcb2fec1d9f7eccd108f063cc96b11313dd95f743b9ba89866040516107a5929190614544565b60405180910390a35050505b50505050565b3073ffffffffffffffffffffffffffffffffffffffff168873ffffffffffffffffffffffffffffffffffffffff1663d2f7265a6040518163ffffffff1660e01b8152600401602060405180830381865afa158015610819573d6000803e3d6000fd5b505050506040513d601f19601f8201168201806040525081019061083d9190614517565b73ffffffffffffffffffffffffffffffffffffffff1614610893576040517f08c379a000000000000000000000000000000000000000000000000000000000815260040161088a906145ca565b60405180910390fd5b60006040518061026001604052808560038111156108b4576108b3614405565b5b81526020018460018111156108cc576108cb614405565b5b8152602001600060038111156108e5576108e4614405565b5b81526020013373ffffffffffffffffffffffffffffffffffffffff16815260200160008152602001428152602001600081526020018981526020016000815260200160008152602001868152602001600081526020018881526020018781526020016000815260200160008152602001600081526020018a73ffffffffffffffffffffffffffffffffffffffff1681526020016000815250905060008060008060007f000000000000000000000000000000000000000000000000000000000000000073ffffffffffffffffffffffffffffffffffffffff1663956da059876040518263ffffffff1660e01b81526004016109e09190614878565b60a060405180830381865afa1580156109fd573d6000803e3d6000fd5b505050506040513d601f19601f82011682018060405250810190610a2191906148c0565b9450945094509450945060006001811115610a3f57610a3e614405565b5b886001811115610a5257610a51614405565b5b03610a6b57610a668e338f8887878d6129a7565b610a7c565b610a7b8e338f888888888e6132ca565b5b60007f000000000000000000000000000000000000000000000000000000000000000073ffffffffffffffffffffffffffffffffffffffff1663587a6c158888888888886040518763ffffffff1660e01b8152600401610ae19695949392919061493b565b6020604051808303816000875af1158015610b00573d6000803e3d6000fd5b505050506040513d601f19601f82011682018060405250810190610b2491906149a2565b90507f000000000000000000000000000000000000000000000000000000000000000073ffffffffffffffffffffffffffffffffffffffff166324b4110e82336040518363ffffffff1660e01b8152600401610b819291906149cf565b600060405180830381600087803b158015610b9b57600080fd5b505af1158015610baf573d6000803e3d6000fd5b505050508e73ffffffffffffffffffffffffffffffffffffffff16631f21f9af6040518163ffffffff1660e01b8152600401602060405180830381865afa158015610bfe573d6000803e3d6000fd5b505050506040513d601f19601f82011682018060405250810190610c229190614287565b73ffffffffffffffffffffffffffffffffffffffff16636f307dc36040518163ffffffff1660e01b8152600401602060405180830381865afa158015610c6c573d6000803e3d6000fd5b505050506040513d601f19601f82011682018060405250810190610c909190614517565b73ffffffffffffffffffffffffffffffffffffffff163373ffffffffffffffffffffffffffffffffffffffff167f43e72efa3a4fa0d2e34fd004e07a50adf9a48ccb50611e1f75eefffbc3a65c6783604051610cec919061431f565b60405180910390a3505050505050505050505050505050565b6000806000807f000000000000000000000000000000000000000000000000000000000000000073ffffffffffffffffffffffffffffffffffffffff1663fc9d80e0876040518263ffffffff1660e01b8152600401610d64919061431f565b608060405180830381865afa158015610d81573d6000803e3d6000fd5b505050506040513d601f19601f82011682018060405250810190610da5919061439e565b935093509350935060016003811115610dc157610dc0614405565b5b846003811115610dd457610dd3614405565b5b148015610e1757504283111580610e1657503373ffffffffffffffffffffffffffffffffffffffff168273ffffffffffffffffffffffffffffffffffffffff16145b5b15611250577f000000000000000000000000000000000000000000000000000000000000000073ffffffffffffffffffffffffffffffffffffffff1663637baf60876040518263ffffffff1660e01b8152600401610e75919061431f565b600060405180830381600087803b158015610e8f57600080fd5b505af1158015610ea3573d6000803e3d6000fd5b5050505060008060007f000000000000000000000000000000000000000000000000000000000000000073ffffffffffffffffffffffffffffffffffffffff166385ae10e68a6040518263ffffffff1660e01b8152600401610f05919061431f565b606060405180830381865afa158015610f22573d6000803e3d6000fd5b505050506040513d601f19601f82011682018060405250810190610f4691906149f8565b92509250925060008473ffffffffffffffffffffffffffffffffffffffff16631f21f9af6040518163ffffffff1660e01b8152600401602060405180830381865afa158015610f99573d6000803e3d6000fd5b505050506040513d601f19601f82011682018060405250810190610fbd9190614287565b90508073ffffffffffffffffffffffffffffffffffffffff16633e60e34887866040518363ffffffff1660e01b8152600401610ffa929190614483565b600060405180830381600087803b15801561101457600080fd5b505af1158015611028573d6000803e3d6000fd5b505050508073ffffffffffffffffffffffffffffffffffffffff16633e60e3488273ffffffffffffffffffffffffffffffffffffffff166305268cff6040518163ffffffff1660e01b8152600401602060405180830381865afa158015611093573d6000803e3d6000fd5b505050506040513d601f19601f820116820180604052508101906110b791906144ea565b73ffffffffffffffffffffffffffffffffffffffff166364df049e6040518163ffffffff1660e01b8152600401602060405180830381865afa158015611101573d6000803e3d6000fd5b505050506040513d601f19601f820116820180604052508101906111259190614517565b856040518363ffffffff1660e01b8152600401611143929190614483565b600060405180830381600087803b15801561115d57600080fd5b505af1158015611171573d6000803e3d6000fd5b505050508073ffffffffffffffffffffffffffffffffffffffff16633e60e3488a846040518363ffffffff1660e01b81526004016111b0929190614483565b600060405180830381600087803b1580156111ca57600080fd5b505af11580156111de573d6000803e3d6000fd5b505050508473ffffffffffffffffffffffffffffffffffffffff168673ffffffffffffffffffffffffffffffffffffffff167fed310d3af0cb4fbec3383307f0574d2c617caa57e4e0d6a24787dfe7e5f3d8448c873360405161124393929190614a4b565b60405180910390a3505050505b505050505050565b6000808373ffffffffffffffffffffffffffffffffffffffff16631f21f9af6040518163ffffffff1660e01b8152600401602060405180830381865afa1580156112a6573d6000803e3d6000fd5b505050506040513d601f19601f820116820180604052508101906112ca9190614287565b90508073ffffffffffffffffffffffffffffffffffffffff166305268cff6040518163ffffffff1660e01b8152600401602060405180830381865afa158015611317573d6000803e3d6000fd5b505050506040513d601f19601f8201168201806040525081019061133b91906144ea565b73ffffffffffffffffffffffffffffffffffffffff16636cce89168273ffffffffffffffffffffffffffffffffffffffff16636f307dc36040518163ffffffff1660e01b8152600401602060405180830381865afa1580156113a1573d6000803e3d6000fd5b505050506040513d601f19601f820116820180604052508101906113c59190614517565b856040518363ffffffff1660e01b81526004016113e3929190614483565b602060405180830381865afa158015611400573d6000803e3d6000fd5b505050506040513d601f19601f820116820180604052508101906114249190614ac0565b91505092915050565b60008473ffffffffffffffffffffffffffffffffffffffff16631f21f9af6040518163ffffffff1660e01b8152600401602060405180830381865afa15801561147a573d6000803e3d6000fd5b505050506040513d601f19601f8201168201806040525081019061149e9190614287565b90508073ffffffffffffffffffffffffffffffffffffffff166305268cff6040518163ffffffff1660e01b8152600401602060405180830381865afa1580156114eb573d6000803e3d6000fd5b505050506040513d601f19601f8201168201806040525081019061150f91906144ea565b73ffffffffffffffffffffffffffffffffffffffff1663255fdcff866040518263ffffffff1660e01b81526004016115479190614aed565b602060405180830381865afa158015611564573d6000803e3d6000fd5b505050506040513d601f19601f820116820180604052508101906115889190614b40565b6115c7576040517f08c379a00000000000000000000000000000000000000000000000000000000081526004016115be90614bb9565b60405180910390fd5b60008173ffffffffffffffffffffffffffffffffffffffff166305268cff6040518163ffffffff1660e01b8152600401602060405180830381865afa158015611614573d6000803e3d6000fd5b505050506040513d601f19601f8201168201806040525081019061163891906144ea565b73ffffffffffffffffffffffffffffffffffffffff16636cce89168373ffffffffffffffffffffffffffffffffffffffff16636f307dc36040518163ffffffff1660e01b8152600401602060405180830381865afa15801561169e573d6000803e3d6000fd5b505050506040513d601f19601f820116820180604052508101906116c29190614517565b876040518363ffffffff1660e01b81526004016116e0929190614483565b602060405180830381865afa1580156116fd573d6000803e3d6000fd5b505050506040513d601f19601f820116820180604052508101906117219190614ac0565b905060008273ffffffffffffffffffffffffffffffffffffffff1663c0a16f6a6040518163ffffffff1660e01b8152600401602060405180830381865afa158015611770573d6000803e3d6000fd5b505050506040513d601f19601f8201168201806040525081019061179491906142f2565b90506000604051806102600160405280600160038111156117b8576117b7614405565b5b81526020018660018111156117d0576117cf614405565b5b8152602001600060038111156117e9576117e8614405565b5b81526020013373ffffffffffffffffffffffffffffffffffffffff16815260200160008152602001428152602001600081526020018881526020016000815260200160008152602001878152602001600081526020018373ffffffffffffffffffffffffffffffffffffffff1663b0667cf86040518163ffffffff1660e01b8152600401602060405180830381865afa15801561188a573d6000803e3d6000fd5b505050506040513d601f19601f820116820180604052508101906118ae91906149a2565b8152602001600081526020016000815260200160008152602001600081526020018973ffffffffffffffffffffffffffffffffffffffff1681526020016000815250905060008473ffffffffffffffffffffffffffffffffffffffff1663cb4c86b76040518163ffffffff1660e01b8152600401602060405180830381865afa15801561193f573d6000803e3d6000fd5b505050506040513d601f19601f820116820180604052508101906119639190614517565b905060008173ffffffffffffffffffffffffffffffffffffffff1663313ce5676040518163ffffffff1660e01b8152600401602060405180830381865afa1580156119b2573d6000803e3d6000fd5b505050506040513d601f19601f820116820180604052508101906119d69190614c12565b60ff1690506000807f000000000000000000000000000000000000000000000000000000000000000073ffffffffffffffffffffffffffffffffffffffff1663956da059866040518263ffffffff1660e01b8152600401611a379190614878565b60a060405180830381865afa158015611a54573d6000803e3d6000fd5b505050506040513d601f19601f82011682018060405250810190611a7891906148c0565b509350505091506000806001811115611a9457611a93614405565b5b8a6001811115611aa757611aa6614405565b5b03611cd8578473ffffffffffffffffffffffffffffffffffffffff166323b872dd338a8673__MarketLib_____________________________63174e20e690918a6040518363ffffffff1660e01b8152600401611b05929190614c4e565b602060405180830381865af4158015611b22573d6000803e3d6000fd5b505050506040513d601f19601f82011682018060405250810190611b4691906149a2565b6040518463ffffffff1660e01b8152600401611b6493929190614c77565b6020604051808303816000875af1158015611b83573d6000803e3d6000fd5b505050506040513d601f19601f82011682018060405250810190611ba79190614b40565b611be6576040517f08c379a0000000000000000000000000000000000000000000000000000000008152600401611bdd90614cfa565b60405180910390fd5b8773ffffffffffffffffffffffffffffffffffffffff1663b3e1f05084846040518363ffffffff1660e01b8152600401611c21929190614544565b6040805180830381865afa158015611c3d573d6000803e3d6000fd5b505050506040513d601f19601f82011682018060405250810190611c619190614434565b50809150508773ffffffffffffffffffffffffffffffffffffffff166340c10f1933836040518363ffffffff1660e01b8152600401611ca1929190614483565b600060405180830381600087803b158015611cbb57600080fd5b505af1158015611ccf573d6000803e3d6000fd5b50505050611eae565b8773ffffffffffffffffffffffffffffffffffffffff1663921f2c3b84846040518363ffffffff1660e01b8152600401611d13929190614544565b6040805180830381865afa158015611d2f573d6000803e3d6000fd5b505050506040513d601f19601f82011682018060405250810190611d539190614434565b50809150508773ffffffffffffffffffffffffffffffffffffffff16639dc29fac33836040518363ffffffff1660e01b8152600401611d93929190614483565b600060405180830381600087803b158015611dad57600080fd5b505af1158015611dc1573d6000803e3d6000fd5b505050508773ffffffffffffffffffffffffffffffffffffffff1663c4076876338573__MarketLib_____________________________63174e20e69091896040518363ffffffff1660e01b8152600401611e1d929190614c4e565b602060405180830381865af4158015611e3a573d6000803e3d6000fd5b505050506040513d601f19601f82011682018060405250810190611e5e91906149a2565b6040518363ffffffff1660e01b8152600401611e7b929190614483565b600060405180830381600087803b158015611e9557600080fd5b505af1158015611ea9573d6000803e3d6000fd5b505050505b8c73ffffffffffffffffffffffffffffffffffffffff163373ffffffffffffffffffffffffffffffffffffffff167fecff3762708241a160664f7092d4ff3e5e6eed425112beca3a558737639f0ba38d8460006001811115611f1357611f12614405565b5b8f6001811115611f2657611f25614405565b5b14604051611f3693929190614d29565b60405180910390a350505050505050505050505050565b60007f000000000000000000000000000000000000000000000000000000000000000073ffffffffffffffffffffffffffffffffffffffff16635c273c2f846001806040518463ffffffff1660e01b8152600401611fad93929190614d81565b602060405180830381865afa158015611fca573d6000803e3d6000fd5b505050506040513d601f19601f82011682018060405250810190611fee91906149a2565b905060008173__MathLib_______________________________63fed4a0f39091856040518363ffffffff1660e01b815260040161202d929190614c4e565b602060405180830381865af415801561204a573d6000803e3d6000fd5b505050506040513d601f19601f8201168201806040525081019061206e91906149a2565b73__MarketLib_____________________________63174e20e690918673ffffffffffffffffffffffffffffffffffffffff16631f21f9af6040518163ffffffff1660e01b8152600401602060405180830381865afa1580156120d5573d6000803e3d6000fd5b505050506040513d601f19601f820116820180604052508101906120f99190614287565b73ffffffffffffffffffffffffffffffffffffffff1663cb4c86b76040518163ffffffff1660e01b8152600401602060405180830381865afa158015612143573d6000803e3d6000fd5b505050506040513d601f19601f820116820180604052508101906121679190614517565b73ffffffffffffffffffffffffffffffffffffffff1663313ce5676040518163ffffffff1660e01b8152600401602060405180830381865afa1580156121b1573d6000803e3d6000fd5b505050506040513d601f19601f820116820180604052508101906121d59190614c12565b6040518363ffffffff1660e01b81526004016121f2929190614de9565b602060405180830381865af415801561220f573d6000803e3d6000fd5b505050506040513d601f19601f8201168201806040525081019061223391906149a2565b90508373ffffffffffffffffffffffffffffffffffffffff16639dc29fac33856040518363ffffffff1660e01b8152600401612270929190614483565b600060405180830381600087803b15801561228a57600080fd5b505af115801561229e573d6000803e3d6000fd5b505050508373ffffffffffffffffffffffffffffffffffffffff16631f21f9af6040518163ffffffff1660e01b8152600401602060405180830381865afa1580156122ed573d6000803e3d6000fd5b505050506040513d601f19601f820116820180604052508101906123119190614287565b73ffffffffffffffffffffffffffffffffffffffff16633e60e34833836040518363ffffffff1660e01b815260040161234b929190614483565b600060405180830381600087803b15801561236557600080fd5b505af1158015612379573d6000803e3d6000fd5b5050505050505050565b6000806000806000806040518061026001604052808960038111156123ab576123aa614405565b5b81526020018860018111156123c3576123c2614405565b5b8152602001600060038111156123dc576123db614405565b5b81526020013373ffffffffffffffffffffffffffffffffffffffff16815260200160008152602001428152602001600081526020018d815260200160008152602001600081526020018a8152602001600081526020018c81526020018b81526020016000815260200160008152602001600081526020018e73ffffffffffffffffffffffffffffffffffffffff168152602001600081525090507f000000000000000000000000000000000000000000000000000000000000000073ffffffffffffffffffffffffffffffffffffffff1663956da059826040518263ffffffff1660e01b81526004016124cf9190614878565b60a060405180830381865afa1580156124ec573d6000803e3d6000fd5b505050506040513d601f19601f8201168201806040525081019061251091906148c0565b955095509550955095505097509750975097509792505050565b60007f000000000000000000000000000000000000000000000000000000000000000073ffffffffffffffffffffffffffffffffffffffff16635c273c2f84600060016040518463ffffffff1660e01b815260040161258b93929190614d81565b602060405180830381865afa1580156125a8573d6000803e3d6000fd5b505050506040513d601f19601f820116820180604052508101906125cc91906149a2565b905060008373ffffffffffffffffffffffffffffffffffffffff16631f21f9af6040518163ffffffff1660e01b8152600401602060405180830381865afa15801561261b573d6000803e3d6000fd5b505050506040513d601f19601f8201168201806040525081019061263f9190614287565b73ffffffffffffffffffffffffffffffffffffffff1663cb4c86b76040518163ffffffff1660e01b8152600401602060405180830381865afa158015612689573d6000803e3d6000fd5b505050506040513d601f19601f820116820180604052508101906126ad9190614517565b905060008373__MarketLib_____________________________63ed1bb19990918473ffffffffffffffffffffffffffffffffffffffff1663313ce5676040518163ffffffff1660e01b8152600401602060405180830381865afa158015612719573d6000803e3d6000fd5b505050506040513d601f19601f8201168201806040525081019061273d9190614c12565b6040518363ffffffff1660e01b815260040161275a929190614de9565b602060405180830381865af4158015612777573d6000803e3d6000fd5b505050506040513d601f19601f8201168201806040525081019061279b91906149a2565b73__MathLib_______________________________63de7f61709091856040518363ffffffff1660e01b81526004016127d5929190614c4e565b602060405180830381865af41580156127f2573d6000803e3d6000fd5b505050506040513d601f19601f8201168201806040525081019061281691906149a2565b90508173ffffffffffffffffffffffffffffffffffffffff166323b872dd338773ffffffffffffffffffffffffffffffffffffffff16631f21f9af6040518163ffffffff1660e01b8152600401602060405180830381865afa158015612880573d6000803e3d6000fd5b505050506040513d601f19601f820116820180604052508101906128a49190614287565b876040518463ffffffff1660e01b81526004016128c393929190614c77565b6020604051808303816000875af11580156128e2573d6000803e3d6000fd5b505050506040513d601f19601f820116820180604052508101906129069190614b40565b61290f57600080fd5b8473ffffffffffffffffffffffffffffffffffffffff166340c10f1933836040518363ffffffff1660e01b815260040161294a929190614483565b600060405180830381600087803b15801561296457600080fd5b505af1158015612978573d6000803e3d6000fd5b505050505050505050565b7f000000000000000000000000000000000000000000000000000000000000000081565b60008773ffffffffffffffffffffffffffffffffffffffff16631f21f9af6040518163ffffffff1660e01b8152600401602060405180830381865afa1580156129f4573d6000803e3d6000fd5b505050506040513d601f19601f82011682018060405250810190612a189190614287565b905060008173ffffffffffffffffffffffffffffffffffffffff1663cb4c86b76040518163ffffffff1660e01b8152600401602060405180830381865afa158015612a67573d6000803e3d6000fd5b505050506040513d601f19601f82011682018060405250810190612a8b9190614517565b905060008173ffffffffffffffffffffffffffffffffffffffff1663313ce5676040518163ffffffff1660e01b8152600401602060405180830381865afa158015612ada573d6000803e3d6000fd5b505050506040513d601f19601f82011682018060405250810190612afe9190614c12565b60ff16905060008373ffffffffffffffffffffffffffffffffffffffff16636f307dc36040518163ffffffff1660e01b8152600401602060405180830381865afa158015612b50573d6000803e3d6000fd5b505050506040513d601f19601f82011682018060405250810190612b749190614517565b905060016002811115612b8a57612b89614405565b5b856002811115612b9d57612b9c614405565b5b03612dd957600081905060008173ffffffffffffffffffffffffffffffffffffffff1663313ce5676040518163ffffffff1660e01b8152600401602060405180830381865afa158015612bf4573d6000803e3d6000fd5b505050506040513d601f19601f82011682018060405250810190612c189190614c12565b60ff1690508173ffffffffffffffffffffffffffffffffffffffff166323b872dd8d888d73__MathLib_______________________________63de7f617090918f6040518363ffffffff1660e01b8152600401612c76929190614c4e565b602060405180830381865af4158015612c93573d6000803e3d6000fd5b505050506040513d601f19601f82011682018060405250810190612cb791906149a2565b73__MarketLib_____________________________63174e20e69091876040518363ffffffff1660e01b8152600401612cf1929190614c4e565b602060405180830381865af4158015612d0e573d6000803e3d6000fd5b505050506040513d601f19601f82011682018060405250810190612d3291906149a2565b6040518463ffffffff1660e01b8152600401612d5093929190614c77565b6020604051808303816000875af1158015612d6f573d6000803e3d6000fd5b505050506040513d601f19601f82011682018060405250810190612d939190614b40565b612dd2576040517f08c379a0000000000000000000000000000000000000000000000000000000008152600401612dc990614e5e565b60405180910390fd5b50506132bd565b600280811115612dec57612deb614405565b5b856002811115612dff57612dfe614405565b5b036131815760008473ffffffffffffffffffffffffffffffffffffffff166305268cff6040518163ffffffff1660e01b8152600401602060405180830381865afa158015612e51573d6000803e3d6000fd5b505050506040513d601f19601f82011682018060405250810190612e7591906144ea565b73ffffffffffffffffffffffffffffffffffffffff16636cce8916838c6040518363ffffffff1660e01b8152600401612eaf929190614483565b602060405180830381865afa158015612ecc573d6000803e3d6000fd5b505050506040513d601f19601f82011682018060405250810190612ef09190614ac0565b90506000808273ffffffffffffffffffffffffffffffffffffffff1663921f2c3b8c8b6040518363ffffffff1660e01b8152600401612f30929190614544565b6040805180830381865afa158015612f4c573d6000803e3d6000fd5b505050506040513d601f19601f82011682018060405250810190612f709190614434565b915091508d73ffffffffffffffffffffffffffffffffffffffff1663372688b06040518163ffffffff1660e01b8152600401602060405180830381865afa158015612fbf573d6000803e3d6000fd5b505050506040513d601f19601f82011682018060405250810190612fe391906149a2565b8111613024576040517f08c379a000000000000000000000000000000000000000000000000000000000815260040161301b90614eca565b60405180910390fd5b8273ffffffffffffffffffffffffffffffffffffffff16639dc29fac33846040518363ffffffff1660e01b815260040161305f929190614483565b600060405180830381600087803b15801561307957600080fd5b505af115801561308d573d6000803e3d6000fd5b505050508273ffffffffffffffffffffffffffffffffffffffff1663c4076876888d73__MarketLib_____________________________63174e20e690918a6040518363ffffffff1660e01b81526004016130e9929190614c4e565b602060405180830381865af4158015613106573d6000803e3d6000fd5b505050506040513d601f19601f8201168201806040525081019061312a91906149a2565b6040518363ffffffff1660e01b8152600401613147929190614483565b600060405180830381600087803b15801561316157600080fd5b505af1158015613175573d6000803e3d6000fd5b505050505050506132bc565b8273ffffffffffffffffffffffffffffffffffffffff166323b872dd8b868b73__MarketLib_____________________________63174e20e69091886040518363ffffffff1660e01b81526004016131da929190614c4e565b602060405180830381865af41580156131f7573d6000803e3d6000fd5b505050506040513d601f19601f8201168201806040525081019061321b91906149a2565b6040518463ffffffff1660e01b815260040161323993929190614c77565b6020604051808303816000875af1158015613258573d6000803e3d6000fd5b505050506040513d601f19601f8201168201806040525081019061327c9190614b40565b6132bb576040517f08c379a00000000000000000000000000000000000000000000000000000000081526004016132b290614e5e565b60405180910390fd5b5b5b5050505050505050505050565b60008873ffffffffffffffffffffffffffffffffffffffff16631f21f9af6040518163ffffffff1660e01b8152600401602060405180830381865afa158015613317573d6000803e3d6000fd5b505050506040513d601f19601f8201168201806040525081019061333b9190614287565b905060008173ffffffffffffffffffffffffffffffffffffffff1663cb4c86b76040518163ffffffff1660e01b8152600401602060405180830381865afa15801561338a573d6000803e3d6000fd5b505050506040513d601f19601f820116820180604052508101906133ae9190614517565b905060008173ffffffffffffffffffffffffffffffffffffffff1663313ce5676040518163ffffffff1660e01b8152600401602060405180830381865afa1580156133fd573d6000803e3d6000fd5b505050506040513d601f19601f820116820180604052508101906134219190614c12565b60ff1690506001600281111561343a57613439614405565b5b84600281111561344d5761344c614405565b5b036137025760008373ffffffffffffffffffffffffffffffffffffffff16636f307dc36040518163ffffffff1660e01b8152600401602060405180830381865afa15801561349f573d6000803e3d6000fd5b505050506040513d601f19601f820116820180604052508101906134c39190614517565b905060008173ffffffffffffffffffffffffffffffffffffffff1663313ce5676040518163ffffffff1660e01b8152600401602060405180830381865afa158015613512573d6000803e3d6000fd5b505050506040513d601f19601f820116820180604052508101906135369190614c12565b60ff1690508173ffffffffffffffffffffffffffffffffffffffff166323b872dd8d878d8d6135659190614f19565b73__MathLib_______________________________63de7f617090918e6040518363ffffffff1660e01b815260040161359f929190614c4e565b602060405180830381865af41580156135bc573d6000803e3d6000fd5b505050506040513d601f19601f820116820180604052508101906135e091906149a2565b73__MarketLib_____________________________63174e20e69091876040518363ffffffff1660e01b815260040161361a929190614c4e565b602060405180830381865af4158015613637573d6000803e3d6000fd5b505050506040513d601f19601f8201168201806040525081019061365b91906149a2565b6040518463ffffffff1660e01b815260040161367993929190614c77565b6020604051808303816000875af1158015613698573d6000803e3d6000fd5b505050506040513d601f19601f820116820180604052508101906136bc9190614b40565b6136fb576040517f08c379a00000000000000000000000000000000000000000000000000000000081526004016136f290614e5e565b60405180910390fd5b5050613cf0565b60028081111561371557613714614405565b5b84600281111561372857613727614405565b5b03613ba9576000871115613871578173ffffffffffffffffffffffffffffffffffffffff166323b872dd33858a73__MarketLib_____________________________63174e20e69091876040518363ffffffff1660e01b815260040161378f929190614c4e565b602060405180830381865af41580156137ac573d6000803e3d6000fd5b505050506040513d601f19601f820116820180604052508101906137d091906149a2565b6040518463ffffffff1660e01b81526004016137ee93929190614c77565b6020604051808303816000875af115801561380d573d6000803e3d6000fd5b505050506040513d601f19601f820116820180604052508101906138319190614b40565b613870576040517f08c379a000000000000000000000000000000000000000000000000000000000815260040161386790614f99565b60405180910390fd5b5b60008373ffffffffffffffffffffffffffffffffffffffff166305268cff6040518163ffffffff1660e01b8152600401602060405180830381865afa1580156138be573d6000803e3d6000fd5b505050506040513d601f19601f820116820180604052508101906138e291906144ea565b73ffffffffffffffffffffffffffffffffffffffff16636cce89168573ffffffffffffffffffffffffffffffffffffffff16636f307dc36040518163ffffffff1660e01b8152600401602060405180830381865afa158015613948573d6000803e3d6000fd5b505050506040513d601f19601f8201168201806040525081019061396c9190614517565b8c6040518363ffffffff1660e01b815260040161398a929190614483565b602060405180830381865afa1580156139a7573d6000803e3d6000fd5b505050506040513d601f19601f820116820180604052508101906139cb9190614ac0565b905060008173ffffffffffffffffffffffffffffffffffffffff1663b3e1f0508b896040518363ffffffff1660e01b8152600401613a0a929190614544565b6040805180830381865afa158015613a26573d6000803e3d6000fd5b505050506040513d601f19601f82011682018060405250810190613a4a9190614434565b5090508473ffffffffffffffffffffffffffffffffffffffff16633e60e348838c73__MarketLib_____________________________63174e20e69091886040518363ffffffff1660e01b8152600401613aa5929190614c4e565b602060405180830381865af4158015613ac2573d6000803e3d6000fd5b505050506040513d601f19601f82011682018060405250810190613ae691906149a2565b6040518363ffffffff1660e01b8152600401613b03929190614483565b600060405180830381600087803b158015613b1d57600080fd5b505af1158015613b31573d6000803e3d6000fd5b505050508173ffffffffffffffffffffffffffffffffffffffff166340c10f1933836040518363ffffffff1660e01b8152600401613b70929190614483565b600060405180830381600087803b158015613b8a57600080fd5b505af1158015613b9e573d6000803e3d6000fd5b505050505050613cef565b8173ffffffffffffffffffffffffffffffffffffffff166323b872dd8b858b8b613bd39190614f19565b73__MarketLib_____________________________63174e20e69091876040518363ffffffff1660e01b8152600401613c0d929190614c4e565b602060405180830381865af4158015613c2a573d6000803e3d6000fd5b505050506040513d601f19601f82011682018060405250810190613c4e91906149a2565b6040518463ffffffff1660e01b8152600401613c6c93929190614c77565b6020604051808303816000875af1158015613c8b573d6000803e3d6000fd5b505050506040513d601f19601f82011682018060405250810190613caf9190614b40565b613cee576040517f08c379a0000000000000000000000000000000000000000000000000000000008152600401613ce590614e5e565b60405180910390fd5b5b5b5050505050505050505050565b600080fd5b600073ffffffffffffffffffffffffffffffffffffffff82169050919050565b6000613d2d82613d02565b9050919050565b6000613d3f82613d22565b9050919050565b613d4f81613d34565b8114613d5a57600080fd5b50565b600081359050613d6c81613d46565b92915050565b600060208284031215613d8857613d87613cfd565b5b6000613d9684828501613d5d565b91505092915050565b6000819050919050565b6000613dc4613dbf613dba84613d02565b613d9f565b613d02565b9050919050565b6000613dd682613da9565b9050919050565b6000613de882613dcb565b9050919050565b613df881613ddd565b82525050565b6000602082019050613e136000830184613def565b92915050565b6000819050919050565b613e2c81613e19565b8114613e3757600080fd5b50565b600081359050613e4981613e23565b92915050565b600060208284031215613e6557613e64613cfd565b5b6000613e7384828501613e3a565b91505092915050565b60048110613e8957600080fd5b50565b600081359050613e9b81613e7c565b92915050565b60028110613eae57600080fd5b50565b600081359050613ec081613ea1565b92915050565b60038110613ed357600080fd5b50565b600081359050613ee581613ec6565b92915050565b600080600080600080600080610100898b031215613f0c57613f0b613cfd565b5b6000613f1a8b828c01613d5d565b9850506020613f2b8b828c01613e3a565b9750506040613f3c8b828c01613e3a565b9650506060613f4d8b828c01613e3a565b9550506080613f5e8b828c01613e3a565b94505060a0613f6f8b828c01613e8c565b93505060c0613f808b828c01613eb1565b92505060e0613f918b828c01613ed6565b9150509295985092959890939650565b613faa81613d22565b8114613fb557600080fd5b50565b600081359050613fc781613fa1565b92915050565b60008060408385031215613fe457613fe3613cfd565b5b6000613ff285828601613e3a565b925050602061400385828601613fb8565b9150509250929050565b6000806040838503121561402457614023613cfd565b5b600061403285828601613d5d565b925050602061404385828601613e3a565b9150509250929050565b600061405882613dcb565b9050919050565b6140688161404d565b82525050565b6000602082019050614083600083018461405f565b92915050565b600080600080608085870312156140a3576140a2613cfd565b5b60006140b187828801613d5d565b94505060206140c287828801613e3a565b93505060406140d387828801613e3a565b92505060606140e487828801613eb1565b91505092959194509250565b600080600080600080600060e0888a03121561410f5761410e613cfd565b5b600061411d8a828b01613d5d565b975050602061412e8a828b01613e3a565b965050604061413f8a828b01613e3a565b95505060606141508a828b01613e3a565b94505060806141618a828b01613e3a565b93505060a06141728a828b01613e8c565b92505060c06141838a828b01613eb1565b91505092959891949750929550565b61419b81613e19565b82525050565b6000819050919050565b6141b4816141a1565b82525050565b600060a0820190506141cf6000830188614192565b6141dc6020830187614192565b6141e96040830186614192565b6141f66060830185614192565b61420360808301846141ab565b9695505050505050565b600061421882613dcb565b9050919050565b6142288161420d565b82525050565b6000602082019050614243600083018461421f565b92915050565b600061425482613d22565b9050919050565b61426481614249565b811461426f57600080fd5b50565b6000815190506142818161425b565b92915050565b60006020828403121561429d5761429c613cfd565b5b60006142ab84828501614272565b91505092915050565b60006142bf82613d22565b9050919050565b6142cf816142b4565b81146142da57600080fd5b50565b6000815190506142ec816142c6565b92915050565b60006020828403121561430857614307613cfd565b5b6000614316848285016142dd565b91505092915050565b60006020820190506143346000830184614192565b92915050565b6004811061434757600080fd5b50565b6000815190506143598161433a565b92915050565b60008151905061436e81613e23565b92915050565b60008151905061438381613fa1565b92915050565b60008151905061439881613d46565b92915050565b600080600080608085870312156143b8576143b7613cfd565b5b60006143c68782880161434a565b94505060206143d78782880161435f565b93505060406143e887828801614374565b92505060606143f987828801614389565b91505092959194509250565b7f4e487b7100000000000000000000000000000000000000000000000000000000600052602160045260246000fd5b6000806040838503121561444b5761444a613cfd565b5b60006144598582860161435f565b925050602061446a8582860161435f565b9150509250929050565b61447d81613d22565b82525050565b60006040820190506144986000830185614474565b6144a56020830184614192565b9392505050565b60006144b782613d22565b9050919050565b6144c7816144ac565b81146144d257600080fd5b50565b6000815190506144e4816144be565b92915050565b600060208284031215614500576144ff613cfd565b5b600061450e848285016144d5565b91505092915050565b60006020828403121561452d5761452c613cfd565b5b600061453b84828501614374565b91505092915050565b60006040820190506145596000830185614192565b6145666020830184614192565b9392505050565b600082825260208201905092915050565b7f2d45780000000000000000000000000000000000000000000000000000000000600082015250565b60006145b460038361456d565b91506145bf8261457e565b602082019050919050565b600060208201905081810360008301526145e3816145a7565b9050919050565b600481106145fb576145fa614405565b5b50565b600081905061460c826145ea565b919050565b600061461c826145fe565b9050919050565b61462c81614611565b82525050565b6002811061464357614642614405565b5b50565b600081905061465482614632565b919050565b600061466482614646565b9050919050565b61467481614659565b82525050565b6004811061468b5761468a614405565b5b50565b600081905061469c8261467a565b919050565b60006146ac8261468e565b9050919050565b6146bc816146a1565b82525050565b6146cb81613d22565b82525050565b6146da81613e19565b82525050565b6146e9816141a1565b82525050565b610260820160008201516147066000850182614623565b506020820151614719602085018261466b565b50604082015161472c60408501826146b3565b50606082015161473f60608501826146c2565b50608082015161475260808501826146d1565b5060a082015161476560a08501826146d1565b5060c082015161477860c08501826146d1565b5060e082015161478b60e08501826146d1565b506101008201516147a06101008501826146d1565b506101208201516147b56101208501826146d1565b506101408201516147ca6101408501826146d1565b506101608201516147df6101608501826146d1565b506101808201516147f46101808501826146d1565b506101a08201516148096101a08501826146d1565b506101c082015161481e6101c08501826146d1565b506101e08201516148336101e08501826146d1565b506102008201516148486102008501826146d1565b5061022082015161485d6102208501826146c2565b506102408201516148726102408501826146e0565b50505050565b60006102608201905061488e60008301846146ef565b92915050565b61489d816141a1565b81146148a857600080fd5b50565b6000815190506148ba81614894565b92915050565b600080600080600060a086880312156148dc576148db613cfd565b5b60006148ea8882890161435f565b95505060206148fb8882890161435f565b945050604061490c8882890161435f565b935050606061491d8882890161435f565b925050608061492e888289016148ab565b9150509295509295909350565b60006103008201905061495160008301896146ef565b61495f610260830188614192565b61496d610280830187614192565b61497b6102a0830186614192565b6149896102c0830185614192565b6149976102e08301846141ab565b979650505050505050565b6000602082840312156149b8576149b7613cfd565b5b60006149c68482850161435f565b91505092915050565b60006040820190506149e46000830185614192565b6149f16020830184614474565b9392505050565b600080600060608486031215614a1157614a10613cfd565b5b6000614a1f8682870161435f565b9350506020614a308682870161435f565b9250506040614a418682870161435f565b9150509250925092565b6000606082019050614a606000830186614192565b614a6d6020830185614192565b614a7a6040830184614474565b949350505050565b6000614a8d82613d22565b9050919050565b614a9d81614a82565b8114614aa857600080fd5b50565b600081519050614aba81614a94565b92915050565b600060208284031215614ad657614ad5613cfd565b5b6000614ae484828501614aab565b91505092915050565b6000602082019050614b026000830184614474565b92915050565b60008115159050919050565b614b1d81614b08565b8114614b2857600080fd5b50565b600081519050614b3a81614b14565b92915050565b600060208284031215614b5657614b55613cfd565b5b6000614b6484828501614b2b565b91505092915050565b7f2d56500000000000000000000000000000000000000000000000000000000000600082015250565b6000614ba360038361456d565b9150614bae82614b6d565b602082019050919050565b60006020820190508181036000830152614bd281614b96565b9050919050565b600060ff82169050919050565b614bef81614bd9565b8114614bfa57600080fd5b50565b600081519050614c0c81614be6565b92915050565b600060208284031215614c2857614c27613cfd565b5b6000614c3684828501614bfd565b91505092915050565b614c4881613e19565b82525050565b6000604082019050614c636000830185614c3f565b614c706020830184614c3f565b9392505050565b6000606082019050614c8c6000830186614474565b614c996020830185614474565b614ca66040830184614192565b949350505050565b7f2d56420000000000000000000000000000000000000000000000000000000000600082015250565b6000614ce460038361456d565b9150614cef82614cae565b602082019050919050565b60006020820190508181036000830152614d1381614cd7565b9050919050565b614d2381614b08565b82525050565b6000606082019050614d3e6000830186614192565b614d4b6020830185614192565b614d586040830184614d1a565b949350505050565b6000614d6b82613dcb565b9050919050565b614d7b81614d60565b82525050565b6000606082019050614d966000830186614d72565b614da36020830185614d1a565b614db06040830184614d1a565b949350505050565b6000614dd3614dce614dc984614bd9565b613d9f565b613e19565b9050919050565b614de381614db8565b82525050565b6000604082019050614dfe6000830185614c3f565b614e0b6020830184614dda565b9392505050565b7f2d504d0000000000000000000000000000000000000000000000000000000000600082015250565b6000614e4860038361456d565b9150614e5382614e12565b602082019050919050565b60006020820190508181036000830152614e7781614e3b565b9050919050565b7f6d56500000000000000000000000000000000000000000000000000000000000600082015250565b6000614eb460038361456d565b9150614ebf82614e7e565b602082019050919050565b60006020820190508181036000830152614ee381614ea7565b9050919050565b7f4e487b7100000000000000000000000000000000000000000000000000000000600052601160045260246000fd5b6000614f2482613e19565b9150614f2f83613e19565b9250828203905081811115614f4757614f46614eea565b5b92915050565b7f2d434d0000000000000000000000000000000000000000000000000000000000600082015250565b6000614f8360038361456d565b9150614f8e82614f4d565b602082019050919050565b60006020820190508181036000830152614fb281614f76565b905091905056fea26469706673582212207bb009ecaf60e2e214e60395311d98835c420727240af8806024ebe19f56f8b564736f6c63430008110033",
  "immutableReferences": {
    "8565": [
      {
        "length": 32,
        "start": 751
      },
      {
        "length": 32,
        "start": 1012
      },
      {
        "length": 32,
        "start": 1154
      },
      {
        "length": 32,
        "start": 2441
      },
      {
        "length": 32,
        "start": 2688
      },
      {
        "length": 32,
        "start": 2856
      },
      {
        "length": 32,
        "start": 3341
      },
      {
        "length": 32,
        "start": 3614
      },
      {
        "length": 32,
        "start": 3758
      },
      {
        "length": 32,
        "start": 6624
      },
      {
        "length": 32,
        "start": 8017
      },
      {
        "length": 32,
        "start": 9336
      },
      {
        "length": 32,
        "start": 9518
      },
      {
        "length": 32,
        "start": 10629
      }
    ]
  },
  "source": "// SPDX-License-Identifier: MIT\npragma solidity 0.8.17;\n\nimport \"@openzeppelin/contracts/token/ERC20/ERC20.sol\";\nimport \"@openzeppelin/contracts/utils/math/SafeMath.sol\";\nimport \"./interfaces/EOption.sol\";\nimport \"./libraries/MathLib.sol\";\nimport \"./libraries/MarketLib.sol\";\nimport \"./libraries/OptionLib.sol\";\nimport \"./governance/Moret.sol\";\nimport \"./pools/Pool.sol\";\nimport \"./pools/MarketMaker.sol\";\nimport \"./OptionVault.sol\";\nimport \"./VolatilityToken.sol\";\n\ncontract Exchange is EOption{\n  using MarketLib for uint256;\n  using MathLib for uint256;\n  using SafeMath for uint256;\n\n  event NewOption(address indexed _purchaser, address indexed _underlying, uint256 _optionId);\n\n  // immutable addresses\n  OptionVault public immutable vault;\n\n  // contructor. Arguments: option vault and bot address\n  constructor(OptionVault _optionVault){\n    vault = _optionVault;}\n  \n  function queryOption(Pool _pool, uint256 _tenor, uint256 _strike, uint256 _spread, uint256 _amount, OptionLib.PayoffType _poType, OptionLib.OptionSide _side) external view returns(uint256 _premium, uint256 _collateral, uint256 _price, uint256 _volatility, int256 _exposure){\n    OptionLib.Option memory _option = OptionLib.Option(_poType, _side, OptionLib.OptionStatus.Draft, msg.sender, 0, block.timestamp,  0, _tenor, 0,  0, _amount, 0, _strike, _spread, 0, 0, 0, address(_pool), 0);\n    return vault.calcOptionCost(_option);}\n\n  // functions to transact for option contracts\n  // arguments: pool token address, tenor in seconds, strike in 18 decimals, amount in 18 decimals, payoff type (call 0 or put 1), option side (buy 0 or sell 1), payment methods 0-usdc/1-token/2-vol\n  function tradeOption(Pool _pool, uint256 _tenor, uint256 _strike, uint256 _spread, uint256 _amount, OptionLib.PayoffType _poType, OptionLib.OptionSide _side, OptionLib.PaymentMethod _payment) external {\n    require(_pool.exchange() == address(this), \"-Ex\");\n    OptionLib.Option memory _option = OptionLib.Option(_poType, _side, OptionLib.OptionStatus.Draft, msg.sender, 0, block.timestamp,  0, _tenor, 0,  0, _amount, 0, _strike, _spread, 0, 0, 0, address(_pool), 0);\n    (uint256 _premium, uint256 _collateral, uint256 _price, uint256 _vol, int256 _exposure) = vault.calcOptionCost(_option);\n\n    // transfer premiums\n    if(_side == OptionLib.OptionSide.Buy){\n      buyOption(_pool, msg.sender, _tenor, _premium, _price, _vol, _payment);\n    }else {\n      sellOption(_pool, msg.sender, _tenor, _premium, _collateral, _price, _vol, _payment);\n    }\n\n    uint256 _id = vault.addOption(_option, _premium, _collateral, _price, _vol, _exposure);\n    vault.stampActiveOption(_id, msg.sender);\n\n    emit NewOption(msg.sender, _pool.marketMaker().underlying(), _id);\n  }\n\n  function buyOption(Pool _pool, address _buyer, uint256 _tenor, uint256 _premium, uint256 _price, uint256 _vol, OptionLib.PaymentMethod _payment) internal {\n    MarketMaker _marketMaker = _pool.marketMaker();\n    ERC20 _funding = ERC20(_marketMaker.funding());\n    uint256 _fundingDecimals = _funding.decimals();\n    address _underlyingAddress = _marketMaker.underlying();\n   \n    if (_payment == OptionLib.PaymentMethod.Token){\n      ERC20 _underlying = ERC20(_underlyingAddress);\n      uint256 _decimals = _underlying.decimals();\n      require(_underlying.transferFrom(_buyer, address(_marketMaker), _premium.ethdiv(_price).toDecimals(_decimals)), '-PM');}\n    else if (_payment == OptionLib.PaymentMethod.Vol){\n      VolatilityToken _vToken = _marketMaker.govToken().getVolatilityToken(_underlyingAddress, _tenor);\n      (uint256 _volAmount, uint256 _volPrice) = _vToken.getBurnAmount(_premium, _vol);\n      require(_volPrice > _pool.minVolPrice(), 'mVP');\n      _vToken.burn(msg.sender, _volAmount);\n      _vToken.pay(address(_marketMaker), _premium.toDecimals(_fundingDecimals));}\n    else{\n      require(_funding.transferFrom(_buyer, address(_marketMaker), _premium.toDecimals(_fundingDecimals)), '-PM');}\n  }\n\n  function sellOption(Pool _pool, address _buyer, uint256 _tenor, uint256 _premium, uint256 _collateral, uint256 _price, uint256 _vol, OptionLib.PaymentMethod _payment) internal {\n    MarketMaker _marketMaker = _pool.marketMaker();\n    ERC20 _funding = ERC20(_marketMaker.funding());\n    uint256 _fundingDecimals = _funding.decimals();\n    \n    if (_payment == OptionLib.PaymentMethod.Token){\n      ERC20 _underlying = ERC20(_marketMaker.underlying());\n      uint256 _decimals = _underlying.decimals();\n      require(_underlying.transferFrom(_buyer, address(_marketMaker), (_collateral - _premium).ethdiv(_price).toDecimals(_decimals)), '-PM');\n    }\n    else if (_payment == OptionLib.PaymentMethod.Vol){\n      if(_collateral > 0){\n        require(_funding.transferFrom(msg.sender, address(_marketMaker), _collateral.toDecimals(_fundingDecimals)), '-CM'); }\n      VolatilityToken _vToken = _marketMaker.govToken().getVolatilityToken(_marketMaker.underlying(), _tenor);\n      (uint256 _volAmount, ) = _vToken.getMintAmount(_premium, _vol);\n      _marketMaker.settlePayment(address(_vToken), _premium.toDecimals(_fundingDecimals)); \n      _vToken.mint(msg.sender, _volAmount);\n    }\n    else{\n      require(_funding.transferFrom(_buyer, address(_marketMaker), (_collateral - _premium).toDecimals(_fundingDecimals)), '-PM');\n    }\n  }\n\n  \n\n  // functions to transact volatility tokens (buy or sell)\n  // arguments: pool token address, tenor in seconds, amount in 18 decimals, option side (buy 0 or sell 1)\n  function tradeVolToken(Pool _pool, uint256 _tenor, uint256 _amount, OptionLib.OptionSide _side) external{\n    MarketMaker _marketMaker = _pool.marketMaker();\n    require(_marketMaker.govToken().existVolTradingPool(address(_pool)), '-VP'); // only certified pools can trade vol\n    VolatilityToken _vToken = _marketMaker.govToken().getVolatilityToken(_marketMaker.underlying(), _tenor);\n    VolatilityChain _volChain = _marketMaker.getVolatilityChain();\n    OptionLib.Option memory _option = OptionLib.Option(OptionLib.PayoffType.Put, _side, OptionLib.OptionStatus.Draft, msg.sender, 0, block.timestamp,  0, _tenor, 0,  0, _amount, 0, _volChain.queryPrice(), 0, 0, 0, 0, address(_pool), 0);\n\n    ERC20 _funding = ERC20(_marketMaker.funding());\n    uint256 _fundingDecimals = _funding.decimals();\n    (uint256 _premium, , , uint256 _vol, ) = vault.calcOptionCost(_option); \n    \n    uint256 _volAmount;\n    if (_side == OptionLib.OptionSide.Buy){\n      require(_funding.transferFrom(msg.sender, address(_vToken), _premium.toDecimals(_fundingDecimals)), \"-VB\");\n      (_volAmount, ) = _vToken.getMintAmount(_premium, _vol);\n      _vToken.mint(msg.sender, _volAmount);}\n    else{\n      (_volAmount, ) = _vToken.getBurnAmount(_premium, _vol);\n      _vToken.burn(msg.sender, _volAmount);\n      _vToken.pay(msg.sender, _premium.toDecimals(_fundingDecimals));}\n    \n    emit TradeVolatility(msg.sender, address(_pool), _amount, _volAmount, _side == OptionLib.OptionSide.Buy);\n  }\n\n  // get volatility token\n  function getVolatilityToken(Pool _pool, uint256 _tenor) external view returns(VolatilityToken){\n    MarketMaker _marketMaker = _pool.marketMaker();\n    return _marketMaker.govToken().getVolatilityToken(_marketMaker.underlying(), _tenor);\n  }\n\n  // get volatility chain\n  function getVolatilityChain(Pool _pool) external view returns(VolatilityChain){\n    MarketMaker _marketMaker = _pool.marketMaker();\n    return _marketMaker.getVolatilityChain();\n  }\n\n  // expire option contracts (one at a time), with exercise fees paid to the exercising bots.\n  function expireOption(uint256 _expiringId, address _exerciseFeeRecipient) external {\n    (OptionLib.OptionStatus _optionStatus, uint256 _maturity, address _optionHolder, Pool _pool) = vault.getOptionInfo(_expiringId);\n\n    if((_optionStatus == OptionLib.OptionStatus.Active) && ((_maturity <= block.timestamp) || (_optionHolder == msg.sender))){\n      vault.stampExpiredOption(_expiringId);\n      (uint256 _toHolder, uint256 _toProtocol, uint256 _toExerciser) = vault.getContractPayoff(_expiringId);\n\n      MarketMaker _marketMaker = _pool.marketMaker();\n      _marketMaker.settlePayment(_optionHolder, _toHolder);\n      _marketMaker.settlePayment(_marketMaker.govToken().protocolFeeRecipient(), _toProtocol);\n      _marketMaker.settlePayment(_exerciseFeeRecipient, _toExerciser);      \n      emit Expire(_optionHolder, address(_pool), _expiringId, _toHolder, msg.sender);\n    }\n  }\n\n  // unwind existing option contracts\n  // arguments: pool token address, tenor in seconds, strike in 18 decimals, amount in 18 decimals, payoff type (call 0 or put 1), option side (buy 0 or sell 1), payment methods 0-usdc/1-token/2-vol\n  function unwindOption(uint256 _optionId) external {\n    (OptionLib.OptionStatus _optionStatus, , address _optionHolder, Pool _pool) = vault.getOptionInfo(_optionId);\n    \n    if((_optionStatus == OptionLib.OptionStatus.Active) && (_optionHolder == msg.sender)){\n      vault.stampExpiredOption(_optionId);\n      // get unwind value\n      (uint256 _toHolder, uint256 _toProtocol) = vault.calcOptionUnwindValue(_optionId);\n\n      MarketMaker _marketMaker = _pool.marketMaker();\n      _marketMaker.settlePayment(_optionHolder, _toHolder);\n      _marketMaker.settlePayment(_marketMaker.govToken().protocolFeeRecipient(), _toProtocol);   \n      emit Unwind(_optionHolder, address(_pool), _optionId, _toHolder);\n    }\n  }\n  \n  // add capital by depositing amount in funding tokens\n  function addCapital(Pool _pool, uint256 _depositAmount) external{\n    uint256 _averageGrossCapital = vault.calcCapital(_pool, false, true);\n    ERC20 _funding = ERC20(_pool.marketMaker().funding());\n    uint256 _mintPoolAmount = _depositAmount.toWei(_funding.decimals()).ethdiv(_averageGrossCapital);\n    require(_funding.transferFrom(msg.sender, address(_pool.marketMaker()), _depositAmount));\n    _pool.mint(msg.sender, _mintPoolAmount);\n  }\n\n  // remove capital by withdrawing amount in funding tokens\n  function withdrawCapital(Pool _pool, uint256 _burnPoolAmount) external{\n    uint256 _averageNetCapital = vault.calcCapital(_pool, true, true);\n    uint256 _withdrawValue = _averageNetCapital.ethmul(_burnPoolAmount).toDecimals(ERC20(_pool.marketMaker().funding()).decimals()); \n    _pool.burn(msg.sender, _burnPoolAmount);\n    _pool.marketMaker().settlePayment(msg.sender, _withdrawValue);\n  }\n}\n",
  "sourcePath": "/Users/mac/Documents/GitHub/moret/contracts/Exchange.sol",
  "compiler": {
    "name": "solc",
    "version": "0.8.17+commit.8df45f5f.Emscripten.clang"
  },
  "schemaVersion": "3.4.3",
  "updatedAt": "2023-01-15T15:53:25.003Z",
  "devdoc": {
    "kind": "dev",
    "methods": {},
    "version": 1
  },
  "userdoc": {
    "kind": "user",
    "methods": {},
    "version": 1
  }
}