{
  "contractName": "Exchange",
  "abi": [
    {
      "inputs": [
        {
          "internalType": "contract OptionVault",
          "name": "_optionVault",
          "type": "address"
        }
      ],
      "stateMutability": "nonpayable",
      "type": "constructor"
    },
    {
      "anonymous": false,
      "inputs": [
        {
          "indexed": true,
          "internalType": "address",
          "name": "_bot",
          "type": "address"
        },
        {
          "indexed": true,
          "internalType": "address",
          "name": "_exchange",
          "type": "address"
        },
        {
          "indexed": false,
          "internalType": "address",
          "name": "_holder",
          "type": "address"
        },
        {
          "indexed": false,
          "internalType": "uint256",
          "name": "_id",
          "type": "uint256"
        },
        {
          "indexed": false,
          "internalType": "uint256",
          "name": "_payoff",
          "type": "uint256"
        }
      ],
      "name": "Expire",
      "type": "event"
    },
    {
      "anonymous": false,
      "inputs": [
        {
          "indexed": true,
          "internalType": "address",
          "name": "_hedger",
          "type": "address"
        },
        {
          "indexed": true,
          "internalType": "address",
          "name": "_market",
          "type": "address"
        },
        {
          "indexed": false,
          "internalType": "bool",
          "name": "success",
          "type": "bool"
        },
        {
          "indexed": false,
          "internalType": "bytes",
          "name": "data",
          "type": "bytes"
        }
      ],
      "name": "HedgeResponse",
      "type": "event"
    },
    {
      "anonymous": false,
      "inputs": [
        {
          "indexed": true,
          "internalType": "address",
          "name": "_hedger",
          "type": "address"
        },
        {
          "indexed": true,
          "internalType": "address",
          "name": "_market",
          "type": "address"
        },
        {
          "indexed": false,
          "internalType": "uint256[]",
          "name": "amounts",
          "type": "uint256[]"
        }
      ],
      "name": "HedgeSwapResponse",
      "type": "event"
    },
    {
      "anonymous": false,
      "inputs": [
        {
          "indexed": true,
          "internalType": "address",
          "name": "_purchaser",
          "type": "address"
        },
        {
          "indexed": true,
          "internalType": "address",
          "name": "_underlying",
          "type": "address"
        },
        {
          "indexed": false,
          "internalType": "uint256",
          "name": "_optionId",
          "type": "uint256"
        }
      ],
      "name": "NewOption",
      "type": "event"
    },
    {
      "anonymous": false,
      "inputs": [
        {
          "indexed": true,
          "internalType": "address",
          "name": "previousOwner",
          "type": "address"
        },
        {
          "indexed": true,
          "internalType": "address",
          "name": "newOwner",
          "type": "address"
        }
      ],
      "name": "OwnershipTransferred",
      "type": "event"
    },
    {
      "anonymous": false,
      "inputs": [
        {
          "indexed": false,
          "internalType": "address",
          "name": "account",
          "type": "address"
        }
      ],
      "name": "Paused",
      "type": "event"
    },
    {
      "anonymous": false,
      "inputs": [
        {
          "indexed": false,
          "internalType": "address",
          "name": "_newBot",
          "type": "address"
        }
      ],
      "name": "ResetBotAddress",
      "type": "event"
    },
    {
      "anonymous": false,
      "inputs": [
        {
          "indexed": true,
          "internalType": "uint256",
          "name": "_parameterId",
          "type": "uint256"
        },
        {
          "indexed": false,
          "internalType": "uint256",
          "name": "_parameter",
          "type": "uint256"
        }
      ],
      "name": "ResetParameter",
      "type": "event"
    },
    {
      "anonymous": false,
      "inputs": [
        {
          "indexed": true,
          "internalType": "address",
          "name": "_exchange",
          "type": "address"
        },
        {
          "indexed": false,
          "internalType": "bool",
          "name": "_tradingAllowed",
          "type": "bool"
        }
      ],
      "name": "ResetTradingStatus",
      "type": "event"
    },
    {
      "anonymous": false,
      "inputs": [
        {
          "indexed": true,
          "internalType": "address",
          "name": "_purchaser",
          "type": "address"
        },
        {
          "indexed": true,
          "internalType": "address",
          "name": "_exchange",
          "type": "address"
        },
        {
          "indexed": false,
          "internalType": "uint256",
          "name": "_cost",
          "type": "uint256"
        },
        {
          "indexed": false,
          "internalType": "uint256",
          "name": "_volAmount",
          "type": "uint256"
        },
        {
          "indexed": false,
          "internalType": "bool",
          "name": "_isPurchase",
          "type": "bool"
        }
      ],
      "name": "TradeVolatility",
      "type": "event"
    },
    {
      "anonymous": false,
      "inputs": [
        {
          "indexed": false,
          "internalType": "address",
          "name": "account",
          "type": "address"
        }
      ],
      "name": "Unpaused",
      "type": "event"
    },
    {
      "inputs": [],
      "name": "owner",
      "outputs": [
        {
          "internalType": "address",
          "name": "",
          "type": "address"
        }
      ],
      "stateMutability": "view",
      "type": "function",
      "constant": true
    },
    {
      "inputs": [],
      "name": "paused",
      "outputs": [
        {
          "internalType": "bool",
          "name": "",
          "type": "bool"
        }
      ],
      "stateMutability": "view",
      "type": "function",
      "constant": true
    },
    {
      "inputs": [],
      "name": "renounceOwnership",
      "outputs": [],
      "stateMutability": "nonpayable",
      "type": "function"
    },
    {
      "inputs": [
        {
          "internalType": "address",
          "name": "newOwner",
          "type": "address"
        }
      ],
      "name": "transferOwnership",
      "outputs": [],
      "stateMutability": "nonpayable",
      "type": "function"
    },
    {
      "inputs": [],
      "name": "vault",
      "outputs": [
        {
          "internalType": "contract OptionVault",
          "name": "",
          "type": "address"
        }
      ],
      "stateMutability": "view",
      "type": "function",
      "constant": true
    },
    {
      "inputs": [
        {
          "internalType": "contract Pool",
          "name": "_pool",
          "type": "address"
        },
        {
          "internalType": "uint256",
          "name": "_tenor",
          "type": "uint256"
        },
        {
          "internalType": "uint256",
          "name": "_strike",
          "type": "uint256"
        },
        {
          "internalType": "uint256",
          "name": "_spread",
          "type": "uint256"
        },
        {
          "internalType": "uint256",
          "name": "_amount",
          "type": "uint256"
        },
        {
          "internalType": "enum OptionLib.PayoffType",
          "name": "_poType",
          "type": "uint8"
        },
        {
          "internalType": "enum OptionLib.OptionSide",
          "name": "_side",
          "type": "uint8"
        }
      ],
      "name": "queryOption",
      "outputs": [
        {
          "internalType": "uint256",
          "name": "_premium",
          "type": "uint256"
        },
        {
          "internalType": "uint256",
          "name": "_collateral",
          "type": "uint256"
        },
        {
          "internalType": "uint256",
          "name": "_price",
          "type": "uint256"
        },
        {
          "internalType": "uint256",
          "name": "_volatility",
          "type": "uint256"
        },
        {
          "internalType": "int256",
          "name": "_exposure",
          "type": "int256"
        }
      ],
      "stateMutability": "view",
      "type": "function",
      "constant": true
    },
    {
      "inputs": [
        {
          "internalType": "contract Pool",
          "name": "_pool",
          "type": "address"
        },
        {
          "internalType": "uint256",
          "name": "_tenor",
          "type": "uint256"
        },
        {
          "internalType": "uint256",
          "name": "_strike",
          "type": "uint256"
        },
        {
          "internalType": "uint256",
          "name": "_spread",
          "type": "uint256"
        },
        {
          "internalType": "uint256",
          "name": "_amount",
          "type": "uint256"
        },
        {
          "internalType": "enum OptionLib.PayoffType",
          "name": "_poType",
          "type": "uint8"
        },
        {
          "internalType": "enum OptionLib.OptionSide",
          "name": "_side",
          "type": "uint8"
        },
        {
          "internalType": "enum OptionLib.PaymentMethod",
          "name": "_payment",
          "type": "uint8"
        }
      ],
      "name": "tradeOption",
      "outputs": [],
      "stateMutability": "nonpayable",
      "type": "function"
    },
    {
      "inputs": [
        {
          "internalType": "contract Pool",
          "name": "_pool",
          "type": "address"
        },
        {
          "internalType": "uint256",
          "name": "_tenor",
          "type": "uint256"
        },
        {
          "internalType": "uint256",
          "name": "_amount",
          "type": "uint256"
        },
        {
          "internalType": "enum OptionLib.OptionSide",
          "name": "_side",
          "type": "uint8"
        }
      ],
      "name": "tradeVolToken",
      "outputs": [],
      "stateMutability": "nonpayable",
      "type": "function"
    },
    {
      "inputs": [
        {
          "internalType": "contract Pool",
          "name": "_pool",
          "type": "address"
        },
        {
          "internalType": "uint256",
          "name": "_tenor",
          "type": "uint256"
        }
      ],
      "name": "getVolatilityToken",
      "outputs": [
        {
          "internalType": "contract VolatilityToken",
          "name": "",
          "type": "address"
        }
      ],
      "stateMutability": "view",
      "type": "function",
      "constant": true
    },
    {
      "inputs": [
        {
          "internalType": "contract Pool",
          "name": "_pool",
          "type": "address"
        }
      ],
      "name": "getVolatilityChain",
      "outputs": [
        {
          "internalType": "contract VolatilityChain",
          "name": "",
          "type": "address"
        }
      ],
      "stateMutability": "view",
      "type": "function",
      "constant": true
    },
    {
      "inputs": [
        {
          "internalType": "uint256",
          "name": "_expiringId",
          "type": "uint256"
        },
        {
          "internalType": "address",
          "name": "_exerciseFeeRecipient",
          "type": "address"
        }
      ],
      "name": "expireOption",
      "outputs": [],
      "stateMutability": "nonpayable",
      "type": "function"
    },
    {
      "inputs": [
        {
          "internalType": "contract Pool",
          "name": "_pool",
          "type": "address"
        },
        {
          "internalType": "uint256",
          "name": "_depositAmount",
          "type": "uint256"
        }
      ],
      "name": "addCapital",
      "outputs": [],
      "stateMutability": "nonpayable",
      "type": "function"
    },
    {
      "inputs": [
        {
          "internalType": "contract Pool",
          "name": "_pool",
          "type": "address"
        },
        {
          "internalType": "uint256",
          "name": "_burnPoolAmount",
          "type": "uint256"
        }
      ],
      "name": "withdrawCapital",
      "outputs": [],
      "stateMutability": "nonpayable",
      "type": "function"
    },
    {
      "inputs": [],
      "name": "pause",
      "outputs": [],
      "stateMutability": "nonpayable",
      "type": "function"
    },
    {
      "inputs": [],
      "name": "unpause",
      "outputs": [],
      "stateMutability": "nonpayable",
      "type": "function"
    }
  ],
  "bytecode": "0x60a06040523480156200001157600080fd5b5060405162005c9f38038062005c9f8339818101604052810190620000379190620001f6565b620000576200004b620000ac60201b60201c565b620000b460201b60201c565b60008060146101000a81548160ff0219169083151502179055508073ffffffffffffffffffffffffffffffffffffffff1660808173ffffffffffffffffffffffffffffffffffffffff16815250505062000228565b600033905090565b60008060009054906101000a900473ffffffffffffffffffffffffffffffffffffffff169050816000806101000a81548173ffffffffffffffffffffffffffffffffffffffff021916908373ffffffffffffffffffffffffffffffffffffffff1602179055508173ffffffffffffffffffffffffffffffffffffffff168173ffffffffffffffffffffffffffffffffffffffff167f8be0079c531659141344cd1fd0a4f28419497f9722a3daafe3b4186f6b6457e060405160405180910390a35050565b600080fd5b600073ffffffffffffffffffffffffffffffffffffffff82169050919050565b6000620001aa826200017d565b9050919050565b6000620001be826200019d565b9050919050565b620001d081620001b1565b8114620001dc57600080fd5b50565b600081519050620001f081620001c5565b92915050565b6000602082840312156200020f576200020e62000178565b5b60006200021f84828501620001df565b91505092915050565b608051615a156200028a600039600081816105b3015281816106aa01528181610752015281816109bd01528181610a8b01528181610b1901528181611d6d015281816123d5015281816128fc015281816129fa0152612f480152615a156000f3fe608060405234801561001057600080fd5b50600436106100f55760003560e01c8063826fdbbd11610097578063b3c5a10111610066578063b3c5a10114610224578063e98254bb14610258578063f2fde38b14610274578063fbfa77cf14610290576100f5565b8063826fdbbd146101c45780638456cb59146101e05780638da5cb5b146101ea5780639111fccd14610208576100f5565b806354f6e8c8116100d357806354f6e8c8146101505780635c975abb1461016c5780636cce89161461018a578063715018a6146101ba576100f5565b806315dc2e9d146100fa57806331d975d21461012a5780633f4ba83a14610146575b600080fd5b610114600480360381019061010f919061455e565b6102ae565b60405161012191906145ea565b60405180910390f35b610144600480360381019061013f91906146aa565b610399565b005b61014e61092f565b005b61016a6004803603810190610165919061478c565b6109b5565b005b6101746114ff565b60405161018191906147e7565b60405180910390f35b6101a4600480360381019061019f9190614802565b611515565b6040516101b19190614863565b60405180910390f35b6101c26116ea565b005b6101de60048036038101906101d9919061487e565b611772565b005b6101e86122da565b005b6101f2612360565b6040516101ff91906148f4565b60405180910390f35b610222600480360381019061021d9190614802565b612389565b005b61023e6004803603810190610239919061490f565b612807565b60405161024f9594939291906149d9565b60405180910390f35b610272600480360381019061026d9190614802565b6129ae565b005b61028e60048036038101906102899190614a2c565b612e4f565b005b610298612f46565b6040516102a59190614a7a565b60405180910390f35b6000808273ffffffffffffffffffffffffffffffffffffffff16631f21f9af6040518163ffffffff1660e01b8152600401602060405180830381865afa1580156102fc573d6000803e3d6000fd5b505050506040513d601f19601f820116820180604052508101906103209190614ad3565b90508073ffffffffffffffffffffffffffffffffffffffff1663c0a16f6a6040518163ffffffff1660e01b8152600401602060405180830381865afa15801561036d573d6000803e3d6000fd5b505050506040513d601f19601f820116820180604052508101906103919190614b3e565b915050919050565b6103a16114ff565b156103e1576040517f08c379a00000000000000000000000000000000000000000000000000000000081526004016103d890614bc8565b60405180910390fd5b3073ffffffffffffffffffffffffffffffffffffffff168873ffffffffffffffffffffffffffffffffffffffff1663d2f7265a6040518163ffffffff1660e01b8152600401602060405180830381865afa158015610443573d6000803e3d6000fd5b505050506040513d601f19601f820116820180604052508101906104679190614bfd565b73ffffffffffffffffffffffffffffffffffffffff16146104bd576040517f08c379a00000000000000000000000000000000000000000000000000000000081526004016104b490614c76565b60405180910390fd5b60006040518061026001604052808560038111156104de576104dd614c96565b5b81526020018460018111156104f6576104f5614c96565b5b81526020016000600381111561050f5761050e614c96565b5b81526020013373ffffffffffffffffffffffffffffffffffffffff16815260200160008152602001428152602001600081526020018981526020016000815260200160008152602001868152602001600081526020018881526020018781526020016000815260200160008152602001600081526020018a73ffffffffffffffffffffffffffffffffffffffff1681526020016000815250905060008060008060007f000000000000000000000000000000000000000000000000000000000000000073ffffffffffffffffffffffffffffffffffffffff1663956da059876040518263ffffffff1660e01b815260040161060a9190614f53565b60a060405180830381865afa158015610627573d6000803e3d6000fd5b505050506040513d601f19601f8201168201806040525081019061064b9190614fb0565b945094509450945094506000600181111561066957610668614c96565b5b88600181111561067c5761067b614c96565b5b03610695576106908e338f8887878d612f6a565b6106a6565b6106a58e338f888888888e61388d565b5b60007f000000000000000000000000000000000000000000000000000000000000000073ffffffffffffffffffffffffffffffffffffffff1663587a6c158888888888886040518763ffffffff1660e01b815260040161070b9695949392919061502b565b6020604051808303816000875af115801561072a573d6000803e3d6000fd5b505050506040513d601f19601f8201168201806040525081019061074e9190615092565b90507f000000000000000000000000000000000000000000000000000000000000000073ffffffffffffffffffffffffffffffffffffffff166324b4110e82336040518363ffffffff1660e01b81526004016107ab9291906150bf565b600060405180830381600087803b1580156107c557600080fd5b505af11580156107d9573d6000803e3d6000fd5b505050508e73ffffffffffffffffffffffffffffffffffffffff16631f21f9af6040518163ffffffff1660e01b8152600401602060405180830381865afa158015610828573d6000803e3d6000fd5b505050506040513d601f19601f8201168201806040525081019061084c9190614ad3565b73ffffffffffffffffffffffffffffffffffffffff16636f307dc36040518163ffffffff1660e01b8152600401602060405180830381865afa158015610896573d6000803e3d6000fd5b505050506040513d601f19601f820116820180604052508101906108ba9190614bfd565b73ffffffffffffffffffffffffffffffffffffffff163373ffffffffffffffffffffffffffffffffffffffff167f43e72efa3a4fa0d2e34fd004e07a50adf9a48ccb50611e1f75eefffbc3a65c678360405161091691906150e8565b60405180910390a3505050505050505050505050505050565b6109376142c0565b73ffffffffffffffffffffffffffffffffffffffff16610955612360565b73ffffffffffffffffffffffffffffffffffffffff16146109ab576040517f08c379a00000000000000000000000000000000000000000000000000000000081526004016109a29061514f565b60405180910390fd5b6109b36142c8565b565b6000806000807f000000000000000000000000000000000000000000000000000000000000000073ffffffffffffffffffffffffffffffffffffffff1663fc9d80e0876040518263ffffffff1660e01b8152600401610a1491906150e8565b608060405180830381865afa158015610a31573d6000803e3d6000fd5b505050506040513d601f19601f82011682018060405250810190610a5591906151be565b935093509350935060016003811115610a7157610a70614c96565b5b846003811115610a8457610a83614c96565b5b036114f7577f000000000000000000000000000000000000000000000000000000000000000073ffffffffffffffffffffffffffffffffffffffff1663637baf60876040518263ffffffff1660e01b8152600401610ae291906150e8565b600060405180830381600087803b158015610afc57600080fd5b505af1158015610b10573d6000803e3d6000fd5b505050506000807f000000000000000000000000000000000000000000000000000000000000000073ffffffffffffffffffffffffffffffffffffffff166385ae10e6896040518263ffffffff1660e01b8152600401610b7091906150e8565b606060405180830381865afa158015610b8d573d6000803e3d6000fd5b505050506040513d601f19601f82011682018060405250810190610bb19190615225565b509150915060008373ffffffffffffffffffffffffffffffffffffffff16631f21f9af6040518163ffffffff1660e01b8152600401602060405180830381865afa158015610c03573d6000803e3d6000fd5b505050506040513d601f19601f82011682018060405250810190610c279190614ad3565b73ffffffffffffffffffffffffffffffffffffffff1663cb4c86b76040518163ffffffff1660e01b8152600401602060405180830381865afa158015610c71573d6000803e3d6000fd5b505050506040513d601f19601f82011682018060405250810190610c959190614bfd565b73ffffffffffffffffffffffffffffffffffffffff1663313ce5676040518163ffffffff1660e01b8152600401602060405180830381865afa158015610cdf573d6000803e3d6000fd5b505050506040513d601f19601f82011682018060405250810190610d0391906152b1565b60ff16905060008373__MathLib_______________________________63fed4a0f390918773ffffffffffffffffffffffffffffffffffffffff16631f21f9af6040518163ffffffff1660e01b8152600401602060405180830381865afa158015610d72573d6000803e3d6000fd5b505050506040513d601f19601f82011682018060405250810190610d969190614ad3565b73ffffffffffffffffffffffffffffffffffffffff166305268cff6040518163ffffffff1660e01b8152600401602060405180830381865afa158015610de0573d6000803e3d6000fd5b505050506040513d601f19601f82011682018060405250810190610e04919061531c565b73ffffffffffffffffffffffffffffffffffffffff1663b0e21e8a6040518163ffffffff1660e01b8152600401602060405180830381865afa158015610e4e573d6000803e3d6000fd5b505050506040513d601f19601f82011682018060405250810190610e729190615092565b6040518363ffffffff1660e01b8152600401610e8f929190615358565b602060405180830381865af4158015610eac573d6000803e3d6000fd5b505050506040513d601f19601f82011682018060405250810190610ed09190615092565b73__MarketLib_____________________________63174e20e69091846040518363ffffffff1660e01b8152600401610f0a929190615358565b602060405180830381865af4158015610f27573d6000803e3d6000fd5b505050506040513d601f19601f82011682018060405250810190610f4b9190615092565b905060008473__MathLib_______________________________63fed4a0f390918873ffffffffffffffffffffffffffffffffffffffff1663d1c699aa6040518163ffffffff1660e01b8152600401602060405180830381865afa158015610fb7573d6000803e3d6000fd5b505050506040513d601f19601f82011682018060405250810190610fdb9190615092565b6040518363ffffffff1660e01b8152600401610ff8929190615358565b602060405180830381865af4158015611015573d6000803e3d6000fd5b505050506040513d601f19601f820116820180604052508101906110399190615092565b73__MarketLib_____________________________63174e20e69091856040518363ffffffff1660e01b8152600401611073929190615358565b602060405180830381865af4158015611090573d6000803e3d6000fd5b505050506040513d601f19601f820116820180604052508101906110b49190615092565b90508373__MarketLib_____________________________63174e20e69091856040518363ffffffff1660e01b81526004016110f1929190615358565b602060405180830381865af415801561110e573d6000803e3d6000fd5b505050506040513d601f19601f820116820180604052508101906111329190615092565b93506000600181111561114857611147614c96565b5b88600181111561115b5761115a614c96565b5b036111835761117584828461117091906153b0565b614369565b8461118091906153e4565b93505b60008673ffffffffffffffffffffffffffffffffffffffff16631f21f9af6040518163ffffffff1660e01b8152600401602060405180830381865afa1580156111d0573d6000803e3d6000fd5b505050506040513d601f19601f820116820180604052508101906111f49190614ad3565b90508073ffffffffffffffffffffffffffffffffffffffff16633e60e34889876040518363ffffffff1660e01b8152600401611231929190615418565b600060405180830381600087803b15801561124b57600080fd5b505af115801561125f573d6000803e3d6000fd5b505050508073ffffffffffffffffffffffffffffffffffffffff16633e60e3488873ffffffffffffffffffffffffffffffffffffffff16631f21f9af6040518163ffffffff1660e01b8152600401602060405180830381865afa1580156112ca573d6000803e3d6000fd5b505050506040513d601f19601f820116820180604052508101906112ee9190614ad3565b73ffffffffffffffffffffffffffffffffffffffff166305268cff6040518163ffffffff1660e01b8152600401602060405180830381865afa158015611338573d6000803e3d6000fd5b505050506040513d601f19601f8201168201806040525081019061135c919061531c565b73ffffffffffffffffffffffffffffffffffffffff166364df049e6040518163ffffffff1660e01b8152600401602060405180830381865afa1580156113a6573d6000803e3d6000fd5b505050506040513d601f19601f820116820180604052508101906113ca9190614bfd565b856040518363ffffffff1660e01b81526004016113e8929190615418565b600060405180830381600087803b15801561140257600080fd5b505af1158015611416573d6000803e3d6000fd5b505050508073ffffffffffffffffffffffffffffffffffffffff16633e60e3488c846040518363ffffffff1660e01b8152600401611455929190615418565b600060405180830381600087803b15801561146f57600080fd5b505af1158015611483573d6000803e3d6000fd5b505050503073ffffffffffffffffffffffffffffffffffffffff163373ffffffffffffffffffffffffffffffffffffffff167f1cf7404c642614322b1d508b6d5e34e05720d23d9596b59b19c8a05704b495e18a8f896040516114e893929190615441565b60405180910390a35050505050505b505050505050565b60008060149054906101000a900460ff16905090565b6000808373ffffffffffffffffffffffffffffffffffffffff16631f21f9af6040518163ffffffff1660e01b8152600401602060405180830381865afa158015611563573d6000803e3d6000fd5b505050506040513d601f19601f820116820180604052508101906115879190614ad3565b90508073ffffffffffffffffffffffffffffffffffffffff166305268cff6040518163ffffffff1660e01b8152600401602060405180830381865afa1580156115d4573d6000803e3d6000fd5b505050506040513d601f19601f820116820180604052508101906115f8919061531c565b73ffffffffffffffffffffffffffffffffffffffff16636cce89168273ffffffffffffffffffffffffffffffffffffffff16636f307dc36040518163ffffffff1660e01b8152600401602060405180830381865afa15801561165e573d6000803e3d6000fd5b505050506040513d601f19601f820116820180604052508101906116829190614bfd565b856040518363ffffffff1660e01b81526004016116a0929190615418565b602060405180830381865afa1580156116bd573d6000803e3d6000fd5b505050506040513d601f19601f820116820180604052508101906116e191906154b6565b91505092915050565b6116f26142c0565b73ffffffffffffffffffffffffffffffffffffffff16611710612360565b73ffffffffffffffffffffffffffffffffffffffff1614611766576040517f08c379a000000000000000000000000000000000000000000000000000000000815260040161175d9061514f565b60405180910390fd5b6117706000614382565b565b61177a6114ff565b156117ba576040517f08c379a00000000000000000000000000000000000000000000000000000000081526004016117b190614bc8565b60405180910390fd5b60008473ffffffffffffffffffffffffffffffffffffffff16631f21f9af6040518163ffffffff1660e01b8152600401602060405180830381865afa158015611807573d6000803e3d6000fd5b505050506040513d601f19601f8201168201806040525081019061182b9190614ad3565b90508073ffffffffffffffffffffffffffffffffffffffff166305268cff6040518163ffffffff1660e01b8152600401602060405180830381865afa158015611878573d6000803e3d6000fd5b505050506040513d601f19601f8201168201806040525081019061189c919061531c565b73ffffffffffffffffffffffffffffffffffffffff1663255fdcff866040518263ffffffff1660e01b81526004016118d491906148f4565b602060405180830381865afa1580156118f1573d6000803e3d6000fd5b505050506040513d601f19601f82011682018060405250810190611915919061550f565b611954576040517f08c379a000000000000000000000000000000000000000000000000000000000815260040161194b90615588565b60405180910390fd5b60008173ffffffffffffffffffffffffffffffffffffffff166305268cff6040518163ffffffff1660e01b8152600401602060405180830381865afa1580156119a1573d6000803e3d6000fd5b505050506040513d601f19601f820116820180604052508101906119c5919061531c565b73ffffffffffffffffffffffffffffffffffffffff16636cce89168373ffffffffffffffffffffffffffffffffffffffff16636f307dc36040518163ffffffff1660e01b8152600401602060405180830381865afa158015611a2b573d6000803e3d6000fd5b505050506040513d601f19601f82011682018060405250810190611a4f9190614bfd565b876040518363ffffffff1660e01b8152600401611a6d929190615418565b602060405180830381865afa158015611a8a573d6000803e3d6000fd5b505050506040513d601f19601f82011682018060405250810190611aae91906154b6565b905060008273ffffffffffffffffffffffffffffffffffffffff1663c0a16f6a6040518163ffffffff1660e01b8152600401602060405180830381865afa158015611afd573d6000803e3d6000fd5b505050506040513d601f19601f82011682018060405250810190611b219190614b3e565b9050600060405180610260016040528060016003811115611b4557611b44614c96565b5b8152602001866001811115611b5d57611b5c614c96565b5b815260200160006003811115611b7657611b75614c96565b5b81526020013373ffffffffffffffffffffffffffffffffffffffff16815260200160008152602001428152602001600081526020018881526020016000815260200160008152602001878152602001600081526020018373ffffffffffffffffffffffffffffffffffffffff1663b0667cf86040518163ffffffff1660e01b8152600401602060405180830381865afa158015611c17573d6000803e3d6000fd5b505050506040513d601f19601f82011682018060405250810190611c3b9190615092565b8152602001600081526020016000815260200160008152602001600081526020018973ffffffffffffffffffffffffffffffffffffffff1681526020016000815250905060008473ffffffffffffffffffffffffffffffffffffffff1663cb4c86b76040518163ffffffff1660e01b8152600401602060405180830381865afa158015611ccc573d6000803e3d6000fd5b505050506040513d601f19601f82011682018060405250810190611cf09190614bfd565b905060008173ffffffffffffffffffffffffffffffffffffffff1663313ce5676040518163ffffffff1660e01b8152600401602060405180830381865afa158015611d3f573d6000803e3d6000fd5b505050506040513d601f19601f82011682018060405250810190611d6391906152b1565b60ff1690506000807f000000000000000000000000000000000000000000000000000000000000000073ffffffffffffffffffffffffffffffffffffffff1663956da059866040518263ffffffff1660e01b8152600401611dc49190614f53565b60a060405180830381865afa158015611de1573d6000803e3d6000fd5b505050506040513d601f19601f82011682018060405250810190611e059190614fb0565b509350505091506000806001811115611e2157611e20614c96565b5b8a6001811115611e3457611e33614c96565b5b03612065578473ffffffffffffffffffffffffffffffffffffffff166323b872dd338a8673__MarketLib_____________________________63174e20e690918a6040518363ffffffff1660e01b8152600401611e92929190615358565b602060405180830381865af4158015611eaf573d6000803e3d6000fd5b505050506040513d601f19601f82011682018060405250810190611ed39190615092565b6040518463ffffffff1660e01b8152600401611ef1939291906155a8565b6020604051808303816000875af1158015611f10573d6000803e3d6000fd5b505050506040513d601f19601f82011682018060405250810190611f34919061550f565b611f73576040517f08c379a0000000000000000000000000000000000000000000000000000000008152600401611f6a9061562b565b60405180910390fd5b8773ffffffffffffffffffffffffffffffffffffffff1663b3e1f05084846040518363ffffffff1660e01b8152600401611fae92919061564b565b6040805180830381865afa158015611fca573d6000803e3d6000fd5b505050506040513d601f19601f82011682018060405250810190611fee9190615674565b50809150508773ffffffffffffffffffffffffffffffffffffffff166340c10f1933836040518363ffffffff1660e01b815260040161202e929190615418565b600060405180830381600087803b15801561204857600080fd5b505af115801561205c573d6000803e3d6000fd5b5050505061223b565b8773ffffffffffffffffffffffffffffffffffffffff1663921f2c3b84846040518363ffffffff1660e01b81526004016120a092919061564b565b6040805180830381865afa1580156120bc573d6000803e3d6000fd5b505050506040513d601f19601f820116820180604052508101906120e09190615674565b50809150508773ffffffffffffffffffffffffffffffffffffffff16639dc29fac33836040518363ffffffff1660e01b8152600401612120929190615418565b600060405180830381600087803b15801561213a57600080fd5b505af115801561214e573d6000803e3d6000fd5b505050508773ffffffffffffffffffffffffffffffffffffffff1663c4076876338573__MarketLib_____________________________63174e20e69091896040518363ffffffff1660e01b81526004016121aa929190615358565b602060405180830381865af41580156121c7573d6000803e3d6000fd5b505050506040513d601f19601f820116820180604052508101906121eb9190615092565b6040518363ffffffff1660e01b8152600401612208929190615418565b600060405180830381600087803b15801561222257600080fd5b505af1158015612236573d6000803e3d6000fd5b505050505b8c73ffffffffffffffffffffffffffffffffffffffff163373ffffffffffffffffffffffffffffffffffffffff167fecff3762708241a160664f7092d4ff3e5e6eed425112beca3a558737639f0ba38d84600060018111156122a05761229f614c96565b5b8f60018111156122b3576122b2614c96565b5b146040516122c3939291906156b4565b60405180910390a350505050505050505050505050565b6122e26142c0565b73ffffffffffffffffffffffffffffffffffffffff16612300612360565b73ffffffffffffffffffffffffffffffffffffffff1614612356576040517f08c379a000000000000000000000000000000000000000000000000000000000815260040161234d9061514f565b60405180910390fd5b61235e614446565b565b60008060009054906101000a900473ffffffffffffffffffffffffffffffffffffffff16905090565b6123916114ff565b156123d1576040517f08c379a00000000000000000000000000000000000000000000000000000000081526004016123c890614bc8565b60405180910390fd5b60007f000000000000000000000000000000000000000000000000000000000000000073ffffffffffffffffffffffffffffffffffffffff16635c273c2f846001806040518463ffffffff1660e01b81526004016124319392919061570c565b602060405180830381865afa15801561244e573d6000803e3d6000fd5b505050506040513d601f19601f820116820180604052508101906124729190615092565b905060008173__MathLib_______________________________63fed4a0f39091856040518363ffffffff1660e01b81526004016124b1929190615358565b602060405180830381865af41580156124ce573d6000803e3d6000fd5b505050506040513d601f19601f820116820180604052508101906124f29190615092565b73__MarketLib_____________________________63174e20e690918673ffffffffffffffffffffffffffffffffffffffff16631f21f9af6040518163ffffffff1660e01b8152600401602060405180830381865afa158015612559573d6000803e3d6000fd5b505050506040513d601f19601f8201168201806040525081019061257d9190614ad3565b73ffffffffffffffffffffffffffffffffffffffff1663cb4c86b76040518163ffffffff1660e01b8152600401602060405180830381865afa1580156125c7573d6000803e3d6000fd5b505050506040513d601f19601f820116820180604052508101906125eb9190614bfd565b73ffffffffffffffffffffffffffffffffffffffff1663313ce5676040518163ffffffff1660e01b8152600401602060405180830381865afa158015612635573d6000803e3d6000fd5b505050506040513d601f19601f8201168201806040525081019061265991906152b1565b6040518363ffffffff1660e01b8152600401612676929190615774565b602060405180830381865af4158015612693573d6000803e3d6000fd5b505050506040513d601f19601f820116820180604052508101906126b79190615092565b90508373ffffffffffffffffffffffffffffffffffffffff16639dc29fac33856040518363ffffffff1660e01b81526004016126f4929190615418565b600060405180830381600087803b15801561270e57600080fd5b505af1158015612722573d6000803e3d6000fd5b505050508373ffffffffffffffffffffffffffffffffffffffff16631f21f9af6040518163ffffffff1660e01b8152600401602060405180830381865afa158015612771573d6000803e3d6000fd5b505050506040513d601f19601f820116820180604052508101906127959190614ad3565b73ffffffffffffffffffffffffffffffffffffffff16633e60e34833836040518363ffffffff1660e01b81526004016127cf929190615418565b600060405180830381600087803b1580156127e957600080fd5b505af11580156127fd573d6000803e3d6000fd5b5050505050505050565b60008060008060008060405180610260016040528089600381111561282f5761282e614c96565b5b815260200188600181111561284757612846614c96565b5b8152602001600060038111156128605761285f614c96565b5b81526020013373ffffffffffffffffffffffffffffffffffffffff16815260200160008152602001428152602001600081526020018d815260200160008152602001600081526020018a8152602001600081526020018c81526020018b81526020016000815260200160008152602001600081526020018e73ffffffffffffffffffffffffffffffffffffffff168152602001600081525090507f000000000000000000000000000000000000000000000000000000000000000073ffffffffffffffffffffffffffffffffffffffff1663956da059826040518263ffffffff1660e01b81526004016129539190614f53565b60a060405180830381865afa158015612970573d6000803e3d6000fd5b505050506040513d601f19601f820116820180604052508101906129949190614fb0565b955095509550955095505097509750975097509792505050565b6129b66114ff565b156129f6576040517f08c379a00000000000000000000000000000000000000000000000000000000081526004016129ed90614bc8565b60405180910390fd5b60007f000000000000000000000000000000000000000000000000000000000000000073ffffffffffffffffffffffffffffffffffffffff16635c273c2f84600060016040518463ffffffff1660e01b8152600401612a579392919061570c565b602060405180830381865afa158015612a74573d6000803e3d6000fd5b505050506040513d601f19601f82011682018060405250810190612a989190615092565b905060008373ffffffffffffffffffffffffffffffffffffffff16631f21f9af6040518163ffffffff1660e01b8152600401602060405180830381865afa158015612ae7573d6000803e3d6000fd5b505050506040513d601f19601f82011682018060405250810190612b0b9190614ad3565b73ffffffffffffffffffffffffffffffffffffffff1663cb4c86b76040518163ffffffff1660e01b8152600401602060405180830381865afa158015612b55573d6000803e3d6000fd5b505050506040513d601f19601f82011682018060405250810190612b799190614bfd565b905060008373__MarketLib_____________________________63ed1bb19990918473ffffffffffffffffffffffffffffffffffffffff1663313ce5676040518163ffffffff1660e01b8152600401602060405180830381865afa158015612be5573d6000803e3d6000fd5b505050506040513d601f19601f82011682018060405250810190612c0991906152b1565b6040518363ffffffff1660e01b8152600401612c26929190615774565b602060405180830381865af4158015612c43573d6000803e3d6000fd5b505050506040513d601f19601f82011682018060405250810190612c679190615092565b73__MathLib_______________________________63de7f61709091856040518363ffffffff1660e01b8152600401612ca1929190615358565b602060405180830381865af4158015612cbe573d6000803e3d6000fd5b505050506040513d601f19601f82011682018060405250810190612ce29190615092565b90508173ffffffffffffffffffffffffffffffffffffffff166323b872dd338773ffffffffffffffffffffffffffffffffffffffff16631f21f9af6040518163ffffffff1660e01b8152600401602060405180830381865afa158015612d4c573d6000803e3d6000fd5b505050506040513d601f19601f82011682018060405250810190612d709190614ad3565b876040518463ffffffff1660e01b8152600401612d8f939291906155a8565b6020604051808303816000875af1158015612dae573d6000803e3d6000fd5b505050506040513d601f19601f82011682018060405250810190612dd2919061550f565b612ddb57600080fd5b8473ffffffffffffffffffffffffffffffffffffffff166340c10f1933836040518363ffffffff1660e01b8152600401612e16929190615418565b600060405180830381600087803b158015612e3057600080fd5b505af1158015612e44573d6000803e3d6000fd5b505050505050505050565b612e576142c0565b73ffffffffffffffffffffffffffffffffffffffff16612e75612360565b73ffffffffffffffffffffffffffffffffffffffff1614612ecb576040517f08c379a0000000000000000000000000000000000000000000000000000000008152600401612ec29061514f565b60405180910390fd5b600073ffffffffffffffffffffffffffffffffffffffff168173ffffffffffffffffffffffffffffffffffffffff1603612f3a576040517f08c379a0000000000000000000000000000000000000000000000000000000008152600401612f319061580f565b60405180910390fd5b612f4381614382565b50565b7f000000000000000000000000000000000000000000000000000000000000000081565b60008773ffffffffffffffffffffffffffffffffffffffff16631f21f9af6040518163ffffffff1660e01b8152600401602060405180830381865afa158015612fb7573d6000803e3d6000fd5b505050506040513d601f19601f82011682018060405250810190612fdb9190614ad3565b905060008173ffffffffffffffffffffffffffffffffffffffff1663cb4c86b76040518163ffffffff1660e01b8152600401602060405180830381865afa15801561302a573d6000803e3d6000fd5b505050506040513d601f19601f8201168201806040525081019061304e9190614bfd565b905060008173ffffffffffffffffffffffffffffffffffffffff1663313ce5676040518163ffffffff1660e01b8152600401602060405180830381865afa15801561309d573d6000803e3d6000fd5b505050506040513d601f19601f820116820180604052508101906130c191906152b1565b60ff16905060008373ffffffffffffffffffffffffffffffffffffffff16636f307dc36040518163ffffffff1660e01b8152600401602060405180830381865afa158015613113573d6000803e3d6000fd5b505050506040513d601f19601f820116820180604052508101906131379190614bfd565b90506001600281111561314d5761314c614c96565b5b8560028111156131605761315f614c96565b5b0361339c57600081905060008173ffffffffffffffffffffffffffffffffffffffff1663313ce5676040518163ffffffff1660e01b8152600401602060405180830381865afa1580156131b7573d6000803e3d6000fd5b505050506040513d601f19601f820116820180604052508101906131db91906152b1565b60ff1690508173ffffffffffffffffffffffffffffffffffffffff166323b872dd8d888d73__MathLib_______________________________63de7f617090918f6040518363ffffffff1660e01b8152600401613239929190615358565b602060405180830381865af4158015613256573d6000803e3d6000fd5b505050506040513d601f19601f8201168201806040525081019061327a9190615092565b73__MarketLib_____________________________63174e20e69091876040518363ffffffff1660e01b81526004016132b4929190615358565b602060405180830381865af41580156132d1573d6000803e3d6000fd5b505050506040513d601f19601f820116820180604052508101906132f59190615092565b6040518463ffffffff1660e01b8152600401613313939291906155a8565b6020604051808303816000875af1158015613332573d6000803e3d6000fd5b505050506040513d601f19601f82011682018060405250810190613356919061550f565b613395576040517f08c379a000000000000000000000000000000000000000000000000000000000815260040161338c9061587b565b60405180910390fd5b5050613880565b6002808111156133af576133ae614c96565b5b8560028111156133c2576133c1614c96565b5b036137445760008473ffffffffffffffffffffffffffffffffffffffff166305268cff6040518163ffffffff1660e01b8152600401602060405180830381865afa158015613414573d6000803e3d6000fd5b505050506040513d601f19601f82011682018060405250810190613438919061531c565b73ffffffffffffffffffffffffffffffffffffffff16636cce8916838c6040518363ffffffff1660e01b8152600401613472929190615418565b602060405180830381865afa15801561348f573d6000803e3d6000fd5b505050506040513d601f19601f820116820180604052508101906134b391906154b6565b90506000808273ffffffffffffffffffffffffffffffffffffffff1663921f2c3b8c8b6040518363ffffffff1660e01b81526004016134f392919061564b565b6040805180830381865afa15801561350f573d6000803e3d6000fd5b505050506040513d601f19601f820116820180604052508101906135339190615674565b915091508d73ffffffffffffffffffffffffffffffffffffffff1663372688b06040518163ffffffff1660e01b8152600401602060405180830381865afa158015613582573d6000803e3d6000fd5b505050506040513d601f19601f820116820180604052508101906135a69190615092565b81116135e7576040517f08c379a00000000000000000000000000000000000000000000000000000000081526004016135de906158e7565b60405180910390fd5b8273ffffffffffffffffffffffffffffffffffffffff16639dc29fac33846040518363ffffffff1660e01b8152600401613622929190615418565b600060405180830381600087803b15801561363c57600080fd5b505af1158015613650573d6000803e3d6000fd5b505050508273ffffffffffffffffffffffffffffffffffffffff1663c4076876888d73__MarketLib_____________________________63174e20e690918a6040518363ffffffff1660e01b81526004016136ac929190615358565b602060405180830381865af41580156136c9573d6000803e3d6000fd5b505050506040513d601f19601f820116820180604052508101906136ed9190615092565b6040518363ffffffff1660e01b815260040161370a929190615418565b600060405180830381600087803b15801561372457600080fd5b505af1158015613738573d6000803e3d6000fd5b5050505050505061387f565b8273ffffffffffffffffffffffffffffffffffffffff166323b872dd8b868b73__MarketLib_____________________________63174e20e69091886040518363ffffffff1660e01b815260040161379d929190615358565b602060405180830381865af41580156137ba573d6000803e3d6000fd5b505050506040513d601f19601f820116820180604052508101906137de9190615092565b6040518463ffffffff1660e01b81526004016137fc939291906155a8565b6020604051808303816000875af115801561381b573d6000803e3d6000fd5b505050506040513d601f19601f8201168201806040525081019061383f919061550f565b61387e576040517f08c379a00000000000000000000000000000000000000000000000000000000081526004016138759061587b565b60405180910390fd5b5b5b5050505050505050505050565b60008873ffffffffffffffffffffffffffffffffffffffff16631f21f9af6040518163ffffffff1660e01b8152600401602060405180830381865afa1580156138da573d6000803e3d6000fd5b505050506040513d601f19601f820116820180604052508101906138fe9190614ad3565b905060008173ffffffffffffffffffffffffffffffffffffffff1663cb4c86b76040518163ffffffff1660e01b8152600401602060405180830381865afa15801561394d573d6000803e3d6000fd5b505050506040513d601f19601f820116820180604052508101906139719190614bfd565b905060008173ffffffffffffffffffffffffffffffffffffffff1663313ce5676040518163ffffffff1660e01b8152600401602060405180830381865afa1580156139c0573d6000803e3d6000fd5b505050506040513d601f19601f820116820180604052508101906139e491906152b1565b60ff169050600160028111156139fd576139fc614c96565b5b846002811115613a1057613a0f614c96565b5b03613cc55760008373ffffffffffffffffffffffffffffffffffffffff16636f307dc36040518163ffffffff1660e01b8152600401602060405180830381865afa158015613a62573d6000803e3d6000fd5b505050506040513d601f19601f82011682018060405250810190613a869190614bfd565b905060008173ffffffffffffffffffffffffffffffffffffffff1663313ce5676040518163ffffffff1660e01b8152600401602060405180830381865afa158015613ad5573d6000803e3d6000fd5b505050506040513d601f19601f82011682018060405250810190613af991906152b1565b60ff1690508173ffffffffffffffffffffffffffffffffffffffff166323b872dd8d878d8d613b2891906153e4565b73__MathLib_______________________________63de7f617090918e6040518363ffffffff1660e01b8152600401613b62929190615358565b602060405180830381865af4158015613b7f573d6000803e3d6000fd5b505050506040513d601f19601f82011682018060405250810190613ba39190615092565b73__MarketLib_____________________________63174e20e69091876040518363ffffffff1660e01b8152600401613bdd929190615358565b602060405180830381865af4158015613bfa573d6000803e3d6000fd5b505050506040513d601f19601f82011682018060405250810190613c1e9190615092565b6040518463ffffffff1660e01b8152600401613c3c939291906155a8565b6020604051808303816000875af1158015613c5b573d6000803e3d6000fd5b505050506040513d601f19601f82011682018060405250810190613c7f919061550f565b613cbe576040517f08c379a0000000000000000000000000000000000000000000000000000000008152600401613cb59061587b565b60405180910390fd5b50506142b3565b600280811115613cd857613cd7614c96565b5b846002811115613ceb57613cea614c96565b5b0361416c576000871115613e34578173ffffffffffffffffffffffffffffffffffffffff166323b872dd33858a73__MarketLib_____________________________63174e20e69091876040518363ffffffff1660e01b8152600401613d52929190615358565b602060405180830381865af4158015613d6f573d6000803e3d6000fd5b505050506040513d601f19601f82011682018060405250810190613d939190615092565b6040518463ffffffff1660e01b8152600401613db1939291906155a8565b6020604051808303816000875af1158015613dd0573d6000803e3d6000fd5b505050506040513d601f19601f82011682018060405250810190613df4919061550f565b613e33576040517f08c379a0000000000000000000000000000000000000000000000000000000008152600401613e2a90615953565b60405180910390fd5b5b60008373ffffffffffffffffffffffffffffffffffffffff166305268cff6040518163ffffffff1660e01b8152600401602060405180830381865afa158015613e81573d6000803e3d6000fd5b505050506040513d601f19601f82011682018060405250810190613ea5919061531c565b73ffffffffffffffffffffffffffffffffffffffff16636cce89168573ffffffffffffffffffffffffffffffffffffffff16636f307dc36040518163ffffffff1660e01b8152600401602060405180830381865afa158015613f0b573d6000803e3d6000fd5b505050506040513d601f19601f82011682018060405250810190613f2f9190614bfd565b8c6040518363ffffffff1660e01b8152600401613f4d929190615418565b602060405180830381865afa158015613f6a573d6000803e3d6000fd5b505050506040513d601f19601f82011682018060405250810190613f8e91906154b6565b905060008173ffffffffffffffffffffffffffffffffffffffff1663b3e1f0508b896040518363ffffffff1660e01b8152600401613fcd92919061564b565b6040805180830381865afa158015613fe9573d6000803e3d6000fd5b505050506040513d601f19601f8201168201806040525081019061400d9190615674565b5090508473ffffffffffffffffffffffffffffffffffffffff16633e60e348838c73__MarketLib_____________________________63174e20e69091886040518363ffffffff1660e01b8152600401614068929190615358565b602060405180830381865af4158015614085573d6000803e3d6000fd5b505050506040513d601f19601f820116820180604052508101906140a99190615092565b6040518363ffffffff1660e01b81526004016140c6929190615418565b600060405180830381600087803b1580156140e057600080fd5b505af11580156140f4573d6000803e3d6000fd5b505050508173ffffffffffffffffffffffffffffffffffffffff166340c10f1933836040518363ffffffff1660e01b8152600401614133929190615418565b600060405180830381600087803b15801561414d57600080fd5b505af1158015614161573d6000803e3d6000fd5b5050505050506142b2565b8173ffffffffffffffffffffffffffffffffffffffff166323b872dd8b858b8b61419691906153e4565b73__MarketLib_____________________________63174e20e69091876040518363ffffffff1660e01b81526004016141d0929190615358565b602060405180830381865af41580156141ed573d6000803e3d6000fd5b505050506040513d601f19601f820116820180604052508101906142119190615092565b6040518463ffffffff1660e01b815260040161422f939291906155a8565b6020604051808303816000875af115801561424e573d6000803e3d6000fd5b505050506040513d601f19601f82011682018060405250810190614272919061550f565b6142b1576040517f08c379a00000000000000000000000000000000000000000000000000000000081526004016142a89061587b565b60405180910390fd5b5b5b5050505050505050505050565b600033905090565b6142d06114ff565b61430f576040517f08c379a0000000000000000000000000000000000000000000000000000000008152600401614306906159bf565b60405180910390fd5b60008060146101000a81548160ff0219169083151502179055507f5db9ee0a495bf2e6ff9c91a7834c1ba4fdd244a5e8aa4e537bd38aeae4b073aa6143526142c0565b60405161435f91906148f4565b60405180910390a1565b6000818310614378578161437a565b825b905092915050565b60008060009054906101000a900473ffffffffffffffffffffffffffffffffffffffff169050816000806101000a81548173ffffffffffffffffffffffffffffffffffffffff021916908373ffffffffffffffffffffffffffffffffffffffff1602179055508173ffffffffffffffffffffffffffffffffffffffff168173ffffffffffffffffffffffffffffffffffffffff167f8be0079c531659141344cd1fd0a4f28419497f9722a3daafe3b4186f6b6457e060405160405180910390a35050565b61444e6114ff565b1561448e576040517f08c379a000000000000000000000000000000000000000000000000000000000815260040161448590614bc8565b60405180910390fd5b6001600060146101000a81548160ff0219169083151502179055507f62e78cea01bee320cd4e420270b5ea74000d11b0c9f74754ebdbfc544b05a2586144d26142c0565b6040516144df91906148f4565b60405180910390a1565b600080fd5b600073ffffffffffffffffffffffffffffffffffffffff82169050919050565b6000614519826144ee565b9050919050565b600061452b8261450e565b9050919050565b61453b81614520565b811461454657600080fd5b50565b60008135905061455881614532565b92915050565b600060208284031215614574576145736144e9565b5b600061458284828501614549565b91505092915050565b6000819050919050565b60006145b06145ab6145a6846144ee565b61458b565b6144ee565b9050919050565b60006145c282614595565b9050919050565b60006145d4826145b7565b9050919050565b6145e4816145c9565b82525050565b60006020820190506145ff60008301846145db565b92915050565b6000819050919050565b61461881614605565b811461462357600080fd5b50565b6000813590506146358161460f565b92915050565b6004811061464857600080fd5b50565b60008135905061465a8161463b565b92915050565b6002811061466d57600080fd5b50565b60008135905061467f81614660565b92915050565b6003811061469257600080fd5b50565b6000813590506146a481614685565b92915050565b600080600080600080600080610100898b0312156146cb576146ca6144e9565b5b60006146d98b828c01614549565b98505060206146ea8b828c01614626565b97505060406146fb8b828c01614626565b965050606061470c8b828c01614626565b955050608061471d8b828c01614626565b94505060a061472e8b828c0161464b565b93505060c061473f8b828c01614670565b92505060e06147508b828c01614695565b9150509295985092959890939650565b6147698161450e565b811461477457600080fd5b50565b60008135905061478681614760565b92915050565b600080604083850312156147a3576147a26144e9565b5b60006147b185828601614626565b92505060206147c285828601614777565b9150509250929050565b60008115159050919050565b6147e1816147cc565b82525050565b60006020820190506147fc60008301846147d8565b92915050565b60008060408385031215614819576148186144e9565b5b600061482785828601614549565b925050602061483885828601614626565b9150509250929050565b600061484d826145b7565b9050919050565b61485d81614842565b82525050565b60006020820190506148786000830184614854565b92915050565b60008060008060808587031215614898576148976144e9565b5b60006148a687828801614549565b94505060206148b787828801614626565b93505060406148c887828801614626565b92505060606148d987828801614670565b91505092959194509250565b6148ee8161450e565b82525050565b600060208201905061490960008301846148e5565b92915050565b600080600080600080600060e0888a03121561492e5761492d6144e9565b5b600061493c8a828b01614549565b975050602061494d8a828b01614626565b965050604061495e8a828b01614626565b955050606061496f8a828b01614626565b94505060806149808a828b01614626565b93505060a06149918a828b0161464b565b92505060c06149a28a828b01614670565b91505092959891949750929550565b6149ba81614605565b82525050565b6000819050919050565b6149d3816149c0565b82525050565b600060a0820190506149ee60008301886149b1565b6149fb60208301876149b1565b614a0860408301866149b1565b614a1560608301856149b1565b614a2260808301846149ca565b9695505050505050565b600060208284031215614a4257614a416144e9565b5b6000614a5084828501614777565b91505092915050565b6000614a64826145b7565b9050919050565b614a7481614a59565b82525050565b6000602082019050614a8f6000830184614a6b565b92915050565b6000614aa08261450e565b9050919050565b614ab081614a95565b8114614abb57600080fd5b50565b600081519050614acd81614aa7565b92915050565b600060208284031215614ae957614ae86144e9565b5b6000614af784828501614abe565b91505092915050565b6000614b0b8261450e565b9050919050565b614b1b81614b00565b8114614b2657600080fd5b50565b600081519050614b3881614b12565b92915050565b600060208284031215614b5457614b536144e9565b5b6000614b6284828501614b29565b91505092915050565b600082825260208201905092915050565b7f5061757361626c653a2070617573656400000000000000000000000000000000600082015250565b6000614bb2601083614b6b565b9150614bbd82614b7c565b602082019050919050565b60006020820190508181036000830152614be181614ba5565b9050919050565b600081519050614bf781614760565b92915050565b600060208284031215614c1357614c126144e9565b5b6000614c2184828501614be8565b91505092915050565b7f2d45780000000000000000000000000000000000000000000000000000000000600082015250565b6000614c60600383614b6b565b9150614c6b82614c2a565b602082019050919050565b60006020820190508181036000830152614c8f81614c53565b9050919050565b7f4e487b7100000000000000000000000000000000000000000000000000000000600052602160045260246000fd5b60048110614cd657614cd5614c96565b5b50565b6000819050614ce782614cc5565b919050565b6000614cf782614cd9565b9050919050565b614d0781614cec565b82525050565b60028110614d1e57614d1d614c96565b5b50565b6000819050614d2f82614d0d565b919050565b6000614d3f82614d21565b9050919050565b614d4f81614d34565b82525050565b60048110614d6657614d65614c96565b5b50565b6000819050614d7782614d55565b919050565b6000614d8782614d69565b9050919050565b614d9781614d7c565b82525050565b614da68161450e565b82525050565b614db581614605565b82525050565b614dc4816149c0565b82525050565b61026082016000820151614de16000850182614cfe565b506020820151614df46020850182614d46565b506040820151614e076040850182614d8e565b506060820151614e1a6060850182614d9d565b506080820151614e2d6080850182614dac565b5060a0820151614e4060a0850182614dac565b5060c0820151614e5360c0850182614dac565b5060e0820151614e6660e0850182614dac565b50610100820151614e7b610100850182614dac565b50610120820151614e90610120850182614dac565b50610140820151614ea5610140850182614dac565b50610160820151614eba610160850182614dac565b50610180820151614ecf610180850182614dac565b506101a0820151614ee46101a0850182614dac565b506101c0820151614ef96101c0850182614dac565b506101e0820151614f0e6101e0850182614dac565b50610200820151614f23610200850182614dac565b50610220820151614f38610220850182614d9d565b50610240820151614f4d610240850182614dbb565b50505050565b600061026082019050614f696000830184614dca565b92915050565b600081519050614f7e8161460f565b92915050565b614f8d816149c0565b8114614f9857600080fd5b50565b600081519050614faa81614f84565b92915050565b600080600080600060a08688031215614fcc57614fcb6144e9565b5b6000614fda88828901614f6f565b9550506020614feb88828901614f6f565b9450506040614ffc88828901614f6f565b935050606061500d88828901614f6f565b925050608061501e88828901614f9b565b9150509295509295909350565b6000610300820190506150416000830189614dca565b61504f6102608301886149b1565b61505d6102808301876149b1565b61506b6102a08301866149b1565b6150796102c08301856149b1565b6150876102e08301846149ca565b979650505050505050565b6000602082840312156150a8576150a76144e9565b5b60006150b684828501614f6f565b91505092915050565b60006040820190506150d460008301856149b1565b6150e160208301846148e5565b9392505050565b60006020820190506150fd60008301846149b1565b92915050565b7f4f776e61626c653a2063616c6c6572206973206e6f7420746865206f776e6572600082015250565b6000615139602083614b6b565b915061514482615103565b602082019050919050565b600060208201905081810360008301526151688161512c565b9050919050565b6004811061517c57600080fd5b50565b60008151905061518e8161516f565b92915050565b6000815190506151a381614660565b92915050565b6000815190506151b881614532565b92915050565b600080600080608085870312156151d8576151d76144e9565b5b60006151e68782880161517f565b94505060206151f787828801615194565b935050604061520887828801614be8565b9250506060615219878288016151a9565b91505092959194509250565b60008060006060848603121561523e5761523d6144e9565b5b600061524c86828701614f6f565b935050602061525d86828701614f6f565b925050604061526e86828701614f6f565b9150509250925092565b600060ff82169050919050565b61528e81615278565b811461529957600080fd5b50565b6000815190506152ab81615285565b92915050565b6000602082840312156152c7576152c66144e9565b5b60006152d58482850161529c565b91505092915050565b60006152e98261450e565b9050919050565b6152f9816152de565b811461530457600080fd5b50565b600081519050615316816152f0565b92915050565b600060208284031215615332576153316144e9565b5b600061534084828501615307565b91505092915050565b61535281614605565b82525050565b600060408201905061536d6000830185615349565b61537a6020830184615349565b9392505050565b7f4e487b7100000000000000000000000000000000000000000000000000000000600052601160045260246000fd5b60006153bb82614605565b91506153c683614605565b92508282019050808211156153de576153dd615381565b5b92915050565b60006153ef82614605565b91506153fa83614605565b925082820390508181111561541257615411615381565b5b92915050565b600060408201905061542d60008301856148e5565b61543a60208301846149b1565b9392505050565b600060608201905061545660008301866148e5565b61546360208301856149b1565b61547060408301846149b1565b949350505050565b60006154838261450e565b9050919050565b61549381615478565b811461549e57600080fd5b50565b6000815190506154b08161548a565b92915050565b6000602082840312156154cc576154cb6144e9565b5b60006154da848285016154a1565b91505092915050565b6154ec816147cc565b81146154f757600080fd5b50565b600081519050615509816154e3565b92915050565b600060208284031215615525576155246144e9565b5b6000615533848285016154fa565b91505092915050565b7f2d56500000000000000000000000000000000000000000000000000000000000600082015250565b6000615572600383614b6b565b915061557d8261553c565b602082019050919050565b600060208201905081810360008301526155a181615565565b9050919050565b60006060820190506155bd60008301866148e5565b6155ca60208301856148e5565b6155d760408301846149b1565b949350505050565b7f2d56420000000000000000000000000000000000000000000000000000000000600082015250565b6000615615600383614b6b565b9150615620826155df565b602082019050919050565b6000602082019050818103600083015261564481615608565b9050919050565b600060408201905061566060008301856149b1565b61566d60208301846149b1565b9392505050565b6000806040838503121561568b5761568a6144e9565b5b600061569985828601614f6f565b92505060206156aa85828601614f6f565b9150509250929050565b60006060820190506156c960008301866149b1565b6156d660208301856149b1565b6156e360408301846147d8565b949350505050565b60006156f6826145b7565b9050919050565b615706816156eb565b82525050565b600060608201905061572160008301866156fd565b61572e60208301856147d8565b61573b60408301846147d8565b949350505050565b600061575e61575961575484615278565b61458b565b614605565b9050919050565b61576e81615743565b82525050565b60006040820190506157896000830185615349565b6157966020830184615765565b9392505050565b7f4f776e61626c653a206e6577206f776e657220697320746865207a65726f206160008201527f6464726573730000000000000000000000000000000000000000000000000000602082015250565b60006157f9602683614b6b565b91506158048261579d565b604082019050919050565b60006020820190508181036000830152615828816157ec565b9050919050565b7f2d504d0000000000000000000000000000000000000000000000000000000000600082015250565b6000615865600383614b6b565b91506158708261582f565b602082019050919050565b6000602082019050818103600083015261589481615858565b9050919050565b7f6d56500000000000000000000000000000000000000000000000000000000000600082015250565b60006158d1600383614b6b565b91506158dc8261589b565b602082019050919050565b60006020820190508181036000830152615900816158c4565b9050919050565b7f2d434d0000000000000000000000000000000000000000000000000000000000600082015250565b600061593d600383614b6b565b915061594882615907565b602082019050919050565b6000602082019050818103600083015261596c81615930565b9050919050565b7f5061757361626c653a206e6f7420706175736564000000000000000000000000600082015250565b60006159a9601483614b6b565b91506159b482615973565b602082019050919050565b600060208201905081810360008301526159d88161599c565b905091905056fea2646970667358221220f1efb5273770d0e1b87369057dfb7bc241b5649380f85d7e32e4452a3d8123d064736f6c63430008100033",
  "immutableReferences": {
    "8663": [
      {
        "length": 32,
        "start": 1459
      },
      {
        "length": 32,
        "start": 1706
      },
      {
        "length": 32,
        "start": 1874
      },
      {
        "length": 32,
        "start": 2493
      },
      {
        "length": 32,
        "start": 2699
      },
      {
        "length": 32,
        "start": 2841
      },
      {
        "length": 32,
        "start": 7533
      },
      {
        "length": 32,
        "start": 9173
      },
      {
        "length": 32,
        "start": 10492
      },
      {
        "length": 32,
        "start": 10746
      },
      {
        "length": 32,
        "start": 12104
      }
    ]
  },
  "source": "// SPDX-License-Identifier: MIT\npragma solidity 0.8.16;\n\nimport \"@openzeppelin/contracts/token/ERC20/ERC20.sol\";\nimport \"@openzeppelin/contracts/access/Ownable.sol\";\nimport \"@openzeppelin/contracts/security/Pausable.sol\";\nimport \"@openzeppelin/contracts/utils/math/SafeMath.sol\";\nimport \"./interfaces/EOption.sol\";\nimport \"./libraries/MathLib.sol\";\nimport \"./libraries/MarketLib.sol\";\nimport \"./libraries/OptionLib.sol\";\nimport \"./governance/Moret.sol\";\nimport \"./pools/Pool.sol\";\nimport \"./pools/MarketMaker.sol\";\nimport \"./OptionVault.sol\";\nimport \"./VolatilityToken.sol\";\n\ncontract Exchange is Ownable, Pausable, EOption{\n  using MarketLib for uint256;\n  using MathLib for uint256;\n  using SafeMath for uint256;\n\n  event NewOption(address indexed _purchaser, address indexed _underlying, uint256 _optionId);\n\n  // immutable addresses\n  OptionVault public immutable vault;\n\n  // contructor. Arguments: option vault and bot address\n  constructor(OptionVault _optionVault){\n    vault = _optionVault;}\n  \n  function queryOption(Pool _pool, uint256 _tenor, uint256 _strike, uint256 _spread, uint256 _amount, OptionLib.PayoffType _poType, OptionLib.OptionSide _side) external view returns(uint256 _premium, uint256 _collateral, uint256 _price, uint256 _volatility, int256 _exposure){\n    OptionLib.Option memory _option = OptionLib.Option(_poType, _side, OptionLib.OptionStatus.Draft, msg.sender, 0, block.timestamp,  0, _tenor, 0,  0, _amount, 0, _strike, _spread, 0, 0, 0, address(_pool), 0);\n    return vault.calcOptionCost(_option);}\n\n  // functions to transact for option contracts\n  // arguments: pool token address, tenor in seconds, strike in 18 decimals, amount in 18 decimals, payoff type (call 0 or put 1), option side (buy 0 or sell 1), payment methods 0-usdc/1-token/2-vol\n  function tradeOption(Pool _pool, uint256 _tenor, uint256 _strike, uint256 _spread, uint256 _amount, OptionLib.PayoffType _poType, OptionLib.OptionSide _side, OptionLib.PaymentMethod _payment) external whenNotPaused{\n    require(_pool.exchange() == address(this), \"-Ex\");\n    OptionLib.Option memory _option = OptionLib.Option(_poType, _side, OptionLib.OptionStatus.Draft, msg.sender, 0, block.timestamp,  0, _tenor, 0,  0, _amount, 0, _strike, _spread, 0, 0, 0, address(_pool), 0);\n    (uint256 _premium, uint256 _collateral, uint256 _price, uint256 _vol, int256 _exposure) = vault.calcOptionCost(_option);\n\n    // transfer premiums\n    if(_side == OptionLib.OptionSide.Buy){\n      buyOption(_pool, msg.sender, _tenor, _premium, _price, _vol, _payment);\n    }else {\n      sellOption(_pool, msg.sender, _tenor, _premium, _collateral, _price, _vol, _payment);\n    }\n\n    uint256 _id = vault.addOption(_option, _premium, _collateral, _price, _vol, _exposure);\n    vault.stampActiveOption(_id, msg.sender);\n\n    emit NewOption(msg.sender, _pool.marketMaker().underlying(), _id);}\n\n  function buyOption(Pool _pool, address _buyer, uint256 _tenor, uint256 _premium, uint256 _price, uint256 _vol, OptionLib.PaymentMethod _payment) internal {\n    MarketMaker _marketMaker = _pool.marketMaker();\n    ERC20 _funding = ERC20(_marketMaker.funding());\n    uint256 _fundingDecimals = _funding.decimals();\n    address _underlyingAddress = _marketMaker.underlying();\n   \n    if (_payment == OptionLib.PaymentMethod.Token){\n      ERC20 _underlying = ERC20(_underlyingAddress);\n      uint256 _decimals = _underlying.decimals();\n      require(_underlying.transferFrom(_buyer, address(_marketMaker), _premium.ethdiv(_price).toDecimals(_decimals)), '-PM');}\n    else if (_payment == OptionLib.PaymentMethod.Vol){\n      VolatilityToken _vToken = _marketMaker.govToken().getVolatilityToken(_underlyingAddress, _tenor);\n      (uint256 _volAmount, uint256 _volPrice) = _vToken.getBurnAmount(_premium, _vol);\n      require(_volPrice > _pool.minVolPrice(), 'mVP');\n      _vToken.burn(msg.sender, _volAmount);\n      _vToken.pay(address(_marketMaker), _premium.toDecimals(_fundingDecimals));}\n    else{\n      require(_funding.transferFrom(_buyer, address(_marketMaker), _premium.toDecimals(_fundingDecimals)), '-PM');}\n  }\n\n  function sellOption(Pool _pool, address _buyer, uint256 _tenor, uint256 _premium, uint256 _collateral, uint256 _price, uint256 _vol, OptionLib.PaymentMethod _payment) internal {\n    MarketMaker _marketMaker = _pool.marketMaker();\n    ERC20 _funding = ERC20(_marketMaker.funding());\n    uint256 _fundingDecimals = _funding.decimals();\n    \n    if (_payment == OptionLib.PaymentMethod.Token){\n      ERC20 _underlying = ERC20(_marketMaker.underlying());\n      uint256 _decimals = _underlying.decimals();\n      require(_underlying.transferFrom(_buyer, address(_marketMaker), (_collateral - _premium).ethdiv(_price).toDecimals(_decimals)), '-PM');}\n    else if (_payment == OptionLib.PaymentMethod.Vol){\n      if(_collateral > 0){\n        require(_funding.transferFrom(msg.sender, address(_marketMaker), _collateral.toDecimals(_fundingDecimals)), '-CM'); }\n      VolatilityToken _vToken = _marketMaker.govToken().getVolatilityToken(_marketMaker.underlying(), _tenor);\n      (uint256 _volAmount, ) = _vToken.getMintAmount(_premium, _vol);\n      _marketMaker.settlePayment(address(_vToken), _premium.toDecimals(_fundingDecimals)); \n      _vToken.mint(msg.sender, _volAmount);}\n    else{\n      require(_funding.transferFrom(_buyer, address(_marketMaker), (_collateral - _premium).toDecimals(_fundingDecimals)), '-PM');}\n    }\n\n  // functions to transact volatility tokens (buy or sell)\n  // arguments: pool token address, tenor in seconds, amount in 18 decimals, option side (buy 0 or sell 1)\n  function tradeVolToken(Pool _pool, uint256 _tenor, uint256 _amount, OptionLib.OptionSide _side) external whenNotPaused{\n    MarketMaker _marketMaker = _pool.marketMaker();\n    require(_marketMaker.govToken().existVolTradingPool(address(_pool)), '-VP'); // only certified pools can trade vol\n    VolatilityToken _vToken = _marketMaker.govToken().getVolatilityToken(_marketMaker.underlying(), _tenor);\n    VolatilityChain _volChain = _marketMaker.getVolatilityChain();\n    OptionLib.Option memory _option = OptionLib.Option(OptionLib.PayoffType.Put, _side, OptionLib.OptionStatus.Draft, msg.sender, 0, block.timestamp,  0, _tenor, 0,  0, _amount, 0, _volChain.queryPrice(), 0, 0, 0, 0, address(_pool), 0);\n\n    ERC20 _funding = ERC20(_marketMaker.funding());\n    uint256 _fundingDecimals = _funding.decimals();\n    (uint256 _premium, , , uint256 _vol, ) = vault.calcOptionCost(_option); \n    \n    uint256 _volAmount;\n    if (_side == OptionLib.OptionSide.Buy){\n      require(_funding.transferFrom(msg.sender, address(_vToken), _premium.toDecimals(_fundingDecimals)), \"-VB\");\n      (_volAmount, ) = _vToken.getMintAmount(_premium, _vol);\n      _vToken.mint(msg.sender, _volAmount);}\n    else{\n      (_volAmount, ) = _vToken.getBurnAmount(_premium, _vol);\n      _vToken.burn(msg.sender, _volAmount);\n      _vToken.pay(msg.sender, _premium.toDecimals(_fundingDecimals));}\n    \n    emit TradeVolatility(msg.sender, address(_pool), _amount, _volAmount, _side == OptionLib.OptionSide.Buy);}\n\n  // get volatility token\n  function getVolatilityToken(Pool _pool, uint256 _tenor) external view returns(VolatilityToken){\n    MarketMaker _marketMaker = _pool.marketMaker();\n    return _marketMaker.govToken().getVolatilityToken(_marketMaker.underlying(), _tenor);\n  }\n\n  // get volatility chain\n  function getVolatilityChain(Pool _pool) external view returns(VolatilityChain){\n    MarketMaker _marketMaker = _pool.marketMaker();\n    return _marketMaker.getVolatilityChain();\n  }\n\n  // expire option contracts (one at a time), with exercise fees paid to the exercising bots.\n  function expireOption(uint256 _expiringId, address _exerciseFeeRecipient) external {\n    (OptionLib.OptionStatus _optionStatus, OptionLib.OptionSide _optionSide, address _optionHolder, Pool _pool) = vault.getOptionInfo(_expiringId);\n\n    if(_optionStatus == OptionLib.OptionStatus.Active){\n      vault.stampExpiredOption(_expiringId);\n      (uint256 _payoff, uint256 _payback,) = vault.getContractPayoff(_expiringId);\n      \n      uint256 _fundingDecimals = ERC20(_pool.marketMaker().funding()).decimals();\n      uint256 _protocolAmount = _payoff.ethmul(_pool.marketMaker().govToken().protocolFee()).toDecimals(_fundingDecimals);\n      uint256 _exerciseAmount = _payoff.ethmul(_pool.exerciseFee()).toDecimals(_fundingDecimals);\n      _payback = _payback.toDecimals(_fundingDecimals);\n\n      if(_optionSide == OptionLib.OptionSide.Buy){\n        _payback = _payback - Math.min(_payback, _protocolAmount + _exerciseAmount);}\n\n      MarketMaker _marketMaker = MarketMaker(_pool.marketMaker());\n      _marketMaker.settlePayment(_optionHolder, _payback);\n      _marketMaker.settlePayment(_pool.marketMaker().govToken().protocolFeeRecipient(), _protocolAmount);\n      _marketMaker.settlePayment(_exerciseFeeRecipient, _exerciseAmount);      \n      emit Expire(msg.sender, address(this), _optionHolder, _expiringId, _payback);}}\n  \n  // add capital by depositing amount in funding tokens\n  function addCapital(Pool _pool, uint256 _depositAmount) external whenNotPaused{\n    uint256 _averageGrossCapital = vault.calcCapital(_pool, false, true);\n    ERC20 _funding = ERC20(_pool.marketMaker().funding());\n    uint256 _mintPoolAmount = _depositAmount.toWei(_funding.decimals()).ethdiv(_averageGrossCapital);\n    require(_funding.transferFrom(msg.sender, address(_pool.marketMaker()), _depositAmount));\n    _pool.mint(msg.sender, _mintPoolAmount);}\n\n  // remove capital by withdrawing amount in funding tokens\n  function withdrawCapital(Pool _pool, uint256 _burnPoolAmount) external whenNotPaused{\n    uint256 _averageNetCapital = vault.calcCapital(_pool, true, true);\n    uint256 _withdrawValue = _averageNetCapital.ethmul(_burnPoolAmount).toDecimals(ERC20(_pool.marketMaker().funding()).decimals()); \n    _pool.burn(msg.sender, _burnPoolAmount);\n    _pool.marketMaker().settlePayment(msg.sender, _withdrawValue);}\n\n  function pause() external onlyOwner{\n    _pause();\n  }\n\n  function unpause() external onlyOwner{\n    _unpause();\n  }\n}\n",
  "sourcePath": "/Users/mac/Documents/GitHub/moret/contracts/Exchange.sol",
  "compiler": {
    "name": "solc",
    "version": "0.8.16+commit.07a7930e.Emscripten.clang"
  },
  "schemaVersion": "3.4.3",
  "updatedAt": "2022-11-11T00:46:02.846Z",
  "networkType": "ethereum",
  "devdoc": {
    "kind": "dev",
    "methods": {
      "owner()": {
        "details": "Returns the address of the current owner."
      },
      "paused()": {
        "details": "Returns true if the contract is paused, and false otherwise."
      },
      "renounceOwnership()": {
        "details": "Leaves the contract without owner. It will not be possible to call `onlyOwner` functions anymore. Can only be called by the current owner. NOTE: Renouncing ownership will leave the contract without an owner, thereby removing any functionality that is only available to the owner."
      },
      "transferOwnership(address)": {
        "details": "Transfers ownership of the contract to a new account (`newOwner`). Can only be called by the current owner."
      }
    },
    "version": 1
  },
  "userdoc": {
    "kind": "user",
    "methods": {},
    "version": 1
  }
}