{
  "contractName": "Exchange",
  "abi": [
    {
      "inputs": [
        {
          "internalType": "contract OptionVault",
          "name": "_optionVault",
          "type": "address"
        }
      ],
      "stateMutability": "nonpayable",
      "type": "constructor"
    },
    {
      "anonymous": false,
      "inputs": [
        {
          "indexed": true,
          "internalType": "address",
          "name": "_bot",
          "type": "address"
        },
        {
          "indexed": true,
          "internalType": "address",
          "name": "_exchange",
          "type": "address"
        },
        {
          "indexed": false,
          "internalType": "address",
          "name": "_holder",
          "type": "address"
        },
        {
          "indexed": false,
          "internalType": "uint256",
          "name": "_id",
          "type": "uint256"
        },
        {
          "indexed": false,
          "internalType": "uint256",
          "name": "_payoff",
          "type": "uint256"
        }
      ],
      "name": "Expire",
      "type": "event"
    },
    {
      "anonymous": false,
      "inputs": [
        {
          "indexed": true,
          "internalType": "address",
          "name": "_hedger",
          "type": "address"
        },
        {
          "indexed": true,
          "internalType": "address",
          "name": "_market",
          "type": "address"
        },
        {
          "indexed": false,
          "internalType": "bool",
          "name": "success",
          "type": "bool"
        },
        {
          "indexed": false,
          "internalType": "bytes",
          "name": "data",
          "type": "bytes"
        }
      ],
      "name": "HedgeResponse",
      "type": "event"
    },
    {
      "anonymous": false,
      "inputs": [
        {
          "indexed": true,
          "internalType": "address",
          "name": "_hedger",
          "type": "address"
        },
        {
          "indexed": true,
          "internalType": "address",
          "name": "_market",
          "type": "address"
        },
        {
          "indexed": false,
          "internalType": "uint256[]",
          "name": "amounts",
          "type": "uint256[]"
        }
      ],
      "name": "HedgeSwapResponse",
      "type": "event"
    },
    {
      "anonymous": false,
      "inputs": [
        {
          "indexed": true,
          "internalType": "address",
          "name": "_purchaser",
          "type": "address"
        },
        {
          "indexed": true,
          "internalType": "address",
          "name": "_underlying",
          "type": "address"
        },
        {
          "components": [
            {
              "internalType": "enum OptionLib.PayoffType",
              "name": "poType",
              "type": "uint8"
            },
            {
              "internalType": "enum OptionLib.OptionSide",
              "name": "side",
              "type": "uint8"
            },
            {
              "internalType": "enum OptionLib.OptionStatus",
              "name": "status",
              "type": "uint8"
            },
            {
              "internalType": "address",
              "name": "holder",
              "type": "address"
            },
            {
              "internalType": "uint256",
              "name": "id",
              "type": "uint256"
            },
            {
              "internalType": "uint256",
              "name": "createTime",
              "type": "uint256"
            },
            {
              "internalType": "uint256",
              "name": "effectiveTime",
              "type": "uint256"
            },
            {
              "internalType": "uint256",
              "name": "tenor",
              "type": "uint256"
            },
            {
              "internalType": "uint256",
              "name": "maturity",
              "type": "uint256"
            },
            {
              "internalType": "uint256",
              "name": "exerciseTime",
              "type": "uint256"
            },
            {
              "internalType": "uint256",
              "name": "amount",
              "type": "uint256"
            },
            {
              "internalType": "uint256",
              "name": "spot",
              "type": "uint256"
            },
            {
              "internalType": "uint256",
              "name": "strike",
              "type": "uint256"
            },
            {
              "internalType": "uint256",
              "name": "volatility",
              "type": "uint256"
            },
            {
              "internalType": "uint256",
              "name": "premium",
              "type": "uint256"
            },
            {
              "internalType": "uint256",
              "name": "cost",
              "type": "uint256"
            },
            {
              "internalType": "address",
              "name": "pool",
              "type": "address"
            }
          ],
          "indexed": false,
          "internalType": "struct OptionLib.Option",
          "name": "_option",
          "type": "tuple"
        }
      ],
      "name": "NewOption",
      "type": "event"
    },
    {
      "anonymous": false,
      "inputs": [
        {
          "indexed": true,
          "internalType": "address",
          "name": "previousOwner",
          "type": "address"
        },
        {
          "indexed": true,
          "internalType": "address",
          "name": "newOwner",
          "type": "address"
        }
      ],
      "name": "OwnershipTransferred",
      "type": "event"
    },
    {
      "anonymous": false,
      "inputs": [
        {
          "indexed": false,
          "internalType": "address",
          "name": "_newBot",
          "type": "address"
        }
      ],
      "name": "ResetBotAddress",
      "type": "event"
    },
    {
      "anonymous": false,
      "inputs": [
        {
          "indexed": true,
          "internalType": "uint256",
          "name": "_parameterId",
          "type": "uint256"
        },
        {
          "indexed": false,
          "internalType": "uint256",
          "name": "_parameter",
          "type": "uint256"
        }
      ],
      "name": "ResetParameter",
      "type": "event"
    },
    {
      "anonymous": false,
      "inputs": [
        {
          "indexed": true,
          "internalType": "address",
          "name": "_exchange",
          "type": "address"
        },
        {
          "indexed": false,
          "internalType": "bool",
          "name": "_tradingAllowed",
          "type": "bool"
        }
      ],
      "name": "ResetTradingStatus",
      "type": "event"
    },
    {
      "anonymous": false,
      "inputs": [
        {
          "indexed": true,
          "internalType": "address",
          "name": "_purchaser",
          "type": "address"
        },
        {
          "indexed": true,
          "internalType": "address",
          "name": "_exchange",
          "type": "address"
        },
        {
          "indexed": false,
          "internalType": "uint256",
          "name": "_cost",
          "type": "uint256"
        },
        {
          "indexed": false,
          "internalType": "uint256",
          "name": "_volAmount",
          "type": "uint256"
        },
        {
          "indexed": false,
          "internalType": "bool",
          "name": "_isPurchase",
          "type": "bool"
        }
      ],
      "name": "TradeVolatility",
      "type": "event"
    },
    {
      "inputs": [],
      "name": "owner",
      "outputs": [
        {
          "internalType": "address",
          "name": "",
          "type": "address"
        }
      ],
      "stateMutability": "view",
      "type": "function",
      "constant": true
    },
    {
      "inputs": [],
      "name": "renounceOwnership",
      "outputs": [],
      "stateMutability": "nonpayable",
      "type": "function"
    },
    {
      "inputs": [
        {
          "internalType": "address",
          "name": "newOwner",
          "type": "address"
        }
      ],
      "name": "transferOwnership",
      "outputs": [],
      "stateMutability": "nonpayable",
      "type": "function"
    },
    {
      "inputs": [],
      "name": "vault",
      "outputs": [
        {
          "internalType": "contract OptionVault",
          "name": "",
          "type": "address"
        }
      ],
      "stateMutability": "view",
      "type": "function",
      "constant": true
    },
    {
      "inputs": [
        {
          "internalType": "contract Pool",
          "name": "_pool",
          "type": "address"
        },
        {
          "internalType": "uint256",
          "name": "_tenor",
          "type": "uint256"
        },
        {
          "internalType": "uint256",
          "name": "_strike",
          "type": "uint256"
        },
        {
          "internalType": "uint256",
          "name": "_amount",
          "type": "uint256"
        },
        {
          "internalType": "enum OptionLib.PayoffType",
          "name": "_poType",
          "type": "uint8"
        },
        {
          "internalType": "enum OptionLib.OptionSide",
          "name": "_side",
          "type": "uint8"
        },
        {
          "internalType": "bool",
          "name": "_forceATM",
          "type": "bool"
        }
      ],
      "name": "queryOption",
      "outputs": [
        {
          "internalType": "uint256",
          "name": "_premium",
          "type": "uint256"
        },
        {
          "internalType": "uint256",
          "name": "_collateral",
          "type": "uint256"
        },
        {
          "internalType": "uint256",
          "name": "_price",
          "type": "uint256"
        },
        {
          "internalType": "uint256",
          "name": "_volatility",
          "type": "uint256"
        }
      ],
      "stateMutability": "view",
      "type": "function",
      "constant": true
    },
    {
      "inputs": [
        {
          "internalType": "contract Pool",
          "name": "_pool",
          "type": "address"
        },
        {
          "internalType": "uint256",
          "name": "_tenor",
          "type": "uint256"
        },
        {
          "internalType": "uint256",
          "name": "_strike",
          "type": "uint256"
        },
        {
          "internalType": "uint256",
          "name": "_amount",
          "type": "uint256"
        },
        {
          "internalType": "enum OptionLib.PayoffType",
          "name": "_poType",
          "type": "uint8"
        },
        {
          "internalType": "enum OptionLib.OptionSide",
          "name": "_side",
          "type": "uint8"
        },
        {
          "internalType": "enum OptionLib.PaymentMethod",
          "name": "_payment",
          "type": "uint8"
        }
      ],
      "name": "tradeOption",
      "outputs": [],
      "stateMutability": "nonpayable",
      "type": "function"
    },
    {
      "inputs": [
        {
          "internalType": "contract Pool",
          "name": "_pool",
          "type": "address"
        },
        {
          "internalType": "uint256",
          "name": "_tenor",
          "type": "uint256"
        },
        {
          "internalType": "uint256",
          "name": "_amount",
          "type": "uint256"
        },
        {
          "internalType": "enum OptionLib.OptionSide",
          "name": "_side",
          "type": "uint8"
        }
      ],
      "name": "tradeVolToken",
      "outputs": [],
      "stateMutability": "nonpayable",
      "type": "function"
    },
    {
      "inputs": [
        {
          "internalType": "contract Pool",
          "name": "_pool",
          "type": "address"
        },
        {
          "internalType": "uint256",
          "name": "_tenor",
          "type": "uint256"
        }
      ],
      "name": "getVolatilityToken",
      "outputs": [
        {
          "internalType": "contract VolatilityToken",
          "name": "",
          "type": "address"
        }
      ],
      "stateMutability": "view",
      "type": "function",
      "constant": true
    },
    {
      "inputs": [
        {
          "internalType": "contract Pool",
          "name": "_pool",
          "type": "address"
        }
      ],
      "name": "getVolatilityChain",
      "outputs": [
        {
          "internalType": "contract VolatilityChain",
          "name": "",
          "type": "address"
        }
      ],
      "stateMutability": "view",
      "type": "function",
      "constant": true
    },
    {
      "inputs": [
        {
          "internalType": "uint256",
          "name": "_expiringId",
          "type": "uint256"
        },
        {
          "internalType": "address",
          "name": "_exerciseFeeRecipient",
          "type": "address"
        }
      ],
      "name": "expireOption",
      "outputs": [],
      "stateMutability": "nonpayable",
      "type": "function"
    },
    {
      "inputs": [
        {
          "internalType": "contract Pool",
          "name": "_pool",
          "type": "address"
        },
        {
          "internalType": "uint256",
          "name": "_depositAmount",
          "type": "uint256"
        }
      ],
      "name": "addCapital",
      "outputs": [],
      "stateMutability": "nonpayable",
      "type": "function"
    },
    {
      "inputs": [
        {
          "internalType": "contract Pool",
          "name": "_pool",
          "type": "address"
        },
        {
          "internalType": "uint256",
          "name": "_burnPoolAmount",
          "type": "uint256"
        }
      ],
      "name": "withdrawCapital",
      "outputs": [],
      "stateMutability": "nonpayable",
      "type": "function"
    }
  ],
  "bytecode": "0x60a06040523480156200001157600080fd5b5060405162005989380380620059898339818101604052810190620000379190620001dc565b620000576200004b6200009260201b60201c565b6200009a60201b60201c565b8073ffffffffffffffffffffffffffffffffffffffff1660808173ffffffffffffffffffffffffffffffffffffffff1681525050506200020e565b600033905090565b60008060009054906101000a900473ffffffffffffffffffffffffffffffffffffffff169050816000806101000a81548173ffffffffffffffffffffffffffffffffffffffff021916908373ffffffffffffffffffffffffffffffffffffffff1602179055508173ffffffffffffffffffffffffffffffffffffffff168173ffffffffffffffffffffffffffffffffffffffff167f8be0079c531659141344cd1fd0a4f28419497f9722a3daafe3b4186f6b6457e060405160405180910390a35050565b600080fd5b600073ffffffffffffffffffffffffffffffffffffffff82169050919050565b6000620001908262000163565b9050919050565b6000620001a48262000183565b9050919050565b620001b68162000197565b8114620001c257600080fd5b50565b600081519050620001d681620001ab565b92915050565b600060208284031215620001f557620001f46200015e565b5b60006200020584828501620001c5565b91505092915050565b608051615712620002776000396000818161040c0152818161056d01528181610613015281816107cb015281816108900152818161095e015281816109ec01528181611af30152818161208e015281816125a70152818161265c0152612baa01526157126000f3fe608060405234801561001057600080fd5b50600436106100b45760003560e01c80638da5cb5b116100715780638da5cb5b146101775780639111fccd14610195578063b1ff6171146101b1578063e98254bb146101e4578063f2fde38b14610200578063fbfa77cf1461021c576100b4565b806315dc2e9d146100b9578063508cd68d146100e957806354f6e8c8146101055780636cce891614610121578063715018a614610151578063826fdbbd1461015b575b600080fd5b6100d360048036038101906100ce91906140e0565b61023a565b6040516100e0919061416c565b60405180910390f35b61010360048036038101906100fe919061422c565b610325565b005b61011f600480360381019061011a91906142fa565b610888565b005b61013b6004803603810190610136919061433a565b6113d2565b604051610148919061439b565b60405180910390f35b6101596115a7565b005b610175600480360381019061017091906143b6565b61162f565b005b61017f612061565b60405161018c919061442c565b60405180910390f35b6101af60048036038101906101aa919061433a565b61208a565b005b6101cb60048036038101906101c6919061447f565b6124c0565b6040516101db9493929190614530565b60405180910390f35b6101fe60048036038101906101f9919061433a565b612658565b005b61021a60048036038101906102159190614575565b612ab1565b005b610224612ba8565b60405161023191906145c3565b60405180910390f35b6000808273ffffffffffffffffffffffffffffffffffffffff16631f21f9af6040518163ffffffff1660e01b8152600401602060405180830381865afa158015610288573d6000803e3d6000fd5b505050506040513d601f19601f820116820180604052508101906102ac919061461c565b90508073ffffffffffffffffffffffffffffffffffffffff1663c0a16f6a6040518163ffffffff1660e01b8152600401602060405180830381865afa1580156102f9573d6000803e3d6000fd5b505050506040513d601f19601f8201168201806040525081019061031d9190614687565b915050919050565b6000604051806102200160405280856001811115610346576103456146b4565b5b815260200184600181111561035e5761035d6146b4565b5b815260200160006003811115610377576103766146b4565b5b81526020013373ffffffffffffffffffffffffffffffffffffffff16815260200160008152602001428152602001600081526020018881526020016000815260200160008152602001868152602001600081526020018781526020016000815260200160008152602001600081526020018973ffffffffffffffffffffffffffffffffffffffff1681525090506000806000807f000000000000000000000000000000000000000000000000000000000000000073ffffffffffffffffffffffffffffffffffffffff16632360e8178660006040518363ffffffff1660e01b8152600401610466929190614947565b608060405180830381865afa158015610483573d6000803e3d6000fd5b505050506040513d601f19601f820116820180604052508101906104a79190614987565b93509350935093508383116104f1576040517f08c379a00000000000000000000000000000000000000000000000000000000081526004016104e890614a4b565b60405180910390fd5b60006001811115610505576105046146b4565b5b876001811115610518576105176146b4565b5b0361052d5761052c8c338d8786868c612bcc565b5b6001808111156105405761053f6146b4565b5b876001811115610553576105526146b4565b5b03610569576105688c338d878787878d61351c565b5b60007f000000000000000000000000000000000000000000000000000000000000000073ffffffffffffffffffffffffffffffffffffffff1663b9f10b6687878787876040518663ffffffff1660e01b81526004016105cc959493929190614a6b565b6020604051808303816000875af11580156105eb573d6000803e3d6000fd5b505050506040513d601f19601f8201168201806040525081019061060f9190614ac3565b90507f000000000000000000000000000000000000000000000000000000000000000073ffffffffffffffffffffffffffffffffffffffff166324b4110e82336040518363ffffffff1660e01b815260040161066c929190614af0565b600060405180830381600087803b15801561068657600080fd5b505af115801561069a573d6000803e3d6000fd5b505050508c73ffffffffffffffffffffffffffffffffffffffff16631f21f9af6040518163ffffffff1660e01b8152600401602060405180830381865afa1580156106e9573d6000803e3d6000fd5b505050506040513d601f19601f8201168201806040525081019061070d919061461c565b73ffffffffffffffffffffffffffffffffffffffff16636f307dc36040518163ffffffff1660e01b8152600401602060405180830381865afa158015610757573d6000803e3d6000fd5b505050506040513d601f19601f8201168201806040525081019061077b9190614b2e565b73ffffffffffffffffffffffffffffffffffffffff163373ffffffffffffffffffffffffffffffffffffffff167f9275b53072be4ab328f3d99cbe3417aa2b563c098b3feceb5bf7d23ce734815a7f000000000000000000000000000000000000000000000000000000000000000073ffffffffffffffffffffffffffffffffffffffff16631ce5e9a6856040518263ffffffff1660e01b81526004016108229190614b5b565b61022060405180830381865afa158015610840573d6000803e3d6000fd5b505050506040513d601f19601f820116820180604052508101906108649190614de6565b6040516108719190614e14565b60405180910390a350505050505050505050505050565b6000806000807f000000000000000000000000000000000000000000000000000000000000000073ffffffffffffffffffffffffffffffffffffffff1663fc9d80e0876040518263ffffffff1660e01b81526004016108e79190614b5b565b608060405180830381865afa158015610904573d6000803e3d6000fd5b505050506040513d601f19601f820116820180604052508101906109289190614e45565b935093509350935060016003811115610944576109436146b4565b5b846003811115610957576109566146b4565b5b036113ca577f000000000000000000000000000000000000000000000000000000000000000073ffffffffffffffffffffffffffffffffffffffff1663637baf60876040518263ffffffff1660e01b81526004016109b59190614b5b565b600060405180830381600087803b1580156109cf57600080fd5b505af11580156109e3573d6000803e3d6000fd5b505050506000807f000000000000000000000000000000000000000000000000000000000000000073ffffffffffffffffffffffffffffffffffffffff166385ae10e6896040518263ffffffff1660e01b8152600401610a439190614b5b565b606060405180830381865afa158015610a60573d6000803e3d6000fd5b505050506040513d601f19601f82011682018060405250810190610a849190614eac565b509150915060008373ffffffffffffffffffffffffffffffffffffffff16631f21f9af6040518163ffffffff1660e01b8152600401602060405180830381865afa158015610ad6573d6000803e3d6000fd5b505050506040513d601f19601f82011682018060405250810190610afa919061461c565b73ffffffffffffffffffffffffffffffffffffffff1663cb4c86b76040518163ffffffff1660e01b8152600401602060405180830381865afa158015610b44573d6000803e3d6000fd5b505050506040513d601f19601f82011682018060405250810190610b689190614f3d565b73ffffffffffffffffffffffffffffffffffffffff1663313ce5676040518163ffffffff1660e01b8152600401602060405180830381865afa158015610bb2573d6000803e3d6000fd5b505050506040513d601f19601f82011682018060405250810190610bd69190614fa3565b60ff16905060008373__MathLib_______________________________63fed4a0f390918773ffffffffffffffffffffffffffffffffffffffff16631f21f9af6040518163ffffffff1660e01b8152600401602060405180830381865afa158015610c45573d6000803e3d6000fd5b505050506040513d601f19601f82011682018060405250810190610c69919061461c565b73ffffffffffffffffffffffffffffffffffffffff166305268cff6040518163ffffffff1660e01b8152600401602060405180830381865afa158015610cb3573d6000803e3d6000fd5b505050506040513d601f19601f82011682018060405250810190610cd7919061500e565b73ffffffffffffffffffffffffffffffffffffffff1663b0e21e8a6040518163ffffffff1660e01b8152600401602060405180830381865afa158015610d21573d6000803e3d6000fd5b505050506040513d601f19601f82011682018060405250810190610d459190614ac3565b6040518363ffffffff1660e01b8152600401610d6292919061504a565b602060405180830381865af4158015610d7f573d6000803e3d6000fd5b505050506040513d601f19601f82011682018060405250810190610da39190614ac3565b73__MarketLib_____________________________63174e20e69091846040518363ffffffff1660e01b8152600401610ddd92919061504a565b602060405180830381865af4158015610dfa573d6000803e3d6000fd5b505050506040513d601f19601f82011682018060405250810190610e1e9190614ac3565b905060008473__MathLib_______________________________63fed4a0f390918873ffffffffffffffffffffffffffffffffffffffff1663d1c699aa6040518163ffffffff1660e01b8152600401602060405180830381865afa158015610e8a573d6000803e3d6000fd5b505050506040513d601f19601f82011682018060405250810190610eae9190614ac3565b6040518363ffffffff1660e01b8152600401610ecb92919061504a565b602060405180830381865af4158015610ee8573d6000803e3d6000fd5b505050506040513d601f19601f82011682018060405250810190610f0c9190614ac3565b73__MarketLib_____________________________63174e20e69091856040518363ffffffff1660e01b8152600401610f4692919061504a565b602060405180830381865af4158015610f63573d6000803e3d6000fd5b505050506040513d601f19601f82011682018060405250810190610f879190614ac3565b90508373__MarketLib_____________________________63174e20e69091856040518363ffffffff1660e01b8152600401610fc492919061504a565b602060405180830381865af4158015610fe1573d6000803e3d6000fd5b505050506040513d601f19601f820116820180604052508101906110059190614ac3565b93506000600181111561101b5761101a6146b4565b5b88600181111561102e5761102d6146b4565b5b036113c45761104884828461104391906150a2565b613f7c565b8461105391906150f8565b935060008673ffffffffffffffffffffffffffffffffffffffff16631f21f9af6040518163ffffffff1660e01b8152600401602060405180830381865afa1580156110a2573d6000803e3d6000fd5b505050506040513d601f19601f820116820180604052508101906110c6919061461c565b90508073ffffffffffffffffffffffffffffffffffffffff16633e60e34889876040518363ffffffff1660e01b815260040161110392919061512c565b600060405180830381600087803b15801561111d57600080fd5b505af1158015611131573d6000803e3d6000fd5b505050508073ffffffffffffffffffffffffffffffffffffffff16633e60e3488873ffffffffffffffffffffffffffffffffffffffff16631f21f9af6040518163ffffffff1660e01b8152600401602060405180830381865afa15801561119c573d6000803e3d6000fd5b505050506040513d601f19601f820116820180604052508101906111c0919061461c565b73ffffffffffffffffffffffffffffffffffffffff166305268cff6040518163ffffffff1660e01b8152600401602060405180830381865afa15801561120a573d6000803e3d6000fd5b505050506040513d601f19601f8201168201806040525081019061122e919061500e565b73ffffffffffffffffffffffffffffffffffffffff166364df049e6040518163ffffffff1660e01b8152600401602060405180830381865afa158015611278573d6000803e3d6000fd5b505050506040513d601f19601f8201168201806040525081019061129c9190614b2e565b856040518363ffffffff1660e01b81526004016112ba92919061512c565b600060405180830381600087803b1580156112d457600080fd5b505af11580156112e8573d6000803e3d6000fd5b505050508073ffffffffffffffffffffffffffffffffffffffff16633e60e3488c846040518363ffffffff1660e01b815260040161132792919061512c565b600060405180830381600087803b15801561134157600080fd5b505af1158015611355573d6000803e3d6000fd5b505050503073ffffffffffffffffffffffffffffffffffffffff163373ffffffffffffffffffffffffffffffffffffffff167f1cf7404c642614322b1d508b6d5e34e05720d23d9596b59b19c8a05704b495e18a8f896040516113ba93929190615155565b60405180910390a3505b50505050505b505050505050565b6000808373ffffffffffffffffffffffffffffffffffffffff16631f21f9af6040518163ffffffff1660e01b8152600401602060405180830381865afa158015611420573d6000803e3d6000fd5b505050506040513d601f19601f82011682018060405250810190611444919061461c565b90508073ffffffffffffffffffffffffffffffffffffffff166305268cff6040518163ffffffff1660e01b8152600401602060405180830381865afa158015611491573d6000803e3d6000fd5b505050506040513d601f19601f820116820180604052508101906114b5919061500e565b73ffffffffffffffffffffffffffffffffffffffff16636cce89168273ffffffffffffffffffffffffffffffffffffffff16636f307dc36040518163ffffffff1660e01b8152600401602060405180830381865afa15801561151b573d6000803e3d6000fd5b505050506040513d601f19601f8201168201806040525081019061153f9190614b2e565b856040518363ffffffff1660e01b815260040161155d92919061512c565b602060405180830381865afa15801561157a573d6000803e3d6000fd5b505050506040513d601f19601f8201168201806040525081019061159e91906151ca565b91505092915050565b6115af613f95565b73ffffffffffffffffffffffffffffffffffffffff166115cd612061565b73ffffffffffffffffffffffffffffffffffffffff1614611623576040517f08c379a000000000000000000000000000000000000000000000000000000000815260040161161a90615243565b60405180910390fd5b61162d6000613f9d565b565b60008473ffffffffffffffffffffffffffffffffffffffff16631f21f9af6040518163ffffffff1660e01b8152600401602060405180830381865afa15801561167c573d6000803e3d6000fd5b505050506040513d601f19601f820116820180604052508101906116a0919061461c565b90508073ffffffffffffffffffffffffffffffffffffffff166305268cff6040518163ffffffff1660e01b8152600401602060405180830381865afa1580156116ed573d6000803e3d6000fd5b505050506040513d601f19601f82011682018060405250810190611711919061500e565b73ffffffffffffffffffffffffffffffffffffffff1663255fdcff866040518263ffffffff1660e01b8152600401611749919061442c565b602060405180830381865afa158015611766573d6000803e3d6000fd5b505050506040513d601f19601f8201168201806040525081019061178a9190615278565b6117c9576040517f08c379a00000000000000000000000000000000000000000000000000000000081526004016117c0906152f1565b60405180910390fd5b60008173ffffffffffffffffffffffffffffffffffffffff166305268cff6040518163ffffffff1660e01b8152600401602060405180830381865afa158015611816573d6000803e3d6000fd5b505050506040513d601f19601f8201168201806040525081019061183a919061500e565b73ffffffffffffffffffffffffffffffffffffffff16636cce89168373ffffffffffffffffffffffffffffffffffffffff16636f307dc36040518163ffffffff1660e01b8152600401602060405180830381865afa1580156118a0573d6000803e3d6000fd5b505050506040513d601f19601f820116820180604052508101906118c49190614b2e565b876040518363ffffffff1660e01b81526004016118e292919061512c565b602060405180830381865afa1580156118ff573d6000803e3d6000fd5b505050506040513d601f19601f8201168201806040525081019061192391906151ca565b90506000604051806102200160405280600180811115611946576119456146b4565b5b815260200185600181111561195e5761195d6146b4565b5b815260200160006003811115611977576119766146b4565b5b81526020013373ffffffffffffffffffffffffffffffffffffffff1681526020016000815260200142815260200160008152602001878152602001600081526020016000815260200186815260200160008152602001600081526020016000815260200160008152602001600081526020018873ffffffffffffffffffffffffffffffffffffffff16815250905060008373ffffffffffffffffffffffffffffffffffffffff1663cb4c86b76040518163ffffffff1660e01b8152600401602060405180830381865afa158015611a52573d6000803e3d6000fd5b505050506040513d601f19601f82011682018060405250810190611a769190614f3d565b905060008173ffffffffffffffffffffffffffffffffffffffff1663313ce5676040518163ffffffff1660e01b8152600401602060405180830381865afa158015611ac5573d6000803e3d6000fd5b505050506040513d601f19601f82011682018060405250810190611ae99190614fa3565b60ff1690506000807f000000000000000000000000000000000000000000000000000000000000000073ffffffffffffffffffffffffffffffffffffffff16632360e8178660016040518363ffffffff1660e01b8152600401611b4d929190614947565b608060405180830381865afa158015611b6a573d6000803e3d6000fd5b505050506040513d601f19601f82011682018060405250810190611b8e9190614987565b9350505091506000806001811115611ba957611ba86146b4565b5b896001811115611bbc57611bbb6146b4565b5b03611ded578473ffffffffffffffffffffffffffffffffffffffff166323b872dd33898673__MarketLib_____________________________63174e20e690918a6040518363ffffffff1660e01b8152600401611c1a92919061504a565b602060405180830381865af4158015611c37573d6000803e3d6000fd5b505050506040513d601f19601f82011682018060405250810190611c5b9190614ac3565b6040518463ffffffff1660e01b8152600401611c7993929190615311565b6020604051808303816000875af1158015611c98573d6000803e3d6000fd5b505050506040513d601f19601f82011682018060405250810190611cbc9190615278565b611cfb576040517f08c379a0000000000000000000000000000000000000000000000000000000008152600401611cf290615394565b60405180910390fd5b8673ffffffffffffffffffffffffffffffffffffffff1663b3e1f05084846040518363ffffffff1660e01b8152600401611d369291906153b4565b6040805180830381865afa158015611d52573d6000803e3d6000fd5b505050506040513d601f19601f82011682018060405250810190611d7691906153dd565b50809150508673ffffffffffffffffffffffffffffffffffffffff166340c10f1933836040518363ffffffff1660e01b8152600401611db692919061512c565b600060405180830381600087803b158015611dd057600080fd5b505af1158015611de4573d6000803e3d6000fd5b50505050611fc3565b8673ffffffffffffffffffffffffffffffffffffffff1663921f2c3b84846040518363ffffffff1660e01b8152600401611e289291906153b4565b6040805180830381865afa158015611e44573d6000803e3d6000fd5b505050506040513d601f19601f82011682018060405250810190611e6891906153dd565b50809150508673ffffffffffffffffffffffffffffffffffffffff16639dc29fac33836040518363ffffffff1660e01b8152600401611ea892919061512c565b600060405180830381600087803b158015611ec257600080fd5b505af1158015611ed6573d6000803e3d6000fd5b505050508673ffffffffffffffffffffffffffffffffffffffff1663c4076876338573__MarketLib_____________________________63174e20e69091896040518363ffffffff1660e01b8152600401611f3292919061504a565b602060405180830381865af4158015611f4f573d6000803e3d6000fd5b505050506040513d601f19601f82011682018060405250810190611f739190614ac3565b6040518363ffffffff1660e01b8152600401611f9092919061512c565b600060405180830381600087803b158015611faa57600080fd5b505af1158015611fbe573d6000803e3d6000fd5b505050505b8b73ffffffffffffffffffffffffffffffffffffffff163373ffffffffffffffffffffffffffffffffffffffff167fecff3762708241a160664f7092d4ff3e5e6eed425112beca3a558737639f0ba38c8460006001811115612028576120276146b4565b5b8e600181111561203b5761203a6146b4565b5b1460405161204b9392919061541d565b60405180910390a3505050505050505050505050565b60008060009054906101000a900473ffffffffffffffffffffffffffffffffffffffff16905090565b60007f000000000000000000000000000000000000000000000000000000000000000073ffffffffffffffffffffffffffffffffffffffff16635c273c2f846001806040518463ffffffff1660e01b81526004016120ea93929190615475565b602060405180830381865afa158015612107573d6000803e3d6000fd5b505050506040513d601f19601f8201168201806040525081019061212b9190614ac3565b905060008173__MathLib_______________________________63fed4a0f39091856040518363ffffffff1660e01b815260040161216a92919061504a565b602060405180830381865af4158015612187573d6000803e3d6000fd5b505050506040513d601f19601f820116820180604052508101906121ab9190614ac3565b73__MarketLib_____________________________63174e20e690918673ffffffffffffffffffffffffffffffffffffffff16631f21f9af6040518163ffffffff1660e01b8152600401602060405180830381865afa158015612212573d6000803e3d6000fd5b505050506040513d601f19601f82011682018060405250810190612236919061461c565b73ffffffffffffffffffffffffffffffffffffffff1663cb4c86b76040518163ffffffff1660e01b8152600401602060405180830381865afa158015612280573d6000803e3d6000fd5b505050506040513d601f19601f820116820180604052508101906122a49190614f3d565b73ffffffffffffffffffffffffffffffffffffffff1663313ce5676040518163ffffffff1660e01b8152600401602060405180830381865afa1580156122ee573d6000803e3d6000fd5b505050506040513d601f19601f820116820180604052508101906123129190614fa3565b6040518363ffffffff1660e01b815260040161232f9291906154dd565b602060405180830381865af415801561234c573d6000803e3d6000fd5b505050506040513d601f19601f820116820180604052508101906123709190614ac3565b90508373ffffffffffffffffffffffffffffffffffffffff16639dc29fac33856040518363ffffffff1660e01b81526004016123ad92919061512c565b600060405180830381600087803b1580156123c757600080fd5b505af11580156123db573d6000803e3d6000fd5b505050508373ffffffffffffffffffffffffffffffffffffffff16631f21f9af6040518163ffffffff1660e01b8152600401602060405180830381865afa15801561242a573d6000803e3d6000fd5b505050506040513d601f19601f8201168201806040525081019061244e919061461c565b73ffffffffffffffffffffffffffffffffffffffff16633e60e34833836040518363ffffffff1660e01b815260040161248892919061512c565b600060405180830381600087803b1580156124a257600080fd5b505af11580156124b6573d6000803e3d6000fd5b5050505050505050565b60008060008060006040518061022001604052808960018111156124e7576124e66146b4565b5b81526020018860018111156124ff576124fe6146b4565b5b815260200160006003811115612518576125176146b4565b5b81526020013373ffffffffffffffffffffffffffffffffffffffff16815260200160008152602001428152602001600081526020018c815260200160008152602001600081526020018a8152602001600081526020018b81526020016000815260200160008152602001600081526020018d73ffffffffffffffffffffffffffffffffffffffff1681525090507f000000000000000000000000000000000000000000000000000000000000000073ffffffffffffffffffffffffffffffffffffffff16632360e81782886040518363ffffffff1660e01b8152600401612600929190614947565b608060405180830381865afa15801561261d573d6000803e3d6000fd5b505050506040513d601f19601f820116820180604052508101906126419190614987565b945094509450945050975097509750979350505050565b60007f000000000000000000000000000000000000000000000000000000000000000073ffffffffffffffffffffffffffffffffffffffff16635c273c2f84600060016040518463ffffffff1660e01b81526004016126b993929190615475565b602060405180830381865afa1580156126d6573d6000803e3d6000fd5b505050506040513d601f19601f820116820180604052508101906126fa9190614ac3565b905060008373ffffffffffffffffffffffffffffffffffffffff16631f21f9af6040518163ffffffff1660e01b8152600401602060405180830381865afa158015612749573d6000803e3d6000fd5b505050506040513d601f19601f8201168201806040525081019061276d919061461c565b73ffffffffffffffffffffffffffffffffffffffff1663cb4c86b76040518163ffffffff1660e01b8152600401602060405180830381865afa1580156127b7573d6000803e3d6000fd5b505050506040513d601f19601f820116820180604052508101906127db9190614f3d565b905060008373__MarketLib_____________________________63ed1bb19990918473ffffffffffffffffffffffffffffffffffffffff1663313ce5676040518163ffffffff1660e01b8152600401602060405180830381865afa158015612847573d6000803e3d6000fd5b505050506040513d601f19601f8201168201806040525081019061286b9190614fa3565b6040518363ffffffff1660e01b81526004016128889291906154dd565b602060405180830381865af41580156128a5573d6000803e3d6000fd5b505050506040513d601f19601f820116820180604052508101906128c99190614ac3565b73__MathLib_______________________________63de7f61709091856040518363ffffffff1660e01b815260040161290392919061504a565b602060405180830381865af4158015612920573d6000803e3d6000fd5b505050506040513d601f19601f820116820180604052508101906129449190614ac3565b90508173ffffffffffffffffffffffffffffffffffffffff166323b872dd338773ffffffffffffffffffffffffffffffffffffffff16631f21f9af6040518163ffffffff1660e01b8152600401602060405180830381865afa1580156129ae573d6000803e3d6000fd5b505050506040513d601f19601f820116820180604052508101906129d2919061461c565b876040518463ffffffff1660e01b81526004016129f193929190615311565b6020604051808303816000875af1158015612a10573d6000803e3d6000fd5b505050506040513d601f19601f82011682018060405250810190612a349190615278565b612a3d57600080fd5b8473ffffffffffffffffffffffffffffffffffffffff166340c10f1933836040518363ffffffff1660e01b8152600401612a7892919061512c565b600060405180830381600087803b158015612a9257600080fd5b505af1158015612aa6573d6000803e3d6000fd5b505050505050505050565b612ab9613f95565b73ffffffffffffffffffffffffffffffffffffffff16612ad7612061565b73ffffffffffffffffffffffffffffffffffffffff1614612b2d576040517f08c379a0000000000000000000000000000000000000000000000000000000008152600401612b2490615243565b60405180910390fd5b600073ffffffffffffffffffffffffffffffffffffffff168173ffffffffffffffffffffffffffffffffffffffff1603612b9c576040517f08c379a0000000000000000000000000000000000000000000000000000000008152600401612b9390615578565b60405180910390fd5b612ba581613f9d565b50565b7f000000000000000000000000000000000000000000000000000000000000000081565b60008773ffffffffffffffffffffffffffffffffffffffff16631f21f9af6040518163ffffffff1660e01b8152600401602060405180830381865afa158015612c19573d6000803e3d6000fd5b505050506040513d601f19601f82011682018060405250810190612c3d919061461c565b905060008173ffffffffffffffffffffffffffffffffffffffff1663cb4c86b76040518163ffffffff1660e01b8152600401602060405180830381865afa158015612c8c573d6000803e3d6000fd5b505050506040513d601f19601f82011682018060405250810190612cb09190614f3d565b905060008173ffffffffffffffffffffffffffffffffffffffff1663313ce5676040518163ffffffff1660e01b8152600401602060405180830381865afa158015612cff573d6000803e3d6000fd5b505050506040513d601f19601f82011682018060405250810190612d239190614fa3565b60ff16905060008373ffffffffffffffffffffffffffffffffffffffff16636f307dc36040518163ffffffff1660e01b8152600401602060405180830381865afa158015612d75573d6000803e3d6000fd5b505050506040513d601f19601f82011682018060405250810190612d999190614b2e565b905060006002811115612daf57612dae6146b4565b5b856002811115612dc257612dc16146b4565b5b03612f06578273ffffffffffffffffffffffffffffffffffffffff166323b872dd8b868b73__MarketLib_____________________________63174e20e69091886040518363ffffffff1660e01b8152600401612e2092919061504a565b602060405180830381865af4158015612e3d573d6000803e3d6000fd5b505050506040513d601f19601f82011682018060405250810190612e619190614ac3565b6040518463ffffffff1660e01b8152600401612e7f93929190615311565b6020604051808303816000875af1158015612e9e573d6000803e3d6000fd5b505050506040513d601f19601f82011682018060405250810190612ec29190615278565b612f01576040517f08c379a0000000000000000000000000000000000000000000000000000000008152600401612ef8906155e4565b60405180910390fd5b61350f565b60016002811115612f1a57612f196146b4565b5b856002811115612f2d57612f2c6146b4565b5b0361316957600081905060008173ffffffffffffffffffffffffffffffffffffffff1663313ce5676040518163ffffffff1660e01b8152600401602060405180830381865afa158015612f84573d6000803e3d6000fd5b505050506040513d601f19601f82011682018060405250810190612fa89190614fa3565b60ff1690508173ffffffffffffffffffffffffffffffffffffffff166323b872dd8d888d73__MathLib_______________________________63de7f617090918f6040518363ffffffff1660e01b815260040161300692919061504a565b602060405180830381865af4158015613023573d6000803e3d6000fd5b505050506040513d601f19601f820116820180604052508101906130479190614ac3565b73__MarketLib_____________________________63174e20e69091876040518363ffffffff1660e01b815260040161308192919061504a565b602060405180830381865af415801561309e573d6000803e3d6000fd5b505050506040513d601f19601f820116820180604052508101906130c29190614ac3565b6040518463ffffffff1660e01b81526004016130e093929190615311565b6020604051808303816000875af11580156130ff573d6000803e3d6000fd5b505050506040513d601f19601f820116820180604052508101906131239190615278565b613162576040517f08c379a0000000000000000000000000000000000000000000000000000000008152600401613159906155e4565b60405180910390fd5b505061350e565b60028081111561317c5761317b6146b4565b5b85600281111561318f5761318e6146b4565b5b0361350d5760008473ffffffffffffffffffffffffffffffffffffffff166305268cff6040518163ffffffff1660e01b8152600401602060405180830381865afa1580156131e1573d6000803e3d6000fd5b505050506040513d601f19601f82011682018060405250810190613205919061500e565b73ffffffffffffffffffffffffffffffffffffffff16636cce8916838c6040518363ffffffff1660e01b815260040161323f92919061512c565b602060405180830381865afa15801561325c573d6000803e3d6000fd5b505050506040513d601f19601f8201168201806040525081019061328091906151ca565b90506000808273ffffffffffffffffffffffffffffffffffffffff1663921f2c3b8c8b6040518363ffffffff1660e01b81526004016132c09291906153b4565b6040805180830381865afa1580156132dc573d6000803e3d6000fd5b505050506040513d601f19601f8201168201806040525081019061330091906153dd565b915091508d73ffffffffffffffffffffffffffffffffffffffff1663372688b06040518163ffffffff1660e01b8152600401602060405180830381865afa15801561334f573d6000803e3d6000fd5b505050506040513d601f19601f820116820180604052508101906133739190614ac3565b81116133b4576040517f08c379a00000000000000000000000000000000000000000000000000000000081526004016133ab90615650565b60405180910390fd5b8273ffffffffffffffffffffffffffffffffffffffff16639dc29fac33846040518363ffffffff1660e01b81526004016133ef92919061512c565b600060405180830381600087803b15801561340957600080fd5b505af115801561341d573d6000803e3d6000fd5b505050508273ffffffffffffffffffffffffffffffffffffffff1663c4076876888d73__MarketLib_____________________________63174e20e690918a6040518363ffffffff1660e01b815260040161347992919061504a565b602060405180830381865af4158015613496573d6000803e3d6000fd5b505050506040513d601f19601f820116820180604052508101906134ba9190614ac3565b6040518363ffffffff1660e01b81526004016134d792919061512c565b600060405180830381600087803b1580156134f157600080fd5b505af1158015613505573d6000803e3d6000fd5b505050505050505b5b5b5050505050505050505050565b60008873ffffffffffffffffffffffffffffffffffffffff16631f21f9af6040518163ffffffff1660e01b8152600401602060405180830381865afa158015613569573d6000803e3d6000fd5b505050506040513d601f19601f8201168201806040525081019061358d919061461c565b905060008173ffffffffffffffffffffffffffffffffffffffff1663cb4c86b76040518163ffffffff1660e01b8152600401602060405180830381865afa1580156135dc573d6000803e3d6000fd5b505050506040513d601f19601f820116820180604052508101906136009190614f3d565b905060008173ffffffffffffffffffffffffffffffffffffffff1663313ce5676040518163ffffffff1660e01b8152600401602060405180830381865afa15801561364f573d6000803e3d6000fd5b505050506040513d601f19601f820116820180604052508101906136739190614fa3565b60ff1690506000600281111561368c5761368b6146b4565b5b84600281111561369f5761369e6146b4565b5b036137ee578173ffffffffffffffffffffffffffffffffffffffff166323b872dd8b858b8b6136ce91906150f8565b73__MarketLib_____________________________63174e20e69091876040518363ffffffff1660e01b815260040161370892919061504a565b602060405180830381865af4158015613725573d6000803e3d6000fd5b505050506040513d601f19601f820116820180604052508101906137499190614ac3565b6040518463ffffffff1660e01b815260040161376793929190615311565b6020604051808303816000875af1158015613786573d6000803e3d6000fd5b505050506040513d601f19601f820116820180604052508101906137aa9190615278565b6137e9576040517f08c379a00000000000000000000000000000000000000000000000000000000081526004016137e0906155e4565b60405180910390fd5b613f6f565b60016002811115613802576138016146b4565b5b846002811115613815576138146146b4565b5b03613aca5760008373ffffffffffffffffffffffffffffffffffffffff16636f307dc36040518163ffffffff1660e01b8152600401602060405180830381865afa158015613867573d6000803e3d6000fd5b505050506040513d601f19601f8201168201806040525081019061388b9190614b2e565b905060008173ffffffffffffffffffffffffffffffffffffffff1663313ce5676040518163ffffffff1660e01b8152600401602060405180830381865afa1580156138da573d6000803e3d6000fd5b505050506040513d601f19601f820116820180604052508101906138fe9190614fa3565b60ff1690508173ffffffffffffffffffffffffffffffffffffffff166323b872dd8d878d8d61392d91906150f8565b73__MathLib_______________________________63de7f617090918e6040518363ffffffff1660e01b815260040161396792919061504a565b602060405180830381865af4158015613984573d6000803e3d6000fd5b505050506040513d601f19601f820116820180604052508101906139a89190614ac3565b73__MarketLib_____________________________63174e20e69091876040518363ffffffff1660e01b81526004016139e292919061504a565b602060405180830381865af41580156139ff573d6000803e3d6000fd5b505050506040513d601f19601f82011682018060405250810190613a239190614ac3565b6040518463ffffffff1660e01b8152600401613a4193929190615311565b6020604051808303816000875af1158015613a60573d6000803e3d6000fd5b505050506040513d601f19601f82011682018060405250810190613a849190615278565b613ac3576040517f08c379a0000000000000000000000000000000000000000000000000000000008152600401613aba906155e4565b60405180910390fd5b5050613f6e565b600280811115613add57613adc6146b4565b5b846002811115613af057613aef6146b4565b5b03613f6d576000871115613c39578173ffffffffffffffffffffffffffffffffffffffff166323b872dd33858a73__MarketLib_____________________________63174e20e69091876040518363ffffffff1660e01b8152600401613b5792919061504a565b602060405180830381865af4158015613b74573d6000803e3d6000fd5b505050506040513d601f19601f82011682018060405250810190613b989190614ac3565b6040518463ffffffff1660e01b8152600401613bb693929190615311565b6020604051808303816000875af1158015613bd5573d6000803e3d6000fd5b505050506040513d601f19601f82011682018060405250810190613bf99190615278565b613c38576040517f08c379a0000000000000000000000000000000000000000000000000000000008152600401613c2f906156bc565b60405180910390fd5b5b60008373ffffffffffffffffffffffffffffffffffffffff166305268cff6040518163ffffffff1660e01b8152600401602060405180830381865afa158015613c86573d6000803e3d6000fd5b505050506040513d601f19601f82011682018060405250810190613caa919061500e565b73ffffffffffffffffffffffffffffffffffffffff16636cce89168573ffffffffffffffffffffffffffffffffffffffff16636f307dc36040518163ffffffff1660e01b8152600401602060405180830381865afa158015613d10573d6000803e3d6000fd5b505050506040513d601f19601f82011682018060405250810190613d349190614b2e565b8c6040518363ffffffff1660e01b8152600401613d5292919061512c565b602060405180830381865afa158015613d6f573d6000803e3d6000fd5b505050506040513d601f19601f82011682018060405250810190613d9391906151ca565b905060008173ffffffffffffffffffffffffffffffffffffffff1663b3e1f0508b896040518363ffffffff1660e01b8152600401613dd29291906153b4565b6040805180830381865afa158015613dee573d6000803e3d6000fd5b505050506040513d601f19601f82011682018060405250810190613e1291906153dd565b5090508473ffffffffffffffffffffffffffffffffffffffff16633e60e348838c73__MarketLib_____________________________63174e20e69091886040518363ffffffff1660e01b8152600401613e6d92919061504a565b602060405180830381865af4158015613e8a573d6000803e3d6000fd5b505050506040513d601f19601f82011682018060405250810190613eae9190614ac3565b6040518363ffffffff1660e01b8152600401613ecb92919061512c565b600060405180830381600087803b158015613ee557600080fd5b505af1158015613ef9573d6000803e3d6000fd5b505050508173ffffffffffffffffffffffffffffffffffffffff166340c10f1933836040518363ffffffff1660e01b8152600401613f3892919061512c565b600060405180830381600087803b158015613f5257600080fd5b505af1158015613f66573d6000803e3d6000fd5b5050505050505b5b5b5050505050505050505050565b6000818310613f8b5781613f8d565b825b905092915050565b600033905090565b60008060009054906101000a900473ffffffffffffffffffffffffffffffffffffffff169050816000806101000a81548173ffffffffffffffffffffffffffffffffffffffff021916908373ffffffffffffffffffffffffffffffffffffffff1602179055508173ffffffffffffffffffffffffffffffffffffffff168173ffffffffffffffffffffffffffffffffffffffff167f8be0079c531659141344cd1fd0a4f28419497f9722a3daafe3b4186f6b6457e060405160405180910390a35050565b6000604051905090565b600080fd5b600073ffffffffffffffffffffffffffffffffffffffff82169050919050565b600061409b82614070565b9050919050565b60006140ad82614090565b9050919050565b6140bd816140a2565b81146140c857600080fd5b50565b6000813590506140da816140b4565b92915050565b6000602082840312156140f6576140f561406b565b5b6000614104848285016140cb565b91505092915050565b6000819050919050565b600061413261412d61412884614070565b61410d565b614070565b9050919050565b600061414482614117565b9050919050565b600061415682614139565b9050919050565b6141668161414b565b82525050565b6000602082019050614181600083018461415d565b92915050565b6000819050919050565b61419a81614187565b81146141a557600080fd5b50565b6000813590506141b781614191565b92915050565b600281106141ca57600080fd5b50565b6000813590506141dc816141bd565b92915050565b600281106141ef57600080fd5b50565b600081359050614201816141e2565b92915050565b6003811061421457600080fd5b50565b60008135905061422681614207565b92915050565b600080600080600080600060e0888a03121561424b5761424a61406b565b5b60006142598a828b016140cb565b975050602061426a8a828b016141a8565b965050604061427b8a828b016141a8565b955050606061428c8a828b016141a8565b945050608061429d8a828b016141cd565b93505060a06142ae8a828b016141f2565b92505060c06142bf8a828b01614217565b91505092959891949750929550565b6142d781614090565b81146142e257600080fd5b50565b6000813590506142f4816142ce565b92915050565b600080604083850312156143115761431061406b565b5b600061431f858286016141a8565b9250506020614330858286016142e5565b9150509250929050565b600080604083850312156143515761435061406b565b5b600061435f858286016140cb565b9250506020614370858286016141a8565b9150509250929050565b600061438582614139565b9050919050565b6143958161437a565b82525050565b60006020820190506143b0600083018461438c565b92915050565b600080600080608085870312156143d0576143cf61406b565b5b60006143de878288016140cb565b94505060206143ef878288016141a8565b9350506040614400878288016141a8565b9250506060614411878288016141f2565b91505092959194509250565b61442681614090565b82525050565b6000602082019050614441600083018461441d565b92915050565b60008115159050919050565b61445c81614447565b811461446757600080fd5b50565b60008135905061447981614453565b92915050565b600080600080600080600060e0888a03121561449e5761449d61406b565b5b60006144ac8a828b016140cb565b97505060206144bd8a828b016141a8565b96505060406144ce8a828b016141a8565b95505060606144df8a828b016141a8565b94505060806144f08a828b016141cd565b93505060a06145018a828b016141f2565b92505060c06145128a828b0161446a565b91505092959891949750929550565b61452a81614187565b82525050565b60006080820190506145456000830187614521565b6145526020830186614521565b61455f6040830185614521565b61456c6060830184614521565b95945050505050565b60006020828403121561458b5761458a61406b565b5b6000614599848285016142e5565b91505092915050565b60006145ad82614139565b9050919050565b6145bd816145a2565b82525050565b60006020820190506145d860008301846145b4565b92915050565b60006145e982614090565b9050919050565b6145f9816145de565b811461460457600080fd5b50565b600081519050614616816145f0565b92915050565b6000602082840312156146325761463161406b565b5b600061464084828501614607565b91505092915050565b600061465482614090565b9050919050565b61466481614649565b811461466f57600080fd5b50565b6000815190506146818161465b565b92915050565b60006020828403121561469d5761469c61406b565b5b60006146ab84828501614672565b91505092915050565b7f4e487b7100000000000000000000000000000000000000000000000000000000600052602160045260246000fd5b600281106146f4576146f36146b4565b5b50565b6000819050614705826146e3565b919050565b6000614715826146f7565b9050919050565b6147258161470a565b82525050565b6002811061473c5761473b6146b4565b5b50565b600081905061474d8261472b565b919050565b600061475d8261473f565b9050919050565b61476d81614752565b82525050565b60048110614784576147836146b4565b5b50565b600081905061479582614773565b919050565b60006147a582614787565b9050919050565b6147b58161479a565b82525050565b6147c481614090565b82525050565b6147d381614187565b82525050565b610220820160008201516147f0600085018261471c565b5060208201516148036020850182614764565b50604082015161481660408501826147ac565b50606082015161482960608501826147bb565b50608082015161483c60808501826147ca565b5060a082015161484f60a08501826147ca565b5060c082015161486260c08501826147ca565b5060e082015161487560e08501826147ca565b5061010082015161488a6101008501826147ca565b5061012082015161489f6101208501826147ca565b506101408201516148b46101408501826147ca565b506101608201516148c96101608501826147ca565b506101808201516148de6101808501826147ca565b506101a08201516148f36101a08501826147ca565b506101c08201516149086101c08501826147ca565b506101e082015161491d6101e08501826147ca565b506102008201516149326102008501826147bb565b50505050565b61494181614447565b82525050565b60006102408201905061495d60008301856147d9565b61496b610220830184614938565b9392505050565b60008151905061498181614191565b92915050565b600080600080608085870312156149a1576149a061406b565b5b60006149af87828801614972565b94505060206149c087828801614972565b93505060406149d187828801614972565b92505060606149e287828801614972565b91505092959194509250565b600082825260208201905092915050565b7f77726f6e67207072656d69756d00000000000000000000000000000000000000600082015250565b6000614a35600d836149ee565b9150614a40826149ff565b602082019050919050565b60006020820190508181036000830152614a6481614a28565b9050919050565b60006102a082019050614a8160008301886147d9565b614a8f610220830187614521565b614a9d610240830186614521565b614aab610260830185614521565b614ab9610280830184614521565b9695505050505050565b600060208284031215614ad957614ad861406b565b5b6000614ae784828501614972565b91505092915050565b6000604082019050614b056000830185614521565b614b12602083018461441d565b9392505050565b600081519050614b28816142ce565b92915050565b600060208284031215614b4457614b4361406b565b5b6000614b5284828501614b19565b91505092915050565b6000602082019050614b706000830184614521565b92915050565b600080fd5b6000601f19601f8301169050919050565b7f4e487b7100000000000000000000000000000000000000000000000000000000600052604160045260246000fd5b614bc482614b7b565b810181811067ffffffffffffffff82111715614be357614be2614b8c565b5b80604052505050565b6000614bf6614061565b9050614c028282614bbb565b919050565b600081519050614c16816141bd565b92915050565b600081519050614c2b816141e2565b92915050565b60048110614c3e57600080fd5b50565b600081519050614c5081614c31565b92915050565b60006102208284031215614c6d57614c6c614b76565b5b614c78610220614bec565b90506000614c8884828501614c07565b6000830152506020614c9c84828501614c1c565b6020830152506040614cb084828501614c41565b6040830152506060614cc484828501614b19565b6060830152506080614cd884828501614972565b60808301525060a0614cec84828501614972565b60a08301525060c0614d0084828501614972565b60c08301525060e0614d1484828501614972565b60e083015250610100614d2984828501614972565b61010083015250610120614d3f84828501614972565b61012083015250610140614d5584828501614972565b61014083015250610160614d6b84828501614972565b61016083015250610180614d8184828501614972565b610180830152506101a0614d9784828501614972565b6101a0830152506101c0614dad84828501614972565b6101c0830152506101e0614dc384828501614972565b6101e083015250610200614dd984828501614b19565b6102008301525092915050565b60006102208284031215614dfd57614dfc61406b565b5b6000614e0b84828501614c56565b91505092915050565b600061022082019050614e2a60008301846147d9565b92915050565b600081519050614e3f816140b4565b92915050565b60008060008060808587031215614e5f57614e5e61406b565b5b6000614e6d87828801614c41565b9450506020614e7e87828801614c1c565b9350506040614e8f87828801614b19565b9250506060614ea087828801614e30565b91505092959194509250565b600080600060608486031215614ec557614ec461406b565b5b6000614ed386828701614972565b9350506020614ee486828701614972565b9250506040614ef586828701614972565b9150509250925092565b6000614f0a82614090565b9050919050565b614f1a81614eff565b8114614f2557600080fd5b50565b600081519050614f3781614f11565b92915050565b600060208284031215614f5357614f5261406b565b5b6000614f6184828501614f28565b91505092915050565b600060ff82169050919050565b614f8081614f6a565b8114614f8b57600080fd5b50565b600081519050614f9d81614f77565b92915050565b600060208284031215614fb957614fb861406b565b5b6000614fc784828501614f8e565b91505092915050565b6000614fdb82614090565b9050919050565b614feb81614fd0565b8114614ff657600080fd5b50565b60008151905061500881614fe2565b92915050565b6000602082840312156150245761502361406b565b5b600061503284828501614ff9565b91505092915050565b61504481614187565b82525050565b600060408201905061505f600083018561503b565b61506c602083018461503b565b9392505050565b7f4e487b7100000000000000000000000000000000000000000000000000000000600052601160045260246000fd5b60006150ad82614187565b91506150b883614187565b9250827fffffffffffffffffffffffffffffffffffffffffffffffffffffffffffffffff038211156150ed576150ec615073565b5b828201905092915050565b600061510382614187565b915061510e83614187565b92508282101561512157615120615073565b5b828203905092915050565b6000604082019050615141600083018561441d565b61514e6020830184614521565b9392505050565b600060608201905061516a600083018661441d565b6151776020830185614521565b6151846040830184614521565b949350505050565b600061519782614090565b9050919050565b6151a78161518c565b81146151b257600080fd5b50565b6000815190506151c48161519e565b92915050565b6000602082840312156151e0576151df61406b565b5b60006151ee848285016151b5565b91505092915050565b7f4f776e61626c653a2063616c6c6572206973206e6f7420746865206f776e6572600082015250565b600061522d6020836149ee565b9150615238826151f7565b602082019050919050565b6000602082019050818103600083015261525c81615220565b9050919050565b60008151905061527281614453565b92915050565b60006020828403121561528e5761528d61406b565b5b600061529c84828501615263565b91505092915050565b7f2d56500000000000000000000000000000000000000000000000000000000000600082015250565b60006152db6003836149ee565b91506152e6826152a5565b602082019050919050565b6000602082019050818103600083015261530a816152ce565b9050919050565b6000606082019050615326600083018661441d565b615333602083018561441d565b6153406040830184614521565b949350505050565b7f2d56420000000000000000000000000000000000000000000000000000000000600082015250565b600061537e6003836149ee565b915061538982615348565b602082019050919050565b600060208201905081810360008301526153ad81615371565b9050919050565b60006040820190506153c96000830185614521565b6153d66020830184614521565b9392505050565b600080604083850312156153f4576153f361406b565b5b600061540285828601614972565b925050602061541385828601614972565b9150509250929050565b60006060820190506154326000830186614521565b61543f6020830185614521565b61544c6040830184614938565b949350505050565b600061545f82614139565b9050919050565b61546f81615454565b82525050565b600060608201905061548a6000830186615466565b6154976020830185614938565b6154a46040830184614938565b949350505050565b60006154c76154c26154bd84614f6a565b61410d565b614187565b9050919050565b6154d7816154ac565b82525050565b60006040820190506154f2600083018561503b565b6154ff60208301846154ce565b9392505050565b7f4f776e61626c653a206e6577206f776e657220697320746865207a65726f206160008201527f6464726573730000000000000000000000000000000000000000000000000000602082015250565b60006155626026836149ee565b915061556d82615506565b604082019050919050565b6000602082019050818103600083015261559181615555565b9050919050565b7f2d504d0000000000000000000000000000000000000000000000000000000000600082015250565b60006155ce6003836149ee565b91506155d982615598565b602082019050919050565b600060208201905081810360008301526155fd816155c1565b9050919050565b7f6d56500000000000000000000000000000000000000000000000000000000000600082015250565b600061563a6003836149ee565b915061564582615604565b602082019050919050565b600060208201905081810360008301526156698161562d565b9050919050565b7f2d434d0000000000000000000000000000000000000000000000000000000000600082015250565b60006156a66003836149ee565b91506156b182615670565b602082019050919050565b600060208201905081810360008301526156d581615699565b905091905056fea2646970667358221220a2c163c4928da41f01f6b7e1686876e16444411bcb98f8bc88e01801a44a4e4664736f6c634300080f0033",
  "immutableReferences": {
    "8305": [
      {
        "length": 32,
        "start": 1036
      },
      {
        "length": 32,
        "start": 1389
      },
      {
        "length": 32,
        "start": 1555
      },
      {
        "length": 32,
        "start": 1995
      },
      {
        "length": 32,
        "start": 2192
      },
      {
        "length": 32,
        "start": 2398
      },
      {
        "length": 32,
        "start": 2540
      },
      {
        "length": 32,
        "start": 6899
      },
      {
        "length": 32,
        "start": 8334
      },
      {
        "length": 32,
        "start": 9639
      },
      {
        "length": 32,
        "start": 9820
      },
      {
        "length": 32,
        "start": 11178
      }
    ]
  },
  "source": "// SPDX-License-Identifier: MIT\npragma solidity ^0.8.4;\n\nimport \"@openzeppelin/contracts/token/ERC20/ERC20.sol\";\nimport \"@openzeppelin/contracts/access/Ownable.sol\";\nimport \"@openzeppelin/contracts/utils/math/SafeMath.sol\";\nimport \"./interfaces/EOption.sol\";\nimport \"./libraries/MathLib.sol\";\nimport \"./libraries/MarketLib.sol\";\nimport \"./libraries/OptionLib.sol\";\nimport \"./governance/Moret.sol\";\nimport \"./pools/Pool.sol\";\nimport \"./pools/MarketMaker.sol\";\nimport \"./OptionVault.sol\";\nimport \"./VolatilityToken.sol\";\n\ncontract Exchange is Ownable, EOption{\n  using MarketLib for uint256;\n  using MathLib for uint256;\n  using SafeMath for uint256;\n\n  event NewOption(address indexed _purchaser, address indexed _underlying, OptionLib.Option _option);\n\n  // immutable addresses\n  OptionVault public immutable vault;\n\n  // contructor. Arguments: pool tokens, volatility oracle, option vault and bot address\n  constructor(OptionVault _optionVault){\n    vault = _optionVault;}\n  \n  function queryOption(Pool _pool, uint256 _tenor, uint256 _strike, uint256 _amount, OptionLib.PayoffType _poType, OptionLib.OptionSide _side, bool _forceATM) external view returns(uint256 _premium, uint256 _collateral, uint256 _price, uint256 _volatility){\n    OptionLib.Option memory _option = OptionLib.Option(_poType, _side, OptionLib.OptionStatus.Draft, msg.sender, 0, block.timestamp,  0, _tenor, 0,  0, _amount, 0, _strike, 0, 0, 0, address(_pool));\n    return vault.calcOptionCost(_option, _forceATM);}\n\n  // functions to transact for option contracts\n  // arguments: pool token address, tenor in seconds, strike in 18 decimals, amount in 18 decimals, payoff type (call 0 or put 1), option side (buy 0 or sell 1)\n  function tradeOption(Pool _pool, uint256 _tenor, uint256 _strike, uint256 _amount, OptionLib.PayoffType _poType, OptionLib.OptionSide _side, OptionLib.PaymentMethod _payment) external {\n    OptionLib.Option memory _option = OptionLib.Option(_poType, _side, OptionLib.OptionStatus.Draft, msg.sender, 0, block.timestamp,  0, _tenor, 0,  0, _amount, 0, _strike, 0, 0, 0, address(_pool));\n    (uint256 _premium, uint256 _collateral, uint256 _price, uint256 _vol) = vault.calcOptionCost(_option, false);\n\n    require(_collateral > _premium,\"wrong premium\");\n\n    // transfer premiums\n    if(_side == OptionLib.OptionSide.Buy){\n      buyOption(_pool, msg.sender, _tenor, _premium, _price, _vol, _payment);\n    }\n    if(_side == OptionLib.OptionSide.Sell){\n      sellOption(_pool, msg.sender, _tenor, _premium, _collateral, _price, _vol, _payment);\n    }\n\n    uint256 _id = vault.addOption(_option, _premium, _collateral, _price, _vol);\n    vault.stampActiveOption(_id, msg.sender);\n\n    emit NewOption(msg.sender, _pool.marketMaker().underlying(), vault.getOption(_id));}\n\n  function buyOption(Pool _pool, address _buyer, uint256 _tenor, uint256 _premium, uint256 _price, uint256 _vol, OptionLib.PaymentMethod _payment) internal {\n    MarketMaker _marketMaker = _pool.marketMaker();\n    ERC20 _funding = _marketMaker.funding();\n    uint256 _fundingDecimals = _funding.decimals();\n    address _underlyingAddress = _marketMaker.underlying();\n    if(_payment == OptionLib.PaymentMethod.USDC){\n        require(_funding.transferFrom(_buyer, address(_marketMaker), _premium.toDecimals(_fundingDecimals)), '-PM');}\n      else if (_payment == OptionLib.PaymentMethod.Token){\n        ERC20 _underlying = ERC20(_underlyingAddress);\n        uint256 _decimals = _underlying.decimals();\n        require(_underlying.transferFrom(_buyer, address(_marketMaker), _premium.ethdiv(_price).toDecimals(_decimals)), '-PM');}\n      else if (_payment == OptionLib.PaymentMethod.Vol){\n        VolatilityToken _vToken = _marketMaker.govToken().getVolatilityToken(_underlyingAddress, _tenor);\n        (uint256 _volAmount, uint256 _volPrice) = _vToken.getBurnAmount(_premium, _vol);\n        require(_volPrice > _pool.minVolPrice(), 'mVP');\n        _vToken.burn(msg.sender, _volAmount);\n        _vToken.pay(address(_marketMaker), _premium.toDecimals(_fundingDecimals));}}\n\n  function sellOption(Pool _pool, address _buyer, uint256 _tenor, uint256 _premium, uint256 _collateral, uint256 _price, uint256 _vol, OptionLib.PaymentMethod _payment) internal {\n    MarketMaker _marketMaker = _pool.marketMaker();\n    ERC20 _funding = _marketMaker.funding();\n    uint256 _fundingDecimals = _funding.decimals();\n    \n    if(_payment == OptionLib.PaymentMethod.USDC){\n      require(_funding.transferFrom(_buyer, address(_marketMaker), (_collateral - _premium).toDecimals(_fundingDecimals)), '-PM');}\n    else if (_payment == OptionLib.PaymentMethod.Token){\n      ERC20 _underlying = ERC20(_marketMaker.underlying());\n      uint256 _decimals = _underlying.decimals();\n      require(_underlying.transferFrom(_buyer, address(_marketMaker), (_collateral - _premium).ethdiv(_price).toDecimals(_decimals)), '-PM');}\n    else if (_payment == OptionLib.PaymentMethod.Vol){\n      if(_collateral > 0){\n        require(_funding.transferFrom(msg.sender, address(_marketMaker), _collateral.toDecimals(_fundingDecimals)), '-CM'); }\n      VolatilityToken _vToken = _marketMaker.govToken().getVolatilityToken(_marketMaker.underlying(), _tenor);\n      (uint256 _volAmount, ) = _vToken.getMintAmount(_premium, _vol);\n      _marketMaker.settlePayment(address(_vToken), _premium.toDecimals(_fundingDecimals)); \n      _vToken.mint(msg.sender, _volAmount);}}\n\n  // functions to transact volatility tokens (buy or sell)\n  // arguments: pool token address, tenor in seconds, strike in 18 decimals, amount in 18 decimals, payoff type (call 0 or put 1), option side (buy 0 or sell 1)\n  function tradeVolToken(Pool _pool, uint256 _tenor, uint256 _amount, OptionLib.OptionSide _side) external {\n    MarketMaker _marketMaker = _pool.marketMaker();\n    require(_marketMaker.govToken().existVolTradingPool(address(_pool)), '-VP'); // only certified pools can trade vol\n    VolatilityToken _vToken = _marketMaker.govToken().getVolatilityToken(_marketMaker.underlying(), _tenor);\n    OptionLib.Option memory _option = OptionLib.Option(OptionLib.PayoffType.Put, _side, OptionLib.OptionStatus.Draft, msg.sender, 0, block.timestamp,  0, _tenor, 0,  0, _amount, 0, 0, 0, 0, 0, address(_pool));\n\n    ERC20 _funding = _marketMaker.funding();\n    uint256 _fundingDecimals = _funding.decimals();\n    (uint256 _premium, , , uint256 _vol) = vault.calcOptionCost(_option, true); \n    \n    uint256 _volAmount;\n    if (_side == OptionLib.OptionSide.Buy){\n      require(_funding.transferFrom(msg.sender, address(_vToken), _premium.toDecimals(_fundingDecimals)), \"-VB\");\n      (_volAmount, ) = _vToken.getMintAmount(_premium, _vol);\n      _vToken.mint(msg.sender, _volAmount);}\n    else{\n      (_volAmount, ) = _vToken.getBurnAmount(_premium, _vol);\n      _vToken.burn(msg.sender, _volAmount);\n      _vToken.pay(msg.sender, _premium.toDecimals(_fundingDecimals));}\n    \n    emit TradeVolatility(msg.sender, address(_pool), _amount, _volAmount, _side == OptionLib.OptionSide.Buy);}\n\n  // get volatility token\n  function getVolatilityToken(Pool _pool, uint256 _tenor) external view returns(VolatilityToken){\n    MarketMaker _marketMaker = _pool.marketMaker();\n    return _marketMaker.govToken().getVolatilityToken(_marketMaker.underlying(), _tenor);\n  }\n\n  // get volatility chain\n  function getVolatilityChain(Pool _pool) external view returns(VolatilityChain){\n    MarketMaker _marketMaker = _pool.marketMaker();\n    return _marketMaker.getVolatilityChain();\n  }\n\n  // expire option contracts (one at a time), with exercise fees paid to the exercising bots.\n  function expireOption(uint256 _expiringId, address _exerciseFeeRecipient) external {\n    // uint256 _expiringId = vault.getExpiringOptionId();\n    (OptionLib.OptionStatus _optionStatus, OptionLib.OptionSide _optionSide, address _optionHolder, Pool _pool) = vault.getOptionInfo(_expiringId);\n\n    if(_optionStatus == OptionLib.OptionStatus.Active){\n      vault.stampExpiredOption(_expiringId);\n      (uint256 _payoff, uint256 _payback,) = vault.getContractPayoff(_expiringId);\n      \n      uint256 _fundingDecimals = _pool.marketMaker().funding().decimals();\n      uint256 _protocolAmount = _payoff.ethmul(_pool.marketMaker().govToken().protocolFee()).toDecimals(_fundingDecimals);\n      uint256 _exerciseAmount = _payoff.ethmul(_pool.exerciseFee()).toDecimals(_fundingDecimals);\n      _payback = _payback.toDecimals(_fundingDecimals);\n\n      if(_optionSide == OptionLib.OptionSide.Buy){\n        _payback = _payback - Math.min(_payback, _protocolAmount + _exerciseAmount);\n\n      MarketMaker _marketMaker = MarketMaker(_pool.marketMaker());\n      _marketMaker.settlePayment(_optionHolder, _payback);\n      _marketMaker.settlePayment(_pool.marketMaker().govToken().protocolFeeRecipient(), _protocolAmount);\n      _marketMaker.settlePayment(_exerciseFeeRecipient, _exerciseAmount);      \n      emit Expire(msg.sender, address(this), _optionHolder, _expiringId, _payback);}}}\n  \n  // add capital by depositing amount in funding tokens\n  function addCapital(Pool _pool, uint256 _depositAmount) external {\n    uint256 _averageGrossCapital = vault.calcCapital(_pool, false, true);\n    ERC20 _funding = _pool.marketMaker().funding();\n    uint256 _mintPoolAmount = _depositAmount.toWei(_funding.decimals()).ethdiv(_averageGrossCapital);\n    require(_funding.transferFrom(msg.sender, address(_pool.marketMaker()), _depositAmount));\n    _pool.mint(msg.sender, _mintPoolAmount);}\n\n  // remove capital by withdrawing amount in funding tokens\n  function withdrawCapital(Pool _pool, uint256 _burnPoolAmount) external {\n    uint256 _averageNetCapital = vault.calcCapital(_pool, true, true);\n    uint256 _withdrawValue = _averageNetCapital.ethmul(_burnPoolAmount).toDecimals(_pool.marketMaker().funding().decimals()); \n    _pool.burn(msg.sender, _burnPoolAmount);\n    _pool.marketMaker().settlePayment(msg.sender, _withdrawValue);}\n\n}\n",
  "sourcePath": "/Users/mac/Documents/GitHub/moret/contracts/Exchange.sol",
  "compiler": {
    "name": "solc",
    "version": "0.8.15+commit.e14f2714.Emscripten.clang"
  },
  "schemaVersion": "3.4.3",
  "updatedAt": "2022-06-20T20:01:35.038Z",
  "networkType": "ethereum",
  "devdoc": {
    "kind": "dev",
    "methods": {
      "owner()": {
        "details": "Returns the address of the current owner."
      },
      "renounceOwnership()": {
        "details": "Leaves the contract without owner. It will not be possible to call `onlyOwner` functions anymore. Can only be called by the current owner. NOTE: Renouncing ownership will leave the contract without an owner, thereby removing any functionality that is only available to the owner."
      },
      "transferOwnership(address)": {
        "details": "Transfers ownership of the contract to a new account (`newOwner`). Can only be called by the current owner."
      }
    },
    "version": 1
  },
  "userdoc": {
    "kind": "user",
    "methods": {},
    "version": 1
  }
}