{
  "contractName": "FixedIncomeAnnuity",
  "abi": [
    {
      "inputs": [
        {
          "internalType": "address",
          "name": "_pool",
          "type": "address"
        },
        {
          "internalType": "string",
          "name": "_name",
          "type": "string"
        },
        {
          "internalType": "string",
          "name": "_symbol",
          "type": "string"
        },
        {
          "components": [
            {
              "internalType": "uint256",
              "name": "callMoney",
              "type": "uint256"
            },
            {
              "internalType": "uint256",
              "name": "callTenor",
              "type": "uint256"
            },
            {
              "internalType": "uint256",
              "name": "putMoney",
              "type": "uint256"
            },
            {
              "internalType": "uint256",
              "name": "putTenor",
              "type": "uint256"
            },
            {
              "internalType": "uint256",
              "name": "putSpread",
              "type": "uint256"
            },
            {
              "internalType": "uint256",
              "name": "tradeWindow",
              "type": "uint256"
            },
            {
              "internalType": "uint256",
              "name": "leverage",
              "type": "uint256"
            },
            {
              "internalType": "uint256",
              "name": "multiplier",
              "type": "uint256"
            }
          ],
          "internalType": "struct FixedIncomeAnnuity.FIAParam",
          "name": "_params",
          "type": "tuple"
        },
        {
          "internalType": "address",
          "name": "_updateAddress",
          "type": "address"
        }
      ],
      "stateMutability": "nonpayable",
      "type": "constructor"
    },
    {
      "anonymous": false,
      "inputs": [
        {
          "indexed": true,
          "internalType": "address",
          "name": "owner",
          "type": "address"
        },
        {
          "indexed": true,
          "internalType": "address",
          "name": "spender",
          "type": "address"
        },
        {
          "indexed": false,
          "internalType": "uint256",
          "name": "value",
          "type": "uint256"
        }
      ],
      "name": "Approval",
      "type": "event"
    },
    {
      "anonymous": false,
      "inputs": [
        {
          "indexed": false,
          "internalType": "address",
          "name": "investor",
          "type": "address"
        },
        {
          "indexed": false,
          "internalType": "uint256",
          "name": "tokenUnit",
          "type": "uint256"
        },
        {
          "indexed": false,
          "internalType": "uint256",
          "name": "divestAmount",
          "type": "uint256"
        }
      ],
      "name": "FIPDivest",
      "type": "event"
    },
    {
      "anonymous": false,
      "inputs": [
        {
          "indexed": false,
          "internalType": "address",
          "name": "investor",
          "type": "address"
        },
        {
          "indexed": false,
          "internalType": "uint256",
          "name": "tokenUnit",
          "type": "uint256"
        },
        {
          "indexed": false,
          "internalType": "uint256",
          "name": "investAmount",
          "type": "uint256"
        }
      ],
      "name": "FIPInvest",
      "type": "event"
    },
    {
      "anonymous": false,
      "inputs": [
        {
          "indexed": false,
          "internalType": "uint256",
          "name": "time",
          "type": "uint256"
        },
        {
          "indexed": false,
          "internalType": "uint256",
          "name": "rebTime",
          "type": "uint256"
        },
        {
          "indexed": false,
          "internalType": "bool",
          "name": "isRoll",
          "type": "bool"
        }
      ],
      "name": "FIPRoll",
      "type": "event"
    },
    {
      "anonymous": false,
      "inputs": [
        {
          "indexed": true,
          "internalType": "bytes32",
          "name": "role",
          "type": "bytes32"
        },
        {
          "indexed": true,
          "internalType": "bytes32",
          "name": "previousAdminRole",
          "type": "bytes32"
        },
        {
          "indexed": true,
          "internalType": "bytes32",
          "name": "newAdminRole",
          "type": "bytes32"
        }
      ],
      "name": "RoleAdminChanged",
      "type": "event"
    },
    {
      "anonymous": false,
      "inputs": [
        {
          "indexed": true,
          "internalType": "bytes32",
          "name": "role",
          "type": "bytes32"
        },
        {
          "indexed": true,
          "internalType": "address",
          "name": "account",
          "type": "address"
        },
        {
          "indexed": true,
          "internalType": "address",
          "name": "sender",
          "type": "address"
        }
      ],
      "name": "RoleGranted",
      "type": "event"
    },
    {
      "anonymous": false,
      "inputs": [
        {
          "indexed": true,
          "internalType": "bytes32",
          "name": "role",
          "type": "bytes32"
        },
        {
          "indexed": true,
          "internalType": "address",
          "name": "account",
          "type": "address"
        },
        {
          "indexed": true,
          "internalType": "address",
          "name": "sender",
          "type": "address"
        }
      ],
      "name": "RoleRevoked",
      "type": "event"
    },
    {
      "anonymous": false,
      "inputs": [
        {
          "indexed": true,
          "internalType": "address",
          "name": "from",
          "type": "address"
        },
        {
          "indexed": true,
          "internalType": "address",
          "name": "to",
          "type": "address"
        },
        {
          "indexed": false,
          "internalType": "uint256",
          "name": "value",
          "type": "uint256"
        }
      ],
      "name": "Transfer",
      "type": "event"
    },
    {
      "inputs": [],
      "name": "ADMIN_ROLE",
      "outputs": [
        {
          "internalType": "bytes32",
          "name": "",
          "type": "bytes32"
        }
      ],
      "stateMutability": "view",
      "type": "function"
    },
    {
      "inputs": [],
      "name": "DEFAULT_ADMIN_ROLE",
      "outputs": [
        {
          "internalType": "bytes32",
          "name": "",
          "type": "bytes32"
        }
      ],
      "stateMutability": "view",
      "type": "function"
    },
    {
      "inputs": [],
      "name": "UPDATE_ROLE",
      "outputs": [
        {
          "internalType": "bytes32",
          "name": "",
          "type": "bytes32"
        }
      ],
      "stateMutability": "view",
      "type": "function"
    },
    {
      "inputs": [
        {
          "internalType": "address",
          "name": "owner",
          "type": "address"
        },
        {
          "internalType": "address",
          "name": "spender",
          "type": "address"
        }
      ],
      "name": "allowance",
      "outputs": [
        {
          "internalType": "uint256",
          "name": "",
          "type": "uint256"
        }
      ],
      "stateMutability": "view",
      "type": "function"
    },
    {
      "inputs": [
        {
          "internalType": "address",
          "name": "spender",
          "type": "address"
        },
        {
          "internalType": "uint256",
          "name": "amount",
          "type": "uint256"
        }
      ],
      "name": "approve",
      "outputs": [
        {
          "internalType": "bool",
          "name": "",
          "type": "bool"
        }
      ],
      "stateMutability": "nonpayable",
      "type": "function"
    },
    {
      "inputs": [
        {
          "internalType": "address",
          "name": "account",
          "type": "address"
        }
      ],
      "name": "balanceOf",
      "outputs": [
        {
          "internalType": "uint256",
          "name": "",
          "type": "uint256"
        }
      ],
      "stateMutability": "view",
      "type": "function"
    },
    {
      "inputs": [],
      "name": "decimals",
      "outputs": [
        {
          "internalType": "uint8",
          "name": "",
          "type": "uint8"
        }
      ],
      "stateMutability": "view",
      "type": "function"
    },
    {
      "inputs": [
        {
          "internalType": "address",
          "name": "spender",
          "type": "address"
        },
        {
          "internalType": "uint256",
          "name": "subtractedValue",
          "type": "uint256"
        }
      ],
      "name": "decreaseAllowance",
      "outputs": [
        {
          "internalType": "bool",
          "name": "",
          "type": "bool"
        }
      ],
      "stateMutability": "nonpayable",
      "type": "function"
    },
    {
      "inputs": [],
      "name": "exchange",
      "outputs": [
        {
          "internalType": "contract Exchange",
          "name": "",
          "type": "address"
        }
      ],
      "stateMutability": "view",
      "type": "function"
    },
    {
      "inputs": [],
      "name": "fiaParams",
      "outputs": [
        {
          "internalType": "uint256",
          "name": "callMoney",
          "type": "uint256"
        },
        {
          "internalType": "uint256",
          "name": "callTenor",
          "type": "uint256"
        },
        {
          "internalType": "uint256",
          "name": "putMoney",
          "type": "uint256"
        },
        {
          "internalType": "uint256",
          "name": "putTenor",
          "type": "uint256"
        },
        {
          "internalType": "uint256",
          "name": "putSpread",
          "type": "uint256"
        },
        {
          "internalType": "uint256",
          "name": "tradeWindow",
          "type": "uint256"
        },
        {
          "internalType": "uint256",
          "name": "leverage",
          "type": "uint256"
        },
        {
          "internalType": "uint256",
          "name": "multiplier",
          "type": "uint256"
        }
      ],
      "stateMutability": "view",
      "type": "function"
    },
    {
      "inputs": [],
      "name": "funding",
      "outputs": [
        {
          "internalType": "contract ERC20",
          "name": "",
          "type": "address"
        }
      ],
      "stateMutability": "view",
      "type": "function"
    },
    {
      "inputs": [],
      "name": "fundingMultiplier",
      "outputs": [
        {
          "internalType": "uint256",
          "name": "",
          "type": "uint256"
        }
      ],
      "stateMutability": "view",
      "type": "function"
    },
    {
      "inputs": [
        {
          "internalType": "bytes32",
          "name": "role",
          "type": "bytes32"
        }
      ],
      "name": "getRoleAdmin",
      "outputs": [
        {
          "internalType": "bytes32",
          "name": "",
          "type": "bytes32"
        }
      ],
      "stateMutability": "view",
      "type": "function"
    },
    {
      "inputs": [
        {
          "internalType": "bytes32",
          "name": "role",
          "type": "bytes32"
        },
        {
          "internalType": "address",
          "name": "account",
          "type": "address"
        }
      ],
      "name": "grantRole",
      "outputs": [],
      "stateMutability": "nonpayable",
      "type": "function"
    },
    {
      "inputs": [
        {
          "internalType": "bytes32",
          "name": "role",
          "type": "bytes32"
        },
        {
          "internalType": "address",
          "name": "account",
          "type": "address"
        }
      ],
      "name": "hasRole",
      "outputs": [
        {
          "internalType": "bool",
          "name": "",
          "type": "bool"
        }
      ],
      "stateMutability": "view",
      "type": "function"
    },
    {
      "inputs": [
        {
          "internalType": "address",
          "name": "spender",
          "type": "address"
        },
        {
          "internalType": "uint256",
          "name": "addedValue",
          "type": "uint256"
        }
      ],
      "name": "increaseAllowance",
      "outputs": [
        {
          "internalType": "bool",
          "name": "",
          "type": "bool"
        }
      ],
      "stateMutability": "nonpayable",
      "type": "function"
    },
    {
      "inputs": [],
      "name": "name",
      "outputs": [
        {
          "internalType": "string",
          "name": "",
          "type": "string"
        }
      ],
      "stateMutability": "view",
      "type": "function"
    },
    {
      "inputs": [],
      "name": "nextRebTime",
      "outputs": [
        {
          "internalType": "uint256",
          "name": "",
          "type": "uint256"
        }
      ],
      "stateMutability": "view",
      "type": "function"
    },
    {
      "inputs": [],
      "name": "nextVintageTime",
      "outputs": [
        {
          "internalType": "uint256",
          "name": "",
          "type": "uint256"
        }
      ],
      "stateMutability": "view",
      "type": "function"
    },
    {
      "inputs": [],
      "name": "oracle",
      "outputs": [
        {
          "internalType": "contract VolatilityChain",
          "name": "",
          "type": "address"
        }
      ],
      "stateMutability": "view",
      "type": "function"
    },
    {
      "inputs": [],
      "name": "pool",
      "outputs": [
        {
          "internalType": "contract Pool",
          "name": "",
          "type": "address"
        }
      ],
      "stateMutability": "view",
      "type": "function"
    },
    {
      "inputs": [
        {
          "internalType": "bytes32",
          "name": "role",
          "type": "bytes32"
        },
        {
          "internalType": "address",
          "name": "account",
          "type": "address"
        }
      ],
      "name": "renounceRole",
      "outputs": [],
      "stateMutability": "nonpayable",
      "type": "function"
    },
    {
      "inputs": [
        {
          "internalType": "bytes32",
          "name": "role",
          "type": "bytes32"
        },
        {
          "internalType": "address",
          "name": "account",
          "type": "address"
        }
      ],
      "name": "revokeRole",
      "outputs": [],
      "stateMutability": "nonpayable",
      "type": "function"
    },
    {
      "inputs": [
        {
          "internalType": "bytes4",
          "name": "interfaceId",
          "type": "bytes4"
        }
      ],
      "name": "supportsInterface",
      "outputs": [
        {
          "internalType": "bool",
          "name": "",
          "type": "bool"
        }
      ],
      "stateMutability": "view",
      "type": "function"
    },
    {
      "inputs": [],
      "name": "symbol",
      "outputs": [
        {
          "internalType": "string",
          "name": "",
          "type": "string"
        }
      ],
      "stateMutability": "view",
      "type": "function"
    },
    {
      "inputs": [],
      "name": "totalSupply",
      "outputs": [
        {
          "internalType": "uint256",
          "name": "",
          "type": "uint256"
        }
      ],
      "stateMutability": "view",
      "type": "function"
    },
    {
      "inputs": [
        {
          "internalType": "address",
          "name": "to",
          "type": "address"
        },
        {
          "internalType": "uint256",
          "name": "amount",
          "type": "uint256"
        }
      ],
      "name": "transfer",
      "outputs": [
        {
          "internalType": "bool",
          "name": "",
          "type": "bool"
        }
      ],
      "stateMutability": "nonpayable",
      "type": "function"
    },
    {
      "inputs": [
        {
          "internalType": "address",
          "name": "from",
          "type": "address"
        },
        {
          "internalType": "address",
          "name": "to",
          "type": "address"
        },
        {
          "internalType": "uint256",
          "name": "amount",
          "type": "uint256"
        }
      ],
      "name": "transferFrom",
      "outputs": [
        {
          "internalType": "bool",
          "name": "",
          "type": "bool"
        }
      ],
      "stateMutability": "nonpayable",
      "type": "function"
    },
    {
      "inputs": [],
      "name": "vintage",
      "outputs": [
        {
          "internalType": "uint256",
          "name": "optionAmount",
          "type": "uint256"
        },
        {
          "internalType": "uint256",
          "name": "callStrike",
          "type": "uint256"
        },
        {
          "internalType": "uint256",
          "name": "putStrike",
          "type": "uint256"
        },
        {
          "internalType": "uint256",
          "name": "putSpread",
          "type": "uint256"
        },
        {
          "internalType": "uint256",
          "name": "startLevel",
          "type": "uint256"
        },
        {
          "internalType": "uint256",
          "name": "startNAV",
          "type": "uint256"
        }
      ],
      "stateMutability": "view",
      "type": "function"
    },
    {
      "inputs": [
        {
          "components": [
            {
              "internalType": "uint256",
              "name": "callMoney",
              "type": "uint256"
            },
            {
              "internalType": "uint256",
              "name": "callTenor",
              "type": "uint256"
            },
            {
              "internalType": "uint256",
              "name": "putMoney",
              "type": "uint256"
            },
            {
              "internalType": "uint256",
              "name": "putTenor",
              "type": "uint256"
            },
            {
              "internalType": "uint256",
              "name": "putSpread",
              "type": "uint256"
            },
            {
              "internalType": "uint256",
              "name": "tradeWindow",
              "type": "uint256"
            },
            {
              "internalType": "uint256",
              "name": "leverage",
              "type": "uint256"
            },
            {
              "internalType": "uint256",
              "name": "multiplier",
              "type": "uint256"
            }
          ],
          "internalType": "struct FixedIncomeAnnuity.FIAParam",
          "name": "_params",
          "type": "tuple"
        }
      ],
      "name": "setParameters",
      "outputs": [],
      "stateMutability": "nonpayable",
      "type": "function"
    },
    {
      "inputs": [
        {
          "internalType": "uint256",
          "name": "_toInvest",
          "type": "uint256"
        }
      ],
      "name": "invest",
      "outputs": [],
      "stateMutability": "nonpayable",
      "type": "function"
    },
    {
      "inputs": [
        {
          "internalType": "uint256",
          "name": "_toDivest",
          "type": "uint256"
        }
      ],
      "name": "divest",
      "outputs": [],
      "stateMutability": "nonpayable",
      "type": "function"
    },
    {
      "inputs": [],
      "name": "getRollsUnitAsset",
      "outputs": [
        {
          "internalType": "uint256",
          "name": "unitAsset",
          "type": "uint256"
        }
      ],
      "stateMutability": "view",
      "type": "function"
    },
    {
      "inputs": [],
      "name": "rollover",
      "outputs": [],
      "stateMutability": "nonpayable",
      "type": "function"
    },
    {
      "inputs": [],
      "name": "rebalance",
      "outputs": [],
      "stateMutability": "nonpayable",
      "type": "function"
    }
  ],
  "bytecode": "0x6101006040523480156200001257600080fd5b5060405162006e7838038062006e78833981810160405281019062000038919062000b6a565b838381600490816200004b919062000e73565b5080600590816200005d919062000e73565b5050506001600681905550600073ffffffffffffffffffffffffffffffffffffffff168573ffffffffffffffffffffffffffffffffffffffff1603620000da576040517f08c379a0000000000000000000000000000000000000000000000000000000008152600401620000d19062000fbb565b60405180910390fd5b84600760006101000a81548173ffffffffffffffffffffffffffffffffffffffff021916908373ffffffffffffffffffffffffffffffffffffffff160217905550620001306000801b33620006da60201b60201c565b620001627fa49807205ce4d355092ef5a8a18f56e8913cf4a201fbe287825b095693c2177533620006da60201b60201c565b620001947f3ee192ac25847473237ced4bba57f848e1fd794930ff85b4282329058096720582620006da60201b60201c565b600760009054906101000a900473ffffffffffffffffffffffffffffffffffffffff1673ffffffffffffffffffffffffffffffffffffffff1663d2f7265a6040518163ffffffff1660e01b8152600401602060405180830381865afa15801562000202573d6000803e3d6000fd5b505050506040513d601f19601f8201168201806040525081019062000228919062000fdd565b73ffffffffffffffffffffffffffffffffffffffff1660a08173ffffffffffffffffffffffffffffffffffffffff16815250506000600760009054906101000a900473ffffffffffffffffffffffffffffffffffffffff1673ffffffffffffffffffffffffffffffffffffffff16631f21f9af6040518163ffffffff1660e01b8152600401602060405180830381865afa158015620002cb573d6000803e3d6000fd5b505050506040513d601f19601f82011682018060405250810190620002f1919062001054565b90508073ffffffffffffffffffffffffffffffffffffffff1663c0a16f6a6040518163ffffffff1660e01b8152600401602060405180830381865afa1580156200033f573d6000803e3d6000fd5b505050506040513d601f19601f82011682018060405250810190620003659190620010cb565b73ffffffffffffffffffffffffffffffffffffffff1660808173ffffffffffffffffffffffffffffffffffffffff16815250508073ffffffffffffffffffffffffffffffffffffffff1663cb4c86b76040518163ffffffff1660e01b8152600401602060405180830381865afa158015620003e4573d6000803e3d6000fd5b505050506040513d601f19601f820116820180604052508101906200040a919062000fdd565b73ffffffffffffffffffffffffffffffffffffffff1660c08173ffffffffffffffffffffffffffffffffffffffff168152505060c05173ffffffffffffffffffffffffffffffffffffffff16633950935160a0517fffffffffffffffffffffffffffffffffffffffffffffffffffffffffffffffff6040518363ffffffff1660e01b81526004016200049e92919062001151565b6020604051808303816000875af1158015620004be573d6000803e3d6000fd5b505050506040513d601f19601f82011682018060405250810190620004e49190620011bb565b50600060c05173ffffffffffffffffffffffffffffffffffffffff1663313ce5676040518163ffffffff1660e01b8152600401602060405180830381865afa15801562000535573d6000803e3d6000fd5b505050506040513d601f19601f820116820180604052508101906200055b91906200122b565b60ff16905080600a6200056f9190620013e0565b60e0818152505042601681905550426017819055508360e00151846000015110158015620005a557508360e00151846040015111155b8015620005b9575083604001518460800151105b620005fb576040517f08c379a0000000000000000000000000000000000000000000000000000000008152600401620005f29062001481565b60405180910390fd5b600084606001518560200151620006139190620014d2565b1480620006355750600084602001518560600151620006339190620014d2565b145b62000677576040517f08c379a00000000000000000000000000000000000000000000000000000000081526004016200066e906200155a565b60405180910390fd5b836008600082015181600001556020820151816001015560408201518160020155606082015181600301556080820151816004015560a0820151816005015560c0820151816006015560e08201518160070155905050505050505050506200157c565b620006ec8282620006f060201b60201c565b5050565b620007028282620007e160201b60201c565b620007dd57600160008084815260200190815260200160002060000160008373ffffffffffffffffffffffffffffffffffffffff1673ffffffffffffffffffffffffffffffffffffffff16815260200190815260200160002060006101000a81548160ff021916908315150217905550620007826200084b60201b60201c565b73ffffffffffffffffffffffffffffffffffffffff168173ffffffffffffffffffffffffffffffffffffffff16837f2f8788117e7eff1d82e926ec794901d17c78024a50270940304540a733656f0d60405160405180910390a45b5050565b600080600084815260200190815260200160002060000160008373ffffffffffffffffffffffffffffffffffffffff1673ffffffffffffffffffffffffffffffffffffffff16815260200190815260200160002060009054906101000a900460ff16905092915050565b600033905090565b6000604051905090565b600080fd5b600080fd5b600073ffffffffffffffffffffffffffffffffffffffff82169050919050565b6000620008948262000867565b9050919050565b620008a68162000887565b8114620008b257600080fd5b50565b600081519050620008c6816200089b565b92915050565b600080fd5b600080fd5b6000601f19601f8301169050919050565b7f4e487b7100000000000000000000000000000000000000000000000000000000600052604160045260246000fd5b6200092182620008d6565b810181811067ffffffffffffffff82111715620009435762000942620008e7565b5b80604052505050565b60006200095862000853565b905062000966828262000916565b919050565b600067ffffffffffffffff821115620009895762000988620008e7565b5b6200099482620008d6565b9050602081019050919050565b60005b83811015620009c1578082015181840152602081019050620009a4565b60008484015250505050565b6000620009e4620009de846200096b565b6200094c565b90508281526020810184848401111562000a035762000a02620008d1565b5b62000a10848285620009a1565b509392505050565b600082601f83011262000a305762000a2f620008cc565b5b815162000a42848260208601620009cd565b91505092915050565b600080fd5b6000819050919050565b62000a658162000a50565b811462000a7157600080fd5b50565b60008151905062000a858162000a5a565b92915050565b6000610100828403121562000aa55762000aa462000a4b565b5b62000ab26101006200094c565b9050600062000ac48482850162000a74565b600083015250602062000ada8482850162000a74565b602083015250604062000af08482850162000a74565b604083015250606062000b068482850162000a74565b606083015250608062000b1c8482850162000a74565b60808301525060a062000b328482850162000a74565b60a08301525060c062000b488482850162000a74565b60c08301525060e062000b5e8482850162000a74565b60e08301525092915050565b6000806000806000610180868803121562000b8a5762000b896200085d565b5b600062000b9a88828901620008b5565b955050602086015167ffffffffffffffff81111562000bbe5762000bbd62000862565b5b62000bcc8882890162000a18565b945050604086015167ffffffffffffffff81111562000bf05762000bef62000862565b5b62000bfe8882890162000a18565b935050606062000c118882890162000a8b565b92505061016062000c2588828901620008b5565b9150509295509295909350565b600081519050919050565b7f4e487b7100000000000000000000000000000000000000000000000000000000600052602260045260246000fd5b6000600282049050600182168062000c8557607f821691505b60208210810362000c9b5762000c9a62000c3d565b5b50919050565b60008190508160005260206000209050919050565b60006020601f8301049050919050565b600082821b905092915050565b60006008830262000d057fffffffffffffffffffffffffffffffffffffffffffffffffffffffffffffffff8262000cc6565b62000d11868362000cc6565b95508019841693508086168417925050509392505050565b6000819050919050565b600062000d5462000d4e62000d488462000a50565b62000d29565b62000a50565b9050919050565b6000819050919050565b62000d708362000d33565b62000d8862000d7f8262000d5b565b84845462000cd3565b825550505050565b600090565b62000d9f62000d90565b62000dac81848462000d65565b505050565b5b8181101562000dd45762000dc860008262000d95565b60018101905062000db2565b5050565b601f82111562000e235762000ded8162000ca1565b62000df88462000cb6565b8101602085101562000e08578190505b62000e2062000e178562000cb6565b83018262000db1565b50505b505050565b600082821c905092915050565b600062000e486000198460080262000e28565b1980831691505092915050565b600062000e63838362000e35565b9150826002028217905092915050565b62000e7e8262000c32565b67ffffffffffffffff81111562000e9a5762000e99620008e7565b5b62000ea6825462000c6c565b62000eb382828562000dd8565b600060209050601f83116001811462000eeb576000841562000ed6578287015190505b62000ee2858262000e55565b86555062000f52565b601f19841662000efb8662000ca1565b60005b8281101562000f255784890151825560018201915060208501945060208101905062000efe565b8683101562000f45578489015162000f41601f89168262000e35565b8355505b6001600288020188555050505b505050505050565b600082825260208201905092915050565b7f6e756c6c20706f6f6c2061646472657373000000000000000000000000000000600082015250565b600062000fa360118362000f5a565b915062000fb08262000f6b565b602082019050919050565b6000602082019050818103600083015262000fd68162000f94565b9050919050565b60006020828403121562000ff65762000ff56200085d565b5b60006200100684828501620008b5565b91505092915050565b60006200101c8262000887565b9050919050565b6200102e816200100f565b81146200103a57600080fd5b50565b6000815190506200104e8162001023565b92915050565b6000602082840312156200106d576200106c6200085d565b5b60006200107d848285016200103d565b91505092915050565b6000620010938262000887565b9050919050565b620010a58162001086565b8114620010b157600080fd5b50565b600081519050620010c5816200109a565b92915050565b600060208284031215620010e457620010e36200085d565b5b6000620010f484828501620010b4565b91505092915050565b620011088162000887565b82525050565b6000819050919050565b600062001139620011336200112d846200110e565b62000d29565b62000a50565b9050919050565b6200114b8162001118565b82525050565b6000604082019050620011686000830185620010fd565b62001177602083018462001140565b9392505050565b60008115159050919050565b62001195816200117e565b8114620011a157600080fd5b50565b600081519050620011b5816200118a565b92915050565b600060208284031215620011d457620011d36200085d565b5b6000620011e484828501620011a4565b91505092915050565b600060ff82169050919050565b6200120581620011ed565b81146200121157600080fd5b50565b6000815190506200122581620011fa565b92915050565b6000602082840312156200124457620012436200085d565b5b6000620012548482850162001214565b91505092915050565b7f4e487b7100000000000000000000000000000000000000000000000000000000600052601160045260246000fd5b60008160011c9050919050565b6000808291508390505b6001851115620012eb57808604811115620012c357620012c26200125d565b5b6001851615620012d35780820291505b8081029050620012e3856200128c565b9450620012a3565b94509492505050565b600082620013065760019050620013d9565b81620013165760009050620013d9565b81600181146200132f57600281146200133a5762001370565b6001915050620013d9565b60ff8411156200134f576200134e6200125d565b5b8360020a9150848211156200136957620013686200125d565b5b50620013d9565b5060208310610133831016604e8410600b8410161715620013aa5782820a905083811115620013a457620013a36200125d565b5b620013d9565b620013b9848484600162001299565b92509050818404811115620013d357620013d26200125d565b5b81810290505b9392505050565b6000620013ed8262000a50565b9150620013fa8362000a50565b9250620014297fffffffffffffffffffffffffffffffffffffffffffffffffffffffffffffffff8484620012f4565b905092915050565b7f57726f6e6720737472696b657300000000000000000000000000000000000000600082015250565b600062001469600d8362000f5a565b9150620014768262001431565b602082019050919050565b600060208201905081810360008301526200149c816200145a565b9050919050565b7f4e487b7100000000000000000000000000000000000000000000000000000000600052601260045260246000fd5b6000620014df8262000a50565b9150620014ec8362000a50565b925082620014ff57620014fe620014a3565b5b828206905092915050565b7f57726f6e672074656e6f72730000000000000000000000000000000000000000600082015250565b600062001542600c8362000f5a565b91506200154f826200150a565b602082019050919050565b60006020820190508181036000830152620015758162001533565b9050919050565b60805160a05160c05160e05161584462001634600039600081816108760152818161100b015281816117a60152611fdd0152600081816109c701528181610e70015281816116f001528181611b0e01528181611bf801528181611f2701526126ea015260008181610cf7015281816113db015281816114a3015281816118be01528181612298015281816124a60152818161257c015261270e015260008181611120015281816119c5015261206001526158446000f3fe608060405234801561001057600080fd5b50600436106102105760003560e01c806370a0823111610125578063a457c2d7116100ad578063d2f7265a1161007c578063d2f7265a14610615578063d547741f14610633578063d7043caa1461064f578063dd62ed3e1461066d578063e6dfa4b21461069d57610210565b8063a457c2d71461058d578063a9059cbb146105bd578063b056b49a146105ed578063cb4c86b7146105f757610210565b80638ca17995116100f45780638ca17995146104e25780638da61ee0146104fe57806391d148541461052157806395d89b4114610551578063a217fddf1461056f57610210565b806370a082311461046c57806375b238fc1461049c5780637d7c2a1c146104ba5780637dc0d1d0146104c457610210565b806323b872dd116101a8578063313ce56711610177578063313ce567146103c857806336568abe146103e657806339509351146104025780633dcc27d914610432578063448077811461044e57610210565b806323b872dd14610330578063248a9ca3146103605780632afcf480146103905780632f2ff15d146103ac57610210565b806312474a68116101e457806312474a68146102b157806316f0115b146102d657806318160ddd146102f4578063205a785a1461031257610210565b80624978461461021557806301ffc9a71461023357806306fdde0314610263578063095ea7b314610281575b600080fd5b61021d6106bb565b60405161022a91906138f5565b60405180910390f35b61024d6004803603810190610248919061397c565b6106df565b60405161025a91906139c4565b60405180910390f35b61026b610759565b6040516102789190613a6f565b60405180910390f35b61029b60048036038101906102969190613b25565b6107eb565b6040516102a891906139c4565b60405180910390f35b6102b961080e565b6040516102cd989796959493929190613b74565b60405180910390f35b6102de610844565b6040516102eb9190613c51565b60405180910390f35b6102fc61086a565b6040516103099190613c6c565b60405180910390f35b61031a610874565b6040516103279190613c6c565b60405180910390f35b61034a60048036038101906103459190613c87565b610898565b60405161035791906139c4565b60405180910390f35b61037a60048036038101906103759190613d06565b6108c7565b60405161038791906138f5565b60405180910390f35b6103aa60048036038101906103a59190613d33565b6108e6565b005b6103c660048036038101906103c19190613d60565b610a5e565b005b6103d0610a7f565b6040516103dd9190613dbc565b60405180910390f35b61040060048036038101906103fb9190613d60565b610a88565b005b61041c60048036038101906104179190613b25565b610b0b565b60405161042991906139c4565b60405180910390f35b61044c60048036038101906104479190613f21565b610b42565b005b610456610cac565b6040516104639190613c6c565b60405180910390f35b61048660048036038101906104819190613f4f565b611033565b6040516104939190613c6c565b60405180910390f35b6104a461107c565b6040516104b191906138f5565b60405180910390f35b6104c26110a0565b005b6104cc6119c3565b6040516104d99190613f9d565b60405180910390f35b6104fc60048036038101906104f79190613d33565b6119e7565b005b610506611c84565b60405161051896959493929190613fb8565b60405180910390f35b61053b60048036038101906105369190613d60565b611cae565b60405161054891906139c4565b60405180910390f35b610559611d18565b6040516105669190613a6f565b60405180910390f35b610577611daa565b60405161058491906138f5565b60405180910390f35b6105a760048036038101906105a29190613b25565b611db1565b6040516105b491906139c4565b60405180910390f35b6105d760048036038101906105d29190613b25565b611e28565b6040516105e491906139c4565b60405180910390f35b6105f5611e4b565b005b6105ff6126e8565b60405161060c919061403a565b60405180910390f35b61061d61270c565b60405161062a9190614076565b60405180910390f35b61064d60048036038101906106489190613d60565b612730565b005b610657612751565b6040516106649190613c6c565b60405180910390f35b61068760048036038101906106829190614091565b612757565b6040516106949190613c6c565b60405180910390f35b6106a56127de565b6040516106b29190613c6c565b60405180910390f35b7f3ee192ac25847473237ced4bba57f848e1fd794930ff85b4282329058096720581565b60007f7965db0b000000000000000000000000000000000000000000000000000000007bffffffffffffffffffffffffffffffffffffffffffffffffffffffff1916827bffffffffffffffffffffffffffffffffffffffffffffffffffffffff191614806107525750610751826127e4565b5b9050919050565b60606004805461076890614100565b80601f016020809104026020016040519081016040528092919081815260200182805461079490614100565b80156107e15780601f106107b6576101008083540402835291602001916107e1565b820191906000526020600020905b8154815290600101906020018083116107c457829003601f168201915b5050505050905090565b6000806107f661284e565b9050610803818585612856565b600191505092915050565b60088060000154908060010154908060020154908060030154908060040154908060050154908060060154908060070154905088565b600760009054906101000a900473ffffffffffffffffffffffffffffffffffffffff1681565b6000600354905090565b7f000000000000000000000000000000000000000000000000000000000000000081565b6000806108a361284e565b90506108b0858285612a1f565b6108bb858585612aab565b60019150509392505050565b6000806000838152602001908152602001600020600101549050919050565b60026006540361092b576040517f08c379a00000000000000000000000000000000000000000000000000000000081526004016109229061417d565b60405180910390fd5b6002600681905550600061093d610cac565b905060008273__MathLib_______________________________63de7f61709091846040518363ffffffff1660e01b815260040161097c9291906141ac565b602060405180830381865af4158015610999573d6000803e3d6000fd5b505050506040513d601f19601f820116820180604052508101906109bd91906141ea565b9050610a0c3330857f000000000000000000000000000000000000000000000000000000000000000073ffffffffffffffffffffffffffffffffffffffff16612d2d909392919063ffffffff16565b610a163382612db6565b7f041b4469fcc88a5fc7aa0e470832c45ceb7a1a5f7ffbf1ace0ffc1dd1b22cf74338285604051610a4993929190614226565b60405180910390a15050600160068190555050565b610a67826108c7565b610a7081612f16565b610a7a8383612f2a565b505050565b60006012905090565b610a9061284e565b73ffffffffffffffffffffffffffffffffffffffff168173ffffffffffffffffffffffffffffffffffffffff1614610afd576040517f08c379a0000000000000000000000000000000000000000000000000000000008152600401610af4906142cf565b60405180910390fd5b610b07828261300a565b5050565b600080610b1661284e565b9050610b37818585610b288589612757565b610b32919061431e565b612856565b600191505092915050565b7fa49807205ce4d355092ef5a8a18f56e8913cf4a201fbe287825b095693c21775610b6c81612f16565b8160e00151826000015110158015610b8c57508160e00151826040015111155b8015610b9f575081604001518260800151105b610bde576040517f08c379a0000000000000000000000000000000000000000000000000000000008152600401610bd59061439e565b60405180910390fd5b600082606001518360200151610bf491906143ed565b1480610c135750600082602001518360600151610c1191906143ed565b145b610c52576040517f08c379a0000000000000000000000000000000000000000000000000000000008152600401610c499061446a565b60405180910390fd5b816008600082015181600001556020820151816001015560408201518160020155606082015181600301556080820151816004015560a0820151816005015560c0820151816006015560e082015181600701559050505050565b6000601754421015610cf3576040517f08c379a0000000000000000000000000000000000000000000000000000000008152600401610cea906144d6565b60405180910390fd5b60007f000000000000000000000000000000000000000000000000000000000000000073ffffffffffffffffffffffffffffffffffffffff1663fbfa77cf6040518163ffffffff1660e01b8152600401602060405180830381865afa158015610d60573d6000803e3d6000fd5b505050506040513d601f19601f82011682018060405250810190610d849190614534565b73ffffffffffffffffffffffffffffffffffffffff16637be795e0600760009054906101000a900473ffffffffffffffffffffffffffffffffffffffff16306040518363ffffffff1660e01b8152600401610de0929190614561565b600060405180830381865afa158015610dfd573d6000803e3d6000fd5b505050506040513d6000823e3d601f19601f82011682018060405250810190610e269190614657565b90506000815114610e6c576040517f08c379a0000000000000000000000000000000000000000000000000000000008152600401610e63906146ec565b60405180910390fd5b60007f000000000000000000000000000000000000000000000000000000000000000073ffffffffffffffffffffffffffffffffffffffff166370a08231306040518263ffffffff1660e01b8152600401610ec7919061470c565b602060405180830381865afa158015610ee4573d6000803e3d6000fd5b505050506040513d601f19601f82011682018060405250810190610f0891906141ea565b905060003073ffffffffffffffffffffffffffffffffffffffff166318160ddd6040518163ffffffff1660e01b8152600401602060405180830381865afa158015610f57573d6000803e3d6000fd5b505050506040513d601f19601f82011682018060405250810190610f7b91906141ea565b90506000811115611009578173__MathLib_______________________________63de7f61709091836040518363ffffffff1660e01b8152600401610fc19291906141ac565b602060405180830381865af4158015610fde573d6000803e3d6000fd5b505050506040513d601f19601f8201168201806040525081019061100291906141ea565b935061102d565b7f000000000000000000000000000000000000000000000000000000000000000093505b50505090565b6000600160008373ffffffffffffffffffffffffffffffffffffffff1673ffffffffffffffffffffffffffffffffffffffff168152602001908152602001600020549050919050565b7fa49807205ce4d355092ef5a8a18f56e8913cf4a201fbe287825b095693c2177581565b7f3ee192ac25847473237ced4bba57f848e1fd794930ff85b428232905809672056110ca81612f16565b60165442101580156110dd575060175442105b61111c576040517f08c379a000000000000000000000000000000000000000000000000000000000815260040161111390614773565b60405180910390fd5b60007f000000000000000000000000000000000000000000000000000000000000000073ffffffffffffffffffffffffffffffffffffffff1663b0667cf86040518163ffffffff1660e01b8152600401602060405180830381865afa158015611189573d6000803e3d6000fd5b505050506040513d601f19601f820116820180604052508101906111ad91906141ea565b9050600860030154600860010154111561156c57600060106002015411611209576040517f08c379a0000000000000000000000000000000000000000000000000000000008152600401611200906147df565b60405180910390fd5b611230601754600860030154601654611222919061431e565b6130eb90919063ffffffff16565b601681905550426016541161127a576040517f08c379a00000000000000000000000000000000000000000000000000000000081526004016112719061484b565b60405180910390fd5b60004260165461128a919061486b565b9050600061132d6010600201548473__MathLib_______________________________63b3947c1790916008600201546008600701546040518463ffffffff1660e01b81526004016112de9392919061489f565b602060405180830381865af41580156112fb573d6000803e3d6000fd5b505050506040513d601f19601f8201168201806040525081019061131f91906141ea565b6130eb90919063ffffffff16565b9050600060086004015411156114a15760008173__MathLib_______________________________63b3947c179091600860040154600860020154611372919061486b565b6008600201546040518463ffffffff1660e01b81526004016113969392919061489f565b602060405180830381865af41580156113b3573d6000803e3d6000fd5b505050506040513d601f19601f820116820180604052508101906113d791906141ea565b90507f000000000000000000000000000000000000000000000000000000000000000073ffffffffffffffffffffffffffffffffffffffff166331d975d2600760009054906101000a900473ffffffffffffffffffffffffffffffffffffffff1685858560106000015460036000806040518963ffffffff1660e01b81526004016114699897969594939291906149dd565b600060405180830381600087803b15801561148357600080fd5b505af1158015611497573d6000803e3d6000fd5b5050505050611565565b7f000000000000000000000000000000000000000000000000000000000000000073ffffffffffffffffffffffffffffffffffffffff166331d975d2600760009054906101000a900473ffffffffffffffffffffffffffffffffffffffff168484600060106000015460016000806040518963ffffffff1660e01b8152600401611532989796959493929190614a96565b600060405180830381600087803b15801561154c57600080fd5b505af1158015611560573d6000803e3d6000fd5b505050505b5050611981565b6008600301546008600101541015611980576000601060010154116115c6576040517f08c379a00000000000000000000000000000000000000000000000000000000081526004016115bd90614b60565b60405180910390fd5b6115ed6017546008600101546016546115df919061431e565b6130eb90919063ffffffff16565b6016819055504260165411611637576040517f08c379a000000000000000000000000000000000000000000000000000000000815260040161162e90614bcc565b60405180910390fd5b600042601654611647919061486b565b905060006116ea6010600101548473__MathLib_______________________________63b3947c1790916008600001546008600701546040518463ffffffff1660e01b815260040161169b9392919061489f565b602060405180830381865af41580156116b8573d6000803e3d6000fd5b505050506040513d601f19601f820116820180604052508101906116dc91906141ea565b61310490919063ffffffff16565b905060007f000000000000000000000000000000000000000000000000000000000000000073ffffffffffffffffffffffffffffffffffffffff166370a08231306040518263ffffffff1660e01b8152600401611747919061470c565b602060405180830381865afa158015611764573d6000803e3d6000fd5b505050506040513d601f19601f8201168201806040525081019061178891906141ea565b73__MathLib_______________________________63de7f617090917f00000000000000000000000000000000000000000000000000000000000000006040518363ffffffff1660e01b81526004016117e29291906141ac565b602060405180830381865af41580156117ff573d6000803e3d6000fd5b505050506040513d601f19601f8201168201806040525081019061182391906141ea565b905060006118ba6010600001548373__MathLib_______________________________63de7f61709091896040518363ffffffff1660e01b815260040161186b9291906141ac565b602060405180830381865af4158015611888573d6000803e3d6000fd5b505050506040513d601f19601f820116820180604052508101906118ac91906141ea565b6130eb90919063ffffffff16565b90507f000000000000000000000000000000000000000000000000000000000000000073ffffffffffffffffffffffffffffffffffffffff166331d975d2600760009054906101000a900473ffffffffffffffffffffffffffffffffffffffff1686866000866000600160006040518963ffffffff1660e01b8152600401611949989796959493929190614a96565b600060405180830381600087803b15801561196357600080fd5b505af1158015611977573d6000803e3d6000fd5b50505050505050505b5b7f237122ecc26db03503dc1dbb9f3131f31421dccbcf3b9cd95c3e4f89952aa8bd4260165460006040516119b793929190614bec565b60405180910390a15050565b7f000000000000000000000000000000000000000000000000000000000000000081565b600260065403611a2c576040517f08c379a0000000000000000000000000000000000000000000000000000000008152600401611a239061417d565b60405180910390fd5b60026006819055506000611a3e610cac565b905060008273__MathLib_______________________________63fed4a0f39091846040518363ffffffff1660e01b8152600401611a7d9291906141ac565b602060405180830381865af4158015611a9a573d6000803e3d6000fd5b505050506040513d601f19601f82011682018060405250810190611abe91906141ea565b905082611aca33611033565b1015611b0b576040517f08c379a0000000000000000000000000000000000000000000000000000000008152600401611b0290614c6f565b60405180910390fd5b807f000000000000000000000000000000000000000000000000000000000000000073ffffffffffffffffffffffffffffffffffffffff166370a08231306040518263ffffffff1660e01b8152600401611b65919061470c565b602060405180830381865afa158015611b82573d6000803e3d6000fd5b505050506040513d601f19601f82011682018060405250810190611ba691906141ea565b1015611be7576040517f08c379a0000000000000000000000000000000000000000000000000000000008152600401611bde90614cdb565b60405180910390fd5b611bf1338461311e565b611c3c33827f000000000000000000000000000000000000000000000000000000000000000073ffffffffffffffffffffffffffffffffffffffff166132f69092919063ffffffff16565b7f9f640df38d8aaf522552ca6393f7244a2ac0fede0d9ae61c288d017daf5d8c60338483604051611c6f93929190614226565b60405180910390a15050600160068190555050565b60108060000154908060010154908060020154908060030154908060040154908060050154905086565b600080600084815260200190815260200160002060000160008373ffffffffffffffffffffffffffffffffffffffff1673ffffffffffffffffffffffffffffffffffffffff16815260200190815260200160002060009054906101000a900460ff16905092915050565b606060058054611d2790614100565b80601f0160208091040260200160405190810160405280929190818152602001828054611d5390614100565b8015611da05780601f10611d7557610100808354040283529160200191611da0565b820191906000526020600020905b815481529060010190602001808311611d8357829003601f168201915b5050505050905090565b6000801b81565b600080611dbc61284e565b90506000611dca8286612757565b905083811015611e0f576040517f08c379a0000000000000000000000000000000000000000000000000000000008152600401611e0690614d6d565b60405180910390fd5b611e1c8286868403612856565b60019250505092915050565b600080611e3361284e565b9050611e40818585612aab565b600191505092915050565b7f3ee192ac25847473237ced4bba57f848e1fd794930ff85b42823290580967205611e7581612f16565b600860050154601754611e88919061431e565b421015611eca576040517f08c379a0000000000000000000000000000000000000000000000000000000008152600401611ec190614dd9565b60405180910390fd5b6000611ed4610cac565b905060008111611f19576040517f08c379a0000000000000000000000000000000000000000000000000000000008152600401611f1090614e45565b60405180910390fd5b8060106005018190555060007f000000000000000000000000000000000000000000000000000000000000000073ffffffffffffffffffffffffffffffffffffffff166370a08231306040518263ffffffff1660e01b8152600401611f7e919061470c565b602060405180830381865afa158015611f9b573d6000803e3d6000fd5b505050506040513d601f19601f82011682018060405250810190611fbf91906141ea565b73__MathLib_______________________________63de7f617090917f00000000000000000000000000000000000000000000000000000000000000006040518363ffffffff1660e01b81526004016120199291906141ac565b602060405180830381865af4158015612036573d6000803e3d6000fd5b505050506040513d601f19601f8201168201806040525081019061205a91906141ea565b905060007f000000000000000000000000000000000000000000000000000000000000000073ffffffffffffffffffffffffffffffffffffffff1663b0667cf86040518163ffffffff1660e01b8152600401602060405180830381865afa1580156120c9573d6000803e3d6000fd5b505050506040513d601f19601f820116820180604052508101906120ed91906141ea565b9050806010600401819055508173__MathLib_______________________________63de7f61709091836040518363ffffffff1660e01b81526004016121349291906141ac565b602060405180830381865af4158015612151573d6000803e3d6000fd5b505050506040513d601f19601f8201168201806040525081019061217591906141ea565b73__MathLib_______________________________63b3947c1790916008600601546008600701546040518463ffffffff1660e01b81526004016121bb9392919061489f565b602060405180830381865af41580156121d8573d6000803e3d6000fd5b505050506040513d601f19601f820116820180604052508101906121fc91906141ea565b6010600001819055508073__MathLib_______________________________63b3947c1790916008600001546008600701546040518463ffffffff1660e01b815260040161224c9392919061489f565b602060405180830381865af4158015612269573d6000803e3d6000fd5b505050506040513d601f19601f8201168201806040525081019061228d91906141ea565b6010600101819055507f000000000000000000000000000000000000000000000000000000000000000073ffffffffffffffffffffffffffffffffffffffff166331d975d2600760009054906101000a900473ffffffffffffffffffffffffffffffffffffffff1660086001015460106001015460006010600001546000600160006040518963ffffffff1660e01b8152600401612332989796959493929190614a96565b600060405180830381600087803b15801561234c57600080fd5b505af1158015612360573d6000803e3d6000fd5b505050508073__MathLib_______________________________63b3947c1790916008600201546008600701546040518463ffffffff1660e01b81526004016123ab9392919061489f565b602060405180830381865af41580156123c8573d6000803e3d6000fd5b505050506040513d601f19601f820116820180604052508101906123ec91906141ea565b6010600201819055506000600860040154111561257a578073__MathLib_______________________________63b3947c179091600860040154600860020154612436919061486b565b6008600701546040518463ffffffff1660e01b815260040161245a9392919061489f565b602060405180830381865af4158015612477573d6000803e3d6000fd5b505050506040513d601f19601f8201168201806040525081019061249b91906141ea565b6010600301819055507f000000000000000000000000000000000000000000000000000000000000000073ffffffffffffffffffffffffffffffffffffffff166331d975d2600760009054906101000a900473ffffffffffffffffffffffffffffffffffffffff1660086003015460106002015460106003015460106000015460036000806040518963ffffffff1660e01b81526004016125439897969594939291906149dd565b600060405180830381600087803b15801561255d57600080fd5b505af1158015612571573d6000803e3d6000fd5b50505050612648565b7f000000000000000000000000000000000000000000000000000000000000000073ffffffffffffffffffffffffffffffffffffffff166331d975d2600760009054906101000a900473ffffffffffffffffffffffffffffffffffffffff16600860030154601060020154600060106000015460016000806040518963ffffffff1660e01b8152600401612615989796959493929190614a96565b600060405180830381600087803b15801561262f57600080fd5b505af1158015612643573d6000803e3d6000fd5b505050505b6126656008600301546008600101546130eb90919063ffffffff16565b42612670919061431e565b60168190555061269360086003015460086001015461310490919063ffffffff16565b4261269e919061431e565b6017819055507f237122ecc26db03503dc1dbb9f3131f31421dccbcf3b9cd95c3e4f89952aa8bd4260175460016040516126da93929190614bec565b60405180910390a150505050565b7f000000000000000000000000000000000000000000000000000000000000000081565b7f000000000000000000000000000000000000000000000000000000000000000081565b612739826108c7565b61274281612f16565b61274c838361300a565b505050565b60175481565b6000600260008473ffffffffffffffffffffffffffffffffffffffff1673ffffffffffffffffffffffffffffffffffffffff16815260200190815260200160002060008373ffffffffffffffffffffffffffffffffffffffff1673ffffffffffffffffffffffffffffffffffffffff16815260200190815260200160002054905092915050565b60165481565b60007f01ffc9a7000000000000000000000000000000000000000000000000000000007bffffffffffffffffffffffffffffffffffffffffffffffffffffffff1916827bffffffffffffffffffffffffffffffffffffffffffffffffffffffff1916149050919050565b600033905090565b600073ffffffffffffffffffffffffffffffffffffffff168373ffffffffffffffffffffffffffffffffffffffff16036128c5576040517f08c379a00000000000000000000000000000000000000000000000000000000081526004016128bc90614ed7565b60405180910390fd5b600073ffffffffffffffffffffffffffffffffffffffff168273ffffffffffffffffffffffffffffffffffffffff1603612934576040517f08c379a000000000000000000000000000000000000000000000000000000000815260040161292b90614f69565b60405180910390fd5b80600260008573ffffffffffffffffffffffffffffffffffffffff1673ffffffffffffffffffffffffffffffffffffffff16815260200190815260200160002060008473ffffffffffffffffffffffffffffffffffffffff1673ffffffffffffffffffffffffffffffffffffffff168152602001908152602001600020819055508173ffffffffffffffffffffffffffffffffffffffff168373ffffffffffffffffffffffffffffffffffffffff167f8c5be1e5ebec7d5bd14f71427d1e84f3dd0314c0f7b2291e5b200ac8c7c3b92583604051612a129190613c6c565b60405180910390a3505050565b6000612a2b8484612757565b90507fffffffffffffffffffffffffffffffffffffffffffffffffffffffffffffffff8114612aa55781811015612a97576040517f08c379a0000000000000000000000000000000000000000000000000000000008152600401612a8e90614fd5565b60405180910390fd5b612aa48484848403612856565b5b50505050565b600073ffffffffffffffffffffffffffffffffffffffff168373ffffffffffffffffffffffffffffffffffffffff1603612b1a576040517f08c379a0000000000000000000000000000000000000000000000000000000008152600401612b1190615067565b60405180910390fd5b600073ffffffffffffffffffffffffffffffffffffffff168273ffffffffffffffffffffffffffffffffffffffff1603612b89576040517f08c379a0000000000000000000000000000000000000000000000000000000008152600401612b80906150f9565b60405180910390fd5b612b9483838361337c565b6000600160008573ffffffffffffffffffffffffffffffffffffffff1673ffffffffffffffffffffffffffffffffffffffff16815260200190815260200160002054905081811015612c1b576040517f08c379a0000000000000000000000000000000000000000000000000000000008152600401612c129061518b565b60405180910390fd5b818103600160008673ffffffffffffffffffffffffffffffffffffffff1673ffffffffffffffffffffffffffffffffffffffff1681526020019081526020016000208190555081600160008573ffffffffffffffffffffffffffffffffffffffff1673ffffffffffffffffffffffffffffffffffffffff1681526020019081526020016000206000828254612cb0919061431e565b925050819055508273ffffffffffffffffffffffffffffffffffffffff168473ffffffffffffffffffffffffffffffffffffffff167fddf252ad1be2c89b69c2b068fc378daa952ba7f163c4a11628f55a4df523b3ef84604051612d149190613c6c565b60405180910390a3612d27848484613381565b50505050565b612db0846323b872dd60e01b858585604051602401612d4e939291906151ab565b604051602081830303815290604052907bffffffffffffffffffffffffffffffffffffffffffffffffffffffff19166020820180517bffffffffffffffffffffffffffffffffffffffffffffffffffffffff8381831617835250505050613386565b50505050565b600073ffffffffffffffffffffffffffffffffffffffff168273ffffffffffffffffffffffffffffffffffffffff1603612e25576040517f08c379a0000000000000000000000000000000000000000000000000000000008152600401612e1c9061522e565b60405180910390fd5b612e316000838361337c565b8060036000828254612e43919061431e565b9250508190555080600160008473ffffffffffffffffffffffffffffffffffffffff1673ffffffffffffffffffffffffffffffffffffffff1681526020019081526020016000206000828254612e99919061431e565b925050819055508173ffffffffffffffffffffffffffffffffffffffff16600073ffffffffffffffffffffffffffffffffffffffff167fddf252ad1be2c89b69c2b068fc378daa952ba7f163c4a11628f55a4df523b3ef83604051612efe9190613c6c565b60405180910390a3612f1260008383613381565b5050565b612f2781612f2261284e565b61344d565b50565b612f348282611cae565b61300657600160008084815260200190815260200160002060000160008373ffffffffffffffffffffffffffffffffffffffff1673ffffffffffffffffffffffffffffffffffffffff16815260200190815260200160002060006101000a81548160ff021916908315150217905550612fab61284e565b73ffffffffffffffffffffffffffffffffffffffff168173ffffffffffffffffffffffffffffffffffffffff16837f2f8788117e7eff1d82e926ec794901d17c78024a50270940304540a733656f0d60405160405180910390a45b5050565b6130148282611cae565b156130e757600080600084815260200190815260200160002060000160008373ffffffffffffffffffffffffffffffffffffffff1673ffffffffffffffffffffffffffffffffffffffff16815260200190815260200160002060006101000a81548160ff02191690831515021790555061308c61284e565b73ffffffffffffffffffffffffffffffffffffffff168173ffffffffffffffffffffffffffffffffffffffff16837ff6391f5c32d9c69d2a47ea670b442974b53935d1edc7fd64eb21e047a839171b60405160405180910390a45b5050565b60008183106130fa57816130fc565b825b905092915050565b6000818310156131145781613116565b825b905092915050565b600073ffffffffffffffffffffffffffffffffffffffff168273ffffffffffffffffffffffffffffffffffffffff160361318d576040517f08c379a0000000000000000000000000000000000000000000000000000000008152600401613184906152c0565b60405180910390fd5b6131998260008361337c565b6000600160008473ffffffffffffffffffffffffffffffffffffffff1673ffffffffffffffffffffffffffffffffffffffff16815260200190815260200160002054905081811015613220576040517f08c379a000000000000000000000000000000000000000000000000000000000815260040161321790615352565b60405180910390fd5b818103600160008573ffffffffffffffffffffffffffffffffffffffff1673ffffffffffffffffffffffffffffffffffffffff168152602001908152602001600020819055508160036000828254613278919061486b565b92505081905550600073ffffffffffffffffffffffffffffffffffffffff168373ffffffffffffffffffffffffffffffffffffffff167fddf252ad1be2c89b69c2b068fc378daa952ba7f163c4a11628f55a4df523b3ef846040516132dd9190613c6c565b60405180910390a36132f183600084613381565b505050565b6133778363a9059cbb60e01b8484604051602401613315929190615372565b604051602081830303815290604052907bffffffffffffffffffffffffffffffffffffffffffffffffffffffff19166020820180517bffffffffffffffffffffffffffffffffffffffffffffffffffffffff8381831617835250505050613386565b505050565b505050565b505050565b60006133e8826040518060400160405280602081526020017f5361666545524332303a206c6f772d6c6576656c2063616c6c206661696c65648152508573ffffffffffffffffffffffffffffffffffffffff166134ea9092919063ffffffff16565b9050600081511115613448578080602001905181019061340891906153c7565b613447576040517f08c379a000000000000000000000000000000000000000000000000000000000815260040161343e90615466565b60405180910390fd5b5b505050565b6134578282611cae565b6134e65761347c8173ffffffffffffffffffffffffffffffffffffffff166014613502565b61348a8360001c6020613502565b60405160200161349b92919061555a565b6040516020818303038152906040526040517f08c379a00000000000000000000000000000000000000000000000000000000081526004016134dd9190613a6f565b60405180910390fd5b5050565b60606134f9848460008561373e565b90509392505050565b6060600060028360026135159190615594565b61351f919061431e565b67ffffffffffffffff81111561353857613537613ddc565b5b6040519080825280601f01601f19166020018201604052801561356a5781602001600182028036833780820191505090505b5090507f3000000000000000000000000000000000000000000000000000000000000000816000815181106135a2576135a16155ee565b5b60200101907effffffffffffffffffffffffffffffffffffffffffffffffffffffffffffff1916908160001a9053507f780000000000000000000000000000000000000000000000000000000000000081600181518110613606576136056155ee565b5b60200101907effffffffffffffffffffffffffffffffffffffffffffffffffffffffffffff1916908160001a905350600060018460026136469190615594565b613650919061431e565b90505b60018111156136f0577f3031323334353637383961626364656600000000000000000000000000000000600f861660108110613692576136916155ee565b5b1a60f81b8282815181106136a9576136a86155ee565b5b60200101907effffffffffffffffffffffffffffffffffffffffffffffffffffffffffffff1916908160001a905350600485901c9450806136e99061561d565b9050613653565b5060008414613734576040517f08c379a000000000000000000000000000000000000000000000000000000000815260040161372b90615692565b60405180910390fd5b8091505092915050565b606082471015613783576040517f08c379a000000000000000000000000000000000000000000000000000000000815260040161377a90615724565b60405180910390fd5b61378c85613852565b6137cb576040517f08c379a00000000000000000000000000000000000000000000000000000000081526004016137c290615790565b60405180910390fd5b6000808673ffffffffffffffffffffffffffffffffffffffff1685876040516137f491906157f7565b60006040518083038185875af1925050503d8060008114613831576040519150601f19603f3d011682016040523d82523d6000602084013e613836565b606091505b5091509150613846828286613875565b92505050949350505050565b6000808273ffffffffffffffffffffffffffffffffffffffff163b119050919050565b60608315613885578290506138d5565b6000835111156138985782518084602001fd5b816040517f08c379a00000000000000000000000000000000000000000000000000000000081526004016138cc9190613a6f565b60405180910390fd5b9392505050565b6000819050919050565b6138ef816138dc565b82525050565b600060208201905061390a60008301846138e6565b92915050565b6000604051905090565b600080fd5b600080fd5b60007fffffffff0000000000000000000000000000000000000000000000000000000082169050919050565b61395981613924565b811461396457600080fd5b50565b60008135905061397681613950565b92915050565b6000602082840312156139925761399161391a565b5b60006139a084828501613967565b91505092915050565b60008115159050919050565b6139be816139a9565b82525050565b60006020820190506139d960008301846139b5565b92915050565b600081519050919050565b600082825260208201905092915050565b60005b83811015613a195780820151818401526020810190506139fe565b60008484015250505050565b6000601f19601f8301169050919050565b6000613a41826139df565b613a4b81856139ea565b9350613a5b8185602086016139fb565b613a6481613a25565b840191505092915050565b60006020820190508181036000830152613a898184613a36565b905092915050565b600073ffffffffffffffffffffffffffffffffffffffff82169050919050565b6000613abc82613a91565b9050919050565b613acc81613ab1565b8114613ad757600080fd5b50565b600081359050613ae981613ac3565b92915050565b6000819050919050565b613b0281613aef565b8114613b0d57600080fd5b50565b600081359050613b1f81613af9565b92915050565b60008060408385031215613b3c57613b3b61391a565b5b6000613b4a85828601613ada565b9250506020613b5b85828601613b10565b9150509250929050565b613b6e81613aef565b82525050565b600061010082019050613b8a600083018b613b65565b613b97602083018a613b65565b613ba46040830189613b65565b613bb16060830188613b65565b613bbe6080830187613b65565b613bcb60a0830186613b65565b613bd860c0830185613b65565b613be560e0830184613b65565b9998505050505050505050565b6000819050919050565b6000613c17613c12613c0d84613a91565b613bf2565b613a91565b9050919050565b6000613c2982613bfc565b9050919050565b6000613c3b82613c1e565b9050919050565b613c4b81613c30565b82525050565b6000602082019050613c666000830184613c42565b92915050565b6000602082019050613c816000830184613b65565b92915050565b600080600060608486031215613ca057613c9f61391a565b5b6000613cae86828701613ada565b9350506020613cbf86828701613ada565b9250506040613cd086828701613b10565b9150509250925092565b613ce3816138dc565b8114613cee57600080fd5b50565b600081359050613d0081613cda565b92915050565b600060208284031215613d1c57613d1b61391a565b5b6000613d2a84828501613cf1565b91505092915050565b600060208284031215613d4957613d4861391a565b5b6000613d5784828501613b10565b91505092915050565b60008060408385031215613d7757613d7661391a565b5b6000613d8585828601613cf1565b9250506020613d9685828601613ada565b9150509250929050565b600060ff82169050919050565b613db681613da0565b82525050565b6000602082019050613dd16000830184613dad565b92915050565b600080fd5b7f4e487b7100000000000000000000000000000000000000000000000000000000600052604160045260246000fd5b613e1482613a25565b810181811067ffffffffffffffff82111715613e3357613e32613ddc565b5b80604052505050565b6000613e46613910565b9050613e528282613e0b565b919050565b60006101008284031215613e6e57613e6d613dd7565b5b613e79610100613e3c565b90506000613e8984828501613b10565b6000830152506020613e9d84828501613b10565b6020830152506040613eb184828501613b10565b6040830152506060613ec584828501613b10565b6060830152506080613ed984828501613b10565b60808301525060a0613eed84828501613b10565b60a08301525060c0613f0184828501613b10565b60c08301525060e0613f1584828501613b10565b60e08301525092915050565b60006101008284031215613f3857613f3761391a565b5b6000613f4684828501613e57565b91505092915050565b600060208284031215613f6557613f6461391a565b5b6000613f7384828501613ada565b91505092915050565b6000613f8782613c1e565b9050919050565b613f9781613f7c565b82525050565b6000602082019050613fb26000830184613f8e565b92915050565b600060c082019050613fcd6000830189613b65565b613fda6020830188613b65565b613fe76040830187613b65565b613ff46060830186613b65565b6140016080830185613b65565b61400e60a0830184613b65565b979650505050505050565b600061402482613c1e565b9050919050565b61403481614019565b82525050565b600060208201905061404f600083018461402b565b92915050565b600061406082613c1e565b9050919050565b61407081614055565b82525050565b600060208201905061408b6000830184614067565b92915050565b600080604083850312156140a8576140a761391a565b5b60006140b685828601613ada565b92505060206140c785828601613ada565b9150509250929050565b7f4e487b7100000000000000000000000000000000000000000000000000000000600052602260045260246000fd5b6000600282049050600182168061411857607f821691505b60208210810361412b5761412a6140d1565b5b50919050565b7f5265656e7472616e637947756172643a207265656e7472616e742063616c6c00600082015250565b6000614167601f836139ea565b915061417282614131565b602082019050919050565b600060208201905081810360008301526141968161415a565b9050919050565b6141a681613aef565b82525050565b60006040820190506141c1600083018561419d565b6141ce602083018461419d565b9392505050565b6000815190506141e481613af9565b92915050565b600060208284031215614200576141ff61391a565b5b600061420e848285016141d5565b91505092915050565b61422081613ab1565b82525050565b600060608201905061423b6000830186614217565b6142486020830185613b65565b6142556040830184613b65565b949350505050565b7f416363657373436f6e74726f6c3a2063616e206f6e6c792072656e6f756e636560008201527f20726f6c657320666f722073656c660000000000000000000000000000000000602082015250565b60006142b9602f836139ea565b91506142c48261425d565b604082019050919050565b600060208201905081810360008301526142e8816142ac565b9050919050565b7f4e487b7100000000000000000000000000000000000000000000000000000000600052601160045260246000fd5b600061432982613aef565b915061433483613aef565b925082820190508082111561434c5761434b6142ef565b5b92915050565b7f57726f6e6720737472696b657300000000000000000000000000000000000000600082015250565b6000614388600d836139ea565b915061439382614352565b602082019050919050565b600060208201905081810360008301526143b78161437b565b9050919050565b7f4e487b7100000000000000000000000000000000000000000000000000000000600052601260045260246000fd5b60006143f882613aef565b915061440383613aef565b925082614413576144126143be565b5b828206905092915050565b7f57726f6e672074656e6f72730000000000000000000000000000000000000000600082015250565b6000614454600c836139ea565b915061445f8261441e565b602082019050919050565b6000602082019050818103600083015261448381614447565b9050919050565b7f496e7665737420697320756e617661696c61626c652e00000000000000000000600082015250565b60006144c06016836139ea565b91506144cb8261448a565b602082019050919050565b600060208201905081810360008301526144ef816144b3565b9050919050565b600061450182613ab1565b9050919050565b614511816144f6565b811461451c57600080fd5b50565b60008151905061452e81614508565b92915050565b60006020828403121561454a5761454961391a565b5b60006145588482850161451f565b91505092915050565b60006040820190506145766000830185614217565b6145836020830184614217565b9392505050565b600080fd5b600067ffffffffffffffff8211156145aa576145a9613ddc565b5b602082029050602081019050919050565b600080fd5b60006145d36145ce8461458f565b613e3c565b905080838252602082019050602084028301858111156145f6576145f56145bb565b5b835b8181101561461f578061460b88826141d5565b8452602084019350506020810190506145f8565b5050509392505050565b600082601f83011261463e5761463d61458a565b5b815161464e8482602086016145c0565b91505092915050565b60006020828403121561466d5761466c61391a565b5b600082015167ffffffffffffffff81111561468b5761468a61391f565b5b61469784828501614629565b91505092915050565b7f6f7074696f6e7320796574206163746976650000000000000000000000000000600082015250565b60006146d66012836139ea565b91506146e1826146a0565b602082019050919050565b60006020820190508181036000830152614705816146c9565b9050919050565b60006020820190506147216000830184614217565b92915050565b7f4e6f7420666f7220726562616c616e6365000000000000000000000000000000600082015250565b600061475d6011836139ea565b915061476882614727565b602082019050919050565b6000602082019050818103600083015261478c81614750565b9050919050565b7f50757420737472696b6520756e73657400000000000000000000000000000000600082015250565b60006147c96010836139ea565b91506147d482614793565b602082019050919050565b600060208201905081810360008301526147f8816147bc565b9050919050565b7f7075742065787069727920696e20746865207061737400000000000000000000600082015250565b60006148356016836139ea565b9150614840826147ff565b602082019050919050565b6000602082019050818103600083015261486481614828565b9050919050565b600061487682613aef565b915061488183613aef565b9250828203905081811115614899576148986142ef565b5b92915050565b60006060820190506148b4600083018661419d565b6148c1602083018561419d565b6148ce604083018461419d565b949350505050565b7f4e487b7100000000000000000000000000000000000000000000000000000000600052602160045260246000fd5b60048110614916576149156148d6565b5b50565b600081905061492782614905565b919050565b600061493782614919565b9050919050565b6149478161492c565b82525050565b6002811061495e5761495d6148d6565b5b50565b600081905061496f8261494d565b919050565b600061497f82614961565b9050919050565b61498f81614974565b82525050565b600381106149a6576149a56148d6565b5b50565b60008190506149b782614995565b919050565b60006149c7826149a9565b9050919050565b6149d7816149bc565b82525050565b6000610100820190506149f3600083018b613c42565b614a00602083018a613b65565b614a0d6040830189613b65565b614a1a6060830188613b65565b614a276080830187613b65565b614a3460a083018661493e565b614a4160c0830185614986565b614a4e60e08301846149ce565b9998505050505050505050565b6000819050919050565b6000614a80614a7b614a7684614a5b565b613bf2565b613aef565b9050919050565b614a9081614a65565b82525050565b600061010082019050614aac600083018b613c42565b614ab9602083018a613b65565b614ac66040830189613b65565b614ad36060830188614a87565b614ae06080830187613b65565b614aed60a083018661493e565b614afa60c0830185614986565b614b0760e08301846149ce565b9998505050505050505050565b7f43616c6c20737472696b6520756e736574000000000000000000000000000000600082015250565b6000614b4a6011836139ea565b9150614b5582614b14565b602082019050919050565b60006020820190508181036000830152614b7981614b3d565b9050919050565b7f63616c6c2065787069727920696e207468652070617374000000000000000000600082015250565b6000614bb66017836139ea565b9150614bc182614b80565b602082019050919050565b60006020820190508181036000830152614be581614ba9565b9050919050565b6000606082019050614c016000830186613b65565b614c0e6020830185613b65565b614c1b60408301846139b5565b949350505050565b7f45786365656420746f74616c2062616c616e6365000000000000000000000000600082015250565b6000614c596014836139ea565b9150614c6482614c23565b602082019050919050565b60006020820190508181036000830152614c8881614c4c565b9050919050565b7f496e73756666696369656e742066756e64696e67000000000000000000000000600082015250565b6000614cc56014836139ea565b9150614cd082614c8f565b602082019050919050565b60006020820190508181036000830152614cf481614cb8565b9050919050565b7f45524332303a2064656372656173656420616c6c6f77616e63652062656c6f7760008201527f207a65726f000000000000000000000000000000000000000000000000000000602082015250565b6000614d576025836139ea565b9150614d6282614cfb565b604082019050919050565b60006020820190508181036000830152614d8681614d4a565b9050919050565b7f7064526f6c6c7300000000000000000000000000000000000000000000000000600082015250565b6000614dc36007836139ea565b9150614dce82614d8d565b602082019050919050565b60006020820190508181036000830152614df281614db6565b9050919050565b7f3061737365740000000000000000000000000000000000000000000000000000600082015250565b6000614e2f6006836139ea565b9150614e3a82614df9565b602082019050919050565b60006020820190508181036000830152614e5e81614e22565b9050919050565b7f45524332303a20617070726f76652066726f6d20746865207a65726f2061646460008201527f7265737300000000000000000000000000000000000000000000000000000000602082015250565b6000614ec16024836139ea565b9150614ecc82614e65565b604082019050919050565b60006020820190508181036000830152614ef081614eb4565b9050919050565b7f45524332303a20617070726f766520746f20746865207a65726f20616464726560008201527f7373000000000000000000000000000000000000000000000000000000000000602082015250565b6000614f536022836139ea565b9150614f5e82614ef7565b604082019050919050565b60006020820190508181036000830152614f8281614f46565b9050919050565b7f45524332303a20696e73756666696369656e7420616c6c6f77616e6365000000600082015250565b6000614fbf601d836139ea565b9150614fca82614f89565b602082019050919050565b60006020820190508181036000830152614fee81614fb2565b9050919050565b7f45524332303a207472616e736665722066726f6d20746865207a65726f20616460008201527f6472657373000000000000000000000000000000000000000000000000000000602082015250565b60006150516025836139ea565b915061505c82614ff5565b604082019050919050565b6000602082019050818103600083015261508081615044565b9050919050565b7f45524332303a207472616e7366657220746f20746865207a65726f206164647260008201527f6573730000000000000000000000000000000000000000000000000000000000602082015250565b60006150e36023836139ea565b91506150ee82615087565b604082019050919050565b60006020820190508181036000830152615112816150d6565b9050919050565b7f45524332303a207472616e7366657220616d6f756e742065786365656473206260008201527f616c616e63650000000000000000000000000000000000000000000000000000602082015250565b60006151756026836139ea565b915061518082615119565b604082019050919050565b600060208201905081810360008301526151a481615168565b9050919050565b60006060820190506151c06000830186614217565b6151cd6020830185614217565b6151da6040830184613b65565b949350505050565b7f45524332303a206d696e7420746f20746865207a65726f206164647265737300600082015250565b6000615218601f836139ea565b9150615223826151e2565b602082019050919050565b600060208201905081810360008301526152478161520b565b9050919050565b7f45524332303a206275726e2066726f6d20746865207a65726f2061646472657360008201527f7300000000000000000000000000000000000000000000000000000000000000602082015250565b60006152aa6021836139ea565b91506152b58261524e565b604082019050919050565b600060208201905081810360008301526152d98161529d565b9050919050565b7f45524332303a206275726e20616d6f756e7420657863656564732062616c616e60008201527f6365000000000000000000000000000000000000000000000000000000000000602082015250565b600061533c6022836139ea565b9150615347826152e0565b604082019050919050565b6000602082019050818103600083015261536b8161532f565b9050919050565b60006040820190506153876000830185614217565b6153946020830184613b65565b9392505050565b6153a4816139a9565b81146153af57600080fd5b50565b6000815190506153c18161539b565b92915050565b6000602082840312156153dd576153dc61391a565b5b60006153eb848285016153b2565b91505092915050565b7f5361666545524332303a204552433230206f7065726174696f6e20646964206e60008201527f6f74207375636365656400000000000000000000000000000000000000000000602082015250565b6000615450602a836139ea565b915061545b826153f4565b604082019050919050565b6000602082019050818103600083015261547f81615443565b9050919050565b600081905092915050565b7f416363657373436f6e74726f6c3a206163636f756e7420000000000000000000600082015250565b60006154c7601783615486565b91506154d282615491565b601782019050919050565b60006154e8826139df565b6154f28185615486565b93506155028185602086016139fb565b80840191505092915050565b7f206973206d697373696e6720726f6c6520000000000000000000000000000000600082015250565b6000615544601183615486565b915061554f8261550e565b601182019050919050565b6000615565826154ba565b915061557182856154dd565b915061557c82615537565b915061558882846154dd565b91508190509392505050565b600061559f82613aef565b91506155aa83613aef565b9250817fffffffffffffffffffffffffffffffffffffffffffffffffffffffffffffffff04831182151516156155e3576155e26142ef565b5b828202905092915050565b7f4e487b7100000000000000000000000000000000000000000000000000000000600052603260045260246000fd5b600061562882613aef565b91506000820361563b5761563a6142ef565b5b600182039050919050565b7f537472696e67733a20686578206c656e67746820696e73756666696369656e74600082015250565b600061567c6020836139ea565b915061568782615646565b602082019050919050565b600060208201905081810360008301526156ab8161566f565b9050919050565b7f416464726573733a20696e73756666696369656e742062616c616e636520666f60008201527f722063616c6c0000000000000000000000000000000000000000000000000000602082015250565b600061570e6026836139ea565b9150615719826156b2565b604082019050919050565b6000602082019050818103600083015261573d81615701565b9050919050565b7f416464726573733a2063616c6c20746f206e6f6e2d636f6e7472616374000000600082015250565b600061577a601d836139ea565b915061578582615744565b602082019050919050565b600060208201905081810360008301526157a98161576d565b9050919050565b600081519050919050565b600081905092915050565b60006157d1826157b0565b6157db81856157bb565b93506157eb8185602086016139fb565b80840191505092915050565b600061580382846157c6565b91508190509291505056fea2646970667358221220a4296078f31eb39abc1b79bf1a374ac86a04c1aeca1dde63498676aa327da0f264736f6c63430008100033",
  "immutableReferences": {
    "17163": [
      {
        "length": 32,
        "start": 4384
      },
      {
        "length": 32,
        "start": 6597
      },
      {
        "length": 32,
        "start": 8288
      }
    ],
    "17166": [
      {
        "length": 32,
        "start": 3319
      },
      {
        "length": 32,
        "start": 5083
      },
      {
        "length": 32,
        "start": 5283
      },
      {
        "length": 32,
        "start": 6334
      },
      {
        "length": 32,
        "start": 8856
      },
      {
        "length": 32,
        "start": 9382
      },
      {
        "length": 32,
        "start": 9596
      },
      {
        "length": 32,
        "start": 9998
      }
    ],
    "17169": [
      {
        "length": 32,
        "start": 2503
      },
      {
        "length": 32,
        "start": 3696
      },
      {
        "length": 32,
        "start": 5872
      },
      {
        "length": 32,
        "start": 6926
      },
      {
        "length": 32,
        "start": 7160
      },
      {
        "length": 32,
        "start": 7975
      },
      {
        "length": 32,
        "start": 9962
      }
    ],
    "17171": [
      {
        "length": 32,
        "start": 2166
      },
      {
        "length": 32,
        "start": 4107
      },
      {
        "length": 32,
        "start": 6054
      },
      {
        "length": 32,
        "start": 8157
      }
    ]
  },
  "source": "// SPDX-License-Identifier: MIT\npragma solidity 0.8.16;\n\nimport \"@openzeppelin/contracts/token/ERC20/ERC20.sol\";\nimport \"@openzeppelin/contracts/security/ReentrancyGuard.sol\";\nimport \"@openzeppelin/contracts/token/ERC20/utils/SafeERC20.sol\";\nimport \"@openzeppelin/contracts/utils/math/Math.sol\";\nimport {AccessControl} from \"@openzeppelin/contracts/access/AccessControl.sol\";\nimport \"../Exchange.sol\";\nimport \"../OptionVault.sol\";\nimport \"../VolatilityChain.sol\";\nimport \"../pools/MarketMaker.sol\";\nimport \"../pools/Pool.sol\";\nimport \"../libraries/MathLib.sol\";\nimport \"../libraries/OptionLib.sol\";\n\ncontract FixedIncomeAnnuity is AccessControl, ERC20, ReentrancyGuard{\n    using MathLib for uint256;\n    using Math for uint256;\n    using SafeERC20 for ERC20;\n\n    bytes32 public constant UPDATE_ROLE = keccak256(\"UPDATE_ROLE\");\n    bytes32 public constant ADMIN_ROLE = keccak256(\"ADMIN_ROLE\");\n\n    struct FIAParam{uint256 callMoney; uint256 callTenor; uint256 putMoney; uint256 putTenor; uint256 putSpread; uint256 tradeWindow; uint256 leverage; uint256 multiplier;}\n    struct VintageStats{uint256 optionAmount; uint256 callStrike; uint256 putStrike; uint256 putSpread; uint256 startLevel; uint256 startNAV;}\n\n    event FIPInvest(address investor, uint256 tokenUnit, uint256 investAmount);\n    event FIPDivest(address investor, uint256 tokenUnit, uint256 divestAmount);\n    event FIPRoll(uint256 time, uint256 rebTime, bool isRoll);\n\n    VolatilityChain public immutable oracle;\n    Exchange public immutable exchange;\n    ERC20 public immutable funding;\n    uint256 public immutable fundingMultiplier;\n    Pool public pool;\n\n    FIAParam public fiaParams;\n    VintageStats public vintage;\n\n    uint256 public nextRebTime; // next time for new option contracts\n    uint256 public nextVintageTime; // next time for new vintage\n\n    constructor(address _pool, string memory _name, string memory _symbol, FIAParam memory _params, address _updateAddress) ERC20(_name, _symbol){\n        require(_pool != address(0), \"null pool address\");\n        pool = Pool(_pool);\n        _setupRole(DEFAULT_ADMIN_ROLE, msg.sender);\n        _setupRole(ADMIN_ROLE, msg.sender);\n        _setupRole(UPDATE_ROLE, _updateAddress);\n\n        exchange = Exchange(pool.exchange()); \n\n        MarketMaker market = pool.marketMaker();\n        oracle = market.getVolatilityChain();\n        \n        funding = ERC20(market.funding());\n        funding.increaseAllowance(address(exchange), 2**256 - 1);\n        uint256 fundingDecimals = funding.decimals();\n        fundingMultiplier = 10 ** fundingDecimals;\n\n        nextRebTime = block.timestamp;\n        nextVintageTime = block.timestamp;\n\n        require(_params.callMoney >= _params.multiplier && _params.putMoney <= _params.multiplier && _params.putSpread < _params.putMoney, \"Wrong strikes\");\n        require(_params.callTenor % _params.putTenor == 0 || _params.putTenor % _params.callTenor == 0, \"Wrong tenors\");\n        fiaParams = _params;\n    }\n\n    function setParameters(FIAParam memory _params) external onlyRole(ADMIN_ROLE) {\n        require(_params.callMoney >= _params.multiplier && _params.putMoney <= _params.multiplier && _params.putSpread < _params.putMoney, \"Wrong strikes\");\n        require(_params.callTenor % _params.putTenor == 0 || _params.putTenor % _params.callTenor == 0, \"Wrong tenors\");\n        fiaParams = _params;\n    }\n\n    // invest function to deposit USDC\n    // _toInvest: amount of USDC to invest during the investment window\n    function invest(uint256 _toInvest) external nonReentrant{\n        uint256 unitAsset = getRollsUnitAsset();\n        uint256 unitToMint = _toInvest.ethdiv(unitAsset);\n\n        funding.safeTransferFrom(msg.sender, address(this), _toInvest);\n        _mint(msg.sender, unitToMint);\n        emit FIPInvest(msg.sender, unitToMint, _toInvest);\n    }\n    \n    // invest function to withdraw USDC\n    // _toDivest: amount of FIP tokens to divest (by withdrawing corresponding amount of USDC) during the investment window\n    function divest(uint256 _toDivest) external nonReentrant{\n        uint256 unitAsset = getRollsUnitAsset();\n        uint256 assetToDivest = _toDivest.ethmul(unitAsset);\n\n        require(balanceOf(msg.sender) >= _toDivest, \"Exceed total balance\");\n        require(funding.balanceOf(address(this)) >= assetToDivest, \"Insufficient funding\");\n        _burn(msg.sender, _toDivest);\n        funding.safeTransfer(msg.sender, assetToDivest);\n        emit FIPDivest(msg.sender, _toDivest, assetToDivest);\n    }\n\n    function getRollsUnitAsset() public view returns(uint256 unitAsset){\n        require(block.timestamp >= nextVintageTime, \"Invest is unavailable.\");\n        uint256[] memory options = exchange.vault().getHolderOptions(address(pool), address(this));\n        require(options.length == 0, \"options yet active\");\n\n        uint256 currentAssets = funding.balanceOf(address(this));\n        uint256 currentSupply = this.totalSupply();\n        if(currentSupply>0){\n            unitAsset = currentAssets.ethdiv(currentSupply);\n        }\n        else{\n            unitAsset = fundingMultiplier;\n        }\n    }\n\n    function rollover() external onlyRole(UPDATE_ROLE){\n        require(block.timestamp >= (nextVintageTime + fiaParams.tradeWindow), \"pdRolls\");\n        uint256 unitAsset = getRollsUnitAsset();\n        require(unitAsset> 0, \"0asset\");\n        vintage.startNAV = unitAsset;\n\n        uint256 currentAssets = funding.balanceOf(address(this)).ethdiv(fundingMultiplier);\n        uint256 currentPrice = oracle.queryPrice();\n        vintage.startLevel = currentPrice;\n        vintage.optionAmount = currentAssets.ethdiv(currentPrice).muldiv(fiaParams.leverage, fiaParams.multiplier);\n\n        // sell call\n        vintage.callStrike = currentPrice.muldiv(fiaParams.callMoney, fiaParams.multiplier);\n        exchange.tradeOption(pool, fiaParams.callTenor, vintage.callStrike, 0, vintage.optionAmount, OptionLib.PayoffType.Call, OptionLib.OptionSide.Sell, OptionLib.PaymentMethod.USDC);\n\n        // buy put\n        vintage.putStrike = currentPrice.muldiv(fiaParams.putMoney, fiaParams.multiplier);\n        if(fiaParams.putSpread > 0){\n            vintage.putSpread = currentPrice.muldiv(fiaParams.putMoney - fiaParams.putSpread, fiaParams.multiplier);\n            exchange.tradeOption(pool, fiaParams.putTenor, vintage.putStrike, vintage.putSpread, vintage.optionAmount, OptionLib.PayoffType.PutSpread, OptionLib.OptionSide.Buy, OptionLib.PaymentMethod.USDC);\n        }\n        else{\n            exchange.tradeOption(pool, fiaParams.putTenor, vintage.putStrike, 0, vintage.optionAmount, OptionLib.PayoffType.Put, OptionLib.OptionSide.Buy, OptionLib.PaymentMethod.USDC);\n        }\n        \n        nextRebTime = block.timestamp + fiaParams.callTenor.min(fiaParams.putTenor);\n        nextVintageTime = block.timestamp + fiaParams.callTenor.max(fiaParams.putTenor);\n\n        emit FIPRoll(block.timestamp, nextVintageTime, true);\n    }\n\n    function rebalance() external onlyRole(UPDATE_ROLE){\n        require(block.timestamp >= nextRebTime && block.timestamp < nextVintageTime, \"Not for rebalance\");\n        uint256 currentPrice = oracle.queryPrice();\n        if(fiaParams.callTenor > fiaParams.putTenor){\n            require(vintage.putStrike > 0, \"Put strike unset\");\n            nextRebTime = (nextRebTime + fiaParams.putTenor).min(nextVintageTime);\n            require(nextRebTime > block.timestamp, \"put expiry in the past\");\n            uint256 tenor = nextRebTime - block.timestamp;\n            uint256 strike = currentPrice.muldiv(fiaParams.putMoney, fiaParams.multiplier).min(vintage.putStrike);\n            \n            if(fiaParams.putSpread > 0){\n                uint256 spread = strike.muldiv(fiaParams.putMoney - fiaParams.putSpread, fiaParams.putMoney);\n                exchange.tradeOption(pool, tenor, strike, spread, vintage.optionAmount, OptionLib.PayoffType.PutSpread, OptionLib.OptionSide.Buy, OptionLib.PaymentMethod.USDC);\n            }\n            else{\n                exchange.tradeOption(pool, tenor, strike, 0, vintage.optionAmount, OptionLib.PayoffType.Put, OptionLib.OptionSide.Buy, OptionLib.PaymentMethod.USDC);\n            }\n        }\n        else if (fiaParams.callTenor < fiaParams.putTenor){\n            require(vintage.callStrike > 0, \"Call strike unset\");\n            nextRebTime = (nextRebTime + fiaParams.callTenor).min(nextVintageTime);\n            require(nextRebTime > block.timestamp, \"call expiry in the past\");\n\n            uint256 tenor = nextRebTime - block.timestamp;\n            uint256 strike = currentPrice.muldiv(fiaParams.callMoney, fiaParams.multiplier).max(vintage.callStrike);\n\n            uint256 currentAssets = funding.balanceOf(address(this)).ethdiv(fundingMultiplier);\n            uint256 callOptionAmount = currentAssets.ethdiv(currentPrice).min(vintage.optionAmount);\n\n            exchange.tradeOption(pool, tenor, strike, 0, callOptionAmount, OptionLib.PayoffType.Call, OptionLib.OptionSide.Sell, OptionLib.PaymentMethod.USDC);\n        }\n\n        emit FIPRoll(block.timestamp, nextRebTime, false);\n    }\n\n\n}",
  "sourcePath": "/Users/mac/Documents/GitHub/moret/contracts/vaults/FixedIncomeAnnuity.sol",
  "compiler": {
    "name": "solc",
    "version": "0.8.16+commit.07a7930e.Emscripten.clang"
  },
  "schemaVersion": "3.4.3",
  "updatedAt": "2022-11-12T21:17:49.555Z",
  "networkType": "ethereum",
  "devdoc": {
    "kind": "dev",
    "methods": {
      "allowance(address,address)": {
        "details": "See {IERC20-allowance}."
      },
      "approve(address,uint256)": {
        "details": "See {IERC20-approve}. NOTE: If `amount` is the maximum `uint256`, the allowance is not updated on `transferFrom`. This is semantically equivalent to an infinite approval. Requirements: - `spender` cannot be the zero address."
      },
      "balanceOf(address)": {
        "details": "See {IERC20-balanceOf}."
      },
      "decimals()": {
        "details": "Returns the number of decimals used to get its user representation. For example, if `decimals` equals `2`, a balance of `505` tokens should be displayed to a user as `5.05` (`505 / 10 ** 2`). Tokens usually opt for a value of 18, imitating the relationship between Ether and Wei. This is the value {ERC20} uses, unless this function is overridden; NOTE: This information is only used for _display_ purposes: it in no way affects any of the arithmetic of the contract, including {IERC20-balanceOf} and {IERC20-transfer}."
      },
      "decreaseAllowance(address,uint256)": {
        "details": "Atomically decreases the allowance granted to `spender` by the caller. This is an alternative to {approve} that can be used as a mitigation for problems described in {IERC20-approve}. Emits an {Approval} event indicating the updated allowance. Requirements: - `spender` cannot be the zero address. - `spender` must have allowance for the caller of at least `subtractedValue`."
      },
      "getRoleAdmin(bytes32)": {
        "details": "Returns the admin role that controls `role`. See {grantRole} and {revokeRole}. To change a role's admin, use {_setRoleAdmin}."
      },
      "grantRole(bytes32,address)": {
        "details": "Grants `role` to `account`. If `account` had not been already granted `role`, emits a {RoleGranted} event. Requirements: - the caller must have ``role``'s admin role."
      },
      "hasRole(bytes32,address)": {
        "details": "Returns `true` if `account` has been granted `role`."
      },
      "increaseAllowance(address,uint256)": {
        "details": "Atomically increases the allowance granted to `spender` by the caller. This is an alternative to {approve} that can be used as a mitigation for problems described in {IERC20-approve}. Emits an {Approval} event indicating the updated allowance. Requirements: - `spender` cannot be the zero address."
      },
      "name()": {
        "details": "Returns the name of the token."
      },
      "renounceRole(bytes32,address)": {
        "details": "Revokes `role` from the calling account. Roles are often managed via {grantRole} and {revokeRole}: this function's purpose is to provide a mechanism for accounts to lose their privileges if they are compromised (such as when a trusted device is misplaced). If the calling account had been revoked `role`, emits a {RoleRevoked} event. Requirements: - the caller must be `account`."
      },
      "revokeRole(bytes32,address)": {
        "details": "Revokes `role` from `account`. If `account` had been granted `role`, emits a {RoleRevoked} event. Requirements: - the caller must have ``role``'s admin role."
      },
      "supportsInterface(bytes4)": {
        "details": "See {IERC165-supportsInterface}."
      },
      "symbol()": {
        "details": "Returns the symbol of the token, usually a shorter version of the name."
      },
      "totalSupply()": {
        "details": "See {IERC20-totalSupply}."
      },
      "transfer(address,uint256)": {
        "details": "See {IERC20-transfer}. Requirements: - `to` cannot be the zero address. - the caller must have a balance of at least `amount`."
      },
      "transferFrom(address,address,uint256)": {
        "details": "See {IERC20-transferFrom}. Emits an {Approval} event indicating the updated allowance. This is not required by the EIP. See the note at the beginning of {ERC20}. NOTE: Does not update the allowance if the current allowance is the maximum `uint256`. Requirements: - `from` and `to` cannot be the zero address. - `from` must have a balance of at least `amount`. - the caller must have allowance for ``from``'s tokens of at least `amount`."
      }
    },
    "version": 1
  },
  "userdoc": {
    "kind": "user",
    "methods": {},
    "version": 1
  }
}