{
  "contractName": "FixedIncomeAnnuity",
  "abi": [
    {
      "inputs": [
        {
          "internalType": "address",
          "name": "_pool",
          "type": "address"
        },
        {
          "internalType": "string",
          "name": "_name",
          "type": "string"
        },
        {
          "internalType": "string",
          "name": "_symbol",
          "type": "string"
        },
        {
          "components": [
            {
              "internalType": "uint256",
              "name": "callMoney",
              "type": "uint256"
            },
            {
              "internalType": "uint256",
              "name": "callTenor",
              "type": "uint256"
            },
            {
              "internalType": "uint256",
              "name": "putMoney",
              "type": "uint256"
            },
            {
              "internalType": "uint256",
              "name": "putTenor",
              "type": "uint256"
            },
            {
              "internalType": "uint256",
              "name": "putSpread",
              "type": "uint256"
            },
            {
              "internalType": "uint256",
              "name": "tradeWindow",
              "type": "uint256"
            },
            {
              "internalType": "uint256",
              "name": "rollHour",
              "type": "uint256"
            },
            {
              "internalType": "uint256",
              "name": "leverage",
              "type": "uint256"
            },
            {
              "internalType": "uint256",
              "name": "multiplier",
              "type": "uint256"
            }
          ],
          "internalType": "struct FixedIncomeAnnuity.FIAParam",
          "name": "_params",
          "type": "tuple"
        }
      ],
      "stateMutability": "nonpayable",
      "type": "constructor"
    },
    {
      "anonymous": false,
      "inputs": [
        {
          "indexed": true,
          "internalType": "address",
          "name": "owner",
          "type": "address"
        },
        {
          "indexed": true,
          "internalType": "address",
          "name": "spender",
          "type": "address"
        },
        {
          "indexed": false,
          "internalType": "uint256",
          "name": "value",
          "type": "uint256"
        }
      ],
      "name": "Approval",
      "type": "event"
    },
    {
      "anonymous": false,
      "inputs": [
        {
          "indexed": false,
          "internalType": "address",
          "name": "investor",
          "type": "address"
        },
        {
          "indexed": false,
          "internalType": "uint256",
          "name": "tokenUnit",
          "type": "uint256"
        },
        {
          "indexed": false,
          "internalType": "uint256",
          "name": "divestAmount",
          "type": "uint256"
        }
      ],
      "name": "FIPDivest",
      "type": "event"
    },
    {
      "anonymous": false,
      "inputs": [
        {
          "indexed": false,
          "internalType": "address",
          "name": "investor",
          "type": "address"
        },
        {
          "indexed": false,
          "internalType": "uint256",
          "name": "tokenUnit",
          "type": "uint256"
        },
        {
          "indexed": false,
          "internalType": "uint256",
          "name": "investAmount",
          "type": "uint256"
        }
      ],
      "name": "FIPInvest",
      "type": "event"
    },
    {
      "anonymous": false,
      "inputs": [
        {
          "indexed": false,
          "internalType": "uint256",
          "name": "time",
          "type": "uint256"
        },
        {
          "indexed": false,
          "internalType": "uint256",
          "name": "rebTime",
          "type": "uint256"
        },
        {
          "indexed": false,
          "internalType": "bool",
          "name": "isRoll",
          "type": "bool"
        }
      ],
      "name": "FIPRoll",
      "type": "event"
    },
    {
      "anonymous": false,
      "inputs": [
        {
          "indexed": true,
          "internalType": "address",
          "name": "previousOwner",
          "type": "address"
        },
        {
          "indexed": true,
          "internalType": "address",
          "name": "newOwner",
          "type": "address"
        }
      ],
      "name": "OwnershipTransferred",
      "type": "event"
    },
    {
      "anonymous": false,
      "inputs": [
        {
          "indexed": true,
          "internalType": "address",
          "name": "from",
          "type": "address"
        },
        {
          "indexed": true,
          "internalType": "address",
          "name": "to",
          "type": "address"
        },
        {
          "indexed": false,
          "internalType": "uint256",
          "name": "value",
          "type": "uint256"
        }
      ],
      "name": "Transfer",
      "type": "event"
    },
    {
      "inputs": [
        {
          "internalType": "address",
          "name": "owner",
          "type": "address"
        },
        {
          "internalType": "address",
          "name": "spender",
          "type": "address"
        }
      ],
      "name": "allowance",
      "outputs": [
        {
          "internalType": "uint256",
          "name": "",
          "type": "uint256"
        }
      ],
      "stateMutability": "view",
      "type": "function"
    },
    {
      "inputs": [
        {
          "internalType": "address",
          "name": "spender",
          "type": "address"
        },
        {
          "internalType": "uint256",
          "name": "amount",
          "type": "uint256"
        }
      ],
      "name": "approve",
      "outputs": [
        {
          "internalType": "bool",
          "name": "",
          "type": "bool"
        }
      ],
      "stateMutability": "nonpayable",
      "type": "function"
    },
    {
      "inputs": [
        {
          "internalType": "address",
          "name": "account",
          "type": "address"
        }
      ],
      "name": "balanceOf",
      "outputs": [
        {
          "internalType": "uint256",
          "name": "",
          "type": "uint256"
        }
      ],
      "stateMutability": "view",
      "type": "function"
    },
    {
      "inputs": [],
      "name": "decimals",
      "outputs": [
        {
          "internalType": "uint8",
          "name": "",
          "type": "uint8"
        }
      ],
      "stateMutability": "view",
      "type": "function"
    },
    {
      "inputs": [
        {
          "internalType": "address",
          "name": "spender",
          "type": "address"
        },
        {
          "internalType": "uint256",
          "name": "subtractedValue",
          "type": "uint256"
        }
      ],
      "name": "decreaseAllowance",
      "outputs": [
        {
          "internalType": "bool",
          "name": "",
          "type": "bool"
        }
      ],
      "stateMutability": "nonpayable",
      "type": "function"
    },
    {
      "inputs": [],
      "name": "exchange",
      "outputs": [
        {
          "internalType": "contract Exchange",
          "name": "",
          "type": "address"
        }
      ],
      "stateMutability": "view",
      "type": "function"
    },
    {
      "inputs": [],
      "name": "fiaParams",
      "outputs": [
        {
          "internalType": "uint256",
          "name": "callMoney",
          "type": "uint256"
        },
        {
          "internalType": "uint256",
          "name": "callTenor",
          "type": "uint256"
        },
        {
          "internalType": "uint256",
          "name": "putMoney",
          "type": "uint256"
        },
        {
          "internalType": "uint256",
          "name": "putTenor",
          "type": "uint256"
        },
        {
          "internalType": "uint256",
          "name": "putSpread",
          "type": "uint256"
        },
        {
          "internalType": "uint256",
          "name": "tradeWindow",
          "type": "uint256"
        },
        {
          "internalType": "uint256",
          "name": "rollHour",
          "type": "uint256"
        },
        {
          "internalType": "uint256",
          "name": "leverage",
          "type": "uint256"
        },
        {
          "internalType": "uint256",
          "name": "multiplier",
          "type": "uint256"
        }
      ],
      "stateMutability": "view",
      "type": "function"
    },
    {
      "inputs": [],
      "name": "funding",
      "outputs": [
        {
          "internalType": "contract ERC20",
          "name": "",
          "type": "address"
        }
      ],
      "stateMutability": "view",
      "type": "function"
    },
    {
      "inputs": [],
      "name": "fundingMultiplier",
      "outputs": [
        {
          "internalType": "uint256",
          "name": "",
          "type": "uint256"
        }
      ],
      "stateMutability": "view",
      "type": "function"
    },
    {
      "inputs": [
        {
          "internalType": "address",
          "name": "spender",
          "type": "address"
        },
        {
          "internalType": "uint256",
          "name": "addedValue",
          "type": "uint256"
        }
      ],
      "name": "increaseAllowance",
      "outputs": [
        {
          "internalType": "bool",
          "name": "",
          "type": "bool"
        }
      ],
      "stateMutability": "nonpayable",
      "type": "function"
    },
    {
      "inputs": [],
      "name": "name",
      "outputs": [
        {
          "internalType": "string",
          "name": "",
          "type": "string"
        }
      ],
      "stateMutability": "view",
      "type": "function"
    },
    {
      "inputs": [],
      "name": "nextRebTime",
      "outputs": [
        {
          "internalType": "uint256",
          "name": "",
          "type": "uint256"
        }
      ],
      "stateMutability": "view",
      "type": "function"
    },
    {
      "inputs": [],
      "name": "nextVintageTime",
      "outputs": [
        {
          "internalType": "uint256",
          "name": "",
          "type": "uint256"
        }
      ],
      "stateMutability": "view",
      "type": "function"
    },
    {
      "inputs": [],
      "name": "oracle",
      "outputs": [
        {
          "internalType": "contract VolatilityChain",
          "name": "",
          "type": "address"
        }
      ],
      "stateMutability": "view",
      "type": "function"
    },
    {
      "inputs": [],
      "name": "owner",
      "outputs": [
        {
          "internalType": "address",
          "name": "",
          "type": "address"
        }
      ],
      "stateMutability": "view",
      "type": "function"
    },
    {
      "inputs": [],
      "name": "pool",
      "outputs": [
        {
          "internalType": "contract Pool",
          "name": "",
          "type": "address"
        }
      ],
      "stateMutability": "view",
      "type": "function"
    },
    {
      "inputs": [],
      "name": "renounceOwnership",
      "outputs": [],
      "stateMutability": "nonpayable",
      "type": "function"
    },
    {
      "inputs": [],
      "name": "symbol",
      "outputs": [
        {
          "internalType": "string",
          "name": "",
          "type": "string"
        }
      ],
      "stateMutability": "view",
      "type": "function"
    },
    {
      "inputs": [],
      "name": "totalSupply",
      "outputs": [
        {
          "internalType": "uint256",
          "name": "",
          "type": "uint256"
        }
      ],
      "stateMutability": "view",
      "type": "function"
    },
    {
      "inputs": [
        {
          "internalType": "address",
          "name": "to",
          "type": "address"
        },
        {
          "internalType": "uint256",
          "name": "amount",
          "type": "uint256"
        }
      ],
      "name": "transfer",
      "outputs": [
        {
          "internalType": "bool",
          "name": "",
          "type": "bool"
        }
      ],
      "stateMutability": "nonpayable",
      "type": "function"
    },
    {
      "inputs": [
        {
          "internalType": "address",
          "name": "from",
          "type": "address"
        },
        {
          "internalType": "address",
          "name": "to",
          "type": "address"
        },
        {
          "internalType": "uint256",
          "name": "amount",
          "type": "uint256"
        }
      ],
      "name": "transferFrom",
      "outputs": [
        {
          "internalType": "bool",
          "name": "",
          "type": "bool"
        }
      ],
      "stateMutability": "nonpayable",
      "type": "function"
    },
    {
      "inputs": [
        {
          "internalType": "address",
          "name": "newOwner",
          "type": "address"
        }
      ],
      "name": "transferOwnership",
      "outputs": [],
      "stateMutability": "nonpayable",
      "type": "function"
    },
    {
      "inputs": [],
      "name": "vintage",
      "outputs": [
        {
          "internalType": "uint256",
          "name": "optionAmount",
          "type": "uint256"
        },
        {
          "internalType": "uint256",
          "name": "callStrike",
          "type": "uint256"
        },
        {
          "internalType": "uint256",
          "name": "putStrike",
          "type": "uint256"
        },
        {
          "internalType": "uint256",
          "name": "putSpread",
          "type": "uint256"
        },
        {
          "internalType": "uint256",
          "name": "startLevel",
          "type": "uint256"
        },
        {
          "internalType": "uint256",
          "name": "startNAV",
          "type": "uint256"
        }
      ],
      "stateMutability": "view",
      "type": "function"
    },
    {
      "inputs": [
        {
          "components": [
            {
              "internalType": "uint256",
              "name": "callMoney",
              "type": "uint256"
            },
            {
              "internalType": "uint256",
              "name": "callTenor",
              "type": "uint256"
            },
            {
              "internalType": "uint256",
              "name": "putMoney",
              "type": "uint256"
            },
            {
              "internalType": "uint256",
              "name": "putTenor",
              "type": "uint256"
            },
            {
              "internalType": "uint256",
              "name": "putSpread",
              "type": "uint256"
            },
            {
              "internalType": "uint256",
              "name": "tradeWindow",
              "type": "uint256"
            },
            {
              "internalType": "uint256",
              "name": "rollHour",
              "type": "uint256"
            },
            {
              "internalType": "uint256",
              "name": "leverage",
              "type": "uint256"
            },
            {
              "internalType": "uint256",
              "name": "multiplier",
              "type": "uint256"
            }
          ],
          "internalType": "struct FixedIncomeAnnuity.FIAParam",
          "name": "_params",
          "type": "tuple"
        }
      ],
      "name": "setParameters",
      "outputs": [],
      "stateMutability": "nonpayable",
      "type": "function"
    },
    {
      "inputs": [
        {
          "internalType": "address",
          "name": "_pool",
          "type": "address"
        }
      ],
      "name": "updatePool",
      "outputs": [],
      "stateMutability": "nonpayable",
      "type": "function"
    },
    {
      "inputs": [
        {
          "internalType": "uint256",
          "name": "_toInvest",
          "type": "uint256"
        }
      ],
      "name": "invest",
      "outputs": [],
      "stateMutability": "nonpayable",
      "type": "function"
    },
    {
      "inputs": [
        {
          "internalType": "uint256",
          "name": "_toDivest",
          "type": "uint256"
        }
      ],
      "name": "divest",
      "outputs": [],
      "stateMutability": "nonpayable",
      "type": "function"
    },
    {
      "inputs": [],
      "name": "getRollsUnitAsset",
      "outputs": [
        {
          "internalType": "uint256",
          "name": "unitAsset",
          "type": "uint256"
        }
      ],
      "stateMutability": "view",
      "type": "function"
    },
    {
      "inputs": [],
      "name": "rollover",
      "outputs": [],
      "stateMutability": "nonpayable",
      "type": "function"
    },
    {
      "inputs": [],
      "name": "rebalance",
      "outputs": [],
      "stateMutability": "nonpayable",
      "type": "function"
    }
  ],
  "bytecode": "0x6101006040523480156200001257600080fd5b506040516200680738038062006807833981810160405281019062000038919062000a88565b82826200005a6200004e6200068d60201b60201c565b6200069560201b60201c565b81600490816200006b919062000d7a565b5080600590816200007d919062000d7a565b5050506001600681905550600073ffffffffffffffffffffffffffffffffffffffff168473ffffffffffffffffffffffffffffffffffffffff1603620000fa576040517f08c379a0000000000000000000000000000000000000000000000000000000008152600401620000f19062000ec2565b60405180910390fd5b83600760006101000a81548173ffffffffffffffffffffffffffffffffffffffff021916908373ffffffffffffffffffffffffffffffffffffffff160217905550600760009054906101000a900473ffffffffffffffffffffffffffffffffffffffff1673ffffffffffffffffffffffffffffffffffffffff1663d2f7265a6040518163ffffffff1660e01b8152600401602060405180830381865afa158015620001a9573d6000803e3d6000fd5b505050506040513d601f19601f82011682018060405250810190620001cf919062000ee4565b73ffffffffffffffffffffffffffffffffffffffff1660a08173ffffffffffffffffffffffffffffffffffffffff16815250506000600760009054906101000a900473ffffffffffffffffffffffffffffffffffffffff1673ffffffffffffffffffffffffffffffffffffffff16631f21f9af6040518163ffffffff1660e01b8152600401602060405180830381865afa15801562000272573d6000803e3d6000fd5b505050506040513d601f19601f8201168201806040525081019062000298919062000f5b565b90508073ffffffffffffffffffffffffffffffffffffffff1663c0a16f6a6040518163ffffffff1660e01b8152600401602060405180830381865afa158015620002e6573d6000803e3d6000fd5b505050506040513d601f19601f820116820180604052508101906200030c919062000fd2565b73ffffffffffffffffffffffffffffffffffffffff1660808173ffffffffffffffffffffffffffffffffffffffff16815250508073ffffffffffffffffffffffffffffffffffffffff1663cb4c86b76040518163ffffffff1660e01b8152600401602060405180830381865afa1580156200038b573d6000803e3d6000fd5b505050506040513d601f19601f82011682018060405250810190620003b1919062000ee4565b73ffffffffffffffffffffffffffffffffffffffff1660c08173ffffffffffffffffffffffffffffffffffffffff168152505060c05173ffffffffffffffffffffffffffffffffffffffff16633950935160a0517fffffffffffffffffffffffffffffffffffffffffffffffffffffffffffffffff6040518363ffffffff1660e01b81526004016200044592919062001058565b6020604051808303816000875af115801562000465573d6000803e3d6000fd5b505050506040513d601f19601f820116820180604052508101906200048b9190620010c2565b50600060c05173ffffffffffffffffffffffffffffffffffffffff1663313ce5676040518163ffffffff1660e01b8152600401602060405180830381865afa158015620004dc573d6000803e3d6000fd5b505050506040513d601f19601f8201168201806040525081019062000502919062001132565b60ff16905080600a620005169190620012e7565b60e0818152505042601781905550426018819055508261010001518360000151101580156200054e5750826101000151836040015111155b801562000562575082604001518360800151105b620005a4576040517f08c379a00000000000000000000000000000000000000000000000000000000081526004016200059b9062001388565b60405180910390fd5b600083606001518460200151620005bc9190620013d9565b1480620005de5750600083602001518460600151620005dc9190620013d9565b145b62000620576040517f08c379a0000000000000000000000000000000000000000000000000000000008152600401620006179062001461565b60405180910390fd5b826008600082015181600001556020820151816001015560408201518160020155606082015181600301556080820151816004015560a0820151816005015560c0820151816006015560e08201518160070155610100820151816008015590505050505050505062001483565b600033905090565b60008060009054906101000a900473ffffffffffffffffffffffffffffffffffffffff169050816000806101000a81548173ffffffffffffffffffffffffffffffffffffffff021916908373ffffffffffffffffffffffffffffffffffffffff1602179055508173ffffffffffffffffffffffffffffffffffffffff168173ffffffffffffffffffffffffffffffffffffffff167f8be0079c531659141344cd1fd0a4f28419497f9722a3daafe3b4186f6b6457e060405160405180910390a35050565b6000604051905090565b600080fd5b600080fd5b600073ffffffffffffffffffffffffffffffffffffffff82169050919050565b60006200079a826200076d565b9050919050565b620007ac816200078d565b8114620007b857600080fd5b50565b600081519050620007cc81620007a1565b92915050565b600080fd5b600080fd5b6000601f19601f8301169050919050565b7f4e487b7100000000000000000000000000000000000000000000000000000000600052604160045260246000fd5b6200082782620007dc565b810181811067ffffffffffffffff82111715620008495762000848620007ed565b5b80604052505050565b60006200085e62000759565b90506200086c82826200081c565b919050565b600067ffffffffffffffff8211156200088f576200088e620007ed565b5b6200089a82620007dc565b9050602081019050919050565b60005b83811015620008c7578082015181840152602081019050620008aa565b60008484015250505050565b6000620008ea620008e48462000871565b62000852565b905082815260208101848484011115620009095762000908620007d7565b5b62000916848285620008a7565b509392505050565b600082601f830112620009365762000935620007d2565b5b815162000948848260208601620008d3565b91505092915050565b600080fd5b6000819050919050565b6200096b8162000956565b81146200097757600080fd5b50565b6000815190506200098b8162000960565b92915050565b60006101208284031215620009ab57620009aa62000951565b5b620009b861012062000852565b90506000620009ca848285016200097a565b6000830152506020620009e0848285016200097a565b6020830152506040620009f6848285016200097a565b604083015250606062000a0c848285016200097a565b606083015250608062000a22848285016200097a565b60808301525060a062000a38848285016200097a565b60a08301525060c062000a4e848285016200097a565b60c08301525060e062000a64848285016200097a565b60e08301525061010062000a7b848285016200097a565b6101008301525092915050565b600080600080610180858703121562000aa65762000aa562000763565b5b600062000ab687828801620007bb565b945050602085015167ffffffffffffffff81111562000ada5762000ad962000768565b5b62000ae8878288016200091e565b935050604085015167ffffffffffffffff81111562000b0c5762000b0b62000768565b5b62000b1a878288016200091e565b925050606062000b2d8782880162000991565b91505092959194509250565b600081519050919050565b7f4e487b7100000000000000000000000000000000000000000000000000000000600052602260045260246000fd5b6000600282049050600182168062000b8c57607f821691505b60208210810362000ba25762000ba162000b44565b5b50919050565b60008190508160005260206000209050919050565b60006020601f8301049050919050565b600082821b905092915050565b60006008830262000c0c7fffffffffffffffffffffffffffffffffffffffffffffffffffffffffffffffff8262000bcd565b62000c18868362000bcd565b95508019841693508086168417925050509392505050565b6000819050919050565b600062000c5b62000c5562000c4f8462000956565b62000c30565b62000956565b9050919050565b6000819050919050565b62000c778362000c3a565b62000c8f62000c868262000c62565b84845462000bda565b825550505050565b600090565b62000ca662000c97565b62000cb381848462000c6c565b505050565b5b8181101562000cdb5762000ccf60008262000c9c565b60018101905062000cb9565b5050565b601f82111562000d2a5762000cf48162000ba8565b62000cff8462000bbd565b8101602085101562000d0f578190505b62000d2762000d1e8562000bbd565b83018262000cb8565b50505b505050565b600082821c905092915050565b600062000d4f6000198460080262000d2f565b1980831691505092915050565b600062000d6a838362000d3c565b9150826002028217905092915050565b62000d858262000b39565b67ffffffffffffffff81111562000da15762000da0620007ed565b5b62000dad825462000b73565b62000dba82828562000cdf565b600060209050601f83116001811462000df2576000841562000ddd578287015190505b62000de9858262000d5c565b86555062000e59565b601f19841662000e028662000ba8565b60005b8281101562000e2c5784890151825560018201915060208501945060208101905062000e05565b8683101562000e4c578489015162000e48601f89168262000d3c565b8355505b6001600288020188555050505b505050505050565b600082825260208201905092915050565b7f6e756c6c20706f6f6c2061646472657373000000000000000000000000000000600082015250565b600062000eaa60118362000e61565b915062000eb78262000e72565b602082019050919050565b6000602082019050818103600083015262000edd8162000e9b565b9050919050565b60006020828403121562000efd5762000efc62000763565b5b600062000f0d84828501620007bb565b91505092915050565b600062000f23826200078d565b9050919050565b62000f358162000f16565b811462000f4157600080fd5b50565b60008151905062000f558162000f2a565b92915050565b60006020828403121562000f745762000f7362000763565b5b600062000f848482850162000f44565b91505092915050565b600062000f9a826200078d565b9050919050565b62000fac8162000f8d565b811462000fb857600080fd5b50565b60008151905062000fcc8162000fa1565b92915050565b60006020828403121562000feb5762000fea62000763565b5b600062000ffb8482850162000fbb565b91505092915050565b6200100f816200078d565b82525050565b6000819050919050565b6000620010406200103a620010348462001015565b62000c30565b62000956565b9050919050565b62001052816200101f565b82525050565b60006040820190506200106f600083018562001004565b6200107e602083018462001047565b9392505050565b60008115159050919050565b6200109c8162001085565b8114620010a857600080fd5b50565b600081519050620010bc8162001091565b92915050565b600060208284031215620010db57620010da62000763565b5b6000620010eb84828501620010ab565b91505092915050565b600060ff82169050919050565b6200110c81620010f4565b81146200111857600080fd5b50565b6000815190506200112c8162001101565b92915050565b6000602082840312156200114b576200114a62000763565b5b60006200115b848285016200111b565b91505092915050565b7f4e487b7100000000000000000000000000000000000000000000000000000000600052601160045260246000fd5b60008160011c9050919050565b6000808291508390505b6001851115620011f257808604811115620011ca57620011c962001164565b5b6001851615620011da5780820291505b8081029050620011ea8562001193565b9450620011aa565b94509492505050565b6000826200120d5760019050620012e0565b816200121d5760009050620012e0565b8160018114620012365760028114620012415762001277565b6001915050620012e0565b60ff84111562001256576200125562001164565b5b8360020a91508482111562001270576200126f62001164565b5b50620012e0565b5060208310610133831016604e8410600b8410161715620012b15782820a905083811115620012ab57620012aa62001164565b5b620012e0565b620012c08484846001620011a0565b92509050818404811115620012da57620012d962001164565b5b81810290505b9392505050565b6000620012f48262000956565b9150620013018362000956565b9250620013307fffffffffffffffffffffffffffffffffffffffffffffffffffffffffffffffff8484620011fb565b905092915050565b7f57726f6e6720737472696b657300000000000000000000000000000000000000600082015250565b600062001370600d8362000e61565b91506200137d8262001338565b602082019050919050565b60006020820190508181036000830152620013a38162001361565b9050919050565b7f4e487b7100000000000000000000000000000000000000000000000000000000600052601260045260246000fd5b6000620013e68262000956565b9150620013f38362000956565b925082620014065762001405620013aa565b5b828206905092915050565b7f57726f6e672074656e6f72730000000000000000000000000000000000000000600082015250565b600062001449600c8362000e61565b9150620014568262001411565b602082019050919050565b600060208201905081810360008301526200147c816200143a565b9050919050565b60805160a05160c05160e0516152cc6200153b600039600081816106cb01528181610dfb015281816117420152611f450152600081816109c501528181610c600152818161168c01528181611aa901528181611b9301528181611e8f015261264e015260008181610ae701528181611378015281816114400152818161185a015281816121fe0152818161240a015281816124e001526126720152600081816110be015281816119600152611fc801526152cc6000f3fe608060405234801561001057600080fd5b50600436106101da5760003560e01c80637d7c2a1c11610104578063a9059cbb116100a2578063d7043caa11610071578063d7043caa14610520578063dd62ed3e1461053e578063e6dfa4b21461056e578063f2fde38b1461058c576101da565b8063a9059cbb146104aa578063b056b49a146104da578063cb4c86b7146104e4578063d2f7265a14610502576101da565b80638da5cb5b116100de5780638da5cb5b1461041b5780638da61ee01461043957806395d89b411461045c578063a457c2d71461047a576101da565b80637d7c2a1c146103d75780637dc0d1d0146103e15780638ca17995146103ff576101da565b8063276848981161017c578063448077811161014b578063448077811461036357806370a0823114610381578063715018a6146103b15780637b46c54f146103bb576101da565b806327684898146102dd5780632afcf480146102f9578063313ce567146103155780633950935114610333576101da565b806316f0115b116101b857806316f0115b1461025357806318160ddd14610271578063205a785a1461028f57806323b872dd146102ad576101da565b806306fdde03146101df578063095ea7b3146101fd57806312474a681461022d575b600080fd5b6101e76105a8565b6040516101f4919061357e565b60405180910390f35b61021760048036038101906102129190613648565b61063a565b60405161022491906136a3565b60405180910390f35b61023561065d565b60405161024a999897969594939291906136cd565b60405180910390f35b61025b610699565b60405161026891906137b9565b60405180910390f35b6102796106bf565b60405161028691906137d4565b60405180910390f35b6102976106c9565b6040516102a491906137d4565b60405180910390f35b6102c760048036038101906102c291906137ef565b6106ed565b6040516102d491906136a3565b60405180910390f35b6102f760048036038101906102f291906139a2565b61071c565b005b610313600480360381019061030e91906139d0565b6108e4565b005b61031d610a5c565b60405161032a9190613a19565b60405180910390f35b61034d60048036038101906103489190613648565b610a65565b60405161035a91906136a3565b60405180910390f35b61036b610a9c565b60405161037891906137d4565b60405180910390f35b61039b60048036038101906103969190613a34565b610e23565b6040516103a891906137d4565b60405180910390f35b6103b9610e6c565b005b6103d560048036038101906103d09190613a34565b610ef4565b005b6103df611068565b005b6103e961195e565b6040516103f69190613a82565b60405180910390f35b610419600480360381019061041491906139d0565b611982565b005b610423611c1f565b6040516104309190613aac565b60405180910390f35b610441611c48565b60405161045396959493929190613ac7565b60405180910390f35b610464611c72565b604051610471919061357e565b60405180910390f35b610494600480360381019061048f9190613648565b611d04565b6040516104a191906136a3565b60405180910390f35b6104c460048036038101906104bf9190613648565b611d7b565b6040516104d191906136a3565b60405180910390f35b6104e2611d9e565b005b6104ec61264c565b6040516104f99190613b49565b60405180910390f35b61050a612670565b6040516105179190613b85565b60405180910390f35b610528612694565b60405161053591906137d4565b60405180910390f35b61055860048036038101906105539190613ba0565b61269a565b60405161056591906137d4565b60405180910390f35b610576612721565b60405161058391906137d4565b60405180910390f35b6105a660048036038101906105a19190613a34565b612727565b005b6060600480546105b790613c0f565b80601f01602080910402602001604051908101604052809291908181526020018280546105e390613c0f565b80156106305780601f1061060557610100808354040283529160200191610630565b820191906000526020600020905b81548152906001019060200180831161061357829003601f168201915b5050505050905090565b60008061064561281e565b9050610652818585612826565b600191505092915050565b60088060000154908060010154908060020154908060030154908060040154908060050154908060060154908060070154908060080154905089565b600760009054906101000a900473ffffffffffffffffffffffffffffffffffffffff1681565b6000600354905090565b7f000000000000000000000000000000000000000000000000000000000000000081565b6000806106f861281e565b90506107058582856129ef565b610710858585612a7b565b60019150509392505050565b61072461281e565b73ffffffffffffffffffffffffffffffffffffffff16610742611c1f565b73ffffffffffffffffffffffffffffffffffffffff1614610798576040517f08c379a000000000000000000000000000000000000000000000000000000000815260040161078f90613c8c565b60405180910390fd5b8061010001518160000151101580156107ba5750806101000151816040015111155b80156107cd575080604001518160800151105b61080c576040517f08c379a000000000000000000000000000000000000000000000000000000000815260040161080390613cf8565b60405180910390fd5b6000816060015182602001516108229190613d47565b1480610841575060008160200151826060015161083f9190613d47565b145b610880576040517f08c379a000000000000000000000000000000000000000000000000000000000815260040161087790613dc4565b60405180910390fd5b806008600082015181600001556020820151816001015560408201518160020155606082015181600301556080820151816004015560a0820151816005015560c0820151816006015560e08201518160070155610100820151816008015590505050565b600260065403610929576040517f08c379a000000000000000000000000000000000000000000000000000000000815260040161092090613e30565b60405180910390fd5b6002600681905550600061093b610a9c565b905060008273__MathLib_______________________________63de7f61709091846040518363ffffffff1660e01b815260040161097a929190613e5f565b602060405180830381865af4158015610997573d6000803e3d6000fd5b505050506040513d601f19601f820116820180604052508101906109bb9190613e9d565b9050610a0a3330857f000000000000000000000000000000000000000000000000000000000000000073ffffffffffffffffffffffffffffffffffffffff16612cfd909392919063ffffffff16565b610a143382612d86565b7f041b4469fcc88a5fc7aa0e470832c45ceb7a1a5f7ffbf1ace0ffc1dd1b22cf74338285604051610a4793929190613eca565b60405180910390a15050600160068190555050565b60006012905090565b600080610a7061281e565b9050610a91818585610a82858961269a565b610a8c9190613f30565b612826565b600191505092915050565b6000601854421015610ae3576040517f08c379a0000000000000000000000000000000000000000000000000000000008152600401610ada90613fb0565b60405180910390fd5b60007f000000000000000000000000000000000000000000000000000000000000000073ffffffffffffffffffffffffffffffffffffffff1663fbfa77cf6040518163ffffffff1660e01b8152600401602060405180830381865afa158015610b50573d6000803e3d6000fd5b505050506040513d601f19601f82011682018060405250810190610b74919061400e565b73ffffffffffffffffffffffffffffffffffffffff16637be795e0600760009054906101000a900473ffffffffffffffffffffffffffffffffffffffff16306040518363ffffffff1660e01b8152600401610bd092919061403b565b600060405180830381865afa158015610bed573d6000803e3d6000fd5b505050506040513d6000823e3d601f19601f82011682018060405250810190610c169190614131565b90506000815114610c5c576040517f08c379a0000000000000000000000000000000000000000000000000000000008152600401610c53906141c6565b60405180910390fd5b60007f000000000000000000000000000000000000000000000000000000000000000073ffffffffffffffffffffffffffffffffffffffff166370a08231306040518263ffffffff1660e01b8152600401610cb79190613aac565b602060405180830381865afa158015610cd4573d6000803e3d6000fd5b505050506040513d601f19601f82011682018060405250810190610cf89190613e9d565b905060003073ffffffffffffffffffffffffffffffffffffffff166318160ddd6040518163ffffffff1660e01b8152600401602060405180830381865afa158015610d47573d6000803e3d6000fd5b505050506040513d601f19601f82011682018060405250810190610d6b9190613e9d565b90506000811115610df9578173__MathLib_______________________________63de7f61709091836040518363ffffffff1660e01b8152600401610db1929190613e5f565b602060405180830381865af4158015610dce573d6000803e3d6000fd5b505050506040513d601f19601f82011682018060405250810190610df29190613e9d565b9350610e1d565b7f000000000000000000000000000000000000000000000000000000000000000093505b50505090565b6000600160008373ffffffffffffffffffffffffffffffffffffffff1673ffffffffffffffffffffffffffffffffffffffff168152602001908152602001600020549050919050565b610e7461281e565b73ffffffffffffffffffffffffffffffffffffffff16610e92611c1f565b73ffffffffffffffffffffffffffffffffffffffff1614610ee8576040517f08c379a0000000000000000000000000000000000000000000000000000000008152600401610edf90613c8c565b60405180910390fd5b610ef26000612ee6565b565b610efc61281e565b73ffffffffffffffffffffffffffffffffffffffff16610f1a611c1f565b73ffffffffffffffffffffffffffffffffffffffff1614610f70576040517f08c379a0000000000000000000000000000000000000000000000000000000008152600401610f6790613c8c565b60405180910390fd5b601854421015610fb5576040517f08c379a0000000000000000000000000000000000000000000000000000000008152600401610fac90614232565b60405180910390fd5b600073ffffffffffffffffffffffffffffffffffffffff168173ffffffffffffffffffffffffffffffffffffffff1603611024576040517f08c379a000000000000000000000000000000000000000000000000000000000815260040161101b9061429e565b60405180910390fd5b80600760006101000a81548173ffffffffffffffffffffffffffffffffffffffff021916908373ffffffffffffffffffffffffffffffffffffffff16021790555050565b601754421015801561107b575060185442105b6110ba576040517f08c379a00000000000000000000000000000000000000000000000000000000081526004016110b19061430a565b60405180910390fd5b60007f000000000000000000000000000000000000000000000000000000000000000073ffffffffffffffffffffffffffffffffffffffff1663b0667cf86040518163ffffffff1660e01b8152600401602060405180830381865afa158015611127573d6000803e3d6000fd5b505050506040513d601f19601f8201168201806040525081019061114b9190613e9d565b90506008600301546008600101541115611509576000601160020154116111a7576040517f08c379a000000000000000000000000000000000000000000000000000000000815260040161119e90614376565b60405180910390fd5b6111ce6018546008600301546017546111c09190613f30565b612faa90919063ffffffff16565b6017819055504260175411611218576040517f08c379a000000000000000000000000000000000000000000000000000000000815260040161120f906143e2565b60405180910390fd5b6000426017546112289190614402565b905060006112ca6011600201548473__MathLib_______________________________63b3947c17909160086002015460088001546040518463ffffffff1660e01b815260040161127b93929190614436565b602060405180830381865af4158015611298573d6000803e3d6000fd5b505050506040513d601f19601f820116820180604052508101906112bc9190613e9d565b612faa90919063ffffffff16565b90506000600860040154111561143e5760008173__MathLib_______________________________63b3947c17909160086004015460086002015461130f9190614402565b6008600201546040518463ffffffff1660e01b815260040161133393929190614436565b602060405180830381865af4158015611350573d6000803e3d6000fd5b505050506040513d601f19601f820116820180604052508101906113749190613e9d565b90507f000000000000000000000000000000000000000000000000000000000000000073ffffffffffffffffffffffffffffffffffffffff166331d975d2600760009054906101000a900473ffffffffffffffffffffffffffffffffffffffff1685858560116000015460036000806040518963ffffffff1660e01b8152600401611406989796959493929190614574565b600060405180830381600087803b15801561142057600080fd5b505af1158015611434573d6000803e3d6000fd5b5050505050611502565b7f000000000000000000000000000000000000000000000000000000000000000073ffffffffffffffffffffffffffffffffffffffff166331d975d2600760009054906101000a900473ffffffffffffffffffffffffffffffffffffffff168484600060116000015460016000806040518963ffffffff1660e01b81526004016114cf98979695949392919061462d565b600060405180830381600087803b1580156114e957600080fd5b505af11580156114fd573d6000803e3d6000fd5b505050505b505061191d565b600860030154600860010154101561191c57600060116001015411611563576040517f08c379a000000000000000000000000000000000000000000000000000000000815260040161155a906146f7565b60405180910390fd5b61158a60185460086001015460175461157c9190613f30565b612faa90919063ffffffff16565b60178190555042601754116115d4576040517f08c379a00000000000000000000000000000000000000000000000000000000081526004016115cb90614763565b60405180910390fd5b6000426017546115e49190614402565b905060006116866011600101548473__MathLib_______________________________63b3947c17909160086000015460088001546040518463ffffffff1660e01b815260040161163793929190614436565b602060405180830381865af4158015611654573d6000803e3d6000fd5b505050506040513d601f19601f820116820180604052508101906116789190613e9d565b612fc390919063ffffffff16565b905060007f000000000000000000000000000000000000000000000000000000000000000073ffffffffffffffffffffffffffffffffffffffff166370a08231306040518263ffffffff1660e01b81526004016116e39190613aac565b602060405180830381865afa158015611700573d6000803e3d6000fd5b505050506040513d601f19601f820116820180604052508101906117249190613e9d565b73__MathLib_______________________________63de7f617090917f00000000000000000000000000000000000000000000000000000000000000006040518363ffffffff1660e01b815260040161177e929190613e5f565b602060405180830381865af415801561179b573d6000803e3d6000fd5b505050506040513d601f19601f820116820180604052508101906117bf9190613e9d565b905060006118566011600001548373__MathLib_______________________________63de7f61709091896040518363ffffffff1660e01b8152600401611807929190613e5f565b602060405180830381865af4158015611824573d6000803e3d6000fd5b505050506040513d601f19601f820116820180604052508101906118489190613e9d565b612faa90919063ffffffff16565b90507f000000000000000000000000000000000000000000000000000000000000000073ffffffffffffffffffffffffffffffffffffffff166331d975d2600760009054906101000a900473ffffffffffffffffffffffffffffffffffffffff1686866000866000600160006040518963ffffffff1660e01b81526004016118e598979695949392919061462d565b600060405180830381600087803b1580156118ff57600080fd5b505af1158015611913573d6000803e3d6000fd5b50505050505050505b5b7f237122ecc26db03503dc1dbb9f3131f31421dccbcf3b9cd95c3e4f89952aa8bd42601754600060405161195393929190614783565b60405180910390a150565b7f000000000000000000000000000000000000000000000000000000000000000081565b6002600654036119c7576040517f08c379a00000000000000000000000000000000000000000000000000000000081526004016119be90613e30565b60405180910390fd5b600260068190555060006119d9610a9c565b905060008273__MathLib_______________________________63fed4a0f39091846040518363ffffffff1660e01b8152600401611a18929190613e5f565b602060405180830381865af4158015611a35573d6000803e3d6000fd5b505050506040513d601f19601f82011682018060405250810190611a599190613e9d565b905082611a6533610e23565b1015611aa6576040517f08c379a0000000000000000000000000000000000000000000000000000000008152600401611a9d90614806565b60405180910390fd5b807f000000000000000000000000000000000000000000000000000000000000000073ffffffffffffffffffffffffffffffffffffffff166370a08231306040518263ffffffff1660e01b8152600401611b009190613aac565b602060405180830381865afa158015611b1d573d6000803e3d6000fd5b505050506040513d601f19601f82011682018060405250810190611b419190613e9d565b1015611b82576040517f08c379a0000000000000000000000000000000000000000000000000000000008152600401611b7990614872565b60405180910390fd5b611b8c3384612fdd565b611bd733827f000000000000000000000000000000000000000000000000000000000000000073ffffffffffffffffffffffffffffffffffffffff166131b59092919063ffffffff16565b7f9f640df38d8aaf522552ca6393f7244a2ac0fede0d9ae61c288d017daf5d8c60338483604051611c0a93929190613eca565b60405180910390a15050600160068190555050565b60008060009054906101000a900473ffffffffffffffffffffffffffffffffffffffff16905090565b60118060000154908060010154908060020154908060030154908060040154908060050154905086565b606060058054611c8190613c0f565b80601f0160208091040260200160405190810160405280929190818152602001828054611cad90613c0f565b8015611cfa5780601f10611ccf57610100808354040283529160200191611cfa565b820191906000526020600020905b815481529060010190602001808311611cdd57829003601f168201915b5050505050905090565b600080611d0f61281e565b90506000611d1d828661269a565b905083811015611d62576040517f08c379a0000000000000000000000000000000000000000000000000000000008152600401611d5990614904565b60405180910390fd5b611d6f8286868403612826565b60019250505092915050565b600080611d8661281e565b9050611d93818585612a7b565b600191505092915050565b6000600860060154611de362015180611dd562015180600860050154601854611dc79190613f30565b61323b90919063ffffffff16565b61325190919063ffffffff16565b611ded9190613f30565b905080421015611e32576040517f08c379a0000000000000000000000000000000000000000000000000000000008152600401611e2990614970565b60405180910390fd5b6000611e3c610a9c565b905060008111611e81576040517f08c379a0000000000000000000000000000000000000000000000000000000008152600401611e78906149dc565b60405180910390fd5b8060116005018190555060007f000000000000000000000000000000000000000000000000000000000000000073ffffffffffffffffffffffffffffffffffffffff166370a08231306040518263ffffffff1660e01b8152600401611ee69190613aac565b602060405180830381865afa158015611f03573d6000803e3d6000fd5b505050506040513d601f19601f82011682018060405250810190611f279190613e9d565b73__MathLib_______________________________63de7f617090917f00000000000000000000000000000000000000000000000000000000000000006040518363ffffffff1660e01b8152600401611f81929190613e5f565b602060405180830381865af4158015611f9e573d6000803e3d6000fd5b505050506040513d601f19601f82011682018060405250810190611fc29190613e9d565b905060007f000000000000000000000000000000000000000000000000000000000000000073ffffffffffffffffffffffffffffffffffffffff1663b0667cf86040518163ffffffff1660e01b8152600401602060405180830381865afa158015612031573d6000803e3d6000fd5b505050506040513d601f19601f820116820180604052508101906120559190613e9d565b9050806011600401819055508173__MathLib_______________________________63de7f61709091836040518363ffffffff1660e01b815260040161209c929190613e5f565b602060405180830381865af41580156120b9573d6000803e3d6000fd5b505050506040513d601f19601f820116820180604052508101906120dd9190613e9d565b73__MathLib_______________________________63b3947c17909160086007015460088001546040518463ffffffff1660e01b815260040161212293929190614436565b602060405180830381865af415801561213f573d6000803e3d6000fd5b505050506040513d601f19601f820116820180604052508101906121639190613e9d565b6011600001819055508073__MathLib_______________________________63b3947c17909160086000015460088001546040518463ffffffff1660e01b81526004016121b293929190614436565b602060405180830381865af41580156121cf573d6000803e3d6000fd5b505050506040513d601f19601f820116820180604052508101906121f39190613e9d565b6011600101819055507f000000000000000000000000000000000000000000000000000000000000000073ffffffffffffffffffffffffffffffffffffffff166331d975d2600760009054906101000a900473ffffffffffffffffffffffffffffffffffffffff1660086001015460116001015460006011600001546000600160006040518963ffffffff1660e01b815260040161229898979695949392919061462d565b600060405180830381600087803b1580156122b257600080fd5b505af11580156122c6573d6000803e3d6000fd5b505050508073__MathLib_______________________________63b3947c17909160086002015460088001546040518463ffffffff1660e01b815260040161231093929190614436565b602060405180830381865af415801561232d573d6000803e3d6000fd5b505050506040513d601f19601f820116820180604052508101906123519190613e9d565b601160020181905550600060086004015411156124de578073__MathLib_______________________________63b3947c17909160086004015460086002015461239b9190614402565b60088001546040518463ffffffff1660e01b81526004016123be93929190614436565b602060405180830381865af41580156123db573d6000803e3d6000fd5b505050506040513d601f19601f820116820180604052508101906123ff9190613e9d565b6011600301819055507f000000000000000000000000000000000000000000000000000000000000000073ffffffffffffffffffffffffffffffffffffffff166331d975d2600760009054906101000a900473ffffffffffffffffffffffffffffffffffffffff1660086003015460116002015460116003015460116000015460036000806040518963ffffffff1660e01b81526004016124a7989796959493929190614574565b600060405180830381600087803b1580156124c157600080fd5b505af11580156124d5573d6000803e3d6000fd5b505050506125ac565b7f000000000000000000000000000000000000000000000000000000000000000073ffffffffffffffffffffffffffffffffffffffff166331d975d2600760009054906101000a900473ffffffffffffffffffffffffffffffffffffffff16600860030154601160020154600060116000015460016000806040518963ffffffff1660e01b815260040161257998979695949392919061462d565b600060405180830381600087803b15801561259357600080fd5b505af11580156125a7573d6000803e3d6000fd5b505050505b6125c9600860030154600860010154612faa90919063ffffffff16565b426125d49190613f30565b6017819055506125f7600860030154600860010154612fc390919063ffffffff16565b426126029190613f30565b6018819055507f237122ecc26db03503dc1dbb9f3131f31421dccbcf3b9cd95c3e4f89952aa8bd42601854600160405161263e93929190614783565b60405180910390a150505050565b7f000000000000000000000000000000000000000000000000000000000000000081565b7f000000000000000000000000000000000000000000000000000000000000000081565b60185481565b6000600260008473ffffffffffffffffffffffffffffffffffffffff1673ffffffffffffffffffffffffffffffffffffffff16815260200190815260200160002060008373ffffffffffffffffffffffffffffffffffffffff1673ffffffffffffffffffffffffffffffffffffffff16815260200190815260200160002054905092915050565b60175481565b61272f61281e565b73ffffffffffffffffffffffffffffffffffffffff1661274d611c1f565b73ffffffffffffffffffffffffffffffffffffffff16146127a3576040517f08c379a000000000000000000000000000000000000000000000000000000000815260040161279a90613c8c565b60405180910390fd5b600073ffffffffffffffffffffffffffffffffffffffff168173ffffffffffffffffffffffffffffffffffffffff1603612812576040517f08c379a000000000000000000000000000000000000000000000000000000000815260040161280990614a6e565b60405180910390fd5b61281b81612ee6565b50565b600033905090565b600073ffffffffffffffffffffffffffffffffffffffff168373ffffffffffffffffffffffffffffffffffffffff1603612895576040517f08c379a000000000000000000000000000000000000000000000000000000000815260040161288c90614b00565b60405180910390fd5b600073ffffffffffffffffffffffffffffffffffffffff168273ffffffffffffffffffffffffffffffffffffffff1603612904576040517f08c379a00000000000000000000000000000000000000000000000000000000081526004016128fb90614b92565b60405180910390fd5b80600260008573ffffffffffffffffffffffffffffffffffffffff1673ffffffffffffffffffffffffffffffffffffffff16815260200190815260200160002060008473ffffffffffffffffffffffffffffffffffffffff1673ffffffffffffffffffffffffffffffffffffffff168152602001908152602001600020819055508173ffffffffffffffffffffffffffffffffffffffff168373ffffffffffffffffffffffffffffffffffffffff167f8c5be1e5ebec7d5bd14f71427d1e84f3dd0314c0f7b2291e5b200ac8c7c3b925836040516129e291906137d4565b60405180910390a3505050565b60006129fb848461269a565b90507fffffffffffffffffffffffffffffffffffffffffffffffffffffffffffffffff8114612a755781811015612a67576040517f08c379a0000000000000000000000000000000000000000000000000000000008152600401612a5e90614bfe565b60405180910390fd5b612a748484848403612826565b5b50505050565b600073ffffffffffffffffffffffffffffffffffffffff168373ffffffffffffffffffffffffffffffffffffffff1603612aea576040517f08c379a0000000000000000000000000000000000000000000000000000000008152600401612ae190614c90565b60405180910390fd5b600073ffffffffffffffffffffffffffffffffffffffff168273ffffffffffffffffffffffffffffffffffffffff1603612b59576040517f08c379a0000000000000000000000000000000000000000000000000000000008152600401612b5090614d22565b60405180910390fd5b612b64838383613267565b6000600160008573ffffffffffffffffffffffffffffffffffffffff1673ffffffffffffffffffffffffffffffffffffffff16815260200190815260200160002054905081811015612beb576040517f08c379a0000000000000000000000000000000000000000000000000000000008152600401612be290614db4565b60405180910390fd5b818103600160008673ffffffffffffffffffffffffffffffffffffffff1673ffffffffffffffffffffffffffffffffffffffff1681526020019081526020016000208190555081600160008573ffffffffffffffffffffffffffffffffffffffff1673ffffffffffffffffffffffffffffffffffffffff1681526020019081526020016000206000828254612c809190613f30565b925050819055508273ffffffffffffffffffffffffffffffffffffffff168473ffffffffffffffffffffffffffffffffffffffff167fddf252ad1be2c89b69c2b068fc378daa952ba7f163c4a11628f55a4df523b3ef84604051612ce491906137d4565b60405180910390a3612cf784848461326c565b50505050565b612d80846323b872dd60e01b858585604051602401612d1e93929190614dd4565b604051602081830303815290604052907bffffffffffffffffffffffffffffffffffffffffffffffffffffffff19166020820180517bffffffffffffffffffffffffffffffffffffffffffffffffffffffff8381831617835250505050613271565b50505050565b600073ffffffffffffffffffffffffffffffffffffffff168273ffffffffffffffffffffffffffffffffffffffff1603612df5576040517f08c379a0000000000000000000000000000000000000000000000000000000008152600401612dec90614e57565b60405180910390fd5b612e0160008383613267565b8060036000828254612e139190613f30565b9250508190555080600160008473ffffffffffffffffffffffffffffffffffffffff1673ffffffffffffffffffffffffffffffffffffffff1681526020019081526020016000206000828254612e699190613f30565b925050819055508173ffffffffffffffffffffffffffffffffffffffff16600073ffffffffffffffffffffffffffffffffffffffff167fddf252ad1be2c89b69c2b068fc378daa952ba7f163c4a11628f55a4df523b3ef83604051612ece91906137d4565b60405180910390a3612ee26000838361326c565b5050565b60008060009054906101000a900473ffffffffffffffffffffffffffffffffffffffff169050816000806101000a81548173ffffffffffffffffffffffffffffffffffffffff021916908373ffffffffffffffffffffffffffffffffffffffff1602179055508173ffffffffffffffffffffffffffffffffffffffff168173ffffffffffffffffffffffffffffffffffffffff167f8be0079c531659141344cd1fd0a4f28419497f9722a3daafe3b4186f6b6457e060405160405180910390a35050565b6000818310612fb95781612fbb565b825b905092915050565b600081831015612fd35781612fd5565b825b905092915050565b600073ffffffffffffffffffffffffffffffffffffffff168273ffffffffffffffffffffffffffffffffffffffff160361304c576040517f08c379a000000000000000000000000000000000000000000000000000000000815260040161304390614ee9565b60405180910390fd5b61305882600083613267565b6000600160008473ffffffffffffffffffffffffffffffffffffffff1673ffffffffffffffffffffffffffffffffffffffff168152602001908152602001600020549050818110156130df576040517f08c379a00000000000000000000000000000000000000000000000000000000081526004016130d690614f7b565b60405180910390fd5b818103600160008573ffffffffffffffffffffffffffffffffffffffff1673ffffffffffffffffffffffffffffffffffffffff1681526020019081526020016000208190555081600360008282546131379190614402565b92505081905550600073ffffffffffffffffffffffffffffffffffffffff168373ffffffffffffffffffffffffffffffffffffffff167fddf252ad1be2c89b69c2b068fc378daa952ba7f163c4a11628f55a4df523b3ef8460405161319c91906137d4565b60405180910390a36131b08360008461326c565b505050565b6132368363a9059cbb60e01b84846040516024016131d4929190614f9b565b604051602081830303815290604052907bffffffffffffffffffffffffffffffffffffffffffffffffffffffff19166020820180517bffffffffffffffffffffffffffffffffffffffffffffffffffffffff8381831617835250505050613271565b505050565b600081836132499190614fc4565b905092915050565b6000818361325f9190614ff5565b905092915050565b505050565b505050565b60006132d3826040518060400160405280602081526020017f5361666545524332303a206c6f772d6c6576656c2063616c6c206661696c65648152508573ffffffffffffffffffffffffffffffffffffffff166133389092919063ffffffff16565b905060008151111561333357808060200190518101906132f3919061507b565b613332576040517f08c379a00000000000000000000000000000000000000000000000000000000081526004016133299061511a565b60405180910390fd5b5b505050565b60606133478484600085613350565b90509392505050565b606082471015613395576040517f08c379a000000000000000000000000000000000000000000000000000000000815260040161338c906151ac565b60405180910390fd5b61339e85613464565b6133dd576040517f08c379a00000000000000000000000000000000000000000000000000000000081526004016133d490615218565b60405180910390fd5b6000808673ffffffffffffffffffffffffffffffffffffffff168587604051613406919061527f565b60006040518083038185875af1925050503d8060008114613443576040519150601f19603f3d011682016040523d82523d6000602084013e613448565b606091505b5091509150613458828286613487565b92505050949350505050565b6000808273ffffffffffffffffffffffffffffffffffffffff163b119050919050565b60608315613497578290506134e7565b6000835111156134aa5782518084602001fd5b816040517f08c379a00000000000000000000000000000000000000000000000000000000081526004016134de919061357e565b60405180910390fd5b9392505050565b600081519050919050565b600082825260208201905092915050565b60005b8381101561352857808201518184015260208101905061350d565b60008484015250505050565b6000601f19601f8301169050919050565b6000613550826134ee565b61355a81856134f9565b935061356a81856020860161350a565b61357381613534565b840191505092915050565b600060208201905081810360008301526135988184613545565b905092915050565b6000604051905090565b600080fd5b600080fd5b600073ffffffffffffffffffffffffffffffffffffffff82169050919050565b60006135df826135b4565b9050919050565b6135ef816135d4565b81146135fa57600080fd5b50565b60008135905061360c816135e6565b92915050565b6000819050919050565b61362581613612565b811461363057600080fd5b50565b6000813590506136428161361c565b92915050565b6000806040838503121561365f5761365e6135aa565b5b600061366d858286016135fd565b925050602061367e85828601613633565b9150509250929050565b60008115159050919050565b61369d81613688565b82525050565b60006020820190506136b86000830184613694565b92915050565b6136c781613612565b82525050565b6000610120820190506136e3600083018c6136be565b6136f0602083018b6136be565b6136fd604083018a6136be565b61370a60608301896136be565b61371760808301886136be565b61372460a08301876136be565b61373160c08301866136be565b61373e60e08301856136be565b61374c6101008301846136be565b9a9950505050505050505050565b6000819050919050565b600061377f61377a613775846135b4565b61375a565b6135b4565b9050919050565b600061379182613764565b9050919050565b60006137a382613786565b9050919050565b6137b381613798565b82525050565b60006020820190506137ce60008301846137aa565b92915050565b60006020820190506137e960008301846136be565b92915050565b600080600060608486031215613808576138076135aa565b5b6000613816868287016135fd565b9350506020613827868287016135fd565b925050604061383886828701613633565b9150509250925092565b600080fd5b7f4e487b7100000000000000000000000000000000000000000000000000000000600052604160045260246000fd5b61387f82613534565b810181811067ffffffffffffffff8211171561389e5761389d613847565b5b80604052505050565b60006138b16135a0565b90506138bd8282613876565b919050565b600061012082840312156138d9576138d8613842565b5b6138e46101206138a7565b905060006138f484828501613633565b600083015250602061390884828501613633565b602083015250604061391c84828501613633565b604083015250606061393084828501613633565b606083015250608061394484828501613633565b60808301525060a061395884828501613633565b60a08301525060c061396c84828501613633565b60c08301525060e061398084828501613633565b60e08301525061010061399584828501613633565b6101008301525092915050565b600061012082840312156139b9576139b86135aa565b5b60006139c7848285016138c2565b91505092915050565b6000602082840312156139e6576139e56135aa565b5b60006139f484828501613633565b91505092915050565b600060ff82169050919050565b613a13816139fd565b82525050565b6000602082019050613a2e6000830184613a0a565b92915050565b600060208284031215613a4a57613a496135aa565b5b6000613a58848285016135fd565b91505092915050565b6000613a6c82613786565b9050919050565b613a7c81613a61565b82525050565b6000602082019050613a976000830184613a73565b92915050565b613aa6816135d4565b82525050565b6000602082019050613ac16000830184613a9d565b92915050565b600060c082019050613adc60008301896136be565b613ae960208301886136be565b613af660408301876136be565b613b0360608301866136be565b613b1060808301856136be565b613b1d60a08301846136be565b979650505050505050565b6000613b3382613786565b9050919050565b613b4381613b28565b82525050565b6000602082019050613b5e6000830184613b3a565b92915050565b6000613b6f82613786565b9050919050565b613b7f81613b64565b82525050565b6000602082019050613b9a6000830184613b76565b92915050565b60008060408385031215613bb757613bb66135aa565b5b6000613bc5858286016135fd565b9250506020613bd6858286016135fd565b9150509250929050565b7f4e487b7100000000000000000000000000000000000000000000000000000000600052602260045260246000fd5b60006002820490506001821680613c2757607f821691505b602082108103613c3a57613c39613be0565b5b50919050565b7f4f776e61626c653a2063616c6c6572206973206e6f7420746865206f776e6572600082015250565b6000613c766020836134f9565b9150613c8182613c40565b602082019050919050565b60006020820190508181036000830152613ca581613c69565b9050919050565b7f57726f6e6720737472696b657300000000000000000000000000000000000000600082015250565b6000613ce2600d836134f9565b9150613ced82613cac565b602082019050919050565b60006020820190508181036000830152613d1181613cd5565b9050919050565b7f4e487b7100000000000000000000000000000000000000000000000000000000600052601260045260246000fd5b6000613d5282613612565b9150613d5d83613612565b925082613d6d57613d6c613d18565b5b828206905092915050565b7f57726f6e672074656e6f72730000000000000000000000000000000000000000600082015250565b6000613dae600c836134f9565b9150613db982613d78565b602082019050919050565b60006020820190508181036000830152613ddd81613da1565b9050919050565b7f5265656e7472616e637947756172643a207265656e7472616e742063616c6c00600082015250565b6000613e1a601f836134f9565b9150613e2582613de4565b602082019050919050565b60006020820190508181036000830152613e4981613e0d565b9050919050565b613e5981613612565b82525050565b6000604082019050613e746000830185613e50565b613e816020830184613e50565b9392505050565b600081519050613e978161361c565b92915050565b600060208284031215613eb357613eb26135aa565b5b6000613ec184828501613e88565b91505092915050565b6000606082019050613edf6000830186613a9d565b613eec60208301856136be565b613ef960408301846136be565b949350505050565b7f4e487b7100000000000000000000000000000000000000000000000000000000600052601160045260246000fd5b6000613f3b82613612565b9150613f4683613612565b9250828201905080821115613f5e57613f5d613f01565b5b92915050565b7f496e7665737420697320756e617661696c61626c652e00000000000000000000600082015250565b6000613f9a6016836134f9565b9150613fa582613f64565b602082019050919050565b60006020820190508181036000830152613fc981613f8d565b9050919050565b6000613fdb826135d4565b9050919050565b613feb81613fd0565b8114613ff657600080fd5b50565b60008151905061400881613fe2565b92915050565b600060208284031215614024576140236135aa565b5b600061403284828501613ff9565b91505092915050565b60006040820190506140506000830185613a9d565b61405d6020830184613a9d565b9392505050565b600080fd5b600067ffffffffffffffff82111561408457614083613847565b5b602082029050602081019050919050565b600080fd5b60006140ad6140a884614069565b6138a7565b905080838252602082019050602084028301858111156140d0576140cf614095565b5b835b818110156140f957806140e58882613e88565b8452602084019350506020810190506140d2565b5050509392505050565b600082601f83011261411857614117614064565b5b815161412884826020860161409a565b91505092915050565b600060208284031215614147576141466135aa565b5b600082015167ffffffffffffffff811115614165576141646135af565b5b61417184828501614103565b91505092915050565b7f6f7074696f6e7320796574206163746976650000000000000000000000000000600082015250565b60006141b06012836134f9565b91506141bb8261417a565b602082019050919050565b600060208201905081810360008301526141df816141a3565b9050919050565b7f78557064617465506f6f6c000000000000000000000000000000000000000000600082015250565b600061421c600b836134f9565b9150614227826141e6565b602082019050919050565b6000602082019050818103600083015261424b8161420f565b9050919050565b7f6e756c6c20706f6f6c2061646472657373000000000000000000000000000000600082015250565b60006142886011836134f9565b915061429382614252565b602082019050919050565b600060208201905081810360008301526142b78161427b565b9050919050565b7f4e6f7420666f7220726562616c616e6365000000000000000000000000000000600082015250565b60006142f46011836134f9565b91506142ff826142be565b602082019050919050565b60006020820190508181036000830152614323816142e7565b9050919050565b7f50757420737472696b6520756e73657400000000000000000000000000000000600082015250565b60006143606010836134f9565b915061436b8261432a565b602082019050919050565b6000602082019050818103600083015261438f81614353565b9050919050565b7f7075742065787069727920696e20746865207061737400000000000000000000600082015250565b60006143cc6016836134f9565b91506143d782614396565b602082019050919050565b600060208201905081810360008301526143fb816143bf565b9050919050565b600061440d82613612565b915061441883613612565b92508282039050818111156144305761442f613f01565b5b92915050565b600060608201905061444b6000830186613e50565b6144586020830185613e50565b6144656040830184613e50565b949350505050565b7f4e487b7100000000000000000000000000000000000000000000000000000000600052602160045260246000fd5b600481106144ad576144ac61446d565b5b50565b60008190506144be8261449c565b919050565b60006144ce826144b0565b9050919050565b6144de816144c3565b82525050565b600281106144f5576144f461446d565b5b50565b6000819050614506826144e4565b919050565b6000614516826144f8565b9050919050565b6145268161450b565b82525050565b6003811061453d5761453c61446d565b5b50565b600081905061454e8261452c565b919050565b600061455e82614540565b9050919050565b61456e81614553565b82525050565b60006101008201905061458a600083018b6137aa565b614597602083018a6136be565b6145a460408301896136be565b6145b160608301886136be565b6145be60808301876136be565b6145cb60a08301866144d5565b6145d860c083018561451d565b6145e560e0830184614565565b9998505050505050505050565b6000819050919050565b600061461761461261460d846145f2565b61375a565b613612565b9050919050565b614627816145fc565b82525050565b600061010082019050614643600083018b6137aa565b614650602083018a6136be565b61465d60408301896136be565b61466a606083018861461e565b61467760808301876136be565b61468460a08301866144d5565b61469160c083018561451d565b61469e60e0830184614565565b9998505050505050505050565b7f43616c6c20737472696b6520756e736574000000000000000000000000000000600082015250565b60006146e16011836134f9565b91506146ec826146ab565b602082019050919050565b60006020820190508181036000830152614710816146d4565b9050919050565b7f63616c6c2065787069727920696e207468652070617374000000000000000000600082015250565b600061474d6017836134f9565b915061475882614717565b602082019050919050565b6000602082019050818103600083015261477c81614740565b9050919050565b600060608201905061479860008301866136be565b6147a560208301856136be565b6147b26040830184613694565b949350505050565b7f45786365656420746f74616c2062616c616e6365000000000000000000000000600082015250565b60006147f06014836134f9565b91506147fb826147ba565b602082019050919050565b6000602082019050818103600083015261481f816147e3565b9050919050565b7f496e73756666696369656e742066756e64696e67000000000000000000000000600082015250565b600061485c6014836134f9565b915061486782614826565b602082019050919050565b6000602082019050818103600083015261488b8161484f565b9050919050565b7f45524332303a2064656372656173656420616c6c6f77616e63652062656c6f7760008201527f207a65726f000000000000000000000000000000000000000000000000000000602082015250565b60006148ee6025836134f9565b91506148f982614892565b604082019050919050565b6000602082019050818103600083015261491d816148e1565b9050919050565b7f7064526f6c6c7300000000000000000000000000000000000000000000000000600082015250565b600061495a6007836134f9565b915061496582614924565b602082019050919050565b600060208201905081810360008301526149898161494d565b9050919050565b7f3061737365740000000000000000000000000000000000000000000000000000600082015250565b60006149c66006836134f9565b91506149d182614990565b602082019050919050565b600060208201905081810360008301526149f5816149b9565b9050919050565b7f4f776e61626c653a206e6577206f776e657220697320746865207a65726f206160008201527f6464726573730000000000000000000000000000000000000000000000000000602082015250565b6000614a586026836134f9565b9150614a63826149fc565b604082019050919050565b60006020820190508181036000830152614a8781614a4b565b9050919050565b7f45524332303a20617070726f76652066726f6d20746865207a65726f2061646460008201527f7265737300000000000000000000000000000000000000000000000000000000602082015250565b6000614aea6024836134f9565b9150614af582614a8e565b604082019050919050565b60006020820190508181036000830152614b1981614add565b9050919050565b7f45524332303a20617070726f766520746f20746865207a65726f20616464726560008201527f7373000000000000000000000000000000000000000000000000000000000000602082015250565b6000614b7c6022836134f9565b9150614b8782614b20565b604082019050919050565b60006020820190508181036000830152614bab81614b6f565b9050919050565b7f45524332303a20696e73756666696369656e7420616c6c6f77616e6365000000600082015250565b6000614be8601d836134f9565b9150614bf382614bb2565b602082019050919050565b60006020820190508181036000830152614c1781614bdb565b9050919050565b7f45524332303a207472616e736665722066726f6d20746865207a65726f20616460008201527f6472657373000000000000000000000000000000000000000000000000000000602082015250565b6000614c7a6025836134f9565b9150614c8582614c1e565b604082019050919050565b60006020820190508181036000830152614ca981614c6d565b9050919050565b7f45524332303a207472616e7366657220746f20746865207a65726f206164647260008201527f6573730000000000000000000000000000000000000000000000000000000000602082015250565b6000614d0c6023836134f9565b9150614d1782614cb0565b604082019050919050565b60006020820190508181036000830152614d3b81614cff565b9050919050565b7f45524332303a207472616e7366657220616d6f756e742065786365656473206260008201527f616c616e63650000000000000000000000000000000000000000000000000000602082015250565b6000614d9e6026836134f9565b9150614da982614d42565b604082019050919050565b60006020820190508181036000830152614dcd81614d91565b9050919050565b6000606082019050614de96000830186613a9d565b614df66020830185613a9d565b614e0360408301846136be565b949350505050565b7f45524332303a206d696e7420746f20746865207a65726f206164647265737300600082015250565b6000614e41601f836134f9565b9150614e4c82614e0b565b602082019050919050565b60006020820190508181036000830152614e7081614e34565b9050919050565b7f45524332303a206275726e2066726f6d20746865207a65726f2061646472657360008201527f7300000000000000000000000000000000000000000000000000000000000000602082015250565b6000614ed36021836134f9565b9150614ede82614e77565b604082019050919050565b60006020820190508181036000830152614f0281614ec6565b9050919050565b7f45524332303a206275726e20616d6f756e7420657863656564732062616c616e60008201527f6365000000000000000000000000000000000000000000000000000000000000602082015250565b6000614f656022836134f9565b9150614f7082614f09565b604082019050919050565b60006020820190508181036000830152614f9481614f58565b9050919050565b6000604082019050614fb06000830185613a9d565b614fbd60208301846136be565b9392505050565b6000614fcf82613612565b9150614fda83613612565b925082614fea57614fe9613d18565b5b828204905092915050565b600061500082613612565b915061500b83613612565b9250817fffffffffffffffffffffffffffffffffffffffffffffffffffffffffffffffff048311821515161561504457615043613f01565b5b828202905092915050565b61505881613688565b811461506357600080fd5b50565b6000815190506150758161504f565b92915050565b600060208284031215615091576150906135aa565b5b600061509f84828501615066565b91505092915050565b7f5361666545524332303a204552433230206f7065726174696f6e20646964206e60008201527f6f74207375636365656400000000000000000000000000000000000000000000602082015250565b6000615104602a836134f9565b915061510f826150a8565b604082019050919050565b60006020820190508181036000830152615133816150f7565b9050919050565b7f416464726573733a20696e73756666696369656e742062616c616e636520666f60008201527f722063616c6c0000000000000000000000000000000000000000000000000000602082015250565b60006151966026836134f9565b91506151a18261513a565b604082019050919050565b600060208201905081810360008301526151c581615189565b9050919050565b7f416464726573733a2063616c6c20746f206e6f6e2d636f6e7472616374000000600082015250565b6000615202601d836134f9565b915061520d826151cc565b602082019050919050565b60006020820190508181036000830152615231816151f5565b9050919050565b600081519050919050565b600081905092915050565b600061525982615238565b6152638185615243565b935061527381856020860161350a565b80840191505092915050565b600061528b828461524e565b91508190509291505056fea2646970667358221220022a74b7122674c09b20e0c853256e5269a9c35110088568647836f46142865b64736f6c63430008100033",
  "immutableReferences": {
    "16842": [
      {
        "length": 32,
        "start": 4286
      },
      {
        "length": 32,
        "start": 6496
      },
      {
        "length": 32,
        "start": 8136
      }
    ],
    "16845": [
      {
        "length": 32,
        "start": 2791
      },
      {
        "length": 32,
        "start": 4984
      },
      {
        "length": 32,
        "start": 5184
      },
      {
        "length": 32,
        "start": 6234
      },
      {
        "length": 32,
        "start": 8702
      },
      {
        "length": 32,
        "start": 9226
      },
      {
        "length": 32,
        "start": 9440
      },
      {
        "length": 32,
        "start": 9842
      }
    ],
    "16848": [
      {
        "length": 32,
        "start": 2501
      },
      {
        "length": 32,
        "start": 3168
      },
      {
        "length": 32,
        "start": 5772
      },
      {
        "length": 32,
        "start": 6825
      },
      {
        "length": 32,
        "start": 7059
      },
      {
        "length": 32,
        "start": 7823
      },
      {
        "length": 32,
        "start": 9806
      }
    ],
    "16850": [
      {
        "length": 32,
        "start": 1739
      },
      {
        "length": 32,
        "start": 3579
      },
      {
        "length": 32,
        "start": 5954
      },
      {
        "length": 32,
        "start": 8005
      }
    ]
  },
  "source": "// SPDX-License-Identifier: MIT\npragma solidity 0.8.16;\n\nimport \"@openzeppelin/contracts/token/ERC20/ERC20.sol\";\nimport \"@openzeppelin/contracts/security/ReentrancyGuard.sol\";\nimport \"@openzeppelin/contracts/token/ERC20/utils/SafeERC20.sol\";\nimport \"@openzeppelin/contracts/utils/math/Math.sol\";\nimport \"@openzeppelin/contracts/utils/math/SafeMath.sol\";\nimport \"@openzeppelin/contracts/access/Ownable.sol\";\nimport \"../Exchange.sol\";\nimport \"../OptionVault.sol\";\nimport \"../VolatilityChain.sol\";\nimport \"../pools/MarketMaker.sol\";\nimport \"../pools/Pool.sol\";\nimport \"../libraries/MathLib.sol\";\nimport \"../libraries/OptionLib.sol\";\n\ncontract FixedIncomeAnnuity is Ownable, ERC20, ReentrancyGuard{\n    using MathLib for uint256;\n    using Math for uint256;\n    using SafeMath for uint256;\n    using SafeERC20 for ERC20;\n\n    struct FIAParam{uint256 callMoney; uint256 callTenor; uint256 putMoney; uint256 putTenor; uint256 putSpread; uint256 tradeWindow; uint256 rollHour; uint256 leverage; uint256 multiplier;}\n    struct VintageStats{uint256 optionAmount; uint256 callStrike; uint256 putStrike; uint256 putSpread; uint256 startLevel; uint256 startNAV;}\n\n    event FIPInvest(address investor, uint256 tokenUnit, uint256 investAmount);\n    event FIPDivest(address investor, uint256 tokenUnit, uint256 divestAmount);\n    event FIPRoll(uint256 time, uint256 rebTime, bool isRoll);\n\n    VolatilityChain public immutable oracle;\n    Exchange public immutable exchange;\n    ERC20 public immutable funding;\n    uint256 public immutable fundingMultiplier;\n    Pool public pool;\n\n    FIAParam public fiaParams;\n    VintageStats public vintage;\n\n    uint256 public nextRebTime; // next time for new option contracts\n    uint256 public nextVintageTime; // next time for new vintage\n    uint256 internal constant SECONDS_1D = 86400; // 24 * 60 * 60\n\n    constructor(address _pool, string memory _name, string memory _symbol, FIAParam memory _params) ERC20(_name, _symbol){\n        require(_pool != address(0), \"null pool address\");\n        pool = Pool(_pool);\n\n        exchange = Exchange(pool.exchange()); \n\n        MarketMaker market = pool.marketMaker();\n        oracle = market.getVolatilityChain();\n        \n        funding = ERC20(market.funding());\n        funding.increaseAllowance(address(exchange), 2**256 - 1);\n        uint256 fundingDecimals = funding.decimals();\n        fundingMultiplier = 10 ** fundingDecimals;\n\n        nextRebTime = block.timestamp;\n        nextVintageTime = block.timestamp;\n\n        require(_params.callMoney >= _params.multiplier && _params.putMoney <= _params.multiplier && _params.putSpread < _params.putMoney, \"Wrong strikes\");\n        require(_params.callTenor % _params.putTenor == 0 || _params.putTenor % _params.callTenor == 0, \"Wrong tenors\");\n        fiaParams = _params;\n    }\n\n    function setParameters(FIAParam memory _params) external onlyOwner {\n        require(_params.callMoney >= _params.multiplier && _params.putMoney <= _params.multiplier && _params.putSpread < _params.putMoney, \"Wrong strikes\");\n        require(_params.callTenor % _params.putTenor == 0 || _params.putTenor % _params.callTenor == 0, \"Wrong tenors\");\n        fiaParams = _params;\n    }\n\n    function updatePool(address _pool) external onlyOwner {\n        require(block.timestamp >= nextVintageTime, \"xUpdatePool\");\n        require(_pool != address(0), \"null pool address\");\n        pool = Pool(_pool);\n    }\n\n    // invest function to deposit USDC\n    // _toInvest: amount of USDC to invest during the investment window\n    function invest(uint256 _toInvest) external nonReentrant{\n        uint256 unitAsset = getRollsUnitAsset();\n        uint256 unitToMint = _toInvest.ethdiv(unitAsset);\n\n        funding.safeTransferFrom(msg.sender, address(this), _toInvest);\n        _mint(msg.sender, unitToMint);\n        emit FIPInvest(msg.sender, unitToMint, _toInvest);\n    }\n    \n    // invest function to withdraw USDC\n    // _toDivest: amount of FIP tokens to divest (by withdrawing corresponding amount of USDC) during the investment window\n    function divest(uint256 _toDivest) external nonReentrant{\n        uint256 unitAsset = getRollsUnitAsset();\n        uint256 assetToDivest = _toDivest.ethmul(unitAsset);\n\n        require(balanceOf(msg.sender) >= _toDivest, \"Exceed total balance\");\n        require(funding.balanceOf(address(this)) >= assetToDivest, \"Insufficient funding\");\n        _burn(msg.sender, _toDivest);\n        funding.safeTransfer(msg.sender, assetToDivest);\n        emit FIPDivest(msg.sender, _toDivest, assetToDivest);\n    }\n\n    function getRollsUnitAsset() public view returns(uint256 unitAsset){\n        require(block.timestamp >= nextVintageTime, \"Invest is unavailable.\");\n        uint256[] memory options = exchange.vault().getHolderOptions(address(pool), address(this));\n        require(options.length == 0, \"options yet active\");\n\n        uint256 currentAssets = funding.balanceOf(address(this));\n        uint256 currentSupply = this.totalSupply();\n        if(currentSupply>0){\n            unitAsset = currentAssets.ethdiv(currentSupply);\n        }\n        else{\n            unitAsset = fundingMultiplier;\n        }\n    }\n\n    function rollover() external{\n        uint256 nextVintageStart = (nextVintageTime + fiaParams.tradeWindow).div(SECONDS_1D).mul(SECONDS_1D) + fiaParams.rollHour;\n        require(block.timestamp >= nextVintageStart, \"pdRolls\");\n        uint256 unitAsset = getRollsUnitAsset();\n        require(unitAsset> 0, \"0asset\");\n        vintage.startNAV = unitAsset;\n\n        uint256 currentAssets = funding.balanceOf(address(this)).ethdiv(fundingMultiplier);\n        uint256 currentPrice = oracle.queryPrice();\n        vintage.startLevel = currentPrice;\n        vintage.optionAmount = currentAssets.ethdiv(currentPrice).muldiv(fiaParams.leverage, fiaParams.multiplier);\n\n        // sell call\n        vintage.callStrike = currentPrice.muldiv(fiaParams.callMoney, fiaParams.multiplier);\n        exchange.tradeOption(pool, fiaParams.callTenor, vintage.callStrike, 0, vintage.optionAmount, OptionLib.PayoffType.Call, OptionLib.OptionSide.Sell, OptionLib.PaymentMethod.USDC);\n\n        // buy put\n        vintage.putStrike = currentPrice.muldiv(fiaParams.putMoney, fiaParams.multiplier);\n        if(fiaParams.putSpread > 0){\n            vintage.putSpread = currentPrice.muldiv(fiaParams.putMoney - fiaParams.putSpread, fiaParams.multiplier);\n            exchange.tradeOption(pool, fiaParams.putTenor, vintage.putStrike, vintage.putSpread, vintage.optionAmount, OptionLib.PayoffType.PutSpread, OptionLib.OptionSide.Buy, OptionLib.PaymentMethod.USDC);\n        }\n        else{\n            exchange.tradeOption(pool, fiaParams.putTenor, vintage.putStrike, 0, vintage.optionAmount, OptionLib.PayoffType.Put, OptionLib.OptionSide.Buy, OptionLib.PaymentMethod.USDC);\n        }\n        \n        nextRebTime = block.timestamp + fiaParams.callTenor.min(fiaParams.putTenor);\n        nextVintageTime = block.timestamp + fiaParams.callTenor.max(fiaParams.putTenor);\n\n        emit FIPRoll(block.timestamp, nextVintageTime, true);\n    }\n\n    function rebalance() external {\n        require(block.timestamp >= nextRebTime && block.timestamp < nextVintageTime, \"Not for rebalance\");\n        uint256 currentPrice = oracle.queryPrice();\n        if(fiaParams.callTenor > fiaParams.putTenor){\n            require(vintage.putStrike > 0, \"Put strike unset\");\n            nextRebTime = (nextRebTime + fiaParams.putTenor).min(nextVintageTime);\n            require(nextRebTime > block.timestamp, \"put expiry in the past\");\n            uint256 tenor = nextRebTime - block.timestamp;\n            uint256 strike = currentPrice.muldiv(fiaParams.putMoney, fiaParams.multiplier).min(vintage.putStrike);\n            \n            if(fiaParams.putSpread > 0){\n                uint256 spread = strike.muldiv(fiaParams.putMoney - fiaParams.putSpread, fiaParams.putMoney);\n                exchange.tradeOption(pool, tenor, strike, spread, vintage.optionAmount, OptionLib.PayoffType.PutSpread, OptionLib.OptionSide.Buy, OptionLib.PaymentMethod.USDC);\n            }\n            else{\n                exchange.tradeOption(pool, tenor, strike, 0, vintage.optionAmount, OptionLib.PayoffType.Put, OptionLib.OptionSide.Buy, OptionLib.PaymentMethod.USDC);\n            }\n        }\n        else if (fiaParams.callTenor < fiaParams.putTenor){\n            require(vintage.callStrike > 0, \"Call strike unset\");\n            nextRebTime = (nextRebTime + fiaParams.callTenor).min(nextVintageTime);\n            require(nextRebTime > block.timestamp, \"call expiry in the past\");\n\n            uint256 tenor = nextRebTime - block.timestamp;\n            uint256 strike = currentPrice.muldiv(fiaParams.callMoney, fiaParams.multiplier).max(vintage.callStrike);\n\n            uint256 currentAssets = funding.balanceOf(address(this)).ethdiv(fundingMultiplier);\n            uint256 callOptionAmount = currentAssets.ethdiv(currentPrice).min(vintage.optionAmount);\n\n            exchange.tradeOption(pool, tenor, strike, 0, callOptionAmount, OptionLib.PayoffType.Call, OptionLib.OptionSide.Sell, OptionLib.PaymentMethod.USDC);\n        }\n\n        emit FIPRoll(block.timestamp, nextRebTime, false);\n    }\n\n\n}",
  "sourcePath": "/Users/mac/Documents/GitHub/moret/contracts/vaults/FixedIncomeAnnuity.sol",
  "compiler": {
    "name": "solc",
    "version": "0.8.16+commit.07a7930e.Emscripten.clang"
  },
  "schemaVersion": "3.4.3",
  "updatedAt": "2022-11-20T21:47:10.765Z",
  "devdoc": {
    "kind": "dev",
    "methods": {
      "allowance(address,address)": {
        "details": "See {IERC20-allowance}."
      },
      "approve(address,uint256)": {
        "details": "See {IERC20-approve}. NOTE: If `amount` is the maximum `uint256`, the allowance is not updated on `transferFrom`. This is semantically equivalent to an infinite approval. Requirements: - `spender` cannot be the zero address."
      },
      "balanceOf(address)": {
        "details": "See {IERC20-balanceOf}."
      },
      "decimals()": {
        "details": "Returns the number of decimals used to get its user representation. For example, if `decimals` equals `2`, a balance of `505` tokens should be displayed to a user as `5.05` (`505 / 10 ** 2`). Tokens usually opt for a value of 18, imitating the relationship between Ether and Wei. This is the value {ERC20} uses, unless this function is overridden; NOTE: This information is only used for _display_ purposes: it in no way affects any of the arithmetic of the contract, including {IERC20-balanceOf} and {IERC20-transfer}."
      },
      "decreaseAllowance(address,uint256)": {
        "details": "Atomically decreases the allowance granted to `spender` by the caller. This is an alternative to {approve} that can be used as a mitigation for problems described in {IERC20-approve}. Emits an {Approval} event indicating the updated allowance. Requirements: - `spender` cannot be the zero address. - `spender` must have allowance for the caller of at least `subtractedValue`."
      },
      "increaseAllowance(address,uint256)": {
        "details": "Atomically increases the allowance granted to `spender` by the caller. This is an alternative to {approve} that can be used as a mitigation for problems described in {IERC20-approve}. Emits an {Approval} event indicating the updated allowance. Requirements: - `spender` cannot be the zero address."
      },
      "name()": {
        "details": "Returns the name of the token."
      },
      "owner()": {
        "details": "Returns the address of the current owner."
      },
      "renounceOwnership()": {
        "details": "Leaves the contract without owner. It will not be possible to call `onlyOwner` functions anymore. Can only be called by the current owner. NOTE: Renouncing ownership will leave the contract without an owner, thereby removing any functionality that is only available to the owner."
      },
      "symbol()": {
        "details": "Returns the symbol of the token, usually a shorter version of the name."
      },
      "totalSupply()": {
        "details": "See {IERC20-totalSupply}."
      },
      "transfer(address,uint256)": {
        "details": "See {IERC20-transfer}. Requirements: - `to` cannot be the zero address. - the caller must have a balance of at least `amount`."
      },
      "transferFrom(address,address,uint256)": {
        "details": "See {IERC20-transferFrom}. Emits an {Approval} event indicating the updated allowance. This is not required by the EIP. See the note at the beginning of {ERC20}. NOTE: Does not update the allowance if the current allowance is the maximum `uint256`. Requirements: - `from` and `to` cannot be the zero address. - `from` must have a balance of at least `amount`. - the caller must have allowance for ``from``'s tokens of at least `amount`."
      },
      "transferOwnership(address)": {
        "details": "Transfers ownership of the contract to a new account (`newOwner`). Can only be called by the current owner."
      }
    },
    "version": 1
  },
  "userdoc": {
    "kind": "user",
    "methods": {},
    "version": 1
  }
}