{
  "contractName": "FixedIncomeAnnuity",
  "abi": [
    {
      "inputs": [
        {
          "internalType": "address",
          "name": "_pool",
          "type": "address"
        },
        {
          "internalType": "string",
          "name": "_name",
          "type": "string"
        },
        {
          "internalType": "string",
          "name": "_symbol",
          "type": "string"
        },
        {
          "components": [
            {
              "internalType": "uint256",
              "name": "callMoney",
              "type": "uint256"
            },
            {
              "internalType": "uint256",
              "name": "callTenor",
              "type": "uint256"
            },
            {
              "internalType": "uint256",
              "name": "putMoney",
              "type": "uint256"
            },
            {
              "internalType": "uint256",
              "name": "putTenor",
              "type": "uint256"
            },
            {
              "internalType": "uint256",
              "name": "putSpread",
              "type": "uint256"
            },
            {
              "internalType": "uint256",
              "name": "tradeWindow",
              "type": "uint256"
            }
          ],
          "internalType": "struct FixedIncomeAnnuity.FIAParam",
          "name": "_params",
          "type": "tuple"
        }
      ],
      "stateMutability": "nonpayable",
      "type": "constructor"
    },
    {
      "anonymous": false,
      "inputs": [
        {
          "indexed": true,
          "internalType": "address",
          "name": "owner",
          "type": "address"
        },
        {
          "indexed": true,
          "internalType": "address",
          "name": "spender",
          "type": "address"
        },
        {
          "indexed": false,
          "internalType": "uint256",
          "name": "value",
          "type": "uint256"
        }
      ],
      "name": "Approval",
      "type": "event"
    },
    {
      "anonymous": false,
      "inputs": [
        {
          "indexed": false,
          "internalType": "address",
          "name": "investor",
          "type": "address"
        },
        {
          "indexed": false,
          "internalType": "uint256",
          "name": "tokenUnit",
          "type": "uint256"
        },
        {
          "indexed": false,
          "internalType": "uint256",
          "name": "divestAmount",
          "type": "uint256"
        }
      ],
      "name": "FIPDivest",
      "type": "event"
    },
    {
      "anonymous": false,
      "inputs": [
        {
          "indexed": false,
          "internalType": "address",
          "name": "investor",
          "type": "address"
        },
        {
          "indexed": false,
          "internalType": "uint256",
          "name": "tokenUnit",
          "type": "uint256"
        },
        {
          "indexed": false,
          "internalType": "uint256",
          "name": "investAmount",
          "type": "uint256"
        }
      ],
      "name": "FIPInvest",
      "type": "event"
    },
    {
      "anonymous": false,
      "inputs": [
        {
          "indexed": false,
          "internalType": "uint256",
          "name": "time",
          "type": "uint256"
        },
        {
          "indexed": false,
          "internalType": "uint256",
          "name": "rebTime",
          "type": "uint256"
        },
        {
          "indexed": false,
          "internalType": "bool",
          "name": "rebCall",
          "type": "bool"
        }
      ],
      "name": "FIPRebalance",
      "type": "event"
    },
    {
      "anonymous": false,
      "inputs": [
        {
          "indexed": false,
          "internalType": "uint256",
          "name": "time",
          "type": "uint256"
        },
        {
          "indexed": false,
          "internalType": "uint256",
          "name": "amount",
          "type": "uint256"
        },
        {
          "indexed": false,
          "internalType": "uint256",
          "name": "rebTime",
          "type": "uint256"
        },
        {
          "indexed": false,
          "internalType": "uint256",
          "name": "vintageTime",
          "type": "uint256"
        }
      ],
      "name": "FIPRoll",
      "type": "event"
    },
    {
      "anonymous": false,
      "inputs": [
        {
          "indexed": true,
          "internalType": "address",
          "name": "previousOwner",
          "type": "address"
        },
        {
          "indexed": true,
          "internalType": "address",
          "name": "newOwner",
          "type": "address"
        }
      ],
      "name": "OwnershipTransferred",
      "type": "event"
    },
    {
      "anonymous": false,
      "inputs": [
        {
          "indexed": false,
          "internalType": "address",
          "name": "account",
          "type": "address"
        }
      ],
      "name": "Paused",
      "type": "event"
    },
    {
      "anonymous": false,
      "inputs": [
        {
          "indexed": true,
          "internalType": "address",
          "name": "from",
          "type": "address"
        },
        {
          "indexed": true,
          "internalType": "address",
          "name": "to",
          "type": "address"
        },
        {
          "indexed": false,
          "internalType": "uint256",
          "name": "value",
          "type": "uint256"
        }
      ],
      "name": "Transfer",
      "type": "event"
    },
    {
      "anonymous": false,
      "inputs": [
        {
          "indexed": false,
          "internalType": "address",
          "name": "account",
          "type": "address"
        }
      ],
      "name": "Unpaused",
      "type": "event"
    },
    {
      "inputs": [
        {
          "internalType": "address",
          "name": "owner",
          "type": "address"
        },
        {
          "internalType": "address",
          "name": "spender",
          "type": "address"
        }
      ],
      "name": "allowance",
      "outputs": [
        {
          "internalType": "uint256",
          "name": "",
          "type": "uint256"
        }
      ],
      "stateMutability": "view",
      "type": "function"
    },
    {
      "inputs": [
        {
          "internalType": "address",
          "name": "spender",
          "type": "address"
        },
        {
          "internalType": "uint256",
          "name": "amount",
          "type": "uint256"
        }
      ],
      "name": "approve",
      "outputs": [
        {
          "internalType": "bool",
          "name": "",
          "type": "bool"
        }
      ],
      "stateMutability": "nonpayable",
      "type": "function"
    },
    {
      "inputs": [
        {
          "internalType": "address",
          "name": "account",
          "type": "address"
        }
      ],
      "name": "balanceOf",
      "outputs": [
        {
          "internalType": "uint256",
          "name": "",
          "type": "uint256"
        }
      ],
      "stateMutability": "view",
      "type": "function"
    },
    {
      "inputs": [],
      "name": "decimals",
      "outputs": [
        {
          "internalType": "uint8",
          "name": "",
          "type": "uint8"
        }
      ],
      "stateMutability": "view",
      "type": "function"
    },
    {
      "inputs": [
        {
          "internalType": "address",
          "name": "spender",
          "type": "address"
        },
        {
          "internalType": "uint256",
          "name": "subtractedValue",
          "type": "uint256"
        }
      ],
      "name": "decreaseAllowance",
      "outputs": [
        {
          "internalType": "bool",
          "name": "",
          "type": "bool"
        }
      ],
      "stateMutability": "nonpayable",
      "type": "function"
    },
    {
      "inputs": [],
      "name": "exchange",
      "outputs": [
        {
          "internalType": "contract Exchange",
          "name": "",
          "type": "address"
        }
      ],
      "stateMutability": "view",
      "type": "function"
    },
    {
      "inputs": [],
      "name": "fiaParams",
      "outputs": [
        {
          "internalType": "uint256",
          "name": "callMoney",
          "type": "uint256"
        },
        {
          "internalType": "uint256",
          "name": "callTenor",
          "type": "uint256"
        },
        {
          "internalType": "uint256",
          "name": "putMoney",
          "type": "uint256"
        },
        {
          "internalType": "uint256",
          "name": "putTenor",
          "type": "uint256"
        },
        {
          "internalType": "uint256",
          "name": "putSpread",
          "type": "uint256"
        },
        {
          "internalType": "uint256",
          "name": "tradeWindow",
          "type": "uint256"
        }
      ],
      "stateMutability": "view",
      "type": "function"
    },
    {
      "inputs": [],
      "name": "funding",
      "outputs": [
        {
          "internalType": "contract ERC20",
          "name": "",
          "type": "address"
        }
      ],
      "stateMutability": "view",
      "type": "function"
    },
    {
      "inputs": [],
      "name": "fundingMultiplier",
      "outputs": [
        {
          "internalType": "uint256",
          "name": "",
          "type": "uint256"
        }
      ],
      "stateMutability": "view",
      "type": "function"
    },
    {
      "inputs": [
        {
          "internalType": "address",
          "name": "spender",
          "type": "address"
        },
        {
          "internalType": "uint256",
          "name": "addedValue",
          "type": "uint256"
        }
      ],
      "name": "increaseAllowance",
      "outputs": [
        {
          "internalType": "bool",
          "name": "",
          "type": "bool"
        }
      ],
      "stateMutability": "nonpayable",
      "type": "function"
    },
    {
      "inputs": [],
      "name": "name",
      "outputs": [
        {
          "internalType": "string",
          "name": "",
          "type": "string"
        }
      ],
      "stateMutability": "view",
      "type": "function"
    },
    {
      "inputs": [],
      "name": "nextPool",
      "outputs": [
        {
          "internalType": "address",
          "name": "",
          "type": "address"
        }
      ],
      "stateMutability": "view",
      "type": "function"
    },
    {
      "inputs": [],
      "name": "nextRebTime",
      "outputs": [
        {
          "internalType": "uint256",
          "name": "",
          "type": "uint256"
        }
      ],
      "stateMutability": "view",
      "type": "function"
    },
    {
      "inputs": [],
      "name": "nextVintageTime",
      "outputs": [
        {
          "internalType": "uint256",
          "name": "",
          "type": "uint256"
        }
      ],
      "stateMutability": "view",
      "type": "function"
    },
    {
      "inputs": [],
      "name": "optionAmount",
      "outputs": [
        {
          "internalType": "uint256",
          "name": "",
          "type": "uint256"
        }
      ],
      "stateMutability": "view",
      "type": "function"
    },
    {
      "inputs": [],
      "name": "oracle",
      "outputs": [
        {
          "internalType": "contract VolatilityChain",
          "name": "",
          "type": "address"
        }
      ],
      "stateMutability": "view",
      "type": "function"
    },
    {
      "inputs": [],
      "name": "owner",
      "outputs": [
        {
          "internalType": "address",
          "name": "",
          "type": "address"
        }
      ],
      "stateMutability": "view",
      "type": "function"
    },
    {
      "inputs": [],
      "name": "paused",
      "outputs": [
        {
          "internalType": "bool",
          "name": "",
          "type": "bool"
        }
      ],
      "stateMutability": "view",
      "type": "function"
    },
    {
      "inputs": [],
      "name": "pool",
      "outputs": [
        {
          "internalType": "contract Pool",
          "name": "",
          "type": "address"
        }
      ],
      "stateMutability": "view",
      "type": "function"
    },
    {
      "inputs": [],
      "name": "renounceOwnership",
      "outputs": [],
      "stateMutability": "nonpayable",
      "type": "function"
    },
    {
      "inputs": [],
      "name": "symbol",
      "outputs": [
        {
          "internalType": "string",
          "name": "",
          "type": "string"
        }
      ],
      "stateMutability": "view",
      "type": "function"
    },
    {
      "inputs": [],
      "name": "tokenAddress",
      "outputs": [
        {
          "internalType": "address",
          "name": "",
          "type": "address"
        }
      ],
      "stateMutability": "view",
      "type": "function"
    },
    {
      "inputs": [],
      "name": "totalSupply",
      "outputs": [
        {
          "internalType": "uint256",
          "name": "",
          "type": "uint256"
        }
      ],
      "stateMutability": "view",
      "type": "function"
    },
    {
      "inputs": [
        {
          "internalType": "address",
          "name": "to",
          "type": "address"
        },
        {
          "internalType": "uint256",
          "name": "amount",
          "type": "uint256"
        }
      ],
      "name": "transfer",
      "outputs": [
        {
          "internalType": "bool",
          "name": "",
          "type": "bool"
        }
      ],
      "stateMutability": "nonpayable",
      "type": "function"
    },
    {
      "inputs": [
        {
          "internalType": "address",
          "name": "from",
          "type": "address"
        },
        {
          "internalType": "address",
          "name": "to",
          "type": "address"
        },
        {
          "internalType": "uint256",
          "name": "amount",
          "type": "uint256"
        }
      ],
      "name": "transferFrom",
      "outputs": [
        {
          "internalType": "bool",
          "name": "",
          "type": "bool"
        }
      ],
      "stateMutability": "nonpayable",
      "type": "function"
    },
    {
      "inputs": [
        {
          "internalType": "address",
          "name": "newOwner",
          "type": "address"
        }
      ],
      "name": "transferOwnership",
      "outputs": [],
      "stateMutability": "nonpayable",
      "type": "function"
    },
    {
      "inputs": [],
      "name": "vault",
      "outputs": [
        {
          "internalType": "contract OptionVault",
          "name": "",
          "type": "address"
        }
      ],
      "stateMutability": "view",
      "type": "function"
    },
    {
      "inputs": [],
      "name": "vintageCallStrike",
      "outputs": [
        {
          "internalType": "uint256",
          "name": "",
          "type": "uint256"
        }
      ],
      "stateMutability": "view",
      "type": "function"
    },
    {
      "inputs": [],
      "name": "vintagePutSpread",
      "outputs": [
        {
          "internalType": "uint256",
          "name": "",
          "type": "uint256"
        }
      ],
      "stateMutability": "view",
      "type": "function"
    },
    {
      "inputs": [],
      "name": "vintagePutStrike",
      "outputs": [
        {
          "internalType": "uint256",
          "name": "",
          "type": "uint256"
        }
      ],
      "stateMutability": "view",
      "type": "function"
    },
    {
      "inputs": [],
      "name": "vintageStartLevel",
      "outputs": [
        {
          "internalType": "uint256",
          "name": "",
          "type": "uint256"
        }
      ],
      "stateMutability": "view",
      "type": "function"
    },
    {
      "inputs": [],
      "name": "vintageStartNAV",
      "outputs": [
        {
          "internalType": "uint256",
          "name": "",
          "type": "uint256"
        }
      ],
      "stateMutability": "view",
      "type": "function"
    },
    {
      "inputs": [
        {
          "components": [
            {
              "internalType": "uint256",
              "name": "callMoney",
              "type": "uint256"
            },
            {
              "internalType": "uint256",
              "name": "callTenor",
              "type": "uint256"
            },
            {
              "internalType": "uint256",
              "name": "putMoney",
              "type": "uint256"
            },
            {
              "internalType": "uint256",
              "name": "putTenor",
              "type": "uint256"
            },
            {
              "internalType": "uint256",
              "name": "putSpread",
              "type": "uint256"
            },
            {
              "internalType": "uint256",
              "name": "tradeWindow",
              "type": "uint256"
            }
          ],
          "internalType": "struct FixedIncomeAnnuity.FIAParam",
          "name": "_params",
          "type": "tuple"
        }
      ],
      "name": "setParameters",
      "outputs": [],
      "stateMutability": "nonpayable",
      "type": "function"
    },
    {
      "inputs": [
        {
          "internalType": "address",
          "name": "_pool",
          "type": "address"
        }
      ],
      "name": "updatePool",
      "outputs": [],
      "stateMutability": "nonpayable",
      "type": "function"
    },
    {
      "inputs": [
        {
          "internalType": "uint256",
          "name": "_toInvest",
          "type": "uint256"
        }
      ],
      "name": "invest",
      "outputs": [],
      "stateMutability": "nonpayable",
      "type": "function"
    },
    {
      "inputs": [
        {
          "internalType": "uint256",
          "name": "_toDivest",
          "type": "uint256"
        }
      ],
      "name": "divest",
      "outputs": [],
      "stateMutability": "nonpayable",
      "type": "function"
    },
    {
      "inputs": [],
      "name": "getRollsUnitAsset",
      "outputs": [
        {
          "internalType": "uint256",
          "name": "unitAsset",
          "type": "uint256"
        }
      ],
      "stateMutability": "view",
      "type": "function"
    },
    {
      "inputs": [],
      "name": "rollover",
      "outputs": [],
      "stateMutability": "nonpayable",
      "type": "function"
    },
    {
      "inputs": [],
      "name": "rebalance",
      "outputs": [],
      "stateMutability": "nonpayable",
      "type": "function"
    }
  ],
  "bytecode": "0x610140604052620f4240600f557fffffffffffffffffffffffffffffffffffffffffffffffffffffffffffffffff6010553480156200003d57600080fd5b50604051620071bb380380620071bb833981810160405281019062000063919062000bd5565b828262000085620000796200082060201b60201c565b6200082860201b60201c565b60008060146101000a81548160ff0219169083151502179055508160049081620000b0919062000ec7565b508060059081620000c2919062000ec7565b5050506001600681905550600073ffffffffffffffffffffffffffffffffffffffff168473ffffffffffffffffffffffffffffffffffffffff16036200013f576040517f08c379a000000000000000000000000000000000000000000000000000000000815260040162000136906200100f565b60405180910390fd5b83600760006101000a81548173ffffffffffffffffffffffffffffffffffffffff021916908373ffffffffffffffffffffffffffffffffffffffff16021790555083600860006101000a81548173ffffffffffffffffffffffffffffffffffffffff021916908373ffffffffffffffffffffffffffffffffffffffff1602179055506000600760009054906101000a900473ffffffffffffffffffffffffffffffffffffffff1673ffffffffffffffffffffffffffffffffffffffff16631f21f9af6040518163ffffffff1660e01b8152600401602060405180830381865afa15801562000231573d6000803e3d6000fd5b505050506040513d601f19601f8201168201806040525081019062000257919062001076565b90508073ffffffffffffffffffffffffffffffffffffffff16636f307dc36040518163ffffffff1660e01b8152600401602060405180830381865afa158015620002a5573d6000803e3d6000fd5b505050506040513d601f19601f82011682018060405250810190620002cb9190620010a8565b73ffffffffffffffffffffffffffffffffffffffff1660e08173ffffffffffffffffffffffffffffffffffffffff1681525050600760009054906101000a900473ffffffffffffffffffffffffffffffffffffffff1673ffffffffffffffffffffffffffffffffffffffff1663d2f7265a6040518163ffffffff1660e01b8152600401602060405180830381865afa1580156200036c573d6000803e3d6000fd5b505050506040513d601f19601f82011682018060405250810190620003929190620010a8565b73ffffffffffffffffffffffffffffffffffffffff1660a08173ffffffffffffffffffffffffffffffffffffffff168152505060a05173ffffffffffffffffffffffffffffffffffffffff1663fbfa77cf6040518163ffffffff1660e01b8152600401602060405180830381865afa15801562000413573d6000803e3d6000fd5b505050506040513d601f19601f820116820180604052508101906200043991906200111f565b73ffffffffffffffffffffffffffffffffffffffff1660c08173ffffffffffffffffffffffffffffffffffffffff16815250508073ffffffffffffffffffffffffffffffffffffffff1663cb4c86b76040518163ffffffff1660e01b8152600401602060405180830381865afa158015620004b8573d6000803e3d6000fd5b505050506040513d601f19601f82011682018060405250810190620004de9190620010a8565b73ffffffffffffffffffffffffffffffffffffffff166101008173ffffffffffffffffffffffffffffffffffffffff16815250508073ffffffffffffffffffffffffffffffffffffffff1663c0a16f6a6040518163ffffffff1660e01b8152600401602060405180830381865afa1580156200055e573d6000803e3d6000fd5b505050506040513d601f19601f8201168201806040525081019062000584919062001196565b73ffffffffffffffffffffffffffffffffffffffff1660808173ffffffffffffffffffffffffffffffffffffffff16815250506101005173ffffffffffffffffffffffffffffffffffffffff16633950935160a0516010546040518363ffffffff1660e01b8152600401620005fb929190620011ea565b6020604051808303816000875af11580156200061b573d6000803e3d6000fd5b505050506040513d601f19601f8201168201806040525081019062000641919062001254565b5060006101005173ffffffffffffffffffffffffffffffffffffffff1663313ce5676040518163ffffffff1660e01b8152600401602060405180830381865afa15801562000693573d6000803e3d6000fd5b505050506040513d601f19601f82011682018060405250810190620006b99190620012c4565b60ff16905080600a620006cd919062001479565b61012081815250504260118190555042601281905550600f54836000015110158015620007005750600f54836040015111155b801562000714575082604001518360800151105b62000756576040517f08c379a00000000000000000000000000000000000000000000000000000000081526004016200074d906200151a565b60405180910390fd5b6000836060015184602001516200076e91906200156b565b14806200079057506000836020015184606001516200078e91906200156b565b145b620007d2576040517f08c379a0000000000000000000000000000000000000000000000000000000008152600401620007c990620015f3565b60405180910390fd5b826009600082015181600001556020820151816001015560408201518160020155606082015181600301556080820151816004015560a0820151816005015590505050505050505062001615565b600033905090565b60008060009054906101000a900473ffffffffffffffffffffffffffffffffffffffff169050816000806101000a81548173ffffffffffffffffffffffffffffffffffffffff021916908373ffffffffffffffffffffffffffffffffffffffff1602179055508173ffffffffffffffffffffffffffffffffffffffff168173ffffffffffffffffffffffffffffffffffffffff167f8be0079c531659141344cd1fd0a4f28419497f9722a3daafe3b4186f6b6457e060405160405180910390a35050565b6000604051905090565b600080fd5b600080fd5b600073ffffffffffffffffffffffffffffffffffffffff82169050919050565b60006200092d8262000900565b9050919050565b6200093f8162000920565b81146200094b57600080fd5b50565b6000815190506200095f8162000934565b92915050565b600080fd5b600080fd5b6000601f19601f8301169050919050565b7f4e487b7100000000000000000000000000000000000000000000000000000000600052604160045260246000fd5b620009ba826200096f565b810181811067ffffffffffffffff82111715620009dc57620009db62000980565b5b80604052505050565b6000620009f1620008ec565b9050620009ff8282620009af565b919050565b600067ffffffffffffffff82111562000a225762000a2162000980565b5b62000a2d826200096f565b9050602081019050919050565b60005b8381101562000a5a57808201518184015260208101905062000a3d565b60008484015250505050565b600062000a7d62000a778462000a04565b620009e5565b90508281526020810184848401111562000a9c5762000a9b6200096a565b5b62000aa984828562000a3a565b509392505050565b600082601f83011262000ac95762000ac862000965565b5b815162000adb84826020860162000a66565b91505092915050565b600080fd5b6000819050919050565b62000afe8162000ae9565b811462000b0a57600080fd5b50565b60008151905062000b1e8162000af3565b92915050565b600060c0828403121562000b3d5762000b3c62000ae4565b5b62000b4960c0620009e5565b9050600062000b5b8482850162000b0d565b600083015250602062000b718482850162000b0d565b602083015250604062000b878482850162000b0d565b604083015250606062000b9d8482850162000b0d565b606083015250608062000bb38482850162000b0d565b60808301525060a062000bc98482850162000b0d565b60a08301525092915050565b600080600080610120858703121562000bf35762000bf2620008f6565b5b600062000c03878288016200094e565b945050602085015167ffffffffffffffff81111562000c275762000c26620008fb565b5b62000c358782880162000ab1565b935050604085015167ffffffffffffffff81111562000c595762000c58620008fb565b5b62000c678782880162000ab1565b925050606062000c7a8782880162000b24565b91505092959194509250565b600081519050919050565b7f4e487b7100000000000000000000000000000000000000000000000000000000600052602260045260246000fd5b6000600282049050600182168062000cd957607f821691505b60208210810362000cef5762000cee62000c91565b5b50919050565b60008190508160005260206000209050919050565b60006020601f8301049050919050565b600082821b905092915050565b60006008830262000d597fffffffffffffffffffffffffffffffffffffffffffffffffffffffffffffffff8262000d1a565b62000d65868362000d1a565b95508019841693508086168417925050509392505050565b6000819050919050565b600062000da862000da262000d9c8462000ae9565b62000d7d565b62000ae9565b9050919050565b6000819050919050565b62000dc48362000d87565b62000ddc62000dd38262000daf565b84845462000d27565b825550505050565b600090565b62000df362000de4565b62000e0081848462000db9565b505050565b5b8181101562000e285762000e1c60008262000de9565b60018101905062000e06565b5050565b601f82111562000e775762000e418162000cf5565b62000e4c8462000d0a565b8101602085101562000e5c578190505b62000e7462000e6b8562000d0a565b83018262000e05565b50505b505050565b600082821c905092915050565b600062000e9c6000198460080262000e7c565b1980831691505092915050565b600062000eb7838362000e89565b9150826002028217905092915050565b62000ed28262000c86565b67ffffffffffffffff81111562000eee5762000eed62000980565b5b62000efa825462000cc0565b62000f0782828562000e2c565b600060209050601f83116001811462000f3f576000841562000f2a578287015190505b62000f36858262000ea9565b86555062000fa6565b601f19841662000f4f8662000cf5565b60005b8281101562000f795784890151825560018201915060208501945060208101905062000f52565b8683101562000f99578489015162000f95601f89168262000e89565b8355505b6001600288020188555050505b505050505050565b600082825260208201905092915050565b7f6e756c6c20706f6f6c2061646472657373000000000000000000000000000000600082015250565b600062000ff760118362000fae565b9150620010048262000fbf565b602082019050919050565b600060208201905081810360008301526200102a8162000fe8565b9050919050565b60006200103e8262000920565b9050919050565b620010508162001031565b81146200105c57600080fd5b50565b600081519050620010708162001045565b92915050565b6000602082840312156200108f576200108e620008f6565b5b60006200109f848285016200105f565b91505092915050565b600060208284031215620010c157620010c0620008f6565b5b6000620010d1848285016200094e565b91505092915050565b6000620010e78262000920565b9050919050565b620010f981620010da565b81146200110557600080fd5b50565b6000815190506200111981620010ee565b92915050565b600060208284031215620011385762001137620008f6565b5b6000620011488482850162001108565b91505092915050565b60006200115e8262000920565b9050919050565b620011708162001151565b81146200117c57600080fd5b50565b600081519050620011908162001165565b92915050565b600060208284031215620011af57620011ae620008f6565b5b6000620011bf848285016200117f565b91505092915050565b620011d38162000920565b82525050565b620011e48162000ae9565b82525050565b6000604082019050620012016000830185620011c8565b620012106020830184620011d9565b9392505050565b60008115159050919050565b6200122e8162001217565b81146200123a57600080fd5b50565b6000815190506200124e8162001223565b92915050565b6000602082840312156200126d576200126c620008f6565b5b60006200127d848285016200123d565b91505092915050565b600060ff82169050919050565b6200129e8162001286565b8114620012aa57600080fd5b50565b600081519050620012be8162001293565b92915050565b600060208284031215620012dd57620012dc620008f6565b5b6000620012ed84828501620012ad565b91505092915050565b7f4e487b7100000000000000000000000000000000000000000000000000000000600052601160045260246000fd5b60008160011c9050919050565b6000808291508390505b600185111562001384578086048111156200135c576200135b620012f6565b5b60018516156200136c5780820291505b80810290506200137c8562001325565b94506200133c565b94509492505050565b6000826200139f576001905062001472565b81620013af576000905062001472565b8160018114620013c85760028114620013d35762001409565b600191505062001472565b60ff841115620013e857620013e7620012f6565b5b8360020a915084821115620014025762001401620012f6565b5b5062001472565b5060208310610133831016604e8410600b8410161715620014435782820a9050838111156200143d576200143c620012f6565b5b62001472565b62001452848484600162001332565b925090508184048111156200146c576200146b620012f6565b5b81810290505b9392505050565b6000620014868262000ae9565b9150620014938362000ae9565b9250620014c27fffffffffffffffffffffffffffffffffffffffffffffffffffffffffffffffff84846200138d565b905092915050565b7f57726f6e6720737472696b657300000000000000000000000000000000000000600082015250565b600062001502600d8362000fae565b91506200150f82620014ca565b602082019050919050565b600060208201905081810360008301526200153581620014f3565b9050919050565b7f4e487b7100000000000000000000000000000000000000000000000000000000600052601260045260246000fd5b6000620015788262000ae9565b9150620015858362000ae9565b9250826200159857620015976200153c565b5b828206905092915050565b7f57726f6e672074656e6f72730000000000000000000000000000000000000000600082015250565b6000620015db600c8362000fae565b9150620015e882620015a3565b602082019050919050565b600060208201905081810360008301526200160e81620015cc565b9050919050565b60805160a05160c05160e0516101005161012051615ac3620016f86000396000818161082701528181610d530152818161181c01528181611e71015261270801526000818161097f01528181610bb80152818161176601528181611dbb015281816121d5015281816122bf015281816126520152612e0601526000612408015260008181610aad0152612fde015260008181610f6001528181611a7801528181611b3c01528181611f86015281816129d101528181612bcd01528181612c9a0152612e2a01526000818161155c0152818161208c015261278b0152615ac36000f3fe608060405234801561001057600080fd5b506004361061023c5760003560e01c8063715018a61161013b578063a9059cbb116100b8578063dd62ed3e1161007c578063dd62ed3e1461066a578063e696ce291461069a578063e6dfa4b2146106b8578063f2fde38b146106d6578063fbfa77cf146106f25761023c565b8063a9059cbb146105d6578063b056b49a14610606578063cb4c86b714610610578063d2f7265a1461062e578063d7043caa1461064c5761023c565b80638ca17995116100ff5780638ca17995146105305780638da5cb5b1461054c57806395d89b411461056a5780639d76ea5814610588578063a457c2d7146105a65761023c565b8063715018a6146104c65780637b46c54f146104d05780637bd32f19146104ec5780637d7c2a1c146105085780637dc0d1d0146105125761023c565b80632afcf480116101c9578063448077811161018d578063448077811461041e578063567a2bfd1461043c5780635c975abb1461045a578063657c932a1461047857806370a08231146104965761023c565b80632afcf4801461037857806330e690cd14610394578063313ce567146103b25780633639f263146103d057806339509351146103ee5761023c565b806316f0115b1161021057806316f0115b146102d057806318160ddd146102ee578063205a785a1461030c57806323b872dd1461032a578063243d65851461035a5761023c565b8062ee9ae81461024157806306fdde031461025f578063095ea7b31461027d57806312474a68146102ad575b600080fd5b610249610710565b6040516102569190613cbd565b60405180910390f35b610267610716565b6040516102749190613d68565b60405180910390f35b61029760048036038101906102929190613e28565b6107a8565b6040516102a49190613e83565b60405180910390f35b6102b56107cb565b6040516102c796959493929190613e9e565b60405180910390f35b6102d86107f5565b6040516102e59190613f5e565b60405180910390f35b6102f661081b565b6040516103039190613cbd565b60405180910390f35b610314610825565b6040516103219190613cbd565b60405180910390f35b610344600480360381019061033f9190613f79565b610849565b6040516103519190613e83565b60405180910390f35b610362610878565b60405161036f9190613fdb565b60405180910390f35b610392600480360381019061038d9190613ff6565b61089e565b005b61039c610a16565b6040516103a99190613cbd565b60405180910390f35b6103ba610a1c565b6040516103c7919061403f565b60405180910390f35b6103d8610a25565b6040516103e59190613cbd565b60405180910390f35b61040860048036038101906104039190613e28565b610a2b565b6040516104159190613e83565b60405180910390f35b610426610a62565b6040516104339190613cbd565b60405180910390f35b610444610d7b565b6040516104519190613cbd565b60405180910390f35b610462610d81565b60405161046f9190613e83565b60405180910390f35b610480610d97565b60405161048d9190613cbd565b60405180910390f35b6104b060048036038101906104ab919061405a565b610d9d565b6040516104bd9190613cbd565b60405180910390f35b6104ce610de6565b005b6104ea60048036038101906104e5919061405a565b610e6e565b005b610506600480360381019061050191906141a7565b6112e7565b005b61051061148a565b005b61051a61208a565b60405161052791906141f5565b60405180910390f35b61054a60048036038101906105459190613ff6565b6120ae565b005b61055461234b565b6040516105619190613fdb565b60405180910390f35b610572612374565b60405161057f9190613d68565b60405180910390f35b610590612406565b60405161059d9190613fdb565b60405180910390f35b6105c060048036038101906105bb9190613e28565b61242a565b6040516105cd9190613e83565b60405180910390f35b6105f060048036038101906105eb9190613e28565b6124a1565b6040516105fd9190613e83565b60405180910390f35b61060e6124c4565b005b610618612e04565b6040516106259190614231565b60405180910390f35b610636612e28565b604051610643919061426d565b60405180910390f35b610654612e4c565b6040516106619190613cbd565b60405180910390f35b610684600480360381019061067f9190614288565b612e52565b6040516106919190613cbd565b60405180910390f35b6106a2612ed9565b6040516106af9190613cbd565b60405180910390f35b6106c0612edf565b6040516106cd9190613cbd565b60405180910390f35b6106f060048036038101906106eb919061405a565b612ee5565b005b6106fa612fdc565b60405161070791906142e9565b60405180910390f35b60155481565b60606004805461072590614333565b80601f016020809104026020016040519081016040528092919081815260200182805461075190614333565b801561079e5780601f106107735761010080835404028352916020019161079e565b820191906000526020600020905b81548152906001019060200180831161078157829003601f168201915b5050505050905090565b6000806107b3613000565b90506107c0818585613008565b600191505092915050565b60098060000154908060010154908060020154908060030154908060040154908060050154905086565b600760009054906101000a900473ffffffffffffffffffffffffffffffffffffffff1681565b6000600354905090565b7f000000000000000000000000000000000000000000000000000000000000000081565b600080610854613000565b90506108618582856131d1565b61086c85858561325d565b60019150509392505050565b600860009054906101000a900473ffffffffffffffffffffffffffffffffffffffff1681565b6002600654036108e3576040517f08c379a00000000000000000000000000000000000000000000000000000000081526004016108da906143b0565b60405180910390fd5b600260068190555060006108f5610a62565b905060008273__MathLib_______________________________63de7f61709091846040518363ffffffff1660e01b81526004016109349291906143df565b602060405180830381865af4158015610951573d6000803e3d6000fd5b505050506040513d601f19601f82011682018060405250810190610975919061441d565b90506109c43330857f000000000000000000000000000000000000000000000000000000000000000073ffffffffffffffffffffffffffffffffffffffff166134df909392919063ffffffff16565b6109ce3382613568565b7f041b4469fcc88a5fc7aa0e470832c45ceb7a1a5f7ffbf1ace0ffc1dd1b22cf74338285604051610a019392919061444a565b60405180910390a15050600160068190555050565b60175481565b60006012905090565b60145481565b600080610a36613000565b9050610a57818585610a488589612e52565b610a5291906144b0565b613008565b600191505092915050565b6000601254421015610aa9576040517f08c379a0000000000000000000000000000000000000000000000000000000008152600401610aa090614530565b60405180910390fd5b60007f000000000000000000000000000000000000000000000000000000000000000073ffffffffffffffffffffffffffffffffffffffff16637be795e0600760009054906101000a900473ffffffffffffffffffffffffffffffffffffffff16306040518363ffffffff1660e01b8152600401610b28929190614550565b600060405180830381865afa158015610b45573d6000803e3d6000fd5b505050506040513d6000823e3d601f19601f82011682018060405250810190610b6e9190614646565b90506000815114610bb4576040517f08c379a0000000000000000000000000000000000000000000000000000000008152600401610bab906146db565b60405180910390fd5b60007f000000000000000000000000000000000000000000000000000000000000000073ffffffffffffffffffffffffffffffffffffffff166370a08231306040518263ffffffff1660e01b8152600401610c0f9190613fdb565b602060405180830381865afa158015610c2c573d6000803e3d6000fd5b505050506040513d601f19601f82011682018060405250810190610c50919061441d565b905060003073ffffffffffffffffffffffffffffffffffffffff166318160ddd6040518163ffffffff1660e01b8152600401602060405180830381865afa158015610c9f573d6000803e3d6000fd5b505050506040513d601f19601f82011682018060405250810190610cc3919061441d565b90506000811115610d51578173__MathLib_______________________________63de7f61709091836040518363ffffffff1660e01b8152600401610d099291906143df565b602060405180830381865af4158015610d26573d6000803e3d6000fd5b505050506040513d601f19601f82011682018060405250810190610d4a919061441d565b9350610d75565b7f000000000000000000000000000000000000000000000000000000000000000093505b50505090565b60185481565b60008060149054906101000a900460ff16905090565b60165481565b6000600160008373ffffffffffffffffffffffffffffffffffffffff1673ffffffffffffffffffffffffffffffffffffffff168152602001908152602001600020549050919050565b610dee613000565b73ffffffffffffffffffffffffffffffffffffffff16610e0c61234b565b73ffffffffffffffffffffffffffffffffffffffff1614610e62576040517f08c379a0000000000000000000000000000000000000000000000000000000008152600401610e5990614747565b60405180910390fd5b610e6c60006136c8565b565b610e76613000565b73ffffffffffffffffffffffffffffffffffffffff16610e9461234b565b73ffffffffffffffffffffffffffffffffffffffff1614610eea576040517f08c379a0000000000000000000000000000000000000000000000000000000008152600401610ee190614747565b60405180910390fd5b600073ffffffffffffffffffffffffffffffffffffffff168173ffffffffffffffffffffffffffffffffffffffff1603610f59576040517f08c379a0000000000000000000000000000000000000000000000000000000008152600401610f50906147b3565b60405180910390fd5b60008190507f000000000000000000000000000000000000000000000000000000000000000073ffffffffffffffffffffffffffffffffffffffff168173ffffffffffffffffffffffffffffffffffffffff1663d2f7265a6040518163ffffffff1660e01b8152600401602060405180830381865afa158015610fe0573d6000803e3d6000fd5b505050506040513d601f19601f8201168201806040525081019061100491906147e8565b73ffffffffffffffffffffffffffffffffffffffff161461105a576040517f08c379a000000000000000000000000000000000000000000000000000000000815260040161105190614861565b60405180910390fd5b600760009054906101000a900473ffffffffffffffffffffffffffffffffffffffff1673ffffffffffffffffffffffffffffffffffffffff16631f21f9af6040518163ffffffff1660e01b8152600401602060405180830381865afa1580156110c7573d6000803e3d6000fd5b505050506040513d601f19601f820116820180604052508101906110eb91906148bf565b73ffffffffffffffffffffffffffffffffffffffff166305268cff6040518163ffffffff1660e01b8152600401602060405180830381865afa158015611135573d6000803e3d6000fd5b505050506040513d601f19601f82011682018060405250810190611159919061492a565b73ffffffffffffffffffffffffffffffffffffffff168173ffffffffffffffffffffffffffffffffffffffff16631f21f9af6040518163ffffffff1660e01b8152600401602060405180830381865afa1580156111ba573d6000803e3d6000fd5b505050506040513d601f19601f820116820180604052508101906111de91906148bf565b73ffffffffffffffffffffffffffffffffffffffff166305268cff6040518163ffffffff1660e01b8152600401602060405180830381865afa158015611228573d6000803e3d6000fd5b505050506040513d601f19601f8201168201806040525081019061124c919061492a565b73ffffffffffffffffffffffffffffffffffffffff16146112a2576040517f08c379a0000000000000000000000000000000000000000000000000000000008152600401611299906149a3565b60405180910390fd5b81600860006101000a81548173ffffffffffffffffffffffffffffffffffffffff021916908373ffffffffffffffffffffffffffffffffffffffff1602179055505050565b6112ef613000565b73ffffffffffffffffffffffffffffffffffffffff1661130d61234b565b73ffffffffffffffffffffffffffffffffffffffff1614611363576040517f08c379a000000000000000000000000000000000000000000000000000000000815260040161135a90614747565b60405180910390fd5b600f5481600001511015801561137f5750600f54816040015111155b8015611392575080604001518160800151105b6113d1576040517f08c379a00000000000000000000000000000000000000000000000000000000081526004016113c890614a0f565b60405180910390fd5b6000816060015182602001516113e79190614a5e565b148061140657506000816020015182606001516114049190614a5e565b145b611445576040517f08c379a000000000000000000000000000000000000000000000000000000000815260040161143c90614adb565b60405180910390fd5b806009600082015181600001556020820151816001015560408201518160020155606082015181600301556080820151816004015560a0820151816005015590505050565b611492613000565b73ffffffffffffffffffffffffffffffffffffffff166114b061234b565b73ffffffffffffffffffffffffffffffffffffffff1614611506576040517f08c379a00000000000000000000000000000000000000000000000000000000081526004016114fd90614747565b60405180910390fd5b6011544210158015611519575060125442105b611558576040517f08c379a000000000000000000000000000000000000000000000000000000000815260040161154f90614b47565b60405180910390fd5b60007f000000000000000000000000000000000000000000000000000000000000000073ffffffffffffffffffffffffffffffffffffffff1663b0667cf86040518163ffffffff1660e01b8152600401602060405180830381865afa1580156115c5573d6000803e3d6000fd5b505050506040513d601f19601f820116820180604052508101906115e9919061441d565b90506009600301546009600101541115611c4057600060155411611642576040517f08c379a000000000000000000000000000000000000000000000000000000000815260040161163990614bb3565b60405180910390fd5b61166960125460096003015460115461165b91906144b0565b61378c90919063ffffffff16565b60118190555042601154116116b3576040517f08c379a00000000000000000000000000000000000000000000000000000000081526004016116aa90614c1f565b60405180910390fd5b6000426011546116c39190614c3f565b905060006117606015548473__MathLib_______________________________63b3947c179091600960020154600f546040518463ffffffff1660e01b815260040161171193929190614c73565b602060405180830381865af415801561172e573d6000803e3d6000fd5b505050506040513d601f19601f82011682018060405250810190611752919061441d565b61378c90919063ffffffff16565b905060007f000000000000000000000000000000000000000000000000000000000000000073ffffffffffffffffffffffffffffffffffffffff166370a08231306040518263ffffffff1660e01b81526004016117bd9190613fdb565b602060405180830381865afa1580156117da573d6000803e3d6000fd5b505050506040513d601f19601f820116820180604052508101906117fe919061441d565b73__MathLib_______________________________63de7f617090917f00000000000000000000000000000000000000000000000000000000000000006040518363ffffffff1660e01b81526004016118589291906143df565b602060405180830381865af4158015611875573d6000803e3d6000fd5b505050506040513d601f19601f82011682018060405250810190611899919061441d565b905060006119466013548373__MathLib_______________________________63b3947c179091600f546009600401546009600201546118d99190614c3f565b6040518463ffffffff1660e01b81526004016118f793929190614c73565b602060405180830381865af4158015611914573d6000803e3d6000fd5b505050506040513d601f19601f82011682018060405250810190611938919061441d565b61378c90919063ffffffff16565b73__MathLib_______________________________63de7f61709091876040518363ffffffff1660e01b81526004016119809291906143df565b602060405180830381865af415801561199d573d6000803e3d6000fd5b505050506040513d601f19601f820116820180604052508101906119c1919061441d565b905060006009600401541115611b3a5760008373__MathLib_______________________________63b3947c179091600960040154600960020154611a069190614c3f565b6009600201546040518463ffffffff1660e01b8152600401611a2a93929190614c73565b602060405180830381865af4158015611a47573d6000803e3d6000fd5b505050506040513d601f19601f82011682018060405250810190611a6b919061441d565b90506000821115611b34577f000000000000000000000000000000000000000000000000000000000000000073ffffffffffffffffffffffffffffffffffffffff166331d975d2600760009054906101000a900473ffffffffffffffffffffffffffffffffffffffff168787858760036000806040518963ffffffff1660e01b8152600401611b01989796959493929190614db1565b600060405180830381600087803b158015611b1b57600080fd5b505af1158015611b2f573d6000803e3d6000fd5b505050505b50611bf9565b7f000000000000000000000000000000000000000000000000000000000000000073ffffffffffffffffffffffffffffffffffffffff166331d975d2600760009054906101000a900473ffffffffffffffffffffffffffffffffffffffff16868660008660016000806040518963ffffffff1660e01b8152600401611bc6989796959493929190614e6a565b600060405180830381600087803b158015611be057600080fd5b505af1158015611bf4573d6000803e3d6000fd5b505050505b7f11ed8f4e72c5286d61e8ce5fb2afd18eea97697d3ef276868dd75fcdd4e700e4426011546000604051611c2f93929190614ee8565b60405180910390a150505050612087565b600960030154600960010154101561208657600060145411611c97576040517f08c379a0000000000000000000000000000000000000000000000000000000008152600401611c8e90614f6b565b60405180910390fd5b611cbe601254600960010154601154611cb091906144b0565b61378c90919063ffffffff16565b6011819055504260115411611d08576040517f08c379a0000000000000000000000000000000000000000000000000000000008152600401611cff90614fd7565b60405180910390fd5b600042601154611d189190614c3f565b90506000611db56014548473__MathLib_______________________________63b3947c179091600960000154600f546040518463ffffffff1660e01b8152600401611d6693929190614c73565b602060405180830381865af4158015611d83573d6000803e3d6000fd5b505050506040513d601f19601f82011682018060405250810190611da7919061441d565b6137a590919063ffffffff16565b905060007f000000000000000000000000000000000000000000000000000000000000000073ffffffffffffffffffffffffffffffffffffffff166370a08231306040518263ffffffff1660e01b8152600401611e129190613fdb565b602060405180830381865afa158015611e2f573d6000803e3d6000fd5b505050506040513d601f19601f82011682018060405250810190611e53919061441d565b73__MathLib_______________________________63de7f617090917f00000000000000000000000000000000000000000000000000000000000000006040518363ffffffff1660e01b8152600401611ead9291906143df565b602060405180830381865af4158015611eca573d6000803e3d6000fd5b505050506040513d601f19601f82011682018060405250810190611eee919061441d565b90506000611f826013548373__MathLib_______________________________63de7f61709091896040518363ffffffff1660e01b8152600401611f339291906143df565b602060405180830381865af4158015611f50573d6000803e3d6000fd5b505050506040513d601f19601f82011682018060405250810190611f74919061441d565b61378c90919063ffffffff16565b90507f000000000000000000000000000000000000000000000000000000000000000073ffffffffffffffffffffffffffffffffffffffff166331d975d2600760009054906101000a900473ffffffffffffffffffffffffffffffffffffffff1686866000866000600160006040518963ffffffff1660e01b8152600401612011989796959493929190614e6a565b600060405180830381600087803b15801561202b57600080fd5b505af115801561203f573d6000803e3d6000fd5b505050507f11ed8f4e72c5286d61e8ce5fb2afd18eea97697d3ef276868dd75fcdd4e700e442601154600160405161207993929190614ee8565b60405180910390a1505050505b5b50565b7f000000000000000000000000000000000000000000000000000000000000000081565b6002600654036120f3576040517f08c379a00000000000000000000000000000000000000000000000000000000081526004016120ea906143b0565b60405180910390fd5b60026006819055506000612105610a62565b905060008273__MathLib_______________________________63fed4a0f39091846040518363ffffffff1660e01b81526004016121449291906143df565b602060405180830381865af4158015612161573d6000803e3d6000fd5b505050506040513d601f19601f82011682018060405250810190612185919061441d565b90508261219133610d9d565b10156121d2576040517f08c379a00000000000000000000000000000000000000000000000000000000081526004016121c990615043565b60405180910390fd5b807f000000000000000000000000000000000000000000000000000000000000000073ffffffffffffffffffffffffffffffffffffffff166370a08231306040518263ffffffff1660e01b815260040161222c9190613fdb565b602060405180830381865afa158015612249573d6000803e3d6000fd5b505050506040513d601f19601f8201168201806040525081019061226d919061441d565b10156122ae576040517f08c379a00000000000000000000000000000000000000000000000000000000081526004016122a5906150af565b60405180910390fd5b6122b833846137bf565b61230333827f000000000000000000000000000000000000000000000000000000000000000073ffffffffffffffffffffffffffffffffffffffff166139979092919063ffffffff16565b7f9f640df38d8aaf522552ca6393f7244a2ac0fede0d9ae61c288d017daf5d8c603384836040516123369392919061444a565b60405180910390a15050600160068190555050565b60008060009054906101000a900473ffffffffffffffffffffffffffffffffffffffff16905090565b60606005805461238390614333565b80601f01602080910402602001604051908101604052809291908181526020018280546123af90614333565b80156123fc5780601f106123d1576101008083540402835291602001916123fc565b820191906000526020600020905b8154815290600101906020018083116123df57829003601f168201915b5050505050905090565b7f000000000000000000000000000000000000000000000000000000000000000081565b600080612435613000565b905060006124438286612e52565b905083811015612488576040517f08c379a000000000000000000000000000000000000000000000000000000000815260040161247f90615141565b60405180910390fd5b6124958286868403613008565b60019250505092915050565b6000806124ac613000565b90506124b981858561325d565b600191505092915050565b6124cc613000565b73ffffffffffffffffffffffffffffffffffffffff166124ea61234b565b73ffffffffffffffffffffffffffffffffffffffff1614612540576040517f08c379a000000000000000000000000000000000000000000000000000000000815260040161253790614747565b60405180910390fd5b60096005015460125461255391906144b0565b421015612595576040517f08c379a000000000000000000000000000000000000000000000000000000000815260040161258c906151ad565b60405180910390fd5b600061259f610a62565b9050600081116125e4576040517f08c379a00000000000000000000000000000000000000000000000000000000081526004016125db90615219565b60405180910390fd5b80601881905550600860009054906101000a900473ffffffffffffffffffffffffffffffffffffffff16600760006101000a81548173ffffffffffffffffffffffffffffffffffffffff021916908373ffffffffffffffffffffffffffffffffffffffff16021790555060007f000000000000000000000000000000000000000000000000000000000000000073ffffffffffffffffffffffffffffffffffffffff166370a08231306040518263ffffffff1660e01b81526004016126a99190613fdb565b602060405180830381865afa1580156126c6573d6000803e3d6000fd5b505050506040513d601f19601f820116820180604052508101906126ea919061441d565b73__MathLib_______________________________63de7f617090917f00000000000000000000000000000000000000000000000000000000000000006040518363ffffffff1660e01b81526004016127449291906143df565b602060405180830381865af4158015612761573d6000803e3d6000fd5b505050506040513d601f19601f82011682018060405250810190612785919061441d565b905060007f000000000000000000000000000000000000000000000000000000000000000073ffffffffffffffffffffffffffffffffffffffff1663b0667cf86040518163ffffffff1660e01b8152600401602060405180830381865afa1580156127f4573d6000803e3d6000fd5b505050506040513d601f19601f82011682018060405250810190612818919061441d565b9050806017819055508173__MathLib_______________________________63b3947c179091600f54600960040154600960020154600f5461285a91906144b0565b6128649190614c3f565b6040518463ffffffff1660e01b815260040161288293929190614c73565b602060405180830381865af415801561289f573d6000803e3d6000fd5b505050506040513d601f19601f820116820180604052508101906128c3919061441d565b73__MathLib_______________________________63de7f61709091836040518363ffffffff1660e01b81526004016128fd9291906143df565b602060405180830381865af415801561291a573d6000803e3d6000fd5b505050506040513d601f19601f8201168201806040525081019061293e919061441d565b6013819055508073__MathLib_______________________________63b3947c179091600960000154600f546040518463ffffffff1660e01b815260040161298893929190614c73565b602060405180830381865af41580156129a5573d6000803e3d6000fd5b505050506040513d601f19601f820116820180604052508101906129c9919061441d565b6014819055507f000000000000000000000000000000000000000000000000000000000000000073ffffffffffffffffffffffffffffffffffffffff166331d975d2600760009054906101000a900473ffffffffffffffffffffffffffffffffffffffff1660096001015460145460006013546000600160006040518963ffffffff1660e01b8152600401612a65989796959493929190614e6a565b600060405180830381600087803b158015612a7f57600080fd5b505af1158015612a93573d6000803e3d6000fd5b505050508073__MathLib_______________________________63b3947c179091600960020154600f546040518463ffffffff1660e01b8152600401612adb93929190614c73565b602060405180830381865af4158015612af8573d6000803e3d6000fd5b505050506040513d601f19601f82011682018060405250810190612b1c919061441d565b60158190555060006009600401541115612c98578073__MathLib_______________________________63b3947c179091600960040154600960020154612b639190614c3f565b600f546040518463ffffffff1660e01b8152600401612b8493929190614c73565b602060405180830381865af4158015612ba1573d6000803e3d6000fd5b505050506040513d601f19601f82011682018060405250810190612bc5919061441d565b6016819055507f000000000000000000000000000000000000000000000000000000000000000073ffffffffffffffffffffffffffffffffffffffff166331d975d2600760009054906101000a900473ffffffffffffffffffffffffffffffffffffffff1660096003015460155460165460135460036000806040518963ffffffff1660e01b8152600401612c61989796959493929190614db1565b600060405180830381600087803b158015612c7b57600080fd5b505af1158015612c8f573d6000803e3d6000fd5b50505050612d60565b7f000000000000000000000000000000000000000000000000000000000000000073ffffffffffffffffffffffffffffffffffffffff166331d975d2600760009054906101000a900473ffffffffffffffffffffffffffffffffffffffff16600960030154601554600060135460016000806040518963ffffffff1660e01b8152600401612d2d989796959493929190614e6a565b600060405180830381600087803b158015612d4757600080fd5b505af1158015612d5b573d6000803e3d6000fd5b505050505b612d7d60096003015460096001015461378c90919063ffffffff16565b42612d8891906144b0565b601181905550612dab6009600301546009600101546137a590919063ffffffff16565b42612db691906144b0565b6012819055507fbb4d5787ec0cb5f96d4351c29be25db163ec9629d10a69758f835fc8cf782db942601354601154601254604051612df79493929190615239565b60405180910390a1505050565b7f000000000000000000000000000000000000000000000000000000000000000081565b7f000000000000000000000000000000000000000000000000000000000000000081565b60125481565b6000600260008473ffffffffffffffffffffffffffffffffffffffff1673ffffffffffffffffffffffffffffffffffffffff16815260200190815260200160002060008373ffffffffffffffffffffffffffffffffffffffff1673ffffffffffffffffffffffffffffffffffffffff16815260200190815260200160002054905092915050565b60135481565b60115481565b612eed613000565b73ffffffffffffffffffffffffffffffffffffffff16612f0b61234b565b73ffffffffffffffffffffffffffffffffffffffff1614612f61576040517f08c379a0000000000000000000000000000000000000000000000000000000008152600401612f5890614747565b60405180910390fd5b600073ffffffffffffffffffffffffffffffffffffffff168173ffffffffffffffffffffffffffffffffffffffff1603612fd0576040517f08c379a0000000000000000000000000000000000000000000000000000000008152600401612fc7906152f0565b60405180910390fd5b612fd9816136c8565b50565b7f000000000000000000000000000000000000000000000000000000000000000081565b600033905090565b600073ffffffffffffffffffffffffffffffffffffffff168373ffffffffffffffffffffffffffffffffffffffff1603613077576040517f08c379a000000000000000000000000000000000000000000000000000000000815260040161306e90615382565b60405180910390fd5b600073ffffffffffffffffffffffffffffffffffffffff168273ffffffffffffffffffffffffffffffffffffffff16036130e6576040517f08c379a00000000000000000000000000000000000000000000000000000000081526004016130dd90615414565b60405180910390fd5b80600260008573ffffffffffffffffffffffffffffffffffffffff1673ffffffffffffffffffffffffffffffffffffffff16815260200190815260200160002060008473ffffffffffffffffffffffffffffffffffffffff1673ffffffffffffffffffffffffffffffffffffffff168152602001908152602001600020819055508173ffffffffffffffffffffffffffffffffffffffff168373ffffffffffffffffffffffffffffffffffffffff167f8c5be1e5ebec7d5bd14f71427d1e84f3dd0314c0f7b2291e5b200ac8c7c3b925836040516131c49190613cbd565b60405180910390a3505050565b60006131dd8484612e52565b90507fffffffffffffffffffffffffffffffffffffffffffffffffffffffffffffffff81146132575781811015613249576040517f08c379a000000000000000000000000000000000000000000000000000000000815260040161324090615480565b60405180910390fd5b6132568484848403613008565b5b50505050565b600073ffffffffffffffffffffffffffffffffffffffff168373ffffffffffffffffffffffffffffffffffffffff16036132cc576040517f08c379a00000000000000000000000000000000000000000000000000000000081526004016132c390615512565b60405180910390fd5b600073ffffffffffffffffffffffffffffffffffffffff168273ffffffffffffffffffffffffffffffffffffffff160361333b576040517f08c379a0000000000000000000000000000000000000000000000000000000008152600401613332906155a4565b60405180910390fd5b613346838383613a1d565b6000600160008573ffffffffffffffffffffffffffffffffffffffff1673ffffffffffffffffffffffffffffffffffffffff168152602001908152602001600020549050818110156133cd576040517f08c379a00000000000000000000000000000000000000000000000000000000081526004016133c490615636565b60405180910390fd5b818103600160008673ffffffffffffffffffffffffffffffffffffffff1673ffffffffffffffffffffffffffffffffffffffff1681526020019081526020016000208190555081600160008573ffffffffffffffffffffffffffffffffffffffff1673ffffffffffffffffffffffffffffffffffffffff168152602001908152602001600020600082825461346291906144b0565b925050819055508273ffffffffffffffffffffffffffffffffffffffff168473ffffffffffffffffffffffffffffffffffffffff167fddf252ad1be2c89b69c2b068fc378daa952ba7f163c4a11628f55a4df523b3ef846040516134c69190613cbd565b60405180910390a36134d9848484613a22565b50505050565b613562846323b872dd60e01b85858560405160240161350093929190615656565b604051602081830303815290604052907bffffffffffffffffffffffffffffffffffffffffffffffffffffffff19166020820180517bffffffffffffffffffffffffffffffffffffffffffffffffffffffff8381831617835250505050613a27565b50505050565b600073ffffffffffffffffffffffffffffffffffffffff168273ffffffffffffffffffffffffffffffffffffffff16036135d7576040517f08c379a00000000000000000000000000000000000000000000000000000000081526004016135ce906156d9565b60405180910390fd5b6135e360008383613a1d565b80600360008282546135f591906144b0565b9250508190555080600160008473ffffffffffffffffffffffffffffffffffffffff1673ffffffffffffffffffffffffffffffffffffffff168152602001908152602001600020600082825461364b91906144b0565b925050819055508173ffffffffffffffffffffffffffffffffffffffff16600073ffffffffffffffffffffffffffffffffffffffff167fddf252ad1be2c89b69c2b068fc378daa952ba7f163c4a11628f55a4df523b3ef836040516136b09190613cbd565b60405180910390a36136c460008383613a22565b5050565b60008060009054906101000a900473ffffffffffffffffffffffffffffffffffffffff169050816000806101000a81548173ffffffffffffffffffffffffffffffffffffffff021916908373ffffffffffffffffffffffffffffffffffffffff1602179055508173ffffffffffffffffffffffffffffffffffffffff168173ffffffffffffffffffffffffffffffffffffffff167f8be0079c531659141344cd1fd0a4f28419497f9722a3daafe3b4186f6b6457e060405160405180910390a35050565b600081831061379b578161379d565b825b905092915050565b6000818310156137b557816137b7565b825b905092915050565b600073ffffffffffffffffffffffffffffffffffffffff168273ffffffffffffffffffffffffffffffffffffffff160361382e576040517f08c379a00000000000000000000000000000000000000000000000000000000081526004016138259061576b565b60405180910390fd5b61383a82600083613a1d565b6000600160008473ffffffffffffffffffffffffffffffffffffffff1673ffffffffffffffffffffffffffffffffffffffff168152602001908152602001600020549050818110156138c1576040517f08c379a00000000000000000000000000000000000000000000000000000000081526004016138b8906157fd565b60405180910390fd5b818103600160008573ffffffffffffffffffffffffffffffffffffffff1673ffffffffffffffffffffffffffffffffffffffff1681526020019081526020016000208190555081600360008282546139199190614c3f565b92505081905550600073ffffffffffffffffffffffffffffffffffffffff168373ffffffffffffffffffffffffffffffffffffffff167fddf252ad1be2c89b69c2b068fc378daa952ba7f163c4a11628f55a4df523b3ef8460405161397e9190613cbd565b60405180910390a361399283600084613a22565b505050565b613a188363a9059cbb60e01b84846040516024016139b692919061581d565b604051602081830303815290604052907bffffffffffffffffffffffffffffffffffffffffffffffffffffffff19166020820180517bffffffffffffffffffffffffffffffffffffffffffffffffffffffff8381831617835250505050613a27565b505050565b505050565b505050565b6000613a89826040518060400160405280602081526020017f5361666545524332303a206c6f772d6c6576656c2063616c6c206661696c65648152508573ffffffffffffffffffffffffffffffffffffffff16613aee9092919063ffffffff16565b9050600081511115613ae95780806020019051810190613aa99190615872565b613ae8576040517f08c379a0000000000000000000000000000000000000000000000000000000008152600401613adf90615911565b60405180910390fd5b5b505050565b6060613afd8484600085613b06565b90509392505050565b606082471015613b4b576040517f08c379a0000000000000000000000000000000000000000000000000000000008152600401613b42906159a3565b60405180910390fd5b613b5485613c1a565b613b93576040517f08c379a0000000000000000000000000000000000000000000000000000000008152600401613b8a90615a0f565b60405180910390fd5b6000808673ffffffffffffffffffffffffffffffffffffffff168587604051613bbc9190615a76565b60006040518083038185875af1925050503d8060008114613bf9576040519150601f19603f3d011682016040523d82523d6000602084013e613bfe565b606091505b5091509150613c0e828286613c3d565b92505050949350505050565b6000808273ffffffffffffffffffffffffffffffffffffffff163b119050919050565b60608315613c4d57829050613c9d565b600083511115613c605782518084602001fd5b816040517f08c379a0000000000000000000000000000000000000000000000000000000008152600401613c949190613d68565b60405180910390fd5b9392505050565b6000819050919050565b613cb781613ca4565b82525050565b6000602082019050613cd26000830184613cae565b92915050565b600081519050919050565b600082825260208201905092915050565b60005b83811015613d12578082015181840152602081019050613cf7565b60008484015250505050565b6000601f19601f8301169050919050565b6000613d3a82613cd8565b613d448185613ce3565b9350613d54818560208601613cf4565b613d5d81613d1e565b840191505092915050565b60006020820190508181036000830152613d828184613d2f565b905092915050565b6000604051905090565b600080fd5b600080fd5b600073ffffffffffffffffffffffffffffffffffffffff82169050919050565b6000613dc982613d9e565b9050919050565b613dd981613dbe565b8114613de457600080fd5b50565b600081359050613df681613dd0565b92915050565b613e0581613ca4565b8114613e1057600080fd5b50565b600081359050613e2281613dfc565b92915050565b60008060408385031215613e3f57613e3e613d94565b5b6000613e4d85828601613de7565b9250506020613e5e85828601613e13565b9150509250929050565b60008115159050919050565b613e7d81613e68565b82525050565b6000602082019050613e986000830184613e74565b92915050565b600060c082019050613eb36000830189613cae565b613ec06020830188613cae565b613ecd6040830187613cae565b613eda6060830186613cae565b613ee76080830185613cae565b613ef460a0830184613cae565b979650505050505050565b6000819050919050565b6000613f24613f1f613f1a84613d9e565b613eff565b613d9e565b9050919050565b6000613f3682613f09565b9050919050565b6000613f4882613f2b565b9050919050565b613f5881613f3d565b82525050565b6000602082019050613f736000830184613f4f565b92915050565b600080600060608486031215613f9257613f91613d94565b5b6000613fa086828701613de7565b9350506020613fb186828701613de7565b9250506040613fc286828701613e13565b9150509250925092565b613fd581613dbe565b82525050565b6000602082019050613ff06000830184613fcc565b92915050565b60006020828403121561400c5761400b613d94565b5b600061401a84828501613e13565b91505092915050565b600060ff82169050919050565b61403981614023565b82525050565b60006020820190506140546000830184614030565b92915050565b6000602082840312156140705761406f613d94565b5b600061407e84828501613de7565b91505092915050565b600080fd5b7f4e487b7100000000000000000000000000000000000000000000000000000000600052604160045260246000fd5b6140c482613d1e565b810181811067ffffffffffffffff821117156140e3576140e261408c565b5b80604052505050565b60006140f6613d8a565b905061410282826140bb565b919050565b600060c0828403121561411d5761411c614087565b5b61412760c06140ec565b9050600061413784828501613e13565b600083015250602061414b84828501613e13565b602083015250604061415f84828501613e13565b604083015250606061417384828501613e13565b606083015250608061418784828501613e13565b60808301525060a061419b84828501613e13565b60a08301525092915050565b600060c082840312156141bd576141bc613d94565b5b60006141cb84828501614107565b91505092915050565b60006141df82613f2b565b9050919050565b6141ef816141d4565b82525050565b600060208201905061420a60008301846141e6565b92915050565b600061421b82613f2b565b9050919050565b61422b81614210565b82525050565b60006020820190506142466000830184614222565b92915050565b600061425782613f2b565b9050919050565b6142678161424c565b82525050565b6000602082019050614282600083018461425e565b92915050565b6000806040838503121561429f5761429e613d94565b5b60006142ad85828601613de7565b92505060206142be85828601613de7565b9150509250929050565b60006142d382613f2b565b9050919050565b6142e3816142c8565b82525050565b60006020820190506142fe60008301846142da565b92915050565b7f4e487b7100000000000000000000000000000000000000000000000000000000600052602260045260246000fd5b6000600282049050600182168061434b57607f821691505b60208210810361435e5761435d614304565b5b50919050565b7f5265656e7472616e637947756172643a207265656e7472616e742063616c6c00600082015250565b600061439a601f83613ce3565b91506143a582614364565b602082019050919050565b600060208201905081810360008301526143c98161438d565b9050919050565b6143d981613ca4565b82525050565b60006040820190506143f460008301856143d0565b61440160208301846143d0565b9392505050565b60008151905061441781613dfc565b92915050565b60006020828403121561443357614432613d94565b5b600061444184828501614408565b91505092915050565b600060608201905061445f6000830186613fcc565b61446c6020830185613cae565b6144796040830184613cae565b949350505050565b7f4e487b7100000000000000000000000000000000000000000000000000000000600052601160045260246000fd5b60006144bb82613ca4565b91506144c683613ca4565b92508282019050808211156144de576144dd614481565b5b92915050565b7f496e7665737420697320756e617661696c61626c652e00000000000000000000600082015250565b600061451a601683613ce3565b9150614525826144e4565b602082019050919050565b600060208201905081810360008301526145498161450d565b9050919050565b60006040820190506145656000830185613fcc565b6145726020830184613fcc565b9392505050565b600080fd5b600067ffffffffffffffff8211156145995761459861408c565b5b602082029050602081019050919050565b600080fd5b60006145c26145bd8461457e565b6140ec565b905080838252602082019050602084028301858111156145e5576145e46145aa565b5b835b8181101561460e57806145fa8882614408565b8452602084019350506020810190506145e7565b5050509392505050565b600082601f83011261462d5761462c614579565b5b815161463d8482602086016145af565b91505092915050565b60006020828403121561465c5761465b613d94565b5b600082015167ffffffffffffffff81111561467a57614679613d99565b5b61468684828501614618565b91505092915050565b7f6f7074696f6e7320796574206163746976650000000000000000000000000000600082015250565b60006146c5601283613ce3565b91506146d08261468f565b602082019050919050565b600060208201905081810360008301526146f4816146b8565b9050919050565b7f4f776e61626c653a2063616c6c6572206973206e6f7420746865206f776e6572600082015250565b6000614731602083613ce3565b915061473c826146fb565b602082019050919050565b6000602082019050818103600083015261476081614724565b9050919050565b7f6e756c6c20706f6f6c2061646472657373000000000000000000000000000000600082015250565b600061479d601183613ce3565b91506147a882614767565b602082019050919050565b600060208201905081810360008301526147cc81614790565b9050919050565b6000815190506147e281613dd0565b92915050565b6000602082840312156147fe576147fd613d94565b5b600061480c848285016147d3565b91505092915050565b7f646966666572656e742065786368616e67650000000000000000000000000000600082015250565b600061484b601283613ce3565b915061485682614815565b602082019050919050565b6000602082019050818103600083015261487a8161483e565b9050919050565b600061488c82613dbe565b9050919050565b61489c81614881565b81146148a757600080fd5b50565b6000815190506148b981614893565b92915050565b6000602082840312156148d5576148d4613d94565b5b60006148e3848285016148aa565b91505092915050565b60006148f782613dbe565b9050919050565b614907816148ec565b811461491257600080fd5b50565b600081519050614924816148fe565b92915050565b6000602082840312156149405761493f613d94565b5b600061494e84828501614915565b91505092915050565b7f646966666572656e7420676f7620746f6b656e00000000000000000000000000600082015250565b600061498d601383613ce3565b915061499882614957565b602082019050919050565b600060208201905081810360008301526149bc81614980565b9050919050565b7f57726f6e6720737472696b657300000000000000000000000000000000000000600082015250565b60006149f9600d83613ce3565b9150614a04826149c3565b602082019050919050565b60006020820190508181036000830152614a28816149ec565b9050919050565b7f4e487b7100000000000000000000000000000000000000000000000000000000600052601260045260246000fd5b6000614a6982613ca4565b9150614a7483613ca4565b925082614a8457614a83614a2f565b5b828206905092915050565b7f57726f6e672074656e6f72730000000000000000000000000000000000000000600082015250565b6000614ac5600c83613ce3565b9150614ad082614a8f565b602082019050919050565b60006020820190508181036000830152614af481614ab8565b9050919050565b7f4e6f7420666f7220726562616c616e6365000000000000000000000000000000600082015250565b6000614b31601183613ce3565b9150614b3c82614afb565b602082019050919050565b60006020820190508181036000830152614b6081614b24565b9050919050565b7f50757420737472696b6520756e73657400000000000000000000000000000000600082015250565b6000614b9d601083613ce3565b9150614ba882614b67565b602082019050919050565b60006020820190508181036000830152614bcc81614b90565b9050919050565b7f7075742065787069727920696e20746865207061737400000000000000000000600082015250565b6000614c09601683613ce3565b9150614c1482614bd3565b602082019050919050565b60006020820190508181036000830152614c3881614bfc565b9050919050565b6000614c4a82613ca4565b9150614c5583613ca4565b9250828203905081811115614c6d57614c6c614481565b5b92915050565b6000606082019050614c8860008301866143d0565b614c9560208301856143d0565b614ca260408301846143d0565b949350505050565b7f4e487b7100000000000000000000000000000000000000000000000000000000600052602160045260246000fd5b60048110614cea57614ce9614caa565b5b50565b6000819050614cfb82614cd9565b919050565b6000614d0b82614ced565b9050919050565b614d1b81614d00565b82525050565b60028110614d3257614d31614caa565b5b50565b6000819050614d4382614d21565b919050565b6000614d5382614d35565b9050919050565b614d6381614d48565b82525050565b60038110614d7a57614d79614caa565b5b50565b6000819050614d8b82614d69565b919050565b6000614d9b82614d7d565b9050919050565b614dab81614d90565b82525050565b600061010082019050614dc7600083018b613f4f565b614dd4602083018a613cae565b614de16040830189613cae565b614dee6060830188613cae565b614dfb6080830187613cae565b614e0860a0830186614d12565b614e1560c0830185614d5a565b614e2260e0830184614da2565b9998505050505050505050565b6000819050919050565b6000614e54614e4f614e4a84614e2f565b613eff565b613ca4565b9050919050565b614e6481614e39565b82525050565b600061010082019050614e80600083018b613f4f565b614e8d602083018a613cae565b614e9a6040830189613cae565b614ea76060830188614e5b565b614eb46080830187613cae565b614ec160a0830186614d12565b614ece60c0830185614d5a565b614edb60e0830184614da2565b9998505050505050505050565b6000606082019050614efd6000830186613cae565b614f0a6020830185613cae565b614f176040830184613e74565b949350505050565b7f43616c6c20737472696b6520756e736574000000000000000000000000000000600082015250565b6000614f55601183613ce3565b9150614f6082614f1f565b602082019050919050565b60006020820190508181036000830152614f8481614f48565b9050919050565b7f63616c6c2065787069727920696e207468652070617374000000000000000000600082015250565b6000614fc1601783613ce3565b9150614fcc82614f8b565b602082019050919050565b60006020820190508181036000830152614ff081614fb4565b9050919050565b7f45786365656420746f74616c2062616c616e6365000000000000000000000000600082015250565b600061502d601483613ce3565b915061503882614ff7565b602082019050919050565b6000602082019050818103600083015261505c81615020565b9050919050565b7f496e73756666696369656e742066756e64696e67000000000000000000000000600082015250565b6000615099601483613ce3565b91506150a482615063565b602082019050919050565b600060208201905081810360008301526150c88161508c565b9050919050565b7f45524332303a2064656372656173656420616c6c6f77616e63652062656c6f7760008201527f207a65726f000000000000000000000000000000000000000000000000000000602082015250565b600061512b602583613ce3565b9150615136826150cf565b604082019050919050565b6000602082019050818103600083015261515a8161511e565b9050919050565b7f4e6f742079657420666f7220726f6c6c73000000000000000000000000000000600082015250565b6000615197601183613ce3565b91506151a282615161565b602082019050919050565b600060208201905081810360008301526151c68161518a565b9050919050565b7f5a65726f20617373657473000000000000000000000000000000000000000000600082015250565b6000615203600b83613ce3565b915061520e826151cd565b602082019050919050565b60006020820190508181036000830152615232816151f6565b9050919050565b600060808201905061524e6000830187613cae565b61525b6020830186613cae565b6152686040830185613cae565b6152756060830184613cae565b95945050505050565b7f4f776e61626c653a206e6577206f776e657220697320746865207a65726f206160008201527f6464726573730000000000000000000000000000000000000000000000000000602082015250565b60006152da602683613ce3565b91506152e58261527e565b604082019050919050565b60006020820190508181036000830152615309816152cd565b9050919050565b7f45524332303a20617070726f76652066726f6d20746865207a65726f2061646460008201527f7265737300000000000000000000000000000000000000000000000000000000602082015250565b600061536c602483613ce3565b915061537782615310565b604082019050919050565b6000602082019050818103600083015261539b8161535f565b9050919050565b7f45524332303a20617070726f766520746f20746865207a65726f20616464726560008201527f7373000000000000000000000000000000000000000000000000000000000000602082015250565b60006153fe602283613ce3565b9150615409826153a2565b604082019050919050565b6000602082019050818103600083015261542d816153f1565b9050919050565b7f45524332303a20696e73756666696369656e7420616c6c6f77616e6365000000600082015250565b600061546a601d83613ce3565b915061547582615434565b602082019050919050565b600060208201905081810360008301526154998161545d565b9050919050565b7f45524332303a207472616e736665722066726f6d20746865207a65726f20616460008201527f6472657373000000000000000000000000000000000000000000000000000000602082015250565b60006154fc602583613ce3565b9150615507826154a0565b604082019050919050565b6000602082019050818103600083015261552b816154ef565b9050919050565b7f45524332303a207472616e7366657220746f20746865207a65726f206164647260008201527f6573730000000000000000000000000000000000000000000000000000000000602082015250565b600061558e602383613ce3565b915061559982615532565b604082019050919050565b600060208201905081810360008301526155bd81615581565b9050919050565b7f45524332303a207472616e7366657220616d6f756e742065786365656473206260008201527f616c616e63650000000000000000000000000000000000000000000000000000602082015250565b6000615620602683613ce3565b915061562b826155c4565b604082019050919050565b6000602082019050818103600083015261564f81615613565b9050919050565b600060608201905061566b6000830186613fcc565b6156786020830185613fcc565b6156856040830184613cae565b949350505050565b7f45524332303a206d696e7420746f20746865207a65726f206164647265737300600082015250565b60006156c3601f83613ce3565b91506156ce8261568d565b602082019050919050565b600060208201905081810360008301526156f2816156b6565b9050919050565b7f45524332303a206275726e2066726f6d20746865207a65726f2061646472657360008201527f7300000000000000000000000000000000000000000000000000000000000000602082015250565b6000615755602183613ce3565b9150615760826156f9565b604082019050919050565b6000602082019050818103600083015261578481615748565b9050919050565b7f45524332303a206275726e20616d6f756e7420657863656564732062616c616e60008201527f6365000000000000000000000000000000000000000000000000000000000000602082015250565b60006157e7602283613ce3565b91506157f28261578b565b604082019050919050565b60006020820190508181036000830152615816816157da565b9050919050565b60006040820190506158326000830185613fcc565b61583f6020830184613cae565b9392505050565b61584f81613e68565b811461585a57600080fd5b50565b60008151905061586c81615846565b92915050565b60006020828403121561588857615887613d94565b5b60006158968482850161585d565b91505092915050565b7f5361666545524332303a204552433230206f7065726174696f6e20646964206e60008201527f6f74207375636365656400000000000000000000000000000000000000000000602082015250565b60006158fb602a83613ce3565b91506159068261589f565b604082019050919050565b6000602082019050818103600083015261592a816158ee565b9050919050565b7f416464726573733a20696e73756666696369656e742062616c616e636520666f60008201527f722063616c6c0000000000000000000000000000000000000000000000000000602082015250565b600061598d602683613ce3565b915061599882615931565b604082019050919050565b600060208201905081810360008301526159bc81615980565b9050919050565b7f416464726573733a2063616c6c20746f206e6f6e2d636f6e7472616374000000600082015250565b60006159f9601d83613ce3565b9150615a04826159c3565b602082019050919050565b60006020820190508181036000830152615a28816159ec565b9050919050565b600081519050919050565b600081905092915050565b6000615a5082615a2f565b615a5a8185615a3a565b9350615a6a818560208601613cf4565b80840191505092915050565b6000615a828284615a45565b91508190509291505056fea26469706673582212206b681a286e349dfa7bfd8dab52c92900104447f05b58f284fde491ac87f2c6bc64736f6c63430008100033",
  "immutableReferences": {
    "17085": [
      {
        "length": 32,
        "start": 5468
      },
      {
        "length": 32,
        "start": 8332
      },
      {
        "length": 32,
        "start": 10123
      }
    ],
    "17088": [
      {
        "length": 32,
        "start": 3936
      },
      {
        "length": 32,
        "start": 6776
      },
      {
        "length": 32,
        "start": 6972
      },
      {
        "length": 32,
        "start": 8070
      },
      {
        "length": 32,
        "start": 10705
      },
      {
        "length": 32,
        "start": 11213
      },
      {
        "length": 32,
        "start": 11418
      },
      {
        "length": 32,
        "start": 11818
      }
    ],
    "17091": [
      {
        "length": 32,
        "start": 2733
      },
      {
        "length": 32,
        "start": 12254
      }
    ],
    "17093": [
      {
        "length": 32,
        "start": 9224
      }
    ],
    "17096": [
      {
        "length": 32,
        "start": 2431
      },
      {
        "length": 32,
        "start": 3000
      },
      {
        "length": 32,
        "start": 5990
      },
      {
        "length": 32,
        "start": 7611
      },
      {
        "length": 32,
        "start": 8661
      },
      {
        "length": 32,
        "start": 8895
      },
      {
        "length": 32,
        "start": 9810
      },
      {
        "length": 32,
        "start": 11782
      }
    ],
    "17098": [
      {
        "length": 32,
        "start": 2087
      },
      {
        "length": 32,
        "start": 3411
      },
      {
        "length": 32,
        "start": 6172
      },
      {
        "length": 32,
        "start": 7793
      },
      {
        "length": 32,
        "start": 9992
      }
    ]
  },
  "source": "// SPDX-License-Identifier: MIT\npragma solidity 0.8.16;\n\nimport \"@openzeppelin/contracts/token/ERC20/ERC20.sol\";\nimport \"@openzeppelin/contracts/access/Ownable.sol\";\nimport \"@openzeppelin/contracts/security/Pausable.sol\";\nimport \"@openzeppelin/contracts/security/ReentrancyGuard.sol\";\nimport \"@openzeppelin/contracts/token/ERC20/utils/SafeERC20.sol\";\nimport \"@openzeppelin/contracts/utils/math/Math.sol\";\nimport \"../Exchange.sol\";\nimport \"../OptionVault.sol\";\nimport \"../VolatilityChain.sol\";\nimport \"../governance/Moret.sol\";\nimport \"../governance/MoretBroker.sol\";\nimport \"../pools/MarketMaker.sol\";\nimport \"../pools/Pool.sol\";\nimport \"../libraries/MathLib.sol\";\nimport \"../libraries/OptionLib.sol\";\n\ncontract FixedIncomeAnnuity is Ownable, Pausable, ERC20, ReentrancyGuard{\n    using MathLib for uint256;\n    using Math for uint256;\n    using SafeERC20 for ERC20;\n\n    VolatilityChain public immutable oracle;\n    Exchange public immutable exchange;\n    OptionVault public immutable vault;\n    address public immutable tokenAddress;\n    ERC20 public immutable funding;\n    uint256 public immutable fundingMultiplier;\n    Pool public pool;\n    address public nextPool;\n\n    struct FIAParam{uint256 callMoney; uint256 callTenor; uint256 putMoney; uint256 putTenor; uint256 putSpread; uint256 tradeWindow; }\n    FIAParam public fiaParams;\n    uint256 paramsMultiplier = 1e6;\n    uint256 MAX_INT = 2**256 - 1;\n\n    uint256 public nextRebTime; // next time for new option contracts\n    uint256 public nextVintageTime; // next time for new vintage\n    uint256 public optionAmount; // amount of option for each rolling vintage\n    uint256 public vintageCallStrike;\n    uint256 public vintagePutStrike;\n    uint256 public vintagePutSpread;\n\n    uint256 public vintageStartLevel;\n    uint256 public vintageStartNAV;\n\n    event FIPInvest(address investor, uint256 tokenUnit, uint256 investAmount);\n    event FIPDivest(address investor, uint256 tokenUnit, uint256 divestAmount);\n    event FIPRoll(uint256 time, uint256 amount, uint256 rebTime, uint256 vintageTime );\n    event FIPRebalance(uint256 time, uint256 rebTime, bool rebCall);\n\n    constructor(address _pool, string memory _name, string memory _symbol, FIAParam memory _params) ERC20(_name, _symbol){\n        require(_pool != address(0), \"null pool address\");\n        pool = Pool(_pool);\n        nextPool = _pool;\n\n        MarketMaker market = pool.marketMaker();\n        tokenAddress = market.underlying();\n        exchange = Exchange(pool.exchange());        \n        vault = exchange.vault();\n\n        funding = ERC20(market.funding());\n        oracle = market.getVolatilityChain();\n        \n        funding.increaseAllowance(address(exchange), MAX_INT);\n        \n        uint256 fundingDecimals = funding.decimals();\n        fundingMultiplier = 10 ** fundingDecimals;\n\n        nextRebTime = block.timestamp;\n        nextVintageTime = block.timestamp;\n\n        require(_params.callMoney >= paramsMultiplier && _params.putMoney <= paramsMultiplier && _params.putSpread < _params.putMoney, \"Wrong strikes\");\n        require(_params.callTenor % _params.putTenor == 0 || _params.putTenor % _params.callTenor == 0, \"Wrong tenors\");\n        fiaParams = _params;\n    }\n\n    function setParameters(FIAParam memory _params) external onlyOwner {\n        require(_params.callMoney >= paramsMultiplier && _params.putMoney <= paramsMultiplier && _params.putSpread < _params.putMoney, \"Wrong strikes\");\n        require(_params.callTenor % _params.putTenor == 0 || _params.putTenor % _params.callTenor == 0, \"Wrong tenors\");\n        fiaParams = _params;\n    }\n\n    function updatePool(address _pool) external onlyOwner{\n        require(_pool != address(0), \"null pool address\");\n        Pool tempPool = Pool(_pool);\n        require(tempPool.exchange()==address(exchange), \"different exchange\");\n        require(address(tempPool.marketMaker().govToken())==address(pool.marketMaker().govToken()), \"different gov token\");\n        nextPool = _pool;\n    }\n\n    // invest function to deposit USDC\n    // _toInvest: amount of USDC to invest during the investment window\n    function invest(uint256 _toInvest) external nonReentrant{\n        uint256 unitAsset = getRollsUnitAsset();\n        uint256 unitToMint = _toInvest.ethdiv(unitAsset);\n\n        funding.safeTransferFrom(msg.sender, address(this), _toInvest);\n        _mint(msg.sender, unitToMint);\n        emit FIPInvest(msg.sender, unitToMint, _toInvest);\n    }\n    \n    // invest function to withdraw USDC\n    // _toDivest: amount of FIP tokens to divest (by withdrawing corresponding amount of USDC) during the investment window\n    function divest(uint256 _toDivest) external nonReentrant{\n        uint256 unitAsset = getRollsUnitAsset();\n        uint256 assetToDivest = _toDivest.ethmul(unitAsset);\n\n        require(balanceOf(msg.sender) >= _toDivest, \"Exceed total balance\");\n        require(funding.balanceOf(address(this)) >= assetToDivest, \"Insufficient funding\");\n        _burn(msg.sender, _toDivest);\n        funding.safeTransfer(msg.sender, assetToDivest);\n        emit FIPDivest(msg.sender, _toDivest, assetToDivest);\n    }\n\n    function getRollsUnitAsset() public view returns(uint256 unitAsset){\n        require(block.timestamp >= nextVintageTime, \"Invest is unavailable.\");\n        uint256[] memory options = vault.getHolderOptions(address(pool), address(this));\n        require(options.length == 0, \"options yet active\");\n\n        uint256 currentAssets = funding.balanceOf(address(this));\n        uint256 currentSupply = this.totalSupply();\n        if(currentSupply>0){\n            unitAsset = currentAssets.ethdiv(currentSupply);\n        }\n        else{\n            unitAsset = fundingMultiplier;\n        }\n    }\n\n    function rollover() external onlyOwner{\n        require(block.timestamp >= (nextVintageTime + fiaParams.tradeWindow), \"Not yet for rolls\");\n        uint256 unitAsset = getRollsUnitAsset();\n        require(unitAsset> 0, \"Zero assets\");\n        vintageStartNAV = unitAsset;\n\n        // update pool\n        pool = Pool(nextPool);\n\n        uint256 currentAssets = funding.balanceOf(address(this)).ethdiv(fundingMultiplier);\n        uint256 currentPrice = oracle.queryPrice();\n        vintageStartLevel = currentPrice;\n        optionAmount = currentAssets.muldiv(paramsMultiplier, paramsMultiplier + fiaParams.putMoney - fiaParams.putSpread).ethdiv(currentPrice);\n\n        // sell call\n        vintageCallStrike = currentPrice.muldiv(fiaParams.callMoney, paramsMultiplier);\n        exchange.tradeOption(pool, fiaParams.callTenor, vintageCallStrike, 0, optionAmount, OptionLib.PayoffType.Call, OptionLib.OptionSide.Sell, OptionLib.PaymentMethod.USDC);\n\n        // buy put\n        vintagePutStrike = currentPrice.muldiv(fiaParams.putMoney, paramsMultiplier);\n        if(fiaParams.putSpread > 0){\n            vintagePutSpread = currentPrice.muldiv(fiaParams.putMoney - fiaParams.putSpread, paramsMultiplier);\n            exchange.tradeOption(pool, fiaParams.putTenor, vintagePutStrike, vintagePutSpread, optionAmount, OptionLib.PayoffType.PutSpread, OptionLib.OptionSide.Buy, OptionLib.PaymentMethod.USDC);\n        }\n        else{\n            exchange.tradeOption(pool, fiaParams.putTenor, vintagePutStrike, 0, optionAmount, OptionLib.PayoffType.Put, OptionLib.OptionSide.Buy, OptionLib.PaymentMethod.USDC);\n        }\n        \n        nextRebTime = block.timestamp + fiaParams.callTenor.min(fiaParams.putTenor);\n        nextVintageTime = block.timestamp + fiaParams.callTenor.max(fiaParams.putTenor);\n\n        emit FIPRoll(block.timestamp, optionAmount, nextRebTime, nextVintageTime);\n    }\n\n    function rebalance() external onlyOwner{\n        require(block.timestamp >= nextRebTime && block.timestamp < nextVintageTime, \"Not for rebalance\");\n        uint256 currentPrice = oracle.queryPrice();\n        if(fiaParams.callTenor > fiaParams.putTenor){\n            require(vintagePutStrike > 0, \"Put strike unset\");\n            nextRebTime = (nextRebTime + fiaParams.putTenor).min(nextVintageTime);\n            require(nextRebTime > block.timestamp, \"put expiry in the past\");\n            uint256 tenor = nextRebTime - block.timestamp;\n            uint256 strike = currentPrice.muldiv(fiaParams.putMoney, paramsMultiplier).min(vintagePutStrike);\n            uint256 currentAssets = funding.balanceOf(address(this)).ethdiv(fundingMultiplier);\n            uint256 rebOptionAmount = currentAssets.muldiv(paramsMultiplier, fiaParams.putMoney - fiaParams.putSpread).min(optionAmount).ethdiv(currentPrice);\n\n            if(fiaParams.putSpread > 0){\n                uint256 spread = strike.muldiv(fiaParams.putMoney - fiaParams.putSpread, fiaParams.putMoney);\n                if(rebOptionAmount > 0){\n                    exchange.tradeOption(pool, tenor, strike, spread, rebOptionAmount, OptionLib.PayoffType.PutSpread, OptionLib.OptionSide.Buy, OptionLib.PaymentMethod.USDC);\n                }\n            }\n            else{\n                exchange.tradeOption(pool, tenor, strike, 0, rebOptionAmount, OptionLib.PayoffType.Put, OptionLib.OptionSide.Buy, OptionLib.PaymentMethod.USDC);\n            }\n            \n            emit FIPRebalance(block.timestamp, nextRebTime, false);\n        }\n        else if (fiaParams.callTenor < fiaParams.putTenor){\n            require(vintageCallStrike > 0, \"Call strike unset\");\n            nextRebTime = (nextRebTime + fiaParams.callTenor).min(nextVintageTime);\n            require(nextRebTime > block.timestamp, \"call expiry in the past\");\n\n            uint256 tenor = nextRebTime - block.timestamp;\n            uint256 strike = currentPrice.muldiv(fiaParams.callMoney, paramsMultiplier).max(vintageCallStrike);\n\n            uint256 currentAssets = funding.balanceOf(address(this)).ethdiv(fundingMultiplier);\n            uint256 callOptionAmount = currentAssets.ethdiv(currentPrice).min(optionAmount);\n\n            exchange.tradeOption(pool, tenor, strike, 0, callOptionAmount, OptionLib.PayoffType.Call, OptionLib.OptionSide.Sell, OptionLib.PaymentMethod.USDC);\n            emit FIPRebalance(block.timestamp, nextRebTime, true);}\n    }\n}",
  "sourcePath": "/Users/mac/Documents/GitHub/moret/contracts/vaults/FixedIncomeAnnuity.sol",
  "compiler": {
    "name": "solc",
    "version": "0.8.16+commit.07a7930e.Emscripten.clang"
  },
  "schemaVersion": "3.4.3",
  "updatedAt": "2022-11-11T19:46:59.985Z",
  "networkType": "ethereum",
  "devdoc": {
    "kind": "dev",
    "methods": {
      "allowance(address,address)": {
        "details": "See {IERC20-allowance}."
      },
      "approve(address,uint256)": {
        "details": "See {IERC20-approve}. NOTE: If `amount` is the maximum `uint256`, the allowance is not updated on `transferFrom`. This is semantically equivalent to an infinite approval. Requirements: - `spender` cannot be the zero address."
      },
      "balanceOf(address)": {
        "details": "See {IERC20-balanceOf}."
      },
      "decimals()": {
        "details": "Returns the number of decimals used to get its user representation. For example, if `decimals` equals `2`, a balance of `505` tokens should be displayed to a user as `5.05` (`505 / 10 ** 2`). Tokens usually opt for a value of 18, imitating the relationship between Ether and Wei. This is the value {ERC20} uses, unless this function is overridden; NOTE: This information is only used for _display_ purposes: it in no way affects any of the arithmetic of the contract, including {IERC20-balanceOf} and {IERC20-transfer}."
      },
      "decreaseAllowance(address,uint256)": {
        "details": "Atomically decreases the allowance granted to `spender` by the caller. This is an alternative to {approve} that can be used as a mitigation for problems described in {IERC20-approve}. Emits an {Approval} event indicating the updated allowance. Requirements: - `spender` cannot be the zero address. - `spender` must have allowance for the caller of at least `subtractedValue`."
      },
      "increaseAllowance(address,uint256)": {
        "details": "Atomically increases the allowance granted to `spender` by the caller. This is an alternative to {approve} that can be used as a mitigation for problems described in {IERC20-approve}. Emits an {Approval} event indicating the updated allowance. Requirements: - `spender` cannot be the zero address."
      },
      "name()": {
        "details": "Returns the name of the token."
      },
      "owner()": {
        "details": "Returns the address of the current owner."
      },
      "paused()": {
        "details": "Returns true if the contract is paused, and false otherwise."
      },
      "renounceOwnership()": {
        "details": "Leaves the contract without owner. It will not be possible to call `onlyOwner` functions anymore. Can only be called by the current owner. NOTE: Renouncing ownership will leave the contract without an owner, thereby removing any functionality that is only available to the owner."
      },
      "symbol()": {
        "details": "Returns the symbol of the token, usually a shorter version of the name."
      },
      "totalSupply()": {
        "details": "See {IERC20-totalSupply}."
      },
      "transfer(address,uint256)": {
        "details": "See {IERC20-transfer}. Requirements: - `to` cannot be the zero address. - the caller must have a balance of at least `amount`."
      },
      "transferFrom(address,address,uint256)": {
        "details": "See {IERC20-transferFrom}. Emits an {Approval} event indicating the updated allowance. This is not required by the EIP. See the note at the beginning of {ERC20}. NOTE: Does not update the allowance if the current allowance is the maximum `uint256`. Requirements: - `from` and `to` cannot be the zero address. - `from` must have a balance of at least `amount`. - the caller must have allowance for ``from``'s tokens of at least `amount`."
      },
      "transferOwnership(address)": {
        "details": "Transfers ownership of the contract to a new account (`newOwner`). Can only be called by the current owner."
      }
    },
    "version": 1
  },
  "userdoc": {
    "kind": "user",
    "methods": {},
    "version": 1
  }
}