{
  "contractName": "FixedIndex",
  "abi": [
    {
      "inputs": [
        {
          "internalType": "address",
          "name": "_pool",
          "type": "address"
        },
        {
          "internalType": "string",
          "name": "_name",
          "type": "string"
        },
        {
          "internalType": "string",
          "name": "_symbol",
          "type": "string"
        },
        {
          "components": [
            {
              "internalType": "uint256",
              "name": "callMoney",
              "type": "uint256"
            },
            {
              "internalType": "uint256",
              "name": "callTenor",
              "type": "uint256"
            },
            {
              "internalType": "uint256",
              "name": "putMoney",
              "type": "uint256"
            },
            {
              "internalType": "uint256",
              "name": "putTenor",
              "type": "uint256"
            },
            {
              "internalType": "uint256",
              "name": "putSpread",
              "type": "uint256"
            },
            {
              "internalType": "uint256",
              "name": "tradeWindow",
              "type": "uint256"
            },
            {
              "internalType": "uint256",
              "name": "leverage",
              "type": "uint256"
            },
            {
              "internalType": "uint256",
              "name": "multiplier",
              "type": "uint256"
            }
          ],
          "internalType": "struct FixedIndex.FIAParam",
          "name": "_params",
          "type": "tuple"
        }
      ],
      "stateMutability": "nonpayable",
      "type": "constructor"
    },
    {
      "anonymous": false,
      "inputs": [
        {
          "indexed": true,
          "internalType": "address",
          "name": "owner",
          "type": "address"
        },
        {
          "indexed": true,
          "internalType": "address",
          "name": "spender",
          "type": "address"
        },
        {
          "indexed": false,
          "internalType": "uint256",
          "name": "value",
          "type": "uint256"
        }
      ],
      "name": "Approval",
      "type": "event"
    },
    {
      "anonymous": false,
      "inputs": [
        {
          "indexed": false,
          "internalType": "address",
          "name": "investor",
          "type": "address"
        },
        {
          "indexed": false,
          "internalType": "uint256",
          "name": "tokenUnit",
          "type": "uint256"
        },
        {
          "indexed": false,
          "internalType": "uint256",
          "name": "divestAmount",
          "type": "uint256"
        }
      ],
      "name": "FIPDivest",
      "type": "event"
    },
    {
      "anonymous": false,
      "inputs": [
        {
          "indexed": false,
          "internalType": "address",
          "name": "investor",
          "type": "address"
        },
        {
          "indexed": false,
          "internalType": "uint256",
          "name": "tokenUnit",
          "type": "uint256"
        },
        {
          "indexed": false,
          "internalType": "uint256",
          "name": "investAmount",
          "type": "uint256"
        }
      ],
      "name": "FIPInvest",
      "type": "event"
    },
    {
      "anonymous": false,
      "inputs": [
        {
          "indexed": false,
          "internalType": "uint256",
          "name": "time",
          "type": "uint256"
        },
        {
          "indexed": false,
          "internalType": "uint256",
          "name": "rebTime",
          "type": "uint256"
        },
        {
          "indexed": false,
          "internalType": "bool",
          "name": "isRoll",
          "type": "bool"
        }
      ],
      "name": "FIPRoll",
      "type": "event"
    },
    {
      "anonymous": false,
      "inputs": [
        {
          "indexed": true,
          "internalType": "address",
          "name": "previousOwner",
          "type": "address"
        },
        {
          "indexed": true,
          "internalType": "address",
          "name": "newOwner",
          "type": "address"
        }
      ],
      "name": "OwnershipTransferred",
      "type": "event"
    },
    {
      "anonymous": false,
      "inputs": [
        {
          "indexed": true,
          "internalType": "address",
          "name": "from",
          "type": "address"
        },
        {
          "indexed": true,
          "internalType": "address",
          "name": "to",
          "type": "address"
        },
        {
          "indexed": false,
          "internalType": "uint256",
          "name": "value",
          "type": "uint256"
        }
      ],
      "name": "Transfer",
      "type": "event"
    },
    {
      "inputs": [
        {
          "internalType": "address",
          "name": "owner",
          "type": "address"
        },
        {
          "internalType": "address",
          "name": "spender",
          "type": "address"
        }
      ],
      "name": "allowance",
      "outputs": [
        {
          "internalType": "uint256",
          "name": "",
          "type": "uint256"
        }
      ],
      "stateMutability": "view",
      "type": "function"
    },
    {
      "inputs": [
        {
          "internalType": "address",
          "name": "spender",
          "type": "address"
        },
        {
          "internalType": "uint256",
          "name": "amount",
          "type": "uint256"
        }
      ],
      "name": "approve",
      "outputs": [
        {
          "internalType": "bool",
          "name": "",
          "type": "bool"
        }
      ],
      "stateMutability": "nonpayable",
      "type": "function"
    },
    {
      "inputs": [
        {
          "internalType": "address",
          "name": "account",
          "type": "address"
        }
      ],
      "name": "balanceOf",
      "outputs": [
        {
          "internalType": "uint256",
          "name": "",
          "type": "uint256"
        }
      ],
      "stateMutability": "view",
      "type": "function"
    },
    {
      "inputs": [],
      "name": "decimals",
      "outputs": [
        {
          "internalType": "uint8",
          "name": "",
          "type": "uint8"
        }
      ],
      "stateMutability": "view",
      "type": "function"
    },
    {
      "inputs": [
        {
          "internalType": "address",
          "name": "spender",
          "type": "address"
        },
        {
          "internalType": "uint256",
          "name": "subtractedValue",
          "type": "uint256"
        }
      ],
      "name": "decreaseAllowance",
      "outputs": [
        {
          "internalType": "bool",
          "name": "",
          "type": "bool"
        }
      ],
      "stateMutability": "nonpayable",
      "type": "function"
    },
    {
      "inputs": [],
      "name": "exchange",
      "outputs": [
        {
          "internalType": "contract Exchange",
          "name": "",
          "type": "address"
        }
      ],
      "stateMutability": "view",
      "type": "function"
    },
    {
      "inputs": [],
      "name": "fiaParams",
      "outputs": [
        {
          "internalType": "uint256",
          "name": "callMoney",
          "type": "uint256"
        },
        {
          "internalType": "uint256",
          "name": "callTenor",
          "type": "uint256"
        },
        {
          "internalType": "uint256",
          "name": "putMoney",
          "type": "uint256"
        },
        {
          "internalType": "uint256",
          "name": "putTenor",
          "type": "uint256"
        },
        {
          "internalType": "uint256",
          "name": "putSpread",
          "type": "uint256"
        },
        {
          "internalType": "uint256",
          "name": "tradeWindow",
          "type": "uint256"
        },
        {
          "internalType": "uint256",
          "name": "leverage",
          "type": "uint256"
        },
        {
          "internalType": "uint256",
          "name": "multiplier",
          "type": "uint256"
        }
      ],
      "stateMutability": "view",
      "type": "function"
    },
    {
      "inputs": [],
      "name": "funding",
      "outputs": [
        {
          "internalType": "contract ERC20",
          "name": "",
          "type": "address"
        }
      ],
      "stateMutability": "view",
      "type": "function"
    },
    {
      "inputs": [],
      "name": "fundingDecimals",
      "outputs": [
        {
          "internalType": "uint256",
          "name": "",
          "type": "uint256"
        }
      ],
      "stateMutability": "view",
      "type": "function"
    },
    {
      "inputs": [],
      "name": "fundingMultiplier",
      "outputs": [
        {
          "internalType": "uint256",
          "name": "",
          "type": "uint256"
        }
      ],
      "stateMutability": "view",
      "type": "function"
    },
    {
      "inputs": [
        {
          "internalType": "address",
          "name": "spender",
          "type": "address"
        },
        {
          "internalType": "uint256",
          "name": "addedValue",
          "type": "uint256"
        }
      ],
      "name": "increaseAllowance",
      "outputs": [
        {
          "internalType": "bool",
          "name": "",
          "type": "bool"
        }
      ],
      "stateMutability": "nonpayable",
      "type": "function"
    },
    {
      "inputs": [],
      "name": "name",
      "outputs": [
        {
          "internalType": "string",
          "name": "",
          "type": "string"
        }
      ],
      "stateMutability": "view",
      "type": "function"
    },
    {
      "inputs": [],
      "name": "nextRebTime",
      "outputs": [
        {
          "internalType": "uint256",
          "name": "",
          "type": "uint256"
        }
      ],
      "stateMutability": "view",
      "type": "function"
    },
    {
      "inputs": [],
      "name": "nextVintageTime",
      "outputs": [
        {
          "internalType": "uint256",
          "name": "",
          "type": "uint256"
        }
      ],
      "stateMutability": "view",
      "type": "function"
    },
    {
      "inputs": [],
      "name": "oracle",
      "outputs": [
        {
          "internalType": "contract VolatilityChain",
          "name": "",
          "type": "address"
        }
      ],
      "stateMutability": "view",
      "type": "function"
    },
    {
      "inputs": [],
      "name": "owner",
      "outputs": [
        {
          "internalType": "address",
          "name": "",
          "type": "address"
        }
      ],
      "stateMutability": "view",
      "type": "function"
    },
    {
      "inputs": [],
      "name": "pool",
      "outputs": [
        {
          "internalType": "contract Pool",
          "name": "",
          "type": "address"
        }
      ],
      "stateMutability": "view",
      "type": "function"
    },
    {
      "inputs": [],
      "name": "renounceOwnership",
      "outputs": [],
      "stateMutability": "nonpayable",
      "type": "function"
    },
    {
      "inputs": [],
      "name": "symbol",
      "outputs": [
        {
          "internalType": "string",
          "name": "",
          "type": "string"
        }
      ],
      "stateMutability": "view",
      "type": "function"
    },
    {
      "inputs": [],
      "name": "totalSupply",
      "outputs": [
        {
          "internalType": "uint256",
          "name": "",
          "type": "uint256"
        }
      ],
      "stateMutability": "view",
      "type": "function"
    },
    {
      "inputs": [
        {
          "internalType": "address",
          "name": "to",
          "type": "address"
        },
        {
          "internalType": "uint256",
          "name": "amount",
          "type": "uint256"
        }
      ],
      "name": "transfer",
      "outputs": [
        {
          "internalType": "bool",
          "name": "",
          "type": "bool"
        }
      ],
      "stateMutability": "nonpayable",
      "type": "function"
    },
    {
      "inputs": [
        {
          "internalType": "address",
          "name": "from",
          "type": "address"
        },
        {
          "internalType": "address",
          "name": "to",
          "type": "address"
        },
        {
          "internalType": "uint256",
          "name": "amount",
          "type": "uint256"
        }
      ],
      "name": "transferFrom",
      "outputs": [
        {
          "internalType": "bool",
          "name": "",
          "type": "bool"
        }
      ],
      "stateMutability": "nonpayable",
      "type": "function"
    },
    {
      "inputs": [
        {
          "internalType": "address",
          "name": "newOwner",
          "type": "address"
        }
      ],
      "name": "transferOwnership",
      "outputs": [],
      "stateMutability": "nonpayable",
      "type": "function"
    },
    {
      "inputs": [],
      "name": "vintage",
      "outputs": [
        {
          "internalType": "uint256",
          "name": "optionAmount",
          "type": "uint256"
        },
        {
          "internalType": "uint256",
          "name": "callStrike",
          "type": "uint256"
        },
        {
          "internalType": "uint256",
          "name": "putStrike",
          "type": "uint256"
        },
        {
          "internalType": "uint256",
          "name": "putSpread",
          "type": "uint256"
        },
        {
          "internalType": "uint256",
          "name": "startLevel",
          "type": "uint256"
        },
        {
          "internalType": "uint256",
          "name": "startNAV",
          "type": "uint256"
        }
      ],
      "stateMutability": "view",
      "type": "function"
    },
    {
      "inputs": [
        {
          "components": [
            {
              "internalType": "uint256",
              "name": "callMoney",
              "type": "uint256"
            },
            {
              "internalType": "uint256",
              "name": "callTenor",
              "type": "uint256"
            },
            {
              "internalType": "uint256",
              "name": "putMoney",
              "type": "uint256"
            },
            {
              "internalType": "uint256",
              "name": "putTenor",
              "type": "uint256"
            },
            {
              "internalType": "uint256",
              "name": "putSpread",
              "type": "uint256"
            },
            {
              "internalType": "uint256",
              "name": "tradeWindow",
              "type": "uint256"
            },
            {
              "internalType": "uint256",
              "name": "leverage",
              "type": "uint256"
            },
            {
              "internalType": "uint256",
              "name": "multiplier",
              "type": "uint256"
            }
          ],
          "internalType": "struct FixedIndex.FIAParam",
          "name": "_params",
          "type": "tuple"
        }
      ],
      "name": "setParameters",
      "outputs": [],
      "stateMutability": "nonpayable",
      "type": "function"
    },
    {
      "inputs": [
        {
          "internalType": "uint256",
          "name": "_toInvest",
          "type": "uint256"
        }
      ],
      "name": "invest",
      "outputs": [],
      "stateMutability": "nonpayable",
      "type": "function"
    },
    {
      "inputs": [
        {
          "internalType": "uint256",
          "name": "_toDivest",
          "type": "uint256"
        }
      ],
      "name": "divest",
      "outputs": [],
      "stateMutability": "nonpayable",
      "type": "function"
    },
    {
      "inputs": [],
      "name": "getRollsUnitAsset",
      "outputs": [
        {
          "internalType": "uint256",
          "name": "unitAsset",
          "type": "uint256"
        }
      ],
      "stateMutability": "view",
      "type": "function"
    },
    {
      "inputs": [],
      "name": "rollover",
      "outputs": [],
      "stateMutability": "nonpayable",
      "type": "function"
    },
    {
      "inputs": [],
      "name": "rebalance",
      "outputs": [],
      "stateMutability": "nonpayable",
      "type": "function"
    },
    {
      "inputs": [],
      "name": "getPV",
      "outputs": [
        {
          "internalType": "uint256",
          "name": "",
          "type": "uint256"
        }
      ],
      "stateMutability": "view",
      "type": "function"
    }
  ],
  "bytecode": "0x6101206040523480156200001257600080fd5b50604051620069c4380380620069c4833981810160405281019062000038919062000a68565b82826200005a6200004e6200068560201b60201c565b6200068d60201b60201c565b81600490816200006b919062000d5a565b5080600590816200007d919062000d5a565b5050506001600681905550600073ffffffffffffffffffffffffffffffffffffffff168473ffffffffffffffffffffffffffffffffffffffff1603620000fa576040517f08c379a0000000000000000000000000000000000000000000000000000000008152600401620000f19062000ea2565b60405180910390fd5b83600760006101000a81548173ffffffffffffffffffffffffffffffffffffffff021916908373ffffffffffffffffffffffffffffffffffffffff160217905550600760009054906101000a900473ffffffffffffffffffffffffffffffffffffffff1673ffffffffffffffffffffffffffffffffffffffff1663d2f7265a6040518163ffffffff1660e01b8152600401602060405180830381865afa158015620001a9573d6000803e3d6000fd5b505050506040513d601f19601f82011682018060405250810190620001cf919062000ec4565b73ffffffffffffffffffffffffffffffffffffffff1660a08173ffffffffffffffffffffffffffffffffffffffff16815250506000600760009054906101000a900473ffffffffffffffffffffffffffffffffffffffff1673ffffffffffffffffffffffffffffffffffffffff16631f21f9af6040518163ffffffff1660e01b8152600401602060405180830381865afa15801562000272573d6000803e3d6000fd5b505050506040513d601f19601f8201168201806040525081019062000298919062000f3b565b90508073ffffffffffffffffffffffffffffffffffffffff1663c0a16f6a6040518163ffffffff1660e01b8152600401602060405180830381865afa158015620002e6573d6000803e3d6000fd5b505050506040513d601f19601f820116820180604052508101906200030c919062000fb2565b73ffffffffffffffffffffffffffffffffffffffff1660808173ffffffffffffffffffffffffffffffffffffffff16815250508073ffffffffffffffffffffffffffffffffffffffff1663cb4c86b76040518163ffffffff1660e01b8152600401602060405180830381865afa1580156200038b573d6000803e3d6000fd5b505050506040513d601f19601f82011682018060405250810190620003b1919062000ec4565b73ffffffffffffffffffffffffffffffffffffffff1660c08173ffffffffffffffffffffffffffffffffffffffff168152505060c05173ffffffffffffffffffffffffffffffffffffffff16633950935160a0517fffffffffffffffffffffffffffffffffffffffffffffffffffffffffffffffff6040518363ffffffff1660e01b81526004016200044592919062001038565b6020604051808303816000875af115801562000465573d6000803e3d6000fd5b505050506040513d601f19601f820116820180604052508101906200048b9190620010a2565b5060c05173ffffffffffffffffffffffffffffffffffffffff1663313ce5676040518163ffffffff1660e01b8152600401602060405180830381865afa158015620004da573d6000803e3d6000fd5b505050506040513d601f19601f8201168201806040525081019062000500919062001112565b60ff1660e0818152505060e051600a6200051b9190620012c7565b610100818152505042601681905550426017819055508160e001518260000151101580156200055257508160e00151826040015111155b801562000566575081604001518260800151105b620005a8576040517f08c379a00000000000000000000000000000000000000000000000000000000081526004016200059f9062001368565b60405180910390fd5b600082606001518360200151620005c09190620013b9565b1480620005e25750600082602001518360600151620005e09190620013b9565b145b62000624576040517f08c379a00000000000000000000000000000000000000000000000000000000081526004016200061b9062001441565b60405180910390fd5b816008600082015181600001556020820151816001015560408201518160020155606082015181600301556080820151816004015560a0820151816005015560c0820151816006015560e08201518160070155905050505050505062001463565b600033905090565b60008060009054906101000a900473ffffffffffffffffffffffffffffffffffffffff169050816000806101000a81548173ffffffffffffffffffffffffffffffffffffffff021916908373ffffffffffffffffffffffffffffffffffffffff1602179055508173ffffffffffffffffffffffffffffffffffffffff168173ffffffffffffffffffffffffffffffffffffffff167f8be0079c531659141344cd1fd0a4f28419497f9722a3daafe3b4186f6b6457e060405160405180910390a35050565b6000604051905090565b600080fd5b600080fd5b600073ffffffffffffffffffffffffffffffffffffffff82169050919050565b6000620007928262000765565b9050919050565b620007a48162000785565b8114620007b057600080fd5b50565b600081519050620007c48162000799565b92915050565b600080fd5b600080fd5b6000601f19601f8301169050919050565b7f4e487b7100000000000000000000000000000000000000000000000000000000600052604160045260246000fd5b6200081f82620007d4565b810181811067ffffffffffffffff82111715620008415762000840620007e5565b5b80604052505050565b60006200085662000751565b905062000864828262000814565b919050565b600067ffffffffffffffff821115620008875762000886620007e5565b5b6200089282620007d4565b9050602081019050919050565b60005b83811015620008bf578082015181840152602081019050620008a2565b60008484015250505050565b6000620008e2620008dc8462000869565b6200084a565b905082815260208101848484011115620009015762000900620007cf565b5b6200090e8482856200089f565b509392505050565b600082601f8301126200092e576200092d620007ca565b5b815162000940848260208601620008cb565b91505092915050565b600080fd5b6000819050919050565b62000963816200094e565b81146200096f57600080fd5b50565b600081519050620009838162000958565b92915050565b60006101008284031215620009a357620009a262000949565b5b620009b06101006200084a565b90506000620009c28482850162000972565b6000830152506020620009d88482850162000972565b6020830152506040620009ee8482850162000972565b604083015250606062000a048482850162000972565b606083015250608062000a1a8482850162000972565b60808301525060a062000a308482850162000972565b60a08301525060c062000a468482850162000972565b60c08301525060e062000a5c8482850162000972565b60e08301525092915050565b600080600080610160858703121562000a865762000a856200075b565b5b600062000a9687828801620007b3565b945050602085015167ffffffffffffffff81111562000aba5762000ab962000760565b5b62000ac88782880162000916565b935050604085015167ffffffffffffffff81111562000aec5762000aeb62000760565b5b62000afa8782880162000916565b925050606062000b0d8782880162000989565b91505092959194509250565b600081519050919050565b7f4e487b7100000000000000000000000000000000000000000000000000000000600052602260045260246000fd5b6000600282049050600182168062000b6c57607f821691505b60208210810362000b825762000b8162000b24565b5b50919050565b60008190508160005260206000209050919050565b60006020601f8301049050919050565b600082821b905092915050565b60006008830262000bec7fffffffffffffffffffffffffffffffffffffffffffffffffffffffffffffffff8262000bad565b62000bf8868362000bad565b95508019841693508086168417925050509392505050565b6000819050919050565b600062000c3b62000c3562000c2f846200094e565b62000c10565b6200094e565b9050919050565b6000819050919050565b62000c578362000c1a565b62000c6f62000c668262000c42565b84845462000bba565b825550505050565b600090565b62000c8662000c77565b62000c9381848462000c4c565b505050565b5b8181101562000cbb5762000caf60008262000c7c565b60018101905062000c99565b5050565b601f82111562000d0a5762000cd48162000b88565b62000cdf8462000b9d565b8101602085101562000cef578190505b62000d0762000cfe8562000b9d565b83018262000c98565b50505b505050565b600082821c905092915050565b600062000d2f6000198460080262000d0f565b1980831691505092915050565b600062000d4a838362000d1c565b9150826002028217905092915050565b62000d658262000b19565b67ffffffffffffffff81111562000d815762000d80620007e5565b5b62000d8d825462000b53565b62000d9a82828562000cbf565b600060209050601f83116001811462000dd2576000841562000dbd578287015190505b62000dc9858262000d3c565b86555062000e39565b601f19841662000de28662000b88565b60005b8281101562000e0c5784890151825560018201915060208501945060208101905062000de5565b8683101562000e2c578489015162000e28601f89168262000d1c565b8355505b6001600288020188555050505b505050505050565b600082825260208201905092915050565b7f6e756c6c20706f6f6c2061646472657373000000000000000000000000000000600082015250565b600062000e8a60118362000e41565b915062000e978262000e52565b602082019050919050565b6000602082019050818103600083015262000ebd8162000e7b565b9050919050565b60006020828403121562000edd5762000edc6200075b565b5b600062000eed84828501620007b3565b91505092915050565b600062000f038262000785565b9050919050565b62000f158162000ef6565b811462000f2157600080fd5b50565b60008151905062000f358162000f0a565b92915050565b60006020828403121562000f545762000f536200075b565b5b600062000f648482850162000f24565b91505092915050565b600062000f7a8262000785565b9050919050565b62000f8c8162000f6d565b811462000f9857600080fd5b50565b60008151905062000fac8162000f81565b92915050565b60006020828403121562000fcb5762000fca6200075b565b5b600062000fdb8482850162000f9b565b91505092915050565b62000fef8162000785565b82525050565b6000819050919050565b6000620010206200101a620010148462000ff5565b62000c10565b6200094e565b9050919050565b620010328162000fff565b82525050565b60006040820190506200104f600083018562000fe4565b6200105e602083018462001027565b9392505050565b60008115159050919050565b6200107c8162001065565b81146200108857600080fd5b50565b6000815190506200109c8162001071565b92915050565b600060208284031215620010bb57620010ba6200075b565b5b6000620010cb848285016200108b565b91505092915050565b600060ff82169050919050565b620010ec81620010d4565b8114620010f857600080fd5b50565b6000815190506200110c81620010e1565b92915050565b6000602082840312156200112b576200112a6200075b565b5b60006200113b84828501620010fb565b91505092915050565b7f4e487b7100000000000000000000000000000000000000000000000000000000600052601160045260246000fd5b60008160011c9050919050565b6000808291508390505b6001851115620011d257808604811115620011aa57620011a962001144565b5b6001851615620011ba5780820291505b8081029050620011ca8562001173565b94506200118a565b94509492505050565b600082620011ed5760019050620012c0565b81620011fd5760009050620012c0565b8160018114620012165760028114620012215762001257565b6001915050620012c0565b60ff84111562001236576200123562001144565b5b8360020a91508482111562001250576200124f62001144565b5b50620012c0565b5060208310610133831016604e8410600b8410161715620012915782820a9050838111156200128b576200128a62001144565b5b620012c0565b620012a0848484600162001180565b92509050818404811115620012ba57620012b962001144565b5b81810290505b9392505050565b6000620012d4826200094e565b9150620012e1836200094e565b9250620013107fffffffffffffffffffffffffffffffffffffffffffffffffffffffffffffffff8484620011db565b905092915050565b7f57726f6e6720737472696b657300000000000000000000000000000000000000600082015250565b600062001350600d8362000e41565b91506200135d8262001318565b602082019050919050565b60006020820190508181036000830152620013838162001341565b9050919050565b7f4e487b7100000000000000000000000000000000000000000000000000000000600052601260045260246000fd5b6000620013c6826200094e565b9150620013d3836200094e565b925082620013e657620013e56200138a565b5b828206905092915050565b7f57726f6e672074656e6f72730000000000000000000000000000000000000000600082015250565b600062001429600c8362000e41565b91506200143682620013f1565b602082019050919050565b600060208201905081810360008301526200145c816200141a565b9050919050565b60805160a05160c05160e0516101005161549062001534600039600081816106ef01528181610e3601526119bc015260008181610ab501526120db01526000818161082101528181610c9b015281816111480152818161190601528181611d2301528181611e0d0152818161216501526128a4015260008181610b2201528181610e63015281816115f1015281816116b901528181611ad401528181612453015281816126610152818161273701526128c801526000818161133601528181611bda015261221b01526154906000f3fe608060405234801561001057600080fd5b50600436106101e55760003560e01c8063715018a61161010f578063a9059cbb116100a2578063d7043caa11610071578063d7043caa1461054a578063dd62ed3e14610568578063e6dfa4b214610598578063f2fde38b146105b6576101e5565b8063a9059cbb146104d4578063b056b49a14610504578063cb4c86b71461050e578063d2f7265a1461052c576101e5565b80638da5cb5b116100de5780638da5cb5b146104455780638da61ee01461046357806395d89b4114610486578063a457c2d7146104a4576101e5565b8063715018a6146103f75780637d7c2a1c146104015780637dc0d1d01461040b5780638ca1799514610429576101e5565b80632afcf480116101875780634094fb62116101565780634094fb621461036d578063448077811461038b578063622e8a27146103a957806370a08231146103c7576101e5565b80632afcf480146102e7578063313ce5671461030357806339509351146103215780633dcc27d914610351576101e5565b806316f0115b116101c357806316f0115b1461025d57806318160ddd1461027b578063205a785a1461029957806323b872dd146102b7576101e5565b806306fdde03146101ea578063095ea7b31461020857806312474a6814610238575b600080fd5b6101f26105d2565b6040516101ff91906137a8565b60405180910390f35b610222600480360381019061021d9190613872565b610664565b60405161022f91906138cd565b60405180910390f35b610240610687565b6040516102549897969594939291906138f7565b60405180910390f35b6102656106bd565b60405161027291906139d4565b60405180910390f35b6102836106e3565b60405161029091906139ef565b60405180910390f35b6102a16106ed565b6040516102ae91906139ef565b60405180910390f35b6102d160048036038101906102cc9190613a0a565b610711565b6040516102de91906138cd565b60405180910390f35b61030160048036038101906102fc9190613a5d565b610740565b005b61030b6108b8565b6040516103189190613aa6565b60405180910390f35b61033b60048036038101906103369190613872565b6108c1565b60405161034891906138cd565b60405180910390f35b61036b60048036038101906103669190613c0b565b6108f8565b005b610375610ab3565b60405161038291906139ef565b60405180910390f35b610393610ad7565b6040516103a091906139ef565b60405180910390f35b6103b1610e5e565b6040516103be91906139ef565b60405180910390f35b6103e160048036038101906103dc9190613c39565b61120f565b6040516103ee91906139ef565b60405180910390f35b6103ff611258565b005b6104096112e0565b005b610413611bd8565b6040516104209190613c87565b60405180910390f35b610443600480360381019061043e9190613a5d565b611bfc565b005b61044d611e99565b60405161045a9190613cb1565b60405180910390f35b61046b611ec2565b60405161047d96959493929190613ccc565b60405180910390f35b61048e611eec565b60405161049b91906137a8565b60405180910390f35b6104be60048036038101906104b99190613872565b611f7e565b6040516104cb91906138cd565b60405180910390f35b6104ee60048036038101906104e99190613872565b611ff5565b6040516104fb91906138cd565b60405180910390f35b61050c612018565b005b6105166128a2565b6040516105239190613d4e565b60405180910390f35b6105346128c6565b6040516105419190613d8a565b60405180910390f35b6105526128ea565b60405161055f91906139ef565b60405180910390f35b610582600480360381019061057d9190613da5565b6128f0565b60405161058f91906139ef565b60405180910390f35b6105a0612977565b6040516105ad91906139ef565b60405180910390f35b6105d060048036038101906105cb9190613c39565b61297d565b005b6060600480546105e190613e14565b80601f016020809104026020016040519081016040528092919081815260200182805461060d90613e14565b801561065a5780601f1061062f5761010080835404028352916020019161065a565b820191906000526020600020905b81548152906001019060200180831161063d57829003601f168201915b5050505050905090565b60008061066f612a74565b905061067c818585612a7c565b600191505092915050565b60088060000154908060010154908060020154908060030154908060040154908060050154908060060154908060070154905088565b600760009054906101000a900473ffffffffffffffffffffffffffffffffffffffff1681565b6000600354905090565b7f000000000000000000000000000000000000000000000000000000000000000081565b60008061071c612a74565b9050610729858285612c45565b610734858585612cd1565b60019150509392505050565b600260065403610785576040517f08c379a000000000000000000000000000000000000000000000000000000000815260040161077c90613e91565b60405180910390fd5b60026006819055506000610797610ad7565b905060008273__MathLib_______________________________63de7f61709091846040518363ffffffff1660e01b81526004016107d6929190613ec0565b602060405180830381865af41580156107f3573d6000803e3d6000fd5b505050506040513d601f19601f820116820180604052508101906108179190613efe565b90506108663330857f000000000000000000000000000000000000000000000000000000000000000073ffffffffffffffffffffffffffffffffffffffff16612f53909392919063ffffffff16565b6108703382612fdc565b7f041b4469fcc88a5fc7aa0e470832c45ceb7a1a5f7ffbf1ace0ffc1dd1b22cf743382856040516108a393929190613f2b565b60405180910390a15050600160068190555050565b60006012905090565b6000806108cc612a74565b90506108ed8185856108de85896128f0565b6108e89190613f91565b612a7c565b600191505092915050565b610900612a74565b73ffffffffffffffffffffffffffffffffffffffff1661091e611e99565b73ffffffffffffffffffffffffffffffffffffffff1614610974576040517f08c379a000000000000000000000000000000000000000000000000000000000815260040161096b90614011565b60405180910390fd5b8060e0015181600001511015801561099457508060e00151816040015111155b80156109a7575080604001518160800151105b6109e6576040517f08c379a00000000000000000000000000000000000000000000000000000000081526004016109dd9061407d565b60405180910390fd5b6000816060015182602001516109fc91906140cc565b1480610a1b5750600081602001518260600151610a1991906140cc565b145b610a5a576040517f08c379a0000000000000000000000000000000000000000000000000000000008152600401610a5190614149565b60405180910390fd5b806008600082015181600001556020820151816001015560408201518160020155606082015181600301556080820151816004015560a0820151816005015560c0820151816006015560e0820151816007015590505050565b7f000000000000000000000000000000000000000000000000000000000000000081565b6000601754421015610b1e576040517f08c379a0000000000000000000000000000000000000000000000000000000008152600401610b15906141b5565b60405180910390fd5b60007f000000000000000000000000000000000000000000000000000000000000000073ffffffffffffffffffffffffffffffffffffffff1663fbfa77cf6040518163ffffffff1660e01b8152600401602060405180830381865afa158015610b8b573d6000803e3d6000fd5b505050506040513d601f19601f82011682018060405250810190610baf9190614213565b73ffffffffffffffffffffffffffffffffffffffff16637be795e0600760009054906101000a900473ffffffffffffffffffffffffffffffffffffffff16306040518363ffffffff1660e01b8152600401610c0b929190614240565b600060405180830381865afa158015610c28573d6000803e3d6000fd5b505050506040513d6000823e3d601f19601f82011682018060405250810190610c519190614336565b90506000815114610c97576040517f08c379a0000000000000000000000000000000000000000000000000000000008152600401610c8e906143cb565b60405180910390fd5b60007f000000000000000000000000000000000000000000000000000000000000000073ffffffffffffffffffffffffffffffffffffffff166370a08231306040518263ffffffff1660e01b8152600401610cf29190613cb1565b602060405180830381865afa158015610d0f573d6000803e3d6000fd5b505050506040513d601f19601f82011682018060405250810190610d339190613efe565b905060003073ffffffffffffffffffffffffffffffffffffffff166318160ddd6040518163ffffffff1660e01b8152600401602060405180830381865afa158015610d82573d6000803e3d6000fd5b505050506040513d601f19601f82011682018060405250810190610da69190613efe565b90506000811115610e34578173__MathLib_______________________________63de7f61709091836040518363ffffffff1660e01b8152600401610dec929190613ec0565b602060405180830381865af4158015610e09573d6000803e3d6000fd5b505050506040513d601f19601f82011682018060405250810190610e2d9190613efe565b9350610e58565b7f000000000000000000000000000000000000000000000000000000000000000093505b50505090565b6000807f000000000000000000000000000000000000000000000000000000000000000073ffffffffffffffffffffffffffffffffffffffff1663fbfa77cf6040518163ffffffff1660e01b8152600401602060405180830381865afa158015610ecc573d6000803e3d6000fd5b505050506040513d601f19601f82011682018060405250810190610ef09190614213565b905060008173ffffffffffffffffffffffffffffffffffffffff16637be795e0600760009054906101000a900473ffffffffffffffffffffffffffffffffffffffff16306040518363ffffffff1660e01b8152600401610f51929190614240565b600060405180830381865afa158015610f6e573d6000803e3d6000fd5b505050506040513d6000823e3d601f19601f82011682018060405250810190610f979190614336565b9050600281511115610fde576040517f08c379a0000000000000000000000000000000000000000000000000000000008152600401610fd590614437565b60405180910390fd5b600060018251106110925760008373ffffffffffffffffffffffffffffffffffffffff1663350807058460008151811061101b5761101a614457565b5b60200260200101516040518263ffffffff1660e01b815260040161103f91906139ef565b6040805180830381865afa15801561105b573d6000803e3d6000fd5b505050506040513d601f19601f8201168201806040525081019061107f9190614486565b509050808261108e9190613f91565b9150505b60028251036111445760008373ffffffffffffffffffffffffffffffffffffffff166335080705846001815181106110cd576110cc614457565b5b60200260200101516040518263ffffffff1660e01b81526004016110f191906139ef565b6040805180830381865afa15801561110d573d6000803e3d6000fd5b505050506040513d601f19601f820116820180604052508101906111319190614486565b50905080826111409190613f91565b9150505b60007f000000000000000000000000000000000000000000000000000000000000000073ffffffffffffffffffffffffffffffffffffffff1673__MarketLib_____________________________63983d3bb89091306040518363ffffffff1660e01b81526004016111b79291906144e4565b602060405180830381865af41580156111d4573d6000803e3d6000fd5b505050506040513d601f19601f820116820180604052508101906111f89190613efe565b905080826112069190613f91565b94505050505090565b6000600160008373ffffffffffffffffffffffffffffffffffffffff1673ffffffffffffffffffffffffffffffffffffffff168152602001908152602001600020549050919050565b611260612a74565b73ffffffffffffffffffffffffffffffffffffffff1661127e611e99565b73ffffffffffffffffffffffffffffffffffffffff16146112d4576040517f08c379a00000000000000000000000000000000000000000000000000000000081526004016112cb90614011565b60405180910390fd5b6112de600061313c565b565b60165442101580156112f3575060175442105b611332576040517f08c379a000000000000000000000000000000000000000000000000000000000815260040161132990614559565b60405180910390fd5b60007f000000000000000000000000000000000000000000000000000000000000000073ffffffffffffffffffffffffffffffffffffffff1663b0667cf86040518163ffffffff1660e01b8152600401602060405180830381865afa15801561139f573d6000803e3d6000fd5b505050506040513d601f19601f820116820180604052508101906113c39190613efe565b905060086003015460086001015411156117825760006010600201541161141f576040517f08c379a0000000000000000000000000000000000000000000000000000000008152600401611416906145c5565b60405180910390fd5b6114466017546008600301546016546114389190613f91565b61320090919063ffffffff16565b6016819055504260165411611490576040517f08c379a000000000000000000000000000000000000000000000000000000000815260040161148790614631565b60405180910390fd5b6000426016546114a09190614651565b905060006115436010600201548473__MathLib_______________________________63b3947c1790916008600201546008600701546040518463ffffffff1660e01b81526004016114f493929190614685565b602060405180830381865af4158015611511573d6000803e3d6000fd5b505050506040513d601f19601f820116820180604052508101906115359190613efe565b61320090919063ffffffff16565b9050600060086004015411156116b75760008173__MathLib_______________________________63b3947c1790916008600401546008600201546115889190614651565b6008600201546040518463ffffffff1660e01b81526004016115ac93929190614685565b602060405180830381865af41580156115c9573d6000803e3d6000fd5b505050506040513d601f19601f820116820180604052508101906115ed9190613efe565b90507f000000000000000000000000000000000000000000000000000000000000000073ffffffffffffffffffffffffffffffffffffffff166331d975d2600760009054906101000a900473ffffffffffffffffffffffffffffffffffffffff1685858560106000015460036000806040518963ffffffff1660e01b815260040161167f9897969594939291906147c3565b600060405180830381600087803b15801561169957600080fd5b505af11580156116ad573d6000803e3d6000fd5b505050505061177b565b7f000000000000000000000000000000000000000000000000000000000000000073ffffffffffffffffffffffffffffffffffffffff166331d975d2600760009054906101000a900473ffffffffffffffffffffffffffffffffffffffff168484600060106000015460016000806040518963ffffffff1660e01b815260040161174898979695949392919061487c565b600060405180830381600087803b15801561176257600080fd5b505af1158015611776573d6000803e3d6000fd5b505050505b5050611b97565b6008600301546008600101541015611b96576000601060010154116117dc576040517f08c379a00000000000000000000000000000000000000000000000000000000081526004016117d390614946565b60405180910390fd5b6118036017546008600101546016546117f59190613f91565b61320090919063ffffffff16565b601681905550426016541161184d576040517f08c379a0000000000000000000000000000000000000000000000000000000008152600401611844906149b2565b60405180910390fd5b60004260165461185d9190614651565b905060006119006010600101548473__MathLib_______________________________63b3947c1790916008600001546008600701546040518463ffffffff1660e01b81526004016118b193929190614685565b602060405180830381865af41580156118ce573d6000803e3d6000fd5b505050506040513d601f19601f820116820180604052508101906118f29190613efe565b61321990919063ffffffff16565b905060007f000000000000000000000000000000000000000000000000000000000000000073ffffffffffffffffffffffffffffffffffffffff166370a08231306040518263ffffffff1660e01b815260040161195d9190613cb1565b602060405180830381865afa15801561197a573d6000803e3d6000fd5b505050506040513d601f19601f8201168201806040525081019061199e9190613efe565b73__MathLib_______________________________63de7f617090917f00000000000000000000000000000000000000000000000000000000000000006040518363ffffffff1660e01b81526004016119f8929190613ec0565b602060405180830381865af4158015611a15573d6000803e3d6000fd5b505050506040513d601f19601f82011682018060405250810190611a399190613efe565b90506000611ad06010600001548373__MathLib_______________________________63de7f61709091896040518363ffffffff1660e01b8152600401611a81929190613ec0565b602060405180830381865af4158015611a9e573d6000803e3d6000fd5b505050506040513d601f19601f82011682018060405250810190611ac29190613efe565b61320090919063ffffffff16565b90507f000000000000000000000000000000000000000000000000000000000000000073ffffffffffffffffffffffffffffffffffffffff166331d975d2600760009054906101000a900473ffffffffffffffffffffffffffffffffffffffff1686866000866000600160006040518963ffffffff1660e01b8152600401611b5f98979695949392919061487c565b600060405180830381600087803b158015611b7957600080fd5b505af1158015611b8d573d6000803e3d6000fd5b50505050505050505b5b7f237122ecc26db03503dc1dbb9f3131f31421dccbcf3b9cd95c3e4f89952aa8bd426016546000604051611bcd939291906149d2565b60405180910390a150565b7f000000000000000000000000000000000000000000000000000000000000000081565b600260065403611c41576040517f08c379a0000000000000000000000000000000000000000000000000000000008152600401611c3890613e91565b60405180910390fd5b60026006819055506000611c53610ad7565b905060008273__MathLib_______________________________63fed4a0f39091846040518363ffffffff1660e01b8152600401611c92929190613ec0565b602060405180830381865af4158015611caf573d6000803e3d6000fd5b505050506040513d601f19601f82011682018060405250810190611cd39190613efe565b905082611cdf3361120f565b1015611d20576040517f08c379a0000000000000000000000000000000000000000000000000000000008152600401611d1790614a55565b60405180910390fd5b807f000000000000000000000000000000000000000000000000000000000000000073ffffffffffffffffffffffffffffffffffffffff166370a08231306040518263ffffffff1660e01b8152600401611d7a9190613cb1565b602060405180830381865afa158015611d97573d6000803e3d6000fd5b505050506040513d601f19601f82011682018060405250810190611dbb9190613efe565b1015611dfc576040517f08c379a0000000000000000000000000000000000000000000000000000000008152600401611df390614ac1565b60405180910390fd5b611e063384613233565b611e5133827f000000000000000000000000000000000000000000000000000000000000000073ffffffffffffffffffffffffffffffffffffffff1661340b9092919063ffffffff16565b7f9f640df38d8aaf522552ca6393f7244a2ac0fede0d9ae61c288d017daf5d8c60338483604051611e8493929190613f2b565b60405180910390a15050600160068190555050565b60008060009054906101000a900473ffffffffffffffffffffffffffffffffffffffff16905090565b60108060000154908060010154908060020154908060030154908060040154908060050154905086565b606060058054611efb90613e14565b80601f0160208091040260200160405190810160405280929190818152602001828054611f2790613e14565b8015611f745780601f10611f4957610100808354040283529160200191611f74565b820191906000526020600020905b815481529060010190602001808311611f5757829003601f168201915b5050505050905090565b600080611f89612a74565b90506000611f9782866128f0565b905083811015611fdc576040517f08c379a0000000000000000000000000000000000000000000000000000000008152600401611fd390614b53565b60405180910390fd5b611fe98286868403612a7c565b60019250505092915050565b600080612000612a74565b905061200d818585612cd1565b600191505092915050565b60086005015460175461202b9190613f91565b42101561206d576040517f08c379a000000000000000000000000000000000000000000000000000000000815260040161206490614bbf565b60405180910390fd5b6000612077610ad7565b9050600081116120bc576040517f08c379a00000000000000000000000000000000000000000000000000000000081526004016120b390614c2b565b60405180910390fd5b8073__MarketLib_____________________________63ed1bb19990917f00000000000000000000000000000000000000000000000000000000000000006040518363ffffffff1660e01b8152600401612117929190613ec0565b602060405180830381865af4158015612134573d6000803e3d6000fd5b505050506040513d601f19601f820116820180604052508101906121589190613efe565b60106005018190555060007f000000000000000000000000000000000000000000000000000000000000000073ffffffffffffffffffffffffffffffffffffffff1673__MarketLib_____________________________63983d3bb89091306040518363ffffffff1660e01b81526004016121d49291906144e4565b602060405180830381865af41580156121f1573d6000803e3d6000fd5b505050506040513d601f19601f820116820180604052508101906122159190613efe565b905060007f000000000000000000000000000000000000000000000000000000000000000073ffffffffffffffffffffffffffffffffffffffff1663b0667cf86040518163ffffffff1660e01b8152600401602060405180830381865afa158015612284573d6000803e3d6000fd5b505050506040513d601f19601f820116820180604052508101906122a89190613efe565b9050806010600401819055508173__MathLib_______________________________63de7f61709091836040518363ffffffff1660e01b81526004016122ef929190613ec0565b602060405180830381865af415801561230c573d6000803e3d6000fd5b505050506040513d601f19601f820116820180604052508101906123309190613efe565b73__MathLib_______________________________63b3947c1790916008600601546008600701546040518463ffffffff1660e01b815260040161237693929190614685565b602060405180830381865af4158015612393573d6000803e3d6000fd5b505050506040513d601f19601f820116820180604052508101906123b79190613efe565b6010600001819055508073__MathLib_______________________________63b3947c1790916008600001546008600701546040518463ffffffff1660e01b815260040161240793929190614685565b602060405180830381865af4158015612424573d6000803e3d6000fd5b505050506040513d601f19601f820116820180604052508101906124489190613efe565b6010600101819055507f000000000000000000000000000000000000000000000000000000000000000073ffffffffffffffffffffffffffffffffffffffff166331d975d2600760009054906101000a900473ffffffffffffffffffffffffffffffffffffffff1660086001015460106001015460006010600001546000600160006040518963ffffffff1660e01b81526004016124ed98979695949392919061487c565b600060405180830381600087803b15801561250757600080fd5b505af115801561251b573d6000803e3d6000fd5b505050508073__MathLib_______________________________63b3947c1790916008600201546008600701546040518463ffffffff1660e01b815260040161256693929190614685565b602060405180830381865af4158015612583573d6000803e3d6000fd5b505050506040513d601f19601f820116820180604052508101906125a79190613efe565b60106002018190555060006008600401541115612735578073__MathLib_______________________________63b3947c1790916008600401546008600201546125f19190614651565b6008600701546040518463ffffffff1660e01b815260040161261593929190614685565b602060405180830381865af4158015612632573d6000803e3d6000fd5b505050506040513d601f19601f820116820180604052508101906126569190613efe565b6010600301819055507f000000000000000000000000000000000000000000000000000000000000000073ffffffffffffffffffffffffffffffffffffffff166331d975d2600760009054906101000a900473ffffffffffffffffffffffffffffffffffffffff1660086003015460106002015460106003015460106000015460036000806040518963ffffffff1660e01b81526004016126fe9897969594939291906147c3565b600060405180830381600087803b15801561271857600080fd5b505af115801561272c573d6000803e3d6000fd5b50505050612803565b7f000000000000000000000000000000000000000000000000000000000000000073ffffffffffffffffffffffffffffffffffffffff166331d975d2600760009054906101000a900473ffffffffffffffffffffffffffffffffffffffff16600860030154601060020154600060106000015460016000806040518963ffffffff1660e01b81526004016127d098979695949392919061487c565b600060405180830381600087803b1580156127ea57600080fd5b505af11580156127fe573d6000803e3d6000fd5b505050505b61282060086003015460086001015461320090919063ffffffff16565b4261282b9190613f91565b60168190555061284e60086003015460086001015461321990919063ffffffff16565b426128599190613f91565b6017819055507f237122ecc26db03503dc1dbb9f3131f31421dccbcf3b9cd95c3e4f89952aa8bd426017546001604051612895939291906149d2565b60405180910390a1505050565b7f000000000000000000000000000000000000000000000000000000000000000081565b7f000000000000000000000000000000000000000000000000000000000000000081565b60175481565b6000600260008473ffffffffffffffffffffffffffffffffffffffff1673ffffffffffffffffffffffffffffffffffffffff16815260200190815260200160002060008373ffffffffffffffffffffffffffffffffffffffff1673ffffffffffffffffffffffffffffffffffffffff16815260200190815260200160002054905092915050565b60165481565b612985612a74565b73ffffffffffffffffffffffffffffffffffffffff166129a3611e99565b73ffffffffffffffffffffffffffffffffffffffff16146129f9576040517f08c379a00000000000000000000000000000000000000000000000000000000081526004016129f090614011565b60405180910390fd5b600073ffffffffffffffffffffffffffffffffffffffff168173ffffffffffffffffffffffffffffffffffffffff1603612a68576040517f08c379a0000000000000000000000000000000000000000000000000000000008152600401612a5f90614cbd565b60405180910390fd5b612a718161313c565b50565b600033905090565b600073ffffffffffffffffffffffffffffffffffffffff168373ffffffffffffffffffffffffffffffffffffffff1603612aeb576040517f08c379a0000000000000000000000000000000000000000000000000000000008152600401612ae290614d4f565b60405180910390fd5b600073ffffffffffffffffffffffffffffffffffffffff168273ffffffffffffffffffffffffffffffffffffffff1603612b5a576040517f08c379a0000000000000000000000000000000000000000000000000000000008152600401612b5190614de1565b60405180910390fd5b80600260008573ffffffffffffffffffffffffffffffffffffffff1673ffffffffffffffffffffffffffffffffffffffff16815260200190815260200160002060008473ffffffffffffffffffffffffffffffffffffffff1673ffffffffffffffffffffffffffffffffffffffff168152602001908152602001600020819055508173ffffffffffffffffffffffffffffffffffffffff168373ffffffffffffffffffffffffffffffffffffffff167f8c5be1e5ebec7d5bd14f71427d1e84f3dd0314c0f7b2291e5b200ac8c7c3b92583604051612c3891906139ef565b60405180910390a3505050565b6000612c5184846128f0565b90507fffffffffffffffffffffffffffffffffffffffffffffffffffffffffffffffff8114612ccb5781811015612cbd576040517f08c379a0000000000000000000000000000000000000000000000000000000008152600401612cb490614e4d565b60405180910390fd5b612cca8484848403612a7c565b5b50505050565b600073ffffffffffffffffffffffffffffffffffffffff168373ffffffffffffffffffffffffffffffffffffffff1603612d40576040517f08c379a0000000000000000000000000000000000000000000000000000000008152600401612d3790614edf565b60405180910390fd5b600073ffffffffffffffffffffffffffffffffffffffff168273ffffffffffffffffffffffffffffffffffffffff1603612daf576040517f08c379a0000000000000000000000000000000000000000000000000000000008152600401612da690614f71565b60405180910390fd5b612dba838383613491565b6000600160008573ffffffffffffffffffffffffffffffffffffffff1673ffffffffffffffffffffffffffffffffffffffff16815260200190815260200160002054905081811015612e41576040517f08c379a0000000000000000000000000000000000000000000000000000000008152600401612e3890615003565b60405180910390fd5b818103600160008673ffffffffffffffffffffffffffffffffffffffff1673ffffffffffffffffffffffffffffffffffffffff1681526020019081526020016000208190555081600160008573ffffffffffffffffffffffffffffffffffffffff1673ffffffffffffffffffffffffffffffffffffffff1681526020019081526020016000206000828254612ed69190613f91565b925050819055508273ffffffffffffffffffffffffffffffffffffffff168473ffffffffffffffffffffffffffffffffffffffff167fddf252ad1be2c89b69c2b068fc378daa952ba7f163c4a11628f55a4df523b3ef84604051612f3a91906139ef565b60405180910390a3612f4d848484613496565b50505050565b612fd6846323b872dd60e01b858585604051602401612f7493929190615023565b604051602081830303815290604052907bffffffffffffffffffffffffffffffffffffffffffffffffffffffff19166020820180517bffffffffffffffffffffffffffffffffffffffffffffffffffffffff838183161783525050505061349b565b50505050565b600073ffffffffffffffffffffffffffffffffffffffff168273ffffffffffffffffffffffffffffffffffffffff160361304b576040517f08c379a0000000000000000000000000000000000000000000000000000000008152600401613042906150a6565b60405180910390fd5b61305760008383613491565b80600360008282546130699190613f91565b9250508190555080600160008473ffffffffffffffffffffffffffffffffffffffff1673ffffffffffffffffffffffffffffffffffffffff16815260200190815260200160002060008282546130bf9190613f91565b925050819055508173ffffffffffffffffffffffffffffffffffffffff16600073ffffffffffffffffffffffffffffffffffffffff167fddf252ad1be2c89b69c2b068fc378daa952ba7f163c4a11628f55a4df523b3ef8360405161312491906139ef565b60405180910390a361313860008383613496565b5050565b60008060009054906101000a900473ffffffffffffffffffffffffffffffffffffffff169050816000806101000a81548173ffffffffffffffffffffffffffffffffffffffff021916908373ffffffffffffffffffffffffffffffffffffffff1602179055508173ffffffffffffffffffffffffffffffffffffffff168173ffffffffffffffffffffffffffffffffffffffff167f8be0079c531659141344cd1fd0a4f28419497f9722a3daafe3b4186f6b6457e060405160405180910390a35050565b600081831061320f5781613211565b825b905092915050565b600081831015613229578161322b565b825b905092915050565b600073ffffffffffffffffffffffffffffffffffffffff168273ffffffffffffffffffffffffffffffffffffffff16036132a2576040517f08c379a000000000000000000000000000000000000000000000000000000000815260040161329990615138565b60405180910390fd5b6132ae82600083613491565b6000600160008473ffffffffffffffffffffffffffffffffffffffff1673ffffffffffffffffffffffffffffffffffffffff16815260200190815260200160002054905081811015613335576040517f08c379a000000000000000000000000000000000000000000000000000000000815260040161332c906151ca565b60405180910390fd5b818103600160008573ffffffffffffffffffffffffffffffffffffffff1673ffffffffffffffffffffffffffffffffffffffff16815260200190815260200160002081905550816003600082825461338d9190614651565b92505081905550600073ffffffffffffffffffffffffffffffffffffffff168373ffffffffffffffffffffffffffffffffffffffff167fddf252ad1be2c89b69c2b068fc378daa952ba7f163c4a11628f55a4df523b3ef846040516133f291906139ef565b60405180910390a361340683600084613496565b505050565b61348c8363a9059cbb60e01b848460405160240161342a9291906151ea565b604051602081830303815290604052907bffffffffffffffffffffffffffffffffffffffffffffffffffffffff19166020820180517bffffffffffffffffffffffffffffffffffffffffffffffffffffffff838183161783525050505061349b565b505050565b505050565b505050565b60006134fd826040518060400160405280602081526020017f5361666545524332303a206c6f772d6c6576656c2063616c6c206661696c65648152508573ffffffffffffffffffffffffffffffffffffffff166135629092919063ffffffff16565b905060008151111561355d578080602001905181019061351d919061523f565b61355c576040517f08c379a0000000000000000000000000000000000000000000000000000000008152600401613553906152de565b60405180910390fd5b5b505050565b6060613571848460008561357a565b90509392505050565b6060824710156135bf576040517f08c379a00000000000000000000000000000000000000000000000000000000081526004016135b690615370565b60405180910390fd5b6135c88561368e565b613607576040517f08c379a00000000000000000000000000000000000000000000000000000000081526004016135fe906153dc565b60405180910390fd5b6000808673ffffffffffffffffffffffffffffffffffffffff1685876040516136309190615443565b60006040518083038185875af1925050503d806000811461366d576040519150601f19603f3d011682016040523d82523d6000602084013e613672565b606091505b50915091506136828282866136b1565b92505050949350505050565b6000808273ffffffffffffffffffffffffffffffffffffffff163b119050919050565b606083156136c157829050613711565b6000835111156136d45782518084602001fd5b816040517f08c379a000000000000000000000000000000000000000000000000000000000815260040161370891906137a8565b60405180910390fd5b9392505050565b600081519050919050565b600082825260208201905092915050565b60005b83811015613752578082015181840152602081019050613737565b60008484015250505050565b6000601f19601f8301169050919050565b600061377a82613718565b6137848185613723565b9350613794818560208601613734565b61379d8161375e565b840191505092915050565b600060208201905081810360008301526137c2818461376f565b905092915050565b6000604051905090565b600080fd5b600080fd5b600073ffffffffffffffffffffffffffffffffffffffff82169050919050565b6000613809826137de565b9050919050565b613819816137fe565b811461382457600080fd5b50565b60008135905061383681613810565b92915050565b6000819050919050565b61384f8161383c565b811461385a57600080fd5b50565b60008135905061386c81613846565b92915050565b60008060408385031215613889576138886137d4565b5b600061389785828601613827565b92505060206138a88582860161385d565b9150509250929050565b60008115159050919050565b6138c7816138b2565b82525050565b60006020820190506138e260008301846138be565b92915050565b6138f18161383c565b82525050565b60006101008201905061390d600083018b6138e8565b61391a602083018a6138e8565b61392760408301896138e8565b61393460608301886138e8565b61394160808301876138e8565b61394e60a08301866138e8565b61395b60c08301856138e8565b61396860e08301846138e8565b9998505050505050505050565b6000819050919050565b600061399a613995613990846137de565b613975565b6137de565b9050919050565b60006139ac8261397f565b9050919050565b60006139be826139a1565b9050919050565b6139ce816139b3565b82525050565b60006020820190506139e960008301846139c5565b92915050565b6000602082019050613a0460008301846138e8565b92915050565b600080600060608486031215613a2357613a226137d4565b5b6000613a3186828701613827565b9350506020613a4286828701613827565b9250506040613a538682870161385d565b9150509250925092565b600060208284031215613a7357613a726137d4565b5b6000613a818482850161385d565b91505092915050565b600060ff82169050919050565b613aa081613a8a565b82525050565b6000602082019050613abb6000830184613a97565b92915050565b600080fd5b7f4e487b7100000000000000000000000000000000000000000000000000000000600052604160045260246000fd5b613afe8261375e565b810181811067ffffffffffffffff82111715613b1d57613b1c613ac6565b5b80604052505050565b6000613b306137ca565b9050613b3c8282613af5565b919050565b60006101008284031215613b5857613b57613ac1565b5b613b63610100613b26565b90506000613b738482850161385d565b6000830152506020613b878482850161385d565b6020830152506040613b9b8482850161385d565b6040830152506060613baf8482850161385d565b6060830152506080613bc38482850161385d565b60808301525060a0613bd78482850161385d565b60a08301525060c0613beb8482850161385d565b60c08301525060e0613bff8482850161385d565b60e08301525092915050565b60006101008284031215613c2257613c216137d4565b5b6000613c3084828501613b41565b91505092915050565b600060208284031215613c4f57613c4e6137d4565b5b6000613c5d84828501613827565b91505092915050565b6000613c71826139a1565b9050919050565b613c8181613c66565b82525050565b6000602082019050613c9c6000830184613c78565b92915050565b613cab816137fe565b82525050565b6000602082019050613cc66000830184613ca2565b92915050565b600060c082019050613ce160008301896138e8565b613cee60208301886138e8565b613cfb60408301876138e8565b613d0860608301866138e8565b613d1560808301856138e8565b613d2260a08301846138e8565b979650505050505050565b6000613d38826139a1565b9050919050565b613d4881613d2d565b82525050565b6000602082019050613d636000830184613d3f565b92915050565b6000613d74826139a1565b9050919050565b613d8481613d69565b82525050565b6000602082019050613d9f6000830184613d7b565b92915050565b60008060408385031215613dbc57613dbb6137d4565b5b6000613dca85828601613827565b9250506020613ddb85828601613827565b9150509250929050565b7f4e487b7100000000000000000000000000000000000000000000000000000000600052602260045260246000fd5b60006002820490506001821680613e2c57607f821691505b602082108103613e3f57613e3e613de5565b5b50919050565b7f5265656e7472616e637947756172643a207265656e7472616e742063616c6c00600082015250565b6000613e7b601f83613723565b9150613e8682613e45565b602082019050919050565b60006020820190508181036000830152613eaa81613e6e565b9050919050565b613eba8161383c565b82525050565b6000604082019050613ed56000830185613eb1565b613ee26020830184613eb1565b9392505050565b600081519050613ef881613846565b92915050565b600060208284031215613f1457613f136137d4565b5b6000613f2284828501613ee9565b91505092915050565b6000606082019050613f406000830186613ca2565b613f4d60208301856138e8565b613f5a60408301846138e8565b949350505050565b7f4e487b7100000000000000000000000000000000000000000000000000000000600052601160045260246000fd5b6000613f9c8261383c565b9150613fa78361383c565b9250828201905080821115613fbf57613fbe613f62565b5b92915050565b7f4f776e61626c653a2063616c6c6572206973206e6f7420746865206f776e6572600082015250565b6000613ffb602083613723565b915061400682613fc5565b602082019050919050565b6000602082019050818103600083015261402a81613fee565b9050919050565b7f57726f6e6720737472696b657300000000000000000000000000000000000000600082015250565b6000614067600d83613723565b915061407282614031565b602082019050919050565b600060208201905081810360008301526140968161405a565b9050919050565b7f4e487b7100000000000000000000000000000000000000000000000000000000600052601260045260246000fd5b60006140d78261383c565b91506140e28361383c565b9250826140f2576140f161409d565b5b828206905092915050565b7f57726f6e672074656e6f72730000000000000000000000000000000000000000600082015250565b6000614133600c83613723565b915061413e826140fd565b602082019050919050565b6000602082019050818103600083015261416281614126565b9050919050565b7f496e7665737420697320756e617661696c61626c652e00000000000000000000600082015250565b600061419f601683613723565b91506141aa82614169565b602082019050919050565b600060208201905081810360008301526141ce81614192565b9050919050565b60006141e0826137fe565b9050919050565b6141f0816141d5565b81146141fb57600080fd5b50565b60008151905061420d816141e7565b92915050565b600060208284031215614229576142286137d4565b5b6000614237848285016141fe565b91505092915050565b60006040820190506142556000830185613ca2565b6142626020830184613ca2565b9392505050565b600080fd5b600067ffffffffffffffff82111561428957614288613ac6565b5b602082029050602081019050919050565b600080fd5b60006142b26142ad8461426e565b613b26565b905080838252602082019050602084028301858111156142d5576142d461429a565b5b835b818110156142fe57806142ea8882613ee9565b8452602084019350506020810190506142d7565b5050509392505050565b600082601f83011261431d5761431c614269565b5b815161432d84826020860161429f565b91505092915050565b60006020828403121561434c5761434b6137d4565b5b600082015167ffffffffffffffff81111561436a576143696137d9565b5b61437684828501614308565b91505092915050565b7f6f7074696f6e7320796574206163746976650000000000000000000000000000600082015250565b60006143b5601283613723565b91506143c08261437f565b602082019050919050565b600060208201905081810360008301526143e4816143a8565b9050919050565b7f6f7074696f6e7320636f756e7420696e636f7272656374000000000000000000600082015250565b6000614421601783613723565b915061442c826143eb565b602082019050919050565b6000602082019050818103600083015261445081614414565b9050919050565b7f4e487b7100000000000000000000000000000000000000000000000000000000600052603260045260246000fd5b6000806040838503121561449d5761449c6137d4565b5b60006144ab85828601613ee9565b92505060206144bc85828601613ee9565b9150509250929050565b6144cf81613d2d565b82525050565b6144de816137fe565b82525050565b60006040820190506144f960008301856144c6565b61450660208301846144d5565b9392505050565b7f4e6f7420666f7220726562616c616e6365000000000000000000000000000000600082015250565b6000614543601183613723565b915061454e8261450d565b602082019050919050565b6000602082019050818103600083015261457281614536565b9050919050565b7f50757420737472696b6520756e73657400000000000000000000000000000000600082015250565b60006145af601083613723565b91506145ba82614579565b602082019050919050565b600060208201905081810360008301526145de816145a2565b9050919050565b7f7075742065787069727920696e20746865207061737400000000000000000000600082015250565b600061461b601683613723565b9150614626826145e5565b602082019050919050565b6000602082019050818103600083015261464a8161460e565b9050919050565b600061465c8261383c565b91506146678361383c565b925082820390508181111561467f5761467e613f62565b5b92915050565b600060608201905061469a6000830186613eb1565b6146a76020830185613eb1565b6146b46040830184613eb1565b949350505050565b7f4e487b7100000000000000000000000000000000000000000000000000000000600052602160045260246000fd5b600481106146fc576146fb6146bc565b5b50565b600081905061470d826146eb565b919050565b600061471d826146ff565b9050919050565b61472d81614712565b82525050565b60028110614744576147436146bc565b5b50565b600081905061475582614733565b919050565b600061476582614747565b9050919050565b6147758161475a565b82525050565b6003811061478c5761478b6146bc565b5b50565b600081905061479d8261477b565b919050565b60006147ad8261478f565b9050919050565b6147bd816147a2565b82525050565b6000610100820190506147d9600083018b6139c5565b6147e6602083018a6138e8565b6147f360408301896138e8565b61480060608301886138e8565b61480d60808301876138e8565b61481a60a0830186614724565b61482760c083018561476c565b61483460e08301846147b4565b9998505050505050505050565b6000819050919050565b600061486661486161485c84614841565b613975565b61383c565b9050919050565b6148768161484b565b82525050565b600061010082019050614892600083018b6139c5565b61489f602083018a6138e8565b6148ac60408301896138e8565b6148b9606083018861486d565b6148c660808301876138e8565b6148d360a0830186614724565b6148e060c083018561476c565b6148ed60e08301846147b4565b9998505050505050505050565b7f43616c6c20737472696b6520756e736574000000000000000000000000000000600082015250565b6000614930601183613723565b915061493b826148fa565b602082019050919050565b6000602082019050818103600083015261495f81614923565b9050919050565b7f63616c6c2065787069727920696e207468652070617374000000000000000000600082015250565b600061499c601783613723565b91506149a782614966565b602082019050919050565b600060208201905081810360008301526149cb8161498f565b9050919050565b60006060820190506149e760008301866138e8565b6149f460208301856138e8565b614a0160408301846138be565b949350505050565b7f45786365656420746f74616c2062616c616e6365000000000000000000000000600082015250565b6000614a3f601483613723565b9150614a4a82614a09565b602082019050919050565b60006020820190508181036000830152614a6e81614a32565b9050919050565b7f496e73756666696369656e742066756e64696e67000000000000000000000000600082015250565b6000614aab601483613723565b9150614ab682614a75565b602082019050919050565b60006020820190508181036000830152614ada81614a9e565b9050919050565b7f45524332303a2064656372656173656420616c6c6f77616e63652062656c6f7760008201527f207a65726f000000000000000000000000000000000000000000000000000000602082015250565b6000614b3d602583613723565b9150614b4882614ae1565b604082019050919050565b60006020820190508181036000830152614b6c81614b30565b9050919050565b7f7064526f6c6c7300000000000000000000000000000000000000000000000000600082015250565b6000614ba9600783613723565b9150614bb482614b73565b602082019050919050565b60006020820190508181036000830152614bd881614b9c565b9050919050565b7f3061737365740000000000000000000000000000000000000000000000000000600082015250565b6000614c15600683613723565b9150614c2082614bdf565b602082019050919050565b60006020820190508181036000830152614c4481614c08565b9050919050565b7f4f776e61626c653a206e6577206f776e657220697320746865207a65726f206160008201527f6464726573730000000000000000000000000000000000000000000000000000602082015250565b6000614ca7602683613723565b9150614cb282614c4b565b604082019050919050565b60006020820190508181036000830152614cd681614c9a565b9050919050565b7f45524332303a20617070726f76652066726f6d20746865207a65726f2061646460008201527f7265737300000000000000000000000000000000000000000000000000000000602082015250565b6000614d39602483613723565b9150614d4482614cdd565b604082019050919050565b60006020820190508181036000830152614d6881614d2c565b9050919050565b7f45524332303a20617070726f766520746f20746865207a65726f20616464726560008201527f7373000000000000000000000000000000000000000000000000000000000000602082015250565b6000614dcb602283613723565b9150614dd682614d6f565b604082019050919050565b60006020820190508181036000830152614dfa81614dbe565b9050919050565b7f45524332303a20696e73756666696369656e7420616c6c6f77616e6365000000600082015250565b6000614e37601d83613723565b9150614e4282614e01565b602082019050919050565b60006020820190508181036000830152614e6681614e2a565b9050919050565b7f45524332303a207472616e736665722066726f6d20746865207a65726f20616460008201527f6472657373000000000000000000000000000000000000000000000000000000602082015250565b6000614ec9602583613723565b9150614ed482614e6d565b604082019050919050565b60006020820190508181036000830152614ef881614ebc565b9050919050565b7f45524332303a207472616e7366657220746f20746865207a65726f206164647260008201527f6573730000000000000000000000000000000000000000000000000000000000602082015250565b6000614f5b602383613723565b9150614f6682614eff565b604082019050919050565b60006020820190508181036000830152614f8a81614f4e565b9050919050565b7f45524332303a207472616e7366657220616d6f756e742065786365656473206260008201527f616c616e63650000000000000000000000000000000000000000000000000000602082015250565b6000614fed602683613723565b9150614ff882614f91565b604082019050919050565b6000602082019050818103600083015261501c81614fe0565b9050919050565b60006060820190506150386000830186613ca2565b6150456020830185613ca2565b61505260408301846138e8565b949350505050565b7f45524332303a206d696e7420746f20746865207a65726f206164647265737300600082015250565b6000615090601f83613723565b915061509b8261505a565b602082019050919050565b600060208201905081810360008301526150bf81615083565b9050919050565b7f45524332303a206275726e2066726f6d20746865207a65726f2061646472657360008201527f7300000000000000000000000000000000000000000000000000000000000000602082015250565b6000615122602183613723565b915061512d826150c6565b604082019050919050565b6000602082019050818103600083015261515181615115565b9050919050565b7f45524332303a206275726e20616d6f756e7420657863656564732062616c616e60008201527f6365000000000000000000000000000000000000000000000000000000000000602082015250565b60006151b4602283613723565b91506151bf82615158565b604082019050919050565b600060208201905081810360008301526151e3816151a7565b9050919050565b60006040820190506151ff6000830185613ca2565b61520c60208301846138e8565b9392505050565b61521c816138b2565b811461522757600080fd5b50565b60008151905061523981615213565b92915050565b600060208284031215615255576152546137d4565b5b60006152638482850161522a565b91505092915050565b7f5361666545524332303a204552433230206f7065726174696f6e20646964206e60008201527f6f74207375636365656400000000000000000000000000000000000000000000602082015250565b60006152c8602a83613723565b91506152d38261526c565b604082019050919050565b600060208201905081810360008301526152f7816152bb565b9050919050565b7f416464726573733a20696e73756666696369656e742062616c616e636520666f60008201527f722063616c6c0000000000000000000000000000000000000000000000000000602082015250565b600061535a602683613723565b9150615365826152fe565b604082019050919050565b600060208201905081810360008301526153898161534d565b9050919050565b7f416464726573733a2063616c6c20746f206e6f6e2d636f6e7472616374000000600082015250565b60006153c6601d83613723565b91506153d182615390565b602082019050919050565b600060208201905081810360008301526153f5816153b9565b9050919050565b600081519050919050565b600081905092915050565b600061541d826153fc565b6154278185615407565b9350615437818560208601613734565b80840191505092915050565b600061544f8284615412565b91508190509291505056fea26469706673582212209d668c6d69e4612b76deb927b3a1ae2e8091743327583276057c05844ea7c36f64736f6c63430008110033",
  "immutableReferences": {
    "16774": [
      {
        "length": 32,
        "start": 4918
      },
      {
        "length": 32,
        "start": 7130
      },
      {
        "length": 32,
        "start": 8731
      }
    ],
    "16777": [
      {
        "length": 32,
        "start": 2850
      },
      {
        "length": 32,
        "start": 3683
      },
      {
        "length": 32,
        "start": 5617
      },
      {
        "length": 32,
        "start": 5817
      },
      {
        "length": 32,
        "start": 6868
      },
      {
        "length": 32,
        "start": 9299
      },
      {
        "length": 32,
        "start": 9825
      },
      {
        "length": 32,
        "start": 10039
      },
      {
        "length": 32,
        "start": 10440
      }
    ],
    "16780": [
      {
        "length": 32,
        "start": 2081
      },
      {
        "length": 32,
        "start": 3227
      },
      {
        "length": 32,
        "start": 4424
      },
      {
        "length": 32,
        "start": 6406
      },
      {
        "length": 32,
        "start": 7459
      },
      {
        "length": 32,
        "start": 7693
      },
      {
        "length": 32,
        "start": 8549
      },
      {
        "length": 32,
        "start": 10404
      }
    ],
    "16782": [
      {
        "length": 32,
        "start": 2741
      },
      {
        "length": 32,
        "start": 8411
      }
    ],
    "16784": [
      {
        "length": 32,
        "start": 1775
      },
      {
        "length": 32,
        "start": 3638
      },
      {
        "length": 32,
        "start": 6588
      }
    ]
  },
  "source": "// SPDX-License-Identifier: MIT\npragma solidity 0.8.17;\n\nimport \"@openzeppelin/contracts/token/ERC20/ERC20.sol\";\nimport \"@openzeppelin/contracts/security/ReentrancyGuard.sol\";\nimport \"@openzeppelin/contracts/token/ERC20/utils/SafeERC20.sol\";\nimport \"@openzeppelin/contracts/utils/math/Math.sol\";\nimport \"@openzeppelin/contracts/access/Ownable.sol\";\nimport \"../Exchange.sol\";\nimport \"../OptionVault.sol\";\nimport \"../VolatilityChain.sol\";\nimport \"../pools/MarketMaker.sol\";\nimport \"../pools/Pool.sol\";\nimport \"../libraries/MathLib.sol\";\nimport \"../libraries/OptionLib.sol\";\nimport \"../libraries/MarketLib.sol\";\n\ncontract FixedIndex is Ownable, ERC20, ReentrancyGuard{\n    using MathLib for uint256;\n    using Math for uint256;\n    using SafeERC20 for ERC20;\n    using MarketLib for uint256;\n    using MarketLib for ERC20;\n\n    struct FIAParam{uint256 callMoney; uint256 callTenor; uint256 putMoney; uint256 putTenor; uint256 putSpread; uint256 tradeWindow; uint256 leverage; uint256 multiplier;}\n    struct VintageStats{uint256 optionAmount; uint256 callStrike; uint256 putStrike; uint256 putSpread; uint256 startLevel; uint256 startNAV;}\n\n    event FIPInvest(address investor, uint256 tokenUnit, uint256 investAmount);\n    event FIPDivest(address investor, uint256 tokenUnit, uint256 divestAmount);\n    event FIPRoll(uint256 time, uint256 rebTime, bool isRoll);\n\n    VolatilityChain public immutable oracle;\n    Exchange public immutable exchange;\n    ERC20 public immutable funding;\n    uint256 public immutable fundingDecimals;\n    uint256 public immutable fundingMultiplier;\n    Pool public pool;\n\n    FIAParam public fiaParams;\n    VintageStats public vintage;\n\n    uint256 public nextRebTime; // next time for new option contracts\n    uint256 public nextVintageTime; // next time for new vintage\n\n    constructor(address _pool, string memory _name, string memory _symbol, FIAParam memory _params) ERC20(_name, _symbol){\n        require(_pool != address(0), \"null pool address\");\n        pool = Pool(_pool);\n\n        exchange = Exchange(pool.exchange()); \n\n        MarketMaker market = pool.marketMaker();\n        oracle = market.getVolatilityChain();\n        \n        funding = ERC20(market.funding());\n        funding.increaseAllowance(address(exchange), 2**256 - 1);\n        fundingDecimals = funding.decimals();\n        fundingMultiplier = 10 ** fundingDecimals;\n\n        nextRebTime = block.timestamp;\n        nextVintageTime = block.timestamp;\n\n        require(_params.callMoney >= _params.multiplier && _params.putMoney <= _params.multiplier && _params.putSpread < _params.putMoney, \"Wrong strikes\");\n        require(_params.callTenor % _params.putTenor == 0 || _params.putTenor % _params.callTenor == 0, \"Wrong tenors\");\n        fiaParams = _params;\n    }\n\n    function setParameters(FIAParam memory _params) external onlyOwner {\n        require(_params.callMoney >= _params.multiplier && _params.putMoney <= _params.multiplier && _params.putSpread < _params.putMoney, \"Wrong strikes\");\n        require(_params.callTenor % _params.putTenor == 0 || _params.putTenor % _params.callTenor == 0, \"Wrong tenors\");\n        fiaParams = _params;\n    }\n\n    // invest function to deposit USDC\n    // _toInvest: amount of USDC to invest during the investment window\n    function invest(uint256 _toInvest) external nonReentrant{\n        uint256 unitAsset = getRollsUnitAsset();\n        uint256 unitToMint = _toInvest.ethdiv(unitAsset);\n\n        funding.safeTransferFrom(msg.sender, address(this), _toInvest);\n        _mint(msg.sender, unitToMint);\n        emit FIPInvest(msg.sender, unitToMint, _toInvest);\n    }\n    \n    // invest function to withdraw USDC\n    // _toDivest: amount of FIP tokens to divest (by withdrawing corresponding amount of USDC) during the investment window\n    function divest(uint256 _toDivest) external nonReentrant{\n        uint256 unitAsset = getRollsUnitAsset();\n        uint256 assetToDivest = _toDivest.ethmul(unitAsset);\n\n        require(balanceOf(msg.sender) >= _toDivest, \"Exceed total balance\");\n        require(funding.balanceOf(address(this)) >= assetToDivest, \"Insufficient funding\");\n        _burn(msg.sender, _toDivest);\n        funding.safeTransfer(msg.sender, assetToDivest);\n        emit FIPDivest(msg.sender, _toDivest, assetToDivest);\n    }\n\n    // get unit assets in funding token decimals\n    function getRollsUnitAsset() public view returns(uint256 unitAsset){\n        require(block.timestamp >= nextVintageTime, \"Invest is unavailable.\");\n        uint256[] memory options = exchange.vault().getHolderOptions(address(pool), address(this));\n        require(options.length == 0, \"options yet active\");\n\n        uint256 currentAssets = funding.balanceOf(address(this));\n        uint256 currentSupply = this.totalSupply();\n        if(currentSupply>0){\n            unitAsset = currentAssets.ethdiv(currentSupply);\n        }\n        else{\n            unitAsset = fundingMultiplier;\n        }\n    }\n\n    function rollover() external{\n        require(block.timestamp >= (nextVintageTime + fiaParams.tradeWindow), \"pdRolls\");\n        uint256 unitAsset = getRollsUnitAsset();\n        require(unitAsset> 0, \"0asset\");\n        vintage.startNAV = unitAsset.toWei(fundingDecimals);\n\n        uint256 currentAssets = funding.balanceDef(address(this));\n        uint256 currentPrice = oracle.queryPrice();\n        vintage.startLevel = currentPrice;\n        vintage.optionAmount = currentAssets.ethdiv(currentPrice).muldiv(fiaParams.leverage, fiaParams.multiplier);\n\n        // sell call\n        vintage.callStrike = currentPrice.muldiv(fiaParams.callMoney, fiaParams.multiplier);\n        exchange.tradeOption(pool, fiaParams.callTenor, vintage.callStrike, 0, vintage.optionAmount, OptionLib.PayoffType.Call, OptionLib.OptionSide.Sell, OptionLib.PaymentMethod.USDC);\n\n        // buy put\n        vintage.putStrike = currentPrice.muldiv(fiaParams.putMoney, fiaParams.multiplier);\n        if(fiaParams.putSpread > 0){\n            vintage.putSpread = currentPrice.muldiv(fiaParams.putMoney - fiaParams.putSpread, fiaParams.multiplier);\n            exchange.tradeOption(pool, fiaParams.putTenor, vintage.putStrike, vintage.putSpread, vintage.optionAmount, OptionLib.PayoffType.PutSpread, OptionLib.OptionSide.Buy, OptionLib.PaymentMethod.USDC);\n        }\n        else{\n            exchange.tradeOption(pool, fiaParams.putTenor, vintage.putStrike, 0, vintage.optionAmount, OptionLib.PayoffType.Put, OptionLib.OptionSide.Buy, OptionLib.PaymentMethod.USDC);\n        }\n        \n        nextRebTime = block.timestamp + fiaParams.callTenor.min(fiaParams.putTenor);\n        nextVintageTime = block.timestamp + fiaParams.callTenor.max(fiaParams.putTenor);\n\n        emit FIPRoll(block.timestamp, nextVintageTime, true);\n    }\n\n    function rebalance() external {\n        require(block.timestamp >= nextRebTime && block.timestamp < nextVintageTime, \"Not for rebalance\");\n        uint256 currentPrice = oracle.queryPrice();\n        if(fiaParams.callTenor > fiaParams.putTenor){\n            require(vintage.putStrike > 0, \"Put strike unset\");\n            nextRebTime = (nextRebTime + fiaParams.putTenor).min(nextVintageTime);\n            require(nextRebTime > block.timestamp, \"put expiry in the past\");\n            uint256 tenor = nextRebTime - block.timestamp;\n            uint256 strike = currentPrice.muldiv(fiaParams.putMoney, fiaParams.multiplier).min(vintage.putStrike);\n            \n            if(fiaParams.putSpread > 0){\n                uint256 spread = strike.muldiv(fiaParams.putMoney - fiaParams.putSpread, fiaParams.putMoney);\n                exchange.tradeOption(pool, tenor, strike, spread, vintage.optionAmount, OptionLib.PayoffType.PutSpread, OptionLib.OptionSide.Buy, OptionLib.PaymentMethod.USDC);\n            }\n            else{\n                exchange.tradeOption(pool, tenor, strike, 0, vintage.optionAmount, OptionLib.PayoffType.Put, OptionLib.OptionSide.Buy, OptionLib.PaymentMethod.USDC);\n            }\n        }\n        else if (fiaParams.callTenor < fiaParams.putTenor){\n            require(vintage.callStrike > 0, \"Call strike unset\");\n            nextRebTime = (nextRebTime + fiaParams.callTenor).min(nextVintageTime);\n            require(nextRebTime > block.timestamp, \"call expiry in the past\");\n\n            uint256 tenor = nextRebTime - block.timestamp;\n            uint256 strike = currentPrice.muldiv(fiaParams.callMoney, fiaParams.multiplier).max(vintage.callStrike);\n\n            uint256 currentAssets = funding.balanceOf(address(this)).ethdiv(fundingMultiplier);\n            uint256 callOptionAmount = currentAssets.ethdiv(currentPrice).min(vintage.optionAmount);\n\n            exchange.tradeOption(pool, tenor, strike, 0, callOptionAmount, OptionLib.PayoffType.Call, OptionLib.OptionSide.Sell, OptionLib.PaymentMethod.USDC);\n        }\n\n        emit FIPRoll(block.timestamp, nextRebTime, false);\n    }\n\n    // returns present value of the whole protocol in funding token decimals.\n    function getPV() external view returns(uint256){\n        OptionVault _vault = exchange.vault();\n        uint256[] memory options = _vault.getHolderOptions(address(pool), address(this));\n        require(options.length <= 2, \"options count incorrect\");\n\n        uint256 _optionMV = 0;\n        if(options.length >= 1){\n            (uint256 _unwindValue, ) = _vault.calcOptionUnwindValue(options[0]);\n            _optionMV = _optionMV + _unwindValue;\n        }\n        if(options.length == 2){\n            (uint256 _unwindValue, ) = _vault.calcOptionUnwindValue(options[1]);\n            _optionMV = _optionMV + _unwindValue;\n        }\n\n        // add to remaining USDC\n        uint256 _remainingBalance = funding.balanceDef(address(this));\n\n        return _optionMV + _remainingBalance;\n    }\n\n}",
  "sourcePath": "/Users/mac/Documents/GitHub/moret/contracts/vaults/FixedIndex.sol",
  "compiler": {
    "name": "solc",
    "version": "0.8.17+commit.8df45f5f.Emscripten.clang"
  },
  "schemaVersion": "3.4.3",
  "updatedAt": "2023-02-23T21:40:39.766Z",
  "networkType": "ethereum",
  "devdoc": {
    "kind": "dev",
    "methods": {
      "allowance(address,address)": {
        "details": "See {IERC20-allowance}."
      },
      "approve(address,uint256)": {
        "details": "See {IERC20-approve}. NOTE: If `amount` is the maximum `uint256`, the allowance is not updated on `transferFrom`. This is semantically equivalent to an infinite approval. Requirements: - `spender` cannot be the zero address."
      },
      "balanceOf(address)": {
        "details": "See {IERC20-balanceOf}."
      },
      "decimals()": {
        "details": "Returns the number of decimals used to get its user representation. For example, if `decimals` equals `2`, a balance of `505` tokens should be displayed to a user as `5.05` (`505 / 10 ** 2`). Tokens usually opt for a value of 18, imitating the relationship between Ether and Wei. This is the value {ERC20} uses, unless this function is overridden; NOTE: This information is only used for _display_ purposes: it in no way affects any of the arithmetic of the contract, including {IERC20-balanceOf} and {IERC20-transfer}."
      },
      "decreaseAllowance(address,uint256)": {
        "details": "Atomically decreases the allowance granted to `spender` by the caller. This is an alternative to {approve} that can be used as a mitigation for problems described in {IERC20-approve}. Emits an {Approval} event indicating the updated allowance. Requirements: - `spender` cannot be the zero address. - `spender` must have allowance for the caller of at least `subtractedValue`."
      },
      "increaseAllowance(address,uint256)": {
        "details": "Atomically increases the allowance granted to `spender` by the caller. This is an alternative to {approve} that can be used as a mitigation for problems described in {IERC20-approve}. Emits an {Approval} event indicating the updated allowance. Requirements: - `spender` cannot be the zero address."
      },
      "name()": {
        "details": "Returns the name of the token."
      },
      "owner()": {
        "details": "Returns the address of the current owner."
      },
      "renounceOwnership()": {
        "details": "Leaves the contract without owner. It will not be possible to call `onlyOwner` functions anymore. Can only be called by the current owner. NOTE: Renouncing ownership will leave the contract without an owner, thereby removing any functionality that is only available to the owner."
      },
      "symbol()": {
        "details": "Returns the symbol of the token, usually a shorter version of the name."
      },
      "totalSupply()": {
        "details": "See {IERC20-totalSupply}."
      },
      "transfer(address,uint256)": {
        "details": "See {IERC20-transfer}. Requirements: - `to` cannot be the zero address. - the caller must have a balance of at least `amount`."
      },
      "transferFrom(address,address,uint256)": {
        "details": "See {IERC20-transferFrom}. Emits an {Approval} event indicating the updated allowance. This is not required by the EIP. See the note at the beginning of {ERC20}. NOTE: Does not update the allowance if the current allowance is the maximum `uint256`. Requirements: - `from` and `to` cannot be the zero address. - `from` must have a balance of at least `amount`. - the caller must have allowance for ``from``'s tokens of at least `amount`."
      },
      "transferOwnership(address)": {
        "details": "Transfers ownership of the contract to a new account (`newOwner`). Can only be called by the current owner."
      }
    },
    "version": 1
  },
  "userdoc": {
    "kind": "user",
    "methods": {},
    "version": 1
  }
}