{
  "contractName": "FixedIncomeAnnuity",
  "abi": [
    {
      "inputs": [
        {
          "internalType": "contract Moret",
          "name": "_gov",
          "type": "address"
        },
        {
          "internalType": "contract Exchange",
          "name": "_exchange",
          "type": "address"
        },
        {
          "internalType": "address",
          "name": "_tokenAddr",
          "type": "address"
        },
        {
          "internalType": "address",
          "name": "_pool",
          "type": "address"
        },
        {
          "internalType": "string",
          "name": "_name",
          "type": "string"
        },
        {
          "internalType": "string",
          "name": "_symbol",
          "type": "string"
        },
        {
          "components": [
            {
              "internalType": "uint256",
              "name": "callMoney",
              "type": "uint256"
            },
            {
              "internalType": "uint256",
              "name": "callTenor",
              "type": "uint256"
            },
            {
              "internalType": "uint256",
              "name": "putMoney",
              "type": "uint256"
            },
            {
              "internalType": "uint256",
              "name": "putTenor",
              "type": "uint256"
            },
            {
              "internalType": "uint256",
              "name": "putSpread",
              "type": "uint256"
            },
            {
              "internalType": "uint256",
              "name": "tradeWindow",
              "type": "uint256"
            }
          ],
          "internalType": "struct FixedIncomeAnnuity.FIAParam",
          "name": "_params",
          "type": "tuple"
        }
      ],
      "stateMutability": "nonpayable",
      "type": "constructor"
    },
    {
      "anonymous": false,
      "inputs": [
        {
          "indexed": true,
          "internalType": "address",
          "name": "owner",
          "type": "address"
        },
        {
          "indexed": true,
          "internalType": "address",
          "name": "spender",
          "type": "address"
        },
        {
          "indexed": false,
          "internalType": "uint256",
          "name": "value",
          "type": "uint256"
        }
      ],
      "name": "Approval",
      "type": "event"
    },
    {
      "anonymous": false,
      "inputs": [
        {
          "indexed": false,
          "internalType": "address",
          "name": "investor",
          "type": "address"
        },
        {
          "indexed": false,
          "internalType": "uint256",
          "name": "tokenUnit",
          "type": "uint256"
        },
        {
          "indexed": false,
          "internalType": "uint256",
          "name": "divestAmount",
          "type": "uint256"
        }
      ],
      "name": "FIPDivest",
      "type": "event"
    },
    {
      "anonymous": false,
      "inputs": [
        {
          "indexed": false,
          "internalType": "address",
          "name": "investor",
          "type": "address"
        },
        {
          "indexed": false,
          "internalType": "uint256",
          "name": "tokenUnit",
          "type": "uint256"
        },
        {
          "indexed": false,
          "internalType": "uint256",
          "name": "investAmount",
          "type": "uint256"
        }
      ],
      "name": "FIPInvest",
      "type": "event"
    },
    {
      "anonymous": false,
      "inputs": [
        {
          "indexed": false,
          "internalType": "uint256",
          "name": "time",
          "type": "uint256"
        },
        {
          "indexed": false,
          "internalType": "uint256",
          "name": "rebTime",
          "type": "uint256"
        },
        {
          "indexed": false,
          "internalType": "bool",
          "name": "rebCall",
          "type": "bool"
        }
      ],
      "name": "FIPRebalance",
      "type": "event"
    },
    {
      "anonymous": false,
      "inputs": [
        {
          "indexed": false,
          "internalType": "uint256",
          "name": "time",
          "type": "uint256"
        },
        {
          "indexed": false,
          "internalType": "uint256",
          "name": "amount",
          "type": "uint256"
        },
        {
          "indexed": false,
          "internalType": "uint256",
          "name": "rebTime",
          "type": "uint256"
        },
        {
          "indexed": false,
          "internalType": "uint256",
          "name": "vintageTime",
          "type": "uint256"
        }
      ],
      "name": "FIPRoll",
      "type": "event"
    },
    {
      "anonymous": false,
      "inputs": [
        {
          "indexed": true,
          "internalType": "address",
          "name": "previousOwner",
          "type": "address"
        },
        {
          "indexed": true,
          "internalType": "address",
          "name": "newOwner",
          "type": "address"
        }
      ],
      "name": "OwnershipTransferred",
      "type": "event"
    },
    {
      "anonymous": false,
      "inputs": [
        {
          "indexed": false,
          "internalType": "address",
          "name": "account",
          "type": "address"
        }
      ],
      "name": "Paused",
      "type": "event"
    },
    {
      "anonymous": false,
      "inputs": [
        {
          "indexed": true,
          "internalType": "address",
          "name": "from",
          "type": "address"
        },
        {
          "indexed": true,
          "internalType": "address",
          "name": "to",
          "type": "address"
        },
        {
          "indexed": false,
          "internalType": "uint256",
          "name": "value",
          "type": "uint256"
        }
      ],
      "name": "Transfer",
      "type": "event"
    },
    {
      "anonymous": false,
      "inputs": [
        {
          "indexed": false,
          "internalType": "address",
          "name": "account",
          "type": "address"
        }
      ],
      "name": "Unpaused",
      "type": "event"
    },
    {
      "inputs": [
        {
          "internalType": "address",
          "name": "owner",
          "type": "address"
        },
        {
          "internalType": "address",
          "name": "spender",
          "type": "address"
        }
      ],
      "name": "allowance",
      "outputs": [
        {
          "internalType": "uint256",
          "name": "",
          "type": "uint256"
        }
      ],
      "stateMutability": "view",
      "type": "function"
    },
    {
      "inputs": [
        {
          "internalType": "address",
          "name": "spender",
          "type": "address"
        },
        {
          "internalType": "uint256",
          "name": "amount",
          "type": "uint256"
        }
      ],
      "name": "approve",
      "outputs": [
        {
          "internalType": "bool",
          "name": "",
          "type": "bool"
        }
      ],
      "stateMutability": "nonpayable",
      "type": "function"
    },
    {
      "inputs": [
        {
          "internalType": "address",
          "name": "account",
          "type": "address"
        }
      ],
      "name": "balanceOf",
      "outputs": [
        {
          "internalType": "uint256",
          "name": "",
          "type": "uint256"
        }
      ],
      "stateMutability": "view",
      "type": "function"
    },
    {
      "inputs": [],
      "name": "decimals",
      "outputs": [
        {
          "internalType": "uint8",
          "name": "",
          "type": "uint8"
        }
      ],
      "stateMutability": "view",
      "type": "function"
    },
    {
      "inputs": [
        {
          "internalType": "address",
          "name": "spender",
          "type": "address"
        },
        {
          "internalType": "uint256",
          "name": "subtractedValue",
          "type": "uint256"
        }
      ],
      "name": "decreaseAllowance",
      "outputs": [
        {
          "internalType": "bool",
          "name": "",
          "type": "bool"
        }
      ],
      "stateMutability": "nonpayable",
      "type": "function"
    },
    {
      "inputs": [],
      "name": "exchange",
      "outputs": [
        {
          "internalType": "contract Exchange",
          "name": "",
          "type": "address"
        }
      ],
      "stateMutability": "view",
      "type": "function"
    },
    {
      "inputs": [],
      "name": "fiaParams",
      "outputs": [
        {
          "internalType": "uint256",
          "name": "callMoney",
          "type": "uint256"
        },
        {
          "internalType": "uint256",
          "name": "callTenor",
          "type": "uint256"
        },
        {
          "internalType": "uint256",
          "name": "putMoney",
          "type": "uint256"
        },
        {
          "internalType": "uint256",
          "name": "putTenor",
          "type": "uint256"
        },
        {
          "internalType": "uint256",
          "name": "putSpread",
          "type": "uint256"
        },
        {
          "internalType": "uint256",
          "name": "tradeWindow",
          "type": "uint256"
        }
      ],
      "stateMutability": "view",
      "type": "function"
    },
    {
      "inputs": [],
      "name": "funding",
      "outputs": [
        {
          "internalType": "contract ERC20",
          "name": "",
          "type": "address"
        }
      ],
      "stateMutability": "view",
      "type": "function"
    },
    {
      "inputs": [],
      "name": "fundingMultiplier",
      "outputs": [
        {
          "internalType": "uint256",
          "name": "",
          "type": "uint256"
        }
      ],
      "stateMutability": "view",
      "type": "function"
    },
    {
      "inputs": [],
      "name": "gov",
      "outputs": [
        {
          "internalType": "contract Moret",
          "name": "",
          "type": "address"
        }
      ],
      "stateMutability": "view",
      "type": "function"
    },
    {
      "inputs": [
        {
          "internalType": "address",
          "name": "spender",
          "type": "address"
        },
        {
          "internalType": "uint256",
          "name": "addedValue",
          "type": "uint256"
        }
      ],
      "name": "increaseAllowance",
      "outputs": [
        {
          "internalType": "bool",
          "name": "",
          "type": "bool"
        }
      ],
      "stateMutability": "nonpayable",
      "type": "function"
    },
    {
      "inputs": [],
      "name": "name",
      "outputs": [
        {
          "internalType": "string",
          "name": "",
          "type": "string"
        }
      ],
      "stateMutability": "view",
      "type": "function"
    },
    {
      "inputs": [],
      "name": "nextPool",
      "outputs": [
        {
          "internalType": "address",
          "name": "",
          "type": "address"
        }
      ],
      "stateMutability": "view",
      "type": "function"
    },
    {
      "inputs": [],
      "name": "nextRebTime",
      "outputs": [
        {
          "internalType": "uint256",
          "name": "",
          "type": "uint256"
        }
      ],
      "stateMutability": "view",
      "type": "function"
    },
    {
      "inputs": [],
      "name": "nextVintageTime",
      "outputs": [
        {
          "internalType": "uint256",
          "name": "",
          "type": "uint256"
        }
      ],
      "stateMutability": "view",
      "type": "function"
    },
    {
      "inputs": [],
      "name": "optionAmount",
      "outputs": [
        {
          "internalType": "uint256",
          "name": "",
          "type": "uint256"
        }
      ],
      "stateMutability": "view",
      "type": "function"
    },
    {
      "inputs": [],
      "name": "oracle",
      "outputs": [
        {
          "internalType": "contract VolatilityChain",
          "name": "",
          "type": "address"
        }
      ],
      "stateMutability": "view",
      "type": "function"
    },
    {
      "inputs": [],
      "name": "owner",
      "outputs": [
        {
          "internalType": "address",
          "name": "",
          "type": "address"
        }
      ],
      "stateMutability": "view",
      "type": "function"
    },
    {
      "inputs": [],
      "name": "paused",
      "outputs": [
        {
          "internalType": "bool",
          "name": "",
          "type": "bool"
        }
      ],
      "stateMutability": "view",
      "type": "function"
    },
    {
      "inputs": [],
      "name": "pool",
      "outputs": [
        {
          "internalType": "contract Pool",
          "name": "",
          "type": "address"
        }
      ],
      "stateMutability": "view",
      "type": "function"
    },
    {
      "inputs": [],
      "name": "renounceOwnership",
      "outputs": [],
      "stateMutability": "nonpayable",
      "type": "function"
    },
    {
      "inputs": [],
      "name": "symbol",
      "outputs": [
        {
          "internalType": "string",
          "name": "",
          "type": "string"
        }
      ],
      "stateMutability": "view",
      "type": "function"
    },
    {
      "inputs": [],
      "name": "tokenAddress",
      "outputs": [
        {
          "internalType": "address",
          "name": "",
          "type": "address"
        }
      ],
      "stateMutability": "view",
      "type": "function"
    },
    {
      "inputs": [],
      "name": "totalSupply",
      "outputs": [
        {
          "internalType": "uint256",
          "name": "",
          "type": "uint256"
        }
      ],
      "stateMutability": "view",
      "type": "function"
    },
    {
      "inputs": [
        {
          "internalType": "address",
          "name": "to",
          "type": "address"
        },
        {
          "internalType": "uint256",
          "name": "amount",
          "type": "uint256"
        }
      ],
      "name": "transfer",
      "outputs": [
        {
          "internalType": "bool",
          "name": "",
          "type": "bool"
        }
      ],
      "stateMutability": "nonpayable",
      "type": "function"
    },
    {
      "inputs": [
        {
          "internalType": "address",
          "name": "from",
          "type": "address"
        },
        {
          "internalType": "address",
          "name": "to",
          "type": "address"
        },
        {
          "internalType": "uint256",
          "name": "amount",
          "type": "uint256"
        }
      ],
      "name": "transferFrom",
      "outputs": [
        {
          "internalType": "bool",
          "name": "",
          "type": "bool"
        }
      ],
      "stateMutability": "nonpayable",
      "type": "function"
    },
    {
      "inputs": [
        {
          "internalType": "address",
          "name": "newOwner",
          "type": "address"
        }
      ],
      "name": "transferOwnership",
      "outputs": [],
      "stateMutability": "nonpayable",
      "type": "function"
    },
    {
      "inputs": [],
      "name": "vintageCallStrike",
      "outputs": [
        {
          "internalType": "uint256",
          "name": "",
          "type": "uint256"
        }
      ],
      "stateMutability": "view",
      "type": "function"
    },
    {
      "inputs": [],
      "name": "vintagePutStrike",
      "outputs": [
        {
          "internalType": "uint256",
          "name": "",
          "type": "uint256"
        }
      ],
      "stateMutability": "view",
      "type": "function"
    },
    {
      "inputs": [],
      "name": "vintageSpreadStrike",
      "outputs": [
        {
          "internalType": "uint256",
          "name": "",
          "type": "uint256"
        }
      ],
      "stateMutability": "view",
      "type": "function"
    },
    {
      "inputs": [
        {
          "components": [
            {
              "internalType": "uint256",
              "name": "callMoney",
              "type": "uint256"
            },
            {
              "internalType": "uint256",
              "name": "callTenor",
              "type": "uint256"
            },
            {
              "internalType": "uint256",
              "name": "putMoney",
              "type": "uint256"
            },
            {
              "internalType": "uint256",
              "name": "putTenor",
              "type": "uint256"
            },
            {
              "internalType": "uint256",
              "name": "putSpread",
              "type": "uint256"
            },
            {
              "internalType": "uint256",
              "name": "tradeWindow",
              "type": "uint256"
            }
          ],
          "internalType": "struct FixedIncomeAnnuity.FIAParam",
          "name": "_params",
          "type": "tuple"
        }
      ],
      "name": "setParameters",
      "outputs": [],
      "stateMutability": "nonpayable",
      "type": "function"
    },
    {
      "inputs": [
        {
          "internalType": "address",
          "name": "_pool",
          "type": "address"
        }
      ],
      "name": "updatePool",
      "outputs": [],
      "stateMutability": "nonpayable",
      "type": "function"
    },
    {
      "inputs": [
        {
          "internalType": "uint256",
          "name": "_toInvest",
          "type": "uint256"
        }
      ],
      "name": "invest",
      "outputs": [],
      "stateMutability": "nonpayable",
      "type": "function"
    },
    {
      "inputs": [
        {
          "internalType": "uint256",
          "name": "_toDivest",
          "type": "uint256"
        }
      ],
      "name": "divest",
      "outputs": [],
      "stateMutability": "nonpayable",
      "type": "function"
    },
    {
      "inputs": [],
      "name": "getRollsUnitAsset",
      "outputs": [
        {
          "internalType": "uint256",
          "name": "unitAsset",
          "type": "uint256"
        }
      ],
      "stateMutability": "view",
      "type": "function"
    },
    {
      "inputs": [],
      "name": "rollover",
      "outputs": [],
      "stateMutability": "nonpayable",
      "type": "function"
    },
    {
      "inputs": [],
      "name": "rebalance",
      "outputs": [],
      "stateMutability": "nonpayable",
      "type": "function"
    }
  ],
  "bytecode": "0x610140604052620f4240600f557fffffffffffffffffffffffffffffffffffffffffffffffffffffffffffffffff6010553480156200003d57600080fd5b5060405162006c7338038062006c73833981810160405281019062000063919062000bad565b828262000085620000796200076e60201b60201c565b6200077660201b60201c565b60008060146101000a81548160ff0219169083151502179055508160049081620000b0919062000ee0565b508060059081620000c2919062000ee0565b50505060016006819055508673ffffffffffffffffffffffffffffffffffffffff1660808173ffffffffffffffffffffffffffffffffffffffff16815250508673ffffffffffffffffffffffffffffffffffffffff1663abff01106040518163ffffffff1660e01b8152600401602060405180830381865afa1580156200014d573d6000803e3d6000fd5b505050506040513d601f19601f820116820180604052508101906200017391906200100c565b73ffffffffffffffffffffffffffffffffffffffff1663cb4c86b76040518163ffffffff1660e01b8152600401602060405180830381865afa158015620001be573d6000803e3d6000fd5b505050506040513d601f19601f82011682018060405250810190620001e4919062001083565b73ffffffffffffffffffffffffffffffffffffffff166101008173ffffffffffffffffffffffffffffffffffffffff16815250508673ffffffffffffffffffffffffffffffffffffffff166315dc2e9d866040518263ffffffff1660e01b8152600401620002539190620010c6565b602060405180830381865afa15801562000271573d6000803e3d6000fd5b505050506040513d601f19601f8201168201806040525081019062000297919062001128565b73ffffffffffffffffffffffffffffffffffffffff1660a08173ffffffffffffffffffffffffffffffffffffffff16815250508573ffffffffffffffffffffffffffffffffffffffff1660c08173ffffffffffffffffffffffffffffffffffffffff16815250506101005173ffffffffffffffffffffffffffffffffffffffff166339509351876010546040518363ffffffff1660e01b8152600401620003409291906200116b565b6020604051808303816000875af115801562000360573d6000803e3d6000fd5b505050506040513d601f19601f82011682018060405250810190620003869190620011d5565b508473ffffffffffffffffffffffffffffffffffffffff1660e08173ffffffffffffffffffffffffffffffffffffffff1681525050600073ffffffffffffffffffffffffffffffffffffffff168473ffffffffffffffffffffffffffffffffffffffff16036200042d576040517f08c379a0000000000000000000000000000000000000000000000000000000008152600401620004249062001268565b60405180910390fd5b83600760006101000a81548173ffffffffffffffffffffffffffffffffffffffff021916908373ffffffffffffffffffffffffffffffffffffffff16021790555083600860006101000a81548173ffffffffffffffffffffffffffffffffffffffff021916908373ffffffffffffffffffffffffffffffffffffffff16021790555060008773ffffffffffffffffffffffffffffffffffffffff1663abff01106040518163ffffffff1660e01b8152600401602060405180830381865afa158015620004fd573d6000803e3d6000fd5b505050506040513d601f19601f820116820180604052508101906200052391906200100c565b73ffffffffffffffffffffffffffffffffffffffff1663cb4c86b76040518163ffffffff1660e01b8152600401602060405180830381865afa1580156200056e573d6000803e3d6000fd5b505050506040513d601f19601f8201168201806040525081019062000594919062001083565b73ffffffffffffffffffffffffffffffffffffffff1663313ce5676040518163ffffffff1660e01b8152600401602060405180830381865afa158015620005df573d6000803e3d6000fd5b505050506040513d601f19601f82011682018060405250810190620006059190620012c8565b60ff16905080600a6200061991906200147d565b61012081815250504260118190555042601281905550600f548260000151101580156200064c5750600f54826040015111155b801562000660575081604001518260800151105b620006a2576040517f08c379a000000000000000000000000000000000000000000000000000000000815260040162000699906200151e565b60405180910390fd5b600082606001518360200151620006ba91906200156f565b1480620006dc5750600082602001518360600151620006da91906200156f565b145b6200071e576040517f08c379a00000000000000000000000000000000000000000000000000000000081526004016200071590620015f7565b60405180910390fd5b816009600082015181600001556020820151816001015560408201518160020155606082015181600301556080820151816004015560a08201518160050155905050505050505050505062001619565b600033905090565b60008060009054906101000a900473ffffffffffffffffffffffffffffffffffffffff169050816000806101000a81548173ffffffffffffffffffffffffffffffffffffffff021916908373ffffffffffffffffffffffffffffffffffffffff1602179055508173ffffffffffffffffffffffffffffffffffffffff168173ffffffffffffffffffffffffffffffffffffffff167f8be0079c531659141344cd1fd0a4f28419497f9722a3daafe3b4186f6b6457e060405160405180910390a35050565b6000604051905090565b600080fd5b600080fd5b600073ffffffffffffffffffffffffffffffffffffffff82169050919050565b60006200087b826200084e565b9050919050565b60006200088f826200086e565b9050919050565b620008a18162000882565b8114620008ad57600080fd5b50565b600081519050620008c18162000896565b92915050565b6000620008d4826200086e565b9050919050565b620008e681620008c7565b8114620008f257600080fd5b50565b6000815190506200090681620008db565b92915050565b62000917816200086e565b81146200092357600080fd5b50565b60008151905062000937816200090c565b92915050565b600080fd5b600080fd5b6000601f19601f8301169050919050565b7f4e487b7100000000000000000000000000000000000000000000000000000000600052604160045260246000fd5b620009928262000947565b810181811067ffffffffffffffff82111715620009b457620009b362000958565b5b80604052505050565b6000620009c96200083a565b9050620009d7828262000987565b919050565b600067ffffffffffffffff821115620009fa57620009f962000958565b5b62000a058262000947565b9050602081019050919050565b60005b8381101562000a3257808201518184015260208101905062000a15565b60008484015250505050565b600062000a5562000a4f84620009dc565b620009bd565b90508281526020810184848401111562000a745762000a7362000942565b5b62000a8184828562000a12565b509392505050565b600082601f83011262000aa15762000aa06200093d565b5b815162000ab384826020860162000a3e565b91505092915050565b600080fd5b6000819050919050565b62000ad68162000ac1565b811462000ae257600080fd5b50565b60008151905062000af68162000acb565b92915050565b600060c0828403121562000b155762000b1462000abc565b5b62000b2160c0620009bd565b9050600062000b338482850162000ae5565b600083015250602062000b498482850162000ae5565b602083015250604062000b5f8482850162000ae5565b604083015250606062000b758482850162000ae5565b606083015250608062000b8b8482850162000ae5565b60808301525060a062000ba18482850162000ae5565b60a08301525092915050565b6000806000806000806000610180888a03121562000bd05762000bcf62000844565b5b600062000be08a828b01620008b0565b975050602062000bf38a828b01620008f5565b965050604062000c068a828b0162000926565b955050606062000c198a828b0162000926565b945050608088015167ffffffffffffffff81111562000c3d5762000c3c62000849565b5b62000c4b8a828b0162000a89565b93505060a088015167ffffffffffffffff81111562000c6f5762000c6e62000849565b5b62000c7d8a828b0162000a89565b92505060c062000c908a828b0162000afc565b91505092959891949750929550565b600081519050919050565b7f4e487b7100000000000000000000000000000000000000000000000000000000600052602260045260246000fd5b6000600282049050600182168062000cf257607f821691505b60208210810362000d085762000d0762000caa565b5b50919050565b60008190508160005260206000209050919050565b60006020601f8301049050919050565b600082821b905092915050565b60006008830262000d727fffffffffffffffffffffffffffffffffffffffffffffffffffffffffffffffff8262000d33565b62000d7e868362000d33565b95508019841693508086168417925050509392505050565b6000819050919050565b600062000dc162000dbb62000db58462000ac1565b62000d96565b62000ac1565b9050919050565b6000819050919050565b62000ddd8362000da0565b62000df562000dec8262000dc8565b84845462000d40565b825550505050565b600090565b62000e0c62000dfd565b62000e1981848462000dd2565b505050565b5b8181101562000e415762000e3560008262000e02565b60018101905062000e1f565b5050565b601f82111562000e905762000e5a8162000d0e565b62000e658462000d23565b8101602085101562000e75578190505b62000e8d62000e848562000d23565b83018262000e1e565b50505b505050565b600082821c905092915050565b600062000eb56000198460080262000e95565b1980831691505092915050565b600062000ed0838362000ea2565b9150826002028217905092915050565b62000eeb8262000c9f565b67ffffffffffffffff81111562000f075762000f0662000958565b5b62000f13825462000cd9565b62000f2082828562000e45565b600060209050601f83116001811462000f58576000841562000f43578287015190505b62000f4f858262000ec2565b86555062000fbf565b601f19841662000f688662000d0e565b60005b8281101562000f925784890151825560018201915060208501945060208101905062000f6b565b8683101562000fb2578489015162000fae601f89168262000ea2565b8355505b6001600288020188555050505b505050505050565b600062000fd4826200086e565b9050919050565b62000fe68162000fc7565b811462000ff257600080fd5b50565b600081519050620010068162000fdb565b92915050565b60006020828403121562001025576200102462000844565b5b6000620010358482850162000ff5565b91505092915050565b60006200104b826200086e565b9050919050565b6200105d816200103e565b81146200106957600080fd5b50565b6000815190506200107d8162001052565b92915050565b6000602082840312156200109c576200109b62000844565b5b6000620010ac848285016200106c565b91505092915050565b620010c0816200086e565b82525050565b6000602082019050620010dd6000830184620010b5565b92915050565b6000620010f0826200086e565b9050919050565b6200110281620010e3565b81146200110e57600080fd5b50565b6000815190506200112281620010f7565b92915050565b60006020828403121562001141576200114062000844565b5b6000620011518482850162001111565b91505092915050565b620011658162000ac1565b82525050565b6000604082019050620011826000830185620010b5565b6200119160208301846200115a565b9392505050565b60008115159050919050565b620011af8162001198565b8114620011bb57600080fd5b50565b600081519050620011cf81620011a4565b92915050565b600060208284031215620011ee57620011ed62000844565b5b6000620011fe84828501620011be565b91505092915050565b600082825260208201905092915050565b7f6e756c6c20706f6f6c2061646472657373000000000000000000000000000000600082015250565b60006200125060118362001207565b91506200125d8262001218565b602082019050919050565b60006020820190508181036000830152620012838162001241565b9050919050565b600060ff82169050919050565b620012a2816200128a565b8114620012ae57600080fd5b50565b600081519050620012c28162001297565b92915050565b600060208284031215620012e157620012e062000844565b5b6000620012f184828501620012b1565b91505092915050565b7f4e487b7100000000000000000000000000000000000000000000000000000000600052601160045260246000fd5b60008160011c9050919050565b6000808291508390505b6001851115620013885780860481111562001360576200135f620012fa565b5b6001851615620013705780820291505b8081029050620013808562001329565b945062001340565b94509492505050565b600082620013a3576001905062001476565b81620013b3576000905062001476565b8160018114620013cc5760028114620013d7576200140d565b600191505062001476565b60ff841115620013ec57620013eb620012fa565b5b8360020a915084821115620014065762001405620012fa565b5b5062001476565b5060208310610133831016604e8410600b8410161715620014475782820a905083811115620014415762001440620012fa565b5b62001476565b62001456848484600162001336565b9250905081840481111562001470576200146f620012fa565b5b81810290505b9392505050565b60006200148a8262000ac1565b9150620014978362000ac1565b9250620014c67fffffffffffffffffffffffffffffffffffffffffffffffffffffffffffffffff848462001391565b905092915050565b7f57726f6e6720737472696b657300000000000000000000000000000000000000600082015250565b600062001506600d8362001207565b91506200151382620014ce565b602082019050919050565b600060208201905081810360008301526200153981620014f7565b9050919050565b7f4e487b7100000000000000000000000000000000000000000000000000000000600052601260045260246000fd5b60006200157c8262000ac1565b9150620015898362000ac1565b9250826200159c576200159b62001540565b5b828206905092915050565b7f57726f6e672074656e6f72730000000000000000000000000000000000000000600082015250565b6000620015df600c8362001207565b9150620015ec82620015a7565b602082019050919050565b600060208201905081810360008301526200161281620015d0565b9050919050565b60805160a05160c05160e051610100516101205161557e620016f5600039600081816107f901528181610d98015281816116b901528181611b01015261232b01526000818161095101528181610bfd0152818161160301528181611a4b01528181611e6201528181611f4c015281816122750152612a6c01526000612095015260008181610a7f01528181611454015281816117ce01528181611c160152818161264f015281816127a2015281816129020152612a9001526000818161124c01528181611d1901526123ae015260006107a5015261557e6000f3fe608060405234801561001057600080fd5b50600436106102265760003560e01c8063715018a611610130578063a457c2d7116100b8578063d7043caa1161007c578063d7043caa14610618578063dd62ed3e14610636578063e696ce2914610666578063e6dfa4b214610684578063f2fde38b146106a257610226565b8063a457c2d714610572578063a9059cbb146105a2578063b056b49a146105d2578063cb4c86b7146105dc578063d2f7265a146105fa57610226565b80637dc0d1d0116100ff5780637dc0d1d0146104de5780638ca17995146104fc5780638da5cb5b1461051857806395d89b41146105365780639d76ea581461055457610226565b8063715018a6146104925780637b46c54f1461049c5780637bd32f19146104b85780637d7c2a1c146104d457610226565b8063243d6585116101b35780633932ca22116101825780633932ca22146103d857806339509351146103f657806344807781146104265780635c975abb1461044457806370a082311461046257610226565b8063243d6585146103625780632afcf48014610380578063313ce5671461039c5780633639f263146103ba57610226565b806312d43a51116101fa57806312d43a51146102ba57806316f0115b146102d857806318160ddd146102f6578063205a785a1461031457806323b872dd1461033257610226565b8062ee9ae81461022b57806306fdde0314610249578063095ea7b31461026757806312474a6814610297575b600080fd5b6102336106be565b60405161024091906138ff565b60405180910390f35b6102516106c4565b60405161025e91906139aa565b60405180910390f35b610281600480360381019061027c9190613a6a565b610756565b60405161028e9190613ac5565b60405180910390f35b61029f610779565b6040516102b196959493929190613ae0565b60405180910390f35b6102c26107a3565b6040516102cf9190613ba0565b60405180910390f35b6102e06107c7565b6040516102ed9190613bdc565b60405180910390f35b6102fe6107ed565b60405161030b91906138ff565b60405180910390f35b61031c6107f7565b60405161032991906138ff565b60405180910390f35b61034c60048036038101906103479190613bf7565b61081b565b6040516103599190613ac5565b60405180910390f35b61036a61084a565b6040516103779190613c59565b60405180910390f35b61039a60048036038101906103959190613c74565b610870565b005b6103a46109e8565b6040516103b19190613cbd565b60405180910390f35b6103c26109f1565b6040516103cf91906138ff565b60405180910390f35b6103e06109f7565b6040516103ed91906138ff565b60405180910390f35b610410600480360381019061040b9190613a6a565b6109fd565b60405161041d9190613ac5565b60405180910390f35b61042e610a34565b60405161043b91906138ff565b60405180910390f35b61044c610dc1565b6040516104599190613ac5565b60405180910390f35b61047c60048036038101906104779190613cd8565b610dd7565b60405161048991906138ff565b60405180910390f35b61049a610e20565b005b6104b660048036038101906104b19190613cd8565b610ea8565b005b6104d260048036038101906104cd9190613e25565b610fd7565b005b6104dc61117a565b005b6104e6611d17565b6040516104f39190613e73565b60405180910390f35b61051660048036038101906105119190613c74565b611d3b565b005b610520611fd8565b60405161052d9190613c59565b60405180910390f35b61053e612001565b60405161054b91906139aa565b60405180910390f35b61055c612093565b6040516105699190613c59565b60405180910390f35b61058c60048036038101906105879190613a6a565b6120b7565b6040516105999190613ac5565b60405180910390f35b6105bc60048036038101906105b79190613a6a565b61212e565b6040516105c99190613ac5565b60405180910390f35b6105da612151565b005b6105e4612a6a565b6040516105f19190613eaf565b60405180910390f35b610602612a8e565b60405161060f9190613eeb565b60405180910390f35b610620612ab2565b60405161062d91906138ff565b60405180910390f35b610650600480360381019061064b9190613f06565b612ab8565b60405161065d91906138ff565b60405180910390f35b61066e612b3f565b60405161067b91906138ff565b60405180910390f35b61068c612b45565b60405161069991906138ff565b60405180910390f35b6106bc60048036038101906106b79190613cd8565b612b4b565b005b60155481565b6060600480546106d390613f75565b80601f01602080910402602001604051908101604052809291908181526020018280546106ff90613f75565b801561074c5780601f106107215761010080835404028352916020019161074c565b820191906000526020600020905b81548152906001019060200180831161072f57829003601f168201915b5050505050905090565b600080610761612c42565b905061076e818585612c4a565b600191505092915050565b60098060000154908060010154908060020154908060030154908060040154908060050154905086565b7f000000000000000000000000000000000000000000000000000000000000000081565b600760009054906101000a900473ffffffffffffffffffffffffffffffffffffffff1681565b6000600354905090565b7f000000000000000000000000000000000000000000000000000000000000000081565b600080610826612c42565b9050610833858285612e13565b61083e858585612e9f565b60019150509392505050565b600860009054906101000a900473ffffffffffffffffffffffffffffffffffffffff1681565b6002600654036108b5576040517f08c379a00000000000000000000000000000000000000000000000000000000081526004016108ac90613ff2565b60405180910390fd5b600260068190555060006108c7610a34565b905060008273__MathLib_______________________________63de7f61709091846040518363ffffffff1660e01b8152600401610906929190614021565b602060405180830381865af4158015610923573d6000803e3d6000fd5b505050506040513d601f19601f82011682018060405250810190610947919061405f565b90506109963330857f000000000000000000000000000000000000000000000000000000000000000073ffffffffffffffffffffffffffffffffffffffff16613121909392919063ffffffff16565b6109a033826131aa565b7f041b4469fcc88a5fc7aa0e470832c45ceb7a1a5f7ffbf1ace0ffc1dd1b22cf743382856040516109d39392919061408c565b60405180910390a15050600160068190555050565b60006012905090565b60145481565b60165481565b600080610a08612c42565b9050610a29818585610a1a8589612ab8565b610a2491906140f2565b612c4a565b600191505092915050565b6000601254421015610a7b576040517f08c379a0000000000000000000000000000000000000000000000000000000008152600401610a7290614172565b60405180910390fd5b60007f000000000000000000000000000000000000000000000000000000000000000073ffffffffffffffffffffffffffffffffffffffff1663fbfa77cf6040518163ffffffff1660e01b8152600401602060405180830381865afa158015610ae8573d6000803e3d6000fd5b505050506040513d601f19601f82011682018060405250810190610b0c91906141d0565b905060008173ffffffffffffffffffffffffffffffffffffffff16637be795e0600760009054906101000a900473ffffffffffffffffffffffffffffffffffffffff16306040518363ffffffff1660e01b8152600401610b6d9291906141fd565b600060405180830381865afa158015610b8a573d6000803e3d6000fd5b505050506040513d6000823e3d601f19601f82011682018060405250810190610bb391906142f3565b90506000815114610bf9576040517f08c379a0000000000000000000000000000000000000000000000000000000008152600401610bf090614388565b60405180910390fd5b60007f000000000000000000000000000000000000000000000000000000000000000073ffffffffffffffffffffffffffffffffffffffff166370a08231306040518263ffffffff1660e01b8152600401610c549190613c59565b602060405180830381865afa158015610c71573d6000803e3d6000fd5b505050506040513d601f19601f82011682018060405250810190610c95919061405f565b905060003073ffffffffffffffffffffffffffffffffffffffff166318160ddd6040518163ffffffff1660e01b8152600401602060405180830381865afa158015610ce4573d6000803e3d6000fd5b505050506040513d601f19601f82011682018060405250810190610d08919061405f565b90506000811115610d96578173__MathLib_______________________________63de7f61709091836040518363ffffffff1660e01b8152600401610d4e929190614021565b602060405180830381865af4158015610d6b573d6000803e3d6000fd5b505050506040513d601f19601f82011682018060405250810190610d8f919061405f565b9450610dba565b7f000000000000000000000000000000000000000000000000000000000000000094505b5050505090565b60008060149054906101000a900460ff16905090565b6000600160008373ffffffffffffffffffffffffffffffffffffffff1673ffffffffffffffffffffffffffffffffffffffff168152602001908152602001600020549050919050565b610e28612c42565b73ffffffffffffffffffffffffffffffffffffffff16610e46611fd8565b73ffffffffffffffffffffffffffffffffffffffff1614610e9c576040517f08c379a0000000000000000000000000000000000000000000000000000000008152600401610e93906143f4565b60405180910390fd5b610ea6600061330a565b565b610eb0612c42565b73ffffffffffffffffffffffffffffffffffffffff16610ece611fd8565b73ffffffffffffffffffffffffffffffffffffffff1614610f24576040517f08c379a0000000000000000000000000000000000000000000000000000000008152600401610f1b906143f4565b60405180910390fd5b600073ffffffffffffffffffffffffffffffffffffffff168173ffffffffffffffffffffffffffffffffffffffff1603610f93576040517f08c379a0000000000000000000000000000000000000000000000000000000008152600401610f8a90614460565b60405180910390fd5b80600860006101000a81548173ffffffffffffffffffffffffffffffffffffffff021916908373ffffffffffffffffffffffffffffffffffffffff16021790555050565b610fdf612c42565b73ffffffffffffffffffffffffffffffffffffffff16610ffd611fd8565b73ffffffffffffffffffffffffffffffffffffffff1614611053576040517f08c379a000000000000000000000000000000000000000000000000000000000815260040161104a906143f4565b60405180910390fd5b600f5481600001511015801561106f5750600f54816040015111155b8015611082575080604001518160800151105b6110c1576040517f08c379a00000000000000000000000000000000000000000000000000000000081526004016110b8906144cc565b60405180910390fd5b6000816060015182602001516110d7919061451b565b14806110f657506000816020015182606001516110f4919061451b565b145b611135576040517f08c379a000000000000000000000000000000000000000000000000000000000815260040161112c90614598565b60405180910390fd5b806009600082015181600001556020820151816001015560408201518160020155606082015181600301556080820151816004015560a0820151816005015590505050565b611182612c42565b73ffffffffffffffffffffffffffffffffffffffff166111a0611fd8565b73ffffffffffffffffffffffffffffffffffffffff16146111f6576040517f08c379a00000000000000000000000000000000000000000000000000000000081526004016111ed906143f4565b60405180910390fd5b6011544210158015611209575060125442105b611248576040517f08c379a000000000000000000000000000000000000000000000000000000000815260040161123f90614604565b60405180910390fd5b60007f000000000000000000000000000000000000000000000000000000000000000073ffffffffffffffffffffffffffffffffffffffff1663b0667cf86040518163ffffffff1660e01b8152600401602060405180830381865afa1580156112b5573d6000803e3d6000fd5b505050506040513d601f19601f820116820180604052508101906112d9919061405f565b905060096003015460096001015411156118d057600060155411611332576040517f08c379a000000000000000000000000000000000000000000000000000000000815260040161132990614670565b60405180910390fd5b61135960125460096003015460115461134b91906140f2565b6133ce90919063ffffffff16565b60118190555042601154116113a3576040517f08c379a000000000000000000000000000000000000000000000000000000000815260040161139a906146dc565b60405180910390fd5b6000426011546113b391906146fc565b905060006114506015548473__MathLib_______________________________63b3947c179091600960020154600f546040518463ffffffff1660e01b815260040161140193929190614730565b602060405180830381865af415801561141e573d6000803e3d6000fd5b505050506040513d601f19601f82011682018060405250810190611442919061405f565b6133ce90919063ffffffff16565b90507f000000000000000000000000000000000000000000000000000000000000000073ffffffffffffffffffffffffffffffffffffffff1663508cd68d600760009054906101000a900473ffffffffffffffffffffffffffffffffffffffff16848460135460016000806040518863ffffffff1660e01b81526004016114dd979695949392919061486e565b600060405180830381600087803b1580156114f757600080fd5b505af115801561150b573d6000803e3d6000fd5b505050506000600960040154111561188b57600060165411611562576040517f08c379a000000000000000000000000000000000000000000000000000000000815260040161155990614929565b60405180910390fd5b60006115fd6016548573__MathLib_______________________________63b3947c179091600960040154600f546040518463ffffffff1660e01b81526004016115ae93929190614730565b602060405180830381865af41580156115cb573d6000803e3d6000fd5b505050506040513d601f19601f820116820180604052508101906115ef919061405f565b6133ce90919063ffffffff16565b905060007f000000000000000000000000000000000000000000000000000000000000000073ffffffffffffffffffffffffffffffffffffffff166370a08231306040518263ffffffff1660e01b815260040161165a9190613c59565b602060405180830381865afa158015611677573d6000803e3d6000fd5b505050506040513d601f19601f8201168201806040525081019061169b919061405f565b73__MathLib_______________________________63de7f617090917f00000000000000000000000000000000000000000000000000000000000000006040518363ffffffff1660e01b81526004016116f5929190614021565b602060405180830381865af4158015611712573d6000803e3d6000fd5b505050506040513d601f19601f82011682018060405250810190611736919061405f565b905060006117ca6013548373__MathLib_______________________________63de7f617090918a6040518363ffffffff1660e01b815260040161177b929190614021565b602060405180830381865af4158015611798573d6000803e3d6000fd5b505050506040513d601f19601f820116820180604052508101906117bc919061405f565b6133ce90919063ffffffff16565b90507f000000000000000000000000000000000000000000000000000000000000000073ffffffffffffffffffffffffffffffffffffffff1663508cd68d600760009054906101000a900473ffffffffffffffffffffffffffffffffffffffff1687868560018060006040518863ffffffff1660e01b8152600401611855979695949392919061486e565b600060405180830381600087803b15801561186f57600080fd5b505af1158015611883573d6000803e3d6000fd5b505050505050505b7f11ed8f4e72c5286d61e8ce5fb2afd18eea97697d3ef276868dd75fcdd4e700e44260115460006040516118c193929190614949565b60405180910390a15050611d14565b6009600301546009600101541015611d1357600060145411611927576040517f08c379a000000000000000000000000000000000000000000000000000000000815260040161191e906149cc565b60405180910390fd5b61194e60125460096001015460115461194091906140f2565b6133ce90919063ffffffff16565b6011819055504260115411611998576040517f08c379a000000000000000000000000000000000000000000000000000000000815260040161198f90614a38565b60405180910390fd5b6000426011546119a891906146fc565b90506000611a456014548473__MathLib_______________________________63b3947c179091600960000154600f546040518463ffffffff1660e01b81526004016119f693929190614730565b602060405180830381865af4158015611a13573d6000803e3d6000fd5b505050506040513d601f19601f82011682018060405250810190611a37919061405f565b6133e790919063ffffffff16565b905060007f000000000000000000000000000000000000000000000000000000000000000073ffffffffffffffffffffffffffffffffffffffff166370a08231306040518263ffffffff1660e01b8152600401611aa29190613c59565b602060405180830381865afa158015611abf573d6000803e3d6000fd5b505050506040513d601f19601f82011682018060405250810190611ae3919061405f565b73__MathLib_______________________________63de7f617090917f00000000000000000000000000000000000000000000000000000000000000006040518363ffffffff1660e01b8152600401611b3d929190614021565b602060405180830381865af4158015611b5a573d6000803e3d6000fd5b505050506040513d601f19601f82011682018060405250810190611b7e919061405f565b90506000611c126013548373__MathLib_______________________________63de7f61709091896040518363ffffffff1660e01b8152600401611bc3929190614021565b602060405180830381865af4158015611be0573d6000803e3d6000fd5b505050506040513d601f19601f82011682018060405250810190611c04919061405f565b6133ce90919063ffffffff16565b90507f000000000000000000000000000000000000000000000000000000000000000073ffffffffffffffffffffffffffffffffffffffff1663508cd68d600760009054906101000a900473ffffffffffffffffffffffffffffffffffffffff168686856000600160006040518863ffffffff1660e01b8152600401611c9e979695949392919061486e565b600060405180830381600087803b158015611cb857600080fd5b505af1158015611ccc573d6000803e3d6000fd5b505050507f11ed8f4e72c5286d61e8ce5fb2afd18eea97697d3ef276868dd75fcdd4e700e4426011546001604051611d0693929190614949565b60405180910390a1505050505b5b50565b7f000000000000000000000000000000000000000000000000000000000000000081565b600260065403611d80576040517f08c379a0000000000000000000000000000000000000000000000000000000008152600401611d7790613ff2565b60405180910390fd5b60026006819055506000611d92610a34565b905060008273__MathLib_______________________________63fed4a0f39091846040518363ffffffff1660e01b8152600401611dd1929190614021565b602060405180830381865af4158015611dee573d6000803e3d6000fd5b505050506040513d601f19601f82011682018060405250810190611e12919061405f565b905082611e1e33610dd7565b1015611e5f576040517f08c379a0000000000000000000000000000000000000000000000000000000008152600401611e5690614aa4565b60405180910390fd5b807f000000000000000000000000000000000000000000000000000000000000000073ffffffffffffffffffffffffffffffffffffffff166370a08231306040518263ffffffff1660e01b8152600401611eb99190613c59565b602060405180830381865afa158015611ed6573d6000803e3d6000fd5b505050506040513d601f19601f82011682018060405250810190611efa919061405f565b1015611f3b576040517f08c379a0000000000000000000000000000000000000000000000000000000008152600401611f3290614b10565b60405180910390fd5b611f453384613401565b611f9033827f000000000000000000000000000000000000000000000000000000000000000073ffffffffffffffffffffffffffffffffffffffff166135d99092919063ffffffff16565b7f9f640df38d8aaf522552ca6393f7244a2ac0fede0d9ae61c288d017daf5d8c60338483604051611fc39392919061408c565b60405180910390a15050600160068190555050565b60008060009054906101000a900473ffffffffffffffffffffffffffffffffffffffff16905090565b60606005805461201090613f75565b80601f016020809104026020016040519081016040528092919081815260200182805461203c90613f75565b80156120895780601f1061205e57610100808354040283529160200191612089565b820191906000526020600020905b81548152906001019060200180831161206c57829003601f168201915b5050505050905090565b7f000000000000000000000000000000000000000000000000000000000000000081565b6000806120c2612c42565b905060006120d08286612ab8565b905083811015612115576040517f08c379a000000000000000000000000000000000000000000000000000000000815260040161210c90614ba2565b60405180910390fd5b6121228286868403612c4a565b60019250505092915050565b600080612139612c42565b9050612146818585612e9f565b600191505092915050565b612159612c42565b73ffffffffffffffffffffffffffffffffffffffff16612177611fd8565b73ffffffffffffffffffffffffffffffffffffffff16146121cd576040517f08c379a00000000000000000000000000000000000000000000000000000000081526004016121c4906143f4565b60405180910390fd5b6009600501546012546121e091906140f2565b421015612222576040517f08c379a000000000000000000000000000000000000000000000000000000000815260040161221990614c0e565b60405180910390fd5b600061222c610a34565b905060008111612271576040517f08c379a000000000000000000000000000000000000000000000000000000000815260040161226890614c7a565b60405180910390fd5b60007f000000000000000000000000000000000000000000000000000000000000000073ffffffffffffffffffffffffffffffffffffffff166370a08231306040518263ffffffff1660e01b81526004016122cc9190613c59565b602060405180830381865afa1580156122e9573d6000803e3d6000fd5b505050506040513d601f19601f8201168201806040525081019061230d919061405f565b73__MathLib_______________________________63de7f617090917f00000000000000000000000000000000000000000000000000000000000000006040518363ffffffff1660e01b8152600401612367929190614021565b602060405180830381865af4158015612384573d6000803e3d6000fd5b505050506040513d601f19601f820116820180604052508101906123a8919061405f565b905060007f000000000000000000000000000000000000000000000000000000000000000073ffffffffffffffffffffffffffffffffffffffff1663b0667cf86040518163ffffffff1660e01b8152600401602060405180830381865afa158015612417573d6000803e3d6000fd5b505050506040513d601f19601f8201168201806040525081019061243b919061405f565b90506000600960040154116124cb578173__MathLib_______________________________63de7f61709091836040518363ffffffff1660e01b8152600401612485929190614021565b602060405180830381865af41580156124a2573d6000803e3d6000fd5b505050506040513d601f19601f820116820180604052508101906124c6919061405f565b612554565b8173__MathLib_______________________________63de7f617090916002846124f59190614c9a565b6040518363ffffffff1660e01b8152600401612512929190614021565b602060405180830381865af415801561252f573d6000803e3d6000fd5b505050506040513d601f19601f82011682018060405250810190612553919061405f565b5b601381905550600860009054906101000a900473ffffffffffffffffffffffffffffffffffffffff16600760006101000a81548173ffffffffffffffffffffffffffffffffffffffff021916908373ffffffffffffffffffffffffffffffffffffffff16021790555060008173__MathLib_______________________________63b3947c179091600960000154600f546040518463ffffffff1660e01b815260040161260393929190614730565b602060405180830381865af4158015612620573d6000803e3d6000fd5b505050506040513d601f19601f82011682018060405250810190612644919061405f565b9050806014819055507f000000000000000000000000000000000000000000000000000000000000000073ffffffffffffffffffffffffffffffffffffffff1663508cd68d600760009054906101000a900473ffffffffffffffffffffffffffffffffffffffff16600960010154846013546000600160006040518863ffffffff1660e01b81526004016126de979695949392919061486e565b600060405180830381600087803b1580156126f857600080fd5b505af115801561270c573d6000803e3d6000fd5b5050505060008273__MathLib_______________________________63b3947c179091600960020154600f546040518463ffffffff1660e01b815260040161275693929190614730565b602060405180830381865af4158015612773573d6000803e3d6000fd5b505050506040513d601f19601f82011682018060405250810190612797919061405f565b9050806015819055507f000000000000000000000000000000000000000000000000000000000000000073ffffffffffffffffffffffffffffffffffffffff1663508cd68d600760009054906101000a900473ffffffffffffffffffffffffffffffffffffffff166009600301548460135460016000806040518863ffffffff1660e01b8152600401612830979695949392919061486e565b600060405180830381600087803b15801561284a57600080fd5b505af115801561285e573d6000803e3d6000fd5b50505050600060096004015411156129c45760008373__MathLib_______________________________63b3947c179091600960040154600f546040518463ffffffff1660e01b81526004016128b693929190614730565b602060405180830381865af41580156128d3573d6000803e3d6000fd5b505050506040513d601f19601f820116820180604052508101906128f7919061405f565b9050806016819055507f000000000000000000000000000000000000000000000000000000000000000073ffffffffffffffffffffffffffffffffffffffff1663508cd68d600760009054906101000a900473ffffffffffffffffffffffffffffffffffffffff166009600301548460135460018060006040518863ffffffff1660e01b8152600401612990979695949392919061486e565b600060405180830381600087803b1580156129aa57600080fd5b505af11580156129be573d6000803e3d6000fd5b50505050505b6129e16009600301546009600101546133ce90919063ffffffff16565b426129ec91906140f2565b601181905550612a0f6009600301546009600101546133e790919063ffffffff16565b42612a1a91906140f2565b6012819055507fbb4d5787ec0cb5f96d4351c29be25db163ec9629d10a69758f835fc8cf782db942601354601154601254604051612a5b9493929190614cf4565b60405180910390a15050505050565b7f000000000000000000000000000000000000000000000000000000000000000081565b7f000000000000000000000000000000000000000000000000000000000000000081565b60125481565b6000600260008473ffffffffffffffffffffffffffffffffffffffff1673ffffffffffffffffffffffffffffffffffffffff16815260200190815260200160002060008373ffffffffffffffffffffffffffffffffffffffff1673ffffffffffffffffffffffffffffffffffffffff16815260200190815260200160002054905092915050565b60135481565b60115481565b612b53612c42565b73ffffffffffffffffffffffffffffffffffffffff16612b71611fd8565b73ffffffffffffffffffffffffffffffffffffffff1614612bc7576040517f08c379a0000000000000000000000000000000000000000000000000000000008152600401612bbe906143f4565b60405180910390fd5b600073ffffffffffffffffffffffffffffffffffffffff168173ffffffffffffffffffffffffffffffffffffffff1603612c36576040517f08c379a0000000000000000000000000000000000000000000000000000000008152600401612c2d90614dab565b60405180910390fd5b612c3f8161330a565b50565b600033905090565b600073ffffffffffffffffffffffffffffffffffffffff168373ffffffffffffffffffffffffffffffffffffffff1603612cb9576040517f08c379a0000000000000000000000000000000000000000000000000000000008152600401612cb090614e3d565b60405180910390fd5b600073ffffffffffffffffffffffffffffffffffffffff168273ffffffffffffffffffffffffffffffffffffffff1603612d28576040517f08c379a0000000000000000000000000000000000000000000000000000000008152600401612d1f90614ecf565b60405180910390fd5b80600260008573ffffffffffffffffffffffffffffffffffffffff1673ffffffffffffffffffffffffffffffffffffffff16815260200190815260200160002060008473ffffffffffffffffffffffffffffffffffffffff1673ffffffffffffffffffffffffffffffffffffffff168152602001908152602001600020819055508173ffffffffffffffffffffffffffffffffffffffff168373ffffffffffffffffffffffffffffffffffffffff167f8c5be1e5ebec7d5bd14f71427d1e84f3dd0314c0f7b2291e5b200ac8c7c3b92583604051612e0691906138ff565b60405180910390a3505050565b6000612e1f8484612ab8565b90507fffffffffffffffffffffffffffffffffffffffffffffffffffffffffffffffff8114612e995781811015612e8b576040517f08c379a0000000000000000000000000000000000000000000000000000000008152600401612e8290614f3b565b60405180910390fd5b612e988484848403612c4a565b5b50505050565b600073ffffffffffffffffffffffffffffffffffffffff168373ffffffffffffffffffffffffffffffffffffffff1603612f0e576040517f08c379a0000000000000000000000000000000000000000000000000000000008152600401612f0590614fcd565b60405180910390fd5b600073ffffffffffffffffffffffffffffffffffffffff168273ffffffffffffffffffffffffffffffffffffffff1603612f7d576040517f08c379a0000000000000000000000000000000000000000000000000000000008152600401612f749061505f565b60405180910390fd5b612f8883838361365f565b6000600160008573ffffffffffffffffffffffffffffffffffffffff1673ffffffffffffffffffffffffffffffffffffffff1681526020019081526020016000205490508181101561300f576040517f08c379a0000000000000000000000000000000000000000000000000000000008152600401613006906150f1565b60405180910390fd5b818103600160008673ffffffffffffffffffffffffffffffffffffffff1673ffffffffffffffffffffffffffffffffffffffff1681526020019081526020016000208190555081600160008573ffffffffffffffffffffffffffffffffffffffff1673ffffffffffffffffffffffffffffffffffffffff16815260200190815260200160002060008282546130a491906140f2565b925050819055508273ffffffffffffffffffffffffffffffffffffffff168473ffffffffffffffffffffffffffffffffffffffff167fddf252ad1be2c89b69c2b068fc378daa952ba7f163c4a11628f55a4df523b3ef8460405161310891906138ff565b60405180910390a361311b848484613664565b50505050565b6131a4846323b872dd60e01b85858560405160240161314293929190615111565b604051602081830303815290604052907bffffffffffffffffffffffffffffffffffffffffffffffffffffffff19166020820180517bffffffffffffffffffffffffffffffffffffffffffffffffffffffff8381831617835250505050613669565b50505050565b600073ffffffffffffffffffffffffffffffffffffffff168273ffffffffffffffffffffffffffffffffffffffff1603613219576040517f08c379a000000000000000000000000000000000000000000000000000000000815260040161321090615194565b60405180910390fd5b6132256000838361365f565b806003600082825461323791906140f2565b9250508190555080600160008473ffffffffffffffffffffffffffffffffffffffff1673ffffffffffffffffffffffffffffffffffffffff168152602001908152602001600020600082825461328d91906140f2565b925050819055508173ffffffffffffffffffffffffffffffffffffffff16600073ffffffffffffffffffffffffffffffffffffffff167fddf252ad1be2c89b69c2b068fc378daa952ba7f163c4a11628f55a4df523b3ef836040516132f291906138ff565b60405180910390a361330660008383613664565b5050565b60008060009054906101000a900473ffffffffffffffffffffffffffffffffffffffff169050816000806101000a81548173ffffffffffffffffffffffffffffffffffffffff021916908373ffffffffffffffffffffffffffffffffffffffff1602179055508173ffffffffffffffffffffffffffffffffffffffff168173ffffffffffffffffffffffffffffffffffffffff167f8be0079c531659141344cd1fd0a4f28419497f9722a3daafe3b4186f6b6457e060405160405180910390a35050565b60008183106133dd57816133df565b825b905092915050565b6000818310156133f757816133f9565b825b905092915050565b600073ffffffffffffffffffffffffffffffffffffffff168273ffffffffffffffffffffffffffffffffffffffff1603613470576040517f08c379a000000000000000000000000000000000000000000000000000000000815260040161346790615226565b60405180910390fd5b61347c8260008361365f565b6000600160008473ffffffffffffffffffffffffffffffffffffffff1673ffffffffffffffffffffffffffffffffffffffff16815260200190815260200160002054905081811015613503576040517f08c379a00000000000000000000000000000000000000000000000000000000081526004016134fa906152b8565b60405180910390fd5b818103600160008573ffffffffffffffffffffffffffffffffffffffff1673ffffffffffffffffffffffffffffffffffffffff16815260200190815260200160002081905550816003600082825461355b91906146fc565b92505081905550600073ffffffffffffffffffffffffffffffffffffffff168373ffffffffffffffffffffffffffffffffffffffff167fddf252ad1be2c89b69c2b068fc378daa952ba7f163c4a11628f55a4df523b3ef846040516135c091906138ff565b60405180910390a36135d483600084613664565b505050565b61365a8363a9059cbb60e01b84846040516024016135f89291906152d8565b604051602081830303815290604052907bffffffffffffffffffffffffffffffffffffffffffffffffffffffff19166020820180517bffffffffffffffffffffffffffffffffffffffffffffffffffffffff8381831617835250505050613669565b505050565b505050565b505050565b60006136cb826040518060400160405280602081526020017f5361666545524332303a206c6f772d6c6576656c2063616c6c206661696c65648152508573ffffffffffffffffffffffffffffffffffffffff166137309092919063ffffffff16565b905060008151111561372b57808060200190518101906136eb919061532d565b61372a576040517f08c379a0000000000000000000000000000000000000000000000000000000008152600401613721906153cc565b60405180910390fd5b5b505050565b606061373f8484600085613748565b90509392505050565b60608247101561378d576040517f08c379a00000000000000000000000000000000000000000000000000000000081526004016137849061545e565b60405180910390fd5b6137968561385c565b6137d5576040517f08c379a00000000000000000000000000000000000000000000000000000000081526004016137cc906154ca565b60405180910390fd5b6000808673ffffffffffffffffffffffffffffffffffffffff1685876040516137fe9190615531565b60006040518083038185875af1925050503d806000811461383b576040519150601f19603f3d011682016040523d82523d6000602084013e613840565b606091505b509150915061385082828661387f565b92505050949350505050565b6000808273ffffffffffffffffffffffffffffffffffffffff163b119050919050565b6060831561388f578290506138df565b6000835111156138a25782518084602001fd5b816040517f08c379a00000000000000000000000000000000000000000000000000000000081526004016138d691906139aa565b60405180910390fd5b9392505050565b6000819050919050565b6138f9816138e6565b82525050565b600060208201905061391460008301846138f0565b92915050565b600081519050919050565b600082825260208201905092915050565b60005b83811015613954578082015181840152602081019050613939565b60008484015250505050565b6000601f19601f8301169050919050565b600061397c8261391a565b6139868185613925565b9350613996818560208601613936565b61399f81613960565b840191505092915050565b600060208201905081810360008301526139c48184613971565b905092915050565b6000604051905090565b600080fd5b600080fd5b600073ffffffffffffffffffffffffffffffffffffffff82169050919050565b6000613a0b826139e0565b9050919050565b613a1b81613a00565b8114613a2657600080fd5b50565b600081359050613a3881613a12565b92915050565b613a47816138e6565b8114613a5257600080fd5b50565b600081359050613a6481613a3e565b92915050565b60008060408385031215613a8157613a806139d6565b5b6000613a8f85828601613a29565b9250506020613aa085828601613a55565b9150509250929050565b60008115159050919050565b613abf81613aaa565b82525050565b6000602082019050613ada6000830184613ab6565b92915050565b600060c082019050613af560008301896138f0565b613b0260208301886138f0565b613b0f60408301876138f0565b613b1c60608301866138f0565b613b2960808301856138f0565b613b3660a08301846138f0565b979650505050505050565b6000819050919050565b6000613b66613b61613b5c846139e0565b613b41565b6139e0565b9050919050565b6000613b7882613b4b565b9050919050565b6000613b8a82613b6d565b9050919050565b613b9a81613b7f565b82525050565b6000602082019050613bb56000830184613b91565b92915050565b6000613bc682613b6d565b9050919050565b613bd681613bbb565b82525050565b6000602082019050613bf16000830184613bcd565b92915050565b600080600060608486031215613c1057613c0f6139d6565b5b6000613c1e86828701613a29565b9350506020613c2f86828701613a29565b9250506040613c4086828701613a55565b9150509250925092565b613c5381613a00565b82525050565b6000602082019050613c6e6000830184613c4a565b92915050565b600060208284031215613c8a57613c896139d6565b5b6000613c9884828501613a55565b91505092915050565b600060ff82169050919050565b613cb781613ca1565b82525050565b6000602082019050613cd26000830184613cae565b92915050565b600060208284031215613cee57613ced6139d6565b5b6000613cfc84828501613a29565b91505092915050565b600080fd5b7f4e487b7100000000000000000000000000000000000000000000000000000000600052604160045260246000fd5b613d4282613960565b810181811067ffffffffffffffff82111715613d6157613d60613d0a565b5b80604052505050565b6000613d746139cc565b9050613d808282613d39565b919050565b600060c08284031215613d9b57613d9a613d05565b5b613da560c0613d6a565b90506000613db584828501613a55565b6000830152506020613dc984828501613a55565b6020830152506040613ddd84828501613a55565b6040830152506060613df184828501613a55565b6060830152506080613e0584828501613a55565b60808301525060a0613e1984828501613a55565b60a08301525092915050565b600060c08284031215613e3b57613e3a6139d6565b5b6000613e4984828501613d85565b91505092915050565b6000613e5d82613b6d565b9050919050565b613e6d81613e52565b82525050565b6000602082019050613e886000830184613e64565b92915050565b6000613e9982613b6d565b9050919050565b613ea981613e8e565b82525050565b6000602082019050613ec46000830184613ea0565b92915050565b6000613ed582613b6d565b9050919050565b613ee581613eca565b82525050565b6000602082019050613f006000830184613edc565b92915050565b60008060408385031215613f1d57613f1c6139d6565b5b6000613f2b85828601613a29565b9250506020613f3c85828601613a29565b9150509250929050565b7f4e487b7100000000000000000000000000000000000000000000000000000000600052602260045260246000fd5b60006002820490506001821680613f8d57607f821691505b602082108103613fa057613f9f613f46565b5b50919050565b7f5265656e7472616e637947756172643a207265656e7472616e742063616c6c00600082015250565b6000613fdc601f83613925565b9150613fe782613fa6565b602082019050919050565b6000602082019050818103600083015261400b81613fcf565b9050919050565b61401b816138e6565b82525050565b60006040820190506140366000830185614012565b6140436020830184614012565b9392505050565b60008151905061405981613a3e565b92915050565b600060208284031215614075576140746139d6565b5b60006140838482850161404a565b91505092915050565b60006060820190506140a16000830186613c4a565b6140ae60208301856138f0565b6140bb60408301846138f0565b949350505050565b7f4e487b7100000000000000000000000000000000000000000000000000000000600052601160045260246000fd5b60006140fd826138e6565b9150614108836138e6565b92508282019050808211156141205761411f6140c3565b5b92915050565b7f496e7665737420697320756e617661696c61626c652e00000000000000000000600082015250565b600061415c601683613925565b915061416782614126565b602082019050919050565b6000602082019050818103600083015261418b8161414f565b9050919050565b600061419d82613a00565b9050919050565b6141ad81614192565b81146141b857600080fd5b50565b6000815190506141ca816141a4565b92915050565b6000602082840312156141e6576141e56139d6565b5b60006141f4848285016141bb565b91505092915050565b60006040820190506142126000830185613c4a565b61421f6020830184613c4a565b9392505050565b600080fd5b600067ffffffffffffffff82111561424657614245613d0a565b5b602082029050602081019050919050565b600080fd5b600061426f61426a8461422b565b613d6a565b9050808382526020820190506020840283018581111561429257614291614257565b5b835b818110156142bb57806142a7888261404a565b845260208401935050602081019050614294565b5050509392505050565b600082601f8301126142da576142d9614226565b5b81516142ea84826020860161425c565b91505092915050565b600060208284031215614309576143086139d6565b5b600082015167ffffffffffffffff811115614327576143266139db565b5b614333848285016142c5565b91505092915050565b7f6f7074696f6e7320796574206163746976650000000000000000000000000000600082015250565b6000614372601283613925565b915061437d8261433c565b602082019050919050565b600060208201905081810360008301526143a181614365565b9050919050565b7f4f776e61626c653a2063616c6c6572206973206e6f7420746865206f776e6572600082015250565b60006143de602083613925565b91506143e9826143a8565b602082019050919050565b6000602082019050818103600083015261440d816143d1565b9050919050565b7f6e756c6c20706f6f6c2061646472657373000000000000000000000000000000600082015250565b600061444a601183613925565b915061445582614414565b602082019050919050565b600060208201905081810360008301526144798161443d565b9050919050565b7f57726f6e6720737472696b657300000000000000000000000000000000000000600082015250565b60006144b6600d83613925565b91506144c182614480565b602082019050919050565b600060208201905081810360008301526144e5816144a9565b9050919050565b7f4e487b7100000000000000000000000000000000000000000000000000000000600052601260045260246000fd5b6000614526826138e6565b9150614531836138e6565b925082614541576145406144ec565b5b828206905092915050565b7f57726f6e672074656e6f72730000000000000000000000000000000000000000600082015250565b6000614582600c83613925565b915061458d8261454c565b602082019050919050565b600060208201905081810360008301526145b181614575565b9050919050565b7f4e6f742079657420666f7220726562616c616e63650000000000000000000000600082015250565b60006145ee601583613925565b91506145f9826145b8565b602082019050919050565b6000602082019050818103600083015261461d816145e1565b9050919050565b7f50757420737472696b6520756e73657400000000000000000000000000000000600082015250565b600061465a601083613925565b915061466582614624565b602082019050919050565b600060208201905081810360008301526146898161464d565b9050919050565b7f7075742065787069727920696e20746865207061737400000000000000000000600082015250565b60006146c6601683613925565b91506146d182614690565b602082019050919050565b600060208201905081810360008301526146f5816146b9565b9050919050565b6000614707826138e6565b9150614712836138e6565b925082820390508181111561472a576147296140c3565b5b92915050565b60006060820190506147456000830186614012565b6147526020830185614012565b61475f6040830184614012565b949350505050565b7f4e487b7100000000000000000000000000000000000000000000000000000000600052602160045260246000fd5b600281106147a7576147a6614767565b5b50565b60008190506147b882614796565b919050565b60006147c8826147aa565b9050919050565b6147d8816147bd565b82525050565b600281106147ef576147ee614767565b5b50565b6000819050614800826147de565b919050565b6000614810826147f2565b9050919050565b61482081614805565b82525050565b6003811061483757614836614767565b5b50565b600081905061484882614826565b919050565b60006148588261483a565b9050919050565b6148688161484d565b82525050565b600060e082019050614883600083018a613bcd565b61489060208301896138f0565b61489d60408301886138f0565b6148aa60608301876138f0565b6148b760808301866147cf565b6148c460a0830185614817565b6148d160c083018461485f565b98975050505050505050565b7f53707265616420737472696b6520756e73657400000000000000000000000000600082015250565b6000614913601383613925565b915061491e826148dd565b602082019050919050565b6000602082019050818103600083015261494281614906565b9050919050565b600060608201905061495e60008301866138f0565b61496b60208301856138f0565b6149786040830184613ab6565b949350505050565b7f43616c6c20737472696b6520756e736574000000000000000000000000000000600082015250565b60006149b6601183613925565b91506149c182614980565b602082019050919050565b600060208201905081810360008301526149e5816149a9565b9050919050565b7f63616c6c2065787069727920696e207468652070617374000000000000000000600082015250565b6000614a22601783613925565b9150614a2d826149ec565b602082019050919050565b60006020820190508181036000830152614a5181614a15565b9050919050565b7f45786365656420746f74616c2062616c616e6365000000000000000000000000600082015250565b6000614a8e601483613925565b9150614a9982614a58565b602082019050919050565b60006020820190508181036000830152614abd81614a81565b9050919050565b7f496e73756666696369656e742066756e64696e67000000000000000000000000600082015250565b6000614afa601483613925565b9150614b0582614ac4565b602082019050919050565b60006020820190508181036000830152614b2981614aed565b9050919050565b7f45524332303a2064656372656173656420616c6c6f77616e63652062656c6f7760008201527f207a65726f000000000000000000000000000000000000000000000000000000602082015250565b6000614b8c602583613925565b9150614b9782614b30565b604082019050919050565b60006020820190508181036000830152614bbb81614b7f565b9050919050565b7f4e6f742079657420666f7220726f6c6c73000000000000000000000000000000600082015250565b6000614bf8601183613925565b9150614c0382614bc2565b602082019050919050565b60006020820190508181036000830152614c2781614beb565b9050919050565b7f5a65726f20617373657473000000000000000000000000000000000000000000600082015250565b6000614c64600b83613925565b9150614c6f82614c2e565b602082019050919050565b60006020820190508181036000830152614c9381614c57565b9050919050565b6000614ca5826138e6565b9150614cb0836138e6565b9250817fffffffffffffffffffffffffffffffffffffffffffffffffffffffffffffffff0483118215151615614ce957614ce86140c3565b5b828202905092915050565b6000608082019050614d0960008301876138f0565b614d1660208301866138f0565b614d2360408301856138f0565b614d3060608301846138f0565b95945050505050565b7f4f776e61626c653a206e6577206f776e657220697320746865207a65726f206160008201527f6464726573730000000000000000000000000000000000000000000000000000602082015250565b6000614d95602683613925565b9150614da082614d39565b604082019050919050565b60006020820190508181036000830152614dc481614d88565b9050919050565b7f45524332303a20617070726f76652066726f6d20746865207a65726f2061646460008201527f7265737300000000000000000000000000000000000000000000000000000000602082015250565b6000614e27602483613925565b9150614e3282614dcb565b604082019050919050565b60006020820190508181036000830152614e5681614e1a565b9050919050565b7f45524332303a20617070726f766520746f20746865207a65726f20616464726560008201527f7373000000000000000000000000000000000000000000000000000000000000602082015250565b6000614eb9602283613925565b9150614ec482614e5d565b604082019050919050565b60006020820190508181036000830152614ee881614eac565b9050919050565b7f45524332303a20696e73756666696369656e7420616c6c6f77616e6365000000600082015250565b6000614f25601d83613925565b9150614f3082614eef565b602082019050919050565b60006020820190508181036000830152614f5481614f18565b9050919050565b7f45524332303a207472616e736665722066726f6d20746865207a65726f20616460008201527f6472657373000000000000000000000000000000000000000000000000000000602082015250565b6000614fb7602583613925565b9150614fc282614f5b565b604082019050919050565b60006020820190508181036000830152614fe681614faa565b9050919050565b7f45524332303a207472616e7366657220746f20746865207a65726f206164647260008201527f6573730000000000000000000000000000000000000000000000000000000000602082015250565b6000615049602383613925565b915061505482614fed565b604082019050919050565b600060208201905081810360008301526150788161503c565b9050919050565b7f45524332303a207472616e7366657220616d6f756e742065786365656473206260008201527f616c616e63650000000000000000000000000000000000000000000000000000602082015250565b60006150db602683613925565b91506150e68261507f565b604082019050919050565b6000602082019050818103600083015261510a816150ce565b9050919050565b60006060820190506151266000830186613c4a565b6151336020830185613c4a565b61514060408301846138f0565b949350505050565b7f45524332303a206d696e7420746f20746865207a65726f206164647265737300600082015250565b600061517e601f83613925565b915061518982615148565b602082019050919050565b600060208201905081810360008301526151ad81615171565b9050919050565b7f45524332303a206275726e2066726f6d20746865207a65726f2061646472657360008201527f7300000000000000000000000000000000000000000000000000000000000000602082015250565b6000615210602183613925565b915061521b826151b4565b604082019050919050565b6000602082019050818103600083015261523f81615203565b9050919050565b7f45524332303a206275726e20616d6f756e7420657863656564732062616c616e60008201527f6365000000000000000000000000000000000000000000000000000000000000602082015250565b60006152a2602283613925565b91506152ad82615246565b604082019050919050565b600060208201905081810360008301526152d181615295565b9050919050565b60006040820190506152ed6000830185613c4a565b6152fa60208301846138f0565b9392505050565b61530a81613aaa565b811461531557600080fd5b50565b60008151905061532781615301565b92915050565b600060208284031215615343576153426139d6565b5b600061535184828501615318565b91505092915050565b7f5361666545524332303a204552433230206f7065726174696f6e20646964206e60008201527f6f74207375636365656400000000000000000000000000000000000000000000602082015250565b60006153b6602a83613925565b91506153c18261535a565b604082019050919050565b600060208201905081810360008301526153e5816153a9565b9050919050565b7f416464726573733a20696e73756666696369656e742062616c616e636520666f60008201527f722063616c6c0000000000000000000000000000000000000000000000000000602082015250565b6000615448602683613925565b9150615453826153ec565b604082019050919050565b600060208201905081810360008301526154778161543b565b9050919050565b7f416464726573733a2063616c6c20746f206e6f6e2d636f6e7472616374000000600082015250565b60006154b4601d83613925565b91506154bf8261547e565b602082019050919050565b600060208201905081810360008301526154e3816154a7565b9050919050565b600081519050919050565b600081905092915050565b600061550b826154ea565b61551581856154f5565b9350615525818560208601613936565b80840191505092915050565b600061553d8284615500565b91508190509291505056fea26469706673582212201adc0af28717efd08656dc3e358821dc75850ecf1085c60feebb098c46baa77d64736f6c63430008100033",
  "immutableReferences": {
    "16653": [
      {
        "length": 32,
        "start": 1957
      }
    ],
    "16656": [
      {
        "length": 32,
        "start": 4684
      },
      {
        "length": 32,
        "start": 7449
      },
      {
        "length": 32,
        "start": 9134
      }
    ],
    "16659": [
      {
        "length": 32,
        "start": 2687
      },
      {
        "length": 32,
        "start": 5204
      },
      {
        "length": 32,
        "start": 6094
      },
      {
        "length": 32,
        "start": 7190
      },
      {
        "length": 32,
        "start": 9807
      },
      {
        "length": 32,
        "start": 10146
      },
      {
        "length": 32,
        "start": 10498
      },
      {
        "length": 32,
        "start": 10896
      }
    ],
    "16661": [
      {
        "length": 32,
        "start": 8341
      }
    ],
    "16664": [
      {
        "length": 32,
        "start": 2385
      },
      {
        "length": 32,
        "start": 3069
      },
      {
        "length": 32,
        "start": 5635
      },
      {
        "length": 32,
        "start": 6731
      },
      {
        "length": 32,
        "start": 7778
      },
      {
        "length": 32,
        "start": 8012
      },
      {
        "length": 32,
        "start": 8821
      },
      {
        "length": 32,
        "start": 10860
      }
    ],
    "16666": [
      {
        "length": 32,
        "start": 2041
      },
      {
        "length": 32,
        "start": 3480
      },
      {
        "length": 32,
        "start": 5817
      },
      {
        "length": 32,
        "start": 6913
      },
      {
        "length": 32,
        "start": 9003
      }
    ]
  },
  "source": "// SPDX-License-Identifier: MIT\npragma solidity 0.8.16;\n\nimport \"@openzeppelin/contracts/token/ERC20/ERC20.sol\";\nimport \"@openzeppelin/contracts/access/Ownable.sol\";\nimport \"@openzeppelin/contracts/security/Pausable.sol\";\nimport \"@openzeppelin/contracts/security/ReentrancyGuard.sol\";\nimport \"@openzeppelin/contracts/token/ERC20/utils/SafeERC20.sol\";\nimport \"@openzeppelin/contracts/utils/math/Math.sol\";\nimport \"../Exchange.sol\";\nimport \"../OptionVault.sol\";\nimport \"../VolatilityChain.sol\";\nimport \"../governance/Moret.sol\";\nimport \"../governance/MoretBroker.sol\";\nimport \"../libraries/MathLib.sol\";\nimport \"../libraries/OptionLib.sol\";\n\ncontract FixedIncomeAnnuity is Ownable, Pausable, ERC20, ReentrancyGuard{\n    using MathLib for uint256;\n    using Math for uint256;\n    using SafeERC20 for ERC20;\n\n    Moret public immutable gov;\n    VolatilityChain public immutable oracle;\n    Exchange public immutable exchange;\n    address public immutable tokenAddress;\n    ERC20 public immutable funding;\n    uint256 public immutable fundingMultiplier;\n    Pool public pool;\n    address public nextPool;\n\n    struct FIAParam{uint256 callMoney; uint256 callTenor; uint256 putMoney; uint256 putTenor; uint256 putSpread; uint256 tradeWindow; }\n    FIAParam public fiaParams;\n    uint256 paramsMultiplier = 1e6;\n    uint256 MAX_INT = 2**256 - 1;\n\n    uint256 public nextRebTime; // next time for new option contracts\n    uint256 public nextVintageTime; // next time for new vintage\n    uint256 public optionAmount; // amount of option for each rolling vintage\n    uint256 public vintageCallStrike;\n    uint256 public vintagePutStrike;\n    uint256 public vintageSpreadStrike;\n\n    event FIPInvest(address investor, uint256 tokenUnit, uint256 investAmount);\n    event FIPDivest(address investor, uint256 tokenUnit, uint256 divestAmount);\n    event FIPRoll(uint256 time, uint256 amount, uint256 rebTime, uint256 vintageTime );\n    event FIPRebalance(uint256 time, uint256 rebTime, bool rebCall);\n\n    constructor(Moret _gov, Exchange _exchange, address _tokenAddr, address _pool, string memory _name, string memory _symbol, FIAParam memory _params) ERC20(_name, _symbol){\n        gov = _gov;\n        funding = _gov.broker().funding();\n        oracle = _gov.getVolatilityChain(_tokenAddr);\n        exchange = _exchange;\n        funding.increaseAllowance(address(_exchange), MAX_INT);\n        tokenAddress = _tokenAddr;\n\n        require(_pool != address(0), \"null pool address\");\n        pool = Pool(_pool);\n        nextPool = _pool;\n\n        uint256 fundingDecimals = _gov.broker().funding().decimals();\n        fundingMultiplier = 10 ** fundingDecimals;\n\n        nextRebTime = block.timestamp;\n        nextVintageTime = block.timestamp;\n\n        require(_params.callMoney >= paramsMultiplier && _params.putMoney <= paramsMultiplier && _params.putSpread < _params.putMoney, \"Wrong strikes\");\n        require(_params.callTenor % _params.putTenor == 0 || _params.putTenor % _params.callTenor == 0, \"Wrong tenors\");\n        fiaParams = _params;\n    }\n\n    function setParameters(FIAParam memory _params) external onlyOwner {\n        require(_params.callMoney >= paramsMultiplier && _params.putMoney <= paramsMultiplier && _params.putSpread < _params.putMoney, \"Wrong strikes\");\n        require(_params.callTenor % _params.putTenor == 0 || _params.putTenor % _params.callTenor == 0, \"Wrong tenors\");\n        fiaParams = _params;\n    }\n\n    function updatePool(address _pool) external onlyOwner{\n        require(_pool != address(0), \"null pool address\");\n        nextPool = _pool;\n    }\n\n    // invest function to deposit USDC\n    // _toInvest: amount of USDC to invest during the investment window\n    function invest(uint256 _toInvest) external nonReentrant{\n        uint256 unitAsset = getRollsUnitAsset();\n        uint256 unitToMint = _toInvest.ethdiv(unitAsset);\n\n        funding.safeTransferFrom(msg.sender, address(this), _toInvest);\n        _mint(msg.sender, unitToMint);\n        emit FIPInvest(msg.sender, unitToMint, _toInvest);\n    }\n    \n    // invest function to withdraw USDC\n    // _toDivest: amount of FIP tokens to divest (by withdrawing corresponding amount of USDC) during the investment window\n    function divest(uint256 _toDivest) external nonReentrant{\n        uint256 unitAsset = getRollsUnitAsset();\n        uint256 assetToDivest = _toDivest.ethmul(unitAsset);\n\n        require(balanceOf(msg.sender) >= _toDivest, \"Exceed total balance\");\n        require(funding.balanceOf(address(this)) >= assetToDivest, \"Insufficient funding\");\n        _burn(msg.sender, _toDivest);\n        funding.safeTransfer(msg.sender, assetToDivest);\n        emit FIPDivest(msg.sender, _toDivest, assetToDivest);\n    }\n\n    function getRollsUnitAsset() public view returns(uint256 unitAsset){\n        require(block.timestamp >= nextVintageTime, \"Invest is unavailable.\");\n        OptionVault vault = exchange.vault();\n        uint256[] memory options = vault.getHolderOptions(address(pool), address(this));\n        require(options.length == 0, \"options yet active\");\n\n        uint256 currentAssets = funding.balanceOf(address(this));\n        uint256 currentSupply = this.totalSupply();\n        if(currentSupply>0){\n            unitAsset = currentAssets.ethdiv(currentSupply);\n        }\n        else{\n            unitAsset = fundingMultiplier;\n        }\n    }\n\n    function rollover() external onlyOwner{\n        require(block.timestamp >= (nextVintageTime + fiaParams.tradeWindow), \"Not yet for rolls\");\n        uint256 unitAsset = getRollsUnitAsset();\n        require(unitAsset> 0, \"Zero assets\");\n        \n        uint256 currentAssets = funding.balanceOf(address(this)).ethdiv(fundingMultiplier);\n        uint256 currentPrice = oracle.queryPrice();\n        optionAmount = fiaParams.putSpread > 0? currentAssets.ethdiv(currentPrice * 2): currentAssets.ethdiv(currentPrice);\n\n        // update pool\n        pool = Pool(nextPool);\n\n        // sell call\n        uint256 callStrike = currentPrice.muldiv(fiaParams.callMoney, paramsMultiplier);\n        vintageCallStrike = callStrike;\n        exchange.tradeOption(pool, fiaParams.callTenor, callStrike, optionAmount, OptionLib.PayoffType.Call, OptionLib.OptionSide.Sell, OptionLib.PaymentMethod.USDC);\n\n        // buy put\n        uint256 putStrike = currentPrice.muldiv(fiaParams.putMoney, paramsMultiplier);\n        vintagePutStrike = putStrike;\n        exchange.tradeOption(pool, fiaParams.putTenor, putStrike, optionAmount, OptionLib.PayoffType.Put, OptionLib.OptionSide.Buy, OptionLib.PaymentMethod.USDC);\n\n        // sell put spread\n        if(fiaParams.putSpread > 0){\n            uint256 putSpreadStrike = currentPrice.muldiv(fiaParams.putSpread, paramsMultiplier);\n            vintageSpreadStrike = putSpreadStrike;\n            exchange.tradeOption(pool, fiaParams.putTenor, putSpreadStrike, optionAmount, OptionLib.PayoffType.Put, OptionLib.OptionSide.Sell, OptionLib.PaymentMethod.USDC);\n        }\n\n        nextRebTime = block.timestamp + fiaParams.callTenor.min(fiaParams.putTenor);\n        nextVintageTime = block.timestamp + fiaParams.callTenor.max(fiaParams.putTenor);\n\n        emit FIPRoll(block.timestamp, optionAmount, nextRebTime, nextVintageTime);\n    }\n\n    function rebalance() external onlyOwner{\n        require(block.timestamp >= nextRebTime && block.timestamp < nextVintageTime, \"Not yet for rebalance\");\n        uint256 currentPrice = oracle.queryPrice();\n        if(fiaParams.callTenor > fiaParams.putTenor){\n            require(vintagePutStrike > 0, \"Put strike unset\");\n            nextRebTime = (nextRebTime + fiaParams.putTenor).min(nextVintageTime);\n            require(nextRebTime > block.timestamp, \"put expiry in the past\");\n            uint256 tenor = nextRebTime - block.timestamp;\n            uint256 strike = currentPrice.muldiv(fiaParams.putMoney, paramsMultiplier).min(vintagePutStrike);\n            exchange.tradeOption(pool, tenor, strike, optionAmount, OptionLib.PayoffType.Put, OptionLib.OptionSide.Buy, OptionLib.PaymentMethod.USDC);\n\n            if(fiaParams.putSpread > 0){\n                require(vintageSpreadStrike > 0, \"Spread strike unset\");\n                uint256 putSpreadStrike = currentPrice.muldiv(fiaParams.putSpread, paramsMultiplier).min(vintageSpreadStrike);\n                uint256 currentAssets = funding.balanceOf(address(this)).ethdiv(fundingMultiplier);\n                uint256 spreadOptionAmount = currentAssets.ethdiv(currentPrice).min(optionAmount);\n                exchange.tradeOption(pool, tenor, putSpreadStrike, spreadOptionAmount, OptionLib.PayoffType.Put, OptionLib.OptionSide.Sell, OptionLib.PaymentMethod.USDC);\n            }\n            emit FIPRebalance(block.timestamp, nextRebTime, false);\n        }\n        else if (fiaParams.callTenor < fiaParams.putTenor){\n            require(vintageCallStrike > 0, \"Call strike unset\");\n            nextRebTime = (nextRebTime + fiaParams.callTenor).min(nextVintageTime);\n            require(nextRebTime > block.timestamp, \"call expiry in the past\");\n            uint256 tenor = nextRebTime - block.timestamp;\n            uint256 strike = currentPrice.muldiv(fiaParams.callMoney, paramsMultiplier).max(vintageCallStrike);\n            uint256 currentAssets = funding.balanceOf(address(this)).ethdiv(fundingMultiplier);\n            uint256 callOptionAmount = currentAssets.ethdiv(currentPrice).min(optionAmount);\n            exchange.tradeOption(pool, tenor, strike, callOptionAmount, OptionLib.PayoffType.Call, OptionLib.OptionSide.Sell, OptionLib.PaymentMethod.USDC);\n            emit FIPRebalance(block.timestamp, nextRebTime, true);}\n    }\n}",
  "sourcePath": "/Users/mac/Documents/GitHub/moret/contracts/vaults/FixedIncomeAnnuity.sol",
  "compiler": {
    "name": "solc",
    "version": "0.8.16+commit.07a7930e.Emscripten.clang"
  },
  "schemaVersion": "3.4.3",
  "updatedAt": "2022-11-06T14:21:00.142Z",
  "networkType": "ethereum",
  "devdoc": {
    "kind": "dev",
    "methods": {
      "allowance(address,address)": {
        "details": "See {IERC20-allowance}."
      },
      "approve(address,uint256)": {
        "details": "See {IERC20-approve}. NOTE: If `amount` is the maximum `uint256`, the allowance is not updated on `transferFrom`. This is semantically equivalent to an infinite approval. Requirements: - `spender` cannot be the zero address."
      },
      "balanceOf(address)": {
        "details": "See {IERC20-balanceOf}."
      },
      "decimals()": {
        "details": "Returns the number of decimals used to get its user representation. For example, if `decimals` equals `2`, a balance of `505` tokens should be displayed to a user as `5.05` (`505 / 10 ** 2`). Tokens usually opt for a value of 18, imitating the relationship between Ether and Wei. This is the value {ERC20} uses, unless this function is overridden; NOTE: This information is only used for _display_ purposes: it in no way affects any of the arithmetic of the contract, including {IERC20-balanceOf} and {IERC20-transfer}."
      },
      "decreaseAllowance(address,uint256)": {
        "details": "Atomically decreases the allowance granted to `spender` by the caller. This is an alternative to {approve} that can be used as a mitigation for problems described in {IERC20-approve}. Emits an {Approval} event indicating the updated allowance. Requirements: - `spender` cannot be the zero address. - `spender` must have allowance for the caller of at least `subtractedValue`."
      },
      "increaseAllowance(address,uint256)": {
        "details": "Atomically increases the allowance granted to `spender` by the caller. This is an alternative to {approve} that can be used as a mitigation for problems described in {IERC20-approve}. Emits an {Approval} event indicating the updated allowance. Requirements: - `spender` cannot be the zero address."
      },
      "name()": {
        "details": "Returns the name of the token."
      },
      "owner()": {
        "details": "Returns the address of the current owner."
      },
      "paused()": {
        "details": "Returns true if the contract is paused, and false otherwise."
      },
      "renounceOwnership()": {
        "details": "Leaves the contract without owner. It will not be possible to call `onlyOwner` functions anymore. Can only be called by the current owner. NOTE: Renouncing ownership will leave the contract without an owner, thereby removing any functionality that is only available to the owner."
      },
      "symbol()": {
        "details": "Returns the symbol of the token, usually a shorter version of the name."
      },
      "totalSupply()": {
        "details": "See {IERC20-totalSupply}."
      },
      "transfer(address,uint256)": {
        "details": "See {IERC20-transfer}. Requirements: - `to` cannot be the zero address. - the caller must have a balance of at least `amount`."
      },
      "transferFrom(address,address,uint256)": {
        "details": "See {IERC20-transferFrom}. Emits an {Approval} event indicating the updated allowance. This is not required by the EIP. See the note at the beginning of {ERC20}. NOTE: Does not update the allowance if the current allowance is the maximum `uint256`. Requirements: - `from` and `to` cannot be the zero address. - `from` must have a balance of at least `amount`. - the caller must have allowance for ``from``'s tokens of at least `amount`."
      },
      "transferOwnership(address)": {
        "details": "Transfers ownership of the contract to a new account (`newOwner`). Can only be called by the current owner."
      }
    },
    "version": 1
  },
  "userdoc": {
    "kind": "user",
    "methods": {},
    "version": 1
  }
}