{
  "contractName": "GovernorFactory",
  "abi": [
    {
      "anonymous": false,
      "inputs": [
        {
          "indexed": false,
          "internalType": "address",
          "name": "poolGov",
          "type": "address"
        },
        {
          "indexed": false,
          "internalType": "address",
          "name": "pool",
          "type": "address"
        }
      ],
      "name": "ProxyCreated",
      "type": "event"
    },
    {
      "inputs": [
        {
          "internalType": "bytes32",
          "name": "salt",
          "type": "bytes32"
        },
        {
          "internalType": "address",
          "name": "_pool",
          "type": "address"
        }
      ],
      "name": "deploy",
      "outputs": [],
      "stateMutability": "nonpayable",
      "type": "function"
    }
  ],
  "bytecode": "0x608060405234801561001057600080fd5b50615ffd806100206000396000f3fe60806040523480156200001157600080fd5b50600436106200002e5760003560e01c80638c1fb9311462000033575b600080fd5b6200005160048036038101906200004b9190620002d9565b62000053565b005b6000620000cc600084604051806020016200006e9062000226565b6020820181038252601f19601f820116604052508560405160200162000095919062000331565b604051602081830303815290604052604051602001620000b7929190620003d1565b6040516020818303038152906040526200010e565b90507f9678a1e87ca9f1a37dc659a97b39d812d98cd236947e1b53b3d0d6fd346acb6e818360405162000101929190620003f9565b60405180910390a1505050565b6000808447101562000157576040517f08c379a00000000000000000000000000000000000000000000000000000000081526004016200014e9062000487565b60405180910390fd5b60008351036200019e576040517f08c379a00000000000000000000000000000000000000000000000000000000081526004016200019590620004f9565b60405180910390fd5b8383516020850187f59050600073ffffffffffffffffffffffffffffffffffffffff168173ffffffffffffffffffffffffffffffffffffffff16036200021b576040517f08c379a000000000000000000000000000000000000000000000000000000000815260040162000212906200056b565b60405180910390fd5b809150509392505050565b615a3a806200058e83390190565b600080fd5b6000819050919050565b6200024e8162000239565b81146200025a57600080fd5b50565b6000813590506200026e8162000243565b92915050565b600073ffffffffffffffffffffffffffffffffffffffff82169050919050565b6000620002a18262000274565b9050919050565b620002b38162000294565b8114620002bf57600080fd5b50565b600081359050620002d381620002a8565b92915050565b60008060408385031215620002f357620002f262000234565b5b600062000303858286016200025d565b92505060206200031685828601620002c2565b9150509250929050565b6200032b8162000294565b82525050565b600060208201905062000348600083018462000320565b92915050565b600081519050919050565b600081905092915050565b60005b838110156200038457808201518184015260208101905062000367565b8381111562000394576000848401525b50505050565b6000620003a7826200034e565b620003b3818562000359565b9350620003c581856020860162000364565b80840191505092915050565b6000620003df82856200039a565b9150620003ed82846200039a565b91508190509392505050565b600060408201905062000410600083018562000320565b6200041f602083018462000320565b9392505050565b600082825260208201905092915050565b7f437265617465323a20696e73756666696369656e742062616c616e6365000000600082015250565b60006200046f601d8362000426565b91506200047c8262000437565b602082019050919050565b60006020820190508181036000830152620004a28162000460565b9050919050565b7f437265617465323a2062797465636f6465206c656e677468206973207a65726f600082015250565b6000620004e160208362000426565b9150620004ee82620004a9565b602082019050919050565b600060208201905081810360008301526200051481620004d2565b9050919050565b7f437265617465323a204661696c6564206f6e206465706c6f7900000000000000600082015250565b60006200055360198362000426565b915062000560826200051b565b602082019050919050565b60006020820190508181036000830152620005868162000544565b905091905056fe6101606040523480156200001257600080fd5b5060405162005a3a38038062005a3a833981810160405281019062000038919062000338565b6004816040518060400160405280600281526020017f4d4700000000000000000000000000000000000000000000000000000000000081525080620000826200019660201b60201c565b60008280519060200120905060008280519060200120905060007f8b73c3c69bb8fe3d512ecc4cf759cc79239f7b179b0ffacaa9a75d522b39400f90508260e081815250508161010081815250504660a08181525050620000eb818484620001d360201b60201c565b608081815250503073ffffffffffffffffffffffffffffffffffffffff1660c08173ffffffffffffffffffffffffffffffffffffffff168152505080610120818152505050505050508060009081620001459190620005e4565b50508073ffffffffffffffffffffffffffffffffffffffff166101408173ffffffffffffffffffffffffffffffffffffffff1681525050506200018e816200020f60201b60201c565b505062000861565b60606040518060400160405280600181526020017f3100000000000000000000000000000000000000000000000000000000000000815250905090565b60008383834630604051602001620001f095949392919062000708565b6040516020818303038152906040528051906020012090509392505050565b6200021f620002b160201b60201c565b81111562000264576040517f08c379a00000000000000000000000000000000000000000000000000000000081526004016200025b9062000812565b60405180910390fd5b60006005549050816005819055507f0553476bf02ef2726e8ce5ced78d63e26e602e4a2257b1f559418e24b46339978183604051620002a592919062000834565b60405180910390a15050565b60006064905090565b600080fd5b600073ffffffffffffffffffffffffffffffffffffffff82169050919050565b6000620002ec82620002bf565b9050919050565b60006200030082620002df565b9050919050565b6200031281620002f3565b81146200031e57600080fd5b50565b600081519050620003328162000307565b92915050565b600060208284031215620003515762000350620002ba565b5b6000620003618482850162000321565b91505092915050565b600081519050919050565b7f4e487b7100000000000000000000000000000000000000000000000000000000600052604160045260246000fd5b7f4e487b7100000000000000000000000000000000000000000000000000000000600052602260045260246000fd5b60006002820490506001821680620003ec57607f821691505b602082108103620004025762000401620003a4565b5b50919050565b60008190508160005260206000209050919050565b60006020601f8301049050919050565b600082821b905092915050565b6000600883026200046c7fffffffffffffffffffffffffffffffffffffffffffffffffffffffffffffffff826200042d565b6200047886836200042d565b95508019841693508086168417925050509392505050565b6000819050919050565b6000819050919050565b6000620004c5620004bf620004b98462000490565b6200049a565b62000490565b9050919050565b6000819050919050565b620004e183620004a4565b620004f9620004f082620004cc565b8484546200043a565b825550505050565b600090565b6200051062000501565b6200051d818484620004d6565b505050565b5b8181101562000545576200053960008262000506565b60018101905062000523565b5050565b601f82111562000594576200055e8162000408565b62000569846200041d565b8101602085101562000579578190505b6200059162000588856200041d565b83018262000522565b50505b505050565b600082821c905092915050565b6000620005b96000198460080262000599565b1980831691505092915050565b6000620005d48383620005a6565b9150826002028217905092915050565b620005ef826200036a565b67ffffffffffffffff8111156200060b576200060a62000375565b5b620006178254620003d3565b6200062482828562000549565b600060209050601f8311600181146200065c576000841562000647578287015190505b620006538582620005c6565b865550620006c3565b601f1984166200066c8662000408565b60005b8281101562000696578489015182556001820191506020850194506020810190506200066f565b86831015620006b65784890151620006b2601f891682620005a6565b8355505b6001600288020188555050505b505050505050565b6000819050919050565b620006e081620006cb565b82525050565b620006f18162000490565b82525050565b6200070281620002df565b82525050565b600060a0820190506200071f6000830188620006d5565b6200072e6020830187620006d5565b6200073d6040830186620006d5565b6200074c6060830185620006e6565b6200075b6080830184620006f7565b9695505050505050565b600082825260208201905092915050565b7f476f7665726e6f72566f74657351756f72756d4672616374696f6e3a2071756f60008201527f72756d4e756d657261746f72206f7665722071756f72756d44656e6f6d696e6160208201527f746f720000000000000000000000000000000000000000000000000000000000604082015250565b6000620007fa60438362000765565b9150620008078262000776565b606082019050919050565b600060208201905081810360008301526200082d81620007eb565b9050919050565b60006040820190506200084b6000830185620006e6565b6200085a6020830184620006e6565b9392505050565b60805160a05160c05160e051610100516101205161014051615170620008ca6000396000818161185f01528181612003015261210001526000612261015260006122a301526000612282015260006121b70152600061220d0152600061223601526151706000f3fe6080604052600436106101f25760003560e01c80635f398a141161010d578063c01f9e37116100a0578063deaaa7cc1161006f578063deaaa7cc14610814578063eb9019d41461083f578063f23a6e611461087c578063f8ce560a146108b9578063fc0c546a146108f657610238565b8063c01f9e3714610746578063c28bc2fa14610783578063c59057e4146107ac578063dd4e2ba5146107e957610238565b80639a802a6d116100dc5780639a802a6d14610676578063a7713a70146106b3578063b58131b0146106de578063bc197c811461070957610238565b80635f398a14146105945780637b3c71d3146105d15780637d5e81e21461060e57806397c3d3341461064b57610238565b80632fe3e26111610185578063438596321161015457806343859632146104b0578063544ffc9c146104ed57806354fd4d501461052c578063567813881461055757610238565b80632fe3e261146103e05780633932abb11461040b5780633bccf4fd146104365780633e4f49e61461047357610238565b806306fdde03116101c157806306fdde031461030b578063150b7a02146103365780632656227d146103735780632d63f693146103a357610238565b806301ffc9a71461023d57806302a251a31461027a57806303420181146102a557806306f3f9e6146102e257610238565b36610238573073ffffffffffffffffffffffffffffffffffffffff16610216610921565b73ffffffffffffffffffffffffffffffffffffffff161461023657600080fd5b005b600080fd5b34801561024957600080fd5b50610264600480360381019061025f9190612b52565b610929565b6040516102719190612b9a565b60405180910390f35b34801561028657600080fd5b5061028f610a8e565b60405161029c9190612bce565b60405180910390f35b3480156102b157600080fd5b506102cc60048036038101906102c79190612e2a565b610a98565b6040516102d99190612bce565b60405180910390f35b3480156102ee57600080fd5b5061030960048036038101906103049190612f08565b610b7d565b005b34801561031757600080fd5b50610320610c74565b60405161032d9190612fbd565b60405180910390f35b34801561034257600080fd5b5061035d6004803603810190610358919061303d565b610d06565b60405161036a91906130cf565b60405180910390f35b61038d60048036038101906103889190613351565b610d1a565b60405161039a9190612bce565b60405180910390f35b3480156103af57600080fd5b506103ca60048036038101906103c59190612f08565b610e67565b6040516103d79190612bce565b60405180910390f35b3480156103ec57600080fd5b506103f5610ed5565b604051610402919061341b565b60405180910390f35b34801561041757600080fd5b50610420610ef9565b60405161042d9190612bce565b60405180910390f35b34801561044257600080fd5b5061045d60048036038101906104589190613436565b610f03565b60405161046a9190612bce565b60405180910390f35b34801561047f57600080fd5b5061049a60048036038101906104959190612f08565b610f8d565b6040516104a79190613528565b60405180910390f35b3480156104bc57600080fd5b506104d760048036038101906104d29190613543565b6110a1565b6040516104e49190612b9a565b60405180910390f35b3480156104f957600080fd5b50610514600480360381019061050f9190612f08565b61110c565b60405161052393929190613583565b60405180910390f35b34801561053857600080fd5b50610541611144565b60405161054e9190612fbd565b60405180910390f35b34801561056357600080fd5b5061057e600480360381019061057991906135ba565b611181565b60405161058b9190612bce565b60405180910390f35b3480156105a057600080fd5b506105bb60048036038101906105b691906135fa565b6111b2565b6040516105c89190612bce565b60405180910390f35b3480156105dd57600080fd5b506105f860048036038101906105f3919061369e565b61121c565b6040516106059190612bce565b60405180910390f35b34801561061a57600080fd5b50610635600480360381019061063091906137b3565b611284565b6040516106429190612bce565b60405180910390f35b34801561065757600080fd5b5061066061158b565b60405161066d9190612bce565b60405180910390f35b34801561068257600080fd5b5061069d6004803603810190610698919061388a565b611594565b6040516106aa9190612bce565b60405180910390f35b3480156106bf57600080fd5b506106c86115aa565b6040516106d59190612bce565b60405180910390f35b3480156106ea57600080fd5b506106f36115b4565b6040516107009190612bce565b60405180910390f35b34801561071557600080fd5b50610730600480360381019061072b91906138f9565b6115b9565b60405161073d91906130cf565b60405180910390f35b34801561075257600080fd5b5061076d60048036038101906107689190612f08565b6115ce565b60405161077a9190612bce565b60405180910390f35b34801561078f57600080fd5b506107aa60048036038101906107a59190613a1e565b61163c565b005b3480156107b857600080fd5b506107d360048036038101906107ce9190613351565b61177d565b6040516107e09190612bce565b60405180910390f35b3480156107f557600080fd5b506107fe6117b9565b60405161080b9190612fbd565b60405180910390f35b34801561082057600080fd5b506108296117f6565b604051610836919061341b565b60405180910390f35b34801561084b57600080fd5b5061086660048036038101906108619190613a92565b61181a565b6040516108739190612bce565b60405180910390f35b34801561088857600080fd5b506108a3600480360381019061089e9190613ad2565b611836565b6040516108b091906130cf565b60405180910390f35b3480156108c557600080fd5b506108e060048036038101906108db9190612f08565b61184b565b6040516108ed9190612bce565b60405180910390f35b34801561090257600080fd5b5061090b61185d565b6040516109189190613bc8565b60405180910390f35b600030905090565b6000639a802a6d60e01b630342018160e01b635f398a1460e01b7f79dd796f000000000000000000000000000000000000000000000000000000001818187bffffffffffffffffffffffffffffffffffffffffffffffffffffffff1916827bffffffffffffffffffffffffffffffffffffffffffffffffffffffff19161480610a0f57507f79dd796f000000000000000000000000000000000000000000000000000000007bffffffffffffffffffffffffffffffffffffffffffffffffffffffff1916827bffffffffffffffffffffffffffffffffffffffffffffffffffffffff1916145b80610a7757507f4e2312e0000000000000000000000000000000000000000000000000000000007bffffffffffffffffffffffffffffffffffffffffffffffffffffffff1916827bffffffffffffffffffffffffffffffffffffffffffffffffffffffff1916145b80610a875750610a8682611881565b5b9050919050565b600061b2fa905090565b600080610b1b610b137fb3b3f3b703cd84ce352197dcff232b1b5d3cfb2025ce47cf04742d0651f1af888c8c8c8c604051610ad4929190613c13565b60405180910390208b80519060200120604051602001610af8959493929190613c3b565b604051602081830303815290604052805190602001206118eb565b868686611905565b9050610b6e8a828b8b8b8080601f016020809104026020016040519081016040528093929190818152602001838380828437600081840152601f19601f820116905080830192505050505050508a611930565b91505098975050505050505050565b610b85610921565b73ffffffffffffffffffffffffffffffffffffffff16610ba3611aec565b73ffffffffffffffffffffffffffffffffffffffff1614610bf9576040517f08c379a0000000000000000000000000000000000000000000000000000000008152600401610bf090613cda565b60405180910390fd5b3073ffffffffffffffffffffffffffffffffffffffff16610c18610921565b73ffffffffffffffffffffffffffffffffffffffff1614610c68576000610c3d611af4565b604051610c4b929190613c13565b604051809103902090505b80610c616002611b01565b03610c5657505b610c7181611bdd565b50565b606060008054610c8390613d29565b80601f0160208091040260200160405190810160405280929190818152602001828054610caf90613d29565b8015610cfc5780601f10610cd157610100808354040283529160200191610cfc565b820191906000526020600020905b815481529060010190602001808311610cdf57829003601f168201915b5050505050905090565b600063150b7a0260e01b9050949350505050565b600080610d298686868661177d565b90506000610d3682610f8d565b905060046007811115610d4c57610d4b6134b1565b5b816007811115610d5f57610d5e6134b1565b5b1480610d8f575060056007811115610d7a57610d796134b1565b5b816007811115610d8d57610d8c6134b1565b5b145b610dce576040517f08c379a0000000000000000000000000000000000000000000000000000000008152600401610dc590613dcc565b60405180910390fd5b600180600084815260200190815260200160002060020160006101000a81548160ff0219169083151502179055507f712ae1383f79ac853f8d882153778e0260ef8f03b504e2866e0593e04d2b291f82604051610e2b9190612bce565b60405180910390a1610e408288888888611c72565b610e4d8288888888611d55565b610e5a8288888888611e64565b8192505050949350505050565b6000610ec4600160008481526020019081526020016000206000016040518060200160405290816000820160009054906101000a900467ffffffffffffffff1667ffffffffffffffff1667ffffffffffffffff1681525050611ebf565b67ffffffffffffffff169050919050565b7fb3b3f3b703cd84ce352197dcff232b1b5d3cfb2025ce47cf04742d0651f1af8881565b60006119aa905090565b600080610f64610f5c7f150214d74d59b7d1e90c73fc22ef3d991dd0a76b046543d4d80ab92d2a50328f8989604051602001610f4193929190613dec565b604051602081830303815290604052805190602001206118eb565b868686611905565b9050610f8187828860405180602001604052806000815250611ecd565b91505095945050505050565b6000806001600084815260200190815260200160002090508060020160009054906101000a900460ff1615610fc657600791505061109c565b8060020160019054906101000a900460ff1615610fe757600291505061109c565b6000610ff284610e67565b905060008103611037576040517f08c379a000000000000000000000000000000000000000000000000000000000815260040161102e90613e6f565b60405180910390fd5b4381106110495760009250505061109c565b6000611054856115ce565b9050438110611069576001935050505061109c565b61107285611eed565b8015611083575061108285611f34565b5b15611094576004935050505061109c565b600393505050505b919050565b60006004600084815260200190815260200160002060030160008373ffffffffffffffffffffffffffffffffffffffff1673ffffffffffffffffffffffffffffffffffffffff16815260200190815260200160002060009054906101000a900460ff16905092915050565b600080600080600460008681526020019081526020016000209050806000015481600101548260020154935093509350509193909250565b60606040518060400160405280600181526020017f3100000000000000000000000000000000000000000000000000000000000000815250905090565b60008061118c611aec565b90506111a984828560405180602001604052806000815250611ecd565b91505092915050565b6000806111bd611aec565b905061121087828888888080601f016020809104026020016040519081016040528093929190818152602001838380828437600081840152601f19601f8201169050808301925050505050505087611930565b91505095945050505050565b600080611227611aec565b905061127986828787878080601f016020809104026020016040519081016040528093929190818152602001838380828437600081840152601f19601f82011690508083019250505050505050611ecd565b915050949350505050565b600061128e6115b4565b6112ab611299611aec565b6001436112a69190613ebe565b61181a565b10156112ec576040517f08c379a00000000000000000000000000000000000000000000000000000000081526004016112e390613f64565b60405180910390fd5b6000611301868686868051906020012061177d565b90508451865114611347576040517f08c379a000000000000000000000000000000000000000000000000000000000815260040161133e90613ff6565b60405180910390fd5b835186511461138b576040517f08c379a000000000000000000000000000000000000000000000000000000000815260040161138290613ff6565b60405180910390fd5b60008651116113cf576040517f08c379a00000000000000000000000000000000000000000000000000000000081526004016113c690614062565b60405180910390fd5b600060016000838152602001908152602001600020905061142f816000016040518060200160405290816000820160009054906101000a900467ffffffffffffffff1667ffffffffffffffff1667ffffffffffffffff1681525050611f5f565b61146e576040517f08c379a0000000000000000000000000000000000000000000000000000000008152600401611465906140f4565b60405180910390fd5b600061148061147b610ef9565b611f79565b61148943611f79565b6114939190614128565b905060006114a76114a2610a8e565b611f79565b826114b29190614128565b90506114ca8284600001611fd090919063ffffffff16565b6114e08184600101611fd090919063ffffffff16565b7f7d84a6263ae0d98d3329bd7b46bb4e8d6f98cd35a7adb45c274c8b7fd5ebd5e08461150a611aec565b8b8b8d5167ffffffffffffffff81111561152757611526612cc9565b5b60405190808252806020026020018201604052801561155a57816020015b60608152602001906001900390816115455790505b508c88888e60405161157499989796959493929190614545565b60405180910390a183945050505050949350505050565b60006064905090565b60006115a1848484611fff565b90509392505050565b6000600554905090565b600090565b600063bc197c8160e01b905095945050505050565b600061162b600160008481526020019081526020016000206001016040518060200160405290816000820160009054906101000a900467ffffffffffffffff1667ffffffffffffffff1667ffffffffffffffff1681525050611ebf565b67ffffffffffffffff169050919050565b611644610921565b73ffffffffffffffffffffffffffffffffffffffff16611662611aec565b73ffffffffffffffffffffffffffffffffffffffff16146116b8576040517f08c379a00000000000000000000000000000000000000000000000000000000081526004016116af90613cda565b60405180910390fd5b3073ffffffffffffffffffffffffffffffffffffffff166116d7610921565b73ffffffffffffffffffffffffffffffffffffffff16146117275760006116fc611af4565b60405161170a929190613c13565b604051809103902090505b806117206002611b01565b0361171557505b6117768483838080601f016020809104026020016040519081016040528093929190818152602001838380828437600081840152601f19601f82011690508083019250505050505050856120a6565b5050505050565b60008484848460405160200161179694939291906145f5565b6040516020818303038152906040528051906020012060001c9050949350505050565b60606040518060400160405280602081526020017f737570706f72743d627261766f2671756f72756d3d666f722c6162737461696e815250905090565b7f150214d74d59b7d1e90c73fc22ef3d991dd0a76b046543d4d80ab92d2a50328f81565b600061182e83836118296120d5565b611fff565b905092915050565b600063f23a6e6160e01b905095945050505050565b6000611856826120ec565b9050919050565b7f000000000000000000000000000000000000000000000000000000000000000081565b60007f01ffc9a7000000000000000000000000000000000000000000000000000000007bffffffffffffffffffffffffffffffffffffffffffffffffffffffff1916827bffffffffffffffffffffffffffffffffffffffffffffffffffffffff1916149050919050565b60006118fe6118f86121b3565b836122cd565b9050919050565b600080600061191687878787612300565b915091506119238161240c565b8192505050949350505050565b6000806001600088815260200190815260200160002090506001600781111561195c5761195b6134b1565b5b61196588610f8d565b6007811115611977576119766134b1565b5b146119b7576040517f08c379a00000000000000000000000000000000000000000000000000000000081526004016119ae906146c1565b60405180910390fd5b6000611a1687611a06846000016040518060200160405290816000820160009054906101000a900467ffffffffffffffff1667ffffffffffffffff1667ffffffffffffffff1681525050611ebf565b67ffffffffffffffff1686611fff565b9050611a2588888884886125d8565b6000845103611a87578673ffffffffffffffffffffffffffffffffffffffff167fb8e138887d0aa13bab447e82de9d5c1777041ecd21ca36ba824ff1e6c07ddda489888489604051611a7a94939291906146e1565b60405180910390a2611ade565b8673ffffffffffffffffffffffffffffffffffffffff167fe2babfbac5889a709b63bb7f598b324e08bc5a4fb9ec647fb3cbc9ec07eb87128988848989604051611ad5959493929190614777565b60405180910390a25b809250505095945050505050565b600033905090565b3660008036915091509091565b6000611b0c826127dc565b15611b43576040517f3db2a12a00000000000000000000000000000000000000000000000000000000815260040160405180910390fd5b60008260000160009054906101000a9004600f0b905082600101600082600f0b600f0b815260200190815260200160002054915082600101600082600f0b600f0b815260200190815260200160002060009055600181018360000160006101000a8154816fffffffffffffffffffffffffffffffff0219169083600f0b6fffffffffffffffffffffffffffffffff16021790555050919050565b611be561158b565b811115611c27576040517f08c379a0000000000000000000000000000000000000000000000000000000008152600401611c1e90614870565b60405180910390fd5b60006005549050816005819055507f0553476bf02ef2726e8ce5ced78d63e26e602e4a2257b1f559418e24b46339978183604051611c66929190614890565b60405180910390a15050565b3073ffffffffffffffffffffffffffffffffffffffff16611c91610921565b73ffffffffffffffffffffffffffffffffffffffff1614611d4e5760005b8451811015611d4c573073ffffffffffffffffffffffffffffffffffffffff16858281518110611ce257611ce16148b9565b5b602002602001015173ffffffffffffffffffffffffffffffffffffffff1603611d3b57611d3a838281518110611d1b57611d1a6148b9565b5b602002602001015180519060200120600261281190919063ffffffff16565b5b80611d45906148e8565b9050611caf565b505b5050505050565b60006040518060600160405280602781526020016150eb60279139905060005b8551811015611e5b57600080878381518110611d9457611d936148b9565b5b602002602001015173ffffffffffffffffffffffffffffffffffffffff16878481518110611dc557611dc46148b9565b5b6020026020010151878581518110611de057611ddf6148b9565b5b6020026020010151604051611df59190614961565b60006040518083038185875af1925050503d8060008114611e32576040519150601f19603f3d011682016040523d82523d6000602084013e611e37565b606091505b5091509150611e4782828661288d565b50505080611e54906148e8565b9050611d75565b50505050505050565b3073ffffffffffffffffffffffffffffffffffffffff16611e83610921565b73ffffffffffffffffffffffffffffffffffffffff1614611eb857611ea860026127dc565b611eb757611eb660026128f4565b5b5b5050505050565b600081600001519050919050565b6000611ee385858585611ede6120d5565b611930565b9050949350505050565b60008060046000848152602001908152602001600020905080600201548160010154611f199190614978565b611f2a611f2585610e67565b61184b565b1115915050919050565b6000806004600084815260200190815260200160002090508060000154816001015411915050919050565b600080826000015167ffffffffffffffff16149050919050565b600067ffffffffffffffff8016821115611fc8576040517f08c379a0000000000000000000000000000000000000000000000000000000008152600401611fbf90614a40565b60405180910390fd5b819050919050565b808260000160006101000a81548167ffffffffffffffff021916908367ffffffffffffffff1602179055505050565b60007f000000000000000000000000000000000000000000000000000000000000000073ffffffffffffffffffffffffffffffffffffffff16633a46b1a885856040518363ffffffff1660e01b815260040161205c929190614a60565b602060405180830381865afa158015612079573d6000803e3d6000fd5b505050506040513d601f19601f8201168201806040525081019061209d9190614a9e565b90509392505050565b60606120cc84848460405180606001604052806029815260200161511260299139612975565b90509392505050565b606060405180602001604052806000815250905090565b60006120f661158b565b6120fe6115aa565b7f000000000000000000000000000000000000000000000000000000000000000073ffffffffffffffffffffffffffffffffffffffff16638e539e8c856040518263ffffffff1660e01b81526004016121579190612bce565b602060405180830381865afa158015612174573d6000803e3d6000fd5b505050506040513d601f19601f820116820180604052508101906121989190614a9e565b6121a29190614acb565b6121ac9190614b54565b9050919050565b60007f000000000000000000000000000000000000000000000000000000000000000073ffffffffffffffffffffffffffffffffffffffff163073ffffffffffffffffffffffffffffffffffffffff1614801561222f57507f000000000000000000000000000000000000000000000000000000000000000046145b1561225c577f000000000000000000000000000000000000000000000000000000000000000090506122ca565b6122c77f00000000000000000000000000000000000000000000000000000000000000007f00000000000000000000000000000000000000000000000000000000000000007f0000000000000000000000000000000000000000000000000000000000000000612a89565b90505b90565b600082826040516020016122e2929190614bfd565b60405160208183030381529060405280519060200120905092915050565b6000807f7fffffffffffffffffffffffffffffff5d576e7357a4501ddfe92f46681b20a08360001c111561233b576000600391509150612403565b601b8560ff16141580156123535750601c8560ff1614155b15612365576000600491509150612403565b60006001878787876040516000815260200160405260405161238a9493929190614c34565b6020604051602081039080840390855afa1580156123ac573d6000803e3d6000fd5b505050602060405103519050600073ffffffffffffffffffffffffffffffffffffffff168173ffffffffffffffffffffffffffffffffffffffff16036123fa57600060019250925050612403565b80600092509250505b94509492505050565b600060048111156124205761241f6134b1565b5b816004811115612433576124326134b1565b5b03156125d5576001600481111561244d5761244c6134b1565b5b8160048111156124605761245f6134b1565b5b036124a0576040517f08c379a000000000000000000000000000000000000000000000000000000000815260040161249790614cc5565b60405180910390fd5b600260048111156124b4576124b36134b1565b5b8160048111156124c7576124c66134b1565b5b03612507576040517f08c379a00000000000000000000000000000000000000000000000000000000081526004016124fe90614d31565b60405180910390fd5b6003600481111561251b5761251a6134b1565b5b81600481111561252e5761252d6134b1565b5b0361256e576040517f08c379a000000000000000000000000000000000000000000000000000000000815260040161256590614dc3565b60405180910390fd5b600480811115612581576125806134b1565b5b816004811115612594576125936134b1565b5b036125d4576040517f08c379a00000000000000000000000000000000000000000000000000000000081526004016125cb90614e55565b60405180910390fd5b5b50565b60006004600087815260200190815260200160002090508060030160008673ffffffffffffffffffffffffffffffffffffffff1673ffffffffffffffffffffffffffffffffffffffff16815260200190815260200160002060009054906101000a900460ff161561267e576040517f08c379a000000000000000000000000000000000000000000000000000000000815260040161267590614ee7565b60405180910390fd5b60018160030160008773ffffffffffffffffffffffffffffffffffffffff1673ffffffffffffffffffffffffffffffffffffffff16815260200190815260200160002060006101000a81548160ff021916908315150217905550600060028111156126ec576126eb6134b1565b5b60ff168460ff1603612718578281600001600082825461270c9190614978565b925050819055506127d4565b6001600281111561272c5761272b6134b1565b5b60ff168460ff1603612758578281600101600082825461274c9190614978565b925050819055506127d3565b60028081111561276b5761276a6134b1565b5b60ff168460ff1603612797578281600201600082825461278b9190614978565b925050819055506127d2565b6040517f08c379a00000000000000000000000000000000000000000000000000000000081526004016127c990614f79565b60405180910390fd5b5b5b505050505050565b60008160000160009054906101000a9004600f0b600f0b8260000160109054906101000a9004600f0b600f0b13159050919050565b60008260000160109054906101000a9004600f0b90508183600101600083600f0b600f0b815260200190815260200160002081905550600181018360000160106101000a8154816fffffffffffffffffffffffffffffffff0219169083600f0b6fffffffffffffffffffffffffffffffff160217905550505050565b6060831561289d578290506128ed565b6000835111156128b05782518084602001fd5b816040517f08c379a00000000000000000000000000000000000000000000000000000000081526004016128e49190612fbd565b60405180910390fd5b9392505050565b60008160000160006101000a8154816fffffffffffffffffffffffffffffffff0219169083600f0b6fffffffffffffffffffffffffffffffff16021790555060008160000160106101000a8154816fffffffffffffffffffffffffffffffff0219169083600f0b6fffffffffffffffffffffffffffffffff16021790555050565b6060824710156129ba576040517f08c379a00000000000000000000000000000000000000000000000000000000081526004016129b19061500b565b60405180910390fd5b6129c385612ac3565b612a02576040517f08c379a00000000000000000000000000000000000000000000000000000000081526004016129f990615077565b60405180910390fd5b6000808673ffffffffffffffffffffffffffffffffffffffff168587604051612a2b9190614961565b60006040518083038185875af1925050503d8060008114612a68576040519150601f19603f3d011682016040523d82523d6000602084013e612a6d565b606091505b5091509150612a7d82828661288d565b92505050949350505050565b60008383834630604051602001612aa4959493929190615097565b6040516020818303038152906040528051906020012090509392505050565b6000808273ffffffffffffffffffffffffffffffffffffffff163b119050919050565b6000604051905090565b600080fd5b600080fd5b60007fffffffff0000000000000000000000000000000000000000000000000000000082169050919050565b612b2f81612afa565b8114612b3a57600080fd5b50565b600081359050612b4c81612b26565b92915050565b600060208284031215612b6857612b67612af0565b5b6000612b7684828501612b3d565b91505092915050565b60008115159050919050565b612b9481612b7f565b82525050565b6000602082019050612baf6000830184612b8b565b92915050565b6000819050919050565b612bc881612bb5565b82525050565b6000602082019050612be36000830184612bbf565b92915050565b612bf281612bb5565b8114612bfd57600080fd5b50565b600081359050612c0f81612be9565b92915050565b600060ff82169050919050565b612c2b81612c15565b8114612c3657600080fd5b50565b600081359050612c4881612c22565b92915050565b600080fd5b600080fd5b600080fd5b60008083601f840112612c7357612c72612c4e565b5b8235905067ffffffffffffffff811115612c9057612c8f612c53565b5b602083019150836001820283011115612cac57612cab612c58565b5b9250929050565b600080fd5b6000601f19601f8301169050919050565b7f4e487b7100000000000000000000000000000000000000000000000000000000600052604160045260246000fd5b612d0182612cb8565b810181811067ffffffffffffffff82111715612d2057612d1f612cc9565b5b80604052505050565b6000612d33612ae6565b9050612d3f8282612cf8565b919050565b600067ffffffffffffffff821115612d5f57612d5e612cc9565b5b612d6882612cb8565b9050602081019050919050565b82818337600083830152505050565b6000612d97612d9284612d44565b612d29565b905082815260208101848484011115612db357612db2612cb3565b5b612dbe848285612d75565b509392505050565b600082601f830112612ddb57612dda612c4e565b5b8135612deb848260208601612d84565b91505092915050565b6000819050919050565b612e0781612df4565b8114612e1257600080fd5b50565b600081359050612e2481612dfe565b92915050565b60008060008060008060008060e0898b031215612e4a57612e49612af0565b5b6000612e588b828c01612c00565b9850506020612e698b828c01612c39565b975050604089013567ffffffffffffffff811115612e8a57612e89612af5565b5b612e968b828c01612c5d565b9650965050606089013567ffffffffffffffff811115612eb957612eb8612af5565b5b612ec58b828c01612dc6565b9450506080612ed68b828c01612c39565b93505060a0612ee78b828c01612e15565b92505060c0612ef88b828c01612e15565b9150509295985092959890939650565b600060208284031215612f1e57612f1d612af0565b5b6000612f2c84828501612c00565b91505092915050565b600081519050919050565b600082825260208201905092915050565b60005b83811015612f6f578082015181840152602081019050612f54565b83811115612f7e576000848401525b50505050565b6000612f8f82612f35565b612f998185612f40565b9350612fa9818560208601612f51565b612fb281612cb8565b840191505092915050565b60006020820190508181036000830152612fd78184612f84565b905092915050565b600073ffffffffffffffffffffffffffffffffffffffff82169050919050565b600061300a82612fdf565b9050919050565b61301a81612fff565b811461302557600080fd5b50565b60008135905061303781613011565b92915050565b6000806000806080858703121561305757613056612af0565b5b600061306587828801613028565b945050602061307687828801613028565b935050604061308787828801612c00565b925050606085013567ffffffffffffffff8111156130a8576130a7612af5565b5b6130b487828801612dc6565b91505092959194509250565b6130c981612afa565b82525050565b60006020820190506130e460008301846130c0565b92915050565b600067ffffffffffffffff82111561310557613104612cc9565b5b602082029050602081019050919050565b6000613129613124846130ea565b612d29565b9050808382526020820190506020840283018581111561314c5761314b612c58565b5b835b8181101561317557806131618882613028565b84526020840193505060208101905061314e565b5050509392505050565b600082601f83011261319457613193612c4e565b5b81356131a4848260208601613116565b91505092915050565b600067ffffffffffffffff8211156131c8576131c7612cc9565b5b602082029050602081019050919050565b60006131ec6131e7846131ad565b612d29565b9050808382526020820190506020840283018581111561320f5761320e612c58565b5b835b8181101561323857806132248882612c00565b845260208401935050602081019050613211565b5050509392505050565b600082601f83011261325757613256612c4e565b5b81356132678482602086016131d9565b91505092915050565b600067ffffffffffffffff82111561328b5761328a612cc9565b5b602082029050602081019050919050565b60006132af6132aa84613270565b612d29565b905080838252602082019050602084028301858111156132d2576132d1612c58565b5b835b8181101561331957803567ffffffffffffffff8111156132f7576132f6612c4e565b5b8086016133048982612dc6565b855260208501945050506020810190506132d4565b5050509392505050565b600082601f83011261333857613337612c4e565b5b813561334884826020860161329c565b91505092915050565b6000806000806080858703121561336b5761336a612af0565b5b600085013567ffffffffffffffff81111561338957613388612af5565b5b6133958782880161317f565b945050602085013567ffffffffffffffff8111156133b6576133b5612af5565b5b6133c287828801613242565b935050604085013567ffffffffffffffff8111156133e3576133e2612af5565b5b6133ef87828801613323565b925050606061340087828801612e15565b91505092959194509250565b61341581612df4565b82525050565b6000602082019050613430600083018461340c565b92915050565b600080600080600060a0868803121561345257613451612af0565b5b600061346088828901612c00565b955050602061347188828901612c39565b945050604061348288828901612c39565b935050606061349388828901612e15565b92505060806134a488828901612e15565b9150509295509295909350565b7f4e487b7100000000000000000000000000000000000000000000000000000000600052602160045260246000fd5b600881106134f1576134f06134b1565b5b50565b6000819050613502826134e0565b919050565b6000613512826134f4565b9050919050565b61352281613507565b82525050565b600060208201905061353d6000830184613519565b92915050565b6000806040838503121561355a57613559612af0565b5b600061356885828601612c00565b925050602061357985828601613028565b9150509250929050565b60006060820190506135986000830186612bbf565b6135a56020830185612bbf565b6135b26040830184612bbf565b949350505050565b600080604083850312156135d1576135d0612af0565b5b60006135df85828601612c00565b92505060206135f085828601612c39565b9150509250929050565b60008060008060006080868803121561361657613615612af0565b5b600061362488828901612c00565b955050602061363588828901612c39565b945050604086013567ffffffffffffffff81111561365657613655612af5565b5b61366288828901612c5d565b9350935050606086013567ffffffffffffffff81111561368557613684612af5565b5b61369188828901612dc6565b9150509295509295909350565b600080600080606085870312156136b8576136b7612af0565b5b60006136c687828801612c00565b94505060206136d787828801612c39565b935050604085013567ffffffffffffffff8111156136f8576136f7612af5565b5b61370487828801612c5d565b925092505092959194509250565b600067ffffffffffffffff82111561372d5761372c612cc9565b5b61373682612cb8565b9050602081019050919050565b600061375661375184613712565b612d29565b90508281526020810184848401111561377257613771612cb3565b5b61377d848285612d75565b509392505050565b600082601f83011261379a57613799612c4e565b5b81356137aa848260208601613743565b91505092915050565b600080600080608085870312156137cd576137cc612af0565b5b600085013567ffffffffffffffff8111156137eb576137ea612af5565b5b6137f78782880161317f565b945050602085013567ffffffffffffffff81111561381857613817612af5565b5b61382487828801613242565b935050604085013567ffffffffffffffff81111561384557613844612af5565b5b61385187828801613323565b925050606085013567ffffffffffffffff81111561387257613871612af5565b5b61387e87828801613785565b91505092959194509250565b6000806000606084860312156138a3576138a2612af0565b5b60006138b186828701613028565b93505060206138c286828701612c00565b925050604084013567ffffffffffffffff8111156138e3576138e2612af5565b5b6138ef86828701612dc6565b9150509250925092565b600080600080600060a0868803121561391557613914612af0565b5b600061392388828901613028565b955050602061393488828901613028565b945050604086013567ffffffffffffffff81111561395557613954612af5565b5b61396188828901613242565b935050606086013567ffffffffffffffff81111561398257613981612af5565b5b61398e88828901613242565b925050608086013567ffffffffffffffff8111156139af576139ae612af5565b5b6139bb88828901612dc6565b9150509295509295909350565b60008083601f8401126139de576139dd612c4e565b5b8235905067ffffffffffffffff8111156139fb576139fa612c53565b5b602083019150836001820283011115613a1757613a16612c58565b5b9250929050565b60008060008060608587031215613a3857613a37612af0565b5b6000613a4687828801613028565b9450506020613a5787828801612c00565b935050604085013567ffffffffffffffff811115613a7857613a77612af5565b5b613a84878288016139c8565b925092505092959194509250565b60008060408385031215613aa957613aa8612af0565b5b6000613ab785828601613028565b9250506020613ac885828601612c00565b9150509250929050565b600080600080600060a08688031215613aee57613aed612af0565b5b6000613afc88828901613028565b9550506020613b0d88828901613028565b9450506040613b1e88828901612c00565b9350506060613b2f88828901612c00565b925050608086013567ffffffffffffffff811115613b5057613b4f612af5565b5b613b5c88828901612dc6565b9150509295509295909350565b6000819050919050565b6000613b8e613b89613b8484612fdf565b613b69565b612fdf565b9050919050565b6000613ba082613b73565b9050919050565b6000613bb282613b95565b9050919050565b613bc281613ba7565b82525050565b6000602082019050613bdd6000830184613bb9565b92915050565b600081905092915050565b6000613bfa8385613be3565b9350613c07838584612d75565b82840190509392505050565b6000613c20828486613bee565b91508190509392505050565b613c3581612c15565b82525050565b600060a082019050613c50600083018861340c565b613c5d6020830187612bbf565b613c6a6040830186613c2c565b613c77606083018561340c565b613c84608083018461340c565b9695505050505050565b7f476f7665726e6f723a206f6e6c79476f7665726e616e63650000000000000000600082015250565b6000613cc4601883612f40565b9150613ccf82613c8e565b602082019050919050565b60006020820190508181036000830152613cf381613cb7565b9050919050565b7f4e487b7100000000000000000000000000000000000000000000000000000000600052602260045260246000fd5b60006002820490506001821680613d4157607f821691505b602082108103613d5457613d53613cfa565b5b50919050565b7f476f7665726e6f723a2070726f706f73616c206e6f742073756363657373667560008201527f6c00000000000000000000000000000000000000000000000000000000000000602082015250565b6000613db6602183612f40565b9150613dc182613d5a565b604082019050919050565b60006020820190508181036000830152613de581613da9565b9050919050565b6000606082019050613e01600083018661340c565b613e0e6020830185612bbf565b613e1b6040830184613c2c565b949350505050565b7f476f7665726e6f723a20756e6b6e6f776e2070726f706f73616c206964000000600082015250565b6000613e59601d83612f40565b9150613e6482613e23565b602082019050919050565b60006020820190508181036000830152613e8881613e4c565b9050919050565b7f4e487b7100000000000000000000000000000000000000000000000000000000600052601160045260246000fd5b6000613ec982612bb5565b9150613ed483612bb5565b925082821015613ee757613ee6613e8f565b5b828203905092915050565b7f476f7665726e6f723a2070726f706f73657220766f7465732062656c6f77207060008201527f726f706f73616c207468726573686f6c64000000000000000000000000000000602082015250565b6000613f4e603183612f40565b9150613f5982613ef2565b604082019050919050565b60006020820190508181036000830152613f7d81613f41565b9050919050565b7f476f7665726e6f723a20696e76616c69642070726f706f73616c206c656e677460008201527f6800000000000000000000000000000000000000000000000000000000000000602082015250565b6000613fe0602183612f40565b9150613feb82613f84565b604082019050919050565b6000602082019050818103600083015261400f81613fd3565b9050919050565b7f476f7665726e6f723a20656d7074792070726f706f73616c0000000000000000600082015250565b600061404c601883612f40565b915061405782614016565b602082019050919050565b6000602082019050818103600083015261407b8161403f565b9050919050565b7f476f7665726e6f723a2070726f706f73616c20616c726561647920657869737460008201527f7300000000000000000000000000000000000000000000000000000000000000602082015250565b60006140de602183612f40565b91506140e982614082565b604082019050919050565b6000602082019050818103600083015261410d816140d1565b9050919050565b600067ffffffffffffffff82169050919050565b600061413382614114565b915061413e83614114565b92508267ffffffffffffffff0382111561415b5761415a613e8f565b5b828201905092915050565b61416f81612fff565b82525050565b600081519050919050565b600082825260208201905092915050565b6000819050602082019050919050565b6141aa81612fff565b82525050565b60006141bc83836141a1565b60208301905092915050565b6000602082019050919050565b60006141e082614175565b6141ea8185614180565b93506141f583614191565b8060005b8381101561422657815161420d88826141b0565b9750614218836141c8565b9250506001810190506141f9565b5085935050505092915050565b600081519050919050565b600082825260208201905092915050565b6000819050602082019050919050565b61426881612bb5565b82525050565b600061427a838361425f565b60208301905092915050565b6000602082019050919050565b600061429e82614233565b6142a8818561423e565b93506142b38361424f565b8060005b838110156142e45781516142cb888261426e565b97506142d683614286565b9250506001810190506142b7565b5085935050505092915050565b600081519050919050565b600082825260208201905092915050565b6000819050602082019050919050565b600082825260208201905092915050565b600061433982612f35565b614343818561431d565b9350614353818560208601612f51565b61435c81612cb8565b840191505092915050565b6000614373838361432e565b905092915050565b6000602082019050919050565b6000614393826142f1565b61439d81856142fc565b9350836020820285016143af8561430d565b8060005b858110156143eb57848403895281516143cc8582614367565b94506143d78361437b565b925060208a019950506001810190506143b3565b50829750879550505050505092915050565b600081519050919050565b600082825260208201905092915050565b6000819050602082019050919050565b600081519050919050565b600082825260208201905092915050565b600061445082614429565b61445a8185614434565b935061446a818560208601612f51565b61447381612cb8565b840191505092915050565b600061448a8383614445565b905092915050565b6000602082019050919050565b60006144aa826143fd565b6144b48185614408565b9350836020820285016144c685614419565b8060005b8581101561450257848403895281516144e3858261447e565b94506144ee83614492565b925060208a019950506001810190506144ca565b50829750879550505050505092915050565b600061452f61452a61452584614114565b613b69565b612bb5565b9050919050565b61453f81614514565b82525050565b60006101208201905061455b600083018c612bbf565b614568602083018b614166565b818103604083015261457a818a6141d5565b9050818103606083015261458e8189614293565b905081810360808301526145a28188614388565b905081810360a08301526145b6818761449f565b90506145c560c0830186614536565b6145d260e0830185614536565b8181036101008301526145e58184612f84565b90509a9950505050505050505050565b6000608082019050818103600083015261460f81876141d5565b905081810360208301526146238186614293565b90508181036040830152614637818561449f565b9050614646606083018461340c565b95945050505050565b7f476f7665726e6f723a20766f7465206e6f742063757272656e746c792061637460008201527f6976650000000000000000000000000000000000000000000000000000000000602082015250565b60006146ab602383612f40565b91506146b68261464f565b604082019050919050565b600060208201905081810360008301526146da8161469e565b9050919050565b60006080820190506146f66000830187612bbf565b6147036020830186613c2c565b6147106040830185612bbf565b81810360608301526147228184612f84565b905095945050505050565b600082825260208201905092915050565b600061474982614429565b614753818561472d565b9350614763818560208601612f51565b61476c81612cb8565b840191505092915050565b600060a08201905061478c6000830188612bbf565b6147996020830187613c2c565b6147a66040830186612bbf565b81810360608301526147b88185612f84565b905081810360808301526147cc818461473e565b90509695505050505050565b7f476f7665726e6f72566f74657351756f72756d4672616374696f6e3a2071756f60008201527f72756d4e756d657261746f72206f7665722071756f72756d44656e6f6d696e6160208201527f746f720000000000000000000000000000000000000000000000000000000000604082015250565b600061485a604383612f40565b9150614865826147d8565b606082019050919050565b600060208201905081810360008301526148898161484d565b9050919050565b60006040820190506148a56000830185612bbf565b6148b26020830184612bbf565b9392505050565b7f4e487b7100000000000000000000000000000000000000000000000000000000600052603260045260246000fd5b60006148f382612bb5565b91507fffffffffffffffffffffffffffffffffffffffffffffffffffffffffffffffff820361492557614924613e8f565b5b600182019050919050565b600061493b82614429565b6149458185613be3565b9350614955818560208601612f51565b80840191505092915050565b600061496d8284614930565b915081905092915050565b600061498382612bb5565b915061498e83612bb5565b9250827fffffffffffffffffffffffffffffffffffffffffffffffffffffffffffffffff038211156149c3576149c2613e8f565b5b828201905092915050565b7f53616665436173743a2076616c756520646f65736e27742066697420696e203660008201527f3420626974730000000000000000000000000000000000000000000000000000602082015250565b6000614a2a602683612f40565b9150614a35826149ce565b604082019050919050565b60006020820190508181036000830152614a5981614a1d565b9050919050565b6000604082019050614a756000830185614166565b614a826020830184612bbf565b9392505050565b600081519050614a9881612be9565b92915050565b600060208284031215614ab457614ab3612af0565b5b6000614ac284828501614a89565b91505092915050565b6000614ad682612bb5565b9150614ae183612bb5565b9250817fffffffffffffffffffffffffffffffffffffffffffffffffffffffffffffffff0483118215151615614b1a57614b19613e8f565b5b828202905092915050565b7f4e487b7100000000000000000000000000000000000000000000000000000000600052601260045260246000fd5b6000614b5f82612bb5565b9150614b6a83612bb5565b925082614b7a57614b79614b25565b5b828204905092915050565b600081905092915050565b7f1901000000000000000000000000000000000000000000000000000000000000600082015250565b6000614bc6600283614b85565b9150614bd182614b90565b600282019050919050565b6000819050919050565b614bf7614bf282612df4565b614bdc565b82525050565b6000614c0882614bb9565b9150614c148285614be6565b602082019150614c248284614be6565b6020820191508190509392505050565b6000608082019050614c49600083018761340c565b614c566020830186613c2c565b614c63604083018561340c565b614c70606083018461340c565b95945050505050565b7f45434453413a20696e76616c6964207369676e61747572650000000000000000600082015250565b6000614caf601883612f40565b9150614cba82614c79565b602082019050919050565b60006020820190508181036000830152614cde81614ca2565b9050919050565b7f45434453413a20696e76616c6964207369676e6174757265206c656e67746800600082015250565b6000614d1b601f83612f40565b9150614d2682614ce5565b602082019050919050565b60006020820190508181036000830152614d4a81614d0e565b9050919050565b7f45434453413a20696e76616c6964207369676e6174757265202773272076616c60008201527f7565000000000000000000000000000000000000000000000000000000000000602082015250565b6000614dad602283612f40565b9150614db882614d51565b604082019050919050565b60006020820190508181036000830152614ddc81614da0565b9050919050565b7f45434453413a20696e76616c6964207369676e6174757265202776272076616c60008201527f7565000000000000000000000000000000000000000000000000000000000000602082015250565b6000614e3f602283612f40565b9150614e4a82614de3565b604082019050919050565b60006020820190508181036000830152614e6e81614e32565b9050919050565b7f476f7665726e6f72566f74696e6753696d706c653a20766f746520616c72656160008201527f6479206361737400000000000000000000000000000000000000000000000000602082015250565b6000614ed1602783612f40565b9150614edc82614e75565b604082019050919050565b60006020820190508181036000830152614f0081614ec4565b9050919050565b7f476f7665726e6f72566f74696e6753696d706c653a20696e76616c696420766160008201527f6c756520666f7220656e756d20566f7465547970650000000000000000000000602082015250565b6000614f63603583612f40565b9150614f6e82614f07565b604082019050919050565b60006020820190508181036000830152614f9281614f56565b9050919050565b7f416464726573733a20696e73756666696369656e742062616c616e636520666f60008201527f722063616c6c0000000000000000000000000000000000000000000000000000602082015250565b6000614ff5602683612f40565b915061500082614f99565b604082019050919050565b6000602082019050818103600083015261502481614fe8565b9050919050565b7f416464726573733a2063616c6c20746f206e6f6e2d636f6e7472616374000000600082015250565b6000615061601d83612f40565b915061506c8261502b565b602082019050919050565b6000602082019050818103600083015261509081615054565b9050919050565b600060a0820190506150ac600083018861340c565b6150b9602083018761340c565b6150c6604083018661340c565b6150d36060830185612bbf565b6150e06080830184614166565b969550505050505056fe476f7665726e6f723a2063616c6c20726576657274656420776974686f7574206d657373616765416464726573733a206c6f772d6c6576656c2063616c6c20776974682076616c7565206661696c6564a26469706673582212205300b54b55d501dd53e86a35fbb4cd46efa3fb96e4c755352d4fdd8af94231f064736f6c634300080f0033a2646970667358221220ab208e047f681afbb25126d0d1b50cf8f7ab7833e0275f32cc7f7f63ac26692a64736f6c634300080f0033",
  "immutableReferences": {},
  "source": "// SPDX-License-Identifier: MIT\npragma solidity ^0.8.4;\n\nimport \"@openzeppelin/contracts/utils/Create2.sol\";\nimport \"../governance/Govern.sol\";\n// import \"../interfaces/EMoret.sol\";\n\ncontract GovernorFactory {\n    event ProxyCreated(address poolGov, address pool);\n\n    function deploy(bytes32 salt, address _pool) public{\n        address _a = Create2.deploy( 0, salt, abi.encodePacked(type(Govern).creationCode, abi.encode(_pool)));\n        emit ProxyCreated(_a, _pool);\n        }\n}",
  "sourcePath": "/Users/mac/Documents/GitHub/moret/contracts/pools/PoolGovernorFactory.sol",
  "compiler": {
    "name": "solc",
    "version": "0.8.15+commit.e14f2714.Emscripten.clang"
  },
  "schemaVersion": "3.4.3",
  "updatedAt": "2022-06-20T19:54:19.337Z",
  "devdoc": {
    "kind": "dev",
    "methods": {},
    "version": 1
  },
  "userdoc": {
    "kind": "user",
    "methods": {},
    "version": 1
  }
}