{
  "contractName": "Moret",
  "abi": [
    {
      "inputs": [
        {
          "internalType": "contract MoretBroker",
          "name": "_broker",
          "type": "address"
        }
      ],
      "stateMutability": "nonpayable",
      "type": "constructor"
    },
    {
      "anonymous": false,
      "inputs": [
        {
          "indexed": false,
          "internalType": "address",
          "name": "_address",
          "type": "address"
        },
        {
          "indexed": false,
          "internalType": "bool",
          "name": "_add",
          "type": "bool"
        }
      ],
      "name": "AddPool",
      "type": "event"
    },
    {
      "anonymous": false,
      "inputs": [
        {
          "indexed": true,
          "internalType": "address",
          "name": "owner",
          "type": "address"
        },
        {
          "indexed": true,
          "internalType": "address",
          "name": "spender",
          "type": "address"
        },
        {
          "indexed": false,
          "internalType": "uint256",
          "name": "value",
          "type": "uint256"
        }
      ],
      "name": "Approval",
      "type": "event"
    },
    {
      "anonymous": false,
      "inputs": [
        {
          "indexed": true,
          "internalType": "address",
          "name": "delegator",
          "type": "address"
        },
        {
          "indexed": true,
          "internalType": "address",
          "name": "fromDelegate",
          "type": "address"
        },
        {
          "indexed": true,
          "internalType": "address",
          "name": "toDelegate",
          "type": "address"
        }
      ],
      "name": "DelegateChanged",
      "type": "event"
    },
    {
      "anonymous": false,
      "inputs": [
        {
          "indexed": true,
          "internalType": "address",
          "name": "delegate",
          "type": "address"
        },
        {
          "indexed": false,
          "internalType": "uint256",
          "name": "previousBalance",
          "type": "uint256"
        },
        {
          "indexed": false,
          "internalType": "uint256",
          "name": "newBalance",
          "type": "uint256"
        }
      ],
      "name": "DelegateVotesChanged",
      "type": "event"
    },
    {
      "anonymous": false,
      "inputs": [
        {
          "indexed": false,
          "internalType": "address",
          "name": "_pool",
          "type": "address"
        },
        {
          "indexed": false,
          "internalType": "address",
          "name": "_sender",
          "type": "address"
        },
        {
          "indexed": false,
          "internalType": "uint256",
          "name": "_amount",
          "type": "uint256"
        },
        {
          "indexed": false,
          "internalType": "uint256",
          "name": "_moretAmount",
          "type": "uint256"
        }
      ],
      "name": "ExchangePoolTokens",
      "type": "event"
    },
    {
      "anonymous": false,
      "inputs": [
        {
          "indexed": true,
          "internalType": "address",
          "name": "previousOwner",
          "type": "address"
        },
        {
          "indexed": true,
          "internalType": "address",
          "name": "newOwner",
          "type": "address"
        }
      ],
      "name": "OwnershipTransferred",
      "type": "event"
    },
    {
      "anonymous": false,
      "inputs": [
        {
          "indexed": true,
          "internalType": "address",
          "name": "from",
          "type": "address"
        },
        {
          "indexed": true,
          "internalType": "address",
          "name": "to",
          "type": "address"
        },
        {
          "indexed": false,
          "internalType": "uint256",
          "name": "value",
          "type": "uint256"
        }
      ],
      "name": "Transfer",
      "type": "event"
    },
    {
      "anonymous": false,
      "inputs": [
        {
          "indexed": false,
          "internalType": "uint256",
          "name": "_fee",
          "type": "uint256"
        }
      ],
      "name": "UpdateProtocolFees",
      "type": "event"
    },
    {
      "anonymous": false,
      "inputs": [
        {
          "indexed": false,
          "internalType": "address",
          "name": "_address",
          "type": "address"
        }
      ],
      "name": "UpdateProtocolRecipient",
      "type": "event"
    },
    {
      "anonymous": false,
      "inputs": [
        {
          "indexed": false,
          "internalType": "address",
          "name": "_route",
          "type": "address"
        },
        {
          "indexed": false,
          "internalType": "bool",
          "name": "_addition",
          "type": "bool"
        }
      ],
      "name": "UpdateRoute",
      "type": "event"
    },
    {
      "anonymous": false,
      "inputs": [
        {
          "indexed": false,
          "internalType": "address",
          "name": "_underlying",
          "type": "address"
        },
        {
          "indexed": false,
          "internalType": "address",
          "name": "_oracle",
          "type": "address"
        }
      ],
      "name": "UpdateToken",
      "type": "event"
    },
    {
      "anonymous": false,
      "inputs": [
        {
          "indexed": false,
          "internalType": "address",
          "name": "_underlying",
          "type": "address"
        },
        {
          "indexed": false,
          "internalType": "uint256",
          "name": "_tenor",
          "type": "uint256"
        },
        {
          "indexed": false,
          "internalType": "address",
          "name": "_volToken",
          "type": "address"
        }
      ],
      "name": "UpdateVolToken",
      "type": "event"
    },
    {
      "anonymous": false,
      "inputs": [
        {
          "indexed": false,
          "internalType": "address",
          "name": "_address",
          "type": "address"
        },
        {
          "indexed": false,
          "internalType": "bool",
          "name": "_add",
          "type": "bool"
        }
      ],
      "name": "UpdateVolTradingPool",
      "type": "event"
    },
    {
      "anonymous": false,
      "inputs": [
        {
          "indexed": false,
          "internalType": "address",
          "name": "_pool",
          "type": "address"
        },
        {
          "indexed": false,
          "internalType": "uint256",
          "name": "_amount",
          "type": "uint256"
        }
      ],
      "name": "WithdrawPoolTokens",
      "type": "event"
    },
    {
      "inputs": [],
      "name": "DOMAIN_SEPARATOR",
      "outputs": [
        {
          "internalType": "bytes32",
          "name": "",
          "type": "bytes32"
        }
      ],
      "stateMutability": "view",
      "type": "function",
      "constant": true
    },
    {
      "inputs": [
        {
          "internalType": "address",
          "name": "owner",
          "type": "address"
        },
        {
          "internalType": "address",
          "name": "spender",
          "type": "address"
        }
      ],
      "name": "allowance",
      "outputs": [
        {
          "internalType": "uint256",
          "name": "",
          "type": "uint256"
        }
      ],
      "stateMutability": "view",
      "type": "function",
      "constant": true
    },
    {
      "inputs": [
        {
          "internalType": "address",
          "name": "spender",
          "type": "address"
        },
        {
          "internalType": "uint256",
          "name": "amount",
          "type": "uint256"
        }
      ],
      "name": "approve",
      "outputs": [
        {
          "internalType": "bool",
          "name": "",
          "type": "bool"
        }
      ],
      "stateMutability": "nonpayable",
      "type": "function"
    },
    {
      "inputs": [
        {
          "internalType": "address",
          "name": "account",
          "type": "address"
        }
      ],
      "name": "balanceOf",
      "outputs": [
        {
          "internalType": "uint256",
          "name": "",
          "type": "uint256"
        }
      ],
      "stateMutability": "view",
      "type": "function",
      "constant": true
    },
    {
      "inputs": [],
      "name": "broker",
      "outputs": [
        {
          "internalType": "contract MoretBroker",
          "name": "",
          "type": "address"
        }
      ],
      "stateMutability": "view",
      "type": "function",
      "constant": true
    },
    {
      "inputs": [
        {
          "internalType": "address",
          "name": "account",
          "type": "address"
        },
        {
          "internalType": "uint32",
          "name": "pos",
          "type": "uint32"
        }
      ],
      "name": "checkpoints",
      "outputs": [
        {
          "components": [
            {
              "internalType": "uint32",
              "name": "fromBlock",
              "type": "uint32"
            },
            {
              "internalType": "uint224",
              "name": "votes",
              "type": "uint224"
            }
          ],
          "internalType": "struct ERC20Votes.Checkpoint",
          "name": "",
          "type": "tuple"
        }
      ],
      "stateMutability": "view",
      "type": "function",
      "constant": true
    },
    {
      "inputs": [],
      "name": "decimals",
      "outputs": [
        {
          "internalType": "uint8",
          "name": "",
          "type": "uint8"
        }
      ],
      "stateMutability": "view",
      "type": "function",
      "constant": true
    },
    {
      "inputs": [
        {
          "internalType": "address",
          "name": "spender",
          "type": "address"
        },
        {
          "internalType": "uint256",
          "name": "subtractedValue",
          "type": "uint256"
        }
      ],
      "name": "decreaseAllowance",
      "outputs": [
        {
          "internalType": "bool",
          "name": "",
          "type": "bool"
        }
      ],
      "stateMutability": "nonpayable",
      "type": "function"
    },
    {
      "inputs": [
        {
          "internalType": "address",
          "name": "delegatee",
          "type": "address"
        }
      ],
      "name": "delegate",
      "outputs": [],
      "stateMutability": "nonpayable",
      "type": "function"
    },
    {
      "inputs": [
        {
          "internalType": "address",
          "name": "delegatee",
          "type": "address"
        },
        {
          "internalType": "uint256",
          "name": "nonce",
          "type": "uint256"
        },
        {
          "internalType": "uint256",
          "name": "expiry",
          "type": "uint256"
        },
        {
          "internalType": "uint8",
          "name": "v",
          "type": "uint8"
        },
        {
          "internalType": "bytes32",
          "name": "r",
          "type": "bytes32"
        },
        {
          "internalType": "bytes32",
          "name": "s",
          "type": "bytes32"
        }
      ],
      "name": "delegateBySig",
      "outputs": [],
      "stateMutability": "nonpayable",
      "type": "function"
    },
    {
      "inputs": [
        {
          "internalType": "address",
          "name": "account",
          "type": "address"
        }
      ],
      "name": "delegates",
      "outputs": [
        {
          "internalType": "address",
          "name": "",
          "type": "address"
        }
      ],
      "stateMutability": "view",
      "type": "function",
      "constant": true
    },
    {
      "inputs": [
        {
          "internalType": "uint256",
          "name": "blockNumber",
          "type": "uint256"
        }
      ],
      "name": "getPastTotalSupply",
      "outputs": [
        {
          "internalType": "uint256",
          "name": "",
          "type": "uint256"
        }
      ],
      "stateMutability": "view",
      "type": "function",
      "constant": true
    },
    {
      "inputs": [
        {
          "internalType": "address",
          "name": "account",
          "type": "address"
        },
        {
          "internalType": "uint256",
          "name": "blockNumber",
          "type": "uint256"
        }
      ],
      "name": "getPastVotes",
      "outputs": [
        {
          "internalType": "uint256",
          "name": "",
          "type": "uint256"
        }
      ],
      "stateMutability": "view",
      "type": "function",
      "constant": true
    },
    {
      "inputs": [
        {
          "internalType": "address",
          "name": "account",
          "type": "address"
        }
      ],
      "name": "getVotes",
      "outputs": [
        {
          "internalType": "uint256",
          "name": "",
          "type": "uint256"
        }
      ],
      "stateMutability": "view",
      "type": "function",
      "constant": true
    },
    {
      "inputs": [
        {
          "internalType": "address",
          "name": "spender",
          "type": "address"
        },
        {
          "internalType": "uint256",
          "name": "addedValue",
          "type": "uint256"
        }
      ],
      "name": "increaseAllowance",
      "outputs": [
        {
          "internalType": "bool",
          "name": "",
          "type": "bool"
        }
      ],
      "stateMutability": "nonpayable",
      "type": "function"
    },
    {
      "inputs": [],
      "name": "name",
      "outputs": [
        {
          "internalType": "string",
          "name": "",
          "type": "string"
        }
      ],
      "stateMutability": "view",
      "type": "function",
      "constant": true
    },
    {
      "inputs": [
        {
          "internalType": "address",
          "name": "owner",
          "type": "address"
        }
      ],
      "name": "nonces",
      "outputs": [
        {
          "internalType": "uint256",
          "name": "",
          "type": "uint256"
        }
      ],
      "stateMutability": "view",
      "type": "function",
      "constant": true
    },
    {
      "inputs": [
        {
          "internalType": "address",
          "name": "account",
          "type": "address"
        }
      ],
      "name": "numCheckpoints",
      "outputs": [
        {
          "internalType": "uint32",
          "name": "",
          "type": "uint32"
        }
      ],
      "stateMutability": "view",
      "type": "function",
      "constant": true
    },
    {
      "inputs": [],
      "name": "owner",
      "outputs": [
        {
          "internalType": "address",
          "name": "",
          "type": "address"
        }
      ],
      "stateMutability": "view",
      "type": "function",
      "constant": true
    },
    {
      "inputs": [
        {
          "internalType": "address",
          "name": "owner",
          "type": "address"
        },
        {
          "internalType": "address",
          "name": "spender",
          "type": "address"
        },
        {
          "internalType": "uint256",
          "name": "value",
          "type": "uint256"
        },
        {
          "internalType": "uint256",
          "name": "deadline",
          "type": "uint256"
        },
        {
          "internalType": "uint8",
          "name": "v",
          "type": "uint8"
        },
        {
          "internalType": "bytes32",
          "name": "r",
          "type": "bytes32"
        },
        {
          "internalType": "bytes32",
          "name": "s",
          "type": "bytes32"
        }
      ],
      "name": "permit",
      "outputs": [],
      "stateMutability": "nonpayable",
      "type": "function"
    },
    {
      "inputs": [],
      "name": "protocolFee",
      "outputs": [
        {
          "internalType": "uint256",
          "name": "",
          "type": "uint256"
        }
      ],
      "stateMutability": "view",
      "type": "function",
      "constant": true
    },
    {
      "inputs": [],
      "name": "protocolFeeRecipient",
      "outputs": [
        {
          "internalType": "address",
          "name": "",
          "type": "address"
        }
      ],
      "stateMutability": "view",
      "type": "function",
      "constant": true
    },
    {
      "inputs": [],
      "name": "renounceOwnership",
      "outputs": [],
      "stateMutability": "nonpayable",
      "type": "function"
    },
    {
      "inputs": [],
      "name": "symbol",
      "outputs": [
        {
          "internalType": "string",
          "name": "",
          "type": "string"
        }
      ],
      "stateMutability": "view",
      "type": "function",
      "constant": true
    },
    {
      "inputs": [],
      "name": "totalSupply",
      "outputs": [
        {
          "internalType": "uint256",
          "name": "",
          "type": "uint256"
        }
      ],
      "stateMutability": "view",
      "type": "function",
      "constant": true
    },
    {
      "inputs": [
        {
          "internalType": "address",
          "name": "to",
          "type": "address"
        },
        {
          "internalType": "uint256",
          "name": "amount",
          "type": "uint256"
        }
      ],
      "name": "transfer",
      "outputs": [
        {
          "internalType": "bool",
          "name": "",
          "type": "bool"
        }
      ],
      "stateMutability": "nonpayable",
      "type": "function"
    },
    {
      "inputs": [
        {
          "internalType": "address",
          "name": "from",
          "type": "address"
        },
        {
          "internalType": "address",
          "name": "to",
          "type": "address"
        },
        {
          "internalType": "uint256",
          "name": "amount",
          "type": "uint256"
        }
      ],
      "name": "transferFrom",
      "outputs": [
        {
          "internalType": "bool",
          "name": "",
          "type": "bool"
        }
      ],
      "stateMutability": "nonpayable",
      "type": "function"
    },
    {
      "inputs": [
        {
          "internalType": "address",
          "name": "newOwner",
          "type": "address"
        }
      ],
      "name": "transferOwnership",
      "outputs": [],
      "stateMutability": "nonpayable",
      "type": "function"
    },
    {
      "inputs": [
        {
          "internalType": "address",
          "name": "_to",
          "type": "address"
        },
        {
          "internalType": "uint256",
          "name": "_amount",
          "type": "uint256"
        }
      ],
      "name": "mint",
      "outputs": [],
      "stateMutability": "nonpayable",
      "type": "function"
    },
    {
      "inputs": [
        {
          "internalType": "uint256",
          "name": "_amount",
          "type": "uint256"
        }
      ],
      "name": "divest",
      "outputs": [],
      "stateMutability": "nonpayable",
      "type": "function"
    },
    {
      "inputs": [
        {
          "internalType": "contract Pool",
          "name": "_pool",
          "type": "address"
        },
        {
          "internalType": "uint256",
          "name": "_amount",
          "type": "uint256"
        }
      ],
      "name": "withdraw",
      "outputs": [],
      "stateMutability": "nonpayable",
      "type": "function"
    },
    {
      "inputs": [
        {
          "internalType": "uint256",
          "name": "_newFee",
          "type": "uint256"
        }
      ],
      "name": "setProtocolFee",
      "outputs": [],
      "stateMutability": "nonpayable",
      "type": "function"
    },
    {
      "inputs": [
        {
          "internalType": "address",
          "name": "_newAddress",
          "type": "address"
        }
      ],
      "name": "setProtocolRecipient",
      "outputs": [],
      "stateMutability": "nonpayable",
      "type": "function"
    },
    {
      "inputs": [
        {
          "internalType": "address",
          "name": "_underlyingAddress",
          "type": "address"
        },
        {
          "internalType": "contract VolatilityChain",
          "name": "_newOracle",
          "type": "address"
        }
      ],
      "name": "updateVolChain",
      "outputs": [],
      "stateMutability": "nonpayable",
      "type": "function"
    },
    {
      "inputs": [
        {
          "internalType": "address",
          "name": "_underlyingAddress",
          "type": "address"
        }
      ],
      "name": "getVolatilityChain",
      "outputs": [
        {
          "internalType": "contract VolatilityChain",
          "name": "",
          "type": "address"
        }
      ],
      "stateMutability": "view",
      "type": "function",
      "constant": true
    },
    {
      "inputs": [
        {
          "internalType": "address",
          "name": "_underlyingAddress",
          "type": "address"
        },
        {
          "internalType": "uint256",
          "name": "_tenor",
          "type": "uint256"
        },
        {
          "internalType": "contract VolatilityToken",
          "name": "_volToken",
          "type": "address"
        }
      ],
      "name": "updateVolToken",
      "outputs": [],
      "stateMutability": "nonpayable",
      "type": "function"
    },
    {
      "inputs": [
        {
          "internalType": "address",
          "name": "_underlyingAddress",
          "type": "address"
        },
        {
          "internalType": "uint256",
          "name": "_tenor",
          "type": "uint256"
        }
      ],
      "name": "getVolatilityToken",
      "outputs": [
        {
          "internalType": "contract VolatilityToken",
          "name": "",
          "type": "address"
        }
      ],
      "stateMutability": "view",
      "type": "function",
      "constant": true
    },
    {
      "inputs": [
        {
          "internalType": "address",
          "name": "_route",
          "type": "address"
        },
        {
          "internalType": "bool",
          "name": "_add",
          "type": "bool"
        }
      ],
      "name": "updateEligibleRoute",
      "outputs": [
        {
          "internalType": "bool",
          "name": "_result",
          "type": "bool"
        }
      ],
      "stateMutability": "nonpayable",
      "type": "function"
    },
    {
      "inputs": [
        {
          "internalType": "address",
          "name": "_route",
          "type": "address"
        }
      ],
      "name": "existEligibleRoute",
      "outputs": [
        {
          "internalType": "bool",
          "name": "",
          "type": "bool"
        }
      ],
      "stateMutability": "view",
      "type": "function",
      "constant": true
    },
    {
      "inputs": [
        {
          "internalType": "address",
          "name": "_poolAddress",
          "type": "address"
        },
        {
          "internalType": "bool",
          "name": "_add",
          "type": "bool"
        }
      ],
      "name": "updateVolTradingPool",
      "outputs": [
        {
          "internalType": "bool",
          "name": "_result",
          "type": "bool"
        }
      ],
      "stateMutability": "nonpayable",
      "type": "function"
    },
    {
      "inputs": [
        {
          "internalType": "address",
          "name": "_poolAddress",
          "type": "address"
        }
      ],
      "name": "existVolTradingPool",
      "outputs": [
        {
          "internalType": "bool",
          "name": "",
          "type": "bool"
        }
      ],
      "stateMutability": "view",
      "type": "function",
      "constant": true
    }
  ],
  "bytecode": "0x610140604052662386f26fc100006013553480156200001d57600080fd5b506040516200747338038062007473833981810160405281019062000043919062000d6a565b6040518060400160405280600581526020017f4d6f726574000000000000000000000000000000000000000000000000000000815250806040518060400160405280600181526020017f31000000000000000000000000000000000000000000000000000000000000008152506040518060400160405280600581526020017f4d6f7265740000000000000000000000000000000000000000000000000000008152506040518060400160405280600381526020017f4d4f52000000000000000000000000000000000000000000000000000000000081525081600390816200012d919062001016565b5080600490816200013f919062001016565b5050506200016262000156620002bb60201b60201c565b620002c360201b60201c565b60008280519060200120905060008280519060200120905060007f8b73c3c69bb8fe3d512ecc4cf759cc79239f7b179b0ffacaa9a75d522b39400f90508260e081815250508161010081815250504660a08181525050620001cb8184846200038960201b60201c565b608081815250503073ffffffffffffffffffffffffffffffffffffffff1660c08173ffffffffffffffffffffffffffffffffffffffff168152505080610120818152505050505050505080601560006101000a81548173ffffffffffffffffffffffffffffffffffffffff021916908373ffffffffffffffffffffffffffffffffffffffff16021790555062000273336a52b7d2dcc80cd2e4000000620003c560201b60201c565b33601460006101000a81548173ffffffffffffffffffffffffffffffffffffffff021916908373ffffffffffffffffffffffffffffffffffffffff1602179055505062001500565b600033905090565b6000600560009054906101000a900473ffffffffffffffffffffffffffffffffffffffff16905081600560006101000a81548173ffffffffffffffffffffffffffffffffffffffff021916908373ffffffffffffffffffffffffffffffffffffffff1602179055508173ffffffffffffffffffffffffffffffffffffffff168173ffffffffffffffffffffffffffffffffffffffff167f8be0079c531659141344cd1fd0a4f28419497f9722a3daafe3b4186f6b6457e060405160405180910390a35050565b60008383834630604051602001620003a69594939291906200113a565b6040516020818303038152906040528051906020012090509392505050565b620003dc8282620003e060201b620025de1760201c565b5050565b620003f782826200049e60201b6200266b1760201c565b620004076200061660201b60201c565b7bffffffffffffffffffffffffffffffffffffffffffffffffffffffff16620004356200063a60201b60201c565b111562000479576040517f08c379a000000000000000000000000000000000000000000000000000000000815260040162000470906200121e565b60405180910390fd5b62000498600a6200064460201b620027ca17836200065c60201b60201c565b50505050565b600073ffffffffffffffffffffffffffffffffffffffff168273ffffffffffffffffffffffffffffffffffffffff160362000510576040517f08c379a0000000000000000000000000000000000000000000000000000000008152600401620005079062001290565b60405180910390fd5b62000524600083836200090d60201b60201c565b8060026000828254620005389190620012e1565b92505081905550806000808473ffffffffffffffffffffffffffffffffffffffff1673ffffffffffffffffffffffffffffffffffffffff16815260200190815260200160002060008282546200058f9190620012e1565b925050819055508173ffffffffffffffffffffffffffffffffffffffff16600073ffffffffffffffffffffffffffffffffffffffff167fddf252ad1be2c89b69c2b068fc378daa952ba7f163c4a11628f55a4df523b3ef83604051620005f691906200131c565b60405180910390a362000612600083836200091260201b60201c565b5050565b60007bffffffffffffffffffffffffffffffffffffffffffffffffffffffff905090565b6000600254905090565b60008183620006549190620012e1565b905092915050565b60008060008580549050905060008114620006d1578560018262000681919062001339565b8154811062000695576200069462001374565b5b9060005260206000200160000160049054906101000a90047bffffffffffffffffffffffffffffffffffffffffffffffffffffffff16620006d4565b60005b7bffffffffffffffffffffffffffffffffffffffffffffffffffffffff1692506200070083858760201c565b915060008111801562000759575043866001836200071f919062001339565b8154811062000733576200073262001374565b5b9060005260206000200160000160009054906101000a900463ffffffff1663ffffffff16145b15620007fa5762000775826200092f60201b620027e01760201c565b8660018362000785919062001339565b8154811062000799576200079862001374565b5b9060005260206000200160000160046101000a8154817bffffffffffffffffffffffffffffffffffffffffffffffffffffffff02191690837bffffffffffffffffffffffffffffffffffffffffffffffffffffffff16021790555062000904565b8560405180604001604052806200081c436200099d60201b6200284b1760201c565b63ffffffff1681526020016200083d856200092f60201b620027e01760201c565b7bffffffffffffffffffffffffffffffffffffffffffffffffffffffff168152509080600181540180825580915050600190039060005260206000200160009091909190915060008201518160000160006101000a81548163ffffffff021916908363ffffffff16021790555060208201518160000160046101000a8154817bffffffffffffffffffffffffffffffffffffffffffffffffffffffff02191690837bffffffffffffffffffffffffffffffffffffffffffffffffffffffff16021790555050505b50935093915050565b505050565b6200092a838383620009f360201b6200289e1760201c565b505050565b60007bffffffffffffffffffffffffffffffffffffffffffffffffffffffff801682111562000995576040517f08c379a00000000000000000000000000000000000000000000000000000000081526004016200098c9062001419565b60405180910390fd5b819050919050565b600063ffffffff8016821115620009eb576040517f08c379a0000000000000000000000000000000000000000000000000000000008152600401620009e290620014b1565b60405180910390fd5b819050919050565b62000a0b83838362000a4360201b620028c91760201c565b62000a3e62000a208462000a4860201b60201c565b62000a318462000a4860201b60201c565b8362000ab160201b60201c565b505050565b505050565b6000600860008373ffffffffffffffffffffffffffffffffffffffff1673ffffffffffffffffffffffffffffffffffffffff16815260200190815260200160002060009054906101000a900473ffffffffffffffffffffffffffffffffffffffff169050919050565b8173ffffffffffffffffffffffffffffffffffffffff168373ffffffffffffffffffffffffffffffffffffffff161415801562000aee5750600081115b1562000ccf57600073ffffffffffffffffffffffffffffffffffffffff168373ffffffffffffffffffffffffffffffffffffffff161462000be15760008062000b88600960008773ffffffffffffffffffffffffffffffffffffffff1673ffffffffffffffffffffffffffffffffffffffff16815260200190815260200160002062000cd460201b620028ce17856200065c60201b60201c565b915091508473ffffffffffffffffffffffffffffffffffffffff167fdec2bacdd2f05b59de34da9b523dff8be42e5e38e818c82fdb0bae774387a724838360405162000bd6929190620014d3565b60405180910390a250505b600073ffffffffffffffffffffffffffffffffffffffff168273ffffffffffffffffffffffffffffffffffffffff161462000cce5760008062000c75600960008673ffffffffffffffffffffffffffffffffffffffff1673ffffffffffffffffffffffffffffffffffffffff1681526020019081526020016000206200064460201b620027ca17856200065c60201b60201c565b915091508373ffffffffffffffffffffffffffffffffffffffff167fdec2bacdd2f05b59de34da9b523dff8be42e5e38e818c82fdb0bae774387a724838360405162000cc3929190620014d3565b60405180910390a250505b5b505050565b6000818362000ce4919062001339565b905092915050565b600080fd5b600073ffffffffffffffffffffffffffffffffffffffff82169050919050565b600062000d1e8262000cf1565b9050919050565b600062000d328262000d11565b9050919050565b62000d448162000d25565b811462000d5057600080fd5b50565b60008151905062000d648162000d39565b92915050565b60006020828403121562000d835762000d8262000cec565b5b600062000d938482850162000d53565b91505092915050565b600081519050919050565b7f4e487b7100000000000000000000000000000000000000000000000000000000600052604160045260246000fd5b7f4e487b7100000000000000000000000000000000000000000000000000000000600052602260045260246000fd5b6000600282049050600182168062000e1e57607f821691505b60208210810362000e345762000e3362000dd6565b5b50919050565b60008190508160005260206000209050919050565b60006020601f8301049050919050565b600082821b905092915050565b60006008830262000e9e7fffffffffffffffffffffffffffffffffffffffffffffffffffffffffffffffff8262000e5f565b62000eaa868362000e5f565b95508019841693508086168417925050509392505050565b6000819050919050565b6000819050919050565b600062000ef762000ef162000eeb8462000ec2565b62000ecc565b62000ec2565b9050919050565b6000819050919050565b62000f138362000ed6565b62000f2b62000f228262000efe565b84845462000e6c565b825550505050565b600090565b62000f4262000f33565b62000f4f81848462000f08565b505050565b5b8181101562000f775762000f6b60008262000f38565b60018101905062000f55565b5050565b601f82111562000fc65762000f908162000e3a565b62000f9b8462000e4f565b8101602085101562000fab578190505b62000fc362000fba8562000e4f565b83018262000f54565b50505b505050565b600082821c905092915050565b600062000feb6000198460080262000fcb565b1980831691505092915050565b600062001006838362000fd8565b9150826002028217905092915050565b620010218262000d9c565b67ffffffffffffffff8111156200103d576200103c62000da7565b5b62001049825462000e05565b6200105682828562000f7b565b600060209050601f8311600181146200108e576000841562001079578287015190505b62001085858262000ff8565b865550620010f5565b601f1984166200109e8662000e3a565b60005b82811015620010c857848901518255600182019150602085019450602081019050620010a1565b86831015620010e85784890151620010e4601f89168262000fd8565b8355505b6001600288020188555050505b505050505050565b6000819050919050565b6200111281620010fd565b82525050565b620011238162000ec2565b82525050565b620011348162000d11565b82525050565b600060a08201905062001151600083018862001107565b62001160602083018762001107565b6200116f604083018662001107565b6200117e606083018562001118565b6200118d608083018462001129565b9695505050505050565b600082825260208201905092915050565b7f4552433230566f7465733a20746f74616c20737570706c79207269736b73206f60008201527f766572666c6f77696e6720766f74657300000000000000000000000000000000602082015250565b60006200120660308362001197565b91506200121382620011a8565b604082019050919050565b600060208201905081810360008301526200123981620011f7565b9050919050565b7f45524332303a206d696e7420746f20746865207a65726f206164647265737300600082015250565b600062001278601f8362001197565b9150620012858262001240565b602082019050919050565b60006020820190508181036000830152620012ab8162001269565b9050919050565b7f4e487b7100000000000000000000000000000000000000000000000000000000600052601160045260246000fd5b6000620012ee8262000ec2565b9150620012fb8362000ec2565b9250828201905080821115620013165762001315620012b2565b5b92915050565b600060208201905062001333600083018462001118565b92915050565b6000620013468262000ec2565b9150620013538362000ec2565b92508282039050818111156200136e576200136d620012b2565b5b92915050565b7f4e487b7100000000000000000000000000000000000000000000000000000000600052603260045260246000fd5b7f53616665436173743a2076616c756520646f65736e27742066697420696e203260008201527f3234206269747300000000000000000000000000000000000000000000000000602082015250565b60006200140160278362001197565b91506200140e82620013a3565b604082019050919050565b600060208201905081810360008301526200143481620013f2565b9050919050565b7f53616665436173743a2076616c756520646f65736e27742066697420696e203360008201527f3220626974730000000000000000000000000000000000000000000000000000602082015250565b60006200149960268362001197565b9150620014a6826200143b565b604082019050919050565b60006020820190508181036000830152620014cc816200148a565b9050919050565b6000604082019050620014ea600083018562001118565b620014f9602083018462001118565b9392505050565b60805160a05160c05160e0516101005161012051615f23620015506000396000612e9e01526000612ee001526000612ebf01526000612df401526000612e4a01526000612e730152615f236000f3fe608060405234801561001057600080fd5b50600436106102535760003560e01c80637ecebe0011610146578063b0e21e8a116100c3578063dd62ed3e11610087578063dd62ed3e14610780578063edabed8f146107b0578063ef5ddd3a146107cc578063f1127ed8146107fc578063f2fde38b1461082c578063f3fef3a31461084857610253565b8063b0e21e8a146106de578063bb3260e4146106fc578063c3cda52014610718578063d505accf14610734578063d5fb0a2a1461075057610253565b806395d89b411161010a57806395d89b41146106125780639ab24eb014610630578063a457c2d714610660578063a9059cbb14610690578063abff0110146106c057610253565b80637ecebe00146105485780638ca17995146105785780638da5cb5b146105945780638e539e8c146105b257806391d0094c146105e257610253565b80633a46b1a8116101d45780636cce8916116101985780636cce8916146104925780636fcfff45146104c257806370a08231146104f2578063715018a614610522578063787dce3d1461052c57610253565b80633a46b1a8146103dc57806340c10f191461040c578063587cde1e146104285780635c19a95c1461045857806364df049e1461047457610253565b806323b872dd1161021b57806323b872dd14610310578063255fdcff14610340578063313ce567146103705780633644e5151461038e57806339509351146103ac57610253565b806306fdde031461025857806307ba8a5414610276578063095ea7b31461029257806315dc2e9d146102c257806318160ddd146102f2575b600080fd5b610260610864565b60405161026d91906140f0565b60405180910390f35b610290600480360381019061028b9190614175565b6108f6565b005b6102ac60048036038101906102a791906141d8565b610a5c565b6040516102b99190614233565b60405180910390f35b6102dc60048036038101906102d79190614175565b610a7f565b6040516102e991906142ad565b60405180910390f35b6102fa610bb5565b60405161030791906142d7565b60405180910390f35b61032a600480360381019061032591906142f2565b610bbf565b6040516103379190614233565b60405180910390f35b61035a60048036038101906103559190614175565b610bee565b6040516103679190614233565b60405180910390f35b610378610c0b565b6040516103859190614361565b60405180910390f35b610396610c14565b6040516103a39190614395565b60405180910390f35b6103c660048036038101906103c191906141d8565b610c23565b6040516103d39190614233565b60405180910390f35b6103f660048036038101906103f191906141d8565b610c5a565b60405161040391906142d7565b60405180910390f35b610426600480360381019061042191906141d8565b610cee565b005b610442600480360381019061043d9190614175565b610d8c565b60405161044f91906143bf565b60405180910390f35b610472600480360381019061046d9190614175565b610df5565b005b61047c610e09565b60405161048991906143bf565b60405180910390f35b6104ac60048036038101906104a791906141d8565b610e2f565b6040516104b991906143fb565b60405180910390f35b6104dc60048036038101906104d79190614175565b610ed4565b6040516104e99190614435565b60405180910390f35b61050c60048036038101906105079190614175565b610f28565b60405161051991906142d7565b60405180910390f35b61052a610f70565b005b61054660048036038101906105419190614450565b610ff8565b005b610562600480360381019061055d9190614175565b6110b5565b60405161056f91906142d7565b60405180910390f35b610592600480360381019061058d9190614450565b611105565b005b61059c6113b4565b6040516105a991906143bf565b60405180910390f35b6105cc60048036038101906105c79190614450565b6113de565b6040516105d991906142d7565b60405180910390f35b6105fc60048036038101906105f791906144a9565b611434565b6040516106099190614233565b60405180910390f35b61061a61155f565b60405161062791906140f0565b60405180910390f35b61064a60048036038101906106459190614175565b6115f1565b60405161065791906142d7565b60405180910390f35b61067a600480360381019061067591906141d8565b611702565b6040516106879190614233565b60405180910390f35b6106aa60048036038101906106a591906141d8565b611779565b6040516106b79190614233565b60405180910390f35b6106c861179c565b6040516106d5919061450a565b60405180910390f35b6106e66117c2565b6040516106f391906142d7565b60405180910390f35b61071660048036038101906107119190614563565b6117c8565b005b610732600480360381019061072d91906145fb565b611963565b005b61074e60048036038101906107499190614688565b611a67565b005b61076a60048036038101906107659190614175565b611ba9565b6040516107779190614233565b60405180910390f35b61079a6004803603810190610795919061472a565b611bc6565b6040516107a791906142d7565b60405180910390f35b6107ca60048036038101906107c591906147a8565b611c4d565b005b6107e660048036038101906107e191906144a9565b611fac565b6040516107f39190614233565b60405180910390f35b61081660048036038101906108119190614827565b6120d7565b60405161082391906148dc565b60405180910390f35b61084660048036038101906108419190614175565b6121e7565b005b610862600480360381019061085d9190614935565b6122de565b005b606060038054610873906149a4565b80601f016020809104026020016040519081016040528092919081815260200182805461089f906149a4565b80156108ec5780601f106108c1576101008083540402835291602001916108ec565b820191906000526020600020905b8154815290600101906020018083116108cf57829003601f168201915b5050505050905090565b6108fe6128e4565b73ffffffffffffffffffffffffffffffffffffffff1661091c6113b4565b73ffffffffffffffffffffffffffffffffffffffff1614610972576040517f08c379a000000000000000000000000000000000000000000000000000000000815260040161096990614a21565b60405180910390fd5b600073ffffffffffffffffffffffffffffffffffffffff168173ffffffffffffffffffffffffffffffffffffffff16036109e1576040517f08c379a00000000000000000000000000000000000000000000000000000000081526004016109d890614a8d565b60405180910390fd5b80601460006101000a81548173ffffffffffffffffffffffffffffffffffffffff021916908373ffffffffffffffffffffffffffffffffffffffff1602179055507fa9f75cf2de5b15a98bd567e6444126e0547c957be825eea50c05fdf78ba59f1e81604051610a5191906143bf565b60405180910390a150565b600080610a676128e4565b9050610a748185856128ec565b600191505092915050565b60008073ffffffffffffffffffffffffffffffffffffffff16600d60008473ffffffffffffffffffffffffffffffffffffffff1673ffffffffffffffffffffffffffffffffffffffff16815260200190815260200160002060009054906101000a900473ffffffffffffffffffffffffffffffffffffffff1673ffffffffffffffffffffffffffffffffffffffff1603610b4e576040517f08c379a0000000000000000000000000000000000000000000000000000000008152600401610b4590614af9565b60405180910390fd5b600d60008373ffffffffffffffffffffffffffffffffffffffff1673ffffffffffffffffffffffffffffffffffffffff16815260200190815260200160002060009054906101000a900473ffffffffffffffffffffffffffffffffffffffff169050919050565b6000600254905090565b600080610bca6128e4565b9050610bd7858285612ab5565b610be2858585612b41565b60019150509392505050565b6000610c04826011612dc090919063ffffffff16565b9050919050565b60006012905090565b6000610c1e612df0565b905090565b600080610c2e6128e4565b9050610c4f818585610c408589611bc6565b610c4a9190614b48565b6128ec565b600191505092915050565b6000438210610c9e576040517f08c379a0000000000000000000000000000000000000000000000000000000008152600401610c9590614bc8565b60405180910390fd5b610ce6600960008573ffffffffffffffffffffffffffffffffffffffff1673ffffffffffffffffffffffffffffffffffffffff16815260200190815260200160002083612f0a565b905092915050565b3373ffffffffffffffffffffffffffffffffffffffff16601560009054906101000a900473ffffffffffffffffffffffffffffffffffffffff1673ffffffffffffffffffffffffffffffffffffffff1614610d7e576040517f08c379a0000000000000000000000000000000000000000000000000000000008152600401610d7590614c34565b60405180910390fd5b610d888282613016565b5050565b6000600860008373ffffffffffffffffffffffffffffffffffffffff1673ffffffffffffffffffffffffffffffffffffffff16815260200190815260200160002060009054906101000a900473ffffffffffffffffffffffffffffffffffffffff169050919050565b610e06610e006128e4565b82613024565b50565b601460009054906101000a900473ffffffffffffffffffffffffffffffffffffffff1681565b6000806000610e8584600e60008873ffffffffffffffffffffffffffffffffffffffff1673ffffffffffffffffffffffffffffffffffffffff16815260200190815260200160002061313e90919063ffffffff16565b9150915081610ec9576040517f08c379a0000000000000000000000000000000000000000000000000000000008152600401610ec090614ca0565b60405180910390fd5b809250505092915050565b6000610f21600960008473ffffffffffffffffffffffffffffffffffffffff1673ffffffffffffffffffffffffffffffffffffffff1681526020019081526020016000208054905061284b565b9050919050565b60008060008373ffffffffffffffffffffffffffffffffffffffff1673ffffffffffffffffffffffffffffffffffffffff168152602001908152602001600020549050919050565b610f786128e4565b73ffffffffffffffffffffffffffffffffffffffff16610f966113b4565b73ffffffffffffffffffffffffffffffffffffffff1614610fec576040517f08c379a0000000000000000000000000000000000000000000000000000000008152600401610fe390614a21565b60405180910390fd5b610ff6600061316a565b565b6110006128e4565b73ffffffffffffffffffffffffffffffffffffffff1661101e6113b4565b73ffffffffffffffffffffffffffffffffffffffff1614611074576040517f08c379a000000000000000000000000000000000000000000000000000000000815260040161106b90614a21565b60405180910390fd5b806013819055507f29472a82a52b1caa40964580caee03ad34e2750d3051c517527a5ef27eb58b30816040516110aa91906142d7565b60405180910390a150565b60006110fe600660008473ffffffffffffffffffffffffffffffffffffffff1673ffffffffffffffffffffffffffffffffffffffff168152602001908152602001600020613230565b9050919050565b60008173__MathLib_______________________________63b3947c179091601560009054906101000a900473ffffffffffffffffffffffffffffffffffffffff1673ffffffffffffffffffffffffffffffffffffffff1663cb4c86b76040518163ffffffff1660e01b8152600401602060405180830381865afa158015611191573d6000803e3d6000fd5b505050506040513d601f19601f820116820180604052508101906111b59190614cfe565b73ffffffffffffffffffffffffffffffffffffffff166370a08231306040518263ffffffff1660e01b81526004016111ed91906143bf565b602060405180830381865afa15801561120a573d6000803e3d6000fd5b505050506040513d601f19601f8201168201806040525081019061122e9190614d40565b611236610bb5565b6040518463ffffffff1660e01b815260040161125493929190614d7c565b602060405180830381865af4158015611271573d6000803e3d6000fd5b505050506040513d601f19601f820116820180604052508101906112959190614d40565b90506112a1338361323e565b601560009054906101000a900473ffffffffffffffffffffffffffffffffffffffff1673ffffffffffffffffffffffffffffffffffffffff1663cb4c86b76040518163ffffffff1660e01b8152600401602060405180830381865afa15801561130e573d6000803e3d6000fd5b505050506040513d601f19601f820116820180604052508101906113329190614cfe565b73ffffffffffffffffffffffffffffffffffffffff1663a9059cbb33836040518363ffffffff1660e01b815260040161136c929190614db3565b6020604051808303816000875af115801561138b573d6000803e3d6000fd5b505050506040513d601f19601f820116820180604052508101906113af9190614df1565b505050565b6000600560009054906101000a900473ffffffffffffffffffffffffffffffffffffffff16905090565b6000438210611422576040517f08c379a000000000000000000000000000000000000000000000000000000000815260040161141990614bc8565b60405180910390fd5b61142d600a83612f0a565b9050919050565b600061143e6128e4565b73ffffffffffffffffffffffffffffffffffffffff1661145c6113b4565b73ffffffffffffffffffffffffffffffffffffffff16146114b2576040517f08c379a00000000000000000000000000000000000000000000000000000000081526004016114a990614a21565b60405180910390fd5b600073ffffffffffffffffffffffffffffffffffffffff168373ffffffffffffffffffffffffffffffffffffffff1603611521576040517f08c379a000000000000000000000000000000000000000000000000000000000815260040161151890614e6a565b60405180910390fd5b81156115425761153b83601161324c90919063ffffffff16565b9050611559565b61155683601161327c90919063ffffffff16565b90505b92915050565b60606004805461156e906149a4565b80601f016020809104026020016040519081016040528092919081815260200182805461159a906149a4565b80156115e75780601f106115bc576101008083540402835291602001916115e7565b820191906000526020600020905b8154815290600101906020018083116115ca57829003601f168201915b5050505050905090565b600080600960008473ffffffffffffffffffffffffffffffffffffffff1673ffffffffffffffffffffffffffffffffffffffff168152602001908152602001600020805490509050600081146116d957600960008473ffffffffffffffffffffffffffffffffffffffff1673ffffffffffffffffffffffffffffffffffffffff16815260200190815260200160002060018261168d9190614e8a565b8154811061169e5761169d614ebe565b5b9060005260206000200160000160049054906101000a90047bffffffffffffffffffffffffffffffffffffffffffffffffffffffff166116dc565b60005b7bffffffffffffffffffffffffffffffffffffffffffffffffffffffff16915050919050565b60008061170d6128e4565b9050600061171b8286611bc6565b905083811015611760576040517f08c379a000000000000000000000000000000000000000000000000000000000815260040161175790614f5f565b60405180910390fd5b61176d82868684036128ec565b60019250505092915050565b6000806117846128e4565b9050611791818585612b41565b600191505092915050565b601560009054906101000a900473ffffffffffffffffffffffffffffffffffffffff1681565b60135481565b6117d06128e4565b73ffffffffffffffffffffffffffffffffffffffff166117ee6113b4565b73ffffffffffffffffffffffffffffffffffffffff1614611844576040517f08c379a000000000000000000000000000000000000000000000000000000000815260040161183b90614a21565b60405180910390fd5b600073ffffffffffffffffffffffffffffffffffffffff168273ffffffffffffffffffffffffffffffffffffffff16036118b3576040517f08c379a00000000000000000000000000000000000000000000000000000000081526004016118aa90614fcb565b60405180910390fd5b6118c782600b612dc090919063ffffffff16565b6118e1576118df82600b61324c90919063ffffffff16565b505b80600d60008473ffffffffffffffffffffffffffffffffffffffff1673ffffffffffffffffffffffffffffffffffffffff16815260200190815260200160002060006101000a81548173ffffffffffffffffffffffffffffffffffffffff021916908373ffffffffffffffffffffffffffffffffffffffff1602179055505050565b834211156119a6576040517f08c379a000000000000000000000000000000000000000000000000000000000815260040161199d90615037565b60405180910390fd5b6000611a08611a007fe48329057bfd03d55e49b547132e39cffd9c1820ad7b9d4c5307691425d15adf8989896040516020016119e59493929190615057565b604051602081830303815290604052805190602001206132ac565b8585856132c6565b9050611a13816132f1565b8614611a54576040517f08c379a0000000000000000000000000000000000000000000000000000000008152600401611a4b906150e8565b60405180910390fd5b611a5e8188613024565b50505050505050565b83421115611aaa576040517f08c379a0000000000000000000000000000000000000000000000000000000008152600401611aa190615154565b60405180910390fd5b60007f6e71edae12b1b97f4d1f60370fef10105fa2faae0126114a169c64845d6126c9888888611ad98c6132f1565b89604051602001611aef96959493929190615174565b6040516020818303038152906040528051906020012090506000611b12826132ac565b90506000611b22828787876132c6565b90508973ffffffffffffffffffffffffffffffffffffffff168173ffffffffffffffffffffffffffffffffffffffff1614611b92576040517f08c379a0000000000000000000000000000000000000000000000000000000008152600401611b8990615221565b60405180910390fd5b611b9d8a8a8a6128ec565b50505050505050505050565b6000611bbf82600f612dc090919063ffffffff16565b9050919050565b6000600160008473ffffffffffffffffffffffffffffffffffffffff1673ffffffffffffffffffffffffffffffffffffffff16815260200190815260200160002060008373ffffffffffffffffffffffffffffffffffffffff1673ffffffffffffffffffffffffffffffffffffffff16815260200190815260200160002054905092915050565b611c556128e4565b73ffffffffffffffffffffffffffffffffffffffff16611c736113b4565b73ffffffffffffffffffffffffffffffffffffffff1614611cc9576040517f08c379a0000000000000000000000000000000000000000000000000000000008152600401611cc090614a21565b60405180910390fd5b818173ffffffffffffffffffffffffffffffffffffffff1663a15612d16040518163ffffffff1660e01b8152600401602060405180830381865afa158015611d15573d6000803e3d6000fd5b505050506040513d601f19601f82011682018060405250810190611d399190614d40565b148015611ddf57508273ffffffffffffffffffffffffffffffffffffffff168173ffffffffffffffffffffffffffffffffffffffff16636f307dc36040518163ffffffff1660e01b8152600401602060405180830381865afa158015611da3573d6000803e3d6000fd5b505050506040513d601f19601f82011682018060405250810190611dc79190615256565b73ffffffffffffffffffffffffffffffffffffffff16145b8015611f145750601560009054906101000a900473ffffffffffffffffffffffffffffffffffffffff1673ffffffffffffffffffffffffffffffffffffffff1663d2f7265a6040518163ffffffff1660e01b8152600401602060405180830381865afa158015611e53573d6000803e3d6000fd5b505050506040513d601f19601f82011682018060405250810190611e779190615256565b73ffffffffffffffffffffffffffffffffffffffff168173ffffffffffffffffffffffffffffffffffffffff1663d2f7265a6040518163ffffffff1660e01b8152600401602060405180830381865afa158015611ed8573d6000803e3d6000fd5b505050506040513d601f19601f82011682018060405250810190611efc9190615256565b73ffffffffffffffffffffffffffffffffffffffff16145b611f53576040517f08c379a0000000000000000000000000000000000000000000000000000000008152600401611f4a906152cf565b60405180910390fd5b611fa68282600e60008773ffffffffffffffffffffffffffffffffffffffff1673ffffffffffffffffffffffffffffffffffffffff16815260200190815260200160002061334f9092919063ffffffff16565b50505050565b6000611fb66128e4565b73ffffffffffffffffffffffffffffffffffffffff16611fd46113b4565b73ffffffffffffffffffffffffffffffffffffffff161461202a576040517f08c379a000000000000000000000000000000000000000000000000000000000815260040161202190614a21565b60405180910390fd5b600073ffffffffffffffffffffffffffffffffffffffff168373ffffffffffffffffffffffffffffffffffffffff1603612099576040517f08c379a000000000000000000000000000000000000000000000000000000000815260040161209090614e6a565b60405180910390fd5b81156120ba576120b383600f61324c90919063ffffffff16565b90506120d1565b6120ce83600f61327c90919063ffffffff16565b90505b92915050565b6120df614022565b600960008473ffffffffffffffffffffffffffffffffffffffff1673ffffffffffffffffffffffffffffffffffffffff1681526020019081526020016000208263ffffffff168154811061213657612135614ebe565b5b906000526020600020016040518060400160405290816000820160009054906101000a900463ffffffff1663ffffffff1663ffffffff1681526020016000820160049054906101000a90047bffffffffffffffffffffffffffffffffffffffffffffffffffffffff167bffffffffffffffffffffffffffffffffffffffffffffffffffffffff167bffffffffffffffffffffffffffffffffffffffffffffffffffffffff1681525050905092915050565b6121ef6128e4565b73ffffffffffffffffffffffffffffffffffffffff1661220d6113b4565b73ffffffffffffffffffffffffffffffffffffffff1614612263576040517f08c379a000000000000000000000000000000000000000000000000000000000815260040161225a90614a21565b60405180910390fd5b600073ffffffffffffffffffffffffffffffffffffffff168173ffffffffffffffffffffffffffffffffffffffff16036122d2576040517f08c379a00000000000000000000000000000000000000000000000000000000081526004016122c990615361565b60405180910390fd5b6122db8161316a565b50565b6122e66128e4565b73ffffffffffffffffffffffffffffffffffffffff166123046113b4565b73ffffffffffffffffffffffffffffffffffffffff161461235a576040517f08c379a000000000000000000000000000000000000000000000000000000000815260040161235190614a21565b60405180910390fd5b601560009054906101000a900473ffffffffffffffffffffffffffffffffffffffff1673ffffffffffffffffffffffffffffffffffffffff1663d2f7265a6040518163ffffffff1660e01b8152600401602060405180830381865afa1580156123c7573d6000803e3d6000fd5b505050506040513d601f19601f820116820180604052508101906123eb9190615256565b73ffffffffffffffffffffffffffffffffffffffff168273ffffffffffffffffffffffffffffffffffffffff1663d2f7265a6040518163ffffffff1660e01b8152600401602060405180830381865afa15801561244c573d6000803e3d6000fd5b505050506040513d601f19601f820116820180604052508101906124709190615256565b73ffffffffffffffffffffffffffffffffffffffff16146124c6576040517f08c379a00000000000000000000000000000000000000000000000000000000081526004016124bd906153cd565b60405180910390fd5b8173ffffffffffffffffffffffffffffffffffffffff1663d2f7265a6040518163ffffffff1660e01b8152600401602060405180830381865afa158015612511573d6000803e3d6000fd5b505050506040513d601f19601f820116820180604052508101906125359190615256565b73ffffffffffffffffffffffffffffffffffffffff16639111fccd83836040518363ffffffff1660e01b815260040161256f92919061540e565b600060405180830381600087803b15801561258957600080fd5b505af115801561259d573d6000803e3d6000fd5b505050507ffb24c384840b912caf631799804e8d43a3950d690745f2b8501b47c8e8d90fd282826040516125d2929190614db3565b60405180910390a15050565b6125e8828261266b565b6125f0613384565b7bffffffffffffffffffffffffffffffffffffffffffffffffffffffff16612616610bb5565b1115612657576040517f08c379a000000000000000000000000000000000000000000000000000000000815260040161264e906154a9565b60405180910390fd5b612665600a6127ca836133a8565b50505050565b600073ffffffffffffffffffffffffffffffffffffffff168273ffffffffffffffffffffffffffffffffffffffff16036126da576040517f08c379a00000000000000000000000000000000000000000000000000000000081526004016126d190615515565b60405180910390fd5b6126e660008383613620565b80600260008282546126f89190614b48565b92505081905550806000808473ffffffffffffffffffffffffffffffffffffffff1673ffffffffffffffffffffffffffffffffffffffff168152602001908152602001600020600082825461274d9190614b48565b925050819055508173ffffffffffffffffffffffffffffffffffffffff16600073ffffffffffffffffffffffffffffffffffffffff167fddf252ad1be2c89b69c2b068fc378daa952ba7f163c4a11628f55a4df523b3ef836040516127b291906142d7565b60405180910390a36127c660008383613625565b5050565b600081836127d89190614b48565b905092915050565b60007bffffffffffffffffffffffffffffffffffffffffffffffffffffffff8016821115612843576040517f08c379a000000000000000000000000000000000000000000000000000000000815260040161283a906155a7565b60405180910390fd5b819050919050565b600063ffffffff8016821115612896576040517f08c379a000000000000000000000000000000000000000000000000000000000815260040161288d90615639565b60405180910390fd5b819050919050565b6128a98383836128c9565b6128c46128b584610d8c565b6128be84610d8c565b83613635565b505050565b505050565b600081836128dc9190614e8a565b905092915050565b600033905090565b600073ffffffffffffffffffffffffffffffffffffffff168373ffffffffffffffffffffffffffffffffffffffff160361295b576040517f08c379a0000000000000000000000000000000000000000000000000000000008152600401612952906156cb565b60405180910390fd5b600073ffffffffffffffffffffffffffffffffffffffff168273ffffffffffffffffffffffffffffffffffffffff16036129ca576040517f08c379a00000000000000000000000000000000000000000000000000000000081526004016129c19061575d565b60405180910390fd5b80600160008573ffffffffffffffffffffffffffffffffffffffff1673ffffffffffffffffffffffffffffffffffffffff16815260200190815260200160002060008473ffffffffffffffffffffffffffffffffffffffff1673ffffffffffffffffffffffffffffffffffffffff168152602001908152602001600020819055508173ffffffffffffffffffffffffffffffffffffffff168373ffffffffffffffffffffffffffffffffffffffff167f8c5be1e5ebec7d5bd14f71427d1e84f3dd0314c0f7b2291e5b200ac8c7c3b92583604051612aa891906142d7565b60405180910390a3505050565b6000612ac18484611bc6565b90507fffffffffffffffffffffffffffffffffffffffffffffffffffffffffffffffff8114612b3b5781811015612b2d576040517f08c379a0000000000000000000000000000000000000000000000000000000008152600401612b24906157c9565b60405180910390fd5b612b3a84848484036128ec565b5b50505050565b600073ffffffffffffffffffffffffffffffffffffffff168373ffffffffffffffffffffffffffffffffffffffff1603612bb0576040517f08c379a0000000000000000000000000000000000000000000000000000000008152600401612ba79061585b565b60405180910390fd5b600073ffffffffffffffffffffffffffffffffffffffff168273ffffffffffffffffffffffffffffffffffffffff1603612c1f576040517f08c379a0000000000000000000000000000000000000000000000000000000008152600401612c16906158ed565b60405180910390fd5b612c2a838383613620565b60008060008573ffffffffffffffffffffffffffffffffffffffff1673ffffffffffffffffffffffffffffffffffffffff16815260200190815260200160002054905081811015612cb0576040517f08c379a0000000000000000000000000000000000000000000000000000000008152600401612ca79061597f565b60405180910390fd5b8181036000808673ffffffffffffffffffffffffffffffffffffffff1673ffffffffffffffffffffffffffffffffffffffff16815260200190815260200160002081905550816000808573ffffffffffffffffffffffffffffffffffffffff1673ffffffffffffffffffffffffffffffffffffffff1681526020019081526020016000206000828254612d439190614b48565b925050819055508273ffffffffffffffffffffffffffffffffffffffff168473ffffffffffffffffffffffffffffffffffffffff167fddf252ad1be2c89b69c2b068fc378daa952ba7f163c4a11628f55a4df523b3ef84604051612da791906142d7565b60405180910390a3612dba848484613625565b50505050565b6000612de8836000018373ffffffffffffffffffffffffffffffffffffffff1660001b61382e565b905092915050565b60007f000000000000000000000000000000000000000000000000000000000000000073ffffffffffffffffffffffffffffffffffffffff163073ffffffffffffffffffffffffffffffffffffffff16148015612e6c57507f000000000000000000000000000000000000000000000000000000000000000046145b15612e99577f00000000000000000000000000000000000000000000000000000000000000009050612f07565b612f047f00000000000000000000000000000000000000000000000000000000000000007f00000000000000000000000000000000000000000000000000000000000000007f0000000000000000000000000000000000000000000000000000000000000000613851565b90505b90565b6000808380549050905060005b81811015612f89576000612f2b828461388b565b905084868281548110612f4157612f40614ebe565b5b9060005260206000200160000160009054906101000a900463ffffffff1663ffffffff161115612f7357809250612f83565b600181612f809190614b48565b91505b50612f17565b60008214612feb5784600183612f9f9190614e8a565b81548110612fb057612faf614ebe565b5b9060005260206000200160000160049054906101000a90047bffffffffffffffffffffffffffffffffffffffffffffffffffffffff16612fee565b60005b7bffffffffffffffffffffffffffffffffffffffffffffffffffffffff169250505092915050565b61302082826125de565b5050565b600061302f83610d8c565b9050600061303c84610f28565b905082600860008673ffffffffffffffffffffffffffffffffffffffff1673ffffffffffffffffffffffffffffffffffffffff16815260200190815260200160002060006101000a81548173ffffffffffffffffffffffffffffffffffffffff021916908373ffffffffffffffffffffffffffffffffffffffff1602179055508273ffffffffffffffffffffffffffffffffffffffff168273ffffffffffffffffffffffffffffffffffffffff168573ffffffffffffffffffffffffffffffffffffffff167f3134e8a2e6d97e929a7e54011ea5485d7d196dd5f0ba4d4ef95803e8e3fc257f60405160405180910390a4613138828483613635565b50505050565b600080600080613154866000018660001b6138b1565b91509150818160001c9350935050509250929050565b6000600560009054906101000a900473ffffffffffffffffffffffffffffffffffffffff16905081600560006101000a81548173ffffffffffffffffffffffffffffffffffffffff021916908373ffffffffffffffffffffffffffffffffffffffff1602179055508173ffffffffffffffffffffffffffffffffffffffff168173ffffffffffffffffffffffffffffffffffffffff167f8be0079c531659141344cd1fd0a4f28419497f9722a3daafe3b4186f6b6457e060405160405180910390a35050565b600081600001549050919050565b6132488282613900565b5050565b6000613274836000018373ffffffffffffffffffffffffffffffffffffffff1660001b61391e565b905092915050565b60006132a4836000018373ffffffffffffffffffffffffffffffffffffffff1660001b61398e565b905092915050565b60006132bf6132b9612df0565b83613aa2565b9050919050565b60008060006132d787878787613ad5565b915091506132e481613be1565b8192505050949350505050565b600080600660008473ffffffffffffffffffffffffffffffffffffffff1673ffffffffffffffffffffffffffffffffffffffff168152602001908152602001600020905061333e81613230565b915061334981613dad565b50919050565b600061337b846000018460001b8473ffffffffffffffffffffffffffffffffffffffff1660001b613dc3565b90509392505050565b60007bffffffffffffffffffffffffffffffffffffffffffffffffffffffff905090565b6000806000858054905090506000811461341657856001826133ca9190614e8a565b815481106133db576133da614ebe565b5b9060005260206000200160000160049054906101000a90047bffffffffffffffffffffffffffffffffffffffffffffffffffffffff16613419565b60005b7bffffffffffffffffffffffffffffffffffffffffffffffffffffffff16925061344783858763ffffffff16565b915060008111801561349a575043866001836134639190614e8a565b8154811061347457613473614ebe565b5b9060005260206000200160000160009054906101000a900463ffffffff1663ffffffff16145b15613527576134a8826127e0565b866001836134b69190614e8a565b815481106134c7576134c6614ebe565b5b9060005260206000200160000160046101000a8154817bffffffffffffffffffffffffffffffffffffffffffffffffffffffff02191690837bffffffffffffffffffffffffffffffffffffffffffffffffffffffff160217905550613617565b85604051806040016040528061353c4361284b565b63ffffffff168152602001613550856127e0565b7bffffffffffffffffffffffffffffffffffffffffffffffffffffffff168152509080600181540180825580915050600190039060005260206000200160009091909190915060008201518160000160006101000a81548163ffffffff021916908363ffffffff16021790555060208201518160000160046101000a8154817bffffffffffffffffffffffffffffffffffffffffffffffffffffffff02191690837bffffffffffffffffffffffffffffffffffffffffffffffffffffffff16021790555050505b50935093915050565b505050565b61363083838361289e565b505050565b8173ffffffffffffffffffffffffffffffffffffffff168373ffffffffffffffffffffffffffffffffffffffff16141580156136715750600081115b1561382957600073ffffffffffffffffffffffffffffffffffffffff168373ffffffffffffffffffffffffffffffffffffffff161461374f576000806136f8600960008773ffffffffffffffffffffffffffffffffffffffff1673ffffffffffffffffffffffffffffffffffffffff1681526020019081526020016000206128ce856133a8565b915091508473ffffffffffffffffffffffffffffffffffffffff167fdec2bacdd2f05b59de34da9b523dff8be42e5e38e818c82fdb0bae774387a724838360405161374492919061599f565b60405180910390a250505b600073ffffffffffffffffffffffffffffffffffffffff168273ffffffffffffffffffffffffffffffffffffffff1614613828576000806137d1600960008673ffffffffffffffffffffffffffffffffffffffff1673ffffffffffffffffffffffffffffffffffffffff1681526020019081526020016000206127ca856133a8565b915091508373ffffffffffffffffffffffffffffffffffffffff167fdec2bacdd2f05b59de34da9b523dff8be42e5e38e818c82fdb0bae774387a724838360405161381d92919061599f565b60405180910390a250505b5b505050565b600080836001016000848152602001908152602001600020541415905092915050565b6000838383463060405160200161386c9594939291906159c8565b6040516020818303038152906040528051906020012090509392505050565b6000600282841861389c9190615a4a565b8284166138a99190614b48565b905092915050565b60008060008460020160008581526020019081526020016000205490506000801b81036138f0576138e28585613dfe565b6000801b92509250506138f9565b60018192509250505b9250929050565b61390a8282613e1e565b613918600a6128ce836133a8565b50505050565b600061392a838361382e565b613983578260000182908060018154018082558091505060019003906000526020600020016000909190919091505582600001805490508360010160008481526020019081526020016000208190555060019050613988565b600090505b92915050565b60008083600101600084815260200190815260200160002054905060008114613a965760006001826139c09190614e8a565b90506000600186600001805490506139d89190614e8a565b9050818114613a475760008660000182815481106139f9576139f8614ebe565b5b9060005260206000200154905080876000018481548110613a1d57613a1c614ebe565b5b90600052602060002001819055508387600101600083815260200190815260200160002081905550505b85600001805480613a5b57613a5a615a7b565b5b600190038181906000526020600020016000905590558560010160008681526020019081526020016000206000905560019350505050613a9c565b60009150505b92915050565b60008282604051602001613ab7929190615b22565b60405160208183030381529060405280519060200120905092915050565b6000807f7fffffffffffffffffffffffffffffff5d576e7357a4501ddfe92f46681b20a08360001c1115613b10576000600391509150613bd8565b601b8560ff1614158015613b285750601c8560ff1614155b15613b3a576000600491509150613bd8565b600060018787878760405160008152602001604052604051613b5f9493929190615b59565b6020604051602081039080840390855afa158015613b81573d6000803e3d6000fd5b505050602060405103519050600073ffffffffffffffffffffffffffffffffffffffff168173ffffffffffffffffffffffffffffffffffffffff1603613bcf57600060019250925050613bd8565b80600092509250505b94509492505050565b60006004811115613bf557613bf4615b9e565b5b816004811115613c0857613c07615b9e565b5b0315613daa5760016004811115613c2257613c21615b9e565b5b816004811115613c3557613c34615b9e565b5b03613c75576040517f08c379a0000000000000000000000000000000000000000000000000000000008152600401613c6c90615c19565b60405180910390fd5b60026004811115613c8957613c88615b9e565b5b816004811115613c9c57613c9b615b9e565b5b03613cdc576040517f08c379a0000000000000000000000000000000000000000000000000000000008152600401613cd390615c85565b60405180910390fd5b60036004811115613cf057613cef615b9e565b5b816004811115613d0357613d02615b9e565b5b03613d43576040517f08c379a0000000000000000000000000000000000000000000000000000000008152600401613d3a90615d17565b60405180910390fd5b600480811115613d5657613d55615b9e565b5b816004811115613d6957613d68615b9e565b5b03613da9576040517f08c379a0000000000000000000000000000000000000000000000000000000008152600401613da090615da9565b60405180910390fd5b5b50565b6001816000016000828254019250508190555050565b60008184600201600085815260200190815260200160002081905550613df58385600001613ff490919063ffffffff16565b90509392505050565b6000613e16828460000161400b90919063ffffffff16565b905092915050565b600073ffffffffffffffffffffffffffffffffffffffff168273ffffffffffffffffffffffffffffffffffffffff1603613e8d576040517f08c379a0000000000000000000000000000000000000000000000000000000008152600401613e8490615e3b565b60405180910390fd5b613e9982600083613620565b60008060008473ffffffffffffffffffffffffffffffffffffffff1673ffffffffffffffffffffffffffffffffffffffff16815260200190815260200160002054905081811015613f1f576040517f08c379a0000000000000000000000000000000000000000000000000000000008152600401613f1690615ecd565b60405180910390fd5b8181036000808573ffffffffffffffffffffffffffffffffffffffff1673ffffffffffffffffffffffffffffffffffffffff168152602001908152602001600020819055508160026000828254613f769190614e8a565b92505081905550600073ffffffffffffffffffffffffffffffffffffffff168373ffffffffffffffffffffffffffffffffffffffff167fddf252ad1be2c89b69c2b068fc378daa952ba7f163c4a11628f55a4df523b3ef84604051613fdb91906142d7565b60405180910390a3613fef83600084613625565b505050565b6000614003836000018361391e565b905092915050565b600061401a836000018361382e565b905092915050565b6040518060400160405280600063ffffffff16815260200160007bffffffffffffffffffffffffffffffffffffffffffffffffffffffff1681525090565b600081519050919050565b600082825260208201905092915050565b60005b8381101561409a57808201518184015260208101905061407f565b60008484015250505050565b6000601f19601f8301169050919050565b60006140c282614060565b6140cc818561406b565b93506140dc81856020860161407c565b6140e5816140a6565b840191505092915050565b6000602082019050818103600083015261410a81846140b7565b905092915050565b600080fd5b600073ffffffffffffffffffffffffffffffffffffffff82169050919050565b600061414282614117565b9050919050565b61415281614137565b811461415d57600080fd5b50565b60008135905061416f81614149565b92915050565b60006020828403121561418b5761418a614112565b5b600061419984828501614160565b91505092915050565b6000819050919050565b6141b5816141a2565b81146141c057600080fd5b50565b6000813590506141d2816141ac565b92915050565b600080604083850312156141ef576141ee614112565b5b60006141fd85828601614160565b925050602061420e858286016141c3565b9150509250929050565b60008115159050919050565b61422d81614218565b82525050565b60006020820190506142486000830184614224565b92915050565b6000819050919050565b600061427361426e61426984614117565b61424e565b614117565b9050919050565b600061428582614258565b9050919050565b60006142978261427a565b9050919050565b6142a78161428c565b82525050565b60006020820190506142c2600083018461429e565b92915050565b6142d1816141a2565b82525050565b60006020820190506142ec60008301846142c8565b92915050565b60008060006060848603121561430b5761430a614112565b5b600061431986828701614160565b935050602061432a86828701614160565b925050604061433b868287016141c3565b9150509250925092565b600060ff82169050919050565b61435b81614345565b82525050565b60006020820190506143766000830184614352565b92915050565b6000819050919050565b61438f8161437c565b82525050565b60006020820190506143aa6000830184614386565b92915050565b6143b981614137565b82525050565b60006020820190506143d460008301846143b0565b92915050565b60006143e58261427a565b9050919050565b6143f5816143da565b82525050565b600060208201905061441060008301846143ec565b92915050565b600063ffffffff82169050919050565b61442f81614416565b82525050565b600060208201905061444a6000830184614426565b92915050565b60006020828403121561446657614465614112565b5b6000614474848285016141c3565b91505092915050565b61448681614218565b811461449157600080fd5b50565b6000813590506144a38161447d565b92915050565b600080604083850312156144c0576144bf614112565b5b60006144ce85828601614160565b92505060206144df85828601614494565b9150509250929050565b60006144f48261427a565b9050919050565b614504816144e9565b82525050565b600060208201905061451f60008301846144fb565b92915050565b600061453082614137565b9050919050565b61454081614525565b811461454b57600080fd5b50565b60008135905061455d81614537565b92915050565b6000806040838503121561457a57614579614112565b5b600061458885828601614160565b92505060206145998582860161454e565b9150509250929050565b6145ac81614345565b81146145b757600080fd5b50565b6000813590506145c9816145a3565b92915050565b6145d88161437c565b81146145e357600080fd5b50565b6000813590506145f5816145cf565b92915050565b60008060008060008060c0878903121561461857614617614112565b5b600061462689828a01614160565b965050602061463789828a016141c3565b955050604061464889828a016141c3565b945050606061465989828a016145ba565b935050608061466a89828a016145e6565b92505060a061467b89828a016145e6565b9150509295509295509295565b600080600080600080600060e0888a0312156146a7576146a6614112565b5b60006146b58a828b01614160565b97505060206146c68a828b01614160565b96505060406146d78a828b016141c3565b95505060606146e88a828b016141c3565b94505060806146f98a828b016145ba565b93505060a061470a8a828b016145e6565b92505060c061471b8a828b016145e6565b91505092959891949750929550565b6000806040838503121561474157614740614112565b5b600061474f85828601614160565b925050602061476085828601614160565b9150509250929050565b600061477582614137565b9050919050565b6147858161476a565b811461479057600080fd5b50565b6000813590506147a28161477c565b92915050565b6000806000606084860312156147c1576147c0614112565b5b60006147cf86828701614160565b93505060206147e0868287016141c3565b92505060406147f186828701614793565b9150509250925092565b61480481614416565b811461480f57600080fd5b50565b600081359050614821816147fb565b92915050565b6000806040838503121561483e5761483d614112565b5b600061484c85828601614160565b925050602061485d85828601614812565b9150509250929050565b61487081614416565b82525050565b60007bffffffffffffffffffffffffffffffffffffffffffffffffffffffff82169050919050565b6148a781614876565b82525050565b6040820160008201516148c36000850182614867565b5060208201516148d6602085018261489e565b50505050565b60006040820190506148f160008301846148ad565b92915050565b600061490282614137565b9050919050565b614912816148f7565b811461491d57600080fd5b50565b60008135905061492f81614909565b92915050565b6000806040838503121561494c5761494b614112565b5b600061495a85828601614920565b925050602061496b858286016141c3565b9150509250929050565b7f4e487b7100000000000000000000000000000000000000000000000000000000600052602260045260246000fd5b600060028204905060018216806149bc57607f821691505b6020821081036149cf576149ce614975565b5b50919050565b7f4f776e61626c653a2063616c6c6572206973206e6f7420746865206f776e6572600082015250565b6000614a0b60208361406b565b9150614a16826149d5565b602082019050919050565b60006020820190508181036000830152614a3a816149fe565b9050919050565b7f3020616464726573730000000000000000000000000000000000000000000000600082015250565b6000614a7760098361406b565b9150614a8282614a41565b602082019050919050565b60006020820190508181036000830152614aa681614a6a565b9050919050565b7f4f7261636c65206e6f7420726567697374657265640000000000000000000000600082015250565b6000614ae360158361406b565b9150614aee82614aad565b602082019050919050565b60006020820190508181036000830152614b1281614ad6565b9050919050565b7f4e487b7100000000000000000000000000000000000000000000000000000000600052601160045260246000fd5b6000614b53826141a2565b9150614b5e836141a2565b9250828201905080821115614b7657614b75614b19565b5b92915050565b7f4552433230566f7465733a20626c6f636b206e6f7420796574206d696e656400600082015250565b6000614bb2601f8361406b565b9150614bbd82614b7c565b602082019050919050565b60006020820190508181036000830152614be181614ba5565b9050919050565b7f62726f6b6572206f6e6c79000000000000000000000000000000000000000000600082015250565b6000614c1e600b8361406b565b9150614c2982614be8565b602082019050919050565b60006020820190508181036000830152614c4d81614c11565b9050919050565b7f6e6f20766f6c20746f6b656e0000000000000000000000000000000000000000600082015250565b6000614c8a600c8361406b565b9150614c9582614c54565b602082019050919050565b60006020820190508181036000830152614cb981614c7d565b9050919050565b6000614ccb82614137565b9050919050565b614cdb81614cc0565b8114614ce657600080fd5b50565b600081519050614cf881614cd2565b92915050565b600060208284031215614d1457614d13614112565b5b6000614d2284828501614ce9565b91505092915050565b600081519050614d3a816141ac565b92915050565b600060208284031215614d5657614d55614112565b5b6000614d6484828501614d2b565b91505092915050565b614d76816141a2565b82525050565b6000606082019050614d916000830186614d6d565b614d9e6020830185614d6d565b614dab6040830184614d6d565b949350505050565b6000604082019050614dc860008301856143b0565b614dd560208301846142c8565b9392505050565b600081519050614deb8161447d565b92915050565b600060208284031215614e0757614e06614112565b5b6000614e1584828501614ddc565b91505092915050565b7f656d707479206164647265737300000000000000000000000000000000000000600082015250565b6000614e54600d8361406b565b9150614e5f82614e1e565b602082019050919050565b60006020820190508181036000830152614e8381614e47565b9050919050565b6000614e95826141a2565b9150614ea0836141a2565b9250828203905081811115614eb857614eb7614b19565b5b92915050565b7f4e487b7100000000000000000000000000000000000000000000000000000000600052603260045260246000fd5b7f45524332303a2064656372656173656420616c6c6f77616e63652062656c6f7760008201527f207a65726f000000000000000000000000000000000000000000000000000000602082015250565b6000614f4960258361406b565b9150614f5482614eed565b604082019050919050565b60006020820190508181036000830152614f7881614f3c565b9050919050565b7f3061646472000000000000000000000000000000000000000000000000000000600082015250565b6000614fb560058361406b565b9150614fc082614f7f565b602082019050919050565b60006020820190508181036000830152614fe481614fa8565b9050919050565b7f4552433230566f7465733a207369676e61747572652065787069726564000000600082015250565b6000615021601d8361406b565b915061502c82614feb565b602082019050919050565b6000602082019050818103600083015261505081615014565b9050919050565b600060808201905061506c6000830187614386565b61507960208301866143b0565b61508660408301856142c8565b61509360608301846142c8565b95945050505050565b7f4552433230566f7465733a20696e76616c6964206e6f6e636500000000000000600082015250565b60006150d260198361406b565b91506150dd8261509c565b602082019050919050565b60006020820190508181036000830152615101816150c5565b9050919050565b7f45524332305065726d69743a206578706972656420646561646c696e65000000600082015250565b600061513e601d8361406b565b915061514982615108565b602082019050919050565b6000602082019050818103600083015261516d81615131565b9050919050565b600060c0820190506151896000830189614386565b61519660208301886143b0565b6151a360408301876143b0565b6151b060608301866142c8565b6151bd60808301856142c8565b6151ca60a08301846142c8565b979650505050505050565b7f45524332305065726d69743a20696e76616c6964207369676e61747572650000600082015250565b600061520b601e8361406b565b9150615216826151d5565b602082019050919050565b6000602082019050818103600083015261523a816151fe565b9050919050565b60008151905061525081614149565b92915050565b60006020828403121561526c5761526b614112565b5b600061527a84828501615241565b91505092915050565b7f2d76450000000000000000000000000000000000000000000000000000000000600082015250565b60006152b960038361406b565b91506152c482615283565b602082019050919050565b600060208201905081810360008301526152e8816152ac565b9050919050565b7f4f776e61626c653a206e6577206f776e657220697320746865207a65726f206160008201527f6464726573730000000000000000000000000000000000000000000000000000602082015250565b600061534b60268361406b565b9150615356826152ef565b604082019050919050565b6000602082019050818103600083015261537a8161533e565b9050919050565b7f2d77457800000000000000000000000000000000000000000000000000000000600082015250565b60006153b760048361406b565b91506153c282615381565b602082019050919050565b600060208201905081810360008301526153e6816153aa565b9050919050565b60006153f88261427a565b9050919050565b615408816153ed565b82525050565b600060408201905061542360008301856153ff565b61543060208301846142c8565b9392505050565b7f4552433230566f7465733a20746f74616c20737570706c79207269736b73206f60008201527f766572666c6f77696e6720766f74657300000000000000000000000000000000602082015250565b600061549360308361406b565b915061549e82615437565b604082019050919050565b600060208201905081810360008301526154c281615486565b9050919050565b7f45524332303a206d696e7420746f20746865207a65726f206164647265737300600082015250565b60006154ff601f8361406b565b915061550a826154c9565b602082019050919050565b6000602082019050818103600083015261552e816154f2565b9050919050565b7f53616665436173743a2076616c756520646f65736e27742066697420696e203260008201527f3234206269747300000000000000000000000000000000000000000000000000602082015250565b600061559160278361406b565b915061559c82615535565b604082019050919050565b600060208201905081810360008301526155c081615584565b9050919050565b7f53616665436173743a2076616c756520646f65736e27742066697420696e203360008201527f3220626974730000000000000000000000000000000000000000000000000000602082015250565b600061562360268361406b565b915061562e826155c7565b604082019050919050565b6000602082019050818103600083015261565281615616565b9050919050565b7f45524332303a20617070726f76652066726f6d20746865207a65726f2061646460008201527f7265737300000000000000000000000000000000000000000000000000000000602082015250565b60006156b560248361406b565b91506156c082615659565b604082019050919050565b600060208201905081810360008301526156e4816156a8565b9050919050565b7f45524332303a20617070726f766520746f20746865207a65726f20616464726560008201527f7373000000000000000000000000000000000000000000000000000000000000602082015250565b600061574760228361406b565b9150615752826156eb565b604082019050919050565b600060208201905081810360008301526157768161573a565b9050919050565b7f45524332303a20696e73756666696369656e7420616c6c6f77616e6365000000600082015250565b60006157b3601d8361406b565b91506157be8261577d565b602082019050919050565b600060208201905081810360008301526157e2816157a6565b9050919050565b7f45524332303a207472616e736665722066726f6d20746865207a65726f20616460008201527f6472657373000000000000000000000000000000000000000000000000000000602082015250565b600061584560258361406b565b9150615850826157e9565b604082019050919050565b6000602082019050818103600083015261587481615838565b9050919050565b7f45524332303a207472616e7366657220746f20746865207a65726f206164647260008201527f6573730000000000000000000000000000000000000000000000000000000000602082015250565b60006158d760238361406b565b91506158e28261587b565b604082019050919050565b60006020820190508181036000830152615906816158ca565b9050919050565b7f45524332303a207472616e7366657220616d6f756e742065786365656473206260008201527f616c616e63650000000000000000000000000000000000000000000000000000602082015250565b600061596960268361406b565b91506159748261590d565b604082019050919050565b600060208201905081810360008301526159988161595c565b9050919050565b60006040820190506159b460008301856142c8565b6159c160208301846142c8565b9392505050565b600060a0820190506159dd6000830188614386565b6159ea6020830187614386565b6159f76040830186614386565b615a0460608301856142c8565b615a1160808301846143b0565b9695505050505050565b7f4e487b7100000000000000000000000000000000000000000000000000000000600052601260045260246000fd5b6000615a55826141a2565b9150615a60836141a2565b925082615a7057615a6f615a1b565b5b828204905092915050565b7f4e487b7100000000000000000000000000000000000000000000000000000000600052603160045260246000fd5b600081905092915050565b7f1901000000000000000000000000000000000000000000000000000000000000600082015250565b6000615aeb600283615aaa565b9150615af682615ab5565b600282019050919050565b6000819050919050565b615b1c615b178261437c565b615b01565b82525050565b6000615b2d82615ade565b9150615b398285615b0b565b602082019150615b498284615b0b565b6020820191508190509392505050565b6000608082019050615b6e6000830187614386565b615b7b6020830186614352565b615b886040830185614386565b615b956060830184614386565b95945050505050565b7f4e487b7100000000000000000000000000000000000000000000000000000000600052602160045260246000fd5b7f45434453413a20696e76616c6964207369676e61747572650000000000000000600082015250565b6000615c0360188361406b565b9150615c0e82615bcd565b602082019050919050565b60006020820190508181036000830152615c3281615bf6565b9050919050565b7f45434453413a20696e76616c6964207369676e6174757265206c656e67746800600082015250565b6000615c6f601f8361406b565b9150615c7a82615c39565b602082019050919050565b60006020820190508181036000830152615c9e81615c62565b9050919050565b7f45434453413a20696e76616c6964207369676e6174757265202773272076616c60008201527f7565000000000000000000000000000000000000000000000000000000000000602082015250565b6000615d0160228361406b565b9150615d0c82615ca5565b604082019050919050565b60006020820190508181036000830152615d3081615cf4565b9050919050565b7f45434453413a20696e76616c6964207369676e6174757265202776272076616c60008201527f7565000000000000000000000000000000000000000000000000000000000000602082015250565b6000615d9360228361406b565b9150615d9e82615d37565b604082019050919050565b60006020820190508181036000830152615dc281615d86565b9050919050565b7f45524332303a206275726e2066726f6d20746865207a65726f2061646472657360008201527f7300000000000000000000000000000000000000000000000000000000000000602082015250565b6000615e2560218361406b565b9150615e3082615dc9565b604082019050919050565b60006020820190508181036000830152615e5481615e18565b9050919050565b7f45524332303a206275726e20616d6f756e7420657863656564732062616c616e60008201527f6365000000000000000000000000000000000000000000000000000000000000602082015250565b6000615eb760228361406b565b9150615ec282615e5b565b604082019050919050565b60006020820190508181036000830152615ee681615eaa565b905091905056fea26469706673582212206ca55e41aeb39a35cce8c86509bda330da13d672c19df7afba790b39c54208c764736f6c63430008110033",
  "immutableReferences": {
    "5779": [
      {
        "length": 32,
        "start": 11891
      }
    ],
    "5781": [
      {
        "length": 32,
        "start": 11850
      }
    ],
    "5783": [
      {
        "length": 32,
        "start": 11764
      }
    ],
    "5785": [
      {
        "length": 32,
        "start": 11967
      }
    ],
    "5787": [
      {
        "length": 32,
        "start": 12000
      }
    ],
    "5789": [
      {
        "length": 32,
        "start": 11934
      }
    ]
  },
  "source": "// SPDX-License-Identifier: MIT\npragma solidity 0.8.17;\n\nimport \"@openzeppelin/contracts/token/ERC20/ERC20.sol\";\nimport \"@openzeppelin/contracts/access/Ownable.sol\";\nimport \"@openzeppelin/contracts/token/ERC20/extensions/draft-ERC20Permit.sol\";\nimport \"@openzeppelin/contracts/token/ERC20/extensions/ERC20Votes.sol\";\nimport \"@openzeppelin/contracts/utils/structs/EnumerableMap.sol\";\nimport \"@openzeppelin/contracts/utils/structs/EnumerableSet.sol\";\n// import \"@openzeppelin/contracts/token/ERC20/utils/SafeERC20.sol\";\nimport \"../pools/Pool.sol\";\nimport \"../libraries/MathLib.sol\";\nimport \"../interfaces/EMoret.sol\";\nimport \"../VolatilityChain.sol\";\nimport \"../VolatilityToken.sol\";\nimport \"../Exchange.sol\";\nimport \"./MoretBroker.sol\";\n\n/// @custom:security-contact eight@moret.io\ncontract Moret is ERC20, Ownable, ERC20Permit, ERC20Votes, EMoret {\n    using MathLib for uint256;\n    using EnumerableSet for EnumerableSet.AddressSet;\n    using EnumerableMap for EnumerableMap.UintToAddressMap;\n    // using SafeERC20 for ERC20;\n\n    EnumerableSet.AddressSet internal underlyingList; // list of underlying tokens\n    mapping(address=>VolatilityChain) internal volatilityChainMap; // volatility oracle: token address => volatiltiy chain address\n    mapping(address=>EnumerableMap.UintToAddressMap) internal volatilityTokenMap; // volatility token list: token address => volatility token map (tenor => volatility tokens)\n    EnumerableSet.AddressSet internal eligibleTradingRoutes; // list of routes that are allowed for hedging transactions\n    EnumerableSet.AddressSet internal volTradingPools; // pools allowed to trade volatility tokens\n\n    uint256 public protocolFee =  0.01e18; // protocol fees payable to governance token each time option contract is exercised\n    address public protocolFeeRecipient;\n    \n    MoretBroker public broker;\n\n    constructor(MoretBroker _broker) ERC20(\"Moret\", \"MOR\") ERC20Permit(\"Moret\") {\n        broker = _broker;\n        _mint(msg.sender, 1e26); // initial mint, 1e8 * 1e18\n        protocolFeeRecipient = msg.sender;\n        }\n    \n    // mint function\n    function mint(address _to, uint256 _amount) external {\n        require(address(broker) == msg.sender, 'broker only');\n        _mint(_to, _amount);}\n    function divest(uint256 _amount) external {\n        uint256 _capitalToDivest = _amount.muldiv(broker.funding().balanceOf(address(this)), totalSupply());\n        _burn(msg.sender, _amount);\n        broker.funding().transfer(msg.sender, _capitalToDivest);\n        // emit DivestFromGov(msg.sender, _capitalToDivest);}\n    }\n\n    // withdraw from certain pool so funding tokens can be saved in. This could be only executed by the owner address\n    function withdraw(Pool _pool, uint256 _amount) external onlyOwner{\n        require(_pool.exchange() == broker.exchange(), \"-wEx\");\n        Exchange(_pool.exchange()).withdrawCapital(_pool, _amount);\n        emit WithdrawPoolTokens(address(_pool), _amount);}\n\n    // governable parameters\n    function setProtocolFee(uint256 _newFee) external onlyOwner(){ \n        protocolFee = _newFee;\n        emit UpdateProtocolFees(_newFee);}\n    function setProtocolRecipient(address _newAddress) external onlyOwner(){ \n        require(_newAddress != address(0), \"0 address\"); \n        protocolFeeRecipient = _newAddress;\n        emit UpdateProtocolRecipient(_newAddress);}\n\n    // update/add new volatility oracles\n    function updateVolChain(address _underlyingAddress, VolatilityChain _newOracle) external onlyOwner{\n        require(_underlyingAddress != address(0), \"0addr\");\n        if(!underlyingList.contains(_underlyingAddress)){\n            underlyingList.add(_underlyingAddress);}\n        volatilityChainMap[_underlyingAddress] = _newOracle;}\n        // emit UpdateToken( _underlyingAddress, address(_newOracle));}\n    function getVolatilityChain(address _underlyingAddress) external view returns(VolatilityChain){\n        require(address(volatilityChainMap[_underlyingAddress]) != address(0), \"Oracle not registered\");\n        return volatilityChainMap[_underlyingAddress];}\n    \n    // update/get vol tokens.\n    function updateVolToken(address _underlyingAddress, uint256 _tenor, VolatilityToken _volToken) external onlyOwner{ \n        require((_volToken.tenor() == _tenor) && (_volToken.underlying() == _underlyingAddress) && (_volToken.exchange() == broker.exchange()), '-vE'); // make sure the exchange address is allowed\n        volatilityTokenMap[_underlyingAddress].set(_tenor, address(_volToken));}\n        // emit UpdateVolToken(_underlyingAddress, _tenor, address(_volToken)); }\n    function getVolatilityToken(address _underlyingAddress, uint256 _tenor) external view returns (VolatilityToken){\n        (bool _success, address _volToken) = volatilityTokenMap[_underlyingAddress].tryGet(_tenor);\n        require(_success, \"no vol token\");\n        return VolatilityToken(_volToken);}\n    \n    // update eligible routes\n    function updateEligibleRoute(address _route, bool _add) external onlyOwner returns(bool _result){\n        require(_route != address(0), \"empty address\");\n        if(_add) { _result = eligibleTradingRoutes.add(_route);}\n        else{ _result = eligibleTradingRoutes.remove(_route);}}\n        // emit UpdateRoute(_route, _add);}\n    function existEligibleRoute(address _route) external view returns(bool){\n        return eligibleTradingRoutes.contains(_route);}\n    \n    // update vol trading pool\n    function updateVolTradingPool(address _poolAddress, bool _add) external onlyOwner returns(bool _result){\n        require(_poolAddress != address(0), \"empty address\");\n        if(_add) { _result = volTradingPools.add(_poolAddress);}\n        else{ _result = volTradingPools.remove(_poolAddress);}}\n        // emit UpdateVolTradingPool(_poolAddress, _add);}\n    function existVolTradingPool(address _poolAddress) external view returns(bool){\n        return volTradingPools.contains(_poolAddress);}\n\n    // The following functions are overrides required by Solidity.\n\n    function _afterTokenTransfer(address from, address to, uint256 amount)\n        internal\n        override(ERC20, ERC20Votes)\n    {\n        super._afterTokenTransfer(from, to, amount);\n    }\n\n    function _mint(address to, uint256 amount)\n        internal\n        override(ERC20, ERC20Votes)\n    {\n        super._mint(to, amount);\n    }\n\n    function _burn(address account, uint256 amount)\n        internal\n        override(ERC20, ERC20Votes)\n    {\n        super._burn(account, amount);\n    }\n}\n",
  "sourcePath": "/Users/mac/Documents/GitHub/moret/contracts/governance/Moret.sol",
  "compiler": {
    "name": "solc",
    "version": "0.8.17+commit.8df45f5f.Emscripten.clang"
  },
  "schemaVersion": "3.4.3",
  "updatedAt": "2023-02-23T21:31:44.026Z",
  "networkType": "ethereum",
  "devdoc": {
    "custom:security-contact": "eight@moret.io",
    "kind": "dev",
    "methods": {
      "DOMAIN_SEPARATOR()": {
        "details": "See {IERC20Permit-DOMAIN_SEPARATOR}."
      },
      "allowance(address,address)": {
        "details": "See {IERC20-allowance}."
      },
      "approve(address,uint256)": {
        "details": "See {IERC20-approve}. NOTE: If `amount` is the maximum `uint256`, the allowance is not updated on `transferFrom`. This is semantically equivalent to an infinite approval. Requirements: - `spender` cannot be the zero address."
      },
      "balanceOf(address)": {
        "details": "See {IERC20-balanceOf}."
      },
      "checkpoints(address,uint32)": {
        "details": "Get the `pos`-th checkpoint for `account`."
      },
      "decimals()": {
        "details": "Returns the number of decimals used to get its user representation. For example, if `decimals` equals `2`, a balance of `505` tokens should be displayed to a user as `5.05` (`505 / 10 ** 2`). Tokens usually opt for a value of 18, imitating the relationship between Ether and Wei. This is the value {ERC20} uses, unless this function is overridden; NOTE: This information is only used for _display_ purposes: it in no way affects any of the arithmetic of the contract, including {IERC20-balanceOf} and {IERC20-transfer}."
      },
      "decreaseAllowance(address,uint256)": {
        "details": "Atomically decreases the allowance granted to `spender` by the caller. This is an alternative to {approve} that can be used as a mitigation for problems described in {IERC20-approve}. Emits an {Approval} event indicating the updated allowance. Requirements: - `spender` cannot be the zero address. - `spender` must have allowance for the caller of at least `subtractedValue`."
      },
      "delegate(address)": {
        "details": "Delegate votes from the sender to `delegatee`."
      },
      "delegateBySig(address,uint256,uint256,uint8,bytes32,bytes32)": {
        "details": "Delegates votes from signer to `delegatee`"
      },
      "delegates(address)": {
        "details": "Get the address `account` is currently delegating to."
      },
      "getPastTotalSupply(uint256)": {
        "details": "Retrieve the `totalSupply` at the end of `blockNumber`. Note, this value is the sum of all balances. It is but NOT the sum of all the delegated votes! Requirements: - `blockNumber` must have been already mined"
      },
      "getPastVotes(address,uint256)": {
        "details": "Retrieve the number of votes for `account` at the end of `blockNumber`. Requirements: - `blockNumber` must have been already mined"
      },
      "getVotes(address)": {
        "details": "Gets the current votes balance for `account`"
      },
      "increaseAllowance(address,uint256)": {
        "details": "Atomically increases the allowance granted to `spender` by the caller. This is an alternative to {approve} that can be used as a mitigation for problems described in {IERC20-approve}. Emits an {Approval} event indicating the updated allowance. Requirements: - `spender` cannot be the zero address."
      },
      "name()": {
        "details": "Returns the name of the token."
      },
      "nonces(address)": {
        "details": "See {IERC20Permit-nonces}."
      },
      "numCheckpoints(address)": {
        "details": "Get number of checkpoints for `account`."
      },
      "owner()": {
        "details": "Returns the address of the current owner."
      },
      "permit(address,address,uint256,uint256,uint8,bytes32,bytes32)": {
        "details": "See {IERC20Permit-permit}."
      },
      "renounceOwnership()": {
        "details": "Leaves the contract without owner. It will not be possible to call `onlyOwner` functions anymore. Can only be called by the current owner. NOTE: Renouncing ownership will leave the contract without an owner, thereby removing any functionality that is only available to the owner."
      },
      "symbol()": {
        "details": "Returns the symbol of the token, usually a shorter version of the name."
      },
      "totalSupply()": {
        "details": "See {IERC20-totalSupply}."
      },
      "transfer(address,uint256)": {
        "details": "See {IERC20-transfer}. Requirements: - `to` cannot be the zero address. - the caller must have a balance of at least `amount`."
      },
      "transferFrom(address,address,uint256)": {
        "details": "See {IERC20-transferFrom}. Emits an {Approval} event indicating the updated allowance. This is not required by the EIP. See the note at the beginning of {ERC20}. NOTE: Does not update the allowance if the current allowance is the maximum `uint256`. Requirements: - `from` and `to` cannot be the zero address. - `from` must have a balance of at least `amount`. - the caller must have allowance for ``from``'s tokens of at least `amount`."
      },
      "transferOwnership(address)": {
        "details": "Transfers ownership of the contract to a new account (`newOwner`). Can only be called by the current owner."
      }
    },
    "version": 1
  },
  "userdoc": {
    "kind": "user",
    "methods": {},
    "version": 1
  }
}