{
  "contractName": "Moret",
  "abi": [
    {
      "inputs": [
        {
          "internalType": "contract MoretBroker",
          "name": "_broker",
          "type": "address"
        }
      ],
      "stateMutability": "nonpayable",
      "type": "constructor"
    },
    {
      "anonymous": false,
      "inputs": [
        {
          "indexed": false,
          "internalType": "address",
          "name": "_address",
          "type": "address"
        },
        {
          "indexed": false,
          "internalType": "bool",
          "name": "_add",
          "type": "bool"
        }
      ],
      "name": "AddPool",
      "type": "event"
    },
    {
      "anonymous": false,
      "inputs": [
        {
          "indexed": true,
          "internalType": "address",
          "name": "owner",
          "type": "address"
        },
        {
          "indexed": true,
          "internalType": "address",
          "name": "spender",
          "type": "address"
        },
        {
          "indexed": false,
          "internalType": "uint256",
          "name": "value",
          "type": "uint256"
        }
      ],
      "name": "Approval",
      "type": "event"
    },
    {
      "anonymous": false,
      "inputs": [
        {
          "indexed": true,
          "internalType": "address",
          "name": "delegator",
          "type": "address"
        },
        {
          "indexed": true,
          "internalType": "address",
          "name": "fromDelegate",
          "type": "address"
        },
        {
          "indexed": true,
          "internalType": "address",
          "name": "toDelegate",
          "type": "address"
        }
      ],
      "name": "DelegateChanged",
      "type": "event"
    },
    {
      "anonymous": false,
      "inputs": [
        {
          "indexed": true,
          "internalType": "address",
          "name": "delegate",
          "type": "address"
        },
        {
          "indexed": false,
          "internalType": "uint256",
          "name": "previousBalance",
          "type": "uint256"
        },
        {
          "indexed": false,
          "internalType": "uint256",
          "name": "newBalance",
          "type": "uint256"
        }
      ],
      "name": "DelegateVotesChanged",
      "type": "event"
    },
    {
      "anonymous": false,
      "inputs": [
        {
          "indexed": false,
          "internalType": "address",
          "name": "_pool",
          "type": "address"
        },
        {
          "indexed": false,
          "internalType": "address",
          "name": "_sender",
          "type": "address"
        },
        {
          "indexed": false,
          "internalType": "uint256",
          "name": "_amount",
          "type": "uint256"
        },
        {
          "indexed": false,
          "internalType": "uint256",
          "name": "_moretAmount",
          "type": "uint256"
        }
      ],
      "name": "ExchangePoolTokens",
      "type": "event"
    },
    {
      "anonymous": false,
      "inputs": [
        {
          "indexed": true,
          "internalType": "address",
          "name": "previousOwner",
          "type": "address"
        },
        {
          "indexed": true,
          "internalType": "address",
          "name": "newOwner",
          "type": "address"
        }
      ],
      "name": "OwnershipTransferred",
      "type": "event"
    },
    {
      "anonymous": false,
      "inputs": [
        {
          "indexed": true,
          "internalType": "address",
          "name": "from",
          "type": "address"
        },
        {
          "indexed": true,
          "internalType": "address",
          "name": "to",
          "type": "address"
        },
        {
          "indexed": false,
          "internalType": "uint256",
          "name": "value",
          "type": "uint256"
        }
      ],
      "name": "Transfer",
      "type": "event"
    },
    {
      "anonymous": false,
      "inputs": [
        {
          "indexed": false,
          "internalType": "uint256",
          "name": "_fee",
          "type": "uint256"
        }
      ],
      "name": "UpdateProtocolFees",
      "type": "event"
    },
    {
      "anonymous": false,
      "inputs": [
        {
          "indexed": false,
          "internalType": "address",
          "name": "_address",
          "type": "address"
        }
      ],
      "name": "UpdateProtocolRecipient",
      "type": "event"
    },
    {
      "anonymous": false,
      "inputs": [
        {
          "indexed": false,
          "internalType": "address",
          "name": "_route",
          "type": "address"
        },
        {
          "indexed": false,
          "internalType": "bool",
          "name": "_addition",
          "type": "bool"
        }
      ],
      "name": "UpdateRoute",
      "type": "event"
    },
    {
      "anonymous": false,
      "inputs": [
        {
          "indexed": false,
          "internalType": "address",
          "name": "_underlying",
          "type": "address"
        },
        {
          "indexed": false,
          "internalType": "address",
          "name": "_oracle",
          "type": "address"
        }
      ],
      "name": "UpdateToken",
      "type": "event"
    },
    {
      "anonymous": false,
      "inputs": [
        {
          "indexed": false,
          "internalType": "address",
          "name": "_underlying",
          "type": "address"
        },
        {
          "indexed": false,
          "internalType": "uint256",
          "name": "_tenor",
          "type": "uint256"
        },
        {
          "indexed": false,
          "internalType": "address",
          "name": "_volToken",
          "type": "address"
        }
      ],
      "name": "UpdateVolToken",
      "type": "event"
    },
    {
      "anonymous": false,
      "inputs": [
        {
          "indexed": false,
          "internalType": "address",
          "name": "_address",
          "type": "address"
        },
        {
          "indexed": false,
          "internalType": "bool",
          "name": "_add",
          "type": "bool"
        }
      ],
      "name": "UpdateVolTradingPool",
      "type": "event"
    },
    {
      "anonymous": false,
      "inputs": [
        {
          "indexed": false,
          "internalType": "address",
          "name": "_pool",
          "type": "address"
        },
        {
          "indexed": false,
          "internalType": "uint256",
          "name": "_amount",
          "type": "uint256"
        }
      ],
      "name": "WithdrawPoolTokens",
      "type": "event"
    },
    {
      "inputs": [],
      "name": "DOMAIN_SEPARATOR",
      "outputs": [
        {
          "internalType": "bytes32",
          "name": "",
          "type": "bytes32"
        }
      ],
      "stateMutability": "view",
      "type": "function"
    },
    {
      "inputs": [
        {
          "internalType": "address",
          "name": "owner",
          "type": "address"
        },
        {
          "internalType": "address",
          "name": "spender",
          "type": "address"
        }
      ],
      "name": "allowance",
      "outputs": [
        {
          "internalType": "uint256",
          "name": "",
          "type": "uint256"
        }
      ],
      "stateMutability": "view",
      "type": "function"
    },
    {
      "inputs": [
        {
          "internalType": "address",
          "name": "spender",
          "type": "address"
        },
        {
          "internalType": "uint256",
          "name": "amount",
          "type": "uint256"
        }
      ],
      "name": "approve",
      "outputs": [
        {
          "internalType": "bool",
          "name": "",
          "type": "bool"
        }
      ],
      "stateMutability": "nonpayable",
      "type": "function"
    },
    {
      "inputs": [
        {
          "internalType": "address",
          "name": "account",
          "type": "address"
        }
      ],
      "name": "balanceOf",
      "outputs": [
        {
          "internalType": "uint256",
          "name": "",
          "type": "uint256"
        }
      ],
      "stateMutability": "view",
      "type": "function"
    },
    {
      "inputs": [],
      "name": "broker",
      "outputs": [
        {
          "internalType": "contract MoretBroker",
          "name": "",
          "type": "address"
        }
      ],
      "stateMutability": "view",
      "type": "function"
    },
    {
      "inputs": [
        {
          "internalType": "address",
          "name": "account",
          "type": "address"
        },
        {
          "internalType": "uint32",
          "name": "pos",
          "type": "uint32"
        }
      ],
      "name": "checkpoints",
      "outputs": [
        {
          "components": [
            {
              "internalType": "uint32",
              "name": "fromBlock",
              "type": "uint32"
            },
            {
              "internalType": "uint224",
              "name": "votes",
              "type": "uint224"
            }
          ],
          "internalType": "struct ERC20Votes.Checkpoint",
          "name": "",
          "type": "tuple"
        }
      ],
      "stateMutability": "view",
      "type": "function"
    },
    {
      "inputs": [],
      "name": "decimals",
      "outputs": [
        {
          "internalType": "uint8",
          "name": "",
          "type": "uint8"
        }
      ],
      "stateMutability": "view",
      "type": "function"
    },
    {
      "inputs": [
        {
          "internalType": "address",
          "name": "spender",
          "type": "address"
        },
        {
          "internalType": "uint256",
          "name": "subtractedValue",
          "type": "uint256"
        }
      ],
      "name": "decreaseAllowance",
      "outputs": [
        {
          "internalType": "bool",
          "name": "",
          "type": "bool"
        }
      ],
      "stateMutability": "nonpayable",
      "type": "function"
    },
    {
      "inputs": [
        {
          "internalType": "address",
          "name": "delegatee",
          "type": "address"
        }
      ],
      "name": "delegate",
      "outputs": [],
      "stateMutability": "nonpayable",
      "type": "function"
    },
    {
      "inputs": [
        {
          "internalType": "address",
          "name": "delegatee",
          "type": "address"
        },
        {
          "internalType": "uint256",
          "name": "nonce",
          "type": "uint256"
        },
        {
          "internalType": "uint256",
          "name": "expiry",
          "type": "uint256"
        },
        {
          "internalType": "uint8",
          "name": "v",
          "type": "uint8"
        },
        {
          "internalType": "bytes32",
          "name": "r",
          "type": "bytes32"
        },
        {
          "internalType": "bytes32",
          "name": "s",
          "type": "bytes32"
        }
      ],
      "name": "delegateBySig",
      "outputs": [],
      "stateMutability": "nonpayable",
      "type": "function"
    },
    {
      "inputs": [
        {
          "internalType": "address",
          "name": "account",
          "type": "address"
        }
      ],
      "name": "delegates",
      "outputs": [
        {
          "internalType": "address",
          "name": "",
          "type": "address"
        }
      ],
      "stateMutability": "view",
      "type": "function"
    },
    {
      "inputs": [],
      "name": "funding",
      "outputs": [
        {
          "internalType": "contract ERC20",
          "name": "",
          "type": "address"
        }
      ],
      "stateMutability": "view",
      "type": "function"
    },
    {
      "inputs": [
        {
          "internalType": "uint256",
          "name": "blockNumber",
          "type": "uint256"
        }
      ],
      "name": "getPastTotalSupply",
      "outputs": [
        {
          "internalType": "uint256",
          "name": "",
          "type": "uint256"
        }
      ],
      "stateMutability": "view",
      "type": "function"
    },
    {
      "inputs": [
        {
          "internalType": "address",
          "name": "account",
          "type": "address"
        },
        {
          "internalType": "uint256",
          "name": "blockNumber",
          "type": "uint256"
        }
      ],
      "name": "getPastVotes",
      "outputs": [
        {
          "internalType": "uint256",
          "name": "",
          "type": "uint256"
        }
      ],
      "stateMutability": "view",
      "type": "function"
    },
    {
      "inputs": [
        {
          "internalType": "address",
          "name": "account",
          "type": "address"
        }
      ],
      "name": "getVotes",
      "outputs": [
        {
          "internalType": "uint256",
          "name": "",
          "type": "uint256"
        }
      ],
      "stateMutability": "view",
      "type": "function"
    },
    {
      "inputs": [
        {
          "internalType": "address",
          "name": "spender",
          "type": "address"
        },
        {
          "internalType": "uint256",
          "name": "addedValue",
          "type": "uint256"
        }
      ],
      "name": "increaseAllowance",
      "outputs": [
        {
          "internalType": "bool",
          "name": "",
          "type": "bool"
        }
      ],
      "stateMutability": "nonpayable",
      "type": "function"
    },
    {
      "inputs": [],
      "name": "name",
      "outputs": [
        {
          "internalType": "string",
          "name": "",
          "type": "string"
        }
      ],
      "stateMutability": "view",
      "type": "function"
    },
    {
      "inputs": [
        {
          "internalType": "address",
          "name": "owner",
          "type": "address"
        }
      ],
      "name": "nonces",
      "outputs": [
        {
          "internalType": "uint256",
          "name": "",
          "type": "uint256"
        }
      ],
      "stateMutability": "view",
      "type": "function"
    },
    {
      "inputs": [
        {
          "internalType": "address",
          "name": "account",
          "type": "address"
        }
      ],
      "name": "numCheckpoints",
      "outputs": [
        {
          "internalType": "uint32",
          "name": "",
          "type": "uint32"
        }
      ],
      "stateMutability": "view",
      "type": "function"
    },
    {
      "inputs": [],
      "name": "owner",
      "outputs": [
        {
          "internalType": "address",
          "name": "",
          "type": "address"
        }
      ],
      "stateMutability": "view",
      "type": "function"
    },
    {
      "inputs": [
        {
          "internalType": "address",
          "name": "owner",
          "type": "address"
        },
        {
          "internalType": "address",
          "name": "spender",
          "type": "address"
        },
        {
          "internalType": "uint256",
          "name": "value",
          "type": "uint256"
        },
        {
          "internalType": "uint256",
          "name": "deadline",
          "type": "uint256"
        },
        {
          "internalType": "uint8",
          "name": "v",
          "type": "uint8"
        },
        {
          "internalType": "bytes32",
          "name": "r",
          "type": "bytes32"
        },
        {
          "internalType": "bytes32",
          "name": "s",
          "type": "bytes32"
        }
      ],
      "name": "permit",
      "outputs": [],
      "stateMutability": "nonpayable",
      "type": "function"
    },
    {
      "inputs": [],
      "name": "protocolFee",
      "outputs": [
        {
          "internalType": "uint256",
          "name": "",
          "type": "uint256"
        }
      ],
      "stateMutability": "view",
      "type": "function"
    },
    {
      "inputs": [],
      "name": "protocolFeeRecipient",
      "outputs": [
        {
          "internalType": "address",
          "name": "",
          "type": "address"
        }
      ],
      "stateMutability": "view",
      "type": "function"
    },
    {
      "inputs": [],
      "name": "renounceOwnership",
      "outputs": [],
      "stateMutability": "nonpayable",
      "type": "function"
    },
    {
      "inputs": [],
      "name": "symbol",
      "outputs": [
        {
          "internalType": "string",
          "name": "",
          "type": "string"
        }
      ],
      "stateMutability": "view",
      "type": "function"
    },
    {
      "inputs": [],
      "name": "totalSupply",
      "outputs": [
        {
          "internalType": "uint256",
          "name": "",
          "type": "uint256"
        }
      ],
      "stateMutability": "view",
      "type": "function"
    },
    {
      "inputs": [
        {
          "internalType": "address",
          "name": "to",
          "type": "address"
        },
        {
          "internalType": "uint256",
          "name": "amount",
          "type": "uint256"
        }
      ],
      "name": "transfer",
      "outputs": [
        {
          "internalType": "bool",
          "name": "",
          "type": "bool"
        }
      ],
      "stateMutability": "nonpayable",
      "type": "function"
    },
    {
      "inputs": [
        {
          "internalType": "address",
          "name": "from",
          "type": "address"
        },
        {
          "internalType": "address",
          "name": "to",
          "type": "address"
        },
        {
          "internalType": "uint256",
          "name": "amount",
          "type": "uint256"
        }
      ],
      "name": "transferFrom",
      "outputs": [
        {
          "internalType": "bool",
          "name": "",
          "type": "bool"
        }
      ],
      "stateMutability": "nonpayable",
      "type": "function"
    },
    {
      "inputs": [
        {
          "internalType": "address",
          "name": "newOwner",
          "type": "address"
        }
      ],
      "name": "transferOwnership",
      "outputs": [],
      "stateMutability": "nonpayable",
      "type": "function"
    },
    {
      "inputs": [
        {
          "internalType": "address",
          "name": "_to",
          "type": "address"
        },
        {
          "internalType": "uint256",
          "name": "_amount",
          "type": "uint256"
        }
      ],
      "name": "mint",
      "outputs": [],
      "stateMutability": "nonpayable",
      "type": "function"
    },
    {
      "inputs": [
        {
          "internalType": "uint256",
          "name": "_amount",
          "type": "uint256"
        }
      ],
      "name": "divest",
      "outputs": [],
      "stateMutability": "nonpayable",
      "type": "function"
    },
    {
      "inputs": [
        {
          "internalType": "contract Pool",
          "name": "_pool",
          "type": "address"
        },
        {
          "internalType": "uint256",
          "name": "_amount",
          "type": "uint256"
        }
      ],
      "name": "withdraw",
      "outputs": [],
      "stateMutability": "nonpayable",
      "type": "function"
    },
    {
      "inputs": [
        {
          "internalType": "uint256",
          "name": "_newFee",
          "type": "uint256"
        }
      ],
      "name": "setProtocolFee",
      "outputs": [],
      "stateMutability": "nonpayable",
      "type": "function"
    },
    {
      "inputs": [
        {
          "internalType": "address",
          "name": "_newAddress",
          "type": "address"
        }
      ],
      "name": "setProtocolRecipient",
      "outputs": [],
      "stateMutability": "nonpayable",
      "type": "function"
    },
    {
      "inputs": [],
      "name": "getAllUnderlyings",
      "outputs": [
        {
          "internalType": "address[]",
          "name": "",
          "type": "address[]"
        }
      ],
      "stateMutability": "view",
      "type": "function"
    },
    {
      "inputs": [
        {
          "internalType": "address",
          "name": "_underlyingAddress",
          "type": "address"
        },
        {
          "internalType": "contract VolatilityChain",
          "name": "_newOracle",
          "type": "address"
        }
      ],
      "name": "updateVolChain",
      "outputs": [],
      "stateMutability": "nonpayable",
      "type": "function"
    },
    {
      "inputs": [
        {
          "internalType": "address",
          "name": "_underlyingAddress",
          "type": "address"
        }
      ],
      "name": "getVolatilityChain",
      "outputs": [
        {
          "internalType": "contract VolatilityChain",
          "name": "",
          "type": "address"
        }
      ],
      "stateMutability": "view",
      "type": "function"
    },
    {
      "inputs": [
        {
          "internalType": "address",
          "name": "_underlyingAddress",
          "type": "address"
        },
        {
          "internalType": "uint256",
          "name": "_tenor",
          "type": "uint256"
        },
        {
          "internalType": "contract VolatilityToken",
          "name": "_volToken",
          "type": "address"
        }
      ],
      "name": "updateVolToken",
      "outputs": [],
      "stateMutability": "nonpayable",
      "type": "function"
    },
    {
      "inputs": [
        {
          "internalType": "address",
          "name": "_underlyingAddress",
          "type": "address"
        },
        {
          "internalType": "uint256",
          "name": "_tenor",
          "type": "uint256"
        }
      ],
      "name": "getVolatilityToken",
      "outputs": [
        {
          "internalType": "contract VolatilityToken",
          "name": "",
          "type": "address"
        }
      ],
      "stateMutability": "view",
      "type": "function"
    },
    {
      "inputs": [
        {
          "internalType": "address",
          "name": "_route",
          "type": "address"
        },
        {
          "internalType": "bool",
          "name": "_add",
          "type": "bool"
        }
      ],
      "name": "updateEligibleRoute",
      "outputs": [
        {
          "internalType": "bool",
          "name": "_result",
          "type": "bool"
        }
      ],
      "stateMutability": "nonpayable",
      "type": "function"
    },
    {
      "inputs": [
        {
          "internalType": "address",
          "name": "_route",
          "type": "address"
        }
      ],
      "name": "existEligibleRoute",
      "outputs": [
        {
          "internalType": "bool",
          "name": "",
          "type": "bool"
        }
      ],
      "stateMutability": "view",
      "type": "function"
    },
    {
      "inputs": [
        {
          "internalType": "address",
          "name": "_poolAddress",
          "type": "address"
        },
        {
          "internalType": "bool",
          "name": "_add",
          "type": "bool"
        }
      ],
      "name": "updateVolTradingPool",
      "outputs": [
        {
          "internalType": "bool",
          "name": "_result",
          "type": "bool"
        }
      ],
      "stateMutability": "nonpayable",
      "type": "function"
    },
    {
      "inputs": [
        {
          "internalType": "address",
          "name": "_poolAddress",
          "type": "address"
        }
      ],
      "name": "existVolTradingPool",
      "outputs": [
        {
          "internalType": "bool",
          "name": "",
          "type": "bool"
        }
      ],
      "stateMutability": "view",
      "type": "function"
    }
  ],
  "bytecode": "0x6101406040526611c37937e080006013553480156200001d57600080fd5b506040516200767638038062007676833981810160405281019062000043919062000e1b565b6040518060400160405280600581526020017f4d6f726574000000000000000000000000000000000000000000000000000000815250806040518060400160405280600181526020017f31000000000000000000000000000000000000000000000000000000000000008152506040518060400160405280600581526020017f4d6f7265740000000000000000000000000000000000000000000000000000008152506040518060400160405280600381526020017f4d4f52000000000000000000000000000000000000000000000000000000000081525081600390816200012d9190620010c7565b5080600490816200013f9190620010c7565b50505062000162620001566200036c60201b60201c565b6200037460201b60201c565b60008280519060200120905060008280519060200120905060007f8b73c3c69bb8fe3d512ecc4cf759cc79239f7b179b0ffacaa9a75d522b39400f90508260e081815250508161010081815250504660a08181525050620001cb8184846200043a60201b60201c565b608081815250503073ffffffffffffffffffffffffffffffffffffffff1660c08173ffffffffffffffffffffffffffffffffffffffff168152505080610120818152505050505050505080601660006101000a81548173ffffffffffffffffffffffffffffffffffffffff021916908373ffffffffffffffffffffffffffffffffffffffff1602179055508073ffffffffffffffffffffffffffffffffffffffff1663cb4c86b76040518163ffffffff1660e01b8152600401602060405180830381865afa158015620002a2573d6000803e3d6000fd5b505050506040513d601f19601f82011682018060405250810190620002c89190620011f3565b601560006101000a81548173ffffffffffffffffffffffffffffffffffffffff021916908373ffffffffffffffffffffffffffffffffffffffff160217905550620003243369d3c21bcecceda10000006200047660201b60201c565b33601460006101000a81548173ffffffffffffffffffffffffffffffffffffffff021916908373ffffffffffffffffffffffffffffffffffffffff1602179055505062001628565b600033905090565b6000600560009054906101000a900473ffffffffffffffffffffffffffffffffffffffff16905081600560006101000a81548173ffffffffffffffffffffffffffffffffffffffff021916908373ffffffffffffffffffffffffffffffffffffffff1602179055508173ffffffffffffffffffffffffffffffffffffffff168173ffffffffffffffffffffffffffffffffffffffff167f8be0079c531659141344cd1fd0a4f28419497f9722a3daafe3b4186f6b6457e060405160405180910390a35050565b600083838346306040516020016200045795949392919062001262565b6040516020818303038152906040528051906020012090509392505050565b6200048d82826200049160201b6200258b1760201c565b5050565b620004a882826200054f60201b620026181760201c565b620004b8620006c760201b60201c565b7bffffffffffffffffffffffffffffffffffffffffffffffffffffffff16620004e6620006eb60201b60201c565b11156200052a576040517f08c379a0000000000000000000000000000000000000000000000000000000008152600401620005219062001346565b60405180910390fd5b62000549600a620006f560201b6200277717836200070d60201b60201c565b50505050565b600073ffffffffffffffffffffffffffffffffffffffff168273ffffffffffffffffffffffffffffffffffffffff1603620005c1576040517f08c379a0000000000000000000000000000000000000000000000000000000008152600401620005b890620013b8565b60405180910390fd5b620005d560008383620009be60201b60201c565b8060026000828254620005e9919062001409565b92505081905550806000808473ffffffffffffffffffffffffffffffffffffffff1673ffffffffffffffffffffffffffffffffffffffff168152602001908152602001600020600082825462000640919062001409565b925050819055508173ffffffffffffffffffffffffffffffffffffffff16600073ffffffffffffffffffffffffffffffffffffffff167fddf252ad1be2c89b69c2b068fc378daa952ba7f163c4a11628f55a4df523b3ef83604051620006a7919062001444565b60405180910390a3620006c360008383620009c360201b60201c565b5050565b60007bffffffffffffffffffffffffffffffffffffffffffffffffffffffff905090565b6000600254905090565b6000818362000705919062001409565b905092915050565b6000806000858054905090506000811462000782578560018262000732919062001461565b815481106200074657620007456200149c565b5b9060005260206000200160000160049054906101000a90047bffffffffffffffffffffffffffffffffffffffffffffffffffffffff1662000785565b60005b7bffffffffffffffffffffffffffffffffffffffffffffffffffffffff169250620007b183858760201c565b91506000811180156200080a57504386600183620007d0919062001461565b81548110620007e457620007e36200149c565b5b9060005260206000200160000160009054906101000a900463ffffffff1663ffffffff16145b15620008ab576200082682620009e060201b6200278d1760201c565b8660018362000836919062001461565b815481106200084a57620008496200149c565b5b9060005260206000200160000160046101000a8154817bffffffffffffffffffffffffffffffffffffffffffffffffffffffff02191690837bffffffffffffffffffffffffffffffffffffffffffffffffffffffff160217905550620009b5565b856040518060400160405280620008cd4362000a4e60201b620027f81760201c565b63ffffffff168152602001620008ee85620009e060201b6200278d1760201c565b7bffffffffffffffffffffffffffffffffffffffffffffffffffffffff168152509080600181540180825580915050600190039060005260206000200160009091909190915060008201518160000160006101000a81548163ffffffff021916908363ffffffff16021790555060208201518160000160046101000a8154817bffffffffffffffffffffffffffffffffffffffffffffffffffffffff02191690837bffffffffffffffffffffffffffffffffffffffffffffffffffffffff16021790555050505b50935093915050565b505050565b620009db83838362000aa460201b6200284b1760201c565b505050565b60007bffffffffffffffffffffffffffffffffffffffffffffffffffffffff801682111562000a46576040517f08c379a000000000000000000000000000000000000000000000000000000000815260040162000a3d9062001541565b60405180910390fd5b819050919050565b600063ffffffff801682111562000a9c576040517f08c379a000000000000000000000000000000000000000000000000000000000815260040162000a9390620015d9565b60405180910390fd5b819050919050565b62000abc83838362000af460201b620028761760201c565b62000aef62000ad18462000af960201b60201c565b62000ae28462000af960201b60201c565b8362000b6260201b60201c565b505050565b505050565b6000600860008373ffffffffffffffffffffffffffffffffffffffff1673ffffffffffffffffffffffffffffffffffffffff16815260200190815260200160002060009054906101000a900473ffffffffffffffffffffffffffffffffffffffff169050919050565b8173ffffffffffffffffffffffffffffffffffffffff168373ffffffffffffffffffffffffffffffffffffffff161415801562000b9f5750600081115b1562000d8057600073ffffffffffffffffffffffffffffffffffffffff168373ffffffffffffffffffffffffffffffffffffffff161462000c925760008062000c39600960008773ffffffffffffffffffffffffffffffffffffffff1673ffffffffffffffffffffffffffffffffffffffff16815260200190815260200160002062000d8560201b6200287b17856200070d60201b60201c565b915091508473ffffffffffffffffffffffffffffffffffffffff167fdec2bacdd2f05b59de34da9b523dff8be42e5e38e818c82fdb0bae774387a724838360405162000c87929190620015fb565b60405180910390a250505b600073ffffffffffffffffffffffffffffffffffffffff168273ffffffffffffffffffffffffffffffffffffffff161462000d7f5760008062000d26600960008673ffffffffffffffffffffffffffffffffffffffff1673ffffffffffffffffffffffffffffffffffffffff168152602001908152602001600020620006f560201b6200277717856200070d60201b60201c565b915091508373ffffffffffffffffffffffffffffffffffffffff167fdec2bacdd2f05b59de34da9b523dff8be42e5e38e818c82fdb0bae774387a724838360405162000d74929190620015fb565b60405180910390a250505b5b505050565b6000818362000d95919062001461565b905092915050565b600080fd5b600073ffffffffffffffffffffffffffffffffffffffff82169050919050565b600062000dcf8262000da2565b9050919050565b600062000de38262000dc2565b9050919050565b62000df58162000dd6565b811462000e0157600080fd5b50565b60008151905062000e158162000dea565b92915050565b60006020828403121562000e345762000e3362000d9d565b5b600062000e448482850162000e04565b91505092915050565b600081519050919050565b7f4e487b7100000000000000000000000000000000000000000000000000000000600052604160045260246000fd5b7f4e487b7100000000000000000000000000000000000000000000000000000000600052602260045260246000fd5b6000600282049050600182168062000ecf57607f821691505b60208210810362000ee55762000ee462000e87565b5b50919050565b60008190508160005260206000209050919050565b60006020601f8301049050919050565b600082821b905092915050565b60006008830262000f4f7fffffffffffffffffffffffffffffffffffffffffffffffffffffffffffffffff8262000f10565b62000f5b868362000f10565b95508019841693508086168417925050509392505050565b6000819050919050565b6000819050919050565b600062000fa862000fa262000f9c8462000f73565b62000f7d565b62000f73565b9050919050565b6000819050919050565b62000fc48362000f87565b62000fdc62000fd38262000faf565b84845462000f1d565b825550505050565b600090565b62000ff362000fe4565b6200100081848462000fb9565b505050565b5b8181101562001028576200101c60008262000fe9565b60018101905062001006565b5050565b601f8211156200107757620010418162000eeb565b6200104c8462000f00565b810160208510156200105c578190505b620010746200106b8562000f00565b83018262001005565b50505b505050565b600082821c905092915050565b60006200109c600019846008026200107c565b1980831691505092915050565b6000620010b7838362001089565b9150826002028217905092915050565b620010d28262000e4d565b67ffffffffffffffff811115620010ee57620010ed62000e58565b5b620010fa825462000eb6565b620011078282856200102c565b600060209050601f8311600181146200113f57600084156200112a578287015190505b620011368582620010a9565b865550620011a6565b601f1984166200114f8662000eeb565b60005b82811015620011795784890151825560018201915060208501945060208101905062001152565b8683101562001199578489015162001195601f89168262001089565b8355505b6001600288020188555050505b505050505050565b6000620011bb8262000dc2565b9050919050565b620011cd81620011ae565b8114620011d957600080fd5b50565b600081519050620011ed81620011c2565b92915050565b6000602082840312156200120c576200120b62000d9d565b5b60006200121c84828501620011dc565b91505092915050565b6000819050919050565b6200123a8162001225565b82525050565b6200124b8162000f73565b82525050565b6200125c8162000dc2565b82525050565b600060a0820190506200127960008301886200122f565b6200128860208301876200122f565b6200129760408301866200122f565b620012a6606083018562001240565b620012b5608083018462001251565b9695505050505050565b600082825260208201905092915050565b7f4552433230566f7465733a20746f74616c20737570706c79207269736b73206f60008201527f766572666c6f77696e6720766f74657300000000000000000000000000000000602082015250565b60006200132e603083620012bf565b91506200133b82620012d0565b604082019050919050565b6000602082019050818103600083015262001361816200131f565b9050919050565b7f45524332303a206d696e7420746f20746865207a65726f206164647265737300600082015250565b6000620013a0601f83620012bf565b9150620013ad8262001368565b602082019050919050565b60006020820190508181036000830152620013d38162001391565b9050919050565b7f4e487b7100000000000000000000000000000000000000000000000000000000600052601160045260246000fd5b6000620014168262000f73565b9150620014238362000f73565b92508282019050808211156200143e576200143d620013da565b5b92915050565b60006020820190506200145b600083018462001240565b92915050565b60006200146e8262000f73565b91506200147b8362000f73565b9250828203905081811115620014965762001495620013da565b5b92915050565b7f4e487b7100000000000000000000000000000000000000000000000000000000600052603260045260246000fd5b7f53616665436173743a2076616c756520646f65736e27742066697420696e203260008201527f3234206269747300000000000000000000000000000000000000000000000000602082015250565b600062001529602783620012bf565b91506200153682620014cb565b604082019050919050565b600060208201905081810360008301526200155c816200151a565b9050919050565b7f53616665436173743a2076616c756520646f65736e27742066697420696e203360008201527f3220626974730000000000000000000000000000000000000000000000000000602082015250565b6000620015c1602683620012bf565b9150620015ce8262001563565b604082019050919050565b60006020820190508181036000830152620015f481620015b2565b9050919050565b600060408201905062001612600083018562001240565b62001621602083018462001240565b9392505050565b60805160a05160c05160e0516101005161012051615ffe620016786000396000612e4b01526000612e8d01526000612e6c01526000612da101526000612df701526000612e200152615ffe6000f3fe608060405234801561001057600080fd5b50600436106102695760003560e01c80638ca1799511610151578063c3cda520116100c3578063dd62ed3e11610087578063dd62ed3e146107d2578063edabed8f14610802578063ef5ddd3a1461081e578063f1127ed81461084e578063f2fde38b1461087e578063f3fef3a31461089a57610269565b8063c3cda5201461072e578063c3f80bc41461074a578063cb4c86b714610768578063d505accf14610786578063d5fb0a2a146107a257610269565b80639ab24eb0116101155780639ab24eb014610646578063a457c2d714610676578063a9059cbb146106a6578063abff0110146106d6578063b0e21e8a146106f4578063bb3260e41461071257610269565b80638ca179951461058e5780638da5cb5b146105aa5780638e539e8c146105c857806391d0094c146105f857806395d89b411461062857610269565b80633a46b1a8116101ea5780636cce8916116101ae5780636cce8916146104a85780636fcfff45146104d857806370a0823114610508578063715018a614610538578063787dce3d146105425780637ecebe001461055e57610269565b80633a46b1a8146103f257806340c10f1914610422578063587cde1e1461043e5780635c19a95c1461046e57806364df049e1461048a57610269565b806323b872dd1161023157806323b872dd14610326578063255fdcff14610356578063313ce567146103865780633644e515146103a457806339509351146103c257610269565b806306fdde031461026e57806307ba8a541461028c578063095ea7b3146102a857806315dc2e9d146102d857806318160ddd14610308575b600080fd5b6102766108b6565b604051610283919061411a565b60405180910390f35b6102a660048036038101906102a1919061419f565b610948565b005b6102c260048036038101906102bd9190614202565b610aae565b6040516102cf919061425d565b60405180910390f35b6102f260048036038101906102ed919061419f565b610ad1565b6040516102ff91906142d7565b60405180910390f35b610310610c07565b60405161031d9190614301565b60405180910390f35b610340600480360381019061033b919061431c565b610c11565b60405161034d919061425d565b60405180910390f35b610370600480360381019061036b919061419f565b610c40565b60405161037d919061425d565b60405180910390f35b61038e610c5d565b60405161039b919061438b565b60405180910390f35b6103ac610c66565b6040516103b991906143bf565b60405180910390f35b6103dc60048036038101906103d79190614202565b610c75565b6040516103e9919061425d565b60405180910390f35b61040c60048036038101906104079190614202565b610cac565b6040516104199190614301565b60405180910390f35b61043c60048036038101906104379190614202565b610d40565b005b6104586004803603810190610453919061419f565b610dde565b60405161046591906143e9565b60405180910390f35b6104886004803603810190610483919061419f565b610e47565b005b610492610e5b565b60405161049f91906143e9565b60405180910390f35b6104c260048036038101906104bd9190614202565b610e81565b6040516104cf9190614425565b60405180910390f35b6104f260048036038101906104ed919061419f565b610f26565b6040516104ff919061445f565b60405180910390f35b610522600480360381019061051d919061419f565b610f7a565b60405161052f9190614301565b60405180910390f35b610540610fc2565b005b61055c6004803603810190610557919061447a565b61104a565b005b6105786004803603810190610573919061419f565b611107565b6040516105859190614301565b60405180910390f35b6105a860048036038101906105a3919061447a565b611157565b005b6105b261132a565b6040516105bf91906143e9565b60405180910390f35b6105e260048036038101906105dd919061447a565b611354565b6040516105ef9190614301565b60405180910390f35b610612600480360381019061060d91906144d3565b6113aa565b60405161061f919061425d565b60405180910390f35b6106306114d5565b60405161063d919061411a565b60405180910390f35b610660600480360381019061065b919061419f565b611567565b60405161066d9190614301565b60405180910390f35b610690600480360381019061068b9190614202565b611678565b60405161069d919061425d565b60405180910390f35b6106c060048036038101906106bb9190614202565b6116ef565b6040516106cd919061425d565b60405180910390f35b6106de611712565b6040516106eb9190614534565b60405180910390f35b6106fc611738565b6040516107099190614301565b60405180910390f35b61072c6004803603810190610727919061458d565b61173e565b005b61074860048036038101906107439190614625565b6118d9565b005b6107526119dd565b60405161075f9190614770565b60405180910390f35b6107706119ee565b60405161077d91906147b3565b60405180910390f35b6107a0600480360381019061079b91906147ce565b611a14565b005b6107bc60048036038101906107b7919061419f565b611b56565b6040516107c9919061425d565b60405180910390f35b6107ec60048036038101906107e79190614870565b611b73565b6040516107f99190614301565b60405180910390f35b61081c600480360381019061081791906148ee565b611bfa565b005b610838600480360381019061083391906144d3565b611f59565b604051610845919061425d565b60405180910390f35b6108686004803603810190610863919061496d565b612084565b6040516108759190614a22565b60405180910390f35b6108986004803603810190610893919061419f565b612194565b005b6108b460048036038101906108af9190614a7b565b61228b565b005b6060600380546108c590614aea565b80601f01602080910402602001604051908101604052809291908181526020018280546108f190614aea565b801561093e5780601f106109135761010080835404028352916020019161093e565b820191906000526020600020905b81548152906001019060200180831161092157829003601f168201915b5050505050905090565b610950612891565b73ffffffffffffffffffffffffffffffffffffffff1661096e61132a565b73ffffffffffffffffffffffffffffffffffffffff16146109c4576040517f08c379a00000000000000000000000000000000000000000000000000000000081526004016109bb90614b67565b60405180910390fd5b600073ffffffffffffffffffffffffffffffffffffffff168173ffffffffffffffffffffffffffffffffffffffff1603610a33576040517f08c379a0000000000000000000000000000000000000000000000000000000008152600401610a2a90614bd3565b60405180910390fd5b80601460006101000a81548173ffffffffffffffffffffffffffffffffffffffff021916908373ffffffffffffffffffffffffffffffffffffffff1602179055507fa9f75cf2de5b15a98bd567e6444126e0547c957be825eea50c05fdf78ba59f1e81604051610aa391906143e9565b60405180910390a150565b600080610ab9612891565b9050610ac6818585612899565b600191505092915050565b60008073ffffffffffffffffffffffffffffffffffffffff16600d60008473ffffffffffffffffffffffffffffffffffffffff1673ffffffffffffffffffffffffffffffffffffffff16815260200190815260200160002060009054906101000a900473ffffffffffffffffffffffffffffffffffffffff1673ffffffffffffffffffffffffffffffffffffffff1603610ba0576040517f08c379a0000000000000000000000000000000000000000000000000000000008152600401610b9790614c3f565b60405180910390fd5b600d60008373ffffffffffffffffffffffffffffffffffffffff1673ffffffffffffffffffffffffffffffffffffffff16815260200190815260200160002060009054906101000a900473ffffffffffffffffffffffffffffffffffffffff169050919050565b6000600254905090565b600080610c1c612891565b9050610c29858285612a62565b610c34858585612aee565b60019150509392505050565b6000610c56826011612d6d90919063ffffffff16565b9050919050565b60006012905090565b6000610c70612d9d565b905090565b600080610c80612891565b9050610ca1818585610c928589611b73565b610c9c9190614c8e565b612899565b600191505092915050565b6000438210610cf0576040517f08c379a0000000000000000000000000000000000000000000000000000000008152600401610ce790614d0e565b60405180910390fd5b610d38600960008573ffffffffffffffffffffffffffffffffffffffff1673ffffffffffffffffffffffffffffffffffffffff16815260200190815260200160002083612eb7565b905092915050565b3373ffffffffffffffffffffffffffffffffffffffff16601660009054906101000a900473ffffffffffffffffffffffffffffffffffffffff1673ffffffffffffffffffffffffffffffffffffffff1614610dd0576040517f08c379a0000000000000000000000000000000000000000000000000000000008152600401610dc790614d7a565b60405180910390fd5b610dda8282612fc3565b5050565b6000600860008373ffffffffffffffffffffffffffffffffffffffff1673ffffffffffffffffffffffffffffffffffffffff16815260200190815260200160002060009054906101000a900473ffffffffffffffffffffffffffffffffffffffff169050919050565b610e58610e52612891565b82612fd1565b50565b601460009054906101000a900473ffffffffffffffffffffffffffffffffffffffff1681565b6000806000610ed784600e60008873ffffffffffffffffffffffffffffffffffffffff1673ffffffffffffffffffffffffffffffffffffffff1681526020019081526020016000206130eb90919063ffffffff16565b9150915081610f1b576040517f08c379a0000000000000000000000000000000000000000000000000000000008152600401610f1290614de6565b60405180910390fd5b809250505092915050565b6000610f73600960008473ffffffffffffffffffffffffffffffffffffffff1673ffffffffffffffffffffffffffffffffffffffff168152602001908152602001600020805490506127f8565b9050919050565b60008060008373ffffffffffffffffffffffffffffffffffffffff1673ffffffffffffffffffffffffffffffffffffffff168152602001908152602001600020549050919050565b610fca612891565b73ffffffffffffffffffffffffffffffffffffffff16610fe861132a565b73ffffffffffffffffffffffffffffffffffffffff161461103e576040517f08c379a000000000000000000000000000000000000000000000000000000000815260040161103590614b67565b60405180910390fd5b6110486000613117565b565b611052612891565b73ffffffffffffffffffffffffffffffffffffffff1661107061132a565b73ffffffffffffffffffffffffffffffffffffffff16146110c6576040517f08c379a00000000000000000000000000000000000000000000000000000000081526004016110bd90614b67565b60405180910390fd5b806013819055507f29472a82a52b1caa40964580caee03ad34e2750d3051c517527a5ef27eb58b30816040516110fc9190614301565b60405180910390a150565b6000611150600660008473ffffffffffffffffffffffffffffffffffffffff1673ffffffffffffffffffffffffffffffffffffffff1681526020019081526020016000206131dd565b9050919050565b60008173__MathLib_______________________________63b3947c179091601560009054906101000a900473ffffffffffffffffffffffffffffffffffffffff1673ffffffffffffffffffffffffffffffffffffffff166370a08231306040518263ffffffff1660e01b81526004016111d191906143e9565b602060405180830381865afa1580156111ee573d6000803e3d6000fd5b505050506040513d601f19601f820116820180604052508101906112129190614e1b565b61121a610c07565b6040518463ffffffff1660e01b815260040161123893929190614e57565b602060405180830381865af4158015611255573d6000803e3d6000fd5b505050506040513d601f19601f820116820180604052508101906112799190614e1b565b905061128533836131eb565b601560009054906101000a900473ffffffffffffffffffffffffffffffffffffffff1673ffffffffffffffffffffffffffffffffffffffff1663a9059cbb33836040518363ffffffff1660e01b81526004016112e2929190614e8e565b6020604051808303816000875af1158015611301573d6000803e3d6000fd5b505050506040513d601f19601f820116820180604052508101906113259190614ecc565b505050565b6000600560009054906101000a900473ffffffffffffffffffffffffffffffffffffffff16905090565b6000438210611398576040517f08c379a000000000000000000000000000000000000000000000000000000000815260040161138f90614d0e565b60405180910390fd5b6113a3600a83612eb7565b9050919050565b60006113b4612891565b73ffffffffffffffffffffffffffffffffffffffff166113d261132a565b73ffffffffffffffffffffffffffffffffffffffff1614611428576040517f08c379a000000000000000000000000000000000000000000000000000000000815260040161141f90614b67565b60405180910390fd5b600073ffffffffffffffffffffffffffffffffffffffff168373ffffffffffffffffffffffffffffffffffffffff1603611497576040517f08c379a000000000000000000000000000000000000000000000000000000000815260040161148e90614f45565b60405180910390fd5b81156114b8576114b18360116131f990919063ffffffff16565b90506114cf565b6114cc83601161322990919063ffffffff16565b90505b92915050565b6060600480546114e490614aea565b80601f016020809104026020016040519081016040528092919081815260200182805461151090614aea565b801561155d5780601f106115325761010080835404028352916020019161155d565b820191906000526020600020905b81548152906001019060200180831161154057829003601f168201915b5050505050905090565b600080600960008473ffffffffffffffffffffffffffffffffffffffff1673ffffffffffffffffffffffffffffffffffffffff1681526020019081526020016000208054905090506000811461164f57600960008473ffffffffffffffffffffffffffffffffffffffff1673ffffffffffffffffffffffffffffffffffffffff1681526020019081526020016000206001826116039190614f65565b8154811061161457611613614f99565b5b9060005260206000200160000160049054906101000a90047bffffffffffffffffffffffffffffffffffffffffffffffffffffffff16611652565b60005b7bffffffffffffffffffffffffffffffffffffffffffffffffffffffff16915050919050565b600080611683612891565b905060006116918286611b73565b9050838110156116d6576040517f08c379a00000000000000000000000000000000000000000000000000000000081526004016116cd9061503a565b60405180910390fd5b6116e38286868403612899565b60019250505092915050565b6000806116fa612891565b9050611707818585612aee565b600191505092915050565b601660009054906101000a900473ffffffffffffffffffffffffffffffffffffffff1681565b60135481565b611746612891565b73ffffffffffffffffffffffffffffffffffffffff1661176461132a565b73ffffffffffffffffffffffffffffffffffffffff16146117ba576040517f08c379a00000000000000000000000000000000000000000000000000000000081526004016117b190614b67565b60405180910390fd5b600073ffffffffffffffffffffffffffffffffffffffff168273ffffffffffffffffffffffffffffffffffffffff1603611829576040517f08c379a0000000000000000000000000000000000000000000000000000000008152600401611820906150a6565b60405180910390fd5b61183d82600b612d6d90919063ffffffff16565b6118575761185582600b6131f990919063ffffffff16565b505b80600d60008473ffffffffffffffffffffffffffffffffffffffff1673ffffffffffffffffffffffffffffffffffffffff16815260200190815260200160002060006101000a81548173ffffffffffffffffffffffffffffffffffffffff021916908373ffffffffffffffffffffffffffffffffffffffff1602179055505050565b8342111561191c576040517f08c379a000000000000000000000000000000000000000000000000000000000815260040161191390615112565b60405180910390fd5b600061197e6119767fe48329057bfd03d55e49b547132e39cffd9c1820ad7b9d4c5307691425d15adf89898960405160200161195b9493929190615132565b60405160208183030381529060405280519060200120613259565b858585613273565b90506119898161329e565b86146119ca576040517f08c379a00000000000000000000000000000000000000000000000000000000081526004016119c1906151c3565b60405180910390fd5b6119d48188612fd1565b50505050505050565b60606119e9600b6132fc565b905090565b601560009054906101000a900473ffffffffffffffffffffffffffffffffffffffff1681565b83421115611a57576040517f08c379a0000000000000000000000000000000000000000000000000000000008152600401611a4e9061522f565b60405180910390fd5b60007f6e71edae12b1b97f4d1f60370fef10105fa2faae0126114a169c64845d6126c9888888611a868c61329e565b89604051602001611a9c9695949392919061524f565b6040516020818303038152906040528051906020012090506000611abf82613259565b90506000611acf82878787613273565b90508973ffffffffffffffffffffffffffffffffffffffff168173ffffffffffffffffffffffffffffffffffffffff1614611b3f576040517f08c379a0000000000000000000000000000000000000000000000000000000008152600401611b36906152fc565b60405180910390fd5b611b4a8a8a8a612899565b50505050505050505050565b6000611b6c82600f612d6d90919063ffffffff16565b9050919050565b6000600160008473ffffffffffffffffffffffffffffffffffffffff1673ffffffffffffffffffffffffffffffffffffffff16815260200190815260200160002060008373ffffffffffffffffffffffffffffffffffffffff1673ffffffffffffffffffffffffffffffffffffffff16815260200190815260200160002054905092915050565b611c02612891565b73ffffffffffffffffffffffffffffffffffffffff16611c2061132a565b73ffffffffffffffffffffffffffffffffffffffff1614611c76576040517f08c379a0000000000000000000000000000000000000000000000000000000008152600401611c6d90614b67565b60405180910390fd5b818173ffffffffffffffffffffffffffffffffffffffff1663a15612d16040518163ffffffff1660e01b8152600401602060405180830381865afa158015611cc2573d6000803e3d6000fd5b505050506040513d601f19601f82011682018060405250810190611ce69190614e1b565b148015611d8c57508273ffffffffffffffffffffffffffffffffffffffff168173ffffffffffffffffffffffffffffffffffffffff16636f307dc36040518163ffffffff1660e01b8152600401602060405180830381865afa158015611d50573d6000803e3d6000fd5b505050506040513d601f19601f82011682018060405250810190611d749190615331565b73ffffffffffffffffffffffffffffffffffffffff16145b8015611ec15750601660009054906101000a900473ffffffffffffffffffffffffffffffffffffffff1673ffffffffffffffffffffffffffffffffffffffff1663d2f7265a6040518163ffffffff1660e01b8152600401602060405180830381865afa158015611e00573d6000803e3d6000fd5b505050506040513d601f19601f82011682018060405250810190611e249190615331565b73ffffffffffffffffffffffffffffffffffffffff168173ffffffffffffffffffffffffffffffffffffffff1663d2f7265a6040518163ffffffff1660e01b8152600401602060405180830381865afa158015611e85573d6000803e3d6000fd5b505050506040513d601f19601f82011682018060405250810190611ea99190615331565b73ffffffffffffffffffffffffffffffffffffffff16145b611f00576040517f08c379a0000000000000000000000000000000000000000000000000000000008152600401611ef7906153aa565b60405180910390fd5b611f538282600e60008773ffffffffffffffffffffffffffffffffffffffff1673ffffffffffffffffffffffffffffffffffffffff16815260200190815260200160002061331d9092919063ffffffff16565b50505050565b6000611f63612891565b73ffffffffffffffffffffffffffffffffffffffff16611f8161132a565b73ffffffffffffffffffffffffffffffffffffffff1614611fd7576040517f08c379a0000000000000000000000000000000000000000000000000000000008152600401611fce90614b67565b60405180910390fd5b600073ffffffffffffffffffffffffffffffffffffffff168373ffffffffffffffffffffffffffffffffffffffff1603612046576040517f08c379a000000000000000000000000000000000000000000000000000000000815260040161203d90614f45565b60405180910390fd5b81156120675761206083600f6131f990919063ffffffff16565b905061207e565b61207b83600f61322990919063ffffffff16565b90505b92915050565b61208c61404c565b600960008473ffffffffffffffffffffffffffffffffffffffff1673ffffffffffffffffffffffffffffffffffffffff1681526020019081526020016000208263ffffffff16815481106120e3576120e2614f99565b5b906000526020600020016040518060400160405290816000820160009054906101000a900463ffffffff1663ffffffff1663ffffffff1681526020016000820160049054906101000a90047bffffffffffffffffffffffffffffffffffffffffffffffffffffffff167bffffffffffffffffffffffffffffffffffffffffffffffffffffffff167bffffffffffffffffffffffffffffffffffffffffffffffffffffffff1681525050905092915050565b61219c612891565b73ffffffffffffffffffffffffffffffffffffffff166121ba61132a565b73ffffffffffffffffffffffffffffffffffffffff1614612210576040517f08c379a000000000000000000000000000000000000000000000000000000000815260040161220790614b67565b60405180910390fd5b600073ffffffffffffffffffffffffffffffffffffffff168173ffffffffffffffffffffffffffffffffffffffff160361227f576040517f08c379a00000000000000000000000000000000000000000000000000000000081526004016122769061543c565b60405180910390fd5b61228881613117565b50565b612293612891565b73ffffffffffffffffffffffffffffffffffffffff166122b161132a565b73ffffffffffffffffffffffffffffffffffffffff1614612307576040517f08c379a00000000000000000000000000000000000000000000000000000000081526004016122fe90614b67565b60405180910390fd5b601660009054906101000a900473ffffffffffffffffffffffffffffffffffffffff1673ffffffffffffffffffffffffffffffffffffffff1663d2f7265a6040518163ffffffff1660e01b8152600401602060405180830381865afa158015612374573d6000803e3d6000fd5b505050506040513d601f19601f820116820180604052508101906123989190615331565b73ffffffffffffffffffffffffffffffffffffffff168273ffffffffffffffffffffffffffffffffffffffff1663d2f7265a6040518163ffffffff1660e01b8152600401602060405180830381865afa1580156123f9573d6000803e3d6000fd5b505050506040513d601f19601f8201168201806040525081019061241d9190615331565b73ffffffffffffffffffffffffffffffffffffffff1614612473576040517f08c379a000000000000000000000000000000000000000000000000000000000815260040161246a906154a8565b60405180910390fd5b8173ffffffffffffffffffffffffffffffffffffffff1663d2f7265a6040518163ffffffff1660e01b8152600401602060405180830381865afa1580156124be573d6000803e3d6000fd5b505050506040513d601f19601f820116820180604052508101906124e29190615331565b73ffffffffffffffffffffffffffffffffffffffff16639111fccd83836040518363ffffffff1660e01b815260040161251c9291906154e9565b600060405180830381600087803b15801561253657600080fd5b505af115801561254a573d6000803e3d6000fd5b505050507ffb24c384840b912caf631799804e8d43a3950d690745f2b8501b47c8e8d90fd2828260405161257f929190614e8e565b60405180910390a15050565b6125958282612618565b61259d613352565b7bffffffffffffffffffffffffffffffffffffffffffffffffffffffff166125c3610c07565b1115612604576040517f08c379a00000000000000000000000000000000000000000000000000000000081526004016125fb90615584565b60405180910390fd5b612612600a61277783613376565b50505050565b600073ffffffffffffffffffffffffffffffffffffffff168273ffffffffffffffffffffffffffffffffffffffff1603612687576040517f08c379a000000000000000000000000000000000000000000000000000000000815260040161267e906155f0565b60405180910390fd5b612693600083836135ee565b80600260008282546126a59190614c8e565b92505081905550806000808473ffffffffffffffffffffffffffffffffffffffff1673ffffffffffffffffffffffffffffffffffffffff16815260200190815260200160002060008282546126fa9190614c8e565b925050819055508173ffffffffffffffffffffffffffffffffffffffff16600073ffffffffffffffffffffffffffffffffffffffff167fddf252ad1be2c89b69c2b068fc378daa952ba7f163c4a11628f55a4df523b3ef8360405161275f9190614301565b60405180910390a3612773600083836135f3565b5050565b600081836127859190614c8e565b905092915050565b60007bffffffffffffffffffffffffffffffffffffffffffffffffffffffff80168211156127f0576040517f08c379a00000000000000000000000000000000000000000000000000000000081526004016127e790615682565b60405180910390fd5b819050919050565b600063ffffffff8016821115612843576040517f08c379a000000000000000000000000000000000000000000000000000000000815260040161283a90615714565b60405180910390fd5b819050919050565b612856838383612876565b61287161286284610dde565b61286b84610dde565b83613603565b505050565b505050565b600081836128899190614f65565b905092915050565b600033905090565b600073ffffffffffffffffffffffffffffffffffffffff168373ffffffffffffffffffffffffffffffffffffffff1603612908576040517f08c379a00000000000000000000000000000000000000000000000000000000081526004016128ff906157a6565b60405180910390fd5b600073ffffffffffffffffffffffffffffffffffffffff168273ffffffffffffffffffffffffffffffffffffffff1603612977576040517f08c379a000000000000000000000000000000000000000000000000000000000815260040161296e90615838565b60405180910390fd5b80600160008573ffffffffffffffffffffffffffffffffffffffff1673ffffffffffffffffffffffffffffffffffffffff16815260200190815260200160002060008473ffffffffffffffffffffffffffffffffffffffff1673ffffffffffffffffffffffffffffffffffffffff168152602001908152602001600020819055508173ffffffffffffffffffffffffffffffffffffffff168373ffffffffffffffffffffffffffffffffffffffff167f8c5be1e5ebec7d5bd14f71427d1e84f3dd0314c0f7b2291e5b200ac8c7c3b92583604051612a559190614301565b60405180910390a3505050565b6000612a6e8484611b73565b90507fffffffffffffffffffffffffffffffffffffffffffffffffffffffffffffffff8114612ae85781811015612ada576040517f08c379a0000000000000000000000000000000000000000000000000000000008152600401612ad1906158a4565b60405180910390fd5b612ae78484848403612899565b5b50505050565b600073ffffffffffffffffffffffffffffffffffffffff168373ffffffffffffffffffffffffffffffffffffffff1603612b5d576040517f08c379a0000000000000000000000000000000000000000000000000000000008152600401612b5490615936565b60405180910390fd5b600073ffffffffffffffffffffffffffffffffffffffff168273ffffffffffffffffffffffffffffffffffffffff1603612bcc576040517f08c379a0000000000000000000000000000000000000000000000000000000008152600401612bc3906159c8565b60405180910390fd5b612bd78383836135ee565b60008060008573ffffffffffffffffffffffffffffffffffffffff1673ffffffffffffffffffffffffffffffffffffffff16815260200190815260200160002054905081811015612c5d576040517f08c379a0000000000000000000000000000000000000000000000000000000008152600401612c5490615a5a565b60405180910390fd5b8181036000808673ffffffffffffffffffffffffffffffffffffffff1673ffffffffffffffffffffffffffffffffffffffff16815260200190815260200160002081905550816000808573ffffffffffffffffffffffffffffffffffffffff1673ffffffffffffffffffffffffffffffffffffffff1681526020019081526020016000206000828254612cf09190614c8e565b925050819055508273ffffffffffffffffffffffffffffffffffffffff168473ffffffffffffffffffffffffffffffffffffffff167fddf252ad1be2c89b69c2b068fc378daa952ba7f163c4a11628f55a4df523b3ef84604051612d549190614301565b60405180910390a3612d678484846135f3565b50505050565b6000612d95836000018373ffffffffffffffffffffffffffffffffffffffff1660001b6137fc565b905092915050565b60007f000000000000000000000000000000000000000000000000000000000000000073ffffffffffffffffffffffffffffffffffffffff163073ffffffffffffffffffffffffffffffffffffffff16148015612e1957507f000000000000000000000000000000000000000000000000000000000000000046145b15612e46577f00000000000000000000000000000000000000000000000000000000000000009050612eb4565b612eb17f00000000000000000000000000000000000000000000000000000000000000007f00000000000000000000000000000000000000000000000000000000000000007f000000000000000000000000000000000000000000000000000000000000000061381f565b90505b90565b6000808380549050905060005b81811015612f36576000612ed88284613859565b905084868281548110612eee57612eed614f99565b5b9060005260206000200160000160009054906101000a900463ffffffff1663ffffffff161115612f2057809250612f30565b600181612f2d9190614c8e565b91505b50612ec4565b60008214612f985784600183612f4c9190614f65565b81548110612f5d57612f5c614f99565b5b9060005260206000200160000160049054906101000a90047bffffffffffffffffffffffffffffffffffffffffffffffffffffffff16612f9b565b60005b7bffffffffffffffffffffffffffffffffffffffffffffffffffffffff169250505092915050565b612fcd828261258b565b5050565b6000612fdc83610dde565b90506000612fe984610f7a565b905082600860008673ffffffffffffffffffffffffffffffffffffffff1673ffffffffffffffffffffffffffffffffffffffff16815260200190815260200160002060006101000a81548173ffffffffffffffffffffffffffffffffffffffff021916908373ffffffffffffffffffffffffffffffffffffffff1602179055508273ffffffffffffffffffffffffffffffffffffffff168273ffffffffffffffffffffffffffffffffffffffff168573ffffffffffffffffffffffffffffffffffffffff167f3134e8a2e6d97e929a7e54011ea5485d7d196dd5f0ba4d4ef95803e8e3fc257f60405160405180910390a46130e5828483613603565b50505050565b600080600080613101866000018660001b61387f565b91509150818160001c9350935050509250929050565b6000600560009054906101000a900473ffffffffffffffffffffffffffffffffffffffff16905081600560006101000a81548173ffffffffffffffffffffffffffffffffffffffff021916908373ffffffffffffffffffffffffffffffffffffffff1602179055508173ffffffffffffffffffffffffffffffffffffffff168173ffffffffffffffffffffffffffffffffffffffff167f8be0079c531659141344cd1fd0a4f28419497f9722a3daafe3b4186f6b6457e060405160405180910390a35050565b600081600001549050919050565b6131f582826138ce565b5050565b6000613221836000018373ffffffffffffffffffffffffffffffffffffffff1660001b6138ec565b905092915050565b6000613251836000018373ffffffffffffffffffffffffffffffffffffffff1660001b61395c565b905092915050565b600061326c613266612d9d565b83613a70565b9050919050565b600080600061328487878787613aa3565b9150915061329181613baf565b8192505050949350505050565b600080600660008473ffffffffffffffffffffffffffffffffffffffff1673ffffffffffffffffffffffffffffffffffffffff16815260200190815260200160002090506132eb816131dd565b91506132f681613d7b565b50919050565b6060600061330c83600001613d91565b905060608190508092505050919050565b6000613349846000018460001b8473ffffffffffffffffffffffffffffffffffffffff1660001b613ded565b90509392505050565b60007bffffffffffffffffffffffffffffffffffffffffffffffffffffffff905090565b600080600085805490509050600081146133e457856001826133989190614f65565b815481106133a9576133a8614f99565b5b9060005260206000200160000160049054906101000a90047bffffffffffffffffffffffffffffffffffffffffffffffffffffffff166133e7565b60005b7bffffffffffffffffffffffffffffffffffffffffffffffffffffffff16925061341583858763ffffffff16565b9150600081118015613468575043866001836134319190614f65565b8154811061344257613441614f99565b5b9060005260206000200160000160009054906101000a900463ffffffff1663ffffffff16145b156134f5576134768261278d565b866001836134849190614f65565b8154811061349557613494614f99565b5b9060005260206000200160000160046101000a8154817bffffffffffffffffffffffffffffffffffffffffffffffffffffffff02191690837bffffffffffffffffffffffffffffffffffffffffffffffffffffffff1602179055506135e5565b85604051806040016040528061350a436127f8565b63ffffffff16815260200161351e8561278d565b7bffffffffffffffffffffffffffffffffffffffffffffffffffffffff168152509080600181540180825580915050600190039060005260206000200160009091909190915060008201518160000160006101000a81548163ffffffff021916908363ffffffff16021790555060208201518160000160046101000a8154817bffffffffffffffffffffffffffffffffffffffffffffffffffffffff02191690837bffffffffffffffffffffffffffffffffffffffffffffffffffffffff16021790555050505b50935093915050565b505050565b6135fe83838361284b565b505050565b8173ffffffffffffffffffffffffffffffffffffffff168373ffffffffffffffffffffffffffffffffffffffff161415801561363f5750600081115b156137f757600073ffffffffffffffffffffffffffffffffffffffff168373ffffffffffffffffffffffffffffffffffffffff161461371d576000806136c6600960008773ffffffffffffffffffffffffffffffffffffffff1673ffffffffffffffffffffffffffffffffffffffff16815260200190815260200160002061287b85613376565b915091508473ffffffffffffffffffffffffffffffffffffffff167fdec2bacdd2f05b59de34da9b523dff8be42e5e38e818c82fdb0bae774387a7248383604051613712929190615a7a565b60405180910390a250505b600073ffffffffffffffffffffffffffffffffffffffff168273ffffffffffffffffffffffffffffffffffffffff16146137f65760008061379f600960008673ffffffffffffffffffffffffffffffffffffffff1673ffffffffffffffffffffffffffffffffffffffff16815260200190815260200160002061277785613376565b915091508373ffffffffffffffffffffffffffffffffffffffff167fdec2bacdd2f05b59de34da9b523dff8be42e5e38e818c82fdb0bae774387a72483836040516137eb929190615a7a565b60405180910390a250505b5b505050565b600080836001016000848152602001908152602001600020541415905092915050565b6000838383463060405160200161383a959493929190615aa3565b6040516020818303038152906040528051906020012090509392505050565b6000600282841861386a9190615b25565b8284166138779190614c8e565b905092915050565b60008060008460020160008581526020019081526020016000205490506000801b81036138be576138b08585613e28565b6000801b92509250506138c7565b60018192509250505b9250929050565b6138d88282613e48565b6138e6600a61287b83613376565b50505050565b60006138f883836137fc565b613951578260000182908060018154018082558091505060019003906000526020600020016000909190919091505582600001805490508360010160008481526020019081526020016000208190555060019050613956565b600090505b92915050565b60008083600101600084815260200190815260200160002054905060008114613a6457600060018261398e9190614f65565b90506000600186600001805490506139a69190614f65565b9050818114613a155760008660000182815481106139c7576139c6614f99565b5b90600052602060002001549050808760000184815481106139eb576139ea614f99565b5b90600052602060002001819055508387600101600083815260200190815260200160002081905550505b85600001805480613a2957613a28615b56565b5b600190038181906000526020600020016000905590558560010160008681526020019081526020016000206000905560019350505050613a6a565b60009150505b92915050565b60008282604051602001613a85929190615bfd565b60405160208183030381529060405280519060200120905092915050565b6000807f7fffffffffffffffffffffffffffffff5d576e7357a4501ddfe92f46681b20a08360001c1115613ade576000600391509150613ba6565b601b8560ff1614158015613af65750601c8560ff1614155b15613b08576000600491509150613ba6565b600060018787878760405160008152602001604052604051613b2d9493929190615c34565b6020604051602081039080840390855afa158015613b4f573d6000803e3d6000fd5b505050602060405103519050600073ffffffffffffffffffffffffffffffffffffffff168173ffffffffffffffffffffffffffffffffffffffff1603613b9d57600060019250925050613ba6565b80600092509250505b94509492505050565b60006004811115613bc357613bc2615c79565b5b816004811115613bd657613bd5615c79565b5b0315613d785760016004811115613bf057613bef615c79565b5b816004811115613c0357613c02615c79565b5b03613c43576040517f08c379a0000000000000000000000000000000000000000000000000000000008152600401613c3a90615cf4565b60405180910390fd5b60026004811115613c5757613c56615c79565b5b816004811115613c6a57613c69615c79565b5b03613caa576040517f08c379a0000000000000000000000000000000000000000000000000000000008152600401613ca190615d60565b60405180910390fd5b60036004811115613cbe57613cbd615c79565b5b816004811115613cd157613cd0615c79565b5b03613d11576040517f08c379a0000000000000000000000000000000000000000000000000000000008152600401613d0890615df2565b60405180910390fd5b600480811115613d2457613d23615c79565b5b816004811115613d3757613d36615c79565b5b03613d77576040517f08c379a0000000000000000000000000000000000000000000000000000000008152600401613d6e90615e84565b60405180910390fd5b5b50565b6001816000016000828254019250508190555050565b606081600001805480602002602001604051908101604052809291908181526020018280548015613de157602002820191906000526020600020905b815481526020019060010190808311613dcd575b50505050509050919050565b60008184600201600085815260200190815260200160002081905550613e1f838560000161401e90919063ffffffff16565b90509392505050565b6000613e40828460000161403590919063ffffffff16565b905092915050565b600073ffffffffffffffffffffffffffffffffffffffff168273ffffffffffffffffffffffffffffffffffffffff1603613eb7576040517f08c379a0000000000000000000000000000000000000000000000000000000008152600401613eae90615f16565b60405180910390fd5b613ec3826000836135ee565b60008060008473ffffffffffffffffffffffffffffffffffffffff1673ffffffffffffffffffffffffffffffffffffffff16815260200190815260200160002054905081811015613f49576040517f08c379a0000000000000000000000000000000000000000000000000000000008152600401613f4090615fa8565b60405180910390fd5b8181036000808573ffffffffffffffffffffffffffffffffffffffff1673ffffffffffffffffffffffffffffffffffffffff168152602001908152602001600020819055508160026000828254613fa09190614f65565b92505081905550600073ffffffffffffffffffffffffffffffffffffffff168373ffffffffffffffffffffffffffffffffffffffff167fddf252ad1be2c89b69c2b068fc378daa952ba7f163c4a11628f55a4df523b3ef846040516140059190614301565b60405180910390a3614019836000846135f3565b505050565b600061402d83600001836138ec565b905092915050565b600061404483600001836137fc565b905092915050565b6040518060400160405280600063ffffffff16815260200160007bffffffffffffffffffffffffffffffffffffffffffffffffffffffff1681525090565b600081519050919050565b600082825260208201905092915050565b60005b838110156140c45780820151818401526020810190506140a9565b60008484015250505050565b6000601f19601f8301169050919050565b60006140ec8261408a565b6140f68185614095565b93506141068185602086016140a6565b61410f816140d0565b840191505092915050565b6000602082019050818103600083015261413481846140e1565b905092915050565b600080fd5b600073ffffffffffffffffffffffffffffffffffffffff82169050919050565b600061416c82614141565b9050919050565b61417c81614161565b811461418757600080fd5b50565b60008135905061419981614173565b92915050565b6000602082840312156141b5576141b461413c565b5b60006141c38482850161418a565b91505092915050565b6000819050919050565b6141df816141cc565b81146141ea57600080fd5b50565b6000813590506141fc816141d6565b92915050565b600080604083850312156142195761421861413c565b5b60006142278582860161418a565b9250506020614238858286016141ed565b9150509250929050565b60008115159050919050565b61425781614242565b82525050565b6000602082019050614272600083018461424e565b92915050565b6000819050919050565b600061429d61429861429384614141565b614278565b614141565b9050919050565b60006142af82614282565b9050919050565b60006142c1826142a4565b9050919050565b6142d1816142b6565b82525050565b60006020820190506142ec60008301846142c8565b92915050565b6142fb816141cc565b82525050565b600060208201905061431660008301846142f2565b92915050565b6000806000606084860312156143355761433461413c565b5b60006143438682870161418a565b93505060206143548682870161418a565b9250506040614365868287016141ed565b9150509250925092565b600060ff82169050919050565b6143858161436f565b82525050565b60006020820190506143a0600083018461437c565b92915050565b6000819050919050565b6143b9816143a6565b82525050565b60006020820190506143d460008301846143b0565b92915050565b6143e381614161565b82525050565b60006020820190506143fe60008301846143da565b92915050565b600061440f826142a4565b9050919050565b61441f81614404565b82525050565b600060208201905061443a6000830184614416565b92915050565b600063ffffffff82169050919050565b61445981614440565b82525050565b60006020820190506144746000830184614450565b92915050565b6000602082840312156144905761448f61413c565b5b600061449e848285016141ed565b91505092915050565b6144b081614242565b81146144bb57600080fd5b50565b6000813590506144cd816144a7565b92915050565b600080604083850312156144ea576144e961413c565b5b60006144f88582860161418a565b9250506020614509858286016144be565b9150509250929050565b600061451e826142a4565b9050919050565b61452e81614513565b82525050565b60006020820190506145496000830184614525565b92915050565b600061455a82614161565b9050919050565b61456a8161454f565b811461457557600080fd5b50565b60008135905061458781614561565b92915050565b600080604083850312156145a4576145a361413c565b5b60006145b28582860161418a565b92505060206145c385828601614578565b9150509250929050565b6145d68161436f565b81146145e157600080fd5b50565b6000813590506145f3816145cd565b92915050565b614602816143a6565b811461460d57600080fd5b50565b60008135905061461f816145f9565b92915050565b60008060008060008060c087890312156146425761464161413c565b5b600061465089828a0161418a565b965050602061466189828a016141ed565b955050604061467289828a016141ed565b945050606061468389828a016145e4565b935050608061469489828a01614610565b92505060a06146a589828a01614610565b9150509295509295509295565b600081519050919050565b600082825260208201905092915050565b6000819050602082019050919050565b6146e781614161565b82525050565b60006146f983836146de565b60208301905092915050565b6000602082019050919050565b600061471d826146b2565b61472781856146bd565b9350614732836146ce565b8060005b8381101561476357815161474a88826146ed565b975061475583614705565b925050600181019050614736565b5085935050505092915050565b6000602082019050818103600083015261478a8184614712565b905092915050565b600061479d826142a4565b9050919050565b6147ad81614792565b82525050565b60006020820190506147c860008301846147a4565b92915050565b600080600080600080600060e0888a0312156147ed576147ec61413c565b5b60006147fb8a828b0161418a565b975050602061480c8a828b0161418a565b965050604061481d8a828b016141ed565b955050606061482e8a828b016141ed565b945050608061483f8a828b016145e4565b93505060a06148508a828b01614610565b92505060c06148618a828b01614610565b91505092959891949750929550565b600080604083850312156148875761488661413c565b5b60006148958582860161418a565b92505060206148a68582860161418a565b9150509250929050565b60006148bb82614161565b9050919050565b6148cb816148b0565b81146148d657600080fd5b50565b6000813590506148e8816148c2565b92915050565b6000806000606084860312156149075761490661413c565b5b60006149158682870161418a565b9350506020614926868287016141ed565b9250506040614937868287016148d9565b9150509250925092565b61494a81614440565b811461495557600080fd5b50565b60008135905061496781614941565b92915050565b600080604083850312156149845761498361413c565b5b60006149928582860161418a565b92505060206149a385828601614958565b9150509250929050565b6149b681614440565b82525050565b60007bffffffffffffffffffffffffffffffffffffffffffffffffffffffff82169050919050565b6149ed816149bc565b82525050565b604082016000820151614a0960008501826149ad565b506020820151614a1c60208501826149e4565b50505050565b6000604082019050614a3760008301846149f3565b92915050565b6000614a4882614161565b9050919050565b614a5881614a3d565b8114614a6357600080fd5b50565b600081359050614a7581614a4f565b92915050565b60008060408385031215614a9257614a9161413c565b5b6000614aa085828601614a66565b9250506020614ab1858286016141ed565b9150509250929050565b7f4e487b7100000000000000000000000000000000000000000000000000000000600052602260045260246000fd5b60006002820490506001821680614b0257607f821691505b602082108103614b1557614b14614abb565b5b50919050565b7f4f776e61626c653a2063616c6c6572206973206e6f7420746865206f776e6572600082015250565b6000614b51602083614095565b9150614b5c82614b1b565b602082019050919050565b60006020820190508181036000830152614b8081614b44565b9050919050565b7f3020616464726573730000000000000000000000000000000000000000000000600082015250565b6000614bbd600983614095565b9150614bc882614b87565b602082019050919050565b60006020820190508181036000830152614bec81614bb0565b9050919050565b7f4f7261636c65206e6f7420726567697374657265640000000000000000000000600082015250565b6000614c29601583614095565b9150614c3482614bf3565b602082019050919050565b60006020820190508181036000830152614c5881614c1c565b9050919050565b7f4e487b7100000000000000000000000000000000000000000000000000000000600052601160045260246000fd5b6000614c99826141cc565b9150614ca4836141cc565b9250828201905080821115614cbc57614cbb614c5f565b5b92915050565b7f4552433230566f7465733a20626c6f636b206e6f7420796574206d696e656400600082015250565b6000614cf8601f83614095565b9150614d0382614cc2565b602082019050919050565b60006020820190508181036000830152614d2781614ceb565b9050919050565b7f62726f6b6572206f6e6c79000000000000000000000000000000000000000000600082015250565b6000614d64600b83614095565b9150614d6f82614d2e565b602082019050919050565b60006020820190508181036000830152614d9381614d57565b9050919050565b7f6e6f20766f6c20746f6b656e0000000000000000000000000000000000000000600082015250565b6000614dd0600c83614095565b9150614ddb82614d9a565b602082019050919050565b60006020820190508181036000830152614dff81614dc3565b9050919050565b600081519050614e15816141d6565b92915050565b600060208284031215614e3157614e3061413c565b5b6000614e3f84828501614e06565b91505092915050565b614e51816141cc565b82525050565b6000606082019050614e6c6000830186614e48565b614e796020830185614e48565b614e866040830184614e48565b949350505050565b6000604082019050614ea360008301856143da565b614eb060208301846142f2565b9392505050565b600081519050614ec6816144a7565b92915050565b600060208284031215614ee257614ee161413c565b5b6000614ef084828501614eb7565b91505092915050565b7f656d707479206164647265737300000000000000000000000000000000000000600082015250565b6000614f2f600d83614095565b9150614f3a82614ef9565b602082019050919050565b60006020820190508181036000830152614f5e81614f22565b9050919050565b6000614f70826141cc565b9150614f7b836141cc565b9250828203905081811115614f9357614f92614c5f565b5b92915050565b7f4e487b7100000000000000000000000000000000000000000000000000000000600052603260045260246000fd5b7f45524332303a2064656372656173656420616c6c6f77616e63652062656c6f7760008201527f207a65726f000000000000000000000000000000000000000000000000000000602082015250565b6000615024602583614095565b915061502f82614fc8565b604082019050919050565b6000602082019050818103600083015261505381615017565b9050919050565b7f3061646472000000000000000000000000000000000000000000000000000000600082015250565b6000615090600583614095565b915061509b8261505a565b602082019050919050565b600060208201905081810360008301526150bf81615083565b9050919050565b7f4552433230566f7465733a207369676e61747572652065787069726564000000600082015250565b60006150fc601d83614095565b9150615107826150c6565b602082019050919050565b6000602082019050818103600083015261512b816150ef565b9050919050565b600060808201905061514760008301876143b0565b61515460208301866143da565b61516160408301856142f2565b61516e60608301846142f2565b95945050505050565b7f4552433230566f7465733a20696e76616c6964206e6f6e636500000000000000600082015250565b60006151ad601983614095565b91506151b882615177565b602082019050919050565b600060208201905081810360008301526151dc816151a0565b9050919050565b7f45524332305065726d69743a206578706972656420646561646c696e65000000600082015250565b6000615219601d83614095565b9150615224826151e3565b602082019050919050565b600060208201905081810360008301526152488161520c565b9050919050565b600060c08201905061526460008301896143b0565b61527160208301886143da565b61527e60408301876143da565b61528b60608301866142f2565b61529860808301856142f2565b6152a560a08301846142f2565b979650505050505050565b7f45524332305065726d69743a20696e76616c6964207369676e61747572650000600082015250565b60006152e6601e83614095565b91506152f1826152b0565b602082019050919050565b60006020820190508181036000830152615315816152d9565b9050919050565b60008151905061532b81614173565b92915050565b6000602082840312156153475761534661413c565b5b60006153558482850161531c565b91505092915050565b7f2d76450000000000000000000000000000000000000000000000000000000000600082015250565b6000615394600383614095565b915061539f8261535e565b602082019050919050565b600060208201905081810360008301526153c381615387565b9050919050565b7f4f776e61626c653a206e6577206f776e657220697320746865207a65726f206160008201527f6464726573730000000000000000000000000000000000000000000000000000602082015250565b6000615426602683614095565b9150615431826153ca565b604082019050919050565b6000602082019050818103600083015261545581615419565b9050919050565b7f2d77457800000000000000000000000000000000000000000000000000000000600082015250565b6000615492600483614095565b915061549d8261545c565b602082019050919050565b600060208201905081810360008301526154c181615485565b9050919050565b60006154d3826142a4565b9050919050565b6154e3816154c8565b82525050565b60006040820190506154fe60008301856154da565b61550b60208301846142f2565b9392505050565b7f4552433230566f7465733a20746f74616c20737570706c79207269736b73206f60008201527f766572666c6f77696e6720766f74657300000000000000000000000000000000602082015250565b600061556e603083614095565b915061557982615512565b604082019050919050565b6000602082019050818103600083015261559d81615561565b9050919050565b7f45524332303a206d696e7420746f20746865207a65726f206164647265737300600082015250565b60006155da601f83614095565b91506155e5826155a4565b602082019050919050565b60006020820190508181036000830152615609816155cd565b9050919050565b7f53616665436173743a2076616c756520646f65736e27742066697420696e203260008201527f3234206269747300000000000000000000000000000000000000000000000000602082015250565b600061566c602783614095565b915061567782615610565b604082019050919050565b6000602082019050818103600083015261569b8161565f565b9050919050565b7f53616665436173743a2076616c756520646f65736e27742066697420696e203360008201527f3220626974730000000000000000000000000000000000000000000000000000602082015250565b60006156fe602683614095565b9150615709826156a2565b604082019050919050565b6000602082019050818103600083015261572d816156f1565b9050919050565b7f45524332303a20617070726f76652066726f6d20746865207a65726f2061646460008201527f7265737300000000000000000000000000000000000000000000000000000000602082015250565b6000615790602483614095565b915061579b82615734565b604082019050919050565b600060208201905081810360008301526157bf81615783565b9050919050565b7f45524332303a20617070726f766520746f20746865207a65726f20616464726560008201527f7373000000000000000000000000000000000000000000000000000000000000602082015250565b6000615822602283614095565b915061582d826157c6565b604082019050919050565b6000602082019050818103600083015261585181615815565b9050919050565b7f45524332303a20696e73756666696369656e7420616c6c6f77616e6365000000600082015250565b600061588e601d83614095565b915061589982615858565b602082019050919050565b600060208201905081810360008301526158bd81615881565b9050919050565b7f45524332303a207472616e736665722066726f6d20746865207a65726f20616460008201527f6472657373000000000000000000000000000000000000000000000000000000602082015250565b6000615920602583614095565b915061592b826158c4565b604082019050919050565b6000602082019050818103600083015261594f81615913565b9050919050565b7f45524332303a207472616e7366657220746f20746865207a65726f206164647260008201527f6573730000000000000000000000000000000000000000000000000000000000602082015250565b60006159b2602383614095565b91506159bd82615956565b604082019050919050565b600060208201905081810360008301526159e1816159a5565b9050919050565b7f45524332303a207472616e7366657220616d6f756e742065786365656473206260008201527f616c616e63650000000000000000000000000000000000000000000000000000602082015250565b6000615a44602683614095565b9150615a4f826159e8565b604082019050919050565b60006020820190508181036000830152615a7381615a37565b9050919050565b6000604082019050615a8f60008301856142f2565b615a9c60208301846142f2565b9392505050565b600060a082019050615ab860008301886143b0565b615ac560208301876143b0565b615ad260408301866143b0565b615adf60608301856142f2565b615aec60808301846143da565b9695505050505050565b7f4e487b7100000000000000000000000000000000000000000000000000000000600052601260045260246000fd5b6000615b30826141cc565b9150615b3b836141cc565b925082615b4b57615b4a615af6565b5b828204905092915050565b7f4e487b7100000000000000000000000000000000000000000000000000000000600052603160045260246000fd5b600081905092915050565b7f1901000000000000000000000000000000000000000000000000000000000000600082015250565b6000615bc6600283615b85565b9150615bd182615b90565b600282019050919050565b6000819050919050565b615bf7615bf2826143a6565b615bdc565b82525050565b6000615c0882615bb9565b9150615c148285615be6565b602082019150615c248284615be6565b6020820191508190509392505050565b6000608082019050615c4960008301876143b0565b615c56602083018661437c565b615c6360408301856143b0565b615c7060608301846143b0565b95945050505050565b7f4e487b7100000000000000000000000000000000000000000000000000000000600052602160045260246000fd5b7f45434453413a20696e76616c6964207369676e61747572650000000000000000600082015250565b6000615cde601883614095565b9150615ce982615ca8565b602082019050919050565b60006020820190508181036000830152615d0d81615cd1565b9050919050565b7f45434453413a20696e76616c6964207369676e6174757265206c656e67746800600082015250565b6000615d4a601f83614095565b9150615d5582615d14565b602082019050919050565b60006020820190508181036000830152615d7981615d3d565b9050919050565b7f45434453413a20696e76616c6964207369676e6174757265202773272076616c60008201527f7565000000000000000000000000000000000000000000000000000000000000602082015250565b6000615ddc602283614095565b9150615de782615d80565b604082019050919050565b60006020820190508181036000830152615e0b81615dcf565b9050919050565b7f45434453413a20696e76616c6964207369676e6174757265202776272076616c60008201527f7565000000000000000000000000000000000000000000000000000000000000602082015250565b6000615e6e602283614095565b9150615e7982615e12565b604082019050919050565b60006020820190508181036000830152615e9d81615e61565b9050919050565b7f45524332303a206275726e2066726f6d20746865207a65726f2061646472657360008201527f7300000000000000000000000000000000000000000000000000000000000000602082015250565b6000615f00602183614095565b9150615f0b82615ea4565b604082019050919050565b60006020820190508181036000830152615f2f81615ef3565b9050919050565b7f45524332303a206275726e20616d6f756e7420657863656564732062616c616e60008201527f6365000000000000000000000000000000000000000000000000000000000000602082015250565b6000615f92602283614095565b9150615f9d82615f36565b604082019050919050565b60006020820190508181036000830152615fc181615f85565b905091905056fea2646970667358221220fc9ea22ee8e00e414ea9591b16037150dad8ce0dd126c4f370e70aa9dd3fabf364736f6c63430008110033",
  "immutableReferences": {
    "5871": [
      {
        "length": 32,
        "start": 11808
      }
    ],
    "5873": [
      {
        "length": 32,
        "start": 11767
      }
    ],
    "5875": [
      {
        "length": 32,
        "start": 11681
      }
    ],
    "5877": [
      {
        "length": 32,
        "start": 11884
      }
    ],
    "5879": [
      {
        "length": 32,
        "start": 11917
      }
    ],
    "5881": [
      {
        "length": 32,
        "start": 11851
      }
    ]
  },
  "source": "// SPDX-License-Identifier: MIT\npragma solidity ^0.8.4;\n\nimport \"@openzeppelin/contracts/token/ERC20/ERC20.sol\";\nimport \"@openzeppelin/contracts/access/Ownable.sol\";\nimport \"@openzeppelin/contracts/token/ERC20/extensions/draft-ERC20Permit.sol\";\nimport \"@openzeppelin/contracts/token/ERC20/extensions/ERC20Votes.sol\";\nimport \"@openzeppelin/contracts/utils/structs/EnumerableMap.sol\";\nimport \"@openzeppelin/contracts/utils/structs/EnumerableSet.sol\";\nimport \"@openzeppelin/contracts/token/ERC20/utils/SafeERC20.sol\";\nimport \"../pools/Pool.sol\";\nimport \"../libraries/MathLib.sol\";\nimport \"../interfaces/EMoret.sol\";\nimport \"../VolatilityChain.sol\";\nimport \"../VolatilityToken.sol\";\nimport \"../Exchange.sol\";\nimport \"./MoretBroker.sol\";\n\n/// @custom:security-contact eight@moret.io\ncontract Moret is ERC20, Ownable, ERC20Permit, ERC20Votes, EMoret {\n    using MathLib for uint256;\n    using EnumerableSet for EnumerableSet.AddressSet;\n    using EnumerableMap for EnumerableMap.UintToAddressMap;\n\n    EnumerableSet.AddressSet internal underlyingList; // list of underlying tokens\n    mapping(address=>VolatilityChain) internal volatilityChainMap; // volatility oracle: token address => volatiltiy chain address\n    mapping(address=>EnumerableMap.UintToAddressMap) internal volatilityTokenMap; // volatility token list: token address => volatility token map (tenor => volatility tokens)\n    EnumerableSet.AddressSet internal eligibleTradingRoutes; // list of routes that are allowed for hedging transactions\n    EnumerableSet.AddressSet internal volTradingPools; // pools allowed to trade volatility tokens\n\n    uint256 public protocolFee = 0.005e18; // protocol fees payable to governance token each time option contract is exercised\n    address public protocolFeeRecipient;\n    \n    // funding token address\n    ERC20 public funding;\n    MoretBroker public broker;\n\n    constructor(MoretBroker _broker) ERC20(\"Moret\", \"MOR\") ERC20Permit(\"Moret\") {\n        broker = _broker;\n        funding = _broker.funding();\n        _mint(msg.sender, 1e24); // initial mint, 1e6 * 1e18\n        protocolFeeRecipient = msg.sender;\n        }\n    \n    // mint function\n    function mint(address _to, uint256 _amount) external {\n        require(address(broker) == msg.sender, 'broker only');\n        _mint(_to, _amount);}\n    function divest(uint256 _amount) external {\n        uint256 _capitalToDivest = _amount.muldiv(funding.balanceOf(address(this)), totalSupply());\n        _burn(msg.sender, _amount);\n        funding.transfer(msg.sender, _capitalToDivest);\n        // emit DivestFromGov(msg.sender, _capitalToDivest);}\n    }\n\n    // withdraw from certain pool so funding tokens can be saved in. This could be only executed by the owner address\n    function withdraw(Pool _pool, uint256 _amount) external onlyOwner{\n        require(_pool.exchange() == broker.exchange(), \"-wEx\");\n        Exchange(_pool.exchange()).withdrawCapital(_pool, _amount);\n        emit WithdrawPoolTokens(address(_pool), _amount);}\n\n    // governable parameters\n    function setProtocolFee(uint256 _newFee) external onlyOwner(){ \n        protocolFee = _newFee;\n        emit UpdateProtocolFees(_newFee);}\n    function setProtocolRecipient(address _newAddress) external onlyOwner(){ \n        require(_newAddress != address(0), \"0 address\"); \n        protocolFeeRecipient = _newAddress;\n        emit UpdateProtocolRecipient(_newAddress);}\n\n    // list of underlying addresses\n    function getAllUnderlyings() external view returns(address[] memory){\n        return underlyingList.values();}\n\n    // update/add new volatility oracles\n    function updateVolChain(address _underlyingAddress, VolatilityChain _newOracle) external onlyOwner{\n        require(_underlyingAddress != address(0), \"0addr\");\n        if(!underlyingList.contains(_underlyingAddress)){\n            underlyingList.add(_underlyingAddress);}\n        volatilityChainMap[_underlyingAddress] = _newOracle;}\n        // emit UpdateToken( _underlyingAddress, address(_newOracle));}\n    function getVolatilityChain(address _underlyingAddress) external view returns(VolatilityChain){\n        require(address(volatilityChainMap[_underlyingAddress]) != address(0), \"Oracle not registered\");\n        return volatilityChainMap[_underlyingAddress];}\n    \n    // update/get vol tokens.\n    function updateVolToken(address _underlyingAddress, uint256 _tenor, VolatilityToken _volToken) external onlyOwner{ \n        require((_volToken.tenor() == _tenor) && (_volToken.underlying() == _underlyingAddress) && (_volToken.exchange() == broker.exchange()), '-vE'); // make sure the exchange address is allowed\n        volatilityTokenMap[_underlyingAddress].set(_tenor, address(_volToken));}\n        // emit UpdateVolToken(_underlyingAddress, _tenor, address(_volToken)); }\n    function getVolatilityToken(address _underlyingAddress, uint256 _tenor) external view returns (VolatilityToken){\n        (bool _success, address _volToken) = volatilityTokenMap[_underlyingAddress].tryGet(_tenor);\n        require(_success, \"no vol token\");\n        return VolatilityToken(_volToken);}\n    \n    // update eligible routes\n    function updateEligibleRoute(address _route, bool _add) external onlyOwner returns(bool _result){\n        require(_route != address(0), \"empty address\");\n        if(_add) { _result = eligibleTradingRoutes.add(_route);}\n        else{ _result = eligibleTradingRoutes.remove(_route);}}\n        // emit UpdateRoute(_route, _add);}\n    function existEligibleRoute(address _route) external view returns(bool){\n        return eligibleTradingRoutes.contains(_route);}\n    \n    // update vol trading pool\n    function updateVolTradingPool(address _poolAddress, bool _add) external onlyOwner returns(bool _result){\n        require(_poolAddress != address(0), \"empty address\");\n        if(_add) { _result = volTradingPools.add(_poolAddress);}\n        else{ _result = volTradingPools.remove(_poolAddress);}}\n        // emit UpdateVolTradingPool(_poolAddress, _add);}\n    function existVolTradingPool(address _poolAddress) external view returns(bool){\n        return volTradingPools.contains(_poolAddress);}\n\n    // The following functions are overrides required by Solidity.\n\n    function _afterTokenTransfer(address from, address to, uint256 amount)\n        internal\n        override(ERC20, ERC20Votes)\n    {\n        super._afterTokenTransfer(from, to, amount);\n    }\n\n    function _mint(address to, uint256 amount)\n        internal\n        override(ERC20, ERC20Votes)\n    {\n        super._mint(to, amount);\n    }\n\n    function _burn(address account, uint256 amount)\n        internal\n        override(ERC20, ERC20Votes)\n    {\n        super._burn(account, amount);\n    }\n}\n",
  "sourcePath": "/Users/mac/Documents/GitHub/moret/contracts/governance/Moret.sol",
  "compiler": {
    "name": "solc",
    "version": "0.8.17+commit.8df45f5f.Emscripten.clang"
  },
  "schemaVersion": "3.4.3",
  "updatedAt": "2022-09-13T03:43:47.384Z",
  "devdoc": {
    "custom:security-contact": "eight@moret.io",
    "kind": "dev",
    "methods": {
      "DOMAIN_SEPARATOR()": {
        "details": "See {IERC20Permit-DOMAIN_SEPARATOR}."
      },
      "allowance(address,address)": {
        "details": "See {IERC20-allowance}."
      },
      "approve(address,uint256)": {
        "details": "See {IERC20-approve}. NOTE: If `amount` is the maximum `uint256`, the allowance is not updated on `transferFrom`. This is semantically equivalent to an infinite approval. Requirements: - `spender` cannot be the zero address."
      },
      "balanceOf(address)": {
        "details": "See {IERC20-balanceOf}."
      },
      "checkpoints(address,uint32)": {
        "details": "Get the `pos`-th checkpoint for `account`."
      },
      "decimals()": {
        "details": "Returns the number of decimals used to get its user representation. For example, if `decimals` equals `2`, a balance of `505` tokens should be displayed to a user as `5.05` (`505 / 10 ** 2`). Tokens usually opt for a value of 18, imitating the relationship between Ether and Wei. This is the value {ERC20} uses, unless this function is overridden; NOTE: This information is only used for _display_ purposes: it in no way affects any of the arithmetic of the contract, including {IERC20-balanceOf} and {IERC20-transfer}."
      },
      "decreaseAllowance(address,uint256)": {
        "details": "Atomically decreases the allowance granted to `spender` by the caller. This is an alternative to {approve} that can be used as a mitigation for problems described in {IERC20-approve}. Emits an {Approval} event indicating the updated allowance. Requirements: - `spender` cannot be the zero address. - `spender` must have allowance for the caller of at least `subtractedValue`."
      },
      "delegate(address)": {
        "details": "Delegate votes from the sender to `delegatee`."
      },
      "delegateBySig(address,uint256,uint256,uint8,bytes32,bytes32)": {
        "details": "Delegates votes from signer to `delegatee`"
      },
      "delegates(address)": {
        "details": "Get the address `account` is currently delegating to."
      },
      "getPastTotalSupply(uint256)": {
        "details": "Retrieve the `totalSupply` at the end of `blockNumber`. Note, this value is the sum of all balances. It is but NOT the sum of all the delegated votes! Requirements: - `blockNumber` must have been already mined"
      },
      "getPastVotes(address,uint256)": {
        "details": "Retrieve the number of votes for `account` at the end of `blockNumber`. Requirements: - `blockNumber` must have been already mined"
      },
      "getVotes(address)": {
        "details": "Gets the current votes balance for `account`"
      },
      "increaseAllowance(address,uint256)": {
        "details": "Atomically increases the allowance granted to `spender` by the caller. This is an alternative to {approve} that can be used as a mitigation for problems described in {IERC20-approve}. Emits an {Approval} event indicating the updated allowance. Requirements: - `spender` cannot be the zero address."
      },
      "name()": {
        "details": "Returns the name of the token."
      },
      "nonces(address)": {
        "details": "See {IERC20Permit-nonces}."
      },
      "numCheckpoints(address)": {
        "details": "Get number of checkpoints for `account`."
      },
      "owner()": {
        "details": "Returns the address of the current owner."
      },
      "permit(address,address,uint256,uint256,uint8,bytes32,bytes32)": {
        "details": "See {IERC20Permit-permit}."
      },
      "renounceOwnership()": {
        "details": "Leaves the contract without owner. It will not be possible to call `onlyOwner` functions anymore. Can only be called by the current owner. NOTE: Renouncing ownership will leave the contract without an owner, thereby removing any functionality that is only available to the owner."
      },
      "symbol()": {
        "details": "Returns the symbol of the token, usually a shorter version of the name."
      },
      "totalSupply()": {
        "details": "See {IERC20-totalSupply}."
      },
      "transfer(address,uint256)": {
        "details": "See {IERC20-transfer}. Requirements: - `to` cannot be the zero address. - the caller must have a balance of at least `amount`."
      },
      "transferFrom(address,address,uint256)": {
        "details": "See {IERC20-transferFrom}. Emits an {Approval} event indicating the updated allowance. This is not required by the EIP. See the note at the beginning of {ERC20}. NOTE: Does not update the allowance if the current allowance is the maximum `uint256`. Requirements: - `from` and `to` cannot be the zero address. - `from` must have a balance of at least `amount`. - the caller must have allowance for ``from``'s tokens of at least `amount`."
      },
      "transferOwnership(address)": {
        "details": "Transfers ownership of the contract to a new account (`newOwner`). Can only be called by the current owner."
      }
    },
    "version": 1
  },
  "userdoc": {
    "kind": "user",
    "methods": {},
    "version": 1
  }
}