{
  "contractName": "MoretBroker",
  "abi": [
    {
      "inputs": [
        {
          "internalType": "contract ERC20",
          "name": "_funding",
          "type": "address"
        },
        {
          "internalType": "contract OptionVault",
          "name": "_vault",
          "type": "address"
        }
      ],
      "stateMutability": "nonpayable",
      "type": "constructor"
    },
    {
      "anonymous": false,
      "inputs": [
        {
          "indexed": false,
          "internalType": "address",
          "name": "_pool",
          "type": "address"
        },
        {
          "indexed": false,
          "internalType": "address",
          "name": "_sender",
          "type": "address"
        },
        {
          "indexed": false,
          "internalType": "uint256",
          "name": "_amount",
          "type": "uint256"
        },
        {
          "indexed": false,
          "internalType": "uint256",
          "name": "_moretAmount",
          "type": "uint256"
        }
      ],
      "name": "ExchangePoolTokens",
      "type": "event"
    },
    {
      "anonymous": false,
      "inputs": [
        {
          "indexed": true,
          "internalType": "bytes32",
          "name": "role",
          "type": "bytes32"
        },
        {
          "indexed": true,
          "internalType": "bytes32",
          "name": "previousAdminRole",
          "type": "bytes32"
        },
        {
          "indexed": true,
          "internalType": "bytes32",
          "name": "newAdminRole",
          "type": "bytes32"
        }
      ],
      "name": "RoleAdminChanged",
      "type": "event"
    },
    {
      "anonymous": false,
      "inputs": [
        {
          "indexed": true,
          "internalType": "bytes32",
          "name": "role",
          "type": "bytes32"
        },
        {
          "indexed": true,
          "internalType": "address",
          "name": "account",
          "type": "address"
        },
        {
          "indexed": true,
          "internalType": "address",
          "name": "sender",
          "type": "address"
        }
      ],
      "name": "RoleGranted",
      "type": "event"
    },
    {
      "anonymous": false,
      "inputs": [
        {
          "indexed": true,
          "internalType": "bytes32",
          "name": "role",
          "type": "bytes32"
        },
        {
          "indexed": true,
          "internalType": "address",
          "name": "account",
          "type": "address"
        },
        {
          "indexed": true,
          "internalType": "address",
          "name": "sender",
          "type": "address"
        }
      ],
      "name": "RoleRevoked",
      "type": "event"
    },
    {
      "anonymous": false,
      "inputs": [
        {
          "indexed": false,
          "internalType": "uint256",
          "name": "_fee",
          "type": "uint256"
        }
      ],
      "name": "UpdateProtocolFees",
      "type": "event"
    },
    {
      "anonymous": false,
      "inputs": [
        {
          "indexed": false,
          "internalType": "address",
          "name": "_route",
          "type": "address"
        },
        {
          "indexed": false,
          "internalType": "bool",
          "name": "_addition",
          "type": "bool"
        }
      ],
      "name": "UpdateRoute",
      "type": "event"
    },
    {
      "anonymous": false,
      "inputs": [
        {
          "indexed": false,
          "internalType": "address",
          "name": "_pool",
          "type": "address"
        },
        {
          "indexed": false,
          "internalType": "uint256",
          "name": "_amount",
          "type": "uint256"
        }
      ],
      "name": "WithdrawPoolTokens",
      "type": "event"
    },
    {
      "inputs": [],
      "name": "DEFAULT_ADMIN_ROLE",
      "outputs": [
        {
          "internalType": "bytes32",
          "name": "",
          "type": "bytes32"
        }
      ],
      "stateMutability": "view",
      "type": "function",
      "constant": true
    },
    {
      "inputs": [],
      "name": "funding",
      "outputs": [
        {
          "internalType": "contract ERC20",
          "name": "",
          "type": "address"
        }
      ],
      "stateMutability": "view",
      "type": "function",
      "constant": true
    },
    {
      "inputs": [
        {
          "internalType": "bytes32",
          "name": "role",
          "type": "bytes32"
        }
      ],
      "name": "getRoleAdmin",
      "outputs": [
        {
          "internalType": "bytes32",
          "name": "",
          "type": "bytes32"
        }
      ],
      "stateMutability": "view",
      "type": "function",
      "constant": true
    },
    {
      "inputs": [
        {
          "internalType": "bytes32",
          "name": "role",
          "type": "bytes32"
        },
        {
          "internalType": "address",
          "name": "account",
          "type": "address"
        }
      ],
      "name": "grantRole",
      "outputs": [],
      "stateMutability": "nonpayable",
      "type": "function"
    },
    {
      "inputs": [
        {
          "internalType": "bytes32",
          "name": "role",
          "type": "bytes32"
        },
        {
          "internalType": "address",
          "name": "account",
          "type": "address"
        }
      ],
      "name": "hasRole",
      "outputs": [
        {
          "internalType": "bool",
          "name": "",
          "type": "bool"
        }
      ],
      "stateMutability": "view",
      "type": "function",
      "constant": true
    },
    {
      "inputs": [],
      "name": "minCapital",
      "outputs": [
        {
          "internalType": "uint256",
          "name": "",
          "type": "uint256"
        }
      ],
      "stateMutability": "view",
      "type": "function",
      "constant": true
    },
    {
      "inputs": [],
      "name": "poolCapital",
      "outputs": [
        {
          "internalType": "uint256",
          "name": "",
          "type": "uint256"
        }
      ],
      "stateMutability": "view",
      "type": "function",
      "constant": true
    },
    {
      "inputs": [
        {
          "internalType": "bytes32",
          "name": "role",
          "type": "bytes32"
        },
        {
          "internalType": "address",
          "name": "account",
          "type": "address"
        }
      ],
      "name": "renounceRole",
      "outputs": [],
      "stateMutability": "nonpayable",
      "type": "function"
    },
    {
      "inputs": [
        {
          "internalType": "bytes32",
          "name": "role",
          "type": "bytes32"
        },
        {
          "internalType": "address",
          "name": "account",
          "type": "address"
        }
      ],
      "name": "revokeRole",
      "outputs": [],
      "stateMutability": "nonpayable",
      "type": "function"
    },
    {
      "inputs": [
        {
          "internalType": "bytes4",
          "name": "interfaceId",
          "type": "bytes4"
        }
      ],
      "name": "supportsInterface",
      "outputs": [
        {
          "internalType": "bool",
          "name": "",
          "type": "bool"
        }
      ],
      "stateMutability": "view",
      "type": "function",
      "constant": true
    },
    {
      "inputs": [],
      "name": "vault",
      "outputs": [
        {
          "internalType": "contract OptionVault",
          "name": "",
          "type": "address"
        }
      ],
      "stateMutability": "view",
      "type": "function",
      "constant": true
    },
    {
      "inputs": [
        {
          "internalType": "contract Pool",
          "name": "_pool",
          "type": "address"
        },
        {
          "internalType": "uint256",
          "name": "_payInAmount",
          "type": "uint256"
        }
      ],
      "name": "exchangePoolForMoret",
      "outputs": [],
      "stateMutability": "nonpayable",
      "type": "function"
    },
    {
      "inputs": [
        {
          "internalType": "contract Pool",
          "name": "_pool",
          "type": "address"
        }
      ],
      "name": "addPool",
      "outputs": [],
      "stateMutability": "nonpayable",
      "type": "function"
    },
    {
      "inputs": [
        {
          "internalType": "address",
          "name": "_underlyingAddress",
          "type": "address"
        }
      ],
      "name": "getAllPools",
      "outputs": [
        {
          "internalType": "address[]",
          "name": "",
          "type": "address[]"
        }
      ],
      "stateMutability": "view",
      "type": "function",
      "constant": true
    },
    {
      "inputs": [
        {
          "internalType": "address",
          "name": "_underlyingAddress",
          "type": "address"
        }
      ],
      "name": "getTopPool",
      "outputs": [
        {
          "internalType": "address",
          "name": "",
          "type": "address"
        }
      ],
      "stateMutability": "view",
      "type": "function",
      "constant": true
    }
  ],
  "bytecode": "0x608060405260006004553480156200001657600080fd5b5060405162002ab538038062002ab583398181016040528101906200003c91906200019a565b81600660006101000a81548173ffffffffffffffffffffffffffffffffffffffff021916908373ffffffffffffffffffffffffffffffffffffffff16021790555080600760006101000a81548173ffffffffffffffffffffffffffffffffffffffff021916908373ffffffffffffffffffffffffffffffffffffffff16021790555069d3c21bcecceda10000006003819055505050620001e1565b600080fd5b600073ffffffffffffffffffffffffffffffffffffffff82169050919050565b60006200010982620000dc565b9050919050565b60006200011d82620000fc565b9050919050565b6200012f8162000110565b81146200013b57600080fd5b50565b6000815190506200014f8162000124565b92915050565b60006200016282620000fc565b9050919050565b620001748162000155565b81146200018057600080fd5b50565b600081519050620001948162000169565b92915050565b60008060408385031215620001b457620001b3620000d7565b5b6000620001c4858286016200013e565b9250506020620001d78582860162000183565b9150509250929050565b6128c480620001f16000396000f3fe608060405234801561001057600080fd5b50600436106100f55760003560e01c8063aa61dcd311610097578063d903802711610066578063d903802714610286578063d914cd4b146102a2578063da882217146102be578063fbfa77cf146102ee576100f5565b8063aa61dcd314610210578063caa8c3821461022e578063cb4c86b71461024c578063d547741f1461026a576100f5565b8063345954dc116100d3578063345954dc1461017657806336568abe146101a657806391d14854146101c2578063a217fddf146101f2576100f5565b806301ffc9a7146100fa578063248a9ca31461012a5780632f2ff15d1461015a575b600080fd5b610114600480360381019061010f9190611b6e565b61030c565b6040516101219190611bb6565b60405180910390f35b610144600480360381019061013f9190611c07565b610386565b6040516101519190611c43565b60405180910390f35b610174600480360381019061016f9190611cbc565b6103a5565b005b610190600480360381019061018b9190611cfc565b6103c6565b60405161019d9190611de7565b60405180910390f35b6101c060048036038101906101bb9190611cbc565b610416565b005b6101dc60048036038101906101d79190611cbc565b610499565b6040516101e99190611bb6565b60405180910390f35b6101fa610503565b6040516102079190611c43565b60405180910390f35b61021861050a565b6040516102259190611e22565b60405180910390f35b610236610510565b6040516102439190611e22565b60405180910390f35b610254610516565b6040516102619190611e9c565b60405180910390f35b610284600480360381019061027f9190611cbc565b61053c565b005b6102a0600480360381019061029b9190611f21565b61055d565b005b6102bc60048036038101906102b79190611f61565b610d77565b005b6102d860048036038101906102d39190611cfc565b610ea8565b6040516102e59190611f9d565b60405180910390f35b6102f6610f11565b6040516103039190611fd9565b60405180910390f35b60007f7965db0b000000000000000000000000000000000000000000000000000000007bffffffffffffffffffffffffffffffffffffffffffffffffffffffff1916827bffffffffffffffffffffffffffffffffffffffffffffffffffffffff1916148061037f575061037e82610f37565b5b9050919050565b6000806000838152602001908152602001600020600101549050919050565b6103ae82610386565b6103b781610fa1565b6103c18383610fb5565b505050565b606061040f600260008473ffffffffffffffffffffffffffffffffffffffff1673ffffffffffffffffffffffffffffffffffffffff168152602001908152602001600020611095565b9050919050565b61041e6110b6565b73ffffffffffffffffffffffffffffffffffffffff168173ffffffffffffffffffffffffffffffffffffffff161461048b576040517f08c379a000000000000000000000000000000000000000000000000000000000815260040161048290612077565b60405180910390fd5b61049582826110be565b5050565b600080600084815260200190815260200160002060000160008373ffffffffffffffffffffffffffffffffffffffff1673ffffffffffffffffffffffffffffffffffffffff16815260200190815260200160002060009054906101000a900460ff16905092915050565b6000801b81565b60045481565b60035481565b600660009054906101000a900473ffffffffffffffffffffffffffffffffffffffff1681565b61054582610386565b61054e81610fa1565b61055883836110be565b505050565b60008273ffffffffffffffffffffffffffffffffffffffff16631f21f9af6040518163ffffffff1660e01b8152600401602060405180830381865afa1580156105aa573d6000803e3d6000fd5b505050506040513d601f19601f820116820180604052508101906105ce91906120d5565b73ffffffffffffffffffffffffffffffffffffffff166305268cff6040518163ffffffff1660e01b8152600401602060405180830381865afa158015610618573d6000803e3d6000fd5b505050506040513d601f19601f8201168201806040525081019061063c9190612140565b905060008373ffffffffffffffffffffffffffffffffffffffff16631f21f9af6040518163ffffffff1660e01b8152600401602060405180830381865afa15801561068b573d6000803e3d6000fd5b505050506040513d601f19601f820116820180604052508101906106af91906120d5565b73ffffffffffffffffffffffffffffffffffffffff16636f307dc36040518163ffffffff1660e01b8152600401602060405180830381865afa1580156106f9573d6000803e3d6000fd5b505050506040513d601f19601f8201168201806040525081019061071d9190612182565b90508173ffffffffffffffffffffffffffffffffffffffff166315dc2e9d826040518263ffffffff1660e01b81526004016107589190611f9d565b602060405180830381865afa158015610775573d6000803e3d6000fd5b505050506040513d601f19601f8201168201806040525081019061079991906121ed565b5060006107a6858361119f565b905060008473__MathLib_______________________________63b3947c179091848973ffffffffffffffffffffffffffffffffffffffff166318160ddd6040518163ffffffff1660e01b8152600401602060405180830381865afa158015610813573d6000803e3d6000fd5b505050506040513d601f19601f82011682018060405250810190610837919061222f565b6040518463ffffffff1660e01b81526004016108559392919061226b565b602060405180830381865af4158015610872573d6000803e3d6000fd5b505050506040513d601f19601f82011682018060405250810190610896919061222f565b905060006108a8600354600454611549565b905060008273__MathLib_______________________________63b3947c1790918873ffffffffffffffffffffffffffffffffffffffff166318160ddd6040518163ffffffff1660e01b8152600401602060405180830381865afa158015610914573d6000803e3d6000fd5b505050506040513d601f19601f82011682018060405250810190610938919061222f565b856040518463ffffffff1660e01b81526004016109579392919061226b565b602060405180830381865af4158015610974573d6000803e3d6000fd5b505050506040513d601f19601f82011682018060405250810190610998919061222f565b90508773ffffffffffffffffffffffffffffffffffffffff166323b872dd33888a6040518463ffffffff1660e01b81526004016109d7939291906122a2565b6020604051808303816000875af11580156109f6573d6000803e3d6000fd5b505050506040513d601f19601f82011682018060405250810190610a1a9190612305565b5060008873ffffffffffffffffffffffffffffffffffffffff166370a08231886040518263ffffffff1660e01b8152600401610a569190611f9d565b602060405180830381865afa158015610a73573d6000803e3d6000fd5b505050506040513d601f19601f82011682018060405250810190610a97919061222f565b73__MathLib_______________________________63b3947c179091878c73ffffffffffffffffffffffffffffffffffffffff166318160ddd6040518163ffffffff1660e01b8152600401602060405180830381865afa158015610aff573d6000803e3d6000fd5b505050506040513d601f19601f82011682018060405250810190610b23919061222f565b6040518463ffffffff1660e01b8152600401610b419392919061226b565b602060405180830381865af4158015610b5e573d6000803e3d6000fd5b505050506040513d601f19601f82011682018060405250810190610b82919061222f565b9050610bd589600560008973ffffffffffffffffffffffffffffffffffffffff1673ffffffffffffffffffffffffffffffffffffffff16815260200190815260200160002061156390919063ffffffff16565b15610c595780610c37600454610c328c600560008c73ffffffffffffffffffffffffffffffffffffffff1673ffffffffffffffffffffffffffffffffffffffff16815260200190815260200160002061159390919063ffffffff16565b6115c6565b600454610c449190612361565b610c4e9190612395565b600481905550610c6e565b80600454610c679190612395565b6004819055505b610cc18982600560008a73ffffffffffffffffffffffffffffffffffffffff1673ffffffffffffffffffffffffffffffffffffffff1681526020019081526020016000206115df9092919063ffffffff16565b508673ffffffffffffffffffffffffffffffffffffffff166340c10f1933846040518363ffffffff1660e01b8152600401610cfd9291906123eb565b600060405180830381600087803b158015610d1757600080fd5b505af1158015610d2b573d6000803e3d6000fd5b505050507f4877c2e401ca94d9fe3d52bf4c0904a11f6a4bcbf76b8ec5a1684f396859e0c489338a85604051610d649493929190612414565b60405180910390a1505050505050505050565b610ea481600260008473ffffffffffffffffffffffffffffffffffffffff16631f21f9af6040518163ffffffff1660e01b8152600401602060405180830381865afa158015610dca573d6000803e3d6000fd5b505050506040513d601f19601f82011682018060405250810190610dee91906120d5565b73ffffffffffffffffffffffffffffffffffffffff16636f307dc36040518163ffffffff1660e01b8152600401602060405180830381865afa158015610e38573d6000803e3d6000fd5b505050506040513d601f19601f82011682018060405250810190610e5c9190612182565b73ffffffffffffffffffffffffffffffffffffffff1673ffffffffffffffffffffffffffffffffffffffff16815260200190815260200160002061161490919063ffffffff16565b5050565b6000600160008373ffffffffffffffffffffffffffffffffffffffff1673ffffffffffffffffffffffffffffffffffffffff16815260200190815260200160002060009054906101000a900473ffffffffffffffffffffffffffffffffffffffff169050919050565b600760009054906101000a900473ffffffffffffffffffffffffffffffffffffffff1681565b60007f01ffc9a7000000000000000000000000000000000000000000000000000000007bffffffffffffffffffffffffffffffffffffffffffffffffffffffff1916827bffffffffffffffffffffffffffffffffffffffffffffffffffffffff1916149050919050565b610fb281610fad6110b6565b611644565b50565b610fbf8282610499565b61109157600160008084815260200190815260200160002060000160008373ffffffffffffffffffffffffffffffffffffffff1673ffffffffffffffffffffffffffffffffffffffff16815260200190815260200160002060006101000a81548160ff0219169083151502179055506110366110b6565b73ffffffffffffffffffffffffffffffffffffffff168173ffffffffffffffffffffffffffffffffffffffff16837f2f8788117e7eff1d82e926ec794901d17c78024a50270940304540a733656f0d60405160405180910390a45b5050565b606060006110a5836000016116e1565b905060608190508092505050919050565b600033905090565b6110c88282610499565b1561119b57600080600084815260200190815260200160002060000160008373ffffffffffffffffffffffffffffffffffffffff1673ffffffffffffffffffffffffffffffffffffffff16815260200190815260200160002060006101000a81548160ff0219169083151502179055506111406110b6565b73ffffffffffffffffffffffffffffffffffffffff168173ffffffffffffffffffffffffffffffffffffffff16837ff6391f5c32d9c69d2a47ea670b442974b53935d1edc7fd64eb21e047a839171b60405160405180910390a45b5050565b6000600760009054906101000a900473ffffffffffffffffffffffffffffffffffffffff1673ffffffffffffffffffffffffffffffffffffffff16635c273c2f84600160006040518463ffffffff1660e01b81526004016112029392919061247a565b602060405180830381865afa15801561121f573d6000803e3d6000fd5b505050506040513d601f19601f82011682018060405250810190611243919061222f565b90506003548111611289576040517f08c379a0000000000000000000000000000000000000000000000000000000008152600401611280906124fd565b60405180910390fd5b8273ffffffffffffffffffffffffffffffffffffffff16600160008473ffffffffffffffffffffffffffffffffffffffff1673ffffffffffffffffffffffffffffffffffffffff16815260200190815260200160002060009054906101000a900473ffffffffffffffffffffffffffffffffffffffff1673ffffffffffffffffffffffffffffffffffffffff16146115435760008073ffffffffffffffffffffffffffffffffffffffff16600160008573ffffffffffffffffffffffffffffffffffffffff1673ffffffffffffffffffffffffffffffffffffffff16815260200190815260200160002060009054906101000a900473ffffffffffffffffffffffffffffffffffffffff1673ffffffffffffffffffffffffffffffffffffffff16036113b65760006114b8565b600760009054906101000a900473ffffffffffffffffffffffffffffffffffffffff1673ffffffffffffffffffffffffffffffffffffffff16635c273c2f600160008673ffffffffffffffffffffffffffffffffffffffff1673ffffffffffffffffffffffffffffffffffffffff16815260200190815260200160002060009054906101000a900473ffffffffffffffffffffffffffffffffffffffff16600160006040518463ffffffff1660e01b81526004016114769392919061247a565b602060405180830381865afa158015611493573d6000803e3d6000fd5b505050506040513d601f19601f820116820180604052508101906114b7919061222f565b5b9050808211156115415783600160008573ffffffffffffffffffffffffffffffffffffffff1673ffffffffffffffffffffffffffffffffffffffff16815260200190815260200160002060006101000a81548173ffffffffffffffffffffffffffffffffffffffff021916908373ffffffffffffffffffffffffffffffffffffffff1602179055505b505b92915050565b600081831015611559578161155b565b825b905092915050565b600061158b836000018373ffffffffffffffffffffffffffffffffffffffff1660001b61173d565b905092915050565b60006115bb836000018373ffffffffffffffffffffffffffffffffffffffff1660001b61175d565b60001c905092915050565b60008183106115d557816115d7565b825b905092915050565b600061160b846000018473ffffffffffffffffffffffffffffffffffffffff1660001b8460001b6117d9565b90509392505050565b600061163c836000018373ffffffffffffffffffffffffffffffffffffffff1660001b611814565b905092915050565b61164e8282610499565b6116dd576116738173ffffffffffffffffffffffffffffffffffffffff166014611884565b6116818360001c6020611884565b60405160200161169292919061262f565b6040516020818303038152906040526040517f08c379a00000000000000000000000000000000000000000000000000000000081526004016116d491906126b3565b60405180910390fd5b5050565b60608160000180548060200260200160405190810160405280929190818152602001828054801561173157602002820191906000526020600020905b81548152602001906001019080831161171d575b50505050509050919050565b60006117558284600001611ac090919063ffffffff16565b905092915050565b6000808360020160008481526020019081526020016000205490506000801b81141580611790575061178f848461173d565b5b6117cf576040517f08c379a00000000000000000000000000000000000000000000000000000000081526004016117c690612721565b60405180910390fd5b8091505092915050565b6000818460020160008581526020019081526020016000208190555061180b8385600001611ad790919063ffffffff16565b90509392505050565b60006118208383611aee565b61187957826000018290806001815401808255809150506001900390600052602060002001600090919091909150558260000180549050836001016000848152602001908152602001600020819055506001905061187e565b600090505b92915050565b6060600060028360026118979190612741565b6118a19190612395565b67ffffffffffffffff8111156118ba576118b961279b565b5b6040519080825280601f01601f1916602001820160405280156118ec5781602001600182028036833780820191505090505b5090507f300000000000000000000000000000000000000000000000000000000000000081600081518110611924576119236127ca565b5b60200101907effffffffffffffffffffffffffffffffffffffffffffffffffffffffffffff1916908160001a9053507f780000000000000000000000000000000000000000000000000000000000000081600181518110611988576119876127ca565b5b60200101907effffffffffffffffffffffffffffffffffffffffffffffffffffffffffffff1916908160001a905350600060018460026119c89190612741565b6119d29190612395565b90505b6001811115611a72577f3031323334353637383961626364656600000000000000000000000000000000600f861660108110611a1457611a136127ca565b5b1a60f81b828281518110611a2b57611a2a6127ca565b5b60200101907effffffffffffffffffffffffffffffffffffffffffffffffffffffffffffff1916908160001a905350600485901c945080611a6b906127f9565b90506119d5565b5060008414611ab6576040517f08c379a0000000000000000000000000000000000000000000000000000000008152600401611aad9061286e565b60405180910390fd5b8091505092915050565b6000611acf8360000183611aee565b905092915050565b6000611ae68360000183611814565b905092915050565b600080836001016000848152602001908152602001600020541415905092915050565b600080fd5b60007fffffffff0000000000000000000000000000000000000000000000000000000082169050919050565b611b4b81611b16565b8114611b5657600080fd5b50565b600081359050611b6881611b42565b92915050565b600060208284031215611b8457611b83611b11565b5b6000611b9284828501611b59565b91505092915050565b60008115159050919050565b611bb081611b9b565b82525050565b6000602082019050611bcb6000830184611ba7565b92915050565b6000819050919050565b611be481611bd1565b8114611bef57600080fd5b50565b600081359050611c0181611bdb565b92915050565b600060208284031215611c1d57611c1c611b11565b5b6000611c2b84828501611bf2565b91505092915050565b611c3d81611bd1565b82525050565b6000602082019050611c586000830184611c34565b92915050565b600073ffffffffffffffffffffffffffffffffffffffff82169050919050565b6000611c8982611c5e565b9050919050565b611c9981611c7e565b8114611ca457600080fd5b50565b600081359050611cb681611c90565b92915050565b60008060408385031215611cd357611cd2611b11565b5b6000611ce185828601611bf2565b9250506020611cf285828601611ca7565b9150509250929050565b600060208284031215611d1257611d11611b11565b5b6000611d2084828501611ca7565b91505092915050565b600081519050919050565b600082825260208201905092915050565b6000819050602082019050919050565b611d5e81611c7e565b82525050565b6000611d708383611d55565b60208301905092915050565b6000602082019050919050565b6000611d9482611d29565b611d9e8185611d34565b9350611da983611d45565b8060005b83811015611dda578151611dc18882611d64565b9750611dcc83611d7c565b925050600181019050611dad565b5085935050505092915050565b60006020820190508181036000830152611e018184611d89565b905092915050565b6000819050919050565b611e1c81611e09565b82525050565b6000602082019050611e376000830184611e13565b92915050565b6000819050919050565b6000611e62611e5d611e5884611c5e565b611e3d565b611c5e565b9050919050565b6000611e7482611e47565b9050919050565b6000611e8682611e69565b9050919050565b611e9681611e7b565b82525050565b6000602082019050611eb16000830184611e8d565b92915050565b6000611ec282611c7e565b9050919050565b611ed281611eb7565b8114611edd57600080fd5b50565b600081359050611eef81611ec9565b92915050565b611efe81611e09565b8114611f0957600080fd5b50565b600081359050611f1b81611ef5565b92915050565b60008060408385031215611f3857611f37611b11565b5b6000611f4685828601611ee0565b9250506020611f5785828601611f0c565b9150509250929050565b600060208284031215611f7757611f76611b11565b5b6000611f8584828501611ee0565b91505092915050565b611f9781611c7e565b82525050565b6000602082019050611fb26000830184611f8e565b92915050565b6000611fc382611e69565b9050919050565b611fd381611fb8565b82525050565b6000602082019050611fee6000830184611fca565b92915050565b600082825260208201905092915050565b7f416363657373436f6e74726f6c3a2063616e206f6e6c792072656e6f756e636560008201527f20726f6c657320666f722073656c660000000000000000000000000000000000602082015250565b6000612061602f83611ff4565b915061206c82612005565b604082019050919050565b6000602082019050818103600083015261209081612054565b9050919050565b60006120a282611c7e565b9050919050565b6120b281612097565b81146120bd57600080fd5b50565b6000815190506120cf816120a9565b92915050565b6000602082840312156120eb576120ea611b11565b5b60006120f9848285016120c0565b91505092915050565b600061210d82611c7e565b9050919050565b61211d81612102565b811461212857600080fd5b50565b60008151905061213a81612114565b92915050565b60006020828403121561215657612155611b11565b5b60006121648482850161212b565b91505092915050565b60008151905061217c81611c90565b92915050565b60006020828403121561219857612197611b11565b5b60006121a68482850161216d565b91505092915050565b60006121ba82611c7e565b9050919050565b6121ca816121af565b81146121d557600080fd5b50565b6000815190506121e7816121c1565b92915050565b60006020828403121561220357612202611b11565b5b6000612211848285016121d8565b91505092915050565b60008151905061222981611ef5565b92915050565b60006020828403121561224557612244611b11565b5b60006122538482850161221a565b91505092915050565b61226581611e09565b82525050565b6000606082019050612280600083018661225c565b61228d602083018561225c565b61229a604083018461225c565b949350505050565b60006060820190506122b76000830186611f8e565b6122c46020830185611f8e565b6122d16040830184611e13565b949350505050565b6122e281611b9b565b81146122ed57600080fd5b50565b6000815190506122ff816122d9565b92915050565b60006020828403121561231b5761231a611b11565b5b6000612329848285016122f0565b91505092915050565b7f4e487b7100000000000000000000000000000000000000000000000000000000600052601160045260246000fd5b600061236c82611e09565b915061237783611e09565b92508282101561238a57612389612332565b5b828203905092915050565b60006123a082611e09565b91506123ab83611e09565b9250827fffffffffffffffffffffffffffffffffffffffffffffffffffffffffffffffff038211156123e0576123df612332565b5b828201905092915050565b60006040820190506124006000830185611f8e565b61240d6020830184611e13565b9392505050565b60006080820190506124296000830187611f8e565b6124366020830186611f8e565b6124436040830185611e13565b6124506060830184611e13565b95945050505050565b600061246482611e69565b9050919050565b61247481612459565b82525050565b600060608201905061248f600083018661246b565b61249c6020830185611ba7565b6124a96040830184611ba7565b949350505050565b7f6d696e206361706974616c206e6f74206d65742e000000000000000000000000600082015250565b60006124e7601483611ff4565b91506124f2826124b1565b602082019050919050565b60006020820190508181036000830152612516816124da565b9050919050565b600081905092915050565b7f416363657373436f6e74726f6c3a206163636f756e7420000000000000000000600082015250565b600061255e60178361251d565b915061256982612528565b601782019050919050565b600081519050919050565b60005b8381101561259d578082015181840152602081019050612582565b838111156125ac576000848401525b50505050565b60006125bd82612574565b6125c7818561251d565b93506125d781856020860161257f565b80840191505092915050565b7f206973206d697373696e6720726f6c6520000000000000000000000000000000600082015250565b600061261960118361251d565b9150612624826125e3565b601182019050919050565b600061263a82612551565b915061264682856125b2565b91506126518261260c565b915061265d82846125b2565b91508190509392505050565b6000601f19601f8301169050919050565b600061268582612574565b61268f8185611ff4565b935061269f81856020860161257f565b6126a881612669565b840191505092915050565b600060208201905081810360008301526126cd818461267a565b905092915050565b7f456e756d657261626c654d61703a206e6f6e6578697374656e74206b65790000600082015250565b600061270b601e83611ff4565b9150612716826126d5565b602082019050919050565b6000602082019050818103600083015261273a816126fe565b9050919050565b600061274c82611e09565b915061275783611e09565b9250817fffffffffffffffffffffffffffffffffffffffffffffffffffffffffffffffff04831182151516156127905761278f612332565b5b828202905092915050565b7f4e487b7100000000000000000000000000000000000000000000000000000000600052604160045260246000fd5b7f4e487b7100000000000000000000000000000000000000000000000000000000600052603260045260246000fd5b600061280482611e09565b91506000820361281757612816612332565b5b600182039050919050565b7f537472696e67733a20686578206c656e67746820696e73756666696369656e74600082015250565b6000612858602083611ff4565b915061286382612822565b602082019050919050565b600060208201905081810360008301526128878161284b565b905091905056fea2646970667358221220d841851530536eccd94d45ca25044f35fa09c17a2803b69e024df0eed403213064736f6c634300080f0033",
  "immutableReferences": {},
  "source": "// SPDX-License-Identifier: MIT\npragma solidity ^0.8.4;\n\nimport \"@openzeppelin/contracts/access/Ownable.sol\";\nimport \"@openzeppelin/contracts/access/AccessControl.sol\";\nimport \"@openzeppelin/contracts/token/ERC20/ERC20.sol\";\nimport \"@openzeppelin/contracts/utils/math/Math.sol\";\nimport \"@openzeppelin/contracts/utils/structs/EnumerableSet.sol\";\nimport \"@openzeppelin/contracts/utils/structs/EnumerableMap.sol\";\nimport \"../pools/Pool.sol\";\nimport \"../libraries/MathLib.sol\";\nimport \"../interfaces/EMoret.sol\";\nimport \"../OptionVault.sol\";\nimport \"../VolatilityChain.sol\";\nimport \"./Moret.sol\";\n\n/// @custom:security-contact eight@moret.io\ncontract MoretBroker is EMoret, AccessControl {\n    using MathLib for uint256;\n    using EnumerableSet for EnumerableSet.AddressSet;\n    using EnumerableMap for EnumerableMap.AddressToUintMap;\n\n    // list of pools\n    mapping(address=>address) internal topPoolMap; // only the top pool address is allowed to exchange their pool tokens with Moret. underlying token addres => pool address\n    mapping(address=>EnumerableSet.AddressSet) internal allPoolMap; // all created pools\n    \n    // capital records\n    uint256 public minCapital; // 1m minimum capital for the whole Moret pool and for exchanges\n    uint256 public poolCapital = 0; // total capitals\n    mapping(address=>EnumerableMap.AddressToUintMap) internal poolCapitalMap;\n    \n    // address\n    ERC20 public funding;\n    OptionVault public vault;\n\n    constructor(ERC20 _funding, OptionVault _vault){\n        funding = _funding;\n        vault = _vault;\n        minCapital = 1e24; // 1m min notional (in 18 decimals)\n        }\n\n    // functions to allow pool to exchange their tokens for Moret\n    // arguments: pool contract address, amount of pool tokens to be exchanged\n    // a minimum capital of 1m USDC is assumed for any exchange calculations.\n    function exchangePoolForMoret(Pool _pool, uint256 _payInAmount) external{\n        Moret _gov = _pool.marketMaker().govToken();\n        address _underlyingAddress = _pool.marketMaker().underlying();\n        _gov.getVolatilityChain(_underlyingAddress); // use this function to check if underlying exists.\n\n        uint256 _poolNetCapital = getAndUpdateTopPool(_pool, _underlyingAddress);\n        uint256 _payInCapital = _payInAmount.muldiv(_poolNetCapital, _pool.totalSupply());\n        uint256 _existingCapital = Math.max(minCapital, poolCapital);\n        uint256 _mintAmount = _payInCapital.muldiv(_gov.totalSupply(), _existingCapital);\n\n        _pool.transferFrom(msg.sender, address(_gov), _payInAmount);\n        uint256 _updatedCapital = _pool.balanceOf(address(_gov)).muldiv(_poolNetCapital, _pool.totalSupply());\n        if(poolCapitalMap[_underlyingAddress].contains(address(_pool))){\n            poolCapital = poolCapital - Math.min(poolCapital, poolCapitalMap[_underlyingAddress].get(address(_pool))) + _updatedCapital;\n        }\n        else{\n            poolCapital = poolCapital + _updatedCapital;\n        }\n        poolCapitalMap[_underlyingAddress].set(address(_pool), _updatedCapital);\n        \n        _gov.mint(msg.sender, _mintAmount); // This ensures only the right Moret contract mints.\n        emit ExchangePoolTokens(address(_pool), msg.sender, _payInAmount, _mintAmount);}\n\n    function getAndUpdateTopPool(Pool _pool, address _underlyingAddress) internal returns(uint256 _poolNetCapital){\n        _poolNetCapital = vault.calcCapital(_pool, true, false);\n        require(_poolNetCapital > minCapital, \"min capital not met.\");\n\n        if (topPoolMap[_underlyingAddress] != address(_pool)){\n            uint256 _topCapital = (topPoolMap[_underlyingAddress] != address(0))? vault.calcCapital(Pool(topPoolMap[_underlyingAddress]), true, false): 0;\n            if (_poolNetCapital > _topCapital) {\n                topPoolMap[_underlyingAddress] = address(_pool);}}}\n\n    // update list of pools\n    function addPool(Pool _pool) external{\n        allPoolMap[_pool.marketMaker().underlying()].add(address(_pool));}\n    function getAllPools(address _underlyingAddress) external view returns(address[] memory){\n        return allPoolMap[_underlyingAddress].values();}\n    function getTopPool(address _underlyingAddress) external view returns(address){\n        return topPoolMap[_underlyingAddress];}\n    // function getPoolsCount(address _underlyingAddress) external view returns(uint256){\n    //     return allPoolMap[_underlyingAddress].length();}\n    \n}",
  "sourcePath": "/Users/mac/Documents/GitHub/moret/contracts/governance/MoretBroker.sol",
  "compiler": {
    "name": "solc",
    "version": "0.8.15+commit.e14f2714.Emscripten.clang"
  },
  "schemaVersion": "3.4.3",
  "updatedAt": "2022-06-28T19:41:13.538Z",
  "networkType": "ethereum",
  "devdoc": {
    "custom:security-contact": "eight@moret.io",
    "kind": "dev",
    "methods": {
      "getRoleAdmin(bytes32)": {
        "details": "Returns the admin role that controls `role`. See {grantRole} and {revokeRole}. To change a role's admin, use {_setRoleAdmin}."
      },
      "grantRole(bytes32,address)": {
        "details": "Grants `role` to `account`. If `account` had not been already granted `role`, emits a {RoleGranted} event. Requirements: - the caller must have ``role``'s admin role."
      },
      "hasRole(bytes32,address)": {
        "details": "Returns `true` if `account` has been granted `role`."
      },
      "renounceRole(bytes32,address)": {
        "details": "Revokes `role` from the calling account. Roles are often managed via {grantRole} and {revokeRole}: this function's purpose is to provide a mechanism for accounts to lose their privileges if they are compromised (such as when a trusted device is misplaced). If the calling account had been revoked `role`, emits a {RoleRevoked} event. Requirements: - the caller must be `account`."
      },
      "revokeRole(bytes32,address)": {
        "details": "Revokes `role` from `account`. If `account` had been granted `role`, emits a {RoleRevoked} event. Requirements: - the caller must have ``role``'s admin role."
      },
      "supportsInterface(bytes4)": {
        "details": "See {IERC165-supportsInterface}."
      }
    },
    "version": 1
  },
  "userdoc": {
    "kind": "user",
    "methods": {},
    "version": 1
  }
}