{
  "contractName": "MoretBroker",
  "abi": [
    {
      "inputs": [
        {
          "internalType": "contract ERC20",
          "name": "_funding",
          "type": "address"
        },
        {
          "internalType": "address",
          "name": "_exchange",
          "type": "address"
        }
      ],
      "stateMutability": "nonpayable",
      "type": "constructor"
    },
    {
      "anonymous": false,
      "inputs": [
        {
          "indexed": false,
          "internalType": "address",
          "name": "_address",
          "type": "address"
        },
        {
          "indexed": false,
          "internalType": "bool",
          "name": "_add",
          "type": "bool"
        }
      ],
      "name": "AddPool",
      "type": "event"
    },
    {
      "anonymous": false,
      "inputs": [
        {
          "indexed": false,
          "internalType": "address",
          "name": "_pool",
          "type": "address"
        },
        {
          "indexed": false,
          "internalType": "address",
          "name": "_sender",
          "type": "address"
        },
        {
          "indexed": false,
          "internalType": "uint256",
          "name": "_amount",
          "type": "uint256"
        },
        {
          "indexed": false,
          "internalType": "uint256",
          "name": "_moretAmount",
          "type": "uint256"
        }
      ],
      "name": "ExchangePoolTokens",
      "type": "event"
    },
    {
      "anonymous": false,
      "inputs": [
        {
          "indexed": true,
          "internalType": "bytes32",
          "name": "role",
          "type": "bytes32"
        },
        {
          "indexed": true,
          "internalType": "bytes32",
          "name": "previousAdminRole",
          "type": "bytes32"
        },
        {
          "indexed": true,
          "internalType": "bytes32",
          "name": "newAdminRole",
          "type": "bytes32"
        }
      ],
      "name": "RoleAdminChanged",
      "type": "event"
    },
    {
      "anonymous": false,
      "inputs": [
        {
          "indexed": true,
          "internalType": "bytes32",
          "name": "role",
          "type": "bytes32"
        },
        {
          "indexed": true,
          "internalType": "address",
          "name": "account",
          "type": "address"
        },
        {
          "indexed": true,
          "internalType": "address",
          "name": "sender",
          "type": "address"
        }
      ],
      "name": "RoleGranted",
      "type": "event"
    },
    {
      "anonymous": false,
      "inputs": [
        {
          "indexed": true,
          "internalType": "bytes32",
          "name": "role",
          "type": "bytes32"
        },
        {
          "indexed": true,
          "internalType": "address",
          "name": "account",
          "type": "address"
        },
        {
          "indexed": true,
          "internalType": "address",
          "name": "sender",
          "type": "address"
        }
      ],
      "name": "RoleRevoked",
      "type": "event"
    },
    {
      "anonymous": false,
      "inputs": [
        {
          "indexed": false,
          "internalType": "uint256",
          "name": "_fee",
          "type": "uint256"
        }
      ],
      "name": "UpdateProtocolFees",
      "type": "event"
    },
    {
      "anonymous": false,
      "inputs": [
        {
          "indexed": false,
          "internalType": "address",
          "name": "_address",
          "type": "address"
        }
      ],
      "name": "UpdateProtocolRecipient",
      "type": "event"
    },
    {
      "anonymous": false,
      "inputs": [
        {
          "indexed": false,
          "internalType": "address",
          "name": "_route",
          "type": "address"
        },
        {
          "indexed": false,
          "internalType": "bool",
          "name": "_addition",
          "type": "bool"
        }
      ],
      "name": "UpdateRoute",
      "type": "event"
    },
    {
      "anonymous": false,
      "inputs": [
        {
          "indexed": false,
          "internalType": "address",
          "name": "_underlying",
          "type": "address"
        },
        {
          "indexed": false,
          "internalType": "address",
          "name": "_oracle",
          "type": "address"
        }
      ],
      "name": "UpdateToken",
      "type": "event"
    },
    {
      "anonymous": false,
      "inputs": [
        {
          "indexed": false,
          "internalType": "address",
          "name": "_underlying",
          "type": "address"
        },
        {
          "indexed": false,
          "internalType": "uint256",
          "name": "_tenor",
          "type": "uint256"
        },
        {
          "indexed": false,
          "internalType": "address",
          "name": "_volToken",
          "type": "address"
        }
      ],
      "name": "UpdateVolToken",
      "type": "event"
    },
    {
      "anonymous": false,
      "inputs": [
        {
          "indexed": false,
          "internalType": "address",
          "name": "_address",
          "type": "address"
        },
        {
          "indexed": false,
          "internalType": "bool",
          "name": "_add",
          "type": "bool"
        }
      ],
      "name": "UpdateVolTradingPool",
      "type": "event"
    },
    {
      "anonymous": false,
      "inputs": [
        {
          "indexed": false,
          "internalType": "address",
          "name": "_pool",
          "type": "address"
        },
        {
          "indexed": false,
          "internalType": "uint256",
          "name": "_amount",
          "type": "uint256"
        }
      ],
      "name": "WithdrawPoolTokens",
      "type": "event"
    },
    {
      "inputs": [],
      "name": "DEFAULT_ADMIN_ROLE",
      "outputs": [
        {
          "internalType": "bytes32",
          "name": "",
          "type": "bytes32"
        }
      ],
      "stateMutability": "view",
      "type": "function",
      "constant": true
    },
    {
      "inputs": [],
      "name": "exchange",
      "outputs": [
        {
          "internalType": "address",
          "name": "",
          "type": "address"
        }
      ],
      "stateMutability": "view",
      "type": "function",
      "constant": true
    },
    {
      "inputs": [],
      "name": "funding",
      "outputs": [
        {
          "internalType": "contract ERC20",
          "name": "",
          "type": "address"
        }
      ],
      "stateMutability": "view",
      "type": "function",
      "constant": true
    },
    {
      "inputs": [
        {
          "internalType": "bytes32",
          "name": "role",
          "type": "bytes32"
        }
      ],
      "name": "getRoleAdmin",
      "outputs": [
        {
          "internalType": "bytes32",
          "name": "",
          "type": "bytes32"
        }
      ],
      "stateMutability": "view",
      "type": "function",
      "constant": true
    },
    {
      "inputs": [
        {
          "internalType": "bytes32",
          "name": "role",
          "type": "bytes32"
        },
        {
          "internalType": "address",
          "name": "account",
          "type": "address"
        }
      ],
      "name": "grantRole",
      "outputs": [],
      "stateMutability": "nonpayable",
      "type": "function"
    },
    {
      "inputs": [
        {
          "internalType": "bytes32",
          "name": "role",
          "type": "bytes32"
        },
        {
          "internalType": "address",
          "name": "account",
          "type": "address"
        }
      ],
      "name": "hasRole",
      "outputs": [
        {
          "internalType": "bool",
          "name": "",
          "type": "bool"
        }
      ],
      "stateMutability": "view",
      "type": "function",
      "constant": true
    },
    {
      "inputs": [],
      "name": "minCapital",
      "outputs": [
        {
          "internalType": "uint256",
          "name": "",
          "type": "uint256"
        }
      ],
      "stateMutability": "view",
      "type": "function",
      "constant": true
    },
    {
      "inputs": [],
      "name": "poolCapital",
      "outputs": [
        {
          "internalType": "uint256",
          "name": "",
          "type": "uint256"
        }
      ],
      "stateMutability": "view",
      "type": "function",
      "constant": true
    },
    {
      "inputs": [
        {
          "internalType": "bytes32",
          "name": "role",
          "type": "bytes32"
        },
        {
          "internalType": "address",
          "name": "account",
          "type": "address"
        }
      ],
      "name": "renounceRole",
      "outputs": [],
      "stateMutability": "nonpayable",
      "type": "function"
    },
    {
      "inputs": [
        {
          "internalType": "bytes32",
          "name": "role",
          "type": "bytes32"
        },
        {
          "internalType": "address",
          "name": "account",
          "type": "address"
        }
      ],
      "name": "revokeRole",
      "outputs": [],
      "stateMutability": "nonpayable",
      "type": "function"
    },
    {
      "inputs": [
        {
          "internalType": "bytes4",
          "name": "interfaceId",
          "type": "bytes4"
        }
      ],
      "name": "supportsInterface",
      "outputs": [
        {
          "internalType": "bool",
          "name": "",
          "type": "bool"
        }
      ],
      "stateMutability": "view",
      "type": "function",
      "constant": true
    },
    {
      "inputs": [],
      "name": "vault",
      "outputs": [
        {
          "internalType": "contract OptionVault",
          "name": "",
          "type": "address"
        }
      ],
      "stateMutability": "view",
      "type": "function",
      "constant": true
    },
    {
      "inputs": [
        {
          "internalType": "address",
          "name": "_poolAddr",
          "type": "address"
        },
        {
          "internalType": "uint256",
          "name": "_payInAmount",
          "type": "uint256"
        }
      ],
      "name": "exchangePoolForMoret",
      "outputs": [],
      "stateMutability": "nonpayable",
      "type": "function"
    },
    {
      "inputs": [
        {
          "internalType": "contract Pool",
          "name": "_pool",
          "type": "address"
        },
        {
          "internalType": "bool",
          "name": "_remove",
          "type": "bool"
        }
      ],
      "name": "addPool",
      "outputs": [],
      "stateMutability": "nonpayable",
      "type": "function"
    },
    {
      "inputs": [
        {
          "internalType": "address",
          "name": "_undAddr",
          "type": "address"
        }
      ],
      "name": "getAllPools",
      "outputs": [
        {
          "internalType": "address[]",
          "name": "",
          "type": "address[]"
        }
      ],
      "stateMutability": "view",
      "type": "function",
      "constant": true
    },
    {
      "inputs": [
        {
          "internalType": "address",
          "name": "_undAddr",
          "type": "address"
        }
      ],
      "name": "getTopPool",
      "outputs": [
        {
          "internalType": "address",
          "name": "",
          "type": "address"
        }
      ],
      "stateMutability": "view",
      "type": "function",
      "constant": true
    }
  ],
  "bytecode": "0x60a060405260006004553480156200001657600080fd5b5060405162003a6538038062003a6583398181016040528101906200003c919062000221565b6001808190555081600660006101000a81548173ffffffffffffffffffffffffffffffffffffffff021916908373ffffffffffffffffffffffffffffffffffffffff1602179055508073ffffffffffffffffffffffffffffffffffffffff1660808173ffffffffffffffffffffffffffffffffffffffff16815250508073ffffffffffffffffffffffffffffffffffffffff1663fbfa77cf6040518163ffffffff1660e01b8152600401602060405180830381865afa15801562000104573d6000803e3d6000fd5b505050506040513d601f19601f820116820180604052508101906200012a9190620002ad565b600760006101000a81548173ffffffffffffffffffffffffffffffffffffffff021916908373ffffffffffffffffffffffffffffffffffffffff1602179055505050620002df565b600080fd5b600073ffffffffffffffffffffffffffffffffffffffff82169050919050565b6000620001a48262000177565b9050919050565b6000620001b88262000197565b9050919050565b620001ca81620001ab565b8114620001d657600080fd5b50565b600081519050620001ea81620001bf565b92915050565b620001fb8162000197565b81146200020757600080fd5b50565b6000815190506200021b81620001f0565b92915050565b600080604083850312156200023b576200023a62000172565b5b60006200024b85828601620001d9565b92505060206200025e858286016200020a565b9150509250929050565b6000620002758262000197565b9050919050565b620002878162000268565b81146200029357600080fd5b50565b600081519050620002a7816200027c565b92915050565b600060208284031215620002c657620002c562000172565b5b6000620002d68482850162000296565b91505092915050565b60805161376362000302600039600081816107880152610a2401526137636000f3fe608060405234801561001057600080fd5b50600436106101005760003560e01c8063b0bb003111610097578063d547741f11610066578063d547741f146102af578063d9038027146102cb578063da882217146102e7578063fbfa77cf1461031757610100565b8063b0bb003114610239578063caa8c38214610255578063cb4c86b714610273578063d2f7265a1461029157610100565b806336568abe116100d357806336568abe146101b157806391d14854146101cd578063a217fddf146101fd578063aa61dcd31461021b57610100565b806301ffc9a714610105578063248a9ca3146101355780632f2ff15d14610165578063345954dc14610181575b600080fd5b61011f600480360381019061011a91906124d6565b610335565b60405161012c919061251e565b60405180910390f35b61014f600480360381019061014a919061256f565b6103af565b60405161015c91906125ab565b60405180910390f35b61017f600480360381019061017a9190612624565b6103ce565b005b61019b60048036038101906101969190612664565b6103ef565b6040516101a8919061274f565b60405180910390f35b6101cb60048036038101906101c69190612624565b61043f565b005b6101e760048036038101906101e29190612624565b6104c2565b6040516101f4919061251e565b60405180910390f35b61020561052c565b60405161021291906125ab565b60405180910390f35b610223610533565b604051610230919061278a565b60405180910390f35b610253600480360381019061024e919061280f565b610539565b005b61025d6109ed565b60405161026a919061278a565b60405180910390f35b61027b6109fc565b60405161028891906128ae565b60405180910390f35b610299610a22565b6040516102a691906128d8565b60405180910390f35b6102c960048036038101906102c49190612624565b610a46565b005b6102e560048036038101906102e0919061291f565b610a67565b005b61030160048036038101906102fc9190612664565b6112fd565b60405161030e91906128d8565b60405180910390f35b61031f611366565b60405161032c9190612980565b60405180910390f35b60007f7965db0b000000000000000000000000000000000000000000000000000000007bffffffffffffffffffffffffffffffffffffffffffffffffffffffff1916827bffffffffffffffffffffffffffffffffffffffffffffffffffffffff191614806103a857506103a78261138c565b5b9050919050565b6000806000838152602001908152602001600020600101549050919050565b6103d7826103af565b6103e0816113f6565b6103ea838361140a565b505050565b6060610438600360008473ffffffffffffffffffffffffffffffffffffffff1673ffffffffffffffffffffffffffffffffffffffff1681526020019081526020016000206114ea565b9050919050565b61044761150b565b73ffffffffffffffffffffffffffffffffffffffff168173ffffffffffffffffffffffffffffffffffffffff16146104b4576040517f08c379a00000000000000000000000000000000000000000000000000000000081526004016104ab90612a1e565b60405180910390fd5b6104be8282611513565b5050565b600080600084815260200190815260200160002060000160008373ffffffffffffffffffffffffffffffffffffffff1673ffffffffffffffffffffffffffffffffffffffff16815260200190815260200160002060009054906101000a900460ff16905092915050565b6000801b81565b60045481565b60008273ffffffffffffffffffffffffffffffffffffffff16631f21f9af6040518163ffffffff1660e01b8152600401602060405180830381865afa158015610586573d6000803e3d6000fd5b505050506040513d601f19601f820116820180604052508101906105aa9190612a7c565b73ffffffffffffffffffffffffffffffffffffffff16636f307dc36040518163ffffffff1660e01b8152600401602060405180830381865afa1580156105f4573d6000803e3d6000fd5b505050506040513d601f19601f820116820180604052508101906106189190612abe565b9050600660009054906101000a900473ffffffffffffffffffffffffffffffffffffffff1673ffffffffffffffffffffffffffffffffffffffff168373ffffffffffffffffffffffffffffffffffffffff16631f21f9af6040518163ffffffff1660e01b8152600401602060405180830381865afa15801561069e573d6000803e3d6000fd5b505050506040513d601f19601f820116820180604052508101906106c29190612a7c565b73ffffffffffffffffffffffffffffffffffffffff1663cb4c86b76040518163ffffffff1660e01b8152600401602060405180830381865afa15801561070c573d6000803e3d6000fd5b505050506040513d601f19601f820116820180604052508101906107309190612abe565b73ffffffffffffffffffffffffffffffffffffffff1614610786576040517f08c379a000000000000000000000000000000000000000000000000000000000815260040161077d90612b37565b60405180910390fd5b7f000000000000000000000000000000000000000000000000000000000000000073ffffffffffffffffffffffffffffffffffffffff168373ffffffffffffffffffffffffffffffffffffffff1663d2f7265a6040518163ffffffff1660e01b8152600401602060405180830381865afa158015610808573d6000803e3d6000fd5b505050506040513d601f19601f8201168201806040525081019061082c9190612abe565b73ffffffffffffffffffffffffffffffffffffffff1614610882576040517f08c379a000000000000000000000000000000000000000000000000000000000815260040161087990612ba3565b60405180910390fd5b811561091d576108d983600360008473ffffffffffffffffffffffffffffffffffffffff1673ffffffffffffffffffffffffffffffffffffffff1681526020019081526020016000206115f490919063ffffffff16565b610918576040517f08c379a000000000000000000000000000000000000000000000000000000000815260040161090f90612c0f565b60405180910390fd5b6109ae565b61096e83600360008473ffffffffffffffffffffffffffffffffffffffff1673ffffffffffffffffffffffffffffffffffffffff16815260200190815260200160002061162490919063ffffffff16565b6109ad576040517f08c379a00000000000000000000000000000000000000000000000000000000081526004016109a490612c7b565b60405180910390fd5b5b7f43443c3f641e5eade2da3e772f3557c519de2e00a357916d5e92bf34f0a1a9a58383156040516109e0929190612c9b565b60405180910390a1505050565b6a18d0bf423c03d8de00000081565b600660009054906101000a900473ffffffffffffffffffffffffffffffffffffffff1681565b7f000000000000000000000000000000000000000000000000000000000000000081565b610a4f826103af565b610a58816113f6565b610a628383611513565b505050565b600260015403610aac576040517f08c379a0000000000000000000000000000000000000000000000000000000008152600401610aa390612d10565b60405180910390fd5b6002600181905550600082905060008173ffffffffffffffffffffffffffffffffffffffff16631f21f9af6040518163ffffffff1660e01b8152600401602060405180830381865afa158015610b06573d6000803e3d6000fd5b505050506040513d601f19601f82011682018060405250810190610b2a9190612a7c565b73ffffffffffffffffffffffffffffffffffffffff166305268cff6040518163ffffffff1660e01b8152600401602060405180830381865afa158015610b74573d6000803e3d6000fd5b505050506040513d601f19601f82011682018060405250810190610b989190612d6e565b905060008273ffffffffffffffffffffffffffffffffffffffff16631f21f9af6040518163ffffffff1660e01b8152600401602060405180830381865afa158015610be7573d6000803e3d6000fd5b505050506040513d601f19601f82011682018060405250810190610c0b9190612a7c565b73ffffffffffffffffffffffffffffffffffffffff16636f307dc36040518163ffffffff1660e01b8152600401602060405180830381865afa158015610c55573d6000803e3d6000fd5b505050506040513d601f19601f82011682018060405250810190610c799190612abe565b9050600073ffffffffffffffffffffffffffffffffffffffff168273ffffffffffffffffffffffffffffffffffffffff166315dc2e9d836040518263ffffffff1660e01b8152600401610ccc91906128d8565b602060405180830381865afa158015610ce9573d6000803e3d6000fd5b505050506040513d601f19601f82011682018060405250810190610d0d9190612dd9565b73ffffffffffffffffffffffffffffffffffffffff1603610d63576040517f08c379a0000000000000000000000000000000000000000000000000000000008152600401610d5a90612e52565b60405180910390fd5b610d903383868873ffffffffffffffffffffffffffffffffffffffff16611654909392919063ffffffff16565b6000610d9c84836116dd565b905060008573__MathLib_______________________________63b3947c179091848873ffffffffffffffffffffffffffffffffffffffff166318160ddd6040518163ffffffff1660e01b8152600401602060405180830381865afa158015610e09573d6000803e3d6000fd5b505050506040513d601f19601f82011682018060405250810190610e2d9190612e87565b6040518463ffffffff1660e01b8152600401610e4b93929190612ec3565b602060405180830381865af4158015610e68573d6000803e3d6000fd5b505050506040513d601f19601f82011682018060405250810190610e8c9190612e87565b90506000610ea76a18d0bf423c03d8de000000600454611b20565b905060008273__MathLib_______________________________63b3947c1790918873ffffffffffffffffffffffffffffffffffffffff166318160ddd6040518163ffffffff1660e01b8152600401602060405180830381865afa158015610f13573d6000803e3d6000fd5b505050506040513d601f19601f82011682018060405250810190610f379190612e87565b856040518463ffffffff1660e01b8152600401610f5693929190612ec3565b602060405180830381865af4158015610f73573d6000803e3d6000fd5b505050506040513d601f19601f82011682018060405250810190610f979190612e87565b905060008773ffffffffffffffffffffffffffffffffffffffff166370a08231886040518263ffffffff1660e01b8152600401610fd491906128d8565b602060405180830381865afa158015610ff1573d6000803e3d6000fd5b505050506040513d601f19601f820116820180604052508101906110159190612e87565b73__MathLib_______________________________63b3947c179091878b73ffffffffffffffffffffffffffffffffffffffff166318160ddd6040518163ffffffff1660e01b8152600401602060405180830381865afa15801561107d573d6000803e3d6000fd5b505050506040513d601f19601f820116820180604052508101906110a19190612e87565b6040518463ffffffff1660e01b81526004016110bf93929190612ec3565b602060405180830381865af41580156110dc573d6000803e3d6000fd5b505050506040513d601f19601f820116820180604052508101906111009190612e87565b90506111538a600560008973ffffffffffffffffffffffffffffffffffffffff1673ffffffffffffffffffffffffffffffffffffffff168152602001908152602001600020611b3a90919063ffffffff16565b156111d757806111b56004546111b08d600560008c73ffffffffffffffffffffffffffffffffffffffff1673ffffffffffffffffffffffffffffffffffffffff168152602001908152602001600020611b6a90919063ffffffff16565b611b9d565b6004546111c29190612f29565b6111cc9190612f5d565b6004819055506111ec565b806004546111e59190612f5d565b6004819055505b61123f8a82600560008a73ffffffffffffffffffffffffffffffffffffffff1673ffffffffffffffffffffffffffffffffffffffff168152602001908152602001600020611bb69092919063ffffffff16565b508673ffffffffffffffffffffffffffffffffffffffff166340c10f1933846040518363ffffffff1660e01b815260040161127b929190612f91565b600060405180830381600087803b15801561129557600080fd5b505af11580156112a9573d6000803e3d6000fd5b505050507f4877c2e401ca94d9fe3d52bf4c0904a11f6a4bcbf76b8ec5a1684f396859e0c48a338b856040516112e29493929190612fba565b60405180910390a15050505050505050600180819055505050565b6000600260008373ffffffffffffffffffffffffffffffffffffffff1673ffffffffffffffffffffffffffffffffffffffff16815260200190815260200160002060009054906101000a900473ffffffffffffffffffffffffffffffffffffffff169050919050565b600760009054906101000a900473ffffffffffffffffffffffffffffffffffffffff1681565b60007f01ffc9a7000000000000000000000000000000000000000000000000000000007bffffffffffffffffffffffffffffffffffffffffffffffffffffffff1916827bffffffffffffffffffffffffffffffffffffffffffffffffffffffff1916149050919050565b6114078161140261150b565b611beb565b50565b61141482826104c2565b6114e657600160008084815260200190815260200160002060000160008373ffffffffffffffffffffffffffffffffffffffff1673ffffffffffffffffffffffffffffffffffffffff16815260200190815260200160002060006101000a81548160ff02191690831515021790555061148b61150b565b73ffffffffffffffffffffffffffffffffffffffff168173ffffffffffffffffffffffffffffffffffffffff16837f2f8788117e7eff1d82e926ec794901d17c78024a50270940304540a733656f0d60405160405180910390a45b5050565b606060006114fa83600001611c88565b905060608190508092505050919050565b600033905090565b61151d82826104c2565b156115f057600080600084815260200190815260200160002060000160008373ffffffffffffffffffffffffffffffffffffffff1673ffffffffffffffffffffffffffffffffffffffff16815260200190815260200160002060006101000a81548160ff02191690831515021790555061159561150b565b73ffffffffffffffffffffffffffffffffffffffff168173ffffffffffffffffffffffffffffffffffffffff16837ff6391f5c32d9c69d2a47ea670b442974b53935d1edc7fd64eb21e047a839171b60405160405180910390a45b5050565b600061161c836000018373ffffffffffffffffffffffffffffffffffffffff1660001b611ce4565b905092915050565b600061164c836000018373ffffffffffffffffffffffffffffffffffffffff1660001b611df8565b905092915050565b6116d7846323b872dd60e01b85858560405160240161167593929190612fff565b604051602081830303815290604052907bffffffffffffffffffffffffffffffffffffffffffffffffffffffff19166020820180517bffffffffffffffffffffffffffffffffffffffffffffffffffffffff8381831617835250505050611e68565b50505050565b600061173083600360008573ffffffffffffffffffffffffffffffffffffffff1673ffffffffffffffffffffffffffffffffffffffff168152602001908152602001600020611f2f90919063ffffffff16565b61176f576040517f08c379a000000000000000000000000000000000000000000000000000000000815260040161176690613082565b60405180910390fd5b600760009054906101000a900473ffffffffffffffffffffffffffffffffffffffff1673ffffffffffffffffffffffffffffffffffffffff16635c273c2f84600160006040518463ffffffff1660e01b81526004016117d0939291906130c3565b602060405180830381865afa1580156117ed573d6000803e3d6000fd5b505050506040513d601f19601f820116820180604052508101906118119190612e87565b90506a18d0bf423c03d8de0000008111611860576040517f08c379a000000000000000000000000000000000000000000000000000000000815260040161185790613146565b60405180910390fd5b8273ffffffffffffffffffffffffffffffffffffffff16600260008473ffffffffffffffffffffffffffffffffffffffff1673ffffffffffffffffffffffffffffffffffffffff16815260200190815260200160002060009054906101000a900473ffffffffffffffffffffffffffffffffffffffff1673ffffffffffffffffffffffffffffffffffffffff1614611b1a5760008073ffffffffffffffffffffffffffffffffffffffff16600260008573ffffffffffffffffffffffffffffffffffffffff1673ffffffffffffffffffffffffffffffffffffffff16815260200190815260200160002060009054906101000a900473ffffffffffffffffffffffffffffffffffffffff1673ffffffffffffffffffffffffffffffffffffffff160361198d576000611a8f565b600760009054906101000a900473ffffffffffffffffffffffffffffffffffffffff1673ffffffffffffffffffffffffffffffffffffffff16635c273c2f600260008673ffffffffffffffffffffffffffffffffffffffff1673ffffffffffffffffffffffffffffffffffffffff16815260200190815260200160002060009054906101000a900473ffffffffffffffffffffffffffffffffffffffff16600160006040518463ffffffff1660e01b8152600401611a4d939291906130c3565b602060405180830381865afa158015611a6a573d6000803e3d6000fd5b505050506040513d601f19601f82011682018060405250810190611a8e9190612e87565b5b905080821115611b185783600260008573ffffffffffffffffffffffffffffffffffffffff1673ffffffffffffffffffffffffffffffffffffffff16815260200190815260200160002060006101000a81548173ffffffffffffffffffffffffffffffffffffffff021916908373ffffffffffffffffffffffffffffffffffffffff1602179055505b505b92915050565b600081831015611b305781611b32565b825b905092915050565b6000611b62836000018373ffffffffffffffffffffffffffffffffffffffff1660001b611f5f565b905092915050565b6000611b92836000018373ffffffffffffffffffffffffffffffffffffffff1660001b611f7f565b60001c905092915050565b6000818310611bac5781611bae565b825b905092915050565b6000611be2846000018473ffffffffffffffffffffffffffffffffffffffff1660001b8460001b611ffb565b90509392505050565b611bf582826104c2565b611c8457611c1a8173ffffffffffffffffffffffffffffffffffffffff166014612036565b611c288360001c6020612036565b604051602001611c3992919061326f565b6040516020818303038152906040526040517f08c379a0000000000000000000000000000000000000000000000000000000008152600401611c7b91906132f3565b60405180910390fd5b5050565b606081600001805480602002602001604051908101604052809291908181526020018280548015611cd857602002820191906000526020600020905b815481526020019060010190808311611cc4575b50505050509050919050565b60008083600101600084815260200190815260200160002054905060008114611dec576000600182611d169190612f29565b9050600060018660000180549050611d2e9190612f29565b9050818114611d9d576000866000018281548110611d4f57611d4e613315565b5b9060005260206000200154905080876000018481548110611d7357611d72613315565b5b90600052602060002001819055508387600101600083815260200190815260200160002081905550505b85600001805480611db157611db0613344565b5b600190038181906000526020600020016000905590558560010160008681526020019081526020016000206000905560019350505050611df2565b60009150505b92915050565b6000611e048383612272565b611e5d578260000182908060018154018082558091505060019003906000526020600020016000909190919091505582600001805490508360010160008481526020019081526020016000208190555060019050611e62565b600090505b92915050565b6000611eca826040518060400160405280602081526020017f5361666545524332303a206c6f772d6c6576656c2063616c6c206661696c65648152508573ffffffffffffffffffffffffffffffffffffffff166122959092919063ffffffff16565b9050600081511115611f2a5780806020019051810190611eea9190613388565b611f29576040517f08c379a0000000000000000000000000000000000000000000000000000000008152600401611f2090613427565b60405180910390fd5b5b505050565b6000611f57836000018373ffffffffffffffffffffffffffffffffffffffff1660001b612272565b905092915050565b6000611f7782846000016122ad90919063ffffffff16565b905092915050565b6000808360020160008481526020019081526020016000205490506000801b81141580611fb25750611fb18484611f5f565b5b611ff1576040517f08c379a0000000000000000000000000000000000000000000000000000000008152600401611fe890613493565b60405180910390fd5b8091505092915050565b6000818460020160008581526020019081526020016000208190555061202d83856000016122c490919063ffffffff16565b90509392505050565b60606000600283600261204991906134b3565b6120539190612f5d565b67ffffffffffffffff81111561206c5761206b61350d565b5b6040519080825280601f01601f19166020018201604052801561209e5781602001600182028036833780820191505090505b5090507f3000000000000000000000000000000000000000000000000000000000000000816000815181106120d6576120d5613315565b5b60200101907effffffffffffffffffffffffffffffffffffffffffffffffffffffffffffff1916908160001a9053507f78000000000000000000000000000000000000000000000000000000000000008160018151811061213a57612139613315565b5b60200101907effffffffffffffffffffffffffffffffffffffffffffffffffffffffffffff1916908160001a9053506000600184600261217a91906134b3565b6121849190612f5d565b90505b6001811115612224577f3031323334353637383961626364656600000000000000000000000000000000600f8616601081106121c6576121c5613315565b5b1a60f81b8282815181106121dd576121dc613315565b5b60200101907effffffffffffffffffffffffffffffffffffffffffffffffffffffffffffff1916908160001a905350600485901c94508061221d9061353c565b9050612187565b5060008414612268576040517f08c379a000000000000000000000000000000000000000000000000000000000815260040161225f906135b1565b60405180910390fd5b8091505092915050565b600080836001016000848152602001908152602001600020541415905092915050565b60606122a484846000856122db565b90509392505050565b60006122bc8360000183612272565b905092915050565b60006122d38360000183611df8565b905092915050565b606082471015612320576040517f08c379a000000000000000000000000000000000000000000000000000000000815260040161231790613643565b60405180910390fd5b612329856123ef565b612368576040517f08c379a000000000000000000000000000000000000000000000000000000000815260040161235f906136af565b60405180910390fd5b6000808673ffffffffffffffffffffffffffffffffffffffff1685876040516123919190613716565b60006040518083038185875af1925050503d80600081146123ce576040519150601f19603f3d011682016040523d82523d6000602084013e6123d3565b606091505b50915091506123e3828286612412565b92505050949350505050565b6000808273ffffffffffffffffffffffffffffffffffffffff163b119050919050565b6060831561242257829050612472565b6000835111156124355782518084602001fd5b816040517f08c379a000000000000000000000000000000000000000000000000000000000815260040161246991906132f3565b60405180910390fd5b9392505050565b600080fd5b60007fffffffff0000000000000000000000000000000000000000000000000000000082169050919050565b6124b38161247e565b81146124be57600080fd5b50565b6000813590506124d0816124aa565b92915050565b6000602082840312156124ec576124eb612479565b5b60006124fa848285016124c1565b91505092915050565b60008115159050919050565b61251881612503565b82525050565b6000602082019050612533600083018461250f565b92915050565b6000819050919050565b61254c81612539565b811461255757600080fd5b50565b60008135905061256981612543565b92915050565b60006020828403121561258557612584612479565b5b60006125938482850161255a565b91505092915050565b6125a581612539565b82525050565b60006020820190506125c0600083018461259c565b92915050565b600073ffffffffffffffffffffffffffffffffffffffff82169050919050565b60006125f1826125c6565b9050919050565b612601816125e6565b811461260c57600080fd5b50565b60008135905061261e816125f8565b92915050565b6000806040838503121561263b5761263a612479565b5b60006126498582860161255a565b925050602061265a8582860161260f565b9150509250929050565b60006020828403121561267a57612679612479565b5b60006126888482850161260f565b91505092915050565b600081519050919050565b600082825260208201905092915050565b6000819050602082019050919050565b6126c6816125e6565b82525050565b60006126d883836126bd565b60208301905092915050565b6000602082019050919050565b60006126fc82612691565b612706818561269c565b9350612711836126ad565b8060005b8381101561274257815161272988826126cc565b9750612734836126e4565b925050600181019050612715565b5085935050505092915050565b6000602082019050818103600083015261276981846126f1565b905092915050565b6000819050919050565b61278481612771565b82525050565b600060208201905061279f600083018461277b565b92915050565b60006127b0826125e6565b9050919050565b6127c0816127a5565b81146127cb57600080fd5b50565b6000813590506127dd816127b7565b92915050565b6127ec81612503565b81146127f757600080fd5b50565b600081359050612809816127e3565b92915050565b6000806040838503121561282657612825612479565b5b6000612834858286016127ce565b9250506020612845858286016127fa565b9150509250929050565b6000819050919050565b600061287461286f61286a846125c6565b61284f565b6125c6565b9050919050565b600061288682612859565b9050919050565b60006128988261287b565b9050919050565b6128a88161288d565b82525050565b60006020820190506128c3600083018461289f565b92915050565b6128d2816125e6565b82525050565b60006020820190506128ed60008301846128c9565b92915050565b6128fc81612771565b811461290757600080fd5b50565b600081359050612919816128f3565b92915050565b6000806040838503121561293657612935612479565b5b60006129448582860161260f565b92505060206129558582860161290a565b9150509250929050565b600061296a8261287b565b9050919050565b61297a8161295f565b82525050565b60006020820190506129956000830184612971565b92915050565b600082825260208201905092915050565b7f416363657373436f6e74726f6c3a2063616e206f6e6c792072656e6f756e636560008201527f20726f6c657320666f722073656c660000000000000000000000000000000000602082015250565b6000612a08602f8361299b565b9150612a13826129ac565b604082019050919050565b60006020820190508181036000830152612a37816129fb565b9050919050565b6000612a49826125e6565b9050919050565b612a5981612a3e565b8114612a6457600080fd5b50565b600081519050612a7681612a50565b92915050565b600060208284031215612a9257612a91612479565b5b6000612aa084828501612a67565b91505092915050565b600081519050612ab8816125f8565b92915050565b600060208284031215612ad457612ad3612479565b5b6000612ae284828501612aa9565b91505092915050565b7f7866756e64696e67730000000000000000000000000000000000000000000000600082015250565b6000612b2160098361299b565b9150612b2c82612aeb565b602082019050919050565b60006020820190508181036000830152612b5081612b14565b9050919050565b7f2d70457800000000000000000000000000000000000000000000000000000000600082015250565b6000612b8d60048361299b565b9150612b9882612b57565b602082019050919050565b60006020820190508181036000830152612bbc81612b80565b9050919050565b7f2d726d0000000000000000000000000000000000000000000000000000000000600082015250565b6000612bf960038361299b565b9150612c0482612bc3565b602082019050919050565b60006020820190508181036000830152612c2881612bec565b9050919050565b7f2d61640000000000000000000000000000000000000000000000000000000000600082015250565b6000612c6560038361299b565b9150612c7082612c2f565b602082019050919050565b60006020820190508181036000830152612c9481612c58565b9050919050565b6000604082019050612cb060008301856128c9565b612cbd602083018461250f565b9392505050565b7f5265656e7472616e637947756172643a207265656e7472616e742063616c6c00600082015250565b6000612cfa601f8361299b565b9150612d0582612cc4565b602082019050919050565b60006020820190508181036000830152612d2981612ced565b9050919050565b6000612d3b826125e6565b9050919050565b612d4b81612d30565b8114612d5657600080fd5b50565b600081519050612d6881612d42565b92915050565b600060208284031215612d8457612d83612479565b5b6000612d9284828501612d59565b91505092915050565b6000612da6826125e6565b9050919050565b612db681612d9b565b8114612dc157600080fd5b50565b600081519050612dd381612dad565b92915050565b600060208284031215612def57612dee612479565b5b6000612dfd84828501612dc4565b91505092915050565b7f30766f6c636861696e0000000000000000000000000000000000000000000000600082015250565b6000612e3c60098361299b565b9150612e4782612e06565b602082019050919050565b60006020820190508181036000830152612e6b81612e2f565b9050919050565b600081519050612e81816128f3565b92915050565b600060208284031215612e9d57612e9c612479565b5b6000612eab84828501612e72565b91505092915050565b612ebd81612771565b82525050565b6000606082019050612ed86000830186612eb4565b612ee56020830185612eb4565b612ef26040830184612eb4565b949350505050565b7f4e487b7100000000000000000000000000000000000000000000000000000000600052601160045260246000fd5b6000612f3482612771565b9150612f3f83612771565b9250828203905081811115612f5757612f56612efa565b5b92915050565b6000612f6882612771565b9150612f7383612771565b9250828201905080821115612f8b57612f8a612efa565b5b92915050565b6000604082019050612fa660008301856128c9565b612fb3602083018461277b565b9392505050565b6000608082019050612fcf60008301876128c9565b612fdc60208301866128c9565b612fe9604083018561277b565b612ff6606083018461277b565b95945050505050565b600060608201905061301460008301866128c9565b61302160208301856128c9565b61302e604083018461277b565b949350505050565b7f2d50000000000000000000000000000000000000000000000000000000000000600082015250565b600061306c60028361299b565b915061307782613036565b602082019050919050565b6000602082019050818103600083015261309b8161305f565b9050919050565b60006130ad8261287b565b9050919050565b6130bd816130a2565b82525050565b60006060820190506130d860008301866130b4565b6130e5602083018561250f565b6130f2604083018461250f565b949350505050565b7f6d63500000000000000000000000000000000000000000000000000000000000600082015250565b600061313060038361299b565b915061313b826130fa565b602082019050919050565b6000602082019050818103600083015261315f81613123565b9050919050565b600081905092915050565b7f416363657373436f6e74726f6c3a206163636f756e7420000000000000000000600082015250565b60006131a7601783613166565b91506131b282613171565b601782019050919050565b600081519050919050565b60005b838110156131e65780820151818401526020810190506131cb565b60008484015250505050565b60006131fd826131bd565b6132078185613166565b93506132178185602086016131c8565b80840191505092915050565b7f206973206d697373696e6720726f6c6520000000000000000000000000000000600082015250565b6000613259601183613166565b915061326482613223565b601182019050919050565b600061327a8261319a565b915061328682856131f2565b91506132918261324c565b915061329d82846131f2565b91508190509392505050565b6000601f19601f8301169050919050565b60006132c5826131bd565b6132cf818561299b565b93506132df8185602086016131c8565b6132e8816132a9565b840191505092915050565b6000602082019050818103600083015261330d81846132ba565b905092915050565b7f4e487b7100000000000000000000000000000000000000000000000000000000600052603260045260246000fd5b7f4e487b7100000000000000000000000000000000000000000000000000000000600052603160045260246000fd5b600081519050613382816127e3565b92915050565b60006020828403121561339e5761339d612479565b5b60006133ac84828501613373565b91505092915050565b7f5361666545524332303a204552433230206f7065726174696f6e20646964206e60008201527f6f74207375636365656400000000000000000000000000000000000000000000602082015250565b6000613411602a8361299b565b915061341c826133b5565b604082019050919050565b6000602082019050818103600083015261344081613404565b9050919050565b7f456e756d657261626c654d61703a206e6f6e6578697374656e74206b65790000600082015250565b600061347d601e8361299b565b915061348882613447565b602082019050919050565b600060208201905081810360008301526134ac81613470565b9050919050565b60006134be82612771565b91506134c983612771565b9250817fffffffffffffffffffffffffffffffffffffffffffffffffffffffffffffffff048311821515161561350257613501612efa565b5b828202905092915050565b7f4e487b7100000000000000000000000000000000000000000000000000000000600052604160045260246000fd5b600061354782612771565b91506000820361355a57613559612efa565b5b600182039050919050565b7f537472696e67733a20686578206c656e67746820696e73756666696369656e74600082015250565b600061359b60208361299b565b91506135a682613565565b602082019050919050565b600060208201905081810360008301526135ca8161358e565b9050919050565b7f416464726573733a20696e73756666696369656e742062616c616e636520666f60008201527f722063616c6c0000000000000000000000000000000000000000000000000000602082015250565b600061362d60268361299b565b9150613638826135d1565b604082019050919050565b6000602082019050818103600083015261365c81613620565b9050919050565b7f416464726573733a2063616c6c20746f206e6f6e2d636f6e7472616374000000600082015250565b6000613699601d8361299b565b91506136a482613663565b602082019050919050565b600060208201905081810360008301526136c88161368c565b9050919050565b600081519050919050565b600081905092915050565b60006136f0826136cf565b6136fa81856136da565b935061370a8185602086016131c8565b80840191505092915050565b600061372282846136e5565b91508190509291505056fea26469706673582212205ea9d6b00f102d511ad7b6500a65d7ec056a2716d48aa98c0efb724e80c686d164736f6c63430008100033",
  "immutableReferences": {
    "12739": [
      {
        "length": 32,
        "start": 1928
      },
      {
        "length": 32,
        "start": 2596
      }
    ]
  },
  "source": "// SPDX-License-Identifier: MIT\npragma solidity 0.8.16;\n\nimport \"@openzeppelin/contracts/access/Ownable.sol\";\nimport \"@openzeppelin/contracts/access/AccessControl.sol\";\nimport \"@openzeppelin/contracts/token/ERC20/ERC20.sol\";\nimport \"@openzeppelin/contracts/utils/math/Math.sol\";\nimport \"@openzeppelin/contracts/utils/structs/EnumerableSet.sol\";\nimport \"@openzeppelin/contracts/utils/structs/EnumerableMap.sol\";\nimport \"@openzeppelin/contracts/security/ReentrancyGuard.sol\";\nimport \"@openzeppelin/contracts/token/ERC20/utils/SafeERC20.sol\";\nimport \"../pools/Pool.sol\";\nimport \"../libraries/MathLib.sol\";\nimport \"../interfaces/EMoret.sol\";\nimport \"../OptionVault.sol\";\nimport \"../VolatilityChain.sol\";\nimport \"../Exchange.sol\";\nimport \"./Moret.sol\";\n\n/// @custom:security-contact eight@moret.io\ncontract MoretBroker is EMoret, AccessControl, ReentrancyGuard {\n    using MathLib for uint256;\n    using EnumerableSet for EnumerableSet.AddressSet;\n    using EnumerableMap for EnumerableMap.AddressToUintMap;\n    using SafeERC20 for ERC20;\n\n    // list of pools\n    mapping(address=>address) internal topPoolMap; // only the top pool address is allowed to swap their pool tokens with Moret. underlying token addres => pool address\n    mapping(address=>EnumerableSet.AddressSet) internal allPoolMap; // all created pools\n    \n    // capital records\n    uint256 public constant minCapital = 3e25; // 30m min notional (in 18 decimals) which is fully diluted capital for moret token\n    uint256 public poolCapital = 0; // total capitals\n    mapping(address=>EnumerableMap.AddressToUintMap) internal poolCapitalMap;\n    \n    // address\n    ERC20 public funding;\n    OptionVault public vault;\n    address public immutable exchange;\n\n    constructor(ERC20 _funding, address _exchange){\n        funding = _funding;\n        exchange = _exchange;\n        vault = Exchange(_exchange).vault();\n        }\n\n    // functions to allow pool to swap their tokens for Moret\n    // arguments: pool contract address, amount of pool tokens to be exchanged\n    // a minimum capital of 1m USDC is assumed for any calculations.\n    function exchangePoolForMoret(address _poolAddr, uint256 _payInAmount) external nonReentrant{\n        Pool _pool = Pool(_poolAddr);\n        Moret _gov = _pool.marketMaker().govToken();\n        address _undAddr = _pool.marketMaker().underlying();\n        require(address(_gov.getVolatilityChain(_undAddr)) != address(0), \"0volchain\"); // use this function to check if underlying exists.\n\n        ERC20(_poolAddr).safeTransferFrom(msg.sender, address(_gov), _payInAmount);\n\n        uint256 _poolNetCapital = getAndUpdateTopPool(_pool, _undAddr);\n        uint256 _payInCapital = _payInAmount.muldiv(_poolNetCapital, _pool.totalSupply());\n        uint256 _existingCapital = Math.max(minCapital, poolCapital);\n        uint256 _mintAmount = _payInCapital.muldiv(_gov.totalSupply(), _existingCapital);\n\n        uint256 _updatedCapital = _pool.balanceOf(address(_gov)).muldiv(_poolNetCapital, _pool.totalSupply());\n\n        // change stats of MoretBroker contract -> hence suspicious to reentry -> taken care of by nonReentrant and the step that pool tokens are first transferred to gov address\n        if(poolCapitalMap[_undAddr].contains(_poolAddr)){\n            poolCapital = poolCapital - Math.min(poolCapital, poolCapitalMap[_undAddr].get(_poolAddr)) + _updatedCapital;\n        }\n        else{\n            poolCapital = poolCapital + _updatedCapital;\n        }\n        poolCapitalMap[_undAddr].set(_poolAddr, _updatedCapital);\n        \n        _gov.mint(msg.sender, _mintAmount); // This ensures only the right Moret contract mints.\n        emit ExchangePoolTokens(_poolAddr, msg.sender, _payInAmount, _mintAmount);}\n\n    function getAndUpdateTopPool(Pool _pool, address _undAddr) internal returns(uint256 _poolNetCapital){\n        require(allPoolMap[_undAddr].contains(address(_pool)),'-P'); // check if pool was registered already\n        _poolNetCapital = vault.calcCapital(_pool, true, false);\n        require(_poolNetCapital > minCapital, \"mcP\"); // pool capital needs to be above threshold\n\n        if (topPoolMap[_undAddr] != address(_pool)){\n            uint256 _topCapital = (topPoolMap[_undAddr] != address(0))? vault.calcCapital(Pool(topPoolMap[_undAddr]), true, false): 0;\n            if (_poolNetCapital > _topCapital) {\n                topPoolMap[_undAddr] = address(_pool);}}}\n\n    // update list of pools\n    function addPool(Pool _pool, bool _remove) external{\n        address _poolUnd = _pool.marketMaker().underlying();\n        require(_pool.marketMaker().funding() == address(funding), 'xfundings');\n        require(_pool.exchange() == exchange, '-pEx');\n        if(_remove){\n            require(allPoolMap[_poolUnd].remove(address(_pool)), '-rm');    \n        }\n        else{\n            require(allPoolMap[_poolUnd].add(address(_pool)) , '-ad');}\n        emit AddPool(address(_pool), !_remove);}\n    function getAllPools(address _undAddr) external view returns(address[] memory){\n        return allPoolMap[_undAddr].values();}\n    function getTopPool(address _undAddr) external view returns(address){\n        return topPoolMap[_undAddr];}\n    \n}",
  "sourcePath": "/Users/mac/Documents/GitHub/moret/contracts/governance/MoretBroker.sol",
  "compiler": {
    "name": "solc",
    "version": "0.8.16+commit.07a7930e.Emscripten.clang"
  },
  "schemaVersion": "3.4.3",
  "updatedAt": "2022-11-11T00:45:10.175Z",
  "networkType": "ethereum",
  "devdoc": {
    "custom:security-contact": "eight@moret.io",
    "kind": "dev",
    "methods": {
      "getRoleAdmin(bytes32)": {
        "details": "Returns the admin role that controls `role`. See {grantRole} and {revokeRole}. To change a role's admin, use {_setRoleAdmin}."
      },
      "grantRole(bytes32,address)": {
        "details": "Grants `role` to `account`. If `account` had not been already granted `role`, emits a {RoleGranted} event. Requirements: - the caller must have ``role``'s admin role."
      },
      "hasRole(bytes32,address)": {
        "details": "Returns `true` if `account` has been granted `role`."
      },
      "renounceRole(bytes32,address)": {
        "details": "Revokes `role` from the calling account. Roles are often managed via {grantRole} and {revokeRole}: this function's purpose is to provide a mechanism for accounts to lose their privileges if they are compromised (such as when a trusted device is misplaced). If the calling account had been revoked `role`, emits a {RoleRevoked} event. Requirements: - the caller must be `account`."
      },
      "revokeRole(bytes32,address)": {
        "details": "Revokes `role` from `account`. If `account` had been granted `role`, emits a {RoleRevoked} event. Requirements: - the caller must have ``role``'s admin role."
      },
      "supportsInterface(bytes4)": {
        "details": "See {IERC165-supportsInterface}."
      }
    },
    "version": 1
  },
  "userdoc": {
    "kind": "user",
    "methods": {},
    "version": 1
  }
}