{
  "contractName": "OptionVault",
  "abi": [
    {
      "inputs": [],
      "stateMutability": "nonpayable",
      "type": "constructor"
    },
    {
      "anonymous": false,
      "inputs": [
        {
          "indexed": true,
          "internalType": "address",
          "name": "_bot",
          "type": "address"
        },
        {
          "indexed": true,
          "internalType": "address",
          "name": "_exchange",
          "type": "address"
        },
        {
          "indexed": false,
          "internalType": "address",
          "name": "_holder",
          "type": "address"
        },
        {
          "indexed": false,
          "internalType": "uint256",
          "name": "_id",
          "type": "uint256"
        },
        {
          "indexed": false,
          "internalType": "uint256",
          "name": "_payoff",
          "type": "uint256"
        }
      ],
      "name": "Expire",
      "type": "event"
    },
    {
      "anonymous": false,
      "inputs": [
        {
          "indexed": true,
          "internalType": "address",
          "name": "_hedger",
          "type": "address"
        },
        {
          "indexed": true,
          "internalType": "address",
          "name": "_market",
          "type": "address"
        },
        {
          "indexed": false,
          "internalType": "bool",
          "name": "success",
          "type": "bool"
        },
        {
          "indexed": false,
          "internalType": "bytes",
          "name": "data",
          "type": "bytes"
        }
      ],
      "name": "HedgeResponse",
      "type": "event"
    },
    {
      "anonymous": false,
      "inputs": [
        {
          "indexed": true,
          "internalType": "address",
          "name": "_hedger",
          "type": "address"
        },
        {
          "indexed": true,
          "internalType": "address",
          "name": "_market",
          "type": "address"
        },
        {
          "indexed": false,
          "internalType": "uint256[]",
          "name": "amounts",
          "type": "uint256[]"
        }
      ],
      "name": "HedgeSwapResponse",
      "type": "event"
    },
    {
      "anonymous": false,
      "inputs": [
        {
          "indexed": false,
          "internalType": "address",
          "name": "_newBot",
          "type": "address"
        }
      ],
      "name": "ResetBotAddress",
      "type": "event"
    },
    {
      "anonymous": false,
      "inputs": [
        {
          "indexed": true,
          "internalType": "uint256",
          "name": "_parameterId",
          "type": "uint256"
        },
        {
          "indexed": false,
          "internalType": "uint256",
          "name": "_parameter",
          "type": "uint256"
        }
      ],
      "name": "ResetParameter",
      "type": "event"
    },
    {
      "anonymous": false,
      "inputs": [
        {
          "indexed": true,
          "internalType": "address",
          "name": "_exchange",
          "type": "address"
        },
        {
          "indexed": false,
          "internalType": "bool",
          "name": "_tradingAllowed",
          "type": "bool"
        }
      ],
      "name": "ResetTradingStatus",
      "type": "event"
    },
    {
      "anonymous": false,
      "inputs": [
        {
          "indexed": true,
          "internalType": "bytes32",
          "name": "role",
          "type": "bytes32"
        },
        {
          "indexed": true,
          "internalType": "bytes32",
          "name": "previousAdminRole",
          "type": "bytes32"
        },
        {
          "indexed": true,
          "internalType": "bytes32",
          "name": "newAdminRole",
          "type": "bytes32"
        }
      ],
      "name": "RoleAdminChanged",
      "type": "event"
    },
    {
      "anonymous": false,
      "inputs": [
        {
          "indexed": true,
          "internalType": "bytes32",
          "name": "role",
          "type": "bytes32"
        },
        {
          "indexed": true,
          "internalType": "address",
          "name": "account",
          "type": "address"
        },
        {
          "indexed": true,
          "internalType": "address",
          "name": "sender",
          "type": "address"
        }
      ],
      "name": "RoleGranted",
      "type": "event"
    },
    {
      "anonymous": false,
      "inputs": [
        {
          "indexed": true,
          "internalType": "bytes32",
          "name": "role",
          "type": "bytes32"
        },
        {
          "indexed": true,
          "internalType": "address",
          "name": "account",
          "type": "address"
        },
        {
          "indexed": true,
          "internalType": "address",
          "name": "sender",
          "type": "address"
        }
      ],
      "name": "RoleRevoked",
      "type": "event"
    },
    {
      "anonymous": false,
      "inputs": [
        {
          "indexed": true,
          "internalType": "address",
          "name": "_purchaser",
          "type": "address"
        },
        {
          "indexed": true,
          "internalType": "address",
          "name": "_exchange",
          "type": "address"
        },
        {
          "indexed": false,
          "internalType": "uint256",
          "name": "_cost",
          "type": "uint256"
        },
        {
          "indexed": false,
          "internalType": "uint256",
          "name": "_volAmount",
          "type": "uint256"
        },
        {
          "indexed": false,
          "internalType": "bool",
          "name": "_isPurchase",
          "type": "bool"
        }
      ],
      "name": "TradeVolatility",
      "type": "event"
    },
    {
      "inputs": [],
      "name": "DEFAULT_ADMIN_ROLE",
      "outputs": [
        {
          "internalType": "bytes32",
          "name": "",
          "type": "bytes32"
        }
      ],
      "stateMutability": "view",
      "type": "function",
      "constant": true
    },
    {
      "inputs": [],
      "name": "EXCHANGE",
      "outputs": [
        {
          "internalType": "bytes32",
          "name": "",
          "type": "bytes32"
        }
      ],
      "stateMutability": "view",
      "type": "function",
      "constant": true
    },
    {
      "inputs": [
        {
          "internalType": "bytes32",
          "name": "role",
          "type": "bytes32"
        }
      ],
      "name": "getRoleAdmin",
      "outputs": [
        {
          "internalType": "bytes32",
          "name": "",
          "type": "bytes32"
        }
      ],
      "stateMutability": "view",
      "type": "function",
      "constant": true
    },
    {
      "inputs": [
        {
          "internalType": "bytes32",
          "name": "role",
          "type": "bytes32"
        },
        {
          "internalType": "address",
          "name": "account",
          "type": "address"
        }
      ],
      "name": "grantRole",
      "outputs": [],
      "stateMutability": "nonpayable",
      "type": "function"
    },
    {
      "inputs": [
        {
          "internalType": "bytes32",
          "name": "role",
          "type": "bytes32"
        },
        {
          "internalType": "address",
          "name": "account",
          "type": "address"
        }
      ],
      "name": "hasRole",
      "outputs": [
        {
          "internalType": "bool",
          "name": "",
          "type": "bool"
        }
      ],
      "stateMutability": "view",
      "type": "function",
      "constant": true
    },
    {
      "inputs": [
        {
          "internalType": "address",
          "name": "",
          "type": "address"
        }
      ],
      "name": "mExposureDown",
      "outputs": [
        {
          "internalType": "int256",
          "name": "",
          "type": "int256"
        }
      ],
      "stateMutability": "view",
      "type": "function",
      "constant": true
    },
    {
      "inputs": [
        {
          "internalType": "address",
          "name": "",
          "type": "address"
        }
      ],
      "name": "mExposureUp",
      "outputs": [
        {
          "internalType": "int256",
          "name": "",
          "type": "int256"
        }
      ],
      "stateMutability": "view",
      "type": "function",
      "constant": true
    },
    {
      "inputs": [
        {
          "internalType": "address",
          "name": "",
          "type": "address"
        }
      ],
      "name": "mFundCollateral",
      "outputs": [
        {
          "internalType": "uint256",
          "name": "",
          "type": "uint256"
        }
      ],
      "stateMutability": "view",
      "type": "function",
      "constant": true
    },
    {
      "inputs": [
        {
          "internalType": "address",
          "name": "",
          "type": "address"
        }
      ],
      "name": "mUnderCollateral",
      "outputs": [
        {
          "internalType": "uint256",
          "name": "",
          "type": "uint256"
        }
      ],
      "stateMutability": "view",
      "type": "function",
      "constant": true
    },
    {
      "inputs": [
        {
          "internalType": "bytes32",
          "name": "role",
          "type": "bytes32"
        },
        {
          "internalType": "address",
          "name": "account",
          "type": "address"
        }
      ],
      "name": "renounceRole",
      "outputs": [],
      "stateMutability": "nonpayable",
      "type": "function"
    },
    {
      "inputs": [
        {
          "internalType": "bytes32",
          "name": "role",
          "type": "bytes32"
        },
        {
          "internalType": "address",
          "name": "account",
          "type": "address"
        }
      ],
      "name": "revokeRole",
      "outputs": [],
      "stateMutability": "nonpayable",
      "type": "function"
    },
    {
      "inputs": [
        {
          "internalType": "bytes4",
          "name": "interfaceId",
          "type": "bytes4"
        }
      ],
      "name": "supportsInterface",
      "outputs": [
        {
          "internalType": "bool",
          "name": "",
          "type": "bool"
        }
      ],
      "stateMutability": "view",
      "type": "function",
      "constant": true
    },
    {
      "inputs": [
        {
          "components": [
            {
              "internalType": "enum OptionLib.PayoffType",
              "name": "poType",
              "type": "uint8"
            },
            {
              "internalType": "enum OptionLib.OptionSide",
              "name": "side",
              "type": "uint8"
            },
            {
              "internalType": "enum OptionLib.OptionStatus",
              "name": "status",
              "type": "uint8"
            },
            {
              "internalType": "address",
              "name": "holder",
              "type": "address"
            },
            {
              "internalType": "uint256",
              "name": "id",
              "type": "uint256"
            },
            {
              "internalType": "uint256",
              "name": "createTime",
              "type": "uint256"
            },
            {
              "internalType": "uint256",
              "name": "effectiveTime",
              "type": "uint256"
            },
            {
              "internalType": "uint256",
              "name": "tenor",
              "type": "uint256"
            },
            {
              "internalType": "uint256",
              "name": "maturity",
              "type": "uint256"
            },
            {
              "internalType": "uint256",
              "name": "exerciseTime",
              "type": "uint256"
            },
            {
              "internalType": "uint256",
              "name": "amount",
              "type": "uint256"
            },
            {
              "internalType": "uint256",
              "name": "spot",
              "type": "uint256"
            },
            {
              "internalType": "uint256",
              "name": "strike",
              "type": "uint256"
            },
            {
              "internalType": "uint256",
              "name": "spread",
              "type": "uint256"
            },
            {
              "internalType": "uint256",
              "name": "volatility",
              "type": "uint256"
            },
            {
              "internalType": "uint256",
              "name": "premium",
              "type": "uint256"
            },
            {
              "internalType": "uint256",
              "name": "cost",
              "type": "uint256"
            },
            {
              "internalType": "address",
              "name": "pool",
              "type": "address"
            },
            {
              "internalType": "int256",
              "name": "exposure",
              "type": "int256"
            }
          ],
          "internalType": "struct OptionLib.Option",
          "name": "_option",
          "type": "tuple"
        },
        {
          "internalType": "uint256",
          "name": "_premium",
          "type": "uint256"
        },
        {
          "internalType": "uint256",
          "name": "_collateral",
          "type": "uint256"
        },
        {
          "internalType": "uint256",
          "name": "_price",
          "type": "uint256"
        },
        {
          "internalType": "uint256",
          "name": "_vol",
          "type": "uint256"
        },
        {
          "internalType": "int256",
          "name": "_exposure",
          "type": "int256"
        }
      ],
      "name": "addOption",
      "outputs": [
        {
          "internalType": "uint256",
          "name": "_id",
          "type": "uint256"
        }
      ],
      "stateMutability": "nonpayable",
      "type": "function"
    },
    {
      "inputs": [
        {
          "internalType": "uint256",
          "name": "_id",
          "type": "uint256"
        },
        {
          "internalType": "address",
          "name": "_holder",
          "type": "address"
        }
      ],
      "name": "stampActiveOption",
      "outputs": [],
      "stateMutability": "nonpayable",
      "type": "function"
    },
    {
      "inputs": [
        {
          "internalType": "uint256",
          "name": "_id",
          "type": "uint256"
        }
      ],
      "name": "stampExpiredOption",
      "outputs": [],
      "stateMutability": "nonpayable",
      "type": "function"
    },
    {
      "inputs": [
        {
          "internalType": "address",
          "name": "_pool",
          "type": "address"
        },
        {
          "internalType": "address",
          "name": "_address",
          "type": "address"
        }
      ],
      "name": "getHolderOptions",
      "outputs": [
        {
          "internalType": "uint256[]",
          "name": "",
          "type": "uint256[]"
        }
      ],
      "stateMutability": "view",
      "type": "function",
      "constant": true
    },
    {
      "inputs": [
        {
          "internalType": "uint256",
          "name": "_id",
          "type": "uint256"
        }
      ],
      "name": "getOption",
      "outputs": [
        {
          "components": [
            {
              "internalType": "enum OptionLib.PayoffType",
              "name": "poType",
              "type": "uint8"
            },
            {
              "internalType": "enum OptionLib.OptionSide",
              "name": "side",
              "type": "uint8"
            },
            {
              "internalType": "enum OptionLib.OptionStatus",
              "name": "status",
              "type": "uint8"
            },
            {
              "internalType": "address",
              "name": "holder",
              "type": "address"
            },
            {
              "internalType": "uint256",
              "name": "id",
              "type": "uint256"
            },
            {
              "internalType": "uint256",
              "name": "createTime",
              "type": "uint256"
            },
            {
              "internalType": "uint256",
              "name": "effectiveTime",
              "type": "uint256"
            },
            {
              "internalType": "uint256",
              "name": "tenor",
              "type": "uint256"
            },
            {
              "internalType": "uint256",
              "name": "maturity",
              "type": "uint256"
            },
            {
              "internalType": "uint256",
              "name": "exerciseTime",
              "type": "uint256"
            },
            {
              "internalType": "uint256",
              "name": "amount",
              "type": "uint256"
            },
            {
              "internalType": "uint256",
              "name": "spot",
              "type": "uint256"
            },
            {
              "internalType": "uint256",
              "name": "strike",
              "type": "uint256"
            },
            {
              "internalType": "uint256",
              "name": "spread",
              "type": "uint256"
            },
            {
              "internalType": "uint256",
              "name": "volatility",
              "type": "uint256"
            },
            {
              "internalType": "uint256",
              "name": "premium",
              "type": "uint256"
            },
            {
              "internalType": "uint256",
              "name": "cost",
              "type": "uint256"
            },
            {
              "internalType": "address",
              "name": "pool",
              "type": "address"
            },
            {
              "internalType": "int256",
              "name": "exposure",
              "type": "int256"
            }
          ],
          "internalType": "struct OptionLib.Option",
          "name": "",
          "type": "tuple"
        }
      ],
      "stateMutability": "view",
      "type": "function",
      "constant": true
    },
    {
      "inputs": [
        {
          "internalType": "address",
          "name": "_poolAddress",
          "type": "address"
        }
      ],
      "name": "getActiveOptionCount",
      "outputs": [
        {
          "internalType": "uint256",
          "name": "",
          "type": "uint256"
        }
      ],
      "stateMutability": "view",
      "type": "function",
      "constant": true
    },
    {
      "inputs": [
        {
          "internalType": "address",
          "name": "_poolAddress",
          "type": "address"
        }
      ],
      "name": "getActiveOptions",
      "outputs": [
        {
          "internalType": "uint256[]",
          "name": "",
          "type": "uint256[]"
        }
      ],
      "stateMutability": "view",
      "type": "function",
      "constant": true
    },
    {
      "inputs": [
        {
          "internalType": "uint256",
          "name": "_id",
          "type": "uint256"
        }
      ],
      "name": "getOptionInfo",
      "outputs": [
        {
          "internalType": "enum OptionLib.OptionStatus",
          "name": "",
          "type": "uint8"
        },
        {
          "internalType": "enum OptionLib.OptionSide",
          "name": "",
          "type": "uint8"
        },
        {
          "internalType": "address",
          "name": "",
          "type": "address"
        },
        {
          "internalType": "contract Pool",
          "name": "",
          "type": "address"
        }
      ],
      "stateMutability": "view",
      "type": "function",
      "constant": true
    },
    {
      "inputs": [
        {
          "internalType": "uint256",
          "name": "_id",
          "type": "uint256"
        }
      ],
      "name": "getContractPayoff",
      "outputs": [
        {
          "internalType": "uint256",
          "name": "_payoff",
          "type": "uint256"
        },
        {
          "internalType": "uint256",
          "name": "_payback",
          "type": "uint256"
        },
        {
          "internalType": "uint256",
          "name": "_collateral",
          "type": "uint256"
        }
      ],
      "stateMutability": "view",
      "type": "function",
      "constant": true
    },
    {
      "inputs": [
        {
          "internalType": "address",
          "name": "_poolAddress",
          "type": "address"
        }
      ],
      "name": "anyOptionExpiring",
      "outputs": [
        {
          "internalType": "bool",
          "name": "_isExpiring",
          "type": "bool"
        }
      ],
      "stateMutability": "view",
      "type": "function",
      "constant": true
    },
    {
      "inputs": [
        {
          "internalType": "address",
          "name": "_poolAddress",
          "type": "address"
        }
      ],
      "name": "getExpiringOptionId",
      "outputs": [
        {
          "internalType": "uint256",
          "name": "_id",
          "type": "uint256"
        }
      ],
      "stateMutability": "view",
      "type": "function",
      "constant": true
    },
    {
      "inputs": [
        {
          "components": [
            {
              "internalType": "enum OptionLib.PayoffType",
              "name": "poType",
              "type": "uint8"
            },
            {
              "internalType": "enum OptionLib.OptionSide",
              "name": "side",
              "type": "uint8"
            },
            {
              "internalType": "enum OptionLib.OptionStatus",
              "name": "status",
              "type": "uint8"
            },
            {
              "internalType": "address",
              "name": "holder",
              "type": "address"
            },
            {
              "internalType": "uint256",
              "name": "id",
              "type": "uint256"
            },
            {
              "internalType": "uint256",
              "name": "createTime",
              "type": "uint256"
            },
            {
              "internalType": "uint256",
              "name": "effectiveTime",
              "type": "uint256"
            },
            {
              "internalType": "uint256",
              "name": "tenor",
              "type": "uint256"
            },
            {
              "internalType": "uint256",
              "name": "maturity",
              "type": "uint256"
            },
            {
              "internalType": "uint256",
              "name": "exerciseTime",
              "type": "uint256"
            },
            {
              "internalType": "uint256",
              "name": "amount",
              "type": "uint256"
            },
            {
              "internalType": "uint256",
              "name": "spot",
              "type": "uint256"
            },
            {
              "internalType": "uint256",
              "name": "strike",
              "type": "uint256"
            },
            {
              "internalType": "uint256",
              "name": "spread",
              "type": "uint256"
            },
            {
              "internalType": "uint256",
              "name": "volatility",
              "type": "uint256"
            },
            {
              "internalType": "uint256",
              "name": "premium",
              "type": "uint256"
            },
            {
              "internalType": "uint256",
              "name": "cost",
              "type": "uint256"
            },
            {
              "internalType": "address",
              "name": "pool",
              "type": "address"
            },
            {
              "internalType": "int256",
              "name": "exposure",
              "type": "int256"
            }
          ],
          "internalType": "struct OptionLib.Option",
          "name": "_option",
          "type": "tuple"
        }
      ],
      "name": "calcOptionCost",
      "outputs": [
        {
          "internalType": "uint256",
          "name": "_premium",
          "type": "uint256"
        },
        {
          "internalType": "uint256",
          "name": "_collateral",
          "type": "uint256"
        },
        {
          "internalType": "uint256",
          "name": "_price",
          "type": "uint256"
        },
        {
          "internalType": "uint256",
          "name": "_annualisedVol",
          "type": "uint256"
        },
        {
          "internalType": "int256",
          "name": "_exposure",
          "type": "int256"
        }
      ],
      "stateMutability": "view",
      "type": "function",
      "constant": true
    },
    {
      "inputs": [
        {
          "components": [
            {
              "internalType": "enum OptionLib.PayoffType",
              "name": "poType",
              "type": "uint8"
            },
            {
              "internalType": "enum OptionLib.OptionSide",
              "name": "side",
              "type": "uint8"
            },
            {
              "internalType": "enum OptionLib.OptionStatus",
              "name": "status",
              "type": "uint8"
            },
            {
              "internalType": "address",
              "name": "holder",
              "type": "address"
            },
            {
              "internalType": "uint256",
              "name": "id",
              "type": "uint256"
            },
            {
              "internalType": "uint256",
              "name": "createTime",
              "type": "uint256"
            },
            {
              "internalType": "uint256",
              "name": "effectiveTime",
              "type": "uint256"
            },
            {
              "internalType": "uint256",
              "name": "tenor",
              "type": "uint256"
            },
            {
              "internalType": "uint256",
              "name": "maturity",
              "type": "uint256"
            },
            {
              "internalType": "uint256",
              "name": "exerciseTime",
              "type": "uint256"
            },
            {
              "internalType": "uint256",
              "name": "amount",
              "type": "uint256"
            },
            {
              "internalType": "uint256",
              "name": "spot",
              "type": "uint256"
            },
            {
              "internalType": "uint256",
              "name": "strike",
              "type": "uint256"
            },
            {
              "internalType": "uint256",
              "name": "spread",
              "type": "uint256"
            },
            {
              "internalType": "uint256",
              "name": "volatility",
              "type": "uint256"
            },
            {
              "internalType": "uint256",
              "name": "premium",
              "type": "uint256"
            },
            {
              "internalType": "uint256",
              "name": "cost",
              "type": "uint256"
            },
            {
              "internalType": "address",
              "name": "pool",
              "type": "address"
            },
            {
              "internalType": "int256",
              "name": "exposure",
              "type": "int256"
            }
          ],
          "internalType": "struct OptionLib.Option",
          "name": "_option",
          "type": "tuple"
        }
      ],
      "name": "getPrice",
      "outputs": [
        {
          "internalType": "uint256",
          "name": "_price",
          "type": "uint256"
        }
      ],
      "stateMutability": "view",
      "type": "function",
      "constant": true
    },
    {
      "inputs": [
        {
          "components": [
            {
              "internalType": "enum OptionLib.PayoffType",
              "name": "poType",
              "type": "uint8"
            },
            {
              "internalType": "enum OptionLib.OptionSide",
              "name": "side",
              "type": "uint8"
            },
            {
              "internalType": "enum OptionLib.OptionStatus",
              "name": "status",
              "type": "uint8"
            },
            {
              "internalType": "address",
              "name": "holder",
              "type": "address"
            },
            {
              "internalType": "uint256",
              "name": "id",
              "type": "uint256"
            },
            {
              "internalType": "uint256",
              "name": "createTime",
              "type": "uint256"
            },
            {
              "internalType": "uint256",
              "name": "effectiveTime",
              "type": "uint256"
            },
            {
              "internalType": "uint256",
              "name": "tenor",
              "type": "uint256"
            },
            {
              "internalType": "uint256",
              "name": "maturity",
              "type": "uint256"
            },
            {
              "internalType": "uint256",
              "name": "exerciseTime",
              "type": "uint256"
            },
            {
              "internalType": "uint256",
              "name": "amount",
              "type": "uint256"
            },
            {
              "internalType": "uint256",
              "name": "spot",
              "type": "uint256"
            },
            {
              "internalType": "uint256",
              "name": "strike",
              "type": "uint256"
            },
            {
              "internalType": "uint256",
              "name": "spread",
              "type": "uint256"
            },
            {
              "internalType": "uint256",
              "name": "volatility",
              "type": "uint256"
            },
            {
              "internalType": "uint256",
              "name": "premium",
              "type": "uint256"
            },
            {
              "internalType": "uint256",
              "name": "cost",
              "type": "uint256"
            },
            {
              "internalType": "address",
              "name": "pool",
              "type": "address"
            },
            {
              "internalType": "int256",
              "name": "exposure",
              "type": "int256"
            }
          ],
          "internalType": "struct OptionLib.Option",
          "name": "_option",
          "type": "tuple"
        }
      ],
      "name": "getOptionParams",
      "outputs": [
        {
          "internalType": "uint256",
          "name": "_vol",
          "type": "uint256"
        },
        {
          "internalType": "uint256",
          "name": "_maxExposure",
          "type": "uint256"
        },
        {
          "internalType": "uint256",
          "name": "_sqrt",
          "type": "uint256"
        },
        {
          "internalType": "uint256",
          "name": "_interest",
          "type": "uint256"
        }
      ],
      "stateMutability": "view",
      "type": "function",
      "constant": true
    },
    {
      "inputs": [
        {
          "components": [
            {
              "internalType": "enum OptionLib.PayoffType",
              "name": "poType",
              "type": "uint8"
            },
            {
              "internalType": "enum OptionLib.OptionSide",
              "name": "side",
              "type": "uint8"
            },
            {
              "internalType": "enum OptionLib.OptionStatus",
              "name": "status",
              "type": "uint8"
            },
            {
              "internalType": "address",
              "name": "holder",
              "type": "address"
            },
            {
              "internalType": "uint256",
              "name": "id",
              "type": "uint256"
            },
            {
              "internalType": "uint256",
              "name": "createTime",
              "type": "uint256"
            },
            {
              "internalType": "uint256",
              "name": "effectiveTime",
              "type": "uint256"
            },
            {
              "internalType": "uint256",
              "name": "tenor",
              "type": "uint256"
            },
            {
              "internalType": "uint256",
              "name": "maturity",
              "type": "uint256"
            },
            {
              "internalType": "uint256",
              "name": "exerciseTime",
              "type": "uint256"
            },
            {
              "internalType": "uint256",
              "name": "amount",
              "type": "uint256"
            },
            {
              "internalType": "uint256",
              "name": "spot",
              "type": "uint256"
            },
            {
              "internalType": "uint256",
              "name": "strike",
              "type": "uint256"
            },
            {
              "internalType": "uint256",
              "name": "spread",
              "type": "uint256"
            },
            {
              "internalType": "uint256",
              "name": "volatility",
              "type": "uint256"
            },
            {
              "internalType": "uint256",
              "name": "premium",
              "type": "uint256"
            },
            {
              "internalType": "uint256",
              "name": "cost",
              "type": "uint256"
            },
            {
              "internalType": "address",
              "name": "pool",
              "type": "address"
            },
            {
              "internalType": "int256",
              "name": "exposure",
              "type": "int256"
            }
          ],
          "internalType": "struct OptionLib.Option",
          "name": "_option",
          "type": "tuple"
        },
        {
          "internalType": "uint256",
          "name": "_price",
          "type": "uint256"
        },
        {
          "internalType": "uint256",
          "name": "_volT",
          "type": "uint256"
        },
        {
          "internalType": "uint256",
          "name": "_maxExposure",
          "type": "uint256"
        }
      ],
      "name": "calcCallOptionCost",
      "outputs": [
        {
          "internalType": "uint256",
          "name": "_impVol",
          "type": "uint256"
        },
        {
          "internalType": "int256",
          "name": "_exposureUp",
          "type": "int256"
        }
      ],
      "stateMutability": "view",
      "type": "function",
      "constant": true
    },
    {
      "inputs": [
        {
          "components": [
            {
              "internalType": "enum OptionLib.PayoffType",
              "name": "poType",
              "type": "uint8"
            },
            {
              "internalType": "enum OptionLib.OptionSide",
              "name": "side",
              "type": "uint8"
            },
            {
              "internalType": "enum OptionLib.OptionStatus",
              "name": "status",
              "type": "uint8"
            },
            {
              "internalType": "address",
              "name": "holder",
              "type": "address"
            },
            {
              "internalType": "uint256",
              "name": "id",
              "type": "uint256"
            },
            {
              "internalType": "uint256",
              "name": "createTime",
              "type": "uint256"
            },
            {
              "internalType": "uint256",
              "name": "effectiveTime",
              "type": "uint256"
            },
            {
              "internalType": "uint256",
              "name": "tenor",
              "type": "uint256"
            },
            {
              "internalType": "uint256",
              "name": "maturity",
              "type": "uint256"
            },
            {
              "internalType": "uint256",
              "name": "exerciseTime",
              "type": "uint256"
            },
            {
              "internalType": "uint256",
              "name": "amount",
              "type": "uint256"
            },
            {
              "internalType": "uint256",
              "name": "spot",
              "type": "uint256"
            },
            {
              "internalType": "uint256",
              "name": "strike",
              "type": "uint256"
            },
            {
              "internalType": "uint256",
              "name": "spread",
              "type": "uint256"
            },
            {
              "internalType": "uint256",
              "name": "volatility",
              "type": "uint256"
            },
            {
              "internalType": "uint256",
              "name": "premium",
              "type": "uint256"
            },
            {
              "internalType": "uint256",
              "name": "cost",
              "type": "uint256"
            },
            {
              "internalType": "address",
              "name": "pool",
              "type": "address"
            },
            {
              "internalType": "int256",
              "name": "exposure",
              "type": "int256"
            }
          ],
          "internalType": "struct OptionLib.Option",
          "name": "_option",
          "type": "tuple"
        },
        {
          "internalType": "uint256",
          "name": "_price",
          "type": "uint256"
        },
        {
          "internalType": "uint256",
          "name": "_volT",
          "type": "uint256"
        },
        {
          "internalType": "uint256",
          "name": "_maxExposure",
          "type": "uint256"
        }
      ],
      "name": "calcPutOptionCost",
      "outputs": [
        {
          "internalType": "uint256",
          "name": "_impVol",
          "type": "uint256"
        },
        {
          "internalType": "int256",
          "name": "_exposureDown",
          "type": "int256"
        }
      ],
      "stateMutability": "view",
      "type": "function",
      "constant": true
    },
    {
      "inputs": [
        {
          "internalType": "contract Pool",
          "name": "_pool",
          "type": "address"
        },
        {
          "internalType": "bool",
          "name": "_net",
          "type": "bool"
        },
        {
          "internalType": "bool",
          "name": "_average",
          "type": "bool"
        }
      ],
      "name": "calcCapital",
      "outputs": [
        {
          "internalType": "uint256",
          "name": "",
          "type": "uint256"
        }
      ],
      "stateMutability": "view",
      "type": "function",
      "constant": true
    }
  ],
  "bytecode": "0x60806040523480156200001157600080fd5b50620000276000801b336200002d60201b60201c565b620001a6565b6200003f82826200004360201b60201c565b5050565b6200005582826200013460201b60201c565b6200013057600160008084815260200190815260200160002060000160008373ffffffffffffffffffffffffffffffffffffffff1673ffffffffffffffffffffffffffffffffffffffff16815260200190815260200160002060006101000a81548160ff021916908315150217905550620000d56200019e60201b60201c565b73ffffffffffffffffffffffffffffffffffffffff168173ffffffffffffffffffffffffffffffffffffffff16837f2f8788117e7eff1d82e926ec794901d17c78024a50270940304540a733656f0d60405160405180910390a45b5050565b600080600084815260200190815260200160002060000160008373ffffffffffffffffffffffffffffffffffffffff1673ffffffffffffffffffffffffffffffffffffffff16815260200190815260200160002060009054906101000a900460ff16905092915050565b600033905090565b61556880620001b66000396000f3fe608060405234801561001057600080fd5b50600436106101cf5760003560e01c8063844cc58611610104578063b058ac6e116100a2578063e04c3a7211610071578063e04c3a7214610607578063ec511b5714610637578063efb725af14610667578063fc9d80e014610697576101cf565b8063b058ac6e1461056d578063b50e44b81461059d578063cf5b7f97146105bb578063d547741f146105eb576101cf565b806391d14854116100de57806391d14854146104bb578063956da059146104eb5780639f2b958c1461051f578063a217fddf1461054f576101cf565b8063844cc5861461042757806385ae10e61461045857806387fe1f771461048a576101cf565b80633a328e2911610171578063587a6c151161014b578063587a6c151461037b5780635c273c2f146103ab578063637baf60146103db5780637be795e0146103f7576101cf565b80633a328e29146102e85780633f90ecad14610318578063408ad4bb1461034b576101cf565b8063248a9ca3116101ad578063248a9ca31461026457806324b4110e146102945780632f2ff15d146102b057806336568abe146102cc576101cf565b806301ffc9a7146101d4578063132a0f1b146102045780631ce5e9a614610234575b600080fd5b6101ee60048036038101906101e99190613b9e565b6106ca565b6040516101fb9190613be6565b60405180910390f35b61021e60048036038101906102199190613c5f565b610744565b60405161022b9190613ca5565b60405180910390f35b61024e60048036038101906102499190613cec565b610794565b60405161025b9190613fe0565b60405180910390f35b61027e60048036038101906102799190614032565b6109ba565b60405161028b919061406e565b60405180910390f35b6102ae60048036038101906102a99190614089565b6109d9565b005b6102ca60048036038101906102c591906140c9565b610ecd565b005b6102e660048036038101906102e191906140c9565b610eee565b005b61030260048036038101906102fd9190613c5f565b610f71565b60405161030f9190613ca5565b60405180910390f35b610332600480360381019061032d91906143f1565b6110e1565b604051610342949392919061441f565b60405180910390f35b61036560048036038101906103609190613c5f565b611360565b6040516103729190614473565b60405180910390f35b6103956004803603810190610390919061448e565b611378565b6040516103a29190613ca5565b60405180910390f35b6103c560048036038101906103c0919061458b565b6116e6565b6040516103d29190613ca5565b60405180910390f35b6103f560048036038101906103f09190613cec565b611cd5565b005b610411600480360381019061040c91906145de565b6121fb565b60405161041e91906146cd565b60405180910390f35b610441600480360381019061043c91906146ef565b612289565b60405161044f92919061475a565b60405180910390f35b610472600480360381019061046d9190613cec565b61256c565b60405161048193929190614783565b60405180910390f35b6104a4600480360381019061049f91906146ef565b6127b5565b6040516104b292919061475a565b60405180910390f35b6104d560048036038101906104d091906140c9565b612a98565b6040516104e29190613be6565b60405180910390f35b610505600480360381019061050091906143f1565b612b02565b6040516105169594939291906147ba565b60405180910390f35b61053960048036038101906105349190613c5f565b612d4d565b6040516105469190613be6565b60405180910390f35b610557612eb7565b604051610564919061406e565b60405180910390f35b61058760048036038101906105829190613c5f565b612ebe565b6040516105949190613ca5565b60405180910390f35b6105a5612ed6565b6040516105b2919061406e565b60405180910390f35b6105d560048036038101906105d09190613c5f565b612efa565b6040516105e29190613ca5565b60405180910390f35b610605600480360381019061060091906140c9565b612f12565b005b610621600480360381019061061c9190613c5f565b612f33565b60405161062e9190614473565b60405180910390f35b610651600480360381019061064c91906143f1565b612f4b565b60405161065e9190613ca5565b60405180910390f35b610681600480360381019061067c9190613c5f565b6130a9565b60405161068e91906146cd565b60405180910390f35b6106b160048036038101906106ac9190613cec565b6130f9565b6040516106c19493929190614899565b60405180910390f35b60007f7965db0b000000000000000000000000000000000000000000000000000000007bffffffffffffffffffffffffffffffffffffffffffffffffffffffff1916827bffffffffffffffffffffffffffffffffffffffffffffffffffffffff1916148061073d575061073c82613247565b5b9050919050565b600061078d600360008473ffffffffffffffffffffffffffffffffffffffff1673ffffffffffffffffffffffffffffffffffffffff1681526020019081526020016000206132b1565b9050919050565b61079c613a43565b600182815481106107b0576107af6148de565b5b9060005260206000209060100201604051806102600160405290816000820160009054906101000a900460ff1660038111156107ef576107ee613d19565b5b600381111561080157610800613d19565b5b81526020016000820160019054906101000a900460ff16600181111561082a57610829613d19565b5b600181111561083c5761083b613d19565b5b81526020016000820160029054906101000a900460ff16600381111561086557610864613d19565b5b600381111561087757610876613d19565b5b81526020016000820160039054906101000a900473ffffffffffffffffffffffffffffffffffffffff1673ffffffffffffffffffffffffffffffffffffffff1673ffffffffffffffffffffffffffffffffffffffff168152602001600182015481526020016002820154815260200160038201548152602001600482015481526020016005820154815260200160068201548152602001600782015481526020016008820154815260200160098201548152602001600a8201548152602001600b8201548152602001600c8201548152602001600d8201548152602001600e820160009054906101000a900473ffffffffffffffffffffffffffffffffffffffff1673ffffffffffffffffffffffffffffffffffffffff1673ffffffffffffffffffffffffffffffffffffffff168152602001600f820154815250509050919050565b6000806000838152602001908152602001600020600101549050919050565b7f10b261d3bc7a74f38949f9212b0336103474898eda034c06ae0a3e478dc0e4a5610a03816132c6565b600073ffffffffffffffffffffffffffffffffffffffff168273ffffffffffffffffffffffffffffffffffffffff1603610a72576040517f08c379a0000000000000000000000000000000000000000000000000000000008152600401610a699061496a565b60405180910390fd5b600060018481548110610a8857610a876148de565b5b90600052602060002090601002019050428160030181905550806004015442610ab191906149b9565b816005018190555060018160000160026101000a81548160ff02191690836003811115610ae157610ae0613d19565b5b0217905550600081600e0160009054906101000a900473ffffffffffffffffffffffffffffffffffffffff1690508173__OptionLib_____________________________63d619502790916040518263ffffffff1660e01b8152600401610b4891906149f4565b602060405180830381865af4158015610b65573d6000803e3d6000fd5b505050506040513d601f19601f82011682018060405250810190610b899190614a24565b600460008373ffffffffffffffffffffffffffffffffffffffff1673ffffffffffffffffffffffffffffffffffffffff1681526020019081526020016000206000828254610bd791906149b9565b925050819055508173__OptionLib_____________________________63b4abd93a90916040518263ffffffff1660e01b8152600401610c1791906149f4565b602060405180830381865af4158015610c34573d6000803e3d6000fd5b505050506040513d601f19601f82011682018060405250810190610c589190614a24565b600560008373ffffffffffffffffffffffffffffffffffffffff1673ffffffffffffffffffffffffffffffffffffffff1681526020019081526020016000206000828254610ca691906149b9565b9250508190555060006003811115610cc157610cc0613d19565b5b8260000160009054906101000a900460ff166003811115610ce557610ce4613d19565b5b1480610d26575060026003811115610d0057610cff613d19565b5b8260000160009054906101000a900460ff166003811115610d2457610d23613d19565b5b145b15610d8a5781600f0154600660008373ffffffffffffffffffffffffffffffffffffffff1673ffffffffffffffffffffffffffffffffffffffff1681526020019081526020016000206000828254610d7e9190614a51565b92505081905550610de5565b81600f0154600760008373ffffffffffffffffffffffffffffffffffffffff1673ffffffffffffffffffffffffffffffffffffffff1681526020019081526020016000206000828254610ddd9190614a51565b925050819055505b610e7385600260008473ffffffffffffffffffffffffffffffffffffffff1673ffffffffffffffffffffffffffffffffffffffff16815260200190815260200160002060008773ffffffffffffffffffffffffffffffffffffffff1673ffffffffffffffffffffffffffffffffffffffff1681526020019081526020016000206132da90919063ffffffff16565b50610ec585600360008473ffffffffffffffffffffffffffffffffffffffff1673ffffffffffffffffffffffffffffffffffffffff1681526020019081526020016000206132da90919063ffffffff16565b505050505050565b610ed6826109ba565b610edf816132c6565b610ee983836132f4565b505050565b610ef66133d4565b73ffffffffffffffffffffffffffffffffffffffff168173ffffffffffffffffffffffffffffffffffffffff1614610f63576040517f08c379a0000000000000000000000000000000000000000000000000000000008152600401610f5a90614b07565b60405180910390fd5b610f6d82826133dc565b5050565b600080610fbb600360008573ffffffffffffffffffffffffffffffffffffffff1673ffffffffffffffffffffffffffffffffffffffff1681526020019081526020016000206132b1565b905060005b818110156110da57600061101b82600360008873ffffffffffffffffffffffffffffffffffffffff1673ffffffffffffffffffffffffffffffffffffffff1681526020019081526020016000206134bd90919063ffffffff16565b905060018181548110611031576110306148de565b5b906000526020600020906010020173__OptionLib_____________________________63febf205490916040518263ffffffff1660e01b815260040161107791906149f4565b602060405180830381865af4158015611094573d6000803e3d6000fd5b505050506040513d601f19601f820116820180604052508101906110b89190614b3c565b156110c657809350506110da565b5080806110d290614b69565b915050610fc0565b5050919050565b6000806000806000856102200151905060008173ffffffffffffffffffffffffffffffffffffffff16631f21f9af6040518163ffffffff1660e01b8152600401602060405180830381865afa15801561113e573d6000803e3d6000fd5b505050506040513d601f19601f820116820180604052508101906111629190614bef565b905060008173ffffffffffffffffffffffffffffffffffffffff1663c0a16f6a6040518163ffffffff1660e01b8152600401602060405180830381865afa1580156111b1573d6000803e3d6000fd5b505050506040513d601f19601f820116820180604052508101906111d59190614c5a565b90508073ffffffffffffffffffffffffffffffffffffffff1663cfc2dc208960e001516040518263ffffffff1660e01b81526004016112149190613ca5565b602060405180830381865afa158015611231573d6000803e3d6000fd5b505050506040513d601f19601f820116820180604052508101906112559190614a24565b611261846000806116e6565b8273ffffffffffffffffffffffffffffffffffffffff1663430417f78b60e001516040518263ffffffff1660e01b815260040161129e9190613ca5565b602060405180830381865afa1580156112bb573d6000803e3d6000fd5b505050506040513d601f19601f820116820180604052508101906112df9190614a24565b8473ffffffffffffffffffffffffffffffffffffffff1663a7292ea46040518163ffffffff1660e01b8152600401602060405180830381865afa15801561132a573d6000803e3d6000fd5b505050506040513d601f19601f8201168201806040525081019061134e9190614a24565b96509650965096505050509193509193565b60066020528060005260406000206000915090505481565b60007f10b261d3bc7a74f38949f9212b0336103474898eda034c06ae0a3e478dc0e4a56113a4816132c6565b60008860e00151116113eb576040517f08c379a00000000000000000000000000000000000000000000000000000000081526004016113e290614cd3565b60405180910390fd5b600180549050915060016040518061026001604052808a60000151600381111561141857611417613d19565b5b81526020018a60200151600181111561143457611433613d19565b5b81526020016000600381111561144d5761144c613d19565b5b81526020018a6060015173ffffffffffffffffffffffffffffffffffffffff168152602001848152602001428152602001600081526020018a60e00151815260200160008152602001600081526020018a610140015181526020018781526020018a610180015181526020018a6101a0015181526020018681526020018981526020018881526020018a610220015173ffffffffffffffffffffffffffffffffffffffff16815260200185815250908060018154018082558091505060019003906000526020600020906010020160009091909190915060008201518160000160006101000a81548160ff0219169083600381111561154f5761154e613d19565b5b021790555060208201518160000160016101000a81548160ff0219169083600181111561157f5761157e613d19565b5b021790555060408201518160000160026101000a81548160ff021916908360038111156115af576115ae613d19565b5b021790555060608201518160000160036101000a81548173ffffffffffffffffffffffffffffffffffffffff021916908373ffffffffffffffffffffffffffffffffffffffff1602179055506080820151816001015560a0820151816002015560c0820151816003015560e08201518160040155610100820151816005015561012082015181600601556101408201518160070155610160820151816008015561018082015181600901556101a082015181600a01556101c082015181600b01556101e082015181600c015561020082015181600d015561022082015181600e0160006101000a81548173ffffffffffffffffffffffffffffffffffffffff021916908373ffffffffffffffffffffffffffffffffffffffff16021790555061024082015181600f01555050509695505050505050565b6000808473ffffffffffffffffffffffffffffffffffffffff16631f21f9af6040518163ffffffff1660e01b8152600401602060405180830381865afa158015611734573d6000803e3d6000fd5b505050506040513d601f19601f820116820180604052508101906117589190614bef565b905060008173ffffffffffffffffffffffffffffffffffffffff1663c0a16f6a6040518163ffffffff1660e01b8152600401602060405180830381865afa1580156117a7573d6000803e3d6000fd5b505050506040513d601f19601f820116820180604052508101906117cb9190614c5a565b905060008173ffffffffffffffffffffffffffffffffffffffff1663b0667cf86040518163ffffffff1660e01b8152600401602060405180830381865afa15801561181a573d6000803e3d6000fd5b505050506040513d601f19601f8201168201806040525081019061183e9190614a24565b905060008373ffffffffffffffffffffffffffffffffffffffff1673__MarketLib_____________________________63e74207d69091846040518363ffffffff1660e01b8152600401611893929190614d23565b602060405180830381865af41580156118b0573d6000803e3d6000fd5b505050506040513d601f19601f820116820180604052508101906118d49190614a24565b905060008890506000600560008373ffffffffffffffffffffffffffffffffffffffff1673ffffffffffffffffffffffffffffffffffffffff16815260200190815260200160002054600460008473ffffffffffffffffffffffffffffffffffffffff1673ffffffffffffffffffffffffffffffffffffffff1681526020019081526020016000205473__MathLib_______________________________63fed4a0f39091876040518363ffffffff1660e01b8152600401611997929190614d4c565b602060405180830381865af41580156119b4573d6000803e3d6000fd5b505050506040513d601f19601f820116820180604052508101906119d89190614a24565b6119e291906149b9565b90506119ee81846134d7565b836119f99190614d75565b92508815611b9c576000600660008473ffffffffffffffffffffffffffffffffffffffff1673ffffffffffffffffffffffffffffffffffffffff1681526020019081526020016000205473__MathLib_______________________________63806bcd4b9091600760008773ffffffffffffffffffffffffffffffffffffffff1673ffffffffffffffffffffffffffffffffffffffff16815260200190815260200160002054611aa890614da9565b6040518363ffffffff1660e01b8152600401611ac5929190614e00565b602060405180830381865af4158015611ae2573d6000803e3d6000fd5b505050506040513d601f19601f82011682018060405250810190611b069190614a24565b73__MathLib_______________________________63fed4a0f39091876040518363ffffffff1660e01b8152600401611b40929190614d4c565b602060405180830381865af4158015611b5d573d6000803e3d6000fd5b505050506040513d601f19601f82011682018060405250810190611b819190614a24565b9050611b8d81856134d7565b84611b989190614d75565b9350505b8715611cc55760008a73ffffffffffffffffffffffffffffffffffffffff166318160ddd6040518163ffffffff1660e01b8152600401602060405180830381865afa158015611bef573d6000803e3d6000fd5b505050506040513d601f19601f82011682018060405250810190611c139190614a24565b90506000811115611ca1578373__MathLib_______________________________63de7f61709091836040518363ffffffff1660e01b8152600401611c59929190614d4c565b602060405180830381865af4158015611c76573d6000803e3d6000fd5b505050506040513d601f19601f82011682018060405250810190611c9a9190614a24565b9350611cc3565b600081148015611cb15750600084145b15611cc257670de0b6b3a764000093505b5b505b8296505050505050509392505050565b7f10b261d3bc7a74f38949f9212b0336103474898eda034c06ae0a3e478dc0e4a5611cff816132c6565b600060018381548110611d1557611d146148de565b5b90600052602060002090601002019050600081600e0160009054906101000a900473ffffffffffffffffffffffffffffffffffffffff16905060008260000160039054906101000a900473ffffffffffffffffffffffffffffffffffffffff169050611dc885600360008573ffffffffffffffffffffffffffffffffffffffff1673ffffffffffffffffffffffffffffffffffffffff1681526020019081526020016000206134f090919063ffffffff16565b50611e5785600260008573ffffffffffffffffffffffffffffffffffffffff1673ffffffffffffffffffffffffffffffffffffffff16815260200190815260200160002060008473ffffffffffffffffffffffffffffffffffffffff1673ffffffffffffffffffffffffffffffffffffffff1681526020019081526020016000206134f090919063ffffffff16565b50611f1a600460008473ffffffffffffffffffffffffffffffffffffffff1673ffffffffffffffffffffffffffffffffffffffff168152602001908152602001600020548473__OptionLib_____________________________63d619502790916040518263ffffffff1660e01b8152600401611ed491906149f4565b602060405180830381865af4158015611ef1573d6000803e3d6000fd5b505050506040513d601f19601f82011682018060405250810190611f159190614a24565b6134d7565b600460008473ffffffffffffffffffffffffffffffffffffffff1673ffffffffffffffffffffffffffffffffffffffff1681526020019081526020016000206000828254611f689190614d75565b92505081905550612031600560008473ffffffffffffffffffffffffffffffffffffffff1673ffffffffffffffffffffffffffffffffffffffff168152602001908152602001600020548473__OptionLib_____________________________63b4abd93a90916040518263ffffffff1660e01b8152600401611feb91906149f4565b602060405180830381865af4158015612008573d6000803e3d6000fd5b505050506040513d601f19601f8201168201806040525081019061202c9190614a24565b6134d7565b600560008473ffffffffffffffffffffffffffffffffffffffff1673ffffffffffffffffffffffffffffffffffffffff168152602001908152602001600020600082825461207f9190614d75565b925050819055506000600381111561209a57612099613d19565b5b8360000160009054906101000a900460ff1660038111156120be576120bd613d19565b5b14806120ff5750600260038111156120d9576120d8613d19565b5b8360000160009054906101000a900460ff1660038111156120fd576120fc613d19565b5b145b156121635782600f0154600660008473ffffffffffffffffffffffffffffffffffffffff1673ffffffffffffffffffffffffffffffffffffffff16815260200190815260200160002060008282546121579190614e29565b925050819055506121be565b82600f0154600760008473ffffffffffffffffffffffffffffffffffffffff1673ffffffffffffffffffffffffffffffffffffffff16815260200190815260200160002060008282546121b69190614e29565b925050819055505b60038360000160026101000a81548160ff021916908360038111156121e6576121e5613d19565b5b02179055504283600601819055505050505050565b6060612281600260008573ffffffffffffffffffffffffffffffffffffffff1673ffffffffffffffffffffffffffffffffffffffff16815260200190815260200160002060008473ffffffffffffffffffffffffffffffffffffffff1673ffffffffffffffffffffffffffffffffffffffff16815260200190815260200160002061350a565b905092915050565b6000806000866102200151905060008173ffffffffffffffffffffffffffffffffffffffff1663e0548bd86040518163ffffffff1660e01b8152600401602060405180830381865afa1580156122e3573d6000803e3d6000fd5b505050506040513d601f19601f820116820180604052508101906123079190614a24565b905060008273ffffffffffffffffffffffffffffffffffffffff16630f9026186040518163ffffffff1660e01b8152600401602060405180830381865afa158015612356573d6000803e3d6000fd5b505050506040513d601f19601f8201168201806040525081019061237a9190614a24565b905060008873__MathLib_______________________________63de7f617090918a73__MathLib_______________________________63fed4a0f39091886040518363ffffffff1660e01b81526004016123d6929190614d4c565b602060405180830381865af41580156123f3573d6000803e3d6000fd5b505050506040513d601f19601f820116820180604052508101906124179190614a24565b670de0b6b3a764000061242a91906149b9565b6040518363ffffffff1660e01b8152600401612447929190614d4c565b602060405180830381865af4158015612464573d6000803e3d6000fd5b505050506040513d601f19601f820116820180604052508101906124889190614a24565b90506000600760008c610220015173ffffffffffffffffffffffffffffffffffffffff1673ffffffffffffffffffffffffffffffffffffffff1681526020019081526020016000205490508a73__OptionLib_____________________________63e43aeed99091848c87868e6040518763ffffffff1660e01b81526004016125169695949392919061504f565b6040805180830381865af4158015612532573d6000803e3d6000fd5b505050506040513d601f19601f8201168201806040525081019061255691906150cb565b8097508198505050505050505094509492505050565b60008060008060018581548110612586576125856148de565b5b9060005260206000209060100201600e0160009054906101000a900473ffffffffffffffffffffffffffffffffffffffff16905060008173ffffffffffffffffffffffffffffffffffffffff16631f21f9af6040518163ffffffff1660e01b8152600401602060405180830381865afa158015612607573d6000803e3d6000fd5b505050506040513d601f19601f8201168201806040525081019061262b9190614bef565b73ffffffffffffffffffffffffffffffffffffffff1663c0a16f6a6040518163ffffffff1660e01b8152600401602060405180830381865afa158015612675573d6000803e3d6000fd5b505050506040513d601f19601f820116820180604052508101906126999190614c5a565b9050600186815481106126af576126ae6148de565b5b906000526020600020906010020173__OptionLib_____________________________63357aa1df90918373ffffffffffffffffffffffffffffffffffffffff1663b0667cf86040518163ffffffff1660e01b8152600401602060405180830381865afa158015612724573d6000803e3d6000fd5b505050506040513d601f19601f820116820180604052508101906127489190614a24565b6040518363ffffffff1660e01b815260040161276592919061510b565b606060405180830381865af4158015612782573d6000803e3d6000fd5b505050506040513d601f19601f820116820180604052508101906127a69190615134565b94509450945050509193909250565b6000806000866102200151905060008173ffffffffffffffffffffffffffffffffffffffff1663e0548bd86040518163ffffffff1660e01b8152600401602060405180830381865afa15801561280f573d6000803e3d6000fd5b505050506040513d601f19601f820116820180604052508101906128339190614a24565b905060008273ffffffffffffffffffffffffffffffffffffffff16630f9026186040518163ffffffff1660e01b8152600401602060405180830381865afa158015612882573d6000803e3d6000fd5b505050506040513d601f19601f820116820180604052508101906128a69190614a24565b905060008873__MathLib_______________________________63fed4a0f390918a73__MathLib_______________________________63fed4a0f39091886040518363ffffffff1660e01b8152600401612902929190614d4c565b602060405180830381865af415801561291f573d6000803e3d6000fd5b505050506040513d601f19601f820116820180604052508101906129439190614a24565b670de0b6b3a764000061295691906149b9565b6040518363ffffffff1660e01b8152600401612973929190614d4c565b602060405180830381865af4158015612990573d6000803e3d6000fd5b505050506040513d601f19601f820116820180604052508101906129b49190614a24565b90506000600660008c610220015173ffffffffffffffffffffffffffffffffffffffff1673ffffffffffffffffffffffffffffffffffffffff1681526020019081526020016000205490508a73__OptionLib_____________________________63a47af6759091848c87868e6040518763ffffffff1660e01b8152600401612a429695949392919061504f565b6040805180830381865af4158015612a5e573d6000803e3d6000fd5b505050506040513d601f19601f82011682018060405250810190612a8291906150cb565b8097508198505050505050505094509492505050565b600080600084815260200190815260200160002060000160008373ffffffffffffffffffffffffffffffffffffffff1673ffffffffffffffffffffffffffffffffffffffff16815260200190815260200160002060009054906101000a900460ff16905092915050565b6000806000806000612b1386612f4b565b9250600080600080612b248a6110e1565b93509350935093506000806003811115612b4157612b40613d19565b5b8b600001516003811115612b5857612b57613d19565b5b1480612b8c575060026003811115612b7357612b72613d19565b5b8b600001516003811115612b8a57612b89613d19565b5b145b15612baa57612b9d8b8987876127b5565b8097508192505050612bbf565b612bb68b898787612289565b80975081925050505b8073__MathLib_______________________________63fed4a0f39091856040518363ffffffff1660e01b8152600401612bfa929190614d4c565b602060405180830381865af4158015612c17573d6000803e3d6000fd5b505050506040513d601f19601f82011682018060405250810190612c3b9190614a24565b96508a73__OptionLib_____________________________638399d60c90918a84866040518563ffffffff1660e01b8152600401612c7c9493929190615187565b602060405180830381865af4158015612c99573d6000803e3d6000fd5b505050506040513d601f19601f82011682018060405250810190612cbd9190614a24565b99508a73__OptionLib_____________________________63d824254990918a8d6040518463ffffffff1660e01b8152600401612cfc939291906151d0565b602060405180830381865af4158015612d19573d6000803e3d6000fd5b505050506040513d601f19601f82011682018060405250810190612d3d9190614a24565b9850505050505091939590929450565b600080612d97600360008573ffffffffffffffffffffffffffffffffffffffff1673ffffffffffffffffffffffffffffffffffffffff1681526020019081526020016000206132b1565b905060005b81811015612eb0576001612df782600360008873ffffffffffffffffffffffffffffffffffffffff1673ffffffffffffffffffffffffffffffffffffffff1681526020019081526020016000206134bd90919063ffffffff16565b81548110612e0857612e076148de565b5b906000526020600020906010020173__OptionLib_____________________________63febf205490916040518263ffffffff1660e01b8152600401612e4e91906149f4565b602060405180830381865af4158015612e6b573d6000803e3d6000fd5b505050506040513d601f19601f82011682018060405250810190612e8f9190614b3c565b15612e9d5760019250612eb0565b8080612ea890614b69565b915050612d9c565b5050919050565b6000801b81565b60056020528060005260406000206000915090505481565b7f10b261d3bc7a74f38949f9212b0336103474898eda034c06ae0a3e478dc0e4a581565b60046020528060005260406000206000915090505481565b612f1b826109ba565b612f24816132c6565b612f2e83836133dc565b505050565b60076020528060005260406000206000915090505481565b60008082610220015190508073ffffffffffffffffffffffffffffffffffffffff16631f21f9af6040518163ffffffff1660e01b8152600401602060405180830381865afa158015612fa1573d6000803e3d6000fd5b505050506040513d601f19601f82011682018060405250810190612fc59190614bef565b73ffffffffffffffffffffffffffffffffffffffff1663c0a16f6a6040518163ffffffff1660e01b8152600401602060405180830381865afa15801561300f573d6000803e3d6000fd5b505050506040513d601f19601f820116820180604052508101906130339190614c5a565b73ffffffffffffffffffffffffffffffffffffffff1663b0667cf86040518163ffffffff1660e01b8152600401602060405180830381865afa15801561307d573d6000803e3d6000fd5b505050506040513d601f19601f820116820180604052508101906130a19190614a24565b915050919050565b60606130f2600360008473ffffffffffffffffffffffffffffffffffffffff1673ffffffffffffffffffffffffffffffffffffffff16815260200190815260200160002061350a565b9050919050565b6000806000806001805490508510613146576040517f08c379a000000000000000000000000000000000000000000000000000000000815260040161313d90615256565b60405180910390fd5b6001858154811061315a576131596148de565b5b906000526020600020906010020160000160029054906101000a900460ff166001868154811061318d5761318c6148de565b5b906000526020600020906010020160000160019054906101000a900460ff16600187815481106131c0576131bf6148de565b5b906000526020600020906010020160000160039054906101000a900473ffffffffffffffffffffffffffffffffffffffff1660018881548110613206576132056148de565b5b9060005260206000209060100201600e0160009054906101000a900473ffffffffffffffffffffffffffffffffffffffff1693509350935093509193509193565b60007f01ffc9a7000000000000000000000000000000000000000000000000000000007bffffffffffffffffffffffffffffffffffffffffffffffffffffffff1916827bffffffffffffffffffffffffffffffffffffffffffffffffffffffff1916149050919050565b60006132bf8260000161352b565b9050919050565b6132d7816132d26133d4565b61353c565b50565b60006132ec836000018360001b6135d9565b905092915050565b6132fe8282612a98565b6133d057600160008084815260200190815260200160002060000160008373ffffffffffffffffffffffffffffffffffffffff1673ffffffffffffffffffffffffffffffffffffffff16815260200190815260200160002060006101000a81548160ff0219169083151502179055506133756133d4565b73ffffffffffffffffffffffffffffffffffffffff168173ffffffffffffffffffffffffffffffffffffffff16837f2f8788117e7eff1d82e926ec794901d17c78024a50270940304540a733656f0d60405160405180910390a45b5050565b600033905090565b6133e68282612a98565b156134b957600080600084815260200190815260200160002060000160008373ffffffffffffffffffffffffffffffffffffffff1673ffffffffffffffffffffffffffffffffffffffff16815260200190815260200160002060006101000a81548160ff02191690831515021790555061345e6133d4565b73ffffffffffffffffffffffffffffffffffffffff168173ffffffffffffffffffffffffffffffffffffffff16837ff6391f5c32d9c69d2a47ea670b442974b53935d1edc7fd64eb21e047a839171b60405160405180910390a45b5050565b60006134cc8360000183613649565b60001c905092915050565b60008183106134e657816134e8565b825b905092915050565b6000613502836000018360001b613674565b905092915050565b6060600061351a83600001613788565b905060608190508092505050919050565b600081600001805490509050919050565b6135468282612a98565b6135d55761356b8173ffffffffffffffffffffffffffffffffffffffff1660146137e4565b6135798360001c60206137e4565b60405160200161358a92919061537f565b6040516020818303038152906040526040517f08c379a00000000000000000000000000000000000000000000000000000000081526004016135cc91906153f2565b60405180910390fd5b5050565b60006135e58383613a20565b61363e578260000182908060018154018082558091505060019003906000526020600020016000909190919091505582600001805490508360010160008481526020019081526020016000208190555060019050613643565b600090505b92915050565b6000826000018281548110613661576136606148de565b5b9060005260206000200154905092915050565b6000808360010160008481526020019081526020016000205490506000811461377c5760006001826136a69190614d75565b90506000600186600001805490506136be9190614d75565b905081811461372d5760008660000182815481106136df576136de6148de565b5b9060005260206000200154905080876000018481548110613703576137026148de565b5b90600052602060002001819055508387600101600083815260200190815260200160002081905550505b8560000180548061374157613740615414565b5b600190038181906000526020600020016000905590558560010160008681526020019081526020016000206000905560019350505050613782565b60009150505b92915050565b6060816000018054806020026020016040519081016040528092919081815260200182805480156137d857602002820191906000526020600020905b8154815260200190600101908083116137c4575b50505050509050919050565b6060600060028360026137f79190615443565b61380191906149b9565b67ffffffffffffffff81111561381a5761381961411f565b5b6040519080825280601f01601f19166020018201604052801561384c5781602001600182028036833780820191505090505b5090507f300000000000000000000000000000000000000000000000000000000000000081600081518110613884576138836148de565b5b60200101907effffffffffffffffffffffffffffffffffffffffffffffffffffffffffffff1916908160001a9053507f7800000000000000000000000000000000000000000000000000000000000000816001815181106138e8576138e76148de565b5b60200101907effffffffffffffffffffffffffffffffffffffffffffffffffffffffffffff1916908160001a905350600060018460026139289190615443565b61393291906149b9565b90505b60018111156139d2577f3031323334353637383961626364656600000000000000000000000000000000600f861660108110613974576139736148de565b5b1a60f81b82828151811061398b5761398a6148de565b5b60200101907effffffffffffffffffffffffffffffffffffffffffffffffffffffffffffff1916908160001a905350600485901c9450806139cb9061549d565b9050613935565b5060008414613a16576040517f08c379a0000000000000000000000000000000000000000000000000000000008152600401613a0d90615512565b60405180910390fd5b8091505092915050565b600080836001016000848152602001908152602001600020541415905092915050565b60405180610260016040528060006003811115613a6357613a62613d19565b5b815260200160006001811115613a7c57613a7b613d19565b5b815260200160006003811115613a9557613a94613d19565b5b8152602001600073ffffffffffffffffffffffffffffffffffffffff16815260200160008152602001600081526020016000815260200160008152602001600081526020016000815260200160008152602001600081526020016000815260200160008152602001600081526020016000815260200160008152602001600073ffffffffffffffffffffffffffffffffffffffff168152602001600081525090565b6000604051905090565b600080fd5b60007fffffffff0000000000000000000000000000000000000000000000000000000082169050919050565b613b7b81613b46565b8114613b8657600080fd5b50565b600081359050613b9881613b72565b92915050565b600060208284031215613bb457613bb3613b41565b5b6000613bc284828501613b89565b91505092915050565b60008115159050919050565b613be081613bcb565b82525050565b6000602082019050613bfb6000830184613bd7565b92915050565b600073ffffffffffffffffffffffffffffffffffffffff82169050919050565b6000613c2c82613c01565b9050919050565b613c3c81613c21565b8114613c4757600080fd5b50565b600081359050613c5981613c33565b92915050565b600060208284031215613c7557613c74613b41565b5b6000613c8384828501613c4a565b91505092915050565b6000819050919050565b613c9f81613c8c565b82525050565b6000602082019050613cba6000830184613c96565b92915050565b613cc981613c8c565b8114613cd457600080fd5b50565b600081359050613ce681613cc0565b92915050565b600060208284031215613d0257613d01613b41565b5b6000613d1084828501613cd7565b91505092915050565b7f4e487b7100000000000000000000000000000000000000000000000000000000600052602160045260246000fd5b60048110613d5957613d58613d19565b5b50565b6000819050613d6a82613d48565b919050565b6000613d7a82613d5c565b9050919050565b613d8a81613d6f565b82525050565b60028110613da157613da0613d19565b5b50565b6000819050613db282613d90565b919050565b6000613dc282613da4565b9050919050565b613dd281613db7565b82525050565b60048110613de957613de8613d19565b5b50565b6000819050613dfa82613dd8565b919050565b6000613e0a82613dec565b9050919050565b613e1a81613dff565b82525050565b613e2981613c21565b82525050565b613e3881613c8c565b82525050565b6000819050919050565b613e5181613e3e565b82525050565b61026082016000820151613e6e6000850182613d81565b506020820151613e816020850182613dc9565b506040820151613e946040850182613e11565b506060820151613ea76060850182613e20565b506080820151613eba6080850182613e2f565b5060a0820151613ecd60a0850182613e2f565b5060c0820151613ee060c0850182613e2f565b5060e0820151613ef360e0850182613e2f565b50610100820151613f08610100850182613e2f565b50610120820151613f1d610120850182613e2f565b50610140820151613f32610140850182613e2f565b50610160820151613f47610160850182613e2f565b50610180820151613f5c610180850182613e2f565b506101a0820151613f716101a0850182613e2f565b506101c0820151613f866101c0850182613e2f565b506101e0820151613f9b6101e0850182613e2f565b50610200820151613fb0610200850182613e2f565b50610220820151613fc5610220850182613e20565b50610240820151613fda610240850182613e48565b50505050565b600061026082019050613ff66000830184613e57565b92915050565b6000819050919050565b61400f81613ffc565b811461401a57600080fd5b50565b60008135905061402c81614006565b92915050565b60006020828403121561404857614047613b41565b5b60006140568482850161401d565b91505092915050565b61406881613ffc565b82525050565b6000602082019050614083600083018461405f565b92915050565b600080604083850312156140a05761409f613b41565b5b60006140ae85828601613cd7565b92505060206140bf85828601613c4a565b9150509250929050565b600080604083850312156140e0576140df613b41565b5b60006140ee8582860161401d565b92505060206140ff85828601613c4a565b9150509250929050565b600080fd5b6000601f19601f8301169050919050565b7f4e487b7100000000000000000000000000000000000000000000000000000000600052604160045260246000fd5b6141578261410e565b810181811067ffffffffffffffff821117156141765761417561411f565b5b80604052505050565b6000614189613b37565b9050614195828261414e565b919050565b600481106141a757600080fd5b50565b6000813590506141b98161419a565b92915050565b600281106141cc57600080fd5b50565b6000813590506141de816141bf565b92915050565b600481106141f157600080fd5b50565b600081359050614203816141e4565b92915050565b61421281613e3e565b811461421d57600080fd5b50565b60008135905061422f81614209565b92915050565b6000610260828403121561424c5761424b614109565b5b61425761026061417f565b90506000614267848285016141aa565b600083015250602061427b848285016141cf565b602083015250604061428f848285016141f4565b60408301525060606142a384828501613c4a565b60608301525060806142b784828501613cd7565b60808301525060a06142cb84828501613cd7565b60a08301525060c06142df84828501613cd7565b60c08301525060e06142f384828501613cd7565b60e08301525061010061430884828501613cd7565b6101008301525061012061431e84828501613cd7565b6101208301525061014061433484828501613cd7565b6101408301525061016061434a84828501613cd7565b6101608301525061018061436084828501613cd7565b610180830152506101a061437684828501613cd7565b6101a0830152506101c061438c84828501613cd7565b6101c0830152506101e06143a284828501613cd7565b6101e0830152506102006143b884828501613cd7565b610200830152506102206143ce84828501613c4a565b610220830152506102406143e484828501614220565b6102408301525092915050565b6000610260828403121561440857614407613b41565b5b600061441684828501614235565b91505092915050565b60006080820190506144346000830187613c96565b6144416020830186613c96565b61444e6040830185613c96565b61445b6060830184613c96565b95945050505050565b61446d81613e3e565b82525050565b60006020820190506144886000830184614464565b92915050565b60008060008060008061030087890312156144ac576144ab613b41565b5b60006144ba89828a01614235565b9650506102606144cc89828a01613cd7565b9550506102806144de89828a01613cd7565b9450506102a06144f089828a01613cd7565b9350506102c061450289828a01613cd7565b9250506102e061451489828a01614220565b9150509295509295509295565b600061452c82613c21565b9050919050565b61453c81614521565b811461454757600080fd5b50565b60008135905061455981614533565b92915050565b61456881613bcb565b811461457357600080fd5b50565b6000813590506145858161455f565b92915050565b6000806000606084860312156145a4576145a3613b41565b5b60006145b28682870161454a565b93505060206145c386828701614576565b92505060406145d486828701614576565b9150509250925092565b600080604083850312156145f5576145f4613b41565b5b600061460385828601613c4a565b925050602061461485828601613c4a565b9150509250929050565b600081519050919050565b600082825260208201905092915050565b6000819050602082019050919050565b60006146568383613e2f565b60208301905092915050565b6000602082019050919050565b600061467a8261461e565b6146848185614629565b935061468f8361463a565b8060005b838110156146c05781516146a7888261464a565b97506146b283614662565b925050600181019050614693565b5085935050505092915050565b600060208201905081810360008301526146e7818461466f565b905092915050565b6000806000806102c0858703121561470a57614709613b41565b5b600061471887828801614235565b94505061026061472a87828801613cd7565b93505061028061473c87828801613cd7565b9250506102a061474e87828801613cd7565b91505092959194509250565b600060408201905061476f6000830185613c96565b61477c6020830184614464565b9392505050565b60006060820190506147986000830186613c96565b6147a56020830185613c96565b6147b26040830184613c96565b949350505050565b600060a0820190506147cf6000830188613c96565b6147dc6020830187613c96565b6147e96040830186613c96565b6147f66060830185613c96565b6148036080830184614464565b9695505050505050565b61481681613dff565b82525050565b61482581613db7565b82525050565b61483481613c21565b82525050565b6000819050919050565b600061485f61485a61485584613c01565b61483a565b613c01565b9050919050565b600061487182614844565b9050919050565b600061488382614866565b9050919050565b61489381614878565b82525050565b60006080820190506148ae600083018761480d565b6148bb602083018661481c565b6148c8604083018561482b565b6148d5606083018461488a565b95945050505050565b7f4e487b7100000000000000000000000000000000000000000000000000000000600052603260045260246000fd5b600082825260208201905092915050565b7f3061646472000000000000000000000000000000000000000000000000000000600082015250565b600061495460058361490d565b915061495f8261491e565b602082019050919050565b6000602082019050818103600083015261498381614947565b9050919050565b7f4e487b7100000000000000000000000000000000000000000000000000000000600052601160045260246000fd5b60006149c482613c8c565b91506149cf83613c8c565b92508282019050808211156149e7576149e661498a565b5b92915050565b8082525050565b6000602082019050614a0960008301846149ed565b92915050565b600081519050614a1e81613cc0565b92915050565b600060208284031215614a3a57614a39613b41565b5b6000614a4884828501614a0f565b91505092915050565b6000614a5c82613e3e565b9150614a6783613e3e565b925082820190508281121560008312168382126000841215161715614a8f57614a8e61498a565b5b92915050565b7f416363657373436f6e74726f6c3a2063616e206f6e6c792072656e6f756e636560008201527f20726f6c657320666f722073656c660000000000000000000000000000000000602082015250565b6000614af1602f8361490d565b9150614afc82614a95565b604082019050919050565b60006020820190508181036000830152614b2081614ae4565b9050919050565b600081519050614b368161455f565b92915050565b600060208284031215614b5257614b51613b41565b5b6000614b6084828501614b27565b91505092915050565b6000614b7482613c8c565b91507fffffffffffffffffffffffffffffffffffffffffffffffffffffffffffffffff8203614ba657614ba561498a565b5b600182019050919050565b6000614bbc82613c21565b9050919050565b614bcc81614bb1565b8114614bd757600080fd5b50565b600081519050614be981614bc3565b92915050565b600060208284031215614c0557614c04613b41565b5b6000614c1384828501614bda565b91505092915050565b6000614c2782613c21565b9050919050565b614c3781614c1c565b8114614c4257600080fd5b50565b600081519050614c5481614c2e565b92915050565b600060208284031215614c7057614c6f613b41565b5b6000614c7e84828501614c45565b91505092915050565b7f5a65726f2074656e6f7200000000000000000000000000000000000000000000600082015250565b6000614cbd600a8361490d565b9150614cc882614c87565b602082019050919050565b60006020820190508181036000830152614cec81614cb0565b9050919050565b6000614cfe82614866565b9050919050565b614d0e81614cf3565b82525050565b614d1d81613c8c565b82525050565b6000604082019050614d386000830185614d05565b614d456020830184614d14565b9392505050565b6000604082019050614d616000830185614d14565b614d6e6020830184614d14565b9392505050565b6000614d8082613c8c565b9150614d8b83613c8c565b9250828203905081811115614da357614da261498a565b5b92915050565b6000614db482613e3e565b91507f80000000000000000000000000000000000000000000000000000000000000008203614de657614de561498a565b5b816000039050919050565b614dfa81613e3e565b82525050565b6000604082019050614e156000830185614df1565b614e226020830184614df1565b9392505050565b6000614e3482613e3e565b9150614e3f83613e3e565b9250828203905081811260008412168282136000851215161715614e6657614e6561498a565b5b92915050565b614e7581613d6f565b82525050565b614e8481613db7565b82525050565b614e9381613dff565b82525050565b614ea281613c21565b82525050565b614eb181613c8c565b82525050565b614ec081613e3e565b82525050565b61026082016000820151614edd6000850182614e6c565b506020820151614ef06020850182614e7b565b506040820151614f036040850182614e8a565b506060820151614f166060850182614e99565b506080820151614f296080850182614ea8565b5060a0820151614f3c60a0850182614ea8565b5060c0820151614f4f60c0850182614ea8565b5060e0820151614f6260e0850182614ea8565b50610100820151614f77610100850182614ea8565b50610120820151614f8c610120850182614ea8565b50610140820151614fa1610140850182614ea8565b50610160820151614fb6610160850182614ea8565b50610180820151614fcb610180850182614ea8565b506101a0820151614fe06101a0850182614ea8565b506101c0820151614ff56101c0850182614ea8565b506101e082015161500a6101e0850182614ea8565b5061020082015161501f610200850182614ea8565b50610220820151615034610220850182614e99565b50610240820151615049610240850182614eb7565b50505050565b6000610300820190506150656000830189614ec6565b615073610260830188614d14565b615081610280830187614d14565b61508f6102a0830186614d14565b61509d6102c0830185614df1565b6150ab6102e0830184614d14565b979650505050505050565b6000815190506150c581614209565b92915050565b600080604083850312156150e2576150e1613b41565b5b60006150f085828601614a0f565b9250506020615101858286016150b6565b9150509250929050565b600060408201905061512060008301856149ed565b61512d6020830184614d14565b9392505050565b60008060006060848603121561514d5761514c613b41565b5b600061515b86828701614a0f565b935050602061516c86828701614a0f565b925050604061517d86828701614a0f565b9150509250925092565b60006102c08201905061519d6000830187614ec6565b6151ab610260830186614d14565b6151b9610280830185614d14565b6151c76102a0830184614d14565b95945050505050565b60006102a0820190506151e66000830186614ec6565b6151f4610260830185614d14565b615202610280830184614d14565b949350505050565b7f2d49440000000000000000000000000000000000000000000000000000000000600082015250565b600061524060038361490d565b915061524b8261520a565b602082019050919050565b6000602082019050818103600083015261526f81615233565b9050919050565b600081905092915050565b7f416363657373436f6e74726f6c3a206163636f756e7420000000000000000000600082015250565b60006152b7601783615276565b91506152c282615281565b601782019050919050565b600081519050919050565b60005b838110156152f65780820151818401526020810190506152db565b60008484015250505050565b600061530d826152cd565b6153178185615276565b93506153278185602086016152d8565b80840191505092915050565b7f206973206d697373696e6720726f6c6520000000000000000000000000000000600082015250565b6000615369601183615276565b915061537482615333565b601182019050919050565b600061538a826152aa565b91506153968285615302565b91506153a18261535c565b91506153ad8284615302565b91508190509392505050565b60006153c4826152cd565b6153ce818561490d565b93506153de8185602086016152d8565b6153e78161410e565b840191505092915050565b6000602082019050818103600083015261540c81846153b9565b905092915050565b7f4e487b7100000000000000000000000000000000000000000000000000000000600052603160045260246000fd5b600061544e82613c8c565b915061545983613c8c565b9250817fffffffffffffffffffffffffffffffffffffffffffffffffffffffffffffffff04831182151516156154925761549161498a565b5b828202905092915050565b60006154a882613c8c565b9150600082036154bb576154ba61498a565b5b600182039050919050565b7f537472696e67733a20686578206c656e67746820696e73756666696369656e74600082015250565b60006154fc60208361490d565b9150615507826154c6565b602082019050919050565b6000602082019050818103600083015261552b816154ef565b905091905056fea26469706673582212207ea364dfa699173e39e70140722aeb525c609b25d7e47ad61cef406f4b503da264736f6c63430008100033",
  "immutableReferences": {},
  "source": "// SPDX-License-Identifier: MIT\npragma solidity 0.8.16;\n\nimport \"@openzeppelin/contracts/access/AccessControl.sol\";\nimport \"@openzeppelin/contracts/utils/structs/EnumerableSet.sol\";\nimport \"./libraries/MarketLib.sol\";\nimport \"./libraries/OptionLib.sol\";\nimport \"./libraries/MathLib.sol\";\nimport \"./interfaces/EOption.sol\";\nimport \"./pools/Pool.sol\";\nimport \"./pools/MarketMaker.sol\";\nimport \"./VolatilityChain.sol\";\nimport \"./VolatilityToken.sol\";\n\ncontract OptionVault is EOption, AccessControl{\n  using MathLib for uint256;\n  using MathLib for int256;\n  using MarketLib for uint256;\n  using MarketLib for MarketMaker;\n  \n  using OptionLib for OptionLib.Option;\n  using EnumerableSet for EnumerableSet.UintSet;\n  using EnumerableSet for EnumerableSet.AddressSet;\n\n  bytes32 public constant EXCHANGE = keccak256(\"EXCHANGE\");\n  \n  // list of option contracts\n  OptionLib.Option[] internal aOption;\n  mapping(address=>mapping(address=> EnumerableSet.UintSet)) internal mHolderAtiveOption;\n  mapping(address=>EnumerableSet.UintSet) internal mActiveOption;\n  mapping(address=>uint256) public mUnderCollateral;\n  mapping(address=>uint256) public mFundCollateral;\n  mapping(address=>int256) public mExposureUp;\n  mapping(address=>int256) public mExposureDown;\n\n  // immutable and constant values\n  uint256 internal constant BASE  = 1e18;\n  uint256 internal constant SCALING = 1e5;\n\n  // constructor\n  constructor(){\n    _setupRole(DEFAULT_ADMIN_ROLE, msg.sender); }\n\n  // function to add new option contracts, only executable by Exchange contract as owner\n  // arguments: option contracts (in struct), premium (in funding token decimals), collateral (in funding token decimals), price (in price source decimals), volatility (in default decimals 18)\n  // return id of option contract\n  function addOption(OptionLib.Option memory _option, uint256 _premium, uint256 _collateral, uint256 _price, uint256 _vol, int256 _exposure) external onlyRole(EXCHANGE) returns(uint256 _id){\n    require(_option.tenor > 0, \"Zero tenor\");\n    _id = aOption.length;\n    \n    // Arguments: option type, option side, contract status (default to draft), contract holder address, contract id, creation timestamp, effective timestamp (default to 0), tenor in seconds, maturity timestamp (default to 0), excersie timestamp (default to 0), amount or size of contract, current spot price, option strike, implied volatility, calculated premium and total cost including collaterals.\n    aOption.push(OptionLib.Option(_option.poType, _option.side, OptionLib.OptionStatus.Draft, _option.holder, _id, block.timestamp,  0, _option.tenor, 0,  0, _option.amount, _price, _option.strike, _option.spread, _vol, _premium, _collateral, _option.pool, _exposure));}\n\n  // function to stamp option as an active contract, only executable by Exchange contract as owner\n  // arguments: contract id and holder address\n  function stampActiveOption(uint256 _id, address _holder) external onlyRole(EXCHANGE){\n    require(_holder != address(0), \"0addr\"); \n\n    // update Option records\n    OptionLib.Option storage _option = aOption[_id];\n    _option.effectiveTime = block.timestamp;\n    _option.maturity = block.timestamp + _option.tenor;\n    _option.status = OptionLib.OptionStatus.Active;\n    \n    // update ownership and exposure records\n    address _poolAddress = _option.pool;\n    mUnderCollateral[_poolAddress] += _option.getUnderCollateral();\n    mFundCollateral[_poolAddress] += _option.sellFundCollateral();\n    if(_option.poType == OptionLib.PayoffType.Call || _option.poType == OptionLib.PayoffType.CallSpread){\n      mExposureUp[_poolAddress] += _option.exposure;}\n    else{\n      mExposureDown[_poolAddress] += _option.exposure;}\n\n    mHolderAtiveOption[_poolAddress][_holder].add(_id);\n    mActiveOption[_poolAddress].add(_id);}\n\n  // function to stamp option as an expired contract, only executable by Exchange contract as owner\n  // arguments: contract id\n  function stampExpiredOption(uint256 _id)  external onlyRole(EXCHANGE){\n    // update Option records\n    OptionLib.Option storage _option = aOption[_id];\n    address _poolAddress = _option.pool;\n    address _holder = _option.holder;\n    mActiveOption[_poolAddress].remove(_id);\n    mHolderAtiveOption[_poolAddress][_holder].remove(_id);\n\n    mUnderCollateral[_poolAddress] -= Math.min(mUnderCollateral[_poolAddress], _option.getUnderCollateral());\n    mFundCollateral[_poolAddress] -= Math.min(mFundCollateral[_poolAddress], _option.sellFundCollateral());\n\n    if(_option.poType == OptionLib.PayoffType.Call || _option.poType == OptionLib.PayoffType.CallSpread){\n      mExposureUp[_poolAddress] -= _option.exposure;}\n    else{\n      mExposureDown[_poolAddress] -= _option.exposure;}\n   \n    _option.status = OptionLib.OptionStatus.Expired;\n    _option.exerciseTime = block.timestamp;}\n\n  // functions to get information of the option list -> ONLY USED in VIEW, gas cost unlimited\n  function getHolderOptions(address _pool, address _address) external view returns(uint256[] memory){\n    return mHolderAtiveOption[_pool][_address].values();}\n  function getOption(uint256 _id) external view returns(OptionLib.Option memory) {return aOption[_id];}\n  function getActiveOptionCount(address _poolAddress) public view returns(uint256) {return mActiveOption[_poolAddress].length();}\n  function getActiveOptions(address _poolAddress) external view returns(uint256[] memory) {return mActiveOption[_poolAddress].values();}\n\n  function getOptionInfo(uint256 _id) external view returns(OptionLib.OptionStatus, OptionLib.OptionSide, address, Pool) {\n    require(_id< aOption.length, '-ID');\n    return (aOption[_id].status, aOption[_id].side, aOption[_id].holder, Pool(aOption[_id].pool));}\n\n  // contract payoff of specified contract ID\n  function getContractPayoff(uint256 _id) external view returns(uint256 _payoff, uint256 _payback, uint256 _collateral){\n    Pool _pool = Pool(aOption[_id].pool);\n    VolatilityChain _volChain = _pool.marketMaker().getVolatilityChain();\n    return aOption[_id].calcPayoff(_volChain.queryPrice());}\n    \n  // check if any option contract is expiring\n  function anyOptionExpiring(address _poolAddress) external view returns(bool _isExpiring) {\n    _isExpiring = false;\n    uint256 _count = mActiveOption[_poolAddress].length();\n    for(uint256 i=0;i<_count;i++){\n      if(aOption[uint256(mActiveOption[_poolAddress].at(i))].isExpiring()){\n        _isExpiring = true;\n        break;}}}\n\n  // get the id of any expiring contract -> please only run it on view function as it has unlimited gas usage.\n  function getExpiringOptionId(address _poolAddress) external view returns(uint256 _id){\n    // uint256[] memory _id;\n    uint256 _count = mActiveOption[_poolAddress].length();\n    for(uint256 i=0;i<_count;i++){\n      uint256 _id_i = uint256(mActiveOption[_poolAddress].at(i));\n      if(aOption[_id_i].isExpiring()){\n        _id = _id_i;\n        break;}}}\n\n  function calcOptionCost(OptionLib.Option memory _option) external view returns(uint256 _premium, uint256 _collateral, uint256 _price, uint256 _annualisedVol, int256 _exposure){\n    _price = getPrice(_option);\n    (uint256 _volT, uint256 _maxExposure, uint256 _sqrt, uint256 _interest) = getOptionParams(_option);\n    \n    uint256 _impVol;\n    if(_option.poType == OptionLib.PayoffType.Call || _option.poType == OptionLib.PayoffType.CallSpread){\n      (_impVol, _exposure) = calcCallOptionCost(_option, _price, _volT, _maxExposure);\n    }\n    else{\n      (_impVol, _exposure) = calcPutOptionCost(_option, _price, _volT, _maxExposure);\n    }\n    _annualisedVol = _impVol.ethmul(_sqrt);\n    _premium = _option.calcPremium(_price, _impVol, _interest);\n    _collateral = _option.calcCollateral(_price, _premium);\n  }\n\n  function getPrice(OptionLib.Option memory _option) public view returns (uint256 _price){\n    Pool _pool = Pool(_option.pool);\n    return _pool.marketMaker().getVolatilityChain().queryPrice();\n  }\n\n  function getOptionParams(OptionLib.Option memory _option) public view returns(uint256 _vol, uint256 _maxExposure, uint256 _sqrt, uint256 _interest){\n    Pool _pool = Pool(_option.pool);\n    MarketMaker _market = _pool.marketMaker();\n    VolatilityChain _volChain = _market.getVolatilityChain();\n    return (_volChain.queryVol(_option.tenor), calcCapital(_pool, false, false), _volChain.getSqrtRatio(_option.tenor), _market.loanInterest());\n  }\n\n  function calcCallOptionCost(OptionLib.Option memory _option, uint256 _price, uint256 _volT, uint256 _maxExposure) public view returns(uint256 _impVol, int256 _exposureUp){\n    Pool _pool = Pool(_option.pool);\n    uint256 _exposureSigma = _pool.exposureSigma();\n    uint256 _capacityFactor = _pool.volCapacityFactor();\n    uint256 _priceUp = _price.ethmul(BASE + _volT.ethmul(_exposureSigma));\n    int256 _currentExposure = mExposureUp[_option.pool];\n    (_impVol, _exposureUp) = _option.quoteCallVol(_priceUp, _volT, _capacityFactor, _currentExposure , _maxExposure );  \n  }\n\n  function calcPutOptionCost(OptionLib.Option memory _option, uint256 _price, uint256 _volT, uint256 _maxExposure) public view returns(uint256 _impVol, int256 _exposureDown){\n    Pool _pool = Pool(_option.pool);\n    uint256 _exposureSigma = _pool.exposureSigma();\n    uint256 _capacityFactor = _pool.volCapacityFactor();\n    uint256 _priceDown = _price.ethdiv(BASE + _volT.ethmul(_exposureSigma));\n    int256 _currentExposure = mExposureDown[_option.pool];\n    (_impVol, _exposureDown) = _option.quotePutVol(_priceDown, _volT, _capacityFactor, _currentExposure, _maxExposure);  \n  }\n    \n  // functions related to capital calculation, addition and removals\n  // calculate capitals. Arguments: pool address, net for net capital (removing all collaterals and max exposures of option contracts) or gross (including all exposures in the underlying and funding tokens), average for average capital (total divided by number of Pool tokens) or gross (not divided by tokens)\n  function calcCapital(Pool _pool, bool _net, bool _average) public view returns(uint256){\n    MarketMaker _market = _pool.marketMaker();\n    VolatilityChain _volChain = _market.getVolatilityChain();\n    uint256 _price = _volChain.queryPrice();\n    uint256 _capital = _market.getGrossCapital(_price);\n\n    address _poolAddress = address(_pool);\n    uint256 _collateral = mUnderCollateral[_poolAddress].ethmul(_price) + mFundCollateral[_poolAddress];\n    _capital -= Math.min(_collateral, _capital);\n    \n\n    if(_net){ \n      uint256 _exposure = mExposureUp[_poolAddress].absmax(-mExposureDown[_poolAddress]).ethmul(_price);\n      _capital -= Math.min(_exposure, _capital);}\n\n    if(_average){ \n      uint256 _poolSupply = _pool.totalSupply();\n      if(_poolSupply > 0) {\n        _capital = _capital.ethdiv(_poolSupply); }\n      else if(_poolSupply == 0 && _capital == 0) {\n        _capital = BASE;}}\n    \n    return _capital;}\n}\n",
  "sourcePath": "/Users/mac/Documents/GitHub/moret/contracts/OptionVault.sol",
  "compiler": {
    "name": "solc",
    "version": "0.8.16+commit.07a7930e.Emscripten.clang"
  },
  "schemaVersion": "3.4.3",
  "updatedAt": "2022-11-12T21:18:39.864Z",
  "networkType": "ethereum",
  "devdoc": {
    "kind": "dev",
    "methods": {
      "getRoleAdmin(bytes32)": {
        "details": "Returns the admin role that controls `role`. See {grantRole} and {revokeRole}. To change a role's admin, use {_setRoleAdmin}."
      },
      "grantRole(bytes32,address)": {
        "details": "Grants `role` to `account`. If `account` had not been already granted `role`, emits a {RoleGranted} event. Requirements: - the caller must have ``role``'s admin role."
      },
      "hasRole(bytes32,address)": {
        "details": "Returns `true` if `account` has been granted `role`."
      },
      "renounceRole(bytes32,address)": {
        "details": "Revokes `role` from the calling account. Roles are often managed via {grantRole} and {revokeRole}: this function's purpose is to provide a mechanism for accounts to lose their privileges if they are compromised (such as when a trusted device is misplaced). If the calling account had been revoked `role`, emits a {RoleRevoked} event. Requirements: - the caller must be `account`."
      },
      "revokeRole(bytes32,address)": {
        "details": "Revokes `role` from `account`. If `account` had been granted `role`, emits a {RoleRevoked} event. Requirements: - the caller must have ``role``'s admin role."
      },
      "supportsInterface(bytes4)": {
        "details": "See {IERC165-supportsInterface}."
      }
    },
    "version": 1
  },
  "userdoc": {
    "kind": "user",
    "methods": {},
    "version": 1
  }
}