{
  "contractName": "OptionVault",
  "abi": [
    {
      "inputs": [],
      "stateMutability": "nonpayable",
      "type": "constructor"
    },
    {
      "anonymous": false,
      "inputs": [
        {
          "indexed": true,
          "internalType": "address",
          "name": "_holder",
          "type": "address"
        },
        {
          "indexed": true,
          "internalType": "address",
          "name": "_pool",
          "type": "address"
        },
        {
          "indexed": false,
          "internalType": "uint256",
          "name": "_id",
          "type": "uint256"
        },
        {
          "indexed": false,
          "internalType": "uint256",
          "name": "_payoff",
          "type": "uint256"
        },
        {
          "indexed": false,
          "internalType": "address",
          "name": "_bot",
          "type": "address"
        }
      ],
      "name": "Expire",
      "type": "event"
    },
    {
      "anonymous": false,
      "inputs": [
        {
          "indexed": true,
          "internalType": "address",
          "name": "_hedger",
          "type": "address"
        },
        {
          "indexed": true,
          "internalType": "address",
          "name": "_market",
          "type": "address"
        },
        {
          "indexed": false,
          "internalType": "bool",
          "name": "success",
          "type": "bool"
        },
        {
          "indexed": false,
          "internalType": "bytes",
          "name": "data",
          "type": "bytes"
        }
      ],
      "name": "HedgeResponse",
      "type": "event"
    },
    {
      "anonymous": false,
      "inputs": [
        {
          "indexed": true,
          "internalType": "address",
          "name": "_hedger",
          "type": "address"
        },
        {
          "indexed": true,
          "internalType": "address",
          "name": "_market",
          "type": "address"
        },
        {
          "indexed": false,
          "internalType": "uint256[]",
          "name": "amounts",
          "type": "uint256[]"
        }
      ],
      "name": "HedgeSwapResponse",
      "type": "event"
    },
    {
      "anonymous": false,
      "inputs": [
        {
          "indexed": false,
          "internalType": "address",
          "name": "_newBot",
          "type": "address"
        }
      ],
      "name": "ResetBotAddress",
      "type": "event"
    },
    {
      "anonymous": false,
      "inputs": [
        {
          "indexed": true,
          "internalType": "uint256",
          "name": "_parameterId",
          "type": "uint256"
        },
        {
          "indexed": false,
          "internalType": "uint256",
          "name": "_parameter",
          "type": "uint256"
        }
      ],
      "name": "ResetParameter",
      "type": "event"
    },
    {
      "anonymous": false,
      "inputs": [
        {
          "indexed": true,
          "internalType": "bytes32",
          "name": "role",
          "type": "bytes32"
        },
        {
          "indexed": true,
          "internalType": "bytes32",
          "name": "previousAdminRole",
          "type": "bytes32"
        },
        {
          "indexed": true,
          "internalType": "bytes32",
          "name": "newAdminRole",
          "type": "bytes32"
        }
      ],
      "name": "RoleAdminChanged",
      "type": "event"
    },
    {
      "anonymous": false,
      "inputs": [
        {
          "indexed": true,
          "internalType": "bytes32",
          "name": "role",
          "type": "bytes32"
        },
        {
          "indexed": true,
          "internalType": "address",
          "name": "account",
          "type": "address"
        },
        {
          "indexed": true,
          "internalType": "address",
          "name": "sender",
          "type": "address"
        }
      ],
      "name": "RoleGranted",
      "type": "event"
    },
    {
      "anonymous": false,
      "inputs": [
        {
          "indexed": true,
          "internalType": "bytes32",
          "name": "role",
          "type": "bytes32"
        },
        {
          "indexed": true,
          "internalType": "address",
          "name": "account",
          "type": "address"
        },
        {
          "indexed": true,
          "internalType": "address",
          "name": "sender",
          "type": "address"
        }
      ],
      "name": "RoleRevoked",
      "type": "event"
    },
    {
      "anonymous": false,
      "inputs": [
        {
          "indexed": true,
          "internalType": "address",
          "name": "_purchaser",
          "type": "address"
        },
        {
          "indexed": true,
          "internalType": "address",
          "name": "_pool",
          "type": "address"
        },
        {
          "indexed": false,
          "internalType": "uint256",
          "name": "_cost",
          "type": "uint256"
        },
        {
          "indexed": false,
          "internalType": "uint256",
          "name": "_volAmount",
          "type": "uint256"
        }
      ],
      "name": "TradeVolatility",
      "type": "event"
    },
    {
      "anonymous": false,
      "inputs": [
        {
          "indexed": true,
          "internalType": "address",
          "name": "_holder",
          "type": "address"
        },
        {
          "indexed": true,
          "internalType": "address",
          "name": "_pool",
          "type": "address"
        },
        {
          "indexed": false,
          "internalType": "uint256",
          "name": "_id",
          "type": "uint256"
        },
        {
          "indexed": false,
          "internalType": "uint256",
          "name": "_payoff",
          "type": "uint256"
        }
      ],
      "name": "Unwind",
      "type": "event"
    },
    {
      "inputs": [],
      "name": "DEFAULT_ADMIN_ROLE",
      "outputs": [
        {
          "internalType": "bytes32",
          "name": "",
          "type": "bytes32"
        }
      ],
      "stateMutability": "view",
      "type": "function",
      "constant": true
    },
    {
      "inputs": [],
      "name": "EXCHANGE",
      "outputs": [
        {
          "internalType": "bytes32",
          "name": "",
          "type": "bytes32"
        }
      ],
      "stateMutability": "view",
      "type": "function",
      "constant": true
    },
    {
      "inputs": [
        {
          "internalType": "bytes32",
          "name": "role",
          "type": "bytes32"
        }
      ],
      "name": "getRoleAdmin",
      "outputs": [
        {
          "internalType": "bytes32",
          "name": "",
          "type": "bytes32"
        }
      ],
      "stateMutability": "view",
      "type": "function",
      "constant": true
    },
    {
      "inputs": [
        {
          "internalType": "bytes32",
          "name": "role",
          "type": "bytes32"
        },
        {
          "internalType": "address",
          "name": "account",
          "type": "address"
        }
      ],
      "name": "grantRole",
      "outputs": [],
      "stateMutability": "nonpayable",
      "type": "function"
    },
    {
      "inputs": [
        {
          "internalType": "bytes32",
          "name": "role",
          "type": "bytes32"
        },
        {
          "internalType": "address",
          "name": "account",
          "type": "address"
        }
      ],
      "name": "hasRole",
      "outputs": [
        {
          "internalType": "bool",
          "name": "",
          "type": "bool"
        }
      ],
      "stateMutability": "view",
      "type": "function",
      "constant": true
    },
    {
      "inputs": [
        {
          "internalType": "address",
          "name": "",
          "type": "address"
        }
      ],
      "name": "mExposureDown",
      "outputs": [
        {
          "internalType": "int256",
          "name": "",
          "type": "int256"
        }
      ],
      "stateMutability": "view",
      "type": "function",
      "constant": true
    },
    {
      "inputs": [
        {
          "internalType": "address",
          "name": "",
          "type": "address"
        }
      ],
      "name": "mExposureUp",
      "outputs": [
        {
          "internalType": "int256",
          "name": "",
          "type": "int256"
        }
      ],
      "stateMutability": "view",
      "type": "function",
      "constant": true
    },
    {
      "inputs": [
        {
          "internalType": "address",
          "name": "",
          "type": "address"
        }
      ],
      "name": "mFundCollateral",
      "outputs": [
        {
          "internalType": "uint256",
          "name": "",
          "type": "uint256"
        }
      ],
      "stateMutability": "view",
      "type": "function",
      "constant": true
    },
    {
      "inputs": [
        {
          "internalType": "address",
          "name": "",
          "type": "address"
        }
      ],
      "name": "mShortPremiums",
      "outputs": [
        {
          "internalType": "uint256",
          "name": "",
          "type": "uint256"
        }
      ],
      "stateMutability": "view",
      "type": "function",
      "constant": true
    },
    {
      "inputs": [
        {
          "internalType": "address",
          "name": "",
          "type": "address"
        }
      ],
      "name": "mUnderCollateral",
      "outputs": [
        {
          "internalType": "uint256",
          "name": "",
          "type": "uint256"
        }
      ],
      "stateMutability": "view",
      "type": "function",
      "constant": true
    },
    {
      "inputs": [
        {
          "internalType": "bytes32",
          "name": "role",
          "type": "bytes32"
        },
        {
          "internalType": "address",
          "name": "account",
          "type": "address"
        }
      ],
      "name": "renounceRole",
      "outputs": [],
      "stateMutability": "nonpayable",
      "type": "function"
    },
    {
      "inputs": [
        {
          "internalType": "bytes32",
          "name": "role",
          "type": "bytes32"
        },
        {
          "internalType": "address",
          "name": "account",
          "type": "address"
        }
      ],
      "name": "revokeRole",
      "outputs": [],
      "stateMutability": "nonpayable",
      "type": "function"
    },
    {
      "inputs": [
        {
          "internalType": "bytes4",
          "name": "interfaceId",
          "type": "bytes4"
        }
      ],
      "name": "supportsInterface",
      "outputs": [
        {
          "internalType": "bool",
          "name": "",
          "type": "bool"
        }
      ],
      "stateMutability": "view",
      "type": "function",
      "constant": true
    },
    {
      "inputs": [
        {
          "internalType": "address",
          "name": "_pool",
          "type": "address"
        },
        {
          "internalType": "address",
          "name": "_address",
          "type": "address"
        }
      ],
      "name": "getHolderOptions",
      "outputs": [
        {
          "internalType": "uint256[]",
          "name": "",
          "type": "uint256[]"
        }
      ],
      "stateMutability": "view",
      "type": "function",
      "constant": true
    },
    {
      "inputs": [
        {
          "internalType": "uint256",
          "name": "_id",
          "type": "uint256"
        }
      ],
      "name": "getOption",
      "outputs": [
        {
          "components": [
            {
              "internalType": "enum OptionLib.PayoffType",
              "name": "poType",
              "type": "uint8"
            },
            {
              "internalType": "enum OptionLib.OptionSide",
              "name": "side",
              "type": "uint8"
            },
            {
              "internalType": "enum OptionLib.OptionStatus",
              "name": "status",
              "type": "uint8"
            },
            {
              "internalType": "address",
              "name": "holder",
              "type": "address"
            },
            {
              "internalType": "uint256",
              "name": "id",
              "type": "uint256"
            },
            {
              "internalType": "uint256",
              "name": "createTime",
              "type": "uint256"
            },
            {
              "internalType": "uint256",
              "name": "effectiveTime",
              "type": "uint256"
            },
            {
              "internalType": "uint256",
              "name": "tenor",
              "type": "uint256"
            },
            {
              "internalType": "uint256",
              "name": "maturity",
              "type": "uint256"
            },
            {
              "internalType": "uint256",
              "name": "exerciseTime",
              "type": "uint256"
            },
            {
              "internalType": "uint256",
              "name": "amount",
              "type": "uint256"
            },
            {
              "internalType": "uint256",
              "name": "spot",
              "type": "uint256"
            },
            {
              "internalType": "uint256",
              "name": "strike",
              "type": "uint256"
            },
            {
              "internalType": "uint256",
              "name": "spread",
              "type": "uint256"
            },
            {
              "internalType": "uint256",
              "name": "volatility",
              "type": "uint256"
            },
            {
              "internalType": "uint256",
              "name": "premium",
              "type": "uint256"
            },
            {
              "internalType": "uint256",
              "name": "cost",
              "type": "uint256"
            },
            {
              "internalType": "address",
              "name": "pool",
              "type": "address"
            },
            {
              "internalType": "int256",
              "name": "exposure",
              "type": "int256"
            },
            {
              "internalType": "uint256",
              "name": "fee",
              "type": "uint256"
            }
          ],
          "internalType": "struct OptionLib.Option",
          "name": "",
          "type": "tuple"
        }
      ],
      "stateMutability": "view",
      "type": "function",
      "constant": true
    },
    {
      "inputs": [
        {
          "internalType": "address",
          "name": "_poolAddress",
          "type": "address"
        }
      ],
      "name": "getActiveOptionCount",
      "outputs": [
        {
          "internalType": "uint256",
          "name": "",
          "type": "uint256"
        }
      ],
      "stateMutability": "view",
      "type": "function",
      "constant": true
    },
    {
      "inputs": [
        {
          "internalType": "address",
          "name": "_poolAddress",
          "type": "address"
        }
      ],
      "name": "getActiveOptions",
      "outputs": [
        {
          "internalType": "uint256[]",
          "name": "",
          "type": "uint256[]"
        }
      ],
      "stateMutability": "view",
      "type": "function",
      "constant": true
    },
    {
      "inputs": [
        {
          "internalType": "uint256",
          "name": "_id",
          "type": "uint256"
        }
      ],
      "name": "getOptionInfo",
      "outputs": [
        {
          "internalType": "enum OptionLib.OptionStatus",
          "name": "",
          "type": "uint8"
        },
        {
          "internalType": "uint256",
          "name": "",
          "type": "uint256"
        },
        {
          "internalType": "address",
          "name": "",
          "type": "address"
        },
        {
          "internalType": "contract Pool",
          "name": "",
          "type": "address"
        }
      ],
      "stateMutability": "view",
      "type": "function",
      "constant": true
    },
    {
      "inputs": [
        {
          "components": [
            {
              "internalType": "enum OptionLib.PayoffType",
              "name": "poType",
              "type": "uint8"
            },
            {
              "internalType": "enum OptionLib.OptionSide",
              "name": "side",
              "type": "uint8"
            },
            {
              "internalType": "enum OptionLib.OptionStatus",
              "name": "status",
              "type": "uint8"
            },
            {
              "internalType": "address",
              "name": "holder",
              "type": "address"
            },
            {
              "internalType": "uint256",
              "name": "id",
              "type": "uint256"
            },
            {
              "internalType": "uint256",
              "name": "createTime",
              "type": "uint256"
            },
            {
              "internalType": "uint256",
              "name": "effectiveTime",
              "type": "uint256"
            },
            {
              "internalType": "uint256",
              "name": "tenor",
              "type": "uint256"
            },
            {
              "internalType": "uint256",
              "name": "maturity",
              "type": "uint256"
            },
            {
              "internalType": "uint256",
              "name": "exerciseTime",
              "type": "uint256"
            },
            {
              "internalType": "uint256",
              "name": "amount",
              "type": "uint256"
            },
            {
              "internalType": "uint256",
              "name": "spot",
              "type": "uint256"
            },
            {
              "internalType": "uint256",
              "name": "strike",
              "type": "uint256"
            },
            {
              "internalType": "uint256",
              "name": "spread",
              "type": "uint256"
            },
            {
              "internalType": "uint256",
              "name": "volatility",
              "type": "uint256"
            },
            {
              "internalType": "uint256",
              "name": "premium",
              "type": "uint256"
            },
            {
              "internalType": "uint256",
              "name": "cost",
              "type": "uint256"
            },
            {
              "internalType": "address",
              "name": "pool",
              "type": "address"
            },
            {
              "internalType": "int256",
              "name": "exposure",
              "type": "int256"
            },
            {
              "internalType": "uint256",
              "name": "fee",
              "type": "uint256"
            }
          ],
          "internalType": "struct OptionLib.Option",
          "name": "_option",
          "type": "tuple"
        },
        {
          "internalType": "uint256",
          "name": "_premium",
          "type": "uint256"
        },
        {
          "internalType": "uint256",
          "name": "_collateral",
          "type": "uint256"
        },
        {
          "internalType": "uint256",
          "name": "_price",
          "type": "uint256"
        },
        {
          "internalType": "uint256",
          "name": "_vol",
          "type": "uint256"
        },
        {
          "internalType": "uint256",
          "name": "_fee",
          "type": "uint256"
        }
      ],
      "name": "addOption",
      "outputs": [
        {
          "internalType": "uint256",
          "name": "_id",
          "type": "uint256"
        }
      ],
      "stateMutability": "nonpayable",
      "type": "function"
    },
    {
      "inputs": [
        {
          "internalType": "uint256",
          "name": "_id",
          "type": "uint256"
        },
        {
          "internalType": "address",
          "name": "_holder",
          "type": "address"
        }
      ],
      "name": "stampActiveOption",
      "outputs": [],
      "stateMutability": "nonpayable",
      "type": "function"
    },
    {
      "inputs": [
        {
          "internalType": "uint256",
          "name": "_id",
          "type": "uint256"
        }
      ],
      "name": "stampExpiredOption",
      "outputs": [],
      "stateMutability": "nonpayable",
      "type": "function"
    },
    {
      "inputs": [
        {
          "internalType": "uint256",
          "name": "_id",
          "type": "uint256"
        }
      ],
      "name": "getContractPayoff",
      "outputs": [
        {
          "internalType": "uint256",
          "name": "_toHolder",
          "type": "uint256"
        },
        {
          "internalType": "uint256",
          "name": "_toProtocol",
          "type": "uint256"
        },
        {
          "internalType": "uint256",
          "name": "_toExerciser",
          "type": "uint256"
        }
      ],
      "stateMutability": "view",
      "type": "function",
      "constant": true
    },
    {
      "inputs": [
        {
          "internalType": "uint256",
          "name": "_id",
          "type": "uint256"
        }
      ],
      "name": "calcOptionUnwindValue",
      "outputs": [
        {
          "internalType": "uint256",
          "name": "_toHolder",
          "type": "uint256"
        },
        {
          "internalType": "uint256",
          "name": "_toProtocol",
          "type": "uint256"
        }
      ],
      "stateMutability": "view",
      "type": "function",
      "constant": true
    },
    {
      "inputs": [
        {
          "components": [
            {
              "internalType": "enum OptionLib.PayoffType",
              "name": "poType",
              "type": "uint8"
            },
            {
              "internalType": "enum OptionLib.OptionSide",
              "name": "side",
              "type": "uint8"
            },
            {
              "internalType": "enum OptionLib.OptionStatus",
              "name": "status",
              "type": "uint8"
            },
            {
              "internalType": "address",
              "name": "holder",
              "type": "address"
            },
            {
              "internalType": "uint256",
              "name": "id",
              "type": "uint256"
            },
            {
              "internalType": "uint256",
              "name": "createTime",
              "type": "uint256"
            },
            {
              "internalType": "uint256",
              "name": "effectiveTime",
              "type": "uint256"
            },
            {
              "internalType": "uint256",
              "name": "tenor",
              "type": "uint256"
            },
            {
              "internalType": "uint256",
              "name": "maturity",
              "type": "uint256"
            },
            {
              "internalType": "uint256",
              "name": "exerciseTime",
              "type": "uint256"
            },
            {
              "internalType": "uint256",
              "name": "amount",
              "type": "uint256"
            },
            {
              "internalType": "uint256",
              "name": "spot",
              "type": "uint256"
            },
            {
              "internalType": "uint256",
              "name": "strike",
              "type": "uint256"
            },
            {
              "internalType": "uint256",
              "name": "spread",
              "type": "uint256"
            },
            {
              "internalType": "uint256",
              "name": "volatility",
              "type": "uint256"
            },
            {
              "internalType": "uint256",
              "name": "premium",
              "type": "uint256"
            },
            {
              "internalType": "uint256",
              "name": "cost",
              "type": "uint256"
            },
            {
              "internalType": "address",
              "name": "pool",
              "type": "address"
            },
            {
              "internalType": "int256",
              "name": "exposure",
              "type": "int256"
            },
            {
              "internalType": "uint256",
              "name": "fee",
              "type": "uint256"
            }
          ],
          "internalType": "struct OptionLib.Option",
          "name": "_option",
          "type": "tuple"
        }
      ],
      "name": "calcOptionCost",
      "outputs": [
        {
          "internalType": "uint256",
          "name": "_premium",
          "type": "uint256"
        },
        {
          "internalType": "uint256",
          "name": "_collateral",
          "type": "uint256"
        },
        {
          "internalType": "uint256",
          "name": "_price",
          "type": "uint256"
        },
        {
          "internalType": "uint256",
          "name": "_annualisedVol",
          "type": "uint256"
        },
        {
          "internalType": "uint256",
          "name": "_fee",
          "type": "uint256"
        }
      ],
      "stateMutability": "view",
      "type": "function",
      "constant": true
    },
    {
      "inputs": [
        {
          "components": [
            {
              "internalType": "enum OptionLib.PayoffType",
              "name": "poType",
              "type": "uint8"
            },
            {
              "internalType": "enum OptionLib.OptionSide",
              "name": "side",
              "type": "uint8"
            },
            {
              "internalType": "enum OptionLib.OptionStatus",
              "name": "status",
              "type": "uint8"
            },
            {
              "internalType": "address",
              "name": "holder",
              "type": "address"
            },
            {
              "internalType": "uint256",
              "name": "id",
              "type": "uint256"
            },
            {
              "internalType": "uint256",
              "name": "createTime",
              "type": "uint256"
            },
            {
              "internalType": "uint256",
              "name": "effectiveTime",
              "type": "uint256"
            },
            {
              "internalType": "uint256",
              "name": "tenor",
              "type": "uint256"
            },
            {
              "internalType": "uint256",
              "name": "maturity",
              "type": "uint256"
            },
            {
              "internalType": "uint256",
              "name": "exerciseTime",
              "type": "uint256"
            },
            {
              "internalType": "uint256",
              "name": "amount",
              "type": "uint256"
            },
            {
              "internalType": "uint256",
              "name": "spot",
              "type": "uint256"
            },
            {
              "internalType": "uint256",
              "name": "strike",
              "type": "uint256"
            },
            {
              "internalType": "uint256",
              "name": "spread",
              "type": "uint256"
            },
            {
              "internalType": "uint256",
              "name": "volatility",
              "type": "uint256"
            },
            {
              "internalType": "uint256",
              "name": "premium",
              "type": "uint256"
            },
            {
              "internalType": "uint256",
              "name": "cost",
              "type": "uint256"
            },
            {
              "internalType": "address",
              "name": "pool",
              "type": "address"
            },
            {
              "internalType": "int256",
              "name": "exposure",
              "type": "int256"
            },
            {
              "internalType": "uint256",
              "name": "fee",
              "type": "uint256"
            }
          ],
          "internalType": "struct OptionLib.Option",
          "name": "_option",
          "type": "tuple"
        },
        {
          "internalType": "uint256",
          "name": "_price",
          "type": "uint256"
        },
        {
          "internalType": "uint256",
          "name": "_volT",
          "type": "uint256"
        },
        {
          "internalType": "uint256",
          "name": "_maxExposure",
          "type": "uint256"
        }
      ],
      "name": "calcOptionExposure",
      "outputs": [
        {
          "internalType": "uint256",
          "name": "",
          "type": "uint256"
        },
        {
          "internalType": "int256",
          "name": "",
          "type": "int256"
        }
      ],
      "stateMutability": "view",
      "type": "function",
      "constant": true
    },
    {
      "inputs": [
        {
          "internalType": "contract Pool",
          "name": "_pool",
          "type": "address"
        },
        {
          "internalType": "bool",
          "name": "_net",
          "type": "bool"
        },
        {
          "internalType": "bool",
          "name": "_average",
          "type": "bool"
        }
      ],
      "name": "calcCapital",
      "outputs": [
        {
          "internalType": "uint256",
          "name": "",
          "type": "uint256"
        }
      ],
      "stateMutability": "view",
      "type": "function",
      "constant": true
    }
  ],
  "bytecode": "0x60806040523480156200001157600080fd5b50620000276000801b336200002d60201b60201c565b620001a6565b6200003f82826200004360201b60201c565b5050565b6200005582826200013460201b60201c565b6200013057600160008084815260200190815260200160002060000160008373ffffffffffffffffffffffffffffffffffffffff1673ffffffffffffffffffffffffffffffffffffffff16815260200190815260200160002060006101000a81548160ff021916908315150217905550620000d56200019e60201b60201c565b73ffffffffffffffffffffffffffffffffffffffff168173ffffffffffffffffffffffffffffffffffffffff16837f2f8788117e7eff1d82e926ec794901d17c78024a50270940304540a733656f0d60405160405180910390a45b5050565b600080600084815260200190815260200160002060000160008373ffffffffffffffffffffffffffffffffffffffff1673ffffffffffffffffffffffffffffffffffffffff16815260200190815260200160002060009054906101000a900460ff16905092915050565b600033905090565b615b9f80620001b66000396000f3fe608060405234801561001057600080fd5b506004361061018e5760003560e01c80637be795e0116100de578063b50e44b811610097578063e04c3a7211610071578063e04c3a7214610533578063efb725af14610563578063fba0489114610593578063fc9d80e0146105c35761018e565b8063b50e44b8146104c9578063cf5b7f97146104e7578063d547741f146105175761018e565b80637be795e0146103b557806385ae10e6146103e55780638ac794fb1461041757806391d148541461044b578063a217fddf1461047b578063b058ac6e146104995761018e565b806334a8c71c1161014b578063408ad4bb11610125578063408ad4bb146103095780635c273c2f14610339578063637baf60146103695780636d0252c8146103855761018e565b806334a8c71c1461028b57806335080705146102bc57806336568abe146102ed5761018e565b806301ffc9a714610193578063132a0f1b146101c35780631ce5e9a6146101f3578063248a9ca31461022357806324b4110e146102535780632f2ff15d1461026f575b600080fd5b6101ad60048036038101906101a89190614213565b6105f6565b6040516101ba919061425b565b60405180910390f35b6101dd60048036038101906101d891906142d4565b610670565b6040516101ea919061431a565b60405180910390f35b61020d60048036038101906102089190614361565b6106c0565b60405161021a919061466a565b60405180910390f35b61023d600480360381019061023891906146bc565b6108f0565b60405161024a91906146f8565b60405180910390f35b61026d60048036038101906102689190614713565b61090f565b005b61028960048036038101906102849190614753565b610ea1565b005b6102a560048036038101906102a09190614a91565b610ec2565b6040516102b3929190614b0b565b60405180910390f35b6102d660048036038101906102d19190614361565b6113ee565b6040516102e4929190614b34565b60405180910390f35b61030760048036038101906103029190614753565b611646565b005b610323600480360381019061031e91906142d4565b6116c9565b6040516103309190614b5d565b60405180910390f35b610353600480360381019061034e9190614be2565b6116e1565b604051610360919061431a565b60405180910390f35b610383600480360381019061037e9190614361565b611d1a565b005b61039f600480360381019061039a9190614c35565b612385565b6040516103ac919061431a565b60405180910390f35b6103cf60048036038101906103ca9190614cc8565b612906565b6040516103dc9190614db7565b60405180910390f35b6103ff60048036038101906103fa9190614361565b612994565b60405161040e93929190614dd9565b60405180910390f35b610431600480360381019061042c9190614e10565b612eaf565b604051610442959493929190614e3e565b60405180910390f35b61046560048036038101906104609190614753565b613639565b604051610472919061425b565b60405180910390f35b6104836136a3565b60405161049091906146f8565b60405180910390f35b6104b360048036038101906104ae91906142d4565b6136aa565b6040516104c0919061431a565b60405180910390f35b6104d16136c2565b6040516104de91906146f8565b60405180910390f35b61050160048036038101906104fc91906142d4565b6136e6565b60405161050e919061431a565b60405180910390f35b610531600480360381019061052c9190614753565b6136fe565b005b61054d600480360381019061054891906142d4565b61371f565b60405161055a9190614b5d565b60405180910390f35b61057d600480360381019061057891906142d4565b613737565b60405161058a9190614db7565b60405180910390f35b6105ad60048036038101906105a891906142d4565b613787565b6040516105ba919061431a565b60405180910390f35b6105dd60048036038101906105d89190614361565b61379f565b6040516105ed9493929190614f0e565b60405180910390f35b60007f7965db0b000000000000000000000000000000000000000000000000000000007bffffffffffffffffffffffffffffffffffffffffffffffffffffffff1916827bffffffffffffffffffffffffffffffffffffffffffffffffffffffff191614806106695750610668826138e0565b5b9050919050565b60006106b9600360008473ffffffffffffffffffffffffffffffffffffffff1673ffffffffffffffffffffffffffffffffffffffff16815260200190815260200160002061394a565b9050919050565b6106c86140b1565b600182815481106106dc576106db614f53565b5b9060005260206000209060110201604051806102800160405290816000820160009054906101000a900460ff16600381111561071b5761071a61438e565b5b600381111561072d5761072c61438e565b5b81526020016000820160019054906101000a900460ff1660018111156107565761075561438e565b5b60018111156107685761076761438e565b5b81526020016000820160029054906101000a900460ff1660038111156107915761079061438e565b5b60038111156107a3576107a261438e565b5b81526020016000820160039054906101000a900473ffffffffffffffffffffffffffffffffffffffff1673ffffffffffffffffffffffffffffffffffffffff1673ffffffffffffffffffffffffffffffffffffffff168152602001600182015481526020016002820154815260200160038201548152602001600482015481526020016005820154815260200160068201548152602001600782015481526020016008820154815260200160098201548152602001600a8201548152602001600b8201548152602001600c8201548152602001600d8201548152602001600e820160009054906101000a900473ffffffffffffffffffffffffffffffffffffffff1673ffffffffffffffffffffffffffffffffffffffff1673ffffffffffffffffffffffffffffffffffffffff168152602001600f82015481526020016010820154815250509050919050565b6000806000838152602001908152602001600020600101549050919050565b7f10b261d3bc7a74f38949f9212b0336103474898eda034c06ae0a3e478dc0e4a56109398161395f565b600073ffffffffffffffffffffffffffffffffffffffff168273ffffffffffffffffffffffffffffffffffffffff16036109a8576040517f08c379a000000000000000000000000000000000000000000000000000000000815260040161099f90614fdf565b60405180910390fd5b6000600184815481106109be576109bd614f53565b5b906000526020600020906011020190504281600301819055508060040154426109e7919061502e565b816005018190555060018160000160026101000a81548160ff02191690836003811115610a1757610a1661438e565b5b0217905550600081600e0160009054906101000a900473ffffffffffffffffffffffffffffffffffffffff1690508173__OptionLib_____________________________63d619502790916040518263ffffffff1660e01b8152600401610a7e9190615069565b602060405180830381865af4158015610a9b573d6000803e3d6000fd5b505050506040513d601f19601f82011682018060405250810190610abf9190615099565b600460008373ffffffffffffffffffffffffffffffffffffffff1673ffffffffffffffffffffffffffffffffffffffff1681526020019081526020016000206000828254610b0d919061502e565b925050819055508173__OptionLib_____________________________63b4abd93a90916040518263ffffffff1660e01b8152600401610b4d9190615069565b602060405180830381865af4158015610b6a573d6000803e3d6000fd5b505050506040513d601f19601f82011682018060405250810190610b8e9190615099565b600560008373ffffffffffffffffffffffffffffffffffffffff1673ffffffffffffffffffffffffffffffffffffffff1681526020019081526020016000206000828254610bdc919061502e565b92505081905550600180811115610bf657610bf561438e565b5b8260000160019054906101000a900460ff166001811115610c1a57610c1961438e565b5b14610c26576000610c2c565b81600c01545b600660008373ffffffffffffffffffffffffffffffffffffffff1673ffffffffffffffffffffffffffffffffffffffff1681526020019081526020016000206000828254610c7a919061502e565b9250508190555060006003811115610c9557610c9461438e565b5b8260000160009054906101000a900460ff166003811115610cb957610cb861438e565b5b1480610cfa575060026003811115610cd457610cd361438e565b5b8260000160009054906101000a900460ff166003811115610cf857610cf761438e565b5b145b15610d5e5781600f0154600760008373ffffffffffffffffffffffffffffffffffffffff1673ffffffffffffffffffffffffffffffffffffffff1681526020019081526020016000206000828254610d5291906150c6565b92505081905550610db9565b81600f0154600860008373ffffffffffffffffffffffffffffffffffffffff1673ffffffffffffffffffffffffffffffffffffffff1681526020019081526020016000206000828254610db191906150c6565b925050819055505b610e4785600260008473ffffffffffffffffffffffffffffffffffffffff1673ffffffffffffffffffffffffffffffffffffffff16815260200190815260200160002060008773ffffffffffffffffffffffffffffffffffffffff1673ffffffffffffffffffffffffffffffffffffffff16815260200190815260200160002061397390919063ffffffff16565b50610e9985600360008473ffffffffffffffffffffffffffffffffffffffff1673ffffffffffffffffffffffffffffffffffffffff16815260200190815260200160002061397390919063ffffffff16565b505050505050565b610eaa826108f0565b610eb38161395f565b610ebd838361398d565b505050565b6000806000866102200151905060008173ffffffffffffffffffffffffffffffffffffffff1663e0548bd86040518163ffffffff1660e01b8152600401602060405180830381865afa158015610f1c573d6000803e3d6000fd5b505050506040513d601f19601f82011682018060405250810190610f409190615099565b905060008273ffffffffffffffffffffffffffffffffffffffff16630f9026186040518163ffffffff1660e01b8152600401602060405180830381865afa158015610f8f573d6000803e3d6000fd5b505050506040513d601f19601f82011682018060405250810190610fb39190615099565b905060006003811115610fc957610fc861438e565b5b89600001516003811115610fe057610fdf61438e565b5b1480611014575060026003811115610ffb57610ffa61438e565b5b896000015160038111156110125761101161438e565b5b145b156112015760008873__MathLib_______________________________63fed4a0f390918a73__MathLib_______________________________63fed4a0f39091886040518363ffffffff1660e01b8152600401611073929190615119565b602060405180830381865af4158015611090573d6000803e3d6000fd5b505050506040513d601f19601f820116820180604052508101906110b49190615099565b670de0b6b3a76400006110c7919061502e565b6040518363ffffffff1660e01b81526004016110e4929190615119565b602060405180830381865af4158015611101573d6000803e3d6000fd5b505050506040513d601f19601f820116820180604052508101906111259190615099565b90506000600760008c610220015173ffffffffffffffffffffffffffffffffffffffff1673ffffffffffffffffffffffffffffffffffffffff1681526020019081526020016000205490508a73__OptionLib_____________________________63a47af6759091848c87868e6040518763ffffffff1660e01b81526004016111b396959493929190615349565b6040805180830381865af41580156111cf573d6000803e3d6000fd5b505050506040513d601f19601f820116820180604052508101906111f391906153c5565b9650965050505050506113e5565b60008873__MathLib_______________________________63de7f617090918a73__MathLib_______________________________63fed4a0f39091886040518363ffffffff1660e01b815260040161125b929190615119565b602060405180830381865af4158015611278573d6000803e3d6000fd5b505050506040513d601f19601f8201168201806040525081019061129c9190615099565b670de0b6b3a76400006112af919061502e565b6040518363ffffffff1660e01b81526004016112cc929190615119565b602060405180830381865af41580156112e9573d6000803e3d6000fd5b505050506040513d601f19601f8201168201806040525081019061130d9190615099565b90506000600860008c610220015173ffffffffffffffffffffffffffffffffffffffff1673ffffffffffffffffffffffffffffffffffffffff1681526020019081526020016000205490508a73__OptionLib_____________________________63e43aeed99091848c87868e6040518763ffffffff1660e01b815260040161139b96959493929190615349565b6040805180830381865af41580156113b7573d6000803e3d6000fd5b505050506040513d601f19601f820116820180604052508101906113db91906153c5565b9650965050505050505b94509492505050565b60008060006113fc846106c0565b9050600060018111156114125761141161438e565b5b816020015160018111156114295761142861438e565b5b14611435576000611438565b60015b8160200190600181111561144f5761144e61438e565b5b908160018111156114635761146261438e565b5b8152505060008061147383612eaf565b50509250509150600083610260015173__MathLib_______________________________63b3947c17909160008760c001511180156114ba57508660c00151876101000151115b6114c8578660e001516114f4565b6114f38760e001518860c001516114e4428b6101000151613a6d565b6114ee9190615405565b613a87565b5b8760e001516040518463ffffffff1660e01b815260040161151793929190615439565b602060405180830381865af4158015611534573d6000803e3d6000fd5b505050506040513d601f19601f820116820180604052508101906115589190615099565b90506000600181111561156e5761156d61438e565b5b846020015160018111156115855761158461438e565b5b14611590578261161a565b828473__OptionLib_____________________________63d8242549909185876040518463ffffffff1660e01b81526004016115ce93929190615470565b602060405180830381865af41580156115eb573d6000803e3d6000fd5b505050506040513d601f19601f8201168201806040525081019061160f9190615099565b6116199190615405565b5b9550808461026001518761162e919061502e565b6116389190615405565b955080945050505050915091565b61164e613aa0565b73ffffffffffffffffffffffffffffffffffffffff168173ffffffffffffffffffffffffffffffffffffffff16146116bb576040517f08c379a00000000000000000000000000000000000000000000000000000000081526004016116b29061551c565b60405180910390fd5b6116c58282613aa8565b5050565b60076020528060005260406000206000915090505481565b6000808473ffffffffffffffffffffffffffffffffffffffff16631f21f9af6040518163ffffffff1660e01b8152600401602060405180830381865afa15801561172f573d6000803e3d6000fd5b505050506040513d601f19601f82011682018060405250810190611753919061557a565b905060008173ffffffffffffffffffffffffffffffffffffffff1663c0a16f6a6040518163ffffffff1660e01b8152600401602060405180830381865afa1580156117a2573d6000803e3d6000fd5b505050506040513d601f19601f820116820180604052508101906117c691906155e5565b905060008173ffffffffffffffffffffffffffffffffffffffff1663b0667cf86040518163ffffffff1660e01b8152600401602060405180830381865afa158015611815573d6000803e3d6000fd5b505050506040513d601f19601f820116820180604052508101906118399190615099565b905060008373ffffffffffffffffffffffffffffffffffffffff1673__MarketLib_____________________________63e74207d69091846040518363ffffffff1660e01b815260040161188e929190615633565b602060405180830381865af41580156118ab573d6000803e3d6000fd5b505050506040513d601f19601f820116820180604052508101906118cf9190615099565b905060008890506000600560008373ffffffffffffffffffffffffffffffffffffffff1673ffffffffffffffffffffffffffffffffffffffff16815260200190815260200160002054600460008473ffffffffffffffffffffffffffffffffffffffff1673ffffffffffffffffffffffffffffffffffffffff1681526020019081526020016000205473__MathLib_______________________________63fed4a0f39091876040518363ffffffff1660e01b8152600401611992929190615119565b602060405180830381865af41580156119af573d6000803e3d6000fd5b505050506040513d601f19601f820116820180604052508101906119d39190615099565b6119dd919061502e565b9050600660008373ffffffffffffffffffffffffffffffffffffffff1673ffffffffffffffffffffffffffffffffffffffff16815260200190815260200160002054611a298285613a87565b84611a349190615405565b611a3e919061502e565b92508815611be1576000600760008473ffffffffffffffffffffffffffffffffffffffff1673ffffffffffffffffffffffffffffffffffffffff1681526020019081526020016000205473__MathLib_______________________________63806bcd4b9091600860008773ffffffffffffffffffffffffffffffffffffffff1673ffffffffffffffffffffffffffffffffffffffff16815260200190815260200160002054611aed9061565c565b6040518363ffffffff1660e01b8152600401611b0a9291906156a4565b602060405180830381865af4158015611b27573d6000803e3d6000fd5b505050506040513d601f19601f82011682018060405250810190611b4b9190615099565b73__MathLib_______________________________63fed4a0f39091876040518363ffffffff1660e01b8152600401611b85929190615119565b602060405180830381865af4158015611ba2573d6000803e3d6000fd5b505050506040513d601f19601f82011682018060405250810190611bc69190615099565b9050611bd28185613a87565b84611bdd9190615405565b9350505b8715611d0a5760008a73ffffffffffffffffffffffffffffffffffffffff166318160ddd6040518163ffffffff1660e01b8152600401602060405180830381865afa158015611c34573d6000803e3d6000fd5b505050506040513d601f19601f82011682018060405250810190611c589190615099565b90506000811115611ce6578373__MathLib_______________________________63de7f61709091836040518363ffffffff1660e01b8152600401611c9e929190615119565b602060405180830381865af4158015611cbb573d6000803e3d6000fd5b505050506040513d601f19601f82011682018060405250810190611cdf9190615099565b9350611d08565b600081148015611cf65750600084145b15611d0757670de0b6b3a764000093505b5b505b8296505050505050509392505050565b7f10b261d3bc7a74f38949f9212b0336103474898eda034c06ae0a3e478dc0e4a5611d448161395f565b600060018381548110611d5a57611d59614f53565b5b90600052602060002090601102019050600081600e0160009054906101000a900473ffffffffffffffffffffffffffffffffffffffff16905060008260000160039054906101000a900473ffffffffffffffffffffffffffffffffffffffff169050611e0d85600360008573ffffffffffffffffffffffffffffffffffffffff1673ffffffffffffffffffffffffffffffffffffffff168152602001908152602001600020613b8990919063ffffffff16565b50611e9c85600260008573ffffffffffffffffffffffffffffffffffffffff1673ffffffffffffffffffffffffffffffffffffffff16815260200190815260200160002060008473ffffffffffffffffffffffffffffffffffffffff1673ffffffffffffffffffffffffffffffffffffffff168152602001908152602001600020613b8990919063ffffffff16565b50611f5f600460008473ffffffffffffffffffffffffffffffffffffffff1673ffffffffffffffffffffffffffffffffffffffff168152602001908152602001600020548473__OptionLib_____________________________63d619502790916040518263ffffffff1660e01b8152600401611f199190615069565b602060405180830381865af4158015611f36573d6000803e3d6000fd5b505050506040513d601f19601f82011682018060405250810190611f5a9190615099565b613a87565b600460008473ffffffffffffffffffffffffffffffffffffffff1673ffffffffffffffffffffffffffffffffffffffff1681526020019081526020016000206000828254611fad9190615405565b92505081905550612076600560008473ffffffffffffffffffffffffffffffffffffffff1673ffffffffffffffffffffffffffffffffffffffff168152602001908152602001600020548473__OptionLib_____________________________63b4abd93a90916040518263ffffffff1660e01b81526004016120309190615069565b602060405180830381865af415801561204d573d6000803e3d6000fd5b505050506040513d601f19601f820116820180604052508101906120719190615099565b613a87565b600560008473ffffffffffffffffffffffffffffffffffffffff1673ffffffffffffffffffffffffffffffffffffffff16815260200190815260200160002060008282546120c49190615405565b9250508190555061215c600660008473ffffffffffffffffffffffffffffffffffffffff1673ffffffffffffffffffffffffffffffffffffffff168152602001908152602001600020546001808111156121215761212061438e565b5b8560000160019054906101000a900460ff1660018111156121455761214461438e565b5b14612151576000612157565b84600c01545b613a87565b600660008473ffffffffffffffffffffffffffffffffffffffff1673ffffffffffffffffffffffffffffffffffffffff16815260200190815260200160002060008282546121aa9190615405565b92505081905550600060038111156121c5576121c461438e565b5b8360000160009054906101000a900460ff1660038111156121e9576121e861438e565b5b148061222a5750600260038111156122045761220361438e565b5b8360000160009054906101000a900460ff1660038111156122285761222761438e565b5b145b1561228e5782600f0154600760008473ffffffffffffffffffffffffffffffffffffffff1673ffffffffffffffffffffffffffffffffffffffff168152602001908152602001600020600082825461228291906156cd565b925050819055506122e9565b82600f0154600860008473ffffffffffffffffffffffffffffffffffffffff1673ffffffffffffffffffffffffffffffffffffffff16815260200190815260200160002060008282546122e191906156cd565b925050819055505b8260000160039054906101000a900473ffffffffffffffffffffffffffffffffffffffff1673ffffffffffffffffffffffffffffffffffffffff163373ffffffffffffffffffffffffffffffffffffffff161461234757600361234a565b60025b8360000160026101000a81548160ff021916908360038111156123705761236f61438e565b5b02179055504283600601819055505050505050565b60007f10b261d3bc7a74f38949f9212b0336103474898eda034c06ae0a3e478dc0e4a56123b18161395f565b60008860e00151116123f8576040517f08c379a00000000000000000000000000000000000000000000000000000000081526004016123ef9061575c565b60405180910390fd5b60018054905091506000886102200151905060008173ffffffffffffffffffffffffffffffffffffffff16631f21f9af6040518163ffffffff1660e01b8152600401602060405180830381865afa158015612457573d6000803e3d6000fd5b505050506040513d601f19601f8201168201806040525081019061247b919061557a565b73ffffffffffffffffffffffffffffffffffffffff1663c0a16f6a6040518163ffffffff1660e01b8152600401602060405180830381865afa1580156124c5573d6000803e3d6000fd5b505050506040513d601f19601f820116820180604052508101906124e991906155e5565b905060006125fc8b898473ffffffffffffffffffffffffffffffffffffffff1663cfc2dc208f60e001516040518263ffffffff1660e01b815260040161252f919061431a565b602060405180830381865afa15801561254c573d6000803e3d6000fd5b505050506040513d601f19601f820116820180604052508101906125709190615099565b61257c876000806116e1565b73__MathLib_______________________________63de7f617090918e6040518363ffffffff1660e01b81526004016125b6929190615119565b602060405180830381865af41580156125d3573d6000803e3d6000fd5b505050506040513d601f19601f820116820180604052508101906125f79190615099565b610ec2565b91505060016040518061028001604052808d6000015160038111156126245761262361438e565b5b81526020018d6020015160018111156126405761263f61438e565b5b8152602001600060038111156126595761265861438e565b5b81526020018d6060015173ffffffffffffffffffffffffffffffffffffffff168152602001878152602001428152602001600081526020018d60e00151815260200160008152602001600081526020018d610140015181526020018a81526020018d610180015181526020018d6101a0015181526020018981526020018c81526020018b81526020018d610220015173ffffffffffffffffffffffffffffffffffffffff16815260200183815260200188815250908060018154018082558091505060019003906000526020600020906011020160009091909190915060008201518160000160006101000a81548160ff021916908360038111156127615761276061438e565b5b021790555060208201518160000160016101000a81548160ff021916908360018111156127915761279061438e565b5b021790555060408201518160000160026101000a81548160ff021916908360038111156127c1576127c061438e565b5b021790555060608201518160000160036101000a81548173ffffffffffffffffffffffffffffffffffffffff021916908373ffffffffffffffffffffffffffffffffffffffff1602179055506080820151816001015560a0820151816002015560c0820151816003015560e08201518160040155610100820151816005015561012082015181600601556101408201518160070155610160820151816008015561018082015181600901556101a082015181600a01556101c082015181600b01556101e082015181600c015561020082015181600d015561022082015181600e0160006101000a81548173ffffffffffffffffffffffffffffffffffffffff021916908373ffffffffffffffffffffffffffffffffffffffff16021790555061024082015181600f015561026082015181601001555050505050509695505050505050565b606061298c600260008573ffffffffffffffffffffffffffffffffffffffff1673ffffffffffffffffffffffffffffffffffffffff16815260200190815260200160002060008473ffffffffffffffffffffffffffffffffffffffff1673ffffffffffffffffffffffffffffffffffffffff168152602001908152602001600020613ba3565b905092915050565b600080600080600185815481106129ae576129ad614f53565b5b9060005260206000209060110201600e0160009054906101000a900473ffffffffffffffffffffffffffffffffffffffff16905060008173ffffffffffffffffffffffffffffffffffffffff16631f21f9af6040518163ffffffff1660e01b8152600401602060405180830381865afa158015612a2f573d6000803e3d6000fd5b505050506040513d601f19601f82011682018060405250810190612a53919061557a565b73ffffffffffffffffffffffffffffffffffffffff1663c0a16f6a6040518163ffffffff1660e01b8152600401602060405180830381865afa158015612a9d573d6000803e3d6000fd5b505050506040513d601f19601f82011682018060405250810190612ac191906155e5565b905060008173ffffffffffffffffffffffffffffffffffffffff1663b0667cf86040518163ffffffff1660e01b8152600401602060405180830381865afa158015612b10573d6000803e3d6000fd5b505050506040513d601f19601f82011682018060405250810190612b349190615099565b905060018781548110612b4a57612b49614f53565b5b906000526020600020906011020173__OptionLib_____________________________63357aa1df9091836040518363ffffffff1660e01b8152600401612b9292919061577c565b602060405180830381865af4158015612baf573d6000803e3d6000fd5b505050506040513d601f19601f82011682018060405250810190612bd39190615099565b955060018781548110612be957612be8614f53565b5b906000526020600020906011020160100154945060018781548110612c1157612c10614f53565b5b90600052602060002090601102016007015473__MathLib_______________________________63fed4a0f39091836040518363ffffffff1660e01b8152600401612c5d929190615119565b602060405180830381865af4158015612c7a573d6000803e3d6000fd5b505050506040513d601f19601f82011682018060405250810190612c9e9190615099565b73__MathLib_______________________________63b3947c17909160018a81548110612cce57612ccd614f53565b5b9060005260206000209060110201600401546301e133806040518463ffffffff1660e01b8152600401612d0393929190615439565b602060405180830381865af4158015612d20573d6000803e3d6000fd5b505050506040513d601f19601f82011682018060405250810190612d449190615099565b73__MathLib_______________________________63fed4a0f390918573ffffffffffffffffffffffffffffffffffffffff1663d1c699aa6040518163ffffffff1660e01b8152600401602060405180830381865afa158015612dab573d6000803e3d6000fd5b505050506040513d601f19601f82011682018060405250810190612dcf9190615099565b6040518363ffffffff1660e01b8152600401612dec929190615119565b602060405180830381865af4158015612e09573d6000803e3d6000fd5b505050506040513d601f19601f82011682018060405250810190612e2d9190615099565b935060006001811115612e4357612e4261438e565b5b60018881548110612e5757612e56614f53565b5b906000526020600020906011020160000160019054906101000a900460ff166001811115612e8857612e8761438e565b5b03612ea557612e978685613a87565b86612ea29190615405565b95505b5050509193909250565b600080600080600080866102200151905060008173ffffffffffffffffffffffffffffffffffffffff16631f21f9af6040518163ffffffff1660e01b8152600401602060405180830381865afa158015612f0d573d6000803e3d6000fd5b505050506040513d601f19601f82011682018060405250810190612f31919061557a565b905060008173ffffffffffffffffffffffffffffffffffffffff1663c0a16f6a6040518163ffffffff1660e01b8152600401602060405180830381865afa158015612f80573d6000803e3d6000fd5b505050506040513d601f19601f82011682018060405250810190612fa491906155e5565b90508073ffffffffffffffffffffffffffffffffffffffff1663b0667cf86040518163ffffffff1660e01b8152600401602060405180830381865afa158015612ff1573d6000803e3d6000fd5b505050506040513d601f19601f820116820180604052508101906130159190615099565b955060006131288a888473ffffffffffffffffffffffffffffffffffffffff1663cfc2dc208e60e001516040518263ffffffff1660e01b815260040161305b919061431a565b602060405180830381865afa158015613078573d6000803e3d6000fd5b505050506040513d601f19601f8201168201806040525081019061309c9190615099565b6130a8886000806116e1565b73__MathLib_______________________________63de7f617090918d6040518363ffffffff1660e01b81526004016130e2929190615119565b602060405180830381865af41580156130ff573d6000803e3d6000fd5b505050506040513d601f19601f820116820180604052508101906131239190615099565b610ec2565b5090508073__MathLib_______________________________63fed4a0f390918473ffffffffffffffffffffffffffffffffffffffff1663430417f78e60e001516040518263ffffffff1660e01b8152600401613185919061431a565b602060405180830381865afa1580156131a2573d6000803e3d6000fd5b505050506040513d601f19601f820116820180604052508101906131c69190615099565b6040518363ffffffff1660e01b81526004016131e3929190615119565b602060405180830381865af4158015613200573d6000803e3d6000fd5b505050506040513d601f19601f820116820180604052508101906132249190615099565b95508973__OptionLib_____________________________638399d60c909189848773ffffffffffffffffffffffffffffffffffffffff1663a7292ea46040518163ffffffff1660e01b8152600401602060405180830381865afa158015613290573d6000803e3d6000fd5b505050506040513d601f19601f820116820180604052508101906132b49190615099565b6040518563ffffffff1660e01b81526004016132d394939291906157a5565b602060405180830381865af41580156132f0573d6000803e3d6000fd5b505050506040513d601f19601f820116820180604052508101906133149190615099565b98506001808111156133295761332861438e565b5b8a6020015160018111156133405761333f61438e565b5b1461334c5760006133cb565b8973__OptionLib_____________________________63d82425499091898c6040518463ffffffff1660e01b815260040161338993929190615470565b602060405180830381865af41580156133a6573d6000803e3d6000fd5b505050506040513d601f19601f820116820180604052508101906133ca9190615099565b5b975089610140015173__MathLib_______________________________63fed4a0f39091896040518363ffffffff1660e01b815260040161340d929190615119565b602060405180830381865af415801561342a573d6000803e3d6000fd5b505050506040513d601f19601f8201168201806040525081019061344e9190615099565b73__MathLib_______________________________63b3947c1790918c60e001516301e133806040518463ffffffff1660e01b815260040161349293929190615439565b602060405180830381865af41580156134af573d6000803e3d6000fd5b505050506040513d601f19601f820116820180604052508101906134d39190615099565b73__MathLib_______________________________63fed4a0f390918573ffffffffffffffffffffffffffffffffffffffff166305268cff6040518163ffffffff1660e01b8152600401602060405180830381865afa15801561353a573d6000803e3d6000fd5b505050506040513d601f19601f8201168201806040525081019061355e919061582c565b73ffffffffffffffffffffffffffffffffffffffff1663b0e21e8a6040518163ffffffff1660e01b8152600401602060405180830381865afa1580156135a8573d6000803e3d6000fd5b505050506040513d601f19601f820116820180604052508101906135cc9190615099565b6040518363ffffffff1660e01b81526004016135e9929190615119565b602060405180830381865af4158015613606573d6000803e3d6000fd5b505050506040513d601f19601f8201168201806040525081019061362a9190615099565b94505050505091939590929450565b600080600084815260200190815260200160002060000160008373ffffffffffffffffffffffffffffffffffffffff1673ffffffffffffffffffffffffffffffffffffffff16815260200190815260200160002060009054906101000a900460ff16905092915050565b6000801b81565b60056020528060005260406000206000915090505481565b7f10b261d3bc7a74f38949f9212b0336103474898eda034c06ae0a3e478dc0e4a581565b60046020528060005260406000206000915090505481565b613707826108f0565b6137108161395f565b61371a8383613aa8565b505050565b60086020528060005260406000206000915090505481565b6060613780600360008473ffffffffffffffffffffffffffffffffffffffff1673ffffffffffffffffffffffffffffffffffffffff168152602001908152602001600020613ba3565b9050919050565b60066020528060005260406000206000915090505481565b60008060008060018054905085106137ec576040517f08c379a00000000000000000000000000000000000000000000000000000000081526004016137e3906158a5565b60405180910390fd5b60018581548110613800576137ff614f53565b5b906000526020600020906011020160000160029054906101000a900460ff166001868154811061383357613832614f53565b5b9060005260206000209060110201600501546001878154811061385957613858614f53565b5b906000526020600020906011020160000160039054906101000a900473ffffffffffffffffffffffffffffffffffffffff166001888154811061389f5761389e614f53565b5b9060005260206000209060110201600e0160009054906101000a900473ffffffffffffffffffffffffffffffffffffffff1693509350935093509193509193565b60007f01ffc9a7000000000000000000000000000000000000000000000000000000007bffffffffffffffffffffffffffffffffffffffffffffffffffffffff1916827bffffffffffffffffffffffffffffffffffffffffffffffffffffffff1916149050919050565b600061395882600001613bc4565b9050919050565b6139708161396b613aa0565b613bd5565b50565b6000613985836000018360001b613c72565b905092915050565b6139978282613639565b613a6957600160008084815260200190815260200160002060000160008373ffffffffffffffffffffffffffffffffffffffff1673ffffffffffffffffffffffffffffffffffffffff16815260200190815260200160002060006101000a81548160ff021916908315150217905550613a0e613aa0565b73ffffffffffffffffffffffffffffffffffffffff168173ffffffffffffffffffffffffffffffffffffffff16837f2f8788117e7eff1d82e926ec794901d17c78024a50270940304540a733656f0d60405160405180910390a45b5050565b600081831015613a7d5781613a7f565b825b905092915050565b6000818310613a965781613a98565b825b905092915050565b600033905090565b613ab28282613639565b15613b8557600080600084815260200190815260200160002060000160008373ffffffffffffffffffffffffffffffffffffffff1673ffffffffffffffffffffffffffffffffffffffff16815260200190815260200160002060006101000a81548160ff021916908315150217905550613b2a613aa0565b73ffffffffffffffffffffffffffffffffffffffff168173ffffffffffffffffffffffffffffffffffffffff16837ff6391f5c32d9c69d2a47ea670b442974b53935d1edc7fd64eb21e047a839171b60405160405180910390a45b5050565b6000613b9b836000018360001b613ce2565b905092915050565b60606000613bb383600001613df6565b905060608190508092505050919050565b600081600001805490509050919050565b613bdf8282613639565b613c6e57613c048173ffffffffffffffffffffffffffffffffffffffff166014613e52565b613c128360001c6020613e52565b604051602001613c239291906159ce565b6040516020818303038152906040526040517f08c379a0000000000000000000000000000000000000000000000000000000008152600401613c659190615a41565b60405180910390fd5b5050565b6000613c7e838361408e565b613cd7578260000182908060018154018082558091505060019003906000526020600020016000909190919091505582600001805490508360010160008481526020019081526020016000208190555060019050613cdc565b600090505b92915050565b60008083600101600084815260200190815260200160002054905060008114613dea576000600182613d149190615405565b9050600060018660000180549050613d2c9190615405565b9050818114613d9b576000866000018281548110613d4d57613d4c614f53565b5b9060005260206000200154905080876000018481548110613d7157613d70614f53565b5b90600052602060002001819055508387600101600083815260200190815260200160002081905550505b85600001805480613daf57613dae615a63565b5b600190038181906000526020600020016000905590558560010160008681526020019081526020016000206000905560019350505050613df0565b60009150505b92915050565b606081600001805480602002602001604051908101604052809291908181526020018280548015613e4657602002820191906000526020600020905b815481526020019060010190808311613e32575b50505050509050919050565b606060006002836002613e659190615a92565b613e6f919061502e565b67ffffffffffffffff811115613e8857613e876147a9565b5b6040519080825280601f01601f191660200182016040528015613eba5781602001600182028036833780820191505090505b5090507f300000000000000000000000000000000000000000000000000000000000000081600081518110613ef257613ef1614f53565b5b60200101907effffffffffffffffffffffffffffffffffffffffffffffffffffffffffffff1916908160001a9053507f780000000000000000000000000000000000000000000000000000000000000081600181518110613f5657613f55614f53565b5b60200101907effffffffffffffffffffffffffffffffffffffffffffffffffffffffffffff1916908160001a90535060006001846002613f969190615a92565b613fa0919061502e565b90505b6001811115614040577f3031323334353637383961626364656600000000000000000000000000000000600f861660108110613fe257613fe1614f53565b5b1a60f81b828281518110613ff957613ff8614f53565b5b60200101907effffffffffffffffffffffffffffffffffffffffffffffffffffffffffffff1916908160001a905350600485901c94508061403990615ad4565b9050613fa3565b5060008414614084576040517f08c379a000000000000000000000000000000000000000000000000000000000815260040161407b90615b49565b60405180910390fd5b8091505092915050565b600080836001016000848152602001908152602001600020541415905092915050565b604051806102800160405280600060038111156140d1576140d061438e565b5b8152602001600060018111156140ea576140e961438e565b5b8152602001600060038111156141035761410261438e565b5b8152602001600073ffffffffffffffffffffffffffffffffffffffff16815260200160008152602001600081526020016000815260200160008152602001600081526020016000815260200160008152602001600081526020016000815260200160008152602001600081526020016000815260200160008152602001600073ffffffffffffffffffffffffffffffffffffffff16815260200160008152602001600081525090565b6000604051905090565b600080fd5b60007fffffffff0000000000000000000000000000000000000000000000000000000082169050919050565b6141f0816141bb565b81146141fb57600080fd5b50565b60008135905061420d816141e7565b92915050565b600060208284031215614229576142286141b6565b5b6000614237848285016141fe565b91505092915050565b60008115159050919050565b61425581614240565b82525050565b6000602082019050614270600083018461424c565b92915050565b600073ffffffffffffffffffffffffffffffffffffffff82169050919050565b60006142a182614276565b9050919050565b6142b181614296565b81146142bc57600080fd5b50565b6000813590506142ce816142a8565b92915050565b6000602082840312156142ea576142e96141b6565b5b60006142f8848285016142bf565b91505092915050565b6000819050919050565b61431481614301565b82525050565b600060208201905061432f600083018461430b565b92915050565b61433e81614301565b811461434957600080fd5b50565b60008135905061435b81614335565b92915050565b600060208284031215614377576143766141b6565b5b60006143858482850161434c565b91505092915050565b7f4e487b7100000000000000000000000000000000000000000000000000000000600052602160045260246000fd5b600481106143ce576143cd61438e565b5b50565b60008190506143df826143bd565b919050565b60006143ef826143d1565b9050919050565b6143ff816143e4565b82525050565b600281106144165761441561438e565b5b50565b600081905061442782614405565b919050565b600061443782614419565b9050919050565b6144478161442c565b82525050565b6004811061445e5761445d61438e565b5b50565b600081905061446f8261444d565b919050565b600061447f82614461565b9050919050565b61448f81614474565b82525050565b61449e81614296565b82525050565b6144ad81614301565b82525050565b6000819050919050565b6144c6816144b3565b82525050565b610280820160008201516144e360008501826143f6565b5060208201516144f6602085018261443e565b5060408201516145096040850182614486565b50606082015161451c6060850182614495565b50608082015161452f60808501826144a4565b5060a082015161454260a08501826144a4565b5060c082015161455560c08501826144a4565b5060e082015161456860e08501826144a4565b5061010082015161457d6101008501826144a4565b506101208201516145926101208501826144a4565b506101408201516145a76101408501826144a4565b506101608201516145bc6101608501826144a4565b506101808201516145d16101808501826144a4565b506101a08201516145e66101a08501826144a4565b506101c08201516145fb6101c08501826144a4565b506101e08201516146106101e08501826144a4565b506102008201516146256102008501826144a4565b5061022082015161463a610220850182614495565b5061024082015161464f6102408501826144bd565b506102608201516146646102608501826144a4565b50505050565b60006102808201905061468060008301846144cc565b92915050565b6000819050919050565b61469981614686565b81146146a457600080fd5b50565b6000813590506146b681614690565b92915050565b6000602082840312156146d2576146d16141b6565b5b60006146e0848285016146a7565b91505092915050565b6146f281614686565b82525050565b600060208201905061470d60008301846146e9565b92915050565b6000806040838503121561472a576147296141b6565b5b60006147388582860161434c565b9250506020614749858286016142bf565b9150509250929050565b6000806040838503121561476a576147696141b6565b5b6000614778858286016146a7565b9250506020614789858286016142bf565b9150509250929050565b600080fd5b6000601f19601f8301169050919050565b7f4e487b7100000000000000000000000000000000000000000000000000000000600052604160045260246000fd5b6147e182614798565b810181811067ffffffffffffffff82111715614800576147ff6147a9565b5b80604052505050565b60006148136141ac565b905061481f82826147d8565b919050565b6004811061483157600080fd5b50565b60008135905061484381614824565b92915050565b6002811061485657600080fd5b50565b60008135905061486881614849565b92915050565b6004811061487b57600080fd5b50565b60008135905061488d8161486e565b92915050565b61489c816144b3565b81146148a757600080fd5b50565b6000813590506148b981614893565b92915050565b600061028082840312156148d6576148d5614793565b5b6148e1610280614809565b905060006148f184828501614834565b600083015250602061490584828501614859565b60208301525060406149198482850161487e565b604083015250606061492d848285016142bf565b60608301525060806149418482850161434c565b60808301525060a06149558482850161434c565b60a08301525060c06149698482850161434c565b60c08301525060e061497d8482850161434c565b60e0830152506101006149928482850161434c565b610100830152506101206149a88482850161434c565b610120830152506101406149be8482850161434c565b610140830152506101606149d48482850161434c565b610160830152506101806149ea8482850161434c565b610180830152506101a0614a008482850161434c565b6101a0830152506101c0614a168482850161434c565b6101c0830152506101e0614a2c8482850161434c565b6101e083015250610200614a428482850161434c565b61020083015250610220614a58848285016142bf565b61022083015250610240614a6e848285016148aa565b61024083015250610260614a848482850161434c565b6102608301525092915050565b6000806000806102e08587031215614aac57614aab6141b6565b5b6000614aba878288016148bf565b945050610280614acc8782880161434c565b9350506102a0614ade8782880161434c565b9250506102c0614af08782880161434c565b91505092959194509250565b614b05816144b3565b82525050565b6000604082019050614b20600083018561430b565b614b2d6020830184614afc565b9392505050565b6000604082019050614b49600083018561430b565b614b56602083018461430b565b9392505050565b6000602082019050614b726000830184614afc565b92915050565b6000614b8382614296565b9050919050565b614b9381614b78565b8114614b9e57600080fd5b50565b600081359050614bb081614b8a565b92915050565b614bbf81614240565b8114614bca57600080fd5b50565b600081359050614bdc81614bb6565b92915050565b600080600060608486031215614bfb57614bfa6141b6565b5b6000614c0986828701614ba1565b9350506020614c1a86828701614bcd565b9250506040614c2b86828701614bcd565b9150509250925092565b6000806000806000806103208789031215614c5357614c526141b6565b5b6000614c6189828a016148bf565b965050610280614c7389828a0161434c565b9550506102a0614c8589828a0161434c565b9450506102c0614c9789828a0161434c565b9350506102e0614ca989828a0161434c565b925050610300614cbb89828a0161434c565b9150509295509295509295565b60008060408385031215614cdf57614cde6141b6565b5b6000614ced858286016142bf565b9250506020614cfe858286016142bf565b9150509250929050565b600081519050919050565b600082825260208201905092915050565b6000819050602082019050919050565b6000614d4083836144a4565b60208301905092915050565b6000602082019050919050565b6000614d6482614d08565b614d6e8185614d13565b9350614d7983614d24565b8060005b83811015614daa578151614d918882614d34565b9750614d9c83614d4c565b925050600181019050614d7d565b5085935050505092915050565b60006020820190508181036000830152614dd18184614d59565b905092915050565b6000606082019050614dee600083018661430b565b614dfb602083018561430b565b614e08604083018461430b565b949350505050565b60006102808284031215614e2757614e266141b6565b5b6000614e35848285016148bf565b91505092915050565b600060a082019050614e53600083018861430b565b614e60602083018761430b565b614e6d604083018661430b565b614e7a606083018561430b565b614e87608083018461430b565b9695505050505050565b614e9a81614474565b82525050565b614ea981614296565b82525050565b6000819050919050565b6000614ed4614ecf614eca84614276565b614eaf565b614276565b9050919050565b6000614ee682614eb9565b9050919050565b6000614ef882614edb565b9050919050565b614f0881614eed565b82525050565b6000608082019050614f236000830187614e91565b614f30602083018661430b565b614f3d6040830185614ea0565b614f4a6060830184614eff565b95945050505050565b7f4e487b7100000000000000000000000000000000000000000000000000000000600052603260045260246000fd5b600082825260208201905092915050565b7f3061646472000000000000000000000000000000000000000000000000000000600082015250565b6000614fc9600583614f82565b9150614fd482614f93565b602082019050919050565b60006020820190508181036000830152614ff881614fbc565b9050919050565b7f4e487b7100000000000000000000000000000000000000000000000000000000600052601160045260246000fd5b600061503982614301565b915061504483614301565b925082820190508082111561505c5761505b614fff565b5b92915050565b8082525050565b600060208201905061507e6000830184615062565b92915050565b60008151905061509381614335565b92915050565b6000602082840312156150af576150ae6141b6565b5b60006150bd84828501615084565b91505092915050565b60006150d1826144b3565b91506150dc836144b3565b92508282019050828112156000831216838212600084121516171561510457615103614fff565b5b92915050565b61511381614301565b82525050565b600060408201905061512e600083018561510a565b61513b602083018461510a565b9392505050565b61514b816143e4565b82525050565b61515a8161442c565b82525050565b61516981614474565b82525050565b61517881614296565b82525050565b61518781614301565b82525050565b615196816144b3565b82525050565b610280820160008201516151b36000850182615142565b5060208201516151c66020850182615151565b5060408201516151d96040850182615160565b5060608201516151ec606085018261516f565b5060808201516151ff608085018261517e565b5060a082015161521260a085018261517e565b5060c082015161522560c085018261517e565b5060e082015161523860e085018261517e565b5061010082015161524d61010085018261517e565b5061012082015161526261012085018261517e565b5061014082015161527761014085018261517e565b5061016082015161528c61016085018261517e565b506101808201516152a161018085018261517e565b506101a08201516152b66101a085018261517e565b506101c08201516152cb6101c085018261517e565b506101e08201516152e06101e085018261517e565b506102008201516152f561020085018261517e565b5061022082015161530a61022085018261516f565b5061024082015161531f61024085018261518d565b5061026082015161533461026085018261517e565b50505050565b615343816144b3565b82525050565b60006103208201905061535f600083018961519c565b61536d61028083018861510a565b61537b6102a083018761510a565b6153896102c083018661510a565b6153976102e083018561533a565b6153a561030083018461510a565b979650505050505050565b6000815190506153bf81614893565b92915050565b600080604083850312156153dc576153db6141b6565b5b60006153ea85828601615084565b92505060206153fb858286016153b0565b9150509250929050565b600061541082614301565b915061541b83614301565b925082820390508181111561543357615432614fff565b5b92915050565b600060608201905061544e600083018661510a565b61545b602083018561510a565b615468604083018461510a565b949350505050565b60006102c082019050615486600083018661519c565b61549461028083018561510a565b6154a26102a083018461510a565b949350505050565b7f416363657373436f6e74726f6c3a2063616e206f6e6c792072656e6f756e636560008201527f20726f6c657320666f722073656c660000000000000000000000000000000000602082015250565b6000615506602f83614f82565b9150615511826154aa565b604082019050919050565b60006020820190508181036000830152615535816154f9565b9050919050565b600061554782614296565b9050919050565b6155578161553c565b811461556257600080fd5b50565b6000815190506155748161554e565b92915050565b6000602082840312156155905761558f6141b6565b5b600061559e84828501615565565b91505092915050565b60006155b282614296565b9050919050565b6155c2816155a7565b81146155cd57600080fd5b50565b6000815190506155df816155b9565b92915050565b6000602082840312156155fb576155fa6141b6565b5b6000615609848285016155d0565b91505092915050565b600061561d82614edb565b9050919050565b61562d81615612565b82525050565b60006040820190506156486000830185615624565b615655602083018461510a565b9392505050565b6000615667826144b3565b91507f8000000000000000000000000000000000000000000000000000000000000000820361569957615698614fff565b5b816000039050919050565b60006040820190506156b9600083018561533a565b6156c6602083018461533a565b9392505050565b60006156d8826144b3565b91506156e3836144b3565b925082820390508181126000841216828213600085121516171561570a57615709614fff565b5b92915050565b7f5a65726f2074656e6f7200000000000000000000000000000000000000000000600082015250565b6000615746600a83614f82565b915061575182615710565b602082019050919050565b6000602082019050818103600083015261577581615739565b9050919050565b60006040820190506157916000830185615062565b61579e602083018461510a565b9392505050565b60006102e0820190506157bb600083018761519c565b6157c961028083018661510a565b6157d76102a083018561510a565b6157e56102c083018461510a565b95945050505050565b60006157f982614296565b9050919050565b615809816157ee565b811461581457600080fd5b50565b60008151905061582681615800565b92915050565b600060208284031215615842576158416141b6565b5b600061585084828501615817565b91505092915050565b7f2d49440000000000000000000000000000000000000000000000000000000000600082015250565b600061588f600383614f82565b915061589a82615859565b602082019050919050565b600060208201905081810360008301526158be81615882565b9050919050565b600081905092915050565b7f416363657373436f6e74726f6c3a206163636f756e7420000000000000000000600082015250565b60006159066017836158c5565b9150615911826158d0565b601782019050919050565b600081519050919050565b60005b8381101561594557808201518184015260208101905061592a565b60008484015250505050565b600061595c8261591c565b61596681856158c5565b9350615976818560208601615927565b80840191505092915050565b7f206973206d697373696e6720726f6c6520000000000000000000000000000000600082015250565b60006159b86011836158c5565b91506159c382615982565b601182019050919050565b60006159d9826158f9565b91506159e58285615951565b91506159f0826159ab565b91506159fc8284615951565b91508190509392505050565b6000615a138261591c565b615a1d8185614f82565b9350615a2d818560208601615927565b615a3681614798565b840191505092915050565b60006020820190508181036000830152615a5b8184615a08565b905092915050565b7f4e487b7100000000000000000000000000000000000000000000000000000000600052603160045260246000fd5b6000615a9d82614301565b9150615aa883614301565b9250828202615ab681614301565b91508282048414831517615acd57615acc614fff565b5b5092915050565b6000615adf82614301565b915060008203615af257615af1614fff565b5b600182039050919050565b7f537472696e67733a20686578206c656e67746820696e73756666696369656e74600082015250565b6000615b33602083614f82565b9150615b3e82615afd565b602082019050919050565b60006020820190508181036000830152615b6281615b26565b905091905056fea2646970667358221220ed4a08ef873fc26ba87e20dc625952333fabb4f873bd7eff281885e84a368e7164736f6c63430008110033",
  "immutableReferences": {},
  "source": "// SPDX-License-Identifier: MIT\npragma solidity 0.8.17;\n\nimport \"@openzeppelin/contracts/access/AccessControl.sol\";\nimport \"@openzeppelin/contracts/utils/structs/EnumerableSet.sol\";\nimport \"./libraries/MarketLib.sol\";\nimport \"./libraries/OptionLib.sol\";\nimport \"./libraries/MathLib.sol\";\nimport \"./interfaces/EOption.sol\";\nimport \"./pools/Pool.sol\";\nimport \"./pools/MarketMaker.sol\";\nimport \"./VolatilityChain.sol\";\nimport \"./VolatilityToken.sol\";\n\ncontract OptionVault is EOption, AccessControl{\n  using MathLib for uint256;\n  using MathLib for int256;\n  using MarketLib for uint256;\n  using MarketLib for MarketMaker;\n  \n  using OptionLib for OptionLib.Option;\n  using EnumerableSet for EnumerableSet.UintSet;\n\n  bytes32 public constant EXCHANGE = keccak256(\"EXCHANGE\");\n  \n  // list of option contracts\n  OptionLib.Option[] internal aOption;\n  mapping(address=>mapping(address=> EnumerableSet.UintSet)) internal mHolderAtiveOption;\n  mapping(address=>EnumerableSet.UintSet) internal mActiveOption;\n  mapping(address=>uint256) public mUnderCollateral;\n  mapping(address=>uint256) public mFundCollateral;\n  mapping(address=>uint256) public mShortPremiums;\n  mapping(address=>int256) public mExposureUp;\n  mapping(address=>int256) public mExposureDown;\n\n  // immutable and constant values\n  uint256 internal constant BASE  = 1e18;\n  uint256 internal constant SCALING = 1e5;\n  uint256 internal constant SECONDS_1Y = 31536000; // 86400 * 365\n\n  // constructor\n  constructor(){\n    _setupRole(DEFAULT_ADMIN_ROLE, msg.sender); }\n  \n  // functions to get information of the option list -> ONLY USED in VIEW, gas cost unlimited\n  function getHolderOptions(address _pool, address _address) external view returns(uint256[] memory){\n    return mHolderAtiveOption[_pool][_address].values();}\n  function getOption(uint256 _id) public view returns(OptionLib.Option memory) {return aOption[_id];}\n  function getActiveOptionCount(address _poolAddress) public view returns(uint256) {return mActiveOption[_poolAddress].length();}\n  function getActiveOptions(address _poolAddress) external view returns(uint256[] memory) {return mActiveOption[_poolAddress].values();}\n\n  function getOptionInfo(uint256 _id) external view returns(OptionLib.OptionStatus, uint256, address, Pool) {\n    require(_id< aOption.length, '-ID');\n    return (aOption[_id].status, aOption[_id].maturity, aOption[_id].holder, Pool(aOption[_id].pool));}\n\n  // function to add new option contracts, only executable by Exchange contract as owner\n  // arguments: option contracts (in struct), premium (in funding token decimals), collateral (in funding token decimals), price (in price source decimals), volatility (in default decimals 18)\n  // return id of option contract\n  function addOption(OptionLib.Option memory _option, uint256 _premium, uint256 _collateral, uint256 _price, uint256 _vol, uint256 _fee) external onlyRole(EXCHANGE) returns(uint256 _id){\n    require(_option.tenor > 0, \"Zero tenor\");\n    _id = aOption.length;\n    Pool _pool = Pool(_option.pool);\n    VolatilityChain _volChain = _pool.marketMaker().getVolatilityChain();\n    (, int256 _exposure) = calcOptionExposure(_option, _price, _volChain.queryVol(_option.tenor), calcCapital(_pool, false, false).ethdiv(_price));\n    \n    // Arguments: option type, option side, contract status (default to draft), contract holder address, contract id, creation timestamp, effective timestamp (default to 0), tenor in seconds, maturity timestamp (default to 0), excersie timestamp (default to 0), amount or size of contract, current spot price, option strike, implied volatility, calculated premium and total cost including collaterals.\n    aOption.push(OptionLib.Option(_option.poType, _option.side, OptionLib.OptionStatus.Draft, _option.holder, _id, block.timestamp,  0, _option.tenor, 0,  0, _option.amount, _price, _option.strike, _option.spread, _vol, _premium, _collateral, _option.pool, _exposure, _fee));}\n\n  // function to stamp option as an active contract, only executable by Exchange contract as owner\n  // arguments: contract id and holder address\n  function stampActiveOption(uint256 _id, address _holder) external onlyRole(EXCHANGE){\n    require(_holder != address(0), \"0addr\"); \n\n    // update Option records\n    OptionLib.Option storage _option = aOption[_id];\n    _option.effectiveTime = block.timestamp;\n    _option.maturity = block.timestamp + _option.tenor;\n    _option.status = OptionLib.OptionStatus.Active;\n    \n    // update ownership and exposure records\n    address _poolAddress = _option.pool;\n    mUnderCollateral[_poolAddress] += _option.getUnderCollateral();\n    mFundCollateral[_poolAddress] += _option.sellFundCollateral();\n    mShortPremiums[_poolAddress] += _option.side == OptionLib.OptionSide.Sell? _option.premium: 0;\n\n    if(_option.poType == OptionLib.PayoffType.Call || _option.poType == OptionLib.PayoffType.CallSpread){\n      mExposureUp[_poolAddress] += _option.exposure;}\n    else{\n      mExposureDown[_poolAddress] += _option.exposure;}\n\n    mHolderAtiveOption[_poolAddress][_holder].add(_id);\n    mActiveOption[_poolAddress].add(_id);}\n\n  // function to stamp option as an expired contract, only executable by Exchange contract as owner\n  // arguments: contract id\n  function stampExpiredOption(uint256 _id)  external onlyRole(EXCHANGE){\n    // update Option records\n    OptionLib.Option storage _option = aOption[_id];\n    address _poolAddress = _option.pool;\n    address _holder = _option.holder;\n    mActiveOption[_poolAddress].remove(_id);\n    mHolderAtiveOption[_poolAddress][_holder].remove(_id);\n\n    mUnderCollateral[_poolAddress] -= Math.min(mUnderCollateral[_poolAddress], _option.getUnderCollateral());\n    mFundCollateral[_poolAddress] -= Math.min(mFundCollateral[_poolAddress], _option.sellFundCollateral());\n    mShortPremiums[_poolAddress] -= Math.min(mShortPremiums[_poolAddress], _option.side == OptionLib.OptionSide.Sell? _option.premium: 0);\n\n    if(_option.poType == OptionLib.PayoffType.Call || _option.poType == OptionLib.PayoffType.CallSpread){\n      mExposureUp[_poolAddress] -= _option.exposure;}\n    else{\n      mExposureDown[_poolAddress] -= _option.exposure;}\n   \n    _option.status = (msg.sender == _option.holder)? OptionLib.OptionStatus.Exercised: OptionLib.OptionStatus.Expired;\n    _option.exerciseTime = block.timestamp;\n  }\n\n  // contract payoff of specified contract ID\n  function getContractPayoff(uint256 _id) external view returns(uint256 _toHolder, uint256 _toProtocol, uint256 _toExerciser){\n    Pool _pool = Pool(aOption[_id].pool);\n    VolatilityChain _volChain = _pool.marketMaker().getVolatilityChain();\n    uint256 _price = _volChain.queryPrice();\n    \n    \n    _toHolder = aOption[_id].calcPayoff(_price);\n    _toProtocol = aOption[_id].fee;\n    _toExerciser = aOption[_id].amount.ethmul(_price).muldiv(aOption[_id].tenor, SECONDS_1Y).ethmul(_pool.exerciseFee());\n    \n    if(aOption[_id].side == OptionLib.OptionSide.Buy){\n      _toHolder = _toHolder - Math.min(_toHolder, _toExerciser);\n    }\n  }\n\n  // contract unwind value of specified contract ID. no exerciser as only holder can unwind exiting contract\n  function calcOptionUnwindValue(uint256 _id) external view returns(uint256 _toHolder, uint256 _toProtocol){\n    OptionLib.Option memory _option = getOption(_id);\n    _option.side = _option.side == OptionLib.OptionSide.Buy? OptionLib.OptionSide.Sell: OptionLib.OptionSide.Buy;\n    \n    (uint256 _premium, , uint256 _price , , ) = calcOptionCost(_option);\n    uint256 _feeProrata = _option.fee.muldiv(((_option.effectiveTime > 0) && (_option.maturity > _option.effectiveTime)) ? Math.min(_option.tenor, Math.max(block.timestamp, _option.maturity) - _option.effectiveTime): _option.tenor, _option.tenor);\n\n    _toHolder = _option.side == OptionLib.OptionSide.Buy? (_option.calcCollateral(_price, _premium) - _premium ): _premium; // collateral for buy backs\n    _toHolder = _toHolder + _option.fee - _feeProrata;\n    _toProtocol = _feeProrata;\n  }\n\n  function calcOptionCost(OptionLib.Option memory _option) public view returns(uint256 _premium, uint256 _collateral, uint256 _price, uint256 _annualisedVol, uint256 _fee){\n    Pool _pool = Pool(_option.pool);\n    MarketMaker _market = _pool.marketMaker();\n    VolatilityChain _volChain = _market.getVolatilityChain();\n    _price = _volChain.queryPrice();\n\n    (uint256 _impVol, ) = calcOptionExposure(_option, _price, _volChain.queryVol(_option.tenor), calcCapital(_pool, false, false).ethdiv(_price));\n    \n    _annualisedVol = _impVol.ethmul(_volChain.getSqrtRatio(_option.tenor));\n    _premium = _option.calcPremium(_price, _impVol, _market.loanInterest());\n    _collateral = _option.side == OptionLib.OptionSide.Sell? _option.calcCollateral(_price, _premium): 0;\n    _fee = _option.amount.ethmul(_price).muldiv(_option.tenor, SECONDS_1Y).ethmul(_market.govToken().protocolFee());\n  }\n\n  function calcOptionExposure(OptionLib.Option memory _option, uint256 _price, uint256 _volT, uint256 _maxExposure) public view returns(uint256, int256){\n    Pool _pool = Pool(_option.pool);\n    uint256 _exposureSigma = _pool.exposureSigma();\n    uint256 _capacityFactor = _pool.volCapacityFactor();\n    if(_option.poType == OptionLib.PayoffType.Call || _option.poType == OptionLib.PayoffType.CallSpread){\n      uint256 _priceAfter = _price.ethmul(BASE + _volT.ethmul(_exposureSigma));\n      int256 _currentExposure = mExposureUp[_option.pool];\n      return _option.quoteCallVol(_priceAfter, _volT, _capacityFactor, _currentExposure , _maxExposure);  \n    }\n    else{\n      uint256 _priceAfter = _price.ethdiv(BASE + _volT.ethmul(_exposureSigma));\n      int256 _currentExposure = mExposureDown[_option.pool];\n      return _option.quotePutVol(_priceAfter, _volT, _capacityFactor, _currentExposure, _maxExposure);  \n    }\n  }\n    \n  // functions related to capital calculation, addition and removals\n  // calculate capitals. Arguments: pool address, net for net capital (removing all collaterals and max exposures of option contracts) or gross (including all exposures in the underlying and funding tokens), average for average capital (total divided by number of Pool tokens) or gross (not divided by tokens)\n  function calcCapital(Pool _pool, bool _net, bool _average) public view returns(uint256){\n    MarketMaker _market = _pool.marketMaker();\n    VolatilityChain _volChain = _market.getVolatilityChain();\n    uint256 _price = _volChain.queryPrice();\n    uint256 _capital = _market.getGrossCapital(_price);\n\n    address _poolAddress = address(_pool);\n    uint256 _collateral = mUnderCollateral[_poolAddress].ethmul(_price) + mFundCollateral[_poolAddress];\n    _capital = _capital - Math.min(_collateral, _capital) + mShortPremiums[_poolAddress];\n    \n    if(_net){ \n      uint256 _exposure = mExposureUp[_poolAddress].absmax(-mExposureDown[_poolAddress]).ethmul(_price);\n      _capital -= Math.min(_exposure, _capital);}\n\n    if(_average){ \n      uint256 _poolSupply = _pool.totalSupply();\n      if(_poolSupply > 0) {\n        _capital = _capital.ethdiv(_poolSupply); }\n      else if(_poolSupply == 0 && _capital == 0) {\n        _capital = BASE;}}\n    \n    return _capital;\n  }\n}\n",
  "sourcePath": "/Users/mac/Documents/GitHub/moret/contracts/OptionVault.sol",
  "compiler": {
    "name": "solc",
    "version": "0.8.17+commit.8df45f5f.Emscripten.clang"
  },
  "schemaVersion": "3.4.3",
  "updatedAt": "2023-02-03T19:15:05.617Z",
  "networkType": "ethereum",
  "devdoc": {
    "kind": "dev",
    "methods": {
      "getRoleAdmin(bytes32)": {
        "details": "Returns the admin role that controls `role`. See {grantRole} and {revokeRole}. To change a role's admin, use {_setRoleAdmin}."
      },
      "grantRole(bytes32,address)": {
        "details": "Grants `role` to `account`. If `account` had not been already granted `role`, emits a {RoleGranted} event. Requirements: - the caller must have ``role``'s admin role."
      },
      "hasRole(bytes32,address)": {
        "details": "Returns `true` if `account` has been granted `role`."
      },
      "renounceRole(bytes32,address)": {
        "details": "Revokes `role` from the calling account. Roles are often managed via {grantRole} and {revokeRole}: this function's purpose is to provide a mechanism for accounts to lose their privileges if they are compromised (such as when a trusted device is misplaced). If the calling account had been revoked `role`, emits a {RoleRevoked} event. Requirements: - the caller must be `account`."
      },
      "revokeRole(bytes32,address)": {
        "details": "Revokes `role` from `account`. If `account` had been granted `role`, emits a {RoleRevoked} event. Requirements: - the caller must have ``role``'s admin role."
      },
      "supportsInterface(bytes4)": {
        "details": "See {IERC165-supportsInterface}."
      }
    },
    "version": 1
  },
  "userdoc": {
    "kind": "user",
    "methods": {},
    "version": 1
  }
}