{
  "contractName": "OptionVault",
  "abi": [
    {
      "inputs": [],
      "stateMutability": "nonpayable",
      "type": "constructor"
    },
    {
      "anonymous": false,
      "inputs": [
        {
          "indexed": true,
          "internalType": "address",
          "name": "_bot",
          "type": "address"
        },
        {
          "indexed": true,
          "internalType": "address",
          "name": "_exchange",
          "type": "address"
        },
        {
          "indexed": false,
          "internalType": "address",
          "name": "_holder",
          "type": "address"
        },
        {
          "indexed": false,
          "internalType": "uint256",
          "name": "_id",
          "type": "uint256"
        },
        {
          "indexed": false,
          "internalType": "uint256",
          "name": "_payoff",
          "type": "uint256"
        }
      ],
      "name": "Expire",
      "type": "event"
    },
    {
      "anonymous": false,
      "inputs": [
        {
          "indexed": true,
          "internalType": "address",
          "name": "_hedger",
          "type": "address"
        },
        {
          "indexed": true,
          "internalType": "address",
          "name": "_market",
          "type": "address"
        },
        {
          "indexed": false,
          "internalType": "bool",
          "name": "success",
          "type": "bool"
        },
        {
          "indexed": false,
          "internalType": "bytes",
          "name": "data",
          "type": "bytes"
        }
      ],
      "name": "HedgeResponse",
      "type": "event"
    },
    {
      "anonymous": false,
      "inputs": [
        {
          "indexed": true,
          "internalType": "address",
          "name": "_hedger",
          "type": "address"
        },
        {
          "indexed": true,
          "internalType": "address",
          "name": "_market",
          "type": "address"
        },
        {
          "indexed": false,
          "internalType": "uint256[]",
          "name": "amounts",
          "type": "uint256[]"
        }
      ],
      "name": "HedgeSwapResponse",
      "type": "event"
    },
    {
      "anonymous": false,
      "inputs": [
        {
          "indexed": false,
          "internalType": "address",
          "name": "_newBot",
          "type": "address"
        }
      ],
      "name": "ResetBotAddress",
      "type": "event"
    },
    {
      "anonymous": false,
      "inputs": [
        {
          "indexed": true,
          "internalType": "uint256",
          "name": "_parameterId",
          "type": "uint256"
        },
        {
          "indexed": false,
          "internalType": "uint256",
          "name": "_parameter",
          "type": "uint256"
        }
      ],
      "name": "ResetParameter",
      "type": "event"
    },
    {
      "anonymous": false,
      "inputs": [
        {
          "indexed": true,
          "internalType": "address",
          "name": "_exchange",
          "type": "address"
        },
        {
          "indexed": false,
          "internalType": "bool",
          "name": "_tradingAllowed",
          "type": "bool"
        }
      ],
      "name": "ResetTradingStatus",
      "type": "event"
    },
    {
      "anonymous": false,
      "inputs": [
        {
          "indexed": true,
          "internalType": "bytes32",
          "name": "role",
          "type": "bytes32"
        },
        {
          "indexed": true,
          "internalType": "bytes32",
          "name": "previousAdminRole",
          "type": "bytes32"
        },
        {
          "indexed": true,
          "internalType": "bytes32",
          "name": "newAdminRole",
          "type": "bytes32"
        }
      ],
      "name": "RoleAdminChanged",
      "type": "event"
    },
    {
      "anonymous": false,
      "inputs": [
        {
          "indexed": true,
          "internalType": "bytes32",
          "name": "role",
          "type": "bytes32"
        },
        {
          "indexed": true,
          "internalType": "address",
          "name": "account",
          "type": "address"
        },
        {
          "indexed": true,
          "internalType": "address",
          "name": "sender",
          "type": "address"
        }
      ],
      "name": "RoleGranted",
      "type": "event"
    },
    {
      "anonymous": false,
      "inputs": [
        {
          "indexed": true,
          "internalType": "bytes32",
          "name": "role",
          "type": "bytes32"
        },
        {
          "indexed": true,
          "internalType": "address",
          "name": "account",
          "type": "address"
        },
        {
          "indexed": true,
          "internalType": "address",
          "name": "sender",
          "type": "address"
        }
      ],
      "name": "RoleRevoked",
      "type": "event"
    },
    {
      "anonymous": false,
      "inputs": [
        {
          "indexed": true,
          "internalType": "address",
          "name": "_purchaser",
          "type": "address"
        },
        {
          "indexed": true,
          "internalType": "address",
          "name": "_exchange",
          "type": "address"
        },
        {
          "indexed": false,
          "internalType": "uint256",
          "name": "_cost",
          "type": "uint256"
        },
        {
          "indexed": false,
          "internalType": "uint256",
          "name": "_volAmount",
          "type": "uint256"
        },
        {
          "indexed": false,
          "internalType": "bool",
          "name": "_isPurchase",
          "type": "bool"
        }
      ],
      "name": "TradeVolatility",
      "type": "event"
    },
    {
      "inputs": [],
      "name": "DEFAULT_ADMIN_ROLE",
      "outputs": [
        {
          "internalType": "bytes32",
          "name": "",
          "type": "bytes32"
        }
      ],
      "stateMutability": "view",
      "type": "function"
    },
    {
      "inputs": [],
      "name": "EXCHANGE",
      "outputs": [
        {
          "internalType": "bytes32",
          "name": "",
          "type": "bytes32"
        }
      ],
      "stateMutability": "view",
      "type": "function"
    },
    {
      "inputs": [
        {
          "internalType": "bytes32",
          "name": "role",
          "type": "bytes32"
        }
      ],
      "name": "getRoleAdmin",
      "outputs": [
        {
          "internalType": "bytes32",
          "name": "",
          "type": "bytes32"
        }
      ],
      "stateMutability": "view",
      "type": "function"
    },
    {
      "inputs": [
        {
          "internalType": "bytes32",
          "name": "role",
          "type": "bytes32"
        },
        {
          "internalType": "address",
          "name": "account",
          "type": "address"
        }
      ],
      "name": "grantRole",
      "outputs": [],
      "stateMutability": "nonpayable",
      "type": "function"
    },
    {
      "inputs": [
        {
          "internalType": "bytes32",
          "name": "role",
          "type": "bytes32"
        },
        {
          "internalType": "address",
          "name": "account",
          "type": "address"
        }
      ],
      "name": "hasRole",
      "outputs": [
        {
          "internalType": "bool",
          "name": "",
          "type": "bool"
        }
      ],
      "stateMutability": "view",
      "type": "function"
    },
    {
      "inputs": [
        {
          "internalType": "address",
          "name": "",
          "type": "address"
        }
      ],
      "name": "mDeltaAtMax",
      "outputs": [
        {
          "internalType": "uint256",
          "name": "",
          "type": "uint256"
        }
      ],
      "stateMutability": "view",
      "type": "function"
    },
    {
      "inputs": [
        {
          "internalType": "address",
          "name": "",
          "type": "address"
        }
      ],
      "name": "mDeltaAtZero",
      "outputs": [
        {
          "internalType": "uint256",
          "name": "",
          "type": "uint256"
        }
      ],
      "stateMutability": "view",
      "type": "function"
    },
    {
      "inputs": [
        {
          "internalType": "address",
          "name": "",
          "type": "address"
        }
      ],
      "name": "mNetNotional",
      "outputs": [
        {
          "internalType": "int256",
          "name": "",
          "type": "int256"
        }
      ],
      "stateMutability": "view",
      "type": "function"
    },
    {
      "inputs": [
        {
          "internalType": "address",
          "name": "",
          "type": "address"
        }
      ],
      "name": "mPutCollateral",
      "outputs": [
        {
          "internalType": "uint256",
          "name": "",
          "type": "uint256"
        }
      ],
      "stateMutability": "view",
      "type": "function"
    },
    {
      "inputs": [
        {
          "internalType": "bytes32",
          "name": "role",
          "type": "bytes32"
        },
        {
          "internalType": "address",
          "name": "account",
          "type": "address"
        }
      ],
      "name": "renounceRole",
      "outputs": [],
      "stateMutability": "nonpayable",
      "type": "function"
    },
    {
      "inputs": [
        {
          "internalType": "bytes32",
          "name": "role",
          "type": "bytes32"
        },
        {
          "internalType": "address",
          "name": "account",
          "type": "address"
        }
      ],
      "name": "revokeRole",
      "outputs": [],
      "stateMutability": "nonpayable",
      "type": "function"
    },
    {
      "inputs": [
        {
          "internalType": "bytes4",
          "name": "interfaceId",
          "type": "bytes4"
        }
      ],
      "name": "supportsInterface",
      "outputs": [
        {
          "internalType": "bool",
          "name": "",
          "type": "bool"
        }
      ],
      "stateMutability": "view",
      "type": "function"
    },
    {
      "inputs": [
        {
          "components": [
            {
              "internalType": "enum OptionLib.PayoffType",
              "name": "poType",
              "type": "uint8"
            },
            {
              "internalType": "enum OptionLib.OptionSide",
              "name": "side",
              "type": "uint8"
            },
            {
              "internalType": "enum OptionLib.OptionStatus",
              "name": "status",
              "type": "uint8"
            },
            {
              "internalType": "address",
              "name": "holder",
              "type": "address"
            },
            {
              "internalType": "uint256",
              "name": "id",
              "type": "uint256"
            },
            {
              "internalType": "uint256",
              "name": "createTime",
              "type": "uint256"
            },
            {
              "internalType": "uint256",
              "name": "effectiveTime",
              "type": "uint256"
            },
            {
              "internalType": "uint256",
              "name": "tenor",
              "type": "uint256"
            },
            {
              "internalType": "uint256",
              "name": "maturity",
              "type": "uint256"
            },
            {
              "internalType": "uint256",
              "name": "exerciseTime",
              "type": "uint256"
            },
            {
              "internalType": "uint256",
              "name": "amount",
              "type": "uint256"
            },
            {
              "internalType": "uint256",
              "name": "spot",
              "type": "uint256"
            },
            {
              "internalType": "uint256",
              "name": "strike",
              "type": "uint256"
            },
            {
              "internalType": "uint256",
              "name": "volatility",
              "type": "uint256"
            },
            {
              "internalType": "uint256",
              "name": "premium",
              "type": "uint256"
            },
            {
              "internalType": "uint256",
              "name": "cost",
              "type": "uint256"
            },
            {
              "internalType": "address",
              "name": "pool",
              "type": "address"
            }
          ],
          "internalType": "struct OptionLib.Option",
          "name": "_option",
          "type": "tuple"
        },
        {
          "internalType": "uint256",
          "name": "_premium",
          "type": "uint256"
        },
        {
          "internalType": "uint256",
          "name": "_collateral",
          "type": "uint256"
        },
        {
          "internalType": "uint256",
          "name": "_price",
          "type": "uint256"
        },
        {
          "internalType": "uint256",
          "name": "_vol",
          "type": "uint256"
        }
      ],
      "name": "addOption",
      "outputs": [
        {
          "internalType": "uint256",
          "name": "_id",
          "type": "uint256"
        }
      ],
      "stateMutability": "nonpayable",
      "type": "function"
    },
    {
      "inputs": [
        {
          "internalType": "uint256",
          "name": "_id",
          "type": "uint256"
        },
        {
          "internalType": "address",
          "name": "_holder",
          "type": "address"
        }
      ],
      "name": "stampActiveOption",
      "outputs": [],
      "stateMutability": "nonpayable",
      "type": "function"
    },
    {
      "inputs": [
        {
          "internalType": "uint256",
          "name": "_id",
          "type": "uint256"
        }
      ],
      "name": "stampExpiredOption",
      "outputs": [],
      "stateMutability": "nonpayable",
      "type": "function"
    },
    {
      "inputs": [
        {
          "internalType": "address",
          "name": "_pool",
          "type": "address"
        },
        {
          "internalType": "address",
          "name": "_address",
          "type": "address"
        }
      ],
      "name": "getHolderOptions",
      "outputs": [
        {
          "internalType": "uint256[]",
          "name": "",
          "type": "uint256[]"
        }
      ],
      "stateMutability": "view",
      "type": "function"
    },
    {
      "inputs": [
        {
          "internalType": "uint256",
          "name": "_id",
          "type": "uint256"
        }
      ],
      "name": "getOption",
      "outputs": [
        {
          "components": [
            {
              "internalType": "enum OptionLib.PayoffType",
              "name": "poType",
              "type": "uint8"
            },
            {
              "internalType": "enum OptionLib.OptionSide",
              "name": "side",
              "type": "uint8"
            },
            {
              "internalType": "enum OptionLib.OptionStatus",
              "name": "status",
              "type": "uint8"
            },
            {
              "internalType": "address",
              "name": "holder",
              "type": "address"
            },
            {
              "internalType": "uint256",
              "name": "id",
              "type": "uint256"
            },
            {
              "internalType": "uint256",
              "name": "createTime",
              "type": "uint256"
            },
            {
              "internalType": "uint256",
              "name": "effectiveTime",
              "type": "uint256"
            },
            {
              "internalType": "uint256",
              "name": "tenor",
              "type": "uint256"
            },
            {
              "internalType": "uint256",
              "name": "maturity",
              "type": "uint256"
            },
            {
              "internalType": "uint256",
              "name": "exerciseTime",
              "type": "uint256"
            },
            {
              "internalType": "uint256",
              "name": "amount",
              "type": "uint256"
            },
            {
              "internalType": "uint256",
              "name": "spot",
              "type": "uint256"
            },
            {
              "internalType": "uint256",
              "name": "strike",
              "type": "uint256"
            },
            {
              "internalType": "uint256",
              "name": "volatility",
              "type": "uint256"
            },
            {
              "internalType": "uint256",
              "name": "premium",
              "type": "uint256"
            },
            {
              "internalType": "uint256",
              "name": "cost",
              "type": "uint256"
            },
            {
              "internalType": "address",
              "name": "pool",
              "type": "address"
            }
          ],
          "internalType": "struct OptionLib.Option",
          "name": "",
          "type": "tuple"
        }
      ],
      "stateMutability": "view",
      "type": "function"
    },
    {
      "inputs": [
        {
          "internalType": "address",
          "name": "_poolAddress",
          "type": "address"
        }
      ],
      "name": "getActiveOptionCount",
      "outputs": [
        {
          "internalType": "uint256",
          "name": "",
          "type": "uint256"
        }
      ],
      "stateMutability": "view",
      "type": "function"
    },
    {
      "inputs": [
        {
          "internalType": "address",
          "name": "_poolAddress",
          "type": "address"
        }
      ],
      "name": "getActiveOptions",
      "outputs": [
        {
          "internalType": "uint256[]",
          "name": "",
          "type": "uint256[]"
        }
      ],
      "stateMutability": "view",
      "type": "function"
    },
    {
      "inputs": [
        {
          "internalType": "uint256",
          "name": "_id",
          "type": "uint256"
        }
      ],
      "name": "getOptionInfo",
      "outputs": [
        {
          "internalType": "enum OptionLib.OptionStatus",
          "name": "",
          "type": "uint8"
        },
        {
          "internalType": "enum OptionLib.OptionSide",
          "name": "",
          "type": "uint8"
        },
        {
          "internalType": "address",
          "name": "",
          "type": "address"
        },
        {
          "internalType": "contract Pool",
          "name": "",
          "type": "address"
        }
      ],
      "stateMutability": "view",
      "type": "function"
    },
    {
      "inputs": [
        {
          "internalType": "address",
          "name": "_pool",
          "type": "address"
        },
        {
          "internalType": "uint256",
          "name": "_price",
          "type": "uint256"
        },
        {
          "internalType": "bool",
          "name": "_includeExpiring",
          "type": "bool"
        }
      ],
      "name": "calculateAggregateDelta",
      "outputs": [
        {
          "internalType": "int256",
          "name": "_delta",
          "type": "int256"
        }
      ],
      "stateMutability": "view",
      "type": "function"
    },
    {
      "inputs": [
        {
          "internalType": "uint256",
          "name": "_id",
          "type": "uint256"
        }
      ],
      "name": "getContractPayoff",
      "outputs": [
        {
          "internalType": "uint256",
          "name": "_payoff",
          "type": "uint256"
        },
        {
          "internalType": "uint256",
          "name": "_payback",
          "type": "uint256"
        },
        {
          "internalType": "uint256",
          "name": "_collateral",
          "type": "uint256"
        }
      ],
      "stateMutability": "view",
      "type": "function"
    },
    {
      "inputs": [
        {
          "internalType": "address",
          "name": "_poolAddress",
          "type": "address"
        }
      ],
      "name": "anyOptionExpiring",
      "outputs": [
        {
          "internalType": "bool",
          "name": "_isExpiring",
          "type": "bool"
        }
      ],
      "stateMutability": "view",
      "type": "function"
    },
    {
      "inputs": [
        {
          "internalType": "address",
          "name": "_poolAddress",
          "type": "address"
        }
      ],
      "name": "getExpiringOptionId",
      "outputs": [
        {
          "internalType": "uint256",
          "name": "_id",
          "type": "uint256"
        }
      ],
      "stateMutability": "view",
      "type": "function"
    },
    {
      "inputs": [
        {
          "components": [
            {
              "internalType": "enum OptionLib.PayoffType",
              "name": "poType",
              "type": "uint8"
            },
            {
              "internalType": "enum OptionLib.OptionSide",
              "name": "side",
              "type": "uint8"
            },
            {
              "internalType": "enum OptionLib.OptionStatus",
              "name": "status",
              "type": "uint8"
            },
            {
              "internalType": "address",
              "name": "holder",
              "type": "address"
            },
            {
              "internalType": "uint256",
              "name": "id",
              "type": "uint256"
            },
            {
              "internalType": "uint256",
              "name": "createTime",
              "type": "uint256"
            },
            {
              "internalType": "uint256",
              "name": "effectiveTime",
              "type": "uint256"
            },
            {
              "internalType": "uint256",
              "name": "tenor",
              "type": "uint256"
            },
            {
              "internalType": "uint256",
              "name": "maturity",
              "type": "uint256"
            },
            {
              "internalType": "uint256",
              "name": "exerciseTime",
              "type": "uint256"
            },
            {
              "internalType": "uint256",
              "name": "amount",
              "type": "uint256"
            },
            {
              "internalType": "uint256",
              "name": "spot",
              "type": "uint256"
            },
            {
              "internalType": "uint256",
              "name": "strike",
              "type": "uint256"
            },
            {
              "internalType": "uint256",
              "name": "volatility",
              "type": "uint256"
            },
            {
              "internalType": "uint256",
              "name": "premium",
              "type": "uint256"
            },
            {
              "internalType": "uint256",
              "name": "cost",
              "type": "uint256"
            },
            {
              "internalType": "address",
              "name": "pool",
              "type": "address"
            }
          ],
          "internalType": "struct OptionLib.Option",
          "name": "_option",
          "type": "tuple"
        },
        {
          "internalType": "bool",
          "name": "_forceATM",
          "type": "bool"
        }
      ],
      "name": "calcOptionCost",
      "outputs": [
        {
          "internalType": "uint256",
          "name": "_premium",
          "type": "uint256"
        },
        {
          "internalType": "uint256",
          "name": "_collateral",
          "type": "uint256"
        },
        {
          "internalType": "uint256",
          "name": "_price",
          "type": "uint256"
        },
        {
          "internalType": "uint256",
          "name": "_annualisedVol",
          "type": "uint256"
        }
      ],
      "stateMutability": "view",
      "type": "function"
    },
    {
      "inputs": [
        {
          "internalType": "contract MarketMaker",
          "name": "_market",
          "type": "address"
        },
        {
          "internalType": "uint256",
          "name": "_tenor",
          "type": "uint256"
        },
        {
          "internalType": "uint256",
          "name": "_volCapacityFactor",
          "type": "uint256"
        },
        {
          "internalType": "int256",
          "name": "_currentNetNotional",
          "type": "int256"
        },
        {
          "internalType": "int256",
          "name": "_newNetNotional",
          "type": "int256"
        }
      ],
      "name": "calcImpliedVol",
      "outputs": [
        {
          "internalType": "uint256",
          "name": "_price",
          "type": "uint256"
        },
        {
          "internalType": "uint256",
          "name": "_impVol",
          "type": "uint256"
        },
        {
          "internalType": "uint256",
          "name": "_annualisedVol",
          "type": "uint256"
        }
      ],
      "stateMutability": "view",
      "type": "function"
    },
    {
      "inputs": [
        {
          "internalType": "contract Pool",
          "name": "_pool",
          "type": "address"
        },
        {
          "internalType": "bool",
          "name": "_net",
          "type": "bool"
        },
        {
          "internalType": "bool",
          "name": "_average",
          "type": "bool"
        }
      ],
      "name": "calcCapital",
      "outputs": [
        {
          "internalType": "uint256",
          "name": "",
          "type": "uint256"
        }
      ],
      "stateMutability": "view",
      "type": "function"
    }
  ],
  "bytecode": "0x60806040523480156200001157600080fd5b50620000276000801b336200002d60201b60201c565b620001a6565b6200003f82826200004360201b60201c565b5050565b6200005582826200013460201b60201c565b6200013057600160008084815260200190815260200160002060000160008373ffffffffffffffffffffffffffffffffffffffff1673ffffffffffffffffffffffffffffffffffffffff16815260200190815260200160002060006101000a81548160ff021916908315150217905550620000d56200019e60201b60201c565b73ffffffffffffffffffffffffffffffffffffffff168173ffffffffffffffffffffffffffffffffffffffff16837f2f8788117e7eff1d82e926ec794901d17c78024a50270940304540a733656f0d60405160405180910390a45b5050565b600080600084815260200190815260200160002060000160008373ffffffffffffffffffffffffffffffffffffffff1673ffffffffffffffffffffffffffffffffffffffff16815260200190815260200160002060009054906101000a900460ff16905092915050565b600033905090565b61538980620001b66000396000f3fe608060405234801561001057600080fd5b50600436106101a95760003560e01c80636a347c40116100f9578063a217fddf11610097578063d547741f11610071578063d547741f14610591578063eae3f74f146105ad578063efb725af146105dd578063fc9d80e01461060d576101a9565b8063a217fddf14610525578063b50e44b814610543578063b9f10b6614610561576101a9565b806385ae10e6116100d357806385ae10e61461046357806391d14854146104955780639bafc254146104c55780639f2b958c146104f5576101a9565b80636a347c40146103d35780637be795e014610403578063844a7c9a14610433576101a9565b806325524217116101665780633a328e29116101405780633a328e29146103275780635c273c2f14610357578063637baf601461038757806365c22c5f146103a3576101a9565b806325524217146102bd5780632f2ff15d146102ef57806336568abe1461030b576101a9565b806301ffc9a7146101ae578063132a0f1b146101de5780631ce5e9a61461020e5780632360e8171461023e578063248a9ca31461027157806324b4110e146102a1575b600080fd5b6101c860048036038101906101c391906139b2565b610640565b6040516101d591906139fa565b60405180910390f35b6101f860048036038101906101f39190613a73565b6106ba565b6040516102059190613ab9565b60405180910390f35b61022860048036038101906102239190613b00565b61070a565b6040516102359190613db1565b60405180910390f35b61025860048036038101906102539190614089565b61091c565b60405161026894939291906140cb565b60405180910390f35b61028b60048036038101906102869190614146565b610cc2565b6040516102989190614182565b60405180910390f35b6102bb60048036038101906102b6919061419d565b610ce1565b005b6102d760048036038101906102d29190614251565b61123b565b6040516102e6939291906142cc565b60405180910390f35b61030960048036038101906103049190614303565b61161b565b005b61032560048036038101906103209190614303565b61163c565b005b610341600480360381019061033c9190613a73565b6116bf565b60405161034e9190613ab9565b60405180910390f35b610371600480360381019061036c9190614381565b61182f565b60405161037e9190613ab9565b60405180910390f35b6103a1600480360381019061039c9190613b00565b611cb4565b005b6103bd60048036038101906103b89190613a73565b612288565b6040516103ca9190613ab9565b60405180910390f35b6103ed60048036038101906103e89190613a73565b6122a0565b6040516103fa9190613ab9565b60405180910390f35b61041d600480360381019061041891906143d4565b6122b8565b60405161042a91906144c3565b60405180910390f35b61044d60048036038101906104489190613a73565b612346565b60405161045a91906144f4565b60405180910390f35b61047d60048036038101906104789190613b00565b61235e565b60405161048c939291906142cc565b60405180910390f35b6104af60048036038101906104aa9190614303565b6125a7565b6040516104bc91906139fa565b60405180910390f35b6104df60048036038101906104da9190613a73565b612611565b6040516104ec9190613ab9565b60405180910390f35b61050f600480360381019061050a9190613a73565b612629565b60405161051c91906139fa565b60405180910390f35b61052d612793565b60405161053a9190614182565b60405180910390f35b61054b61279a565b6040516105589190614182565b60405180910390f35b61057b6004803603810190610576919061450f565b6127be565b6040516105889190613ab9565b60405180910390f35b6105ab60048036038101906105a69190614303565b612b04565b005b6105c760048036038101906105c2919061458f565b612b25565b6040516105d491906144f4565b60405180910390f35b6105f760048036038101906105f29190613a73565b612e44565b60405161060491906144c3565b60405180910390f35b61062760048036038101906106229190613b00565b612e94565b604051610637949392919061466e565b60405180910390f35b60007f7965db0b000000000000000000000000000000000000000000000000000000007bffffffffffffffffffffffffffffffffffffffffffffffffffffffff1916827bffffffffffffffffffffffffffffffffffffffffffffffffffffffff191614806106b357506106b282612fe2565b5b9050919050565b6000610703600360008473ffffffffffffffffffffffffffffffffffffffff1673ffffffffffffffffffffffffffffffffffffffff16815260200190815260200160002061304c565b9050919050565b610712613865565b60018281548110610726576107256146b3565b5b90600052602060002090600e0201604051806102200160405290816000820160009054906101000a900460ff16600181111561076557610764613b2d565b5b600181111561077757610776613b2d565b5b81526020016000820160019054906101000a900460ff1660018111156107a05761079f613b2d565b5b60018111156107b2576107b1613b2d565b5b81526020016000820160029054906101000a900460ff1660038111156107db576107da613b2d565b5b60038111156107ed576107ec613b2d565b5b81526020016000820160039054906101000a900473ffffffffffffffffffffffffffffffffffffffff1673ffffffffffffffffffffffffffffffffffffffff1673ffffffffffffffffffffffffffffffffffffffff168152602001600182015481526020016002820154815260200160038201548152602001600482015481526020016005820154815260200160068201548152602001600782015481526020016008820154815260200160098201548152602001600a8201548152602001600b8201548152602001600c8201548152602001600d820160009054906101000a900473ffffffffffffffffffffffffffffffffffffffff1673ffffffffffffffffffffffffffffffffffffffff1673ffffffffffffffffffffffffffffffffffffffff16815250509050919050565b6000806000806000866102000151905060008173ffffffffffffffffffffffffffffffffffffffff16631f21f9af6040518163ffffffff1660e01b8152600401602060405180830381865afa158015610979573d6000803e3d6000fd5b505050506040513d601f19601f8201168201806040525081019061099d91906146f7565b905060006001808111156109b4576109b3613b2d565b5b896020015160018111156109cb576109ca613b2d565b5b146109d75760016109f9565b7fffffffffffffffffffffffffffffffffffffffffffffffffffffffffffffffff5b610a078a6101400151613061565b610a119190614753565b600460008b610200015173ffffffffffffffffffffffffffffffffffffffff1673ffffffffffffffffffffffffffffffffffffffff16815260200190815260200160002054610a6091906147cb565b90506000610b27838b60e001518673ffffffffffffffffffffffffffffffffffffffff16630f9026186040518163ffffffff1660e01b8152600401602060405180830381865afa158015610ab8573d6000803e3d6000fd5b505050506040513d601f19601f82011682018060405250810190610adc9190614824565b600460008f610200015173ffffffffffffffffffffffffffffffffffffffff1673ffffffffffffffffffffffffffffffffffffffff168152602001908152602001600020548661123b565b8097508193508298505050508815610b4557858a6101800181815250505b8973__OptionLib_____________________________638399d60c909188848773ffffffffffffffffffffffffffffffffffffffff1663a7292ea46040518163ffffffff1660e01b8152600401602060405180830381865afa158015610baf573d6000803e3d6000fd5b505050506040513d601f19601f82011682018060405250810190610bd39190614824565b6040518563ffffffff1660e01b8152600401610bf29493929190614a0a565b602060405180830381865af4158015610c0f573d6000803e3d6000fd5b505050506040513d601f19601f82011682018060405250810190610c339190614824565b97508973__OptionLib_____________________________63d82425499091888b6040518463ffffffff1660e01b8152600401610c7293929190614a53565b602060405180830381865af4158015610c8f573d6000803e3d6000fd5b505050506040513d601f19601f82011682018060405250810190610cb39190614824565b96505050505092959194509250565b6000806000838152602001908152602001600020600101549050919050565b7f10b261d3bc7a74f38949f9212b0336103474898eda034c06ae0a3e478dc0e4a5610d0b816130ce565b600073ffffffffffffffffffffffffffffffffffffffff168273ffffffffffffffffffffffffffffffffffffffff1603610d7a576040517f08c379a0000000000000000000000000000000000000000000000000000000008152600401610d7190614aea565b60405180910390fd5b600060018481548110610d9057610d8f6146b3565b5b90600052602060002090600e02019050428160030181905550806004015442610db99190614b0a565b816005018190555060018160000160026101000a81548160ff02191690836003811115610de957610de8613b2d565b5b0217905550600081600d0160009054906101000a900473ffffffffffffffffffffffffffffffffffffffff1690508173__OptionLib_____________________________63bf38721c90916040518263ffffffff1660e01b8152600401610e509190614b45565b602060405180830381865af4158015610e6d573d6000803e3d6000fd5b505050506040513d601f19601f82011682018060405250810190610e919190614b75565b600460008373ffffffffffffffffffffffffffffffffffffffff1673ffffffffffffffffffffffffffffffffffffffff1681526020019081526020016000206000828254610edf91906147cb565b925050819055508173__OptionLib_____________________________631b4fb86990916040518263ffffffff1660e01b8152600401610f1f9190614b45565b602060405180830381865af4158015610f3c573d6000803e3d6000fd5b505050506040513d601f19601f82011682018060405250810190610f609190614824565b600560008373ffffffffffffffffffffffffffffffffffffffff1673ffffffffffffffffffffffffffffffffffffffff1681526020019081526020016000206000828254610fae9190614b0a565b925050819055508173__OptionLib_____________________________632e5cf0a790916040518263ffffffff1660e01b8152600401610fee9190614b45565b602060405180830381865af415801561100b573d6000803e3d6000fd5b505050506040513d601f19601f8201168201806040525081019061102f9190614824565b600660008373ffffffffffffffffffffffffffffffffffffffff1673ffffffffffffffffffffffffffffffffffffffff168152602001908152602001600020600082825461107d9190614b0a565b925050819055508173__OptionLib_____________________________6304a65c3e90916040518263ffffffff1660e01b81526004016110bd9190614b45565b602060405180830381865af41580156110da573d6000803e3d6000fd5b505050506040513d601f19601f820116820180604052508101906110fe9190614824565b600760008373ffffffffffffffffffffffffffffffffffffffff1673ffffffffffffffffffffffffffffffffffffffff168152602001908152602001600020600082825461114c9190614b0a565b925050819055506111e185600260008473ffffffffffffffffffffffffffffffffffffffff1673ffffffffffffffffffffffffffffffffffffffff16815260200190815260200160002060008773ffffffffffffffffffffffffffffffffffffffff1673ffffffffffffffffffffffffffffffffffffffff1681526020019081526020016000206130e290919063ffffffff16565b5061123385600360008473ffffffffffffffffffffffffffffffffffffffff1673ffffffffffffffffffffffffffffffffffffffff1681526020019081526020016000206130e290919063ffffffff16565b505050505050565b6000806000808873ffffffffffffffffffffffffffffffffffffffff1663c0a16f6a6040518163ffffffff1660e01b8152600401602060405180830381865afa15801561128c573d6000803e3d6000fd5b505050506040513d601f19601f820116820180604052508101906112b09190614be0565b90508073ffffffffffffffffffffffffffffffffffffffff1663b0667cf86040518163ffffffff1660e01b8152600401602060405180830381865afa1580156112fd573d6000803e3d6000fd5b505050506040513d601f19601f820116820180604052508101906113219190614824565b9350600073__MarketLib_____________________________63e74207d68b876040518363ffffffff1660e01b815260040161135e929190614c2e565b602060405180830381865af415801561137b573d6000803e3d6000fd5b505050506040513d601f19601f8201168201806040525081019061139f9190614824565b73__MathLib_______________________________63de7f61709091876040518363ffffffff1660e01b81526004016113d9929190614c57565b602060405180830381865af41580156113f6573d6000803e3d6000fd5b505050506040513d601f19601f8201168201806040525081019061141a9190614824565b905073__MarketLib_____________________________637bc7ed788289898673ffffffffffffffffffffffffffffffffffffffff1663cfc2dc208f6040518263ffffffff1660e01b81526004016114729190613ab9565b602060405180830381865afa15801561148f573d6000803e3d6000fd5b505050506040513d601f19601f820116820180604052508101906114b39190614824565b8d6040518663ffffffff1660e01b81526004016114d4959493929190614c8f565b602060405180830381865af41580156114f1573d6000803e3d6000fd5b505050506040513d601f19601f820116820180604052508101906115159190614824565b93508373__MathLib_______________________________63fed4a0f390918473ffffffffffffffffffffffffffffffffffffffff1663430417f78d6040518263ffffffff1660e01b815260040161156d9190613ab9565b602060405180830381865afa15801561158a573d6000803e3d6000fd5b505050506040513d601f19601f820116820180604052508101906115ae9190614824565b6040518363ffffffff1660e01b81526004016115cb929190614c57565b602060405180830381865af41580156115e8573d6000803e3d6000fd5b505050506040513d601f19601f8201168201806040525081019061160c9190614824565b92505050955095509592505050565b61162482610cc2565b61162d816130ce565b61163783836130fc565b505050565b6116446131dc565b73ffffffffffffffffffffffffffffffffffffffff168173ffffffffffffffffffffffffffffffffffffffff16146116b1576040517f08c379a00000000000000000000000000000000000000000000000000000000081526004016116a890614d54565b60405180910390fd5b6116bb82826131e4565b5050565b600080611709600360008573ffffffffffffffffffffffffffffffffffffffff1673ffffffffffffffffffffffffffffffffffffffff16815260200190815260200160002061304c565b905060005b8181101561182857600061176982600360008873ffffffffffffffffffffffffffffffffffffffff1673ffffffffffffffffffffffffffffffffffffffff1681526020019081526020016000206132c590919063ffffffff16565b90506001818154811061177f5761177e6146b3565b5b90600052602060002090600e020173__OptionLib_____________________________63febf205490916040518263ffffffff1660e01b81526004016117c59190614b45565b602060405180830381865af41580156117e2573d6000803e3d6000fd5b505050506040513d601f19601f820116820180604052508101906118069190614d89565b156118145780935050611828565b50808061182090614db6565b91505061170e565b5050919050565b6000808473ffffffffffffffffffffffffffffffffffffffff16631f21f9af6040518163ffffffff1660e01b8152600401602060405180830381865afa15801561187d573d6000803e3d6000fd5b505050506040513d601f19601f820116820180604052508101906118a191906146f7565b905060008173ffffffffffffffffffffffffffffffffffffffff1663c0a16f6a6040518163ffffffff1660e01b8152600401602060405180830381865afa1580156118f0573d6000803e3d6000fd5b505050506040513d601f19601f820116820180604052508101906119149190614be0565b905060008173ffffffffffffffffffffffffffffffffffffffff1663b0667cf86040518163ffffffff1660e01b8152600401602060405180830381865afa158015611963573d6000803e3d6000fd5b505050506040513d601f19601f820116820180604052508101906119879190614824565b9050600073__MarketLib_____________________________63e74207d685846040518363ffffffff1660e01b81526004016119c4929190614c2e565b602060405180830381865af41580156119e1573d6000803e3d6000fd5b505050506040513d601f19601f82011682018060405250810190611a059190614824565b905060008890508715611b7c576000611a9c600660008473ffffffffffffffffffffffffffffffffffffffff1673ffffffffffffffffffffffffffffffffffffffff16815260200190815260200160002054600760008573ffffffffffffffffffffffffffffffffffffffff1673ffffffffffffffffffffffffffffffffffffffff168152602001908152602001600020546132df565b73__MathLib_______________________________63fed4a0f39091866040518363ffffffff1660e01b8152600401611ad6929190614c57565b602060405180830381865af4158015611af3573d6000803e3d6000fd5b505050506040513d601f19601f82011682018060405250810190611b179190614824565b9050611b6d600560008473ffffffffffffffffffffffffffffffffffffffff1673ffffffffffffffffffffffffffffffffffffffff1681526020019081526020016000205482611b679190614b0a565b846132f9565b83611b789190614dfe565b9250505b8615611ca55760008973ffffffffffffffffffffffffffffffffffffffff166318160ddd6040518163ffffffff1660e01b8152600401602060405180830381865afa158015611bcf573d6000803e3d6000fd5b505050506040513d601f19601f82011682018060405250810190611bf39190614824565b90506000811115611c81578273__MathLib_______________________________63de7f61709091836040518363ffffffff1660e01b8152600401611c39929190614c57565b602060405180830381865af4158015611c56573d6000803e3d6000fd5b505050506040513d601f19601f82011682018060405250810190611c7a9190614824565b9250611ca3565b600081148015611c915750600083145b15611ca257670de0b6b3a764000092505b5b505b81955050505050509392505050565b7f10b261d3bc7a74f38949f9212b0336103474898eda034c06ae0a3e478dc0e4a5611cde816130ce565b600060018381548110611cf457611cf36146b3565b5b90600052602060002090600e02019050600081600d0160009054906101000a900473ffffffffffffffffffffffffffffffffffffffff16905060008260000160039054906101000a900473ffffffffffffffffffffffffffffffffffffffff169050611da785600360008573ffffffffffffffffffffffffffffffffffffffff1673ffffffffffffffffffffffffffffffffffffffff16815260200190815260200160002061331290919063ffffffff16565b50611e3685600260008573ffffffffffffffffffffffffffffffffffffffff1673ffffffffffffffffffffffffffffffffffffffff16815260200190815260200160002060008473ffffffffffffffffffffffffffffffffffffffff1673ffffffffffffffffffffffffffffffffffffffff16815260200190815260200160002061331290919063ffffffff16565b508273__OptionLib_____________________________63bf38721c90916040518263ffffffff1660e01b8152600401611e709190614b45565b602060405180830381865af4158015611e8d573d6000803e3d6000fd5b505050506040513d601f19601f82011682018060405250810190611eb19190614b75565b600460008473ffffffffffffffffffffffffffffffffffffffff1673ffffffffffffffffffffffffffffffffffffffff1681526020019081526020016000206000828254611eff9190614e32565b92505081905550611fc8600660008473ffffffffffffffffffffffffffffffffffffffff1673ffffffffffffffffffffffffffffffffffffffff168152602001908152602001600020548473__OptionLib_____________________________632e5cf0a790916040518263ffffffff1660e01b8152600401611f829190614b45565b602060405180830381865af4158015611f9f573d6000803e3d6000fd5b505050506040513d601f19601f82011682018060405250810190611fc39190614824565b6132f9565b600660008473ffffffffffffffffffffffffffffffffffffffff1673ffffffffffffffffffffffffffffffffffffffff16815260200190815260200160002060008282546120169190614dfe565b925050819055506120df600760008473ffffffffffffffffffffffffffffffffffffffff1673ffffffffffffffffffffffffffffffffffffffff168152602001908152602001600020548473__OptionLib_____________________________6304a65c3e90916040518263ffffffff1660e01b81526004016120999190614b45565b602060405180830381865af41580156120b6573d6000803e3d6000fd5b505050506040513d601f19601f820116820180604052508101906120da9190614824565b6132f9565b600760008473ffffffffffffffffffffffffffffffffffffffff1673ffffffffffffffffffffffffffffffffffffffff168152602001908152602001600020600082825461212d9190614dfe565b925050819055506121f6600560008473ffffffffffffffffffffffffffffffffffffffff1673ffffffffffffffffffffffffffffffffffffffff168152602001908152602001600020548473__OptionLib_____________________________631b4fb86990916040518263ffffffff1660e01b81526004016121b09190614b45565b602060405180830381865af41580156121cd573d6000803e3d6000fd5b505050506040513d601f19601f820116820180604052508101906121f19190614824565b6132f9565b600560008473ffffffffffffffffffffffffffffffffffffffff1673ffffffffffffffffffffffffffffffffffffffff16815260200190815260200160002060008282546122449190614dfe565b9250508190555060038360000160026101000a81548160ff0219169083600381111561227357612272613b2d565b5b02179055504283600601819055505050505050565b60076020528060005260406000206000915090505481565b60066020528060005260406000206000915090505481565b606061233e600260008573ffffffffffffffffffffffffffffffffffffffff1673ffffffffffffffffffffffffffffffffffffffff16815260200190815260200160002060008473ffffffffffffffffffffffffffffffffffffffff1673ffffffffffffffffffffffffffffffffffffffff16815260200190815260200160002061332c565b905092915050565b60046020528060005260406000206000915090505481565b60008060008060018581548110612378576123776146b3565b5b90600052602060002090600e0201600d0160009054906101000a900473ffffffffffffffffffffffffffffffffffffffff16905060008173ffffffffffffffffffffffffffffffffffffffff16631f21f9af6040518163ffffffff1660e01b8152600401602060405180830381865afa1580156123f9573d6000803e3d6000fd5b505050506040513d601f19601f8201168201806040525081019061241d91906146f7565b73ffffffffffffffffffffffffffffffffffffffff1663c0a16f6a6040518163ffffffff1660e01b8152600401602060405180830381865afa158015612467573d6000803e3d6000fd5b505050506040513d601f19601f8201168201806040525081019061248b9190614be0565b9050600186815481106124a1576124a06146b3565b5b90600052602060002090600e020173__OptionLib_____________________________63357aa1df90918373ffffffffffffffffffffffffffffffffffffffff1663b0667cf86040518163ffffffff1660e01b8152600401602060405180830381865afa158015612516573d6000803e3d6000fd5b505050506040513d601f19601f8201168201806040525081019061253a9190614824565b6040518363ffffffff1660e01b8152600401612557929190614e75565b606060405180830381865af4158015612574573d6000803e3d6000fd5b505050506040513d601f19601f820116820180604052508101906125989190614e9e565b94509450945050509193909250565b600080600084815260200190815260200160002060000160008373ffffffffffffffffffffffffffffffffffffffff1673ffffffffffffffffffffffffffffffffffffffff16815260200190815260200160002060009054906101000a900460ff16905092915050565b60056020528060005260406000206000915090505481565b600080612673600360008573ffffffffffffffffffffffffffffffffffffffff1673ffffffffffffffffffffffffffffffffffffffff16815260200190815260200160002061304c565b905060005b8181101561278c5760016126d382600360008873ffffffffffffffffffffffffffffffffffffffff1673ffffffffffffffffffffffffffffffffffffffff1681526020019081526020016000206132c590919063ffffffff16565b815481106126e4576126e36146b3565b5b90600052602060002090600e020173__OptionLib_____________________________63febf205490916040518263ffffffff1660e01b815260040161272a9190614b45565b602060405180830381865af4158015612747573d6000803e3d6000fd5b505050506040513d601f19601f8201168201806040525081019061276b9190614d89565b15612779576001925061278c565b808061278490614db6565b915050612678565b5050919050565b6000801b81565b7f10b261d3bc7a74f38949f9212b0336103474898eda034c06ae0a3e478dc0e4a581565b60007f10b261d3bc7a74f38949f9212b0336103474898eda034c06ae0a3e478dc0e4a56127ea816130ce565b60008760e0015111612831576040517f08c379a000000000000000000000000000000000000000000000000000000000815260040161282890614f3d565b60405180910390fd5b600180549050915060016040518061022001604052808960000151600181111561285e5761285d613b2d565b5b81526020018960200151600181111561287a57612879613b2d565b5b81526020016000600381111561289357612892613b2d565b5b8152602001896060015173ffffffffffffffffffffffffffffffffffffffff168152602001848152602001428152602001600081526020018960e00151815260200160008152602001600081526020018961014001518152602001868152602001896101800151815260200185815260200188815260200187815260200189610200015173ffffffffffffffffffffffffffffffffffffffff1681525090806001815401808255809150506001900390600052602060002090600e020160009091909190915060008201518160000160006101000a81548160ff0219169083600181111561298457612983613b2d565b5b021790555060208201518160000160016101000a81548160ff021916908360018111156129b4576129b3613b2d565b5b021790555060408201518160000160026101000a81548160ff021916908360038111156129e4576129e3613b2d565b5b021790555060608201518160000160036101000a81548173ffffffffffffffffffffffffffffffffffffffff021916908373ffffffffffffffffffffffffffffffffffffffff1602179055506080820151816001015560a0820151816002015560c0820151816003015560e08201518160040155610100820151816005015561012082015181600601556101408201518160070155610160820151816008015561018082015181600901556101a082015181600a01556101c082015181600b01556101e082015181600c015561020082015181600d0160006101000a81548173ffffffffffffffffffffffffffffffffffffffff021916908373ffffffffffffffffffffffffffffffffffffffff16021790555050505095945050505050565b612b0d82610cc2565b612b16816130ce565b612b2083836131e4565b505050565b600080612b31856106ba565b905060008573ffffffffffffffffffffffffffffffffffffffff16631f21f9af6040518163ffffffff1660e01b8152600401602060405180830381865afa158015612b80573d6000803e3d6000fd5b505050506040513d601f19601f82011682018060405250810190612ba491906146f7565b905060008173ffffffffffffffffffffffffffffffffffffffff1663c0a16f6a6040518163ffffffff1660e01b8152600401602060405180830381865afa158015612bf3573d6000803e3d6000fd5b505050506040513d601f19601f82011682018060405250810190612c179190614be0565b905060005b83811015612e395760006001612c7983600360008d73ffffffffffffffffffffffffffffffffffffffff1673ffffffffffffffffffffffffffffffffffffffff1681526020019081526020016000206132c590919063ffffffff16565b81548110612c8a57612c896146b3565b5b90600052602060002090600e0201905060008173__OptionLib_____________________________633476369290916040518263ffffffff1660e01b8152600401612cd59190614b45565b602060405180830381865af4158015612cf2573d6000803e3d6000fd5b505050506040513d601f19601f82011682018060405250810190612d169190614824565b905060008473ffffffffffffffffffffffffffffffffffffffff1663cfc2dc20836040518263ffffffff1660e01b8152600401612d539190613ab9565b602060405180830381865afa158015612d70573d6000803e3d6000fd5b505050506040513d601f19601f82011682018060405250810190612d949190614824565b90508273__OptionLib_____________________________63334fe90d90918c848d6040518563ffffffff1660e01b8152600401612dd59493929190614f6c565b602060405180830381865af4158015612df2573d6000803e3d6000fd5b505050506040513d601f19601f82011682018060405250810190612e169190614b75565b88612e2191906147cb565b97505050508080612e3190614db6565b915050612c1c565b505050509392505050565b6060612e8d600360008473ffffffffffffffffffffffffffffffffffffffff1673ffffffffffffffffffffffffffffffffffffffff16815260200190815260200160002061332c565b9050919050565b6000806000806001805490508510612ee1576040517f08c379a0000000000000000000000000000000000000000000000000000000008152600401612ed890614ffd565b60405180910390fd5b60018581548110612ef557612ef46146b3565b5b90600052602060002090600e020160000160029054906101000a900460ff1660018681548110612f2857612f276146b3565b5b90600052602060002090600e020160000160019054906101000a900460ff1660018781548110612f5b57612f5a6146b3565b5b90600052602060002090600e020160000160039054906101000a900473ffffffffffffffffffffffffffffffffffffffff1660018881548110612fa157612fa06146b3565b5b90600052602060002090600e0201600d0160009054906101000a900473ffffffffffffffffffffffffffffffffffffffff1693509350935093509193509193565b60007f01ffc9a7000000000000000000000000000000000000000000000000000000007bffffffffffffffffffffffffffffffffffffffffffffffffffffffff1916827bffffffffffffffffffffffffffffffffffffffffffffffffffffffff1916149050919050565b600061305a8260000161334d565b9050919050565b60007f7fffffffffffffffffffffffffffffffffffffffffffffffffffffffffffffff8211156130c6576040517f08c379a00000000000000000000000000000000000000000000000000000000081526004016130bd9061508f565b60405180910390fd5b819050919050565b6130df816130da6131dc565b61335e565b50565b60006130f4836000018360001b6133fb565b905092915050565b61310682826125a7565b6131d857600160008084815260200190815260200160002060000160008373ffffffffffffffffffffffffffffffffffffffff1673ffffffffffffffffffffffffffffffffffffffff16815260200190815260200160002060006101000a81548160ff02191690831515021790555061317d6131dc565b73ffffffffffffffffffffffffffffffffffffffff168173ffffffffffffffffffffffffffffffffffffffff16837f2f8788117e7eff1d82e926ec794901d17c78024a50270940304540a733656f0d60405160405180910390a45b5050565b600033905090565b6131ee82826125a7565b156132c157600080600084815260200190815260200160002060000160008373ffffffffffffffffffffffffffffffffffffffff1673ffffffffffffffffffffffffffffffffffffffff16815260200190815260200160002060006101000a81548160ff0219169083151502179055506132666131dc565b73ffffffffffffffffffffffffffffffffffffffff168173ffffffffffffffffffffffffffffffffffffffff16837ff6391f5c32d9c69d2a47ea670b442974b53935d1edc7fd64eb21e047a839171b60405160405180910390a45b5050565b60006132d4836000018361346b565b60001c905092915050565b6000818310156132ef57816132f1565b825b905092915050565b6000818310613308578161330a565b825b905092915050565b6000613324836000018360001b613496565b905092915050565b6060600061333c836000016135aa565b905060608190508092505050919050565b600081600001805490509050919050565b61336882826125a7565b6133f75761338d8173ffffffffffffffffffffffffffffffffffffffff166014613606565b61339b8360001c6020613606565b6040516020016133ac9291906151b8565b6040516020818303038152906040526040517f08c379a00000000000000000000000000000000000000000000000000000000081526004016133ee919061522b565b60405180910390fd5b5050565b60006134078383613842565b613460578260000182908060018154018082558091505060019003906000526020600020016000909190919091505582600001805490508360010160008481526020019081526020016000208190555060019050613465565b600090505b92915050565b6000826000018281548110613483576134826146b3565b5b9060005260206000200154905092915050565b6000808360010160008481526020019081526020016000205490506000811461359e5760006001826134c89190614dfe565b90506000600186600001805490506134e09190614dfe565b905081811461354f576000866000018281548110613501576135006146b3565b5b9060005260206000200154905080876000018481548110613525576135246146b3565b5b90600052602060002001819055508387600101600083815260200190815260200160002081905550505b856000018054806135635761356261524d565b5b6001900381819060005260206000200160009055905585600101600086815260200190815260200160002060009055600193505050506135a4565b60009150505b92915050565b6060816000018054806020026020016040519081016040528092919081815260200182805480156135fa57602002820191906000526020600020905b8154815260200190600101908083116135e6575b50505050509050919050565b606060006002836002613619919061527c565b6136239190614b0a565b67ffffffffffffffff81111561363c5761363b613de3565b5b6040519080825280601f01601f19166020018201604052801561366e5781602001600182028036833780820191505090505b5090507f3000000000000000000000000000000000000000000000000000000000000000816000815181106136a6576136a56146b3565b5b60200101907effffffffffffffffffffffffffffffffffffffffffffffffffffffffffffff1916908160001a9053507f78000000000000000000000000000000000000000000000000000000000000008160018151811061370a576137096146b3565b5b60200101907effffffffffffffffffffffffffffffffffffffffffffffffffffffffffffff1916908160001a9053506000600184600261374a919061527c565b6137549190614b0a565b90505b60018111156137f4577f3031323334353637383961626364656600000000000000000000000000000000600f861660108110613796576137956146b3565b5b1a60f81b8282815181106137ad576137ac6146b3565b5b60200101907effffffffffffffffffffffffffffffffffffffffffffffffffffffffffffff1916908160001a905350600485901c9450806137ed906152be565b9050613757565b5060008414613838576040517f08c379a000000000000000000000000000000000000000000000000000000000815260040161382f90615333565b60405180910390fd5b8091505092915050565b600080836001016000848152602001908152602001600020541415905092915050565b6040518061022001604052806000600181111561388557613884613b2d565b5b81526020016000600181111561389e5761389d613b2d565b5b8152602001600060038111156138b7576138b6613b2d565b5b8152602001600073ffffffffffffffffffffffffffffffffffffffff168152602001600081526020016000815260200160008152602001600081526020016000815260200160008152602001600081526020016000815260200160008152602001600081526020016000815260200160008152602001600073ffffffffffffffffffffffffffffffffffffffff1681525090565b6000604051905090565b600080fd5b60007fffffffff0000000000000000000000000000000000000000000000000000000082169050919050565b61398f8161395a565b811461399a57600080fd5b50565b6000813590506139ac81613986565b92915050565b6000602082840312156139c8576139c7613955565b5b60006139d68482850161399d565b91505092915050565b60008115159050919050565b6139f4816139df565b82525050565b6000602082019050613a0f60008301846139eb565b92915050565b600073ffffffffffffffffffffffffffffffffffffffff82169050919050565b6000613a4082613a15565b9050919050565b613a5081613a35565b8114613a5b57600080fd5b50565b600081359050613a6d81613a47565b92915050565b600060208284031215613a8957613a88613955565b5b6000613a9784828501613a5e565b91505092915050565b6000819050919050565b613ab381613aa0565b82525050565b6000602082019050613ace6000830184613aaa565b92915050565b613add81613aa0565b8114613ae857600080fd5b50565b600081359050613afa81613ad4565b92915050565b600060208284031215613b1657613b15613955565b5b6000613b2484828501613aeb565b91505092915050565b7f4e487b7100000000000000000000000000000000000000000000000000000000600052602160045260246000fd5b60028110613b6d57613b6c613b2d565b5b50565b6000819050613b7e82613b5c565b919050565b6000613b8e82613b70565b9050919050565b613b9e81613b83565b82525050565b60028110613bb557613bb4613b2d565b5b50565b6000819050613bc682613ba4565b919050565b6000613bd682613bb8565b9050919050565b613be681613bcb565b82525050565b60048110613bfd57613bfc613b2d565b5b50565b6000819050613c0e82613bec565b919050565b6000613c1e82613c00565b9050919050565b613c2e81613c13565b82525050565b613c3d81613a35565b82525050565b613c4c81613aa0565b82525050565b61022082016000820151613c696000850182613b95565b506020820151613c7c6020850182613bdd565b506040820151613c8f6040850182613c25565b506060820151613ca26060850182613c34565b506080820151613cb56080850182613c43565b5060a0820151613cc860a0850182613c43565b5060c0820151613cdb60c0850182613c43565b5060e0820151613cee60e0850182613c43565b50610100820151613d03610100850182613c43565b50610120820151613d18610120850182613c43565b50610140820151613d2d610140850182613c43565b50610160820151613d42610160850182613c43565b50610180820151613d57610180850182613c43565b506101a0820151613d6c6101a0850182613c43565b506101c0820151613d816101c0850182613c43565b506101e0820151613d966101e0850182613c43565b50610200820151613dab610200850182613c34565b50505050565b600061022082019050613dc76000830184613c52565b92915050565b600080fd5b6000601f19601f8301169050919050565b7f4e487b7100000000000000000000000000000000000000000000000000000000600052604160045260246000fd5b613e1b82613dd2565b810181811067ffffffffffffffff82111715613e3a57613e39613de3565b5b80604052505050565b6000613e4d61394b565b9050613e598282613e12565b919050565b60028110613e6b57600080fd5b50565b600081359050613e7d81613e5e565b92915050565b60028110613e9057600080fd5b50565b600081359050613ea281613e83565b92915050565b60048110613eb557600080fd5b50565b600081359050613ec781613ea8565b92915050565b60006102208284031215613ee457613ee3613dcd565b5b613eef610220613e43565b90506000613eff84828501613e6e565b6000830152506020613f1384828501613e93565b6020830152506040613f2784828501613eb8565b6040830152506060613f3b84828501613a5e565b6060830152506080613f4f84828501613aeb565b60808301525060a0613f6384828501613aeb565b60a08301525060c0613f7784828501613aeb565b60c08301525060e0613f8b84828501613aeb565b60e083015250610100613fa084828501613aeb565b61010083015250610120613fb684828501613aeb565b61012083015250610140613fcc84828501613aeb565b61014083015250610160613fe284828501613aeb565b61016083015250610180613ff884828501613aeb565b610180830152506101a061400e84828501613aeb565b6101a0830152506101c061402484828501613aeb565b6101c0830152506101e061403a84828501613aeb565b6101e08301525061020061405084828501613a5e565b6102008301525092915050565b614066816139df565b811461407157600080fd5b50565b6000813590506140838161405d565b92915050565b60008061024083850312156140a1576140a0613955565b5b60006140af85828601613ecd565b9250506102206140c185828601614074565b9150509250929050565b60006080820190506140e06000830187613aaa565b6140ed6020830186613aaa565b6140fa6040830185613aaa565b6141076060830184613aaa565b95945050505050565b6000819050919050565b61412381614110565b811461412e57600080fd5b50565b6000813590506141408161411a565b92915050565b60006020828403121561415c5761415b613955565b5b600061416a84828501614131565b91505092915050565b61417c81614110565b82525050565b60006020820190506141976000830184614173565b92915050565b600080604083850312156141b4576141b3613955565b5b60006141c285828601613aeb565b92505060206141d385828601613a5e565b9150509250929050565b60006141e882613a35565b9050919050565b6141f8816141dd565b811461420357600080fd5b50565b600081359050614215816141ef565b92915050565b6000819050919050565b61422e8161421b565b811461423957600080fd5b50565b60008135905061424b81614225565b92915050565b600080600080600060a0868803121561426d5761426c613955565b5b600061427b88828901614206565b955050602061428c88828901613aeb565b945050604061429d88828901613aeb565b93505060606142ae8882890161423c565b92505060806142bf8882890161423c565b9150509295509295909350565b60006060820190506142e16000830186613aaa565b6142ee6020830185613aaa565b6142fb6040830184613aaa565b949350505050565b6000806040838503121561431a57614319613955565b5b600061432885828601614131565b925050602061433985828601613a5e565b9150509250929050565b600061434e82613a35565b9050919050565b61435e81614343565b811461436957600080fd5b50565b60008135905061437b81614355565b92915050565b60008060006060848603121561439a57614399613955565b5b60006143a88682870161436c565b93505060206143b986828701614074565b92505060406143ca86828701614074565b9150509250925092565b600080604083850312156143eb576143ea613955565b5b60006143f985828601613a5e565b925050602061440a85828601613a5e565b9150509250929050565b600081519050919050565b600082825260208201905092915050565b6000819050602082019050919050565b600061444c8383613c43565b60208301905092915050565b6000602082019050919050565b600061447082614414565b61447a818561441f565b935061448583614430565b8060005b838110156144b657815161449d8882614440565b97506144a883614458565b925050600181019050614489565b5085935050505092915050565b600060208201905081810360008301526144dd8184614465565b905092915050565b6144ee8161421b565b82525050565b600060208201905061450960008301846144e5565b92915050565b60008060008060006102a0868803121561452c5761452b613955565b5b600061453a88828901613ecd565b95505061022061454c88828901613aeb565b94505061024061455e88828901613aeb565b93505061026061457088828901613aeb565b92505061028061458288828901613aeb565b9150509295509295909350565b6000806000606084860312156145a8576145a7613955565b5b60006145b686828701613a5e565b93505060206145c786828701613aeb565b92505060406145d886828701614074565b9150509250925092565b6145eb81613c13565b82525050565b6145fa81613bcb565b82525050565b61460981613a35565b82525050565b6000819050919050565b600061463461462f61462a84613a15565b61460f565b613a15565b9050919050565b600061464682614619565b9050919050565b60006146588261463b565b9050919050565b6146688161464d565b82525050565b600060808201905061468360008301876145e2565b61469060208301866145f1565b61469d6040830185614600565b6146aa606083018461465f565b95945050505050565b7f4e487b7100000000000000000000000000000000000000000000000000000000600052603260045260246000fd5b6000815190506146f1816141ef565b92915050565b60006020828403121561470d5761470c613955565b5b600061471b848285016146e2565b91505092915050565b7f4e487b7100000000000000000000000000000000000000000000000000000000600052601160045260246000fd5b600061475e8261421b565b91506147698361421b565b92508282026147778161421b565b91507f800000000000000000000000000000000000000000000000000000000000000084146000841216156147af576147ae614724565b5b82820584148315176147c4576147c3614724565b5b5092915050565b60006147d68261421b565b91506147e18361421b565b92508282019050828112156000831216838212600084121516171561480957614808614724565b5b92915050565b60008151905061481e81613ad4565b92915050565b60006020828403121561483a57614839613955565b5b60006148488482850161480f565b91505092915050565b61485a81613b83565b82525050565b61486981613bcb565b82525050565b61487881613c13565b82525050565b61488781613a35565b82525050565b61489681613aa0565b82525050565b610220820160008201516148b36000850182614851565b5060208201516148c66020850182614860565b5060408201516148d9604085018261486f565b5060608201516148ec606085018261487e565b5060808201516148ff608085018261488d565b5060a082015161491260a085018261488d565b5060c082015161492560c085018261488d565b5060e082015161493860e085018261488d565b5061010082015161494d61010085018261488d565b5061012082015161496261012085018261488d565b5061014082015161497761014085018261488d565b5061016082015161498c61016085018261488d565b506101808201516149a161018085018261488d565b506101a08201516149b66101a085018261488d565b506101c08201516149cb6101c085018261488d565b506101e08201516149e06101e085018261488d565b506102008201516149f561020085018261487e565b50505050565b614a0481613aa0565b82525050565b600061028082019050614a20600083018761489c565b614a2e6102208301866149fb565b614a3c6102408301856149fb565b614a4a6102608301846149fb565b95945050505050565b600061026082019050614a69600083018661489c565b614a776102208301856149fb565b614a856102408301846149fb565b949350505050565b600082825260208201905092915050565b7f3061646472000000000000000000000000000000000000000000000000000000600082015250565b6000614ad4600583614a8d565b9150614adf82614a9e565b602082019050919050565b60006020820190508181036000830152614b0381614ac7565b9050919050565b6000614b1582613aa0565b9150614b2083613aa0565b9250828201905080821115614b3857614b37614724565b5b92915050565b8082525050565b6000602082019050614b5a6000830184614b3e565b92915050565b600081519050614b6f81614225565b92915050565b600060208284031215614b8b57614b8a613955565b5b6000614b9984828501614b60565b91505092915050565b6000614bad82613a35565b9050919050565b614bbd81614ba2565b8114614bc857600080fd5b50565b600081519050614bda81614bb4565b92915050565b600060208284031215614bf657614bf5613955565b5b6000614c0484828501614bcb565b91505092915050565b6000614c188261463b565b9050919050565b614c2881614c0d565b82525050565b6000604082019050614c436000830185614c1f565b614c5060208301846149fb565b9392505050565b6000604082019050614c6c60008301856149fb565b614c7960208301846149fb565b9392505050565b614c898161421b565b82525050565b600060a082019050614ca460008301886149fb565b614cb16020830187614c80565b614cbe6040830186614c80565b614ccb60608301856149fb565b614cd860808301846149fb565b9695505050505050565b7f416363657373436f6e74726f6c3a2063616e206f6e6c792072656e6f756e636560008201527f20726f6c657320666f722073656c660000000000000000000000000000000000602082015250565b6000614d3e602f83614a8d565b9150614d4982614ce2565b604082019050919050565b60006020820190508181036000830152614d6d81614d31565b9050919050565b600081519050614d838161405d565b92915050565b600060208284031215614d9f57614d9e613955565b5b6000614dad84828501614d74565b91505092915050565b6000614dc182613aa0565b91507fffffffffffffffffffffffffffffffffffffffffffffffffffffffffffffffff8203614df357614df2614724565b5b600182019050919050565b6000614e0982613aa0565b9150614e1483613aa0565b9250828203905081811115614e2c57614e2b614724565b5b92915050565b6000614e3d8261421b565b9150614e488361421b565b9250828203905081811260008412168282136000851215161715614e6f57614e6e614724565b5b92915050565b6000604082019050614e8a6000830185614b3e565b614e9760208301846149fb565b9392505050565b600080600060608486031215614eb757614eb6613955565b5b6000614ec58682870161480f565b9350506020614ed68682870161480f565b9250506040614ee78682870161480f565b9150509250925092565b7f5a65726f2074656e6f7200000000000000000000000000000000000000000000600082015250565b6000614f27600a83614a8d565b9150614f3282614ef1565b602082019050919050565b60006020820190508181036000830152614f5681614f1a565b9050919050565b614f66816139df565b82525050565b6000608082019050614f816000830187614b3e565b614f8e60208301866149fb565b614f9b60408301856149fb565b614fa86060830184614f5d565b95945050505050565b7f2d49440000000000000000000000000000000000000000000000000000000000600082015250565b6000614fe7600383614a8d565b9150614ff282614fb1565b602082019050919050565b6000602082019050818103600083015261501681614fda565b9050919050565b7f53616665436173743a2076616c756520646f65736e27742066697420696e206160008201527f6e20696e74323536000000000000000000000000000000000000000000000000602082015250565b6000615079602883614a8d565b91506150848261501d565b604082019050919050565b600060208201905081810360008301526150a88161506c565b9050919050565b600081905092915050565b7f416363657373436f6e74726f6c3a206163636f756e7420000000000000000000600082015250565b60006150f06017836150af565b91506150fb826150ba565b601782019050919050565b600081519050919050565b60005b8381101561512f578082015181840152602081019050615114565b60008484015250505050565b600061514682615106565b61515081856150af565b9350615160818560208601615111565b80840191505092915050565b7f206973206d697373696e6720726f6c6520000000000000000000000000000000600082015250565b60006151a26011836150af565b91506151ad8261516c565b601182019050919050565b60006151c3826150e3565b91506151cf828561513b565b91506151da82615195565b91506151e6828461513b565b91508190509392505050565b60006151fd82615106565b6152078185614a8d565b9350615217818560208601615111565b61522081613dd2565b840191505092915050565b6000602082019050818103600083015261524581846151f2565b905092915050565b7f4e487b7100000000000000000000000000000000000000000000000000000000600052603160045260246000fd5b600061528782613aa0565b915061529283613aa0565b92508282026152a081613aa0565b915082820484148315176152b7576152b6614724565b5b5092915050565b60006152c982613aa0565b9150600082036152dc576152db614724565b5b600182039050919050565b7f537472696e67733a20686578206c656e67746820696e73756666696369656e74600082015250565b600061531d602083614a8d565b9150615328826152e7565b602082019050919050565b6000602082019050818103600083015261534c81615310565b905091905056fea2646970667358221220762e90db3fb6d95154cf260ad30bce09ba327b73af7f133d682321edad74106c64736f6c63430008110033",
  "immutableReferences": {},
  "source": "// SPDX-License-Identifier: MIT\npragma solidity ^0.8.4;\n\nimport \"@openzeppelin/contracts/access/AccessControl.sol\";\nimport \"@openzeppelin/contracts/utils/structs/EnumerableSet.sol\";\nimport \"./libraries/MarketLib.sol\";\nimport \"./libraries/OptionLib.sol\";\nimport \"./libraries/MathLib.sol\";\nimport \"./interfaces/EOption.sol\";\nimport \"./pools/Pool.sol\";\nimport \"./pools/MarketMaker.sol\";\nimport \"./VolatilityChain.sol\";\nimport \"./VolatilityToken.sol\";\n\ncontract OptionVault is EOption, AccessControl{\n  using MathLib for uint256;\n  using MarketLib for uint256;\n  \n  using OptionLib for OptionLib.Option;\n  using EnumerableSet for EnumerableSet.UintSet;\n  using EnumerableSet for EnumerableSet.AddressSet;\n\n  bytes32 public constant EXCHANGE = keccak256(\"EXCHANGE\");\n  \n  // list of option contracts\n  OptionLib.Option[] internal aOption;\n  mapping(address=>mapping(address=> EnumerableSet.UintSet)) internal mHolderAtiveOption;\n  mapping(address=>EnumerableSet.UintSet) internal mActiveOption;\n  mapping(address=>int256) public mNetNotional;\n  mapping(address=>uint256) public mPutCollateral;\n  mapping(address=>uint256) public mDeltaAtZero;\n  mapping(address=>uint256) public mDeltaAtMax;\n\n  // immutable and constant values\n  uint256 internal constant BASE  = 1e18;\n  uint256 internal constant SCALING = 1e5;\n\n  // constructor\n  constructor(){\n    _setupRole(DEFAULT_ADMIN_ROLE, msg.sender); }\n\n  // function to add new option contracts, only executable by Exchange contract as owner\n  // arguments: tenor of option contracts (in seconds), strike (consistent with price source decimals), amount (consistent with underlying token decimals), option type (call or put), option side (buy or sell), premium (in funding token decimals), cost (in funding token decimals), price (in price source decimals), volatility (in default decimals 18), holder address\n  // return id of option contract\n  function addOption(OptionLib.Option memory _option, uint256 _premium, uint256 _collateral, uint256 _price, uint256 _vol) external onlyRole(EXCHANGE) returns(uint256 _id){\n    require(_option.tenor > 0, \"Zero tenor\");\n    _id = aOption.length;\n    // Arguments: option type, option side, contract status (default to draft), contract holder address, contract id, creation timestamp, effective timestamp (default to 0), tenor in seconds, maturity timestamp (default to 0), excersie timestamp (default to 0), amount or size of contract, current spot price, option strike, implied volatility, calculated premium and total cost including collaterals.\n    aOption.push(OptionLib.Option(_option.poType, _option.side, OptionLib.OptionStatus.Draft, _option.holder, _id, block.timestamp,  0, _option.tenor, 0,  0, _option.amount, _price, _option.strike, _vol, _premium, _collateral, _option.pool));}\n\n  // function to stamp option as an active contract, only executable by Exchange contract as owner\n  // arguments: contract id and holder address\n  function stampActiveOption(uint256 _id, address _holder) external onlyRole(EXCHANGE){\n    require(_holder != address(0), \"0addr\"); \n\n    // update Option records\n    OptionLib.Option storage _option = aOption[_id];\n    _option.effectiveTime = block.timestamp;\n    _option.maturity = block.timestamp + _option.tenor;\n    _option.status = OptionLib.OptionStatus.Active;\n    \n    // update ownership and exposure records\n    address _poolAddress = _option.pool;\n    mNetNotional[_poolAddress] += _option.getNetNotional();\n    mPutCollateral[_poolAddress] += _option.sellPutCollateral();\n    mDeltaAtZero[_poolAddress] += _option.calcDeltaAtZero();\n    mDeltaAtMax[_poolAddress] += _option.calcDeltaAtMax();\n\n    mHolderAtiveOption[_poolAddress][_holder].add(_id);\n    mActiveOption[_poolAddress].add(_id);}\n\n  // function to stamp option as an expired contract, only executable by Exchange contract as owner\n  // arguments: contract id\n  function stampExpiredOption(uint256 _id)  external onlyRole(EXCHANGE){\n    // update Option records\n    OptionLib.Option storage _option = aOption[_id];\n    address _poolAddress = _option.pool;\n    address _holder = _option.holder;\n    mActiveOption[_poolAddress].remove(_id);\n    mHolderAtiveOption[_poolAddress][_holder].remove(_id);\n\n    mNetNotional[_poolAddress] -= _option.getNetNotional();\n    mDeltaAtZero[_poolAddress] -= Math.min(mDeltaAtZero[_poolAddress], _option.calcDeltaAtZero());\n    mDeltaAtMax[_poolAddress] -= Math.min(mDeltaAtMax[_poolAddress], _option.calcDeltaAtMax());\n    mPutCollateral[_poolAddress] -= Math.min(mPutCollateral[_poolAddress], _option.sellPutCollateral());\n   \n    _option.status = OptionLib.OptionStatus.Expired;\n    _option.exerciseTime = block.timestamp;}\n\n  // functions to get information of the option list -> ONLY USED in VIEW, gas cost unlimited\n  function getHolderOptions(address _pool, address _address) external view returns(uint256[] memory){\n    return mHolderAtiveOption[_pool][_address].values();}\n  function getOption(uint256 _id) external view returns(OptionLib.Option memory) {return aOption[_id];}\n  function getActiveOptionCount(address _poolAddress) public view returns(uint256) {return mActiveOption[_poolAddress].length();}\n  function getActiveOptions(address _poolAddress) external view returns(uint256[] memory) {return mActiveOption[_poolAddress].values();}\n\n  // function getHoldersOption(uint256 _index, address _address) external view returns(OptionLib.Option memory) {return aOption[activeOptionsPerOwner[_address].at(_index)];}\n  function getOptionInfo(uint256 _id) external view returns(OptionLib.OptionStatus, OptionLib.OptionSide, address, Pool) {\n    require(_id< aOption.length, '-ID');\n    return (aOption[_id].status, aOption[_id].side, aOption[_id].holder, Pool(aOption[_id].pool));}\n\n  // functions to get the hedging inputs\n  // maximum hedges needed \n  // function getMaxHedge(Pool _pool) external view returns (uint256){\n  //   VolatilityChain _volChain = _pool.volChain();\n  //   address _poolAddress = address(_pool);\n  //   return Math.max(mDeltaAtZero[_poolAddress], mDeltaAtMax[_poolAddress]).ethmul(_volChain.queryPrice());}\n\n  // aggregate delta of all active contracts, optional including expiring contracts yet stamped as Expired. Arguments: spot price and whether to include expiring contracts\n  function calculateAggregateDelta(address _pool, uint256 _price, bool _includeExpiring) external view returns(int256 _delta){\n    _delta= 0;\n    uint256 _activeContractCount = getActiveOptionCount(_pool);\n    MarketMaker _marketMaker = Pool(_pool).marketMaker();\n    VolatilityChain _volChain = _marketMaker.getVolatilityChain();\n    for(uint256 i=0;i< _activeContractCount;i++){\n      OptionLib.Option storage _option = aOption[uint256(mActiveOption[_pool].at(i))];\n      uint256 _maturityLeft = _option.calcRemainingMaturity();\n      uint256 _vol = _volChain.queryVol(_maturityLeft);\n      _delta += _option.calcDelta(_price, _vol, _includeExpiring);}}\n  \n  // aggregate gamma. Arguments: spot price\n  // function calculateAggregateGamma(address _pool, uint256 _price) external view returns(int256 _gamma){\n  //   _gamma= 0;\n  //   for(uint256 i=0;i<activeContractCount;i++){\n  //     uint256 _id = uint256(activeOptions.at(i));\n  //     if(aOption[_id].status== OptionLib.OptionStatus.Active  && (aOption[_id].maturity > block.timestamp)){\n  //       uint256 _vol = volChain.queryVol(aOption[_id].maturity - block.timestamp);\n  //       int256 _contractGamma = SafeCast.toInt256(OptionLib.calcGamma(_price, aOption[_id].strike, _vol).ethmul(aOption[_id].amount));\n  //       if(aOption[_id].side==OptionLib.OptionSide.Sell){ _gamma -= _contractGamma;}\n  //       else{_gamma += _contractGamma;}}}}\n\n  // hypothetical gamma assuming at the money and 1-day expiry\n  // function calculateSpotGamma() external view returns(int256 _gamma){\n  //   uint256 _vol = volChain.queryVol(86400);\n  //   _gamma = SafeCast.toInt256(OptionLib.calcGamma(BASE, BASE, _vol));}\n\n  // functions used in expiring option contracts\n  // contract payoff of specified contract ID\n  function getContractPayoff(uint256 _id) external view returns(uint256 _payoff, uint256 _payback, uint256 _collateral){\n    Pool _pool = Pool(aOption[_id].pool);\n    VolatilityChain _volChain = _pool.marketMaker().getVolatilityChain();\n    return aOption[_id].calcPayoff(_volChain.queryPrice());}\n    \n  // check if any option contract is expiring\n  function anyOptionExpiring(address _poolAddress) external view returns(bool _isExpiring) {\n    _isExpiring = false;\n    uint256 _count = mActiveOption[_poolAddress].length();\n    for(uint256 i=0;i<_count;i++){\n      if(aOption[uint256(mActiveOption[_poolAddress].at(i))].isExpiring()){\n        _isExpiring = true;\n        break;}}}\n  // get the id of any expiring contract -> please only run it on view function as it has unlimited gas usage.\n  function getExpiringOptionId(address _poolAddress) external view returns(uint256 _id){\n    // uint256[] memory _id;\n    uint256 _count = mActiveOption[_poolAddress].length();\n    for(uint256 i=0;i<_count;i++){\n      uint256 _id_i = uint256(mActiveOption[_poolAddress].at(i));\n      if(aOption[_id_i].isExpiring()){\n        _id = _id_i;\n        break;}}}\n\n  // function tryATMOptionCost(Pool _pool, uint256 _tenor, uint256 _amount, OptionLib.PayoffType _poType, OptionLib.OptionSide _side) public view returns(uint256 _premium, uint256 _collateral, uint256 _price, uint256 _volatilty){\n  //   OptionLib.Option memory _option = OptionLib.Option(_poType, _side, OptionLib.OptionStatus.Draft, msg.sender, 0, block.timestamp,  0, _tenor, 0,  0, _amount, 0, 0, 0, 0, 0, address(_pool));\n  //   return calcOptionCost(_option, true);\n  // }\n\n  function calcOptionCost(OptionLib.Option memory _option, bool _forceATM) public view returns(uint256 _premium, uint256 _collateral, uint256 _price, uint256 _annualisedVol){\n    Pool _pool = Pool(_option.pool);\n    MarketMaker _market = _pool.marketMaker();\n\n    int256 _newNetNotional = mNetNotional[_option.pool] + SafeCast.toInt256(_option.amount) * (_option.side==OptionLib.OptionSide.Sell? -1: int(1));\n    uint256 _impVol; // vol * sqrt(t)\n    (_price, _impVol, _annualisedVol) = calcImpliedVol(_market, _option.tenor, _pool.volCapacityFactor(), mNetNotional[_option.pool], _newNetNotional);\n    \n    if (_forceATM){_option.strike = _price;}\n\n    _premium = _option.calcPremium(_price, _impVol, _market.loanInterest());\n    _collateral = _option.calcCollateral(_price, _premium);}\n\n  function calcImpliedVol(MarketMaker _market, uint256 _tenor, uint256 _volCapacityFactor, int256 _currentNetNotional, int256 _newNetNotional) public view returns(uint256 _price, uint256 _impVol, uint256 _annualisedVol){\n    VolatilityChain _volChain = _market.getVolatilityChain();\n    _price = _volChain.queryPrice();\n    uint256 _capitalInNotional = MarketLib.getGrossCapital(_market, _price).ethdiv(_price);\n    _impVol = MarketLib.calcRiskPremium(_capitalInNotional, _currentNetNotional, _newNetNotional, _volChain.queryVol(_tenor), _volCapacityFactor);\n    _annualisedVol = _impVol.ethmul(_volChain.getSqrtRatio(_tenor));}\n    \n  // functions related to capital calculation, addition and removals\n  // calculate capitals. Arguments: net for net capital (removing all collaterals and max exposures of option contracts) or gross (including all exposures in the underlying and funding tokens), average for average capital (total divided by number of Pool tokens) or gross (not divided by tokens)\n  function calcCapital(Pool _pool, bool _net, bool _average) external view returns(uint256){\n    MarketMaker _market = _pool.marketMaker();\n    VolatilityChain _volChain = _market.getVolatilityChain();\n    uint256 _price = _volChain.queryPrice();\n    uint256 _capital = MarketLib.getGrossCapital(_market, _price);\n    address _poolAddress = address(_pool);\n\n    if(_net){ \n      uint256 _maxHedge = Math.max(mDeltaAtZero[_poolAddress], mDeltaAtMax[_poolAddress]).ethmul(_price);\n      _capital -= Math.min(_maxHedge + mPutCollateral[_poolAddress], _capital);}\n\n    if(_average){ \n      uint256 _poolSupply = _pool.totalSupply();\n      if(_poolSupply > 0) {\n        _capital = _capital.ethdiv(_poolSupply); }\n      else if(_poolSupply == 0 && _capital == 0) {\n        _capital = BASE;}}\n    \n    return _capital;}\n}\n",
  "sourcePath": "/Users/mac/Documents/GitHub/moret/contracts/OptionVault.sol",
  "compiler": {
    "name": "solc",
    "version": "0.8.17+commit.8df45f5f.Emscripten.clang"
  },
  "schemaVersion": "3.4.3",
  "updatedAt": "2022-09-13T03:43:47.310Z",
  "devdoc": {
    "kind": "dev",
    "methods": {
      "getRoleAdmin(bytes32)": {
        "details": "Returns the admin role that controls `role`. See {grantRole} and {revokeRole}. To change a role's admin, use {_setRoleAdmin}."
      },
      "grantRole(bytes32,address)": {
        "details": "Grants `role` to `account`. If `account` had not been already granted `role`, emits a {RoleGranted} event. Requirements: - the caller must have ``role``'s admin role."
      },
      "hasRole(bytes32,address)": {
        "details": "Returns `true` if `account` has been granted `role`."
      },
      "renounceRole(bytes32,address)": {
        "details": "Revokes `role` from the calling account. Roles are often managed via {grantRole} and {revokeRole}: this function's purpose is to provide a mechanism for accounts to lose their privileges if they are compromised (such as when a trusted device is misplaced). If the calling account had been revoked `role`, emits a {RoleRevoked} event. Requirements: - the caller must be `account`."
      },
      "revokeRole(bytes32,address)": {
        "details": "Revokes `role` from `account`. If `account` had been granted `role`, emits a {RoleRevoked} event. Requirements: - the caller must have ``role``'s admin role."
      },
      "supportsInterface(bytes4)": {
        "details": "See {IERC165-supportsInterface}."
      }
    },
    "version": 1
  },
  "userdoc": {
    "kind": "user",
    "methods": {},
    "version": 1
  }
}