{
  "contractName": "OptionLib",
  "abi": [
    {
      "inputs": [
        {
          "components": [
            {
              "internalType": "enum OptionLib.PayoffType",
              "name": "poType",
              "type": "OptionLib.PayoffType"
            },
            {
              "internalType": "enum OptionLib.OptionSide",
              "name": "side",
              "type": "OptionLib.OptionSide"
            },
            {
              "internalType": "enum OptionLib.OptionStatus",
              "name": "status",
              "type": "OptionLib.OptionStatus"
            },
            {
              "internalType": "address",
              "name": "holder",
              "type": "address"
            },
            {
              "internalType": "uint256",
              "name": "id",
              "type": "uint256"
            },
            {
              "internalType": "uint256",
              "name": "createTime",
              "type": "uint256"
            },
            {
              "internalType": "uint256",
              "name": "effectiveTime",
              "type": "uint256"
            },
            {
              "internalType": "uint256",
              "name": "tenor",
              "type": "uint256"
            },
            {
              "internalType": "uint256",
              "name": "maturity",
              "type": "uint256"
            },
            {
              "internalType": "uint256",
              "name": "exerciseTime",
              "type": "uint256"
            },
            {
              "internalType": "uint256",
              "name": "amount",
              "type": "uint256"
            },
            {
              "internalType": "uint256",
              "name": "spot",
              "type": "uint256"
            },
            {
              "internalType": "uint256",
              "name": "strike",
              "type": "uint256"
            },
            {
              "internalType": "uint256",
              "name": "volatility",
              "type": "uint256"
            },
            {
              "internalType": "uint256",
              "name": "premium",
              "type": "uint256"
            },
            {
              "internalType": "uint256",
              "name": "cost",
              "type": "uint256"
            },
            {
              "internalType": "address",
              "name": "pool",
              "type": "address"
            }
          ],
          "internalType": "struct OptionLib.Option",
          "name": "_option",
          "type": "tuple"
        },
        {
          "internalType": "uint256",
          "name": "_price",
          "type": "uint256"
        }
      ],
      "name": "calcIntrinsicValue",
      "outputs": [
        {
          "internalType": "uint256",
          "name": "",
          "type": "uint256"
        }
      ],
      "stateMutability": "pure",
      "type": "function",
      "constant": true
    },
    {
      "inputs": [
        {
          "components": [
            {
              "internalType": "enum OptionLib.PayoffType",
              "name": "poType",
              "type": "OptionLib.PayoffType"
            },
            {
              "internalType": "enum OptionLib.OptionSide",
              "name": "side",
              "type": "OptionLib.OptionSide"
            },
            {
              "internalType": "enum OptionLib.OptionStatus",
              "name": "status",
              "type": "OptionLib.OptionStatus"
            },
            {
              "internalType": "address",
              "name": "holder",
              "type": "address"
            },
            {
              "internalType": "uint256",
              "name": "id",
              "type": "uint256"
            },
            {
              "internalType": "uint256",
              "name": "createTime",
              "type": "uint256"
            },
            {
              "internalType": "uint256",
              "name": "effectiveTime",
              "type": "uint256"
            },
            {
              "internalType": "uint256",
              "name": "tenor",
              "type": "uint256"
            },
            {
              "internalType": "uint256",
              "name": "maturity",
              "type": "uint256"
            },
            {
              "internalType": "uint256",
              "name": "exerciseTime",
              "type": "uint256"
            },
            {
              "internalType": "uint256",
              "name": "amount",
              "type": "uint256"
            },
            {
              "internalType": "uint256",
              "name": "spot",
              "type": "uint256"
            },
            {
              "internalType": "uint256",
              "name": "strike",
              "type": "uint256"
            },
            {
              "internalType": "uint256",
              "name": "volatility",
              "type": "uint256"
            },
            {
              "internalType": "uint256",
              "name": "premium",
              "type": "uint256"
            },
            {
              "internalType": "uint256",
              "name": "cost",
              "type": "uint256"
            },
            {
              "internalType": "address",
              "name": "pool",
              "type": "address"
            }
          ],
          "internalType": "struct OptionLib.Option",
          "name": "_option",
          "type": "tuple"
        },
        {
          "internalType": "uint256",
          "name": "_price",
          "type": "uint256"
        },
        {
          "internalType": "uint256",
          "name": "_volatilityByT",
          "type": "uint256"
        },
        {
          "internalType": "uint256",
          "name": "_atmPremium",
          "type": "uint256"
        }
      ],
      "name": "calcTimeValue",
      "outputs": [
        {
          "internalType": "uint256",
          "name": "",
          "type": "uint256"
        }
      ],
      "stateMutability": "pure",
      "type": "function",
      "constant": true
    },
    {
      "inputs": [
        {
          "components": [
            {
              "internalType": "enum OptionLib.PayoffType",
              "name": "poType",
              "type": "OptionLib.PayoffType"
            },
            {
              "internalType": "enum OptionLib.OptionSide",
              "name": "side",
              "type": "OptionLib.OptionSide"
            },
            {
              "internalType": "enum OptionLib.OptionStatus",
              "name": "status",
              "type": "OptionLib.OptionStatus"
            },
            {
              "internalType": "address",
              "name": "holder",
              "type": "address"
            },
            {
              "internalType": "uint256",
              "name": "id",
              "type": "uint256"
            },
            {
              "internalType": "uint256",
              "name": "createTime",
              "type": "uint256"
            },
            {
              "internalType": "uint256",
              "name": "effectiveTime",
              "type": "uint256"
            },
            {
              "internalType": "uint256",
              "name": "tenor",
              "type": "uint256"
            },
            {
              "internalType": "uint256",
              "name": "maturity",
              "type": "uint256"
            },
            {
              "internalType": "uint256",
              "name": "exerciseTime",
              "type": "uint256"
            },
            {
              "internalType": "uint256",
              "name": "amount",
              "type": "uint256"
            },
            {
              "internalType": "uint256",
              "name": "spot",
              "type": "uint256"
            },
            {
              "internalType": "uint256",
              "name": "strike",
              "type": "uint256"
            },
            {
              "internalType": "uint256",
              "name": "volatility",
              "type": "uint256"
            },
            {
              "internalType": "uint256",
              "name": "premium",
              "type": "uint256"
            },
            {
              "internalType": "uint256",
              "name": "cost",
              "type": "uint256"
            },
            {
              "internalType": "address",
              "name": "pool",
              "type": "address"
            }
          ],
          "internalType": "struct OptionLib.Option",
          "name": "_option",
          "type": "tuple"
        },
        {
          "internalType": "uint256",
          "name": "_price",
          "type": "uint256"
        },
        {
          "internalType": "uint256",
          "name": "_volatilityByT",
          "type": "uint256"
        },
        {
          "internalType": "uint256",
          "name": "_loanInterest",
          "type": "uint256"
        }
      ],
      "name": "calcPremium",
      "outputs": [
        {
          "internalType": "uint256",
          "name": "_premium",
          "type": "uint256"
        }
      ],
      "stateMutability": "pure",
      "type": "function",
      "constant": true
    },
    {
      "inputs": [
        {
          "components": [
            {
              "internalType": "enum OptionLib.PayoffType",
              "name": "poType",
              "type": "OptionLib.PayoffType"
            },
            {
              "internalType": "enum OptionLib.OptionSide",
              "name": "side",
              "type": "OptionLib.OptionSide"
            },
            {
              "internalType": "enum OptionLib.OptionStatus",
              "name": "status",
              "type": "OptionLib.OptionStatus"
            },
            {
              "internalType": "address",
              "name": "holder",
              "type": "address"
            },
            {
              "internalType": "uint256",
              "name": "id",
              "type": "uint256"
            },
            {
              "internalType": "uint256",
              "name": "createTime",
              "type": "uint256"
            },
            {
              "internalType": "uint256",
              "name": "effectiveTime",
              "type": "uint256"
            },
            {
              "internalType": "uint256",
              "name": "tenor",
              "type": "uint256"
            },
            {
              "internalType": "uint256",
              "name": "maturity",
              "type": "uint256"
            },
            {
              "internalType": "uint256",
              "name": "exerciseTime",
              "type": "uint256"
            },
            {
              "internalType": "uint256",
              "name": "amount",
              "type": "uint256"
            },
            {
              "internalType": "uint256",
              "name": "spot",
              "type": "uint256"
            },
            {
              "internalType": "uint256",
              "name": "strike",
              "type": "uint256"
            },
            {
              "internalType": "uint256",
              "name": "volatility",
              "type": "uint256"
            },
            {
              "internalType": "uint256",
              "name": "premium",
              "type": "uint256"
            },
            {
              "internalType": "uint256",
              "name": "cost",
              "type": "uint256"
            },
            {
              "internalType": "address",
              "name": "pool",
              "type": "address"
            }
          ],
          "internalType": "struct OptionLib.Option",
          "name": "_option",
          "type": "tuple"
        },
        {
          "internalType": "uint256",
          "name": "_price",
          "type": "uint256"
        }
      ],
      "name": "calcCollateral",
      "outputs": [
        {
          "internalType": "uint256",
          "name": "_collateral",
          "type": "uint256"
        }
      ],
      "stateMutability": "pure",
      "type": "function",
      "constant": true
    },
    {
      "inputs": [
        {
          "internalType": "uint256",
          "name": "_price",
          "type": "uint256"
        },
        {
          "internalType": "uint256",
          "name": "_strike",
          "type": "uint256"
        },
        {
          "internalType": "uint256",
          "name": "_vol",
          "type": "uint256"
        }
      ],
      "name": "calcGamma",
      "outputs": [
        {
          "internalType": "uint256",
          "name": "_gamma",
          "type": "uint256"
        }
      ],
      "stateMutability": "pure",
      "type": "function",
      "constant": true
    }
  ],
  "bytecode": "0x612651610053600b82828239805160001a607314610046577f4e487b7100000000000000000000000000000000000000000000000000000000600052600060045260246000fd5b30600052607381538281f3fe73000000000000000000000000000000000000000030146080604052600436106100d95760003560e01c8063763c980411610096578063b968a5a011610070578063b968a5a014610290578063bf38721c146102c0578063efa57289146102f0578063febf205414610320576100d9565b8063763c9804146102005780638399d60c146102305780639932b2be14610260576100d9565b806304a65c3e146100de5780631b4fb8691461010e5780632e5cf0a71461013e578063334fe90d1461016e578063347636921461019e578063357aa1df146101ce575b600080fd5b6100f860048036038101906100f39190611c0c565b610350565b6040516101059190611c52565b60405180910390f35b61012860048036038101906101239190611c0c565b6103e3565b6040516101359190611c52565b60405180910390f35b61015860048036038101906101539190611c0c565b6104ee565b6040516101659190611c52565b60405180910390f35b61018860048036038101906101839190611cd1565b610540565b6040516101959190611d51565b60405180910390f35b6101b860048036038101906101b39190611c0c565b610a3b565b6040516101c59190611c52565b60405180910390f35b6101e860048036038101906101e39190611d6c565b610a61565b6040516101f793929190611dac565b60405180910390f35b61021a600480360381019061021591906120d1565b610e54565b6040516102279190611c52565b60405180910390f35b61024a600480360381019061024591906120d1565b6110e2565b6040516102579190611c52565b60405180910390f35b61027a6004803603810190610275919061213c565b6113d0565b6040516102879190611c52565b60405180910390f35b6102aa60048036038101906102a5919061218f565b6117ad565b6040516102b79190611c52565b60405180910390f35b6102da60048036038101906102d59190611c0c565b6118e7565b6040516102e79190611d51565b60405180910390f35b61030a6004803603810190610305919061218f565b611946565b6040516103179190611c52565b60405180910390f35b61033a60048036038101906103359190611c0c565b611aef565b60405161034791906121e0565b60405180910390f35b6000600180811115610365576103646121fb565b5b8260000160009054906101000a900460ff166001811115610389576103886121fb565b5b1480156103cb5750600060018111156103a5576103a46121fb565b5b8260000160019054906101000a900460ff1660018111156103c9576103c86121fb565b5b145b6103d65760006103dc565b81600701545b9050919050565b60006001808111156103f8576103f76121fb565b5b8260000160019054906101000a900460ff16600181111561041c5761041b6121fb565b5b14801561045d5750600180811115610437576104366121fb565b5b8260000160009054906101000a900460ff16600181111561045b5761045a6121fb565b5b145b156104e957816007015473__MathLib_______________________________63fed4a0f3909184600901546040518363ffffffff1660e01b81526004016104a592919061222a565b602060405180830381865af41580156104c2573d6000803e3d6000fd5b505050506040513d601f19601f820116820180604052508101906104e69190612268565b90505b919050565b6000806001811115610503576105026121fb565b5b8260000160009054906101000a900460ff166001811115610527576105266121fb565b5b14610533576000610539565b81600701545b9050919050565b600060016003811115610556576105556121fb565b5b8560000160029054906101000a900460ff16600381111561057a576105796121fb565b5b148015610592575081806105915750428560050154115b5b15610a3357600060018111156105ab576105aa6121fb565b5b8560000160019054906101000a900460ff1660018111156105cf576105ce6121fb565b5b036109a35760008473__MathLib_______________________________63de7f6170909188600901546040518363ffffffff1660e01b815260040161061592919061222a565b602060405180830381865af4158015610632573d6000803e3d6000fd5b505050506040513d601f19601f820116820180604052508101906106569190612268565b9050600061066f60028661066a91906122f3565b611b41565b610707670de0b6b3a764000073__MathLib_______________________________63de7f61709091896040518363ffffffff1660e01b81526004016106b592919061222a565b602060405180830381865af41580156106d2573d6000803e3d6000fd5b505050506040513d601f19601f820116820180604052508101906106f69190612268565b60026107029190612324565b611b41565b610823670de0b6b3a76400008561071e9190612324565b73__MathLib_______________________________63677342ce90916040518263ffffffff1660e01b81526004016107569190611c52565b602060405180830381865af4158015610773573d6000803e3d6000fd5b505050506040513d601f19601f820116820180604052508101906107979190612268565b73__MathLib_______________________________63de7f617090918a6040518363ffffffff1660e01b81526004016107d192919061222a565b602060405180830381865af41580156107ee573d6000803e3d6000fd5b505050506040513d601f19601f820116820180604052508101906108129190612268565b600261081e9190612324565b611b41565b61082d919061237e565b6108379190612412565b905061093a8173__MathLib_______________________________635543160e90916040518263ffffffff1660e01b81526004016108759190611d51565b602060405180830381865af4158015610892573d6000803e3d6000fd5b505050506040513d601f19601f820116820180604052508101906108b69190612268565b73__MathLib_______________________________63fed4a0f390918a600701546040518363ffffffff1660e01b81526004016108f492919061222a565b602060405180830381865af4158015610911573d6000803e3d6000fd5b505050506040513d601f19601f820116820180604052508101906109359190612268565b611b41565b925060018081111561094f5761094e6121fb565b5b8760000160009054906101000a900460ff166001811115610973576109726121fb565b5b0361099c57826109868860070154611b41565b61098f906124a6565b6109999190612412565b92505b5050610a32565b6001808111156109b6576109b56121fb565b5b8560000160019054906101000a900460ff1660018111156109da576109d96121fb565b5b148015610a1c5750600060018111156109f6576109f56121fb565b5b8560000160009054906101000a900460ff166001811115610a1a57610a196121fb565b5b145b15610a3157610a2e8560070154611b41565b90505b5b5b949350505050565b6000610a4b826005015442611bae565b8260050154610a5a91906124ee565b9050919050565b6000806000610c5185604051806102200160405290816000820160009054906101000a900460ff166001811115610a9b57610a9a6121fb565b5b6001811115610aad57610aac6121fb565b5b81526020016000820160019054906101000a900460ff166001811115610ad657610ad56121fb565b5b6001811115610ae857610ae76121fb565b5b81526020016000820160029054906101000a900460ff166003811115610b1157610b106121fb565b5b6003811115610b2357610b226121fb565b5b81526020016000820160039054906101000a900473ffffffffffffffffffffffffffffffffffffffff1673ffffffffffffffffffffffffffffffffffffffff1673ffffffffffffffffffffffffffffffffffffffff168152602001600182015481526020016002820154815260200160038201548152602001600482015481526020016005820154815260200160068201548152602001600782015481526020016008820154815260200160098201548152602001600a8201548152602001600b8201548152602001600c8201548152602001600d820160009054906101000a900473ffffffffffffffffffffffffffffffffffffffff1673ffffffffffffffffffffffffffffffffffffffff1673ffffffffffffffffffffffffffffffffffffffff1681525050856117ad565b925082915060009050600180811115610c6d57610c6c6121fb565b5b8560000160019054906101000a900460ff166001811115610c9157610c906121fb565b5b03610e4d5760006001811115610caa57610ca96121fb565b5b8560000160009054906101000a900460ff166001811115610cce57610ccd6121fb565b5b03610d7157846007015473__MathLib_______________________________63fed4a0f39091866040518363ffffffff1660e01b8152600401610d1292919061222a565b602060405180830381865af4158015610d2f573d6000803e3d6000fd5b505050506040513d601f19601f82011682018060405250810190610d539190612268565b9050610d5f8184611bae565b81610d6a91906124ee565b9150610e4c565b600180811115610d8457610d836121fb565b5b8560000160009054906101000a900460ff166001811115610da857610da76121fb565b5b03610e4b57846007015473__MathLib_______________________________63fed4a0f3909187600901546040518363ffffffff1660e01b8152600401610df092919061222a565b602060405180830381865af4158015610e0d573d6000803e3d6000fd5b505050506040513d601f19601f82011682018060405250810190610e319190612268565b9050610e3d8184611bae565b81610e4891906124ee565b91505b5b5b9250925092565b6000808303610e6657600090506110da565b60008486610180015111610efa5785610180015173__MathLib_______________________________63de7f61709091876040518363ffffffff1660e01b8152600401610eb492919061222a565b602060405180830381865af4158015610ed1573d6000803e3d6000fd5b505050506040513d601f19601f82011682018060405250810190610ef59190612268565b610f7c565b8473__MathLib_______________________________63de7f617090918861018001516040518363ffffffff1660e01b8152600401610f3a92919061222a565b602060405180830381865af4158015610f57573d6000803e3d6000fd5b505050506040513d601f19601f82011682018060405250810190610f7b9190612268565b5b90506000670de0b6b3a76400008511610f955784610f9f565b670de0b6b3a76400005b90508373__MathLib_______________________________63b3947c179091600284610fcb91906122f3565b85600286610fd991906122f3565b670de0b6b3a7640000610fec9190612522565b610ff691906124ee565b6040518463ffffffff1660e01b815260040161101493929190611dac565b602060405180830381865af4158015611031573d6000803e3d6000fd5b505050506040513d601f19601f820116820180604052508101906110559190612268565b73__MathLib_______________________________63fed4a0f390918961014001516040518363ffffffff1660e01b815260040161109492919061222a565b602060405180830381865af41580156110b1573d6000803e3d6000fd5b505050506040513d601f19601f820116820180604052508101906110d59190612268565b925050505b949350505050565b6000808273__MathLib_______________________________63b3947c1790918860e001516301e133806040518463ffffffff1660e01b815260040161112a93929190611dac565b602060405180830381865af4158015611147573d6000803e3d6000fd5b505050506040513d601f19601f8201168201806040525081019061116b9190612268565b9050600061118460028661117f91906122f3565b611b41565b9050600061119186611b41565b8261119c919061237e565b73__MathLib_______________________________635543160e90916040518263ffffffff1660e01b81526004016111d49190611d51565b602060405180830381865af41580156111f1573d6000803e3d6000fd5b505050506040513d601f19601f820116820180604052508101906112159190612268565b73__MathLib_______________________________638d4f64ac9091856040518363ffffffff1660e01b815260040161124f92919061222a565b602060405180830381865af415801561126c573d6000803e3d6000fd5b505050506040513d601f19601f820116820180604052508101906112909190612268565b905060008773__MathLib_______________________________63fed4a0f39091848673__MathLib_______________________________635543160e90916040518263ffffffff1660e01b81526004016112eb9190611d51565b602060405180830381865af4158015611308573d6000803e3d6000fd5b505050506040513d601f19601f8201168201806040525081019061132c9190612268565b61133691906124ee565b6040518363ffffffff1660e01b815260040161135392919061222a565b602060405180830381865af4158015611370573d6000803e3d6000fd5b505050506040513d601f19601f820116820180604052508101906113949190612268565b905060006113a48a8a8a85610e54565b905060006113b28b8b6117ad565b905081816113c09190612522565b9650505050505050949350505050565b6000808473__MathLib_______________________________63de7f61709091866040518363ffffffff1660e01b815260040161140e92919061222a565b602060405180830381865af415801561142b573d6000803e3d6000fd5b505050506040513d601f19601f8201168201806040525081019061144f9190612268565b9050600061146860028561146391906122f3565b611b41565b611500670de0b6b3a764000073__MathLib_______________________________63de7f61709091886040518363ffffffff1660e01b81526004016114ae92919061222a565b602060405180830381865af41580156114cb573d6000803e3d6000fd5b505050506040513d601f19601f820116820180604052508101906114ef9190612268565b60026114fb9190612324565b611b41565b61161c670de0b6b3a7640000856115179190612324565b73__MathLib_______________________________63677342ce90916040518263ffffffff1660e01b815260040161154f9190611c52565b602060405180830381865af415801561156c573d6000803e3d6000fd5b505050506040513d601f19601f820116820180604052508101906115909190612268565b73__MathLib_______________________________63de7f61709091896040518363ffffffff1660e01b81526004016115ca92919061222a565b602060405180830381865af41580156115e7573d6000803e3d6000fd5b505050506040513d601f19601f8201168201806040525081019061160b9190612268565b60026116179190612324565b611b41565b611626919061237e565b6116309190612412565b90508073__MathLib_______________________________633f8ac65c90916040518263ffffffff1660e01b815260040161166b9190611d51565b602060405180830381865af4158015611688573d6000803e3d6000fd5b505050506040513d601f19601f820116820180604052508101906116ac9190612268565b73__MathLib_______________________________63de7f61709091886040518363ffffffff1660e01b81526004016116e692919061222a565b602060405180830381865af4158015611703573d6000803e3d6000fd5b505050506040513d601f19601f820116820180604052508101906117279190612268565b73__MathLib_______________________________63de7f61709091866040518363ffffffff1660e01b815260040161176192919061222a565b602060405180830381865af415801561177e573d6000803e3d6000fd5b505050506040513d601f19601f820116820180604052508101906117a29190612268565b925050509392505050565b60008060009050600060018111156117c8576117c76121fb565b5b846000015160018111156117df576117de6121fb565b5b1480156117f0575083610180015183115b15611809578361018001518361180691906124ee565b90505b60018081111561181c5761181b6121fb565b5b84600001516001811115611833576118326121fb565b5b148015611844575083610180015183105b1561185d578284610180015161185a91906124ee565b90505b8073__MathLib_______________________________63fed4a0f390918661014001516040518363ffffffff1660e01b815260040161189d92919061222a565b602060405180830381865af41580156118ba573d6000803e3d6000fd5b505050506040513d601f19601f820116820180604052508101906118de9190612268565b91505092915050565b60006118f68260070154611b41565b905060018081111561190b5761190a6121fb565b5b8260000160019054906101000a900460ff16600181111561192f5761192e6121fb565b5b03611941578061193e906124a6565b90505b919050565b600060018081111561195b5761195a6121fb565b5b83602001516001811115611972576119716121fb565b5b03611ae95760018081111561198a576119896121fb565b5b836000015160018111156119a1576119a06121fb565b5b03611a335782610140015173__MathLib_______________________________63fed4a0f390918561018001516040518363ffffffff1660e01b81526004016119eb92919061222a565b602060405180830381865af4158015611a08573d6000803e3d6000fd5b505050506040513d601f19601f82011682018060405250810190611a2c9190612268565b9050611ae8565b60006001811115611a4757611a466121fb565b5b83600001516001811115611a5e57611a5d6121fb565b5b03611ae75782610140015173__MathLib_______________________________63fed4a0f39091846040518363ffffffff1660e01b8152600401611aa392919061222a565b602060405180830381865af4158015611ac0573d6000803e3d6000fd5b505050506040513d601f19601f82011682018060405250810190611ae49190612268565b90505b5b5b92915050565b600060016003811115611b0557611b046121fb565b5b8260000160029054906101000a900460ff166003811115611b2957611b286121fb565b5b148015611b3a575042826005015411155b9050919050565b60007f7fffffffffffffffffffffffffffffffffffffffffffffffffffffffffffffff821115611ba6576040517f08c379a0000000000000000000000000000000000000000000000000000000008152600401611b9d906125fb565b60405180910390fd5b819050919050565b6000818310611bbd5781611bbf565b825b905092915050565b6000604051905090565b600080fd5b6000819050919050565b611be981611bd6565b8114611bf457600080fd5b50565b600081359050611c0681611be0565b92915050565b600060208284031215611c2257611c21611bd1565b5b6000611c3084828501611bf7565b91505092915050565b6000819050919050565b611c4c81611c39565b82525050565b6000602082019050611c676000830184611c43565b92915050565b611c7681611c39565b8114611c8157600080fd5b50565b600081359050611c9381611c6d565b92915050565b60008115159050919050565b611cae81611c99565b8114611cb957600080fd5b50565b600081359050611ccb81611ca5565b92915050565b60008060008060808587031215611ceb57611cea611bd1565b5b6000611cf987828801611bf7565b9450506020611d0a87828801611c84565b9350506040611d1b87828801611c84565b9250506060611d2c87828801611cbc565b91505092959194509250565b6000819050919050565b611d4b81611d38565b82525050565b6000602082019050611d666000830184611d42565b92915050565b60008060408385031215611d8357611d82611bd1565b5b6000611d9185828601611bf7565b9250506020611da285828601611c84565b9150509250929050565b6000606082019050611dc16000830186611c43565b611dce6020830185611c43565b611ddb6040830184611c43565b949350505050565b600080fd5b6000601f19601f8301169050919050565b7f4e487b7100000000000000000000000000000000000000000000000000000000600052604160045260246000fd5b611e3182611de8565b810181811067ffffffffffffffff82111715611e5057611e4f611df9565b5b80604052505050565b6000611e63611bc7565b9050611e6f8282611e28565b919050565b60028110611e8157600080fd5b50565b600081359050611e9381611e74565b92915050565b60028110611ea657600080fd5b50565b600081359050611eb881611e99565b92915050565b60048110611ecb57600080fd5b50565b600081359050611edd81611ebe565b92915050565b600073ffffffffffffffffffffffffffffffffffffffff82169050919050565b6000611f0e82611ee3565b9050919050565b611f1e81611f03565b8114611f2957600080fd5b50565b600081359050611f3b81611f15565b92915050565b60006102208284031215611f5857611f57611de3565b5b611f63610220611e59565b90506000611f7384828501611e84565b6000830152506020611f8784828501611ea9565b6020830152506040611f9b84828501611ece565b6040830152506060611faf84828501611f2c565b6060830152506080611fc384828501611c84565b60808301525060a0611fd784828501611c84565b60a08301525060c0611feb84828501611c84565b60c08301525060e0611fff84828501611c84565b60e08301525061010061201484828501611c84565b6101008301525061012061202a84828501611c84565b6101208301525061014061204084828501611c84565b6101408301525061016061205684828501611c84565b6101608301525061018061206c84828501611c84565b610180830152506101a061208284828501611c84565b6101a0830152506101c061209884828501611c84565b6101c0830152506101e06120ae84828501611c84565b6101e0830152506102006120c484828501611f2c565b6102008301525092915050565b60008060008061028085870312156120ec576120eb611bd1565b5b60006120fa87828801611f41565b94505061022061210c87828801611c84565b93505061024061211e87828801611c84565b92505061026061213087828801611c84565b91505092959194509250565b60008060006060848603121561215557612154611bd1565b5b600061216386828701611c84565b935050602061217486828701611c84565b925050604061218586828701611c84565b9150509250925092565b60008061024083850312156121a7576121a6611bd1565b5b60006121b585828601611f41565b9250506102206121c785828601611c84565b9150509250929050565b6121da81611c99565b82525050565b60006020820190506121f560008301846121d1565b92915050565b7f4e487b7100000000000000000000000000000000000000000000000000000000600052602160045260246000fd5b600060408201905061223f6000830185611c43565b61224c6020830184611c43565b9392505050565b60008151905061226281611c6d565b92915050565b60006020828403121561227e5761227d611bd1565b5b600061228c84828501612253565b91505092915050565b7f4e487b7100000000000000000000000000000000000000000000000000000000600052601260045260246000fd5b7f4e487b7100000000000000000000000000000000000000000000000000000000600052601160045260246000fd5b60006122fe82611c39565b915061230983611c39565b92508261231957612318612295565b5b828204905092915050565b600061232f82611c39565b915061233a83611c39565b9250817fffffffffffffffffffffffffffffffffffffffffffffffffffffffffffffffff0483118215151615612373576123726122c4565b5b828202905092915050565b600061238982611d38565b915061239483611d38565b9250827f8000000000000000000000000000000000000000000000000000000000000000018212600084121516156123cf576123ce6122c4565b5b827f7fffffffffffffffffffffffffffffffffffffffffffffffffffffffffffffff018213600084121615612407576124066122c4565b5b828203905092915050565b600061241d82611d38565b915061242883611d38565b9250817f7fffffffffffffffffffffffffffffffffffffffffffffffffffffffffffffff03831360008312151615612463576124626122c4565b5b817f800000000000000000000000000000000000000000000000000000000000000003831260008312161561249b5761249a6122c4565b5b828201905092915050565b60006124b182611d38565b91507f800000000000000000000000000000000000000000000000000000000000000082036124e3576124e26122c4565b5b816000039050919050565b60006124f982611c39565b915061250483611c39565b925082821015612517576125166122c4565b5b828203905092915050565b600061252d82611c39565b915061253883611c39565b9250827fffffffffffffffffffffffffffffffffffffffffffffffffffffffffffffffff0382111561256d5761256c6122c4565b5b828201905092915050565b600082825260208201905092915050565b7f53616665436173743a2076616c756520646f65736e27742066697420696e206160008201527f6e20696e74323536000000000000000000000000000000000000000000000000602082015250565b60006125e5602883612578565b91506125f082612589565b604082019050919050565b60006020820190508181036000830152612614816125d8565b905091905056fea264697066735822122051f9acf87548239b468198a9893580909d430a38728f915952fc5c4ce25dae0764736f6c634300080f0033",
  "immutableReferences": {},
  "source": "// SPDX-License-Identifier: MIT\npragma solidity ^0.8.4;\n\nimport \"@openzeppelin/contracts/utils/math/SafeCast.sol\";\nimport \"@openzeppelin/contracts/utils/math/Math.sol\";\nimport \"./MathLib.sol\";\n\nlibrary OptionLib {\n  using MathLib for uint256;\n  using MathLib for int256;\n\n  enum PayoffType { Call, Put}\n  enum OptionSide{ Buy, Sell}\n  enum OptionStatus { Draft, Active, Exercised, Expired}\n  enum PaymentMethod { USDC, Token, Vol}\n\n  uint256 internal constant SECONDS_1Y = 31536000; // 365 * 24 * 60 * 60\n\n  // Items: option type, option side, contract status, contract holder address, contract id, creation timestamp, effective timestamp, tenor in seconds, maturity timestamp, excersie timestamp, amount or size of contract, current spot price, option strike, implied volatility, calculated premium and total cost including collaterals.\n  struct Option { \n    PayoffType poType; OptionSide side; OptionStatus status; \n    address holder; uint256 id; \n    uint256 createTime; uint256 effectiveTime; \n    uint256 tenor; uint256 maturity; uint256 exerciseTime; \n    uint256 amount;\n    uint256 spot; uint256 strike;\n    uint256 volatility;\n    uint256 premium;uint256 cost;\n    address pool;}\n  \n  uint256 internal constant BASE  = 1e18;\n\n  function calcIntrinsicValue(Option memory _option, uint256 _price) public pure returns(uint256){\n    uint256 _intrinsicValue = 0;\n    if((_option.poType == PayoffType.Call) && (_price > _option.strike)){ _intrinsicValue = _price - _option.strike; }\n    if((_option.poType == PayoffType.Put) && (_price < _option.strike)){ _intrinsicValue = _option.strike - _price;}\n    return _intrinsicValue.ethmul(_option.amount); }\n\n  function calcTimeValue(Option memory _option, uint256 _price, uint256 _volatilityByT, uint256 _atmPremium) public pure returns (uint256){\n    if(_volatilityByT == 0) return 0;\n    uint256 _m = _option.strike > _price? _price.ethdiv(_option.strike) : _option.strike.ethdiv(_price); // always in (0,1]\n    uint256 _v = _volatilityByT > BASE? BASE: _volatilityByT; // always in (0, 1]\n    return _atmPremium.muldiv(_v / 2, BASE + _v / 2 - _m).ethmul(_option.amount);}\n\n  function calcPremium(Option memory _option, uint256 _price, uint256 _volatilityByT, uint256 _loanInterest) public pure returns(uint256 _premium){\n    uint256 _interest = _loanInterest.muldiv( _option.tenor, SECONDS_1Y);\n\n    int256 _atm_d = SafeCast.toInt256(_volatilityByT/ 2); // d value when at the money\n    uint256 _discount = (_atm_d - SafeCast.toInt256(_volatilityByT)).logistic().discount(_interest);\n    uint256 _atmPremium = _price.ethmul(_atm_d.logistic() - _discount);\n    uint256 _timeValue = calcTimeValue(_option,  _price, _volatilityByT, _atmPremium);\n    uint256 _intrinsicValue = calcIntrinsicValue(_option, _price);\n    _premium = _intrinsicValue + _timeValue;}\n\n  function calcCollateral(Option memory _option, uint256 _price) public pure returns(uint256 _collateral){\n    if(_option.side == OptionSide.Sell){\n      if(_option.poType == PayoffType.Put){ \n        _collateral =  _option.amount.ethmul(_option.strike);}\n      else if(_option.poType == PayoffType.Call){ \n        _collateral = _option.amount.ethmul(_price);}}\n  }\n\n  // function calcCost(OptionSide _side, uint256 _premium) public pure returns (uint256 _cost) {\n  //   _cost = _premium;\n  //   if(_side == OptionSide.Sell){\n  //     if(_poType == PayoffType.Put){ \n  //       _cost =  _amount.ethmul(_strike) - _premium;}\n  //     else if(_poType == PayoffType.Call){ \n  //       _cost = _amount.ethmul(_price) - _premium;}}}\n\n  // payoff is the premium of options, payback is the amount owned to the option holder including both the signed amount of payoff and paid collaterals.\n  function calcPayoff(Option storage _option, uint256 _price) public view returns(uint256 _payoff, uint256 _payback, uint256 _collateral){\n    _payoff = calcIntrinsicValue(_option, _price);\n    _payback = _payoff;\n    _collateral = 0;\n    if(_option.side == OptionSide.Sell){\n      if (_option.poType == PayoffType.Call){\n        _collateral = _option.amount.ethmul(_price);\n        _payback = _collateral - Math.min(_collateral, _payoff);}\n      else if(_option.poType == PayoffType.Put){\n        _collateral = _option.amount.ethmul(_option.strike);\n        _payback = _collateral - Math.min(_collateral, _payoff);}}}\n\n  function getNetNotional(Option storage _option) public view returns(int256 _netNotional){\n    _netNotional = SafeCast.toInt256(_option.amount);\n    if(_option.side == OptionSide.Sell) {_netNotional = -_netNotional;}}\n\n  function sellPutCollateral(Option storage _option) public view returns (uint256 _collateral){\n    if(_option.side == OptionSide.Sell && _option.poType == PayoffType.Put) _collateral = _option.amount.ethmul(_option.strike);}\n\n  function calcRemainingMaturity(Option storage _option) public view returns(uint256 _maturityLeft){\n    _maturityLeft = _option.maturity - Math.min(_option.maturity, block.timestamp);}\n\n  function calcDelta(Option storage _option, uint256 _price, uint256 _vol, bool _includeExpiring) public view returns(int256 _delta){\n    _delta = 0;\n    if(_option.status== OptionStatus.Active && (_includeExpiring || (_option.maturity > block.timestamp))){\n      if(_option.side== OptionSide.Buy){\n        uint256 _moneyness = _price.ethdiv(_option.strike);\n        int256 _d = SafeCast.toInt256(2 *  (_moneyness * BASE).sqrt().ethdiv(_vol)) - SafeCast.toInt256(2 * BASE.ethdiv(_vol)) + SafeCast.toInt256(_vol/ 2);\n        _delta = SafeCast.toInt256(_d.logistic().ethmul(_option.amount));\n        if(_option.poType == PayoffType.Put) {\n          _delta = -SafeCast.toInt256(_option.amount) + _delta; }}\n      else if(_option.side== OptionSide.Sell && _option.poType== PayoffType.Call){ \n        _delta = SafeCast.toInt256(_option.amount);}}} // collateral for sell call options. zero for sell put options  \n\n  function calcDeltaAtZero(Option storage _option) public view returns(uint256 _delta){\n    _delta = _option.poType == PayoffType.Call? _option.amount: 0;}\n\n  function calcDeltaAtMax(Option storage _option) public view returns(uint256 _delta){\n    _delta = (_option.poType == PayoffType.Put && _option.side== OptionSide.Buy)? _option.amount: 0;}\n  \n  function calcGamma(uint256 _price, uint256 _strike, uint256 _vol) public pure returns(uint256 _gamma){\n    uint256 _moneyness = _price.ethdiv(_strike);\n    int256 _d = SafeCast.toInt256(2 * (_moneyness * BASE).sqrt().ethdiv(_vol)) - SafeCast.toInt256(2 * BASE.ethdiv(_vol)) + SafeCast.toInt256(_vol/ 2);\n    _gamma = _d.normalDensity().ethdiv(_price).ethdiv(_vol);}\n  \n  function isExpiring(Option storage _option) public view returns (bool){ \n    return (_option.status== OptionStatus.Active) && (_option.maturity <= block.timestamp);}\n\n  \n\n  // Returns premium, costs (if sell option, cost includes collateral) and implied volatility\n  // function calcCost(uint256 _tenor, uint256 _strike, uint256 _amount, OptionLib.PayoffType _poType, OptionLib.OptionSide _side) public view returns(uint256 , uint256 , uint256 ){\n  //   uint256 _price = volChain.queryPrice();\n  //   return calcOptionCost(_tenor, _price, _strike, _amount, _poType, _side);}\n\n\n}\n",
  "sourcePath": "/Users/mac/Documents/GitHub/moret/contracts/libraries/OptionLib.sol",
  "compiler": {
    "name": "solc",
    "version": "0.8.15+commit.e14f2714.Emscripten.clang"
  },
  "schemaVersion": "3.4.3",
  "updatedAt": "2022-06-28T19:40:09.678Z",
  "networkType": "ethereum",
  "devdoc": {
    "kind": "dev",
    "methods": {},
    "version": 1
  },
  "userdoc": {
    "kind": "user",
    "methods": {},
    "version": 1
  }
}