{
  "contractName": "OptionVault",
  "abi": [
    {
      "inputs": [],
      "stateMutability": "nonpayable",
      "type": "constructor"
    },
    {
      "anonymous": false,
      "inputs": [
        {
          "indexed": true,
          "internalType": "address",
          "name": "_holder",
          "type": "address"
        },
        {
          "indexed": true,
          "internalType": "address",
          "name": "_pool",
          "type": "address"
        },
        {
          "indexed": false,
          "internalType": "uint256",
          "name": "_id",
          "type": "uint256"
        },
        {
          "indexed": false,
          "internalType": "uint256",
          "name": "_payoff",
          "type": "uint256"
        },
        {
          "indexed": false,
          "internalType": "address",
          "name": "_bot",
          "type": "address"
        }
      ],
      "name": "Expire",
      "type": "event"
    },
    {
      "anonymous": false,
      "inputs": [
        {
          "indexed": true,
          "internalType": "address",
          "name": "_hedger",
          "type": "address"
        },
        {
          "indexed": true,
          "internalType": "address",
          "name": "_market",
          "type": "address"
        },
        {
          "indexed": false,
          "internalType": "bool",
          "name": "success",
          "type": "bool"
        },
        {
          "indexed": false,
          "internalType": "bytes",
          "name": "data",
          "type": "bytes"
        }
      ],
      "name": "HedgeResponse",
      "type": "event"
    },
    {
      "anonymous": false,
      "inputs": [
        {
          "indexed": true,
          "internalType": "address",
          "name": "_hedger",
          "type": "address"
        },
        {
          "indexed": true,
          "internalType": "address",
          "name": "_market",
          "type": "address"
        },
        {
          "indexed": false,
          "internalType": "uint256[]",
          "name": "amounts",
          "type": "uint256[]"
        }
      ],
      "name": "HedgeSwapResponse",
      "type": "event"
    },
    {
      "anonymous": false,
      "inputs": [
        {
          "indexed": false,
          "internalType": "address",
          "name": "_newBot",
          "type": "address"
        }
      ],
      "name": "ResetBotAddress",
      "type": "event"
    },
    {
      "anonymous": false,
      "inputs": [
        {
          "indexed": true,
          "internalType": "uint256",
          "name": "_parameterId",
          "type": "uint256"
        },
        {
          "indexed": false,
          "internalType": "uint256",
          "name": "_parameter",
          "type": "uint256"
        }
      ],
      "name": "ResetParameter",
      "type": "event"
    },
    {
      "anonymous": false,
      "inputs": [
        {
          "indexed": true,
          "internalType": "bytes32",
          "name": "role",
          "type": "bytes32"
        },
        {
          "indexed": true,
          "internalType": "bytes32",
          "name": "previousAdminRole",
          "type": "bytes32"
        },
        {
          "indexed": true,
          "internalType": "bytes32",
          "name": "newAdminRole",
          "type": "bytes32"
        }
      ],
      "name": "RoleAdminChanged",
      "type": "event"
    },
    {
      "anonymous": false,
      "inputs": [
        {
          "indexed": true,
          "internalType": "bytes32",
          "name": "role",
          "type": "bytes32"
        },
        {
          "indexed": true,
          "internalType": "address",
          "name": "account",
          "type": "address"
        },
        {
          "indexed": true,
          "internalType": "address",
          "name": "sender",
          "type": "address"
        }
      ],
      "name": "RoleGranted",
      "type": "event"
    },
    {
      "anonymous": false,
      "inputs": [
        {
          "indexed": true,
          "internalType": "bytes32",
          "name": "role",
          "type": "bytes32"
        },
        {
          "indexed": true,
          "internalType": "address",
          "name": "account",
          "type": "address"
        },
        {
          "indexed": true,
          "internalType": "address",
          "name": "sender",
          "type": "address"
        }
      ],
      "name": "RoleRevoked",
      "type": "event"
    },
    {
      "anonymous": false,
      "inputs": [
        {
          "indexed": true,
          "internalType": "address",
          "name": "_purchaser",
          "type": "address"
        },
        {
          "indexed": true,
          "internalType": "address",
          "name": "_pool",
          "type": "address"
        },
        {
          "indexed": false,
          "internalType": "uint256",
          "name": "_cost",
          "type": "uint256"
        },
        {
          "indexed": false,
          "internalType": "uint256",
          "name": "_volAmount",
          "type": "uint256"
        },
        {
          "indexed": false,
          "internalType": "bool",
          "name": "_isPurchase",
          "type": "bool"
        }
      ],
      "name": "TradeVolatility",
      "type": "event"
    },
    {
      "anonymous": false,
      "inputs": [
        {
          "indexed": true,
          "internalType": "address",
          "name": "_holder",
          "type": "address"
        },
        {
          "indexed": true,
          "internalType": "address",
          "name": "_pool",
          "type": "address"
        },
        {
          "indexed": false,
          "internalType": "uint256",
          "name": "_id",
          "type": "uint256"
        },
        {
          "indexed": false,
          "internalType": "uint256",
          "name": "_payoff",
          "type": "uint256"
        }
      ],
      "name": "Unwind",
      "type": "event"
    },
    {
      "inputs": [],
      "name": "DEFAULT_ADMIN_ROLE",
      "outputs": [
        {
          "internalType": "bytes32",
          "name": "",
          "type": "bytes32"
        }
      ],
      "stateMutability": "view",
      "type": "function"
    },
    {
      "inputs": [],
      "name": "EXCHANGE",
      "outputs": [
        {
          "internalType": "bytes32",
          "name": "",
          "type": "bytes32"
        }
      ],
      "stateMutability": "view",
      "type": "function"
    },
    {
      "inputs": [
        {
          "internalType": "bytes32",
          "name": "role",
          "type": "bytes32"
        }
      ],
      "name": "getRoleAdmin",
      "outputs": [
        {
          "internalType": "bytes32",
          "name": "",
          "type": "bytes32"
        }
      ],
      "stateMutability": "view",
      "type": "function"
    },
    {
      "inputs": [
        {
          "internalType": "bytes32",
          "name": "role",
          "type": "bytes32"
        },
        {
          "internalType": "address",
          "name": "account",
          "type": "address"
        }
      ],
      "name": "grantRole",
      "outputs": [],
      "stateMutability": "nonpayable",
      "type": "function"
    },
    {
      "inputs": [
        {
          "internalType": "bytes32",
          "name": "role",
          "type": "bytes32"
        },
        {
          "internalType": "address",
          "name": "account",
          "type": "address"
        }
      ],
      "name": "hasRole",
      "outputs": [
        {
          "internalType": "bool",
          "name": "",
          "type": "bool"
        }
      ],
      "stateMutability": "view",
      "type": "function"
    },
    {
      "inputs": [
        {
          "internalType": "address",
          "name": "",
          "type": "address"
        }
      ],
      "name": "mExposureDown",
      "outputs": [
        {
          "internalType": "int256",
          "name": "",
          "type": "int256"
        }
      ],
      "stateMutability": "view",
      "type": "function"
    },
    {
      "inputs": [
        {
          "internalType": "address",
          "name": "",
          "type": "address"
        }
      ],
      "name": "mExposureUp",
      "outputs": [
        {
          "internalType": "int256",
          "name": "",
          "type": "int256"
        }
      ],
      "stateMutability": "view",
      "type": "function"
    },
    {
      "inputs": [
        {
          "internalType": "address",
          "name": "",
          "type": "address"
        }
      ],
      "name": "mFundCollateral",
      "outputs": [
        {
          "internalType": "uint256",
          "name": "",
          "type": "uint256"
        }
      ],
      "stateMutability": "view",
      "type": "function"
    },
    {
      "inputs": [
        {
          "internalType": "address",
          "name": "",
          "type": "address"
        }
      ],
      "name": "mShortPremiums",
      "outputs": [
        {
          "internalType": "uint256",
          "name": "",
          "type": "uint256"
        }
      ],
      "stateMutability": "view",
      "type": "function"
    },
    {
      "inputs": [
        {
          "internalType": "address",
          "name": "",
          "type": "address"
        }
      ],
      "name": "mUnderCollateral",
      "outputs": [
        {
          "internalType": "uint256",
          "name": "",
          "type": "uint256"
        }
      ],
      "stateMutability": "view",
      "type": "function"
    },
    {
      "inputs": [
        {
          "internalType": "bytes32",
          "name": "role",
          "type": "bytes32"
        },
        {
          "internalType": "address",
          "name": "account",
          "type": "address"
        }
      ],
      "name": "renounceRole",
      "outputs": [],
      "stateMutability": "nonpayable",
      "type": "function"
    },
    {
      "inputs": [
        {
          "internalType": "bytes32",
          "name": "role",
          "type": "bytes32"
        },
        {
          "internalType": "address",
          "name": "account",
          "type": "address"
        }
      ],
      "name": "revokeRole",
      "outputs": [],
      "stateMutability": "nonpayable",
      "type": "function"
    },
    {
      "inputs": [
        {
          "internalType": "bytes4",
          "name": "interfaceId",
          "type": "bytes4"
        }
      ],
      "name": "supportsInterface",
      "outputs": [
        {
          "internalType": "bool",
          "name": "",
          "type": "bool"
        }
      ],
      "stateMutability": "view",
      "type": "function"
    },
    {
      "inputs": [
        {
          "internalType": "address",
          "name": "_pool",
          "type": "address"
        },
        {
          "internalType": "address",
          "name": "_address",
          "type": "address"
        }
      ],
      "name": "getHolderOptions",
      "outputs": [
        {
          "internalType": "uint256[]",
          "name": "",
          "type": "uint256[]"
        }
      ],
      "stateMutability": "view",
      "type": "function"
    },
    {
      "inputs": [
        {
          "internalType": "uint256",
          "name": "_id",
          "type": "uint256"
        }
      ],
      "name": "getOption",
      "outputs": [
        {
          "components": [
            {
              "internalType": "enum OptionLib.PayoffType",
              "name": "poType",
              "type": "uint8"
            },
            {
              "internalType": "enum OptionLib.OptionSide",
              "name": "side",
              "type": "uint8"
            },
            {
              "internalType": "enum OptionLib.OptionStatus",
              "name": "status",
              "type": "uint8"
            },
            {
              "internalType": "address",
              "name": "holder",
              "type": "address"
            },
            {
              "internalType": "uint256",
              "name": "id",
              "type": "uint256"
            },
            {
              "internalType": "uint256",
              "name": "createTime",
              "type": "uint256"
            },
            {
              "internalType": "uint256",
              "name": "effectiveTime",
              "type": "uint256"
            },
            {
              "internalType": "uint256",
              "name": "tenor",
              "type": "uint256"
            },
            {
              "internalType": "uint256",
              "name": "maturity",
              "type": "uint256"
            },
            {
              "internalType": "uint256",
              "name": "exerciseTime",
              "type": "uint256"
            },
            {
              "internalType": "uint256",
              "name": "amount",
              "type": "uint256"
            },
            {
              "internalType": "uint256",
              "name": "spot",
              "type": "uint256"
            },
            {
              "internalType": "uint256",
              "name": "strike",
              "type": "uint256"
            },
            {
              "internalType": "uint256",
              "name": "spread",
              "type": "uint256"
            },
            {
              "internalType": "uint256",
              "name": "volatility",
              "type": "uint256"
            },
            {
              "internalType": "uint256",
              "name": "premium",
              "type": "uint256"
            },
            {
              "internalType": "uint256",
              "name": "cost",
              "type": "uint256"
            },
            {
              "internalType": "address",
              "name": "pool",
              "type": "address"
            },
            {
              "internalType": "int256",
              "name": "exposure",
              "type": "int256"
            }
          ],
          "internalType": "struct OptionLib.Option",
          "name": "",
          "type": "tuple"
        }
      ],
      "stateMutability": "view",
      "type": "function"
    },
    {
      "inputs": [
        {
          "internalType": "address",
          "name": "_poolAddress",
          "type": "address"
        }
      ],
      "name": "getActiveOptionCount",
      "outputs": [
        {
          "internalType": "uint256",
          "name": "",
          "type": "uint256"
        }
      ],
      "stateMutability": "view",
      "type": "function"
    },
    {
      "inputs": [
        {
          "internalType": "address",
          "name": "_poolAddress",
          "type": "address"
        }
      ],
      "name": "getActiveOptions",
      "outputs": [
        {
          "internalType": "uint256[]",
          "name": "",
          "type": "uint256[]"
        }
      ],
      "stateMutability": "view",
      "type": "function"
    },
    {
      "inputs": [
        {
          "internalType": "uint256",
          "name": "_id",
          "type": "uint256"
        }
      ],
      "name": "getOptionInfo",
      "outputs": [
        {
          "internalType": "enum OptionLib.OptionStatus",
          "name": "",
          "type": "uint8"
        },
        {
          "internalType": "uint256",
          "name": "",
          "type": "uint256"
        },
        {
          "internalType": "address",
          "name": "",
          "type": "address"
        },
        {
          "internalType": "contract Pool",
          "name": "",
          "type": "address"
        }
      ],
      "stateMutability": "view",
      "type": "function"
    },
    {
      "inputs": [
        {
          "components": [
            {
              "internalType": "enum OptionLib.PayoffType",
              "name": "poType",
              "type": "uint8"
            },
            {
              "internalType": "enum OptionLib.OptionSide",
              "name": "side",
              "type": "uint8"
            },
            {
              "internalType": "enum OptionLib.OptionStatus",
              "name": "status",
              "type": "uint8"
            },
            {
              "internalType": "address",
              "name": "holder",
              "type": "address"
            },
            {
              "internalType": "uint256",
              "name": "id",
              "type": "uint256"
            },
            {
              "internalType": "uint256",
              "name": "createTime",
              "type": "uint256"
            },
            {
              "internalType": "uint256",
              "name": "effectiveTime",
              "type": "uint256"
            },
            {
              "internalType": "uint256",
              "name": "tenor",
              "type": "uint256"
            },
            {
              "internalType": "uint256",
              "name": "maturity",
              "type": "uint256"
            },
            {
              "internalType": "uint256",
              "name": "exerciseTime",
              "type": "uint256"
            },
            {
              "internalType": "uint256",
              "name": "amount",
              "type": "uint256"
            },
            {
              "internalType": "uint256",
              "name": "spot",
              "type": "uint256"
            },
            {
              "internalType": "uint256",
              "name": "strike",
              "type": "uint256"
            },
            {
              "internalType": "uint256",
              "name": "spread",
              "type": "uint256"
            },
            {
              "internalType": "uint256",
              "name": "volatility",
              "type": "uint256"
            },
            {
              "internalType": "uint256",
              "name": "premium",
              "type": "uint256"
            },
            {
              "internalType": "uint256",
              "name": "cost",
              "type": "uint256"
            },
            {
              "internalType": "address",
              "name": "pool",
              "type": "address"
            },
            {
              "internalType": "int256",
              "name": "exposure",
              "type": "int256"
            }
          ],
          "internalType": "struct OptionLib.Option",
          "name": "_option",
          "type": "tuple"
        },
        {
          "internalType": "uint256",
          "name": "_premium",
          "type": "uint256"
        },
        {
          "internalType": "uint256",
          "name": "_collateral",
          "type": "uint256"
        },
        {
          "internalType": "uint256",
          "name": "_price",
          "type": "uint256"
        },
        {
          "internalType": "uint256",
          "name": "_vol",
          "type": "uint256"
        },
        {
          "internalType": "int256",
          "name": "_exposure",
          "type": "int256"
        }
      ],
      "name": "addOption",
      "outputs": [
        {
          "internalType": "uint256",
          "name": "_id",
          "type": "uint256"
        }
      ],
      "stateMutability": "nonpayable",
      "type": "function"
    },
    {
      "inputs": [
        {
          "internalType": "uint256",
          "name": "_id",
          "type": "uint256"
        },
        {
          "internalType": "address",
          "name": "_holder",
          "type": "address"
        }
      ],
      "name": "stampActiveOption",
      "outputs": [],
      "stateMutability": "nonpayable",
      "type": "function"
    },
    {
      "inputs": [
        {
          "internalType": "uint256",
          "name": "_id",
          "type": "uint256"
        }
      ],
      "name": "stampExpiredOption",
      "outputs": [],
      "stateMutability": "nonpayable",
      "type": "function"
    },
    {
      "inputs": [
        {
          "internalType": "uint256",
          "name": "_id",
          "type": "uint256"
        }
      ],
      "name": "getContractPayoff",
      "outputs": [
        {
          "internalType": "uint256",
          "name": "_toHolder",
          "type": "uint256"
        },
        {
          "internalType": "uint256",
          "name": "_toProtocol",
          "type": "uint256"
        },
        {
          "internalType": "uint256",
          "name": "_toExerciser",
          "type": "uint256"
        }
      ],
      "stateMutability": "view",
      "type": "function"
    },
    {
      "inputs": [
        {
          "internalType": "uint256",
          "name": "_id",
          "type": "uint256"
        }
      ],
      "name": "calcOptionUnwindValue",
      "outputs": [
        {
          "internalType": "uint256",
          "name": "_toHolder",
          "type": "uint256"
        },
        {
          "internalType": "uint256",
          "name": "_toProtocol",
          "type": "uint256"
        }
      ],
      "stateMutability": "view",
      "type": "function"
    },
    {
      "inputs": [
        {
          "components": [
            {
              "internalType": "enum OptionLib.PayoffType",
              "name": "poType",
              "type": "uint8"
            },
            {
              "internalType": "enum OptionLib.OptionSide",
              "name": "side",
              "type": "uint8"
            },
            {
              "internalType": "enum OptionLib.OptionStatus",
              "name": "status",
              "type": "uint8"
            },
            {
              "internalType": "address",
              "name": "holder",
              "type": "address"
            },
            {
              "internalType": "uint256",
              "name": "id",
              "type": "uint256"
            },
            {
              "internalType": "uint256",
              "name": "createTime",
              "type": "uint256"
            },
            {
              "internalType": "uint256",
              "name": "effectiveTime",
              "type": "uint256"
            },
            {
              "internalType": "uint256",
              "name": "tenor",
              "type": "uint256"
            },
            {
              "internalType": "uint256",
              "name": "maturity",
              "type": "uint256"
            },
            {
              "internalType": "uint256",
              "name": "exerciseTime",
              "type": "uint256"
            },
            {
              "internalType": "uint256",
              "name": "amount",
              "type": "uint256"
            },
            {
              "internalType": "uint256",
              "name": "spot",
              "type": "uint256"
            },
            {
              "internalType": "uint256",
              "name": "strike",
              "type": "uint256"
            },
            {
              "internalType": "uint256",
              "name": "spread",
              "type": "uint256"
            },
            {
              "internalType": "uint256",
              "name": "volatility",
              "type": "uint256"
            },
            {
              "internalType": "uint256",
              "name": "premium",
              "type": "uint256"
            },
            {
              "internalType": "uint256",
              "name": "cost",
              "type": "uint256"
            },
            {
              "internalType": "address",
              "name": "pool",
              "type": "address"
            },
            {
              "internalType": "int256",
              "name": "exposure",
              "type": "int256"
            }
          ],
          "internalType": "struct OptionLib.Option",
          "name": "_option",
          "type": "tuple"
        }
      ],
      "name": "calcOptionCost",
      "outputs": [
        {
          "internalType": "uint256",
          "name": "_premium",
          "type": "uint256"
        },
        {
          "internalType": "uint256",
          "name": "_collateral",
          "type": "uint256"
        },
        {
          "internalType": "uint256",
          "name": "_price",
          "type": "uint256"
        },
        {
          "internalType": "uint256",
          "name": "_annualisedVol",
          "type": "uint256"
        },
        {
          "internalType": "int256",
          "name": "_exposure",
          "type": "int256"
        }
      ],
      "stateMutability": "view",
      "type": "function"
    },
    {
      "inputs": [
        {
          "components": [
            {
              "internalType": "enum OptionLib.PayoffType",
              "name": "poType",
              "type": "uint8"
            },
            {
              "internalType": "enum OptionLib.OptionSide",
              "name": "side",
              "type": "uint8"
            },
            {
              "internalType": "enum OptionLib.OptionStatus",
              "name": "status",
              "type": "uint8"
            },
            {
              "internalType": "address",
              "name": "holder",
              "type": "address"
            },
            {
              "internalType": "uint256",
              "name": "id",
              "type": "uint256"
            },
            {
              "internalType": "uint256",
              "name": "createTime",
              "type": "uint256"
            },
            {
              "internalType": "uint256",
              "name": "effectiveTime",
              "type": "uint256"
            },
            {
              "internalType": "uint256",
              "name": "tenor",
              "type": "uint256"
            },
            {
              "internalType": "uint256",
              "name": "maturity",
              "type": "uint256"
            },
            {
              "internalType": "uint256",
              "name": "exerciseTime",
              "type": "uint256"
            },
            {
              "internalType": "uint256",
              "name": "amount",
              "type": "uint256"
            },
            {
              "internalType": "uint256",
              "name": "spot",
              "type": "uint256"
            },
            {
              "internalType": "uint256",
              "name": "strike",
              "type": "uint256"
            },
            {
              "internalType": "uint256",
              "name": "spread",
              "type": "uint256"
            },
            {
              "internalType": "uint256",
              "name": "volatility",
              "type": "uint256"
            },
            {
              "internalType": "uint256",
              "name": "premium",
              "type": "uint256"
            },
            {
              "internalType": "uint256",
              "name": "cost",
              "type": "uint256"
            },
            {
              "internalType": "address",
              "name": "pool",
              "type": "address"
            },
            {
              "internalType": "int256",
              "name": "exposure",
              "type": "int256"
            }
          ],
          "internalType": "struct OptionLib.Option",
          "name": "_option",
          "type": "tuple"
        },
        {
          "internalType": "uint256",
          "name": "_price",
          "type": "uint256"
        },
        {
          "internalType": "uint256",
          "name": "_volT",
          "type": "uint256"
        },
        {
          "internalType": "uint256",
          "name": "_maxExposure",
          "type": "uint256"
        }
      ],
      "name": "calcOptionExposure",
      "outputs": [
        {
          "internalType": "uint256",
          "name": "",
          "type": "uint256"
        },
        {
          "internalType": "int256",
          "name": "",
          "type": "int256"
        }
      ],
      "stateMutability": "view",
      "type": "function"
    },
    {
      "inputs": [
        {
          "internalType": "contract Pool",
          "name": "_pool",
          "type": "address"
        },
        {
          "internalType": "bool",
          "name": "_net",
          "type": "bool"
        },
        {
          "internalType": "bool",
          "name": "_average",
          "type": "bool"
        }
      ],
      "name": "calcCapital",
      "outputs": [
        {
          "internalType": "uint256",
          "name": "",
          "type": "uint256"
        }
      ],
      "stateMutability": "view",
      "type": "function"
    }
  ],
  "bytecode": "0x60806040523480156200001157600080fd5b50620000276000801b336200002d60201b60201c565b620001a6565b6200003f82826200004360201b60201c565b5050565b6200005582826200013460201b60201c565b6200013057600160008084815260200190815260200160002060000160008373ffffffffffffffffffffffffffffffffffffffff1673ffffffffffffffffffffffffffffffffffffffff16815260200190815260200160002060006101000a81548160ff021916908315150217905550620000d56200019e60201b60201c565b73ffffffffffffffffffffffffffffffffffffffff168173ffffffffffffffffffffffffffffffffffffffff16837f2f8788117e7eff1d82e926ec794901d17c78024a50270940304540a733656f0d60405160405180910390a45b5050565b600080600084815260200190815260200160002060000160008373ffffffffffffffffffffffffffffffffffffffff1673ffffffffffffffffffffffffffffffffffffffff16815260200190815260200160002060009054906101000a900460ff16905092915050565b600033905090565b615f9580620001b66000396000f3fe608060405234801561001057600080fd5b506004361061018e5760003560e01c806385ae10e6116100de578063cf5b7f9711610097578063e1511a8811610071578063e1511a8814610532578063efb725af14610563578063fba0489114610593578063fc9d80e0146105c35761018e565b8063cf5b7f97146104b6578063d547741f146104e6578063e04c3a72146105025761018e565b806385ae10e6146103b457806391d14854146103e6578063956da05914610416578063a217fddf1461044a578063b058ac6e14610468578063b50e44b8146104985761018e565b8063350807051161014b578063587a6c1511610125578063587a6c15146103085780635c273c2f14610338578063637baf60146103685780637be795e0146103845761018e565b8063350807051461028b57806336568abe146102bc578063408ad4bb146102d85761018e565b806301ffc9a714610193578063132a0f1b146101c35780631ce5e9a6146101f3578063248a9ca31461022357806324b4110e146102535780632f2ff15d1461026f575b600080fd5b6101ad60048036038101906101a891906145a1565b6105f6565b6040516101ba91906145e9565b60405180910390f35b6101dd60048036038101906101d89190614662565b610670565b6040516101ea91906146a8565b60405180910390f35b61020d600480360381019061020891906146ef565b6106c0565b60405161021a91906149e3565b60405180910390f35b61023d60048036038101906102389190614a35565b6108e6565b60405161024a9190614a71565b60405180910390f35b61026d60048036038101906102689190614a8c565b610905565b005b61028960048036038101906102849190614acc565b610e97565b005b6102a560048036038101906102a091906146ef565b610eb8565b6040516102b3929190614b0c565b60405180910390f35b6102d660048036038101906102d19190614acc565b6115db565b005b6102f260048036038101906102ed9190614662565b61165e565b6040516102ff9190614b44565b60405180910390f35b610322600480360381019061031d9190614e47565b611676565b60405161032f91906146a8565b60405180910390f35b610352600480360381019061034d9190614f44565b6119e4565b60405161035f91906146a8565b60405180910390f35b610382600480360381019061037d91906146ef565b61201d565b005b61039e60048036038101906103999190614f97565b612688565b6040516103ab9190615086565b60405180910390f35b6103ce60048036038101906103c991906146ef565b612716565b6040516103dd939291906150a8565b60405180910390f35b61040060048036038101906103fb9190614acc565b61303e565b60405161040d91906145e9565b60405180910390f35b610430600480360381019061042b91906150df565b6130a8565b60405161044195949392919061510d565b60405180910390f35b610452613526565b60405161045f9190614a71565b60405180910390f35b610482600480360381019061047d9190614662565b61352d565b60405161048f91906146a8565b60405180910390f35b6104a0613545565b6040516104ad9190614a71565b60405180910390f35b6104d060048036038101906104cb9190614662565b613569565b6040516104dd91906146a8565b60405180910390f35b61050060048036038101906104fb9190614acc565b613581565b005b61051c60048036038101906105179190614662565b6135a2565b6040516105299190614b44565b60405180910390f35b61054c60048036038101906105479190615160565b6135ba565b60405161055a9291906151cb565b60405180910390f35b61057d60048036038101906105789190614662565b613ae6565b60405161058a9190615086565b60405180910390f35b6105ad60048036038101906105a89190614662565b613b36565b6040516105ba91906146a8565b60405180910390f35b6105dd60048036038101906105d891906146ef565b613b4e565b6040516105ed9493929190615271565b60405180910390f35b60007f7965db0b000000000000000000000000000000000000000000000000000000007bffffffffffffffffffffffffffffffffffffffffffffffffffffffff1916827bffffffffffffffffffffffffffffffffffffffffffffffffffffffff19161480610669575061066882613c8f565b5b9050919050565b60006106b9600360008473ffffffffffffffffffffffffffffffffffffffff1673ffffffffffffffffffffffffffffffffffffffff168152602001908152602001600020613cf9565b9050919050565b6106c8614446565b600182815481106106dc576106db6152b6565b5b9060005260206000209060100201604051806102600160405290816000820160009054906101000a900460ff16600381111561071b5761071a61471c565b5b600381111561072d5761072c61471c565b5b81526020016000820160019054906101000a900460ff1660018111156107565761075561471c565b5b60018111156107685761076761471c565b5b81526020016000820160029054906101000a900460ff1660038111156107915761079061471c565b5b60038111156107a3576107a261471c565b5b81526020016000820160039054906101000a900473ffffffffffffffffffffffffffffffffffffffff1673ffffffffffffffffffffffffffffffffffffffff1673ffffffffffffffffffffffffffffffffffffffff168152602001600182015481526020016002820154815260200160038201548152602001600482015481526020016005820154815260200160068201548152602001600782015481526020016008820154815260200160098201548152602001600a8201548152602001600b8201548152602001600c8201548152602001600d8201548152602001600e820160009054906101000a900473ffffffffffffffffffffffffffffffffffffffff1673ffffffffffffffffffffffffffffffffffffffff1673ffffffffffffffffffffffffffffffffffffffff168152602001600f820154815250509050919050565b6000806000838152602001908152602001600020600101549050919050565b7f10b261d3bc7a74f38949f9212b0336103474898eda034c06ae0a3e478dc0e4a561092f81613d0e565b600073ffffffffffffffffffffffffffffffffffffffff168273ffffffffffffffffffffffffffffffffffffffff160361099e576040517f08c379a000000000000000000000000000000000000000000000000000000000815260040161099590615342565b60405180910390fd5b6000600184815481106109b4576109b36152b6565b5b906000526020600020906010020190504281600301819055508060040154426109dd9190615391565b816005018190555060018160000160026101000a81548160ff02191690836003811115610a0d57610a0c61471c565b5b0217905550600081600e0160009054906101000a900473ffffffffffffffffffffffffffffffffffffffff1690508173__OptionLib_____________________________63d619502790916040518263ffffffff1660e01b8152600401610a7491906153cc565b602060405180830381865af4158015610a91573d6000803e3d6000fd5b505050506040513d601f19601f82011682018060405250810190610ab591906153fc565b600460008373ffffffffffffffffffffffffffffffffffffffff1673ffffffffffffffffffffffffffffffffffffffff1681526020019081526020016000206000828254610b039190615391565b925050819055508173__OptionLib_____________________________63b4abd93a90916040518263ffffffff1660e01b8152600401610b4391906153cc565b602060405180830381865af4158015610b60573d6000803e3d6000fd5b505050506040513d601f19601f82011682018060405250810190610b8491906153fc565b600560008373ffffffffffffffffffffffffffffffffffffffff1673ffffffffffffffffffffffffffffffffffffffff1681526020019081526020016000206000828254610bd29190615391565b92505081905550600180811115610bec57610beb61471c565b5b8260000160019054906101000a900460ff166001811115610c1057610c0f61471c565b5b14610c1c576000610c22565b81600c01545b600660008373ffffffffffffffffffffffffffffffffffffffff1673ffffffffffffffffffffffffffffffffffffffff1681526020019081526020016000206000828254610c709190615391565b9250508190555060006003811115610c8b57610c8a61471c565b5b8260000160009054906101000a900460ff166003811115610caf57610cae61471c565b5b1480610cf0575060026003811115610cca57610cc961471c565b5b8260000160009054906101000a900460ff166003811115610cee57610ced61471c565b5b145b15610d545781600f0154600760008373ffffffffffffffffffffffffffffffffffffffff1673ffffffffffffffffffffffffffffffffffffffff1681526020019081526020016000206000828254610d489190615429565b92505081905550610daf565b81600f0154600860008373ffffffffffffffffffffffffffffffffffffffff1673ffffffffffffffffffffffffffffffffffffffff1681526020019081526020016000206000828254610da79190615429565b925050819055505b610e3d85600260008473ffffffffffffffffffffffffffffffffffffffff1673ffffffffffffffffffffffffffffffffffffffff16815260200190815260200160002060008773ffffffffffffffffffffffffffffffffffffffff1673ffffffffffffffffffffffffffffffffffffffff168152602001908152602001600020613d2290919063ffffffff16565b50610e8f85600360008473ffffffffffffffffffffffffffffffffffffffff1673ffffffffffffffffffffffffffffffffffffffff168152602001908152602001600020613d2290919063ffffffff16565b505050505050565b610ea0826108e6565b610ea981613d0e565b610eb38383613d3c565b505050565b6000806000610ec6846106c0565b905060006001811115610edc57610edb61471c565b5b81602001516001811115610ef357610ef261471c565b5b14610eff576000610f02565b60015b81602001906001811115610f1957610f1861471c565b5b90816001811115610f2d57610f2c61471c565b5b8152505060008161022001519050600080610f47846130a8565b5050925050915060008373ffffffffffffffffffffffffffffffffffffffff16631f21f9af6040518163ffffffff1660e01b8152600401602060405180830381865afa158015610f9b573d6000803e3d6000fd5b505050506040513d601f19601f82011682018060405250810190610fbf91906154ab565b73ffffffffffffffffffffffffffffffffffffffff1663cb4c86b76040518163ffffffff1660e01b8152600401602060405180830381865afa158015611009573d6000803e3d6000fd5b505050506040513d601f19601f8201168201806040525081019061102d91906154ed565b73ffffffffffffffffffffffffffffffffffffffff1663313ce5676040518163ffffffff1660e01b8152600401602060405180830381865afa158015611077573d6000803e3d6000fd5b505050506040513d601f19601f8201168201806040525081019061109b9190615553565b60ff16905084610140015173__MathLib_______________________________63fed4a0f39091846040518363ffffffff1660e01b81526004016110e092919061558f565b602060405180830381865af41580156110fd573d6000803e3d6000fd5b505050506040513d601f19601f8201168201806040525081019061112191906153fc565b73__MathLib_______________________________63b3947c17909161114b428960c00151613e1c565b4261115691906155b8565b620151806040518463ffffffff1660e01b8152600401611178939291906155ec565b602060405180830381865af4158015611195573d6000803e3d6000fd5b505050506040513d601f19601f820116820180604052508101906111b991906153fc565b73__MarketLib_____________________________63174e20e69091836040518363ffffffff1660e01b81526004016111f392919061558f565b602060405180830381865af4158015611210573d6000803e3d6000fd5b505050506040513d601f19601f8201168201806040525081019061123491906153fc565b73__MathLib_______________________________63fed4a0f390918673ffffffffffffffffffffffffffffffffffffffff16631f21f9af6040518163ffffffff1660e01b8152600401602060405180830381865afa15801561129b573d6000803e3d6000fd5b505050506040513d601f19601f820116820180604052508101906112bf91906154ab565b73ffffffffffffffffffffffffffffffffffffffff166305268cff6040518163ffffffff1660e01b8152600401602060405180830381865afa158015611309573d6000803e3d6000fd5b505050506040513d601f19601f8201168201806040525081019061132d9190615661565b73ffffffffffffffffffffffffffffffffffffffff1663b0e21e8a6040518163ffffffff1660e01b8152600401602060405180830381865afa158015611377573d6000803e3d6000fd5b505050506040513d601f19601f8201168201806040525081019061139b91906153fc565b6040518363ffffffff1660e01b81526004016113b892919061558f565b602060405180830381865af41580156113d5573d6000803e3d6000fd5b505050506040513d601f19601f820116820180604052508101906113f991906153fc565b955060018081111561140e5761140d61471c565b5b856020015160018111156114255761142461471c565b5b036114c4578273__MarketLib_____________________________63174e20e69091836040518363ffffffff1660e01b815260040161146592919061558f565b602060405180830381865af4158015611482573d6000803e3d6000fd5b505050506040513d601f19601f820116820180604052508101906114a691906153fc565b96506114b28787613e1c565b876114bd91906155b8565b96506115d1565b60008573__OptionLib_____________________________63d8242549909185876040518463ffffffff1660e01b815260040161150393929190615871565b602060405180830381865af4158015611520573d6000803e3d6000fd5b505050506040513d601f19601f8201168201806040525081019061154491906153fc565b9050838161155291906155b8565b73__MarketLib_____________________________63174e20e69091846040518363ffffffff1660e01b815260040161158c92919061558f565b602060405180830381865af41580156115a9573d6000803e3d6000fd5b505050506040513d601f19601f820116820180604052508101906115cd91906153fc565b9750505b5050505050915091565b6115e3613e35565b73ffffffffffffffffffffffffffffffffffffffff168173ffffffffffffffffffffffffffffffffffffffff1614611650576040517f08c379a00000000000000000000000000000000000000000000000000000000081526004016116479061591d565b60405180910390fd5b61165a8282613e3d565b5050565b60076020528060005260406000206000915090505481565b60007f10b261d3bc7a74f38949f9212b0336103474898eda034c06ae0a3e478dc0e4a56116a281613d0e565b60008860e00151116116e9576040517f08c379a00000000000000000000000000000000000000000000000000000000081526004016116e090615989565b60405180910390fd5b600180549050915060016040518061026001604052808a6000015160038111156117165761171561471c565b5b81526020018a6020015160018111156117325761173161471c565b5b81526020016000600381111561174b5761174a61471c565b5b81526020018a6060015173ffffffffffffffffffffffffffffffffffffffff168152602001848152602001428152602001600081526020018a60e00151815260200160008152602001600081526020018a610140015181526020018781526020018a610180015181526020018a6101a0015181526020018681526020018981526020018881526020018a610220015173ffffffffffffffffffffffffffffffffffffffff16815260200185815250908060018154018082558091505060019003906000526020600020906010020160009091909190915060008201518160000160006101000a81548160ff0219169083600381111561184d5761184c61471c565b5b021790555060208201518160000160016101000a81548160ff0219169083600181111561187d5761187c61471c565b5b021790555060408201518160000160026101000a81548160ff021916908360038111156118ad576118ac61471c565b5b021790555060608201518160000160036101000a81548173ffffffffffffffffffffffffffffffffffffffff021916908373ffffffffffffffffffffffffffffffffffffffff1602179055506080820151816001015560a0820151816002015560c0820151816003015560e08201518160040155610100820151816005015561012082015181600601556101408201518160070155610160820151816008015561018082015181600901556101a082015181600a01556101c082015181600b01556101e082015181600c015561020082015181600d015561022082015181600e0160006101000a81548173ffffffffffffffffffffffffffffffffffffffff021916908373ffffffffffffffffffffffffffffffffffffffff16021790555061024082015181600f01555050509695505050505050565b6000808473ffffffffffffffffffffffffffffffffffffffff16631f21f9af6040518163ffffffff1660e01b8152600401602060405180830381865afa158015611a32573d6000803e3d6000fd5b505050506040513d601f19601f82011682018060405250810190611a5691906154ab565b905060008173ffffffffffffffffffffffffffffffffffffffff1663c0a16f6a6040518163ffffffff1660e01b8152600401602060405180830381865afa158015611aa5573d6000803e3d6000fd5b505050506040513d601f19601f82011682018060405250810190611ac991906159e7565b905060008173ffffffffffffffffffffffffffffffffffffffff1663b0667cf86040518163ffffffff1660e01b8152600401602060405180830381865afa158015611b18573d6000803e3d6000fd5b505050506040513d601f19601f82011682018060405250810190611b3c91906153fc565b905060008373ffffffffffffffffffffffffffffffffffffffff1673__MarketLib_____________________________63e74207d69091846040518363ffffffff1660e01b8152600401611b91929190615a35565b602060405180830381865af4158015611bae573d6000803e3d6000fd5b505050506040513d601f19601f82011682018060405250810190611bd291906153fc565b905060008890506000600560008373ffffffffffffffffffffffffffffffffffffffff1673ffffffffffffffffffffffffffffffffffffffff16815260200190815260200160002054600460008473ffffffffffffffffffffffffffffffffffffffff1673ffffffffffffffffffffffffffffffffffffffff1681526020019081526020016000205473__MathLib_______________________________63fed4a0f39091876040518363ffffffff1660e01b8152600401611c9592919061558f565b602060405180830381865af4158015611cb2573d6000803e3d6000fd5b505050506040513d601f19601f82011682018060405250810190611cd691906153fc565b611ce09190615391565b9050600660008373ffffffffffffffffffffffffffffffffffffffff1673ffffffffffffffffffffffffffffffffffffffff16815260200190815260200160002054611d2c8285613e1c565b84611d3791906155b8565b611d419190615391565b92508815611ee4576000600760008473ffffffffffffffffffffffffffffffffffffffff1673ffffffffffffffffffffffffffffffffffffffff1681526020019081526020016000205473__MathLib_______________________________63806bcd4b9091600860008773ffffffffffffffffffffffffffffffffffffffff1673ffffffffffffffffffffffffffffffffffffffff16815260200190815260200160002054611df090615a5e565b6040518363ffffffff1660e01b8152600401611e0d929190615ab5565b602060405180830381865af4158015611e2a573d6000803e3d6000fd5b505050506040513d601f19601f82011682018060405250810190611e4e91906153fc565b73__MathLib_______________________________63fed4a0f39091876040518363ffffffff1660e01b8152600401611e8892919061558f565b602060405180830381865af4158015611ea5573d6000803e3d6000fd5b505050506040513d601f19601f82011682018060405250810190611ec991906153fc565b9050611ed58185613e1c565b84611ee091906155b8565b9350505b871561200d5760008a73ffffffffffffffffffffffffffffffffffffffff166318160ddd6040518163ffffffff1660e01b8152600401602060405180830381865afa158015611f37573d6000803e3d6000fd5b505050506040513d601f19601f82011682018060405250810190611f5b91906153fc565b90506000811115611fe9578373__MathLib_______________________________63de7f61709091836040518363ffffffff1660e01b8152600401611fa192919061558f565b602060405180830381865af4158015611fbe573d6000803e3d6000fd5b505050506040513d601f19601f82011682018060405250810190611fe291906153fc565b935061200b565b600081148015611ff95750600084145b1561200a57670de0b6b3a764000093505b5b505b8296505050505050509392505050565b7f10b261d3bc7a74f38949f9212b0336103474898eda034c06ae0a3e478dc0e4a561204781613d0e565b60006001838154811061205d5761205c6152b6565b5b90600052602060002090601002019050600081600e0160009054906101000a900473ffffffffffffffffffffffffffffffffffffffff16905060008260000160039054906101000a900473ffffffffffffffffffffffffffffffffffffffff16905061211085600360008573ffffffffffffffffffffffffffffffffffffffff1673ffffffffffffffffffffffffffffffffffffffff168152602001908152602001600020613f1e90919063ffffffff16565b5061219f85600260008573ffffffffffffffffffffffffffffffffffffffff1673ffffffffffffffffffffffffffffffffffffffff16815260200190815260200160002060008473ffffffffffffffffffffffffffffffffffffffff1673ffffffffffffffffffffffffffffffffffffffff168152602001908152602001600020613f1e90919063ffffffff16565b50612262600460008473ffffffffffffffffffffffffffffffffffffffff1673ffffffffffffffffffffffffffffffffffffffff168152602001908152602001600020548473__OptionLib_____________________________63d619502790916040518263ffffffff1660e01b815260040161221c91906153cc565b602060405180830381865af4158015612239573d6000803e3d6000fd5b505050506040513d601f19601f8201168201806040525081019061225d91906153fc565b613e1c565b600460008473ffffffffffffffffffffffffffffffffffffffff1673ffffffffffffffffffffffffffffffffffffffff16815260200190815260200160002060008282546122b091906155b8565b92505081905550612379600560008473ffffffffffffffffffffffffffffffffffffffff1673ffffffffffffffffffffffffffffffffffffffff168152602001908152602001600020548473__OptionLib_____________________________63b4abd93a90916040518263ffffffff1660e01b815260040161233391906153cc565b602060405180830381865af4158015612350573d6000803e3d6000fd5b505050506040513d601f19601f8201168201806040525081019061237491906153fc565b613e1c565b600560008473ffffffffffffffffffffffffffffffffffffffff1673ffffffffffffffffffffffffffffffffffffffff16815260200190815260200160002060008282546123c791906155b8565b9250508190555061245f600660008473ffffffffffffffffffffffffffffffffffffffff1673ffffffffffffffffffffffffffffffffffffffff168152602001908152602001600020546001808111156124245761242361471c565b5b8560000160019054906101000a900460ff1660018111156124485761244761471c565b5b1461245457600061245a565b84600c01545b613e1c565b600660008473ffffffffffffffffffffffffffffffffffffffff1673ffffffffffffffffffffffffffffffffffffffff16815260200190815260200160002060008282546124ad91906155b8565b92505081905550600060038111156124c8576124c761471c565b5b8360000160009054906101000a900460ff1660038111156124ec576124eb61471c565b5b148061252d5750600260038111156125075761250661471c565b5b8360000160009054906101000a900460ff16600381111561252b5761252a61471c565b5b145b156125915782600f0154600760008473ffffffffffffffffffffffffffffffffffffffff1673ffffffffffffffffffffffffffffffffffffffff16815260200190815260200160002060008282546125859190615ade565b925050819055506125ec565b82600f0154600860008473ffffffffffffffffffffffffffffffffffffffff1673ffffffffffffffffffffffffffffffffffffffff16815260200190815260200160002060008282546125e49190615ade565b925050819055505b8260000160039054906101000a900473ffffffffffffffffffffffffffffffffffffffff1673ffffffffffffffffffffffffffffffffffffffff163373ffffffffffffffffffffffffffffffffffffffff161461264a57600361264d565b60025b8360000160026101000a81548160ff021916908360038111156126735761267261471c565b5b02179055504283600601819055505050505050565b606061270e600260008573ffffffffffffffffffffffffffffffffffffffff1673ffffffffffffffffffffffffffffffffffffffff16815260200190815260200160002060008473ffffffffffffffffffffffffffffffffffffffff1673ffffffffffffffffffffffffffffffffffffffff168152602001908152602001600020613f38565b905092915050565b600080600080600185815481106127305761272f6152b6565b5b9060005260206000209060100201600e0160009054906101000a900473ffffffffffffffffffffffffffffffffffffffff16905060008173ffffffffffffffffffffffffffffffffffffffff16631f21f9af6040518163ffffffff1660e01b8152600401602060405180830381865afa1580156127b1573d6000803e3d6000fd5b505050506040513d601f19601f820116820180604052508101906127d591906154ab565b73ffffffffffffffffffffffffffffffffffffffff1663c0a16f6a6040518163ffffffff1660e01b8152600401602060405180830381865afa15801561281f573d6000803e3d6000fd5b505050506040513d601f19601f8201168201806040525081019061284391906159e7565b905060008173ffffffffffffffffffffffffffffffffffffffff1663b0667cf86040518163ffffffff1660e01b8152600401602060405180830381865afa158015612892573d6000803e3d6000fd5b505050506040513d601f19601f820116820180604052508101906128b691906153fc565b905060008373ffffffffffffffffffffffffffffffffffffffff16631f21f9af6040518163ffffffff1660e01b8152600401602060405180830381865afa158015612905573d6000803e3d6000fd5b505050506040513d601f19601f8201168201806040525081019061292991906154ab565b73ffffffffffffffffffffffffffffffffffffffff1663cb4c86b76040518163ffffffff1660e01b8152600401602060405180830381865afa158015612973573d6000803e3d6000fd5b505050506040513d601f19601f8201168201806040525081019061299791906154ed565b73ffffffffffffffffffffffffffffffffffffffff1663313ce5676040518163ffffffff1660e01b8152600401602060405180830381865afa1580156129e1573d6000803e3d6000fd5b505050506040513d601f19601f82011682018060405250810190612a059190615553565b60ff16905060018881548110612a1e57612a1d6152b6565b5b906000526020600020906010020173__OptionLib_____________________________63357aa1df9091846040518363ffffffff1660e01b8152600401612a66929190615b21565b602060405180830381865af4158015612a83573d6000803e3d6000fd5b505050506040513d601f19601f82011682018060405250810190612aa791906153fc565b73__MarketLib_____________________________63174e20e69091836040518363ffffffff1660e01b8152600401612ae192919061558f565b602060405180830381865af4158015612afe573d6000803e3d6000fd5b505050506040513d601f19601f82011682018060405250810190612b2291906153fc565b9650600060018981548110612b3a57612b396152b6565b5b90600052602060002090601002016007015473__MathLib_______________________________63fed4a0f39091856040518363ffffffff1660e01b8152600401612b8692919061558f565b602060405180830381865af4158015612ba3573d6000803e3d6000fd5b505050506040513d601f19601f82011682018060405250810190612bc791906153fc565b73__MathLib_______________________________63b3947c179091612c124260018e81548110612bfb57612bfa6152b6565b5b906000526020600020906010020160030154613e1c565b42612c1d91906155b8565b620151806040518463ffffffff1660e01b8152600401612c3f939291906155ec565b602060405180830381865af4158015612c5c573d6000803e3d6000fd5b505050506040513d601f19601f82011682018060405250810190612c8091906153fc565b73__MarketLib_____________________________63174e20e69091846040518363ffffffff1660e01b8152600401612cba92919061558f565b602060405180830381865af4158015612cd7573d6000803e3d6000fd5b505050506040513d601f19601f82011682018060405250810190612cfb91906153fc565b90508073__MathLib_______________________________63fed4a0f390918773ffffffffffffffffffffffffffffffffffffffff16631f21f9af6040518163ffffffff1660e01b8152600401602060405180830381865afa158015612d65573d6000803e3d6000fd5b505050506040513d601f19601f82011682018060405250810190612d8991906154ab565b73ffffffffffffffffffffffffffffffffffffffff166305268cff6040518163ffffffff1660e01b8152600401602060405180830381865afa158015612dd3573d6000803e3d6000fd5b505050506040513d601f19601f82011682018060405250810190612df79190615661565b73ffffffffffffffffffffffffffffffffffffffff1663b0e21e8a6040518163ffffffff1660e01b8152600401602060405180830381865afa158015612e41573d6000803e3d6000fd5b505050506040513d601f19601f82011682018060405250810190612e6591906153fc565b6040518363ffffffff1660e01b8152600401612e8292919061558f565b602060405180830381865af4158015612e9f573d6000803e3d6000fd5b505050506040513d601f19601f82011682018060405250810190612ec391906153fc565b96508073__MathLib_______________________________63fed4a0f390918773ffffffffffffffffffffffffffffffffffffffff1663d1c699aa6040518163ffffffff1660e01b8152600401602060405180830381865afa158015612f2d573d6000803e3d6000fd5b505050506040513d601f19601f82011682018060405250810190612f5191906153fc565b6040518363ffffffff1660e01b8152600401612f6e92919061558f565b602060405180830381865af4158015612f8b573d6000803e3d6000fd5b505050506040513d601f19601f82011682018060405250810190612faf91906153fc565b955060006001811115612fc557612fc461471c565b5b60018a81548110612fd957612fd86152b6565b5b906000526020600020906010020160000160019054906101000a900460ff16600181111561300a5761300961471c565b5b036130325761302488878961301f9190615391565b613e1c565b8861302f91906155b8565b97505b50505050509193909250565b600080600084815260200190815260200160002060000160008373ffffffffffffffffffffffffffffffffffffffff1673ffffffffffffffffffffffffffffffffffffffff16815260200190815260200160002060009054906101000a900460ff16905092915050565b600080600080600080866102200151905060008173ffffffffffffffffffffffffffffffffffffffff16631f21f9af6040518163ffffffff1660e01b8152600401602060405180830381865afa158015613106573d6000803e3d6000fd5b505050506040513d601f19601f8201168201806040525081019061312a91906154ab565b905060008173ffffffffffffffffffffffffffffffffffffffff1663c0a16f6a6040518163ffffffff1660e01b8152600401602060405180830381865afa158015613179573d6000803e3d6000fd5b505050506040513d601f19601f8201168201806040525081019061319d91906159e7565b90508073ffffffffffffffffffffffffffffffffffffffff1663b0667cf86040518163ffffffff1660e01b8152600401602060405180830381865afa1580156131ea573d6000803e3d6000fd5b505050506040513d601f19601f8201168201806040525081019061320e91906153fc565b955060006132a68a888473ffffffffffffffffffffffffffffffffffffffff1663cfc2dc208e60e001516040518263ffffffff1660e01b815260040161325491906146a8565b602060405180830381865afa158015613271573d6000803e3d6000fd5b505050506040513d601f19601f8201168201806040525081019061329591906153fc565b6132a1886000806119e4565b6135ba565b80965081925050508073__MathLib_______________________________63fed4a0f390918473ffffffffffffffffffffffffffffffffffffffff1663430417f78e60e001516040518263ffffffff1660e01b815260040161330891906146a8565b602060405180830381865afa158015613325573d6000803e3d6000fd5b505050506040513d601f19601f8201168201806040525081019061334991906153fc565b6040518363ffffffff1660e01b815260040161336692919061558f565b602060405180830381865af4158015613383573d6000803e3d6000fd5b505050506040513d601f19601f820116820180604052508101906133a791906153fc565b95508973__OptionLib_____________________________638399d60c909189848773ffffffffffffffffffffffffffffffffffffffff1663a7292ea46040518163ffffffff1660e01b8152600401602060405180830381865afa158015613413573d6000803e3d6000fd5b505050506040513d601f19601f8201168201806040525081019061343791906153fc565b6040518563ffffffff1660e01b81526004016134569493929190615b4a565b602060405180830381865af4158015613473573d6000803e3d6000fd5b505050506040513d601f19601f8201168201806040525081019061349791906153fc565b98508973__OptionLib_____________________________63d82425499091898c6040518463ffffffff1660e01b81526004016134d693929190615871565b602060405180830381865af41580156134f3573d6000803e3d6000fd5b505050506040513d601f19601f8201168201806040525081019061351791906153fc565b97505050505091939590929450565b6000801b81565b60056020528060005260406000206000915090505481565b7f10b261d3bc7a74f38949f9212b0336103474898eda034c06ae0a3e478dc0e4a581565b60046020528060005260406000206000915090505481565b61358a826108e6565b61359381613d0e565b61359d8383613e3d565b505050565b60086020528060005260406000206000915090505481565b6000806000866102200151905060008173ffffffffffffffffffffffffffffffffffffffff1663e0548bd86040518163ffffffff1660e01b8152600401602060405180830381865afa158015613614573d6000803e3d6000fd5b505050506040513d601f19601f8201168201806040525081019061363891906153fc565b905060008273ffffffffffffffffffffffffffffffffffffffff16630f9026186040518163ffffffff1660e01b8152600401602060405180830381865afa158015613687573d6000803e3d6000fd5b505050506040513d601f19601f820116820180604052508101906136ab91906153fc565b9050600060038111156136c1576136c061471c565b5b896000015160038111156136d8576136d761471c565b5b148061370c5750600260038111156136f3576136f261471c565b5b8960000151600381111561370a5761370961471c565b5b145b156138f95760008873__MathLib_______________________________63fed4a0f390918a73__MathLib_______________________________63fed4a0f39091886040518363ffffffff1660e01b815260040161376b92919061558f565b602060405180830381865af4158015613788573d6000803e3d6000fd5b505050506040513d601f19601f820116820180604052508101906137ac91906153fc565b670de0b6b3a76400006137bf9190615391565b6040518363ffffffff1660e01b81526004016137dc92919061558f565b602060405180830381865af41580156137f9573d6000803e3d6000fd5b505050506040513d601f19601f8201168201806040525081019061381d91906153fc565b90506000600760008c610220015173ffffffffffffffffffffffffffffffffffffffff1673ffffffffffffffffffffffffffffffffffffffff1681526020019081526020016000205490508a73__OptionLib_____________________________63a47af6759091848c87868e6040518763ffffffff1660e01b81526004016138ab96959493929190615b93565b6040805180830381865af41580156138c7573d6000803e3d6000fd5b505050506040513d601f19601f820116820180604052508101906138eb9190615c0f565b965096505050505050613add565b60008873__MathLib_______________________________63de7f617090918a73__MathLib_______________________________63fed4a0f39091886040518363ffffffff1660e01b815260040161395392919061558f565b602060405180830381865af4158015613970573d6000803e3d6000fd5b505050506040513d601f19601f8201168201806040525081019061399491906153fc565b670de0b6b3a76400006139a79190615391565b6040518363ffffffff1660e01b81526004016139c492919061558f565b602060405180830381865af41580156139e1573d6000803e3d6000fd5b505050506040513d601f19601f82011682018060405250810190613a0591906153fc565b90506000600860008c610220015173ffffffffffffffffffffffffffffffffffffffff1673ffffffffffffffffffffffffffffffffffffffff1681526020019081526020016000205490508a73__OptionLib_____________________________63e43aeed99091848c87868e6040518763ffffffff1660e01b8152600401613a9396959493929190615b93565b6040805180830381865af4158015613aaf573d6000803e3d6000fd5b505050506040513d601f19601f82011682018060405250810190613ad39190615c0f565b9650965050505050505b94509492505050565b6060613b2f600360008473ffffffffffffffffffffffffffffffffffffffff1673ffffffffffffffffffffffffffffffffffffffff168152602001908152602001600020613f38565b9050919050565b60066020528060005260406000206000915090505481565b6000806000806001805490508510613b9b576040517f08c379a0000000000000000000000000000000000000000000000000000000008152600401613b9290615c9b565b60405180910390fd5b60018581548110613baf57613bae6152b6565b5b906000526020600020906010020160000160029054906101000a900460ff1660018681548110613be257613be16152b6565b5b90600052602060002090601002016005015460018781548110613c0857613c076152b6565b5b906000526020600020906010020160000160039054906101000a900473ffffffffffffffffffffffffffffffffffffffff1660018881548110613c4e57613c4d6152b6565b5b9060005260206000209060100201600e0160009054906101000a900473ffffffffffffffffffffffffffffffffffffffff1693509350935093509193509193565b60007f01ffc9a7000000000000000000000000000000000000000000000000000000007bffffffffffffffffffffffffffffffffffffffffffffffffffffffff1916827bffffffffffffffffffffffffffffffffffffffffffffffffffffffff1916149050919050565b6000613d0782600001613f59565b9050919050565b613d1f81613d1a613e35565b613f6a565b50565b6000613d34836000018360001b614007565b905092915050565b613d46828261303e565b613e1857600160008084815260200190815260200160002060000160008373ffffffffffffffffffffffffffffffffffffffff1673ffffffffffffffffffffffffffffffffffffffff16815260200190815260200160002060006101000a81548160ff021916908315150217905550613dbd613e35565b73ffffffffffffffffffffffffffffffffffffffff168173ffffffffffffffffffffffffffffffffffffffff16837f2f8788117e7eff1d82e926ec794901d17c78024a50270940304540a733656f0d60405160405180910390a45b5050565b6000818310613e2b5781613e2d565b825b905092915050565b600033905090565b613e47828261303e565b15613f1a57600080600084815260200190815260200160002060000160008373ffffffffffffffffffffffffffffffffffffffff1673ffffffffffffffffffffffffffffffffffffffff16815260200190815260200160002060006101000a81548160ff021916908315150217905550613ebf613e35565b73ffffffffffffffffffffffffffffffffffffffff168173ffffffffffffffffffffffffffffffffffffffff16837ff6391f5c32d9c69d2a47ea670b442974b53935d1edc7fd64eb21e047a839171b60405160405180910390a45b5050565b6000613f30836000018360001b614077565b905092915050565b60606000613f488360000161418b565b905060608190508092505050919050565b600081600001805490509050919050565b613f74828261303e565b61400357613f998173ffffffffffffffffffffffffffffffffffffffff1660146141e7565b613fa78360001c60206141e7565b604051602001613fb8929190615dc4565b6040516020818303038152906040526040517f08c379a0000000000000000000000000000000000000000000000000000000008152600401613ffa9190615e37565b60405180910390fd5b5050565b60006140138383614423565b61406c578260000182908060018154018082558091505060019003906000526020600020016000909190919091505582600001805490508360010160008481526020019081526020016000208190555060019050614071565b600090505b92915050565b6000808360010160008481526020019081526020016000205490506000811461417f5760006001826140a991906155b8565b90506000600186600001805490506140c191906155b8565b90508181146141305760008660000182815481106140e2576140e16152b6565b5b9060005260206000200154905080876000018481548110614106576141056152b6565b5b90600052602060002001819055508387600101600083815260200190815260200160002081905550505b8560000180548061414457614143615e59565b5b600190038181906000526020600020016000905590558560010160008681526020019081526020016000206000905560019350505050614185565b60009150505b92915050565b6060816000018054806020026020016040519081016040528092919081815260200182805480156141db57602002820191906000526020600020905b8154815260200190600101908083116141c7575b50505050509050919050565b6060600060028360026141fa9190615e88565b6142049190615391565b67ffffffffffffffff81111561421d5761421c614b75565b5b6040519080825280601f01601f19166020018201604052801561424f5781602001600182028036833780820191505090505b5090507f300000000000000000000000000000000000000000000000000000000000000081600081518110614287576142866152b6565b5b60200101907effffffffffffffffffffffffffffffffffffffffffffffffffffffffffffff1916908160001a9053507f7800000000000000000000000000000000000000000000000000000000000000816001815181106142eb576142ea6152b6565b5b60200101907effffffffffffffffffffffffffffffffffffffffffffffffffffffffffffff1916908160001a9053506000600184600261432b9190615e88565b6143359190615391565b90505b60018111156143d5577f3031323334353637383961626364656600000000000000000000000000000000600f861660108110614377576143766152b6565b5b1a60f81b82828151811061438e5761438d6152b6565b5b60200101907effffffffffffffffffffffffffffffffffffffffffffffffffffffffffffff1916908160001a905350600485901c9450806143ce90615eca565b9050614338565b5060008414614419576040517f08c379a000000000000000000000000000000000000000000000000000000000815260040161441090615f3f565b60405180910390fd5b8091505092915050565b600080836001016000848152602001908152602001600020541415905092915050565b604051806102600160405280600060038111156144665761446561471c565b5b81526020016000600181111561447f5761447e61471c565b5b8152602001600060038111156144985761449761471c565b5b8152602001600073ffffffffffffffffffffffffffffffffffffffff16815260200160008152602001600081526020016000815260200160008152602001600081526020016000815260200160008152602001600081526020016000815260200160008152602001600081526020016000815260200160008152602001600073ffffffffffffffffffffffffffffffffffffffff168152602001600081525090565b6000604051905090565b600080fd5b60007fffffffff0000000000000000000000000000000000000000000000000000000082169050919050565b61457e81614549565b811461458957600080fd5b50565b60008135905061459b81614575565b92915050565b6000602082840312156145b7576145b6614544565b5b60006145c58482850161458c565b91505092915050565b60008115159050919050565b6145e3816145ce565b82525050565b60006020820190506145fe60008301846145da565b92915050565b600073ffffffffffffffffffffffffffffffffffffffff82169050919050565b600061462f82614604565b9050919050565b61463f81614624565b811461464a57600080fd5b50565b60008135905061465c81614636565b92915050565b60006020828403121561467857614677614544565b5b60006146868482850161464d565b91505092915050565b6000819050919050565b6146a28161468f565b82525050565b60006020820190506146bd6000830184614699565b92915050565b6146cc8161468f565b81146146d757600080fd5b50565b6000813590506146e9816146c3565b92915050565b60006020828403121561470557614704614544565b5b6000614713848285016146da565b91505092915050565b7f4e487b7100000000000000000000000000000000000000000000000000000000600052602160045260246000fd5b6004811061475c5761475b61471c565b5b50565b600081905061476d8261474b565b919050565b600061477d8261475f565b9050919050565b61478d81614772565b82525050565b600281106147a4576147a361471c565b5b50565b60008190506147b582614793565b919050565b60006147c5826147a7565b9050919050565b6147d5816147ba565b82525050565b600481106147ec576147eb61471c565b5b50565b60008190506147fd826147db565b919050565b600061480d826147ef565b9050919050565b61481d81614802565b82525050565b61482c81614624565b82525050565b61483b8161468f565b82525050565b6000819050919050565b61485481614841565b82525050565b610260820160008201516148716000850182614784565b50602082015161488460208501826147cc565b5060408201516148976040850182614814565b5060608201516148aa6060850182614823565b5060808201516148bd6080850182614832565b5060a08201516148d060a0850182614832565b5060c08201516148e360c0850182614832565b5060e08201516148f660e0850182614832565b5061010082015161490b610100850182614832565b50610120820151614920610120850182614832565b50610140820151614935610140850182614832565b5061016082015161494a610160850182614832565b5061018082015161495f610180850182614832565b506101a08201516149746101a0850182614832565b506101c08201516149896101c0850182614832565b506101e082015161499e6101e0850182614832565b506102008201516149b3610200850182614832565b506102208201516149c8610220850182614823565b506102408201516149dd61024085018261484b565b50505050565b6000610260820190506149f9600083018461485a565b92915050565b6000819050919050565b614a12816149ff565b8114614a1d57600080fd5b50565b600081359050614a2f81614a09565b92915050565b600060208284031215614a4b57614a4a614544565b5b6000614a5984828501614a20565b91505092915050565b614a6b816149ff565b82525050565b6000602082019050614a866000830184614a62565b92915050565b60008060408385031215614aa357614aa2614544565b5b6000614ab1858286016146da565b9250506020614ac28582860161464d565b9150509250929050565b60008060408385031215614ae357614ae2614544565b5b6000614af185828601614a20565b9250506020614b028582860161464d565b9150509250929050565b6000604082019050614b216000830185614699565b614b2e6020830184614699565b9392505050565b614b3e81614841565b82525050565b6000602082019050614b596000830184614b35565b92915050565b600080fd5b6000601f19601f8301169050919050565b7f4e487b7100000000000000000000000000000000000000000000000000000000600052604160045260246000fd5b614bad82614b64565b810181811067ffffffffffffffff82111715614bcc57614bcb614b75565b5b80604052505050565b6000614bdf61453a565b9050614beb8282614ba4565b919050565b60048110614bfd57600080fd5b50565b600081359050614c0f81614bf0565b92915050565b60028110614c2257600080fd5b50565b600081359050614c3481614c15565b92915050565b60048110614c4757600080fd5b50565b600081359050614c5981614c3a565b92915050565b614c6881614841565b8114614c7357600080fd5b50565b600081359050614c8581614c5f565b92915050565b60006102608284031215614ca257614ca1614b5f565b5b614cad610260614bd5565b90506000614cbd84828501614c00565b6000830152506020614cd184828501614c25565b6020830152506040614ce584828501614c4a565b6040830152506060614cf98482850161464d565b6060830152506080614d0d848285016146da565b60808301525060a0614d21848285016146da565b60a08301525060c0614d35848285016146da565b60c08301525060e0614d49848285016146da565b60e083015250610100614d5e848285016146da565b61010083015250610120614d74848285016146da565b61012083015250610140614d8a848285016146da565b61014083015250610160614da0848285016146da565b61016083015250610180614db6848285016146da565b610180830152506101a0614dcc848285016146da565b6101a0830152506101c0614de2848285016146da565b6101c0830152506101e0614df8848285016146da565b6101e083015250610200614e0e848285016146da565b61020083015250610220614e248482850161464d565b61022083015250610240614e3a84828501614c76565b6102408301525092915050565b6000806000806000806103008789031215614e6557614e64614544565b5b6000614e7389828a01614c8b565b965050610260614e8589828a016146da565b955050610280614e9789828a016146da565b9450506102a0614ea989828a016146da565b9350506102c0614ebb89828a016146da565b9250506102e0614ecd89828a01614c76565b9150509295509295509295565b6000614ee582614624565b9050919050565b614ef581614eda565b8114614f0057600080fd5b50565b600081359050614f1281614eec565b92915050565b614f21816145ce565b8114614f2c57600080fd5b50565b600081359050614f3e81614f18565b92915050565b600080600060608486031215614f5d57614f5c614544565b5b6000614f6b86828701614f03565b9350506020614f7c86828701614f2f565b9250506040614f8d86828701614f2f565b9150509250925092565b60008060408385031215614fae57614fad614544565b5b6000614fbc8582860161464d565b9250506020614fcd8582860161464d565b9150509250929050565b600081519050919050565b600082825260208201905092915050565b6000819050602082019050919050565b600061500f8383614832565b60208301905092915050565b6000602082019050919050565b600061503382614fd7565b61503d8185614fe2565b935061504883614ff3565b8060005b838110156150795781516150608882615003565b975061506b8361501b565b92505060018101905061504c565b5085935050505092915050565b600060208201905081810360008301526150a08184615028565b905092915050565b60006060820190506150bd6000830186614699565b6150ca6020830185614699565b6150d76040830184614699565b949350505050565b600061026082840312156150f6576150f5614544565b5b600061510484828501614c8b565b91505092915050565b600060a0820190506151226000830188614699565b61512f6020830187614699565b61513c6040830186614699565b6151496060830185614699565b6151566080830184614b35565b9695505050505050565b6000806000806102c0858703121561517b5761517a614544565b5b600061518987828801614c8b565b94505061026061519b878288016146da565b9350506102806151ad878288016146da565b9250506102a06151bf878288016146da565b91505092959194509250565b60006040820190506151e06000830185614699565b6151ed6020830184614b35565b9392505050565b6151fd81614802565b82525050565b61520c81614624565b82525050565b6000819050919050565b600061523761523261522d84614604565b615212565b614604565b9050919050565b60006152498261521c565b9050919050565b600061525b8261523e565b9050919050565b61526b81615250565b82525050565b600060808201905061528660008301876151f4565b6152936020830186614699565b6152a06040830185615203565b6152ad6060830184615262565b95945050505050565b7f4e487b7100000000000000000000000000000000000000000000000000000000600052603260045260246000fd5b600082825260208201905092915050565b7f3061646472000000000000000000000000000000000000000000000000000000600082015250565b600061532c6005836152e5565b9150615337826152f6565b602082019050919050565b6000602082019050818103600083015261535b8161531f565b9050919050565b7f4e487b7100000000000000000000000000000000000000000000000000000000600052601160045260246000fd5b600061539c8261468f565b91506153a78361468f565b92508282019050808211156153bf576153be615362565b5b92915050565b8082525050565b60006020820190506153e160008301846153c5565b92915050565b6000815190506153f6816146c3565b92915050565b60006020828403121561541257615411614544565b5b6000615420848285016153e7565b91505092915050565b600061543482614841565b915061543f83614841565b92508282019050828112156000831216838212600084121516171561546757615466615362565b5b92915050565b600061547882614624565b9050919050565b6154888161546d565b811461549357600080fd5b50565b6000815190506154a58161547f565b92915050565b6000602082840312156154c1576154c0614544565b5b60006154cf84828501615496565b91505092915050565b6000815190506154e781614636565b92915050565b60006020828403121561550357615502614544565b5b6000615511848285016154d8565b91505092915050565b600060ff82169050919050565b6155308161551a565b811461553b57600080fd5b50565b60008151905061554d81615527565b92915050565b60006020828403121561556957615568614544565b5b60006155778482850161553e565b91505092915050565b6155898161468f565b82525050565b60006040820190506155a46000830185615580565b6155b16020830184615580565b9392505050565b60006155c38261468f565b91506155ce8361468f565b92508282039050818111156155e6576155e5615362565b5b92915050565b60006060820190506156016000830186615580565b61560e6020830185615580565b61561b6040830184615580565b949350505050565b600061562e82614624565b9050919050565b61563e81615623565b811461564957600080fd5b50565b60008151905061565b81615635565b92915050565b60006020828403121561567757615676614544565b5b60006156858482850161564c565b91505092915050565b61569781614772565b82525050565b6156a6816147ba565b82525050565b6156b581614802565b82525050565b6156c481614624565b82525050565b6156d38161468f565b82525050565b6156e281614841565b82525050565b610260820160008201516156ff600085018261568e565b506020820151615712602085018261569d565b50604082015161572560408501826156ac565b50606082015161573860608501826156bb565b50608082015161574b60808501826156ca565b5060a082015161575e60a08501826156ca565b5060c082015161577160c08501826156ca565b5060e082015161578460e08501826156ca565b506101008201516157996101008501826156ca565b506101208201516157ae6101208501826156ca565b506101408201516157c36101408501826156ca565b506101608201516157d86101608501826156ca565b506101808201516157ed6101808501826156ca565b506101a08201516158026101a08501826156ca565b506101c08201516158176101c08501826156ca565b506101e082015161582c6101e08501826156ca565b506102008201516158416102008501826156ca565b506102208201516158566102208501826156bb565b5061024082015161586b6102408501826156d9565b50505050565b60006102a08201905061588760008301866156e8565b615895610260830185615580565b6158a3610280830184615580565b949350505050565b7f416363657373436f6e74726f6c3a2063616e206f6e6c792072656e6f756e636560008201527f20726f6c657320666f722073656c660000000000000000000000000000000000602082015250565b6000615907602f836152e5565b9150615912826158ab565b604082019050919050565b60006020820190508181036000830152615936816158fa565b9050919050565b7f5a65726f2074656e6f7200000000000000000000000000000000000000000000600082015250565b6000615973600a836152e5565b915061597e8261593d565b602082019050919050565b600060208201905081810360008301526159a281615966565b9050919050565b60006159b482614624565b9050919050565b6159c4816159a9565b81146159cf57600080fd5b50565b6000815190506159e1816159bb565b92915050565b6000602082840312156159fd576159fc614544565b5b6000615a0b848285016159d2565b91505092915050565b6000615a1f8261523e565b9050919050565b615a2f81615a14565b82525050565b6000604082019050615a4a6000830185615a26565b615a576020830184615580565b9392505050565b6000615a6982614841565b91507f80000000000000000000000000000000000000000000000000000000000000008203615a9b57615a9a615362565b5b816000039050919050565b615aaf81614841565b82525050565b6000604082019050615aca6000830185615aa6565b615ad76020830184615aa6565b9392505050565b6000615ae982614841565b9150615af483614841565b9250828203905081811260008412168282136000851215161715615b1b57615b1a615362565b5b92915050565b6000604082019050615b3660008301856153c5565b615b436020830184615580565b9392505050565b60006102c082019050615b6060008301876156e8565b615b6e610260830186615580565b615b7c610280830185615580565b615b8a6102a0830184615580565b95945050505050565b600061030082019050615ba960008301896156e8565b615bb7610260830188615580565b615bc5610280830187615580565b615bd36102a0830186615580565b615be16102c0830185615aa6565b615bef6102e0830184615580565b979650505050505050565b600081519050615c0981614c5f565b92915050565b60008060408385031215615c2657615c25614544565b5b6000615c34858286016153e7565b9250506020615c4585828601615bfa565b9150509250929050565b7f2d49440000000000000000000000000000000000000000000000000000000000600082015250565b6000615c856003836152e5565b9150615c9082615c4f565b602082019050919050565b60006020820190508181036000830152615cb481615c78565b9050919050565b600081905092915050565b7f416363657373436f6e74726f6c3a206163636f756e7420000000000000000000600082015250565b6000615cfc601783615cbb565b9150615d0782615cc6565b601782019050919050565b600081519050919050565b60005b83811015615d3b578082015181840152602081019050615d20565b60008484015250505050565b6000615d5282615d12565b615d5c8185615cbb565b9350615d6c818560208601615d1d565b80840191505092915050565b7f206973206d697373696e6720726f6c6520000000000000000000000000000000600082015250565b6000615dae601183615cbb565b9150615db982615d78565b601182019050919050565b6000615dcf82615cef565b9150615ddb8285615d47565b9150615de682615da1565b9150615df28284615d47565b91508190509392505050565b6000615e0982615d12565b615e1381856152e5565b9350615e23818560208601615d1d565b615e2c81614b64565b840191505092915050565b60006020820190508181036000830152615e518184615dfe565b905092915050565b7f4e487b7100000000000000000000000000000000000000000000000000000000600052603160045260246000fd5b6000615e938261468f565b9150615e9e8361468f565b9250828202615eac8161468f565b91508282048414831517615ec357615ec2615362565b5b5092915050565b6000615ed58261468f565b915060008203615ee857615ee7615362565b5b600182039050919050565b7f537472696e67733a20686578206c656e67746820696e73756666696369656e74600082015250565b6000615f296020836152e5565b9150615f3482615ef3565b602082019050919050565b60006020820190508181036000830152615f5881615f1c565b905091905056fea2646970667358221220c2c019d40df8b7f4ef40bf383f106265f87377dfb4213e4f37b825b16772649364736f6c63430008110033",
  "immutableReferences": {},
  "source": "// SPDX-License-Identifier: MIT\npragma solidity 0.8.17;\n\nimport \"@openzeppelin/contracts/access/AccessControl.sol\";\nimport \"@openzeppelin/contracts/utils/structs/EnumerableSet.sol\";\nimport \"./libraries/MarketLib.sol\";\nimport \"./libraries/OptionLib.sol\";\nimport \"./libraries/MathLib.sol\";\nimport \"./interfaces/EOption.sol\";\nimport \"./pools/Pool.sol\";\nimport \"./pools/MarketMaker.sol\";\nimport \"./VolatilityChain.sol\";\nimport \"./VolatilityToken.sol\";\n\ncontract OptionVault is EOption, AccessControl{\n  using MathLib for uint256;\n  using MathLib for int256;\n  using MarketLib for uint256;\n  using MarketLib for MarketMaker;\n  \n  using OptionLib for OptionLib.Option;\n  using EnumerableSet for EnumerableSet.UintSet;\n\n  bytes32 public constant EXCHANGE = keccak256(\"EXCHANGE\");\n  \n  // list of option contracts\n  OptionLib.Option[] internal aOption;\n  mapping(address=>mapping(address=> EnumerableSet.UintSet)) internal mHolderAtiveOption;\n  mapping(address=>EnumerableSet.UintSet) internal mActiveOption;\n  mapping(address=>uint256) public mUnderCollateral;\n  mapping(address=>uint256) public mFundCollateral;\n  mapping(address=>uint256) public mShortPremiums;\n  mapping(address=>int256) public mExposureUp;\n  mapping(address=>int256) public mExposureDown;\n\n  // immutable and constant values\n  uint256 internal constant BASE  = 1e18;\n  uint256 internal constant SCALING = 1e5;\n  uint256 internal constant SECONDS_1D = 86400;\n\n  // constructor\n  constructor(){\n    _setupRole(DEFAULT_ADMIN_ROLE, msg.sender); }\n  \n  // functions to get information of the option list -> ONLY USED in VIEW, gas cost unlimited\n  function getHolderOptions(address _pool, address _address) external view returns(uint256[] memory){\n    return mHolderAtiveOption[_pool][_address].values();}\n  function getOption(uint256 _id) public view returns(OptionLib.Option memory) {return aOption[_id];}\n  function getActiveOptionCount(address _poolAddress) public view returns(uint256) {return mActiveOption[_poolAddress].length();}\n  function getActiveOptions(address _poolAddress) external view returns(uint256[] memory) {return mActiveOption[_poolAddress].values();}\n\n  function getOptionInfo(uint256 _id) external view returns(OptionLib.OptionStatus, uint256, address, Pool) {\n    require(_id< aOption.length, '-ID');\n    return (aOption[_id].status, aOption[_id].maturity, aOption[_id].holder, Pool(aOption[_id].pool));}\n\n  // function to add new option contracts, only executable by Exchange contract as owner\n  // arguments: option contracts (in struct), premium (in funding token decimals), collateral (in funding token decimals), price (in price source decimals), volatility (in default decimals 18)\n  // return id of option contract\n  function addOption(OptionLib.Option memory _option, uint256 _premium, uint256 _collateral, uint256 _price, uint256 _vol, int256 _exposure) external onlyRole(EXCHANGE) returns(uint256 _id){\n    require(_option.tenor > 0, \"Zero tenor\");\n    _id = aOption.length;\n    \n    // Arguments: option type, option side, contract status (default to draft), contract holder address, contract id, creation timestamp, effective timestamp (default to 0), tenor in seconds, maturity timestamp (default to 0), excersie timestamp (default to 0), amount or size of contract, current spot price, option strike, implied volatility, calculated premium and total cost including collaterals.\n    aOption.push(OptionLib.Option(_option.poType, _option.side, OptionLib.OptionStatus.Draft, _option.holder, _id, block.timestamp,  0, _option.tenor, 0,  0, _option.amount, _price, _option.strike, _option.spread, _vol, _premium, _collateral, _option.pool, _exposure));}\n\n  // function to stamp option as an active contract, only executable by Exchange contract as owner\n  // arguments: contract id and holder address\n  function stampActiveOption(uint256 _id, address _holder) external onlyRole(EXCHANGE){\n    require(_holder != address(0), \"0addr\"); \n\n    // update Option records\n    OptionLib.Option storage _option = aOption[_id];\n    _option.effectiveTime = block.timestamp;\n    _option.maturity = block.timestamp + _option.tenor;\n    _option.status = OptionLib.OptionStatus.Active;\n    \n    // update ownership and exposure records\n    address _poolAddress = _option.pool;\n    mUnderCollateral[_poolAddress] += _option.getUnderCollateral();\n    mFundCollateral[_poolAddress] += _option.sellFundCollateral();\n    mShortPremiums[_poolAddress] += _option.side == OptionLib.OptionSide.Sell? _option.premium: 0;\n\n    if(_option.poType == OptionLib.PayoffType.Call || _option.poType == OptionLib.PayoffType.CallSpread){\n      mExposureUp[_poolAddress] += _option.exposure;}\n    else{\n      mExposureDown[_poolAddress] += _option.exposure;}\n\n    mHolderAtiveOption[_poolAddress][_holder].add(_id);\n    mActiveOption[_poolAddress].add(_id);}\n\n  // function to stamp option as an expired contract, only executable by Exchange contract as owner\n  // arguments: contract id\n  function stampExpiredOption(uint256 _id)  external onlyRole(EXCHANGE){\n    // update Option records\n    OptionLib.Option storage _option = aOption[_id];\n    address _poolAddress = _option.pool;\n    address _holder = _option.holder;\n    mActiveOption[_poolAddress].remove(_id);\n    mHolderAtiveOption[_poolAddress][_holder].remove(_id);\n\n    mUnderCollateral[_poolAddress] -= Math.min(mUnderCollateral[_poolAddress], _option.getUnderCollateral());\n    mFundCollateral[_poolAddress] -= Math.min(mFundCollateral[_poolAddress], _option.sellFundCollateral());\n    mShortPremiums[_poolAddress] -= Math.min(mShortPremiums[_poolAddress], _option.side == OptionLib.OptionSide.Sell? _option.premium: 0);\n\n    if(_option.poType == OptionLib.PayoffType.Call || _option.poType == OptionLib.PayoffType.CallSpread){\n      mExposureUp[_poolAddress] -= _option.exposure;}\n    else{\n      mExposureDown[_poolAddress] -= _option.exposure;}\n   \n    _option.status = (msg.sender == _option.holder)? OptionLib.OptionStatus.Exercised: OptionLib.OptionStatus.Expired;\n    _option.exerciseTime = block.timestamp;\n  }\n\n  // contract payoff of specified contract ID\n  function getContractPayoff(uint256 _id) external view returns(uint256 _toHolder, uint256 _toProtocol, uint256 _toExerciser){\n    Pool _pool = Pool(aOption[_id].pool);\n    VolatilityChain _volChain = _pool.marketMaker().getVolatilityChain();\n    uint256 _price = _volChain.queryPrice();\n    uint256 _fundingDecimals = ERC20(_pool.marketMaker().funding()).decimals();\n    _toHolder = aOption[_id].calcPayoff(_price).toDecimals(_fundingDecimals);\n\n    uint256 _feeBase = aOption[_id].amount.ethmul(_price).muldiv(block.timestamp - Math.min(block.timestamp, aOption[_id].effectiveTime), SECONDS_1D).toDecimals(_fundingDecimals);\n    _toProtocol = _feeBase.ethmul(_pool.marketMaker().govToken().protocolFee());\n    _toExerciser = _feeBase.ethmul(_pool.exerciseFee());\n    \n    if(aOption[_id].side == OptionLib.OptionSide.Buy){\n      _toHolder = _toHolder - Math.min(_toHolder, _toProtocol + _toExerciser);\n    }\n  }\n\n  // contract unwind value of specified contract ID. no exerciser as only holder can unwind exiting contract\n  function calcOptionUnwindValue(uint256 _id) external view returns(uint256 _toHolder, uint256 _toProtocol){\n    OptionLib.Option memory _option = getOption(_id);\n    _option.side = _option.side == OptionLib.OptionSide.Buy? OptionLib.OptionSide.Sell: OptionLib.OptionSide.Buy;\n    Pool _pool = Pool(_option.pool);\n    (uint256 _premium, , uint256 _price , , ) = calcOptionCost(_option);\n\n    uint256 _fundingDecimals = ERC20(_pool.marketMaker().funding()).decimals();\n    _toProtocol = _option.amount.ethmul(_price).muldiv(block.timestamp - Math.min(block.timestamp, _option.effectiveTime), SECONDS_1D).toDecimals(_fundingDecimals).ethmul(_pool.marketMaker().govToken().protocolFee());\n\n    if(_option.side == OptionLib.OptionSide.Sell){\n      _toHolder = _premium.toDecimals(_fundingDecimals);\n      _toHolder = _toHolder - Math.min(_toHolder, _toProtocol);\n    }\n    else{\n      uint256 _collateral = _option.calcCollateral(_price, _premium);\n      _toHolder = (_collateral - _premium).toDecimals(_fundingDecimals);\n    }\n  }\n\n  function calcOptionCost(OptionLib.Option memory _option) public view returns(uint256 _premium, uint256 _collateral, uint256 _price, uint256 _annualisedVol, int256 _exposure){\n    Pool _pool = Pool(_option.pool);\n    MarketMaker _market = _pool.marketMaker();\n    VolatilityChain _volChain = _market.getVolatilityChain();\n    _price = _volChain.queryPrice();\n\n    uint256 _impVol;\n    (_impVol, _exposure) = calcOptionExposure(_option, _price, _volChain.queryVol(_option.tenor), calcCapital(_pool, false, false));\n    \n    _annualisedVol = _impVol.ethmul(_volChain.getSqrtRatio(_option.tenor));\n    _premium = _option.calcPremium(_price, _impVol, _market.loanInterest());\n    _collateral = _option.calcCollateral(_price, _premium);\n  }\n\n  function calcOptionExposure(OptionLib.Option memory _option, uint256 _price, uint256 _volT, uint256 _maxExposure) public view returns(uint256, int256){\n    Pool _pool = Pool(_option.pool);\n    uint256 _exposureSigma = _pool.exposureSigma();\n    uint256 _capacityFactor = _pool.volCapacityFactor();\n    if(_option.poType == OptionLib.PayoffType.Call || _option.poType == OptionLib.PayoffType.CallSpread){\n      uint256 _priceAfter = _price.ethmul(BASE + _volT.ethmul(_exposureSigma));\n      int256 _currentExposure = mExposureUp[_option.pool];\n      return _option.quoteCallVol(_priceAfter, _volT, _capacityFactor, _currentExposure , _maxExposure);  \n    }\n    else{\n      uint256 _priceAfter = _price.ethdiv(BASE + _volT.ethmul(_exposureSigma));\n      int256 _currentExposure = mExposureDown[_option.pool];\n      return _option.quotePutVol(_priceAfter, _volT, _capacityFactor, _currentExposure, _maxExposure);  \n    }\n  }\n    \n  // functions related to capital calculation, addition and removals\n  // calculate capitals. Arguments: pool address, net for net capital (removing all collaterals and max exposures of option contracts) or gross (including all exposures in the underlying and funding tokens), average for average capital (total divided by number of Pool tokens) or gross (not divided by tokens)\n  function calcCapital(Pool _pool, bool _net, bool _average) public view returns(uint256){\n    MarketMaker _market = _pool.marketMaker();\n    VolatilityChain _volChain = _market.getVolatilityChain();\n    uint256 _price = _volChain.queryPrice();\n    uint256 _capital = _market.getGrossCapital(_price);\n\n    address _poolAddress = address(_pool);\n    uint256 _collateral = mUnderCollateral[_poolAddress].ethmul(_price) + mFundCollateral[_poolAddress];\n    _capital = _capital - Math.min(_collateral, _capital) + mShortPremiums[_poolAddress];\n    \n    if(_net){ \n      uint256 _exposure = mExposureUp[_poolAddress].absmax(-mExposureDown[_poolAddress]).ethmul(_price);\n      _capital -= Math.min(_exposure, _capital);}\n\n    if(_average){ \n      uint256 _poolSupply = _pool.totalSupply();\n      if(_poolSupply > 0) {\n        _capital = _capital.ethdiv(_poolSupply); }\n      else if(_poolSupply == 0 && _capital == 0) {\n        _capital = BASE;}}\n    \n    return _capital;\n  }\n}\n",
  "sourcePath": "/Users/mac/Documents/GitHub/moret/contracts/OptionVault.sol",
  "compiler": {
    "name": "solc",
    "version": "0.8.17+commit.8df45f5f.Emscripten.clang"
  },
  "schemaVersion": "3.4.3",
  "updatedAt": "2023-01-15T15:53:25.075Z",
  "devdoc": {
    "kind": "dev",
    "methods": {
      "getRoleAdmin(bytes32)": {
        "details": "Returns the admin role that controls `role`. See {grantRole} and {revokeRole}. To change a role's admin, use {_setRoleAdmin}."
      },
      "grantRole(bytes32,address)": {
        "details": "Grants `role` to `account`. If `account` had not been already granted `role`, emits a {RoleGranted} event. Requirements: - the caller must have ``role``'s admin role."
      },
      "hasRole(bytes32,address)": {
        "details": "Returns `true` if `account` has been granted `role`."
      },
      "renounceRole(bytes32,address)": {
        "details": "Revokes `role` from the calling account. Roles are often managed via {grantRole} and {revokeRole}: this function's purpose is to provide a mechanism for accounts to lose their privileges if they are compromised (such as when a trusted device is misplaced). If the calling account had been revoked `role`, emits a {RoleRevoked} event. Requirements: - the caller must be `account`."
      },
      "revokeRole(bytes32,address)": {
        "details": "Revokes `role` from `account`. If `account` had been granted `role`, emits a {RoleRevoked} event. Requirements: - the caller must have ``role``'s admin role."
      },
      "supportsInterface(bytes4)": {
        "details": "See {IERC165-supportsInterface}."
      }
    },
    "version": 1
  },
  "userdoc": {
    "kind": "user",
    "methods": {},
    "version": 1
  }
}