{
  "contractName": "Pool",
  "abi": [
    {
      "inputs": [
        {
          "internalType": "string",
          "name": "_name",
          "type": "string"
        },
        {
          "internalType": "string",
          "name": "_symbol",
          "type": "string"
        },
        {
          "internalType": "address",
          "name": "_marketMaker",
          "type": "address"
        }
      ],
      "stateMutability": "nonpayable",
      "type": "constructor"
    },
    {
      "anonymous": false,
      "inputs": [
        {
          "indexed": true,
          "internalType": "address",
          "name": "owner",
          "type": "address"
        },
        {
          "indexed": true,
          "internalType": "address",
          "name": "spender",
          "type": "address"
        },
        {
          "indexed": false,
          "internalType": "uint256",
          "name": "value",
          "type": "uint256"
        }
      ],
      "name": "Approval",
      "type": "event"
    },
    {
      "anonymous": false,
      "inputs": [
        {
          "indexed": true,
          "internalType": "address",
          "name": "delegator",
          "type": "address"
        },
        {
          "indexed": true,
          "internalType": "address",
          "name": "fromDelegate",
          "type": "address"
        },
        {
          "indexed": true,
          "internalType": "address",
          "name": "toDelegate",
          "type": "address"
        }
      ],
      "name": "DelegateChanged",
      "type": "event"
    },
    {
      "anonymous": false,
      "inputs": [
        {
          "indexed": true,
          "internalType": "address",
          "name": "delegate",
          "type": "address"
        },
        {
          "indexed": false,
          "internalType": "uint256",
          "name": "previousBalance",
          "type": "uint256"
        },
        {
          "indexed": false,
          "internalType": "uint256",
          "name": "newBalance",
          "type": "uint256"
        }
      ],
      "name": "DelegateVotesChanged",
      "type": "event"
    },
    {
      "anonymous": false,
      "inputs": [
        {
          "indexed": true,
          "internalType": "address",
          "name": "_bot",
          "type": "address"
        },
        {
          "indexed": true,
          "internalType": "address",
          "name": "_exchange",
          "type": "address"
        },
        {
          "indexed": false,
          "internalType": "address",
          "name": "_holder",
          "type": "address"
        },
        {
          "indexed": false,
          "internalType": "uint256",
          "name": "_id",
          "type": "uint256"
        },
        {
          "indexed": false,
          "internalType": "uint256",
          "name": "_payoff",
          "type": "uint256"
        }
      ],
      "name": "Expire",
      "type": "event"
    },
    {
      "anonymous": false,
      "inputs": [
        {
          "indexed": true,
          "internalType": "address",
          "name": "_hedger",
          "type": "address"
        },
        {
          "indexed": true,
          "internalType": "address",
          "name": "_market",
          "type": "address"
        },
        {
          "indexed": false,
          "internalType": "bool",
          "name": "success",
          "type": "bool"
        },
        {
          "indexed": false,
          "internalType": "bytes",
          "name": "data",
          "type": "bytes"
        }
      ],
      "name": "HedgeResponse",
      "type": "event"
    },
    {
      "anonymous": false,
      "inputs": [
        {
          "indexed": true,
          "internalType": "address",
          "name": "_hedger",
          "type": "address"
        },
        {
          "indexed": true,
          "internalType": "address",
          "name": "_market",
          "type": "address"
        },
        {
          "indexed": false,
          "internalType": "uint256[]",
          "name": "amounts",
          "type": "uint256[]"
        }
      ],
      "name": "HedgeSwapResponse",
      "type": "event"
    },
    {
      "anonymous": false,
      "inputs": [
        {
          "indexed": true,
          "internalType": "address",
          "name": "previousOwner",
          "type": "address"
        },
        {
          "indexed": true,
          "internalType": "address",
          "name": "newOwner",
          "type": "address"
        }
      ],
      "name": "OwnershipTransferred",
      "type": "event"
    },
    {
      "anonymous": false,
      "inputs": [
        {
          "indexed": false,
          "internalType": "address",
          "name": "_newBot",
          "type": "address"
        }
      ],
      "name": "ResetBotAddress",
      "type": "event"
    },
    {
      "anonymous": false,
      "inputs": [
        {
          "indexed": true,
          "internalType": "uint256",
          "name": "_parameterId",
          "type": "uint256"
        },
        {
          "indexed": false,
          "internalType": "uint256",
          "name": "_parameter",
          "type": "uint256"
        }
      ],
      "name": "ResetParameter",
      "type": "event"
    },
    {
      "anonymous": false,
      "inputs": [
        {
          "indexed": true,
          "internalType": "address",
          "name": "_exchange",
          "type": "address"
        },
        {
          "indexed": false,
          "internalType": "bool",
          "name": "_tradingAllowed",
          "type": "bool"
        }
      ],
      "name": "ResetTradingStatus",
      "type": "event"
    },
    {
      "anonymous": false,
      "inputs": [
        {
          "indexed": true,
          "internalType": "address",
          "name": "_purchaser",
          "type": "address"
        },
        {
          "indexed": true,
          "internalType": "address",
          "name": "_exchange",
          "type": "address"
        },
        {
          "indexed": false,
          "internalType": "uint256",
          "name": "_cost",
          "type": "uint256"
        },
        {
          "indexed": false,
          "internalType": "uint256",
          "name": "_volAmount",
          "type": "uint256"
        },
        {
          "indexed": false,
          "internalType": "bool",
          "name": "_isPurchase",
          "type": "bool"
        }
      ],
      "name": "TradeVolatility",
      "type": "event"
    },
    {
      "anonymous": false,
      "inputs": [
        {
          "indexed": true,
          "internalType": "address",
          "name": "from",
          "type": "address"
        },
        {
          "indexed": true,
          "internalType": "address",
          "name": "to",
          "type": "address"
        },
        {
          "indexed": false,
          "internalType": "uint256",
          "name": "value",
          "type": "uint256"
        }
      ],
      "name": "Transfer",
      "type": "event"
    },
    {
      "inputs": [],
      "name": "DOMAIN_SEPARATOR",
      "outputs": [
        {
          "internalType": "bytes32",
          "name": "",
          "type": "bytes32"
        }
      ],
      "stateMutability": "view",
      "type": "function"
    },
    {
      "inputs": [
        {
          "internalType": "address",
          "name": "owner",
          "type": "address"
        },
        {
          "internalType": "address",
          "name": "spender",
          "type": "address"
        }
      ],
      "name": "allowance",
      "outputs": [
        {
          "internalType": "uint256",
          "name": "",
          "type": "uint256"
        }
      ],
      "stateMutability": "view",
      "type": "function"
    },
    {
      "inputs": [
        {
          "internalType": "address",
          "name": "spender",
          "type": "address"
        },
        {
          "internalType": "uint256",
          "name": "amount",
          "type": "uint256"
        }
      ],
      "name": "approve",
      "outputs": [
        {
          "internalType": "bool",
          "name": "",
          "type": "bool"
        }
      ],
      "stateMutability": "nonpayable",
      "type": "function"
    },
    {
      "inputs": [
        {
          "internalType": "address",
          "name": "account",
          "type": "address"
        }
      ],
      "name": "balanceOf",
      "outputs": [
        {
          "internalType": "uint256",
          "name": "",
          "type": "uint256"
        }
      ],
      "stateMutability": "view",
      "type": "function"
    },
    {
      "inputs": [
        {
          "internalType": "address",
          "name": "account",
          "type": "address"
        },
        {
          "internalType": "uint32",
          "name": "pos",
          "type": "uint32"
        }
      ],
      "name": "checkpoints",
      "outputs": [
        {
          "components": [
            {
              "internalType": "uint32",
              "name": "fromBlock",
              "type": "uint32"
            },
            {
              "internalType": "uint224",
              "name": "votes",
              "type": "uint224"
            }
          ],
          "internalType": "struct ERC20Votes.Checkpoint",
          "name": "",
          "type": "tuple"
        }
      ],
      "stateMutability": "view",
      "type": "function"
    },
    {
      "inputs": [],
      "name": "decimals",
      "outputs": [
        {
          "internalType": "uint8",
          "name": "",
          "type": "uint8"
        }
      ],
      "stateMutability": "view",
      "type": "function"
    },
    {
      "inputs": [
        {
          "internalType": "address",
          "name": "spender",
          "type": "address"
        },
        {
          "internalType": "uint256",
          "name": "subtractedValue",
          "type": "uint256"
        }
      ],
      "name": "decreaseAllowance",
      "outputs": [
        {
          "internalType": "bool",
          "name": "",
          "type": "bool"
        }
      ],
      "stateMutability": "nonpayable",
      "type": "function"
    },
    {
      "inputs": [
        {
          "internalType": "address",
          "name": "delegatee",
          "type": "address"
        }
      ],
      "name": "delegate",
      "outputs": [],
      "stateMutability": "nonpayable",
      "type": "function"
    },
    {
      "inputs": [
        {
          "internalType": "address",
          "name": "delegatee",
          "type": "address"
        },
        {
          "internalType": "uint256",
          "name": "nonce",
          "type": "uint256"
        },
        {
          "internalType": "uint256",
          "name": "expiry",
          "type": "uint256"
        },
        {
          "internalType": "uint8",
          "name": "v",
          "type": "uint8"
        },
        {
          "internalType": "bytes32",
          "name": "r",
          "type": "bytes32"
        },
        {
          "internalType": "bytes32",
          "name": "s",
          "type": "bytes32"
        }
      ],
      "name": "delegateBySig",
      "outputs": [],
      "stateMutability": "nonpayable",
      "type": "function"
    },
    {
      "inputs": [
        {
          "internalType": "address",
          "name": "account",
          "type": "address"
        }
      ],
      "name": "delegates",
      "outputs": [
        {
          "internalType": "address",
          "name": "",
          "type": "address"
        }
      ],
      "stateMutability": "view",
      "type": "function"
    },
    {
      "inputs": [],
      "name": "exchange",
      "outputs": [
        {
          "internalType": "address",
          "name": "",
          "type": "address"
        }
      ],
      "stateMutability": "view",
      "type": "function"
    },
    {
      "inputs": [],
      "name": "exerciseFee",
      "outputs": [
        {
          "internalType": "uint256",
          "name": "",
          "type": "uint256"
        }
      ],
      "stateMutability": "view",
      "type": "function"
    },
    {
      "inputs": [
        {
          "internalType": "uint256",
          "name": "blockNumber",
          "type": "uint256"
        }
      ],
      "name": "getPastTotalSupply",
      "outputs": [
        {
          "internalType": "uint256",
          "name": "",
          "type": "uint256"
        }
      ],
      "stateMutability": "view",
      "type": "function"
    },
    {
      "inputs": [
        {
          "internalType": "address",
          "name": "account",
          "type": "address"
        },
        {
          "internalType": "uint256",
          "name": "blockNumber",
          "type": "uint256"
        }
      ],
      "name": "getPastVotes",
      "outputs": [
        {
          "internalType": "uint256",
          "name": "",
          "type": "uint256"
        }
      ],
      "stateMutability": "view",
      "type": "function"
    },
    {
      "inputs": [
        {
          "internalType": "address",
          "name": "account",
          "type": "address"
        }
      ],
      "name": "getVotes",
      "outputs": [
        {
          "internalType": "uint256",
          "name": "",
          "type": "uint256"
        }
      ],
      "stateMutability": "view",
      "type": "function"
    },
    {
      "inputs": [
        {
          "internalType": "address",
          "name": "spender",
          "type": "address"
        },
        {
          "internalType": "uint256",
          "name": "addedValue",
          "type": "uint256"
        }
      ],
      "name": "increaseAllowance",
      "outputs": [
        {
          "internalType": "bool",
          "name": "",
          "type": "bool"
        }
      ],
      "stateMutability": "nonpayable",
      "type": "function"
    },
    {
      "inputs": [],
      "name": "marketMaker",
      "outputs": [
        {
          "internalType": "contract MarketMaker",
          "name": "",
          "type": "address"
        }
      ],
      "stateMutability": "view",
      "type": "function"
    },
    {
      "inputs": [],
      "name": "minVolPrice",
      "outputs": [
        {
          "internalType": "uint256",
          "name": "",
          "type": "uint256"
        }
      ],
      "stateMutability": "view",
      "type": "function"
    },
    {
      "inputs": [],
      "name": "name",
      "outputs": [
        {
          "internalType": "string",
          "name": "",
          "type": "string"
        }
      ],
      "stateMutability": "view",
      "type": "function"
    },
    {
      "inputs": [
        {
          "internalType": "address",
          "name": "owner",
          "type": "address"
        }
      ],
      "name": "nonces",
      "outputs": [
        {
          "internalType": "uint256",
          "name": "",
          "type": "uint256"
        }
      ],
      "stateMutability": "view",
      "type": "function"
    },
    {
      "inputs": [
        {
          "internalType": "address",
          "name": "account",
          "type": "address"
        }
      ],
      "name": "numCheckpoints",
      "outputs": [
        {
          "internalType": "uint32",
          "name": "",
          "type": "uint32"
        }
      ],
      "stateMutability": "view",
      "type": "function"
    },
    {
      "inputs": [],
      "name": "owner",
      "outputs": [
        {
          "internalType": "address",
          "name": "",
          "type": "address"
        }
      ],
      "stateMutability": "view",
      "type": "function"
    },
    {
      "inputs": [
        {
          "internalType": "address",
          "name": "owner",
          "type": "address"
        },
        {
          "internalType": "address",
          "name": "spender",
          "type": "address"
        },
        {
          "internalType": "uint256",
          "name": "value",
          "type": "uint256"
        },
        {
          "internalType": "uint256",
          "name": "deadline",
          "type": "uint256"
        },
        {
          "internalType": "uint8",
          "name": "v",
          "type": "uint8"
        },
        {
          "internalType": "bytes32",
          "name": "r",
          "type": "bytes32"
        },
        {
          "internalType": "bytes32",
          "name": "s",
          "type": "bytes32"
        }
      ],
      "name": "permit",
      "outputs": [],
      "stateMutability": "nonpayable",
      "type": "function"
    },
    {
      "inputs": [],
      "name": "renounceOwnership",
      "outputs": [],
      "stateMutability": "nonpayable",
      "type": "function"
    },
    {
      "inputs": [],
      "name": "symbol",
      "outputs": [
        {
          "internalType": "string",
          "name": "",
          "type": "string"
        }
      ],
      "stateMutability": "view",
      "type": "function"
    },
    {
      "inputs": [],
      "name": "totalSupply",
      "outputs": [
        {
          "internalType": "uint256",
          "name": "",
          "type": "uint256"
        }
      ],
      "stateMutability": "view",
      "type": "function"
    },
    {
      "inputs": [
        {
          "internalType": "address",
          "name": "to",
          "type": "address"
        },
        {
          "internalType": "uint256",
          "name": "amount",
          "type": "uint256"
        }
      ],
      "name": "transfer",
      "outputs": [
        {
          "internalType": "bool",
          "name": "",
          "type": "bool"
        }
      ],
      "stateMutability": "nonpayable",
      "type": "function"
    },
    {
      "inputs": [
        {
          "internalType": "address",
          "name": "from",
          "type": "address"
        },
        {
          "internalType": "address",
          "name": "to",
          "type": "address"
        },
        {
          "internalType": "uint256",
          "name": "amount",
          "type": "uint256"
        }
      ],
      "name": "transferFrom",
      "outputs": [
        {
          "internalType": "bool",
          "name": "",
          "type": "bool"
        }
      ],
      "stateMutability": "nonpayable",
      "type": "function"
    },
    {
      "inputs": [
        {
          "internalType": "address",
          "name": "newOwner",
          "type": "address"
        }
      ],
      "name": "transferOwnership",
      "outputs": [],
      "stateMutability": "nonpayable",
      "type": "function"
    },
    {
      "inputs": [],
      "name": "volCapacityFactor",
      "outputs": [
        {
          "internalType": "uint256",
          "name": "",
          "type": "uint256"
        }
      ],
      "stateMutability": "view",
      "type": "function"
    },
    {
      "inputs": [
        {
          "internalType": "uint256",
          "name": "_parameterId",
          "type": "uint256"
        },
        {
          "internalType": "uint256",
          "name": "_newParameter",
          "type": "uint256"
        }
      ],
      "name": "setPoolParameters",
      "outputs": [],
      "stateMutability": "nonpayable",
      "type": "function"
    },
    {
      "inputs": [
        {
          "internalType": "address",
          "name": "to",
          "type": "address"
        },
        {
          "internalType": "uint256",
          "name": "amount",
          "type": "uint256"
        }
      ],
      "name": "mint",
      "outputs": [],
      "stateMutability": "nonpayable",
      "type": "function"
    },
    {
      "inputs": [
        {
          "internalType": "address",
          "name": "account",
          "type": "address"
        },
        {
          "internalType": "uint256",
          "name": "amount",
          "type": "uint256"
        }
      ],
      "name": "burn",
      "outputs": [],
      "stateMutability": "nonpayable",
      "type": "function"
    }
  ],
  "bytecode": "0x6101806040526608e1bc9bf04000600b556706f05b59d3b20000600c556706f05b59d3b20000600d553480156200003557600080fd5b50604051620050d9380380620050d983398181016040528101906200005b9190620006cf565b82806040518060400160405280600181526020017f310000000000000000000000000000000000000000000000000000000000000081525085858160039081620000a69190620009b4565b508060049081620000b89190620009b4565b50505060008280519060200120905060008280519060200120905060007f8b73c3c69bb8fe3d512ecc4cf759cc79239f7b179b0ffacaa9a75d522b39400f90508260e081815250508161010081815250504660a0818152505062000124818484620003cd60201b60201c565b608081815250503073ffffffffffffffffffffffffffffffffffffffff1660c08173ffffffffffffffffffffffffffffffffffffffff16815250508061012081815250505050505050506200018e620001826200040960201b60201c565b6200041160201b60201c565b600073ffffffffffffffffffffffffffffffffffffffff168173ffffffffffffffffffffffffffffffffffffffff160362000200576040517f08c379a0000000000000000000000000000000000000000000000000000000008152600401620001f79062000afc565b60405180910390fd5b8073ffffffffffffffffffffffffffffffffffffffff166101608173ffffffffffffffffffffffffffffffffffffffff1681525050600073ffffffffffffffffffffffffffffffffffffffff166101605173ffffffffffffffffffffffffffffffffffffffff1663c0a16f6a6040518163ffffffff1660e01b8152600401602060405180830381865afa1580156200029c573d6000803e3d6000fd5b505050506040513d601f19601f82011682018060405250810190620002c2919062000b63565b73ffffffffffffffffffffffffffffffffffffffff16036200031b576040517f08c379a0000000000000000000000000000000000000000000000000000000008152600401620003129062000be5565b60405180910390fd5b6101605173ffffffffffffffffffffffffffffffffffffffff1663d2f7265a6040518163ffffffff1660e01b8152600401602060405180830381865afa1580156200036a573d6000803e3d6000fd5b505050506040513d601f19601f8201168201806040525081019062000390919062000c07565b73ffffffffffffffffffffffffffffffffffffffff166101408173ffffffffffffffffffffffffffffffffffffffff168152505050505062000cd3565b60008383834630604051602001620003ea95949392919062000c76565b6040516020818303038152906040528051906020012090509392505050565b600033905090565b6000600a60009054906101000a900473ffffffffffffffffffffffffffffffffffffffff16905081600a60006101000a81548173ffffffffffffffffffffffffffffffffffffffff021916908373ffffffffffffffffffffffffffffffffffffffff1602179055508173ffffffffffffffffffffffffffffffffffffffff168173ffffffffffffffffffffffffffffffffffffffff167f8be0079c531659141344cd1fd0a4f28419497f9722a3daafe3b4186f6b6457e060405160405180910390a35050565b6000604051905090565b600080fd5b600080fd5b600080fd5b600080fd5b6000601f19601f8301169050919050565b7f4e487b7100000000000000000000000000000000000000000000000000000000600052604160045260246000fd5b6200054082620004f5565b810181811067ffffffffffffffff8211171562000562576200056162000506565b5b80604052505050565b600062000577620004d7565b905062000585828262000535565b919050565b600067ffffffffffffffff821115620005a857620005a762000506565b5b620005b382620004f5565b9050602081019050919050565b60005b83811015620005e0578082015181840152602081019050620005c3565b60008484015250505050565b600062000603620005fd846200058a565b6200056b565b905082815260208101848484011115620006225762000621620004f0565b5b6200062f848285620005c0565b509392505050565b600082601f8301126200064f576200064e620004eb565b5b815162000661848260208601620005ec565b91505092915050565b600073ffffffffffffffffffffffffffffffffffffffff82169050919050565b600062000697826200066a565b9050919050565b620006a9816200068a565b8114620006b557600080fd5b50565b600081519050620006c9816200069e565b92915050565b600080600060608486031215620006eb57620006ea620004e1565b5b600084015167ffffffffffffffff8111156200070c576200070b620004e6565b5b6200071a8682870162000637565b935050602084015167ffffffffffffffff8111156200073e576200073d620004e6565b5b6200074c8682870162000637565b92505060406200075f86828701620006b8565b9150509250925092565b600081519050919050565b7f4e487b7100000000000000000000000000000000000000000000000000000000600052602260045260246000fd5b60006002820490506001821680620007bc57607f821691505b602082108103620007d257620007d162000774565b5b50919050565b60008190508160005260206000209050919050565b60006020601f8301049050919050565b600082821b905092915050565b6000600883026200083c7fffffffffffffffffffffffffffffffffffffffffffffffffffffffffffffffff82620007fd565b620008488683620007fd565b95508019841693508086168417925050509392505050565b6000819050919050565b6000819050919050565b6000620008956200088f620008898462000860565b6200086a565b62000860565b9050919050565b6000819050919050565b620008b18362000874565b620008c9620008c0826200089c565b8484546200080a565b825550505050565b600090565b620008e0620008d1565b620008ed818484620008a6565b505050565b5b81811015620009155762000909600082620008d6565b600181019050620008f3565b5050565b601f82111562000964576200092e81620007d8565b6200093984620007ed565b8101602085101562000949578190505b620009616200095885620007ed565b830182620008f2565b50505b505050565b600082821c905092915050565b6000620009896000198460080262000969565b1980831691505092915050565b6000620009a4838362000976565b9150826002028217905092915050565b620009bf8262000769565b67ffffffffffffffff811115620009db57620009da62000506565b5b620009e78254620007a3565b620009f482828562000919565b600060209050601f83116001811462000a2c576000841562000a17578287015190505b62000a23858262000996565b86555062000a93565b601f19841662000a3c86620007d8565b60005b8281101562000a665784890151825560018201915060208501945060208101905062000a3f565b8683101562000a86578489015162000a82601f89168262000976565b8355505b6001600288020188555050505b505050505050565b600082825260208201905092915050565b7f3061646472000000000000000000000000000000000000000000000000000000600082015250565b600062000ae460058362000a9b565b915062000af18262000aac565b602082019050919050565b6000602082019050818103600083015262000b178162000ad5565b9050919050565b600062000b2b826200068a565b9050919050565b62000b3d8162000b1e565b811462000b4957600080fd5b50565b60008151905062000b5d8162000b32565b92915050565b60006020828403121562000b7c5762000b7b620004e1565b5b600062000b8c8482850162000b4c565b91505092915050565b7f30766f6c636861696e0000000000000000000000000000000000000000000000600082015250565b600062000bcd60098362000a9b565b915062000bda8262000b95565b602082019050919050565b6000602082019050818103600083015262000c008162000bbe565b9050919050565b60006020828403121562000c205762000c1f620004e1565b5b600062000c3084828501620006b8565b91505092915050565b6000819050919050565b62000c4e8162000c39565b82525050565b62000c5f8162000860565b82525050565b62000c70816200068a565b82525050565b600060a08201905062000c8d600083018862000c43565b62000c9c602083018762000c43565b62000cab604083018662000c43565b62000cba606083018562000c54565b62000cc9608083018462000c65565b9695505050505050565b60805160a05160c05160e0516101005161012051610140516101605161439262000d47600039600061077f0152600081816108bb01528181610d6b0152610fab01526000611a1901526000611a5b01526000611a3a0152600061196f015260006119c5015260006119ee01526143926000f3fe608060405234801561001057600080fd5b50600436106101fb5760003560e01c8063715018a61161011a578063a9059cbb116100ad578063d505accf1161007c578063d505accf14610604578063dd62ed3e14610620578063df95c3a714610650578063f1127ed81461066c578063f2fde38b1461069c576101fb565b8063a9059cbb1461057c578063c3cda520146105ac578063d1c699aa146105c8578063d2f7265a146105e6576101fb565b806395d89b41116100e957806395d89b41146104e25780639ab24eb0146105005780639dc29fac14610530578063a457c2d71461054c576101fb565b8063715018a61461045a5780637ecebe00146104645780638da5cb5b146104945780638e539e8c146104b2576101fb565b8063372688b011610192578063587cde1e11610161578063587cde1e146103ae5780635c19a95c146103de5780636fcfff45146103fa57806370a082311461042a576101fb565b8063372688b01461031457806339509351146103325780633a46b1a81461036257806340c10f1914610392576101fb565b80631f21f9af116101ce5780631f21f9af1461028a57806323b872dd146102a8578063313ce567146102d85780633644e515146102f6576101fb565b806306fdde0314610200578063095ea7b31461021e5780630f9026181461024e57806318160ddd1461026c575b600080fd5b6102086106b8565b6040516102159190612c31565b60405180910390f35b61023860048036038101906102339190612cec565b61074a565b6040516102459190612d47565b60405180910390f35b61025661076d565b6040516102639190612d71565b60405180910390f35b610274610773565b6040516102819190612d71565b60405180910390f35b61029261077d565b60405161029f9190612deb565b60405180910390f35b6102c260048036038101906102bd9190612e06565b6107a1565b6040516102cf9190612d47565b60405180910390f35b6102e06107d0565b6040516102ed9190612e75565b60405180910390f35b6102fe6107d9565b60405161030b9190612ea9565b60405180910390f35b61031c6107e8565b6040516103299190612d71565b60405180910390f35b61034c60048036038101906103479190612cec565b6107ee565b6040516103599190612d47565b60405180910390f35b61037c60048036038101906103779190612cec565b610825565b6040516103899190612d71565b60405180910390f35b6103ac60048036038101906103a79190612cec565b6108b9565b005b6103c860048036038101906103c39190612ec4565b610955565b6040516103d59190612f00565b60405180910390f35b6103f860048036038101906103f39190612ec4565b6109be565b005b610414600480360381019061040f9190612ec4565b6109d2565b6040516104219190612f3a565b60405180910390f35b610444600480360381019061043f9190612ec4565b610a26565b6040516104519190612d71565b60405180910390f35b610462610a6e565b005b61047e60048036038101906104799190612ec4565b610af6565b60405161048b9190612d71565b60405180910390f35b61049c610b46565b6040516104a99190612f00565b60405180910390f35b6104cc60048036038101906104c79190612f55565b610b70565b6040516104d99190612d71565b60405180910390f35b6104ea610bc6565b6040516104f79190612c31565b60405180910390f35b61051a60048036038101906105159190612ec4565b610c58565b6040516105279190612d71565b60405180910390f35b61054a60048036038101906105459190612cec565b610d69565b005b61056660048036038101906105619190612cec565b610e05565b6040516105739190612d47565b60405180910390f35b61059660048036038101906105919190612cec565b610e7c565b6040516105a39190612d47565b60405180910390f35b6105c660048036038101906105c19190612fda565b610e9f565b005b6105d0610fa3565b6040516105dd9190612d71565b60405180910390f35b6105ee610fa9565b6040516105fb9190612f00565b60405180910390f35b61061e60048036038101906106199190613067565b610fcd565b005b61063a60048036038101906106359190613109565b61110f565b6040516106479190612d71565b60405180910390f35b61066a60048036038101906106659190613149565b611196565b005b610686600480360381019061068191906131b5565b611288565b604051610693919061326a565b60405180910390f35b6106b660048036038101906106b19190612ec4565b611398565b005b6060600380546106c7906132b4565b80601f01602080910402602001604051908101604052809291908181526020018280546106f3906132b4565b80156107405780601f1061071557610100808354040283529160200191610740565b820191906000526020600020905b81548152906001019060200180831161072357829003601f168201915b5050505050905090565b60008061075561148f565b9050610762818585611497565b600191505092915050565b600c5481565b6000600254905090565b7f000000000000000000000000000000000000000000000000000000000000000081565b6000806107ac61148f565b90506107b9858285611660565b6107c48585856116ec565b60019150509392505050565b60006012905090565b60006107e361196b565b905090565b600d5481565b6000806107f961148f565b905061081a81858561080b858961110f565b6108159190613314565b611497565b600191505092915050565b6000438210610869576040517f08c379a000000000000000000000000000000000000000000000000000000000815260040161086090613394565b60405180910390fd5b6108b1600860008573ffffffffffffffffffffffffffffffffffffffff1673ffffffffffffffffffffffffffffffffffffffff16815260200190815260200160002083611a85565b905092915050565b7f000000000000000000000000000000000000000000000000000000000000000073ffffffffffffffffffffffffffffffffffffffff163373ffffffffffffffffffffffffffffffffffffffff1614610947576040517f08c379a000000000000000000000000000000000000000000000000000000000815260040161093e90613400565b60405180910390fd5b6109518282611b91565b5050565b6000600760008373ffffffffffffffffffffffffffffffffffffffff1673ffffffffffffffffffffffffffffffffffffffff16815260200190815260200160002060009054906101000a900473ffffffffffffffffffffffffffffffffffffffff169050919050565b6109cf6109c961148f565b82611b9f565b50565b6000610a1f600860008473ffffffffffffffffffffffffffffffffffffffff1673ffffffffffffffffffffffffffffffffffffffff16815260200190815260200160002080549050611cb9565b9050919050565b60008060008373ffffffffffffffffffffffffffffffffffffffff1673ffffffffffffffffffffffffffffffffffffffff168152602001908152602001600020549050919050565b610a7661148f565b73ffffffffffffffffffffffffffffffffffffffff16610a94610b46565b73ffffffffffffffffffffffffffffffffffffffff1614610aea576040517f08c379a0000000000000000000000000000000000000000000000000000000008152600401610ae19061346c565b60405180910390fd5b610af46000611d0c565b565b6000610b3f600560008473ffffffffffffffffffffffffffffffffffffffff1673ffffffffffffffffffffffffffffffffffffffff168152602001908152602001600020611dd2565b9050919050565b6000600a60009054906101000a900473ffffffffffffffffffffffffffffffffffffffff16905090565b6000438210610bb4576040517f08c379a0000000000000000000000000000000000000000000000000000000008152600401610bab90613394565b60405180910390fd5b610bbf600983611a85565b9050919050565b606060048054610bd5906132b4565b80601f0160208091040260200160405190810160405280929190818152602001828054610c01906132b4565b8015610c4e5780601f10610c2357610100808354040283529160200191610c4e565b820191906000526020600020905b815481529060010190602001808311610c3157829003601f168201915b5050505050905090565b600080600860008473ffffffffffffffffffffffffffffffffffffffff1673ffffffffffffffffffffffffffffffffffffffff16815260200190815260200160002080549050905060008114610d4057600860008473ffffffffffffffffffffffffffffffffffffffff1673ffffffffffffffffffffffffffffffffffffffff168152602001908152602001600020600182610cf4919061348c565b81548110610d0557610d046134c0565b5b9060005260206000200160000160049054906101000a90047bffffffffffffffffffffffffffffffffffffffffffffffffffffffff16610d43565b60005b7bffffffffffffffffffffffffffffffffffffffffffffffffffffffff16915050919050565b7f000000000000000000000000000000000000000000000000000000000000000073ffffffffffffffffffffffffffffffffffffffff163373ffffffffffffffffffffffffffffffffffffffff1614610df7576040517f08c379a0000000000000000000000000000000000000000000000000000000008152600401610dee9061353b565b60405180910390fd5b610e018282611de0565b5050565b600080610e1061148f565b90506000610e1e828661110f565b905083811015610e63576040517f08c379a0000000000000000000000000000000000000000000000000000000008152600401610e5a906135cd565b60405180910390fd5b610e708286868403611497565b60019250505092915050565b600080610e8761148f565b9050610e948185856116ec565b600191505092915050565b83421115610ee2576040517f08c379a0000000000000000000000000000000000000000000000000000000008152600401610ed990613639565b60405180910390fd5b6000610f44610f3c7fe48329057bfd03d55e49b547132e39cffd9c1820ad7b9d4c5307691425d15adf898989604051602001610f219493929190613659565b60405160208183030381529060405280519060200120611dee565b858585611e08565b9050610f4f81611e33565b8614610f90576040517f08c379a0000000000000000000000000000000000000000000000000000000008152600401610f87906136ea565b60405180910390fd5b610f9a8188611b9f565b50505050505050565b600b5481565b7f000000000000000000000000000000000000000000000000000000000000000081565b83421115611010576040517f08c379a000000000000000000000000000000000000000000000000000000000815260040161100790613756565b60405180910390fd5b60007f6e71edae12b1b97f4d1f60370fef10105fa2faae0126114a169c64845d6126c988888861103f8c611e33565b8960405160200161105596959493929190613776565b604051602081830303815290604052805190602001209050600061107882611dee565b9050600061108882878787611e08565b90508973ffffffffffffffffffffffffffffffffffffffff168173ffffffffffffffffffffffffffffffffffffffff16146110f8576040517f08c379a00000000000000000000000000000000000000000000000000000000081526004016110ef90613823565b60405180910390fd5b6111038a8a8a611497565b50505050505050505050565b6000600160008473ffffffffffffffffffffffffffffffffffffffff1673ffffffffffffffffffffffffffffffffffffffff16815260200190815260200160002060008373ffffffffffffffffffffffffffffffffffffffff1673ffffffffffffffffffffffffffffffffffffffff16815260200190815260200160002054905092915050565b61119e61148f565b73ffffffffffffffffffffffffffffffffffffffff166111bc610b46565b73ffffffffffffffffffffffffffffffffffffffff1614611212576040517f08c379a00000000000000000000000000000000000000000000000000000000081526004016112099061346c565b60405180910390fd5b600182036112265780600b8190555061124c565b6002820361123a5780600c8190555061124b565b6003820361124a5780600d819055505b5b5b817f1f77a5f1218c5e380f0425a2e88a823d831b5f8906f5ab4db8b1565a36f780d78260405161127c9190612d71565b60405180910390a25050565b611290612b63565b600860008473ffffffffffffffffffffffffffffffffffffffff1673ffffffffffffffffffffffffffffffffffffffff1681526020019081526020016000208263ffffffff16815481106112e7576112e66134c0565b5b906000526020600020016040518060400160405290816000820160009054906101000a900463ffffffff1663ffffffff1663ffffffff1681526020016000820160049054906101000a90047bffffffffffffffffffffffffffffffffffffffffffffffffffffffff167bffffffffffffffffffffffffffffffffffffffffffffffffffffffff167bffffffffffffffffffffffffffffffffffffffffffffffffffffffff1681525050905092915050565b6113a061148f565b73ffffffffffffffffffffffffffffffffffffffff166113be610b46565b73ffffffffffffffffffffffffffffffffffffffff1614611414576040517f08c379a000000000000000000000000000000000000000000000000000000000815260040161140b9061346c565b60405180910390fd5b600073ffffffffffffffffffffffffffffffffffffffff168173ffffffffffffffffffffffffffffffffffffffff1603611483576040517f08c379a000000000000000000000000000000000000000000000000000000000815260040161147a906138b5565b60405180910390fd5b61148c81611d0c565b50565b600033905090565b600073ffffffffffffffffffffffffffffffffffffffff168373ffffffffffffffffffffffffffffffffffffffff1603611506576040517f08c379a00000000000000000000000000000000000000000000000000000000081526004016114fd90613947565b60405180910390fd5b600073ffffffffffffffffffffffffffffffffffffffff168273ffffffffffffffffffffffffffffffffffffffff1603611575576040517f08c379a000000000000000000000000000000000000000000000000000000000815260040161156c906139d9565b60405180910390fd5b80600160008573ffffffffffffffffffffffffffffffffffffffff1673ffffffffffffffffffffffffffffffffffffffff16815260200190815260200160002060008473ffffffffffffffffffffffffffffffffffffffff1673ffffffffffffffffffffffffffffffffffffffff168152602001908152602001600020819055508173ffffffffffffffffffffffffffffffffffffffff168373ffffffffffffffffffffffffffffffffffffffff167f8c5be1e5ebec7d5bd14f71427d1e84f3dd0314c0f7b2291e5b200ac8c7c3b925836040516116539190612d71565b60405180910390a3505050565b600061166c848461110f565b90507fffffffffffffffffffffffffffffffffffffffffffffffffffffffffffffffff81146116e657818110156116d8576040517f08c379a00000000000000000000000000000000000000000000000000000000081526004016116cf90613a45565b60405180910390fd5b6116e58484848403611497565b5b50505050565b600073ffffffffffffffffffffffffffffffffffffffff168373ffffffffffffffffffffffffffffffffffffffff160361175b576040517f08c379a000000000000000000000000000000000000000000000000000000000815260040161175290613ad7565b60405180910390fd5b600073ffffffffffffffffffffffffffffffffffffffff168273ffffffffffffffffffffffffffffffffffffffff16036117ca576040517f08c379a00000000000000000000000000000000000000000000000000000000081526004016117c190613b69565b60405180910390fd5b6117d5838383611e91565b60008060008573ffffffffffffffffffffffffffffffffffffffff1673ffffffffffffffffffffffffffffffffffffffff1681526020019081526020016000205490508181101561185b576040517f08c379a000000000000000000000000000000000000000000000000000000000815260040161185290613bfb565b60405180910390fd5b8181036000808673ffffffffffffffffffffffffffffffffffffffff1673ffffffffffffffffffffffffffffffffffffffff16815260200190815260200160002081905550816000808573ffffffffffffffffffffffffffffffffffffffff1673ffffffffffffffffffffffffffffffffffffffff16815260200190815260200160002060008282546118ee9190613314565b925050819055508273ffffffffffffffffffffffffffffffffffffffff168473ffffffffffffffffffffffffffffffffffffffff167fddf252ad1be2c89b69c2b068fc378daa952ba7f163c4a11628f55a4df523b3ef846040516119529190612d71565b60405180910390a3611965848484611e96565b50505050565b60007f000000000000000000000000000000000000000000000000000000000000000073ffffffffffffffffffffffffffffffffffffffff163073ffffffffffffffffffffffffffffffffffffffff161480156119e757507f000000000000000000000000000000000000000000000000000000000000000046145b15611a14577f00000000000000000000000000000000000000000000000000000000000000009050611a82565b611a7f7f00000000000000000000000000000000000000000000000000000000000000007f00000000000000000000000000000000000000000000000000000000000000007f0000000000000000000000000000000000000000000000000000000000000000611ea6565b90505b90565b6000808380549050905060005b81811015611b04576000611aa68284611ee0565b905084868281548110611abc57611abb6134c0565b5b9060005260206000200160000160009054906101000a900463ffffffff1663ffffffff161115611aee57809250611afe565b600181611afb9190613314565b91505b50611a92565b60008214611b665784600183611b1a919061348c565b81548110611b2b57611b2a6134c0565b5b9060005260206000200160000160049054906101000a90047bffffffffffffffffffffffffffffffffffffffffffffffffffffffff16611b69565b60005b7bffffffffffffffffffffffffffffffffffffffffffffffffffffffff169250505092915050565b611b9b8282611f06565b5050565b6000611baa83610955565b90506000611bb784610a26565b905082600760008673ffffffffffffffffffffffffffffffffffffffff1673ffffffffffffffffffffffffffffffffffffffff16815260200190815260200160002060006101000a81548173ffffffffffffffffffffffffffffffffffffffff021916908373ffffffffffffffffffffffffffffffffffffffff1602179055508273ffffffffffffffffffffffffffffffffffffffff168273ffffffffffffffffffffffffffffffffffffffff168573ffffffffffffffffffffffffffffffffffffffff167f3134e8a2e6d97e929a7e54011ea5485d7d196dd5f0ba4d4ef95803e8e3fc257f60405160405180910390a4611cb3828483611f93565b50505050565b600063ffffffff8016821115611d04576040517f08c379a0000000000000000000000000000000000000000000000000000000008152600401611cfb90613c8d565b60405180910390fd5b819050919050565b6000600a60009054906101000a900473ffffffffffffffffffffffffffffffffffffffff16905081600a60006101000a81548173ffffffffffffffffffffffffffffffffffffffff021916908373ffffffffffffffffffffffffffffffffffffffff1602179055508173ffffffffffffffffffffffffffffffffffffffff168173ffffffffffffffffffffffffffffffffffffffff167f8be0079c531659141344cd1fd0a4f28419497f9722a3daafe3b4186f6b6457e060405160405180910390a35050565b600081600001549050919050565b611dea828261218c565b5050565b6000611e01611dfb61196b565b836121aa565b9050919050565b6000806000611e19878787876121dd565b91509150611e26816122e9565b8192505050949350505050565b600080600560008473ffffffffffffffffffffffffffffffffffffffff1673ffffffffffffffffffffffffffffffffffffffff1681526020019081526020016000209050611e8081611dd2565b9150611e8b816124b5565b50919050565b505050565b611ea18383836124cb565b505050565b60008383834630604051602001611ec1959493929190613cad565b6040516020818303038152906040528051906020012090509392505050565b60006002828418611ef19190613d2f565b828416611efe9190613314565b905092915050565b611f1082826124f6565b611f18612655565b7bffffffffffffffffffffffffffffffffffffffffffffffffffffffff16611f3e610773565b1115611f7f576040517f08c379a0000000000000000000000000000000000000000000000000000000008152600401611f7690613dd2565b60405180910390fd5b611f8d60096126798361268f565b50505050565b8173ffffffffffffffffffffffffffffffffffffffff168373ffffffffffffffffffffffffffffffffffffffff1614158015611fcf5750600081115b1561218757600073ffffffffffffffffffffffffffffffffffffffff168373ffffffffffffffffffffffffffffffffffffffff16146120ad57600080612056600860008773ffffffffffffffffffffffffffffffffffffffff1673ffffffffffffffffffffffffffffffffffffffff1681526020019081526020016000206129078561268f565b915091508473ffffffffffffffffffffffffffffffffffffffff167fdec2bacdd2f05b59de34da9b523dff8be42e5e38e818c82fdb0bae774387a72483836040516120a2929190613df2565b60405180910390a250505b600073ffffffffffffffffffffffffffffffffffffffff168273ffffffffffffffffffffffffffffffffffffffff16146121865760008061212f600860008673ffffffffffffffffffffffffffffffffffffffff1673ffffffffffffffffffffffffffffffffffffffff1681526020019081526020016000206126798561268f565b915091508373ffffffffffffffffffffffffffffffffffffffff167fdec2bacdd2f05b59de34da9b523dff8be42e5e38e818c82fdb0bae774387a724838360405161217b929190613df2565b60405180910390a250505b5b505050565b612196828261291d565b6121a460096129078361268f565b50505050565b600082826040516020016121bf929190613e93565b60405160208183030381529060405280519060200120905092915050565b6000807f7fffffffffffffffffffffffffffffff5d576e7357a4501ddfe92f46681b20a08360001c11156122185760006003915091506122e0565b601b8560ff16141580156122305750601c8560ff1614155b156122425760006004915091506122e0565b6000600187878787604051600081526020016040526040516122679493929190613eca565b6020604051602081039080840390855afa158015612289573d6000803e3d6000fd5b505050602060405103519050600073ffffffffffffffffffffffffffffffffffffffff168173ffffffffffffffffffffffffffffffffffffffff16036122d7576000600192509250506122e0565b80600092509250505b94509492505050565b600060048111156122fd576122fc613f0f565b5b8160048111156123105761230f613f0f565b5b03156124b2576001600481111561232a57612329613f0f565b5b81600481111561233d5761233c613f0f565b5b0361237d576040517f08c379a000000000000000000000000000000000000000000000000000000000815260040161237490613f8a565b60405180910390fd5b6002600481111561239157612390613f0f565b5b8160048111156123a4576123a3613f0f565b5b036123e4576040517f08c379a00000000000000000000000000000000000000000000000000000000081526004016123db90613ff6565b60405180910390fd5b600360048111156123f8576123f7613f0f565b5b81600481111561240b5761240a613f0f565b5b0361244b576040517f08c379a000000000000000000000000000000000000000000000000000000000815260040161244290614088565b60405180910390fd5b60048081111561245e5761245d613f0f565b5b81600481111561247157612470613f0f565b5b036124b1576040517f08c379a00000000000000000000000000000000000000000000000000000000081526004016124a89061411a565b60405180910390fd5b5b50565b6001816000016000828254019250508190555050565b6124d6838383612af3565b6124f16124e284610955565b6124eb84610955565b83611f93565b505050565b600073ffffffffffffffffffffffffffffffffffffffff168273ffffffffffffffffffffffffffffffffffffffff1603612565576040517f08c379a000000000000000000000000000000000000000000000000000000000815260040161255c90614186565b60405180910390fd5b61257160008383611e91565b80600260008282546125839190613314565b92505081905550806000808473ffffffffffffffffffffffffffffffffffffffff1673ffffffffffffffffffffffffffffffffffffffff16815260200190815260200160002060008282546125d89190613314565b925050819055508173ffffffffffffffffffffffffffffffffffffffff16600073ffffffffffffffffffffffffffffffffffffffff167fddf252ad1be2c89b69c2b068fc378daa952ba7f163c4a11628f55a4df523b3ef8360405161263d9190612d71565b60405180910390a361265160008383611e96565b5050565b60007bffffffffffffffffffffffffffffffffffffffffffffffffffffffff905090565b600081836126879190613314565b905092915050565b600080600085805490509050600081146126fd57856001826126b1919061348c565b815481106126c2576126c16134c0565b5b9060005260206000200160000160049054906101000a90047bffffffffffffffffffffffffffffffffffffffffffffffffffffffff16612700565b60005b7bffffffffffffffffffffffffffffffffffffffffffffffffffffffff16925061272e83858763ffffffff16565b91506000811180156127815750438660018361274a919061348c565b8154811061275b5761275a6134c0565b5b9060005260206000200160000160009054906101000a900463ffffffff1663ffffffff16145b1561280e5761278f82612af8565b8660018361279d919061348c565b815481106127ae576127ad6134c0565b5b9060005260206000200160000160046101000a8154817bffffffffffffffffffffffffffffffffffffffffffffffffffffffff02191690837bffffffffffffffffffffffffffffffffffffffffffffffffffffffff1602179055506128fe565b85604051806040016040528061282343611cb9565b63ffffffff16815260200161283785612af8565b7bffffffffffffffffffffffffffffffffffffffffffffffffffffffff168152509080600181540180825580915050600190039060005260206000200160009091909190915060008201518160000160006101000a81548163ffffffff021916908363ffffffff16021790555060208201518160000160046101000a8154817bffffffffffffffffffffffffffffffffffffffffffffffffffffffff02191690837bffffffffffffffffffffffffffffffffffffffffffffffffffffffff16021790555050505b50935093915050565b60008183612915919061348c565b905092915050565b600073ffffffffffffffffffffffffffffffffffffffff168273ffffffffffffffffffffffffffffffffffffffff160361298c576040517f08c379a000000000000000000000000000000000000000000000000000000000815260040161298390614218565b60405180910390fd5b61299882600083611e91565b60008060008473ffffffffffffffffffffffffffffffffffffffff1673ffffffffffffffffffffffffffffffffffffffff16815260200190815260200160002054905081811015612a1e576040517f08c379a0000000000000000000000000000000000000000000000000000000008152600401612a15906142aa565b60405180910390fd5b8181036000808573ffffffffffffffffffffffffffffffffffffffff1673ffffffffffffffffffffffffffffffffffffffff168152602001908152602001600020819055508160026000828254612a75919061348c565b92505081905550600073ffffffffffffffffffffffffffffffffffffffff168373ffffffffffffffffffffffffffffffffffffffff167fddf252ad1be2c89b69c2b068fc378daa952ba7f163c4a11628f55a4df523b3ef84604051612ada9190612d71565b60405180910390a3612aee83600084611e96565b505050565b505050565b60007bffffffffffffffffffffffffffffffffffffffffffffffffffffffff8016821115612b5b576040517f08c379a0000000000000000000000000000000000000000000000000000000008152600401612b529061433c565b60405180910390fd5b819050919050565b6040518060400160405280600063ffffffff16815260200160007bffffffffffffffffffffffffffffffffffffffffffffffffffffffff1681525090565b600081519050919050565b600082825260208201905092915050565b60005b83811015612bdb578082015181840152602081019050612bc0565b60008484015250505050565b6000601f19601f8301169050919050565b6000612c0382612ba1565b612c0d8185612bac565b9350612c1d818560208601612bbd565b612c2681612be7565b840191505092915050565b60006020820190508181036000830152612c4b8184612bf8565b905092915050565b600080fd5b600073ffffffffffffffffffffffffffffffffffffffff82169050919050565b6000612c8382612c58565b9050919050565b612c9381612c78565b8114612c9e57600080fd5b50565b600081359050612cb081612c8a565b92915050565b6000819050919050565b612cc981612cb6565b8114612cd457600080fd5b50565b600081359050612ce681612cc0565b92915050565b60008060408385031215612d0357612d02612c53565b5b6000612d1185828601612ca1565b9250506020612d2285828601612cd7565b9150509250929050565b60008115159050919050565b612d4181612d2c565b82525050565b6000602082019050612d5c6000830184612d38565b92915050565b612d6b81612cb6565b82525050565b6000602082019050612d866000830184612d62565b92915050565b6000819050919050565b6000612db1612dac612da784612c58565b612d8c565b612c58565b9050919050565b6000612dc382612d96565b9050919050565b6000612dd582612db8565b9050919050565b612de581612dca565b82525050565b6000602082019050612e006000830184612ddc565b92915050565b600080600060608486031215612e1f57612e1e612c53565b5b6000612e2d86828701612ca1565b9350506020612e3e86828701612ca1565b9250506040612e4f86828701612cd7565b9150509250925092565b600060ff82169050919050565b612e6f81612e59565b82525050565b6000602082019050612e8a6000830184612e66565b92915050565b6000819050919050565b612ea381612e90565b82525050565b6000602082019050612ebe6000830184612e9a565b92915050565b600060208284031215612eda57612ed9612c53565b5b6000612ee884828501612ca1565b91505092915050565b612efa81612c78565b82525050565b6000602082019050612f156000830184612ef1565b92915050565b600063ffffffff82169050919050565b612f3481612f1b565b82525050565b6000602082019050612f4f6000830184612f2b565b92915050565b600060208284031215612f6b57612f6a612c53565b5b6000612f7984828501612cd7565b91505092915050565b612f8b81612e59565b8114612f9657600080fd5b50565b600081359050612fa881612f82565b92915050565b612fb781612e90565b8114612fc257600080fd5b50565b600081359050612fd481612fae565b92915050565b60008060008060008060c08789031215612ff757612ff6612c53565b5b600061300589828a01612ca1565b965050602061301689828a01612cd7565b955050604061302789828a01612cd7565b945050606061303889828a01612f99565b935050608061304989828a01612fc5565b92505060a061305a89828a01612fc5565b9150509295509295509295565b600080600080600080600060e0888a03121561308657613085612c53565b5b60006130948a828b01612ca1565b97505060206130a58a828b01612ca1565b96505060406130b68a828b01612cd7565b95505060606130c78a828b01612cd7565b94505060806130d88a828b01612f99565b93505060a06130e98a828b01612fc5565b92505060c06130fa8a828b01612fc5565b91505092959891949750929550565b600080604083850312156131205761311f612c53565b5b600061312e85828601612ca1565b925050602061313f85828601612ca1565b9150509250929050565b600080604083850312156131605761315f612c53565b5b600061316e85828601612cd7565b925050602061317f85828601612cd7565b9150509250929050565b61319281612f1b565b811461319d57600080fd5b50565b6000813590506131af81613189565b92915050565b600080604083850312156131cc576131cb612c53565b5b60006131da85828601612ca1565b92505060206131eb858286016131a0565b9150509250929050565b6131fe81612f1b565b82525050565b60007bffffffffffffffffffffffffffffffffffffffffffffffffffffffff82169050919050565b61323581613204565b82525050565b60408201600082015161325160008501826131f5565b506020820151613264602085018261322c565b50505050565b600060408201905061327f600083018461323b565b92915050565b7f4e487b7100000000000000000000000000000000000000000000000000000000600052602260045260246000fd5b600060028204905060018216806132cc57607f821691505b6020821081036132df576132de613285565b5b50919050565b7f4e487b7100000000000000000000000000000000000000000000000000000000600052601160045260246000fd5b600061331f82612cb6565b915061332a83612cb6565b9250828201905080821115613342576133416132e5565b5b92915050565b7f4552433230566f7465733a20626c6f636b206e6f7420796574206d696e656400600082015250565b600061337e601f83612bac565b915061338982613348565b602082019050919050565b600060208201905081810360008301526133ad81613371565b9050919050565b7f2d6d457800000000000000000000000000000000000000000000000000000000600082015250565b60006133ea600483612bac565b91506133f5826133b4565b602082019050919050565b60006020820190508181036000830152613419816133dd565b9050919050565b7f4f776e61626c653a2063616c6c6572206973206e6f7420746865206f776e6572600082015250565b6000613456602083612bac565b915061346182613420565b602082019050919050565b6000602082019050818103600083015261348581613449565b9050919050565b600061349782612cb6565b91506134a283612cb6565b92508282039050818111156134ba576134b96132e5565b5b92915050565b7f4e487b7100000000000000000000000000000000000000000000000000000000600052603260045260246000fd5b7f2d62457800000000000000000000000000000000000000000000000000000000600082015250565b6000613525600483612bac565b9150613530826134ef565b602082019050919050565b6000602082019050818103600083015261355481613518565b9050919050565b7f45524332303a2064656372656173656420616c6c6f77616e63652062656c6f7760008201527f207a65726f000000000000000000000000000000000000000000000000000000602082015250565b60006135b7602583612bac565b91506135c28261355b565b604082019050919050565b600060208201905081810360008301526135e6816135aa565b9050919050565b7f4552433230566f7465733a207369676e61747572652065787069726564000000600082015250565b6000613623601d83612bac565b915061362e826135ed565b602082019050919050565b6000602082019050818103600083015261365281613616565b9050919050565b600060808201905061366e6000830187612e9a565b61367b6020830186612ef1565b6136886040830185612d62565b6136956060830184612d62565b95945050505050565b7f4552433230566f7465733a20696e76616c6964206e6f6e636500000000000000600082015250565b60006136d4601983612bac565b91506136df8261369e565b602082019050919050565b60006020820190508181036000830152613703816136c7565b9050919050565b7f45524332305065726d69743a206578706972656420646561646c696e65000000600082015250565b6000613740601d83612bac565b915061374b8261370a565b602082019050919050565b6000602082019050818103600083015261376f81613733565b9050919050565b600060c08201905061378b6000830189612e9a565b6137986020830188612ef1565b6137a56040830187612ef1565b6137b26060830186612d62565b6137bf6080830185612d62565b6137cc60a0830184612d62565b979650505050505050565b7f45524332305065726d69743a20696e76616c6964207369676e61747572650000600082015250565b600061380d601e83612bac565b9150613818826137d7565b602082019050919050565b6000602082019050818103600083015261383c81613800565b9050919050565b7f4f776e61626c653a206e6577206f776e657220697320746865207a65726f206160008201527f6464726573730000000000000000000000000000000000000000000000000000602082015250565b600061389f602683612bac565b91506138aa82613843565b604082019050919050565b600060208201905081810360008301526138ce81613892565b9050919050565b7f45524332303a20617070726f76652066726f6d20746865207a65726f2061646460008201527f7265737300000000000000000000000000000000000000000000000000000000602082015250565b6000613931602483612bac565b915061393c826138d5565b604082019050919050565b6000602082019050818103600083015261396081613924565b9050919050565b7f45524332303a20617070726f766520746f20746865207a65726f20616464726560008201527f7373000000000000000000000000000000000000000000000000000000000000602082015250565b60006139c3602283612bac565b91506139ce82613967565b604082019050919050565b600060208201905081810360008301526139f2816139b6565b9050919050565b7f45524332303a20696e73756666696369656e7420616c6c6f77616e6365000000600082015250565b6000613a2f601d83612bac565b9150613a3a826139f9565b602082019050919050565b60006020820190508181036000830152613a5e81613a22565b9050919050565b7f45524332303a207472616e736665722066726f6d20746865207a65726f20616460008201527f6472657373000000000000000000000000000000000000000000000000000000602082015250565b6000613ac1602583612bac565b9150613acc82613a65565b604082019050919050565b60006020820190508181036000830152613af081613ab4565b9050919050565b7f45524332303a207472616e7366657220746f20746865207a65726f206164647260008201527f6573730000000000000000000000000000000000000000000000000000000000602082015250565b6000613b53602383612bac565b9150613b5e82613af7565b604082019050919050565b60006020820190508181036000830152613b8281613b46565b9050919050565b7f45524332303a207472616e7366657220616d6f756e742065786365656473206260008201527f616c616e63650000000000000000000000000000000000000000000000000000602082015250565b6000613be5602683612bac565b9150613bf082613b89565b604082019050919050565b60006020820190508181036000830152613c1481613bd8565b9050919050565b7f53616665436173743a2076616c756520646f65736e27742066697420696e203360008201527f3220626974730000000000000000000000000000000000000000000000000000602082015250565b6000613c77602683612bac565b9150613c8282613c1b565b604082019050919050565b60006020820190508181036000830152613ca681613c6a565b9050919050565b600060a082019050613cc26000830188612e9a565b613ccf6020830187612e9a565b613cdc6040830186612e9a565b613ce96060830185612d62565b613cf66080830184612ef1565b9695505050505050565b7f4e487b7100000000000000000000000000000000000000000000000000000000600052601260045260246000fd5b6000613d3a82612cb6565b9150613d4583612cb6565b925082613d5557613d54613d00565b5b828204905092915050565b7f4552433230566f7465733a20746f74616c20737570706c79207269736b73206f60008201527f766572666c6f77696e6720766f74657300000000000000000000000000000000602082015250565b6000613dbc603083612bac565b9150613dc782613d60565b604082019050919050565b60006020820190508181036000830152613deb81613daf565b9050919050565b6000604082019050613e076000830185612d62565b613e146020830184612d62565b9392505050565b600081905092915050565b7f1901000000000000000000000000000000000000000000000000000000000000600082015250565b6000613e5c600283613e1b565b9150613e6782613e26565b600282019050919050565b6000819050919050565b613e8d613e8882612e90565b613e72565b82525050565b6000613e9e82613e4f565b9150613eaa8285613e7c565b602082019150613eba8284613e7c565b6020820191508190509392505050565b6000608082019050613edf6000830187612e9a565b613eec6020830186612e66565b613ef96040830185612e9a565b613f066060830184612e9a565b95945050505050565b7f4e487b7100000000000000000000000000000000000000000000000000000000600052602160045260246000fd5b7f45434453413a20696e76616c6964207369676e61747572650000000000000000600082015250565b6000613f74601883612bac565b9150613f7f82613f3e565b602082019050919050565b60006020820190508181036000830152613fa381613f67565b9050919050565b7f45434453413a20696e76616c6964207369676e6174757265206c656e67746800600082015250565b6000613fe0601f83612bac565b9150613feb82613faa565b602082019050919050565b6000602082019050818103600083015261400f81613fd3565b9050919050565b7f45434453413a20696e76616c6964207369676e6174757265202773272076616c60008201527f7565000000000000000000000000000000000000000000000000000000000000602082015250565b6000614072602283612bac565b915061407d82614016565b604082019050919050565b600060208201905081810360008301526140a181614065565b9050919050565b7f45434453413a20696e76616c6964207369676e6174757265202776272076616c60008201527f7565000000000000000000000000000000000000000000000000000000000000602082015250565b6000614104602283612bac565b915061410f826140a8565b604082019050919050565b60006020820190508181036000830152614133816140f7565b9050919050565b7f45524332303a206d696e7420746f20746865207a65726f206164647265737300600082015250565b6000614170601f83612bac565b915061417b8261413a565b602082019050919050565b6000602082019050818103600083015261419f81614163565b9050919050565b7f45524332303a206275726e2066726f6d20746865207a65726f2061646472657360008201527f7300000000000000000000000000000000000000000000000000000000000000602082015250565b6000614202602183612bac565b915061420d826141a6565b604082019050919050565b60006020820190508181036000830152614231816141f5565b9050919050565b7f45524332303a206275726e20616d6f756e7420657863656564732062616c616e60008201527f6365000000000000000000000000000000000000000000000000000000000000602082015250565b6000614294602283612bac565b915061429f82614238565b604082019050919050565b600060208201905081810360008301526142c381614287565b9050919050565b7f53616665436173743a2076616c756520646f65736e27742066697420696e203260008201527f3234206269747300000000000000000000000000000000000000000000000000602082015250565b6000614326602783612bac565b9150614331826142ca565b604082019050919050565b6000602082019050818103600083015261435581614319565b905091905056fea2646970667358221220ed252d832aa2bc94aa30a593e02d62f19d8e672fabe516e3e52e8726faf6078964736f6c63430008110033",
  "immutableReferences": {
    "5871": [
      {
        "length": 32,
        "start": 6638
      }
    ],
    "5873": [
      {
        "length": 32,
        "start": 6597
      }
    ],
    "5875": [
      {
        "length": 32,
        "start": 6511
      }
    ],
    "5877": [
      {
        "length": 32,
        "start": 6714
      }
    ],
    "5879": [
      {
        "length": 32,
        "start": 6747
      }
    ],
    "5881": [
      {
        "length": 32,
        "start": 6681
      }
    ],
    "16246": [
      {
        "length": 32,
        "start": 2235
      },
      {
        "length": 32,
        "start": 3435
      },
      {
        "length": 32,
        "start": 4011
      }
    ],
    "16249": [
      {
        "length": 32,
        "start": 1919
      }
    ]
  },
  "source": "// SPDX-License-Identifier: MIT\npragma solidity ^0.8.4;\n\nimport \"@openzeppelin/contracts/access/Ownable.sol\";\nimport \"@openzeppelin/contracts/token/ERC20/ERC20.sol\";\nimport \"@openzeppelin/contracts/token/ERC20/extensions/draft-ERC20Permit.sol\";\nimport \"@openzeppelin/contracts/token/ERC20/extensions/ERC20Votes.sol\";\nimport \"../interfaces/EOption.sol\";\nimport \"../governance/Moret.sol\";\nimport \"./MarketMaker.sol\";\n\ncontract Pool is ERC20, ERC20Permit, ERC20Votes, Ownable, EOption{\n    address public immutable exchange;\n    MarketMaker public immutable marketMaker; // the fixed market maker contract to make markets by providing capital and running hedging programs.\n    \n    // Governable parameters\n    uint256 public exerciseFee= 0.0025e18;  // Fees paid to exercise bots for exercising expiring option contracts; default: 0.5%\n    uint256 public volCapacityFactor = 0.5e18; // volatility capacity factor which determines the curvature of AMM functions; default: 0.5\n    uint256 public minVolPrice = 0.5e18; // min annualised vol for trading volatility tokens\n    \n    // constructor, used only in PoolFactor contract\n    constructor(string memory _name, string memory _symbol, address _marketMaker) ERC20(_name, _symbol) ERC20Permit(_name){\n        require(_marketMaker != address(0), \"0addr\");\n        marketMaker = MarketMaker(_marketMaker);\n        require(address(marketMaker.getVolatilityChain()) != address(0), \"0volchain\"); // use this function to check if underlying exists.\n        exchange = marketMaker.exchange();}\n\n    // Reset functions for parameters\n    function setPoolParameters(uint256 _parameterId, uint256 _newParameter) external onlyOwner(){ \n        if(_parameterId == 1){\n            exerciseFee = _newParameter;}\n        else if(_parameterId == 2){\n            volCapacityFactor = _newParameter;}\n        else if (_parameterId == 3){\n            minVolPrice = _newParameter;}\n        emit ResetParameter(_parameterId, _newParameter);}\n\n    // generic mintable functions\n    function mint(address to, uint256 amount) external {\n        require(msg.sender == exchange, '-mEx');\n        _mint(to,amount);}\n\n    function burn(address account, uint256 amount) external {\n        require(msg.sender == exchange, '-bEx');\n        _burn(account, amount);}\n\n    // The functions below are overrides required by Solidity.\n\n    function _afterTokenTransfer(address from, address to, uint256 amount)\n        internal\n        override(ERC20, ERC20Votes)\n    {\n        super._afterTokenTransfer(from, to, amount);\n    }\n\n    function _mint(address to, uint256 amount)\n        internal\n        override(ERC20, ERC20Votes)\n    {\n        super._mint(to, amount);\n    }\n\n    function _burn(address account, uint256 amount)\n        internal\n        override(ERC20, ERC20Votes)\n    {\n        super._burn(account, amount);\n    }\n}\n",
  "sourcePath": "/Users/mac/Documents/GitHub/moret/contracts/pools/Pool.sol",
  "compiler": {
    "name": "solc",
    "version": "0.8.17+commit.8df45f5f.Emscripten.clang"
  },
  "schemaVersion": "3.4.3",
  "updatedAt": "2022-09-13T03:43:47.531Z",
  "devdoc": {
    "kind": "dev",
    "methods": {
      "DOMAIN_SEPARATOR()": {
        "details": "See {IERC20Permit-DOMAIN_SEPARATOR}."
      },
      "allowance(address,address)": {
        "details": "See {IERC20-allowance}."
      },
      "approve(address,uint256)": {
        "details": "See {IERC20-approve}. NOTE: If `amount` is the maximum `uint256`, the allowance is not updated on `transferFrom`. This is semantically equivalent to an infinite approval. Requirements: - `spender` cannot be the zero address."
      },
      "balanceOf(address)": {
        "details": "See {IERC20-balanceOf}."
      },
      "checkpoints(address,uint32)": {
        "details": "Get the `pos`-th checkpoint for `account`."
      },
      "decimals()": {
        "details": "Returns the number of decimals used to get its user representation. For example, if `decimals` equals `2`, a balance of `505` tokens should be displayed to a user as `5.05` (`505 / 10 ** 2`). Tokens usually opt for a value of 18, imitating the relationship between Ether and Wei. This is the value {ERC20} uses, unless this function is overridden; NOTE: This information is only used for _display_ purposes: it in no way affects any of the arithmetic of the contract, including {IERC20-balanceOf} and {IERC20-transfer}."
      },
      "decreaseAllowance(address,uint256)": {
        "details": "Atomically decreases the allowance granted to `spender` by the caller. This is an alternative to {approve} that can be used as a mitigation for problems described in {IERC20-approve}. Emits an {Approval} event indicating the updated allowance. Requirements: - `spender` cannot be the zero address. - `spender` must have allowance for the caller of at least `subtractedValue`."
      },
      "delegate(address)": {
        "details": "Delegate votes from the sender to `delegatee`."
      },
      "delegateBySig(address,uint256,uint256,uint8,bytes32,bytes32)": {
        "details": "Delegates votes from signer to `delegatee`"
      },
      "delegates(address)": {
        "details": "Get the address `account` is currently delegating to."
      },
      "getPastTotalSupply(uint256)": {
        "details": "Retrieve the `totalSupply` at the end of `blockNumber`. Note, this value is the sum of all balances. It is but NOT the sum of all the delegated votes! Requirements: - `blockNumber` must have been already mined"
      },
      "getPastVotes(address,uint256)": {
        "details": "Retrieve the number of votes for `account` at the end of `blockNumber`. Requirements: - `blockNumber` must have been already mined"
      },
      "getVotes(address)": {
        "details": "Gets the current votes balance for `account`"
      },
      "increaseAllowance(address,uint256)": {
        "details": "Atomically increases the allowance granted to `spender` by the caller. This is an alternative to {approve} that can be used as a mitigation for problems described in {IERC20-approve}. Emits an {Approval} event indicating the updated allowance. Requirements: - `spender` cannot be the zero address."
      },
      "name()": {
        "details": "Returns the name of the token."
      },
      "nonces(address)": {
        "details": "See {IERC20Permit-nonces}."
      },
      "numCheckpoints(address)": {
        "details": "Get number of checkpoints for `account`."
      },
      "owner()": {
        "details": "Returns the address of the current owner."
      },
      "permit(address,address,uint256,uint256,uint8,bytes32,bytes32)": {
        "details": "See {IERC20Permit-permit}."
      },
      "renounceOwnership()": {
        "details": "Leaves the contract without owner. It will not be possible to call `onlyOwner` functions anymore. Can only be called by the current owner. NOTE: Renouncing ownership will leave the contract without an owner, thereby removing any functionality that is only available to the owner."
      },
      "symbol()": {
        "details": "Returns the symbol of the token, usually a shorter version of the name."
      },
      "totalSupply()": {
        "details": "See {IERC20-totalSupply}."
      },
      "transfer(address,uint256)": {
        "details": "See {IERC20-transfer}. Requirements: - `to` cannot be the zero address. - the caller must have a balance of at least `amount`."
      },
      "transferFrom(address,address,uint256)": {
        "details": "See {IERC20-transferFrom}. Emits an {Approval} event indicating the updated allowance. This is not required by the EIP. See the note at the beginning of {ERC20}. NOTE: Does not update the allowance if the current allowance is the maximum `uint256`. Requirements: - `from` and `to` cannot be the zero address. - `from` must have a balance of at least `amount`. - the caller must have allowance for ``from``'s tokens of at least `amount`."
      },
      "transferOwnership(address)": {
        "details": "Transfers ownership of the contract to a new account (`newOwner`). Can only be called by the current owner."
      }
    },
    "version": 1
  },
  "userdoc": {
    "kind": "user",
    "methods": {},
    "version": 1
  }
}