{
  "contractName": "PoolFactory",
  "abi": [
    {
      "anonymous": false,
      "inputs": [
        {
          "indexed": false,
          "internalType": "address",
          "name": "pool",
          "type": "address"
        }
      ],
      "name": "PoolCreated",
      "type": "event"
    },
    {
      "inputs": [
        {
          "internalType": "bytes32",
          "name": "salt",
          "type": "bytes32"
        },
        {
          "internalType": "string",
          "name": "_name",
          "type": "string"
        },
        {
          "internalType": "string",
          "name": "_symbol",
          "type": "string"
        },
        {
          "internalType": "address",
          "name": "_marketMaker",
          "type": "address"
        }
      ],
      "name": "computeAddress",
      "outputs": [
        {
          "internalType": "address",
          "name": "",
          "type": "address"
        }
      ],
      "stateMutability": "view",
      "type": "function"
    },
    {
      "inputs": [
        {
          "internalType": "bytes32",
          "name": "salt",
          "type": "bytes32"
        },
        {
          "internalType": "string",
          "name": "_name",
          "type": "string"
        },
        {
          "internalType": "string",
          "name": "_symbol",
          "type": "string"
        },
        {
          "internalType": "address",
          "name": "_marketMaker",
          "type": "address"
        },
        {
          "internalType": "address",
          "name": "_broker",
          "type": "address"
        }
      ],
      "name": "deploy",
      "outputs": [],
      "stateMutability": "nonpayable",
      "type": "function"
    },
    {
      "inputs": [
        {
          "internalType": "string",
          "name": "_name",
          "type": "string"
        },
        {
          "internalType": "string",
          "name": "_symbol",
          "type": "string"
        },
        {
          "internalType": "address",
          "name": "_marketMaker",
          "type": "address"
        }
      ],
      "name": "getCreationCode",
      "outputs": [
        {
          "internalType": "bytes",
          "name": "",
          "type": "bytes"
        }
      ],
      "stateMutability": "pure",
      "type": "function"
    }
  ],
  "bytecode": "0x608060405234801561001057600080fd5b50615fbf806100206000396000f3fe60806040523480156200001157600080fd5b5060043610620000465760003560e01c806317d1b508146200004b578063846181891462000081578063c5ff1d4714620000a1575b600080fd5b6200006960048036038101906200006391906200068f565b620000d7565b604051620000789190620007b2565b60405180910390f35b6200009f600480360381019062000099919062000811565b620001cb565b005b620000bf6004803603810190620000b99190620008d7565b62000317565b604051620000ce919062000998565b60405180910390f35b6060600073ffffffffffffffffffffffffffffffffffffffff168273ffffffffffffffffffffffffffffffffffffffff16036200014b576040517f08c379a0000000000000000000000000000000000000000000000000000000008152600401620001429062000a16565b60405180910390fd5b6000604051806020016200015f90620004a6565b6020820181038252601f19601f820116604052509050808585856040516020016200018d9392919062000a84565b604051602081830303815290604052604051602001620001af92919062000b11565b6040516020818303038152906040529050809150509392505050565b6000620001da858585620000d7565b90506000620001ec6000888462000348565b905060008190508073ffffffffffffffffffffffffffffffffffffffff1663f2fde38b336040518263ffffffff1660e01b81526004016200022e919062000998565b600060405180830381600087803b1580156200024957600080fd5b505af11580156200025e573d6000803e3d6000fd5b505050508373ffffffffffffffffffffffffffffffffffffffff1663b0bb00318260006040518363ffffffff1660e01b8152600401620002a092919062000bc1565b600060405180830381600087803b158015620002bb57600080fd5b505af1158015620002d0573d6000803e3d6000fd5b505050507f83a48fbcfc991335314e74d0496aab6a1987e992ddc85dddbcc4d6dd6ef2e9fc8260405162000305919062000998565b60405180910390a15050505050505050565b60008062000327858585620000d7565b8051906020012090506200033d86823062000460565b915050949350505050565b6000808447101562000391576040517f08c379a0000000000000000000000000000000000000000000000000000000008152600401620003889062000c3e565b60405180910390fd5b6000835103620003d8576040517f08c379a0000000000000000000000000000000000000000000000000000000008152600401620003cf9062000cb0565b60405180910390fd5b8383516020850187f59050600073ffffffffffffffffffffffffffffffffffffffff168173ffffffffffffffffffffffffffffffffffffffff160362000455576040517f08c379a00000000000000000000000000000000000000000000000000000000081526004016200044c9062000d22565b60405180910390fd5b809150509392505050565b60008060ff60f81b83868660405160200162000480949392919062000e0a565b6040516020818303038152906040528051906020012090508060001c9150509392505050565b6151298062000e6183390190565b6000604051905090565b600080fd5b600080fd5b600080fd5b600080fd5b6000601f19601f8301169050919050565b7f4e487b7100000000000000000000000000000000000000000000000000000000600052604160045260246000fd5b6200051d82620004d2565b810181811067ffffffffffffffff821117156200053f576200053e620004e3565b5b80604052505050565b600062000554620004b4565b905062000562828262000512565b919050565b600067ffffffffffffffff821115620005855762000584620004e3565b5b6200059082620004d2565b9050602081019050919050565b82818337600083830152505050565b6000620005c3620005bd8462000567565b62000548565b905082815260208101848484011115620005e257620005e1620004cd565b5b620005ef8482856200059d565b509392505050565b600082601f8301126200060f576200060e620004c8565b5b813562000621848260208601620005ac565b91505092915050565b600073ffffffffffffffffffffffffffffffffffffffff82169050919050565b600062000657826200062a565b9050919050565b62000669816200064a565b81146200067557600080fd5b50565b60008135905062000689816200065e565b92915050565b600080600060608486031215620006ab57620006aa620004be565b5b600084013567ffffffffffffffff811115620006cc57620006cb620004c3565b5b620006da86828701620005f7565b935050602084013567ffffffffffffffff811115620006fe57620006fd620004c3565b5b6200070c86828701620005f7565b92505060406200071f8682870162000678565b9150509250925092565b600081519050919050565b600082825260208201905092915050565b60005b838110156200076557808201518184015260208101905062000748565b60008484015250505050565b60006200077e8262000729565b6200078a818562000734565b93506200079c81856020860162000745565b620007a781620004d2565b840191505092915050565b60006020820190508181036000830152620007ce818462000771565b905092915050565b6000819050919050565b620007eb81620007d6565b8114620007f757600080fd5b50565b6000813590506200080b81620007e0565b92915050565b600080600080600060a0868803121562000830576200082f620004be565b5b60006200084088828901620007fa565b955050602086013567ffffffffffffffff811115620008645762000863620004c3565b5b6200087288828901620005f7565b945050604086013567ffffffffffffffff811115620008965762000895620004c3565b5b620008a488828901620005f7565b9350506060620008b78882890162000678565b9250506080620008ca8882890162000678565b9150509295509295909350565b60008060008060808587031215620008f457620008f3620004be565b5b60006200090487828801620007fa565b945050602085013567ffffffffffffffff811115620009285762000927620004c3565b5b6200093687828801620005f7565b935050604085013567ffffffffffffffff8111156200095a5762000959620004c3565b5b6200096887828801620005f7565b92505060606200097b8782880162000678565b91505092959194509250565b62000992816200064a565b82525050565b6000602082019050620009af600083018462000987565b92915050565b600082825260208201905092915050565b7f5046304100000000000000000000000000000000000000000000000000000000600082015250565b6000620009fe600483620009b5565b915062000a0b82620009c6565b602082019050919050565b6000602082019050818103600083015262000a3181620009ef565b9050919050565b600081519050919050565b600062000a508262000a38565b62000a5c8185620009b5565b935062000a6e81856020860162000745565b62000a7981620004d2565b840191505092915050565b6000606082019050818103600083015262000aa0818662000a43565b9050818103602083015262000ab6818562000a43565b905062000ac7604083018462000987565b949350505050565b600081905092915050565b600062000ae78262000729565b62000af3818562000acf565b935062000b0581856020860162000745565b80840191505092915050565b600062000b1f828562000ada565b915062000b2d828462000ada565b91508190509392505050565b6000819050919050565b600062000b6462000b5e62000b58846200062a565b62000b39565b6200062a565b9050919050565b600062000b788262000b43565b9050919050565b600062000b8c8262000b6b565b9050919050565b62000b9e8162000b7f565b82525050565b60008115159050919050565b62000bbb8162000ba4565b82525050565b600060408201905062000bd8600083018562000b93565b62000be7602083018462000bb0565b9392505050565b7f437265617465323a20696e73756666696369656e742062616c616e6365000000600082015250565b600062000c26601d83620009b5565b915062000c338262000bee565b602082019050919050565b6000602082019050818103600083015262000c598162000c17565b9050919050565b7f437265617465323a2062797465636f6465206c656e677468206973207a65726f600082015250565b600062000c98602083620009b5565b915062000ca58262000c60565b602082019050919050565b6000602082019050818103600083015262000ccb8162000c89565b9050919050565b7f437265617465323a204661696c6564206f6e206465706c6f7900000000000000600082015250565b600062000d0a601983620009b5565b915062000d178262000cd2565b602082019050919050565b6000602082019050818103600083015262000d3d8162000cfb565b9050919050565b60007fff0000000000000000000000000000000000000000000000000000000000000082169050919050565b6000819050919050565b62000d8f62000d898262000d44565b62000d70565b82525050565b60008160601b9050919050565b600062000daf8262000d95565b9050919050565b600062000dc38262000da2565b9050919050565b62000ddf62000dd9826200064a565b62000db6565b82525050565b6000819050919050565b62000e0462000dfe82620007d6565b62000de5565b82525050565b600062000e18828762000d7a565b60018201915062000e2a828662000dca565b60148201915062000e3c828562000def565b60208201915062000e4e828462000def565b6020820191508190509594505050505056fe610180604052662386f26fc10000600b556706f05b59d3b20000600c556706f05b59d3b20000600d55673782dace9d900000600e553480156200004157600080fd5b5060405162005129380380620051298339818101604052810190620000679190620006db565b82806040518060400160405280600181526020017f310000000000000000000000000000000000000000000000000000000000000081525085858160039081620000b29190620009c0565b508060049081620000c49190620009c0565b50505060008280519060200120905060008280519060200120905060007f8b73c3c69bb8fe3d512ecc4cf759cc79239f7b179b0ffacaa9a75d522b39400f90508260e081815250508161010081815250504660a0818152505062000130818484620003d960201b60201c565b608081815250503073ffffffffffffffffffffffffffffffffffffffff1660c08173ffffffffffffffffffffffffffffffffffffffff16815250508061012081815250505050505050506200019a6200018e6200041560201b60201c565b6200041d60201b60201c565b600073ffffffffffffffffffffffffffffffffffffffff168173ffffffffffffffffffffffffffffffffffffffff16036200020c576040517f08c379a0000000000000000000000000000000000000000000000000000000008152600401620002039062000b08565b60405180910390fd5b8073ffffffffffffffffffffffffffffffffffffffff166101608173ffffffffffffffffffffffffffffffffffffffff1681525050600073ffffffffffffffffffffffffffffffffffffffff166101605173ffffffffffffffffffffffffffffffffffffffff1663c0a16f6a6040518163ffffffff1660e01b8152600401602060405180830381865afa158015620002a8573d6000803e3d6000fd5b505050506040513d601f19601f82011682018060405250810190620002ce919062000b6f565b73ffffffffffffffffffffffffffffffffffffffff160362000327576040517f08c379a00000000000000000000000000000000000000000000000000000000081526004016200031e9062000bf1565b60405180910390fd5b6101605173ffffffffffffffffffffffffffffffffffffffff1663d2f7265a6040518163ffffffff1660e01b8152600401602060405180830381865afa15801562000376573d6000803e3d6000fd5b505050506040513d601f19601f820116820180604052508101906200039c919062000c13565b73ffffffffffffffffffffffffffffffffffffffff166101408173ffffffffffffffffffffffffffffffffffffffff168152505050505062000cdf565b60008383834630604051602001620003f695949392919062000c82565b6040516020818303038152906040528051906020012090509392505050565b600033905090565b6000600a60009054906101000a900473ffffffffffffffffffffffffffffffffffffffff16905081600a60006101000a81548173ffffffffffffffffffffffffffffffffffffffff021916908373ffffffffffffffffffffffffffffffffffffffff1602179055508173ffffffffffffffffffffffffffffffffffffffff168173ffffffffffffffffffffffffffffffffffffffff167f8be0079c531659141344cd1fd0a4f28419497f9722a3daafe3b4186f6b6457e060405160405180910390a35050565b6000604051905090565b600080fd5b600080fd5b600080fd5b600080fd5b6000601f19601f8301169050919050565b7f4e487b7100000000000000000000000000000000000000000000000000000000600052604160045260246000fd5b6200054c8262000501565b810181811067ffffffffffffffff821117156200056e576200056d62000512565b5b80604052505050565b600062000583620004e3565b905062000591828262000541565b919050565b600067ffffffffffffffff821115620005b457620005b362000512565b5b620005bf8262000501565b9050602081019050919050565b60005b83811015620005ec578082015181840152602081019050620005cf565b60008484015250505050565b60006200060f620006098462000596565b62000577565b9050828152602081018484840111156200062e576200062d620004fc565b5b6200063b848285620005cc565b509392505050565b600082601f8301126200065b576200065a620004f7565b5b81516200066d848260208601620005f8565b91505092915050565b600073ffffffffffffffffffffffffffffffffffffffff82169050919050565b6000620006a38262000676565b9050919050565b620006b58162000696565b8114620006c157600080fd5b50565b600081519050620006d581620006aa565b92915050565b600080600060608486031215620006f757620006f6620004ed565b5b600084015167ffffffffffffffff811115620007185762000717620004f2565b5b620007268682870162000643565b935050602084015167ffffffffffffffff8111156200074a5762000749620004f2565b5b620007588682870162000643565b92505060406200076b86828701620006c4565b9150509250925092565b600081519050919050565b7f4e487b7100000000000000000000000000000000000000000000000000000000600052602260045260246000fd5b60006002820490506001821680620007c857607f821691505b602082108103620007de57620007dd62000780565b5b50919050565b60008190508160005260206000209050919050565b60006020601f8301049050919050565b600082821b905092915050565b600060088302620008487fffffffffffffffffffffffffffffffffffffffffffffffffffffffffffffffff8262000809565b62000854868362000809565b95508019841693508086168417925050509392505050565b6000819050919050565b6000819050919050565b6000620008a16200089b62000895846200086c565b62000876565b6200086c565b9050919050565b6000819050919050565b620008bd8362000880565b620008d5620008cc82620008a8565b84845462000816565b825550505050565b600090565b620008ec620008dd565b620008f9818484620008b2565b505050565b5b81811015620009215762000915600082620008e2565b600181019050620008ff565b5050565b601f82111562000970576200093a81620007e4565b6200094584620007f9565b8101602085101562000955578190505b6200096d6200096485620007f9565b830182620008fe565b50505b505050565b600082821c905092915050565b6000620009956000198460080262000975565b1980831691505092915050565b6000620009b0838362000982565b9150826002028217905092915050565b620009cb8262000775565b67ffffffffffffffff811115620009e757620009e662000512565b5b620009f38254620007af565b62000a0082828562000925565b600060209050601f83116001811462000a38576000841562000a23578287015190505b62000a2f8582620009a2565b86555062000a9f565b601f19841662000a4886620007e4565b60005b8281101562000a725784890151825560018201915060208501945060208101905062000a4b565b8683101562000a92578489015162000a8e601f89168262000982565b8355505b6001600288020188555050505b505050505050565b600082825260208201905092915050565b7f3061646472000000000000000000000000000000000000000000000000000000600082015250565b600062000af060058362000aa7565b915062000afd8262000ab8565b602082019050919050565b6000602082019050818103600083015262000b238162000ae1565b9050919050565b600062000b378262000696565b9050919050565b62000b498162000b2a565b811462000b5557600080fd5b50565b60008151905062000b698162000b3e565b92915050565b60006020828403121562000b885762000b87620004ed565b5b600062000b988482850162000b58565b91505092915050565b7f30766f6c636861696e0000000000000000000000000000000000000000000000600082015250565b600062000bd960098362000aa7565b915062000be68262000ba1565b602082019050919050565b6000602082019050818103600083015262000c0c8162000bca565b9050919050565b60006020828403121562000c2c5762000c2b620004ed565b5b600062000c3c84828501620006c4565b91505092915050565b6000819050919050565b62000c5a8162000c45565b82525050565b62000c6b816200086c565b82525050565b62000c7c8162000696565b82525050565b600060a08201905062000c99600083018862000c4f565b62000ca8602083018762000c4f565b62000cb7604083018662000c4f565b62000cc6606083018562000c60565b62000cd5608083018462000c71565b9695505050505050565b60805160a05160c05160e051610100516101205161014051610160516143d662000d5360003960006107a80152600081816108e401528181610d940152610fd401526000611a5d01526000611a9f01526000611a7e015260006119b301526000611a0901526000611a3201526143d66000f3fe608060405234801561001057600080fd5b50600436106102065760003560e01c80637ecebe001161011a578063c3cda520116100ad578063dd62ed3e1161007c578063dd62ed3e1461062b578063df95c3a71461065b578063e0548bd814610677578063f1127ed814610695578063f2fde38b146106c557610206565b8063c3cda520146105b7578063d1c699aa146105d3578063d2f7265a146105f1578063d505accf1461060f57610206565b80639ab24eb0116100e95780639ab24eb01461050b5780639dc29fac1461053b578063a457c2d714610557578063a9059cbb1461058757610206565b80637ecebe001461046f5780638da5cb5b1461049f5780638e539e8c146104bd57806395d89b41146104ed57610206565b8063372688b01161019d578063587cde1e1161016c578063587cde1e146103b95780635c19a95c146103e95780636fcfff451461040557806370a0823114610435578063715018a61461046557610206565b8063372688b01461031f578063395093511461033d5780633a46b1a81461036d57806340c10f191461039d57610206565b80631f21f9af116101d95780631f21f9af1461029557806323b872dd146102b3578063313ce567146102e35780633644e5151461030157610206565b806306fdde031461020b578063095ea7b3146102295780630f9026181461025957806318160ddd14610277575b600080fd5b6102136106e1565b6040516102209190612c75565b60405180910390f35b610243600480360381019061023e9190612d30565b610773565b6040516102509190612d8b565b60405180910390f35b610261610796565b60405161026e9190612db5565b60405180910390f35b61027f61079c565b60405161028c9190612db5565b60405180910390f35b61029d6107a6565b6040516102aa9190612e2f565b60405180910390f35b6102cd60048036038101906102c89190612e4a565b6107ca565b6040516102da9190612d8b565b60405180910390f35b6102eb6107f9565b6040516102f89190612eb9565b60405180910390f35b610309610802565b6040516103169190612eed565b60405180910390f35b610327610811565b6040516103349190612db5565b60405180910390f35b61035760048036038101906103529190612d30565b610817565b6040516103649190612d8b565b60405180910390f35b61038760048036038101906103829190612d30565b61084e565b6040516103949190612db5565b60405180910390f35b6103b760048036038101906103b29190612d30565b6108e2565b005b6103d360048036038101906103ce9190612f08565b61097e565b6040516103e09190612f44565b60405180910390f35b61040360048036038101906103fe9190612f08565b6109e7565b005b61041f600480360381019061041a9190612f08565b6109fb565b60405161042c9190612f7e565b60405180910390f35b61044f600480360381019061044a9190612f08565b610a4f565b60405161045c9190612db5565b60405180910390f35b61046d610a97565b005b61048960048036038101906104849190612f08565b610b1f565b6040516104969190612db5565b60405180910390f35b6104a7610b6f565b6040516104b49190612f44565b60405180910390f35b6104d760048036038101906104d29190612f99565b610b99565b6040516104e49190612db5565b60405180910390f35b6104f5610bef565b6040516105029190612c75565b60405180910390f35b61052560048036038101906105209190612f08565b610c81565b6040516105329190612db5565b60405180910390f35b61055560048036038101906105509190612d30565b610d92565b005b610571600480360381019061056c9190612d30565b610e2e565b60405161057e9190612d8b565b60405180910390f35b6105a1600480360381019061059c9190612d30565b610ea5565b6040516105ae9190612d8b565b60405180910390f35b6105d160048036038101906105cc919061301e565b610ec8565b005b6105db610fcc565b6040516105e89190612db5565b60405180910390f35b6105f9610fd2565b6040516106069190612f44565b60405180910390f35b610629600480360381019061062491906130ab565b610ff6565b005b6106456004803603810190610640919061314d565b611138565b6040516106529190612db5565b60405180910390f35b6106756004803603810190610670919061318d565b6111bf565b005b61067f6112c6565b60405161068c9190612db5565b60405180910390f35b6106af60048036038101906106aa91906131f9565b6112cc565b6040516106bc91906132ae565b60405180910390f35b6106df60048036038101906106da9190612f08565b6113dc565b005b6060600380546106f0906132f8565b80601f016020809104026020016040519081016040528092919081815260200182805461071c906132f8565b80156107695780601f1061073e57610100808354040283529160200191610769565b820191906000526020600020905b81548152906001019060200180831161074c57829003601f168201915b5050505050905090565b60008061077e6114d3565b905061078b8185856114db565b600191505092915050565b600c5481565b6000600254905090565b7f000000000000000000000000000000000000000000000000000000000000000081565b6000806107d56114d3565b90506107e28582856116a4565b6107ed858585611730565b60019150509392505050565b60006012905090565b600061080c6119af565b905090565b600d5481565b6000806108226114d3565b90506108438185856108348589611138565b61083e9190613358565b6114db565b600191505092915050565b6000438210610892576040517f08c379a0000000000000000000000000000000000000000000000000000000008152600401610889906133d8565b60405180910390fd5b6108da600860008573ffffffffffffffffffffffffffffffffffffffff1673ffffffffffffffffffffffffffffffffffffffff16815260200190815260200160002083611ac9565b905092915050565b7f000000000000000000000000000000000000000000000000000000000000000073ffffffffffffffffffffffffffffffffffffffff163373ffffffffffffffffffffffffffffffffffffffff1614610970576040517f08c379a000000000000000000000000000000000000000000000000000000000815260040161096790613444565b60405180910390fd5b61097a8282611bd5565b5050565b6000600760008373ffffffffffffffffffffffffffffffffffffffff1673ffffffffffffffffffffffffffffffffffffffff16815260200190815260200160002060009054906101000a900473ffffffffffffffffffffffffffffffffffffffff169050919050565b6109f86109f26114d3565b82611be3565b50565b6000610a48600860008473ffffffffffffffffffffffffffffffffffffffff1673ffffffffffffffffffffffffffffffffffffffff16815260200190815260200160002080549050611cfd565b9050919050565b60008060008373ffffffffffffffffffffffffffffffffffffffff1673ffffffffffffffffffffffffffffffffffffffff168152602001908152602001600020549050919050565b610a9f6114d3565b73ffffffffffffffffffffffffffffffffffffffff16610abd610b6f565b73ffffffffffffffffffffffffffffffffffffffff1614610b13576040517f08c379a0000000000000000000000000000000000000000000000000000000008152600401610b0a906134b0565b60405180910390fd5b610b1d6000611d50565b565b6000610b68600560008473ffffffffffffffffffffffffffffffffffffffff1673ffffffffffffffffffffffffffffffffffffffff168152602001908152602001600020611e16565b9050919050565b6000600a60009054906101000a900473ffffffffffffffffffffffffffffffffffffffff16905090565b6000438210610bdd576040517f08c379a0000000000000000000000000000000000000000000000000000000008152600401610bd4906133d8565b60405180910390fd5b610be8600983611ac9565b9050919050565b606060048054610bfe906132f8565b80601f0160208091040260200160405190810160405280929190818152602001828054610c2a906132f8565b8015610c775780601f10610c4c57610100808354040283529160200191610c77565b820191906000526020600020905b815481529060010190602001808311610c5a57829003601f168201915b5050505050905090565b600080600860008473ffffffffffffffffffffffffffffffffffffffff1673ffffffffffffffffffffffffffffffffffffffff16815260200190815260200160002080549050905060008114610d6957600860008473ffffffffffffffffffffffffffffffffffffffff1673ffffffffffffffffffffffffffffffffffffffff168152602001908152602001600020600182610d1d91906134d0565b81548110610d2e57610d2d613504565b5b9060005260206000200160000160049054906101000a90047bffffffffffffffffffffffffffffffffffffffffffffffffffffffff16610d6c565b60005b7bffffffffffffffffffffffffffffffffffffffffffffffffffffffff16915050919050565b7f000000000000000000000000000000000000000000000000000000000000000073ffffffffffffffffffffffffffffffffffffffff163373ffffffffffffffffffffffffffffffffffffffff1614610e20576040517f08c379a0000000000000000000000000000000000000000000000000000000008152600401610e179061357f565b60405180910390fd5b610e2a8282611e24565b5050565b600080610e396114d3565b90506000610e478286611138565b905083811015610e8c576040517f08c379a0000000000000000000000000000000000000000000000000000000008152600401610e8390613611565b60405180910390fd5b610e9982868684036114db565b60019250505092915050565b600080610eb06114d3565b9050610ebd818585611730565b600191505092915050565b83421115610f0b576040517f08c379a0000000000000000000000000000000000000000000000000000000008152600401610f029061367d565b60405180910390fd5b6000610f6d610f657fe48329057bfd03d55e49b547132e39cffd9c1820ad7b9d4c5307691425d15adf898989604051602001610f4a949392919061369d565b60405160208183030381529060405280519060200120611e32565b858585611e4c565b9050610f7881611e77565b8614610fb9576040517f08c379a0000000000000000000000000000000000000000000000000000000008152600401610fb09061372e565b60405180910390fd5b610fc38188611be3565b50505050505050565b600b5481565b7f000000000000000000000000000000000000000000000000000000000000000081565b83421115611039576040517f08c379a00000000000000000000000000000000000000000000000000000000081526004016110309061379a565b60405180910390fd5b60007f6e71edae12b1b97f4d1f60370fef10105fa2faae0126114a169c64845d6126c98888886110688c611e77565b8960405160200161107e969594939291906137ba565b60405160208183030381529060405280519060200120905060006110a182611e32565b905060006110b182878787611e4c565b90508973ffffffffffffffffffffffffffffffffffffffff168173ffffffffffffffffffffffffffffffffffffffff1614611121576040517f08c379a000000000000000000000000000000000000000000000000000000000815260040161111890613867565b60405180910390fd5b61112c8a8a8a6114db565b50505050505050505050565b6000600160008473ffffffffffffffffffffffffffffffffffffffff1673ffffffffffffffffffffffffffffffffffffffff16815260200190815260200160002060008373ffffffffffffffffffffffffffffffffffffffff1673ffffffffffffffffffffffffffffffffffffffff16815260200190815260200160002054905092915050565b6111c76114d3565b73ffffffffffffffffffffffffffffffffffffffff166111e5610b6f565b73ffffffffffffffffffffffffffffffffffffffff161461123b576040517f08c379a0000000000000000000000000000000000000000000000000000000008152600401611232906134b0565b60405180910390fd5b6001820361124f5780600b8190555061128a565b600282036112635780600c81905550611289565b600382036112775780600d81905550611288565b600482036112875780600e819055505b5b5b5b817f1f77a5f1218c5e380f0425a2e88a823d831b5f8906f5ab4db8b1565a36f780d7826040516112ba9190612db5565b60405180910390a25050565b600e5481565b6112d4612ba7565b600860008473ffffffffffffffffffffffffffffffffffffffff1673ffffffffffffffffffffffffffffffffffffffff1681526020019081526020016000208263ffffffff168154811061132b5761132a613504565b5b906000526020600020016040518060400160405290816000820160009054906101000a900463ffffffff1663ffffffff1663ffffffff1681526020016000820160049054906101000a90047bffffffffffffffffffffffffffffffffffffffffffffffffffffffff167bffffffffffffffffffffffffffffffffffffffffffffffffffffffff167bffffffffffffffffffffffffffffffffffffffffffffffffffffffff1681525050905092915050565b6113e46114d3565b73ffffffffffffffffffffffffffffffffffffffff16611402610b6f565b73ffffffffffffffffffffffffffffffffffffffff1614611458576040517f08c379a000000000000000000000000000000000000000000000000000000000815260040161144f906134b0565b60405180910390fd5b600073ffffffffffffffffffffffffffffffffffffffff168173ffffffffffffffffffffffffffffffffffffffff16036114c7576040517f08c379a00000000000000000000000000000000000000000000000000000000081526004016114be906138f9565b60405180910390fd5b6114d081611d50565b50565b600033905090565b600073ffffffffffffffffffffffffffffffffffffffff168373ffffffffffffffffffffffffffffffffffffffff160361154a576040517f08c379a00000000000000000000000000000000000000000000000000000000081526004016115419061398b565b60405180910390fd5b600073ffffffffffffffffffffffffffffffffffffffff168273ffffffffffffffffffffffffffffffffffffffff16036115b9576040517f08c379a00000000000000000000000000000000000000000000000000000000081526004016115b090613a1d565b60405180910390fd5b80600160008573ffffffffffffffffffffffffffffffffffffffff1673ffffffffffffffffffffffffffffffffffffffff16815260200190815260200160002060008473ffffffffffffffffffffffffffffffffffffffff1673ffffffffffffffffffffffffffffffffffffffff168152602001908152602001600020819055508173ffffffffffffffffffffffffffffffffffffffff168373ffffffffffffffffffffffffffffffffffffffff167f8c5be1e5ebec7d5bd14f71427d1e84f3dd0314c0f7b2291e5b200ac8c7c3b925836040516116979190612db5565b60405180910390a3505050565b60006116b08484611138565b90507fffffffffffffffffffffffffffffffffffffffffffffffffffffffffffffffff811461172a578181101561171c576040517f08c379a000000000000000000000000000000000000000000000000000000000815260040161171390613a89565b60405180910390fd5b61172984848484036114db565b5b50505050565b600073ffffffffffffffffffffffffffffffffffffffff168373ffffffffffffffffffffffffffffffffffffffff160361179f576040517f08c379a000000000000000000000000000000000000000000000000000000000815260040161179690613b1b565b60405180910390fd5b600073ffffffffffffffffffffffffffffffffffffffff168273ffffffffffffffffffffffffffffffffffffffff160361180e576040517f08c379a000000000000000000000000000000000000000000000000000000000815260040161180590613bad565b60405180910390fd5b611819838383611ed5565b60008060008573ffffffffffffffffffffffffffffffffffffffff1673ffffffffffffffffffffffffffffffffffffffff1681526020019081526020016000205490508181101561189f576040517f08c379a000000000000000000000000000000000000000000000000000000000815260040161189690613c3f565b60405180910390fd5b8181036000808673ffffffffffffffffffffffffffffffffffffffff1673ffffffffffffffffffffffffffffffffffffffff16815260200190815260200160002081905550816000808573ffffffffffffffffffffffffffffffffffffffff1673ffffffffffffffffffffffffffffffffffffffff16815260200190815260200160002060008282546119329190613358565b925050819055508273ffffffffffffffffffffffffffffffffffffffff168473ffffffffffffffffffffffffffffffffffffffff167fddf252ad1be2c89b69c2b068fc378daa952ba7f163c4a11628f55a4df523b3ef846040516119969190612db5565b60405180910390a36119a9848484611eda565b50505050565b60007f000000000000000000000000000000000000000000000000000000000000000073ffffffffffffffffffffffffffffffffffffffff163073ffffffffffffffffffffffffffffffffffffffff16148015611a2b57507f000000000000000000000000000000000000000000000000000000000000000046145b15611a58577f00000000000000000000000000000000000000000000000000000000000000009050611ac6565b611ac37f00000000000000000000000000000000000000000000000000000000000000007f00000000000000000000000000000000000000000000000000000000000000007f0000000000000000000000000000000000000000000000000000000000000000611eea565b90505b90565b6000808380549050905060005b81811015611b48576000611aea8284611f24565b905084868281548110611b0057611aff613504565b5b9060005260206000200160000160009054906101000a900463ffffffff1663ffffffff161115611b3257809250611b42565b600181611b3f9190613358565b91505b50611ad6565b60008214611baa5784600183611b5e91906134d0565b81548110611b6f57611b6e613504565b5b9060005260206000200160000160049054906101000a90047bffffffffffffffffffffffffffffffffffffffffffffffffffffffff16611bad565b60005b7bffffffffffffffffffffffffffffffffffffffffffffffffffffffff169250505092915050565b611bdf8282611f4a565b5050565b6000611bee8361097e565b90506000611bfb84610a4f565b905082600760008673ffffffffffffffffffffffffffffffffffffffff1673ffffffffffffffffffffffffffffffffffffffff16815260200190815260200160002060006101000a81548173ffffffffffffffffffffffffffffffffffffffff021916908373ffffffffffffffffffffffffffffffffffffffff1602179055508273ffffffffffffffffffffffffffffffffffffffff168273ffffffffffffffffffffffffffffffffffffffff168573ffffffffffffffffffffffffffffffffffffffff167f3134e8a2e6d97e929a7e54011ea5485d7d196dd5f0ba4d4ef95803e8e3fc257f60405160405180910390a4611cf7828483611fd7565b50505050565b600063ffffffff8016821115611d48576040517f08c379a0000000000000000000000000000000000000000000000000000000008152600401611d3f90613cd1565b60405180910390fd5b819050919050565b6000600a60009054906101000a900473ffffffffffffffffffffffffffffffffffffffff16905081600a60006101000a81548173ffffffffffffffffffffffffffffffffffffffff021916908373ffffffffffffffffffffffffffffffffffffffff1602179055508173ffffffffffffffffffffffffffffffffffffffff168173ffffffffffffffffffffffffffffffffffffffff167f8be0079c531659141344cd1fd0a4f28419497f9722a3daafe3b4186f6b6457e060405160405180910390a35050565b600081600001549050919050565b611e2e82826121d0565b5050565b6000611e45611e3f6119af565b836121ee565b9050919050565b6000806000611e5d87878787612221565b91509150611e6a8161232d565b8192505050949350505050565b600080600560008473ffffffffffffffffffffffffffffffffffffffff1673ffffffffffffffffffffffffffffffffffffffff1681526020019081526020016000209050611ec481611e16565b9150611ecf816124f9565b50919050565b505050565b611ee583838361250f565b505050565b60008383834630604051602001611f05959493929190613cf1565b6040516020818303038152906040528051906020012090509392505050565b60006002828418611f359190613d73565b828416611f429190613358565b905092915050565b611f54828261253a565b611f5c612699565b7bffffffffffffffffffffffffffffffffffffffffffffffffffffffff16611f8261079c565b1115611fc3576040517f08c379a0000000000000000000000000000000000000000000000000000000008152600401611fba90613e16565b60405180910390fd5b611fd160096126bd836126d3565b50505050565b8173ffffffffffffffffffffffffffffffffffffffff168373ffffffffffffffffffffffffffffffffffffffff16141580156120135750600081115b156121cb57600073ffffffffffffffffffffffffffffffffffffffff168373ffffffffffffffffffffffffffffffffffffffff16146120f15760008061209a600860008773ffffffffffffffffffffffffffffffffffffffff1673ffffffffffffffffffffffffffffffffffffffff16815260200190815260200160002061294b856126d3565b915091508473ffffffffffffffffffffffffffffffffffffffff167fdec2bacdd2f05b59de34da9b523dff8be42e5e38e818c82fdb0bae774387a72483836040516120e6929190613e36565b60405180910390a250505b600073ffffffffffffffffffffffffffffffffffffffff168273ffffffffffffffffffffffffffffffffffffffff16146121ca57600080612173600860008673ffffffffffffffffffffffffffffffffffffffff1673ffffffffffffffffffffffffffffffffffffffff1681526020019081526020016000206126bd856126d3565b915091508373ffffffffffffffffffffffffffffffffffffffff167fdec2bacdd2f05b59de34da9b523dff8be42e5e38e818c82fdb0bae774387a72483836040516121bf929190613e36565b60405180910390a250505b5b505050565b6121da8282612961565b6121e8600961294b836126d3565b50505050565b60008282604051602001612203929190613ed7565b60405160208183030381529060405280519060200120905092915050565b6000807f7fffffffffffffffffffffffffffffff5d576e7357a4501ddfe92f46681b20a08360001c111561225c576000600391509150612324565b601b8560ff16141580156122745750601c8560ff1614155b15612286576000600491509150612324565b6000600187878787604051600081526020016040526040516122ab9493929190613f0e565b6020604051602081039080840390855afa1580156122cd573d6000803e3d6000fd5b505050602060405103519050600073ffffffffffffffffffffffffffffffffffffffff168173ffffffffffffffffffffffffffffffffffffffff160361231b57600060019250925050612324565b80600092509250505b94509492505050565b6000600481111561234157612340613f53565b5b81600481111561235457612353613f53565b5b03156124f6576001600481111561236e5761236d613f53565b5b81600481111561238157612380613f53565b5b036123c1576040517f08c379a00000000000000000000000000000000000000000000000000000000081526004016123b890613fce565b60405180910390fd5b600260048111156123d5576123d4613f53565b5b8160048111156123e8576123e7613f53565b5b03612428576040517f08c379a000000000000000000000000000000000000000000000000000000000815260040161241f9061403a565b60405180910390fd5b6003600481111561243c5761243b613f53565b5b81600481111561244f5761244e613f53565b5b0361248f576040517f08c379a0000000000000000000000000000000000000000000000000000000008152600401612486906140cc565b60405180910390fd5b6004808111156124a2576124a1613f53565b5b8160048111156124b5576124b4613f53565b5b036124f5576040517f08c379a00000000000000000000000000000000000000000000000000000000081526004016124ec9061415e565b60405180910390fd5b5b50565b6001816000016000828254019250508190555050565b61251a838383612b37565b6125356125268461097e565b61252f8461097e565b83611fd7565b505050565b600073ffffffffffffffffffffffffffffffffffffffff168273ffffffffffffffffffffffffffffffffffffffff16036125a9576040517f08c379a00000000000000000000000000000000000000000000000000000000081526004016125a0906141ca565b60405180910390fd5b6125b560008383611ed5565b80600260008282546125c79190613358565b92505081905550806000808473ffffffffffffffffffffffffffffffffffffffff1673ffffffffffffffffffffffffffffffffffffffff168152602001908152602001600020600082825461261c9190613358565b925050819055508173ffffffffffffffffffffffffffffffffffffffff16600073ffffffffffffffffffffffffffffffffffffffff167fddf252ad1be2c89b69c2b068fc378daa952ba7f163c4a11628f55a4df523b3ef836040516126819190612db5565b60405180910390a361269560008383611eda565b5050565b60007bffffffffffffffffffffffffffffffffffffffffffffffffffffffff905090565b600081836126cb9190613358565b905092915050565b6000806000858054905090506000811461274157856001826126f591906134d0565b8154811061270657612705613504565b5b9060005260206000200160000160049054906101000a90047bffffffffffffffffffffffffffffffffffffffffffffffffffffffff16612744565b60005b7bffffffffffffffffffffffffffffffffffffffffffffffffffffffff16925061277283858763ffffffff16565b91506000811180156127c55750438660018361278e91906134d0565b8154811061279f5761279e613504565b5b9060005260206000200160000160009054906101000a900463ffffffff1663ffffffff16145b15612852576127d382612b3c565b866001836127e191906134d0565b815481106127f2576127f1613504565b5b9060005260206000200160000160046101000a8154817bffffffffffffffffffffffffffffffffffffffffffffffffffffffff02191690837bffffffffffffffffffffffffffffffffffffffffffffffffffffffff160217905550612942565b85604051806040016040528061286743611cfd565b63ffffffff16815260200161287b85612b3c565b7bffffffffffffffffffffffffffffffffffffffffffffffffffffffff168152509080600181540180825580915050600190039060005260206000200160009091909190915060008201518160000160006101000a81548163ffffffff021916908363ffffffff16021790555060208201518160000160046101000a8154817bffffffffffffffffffffffffffffffffffffffffffffffffffffffff02191690837bffffffffffffffffffffffffffffffffffffffffffffffffffffffff16021790555050505b50935093915050565b6000818361295991906134d0565b905092915050565b600073ffffffffffffffffffffffffffffffffffffffff168273ffffffffffffffffffffffffffffffffffffffff16036129d0576040517f08c379a00000000000000000000000000000000000000000000000000000000081526004016129c79061425c565b60405180910390fd5b6129dc82600083611ed5565b60008060008473ffffffffffffffffffffffffffffffffffffffff1673ffffffffffffffffffffffffffffffffffffffff16815260200190815260200160002054905081811015612a62576040517f08c379a0000000000000000000000000000000000000000000000000000000008152600401612a59906142ee565b60405180910390fd5b8181036000808573ffffffffffffffffffffffffffffffffffffffff1673ffffffffffffffffffffffffffffffffffffffff168152602001908152602001600020819055508160026000828254612ab991906134d0565b92505081905550600073ffffffffffffffffffffffffffffffffffffffff168373ffffffffffffffffffffffffffffffffffffffff167fddf252ad1be2c89b69c2b068fc378daa952ba7f163c4a11628f55a4df523b3ef84604051612b1e9190612db5565b60405180910390a3612b3283600084611eda565b505050565b505050565b60007bffffffffffffffffffffffffffffffffffffffffffffffffffffffff8016821115612b9f576040517f08c379a0000000000000000000000000000000000000000000000000000000008152600401612b9690614380565b60405180910390fd5b819050919050565b6040518060400160405280600063ffffffff16815260200160007bffffffffffffffffffffffffffffffffffffffffffffffffffffffff1681525090565b600081519050919050565b600082825260208201905092915050565b60005b83811015612c1f578082015181840152602081019050612c04565b60008484015250505050565b6000601f19601f8301169050919050565b6000612c4782612be5565b612c518185612bf0565b9350612c61818560208601612c01565b612c6a81612c2b565b840191505092915050565b60006020820190508181036000830152612c8f8184612c3c565b905092915050565b600080fd5b600073ffffffffffffffffffffffffffffffffffffffff82169050919050565b6000612cc782612c9c565b9050919050565b612cd781612cbc565b8114612ce257600080fd5b50565b600081359050612cf481612cce565b92915050565b6000819050919050565b612d0d81612cfa565b8114612d1857600080fd5b50565b600081359050612d2a81612d04565b92915050565b60008060408385031215612d4757612d46612c97565b5b6000612d5585828601612ce5565b9250506020612d6685828601612d1b565b9150509250929050565b60008115159050919050565b612d8581612d70565b82525050565b6000602082019050612da06000830184612d7c565b92915050565b612daf81612cfa565b82525050565b6000602082019050612dca6000830184612da6565b92915050565b6000819050919050565b6000612df5612df0612deb84612c9c565b612dd0565b612c9c565b9050919050565b6000612e0782612dda565b9050919050565b6000612e1982612dfc565b9050919050565b612e2981612e0e565b82525050565b6000602082019050612e446000830184612e20565b92915050565b600080600060608486031215612e6357612e62612c97565b5b6000612e7186828701612ce5565b9350506020612e8286828701612ce5565b9250506040612e9386828701612d1b565b9150509250925092565b600060ff82169050919050565b612eb381612e9d565b82525050565b6000602082019050612ece6000830184612eaa565b92915050565b6000819050919050565b612ee781612ed4565b82525050565b6000602082019050612f026000830184612ede565b92915050565b600060208284031215612f1e57612f1d612c97565b5b6000612f2c84828501612ce5565b91505092915050565b612f3e81612cbc565b82525050565b6000602082019050612f596000830184612f35565b92915050565b600063ffffffff82169050919050565b612f7881612f5f565b82525050565b6000602082019050612f936000830184612f6f565b92915050565b600060208284031215612faf57612fae612c97565b5b6000612fbd84828501612d1b565b91505092915050565b612fcf81612e9d565b8114612fda57600080fd5b50565b600081359050612fec81612fc6565b92915050565b612ffb81612ed4565b811461300657600080fd5b50565b60008135905061301881612ff2565b92915050565b60008060008060008060c0878903121561303b5761303a612c97565b5b600061304989828a01612ce5565b965050602061305a89828a01612d1b565b955050604061306b89828a01612d1b565b945050606061307c89828a01612fdd565b935050608061308d89828a01613009565b92505060a061309e89828a01613009565b9150509295509295509295565b600080600080600080600060e0888a0312156130ca576130c9612c97565b5b60006130d88a828b01612ce5565b97505060206130e98a828b01612ce5565b96505060406130fa8a828b01612d1b565b955050606061310b8a828b01612d1b565b945050608061311c8a828b01612fdd565b93505060a061312d8a828b01613009565b92505060c061313e8a828b01613009565b91505092959891949750929550565b6000806040838503121561316457613163612c97565b5b600061317285828601612ce5565b925050602061318385828601612ce5565b9150509250929050565b600080604083850312156131a4576131a3612c97565b5b60006131b285828601612d1b565b92505060206131c385828601612d1b565b9150509250929050565b6131d681612f5f565b81146131e157600080fd5b50565b6000813590506131f3816131cd565b92915050565b600080604083850312156132105761320f612c97565b5b600061321e85828601612ce5565b925050602061322f858286016131e4565b9150509250929050565b61324281612f5f565b82525050565b60007bffffffffffffffffffffffffffffffffffffffffffffffffffffffff82169050919050565b61327981613248565b82525050565b6040820160008201516132956000850182613239565b5060208201516132a86020850182613270565b50505050565b60006040820190506132c3600083018461327f565b92915050565b7f4e487b7100000000000000000000000000000000000000000000000000000000600052602260045260246000fd5b6000600282049050600182168061331057607f821691505b602082108103613323576133226132c9565b5b50919050565b7f4e487b7100000000000000000000000000000000000000000000000000000000600052601160045260246000fd5b600061336382612cfa565b915061336e83612cfa565b925082820190508082111561338657613385613329565b5b92915050565b7f4552433230566f7465733a20626c6f636b206e6f7420796574206d696e656400600082015250565b60006133c2601f83612bf0565b91506133cd8261338c565b602082019050919050565b600060208201905081810360008301526133f1816133b5565b9050919050565b7f2d6d457800000000000000000000000000000000000000000000000000000000600082015250565b600061342e600483612bf0565b9150613439826133f8565b602082019050919050565b6000602082019050818103600083015261345d81613421565b9050919050565b7f4f776e61626c653a2063616c6c6572206973206e6f7420746865206f776e6572600082015250565b600061349a602083612bf0565b91506134a582613464565b602082019050919050565b600060208201905081810360008301526134c98161348d565b9050919050565b60006134db82612cfa565b91506134e683612cfa565b92508282039050818111156134fe576134fd613329565b5b92915050565b7f4e487b7100000000000000000000000000000000000000000000000000000000600052603260045260246000fd5b7f2d62457800000000000000000000000000000000000000000000000000000000600082015250565b6000613569600483612bf0565b915061357482613533565b602082019050919050565b600060208201905081810360008301526135988161355c565b9050919050565b7f45524332303a2064656372656173656420616c6c6f77616e63652062656c6f7760008201527f207a65726f000000000000000000000000000000000000000000000000000000602082015250565b60006135fb602583612bf0565b91506136068261359f565b604082019050919050565b6000602082019050818103600083015261362a816135ee565b9050919050565b7f4552433230566f7465733a207369676e61747572652065787069726564000000600082015250565b6000613667601d83612bf0565b915061367282613631565b602082019050919050565b600060208201905081810360008301526136968161365a565b9050919050565b60006080820190506136b26000830187612ede565b6136bf6020830186612f35565b6136cc6040830185612da6565b6136d96060830184612da6565b95945050505050565b7f4552433230566f7465733a20696e76616c6964206e6f6e636500000000000000600082015250565b6000613718601983612bf0565b9150613723826136e2565b602082019050919050565b600060208201905081810360008301526137478161370b565b9050919050565b7f45524332305065726d69743a206578706972656420646561646c696e65000000600082015250565b6000613784601d83612bf0565b915061378f8261374e565b602082019050919050565b600060208201905081810360008301526137b381613777565b9050919050565b600060c0820190506137cf6000830189612ede565b6137dc6020830188612f35565b6137e96040830187612f35565b6137f66060830186612da6565b6138036080830185612da6565b61381060a0830184612da6565b979650505050505050565b7f45524332305065726d69743a20696e76616c6964207369676e61747572650000600082015250565b6000613851601e83612bf0565b915061385c8261381b565b602082019050919050565b6000602082019050818103600083015261388081613844565b9050919050565b7f4f776e61626c653a206e6577206f776e657220697320746865207a65726f206160008201527f6464726573730000000000000000000000000000000000000000000000000000602082015250565b60006138e3602683612bf0565b91506138ee82613887565b604082019050919050565b60006020820190508181036000830152613912816138d6565b9050919050565b7f45524332303a20617070726f76652066726f6d20746865207a65726f2061646460008201527f7265737300000000000000000000000000000000000000000000000000000000602082015250565b6000613975602483612bf0565b915061398082613919565b604082019050919050565b600060208201905081810360008301526139a481613968565b9050919050565b7f45524332303a20617070726f766520746f20746865207a65726f20616464726560008201527f7373000000000000000000000000000000000000000000000000000000000000602082015250565b6000613a07602283612bf0565b9150613a12826139ab565b604082019050919050565b60006020820190508181036000830152613a36816139fa565b9050919050565b7f45524332303a20696e73756666696369656e7420616c6c6f77616e6365000000600082015250565b6000613a73601d83612bf0565b9150613a7e82613a3d565b602082019050919050565b60006020820190508181036000830152613aa281613a66565b9050919050565b7f45524332303a207472616e736665722066726f6d20746865207a65726f20616460008201527f6472657373000000000000000000000000000000000000000000000000000000602082015250565b6000613b05602583612bf0565b9150613b1082613aa9565b604082019050919050565b60006020820190508181036000830152613b3481613af8565b9050919050565b7f45524332303a207472616e7366657220746f20746865207a65726f206164647260008201527f6573730000000000000000000000000000000000000000000000000000000000602082015250565b6000613b97602383612bf0565b9150613ba282613b3b565b604082019050919050565b60006020820190508181036000830152613bc681613b8a565b9050919050565b7f45524332303a207472616e7366657220616d6f756e742065786365656473206260008201527f616c616e63650000000000000000000000000000000000000000000000000000602082015250565b6000613c29602683612bf0565b9150613c3482613bcd565b604082019050919050565b60006020820190508181036000830152613c5881613c1c565b9050919050565b7f53616665436173743a2076616c756520646f65736e27742066697420696e203360008201527f3220626974730000000000000000000000000000000000000000000000000000602082015250565b6000613cbb602683612bf0565b9150613cc682613c5f565b604082019050919050565b60006020820190508181036000830152613cea81613cae565b9050919050565b600060a082019050613d066000830188612ede565b613d136020830187612ede565b613d206040830186612ede565b613d2d6060830185612da6565b613d3a6080830184612f35565b9695505050505050565b7f4e487b7100000000000000000000000000000000000000000000000000000000600052601260045260246000fd5b6000613d7e82612cfa565b9150613d8983612cfa565b925082613d9957613d98613d44565b5b828204905092915050565b7f4552433230566f7465733a20746f74616c20737570706c79207269736b73206f60008201527f766572666c6f77696e6720766f74657300000000000000000000000000000000602082015250565b6000613e00603083612bf0565b9150613e0b82613da4565b604082019050919050565b60006020820190508181036000830152613e2f81613df3565b9050919050565b6000604082019050613e4b6000830185612da6565b613e586020830184612da6565b9392505050565b600081905092915050565b7f1901000000000000000000000000000000000000000000000000000000000000600082015250565b6000613ea0600283613e5f565b9150613eab82613e6a565b600282019050919050565b6000819050919050565b613ed1613ecc82612ed4565b613eb6565b82525050565b6000613ee282613e93565b9150613eee8285613ec0565b602082019150613efe8284613ec0565b6020820191508190509392505050565b6000608082019050613f236000830187612ede565b613f306020830186612eaa565b613f3d6040830185612ede565b613f4a6060830184612ede565b95945050505050565b7f4e487b7100000000000000000000000000000000000000000000000000000000600052602160045260246000fd5b7f45434453413a20696e76616c6964207369676e61747572650000000000000000600082015250565b6000613fb8601883612bf0565b9150613fc382613f82565b602082019050919050565b60006020820190508181036000830152613fe781613fab565b9050919050565b7f45434453413a20696e76616c6964207369676e6174757265206c656e67746800600082015250565b6000614024601f83612bf0565b915061402f82613fee565b602082019050919050565b6000602082019050818103600083015261405381614017565b9050919050565b7f45434453413a20696e76616c6964207369676e6174757265202773272076616c60008201527f7565000000000000000000000000000000000000000000000000000000000000602082015250565b60006140b6602283612bf0565b91506140c18261405a565b604082019050919050565b600060208201905081810360008301526140e5816140a9565b9050919050565b7f45434453413a20696e76616c6964207369676e6174757265202776272076616c60008201527f7565000000000000000000000000000000000000000000000000000000000000602082015250565b6000614148602283612bf0565b9150614153826140ec565b604082019050919050565b600060208201905081810360008301526141778161413b565b9050919050565b7f45524332303a206d696e7420746f20746865207a65726f206164647265737300600082015250565b60006141b4601f83612bf0565b91506141bf8261417e565b602082019050919050565b600060208201905081810360008301526141e3816141a7565b9050919050565b7f45524332303a206275726e2066726f6d20746865207a65726f2061646472657360008201527f7300000000000000000000000000000000000000000000000000000000000000602082015250565b6000614246602183612bf0565b9150614251826141ea565b604082019050919050565b6000602082019050818103600083015261427581614239565b9050919050565b7f45524332303a206275726e20616d6f756e7420657863656564732062616c616e60008201527f6365000000000000000000000000000000000000000000000000000000000000602082015250565b60006142d8602283612bf0565b91506142e38261427c565b604082019050919050565b60006020820190508181036000830152614307816142cb565b9050919050565b7f53616665436173743a2076616c756520646f65736e27742066697420696e203260008201527f3234206269747300000000000000000000000000000000000000000000000000602082015250565b600061436a602783612bf0565b91506143758261430e565b604082019050919050565b600060208201905081810360008301526143998161435d565b905091905056fea26469706673582212208075bdc825d1d943578f93ed9754129aa6acb789ef7b48b3c6ecba4e2f0e8ff264736f6c63430008110033a2646970667358221220ea0e7471077b5118d1c2e58931ecfaec3b2f29fb99231f7a3b83e37f8d26dc4364736f6c63430008110033",
  "immutableReferences": {},
  "source": "// SPDX-License-Identifier: MIT\npragma solidity 0.8.17;\n\nimport \"@openzeppelin/contracts/token/ERC20/ERC20.sol\";\nimport \"@openzeppelin/contracts/utils/Create2.sol\";\nimport \"../governance/MoretBroker.sol\";\nimport \"../Exchange.sol\";\nimport \"./MarketMaker.sol\";\nimport \"./Pool.sol\";\n\ncontract PoolFactory {\n    // events\n    event PoolCreated(address pool);\n\n    function computeAddress(bytes32 salt, string memory _name, string memory _symbol, address _marketMaker) public view returns (address) {\n        bytes32 _bytecodeHash = keccak256(getCreationCode(_name, _symbol, _marketMaker));\n        return Create2.computeAddress(\n                salt, //keccak256(abi.encodePacked(salt)),\n                _bytecodeHash,\n                address(this)\n            );}\n\n    function deploy(bytes32 salt, string memory _name, string memory _symbol, address _marketMaker, address _broker) public {\n        bytes memory _bytecode = getCreationCode(_name, _symbol, _marketMaker);\n        address proxy = Create2.deploy(\n            0,\n            salt,//keccak256(abi.encodePacked(salt)),\n            _bytecode\n        );\n\n        Pool _pool = Pool(proxy);\n        _pool.transferOwnership(msg.sender);\n        MoretBroker(_broker).addPool(_pool, false);\n\n        emit PoolCreated(proxy);}\n\n    function getCreationCode(string memory _name, string memory _symbol, address _marketMaker) public pure returns(bytes memory){\n        require(address(_marketMaker) != address(0), 'PF0A');\n        bytes memory _poolBytecode = type(Pool).creationCode;\n        _poolBytecode = abi.encodePacked(_poolBytecode, abi.encode(_name, _symbol, _marketMaker));\n        return _poolBytecode;}\n}",
  "sourcePath": "/Users/mac/Documents/GitHub/moret/contracts/pools/PoolFactory.sol",
  "compiler": {
    "name": "solc",
    "version": "0.8.17+commit.8df45f5f.Emscripten.clang"
  },
  "schemaVersion": "3.4.3",
  "updatedAt": "2023-01-15T15:53:25.253Z",
  "devdoc": {
    "kind": "dev",
    "methods": {},
    "version": 1
  },
  "userdoc": {
    "kind": "user",
    "methods": {},
    "version": 1
  }
}