{
  "contractName": "PoolGovernorFactory",
  "abi": [
    {
      "anonymous": false,
      "inputs": [
        {
          "indexed": false,
          "internalType": "address",
          "name": "poolGov",
          "type": "address"
        },
        {
          "indexed": false,
          "internalType": "address",
          "name": "pool",
          "type": "address"
        }
      ],
      "name": "ProxyCreated",
      "type": "event"
    },
    {
      "inputs": [
        {
          "internalType": "bytes32",
          "name": "salt",
          "type": "bytes32"
        },
        {
          "internalType": "address",
          "name": "_pool",
          "type": "address"
        }
      ],
      "name": "deploy",
      "outputs": [],
      "stateMutability": "nonpayable",
      "type": "function"
    }
  ],
  "bytecode": "0x608060405234801561001057600080fd5b50615fc6806100206000396000f3fe60806040523480156200001157600080fd5b50600436106200002e5760003560e01c80638c1fb9311462000033575b600080fd5b6200005160048036038101906200004b9190620002d9565b62000053565b005b6000620000cc600084604051806020016200006e9062000226565b6020820181038252601f19601f820116604052508560405160200162000095919062000331565b604051602081830303815290604052604051602001620000b7929190620003c7565b6040516020818303038152906040526200010e565b90507f9678a1e87ca9f1a37dc659a97b39d812d98cd236947e1b53b3d0d6fd346acb6e818360405162000101929190620003ef565b60405180910390a1505050565b6000808447101562000157576040517f08c379a00000000000000000000000000000000000000000000000000000000081526004016200014e906200047d565b60405180910390fd5b60008351036200019e576040517f08c379a00000000000000000000000000000000000000000000000000000000081526004016200019590620004ef565b60405180910390fd5b8383516020850187f59050600073ffffffffffffffffffffffffffffffffffffffff168173ffffffffffffffffffffffffffffffffffffffff16036200021b576040517f08c379a0000000000000000000000000000000000000000000000000000000008152600401620002129062000561565b60405180910390fd5b809150509392505050565b615a0d806200058483390190565b600080fd5b6000819050919050565b6200024e8162000239565b81146200025a57600080fd5b50565b6000813590506200026e8162000243565b92915050565b600073ffffffffffffffffffffffffffffffffffffffff82169050919050565b6000620002a18262000274565b9050919050565b620002b38162000294565b8114620002bf57600080fd5b50565b600081359050620002d381620002a8565b92915050565b60008060408385031215620002f357620002f262000234565b5b600062000303858286016200025d565b92505060206200031685828601620002c2565b9150509250929050565b6200032b8162000294565b82525050565b600060208201905062000348600083018462000320565b92915050565b600081519050919050565b600081905092915050565b60005b838110156200038457808201518184015260208101905062000367565b60008484015250505050565b60006200039d826200034e565b620003a9818562000359565b9350620003bb81856020860162000364565b80840191505092915050565b6000620003d5828562000390565b9150620003e3828462000390565b91508190509392505050565b600060408201905062000406600083018562000320565b62000415602083018462000320565b9392505050565b600082825260208201905092915050565b7f437265617465323a20696e73756666696369656e742062616c616e6365000000600082015250565b600062000465601d836200041c565b915062000472826200042d565b602082019050919050565b60006020820190508181036000830152620004988162000456565b9050919050565b7f437265617465323a2062797465636f6465206c656e677468206973207a65726f600082015250565b6000620004d76020836200041c565b9150620004e4826200049f565b602082019050919050565b600060208201905081810360008301526200050a81620004c8565b9050919050565b7f437265617465323a204661696c6564206f6e206465706c6f7900000000000000600082015250565b6000620005496019836200041c565b9150620005568262000511565b602082019050919050565b600060208201905081810360008301526200057c816200053a565b905091905056fe6101606040523480156200001257600080fd5b5060405162005a0d38038062005a0d833981810160405281019062000038919062000338565b6004816040518060400160405280600281526020017f4d4700000000000000000000000000000000000000000000000000000000000081525080620000826200019660201b60201c565b60008280519060200120905060008280519060200120905060007f8b73c3c69bb8fe3d512ecc4cf759cc79239f7b179b0ffacaa9a75d522b39400f90508260e081815250508161010081815250504660a08181525050620000eb818484620001d360201b60201c565b608081815250503073ffffffffffffffffffffffffffffffffffffffff1660c08173ffffffffffffffffffffffffffffffffffffffff168152505080610120818152505050505050508060009081620001459190620005e4565b50508073ffffffffffffffffffffffffffffffffffffffff166101408173ffffffffffffffffffffffffffffffffffffffff1681525050506200018e816200020f60201b60201c565b505062000861565b60606040518060400160405280600181526020017f3100000000000000000000000000000000000000000000000000000000000000815250905090565b60008383834630604051602001620001f095949392919062000708565b6040516020818303038152906040528051906020012090509392505050565b6200021f620002b160201b60201c565b81111562000264576040517f08c379a00000000000000000000000000000000000000000000000000000000081526004016200025b9062000812565b60405180910390fd5b60006005549050816005819055507f0553476bf02ef2726e8ce5ced78d63e26e602e4a2257b1f559418e24b46339978183604051620002a592919062000834565b60405180910390a15050565b60006064905090565b600080fd5b600073ffffffffffffffffffffffffffffffffffffffff82169050919050565b6000620002ec82620002bf565b9050919050565b60006200030082620002df565b9050919050565b6200031281620002f3565b81146200031e57600080fd5b50565b600081519050620003328162000307565b92915050565b600060208284031215620003515762000350620002ba565b5b6000620003618482850162000321565b91505092915050565b600081519050919050565b7f4e487b7100000000000000000000000000000000000000000000000000000000600052604160045260246000fd5b7f4e487b7100000000000000000000000000000000000000000000000000000000600052602260045260246000fd5b60006002820490506001821680620003ec57607f821691505b602082108103620004025762000401620003a4565b5b50919050565b60008190508160005260206000209050919050565b60006020601f8301049050919050565b600082821b905092915050565b6000600883026200046c7fffffffffffffffffffffffffffffffffffffffffffffffffffffffffffffffff826200042d565b6200047886836200042d565b95508019841693508086168417925050509392505050565b6000819050919050565b6000819050919050565b6000620004c5620004bf620004b98462000490565b6200049a565b62000490565b9050919050565b6000819050919050565b620004e183620004a4565b620004f9620004f082620004cc565b8484546200043a565b825550505050565b600090565b6200051062000501565b6200051d818484620004d6565b505050565b5b8181101562000545576200053960008262000506565b60018101905062000523565b5050565b601f82111562000594576200055e8162000408565b62000569846200041d565b8101602085101562000579578190505b6200059162000588856200041d565b83018262000522565b50505b505050565b600082821c905092915050565b6000620005b96000198460080262000599565b1980831691505092915050565b6000620005d48383620005a6565b9150826002028217905092915050565b620005ef826200036a565b67ffffffffffffffff8111156200060b576200060a62000375565b5b620006178254620003d3565b6200062482828562000549565b600060209050601f8311600181146200065c576000841562000647578287015190505b620006538582620005c6565b865550620006c3565b601f1984166200066c8662000408565b60005b8281101562000696578489015182556001820191506020850194506020810190506200066f565b86831015620006b65784890151620006b2601f891682620005a6565b8355505b6001600288020188555050505b505050505050565b6000819050919050565b620006e081620006cb565b82525050565b620006f18162000490565b82525050565b6200070281620002df565b82525050565b600060a0820190506200071f6000830188620006d5565b6200072e6020830187620006d5565b6200073d6040830186620006d5565b6200074c6060830185620006e6565b6200075b6080830184620006f7565b9695505050505050565b600082825260208201905092915050565b7f476f7665726e6f72566f74657351756f72756d4672616374696f6e3a2071756f60008201527f72756d4e756d657261746f72206f7665722071756f72756d44656e6f6d696e6160208201527f746f720000000000000000000000000000000000000000000000000000000000604082015250565b6000620007fa60438362000765565b9150620008078262000776565b606082019050919050565b600060208201905081810360008301526200082d81620007eb565b9050919050565b60006040820190506200084b6000830185620006e6565b6200085a6020830184620006e6565b9392505050565b60805160a05160c05160e051610100516101205161014051615143620008ca6000396000818161185f01528181612003015261210001526000612261015260006122a301526000612282015260006121b70152600061220d0152600061223601526151436000f3fe6080604052600436106101f25760003560e01c80635f398a141161010d578063c01f9e37116100a0578063deaaa7cc1161006f578063deaaa7cc14610814578063eb9019d41461083f578063f23a6e611461087c578063f8ce560a146108b9578063fc0c546a146108f657610238565b8063c01f9e3714610746578063c28bc2fa14610783578063c59057e4146107ac578063dd4e2ba5146107e957610238565b80639a802a6d116100dc5780639a802a6d14610676578063a7713a70146106b3578063b58131b0146106de578063bc197c811461070957610238565b80635f398a14146105945780637b3c71d3146105d15780637d5e81e21461060e57806397c3d3341461064b57610238565b80632fe3e26111610185578063438596321161015457806343859632146104b0578063544ffc9c146104ed57806354fd4d501461052c578063567813881461055757610238565b80632fe3e261146103e05780633932abb11461040b5780633bccf4fd146104365780633e4f49e61461047357610238565b806306fdde03116101c157806306fdde031461030b578063150b7a02146103365780632656227d146103735780632d63f693146103a357610238565b806301ffc9a71461023d57806302a251a31461027a57806303420181146102a557806306f3f9e6146102e257610238565b36610238573073ffffffffffffffffffffffffffffffffffffffff16610216610921565b73ffffffffffffffffffffffffffffffffffffffff161461023657600080fd5b005b600080fd5b34801561024957600080fd5b50610264600480360381019061025f9190612b52565b610929565b6040516102719190612b9a565b60405180910390f35b34801561028657600080fd5b5061028f610a8e565b60405161029c9190612bce565b60405180910390f35b3480156102b157600080fd5b506102cc60048036038101906102c79190612e2a565b610a98565b6040516102d99190612bce565b60405180910390f35b3480156102ee57600080fd5b5061030960048036038101906103049190612f08565b610b7d565b005b34801561031757600080fd5b50610320610c74565b60405161032d9190612fb4565b60405180910390f35b34801561034257600080fd5b5061035d60048036038101906103589190613034565b610d06565b60405161036a91906130c6565b60405180910390f35b61038d60048036038101906103889190613348565b610d1a565b60405161039a9190612bce565b60405180910390f35b3480156103af57600080fd5b506103ca60048036038101906103c59190612f08565b610e67565b6040516103d79190612bce565b60405180910390f35b3480156103ec57600080fd5b506103f5610ed5565b6040516104029190613412565b60405180910390f35b34801561041757600080fd5b50610420610ef9565b60405161042d9190612bce565b60405180910390f35b34801561044257600080fd5b5061045d6004803603810190610458919061342d565b610f03565b60405161046a9190612bce565b60405180910390f35b34801561047f57600080fd5b5061049a60048036038101906104959190612f08565b610f8d565b6040516104a7919061351f565b60405180910390f35b3480156104bc57600080fd5b506104d760048036038101906104d2919061353a565b6110a1565b6040516104e49190612b9a565b60405180910390f35b3480156104f957600080fd5b50610514600480360381019061050f9190612f08565b61110c565b6040516105239392919061357a565b60405180910390f35b34801561053857600080fd5b50610541611144565b60405161054e9190612fb4565b60405180910390f35b34801561056357600080fd5b5061057e600480360381019061057991906135b1565b611181565b60405161058b9190612bce565b60405180910390f35b3480156105a057600080fd5b506105bb60048036038101906105b691906135f1565b6111b2565b6040516105c89190612bce565b60405180910390f35b3480156105dd57600080fd5b506105f860048036038101906105f39190613695565b61121c565b6040516106059190612bce565b60405180910390f35b34801561061a57600080fd5b50610635600480360381019061063091906137aa565b611284565b6040516106429190612bce565b60405180910390f35b34801561065757600080fd5b5061066061158b565b60405161066d9190612bce565b60405180910390f35b34801561068257600080fd5b5061069d60048036038101906106989190613881565b611594565b6040516106aa9190612bce565b60405180910390f35b3480156106bf57600080fd5b506106c86115aa565b6040516106d59190612bce565b60405180910390f35b3480156106ea57600080fd5b506106f36115b4565b6040516107009190612bce565b60405180910390f35b34801561071557600080fd5b50610730600480360381019061072b91906138f0565b6115b9565b60405161073d91906130c6565b60405180910390f35b34801561075257600080fd5b5061076d60048036038101906107689190612f08565b6115ce565b60405161077a9190612bce565b60405180910390f35b34801561078f57600080fd5b506107aa60048036038101906107a59190613a15565b61163c565b005b3480156107b857600080fd5b506107d360048036038101906107ce9190613348565b61177d565b6040516107e09190612bce565b60405180910390f35b3480156107f557600080fd5b506107fe6117b9565b60405161080b9190612fb4565b60405180910390f35b34801561082057600080fd5b506108296117f6565b6040516108369190613412565b60405180910390f35b34801561084b57600080fd5b5061086660048036038101906108619190613a89565b61181a565b6040516108739190612bce565b60405180910390f35b34801561088857600080fd5b506108a3600480360381019061089e9190613ac9565b611836565b6040516108b091906130c6565b60405180910390f35b3480156108c557600080fd5b506108e060048036038101906108db9190612f08565b61184b565b6040516108ed9190612bce565b60405180910390f35b34801561090257600080fd5b5061090b61185d565b6040516109189190613bbf565b60405180910390f35b600030905090565b6000639a802a6d60e01b630342018160e01b635f398a1460e01b7f79dd796f000000000000000000000000000000000000000000000000000000001818187bffffffffffffffffffffffffffffffffffffffffffffffffffffffff1916827bffffffffffffffffffffffffffffffffffffffffffffffffffffffff19161480610a0f57507f79dd796f000000000000000000000000000000000000000000000000000000007bffffffffffffffffffffffffffffffffffffffffffffffffffffffff1916827bffffffffffffffffffffffffffffffffffffffffffffffffffffffff1916145b80610a7757507f4e2312e0000000000000000000000000000000000000000000000000000000007bffffffffffffffffffffffffffffffffffffffffffffffffffffffff1916827bffffffffffffffffffffffffffffffffffffffffffffffffffffffff1916145b80610a875750610a8682611881565b5b9050919050565b600061b2fa905090565b600080610b1b610b137fb3b3f3b703cd84ce352197dcff232b1b5d3cfb2025ce47cf04742d0651f1af888c8c8c8c604051610ad4929190613c0a565b60405180910390208b80519060200120604051602001610af8959493929190613c32565b604051602081830303815290604052805190602001206118eb565b868686611905565b9050610b6e8a828b8b8b8080601f016020809104026020016040519081016040528093929190818152602001838380828437600081840152601f19601f820116905080830192505050505050508a611930565b91505098975050505050505050565b610b85610921565b73ffffffffffffffffffffffffffffffffffffffff16610ba3611aec565b73ffffffffffffffffffffffffffffffffffffffff1614610bf9576040517f08c379a0000000000000000000000000000000000000000000000000000000008152600401610bf090613cd1565b60405180910390fd5b3073ffffffffffffffffffffffffffffffffffffffff16610c18610921565b73ffffffffffffffffffffffffffffffffffffffff1614610c68576000610c3d611af4565b604051610c4b929190613c0a565b604051809103902090505b80610c616002611b01565b03610c5657505b610c7181611bdd565b50565b606060008054610c8390613d20565b80601f0160208091040260200160405190810160405280929190818152602001828054610caf90613d20565b8015610cfc5780601f10610cd157610100808354040283529160200191610cfc565b820191906000526020600020905b815481529060010190602001808311610cdf57829003601f168201915b5050505050905090565b600063150b7a0260e01b9050949350505050565b600080610d298686868661177d565b90506000610d3682610f8d565b905060046007811115610d4c57610d4b6134a8565b5b816007811115610d5f57610d5e6134a8565b5b1480610d8f575060056007811115610d7a57610d796134a8565b5b816007811115610d8d57610d8c6134a8565b5b145b610dce576040517f08c379a0000000000000000000000000000000000000000000000000000000008152600401610dc590613dc3565b60405180910390fd5b600180600084815260200190815260200160002060020160006101000a81548160ff0219169083151502179055507f712ae1383f79ac853f8d882153778e0260ef8f03b504e2866e0593e04d2b291f82604051610e2b9190612bce565b60405180910390a1610e408288888888611c72565b610e4d8288888888611d55565b610e5a8288888888611e64565b8192505050949350505050565b6000610ec4600160008481526020019081526020016000206000016040518060200160405290816000820160009054906101000a900467ffffffffffffffff1667ffffffffffffffff1667ffffffffffffffff1681525050611ebf565b67ffffffffffffffff169050919050565b7fb3b3f3b703cd84ce352197dcff232b1b5d3cfb2025ce47cf04742d0651f1af8881565b60006119aa905090565b600080610f64610f5c7f150214d74d59b7d1e90c73fc22ef3d991dd0a76b046543d4d80ab92d2a50328f8989604051602001610f4193929190613de3565b604051602081830303815290604052805190602001206118eb565b868686611905565b9050610f8187828860405180602001604052806000815250611ecd565b91505095945050505050565b6000806001600084815260200190815260200160002090508060020160009054906101000a900460ff1615610fc657600791505061109c565b8060020160019054906101000a900460ff1615610fe757600291505061109c565b6000610ff284610e67565b905060008103611037576040517f08c379a000000000000000000000000000000000000000000000000000000000815260040161102e90613e66565b60405180910390fd5b4381106110495760009250505061109c565b6000611054856115ce565b9050438110611069576001935050505061109c565b61107285611eed565b8015611083575061108285611f34565b5b15611094576004935050505061109c565b600393505050505b919050565b60006004600084815260200190815260200160002060030160008373ffffffffffffffffffffffffffffffffffffffff1673ffffffffffffffffffffffffffffffffffffffff16815260200190815260200160002060009054906101000a900460ff16905092915050565b600080600080600460008681526020019081526020016000209050806000015481600101548260020154935093509350509193909250565b60606040518060400160405280600181526020017f3100000000000000000000000000000000000000000000000000000000000000815250905090565b60008061118c611aec565b90506111a984828560405180602001604052806000815250611ecd565b91505092915050565b6000806111bd611aec565b905061121087828888888080601f016020809104026020016040519081016040528093929190818152602001838380828437600081840152601f19601f8201169050808301925050505050505087611930565b91505095945050505050565b600080611227611aec565b905061127986828787878080601f016020809104026020016040519081016040528093929190818152602001838380828437600081840152601f19601f82011690508083019250505050505050611ecd565b915050949350505050565b600061128e6115b4565b6112ab611299611aec565b6001436112a69190613eb5565b61181a565b10156112ec576040517f08c379a00000000000000000000000000000000000000000000000000000000081526004016112e390613f5b565b60405180910390fd5b6000611301868686868051906020012061177d565b90508451865114611347576040517f08c379a000000000000000000000000000000000000000000000000000000000815260040161133e90613fed565b60405180910390fd5b835186511461138b576040517f08c379a000000000000000000000000000000000000000000000000000000000815260040161138290613fed565b60405180910390fd5b60008651116113cf576040517f08c379a00000000000000000000000000000000000000000000000000000000081526004016113c690614059565b60405180910390fd5b600060016000838152602001908152602001600020905061142f816000016040518060200160405290816000820160009054906101000a900467ffffffffffffffff1667ffffffffffffffff1667ffffffffffffffff1681525050611f5f565b61146e576040517f08c379a0000000000000000000000000000000000000000000000000000000008152600401611465906140eb565b60405180910390fd5b600061148061147b610ef9565b611f79565b61148943611f79565b611493919061411f565b905060006114a76114a2610a8e565b611f79565b826114b2919061411f565b90506114ca8284600001611fd090919063ffffffff16565b6114e08184600101611fd090919063ffffffff16565b7f7d84a6263ae0d98d3329bd7b46bb4e8d6f98cd35a7adb45c274c8b7fd5ebd5e08461150a611aec565b8b8b8d5167ffffffffffffffff81111561152757611526612cc9565b5b60405190808252806020026020018201604052801561155a57816020015b60608152602001906001900390816115455790505b508c88888e6040516115749998979695949392919061453a565b60405180910390a183945050505050949350505050565b60006064905090565b60006115a1848484611fff565b90509392505050565b6000600554905090565b600090565b600063bc197c8160e01b905095945050505050565b600061162b600160008481526020019081526020016000206001016040518060200160405290816000820160009054906101000a900467ffffffffffffffff1667ffffffffffffffff1667ffffffffffffffff1681525050611ebf565b67ffffffffffffffff169050919050565b611644610921565b73ffffffffffffffffffffffffffffffffffffffff16611662611aec565b73ffffffffffffffffffffffffffffffffffffffff16146116b8576040517f08c379a00000000000000000000000000000000000000000000000000000000081526004016116af90613cd1565b60405180910390fd5b3073ffffffffffffffffffffffffffffffffffffffff166116d7610921565b73ffffffffffffffffffffffffffffffffffffffff16146117275760006116fc611af4565b60405161170a929190613c0a565b604051809103902090505b806117206002611b01565b0361171557505b6117768483838080601f016020809104026020016040519081016040528093929190818152602001838380828437600081840152601f19601f82011690508083019250505050505050856120a6565b5050505050565b60008484848460405160200161179694939291906145ea565b6040516020818303038152906040528051906020012060001c9050949350505050565b60606040518060400160405280602081526020017f737570706f72743d627261766f2671756f72756d3d666f722c6162737461696e815250905090565b7f150214d74d59b7d1e90c73fc22ef3d991dd0a76b046543d4d80ab92d2a50328f81565b600061182e83836118296120d5565b611fff565b905092915050565b600063f23a6e6160e01b905095945050505050565b6000611856826120ec565b9050919050565b7f000000000000000000000000000000000000000000000000000000000000000081565b60007f01ffc9a7000000000000000000000000000000000000000000000000000000007bffffffffffffffffffffffffffffffffffffffffffffffffffffffff1916827bffffffffffffffffffffffffffffffffffffffffffffffffffffffff1916149050919050565b60006118fe6118f86121b3565b836122cd565b9050919050565b600080600061191687878787612300565b915091506119238161240c565b8192505050949350505050565b6000806001600088815260200190815260200160002090506001600781111561195c5761195b6134a8565b5b61196588610f8d565b6007811115611977576119766134a8565b5b146119b7576040517f08c379a00000000000000000000000000000000000000000000000000000000081526004016119ae906146b6565b60405180910390fd5b6000611a1687611a06846000016040518060200160405290816000820160009054906101000a900467ffffffffffffffff1667ffffffffffffffff1667ffffffffffffffff1681525050611ebf565b67ffffffffffffffff1686611fff565b9050611a2588888884886125d8565b6000845103611a87578673ffffffffffffffffffffffffffffffffffffffff167fb8e138887d0aa13bab447e82de9d5c1777041ecd21ca36ba824ff1e6c07ddda489888489604051611a7a94939291906146d6565b60405180910390a2611ade565b8673ffffffffffffffffffffffffffffffffffffffff167fe2babfbac5889a709b63bb7f598b324e08bc5a4fb9ec647fb3cbc9ec07eb87128988848989604051611ad595949392919061476c565b60405180910390a25b809250505095945050505050565b600033905090565b3660008036915091509091565b6000611b0c826127dc565b15611b43576040517f3db2a12a00000000000000000000000000000000000000000000000000000000815260040160405180910390fd5b60008260000160009054906101000a9004600f0b905082600101600082600f0b600f0b815260200190815260200160002054915082600101600082600f0b600f0b815260200190815260200160002060009055600181018360000160006101000a8154816fffffffffffffffffffffffffffffffff0219169083600f0b6fffffffffffffffffffffffffffffffff16021790555050919050565b611be561158b565b811115611c27576040517f08c379a0000000000000000000000000000000000000000000000000000000008152600401611c1e90614865565b60405180910390fd5b60006005549050816005819055507f0553476bf02ef2726e8ce5ced78d63e26e602e4a2257b1f559418e24b46339978183604051611c66929190614885565b60405180910390a15050565b3073ffffffffffffffffffffffffffffffffffffffff16611c91610921565b73ffffffffffffffffffffffffffffffffffffffff1614611d4e5760005b8451811015611d4c573073ffffffffffffffffffffffffffffffffffffffff16858281518110611ce257611ce16148ae565b5b602002602001015173ffffffffffffffffffffffffffffffffffffffff1603611d3b57611d3a838281518110611d1b57611d1a6148ae565b5b602002602001015180519060200120600261281190919063ffffffff16565b5b80611d45906148dd565b9050611caf565b505b5050505050565b60006040518060600160405280602781526020016150be60279139905060005b8551811015611e5b57600080878381518110611d9457611d936148ae565b5b602002602001015173ffffffffffffffffffffffffffffffffffffffff16878481518110611dc557611dc46148ae565b5b6020026020010151878581518110611de057611ddf6148ae565b5b6020026020010151604051611df59190614956565b60006040518083038185875af1925050503d8060008114611e32576040519150601f19603f3d011682016040523d82523d6000602084013e611e37565b606091505b5091509150611e4782828661288d565b50505080611e54906148dd565b9050611d75565b50505050505050565b3073ffffffffffffffffffffffffffffffffffffffff16611e83610921565b73ffffffffffffffffffffffffffffffffffffffff1614611eb857611ea860026127dc565b611eb757611eb660026128f4565b5b5b5050505050565b600081600001519050919050565b6000611ee385858585611ede6120d5565b611930565b9050949350505050565b60008060046000848152602001908152602001600020905080600201548160010154611f19919061496d565b611f2a611f2585610e67565b61184b565b1115915050919050565b6000806004600084815260200190815260200160002090508060000154816001015411915050919050565b600080826000015167ffffffffffffffff16149050919050565b600067ffffffffffffffff8016821115611fc8576040517f08c379a0000000000000000000000000000000000000000000000000000000008152600401611fbf90614a13565b60405180910390fd5b819050919050565b808260000160006101000a81548167ffffffffffffffff021916908367ffffffffffffffff1602179055505050565b60007f000000000000000000000000000000000000000000000000000000000000000073ffffffffffffffffffffffffffffffffffffffff16633a46b1a885856040518363ffffffff1660e01b815260040161205c929190614a33565b602060405180830381865afa158015612079573d6000803e3d6000fd5b505050506040513d601f19601f8201168201806040525081019061209d9190614a71565b90509392505050565b60606120cc8484846040518060600160405280602981526020016150e560299139612975565b90509392505050565b606060405180602001604052806000815250905090565b60006120f661158b565b6120fe6115aa565b7f000000000000000000000000000000000000000000000000000000000000000073ffffffffffffffffffffffffffffffffffffffff16638e539e8c856040518263ffffffff1660e01b81526004016121579190612bce565b602060405180830381865afa158015612174573d6000803e3d6000fd5b505050506040513d601f19601f820116820180604052508101906121989190614a71565b6121a29190614a9e565b6121ac9190614b27565b9050919050565b60007f000000000000000000000000000000000000000000000000000000000000000073ffffffffffffffffffffffffffffffffffffffff163073ffffffffffffffffffffffffffffffffffffffff1614801561222f57507f000000000000000000000000000000000000000000000000000000000000000046145b1561225c577f000000000000000000000000000000000000000000000000000000000000000090506122ca565b6122c77f00000000000000000000000000000000000000000000000000000000000000007f00000000000000000000000000000000000000000000000000000000000000007f0000000000000000000000000000000000000000000000000000000000000000612a89565b90505b90565b600082826040516020016122e2929190614bd0565b60405160208183030381529060405280519060200120905092915050565b6000807f7fffffffffffffffffffffffffffffff5d576e7357a4501ddfe92f46681b20a08360001c111561233b576000600391509150612403565b601b8560ff16141580156123535750601c8560ff1614155b15612365576000600491509150612403565b60006001878787876040516000815260200160405260405161238a9493929190614c07565b6020604051602081039080840390855afa1580156123ac573d6000803e3d6000fd5b505050602060405103519050600073ffffffffffffffffffffffffffffffffffffffff168173ffffffffffffffffffffffffffffffffffffffff16036123fa57600060019250925050612403565b80600092509250505b94509492505050565b600060048111156124205761241f6134a8565b5b816004811115612433576124326134a8565b5b03156125d5576001600481111561244d5761244c6134a8565b5b8160048111156124605761245f6134a8565b5b036124a0576040517f08c379a000000000000000000000000000000000000000000000000000000000815260040161249790614c98565b60405180910390fd5b600260048111156124b4576124b36134a8565b5b8160048111156124c7576124c66134a8565b5b03612507576040517f08c379a00000000000000000000000000000000000000000000000000000000081526004016124fe90614d04565b60405180910390fd5b6003600481111561251b5761251a6134a8565b5b81600481111561252e5761252d6134a8565b5b0361256e576040517f08c379a000000000000000000000000000000000000000000000000000000000815260040161256590614d96565b60405180910390fd5b600480811115612581576125806134a8565b5b816004811115612594576125936134a8565b5b036125d4576040517f08c379a00000000000000000000000000000000000000000000000000000000081526004016125cb90614e28565b60405180910390fd5b5b50565b60006004600087815260200190815260200160002090508060030160008673ffffffffffffffffffffffffffffffffffffffff1673ffffffffffffffffffffffffffffffffffffffff16815260200190815260200160002060009054906101000a900460ff161561267e576040517f08c379a000000000000000000000000000000000000000000000000000000000815260040161267590614eba565b60405180910390fd5b60018160030160008773ffffffffffffffffffffffffffffffffffffffff1673ffffffffffffffffffffffffffffffffffffffff16815260200190815260200160002060006101000a81548160ff021916908315150217905550600060028111156126ec576126eb6134a8565b5b60ff168460ff1603612718578281600001600082825461270c919061496d565b925050819055506127d4565b6001600281111561272c5761272b6134a8565b5b60ff168460ff1603612758578281600101600082825461274c919061496d565b925050819055506127d3565b60028081111561276b5761276a6134a8565b5b60ff168460ff1603612797578281600201600082825461278b919061496d565b925050819055506127d2565b6040517f08c379a00000000000000000000000000000000000000000000000000000000081526004016127c990614f4c565b60405180910390fd5b5b5b505050505050565b60008160000160009054906101000a9004600f0b600f0b8260000160109054906101000a9004600f0b600f0b13159050919050565b60008260000160109054906101000a9004600f0b90508183600101600083600f0b600f0b815260200190815260200160002081905550600181018360000160106101000a8154816fffffffffffffffffffffffffffffffff0219169083600f0b6fffffffffffffffffffffffffffffffff160217905550505050565b6060831561289d578290506128ed565b6000835111156128b05782518084602001fd5b816040517f08c379a00000000000000000000000000000000000000000000000000000000081526004016128e49190612fb4565b60405180910390fd5b9392505050565b60008160000160006101000a8154816fffffffffffffffffffffffffffffffff0219169083600f0b6fffffffffffffffffffffffffffffffff16021790555060008160000160106101000a8154816fffffffffffffffffffffffffffffffff0219169083600f0b6fffffffffffffffffffffffffffffffff16021790555050565b6060824710156129ba576040517f08c379a00000000000000000000000000000000000000000000000000000000081526004016129b190614fde565b60405180910390fd5b6129c385612ac3565b612a02576040517f08c379a00000000000000000000000000000000000000000000000000000000081526004016129f99061504a565b60405180910390fd5b6000808673ffffffffffffffffffffffffffffffffffffffff168587604051612a2b9190614956565b60006040518083038185875af1925050503d8060008114612a68576040519150601f19603f3d011682016040523d82523d6000602084013e612a6d565b606091505b5091509150612a7d82828661288d565b92505050949350505050565b60008383834630604051602001612aa495949392919061506a565b6040516020818303038152906040528051906020012090509392505050565b6000808273ffffffffffffffffffffffffffffffffffffffff163b119050919050565b6000604051905090565b600080fd5b600080fd5b60007fffffffff0000000000000000000000000000000000000000000000000000000082169050919050565b612b2f81612afa565b8114612b3a57600080fd5b50565b600081359050612b4c81612b26565b92915050565b600060208284031215612b6857612b67612af0565b5b6000612b7684828501612b3d565b91505092915050565b60008115159050919050565b612b9481612b7f565b82525050565b6000602082019050612baf6000830184612b8b565b92915050565b6000819050919050565b612bc881612bb5565b82525050565b6000602082019050612be36000830184612bbf565b92915050565b612bf281612bb5565b8114612bfd57600080fd5b50565b600081359050612c0f81612be9565b92915050565b600060ff82169050919050565b612c2b81612c15565b8114612c3657600080fd5b50565b600081359050612c4881612c22565b92915050565b600080fd5b600080fd5b600080fd5b60008083601f840112612c7357612c72612c4e565b5b8235905067ffffffffffffffff811115612c9057612c8f612c53565b5b602083019150836001820283011115612cac57612cab612c58565b5b9250929050565b600080fd5b6000601f19601f8301169050919050565b7f4e487b7100000000000000000000000000000000000000000000000000000000600052604160045260246000fd5b612d0182612cb8565b810181811067ffffffffffffffff82111715612d2057612d1f612cc9565b5b80604052505050565b6000612d33612ae6565b9050612d3f8282612cf8565b919050565b600067ffffffffffffffff821115612d5f57612d5e612cc9565b5b612d6882612cb8565b9050602081019050919050565b82818337600083830152505050565b6000612d97612d9284612d44565b612d29565b905082815260208101848484011115612db357612db2612cb3565b5b612dbe848285612d75565b509392505050565b600082601f830112612ddb57612dda612c4e565b5b8135612deb848260208601612d84565b91505092915050565b6000819050919050565b612e0781612df4565b8114612e1257600080fd5b50565b600081359050612e2481612dfe565b92915050565b60008060008060008060008060e0898b031215612e4a57612e49612af0565b5b6000612e588b828c01612c00565b9850506020612e698b828c01612c39565b975050604089013567ffffffffffffffff811115612e8a57612e89612af5565b5b612e968b828c01612c5d565b9650965050606089013567ffffffffffffffff811115612eb957612eb8612af5565b5b612ec58b828c01612dc6565b9450506080612ed68b828c01612c39565b93505060a0612ee78b828c01612e15565b92505060c0612ef88b828c01612e15565b9150509295985092959890939650565b600060208284031215612f1e57612f1d612af0565b5b6000612f2c84828501612c00565b91505092915050565b600081519050919050565b600082825260208201905092915050565b60005b83811015612f6f578082015181840152602081019050612f54565b60008484015250505050565b6000612f8682612f35565b612f908185612f40565b9350612fa0818560208601612f51565b612fa981612cb8565b840191505092915050565b60006020820190508181036000830152612fce8184612f7b565b905092915050565b600073ffffffffffffffffffffffffffffffffffffffff82169050919050565b600061300182612fd6565b9050919050565b61301181612ff6565b811461301c57600080fd5b50565b60008135905061302e81613008565b92915050565b6000806000806080858703121561304e5761304d612af0565b5b600061305c8782880161301f565b945050602061306d8782880161301f565b935050604061307e87828801612c00565b925050606085013567ffffffffffffffff81111561309f5761309e612af5565b5b6130ab87828801612dc6565b91505092959194509250565b6130c081612afa565b82525050565b60006020820190506130db60008301846130b7565b92915050565b600067ffffffffffffffff8211156130fc576130fb612cc9565b5b602082029050602081019050919050565b600061312061311b846130e1565b612d29565b9050808382526020820190506020840283018581111561314357613142612c58565b5b835b8181101561316c5780613158888261301f565b845260208401935050602081019050613145565b5050509392505050565b600082601f83011261318b5761318a612c4e565b5b813561319b84826020860161310d565b91505092915050565b600067ffffffffffffffff8211156131bf576131be612cc9565b5b602082029050602081019050919050565b60006131e36131de846131a4565b612d29565b9050808382526020820190506020840283018581111561320657613205612c58565b5b835b8181101561322f578061321b8882612c00565b845260208401935050602081019050613208565b5050509392505050565b600082601f83011261324e5761324d612c4e565b5b813561325e8482602086016131d0565b91505092915050565b600067ffffffffffffffff82111561328257613281612cc9565b5b602082029050602081019050919050565b60006132a66132a184613267565b612d29565b905080838252602082019050602084028301858111156132c9576132c8612c58565b5b835b8181101561331057803567ffffffffffffffff8111156132ee576132ed612c4e565b5b8086016132fb8982612dc6565b855260208501945050506020810190506132cb565b5050509392505050565b600082601f83011261332f5761332e612c4e565b5b813561333f848260208601613293565b91505092915050565b6000806000806080858703121561336257613361612af0565b5b600085013567ffffffffffffffff8111156133805761337f612af5565b5b61338c87828801613176565b945050602085013567ffffffffffffffff8111156133ad576133ac612af5565b5b6133b987828801613239565b935050604085013567ffffffffffffffff8111156133da576133d9612af5565b5b6133e68782880161331a565b92505060606133f787828801612e15565b91505092959194509250565b61340c81612df4565b82525050565b60006020820190506134276000830184613403565b92915050565b600080600080600060a0868803121561344957613448612af0565b5b600061345788828901612c00565b955050602061346888828901612c39565b945050604061347988828901612c39565b935050606061348a88828901612e15565b925050608061349b88828901612e15565b9150509295509295909350565b7f4e487b7100000000000000000000000000000000000000000000000000000000600052602160045260246000fd5b600881106134e8576134e76134a8565b5b50565b60008190506134f9826134d7565b919050565b6000613509826134eb565b9050919050565b613519816134fe565b82525050565b60006020820190506135346000830184613510565b92915050565b6000806040838503121561355157613550612af0565b5b600061355f85828601612c00565b92505060206135708582860161301f565b9150509250929050565b600060608201905061358f6000830186612bbf565b61359c6020830185612bbf565b6135a96040830184612bbf565b949350505050565b600080604083850312156135c8576135c7612af0565b5b60006135d685828601612c00565b92505060206135e785828601612c39565b9150509250929050565b60008060008060006080868803121561360d5761360c612af0565b5b600061361b88828901612c00565b955050602061362c88828901612c39565b945050604086013567ffffffffffffffff81111561364d5761364c612af5565b5b61365988828901612c5d565b9350935050606086013567ffffffffffffffff81111561367c5761367b612af5565b5b61368888828901612dc6565b9150509295509295909350565b600080600080606085870312156136af576136ae612af0565b5b60006136bd87828801612c00565b94505060206136ce87828801612c39565b935050604085013567ffffffffffffffff8111156136ef576136ee612af5565b5b6136fb87828801612c5d565b925092505092959194509250565b600067ffffffffffffffff82111561372457613723612cc9565b5b61372d82612cb8565b9050602081019050919050565b600061374d61374884613709565b612d29565b90508281526020810184848401111561376957613768612cb3565b5b613774848285612d75565b509392505050565b600082601f83011261379157613790612c4e565b5b81356137a184826020860161373a565b91505092915050565b600080600080608085870312156137c4576137c3612af0565b5b600085013567ffffffffffffffff8111156137e2576137e1612af5565b5b6137ee87828801613176565b945050602085013567ffffffffffffffff81111561380f5761380e612af5565b5b61381b87828801613239565b935050604085013567ffffffffffffffff81111561383c5761383b612af5565b5b6138488782880161331a565b925050606085013567ffffffffffffffff81111561386957613868612af5565b5b6138758782880161377c565b91505092959194509250565b60008060006060848603121561389a57613899612af0565b5b60006138a88682870161301f565b93505060206138b986828701612c00565b925050604084013567ffffffffffffffff8111156138da576138d9612af5565b5b6138e686828701612dc6565b9150509250925092565b600080600080600060a0868803121561390c5761390b612af0565b5b600061391a8882890161301f565b955050602061392b8882890161301f565b945050604086013567ffffffffffffffff81111561394c5761394b612af5565b5b61395888828901613239565b935050606086013567ffffffffffffffff81111561397957613978612af5565b5b61398588828901613239565b925050608086013567ffffffffffffffff8111156139a6576139a5612af5565b5b6139b288828901612dc6565b9150509295509295909350565b60008083601f8401126139d5576139d4612c4e565b5b8235905067ffffffffffffffff8111156139f2576139f1612c53565b5b602083019150836001820283011115613a0e57613a0d612c58565b5b9250929050565b60008060008060608587031215613a2f57613a2e612af0565b5b6000613a3d8782880161301f565b9450506020613a4e87828801612c00565b935050604085013567ffffffffffffffff811115613a6f57613a6e612af5565b5b613a7b878288016139bf565b925092505092959194509250565b60008060408385031215613aa057613a9f612af0565b5b6000613aae8582860161301f565b9250506020613abf85828601612c00565b9150509250929050565b600080600080600060a08688031215613ae557613ae4612af0565b5b6000613af38882890161301f565b9550506020613b048882890161301f565b9450506040613b1588828901612c00565b9350506060613b2688828901612c00565b925050608086013567ffffffffffffffff811115613b4757613b46612af5565b5b613b5388828901612dc6565b9150509295509295909350565b6000819050919050565b6000613b85613b80613b7b84612fd6565b613b60565b612fd6565b9050919050565b6000613b9782613b6a565b9050919050565b6000613ba982613b8c565b9050919050565b613bb981613b9e565b82525050565b6000602082019050613bd46000830184613bb0565b92915050565b600081905092915050565b6000613bf18385613bda565b9350613bfe838584612d75565b82840190509392505050565b6000613c17828486613be5565b91508190509392505050565b613c2c81612c15565b82525050565b600060a082019050613c476000830188613403565b613c546020830187612bbf565b613c616040830186613c23565b613c6e6060830185613403565b613c7b6080830184613403565b9695505050505050565b7f476f7665726e6f723a206f6e6c79476f7665726e616e63650000000000000000600082015250565b6000613cbb601883612f40565b9150613cc682613c85565b602082019050919050565b60006020820190508181036000830152613cea81613cae565b9050919050565b7f4e487b7100000000000000000000000000000000000000000000000000000000600052602260045260246000fd5b60006002820490506001821680613d3857607f821691505b602082108103613d4b57613d4a613cf1565b5b50919050565b7f476f7665726e6f723a2070726f706f73616c206e6f742073756363657373667560008201527f6c00000000000000000000000000000000000000000000000000000000000000602082015250565b6000613dad602183612f40565b9150613db882613d51565b604082019050919050565b60006020820190508181036000830152613ddc81613da0565b9050919050565b6000606082019050613df86000830186613403565b613e056020830185612bbf565b613e126040830184613c23565b949350505050565b7f476f7665726e6f723a20756e6b6e6f776e2070726f706f73616c206964000000600082015250565b6000613e50601d83612f40565b9150613e5b82613e1a565b602082019050919050565b60006020820190508181036000830152613e7f81613e43565b9050919050565b7f4e487b7100000000000000000000000000000000000000000000000000000000600052601160045260246000fd5b6000613ec082612bb5565b9150613ecb83612bb5565b9250828203905081811115613ee357613ee2613e86565b5b92915050565b7f476f7665726e6f723a2070726f706f73657220766f7465732062656c6f77207060008201527f726f706f73616c207468726573686f6c64000000000000000000000000000000602082015250565b6000613f45603183612f40565b9150613f5082613ee9565b604082019050919050565b60006020820190508181036000830152613f7481613f38565b9050919050565b7f476f7665726e6f723a20696e76616c69642070726f706f73616c206c656e677460008201527f6800000000000000000000000000000000000000000000000000000000000000602082015250565b6000613fd7602183612f40565b9150613fe282613f7b565b604082019050919050565b6000602082019050818103600083015261400681613fca565b9050919050565b7f476f7665726e6f723a20656d7074792070726f706f73616c0000000000000000600082015250565b6000614043601883612f40565b915061404e8261400d565b602082019050919050565b6000602082019050818103600083015261407281614036565b9050919050565b7f476f7665726e6f723a2070726f706f73616c20616c726561647920657869737460008201527f7300000000000000000000000000000000000000000000000000000000000000602082015250565b60006140d5602183612f40565b91506140e082614079565b604082019050919050565b60006020820190508181036000830152614104816140c8565b9050919050565b600067ffffffffffffffff82169050919050565b600061412a8261410b565b91506141358361410b565b9250828201905067ffffffffffffffff81111561415557614154613e86565b5b92915050565b61416481612ff6565b82525050565b600081519050919050565b600082825260208201905092915050565b6000819050602082019050919050565b61419f81612ff6565b82525050565b60006141b18383614196565b60208301905092915050565b6000602082019050919050565b60006141d58261416a565b6141df8185614175565b93506141ea83614186565b8060005b8381101561421b57815161420288826141a5565b975061420d836141bd565b9250506001810190506141ee565b5085935050505092915050565b600081519050919050565b600082825260208201905092915050565b6000819050602082019050919050565b61425d81612bb5565b82525050565b600061426f8383614254565b60208301905092915050565b6000602082019050919050565b600061429382614228565b61429d8185614233565b93506142a883614244565b8060005b838110156142d95781516142c08882614263565b97506142cb8361427b565b9250506001810190506142ac565b5085935050505092915050565b600081519050919050565b600082825260208201905092915050565b6000819050602082019050919050565b600082825260208201905092915050565b600061432e82612f35565b6143388185614312565b9350614348818560208601612f51565b61435181612cb8565b840191505092915050565b60006143688383614323565b905092915050565b6000602082019050919050565b6000614388826142e6565b61439281856142f1565b9350836020820285016143a485614302565b8060005b858110156143e057848403895281516143c1858261435c565b94506143cc83614370565b925060208a019950506001810190506143a8565b50829750879550505050505092915050565b600081519050919050565b600082825260208201905092915050565b6000819050602082019050919050565b600081519050919050565b600082825260208201905092915050565b60006144458261441e565b61444f8185614429565b935061445f818560208601612f51565b61446881612cb8565b840191505092915050565b600061447f838361443a565b905092915050565b6000602082019050919050565b600061449f826143f2565b6144a981856143fd565b9350836020820285016144bb8561440e565b8060005b858110156144f757848403895281516144d88582614473565b94506144e383614487565b925060208a019950506001810190506144bf565b50829750879550505050505092915050565b600061452461451f61451a8461410b565b613b60565b612bb5565b9050919050565b61453481614509565b82525050565b600061012082019050614550600083018c612bbf565b61455d602083018b61415b565b818103604083015261456f818a6141ca565b905081810360608301526145838189614288565b90508181036080830152614597818861437d565b905081810360a08301526145ab8187614494565b90506145ba60c083018661452b565b6145c760e083018561452b565b8181036101008301526145da8184612f7b565b90509a9950505050505050505050565b6000608082019050818103600083015261460481876141ca565b905081810360208301526146188186614288565b9050818103604083015261462c8185614494565b905061463b6060830184613403565b95945050505050565b7f476f7665726e6f723a20766f7465206e6f742063757272656e746c792061637460008201527f6976650000000000000000000000000000000000000000000000000000000000602082015250565b60006146a0602383612f40565b91506146ab82614644565b604082019050919050565b600060208201905081810360008301526146cf81614693565b9050919050565b60006080820190506146eb6000830187612bbf565b6146f86020830186613c23565b6147056040830185612bbf565b81810360608301526147178184612f7b565b905095945050505050565b600082825260208201905092915050565b600061473e8261441e565b6147488185614722565b9350614758818560208601612f51565b61476181612cb8565b840191505092915050565b600060a0820190506147816000830188612bbf565b61478e6020830187613c23565b61479b6040830186612bbf565b81810360608301526147ad8185612f7b565b905081810360808301526147c18184614733565b90509695505050505050565b7f476f7665726e6f72566f74657351756f72756d4672616374696f6e3a2071756f60008201527f72756d4e756d657261746f72206f7665722071756f72756d44656e6f6d696e6160208201527f746f720000000000000000000000000000000000000000000000000000000000604082015250565b600061484f604383612f40565b915061485a826147cd565b606082019050919050565b6000602082019050818103600083015261487e81614842565b9050919050565b600060408201905061489a6000830185612bbf565b6148a76020830184612bbf565b9392505050565b7f4e487b7100000000000000000000000000000000000000000000000000000000600052603260045260246000fd5b60006148e882612bb5565b91507fffffffffffffffffffffffffffffffffffffffffffffffffffffffffffffffff820361491a57614919613e86565b5b600182019050919050565b60006149308261441e565b61493a8185613bda565b935061494a818560208601612f51565b80840191505092915050565b60006149628284614925565b915081905092915050565b600061497882612bb5565b915061498383612bb5565b925082820190508082111561499b5761499a613e86565b5b92915050565b7f53616665436173743a2076616c756520646f65736e27742066697420696e203660008201527f3420626974730000000000000000000000000000000000000000000000000000602082015250565b60006149fd602683612f40565b9150614a08826149a1565b604082019050919050565b60006020820190508181036000830152614a2c816149f0565b9050919050565b6000604082019050614a48600083018561415b565b614a556020830184612bbf565b9392505050565b600081519050614a6b81612be9565b92915050565b600060208284031215614a8757614a86612af0565b5b6000614a9584828501614a5c565b91505092915050565b6000614aa982612bb5565b9150614ab483612bb5565b9250817fffffffffffffffffffffffffffffffffffffffffffffffffffffffffffffffff0483118215151615614aed57614aec613e86565b5b828202905092915050565b7f4e487b7100000000000000000000000000000000000000000000000000000000600052601260045260246000fd5b6000614b3282612bb5565b9150614b3d83612bb5565b925082614b4d57614b4c614af8565b5b828204905092915050565b600081905092915050565b7f1901000000000000000000000000000000000000000000000000000000000000600082015250565b6000614b99600283614b58565b9150614ba482614b63565b600282019050919050565b6000819050919050565b614bca614bc582612df4565b614baf565b82525050565b6000614bdb82614b8c565b9150614be78285614bb9565b602082019150614bf78284614bb9565b6020820191508190509392505050565b6000608082019050614c1c6000830187613403565b614c296020830186613c23565b614c366040830185613403565b614c436060830184613403565b95945050505050565b7f45434453413a20696e76616c6964207369676e61747572650000000000000000600082015250565b6000614c82601883612f40565b9150614c8d82614c4c565b602082019050919050565b60006020820190508181036000830152614cb181614c75565b9050919050565b7f45434453413a20696e76616c6964207369676e6174757265206c656e67746800600082015250565b6000614cee601f83612f40565b9150614cf982614cb8565b602082019050919050565b60006020820190508181036000830152614d1d81614ce1565b9050919050565b7f45434453413a20696e76616c6964207369676e6174757265202773272076616c60008201527f7565000000000000000000000000000000000000000000000000000000000000602082015250565b6000614d80602283612f40565b9150614d8b82614d24565b604082019050919050565b60006020820190508181036000830152614daf81614d73565b9050919050565b7f45434453413a20696e76616c6964207369676e6174757265202776272076616c60008201527f7565000000000000000000000000000000000000000000000000000000000000602082015250565b6000614e12602283612f40565b9150614e1d82614db6565b604082019050919050565b60006020820190508181036000830152614e4181614e05565b9050919050565b7f476f7665726e6f72566f74696e6753696d706c653a20766f746520616c72656160008201527f6479206361737400000000000000000000000000000000000000000000000000602082015250565b6000614ea4602783612f40565b9150614eaf82614e48565b604082019050919050565b60006020820190508181036000830152614ed381614e97565b9050919050565b7f476f7665726e6f72566f74696e6753696d706c653a20696e76616c696420766160008201527f6c756520666f7220656e756d20566f7465547970650000000000000000000000602082015250565b6000614f36603583612f40565b9150614f4182614eda565b604082019050919050565b60006020820190508181036000830152614f6581614f29565b9050919050565b7f416464726573733a20696e73756666696369656e742062616c616e636520666f60008201527f722063616c6c0000000000000000000000000000000000000000000000000000602082015250565b6000614fc8602683612f40565b9150614fd382614f6c565b604082019050919050565b60006020820190508181036000830152614ff781614fbb565b9050919050565b7f416464726573733a2063616c6c20746f206e6f6e2d636f6e7472616374000000600082015250565b6000615034601d83612f40565b915061503f82614ffe565b602082019050919050565b6000602082019050818103600083015261506381615027565b9050919050565b600060a08201905061507f6000830188613403565b61508c6020830187613403565b6150996040830186613403565b6150a66060830185612bbf565b6150b3608083018461415b565b969550505050505056fe476f7665726e6f723a2063616c6c20726576657274656420776974686f7574206d657373616765416464726573733a206c6f772d6c6576656c2063616c6c20776974682076616c7565206661696c6564a2646970667358221220ee2f689c97949cfd17b003a1464af7ef5cf16284022f73c67e969c9f3faa97ac64736f6c63430008100033a264697066735822122078eb21f6c26d46a9a283c47efb1700e3bf8b927d8c9ca04dbccc198fa02cfc9864736f6c63430008100033",
  "immutableReferences": {},
  "source": "// SPDX-License-Identifier: MIT\npragma solidity 0.8.16;\n\nimport \"@openzeppelin/contracts/utils/Create2.sol\";\nimport \"../governance/Govern.sol\";\n\ncontract PoolGovernorFactory {\n    event ProxyCreated(address poolGov, address pool);\n\n    function deploy(bytes32 salt, address _pool) external{\n        address _a = Create2.deploy( 0, salt, abi.encodePacked(type(Govern).creationCode, abi.encode(_pool)));\n        emit ProxyCreated(_a, _pool);\n        }\n}",
  "sourcePath": "/Users/mac/Documents/GitHub/moret/contracts/pools/PoolGovernorFactory.sol",
  "compiler": {
    "name": "solc",
    "version": "0.8.16+commit.07a7930e.Emscripten.clang"
  },
  "schemaVersion": "3.4.3",
  "updatedAt": "2022-11-11T00:46:02.722Z",
  "networkType": "ethereum",
  "devdoc": {
    "kind": "dev",
    "methods": {},
    "version": 1
  },
  "userdoc": {
    "kind": "user",
    "methods": {},
    "version": 1
  }
}