{
  "contractName": "VolatilityToken",
  "abi": [
    {
      "inputs": [
        {
          "internalType": "contract ERC20",
          "name": "_funding",
          "type": "address"
        },
        {
          "internalType": "address",
          "name": "_underlying",
          "type": "address"
        },
        {
          "internalType": "uint256",
          "name": "_tenor",
          "type": "uint256"
        },
        {
          "internalType": "string",
          "name": "_name",
          "type": "string"
        },
        {
          "internalType": "string",
          "name": "_symbol",
          "type": "string"
        },
        {
          "internalType": "address",
          "name": "_exchange",
          "type": "address"
        }
      ],
      "stateMutability": "nonpayable",
      "type": "constructor"
    },
    {
      "anonymous": false,
      "inputs": [
        {
          "indexed": true,
          "internalType": "address",
          "name": "owner",
          "type": "address"
        },
        {
          "indexed": true,
          "internalType": "address",
          "name": "spender",
          "type": "address"
        },
        {
          "indexed": false,
          "internalType": "uint256",
          "name": "value",
          "type": "uint256"
        }
      ],
      "name": "Approval",
      "type": "event"
    },
    {
      "anonymous": false,
      "inputs": [
        {
          "indexed": true,
          "internalType": "address",
          "name": "from",
          "type": "address"
        },
        {
          "indexed": true,
          "internalType": "address",
          "name": "to",
          "type": "address"
        },
        {
          "indexed": false,
          "internalType": "uint256",
          "name": "value",
          "type": "uint256"
        }
      ],
      "name": "Transfer",
      "type": "event"
    },
    {
      "inputs": [
        {
          "internalType": "address",
          "name": "owner",
          "type": "address"
        },
        {
          "internalType": "address",
          "name": "spender",
          "type": "address"
        }
      ],
      "name": "allowance",
      "outputs": [
        {
          "internalType": "uint256",
          "name": "",
          "type": "uint256"
        }
      ],
      "stateMutability": "view",
      "type": "function"
    },
    {
      "inputs": [
        {
          "internalType": "address",
          "name": "spender",
          "type": "address"
        },
        {
          "internalType": "uint256",
          "name": "amount",
          "type": "uint256"
        }
      ],
      "name": "approve",
      "outputs": [
        {
          "internalType": "bool",
          "name": "",
          "type": "bool"
        }
      ],
      "stateMutability": "nonpayable",
      "type": "function"
    },
    {
      "inputs": [
        {
          "internalType": "address",
          "name": "account",
          "type": "address"
        }
      ],
      "name": "balanceOf",
      "outputs": [
        {
          "internalType": "uint256",
          "name": "",
          "type": "uint256"
        }
      ],
      "stateMutability": "view",
      "type": "function"
    },
    {
      "inputs": [],
      "name": "decimals",
      "outputs": [
        {
          "internalType": "uint8",
          "name": "",
          "type": "uint8"
        }
      ],
      "stateMutability": "view",
      "type": "function"
    },
    {
      "inputs": [
        {
          "internalType": "address",
          "name": "spender",
          "type": "address"
        },
        {
          "internalType": "uint256",
          "name": "subtractedValue",
          "type": "uint256"
        }
      ],
      "name": "decreaseAllowance",
      "outputs": [
        {
          "internalType": "bool",
          "name": "",
          "type": "bool"
        }
      ],
      "stateMutability": "nonpayable",
      "type": "function"
    },
    {
      "inputs": [],
      "name": "exchange",
      "outputs": [
        {
          "internalType": "address",
          "name": "",
          "type": "address"
        }
      ],
      "stateMutability": "view",
      "type": "function"
    },
    {
      "inputs": [],
      "name": "funding",
      "outputs": [
        {
          "internalType": "contract ERC20",
          "name": "",
          "type": "address"
        }
      ],
      "stateMutability": "view",
      "type": "function"
    },
    {
      "inputs": [
        {
          "internalType": "address",
          "name": "spender",
          "type": "address"
        },
        {
          "internalType": "uint256",
          "name": "addedValue",
          "type": "uint256"
        }
      ],
      "name": "increaseAllowance",
      "outputs": [
        {
          "internalType": "bool",
          "name": "",
          "type": "bool"
        }
      ],
      "stateMutability": "nonpayable",
      "type": "function"
    },
    {
      "inputs": [],
      "name": "name",
      "outputs": [
        {
          "internalType": "string",
          "name": "",
          "type": "string"
        }
      ],
      "stateMutability": "view",
      "type": "function"
    },
    {
      "inputs": [],
      "name": "symbol",
      "outputs": [
        {
          "internalType": "string",
          "name": "",
          "type": "string"
        }
      ],
      "stateMutability": "view",
      "type": "function"
    },
    {
      "inputs": [],
      "name": "tenor",
      "outputs": [
        {
          "internalType": "uint256",
          "name": "",
          "type": "uint256"
        }
      ],
      "stateMutability": "view",
      "type": "function"
    },
    {
      "inputs": [],
      "name": "totalSupply",
      "outputs": [
        {
          "internalType": "uint256",
          "name": "",
          "type": "uint256"
        }
      ],
      "stateMutability": "view",
      "type": "function"
    },
    {
      "inputs": [
        {
          "internalType": "address",
          "name": "to",
          "type": "address"
        },
        {
          "internalType": "uint256",
          "name": "amount",
          "type": "uint256"
        }
      ],
      "name": "transfer",
      "outputs": [
        {
          "internalType": "bool",
          "name": "",
          "type": "bool"
        }
      ],
      "stateMutability": "nonpayable",
      "type": "function"
    },
    {
      "inputs": [
        {
          "internalType": "address",
          "name": "from",
          "type": "address"
        },
        {
          "internalType": "address",
          "name": "to",
          "type": "address"
        },
        {
          "internalType": "uint256",
          "name": "amount",
          "type": "uint256"
        }
      ],
      "name": "transferFrom",
      "outputs": [
        {
          "internalType": "bool",
          "name": "",
          "type": "bool"
        }
      ],
      "stateMutability": "nonpayable",
      "type": "function"
    },
    {
      "inputs": [],
      "name": "underlying",
      "outputs": [
        {
          "internalType": "address",
          "name": "",
          "type": "address"
        }
      ],
      "stateMutability": "view",
      "type": "function"
    },
    {
      "inputs": [
        {
          "internalType": "uint256",
          "name": "_premium",
          "type": "uint256"
        },
        {
          "internalType": "uint256",
          "name": "_vol",
          "type": "uint256"
        }
      ],
      "name": "getMintAmount",
      "outputs": [
        {
          "internalType": "uint256",
          "name": "_mintAmount",
          "type": "uint256"
        },
        {
          "internalType": "uint256",
          "name": "_volPrice",
          "type": "uint256"
        }
      ],
      "stateMutability": "view",
      "type": "function"
    },
    {
      "inputs": [
        {
          "internalType": "uint256",
          "name": "_premium",
          "type": "uint256"
        },
        {
          "internalType": "uint256",
          "name": "_vol",
          "type": "uint256"
        }
      ],
      "name": "getBurnAmount",
      "outputs": [
        {
          "internalType": "uint256",
          "name": "_burnAmount",
          "type": "uint256"
        },
        {
          "internalType": "uint256",
          "name": "_volPrice",
          "type": "uint256"
        }
      ],
      "stateMutability": "view",
      "type": "function"
    },
    {
      "inputs": [
        {
          "internalType": "address",
          "name": "_account",
          "type": "address"
        },
        {
          "internalType": "uint256",
          "name": "_amount",
          "type": "uint256"
        }
      ],
      "name": "mint",
      "outputs": [],
      "stateMutability": "nonpayable",
      "type": "function"
    },
    {
      "inputs": [
        {
          "internalType": "address",
          "name": "_account",
          "type": "address"
        },
        {
          "internalType": "uint256",
          "name": "_amount",
          "type": "uint256"
        }
      ],
      "name": "burn",
      "outputs": [],
      "stateMutability": "nonpayable",
      "type": "function"
    },
    {
      "inputs": [
        {
          "internalType": "address",
          "name": "_account",
          "type": "address"
        },
        {
          "internalType": "uint256",
          "name": "_amount",
          "type": "uint256"
        }
      ],
      "name": "pay",
      "outputs": [],
      "stateMutability": "nonpayable",
      "type": "function"
    }
  ],
  "bytecode": "0x60e06040523480156200001157600080fd5b5060405162002c5838038062002c58833981810160405281019062000037919062000478565b828281600390816200004a919062000793565b5080600490816200005c919062000793565b505050600073ffffffffffffffffffffffffffffffffffffffff168573ffffffffffffffffffffffffffffffffffffffff1603620000d1576040517f08c379a0000000000000000000000000000000000000000000000000000000008152600401620000c890620008db565b60405180910390fd5b600073ffffffffffffffffffffffffffffffffffffffff168173ffffffffffffffffffffffffffffffffffffffff160362000143576040517f08c379a00000000000000000000000000000000000000000000000000000000081526004016200013a90620008db565b60405180910390fd5b85600560006101000a81548173ffffffffffffffffffffffffffffffffffffffff021916908373ffffffffffffffffffffffffffffffffffffffff16021790555083608081815250508473ffffffffffffffffffffffffffffffffffffffff1660a08173ffffffffffffffffffffffffffffffffffffffff16815250508073ffffffffffffffffffffffffffffffffffffffff1660c08173ffffffffffffffffffffffffffffffffffffffff1681525050505050505050620008fd565b6000604051905090565b600080fd5b600080fd5b600073ffffffffffffffffffffffffffffffffffffffff82169050919050565b6000620002418262000214565b9050919050565b6000620002558262000234565b9050919050565b620002678162000248565b81146200027357600080fd5b50565b60008151905062000287816200025c565b92915050565b620002988162000234565b8114620002a457600080fd5b50565b600081519050620002b8816200028d565b92915050565b6000819050919050565b620002d381620002be565b8114620002df57600080fd5b50565b600081519050620002f381620002c8565b92915050565b600080fd5b600080fd5b6000601f19601f8301169050919050565b7f4e487b7100000000000000000000000000000000000000000000000000000000600052604160045260246000fd5b6200034e8262000303565b810181811067ffffffffffffffff8211171562000370576200036f62000314565b5b80604052505050565b60006200038562000200565b905062000393828262000343565b919050565b600067ffffffffffffffff821115620003b657620003b562000314565b5b620003c18262000303565b9050602081019050919050565b60005b83811015620003ee578082015181840152602081019050620003d1565b60008484015250505050565b6000620004116200040b8462000398565b62000379565b90508281526020810184848401111562000430576200042f620002fe565b5b6200043d848285620003ce565b509392505050565b600082601f8301126200045d576200045c620002f9565b5b81516200046f848260208601620003fa565b91505092915050565b60008060008060008060c087890312156200049857620004976200020a565b5b6000620004a889828a0162000276565b9650506020620004bb89828a01620002a7565b9550506040620004ce89828a01620002e2565b945050606087015167ffffffffffffffff811115620004f257620004f16200020f565b5b6200050089828a0162000445565b935050608087015167ffffffffffffffff8111156200052457620005236200020f565b5b6200053289828a0162000445565b92505060a06200054589828a01620002a7565b9150509295509295509295565b600081519050919050565b7f4e487b7100000000000000000000000000000000000000000000000000000000600052602260045260246000fd5b60006002820490506001821680620005a557607f821691505b602082108103620005bb57620005ba6200055d565b5b50919050565b60008190508160005260206000209050919050565b60006020601f8301049050919050565b600082821b905092915050565b600060088302620006257fffffffffffffffffffffffffffffffffffffffffffffffffffffffffffffffff82620005e6565b620006318683620005e6565b95508019841693508086168417925050509392505050565b6000819050919050565b6000620006746200066e6200066884620002be565b62000649565b620002be565b9050919050565b6000819050919050565b620006908362000653565b620006a86200069f826200067b565b848454620005f3565b825550505050565b600090565b620006bf620006b0565b620006cc81848462000685565b505050565b5b81811015620006f457620006e8600082620006b5565b600181019050620006d2565b5050565b601f82111562000743576200070d81620005c1565b6200071884620005d6565b8101602085101562000728578190505b620007406200073785620005d6565b830182620006d1565b50505b505050565b600082821c905092915050565b6000620007686000198460080262000748565b1980831691505092915050565b600062000783838362000755565b9150826002028217905092915050565b6200079e8262000552565b67ffffffffffffffff811115620007ba57620007b962000314565b5b620007c682546200058c565b620007d3828285620006f8565b600060209050601f8311600181146200080b5760008415620007f6578287015190505b62000802858262000775565b86555062000872565b601f1984166200081b86620005c1565b60005b8281101562000845578489015182556001820191506020850194506020810190506200081e565b8683101562000865578489015162000861601f89168262000755565b8355505b6001600288020188555050505b505050505050565b600082825260208201905092915050565b7f3061646472000000000000000000000000000000000000000000000000000000600082015250565b6000620008c36005836200087a565b9150620008d0826200088b565b602082019050919050565b60006020820190508181036000830152620008f681620008b4565b9050919050565b60805160a05160c0516123166200094260003960008181610557015281816108c001528181610be90152610d80015260006105f30152600061095c01526123166000f3fe608060405234801561001057600080fd5b506004361061012c5760003560e01c806395d89b41116100ad578063b3e1f05011610071578063b3e1f0501461036e578063c40768761461039f578063cb4c86b7146103bb578063d2f7265a146103d9578063dd62ed3e146103f75761012c565b806395d89b41146102b65780639dc29fac146102d4578063a15612d1146102f0578063a457c2d71461030e578063a9059cbb1461033e5761012c565b806339509351116100f457806339509351146101eb57806340c10f191461021b5780636f307dc31461023757806370a0823114610255578063921f2c3b146102855761012c565b806306fdde0314610131578063095ea7b31461014f57806318160ddd1461017f57806323b872dd1461019d578063313ce567146101cd575b600080fd5b610139610427565b6040516101469190611707565b60405180910390f35b610169600480360381019061016491906117c2565b6104b9565b604051610176919061181d565b60405180910390f35b6101876104dc565b6040516101949190611847565b60405180910390f35b6101b760048036038101906101b29190611862565b6104e6565b6040516101c4919061181d565b60405180910390f35b6101d5610515565b6040516101e291906118d1565b60405180910390f35b610205600480360381019061020091906117c2565b61051e565b604051610212919061181d565b60405180910390f35b610235600480360381019061023091906117c2565b610555565b005b61023f6105f1565b60405161024c91906118fb565b60405180910390f35b61026f600480360381019061026a9190611916565b610615565b60405161027c9190611847565b60405180910390f35b61029f600480360381019061029a9190611943565b61065d565b6040516102ad929190611983565b60405180910390f35b6102be61082c565b6040516102cb9190611707565b60405180910390f35b6102ee60048036038101906102e991906117c2565b6108be565b005b6102f861095a565b6040516103059190611847565b60405180910390f35b610328600480360381019061032391906117c2565b61097e565b604051610335919061181d565b60405180910390f35b610358600480360381019061035391906117c2565b6109f5565b604051610365919061181d565b60405180910390f35b61038860048036038101906103839190611943565b610a18565b604051610396929190611983565b60405180910390f35b6103b960048036038101906103b491906117c2565b610be7565b005b6103c3610d58565b6040516103d09190611a0b565b60405180910390f35b6103e1610d7e565b6040516103ee91906118fb565b60405180910390f35b610411600480360381019061040c9190611a26565b610da2565b60405161041e9190611847565b60405180910390f35b60606003805461043690611a95565b80601f016020809104026020016040519081016040528092919081815260200182805461046290611a95565b80156104af5780601f10610484576101008083540402835291602001916104af565b820191906000526020600020905b81548152906001019060200180831161049257829003601f168201915b5050505050905090565b6000806104c4610e29565b90506104d1818585610e31565b600191505092915050565b6000600254905090565b6000806104f1610e29565b90506104fe858285610ffa565b610509858585611086565b60019150509392505050565b60006012905090565b600080610529610e29565b905061054a81858561053b8589610da2565b6105459190611af5565b610e31565b600191505092915050565b7f000000000000000000000000000000000000000000000000000000000000000073ffffffffffffffffffffffffffffffffffffffff163373ffffffffffffffffffffffffffffffffffffffff16146105e3576040517f08c379a00000000000000000000000000000000000000000000000000000000081526004016105da90611b75565b60405180910390fd5b6105ed8282611305565b5050565b7f000000000000000000000000000000000000000000000000000000000000000081565b60008060008373ffffffffffffffffffffffffffffffffffffffff1673ffffffffffffffffffffffffffffffffffffffff168152602001908152602001600020549050919050565b600080600061066a6104dc565b90506000811161067a57836107a4565b6107a373__MarketLib_____________________________63983d3bb8600560009054906101000a900473ffffffffffffffffffffffffffffffffffffffff16306040518363ffffffff1660e01b81526004016106d8929190611bb3565b602060405180830381865af41580156106f5573d6000803e3d6000fd5b505050506040513d601f19601f820116820180604052508101906107199190611bf1565b73__MathLib_______________________________63de7f61709091846040518363ffffffff1660e01b8152600401610753929190611c2d565b602060405180830381865af4158015610770573d6000803e3d6000fd5b505050506040513d601f19601f820116820180604052508101906107949190611bf1565b8561146490919063ffffffff16565b5b91508473__MathLib_______________________________63de7f61709091846040518363ffffffff1660e01b81526004016107e1929190611c2d565b602060405180830381865af41580156107fe573d6000803e3d6000fd5b505050506040513d601f19601f820116820180604052508101906108229190611bf1565b9250509250929050565b60606004805461083b90611a95565b80601f016020809104026020016040519081016040528092919081815260200182805461086790611a95565b80156108b45780601f10610889576101008083540402835291602001916108b4565b820191906000526020600020905b81548152906001019060200180831161089757829003601f168201915b5050505050905090565b7f000000000000000000000000000000000000000000000000000000000000000073ffffffffffffffffffffffffffffffffffffffff163373ffffffffffffffffffffffffffffffffffffffff161461094c576040517f08c379a000000000000000000000000000000000000000000000000000000000815260040161094390611b75565b60405180910390fd5b610956828261147d565b5050565b7f000000000000000000000000000000000000000000000000000000000000000081565b600080610989610e29565b905060006109978286610da2565b9050838110156109dc576040517f08c379a00000000000000000000000000000000000000000000000000000000081526004016109d390611cc8565b60405180910390fd5b6109e98286868403610e31565b60019250505092915050565b600080610a00610e29565b9050610a0d818585611086565b600191505092915050565b6000806000610a256104dc565b905060008111610a355783610b5f565b610b5e73__MarketLib_____________________________63983d3bb8600560009054906101000a900473ffffffffffffffffffffffffffffffffffffffff16306040518363ffffffff1660e01b8152600401610a93929190611bb3565b602060405180830381865af4158015610ab0573d6000803e3d6000fd5b505050506040513d601f19601f82011682018060405250810190610ad49190611bf1565b73__MathLib_______________________________63de7f61709091846040518363ffffffff1660e01b8152600401610b0e929190611c2d565b602060405180830381865af4158015610b2b573d6000803e3d6000fd5b505050506040513d601f19601f82011682018060405250810190610b4f9190611bf1565b8561165390919063ffffffff16565b5b91508473__MathLib_______________________________63de7f61709091846040518363ffffffff1660e01b8152600401610b9c929190611c2d565b602060405180830381865af4158015610bb9573d6000803e3d6000fd5b505050506040513d601f19601f82011682018060405250810190610bdd9190611bf1565b9250509250929050565b7f000000000000000000000000000000000000000000000000000000000000000073ffffffffffffffffffffffffffffffffffffffff163373ffffffffffffffffffffffffffffffffffffffff1614610c75576040517f08c379a0000000000000000000000000000000000000000000000000000000008152600401610c6c90611b75565b60405180910390fd5b600560009054906101000a900473ffffffffffffffffffffffffffffffffffffffff1673ffffffffffffffffffffffffffffffffffffffff1663a9059cbb83836040518363ffffffff1660e01b8152600401610cd2929190611ce8565b6020604051808303816000875af1158015610cf1573d6000803e3d6000fd5b505050506040513d601f19601f82011682018060405250810190610d159190611d3d565b610d54576040517f08c379a0000000000000000000000000000000000000000000000000000000008152600401610d4b90611db6565b60405180910390fd5b5050565b600560009054906101000a900473ffffffffffffffffffffffffffffffffffffffff1681565b7f000000000000000000000000000000000000000000000000000000000000000081565b6000600160008473ffffffffffffffffffffffffffffffffffffffff1673ffffffffffffffffffffffffffffffffffffffff16815260200190815260200160002060008373ffffffffffffffffffffffffffffffffffffffff1673ffffffffffffffffffffffffffffffffffffffff16815260200190815260200160002054905092915050565b600033905090565b600073ffffffffffffffffffffffffffffffffffffffff168373ffffffffffffffffffffffffffffffffffffffff1603610ea0576040517f08c379a0000000000000000000000000000000000000000000000000000000008152600401610e9790611e48565b60405180910390fd5b600073ffffffffffffffffffffffffffffffffffffffff168273ffffffffffffffffffffffffffffffffffffffff1603610f0f576040517f08c379a0000000000000000000000000000000000000000000000000000000008152600401610f0690611eda565b60405180910390fd5b80600160008573ffffffffffffffffffffffffffffffffffffffff1673ffffffffffffffffffffffffffffffffffffffff16815260200190815260200160002060008473ffffffffffffffffffffffffffffffffffffffff1673ffffffffffffffffffffffffffffffffffffffff168152602001908152602001600020819055508173ffffffffffffffffffffffffffffffffffffffff168373ffffffffffffffffffffffffffffffffffffffff167f8c5be1e5ebec7d5bd14f71427d1e84f3dd0314c0f7b2291e5b200ac8c7c3b92583604051610fed9190611847565b60405180910390a3505050565b60006110068484610da2565b90507fffffffffffffffffffffffffffffffffffffffffffffffffffffffffffffffff81146110805781811015611072576040517f08c379a000000000000000000000000000000000000000000000000000000000815260040161106990611f46565b60405180910390fd5b61107f8484848403610e31565b5b50505050565b600073ffffffffffffffffffffffffffffffffffffffff168373ffffffffffffffffffffffffffffffffffffffff16036110f5576040517f08c379a00000000000000000000000000000000000000000000000000000000081526004016110ec90611fd8565b60405180910390fd5b600073ffffffffffffffffffffffffffffffffffffffff168273ffffffffffffffffffffffffffffffffffffffff1603611164576040517f08c379a000000000000000000000000000000000000000000000000000000000815260040161115b9061206a565b60405180910390fd5b61116f83838361166d565b60008060008573ffffffffffffffffffffffffffffffffffffffff1673ffffffffffffffffffffffffffffffffffffffff168152602001908152602001600020549050818110156111f5576040517f08c379a00000000000000000000000000000000000000000000000000000000081526004016111ec906120fc565b60405180910390fd5b8181036000808673ffffffffffffffffffffffffffffffffffffffff1673ffffffffffffffffffffffffffffffffffffffff16815260200190815260200160002081905550816000808573ffffffffffffffffffffffffffffffffffffffff1673ffffffffffffffffffffffffffffffffffffffff16815260200190815260200160002060008282546112889190611af5565b925050819055508273ffffffffffffffffffffffffffffffffffffffff168473ffffffffffffffffffffffffffffffffffffffff167fddf252ad1be2c89b69c2b068fc378daa952ba7f163c4a11628f55a4df523b3ef846040516112ec9190611847565b60405180910390a36112ff848484611672565b50505050565b600073ffffffffffffffffffffffffffffffffffffffff168273ffffffffffffffffffffffffffffffffffffffff1603611374576040517f08c379a000000000000000000000000000000000000000000000000000000000815260040161136b90612168565b60405180910390fd5b6113806000838361166d565b80600260008282546113929190611af5565b92505081905550806000808473ffffffffffffffffffffffffffffffffffffffff1673ffffffffffffffffffffffffffffffffffffffff16815260200190815260200160002060008282546113e79190611af5565b925050819055508173ffffffffffffffffffffffffffffffffffffffff16600073ffffffffffffffffffffffffffffffffffffffff167fddf252ad1be2c89b69c2b068fc378daa952ba7f163c4a11628f55a4df523b3ef8360405161144c9190611847565b60405180910390a361146060008383611672565b5050565b60008183106114735781611475565b825b905092915050565b600073ffffffffffffffffffffffffffffffffffffffff168273ffffffffffffffffffffffffffffffffffffffff16036114ec576040517f08c379a00000000000000000000000000000000000000000000000000000000081526004016114e3906121fa565b60405180910390fd5b6114f88260008361166d565b60008060008473ffffffffffffffffffffffffffffffffffffffff1673ffffffffffffffffffffffffffffffffffffffff1681526020019081526020016000205490508181101561157e576040517f08c379a00000000000000000000000000000000000000000000000000000000081526004016115759061228c565b60405180910390fd5b8181036000808573ffffffffffffffffffffffffffffffffffffffff1673ffffffffffffffffffffffffffffffffffffffff1681526020019081526020016000208190555081600260008282546115d591906122ac565b92505081905550600073ffffffffffffffffffffffffffffffffffffffff168373ffffffffffffffffffffffffffffffffffffffff167fddf252ad1be2c89b69c2b068fc378daa952ba7f163c4a11628f55a4df523b3ef8460405161163a9190611847565b60405180910390a361164e83600084611672565b505050565b6000818310156116635781611665565b825b905092915050565b505050565b505050565b600081519050919050565b600082825260208201905092915050565b60005b838110156116b1578082015181840152602081019050611696565b60008484015250505050565b6000601f19601f8301169050919050565b60006116d982611677565b6116e38185611682565b93506116f3818560208601611693565b6116fc816116bd565b840191505092915050565b6000602082019050818103600083015261172181846116ce565b905092915050565b600080fd5b600073ffffffffffffffffffffffffffffffffffffffff82169050919050565b60006117598261172e565b9050919050565b6117698161174e565b811461177457600080fd5b50565b60008135905061178681611760565b92915050565b6000819050919050565b61179f8161178c565b81146117aa57600080fd5b50565b6000813590506117bc81611796565b92915050565b600080604083850312156117d9576117d8611729565b5b60006117e785828601611777565b92505060206117f8858286016117ad565b9150509250929050565b60008115159050919050565b61181781611802565b82525050565b6000602082019050611832600083018461180e565b92915050565b6118418161178c565b82525050565b600060208201905061185c6000830184611838565b92915050565b60008060006060848603121561187b5761187a611729565b5b600061188986828701611777565b935050602061189a86828701611777565b92505060406118ab868287016117ad565b9150509250925092565b600060ff82169050919050565b6118cb816118b5565b82525050565b60006020820190506118e660008301846118c2565b92915050565b6118f58161174e565b82525050565b600060208201905061191060008301846118ec565b92915050565b60006020828403121561192c5761192b611729565b5b600061193a84828501611777565b91505092915050565b6000806040838503121561195a57611959611729565b5b6000611968858286016117ad565b9250506020611979858286016117ad565b9150509250929050565b60006040820190506119986000830185611838565b6119a56020830184611838565b9392505050565b6000819050919050565b60006119d16119cc6119c78461172e565b6119ac565b61172e565b9050919050565b60006119e3826119b6565b9050919050565b60006119f5826119d8565b9050919050565b611a05816119ea565b82525050565b6000602082019050611a2060008301846119fc565b92915050565b60008060408385031215611a3d57611a3c611729565b5b6000611a4b85828601611777565b9250506020611a5c85828601611777565b9150509250929050565b7f4e487b7100000000000000000000000000000000000000000000000000000000600052602260045260246000fd5b60006002820490506001821680611aad57607f821691505b602082108103611ac057611abf611a66565b5b50919050565b7f4e487b7100000000000000000000000000000000000000000000000000000000600052601160045260246000fd5b6000611b008261178c565b9150611b0b8361178c565b9250828201905080821115611b2357611b22611ac6565b5b92915050565b7f2d76744578000000000000000000000000000000000000000000000000000000600082015250565b6000611b5f600583611682565b9150611b6a82611b29565b602082019050919050565b60006020820190508181036000830152611b8e81611b52565b9050919050565b611b9e816119ea565b82525050565b611bad8161174e565b82525050565b6000604082019050611bc86000830185611b95565b611bd56020830184611ba4565b9392505050565b600081519050611beb81611796565b92915050565b600060208284031215611c0757611c06611729565b5b6000611c1584828501611bdc565b91505092915050565b611c278161178c565b82525050565b6000604082019050611c426000830185611c1e565b611c4f6020830184611c1e565b9392505050565b7f45524332303a2064656372656173656420616c6c6f77616e63652062656c6f7760008201527f207a65726f000000000000000000000000000000000000000000000000000000602082015250565b6000611cb2602583611682565b9150611cbd82611c56565b604082019050919050565b60006020820190508181036000830152611ce181611ca5565b9050919050565b6000604082019050611cfd60008301856118ec565b611d0a6020830184611838565b9392505050565b611d1a81611802565b8114611d2557600080fd5b50565b600081519050611d3781611d11565b92915050565b600060208284031215611d5357611d52611729565b5b6000611d6184828501611d28565b91505092915050565b7f2d56530000000000000000000000000000000000000000000000000000000000600082015250565b6000611da0600383611682565b9150611dab82611d6a565b602082019050919050565b60006020820190508181036000830152611dcf81611d93565b9050919050565b7f45524332303a20617070726f76652066726f6d20746865207a65726f2061646460008201527f7265737300000000000000000000000000000000000000000000000000000000602082015250565b6000611e32602483611682565b9150611e3d82611dd6565b604082019050919050565b60006020820190508181036000830152611e6181611e25565b9050919050565b7f45524332303a20617070726f766520746f20746865207a65726f20616464726560008201527f7373000000000000000000000000000000000000000000000000000000000000602082015250565b6000611ec4602283611682565b9150611ecf82611e68565b604082019050919050565b60006020820190508181036000830152611ef381611eb7565b9050919050565b7f45524332303a20696e73756666696369656e7420616c6c6f77616e6365000000600082015250565b6000611f30601d83611682565b9150611f3b82611efa565b602082019050919050565b60006020820190508181036000830152611f5f81611f23565b9050919050565b7f45524332303a207472616e736665722066726f6d20746865207a65726f20616460008201527f6472657373000000000000000000000000000000000000000000000000000000602082015250565b6000611fc2602583611682565b9150611fcd82611f66565b604082019050919050565b60006020820190508181036000830152611ff181611fb5565b9050919050565b7f45524332303a207472616e7366657220746f20746865207a65726f206164647260008201527f6573730000000000000000000000000000000000000000000000000000000000602082015250565b6000612054602383611682565b915061205f82611ff8565b604082019050919050565b6000602082019050818103600083015261208381612047565b9050919050565b7f45524332303a207472616e7366657220616d6f756e742065786365656473206260008201527f616c616e63650000000000000000000000000000000000000000000000000000602082015250565b60006120e6602683611682565b91506120f18261208a565b604082019050919050565b60006020820190508181036000830152612115816120d9565b9050919050565b7f45524332303a206d696e7420746f20746865207a65726f206164647265737300600082015250565b6000612152601f83611682565b915061215d8261211c565b602082019050919050565b6000602082019050818103600083015261218181612145565b9050919050565b7f45524332303a206275726e2066726f6d20746865207a65726f2061646472657360008201527f7300000000000000000000000000000000000000000000000000000000000000602082015250565b60006121e4602183611682565b91506121ef82612188565b604082019050919050565b60006020820190508181036000830152612213816121d7565b9050919050565b7f45524332303a206275726e20616d6f756e7420657863656564732062616c616e60008201527f6365000000000000000000000000000000000000000000000000000000000000602082015250565b6000612276602283611682565b91506122818261221a565b604082019050919050565b600060208201905081810360008301526122a581612269565b9050919050565b60006122b78261178c565b91506122c28361178c565b92508282039050818111156122da576122d9611ac6565b5b9291505056fea26469706673582212209aa762017a14a6468f955ba1565fab90b3f6c5b6bb1a1f09152b9dd171ad6cc764736f6c63430008110033",
  "immutableReferences": {
    "11748": [
      {
        "length": 32,
        "start": 2396
      }
    ],
    "11750": [
      {
        "length": 32,
        "start": 1523
      }
    ],
    "11752": [
      {
        "length": 32,
        "start": 1367
      },
      {
        "length": 32,
        "start": 2240
      },
      {
        "length": 32,
        "start": 3049
      },
      {
        "length": 32,
        "start": 3456
      }
    ]
  },
  "source": "// SPDX-License-Identifier: MIT\npragma solidity ^0.8.4;\n\nimport \"@openzeppelin/contracts/token/ERC20/ERC20.sol\";\nimport \"@openzeppelin/contracts/utils/math/Math.sol\";\nimport \"./libraries/MathLib.sol\";\nimport \"./libraries/MarketLib.sol\";\n\ncontract VolatilityToken is ERC20{\n    using MathLib for uint256;\n    using Math for uint256;\n\n    uint256 public immutable tenor;\n    address public immutable underlying;\n    address public immutable exchange;\n    ERC20 public funding;\n\n    constructor(ERC20 _funding, address _underlying, uint256 _tenor, string memory _name, string memory _symbol, address _exchange ) ERC20(_name, _symbol) {\n        require(_underlying != address(0), \"0addr\");\n        require(_exchange != address(0), \"0addr\");\n\n        funding = _funding;\n        tenor = _tenor;\n        underlying = _underlying;\n        exchange = _exchange;}\n\n    function getMintAmount(uint256 _premium, uint256 _vol) external view returns(uint256 _mintAmount, uint256 _volPrice){\n        uint256 _supply = totalSupply();\n        _volPrice = _supply > 0? _vol.max(MarketLib.balanceDef(funding, address(this)).ethdiv(_supply)): _vol;\n        _mintAmount = _premium.ethdiv(_volPrice);}\n\n    function getBurnAmount(uint256 _premium, uint256 _vol) external view returns(uint256 _burnAmount, uint256 _volPrice){\n        uint256 _supply = totalSupply();\n        _volPrice = _supply > 0? _vol.min(MarketLib.balanceDef(funding, address(this)).ethdiv(_supply)): _vol;\n        _burnAmount = _premium.ethdiv(_volPrice);}\n\n    function mint(address _account, uint256 _amount) external {\n        require(msg.sender == exchange, \"-vtEx\");\n        _mint(_account, _amount);}\n    function burn(address _account, uint256 _amount) external {\n        require(msg.sender == exchange, \"-vtEx\");\n        _burn(_account, _amount);}\n    function pay(address _account, uint256 _amount) external {\n        require(msg.sender == exchange, \"-vtEx\");\n        require(funding.transfer(_account, _amount), '-VS');}\n}\n",
  "sourcePath": "/Users/mac/Documents/GitHub/moret/contracts/VolatilityToken.sol",
  "compiler": {
    "name": "solc",
    "version": "0.8.17+commit.8df45f5f.Emscripten.clang"
  },
  "schemaVersion": "3.4.3",
  "updatedAt": "2022-09-13T03:43:47.354Z",
  "devdoc": {
    "kind": "dev",
    "methods": {
      "allowance(address,address)": {
        "details": "See {IERC20-allowance}."
      },
      "approve(address,uint256)": {
        "details": "See {IERC20-approve}. NOTE: If `amount` is the maximum `uint256`, the allowance is not updated on `transferFrom`. This is semantically equivalent to an infinite approval. Requirements: - `spender` cannot be the zero address."
      },
      "balanceOf(address)": {
        "details": "See {IERC20-balanceOf}."
      },
      "decimals()": {
        "details": "Returns the number of decimals used to get its user representation. For example, if `decimals` equals `2`, a balance of `505` tokens should be displayed to a user as `5.05` (`505 / 10 ** 2`). Tokens usually opt for a value of 18, imitating the relationship between Ether and Wei. This is the value {ERC20} uses, unless this function is overridden; NOTE: This information is only used for _display_ purposes: it in no way affects any of the arithmetic of the contract, including {IERC20-balanceOf} and {IERC20-transfer}."
      },
      "decreaseAllowance(address,uint256)": {
        "details": "Atomically decreases the allowance granted to `spender` by the caller. This is an alternative to {approve} that can be used as a mitigation for problems described in {IERC20-approve}. Emits an {Approval} event indicating the updated allowance. Requirements: - `spender` cannot be the zero address. - `spender` must have allowance for the caller of at least `subtractedValue`."
      },
      "increaseAllowance(address,uint256)": {
        "details": "Atomically increases the allowance granted to `spender` by the caller. This is an alternative to {approve} that can be used as a mitigation for problems described in {IERC20-approve}. Emits an {Approval} event indicating the updated allowance. Requirements: - `spender` cannot be the zero address."
      },
      "name()": {
        "details": "Returns the name of the token."
      },
      "symbol()": {
        "details": "Returns the symbol of the token, usually a shorter version of the name."
      },
      "totalSupply()": {
        "details": "See {IERC20-totalSupply}."
      },
      "transfer(address,uint256)": {
        "details": "See {IERC20-transfer}. Requirements: - `to` cannot be the zero address. - the caller must have a balance of at least `amount`."
      },
      "transferFrom(address,address,uint256)": {
        "details": "See {IERC20-transferFrom}. Emits an {Approval} event indicating the updated allowance. This is not required by the EIP. See the note at the beginning of {ERC20}. NOTE: Does not update the allowance if the current allowance is the maximum `uint256`. Requirements: - `from` and `to` cannot be the zero address. - `from` must have a balance of at least `amount`. - the caller must have allowance for ``from``'s tokens of at least `amount`."
      }
    },
    "version": 1
  },
  "userdoc": {
    "kind": "user",
    "methods": {},
    "version": 1
  }
}