{
  "contractName": "VolatilityToken",
  "abi": [
    {
      "inputs": [
        {
          "internalType": "contract ERC20",
          "name": "_funding",
          "type": "address"
        },
        {
          "internalType": "address",
          "name": "_underlying",
          "type": "address"
        },
        {
          "internalType": "uint256",
          "name": "_tenor",
          "type": "uint256"
        },
        {
          "internalType": "string",
          "name": "_name",
          "type": "string"
        },
        {
          "internalType": "string",
          "name": "_symbol",
          "type": "string"
        },
        {
          "internalType": "address",
          "name": "_exchange",
          "type": "address"
        }
      ],
      "stateMutability": "nonpayable",
      "type": "constructor"
    },
    {
      "anonymous": false,
      "inputs": [
        {
          "indexed": true,
          "internalType": "address",
          "name": "owner",
          "type": "address"
        },
        {
          "indexed": true,
          "internalType": "address",
          "name": "spender",
          "type": "address"
        },
        {
          "indexed": false,
          "internalType": "uint256",
          "name": "value",
          "type": "uint256"
        }
      ],
      "name": "Approval",
      "type": "event"
    },
    {
      "anonymous": false,
      "inputs": [
        {
          "indexed": true,
          "internalType": "address",
          "name": "from",
          "type": "address"
        },
        {
          "indexed": true,
          "internalType": "address",
          "name": "to",
          "type": "address"
        },
        {
          "indexed": false,
          "internalType": "uint256",
          "name": "value",
          "type": "uint256"
        }
      ],
      "name": "Transfer",
      "type": "event"
    },
    {
      "inputs": [
        {
          "internalType": "address",
          "name": "owner",
          "type": "address"
        },
        {
          "internalType": "address",
          "name": "spender",
          "type": "address"
        }
      ],
      "name": "allowance",
      "outputs": [
        {
          "internalType": "uint256",
          "name": "",
          "type": "uint256"
        }
      ],
      "stateMutability": "view",
      "type": "function"
    },
    {
      "inputs": [
        {
          "internalType": "address",
          "name": "spender",
          "type": "address"
        },
        {
          "internalType": "uint256",
          "name": "amount",
          "type": "uint256"
        }
      ],
      "name": "approve",
      "outputs": [
        {
          "internalType": "bool",
          "name": "",
          "type": "bool"
        }
      ],
      "stateMutability": "nonpayable",
      "type": "function"
    },
    {
      "inputs": [
        {
          "internalType": "address",
          "name": "account",
          "type": "address"
        }
      ],
      "name": "balanceOf",
      "outputs": [
        {
          "internalType": "uint256",
          "name": "",
          "type": "uint256"
        }
      ],
      "stateMutability": "view",
      "type": "function"
    },
    {
      "inputs": [],
      "name": "decimals",
      "outputs": [
        {
          "internalType": "uint8",
          "name": "",
          "type": "uint8"
        }
      ],
      "stateMutability": "view",
      "type": "function"
    },
    {
      "inputs": [
        {
          "internalType": "address",
          "name": "spender",
          "type": "address"
        },
        {
          "internalType": "uint256",
          "name": "subtractedValue",
          "type": "uint256"
        }
      ],
      "name": "decreaseAllowance",
      "outputs": [
        {
          "internalType": "bool",
          "name": "",
          "type": "bool"
        }
      ],
      "stateMutability": "nonpayable",
      "type": "function"
    },
    {
      "inputs": [],
      "name": "exchange",
      "outputs": [
        {
          "internalType": "address",
          "name": "",
          "type": "address"
        }
      ],
      "stateMutability": "view",
      "type": "function"
    },
    {
      "inputs": [],
      "name": "funding",
      "outputs": [
        {
          "internalType": "contract ERC20",
          "name": "",
          "type": "address"
        }
      ],
      "stateMutability": "view",
      "type": "function"
    },
    {
      "inputs": [
        {
          "internalType": "address",
          "name": "spender",
          "type": "address"
        },
        {
          "internalType": "uint256",
          "name": "addedValue",
          "type": "uint256"
        }
      ],
      "name": "increaseAllowance",
      "outputs": [
        {
          "internalType": "bool",
          "name": "",
          "type": "bool"
        }
      ],
      "stateMutability": "nonpayable",
      "type": "function"
    },
    {
      "inputs": [],
      "name": "name",
      "outputs": [
        {
          "internalType": "string",
          "name": "",
          "type": "string"
        }
      ],
      "stateMutability": "view",
      "type": "function"
    },
    {
      "inputs": [],
      "name": "symbol",
      "outputs": [
        {
          "internalType": "string",
          "name": "",
          "type": "string"
        }
      ],
      "stateMutability": "view",
      "type": "function"
    },
    {
      "inputs": [],
      "name": "tenor",
      "outputs": [
        {
          "internalType": "uint256",
          "name": "",
          "type": "uint256"
        }
      ],
      "stateMutability": "view",
      "type": "function"
    },
    {
      "inputs": [],
      "name": "totalSupply",
      "outputs": [
        {
          "internalType": "uint256",
          "name": "",
          "type": "uint256"
        }
      ],
      "stateMutability": "view",
      "type": "function"
    },
    {
      "inputs": [
        {
          "internalType": "address",
          "name": "to",
          "type": "address"
        },
        {
          "internalType": "uint256",
          "name": "amount",
          "type": "uint256"
        }
      ],
      "name": "transfer",
      "outputs": [
        {
          "internalType": "bool",
          "name": "",
          "type": "bool"
        }
      ],
      "stateMutability": "nonpayable",
      "type": "function"
    },
    {
      "inputs": [
        {
          "internalType": "address",
          "name": "from",
          "type": "address"
        },
        {
          "internalType": "address",
          "name": "to",
          "type": "address"
        },
        {
          "internalType": "uint256",
          "name": "amount",
          "type": "uint256"
        }
      ],
      "name": "transferFrom",
      "outputs": [
        {
          "internalType": "bool",
          "name": "",
          "type": "bool"
        }
      ],
      "stateMutability": "nonpayable",
      "type": "function"
    },
    {
      "inputs": [],
      "name": "underlying",
      "outputs": [
        {
          "internalType": "address",
          "name": "",
          "type": "address"
        }
      ],
      "stateMutability": "view",
      "type": "function"
    },
    {
      "inputs": [
        {
          "internalType": "uint256",
          "name": "_premium",
          "type": "uint256"
        },
        {
          "internalType": "uint256",
          "name": "_vol",
          "type": "uint256"
        },
        {
          "internalType": "bool",
          "name": "_mint",
          "type": "bool"
        }
      ],
      "name": "calcAmount",
      "outputs": [
        {
          "internalType": "uint256",
          "name": "_amount",
          "type": "uint256"
        },
        {
          "internalType": "uint256",
          "name": "_volPrice",
          "type": "uint256"
        }
      ],
      "stateMutability": "view",
      "type": "function"
    },
    {
      "inputs": [
        {
          "internalType": "address",
          "name": "_account",
          "type": "address"
        },
        {
          "internalType": "uint256",
          "name": "_amount",
          "type": "uint256"
        }
      ],
      "name": "mint",
      "outputs": [],
      "stateMutability": "nonpayable",
      "type": "function"
    },
    {
      "inputs": [
        {
          "internalType": "address",
          "name": "_account",
          "type": "address"
        },
        {
          "internalType": "uint256",
          "name": "_amount",
          "type": "uint256"
        }
      ],
      "name": "burn",
      "outputs": [],
      "stateMutability": "nonpayable",
      "type": "function"
    },
    {
      "inputs": [
        {
          "internalType": "address",
          "name": "_account",
          "type": "address"
        },
        {
          "internalType": "uint256",
          "name": "_amount",
          "type": "uint256"
        }
      ],
      "name": "pay",
      "outputs": [],
      "stateMutability": "nonpayable",
      "type": "function"
    }
  ],
  "bytecode": "0x60e06040523480156200001157600080fd5b5060405162002bab38038062002bab833981810160405281019062000037919062000478565b828281600390816200004a919062000793565b5080600490816200005c919062000793565b505050600073ffffffffffffffffffffffffffffffffffffffff168573ffffffffffffffffffffffffffffffffffffffff1603620000d1576040517f08c379a0000000000000000000000000000000000000000000000000000000008152600401620000c890620008db565b60405180910390fd5b600073ffffffffffffffffffffffffffffffffffffffff168173ffffffffffffffffffffffffffffffffffffffff160362000143576040517f08c379a00000000000000000000000000000000000000000000000000000000081526004016200013a90620008db565b60405180910390fd5b85600560006101000a81548173ffffffffffffffffffffffffffffffffffffffff021916908373ffffffffffffffffffffffffffffffffffffffff16021790555083608081815250508473ffffffffffffffffffffffffffffffffffffffff1660a08173ffffffffffffffffffffffffffffffffffffffff16815250508073ffffffffffffffffffffffffffffffffffffffff1660c08173ffffffffffffffffffffffffffffffffffffffff1681525050505050505050620008fd565b6000604051905090565b600080fd5b600080fd5b600073ffffffffffffffffffffffffffffffffffffffff82169050919050565b6000620002418262000214565b9050919050565b6000620002558262000234565b9050919050565b620002678162000248565b81146200027357600080fd5b50565b60008151905062000287816200025c565b92915050565b620002988162000234565b8114620002a457600080fd5b50565b600081519050620002b8816200028d565b92915050565b6000819050919050565b620002d381620002be565b8114620002df57600080fd5b50565b600081519050620002f381620002c8565b92915050565b600080fd5b600080fd5b6000601f19601f8301169050919050565b7f4e487b7100000000000000000000000000000000000000000000000000000000600052604160045260246000fd5b6200034e8262000303565b810181811067ffffffffffffffff8211171562000370576200036f62000314565b5b80604052505050565b60006200038562000200565b905062000393828262000343565b919050565b600067ffffffffffffffff821115620003b657620003b562000314565b5b620003c18262000303565b9050602081019050919050565b60005b83811015620003ee578082015181840152602081019050620003d1565b60008484015250505050565b6000620004116200040b8462000398565b62000379565b90508281526020810184848401111562000430576200042f620002fe565b5b6200043d848285620003ce565b509392505050565b600082601f8301126200045d576200045c620002f9565b5b81516200046f848260208601620003fa565b91505092915050565b60008060008060008060c087890312156200049857620004976200020a565b5b6000620004a889828a0162000276565b9650506020620004bb89828a01620002a7565b9550506040620004ce89828a01620002e2565b945050606087015167ffffffffffffffff811115620004f257620004f16200020f565b5b6200050089828a0162000445565b935050608087015167ffffffffffffffff8111156200052457620005236200020f565b5b6200053289828a0162000445565b92505060a06200054589828a01620002a7565b9150509295509295509295565b600081519050919050565b7f4e487b7100000000000000000000000000000000000000000000000000000000600052602260045260246000fd5b60006002820490506001821680620005a557607f821691505b602082108103620005bb57620005ba6200055d565b5b50919050565b60008190508160005260206000209050919050565b60006020601f8301049050919050565b600082821b905092915050565b600060088302620006257fffffffffffffffffffffffffffffffffffffffffffffffffffffffffffffffff82620005e6565b620006318683620005e6565b95508019841693508086168417925050509392505050565b6000819050919050565b6000620006746200066e6200066884620002be565b62000649565b620002be565b9050919050565b6000819050919050565b620006908362000653565b620006a86200069f826200067b565b848454620005f3565b825550505050565b600090565b620006bf620006b0565b620006cc81848462000685565b505050565b5b81811015620006f457620006e8600082620006b5565b600181019050620006d2565b5050565b601f82111562000743576200070d81620005c1565b6200071884620005d6565b8101602085101562000728578190505b620007406200073785620005d6565b830182620006d1565b50505b505050565b600082821c905092915050565b6000620007686000198460080262000748565b1980831691505092915050565b600062000783838362000755565b9150826002028217905092915050565b6200079e8262000552565b67ffffffffffffffff811115620007ba57620007b962000314565b5b620007c682546200058c565b620007d3828285620006f8565b600060209050601f8311600181146200080b5760008415620007f6578287015190505b62000802858262000775565b86555062000872565b601f1984166200081b86620005c1565b60005b8281101562000845578489015182556001820191506020850194506020810190506200081e565b8683101562000865578489015162000861601f89168262000755565b8355505b6001600288020188555050505b505050505050565b600082825260208201905092915050565b7f3061646472000000000000000000000000000000000000000000000000000000600082015250565b6000620008c36005836200087a565b9150620008d0826200088b565b602082019050919050565b60006020820190508181036000830152620008f681620008b4565b9050919050565b60805160a05160c051612269620009426000396000818161051b015281816106b50152818161080f01526109a6015260006105b70152600061075101526122696000f3fe608060405234801561001057600080fd5b50600436106101215760003560e01c806395d89b41116100ad578063c407687611610071578063c407687614610332578063cb4c86b71461034e578063d2f7265a1461036c578063dadc3bf81461038a578063dd62ed3e146103bb57610121565b806395d89b411461027a5780639dc29fac14610298578063a15612d1146102b4578063a457c2d7146102d2578063a9059cbb1461030257610121565b8063313ce567116100f4578063313ce567146101c257806339509351146101e057806340c10f19146102105780636f307dc31461022c57806370a082311461024a57610121565b806306fdde0314610126578063095ea7b31461014457806318160ddd1461017457806323b872dd14610192575b600080fd5b61012e6103eb565b60405161013b9190611632565b60405180910390f35b61015e600480360381019061015991906116ed565b61047d565b60405161016b9190611748565b60405180910390f35b61017c6104a0565b6040516101899190611772565b60405180910390f35b6101ac60048036038101906101a7919061178d565b6104aa565b6040516101b99190611748565b60405180910390f35b6101ca6104d9565b6040516101d791906117fc565b60405180910390f35b6101fa60048036038101906101f591906116ed565b6104e2565b6040516102079190611748565b60405180910390f35b61022a600480360381019061022591906116ed565b610519565b005b6102346105b5565b6040516102419190611826565b60405180910390f35b610264600480360381019061025f9190611841565b6105d9565b6040516102719190611772565b60405180910390f35b610282610621565b60405161028f9190611632565b60405180910390f35b6102b260048036038101906102ad91906116ed565b6106b3565b005b6102bc61074f565b6040516102c99190611772565b60405180910390f35b6102ec60048036038101906102e791906116ed565b610773565b6040516102f99190611748565b60405180910390f35b61031c600480360381019061031791906116ed565b6107ea565b6040516103299190611748565b60405180910390f35b61034c600480360381019061034791906116ed565b61080d565b005b61035661097e565b60405161036391906118cd565b60405180910390f35b6103746109a4565b6040516103819190611826565b60405180910390f35b6103a4600480360381019061039f9190611914565b6109c8565b6040516103b2929190611967565b60405180910390f35b6103d560048036038101906103d09190611990565b610ccd565b6040516103e29190611772565b60405180910390f35b6060600380546103fa906119ff565b80601f0160208091040260200160405190810160405280929190818152602001828054610426906119ff565b80156104735780601f1061044857610100808354040283529160200191610473565b820191906000526020600020905b81548152906001019060200180831161045657829003601f168201915b5050505050905090565b600080610488610d54565b9050610495818585610d5c565b600191505092915050565b6000600254905090565b6000806104b5610d54565b90506104c2858285610f25565b6104cd858585610fb1565b60019150509392505050565b60006012905090565b6000806104ed610d54565b905061050e8185856104ff8589610ccd565b6105099190611a5f565b610d5c565b600191505092915050565b7f000000000000000000000000000000000000000000000000000000000000000073ffffffffffffffffffffffffffffffffffffffff163373ffffffffffffffffffffffffffffffffffffffff16146105a7576040517f08c379a000000000000000000000000000000000000000000000000000000000815260040161059e90611adf565b60405180910390fd5b6105b18282611230565b5050565b7f000000000000000000000000000000000000000000000000000000000000000081565b60008060008373ffffffffffffffffffffffffffffffffffffffff1673ffffffffffffffffffffffffffffffffffffffff168152602001908152602001600020549050919050565b606060048054610630906119ff565b80601f016020809104026020016040519081016040528092919081815260200182805461065c906119ff565b80156106a95780601f1061067e576101008083540402835291602001916106a9565b820191906000526020600020905b81548152906001019060200180831161068c57829003601f168201915b5050505050905090565b7f000000000000000000000000000000000000000000000000000000000000000073ffffffffffffffffffffffffffffffffffffffff163373ffffffffffffffffffffffffffffffffffffffff1614610741576040517f08c379a000000000000000000000000000000000000000000000000000000000815260040161073890611adf565b60405180910390fd5b61074b828261138f565b5050565b7f000000000000000000000000000000000000000000000000000000000000000081565b60008061077e610d54565b9050600061078c8286610ccd565b9050838110156107d1576040517f08c379a00000000000000000000000000000000000000000000000000000000081526004016107c890611b71565b60405180910390fd5b6107de8286868403610d5c565b60019250505092915050565b6000806107f5610d54565b9050610802818585610fb1565b600191505092915050565b7f000000000000000000000000000000000000000000000000000000000000000073ffffffffffffffffffffffffffffffffffffffff163373ffffffffffffffffffffffffffffffffffffffff161461089b576040517f08c379a000000000000000000000000000000000000000000000000000000000815260040161089290611adf565b60405180910390fd5b600560009054906101000a900473ffffffffffffffffffffffffffffffffffffffff1673ffffffffffffffffffffffffffffffffffffffff1663a9059cbb83836040518363ffffffff1660e01b81526004016108f8929190611b91565b6020604051808303816000875af1158015610917573d6000803e3d6000fd5b505050506040513d601f19601f8201168201806040525081019061093b9190611bcf565b61097a576040517f08c379a000000000000000000000000000000000000000000000000000000000815260040161097190611c48565b60405180910390fd5b5050565b600560009054906101000a900473ffffffffffffffffffffffffffffffffffffffff1681565b7f000000000000000000000000000000000000000000000000000000000000000081565b60008060006109d56104a0565b90508491506000811115610c46578315610b1957610b1273__MarketLib_____________________________63983d3bb8600560009054906101000a900473ffffffffffffffffffffffffffffffffffffffff16306040518363ffffffff1660e01b8152600401610a47929190611c86565b602060405180830381865af4158015610a64573d6000803e3d6000fd5b505050506040513d601f19601f82011682018060405250810190610a889190611cc4565b73__MathLib_______________________________63de7f61709091846040518363ffffffff1660e01b8152600401610ac2929190611d00565b602060405180830381865af4158015610adf573d6000803e3d6000fd5b505050506040513d601f19601f82011682018060405250810190610b039190611cc4565b8661156590919063ffffffff16565b9150610c45565b610c4273__MarketLib_____________________________63983d3bb8600560009054906101000a900473ffffffffffffffffffffffffffffffffffffffff16306040518363ffffffff1660e01b8152600401610b77929190611c86565b602060405180830381865af4158015610b94573d6000803e3d6000fd5b505050506040513d601f19601f82011682018060405250810190610bb89190611cc4565b73__MathLib_______________________________63de7f61709091846040518363ffffffff1660e01b8152600401610bf2929190611d00565b602060405180830381865af4158015610c0f573d6000803e3d6000fd5b505050506040513d601f19601f82011682018060405250810190610c339190611cc4565b8661157f90919063ffffffff16565b91505b5b8573__MathLib_______________________________63de7f61709091846040518363ffffffff1660e01b8152600401610c81929190611d00565b602060405180830381865af4158015610c9e573d6000803e3d6000fd5b505050506040513d601f19601f82011682018060405250810190610cc29190611cc4565b925050935093915050565b6000600160008473ffffffffffffffffffffffffffffffffffffffff1673ffffffffffffffffffffffffffffffffffffffff16815260200190815260200160002060008373ffffffffffffffffffffffffffffffffffffffff1673ffffffffffffffffffffffffffffffffffffffff16815260200190815260200160002054905092915050565b600033905090565b600073ffffffffffffffffffffffffffffffffffffffff168373ffffffffffffffffffffffffffffffffffffffff1603610dcb576040517f08c379a0000000000000000000000000000000000000000000000000000000008152600401610dc290611d9b565b60405180910390fd5b600073ffffffffffffffffffffffffffffffffffffffff168273ffffffffffffffffffffffffffffffffffffffff1603610e3a576040517f08c379a0000000000000000000000000000000000000000000000000000000008152600401610e3190611e2d565b60405180910390fd5b80600160008573ffffffffffffffffffffffffffffffffffffffff1673ffffffffffffffffffffffffffffffffffffffff16815260200190815260200160002060008473ffffffffffffffffffffffffffffffffffffffff1673ffffffffffffffffffffffffffffffffffffffff168152602001908152602001600020819055508173ffffffffffffffffffffffffffffffffffffffff168373ffffffffffffffffffffffffffffffffffffffff167f8c5be1e5ebec7d5bd14f71427d1e84f3dd0314c0f7b2291e5b200ac8c7c3b92583604051610f189190611772565b60405180910390a3505050565b6000610f318484610ccd565b90507fffffffffffffffffffffffffffffffffffffffffffffffffffffffffffffffff8114610fab5781811015610f9d576040517f08c379a0000000000000000000000000000000000000000000000000000000008152600401610f9490611e99565b60405180910390fd5b610faa8484848403610d5c565b5b50505050565b600073ffffffffffffffffffffffffffffffffffffffff168373ffffffffffffffffffffffffffffffffffffffff1603611020576040517f08c379a000000000000000000000000000000000000000000000000000000000815260040161101790611f2b565b60405180910390fd5b600073ffffffffffffffffffffffffffffffffffffffff168273ffffffffffffffffffffffffffffffffffffffff160361108f576040517f08c379a000000000000000000000000000000000000000000000000000000000815260040161108690611fbd565b60405180910390fd5b61109a838383611598565b60008060008573ffffffffffffffffffffffffffffffffffffffff1673ffffffffffffffffffffffffffffffffffffffff16815260200190815260200160002054905081811015611120576040517f08c379a00000000000000000000000000000000000000000000000000000000081526004016111179061204f565b60405180910390fd5b8181036000808673ffffffffffffffffffffffffffffffffffffffff1673ffffffffffffffffffffffffffffffffffffffff16815260200190815260200160002081905550816000808573ffffffffffffffffffffffffffffffffffffffff1673ffffffffffffffffffffffffffffffffffffffff16815260200190815260200160002060008282546111b39190611a5f565b925050819055508273ffffffffffffffffffffffffffffffffffffffff168473ffffffffffffffffffffffffffffffffffffffff167fddf252ad1be2c89b69c2b068fc378daa952ba7f163c4a11628f55a4df523b3ef846040516112179190611772565b60405180910390a361122a84848461159d565b50505050565b600073ffffffffffffffffffffffffffffffffffffffff168273ffffffffffffffffffffffffffffffffffffffff160361129f576040517f08c379a0000000000000000000000000000000000000000000000000000000008152600401611296906120bb565b60405180910390fd5b6112ab60008383611598565b80600260008282546112bd9190611a5f565b92505081905550806000808473ffffffffffffffffffffffffffffffffffffffff1673ffffffffffffffffffffffffffffffffffffffff16815260200190815260200160002060008282546113129190611a5f565b925050819055508173ffffffffffffffffffffffffffffffffffffffff16600073ffffffffffffffffffffffffffffffffffffffff167fddf252ad1be2c89b69c2b068fc378daa952ba7f163c4a11628f55a4df523b3ef836040516113779190611772565b60405180910390a361138b6000838361159d565b5050565b600073ffffffffffffffffffffffffffffffffffffffff168273ffffffffffffffffffffffffffffffffffffffff16036113fe576040517f08c379a00000000000000000000000000000000000000000000000000000000081526004016113f59061214d565b60405180910390fd5b61140a82600083611598565b60008060008473ffffffffffffffffffffffffffffffffffffffff1673ffffffffffffffffffffffffffffffffffffffff16815260200190815260200160002054905081811015611490576040517f08c379a0000000000000000000000000000000000000000000000000000000008152600401611487906121df565b60405180910390fd5b8181036000808573ffffffffffffffffffffffffffffffffffffffff1673ffffffffffffffffffffffffffffffffffffffff1681526020019081526020016000208190555081600260008282546114e791906121ff565b92505081905550600073ffffffffffffffffffffffffffffffffffffffff168373ffffffffffffffffffffffffffffffffffffffff167fddf252ad1be2c89b69c2b068fc378daa952ba7f163c4a11628f55a4df523b3ef8460405161154c9190611772565b60405180910390a36115608360008461159d565b505050565b6000818310156115755781611577565b825b905092915050565b600081831061158e5781611590565b825b905092915050565b505050565b505050565b600081519050919050565b600082825260208201905092915050565b60005b838110156115dc5780820151818401526020810190506115c1565b60008484015250505050565b6000601f19601f8301169050919050565b6000611604826115a2565b61160e81856115ad565b935061161e8185602086016115be565b611627816115e8565b840191505092915050565b6000602082019050818103600083015261164c81846115f9565b905092915050565b600080fd5b600073ffffffffffffffffffffffffffffffffffffffff82169050919050565b600061168482611659565b9050919050565b61169481611679565b811461169f57600080fd5b50565b6000813590506116b18161168b565b92915050565b6000819050919050565b6116ca816116b7565b81146116d557600080fd5b50565b6000813590506116e7816116c1565b92915050565b6000806040838503121561170457611703611654565b5b6000611712858286016116a2565b9250506020611723858286016116d8565b9150509250929050565b60008115159050919050565b6117428161172d565b82525050565b600060208201905061175d6000830184611739565b92915050565b61176c816116b7565b82525050565b60006020820190506117876000830184611763565b92915050565b6000806000606084860312156117a6576117a5611654565b5b60006117b4868287016116a2565b93505060206117c5868287016116a2565b92505060406117d6868287016116d8565b9150509250925092565b600060ff82169050919050565b6117f6816117e0565b82525050565b600060208201905061181160008301846117ed565b92915050565b61182081611679565b82525050565b600060208201905061183b6000830184611817565b92915050565b60006020828403121561185757611856611654565b5b6000611865848285016116a2565b91505092915050565b6000819050919050565b600061189361188e61188984611659565b61186e565b611659565b9050919050565b60006118a582611878565b9050919050565b60006118b78261189a565b9050919050565b6118c7816118ac565b82525050565b60006020820190506118e260008301846118be565b92915050565b6118f18161172d565b81146118fc57600080fd5b50565b60008135905061190e816118e8565b92915050565b60008060006060848603121561192d5761192c611654565b5b600061193b868287016116d8565b935050602061194c868287016116d8565b925050604061195d868287016118ff565b9150509250925092565b600060408201905061197c6000830185611763565b6119896020830184611763565b9392505050565b600080604083850312156119a7576119a6611654565b5b60006119b5858286016116a2565b92505060206119c6858286016116a2565b9150509250929050565b7f4e487b7100000000000000000000000000000000000000000000000000000000600052602260045260246000fd5b60006002820490506001821680611a1757607f821691505b602082108103611a2a57611a296119d0565b5b50919050565b7f4e487b7100000000000000000000000000000000000000000000000000000000600052601160045260246000fd5b6000611a6a826116b7565b9150611a75836116b7565b9250828201905080821115611a8d57611a8c611a30565b5b92915050565b7f2d76744578000000000000000000000000000000000000000000000000000000600082015250565b6000611ac96005836115ad565b9150611ad482611a93565b602082019050919050565b60006020820190508181036000830152611af881611abc565b9050919050565b7f45524332303a2064656372656173656420616c6c6f77616e63652062656c6f7760008201527f207a65726f000000000000000000000000000000000000000000000000000000602082015250565b6000611b5b6025836115ad565b9150611b6682611aff565b604082019050919050565b60006020820190508181036000830152611b8a81611b4e565b9050919050565b6000604082019050611ba66000830185611817565b611bb36020830184611763565b9392505050565b600081519050611bc9816118e8565b92915050565b600060208284031215611be557611be4611654565b5b6000611bf384828501611bba565b91505092915050565b7f2d56530000000000000000000000000000000000000000000000000000000000600082015250565b6000611c326003836115ad565b9150611c3d82611bfc565b602082019050919050565b60006020820190508181036000830152611c6181611c25565b9050919050565b611c71816118ac565b82525050565b611c8081611679565b82525050565b6000604082019050611c9b6000830185611c68565b611ca86020830184611c77565b9392505050565b600081519050611cbe816116c1565b92915050565b600060208284031215611cda57611cd9611654565b5b6000611ce884828501611caf565b91505092915050565b611cfa816116b7565b82525050565b6000604082019050611d156000830185611cf1565b611d226020830184611cf1565b9392505050565b7f45524332303a20617070726f76652066726f6d20746865207a65726f2061646460008201527f7265737300000000000000000000000000000000000000000000000000000000602082015250565b6000611d856024836115ad565b9150611d9082611d29565b604082019050919050565b60006020820190508181036000830152611db481611d78565b9050919050565b7f45524332303a20617070726f766520746f20746865207a65726f20616464726560008201527f7373000000000000000000000000000000000000000000000000000000000000602082015250565b6000611e176022836115ad565b9150611e2282611dbb565b604082019050919050565b60006020820190508181036000830152611e4681611e0a565b9050919050565b7f45524332303a20696e73756666696369656e7420616c6c6f77616e6365000000600082015250565b6000611e83601d836115ad565b9150611e8e82611e4d565b602082019050919050565b60006020820190508181036000830152611eb281611e76565b9050919050565b7f45524332303a207472616e736665722066726f6d20746865207a65726f20616460008201527f6472657373000000000000000000000000000000000000000000000000000000602082015250565b6000611f156025836115ad565b9150611f2082611eb9565b604082019050919050565b60006020820190508181036000830152611f4481611f08565b9050919050565b7f45524332303a207472616e7366657220746f20746865207a65726f206164647260008201527f6573730000000000000000000000000000000000000000000000000000000000602082015250565b6000611fa76023836115ad565b9150611fb282611f4b565b604082019050919050565b60006020820190508181036000830152611fd681611f9a565b9050919050565b7f45524332303a207472616e7366657220616d6f756e742065786365656473206260008201527f616c616e63650000000000000000000000000000000000000000000000000000602082015250565b60006120396026836115ad565b915061204482611fdd565b604082019050919050565b600060208201905081810360008301526120688161202c565b9050919050565b7f45524332303a206d696e7420746f20746865207a65726f206164647265737300600082015250565b60006120a5601f836115ad565b91506120b08261206f565b602082019050919050565b600060208201905081810360008301526120d481612098565b9050919050565b7f45524332303a206275726e2066726f6d20746865207a65726f2061646472657360008201527f7300000000000000000000000000000000000000000000000000000000000000602082015250565b60006121376021836115ad565b9150612142826120db565b604082019050919050565b600060208201905081810360008301526121668161212a565b9050919050565b7f45524332303a206275726e20616d6f756e7420657863656564732062616c616e60008201527f6365000000000000000000000000000000000000000000000000000000000000602082015250565b60006121c96022836115ad565b91506121d48261216d565b604082019050919050565b600060208201905081810360008301526121f8816121bc565b9050919050565b600061220a826116b7565b9150612215836116b7565b925082820390508181111561222d5761222c611a30565b5b9291505056fea2646970667358221220c9ba6a1380304d1bbcfdcfe4f543c8832e8e5cc79ba30ff5ef46362078355d7064736f6c63430008110033",
  "immutableReferences": {
    "11798": [
      {
        "length": 32,
        "start": 1873
      }
    ],
    "11800": [
      {
        "length": 32,
        "start": 1463
      }
    ],
    "11802": [
      {
        "length": 32,
        "start": 1307
      },
      {
        "length": 32,
        "start": 1717
      },
      {
        "length": 32,
        "start": 2063
      },
      {
        "length": 32,
        "start": 2470
      }
    ]
  },
  "source": "// SPDX-License-Identifier: MIT\npragma solidity 0.8.17;\n\nimport \"@openzeppelin/contracts/token/ERC20/ERC20.sol\";\nimport \"@openzeppelin/contracts/utils/math/Math.sol\";\nimport \"./libraries/MathLib.sol\";\nimport \"./libraries/MarketLib.sol\";\n\ncontract VolatilityToken is ERC20{\n    using MathLib for uint256;\n    using Math for uint256;\n\n    uint256 public immutable tenor;\n    address public immutable underlying;\n    address public immutable exchange;\n    ERC20 public funding;\n\n    constructor(ERC20 _funding, address _underlying, uint256 _tenor, string memory _name, string memory _symbol, address _exchange ) ERC20(_name, _symbol) {\n        require(_underlying != address(0), \"0addr\");\n        require(_exchange != address(0), \"0addr\");\n\n        funding = _funding;\n        tenor = _tenor;\n        underlying = _underlying;\n        exchange = _exchange;}\n\n    function calcAmount(uint256 _premium, uint256 _vol, bool _mint) external view returns(uint256 _amount, uint256 _volPrice){\n        uint256 _supply = totalSupply();\n        _volPrice = _vol;\n        if(_supply > 0){\n            if(_mint){\n                _volPrice = _vol.max(MarketLib.balanceDef(funding, address(this)).ethdiv(_supply));\n            }\n            else{\n                _volPrice = _vol.min(MarketLib.balanceDef(funding, address(this)).ethdiv(_supply));\n            }\n        }\n        _amount = _premium.ethdiv(_volPrice);\n    }\n    \n    function mint(address _account, uint256 _amount) external {\n        require(msg.sender == exchange, \"-vtEx\");\n        _mint(_account, _amount);}\n    function burn(address _account, uint256 _amount) external {\n        require(msg.sender == exchange, \"-vtEx\");\n        _burn(_account, _amount);}\n    function pay(address _account, uint256 _amount) external {\n        require(msg.sender == exchange, \"-vtEx\");\n        require(funding.transfer(_account, _amount), '-VS');}\n}\n",
  "sourcePath": "/Users/mac/Documents/GitHub/moret/contracts/VolatilityToken.sol",
  "compiler": {
    "name": "solc",
    "version": "0.8.17+commit.8df45f5f.Emscripten.clang"
  },
  "schemaVersion": "3.4.3",
  "updatedAt": "2023-02-23T21:10:18.770Z",
  "networkType": "ethereum",
  "devdoc": {
    "kind": "dev",
    "methods": {
      "allowance(address,address)": {
        "details": "See {IERC20-allowance}."
      },
      "approve(address,uint256)": {
        "details": "See {IERC20-approve}. NOTE: If `amount` is the maximum `uint256`, the allowance is not updated on `transferFrom`. This is semantically equivalent to an infinite approval. Requirements: - `spender` cannot be the zero address."
      },
      "balanceOf(address)": {
        "details": "See {IERC20-balanceOf}."
      },
      "decimals()": {
        "details": "Returns the number of decimals used to get its user representation. For example, if `decimals` equals `2`, a balance of `505` tokens should be displayed to a user as `5.05` (`505 / 10 ** 2`). Tokens usually opt for a value of 18, imitating the relationship between Ether and Wei. This is the value {ERC20} uses, unless this function is overridden; NOTE: This information is only used for _display_ purposes: it in no way affects any of the arithmetic of the contract, including {IERC20-balanceOf} and {IERC20-transfer}."
      },
      "decreaseAllowance(address,uint256)": {
        "details": "Atomically decreases the allowance granted to `spender` by the caller. This is an alternative to {approve} that can be used as a mitigation for problems described in {IERC20-approve}. Emits an {Approval} event indicating the updated allowance. Requirements: - `spender` cannot be the zero address. - `spender` must have allowance for the caller of at least `subtractedValue`."
      },
      "increaseAllowance(address,uint256)": {
        "details": "Atomically increases the allowance granted to `spender` by the caller. This is an alternative to {approve} that can be used as a mitigation for problems described in {IERC20-approve}. Emits an {Approval} event indicating the updated allowance. Requirements: - `spender` cannot be the zero address."
      },
      "name()": {
        "details": "Returns the name of the token."
      },
      "symbol()": {
        "details": "Returns the symbol of the token, usually a shorter version of the name."
      },
      "totalSupply()": {
        "details": "See {IERC20-totalSupply}."
      },
      "transfer(address,uint256)": {
        "details": "See {IERC20-transfer}. Requirements: - `to` cannot be the zero address. - the caller must have a balance of at least `amount`."
      },
      "transferFrom(address,address,uint256)": {
        "details": "See {IERC20-transferFrom}. Emits an {Approval} event indicating the updated allowance. This is not required by the EIP. See the note at the beginning of {ERC20}. NOTE: Does not update the allowance if the current allowance is the maximum `uint256`. Requirements: - `from` and `to` cannot be the zero address. - `from` must have a balance of at least `amount`. - the caller must have allowance for ``from``'s tokens of at least `amount`."
      }
    },
    "version": 1
  },
  "userdoc": {
    "kind": "user",
    "methods": {},
    "version": 1
  }
}