{
  "contractName": "Exchange",
  "abi": [
    {
      "inputs": [
        {
          "internalType": "address",
          "name": "_marketMakerAddress",
          "type": "address"
        },
        {
          "internalType": "address",
          "name": "_optionAddress",
          "type": "address"
        }
      ],
      "stateMutability": "nonpayable",
      "type": "constructor"
    },
    {
      "anonymous": false,
      "inputs": [
        {
          "indexed": true,
          "internalType": "bytes32",
          "name": "role",
          "type": "bytes32"
        },
        {
          "indexed": true,
          "internalType": "bytes32",
          "name": "previousAdminRole",
          "type": "bytes32"
        },
        {
          "indexed": true,
          "internalType": "bytes32",
          "name": "newAdminRole",
          "type": "bytes32"
        }
      ],
      "name": "RoleAdminChanged",
      "type": "event"
    },
    {
      "anonymous": false,
      "inputs": [
        {
          "indexed": true,
          "internalType": "bytes32",
          "name": "role",
          "type": "bytes32"
        },
        {
          "indexed": true,
          "internalType": "address",
          "name": "account",
          "type": "address"
        },
        {
          "indexed": true,
          "internalType": "address",
          "name": "sender",
          "type": "address"
        }
      ],
      "name": "RoleGranted",
      "type": "event"
    },
    {
      "anonymous": false,
      "inputs": [
        {
          "indexed": true,
          "internalType": "bytes32",
          "name": "role",
          "type": "bytes32"
        },
        {
          "indexed": true,
          "internalType": "address",
          "name": "account",
          "type": "address"
        },
        {
          "indexed": true,
          "internalType": "address",
          "name": "sender",
          "type": "address"
        }
      ],
      "name": "RoleRevoked",
      "type": "event"
    },
    {
      "anonymous": false,
      "inputs": [
        {
          "indexed": false,
          "internalType": "address",
          "name": "_recipient",
          "type": "address"
        },
        {
          "indexed": false,
          "internalType": "uint256",
          "name": "_mintMPTokenAmount",
          "type": "uint256"
        },
        {
          "indexed": false,
          "internalType": "uint256",
          "name": "_addedValue",
          "type": "uint256"
        }
      ],
      "name": "capitalAdded",
      "type": "event"
    },
    {
      "anonymous": false,
      "inputs": [
        {
          "indexed": false,
          "internalType": "address",
          "name": "_recipient",
          "type": "address"
        },
        {
          "indexed": false,
          "internalType": "uint256",
          "name": "_burnMPTokenAmount",
          "type": "uint256"
        },
        {
          "indexed": false,
          "internalType": "uint256",
          "name": "_withdrawValue",
          "type": "uint256"
        }
      ],
      "name": "capitalWithdrawn",
      "type": "event"
    },
    {
      "anonymous": false,
      "inputs": [
        {
          "indexed": true,
          "internalType": "address",
          "name": "_purchaser",
          "type": "address"
        },
        {
          "components": [
            {
              "internalType": "enum OptionLibrary.PayoffType",
              "name": "poType",
              "type": "uint8"
            },
            {
              "internalType": "enum OptionLibrary.OptionSide",
              "name": "side",
              "type": "uint8"
            },
            {
              "internalType": "enum OptionLibrary.OptionStatus",
              "name": "status",
              "type": "uint8"
            },
            {
              "internalType": "address",
              "name": "holder",
              "type": "address"
            },
            {
              "internalType": "uint256",
              "name": "id",
              "type": "uint256"
            },
            {
              "internalType": "uint256",
              "name": "createTime",
              "type": "uint256"
            },
            {
              "internalType": "uint256",
              "name": "effectiveTime",
              "type": "uint256"
            },
            {
              "internalType": "uint256",
              "name": "tenor",
              "type": "uint256"
            },
            {
              "internalType": "uint256",
              "name": "maturity",
              "type": "uint256"
            },
            {
              "internalType": "uint256",
              "name": "exerciseTime",
              "type": "uint256"
            },
            {
              "internalType": "uint256",
              "name": "amount",
              "type": "uint256"
            },
            {
              "internalType": "uint256",
              "name": "spot",
              "type": "uint256"
            },
            {
              "internalType": "uint256",
              "name": "strike",
              "type": "uint256"
            },
            {
              "internalType": "uint256",
              "name": "volatility",
              "type": "uint256"
            },
            {
              "internalType": "uint256",
              "name": "premium",
              "type": "uint256"
            },
            {
              "internalType": "uint256",
              "name": "cost",
              "type": "uint256"
            }
          ],
          "indexed": false,
          "internalType": "struct OptionLibrary.Option",
          "name": "_option",
          "type": "tuple"
        },
        {
          "indexed": false,
          "internalType": "uint256",
          "name": "_cost",
          "type": "uint256"
        },
        {
          "indexed": false,
          "internalType": "bool",
          "name": "_inVol",
          "type": "bool"
        }
      ],
      "name": "newOptionBought",
      "type": "event"
    },
    {
      "anonymous": false,
      "inputs": [
        {
          "indexed": false,
          "internalType": "address",
          "name": "_purchaser",
          "type": "address"
        },
        {
          "indexed": false,
          "internalType": "uint256",
          "name": "_time",
          "type": "uint256"
        },
        {
          "indexed": false,
          "internalType": "uint256",
          "name": "_tenor",
          "type": "uint256"
        },
        {
          "indexed": false,
          "internalType": "uint256",
          "name": "_amount",
          "type": "uint256"
        }
      ],
      "name": "newVolatilityTokenBought",
      "type": "event"
    },
    {
      "anonymous": false,
      "inputs": [
        {
          "indexed": true,
          "internalType": "address",
          "name": "_purchaser",
          "type": "address"
        },
        {
          "components": [
            {
              "internalType": "enum OptionLibrary.PayoffType",
              "name": "poType",
              "type": "uint8"
            },
            {
              "internalType": "enum OptionLibrary.OptionSide",
              "name": "side",
              "type": "uint8"
            },
            {
              "internalType": "enum OptionLibrary.OptionStatus",
              "name": "status",
              "type": "uint8"
            },
            {
              "internalType": "address",
              "name": "holder",
              "type": "address"
            },
            {
              "internalType": "uint256",
              "name": "id",
              "type": "uint256"
            },
            {
              "internalType": "uint256",
              "name": "createTime",
              "type": "uint256"
            },
            {
              "internalType": "uint256",
              "name": "effectiveTime",
              "type": "uint256"
            },
            {
              "internalType": "uint256",
              "name": "tenor",
              "type": "uint256"
            },
            {
              "internalType": "uint256",
              "name": "maturity",
              "type": "uint256"
            },
            {
              "internalType": "uint256",
              "name": "exerciseTime",
              "type": "uint256"
            },
            {
              "internalType": "uint256",
              "name": "amount",
              "type": "uint256"
            },
            {
              "internalType": "uint256",
              "name": "spot",
              "type": "uint256"
            },
            {
              "internalType": "uint256",
              "name": "strike",
              "type": "uint256"
            },
            {
              "internalType": "uint256",
              "name": "volatility",
              "type": "uint256"
            },
            {
              "internalType": "uint256",
              "name": "premium",
              "type": "uint256"
            },
            {
              "internalType": "uint256",
              "name": "cost",
              "type": "uint256"
            }
          ],
          "indexed": false,
          "internalType": "struct OptionLibrary.Option",
          "name": "_option",
          "type": "tuple"
        },
        {
          "indexed": false,
          "internalType": "uint256",
          "name": "_payoff",
          "type": "uint256"
        }
      ],
      "name": "optionExercised",
      "type": "event"
    },
    {
      "inputs": [],
      "name": "DEFAULT_ADMIN_ROLE",
      "outputs": [
        {
          "internalType": "bytes32",
          "name": "",
          "type": "bytes32"
        }
      ],
      "stateMutability": "view",
      "type": "function",
      "constant": true
    },
    {
      "inputs": [],
      "name": "allowTrading",
      "outputs": [
        {
          "internalType": "bool",
          "name": "",
          "type": "bool"
        }
      ],
      "stateMutability": "view",
      "type": "function",
      "constant": true
    },
    {
      "inputs": [],
      "name": "contractAddress",
      "outputs": [
        {
          "internalType": "address",
          "name": "",
          "type": "address"
        }
      ],
      "stateMutability": "view",
      "type": "function",
      "constant": true
    },
    {
      "inputs": [
        {
          "internalType": "bytes32",
          "name": "role",
          "type": "bytes32"
        }
      ],
      "name": "getRoleAdmin",
      "outputs": [
        {
          "internalType": "bytes32",
          "name": "",
          "type": "bytes32"
        }
      ],
      "stateMutability": "view",
      "type": "function",
      "constant": true
    },
    {
      "inputs": [
        {
          "internalType": "bytes32",
          "name": "role",
          "type": "bytes32"
        },
        {
          "internalType": "address",
          "name": "account",
          "type": "address"
        }
      ],
      "name": "grantRole",
      "outputs": [],
      "stateMutability": "nonpayable",
      "type": "function"
    },
    {
      "inputs": [
        {
          "internalType": "bytes32",
          "name": "role",
          "type": "bytes32"
        },
        {
          "internalType": "address",
          "name": "account",
          "type": "address"
        }
      ],
      "name": "hasRole",
      "outputs": [
        {
          "internalType": "bool",
          "name": "",
          "type": "bool"
        }
      ],
      "stateMutability": "view",
      "type": "function",
      "constant": true
    },
    {
      "inputs": [],
      "name": "loanInterest",
      "outputs": [
        {
          "internalType": "uint256",
          "name": "",
          "type": "uint256"
        }
      ],
      "stateMutability": "view",
      "type": "function",
      "constant": true
    },
    {
      "inputs": [],
      "name": "marketMakerAddress",
      "outputs": [
        {
          "internalType": "address",
          "name": "",
          "type": "address"
        }
      ],
      "stateMutability": "view",
      "type": "function",
      "constant": true
    },
    {
      "inputs": [
        {
          "internalType": "bytes32",
          "name": "role",
          "type": "bytes32"
        },
        {
          "internalType": "address",
          "name": "account",
          "type": "address"
        }
      ],
      "name": "renounceRole",
      "outputs": [],
      "stateMutability": "nonpayable",
      "type": "function"
    },
    {
      "inputs": [
        {
          "internalType": "bytes32",
          "name": "role",
          "type": "bytes32"
        },
        {
          "internalType": "address",
          "name": "account",
          "type": "address"
        }
      ],
      "name": "revokeRole",
      "outputs": [],
      "stateMutability": "nonpayable",
      "type": "function"
    },
    {
      "inputs": [
        {
          "internalType": "bytes4",
          "name": "interfaceId",
          "type": "bytes4"
        }
      ],
      "name": "supportsInterface",
      "outputs": [
        {
          "internalType": "bool",
          "name": "",
          "type": "bool"
        }
      ],
      "stateMutability": "view",
      "type": "function",
      "constant": true
    },
    {
      "inputs": [],
      "name": "volRiskPremiumMaxRatio",
      "outputs": [
        {
          "internalType": "uint256",
          "name": "",
          "type": "uint256"
        }
      ],
      "stateMutability": "view",
      "type": "function",
      "constant": true
    },
    {
      "inputs": [
        {
          "internalType": "uint256",
          "name": "_tenor",
          "type": "uint256"
        },
        {
          "internalType": "uint256",
          "name": "_strike",
          "type": "uint256"
        },
        {
          "internalType": "uint256",
          "name": "_amount",
          "type": "uint256"
        },
        {
          "internalType": "enum OptionLibrary.PayoffType",
          "name": "_poType",
          "type": "uint8"
        },
        {
          "internalType": "enum OptionLibrary.OptionSide",
          "name": "_side",
          "type": "uint8"
        }
      ],
      "name": "calcOptionCost",
      "outputs": [
        {
          "internalType": "uint256",
          "name": "_premium",
          "type": "uint256"
        },
        {
          "internalType": "uint256",
          "name": "_cost",
          "type": "uint256"
        },
        {
          "internalType": "uint256",
          "name": "_price",
          "type": "uint256"
        },
        {
          "internalType": "uint256",
          "name": "_vol",
          "type": "uint256"
        }
      ],
      "stateMutability": "view",
      "type": "function",
      "constant": true
    },
    {
      "inputs": [
        {
          "internalType": "uint256",
          "name": "_tenor",
          "type": "uint256"
        },
        {
          "internalType": "uint256",
          "name": "_strike",
          "type": "uint256"
        },
        {
          "internalType": "uint256",
          "name": "_amount",
          "type": "uint256"
        },
        {
          "internalType": "enum OptionLibrary.OptionSide",
          "name": "_side",
          "type": "uint8"
        }
      ],
      "name": "queryOptionVolatility",
      "outputs": [
        {
          "internalType": "uint256",
          "name": "_vol",
          "type": "uint256"
        }
      ],
      "stateMutability": "view",
      "type": "function",
      "constant": true
    },
    {
      "inputs": [
        {
          "internalType": "uint256",
          "name": "_tenor",
          "type": "uint256"
        },
        {
          "internalType": "uint256",
          "name": "_strike",
          "type": "uint256"
        },
        {
          "internalType": "uint256",
          "name": "_amount",
          "type": "uint256"
        },
        {
          "internalType": "enum OptionLibrary.PayoffType",
          "name": "_poType",
          "type": "uint8"
        },
        {
          "internalType": "enum OptionLibrary.OptionSide",
          "name": "_side",
          "type": "uint8"
        },
        {
          "internalType": "uint256",
          "name": "_payInCost",
          "type": "uint256"
        }
      ],
      "name": "purchaseOption",
      "outputs": [],
      "stateMutability": "nonpayable",
      "type": "function"
    },
    {
      "inputs": [
        {
          "internalType": "uint256",
          "name": "_loanInterest",
          "type": "uint256"
        }
      ],
      "name": "resetLoanRate",
      "outputs": [],
      "stateMutability": "nonpayable",
      "type": "function"
    },
    {
      "inputs": [
        {
          "internalType": "uint256",
          "name": "_newRatio",
          "type": "uint256"
        }
      ],
      "name": "resetRiskPremiumMaxRatio",
      "outputs": [],
      "stateMutability": "nonpayable",
      "type": "function"
    },
    {
      "inputs": [
        {
          "internalType": "bool",
          "name": "_allowTrading",
          "type": "bool"
        }
      ],
      "name": "resetTrading",
      "outputs": [],
      "stateMutability": "nonpayable",
      "type": "function"
    },
    {
      "inputs": [],
      "name": "queryPrice",
      "outputs": [
        {
          "internalType": "uint256",
          "name": "",
          "type": "uint256"
        },
        {
          "internalType": "uint256",
          "name": "",
          "type": "uint256"
        }
      ],
      "stateMutability": "view",
      "type": "function",
      "constant": true
    },
    {
      "inputs": [
        {
          "internalType": "uint256",
          "name": "_tenor",
          "type": "uint256"
        }
      ],
      "name": "queryVol",
      "outputs": [
        {
          "internalType": "uint256",
          "name": "",
          "type": "uint256"
        }
      ],
      "stateMutability": "view",
      "type": "function",
      "constant": true
    }
  ],
  "bytecode": "0x60806040526718fae27693b4000060055560006006556001600760006101000a81548160ff0219169083151502179055503480156200003d57600080fd5b506040516200384638038062003846833981810160405281019062000063919062000367565b620000786000801b336200018460201b60201c565b80600460006101000a81548173ffffffffffffffffffffffffffffffffffffffff021916908373ffffffffffffffffffffffffffffffffffffffff16021790555081600260006101000a81548173ffffffffffffffffffffffffffffffffffffffff021916908373ffffffffffffffffffffffffffffffffffffffff16021790555081600360006101000a81548173ffffffffffffffffffffffffffffffffffffffff021916908373ffffffffffffffffffffffffffffffffffffffff16021790555030600160006101000a81548173ffffffffffffffffffffffffffffffffffffffff021916908373ffffffffffffffffffffffffffffffffffffffff1602179055505050620003ae565b6200019682826200019a60201b60201c565b5050565b620001ac82826200028b60201b60201c565b6200028757600160008084815260200190815260200160002060000160008373ffffffffffffffffffffffffffffffffffffffff1673ffffffffffffffffffffffffffffffffffffffff16815260200190815260200160002060006101000a81548160ff0219169083151502179055506200022c620002f560201b60201c565b73ffffffffffffffffffffffffffffffffffffffff168173ffffffffffffffffffffffffffffffffffffffff16837f2f8788117e7eff1d82e926ec794901d17c78024a50270940304540a733656f0d60405160405180910390a45b5050565b600080600084815260200190815260200160002060000160008373ffffffffffffffffffffffffffffffffffffffff1673ffffffffffffffffffffffffffffffffffffffff16815260200190815260200160002060009054906101000a900460ff16905092915050565b600033905090565b600080fd5b600073ffffffffffffffffffffffffffffffffffffffff82169050919050565b60006200032f8262000302565b9050919050565b620003418162000322565b81146200034d57600080fd5b50565b600081519050620003618162000336565b92915050565b60008060408385031215620003815762000380620002fd565b5b6000620003918582860162000350565b9250506020620003a48582860162000350565b9150509250929050565b61348880620003be6000396000f3fe608060405234801561001057600080fd5b506004361061012c5760003560e01c80638d4939c6116100ad578063b0667cf811610071578063b0667cf814610344578063cc91058814610363578063cfc2dc2014610381578063d547741f146103b1578063f6b4dfb4146103cd5761012c565b80638d4939c6146102a057806391d14854146102bc578063a217fddf146102ec578063a34a1e4d1461030a578063a7292ea4146103265761012c565b80632f2ff15d116100f45780632f2ff15d146101e957806336568abe146102055780636a7d116f1461022157806385e6be8b14610251578063896b5b1d1461026d5761012c565b806301ffc9a7146101315780630875c6b1146101615780630c64307d1461017f578063248a9ca31461019b5780632e5b4c43146101cb575b600080fd5b61014b60048036038101906101469190612145565b6103eb565b604051610158919061218d565b60405180910390f35b610169610465565b60405161017691906121c1565b60405180910390f35b61019960048036038101906101949190612208565b61046b565b005b6101b560048036038101906101b0919061226b565b61048b565b6040516101c291906122a7565b60405180910390f35b6101d36104aa565b6040516101e0919061218d565b60405180910390f35b61020360048036038101906101fe9190612320565b6104bd565b005b61021f600480360381019061021a9190612320565b6104e6565b005b61023b60048036038101906102369190612385565b610569565b60405161024891906121c1565b60405180910390f35b61026b60048036038101906102669190612208565b6106df565b005b61028760048036038101906102829190612411565b6106ff565b604051610297949392919061248c565b60405180910390f35b6102ba60048036038101906102b591906124fd565b610d53565b005b6102d660048036038101906102d19190612320565b610d86565b6040516102e3919061218d565b60405180910390f35b6102f4610df0565b60405161030191906122a7565b60405180910390f35b610324600480360381019061031f919061252a565b610df7565b005b61032e61121d565b60405161033b91906121c1565b60405180910390f35b61034c611223565b60405161035a9291906125b7565b60405180910390f35b61036b6112cd565b60405161037891906125ef565b60405180910390f35b61039b60048036038101906103969190612208565b6112f3565b6040516103a891906121c1565b60405180910390f35b6103cb60048036038101906103c69190612320565b6113a7565b005b6103d56113d0565b6040516103e291906125ef565b60405180910390f35b60007f7965db0b000000000000000000000000000000000000000000000000000000007bffffffffffffffffffffffffffffffffffffffffffffffffffffffff1916827bffffffffffffffffffffffffffffffffffffffffffffffffffffffff1916148061045e575061045d826113f6565b5b9050919050565b60055481565b6000801b6104808161047b611460565b611468565b816006819055505050565b6000806000838152602001908152602001600020600101549050919050565b600760009054906101000a900460ff1681565b6104c68261048b565b6104d7816104d2611460565b611468565b6104e18383611505565b505050565b6104ee611460565b73ffffffffffffffffffffffffffffffffffffffff168173ffffffffffffffffffffffffffffffffffffffff161461055b576040517f08c379a00000000000000000000000000000000000000000000000000000000081526004016105529061268d565b60405180910390fd5b61056582826115e5565b5050565b6000600460009054906101000a900473ffffffffffffffffffffffffffffffffffffffff1673ffffffffffffffffffffffffffffffffffffffff1663cfc2dc20866040518263ffffffff1660e01b81526004016105c691906121c1565b60206040518083038186803b1580156105de57600080fd5b505afa1580156105f2573d6000803e3d6000fd5b505050506040513d601f19601f8201168201806040525081019061061691906126c2565b90506000600460009054906101000a900473ffffffffffffffffffffffffffffffffffffffff1673ffffffffffffffffffffffffffffffffffffffff1663b0667cf86040518163ffffffff1660e01b8152600401604080518083038186803b15801561068157600080fd5b505afa158015610695573d6000803e3d6000fd5b505050506040513d601f19601f820116820180604052508101906106b991906126ef565b5090506106c981838787876116c6565b826106d4919061275e565b915050949350505050565b6000801b6106f4816106ef611460565b611468565b816005819055505050565b60008060008061071189898988610569565b9050600073__OptionLibrary_________________________63508cd14e8a6000600360009054906101000a900473ffffffffffffffffffffffffffffffffffffffff1673ffffffffffffffffffffffffffffffffffffffff16631aedeabe6040518163ffffffff1660e01b815260040160206040518083038186803b15801561079a57600080fd5b505afa1580156107ae573d6000803e3d6000fd5b505050506040513d601f19601f820116820180604052508101906107d291906126c2565b60006040518563ffffffff1660e01b81526004016107f39493929190612817565b60206040518083038186803b15801561080b57600080fd5b505af415801561081f573d6000803e3d6000fd5b505050506040513d601f19601f8201168201806040525081019061084391906126c2565b90506001808111156108585761085761285c565b5b87600181111561086b5761086a61285c565b5b14801561089c5750600060018111156108875761088661285c565b5b86600181111561089a5761089961285c565b5b145b806108fa5750600060018111156108b6576108b561285c565b5b8760018111156108c9576108c861285c565b5b1480156108f957506001808111156108e4576108e361285c565b5b8660018111156108f7576108f661285c565b5b145b5b15610a315773__OptionLibrary_________________________63508cd14e8a6001600360009054906101000a900473ffffffffffffffffffffffffffffffffffffffff1673ffffffffffffffffffffffffffffffffffffffff16631aedeabe6040518163ffffffff1660e01b815260040160206040518083038186803b15801561098457600080fd5b505afa158015610998573d6000803e3d6000fd5b505050506040513d601f19601f820116820180604052508101906109bc91906126c2565b6006546040518563ffffffff1660e01b81526004016109de949392919061288b565b60206040518083038186803b1580156109f657600080fd5b505af4158015610a0a573d6000803e3d6000fd5b505050506040513d601f19601f82011682018060405250810190610a2e91906126c2565b90505b600460009054906101000a900473ffffffffffffffffffffffffffffffffffffffff1673ffffffffffffffffffffffffffffffffffffffff1663472d2a4a8b838b868c8c6040518763ffffffff1660e01b8152600401610a9696959493929190612960565b60606040518083038186803b158015610aae57600080fd5b505afa158015610ac2573d6000803e3d6000fd5b505050506040513d601f19601f82011682018060405250810190610ae691906129c1565b80955081965082975050505073__MarketLibrary_________________________638170ce8086600360009054906101000a900473ffffffffffffffffffffffffffffffffffffffff1673ffffffffffffffffffffffffffffffffffffffff1663d3b7bfb46040518163ffffffff1660e01b815260040160206040518083038186803b158015610b7557600080fd5b505afa158015610b89573d6000803e3d6000fd5b505050506040513d601f19601f82011682018060405250810190610bad9190612a29565b6040518363ffffffff1660e01b8152600401610bca929190612a65565b60206040518083038186803b158015610be257600080fd5b505af4158015610bf6573d6000803e3d6000fd5b505050506040513d601f19601f82011682018060405250810190610c1a91906126c2565b945073__MarketLibrary_________________________638170ce8085600360009054906101000a900473ffffffffffffffffffffffffffffffffffffffff1673ffffffffffffffffffffffffffffffffffffffff1663d3b7bfb46040518163ffffffff1660e01b815260040160206040518083038186803b158015610c9f57600080fd5b505afa158015610cb3573d6000803e3d6000fd5b505050506040513d601f19601f82011682018060405250810190610cd79190612a29565b6040518363ffffffff1660e01b8152600401610cf4929190612a65565b60206040518083038186803b158015610d0c57600080fd5b505af4158015610d20573d6000803e3d6000fd5b505050506040513d601f19601f82011682018060405250810190610d4491906126c2565b93505095509550955095915050565b6000801b610d6881610d63611460565b611468565b81600760006101000a81548160ff0219169083151502179055505050565b600080600084815260200190815260200160002060000160008373ffffffffffffffffffffffffffffffffffffffff1673ffffffffffffffffffffffffffffffffffffffff16815260200190815260200160002060009054906101000a900460ff16905092915050565b6000801b81565b600760009054906101000a900460ff16610e46576040517f08c379a0000000000000000000000000000000000000000000000000000000008152600401610e3d90612ada565b60405180910390fd5b600080600080610e598a8a8a8a8a6106ff565b935093509350935082851015610ea4576040517f08c379a0000000000000000000000000000000000000000000000000000000008152600401610e9b90612b46565b60405180910390fd5b6000600460009054906101000a900473ffffffffffffffffffffffffffffffffffffffff1673ffffffffffffffffffffffffffffffffffffffff1663f7327abd8c8c8c8c8c8b8b8b8b6040518a63ffffffff1660e01b8152600401610f1199989796959493929190612b66565b602060405180830381600087803b158015610f2b57600080fd5b505af1158015610f3f573d6000803e3d6000fd5b505050506040513d601f19601f82011682018060405250810190610f6391906126c2565b9050600360009054906101000a900473ffffffffffffffffffffffffffffffffffffffff1673ffffffffffffffffffffffffffffffffffffffff1663d3b7bfb46040518163ffffffff1660e01b815260040160206040518083038186803b158015610fcd57600080fd5b505afa158015610fe1573d6000803e3d6000fd5b505050506040513d601f19601f820116820180604052508101906110059190612a29565b73ffffffffffffffffffffffffffffffffffffffff166323b872dd33600360009054906101000a900473ffffffffffffffffffffffffffffffffffffffff16896040518463ffffffff1660e01b815260040161106393929190612bf3565b602060405180830381600087803b15801561107d57600080fd5b505af1158015611091573d6000803e3d6000fd5b505050506040513d601f19601f820116820180604052508101906110b59190612c3f565b6110f4576040517f08c379a00000000000000000000000000000000000000000000000000000000081526004016110eb90612cb8565b60405180910390fd5b600460009054906101000a900473ffffffffffffffffffffffffffffffffffffffff1673ffffffffffffffffffffffffffffffffffffffff166328e493c1826040518263ffffffff1660e01b815260040161114f91906121c1565b600060405180830381600087803b15801561116957600080fd5b505af115801561117d573d6000803e3d6000fd5b50505050600360009054906101000a900473ffffffffffffffffffffffffffffffffffffffff1673ffffffffffffffffffffffffffffffffffffffff16638a9450fe33836040518363ffffffff1660e01b81526004016111de929190612cd8565b600060405180830381600087803b1580156111f857600080fd5b505af115801561120c573d6000803e3d6000fd5b505050505050505050505050505050565b60065481565b600080600460009054906101000a900473ffffffffffffffffffffffffffffffffffffffff1673ffffffffffffffffffffffffffffffffffffffff1663b0667cf86040518163ffffffff1660e01b8152600401604080518083038186803b15801561128d57600080fd5b505afa1580156112a1573d6000803e3d6000fd5b505050506040513d601f19601f820116820180604052508101906112c591906126ef565b915091509091565b600260009054906101000a900473ffffffffffffffffffffffffffffffffffffffff1681565b6000600460009054906101000a900473ffffffffffffffffffffffffffffffffffffffff1673ffffffffffffffffffffffffffffffffffffffff1663cfc2dc20836040518263ffffffff1660e01b815260040161135091906121c1565b60206040518083038186803b15801561136857600080fd5b505afa15801561137c573d6000803e3d6000fd5b505050506040513d601f19601f820116820180604052508101906113a091906126c2565b9050919050565b6113b08261048b565b6113c1816113bc611460565b611468565b6113cb83836115e5565b505050565b600160009054906101000a900473ffffffffffffffffffffffffffffffffffffffff1681565b60007f01ffc9a7000000000000000000000000000000000000000000000000000000007bffffffffffffffffffffffffffffffffffffffffffffffffffffffff1916827bffffffffffffffffffffffffffffffffffffffffffffffffffffffff1916149050919050565b600033905090565b6114728282610d86565b611501576114978173ffffffffffffffffffffffffffffffffffffffff166014611b01565b6114a58360001c6020611b01565b6040516020016114b6929190612e13565b6040516020818303038152906040526040517f08c379a00000000000000000000000000000000000000000000000000000000081526004016114f89190612e97565b60405180910390fd5b5050565b61150f8282610d86565b6115e157600160008084815260200190815260200160002060000160008373ffffffffffffffffffffffffffffffffffffffff1673ffffffffffffffffffffffffffffffffffffffff16815260200190815260200160002060006101000a81548160ff021916908315150217905550611586611460565b73ffffffffffffffffffffffffffffffffffffffff168173ffffffffffffffffffffffffffffffffffffffff16837f2f8788117e7eff1d82e926ec794901d17c78024a50270940304540a733656f0d60405160405180910390a45b5050565b6115ef8282610d86565b156116c257600080600084815260200190815260200160002060000160008373ffffffffffffffffffffffffffffffffffffffff1673ffffffffffffffffffffffffffffffffffffffff16815260200190815260200160002060006101000a81548160ff021916908315150217905550611667611460565b73ffffffffffffffffffffffffffffffffffffffff168173ffffffffffffffffffffffffffffffffffffffff16837ff6391f5c32d9c69d2a47ea670b442974b53935d1edc7fd64eb21e047a839171b60405160405180910390a45b5050565b60008061180b73__OptionLibrary_________________________639932b2be898a8a6040518463ffffffff1660e01b815260040161170793929190612eb9565b60206040518083038186803b15801561171f57600080fd5b505af4158015611733573d6000803e3d6000fd5b505050506040513d601f19601f8201168201806040525081019061175791906126c2565b600360009054906101000a900473ffffffffffffffffffffffffffffffffffffffff1673ffffffffffffffffffffffffffffffffffffffff1663634479026000806040518363ffffffff1660e01b81526004016117b5929190612ef0565b60206040518083038186803b1580156117cd57600080fd5b505afa1580156117e1573d6000803e3d6000fd5b505050506040513d601f19601f8201168201806040525081019061180591906126c2565b89611d3d565b90506000600360009054906101000a900473ffffffffffffffffffffffffffffffffffffffff1673ffffffffffffffffffffffffffffffffffffffff16639462ad6560006040518263ffffffff1660e01b815260040161186b919061218d565b60206040518083038186803b15801561188357600080fd5b505afa158015611897573d6000803e3d6000fd5b505050506040513d601f19601f820116820180604052508101906118bb9190612f4f565b905060006001808111156118d2576118d161285c565b5b8560018111156118e5576118e461285c565b5b146118f1576001611913565b7fffffffffffffffffffffffffffffffffffffffffffffffffffffffffffffffff5b611a2373__OptionLibrary_________________________639932b2be8c8b8d6040518463ffffffff1660e01b815260040161195193929190612eb9565b60206040518083038186803b15801561196957600080fd5b505af415801561197d573d6000803e3d6000fd5b505050506040513d601f19601f820116820180604052508101906119a191906126c2565b8873__OptionLibrary_________________________63fd9b87636040518163ffffffff1660e01b815260040160206040518083038186803b1580156119e657600080fd5b505af41580156119fa573d6000803e3d6000fd5b505050506040513d601f19601f82011682018060405250810190611a1e91906126c2565b611d3d565b611a2d9190612f7c565b82611a389190613093565b90506000611ac48960055473__OptionLibrary_________________________63fd9b87636040518163ffffffff1660e01b815260040160206040518083038186803b158015611a8757600080fd5b505af4158015611a9b573d6000803e3d6000fd5b505050506040513d601f19601f82011682018060405250810190611abf91906126c2565b611d3d565b90506002611ad3858484611e39565b611ade868685611e39565b611ae8919061275e565b611af29190613156565b94505050505095945050505050565b606060006002836002611b149190613187565b611b1e919061275e565b67ffffffffffffffff811115611b3757611b366131e1565b5b6040519080825280601f01601f191660200182016040528015611b695781602001600182028036833780820191505090505b5090507f300000000000000000000000000000000000000000000000000000000000000081600081518110611ba157611ba0613210565b5b60200101907effffffffffffffffffffffffffffffffffffffffffffffffffffffffffffff1916908160001a9053507f780000000000000000000000000000000000000000000000000000000000000081600181518110611c0557611c04613210565b5b60200101907effffffffffffffffffffffffffffffffffffffffffffffffffffffffffffff1916908160001a90535060006001846002611c459190613187565b611c4f919061275e565b90505b6001811115611cef577f3031323334353637383961626364656600000000000000000000000000000000600f861660108110611c9157611c90613210565b5b1a60f81b828281518110611ca857611ca7613210565b5b60200101907effffffffffffffffffffffffffffffffffffffffffffffffffffffffffffff1916908160001a905350600485901c945080611ce89061323f565b9050611c52565b5060008414611d33576040517f08c379a0000000000000000000000000000000000000000000000000000000008152600401611d2a906132b5565b60405180910390fd5b8091505092915050565b600080600080198587098587029250828110838203039150506000811415611d785760008411611d6c57600080fd5b83820492505050611e32565b808411611d8457600080fd5b60008486880990508281118203915080830392506000856001877fffffffffffffffffffffffffffffffffffffffffffffffffffffffffffffffff0301169050808604955080840493506001818260000304019050808302841793506000600287600302189050808702600203810290508087026002038102905080870260020381029050808702600203810290508087026002038102905080870260020381029050808502955050505050505b9392505050565b60008073__OptionLibrary_________________________63fd9b87636040518163ffffffff1660e01b815260040160206040518083038186803b158015611e8057600080fd5b505af4158015611e94573d6000803e3d6000fd5b505050506040513d601f19601f82011682018060405250810190611eb891906126c2565b90506000841215611f6057611f5284611ed0906132d5565b73__OptionLibrary_________________________63fd9b87636040518163ffffffff1660e01b815260040160206040518083038186803b158015611f1457600080fd5b505af4158015611f28573d6000803e3d6000fd5b505050506040513d601f19601f82011682018060405250810190611f4c91906126c2565b87611d3d565b81611f5d9190613093565b90505b6000841315611ffd57611fef8473__OptionLibrary_________________________63fd9b87636040518163ffffffff1660e01b815260040160206040518083038186803b158015611fb157600080fd5b505af4158015611fc5573d6000803e3d6000fd5b505050506040513d601f19601f82011682018060405250810190611fe991906126c2565b87611d3d565b81611ffa919061331e565b90505b60008113158061200e575060028112155b61204d576040517f08c379a0000000000000000000000000000000000000000000000000000000008152600401612044906133fe565b60405180910390fd5b826120d48473__OptionLibrary_________________________63fd9b87636040518163ffffffff1660e01b815260040160206040518083038186803b15801561209657600080fd5b505af41580156120aa573d6000803e3d6000fd5b505050506040513d601f19601f820116820180604052508101906120ce91906126c2565b84611d3d565b6120de919061341e565b9150509392505050565b600080fd5b60007fffffffff0000000000000000000000000000000000000000000000000000000082169050919050565b612122816120ed565b811461212d57600080fd5b50565b60008135905061213f81612119565b92915050565b60006020828403121561215b5761215a6120e8565b5b600061216984828501612130565b91505092915050565b60008115159050919050565b61218781612172565b82525050565b60006020820190506121a2600083018461217e565b92915050565b6000819050919050565b6121bb816121a8565b82525050565b60006020820190506121d660008301846121b2565b92915050565b6121e5816121a8565b81146121f057600080fd5b50565b600081359050612202816121dc565b92915050565b60006020828403121561221e5761221d6120e8565b5b600061222c848285016121f3565b91505092915050565b6000819050919050565b61224881612235565b811461225357600080fd5b50565b6000813590506122658161223f565b92915050565b600060208284031215612281576122806120e8565b5b600061228f84828501612256565b91505092915050565b6122a181612235565b82525050565b60006020820190506122bc6000830184612298565b92915050565b600073ffffffffffffffffffffffffffffffffffffffff82169050919050565b60006122ed826122c2565b9050919050565b6122fd816122e2565b811461230857600080fd5b50565b60008135905061231a816122f4565b92915050565b60008060408385031215612337576123366120e8565b5b600061234585828601612256565b92505060206123568582860161230b565b9150509250929050565b6002811061236d57600080fd5b50565b60008135905061237f81612360565b92915050565b6000806000806080858703121561239f5761239e6120e8565b5b60006123ad878288016121f3565b94505060206123be878288016121f3565b93505060406123cf878288016121f3565b92505060606123e087828801612370565b91505092959194509250565b600281106123f957600080fd5b50565b60008135905061240b816123ec565b92915050565b600080600080600060a0868803121561242d5761242c6120e8565b5b600061243b888289016121f3565b955050602061244c888289016121f3565b945050604061245d888289016121f3565b935050606061246e888289016123fc565b925050608061247f88828901612370565b9150509295509295909350565b60006080820190506124a160008301876121b2565b6124ae60208301866121b2565b6124bb60408301856121b2565b6124c860608301846121b2565b95945050505050565b6124da81612172565b81146124e557600080fd5b50565b6000813590506124f7816124d1565b92915050565b600060208284031215612513576125126120e8565b5b6000612521848285016124e8565b91505092915050565b60008060008060008060c08789031215612547576125466120e8565b5b600061255589828a016121f3565b965050602061256689828a016121f3565b955050604061257789828a016121f3565b945050606061258889828a016123fc565b935050608061259989828a01612370565b92505060a06125aa89828a016121f3565b9150509295509295509295565b60006040820190506125cc60008301856121b2565b6125d960208301846121b2565b9392505050565b6125e9816122e2565b82525050565b600060208201905061260460008301846125e0565b92915050565b600082825260208201905092915050565b7f416363657373436f6e74726f6c3a2063616e206f6e6c792072656e6f756e636560008201527f20726f6c657320666f722073656c660000000000000000000000000000000000602082015250565b6000612677602f8361260a565b91506126828261261b565b604082019050919050565b600060208201905081810360008301526126a68161266a565b9050919050565b6000815190506126bc816121dc565b92915050565b6000602082840312156126d8576126d76120e8565b5b60006126e6848285016126ad565b91505092915050565b60008060408385031215612706576127056120e8565b5b6000612714858286016126ad565b9250506020612725858286016126ad565b9150509250929050565b7f4e487b7100000000000000000000000000000000000000000000000000000000600052601160045260246000fd5b6000612769826121a8565b9150612774836121a8565b9250827fffffffffffffffffffffffffffffffffffffffffffffffffffffffffffffffff038211156127a9576127a861272f565b5b828201905092915050565b6127bd816121a8565b82525050565b6127cc81612172565b82525050565b6000819050919050565b6000819050919050565b60006128016127fc6127f7846127d2565b6127dc565b6121a8565b9050919050565b612811816127e6565b82525050565b600060808201905061282c60008301876127b4565b61283960208301866127c3565b61284660408301856127b4565b6128536060830184612808565b95945050505050565b7f4e487b7100000000000000000000000000000000000000000000000000000000600052602160045260246000fd5b60006080820190506128a060008301876127b4565b6128ad60208301866127c3565b6128ba60408301856127b4565b6128c760608301846127b4565b95945050505050565b600281106128e1576128e061285c565b5b50565b60008190506128f2826128d0565b919050565b6000612902826128e4565b9050919050565b612912816128f7565b82525050565b600281106129295761292861285c565b5b50565b600081905061293a82612918565b919050565b600061294a8261292c565b9050919050565b61295a8161293f565b82525050565b600060c08201905061297560008301896121b2565b61298260208301886121b2565b61298f60408301876121b2565b61299c60608301866121b2565b6129a96080830185612909565b6129b660a0830184612951565b979650505050505050565b6000806000606084860312156129da576129d96120e8565b5b60006129e8868287016126ad565b93505060206129f9868287016126ad565b9250506040612a0a868287016126ad565b9150509250925092565b600081519050612a23816122f4565b92915050565b600060208284031215612a3f57612a3e6120e8565b5b6000612a4d84828501612a14565b91505092915050565b612a5f816122e2565b82525050565b6000604082019050612a7a60008301856127b4565b612a876020830184612a56565b9392505050565b7f54726164696e672073746f707065642100000000000000000000000000000000600082015250565b6000612ac460108361260a565b9150612acf82612a8e565b602082019050919050565b60006020820190508181036000830152612af381612ab7565b9050919050565b7f496e636f727265637420636f737420706169642e000000000000000000000000600082015250565b6000612b3060148361260a565b9150612b3b82612afa565b602082019050919050565b60006020820190508181036000830152612b5f81612b23565b9050919050565b600061012082019050612b7c600083018c6121b2565b612b89602083018b6121b2565b612b96604083018a6121b2565b612ba36060830189612909565b612bb06080830188612951565b612bbd60a08301876121b2565b612bca60c08301866121b2565b612bd760e08301856121b2565b612be56101008301846121b2565b9a9950505050505050505050565b6000606082019050612c0860008301866125e0565b612c1560208301856125e0565b612c2260408301846121b2565b949350505050565b600081519050612c39816124d1565b92915050565b600060208284031215612c5557612c546120e8565b5b6000612c6384828501612c2a565b91505092915050565b7f4661696c6564207061796d656e742e0000000000000000000000000000000000600082015250565b6000612ca2600f8361260a565b9150612cad82612c6c565b602082019050919050565b60006020820190508181036000830152612cd181612c95565b9050919050565b6000604082019050612ced60008301856125e0565b612cfa60208301846121b2565b9392505050565b600081905092915050565b7f416363657373436f6e74726f6c3a206163636f756e7420000000000000000000600082015250565b6000612d42601783612d01565b9150612d4d82612d0c565b601782019050919050565b600081519050919050565b60005b83811015612d81578082015181840152602081019050612d66565b83811115612d90576000848401525b50505050565b6000612da182612d58565b612dab8185612d01565b9350612dbb818560208601612d63565b80840191505092915050565b7f206973206d697373696e6720726f6c6520000000000000000000000000000000600082015250565b6000612dfd601183612d01565b9150612e0882612dc7565b601182019050919050565b6000612e1e82612d35565b9150612e2a8285612d96565b9150612e3582612df0565b9150612e418284612d96565b91508190509392505050565b6000601f19601f8301169050919050565b6000612e6982612d58565b612e73818561260a565b9350612e83818560208601612d63565b612e8c81612e4d565b840191505092915050565b60006020820190508181036000830152612eb18184612e5e565b905092915050565b6000606082019050612ece60008301866127b4565b612edb60208301856127b4565b612ee860408301846127b4565b949350505050565b6000604082019050612f05600083018561217e565b612f12602083018461217e565b9392505050565b6000819050919050565b612f2c81612f19565b8114612f3757600080fd5b50565b600081519050612f4981612f23565b92915050565b600060208284031215612f6557612f646120e8565b5b6000612f7384828501612f3a565b91505092915050565b6000612f8782612f19565b9150612f9283612f19565b9250827f7fffffffffffffffffffffffffffffffffffffffffffffffffffffffffffffff0482116000841360008413161615612fd157612fd061272f565b5b817f8000000000000000000000000000000000000000000000000000000000000000058312600084126000841316161561300e5761300d61272f565b5b827f8000000000000000000000000000000000000000000000000000000000000000058212600084136000841216161561304b5761304a61272f565b5b827f7fffffffffffffffffffffffffffffffffffffffffffffffffffffffffffffff05821260008412600084121616156130885761308761272f565b5b828202905092915050565b600061309e82612f19565b91506130a983612f19565b9250817f7fffffffffffffffffffffffffffffffffffffffffffffffffffffffffffffff038313600083121516156130e4576130e361272f565b5b817f800000000000000000000000000000000000000000000000000000000000000003831260008312161561311c5761311b61272f565b5b828201905092915050565b7f4e487b7100000000000000000000000000000000000000000000000000000000600052601260045260246000fd5b6000613161826121a8565b915061316c836121a8565b92508261317c5761317b613127565b5b828204905092915050565b6000613192826121a8565b915061319d836121a8565b9250817fffffffffffffffffffffffffffffffffffffffffffffffffffffffffffffffff04831182151516156131d6576131d561272f565b5b828202905092915050565b7f4e487b7100000000000000000000000000000000000000000000000000000000600052604160045260246000fd5b7f4e487b7100000000000000000000000000000000000000000000000000000000600052603260045260246000fd5b600061324a826121a8565b9150600082141561325e5761325d61272f565b5b600182039050919050565b7f537472696e67733a20686578206c656e67746820696e73756666696369656e74600082015250565b600061329f60208361260a565b91506132aa82613269565b602082019050919050565b600060208201905081810360008301526132ce81613292565b9050919050565b60006132e082612f19565b91507f80000000000000000000000000000000000000000000000000000000000000008214156133135761331261272f565b5b816000039050919050565b600061332982612f19565b915061333483612f19565b9250827f80000000000000000000000000000000000000000000000000000000000000000182126000841215161561336f5761336e61272f565b5b827f7fffffffffffffffffffffffffffffffffffffffffffffffffffffffffffffff0182136000841216156133a7576133a661272f565b5b828203905092915050565b7f4361706163697479206c696d69742062726561636865642e0000000000000000600082015250565b60006133e860188361260a565b91506133f3826133b2565b602082019050919050565b60006020820190508181036000830152613417816133db565b9050919050565b6000613429826121a8565b9150613434836121a8565b9250828210156134475761344661272f565b5b82820390509291505056fea264697066735822122058a8062bea17a8e42a374a9f1285e3e089406ea695525b219515778812e669c064736f6c63430008090033",
  "immutableReferences": {},
  "source": "// SPDX-License-Identifier: MIT\npragma solidity 0.8.9;\n\nimport \"@openzeppelin/contracts/token/ERC20/ERC20.sol\";\nimport \"@openzeppelin/contracts/access/AccessControl.sol\";\nimport \"@openzeppelin/contracts/utils/structs/EnumerableSet.sol\";\nimport \"@openzeppelin/contracts/utils/math/Math.sol\";\nimport \"./MoretInterfaces.sol\";\nimport \"./VolatilityToken.sol\";\nimport \"./MoretMarketMaker.sol\";\nimport \"./FullMath.sol\";\n\ncontract Exchange is AccessControl, EOption{\n  // bytes32 public constant MINER_ROLE = keccak256(\"MINER_ROLE\");\n  // OptionLibrary.Percent public volTransactionFees = OptionLibrary.Percent(5 * 10 ** 3, 10 ** 6);\n  address public contractAddress;\n  address public marketMakerAddress;\n  // ERC20 internal underlyingToken; // used to pay premiums (vol token is alternative)\n  // mapping(uint256=>VolatilityToken) public volTokensList;\n\n  MoretMarketMaker internal marketMaker;\n  IOptionVault internal optionVault;\n\n  uint256 public volRiskPremiumMaxRatio= 18 * (10 ** 17);\n  uint256 public loanInterest = 0;\n\n  // ILendingPoolAddressesProvider internal lendingPoolAddressProvider;\n  // address internal swapRouterAddress;\n  // address internal aggregatorAddress;\n\n  // uint256 private constant ethMultiplier = 10 ** 18;\n  bool public allowTrading = true;\n  // uint256 lendingPoolRateMode = 2;\n  // bool internal useAggregator;\n  // uint256 public exchangeSlippageMax = 10 ** 16; // 1% max slippage allowed\n  // uint256 public exchangeDeadlineLag = 20; // 20s slippage time\n\n  constructor( address _marketMakerAddress,address _optionAddress){// address payable _volTokenAddress)\n    _setupRole(DEFAULT_ADMIN_ROLE, msg.sender);\n    // _setupRole(MINER_ROLE, msg.sender);\n    optionVault = IOptionVault(_optionAddress);\n    marketMakerAddress = _marketMakerAddress;\n    marketMaker = MoretMarketMaker(_marketMakerAddress);\n    // VolatilityToken _volToken = VolatilityToken(_volTokenAddress);\n    // volTokensList[_volToken.tenor()] = _volToken;\n    contractAddress = address(this);\n    // underlyingToken = ERC20(marketMaker.underlyingAddress());\n    // swapRouterAddress = _swapRouterAddress;\n    // aggregatorAddress = _aggregatorAddress;\n    // lendingPoolAddressProvider = ILendingPoolAddressesProvider(_lendingPoolAddressProvider);\n    // useAggregator = false;\n    }\n\n  function calcOptionCost(uint256 _tenor, uint256 _strike, uint256 _amount, OptionLibrary.PayoffType _poType, OptionLibrary.OptionSide _side) public view returns(uint256 _premium, uint256 _cost, uint256 _price, uint256 _vol){\n    _vol = queryOptionVolatility(_tenor, _strike, _amount, _side);\n    uint256 _adjustedStrike = OptionLibrary.adjustSlippage(_strike, false, marketMaker.swapSlippage(), 0); // downward\n    if((_poType==OptionLibrary.PayoffType.Put && _side == OptionLibrary.OptionSide.Buy) || (_poType==OptionLibrary.PayoffType.Call && _side == OptionLibrary.OptionSide.Sell)){ \n      _adjustedStrike = OptionLibrary.adjustSlippage(_strike,true, marketMaker.swapSlippage(), loanInterest);}\n    (_premium, _cost, _price) = optionVault.queryOptionCost(_tenor, _adjustedStrike, _amount, _vol, _poType, _side);\n    _premium = MarketLibrary.cvtDecimals(_premium, marketMaker.fundingAddress());\n    _cost = MarketLibrary.cvtDecimals(_cost, marketMaker.fundingAddress());}\n\n  function queryOptionVolatility(uint256 _tenor, uint256 _strike, uint256 _amount, OptionLibrary.OptionSide _side) public view returns(uint256 _vol){  \n    _vol = optionVault.queryVol(_tenor); // running vol\n    (uint256 _price,) = optionVault.queryPrice();\n    _vol += calcRiskPremium(_price, _vol, _strike, _amount, _side);}\n\n  function calcRiskPremium(uint256 _price, uint256 _vol, uint256 _strike, uint256 _amount,OptionLibrary.OptionSide _side) internal view returns(uint256) {\n    uint256 _maxGamma = MulDiv(OptionLibrary.calcGamma(_price, _price, _vol), marketMaker.calcCapital(false, false), _price);\n    int256 _currentGamma = marketMaker.getAggregateGamma(false); // include sells.\n    int256 _newGamma = _currentGamma + int256(MulDiv(OptionLibrary.calcGamma(_price, _strike, _vol), _amount, OptionLibrary.Multiplier() )) * (_side==OptionLibrary.OptionSide.Sell? -1: int(1));\n    uint256 _K = MulDiv(_vol, volRiskPremiumMaxRatio, OptionLibrary.Multiplier());\n    return (calcRiskPremiumAMM(_maxGamma, _currentGamma,  _K) + calcRiskPremiumAMM(_maxGamma, _newGamma, _K)) / 2;}\n\n  function calcRiskPremiumAMM(uint256 _max, int256 _input, uint256 _constant) internal pure returns(uint256) {\n    int256 _capacity = int256(OptionLibrary.Multiplier()); // capacity should be in (0,2)\n    if(_input < 0){_capacity +=  int256(MulDiv(uint256(-_input), OptionLibrary.Multiplier(), _max));}\n    if(_input > 0){ _capacity -= int256(MulDiv(uint256(_input) , OptionLibrary.Multiplier(), _max));}\n    require(_capacity<=0 || _capacity >= 2,\"Capacity limit breached.\");\n    return MulDiv(_constant, OptionLibrary.Multiplier(), uint256(_capacity)) - _constant;}\n\n  function purchaseOption(uint256 _tenor, uint256 _strike, uint256 _amount, OptionLibrary.PayoffType _poType, OptionLibrary.OptionSide _side, uint256 _payInCost) external {\n    require(allowTrading,\"Trading stopped!\");\n    (uint256 _premium, uint256 _cost, uint256 _price, uint256 _vol) = calcOptionCost(_tenor, _strike, _amount, _poType, _side );      \n    require(_payInCost >= _cost, \"Incorrect cost paid.\");\n    uint256 _id = optionVault.addOption(_tenor, _strike, _amount, _poType, _side, _premium, _cost, _price, _vol);\n    require(ERC20(marketMaker.fundingAddress()).transferFrom(msg.sender, address(marketMaker), _payInCost), 'Failed payment.');  \n    // emit newOptionBought(msg.sender, optionVault.getOption(_id), _payInCost, false);\n    optionVault.stampActiveOption(_id);\n    marketMaker.recordOptionPurchase(msg.sender, _id);}\n\n  // function executeHedgeTrades() external onlyRole(MINER_ROLE){\n  //   (uint256 _targetUnderlying, int256 _chgDebt, int256 _chgCollateral) = marketMaker.calcHedgeTrade();\n  //   if(_chgDebt > 0){ \n  //     if(_chgCollateral>0) marketMaker.depositCollateral(uint256(_chgCollateral), lendingPoolAddressProvider.getLendingPool());\n  //     marketMaker.borrowLoans(uint256(_chgDebt),lendingPoolAddressProvider.getLendingPool(), lendingPoolRateMode);\n  //     if(_chgCollateral<0) marketMaker.withdrawCollateral(uint256(-_chgCollateral), lendingPoolAddressProvider.getLendingPool());\n  //     swapToFunding(uint256(_chgDebt));}\n  //   if(_chgDebt < 0){  \n  //     swapToUnderlying(uint256(-_chgDebt));\n  //     marketMaker.repayLoans(uint256(-_chgDebt), lendingPoolAddressProvider.getLendingPool(), lendingPoolRateMode);\n  //     if(_chgCollateral<0) marketMaker.withdrawCollateral(uint256(-_chgCollateral), lendingPoolAddressProvider.getLendingPool());\n  //     if(_chgCollateral>0) marketMaker.depositCollateral(uint256(_chgCollateral), lendingPoolAddressProvider.getLendingPool());}\n  //   uint256 _currentMarketMakerUnderlying = ERC20(marketMaker.underlyingAddress()).balanceOf(address(marketMaker));\n  //   if( _currentMarketMakerUnderlying > _targetUnderlying){\n  //     swapToFunding(_currentMarketMakerUnderlying - _targetUnderlying);}\n  //   if(_currentMarketMakerUnderlying < _targetUnderlying){\n  //     swapToUnderlying(_targetUnderlying - _currentMarketMakerUnderlying);}}\n\n  // function swapToUnderlying(uint256 _underlyingAmount) internal  returns(uint256 _paidCost){\n  //   _paidCost = 0;\n  //   if(useAggregator) (_paidCost,) = marketMaker.swapAtAggregator(_underlyingAmount, swapRouterAddress, exchangeSlippageMax, true);\n  //   if(!useAggregator) { \n  //     uint256[] memory _swappedAmounts = marketMaker.swapToUnderlyingAtVenue(_underlyingAmount, swapRouterAddress, exchangeSlippageMax, exchangeDeadlineLag);\n  //     _paidCost = _swappedAmounts[0];}}\n\n  // function swapToFunding(uint256 _underlyingAmount) internal  returns(uint256 _returnedFunding){\n  //   _returnedFunding = 0;\n  //   if(useAggregator) (,_returnedFunding) = marketMaker.swapAtAggregator(_underlyingAmount, swapRouterAddress, exchangeSlippageMax, false);\n  //   if(!useAggregator) { \n  //     uint256[] memory _swappedAmounts =marketMaker.swapToFundingAtVenue(_underlyingAmount, swapRouterAddress, exchangeSlippageMax, exchangeDeadlineLag);\n  //     _returnedFunding = _swappedAmounts[1];}}\n\n/* \n    function purchaseOptionInVol(uint256 _tenor, uint256 _strike, OptionLibrary.PayoffType _poType,\n      uint256 _amount, uint256 _payInCost)\n      external\n      {\n      uint256 _premium = queryOptionCost(_tenor, _strike, _amount, _poType,OptionLibrary.OptionSide.Buy );\n      uint256 _fee = MulDiv(_premium, settlementFee.numerator, settlementFee.denominator);\n\n      uint256 _id = optionVault.addOption(_tenor, _strike, _poType, OptionLibrary.OptionSide.Buy, _amount, _premium - _fee, _fee );\n      require(_payInCost >= optionVault.queryDraftOptionCost(_id, true), \"Entered premium incorrect.\");\n\n      require(volTokensList[_tenor].transferFrom(msg.sender, contractAddress, _payInCost), 'Failed payment.');\n\n      volTokensList[_tenor].approve(volTokensList[_tenor].contractAddress(), _payInCost);\n      volTokensList[_tenor].recycleInToken(contractAddress, _payInCost, underlyingToken);\n      require(underlyingToken.transfer(marketMakerAddress, optionVault.queryOptionPremium(_id)), 'Failed premium payment.');\n\n      optionVault.stampActiveOption(_id);\n\n      marketMaker.recordOption(msg.sender, _id, true,\n        optionVault.queryOptionPremium(_id),\n        optionVault.queryOptionExposure(_id, OptionLibrary.PayoffType.Call),\n        optionVault.queryOptionExposure(_id, OptionLibrary.PayoffType.Put));\n\n      emit newOptionBought(msg.sender, optionVault.getOption(_id), _payInCost, true);\n\n    } */\n\n  // function getOptionPayoffValue(uint256 _id) external view returns(uint256){return optionVault.getContractPayoff(_id);}\n\n    /* unction exerciseOption(uint256 _id) external  {\n        optionVault.validateOption(_id, msg.sender);\n\n        uint256 _payoffValue = optionVault.getOptionPayoffValue(_id);\n\n        optionVault.stampExercisedOption(_id);\n\n        require(underlyingToken.transfer(msg.sender, _payoffValue), \"Transfer failed.\");\n\n        marketMaker.recordOption(msg.sender, _id, false);\n\n        emit optionExercised(msg.sender, optionVault.getOption(_id), _payoffValue);\n    } */\n\n  // function expireOption(uint256 _id) external {\n  //       if(optionVault.isOptionExpiring(_id, marketMaker.updateInterval()))\n  //       {\n  //           (uint256 _payoffValue, uint256 _fromMarketMaker,uint256 _toMarketMaker ) = optionVault.getOptionPayoffValue(_id);\n\n  //           if(_fromMarketMaker >0 )\n  //           {\n  //             marketMaker.payExchange(_fromMarketMaker, contractAddress);\n  //           }\n\n  //           if(_toMarketMaker >0 )\n  //           {\n  //             require(underlyingToken.transfer(marketMakerAddress, _toMarketMaker));\n  //           }\n\n  //           require(_payoffValue < underlyingToken.balanceOf(contractAddress), \"Balance insufficient.\");\n\n  //           optionVault.stampExpiredOption(_id);\n\n  //           address _optionHolder = optionVault.getOptionHolder(_id);\n  //           require(underlyingToken.transfer(_optionHolder, _payoffValue), \"Transfer failed.\");\n\n  //           marketMaker.recordOption(msg.sender, _id, false);\n  //       }\n  //   }\n\n      // function addVolToken(address payable _tokenAddress) external onlyRole(ADMIN_ROLE)\n      // {\n      //     VolatilityToken _volToken = VolatilityToken(_tokenAddress);\n      //     /* require(_volToken.descriptionHash() == optionVault.descriptionHash());\n      //     require(optionVault.containsTenor(_volToken.tenor())); */\n\n      //     volTokensList[_volToken.tenor()] = _volToken;\n\n      // }\n\n      // function quoteVolatilityCost(uint256 _tenor, uint256 _volAmount) public view returns(uint256, uint256)\n      // {\n      //     /* require(optionVault.containsTenor(_tenor)); */\n\n      //     (uint256 _price,) = optionVault.queryPrice();\n      //     (uint256 _volatility, ) = optionVault.queryVol(_tenor);\n\n      //     uint256 _value = volTokensList[_tenor].calculateMintValue(_volAmount, _price, _volatility);\n      //     uint256 _fee = _value * volTransactionFees.numerator/ volTransactionFees.denominator;\n\n      //     return (_value, _fee);\n      // }\n\n      // function purchaseVolatilityToken(uint256 _tenor, uint256 _volAmount, uint256 _payInCost)\n      // external {\n      //     (uint256 _value, uint256 _fee) = quoteVolatilityCost(_tenor, _volAmount);\n      //     require(_payInCost >= (_value + _fee));\n\n      //     underlyingToken.transferFrom(msg.sender, address(volTokensList[_tenor]), _value);\n      //     volTokensList[_tenor].mint{value: _value}(msg.sender, _volAmount);\n\n      //     emit newVolatilityTokenBought(msg.sender, block.timestamp, _tenor, _volAmount);\n      // }\n\n      // function sweepBalance() external onlyRole(ADMIN_ROLE){\n      //       require(underlyingToken.transfer(msg.sender, underlyingToken.balanceOf(contractAddress)), \"Withdrawal failed.\");\n      // }\n\n      // function resetVolTransactionFees(uint256 _fee, uint256 _denominator) external onlyRole(ADMIN_ROLE){\n      //     volTransactionFees = OptionLibrary.Percent(_fee, _denominator);\n      // }\n      \n\n      // function calcUtilisation(uint256 _amount, uint256 _strike, OptionLibrary.PayoffType _poType, OptionLibrary.OptionSide _side)\n      // public view returns(uint256, uint256){\n      //     uint256 _grossCapital = marketMaker.calcCapital(false, false);\n      //     uint256 _netCapital = marketMaker.calcCapital(true, false);\n      //     uint256 _incrementalCapital = optionVault.queryOptionCapitalV2(_amount, _strike, _poType, _side, marketMaker.capitalRatio());\n      //     require((_netCapital+_incrementalCapital)<= _grossCapital, \"Insufficient capital.\");\n\n      //     return (MulDiv(_grossCapital-_netCapital, ethMultiplier, _grossCapital), \n      //       MulDiv(_grossCapital-_netCapital-_incrementalCapital, ethMultiplier, _grossCapital));\n\n      //     /* uint256 _newCallExposure = (_poType==OptionLibrary.PayoffType.Call)?\n      //       ((_side==OptionLibrary.OptionSide.Buy)? (marketMaker.callExposure() + _amount):\n      //         (marketMaker.callExposure() - Math.min(marketMaker.callExposure(), _amount)) )\n      //       : marketMaker.callExposure();\n      //     uint256 _newPutExposure = (_poType==OptionLibrary.PayoffType.Put)?\n      //       ((_side==OptionLibrary.OptionSide.Buy)? (marketMaker.putExposure()+_amount):\n      //         (marketMaker.putExposure() - Math.min(marketMaker.putExposure(), _amount)) )\n      //       : marketMaker.putExposure();\n\n      //     return (MulDiv(Math.max(marketMaker.callExposure(), marketMaker.putExposure()), ethMultiplier, _grossCapital ),\n      //       MulDiv(Math.max(_newCallExposure, _newPutExposure) , ethMultiplier, _grossCapital )); */\n      // }\n\n    function resetLoanRate(uint256 _loanInterest) external onlyRole(DEFAULT_ADMIN_ROLE){ loanInterest = _loanInterest;}\n    function resetRiskPremiumMaxRatio(uint256 _newRatio) external onlyRole(DEFAULT_ADMIN_ROLE){ volRiskPremiumMaxRatio=_newRatio;}\n    function resetTrading(bool _allowTrading) external onlyRole(DEFAULT_ADMIN_ROLE) {allowTrading=_allowTrading;}\n    function queryPrice() external view returns(uint256, uint256){return optionVault.queryPrice();}\n    function queryVol(uint256 _tenor) external view returns(uint256){return optionVault.queryVol(_tenor);}\n}\n",
  "sourcePath": "/Users/apple/Documents/GitHub/moret/contracts/Exchange.sol",
  "compiler": {
    "name": "solc",
    "version": "0.8.9+commit.e5eed63a.Emscripten.clang"
  },
  "schemaVersion": "3.4.3",
  "updatedAt": "2021-11-05T00:11:03.213Z",
  "networkType": "ethereum",
  "devdoc": {
    "kind": "dev",
    "methods": {
      "getRoleAdmin(bytes32)": {
        "details": "Returns the admin role that controls `role`. See {grantRole} and {revokeRole}. To change a role's admin, use {_setRoleAdmin}."
      },
      "grantRole(bytes32,address)": {
        "details": "Grants `role` to `account`. If `account` had not been already granted `role`, emits a {RoleGranted} event. Requirements: - the caller must have ``role``'s admin role."
      },
      "hasRole(bytes32,address)": {
        "details": "Returns `true` if `account` has been granted `role`."
      },
      "renounceRole(bytes32,address)": {
        "details": "Revokes `role` from the calling account. Roles are often managed via {grantRole} and {revokeRole}: this function's purpose is to provide a mechanism for accounts to lose their privileges if they are compromised (such as when a trusted device is misplaced). If the calling account had been granted `role`, emits a {RoleRevoked} event. Requirements: - the caller must be `account`."
      },
      "revokeRole(bytes32,address)": {
        "details": "Revokes `role` from `account`. If `account` had been granted `role`, emits a {RoleRevoked} event. Requirements: - the caller must have ``role``'s admin role."
      },
      "supportsInterface(bytes4)": {
        "details": "See {IERC165-supportsInterface}."
      }
    },
    "version": 1
  },
  "userdoc": {
    "kind": "user",
    "methods": {},
    "version": 1
  }
}