{
  "contractName": "Exchange",
  "abi": [
    {
      "inputs": [
        {
          "internalType": "address",
          "name": "_marketMakerAddress",
          "type": "address"
        },
        {
          "internalType": "address",
          "name": "_vaultAddress",
          "type": "address"
        }
      ],
      "stateMutability": "nonpayable",
      "type": "constructor"
    },
    {
      "anonymous": false,
      "inputs": [
        {
          "indexed": true,
          "internalType": "bytes32",
          "name": "role",
          "type": "bytes32"
        },
        {
          "indexed": true,
          "internalType": "bytes32",
          "name": "previousAdminRole",
          "type": "bytes32"
        },
        {
          "indexed": true,
          "internalType": "bytes32",
          "name": "newAdminRole",
          "type": "bytes32"
        }
      ],
      "name": "RoleAdminChanged",
      "type": "event"
    },
    {
      "anonymous": false,
      "inputs": [
        {
          "indexed": true,
          "internalType": "bytes32",
          "name": "role",
          "type": "bytes32"
        },
        {
          "indexed": true,
          "internalType": "address",
          "name": "account",
          "type": "address"
        },
        {
          "indexed": true,
          "internalType": "address",
          "name": "sender",
          "type": "address"
        }
      ],
      "name": "RoleGranted",
      "type": "event"
    },
    {
      "anonymous": false,
      "inputs": [
        {
          "indexed": true,
          "internalType": "bytes32",
          "name": "role",
          "type": "bytes32"
        },
        {
          "indexed": true,
          "internalType": "address",
          "name": "account",
          "type": "address"
        },
        {
          "indexed": true,
          "internalType": "address",
          "name": "sender",
          "type": "address"
        }
      ],
      "name": "RoleRevoked",
      "type": "event"
    },
    {
      "anonymous": false,
      "inputs": [
        {
          "indexed": false,
          "internalType": "address",
          "name": "_recipient",
          "type": "address"
        },
        {
          "indexed": false,
          "internalType": "uint256",
          "name": "_mintMPTokenAmount",
          "type": "uint256"
        },
        {
          "indexed": false,
          "internalType": "uint256",
          "name": "_addedValue",
          "type": "uint256"
        }
      ],
      "name": "capitalAdded",
      "type": "event"
    },
    {
      "anonymous": false,
      "inputs": [
        {
          "indexed": false,
          "internalType": "address",
          "name": "_recipient",
          "type": "address"
        },
        {
          "indexed": false,
          "internalType": "uint256",
          "name": "_burnMPTokenAmount",
          "type": "uint256"
        },
        {
          "indexed": false,
          "internalType": "uint256",
          "name": "_withdrawValue",
          "type": "uint256"
        }
      ],
      "name": "capitalWithdrawn",
      "type": "event"
    },
    {
      "anonymous": false,
      "inputs": [
        {
          "indexed": true,
          "internalType": "address",
          "name": "_purchaser",
          "type": "address"
        },
        {
          "components": [
            {
              "internalType": "enum OptionLibrary.PayoffType",
              "name": "poType",
              "type": "uint8"
            },
            {
              "internalType": "enum OptionLibrary.OptionSide",
              "name": "side",
              "type": "uint8"
            },
            {
              "internalType": "enum OptionLibrary.OptionStatus",
              "name": "status",
              "type": "uint8"
            },
            {
              "internalType": "address",
              "name": "holder",
              "type": "address"
            },
            {
              "internalType": "uint256",
              "name": "id",
              "type": "uint256"
            },
            {
              "internalType": "uint256",
              "name": "createTime",
              "type": "uint256"
            },
            {
              "internalType": "uint256",
              "name": "effectiveTime",
              "type": "uint256"
            },
            {
              "internalType": "uint256",
              "name": "tenor",
              "type": "uint256"
            },
            {
              "internalType": "uint256",
              "name": "maturity",
              "type": "uint256"
            },
            {
              "internalType": "uint256",
              "name": "exerciseTime",
              "type": "uint256"
            },
            {
              "internalType": "uint256",
              "name": "amount",
              "type": "uint256"
            },
            {
              "internalType": "uint256",
              "name": "spot",
              "type": "uint256"
            },
            {
              "internalType": "uint256",
              "name": "strike",
              "type": "uint256"
            },
            {
              "internalType": "uint256",
              "name": "volatility",
              "type": "uint256"
            },
            {
              "internalType": "uint256",
              "name": "premium",
              "type": "uint256"
            },
            {
              "internalType": "uint256",
              "name": "cost",
              "type": "uint256"
            }
          ],
          "indexed": false,
          "internalType": "struct OptionLibrary.Option",
          "name": "_option",
          "type": "tuple"
        },
        {
          "indexed": false,
          "internalType": "uint256",
          "name": "_cost",
          "type": "uint256"
        },
        {
          "indexed": false,
          "internalType": "bool",
          "name": "_inVol",
          "type": "bool"
        }
      ],
      "name": "newOptionBought",
      "type": "event"
    },
    {
      "anonymous": false,
      "inputs": [
        {
          "indexed": false,
          "internalType": "address",
          "name": "_purchaser",
          "type": "address"
        },
        {
          "indexed": false,
          "internalType": "uint256",
          "name": "_time",
          "type": "uint256"
        },
        {
          "indexed": false,
          "internalType": "uint256",
          "name": "_tenor",
          "type": "uint256"
        },
        {
          "indexed": false,
          "internalType": "uint256",
          "name": "_amount",
          "type": "uint256"
        }
      ],
      "name": "newVolatilityTokenBought",
      "type": "event"
    },
    {
      "anonymous": false,
      "inputs": [
        {
          "indexed": true,
          "internalType": "address",
          "name": "_purchaser",
          "type": "address"
        },
        {
          "components": [
            {
              "internalType": "enum OptionLibrary.PayoffType",
              "name": "poType",
              "type": "uint8"
            },
            {
              "internalType": "enum OptionLibrary.OptionSide",
              "name": "side",
              "type": "uint8"
            },
            {
              "internalType": "enum OptionLibrary.OptionStatus",
              "name": "status",
              "type": "uint8"
            },
            {
              "internalType": "address",
              "name": "holder",
              "type": "address"
            },
            {
              "internalType": "uint256",
              "name": "id",
              "type": "uint256"
            },
            {
              "internalType": "uint256",
              "name": "createTime",
              "type": "uint256"
            },
            {
              "internalType": "uint256",
              "name": "effectiveTime",
              "type": "uint256"
            },
            {
              "internalType": "uint256",
              "name": "tenor",
              "type": "uint256"
            },
            {
              "internalType": "uint256",
              "name": "maturity",
              "type": "uint256"
            },
            {
              "internalType": "uint256",
              "name": "exerciseTime",
              "type": "uint256"
            },
            {
              "internalType": "uint256",
              "name": "amount",
              "type": "uint256"
            },
            {
              "internalType": "uint256",
              "name": "spot",
              "type": "uint256"
            },
            {
              "internalType": "uint256",
              "name": "strike",
              "type": "uint256"
            },
            {
              "internalType": "uint256",
              "name": "volatility",
              "type": "uint256"
            },
            {
              "internalType": "uint256",
              "name": "premium",
              "type": "uint256"
            },
            {
              "internalType": "uint256",
              "name": "cost",
              "type": "uint256"
            }
          ],
          "indexed": false,
          "internalType": "struct OptionLibrary.Option",
          "name": "_option",
          "type": "tuple"
        },
        {
          "indexed": false,
          "internalType": "uint256",
          "name": "_payoff",
          "type": "uint256"
        }
      ],
      "name": "optionExercised",
      "type": "event"
    },
    {
      "inputs": [],
      "name": "DEFAULT_ADMIN_ROLE",
      "outputs": [
        {
          "internalType": "bytes32",
          "name": "",
          "type": "bytes32"
        }
      ],
      "stateMutability": "view",
      "type": "function",
      "constant": true
    },
    {
      "inputs": [],
      "name": "MINER_ROLE",
      "outputs": [
        {
          "internalType": "bytes32",
          "name": "",
          "type": "bytes32"
        }
      ],
      "stateMutability": "view",
      "type": "function",
      "constant": true
    },
    {
      "inputs": [],
      "name": "allowTrading",
      "outputs": [
        {
          "internalType": "bool",
          "name": "",
          "type": "bool"
        }
      ],
      "stateMutability": "view",
      "type": "function",
      "constant": true
    },
    {
      "inputs": [
        {
          "internalType": "bytes32",
          "name": "role",
          "type": "bytes32"
        }
      ],
      "name": "getRoleAdmin",
      "outputs": [
        {
          "internalType": "bytes32",
          "name": "",
          "type": "bytes32"
        }
      ],
      "stateMutability": "view",
      "type": "function",
      "constant": true
    },
    {
      "inputs": [
        {
          "internalType": "bytes32",
          "name": "role",
          "type": "bytes32"
        },
        {
          "internalType": "address",
          "name": "account",
          "type": "address"
        }
      ],
      "name": "grantRole",
      "outputs": [],
      "stateMutability": "nonpayable",
      "type": "function"
    },
    {
      "inputs": [
        {
          "internalType": "bytes32",
          "name": "role",
          "type": "bytes32"
        },
        {
          "internalType": "address",
          "name": "account",
          "type": "address"
        }
      ],
      "name": "hasRole",
      "outputs": [
        {
          "internalType": "bool",
          "name": "",
          "type": "bool"
        }
      ],
      "stateMutability": "view",
      "type": "function",
      "constant": true
    },
    {
      "inputs": [],
      "name": "loanInterest",
      "outputs": [
        {
          "internalType": "uint256",
          "name": "",
          "type": "uint256"
        }
      ],
      "stateMutability": "view",
      "type": "function",
      "constant": true
    },
    {
      "inputs": [],
      "name": "marketMakerAddress",
      "outputs": [
        {
          "internalType": "address",
          "name": "",
          "type": "address"
        }
      ],
      "stateMutability": "view",
      "type": "function",
      "constant": true
    },
    {
      "inputs": [
        {
          "internalType": "bytes32",
          "name": "role",
          "type": "bytes32"
        },
        {
          "internalType": "address",
          "name": "account",
          "type": "address"
        }
      ],
      "name": "renounceRole",
      "outputs": [],
      "stateMutability": "nonpayable",
      "type": "function"
    },
    {
      "inputs": [
        {
          "internalType": "bytes32",
          "name": "role",
          "type": "bytes32"
        },
        {
          "internalType": "address",
          "name": "account",
          "type": "address"
        }
      ],
      "name": "revokeRole",
      "outputs": [],
      "stateMutability": "nonpayable",
      "type": "function"
    },
    {
      "inputs": [
        {
          "internalType": "bytes4",
          "name": "interfaceId",
          "type": "bytes4"
        }
      ],
      "name": "supportsInterface",
      "outputs": [
        {
          "internalType": "bool",
          "name": "",
          "type": "bool"
        }
      ],
      "stateMutability": "view",
      "type": "function",
      "constant": true
    },
    {
      "inputs": [],
      "name": "vaultAddress",
      "outputs": [
        {
          "internalType": "address",
          "name": "",
          "type": "address"
        }
      ],
      "stateMutability": "view",
      "type": "function",
      "constant": true
    },
    {
      "inputs": [],
      "name": "volRiskPremiumMaxRatio",
      "outputs": [
        {
          "internalType": "uint256",
          "name": "",
          "type": "uint256"
        }
      ],
      "stateMutability": "view",
      "type": "function",
      "constant": true
    },
    {
      "inputs": [
        {
          "internalType": "uint256",
          "name": "_tenor",
          "type": "uint256"
        },
        {
          "internalType": "uint256",
          "name": "_strike",
          "type": "uint256"
        },
        {
          "internalType": "uint256",
          "name": "_amount",
          "type": "uint256"
        },
        {
          "internalType": "enum OptionLibrary.PayoffType",
          "name": "_poType",
          "type": "uint8"
        },
        {
          "internalType": "enum OptionLibrary.OptionSide",
          "name": "_side",
          "type": "uint8"
        }
      ],
      "name": "calcOptionCost",
      "outputs": [
        {
          "internalType": "uint256",
          "name": "_premium",
          "type": "uint256"
        },
        {
          "internalType": "uint256",
          "name": "_cost",
          "type": "uint256"
        },
        {
          "internalType": "uint256",
          "name": "_price",
          "type": "uint256"
        },
        {
          "internalType": "uint256",
          "name": "_vol",
          "type": "uint256"
        }
      ],
      "stateMutability": "view",
      "type": "function",
      "constant": true
    },
    {
      "inputs": [
        {
          "internalType": "uint256",
          "name": "_tenor",
          "type": "uint256"
        },
        {
          "internalType": "uint256",
          "name": "_strike",
          "type": "uint256"
        },
        {
          "internalType": "uint256",
          "name": "_amount",
          "type": "uint256"
        },
        {
          "internalType": "enum OptionLibrary.OptionSide",
          "name": "_side",
          "type": "uint8"
        }
      ],
      "name": "queryOptionVolatility",
      "outputs": [
        {
          "internalType": "uint256",
          "name": "_vol",
          "type": "uint256"
        }
      ],
      "stateMutability": "view",
      "type": "function",
      "constant": true
    },
    {
      "inputs": [
        {
          "internalType": "uint256",
          "name": "_tenor",
          "type": "uint256"
        },
        {
          "internalType": "uint256",
          "name": "_strike",
          "type": "uint256"
        },
        {
          "internalType": "uint256",
          "name": "_amount",
          "type": "uint256"
        },
        {
          "internalType": "enum OptionLibrary.PayoffType",
          "name": "_poType",
          "type": "uint8"
        },
        {
          "internalType": "enum OptionLibrary.OptionSide",
          "name": "_side",
          "type": "uint8"
        },
        {
          "internalType": "uint256",
          "name": "_payInCost",
          "type": "uint256"
        }
      ],
      "name": "purchaseOption",
      "outputs": [],
      "stateMutability": "nonpayable",
      "type": "function"
    },
    {
      "inputs": [
        {
          "internalType": "uint256",
          "name": "_id",
          "type": "uint256"
        }
      ],
      "name": "getOptionPayoffValue",
      "outputs": [
        {
          "internalType": "uint256",
          "name": "_payback",
          "type": "uint256"
        }
      ],
      "stateMutability": "view",
      "type": "function",
      "constant": true
    },
    {
      "inputs": [
        {
          "internalType": "uint256",
          "name": "_loanInterest",
          "type": "uint256"
        }
      ],
      "name": "resetLoanRate",
      "outputs": [],
      "stateMutability": "nonpayable",
      "type": "function"
    },
    {
      "inputs": [
        {
          "internalType": "uint256",
          "name": "_newRatio",
          "type": "uint256"
        }
      ],
      "name": "resetRiskPremiumMaxRatio",
      "outputs": [],
      "stateMutability": "nonpayable",
      "type": "function"
    },
    {
      "inputs": [
        {
          "internalType": "bool",
          "name": "_allowTrading",
          "type": "bool"
        }
      ],
      "name": "resetTrading",
      "outputs": [],
      "stateMutability": "nonpayable",
      "type": "function"
    },
    {
      "inputs": [],
      "name": "queryPrice",
      "outputs": [
        {
          "internalType": "uint256",
          "name": "",
          "type": "uint256"
        },
        {
          "internalType": "uint256",
          "name": "",
          "type": "uint256"
        }
      ],
      "stateMutability": "view",
      "type": "function",
      "constant": true
    },
    {
      "inputs": [
        {
          "internalType": "uint256",
          "name": "_tenor",
          "type": "uint256"
        }
      ],
      "name": "queryVol",
      "outputs": [
        {
          "internalType": "uint256",
          "name": "",
          "type": "uint256"
        }
      ],
      "stateMutability": "view",
      "type": "function",
      "constant": true
    }
  ],
  "bytecode": "0x60806040526718fae27693b4000060055560006006556001600760006101000a81548160ff0219169083151502179055503480156200003d57600080fd5b50604051620041ce380380620041ce833981810160405281019062000063919062000399565b620000786000801b33620001b660201b60201c565b620000aa7fa952726ef2588ad078edf35b066f7c7406e207cb0003bbaba8cb53eba9553e7233620001b660201b60201c565b80600160006101000a81548173ffffffffffffffffffffffffffffffffffffffff021916908373ffffffffffffffffffffffffffffffffffffffff16021790555080600460006101000a81548173ffffffffffffffffffffffffffffffffffffffff021916908373ffffffffffffffffffffffffffffffffffffffff16021790555081600260006101000a81548173ffffffffffffffffffffffffffffffffffffffff021916908373ffffffffffffffffffffffffffffffffffffffff16021790555081600360006101000a81548173ffffffffffffffffffffffffffffffffffffffff021916908373ffffffffffffffffffffffffffffffffffffffff1602179055505050620003e0565b620001c88282620001cc60201b60201c565b5050565b620001de8282620002bd60201b60201c565b620002b957600160008084815260200190815260200160002060000160008373ffffffffffffffffffffffffffffffffffffffff1673ffffffffffffffffffffffffffffffffffffffff16815260200190815260200160002060006101000a81548160ff0219169083151502179055506200025e6200032760201b60201c565b73ffffffffffffffffffffffffffffffffffffffff168173ffffffffffffffffffffffffffffffffffffffff16837f2f8788117e7eff1d82e926ec794901d17c78024a50270940304540a733656f0d60405160405180910390a45b5050565b600080600084815260200190815260200160002060000160008373ffffffffffffffffffffffffffffffffffffffff1673ffffffffffffffffffffffffffffffffffffffff16815260200190815260200160002060009054906101000a900460ff16905092915050565b600033905090565b600080fd5b600073ffffffffffffffffffffffffffffffffffffffff82169050919050565b6000620003618262000334565b9050919050565b620003738162000354565b81146200037f57600080fd5b50565b600081519050620003938162000368565b92915050565b60008060408385031215620003b357620003b26200032f565b5b6000620003c38582860162000382565b9250506020620003d68582860162000382565b9150509250929050565b613dde80620003f06000396000f3fe608060405234801561001057600080fd5b50600436106101425760003560e01c806385e6be8b116100b8578063a34a1e4d1161007c578063a34a1e4d1461038c578063a7292ea4146103a8578063b0667cf8146103c6578063cc910588146103e5578063cfc2dc2014610403578063d547741f1461043357610142565b806385e6be8b146102d3578063896b5b1d146102ef5780638d4939c61461032257806391d148541461033e578063a217fddf1461036e57610142565b80632f2ff15d1161010a5780632f2ff15d146101ff57806336568abe1461021b57806340d6eaab14610237578063430bf08a146102675780636394f6e6146102855780636a7d116f146102a357610142565b806301ffc9a7146101475780630875c6b1146101775780630c64307d14610195578063248a9ca3146101b15780632e5b4c43146101e1575b600080fd5b610161600480360381019061015c919061256d565b61044f565b60405161016e91906125b5565b60405180910390f35b61017f6104c9565b60405161018c91906125e9565b60405180910390f35b6101af60048036038101906101aa9190612630565b6104cf565b005b6101cb60048036038101906101c69190612693565b61050c565b6040516101d891906126cf565b60405180910390f35b6101e961052b565b6040516101f691906125b5565b60405180910390f35b61021960048036038101906102149190612748565b61053e565b005b61023560048036038101906102309190612748565b610567565b005b610251600480360381019061024c9190612630565b6105ea565b60405161025e91906125e9565b60405180910390f35b61026f6106a1565b60405161027c9190612797565b60405180910390f35b61028d6106c7565b60405161029a91906126cf565b60405180910390f35b6102bd60048036038101906102b891906127d7565b6106eb565b6040516102ca91906125e9565b60405180910390f35b6102ed60048036038101906102e89190612630565b610a2b565b005b61030960048036038101906103049190612863565b610a4b565b60405161031994939291906128de565b60405180910390f35b61033c6004803603810190610337919061294f565b61109d565b005b61035860048036038101906103539190612748565b6110d0565b60405161036591906125b5565b60405180910390f35b61037661113a565b60405161038391906126cf565b60405180910390f35b6103a660048036038101906103a1919061297c565b611141565b005b6103b06115da565b6040516103bd91906125e9565b60405180910390f35b6103ce6115e0565b6040516103dc929190612a09565b60405180910390f35b6103ed61168a565b6040516103fa9190612797565b60405180910390f35b61041d60048036038101906104189190612630565b6116b0565b60405161042a91906125e9565b60405180910390f35b61044d60048036038101906104489190612748565b611764565b005b60007f7965db0b000000000000000000000000000000000000000000000000000000007bffffffffffffffffffffffffffffffffffffffffffffffffffffffff1916827bffffffffffffffffffffffffffffffffffffffffffffffffffffffff191614806104c257506104c18261178d565b5b9050919050565b60055481565b7fa952726ef2588ad078edf35b066f7c7406e207cb0003bbaba8cb53eba9553e72610501816104fc6117f7565b6117ff565b816006819055505050565b6000806000838152602001908152602001600020600101549050919050565b600760009054906101000a900460ff1681565b6105478261050c565b610558816105536117f7565b6117ff565b610562838361189c565b505050565b61056f6117f7565b73ffffffffffffffffffffffffffffffffffffffff168173ffffffffffffffffffffffffffffffffffffffff16146105dc576040517f08c379a00000000000000000000000000000000000000000000000000000000081526004016105d390612ab5565b60405180910390fd5b6105e6828261197c565b5050565b6000600460009054906101000a900473ffffffffffffffffffffffffffffffffffffffff1673ffffffffffffffffffffffffffffffffffffffff166385ae10e6836040518263ffffffff1660e01b815260040161064791906125e9565b604080518083038186803b15801561065e57600080fd5b505afa158015610672573d6000803e3d6000fd5b505050506040513d601f19601f820116820180604052508101906106969190612aea565b905080915050919050565b600160009054906101000a900473ffffffffffffffffffffffffffffffffffffffff1681565b7fa952726ef2588ad078edf35b066f7c7406e207cb0003bbaba8cb53eba9553e7281565b6000600460009054906101000a900473ffffffffffffffffffffffffffffffffffffffff1673ffffffffffffffffffffffffffffffffffffffff1663cfc2dc20866040518263ffffffff1660e01b815260040161074891906125e9565b60206040518083038186803b15801561076057600080fd5b505afa158015610774573d6000803e3d6000fd5b505050506040513d601f19601f820116820180604052508101906107989190612b2a565b90506000600460009054906101000a900473ffffffffffffffffffffffffffffffffffffffff1673ffffffffffffffffffffffffffffffffffffffff1663b0667cf86040518163ffffffff1660e01b8152600401604080518083038186803b15801561080357600080fd5b505afa158015610817573d6000803e3d6000fd5b505050506040513d601f19601f8201168201806040525081019061083b9190612aea565b509050600360009054906101000a900473ffffffffffffffffffffffffffffffffffffffff1673ffffffffffffffffffffffffffffffffffffffff166363447902600160006040518363ffffffff1660e01b815260040161089d929190612b57565b60206040518083038186803b1580156108b557600080fd5b505afa1580156108c9573d6000803e3d6000fd5b505050506040513d601f19601f820116820180604052508101906108ed9190612b2a565b610973858373__OptionLibrary_________________________63fd9b87636040518163ffffffff1660e01b815260040160206040518083038186803b15801561093657600080fd5b505af415801561094a573d6000803e3d6000fd5b505050506040513d601f19601f8201168201806040525081019061096e9190612b2a565b611a5d565b11156109b4576040517f08c379a00000000000000000000000000000000000000000000000000000000081526004016109ab90612bcc565b60405180910390fd5b60006109c38284888888611b59565b9050600081846109d39190612c25565b13610a13576040517f08c379a0000000000000000000000000000000000000000000000000000000008152600401610a0a90612d05565b60405180910390fd5b8083610a1f9190612c25565b92505050949350505050565b6000801b610a4081610a3b6117f7565b6117ff565b816005819055505050565b600080600080610a5d898989886106eb565b9050600073__OptionLibrary_________________________63508cd14e8a6000600360009054906101000a900473ffffffffffffffffffffffffffffffffffffffff1673ffffffffffffffffffffffffffffffffffffffff16631aedeabe6040518163ffffffff1660e01b815260040160206040518083038186803b158015610ae657600080fd5b505afa158015610afa573d6000803e3d6000fd5b505050506040513d601f19601f82011682018060405250810190610b1e9190612b2a565b60006040518563ffffffff1660e01b8152600401610b3f9493929190612d88565b60206040518083038186803b158015610b5757600080fd5b505af4158015610b6b573d6000803e3d6000fd5b505050506040513d601f19601f82011682018060405250810190610b8f9190612b2a565b9050600180811115610ba457610ba3612dcd565b5b876001811115610bb757610bb6612dcd565b5b148015610be8575060006001811115610bd357610bd2612dcd565b5b866001811115610be657610be5612dcd565b5b145b80610c46575060006001811115610c0257610c01612dcd565b5b876001811115610c1557610c14612dcd565b5b148015610c455750600180811115610c3057610c2f612dcd565b5b866001811115610c4357610c42612dcd565b5b145b5b15610d7d5773__OptionLibrary_________________________63508cd14e8a6001600360009054906101000a900473ffffffffffffffffffffffffffffffffffffffff1673ffffffffffffffffffffffffffffffffffffffff16631aedeabe6040518163ffffffff1660e01b815260040160206040518083038186803b158015610cd057600080fd5b505afa158015610ce4573d6000803e3d6000fd5b505050506040513d601f19601f82011682018060405250810190610d089190612b2a565b6006546040518563ffffffff1660e01b8152600401610d2a9493929190612dfc565b60206040518083038186803b158015610d4257600080fd5b505af4158015610d56573d6000803e3d6000fd5b505050506040513d601f19601f82011682018060405250810190610d7a9190612b2a565b90505b600460009054906101000a900473ffffffffffffffffffffffffffffffffffffffff1673ffffffffffffffffffffffffffffffffffffffff166376df2d08828a858b8b6040518663ffffffff1660e01b8152600401610de0959493929190612ed1565b60606040518083038186803b158015610df857600080fd5b505afa158015610e0c573d6000803e3d6000fd5b505050506040513d601f19601f82011682018060405250810190610e309190612f24565b80955081965082975050505073__MarketLibrary_________________________638170ce8086600460009054906101000a900473ffffffffffffffffffffffffffffffffffffffff1673ffffffffffffffffffffffffffffffffffffffff1663cb4c86b76040518163ffffffff1660e01b815260040160206040518083038186803b158015610ebf57600080fd5b505afa158015610ed3573d6000803e3d6000fd5b505050506040513d601f19601f82011682018060405250810190610ef79190612f8c565b6040518363ffffffff1660e01b8152600401610f14929190612fc8565b60206040518083038186803b158015610f2c57600080fd5b505af4158015610f40573d6000803e3d6000fd5b505050506040513d601f19601f82011682018060405250810190610f649190612b2a565b945073__MarketLibrary_________________________638170ce8085600460009054906101000a900473ffffffffffffffffffffffffffffffffffffffff1673ffffffffffffffffffffffffffffffffffffffff1663cb4c86b76040518163ffffffff1660e01b815260040160206040518083038186803b158015610fe957600080fd5b505afa158015610ffd573d6000803e3d6000fd5b505050506040513d601f19601f820116820180604052508101906110219190612f8c565b6040518363ffffffff1660e01b815260040161103e929190612fc8565b60206040518083038186803b15801561105657600080fd5b505af415801561106a573d6000803e3d6000fd5b505050506040513d601f19601f8201168201806040525081019061108e9190612b2a565b93505095509550955095915050565b6000801b6110b2816110ad6117f7565b6117ff565b81600760006101000a81548160ff0219169083151502179055505050565b600080600084815260200190815260200160002060000160008373ffffffffffffffffffffffffffffffffffffffff1673ffffffffffffffffffffffffffffffffffffffff16815260200190815260200160002060009054906101000a900460ff16905092915050565b6000801b81565b600760009054906101000a900460ff16611190576040517f08c379a00000000000000000000000000000000000000000000000000000000081526004016111879061303d565b60405180910390fd5b6000806000806111a38a8a8a8a8a610a4b565b9350935093509350828510156111ee576040517f08c379a00000000000000000000000000000000000000000000000000000000081526004016111e5906130a9565b60405180910390fd5b6000600460009054906101000a900473ffffffffffffffffffffffffffffffffffffffff1673ffffffffffffffffffffffffffffffffffffffff1663b5310ff98c8c8c8c8c8b8b8b8b336040518b63ffffffff1660e01b815260040161125d9a999897969594939291906130c9565b602060405180830381600087803b15801561127757600080fd5b505af115801561128b573d6000803e3d6000fd5b505050506040513d601f19601f820116820180604052508101906112af9190612b2a565b9050600460009054906101000a900473ffffffffffffffffffffffffffffffffffffffff1673ffffffffffffffffffffffffffffffffffffffff1663cb4c86b76040518163ffffffff1660e01b815260040160206040518083038186803b15801561131957600080fd5b505afa15801561132d573d6000803e3d6000fd5b505050506040513d601f19601f820116820180604052508101906113519190612f8c565b73ffffffffffffffffffffffffffffffffffffffff166323b872dd33600360009054906101000a900473ffffffffffffffffffffffffffffffffffffffff16896040518463ffffffff1660e01b81526004016113af93929190613165565b602060405180830381600087803b1580156113c957600080fd5b505af11580156113dd573d6000803e3d6000fd5b505050506040513d601f19601f8201168201806040525081019061140191906131b1565b611440576040517f08c379a00000000000000000000000000000000000000000000000000000000081526004016114379061322a565b60405180910390fd5b3373ffffffffffffffffffffffffffffffffffffffff167f639bcb68083836b73ad6cd444bd790e8421c4b363635459fbfff715dc24fa855600460009054906101000a900473ffffffffffffffffffffffffffffffffffffffff1673ffffffffffffffffffffffffffffffffffffffff16631ce5e9a6846040518263ffffffff1660e01b81526004016114d391906125e9565b6102006040518083038186803b1580156114ec57600080fd5b505afa158015611500573d6000803e3d6000fd5b505050506040513d601f19601f8201168201806040525081019061152491906134a4565b886000604051611536939291906136a0565b60405180910390a2600460009054906101000a900473ffffffffffffffffffffffffffffffffffffffff1673ffffffffffffffffffffffffffffffffffffffff166324b4110e82336040518363ffffffff1660e01b815260040161159b9291906136da565b600060405180830381600087803b1580156115b557600080fd5b505af11580156115c9573d6000803e3d6000fd5b505050505050505050505050505050565b60065481565b600080600460009054906101000a900473ffffffffffffffffffffffffffffffffffffffff1673ffffffffffffffffffffffffffffffffffffffff1663b0667cf86040518163ffffffff1660e01b8152600401604080518083038186803b15801561164a57600080fd5b505afa15801561165e573d6000803e3d6000fd5b505050506040513d601f19601f820116820180604052508101906116829190612aea565b915091509091565b600260009054906101000a900473ffffffffffffffffffffffffffffffffffffffff1681565b6000600460009054906101000a900473ffffffffffffffffffffffffffffffffffffffff1673ffffffffffffffffffffffffffffffffffffffff1663cfc2dc20836040518263ffffffff1660e01b815260040161170d91906125e9565b60206040518083038186803b15801561172557600080fd5b505afa158015611739573d6000803e3d6000fd5b505050506040513d601f19601f8201168201806040525081019061175d9190612b2a565b9050919050565b61176d8261050c565b61177e816117796117f7565b6117ff565b611788838361197c565b505050565b60007f01ffc9a7000000000000000000000000000000000000000000000000000000007bffffffffffffffffffffffffffffffffffffffffffffffffffffffff1916827bffffffffffffffffffffffffffffffffffffffffffffffffffffffff1916149050919050565b600033905090565b61180982826110d0565b6118985761182e8173ffffffffffffffffffffffffffffffffffffffff166014611f94565b61183c8360001c6020611f94565b60405160200161184d929190613815565b6040516020818303038152906040526040517f08c379a000000000000000000000000000000000000000000000000000000000815260040161188f9190613888565b60405180910390fd5b5050565b6118a682826110d0565b61197857600160008084815260200190815260200160002060000160008373ffffffffffffffffffffffffffffffffffffffff1673ffffffffffffffffffffffffffffffffffffffff16815260200190815260200160002060006101000a81548160ff02191690831515021790555061191d6117f7565b73ffffffffffffffffffffffffffffffffffffffff168173ffffffffffffffffffffffffffffffffffffffff16837f2f8788117e7eff1d82e926ec794901d17c78024a50270940304540a733656f0d60405160405180910390a45b5050565b61198682826110d0565b15611a5957600080600084815260200190815260200160002060000160008373ffffffffffffffffffffffffffffffffffffffff1673ffffffffffffffffffffffffffffffffffffffff16815260200190815260200160002060006101000a81548160ff0219169083151502179055506119fe6117f7565b73ffffffffffffffffffffffffffffffffffffffff168173ffffffffffffffffffffffffffffffffffffffff16837ff6391f5c32d9c69d2a47ea670b442974b53935d1edc7fd64eb21e047a839171b60405160405180910390a45b5050565b600080600080198587098587029250828110838203039150506000811415611a985760008411611a8c57600080fd5b83820492505050611b52565b808411611aa457600080fd5b60008486880990508281118203915080830392506000856001877fffffffffffffffffffffffffffffffffffffffffffffffffffffffffffffffff0301169050808604955080840493506001818260000304019050808302841793506000600287600302189050808702600203810290508087026002038102905080870260020381029050808702600203810290508087026002038102905080870260020381029050808502955050505050505b9392505050565b600080611c9e73__OptionLibrary_________________________639932b2be898a8a6040518463ffffffff1660e01b8152600401611b9a939291906138aa565b60206040518083038186803b158015611bb257600080fd5b505af4158015611bc6573d6000803e3d6000fd5b505050506040513d601f19601f82011682018060405250810190611bea9190612b2a565b600360009054906101000a900473ffffffffffffffffffffffffffffffffffffffff1673ffffffffffffffffffffffffffffffffffffffff1663634479026000806040518363ffffffff1660e01b8152600401611c48929190612b57565b60206040518083038186803b158015611c6057600080fd5b505afa158015611c74573d6000803e3d6000fd5b505050506040513d601f19601f82011682018060405250810190611c989190612b2a565b89611a5d565b90506000600460009054906101000a900473ffffffffffffffffffffffffffffffffffffffff1673ffffffffffffffffffffffffffffffffffffffff1663ea3d612d60006040518263ffffffff1660e01b8152600401611cfe91906125b5565b60206040518083038186803b158015611d1657600080fd5b505afa158015611d2a573d6000803e3d6000fd5b505050506040513d601f19601f82011682018060405250810190611d4e919061390d565b90506000600180811115611d6557611d64612dcd565b5b856001811115611d7857611d77612dcd565b5b14611d84576001611da6565b7fffffffffffffffffffffffffffffffffffffffffffffffffffffffffffffffff5b611eb673__OptionLibrary_________________________639932b2be8c8b8d6040518463ffffffff1660e01b8152600401611de4939291906138aa565b60206040518083038186803b158015611dfc57600080fd5b505af4158015611e10573d6000803e3d6000fd5b505050506040513d601f19601f82011682018060405250810190611e349190612b2a565b8873__OptionLibrary_________________________63fd9b87636040518163ffffffff1660e01b815260040160206040518083038186803b158015611e7957600080fd5b505af4158015611e8d573d6000803e3d6000fd5b505050506040513d601f19601f82011682018060405250810190611eb19190612b2a565b611a5d565b611ec0919061393a565b82611ecb9190612c25565b90506000611f578960055473__OptionLibrary_________________________63fd9b87636040518163ffffffff1660e01b815260040160206040518083038186803b158015611f1a57600080fd5b505af4158015611f2e573d6000803e3d6000fd5b505050506040513d601f19601f82011682018060405250810190611f529190612b2a565b611a5d565b90506002611f668584846121d0565b611f718686856121d0565b611f7b9190612c25565b611f859190613a80565b94505050505095945050505050565b606060006002836002611fa79190613aea565b611fb19190613b44565b67ffffffffffffffff811115611fca57611fc9613260565b5b6040519080825280601f01601f191660200182016040528015611ffc5781602001600182028036833780820191505090505b5090507f30000000000000000000000000000000000000000000000000000000000000008160008151811061203457612033613b9a565b5b60200101907effffffffffffffffffffffffffffffffffffffffffffffffffffffffffffff1916908160001a9053507f78000000000000000000000000000000000000000000000000000000000000008160018151811061209857612097613b9a565b5b60200101907effffffffffffffffffffffffffffffffffffffffffffffffffffffffffffff1916908160001a905350600060018460026120d89190613aea565b6120e29190613b44565b90505b6001811115612182577f3031323334353637383961626364656600000000000000000000000000000000600f86166010811061212457612123613b9a565b5b1a60f81b82828151811061213b5761213a613b9a565b5b60200101907effffffffffffffffffffffffffffffffffffffffffffffffffffffffffffff1916908160001a905350600485901c94508061217b90613bc9565b90506120e5565b50600084146121c6576040517f08c379a00000000000000000000000000000000000000000000000000000000081526004016121bd90613c3f565b60405180910390fd5b8091505092915050565b60008073__OptionLibrary_________________________63fd9b87636040518163ffffffff1660e01b815260040160206040518083038186803b15801561221757600080fd5b505af415801561222b573d6000803e3d6000fd5b505050506040513d601f19601f8201168201806040525081019061224f9190612b2a565b905060008412156122f7576122e98461226790613c5f565b73__OptionLibrary_________________________63fd9b87636040518163ffffffff1660e01b815260040160206040518083038186803b1580156122ab57600080fd5b505af41580156122bf573d6000803e3d6000fd5b505050506040513d601f19601f820116820180604052508101906122e39190612b2a565b87611a5d565b816122f49190612c25565b90505b6000841315612394576123868473__OptionLibrary_________________________63fd9b87636040518163ffffffff1660e01b815260040160206040518083038186803b15801561234857600080fd5b505af415801561235c573d6000803e3d6000fd5b505050506040513d601f19601f820116820180604052508101906123809190612b2a565b87611a5d565b816123919190613ca8565b90505b6000811215801561242c575073__OptionLibrary_________________________63fd9b87636040518163ffffffff1660e01b815260040160206040518083038186803b1580156123e457600080fd5b505af41580156123f8573d6000803e3d6000fd5b505050506040513d601f19601f8201168201806040525081019061241c9190612b2a565b60026124289190613aea565b8113155b61246b576040517f08c379a000000000000000000000000000000000000000000000000000000000815260040161246290613d88565b60405180910390fd5b826124f28473__OptionLibrary_________________________63fd9b87636040518163ffffffff1660e01b815260040160206040518083038186803b1580156124b457600080fd5b505af41580156124c8573d6000803e3d6000fd5b505050506040513d601f19601f820116820180604052508101906124ec9190612b2a565b84611a5d565b6124fc9190613ca8565b9150509392505050565b6000604051905090565b600080fd5b60007fffffffff0000000000000000000000000000000000000000000000000000000082169050919050565b61254a81612515565b811461255557600080fd5b50565b60008135905061256781612541565b92915050565b60006020828403121561258357612582612510565b5b600061259184828501612558565b91505092915050565b60008115159050919050565b6125af8161259a565b82525050565b60006020820190506125ca60008301846125a6565b92915050565b6000819050919050565b6125e3816125d0565b82525050565b60006020820190506125fe60008301846125da565b92915050565b61260d816125d0565b811461261857600080fd5b50565b60008135905061262a81612604565b92915050565b60006020828403121561264657612645612510565b5b60006126548482850161261b565b91505092915050565b6000819050919050565b6126708161265d565b811461267b57600080fd5b50565b60008135905061268d81612667565b92915050565b6000602082840312156126a9576126a8612510565b5b60006126b78482850161267e565b91505092915050565b6126c98161265d565b82525050565b60006020820190506126e460008301846126c0565b92915050565b600073ffffffffffffffffffffffffffffffffffffffff82169050919050565b6000612715826126ea565b9050919050565b6127258161270a565b811461273057600080fd5b50565b6000813590506127428161271c565b92915050565b6000806040838503121561275f5761275e612510565b5b600061276d8582860161267e565b925050602061277e85828601612733565b9150509250929050565b6127918161270a565b82525050565b60006020820190506127ac6000830184612788565b92915050565b600281106127bf57600080fd5b50565b6000813590506127d1816127b2565b92915050565b600080600080608085870312156127f1576127f0612510565b5b60006127ff8782880161261b565b94505060206128108782880161261b565b93505060406128218782880161261b565b9250506060612832878288016127c2565b91505092959194509250565b6002811061284b57600080fd5b50565b60008135905061285d8161283e565b92915050565b600080600080600060a0868803121561287f5761287e612510565b5b600061288d8882890161261b565b955050602061289e8882890161261b565b94505060406128af8882890161261b565b93505060606128c08882890161284e565b92505060806128d1888289016127c2565b9150509295509295909350565b60006080820190506128f360008301876125da565b61290060208301866125da565b61290d60408301856125da565b61291a60608301846125da565b95945050505050565b61292c8161259a565b811461293757600080fd5b50565b60008135905061294981612923565b92915050565b60006020828403121561296557612964612510565b5b60006129738482850161293a565b91505092915050565b60008060008060008060c0878903121561299957612998612510565b5b60006129a789828a0161261b565b96505060206129b889828a0161261b565b95505060406129c989828a0161261b565b94505060606129da89828a0161284e565b93505060806129eb89828a016127c2565b92505060a06129fc89828a0161261b565b9150509295509295509295565b6000604082019050612a1e60008301856125da565b612a2b60208301846125da565b9392505050565b600082825260208201905092915050565b7f416363657373436f6e74726f6c3a2063616e206f6e6c792072656e6f756e636560008201527f20726f6c657320666f722073656c660000000000000000000000000000000000602082015250565b6000612a9f602f83612a32565b9150612aaa82612a43565b604082019050919050565b60006020820190508181036000830152612ace81612a92565b9050919050565b600081519050612ae481612604565b92915050565b60008060408385031215612b0157612b00612510565b5b6000612b0f85828601612ad5565b9250506020612b2085828601612ad5565b9150509250929050565b600060208284031215612b4057612b3f612510565b5b6000612b4e84828501612ad5565b91505092915050565b6000604082019050612b6c60008301856125a6565b612b7960208301846125a6565b9392505050565b7f696e73756666696369656e74206361706974616c000000000000000000000000600082015250565b6000612bb6601483612a32565b9150612bc182612b80565b602082019050919050565b60006020820190508181036000830152612be581612ba9565b9050919050565b6000819050919050565b7f4e487b7100000000000000000000000000000000000000000000000000000000600052601160045260246000fd5b6000612c3082612bec565b9150612c3b83612bec565b9250817f7fffffffffffffffffffffffffffffffffffffffffffffffffffffffffffffff03831360008312151615612c7657612c75612bf6565b5b817f8000000000000000000000000000000000000000000000000000000000000000038312600083121615612cae57612cad612bf6565b5b828201905092915050565b7f496e636f727265637420766f6c207072656d69756d0000000000000000000000600082015250565b6000612cef601583612a32565b9150612cfa82612cb9565b602082019050919050565b60006020820190508181036000830152612d1e81612ce2565b9050919050565b612d2e816125d0565b82525050565b612d3d8161259a565b82525050565b6000819050919050565b6000819050919050565b6000612d72612d6d612d6884612d43565b612d4d565b6125d0565b9050919050565b612d8281612d57565b82525050565b6000608082019050612d9d6000830187612d25565b612daa6020830186612d34565b612db76040830185612d25565b612dc46060830184612d79565b95945050505050565b7f4e487b7100000000000000000000000000000000000000000000000000000000600052602160045260246000fd5b6000608082019050612e116000830187612d25565b612e1e6020830186612d34565b612e2b6040830185612d25565b612e386060830184612d25565b95945050505050565b60028110612e5257612e51612dcd565b5b50565b6000819050612e6382612e41565b919050565b6000612e7382612e55565b9050919050565b612e8381612e68565b82525050565b60028110612e9a57612e99612dcd565b5b50565b6000819050612eab82612e89565b919050565b6000612ebb82612e9d565b9050919050565b612ecb81612eb0565b82525050565b600060a082019050612ee660008301886125da565b612ef360208301876125da565b612f0060408301866125da565b612f0d6060830185612e7a565b612f1a6080830184612ec2565b9695505050505050565b600080600060608486031215612f3d57612f3c612510565b5b6000612f4b86828701612ad5565b9350506020612f5c86828701612ad5565b9250506040612f6d86828701612ad5565b9150509250925092565b600081519050612f868161271c565b92915050565b600060208284031215612fa257612fa1612510565b5b6000612fb084828501612f77565b91505092915050565b612fc28161270a565b82525050565b6000604082019050612fdd6000830185612d25565b612fea6020830184612fb9565b9392505050565b7f54726164696e672073746f707065642100000000000000000000000000000000600082015250565b6000613027601083612a32565b915061303282612ff1565b602082019050919050565b600060208201905081810360008301526130568161301a565b9050919050565b7f496e636f727265637420636f737420706169642e000000000000000000000000600082015250565b6000613093601483612a32565b915061309e8261305d565b602082019050919050565b600060208201905081810360008301526130c281613086565b9050919050565b6000610140820190506130df600083018d6125da565b6130ec602083018c6125da565b6130f9604083018b6125da565b613106606083018a612e7a565b6131136080830189612ec2565b61312060a08301886125da565b61312d60c08301876125da565b61313a60e08301866125da565b6131486101008301856125da565b613156610120830184612788565b9b9a5050505050505050505050565b600060608201905061317a6000830186612788565b6131876020830185612788565b61319460408301846125da565b949350505050565b6000815190506131ab81612923565b92915050565b6000602082840312156131c7576131c6612510565b5b60006131d58482850161319c565b91505092915050565b7f4661696c6564207061796d656e742e0000000000000000000000000000000000600082015250565b6000613214600f83612a32565b915061321f826131de565b602082019050919050565b6000602082019050818103600083015261324381613207565b9050919050565b600080fd5b6000601f19601f8301169050919050565b7f4e487b7100000000000000000000000000000000000000000000000000000000600052604160045260246000fd5b6132988261324f565b810181811067ffffffffffffffff821117156132b7576132b6613260565b5b80604052505050565b60006132ca612506565b90506132d6828261328f565b919050565b6000815190506132ea8161283e565b92915050565b6000815190506132ff816127b2565b92915050565b6004811061331257600080fd5b50565b60008151905061332481613305565b92915050565b600061020082840312156133415761334061324a565b5b61334c6102006132c0565b9050600061335c848285016132db565b6000830152506020613370848285016132f0565b602083015250604061338484828501613315565b604083015250606061339884828501612f77565b60608301525060806133ac84828501612ad5565b60808301525060a06133c084828501612ad5565b60a08301525060c06133d484828501612ad5565b60c08301525060e06133e884828501612ad5565b60e0830152506101006133fd84828501612ad5565b6101008301525061012061341384828501612ad5565b6101208301525061014061342984828501612ad5565b6101408301525061016061343f84828501612ad5565b6101608301525061018061345584828501612ad5565b610180830152506101a061346b84828501612ad5565b6101a0830152506101c061348184828501612ad5565b6101c0830152506101e061349784828501612ad5565b6101e08301525092915050565b600061020082840312156134bb576134ba612510565b5b60006134c98482850161332a565b91505092915050565b6134db81612e68565b82525050565b6134ea81612eb0565b82525050565b6004811061350157613500612dcd565b5b50565b6000819050613512826134f0565b919050565b600061352282613504565b9050919050565b61353281613517565b82525050565b6135418161270a565b82525050565b613550816125d0565b82525050565b6102008201600082015161356d60008501826134d2565b50602082015161358060208501826134e1565b5060408201516135936040850182613529565b5060608201516135a66060850182613538565b5060808201516135b96080850182613547565b5060a08201516135cc60a0850182613547565b5060c08201516135df60c0850182613547565b5060e08201516135f260e0850182613547565b50610100820151613607610100850182613547565b5061012082015161361c610120850182613547565b50610140820151613631610140850182613547565b50610160820151613646610160850182613547565b5061018082015161365b610180850182613547565b506101a08201516136706101a0850182613547565b506101c08201516136856101c0850182613547565b506101e082015161369a6101e0850182613547565b50505050565b6000610240820190506136b66000830186613556565b6136c46102008301856125da565b6136d26102208301846125a6565b949350505050565b60006040820190506136ef60008301856125da565b6136fc6020830184612788565b9392505050565b600081905092915050565b7f416363657373436f6e74726f6c3a206163636f756e7420000000000000000000600082015250565b6000613744601783613703565b915061374f8261370e565b601782019050919050565b600081519050919050565b60005b83811015613783578082015181840152602081019050613768565b83811115613792576000848401525b50505050565b60006137a38261375a565b6137ad8185613703565b93506137bd818560208601613765565b80840191505092915050565b7f206973206d697373696e6720726f6c6520000000000000000000000000000000600082015250565b60006137ff601183613703565b915061380a826137c9565b601182019050919050565b600061382082613737565b915061382c8285613798565b9150613837826137f2565b91506138438284613798565b91508190509392505050565b600061385a8261375a565b6138648185612a32565b9350613874818560208601613765565b61387d8161324f565b840191505092915050565b600060208201905081810360008301526138a2818461384f565b905092915050565b60006060820190506138bf6000830186612d25565b6138cc6020830185612d25565b6138d96040830184612d25565b949350505050565b6138ea81612bec565b81146138f557600080fd5b50565b600081519050613907816138e1565b92915050565b60006020828403121561392357613922612510565b5b6000613931848285016138f8565b91505092915050565b600061394582612bec565b915061395083612bec565b9250827f7fffffffffffffffffffffffffffffffffffffffffffffffffffffffffffffff048211600084136000841316161561398f5761398e612bf6565b5b817f800000000000000000000000000000000000000000000000000000000000000005831260008412600084131616156139cc576139cb612bf6565b5b827f80000000000000000000000000000000000000000000000000000000000000000582126000841360008412161615613a0957613a08612bf6565b5b827f7fffffffffffffffffffffffffffffffffffffffffffffffffffffffffffffff0582126000841260008412161615613a4657613a45612bf6565b5b828202905092915050565b7f4e487b7100000000000000000000000000000000000000000000000000000000600052601260045260246000fd5b6000613a8b82612bec565b9150613a9683612bec565b925082613aa657613aa5613a51565b5b600160000383147f800000000000000000000000000000000000000000000000000000000000000083141615613adf57613ade612bf6565b5b828205905092915050565b6000613af5826125d0565b9150613b00836125d0565b9250817fffffffffffffffffffffffffffffffffffffffffffffffffffffffffffffffff0483118215151615613b3957613b38612bf6565b5b828202905092915050565b6000613b4f826125d0565b9150613b5a836125d0565b9250827fffffffffffffffffffffffffffffffffffffffffffffffffffffffffffffffff03821115613b8f57613b8e612bf6565b5b828201905092915050565b7f4e487b7100000000000000000000000000000000000000000000000000000000600052603260045260246000fd5b6000613bd4826125d0565b91506000821415613be857613be7612bf6565b5b600182039050919050565b7f537472696e67733a20686578206c656e67746820696e73756666696369656e74600082015250565b6000613c29602083612a32565b9150613c3482613bf3565b602082019050919050565b60006020820190508181036000830152613c5881613c1c565b9050919050565b6000613c6a82612bec565b91507f8000000000000000000000000000000000000000000000000000000000000000821415613c9d57613c9c612bf6565b5b816000039050919050565b6000613cb382612bec565b9150613cbe83612bec565b9250827f800000000000000000000000000000000000000000000000000000000000000001821260008412151615613cf957613cf8612bf6565b5b827f7fffffffffffffffffffffffffffffffffffffffffffffffffffffffffffffff018213600084121615613d3157613d30612bf6565b5b828203905092915050565b7f43617061636974792062726561636865642e0000000000000000000000000000600082015250565b6000613d72601283612a32565b9150613d7d82613d3c565b602082019050919050565b60006020820190508181036000830152613da181613d65565b905091905056fea2646970667358221220cecf694c9db2e26d4b6ef1c4147718ff70892364ecf5bbe6b4c0dae7c7528e3664736f6c63430008090033",
  "immutableReferences": {},
  "source": "// SPDX-License-Identifier: MIT\npragma solidity 0.8.9;\n\nimport \"@openzeppelin/contracts/token/ERC20/ERC20.sol\";\nimport \"@openzeppelin/contracts/access/AccessControl.sol\";\nimport \"@openzeppelin/contracts/utils/structs/EnumerableSet.sol\";\nimport \"./MoretInterfaces.sol\";\nimport \"./VolatilityToken.sol\";\nimport \"./MoretMarketMaker.sol\";\n\ncontract Exchange is AccessControl, EOption{\n  bytes32 public constant MINER_ROLE = keccak256(\"MINER_ROLE\");\n  // OptionLibrary.Percent public volTransactionFees = OptionLibrary.Percent(5 * 10 ** 3, 10 ** 6);\n  // address public contractAddress;\n  address public vaultAddress;\n  address public marketMakerAddress;\n  // ERC20 internal underlyingToken; // used to pay premiums (vol token is alternative)\n  // mapping(uint256=>VolatilityToken) public volTokensList;\n\n  MoretMarketMaker internal marketMaker;\n  OptionVault internal optionVault;\n\n  uint256 public volRiskPremiumMaxRatio= 18 * (10 ** 17);\n  uint256 public loanInterest = 0;\n\n  // ILendingPoolAddressesProvider internal lendingPoolAddressProvider;\n  // address internal swapRouterAddress;\n  // address internal aggregatorAddress;\n\n  // uint256 private constant ethMultiplier = 10 ** 18;\n  bool public allowTrading = true;\n  // uint256 lendingPoolRateMode = 2;\n  // bool internal useAggregator;\n  // uint256 public exchangeSlippageMax = 10 ** 16; // 1% max slippage allowed\n  // uint256 public exchangeDeadlineLag = 20; // 20s slippage time\n\n  constructor( address _marketMakerAddress,address _vaultAddress){// address payable _volTokenAddress)\n    _setupRole(DEFAULT_ADMIN_ROLE, msg.sender);\n    _setupRole(MINER_ROLE, msg.sender);\n    vaultAddress = _vaultAddress;\n    optionVault = OptionVault(_vaultAddress);\n    marketMakerAddress = _marketMakerAddress;\n    marketMaker = MoretMarketMaker(_marketMakerAddress);\n    // VolatilityToken _volToken = VolatilityToken(_volTokenAddress);\n    // volTokensList[_volToken.tenor()] = _volToken;\n    // contractAddress = address(this);\n    // underlyingToken = ERC20(marketMaker.underlyingAddress());\n    // swapRouterAddress = _swapRouterAddress;\n    // aggregatorAddress = _aggregatorAddress;\n    // lendingPoolAddressProvider = ILendingPoolAddressesProvider(_lendingPoolAddressProvider);\n    // useAggregator = false;\n    }\n\n  function calcOptionCost(uint256 _tenor, uint256 _strike, uint256 _amount, OptionLibrary.PayoffType _poType, OptionLibrary.OptionSide _side) public view returns(uint256 _premium, uint256 _cost, uint256 _price, uint256 _vol){\n    _vol = queryOptionVolatility(_tenor, _strike, _amount, _side);\n    uint256 _adjustedStrike = OptionLibrary.adjustSlippage(_strike, false, marketMaker.swapSlippage(), 0); // downward\n    if((_poType==OptionLibrary.PayoffType.Put && _side == OptionLibrary.OptionSide.Buy) || (_poType==OptionLibrary.PayoffType.Call && _side == OptionLibrary.OptionSide.Sell)){ \n      _adjustedStrike = OptionLibrary.adjustSlippage(_strike,true, marketMaker.swapSlippage(), loanInterest);}\n    (_premium, _cost, _price) = optionVault.queryOptionCost(_adjustedStrike, _amount, _vol, _poType, _side);\n    _premium = MarketLibrary.cvtDecimals(_premium, optionVault.funding());\n    _cost = MarketLibrary.cvtDecimals(_cost, optionVault.funding());}\n\n  function queryOptionVolatility(uint256 _tenor, uint256 _strike, uint256 _amount, OptionLibrary.OptionSide _side) public view returns(uint256 _vol){  \n    _vol = optionVault.queryVol(_tenor); // running vol\n    (uint256 _price,) = optionVault.queryPrice();\n    require(MulDiv(_amount, _price, OptionLibrary.Multiplier())<=marketMaker.calcCapital(true,false),'insufficient capital');\n    int256 _riskPremium = calcRiskPremium(_price, _vol, _strike, _amount, _side);\n    require((int256(_vol)+_riskPremium) > 0,\"Incorrect vol premium\");\n    _vol = uint256(int256(_vol)+_riskPremium);}\n\n  function calcRiskPremium(uint256 _price, uint256 _vol, uint256 _strike, uint256 _amount,OptionLibrary.OptionSide _side) internal view returns(int256) {\n    uint256 _maxGamma = MulDiv(OptionLibrary.calcGamma(_price, _price, _vol), marketMaker.calcCapital(false, false), _price);\n    int256 _currentGamma = optionVault.calculateAggregateGamma(false); // include sells.\n    int256 _newGamma = _currentGamma + int256(MulDiv(OptionLibrary.calcGamma(_price, _strike, _vol), _amount, OptionLibrary.Multiplier() )) * (_side==OptionLibrary.OptionSide.Sell? -1: int(1));\n    uint256 _K = MulDiv(_vol, volRiskPremiumMaxRatio, OptionLibrary.Multiplier());\n    return (calcRiskPremiumAMM(_maxGamma, _currentGamma,  _K) + calcRiskPremiumAMM(_maxGamma, _newGamma, _K)) / 2;}\n\n  function calcRiskPremiumAMM(uint256 _max, int256 _input, uint256 _constant) internal pure returns(int256) {\n    int256 _capacity = int256(OptionLibrary.Multiplier()); // capacity should be in (0,2)\n    if(_input < 0){_capacity +=  int256(MulDiv(uint256(-_input), OptionLibrary.Multiplier(), _max));}\n    if(_input > 0){ _capacity -= int256(MulDiv(uint256(_input) , OptionLibrary.Multiplier(), _max));}\n    require((_capacity>=0) && (_capacity <= int256(2 * OptionLibrary.Multiplier())),\"Capacity breached.\");\n    return int256(MulDiv(_constant, OptionLibrary.Multiplier(), uint256(_capacity))) - int256(_constant);}\n\n  function purchaseOption(uint256 _tenor, uint256 _strike, uint256 _amount, OptionLibrary.PayoffType _poType, OptionLibrary.OptionSide _side, uint256 _payInCost) external {\n    require(allowTrading,\"Trading stopped!\");\n    (uint256 _premium, uint256 _cost, uint256 _price, uint256 _vol) = calcOptionCost(_tenor, _strike, _amount, _poType, _side );      \n    require(_payInCost >= _cost, \"Incorrect cost paid.\");\n    uint256 _id = optionVault.addOption(_tenor, _strike, _amount, _poType, _side, _premium, _cost, _price, _vol, msg.sender);\n    require(ERC20(optionVault.funding()).transferFrom(msg.sender, address(marketMaker), _payInCost), 'Failed payment.');  \n    emit newOptionBought(msg.sender, optionVault.getOption(_id), _payInCost, false);\n    optionVault.stampActiveOption(_id, msg.sender);}\n\n  function getOptionPayoffValue(uint256 _id) external view returns(uint256 _payback){\n    (,_payback) = optionVault.getContractPayoff(_id);}\n\n  /* function purchaseOptionInVol(uint256 _tenor, uint256 _strike, uint256 _amount, OptionLibrary.PayoffType _poType, OptionLibrary.OptionSide _side, uint256 _payInCost) external {\n    (uint256 _premium, uint256 _cost, uint256 _price, uint256 _vol) = calcOptionCost(_tenor, _strike, _amount, _poType, _side ); \n\n    uint256 _premium = queryOptionCost(_tenor, _strike, _amount, _poType,OptionLibrary.OptionSide.Buy );\n    uint256 _fee = MulDiv(_premium, settlementFee.numerator, settlementFee.denominator);\n\n    uint256 _id = optionVault.addOption(_tenor, _strike, _poType, OptionLibrary.OptionSide.Buy, _amount, _premium - _fee, _fee );\n    require(_payInCost >= optionVault.queryDraftOptionCost(_id, true), \"Entered premium incorrect.\");\n\n    require(volTokensList[_tenor].transferFrom(msg.sender, contractAddress, _payInCost), 'Failed payment.');\n\n    volTokensList[_tenor].approve(volTokensList[_tenor].contractAddress(), _payInCost);\n    volTokensList[_tenor].recycleInToken(contractAddress, _payInCost, underlyingToken);\n    require(underlyingToken.transfer(marketMakerAddress, optionVault.queryOptionPremium(_id)), 'Failed premium payment.');\n\n    optionVault.stampActiveOption(_id);\n\n    marketMaker.recordOption(msg.sender, _id, true,\n      optionVault.queryOptionPremium(_id),\n      optionVault.queryOptionExposure(_id, OptionLibrary.PayoffType.Call),\n      optionVault.queryOptionExposure(_id, OptionLibrary.PayoffType.Put));\n\n    emit newOptionBought(msg.sender, optionVault.getOption(_id), _payInCost, true);\n\n  }  */\n\n\n      // function addVolToken(address payable _tokenAddress) external onlyRole(ADMIN_ROLE)\n      // {\n      //     VolatilityToken _volToken = VolatilityToken(_tokenAddress);\n      //     /* require(_volToken.descriptionHash() == optionVault.descriptionHash());\n      //     require(optionVault.containsTenor(_volToken.tenor())); */\n\n      //     volTokensList[_volToken.tenor()] = _volToken;\n\n      // }\n\n      // function quoteVolatilityCost(uint256 _tenor, uint256 _volAmount) public view returns(uint256, uint256)\n      // {\n      //     /* require(optionVault.containsTenor(_tenor)); */\n\n      //     (uint256 _price,) = optionVault.queryPrice();\n      //     (uint256 _volatility, ) = optionVault.queryVol(_tenor);\n\n      //     uint256 _value = volTokensList[_tenor].calculateMintValue(_volAmount, _price, _volatility);\n      //     uint256 _fee = _value * volTransactionFees.numerator/ volTransactionFees.denominator;\n\n      //     return (_value, _fee);\n      // }\n\n      // function purchaseVolatilityToken(uint256 _tenor, uint256 _volAmount, uint256 _payInCost)\n      // external {\n      //     (uint256 _value, uint256 _fee) = quoteVolatilityCost(_tenor, _volAmount);\n      //     require(_payInCost >= (_value + _fee));\n\n      //     underlyingToken.transferFrom(msg.sender, address(volTokensList[_tenor]), _value);\n      //     volTokensList[_tenor].mint{value: _value}(msg.sender, _volAmount);\n\n      //     emit newVolatilityTokenBought(msg.sender, block.timestamp, _tenor, _volAmount);\n      // }\n\n    function resetLoanRate(uint256 _loanInterest) external onlyRole(MINER_ROLE){ loanInterest = _loanInterest;}\n    function resetRiskPremiumMaxRatio(uint256 _newRatio) external onlyRole(DEFAULT_ADMIN_ROLE){ volRiskPremiumMaxRatio=_newRatio;}\n    function resetTrading(bool _allowTrading) external onlyRole(DEFAULT_ADMIN_ROLE) {allowTrading=_allowTrading;}\n    function queryPrice() external view returns(uint256, uint256){return optionVault.queryPrice();}\n    function queryVol(uint256 _tenor) external view returns(uint256){return optionVault.queryVol(_tenor);}\n}\n",
  "sourcePath": "/Users/apple/Documents/GitHub/moret/contracts/Exchange.sol",
  "compiler": {
    "name": "solc",
    "version": "0.8.9+commit.e5eed63a.Emscripten.clang"
  },
  "schemaVersion": "3.4.3",
  "updatedAt": "2021-11-26T17:45:47.776Z",
  "networkType": "ethereum",
  "devdoc": {
    "kind": "dev",
    "methods": {
      "getRoleAdmin(bytes32)": {
        "details": "Returns the admin role that controls `role`. See {grantRole} and {revokeRole}. To change a role's admin, use {_setRoleAdmin}."
      },
      "grantRole(bytes32,address)": {
        "details": "Grants `role` to `account`. If `account` had not been already granted `role`, emits a {RoleGranted} event. Requirements: - the caller must have ``role``'s admin role."
      },
      "hasRole(bytes32,address)": {
        "details": "Returns `true` if `account` has been granted `role`."
      },
      "renounceRole(bytes32,address)": {
        "details": "Revokes `role` from the calling account. Roles are often managed via {grantRole} and {revokeRole}: this function's purpose is to provide a mechanism for accounts to lose their privileges if they are compromised (such as when a trusted device is misplaced). If the calling account had been granted `role`, emits a {RoleRevoked} event. Requirements: - the caller must be `account`."
      },
      "revokeRole(bytes32,address)": {
        "details": "Revokes `role` from `account`. If `account` had been granted `role`, emits a {RoleRevoked} event. Requirements: - the caller must have ``role``'s admin role."
      },
      "supportsInterface(bytes4)": {
        "details": "See {IERC165-supportsInterface}."
      }
    },
    "version": 1
  },
  "userdoc": {
    "kind": "user",
    "methods": {},
    "version": 1
  }
}