{
  "contractName": "Exchange",
  "abi": [
    {
      "inputs": [
        {
          "internalType": "address",
          "name": "_marketMakerAddress",
          "type": "address"
        },
        {
          "internalType": "address",
          "name": "_vaultAddress",
          "type": "address"
        }
      ],
      "stateMutability": "nonpayable",
      "type": "constructor"
    },
    {
      "anonymous": false,
      "inputs": [
        {
          "indexed": false,
          "internalType": "bool",
          "name": "success",
          "type": "bool"
        },
        {
          "indexed": false,
          "internalType": "bytes",
          "name": "data",
          "type": "bytes"
        }
      ],
      "name": "Response",
      "type": "event"
    },
    {
      "anonymous": false,
      "inputs": [
        {
          "indexed": true,
          "internalType": "bytes32",
          "name": "role",
          "type": "bytes32"
        },
        {
          "indexed": true,
          "internalType": "bytes32",
          "name": "previousAdminRole",
          "type": "bytes32"
        },
        {
          "indexed": true,
          "internalType": "bytes32",
          "name": "newAdminRole",
          "type": "bytes32"
        }
      ],
      "name": "RoleAdminChanged",
      "type": "event"
    },
    {
      "anonymous": false,
      "inputs": [
        {
          "indexed": true,
          "internalType": "bytes32",
          "name": "role",
          "type": "bytes32"
        },
        {
          "indexed": true,
          "internalType": "address",
          "name": "account",
          "type": "address"
        },
        {
          "indexed": true,
          "internalType": "address",
          "name": "sender",
          "type": "address"
        }
      ],
      "name": "RoleGranted",
      "type": "event"
    },
    {
      "anonymous": false,
      "inputs": [
        {
          "indexed": true,
          "internalType": "bytes32",
          "name": "role",
          "type": "bytes32"
        },
        {
          "indexed": true,
          "internalType": "address",
          "name": "account",
          "type": "address"
        },
        {
          "indexed": true,
          "internalType": "address",
          "name": "sender",
          "type": "address"
        }
      ],
      "name": "RoleRevoked",
      "type": "event"
    },
    {
      "anonymous": false,
      "inputs": [
        {
          "indexed": false,
          "internalType": "address",
          "name": "_recipient",
          "type": "address"
        },
        {
          "indexed": false,
          "internalType": "uint256",
          "name": "_mintMPTokenAmount",
          "type": "uint256"
        },
        {
          "indexed": false,
          "internalType": "uint256",
          "name": "_addedValue",
          "type": "uint256"
        }
      ],
      "name": "capitalAdded",
      "type": "event"
    },
    {
      "anonymous": false,
      "inputs": [
        {
          "indexed": false,
          "internalType": "address",
          "name": "_recipient",
          "type": "address"
        },
        {
          "indexed": false,
          "internalType": "uint256",
          "name": "_burnMPTokenAmount",
          "type": "uint256"
        },
        {
          "indexed": false,
          "internalType": "uint256",
          "name": "_withdrawValue",
          "type": "uint256"
        }
      ],
      "name": "capitalWithdrawn",
      "type": "event"
    },
    {
      "anonymous": false,
      "inputs": [
        {
          "indexed": true,
          "internalType": "address",
          "name": "_purchaser",
          "type": "address"
        },
        {
          "components": [
            {
              "internalType": "enum OptionLibrary.PayoffType",
              "name": "poType",
              "type": "uint8"
            },
            {
              "internalType": "enum OptionLibrary.OptionSide",
              "name": "side",
              "type": "uint8"
            },
            {
              "internalType": "enum OptionLibrary.OptionStatus",
              "name": "status",
              "type": "uint8"
            },
            {
              "internalType": "address",
              "name": "holder",
              "type": "address"
            },
            {
              "internalType": "uint256",
              "name": "id",
              "type": "uint256"
            },
            {
              "internalType": "uint256",
              "name": "createTime",
              "type": "uint256"
            },
            {
              "internalType": "uint256",
              "name": "effectiveTime",
              "type": "uint256"
            },
            {
              "internalType": "uint256",
              "name": "tenor",
              "type": "uint256"
            },
            {
              "internalType": "uint256",
              "name": "maturity",
              "type": "uint256"
            },
            {
              "internalType": "uint256",
              "name": "exerciseTime",
              "type": "uint256"
            },
            {
              "internalType": "uint256",
              "name": "amount",
              "type": "uint256"
            },
            {
              "internalType": "uint256",
              "name": "spot",
              "type": "uint256"
            },
            {
              "internalType": "uint256",
              "name": "strike",
              "type": "uint256"
            },
            {
              "internalType": "uint256",
              "name": "volatility",
              "type": "uint256"
            },
            {
              "internalType": "uint256",
              "name": "premium",
              "type": "uint256"
            },
            {
              "internalType": "uint256",
              "name": "cost",
              "type": "uint256"
            }
          ],
          "indexed": false,
          "internalType": "struct OptionLibrary.Option",
          "name": "_option",
          "type": "tuple"
        },
        {
          "indexed": false,
          "internalType": "uint256",
          "name": "_cost",
          "type": "uint256"
        },
        {
          "indexed": false,
          "internalType": "bool",
          "name": "_inVol",
          "type": "bool"
        }
      ],
      "name": "newOptionBought",
      "type": "event"
    },
    {
      "anonymous": false,
      "inputs": [
        {
          "indexed": true,
          "internalType": "address",
          "name": "_purchaser",
          "type": "address"
        },
        {
          "components": [
            {
              "internalType": "enum OptionLibrary.PayoffType",
              "name": "poType",
              "type": "uint8"
            },
            {
              "internalType": "enum OptionLibrary.OptionSide",
              "name": "side",
              "type": "uint8"
            },
            {
              "internalType": "enum OptionLibrary.OptionStatus",
              "name": "status",
              "type": "uint8"
            },
            {
              "internalType": "address",
              "name": "holder",
              "type": "address"
            },
            {
              "internalType": "uint256",
              "name": "id",
              "type": "uint256"
            },
            {
              "internalType": "uint256",
              "name": "createTime",
              "type": "uint256"
            },
            {
              "internalType": "uint256",
              "name": "effectiveTime",
              "type": "uint256"
            },
            {
              "internalType": "uint256",
              "name": "tenor",
              "type": "uint256"
            },
            {
              "internalType": "uint256",
              "name": "maturity",
              "type": "uint256"
            },
            {
              "internalType": "uint256",
              "name": "exerciseTime",
              "type": "uint256"
            },
            {
              "internalType": "uint256",
              "name": "amount",
              "type": "uint256"
            },
            {
              "internalType": "uint256",
              "name": "spot",
              "type": "uint256"
            },
            {
              "internalType": "uint256",
              "name": "strike",
              "type": "uint256"
            },
            {
              "internalType": "uint256",
              "name": "volatility",
              "type": "uint256"
            },
            {
              "internalType": "uint256",
              "name": "premium",
              "type": "uint256"
            },
            {
              "internalType": "uint256",
              "name": "cost",
              "type": "uint256"
            }
          ],
          "indexed": false,
          "internalType": "struct OptionLibrary.Option",
          "name": "_option",
          "type": "tuple"
        },
        {
          "indexed": false,
          "internalType": "uint256",
          "name": "_payoff",
          "type": "uint256"
        }
      ],
      "name": "optionExercised",
      "type": "event"
    },
    {
      "anonymous": false,
      "inputs": [
        {
          "indexed": false,
          "internalType": "address",
          "name": "_purchaser",
          "type": "address"
        },
        {
          "indexed": false,
          "internalType": "uint256",
          "name": "_time",
          "type": "uint256"
        },
        {
          "indexed": false,
          "internalType": "uint256",
          "name": "_tenor",
          "type": "uint256"
        },
        {
          "indexed": false,
          "internalType": "uint256",
          "name": "_amount",
          "type": "uint256"
        },
        {
          "indexed": false,
          "internalType": "uint256",
          "name": "_cost",
          "type": "uint256"
        }
      ],
      "name": "volatilityTokenBought",
      "type": "event"
    },
    {
      "anonymous": false,
      "inputs": [
        {
          "indexed": false,
          "internalType": "address",
          "name": "_seller",
          "type": "address"
        },
        {
          "indexed": false,
          "internalType": "uint256",
          "name": "_time",
          "type": "uint256"
        },
        {
          "indexed": false,
          "internalType": "uint256",
          "name": "_tenor",
          "type": "uint256"
        },
        {
          "indexed": false,
          "internalType": "uint256",
          "name": "_amount",
          "type": "uint256"
        },
        {
          "indexed": false,
          "internalType": "uint256",
          "name": "_cost",
          "type": "uint256"
        }
      ],
      "name": "volatilityTokenSold",
      "type": "event"
    },
    {
      "inputs": [],
      "name": "ADMIN_ROLE",
      "outputs": [
        {
          "internalType": "bytes32",
          "name": "",
          "type": "bytes32"
        }
      ],
      "stateMutability": "view",
      "type": "function",
      "constant": true
    },
    {
      "inputs": [],
      "name": "DEFAULT_ADMIN_ROLE",
      "outputs": [
        {
          "internalType": "bytes32",
          "name": "",
          "type": "bytes32"
        }
      ],
      "stateMutability": "view",
      "type": "function",
      "constant": true
    },
    {
      "inputs": [],
      "name": "allowTrading",
      "outputs": [
        {
          "internalType": "bool",
          "name": "",
          "type": "bool"
        }
      ],
      "stateMutability": "view",
      "type": "function",
      "constant": true
    },
    {
      "inputs": [
        {
          "internalType": "bytes32",
          "name": "role",
          "type": "bytes32"
        }
      ],
      "name": "getRoleAdmin",
      "outputs": [
        {
          "internalType": "bytes32",
          "name": "",
          "type": "bytes32"
        }
      ],
      "stateMutability": "view",
      "type": "function",
      "constant": true
    },
    {
      "inputs": [
        {
          "internalType": "bytes32",
          "name": "role",
          "type": "bytes32"
        },
        {
          "internalType": "address",
          "name": "account",
          "type": "address"
        }
      ],
      "name": "grantRole",
      "outputs": [],
      "stateMutability": "nonpayable",
      "type": "function"
    },
    {
      "inputs": [
        {
          "internalType": "bytes32",
          "name": "role",
          "type": "bytes32"
        },
        {
          "internalType": "address",
          "name": "account",
          "type": "address"
        }
      ],
      "name": "hasRole",
      "outputs": [
        {
          "internalType": "bool",
          "name": "",
          "type": "bool"
        }
      ],
      "stateMutability": "view",
      "type": "function",
      "constant": true
    },
    {
      "inputs": [],
      "name": "loanInterest",
      "outputs": [
        {
          "internalType": "uint256",
          "name": "",
          "type": "uint256"
        }
      ],
      "stateMutability": "view",
      "type": "function",
      "constant": true
    },
    {
      "inputs": [],
      "name": "marketMakerAddress",
      "outputs": [
        {
          "internalType": "address",
          "name": "",
          "type": "address"
        }
      ],
      "stateMutability": "view",
      "type": "function",
      "constant": true
    },
    {
      "inputs": [
        {
          "internalType": "bytes32",
          "name": "role",
          "type": "bytes32"
        },
        {
          "internalType": "address",
          "name": "account",
          "type": "address"
        }
      ],
      "name": "renounceRole",
      "outputs": [],
      "stateMutability": "nonpayable",
      "type": "function"
    },
    {
      "inputs": [
        {
          "internalType": "bytes32",
          "name": "role",
          "type": "bytes32"
        },
        {
          "internalType": "address",
          "name": "account",
          "type": "address"
        }
      ],
      "name": "revokeRole",
      "outputs": [],
      "stateMutability": "nonpayable",
      "type": "function"
    },
    {
      "inputs": [
        {
          "internalType": "bytes4",
          "name": "interfaceId",
          "type": "bytes4"
        }
      ],
      "name": "supportsInterface",
      "outputs": [
        {
          "internalType": "bool",
          "name": "",
          "type": "bool"
        }
      ],
      "stateMutability": "view",
      "type": "function",
      "constant": true
    },
    {
      "inputs": [],
      "name": "vaultAddress",
      "outputs": [
        {
          "internalType": "address",
          "name": "",
          "type": "address"
        }
      ],
      "stateMutability": "view",
      "type": "function",
      "constant": true
    },
    {
      "inputs": [],
      "name": "volCapacityFactor",
      "outputs": [
        {
          "internalType": "uint256",
          "name": "",
          "type": "uint256"
        }
      ],
      "stateMutability": "view",
      "type": "function",
      "constant": true
    },
    {
      "inputs": [
        {
          "internalType": "uint256",
          "name": "",
          "type": "uint256"
        }
      ],
      "name": "volTokenAddressList",
      "outputs": [
        {
          "internalType": "address",
          "name": "",
          "type": "address"
        }
      ],
      "stateMutability": "view",
      "type": "function",
      "constant": true
    },
    {
      "inputs": [
        {
          "internalType": "uint256",
          "name": "_tenor",
          "type": "uint256"
        },
        {
          "internalType": "uint256",
          "name": "_strike",
          "type": "uint256"
        },
        {
          "internalType": "uint256",
          "name": "_amount",
          "type": "uint256"
        },
        {
          "internalType": "enum OptionLibrary.PayoffType",
          "name": "_poType",
          "type": "uint8"
        },
        {
          "internalType": "enum OptionLibrary.OptionSide",
          "name": "_side",
          "type": "uint8"
        }
      ],
      "name": "calcCost",
      "outputs": [
        {
          "internalType": "uint256",
          "name": "",
          "type": "uint256"
        },
        {
          "internalType": "uint256",
          "name": "",
          "type": "uint256"
        },
        {
          "internalType": "uint256",
          "name": "",
          "type": "uint256"
        }
      ],
      "stateMutability": "view",
      "type": "function",
      "constant": true
    },
    {
      "inputs": [
        {
          "internalType": "uint256",
          "name": "_tenor",
          "type": "uint256"
        },
        {
          "internalType": "uint256",
          "name": "_price",
          "type": "uint256"
        },
        {
          "internalType": "uint256",
          "name": "_strike",
          "type": "uint256"
        },
        {
          "internalType": "uint256",
          "name": "_amount",
          "type": "uint256"
        },
        {
          "internalType": "enum OptionLibrary.PayoffType",
          "name": "_poType",
          "type": "uint8"
        },
        {
          "internalType": "enum OptionLibrary.OptionSide",
          "name": "_side",
          "type": "uint8"
        }
      ],
      "name": "calcOptionCost",
      "outputs": [
        {
          "internalType": "uint256",
          "name": "_premium",
          "type": "uint256"
        },
        {
          "internalType": "uint256",
          "name": "_cost",
          "type": "uint256"
        },
        {
          "internalType": "uint256",
          "name": "_vol",
          "type": "uint256"
        }
      ],
      "stateMutability": "view",
      "type": "function",
      "constant": true
    },
    {
      "inputs": [
        {
          "internalType": "uint256",
          "name": "_tenor",
          "type": "uint256"
        },
        {
          "internalType": "uint256",
          "name": "_strike",
          "type": "uint256"
        },
        {
          "internalType": "uint256",
          "name": "_amount",
          "type": "uint256"
        },
        {
          "internalType": "enum OptionLibrary.OptionSide",
          "name": "_side",
          "type": "uint8"
        }
      ],
      "name": "queryOptionVolatility",
      "outputs": [
        {
          "internalType": "uint256",
          "name": "_vol",
          "type": "uint256"
        }
      ],
      "stateMutability": "view",
      "type": "function",
      "constant": true
    },
    {
      "inputs": [
        {
          "internalType": "uint256",
          "name": "_tenor",
          "type": "uint256"
        },
        {
          "internalType": "uint256",
          "name": "_strike",
          "type": "uint256"
        },
        {
          "internalType": "uint256",
          "name": "_amount",
          "type": "uint256"
        },
        {
          "internalType": "enum OptionLibrary.PayoffType",
          "name": "_poType",
          "type": "uint8"
        },
        {
          "internalType": "enum OptionLibrary.OptionSide",
          "name": "_side",
          "type": "uint8"
        },
        {
          "internalType": "uint256",
          "name": "_payInCost",
          "type": "uint256"
        }
      ],
      "name": "purchaseOption",
      "outputs": [],
      "stateMutability": "nonpayable",
      "type": "function"
    },
    {
      "inputs": [
        {
          "internalType": "uint256",
          "name": "_id",
          "type": "uint256"
        }
      ],
      "name": "getOptionPayoffValue",
      "outputs": [
        {
          "internalType": "uint256",
          "name": "_payback",
          "type": "uint256"
        }
      ],
      "stateMutability": "view",
      "type": "function",
      "constant": true
    },
    {
      "inputs": [
        {
          "internalType": "uint256",
          "name": "_tenor",
          "type": "uint256"
        },
        {
          "internalType": "uint256",
          "name": "_amount",
          "type": "uint256"
        },
        {
          "internalType": "enum OptionLibrary.OptionSide",
          "name": "_side",
          "type": "uint8"
        }
      ],
      "name": "calcVolAmount",
      "outputs": [
        {
          "internalType": "uint256",
          "name": "_volAmount",
          "type": "uint256"
        },
        {
          "internalType": "uint256",
          "name": "_vol",
          "type": "uint256"
        },
        {
          "internalType": "uint256",
          "name": "_premium",
          "type": "uint256"
        },
        {
          "internalType": "uint256",
          "name": "_cost",
          "type": "uint256"
        },
        {
          "internalType": "uint256",
          "name": "_price",
          "type": "uint256"
        }
      ],
      "stateMutability": "view",
      "type": "function",
      "constant": true
    },
    {
      "inputs": [
        {
          "internalType": "uint256",
          "name": "_tenor",
          "type": "uint256"
        },
        {
          "internalType": "uint256",
          "name": "_amount",
          "type": "uint256"
        },
        {
          "internalType": "uint256",
          "name": "_payInCost",
          "type": "uint256"
        }
      ],
      "name": "buyVol",
      "outputs": [],
      "stateMutability": "nonpayable",
      "type": "function"
    },
    {
      "inputs": [
        {
          "internalType": "uint256",
          "name": "_tenor",
          "type": "uint256"
        },
        {
          "internalType": "uint256",
          "name": "_amount",
          "type": "uint256"
        },
        {
          "internalType": "uint256",
          "name": "_payInVol",
          "type": "uint256"
        }
      ],
      "name": "sellVol",
      "outputs": [],
      "stateMutability": "nonpayable",
      "type": "function"
    },
    {
      "inputs": [
        {
          "internalType": "uint256",
          "name": "_tenor",
          "type": "uint256"
        },
        {
          "internalType": "uint256",
          "name": "_amount",
          "type": "uint256"
        },
        {
          "internalType": "enum OptionLibrary.PayoffType",
          "name": "_poType",
          "type": "uint8"
        },
        {
          "internalType": "uint256",
          "name": "_payInVol",
          "type": "uint256"
        }
      ],
      "name": "buyOptionInVol",
      "outputs": [],
      "stateMutability": "nonpayable",
      "type": "function"
    },
    {
      "inputs": [
        {
          "internalType": "uint256",
          "name": "_tenor",
          "type": "uint256"
        },
        {
          "internalType": "uint256",
          "name": "_amount",
          "type": "uint256"
        },
        {
          "internalType": "enum OptionLibrary.PayoffType",
          "name": "_poType",
          "type": "uint8"
        },
        {
          "internalType": "uint256",
          "name": "_payInCost",
          "type": "uint256"
        }
      ],
      "name": "sellOptionInVol",
      "outputs": [],
      "stateMutability": "nonpayable",
      "type": "function"
    },
    {
      "inputs": [
        {
          "internalType": "uint256",
          "name": "_tenor",
          "type": "uint256"
        },
        {
          "internalType": "address",
          "name": "_tokenAddress",
          "type": "address"
        }
      ],
      "name": "addVolToken",
      "outputs": [],
      "stateMutability": "nonpayable",
      "type": "function"
    },
    {
      "inputs": [
        {
          "internalType": "uint256",
          "name": "_tenor",
          "type": "uint256"
        }
      ],
      "name": "removeVolToken",
      "outputs": [],
      "stateMutability": "nonpayable",
      "type": "function"
    },
    {
      "inputs": [
        {
          "internalType": "uint256",
          "name": "_loanInterest",
          "type": "uint256"
        }
      ],
      "name": "resetLoanRate",
      "outputs": [],
      "stateMutability": "nonpayable",
      "type": "function"
    },
    {
      "inputs": [
        {
          "internalType": "uint256",
          "name": "_newFactor",
          "type": "uint256"
        }
      ],
      "name": "resetVolCapacityFactor",
      "outputs": [],
      "stateMutability": "nonpayable",
      "type": "function"
    },
    {
      "inputs": [
        {
          "internalType": "bool",
          "name": "_allowTrading",
          "type": "bool"
        }
      ],
      "name": "resetTrading",
      "outputs": [],
      "stateMutability": "nonpayable",
      "type": "function"
    }
  ],
  "bytecode": "0x60806040526706f05b59d3b2000060065560006007556001600860006101000a81548160ff0219169083151502179055503480156200003d57600080fd5b50604051620058e9380380620058e9833981810160405281019062000063919062000399565b620000786000801b33620001b660201b60201c565b620000aa7fa49807205ce4d355092ef5a8a18f56e8913cf4a201fbe287825b095693c2177533620001b660201b60201c565b80600160006101000a81548173ffffffffffffffffffffffffffffffffffffffff021916908373ffffffffffffffffffffffffffffffffffffffff16021790555080600560006101000a81548173ffffffffffffffffffffffffffffffffffffffff021916908373ffffffffffffffffffffffffffffffffffffffff16021790555081600260006101000a81548173ffffffffffffffffffffffffffffffffffffffff021916908373ffffffffffffffffffffffffffffffffffffffff16021790555081600460006101000a81548173ffffffffffffffffffffffffffffffffffffffff021916908373ffffffffffffffffffffffffffffffffffffffff1602179055505050620003e0565b620001c88282620001cc60201b60201c565b5050565b620001de8282620002bd60201b60201c565b620002b957600160008084815260200190815260200160002060000160008373ffffffffffffffffffffffffffffffffffffffff1673ffffffffffffffffffffffffffffffffffffffff16815260200190815260200160002060006101000a81548160ff0219169083151502179055506200025e6200032760201b60201c565b73ffffffffffffffffffffffffffffffffffffffff168173ffffffffffffffffffffffffffffffffffffffff16837f2f8788117e7eff1d82e926ec794901d17c78024a50270940304540a733656f0d60405160405180910390a45b5050565b600080600084815260200190815260200160002060000160008373ffffffffffffffffffffffffffffffffffffffff1673ffffffffffffffffffffffffffffffffffffffff16815260200190815260200160002060009054906101000a900460ff16905092915050565b600033905090565b600080fd5b600073ffffffffffffffffffffffffffffffffffffffff82169050919050565b6000620003618262000334565b9050919050565b620003738162000354565b81146200037f57600080fd5b50565b600081519050620003938162000368565b92915050565b60008060408385031215620003b357620003b26200032f565b5b6000620003c38582860162000382565b9250506020620003d68582860162000382565b9150509250929050565b6154f980620003f06000396000f3fe608060405234801561001057600080fd5b50600436106101cf5760003560e01c80636a7d116f11610104578063a34a1e4d116100a2578063dab2432911610071578063dab2432914610530578063dbfed7831461054c578063e327c24814610568578063edf0bec61461059a576101cf565b8063a34a1e4d146104bc578063a7292ea4146104d8578063cc910588146104f6578063d547741f14610514576101cf565b806375b8452b116100de57806375b8452b1461041e5780638d4939c61461045257806391d148541461046e578063a217fddf1461049e576101cf565b80636a7d116f146103b45780637188157e146103e457806375b238fc14610400576101cf565b80632f2ff15d11610171578063430bf08a1161014b578063430bf08a1461032c5780634b7a58fb1461034a5780634d937da91461036657806368fefdfb14610382576101cf565b80632f2ff15d146102c457806336568abe146102e057806340d6eaab146102fc576101cf565b80630f902618116101ad5780630f9026181461023c578063130dab6a1461025a578063248a9ca3146102765780632e5b4c43146102a6576101cf565b806301ffc9a7146101d45780630227ac83146102045780630c64307d14610220575b600080fd5b6101ee60048036038101906101e99190613946565b6105ca565b6040516101fb919061398e565b60405180910390f35b61021e60048036038101906102199190613a3d565b610644565b005b61023a60048036038101906102359190613a7d565b6108ec565b005b610244610929565b6040516102519190613ab9565b60405180910390f35b610274600480360381019061026f9190613a7d565b61092f565b005b610290600480360381019061028b9190613b0a565b6109b8565b60405161029d9190613b46565b60405180910390f35b6102ae6109d7565b6040516102bb919061398e565b60405180910390f35b6102de60048036038101906102d99190613b61565b6109ea565b005b6102fa60048036038101906102f59190613b61565b610a13565b005b61031660048036038101906103119190613a7d565b610a96565b6040516103239190613ab9565b60405180910390f35b610334610b3e565b6040516103419190613bb0565b60405180910390f35b610364600480360381019061035f9190613bcb565b610b64565b005b610380600480360381019061037b9190613c43565b610e41565b005b61039c60048036038101906103979190613ccf565b6114a1565b6040516103ab93929190613d4a565b60405180910390f35b6103ce60048036038101906103c99190613d81565b61155a565b6040516103db9190613ab9565b60405180910390f35b6103fe60048036038101906103f99190613c43565b61185e565b005b610408611ea8565b6040516104159190613b46565b60405180910390f35b61043860048036038101906104339190613de8565b611ecc565b604051610449959493929190613e3b565b60405180910390f35b61046c60048036038101906104679190613eba565b612156565b005b61048860048036038101906104839190613b61565b612189565b604051610495919061398e565b60405180910390f35b6104a66121f3565b6040516104b39190613b46565b60405180910390f35b6104d660048036038101906104d19190613ee7565b6121fa565b005b6104e06126ea565b6040516104ed9190613ab9565b60405180910390f35b6104fe6126f0565b60405161050b9190613bb0565b60405180910390f35b61052e60048036038101906105299190613b61565b612716565b005b61054a60048036038101906105459190613bcb565b61273f565b005b61056660048036038101906105619190613a7d565b612b66565b005b610582600480360381019061057d9190613f74565b612ba3565b60405161059193929190613d4a565b60405180910390f35b6105b460048036038101906105af9190613a7d565b612e63565b6040516105c19190613bb0565b60405180910390f35b60007f7965db0b000000000000000000000000000000000000000000000000000000007bffffffffffffffffffffffffffffffffffffffffffffffffffffffff1916827bffffffffffffffffffffffffffffffffffffffffffffffffffffffff1916148061063d575061063c82612e96565b5b9050919050565b7fa49807205ce4d355092ef5a8a18f56e8913cf4a201fbe287825b095693c2177561067681610671612f00565b612f08565b826003600085815260200190815260200160002060009054906101000a900473ffffffffffffffffffffffffffffffffffffffff1673ffffffffffffffffffffffffffffffffffffffff1663a15612d16040518163ffffffff1660e01b8152600401602060405180830381865afa1580156106f5573d6000803e3d6000fd5b505050506040513d601f19601f820116820180604052508101906107199190614016565b1480156108565750600560009054906101000a900473ffffffffffffffffffffffffffffffffffffffff1673ffffffffffffffffffffffffffffffffffffffff1663cca494736040518163ffffffff1660e01b8152600401602060405180830381865afa15801561078e573d6000803e3d6000fd5b505050506040513d601f19601f820116820180604052508101906107b29190614058565b6003600085815260200190815260200160002060009054906101000a900473ffffffffffffffffffffffffffffffffffffffff1673ffffffffffffffffffffffffffffffffffffffff1663cca494736040518163ffffffff1660e01b8152600401602060405180830381865afa158015610830573d6000803e3d6000fd5b505050506040513d601f19601f820116820180604052508101906108549190614058565b145b610895576040517f08c379a000000000000000000000000000000000000000000000000000000000815260040161088c906140e2565b60405180910390fd5b816003600085815260200190815260200160002060006101000a81548173ffffffffffffffffffffffffffffffffffffffff021916908373ffffffffffffffffffffffffffffffffffffffff160217905550505050565b7fa49807205ce4d355092ef5a8a18f56e8913cf4a201fbe287825b095693c2177561091e81610919612f00565b612f08565b816007819055505050565b60065481565b7fa49807205ce4d355092ef5a8a18f56e8913cf4a201fbe287825b095693c217756109618161095c612f00565b612f08565b60006003600084815260200190815260200160002060006101000a81548173ffffffffffffffffffffffffffffffffffffffff021916908373ffffffffffffffffffffffffffffffffffffffff1602179055505050565b6000806000838152602001908152602001600020600101549050919050565b600860009054906101000a900460ff1681565b6109f3826109b8565b610a04816109ff612f00565b612f08565b610a0e8383612fa5565b505050565b610a1b612f00565b73ffffffffffffffffffffffffffffffffffffffff168173ffffffffffffffffffffffffffffffffffffffff1614610a88576040517f08c379a0000000000000000000000000000000000000000000000000000000008152600401610a7f90614174565b60405180910390fd5b610a928282613085565b5050565b6000600560009054906101000a900473ffffffffffffffffffffffffffffffffffffffff1673ffffffffffffffffffffffffffffffffffffffff166385ae10e6836040518263ffffffff1660e01b8152600401610af39190613ab9565b6040805180830381865afa158015610b0f573d6000803e3d6000fd5b505050506040513d601f19601f82011682018060405250810190610b339190614194565b905080915050919050565b600160009054906101000a900473ffffffffffffffffffffffffffffffffffffffff1681565b600860009054906101000a900460ff16610bb3576040517f08c379a0000000000000000000000000000000000000000000000000000000008152600401610baa90614220565b60405180910390fd5b600080610bc285856000611ecc565b5050925050915080831015610c0c576040517f08c379a0000000000000000000000000000000000000000000000000000000008152600401610c039061428c565b60405180910390fd5b600560009054906101000a900473ffffffffffffffffffffffffffffffffffffffff1673ffffffffffffffffffffffffffffffffffffffff1663cb4c86b76040518163ffffffff1660e01b8152600401602060405180830381865afa158015610c79573d6000803e3d6000fd5b505050506040513d601f19601f82011682018060405250810190610c9d91906142c1565b73ffffffffffffffffffffffffffffffffffffffff166323b872dd3330846040518463ffffffff1660e01b8152600401610cd9939291906142ee565b6020604051808303816000875af1158015610cf8573d6000803e3d6000fd5b505050506040513d601f19601f82011682018060405250810190610d1c919061433a565b610d5b576040517f08c379a0000000000000000000000000000000000000000000000000000000008152600401610d52906143b3565b60405180910390fd5b6003600086815260200190815260200160002060009054906101000a900473ffffffffffffffffffffffffffffffffffffffff1673ffffffffffffffffffffffffffffffffffffffff166340c10f1933846040518363ffffffff1660e01b8152600401610dc99291906143d3565b600060405180830381600087803b158015610de357600080fd5b505af1158015610df7573d6000803e3d6000fd5b505050507f41d69e33fd598418aa9a6a5462a34bc55033968f3e4060ef4721e770058cbbb93342878585604051610e329594939291906143fc565b60405180910390a15050505050565b600860009054906101000a900460ff16610e90576040517f08c379a0000000000000000000000000000000000000000000000000000000008152600401610e8790614220565b60405180910390fd5b6000806000806000610ea489896001611ecc565b9450945094509450945060008284610ebc919061447e565b905080871015610f01576040517f08c379a0000000000000000000000000000000000000000000000000000000008152600401610ef89061428c565b60405180910390fd5b600560009054906101000a900473ffffffffffffffffffffffffffffffffffffffff1673ffffffffffffffffffffffffffffffffffffffff1663cb4c86b76040518163ffffffff1660e01b8152600401602060405180830381865afa158015610f6e573d6000803e3d6000fd5b505050506040513d601f19601f82011682018060405250810190610f9291906142c1565b73ffffffffffffffffffffffffffffffffffffffff166323b872dd33600260009054906101000a900473ffffffffffffffffffffffffffffffffffffffff16866040518463ffffffff1660e01b8152600401610ff0939291906142ee565b6020604051808303816000875af115801561100f573d6000803e3d6000fd5b505050506040513d601f19601f82011682018060405250810190611033919061433a565b611072576040517f08c379a000000000000000000000000000000000000000000000000000000000815260040161106990614520565b60405180910390fd5b600560009054906101000a900473ffffffffffffffffffffffffffffffffffffffff1673ffffffffffffffffffffffffffffffffffffffff1663cb4c86b76040518163ffffffff1660e01b8152600401602060405180830381865afa1580156110df573d6000803e3d6000fd5b505050506040513d601f19601f8201168201806040525081019061110391906142c1565b73ffffffffffffffffffffffffffffffffffffffff166323b872dd3330876040518463ffffffff1660e01b815260040161113f939291906142ee565b6020604051808303816000875af115801561115e573d6000803e3d6000fd5b505050506040513d601f19601f82011682018060405250810190611182919061433a565b6111c1576040517f08c379a00000000000000000000000000000000000000000000000000000000081526004016111b890614520565b60405180910390fd5b6000600560009054906101000a900473ffffffffffffffffffffffffffffffffffffffff1673ffffffffffffffffffffffffffffffffffffffff1663b5310ff98c858d8d60018b8b8b8f336040518b63ffffffff1660e01b81526004016112319a999897969594939291906145ff565b6020604051808303816000875af1158015611250573d6000803e3d6000fd5b505050506040513d601f19601f820116820180604052508101906112749190614016565b9050600360008c815260200190815260200160002060009054906101000a900473ffffffffffffffffffffffffffffffffffffffff1673ffffffffffffffffffffffffffffffffffffffff166340c10f1933896040518363ffffffff1660e01b81526004016112e49291906143d3565b600060405180830381600087803b1580156112fe57600080fd5b505af1158015611312573d6000803e3d6000fd5b50505050600560009054906101000a900473ffffffffffffffffffffffffffffffffffffffff1673ffffffffffffffffffffffffffffffffffffffff166324b4110e82336040518363ffffffff1660e01b815260040161137392919061469b565b600060405180830381600087803b15801561138d57600080fd5b505af11580156113a1573d6000803e3d6000fd5b505050503373ffffffffffffffffffffffffffffffffffffffff167f639bcb68083836b73ad6cd444bd790e8421c4b363635459fbfff715dc24fa855600560009054906101000a900473ffffffffffffffffffffffffffffffffffffffff1673ffffffffffffffffffffffffffffffffffffffff16631ce5e9a6846040518263ffffffff1660e01b81526004016114389190613ab9565b61020060405180830381865afa158015611456573d6000803e3d6000fd5b505050506040513d601f19601f8201168201806040525081019061147a919061491e565b89600160405161148c93929190614b1a565b60405180910390a25050505050505050505050565b600080600080600560009054906101000a900473ffffffffffffffffffffffffffffffffffffffff1673ffffffffffffffffffffffffffffffffffffffff1663b0667cf86040518163ffffffff1660e01b81526004016040805180830381865afa158015611513573d6000803e3d6000fd5b505050506040513d601f19601f820116820180604052508101906115379190614194565b50905061154889828a8a8a8a612ba3565b93509350935050955095509592505050565b6000600560009054906101000a900473ffffffffffffffffffffffffffffffffffffffff1673ffffffffffffffffffffffffffffffffffffffff1663cfc2dc20866040518263ffffffff1660e01b81526004016115b79190613ab9565b602060405180830381865afa1580156115d4573d6000803e3d6000fd5b505050506040513d601f19601f820116820180604052508101906115f89190614016565b90506000600560009054906101000a900473ffffffffffffffffffffffffffffffffffffffff1673ffffffffffffffffffffffffffffffffffffffff1663b0667cf86040518163ffffffff1660e01b81526004016040805180830381865afa158015611668573d6000803e3d6000fd5b505050506040513d601f19601f8201168201806040525081019061168c9190614194565b509050600460009054906101000a900473ffffffffffffffffffffffffffffffffffffffff1673ffffffffffffffffffffffffffffffffffffffff166363447902600160006040518363ffffffff1660e01b81526004016116ee929190614b54565b602060405180830381865afa15801561170b573d6000803e3d6000fd5b505050506040513d601f19601f8201168201806040525081019061172f9190614016565b6117a6858373__OptionLibrary_________________________63fd9b87636040518163ffffffff1660e01b8152600401602060405180830381865af415801561177d573d6000803e3d6000fd5b505050506040513d601f19601f820116820180604052508101906117a19190614016565b613166565b11156117e7576040517f08c379a00000000000000000000000000000000000000000000000000000000081526004016117de90614bc9565b60405180910390fd5b60006117f68284888888613262565b9050600081846118069190614bf3565b13611846576040517f08c379a000000000000000000000000000000000000000000000000000000000815260040161183d90614cd3565b60405180910390fd5b80836118529190614bf3565b92505050949350505050565b600860009054906101000a900460ff166118ad576040517f08c379a00000000000000000000000000000000000000000000000000000000081526004016118a490614220565b60405180910390fd5b60008060008060006118c189896000611ecc565b945094509450945094508486101561190e576040517f08c379a00000000000000000000000000000000000000000000000000000000081526004016119059061428c565b60405180910390fd5b82600560009054906101000a900473ffffffffffffffffffffffffffffffffffffffff1673ffffffffffffffffffffffffffffffffffffffff1663cb4c86b76040518163ffffffff1660e01b8152600401602060405180830381865afa15801561197c573d6000803e3d6000fd5b505050506040513d601f19601f820116820180604052508101906119a091906142c1565b73ffffffffffffffffffffffffffffffffffffffff166370a08231306040518263ffffffff1660e01b81526004016119d89190613bb0565b602060405180830381865afa1580156119f5573d6000803e3d6000fd5b505050506040513d601f19601f82011682018060405250810190611a199190614016565b1015611a5a576040517f08c379a0000000000000000000000000000000000000000000000000000000008152600401611a5190614d3f565b60405180910390fd5b600360008a815260200190815260200160002060009054906101000a900473ffffffffffffffffffffffffffffffffffffffff1673ffffffffffffffffffffffffffffffffffffffff16639dc29fac33876040518363ffffffff1660e01b8152600401611ac89291906143d3565b600060405180830381600087803b158015611ae257600080fd5b505af1158015611af6573d6000803e3d6000fd5b505050506000600560009054906101000a900473ffffffffffffffffffffffffffffffffffffffff1673ffffffffffffffffffffffffffffffffffffffff1663b5310ff98b848c8c60008a8a8a8e336040518b63ffffffff1660e01b8152600401611b6a9a999897969594939291906145ff565b6020604051808303816000875af1158015611b89573d6000803e3d6000fd5b505050506040513d601f19601f82011682018060405250810190611bad9190614016565b9050600560009054906101000a900473ffffffffffffffffffffffffffffffffffffffff1673ffffffffffffffffffffffffffffffffffffffff1663cb4c86b76040518163ffffffff1660e01b8152600401602060405180830381865afa158015611c1c573d6000803e3d6000fd5b505050506040513d601f19601f82011682018060405250810190611c4091906142c1565b73ffffffffffffffffffffffffffffffffffffffff1663a9059cbb600260009054906101000a900473ffffffffffffffffffffffffffffffffffffffff16866040518363ffffffff1660e01b8152600401611c9c9291906143d3565b6020604051808303816000875af1158015611cbb573d6000803e3d6000fd5b505050506040513d601f19601f82011682018060405250810190611cdf919061433a565b611d1e576040517f08c379a0000000000000000000000000000000000000000000000000000000008152600401611d1590614520565b60405180910390fd5b600560009054906101000a900473ffffffffffffffffffffffffffffffffffffffff1673ffffffffffffffffffffffffffffffffffffffff166324b4110e82336040518363ffffffff1660e01b8152600401611d7b92919061469b565b600060405180830381600087803b158015611d9557600080fd5b505af1158015611da9573d6000803e3d6000fd5b505050503373ffffffffffffffffffffffffffffffffffffffff167f639bcb68083836b73ad6cd444bd790e8421c4b363635459fbfff715dc24fa855600560009054906101000a900473ffffffffffffffffffffffffffffffffffffffff1673ffffffffffffffffffffffffffffffffffffffff16631ce5e9a6846040518263ffffffff1660e01b8152600401611e409190613ab9565b61020060405180830381865afa158015611e5e573d6000803e3d6000fd5b505050506040513d601f19601f82011682018060405250810190611e82919061491e565b886001604051611e9493929190614b1a565b60405180910390a250505050505050505050565b7fa49807205ce4d355092ef5a8a18f56e8913cf4a201fbe287825b095693c2177581565b60008060008060008073ffffffffffffffffffffffffffffffffffffffff16600360008a815260200190815260200160002060009054906101000a900473ffffffffffffffffffffffffffffffffffffffff1673ffffffffffffffffffffffffffffffffffffffff161415611f76576040517f08c379a0000000000000000000000000000000000000000000000000000000008152600401611f6d90614dab565b60405180910390fd5b600560009054906101000a900473ffffffffffffffffffffffffffffffffffffffff1673ffffffffffffffffffffffffffffffffffffffff1663b0667cf86040518163ffffffff1660e01b81526004016040805180830381865afa158015611fe2573d6000803e3d6000fd5b505050506040513d601f19601f820116820180604052508101906120069190614194565b508091505061201a8882838a60008b612ba3565b80965081945082955050505073__MarketLibrary_________________________638170ce806120b78573__OptionLibrary_________________________63fd9b87636040518163ffffffff1660e01b8152600401602060405180830381865af415801561208d573d6000803e3d6000fd5b505050506040513d601f19601f820116820180604052508101906120b19190614016565b88613166565b600360008c815260200190815260200160002060009054906101000a900473ffffffffffffffffffffffffffffffffffffffff166040518363ffffffff1660e01b8152600401612108929190614de9565b602060405180830381865af4158015612125573d6000803e3d6000fd5b505050506040513d601f19601f820116820180604052508101906121499190614016565b9450939792965093509350565b6000801b61216b81612166612f00565b612f08565b81600860006101000a81548160ff0219169083151502179055505050565b600080600084815260200190815260200160002060000160008373ffffffffffffffffffffffffffffffffffffffff1673ffffffffffffffffffffffffffffffffffffffff16815260200190815260200160002060009054906101000a900460ff16905092915050565b6000801b81565b600860009054906101000a900460ff16612249576040517f08c379a000000000000000000000000000000000000000000000000000000000815260040161224090614220565b60405180910390fd5b6000600560009054906101000a900473ffffffffffffffffffffffffffffffffffffffff1673ffffffffffffffffffffffffffffffffffffffff1663b0667cf86040518163ffffffff1660e01b81526004016040805180830381865afa1580156122b7573d6000803e3d6000fd5b505050506040513d601f19601f820116820180604052508101906122db9190614194565b50905060008060006122f18a858b8b8b8b612ba3565b9250925092508185101561233a576040517f08c379a000000000000000000000000000000000000000000000000000000000815260040161233190614e5e565b60405180910390fd5b6000600560009054906101000a900473ffffffffffffffffffffffffffffffffffffffff1673ffffffffffffffffffffffffffffffffffffffff1663b5310ff98c8c8c8c8c8a8a8d8b336040518b63ffffffff1660e01b81526004016123a99a999897969594939291906145ff565b6020604051808303816000875af11580156123c8573d6000803e3d6000fd5b505050506040513d601f19601f820116820180604052508101906123ec9190614016565b9050600560009054906101000a900473ffffffffffffffffffffffffffffffffffffffff1673ffffffffffffffffffffffffffffffffffffffff1663cb4c86b76040518163ffffffff1660e01b8152600401602060405180830381865afa15801561245b573d6000803e3d6000fd5b505050506040513d601f19601f8201168201806040525081019061247f91906142c1565b73ffffffffffffffffffffffffffffffffffffffff166323b872dd33600260009054906101000a900473ffffffffffffffffffffffffffffffffffffffff16896040518463ffffffff1660e01b81526004016124dd939291906142ee565b6020604051808303816000875af11580156124fc573d6000803e3d6000fd5b505050506040513d601f19601f82011682018060405250810190612520919061433a565b61255f576040517f08c379a000000000000000000000000000000000000000000000000000000000815260040161255690614eca565b60405180910390fd5b600560009054906101000a900473ffffffffffffffffffffffffffffffffffffffff1673ffffffffffffffffffffffffffffffffffffffff166324b4110e82336040518363ffffffff1660e01b81526004016125bc92919061469b565b600060405180830381600087803b1580156125d657600080fd5b505af11580156125ea573d6000803e3d6000fd5b505050503373ffffffffffffffffffffffffffffffffffffffff167f639bcb68083836b73ad6cd444bd790e8421c4b363635459fbfff715dc24fa855600560009054906101000a900473ffffffffffffffffffffffffffffffffffffffff1673ffffffffffffffffffffffffffffffffffffffff16631ce5e9a6846040518263ffffffff1660e01b81526004016126819190613ab9565b61020060405180830381865afa15801561269f573d6000803e3d6000fd5b505050506040513d601f19601f820116820180604052508101906126c3919061491e565b8860006040516126d593929190614b1a565b60405180910390a25050505050505050505050565b60075481565b600260009054906101000a900473ffffffffffffffffffffffffffffffffffffffff1681565b61271f826109b8565b6127308161272b612f00565b612f08565b61273a8383613085565b505050565b600860009054906101000a900460ff1661278e576040517f08c379a000000000000000000000000000000000000000000000000000000000815260040161278590614220565b60405180910390fd5b60008061279d85856001611ecc565b50509250509150818310156127e7576040517f08c379a00000000000000000000000000000000000000000000000000000000081526004016127de9061428c565b60405180910390fd5b80600560009054906101000a900473ffffffffffffffffffffffffffffffffffffffff1673ffffffffffffffffffffffffffffffffffffffff1663cb4c86b76040518163ffffffff1660e01b8152600401602060405180830381865afa158015612855573d6000803e3d6000fd5b505050506040513d601f19601f8201168201806040525081019061287991906142c1565b73ffffffffffffffffffffffffffffffffffffffff166370a08231306040518263ffffffff1660e01b81526004016128b19190613bb0565b602060405180830381865afa1580156128ce573d6000803e3d6000fd5b505050506040513d601f19601f820116820180604052508101906128f29190614016565b1015612933576040517f08c379a000000000000000000000000000000000000000000000000000000000815260040161292a90614d3f565b60405180910390fd5b6003600086815260200190815260200160002060009054906101000a900473ffffffffffffffffffffffffffffffffffffffff1673ffffffffffffffffffffffffffffffffffffffff16639dc29fac33846040518363ffffffff1660e01b81526004016129a19291906143d3565b600060405180830381600087803b1580156129bb57600080fd5b505af11580156129cf573d6000803e3d6000fd5b50505050600560009054906101000a900473ffffffffffffffffffffffffffffffffffffffff1673ffffffffffffffffffffffffffffffffffffffff1663cb4c86b76040518163ffffffff1660e01b8152600401602060405180830381865afa158015612a40573d6000803e3d6000fd5b505050506040513d601f19601f82011682018060405250810190612a6491906142c1565b73ffffffffffffffffffffffffffffffffffffffff1663a9059cbb33836040518363ffffffff1660e01b8152600401612a9e9291906143d3565b6020604051808303816000875af1158015612abd573d6000803e3d6000fd5b505050506040513d601f19601f82011682018060405250810190612ae1919061433a565b612b20576040517f08c379a0000000000000000000000000000000000000000000000000000000008152600401612b1790614520565b60405180910390fd5b7f78dd81a4822884ab6551f5b2dd2a9718e78d150f1a178a3a5bdf9ed45d81c1c83342878585604051612b579594939291906143fc565b60405180910390a15050505050565b7fa49807205ce4d355092ef5a8a18f56e8913cf4a201fbe287825b095693c21775612b9881612b93612f00565b612f08565b816006819055505050565b6000806000612bb48988888761155a565b905073__OptionLibrary_________________________6390829f91898989858a8a6040518763ffffffff1660e01b8152600401612bf796959493929190614f08565b6040805180830381865af4158015612c13573d6000803e3d6000fd5b505050506040513d601f19601f82011682018060405250810190612c379190614194565b809350819450505073__MarketLibrary_________________________638170ce8084600560009054906101000a900473ffffffffffffffffffffffffffffffffffffffff1673ffffffffffffffffffffffffffffffffffffffff1663cb4c86b76040518163ffffffff1660e01b8152600401602060405180830381865afa158015612cc7573d6000803e3d6000fd5b505050506040513d601f19601f82011682018060405250810190612ceb91906142c1565b6040518363ffffffff1660e01b8152600401612d08929190614de9565b602060405180830381865af4158015612d25573d6000803e3d6000fd5b505050506040513d601f19601f82011682018060405250810190612d499190614016565b925073__MarketLibrary_________________________638170ce8083600560009054906101000a900473ffffffffffffffffffffffffffffffffffffffff1673ffffffffffffffffffffffffffffffffffffffff1663cb4c86b76040518163ffffffff1660e01b8152600401602060405180830381865afa158015612dd3573d6000803e3d6000fd5b505050506040513d601f19601f82011682018060405250810190612df791906142c1565b6040518363ffffffff1660e01b8152600401612e14929190614de9565b602060405180830381865af4158015612e31573d6000803e3d6000fd5b505050506040513d601f19601f82011682018060405250810190612e559190614016565b915096509650969350505050565b60036020528060005260406000206000915054906101000a900473ffffffffffffffffffffffffffffffffffffffff1681565b60007f01ffc9a7000000000000000000000000000000000000000000000000000000007bffffffffffffffffffffffffffffffffffffffffffffffffffffffff1916827bffffffffffffffffffffffffffffffffffffffffffffffffffffffff1916149050919050565b600033905090565b612f128282612189565b612fa157612f378173ffffffffffffffffffffffffffffffffffffffff1660146136a3565b612f458360001c60206136a3565b604051602001612f5692919061507b565b6040516020818303038152906040526040517f08c379a0000000000000000000000000000000000000000000000000000000008152600401612f9891906150ee565b60405180910390fd5b5050565b612faf8282612189565b61308157600160008084815260200190815260200160002060000160008373ffffffffffffffffffffffffffffffffffffffff1673ffffffffffffffffffffffffffffffffffffffff16815260200190815260200160002060006101000a81548160ff021916908315150217905550613026612f00565b73ffffffffffffffffffffffffffffffffffffffff168173ffffffffffffffffffffffffffffffffffffffff16837f2f8788117e7eff1d82e926ec794901d17c78024a50270940304540a733656f0d60405160405180910390a45b5050565b61308f8282612189565b1561316257600080600084815260200190815260200160002060000160008373ffffffffffffffffffffffffffffffffffffffff1673ffffffffffffffffffffffffffffffffffffffff16815260200190815260200160002060006101000a81548160ff021916908315150217905550613107612f00565b73ffffffffffffffffffffffffffffffffffffffff168173ffffffffffffffffffffffffffffffffffffffff16837ff6391f5c32d9c69d2a47ea670b442974b53935d1edc7fd64eb21e047a839171b60405160405180910390a45b5050565b6000806000801985870985870292508281108382030391505060008114156131a1576000841161319557600080fd5b8382049250505061325b565b8084116131ad57600080fd5b60008486880990508281118203915080830392506000856001877fffffffffffffffffffffffffffffffffffffffffffffffffffffffffffffffff0301169050808604955080840493506001818260000304019050808302841793506000600287600302189050808702600203810290508087026002038102905080870260020381029050808702600203810290508087026002038102905080870260020381029050808502955050505050505b9392505050565b60008061338973__OptionLibrary_________________________639932b2be898a8a6040518463ffffffff1660e01b81526004016132a393929190615110565b602060405180830381865af41580156132c0573d6000803e3d6000fd5b505050506040513d601f19601f820116820180604052508101906132e49190614016565b600460009054906101000a900473ffffffffffffffffffffffffffffffffffffffff1673ffffffffffffffffffffffffffffffffffffffff1663634479026000806040518363ffffffff1660e01b8152600401613342929190614b54565b602060405180830381865afa15801561335f573d6000803e3d6000fd5b505050506040513d601f19601f820116820180604052508101906133839190614016565b89613166565b90506000600560009054906101000a900473ffffffffffffffffffffffffffffffffffffffff1673ffffffffffffffffffffffffffffffffffffffff16636fe440316040518163ffffffff1660e01b8152600401602060405180830381865afa1580156133fa573d6000803e3d6000fd5b505050506040513d601f19601f8201168201806040525081019061341e9190615173565b9050600060018081111561343557613434614540565b5b85600181111561344857613447614540565b5b14613454576001613476565b7fffffffffffffffffffffffffffffffffffffffffffffffffffffffffffffffff5b61356873__OptionLibrary_________________________639932b2be8c8b8d6040518463ffffffff1660e01b81526004016134b493929190615110565b602060405180830381865af41580156134d1573d6000803e3d6000fd5b505050506040513d601f19601f820116820180604052508101906134f59190614016565b8873__OptionLibrary_________________________63fd9b87636040518163ffffffff1660e01b8152600401602060405180830381865af415801561353f573d6000803e3d6000fd5b505050506040513d601f19601f820116820180604052508101906135639190614016565b613166565b61357291906151a0565b8261357d9190614bf3565b9050600273__OptionLibrary_________________________63fcc14dfd85848c6006546040518563ffffffff1660e01b81526004016135c094939291906152c6565b602060405180830381865af41580156135dd573d6000803e3d6000fd5b505050506040513d601f19601f820116820180604052508101906136019190615173565b73__OptionLibrary_________________________63fcc14dfd86868d6006546040518563ffffffff1660e01b815260040161364094939291906152c6565b602060405180830381865af415801561365d573d6000803e3d6000fd5b505050506040513d601f19601f820116820180604052508101906136819190615173565b61368b9190614bf3565b613695919061533a565b935050505095945050505050565b6060600060028360026136b691906153a4565b6136c0919061447e565b67ffffffffffffffff8111156136d9576136d86146da565b5b6040519080825280601f01601f19166020018201604052801561370b5781602001600182028036833780820191505090505b5090507f300000000000000000000000000000000000000000000000000000000000000081600081518110613743576137426153fe565b5b60200101907effffffffffffffffffffffffffffffffffffffffffffffffffffffffffffff1916908160001a9053507f7800000000000000000000000000000000000000000000000000000000000000816001815181106137a7576137a66153fe565b5b60200101907effffffffffffffffffffffffffffffffffffffffffffffffffffffffffffff1916908160001a905350600060018460026137e791906153a4565b6137f1919061447e565b90505b6001811115613891577f3031323334353637383961626364656600000000000000000000000000000000600f861660108110613833576138326153fe565b5b1a60f81b82828151811061384a576138496153fe565b5b60200101907effffffffffffffffffffffffffffffffffffffffffffffffffffffffffffff1916908160001a905350600485901c94508061388a9061542d565b90506137f4565b50600084146138d5576040517f08c379a00000000000000000000000000000000000000000000000000000000081526004016138cc906154a3565b60405180910390fd5b8091505092915050565b6000604051905090565b600080fd5b60007fffffffff0000000000000000000000000000000000000000000000000000000082169050919050565b613923816138ee565b811461392e57600080fd5b50565b6000813590506139408161391a565b92915050565b60006020828403121561395c5761395b6138e9565b5b600061396a84828501613931565b91505092915050565b60008115159050919050565b61398881613973565b82525050565b60006020820190506139a3600083018461397f565b92915050565b6000819050919050565b6139bc816139a9565b81146139c757600080fd5b50565b6000813590506139d9816139b3565b92915050565b600073ffffffffffffffffffffffffffffffffffffffff82169050919050565b6000613a0a826139df565b9050919050565b613a1a816139ff565b8114613a2557600080fd5b50565b600081359050613a3781613a11565b92915050565b60008060408385031215613a5457613a536138e9565b5b6000613a62858286016139ca565b9250506020613a7385828601613a28565b9150509250929050565b600060208284031215613a9357613a926138e9565b5b6000613aa1848285016139ca565b91505092915050565b613ab3816139a9565b82525050565b6000602082019050613ace6000830184613aaa565b92915050565b6000819050919050565b613ae781613ad4565b8114613af257600080fd5b50565b600081359050613b0481613ade565b92915050565b600060208284031215613b2057613b1f6138e9565b5b6000613b2e84828501613af5565b91505092915050565b613b4081613ad4565b82525050565b6000602082019050613b5b6000830184613b37565b92915050565b60008060408385031215613b7857613b776138e9565b5b6000613b8685828601613af5565b9250506020613b9785828601613a28565b9150509250929050565b613baa816139ff565b82525050565b6000602082019050613bc56000830184613ba1565b92915050565b600080600060608486031215613be457613be36138e9565b5b6000613bf2868287016139ca565b9350506020613c03868287016139ca565b9250506040613c14868287016139ca565b9150509250925092565b60028110613c2b57600080fd5b50565b600081359050613c3d81613c1e565b92915050565b60008060008060808587031215613c5d57613c5c6138e9565b5b6000613c6b878288016139ca565b9450506020613c7c878288016139ca565b9350506040613c8d87828801613c2e565b9250506060613c9e878288016139ca565b91505092959194509250565b60028110613cb757600080fd5b50565b600081359050613cc981613caa565b92915050565b600080600080600060a08688031215613ceb57613cea6138e9565b5b6000613cf9888289016139ca565b9550506020613d0a888289016139ca565b9450506040613d1b888289016139ca565b9350506060613d2c88828901613c2e565b9250506080613d3d88828901613cba565b9150509295509295909350565b6000606082019050613d5f6000830186613aaa565b613d6c6020830185613aaa565b613d796040830184613aaa565b949350505050565b60008060008060808587031215613d9b57613d9a6138e9565b5b6000613da9878288016139ca565b9450506020613dba878288016139ca565b9350506040613dcb878288016139ca565b9250506060613ddc87828801613cba565b91505092959194509250565b600080600060608486031215613e0157613e006138e9565b5b6000613e0f868287016139ca565b9350506020613e20868287016139ca565b9250506040613e3186828701613cba565b9150509250925092565b600060a082019050613e506000830188613aaa565b613e5d6020830187613aaa565b613e6a6040830186613aaa565b613e776060830185613aaa565b613e846080830184613aaa565b9695505050505050565b613e9781613973565b8114613ea257600080fd5b50565b600081359050613eb481613e8e565b92915050565b600060208284031215613ed057613ecf6138e9565b5b6000613ede84828501613ea5565b91505092915050565b60008060008060008060c08789031215613f0457613f036138e9565b5b6000613f1289828a016139ca565b9650506020613f2389828a016139ca565b9550506040613f3489828a016139ca565b9450506060613f4589828a01613c2e565b9350506080613f5689828a01613cba565b92505060a0613f6789828a016139ca565b9150509295509295509295565b60008060008060008060c08789031215613f9157613f906138e9565b5b6000613f9f89828a016139ca565b9650506020613fb089828a016139ca565b9550506040613fc189828a016139ca565b9450506060613fd289828a016139ca565b9350506080613fe389828a01613c2e565b92505060a0613ff489828a01613cba565b9150509295509295509295565b600081519050614010816139b3565b92915050565b60006020828403121561402c5761402b6138e9565b5b600061403a84828501614001565b91505092915050565b60008151905061405281613ade565b92915050565b60006020828403121561406e5761406d6138e9565b5b600061407c84828501614043565b91505092915050565b600082825260208201905092915050565b7f6d69736d61746368656420746f6b656e20616464726573730000000000000000600082015250565b60006140cc601883614085565b91506140d782614096565b602082019050919050565b600060208201905081810360008301526140fb816140bf565b9050919050565b7f416363657373436f6e74726f6c3a2063616e206f6e6c792072656e6f756e636560008201527f20726f6c657320666f722073656c660000000000000000000000000000000000602082015250565b600061415e602f83614085565b915061416982614102565b604082019050919050565b6000602082019050818103600083015261418d81614151565b9050919050565b600080604083850312156141ab576141aa6138e9565b5b60006141b985828601614001565b92505060206141ca85828601614001565b9150509250929050565b7f54726164696e672073746f707065642100000000000000000000000000000000600082015250565b600061420a601083614085565b9150614215826141d4565b602082019050919050565b60006020820190508181036000830152614239816141fd565b9050919050565b7f436f737420696e636f7272656374000000000000000000000000000000000000600082015250565b6000614276600e83614085565b915061428182614240565b602082019050919050565b600060208201905081810360008301526142a581614269565b9050919050565b6000815190506142bb81613a11565b92915050565b6000602082840312156142d7576142d66138e9565b5b60006142e5848285016142ac565b91505092915050565b60006060820190506143036000830186613ba1565b6143106020830185613ba1565b61431d6040830184613aaa565b949350505050565b60008151905061433481613e8e565b92915050565b6000602082840312156143505761434f6138e9565b5b600061435e84828501614325565b91505092915050565b7f766f6c207061796d656e74206572726f72000000000000000000000000000000600082015250565b600061439d601183614085565b91506143a882614367565b602082019050919050565b600060208201905081810360008301526143cc81614390565b9050919050565b60006040820190506143e86000830185613ba1565b6143f56020830184613aaa565b9392505050565b600060a0820190506144116000830188613ba1565b61441e6020830187613aaa565b61442b6040830186613aaa565b6144386060830185613aaa565b6144456080830184613aaa565b9695505050505050565b7f4e487b7100000000000000000000000000000000000000000000000000000000600052601160045260246000fd5b6000614489826139a9565b9150614494836139a9565b9250827fffffffffffffffffffffffffffffffffffffffffffffffffffffffffffffffff038211156144c9576144c861444f565b5b828201905092915050565b7f7061796d656e74206572726f7200000000000000000000000000000000000000600082015250565b600061450a600d83614085565b9150614515826144d4565b602082019050919050565b60006020820190508181036000830152614539816144fd565b9050919050565b7f4e487b7100000000000000000000000000000000000000000000000000000000600052602160045260246000fd5b600281106145805761457f614540565b5b50565b60008190506145918261456f565b919050565b60006145a182614583565b9050919050565b6145b181614596565b82525050565b600281106145c8576145c7614540565b5b50565b60008190506145d9826145b7565b919050565b60006145e9826145cb565b9050919050565b6145f9816145de565b82525050565b600061014082019050614615600083018d613aaa565b614622602083018c613aaa565b61462f604083018b613aaa565b61463c606083018a6145a8565b61464960808301896145f0565b61465660a0830188613aaa565b61466360c0830187613aaa565b61467060e0830186613aaa565b61467e610100830185613aaa565b61468c610120830184613ba1565b9b9a5050505050505050505050565b60006040820190506146b06000830185613aaa565b6146bd6020830184613ba1565b9392505050565b600080fd5b6000601f19601f8301169050919050565b7f4e487b7100000000000000000000000000000000000000000000000000000000600052604160045260246000fd5b614712826146c9565b810181811067ffffffffffffffff82111715614731576147306146da565b5b80604052505050565b60006147446138df565b90506147508282614709565b919050565b60008151905061476481613c1e565b92915050565b60008151905061477981613caa565b92915050565b6004811061478c57600080fd5b50565b60008151905061479e8161477f565b92915050565b600061020082840312156147bb576147ba6146c4565b5b6147c661020061473a565b905060006147d684828501614755565b60008301525060206147ea8482850161476a565b60208301525060406147fe8482850161478f565b6040830152506060614812848285016142ac565b606083015250608061482684828501614001565b60808301525060a061483a84828501614001565b60a08301525060c061484e84828501614001565b60c08301525060e061486284828501614001565b60e08301525061010061487784828501614001565b6101008301525061012061488d84828501614001565b610120830152506101406148a384828501614001565b610140830152506101606148b984828501614001565b610160830152506101806148cf84828501614001565b610180830152506101a06148e584828501614001565b6101a0830152506101c06148fb84828501614001565b6101c0830152506101e061491184828501614001565b6101e08301525092915050565b60006102008284031215614935576149346138e9565b5b6000614943848285016147a4565b91505092915050565b61495581614596565b82525050565b614964816145de565b82525050565b6004811061497b5761497a614540565b5b50565b600081905061498c8261496a565b919050565b600061499c8261497e565b9050919050565b6149ac81614991565b82525050565b6149bb816139ff565b82525050565b6149ca816139a9565b82525050565b610200820160008201516149e7600085018261494c565b5060208201516149fa602085018261495b565b506040820151614a0d60408501826149a3565b506060820151614a2060608501826149b2565b506080820151614a3360808501826149c1565b5060a0820151614a4660a08501826149c1565b5060c0820151614a5960c08501826149c1565b5060e0820151614a6c60e08501826149c1565b50610100820151614a816101008501826149c1565b50610120820151614a966101208501826149c1565b50610140820151614aab6101408501826149c1565b50610160820151614ac06101608501826149c1565b50610180820151614ad56101808501826149c1565b506101a0820151614aea6101a08501826149c1565b506101c0820151614aff6101c08501826149c1565b506101e0820151614b146101e08501826149c1565b50505050565b600061024082019050614b3060008301866149d0565b614b3e610200830185613aaa565b614b4c61022083018461397f565b949350505050565b6000604082019050614b69600083018561397f565b614b76602083018461397f565b9392505050565b7f696e73756666696369656e74206361706974616c000000000000000000000000600082015250565b6000614bb3601483614085565b9150614bbe82614b7d565b602082019050919050565b60006020820190508181036000830152614be281614ba6565b9050919050565b6000819050919050565b6000614bfe82614be9565b9150614c0983614be9565b9250817f7fffffffffffffffffffffffffffffffffffffffffffffffffffffffffffffff03831360008312151615614c4457614c4361444f565b5b817f8000000000000000000000000000000000000000000000000000000000000000038312600083121615614c7c57614c7b61444f565b5b828201905092915050565b7f496e636f727265637420766f6c207072656d69756d0000000000000000000000600082015250565b6000614cbd601583614085565b9150614cc882614c87565b602082019050919050565b60006020820190508181036000830152614cec81614cb0565b9050919050565b7f696e73756666696369656e74207573646320696e2065786368616e67652e0000600082015250565b6000614d29601e83614085565b9150614d3482614cf3565b602082019050919050565b60006020820190508181036000830152614d5881614d1c565b9050919050565b7f54656e6f72206973206e6f742073657400000000000000000000000000000000600082015250565b6000614d95601083614085565b9150614da082614d5f565b602082019050919050565b60006020820190508181036000830152614dc481614d88565b9050919050565b614dd4816139a9565b82525050565b614de3816139ff565b82525050565b6000604082019050614dfe6000830185614dcb565b614e0b6020830184614dda565b9392505050565b7f496e636f727265637420636f737420706169642e000000000000000000000000600082015250565b6000614e48601483614085565b9150614e5382614e12565b602082019050919050565b60006020820190508181036000830152614e7781614e3b565b9050919050565b7f4661696c6564207061796d656e742e0000000000000000000000000000000000600082015250565b6000614eb4600f83614085565b9150614ebf82614e7e565b602082019050919050565b60006020820190508181036000830152614ee381614ea7565b9050919050565b614ef381614596565b82525050565b614f02816145de565b82525050565b600060c082019050614f1d6000830189614dcb565b614f2a6020830188614dcb565b614f376040830187614dcb565b614f446060830186614dcb565b614f516080830185614eea565b614f5e60a0830184614ef9565b979650505050505050565b600081905092915050565b7f416363657373436f6e74726f6c3a206163636f756e7420000000000000000000600082015250565b6000614faa601783614f69565b9150614fb582614f74565b601782019050919050565b600081519050919050565b60005b83811015614fe9578082015181840152602081019050614fce565b83811115614ff8576000848401525b50505050565b600061500982614fc0565b6150138185614f69565b9350615023818560208601614fcb565b80840191505092915050565b7f206973206d697373696e6720726f6c6520000000000000000000000000000000600082015250565b6000615065601183614f69565b91506150708261502f565b601182019050919050565b600061508682614f9d565b91506150928285614ffe565b915061509d82615058565b91506150a98284614ffe565b91508190509392505050565b60006150c082614fc0565b6150ca8185614085565b93506150da818560208601614fcb565b6150e3816146c9565b840191505092915050565b6000602082019050818103600083015261510881846150b5565b905092915050565b60006060820190506151256000830186614dcb565b6151326020830185614dcb565b61513f6040830184614dcb565b949350505050565b61515081614be9565b811461515b57600080fd5b50565b60008151905061516d81615147565b92915050565b600060208284031215615189576151886138e9565b5b60006151978482850161515e565b91505092915050565b60006151ab82614be9565b91506151b683614be9565b9250827f7fffffffffffffffffffffffffffffffffffffffffffffffffffffffffffffff04821160008413600084131616156151f5576151f461444f565b5b817f800000000000000000000000000000000000000000000000000000000000000005831260008412600084131616156152325761523161444f565b5b827f8000000000000000000000000000000000000000000000000000000000000000058212600084136000841216161561526f5761526e61444f565b5b827f7fffffffffffffffffffffffffffffffffffffffffffffffffffffffffffffff05821260008412600084121616156152ac576152ab61444f565b5b828202905092915050565b6152c081614be9565b82525050565b60006080820190506152db6000830187614dcb565b6152e860208301866152b7565b6152f56040830185614dcb565b6153026060830184614dcb565b95945050505050565b7f4e487b7100000000000000000000000000000000000000000000000000000000600052601260045260246000fd5b600061534582614be9565b915061535083614be9565b9250826153605761535f61530b565b5b600160000383147f8000000000000000000000000000000000000000000000000000000000000000831416156153995761539861444f565b5b828205905092915050565b60006153af826139a9565b91506153ba836139a9565b9250817fffffffffffffffffffffffffffffffffffffffffffffffffffffffffffffffff04831182151516156153f3576153f261444f565b5b828202905092915050565b7f4e487b7100000000000000000000000000000000000000000000000000000000600052603260045260246000fd5b6000615438826139a9565b9150600082141561544c5761544b61444f565b5b600182039050919050565b7f537472696e67733a20686578206c656e67746820696e73756666696369656e74600082015250565b600061548d602083614085565b915061549882615457565b602082019050919050565b600060208201905081810360008301526154bc81615480565b905091905056fea26469706673582212204ec128d31b1d6a0a0d6bfb9c0ce3d7dc21f54161e6a0bc073e8dcb72fb020dda64736f6c634300080a0033",
  "immutableReferences": {},
  "source": "// SPDX-License-Identifier: MIT\npragma solidity 0.8.10;\n\nimport \"@openzeppelin/contracts/token/ERC20/ERC20.sol\";\nimport \"@openzeppelin/contracts/access/AccessControl.sol\";\nimport \"@openzeppelin/contracts/utils/structs/EnumerableSet.sol\";\nimport \"./MoretInterfaces.sol\";\nimport \"./VolatilityToken.sol\";\nimport \"./MoretMarketMaker.sol\";\n\ncontract Exchange is AccessControl, EOption{\n  bytes32 public constant ADMIN_ROLE = keccak256(\"ADMIN_ROLE\");\n  address public vaultAddress;\n  address public marketMakerAddress;\n  mapping(uint256=>address) public volTokenAddressList;\n\n  MoretMarketMaker internal marketMaker;\n  OptionVault internal optionVault;\n\n  uint256 public volCapacityFactor = 5 * (10 ** 17);\n  uint256 public loanInterest = 0;\n  bool public allowTrading = true;\n\n  constructor( address _marketMakerAddress,address _vaultAddress){\n    _setupRole(DEFAULT_ADMIN_ROLE, msg.sender);\n    _setupRole(ADMIN_ROLE, msg.sender);\n    vaultAddress = _vaultAddress;\n    optionVault = OptionVault(_vaultAddress);\n    marketMakerAddress = _marketMakerAddress;\n    marketMaker = MoretMarketMaker(_marketMakerAddress);}\n\n  function calcCost(uint256 _tenor, uint256 _strike, uint256 _amount, OptionLibrary.PayoffType _poType, OptionLibrary.OptionSide _side) public view returns(uint256 , uint256 , uint256 ){\n    (uint256 _price,) = optionVault.queryPrice();\n    return calcOptionCost(_tenor, _price, _strike, _amount, _poType, _side);}\n\n  function calcOptionCost(uint256 _tenor, uint256 _price, uint256 _strike, uint256 _amount, OptionLibrary.PayoffType _poType, OptionLibrary.OptionSide _side) public view returns(uint256 _premium, uint256 _cost, uint256 _vol){\n    _vol = queryOptionVolatility(_tenor, _strike, _amount, _side);\n    // uint256 _adjustedStrike = OptionLibrary.adjustStrike(_strike, _poType, _side, marketMaker.swapSlippage(), loanInterest); \n    (_premium, _cost) = OptionLibrary.calcOptionCost(_price, _strike, _amount, _vol, _poType, _side);\n    _premium = MarketLibrary.cvtDecimals(_premium, optionVault.funding());\n    _cost = MarketLibrary.cvtDecimals(_cost, optionVault.funding());}\n\n  function queryOptionVolatility(uint256 _tenor, uint256 _strike, uint256 _amount, OptionLibrary.OptionSide _side) public view returns(uint256 _vol){  \n    _vol = optionVault.queryVol(_tenor); // running vol\n    (uint256 _price,) = optionVault.queryPrice();\n    require(MulDiv(_amount, _price, OptionLibrary.Multiplier())<=marketMaker.calcCapital(true,false),'insufficient capital');\n    int256 _riskPremium = calcRiskPremium(_price, _vol, _strike, _amount, _side);\n    require((int256(_vol)+_riskPremium) > 0,\"Incorrect vol premium\");\n    _vol = uint256(int256(_vol)+_riskPremium);}\n\n  function calcRiskPremium(uint256 _price, uint256 _vol, uint256 _strike, uint256 _amount, OptionLibrary.OptionSide _side) internal view returns(int256) {\n    uint256 _maxGamma = MulDiv(OptionLibrary.calcGamma(_price, _price, _vol), marketMaker.calcCapital(false, false), _price);\n    int256 _currentGamma = optionVault.calculateAggregateGamma(); // include sells.\n    int256 _newGamma = _currentGamma + int256(MulDiv(OptionLibrary.calcGamma(_price, _strike, _vol), _amount, OptionLibrary.Multiplier() )) * (_side==OptionLibrary.OptionSide.Sell? -1: int(1));\n    return (OptionLibrary.calcRiskPremiumAMM(_maxGamma, _currentGamma,  _vol, volCapacityFactor) + OptionLibrary.calcRiskPremiumAMM(_maxGamma, _newGamma, _vol, volCapacityFactor)) / 2;}\n\n  function purchaseOption(uint256 _tenor, uint256 _strike, uint256 _amount, OptionLibrary.PayoffType _poType, OptionLibrary.OptionSide _side, uint256 _payInCost) external {\n    require(allowTrading,\"Trading stopped!\");\n    (uint256 _price, ) = optionVault.queryPrice();\n    (uint256 _premium, uint256 _cost, uint256 _vol) = calcOptionCost(_tenor, _price, _strike, _amount, _poType, _side );      \n    require(_payInCost >= _cost, \"Incorrect cost paid.\");\n    uint256 _id = optionVault.addOption(_tenor, _strike, _amount, _poType, _side, _premium, _cost, _price, _vol, msg.sender);\n    require(ERC20(optionVault.funding()).transferFrom(msg.sender, marketMakerAddress, _payInCost), 'Failed payment.');  \n    optionVault.stampActiveOption(_id, msg.sender);\n    emit newOptionBought(msg.sender, optionVault.getOption(_id), _payInCost, false);}\n\n  function getOptionPayoffValue(uint256 _id) external view returns(uint256 _payback){\n    (,_payback) = optionVault.getContractPayoff(_id);}\n\n  function calcVolAmount(uint256 _tenor, uint256 _amount, OptionLibrary.OptionSide _side) public view returns(uint256 _volAmount, uint256 _vol, uint256 _premium, uint256 _cost, uint256 _price){\n    require(volTokenAddressList[_tenor]!=address(0), \"Tenor is not set\");\n    (_price, ) = optionVault.queryPrice();\n    (_premium, _cost, _vol) = calcOptionCost(_tenor, _price, _price, _amount, OptionLibrary.PayoffType.Call, _side); \n    _volAmount = MarketLibrary.cvtDecimals(MulDiv(_premium, OptionLibrary.Multiplier(), _vol), volTokenAddressList[_tenor]);}\n\n  function buyVol(uint256 _tenor, uint256 _amount, uint256 _payInCost) external {\n    require(allowTrading,\"Trading stopped!\");\n    (uint256 _volAmount, , uint256 _premium, , ) = calcVolAmount(_tenor, _amount, OptionLibrary.OptionSide.Buy);\n    require(_payInCost >= _premium, \"Cost incorrect\");\n    require(ERC20(optionVault.funding()).transferFrom(msg.sender, address(this), _premium), \"vol payment error\");\n    VolatilityToken(volTokenAddressList[_tenor]).mint(msg.sender, _volAmount);\n    emit volatilityTokenBought(msg.sender, block.timestamp, _tenor, _volAmount, _premium);}\n  \n  function sellVol(uint256 _tenor, uint256 _amount, uint256 _payInVol) external {\n    require(allowTrading,\"Trading stopped!\");\n    (uint256 _volAmount,  ,  uint256 _premium,  ,  ) = calcVolAmount(_tenor, _amount, OptionLibrary.OptionSide.Sell);\n    require(_payInVol >= _volAmount, \"Cost incorrect\");\n    require(ERC20(optionVault.funding()).balanceOf(address(this))>=_premium, \"insufficient usdc in exchange.\");\n\n    VolatilityToken(volTokenAddressList[_tenor]).burn(msg.sender, _volAmount);\n    require(ERC20(optionVault.funding()).transfer(msg.sender, _premium), \"payment error\");\n    emit volatilityTokenSold(msg.sender, block.timestamp, _tenor, _volAmount, _premium);}  \n\n  function buyOptionInVol(uint256 _tenor, uint256 _amount, OptionLibrary.PayoffType _poType, uint256 _payInVol) external {\n    require(allowTrading,\"Trading stopped!\");\n    (uint256 _volAmount, uint256 _vol, uint256 _premium, uint256 _cost, uint256 _price) = calcVolAmount(_tenor, _amount, OptionLibrary.OptionSide.Buy);\n    require(_payInVol >= _volAmount, \"Cost incorrect\");\n    require(ERC20(optionVault.funding()).balanceOf(address(this))>=_premium, \"insufficient usdc in exchange.\");\n\n    VolatilityToken(volTokenAddressList[_tenor]).burn(msg.sender, _volAmount);\n    uint256 _id = optionVault.addOption(_tenor, _price, _amount, _poType, OptionLibrary.OptionSide.Buy, _premium, _cost, _price, _vol, msg.sender);\n    require(ERC20(optionVault.funding()).transfer(marketMakerAddress, _premium), 'payment error');  \n    optionVault.stampActiveOption(_id, msg.sender);\n    emit newOptionBought(msg.sender, optionVault.getOption(_id), _volAmount, true);}\n\n  function sellOptionInVol(uint256 _tenor, uint256 _amount, OptionLibrary.PayoffType _poType, uint256 _payInCost) external {\n    require(allowTrading,\"Trading stopped!\");\n    (uint256 _volAmount, uint256 _vol, uint256 _premium, uint256 _cost, uint256 _price) = calcVolAmount(_tenor, _amount, OptionLibrary.OptionSide.Sell);\n    uint256 _totalCost = _premium + _cost;\n    require(_payInCost >= _totalCost, \"Cost incorrect\");\n\n    require(ERC20(optionVault.funding()).transferFrom(msg.sender, marketMakerAddress, _cost), 'payment error'); \n    require(ERC20(optionVault.funding()).transferFrom(msg.sender, address(this), _premium), 'payment error');  \n    uint256 _id = optionVault.addOption(_tenor, _price, _amount, _poType, OptionLibrary.OptionSide.Sell, _premium, _cost, _price, _vol, msg.sender);\n    VolatilityToken(volTokenAddressList[_tenor]).mint(msg.sender, _volAmount);\n    optionVault.stampActiveOption(_id, msg.sender);\n    emit newOptionBought(msg.sender, optionVault.getOption(_id), _volAmount, true);}\n\n  function addVolToken(uint256 _tenor, address _tokenAddress) external onlyRole(ADMIN_ROLE){ \n    require(VolatilityToken(volTokenAddressList[_tenor]).tenor()==_tenor && VolatilityToken(volTokenAddressList[_tenor]).tokenHash()==optionVault.tokenHash(), 'mismatched token address');\n    volTokenAddressList[_tenor] = _tokenAddress; }\n  function removeVolToken(uint256 _tenor) external onlyRole(ADMIN_ROLE){ volTokenAddressList[_tenor] = address(0);}\n  \n  function resetLoanRate(uint256 _loanInterest) external onlyRole(ADMIN_ROLE){ loanInterest = _loanInterest;}\n  function resetVolCapacityFactor(uint256 _newFactor) external onlyRole(ADMIN_ROLE){ volCapacityFactor =_newFactor;}\n  function resetTrading(bool _allowTrading) external onlyRole(DEFAULT_ADMIN_ROLE) {allowTrading=_allowTrading;}\n}\n",
  "sourcePath": "/Users/apple/Documents/GitHub/moret/contracts/Exchange.sol",
  "compiler": {
    "name": "solc",
    "version": "0.8.10+commit.fc410830.Emscripten.clang"
  },
  "schemaVersion": "3.4.3",
  "updatedAt": "2021-12-09T00:28:56.359Z",
  "networkType": "ethereum",
  "devdoc": {
    "kind": "dev",
    "methods": {
      "getRoleAdmin(bytes32)": {
        "details": "Returns the admin role that controls `role`. See {grantRole} and {revokeRole}. To change a role's admin, use {_setRoleAdmin}."
      },
      "grantRole(bytes32,address)": {
        "details": "Grants `role` to `account`. If `account` had not been already granted `role`, emits a {RoleGranted} event. Requirements: - the caller must have ``role``'s admin role."
      },
      "hasRole(bytes32,address)": {
        "details": "Returns `true` if `account` has been granted `role`."
      },
      "renounceRole(bytes32,address)": {
        "details": "Revokes `role` from the calling account. Roles are often managed via {grantRole} and {revokeRole}: this function's purpose is to provide a mechanism for accounts to lose their privileges if they are compromised (such as when a trusted device is misplaced). If the calling account had been revoked `role`, emits a {RoleRevoked} event. Requirements: - the caller must be `account`."
      },
      "revokeRole(bytes32,address)": {
        "details": "Revokes `role` from `account`. If `account` had been granted `role`, emits a {RoleRevoked} event. Requirements: - the caller must have ``role``'s admin role."
      },
      "supportsInterface(bytes4)": {
        "details": "See {IERC165-supportsInterface}."
      }
    },
    "version": 1
  },
  "userdoc": {
    "kind": "user",
    "methods": {},
    "version": 1
  }
}