{
  "contractName": "Exchange",
  "abi": [
    {
      "inputs": [
        {
          "internalType": "address payable",
          "name": "_marketMakerAddress",
          "type": "address"
        },
        {
          "internalType": "address",
          "name": "_optionAddress",
          "type": "address"
        },
        {
          "internalType": "address payable",
          "name": "_volTokenAddress",
          "type": "address"
        }
      ],
      "stateMutability": "nonpayable",
      "type": "constructor"
    },
    {
      "anonymous": false,
      "inputs": [
        {
          "indexed": true,
          "internalType": "bytes32",
          "name": "role",
          "type": "bytes32"
        },
        {
          "indexed": true,
          "internalType": "bytes32",
          "name": "previousAdminRole",
          "type": "bytes32"
        },
        {
          "indexed": true,
          "internalType": "bytes32",
          "name": "newAdminRole",
          "type": "bytes32"
        }
      ],
      "name": "RoleAdminChanged",
      "type": "event"
    },
    {
      "anonymous": false,
      "inputs": [
        {
          "indexed": true,
          "internalType": "bytes32",
          "name": "role",
          "type": "bytes32"
        },
        {
          "indexed": true,
          "internalType": "address",
          "name": "account",
          "type": "address"
        },
        {
          "indexed": true,
          "internalType": "address",
          "name": "sender",
          "type": "address"
        }
      ],
      "name": "RoleGranted",
      "type": "event"
    },
    {
      "anonymous": false,
      "inputs": [
        {
          "indexed": true,
          "internalType": "bytes32",
          "name": "role",
          "type": "bytes32"
        },
        {
          "indexed": true,
          "internalType": "address",
          "name": "account",
          "type": "address"
        },
        {
          "indexed": true,
          "internalType": "address",
          "name": "sender",
          "type": "address"
        }
      ],
      "name": "RoleRevoked",
      "type": "event"
    },
    {
      "anonymous": false,
      "inputs": [
        {
          "indexed": false,
          "internalType": "address",
          "name": "_recipient",
          "type": "address"
        },
        {
          "indexed": false,
          "internalType": "uint256",
          "name": "_mintMPTokenAmount",
          "type": "uint256"
        },
        {
          "indexed": false,
          "internalType": "uint256",
          "name": "_addedValue",
          "type": "uint256"
        }
      ],
      "name": "capitalAdded",
      "type": "event"
    },
    {
      "anonymous": false,
      "inputs": [
        {
          "indexed": false,
          "internalType": "address",
          "name": "_recipient",
          "type": "address"
        },
        {
          "indexed": false,
          "internalType": "uint256",
          "name": "_burnMPTokenAmount",
          "type": "uint256"
        },
        {
          "indexed": false,
          "internalType": "uint256",
          "name": "_withdrawValue",
          "type": "uint256"
        }
      ],
      "name": "capitalWithdrawn",
      "type": "event"
    },
    {
      "anonymous": false,
      "inputs": [
        {
          "indexed": true,
          "internalType": "address",
          "name": "_purchaser",
          "type": "address"
        },
        {
          "components": [
            {
              "internalType": "enum OptionLibrary.PayoffType",
              "name": "poType",
              "type": "uint8"
            },
            {
              "internalType": "address",
              "name": "holder",
              "type": "address"
            },
            {
              "internalType": "enum OptionLibrary.OptionStatus",
              "name": "status",
              "type": "uint8"
            },
            {
              "internalType": "uint256",
              "name": "id",
              "type": "uint256"
            },
            {
              "internalType": "uint256",
              "name": "createTime",
              "type": "uint256"
            },
            {
              "internalType": "uint256",
              "name": "effectiveTime",
              "type": "uint256"
            },
            {
              "internalType": "uint256",
              "name": "tenor",
              "type": "uint256"
            },
            {
              "internalType": "uint256",
              "name": "exerciseTime",
              "type": "uint256"
            },
            {
              "internalType": "uint256",
              "name": "amount",
              "type": "uint256"
            },
            {
              "internalType": "uint256",
              "name": "spot",
              "type": "uint256"
            },
            {
              "internalType": "uint256",
              "name": "strike",
              "type": "uint256"
            },
            {
              "internalType": "uint256",
              "name": "volatility",
              "type": "uint256"
            },
            {
              "internalType": "uint256",
              "name": "premium",
              "type": "uint256"
            },
            {
              "internalType": "uint256",
              "name": "fee",
              "type": "uint256"
            }
          ],
          "indexed": false,
          "internalType": "struct OptionLibrary.Option",
          "name": "_option",
          "type": "tuple"
        },
        {
          "indexed": false,
          "internalType": "uint256",
          "name": "_cost",
          "type": "uint256"
        },
        {
          "indexed": false,
          "internalType": "bool",
          "name": "_inVol",
          "type": "bool"
        }
      ],
      "name": "newOptionBought",
      "type": "event"
    },
    {
      "anonymous": false,
      "inputs": [
        {
          "indexed": false,
          "internalType": "address",
          "name": "_purchaser",
          "type": "address"
        },
        {
          "indexed": false,
          "internalType": "uint256",
          "name": "_time",
          "type": "uint256"
        },
        {
          "indexed": false,
          "internalType": "uint256",
          "name": "_tenor",
          "type": "uint256"
        },
        {
          "indexed": false,
          "internalType": "uint256",
          "name": "_amount",
          "type": "uint256"
        }
      ],
      "name": "newVolatilityTokenBought",
      "type": "event"
    },
    {
      "anonymous": false,
      "inputs": [
        {
          "indexed": true,
          "internalType": "address",
          "name": "_purchaser",
          "type": "address"
        },
        {
          "components": [
            {
              "internalType": "enum OptionLibrary.PayoffType",
              "name": "poType",
              "type": "uint8"
            },
            {
              "internalType": "address",
              "name": "holder",
              "type": "address"
            },
            {
              "internalType": "enum OptionLibrary.OptionStatus",
              "name": "status",
              "type": "uint8"
            },
            {
              "internalType": "uint256",
              "name": "id",
              "type": "uint256"
            },
            {
              "internalType": "uint256",
              "name": "createTime",
              "type": "uint256"
            },
            {
              "internalType": "uint256",
              "name": "effectiveTime",
              "type": "uint256"
            },
            {
              "internalType": "uint256",
              "name": "tenor",
              "type": "uint256"
            },
            {
              "internalType": "uint256",
              "name": "exerciseTime",
              "type": "uint256"
            },
            {
              "internalType": "uint256",
              "name": "amount",
              "type": "uint256"
            },
            {
              "internalType": "uint256",
              "name": "spot",
              "type": "uint256"
            },
            {
              "internalType": "uint256",
              "name": "strike",
              "type": "uint256"
            },
            {
              "internalType": "uint256",
              "name": "volatility",
              "type": "uint256"
            },
            {
              "internalType": "uint256",
              "name": "premium",
              "type": "uint256"
            },
            {
              "internalType": "uint256",
              "name": "fee",
              "type": "uint256"
            }
          ],
          "indexed": false,
          "internalType": "struct OptionLibrary.Option",
          "name": "_option",
          "type": "tuple"
        },
        {
          "indexed": false,
          "internalType": "uint256",
          "name": "_payoff",
          "type": "uint256"
        }
      ],
      "name": "optionExercised",
      "type": "event"
    },
    {
      "inputs": [],
      "name": "ADMIN_ROLE",
      "outputs": [
        {
          "internalType": "bytes32",
          "name": "",
          "type": "bytes32"
        }
      ],
      "stateMutability": "view",
      "type": "function"
    },
    {
      "inputs": [],
      "name": "DEFAULT_ADMIN_ROLE",
      "outputs": [
        {
          "internalType": "bytes32",
          "name": "",
          "type": "bytes32"
        }
      ],
      "stateMutability": "view",
      "type": "function"
    },
    {
      "inputs": [],
      "name": "contractAddress",
      "outputs": [
        {
          "internalType": "address payable",
          "name": "",
          "type": "address"
        }
      ],
      "stateMutability": "view",
      "type": "function"
    },
    {
      "inputs": [
        {
          "internalType": "bytes32",
          "name": "role",
          "type": "bytes32"
        }
      ],
      "name": "getRoleAdmin",
      "outputs": [
        {
          "internalType": "bytes32",
          "name": "",
          "type": "bytes32"
        }
      ],
      "stateMutability": "view",
      "type": "function"
    },
    {
      "inputs": [
        {
          "internalType": "bytes32",
          "name": "role",
          "type": "bytes32"
        },
        {
          "internalType": "address",
          "name": "account",
          "type": "address"
        }
      ],
      "name": "grantRole",
      "outputs": [],
      "stateMutability": "nonpayable",
      "type": "function"
    },
    {
      "inputs": [
        {
          "internalType": "bytes32",
          "name": "role",
          "type": "bytes32"
        },
        {
          "internalType": "address",
          "name": "account",
          "type": "address"
        }
      ],
      "name": "hasRole",
      "outputs": [
        {
          "internalType": "bool",
          "name": "",
          "type": "bool"
        }
      ],
      "stateMutability": "view",
      "type": "function"
    },
    {
      "inputs": [
        {
          "internalType": "bytes32",
          "name": "role",
          "type": "bytes32"
        },
        {
          "internalType": "address",
          "name": "account",
          "type": "address"
        }
      ],
      "name": "renounceRole",
      "outputs": [],
      "stateMutability": "nonpayable",
      "type": "function"
    },
    {
      "inputs": [
        {
          "internalType": "bytes32",
          "name": "role",
          "type": "bytes32"
        },
        {
          "internalType": "address",
          "name": "account",
          "type": "address"
        }
      ],
      "name": "revokeRole",
      "outputs": [],
      "stateMutability": "nonpayable",
      "type": "function"
    },
    {
      "inputs": [],
      "name": "settlementFee",
      "outputs": [
        {
          "internalType": "uint256",
          "name": "numerator",
          "type": "uint256"
        },
        {
          "internalType": "uint256",
          "name": "denominator",
          "type": "uint256"
        }
      ],
      "stateMutability": "view",
      "type": "function"
    },
    {
      "inputs": [
        {
          "internalType": "bytes4",
          "name": "interfaceId",
          "type": "bytes4"
        }
      ],
      "name": "supportsInterface",
      "outputs": [
        {
          "internalType": "bool",
          "name": "",
          "type": "bool"
        }
      ],
      "stateMutability": "view",
      "type": "function"
    },
    {
      "inputs": [
        {
          "internalType": "uint256",
          "name": "",
          "type": "uint256"
        }
      ],
      "name": "volTokensList",
      "outputs": [
        {
          "internalType": "contract VolatilityToken",
          "name": "",
          "type": "address"
        }
      ],
      "stateMutability": "view",
      "type": "function"
    },
    {
      "inputs": [],
      "name": "volTransactionFees",
      "outputs": [
        {
          "internalType": "uint256",
          "name": "numerator",
          "type": "uint256"
        },
        {
          "internalType": "uint256",
          "name": "denominator",
          "type": "uint256"
        }
      ],
      "stateMutability": "view",
      "type": "function"
    },
    {
      "stateMutability": "payable",
      "type": "receive"
    },
    {
      "inputs": [
        {
          "internalType": "uint256",
          "name": "_tenor",
          "type": "uint256"
        },
        {
          "internalType": "uint256",
          "name": "_strike",
          "type": "uint256"
        },
        {
          "internalType": "enum OptionLibrary.PayoffType",
          "name": "_poType",
          "type": "uint8"
        },
        {
          "internalType": "uint256",
          "name": "_amount",
          "type": "uint256"
        }
      ],
      "name": "queryOptionCost",
      "outputs": [
        {
          "internalType": "uint256",
          "name": "",
          "type": "uint256"
        }
      ],
      "stateMutability": "view",
      "type": "function"
    },
    {
      "inputs": [
        {
          "internalType": "uint256",
          "name": "_tenor",
          "type": "uint256"
        },
        {
          "internalType": "uint256",
          "name": "_strike",
          "type": "uint256"
        },
        {
          "internalType": "enum OptionLibrary.PayoffType",
          "name": "_poType",
          "type": "uint8"
        },
        {
          "internalType": "uint256",
          "name": "_amount",
          "type": "uint256"
        },
        {
          "internalType": "uint256",
          "name": "_payInCost",
          "type": "uint256"
        }
      ],
      "name": "purchaseOption",
      "outputs": [],
      "stateMutability": "nonpayable",
      "type": "function"
    },
    {
      "inputs": [
        {
          "internalType": "uint256",
          "name": "_tenor",
          "type": "uint256"
        },
        {
          "internalType": "uint256",
          "name": "_strike",
          "type": "uint256"
        },
        {
          "internalType": "enum OptionLibrary.PayoffType",
          "name": "_poType",
          "type": "uint8"
        },
        {
          "internalType": "uint256",
          "name": "_amount",
          "type": "uint256"
        },
        {
          "internalType": "uint256",
          "name": "_payInCost",
          "type": "uint256"
        }
      ],
      "name": "purchaseOptionInVol",
      "outputs": [],
      "stateMutability": "nonpayable",
      "type": "function"
    },
    {
      "inputs": [
        {
          "internalType": "uint256",
          "name": "_id",
          "type": "uint256"
        }
      ],
      "name": "exerciseOption",
      "outputs": [],
      "stateMutability": "nonpayable",
      "type": "function"
    },
    {
      "inputs": [
        {
          "internalType": "address payable",
          "name": "_tokenAddress",
          "type": "address"
        }
      ],
      "name": "addVolToken",
      "outputs": [],
      "stateMutability": "nonpayable",
      "type": "function"
    },
    {
      "inputs": [
        {
          "internalType": "uint256",
          "name": "_tenor",
          "type": "uint256"
        },
        {
          "internalType": "uint256",
          "name": "_volAmount",
          "type": "uint256"
        }
      ],
      "name": "quoteVolatilityCost",
      "outputs": [
        {
          "internalType": "uint256",
          "name": "",
          "type": "uint256"
        },
        {
          "internalType": "uint256",
          "name": "",
          "type": "uint256"
        }
      ],
      "stateMutability": "view",
      "type": "function"
    },
    {
      "inputs": [
        {
          "internalType": "uint256",
          "name": "_tenor",
          "type": "uint256"
        },
        {
          "internalType": "uint256",
          "name": "_volAmount",
          "type": "uint256"
        },
        {
          "internalType": "uint256",
          "name": "_payInCost",
          "type": "uint256"
        }
      ],
      "name": "purchaseVolatilityToken",
      "outputs": [],
      "stateMutability": "nonpayable",
      "type": "function"
    },
    {
      "inputs": [],
      "name": "sweepBalance",
      "outputs": [],
      "stateMutability": "nonpayable",
      "type": "function"
    },
    {
      "inputs": [
        {
          "internalType": "uint256",
          "name": "_fee",
          "type": "uint256"
        },
        {
          "internalType": "uint256",
          "name": "_denominator",
          "type": "uint256"
        }
      ],
      "name": "resetSettlementFees",
      "outputs": [],
      "stateMutability": "nonpayable",
      "type": "function"
    },
    {
      "inputs": [
        {
          "internalType": "uint256",
          "name": "_fee",
          "type": "uint256"
        },
        {
          "internalType": "uint256",
          "name": "_denominator",
          "type": "uint256"
        }
      ],
      "name": "resetVolTransactionFees",
      "outputs": [],
      "stateMutability": "nonpayable",
      "type": "function"
    },
    {
      "inputs": [],
      "name": "priceDecimals",
      "outputs": [
        {
          "internalType": "uint256",
          "name": "",
          "type": "uint256"
        }
      ],
      "stateMutability": "view",
      "type": "function"
    },
    {
      "inputs": [
        {
          "internalType": "uint256",
          "name": "_tenor",
          "type": "uint256"
        }
      ],
      "name": "queryVol",
      "outputs": [
        {
          "internalType": "uint256",
          "name": "",
          "type": "uint256"
        }
      ],
      "stateMutability": "view",
      "type": "function"
    }
  ],
  "bytecode": "0x608060405260405180604001604052806113888152602001620f424081525060016000820151816000015560208201518160010155505060405180604001604052806113888152602001620f42408152506003600082015181600001556020820151816001015550503480156200007557600080fd5b50604051620059543803806200595483398181016040528101906200009b91906200055b565b620000b06000801b336200036b60201b60201c565b620000e27fa49807205ce4d355092ef5a8a18f56e8913cf4a201fbe287825b095693c21775336200036b60201b60201c565b81600760006101000a81548173ffffffffffffffffffffffffffffffffffffffff021916908373ffffffffffffffffffffffffffffffffffffffff16021790555082600660006101000a81548173ffffffffffffffffffffffffffffffffffffffff021916908373ffffffffffffffffffffffffffffffffffffffff160217905550600081905080600960008373ffffffffffffffffffffffffffffffffffffffff1663a15612d16040518163ffffffff1660e01b815260040160206040518083038186803b158015620001b557600080fd5b505afa158015620001ca573d6000803e3d6000fd5b505050506040513d601f19601f82011682018060405250810190620001f09190620005b7565b815260200190815260200160002060006101000a81548173ffffffffffffffffffffffffffffffffffffffff021916908373ffffffffffffffffffffffffffffffffffffffff16021790555030600560006101000a81548173ffffffffffffffffffffffffffffffffffffffff021916908373ffffffffffffffffffffffffffffffffffffffff160217905550600660009054906101000a900473ffffffffffffffffffffffffffffffffffffffff1673ffffffffffffffffffffffffffffffffffffffff16632140ea676040518163ffffffff1660e01b815260040160206040518083038186803b158015620002e657600080fd5b505afa158015620002fb573d6000803e3d6000fd5b505050506040513d601f19601f8201168201806040525081019062000321919062000529565b600860006101000a81548173ffffffffffffffffffffffffffffffffffffffff021916908373ffffffffffffffffffffffffffffffffffffffff160217905550505050506200068e565b6200037d82826200038160201b60201c565b5050565b6200039382826200047260201b60201c565b6200046e57600160008084815260200190815260200160002060000160008373ffffffffffffffffffffffffffffffffffffffff1673ffffffffffffffffffffffffffffffffffffffff16815260200190815260200160002060006101000a81548160ff02191690831515021790555062000413620004dc60201b60201c565b73ffffffffffffffffffffffffffffffffffffffff168173ffffffffffffffffffffffffffffffffffffffff16837f2f8788117e7eff1d82e926ec794901d17c78024a50270940304540a733656f0d60405160405180910390a45b5050565b600080600084815260200190815260200160002060000160008373ffffffffffffffffffffffffffffffffffffffff1673ffffffffffffffffffffffffffffffffffffffff16815260200190815260200160002060009054906101000a900460ff16905092915050565b600033905090565b600081519050620004f58162000640565b92915050565b6000815190506200050c816200065a565b92915050565b600081519050620005238162000674565b92915050565b6000602082840312156200054257620005416200063b565b5b60006200055284828501620004e4565b91505092915050565b6000806000606084860312156200057757620005766200063b565b5b60006200058786828701620004fb565b93505060206200059a86828701620004e4565b9250506040620005ad86828701620004fb565b9150509250925092565b600060208284031215620005d057620005cf6200063b565b5b6000620005e08482850162000512565b91505092915050565b6000620005f68262000611565b9050919050565b60006200060a8262000611565b9050919050565b600073ffffffffffffffffffffffffffffffffffffffff82169050919050565b6000819050919050565b600080fd5b6200064b81620005e9565b81146200065757600080fd5b50565b6200066581620005fd565b81146200067157600080fd5b50565b6200067f8162000631565b81146200068b57600080fd5b50565b6152b6806200069e6000396000f3fe60806040526004361061014f5760003560e01c80639320d4ce116100b6578063b7ab81371161006f578063b7ab8137146104c2578063c3513f6d146104eb578063cfc2dc2014610502578063d547741f1461053f578063f52f252614610568578063f6b4dfb41461059157610156565b80639320d4ce146103a157806393ecc4cb146103ca578063a217fddf14610408578063a24015fe14610433578063a71c120214610470578063b3036ae01461049957610156565b80634b70084f116101085780634b70084f1461027b578063598ddc60146102b85780635a4a3a92146102e157806375b238fc1461030d5780637d1d7fb81461033857806391d148541461036457610156565b806301ffc9a71461015b57806305300b2814610198578063127b3a6a146101c3578063248a9ca3146101ec5780632f2ff15d1461022957806336568abe1461025257610156565b3661015657005b600080fd5b34801561016757600080fd5b50610182600480360381019061017d9190613ef0565b6105bc565b60405161018f91906147ca565b60405180910390f35b3480156101a457600080fd5b506101ad610636565b6040516101ba91906149c2565b60405180910390f35b3480156101cf57600080fd5b506101ea60048036038101906101e591906140b9565b6106dd565b005b3480156101f857600080fd5b50610213600480360381019061020e9190613e56565b6114f1565b60405161022091906147e5565b60405180910390f35b34801561023557600080fd5b50610250600480360381019061024b9190613eb0565b611510565b005b34801561025e57600080fd5b5061027960048036038101906102749190613eb0565b611539565b005b34801561028757600080fd5b506102a2600480360381019061029d9190614052565b6115bc565b6040516102af91906149c2565b60405180910390f35b3480156102c457600080fd5b506102df60048036038101906102da9190613fd2565b61173d565b005b3480156102ed57600080fd5b506102f66117a2565b604051610304929190614a58565b60405180910390f35b34801561031957600080fd5b506103226117b4565b60405161032f91906147e5565b60405180910390f35b34801561034457600080fd5b5061034d6117d8565b60405161035b929190614a58565b60405180910390f35b34801561037057600080fd5b5061038b60048036038101906103869190613eb0565b6117ea565b60405161039891906147ca565b60405180910390f35b3480156103ad57600080fd5b506103c860048036038101906103c39190613fd2565b611854565b005b3480156103d657600080fd5b506103f160048036038101906103ec9190613fd2565b6118b9565b6040516103ff929190614a58565b60405180910390f35b34801561041457600080fd5b5061041d611bb7565b60405161042a91906147e5565b60405180910390f35b34801561043f57600080fd5b5061045a60048036038101906104559190613f78565b611bbe565b6040516104679190614800565b60405180910390f35b34801561047c57600080fd5b5061049760048036038101906104929190614134565b611bf1565b005b3480156104a557600080fd5b506104c060048036038101906104bb91906140b9565b611de4565b005b3480156104ce57600080fd5b506104e960048036038101906104e49190613dcf565b61296f565b005b3480156104f757600080fd5b50610500612cd3565b005b34801561050e57600080fd5b5061052960048036038101906105249190613f78565b612ec2565b60405161053691906149c2565b60405180910390f35b34801561054b57600080fd5b5061056660048036038101906105619190613eb0565b612f76565b005b34801561057457600080fd5b5061058f600480360381019061058a9190613f78565b612f9f565b005b34801561059d57600080fd5b506105a66135ee565b6040516105b39190614620565b60405180910390f35b60007f7965db0b000000000000000000000000000000000000000000000000000000007bffffffffffffffffffffffffffffffffffffffffffffffffffffffff1916827bffffffffffffffffffffffffffffffffffffffffffffffffffffffff1916148061062f575061062e82613614565b5b9050919050565b6000600760009054906101000a900473ffffffffffffffffffffffffffffffffffffffff1673ffffffffffffffffffffffffffffffffffffffff166305300b286040518163ffffffff1660e01b815260040160206040518083038186803b1580156106a057600080fd5b505afa1580156106b4573d6000803e3d6000fd5b505050506040513d601f19601f820116820180604052508101906106d89190613fa5565b905090565b600760009054906101000a900473ffffffffffffffffffffffffffffffffffffffff1673ffffffffffffffffffffffffffffffffffffffff16634d38cad9866040518263ffffffff1660e01b815260040161073891906149c2565b60206040518083038186803b15801561075057600080fd5b505afa158015610764573d6000803e3d6000fd5b505050506040513d601f19601f820116820180604052508101906107889190613e29565b6107c7576040517f08c379a00000000000000000000000000000000000000000000000000000000081526004016107be9061491d565b60405180910390fd5b600060018111156107db576107da614f10565b5b8360018111156107ee576107ed614f10565b5b148061081d575060018081111561080857610807614f10565b5b83600181111561081b5761081a614f10565b5b145b61085c576040517f08c379a00000000000000000000000000000000000000000000000000000000081526004016108539061485d565b60405180910390fd5b600080600760009054906101000a900473ffffffffffffffffffffffffffffffffffffffff1673ffffffffffffffffffffffffffffffffffffffff1663fa66dcd4888888886001600660009054906101000a900473ffffffffffffffffffffffffffffffffffffffff1673ffffffffffffffffffffffffffffffffffffffff1663c679dc798c8e6040518363ffffffff1660e01b8152600401610900929190614a2f565b604080518083038186803b15801561091757600080fd5b505afa15801561092b573d6000803e3d6000fd5b505050506040513d601f19601f8201168201806040525081019061094f9190613f4b565b6040518763ffffffff1660e01b815260040161097096959493929190614a81565b604080518083038186803b15801561098757600080fd5b505afa15801561099b573d6000803e3d6000fd5b505050506040513d601f19601f820116820180604052508101906109bf9190614012565b915091506000600760009054906101000a900473ffffffffffffffffffffffffffffffffffffffff1673ffffffffffffffffffffffffffffffffffffffff1663867536778989898988886040518763ffffffff1660e01b8152600401610a2a96959493929190614ae3565b602060405180830381600087803b158015610a4457600080fd5b505af1158015610a58573d6000803e3d6000fd5b505050506040513d601f19601f82011682018060405250810190610a7c9190613fa5565b9050600760009054906101000a900473ffffffffffffffffffffffffffffffffffffffff1673ffffffffffffffffffffffffffffffffffffffff16636abae9b38260016040518363ffffffff1660e01b8152600401610adc929190614a06565b60206040518083038186803b158015610af457600080fd5b505afa158015610b08573d6000803e3d6000fd5b505050506040513d601f19601f82011682018060405250810190610b2c9190613fa5565b841015610b6e576040517f08c379a0000000000000000000000000000000000000000000000000000000008152600401610b65906148dd565b60405180910390fd5b6009600089815260200190815260200160002060009054906101000a900473ffffffffffffffffffffffffffffffffffffffff1673ffffffffffffffffffffffffffffffffffffffff166323b872dd33600560009054906101000a900473ffffffffffffffffffffffffffffffffffffffff16876040518463ffffffff1660e01b8152600401610c009392919061469b565b602060405180830381600087803b158015610c1a57600080fd5b505af1158015610c2e573d6000803e3d6000fd5b505050506040513d601f19601f82011682018060405250810190610c529190613e29565b610c91576040517f08c379a0000000000000000000000000000000000000000000000000000000008152600401610c889061489d565b60405180910390fd5b6009600089815260200190815260200160002060009054906101000a900473ffffffffffffffffffffffffffffffffffffffff1673ffffffffffffffffffffffffffffffffffffffff1663095ea7b3600960008b815260200190815260200160002060009054906101000a900473ffffffffffffffffffffffffffffffffffffffff1673ffffffffffffffffffffffffffffffffffffffff1663f6b4dfb46040518163ffffffff1660e01b815260040160206040518083038186803b158015610d5957600080fd5b505afa158015610d6d573d6000803e3d6000fd5b505050506040513d601f19601f82011682018060405250810190610d919190613dfc565b866040518363ffffffff1660e01b8152600401610daf92919061463b565b602060405180830381600087803b158015610dc957600080fd5b505af1158015610ddd573d6000803e3d6000fd5b505050506040513d601f19601f82011682018060405250810190610e019190613e29565b506009600089815260200190815260200160002060009054906101000a900473ffffffffffffffffffffffffffffffffffffffff1673ffffffffffffffffffffffffffffffffffffffff1663d2f714c5600560009054906101000a900473ffffffffffffffffffffffffffffffffffffffff1686600860009054906101000a900473ffffffffffffffffffffffffffffffffffffffff166040518463ffffffff1660e01b8152600401610eb693929190614664565b602060405180830381600087803b158015610ed057600080fd5b505af1158015610ee4573d6000803e3d6000fd5b505050506040513d601f19601f82011682018060405250810190610f089190613fa5565b50600860009054906101000a900473ffffffffffffffffffffffffffffffffffffffff1673ffffffffffffffffffffffffffffffffffffffff1663a9059cbb600660009054906101000a900473ffffffffffffffffffffffffffffffffffffffff16600760009054906101000a900473ffffffffffffffffffffffffffffffffffffffff1673ffffffffffffffffffffffffffffffffffffffff166346047a66856040518263ffffffff1660e01b8152600401610fc591906149c2565b60206040518083038186803b158015610fdd57600080fd5b505afa158015610ff1573d6000803e3d6000fd5b505050506040513d601f19601f820116820180604052508101906110159190613fa5565b6040518363ffffffff1660e01b8152600401611032929190614709565b602060405180830381600087803b15801561104c57600080fd5b505af1158015611060573d6000803e3d6000fd5b505050506040513d601f19601f820116820180604052508101906110849190613e29565b6110c3576040517f08c379a00000000000000000000000000000000000000000000000000000000081526004016110ba906148bd565b60405180910390fd5b600760009054906101000a900473ffffffffffffffffffffffffffffffffffffffff1673ffffffffffffffffffffffffffffffffffffffff166328e493c1826040518263ffffffff1660e01b815260040161111e91906149c2565b600060405180830381600087803b15801561113857600080fd5b505af115801561114c573d6000803e3d6000fd5b50505050600660009054906101000a900473ffffffffffffffffffffffffffffffffffffffff1673ffffffffffffffffffffffffffffffffffffffff1663cbe42a183383600760009054906101000a900473ffffffffffffffffffffffffffffffffffffffff1673ffffffffffffffffffffffffffffffffffffffff166346047a66866040518263ffffffff1660e01b81526004016111eb91906149c2565b60206040518083038186803b15801561120357600080fd5b505afa158015611217573d6000803e3d6000fd5b505050506040513d601f19601f8201168201806040525081019061123b9190613fa5565b600760009054906101000a900473ffffffffffffffffffffffffffffffffffffffff1673ffffffffffffffffffffffffffffffffffffffff1663128734c58760006040518363ffffffff1660e01b8152600401611299929190614a2f565b60206040518083038186803b1580156112b157600080fd5b505afa1580156112c5573d6000803e3d6000fd5b505050506040513d601f19601f820116820180604052508101906112e99190613fa5565b600760009054906101000a900473ffffffffffffffffffffffffffffffffffffffff1673ffffffffffffffffffffffffffffffffffffffff1663128734c58860016040518363ffffffff1660e01b8152600401611347929190614a2f565b60206040518083038186803b15801561135f57600080fd5b505afa158015611373573d6000803e3d6000fd5b505050506040513d601f19601f820116820180604052508101906113979190613fa5565b6040518663ffffffff1660e01b81526004016113b7959493929190614777565b600060405180830381600087803b1580156113d157600080fd5b505af11580156113e5573d6000803e3d6000fd5b505050503373ffffffffffffffffffffffffffffffffffffffff167f1a4b46dd56fe8b495111c1decc0e13d07ed5c5e1812593e06d770c053d7dc9d8600760009054906101000a900473ffffffffffffffffffffffffffffffffffffffff1673ffffffffffffffffffffffffffffffffffffffff16631ce5e9a6846040518263ffffffff1660e01b815260040161147c91906149c2565b6101c06040518083038186803b15801561149557600080fd5b505afa1580156114a9573d6000803e3d6000fd5b505050506040513d601f19601f820116820180604052508101906114cd9190613f1d565b8660016040516114df93929190614988565b60405180910390a25050505050505050565b6000806000838152602001908152602001600020600101549050919050565b611519826114f1565b61152a8161152561367e565b613686565b6115348383613723565b505050565b61154161367e565b73ffffffffffffffffffffffffffffffffffffffff168173ffffffffffffffffffffffffffffffffffffffff16146115ae576040517f08c379a00000000000000000000000000000000000000000000000000000000081526004016115a59061493d565b60405180910390fd5b6115b88282613803565b5050565b6000806000600760009054906101000a900473ffffffffffffffffffffffffffffffffffffffff1673ffffffffffffffffffffffffffffffffffffffff1663fa66dcd4888888886001600660009054906101000a900473ffffffffffffffffffffffffffffffffffffffff1673ffffffffffffffffffffffffffffffffffffffff1663c679dc798c8e6040518363ffffffff1660e01b8152600401611662929190614a2f565b604080518083038186803b15801561167957600080fd5b505afa15801561168d573d6000803e3d6000fd5b505050506040513d601f19601f820116820180604052508101906116b19190613f4b565b6040518763ffffffff1660e01b81526004016116d296959493929190614a81565b604080518083038186803b1580156116e957600080fd5b505afa1580156116fd573d6000803e3d6000fd5b505050506040513d601f19601f820116820180604052508101906117219190614012565b9150915080826117319190614bc7565b92505050949350505050565b7fa49807205ce4d355092ef5a8a18f56e8913cf4a201fbe287825b095693c2177561176f8161176a61367e565b613686565b60405180604001604052808481526020018381525060036000820151816000015560208201518160010155905050505050565b60038060000154908060010154905082565b7fa49807205ce4d355092ef5a8a18f56e8913cf4a201fbe287825b095693c2177581565b60018060000154908060010154905082565b600080600084815260200190815260200160002060000160008373ffffffffffffffffffffffffffffffffffffffff1673ffffffffffffffffffffffffffffffffffffffff16815260200190815260200160002060009054906101000a900460ff16905092915050565b7fa49807205ce4d355092ef5a8a18f56e8913cf4a201fbe287825b095693c217756118868161188161367e565b613686565b60405180604001604052808481526020018381525060016000820151816000015560208201518160010155905050505050565b600080600760009054906101000a900473ffffffffffffffffffffffffffffffffffffffff1673ffffffffffffffffffffffffffffffffffffffff16634d38cad9856040518263ffffffff1660e01b815260040161191791906149c2565b60206040518083038186803b15801561192f57600080fd5b505afa158015611943573d6000803e3d6000fd5b505050506040513d601f19601f820116820180604052508101906119679190613e29565b61197057600080fd5b6000600760009054906101000a900473ffffffffffffffffffffffffffffffffffffffff1673ffffffffffffffffffffffffffffffffffffffff1663b0667cf86040518163ffffffff1660e01b8152600401604080518083038186803b1580156119d957600080fd5b505afa1580156119ed573d6000803e3d6000fd5b505050506040513d601f19601f82011682018060405250810190611a119190614012565b50905060006009600087815260200190815260200160002060009054906101000a900473ffffffffffffffffffffffffffffffffffffffff1673ffffffffffffffffffffffffffffffffffffffff166362c5c1198684600760009054906101000a900473ffffffffffffffffffffffffffffffffffffffff1673ffffffffffffffffffffffffffffffffffffffff1663cfc2dc208b6040518263ffffffff1660e01b8152600401611ac291906149c2565b60206040518083038186803b158015611ada57600080fd5b505afa158015611aee573d6000803e3d6000fd5b505050506040513d601f19601f82011682018060405250810190611b129190613fa5565b6040518463ffffffff1660e01b8152600401611b3093929190614b44565b60206040518083038186803b158015611b4857600080fd5b505afa158015611b5c573d6000803e3d6000fd5b505050506040513d601f19601f82011682018060405250810190611b809190613fa5565b9050600060036001015460036000015483611b9b9190614c4e565b611ba59190614c1d565b90508181945094505050509250929050565b6000801b81565b60096020528060005260406000206000915054906101000a900473ffffffffffffffffffffffffffffffffffffffff1681565b600080611bfe85856118b9565b915091508082611c0e9190614bc7565b831015611c1a57600080fd5b600860009054906101000a900473ffffffffffffffffffffffffffffffffffffffff1673ffffffffffffffffffffffffffffffffffffffff166323b872dd336009600089815260200190815260200160002060009054906101000a900473ffffffffffffffffffffffffffffffffffffffff16856040518463ffffffff1660e01b8152600401611cac939291906146d2565b602060405180830381600087803b158015611cc657600080fd5b505af1158015611cda573d6000803e3d6000fd5b505050506040513d601f19601f82011682018060405250810190611cfe9190613e29565b506009600086815260200190815260200160002060009054906101000a900473ffffffffffffffffffffffffffffffffffffffff1673ffffffffffffffffffffffffffffffffffffffff166340c10f198333876040518463ffffffff1660e01b8152600401611d6e929190614709565b6000604051808303818588803b158015611d8757600080fd5b505af1158015611d9b573d6000803e3d6000fd5b50505050507f701297180b43ed5c70ad79a3036dca759169e2b5f64d7c4d04f2322af0511c8d33428787604051611dd59493929190614732565b60405180910390a15050505050565b600760009054906101000a900473ffffffffffffffffffffffffffffffffffffffff1673ffffffffffffffffffffffffffffffffffffffff16634d38cad9866040518263ffffffff1660e01b8152600401611e3f91906149c2565b60206040518083038186803b158015611e5757600080fd5b505afa158015611e6b573d6000803e3d6000fd5b505050506040513d601f19601f82011682018060405250810190611e8f9190613e29565b611ece576040517f08c379a0000000000000000000000000000000000000000000000000000000008152600401611ec59061491d565b60405180910390fd5b60006001811115611ee257611ee1614f10565b5b836001811115611ef557611ef4614f10565b5b1480611f245750600180811115611f0f57611f0e614f10565b5b836001811115611f2257611f21614f10565b5b145b611f63576040517f08c379a0000000000000000000000000000000000000000000000000000000008152600401611f5a9061485d565b60405180910390fd5b600080600760009054906101000a900473ffffffffffffffffffffffffffffffffffffffff1673ffffffffffffffffffffffffffffffffffffffff1663fa66dcd4888888886001600660009054906101000a900473ffffffffffffffffffffffffffffffffffffffff1673ffffffffffffffffffffffffffffffffffffffff1663c679dc798c8e6040518363ffffffff1660e01b8152600401612007929190614a2f565b604080518083038186803b15801561201e57600080fd5b505afa158015612032573d6000803e3d6000fd5b505050506040513d601f19601f820116820180604052508101906120569190613f4b565b6040518763ffffffff1660e01b815260040161207796959493929190614a81565b604080518083038186803b15801561208e57600080fd5b505afa1580156120a2573d6000803e3d6000fd5b505050506040513d601f19601f820116820180604052508101906120c69190614012565b915091506000600760009054906101000a900473ffffffffffffffffffffffffffffffffffffffff1673ffffffffffffffffffffffffffffffffffffffff1663867536778989898988886040518763ffffffff1660e01b815260040161213196959493929190614ae3565b602060405180830381600087803b15801561214b57600080fd5b505af115801561215f573d6000803e3d6000fd5b505050506040513d601f19601f820116820180604052508101906121839190613fa5565b9050600760009054906101000a900473ffffffffffffffffffffffffffffffffffffffff1673ffffffffffffffffffffffffffffffffffffffff16636abae9b38260006040518363ffffffff1660e01b81526004016121e3929190614a06565b60206040518083038186803b1580156121fb57600080fd5b505afa15801561220f573d6000803e3d6000fd5b505050506040513d601f19601f820116820180604052508101906122339190613fa5565b841015612275576040517f08c379a000000000000000000000000000000000000000000000000000000000815260040161226c906148dd565b60405180910390fd5b600860009054906101000a900473ffffffffffffffffffffffffffffffffffffffff1673ffffffffffffffffffffffffffffffffffffffff166323b872dd33600560009054906101000a900473ffffffffffffffffffffffffffffffffffffffff16876040518463ffffffff1660e01b81526004016122f69392919061469b565b602060405180830381600087803b15801561231057600080fd5b505af1158015612324573d6000803e3d6000fd5b505050506040513d601f19601f820116820180604052508101906123489190613e29565b612387576040517f08c379a000000000000000000000000000000000000000000000000000000000815260040161237e9061489d565b60405180910390fd5b600860009054906101000a900473ffffffffffffffffffffffffffffffffffffffff1673ffffffffffffffffffffffffffffffffffffffff1663a9059cbb600660009054906101000a900473ffffffffffffffffffffffffffffffffffffffff16600760009054906101000a900473ffffffffffffffffffffffffffffffffffffffff1673ffffffffffffffffffffffffffffffffffffffff166346047a66856040518263ffffffff1660e01b815260040161244391906149c2565b60206040518083038186803b15801561245b57600080fd5b505afa15801561246f573d6000803e3d6000fd5b505050506040513d601f19601f820116820180604052508101906124939190613fa5565b6040518363ffffffff1660e01b81526004016124b0929190614709565b602060405180830381600087803b1580156124ca57600080fd5b505af11580156124de573d6000803e3d6000fd5b505050506040513d601f19601f820116820180604052508101906125029190613e29565b612541576040517f08c379a0000000000000000000000000000000000000000000000000000000008152600401612538906148bd565b60405180910390fd5b600760009054906101000a900473ffffffffffffffffffffffffffffffffffffffff1673ffffffffffffffffffffffffffffffffffffffff166328e493c1826040518263ffffffff1660e01b815260040161259c91906149c2565b600060405180830381600087803b1580156125b657600080fd5b505af11580156125ca573d6000803e3d6000fd5b50505050600660009054906101000a900473ffffffffffffffffffffffffffffffffffffffff1673ffffffffffffffffffffffffffffffffffffffff1663cbe42a183383600760009054906101000a900473ffffffffffffffffffffffffffffffffffffffff1673ffffffffffffffffffffffffffffffffffffffff166346047a66866040518263ffffffff1660e01b815260040161266991906149c2565b60206040518083038186803b15801561268157600080fd5b505afa158015612695573d6000803e3d6000fd5b505050506040513d601f19601f820116820180604052508101906126b99190613fa5565b600760009054906101000a900473ffffffffffffffffffffffffffffffffffffffff1673ffffffffffffffffffffffffffffffffffffffff1663128734c58760006040518363ffffffff1660e01b8152600401612717929190614a2f565b60206040518083038186803b15801561272f57600080fd5b505afa158015612743573d6000803e3d6000fd5b505050506040513d601f19601f820116820180604052508101906127679190613fa5565b600760009054906101000a900473ffffffffffffffffffffffffffffffffffffffff1673ffffffffffffffffffffffffffffffffffffffff1663128734c58860016040518363ffffffff1660e01b81526004016127c5929190614a2f565b60206040518083038186803b1580156127dd57600080fd5b505afa1580156127f1573d6000803e3d6000fd5b505050506040513d601f19601f820116820180604052508101906128159190613fa5565b6040518663ffffffff1660e01b8152600401612835959493929190614777565b600060405180830381600087803b15801561284f57600080fd5b505af1158015612863573d6000803e3d6000fd5b505050503373ffffffffffffffffffffffffffffffffffffffff167f1a4b46dd56fe8b495111c1decc0e13d07ed5c5e1812593e06d770c053d7dc9d8600760009054906101000a900473ffffffffffffffffffffffffffffffffffffffff1673ffffffffffffffffffffffffffffffffffffffff16631ce5e9a6846040518263ffffffff1660e01b81526004016128fa91906149c2565b6101c06040518083038186803b15801561291357600080fd5b505afa158015612927573d6000803e3d6000fd5b505050506040513d601f19601f8201168201806040525081019061294b9190613f1d565b86600060405161295d93929190614988565b60405180910390a25050505050505050565b7fa49807205ce4d355092ef5a8a18f56e8913cf4a201fbe287825b095693c217756129a18161299c61367e565b613686565b6000829050600760009054906101000a900473ffffffffffffffffffffffffffffffffffffffff1673ffffffffffffffffffffffffffffffffffffffff166385dcee936040518163ffffffff1660e01b815260040160206040518083038186803b158015612a0e57600080fd5b505afa158015612a22573d6000803e3d6000fd5b505050506040513d601f19601f82011682018060405250810190612a469190613e83565b8173ffffffffffffffffffffffffffffffffffffffff166385dcee936040518163ffffffff1660e01b815260040160206040518083038186803b158015612a8c57600080fd5b505afa158015612aa0573d6000803e3d6000fd5b505050506040513d601f19601f82011682018060405250810190612ac49190613e83565b14612ace57600080fd5b600760009054906101000a900473ffffffffffffffffffffffffffffffffffffffff1673ffffffffffffffffffffffffffffffffffffffff16634d38cad98273ffffffffffffffffffffffffffffffffffffffff1663a15612d16040518163ffffffff1660e01b815260040160206040518083038186803b158015612b5257600080fd5b505afa158015612b66573d6000803e3d6000fd5b505050506040513d601f19601f82011682018060405250810190612b8a9190613fa5565b6040518263ffffffff1660e01b8152600401612ba691906149c2565b60206040518083038186803b158015612bbe57600080fd5b505afa158015612bd2573d6000803e3d6000fd5b505050506040513d601f19601f82011682018060405250810190612bf69190613e29565b612bff57600080fd5b80600960008373ffffffffffffffffffffffffffffffffffffffff1663a15612d16040518163ffffffff1660e01b815260040160206040518083038186803b158015612c4a57600080fd5b505afa158015612c5e573d6000803e3d6000fd5b505050506040513d601f19601f82011682018060405250810190612c829190613fa5565b815260200190815260200160002060006101000a81548173ffffffffffffffffffffffffffffffffffffffff021916908373ffffffffffffffffffffffffffffffffffffffff160217905550505050565b7fa49807205ce4d355092ef5a8a18f56e8913cf4a201fbe287825b095693c21775612d0581612d0061367e565b613686565b600860009054906101000a900473ffffffffffffffffffffffffffffffffffffffff1673ffffffffffffffffffffffffffffffffffffffff1663a9059cbb33600860009054906101000a900473ffffffffffffffffffffffffffffffffffffffff1673ffffffffffffffffffffffffffffffffffffffff166370a08231600560009054906101000a900473ffffffffffffffffffffffffffffffffffffffff166040518263ffffffff1660e01b8152600401612dc19190614605565b60206040518083038186803b158015612dd957600080fd5b505afa158015612ded573d6000803e3d6000fd5b505050506040513d601f19601f82011682018060405250810190612e119190613fa5565b6040518363ffffffff1660e01b8152600401612e2e929190614709565b602060405180830381600087803b158015612e4857600080fd5b505af1158015612e5c573d6000803e3d6000fd5b505050506040513d601f19601f82011682018060405250810190612e809190613e29565b612ebf576040517f08c379a0000000000000000000000000000000000000000000000000000000008152600401612eb69061487d565b60405180910390fd5b50565b6000600760009054906101000a900473ffffffffffffffffffffffffffffffffffffffff1673ffffffffffffffffffffffffffffffffffffffff1663cfc2dc20836040518263ffffffff1660e01b8152600401612f1f91906149c2565b60206040518083038186803b158015612f3757600080fd5b505afa158015612f4b573d6000803e3d6000fd5b505050506040513d601f19601f82011682018060405250810190612f6f9190613fa5565b9050919050565b612f7f826114f1565b612f9081612f8b61367e565b613686565b612f9a8383613803565b505050565b600760009054906101000a900473ffffffffffffffffffffffffffffffffffffffff1673ffffffffffffffffffffffffffffffffffffffff1663a556feec82336040518363ffffffff1660e01b8152600401612ffc9291906149dd565b60006040518083038186803b15801561301457600080fd5b505afa158015613028573d6000803e3d6000fd5b505050506000600760009054906101000a900473ffffffffffffffffffffffffffffffffffffffff1673ffffffffffffffffffffffffffffffffffffffff166340d6eaab836040518263ffffffff1660e01b815260040161308991906149c2565b60206040518083038186803b1580156130a157600080fd5b505afa1580156130b5573d6000803e3d6000fd5b505050506040513d601f19601f820116820180604052508101906130d99190613fa5565b9050600760009054906101000a900473ffffffffffffffffffffffffffffffffffffffff1673ffffffffffffffffffffffffffffffffffffffff16636c1f7b93836040518263ffffffff1660e01b815260040161313691906149c2565b600060405180830381600087803b15801561315057600080fd5b505af1158015613164573d6000803e3d6000fd5b50505050600860009054906101000a900473ffffffffffffffffffffffffffffffffffffffff1673ffffffffffffffffffffffffffffffffffffffff1663a9059cbb33836040518363ffffffff1660e01b81526004016131c5929190614709565b602060405180830381600087803b1580156131df57600080fd5b505af11580156131f3573d6000803e3d6000fd5b505050506040513d601f19601f820116820180604052508101906132179190613e29565b613256576040517f08c379a000000000000000000000000000000000000000000000000000000000815260040161324d906148fd565b60405180910390fd5b600660009054906101000a900473ffffffffffffffffffffffffffffffffffffffff1673ffffffffffffffffffffffffffffffffffffffff1663d5093b0b3384600760009054906101000a900473ffffffffffffffffffffffffffffffffffffffff1673ffffffffffffffffffffffffffffffffffffffff166346047a66876040518263ffffffff1660e01b81526004016132f191906149c2565b60206040518083038186803b15801561330957600080fd5b505afa15801561331d573d6000803e3d6000fd5b505050506040513d601f19601f820116820180604052508101906133419190613fa5565b600760009054906101000a900473ffffffffffffffffffffffffffffffffffffffff1673ffffffffffffffffffffffffffffffffffffffff1663128734c58860006040518363ffffffff1660e01b815260040161339f929190614a2f565b60206040518083038186803b1580156133b757600080fd5b505afa1580156133cb573d6000803e3d6000fd5b505050506040513d601f19601f820116820180604052508101906133ef9190613fa5565b600760009054906101000a900473ffffffffffffffffffffffffffffffffffffffff1673ffffffffffffffffffffffffffffffffffffffff1663128734c58960016040518363ffffffff1660e01b815260040161344d929190614a2f565b60206040518083038186803b15801561346557600080fd5b505afa158015613479573d6000803e3d6000fd5b505050506040513d601f19601f8201168201806040525081019061349d9190613fa5565b6040518663ffffffff1660e01b81526004016134bd959493929190614777565b600060405180830381600087803b1580156134d757600080fd5b505af11580156134eb573d6000803e3d6000fd5b505050503373ffffffffffffffffffffffffffffffffffffffff167f8f2c12170d00ec65667818534e98f87ee79befe3c56b35e5d25bc5c504b52b54600760009054906101000a900473ffffffffffffffffffffffffffffffffffffffff1673ffffffffffffffffffffffffffffffffffffffff16631ce5e9a6856040518263ffffffff1660e01b815260040161358291906149c2565b6101c06040518083038186803b15801561359b57600080fd5b505afa1580156135af573d6000803e3d6000fd5b505050506040513d601f19601f820116820180604052508101906135d39190613f1d565b836040516135e292919061495d565b60405180910390a25050565b600560009054906101000a900473ffffffffffffffffffffffffffffffffffffffff1681565b60007f01ffc9a7000000000000000000000000000000000000000000000000000000007bffffffffffffffffffffffffffffffffffffffffffffffffffffffff1916827bffffffffffffffffffffffffffffffffffffffffffffffffffffffff1916149050919050565b600033905090565b61369082826117ea565b61371f576136b58173ffffffffffffffffffffffffffffffffffffffff1660146138e4565b6136c38360001c60206138e4565b6040516020016136d49291906145cb565b6040516020818303038152906040526040517f08c379a0000000000000000000000000000000000000000000000000000000008152600401613716919061481b565b60405180910390fd5b5050565b61372d82826117ea565b6137ff57600160008084815260200190815260200160002060000160008373ffffffffffffffffffffffffffffffffffffffff1673ffffffffffffffffffffffffffffffffffffffff16815260200190815260200160002060006101000a81548160ff0219169083151502179055506137a461367e565b73ffffffffffffffffffffffffffffffffffffffff168173ffffffffffffffffffffffffffffffffffffffff16837f2f8788117e7eff1d82e926ec794901d17c78024a50270940304540a733656f0d60405160405180910390a45b5050565b61380d82826117ea565b156138e057600080600084815260200190815260200160002060000160008373ffffffffffffffffffffffffffffffffffffffff1673ffffffffffffffffffffffffffffffffffffffff16815260200190815260200160002060006101000a81548160ff02191690831515021790555061388561367e565b73ffffffffffffffffffffffffffffffffffffffff168173ffffffffffffffffffffffffffffffffffffffff16837ff6391f5c32d9c69d2a47ea670b442974b53935d1edc7fd64eb21e047a839171b60405160405180910390a45b5050565b6060600060028360026138f79190614c4e565b6139019190614bc7565b67ffffffffffffffff81111561391a57613919614f6e565b5b6040519080825280601f01601f19166020018201604052801561394c5781602001600182028036833780820191505090505b5090507f30000000000000000000000000000000000000000000000000000000000000008160008151811061398457613983614f3f565b5b60200101907effffffffffffffffffffffffffffffffffffffffffffffffffffffffffffff1916908160001a9053507f7800000000000000000000000000000000000000000000000000000000000000816001815181106139e8576139e7614f3f565b5b60200101907effffffffffffffffffffffffffffffffffffffffffffffffffffffffffffff1916908160001a90535060006001846002613a289190614c4e565b613a329190614bc7565b90505b6001811115613ad2577f3031323334353637383961626364656600000000000000000000000000000000600f861660108110613a7457613a73614f3f565b5b1a60f81b828281518110613a8b57613a8a614f3f565b5b60200101907effffffffffffffffffffffffffffffffffffffffffffffffffffffffffffff1916908160001a905350600485901c945080613acb90614e3d565b9050613a35565b5060008414613b16576040517f08c379a0000000000000000000000000000000000000000000000000000000008152600401613b0d9061483d565b60405180910390fd5b8091505092915050565b600081359050613b2f816151d6565b92915050565b600081519050613b44816151d6565b92915050565b600081359050613b59816151ed565b92915050565b600081519050613b6e816151ed565b92915050565b600081519050613b8381615204565b92915050565b600081359050613b988161521b565b92915050565b600081519050613bad8161521b565b92915050565b600081359050613bc281615232565b92915050565b600081519050613bd781615249565b92915050565b600081359050613bec81615259565b92915050565b600081519050613c0181615259565b92915050565b60006101c08284031215613c1e57613c1d614f9d565b5b613c296101c0614b7b565b90506000613c3984828501613bf2565b6000830152506020613c4d84828501613b35565b6020830152506040613c6184828501613bc8565b6040830152506060613c7584828501613dba565b6060830152506080613c8984828501613dba565b60808301525060a0613c9d84828501613dba565b60a08301525060c0613cb184828501613dba565b60c08301525060e0613cc584828501613dba565b60e083015250610100613cda84828501613dba565b61010083015250610120613cf084828501613dba565b61012083015250610140613d0684828501613dba565b61014083015250610160613d1c84828501613dba565b61016083015250610180613d3284828501613dba565b610180830152506101a0613d4884828501613dba565b6101a08301525092915050565b600060408284031215613d6b57613d6a614f9d565b5b613d756040614b7b565b90506000613d8584828501613dba565b6000830152506020613d9984828501613dba565b60208301525092915050565b600081359050613db481615269565b92915050565b600081519050613dc981615269565b92915050565b600060208284031215613de557613de4614fa2565b5b6000613df384828501613b4a565b91505092915050565b600060208284031215613e1257613e11614fa2565b5b6000613e2084828501613b5f565b91505092915050565b600060208284031215613e3f57613e3e614fa2565b5b6000613e4d84828501613b74565b91505092915050565b600060208284031215613e6c57613e6b614fa2565b5b6000613e7a84828501613b89565b91505092915050565b600060208284031215613e9957613e98614fa2565b5b6000613ea784828501613b9e565b91505092915050565b60008060408385031215613ec757613ec6614fa2565b5b6000613ed585828601613b89565b9250506020613ee685828601613b20565b9150509250929050565b600060208284031215613f0657613f05614fa2565b5b6000613f1484828501613bb3565b91505092915050565b60006101c08284031215613f3457613f33614fa2565b5b6000613f4284828501613c07565b91505092915050565b600060408284031215613f6157613f60614fa2565b5b6000613f6f84828501613d55565b91505092915050565b600060208284031215613f8e57613f8d614fa2565b5b6000613f9c84828501613da5565b91505092915050565b600060208284031215613fbb57613fba614fa2565b5b6000613fc984828501613dba565b91505092915050565b60008060408385031215613fe957613fe8614fa2565b5b6000613ff785828601613da5565b925050602061400885828601613da5565b9150509250929050565b6000806040838503121561402957614028614fa2565b5b600061403785828601613dba565b925050602061404885828601613dba565b9150509250929050565b6000806000806080858703121561406c5761406b614fa2565b5b600061407a87828801613da5565b945050602061408b87828801613da5565b935050604061409c87828801613bdd565b92505060606140ad87828801613da5565b91505092959194509250565b600080600080600060a086880312156140d5576140d4614fa2565b5b60006140e388828901613da5565b95505060206140f488828901613da5565b945050604061410588828901613bdd565b935050606061411688828901613da5565b925050608061412788828901613da5565b9150509295509295909350565b60008060006060848603121561414d5761414c614fa2565b5b600061415b86828701613da5565b935050602061416c86828701613da5565b925050604061417d86828701613da5565b9150509250925092565b61419081614d68565b82525050565b61419f81614cc4565b82525050565b6141ae81614cb2565b82525050565b6141bd81614cb2565b82525050565b6141cc81614cd6565b82525050565b6141db81614ce2565b82525050565b6141ea81614d7a565b82525050565b6141f981614d9e565b82525050565b61420881614dc2565b82525050565b61421781614dd4565b82525050565b61422681614dd4565b82525050565b600061423782614ba0565b6142418185614bab565b9350614251818560208601614e0a565b61425a81614fa7565b840191505092915050565b600061427082614ba0565b61427a8185614bbc565b935061428a818560208601614e0a565b80840191505092915050565b60006142a3602083614bab565b91506142ae82614fc5565b602082019050919050565b60006142c6601883614bab565b91506142d182614fee565b602082019050919050565b60006142e9601283614bab565b91506142f482615017565b602082019050919050565b600061430c600f83614bab565b915061431782615040565b602082019050919050565b600061432f601783614bab565b915061433a82615069565b602082019050919050565b6000614352601a83614bab565b915061435d82615092565b602082019050919050565b6000614375601083614bab565b9150614380826150bb565b602082019050919050565b6000614398601983614bab565b91506143a3826150e4565b602082019050919050565b60006143bb601783614bbc565b91506143c68261510d565b601782019050919050565b60006143de601183614bbc565b91506143e982615136565b601182019050919050565b6000614401602f83614bab565b915061440c8261515f565b604082019050919050565b6101c08201600082015161442e600085018261420e565b50602082015161444160208501826141a5565b50604082015161445460408501826141ff565b50606082015161446760608501826145ad565b50608082015161447a60808501826145ad565b5060a082015161448d60a08501826145ad565b5060c08201516144a060c08501826145ad565b5060e08201516144b360e08501826145ad565b506101008201516144c86101008501826145ad565b506101208201516144dd6101208501826145ad565b506101408201516144f26101408501826145ad565b506101608201516145076101608501826145ad565b5061018082015161451c6101808501826145ad565b506101a08201516145316101a08501826145ad565b50505050565b60408201600082015161454d60008501826145ad565b50602082015161456060208501826145ad565b50505050565b60408201600080830154905061457b81614e67565b61458860008601826145ad565b506001830154905061459981614e67565b6145a660208601826145ad565b5050505050565b6145b681614d5e565b82525050565b6145c581614d5e565b82525050565b60006145d6826143ae565b91506145e28285614265565b91506145ed826143d1565b91506145f98284614265565b91508190509392505050565b600060208201905061461a6000830184614187565b92915050565b60006020820190506146356000830184614196565b92915050565b60006040820190506146506000830185614187565b61465d60208301846145bc565b9392505050565b60006060820190506146796000830186614196565b61468660208301856145bc565b61469360408301846141e1565b949350505050565b60006060820190506146b060008301866141b4565b6146bd6020830185614187565b6146ca60408301846145bc565b949350505050565b60006060820190506146e760008301866141b4565b6146f460208301856141b4565b61470160408301846145bc565b949350505050565b600060408201905061471e60008301856141b4565b61472b60208301846145bc565b9392505050565b600060808201905061474760008301876141b4565b61475460208301866145bc565b61476160408301856145bc565b61476e60608301846145bc565b95945050505050565b600060a08201905061478c60008301886141b4565b61479960208301876145bc565b6147a660408301866145bc565b6147b360608301856145bc565b6147c060808301846145bc565b9695505050505050565b60006020820190506147df60008301846141c3565b92915050565b60006020820190506147fa60008301846141d2565b92915050565b600060208201905061481560008301846141f0565b92915050565b60006020820190508181036000830152614835818461422c565b905092915050565b6000602082019050818103600083015261485681614296565b9050919050565b60006020820190508181036000830152614876816142b9565b9050919050565b60006020820190508181036000830152614896816142dc565b9050919050565b600060208201905081810360008301526148b6816142ff565b9050919050565b600060208201905081810360008301526148d681614322565b9050919050565b600060208201905081810360008301526148f681614345565b9050919050565b6000602082019050818103600083015261491681614368565b9050919050565b600060208201905081810360008301526149368161438b565b9050919050565b60006020820190508181036000830152614956816143f4565b9050919050565b60006101e0820190506149736000830185614417565b6149816101c08301846145bc565b9392505050565b60006102008201905061499e6000830186614417565b6149ac6101c08301856145bc565b6149ba6101e08301846141c3565b949350505050565b60006020820190506149d760008301846145bc565b92915050565b60006040820190506149f260008301856145bc565b6149ff60208301846141b4565b9392505050565b6000604082019050614a1b60008301856145bc565b614a2860208301846141c3565b9392505050565b6000604082019050614a4460008301856145bc565b614a51602083018461421d565b9392505050565b6000604082019050614a6d60008301856145bc565b614a7a60208301846145bc565b9392505050565b600061010082019050614a9760008301896145bc565b614aa460208301886145bc565b614ab1604083018761421d565b614abe60608301866145bc565b614acb6080830185614566565b614ad860c0830184614537565b979650505050505050565b600060c082019050614af860008301896145bc565b614b0560208301886145bc565b614b12604083018761421d565b614b1f60608301866145bc565b614b2c60808301856145bc565b614b3960a08301846145bc565b979650505050505050565b6000606082019050614b5960008301866145bc565b614b6660208301856145bc565b614b7360408301846145bc565b949350505050565b6000614b85614b96565b9050614b918282614e81565b919050565b6000604051905090565b600081519050919050565b600082825260208201905092915050565b600081905092915050565b6000614bd282614d5e565b9150614bdd83614d5e565b9250827fffffffffffffffffffffffffffffffffffffffffffffffffffffffffffffffff03821115614c1257614c11614eb2565b5b828201905092915050565b6000614c2882614d5e565b9150614c3383614d5e565b925082614c4357614c42614ee1565b5b828204905092915050565b6000614c5982614d5e565b9150614c6483614d5e565b9250817fffffffffffffffffffffffffffffffffffffffffffffffffffffffffffffffff0483118215151615614c9d57614c9c614eb2565b5b828202905092915050565b6000819050919050565b6000614cbd82614d3e565b9050919050565b6000614ccf82614d3e565b9050919050565b60008115159050919050565b6000819050919050565b60007fffffffff0000000000000000000000000000000000000000000000000000000082169050919050565b6000819050614d26826151ae565b919050565b6000819050614d39826151c2565b919050565b600073ffffffffffffffffffffffffffffffffffffffff82169050919050565b6000819050919050565b6000614d7382614de6565b9050919050565b6000614d8582614d8c565b9050919050565b6000614d9782614d3e565b9050919050565b6000614da982614db0565b9050919050565b6000614dbb82614d3e565b9050919050565b6000614dcd82614d18565b9050919050565b6000614ddf82614d2b565b9050919050565b6000614df182614df8565b9050919050565b6000614e0382614d3e565b9050919050565b60005b83811015614e28578082015181840152602081019050614e0d565b83811115614e37576000848401525b50505050565b6000614e4882614d5e565b91506000821415614e5c57614e5b614eb2565b5b600182039050919050565b6000614e7a614e7583614fb8565b614ca8565b9050919050565b614e8a82614fa7565b810181811067ffffffffffffffff82111715614ea957614ea8614f6e565b5b80604052505050565b7f4e487b7100000000000000000000000000000000000000000000000000000000600052601160045260246000fd5b7f4e487b7100000000000000000000000000000000000000000000000000000000600052601260045260246000fd5b7f4e487b7100000000000000000000000000000000000000000000000000000000600052602160045260246000fd5b7f4e487b7100000000000000000000000000000000000000000000000000000000600052603260045260246000fd5b7f4e487b7100000000000000000000000000000000000000000000000000000000600052604160045260246000fd5b600080fd5b600080fd5b6000601f19601f8301169050919050565b60008160001c9050919050565b7f537472696e67733a20686578206c656e67746820696e73756666696369656e74600082015250565b7f556e737570706f72746564206f7074696f6e20747970652e0000000000000000600082015250565b7f5769746864726177616c206661696c65642e0000000000000000000000000000600082015250565b7f4661696c6564207061796d656e742e0000000000000000000000000000000000600082015250565b7f4661696c6564207072656d69756d207061796d656e742e000000000000000000600082015250565b7f456e7465726564207072656d69756d20696e636f72726563742e000000000000600082015250565b7f5472616e73666572206661696c65642e00000000000000000000000000000000600082015250565b7f556e737570706f72746564206f7074696f6e2074656e6f722e00000000000000600082015250565b7f416363657373436f6e74726f6c3a206163636f756e7420000000000000000000600082015250565b7f206973206d697373696e6720726f6c6520000000000000000000000000000000600082015250565b7f416363657373436f6e74726f6c3a2063616e206f6e6c792072656e6f756e636560008201527f20726f6c657320666f722073656c660000000000000000000000000000000000602082015250565b600481106151bf576151be614f10565b5b50565b600281106151d3576151d2614f10565b5b50565b6151df81614cb2565b81146151ea57600080fd5b50565b6151f681614cc4565b811461520157600080fd5b50565b61520d81614cd6565b811461521857600080fd5b50565b61522481614ce2565b811461522f57600080fd5b50565b61523b81614cec565b811461524657600080fd5b50565b6004811061525657600080fd5b50565b6002811061526657600080fd5b50565b61527281614d5e565b811461527d57600080fd5b5056fea26469706673582212201bcc25e890b27173569c7c93bc933025a485c7577038ac8a261ae545d178256764736f6c63430008060033",
  "immutableReferences": {},
  "source": "/**\n * SPDX-License-Identifier: GPL-3.0-or-later\n * Moret\n * Copyright (C) 2021 Moret\n*/\n\npragma solidity ^0.8.4;\n\nimport \"@openzeppelin/contracts/token/ERC20/ERC20.sol\";\nimport \"@openzeppelin/contracts/access/AccessControl.sol\";\nimport \"./MoretInterfaces.sol\";\nimport \"./OptionVault.sol\";\nimport \"./VolatilityToken.sol\";\nimport \"./MoretMarketMaker.sol\";\n\ncontract Exchange is AccessControl, EOption\n{\n    bytes32 public constant ADMIN_ROLE = keccak256(\"ADMIN_ROLE\");\n\n    OptionLibrary.Percent public settlementFee = OptionLibrary.Percent(5 * 10 ** 3, 10 ** 6);\n    OptionLibrary.Percent public volTransactionFees = OptionLibrary.Percent(5 * 10 ** 3, 10 ** 6);\n      address payable public contractAddress;\n\n    MoretMarketMaker internal marketMaker;\n    OptionVault internal optionVault;\n      ERC20 internal underlyingToken;\n    mapping(uint256=>VolatilityToken) public volTokensList;\n\n    constructor(\n      address payable _marketMakerAddress,\n      address _optionAddress,\n      address payable _volTokenAddress\n      )\n    {\n       _setupRole(DEFAULT_ADMIN_ROLE, msg.sender);\n        _setupRole(ADMIN_ROLE, msg.sender);\n\n      optionVault = OptionVault(_optionAddress);\n      marketMaker = MoretMarketMaker(_marketMakerAddress);\n      VolatilityToken _volToken = VolatilityToken(_volTokenAddress);\n      volTokensList[_volToken.tenor()] = _volToken;\n      contractAddress = payable(address(this));\n\n      underlyingToken = ERC20(marketMaker.underlyingAddress());\n    }\n\n\n    function queryOptionCost(uint256 _tenor, uint256 _strike, OptionLibrary.PayoffType _poType, uint256 _amount) external view returns(uint256)\n    {\n        (uint256 _premium, uint256 _fee) = optionVault.queryOptionCost(_tenor, _strike, _poType, _amount,\n          settlementFee, marketMaker.calcUtilityAddon(_amount, _poType) );\n        return _premium + _fee;\n    }\n\n    function purchaseOption(uint256 _tenor, uint256 _strike, OptionLibrary.PayoffType _poType,\n      uint256 _amount, uint256 _payInCost)\n      external\n      {\n      require(optionVault.containsTenor(_tenor), \"Unsupported option tenor.\");\n      require((_poType == OptionLibrary.PayoffType.Call) || (_poType==OptionLibrary.PayoffType.Put), \"Unsupported option type.\");\n\n      (uint256 _premium, uint256 _fee) = optionVault.queryOptionCost(_tenor, _strike, _poType, _amount,\n        settlementFee, marketMaker.calcUtilityAddon(_amount, _poType) );\n\n      uint256 _id = optionVault.addOption(_tenor, _strike, _poType, _amount, _premium, _fee );\n\n      require(_payInCost >= optionVault.queryDraftOptionCost(_id, false), \"Entered premium incorrect.\");\n\n      require(underlyingToken.transferFrom(msg.sender, contractAddress, _payInCost), 'Failed payment.');\n      require(underlyingToken.transfer(address(marketMaker), optionVault.queryOptionPremium(_id)), 'Failed premium payment.');\n\n      optionVault.stampActiveOption(_id);\n\n      marketMaker.recordOptionPurhcase(msg.sender, _id, optionVault.queryOptionPremium(_id),\n        optionVault.queryOptionExposure(_id, OptionLibrary.PayoffType.Call),\n        optionVault.queryOptionExposure(_id, OptionLibrary.PayoffType.Put));\n\n\n        emit newOptionBought(msg.sender, optionVault.getOption(_id), _payInCost, false);\n\n    }\n\n    function purchaseOptionInVol(uint256 _tenor, uint256 _strike, OptionLibrary.PayoffType _poType,\n      uint256 _amount, uint256 _payInCost)\n      external\n      {\n      require(optionVault.containsTenor(_tenor), \"Unsupported option tenor.\");\n      require((_poType == OptionLibrary.PayoffType.Call) || (_poType==OptionLibrary.PayoffType.Put), \"Unsupported option type.\");\n\n      (uint256 _premium, uint256 _fee) = optionVault.queryOptionCost(_tenor, _strike, _poType, _amount,\n        settlementFee, marketMaker.calcUtilityAddon(_amount, _poType) );\n\n      uint256 _id = optionVault.addOption(_tenor, _strike, _poType, _amount, _premium, _fee );\n      require(_payInCost >= optionVault.queryDraftOptionCost(_id, true), \"Entered premium incorrect.\");\n\n      require(volTokensList[_tenor].transferFrom(msg.sender, contractAddress, _payInCost), 'Failed payment.');\n\n      volTokensList[_tenor].approve(volTokensList[_tenor].contractAddress(), _payInCost);\n      volTokensList[_tenor].recycleInToken(contractAddress, _payInCost, underlyingToken);\n      require(underlyingToken.transfer(address(marketMaker), optionVault.queryOptionPremium(_id)), 'Failed premium payment.');\n\n      optionVault.stampActiveOption(_id);\n\n      marketMaker.recordOptionPurhcase(msg.sender, _id, optionVault.queryOptionPremium(_id),\n        optionVault.queryOptionExposure(_id, OptionLibrary.PayoffType.Call),\n        optionVault.queryOptionExposure(_id, OptionLibrary.PayoffType.Put));\n\n      emit newOptionBought(msg.sender, optionVault.getOption(_id), _payInCost, true);\n\n    }\n\n    function exerciseOption(uint256 _id) external  {\n        optionVault.validateOption(_id, msg.sender);\n\n        uint256 _payoffValue = optionVault.getOptionPayoffValue(_id);\n\n        optionVault.stampExercisedOption(_id);\n\n        require(underlyingToken.transfer(msg.sender, _payoffValue), \"Transfer failed.\");\n\n        marketMaker.recordOptionRemoval(msg.sender, _id, optionVault.queryOptionPremium(_id),\n          optionVault.queryOptionExposure(_id, OptionLibrary.PayoffType.Call),\n          optionVault.queryOptionExposure(_id, OptionLibrary.PayoffType.Put));\n\n        emit optionExercised(msg.sender, optionVault.getOption(_id), _payoffValue);\n    }\n\n    function expireOption(uint256 _id) internal {\n        if(optionVault.isOptionExpiring(_id))\n        {\n            uint256 _payoffValue = optionVault.getOptionPayoffValue(_id);\n            require(_payoffValue < underlyingToken.balanceOf(contractAddress), \"Balance insufficient.\");\n\n            optionVault.stampExercisedOption(_id);\n\n            address payable _optionHolder = optionVault.getOptionHolder(_id);\n            require(underlyingToken.transfer(_optionHolder, _payoffValue), \"Transfer failed.\");\n\n            marketMaker.recordOptionRemoval(msg.sender, _id, optionVault.queryOptionPremium(_id),\n              optionVault.queryOptionExposure(_id, OptionLibrary.PayoffType.Call),\n              optionVault.queryOptionExposure(_id, OptionLibrary.PayoffType.Put));\n        }\n    }\n\n\n      function addVolToken(address payable _tokenAddress) external onlyRole(ADMIN_ROLE)\n      {\n          VolatilityToken _volToken = VolatilityToken(_tokenAddress);\n          require(_volToken.descriptionHash() == optionVault.descriptionHash());\n          require(optionVault.containsTenor(_volToken.tenor()));\n\n          volTokensList[_volToken.tenor()] = _volToken;\n\n      }\n\n      function quoteVolatilityCost(uint256 _tenor, uint256 _volAmount) public view returns(uint256, uint256)\n      {\n          require(optionVault.containsTenor(_tenor));\n\n          (uint256 _price,) = optionVault.queryPrice();\n\n          uint256 _value = volTokensList[_tenor].calculateMintValue(_volAmount, _price, optionVault.queryVol(_tenor));\n          uint256 _fee = _value * volTransactionFees.numerator/ volTransactionFees.denominator;\n\n          return (_value, _fee);\n      }\n\n      function purchaseVolatilityToken(uint256 _tenor, uint256 _volAmount, uint256 _payInCost)\n      external {\n          (uint256 _value, uint256 _fee) = quoteVolatilityCost(_tenor, _volAmount);\n          require(_payInCost >= (_value + _fee));\n\n          underlyingToken.transferFrom(msg.sender, address(volTokensList[_tenor]), _value);\n          volTokensList[_tenor].mint{value: _value}(msg.sender, _volAmount);\n\n          emit newVolatilityTokenBought(msg.sender, block.timestamp, _tenor, _volAmount);\n      }\n\n      function sweepBalance() external onlyRole(ADMIN_ROLE){\n            require(underlyingToken.transfer(msg.sender, underlyingToken.balanceOf(contractAddress)), \"Withdrawal failed.\");\n      }\n\n      function resetSettlementFees(uint256 _fee, uint256 _denominator) external onlyRole(ADMIN_ROLE){\n          settlementFee = OptionLibrary.Percent(_fee, _denominator);\n      }\n\n          function resetVolTransactionFees(uint256 _fee, uint256 _denominator) external onlyRole(ADMIN_ROLE){\n              volTransactionFees = OptionLibrary.Percent(_fee, _denominator);\n          }\n\n          function priceDecimals() external view returns(uint256){ return optionVault.priceDecimals();}\n          function queryVol(uint256 _tenor) external view returns(uint256){return optionVault.queryVol(_tenor);}\n\n          receive() external payable{}\n\n}\n",
  "sourcePath": "/Users/mac/Documents/GitHub/moret/contracts/Exchange.sol",
  "compiler": {
    "name": "solc",
    "version": "0.8.6+commit.11564f7e.Emscripten.clang"
  },
  "schemaVersion": "3.4.1",
  "updatedAt": "2021-07-02T23:42:31.799Z",
  "devdoc": {
    "kind": "dev",
    "methods": {
      "getRoleAdmin(bytes32)": {
        "details": "Returns the admin role that controls `role`. See {grantRole} and {revokeRole}. To change a role's admin, use {_setRoleAdmin}."
      },
      "grantRole(bytes32,address)": {
        "details": "Grants `role` to `account`. If `account` had not been already granted `role`, emits a {RoleGranted} event. Requirements: - the caller must have ``role``'s admin role."
      },
      "hasRole(bytes32,address)": {
        "details": "Returns `true` if `account` has been granted `role`."
      },
      "renounceRole(bytes32,address)": {
        "details": "Revokes `role` from the calling account. Roles are often managed via {grantRole} and {revokeRole}: this function's purpose is to provide a mechanism for accounts to lose their privileges if they are compromised (such as when a trusted device is misplaced). If the calling account had been granted `role`, emits a {RoleRevoked} event. Requirements: - the caller must be `account`."
      },
      "revokeRole(bytes32,address)": {
        "details": "Revokes `role` from `account`. If `account` had been granted `role`, emits a {RoleRevoked} event. Requirements: - the caller must have ``role``'s admin role."
      },
      "supportsInterface(bytes4)": {
        "details": "See {IERC165-supportsInterface}."
      }
    },
    "version": 1
  },
  "userdoc": {
    "kind": "user",
    "methods": {},
    "version": 1
  }
}