{
  "contractName": "Exchange",
  "abi": [
    {
      "inputs": [
        {
          "internalType": "address",
          "name": "_marketMakerAddress",
          "type": "address"
        },
        {
          "internalType": "address",
          "name": "_vaultAddress",
          "type": "address"
        }
      ],
      "stateMutability": "nonpayable",
      "type": "constructor"
    },
    {
      "anonymous": false,
      "inputs": [
        {
          "indexed": true,
          "internalType": "bytes32",
          "name": "role",
          "type": "bytes32"
        },
        {
          "indexed": true,
          "internalType": "bytes32",
          "name": "previousAdminRole",
          "type": "bytes32"
        },
        {
          "indexed": true,
          "internalType": "bytes32",
          "name": "newAdminRole",
          "type": "bytes32"
        }
      ],
      "name": "RoleAdminChanged",
      "type": "event"
    },
    {
      "anonymous": false,
      "inputs": [
        {
          "indexed": true,
          "internalType": "bytes32",
          "name": "role",
          "type": "bytes32"
        },
        {
          "indexed": true,
          "internalType": "address",
          "name": "account",
          "type": "address"
        },
        {
          "indexed": true,
          "internalType": "address",
          "name": "sender",
          "type": "address"
        }
      ],
      "name": "RoleGranted",
      "type": "event"
    },
    {
      "anonymous": false,
      "inputs": [
        {
          "indexed": true,
          "internalType": "bytes32",
          "name": "role",
          "type": "bytes32"
        },
        {
          "indexed": true,
          "internalType": "address",
          "name": "account",
          "type": "address"
        },
        {
          "indexed": true,
          "internalType": "address",
          "name": "sender",
          "type": "address"
        }
      ],
      "name": "RoleRevoked",
      "type": "event"
    },
    {
      "anonymous": false,
      "inputs": [
        {
          "indexed": false,
          "internalType": "address",
          "name": "_recipient",
          "type": "address"
        },
        {
          "indexed": false,
          "internalType": "uint256",
          "name": "_mintMPTokenAmount",
          "type": "uint256"
        },
        {
          "indexed": false,
          "internalType": "uint256",
          "name": "_addedValue",
          "type": "uint256"
        }
      ],
      "name": "capitalAdded",
      "type": "event"
    },
    {
      "anonymous": false,
      "inputs": [
        {
          "indexed": false,
          "internalType": "address",
          "name": "_recipient",
          "type": "address"
        },
        {
          "indexed": false,
          "internalType": "uint256",
          "name": "_burnMPTokenAmount",
          "type": "uint256"
        },
        {
          "indexed": false,
          "internalType": "uint256",
          "name": "_withdrawValue",
          "type": "uint256"
        }
      ],
      "name": "capitalWithdrawn",
      "type": "event"
    },
    {
      "anonymous": false,
      "inputs": [
        {
          "indexed": true,
          "internalType": "address",
          "name": "_purchaser",
          "type": "address"
        },
        {
          "components": [
            {
              "internalType": "enum OptionLibrary.PayoffType",
              "name": "poType",
              "type": "uint8"
            },
            {
              "internalType": "enum OptionLibrary.OptionSide",
              "name": "side",
              "type": "uint8"
            },
            {
              "internalType": "enum OptionLibrary.OptionStatus",
              "name": "status",
              "type": "uint8"
            },
            {
              "internalType": "address",
              "name": "holder",
              "type": "address"
            },
            {
              "internalType": "uint256",
              "name": "id",
              "type": "uint256"
            },
            {
              "internalType": "uint256",
              "name": "createTime",
              "type": "uint256"
            },
            {
              "internalType": "uint256",
              "name": "effectiveTime",
              "type": "uint256"
            },
            {
              "internalType": "uint256",
              "name": "tenor",
              "type": "uint256"
            },
            {
              "internalType": "uint256",
              "name": "maturity",
              "type": "uint256"
            },
            {
              "internalType": "uint256",
              "name": "exerciseTime",
              "type": "uint256"
            },
            {
              "internalType": "uint256",
              "name": "amount",
              "type": "uint256"
            },
            {
              "internalType": "uint256",
              "name": "spot",
              "type": "uint256"
            },
            {
              "internalType": "uint256",
              "name": "strike",
              "type": "uint256"
            },
            {
              "internalType": "uint256",
              "name": "volatility",
              "type": "uint256"
            },
            {
              "internalType": "uint256",
              "name": "premium",
              "type": "uint256"
            },
            {
              "internalType": "uint256",
              "name": "cost",
              "type": "uint256"
            }
          ],
          "indexed": false,
          "internalType": "struct OptionLibrary.Option",
          "name": "_option",
          "type": "tuple"
        },
        {
          "indexed": false,
          "internalType": "uint256",
          "name": "_cost",
          "type": "uint256"
        },
        {
          "indexed": false,
          "internalType": "bool",
          "name": "_inVol",
          "type": "bool"
        }
      ],
      "name": "newOptionBought",
      "type": "event"
    },
    {
      "anonymous": false,
      "inputs": [
        {
          "indexed": true,
          "internalType": "address",
          "name": "_purchaser",
          "type": "address"
        },
        {
          "components": [
            {
              "internalType": "enum OptionLibrary.PayoffType",
              "name": "poType",
              "type": "uint8"
            },
            {
              "internalType": "enum OptionLibrary.OptionSide",
              "name": "side",
              "type": "uint8"
            },
            {
              "internalType": "enum OptionLibrary.OptionStatus",
              "name": "status",
              "type": "uint8"
            },
            {
              "internalType": "address",
              "name": "holder",
              "type": "address"
            },
            {
              "internalType": "uint256",
              "name": "id",
              "type": "uint256"
            },
            {
              "internalType": "uint256",
              "name": "createTime",
              "type": "uint256"
            },
            {
              "internalType": "uint256",
              "name": "effectiveTime",
              "type": "uint256"
            },
            {
              "internalType": "uint256",
              "name": "tenor",
              "type": "uint256"
            },
            {
              "internalType": "uint256",
              "name": "maturity",
              "type": "uint256"
            },
            {
              "internalType": "uint256",
              "name": "exerciseTime",
              "type": "uint256"
            },
            {
              "internalType": "uint256",
              "name": "amount",
              "type": "uint256"
            },
            {
              "internalType": "uint256",
              "name": "spot",
              "type": "uint256"
            },
            {
              "internalType": "uint256",
              "name": "strike",
              "type": "uint256"
            },
            {
              "internalType": "uint256",
              "name": "volatility",
              "type": "uint256"
            },
            {
              "internalType": "uint256",
              "name": "premium",
              "type": "uint256"
            },
            {
              "internalType": "uint256",
              "name": "cost",
              "type": "uint256"
            }
          ],
          "indexed": false,
          "internalType": "struct OptionLibrary.Option",
          "name": "_option",
          "type": "tuple"
        },
        {
          "indexed": false,
          "internalType": "uint256",
          "name": "_payoff",
          "type": "uint256"
        }
      ],
      "name": "optionExercised",
      "type": "event"
    },
    {
      "anonymous": false,
      "inputs": [
        {
          "indexed": false,
          "internalType": "address",
          "name": "_purchaser",
          "type": "address"
        },
        {
          "indexed": false,
          "internalType": "uint256",
          "name": "_time",
          "type": "uint256"
        },
        {
          "indexed": false,
          "internalType": "uint256",
          "name": "_tenor",
          "type": "uint256"
        },
        {
          "indexed": false,
          "internalType": "uint256",
          "name": "_amount",
          "type": "uint256"
        },
        {
          "indexed": false,
          "internalType": "uint256",
          "name": "_cost",
          "type": "uint256"
        }
      ],
      "name": "volatilityTokenBought",
      "type": "event"
    },
    {
      "anonymous": false,
      "inputs": [
        {
          "indexed": false,
          "internalType": "address",
          "name": "_seller",
          "type": "address"
        },
        {
          "indexed": false,
          "internalType": "uint256",
          "name": "_time",
          "type": "uint256"
        },
        {
          "indexed": false,
          "internalType": "uint256",
          "name": "_tenor",
          "type": "uint256"
        },
        {
          "indexed": false,
          "internalType": "uint256",
          "name": "_amount",
          "type": "uint256"
        },
        {
          "indexed": false,
          "internalType": "uint256",
          "name": "_cost",
          "type": "uint256"
        }
      ],
      "name": "volatilityTokenSold",
      "type": "event"
    },
    {
      "inputs": [],
      "name": "ADMIN_ROLE",
      "outputs": [
        {
          "internalType": "bytes32",
          "name": "",
          "type": "bytes32"
        }
      ],
      "stateMutability": "view",
      "type": "function",
      "constant": true
    },
    {
      "inputs": [],
      "name": "DEFAULT_ADMIN_ROLE",
      "outputs": [
        {
          "internalType": "bytes32",
          "name": "",
          "type": "bytes32"
        }
      ],
      "stateMutability": "view",
      "type": "function",
      "constant": true
    },
    {
      "inputs": [],
      "name": "allowTrading",
      "outputs": [
        {
          "internalType": "bool",
          "name": "",
          "type": "bool"
        }
      ],
      "stateMutability": "view",
      "type": "function",
      "constant": true
    },
    {
      "inputs": [
        {
          "internalType": "bytes32",
          "name": "role",
          "type": "bytes32"
        }
      ],
      "name": "getRoleAdmin",
      "outputs": [
        {
          "internalType": "bytes32",
          "name": "",
          "type": "bytes32"
        }
      ],
      "stateMutability": "view",
      "type": "function",
      "constant": true
    },
    {
      "inputs": [
        {
          "internalType": "bytes32",
          "name": "role",
          "type": "bytes32"
        },
        {
          "internalType": "address",
          "name": "account",
          "type": "address"
        }
      ],
      "name": "grantRole",
      "outputs": [],
      "stateMutability": "nonpayable",
      "type": "function"
    },
    {
      "inputs": [
        {
          "internalType": "bytes32",
          "name": "role",
          "type": "bytes32"
        },
        {
          "internalType": "address",
          "name": "account",
          "type": "address"
        }
      ],
      "name": "hasRole",
      "outputs": [
        {
          "internalType": "bool",
          "name": "",
          "type": "bool"
        }
      ],
      "stateMutability": "view",
      "type": "function",
      "constant": true
    },
    {
      "inputs": [],
      "name": "loanInterest",
      "outputs": [
        {
          "internalType": "uint256",
          "name": "",
          "type": "uint256"
        }
      ],
      "stateMutability": "view",
      "type": "function",
      "constant": true
    },
    {
      "inputs": [],
      "name": "marketMakerAddress",
      "outputs": [
        {
          "internalType": "address",
          "name": "",
          "type": "address"
        }
      ],
      "stateMutability": "view",
      "type": "function",
      "constant": true
    },
    {
      "inputs": [
        {
          "internalType": "bytes32",
          "name": "role",
          "type": "bytes32"
        },
        {
          "internalType": "address",
          "name": "account",
          "type": "address"
        }
      ],
      "name": "renounceRole",
      "outputs": [],
      "stateMutability": "nonpayable",
      "type": "function"
    },
    {
      "inputs": [
        {
          "internalType": "bytes32",
          "name": "role",
          "type": "bytes32"
        },
        {
          "internalType": "address",
          "name": "account",
          "type": "address"
        }
      ],
      "name": "revokeRole",
      "outputs": [],
      "stateMutability": "nonpayable",
      "type": "function"
    },
    {
      "inputs": [
        {
          "internalType": "bytes4",
          "name": "interfaceId",
          "type": "bytes4"
        }
      ],
      "name": "supportsInterface",
      "outputs": [
        {
          "internalType": "bool",
          "name": "",
          "type": "bool"
        }
      ],
      "stateMutability": "view",
      "type": "function",
      "constant": true
    },
    {
      "inputs": [],
      "name": "vaultAddress",
      "outputs": [
        {
          "internalType": "address",
          "name": "",
          "type": "address"
        }
      ],
      "stateMutability": "view",
      "type": "function",
      "constant": true
    },
    {
      "inputs": [],
      "name": "volRiskPremiumMaxRatio",
      "outputs": [
        {
          "internalType": "uint256",
          "name": "",
          "type": "uint256"
        }
      ],
      "stateMutability": "view",
      "type": "function",
      "constant": true
    },
    {
      "inputs": [
        {
          "internalType": "uint256",
          "name": "",
          "type": "uint256"
        }
      ],
      "name": "volTokenAddressList",
      "outputs": [
        {
          "internalType": "address",
          "name": "",
          "type": "address"
        }
      ],
      "stateMutability": "view",
      "type": "function",
      "constant": true
    },
    {
      "inputs": [
        {
          "internalType": "uint256",
          "name": "_tenor",
          "type": "uint256"
        },
        {
          "internalType": "uint256",
          "name": "_strike",
          "type": "uint256"
        },
        {
          "internalType": "uint256",
          "name": "_amount",
          "type": "uint256"
        },
        {
          "internalType": "enum OptionLibrary.PayoffType",
          "name": "_poType",
          "type": "uint8"
        },
        {
          "internalType": "enum OptionLibrary.OptionSide",
          "name": "_side",
          "type": "uint8"
        }
      ],
      "name": "calcCost",
      "outputs": [
        {
          "internalType": "uint256",
          "name": "",
          "type": "uint256"
        },
        {
          "internalType": "uint256",
          "name": "",
          "type": "uint256"
        },
        {
          "internalType": "uint256",
          "name": "",
          "type": "uint256"
        }
      ],
      "stateMutability": "view",
      "type": "function",
      "constant": true
    },
    {
      "inputs": [
        {
          "internalType": "uint256",
          "name": "_tenor",
          "type": "uint256"
        },
        {
          "internalType": "uint256",
          "name": "_price",
          "type": "uint256"
        },
        {
          "internalType": "uint256",
          "name": "_strike",
          "type": "uint256"
        },
        {
          "internalType": "uint256",
          "name": "_amount",
          "type": "uint256"
        },
        {
          "internalType": "enum OptionLibrary.PayoffType",
          "name": "_poType",
          "type": "uint8"
        },
        {
          "internalType": "enum OptionLibrary.OptionSide",
          "name": "_side",
          "type": "uint8"
        }
      ],
      "name": "calcOptionCost",
      "outputs": [
        {
          "internalType": "uint256",
          "name": "_premium",
          "type": "uint256"
        },
        {
          "internalType": "uint256",
          "name": "_cost",
          "type": "uint256"
        },
        {
          "internalType": "uint256",
          "name": "_vol",
          "type": "uint256"
        }
      ],
      "stateMutability": "view",
      "type": "function",
      "constant": true
    },
    {
      "inputs": [
        {
          "internalType": "uint256",
          "name": "_tenor",
          "type": "uint256"
        },
        {
          "internalType": "uint256",
          "name": "_strike",
          "type": "uint256"
        },
        {
          "internalType": "uint256",
          "name": "_amount",
          "type": "uint256"
        },
        {
          "internalType": "enum OptionLibrary.OptionSide",
          "name": "_side",
          "type": "uint8"
        }
      ],
      "name": "queryOptionVolatility",
      "outputs": [
        {
          "internalType": "uint256",
          "name": "_vol",
          "type": "uint256"
        }
      ],
      "stateMutability": "view",
      "type": "function",
      "constant": true
    },
    {
      "inputs": [
        {
          "internalType": "uint256",
          "name": "_tenor",
          "type": "uint256"
        },
        {
          "internalType": "uint256",
          "name": "_strike",
          "type": "uint256"
        },
        {
          "internalType": "uint256",
          "name": "_amount",
          "type": "uint256"
        },
        {
          "internalType": "enum OptionLibrary.PayoffType",
          "name": "_poType",
          "type": "uint8"
        },
        {
          "internalType": "enum OptionLibrary.OptionSide",
          "name": "_side",
          "type": "uint8"
        },
        {
          "internalType": "uint256",
          "name": "_payInCost",
          "type": "uint256"
        }
      ],
      "name": "purchaseOption",
      "outputs": [],
      "stateMutability": "nonpayable",
      "type": "function"
    },
    {
      "inputs": [
        {
          "internalType": "uint256",
          "name": "_id",
          "type": "uint256"
        }
      ],
      "name": "getOptionPayoffValue",
      "outputs": [
        {
          "internalType": "uint256",
          "name": "_payback",
          "type": "uint256"
        }
      ],
      "stateMutability": "view",
      "type": "function",
      "constant": true
    },
    {
      "inputs": [
        {
          "internalType": "uint256",
          "name": "_tenor",
          "type": "uint256"
        },
        {
          "internalType": "uint256",
          "name": "_amount",
          "type": "uint256"
        },
        {
          "internalType": "enum OptionLibrary.OptionSide",
          "name": "_side",
          "type": "uint8"
        }
      ],
      "name": "calcVolAmount",
      "outputs": [
        {
          "internalType": "uint256",
          "name": "_volAmount",
          "type": "uint256"
        },
        {
          "internalType": "uint256",
          "name": "_vol",
          "type": "uint256"
        },
        {
          "internalType": "uint256",
          "name": "_premium",
          "type": "uint256"
        },
        {
          "internalType": "uint256",
          "name": "_cost",
          "type": "uint256"
        },
        {
          "internalType": "uint256",
          "name": "_price",
          "type": "uint256"
        }
      ],
      "stateMutability": "view",
      "type": "function",
      "constant": true
    },
    {
      "inputs": [
        {
          "internalType": "uint256",
          "name": "_tenor",
          "type": "uint256"
        },
        {
          "internalType": "uint256",
          "name": "_amount",
          "type": "uint256"
        },
        {
          "internalType": "uint256",
          "name": "_payInCost",
          "type": "uint256"
        }
      ],
      "name": "buyVol",
      "outputs": [],
      "stateMutability": "nonpayable",
      "type": "function"
    },
    {
      "inputs": [
        {
          "internalType": "uint256",
          "name": "_tenor",
          "type": "uint256"
        },
        {
          "internalType": "uint256",
          "name": "_amount",
          "type": "uint256"
        },
        {
          "internalType": "uint256",
          "name": "_payInVol",
          "type": "uint256"
        }
      ],
      "name": "sellVol",
      "outputs": [],
      "stateMutability": "nonpayable",
      "type": "function"
    },
    {
      "inputs": [
        {
          "internalType": "uint256",
          "name": "_tenor",
          "type": "uint256"
        },
        {
          "internalType": "uint256",
          "name": "_amount",
          "type": "uint256"
        },
        {
          "internalType": "enum OptionLibrary.PayoffType",
          "name": "_poType",
          "type": "uint8"
        },
        {
          "internalType": "uint256",
          "name": "_payInVol",
          "type": "uint256"
        }
      ],
      "name": "buyOptionInVol",
      "outputs": [],
      "stateMutability": "nonpayable",
      "type": "function"
    },
    {
      "inputs": [
        {
          "internalType": "uint256",
          "name": "_tenor",
          "type": "uint256"
        },
        {
          "internalType": "uint256",
          "name": "_amount",
          "type": "uint256"
        },
        {
          "internalType": "enum OptionLibrary.PayoffType",
          "name": "_poType",
          "type": "uint8"
        },
        {
          "internalType": "uint256",
          "name": "_payInCost",
          "type": "uint256"
        }
      ],
      "name": "sellOptionInVol",
      "outputs": [],
      "stateMutability": "nonpayable",
      "type": "function"
    },
    {
      "inputs": [
        {
          "internalType": "uint256",
          "name": "_tenor",
          "type": "uint256"
        },
        {
          "internalType": "address",
          "name": "_tokenAddress",
          "type": "address"
        }
      ],
      "name": "addVolToken",
      "outputs": [],
      "stateMutability": "nonpayable",
      "type": "function"
    },
    {
      "inputs": [
        {
          "internalType": "uint256",
          "name": "_tenor",
          "type": "uint256"
        }
      ],
      "name": "removeVolToken",
      "outputs": [],
      "stateMutability": "nonpayable",
      "type": "function"
    },
    {
      "inputs": [
        {
          "internalType": "uint256",
          "name": "_loanInterest",
          "type": "uint256"
        }
      ],
      "name": "resetLoanRate",
      "outputs": [],
      "stateMutability": "nonpayable",
      "type": "function"
    },
    {
      "inputs": [
        {
          "internalType": "uint256",
          "name": "_newRatio",
          "type": "uint256"
        }
      ],
      "name": "resetRiskPremiumMaxRatio",
      "outputs": [],
      "stateMutability": "nonpayable",
      "type": "function"
    },
    {
      "inputs": [
        {
          "internalType": "bool",
          "name": "_allowTrading",
          "type": "bool"
        }
      ],
      "name": "resetTrading",
      "outputs": [],
      "stateMutability": "nonpayable",
      "type": "function"
    }
  ],
  "bytecode": "0x60806040526718fae27693b4000060065560006007556001600860006101000a81548160ff0219169083151502179055503480156200003d57600080fd5b5060405162005dc738038062005dc7833981810160405281019062000063919062000399565b620000786000801b33620001b660201b60201c565b620000aa7fa49807205ce4d355092ef5a8a18f56e8913cf4a201fbe287825b095693c2177533620001b660201b60201c565b80600160006101000a81548173ffffffffffffffffffffffffffffffffffffffff021916908373ffffffffffffffffffffffffffffffffffffffff16021790555080600560006101000a81548173ffffffffffffffffffffffffffffffffffffffff021916908373ffffffffffffffffffffffffffffffffffffffff16021790555081600260006101000a81548173ffffffffffffffffffffffffffffffffffffffff021916908373ffffffffffffffffffffffffffffffffffffffff16021790555081600460006101000a81548173ffffffffffffffffffffffffffffffffffffffff021916908373ffffffffffffffffffffffffffffffffffffffff1602179055505050620003e0565b620001c88282620001cc60201b60201c565b5050565b620001de8282620002bd60201b60201c565b620002b957600160008084815260200190815260200160002060000160008373ffffffffffffffffffffffffffffffffffffffff1673ffffffffffffffffffffffffffffffffffffffff16815260200190815260200160002060006101000a81548160ff0219169083151502179055506200025e6200032760201b60201c565b73ffffffffffffffffffffffffffffffffffffffff168173ffffffffffffffffffffffffffffffffffffffff16837f2f8788117e7eff1d82e926ec794901d17c78024a50270940304540a733656f0d60405160405180910390a45b5050565b600080600084815260200190815260200160002060000160008373ffffffffffffffffffffffffffffffffffffffff1673ffffffffffffffffffffffffffffffffffffffff16815260200190815260200160002060009054906101000a900460ff16905092915050565b600033905090565b600080fd5b600073ffffffffffffffffffffffffffffffffffffffff82169050919050565b6000620003618262000334565b9050919050565b620003738162000354565b81146200037f57600080fd5b50565b600081519050620003938162000368565b92915050565b60008060408385031215620003b357620003b26200032f565b5b6000620003c38582860162000382565b9250506020620003d68582860162000382565b9150509250929050565b6159d780620003f06000396000f3fe608060405234801561001057600080fd5b50600436106101cf5760003560e01c80636a7d116f11610104578063a217fddf116100a2578063d547741f11610071578063d547741f14610530578063dab243291461054c578063e327c24814610568578063edf0bec61461059a576101cf565b8063a217fddf146104ba578063a34a1e4d146104d8578063a7292ea4146104f4578063cc91058814610512576101cf565b806375b8452b116100de57806375b8452b1461041e57806385e6be8b146104525780638d4939c61461046e57806391d148541461048a576101cf565b80636a7d116f146103b45780637188157e146103e457806375b238fc14610400576101cf565b80632f2ff15d11610171578063430bf08a1161014b578063430bf08a1461032c5780634b7a58fb1461034a5780634d937da91461036657806368fefdfb14610382576101cf565b80632f2ff15d146102c457806336568abe146102e057806340d6eaab146102fc576101cf565b80630c64307d116101ad5780630c64307d1461023e578063130dab6a1461025a578063248a9ca3146102765780632e5b4c43146102a6576101cf565b806301ffc9a7146101d45780630227ac83146102045780630875c6b114610220575b600080fd5b6101ee60048036038101906101e99190613cdc565b6105ca565b6040516101fb9190613d24565b60405180910390f35b61021e60048036038101906102199190613dd3565b610644565b005b6102286108ec565b6040516102359190613e22565b60405180910390f35b61025860048036038101906102539190613e3d565b6108f2565b005b610274600480360381019061026f9190613e3d565b61092f565b005b610290600480360381019061028b9190613ea0565b6109b8565b60405161029d9190613edc565b60405180910390f35b6102ae6109d7565b6040516102bb9190613d24565b60405180910390f35b6102de60048036038101906102d99190613ef7565b6109ea565b005b6102fa60048036038101906102f59190613ef7565b610a13565b005b61031660048036038101906103119190613e3d565b610a96565b6040516103239190613e22565b60405180910390f35b610334610b3e565b6040516103419190613f46565b60405180910390f35b610364600480360381019061035f9190613f61565b610b64565b005b610380600480360381019061037b9190613fd9565b610e41565b005b61039c60048036038101906103979190614065565b6114a1565b6040516103ab939291906140e0565b60405180910390f35b6103ce60048036038101906103c99190614117565b61155a565b6040516103db9190613e22565b60405180910390f35b6103fe60048036038101906103f99190613fd9565b61185e565b005b610408611ea8565b6040516104159190613edc565b60405180910390f35b6104386004803603810190610433919061417e565b611ecc565b6040516104499594939291906141d1565b60405180910390f35b61046c60048036038101906104679190613e3d565b612156565b005b61048860048036038101906104839190614250565b612193565b005b6104a4600480360381019061049f9190613ef7565b6121c6565b6040516104b19190613d24565b60405180910390f35b6104c2612230565b6040516104cf9190613edc565b60405180910390f35b6104f260048036038101906104ed919061427d565b612237565b005b6104fc612727565b6040516105099190613e22565b60405180910390f35b61051a61272d565b6040516105279190613f46565b60405180910390f35b61054a60048036038101906105459190613ef7565b612753565b005b61056660048036038101906105619190613f61565b61277c565b005b610582600480360381019061057d919061430a565b612ba3565b604051610591939291906140e0565b60405180910390f35b6105b460048036038101906105af9190613e3d565b612f7a565b6040516105c19190613f46565b60405180910390f35b60007f7965db0b000000000000000000000000000000000000000000000000000000007bffffffffffffffffffffffffffffffffffffffffffffffffffffffff1916827bffffffffffffffffffffffffffffffffffffffffffffffffffffffff1916148061063d575061063c82612fad565b5b9050919050565b7fa49807205ce4d355092ef5a8a18f56e8913cf4a201fbe287825b095693c2177561067681610671613017565b61301f565b826003600085815260200190815260200160002060009054906101000a900473ffffffffffffffffffffffffffffffffffffffff1673ffffffffffffffffffffffffffffffffffffffff1663a15612d16040518163ffffffff1660e01b8152600401602060405180830381865afa1580156106f5573d6000803e3d6000fd5b505050506040513d601f19601f8201168201806040525081019061071991906143ac565b1480156108565750600560009054906101000a900473ffffffffffffffffffffffffffffffffffffffff1673ffffffffffffffffffffffffffffffffffffffff1663cca494736040518163ffffffff1660e01b8152600401602060405180830381865afa15801561078e573d6000803e3d6000fd5b505050506040513d601f19601f820116820180604052508101906107b291906143ee565b6003600085815260200190815260200160002060009054906101000a900473ffffffffffffffffffffffffffffffffffffffff1673ffffffffffffffffffffffffffffffffffffffff1663cca494736040518163ffffffff1660e01b8152600401602060405180830381865afa158015610830573d6000803e3d6000fd5b505050506040513d601f19601f8201168201806040525081019061085491906143ee565b145b610895576040517f08c379a000000000000000000000000000000000000000000000000000000000815260040161088c90614478565b60405180910390fd5b816003600085815260200190815260200160002060006101000a81548173ffffffffffffffffffffffffffffffffffffffff021916908373ffffffffffffffffffffffffffffffffffffffff160217905550505050565b60065481565b7fa49807205ce4d355092ef5a8a18f56e8913cf4a201fbe287825b095693c217756109248161091f613017565b61301f565b816007819055505050565b7fa49807205ce4d355092ef5a8a18f56e8913cf4a201fbe287825b095693c217756109618161095c613017565b61301f565b60006003600084815260200190815260200160002060006101000a81548173ffffffffffffffffffffffffffffffffffffffff021916908373ffffffffffffffffffffffffffffffffffffffff1602179055505050565b6000806000838152602001908152602001600020600101549050919050565b600860009054906101000a900460ff1681565b6109f3826109b8565b610a04816109ff613017565b61301f565b610a0e83836130bc565b505050565b610a1b613017565b73ffffffffffffffffffffffffffffffffffffffff168173ffffffffffffffffffffffffffffffffffffffff1614610a88576040517f08c379a0000000000000000000000000000000000000000000000000000000008152600401610a7f9061450a565b60405180910390fd5b610a92828261319c565b5050565b6000600560009054906101000a900473ffffffffffffffffffffffffffffffffffffffff1673ffffffffffffffffffffffffffffffffffffffff166385ae10e6836040518263ffffffff1660e01b8152600401610af39190613e22565b6040805180830381865afa158015610b0f573d6000803e3d6000fd5b505050506040513d601f19601f82011682018060405250810190610b33919061452a565b905080915050919050565b600160009054906101000a900473ffffffffffffffffffffffffffffffffffffffff1681565b600860009054906101000a900460ff16610bb3576040517f08c379a0000000000000000000000000000000000000000000000000000000008152600401610baa906145b6565b60405180910390fd5b600080610bc285856000611ecc565b5050925050915080831015610c0c576040517f08c379a0000000000000000000000000000000000000000000000000000000008152600401610c0390614622565b60405180910390fd5b600560009054906101000a900473ffffffffffffffffffffffffffffffffffffffff1673ffffffffffffffffffffffffffffffffffffffff1663cb4c86b76040518163ffffffff1660e01b8152600401602060405180830381865afa158015610c79573d6000803e3d6000fd5b505050506040513d601f19601f82011682018060405250810190610c9d9190614657565b73ffffffffffffffffffffffffffffffffffffffff166323b872dd3330846040518463ffffffff1660e01b8152600401610cd993929190614684565b6020604051808303816000875af1158015610cf8573d6000803e3d6000fd5b505050506040513d601f19601f82011682018060405250810190610d1c91906146d0565b610d5b576040517f08c379a0000000000000000000000000000000000000000000000000000000008152600401610d5290614749565b60405180910390fd5b6003600086815260200190815260200160002060009054906101000a900473ffffffffffffffffffffffffffffffffffffffff1673ffffffffffffffffffffffffffffffffffffffff166340c10f1933846040518363ffffffff1660e01b8152600401610dc9929190614769565b600060405180830381600087803b158015610de357600080fd5b505af1158015610df7573d6000803e3d6000fd5b505050507f41d69e33fd598418aa9a6a5462a34bc55033968f3e4060ef4721e770058cbbb93342878585604051610e32959493929190614792565b60405180910390a15050505050565b600860009054906101000a900460ff16610e90576040517f08c379a0000000000000000000000000000000000000000000000000000000008152600401610e87906145b6565b60405180910390fd5b6000806000806000610ea489896001611ecc565b9450945094509450945060008284610ebc9190614814565b905080871015610f01576040517f08c379a0000000000000000000000000000000000000000000000000000000008152600401610ef890614622565b60405180910390fd5b600560009054906101000a900473ffffffffffffffffffffffffffffffffffffffff1673ffffffffffffffffffffffffffffffffffffffff1663cb4c86b76040518163ffffffff1660e01b8152600401602060405180830381865afa158015610f6e573d6000803e3d6000fd5b505050506040513d601f19601f82011682018060405250810190610f929190614657565b73ffffffffffffffffffffffffffffffffffffffff166323b872dd33600260009054906101000a900473ffffffffffffffffffffffffffffffffffffffff16866040518463ffffffff1660e01b8152600401610ff093929190614684565b6020604051808303816000875af115801561100f573d6000803e3d6000fd5b505050506040513d601f19601f8201168201806040525081019061103391906146d0565b611072576040517f08c379a0000000000000000000000000000000000000000000000000000000008152600401611069906148b6565b60405180910390fd5b600560009054906101000a900473ffffffffffffffffffffffffffffffffffffffff1673ffffffffffffffffffffffffffffffffffffffff1663cb4c86b76040518163ffffffff1660e01b8152600401602060405180830381865afa1580156110df573d6000803e3d6000fd5b505050506040513d601f19601f820116820180604052508101906111039190614657565b73ffffffffffffffffffffffffffffffffffffffff166323b872dd3330876040518463ffffffff1660e01b815260040161113f93929190614684565b6020604051808303816000875af115801561115e573d6000803e3d6000fd5b505050506040513d601f19601f8201168201806040525081019061118291906146d0565b6111c1576040517f08c379a00000000000000000000000000000000000000000000000000000000081526004016111b8906148b6565b60405180910390fd5b6000600560009054906101000a900473ffffffffffffffffffffffffffffffffffffffff1673ffffffffffffffffffffffffffffffffffffffff1663b5310ff98c858d8d60018b8b8b8f336040518b63ffffffff1660e01b81526004016112319a99989796959493929190614995565b6020604051808303816000875af1158015611250573d6000803e3d6000fd5b505050506040513d601f19601f8201168201806040525081019061127491906143ac565b9050600360008c815260200190815260200160002060009054906101000a900473ffffffffffffffffffffffffffffffffffffffff1673ffffffffffffffffffffffffffffffffffffffff166340c10f1933896040518363ffffffff1660e01b81526004016112e4929190614769565b600060405180830381600087803b1580156112fe57600080fd5b505af1158015611312573d6000803e3d6000fd5b50505050600560009054906101000a900473ffffffffffffffffffffffffffffffffffffffff1673ffffffffffffffffffffffffffffffffffffffff166324b4110e82336040518363ffffffff1660e01b8152600401611373929190614a31565b600060405180830381600087803b15801561138d57600080fd5b505af11580156113a1573d6000803e3d6000fd5b505050503373ffffffffffffffffffffffffffffffffffffffff167f639bcb68083836b73ad6cd444bd790e8421c4b363635459fbfff715dc24fa855600560009054906101000a900473ffffffffffffffffffffffffffffffffffffffff1673ffffffffffffffffffffffffffffffffffffffff16631ce5e9a6846040518263ffffffff1660e01b81526004016114389190613e22565b61020060405180830381865afa158015611456573d6000803e3d6000fd5b505050506040513d601f19601f8201168201806040525081019061147a9190614cb4565b89600160405161148c93929190614eb0565b60405180910390a25050505050505050505050565b600080600080600560009054906101000a900473ffffffffffffffffffffffffffffffffffffffff1673ffffffffffffffffffffffffffffffffffffffff1663b0667cf86040518163ffffffff1660e01b81526004016040805180830381865afa158015611513573d6000803e3d6000fd5b505050506040513d601f19601f82011682018060405250810190611537919061452a565b50905061154889828a8a8a8a612ba3565b93509350935050955095509592505050565b6000600560009054906101000a900473ffffffffffffffffffffffffffffffffffffffff1673ffffffffffffffffffffffffffffffffffffffff1663cfc2dc20866040518263ffffffff1660e01b81526004016115b79190613e22565b602060405180830381865afa1580156115d4573d6000803e3d6000fd5b505050506040513d601f19601f820116820180604052508101906115f891906143ac565b90506000600560009054906101000a900473ffffffffffffffffffffffffffffffffffffffff1673ffffffffffffffffffffffffffffffffffffffff1663b0667cf86040518163ffffffff1660e01b81526004016040805180830381865afa158015611668573d6000803e3d6000fd5b505050506040513d601f19601f8201168201806040525081019061168c919061452a565b509050600460009054906101000a900473ffffffffffffffffffffffffffffffffffffffff1673ffffffffffffffffffffffffffffffffffffffff166363447902600160006040518363ffffffff1660e01b81526004016116ee929190614eea565b602060405180830381865afa15801561170b573d6000803e3d6000fd5b505050506040513d601f19601f8201168201806040525081019061172f91906143ac565b6117a6858373__OptionLibrary_________________________63fd9b87636040518163ffffffff1660e01b8152600401602060405180830381865af415801561177d573d6000803e3d6000fd5b505050506040513d601f19601f820116820180604052508101906117a191906143ac565b61327d565b11156117e7576040517f08c379a00000000000000000000000000000000000000000000000000000000081526004016117de90614f5f565b60405180910390fd5b60006117f68284888888613379565b9050600081846118069190614f89565b13611846576040517f08c379a000000000000000000000000000000000000000000000000000000000815260040161183d90615069565b60405180910390fd5b80836118529190614f89565b92505050949350505050565b600860009054906101000a900460ff166118ad576040517f08c379a00000000000000000000000000000000000000000000000000000000081526004016118a4906145b6565b60405180910390fd5b60008060008060006118c189896000611ecc565b945094509450945094508486101561190e576040517f08c379a000000000000000000000000000000000000000000000000000000000815260040161190590614622565b60405180910390fd5b82600560009054906101000a900473ffffffffffffffffffffffffffffffffffffffff1673ffffffffffffffffffffffffffffffffffffffff1663cb4c86b76040518163ffffffff1660e01b8152600401602060405180830381865afa15801561197c573d6000803e3d6000fd5b505050506040513d601f19601f820116820180604052508101906119a09190614657565b73ffffffffffffffffffffffffffffffffffffffff166370a08231306040518263ffffffff1660e01b81526004016119d89190613f46565b602060405180830381865afa1580156119f5573d6000803e3d6000fd5b505050506040513d601f19601f82011682018060405250810190611a1991906143ac565b1015611a5a576040517f08c379a0000000000000000000000000000000000000000000000000000000008152600401611a51906150d5565b60405180910390fd5b600360008a815260200190815260200160002060009054906101000a900473ffffffffffffffffffffffffffffffffffffffff1673ffffffffffffffffffffffffffffffffffffffff16639dc29fac33876040518363ffffffff1660e01b8152600401611ac8929190614769565b600060405180830381600087803b158015611ae257600080fd5b505af1158015611af6573d6000803e3d6000fd5b505050506000600560009054906101000a900473ffffffffffffffffffffffffffffffffffffffff1673ffffffffffffffffffffffffffffffffffffffff1663b5310ff98b848c8c60008a8a8a8e336040518b63ffffffff1660e01b8152600401611b6a9a99989796959493929190614995565b6020604051808303816000875af1158015611b89573d6000803e3d6000fd5b505050506040513d601f19601f82011682018060405250810190611bad91906143ac565b9050600560009054906101000a900473ffffffffffffffffffffffffffffffffffffffff1673ffffffffffffffffffffffffffffffffffffffff1663cb4c86b76040518163ffffffff1660e01b8152600401602060405180830381865afa158015611c1c573d6000803e3d6000fd5b505050506040513d601f19601f82011682018060405250810190611c409190614657565b73ffffffffffffffffffffffffffffffffffffffff1663a9059cbb600260009054906101000a900473ffffffffffffffffffffffffffffffffffffffff16866040518363ffffffff1660e01b8152600401611c9c929190614769565b6020604051808303816000875af1158015611cbb573d6000803e3d6000fd5b505050506040513d601f19601f82011682018060405250810190611cdf91906146d0565b611d1e576040517f08c379a0000000000000000000000000000000000000000000000000000000008152600401611d15906148b6565b60405180910390fd5b600560009054906101000a900473ffffffffffffffffffffffffffffffffffffffff1673ffffffffffffffffffffffffffffffffffffffff166324b4110e82336040518363ffffffff1660e01b8152600401611d7b929190614a31565b600060405180830381600087803b158015611d9557600080fd5b505af1158015611da9573d6000803e3d6000fd5b505050503373ffffffffffffffffffffffffffffffffffffffff167f639bcb68083836b73ad6cd444bd790e8421c4b363635459fbfff715dc24fa855600560009054906101000a900473ffffffffffffffffffffffffffffffffffffffff1673ffffffffffffffffffffffffffffffffffffffff16631ce5e9a6846040518263ffffffff1660e01b8152600401611e409190613e22565b61020060405180830381865afa158015611e5e573d6000803e3d6000fd5b505050506040513d601f19601f82011682018060405250810190611e829190614cb4565b886001604051611e9493929190614eb0565b60405180910390a250505050505050505050565b7fa49807205ce4d355092ef5a8a18f56e8913cf4a201fbe287825b095693c2177581565b60008060008060008073ffffffffffffffffffffffffffffffffffffffff16600360008a815260200190815260200160002060009054906101000a900473ffffffffffffffffffffffffffffffffffffffff1673ffffffffffffffffffffffffffffffffffffffff161415611f76576040517f08c379a0000000000000000000000000000000000000000000000000000000008152600401611f6d90615141565b60405180910390fd5b600560009054906101000a900473ffffffffffffffffffffffffffffffffffffffff1673ffffffffffffffffffffffffffffffffffffffff1663b0667cf86040518163ffffffff1660e01b81526004016040805180830381865afa158015611fe2573d6000803e3d6000fd5b505050506040513d601f19601f82011682018060405250810190612006919061452a565b508091505061201a8882838a60008b612ba3565b80965081945082955050505073__MarketLibrary_________________________638170ce806120b78573__OptionLibrary_________________________63fd9b87636040518163ffffffff1660e01b8152600401602060405180830381865af415801561208d573d6000803e3d6000fd5b505050506040513d601f19601f820116820180604052508101906120b191906143ac565b8861327d565b600360008c815260200190815260200160002060009054906101000a900473ffffffffffffffffffffffffffffffffffffffff166040518363ffffffff1660e01b815260040161210892919061517f565b602060405180830381865af4158015612125573d6000803e3d6000fd5b505050506040513d601f19601f8201168201806040525081019061214991906143ac565b9450939792965093509350565b7fa49807205ce4d355092ef5a8a18f56e8913cf4a201fbe287825b095693c2177561218881612183613017565b61301f565b816006819055505050565b6000801b6121a8816121a3613017565b61301f565b81600860006101000a81548160ff0219169083151502179055505050565b600080600084815260200190815260200160002060000160008373ffffffffffffffffffffffffffffffffffffffff1673ffffffffffffffffffffffffffffffffffffffff16815260200190815260200160002060009054906101000a900460ff16905092915050565b6000801b81565b600860009054906101000a900460ff16612286576040517f08c379a000000000000000000000000000000000000000000000000000000000815260040161227d906145b6565b60405180910390fd5b6000600560009054906101000a900473ffffffffffffffffffffffffffffffffffffffff1673ffffffffffffffffffffffffffffffffffffffff1663b0667cf86040518163ffffffff1660e01b81526004016040805180830381865afa1580156122f4573d6000803e3d6000fd5b505050506040513d601f19601f82011682018060405250810190612318919061452a565b509050600080600061232e8a858b8b8b8b612ba3565b92509250925081851015612377576040517f08c379a000000000000000000000000000000000000000000000000000000000815260040161236e906151f4565b60405180910390fd5b6000600560009054906101000a900473ffffffffffffffffffffffffffffffffffffffff1673ffffffffffffffffffffffffffffffffffffffff1663b5310ff98c8c8c8c8c8a8a8d8b336040518b63ffffffff1660e01b81526004016123e69a99989796959493929190614995565b6020604051808303816000875af1158015612405573d6000803e3d6000fd5b505050506040513d601f19601f8201168201806040525081019061242991906143ac565b9050600560009054906101000a900473ffffffffffffffffffffffffffffffffffffffff1673ffffffffffffffffffffffffffffffffffffffff1663cb4c86b76040518163ffffffff1660e01b8152600401602060405180830381865afa158015612498573d6000803e3d6000fd5b505050506040513d601f19601f820116820180604052508101906124bc9190614657565b73ffffffffffffffffffffffffffffffffffffffff166323b872dd33600260009054906101000a900473ffffffffffffffffffffffffffffffffffffffff16896040518463ffffffff1660e01b815260040161251a93929190614684565b6020604051808303816000875af1158015612539573d6000803e3d6000fd5b505050506040513d601f19601f8201168201806040525081019061255d91906146d0565b61259c576040517f08c379a000000000000000000000000000000000000000000000000000000000815260040161259390615260565b60405180910390fd5b600560009054906101000a900473ffffffffffffffffffffffffffffffffffffffff1673ffffffffffffffffffffffffffffffffffffffff166324b4110e82336040518363ffffffff1660e01b81526004016125f9929190614a31565b600060405180830381600087803b15801561261357600080fd5b505af1158015612627573d6000803e3d6000fd5b505050503373ffffffffffffffffffffffffffffffffffffffff167f639bcb68083836b73ad6cd444bd790e8421c4b363635459fbfff715dc24fa855600560009054906101000a900473ffffffffffffffffffffffffffffffffffffffff1673ffffffffffffffffffffffffffffffffffffffff16631ce5e9a6846040518263ffffffff1660e01b81526004016126be9190613e22565b61020060405180830381865afa1580156126dc573d6000803e3d6000fd5b505050506040513d601f19601f820116820180604052508101906127009190614cb4565b88600060405161271293929190614eb0565b60405180910390a25050505050505050505050565b60075481565b600260009054906101000a900473ffffffffffffffffffffffffffffffffffffffff1681565b61275c826109b8565b61276d81612768613017565b61301f565b612777838361319c565b505050565b600860009054906101000a900460ff166127cb576040517f08c379a00000000000000000000000000000000000000000000000000000000081526004016127c2906145b6565b60405180910390fd5b6000806127da85856001611ecc565b5050925050915081831015612824576040517f08c379a000000000000000000000000000000000000000000000000000000000815260040161281b90614622565b60405180910390fd5b80600560009054906101000a900473ffffffffffffffffffffffffffffffffffffffff1673ffffffffffffffffffffffffffffffffffffffff1663cb4c86b76040518163ffffffff1660e01b8152600401602060405180830381865afa158015612892573d6000803e3d6000fd5b505050506040513d601f19601f820116820180604052508101906128b69190614657565b73ffffffffffffffffffffffffffffffffffffffff166370a08231306040518263ffffffff1660e01b81526004016128ee9190613f46565b602060405180830381865afa15801561290b573d6000803e3d6000fd5b505050506040513d601f19601f8201168201806040525081019061292f91906143ac565b1015612970576040517f08c379a0000000000000000000000000000000000000000000000000000000008152600401612967906150d5565b60405180910390fd5b6003600086815260200190815260200160002060009054906101000a900473ffffffffffffffffffffffffffffffffffffffff1673ffffffffffffffffffffffffffffffffffffffff16639dc29fac33846040518363ffffffff1660e01b81526004016129de929190614769565b600060405180830381600087803b1580156129f857600080fd5b505af1158015612a0c573d6000803e3d6000fd5b50505050600560009054906101000a900473ffffffffffffffffffffffffffffffffffffffff1673ffffffffffffffffffffffffffffffffffffffff1663cb4c86b76040518163ffffffff1660e01b8152600401602060405180830381865afa158015612a7d573d6000803e3d6000fd5b505050506040513d601f19601f82011682018060405250810190612aa19190614657565b73ffffffffffffffffffffffffffffffffffffffff1663a9059cbb33836040518363ffffffff1660e01b8152600401612adb929190614769565b6020604051808303816000875af1158015612afa573d6000803e3d6000fd5b505050506040513d601f19601f82011682018060405250810190612b1e91906146d0565b612b5d576040517f08c379a0000000000000000000000000000000000000000000000000000000008152600401612b54906148b6565b60405180910390fd5b7f78dd81a4822884ab6551f5b2dd2a9718e78d150f1a178a3a5bdf9ed45d81c1c83342878585604051612b94959493929190614792565b60405180910390a15050505050565b6000806000612bb48988888761155a565b9050600073__OptionLibrary_________________________634ea26ca4898888600460009054906101000a900473ffffffffffffffffffffffffffffffffffffffff1673ffffffffffffffffffffffffffffffffffffffff16631aedeabe6040518163ffffffff1660e01b8152600401602060405180830381865afa158015612c42573d6000803e3d6000fd5b505050506040513d601f19601f82011682018060405250810190612c6691906143ac565b6007546040518663ffffffff1660e01b8152600401612c8995949392919061529e565b602060405180830381865af4158015612ca6573d6000803e3d6000fd5b505050506040513d601f19601f82011682018060405250810190612cca91906143ac565b905073__OptionLibrary_________________________6390829f918a838a868b8b6040518763ffffffff1660e01b8152600401612d0d969594939291906152f1565b6040805180830381865af4158015612d29573d6000803e3d6000fd5b505050506040513d601f19601f82011682018060405250810190612d4d919061452a565b809450819550505073__MarketLibrary_________________________638170ce8085600560009054906101000a900473ffffffffffffffffffffffffffffffffffffffff1673ffffffffffffffffffffffffffffffffffffffff1663cb4c86b76040518163ffffffff1660e01b8152600401602060405180830381865afa158015612ddd573d6000803e3d6000fd5b505050506040513d601f19601f82011682018060405250810190612e019190614657565b6040518363ffffffff1660e01b8152600401612e1e92919061517f565b602060405180830381865af4158015612e3b573d6000803e3d6000fd5b505050506040513d601f19601f82011682018060405250810190612e5f91906143ac565b935073__MarketLibrary_________________________638170ce8084600560009054906101000a900473ffffffffffffffffffffffffffffffffffffffff1673ffffffffffffffffffffffffffffffffffffffff1663cb4c86b76040518163ffffffff1660e01b8152600401602060405180830381865afa158015612ee9573d6000803e3d6000fd5b505050506040513d601f19601f82011682018060405250810190612f0d9190614657565b6040518363ffffffff1660e01b8152600401612f2a92919061517f565b602060405180830381865af4158015612f47573d6000803e3d6000fd5b505050506040513d601f19601f82011682018060405250810190612f6b91906143ac565b92505096509650969350505050565b60036020528060005260406000206000915054906101000a900473ffffffffffffffffffffffffffffffffffffffff1681565b60007f01ffc9a7000000000000000000000000000000000000000000000000000000007bffffffffffffffffffffffffffffffffffffffffffffffffffffffff1916827bffffffffffffffffffffffffffffffffffffffffffffffffffffffff1916149050919050565b600033905090565b61302982826121c6565b6130b85761304e8173ffffffffffffffffffffffffffffffffffffffff16601461374e565b61305c8360001c602061374e565b60405160200161306d929190615464565b6040516020818303038152906040526040517f08c379a00000000000000000000000000000000000000000000000000000000081526004016130af91906154d7565b60405180910390fd5b5050565b6130c682826121c6565b61319857600160008084815260200190815260200160002060000160008373ffffffffffffffffffffffffffffffffffffffff1673ffffffffffffffffffffffffffffffffffffffff16815260200190815260200160002060006101000a81548160ff02191690831515021790555061313d613017565b73ffffffffffffffffffffffffffffffffffffffff168173ffffffffffffffffffffffffffffffffffffffff16837f2f8788117e7eff1d82e926ec794901d17c78024a50270940304540a733656f0d60405160405180910390a45b5050565b6131a682826121c6565b1561327957600080600084815260200190815260200160002060000160008373ffffffffffffffffffffffffffffffffffffffff1673ffffffffffffffffffffffffffffffffffffffff16815260200190815260200160002060006101000a81548160ff02191690831515021790555061321e613017565b73ffffffffffffffffffffffffffffffffffffffff168173ffffffffffffffffffffffffffffffffffffffff16837ff6391f5c32d9c69d2a47ea670b442974b53935d1edc7fd64eb21e047a839171b60405160405180910390a45b5050565b6000806000801985870985870292508281108382030391505060008114156132b857600084116132ac57600080fd5b83820492505050613372565b8084116132c457600080fd5b60008486880990508281118203915080830392506000856001877fffffffffffffffffffffffffffffffffffffffffffffffffffffffffffffffff0301169050808604955080840493506001818260000304019050808302841793506000600287600302189050808702600203810290508087026002038102905080870260020381029050808702600203810290508087026002038102905080870260020381029050808502955050505050505b9392505050565b6000806134a073__OptionLibrary_________________________639932b2be898a8a6040518463ffffffff1660e01b81526004016133ba939291906154f9565b602060405180830381865af41580156133d7573d6000803e3d6000fd5b505050506040513d601f19601f820116820180604052508101906133fb91906143ac565b600460009054906101000a900473ffffffffffffffffffffffffffffffffffffffff1673ffffffffffffffffffffffffffffffffffffffff1663634479026000806040518363ffffffff1660e01b8152600401613459929190614eea565b602060405180830381865afa158015613476573d6000803e3d6000fd5b505050506040513d601f19601f8201168201806040525081019061349a91906143ac565b8961327d565b90506000600560009054906101000a900473ffffffffffffffffffffffffffffffffffffffff1673ffffffffffffffffffffffffffffffffffffffff16636fe440316040518163ffffffff1660e01b8152600401602060405180830381865afa158015613511573d6000803e3d6000fd5b505050506040513d601f19601f82011682018060405250810190613535919061555c565b9050600060018081111561354c5761354b6148d6565b5b85600181111561355f5761355e6148d6565b5b1461356b57600161358d565b7fffffffffffffffffffffffffffffffffffffffffffffffffffffffffffffffff5b61367f73__OptionLibrary_________________________639932b2be8c8b8d6040518463ffffffff1660e01b81526004016135cb939291906154f9565b602060405180830381865af41580156135e8573d6000803e3d6000fd5b505050506040513d601f19601f8201168201806040525081019061360c91906143ac565b8873__OptionLibrary_________________________63fd9b87636040518163ffffffff1660e01b8152600401602060405180830381865af4158015613656573d6000803e3d6000fd5b505050506040513d601f19601f8201168201806040525081019061367a91906143ac565b61327d565b6136899190615589565b826136949190614f89565b905060006137118960065473__OptionLibrary_________________________63fd9b87636040518163ffffffff1660e01b8152600401602060405180830381865af41580156136e8573d6000803e3d6000fd5b505050506040513d601f19601f8201168201806040525081019061370c91906143ac565b61327d565b9050600261372085848461398a565b61372b86868561398a565b6137359190614f89565b61373f91906156cf565b94505050505095945050505050565b6060600060028360026137619190615739565b61376b9190614814565b67ffffffffffffffff81111561378457613783614a70565b5b6040519080825280601f01601f1916602001820160405280156137b65781602001600182028036833780820191505090505b5090507f3000000000000000000000000000000000000000000000000000000000000000816000815181106137ee576137ed615793565b5b60200101907effffffffffffffffffffffffffffffffffffffffffffffffffffffffffffff1916908160001a9053507f78000000000000000000000000000000000000000000000000000000000000008160018151811061385257613851615793565b5b60200101907effffffffffffffffffffffffffffffffffffffffffffffffffffffffffffff1916908160001a905350600060018460026138929190615739565b61389c9190614814565b90505b600181111561393c577f3031323334353637383961626364656600000000000000000000000000000000600f8616601081106138de576138dd615793565b5b1a60f81b8282815181106138f5576138f4615793565b5b60200101907effffffffffffffffffffffffffffffffffffffffffffffffffffffffffffff1916908160001a905350600485901c945080613935906157c2565b905061389f565b5060008414613980576040517f08c379a000000000000000000000000000000000000000000000000000000000815260040161397790615838565b60405180910390fd5b8091505092915050565b60008073__OptionLibrary_________________________63fd9b87636040518163ffffffff1660e01b8152600401602060405180830381865af41580156139d6573d6000803e3d6000fd5b505050506040513d601f19601f820116820180604052508101906139fa91906143ac565b90506000841215613a9357613a8584613a1290615858565b73__OptionLibrary_________________________63fd9b87636040518163ffffffff1660e01b8152600401602060405180830381865af4158015613a5b573d6000803e3d6000fd5b505050506040513d601f19601f82011682018060405250810190613a7f91906143ac565b8761327d565b81613a909190614f89565b90505b6000841315613b2157613b138473__OptionLibrary_________________________63fd9b87636040518163ffffffff1660e01b8152600401602060405180830381865af4158015613ae9573d6000803e3d6000fd5b505050506040513d601f19601f82011682018060405250810190613b0d91906143ac565b8761327d565b81613b1e91906158a1565b90505b60008112158015613baa575073__OptionLibrary_________________________63fd9b87636040518163ffffffff1660e01b8152600401602060405180830381865af4158015613b76573d6000803e3d6000fd5b505050506040513d601f19601f82011682018060405250810190613b9a91906143ac565b6002613ba69190615739565b8113155b613be9576040517f08c379a0000000000000000000000000000000000000000000000000000000008152600401613be090615981565b60405180910390fd5b82613c618473__OptionLibrary_________________________63fd9b87636040518163ffffffff1660e01b8152600401602060405180830381865af4158015613c37573d6000803e3d6000fd5b505050506040513d601f19601f82011682018060405250810190613c5b91906143ac565b8461327d565b613c6b91906158a1565b9150509392505050565b6000604051905090565b600080fd5b60007fffffffff0000000000000000000000000000000000000000000000000000000082169050919050565b613cb981613c84565b8114613cc457600080fd5b50565b600081359050613cd681613cb0565b92915050565b600060208284031215613cf257613cf1613c7f565b5b6000613d0084828501613cc7565b91505092915050565b60008115159050919050565b613d1e81613d09565b82525050565b6000602082019050613d396000830184613d15565b92915050565b6000819050919050565b613d5281613d3f565b8114613d5d57600080fd5b50565b600081359050613d6f81613d49565b92915050565b600073ffffffffffffffffffffffffffffffffffffffff82169050919050565b6000613da082613d75565b9050919050565b613db081613d95565b8114613dbb57600080fd5b50565b600081359050613dcd81613da7565b92915050565b60008060408385031215613dea57613de9613c7f565b5b6000613df885828601613d60565b9250506020613e0985828601613dbe565b9150509250929050565b613e1c81613d3f565b82525050565b6000602082019050613e376000830184613e13565b92915050565b600060208284031215613e5357613e52613c7f565b5b6000613e6184828501613d60565b91505092915050565b6000819050919050565b613e7d81613e6a565b8114613e8857600080fd5b50565b600081359050613e9a81613e74565b92915050565b600060208284031215613eb657613eb5613c7f565b5b6000613ec484828501613e8b565b91505092915050565b613ed681613e6a565b82525050565b6000602082019050613ef16000830184613ecd565b92915050565b60008060408385031215613f0e57613f0d613c7f565b5b6000613f1c85828601613e8b565b9250506020613f2d85828601613dbe565b9150509250929050565b613f4081613d95565b82525050565b6000602082019050613f5b6000830184613f37565b92915050565b600080600060608486031215613f7a57613f79613c7f565b5b6000613f8886828701613d60565b9350506020613f9986828701613d60565b9250506040613faa86828701613d60565b9150509250925092565b60028110613fc157600080fd5b50565b600081359050613fd381613fb4565b92915050565b60008060008060808587031215613ff357613ff2613c7f565b5b600061400187828801613d60565b945050602061401287828801613d60565b935050604061402387828801613fc4565b925050606061403487828801613d60565b91505092959194509250565b6002811061404d57600080fd5b50565b60008135905061405f81614040565b92915050565b600080600080600060a0868803121561408157614080613c7f565b5b600061408f88828901613d60565b95505060206140a088828901613d60565b94505060406140b188828901613d60565b93505060606140c288828901613fc4565b92505060806140d388828901614050565b9150509295509295909350565b60006060820190506140f56000830186613e13565b6141026020830185613e13565b61410f6040830184613e13565b949350505050565b6000806000806080858703121561413157614130613c7f565b5b600061413f87828801613d60565b945050602061415087828801613d60565b935050604061416187828801613d60565b925050606061417287828801614050565b91505092959194509250565b60008060006060848603121561419757614196613c7f565b5b60006141a586828701613d60565b93505060206141b686828701613d60565b92505060406141c786828701614050565b9150509250925092565b600060a0820190506141e66000830188613e13565b6141f36020830187613e13565b6142006040830186613e13565b61420d6060830185613e13565b61421a6080830184613e13565b9695505050505050565b61422d81613d09565b811461423857600080fd5b50565b60008135905061424a81614224565b92915050565b60006020828403121561426657614265613c7f565b5b60006142748482850161423b565b91505092915050565b60008060008060008060c0878903121561429a57614299613c7f565b5b60006142a889828a01613d60565b96505060206142b989828a01613d60565b95505060406142ca89828a01613d60565b94505060606142db89828a01613fc4565b93505060806142ec89828a01614050565b92505060a06142fd89828a01613d60565b9150509295509295509295565b60008060008060008060c0878903121561432757614326613c7f565b5b600061433589828a01613d60565b965050602061434689828a01613d60565b955050604061435789828a01613d60565b945050606061436889828a01613d60565b935050608061437989828a01613fc4565b92505060a061438a89828a01614050565b9150509295509295509295565b6000815190506143a681613d49565b92915050565b6000602082840312156143c2576143c1613c7f565b5b60006143d084828501614397565b91505092915050565b6000815190506143e881613e74565b92915050565b60006020828403121561440457614403613c7f565b5b6000614412848285016143d9565b91505092915050565b600082825260208201905092915050565b7f6d69736d61746368656420746f6b656e20616464726573730000000000000000600082015250565b600061446260188361441b565b915061446d8261442c565b602082019050919050565b6000602082019050818103600083015261449181614455565b9050919050565b7f416363657373436f6e74726f6c3a2063616e206f6e6c792072656e6f756e636560008201527f20726f6c657320666f722073656c660000000000000000000000000000000000602082015250565b60006144f4602f8361441b565b91506144ff82614498565b604082019050919050565b60006020820190508181036000830152614523816144e7565b9050919050565b6000806040838503121561454157614540613c7f565b5b600061454f85828601614397565b925050602061456085828601614397565b9150509250929050565b7f54726164696e672073746f707065642100000000000000000000000000000000600082015250565b60006145a060108361441b565b91506145ab8261456a565b602082019050919050565b600060208201905081810360008301526145cf81614593565b9050919050565b7f436f737420696e636f7272656374000000000000000000000000000000000000600082015250565b600061460c600e8361441b565b9150614617826145d6565b602082019050919050565b6000602082019050818103600083015261463b816145ff565b9050919050565b60008151905061465181613da7565b92915050565b60006020828403121561466d5761466c613c7f565b5b600061467b84828501614642565b91505092915050565b60006060820190506146996000830186613f37565b6146a66020830185613f37565b6146b36040830184613e13565b949350505050565b6000815190506146ca81614224565b92915050565b6000602082840312156146e6576146e5613c7f565b5b60006146f4848285016146bb565b91505092915050565b7f766f6c207061796d656e74206572726f72000000000000000000000000000000600082015250565b600061473360118361441b565b915061473e826146fd565b602082019050919050565b6000602082019050818103600083015261476281614726565b9050919050565b600060408201905061477e6000830185613f37565b61478b6020830184613e13565b9392505050565b600060a0820190506147a76000830188613f37565b6147b46020830187613e13565b6147c16040830186613e13565b6147ce6060830185613e13565b6147db6080830184613e13565b9695505050505050565b7f4e487b7100000000000000000000000000000000000000000000000000000000600052601160045260246000fd5b600061481f82613d3f565b915061482a83613d3f565b9250827fffffffffffffffffffffffffffffffffffffffffffffffffffffffffffffffff0382111561485f5761485e6147e5565b5b828201905092915050565b7f7061796d656e74206572726f7200000000000000000000000000000000000000600082015250565b60006148a0600d8361441b565b91506148ab8261486a565b602082019050919050565b600060208201905081810360008301526148cf81614893565b9050919050565b7f4e487b7100000000000000000000000000000000000000000000000000000000600052602160045260246000fd5b60028110614916576149156148d6565b5b50565b600081905061492782614905565b919050565b600061493782614919565b9050919050565b6149478161492c565b82525050565b6002811061495e5761495d6148d6565b5b50565b600081905061496f8261494d565b919050565b600061497f82614961565b9050919050565b61498f81614974565b82525050565b6000610140820190506149ab600083018d613e13565b6149b8602083018c613e13565b6149c5604083018b613e13565b6149d2606083018a61493e565b6149df6080830189614986565b6149ec60a0830188613e13565b6149f960c0830187613e13565b614a0660e0830186613e13565b614a14610100830185613e13565b614a22610120830184613f37565b9b9a5050505050505050505050565b6000604082019050614a466000830185613e13565b614a536020830184613f37565b9392505050565b600080fd5b6000601f19601f8301169050919050565b7f4e487b7100000000000000000000000000000000000000000000000000000000600052604160045260246000fd5b614aa882614a5f565b810181811067ffffffffffffffff82111715614ac757614ac6614a70565b5b80604052505050565b6000614ada613c75565b9050614ae68282614a9f565b919050565b600081519050614afa81613fb4565b92915050565b600081519050614b0f81614040565b92915050565b60048110614b2257600080fd5b50565b600081519050614b3481614b15565b92915050565b60006102008284031215614b5157614b50614a5a565b5b614b5c610200614ad0565b90506000614b6c84828501614aeb565b6000830152506020614b8084828501614b00565b6020830152506040614b9484828501614b25565b6040830152506060614ba884828501614642565b6060830152506080614bbc84828501614397565b60808301525060a0614bd084828501614397565b60a08301525060c0614be484828501614397565b60c08301525060e0614bf884828501614397565b60e083015250610100614c0d84828501614397565b61010083015250610120614c2384828501614397565b61012083015250610140614c3984828501614397565b61014083015250610160614c4f84828501614397565b61016083015250610180614c6584828501614397565b610180830152506101a0614c7b84828501614397565b6101a0830152506101c0614c9184828501614397565b6101c0830152506101e0614ca784828501614397565b6101e08301525092915050565b60006102008284031215614ccb57614cca613c7f565b5b6000614cd984828501614b3a565b91505092915050565b614ceb8161492c565b82525050565b614cfa81614974565b82525050565b60048110614d1157614d106148d6565b5b50565b6000819050614d2282614d00565b919050565b6000614d3282614d14565b9050919050565b614d4281614d27565b82525050565b614d5181613d95565b82525050565b614d6081613d3f565b82525050565b61020082016000820151614d7d6000850182614ce2565b506020820151614d906020850182614cf1565b506040820151614da36040850182614d39565b506060820151614db66060850182614d48565b506080820151614dc96080850182614d57565b5060a0820151614ddc60a0850182614d57565b5060c0820151614def60c0850182614d57565b5060e0820151614e0260e0850182614d57565b50610100820151614e17610100850182614d57565b50610120820151614e2c610120850182614d57565b50610140820151614e41610140850182614d57565b50610160820151614e56610160850182614d57565b50610180820151614e6b610180850182614d57565b506101a0820151614e806101a0850182614d57565b506101c0820151614e956101c0850182614d57565b506101e0820151614eaa6101e0850182614d57565b50505050565b600061024082019050614ec66000830186614d66565b614ed4610200830185613e13565b614ee2610220830184613d15565b949350505050565b6000604082019050614eff6000830185613d15565b614f0c6020830184613d15565b9392505050565b7f696e73756666696369656e74206361706974616c000000000000000000000000600082015250565b6000614f4960148361441b565b9150614f5482614f13565b602082019050919050565b60006020820190508181036000830152614f7881614f3c565b9050919050565b6000819050919050565b6000614f9482614f7f565b9150614f9f83614f7f565b9250817f7fffffffffffffffffffffffffffffffffffffffffffffffffffffffffffffff03831360008312151615614fda57614fd96147e5565b5b817f8000000000000000000000000000000000000000000000000000000000000000038312600083121615615012576150116147e5565b5b828201905092915050565b7f496e636f727265637420766f6c207072656d69756d0000000000000000000000600082015250565b600061505360158361441b565b915061505e8261501d565b602082019050919050565b6000602082019050818103600083015261508281615046565b9050919050565b7f696e73756666696369656e74207573646320696e2065786368616e67652e0000600082015250565b60006150bf601e8361441b565b91506150ca82615089565b602082019050919050565b600060208201905081810360008301526150ee816150b2565b9050919050565b7f54656e6f72206973206e6f742073657400000000000000000000000000000000600082015250565b600061512b60108361441b565b9150615136826150f5565b602082019050919050565b6000602082019050818103600083015261515a8161511e565b9050919050565b61516a81613d3f565b82525050565b61517981613d95565b82525050565b60006040820190506151946000830185615161565b6151a16020830184615170565b9392505050565b7f496e636f727265637420636f737420706169642e000000000000000000000000600082015250565b60006151de60148361441b565b91506151e9826151a8565b602082019050919050565b6000602082019050818103600083015261520d816151d1565b9050919050565b7f4661696c6564207061796d656e742e0000000000000000000000000000000000600082015250565b600061524a600f8361441b565b915061525582615214565b602082019050919050565b600060208201905081810360008301526152798161523d565b9050919050565b6152898161492c565b82525050565b61529881614974565b82525050565b600060a0820190506152b36000830188615161565b6152c06020830187615280565b6152cd604083018661528f565b6152da6060830185615161565b6152e76080830184615161565b9695505050505050565b600060c0820190506153066000830189615161565b6153136020830188615161565b6153206040830187615161565b61532d6060830186615161565b61533a6080830185615280565b61534760a083018461528f565b979650505050505050565b600081905092915050565b7f416363657373436f6e74726f6c3a206163636f756e7420000000000000000000600082015250565b6000615393601783615352565b915061539e8261535d565b601782019050919050565b600081519050919050565b60005b838110156153d25780820151818401526020810190506153b7565b838111156153e1576000848401525b50505050565b60006153f2826153a9565b6153fc8185615352565b935061540c8185602086016153b4565b80840191505092915050565b7f206973206d697373696e6720726f6c6520000000000000000000000000000000600082015250565b600061544e601183615352565b915061545982615418565b601182019050919050565b600061546f82615386565b915061547b82856153e7565b915061548682615441565b915061549282846153e7565b91508190509392505050565b60006154a9826153a9565b6154b3818561441b565b93506154c38185602086016153b4565b6154cc81614a5f565b840191505092915050565b600060208201905081810360008301526154f1818461549e565b905092915050565b600060608201905061550e6000830186615161565b61551b6020830185615161565b6155286040830184615161565b949350505050565b61553981614f7f565b811461554457600080fd5b50565b60008151905061555681615530565b92915050565b60006020828403121561557257615571613c7f565b5b600061558084828501615547565b91505092915050565b600061559482614f7f565b915061559f83614f7f565b9250827f7fffffffffffffffffffffffffffffffffffffffffffffffffffffffffffffff04821160008413600084131616156155de576155dd6147e5565b5b817f8000000000000000000000000000000000000000000000000000000000000000058312600084126000841316161561561b5761561a6147e5565b5b827f80000000000000000000000000000000000000000000000000000000000000000582126000841360008412161615615658576156576147e5565b5b827f7fffffffffffffffffffffffffffffffffffffffffffffffffffffffffffffff0582126000841260008412161615615695576156946147e5565b5b828202905092915050565b7f4e487b7100000000000000000000000000000000000000000000000000000000600052601260045260246000fd5b60006156da82614f7f565b91506156e583614f7f565b9250826156f5576156f46156a0565b5b600160000383147f80000000000000000000000000000000000000000000000000000000000000008314161561572e5761572d6147e5565b5b828205905092915050565b600061574482613d3f565b915061574f83613d3f565b9250817fffffffffffffffffffffffffffffffffffffffffffffffffffffffffffffffff0483118215151615615788576157876147e5565b5b828202905092915050565b7f4e487b7100000000000000000000000000000000000000000000000000000000600052603260045260246000fd5b60006157cd82613d3f565b915060008214156157e1576157e06147e5565b5b600182039050919050565b7f537472696e67733a20686578206c656e67746820696e73756666696369656e74600082015250565b600061582260208361441b565b915061582d826157ec565b602082019050919050565b6000602082019050818103600083015261585181615815565b9050919050565b600061586382614f7f565b91507f8000000000000000000000000000000000000000000000000000000000000000821415615896576158956147e5565b5b816000039050919050565b60006158ac82614f7f565b91506158b783614f7f565b9250827f8000000000000000000000000000000000000000000000000000000000000000018212600084121516156158f2576158f16147e5565b5b827f7fffffffffffffffffffffffffffffffffffffffffffffffffffffffffffffff01821360008412161561592a576159296147e5565b5b828203905092915050565b7f43617061636974792062726561636865642e0000000000000000000000000000600082015250565b600061596b60128361441b565b915061597682615935565b602082019050919050565b6000602082019050818103600083015261599a8161595e565b905091905056fea26469706673582212201b6030e7e1a69b2cee9b5ad85b6c1a8a35461538b43137f101d4bb681b60f73264736f6c634300080a0033",
  "immutableReferences": {},
  "source": "// SPDX-License-Identifier: MIT\npragma solidity 0.8.10;\n\nimport \"@openzeppelin/contracts/token/ERC20/ERC20.sol\";\nimport \"@openzeppelin/contracts/access/AccessControl.sol\";\nimport \"@openzeppelin/contracts/utils/structs/EnumerableSet.sol\";\nimport \"./MoretInterfaces.sol\";\nimport \"./VolatilityToken.sol\";\nimport \"./MoretMarketMaker.sol\";\n\ncontract Exchange is AccessControl, EOption{\n  bytes32 public constant ADMIN_ROLE = keccak256(\"ADMIN_ROLE\");\n  address public vaultAddress;\n  address public marketMakerAddress;\n  mapping(uint256=>address) public volTokenAddressList;\n\n  MoretMarketMaker internal marketMaker;\n  OptionVault internal optionVault;\n\n  uint256 public volRiskPremiumMaxRatio= 18 * (10 ** 17);\n  uint256 public loanInterest = 0;\n  bool public allowTrading = true;\n\n  constructor( address _marketMakerAddress,address _vaultAddress){\n    _setupRole(DEFAULT_ADMIN_ROLE, msg.sender);\n    _setupRole(ADMIN_ROLE, msg.sender);\n    vaultAddress = _vaultAddress;\n    optionVault = OptionVault(_vaultAddress);\n    marketMakerAddress = _marketMakerAddress;\n    marketMaker = MoretMarketMaker(_marketMakerAddress);}\n\n  function calcCost(uint256 _tenor, uint256 _strike, uint256 _amount, OptionLibrary.PayoffType _poType, OptionLibrary.OptionSide _side) public view returns(uint256 , uint256 , uint256 ){\n    (uint256 _price,) = optionVault.queryPrice();\n    return calcOptionCost(_tenor, _price, _strike, _amount, _poType, _side);}\n\n  function calcOptionCost(uint256 _tenor, uint256 _price, uint256 _strike, uint256 _amount, OptionLibrary.PayoffType _poType, OptionLibrary.OptionSide _side) public view returns(uint256 _premium, uint256 _cost, uint256 _vol){\n    _vol = queryOptionVolatility(_tenor, _strike, _amount, _side);\n    uint256 _adjustedStrike = OptionLibrary.adjustStrike(_strike, _poType, _side, marketMaker.swapSlippage(), loanInterest); \n    (_premium, _cost) = OptionLibrary.calcOptionCost(_price, _adjustedStrike, _amount, _vol, _poType, _side);\n    _premium = MarketLibrary.cvtDecimals(_premium, optionVault.funding());\n    _cost = MarketLibrary.cvtDecimals(_cost, optionVault.funding());}\n\n  function queryOptionVolatility(uint256 _tenor, uint256 _strike, uint256 _amount, OptionLibrary.OptionSide _side) public view returns(uint256 _vol){  \n    _vol = optionVault.queryVol(_tenor); // running vol\n    (uint256 _price,) = optionVault.queryPrice();\n    require(MulDiv(_amount, _price, OptionLibrary.Multiplier())<=marketMaker.calcCapital(true,false),'insufficient capital');\n    int256 _riskPremium = calcRiskPremium(_price, _vol, _strike, _amount, _side);\n    require((int256(_vol)+_riskPremium) > 0,\"Incorrect vol premium\");\n    _vol = uint256(int256(_vol)+_riskPremium);}\n\n  function calcRiskPremium(uint256 _price, uint256 _vol, uint256 _strike, uint256 _amount,OptionLibrary.OptionSide _side) internal view returns(int256) {\n    uint256 _maxGamma = MulDiv(OptionLibrary.calcGamma(_price, _price, _vol), marketMaker.calcCapital(false, false), _price);\n    int256 _currentGamma = optionVault.calculateAggregateGamma(); // include sells.\n    int256 _newGamma = _currentGamma + int256(MulDiv(OptionLibrary.calcGamma(_price, _strike, _vol), _amount, OptionLibrary.Multiplier() )) * (_side==OptionLibrary.OptionSide.Sell? -1: int(1));\n    uint256 _K = MulDiv(_vol, volRiskPremiumMaxRatio, OptionLibrary.Multiplier());\n    return (calcRiskPremiumAMM(_maxGamma, _currentGamma,  _K) + calcRiskPremiumAMM(_maxGamma, _newGamma, _K)) / 2;}\n\n  function calcRiskPremiumAMM(uint256 _max, int256 _input, uint256 _constant) internal pure returns(int256) {\n    int256 _capacity = int256(OptionLibrary.Multiplier()); // capacity should be in (0,2)\n    if(_input < 0){_capacity +=  int256(MulDiv(uint256(-_input), OptionLibrary.Multiplier(), _max));}\n    if(_input > 0){ _capacity -= int256(MulDiv(uint256(_input) , OptionLibrary.Multiplier(), _max));}\n    require((_capacity>=0) && (_capacity <= int256(2 * OptionLibrary.Multiplier())),\"Capacity breached.\");\n    return int256(MulDiv(_constant, OptionLibrary.Multiplier(), uint256(_capacity))) - int256(_constant);}\n\n  function purchaseOption(uint256 _tenor, uint256 _strike, uint256 _amount, OptionLibrary.PayoffType _poType, OptionLibrary.OptionSide _side, uint256 _payInCost) external {\n    require(allowTrading,\"Trading stopped!\");\n    (uint256 _price, ) = optionVault.queryPrice();\n    (uint256 _premium, uint256 _cost, uint256 _vol) = calcOptionCost(_tenor, _price, _strike, _amount, _poType, _side );      \n    require(_payInCost >= _cost, \"Incorrect cost paid.\");\n    uint256 _id = optionVault.addOption(_tenor, _strike, _amount, _poType, _side, _premium, _cost, _price, _vol, msg.sender);\n    require(ERC20(optionVault.funding()).transferFrom(msg.sender, marketMakerAddress, _payInCost), 'Failed payment.');  \n    optionVault.stampActiveOption(_id, msg.sender);\n    emit newOptionBought(msg.sender, optionVault.getOption(_id), _payInCost, false);}\n\n  function getOptionPayoffValue(uint256 _id) external view returns(uint256 _payback){\n    (,_payback) = optionVault.getContractPayoff(_id);}\n\n  function calcVolAmount(uint256 _tenor, uint256 _amount, OptionLibrary.OptionSide _side) public view returns(uint256 _volAmount, uint256 _vol, uint256 _premium, uint256 _cost, uint256 _price){\n    require(volTokenAddressList[_tenor]!=address(0), \"Tenor is not set\");\n    (_price, ) = optionVault.queryPrice();\n    (_premium, _cost, _vol) = calcOptionCost(_tenor, _price, _price, _amount, OptionLibrary.PayoffType.Call, _side); \n    _volAmount = MarketLibrary.cvtDecimals(MulDiv(_premium, OptionLibrary.Multiplier(), _vol), volTokenAddressList[_tenor]);}\n\n  function buyVol(uint256 _tenor, uint256 _amount, uint256 _payInCost) external {\n    require(allowTrading,\"Trading stopped!\");\n    (uint256 _volAmount, , uint256 _premium, , ) = calcVolAmount(_tenor, _amount, OptionLibrary.OptionSide.Buy);\n    require(_payInCost >= _premium, \"Cost incorrect\");\n    require(ERC20(optionVault.funding()).transferFrom(msg.sender, address(this), _premium), \"vol payment error\");\n    VolatilityToken(volTokenAddressList[_tenor]).mint(msg.sender, _volAmount);\n    emit volatilityTokenBought(msg.sender, block.timestamp, _tenor, _volAmount, _premium);}\n  \n  function sellVol(uint256 _tenor, uint256 _amount, uint256 _payInVol) external {\n    require(allowTrading,\"Trading stopped!\");\n    (uint256 _volAmount,  ,  uint256 _premium,  ,  ) = calcVolAmount(_tenor, _amount, OptionLibrary.OptionSide.Sell);\n    require(_payInVol >= _volAmount, \"Cost incorrect\");\n    require(ERC20(optionVault.funding()).balanceOf(address(this))>=_premium, \"insufficient usdc in exchange.\");\n\n    VolatilityToken(volTokenAddressList[_tenor]).burn(msg.sender, _volAmount);\n    require(ERC20(optionVault.funding()).transfer(msg.sender, _premium), \"payment error\");\n    emit volatilityTokenSold(msg.sender, block.timestamp, _tenor, _volAmount, _premium);}  \n\n  function buyOptionInVol(uint256 _tenor, uint256 _amount, OptionLibrary.PayoffType _poType, uint256 _payInVol) external {\n    require(allowTrading,\"Trading stopped!\");\n    (uint256 _volAmount, uint256 _vol, uint256 _premium, uint256 _cost, uint256 _price) = calcVolAmount(_tenor, _amount, OptionLibrary.OptionSide.Buy);\n    require(_payInVol >= _volAmount, \"Cost incorrect\");\n    require(ERC20(optionVault.funding()).balanceOf(address(this))>=_premium, \"insufficient usdc in exchange.\");\n\n    VolatilityToken(volTokenAddressList[_tenor]).burn(msg.sender, _volAmount);\n    uint256 _id = optionVault.addOption(_tenor, _price, _amount, _poType, OptionLibrary.OptionSide.Buy, _premium, _cost, _price, _vol, msg.sender);\n    require(ERC20(optionVault.funding()).transfer(marketMakerAddress, _premium), 'payment error');  \n    optionVault.stampActiveOption(_id, msg.sender);\n    emit newOptionBought(msg.sender, optionVault.getOption(_id), _volAmount, true);}\n\n  function sellOptionInVol(uint256 _tenor, uint256 _amount, OptionLibrary.PayoffType _poType, uint256 _payInCost) external {\n    require(allowTrading,\"Trading stopped!\");\n    (uint256 _volAmount, uint256 _vol, uint256 _premium, uint256 _cost, uint256 _price) = calcVolAmount(_tenor, _amount, OptionLibrary.OptionSide.Sell);\n    uint256 _totalCost = _premium + _cost;\n    require(_payInCost >= _totalCost, \"Cost incorrect\");\n\n    require(ERC20(optionVault.funding()).transferFrom(msg.sender, marketMakerAddress, _cost), 'payment error'); \n    require(ERC20(optionVault.funding()).transferFrom(msg.sender, address(this), _premium), 'payment error');  \n    uint256 _id = optionVault.addOption(_tenor, _price, _amount, _poType, OptionLibrary.OptionSide.Sell, _premium, _cost, _price, _vol, msg.sender);\n    VolatilityToken(volTokenAddressList[_tenor]).mint(msg.sender, _volAmount);\n    optionVault.stampActiveOption(_id, msg.sender);\n    emit newOptionBought(msg.sender, optionVault.getOption(_id), _volAmount, true);}\n\n  function addVolToken(uint256 _tenor, address _tokenAddress) external onlyRole(ADMIN_ROLE){ \n    require(VolatilityToken(volTokenAddressList[_tenor]).tenor()==_tenor && VolatilityToken(volTokenAddressList[_tenor]).tokenHash()==optionVault.tokenHash(), 'mismatched token address');\n    volTokenAddressList[_tenor] = _tokenAddress; }\n  function removeVolToken(uint256 _tenor) external onlyRole(ADMIN_ROLE){ volTokenAddressList[_tenor] = address(0);}\n  \n  function resetLoanRate(uint256 _loanInterest) external onlyRole(ADMIN_ROLE){ loanInterest = _loanInterest;}\n  function resetRiskPremiumMaxRatio(uint256 _newRatio) external onlyRole(ADMIN_ROLE){ volRiskPremiumMaxRatio=_newRatio;}\n  function resetTrading(bool _allowTrading) external onlyRole(DEFAULT_ADMIN_ROLE) {allowTrading=_allowTrading;}\n}\n",
  "sourcePath": "/Users/apple/Documents/GitHub/moret/contracts/Exchange.sol",
  "compiler": {
    "name": "solc",
    "version": "0.8.10+commit.fc410830.Emscripten.clang"
  },
  "schemaVersion": "3.4.3",
  "updatedAt": "2021-11-29T23:31:54.359Z",
  "networkType": "ethereum",
  "devdoc": {
    "kind": "dev",
    "methods": {
      "getRoleAdmin(bytes32)": {
        "details": "Returns the admin role that controls `role`. See {grantRole} and {revokeRole}. To change a role's admin, use {_setRoleAdmin}."
      },
      "grantRole(bytes32,address)": {
        "details": "Grants `role` to `account`. If `account` had not been already granted `role`, emits a {RoleGranted} event. Requirements: - the caller must have ``role``'s admin role."
      },
      "hasRole(bytes32,address)": {
        "details": "Returns `true` if `account` has been granted `role`."
      },
      "renounceRole(bytes32,address)": {
        "details": "Revokes `role` from the calling account. Roles are often managed via {grantRole} and {revokeRole}: this function's purpose is to provide a mechanism for accounts to lose their privileges if they are compromised (such as when a trusted device is misplaced). If the calling account had been revoked `role`, emits a {RoleRevoked} event. Requirements: - the caller must be `account`."
      },
      "revokeRole(bytes32,address)": {
        "details": "Revokes `role` from `account`. If `account` had been granted `role`, emits a {RoleRevoked} event. Requirements: - the caller must have ``role``'s admin role."
      },
      "supportsInterface(bytes4)": {
        "details": "See {IERC165-supportsInterface}."
      }
    },
    "version": 1
  },
  "userdoc": {
    "kind": "user",
    "methods": {},
    "version": 1
  }
}