{
  "contractName": "ExchangeNative",
  "abi": [
    {
      "inputs": [
        {
          "internalType": "address payable",
          "name": "_marketMakerAddress",
          "type": "address"
        },
        {
          "internalType": "address",
          "name": "_optionAddress",
          "type": "address"
        },
        {
          "internalType": "address payable",
          "name": "_volTokenAddress",
          "type": "address"
        }
      ],
      "stateMutability": "nonpayable",
      "type": "constructor"
    },
    {
      "anonymous": false,
      "inputs": [
        {
          "indexed": true,
          "internalType": "bytes32",
          "name": "role",
          "type": "bytes32"
        },
        {
          "indexed": true,
          "internalType": "bytes32",
          "name": "previousAdminRole",
          "type": "bytes32"
        },
        {
          "indexed": true,
          "internalType": "bytes32",
          "name": "newAdminRole",
          "type": "bytes32"
        }
      ],
      "name": "RoleAdminChanged",
      "type": "event"
    },
    {
      "anonymous": false,
      "inputs": [
        {
          "indexed": true,
          "internalType": "bytes32",
          "name": "role",
          "type": "bytes32"
        },
        {
          "indexed": true,
          "internalType": "address",
          "name": "account",
          "type": "address"
        },
        {
          "indexed": true,
          "internalType": "address",
          "name": "sender",
          "type": "address"
        }
      ],
      "name": "RoleGranted",
      "type": "event"
    },
    {
      "anonymous": false,
      "inputs": [
        {
          "indexed": true,
          "internalType": "bytes32",
          "name": "role",
          "type": "bytes32"
        },
        {
          "indexed": true,
          "internalType": "address",
          "name": "account",
          "type": "address"
        },
        {
          "indexed": true,
          "internalType": "address",
          "name": "sender",
          "type": "address"
        }
      ],
      "name": "RoleRevoked",
      "type": "event"
    },
    {
      "anonymous": false,
      "inputs": [
        {
          "indexed": false,
          "internalType": "address",
          "name": "_recipient",
          "type": "address"
        },
        {
          "indexed": false,
          "internalType": "uint256",
          "name": "_mintMPTokenAmount",
          "type": "uint256"
        },
        {
          "indexed": false,
          "internalType": "uint256",
          "name": "_addedValue",
          "type": "uint256"
        }
      ],
      "name": "capitalAdded",
      "type": "event"
    },
    {
      "anonymous": false,
      "inputs": [
        {
          "indexed": false,
          "internalType": "address",
          "name": "_recipient",
          "type": "address"
        },
        {
          "indexed": false,
          "internalType": "uint256",
          "name": "_burnMPTokenAmount",
          "type": "uint256"
        },
        {
          "indexed": false,
          "internalType": "uint256",
          "name": "_withdrawValue",
          "type": "uint256"
        }
      ],
      "name": "capitalWithdrawn",
      "type": "event"
    },
    {
      "anonymous": false,
      "inputs": [
        {
          "indexed": true,
          "internalType": "address",
          "name": "_purchaser",
          "type": "address"
        },
        {
          "components": [
            {
              "internalType": "enum OptionLibrary.PayoffType",
              "name": "poType",
              "type": "uint8"
            },
            {
              "internalType": "enum OptionLibrary.OptionSide",
              "name": "side",
              "type": "uint8"
            },
            {
              "internalType": "enum OptionLibrary.OptionStatus",
              "name": "status",
              "type": "uint8"
            },
            {
              "internalType": "address",
              "name": "holder",
              "type": "address"
            },
            {
              "internalType": "uint256",
              "name": "id",
              "type": "uint256"
            },
            {
              "internalType": "uint256",
              "name": "createTime",
              "type": "uint256"
            },
            {
              "internalType": "uint256",
              "name": "effectiveTime",
              "type": "uint256"
            },
            {
              "internalType": "uint256",
              "name": "tenor",
              "type": "uint256"
            },
            {
              "internalType": "uint256",
              "name": "exerciseTime",
              "type": "uint256"
            },
            {
              "internalType": "uint256",
              "name": "amount",
              "type": "uint256"
            },
            {
              "internalType": "uint256",
              "name": "spot",
              "type": "uint256"
            },
            {
              "internalType": "uint256",
              "name": "strike",
              "type": "uint256"
            },
            {
              "internalType": "uint256",
              "name": "volatility",
              "type": "uint256"
            },
            {
              "internalType": "uint256",
              "name": "premium",
              "type": "uint256"
            },
            {
              "internalType": "uint256",
              "name": "fee",
              "type": "uint256"
            }
          ],
          "indexed": false,
          "internalType": "struct OptionLibrary.Option",
          "name": "_option",
          "type": "tuple"
        },
        {
          "indexed": false,
          "internalType": "uint256",
          "name": "_cost",
          "type": "uint256"
        },
        {
          "indexed": false,
          "internalType": "bool",
          "name": "_inVol",
          "type": "bool"
        }
      ],
      "name": "newOptionBought",
      "type": "event"
    },
    {
      "anonymous": false,
      "inputs": [
        {
          "indexed": false,
          "internalType": "address",
          "name": "_purchaser",
          "type": "address"
        },
        {
          "indexed": false,
          "internalType": "uint256",
          "name": "_time",
          "type": "uint256"
        },
        {
          "indexed": false,
          "internalType": "uint256",
          "name": "_tenor",
          "type": "uint256"
        },
        {
          "indexed": false,
          "internalType": "uint256",
          "name": "_amount",
          "type": "uint256"
        }
      ],
      "name": "newVolatilityTokenBought",
      "type": "event"
    },
    {
      "anonymous": false,
      "inputs": [
        {
          "indexed": true,
          "internalType": "address",
          "name": "_purchaser",
          "type": "address"
        },
        {
          "components": [
            {
              "internalType": "enum OptionLibrary.PayoffType",
              "name": "poType",
              "type": "uint8"
            },
            {
              "internalType": "enum OptionLibrary.OptionSide",
              "name": "side",
              "type": "uint8"
            },
            {
              "internalType": "enum OptionLibrary.OptionStatus",
              "name": "status",
              "type": "uint8"
            },
            {
              "internalType": "address",
              "name": "holder",
              "type": "address"
            },
            {
              "internalType": "uint256",
              "name": "id",
              "type": "uint256"
            },
            {
              "internalType": "uint256",
              "name": "createTime",
              "type": "uint256"
            },
            {
              "internalType": "uint256",
              "name": "effectiveTime",
              "type": "uint256"
            },
            {
              "internalType": "uint256",
              "name": "tenor",
              "type": "uint256"
            },
            {
              "internalType": "uint256",
              "name": "exerciseTime",
              "type": "uint256"
            },
            {
              "internalType": "uint256",
              "name": "amount",
              "type": "uint256"
            },
            {
              "internalType": "uint256",
              "name": "spot",
              "type": "uint256"
            },
            {
              "internalType": "uint256",
              "name": "strike",
              "type": "uint256"
            },
            {
              "internalType": "uint256",
              "name": "volatility",
              "type": "uint256"
            },
            {
              "internalType": "uint256",
              "name": "premium",
              "type": "uint256"
            },
            {
              "internalType": "uint256",
              "name": "fee",
              "type": "uint256"
            }
          ],
          "indexed": false,
          "internalType": "struct OptionLibrary.Option",
          "name": "_option",
          "type": "tuple"
        },
        {
          "indexed": false,
          "internalType": "uint256",
          "name": "_payoff",
          "type": "uint256"
        }
      ],
      "name": "optionExercised",
      "type": "event"
    },
    {
      "inputs": [],
      "name": "ADMIN_ROLE",
      "outputs": [
        {
          "internalType": "bytes32",
          "name": "",
          "type": "bytes32"
        }
      ],
      "stateMutability": "view",
      "type": "function"
    },
    {
      "inputs": [],
      "name": "DEFAULT_ADMIN_ROLE",
      "outputs": [
        {
          "internalType": "bytes32",
          "name": "",
          "type": "bytes32"
        }
      ],
      "stateMutability": "view",
      "type": "function"
    },
    {
      "inputs": [],
      "name": "contractAddress",
      "outputs": [
        {
          "internalType": "address payable",
          "name": "",
          "type": "address"
        }
      ],
      "stateMutability": "view",
      "type": "function"
    },
    {
      "inputs": [
        {
          "internalType": "bytes32",
          "name": "role",
          "type": "bytes32"
        }
      ],
      "name": "getRoleAdmin",
      "outputs": [
        {
          "internalType": "bytes32",
          "name": "",
          "type": "bytes32"
        }
      ],
      "stateMutability": "view",
      "type": "function"
    },
    {
      "inputs": [
        {
          "internalType": "bytes32",
          "name": "role",
          "type": "bytes32"
        },
        {
          "internalType": "address",
          "name": "account",
          "type": "address"
        }
      ],
      "name": "grantRole",
      "outputs": [],
      "stateMutability": "nonpayable",
      "type": "function"
    },
    {
      "inputs": [
        {
          "internalType": "bytes32",
          "name": "role",
          "type": "bytes32"
        },
        {
          "internalType": "address",
          "name": "account",
          "type": "address"
        }
      ],
      "name": "hasRole",
      "outputs": [
        {
          "internalType": "bool",
          "name": "",
          "type": "bool"
        }
      ],
      "stateMutability": "view",
      "type": "function"
    },
    {
      "inputs": [],
      "name": "maxUtilisation",
      "outputs": [
        {
          "internalType": "uint256",
          "name": "",
          "type": "uint256"
        }
      ],
      "stateMutability": "view",
      "type": "function"
    },
    {
      "inputs": [
        {
          "internalType": "bytes32",
          "name": "role",
          "type": "bytes32"
        },
        {
          "internalType": "address",
          "name": "account",
          "type": "address"
        }
      ],
      "name": "renounceRole",
      "outputs": [],
      "stateMutability": "nonpayable",
      "type": "function"
    },
    {
      "inputs": [
        {
          "internalType": "bytes32",
          "name": "role",
          "type": "bytes32"
        },
        {
          "internalType": "address",
          "name": "account",
          "type": "address"
        }
      ],
      "name": "revokeRole",
      "outputs": [],
      "stateMutability": "nonpayable",
      "type": "function"
    },
    {
      "inputs": [],
      "name": "settlementFee",
      "outputs": [
        {
          "internalType": "uint256",
          "name": "numerator",
          "type": "uint256"
        },
        {
          "internalType": "uint256",
          "name": "denominator",
          "type": "uint256"
        }
      ],
      "stateMutability": "view",
      "type": "function"
    },
    {
      "inputs": [
        {
          "internalType": "bytes4",
          "name": "interfaceId",
          "type": "bytes4"
        }
      ],
      "name": "supportsInterface",
      "outputs": [
        {
          "internalType": "bool",
          "name": "",
          "type": "bool"
        }
      ],
      "stateMutability": "view",
      "type": "function"
    },
    {
      "inputs": [
        {
          "internalType": "uint256",
          "name": "",
          "type": "uint256"
        }
      ],
      "name": "volTokensList",
      "outputs": [
        {
          "internalType": "contract VolatilityToken",
          "name": "",
          "type": "address"
        }
      ],
      "stateMutability": "view",
      "type": "function"
    },
    {
      "inputs": [],
      "name": "volTransactionFees",
      "outputs": [
        {
          "internalType": "uint256",
          "name": "numerator",
          "type": "uint256"
        },
        {
          "internalType": "uint256",
          "name": "denominator",
          "type": "uint256"
        }
      ],
      "stateMutability": "view",
      "type": "function"
    },
    {
      "stateMutability": "payable",
      "type": "receive"
    },
    {
      "inputs": [
        {
          "internalType": "uint256",
          "name": "_tenor",
          "type": "uint256"
        },
        {
          "internalType": "uint256",
          "name": "_strike",
          "type": "uint256"
        },
        {
          "internalType": "uint256",
          "name": "_amount",
          "type": "uint256"
        },
        {
          "internalType": "enum OptionLibrary.PayoffType",
          "name": "_poType",
          "type": "uint8"
        },
        {
          "internalType": "enum OptionLibrary.OptionSide",
          "name": "_side",
          "type": "uint8"
        }
      ],
      "name": "queryOptionCost",
      "outputs": [
        {
          "internalType": "uint256",
          "name": "",
          "type": "uint256"
        }
      ],
      "stateMutability": "view",
      "type": "function"
    },
    {
      "inputs": [
        {
          "internalType": "uint256",
          "name": "_tenor",
          "type": "uint256"
        },
        {
          "internalType": "uint256",
          "name": "_strike",
          "type": "uint256"
        },
        {
          "internalType": "enum OptionLibrary.PayoffType",
          "name": "_poType",
          "type": "uint8"
        },
        {
          "internalType": "uint256",
          "name": "_amount",
          "type": "uint256"
        }
      ],
      "name": "purchaseOption",
      "outputs": [],
      "stateMutability": "payable",
      "type": "function"
    },
    {
      "inputs": [
        {
          "internalType": "uint256",
          "name": "_tenor",
          "type": "uint256"
        },
        {
          "internalType": "uint256",
          "name": "_strike",
          "type": "uint256"
        },
        {
          "internalType": "enum OptionLibrary.PayoffType",
          "name": "_poType",
          "type": "uint8"
        },
        {
          "internalType": "uint256",
          "name": "_amount",
          "type": "uint256"
        },
        {
          "internalType": "uint256",
          "name": "_payInCost",
          "type": "uint256"
        }
      ],
      "name": "purchaseOptionInVol",
      "outputs": [],
      "stateMutability": "nonpayable",
      "type": "function"
    },
    {
      "inputs": [
        {
          "internalType": "uint256",
          "name": "_id",
          "type": "uint256"
        }
      ],
      "name": "getOptionPayoffValue",
      "outputs": [
        {
          "internalType": "uint256",
          "name": "",
          "type": "uint256"
        }
      ],
      "stateMutability": "view",
      "type": "function"
    },
    {
      "inputs": [
        {
          "internalType": "uint256",
          "name": "_id",
          "type": "uint256"
        }
      ],
      "name": "exerciseOption",
      "outputs": [],
      "stateMutability": "nonpayable",
      "type": "function"
    },
    {
      "inputs": [
        {
          "internalType": "address payable",
          "name": "_tokenAddress",
          "type": "address"
        }
      ],
      "name": "addVolToken",
      "outputs": [],
      "stateMutability": "nonpayable",
      "type": "function"
    },
    {
      "inputs": [
        {
          "internalType": "uint256",
          "name": "_tenor",
          "type": "uint256"
        },
        {
          "internalType": "uint256",
          "name": "_volAmount",
          "type": "uint256"
        }
      ],
      "name": "quoteVolatilityCost",
      "outputs": [
        {
          "internalType": "uint256",
          "name": "",
          "type": "uint256"
        },
        {
          "internalType": "uint256",
          "name": "",
          "type": "uint256"
        }
      ],
      "stateMutability": "view",
      "type": "function"
    },
    {
      "inputs": [
        {
          "internalType": "uint256",
          "name": "_tenor",
          "type": "uint256"
        },
        {
          "internalType": "uint256",
          "name": "_volAmount",
          "type": "uint256"
        }
      ],
      "name": "purchaseVolatilityToken",
      "outputs": [],
      "stateMutability": "payable",
      "type": "function"
    },
    {
      "inputs": [],
      "name": "sweepBalance",
      "outputs": [],
      "stateMutability": "nonpayable",
      "type": "function"
    },
    {
      "inputs": [
        {
          "internalType": "uint256",
          "name": "_fee",
          "type": "uint256"
        },
        {
          "internalType": "uint256",
          "name": "_denominator",
          "type": "uint256"
        }
      ],
      "name": "resetSettlementFees",
      "outputs": [],
      "stateMutability": "nonpayable",
      "type": "function"
    },
    {
      "inputs": [
        {
          "internalType": "uint256",
          "name": "_fee",
          "type": "uint256"
        },
        {
          "internalType": "uint256",
          "name": "_denominator",
          "type": "uint256"
        }
      ],
      "name": "resetVolTransactionFees",
      "outputs": [],
      "stateMutability": "nonpayable",
      "type": "function"
    },
    {
      "inputs": [
        {
          "internalType": "uint256",
          "name": "_maxUtil",
          "type": "uint256"
        }
      ],
      "name": "resetMaxUtilisation",
      "outputs": [],
      "stateMutability": "nonpayable",
      "type": "function"
    },
    {
      "inputs": [],
      "name": "priceDecimals",
      "outputs": [
        {
          "internalType": "uint256",
          "name": "",
          "type": "uint256"
        }
      ],
      "stateMutability": "view",
      "type": "function"
    },
    {
      "inputs": [
        {
          "internalType": "uint256",
          "name": "_tenor",
          "type": "uint256"
        }
      ],
      "name": "queryVol",
      "outputs": [
        {
          "internalType": "uint256",
          "name": "",
          "type": "uint256"
        },
        {
          "internalType": "uint256",
          "name": "",
          "type": "uint256"
        }
      ],
      "stateMutability": "view",
      "type": "function"
    }
  ],
  "bytecode": "0x608060405260405180604001604052806113888152602001620f424081525060016000820151816000015560208201518160010155505060405180604001604052806113888152602001620f4240815250600360008201518160000155602082015181600101555050670de0b6b3a76400006008553480156200008157600080fd5b5060405162004b6b38038062004b6b8339818101604052810190620000a7919062000451565b620000bc6000801b336200029360201b60201c565b620000ee7fa49807205ce4d355092ef5a8a18f56e8913cf4a201fbe287825b095693c21775336200029360201b60201c565b81600760006101000a81548173ffffffffffffffffffffffffffffffffffffffff021916908373ffffffffffffffffffffffffffffffffffffffff16021790555082600660006101000a81548173ffffffffffffffffffffffffffffffffffffffff021916908373ffffffffffffffffffffffffffffffffffffffff160217905550600081905080600960008373ffffffffffffffffffffffffffffffffffffffff1663a15612d16040518163ffffffff1660e01b815260040160206040518083038186803b158015620001c157600080fd5b505afa158015620001d6573d6000803e3d6000fd5b505050506040513d601f19601f82011682018060405250810190620001fc9190620004ad565b815260200190815260200160002060006101000a81548173ffffffffffffffffffffffffffffffffffffffff021916908373ffffffffffffffffffffffffffffffffffffffff16021790555030600560006101000a81548173ffffffffffffffffffffffffffffffffffffffff021916908373ffffffffffffffffffffffffffffffffffffffff1602179055505050505062000584565b620002a58282620002a960201b60201c565b5050565b620002bb82826200039a60201b60201c565b6200039657600160008084815260200190815260200160002060000160008373ffffffffffffffffffffffffffffffffffffffff1673ffffffffffffffffffffffffffffffffffffffff16815260200190815260200160002060006101000a81548160ff0219169083151502179055506200033b6200040460201b60201c565b73ffffffffffffffffffffffffffffffffffffffff168173ffffffffffffffffffffffffffffffffffffffff16837f2f8788117e7eff1d82e926ec794901d17c78024a50270940304540a733656f0d60405160405180910390a45b5050565b600080600084815260200190815260200160002060000160008373ffffffffffffffffffffffffffffffffffffffff1673ffffffffffffffffffffffffffffffffffffffff16815260200190815260200160002060009054906101000a900460ff16905092915050565b600033905090565b6000815190506200041d8162000536565b92915050565b600081519050620004348162000550565b92915050565b6000815190506200044b816200056a565b92915050565b6000806000606084860312156200046d576200046c62000531565b5b60006200047d8682870162000423565b935050602062000490868287016200040c565b9250506040620004a38682870162000423565b9150509250925092565b600060208284031215620004c657620004c562000531565b5b6000620004d6848285016200043a565b91505092915050565b6000620004ec8262000507565b9050919050565b6000620005008262000507565b9050919050565b600073ffffffffffffffffffffffffffffffffffffffff82169050919050565b6000819050919050565b600080fd5b6200054181620004df565b81146200054d57600080fd5b50565b6200055b81620004f3565b81146200056757600080fd5b50565b620005758162000527565b81146200058157600080fd5b50565b6145d780620005946000396000f3fe6080604052600436106101a05760003560e01c80637d1d7fb8116100ec578063b7ab81371161008a578063d547741f11610064578063d547741f146105dd578063dc89231714610606578063f52f252614610631578063f6b4dfb41461065a576101a7565b8063b7ab81371461055f578063c3513f6d14610588578063cfc2dc201461059f576101a7565b806393ecc4cb116100c657806393ecc4cb1461049d578063a217fddf146104db578063a24015fe14610506578063ada9ecb414610543576101a7565b80637d1d7fb81461040b57806391d14854146104375780639320d4ce14610474576101a7565b80632f2ff15d11610159578063598ddc6011610133578063598ddc601461034e5780635a4a3a921461037757806375b238fc146103a357806376df2d08146103ce576101a7565b80632f2ff15d146102bf57806336568abe146102e857806340d6eaab14610311576101a7565b806301ffc9a7146101ac57806305300b28146101e95780630fd00a0d14610214578063127b3a6a14610230578063233dde9514610259578063248a9ca314610282576101a7565b366101a757005b600080fd5b3480156101b857600080fd5b506101d360048036038101906101ce91906133c9565b610685565b6040516101e09190613b5a565b60405180910390f35b3480156101f557600080fd5b506101fe6106ff565b60405161020b9190613cf2565b60405180910390f35b61022e600480360381019061022991906134fe565b6107a6565b005b34801561023c57600080fd5b5061025760048036038101906102529190613565565b610ec9565b005b34801561026557600080fd5b50610280600480360381019061027b9190613424565b6118e7565b005b34801561028e57600080fd5b506102a960048036038101906102a4919061335c565b611924565b6040516102b69190613b75565b60405180910390f35b3480156102cb57600080fd5b506102e660048036038101906102e19190613389565b611943565b005b3480156102f457600080fd5b5061030f600480360381019061030a9190613389565b61196c565b005b34801561031d57600080fd5b5061033860048036038101906103339190613424565b6119ef565b6040516103459190613cf2565b60405180910390f35b34801561035a57600080fd5b506103756004803603810190610370919061347e565b611aa3565b005b34801561038357600080fd5b5061038c611b08565b60405161039a929190613dbf565b60405180910390f35b3480156103af57600080fd5b506103b8611b1a565b6040516103c59190613b75565b60405180910390f35b3480156103da57600080fd5b506103f560048036038101906103f091906135e0565b611b3e565b6040516104029190613cf2565b60405180910390f35b34801561041757600080fd5b50610420611d05565b60405161042e929190613dbf565b60405180910390f35b34801561044357600080fd5b5061045e60048036038101906104599190613389565b611d17565b60405161046b9190613b5a565b60405180910390f35b34801561048057600080fd5b5061049b6004803603810190610496919061347e565b611d81565b005b3480156104a957600080fd5b506104c460048036038101906104bf919061347e565b611de6565b6040516104d2929190613dbf565b60405180910390f35b3480156104e757600080fd5b506104f0612036565b6040516104fd9190613b75565b60405180910390f35b34801561051257600080fd5b5061052d60048036038101906105289190613424565b61203d565b60405161053a9190613b90565b60405180910390f35b61055d6004803603810190610558919061347e565b612070565b005b34801561056b57600080fd5b5061058660048036038101906105819190613302565b61217d565b005b34801561059457600080fd5b5061059d612288565b005b3480156105ab57600080fd5b506105c660048036038101906105c19190613424565b61233d565b6040516105d4929190613dbf565b60405180910390f35b3480156105e957600080fd5b5061060460048036038101906105ff9190613389565b6123f3565b005b34801561061257600080fd5b5061061b61241c565b6040516106289190613cf2565b60405180910390f35b34801561063d57600080fd5b5061065860048036038101906106539190613424565b612422565b005b34801561066657600080fd5b5061066f612a45565b60405161067c9190613a1e565b60405180910390f35b60007f7965db0b000000000000000000000000000000000000000000000000000000007bffffffffffffffffffffffffffffffffffffffffffffffffffffffff1916827bffffffffffffffffffffffffffffffffffffffffffffffffffffffff191614806106f857506106f782612a6b565b5b9050919050565b6000600760009054906101000a900473ffffffffffffffffffffffffffffffffffffffff1673ffffffffffffffffffffffffffffffffffffffff166305300b286040518163ffffffff1660e01b815260040160206040518083038186803b15801561076957600080fd5b505afa15801561077d573d6000803e3d6000fd5b505050506040513d601f19601f820116820180604052508101906107a19190613451565b905090565b60006107b6858584866000611b3e565b905060006107ce826001600001546001800154612ad5565b90506000600760009054906101000a900473ffffffffffffffffffffffffffffffffffffffff1673ffffffffffffffffffffffffffffffffffffffff1663af7b2625888888600089888a610822919061401c565b896040518863ffffffff1660e01b81526004016108459796959493929190613de8565b602060405180830381600087803b15801561085f57600080fd5b505af1158015610873573d6000803e3d6000fd5b505050506040513d601f19601f820116820180604052508101906108979190613451565b9050600760009054906101000a900473ffffffffffffffffffffffffffffffffffffffff1673ffffffffffffffffffffffffffffffffffffffff16636abae9b38260006040518363ffffffff1660e01b81526004016108f7929190613d36565b60206040518083038186803b15801561090f57600080fd5b505afa158015610923573d6000803e3d6000fd5b505050506040513d601f19601f820116820180604052508101906109479190613451565b341015610989576040517f08c379a000000000000000000000000000000000000000000000000000000000815260040161098090613c2d565b60405180910390fd5b600660009054906101000a900473ffffffffffffffffffffffffffffffffffffffff1673ffffffffffffffffffffffffffffffffffffffff166108fc600760009054906101000a900473ffffffffffffffffffffffffffffffffffffffff1673ffffffffffffffffffffffffffffffffffffffff166346047a66846040518263ffffffff1660e01b8152600401610a209190613cf2565b60206040518083038186803b158015610a3857600080fd5b505afa158015610a4c573d6000803e3d6000fd5b505050506040513d601f19601f82011682018060405250810190610a709190613451565b9081150290604051600060405180830381858888f19350505050158015610a9b573d6000803e3d6000fd5b50600760009054906101000a900473ffffffffffffffffffffffffffffffffffffffff1673ffffffffffffffffffffffffffffffffffffffff166328e493c1826040518263ffffffff1660e01b8152600401610af79190613cf2565b600060405180830381600087803b158015610b1157600080fd5b505af1158015610b25573d6000803e3d6000fd5b50505050600660009054906101000a900473ffffffffffffffffffffffffffffffffffffffff1673ffffffffffffffffffffffffffffffffffffffff1663cbe42a183383600760009054906101000a900473ffffffffffffffffffffffffffffffffffffffff1673ffffffffffffffffffffffffffffffffffffffff166346047a66866040518263ffffffff1660e01b8152600401610bc49190613cf2565b60206040518083038186803b158015610bdc57600080fd5b505afa158015610bf0573d6000803e3d6000fd5b505050506040513d601f19601f82011682018060405250810190610c149190613451565b600760009054906101000a900473ffffffffffffffffffffffffffffffffffffffff1673ffffffffffffffffffffffffffffffffffffffff1663128734c58760006040518363ffffffff1660e01b8152600401610c72929190613d5f565b60206040518083038186803b158015610c8a57600080fd5b505afa158015610c9e573d6000803e3d6000fd5b505050506040513d601f19601f82011682018060405250810190610cc29190613451565b600760009054906101000a900473ffffffffffffffffffffffffffffffffffffffff1673ffffffffffffffffffffffffffffffffffffffff1663128734c58860016040518363ffffffff1660e01b8152600401610d20929190613d5f565b60206040518083038186803b158015610d3857600080fd5b505afa158015610d4c573d6000803e3d6000fd5b505050506040513d601f19601f82011682018060405250810190610d709190613451565b6040518663ffffffff1660e01b8152600401610d90959493929190613b07565b600060405180830381600087803b158015610daa57600080fd5b505af1158015610dbe573d6000803e3d6000fd5b505050503373ffffffffffffffffffffffffffffffffffffffff167f70f78afb3477f32fbbdae25a5446780cf2f44e041329d5f7688fa98e6524bf43600760009054906101000a900473ffffffffffffffffffffffffffffffffffffffff1673ffffffffffffffffffffffffffffffffffffffff16631ce5e9a6846040518263ffffffff1660e01b8152600401610e559190613cf2565b6101e06040518083038186803b158015610e6e57600080fd5b505afa158015610e82573d6000803e3d6000fd5b505050506040513d601f19601f82011682018060405250810190610ea691906133f6565b346000604051610eb893929190613cb8565b60405180910390a250505050505050565b6000610ed9868685876000611b3e565b90506000610ef1826001600001546001800154612ad5565b90506000600760009054906101000a900473ffffffffffffffffffffffffffffffffffffffff1673ffffffffffffffffffffffffffffffffffffffff1663af7b262589898960008a888a610f45919061401c565b896040518863ffffffff1660e01b8152600401610f689796959493929190613de8565b602060405180830381600087803b158015610f8257600080fd5b505af1158015610f96573d6000803e3d6000fd5b505050506040513d601f19601f82011682018060405250810190610fba9190613451565b9050600760009054906101000a900473ffffffffffffffffffffffffffffffffffffffff1673ffffffffffffffffffffffffffffffffffffffff16636abae9b38260016040518363ffffffff1660e01b815260040161101a929190613d36565b60206040518083038186803b15801561103257600080fd5b505afa158015611046573d6000803e3d6000fd5b505050506040513d601f19601f8201168201806040525081019061106a9190613451565b8410156110ac576040517f08c379a00000000000000000000000000000000000000000000000000000000081526004016110a390613c2d565b60405180910390fd5b6009600089815260200190815260200160002060009054906101000a900473ffffffffffffffffffffffffffffffffffffffff1673ffffffffffffffffffffffffffffffffffffffff166323b872dd33600560009054906101000a900473ffffffffffffffffffffffffffffffffffffffff16876040518463ffffffff1660e01b815260040161113e93929190613a62565b602060405180830381600087803b15801561115857600080fd5b505af115801561116c573d6000803e3d6000fd5b505050506040513d601f19601f82011682018060405250810190611190919061332f565b6111cf576040517f08c379a00000000000000000000000000000000000000000000000000000000081526004016111c690613c0d565b60405180910390fd5b6009600089815260200190815260200160002060009054906101000a900473ffffffffffffffffffffffffffffffffffffffff1673ffffffffffffffffffffffffffffffffffffffff1663095ea7b3600960008b815260200190815260200160002060009054906101000a900473ffffffffffffffffffffffffffffffffffffffff16866040518363ffffffff1660e01b8152600401611270929190613a99565b602060405180830381600087803b15801561128a57600080fd5b505af115801561129e573d6000803e3d6000fd5b505050506040513d601f19601f820116820180604052508101906112c2919061332f565b506009600089815260200190815260200160002060009054906101000a900473ffffffffffffffffffffffffffffffffffffffff1673ffffffffffffffffffffffffffffffffffffffff16635d36d182600560009054906101000a900473ffffffffffffffffffffffffffffffffffffffff16866040518363ffffffff1660e01b8152600401611353929190613a39565b602060405180830381600087803b15801561136d57600080fd5b505af1158015611381573d6000803e3d6000fd5b505050506040513d601f19601f820116820180604052508101906113a59190613451565b50600660009054906101000a900473ffffffffffffffffffffffffffffffffffffffff1673ffffffffffffffffffffffffffffffffffffffff166108fc600760009054906101000a900473ffffffffffffffffffffffffffffffffffffffff1673ffffffffffffffffffffffffffffffffffffffff166346047a66846040518263ffffffff1660e01b815260040161143d9190613cf2565b60206040518083038186803b15801561145557600080fd5b505afa158015611469573d6000803e3d6000fd5b505050506040513d601f19601f8201168201806040525081019061148d9190613451565b9081150290604051600060405180830381858888f193505050501580156114b8573d6000803e3d6000fd5b50600760009054906101000a900473ffffffffffffffffffffffffffffffffffffffff1673ffffffffffffffffffffffffffffffffffffffff166328e493c1826040518263ffffffff1660e01b81526004016115149190613cf2565b600060405180830381600087803b15801561152e57600080fd5b505af1158015611542573d6000803e3d6000fd5b50505050600660009054906101000a900473ffffffffffffffffffffffffffffffffffffffff1673ffffffffffffffffffffffffffffffffffffffff1663cbe42a183383600760009054906101000a900473ffffffffffffffffffffffffffffffffffffffff1673ffffffffffffffffffffffffffffffffffffffff166346047a66866040518263ffffffff1660e01b81526004016115e19190613cf2565b60206040518083038186803b1580156115f957600080fd5b505afa15801561160d573d6000803e3d6000fd5b505050506040513d601f19601f820116820180604052508101906116319190613451565b600760009054906101000a900473ffffffffffffffffffffffffffffffffffffffff1673ffffffffffffffffffffffffffffffffffffffff1663128734c58760006040518363ffffffff1660e01b815260040161168f929190613d5f565b60206040518083038186803b1580156116a757600080fd5b505afa1580156116bb573d6000803e3d6000fd5b505050506040513d601f19601f820116820180604052508101906116df9190613451565b600760009054906101000a900473ffffffffffffffffffffffffffffffffffffffff1673ffffffffffffffffffffffffffffffffffffffff1663128734c58860016040518363ffffffff1660e01b815260040161173d929190613d5f565b60206040518083038186803b15801561175557600080fd5b505afa158015611769573d6000803e3d6000fd5b505050506040513d601f19601f8201168201806040525081019061178d9190613451565b6040518663ffffffff1660e01b81526004016117ad959493929190613b07565b600060405180830381600087803b1580156117c757600080fd5b505af11580156117db573d6000803e3d6000fd5b505050503373ffffffffffffffffffffffffffffffffffffffff167f70f78afb3477f32fbbdae25a5446780cf2f44e041329d5f7688fa98e6524bf43600760009054906101000a900473ffffffffffffffffffffffffffffffffffffffff1673ffffffffffffffffffffffffffffffffffffffff16631ce5e9a6846040518263ffffffff1660e01b81526004016118729190613cf2565b6101e06040518083038186803b15801561188b57600080fd5b505afa15801561189f573d6000803e3d6000fd5b505050506040513d601f19601f820116820180604052508101906118c391906133f6565b8660016040516118d593929190613cb8565b60405180910390a25050505050505050565b7fa49807205ce4d355092ef5a8a18f56e8913cf4a201fbe287825b095693c2177561191981611914612bd1565b612bd9565b816008819055505050565b6000806000838152602001908152602001600020600101549050919050565b61194c82611924565b61195d81611958612bd1565b612bd9565b6119678383612c76565b505050565b611974612bd1565b73ffffffffffffffffffffffffffffffffffffffff168173ffffffffffffffffffffffffffffffffffffffff16146119e1576040517f08c379a00000000000000000000000000000000000000000000000000000000081526004016119d890613c6d565b60405180910390fd5b6119eb8282612d56565b5050565b6000600760009054906101000a900473ffffffffffffffffffffffffffffffffffffffff1673ffffffffffffffffffffffffffffffffffffffff166340d6eaab836040518263ffffffff1660e01b8152600401611a4c9190613cf2565b60206040518083038186803b158015611a6457600080fd5b505afa158015611a78573d6000803e3d6000fd5b505050506040513d601f19601f82011682018060405250810190611a9c9190613451565b9050919050565b7fa49807205ce4d355092ef5a8a18f56e8913cf4a201fbe287825b095693c21775611ad581611ad0612bd1565b612bd9565b60405180604001604052808481526020018381525060036000820151816000015560208201518160010155905050505050565b60038060000154908060010154905082565b7fa49807205ce4d355092ef5a8a18f56e8913cf4a201fbe287825b095693c2177581565b6000806000600660009054906101000a900473ffffffffffffffffffffffffffffffffffffffff1673ffffffffffffffffffffffffffffffffffffffff1663bd069b418787876040518463ffffffff1660e01b8152600401611ba293929190613d88565b604080518083038186803b158015611bb957600080fd5b505afa158015611bcd573d6000803e3d6000fd5b505050506040513d601f19601f82011682018060405250810190611bf191906134be565b91509150600854611c028383612e37565b1115611c43576040517f08c379a0000000000000000000000000000000000000000000000000000000008152600401611c3a90613bed565b60405180910390fd5b600760009054906101000a900473ffffffffffffffffffffffffffffffffffffffff1673ffffffffffffffffffffffffffffffffffffffff1663d6811db08989888a87876040518763ffffffff1660e01b8152600401611ca896959493929190613e57565b60206040518083038186803b158015611cc057600080fd5b505afa158015611cd4573d6000803e3d6000fd5b505050506040513d601f19601f82011682018060405250810190611cf89190613451565b9250505095945050505050565b60018060000154908060010154905082565b600080600084815260200190815260200160002060000160008373ffffffffffffffffffffffffffffffffffffffff1673ffffffffffffffffffffffffffffffffffffffff16815260200190815260200160002060009054906101000a900460ff16905092915050565b7fa49807205ce4d355092ef5a8a18f56e8913cf4a201fbe287825b095693c21775611db381611dae612bd1565b612bd9565b60405180604001604052808481526020018381525060016000820151816000015560208201518160010155905050505050565b6000806000600760009054906101000a900473ffffffffffffffffffffffffffffffffffffffff1673ffffffffffffffffffffffffffffffffffffffff1663b0667cf86040518163ffffffff1660e01b8152600401604080518083038186803b158015611e5257600080fd5b505afa158015611e66573d6000803e3d6000fd5b505050506040513d601f19601f82011682018060405250810190611e8a91906134be565b5090506000600760009054906101000a900473ffffffffffffffffffffffffffffffffffffffff1673ffffffffffffffffffffffffffffffffffffffff1663cfc2dc20876040518263ffffffff1660e01b8152600401611eea9190613cf2565b604080518083038186803b158015611f0157600080fd5b505afa158015611f15573d6000803e3d6000fd5b505050506040513d601f19601f82011682018060405250810190611f3991906134be565b50905060006009600088815260200190815260200160002060009054906101000a900473ffffffffffffffffffffffffffffffffffffffff1673ffffffffffffffffffffffffffffffffffffffff166362c5c1198785856040518463ffffffff1660e01b8152600401611fae93929190613eb8565b60206040518083038186803b158015611fc657600080fd5b505afa158015611fda573d6000803e3d6000fd5b505050506040513d601f19601f82011682018060405250810190611ffe9190613451565b90506000600360010154600360000154836120199190613fc2565b6120239190613f91565b9050818195509550505050509250929050565b6000801b81565b60096020528060005260406000206000915054906101000a900473ffffffffffffffffffffffffffffffffffffffff1681565b60008061207d8484611de6565b91509150808261208d9190613f3b565b34101561209957600080fd5b6009600085815260200190815260200160002060009054906101000a900473ffffffffffffffffffffffffffffffffffffffff1673ffffffffffffffffffffffffffffffffffffffff166340c10f198333866040518463ffffffff1660e01b8152600401612108929190613a99565b6000604051808303818588803b15801561212157600080fd5b505af1158015612135573d6000803e3d6000fd5b50505050507f701297180b43ed5c70ad79a3036dca759169e2b5f64d7c4d04f2322af0511c8d3342868660405161216f9493929190613ac2565b60405180910390a150505050565b7fa49807205ce4d355092ef5a8a18f56e8913cf4a201fbe287825b095693c217756121af816121aa612bd1565b612bd9565b600082905080600960008373ffffffffffffffffffffffffffffffffffffffff1663a15612d16040518163ffffffff1660e01b815260040160206040518083038186803b1580156121ff57600080fd5b505afa158015612213573d6000803e3d6000fd5b505050506040513d601f19601f820116820180604052508101906122379190613451565b815260200190815260200160002060006101000a81548173ffffffffffffffffffffffffffffffffffffffff021916908373ffffffffffffffffffffffffffffffffffffffff160217905550505050565b7fa49807205ce4d355092ef5a8a18f56e8913cf4a201fbe287825b095693c217756122ba816122b5612bd1565b612bd9565b3373ffffffffffffffffffffffffffffffffffffffff166108fc600560009054906101000a900473ffffffffffffffffffffffffffffffffffffffff1673ffffffffffffffffffffffffffffffffffffffff16319081150290604051600060405180830381858888f19350505050158015612339573d6000803e3d6000fd5b5050565b600080600760009054906101000a900473ffffffffffffffffffffffffffffffffffffffff1673ffffffffffffffffffffffffffffffffffffffff1663cfc2dc20846040518263ffffffff1660e01b815260040161239b9190613cf2565b604080518083038186803b1580156123b257600080fd5b505afa1580156123c6573d6000803e3d6000fd5b505050506040513d601f19601f820116820180604052508101906123ea91906134be565b91509150915091565b6123fc82611924565b61240d81612408612bd1565b612bd9565b6124178383612d56565b505050565b60085481565b600760009054906101000a900473ffffffffffffffffffffffffffffffffffffffff1673ffffffffffffffffffffffffffffffffffffffff1663a556feec82336040518363ffffffff1660e01b815260040161247f929190613d0d565b60006040518083038186803b15801561249757600080fd5b505afa1580156124ab573d6000803e3d6000fd5b505050506000600760009054906101000a900473ffffffffffffffffffffffffffffffffffffffff1673ffffffffffffffffffffffffffffffffffffffff166340d6eaab836040518263ffffffff1660e01b815260040161250c9190613cf2565b60206040518083038186803b15801561252457600080fd5b505afa158015612538573d6000803e3d6000fd5b505050506040513d601f19601f8201168201806040525081019061255c9190613451565b9050600560009054906101000a900473ffffffffffffffffffffffffffffffffffffffff1673ffffffffffffffffffffffffffffffffffffffff163181106125d9576040517f08c379a00000000000000000000000000000000000000000000000000000000081526004016125d090613c4d565b60405180910390fd5b600760009054906101000a900473ffffffffffffffffffffffffffffffffffffffff1673ffffffffffffffffffffffffffffffffffffffff16636c1f7b93836040518263ffffffff1660e01b81526004016126349190613cf2565b600060405180830381600087803b15801561264e57600080fd5b505af1158015612662573d6000803e3d6000fd5b505050503373ffffffffffffffffffffffffffffffffffffffff166108fc829081150290604051600060405180830381858888f193505050501580156126ac573d6000803e3d6000fd5b50600660009054906101000a900473ffffffffffffffffffffffffffffffffffffffff1673ffffffffffffffffffffffffffffffffffffffff1663d5093b0b3384600760009054906101000a900473ffffffffffffffffffffffffffffffffffffffff1673ffffffffffffffffffffffffffffffffffffffff166346047a66876040518263ffffffff1660e01b81526004016127489190613cf2565b60206040518083038186803b15801561276057600080fd5b505afa158015612774573d6000803e3d6000fd5b505050506040513d601f19601f820116820180604052508101906127989190613451565b600760009054906101000a900473ffffffffffffffffffffffffffffffffffffffff1673ffffffffffffffffffffffffffffffffffffffff1663128734c58860006040518363ffffffff1660e01b81526004016127f6929190613d5f565b60206040518083038186803b15801561280e57600080fd5b505afa158015612822573d6000803e3d6000fd5b505050506040513d601f19601f820116820180604052508101906128469190613451565b600760009054906101000a900473ffffffffffffffffffffffffffffffffffffffff1673ffffffffffffffffffffffffffffffffffffffff1663128734c58960016040518363ffffffff1660e01b81526004016128a4929190613d5f565b60206040518083038186803b1580156128bc57600080fd5b505afa1580156128d0573d6000803e3d6000fd5b505050506040513d601f19601f820116820180604052508101906128f49190613451565b6040518663ffffffff1660e01b8152600401612914959493929190613b07565b600060405180830381600087803b15801561292e57600080fd5b505af1158015612942573d6000803e3d6000fd5b505050503373ffffffffffffffffffffffffffffffffffffffff167f41c2c00510329a39f538637baf1a4cec0c212ffecb304f9a04517c285c981b08600760009054906101000a900473ffffffffffffffffffffffffffffffffffffffff1673ffffffffffffffffffffffffffffffffffffffff16631ce5e9a6856040518263ffffffff1660e01b81526004016129d99190613cf2565b6101e06040518083038186803b1580156129f257600080fd5b505afa158015612a06573d6000803e3d6000fd5b505050506040513d601f19601f82011682018060405250810190612a2a91906133f6565b83604051612a39929190613c8d565b60405180910390a25050565b600560009054906101000a900473ffffffffffffffffffffffffffffffffffffffff1681565b60007f01ffc9a7000000000000000000000000000000000000000000000000000000007bffffffffffffffffffffffffffffffffffffffffffffffffffffffff1916827bffffffffffffffffffffffffffffffffffffffffffffffffffffffff1916149050919050565b600080600080198587098587029250828110838203039150506000811415612b105760008411612b0457600080fd5b83820492505050612bca565b808411612b1c57600080fd5b60008486880990508281118203915080830392506000856001877fffffffffffffffffffffffffffffffffffffffffffffffffffffffffffffffff0301169050808604955080840493506001818260000304019050808302841793506000600287600302189050808702600203810290508087026002038102905080870260020381029050808702600203810290508087026002038102905080870260020381029050808502955050505050505b9392505050565b600033905090565b612be38282611d17565b612c7257612c088173ffffffffffffffffffffffffffffffffffffffff166014612e51565b612c168360001c6020612e51565b604051602001612c279291906139e4565b6040516020818303038152906040526040517f08c379a0000000000000000000000000000000000000000000000000000000008152600401612c699190613bab565b60405180910390fd5b5050565b612c808282611d17565b612d5257600160008084815260200190815260200160002060000160008373ffffffffffffffffffffffffffffffffffffffff1673ffffffffffffffffffffffffffffffffffffffff16815260200190815260200160002060006101000a81548160ff021916908315150217905550612cf7612bd1565b73ffffffffffffffffffffffffffffffffffffffff168173ffffffffffffffffffffffffffffffffffffffff16837f2f8788117e7eff1d82e926ec794901d17c78024a50270940304540a733656f0d60405160405180910390a45b5050565b612d608282611d17565b15612e3357600080600084815260200190815260200160002060000160008373ffffffffffffffffffffffffffffffffffffffff1673ffffffffffffffffffffffffffffffffffffffff16815260200190815260200160002060006101000a81548160ff021916908315150217905550612dd8612bd1565b73ffffffffffffffffffffffffffffffffffffffff168173ffffffffffffffffffffffffffffffffffffffff16837ff6391f5c32d9c69d2a47ea670b442974b53935d1edc7fd64eb21e047a839171b60405160405180910390a45b5050565b600081831015612e475781612e49565b825b905092915050565b606060006002836002612e649190613fc2565b612e6e9190613f3b565b67ffffffffffffffff811115612e8757612e866142f3565b5b6040519080825280601f01601f191660200182016040528015612eb95781602001600182028036833780820191505090505b5090507f300000000000000000000000000000000000000000000000000000000000000081600081518110612ef157612ef06142c4565b5b60200101907effffffffffffffffffffffffffffffffffffffffffffffffffffffffffffff1916908160001a9053507f780000000000000000000000000000000000000000000000000000000000000081600181518110612f5557612f546142c4565b5b60200101907effffffffffffffffffffffffffffffffffffffffffffffffffffffffffffff1916908160001a90535060006001846002612f959190613fc2565b612f9f9190613f3b565b90505b600181111561303f577f3031323334353637383961626364656600000000000000000000000000000000600f861660108110612fe157612fe06142c4565b5b1a60f81b828281518110612ff857612ff76142c4565b5b60200101907effffffffffffffffffffffffffffffffffffffffffffffffffffffffffffff1916908160001a905350600485901c945080613038906141dc565b9050612fa2565b5060008414613083576040517f08c379a000000000000000000000000000000000000000000000000000000000815260040161307a90613bcd565b60405180910390fd5b8091505092915050565b60008135905061309c816144e7565b92915050565b6000815190506130b1816144e7565b92915050565b6000813590506130c6816144fe565b92915050565b6000815190506130db81614515565b92915050565b6000813590506130f08161452c565b92915050565b60008135905061310581614543565b92915050565b60008135905061311a8161455a565b92915050565b60008151905061312f8161455a565b92915050565b6000815190506131448161456a565b92915050565b6000813590506131598161457a565b92915050565b60008151905061316e8161457a565b92915050565b60006101e0828403121561318b5761318a614322565b5b6131966101e0613eef565b905060006131a68482850161315f565b60008301525060206131ba84828501613120565b60208301525060406131ce84828501613135565b60408301525060606131e2848285016130a2565b60608301525060806131f6848285016132ed565b60808301525060a061320a848285016132ed565b60a08301525060c061321e848285016132ed565b60c08301525060e0613232848285016132ed565b60e083015250610100613247848285016132ed565b6101008301525061012061325d848285016132ed565b61012083015250610140613273848285016132ed565b61014083015250610160613289848285016132ed565b6101608301525061018061329f848285016132ed565b610180830152506101a06132b5848285016132ed565b6101a0830152506101c06132cb848285016132ed565b6101c08301525092915050565b6000813590506132e78161458a565b92915050565b6000815190506132fc8161458a565b92915050565b60006020828403121561331857613317614327565b5b6000613326848285016130b7565b91505092915050565b60006020828403121561334557613344614327565b5b6000613353848285016130cc565b91505092915050565b60006020828403121561337257613371614327565b5b6000613380848285016130e1565b91505092915050565b600080604083850312156133a05761339f614327565b5b60006133ae858286016130e1565b92505060206133bf8582860161308d565b9150509250929050565b6000602082840312156133df576133de614327565b5b60006133ed848285016130f6565b91505092915050565b60006101e0828403121561340d5761340c614327565b5b600061341b84828501613174565b91505092915050565b60006020828403121561343a57613439614327565b5b6000613448848285016132d8565b91505092915050565b60006020828403121561346757613466614327565b5b6000613475848285016132ed565b91505092915050565b6000806040838503121561349557613494614327565b5b60006134a3858286016132d8565b92505060206134b4858286016132d8565b9150509250929050565b600080604083850312156134d5576134d4614327565b5b60006134e3858286016132ed565b92505060206134f4858286016132ed565b9150509250929050565b6000806000806080858703121561351857613517614327565b5b6000613526878288016132d8565b9450506020613537878288016132d8565b93505060406135488782880161314a565b9250506060613559878288016132d8565b91505092959194509250565b600080600080600060a0868803121561358157613580614327565b5b600061358f888289016132d8565b95505060206135a0888289016132d8565b94505060406135b18882890161314a565b93505060606135c2888289016132d8565b92505060806135d3888289016132d8565b9150509295509295909350565b600080600080600060a086880312156135fc576135fb614327565b5b600061360a888289016132d8565b955050602061361b888289016132d8565b945050604061362c888289016132d8565b935050606061363d8882890161314a565b925050608061364e8882890161310b565b9150509295509295909350565b61366481614119565b82525050565b61367381614062565b82525050565b61368281614050565b82525050565b61369181614050565b82525050565b6136a081614074565b82525050565b6136af81614080565b82525050565b6136be8161412b565b82525050565b6136cd8161414f565b82525050565b6136dc8161414f565b82525050565b6136eb81614161565b82525050565b6136fa81614173565b82525050565b61370981614173565b82525050565b600061371a82613f14565b6137248185613f1f565b93506137348185602086016141a9565b61373d8161432c565b840191505092915050565b600061375382613f14565b61375d8185613f30565b935061376d8185602086016141a9565b80840191505092915050565b6000613786602083613f1f565b91506137918261433d565b602082019050919050565b60006137a9601983613f1f565b91506137b482614366565b602082019050919050565b60006137cc600f83613f1f565b91506137d78261438f565b602082019050919050565b60006137ef601a83613f1f565b91506137fa826143b8565b602082019050919050565b6000613812601583613f1f565b915061381d826143e1565b602082019050919050565b6000613835601783613f30565b91506138408261440a565b601782019050919050565b6000613858601183613f30565b915061386382614433565b601182019050919050565b600061387b602f83613f1f565b91506138868261445c565b604082019050919050565b6101e0820160008201516138a860008501826136f1565b5060208201516138bb60208501826136c4565b5060408201516138ce60408501826136e2565b5060608201516138e16060850182613679565b5060808201516138f460808501826139c6565b5060a082015161390760a08501826139c6565b5060c082015161391a60c08501826139c6565b5060e082015161392d60e08501826139c6565b506101008201516139426101008501826139c6565b506101208201516139576101208501826139c6565b5061014082015161396c6101408501826139c6565b506101608201516139816101608501826139c6565b506101808201516139966101808501826139c6565b506101a08201516139ab6101a08501826139c6565b506101c08201516139c06101c08501826139c6565b50505050565b6139cf8161410f565b82525050565b6139de8161410f565b82525050565b60006139ef82613828565b91506139fb8285613748565b9150613a068261384b565b9150613a128284613748565b91508190509392505050565b6000602082019050613a33600083018461366a565b92915050565b6000604082019050613a4e600083018561366a565b613a5b60208301846139d5565b9392505050565b6000606082019050613a776000830186613688565b613a84602083018561365b565b613a9160408301846139d5565b949350505050565b6000604082019050613aae6000830185613688565b613abb60208301846139d5565b9392505050565b6000608082019050613ad76000830187613688565b613ae460208301866139d5565b613af160408301856139d5565b613afe60608301846139d5565b95945050505050565b600060a082019050613b1c6000830188613688565b613b2960208301876139d5565b613b3660408301866139d5565b613b4360608301856139d5565b613b5060808301846139d5565b9695505050505050565b6000602082019050613b6f6000830184613697565b92915050565b6000602082019050613b8a60008301846136a6565b92915050565b6000602082019050613ba560008301846136b5565b92915050565b60006020820190508181036000830152613bc5818461370f565b905092915050565b60006020820190508181036000830152613be681613779565b9050919050565b60006020820190508181036000830152613c068161379c565b9050919050565b60006020820190508181036000830152613c26816137bf565b9050919050565b60006020820190508181036000830152613c46816137e2565b9050919050565b60006020820190508181036000830152613c6681613805565b9050919050565b60006020820190508181036000830152613c868161386e565b9050919050565b600061020082019050613ca36000830185613891565b613cb16101e08301846139d5565b9392505050565b600061022082019050613cce6000830186613891565b613cdc6101e08301856139d5565b613cea610200830184613697565b949350505050565b6000602082019050613d0760008301846139d5565b92915050565b6000604082019050613d2260008301856139d5565b613d2f6020830184613688565b9392505050565b6000604082019050613d4b60008301856139d5565b613d586020830184613697565b9392505050565b6000604082019050613d7460008301856139d5565b613d816020830184613700565b9392505050565b6000606082019050613d9d60008301866139d5565b613daa6020830185613700565b613db760408301846136d3565b949350505050565b6000604082019050613dd460008301856139d5565b613de160208301846139d5565b9392505050565b600060e082019050613dfd600083018a6139d5565b613e0a60208301896139d5565b613e176040830188613700565b613e2460608301876136d3565b613e3160808301866139d5565b613e3e60a08301856139d5565b613e4b60c08301846139d5565b98975050505050505050565b600060c082019050613e6c60008301896139d5565b613e7960208301886139d5565b613e866040830187613700565b613e9360608301866139d5565b613ea060808301856139d5565b613ead60a08301846139d5565b979650505050505050565b6000606082019050613ecd60008301866139d5565b613eda60208301856139d5565b613ee760408301846139d5565b949350505050565b6000613ef9613f0a565b9050613f058282614206565b919050565b6000604051905090565b600081519050919050565b600082825260208201905092915050565b600081905092915050565b6000613f468261410f565b9150613f518361410f565b9250827fffffffffffffffffffffffffffffffffffffffffffffffffffffffffffffffff03821115613f8657613f85614237565b5b828201905092915050565b6000613f9c8261410f565b9150613fa78361410f565b925082613fb757613fb6614266565b5b828204905092915050565b6000613fcd8261410f565b9150613fd88361410f565b9250817fffffffffffffffffffffffffffffffffffffffffffffffffffffffffffffffff048311821515161561401157614010614237565b5b828202905092915050565b60006140278261410f565b91506140328361410f565b92508282101561404557614044614237565b5b828203905092915050565b600061405b826140ef565b9050919050565b600061406d826140ef565b9050919050565b60008115159050919050565b6000819050919050565b60007fffffffff0000000000000000000000000000000000000000000000000000000082169050919050565b60008190506140c4826144ab565b919050565b60008190506140d7826144bf565b919050565b60008190506140ea826144d3565b919050565b600073ffffffffffffffffffffffffffffffffffffffff82169050919050565b6000819050919050565b600061412482614185565b9050919050565b60006141368261413d565b9050919050565b6000614148826140ef565b9050919050565b600061415a826140b6565b9050919050565b600061416c826140c9565b9050919050565b600061417e826140dc565b9050919050565b600061419082614197565b9050919050565b60006141a2826140ef565b9050919050565b60005b838110156141c75780820151818401526020810190506141ac565b838111156141d6576000848401525b50505050565b60006141e78261410f565b915060008214156141fb576141fa614237565b5b600182039050919050565b61420f8261432c565b810181811067ffffffffffffffff8211171561422e5761422d6142f3565b5b80604052505050565b7f4e487b7100000000000000000000000000000000000000000000000000000000600052601160045260246000fd5b7f4e487b7100000000000000000000000000000000000000000000000000000000600052601260045260246000fd5b7f4e487b7100000000000000000000000000000000000000000000000000000000600052602160045260246000fd5b7f4e487b7100000000000000000000000000000000000000000000000000000000600052603260045260246000fd5b7f4e487b7100000000000000000000000000000000000000000000000000000000600052604160045260246000fd5b600080fd5b600080fd5b6000601f19601f8301169050919050565b7f537472696e67733a20686578206c656e67746820696e73756666696369656e74600082015250565b7f4d6178207574696c69736174696f6e2062726561636865642e00000000000000600082015250565b7f4661696c6564207061796d656e742e0000000000000000000000000000000000600082015250565b7f456e7465726564207072656d69756d20696e636f72726563742e000000000000600082015250565b7f42616c616e636520696e73756666696369656e742e0000000000000000000000600082015250565b7f416363657373436f6e74726f6c3a206163636f756e7420000000000000000000600082015250565b7f206973206d697373696e6720726f6c6520000000000000000000000000000000600082015250565b7f416363657373436f6e74726f6c3a2063616e206f6e6c792072656e6f756e636560008201527f20726f6c657320666f722073656c660000000000000000000000000000000000602082015250565b600281106144bc576144bb614295565b5b50565b600481106144d0576144cf614295565b5b50565b600281106144e4576144e3614295565b5b50565b6144f081614050565b81146144fb57600080fd5b50565b61450781614062565b811461451257600080fd5b50565b61451e81614074565b811461452957600080fd5b50565b61453581614080565b811461454057600080fd5b50565b61454c8161408a565b811461455757600080fd5b50565b6002811061456757600080fd5b50565b6004811061457757600080fd5b50565b6002811061458757600080fd5b50565b6145938161410f565b811461459e57600080fd5b5056fea2646970667358221220edf0ae7ea42203d292e7d36955d171906d2a30d2f1478a31986f61a9782555f664736f6c63430008060033",
  "immutableReferences": {},
  "source": "/**\n * SPDX-License-Identifier: GPL-3.0-or-later\n * Moret\n * Copyright (C) 2021 Moret\n*/\n\npragma solidity ^0.8.4;\n\nimport \"@openzeppelin/contracts/token/ERC20/ERC20.sol\";\nimport \"@openzeppelin/contracts/access/AccessControl.sol\";\nimport \"./MoretInterfaces.sol\";\nimport \"./OptionVault.sol\";\nimport \"./VolatilityToken.sol\";\nimport \"./MarketMakerNative.sol\";\n\ncontract ExchangeNative is AccessControl, EOption\n{\nbytes32 public constant ADMIN_ROLE = keccak256(\"ADMIN_ROLE\");\n    OptionLibrary.Percent public settlementFee = OptionLibrary.Percent(5 * 10 ** 3, 10 ** 6);\n    OptionLibrary.Percent public volTransactionFees = OptionLibrary.Percent(5 * 10 ** 3, 10 ** 6);\n      address payable public contractAddress;\n\n    MarketMakerNative internal marketMaker;\n    OptionVault internal optionVault;\n\n\n        uint256 private constant ethMultiplier = 10 ** 18;\n        uint256 public maxUtilisation = 10 ** 18;\n\n    mapping(uint256=>VolatilityToken) public volTokensList;\n\n    constructor(\n      address payable _marketMakerAddress,\n      address _optionAddress,\n      address payable _volTokenAddress\n      )\n    {\n      _setupRole(DEFAULT_ADMIN_ROLE, msg.sender);\n        _setupRole(ADMIN_ROLE, msg.sender);\n\n      optionVault = OptionVault(_optionAddress);\n      marketMaker = MarketMakerNative(_marketMakerAddress);\n      VolatilityToken _volToken = VolatilityToken(_volTokenAddress);\n      volTokensList[_volToken.tenor()] = _volToken;\n      contractAddress = payable(address(this));\n    }\n\n    function queryOptionCost(uint256 _tenor, uint256 _strike, uint256 _amount,\n      OptionLibrary.PayoffType _poType, OptionLibrary.OptionSide _side)\n    public view returns(uint256)\n    {\n      (uint256 _utilPrior, uint256 _utilAfter)  = marketMaker.calcUtilisation(_amount, _poType, _side);\n      require(Math.max(_utilPrior, _utilAfter)<= maxUtilisation, \"Max utilisation breached.\");\n\n      return optionVault.queryOptionCost(_tenor, _strike, _poType, _amount, _utilPrior, _utilAfter );\n    }\n\n    function purchaseOption(uint256 _tenor, uint256 _strike, OptionLibrary.PayoffType _poType, uint256 _amount)\n    external payable {\n      uint256 _premium = queryOptionCost(_tenor, _strike, _amount, _poType,OptionLibrary.OptionSide.Buy );\n      uint256 _fee = MulDiv(_premium, settlementFee.numerator, settlementFee.denominator);\n\n      uint256 _id = optionVault.addOption(_tenor, _strike, _poType, OptionLibrary.OptionSide.Buy, _amount, _premium - _fee, _fee );\n      require(msg.value >= optionVault.queryDraftOptionCost(_id, false), \"Entered premium incorrect.\");\n      payable(address(marketMaker)).transfer(optionVault.queryOptionPremium(_id));\n\n      optionVault.stampActiveOption(_id);\n\n      marketMaker.recordOptionPurhcase(msg.sender, _id, optionVault.queryOptionPremium(_id),\n        optionVault.queryOptionExposure(_id, OptionLibrary.PayoffType.Call),\n        optionVault.queryOptionExposure(_id, OptionLibrary.PayoffType.Put));\n\n      emit newOptionBought(msg.sender, optionVault.getOption(_id), msg.value, false);\n\n    }\n\n    function purchaseOptionInVol(uint256 _tenor, uint256 _strike, OptionLibrary.PayoffType _poType, uint256 _amount,\n      uint256 _payInCost)\n      external {\n      uint256 _premium = queryOptionCost(_tenor, _strike, _amount, _poType,OptionLibrary.OptionSide.Buy );\n      uint256 _fee = MulDiv(_premium, settlementFee.numerator, settlementFee.denominator);\n\n      uint256 _id = optionVault.addOption(_tenor, _strike, _poType, OptionLibrary.OptionSide.Buy, _amount, _premium - _fee, _fee );\n      require(_payInCost >= optionVault.queryDraftOptionCost(_id, true), \"Entered premium incorrect.\");\n\n      require(volTokensList[_tenor].transferFrom(msg.sender, contractAddress, _payInCost), 'Failed payment.');\n\n      volTokensList[_tenor].approve(address(volTokensList[_tenor]), _payInCost);\n      volTokensList[_tenor].recycle(contractAddress, _payInCost);\n      payable(address(marketMaker)).transfer(optionVault.queryOptionPremium(_id));\n\n      optionVault.stampActiveOption(_id);\n\n      marketMaker.recordOptionPurhcase(msg.sender, _id, optionVault.queryOptionPremium(_id),\n        optionVault.queryOptionExposure(_id, OptionLibrary.PayoffType.Call),\n        optionVault.queryOptionExposure(_id, OptionLibrary.PayoffType.Put));\n\n      emit newOptionBought(msg.sender, optionVault.getOption(_id), _payInCost, true);\n\n    }\n\n    function getOptionPayoffValue(uint256 _id) external view returns(uint256){\n      return optionVault.getOptionPayoffValue(_id);\n    }\n\n    function exerciseOption(uint256 _id) external  {\n        optionVault.validateOption(_id, msg.sender);\n\n        uint256 _payoffValue = optionVault.getOptionPayoffValue(_id);\n        require(_payoffValue < contractAddress.balance, \"Balance insufficient.\");\n\n        optionVault.stampExercisedOption(_id);\n        payable(msg.sender).transfer(_payoffValue);\n\n        marketMaker.recordOptionRemoval(msg.sender, _id, optionVault.queryOptionPremium(_id),\n          optionVault.queryOptionExposure(_id, OptionLibrary.PayoffType.Call),\n          optionVault.queryOptionExposure(_id, OptionLibrary.PayoffType.Put));\n\n        emit optionExercised(msg.sender, optionVault.getOption(_id), _payoffValue);\n    }\n\n    function expireOption(uint256 _id) internal {\n        if(optionVault.isOptionExpiring(_id))\n        {\n            uint256 _payoffValue = optionVault.getOptionPayoffValue(_id);\n            require(_payoffValue < contractAddress.balance, \"Balance insufficient.\");\n\n            optionVault.stampExpiredOption(_id);\n\n            address payable _optionHolder = optionVault.getOptionHolder(_id);\n            payable(_optionHolder).transfer(_payoffValue);\n\n            marketMaker.recordOptionRemoval(msg.sender, _id, optionVault.queryOptionPremium(_id),\n              optionVault.queryOptionExposure(_id, OptionLibrary.PayoffType.Call),\n              optionVault.queryOptionExposure(_id, OptionLibrary.PayoffType.Put));\n        }\n    }\n\n\n      function addVolToken(address payable _tokenAddress) external onlyRole(ADMIN_ROLE)\n      {\n          VolatilityToken _volToken = VolatilityToken(_tokenAddress);\n          /* require(_volToken.descriptionHash() == optionVault.descriptionHash());\n          require(optionVault.containsTenor(_volToken.tenor())); */\n\n          volTokensList[_volToken.tenor()] = _volToken;\n\n      }\n\n      function quoteVolatilityCost(uint256 _tenor, uint256 _volAmount) public view returns(uint256, uint256)\n      {\n          /* require(optionVault.containsTenor(_tenor)); */\n\n          (uint256 _price,) = optionVault.queryPrice();\n          (uint256 _volatility, ) = optionVault.queryVol(_tenor);\n\n          uint256 _value = volTokensList[_tenor].calculateMintValue(_volAmount, _price, _volatility);\n          uint256 _fee = _value * volTransactionFees.numerator/ volTransactionFees.denominator;\n\n          return (_value, _fee);\n      }\n\n      function purchaseVolatilityToken(uint256 _tenor, uint256 _volAmount)\n      external payable {\n          (uint256 _value, uint256 _fee) = quoteVolatilityCost(_tenor, _volAmount);\n          require(msg.value >= (_value + _fee));\n\n          volTokensList[_tenor].mint{value: _value}(msg.sender, _volAmount);\n\n          emit newVolatilityTokenBought(msg.sender, block.timestamp, _tenor, _volAmount);\n      }\n\n      function sweepBalance() external onlyRole(ADMIN_ROLE){\n            payable(msg.sender).transfer(contractAddress.balance);\n      }\n\n      function resetSettlementFees(uint256 _fee, uint256 _denominator) external onlyRole(ADMIN_ROLE){\n          settlementFee = OptionLibrary.Percent(_fee, _denominator);\n      }\n\n      function resetVolTransactionFees(uint256 _fee, uint256 _denominator) external onlyRole(ADMIN_ROLE){\n          volTransactionFees = OptionLibrary.Percent(_fee, _denominator);\n      }\n\n\n\n                  function resetMaxUtilisation(uint256 _maxUtil) external onlyRole(ADMIN_ROLE){\n                      maxUtilisation = _maxUtil;\n                  }\n\n\n      function priceDecimals() external view returns(uint256){ return optionVault.priceDecimals();}\n      function queryVol(uint256 _tenor) external view returns(uint256, uint256){return optionVault.queryVol(_tenor);}\n\n          receive() external payable{}\n\n}\n",
  "sourcePath": "/Users/mac/Documents/GitHub/moret/contracts/ExchangeNative.sol",
  "compiler": {
    "name": "solc",
    "version": "0.8.6+commit.11564f7e.Emscripten.clang"
  },
  "schemaVersion": "3.4.1",
  "updatedAt": "2021-07-10T00:40:46.771Z",
  "devdoc": {
    "kind": "dev",
    "methods": {
      "getRoleAdmin(bytes32)": {
        "details": "Returns the admin role that controls `role`. See {grantRole} and {revokeRole}. To change a role's admin, use {_setRoleAdmin}."
      },
      "grantRole(bytes32,address)": {
        "details": "Grants `role` to `account`. If `account` had not been already granted `role`, emits a {RoleGranted} event. Requirements: - the caller must have ``role``'s admin role."
      },
      "hasRole(bytes32,address)": {
        "details": "Returns `true` if `account` has been granted `role`."
      },
      "renounceRole(bytes32,address)": {
        "details": "Revokes `role` from the calling account. Roles are often managed via {grantRole} and {revokeRole}: this function's purpose is to provide a mechanism for accounts to lose their privileges if they are compromised (such as when a trusted device is misplaced). If the calling account had been granted `role`, emits a {RoleRevoked} event. Requirements: - the caller must be `account`."
      },
      "revokeRole(bytes32,address)": {
        "details": "Revokes `role` from `account`. If `account` had been granted `role`, emits a {RoleRevoked} event. Requirements: - the caller must have ``role``'s admin role."
      },
      "supportsInterface(bytes4)": {
        "details": "See {IERC165-supportsInterface}."
      }
    },
    "version": 1
  },
  "userdoc": {
    "kind": "user",
    "methods": {},
    "version": 1
  }
}