{
  "contractName": "Exchange",
  "abi": [
    {
      "inputs": [
        {
          "internalType": "address",
          "name": "_marketMakerAddress",
          "type": "address"
        },
        {
          "internalType": "address",
          "name": "_optionAddress",
          "type": "address"
        }
      ],
      "stateMutability": "nonpayable",
      "type": "constructor"
    },
    {
      "anonymous": false,
      "inputs": [
        {
          "indexed": true,
          "internalType": "bytes32",
          "name": "role",
          "type": "bytes32"
        },
        {
          "indexed": true,
          "internalType": "bytes32",
          "name": "previousAdminRole",
          "type": "bytes32"
        },
        {
          "indexed": true,
          "internalType": "bytes32",
          "name": "newAdminRole",
          "type": "bytes32"
        }
      ],
      "name": "RoleAdminChanged",
      "type": "event"
    },
    {
      "anonymous": false,
      "inputs": [
        {
          "indexed": true,
          "internalType": "bytes32",
          "name": "role",
          "type": "bytes32"
        },
        {
          "indexed": true,
          "internalType": "address",
          "name": "account",
          "type": "address"
        },
        {
          "indexed": true,
          "internalType": "address",
          "name": "sender",
          "type": "address"
        }
      ],
      "name": "RoleGranted",
      "type": "event"
    },
    {
      "anonymous": false,
      "inputs": [
        {
          "indexed": true,
          "internalType": "bytes32",
          "name": "role",
          "type": "bytes32"
        },
        {
          "indexed": true,
          "internalType": "address",
          "name": "account",
          "type": "address"
        },
        {
          "indexed": true,
          "internalType": "address",
          "name": "sender",
          "type": "address"
        }
      ],
      "name": "RoleRevoked",
      "type": "event"
    },
    {
      "anonymous": false,
      "inputs": [
        {
          "indexed": false,
          "internalType": "address",
          "name": "_recipient",
          "type": "address"
        },
        {
          "indexed": false,
          "internalType": "uint256",
          "name": "_mintMPTokenAmount",
          "type": "uint256"
        },
        {
          "indexed": false,
          "internalType": "uint256",
          "name": "_addedValue",
          "type": "uint256"
        }
      ],
      "name": "capitalAdded",
      "type": "event"
    },
    {
      "anonymous": false,
      "inputs": [
        {
          "indexed": false,
          "internalType": "address",
          "name": "_recipient",
          "type": "address"
        },
        {
          "indexed": false,
          "internalType": "uint256",
          "name": "_burnMPTokenAmount",
          "type": "uint256"
        },
        {
          "indexed": false,
          "internalType": "uint256",
          "name": "_withdrawValue",
          "type": "uint256"
        }
      ],
      "name": "capitalWithdrawn",
      "type": "event"
    },
    {
      "anonymous": false,
      "inputs": [
        {
          "indexed": true,
          "internalType": "address",
          "name": "_purchaser",
          "type": "address"
        },
        {
          "components": [
            {
              "internalType": "enum OptionLibrary.PayoffType",
              "name": "poType",
              "type": "uint8"
            },
            {
              "internalType": "enum OptionLibrary.OptionSide",
              "name": "side",
              "type": "uint8"
            },
            {
              "internalType": "enum OptionLibrary.OptionStatus",
              "name": "status",
              "type": "uint8"
            },
            {
              "internalType": "address",
              "name": "holder",
              "type": "address"
            },
            {
              "internalType": "uint256",
              "name": "id",
              "type": "uint256"
            },
            {
              "internalType": "uint256",
              "name": "createTime",
              "type": "uint256"
            },
            {
              "internalType": "uint256",
              "name": "effectiveTime",
              "type": "uint256"
            },
            {
              "internalType": "uint256",
              "name": "tenor",
              "type": "uint256"
            },
            {
              "internalType": "uint256",
              "name": "maturity",
              "type": "uint256"
            },
            {
              "internalType": "uint256",
              "name": "exerciseTime",
              "type": "uint256"
            },
            {
              "internalType": "uint256",
              "name": "amount",
              "type": "uint256"
            },
            {
              "internalType": "uint256",
              "name": "spot",
              "type": "uint256"
            },
            {
              "internalType": "uint256",
              "name": "strike",
              "type": "uint256"
            },
            {
              "internalType": "uint256",
              "name": "volatility",
              "type": "uint256"
            },
            {
              "internalType": "uint256",
              "name": "premium",
              "type": "uint256"
            },
            {
              "internalType": "uint256",
              "name": "cost",
              "type": "uint256"
            }
          ],
          "indexed": false,
          "internalType": "struct OptionLibrary.Option",
          "name": "_option",
          "type": "tuple"
        },
        {
          "indexed": false,
          "internalType": "uint256",
          "name": "_cost",
          "type": "uint256"
        },
        {
          "indexed": false,
          "internalType": "bool",
          "name": "_inVol",
          "type": "bool"
        }
      ],
      "name": "newOptionBought",
      "type": "event"
    },
    {
      "anonymous": false,
      "inputs": [
        {
          "indexed": false,
          "internalType": "address",
          "name": "_purchaser",
          "type": "address"
        },
        {
          "indexed": false,
          "internalType": "uint256",
          "name": "_time",
          "type": "uint256"
        },
        {
          "indexed": false,
          "internalType": "uint256",
          "name": "_tenor",
          "type": "uint256"
        },
        {
          "indexed": false,
          "internalType": "uint256",
          "name": "_amount",
          "type": "uint256"
        }
      ],
      "name": "newVolatilityTokenBought",
      "type": "event"
    },
    {
      "anonymous": false,
      "inputs": [
        {
          "indexed": true,
          "internalType": "address",
          "name": "_purchaser",
          "type": "address"
        },
        {
          "components": [
            {
              "internalType": "enum OptionLibrary.PayoffType",
              "name": "poType",
              "type": "uint8"
            },
            {
              "internalType": "enum OptionLibrary.OptionSide",
              "name": "side",
              "type": "uint8"
            },
            {
              "internalType": "enum OptionLibrary.OptionStatus",
              "name": "status",
              "type": "uint8"
            },
            {
              "internalType": "address",
              "name": "holder",
              "type": "address"
            },
            {
              "internalType": "uint256",
              "name": "id",
              "type": "uint256"
            },
            {
              "internalType": "uint256",
              "name": "createTime",
              "type": "uint256"
            },
            {
              "internalType": "uint256",
              "name": "effectiveTime",
              "type": "uint256"
            },
            {
              "internalType": "uint256",
              "name": "tenor",
              "type": "uint256"
            },
            {
              "internalType": "uint256",
              "name": "maturity",
              "type": "uint256"
            },
            {
              "internalType": "uint256",
              "name": "exerciseTime",
              "type": "uint256"
            },
            {
              "internalType": "uint256",
              "name": "amount",
              "type": "uint256"
            },
            {
              "internalType": "uint256",
              "name": "spot",
              "type": "uint256"
            },
            {
              "internalType": "uint256",
              "name": "strike",
              "type": "uint256"
            },
            {
              "internalType": "uint256",
              "name": "volatility",
              "type": "uint256"
            },
            {
              "internalType": "uint256",
              "name": "premium",
              "type": "uint256"
            },
            {
              "internalType": "uint256",
              "name": "cost",
              "type": "uint256"
            }
          ],
          "indexed": false,
          "internalType": "struct OptionLibrary.Option",
          "name": "_option",
          "type": "tuple"
        },
        {
          "indexed": false,
          "internalType": "uint256",
          "name": "_payoff",
          "type": "uint256"
        }
      ],
      "name": "optionExercised",
      "type": "event"
    },
    {
      "inputs": [],
      "name": "DEFAULT_ADMIN_ROLE",
      "outputs": [
        {
          "internalType": "bytes32",
          "name": "",
          "type": "bytes32"
        }
      ],
      "stateMutability": "view",
      "type": "function",
      "constant": true
    },
    {
      "inputs": [],
      "name": "MINER_ROLE",
      "outputs": [
        {
          "internalType": "bytes32",
          "name": "",
          "type": "bytes32"
        }
      ],
      "stateMutability": "view",
      "type": "function",
      "constant": true
    },
    {
      "inputs": [],
      "name": "allowTrading",
      "outputs": [
        {
          "internalType": "bool",
          "name": "",
          "type": "bool"
        }
      ],
      "stateMutability": "view",
      "type": "function",
      "constant": true
    },
    {
      "inputs": [
        {
          "internalType": "bytes32",
          "name": "role",
          "type": "bytes32"
        }
      ],
      "name": "getRoleAdmin",
      "outputs": [
        {
          "internalType": "bytes32",
          "name": "",
          "type": "bytes32"
        }
      ],
      "stateMutability": "view",
      "type": "function",
      "constant": true
    },
    {
      "inputs": [
        {
          "internalType": "bytes32",
          "name": "role",
          "type": "bytes32"
        },
        {
          "internalType": "address",
          "name": "account",
          "type": "address"
        }
      ],
      "name": "grantRole",
      "outputs": [],
      "stateMutability": "nonpayable",
      "type": "function"
    },
    {
      "inputs": [
        {
          "internalType": "bytes32",
          "name": "role",
          "type": "bytes32"
        },
        {
          "internalType": "address",
          "name": "account",
          "type": "address"
        }
      ],
      "name": "hasRole",
      "outputs": [
        {
          "internalType": "bool",
          "name": "",
          "type": "bool"
        }
      ],
      "stateMutability": "view",
      "type": "function",
      "constant": true
    },
    {
      "inputs": [],
      "name": "loanInterest",
      "outputs": [
        {
          "internalType": "uint256",
          "name": "",
          "type": "uint256"
        }
      ],
      "stateMutability": "view",
      "type": "function",
      "constant": true
    },
    {
      "inputs": [],
      "name": "marketMakerAddress",
      "outputs": [
        {
          "internalType": "address",
          "name": "",
          "type": "address"
        }
      ],
      "stateMutability": "view",
      "type": "function",
      "constant": true
    },
    {
      "inputs": [
        {
          "internalType": "bytes32",
          "name": "role",
          "type": "bytes32"
        },
        {
          "internalType": "address",
          "name": "account",
          "type": "address"
        }
      ],
      "name": "renounceRole",
      "outputs": [],
      "stateMutability": "nonpayable",
      "type": "function"
    },
    {
      "inputs": [
        {
          "internalType": "bytes32",
          "name": "role",
          "type": "bytes32"
        },
        {
          "internalType": "address",
          "name": "account",
          "type": "address"
        }
      ],
      "name": "revokeRole",
      "outputs": [],
      "stateMutability": "nonpayable",
      "type": "function"
    },
    {
      "inputs": [
        {
          "internalType": "bytes4",
          "name": "interfaceId",
          "type": "bytes4"
        }
      ],
      "name": "supportsInterface",
      "outputs": [
        {
          "internalType": "bool",
          "name": "",
          "type": "bool"
        }
      ],
      "stateMutability": "view",
      "type": "function",
      "constant": true
    },
    {
      "inputs": [],
      "name": "volRiskPremiumMaxRatio",
      "outputs": [
        {
          "internalType": "uint256",
          "name": "",
          "type": "uint256"
        }
      ],
      "stateMutability": "view",
      "type": "function",
      "constant": true
    },
    {
      "inputs": [
        {
          "internalType": "uint256",
          "name": "_tenor",
          "type": "uint256"
        },
        {
          "internalType": "uint256",
          "name": "_strike",
          "type": "uint256"
        },
        {
          "internalType": "uint256",
          "name": "_amount",
          "type": "uint256"
        },
        {
          "internalType": "enum OptionLibrary.PayoffType",
          "name": "_poType",
          "type": "uint8"
        },
        {
          "internalType": "enum OptionLibrary.OptionSide",
          "name": "_side",
          "type": "uint8"
        }
      ],
      "name": "calcOptionCost",
      "outputs": [
        {
          "internalType": "uint256",
          "name": "_premium",
          "type": "uint256"
        },
        {
          "internalType": "uint256",
          "name": "_cost",
          "type": "uint256"
        },
        {
          "internalType": "uint256",
          "name": "_price",
          "type": "uint256"
        },
        {
          "internalType": "uint256",
          "name": "_vol",
          "type": "uint256"
        }
      ],
      "stateMutability": "view",
      "type": "function",
      "constant": true
    },
    {
      "inputs": [
        {
          "internalType": "uint256",
          "name": "_tenor",
          "type": "uint256"
        },
        {
          "internalType": "uint256",
          "name": "_strike",
          "type": "uint256"
        },
        {
          "internalType": "uint256",
          "name": "_amount",
          "type": "uint256"
        },
        {
          "internalType": "enum OptionLibrary.OptionSide",
          "name": "_side",
          "type": "uint8"
        }
      ],
      "name": "queryOptionVolatility",
      "outputs": [
        {
          "internalType": "uint256",
          "name": "_vol",
          "type": "uint256"
        }
      ],
      "stateMutability": "view",
      "type": "function",
      "constant": true
    },
    {
      "inputs": [
        {
          "internalType": "uint256",
          "name": "_tenor",
          "type": "uint256"
        },
        {
          "internalType": "uint256",
          "name": "_strike",
          "type": "uint256"
        },
        {
          "internalType": "uint256",
          "name": "_amount",
          "type": "uint256"
        },
        {
          "internalType": "enum OptionLibrary.PayoffType",
          "name": "_poType",
          "type": "uint8"
        },
        {
          "internalType": "enum OptionLibrary.OptionSide",
          "name": "_side",
          "type": "uint8"
        },
        {
          "internalType": "uint256",
          "name": "_payInCost",
          "type": "uint256"
        }
      ],
      "name": "purchaseOption",
      "outputs": [],
      "stateMutability": "nonpayable",
      "type": "function"
    },
    {
      "inputs": [
        {
          "internalType": "uint256",
          "name": "_id",
          "type": "uint256"
        }
      ],
      "name": "getOptionPayoffValue",
      "outputs": [
        {
          "internalType": "uint256",
          "name": "_payback",
          "type": "uint256"
        }
      ],
      "stateMutability": "view",
      "type": "function",
      "constant": true
    },
    {
      "inputs": [
        {
          "internalType": "uint256",
          "name": "_loanInterest",
          "type": "uint256"
        }
      ],
      "name": "resetLoanRate",
      "outputs": [],
      "stateMutability": "nonpayable",
      "type": "function"
    },
    {
      "inputs": [
        {
          "internalType": "uint256",
          "name": "_newRatio",
          "type": "uint256"
        }
      ],
      "name": "resetRiskPremiumMaxRatio",
      "outputs": [],
      "stateMutability": "nonpayable",
      "type": "function"
    },
    {
      "inputs": [
        {
          "internalType": "bool",
          "name": "_allowTrading",
          "type": "bool"
        }
      ],
      "name": "resetTrading",
      "outputs": [],
      "stateMutability": "nonpayable",
      "type": "function"
    },
    {
      "inputs": [],
      "name": "queryPrice",
      "outputs": [
        {
          "internalType": "uint256",
          "name": "",
          "type": "uint256"
        },
        {
          "internalType": "uint256",
          "name": "",
          "type": "uint256"
        }
      ],
      "stateMutability": "view",
      "type": "function",
      "constant": true
    },
    {
      "inputs": [
        {
          "internalType": "uint256",
          "name": "_tenor",
          "type": "uint256"
        }
      ],
      "name": "queryVol",
      "outputs": [
        {
          "internalType": "uint256",
          "name": "",
          "type": "uint256"
        }
      ],
      "stateMutability": "view",
      "type": "function",
      "constant": true
    }
  ],
  "bytecode": "0x60806040526718fae27693b4000060045560006005556001600660006101000a81548160ff0219169083151502179055503480156200003d57600080fd5b5060405162003a1c38038062003a1c833981810160405281019062000063919062000358565b620000786000801b336200017560201b60201c565b620000aa7fa952726ef2588ad078edf35b066f7c7406e207cb0003bbaba8cb53eba9553e72336200017560201b60201c565b80600360006101000a81548173ffffffffffffffffffffffffffffffffffffffff021916908373ffffffffffffffffffffffffffffffffffffffff16021790555081600160006101000a81548173ffffffffffffffffffffffffffffffffffffffff021916908373ffffffffffffffffffffffffffffffffffffffff16021790555081600260006101000a81548173ffffffffffffffffffffffffffffffffffffffff021916908373ffffffffffffffffffffffffffffffffffffffff16021790555050506200039f565b6200018782826200018b60201b60201c565b5050565b6200019d82826200027c60201b60201c565b6200027857600160008084815260200190815260200160002060000160008373ffffffffffffffffffffffffffffffffffffffff1673ffffffffffffffffffffffffffffffffffffffff16815260200190815260200160002060006101000a81548160ff0219169083151502179055506200021d620002e660201b60201c565b73ffffffffffffffffffffffffffffffffffffffff168173ffffffffffffffffffffffffffffffffffffffff16837f2f8788117e7eff1d82e926ec794901d17c78024a50270940304540a733656f0d60405160405180910390a45b5050565b600080600084815260200190815260200160002060000160008373ffffffffffffffffffffffffffffffffffffffff1673ffffffffffffffffffffffffffffffffffffffff16815260200190815260200160002060009054906101000a900460ff16905092915050565b600033905090565b600080fd5b600073ffffffffffffffffffffffffffffffffffffffff82169050919050565b60006200032082620002f3565b9050919050565b620003328162000313565b81146200033e57600080fd5b50565b600081519050620003528162000327565b92915050565b60008060408385031215620003725762000371620002ee565b5b6000620003828582860162000341565b9250506020620003958582860162000341565b9150509250929050565b61366d80620003af6000396000f3fe608060405234801561001057600080fd5b50600436106101375760003560e01c806385e6be8b116100b8578063a34a1e4d1161007c578063a34a1e4d14610363578063a7292ea41461037f578063b0667cf81461039d578063cc910588146103bc578063cfc2dc20146103da578063d547741f1461040a57610137565b806385e6be8b146102aa578063896b5b1d146102c65780638d4939c6146102f957806391d1485414610315578063a217fddf1461034557610137565b80632f2ff15d116100ff5780632f2ff15d146101f457806336568abe1461021057806340d6eaab1461022c5780636394f6e61461025c5780636a7d116f1461027a57610137565b806301ffc9a71461013c5780630875c6b11461016c5780630c64307d1461018a578063248a9ca3146101a65780632e5b4c43146101d6575b600080fd5b610156600480360381019061015191906122b8565b610426565b6040516101639190612300565b60405180910390f35b6101746104a0565b6040516101819190612334565b60405180910390f35b6101a4600480360381019061019f919061237b565b6104a6565b005b6101c060048036038101906101bb91906123de565b6104e3565b6040516101cd919061241a565b60405180910390f35b6101de610502565b6040516101eb9190612300565b60405180910390f35b61020e60048036038101906102099190612493565b610515565b005b61022a60048036038101906102259190612493565b61053e565b005b6102466004803603810190610241919061237b565b6105c1565b6040516102539190612334565b60405180910390f35b610264610678565b604051610271919061241a565b60405180910390f35b610294600480360381019061028f91906124f8565b61069c565b6040516102a19190612334565b60405180910390f35b6102c460048036038101906102bf919061237b565b61087e565b005b6102e060048036038101906102db9190612584565b61089e565b6040516102f094939291906125ff565b60405180910390f35b610313600480360381019061030e9190612670565b610ef0565b005b61032f600480360381019061032a9190612493565b610f23565b60405161033c9190612300565b60405180910390f35b61034d610f8d565b60405161035a919061241a565b60405180910390f35b61037d6004803603810190610378919061269d565b610f94565b005b61038761132f565b6040516103949190612334565b60405180910390f35b6103a5611335565b6040516103b392919061272a565b60405180910390f35b6103c46113df565b6040516103d19190612762565b60405180910390f35b6103f460048036038101906103ef919061237b565b611405565b6040516104019190612334565b60405180910390f35b610424600480360381019061041f9190612493565b6114b9565b005b60007f7965db0b000000000000000000000000000000000000000000000000000000007bffffffffffffffffffffffffffffffffffffffffffffffffffffffff1916827bffffffffffffffffffffffffffffffffffffffffffffffffffffffff191614806104995750610498826114e2565b5b9050919050565b60045481565b7fa952726ef2588ad078edf35b066f7c7406e207cb0003bbaba8cb53eba9553e726104d8816104d361154c565b611554565b816005819055505050565b6000806000838152602001908152602001600020600101549050919050565b600660009054906101000a900460ff1681565b61051e826104e3565b61052f8161052a61154c565b611554565b61053983836115f1565b505050565b61054661154c565b73ffffffffffffffffffffffffffffffffffffffff168173ffffffffffffffffffffffffffffffffffffffff16146105b3576040517f08c379a00000000000000000000000000000000000000000000000000000000081526004016105aa90612800565b60405180910390fd5b6105bd82826116d1565b5050565b6000600360009054906101000a900473ffffffffffffffffffffffffffffffffffffffff1673ffffffffffffffffffffffffffffffffffffffff166385ae10e6836040518263ffffffff1660e01b815260040161061e9190612334565b604080518083038186803b15801561063557600080fd5b505afa158015610649573d6000803e3d6000fd5b505050506040513d601f19601f8201168201806040525081019061066d9190612835565b905080915050919050565b7fa952726ef2588ad078edf35b066f7c7406e207cb0003bbaba8cb53eba9553e7281565b6000600360009054906101000a900473ffffffffffffffffffffffffffffffffffffffff1673ffffffffffffffffffffffffffffffffffffffff1663cfc2dc20866040518263ffffffff1660e01b81526004016106f99190612334565b60206040518083038186803b15801561071157600080fd5b505afa158015610725573d6000803e3d6000fd5b505050506040513d601f19601f820116820180604052508101906107499190612875565b90506000600360009054906101000a900473ffffffffffffffffffffffffffffffffffffffff1673ffffffffffffffffffffffffffffffffffffffff1663b0667cf86040518163ffffffff1660e01b8152600401604080518083038186803b1580156107b457600080fd5b505afa1580156107c8573d6000803e3d6000fd5b505050506040513d601f19601f820116820180604052508101906107ec9190612835565b50905060006107fe82848888886117b2565b90506000818461080e91906128db565b1361084e576040517f08c379a0000000000000000000000000000000000000000000000000000000008152600401610845906129bb565b60405180910390fd5b6000811261085c5780610867565b80610866906129db565b5b836108729190612a24565b92505050949350505050565b6000801b6108938161088e61154c565b611554565b816004819055505050565b6000806000806108b08989898861069c565b9050600073__OptionLibrary_________________________63508cd14e8a6000600260009054906101000a900473ffffffffffffffffffffffffffffffffffffffff1673ffffffffffffffffffffffffffffffffffffffff16631aedeabe6040518163ffffffff1660e01b815260040160206040518083038186803b15801561093957600080fd5b505afa15801561094d573d6000803e3d6000fd5b505050506040513d601f19601f820116820180604052508101906109719190612875565b60006040518563ffffffff1660e01b81526004016109929493929190612add565b60206040518083038186803b1580156109aa57600080fd5b505af41580156109be573d6000803e3d6000fd5b505050506040513d601f19601f820116820180604052508101906109e29190612875565b90506001808111156109f7576109f6612b22565b5b876001811115610a0a57610a09612b22565b5b148015610a3b575060006001811115610a2657610a25612b22565b5b866001811115610a3957610a38612b22565b5b145b80610a99575060006001811115610a5557610a54612b22565b5b876001811115610a6857610a67612b22565b5b148015610a985750600180811115610a8357610a82612b22565b5b866001811115610a9657610a95612b22565b5b145b5b15610bd05773__OptionLibrary_________________________63508cd14e8a6001600260009054906101000a900473ffffffffffffffffffffffffffffffffffffffff1673ffffffffffffffffffffffffffffffffffffffff16631aedeabe6040518163ffffffff1660e01b815260040160206040518083038186803b158015610b2357600080fd5b505afa158015610b37573d6000803e3d6000fd5b505050506040513d601f19601f82011682018060405250810190610b5b9190612875565b6005546040518563ffffffff1660e01b8152600401610b7d9493929190612b51565b60206040518083038186803b158015610b9557600080fd5b505af4158015610ba9573d6000803e3d6000fd5b505050506040513d601f19601f82011682018060405250810190610bcd9190612875565b90505b600360009054906101000a900473ffffffffffffffffffffffffffffffffffffffff1673ffffffffffffffffffffffffffffffffffffffff166376df2d08828a858b8b6040518663ffffffff1660e01b8152600401610c33959493929190612c26565b60606040518083038186803b158015610c4b57600080fd5b505afa158015610c5f573d6000803e3d6000fd5b505050506040513d601f19601f82011682018060405250810190610c839190612c79565b80955081965082975050505073__MarketLibrary_________________________638170ce8086600260009054906101000a900473ffffffffffffffffffffffffffffffffffffffff1673ffffffffffffffffffffffffffffffffffffffff1663d3b7bfb46040518163ffffffff1660e01b815260040160206040518083038186803b158015610d1257600080fd5b505afa158015610d26573d6000803e3d6000fd5b505050506040513d601f19601f82011682018060405250810190610d4a9190612ce1565b6040518363ffffffff1660e01b8152600401610d67929190612d1d565b60206040518083038186803b158015610d7f57600080fd5b505af4158015610d93573d6000803e3d6000fd5b505050506040513d601f19601f82011682018060405250810190610db79190612875565b945073__MarketLibrary_________________________638170ce8085600260009054906101000a900473ffffffffffffffffffffffffffffffffffffffff1673ffffffffffffffffffffffffffffffffffffffff1663d3b7bfb46040518163ffffffff1660e01b815260040160206040518083038186803b158015610e3c57600080fd5b505afa158015610e50573d6000803e3d6000fd5b505050506040513d601f19601f82011682018060405250810190610e749190612ce1565b6040518363ffffffff1660e01b8152600401610e91929190612d1d565b60206040518083038186803b158015610ea957600080fd5b505af4158015610ebd573d6000803e3d6000fd5b505050506040513d601f19601f82011682018060405250810190610ee19190612875565b93505095509550955095915050565b6000801b610f0581610f0061154c565b611554565b81600660006101000a81548160ff0219169083151502179055505050565b600080600084815260200190815260200160002060000160008373ffffffffffffffffffffffffffffffffffffffff1673ffffffffffffffffffffffffffffffffffffffff16815260200190815260200160002060009054906101000a900460ff16905092915050565b6000801b81565b600660009054906101000a900460ff16610fe3576040517f08c379a0000000000000000000000000000000000000000000000000000000008152600401610fda90612d92565b60405180910390fd5b600080600080610ff68a8a8a8a8a61089e565b935093509350935082851015611041576040517f08c379a000000000000000000000000000000000000000000000000000000000815260040161103890612dfe565b60405180910390fd5b6000600360009054906101000a900473ffffffffffffffffffffffffffffffffffffffff1673ffffffffffffffffffffffffffffffffffffffff1663b5310ff98c8c8c8c8c8b8b8b8b336040518b63ffffffff1660e01b81526004016110b09a99989796959493929190612e1e565b602060405180830381600087803b1580156110ca57600080fd5b505af11580156110de573d6000803e3d6000fd5b505050506040513d601f19601f820116820180604052508101906111029190612875565b9050600260009054906101000a900473ffffffffffffffffffffffffffffffffffffffff1673ffffffffffffffffffffffffffffffffffffffff1663d3b7bfb46040518163ffffffff1660e01b815260040160206040518083038186803b15801561116c57600080fd5b505afa158015611180573d6000803e3d6000fd5b505050506040513d601f19601f820116820180604052508101906111a49190612ce1565b73ffffffffffffffffffffffffffffffffffffffff166323b872dd33600260009054906101000a900473ffffffffffffffffffffffffffffffffffffffff16896040518463ffffffff1660e01b815260040161120293929190612eba565b602060405180830381600087803b15801561121c57600080fd5b505af1158015611230573d6000803e3d6000fd5b505050506040513d601f19601f820116820180604052508101906112549190612f06565b611293576040517f08c379a000000000000000000000000000000000000000000000000000000000815260040161128a90612f7f565b60405180910390fd5b600360009054906101000a900473ffffffffffffffffffffffffffffffffffffffff1673ffffffffffffffffffffffffffffffffffffffff166324b4110e82336040518363ffffffff1660e01b81526004016112f0929190612f9f565b600060405180830381600087803b15801561130a57600080fd5b505af115801561131e573d6000803e3d6000fd5b505050505050505050505050505050565b60055481565b600080600360009054906101000a900473ffffffffffffffffffffffffffffffffffffffff1673ffffffffffffffffffffffffffffffffffffffff1663b0667cf86040518163ffffffff1660e01b8152600401604080518083038186803b15801561139f57600080fd5b505afa1580156113b3573d6000803e3d6000fd5b505050506040513d601f19601f820116820180604052508101906113d79190612835565b915091509091565b600160009054906101000a900473ffffffffffffffffffffffffffffffffffffffff1681565b6000600360009054906101000a900473ffffffffffffffffffffffffffffffffffffffff1673ffffffffffffffffffffffffffffffffffffffff1663cfc2dc20836040518263ffffffff1660e01b81526004016114629190612334565b60206040518083038186803b15801561147a57600080fd5b505afa15801561148e573d6000803e3d6000fd5b505050506040513d601f19601f820116820180604052508101906114b29190612875565b9050919050565b6114c2826104e3565b6114d3816114ce61154c565b611554565b6114dd83836116d1565b505050565b60007f01ffc9a7000000000000000000000000000000000000000000000000000000007bffffffffffffffffffffffffffffffffffffffffffffffffffffffff1916827bffffffffffffffffffffffffffffffffffffffffffffffffffffffff1916149050919050565b600033905090565b61155e8282610f23565b6115ed576115838173ffffffffffffffffffffffffffffffffffffffff166014611bed565b6115918360001c6020611bed565b6040516020016115a29291906130da565b6040516020818303038152906040526040517f08c379a00000000000000000000000000000000000000000000000000000000081526004016115e4919061315e565b60405180910390fd5b5050565b6115fb8282610f23565b6116cd57600160008084815260200190815260200160002060000160008373ffffffffffffffffffffffffffffffffffffffff1673ffffffffffffffffffffffffffffffffffffffff16815260200190815260200160002060006101000a81548160ff02191690831515021790555061167261154c565b73ffffffffffffffffffffffffffffffffffffffff168173ffffffffffffffffffffffffffffffffffffffff16837f2f8788117e7eff1d82e926ec794901d17c78024a50270940304540a733656f0d60405160405180910390a45b5050565b6116db8282610f23565b156117ae57600080600084815260200190815260200160002060000160008373ffffffffffffffffffffffffffffffffffffffff1673ffffffffffffffffffffffffffffffffffffffff16815260200190815260200160002060006101000a81548160ff02191690831515021790555061175361154c565b73ffffffffffffffffffffffffffffffffffffffff168173ffffffffffffffffffffffffffffffffffffffff16837ff6391f5c32d9c69d2a47ea670b442974b53935d1edc7fd64eb21e047a839171b60405160405180910390a45b5050565b6000806118f773__OptionLibrary_________________________639932b2be898a8a6040518463ffffffff1660e01b81526004016117f393929190613180565b60206040518083038186803b15801561180b57600080fd5b505af415801561181f573d6000803e3d6000fd5b505050506040513d601f19601f820116820180604052508101906118439190612875565b600260009054906101000a900473ffffffffffffffffffffffffffffffffffffffff1673ffffffffffffffffffffffffffffffffffffffff1663634479026000806040518363ffffffff1660e01b81526004016118a19291906131b7565b60206040518083038186803b1580156118b957600080fd5b505afa1580156118cd573d6000803e3d6000fd5b505050506040513d601f19601f820116820180604052508101906118f19190612875565b89611e29565b90506000600360009054906101000a900473ffffffffffffffffffffffffffffffffffffffff1673ffffffffffffffffffffffffffffffffffffffff1663ea3d612d60006040518263ffffffff1660e01b81526004016119579190612300565b60206040518083038186803b15801561196f57600080fd5b505afa158015611983573d6000803e3d6000fd5b505050506040513d601f19601f820116820180604052508101906119a7919061320c565b905060006001808111156119be576119bd612b22565b5b8560018111156119d1576119d0612b22565b5b146119dd5760016119ff565b7fffffffffffffffffffffffffffffffffffffffffffffffffffffffffffffffff5b611b0f73__OptionLibrary_________________________639932b2be8c8b8d6040518463ffffffff1660e01b8152600401611a3d93929190613180565b60206040518083038186803b158015611a5557600080fd5b505af4158015611a69573d6000803e3d6000fd5b505050506040513d601f19601f82011682018060405250810190611a8d9190612875565b8873__OptionLibrary_________________________63fd9b87636040518163ffffffff1660e01b815260040160206040518083038186803b158015611ad257600080fd5b505af4158015611ae6573d6000803e3d6000fd5b505050506040513d601f19601f82011682018060405250810190611b0a9190612875565b611e29565b611b199190613239565b82611b2491906128db565b90506000611bb08960045473__OptionLibrary_________________________63fd9b87636040518163ffffffff1660e01b815260040160206040518083038186803b158015611b7357600080fd5b505af4158015611b87573d6000803e3d6000fd5b505050506040513d601f19601f82011682018060405250810190611bab9190612875565b611e29565b90506002611bbf858484611f25565b611bca868685611f25565b611bd491906128db565b611bde919061337f565b94505050505095945050505050565b606060006002836002611c0091906133e9565b611c0a9190612a24565b67ffffffffffffffff811115611c2357611c22613443565b5b6040519080825280601f01601f191660200182016040528015611c555781602001600182028036833780820191505090505b5090507f300000000000000000000000000000000000000000000000000000000000000081600081518110611c8d57611c8c613472565b5b60200101907effffffffffffffffffffffffffffffffffffffffffffffffffffffffffffff1916908160001a9053507f780000000000000000000000000000000000000000000000000000000000000081600181518110611cf157611cf0613472565b5b60200101907effffffffffffffffffffffffffffffffffffffffffffffffffffffffffffff1916908160001a90535060006001846002611d3191906133e9565b611d3b9190612a24565b90505b6001811115611ddb577f3031323334353637383961626364656600000000000000000000000000000000600f861660108110611d7d57611d7c613472565b5b1a60f81b828281518110611d9457611d93613472565b5b60200101907effffffffffffffffffffffffffffffffffffffffffffffffffffffffffffff1916908160001a905350600485901c945080611dd4906134a1565b9050611d3e565b5060008414611e1f576040517f08c379a0000000000000000000000000000000000000000000000000000000008152600401611e1690613517565b60405180910390fd5b8091505092915050565b600080600080198587098587029250828110838203039150506000811415611e645760008411611e5857600080fd5b83820492505050611f1e565b808411611e7057600080fd5b60008486880990508281118203915080830392506000856001877fffffffffffffffffffffffffffffffffffffffffffffffffffffffffffffffff0301169050808604955080840493506001818260000304019050808302841793506000600287600302189050808702600203810290508087026002038102905080870260020381029050808702600203810290508087026002038102905080870260020381029050808502955050505050505b9392505050565b60008073__OptionLibrary_________________________63fd9b87636040518163ffffffff1660e01b815260040160206040518083038186803b158015611f6c57600080fd5b505af4158015611f80573d6000803e3d6000fd5b505050506040513d601f19601f82011682018060405250810190611fa49190612875565b9050600084121561204c5761203e84611fbc906129db565b73__OptionLibrary_________________________63fd9b87636040518163ffffffff1660e01b815260040160206040518083038186803b15801561200057600080fd5b505af4158015612014573d6000803e3d6000fd5b505050506040513d601f19601f820116820180604052508101906120389190612875565b87611e29565b8161204991906128db565b90505b60008413156120e9576120db8473__OptionLibrary_________________________63fd9b87636040518163ffffffff1660e01b815260040160206040518083038186803b15801561209d57600080fd5b505af41580156120b1573d6000803e3d6000fd5b505050506040513d601f19601f820116820180604052508101906120d59190612875565b87611e29565b816120e69190613537565b90505b60008112158015612181575073__OptionLibrary_________________________63fd9b87636040518163ffffffff1660e01b815260040160206040518083038186803b15801561213957600080fd5b505af415801561214d573d6000803e3d6000fd5b505050506040513d601f19601f820116820180604052508101906121719190612875565b600261217d91906133e9565b8113155b6121c0576040517f08c379a00000000000000000000000000000000000000000000000000000000081526004016121b790613617565b60405180910390fd5b826122478473__OptionLibrary_________________________63fd9b87636040518163ffffffff1660e01b815260040160206040518083038186803b15801561220957600080fd5b505af415801561221d573d6000803e3d6000fd5b505050506040513d601f19601f820116820180604052508101906122419190612875565b84611e29565b6122519190613537565b9150509392505050565b600080fd5b60007fffffffff0000000000000000000000000000000000000000000000000000000082169050919050565b61229581612260565b81146122a057600080fd5b50565b6000813590506122b28161228c565b92915050565b6000602082840312156122ce576122cd61225b565b5b60006122dc848285016122a3565b91505092915050565b60008115159050919050565b6122fa816122e5565b82525050565b600060208201905061231560008301846122f1565b92915050565b6000819050919050565b61232e8161231b565b82525050565b60006020820190506123496000830184612325565b92915050565b6123588161231b565b811461236357600080fd5b50565b6000813590506123758161234f565b92915050565b6000602082840312156123915761239061225b565b5b600061239f84828501612366565b91505092915050565b6000819050919050565b6123bb816123a8565b81146123c657600080fd5b50565b6000813590506123d8816123b2565b92915050565b6000602082840312156123f4576123f361225b565b5b6000612402848285016123c9565b91505092915050565b612414816123a8565b82525050565b600060208201905061242f600083018461240b565b92915050565b600073ffffffffffffffffffffffffffffffffffffffff82169050919050565b600061246082612435565b9050919050565b61247081612455565b811461247b57600080fd5b50565b60008135905061248d81612467565b92915050565b600080604083850312156124aa576124a961225b565b5b60006124b8858286016123c9565b92505060206124c98582860161247e565b9150509250929050565b600281106124e057600080fd5b50565b6000813590506124f2816124d3565b92915050565b600080600080608085870312156125125761251161225b565b5b600061252087828801612366565b945050602061253187828801612366565b935050604061254287828801612366565b9250506060612553878288016124e3565b91505092959194509250565b6002811061256c57600080fd5b50565b60008135905061257e8161255f565b92915050565b600080600080600060a086880312156125a05761259f61225b565b5b60006125ae88828901612366565b95505060206125bf88828901612366565b94505060406125d088828901612366565b93505060606125e18882890161256f565b92505060806125f2888289016124e3565b9150509295509295909350565b60006080820190506126146000830187612325565b6126216020830186612325565b61262e6040830185612325565b61263b6060830184612325565b95945050505050565b61264d816122e5565b811461265857600080fd5b50565b60008135905061266a81612644565b92915050565b6000602082840312156126865761268561225b565b5b60006126948482850161265b565b91505092915050565b60008060008060008060c087890312156126ba576126b961225b565b5b60006126c889828a01612366565b96505060206126d989828a01612366565b95505060406126ea89828a01612366565b94505060606126fb89828a0161256f565b935050608061270c89828a016124e3565b92505060a061271d89828a01612366565b9150509295509295509295565b600060408201905061273f6000830185612325565b61274c6020830184612325565b9392505050565b61275c81612455565b82525050565b60006020820190506127776000830184612753565b92915050565b600082825260208201905092915050565b7f416363657373436f6e74726f6c3a2063616e206f6e6c792072656e6f756e636560008201527f20726f6c657320666f722073656c660000000000000000000000000000000000602082015250565b60006127ea602f8361277d565b91506127f58261278e565b604082019050919050565b60006020820190508181036000830152612819816127dd565b9050919050565b60008151905061282f8161234f565b92915050565b6000806040838503121561284c5761284b61225b565b5b600061285a85828601612820565b925050602061286b85828601612820565b9150509250929050565b60006020828403121561288b5761288a61225b565b5b600061289984828501612820565b91505092915050565b6000819050919050565b7f4e487b7100000000000000000000000000000000000000000000000000000000600052601160045260246000fd5b60006128e6826128a2565b91506128f1836128a2565b9250817f7fffffffffffffffffffffffffffffffffffffffffffffffffffffffffffffff0383136000831215161561292c5761292b6128ac565b5b817f8000000000000000000000000000000000000000000000000000000000000000038312600083121615612964576129636128ac565b5b828201905092915050565b7f496e636f727265637420766f6c207072656d69756d0000000000000000000000600082015250565b60006129a560158361277d565b91506129b08261296f565b602082019050919050565b600060208201905081810360008301526129d481612998565b9050919050565b60006129e6826128a2565b91507f8000000000000000000000000000000000000000000000000000000000000000821415612a1957612a186128ac565b5b816000039050919050565b6000612a2f8261231b565b9150612a3a8361231b565b9250827fffffffffffffffffffffffffffffffffffffffffffffffffffffffffffffffff03821115612a6f57612a6e6128ac565b5b828201905092915050565b612a838161231b565b82525050565b612a92816122e5565b82525050565b6000819050919050565b6000819050919050565b6000612ac7612ac2612abd84612a98565b612aa2565b61231b565b9050919050565b612ad781612aac565b82525050565b6000608082019050612af26000830187612a7a565b612aff6020830186612a89565b612b0c6040830185612a7a565b612b196060830184612ace565b95945050505050565b7f4e487b7100000000000000000000000000000000000000000000000000000000600052602160045260246000fd5b6000608082019050612b666000830187612a7a565b612b736020830186612a89565b612b806040830185612a7a565b612b8d6060830184612a7a565b95945050505050565b60028110612ba757612ba6612b22565b5b50565b6000819050612bb882612b96565b919050565b6000612bc882612baa565b9050919050565b612bd881612bbd565b82525050565b60028110612bef57612bee612b22565b5b50565b6000819050612c0082612bde565b919050565b6000612c1082612bf2565b9050919050565b612c2081612c05565b82525050565b600060a082019050612c3b6000830188612325565b612c486020830187612325565b612c556040830186612325565b612c626060830185612bcf565b612c6f6080830184612c17565b9695505050505050565b600080600060608486031215612c9257612c9161225b565b5b6000612ca086828701612820565b9350506020612cb186828701612820565b9250506040612cc286828701612820565b9150509250925092565b600081519050612cdb81612467565b92915050565b600060208284031215612cf757612cf661225b565b5b6000612d0584828501612ccc565b91505092915050565b612d1781612455565b82525050565b6000604082019050612d326000830185612a7a565b612d3f6020830184612d0e565b9392505050565b7f54726164696e672073746f707065642100000000000000000000000000000000600082015250565b6000612d7c60108361277d565b9150612d8782612d46565b602082019050919050565b60006020820190508181036000830152612dab81612d6f565b9050919050565b7f496e636f727265637420636f737420706169642e000000000000000000000000600082015250565b6000612de860148361277d565b9150612df382612db2565b602082019050919050565b60006020820190508181036000830152612e1781612ddb565b9050919050565b600061014082019050612e34600083018d612325565b612e41602083018c612325565b612e4e604083018b612325565b612e5b606083018a612bcf565b612e686080830189612c17565b612e7560a0830188612325565b612e8260c0830187612325565b612e8f60e0830186612325565b612e9d610100830185612325565b612eab610120830184612753565b9b9a5050505050505050505050565b6000606082019050612ecf6000830186612753565b612edc6020830185612753565b612ee96040830184612325565b949350505050565b600081519050612f0081612644565b92915050565b600060208284031215612f1c57612f1b61225b565b5b6000612f2a84828501612ef1565b91505092915050565b7f4661696c6564207061796d656e742e0000000000000000000000000000000000600082015250565b6000612f69600f8361277d565b9150612f7482612f33565b602082019050919050565b60006020820190508181036000830152612f9881612f5c565b9050919050565b6000604082019050612fb46000830185612325565b612fc16020830184612753565b9392505050565b600081905092915050565b7f416363657373436f6e74726f6c3a206163636f756e7420000000000000000000600082015250565b6000613009601783612fc8565b915061301482612fd3565b601782019050919050565b600081519050919050565b60005b8381101561304857808201518184015260208101905061302d565b83811115613057576000848401525b50505050565b60006130688261301f565b6130728185612fc8565b935061308281856020860161302a565b80840191505092915050565b7f206973206d697373696e6720726f6c6520000000000000000000000000000000600082015250565b60006130c4601183612fc8565b91506130cf8261308e565b601182019050919050565b60006130e582612ffc565b91506130f1828561305d565b91506130fc826130b7565b9150613108828461305d565b91508190509392505050565b6000601f19601f8301169050919050565b60006131308261301f565b61313a818561277d565b935061314a81856020860161302a565b61315381613114565b840191505092915050565b600060208201905081810360008301526131788184613125565b905092915050565b60006060820190506131956000830186612a7a565b6131a26020830185612a7a565b6131af6040830184612a7a565b949350505050565b60006040820190506131cc60008301856122f1565b6131d960208301846122f1565b9392505050565b6131e9816128a2565b81146131f457600080fd5b50565b600081519050613206816131e0565b92915050565b6000602082840312156132225761322161225b565b5b6000613230848285016131f7565b91505092915050565b6000613244826128a2565b915061324f836128a2565b9250827f7fffffffffffffffffffffffffffffffffffffffffffffffffffffffffffffff048211600084136000841316161561328e5761328d6128ac565b5b817f800000000000000000000000000000000000000000000000000000000000000005831260008412600084131616156132cb576132ca6128ac565b5b827f80000000000000000000000000000000000000000000000000000000000000000582126000841360008412161615613308576133076128ac565b5b827f7fffffffffffffffffffffffffffffffffffffffffffffffffffffffffffffff0582126000841260008412161615613345576133446128ac565b5b828202905092915050565b7f4e487b7100000000000000000000000000000000000000000000000000000000600052601260045260246000fd5b600061338a826128a2565b9150613395836128a2565b9250826133a5576133a4613350565b5b600160000383147f8000000000000000000000000000000000000000000000000000000000000000831416156133de576133dd6128ac565b5b828205905092915050565b60006133f48261231b565b91506133ff8361231b565b9250817fffffffffffffffffffffffffffffffffffffffffffffffffffffffffffffffff0483118215151615613438576134376128ac565b5b828202905092915050565b7f4e487b7100000000000000000000000000000000000000000000000000000000600052604160045260246000fd5b7f4e487b7100000000000000000000000000000000000000000000000000000000600052603260045260246000fd5b60006134ac8261231b565b915060008214156134c0576134bf6128ac565b5b600182039050919050565b7f537472696e67733a20686578206c656e67746820696e73756666696369656e74600082015250565b600061350160208361277d565b915061350c826134cb565b602082019050919050565b60006020820190508181036000830152613530816134f4565b9050919050565b6000613542826128a2565b915061354d836128a2565b9250827f800000000000000000000000000000000000000000000000000000000000000001821260008412151615613588576135876128ac565b5b827f7fffffffffffffffffffffffffffffffffffffffffffffffffffffffffffffff0182136000841216156135c0576135bf6128ac565b5b828203905092915050565b7f43617061636974792062726561636865642e0000000000000000000000000000600082015250565b600061360160128361277d565b915061360c826135cb565b602082019050919050565b60006020820190508181036000830152613630816135f4565b905091905056fea26469706673582212202f92b2092d8d57913ad3402b2cfbf47fde33f0a2ccbebd579d73102b2164da2a64736f6c63430008090033",
  "immutableReferences": {},
  "source": "// SPDX-License-Identifier: MIT\npragma solidity 0.8.9;\n\nimport \"@openzeppelin/contracts/token/ERC20/ERC20.sol\";\nimport \"@openzeppelin/contracts/access/AccessControl.sol\";\nimport \"@openzeppelin/contracts/utils/structs/EnumerableSet.sol\";\nimport \"@openzeppelin/contracts/utils/math/Math.sol\";\nimport \"./MoretInterfaces.sol\";\nimport \"./VolatilityToken.sol\";\nimport \"./MoretMarketMaker.sol\";\nimport \"./FullMath.sol\";\n\ncontract Exchange is AccessControl, EOption{\n  bytes32 public constant MINER_ROLE = keccak256(\"MINER_ROLE\");\n  // OptionLibrary.Percent public volTransactionFees = OptionLibrary.Percent(5 * 10 ** 3, 10 ** 6);\n  // address public contractAddress;\n  address public marketMakerAddress;\n  // ERC20 internal underlyingToken; // used to pay premiums (vol token is alternative)\n  // mapping(uint256=>VolatilityToken) public volTokensList;\n\n  MoretMarketMaker internal marketMaker;\n  IOptionVault internal optionVault;\n\n  uint256 public volRiskPremiumMaxRatio= 18 * (10 ** 17);\n  uint256 public loanInterest = 0;\n\n  // ILendingPoolAddressesProvider internal lendingPoolAddressProvider;\n  // address internal swapRouterAddress;\n  // address internal aggregatorAddress;\n\n  // uint256 private constant ethMultiplier = 10 ** 18;\n  bool public allowTrading = true;\n  // uint256 lendingPoolRateMode = 2;\n  // bool internal useAggregator;\n  // uint256 public exchangeSlippageMax = 10 ** 16; // 1% max slippage allowed\n  // uint256 public exchangeDeadlineLag = 20; // 20s slippage time\n\n  constructor( address _marketMakerAddress,address _optionAddress){// address payable _volTokenAddress)\n    _setupRole(DEFAULT_ADMIN_ROLE, msg.sender);\n    _setupRole(MINER_ROLE, msg.sender);\n    optionVault = IOptionVault(_optionAddress);\n    marketMakerAddress = _marketMakerAddress;\n    marketMaker = MoretMarketMaker(_marketMakerAddress);\n    // VolatilityToken _volToken = VolatilityToken(_volTokenAddress);\n    // volTokensList[_volToken.tenor()] = _volToken;\n    // contractAddress = address(this);\n    // underlyingToken = ERC20(marketMaker.underlyingAddress());\n    // swapRouterAddress = _swapRouterAddress;\n    // aggregatorAddress = _aggregatorAddress;\n    // lendingPoolAddressProvider = ILendingPoolAddressesProvider(_lendingPoolAddressProvider);\n    // useAggregator = false;\n    }\n\n  function calcOptionCost(uint256 _tenor, uint256 _strike, uint256 _amount, OptionLibrary.PayoffType _poType, OptionLibrary.OptionSide _side) public view returns(uint256 _premium, uint256 _cost, uint256 _price, uint256 _vol){\n    _vol = queryOptionVolatility(_tenor, _strike, _amount, _side);\n    uint256 _adjustedStrike = OptionLibrary.adjustSlippage(_strike, false, marketMaker.swapSlippage(), 0); // downward\n    if((_poType==OptionLibrary.PayoffType.Put && _side == OptionLibrary.OptionSide.Buy) || (_poType==OptionLibrary.PayoffType.Call && _side == OptionLibrary.OptionSide.Sell)){ \n      _adjustedStrike = OptionLibrary.adjustSlippage(_strike,true, marketMaker.swapSlippage(), loanInterest);}\n    (_premium, _cost, _price) = optionVault.queryOptionCost(_adjustedStrike, _amount, _vol, _poType, _side);\n    _premium = MarketLibrary.cvtDecimals(_premium, marketMaker.fundingAddress());\n    _cost = MarketLibrary.cvtDecimals(_cost, marketMaker.fundingAddress());}\n\n  function queryOptionVolatility(uint256 _tenor, uint256 _strike, uint256 _amount, OptionLibrary.OptionSide _side) public view returns(uint256 _vol){  \n    _vol = optionVault.queryVol(_tenor); // running vol\n    (uint256 _price,) = optionVault.queryPrice();\n    int256 _riskPremium = calcRiskPremium(_price, _vol, _strike, _amount, _side);\n    require((int256(_vol)+_riskPremium) > 0,\"Incorrect vol premium\");\n    _vol += _riskPremium < 0? uint256(-_riskPremium): uint256(_riskPremium);}\n\n  function calcRiskPremium(uint256 _price, uint256 _vol, uint256 _strike, uint256 _amount,OptionLibrary.OptionSide _side) internal view returns(int256) {\n    uint256 _maxGamma = MulDiv(OptionLibrary.calcGamma(_price, _price, _vol), marketMaker.calcCapital(false, false), _price);\n    int256 _currentGamma = optionVault.calculateAggregateGamma(false); // include sells.\n    int256 _newGamma = _currentGamma + int256(MulDiv(OptionLibrary.calcGamma(_price, _strike, _vol), _amount, OptionLibrary.Multiplier() )) * (_side==OptionLibrary.OptionSide.Sell? -1: int(1));\n    uint256 _K = MulDiv(_vol, volRiskPremiumMaxRatio, OptionLibrary.Multiplier());\n    return (calcRiskPremiumAMM(_maxGamma, _currentGamma,  _K) + calcRiskPremiumAMM(_maxGamma, _newGamma, _K)) / 2;}\n\n  function calcRiskPremiumAMM(uint256 _max, int256 _input, uint256 _constant) internal pure returns(int256) {\n    int256 _capacity = int256(OptionLibrary.Multiplier()); // capacity should be in (0,2)\n    if(_input < 0){_capacity +=  int256(MulDiv(uint256(-_input), OptionLibrary.Multiplier(), _max));}\n    if(_input > 0){ _capacity -= int256(MulDiv(uint256(_input) , OptionLibrary.Multiplier(), _max));}\n    require((_capacity>=0) && (_capacity <= int256(2 * OptionLibrary.Multiplier())),\"Capacity breached.\");\n    return int256(MulDiv(_constant, OptionLibrary.Multiplier(), uint256(_capacity))) - int256(_constant);}\n\n  function purchaseOption(uint256 _tenor, uint256 _strike, uint256 _amount, OptionLibrary.PayoffType _poType, OptionLibrary.OptionSide _side, uint256 _payInCost) external {\n    require(allowTrading,\"Trading stopped!\");\n    (uint256 _premium, uint256 _cost, uint256 _price, uint256 _vol) = calcOptionCost(_tenor, _strike, _amount, _poType, _side );      \n    require(_payInCost >= _cost, \"Incorrect cost paid.\");\n    uint256 _id = optionVault.addOption(_tenor, _strike, _amount, _poType, _side, _premium, _cost, _price, _vol, msg.sender);\n    require(ERC20(marketMaker.fundingAddress()).transferFrom(msg.sender, address(marketMaker), _payInCost), 'Failed payment.');  \n    // emit newOptionBought(msg.sender, optionVault.getOption(_id), _payInCost, false);\n    optionVault.stampActiveOption(_id, msg.sender);}\n\n  function getOptionPayoffValue(uint256 _id) external view returns(uint256 _payback){\n    (,_payback) = optionVault.getContractPayoff(_id);}\n\n  /* function purchaseOptionInVol(uint256 _tenor, uint256 _strike, uint256 _amount, OptionLibrary.PayoffType _poType, OptionLibrary.OptionSide _side, uint256 _payInCost) external {\n    (uint256 _premium, uint256 _cost, uint256 _price, uint256 _vol) = calcOptionCost(_tenor, _strike, _amount, _poType, _side ); \n\n    uint256 _premium = queryOptionCost(_tenor, _strike, _amount, _poType,OptionLibrary.OptionSide.Buy );\n    uint256 _fee = MulDiv(_premium, settlementFee.numerator, settlementFee.denominator);\n\n    uint256 _id = optionVault.addOption(_tenor, _strike, _poType, OptionLibrary.OptionSide.Buy, _amount, _premium - _fee, _fee );\n    require(_payInCost >= optionVault.queryDraftOptionCost(_id, true), \"Entered premium incorrect.\");\n\n    require(volTokensList[_tenor].transferFrom(msg.sender, contractAddress, _payInCost), 'Failed payment.');\n\n    volTokensList[_tenor].approve(volTokensList[_tenor].contractAddress(), _payInCost);\n    volTokensList[_tenor].recycleInToken(contractAddress, _payInCost, underlyingToken);\n    require(underlyingToken.transfer(marketMakerAddress, optionVault.queryOptionPremium(_id)), 'Failed premium payment.');\n\n    optionVault.stampActiveOption(_id);\n\n    marketMaker.recordOption(msg.sender, _id, true,\n      optionVault.queryOptionPremium(_id),\n      optionVault.queryOptionExposure(_id, OptionLibrary.PayoffType.Call),\n      optionVault.queryOptionExposure(_id, OptionLibrary.PayoffType.Put));\n\n    emit newOptionBought(msg.sender, optionVault.getOption(_id), _payInCost, true);\n\n  }  */\n\n\n      // function addVolToken(address payable _tokenAddress) external onlyRole(ADMIN_ROLE)\n      // {\n      //     VolatilityToken _volToken = VolatilityToken(_tokenAddress);\n      //     /* require(_volToken.descriptionHash() == optionVault.descriptionHash());\n      //     require(optionVault.containsTenor(_volToken.tenor())); */\n\n      //     volTokensList[_volToken.tenor()] = _volToken;\n\n      // }\n\n      // function quoteVolatilityCost(uint256 _tenor, uint256 _volAmount) public view returns(uint256, uint256)\n      // {\n      //     /* require(optionVault.containsTenor(_tenor)); */\n\n      //     (uint256 _price,) = optionVault.queryPrice();\n      //     (uint256 _volatility, ) = optionVault.queryVol(_tenor);\n\n      //     uint256 _value = volTokensList[_tenor].calculateMintValue(_volAmount, _price, _volatility);\n      //     uint256 _fee = _value * volTransactionFees.numerator/ volTransactionFees.denominator;\n\n      //     return (_value, _fee);\n      // }\n\n      // function purchaseVolatilityToken(uint256 _tenor, uint256 _volAmount, uint256 _payInCost)\n      // external {\n      //     (uint256 _value, uint256 _fee) = quoteVolatilityCost(_tenor, _volAmount);\n      //     require(_payInCost >= (_value + _fee));\n\n      //     underlyingToken.transferFrom(msg.sender, address(volTokensList[_tenor]), _value);\n      //     volTokensList[_tenor].mint{value: _value}(msg.sender, _volAmount);\n\n      //     emit newVolatilityTokenBought(msg.sender, block.timestamp, _tenor, _volAmount);\n      // }\n\n    function resetLoanRate(uint256 _loanInterest) external onlyRole(MINER_ROLE){ loanInterest = _loanInterest;}\n    function resetRiskPremiumMaxRatio(uint256 _newRatio) external onlyRole(DEFAULT_ADMIN_ROLE){ volRiskPremiumMaxRatio=_newRatio;}\n    function resetTrading(bool _allowTrading) external onlyRole(DEFAULT_ADMIN_ROLE) {allowTrading=_allowTrading;}\n    function queryPrice() external view returns(uint256, uint256){return optionVault.queryPrice();}\n    function queryVol(uint256 _tenor) external view returns(uint256){return optionVault.queryVol(_tenor);}\n}\n",
  "sourcePath": "/Users/apple/Documents/GitHub/moret/contracts/Exchange.sol",
  "compiler": {
    "name": "solc",
    "version": "0.8.9+commit.e5eed63a.Emscripten.clang"
  },
  "schemaVersion": "3.4.3",
  "updatedAt": "2021-11-19T13:39:23.892Z",
  "networkType": "ethereum",
  "devdoc": {
    "kind": "dev",
    "methods": {
      "getRoleAdmin(bytes32)": {
        "details": "Returns the admin role that controls `role`. See {grantRole} and {revokeRole}. To change a role's admin, use {_setRoleAdmin}."
      },
      "grantRole(bytes32,address)": {
        "details": "Grants `role` to `account`. If `account` had not been already granted `role`, emits a {RoleGranted} event. Requirements: - the caller must have ``role``'s admin role."
      },
      "hasRole(bytes32,address)": {
        "details": "Returns `true` if `account` has been granted `role`."
      },
      "renounceRole(bytes32,address)": {
        "details": "Revokes `role` from the calling account. Roles are often managed via {grantRole} and {revokeRole}: this function's purpose is to provide a mechanism for accounts to lose their privileges if they are compromised (such as when a trusted device is misplaced). If the calling account had been granted `role`, emits a {RoleRevoked} event. Requirements: - the caller must be `account`."
      },
      "revokeRole(bytes32,address)": {
        "details": "Revokes `role` from `account`. If `account` had been granted `role`, emits a {RoleRevoked} event. Requirements: - the caller must have ``role``'s admin role."
      },
      "supportsInterface(bytes4)": {
        "details": "See {IERC165-supportsInterface}."
      }
    },
    "version": 1
  },
  "userdoc": {
    "kind": "user",
    "methods": {},
    "version": 1
  }
}