{
  "contractName": "Exchange",
  "abi": [
    {
      "inputs": [
        {
          "internalType": "contract OptionVault",
          "name": "_optionVault",
          "type": "address"
        }
      ],
      "stateMutability": "nonpayable",
      "type": "constructor"
    },
    {
      "anonymous": false,
      "inputs": [
        {
          "indexed": true,
          "internalType": "address",
          "name": "_bot",
          "type": "address"
        },
        {
          "indexed": true,
          "internalType": "address",
          "name": "_exchange",
          "type": "address"
        },
        {
          "indexed": false,
          "internalType": "address",
          "name": "_holder",
          "type": "address"
        },
        {
          "indexed": false,
          "internalType": "uint256",
          "name": "_id",
          "type": "uint256"
        },
        {
          "indexed": false,
          "internalType": "uint256",
          "name": "_payoff",
          "type": "uint256"
        }
      ],
      "name": "Expire",
      "type": "event"
    },
    {
      "anonymous": false,
      "inputs": [
        {
          "indexed": true,
          "internalType": "address",
          "name": "_hedger",
          "type": "address"
        },
        {
          "indexed": true,
          "internalType": "address",
          "name": "_market",
          "type": "address"
        },
        {
          "indexed": false,
          "internalType": "bool",
          "name": "success",
          "type": "bool"
        },
        {
          "indexed": false,
          "internalType": "bytes",
          "name": "data",
          "type": "bytes"
        }
      ],
      "name": "HedgeResponse",
      "type": "event"
    },
    {
      "anonymous": false,
      "inputs": [
        {
          "indexed": true,
          "internalType": "address",
          "name": "_hedger",
          "type": "address"
        },
        {
          "indexed": true,
          "internalType": "address",
          "name": "_market",
          "type": "address"
        },
        {
          "indexed": false,
          "internalType": "uint256[]",
          "name": "amounts",
          "type": "uint256[]"
        }
      ],
      "name": "HedgeSwapResponse",
      "type": "event"
    },
    {
      "anonymous": false,
      "inputs": [
        {
          "indexed": true,
          "internalType": "address",
          "name": "_purchaser",
          "type": "address"
        },
        {
          "indexed": true,
          "internalType": "address",
          "name": "_exchange",
          "type": "address"
        },
        {
          "indexed": false,
          "internalType": "uint256",
          "name": "_id",
          "type": "uint256"
        },
        {
          "indexed": false,
          "internalType": "uint256",
          "name": "_premium",
          "type": "uint256"
        },
        {
          "indexed": false,
          "internalType": "uint256",
          "name": "_collateral",
          "type": "uint256"
        },
        {
          "indexed": false,
          "internalType": "bool",
          "name": "_inVol",
          "type": "bool"
        }
      ],
      "name": "NewOption",
      "type": "event"
    },
    {
      "anonymous": false,
      "inputs": [
        {
          "indexed": true,
          "internalType": "address",
          "name": "previousOwner",
          "type": "address"
        },
        {
          "indexed": true,
          "internalType": "address",
          "name": "newOwner",
          "type": "address"
        }
      ],
      "name": "OwnershipTransferred",
      "type": "event"
    },
    {
      "anonymous": false,
      "inputs": [
        {
          "indexed": false,
          "internalType": "address",
          "name": "_newBot",
          "type": "address"
        }
      ],
      "name": "ResetBotAddress",
      "type": "event"
    },
    {
      "anonymous": false,
      "inputs": [
        {
          "indexed": true,
          "internalType": "uint256",
          "name": "_parameterId",
          "type": "uint256"
        },
        {
          "indexed": false,
          "internalType": "uint256",
          "name": "_parameter",
          "type": "uint256"
        }
      ],
      "name": "ResetParameter",
      "type": "event"
    },
    {
      "anonymous": false,
      "inputs": [
        {
          "indexed": true,
          "internalType": "address",
          "name": "_exchange",
          "type": "address"
        },
        {
          "indexed": false,
          "internalType": "bool",
          "name": "_tradingAllowed",
          "type": "bool"
        }
      ],
      "name": "ResetTradingStatus",
      "type": "event"
    },
    {
      "anonymous": false,
      "inputs": [
        {
          "indexed": true,
          "internalType": "address",
          "name": "_purchaser",
          "type": "address"
        },
        {
          "indexed": true,
          "internalType": "address",
          "name": "_exchange",
          "type": "address"
        },
        {
          "indexed": false,
          "internalType": "uint256",
          "name": "_cost",
          "type": "uint256"
        },
        {
          "indexed": false,
          "internalType": "uint256",
          "name": "_volAmount",
          "type": "uint256"
        },
        {
          "indexed": false,
          "internalType": "bool",
          "name": "_isPurchase",
          "type": "bool"
        }
      ],
      "name": "TradeVolatility",
      "type": "event"
    },
    {
      "inputs": [],
      "name": "owner",
      "outputs": [
        {
          "internalType": "address",
          "name": "",
          "type": "address"
        }
      ],
      "stateMutability": "view",
      "type": "function",
      "constant": true
    },
    {
      "inputs": [],
      "name": "renounceOwnership",
      "outputs": [],
      "stateMutability": "nonpayable",
      "type": "function"
    },
    {
      "inputs": [
        {
          "internalType": "address",
          "name": "newOwner",
          "type": "address"
        }
      ],
      "name": "transferOwnership",
      "outputs": [],
      "stateMutability": "nonpayable",
      "type": "function"
    },
    {
      "inputs": [],
      "name": "vault",
      "outputs": [
        {
          "internalType": "contract OptionVault",
          "name": "",
          "type": "address"
        }
      ],
      "stateMutability": "view",
      "type": "function",
      "constant": true
    },
    {
      "inputs": [
        {
          "internalType": "contract Pool",
          "name": "_pool",
          "type": "address"
        },
        {
          "internalType": "uint256",
          "name": "_tenor",
          "type": "uint256"
        },
        {
          "internalType": "uint256",
          "name": "_strike",
          "type": "uint256"
        },
        {
          "internalType": "uint256",
          "name": "_amount",
          "type": "uint256"
        },
        {
          "internalType": "enum OptionLib.PayoffType",
          "name": "_poType",
          "type": "uint8"
        },
        {
          "internalType": "enum OptionLib.OptionSide",
          "name": "_side",
          "type": "uint8"
        },
        {
          "internalType": "bool",
          "name": "_forceATM",
          "type": "bool"
        }
      ],
      "name": "queryOption",
      "outputs": [
        {
          "internalType": "uint256",
          "name": "_premium",
          "type": "uint256"
        },
        {
          "internalType": "uint256",
          "name": "_collateral",
          "type": "uint256"
        },
        {
          "internalType": "uint256",
          "name": "_price",
          "type": "uint256"
        },
        {
          "internalType": "uint256",
          "name": "_vol",
          "type": "uint256"
        }
      ],
      "stateMutability": "view",
      "type": "function",
      "constant": true
    },
    {
      "inputs": [
        {
          "internalType": "contract Pool",
          "name": "_pool",
          "type": "address"
        },
        {
          "internalType": "uint256",
          "name": "_tenor",
          "type": "uint256"
        },
        {
          "internalType": "uint256",
          "name": "_strike",
          "type": "uint256"
        },
        {
          "internalType": "uint256",
          "name": "_amount",
          "type": "uint256"
        },
        {
          "internalType": "enum OptionLib.PayoffType",
          "name": "_poType",
          "type": "uint8"
        },
        {
          "internalType": "enum OptionLib.OptionSide",
          "name": "_side",
          "type": "uint8"
        }
      ],
      "name": "tradeOption",
      "outputs": [],
      "stateMutability": "nonpayable",
      "type": "function"
    },
    {
      "inputs": [
        {
          "internalType": "contract Pool",
          "name": "_pool",
          "type": "address"
        },
        {
          "internalType": "uint256",
          "name": "_tenor",
          "type": "uint256"
        },
        {
          "internalType": "uint256",
          "name": "_amount",
          "type": "uint256"
        },
        {
          "internalType": "enum OptionLib.PayoffType",
          "name": "_poType",
          "type": "uint8"
        },
        {
          "internalType": "enum OptionLib.OptionSide",
          "name": "_side",
          "type": "uint8"
        }
      ],
      "name": "tradeOptionInVol",
      "outputs": [],
      "stateMutability": "nonpayable",
      "type": "function"
    },
    {
      "inputs": [
        {
          "internalType": "contract Pool",
          "name": "_pool",
          "type": "address"
        },
        {
          "internalType": "uint256",
          "name": "_tenor",
          "type": "uint256"
        },
        {
          "internalType": "uint256",
          "name": "_amount",
          "type": "uint256"
        },
        {
          "internalType": "enum OptionLib.OptionSide",
          "name": "_side",
          "type": "uint8"
        }
      ],
      "name": "tradeVolToken",
      "outputs": [],
      "stateMutability": "nonpayable",
      "type": "function"
    },
    {
      "inputs": [
        {
          "internalType": "contract Pool",
          "name": "_pool",
          "type": "address"
        },
        {
          "internalType": "uint256",
          "name": "_tenor",
          "type": "uint256"
        }
      ],
      "name": "getVolatilityToken",
      "outputs": [
        {
          "internalType": "contract VolatilityToken",
          "name": "",
          "type": "address"
        }
      ],
      "stateMutability": "view",
      "type": "function",
      "constant": true
    },
    {
      "inputs": [
        {
          "internalType": "contract Pool",
          "name": "_pool",
          "type": "address"
        }
      ],
      "name": "getVolatilityChain",
      "outputs": [
        {
          "internalType": "contract VolatilityChain",
          "name": "",
          "type": "address"
        }
      ],
      "stateMutability": "view",
      "type": "function",
      "constant": true
    },
    {
      "inputs": [
        {
          "internalType": "uint256",
          "name": "_expiringId",
          "type": "uint256"
        },
        {
          "internalType": "address",
          "name": "_exerciseFeeRecipient",
          "type": "address"
        }
      ],
      "name": "expireOption",
      "outputs": [],
      "stateMutability": "nonpayable",
      "type": "function"
    },
    {
      "inputs": [
        {
          "internalType": "contract Pool",
          "name": "_pool",
          "type": "address"
        },
        {
          "internalType": "uint256",
          "name": "_depositAmount",
          "type": "uint256"
        }
      ],
      "name": "addCapital",
      "outputs": [],
      "stateMutability": "nonpayable",
      "type": "function"
    },
    {
      "inputs": [
        {
          "internalType": "contract Pool",
          "name": "_pool",
          "type": "address"
        },
        {
          "internalType": "uint256",
          "name": "_burnPoolAmount",
          "type": "uint256"
        }
      ],
      "name": "withdrawCapital",
      "outputs": [],
      "stateMutability": "nonpayable",
      "type": "function"
    }
  ],
  "bytecode": "0x60a06040523480156200001157600080fd5b506040516200532e3803806200532e8339818101604052810190620000379190620001dc565b620000576200004b6200009260201b60201c565b6200009a60201b60201c565b8073ffffffffffffffffffffffffffffffffffffffff1660808173ffffffffffffffffffffffffffffffffffffffff1681525050506200020e565b600033905090565b60008060009054906101000a900473ffffffffffffffffffffffffffffffffffffffff169050816000806101000a81548173ffffffffffffffffffffffffffffffffffffffff021916908373ffffffffffffffffffffffffffffffffffffffff1602179055508173ffffffffffffffffffffffffffffffffffffffff168173ffffffffffffffffffffffffffffffffffffffff167f8be0079c531659141344cd1fd0a4f28419497f9722a3daafe3b4186f6b6457e060405160405180910390a35050565b600080fd5b600073ffffffffffffffffffffffffffffffffffffffff82169050919050565b6000620001908262000163565b9050919050565b6000620001a48262000183565b9050919050565b620001b68162000197565b8114620001c257600080fd5b50565b600081519050620001d681620001ab565b92915050565b600060208284031215620001f557620001f46200015e565b5b60006200020584828501620001c5565b91505092915050565b6080516150b06200027e6000396000818161036401528181610432015281816104c0015281816115c701528181611b620152818161207b015281816125f301528181612cb301528181612fb3015281816133fd015281816134a3015281816135b00152613a9001526150b06000f3fe608060405234801561001057600080fd5b50600436106100cf5760003560e01c80639111fccd1161008c578063e6ab658e11610066578063e6ab658e146101ff578063e98254bb1461021b578063f2fde38b14610237578063fbfa77cf14610253576100cf565b80639111fccd14610194578063b1ff6171146101b0578063b808d76e146101e3576100cf565b806315dc2e9d146100d457806354f6e8c8146101045780636cce891614610120578063715018a614610150578063826fdbbd1461015a5780638da5cb5b14610176575b600080fd5b6100ee60048036038101906100e99190613c0c565b610271565b6040516100fb9190613c98565b60405180910390f35b61011e60048036038101906101199190613d15565b61035c565b005b61013a60048036038101906101359190613d55565b610ea6565b6040516101479190613db6565b60405180910390f35b61015861107b565b005b610174600480360381019061016f9190613df6565b611103565b005b61017e611b35565b60405161018b9190613e6c565b60405180910390f35b6101ae60048036038101906101a99190613d55565b611b5e565b005b6101ca60048036038101906101c59190613ee4565b611f94565b6040516101da9493929190613f95565b60405180910390f35b6101fd60048036038101906101f89190613fda565b61212c565b005b61021960048036038101906102149190614055565b612ecc565b005b61023560048036038101906102309190613d55565b6135ac565b005b610251600480360381019061024c91906140e2565b613997565b005b61025b613a8e565b6040516102689190614130565b60405180910390f35b6000808273ffffffffffffffffffffffffffffffffffffffff16631f21f9af6040518163ffffffff1660e01b8152600401602060405180830381865afa1580156102bf573d6000803e3d6000fd5b505050506040513d601f19601f820116820180604052508101906102e39190614189565b90508073ffffffffffffffffffffffffffffffffffffffff1663c0a16f6a6040518163ffffffff1660e01b8152600401602060405180830381865afa158015610330573d6000803e3d6000fd5b505050506040513d601f19601f8201168201806040525081019061035491906141f4565b915050919050565b6000806000807f000000000000000000000000000000000000000000000000000000000000000073ffffffffffffffffffffffffffffffffffffffff1663fc9d80e0876040518263ffffffff1660e01b81526004016103bb9190614221565b608060405180830381865afa1580156103d8573d6000803e3d6000fd5b505050506040513d601f19601f820116820180604052508101906103fc91906142a0565b93509350935093506001600381111561041857610417614307565b5b84600381111561042b5761042a614307565b5b03610e9e577f000000000000000000000000000000000000000000000000000000000000000073ffffffffffffffffffffffffffffffffffffffff1663637baf60876040518263ffffffff1660e01b81526004016104899190614221565b600060405180830381600087803b1580156104a357600080fd5b505af11580156104b7573d6000803e3d6000fd5b505050506000807f000000000000000000000000000000000000000000000000000000000000000073ffffffffffffffffffffffffffffffffffffffff166385ae10e6896040518263ffffffff1660e01b81526004016105179190614221565b606060405180830381865afa158015610534573d6000803e3d6000fd5b505050506040513d601f19601f82011682018060405250810190610558919061434b565b509150915060008373ffffffffffffffffffffffffffffffffffffffff16631f21f9af6040518163ffffffff1660e01b8152600401602060405180830381865afa1580156105aa573d6000803e3d6000fd5b505050506040513d601f19601f820116820180604052508101906105ce9190614189565b73ffffffffffffffffffffffffffffffffffffffff1663cb4c86b76040518163ffffffff1660e01b8152600401602060405180830381865afa158015610618573d6000803e3d6000fd5b505050506040513d601f19601f8201168201806040525081019061063c91906143dc565b73ffffffffffffffffffffffffffffffffffffffff1663313ce5676040518163ffffffff1660e01b8152600401602060405180830381865afa158015610686573d6000803e3d6000fd5b505050506040513d601f19601f820116820180604052508101906106aa9190614442565b60ff16905060008373__MathLib_______________________________63fed4a0f390918773ffffffffffffffffffffffffffffffffffffffff16631f21f9af6040518163ffffffff1660e01b8152600401602060405180830381865afa158015610719573d6000803e3d6000fd5b505050506040513d601f19601f8201168201806040525081019061073d9190614189565b73ffffffffffffffffffffffffffffffffffffffff166305268cff6040518163ffffffff1660e01b8152600401602060405180830381865afa158015610787573d6000803e3d6000fd5b505050506040513d601f19601f820116820180604052508101906107ab91906144ad565b73ffffffffffffffffffffffffffffffffffffffff1663b0e21e8a6040518163ffffffff1660e01b8152600401602060405180830381865afa1580156107f5573d6000803e3d6000fd5b505050506040513d601f19601f8201168201806040525081019061081991906144da565b6040518363ffffffff1660e01b8152600401610836929190614516565b602060405180830381865af4158015610853573d6000803e3d6000fd5b505050506040513d601f19601f8201168201806040525081019061087791906144da565b73__MarketLib_____________________________63174e20e69091846040518363ffffffff1660e01b81526004016108b1929190614516565b602060405180830381865af41580156108ce573d6000803e3d6000fd5b505050506040513d601f19601f820116820180604052508101906108f291906144da565b905060008473__MathLib_______________________________63fed4a0f390918873ffffffffffffffffffffffffffffffffffffffff1663d1c699aa6040518163ffffffff1660e01b8152600401602060405180830381865afa15801561095e573d6000803e3d6000fd5b505050506040513d601f19601f8201168201806040525081019061098291906144da565b6040518363ffffffff1660e01b815260040161099f929190614516565b602060405180830381865af41580156109bc573d6000803e3d6000fd5b505050506040513d601f19601f820116820180604052508101906109e091906144da565b73__MarketLib_____________________________63174e20e69091856040518363ffffffff1660e01b8152600401610a1a929190614516565b602060405180830381865af4158015610a37573d6000803e3d6000fd5b505050506040513d601f19601f82011682018060405250810190610a5b91906144da565b90508373__MarketLib_____________________________63174e20e69091856040518363ffffffff1660e01b8152600401610a98929190614516565b602060405180830381865af4158015610ab5573d6000803e3d6000fd5b505050506040513d601f19601f82011682018060405250810190610ad991906144da565b935060006001811115610aef57610aee614307565b5b886001811115610b0257610b01614307565b5b03610e9857610b1c848284610b17919061456e565b613ab2565b84610b2791906145c4565b935060008673ffffffffffffffffffffffffffffffffffffffff16631f21f9af6040518163ffffffff1660e01b8152600401602060405180830381865afa158015610b76573d6000803e3d6000fd5b505050506040513d601f19601f82011682018060405250810190610b9a9190614189565b90508073ffffffffffffffffffffffffffffffffffffffff16633e60e34889876040518363ffffffff1660e01b8152600401610bd79291906145f8565b600060405180830381600087803b158015610bf157600080fd5b505af1158015610c05573d6000803e3d6000fd5b505050508073ffffffffffffffffffffffffffffffffffffffff16633e60e3488873ffffffffffffffffffffffffffffffffffffffff16631f21f9af6040518163ffffffff1660e01b8152600401602060405180830381865afa158015610c70573d6000803e3d6000fd5b505050506040513d601f19601f82011682018060405250810190610c949190614189565b73ffffffffffffffffffffffffffffffffffffffff166305268cff6040518163ffffffff1660e01b8152600401602060405180830381865afa158015610cde573d6000803e3d6000fd5b505050506040513d601f19601f82011682018060405250810190610d0291906144ad565b73ffffffffffffffffffffffffffffffffffffffff166364df049e6040518163ffffffff1660e01b8152600401602060405180830381865afa158015610d4c573d6000803e3d6000fd5b505050506040513d601f19601f82011682018060405250810190610d709190614621565b856040518363ffffffff1660e01b8152600401610d8e9291906145f8565b600060405180830381600087803b158015610da857600080fd5b505af1158015610dbc573d6000803e3d6000fd5b505050508073ffffffffffffffffffffffffffffffffffffffff16633e60e3488c846040518363ffffffff1660e01b8152600401610dfb9291906145f8565b600060405180830381600087803b158015610e1557600080fd5b505af1158015610e29573d6000803e3d6000fd5b505050503073ffffffffffffffffffffffffffffffffffffffff163373ffffffffffffffffffffffffffffffffffffffff167f1cf7404c642614322b1d508b6d5e34e05720d23d9596b59b19c8a05704b495e18a8f89604051610e8e9392919061464e565b60405180910390a3505b50505050505b505050505050565b6000808373ffffffffffffffffffffffffffffffffffffffff16631f21f9af6040518163ffffffff1660e01b8152600401602060405180830381865afa158015610ef4573d6000803e3d6000fd5b505050506040513d601f19601f82011682018060405250810190610f189190614189565b90508073ffffffffffffffffffffffffffffffffffffffff166305268cff6040518163ffffffff1660e01b8152600401602060405180830381865afa158015610f65573d6000803e3d6000fd5b505050506040513d601f19601f82011682018060405250810190610f8991906144ad565b73ffffffffffffffffffffffffffffffffffffffff16636cce89168273ffffffffffffffffffffffffffffffffffffffff16636f307dc36040518163ffffffff1660e01b8152600401602060405180830381865afa158015610fef573d6000803e3d6000fd5b505050506040513d601f19601f820116820180604052508101906110139190614621565b856040518363ffffffff1660e01b81526004016110319291906145f8565b602060405180830381865afa15801561104e573d6000803e3d6000fd5b505050506040513d601f19601f8201168201806040525081019061107291906146c3565b91505092915050565b611083613acb565b73ffffffffffffffffffffffffffffffffffffffff166110a1611b35565b73ffffffffffffffffffffffffffffffffffffffff16146110f7576040517f08c379a00000000000000000000000000000000000000000000000000000000081526004016110ee9061474d565b60405180910390fd5b6111016000613ad3565b565b60008473ffffffffffffffffffffffffffffffffffffffff16631f21f9af6040518163ffffffff1660e01b8152600401602060405180830381865afa158015611150573d6000803e3d6000fd5b505050506040513d601f19601f820116820180604052508101906111749190614189565b90508073ffffffffffffffffffffffffffffffffffffffff166305268cff6040518163ffffffff1660e01b8152600401602060405180830381865afa1580156111c1573d6000803e3d6000fd5b505050506040513d601f19601f820116820180604052508101906111e591906144ad565b73ffffffffffffffffffffffffffffffffffffffff1663255fdcff866040518263ffffffff1660e01b815260040161121d9190613e6c565b602060405180830381865afa15801561123a573d6000803e3d6000fd5b505050506040513d601f19601f8201168201806040525081019061125e9190614782565b61129d576040517f08c379a0000000000000000000000000000000000000000000000000000000008152600401611294906147fb565b60405180910390fd5b60008173ffffffffffffffffffffffffffffffffffffffff166305268cff6040518163ffffffff1660e01b8152600401602060405180830381865afa1580156112ea573d6000803e3d6000fd5b505050506040513d601f19601f8201168201806040525081019061130e91906144ad565b73ffffffffffffffffffffffffffffffffffffffff16636cce89168373ffffffffffffffffffffffffffffffffffffffff16636f307dc36040518163ffffffff1660e01b8152600401602060405180830381865afa158015611374573d6000803e3d6000fd5b505050506040513d601f19601f820116820180604052508101906113989190614621565b876040518363ffffffff1660e01b81526004016113b69291906145f8565b602060405180830381865afa1580156113d3573d6000803e3d6000fd5b505050506040513d601f19601f820116820180604052508101906113f791906146c3565b9050600060405180610220016040528060018081111561141a57611419614307565b5b815260200185600181111561143257611431614307565b5b81526020016000600381111561144b5761144a614307565b5b81526020013373ffffffffffffffffffffffffffffffffffffffff1681526020016000815260200142815260200160008152602001878152602001600081526020016000815260200186815260200160008152602001600081526020016000815260200160008152602001600081526020018873ffffffffffffffffffffffffffffffffffffffff16815250905060008373ffffffffffffffffffffffffffffffffffffffff1663cb4c86b76040518163ffffffff1660e01b8152600401602060405180830381865afa158015611526573d6000803e3d6000fd5b505050506040513d601f19601f8201168201806040525081019061154a91906143dc565b905060008173ffffffffffffffffffffffffffffffffffffffff1663313ce5676040518163ffffffff1660e01b8152600401602060405180830381865afa158015611599573d6000803e3d6000fd5b505050506040513d601f19601f820116820180604052508101906115bd9190614442565b60ff1690506000807f000000000000000000000000000000000000000000000000000000000000000073ffffffffffffffffffffffffffffffffffffffff16632360e8178660016040518363ffffffff1660e01b8152600401611621929190614a7f565b608060405180830381865afa15801561163e573d6000803e3d6000fd5b505050506040513d601f19601f820116820180604052508101906116629190614aaa565b935050509150600080600181111561167d5761167c614307565b5b8960018111156116905761168f614307565b5b036118c1578473ffffffffffffffffffffffffffffffffffffffff166323b872dd33898673__MarketLib_____________________________63174e20e690918a6040518363ffffffff1660e01b81526004016116ee929190614516565b602060405180830381865af415801561170b573d6000803e3d6000fd5b505050506040513d601f19601f8201168201806040525081019061172f91906144da565b6040518463ffffffff1660e01b815260040161174d93929190614b11565b6020604051808303816000875af115801561176c573d6000803e3d6000fd5b505050506040513d601f19601f820116820180604052508101906117909190614782565b6117cf576040517f08c379a00000000000000000000000000000000000000000000000000000000081526004016117c690614b94565b60405180910390fd5b8673ffffffffffffffffffffffffffffffffffffffff1663b3e1f05084846040518363ffffffff1660e01b815260040161180a929190614bb4565b6040805180830381865afa158015611826573d6000803e3d6000fd5b505050506040513d601f19601f8201168201806040525081019061184a9190614bdd565b50809150508673ffffffffffffffffffffffffffffffffffffffff166340c10f1933836040518363ffffffff1660e01b815260040161188a9291906145f8565b600060405180830381600087803b1580156118a457600080fd5b505af11580156118b8573d6000803e3d6000fd5b50505050611a97565b8673ffffffffffffffffffffffffffffffffffffffff1663921f2c3b84846040518363ffffffff1660e01b81526004016118fc929190614bb4565b6040805180830381865afa158015611918573d6000803e3d6000fd5b505050506040513d601f19601f8201168201806040525081019061193c9190614bdd565b50809150508673ffffffffffffffffffffffffffffffffffffffff16639dc29fac33836040518363ffffffff1660e01b815260040161197c9291906145f8565b600060405180830381600087803b15801561199657600080fd5b505af11580156119aa573d6000803e3d6000fd5b505050508673ffffffffffffffffffffffffffffffffffffffff1663c4076876338573__MarketLib_____________________________63174e20e69091896040518363ffffffff1660e01b8152600401611a06929190614516565b602060405180830381865af4158015611a23573d6000803e3d6000fd5b505050506040513d601f19601f82011682018060405250810190611a4791906144da565b6040518363ffffffff1660e01b8152600401611a649291906145f8565b600060405180830381600087803b158015611a7e57600080fd5b505af1158015611a92573d6000803e3d6000fd5b505050505b8b73ffffffffffffffffffffffffffffffffffffffff163373ffffffffffffffffffffffffffffffffffffffff167fecff3762708241a160664f7092d4ff3e5e6eed425112beca3a558737639f0ba38c8460006001811115611afc57611afb614307565b5b8e6001811115611b0f57611b0e614307565b5b14604051611b1f93929190614c1d565b60405180910390a3505050505050505050505050565b60008060009054906101000a900473ffffffffffffffffffffffffffffffffffffffff16905090565b60007f000000000000000000000000000000000000000000000000000000000000000073ffffffffffffffffffffffffffffffffffffffff16635c273c2f846001806040518463ffffffff1660e01b8152600401611bbe93929190614c75565b602060405180830381865afa158015611bdb573d6000803e3d6000fd5b505050506040513d601f19601f82011682018060405250810190611bff91906144da565b905060008173__MathLib_______________________________63fed4a0f39091856040518363ffffffff1660e01b8152600401611c3e929190614516565b602060405180830381865af4158015611c5b573d6000803e3d6000fd5b505050506040513d601f19601f82011682018060405250810190611c7f91906144da565b73__MarketLib_____________________________63174e20e690918673ffffffffffffffffffffffffffffffffffffffff16631f21f9af6040518163ffffffff1660e01b8152600401602060405180830381865afa158015611ce6573d6000803e3d6000fd5b505050506040513d601f19601f82011682018060405250810190611d0a9190614189565b73ffffffffffffffffffffffffffffffffffffffff1663cb4c86b76040518163ffffffff1660e01b8152600401602060405180830381865afa158015611d54573d6000803e3d6000fd5b505050506040513d601f19601f82011682018060405250810190611d7891906143dc565b73ffffffffffffffffffffffffffffffffffffffff1663313ce5676040518163ffffffff1660e01b8152600401602060405180830381865afa158015611dc2573d6000803e3d6000fd5b505050506040513d601f19601f82011682018060405250810190611de69190614442565b6040518363ffffffff1660e01b8152600401611e03929190614cdd565b602060405180830381865af4158015611e20573d6000803e3d6000fd5b505050506040513d601f19601f82011682018060405250810190611e4491906144da565b90508373ffffffffffffffffffffffffffffffffffffffff16639dc29fac33856040518363ffffffff1660e01b8152600401611e819291906145f8565b600060405180830381600087803b158015611e9b57600080fd5b505af1158015611eaf573d6000803e3d6000fd5b505050508373ffffffffffffffffffffffffffffffffffffffff16631f21f9af6040518163ffffffff1660e01b8152600401602060405180830381865afa158015611efe573d6000803e3d6000fd5b505050506040513d601f19601f82011682018060405250810190611f229190614189565b73ffffffffffffffffffffffffffffffffffffffff16633e60e34833836040518363ffffffff1660e01b8152600401611f5c9291906145f8565b600060405180830381600087803b158015611f7657600080fd5b505af1158015611f8a573d6000803e3d6000fd5b5050505050505050565b6000806000806000604051806102200160405280896001811115611fbb57611fba614307565b5b8152602001886001811115611fd357611fd2614307565b5b815260200160006003811115611fec57611feb614307565b5b81526020013373ffffffffffffffffffffffffffffffffffffffff16815260200160008152602001428152602001600081526020018c815260200160008152602001600081526020018a8152602001600081526020018b81526020016000815260200160008152602001600081526020018d73ffffffffffffffffffffffffffffffffffffffff1681525090507f000000000000000000000000000000000000000000000000000000000000000073ffffffffffffffffffffffffffffffffffffffff16632360e81782886040518363ffffffff1660e01b81526004016120d4929190614a7f565b608060405180830381865afa1580156120f1573d6000803e3d6000fd5b505050506040513d601f19601f820116820180604052508101906121159190614aaa565b945094509450945050975097509750979350505050565b60008573ffffffffffffffffffffffffffffffffffffffff16631f21f9af6040518163ffffffff1660e01b8152600401602060405180830381865afa158015612179573d6000803e3d6000fd5b505050506040513d601f19601f8201168201806040525081019061219d9190614189565b90508073ffffffffffffffffffffffffffffffffffffffff166305268cff6040518163ffffffff1660e01b8152600401602060405180830381865afa1580156121ea573d6000803e3d6000fd5b505050506040513d601f19601f8201168201806040525081019061220e91906144ad565b73ffffffffffffffffffffffffffffffffffffffff1663255fdcff876040518263ffffffff1660e01b81526004016122469190613e6c565b602060405180830381865afa158015612263573d6000803e3d6000fd5b505050506040513d601f19601f820116820180604052508101906122879190614782565b6122c6576040517f08c379a00000000000000000000000000000000000000000000000000000000081526004016122bd906147fb565b60405180910390fd5b60008173ffffffffffffffffffffffffffffffffffffffff166305268cff6040518163ffffffff1660e01b8152600401602060405180830381865afa158015612313573d6000803e3d6000fd5b505050506040513d601f19601f8201168201806040525081019061233791906144ad565b73ffffffffffffffffffffffffffffffffffffffff16636cce89168373ffffffffffffffffffffffffffffffffffffffff16636f307dc36040518163ffffffff1660e01b8152600401602060405180830381865afa15801561239d573d6000803e3d6000fd5b505050506040513d601f19601f820116820180604052508101906123c19190614621565b886040518363ffffffff1660e01b81526004016123df9291906145f8565b602060405180830381865afa1580156123fc573d6000803e3d6000fd5b505050506040513d601f19601f8201168201806040525081019061242091906146c3565b9050600060405180610220016040528086600181111561244357612442614307565b5b815260200185600181111561245b5761245a614307565b5b81526020016000600381111561247457612473614307565b5b81526020013373ffffffffffffffffffffffffffffffffffffffff1681526020016000815260200142815260200160008152602001888152602001600081526020016000815260200187815260200160008152602001600081526020016000815260200160008152602001600081526020018973ffffffffffffffffffffffffffffffffffffffff16815250905060008373ffffffffffffffffffffffffffffffffffffffff1663cb4c86b76040518163ffffffff1660e01b8152600401602060405180830381865afa15801561254f573d6000803e3d6000fd5b505050506040513d601f19601f8201168201806040525081019061257391906143dc565b905060008173ffffffffffffffffffffffffffffffffffffffff1663313ce5676040518163ffffffff1660e01b8152600401602060405180830381865afa1580156125c2573d6000803e3d6000fd5b505050506040513d601f19601f820116820180604052508101906125e69190614442565b60ff1690506000806000807f000000000000000000000000000000000000000000000000000000000000000073ffffffffffffffffffffffffffffffffffffffff16632360e8178860016040518363ffffffff1660e01b815260040161264d929190614a7f565b608060405180830381865afa15801561266a573d6000803e3d6000fd5b505050506040513d601f19601f8201168201806040525081019061268e9190614aaa565b9350935093509350600084116126d9576040517f08c379a00000000000000000000000000000000000000000000000000000000081526004016126d090614d52565b60405180910390fd5b600080600060018111156126f0576126ef614307565b5b8c600181111561270357612702614307565b5b03612995578973ffffffffffffffffffffffffffffffffffffffff1663921f2c3b87856040518363ffffffff1660e01b8152600401612743929190614bb4565b6040805180830381865afa15801561275f573d6000803e3d6000fd5b505050506040513d601f19601f820116820180604052508101906127839190614bdd565b80925081935050508f73ffffffffffffffffffffffffffffffffffffffff1663372688b06040518163ffffffff1660e01b8152600401602060405180830381865afa1580156127d6573d6000803e3d6000fd5b505050506040513d601f19601f820116820180604052508101906127fa91906144da565b811161283b576040517f08c379a000000000000000000000000000000000000000000000000000000000815260040161283290614dbe565b60405180910390fd5b8973ffffffffffffffffffffffffffffffffffffffff16639dc29fac33846040518363ffffffff1660e01b81526004016128769291906145f8565b600060405180830381600087803b15801561289057600080fd5b505af11580156128a4573d6000803e3d6000fd5b505050508973ffffffffffffffffffffffffffffffffffffffff1663c40768768c8873__MarketLib_____________________________63174e20e690918c6040518363ffffffff1660e01b8152600401612900929190614516565b602060405180830381865af415801561291d573d6000803e3d6000fd5b505050506040513d601f19601f8201168201806040525081019061294191906144da565b6040518363ffffffff1660e01b815260040161295e9291906145f8565b600060405180830381600087803b15801561297857600080fd5b505af115801561298c573d6000803e3d6000fd5b50505050612caf565b6000851115612ad9578773ffffffffffffffffffffffffffffffffffffffff166323b872dd338d8873__MarketLib_____________________________63174e20e690918d6040518363ffffffff1660e01b81526004016129f7929190614516565b602060405180830381865af4158015612a14573d6000803e3d6000fd5b505050506040513d601f19601f82011682018060405250810190612a3891906144da565b6040518463ffffffff1660e01b8152600401612a5693929190614b11565b6020604051808303816000875af1158015612a75573d6000803e3d6000fd5b505050506040513d601f19601f82011682018060405250810190612a999190614782565b612ad8576040517f08c379a0000000000000000000000000000000000000000000000000000000008152600401612acf90614e2a565b60405180910390fd5b5b8973ffffffffffffffffffffffffffffffffffffffff1663b3e1f05087856040518363ffffffff1660e01b8152600401612b14929190614bb4565b6040805180830381865afa158015612b30573d6000803e3d6000fd5b505050506040513d601f19601f82011682018060405250810190612b549190614bdd565b50809250508a73ffffffffffffffffffffffffffffffffffffffff16633e60e3488b8873__MarketLib_____________________________63174e20e690918c6040518363ffffffff1660e01b8152600401612bb1929190614516565b602060405180830381865af4158015612bce573d6000803e3d6000fd5b505050506040513d601f19601f82011682018060405250810190612bf291906144da565b6040518363ffffffff1660e01b8152600401612c0f9291906145f8565b600060405180830381600087803b158015612c2957600080fd5b505af1158015612c3d573d6000803e3d6000fd5b505050508973ffffffffffffffffffffffffffffffffffffffff166340c10f1933846040518363ffffffff1660e01b8152600401612c7c9291906145f8565b600060405180830381600087803b158015612c9657600080fd5b505af1158015612caa573d6000803e3d6000fd5b505050505b60007f000000000000000000000000000000000000000000000000000000000000000073ffffffffffffffffffffffffffffffffffffffff1663b9f10b668b8973__MarketLib_____________________________63174e20e690918d6040518363ffffffff1660e01b8152600401612d29929190614516565b602060405180830381865af4158015612d46573d6000803e3d6000fd5b505050506040513d601f19601f82011682018060405250810190612d6a91906144da565b8973__MarketLib_____________________________63174e20e690918e6040518363ffffffff1660e01b8152600401612da5929190614516565b602060405180830381865af4158015612dc2573d6000803e3d6000fd5b505050506040513d601f19601f82011682018060405250810190612de691906144da565b89896040518663ffffffff1660e01b8152600401612e08959493929190614e4a565b6020604051808303816000875af1158015612e27573d6000803e3d6000fd5b505050506040513d601f19601f82011682018060405250810190612e4b91906144da565b90503073ffffffffffffffffffffffffffffffffffffffff163373ffffffffffffffffffffffffffffffffffffffff167f2588b8b06c1fb0f749c19fc01df761fb6c5d2497e519c7193a5262ce0d84471483868a6001604051612eb19493929190614ea2565b60405180910390a35050505050505050505050505050505050565b6000604051806102200160405280846001811115612eed57612eec614307565b5b8152602001836001811115612f0557612f04614307565b5b815260200160006003811115612f1e57612f1d614307565b5b81526020013373ffffffffffffffffffffffffffffffffffffffff16815260200160008152602001428152602001600081526020018781526020016000815260200160008152602001858152602001600081526020018681526020016000815260200160008152602001600081526020018873ffffffffffffffffffffffffffffffffffffffff1681525090506000806000807f000000000000000000000000000000000000000000000000000000000000000073ffffffffffffffffffffffffffffffffffffffff16632360e8178660006040518363ffffffff1660e01b815260040161300d929190614a7f565b608060405180830381865afa15801561302a573d6000803e3d6000fd5b505050506040513d601f19601f8201168201806040525081019061304e9190614aaa565b935093509350935060008b73ffffffffffffffffffffffffffffffffffffffff16631f21f9af6040518163ffffffff1660e01b8152600401602060405180830381865afa1580156130a3573d6000803e3d6000fd5b505050506040513d601f19601f820116820180604052508101906130c79190614189565b905060008173ffffffffffffffffffffffffffffffffffffffff1663cb4c86b76040518163ffffffff1660e01b8152600401602060405180830381865afa158015613116573d6000803e3d6000fd5b505050506040513d601f19601f8201168201806040525081019061313a91906143dc565b905060008173ffffffffffffffffffffffffffffffffffffffff1663313ce5676040518163ffffffff1660e01b8152600401602060405180830381865afa158015613189573d6000803e3d6000fd5b505050506040513d601f19601f820116820180604052508101906131ad9190614442565b60ff1690508673__MarketLib_____________________________63174e20e69091836040518363ffffffff1660e01b81526004016131ed929190614516565b602060405180830381865af415801561320a573d6000803e3d6000fd5b505050506040513d601f19601f8201168201806040525081019061322e91906144da565b96508573__MarketLib_____________________________63174e20e69091836040518363ffffffff1660e01b815260040161326b929190614516565b602060405180830381865af4158015613288573d6000803e3d6000fd5b505050506040513d601f19601f820116820180604052508101906132ac91906144da565b9550600087876132bc919061456e565b90506001808111156132d1576132d0614307565b5b8a60018111156132e4576132e3614307565b5b0361333a5787871161332b576040517f08c379a000000000000000000000000000000000000000000000000000000000815260040161332290614f33565b60405180910390fd5b878761333791906145c4565b90505b8273ffffffffffffffffffffffffffffffffffffffff166323b872dd3386846040518463ffffffff1660e01b815260040161337793929190614b11565b6020604051808303816000875af1158015613396573d6000803e3d6000fd5b505050506040513d601f19601f820116820180604052508101906133ba9190614782565b6133f9576040517f08c379a00000000000000000000000000000000000000000000000000000000081526004016133f090614f9f565b60405180910390fd5b60007f000000000000000000000000000000000000000000000000000000000000000073ffffffffffffffffffffffffffffffffffffffff1663b9f10b668b8b8b8b8b6040518663ffffffff1660e01b815260040161345c959493929190614e4a565b6020604051808303816000875af115801561347b573d6000803e3d6000fd5b505050506040513d601f19601f8201168201806040525081019061349f91906144da565b90507f000000000000000000000000000000000000000000000000000000000000000073ffffffffffffffffffffffffffffffffffffffff166324b4110e82336040518363ffffffff1660e01b81526004016134fc929190614fbf565b600060405180830381600087803b15801561351657600080fd5b505af115801561352a573d6000803e3d6000fd5b505050503073ffffffffffffffffffffffffffffffffffffffff163373ffffffffffffffffffffffffffffffffffffffff167f2588b8b06c1fb0f749c19fc01df761fb6c5d2497e519c7193a5262ce0d844714838c8c60006040516135929493929190614ea2565b60405180910390a350505050505050505050505050505050565b60007f000000000000000000000000000000000000000000000000000000000000000073ffffffffffffffffffffffffffffffffffffffff16635c273c2f84600060016040518463ffffffff1660e01b815260040161360d93929190614c75565b602060405180830381865afa15801561362a573d6000803e3d6000fd5b505050506040513d601f19601f8201168201806040525081019061364e91906144da565b905060008373ffffffffffffffffffffffffffffffffffffffff16631f21f9af6040518163ffffffff1660e01b8152600401602060405180830381865afa15801561369d573d6000803e3d6000fd5b505050506040513d601f19601f820116820180604052508101906136c19190614189565b73ffffffffffffffffffffffffffffffffffffffff1663cb4c86b76040518163ffffffff1660e01b8152600401602060405180830381865afa15801561370b573d6000803e3d6000fd5b505050506040513d601f19601f8201168201806040525081019061372f91906143dc565b905060008373__MarketLib_____________________________63ed1bb19990918473ffffffffffffffffffffffffffffffffffffffff1663313ce5676040518163ffffffff1660e01b8152600401602060405180830381865afa15801561379b573d6000803e3d6000fd5b505050506040513d601f19601f820116820180604052508101906137bf9190614442565b6040518363ffffffff1660e01b81526004016137dc929190614cdd565b602060405180830381865af41580156137f9573d6000803e3d6000fd5b505050506040513d601f19601f8201168201806040525081019061381d91906144da565b73__MathLib_______________________________63de7f61709091856040518363ffffffff1660e01b8152600401613857929190614516565b602060405180830381865af4158015613874573d6000803e3d6000fd5b505050506040513d601f19601f8201168201806040525081019061389891906144da565b90508173ffffffffffffffffffffffffffffffffffffffff166323b872dd3387876040518463ffffffff1660e01b81526004016138d793929190614b11565b6020604051808303816000875af11580156138f6573d6000803e3d6000fd5b505050506040513d601f19601f8201168201806040525081019061391a9190614782565b61392357600080fd5b8473ffffffffffffffffffffffffffffffffffffffff166340c10f1933836040518363ffffffff1660e01b815260040161395e9291906145f8565b600060405180830381600087803b15801561397857600080fd5b505af115801561398c573d6000803e3d6000fd5b505050505050505050565b61399f613acb565b73ffffffffffffffffffffffffffffffffffffffff166139bd611b35565b73ffffffffffffffffffffffffffffffffffffffff1614613a13576040517f08c379a0000000000000000000000000000000000000000000000000000000008152600401613a0a9061474d565b60405180910390fd5b600073ffffffffffffffffffffffffffffffffffffffff168173ffffffffffffffffffffffffffffffffffffffff1603613a82576040517f08c379a0000000000000000000000000000000000000000000000000000000008152600401613a799061505a565b60405180910390fd5b613a8b81613ad3565b50565b7f000000000000000000000000000000000000000000000000000000000000000081565b6000818310613ac15781613ac3565b825b905092915050565b600033905090565b60008060009054906101000a900473ffffffffffffffffffffffffffffffffffffffff169050816000806101000a81548173ffffffffffffffffffffffffffffffffffffffff021916908373ffffffffffffffffffffffffffffffffffffffff1602179055508173ffffffffffffffffffffffffffffffffffffffff168173ffffffffffffffffffffffffffffffffffffffff167f8be0079c531659141344cd1fd0a4f28419497f9722a3daafe3b4186f6b6457e060405160405180910390a35050565b600080fd5b600073ffffffffffffffffffffffffffffffffffffffff82169050919050565b6000613bc782613b9c565b9050919050565b6000613bd982613bbc565b9050919050565b613be981613bce565b8114613bf457600080fd5b50565b600081359050613c0681613be0565b92915050565b600060208284031215613c2257613c21613b97565b5b6000613c3084828501613bf7565b91505092915050565b6000819050919050565b6000613c5e613c59613c5484613b9c565b613c39565b613b9c565b9050919050565b6000613c7082613c43565b9050919050565b6000613c8282613c65565b9050919050565b613c9281613c77565b82525050565b6000602082019050613cad6000830184613c89565b92915050565b6000819050919050565b613cc681613cb3565b8114613cd157600080fd5b50565b600081359050613ce381613cbd565b92915050565b613cf281613bbc565b8114613cfd57600080fd5b50565b600081359050613d0f81613ce9565b92915050565b60008060408385031215613d2c57613d2b613b97565b5b6000613d3a85828601613cd4565b9250506020613d4b85828601613d00565b9150509250929050565b60008060408385031215613d6c57613d6b613b97565b5b6000613d7a85828601613bf7565b9250506020613d8b85828601613cd4565b9150509250929050565b6000613da082613c65565b9050919050565b613db081613d95565b82525050565b6000602082019050613dcb6000830184613da7565b92915050565b60028110613dde57600080fd5b50565b600081359050613df081613dd1565b92915050565b60008060008060808587031215613e1057613e0f613b97565b5b6000613e1e87828801613bf7565b9450506020613e2f87828801613cd4565b9350506040613e4087828801613cd4565b9250506060613e5187828801613de1565b91505092959194509250565b613e6681613bbc565b82525050565b6000602082019050613e816000830184613e5d565b92915050565b60028110613e9457600080fd5b50565b600081359050613ea681613e87565b92915050565b60008115159050919050565b613ec181613eac565b8114613ecc57600080fd5b50565b600081359050613ede81613eb8565b92915050565b600080600080600080600060e0888a031215613f0357613f02613b97565b5b6000613f118a828b01613bf7565b9750506020613f228a828b01613cd4565b9650506040613f338a828b01613cd4565b9550506060613f448a828b01613cd4565b9450506080613f558a828b01613e97565b93505060a0613f668a828b01613de1565b92505060c0613f778a828b01613ecf565b91505092959891949750929550565b613f8f81613cb3565b82525050565b6000608082019050613faa6000830187613f86565b613fb76020830186613f86565b613fc46040830185613f86565b613fd16060830184613f86565b95945050505050565b600080600080600060a08688031215613ff657613ff5613b97565b5b600061400488828901613bf7565b955050602061401588828901613cd4565b945050604061402688828901613cd4565b935050606061403788828901613e97565b925050608061404888828901613de1565b9150509295509295909350565b60008060008060008060c0878903121561407257614071613b97565b5b600061408089828a01613bf7565b965050602061409189828a01613cd4565b95505060406140a289828a01613cd4565b94505060606140b389828a01613cd4565b93505060806140c489828a01613e97565b92505060a06140d589828a01613de1565b9150509295509295509295565b6000602082840312156140f8576140f7613b97565b5b600061410684828501613d00565b91505092915050565b600061411a82613c65565b9050919050565b61412a8161410f565b82525050565b60006020820190506141456000830184614121565b92915050565b600061415682613bbc565b9050919050565b6141668161414b565b811461417157600080fd5b50565b6000815190506141838161415d565b92915050565b60006020828403121561419f5761419e613b97565b5b60006141ad84828501614174565b91505092915050565b60006141c182613bbc565b9050919050565b6141d1816141b6565b81146141dc57600080fd5b50565b6000815190506141ee816141c8565b92915050565b60006020828403121561420a57614209613b97565b5b6000614218848285016141df565b91505092915050565b60006020820190506142366000830184613f86565b92915050565b6004811061424957600080fd5b50565b60008151905061425b8161423c565b92915050565b60008151905061427081613dd1565b92915050565b60008151905061428581613ce9565b92915050565b60008151905061429a81613be0565b92915050565b600080600080608085870312156142ba576142b9613b97565b5b60006142c88782880161424c565b94505060206142d987828801614261565b93505060406142ea87828801614276565b92505060606142fb8782880161428b565b91505092959194509250565b7f4e487b7100000000000000000000000000000000000000000000000000000000600052602160045260246000fd5b60008151905061434581613cbd565b92915050565b60008060006060848603121561436457614363613b97565b5b600061437286828701614336565b935050602061438386828701614336565b925050604061439486828701614336565b9150509250925092565b60006143a982613bbc565b9050919050565b6143b98161439e565b81146143c457600080fd5b50565b6000815190506143d6816143b0565b92915050565b6000602082840312156143f2576143f1613b97565b5b6000614400848285016143c7565b91505092915050565b600060ff82169050919050565b61441f81614409565b811461442a57600080fd5b50565b60008151905061443c81614416565b92915050565b60006020828403121561445857614457613b97565b5b60006144668482850161442d565b91505092915050565b600061447a82613bbc565b9050919050565b61448a8161446f565b811461449557600080fd5b50565b6000815190506144a781614481565b92915050565b6000602082840312156144c3576144c2613b97565b5b60006144d184828501614498565b91505092915050565b6000602082840312156144f0576144ef613b97565b5b60006144fe84828501614336565b91505092915050565b61451081613cb3565b82525050565b600060408201905061452b6000830185614507565b6145386020830184614507565b9392505050565b7f4e487b7100000000000000000000000000000000000000000000000000000000600052601160045260246000fd5b600061457982613cb3565b915061458483613cb3565b9250827fffffffffffffffffffffffffffffffffffffffffffffffffffffffffffffffff038211156145b9576145b861453f565b5b828201905092915050565b60006145cf82613cb3565b91506145da83613cb3565b9250828210156145ed576145ec61453f565b5b828203905092915050565b600060408201905061460d6000830185613e5d565b61461a6020830184613f86565b9392505050565b60006020828403121561463757614636613b97565b5b600061464584828501614276565b91505092915050565b60006060820190506146636000830186613e5d565b6146706020830185613f86565b61467d6040830184613f86565b949350505050565b600061469082613bbc565b9050919050565b6146a081614685565b81146146ab57600080fd5b50565b6000815190506146bd81614697565b92915050565b6000602082840312156146d9576146d8613b97565b5b60006146e7848285016146ae565b91505092915050565b600082825260208201905092915050565b7f4f776e61626c653a2063616c6c6572206973206e6f7420746865206f776e6572600082015250565b60006147376020836146f0565b915061474282614701565b602082019050919050565b600060208201905081810360008301526147668161472a565b9050919050565b60008151905061477c81613eb8565b92915050565b60006020828403121561479857614797613b97565b5b60006147a68482850161476d565b91505092915050565b7f2d56500000000000000000000000000000000000000000000000000000000000600082015250565b60006147e56003836146f0565b91506147f0826147af565b602082019050919050565b60006020820190508181036000830152614814816147d8565b9050919050565b6002811061482c5761482b614307565b5b50565b600081905061483d8261481b565b919050565b600061484d8261482f565b9050919050565b61485d81614842565b82525050565b6002811061487457614873614307565b5b50565b600081905061488582614863565b919050565b600061489582614877565b9050919050565b6148a58161488a565b82525050565b600481106148bc576148bb614307565b5b50565b60008190506148cd826148ab565b919050565b60006148dd826148bf565b9050919050565b6148ed816148d2565b82525050565b6148fc81613bbc565b82525050565b61490b81613cb3565b82525050565b610220820160008201516149286000850182614854565b50602082015161493b602085018261489c565b50604082015161494e60408501826148e4565b50606082015161496160608501826148f3565b5060808201516149746080850182614902565b5060a082015161498760a0850182614902565b5060c082015161499a60c0850182614902565b5060e08201516149ad60e0850182614902565b506101008201516149c2610100850182614902565b506101208201516149d7610120850182614902565b506101408201516149ec610140850182614902565b50610160820151614a01610160850182614902565b50610180820151614a16610180850182614902565b506101a0820151614a2b6101a0850182614902565b506101c0820151614a406101c0850182614902565b506101e0820151614a556101e0850182614902565b50610200820151614a6a6102008501826148f3565b50505050565b614a7981613eac565b82525050565b600061024082019050614a956000830185614911565b614aa3610220830184614a70565b9392505050565b60008060008060808587031215614ac457614ac3613b97565b5b6000614ad287828801614336565b9450506020614ae387828801614336565b9350506040614af487828801614336565b9250506060614b0587828801614336565b91505092959194509250565b6000606082019050614b266000830186613e5d565b614b336020830185613e5d565b614b406040830184613f86565b949350505050565b7f2d56420000000000000000000000000000000000000000000000000000000000600082015250565b6000614b7e6003836146f0565b9150614b8982614b48565b602082019050919050565b60006020820190508181036000830152614bad81614b71565b9050919050565b6000604082019050614bc96000830185613f86565b614bd66020830184613f86565b9392505050565b60008060408385031215614bf457614bf3613b97565b5b6000614c0285828601614336565b9250506020614c1385828601614336565b9150509250929050565b6000606082019050614c326000830186613f86565b614c3f6020830185613f86565b614c4c6040830184614a70565b949350505050565b6000614c5f82613c65565b9050919050565b614c6f81614c54565b82525050565b6000606082019050614c8a6000830186614c66565b614c976020830185614a70565b614ca46040830184614a70565b949350505050565b6000614cc7614cc2614cbd84614409565b613c39565b613cb3565b9050919050565b614cd781614cac565b82525050565b6000604082019050614cf26000830185614507565b614cff6020830184614cce565b9392505050565b7f3050000000000000000000000000000000000000000000000000000000000000600082015250565b6000614d3c6002836146f0565b9150614d4782614d06565b602082019050919050565b60006020820190508181036000830152614d6b81614d2f565b9050919050565b7f6d56500000000000000000000000000000000000000000000000000000000000600082015250565b6000614da86003836146f0565b9150614db382614d72565b602082019050919050565b60006020820190508181036000830152614dd781614d9b565b9050919050565b7f2d434d0000000000000000000000000000000000000000000000000000000000600082015250565b6000614e146003836146f0565b9150614e1f82614dde565b602082019050919050565b60006020820190508181036000830152614e4381614e07565b9050919050565b60006102a082019050614e606000830188614911565b614e6e610220830187613f86565b614e7c610240830186613f86565b614e8a610260830185613f86565b614e98610280830184613f86565b9695505050505050565b6000608082019050614eb76000830187613f86565b614ec46020830186613f86565b614ed16040830185613f86565b614ede6060830184614a70565b95945050505050565b7f77726f6e67207072656d69756d00000000000000000000000000000000000000600082015250565b6000614f1d600d836146f0565b9150614f2882614ee7565b602082019050919050565b60006020820190508181036000830152614f4c81614f10565b9050919050565b7f2d454f0000000000000000000000000000000000000000000000000000000000600082015250565b6000614f896003836146f0565b9150614f9482614f53565b602082019050919050565b60006020820190508181036000830152614fb881614f7c565b9050919050565b6000604082019050614fd46000830185613f86565b614fe16020830184613e5d565b9392505050565b7f4f776e61626c653a206e6577206f776e657220697320746865207a65726f206160008201527f6464726573730000000000000000000000000000000000000000000000000000602082015250565b60006150446026836146f0565b915061504f82614fe8565b604082019050919050565b6000602082019050818103600083015261507381615037565b905091905056fea264697066735822122057b3a4ab9cf81a1b310a9b57f9f6b7a0ea35bf07b133ab1c6a33dd46918ebd0e64736f6c634300080e0033",
  "immutableReferences": {
    "9784": [
      {
        "length": 32,
        "start": 868
      },
      {
        "length": 32,
        "start": 1074
      },
      {
        "length": 32,
        "start": 1216
      },
      {
        "length": 32,
        "start": 5575
      },
      {
        "length": 32,
        "start": 7010
      },
      {
        "length": 32,
        "start": 8315
      },
      {
        "length": 32,
        "start": 9715
      },
      {
        "length": 32,
        "start": 11443
      },
      {
        "length": 32,
        "start": 12211
      },
      {
        "length": 32,
        "start": 13309
      },
      {
        "length": 32,
        "start": 13475
      },
      {
        "length": 32,
        "start": 13744
      },
      {
        "length": 32,
        "start": 14992
      }
    ]
  },
  "source": "// SPDX-License-Identifier: MIT\npragma solidity ^0.8.4;\n\nimport \"@openzeppelin/contracts/token/ERC20/ERC20.sol\";\nimport \"@openzeppelin/contracts/access/Ownable.sol\";\nimport \"@openzeppelin/contracts/utils/math/SafeMath.sol\";\nimport \"./interfaces/EOption.sol\";\nimport \"./libraries/MathLib.sol\";\nimport \"./libraries/MarketLib.sol\";\nimport \"./libraries/OptionLib.sol\";\nimport \"./governance/Moret.sol\";\nimport \"./pools/Pool.sol\";\nimport \"./pools/MarketMaker.sol\";\nimport \"./OptionVault.sol\";\nimport \"./VolatilityToken.sol\";\n\ncontract Exchange is Ownable, EOption{\n  using MarketLib for uint256;\n  using MathLib for uint256;\n  using SafeMath for uint256;\n\n  // immutable addresses\n  // Moret public immutable govToken;\n  OptionVault public immutable vault;\n  // ERC20 public immutable funding;\n  // uint256 public fundingDecimals;\n\n  // contructor. Arguments: pool tokens, volatility oracle, option vault and bot address\n  constructor(OptionVault _optionVault){\n    // govToken = _govToken;\n    // funding = _funding;\n    // fundingDecimals = _funding.decimals();\n    vault = _optionVault;}\n  \n  function queryOption(Pool _pool, uint256 _tenor, uint256 _strike, uint256 _amount, OptionLib.PayoffType _poType, OptionLib.OptionSide _side, bool _forceATM) external view returns(uint256 _premium, uint256 _collateral, uint256 _price, uint256 _vol){\n    OptionLib.Option memory _option = OptionLib.Option(_poType, _side, OptionLib.OptionStatus.Draft, msg.sender, 0, block.timestamp,  0, _tenor, 0,  0, _amount, 0, _strike, 0, 0, 0, address(_pool));\n    return vault.calcOptionCost(_option, _forceATM);}\n\n  // functions to transact for option contracts\n  // arguments: pool token address, tenor in seconds, strike in 18 decimals, amount in 18 decimals, payoff type (call 0 or put 1), option side (buy 0 or sell 1)\n  function tradeOption(Pool _pool, uint256 _tenor, uint256 _strike, uint256 _amount, OptionLib.PayoffType _poType, OptionLib.OptionSide _side) external {\n    OptionLib.Option memory _option = OptionLib.Option(_poType, _side, OptionLib.OptionStatus.Draft, msg.sender, 0, block.timestamp,  0, _tenor, 0,  0, _amount, 0, _strike, 0, 0, 0, address(_pool));\n    \n    (uint256 _premium, uint256 _collateral, uint256 _price, uint256 _vol) = vault.calcOptionCost(_option, false);\n    MarketMaker _marketMaker = _pool.marketMaker();\n    ERC20 _funding = _marketMaker.funding();\n    uint256 _fundingDecimals = _funding.decimals();\n    _premium = _premium.toDecimals(_fundingDecimals);\n    _collateral = _collateral.toDecimals(_fundingDecimals);\n\n    uint256 _cost = _collateral + _premium;\n    if(_side == OptionLib.OptionSide.Sell){\n      require(_collateral > _premium,\"wrong premium\");\n      _cost = _collateral - _premium;}\n\n    require(_funding.transferFrom(msg.sender, address(_marketMaker), _cost), '-EO');  \n\n    uint256 _id = vault.addOption(_option, _premium, _collateral, _price, _vol);\n    vault.stampActiveOption(_id, msg.sender);\n\n    emit NewOption(msg.sender, address(this), _id, _premium, _collateral, false);}\n\n  // functions to transact for option contracts with volatility tokens (buy or sell)\n  // arguments: pool token address, tenor in seconds, strike in 18 decimals, amount in 18 decimals, payoff type (call 0 or put 1), option side (buy 0 or sell 1)\n  function tradeOptionInVol(Pool _pool, uint256 _tenor, uint256 _amount, OptionLib.PayoffType _poType, OptionLib.OptionSide _side) external {\n    MarketMaker _marketMaker = _pool.marketMaker();\n    require(_marketMaker.govToken().existVolTradingPool(address(_pool)), '-VP'); // only certified pools can trade vol\n    VolatilityToken _vToken = _marketMaker.govToken().getVolatilityToken(_marketMaker.underlying(), _tenor);\n    OptionLib.Option memory _option = OptionLib.Option(_poType, _side, OptionLib.OptionStatus.Draft, msg.sender, 0, block.timestamp,  0, _tenor, 0,  0, _amount, 0, 0, 0, 0, 0, address(_pool));\n\n    ERC20 _funding = _marketMaker.funding();\n    uint256 _fundingDecimals = _funding.decimals();\n    (uint256 _premium, uint256 _collateral , uint256 _price , uint256 _vol) = vault.calcOptionCost(_option, true); \n    require(_premium > 0, '0P'); // make sure premium is positive\n    \n    uint256 _volAmount;\n    uint256 _volPrice;\n    if (_side == OptionLib.OptionSide.Buy){\n      (_volAmount, _volPrice) = _vToken.getBurnAmount(_premium, _vol);\n      require(_volPrice > _pool.minVolPrice(), 'mVP');\n      _vToken.burn(msg.sender, _volAmount);\n      _vToken.pay(address(_marketMaker), _premium.toDecimals(_fundingDecimals));}\n    else{\n      if(_collateral > 0){\n        require(_funding.transferFrom(msg.sender, address(_marketMaker), _collateral.toDecimals(_fundingDecimals)), '-CM'); }\n\n      (_volAmount, ) = _vToken.getMintAmount(_premium, _vol);\n      _marketMaker.settlePayment(address(_vToken), _premium.toDecimals(_fundingDecimals)); \n      _vToken.mint(msg.sender, _volAmount);}\n\n    uint256 _id = vault.addOption(_option, _premium.toDecimals(_fundingDecimals), _collateral.toDecimals(_fundingDecimals), _price, _vol);\n\n    emit NewOption(msg.sender, address(this), _id, _volAmount, _collateral, true);\n  }\n\n  // functions to transact volatility tokens (buy or sell)\n  // arguments: pool token address, tenor in seconds, strike in 18 decimals, amount in 18 decimals, payoff type (call 0 or put 1), option side (buy 0 or sell 1)\n  function tradeVolToken(Pool _pool, uint256 _tenor, uint256 _amount, OptionLib.OptionSide _side) external {\n    MarketMaker _marketMaker = _pool.marketMaker();\n    require(_marketMaker.govToken().existVolTradingPool(address(_pool)), '-VP'); // only certified pools can trade vol\n    VolatilityToken _vToken = _marketMaker.govToken().getVolatilityToken(_marketMaker.underlying(), _tenor);\n    OptionLib.Option memory _option = OptionLib.Option(OptionLib.PayoffType.Put, _side, OptionLib.OptionStatus.Draft, msg.sender, 0, block.timestamp,  0, _tenor, 0,  0, _amount, 0, 0, 0, 0, 0, address(_pool));\n\n    ERC20 _funding = _marketMaker.funding();\n    uint256 _fundingDecimals = _funding.decimals();\n    (uint256 _premium, , , uint256 _vol) = vault.calcOptionCost(_option, true); \n    \n    uint256 _volAmount;\n    if (_side == OptionLib.OptionSide.Buy){\n      require(_funding.transferFrom(msg.sender, address(_vToken), _premium.toDecimals(_fundingDecimals)), \"-VB\");\n      (_volAmount, ) = _vToken.getMintAmount(_premium, _vol);\n      _vToken.mint(msg.sender, _volAmount);}\n    else{\n      (_volAmount, ) = _vToken.getBurnAmount(_premium, _vol);\n      _vToken.burn(msg.sender, _volAmount);\n      _vToken.pay(msg.sender, _premium.toDecimals(_fundingDecimals));}\n    \n    emit TradeVolatility(msg.sender, address(_pool), _amount, _volAmount, _side == OptionLib.OptionSide.Buy);}\n\n  // get volatility token\n  function getVolatilityToken(Pool _pool, uint256 _tenor) external view returns(VolatilityToken){\n    MarketMaker _marketMaker = _pool.marketMaker();\n    return _marketMaker.govToken().getVolatilityToken(_marketMaker.underlying(), _tenor);\n  }\n\n  // get volatility chain\n  function getVolatilityChain(Pool _pool) external view returns(VolatilityChain){\n    MarketMaker _marketMaker = _pool.marketMaker();\n    return _marketMaker.getVolatilityChain();\n  }\n\n  // expire option contracts (one at a time), with exercise fees paid to the exercising bots.\n  function expireOption(uint256 _expiringId, address _exerciseFeeRecipient) external {\n    // uint256 _expiringId = vault.getExpiringOptionId();\n    (OptionLib.OptionStatus _optionStatus, OptionLib.OptionSide _optionSide, address _optionHolder, Pool _pool) = vault.getOptionInfo(_expiringId);\n\n    if(_optionStatus == OptionLib.OptionStatus.Active){\n      vault.stampExpiredOption(_expiringId);\n      (uint256 _payoff, uint256 _payback,) = vault.getContractPayoff(_expiringId);\n      \n      uint256 _fundingDecimals = _pool.marketMaker().funding().decimals();\n      uint256 _protocolAmount = _payoff.ethmul(_pool.marketMaker().govToken().protocolFee()).toDecimals(_fundingDecimals);\n      uint256 _exerciseAmount = _payoff.ethmul(_pool.exerciseFee()).toDecimals(_fundingDecimals);\n      _payback = _payback.toDecimals(_fundingDecimals);\n\n      if(_optionSide == OptionLib.OptionSide.Buy){\n        _payback = _payback - Math.min(_payback, _protocolAmount + _exerciseAmount);\n\n      MarketMaker _marketMaker = MarketMaker(_pool.marketMaker());\n      _marketMaker.settlePayment(_optionHolder, _payback);\n      _marketMaker.settlePayment(_pool.marketMaker().govToken().protocolFeeRecipient(), _protocolAmount);\n      _marketMaker.settlePayment(_exerciseFeeRecipient, _exerciseAmount);      \n      emit Expire(msg.sender, address(this), _optionHolder, _expiringId, _payback);}}}\n  \n  // add capital by depositing amount in funding tokens\n  function addCapital(Pool _pool, uint256 _depositAmount) external {\n    uint256 _averageGrossCapital = vault.calcCapital(_pool, false, true);\n    ERC20 _funding = _pool.marketMaker().funding();\n    uint256 _mintPoolAmount = _depositAmount.toWei(_funding.decimals()).ethdiv(_averageGrossCapital);\n    require(_funding.transferFrom(msg.sender, address(_pool), _depositAmount));\n    _pool.mint(msg.sender, _mintPoolAmount);}\n\n  // remove capital by withdrawing amount in funding tokens\n  function withdrawCapital(Pool _pool, uint256 _burnPoolAmount) external {\n    uint256 _averageNetCapital = vault.calcCapital(_pool, true, true);\n    uint256 _withdrawValue = _averageNetCapital.ethmul(_burnPoolAmount).toDecimals(_pool.marketMaker().funding().decimals()); \n    _pool.burn(msg.sender, _burnPoolAmount);\n    MarketMaker(_pool.marketMaker()).settlePayment(msg.sender, _withdrawValue);}\n\n}\n",
  "sourcePath": "/Users/mac/Documents/GitHub/moret/contracts/Exchange.sol",
  "compiler": {
    "name": "solc",
    "version": "0.8.14+commit.80d49f37.Emscripten.clang"
  },
  "schemaVersion": "3.4.3",
  "updatedAt": "2022-05-21T14:35:35.404Z",
  "networkType": "ethereum",
  "devdoc": {
    "kind": "dev",
    "methods": {
      "owner()": {
        "details": "Returns the address of the current owner."
      },
      "renounceOwnership()": {
        "details": "Leaves the contract without owner. It will not be possible to call `onlyOwner` functions anymore. Can only be called by the current owner. NOTE: Renouncing ownership will leave the contract without an owner, thereby removing any functionality that is only available to the owner."
      },
      "transferOwnership(address)": {
        "details": "Transfers ownership of the contract to a new account (`newOwner`). Can only be called by the current owner."
      }
    },
    "version": 1
  },
  "userdoc": {
    "kind": "user",
    "methods": {},
    "version": 1
  }
}