{
  "contractName": "Exchange",
  "abi": [
    {
      "inputs": [
        {
          "internalType": "address",
          "name": "_marketMakerAddress",
          "type": "address"
        },
        {
          "internalType": "address",
          "name": "_vaultAddress",
          "type": "address"
        }
      ],
      "stateMutability": "nonpayable",
      "type": "constructor"
    },
    {
      "anonymous": false,
      "inputs": [
        {
          "indexed": true,
          "internalType": "bytes32",
          "name": "role",
          "type": "bytes32"
        },
        {
          "indexed": true,
          "internalType": "bytes32",
          "name": "previousAdminRole",
          "type": "bytes32"
        },
        {
          "indexed": true,
          "internalType": "bytes32",
          "name": "newAdminRole",
          "type": "bytes32"
        }
      ],
      "name": "RoleAdminChanged",
      "type": "event"
    },
    {
      "anonymous": false,
      "inputs": [
        {
          "indexed": true,
          "internalType": "bytes32",
          "name": "role",
          "type": "bytes32"
        },
        {
          "indexed": true,
          "internalType": "address",
          "name": "account",
          "type": "address"
        },
        {
          "indexed": true,
          "internalType": "address",
          "name": "sender",
          "type": "address"
        }
      ],
      "name": "RoleGranted",
      "type": "event"
    },
    {
      "anonymous": false,
      "inputs": [
        {
          "indexed": true,
          "internalType": "bytes32",
          "name": "role",
          "type": "bytes32"
        },
        {
          "indexed": true,
          "internalType": "address",
          "name": "account",
          "type": "address"
        },
        {
          "indexed": true,
          "internalType": "address",
          "name": "sender",
          "type": "address"
        }
      ],
      "name": "RoleRevoked",
      "type": "event"
    },
    {
      "anonymous": false,
      "inputs": [
        {
          "indexed": false,
          "internalType": "address",
          "name": "_recipient",
          "type": "address"
        },
        {
          "indexed": false,
          "internalType": "uint256",
          "name": "_mintMPTokenAmount",
          "type": "uint256"
        },
        {
          "indexed": false,
          "internalType": "uint256",
          "name": "_addedValue",
          "type": "uint256"
        }
      ],
      "name": "capitalAdded",
      "type": "event"
    },
    {
      "anonymous": false,
      "inputs": [
        {
          "indexed": false,
          "internalType": "address",
          "name": "_recipient",
          "type": "address"
        },
        {
          "indexed": false,
          "internalType": "uint256",
          "name": "_burnMPTokenAmount",
          "type": "uint256"
        },
        {
          "indexed": false,
          "internalType": "uint256",
          "name": "_withdrawValue",
          "type": "uint256"
        }
      ],
      "name": "capitalWithdrawn",
      "type": "event"
    },
    {
      "anonymous": false,
      "inputs": [
        {
          "indexed": true,
          "internalType": "address",
          "name": "_purchaser",
          "type": "address"
        },
        {
          "components": [
            {
              "internalType": "enum OptionLibrary.PayoffType",
              "name": "poType",
              "type": "uint8"
            },
            {
              "internalType": "enum OptionLibrary.OptionSide",
              "name": "side",
              "type": "uint8"
            },
            {
              "internalType": "enum OptionLibrary.OptionStatus",
              "name": "status",
              "type": "uint8"
            },
            {
              "internalType": "address",
              "name": "holder",
              "type": "address"
            },
            {
              "internalType": "uint256",
              "name": "id",
              "type": "uint256"
            },
            {
              "internalType": "uint256",
              "name": "createTime",
              "type": "uint256"
            },
            {
              "internalType": "uint256",
              "name": "effectiveTime",
              "type": "uint256"
            },
            {
              "internalType": "uint256",
              "name": "tenor",
              "type": "uint256"
            },
            {
              "internalType": "uint256",
              "name": "maturity",
              "type": "uint256"
            },
            {
              "internalType": "uint256",
              "name": "exerciseTime",
              "type": "uint256"
            },
            {
              "internalType": "uint256",
              "name": "amount",
              "type": "uint256"
            },
            {
              "internalType": "uint256",
              "name": "spot",
              "type": "uint256"
            },
            {
              "internalType": "uint256",
              "name": "strike",
              "type": "uint256"
            },
            {
              "internalType": "uint256",
              "name": "volatility",
              "type": "uint256"
            },
            {
              "internalType": "uint256",
              "name": "premium",
              "type": "uint256"
            },
            {
              "internalType": "uint256",
              "name": "cost",
              "type": "uint256"
            }
          ],
          "indexed": false,
          "internalType": "struct OptionLibrary.Option",
          "name": "_option",
          "type": "tuple"
        },
        {
          "indexed": false,
          "internalType": "uint256",
          "name": "_cost",
          "type": "uint256"
        },
        {
          "indexed": false,
          "internalType": "bool",
          "name": "_inVol",
          "type": "bool"
        }
      ],
      "name": "newOptionBought",
      "type": "event"
    },
    {
      "anonymous": false,
      "inputs": [
        {
          "indexed": true,
          "internalType": "address",
          "name": "_purchaser",
          "type": "address"
        },
        {
          "components": [
            {
              "internalType": "enum OptionLibrary.PayoffType",
              "name": "poType",
              "type": "uint8"
            },
            {
              "internalType": "enum OptionLibrary.OptionSide",
              "name": "side",
              "type": "uint8"
            },
            {
              "internalType": "enum OptionLibrary.OptionStatus",
              "name": "status",
              "type": "uint8"
            },
            {
              "internalType": "address",
              "name": "holder",
              "type": "address"
            },
            {
              "internalType": "uint256",
              "name": "id",
              "type": "uint256"
            },
            {
              "internalType": "uint256",
              "name": "createTime",
              "type": "uint256"
            },
            {
              "internalType": "uint256",
              "name": "effectiveTime",
              "type": "uint256"
            },
            {
              "internalType": "uint256",
              "name": "tenor",
              "type": "uint256"
            },
            {
              "internalType": "uint256",
              "name": "maturity",
              "type": "uint256"
            },
            {
              "internalType": "uint256",
              "name": "exerciseTime",
              "type": "uint256"
            },
            {
              "internalType": "uint256",
              "name": "amount",
              "type": "uint256"
            },
            {
              "internalType": "uint256",
              "name": "spot",
              "type": "uint256"
            },
            {
              "internalType": "uint256",
              "name": "strike",
              "type": "uint256"
            },
            {
              "internalType": "uint256",
              "name": "volatility",
              "type": "uint256"
            },
            {
              "internalType": "uint256",
              "name": "premium",
              "type": "uint256"
            },
            {
              "internalType": "uint256",
              "name": "cost",
              "type": "uint256"
            }
          ],
          "indexed": false,
          "internalType": "struct OptionLibrary.Option",
          "name": "_option",
          "type": "tuple"
        },
        {
          "indexed": false,
          "internalType": "uint256",
          "name": "_payoff",
          "type": "uint256"
        }
      ],
      "name": "optionExercised",
      "type": "event"
    },
    {
      "anonymous": false,
      "inputs": [
        {
          "indexed": false,
          "internalType": "address",
          "name": "_purchaser",
          "type": "address"
        },
        {
          "indexed": false,
          "internalType": "uint256",
          "name": "_time",
          "type": "uint256"
        },
        {
          "indexed": false,
          "internalType": "uint256",
          "name": "_tenor",
          "type": "uint256"
        },
        {
          "indexed": false,
          "internalType": "uint256",
          "name": "_amount",
          "type": "uint256"
        },
        {
          "indexed": false,
          "internalType": "uint256",
          "name": "_cost",
          "type": "uint256"
        }
      ],
      "name": "volatilityTokenBought",
      "type": "event"
    },
    {
      "anonymous": false,
      "inputs": [
        {
          "indexed": false,
          "internalType": "address",
          "name": "_seller",
          "type": "address"
        },
        {
          "indexed": false,
          "internalType": "uint256",
          "name": "_time",
          "type": "uint256"
        },
        {
          "indexed": false,
          "internalType": "uint256",
          "name": "_tenor",
          "type": "uint256"
        },
        {
          "indexed": false,
          "internalType": "uint256",
          "name": "_amount",
          "type": "uint256"
        },
        {
          "indexed": false,
          "internalType": "uint256",
          "name": "_cost",
          "type": "uint256"
        }
      ],
      "name": "volatilityTokenSold",
      "type": "event"
    },
    {
      "inputs": [],
      "name": "ADMIN_ROLE",
      "outputs": [
        {
          "internalType": "bytes32",
          "name": "",
          "type": "bytes32"
        }
      ],
      "stateMutability": "view",
      "type": "function",
      "constant": true
    },
    {
      "inputs": [],
      "name": "DEFAULT_ADMIN_ROLE",
      "outputs": [
        {
          "internalType": "bytes32",
          "name": "",
          "type": "bytes32"
        }
      ],
      "stateMutability": "view",
      "type": "function",
      "constant": true
    },
    {
      "inputs": [],
      "name": "allowTrading",
      "outputs": [
        {
          "internalType": "bool",
          "name": "",
          "type": "bool"
        }
      ],
      "stateMutability": "view",
      "type": "function",
      "constant": true
    },
    {
      "inputs": [
        {
          "internalType": "bytes32",
          "name": "role",
          "type": "bytes32"
        }
      ],
      "name": "getRoleAdmin",
      "outputs": [
        {
          "internalType": "bytes32",
          "name": "",
          "type": "bytes32"
        }
      ],
      "stateMutability": "view",
      "type": "function",
      "constant": true
    },
    {
      "inputs": [
        {
          "internalType": "bytes32",
          "name": "role",
          "type": "bytes32"
        },
        {
          "internalType": "address",
          "name": "account",
          "type": "address"
        }
      ],
      "name": "grantRole",
      "outputs": [],
      "stateMutability": "nonpayable",
      "type": "function"
    },
    {
      "inputs": [
        {
          "internalType": "bytes32",
          "name": "role",
          "type": "bytes32"
        },
        {
          "internalType": "address",
          "name": "account",
          "type": "address"
        }
      ],
      "name": "hasRole",
      "outputs": [
        {
          "internalType": "bool",
          "name": "",
          "type": "bool"
        }
      ],
      "stateMutability": "view",
      "type": "function",
      "constant": true
    },
    {
      "inputs": [],
      "name": "loanInterest",
      "outputs": [
        {
          "internalType": "uint256",
          "name": "",
          "type": "uint256"
        }
      ],
      "stateMutability": "view",
      "type": "function",
      "constant": true
    },
    {
      "inputs": [],
      "name": "marketMakerAddress",
      "outputs": [
        {
          "internalType": "address",
          "name": "",
          "type": "address"
        }
      ],
      "stateMutability": "view",
      "type": "function",
      "constant": true
    },
    {
      "inputs": [
        {
          "internalType": "bytes32",
          "name": "role",
          "type": "bytes32"
        },
        {
          "internalType": "address",
          "name": "account",
          "type": "address"
        }
      ],
      "name": "renounceRole",
      "outputs": [],
      "stateMutability": "nonpayable",
      "type": "function"
    },
    {
      "inputs": [
        {
          "internalType": "bytes32",
          "name": "role",
          "type": "bytes32"
        },
        {
          "internalType": "address",
          "name": "account",
          "type": "address"
        }
      ],
      "name": "revokeRole",
      "outputs": [],
      "stateMutability": "nonpayable",
      "type": "function"
    },
    {
      "inputs": [
        {
          "internalType": "bytes4",
          "name": "interfaceId",
          "type": "bytes4"
        }
      ],
      "name": "supportsInterface",
      "outputs": [
        {
          "internalType": "bool",
          "name": "",
          "type": "bool"
        }
      ],
      "stateMutability": "view",
      "type": "function",
      "constant": true
    },
    {
      "inputs": [],
      "name": "vaultAddress",
      "outputs": [
        {
          "internalType": "address",
          "name": "",
          "type": "address"
        }
      ],
      "stateMutability": "view",
      "type": "function",
      "constant": true
    },
    {
      "inputs": [],
      "name": "volRiskPremiumMaxRatio",
      "outputs": [
        {
          "internalType": "uint256",
          "name": "",
          "type": "uint256"
        }
      ],
      "stateMutability": "view",
      "type": "function",
      "constant": true
    },
    {
      "inputs": [
        {
          "internalType": "uint256",
          "name": "",
          "type": "uint256"
        }
      ],
      "name": "volTokenAddressList",
      "outputs": [
        {
          "internalType": "address",
          "name": "",
          "type": "address"
        }
      ],
      "stateMutability": "view",
      "type": "function",
      "constant": true
    },
    {
      "inputs": [
        {
          "internalType": "uint256",
          "name": "_tenor",
          "type": "uint256"
        },
        {
          "internalType": "uint256",
          "name": "_price",
          "type": "uint256"
        },
        {
          "internalType": "uint256",
          "name": "_strike",
          "type": "uint256"
        },
        {
          "internalType": "uint256",
          "name": "_amount",
          "type": "uint256"
        },
        {
          "internalType": "enum OptionLibrary.PayoffType",
          "name": "_poType",
          "type": "uint8"
        },
        {
          "internalType": "enum OptionLibrary.OptionSide",
          "name": "_side",
          "type": "uint8"
        }
      ],
      "name": "calcCost",
      "outputs": [
        {
          "internalType": "uint256",
          "name": "_premium",
          "type": "uint256"
        },
        {
          "internalType": "uint256",
          "name": "_cost",
          "type": "uint256"
        },
        {
          "internalType": "uint256",
          "name": "_vol",
          "type": "uint256"
        }
      ],
      "stateMutability": "view",
      "type": "function",
      "constant": true
    },
    {
      "inputs": [
        {
          "internalType": "uint256",
          "name": "_tenor",
          "type": "uint256"
        },
        {
          "internalType": "uint256",
          "name": "_strike",
          "type": "uint256"
        },
        {
          "internalType": "uint256",
          "name": "_amount",
          "type": "uint256"
        },
        {
          "internalType": "enum OptionLibrary.OptionSide",
          "name": "_side",
          "type": "uint8"
        }
      ],
      "name": "queryOptionVolatility",
      "outputs": [
        {
          "internalType": "uint256",
          "name": "_vol",
          "type": "uint256"
        }
      ],
      "stateMutability": "view",
      "type": "function",
      "constant": true
    },
    {
      "inputs": [
        {
          "internalType": "uint256",
          "name": "_tenor",
          "type": "uint256"
        },
        {
          "internalType": "uint256",
          "name": "_strike",
          "type": "uint256"
        },
        {
          "internalType": "uint256",
          "name": "_amount",
          "type": "uint256"
        },
        {
          "internalType": "enum OptionLibrary.PayoffType",
          "name": "_poType",
          "type": "uint8"
        },
        {
          "internalType": "enum OptionLibrary.OptionSide",
          "name": "_side",
          "type": "uint8"
        },
        {
          "internalType": "uint256",
          "name": "_payInCost",
          "type": "uint256"
        }
      ],
      "name": "purchaseOption",
      "outputs": [],
      "stateMutability": "nonpayable",
      "type": "function"
    },
    {
      "inputs": [
        {
          "internalType": "uint256",
          "name": "_id",
          "type": "uint256"
        }
      ],
      "name": "getOptionPayoffValue",
      "outputs": [
        {
          "internalType": "uint256",
          "name": "_payback",
          "type": "uint256"
        }
      ],
      "stateMutability": "view",
      "type": "function",
      "constant": true
    },
    {
      "inputs": [
        {
          "internalType": "uint256",
          "name": "_tenor",
          "type": "uint256"
        },
        {
          "internalType": "uint256",
          "name": "_amount",
          "type": "uint256"
        },
        {
          "internalType": "enum OptionLibrary.OptionSide",
          "name": "_side",
          "type": "uint8"
        }
      ],
      "name": "calcVolAmount",
      "outputs": [
        {
          "internalType": "uint256",
          "name": "_volAmount",
          "type": "uint256"
        },
        {
          "internalType": "uint256",
          "name": "_vol",
          "type": "uint256"
        },
        {
          "internalType": "uint256",
          "name": "_premium",
          "type": "uint256"
        },
        {
          "internalType": "uint256",
          "name": "_cost",
          "type": "uint256"
        },
        {
          "internalType": "uint256",
          "name": "_price",
          "type": "uint256"
        }
      ],
      "stateMutability": "view",
      "type": "function",
      "constant": true
    },
    {
      "inputs": [
        {
          "internalType": "uint256",
          "name": "_tenor",
          "type": "uint256"
        },
        {
          "internalType": "uint256",
          "name": "_amount",
          "type": "uint256"
        },
        {
          "internalType": "uint256",
          "name": "_payInCost",
          "type": "uint256"
        }
      ],
      "name": "buyVol",
      "outputs": [],
      "stateMutability": "nonpayable",
      "type": "function"
    },
    {
      "inputs": [
        {
          "internalType": "uint256",
          "name": "_tenor",
          "type": "uint256"
        },
        {
          "internalType": "uint256",
          "name": "_amount",
          "type": "uint256"
        },
        {
          "internalType": "uint256",
          "name": "_payInVol",
          "type": "uint256"
        }
      ],
      "name": "sellVol",
      "outputs": [],
      "stateMutability": "nonpayable",
      "type": "function"
    },
    {
      "inputs": [
        {
          "internalType": "uint256",
          "name": "_tenor",
          "type": "uint256"
        },
        {
          "internalType": "uint256",
          "name": "_amount",
          "type": "uint256"
        },
        {
          "internalType": "enum OptionLibrary.PayoffType",
          "name": "_poType",
          "type": "uint8"
        },
        {
          "internalType": "uint256",
          "name": "_payInVol",
          "type": "uint256"
        }
      ],
      "name": "buyOptionInVol",
      "outputs": [],
      "stateMutability": "nonpayable",
      "type": "function"
    },
    {
      "inputs": [
        {
          "internalType": "uint256",
          "name": "_tenor",
          "type": "uint256"
        },
        {
          "internalType": "uint256",
          "name": "_amount",
          "type": "uint256"
        },
        {
          "internalType": "enum OptionLibrary.PayoffType",
          "name": "_poType",
          "type": "uint8"
        },
        {
          "internalType": "uint256",
          "name": "_payInCost",
          "type": "uint256"
        }
      ],
      "name": "sellOptionInVol",
      "outputs": [],
      "stateMutability": "nonpayable",
      "type": "function"
    },
    {
      "inputs": [
        {
          "internalType": "uint256",
          "name": "_tenor",
          "type": "uint256"
        },
        {
          "internalType": "address",
          "name": "_tokenAddress",
          "type": "address"
        }
      ],
      "name": "addVolToken",
      "outputs": [],
      "stateMutability": "nonpayable",
      "type": "function"
    },
    {
      "inputs": [
        {
          "internalType": "uint256",
          "name": "_tenor",
          "type": "uint256"
        }
      ],
      "name": "removeVolToken",
      "outputs": [],
      "stateMutability": "nonpayable",
      "type": "function"
    },
    {
      "inputs": [
        {
          "internalType": "uint256",
          "name": "_loanInterest",
          "type": "uint256"
        }
      ],
      "name": "resetLoanRate",
      "outputs": [],
      "stateMutability": "nonpayable",
      "type": "function"
    },
    {
      "inputs": [
        {
          "internalType": "uint256",
          "name": "_newRatio",
          "type": "uint256"
        }
      ],
      "name": "resetRiskPremiumMaxRatio",
      "outputs": [],
      "stateMutability": "nonpayable",
      "type": "function"
    },
    {
      "inputs": [
        {
          "internalType": "bool",
          "name": "_allowTrading",
          "type": "bool"
        }
      ],
      "name": "resetTrading",
      "outputs": [],
      "stateMutability": "nonpayable",
      "type": "function"
    }
  ],
  "bytecode": "0x60806040526718fae27693b4000060065560006007556001600860006101000a81548160ff0219169083151502179055503480156200003d57600080fd5b5060405162005c5638038062005c56833981810160405281019062000063919062000399565b620000786000801b33620001b660201b60201c565b620000aa7fa49807205ce4d355092ef5a8a18f56e8913cf4a201fbe287825b095693c2177533620001b660201b60201c565b80600160006101000a81548173ffffffffffffffffffffffffffffffffffffffff021916908373ffffffffffffffffffffffffffffffffffffffff16021790555080600560006101000a81548173ffffffffffffffffffffffffffffffffffffffff021916908373ffffffffffffffffffffffffffffffffffffffff16021790555081600260006101000a81548173ffffffffffffffffffffffffffffffffffffffff021916908373ffffffffffffffffffffffffffffffffffffffff16021790555081600460006101000a81548173ffffffffffffffffffffffffffffffffffffffff021916908373ffffffffffffffffffffffffffffffffffffffff1602179055505050620003e0565b620001c88282620001cc60201b60201c565b5050565b620001de8282620002bd60201b60201c565b620002b957600160008084815260200190815260200160002060000160008373ffffffffffffffffffffffffffffffffffffffff1673ffffffffffffffffffffffffffffffffffffffff16815260200190815260200160002060006101000a81548160ff0219169083151502179055506200025e6200032760201b60201c565b73ffffffffffffffffffffffffffffffffffffffff168173ffffffffffffffffffffffffffffffffffffffff16837f2f8788117e7eff1d82e926ec794901d17c78024a50270940304540a733656f0d60405160405180910390a45b5050565b600080600084815260200190815260200160002060000160008373ffffffffffffffffffffffffffffffffffffffff1673ffffffffffffffffffffffffffffffffffffffff16815260200190815260200160002060009054906101000a900460ff16905092915050565b600033905090565b600080fd5b600073ffffffffffffffffffffffffffffffffffffffff82169050919050565b6000620003618262000334565b9050919050565b620003738162000354565b81146200037f57600080fd5b50565b600081519050620003938162000368565b92915050565b60008060408385031215620003b357620003b26200032f565b5b6000620003c38582860162000382565b9250506020620003d68582860162000382565b9150509250929050565b61586680620003f06000396000f3fe608060405234801561001057600080fd5b50600436106101c45760003560e01c80636a7d116f116100f9578063a217fddf11610097578063cc91058811610071578063cc91058814610507578063d547741f14610525578063dab2432914610541578063edf0bec61461055d576101c4565b8063a217fddf146104af578063a34a1e4d146104cd578063a7292ea4146104e9576101c4565b806375b8452b116100d357806375b8452b1461041357806385e6be8b146104475780638d4939c61461046357806391d148541461047f576101c4565b80636a7d116f146103a95780637188157e146103d957806375b238fc146103f5576101c4565b80632e5b4c431161016657806340d6eaab1161014057806340d6eaab14610323578063430bf08a146103535780634b7a58fb146103715780634d937da91461038d576101c4565b80632e5b4c43146102cd5780632f2ff15d146102eb57806336568abe14610307576101c4565b80630c64307d116101a25780630c64307d14610233578063130dab6a1461024f578063248a9ca31461026b57806328d3af851461029b576101c4565b806301ffc9a7146101c95780630227ac83146101f95780630875c6b114610215575b600080fd5b6101e360048036038101906101de9190613be6565b61058d565b6040516101f09190613c2e565b60405180910390f35b610213600480360381019061020e9190613cdd565b610607565b005b61021d6108af565b60405161022a9190613d2c565b60405180910390f35b61024d60048036038101906102489190613d47565b6108b5565b005b61026960048036038101906102649190613d47565b6108f2565b005b61028560048036038101906102809190613daa565b61097b565b6040516102929190613de6565b60405180910390f35b6102b560048036038101906102b09190613e4b565b61099a565b6040516102c493929190613ed8565b60405180910390f35b6102d5610d71565b6040516102e29190613c2e565b60405180910390f35b61030560048036038101906103009190613f0f565b610d84565b005b610321600480360381019061031c9190613f0f565b610dad565b005b61033d60048036038101906103389190613d47565b610e30565b60405161034a9190613d2c565b60405180910390f35b61035b610ed8565b6040516103689190613f5e565b60405180910390f35b61038b60048036038101906103869190613f79565b610efe565b005b6103a760048036038101906103a29190613fcc565b6111db565b005b6103c360048036038101906103be9190614033565b61183b565b6040516103d09190613d2c565b60405180910390f35b6103f360048036038101906103ee9190613fcc565b611b3f565b005b6103fd612189565b60405161040a9190613de6565b60405180910390f35b61042d6004803603810190610428919061409a565b6121ad565b60405161043e9594939291906140ed565b60405180910390f35b610461600480360381019061045c9190613d47565b612437565b005b61047d6004803603810190610478919061416c565b612474565b005b61049960048036038101906104949190613f0f565b6124a7565b6040516104a69190613c2e565b60405180910390f35b6104b7612511565b6040516104c49190613de6565b60405180910390f35b6104e760048036038101906104e29190614199565b612518565b005b6104f1612a08565b6040516104fe9190613d2c565b60405180910390f35b61050f612a0e565b60405161051c9190613f5e565b60405180910390f35b61053f600480360381019061053a9190613f0f565b612a34565b005b61055b60048036038101906105569190613f79565b612a5d565b005b61057760048036038101906105729190613d47565b612e84565b6040516105849190613f5e565b60405180910390f35b60007f7965db0b000000000000000000000000000000000000000000000000000000007bffffffffffffffffffffffffffffffffffffffffffffffffffffffff1916827bffffffffffffffffffffffffffffffffffffffffffffffffffffffff1916148061060057506105ff82612eb7565b5b9050919050565b7fa49807205ce4d355092ef5a8a18f56e8913cf4a201fbe287825b095693c2177561063981610634612f21565b612f29565b826003600085815260200190815260200160002060009054906101000a900473ffffffffffffffffffffffffffffffffffffffff1673ffffffffffffffffffffffffffffffffffffffff1663a15612d16040518163ffffffff1660e01b8152600401602060405180830381865afa1580156106b8573d6000803e3d6000fd5b505050506040513d601f19601f820116820180604052508101906106dc919061423b565b1480156108195750600560009054906101000a900473ffffffffffffffffffffffffffffffffffffffff1673ffffffffffffffffffffffffffffffffffffffff1663cca494736040518163ffffffff1660e01b8152600401602060405180830381865afa158015610751573d6000803e3d6000fd5b505050506040513d601f19601f82011682018060405250810190610775919061427d565b6003600085815260200190815260200160002060009054906101000a900473ffffffffffffffffffffffffffffffffffffffff1673ffffffffffffffffffffffffffffffffffffffff1663cca494736040518163ffffffff1660e01b8152600401602060405180830381865afa1580156107f3573d6000803e3d6000fd5b505050506040513d601f19601f82011682018060405250810190610817919061427d565b145b610858576040517f08c379a000000000000000000000000000000000000000000000000000000000815260040161084f90614307565b60405180910390fd5b816003600085815260200190815260200160002060006101000a81548173ffffffffffffffffffffffffffffffffffffffff021916908373ffffffffffffffffffffffffffffffffffffffff160217905550505050565b60065481565b7fa49807205ce4d355092ef5a8a18f56e8913cf4a201fbe287825b095693c217756108e7816108e2612f21565b612f29565b816007819055505050565b7fa49807205ce4d355092ef5a8a18f56e8913cf4a201fbe287825b095693c217756109248161091f612f21565b612f29565b60006003600084815260200190815260200160002060006101000a81548173ffffffffffffffffffffffffffffffffffffffff021916908373ffffffffffffffffffffffffffffffffffffffff1602179055505050565b6000806000838152602001908152602001600020600101549050919050565b60008060006109ab8988888761183b565b9050600073__OptionLibrary_________________________634ea26ca4898888600460009054906101000a900473ffffffffffffffffffffffffffffffffffffffff1673ffffffffffffffffffffffffffffffffffffffff16631aedeabe6040518163ffffffff1660e01b8152600401602060405180830381865afa158015610a39573d6000803e3d6000fd5b505050506040513d601f19601f82011682018060405250810190610a5d919061423b565b6007546040518663ffffffff1660e01b8152600401610a809594939291906143f5565b602060405180830381865af4158015610a9d573d6000803e3d6000fd5b505050506040513d601f19601f82011682018060405250810190610ac1919061423b565b905073__OptionLibrary_________________________6390829f918a838a868b8b6040518763ffffffff1660e01b8152600401610b0496959493929190614448565b6040805180830381865af4158015610b20573d6000803e3d6000fd5b505050506040513d601f19601f82011682018060405250810190610b4491906144a9565b809450819550505073__MarketLibrary_________________________638170ce8085600560009054906101000a900473ffffffffffffffffffffffffffffffffffffffff1673ffffffffffffffffffffffffffffffffffffffff1663cb4c86b76040518163ffffffff1660e01b8152600401602060405180830381865afa158015610bd4573d6000803e3d6000fd5b505050506040513d601f19601f82011682018060405250810190610bf891906144fe565b6040518363ffffffff1660e01b8152600401610c1592919061453a565b602060405180830381865af4158015610c32573d6000803e3d6000fd5b505050506040513d601f19601f82011682018060405250810190610c56919061423b565b935073__MarketLibrary_________________________638170ce8084600560009054906101000a900473ffffffffffffffffffffffffffffffffffffffff1673ffffffffffffffffffffffffffffffffffffffff1663cb4c86b76040518163ffffffff1660e01b8152600401602060405180830381865afa158015610ce0573d6000803e3d6000fd5b505050506040513d601f19601f82011682018060405250810190610d0491906144fe565b6040518363ffffffff1660e01b8152600401610d2192919061453a565b602060405180830381865af4158015610d3e573d6000803e3d6000fd5b505050506040513d601f19601f82011682018060405250810190610d62919061423b565b92505096509650969350505050565b600860009054906101000a900460ff1681565b610d8d8261097b565b610d9e81610d99612f21565b612f29565b610da88383612fc6565b505050565b610db5612f21565b73ffffffffffffffffffffffffffffffffffffffff168173ffffffffffffffffffffffffffffffffffffffff1614610e22576040517f08c379a0000000000000000000000000000000000000000000000000000000008152600401610e19906145d5565b60405180910390fd5b610e2c82826130a6565b5050565b6000600560009054906101000a900473ffffffffffffffffffffffffffffffffffffffff1673ffffffffffffffffffffffffffffffffffffffff166385ae10e6836040518263ffffffff1660e01b8152600401610e8d9190613d2c565b6040805180830381865afa158015610ea9573d6000803e3d6000fd5b505050506040513d601f19601f82011682018060405250810190610ecd91906144a9565b905080915050919050565b600160009054906101000a900473ffffffffffffffffffffffffffffffffffffffff1681565b600860009054906101000a900460ff16610f4d576040517f08c379a0000000000000000000000000000000000000000000000000000000008152600401610f4490614641565b60405180910390fd5b600080610f5c858560006121ad565b5050925050915080831015610fa6576040517f08c379a0000000000000000000000000000000000000000000000000000000008152600401610f9d906146ad565b60405180910390fd5b600560009054906101000a900473ffffffffffffffffffffffffffffffffffffffff1673ffffffffffffffffffffffffffffffffffffffff1663cb4c86b76040518163ffffffff1660e01b8152600401602060405180830381865afa158015611013573d6000803e3d6000fd5b505050506040513d601f19601f8201168201806040525081019061103791906144fe565b73ffffffffffffffffffffffffffffffffffffffff166323b872dd3330846040518463ffffffff1660e01b8152600401611073939291906146cd565b6020604051808303816000875af1158015611092573d6000803e3d6000fd5b505050506040513d601f19601f820116820180604052508101906110b69190614719565b6110f5576040517f08c379a00000000000000000000000000000000000000000000000000000000081526004016110ec90614792565b60405180910390fd5b6003600086815260200190815260200160002060009054906101000a900473ffffffffffffffffffffffffffffffffffffffff1673ffffffffffffffffffffffffffffffffffffffff166340c10f1933846040518363ffffffff1660e01b81526004016111639291906147b2565b600060405180830381600087803b15801561117d57600080fd5b505af1158015611191573d6000803e3d6000fd5b505050507f41d69e33fd598418aa9a6a5462a34bc55033968f3e4060ef4721e770058cbbb933428785856040516111cc9594939291906147db565b60405180910390a15050505050565b600860009054906101000a900460ff1661122a576040517f08c379a000000000000000000000000000000000000000000000000000000000815260040161122190614641565b60405180910390fd5b600080600080600061123e898960016121ad565b9450945094509450945060008284611256919061485d565b90508087101561129b576040517f08c379a0000000000000000000000000000000000000000000000000000000008152600401611292906146ad565b60405180910390fd5b600560009054906101000a900473ffffffffffffffffffffffffffffffffffffffff1673ffffffffffffffffffffffffffffffffffffffff1663cb4c86b76040518163ffffffff1660e01b8152600401602060405180830381865afa158015611308573d6000803e3d6000fd5b505050506040513d601f19601f8201168201806040525081019061132c91906144fe565b73ffffffffffffffffffffffffffffffffffffffff166323b872dd33600260009054906101000a900473ffffffffffffffffffffffffffffffffffffffff16866040518463ffffffff1660e01b815260040161138a939291906146cd565b6020604051808303816000875af11580156113a9573d6000803e3d6000fd5b505050506040513d601f19601f820116820180604052508101906113cd9190614719565b61140c576040517f08c379a0000000000000000000000000000000000000000000000000000000008152600401611403906148ff565b60405180910390fd5b600560009054906101000a900473ffffffffffffffffffffffffffffffffffffffff1673ffffffffffffffffffffffffffffffffffffffff1663cb4c86b76040518163ffffffff1660e01b8152600401602060405180830381865afa158015611479573d6000803e3d6000fd5b505050506040513d601f19601f8201168201806040525081019061149d91906144fe565b73ffffffffffffffffffffffffffffffffffffffff166323b872dd3330876040518463ffffffff1660e01b81526004016114d9939291906146cd565b6020604051808303816000875af11580156114f8573d6000803e3d6000fd5b505050506040513d601f19601f8201168201806040525081019061151c9190614719565b61155b576040517f08c379a0000000000000000000000000000000000000000000000000000000008152600401611552906148ff565b60405180910390fd5b6000600560009054906101000a900473ffffffffffffffffffffffffffffffffffffffff1673ffffffffffffffffffffffffffffffffffffffff1663b5310ff98c858d8d60018b8b8b8f336040518b63ffffffff1660e01b81526004016115cb9a9998979695949392919061493d565b6020604051808303816000875af11580156115ea573d6000803e3d6000fd5b505050506040513d601f19601f8201168201806040525081019061160e919061423b565b9050600360008c815260200190815260200160002060009054906101000a900473ffffffffffffffffffffffffffffffffffffffff1673ffffffffffffffffffffffffffffffffffffffff166340c10f1933896040518363ffffffff1660e01b815260040161167e9291906147b2565b600060405180830381600087803b15801561169857600080fd5b505af11580156116ac573d6000803e3d6000fd5b50505050600560009054906101000a900473ffffffffffffffffffffffffffffffffffffffff1673ffffffffffffffffffffffffffffffffffffffff166324b4110e82336040518363ffffffff1660e01b815260040161170d9291906149d9565b600060405180830381600087803b15801561172757600080fd5b505af115801561173b573d6000803e3d6000fd5b505050503373ffffffffffffffffffffffffffffffffffffffff167f639bcb68083836b73ad6cd444bd790e8421c4b363635459fbfff715dc24fa855600560009054906101000a900473ffffffffffffffffffffffffffffffffffffffff1673ffffffffffffffffffffffffffffffffffffffff16631ce5e9a6846040518263ffffffff1660e01b81526004016117d29190613d2c565b61020060405180830381865afa1580156117f0573d6000803e3d6000fd5b505050506040513d601f19601f820116820180604052508101906118149190614c5c565b89600160405161182693929190614e58565b60405180910390a25050505050505050505050565b6000600560009054906101000a900473ffffffffffffffffffffffffffffffffffffffff1673ffffffffffffffffffffffffffffffffffffffff1663cfc2dc20866040518263ffffffff1660e01b81526004016118989190613d2c565b602060405180830381865afa1580156118b5573d6000803e3d6000fd5b505050506040513d601f19601f820116820180604052508101906118d9919061423b565b90506000600560009054906101000a900473ffffffffffffffffffffffffffffffffffffffff1673ffffffffffffffffffffffffffffffffffffffff1663b0667cf86040518163ffffffff1660e01b81526004016040805180830381865afa158015611949573d6000803e3d6000fd5b505050506040513d601f19601f8201168201806040525081019061196d91906144a9565b509050600460009054906101000a900473ffffffffffffffffffffffffffffffffffffffff1673ffffffffffffffffffffffffffffffffffffffff166363447902600160006040518363ffffffff1660e01b81526004016119cf929190614e92565b602060405180830381865afa1580156119ec573d6000803e3d6000fd5b505050506040513d601f19601f82011682018060405250810190611a10919061423b565b611a87858373__OptionLibrary_________________________63fd9b87636040518163ffffffff1660e01b8152600401602060405180830381865af4158015611a5e573d6000803e3d6000fd5b505050506040513d601f19601f82011682018060405250810190611a82919061423b565b613187565b1115611ac8576040517f08c379a0000000000000000000000000000000000000000000000000000000008152600401611abf90614f07565b60405180910390fd5b6000611ad78284888888613283565b905060008184611ae79190614f31565b13611b27576040517f08c379a0000000000000000000000000000000000000000000000000000000008152600401611b1e90615011565b60405180910390fd5b8083611b339190614f31565b92505050949350505050565b600860009054906101000a900460ff16611b8e576040517f08c379a0000000000000000000000000000000000000000000000000000000008152600401611b8590614641565b60405180910390fd5b6000806000806000611ba2898960006121ad565b9450945094509450945084861015611bef576040517f08c379a0000000000000000000000000000000000000000000000000000000008152600401611be6906146ad565b60405180910390fd5b82600560009054906101000a900473ffffffffffffffffffffffffffffffffffffffff1673ffffffffffffffffffffffffffffffffffffffff1663cb4c86b76040518163ffffffff1660e01b8152600401602060405180830381865afa158015611c5d573d6000803e3d6000fd5b505050506040513d601f19601f82011682018060405250810190611c8191906144fe565b73ffffffffffffffffffffffffffffffffffffffff166370a08231306040518263ffffffff1660e01b8152600401611cb99190613f5e565b602060405180830381865afa158015611cd6573d6000803e3d6000fd5b505050506040513d601f19601f82011682018060405250810190611cfa919061423b565b1015611d3b576040517f08c379a0000000000000000000000000000000000000000000000000000000008152600401611d329061507d565b60405180910390fd5b600360008a815260200190815260200160002060009054906101000a900473ffffffffffffffffffffffffffffffffffffffff1673ffffffffffffffffffffffffffffffffffffffff16639dc29fac33876040518363ffffffff1660e01b8152600401611da99291906147b2565b600060405180830381600087803b158015611dc357600080fd5b505af1158015611dd7573d6000803e3d6000fd5b505050506000600560009054906101000a900473ffffffffffffffffffffffffffffffffffffffff1673ffffffffffffffffffffffffffffffffffffffff1663b5310ff98b848c8c60008a8a8a8e336040518b63ffffffff1660e01b8152600401611e4b9a9998979695949392919061493d565b6020604051808303816000875af1158015611e6a573d6000803e3d6000fd5b505050506040513d601f19601f82011682018060405250810190611e8e919061423b565b9050600560009054906101000a900473ffffffffffffffffffffffffffffffffffffffff1673ffffffffffffffffffffffffffffffffffffffff1663cb4c86b76040518163ffffffff1660e01b8152600401602060405180830381865afa158015611efd573d6000803e3d6000fd5b505050506040513d601f19601f82011682018060405250810190611f2191906144fe565b73ffffffffffffffffffffffffffffffffffffffff1663a9059cbb600260009054906101000a900473ffffffffffffffffffffffffffffffffffffffff16866040518363ffffffff1660e01b8152600401611f7d9291906147b2565b6020604051808303816000875af1158015611f9c573d6000803e3d6000fd5b505050506040513d601f19601f82011682018060405250810190611fc09190614719565b611fff576040517f08c379a0000000000000000000000000000000000000000000000000000000008152600401611ff6906148ff565b60405180910390fd5b600560009054906101000a900473ffffffffffffffffffffffffffffffffffffffff1673ffffffffffffffffffffffffffffffffffffffff166324b4110e82336040518363ffffffff1660e01b815260040161205c9291906149d9565b600060405180830381600087803b15801561207657600080fd5b505af115801561208a573d6000803e3d6000fd5b505050503373ffffffffffffffffffffffffffffffffffffffff167f639bcb68083836b73ad6cd444bd790e8421c4b363635459fbfff715dc24fa855600560009054906101000a900473ffffffffffffffffffffffffffffffffffffffff1673ffffffffffffffffffffffffffffffffffffffff16631ce5e9a6846040518263ffffffff1660e01b81526004016121219190613d2c565b61020060405180830381865afa15801561213f573d6000803e3d6000fd5b505050506040513d601f19601f820116820180604052508101906121639190614c5c565b88600160405161217593929190614e58565b60405180910390a250505050505050505050565b7fa49807205ce4d355092ef5a8a18f56e8913cf4a201fbe287825b095693c2177581565b60008060008060008073ffffffffffffffffffffffffffffffffffffffff16600360008a815260200190815260200160002060009054906101000a900473ffffffffffffffffffffffffffffffffffffffff1673ffffffffffffffffffffffffffffffffffffffff161415612257576040517f08c379a000000000000000000000000000000000000000000000000000000000815260040161224e906150e9565b60405180910390fd5b600560009054906101000a900473ffffffffffffffffffffffffffffffffffffffff1673ffffffffffffffffffffffffffffffffffffffff1663b0667cf86040518163ffffffff1660e01b81526004016040805180830381865afa1580156122c3573d6000803e3d6000fd5b505050506040513d601f19601f820116820180604052508101906122e791906144a9565b50809150506122fb8882838a60008b61099a565b80965081945082955050505073__MarketLibrary_________________________638170ce806123988573__OptionLibrary_________________________63fd9b87636040518163ffffffff1660e01b8152600401602060405180830381865af415801561236e573d6000803e3d6000fd5b505050506040513d601f19601f82011682018060405250810190612392919061423b565b88613187565b600360008c815260200190815260200160002060009054906101000a900473ffffffffffffffffffffffffffffffffffffffff166040518363ffffffff1660e01b81526004016123e992919061453a565b602060405180830381865af4158015612406573d6000803e3d6000fd5b505050506040513d601f19601f8201168201806040525081019061242a919061423b565b9450939792965093509350565b7fa49807205ce4d355092ef5a8a18f56e8913cf4a201fbe287825b095693c2177561246981612464612f21565b612f29565b816006819055505050565b6000801b61248981612484612f21565b612f29565b81600860006101000a81548160ff0219169083151502179055505050565b600080600084815260200190815260200160002060000160008373ffffffffffffffffffffffffffffffffffffffff1673ffffffffffffffffffffffffffffffffffffffff16815260200190815260200160002060009054906101000a900460ff16905092915050565b6000801b81565b600860009054906101000a900460ff16612567576040517f08c379a000000000000000000000000000000000000000000000000000000000815260040161255e90614641565b60405180910390fd5b6000600560009054906101000a900473ffffffffffffffffffffffffffffffffffffffff1673ffffffffffffffffffffffffffffffffffffffff1663b0667cf86040518163ffffffff1660e01b81526004016040805180830381865afa1580156125d5573d6000803e3d6000fd5b505050506040513d601f19601f820116820180604052508101906125f991906144a9565b509050600080600061260f8a858b8b8b8b61099a565b92509250925081851015612658576040517f08c379a000000000000000000000000000000000000000000000000000000000815260040161264f90615155565b60405180910390fd5b6000600560009054906101000a900473ffffffffffffffffffffffffffffffffffffffff1673ffffffffffffffffffffffffffffffffffffffff1663b5310ff98c8c8c8c8c8a8a8d8b336040518b63ffffffff1660e01b81526004016126c79a9998979695949392919061493d565b6020604051808303816000875af11580156126e6573d6000803e3d6000fd5b505050506040513d601f19601f8201168201806040525081019061270a919061423b565b9050600560009054906101000a900473ffffffffffffffffffffffffffffffffffffffff1673ffffffffffffffffffffffffffffffffffffffff1663cb4c86b76040518163ffffffff1660e01b8152600401602060405180830381865afa158015612779573d6000803e3d6000fd5b505050506040513d601f19601f8201168201806040525081019061279d91906144fe565b73ffffffffffffffffffffffffffffffffffffffff166323b872dd33600260009054906101000a900473ffffffffffffffffffffffffffffffffffffffff16896040518463ffffffff1660e01b81526004016127fb939291906146cd565b6020604051808303816000875af115801561281a573d6000803e3d6000fd5b505050506040513d601f19601f8201168201806040525081019061283e9190614719565b61287d576040517f08c379a0000000000000000000000000000000000000000000000000000000008152600401612874906151c1565b60405180910390fd5b600560009054906101000a900473ffffffffffffffffffffffffffffffffffffffff1673ffffffffffffffffffffffffffffffffffffffff166324b4110e82336040518363ffffffff1660e01b81526004016128da9291906149d9565b600060405180830381600087803b1580156128f457600080fd5b505af1158015612908573d6000803e3d6000fd5b505050503373ffffffffffffffffffffffffffffffffffffffff167f639bcb68083836b73ad6cd444bd790e8421c4b363635459fbfff715dc24fa855600560009054906101000a900473ffffffffffffffffffffffffffffffffffffffff1673ffffffffffffffffffffffffffffffffffffffff16631ce5e9a6846040518263ffffffff1660e01b815260040161299f9190613d2c565b61020060405180830381865afa1580156129bd573d6000803e3d6000fd5b505050506040513d601f19601f820116820180604052508101906129e19190614c5c565b8860006040516129f393929190614e58565b60405180910390a25050505050505050505050565b60075481565b600260009054906101000a900473ffffffffffffffffffffffffffffffffffffffff1681565b612a3d8261097b565b612a4e81612a49612f21565b612f29565b612a5883836130a6565b505050565b600860009054906101000a900460ff16612aac576040517f08c379a0000000000000000000000000000000000000000000000000000000008152600401612aa390614641565b60405180910390fd5b600080612abb858560016121ad565b5050925050915081831015612b05576040517f08c379a0000000000000000000000000000000000000000000000000000000008152600401612afc906146ad565b60405180910390fd5b80600560009054906101000a900473ffffffffffffffffffffffffffffffffffffffff1673ffffffffffffffffffffffffffffffffffffffff1663cb4c86b76040518163ffffffff1660e01b8152600401602060405180830381865afa158015612b73573d6000803e3d6000fd5b505050506040513d601f19601f82011682018060405250810190612b9791906144fe565b73ffffffffffffffffffffffffffffffffffffffff166370a08231306040518263ffffffff1660e01b8152600401612bcf9190613f5e565b602060405180830381865afa158015612bec573d6000803e3d6000fd5b505050506040513d601f19601f82011682018060405250810190612c10919061423b565b1015612c51576040517f08c379a0000000000000000000000000000000000000000000000000000000008152600401612c489061507d565b60405180910390fd5b6003600086815260200190815260200160002060009054906101000a900473ffffffffffffffffffffffffffffffffffffffff1673ffffffffffffffffffffffffffffffffffffffff16639dc29fac33846040518363ffffffff1660e01b8152600401612cbf9291906147b2565b600060405180830381600087803b158015612cd957600080fd5b505af1158015612ced573d6000803e3d6000fd5b50505050600560009054906101000a900473ffffffffffffffffffffffffffffffffffffffff1673ffffffffffffffffffffffffffffffffffffffff1663cb4c86b76040518163ffffffff1660e01b8152600401602060405180830381865afa158015612d5e573d6000803e3d6000fd5b505050506040513d601f19601f82011682018060405250810190612d8291906144fe565b73ffffffffffffffffffffffffffffffffffffffff1663a9059cbb33836040518363ffffffff1660e01b8152600401612dbc9291906147b2565b6020604051808303816000875af1158015612ddb573d6000803e3d6000fd5b505050506040513d601f19601f82011682018060405250810190612dff9190614719565b612e3e576040517f08c379a0000000000000000000000000000000000000000000000000000000008152600401612e35906148ff565b60405180910390fd5b7f78dd81a4822884ab6551f5b2dd2a9718e78d150f1a178a3a5bdf9ed45d81c1c83342878585604051612e759594939291906147db565b60405180910390a15050505050565b60036020528060005260406000206000915054906101000a900473ffffffffffffffffffffffffffffffffffffffff1681565b60007f01ffc9a7000000000000000000000000000000000000000000000000000000007bffffffffffffffffffffffffffffffffffffffffffffffffffffffff1916827bffffffffffffffffffffffffffffffffffffffffffffffffffffffff1916149050919050565b600033905090565b612f3382826124a7565b612fc257612f588173ffffffffffffffffffffffffffffffffffffffff166014613658565b612f668360001c6020613658565b604051602001612f779291906152f3565b6040516020818303038152906040526040517f08c379a0000000000000000000000000000000000000000000000000000000008152600401612fb99190615366565b60405180910390fd5b5050565b612fd082826124a7565b6130a257600160008084815260200190815260200160002060000160008373ffffffffffffffffffffffffffffffffffffffff1673ffffffffffffffffffffffffffffffffffffffff16815260200190815260200160002060006101000a81548160ff021916908315150217905550613047612f21565b73ffffffffffffffffffffffffffffffffffffffff168173ffffffffffffffffffffffffffffffffffffffff16837f2f8788117e7eff1d82e926ec794901d17c78024a50270940304540a733656f0d60405160405180910390a45b5050565b6130b082826124a7565b1561318357600080600084815260200190815260200160002060000160008373ffffffffffffffffffffffffffffffffffffffff1673ffffffffffffffffffffffffffffffffffffffff16815260200190815260200160002060006101000a81548160ff021916908315150217905550613128612f21565b73ffffffffffffffffffffffffffffffffffffffff168173ffffffffffffffffffffffffffffffffffffffff16837ff6391f5c32d9c69d2a47ea670b442974b53935d1edc7fd64eb21e047a839171b60405160405180910390a45b5050565b6000806000801985870985870292508281108382030391505060008114156131c257600084116131b657600080fd5b8382049250505061327c565b8084116131ce57600080fd5b60008486880990508281118203915080830392506000856001877fffffffffffffffffffffffffffffffffffffffffffffffffffffffffffffffff0301169050808604955080840493506001818260000304019050808302841793506000600287600302189050808702600203810290508087026002038102905080870260020381029050808702600203810290508087026002038102905080870260020381029050808502955050505050505b9392505050565b6000806133aa73__OptionLibrary_________________________639932b2be898a8a6040518463ffffffff1660e01b81526004016132c493929190615388565b602060405180830381865af41580156132e1573d6000803e3d6000fd5b505050506040513d601f19601f82011682018060405250810190613305919061423b565b600460009054906101000a900473ffffffffffffffffffffffffffffffffffffffff1673ffffffffffffffffffffffffffffffffffffffff1663634479026000806040518363ffffffff1660e01b8152600401613363929190614e92565b602060405180830381865afa158015613380573d6000803e3d6000fd5b505050506040513d601f19601f820116820180604052508101906133a4919061423b565b89613187565b90506000600560009054906101000a900473ffffffffffffffffffffffffffffffffffffffff1673ffffffffffffffffffffffffffffffffffffffff16636fe440316040518163ffffffff1660e01b8152600401602060405180830381865afa15801561341b573d6000803e3d6000fd5b505050506040513d601f19601f8201168201806040525081019061343f91906153eb565b9050600060018081111561345657613455614336565b5b85600181111561346957613468614336565b5b14613475576001613497565b7fffffffffffffffffffffffffffffffffffffffffffffffffffffffffffffffff5b61358973__OptionLibrary_________________________639932b2be8c8b8d6040518463ffffffff1660e01b81526004016134d593929190615388565b602060405180830381865af41580156134f2573d6000803e3d6000fd5b505050506040513d601f19601f82011682018060405250810190613516919061423b565b8873__OptionLibrary_________________________63fd9b87636040518163ffffffff1660e01b8152600401602060405180830381865af4158015613560573d6000803e3d6000fd5b505050506040513d601f19601f82011682018060405250810190613584919061423b565b613187565b6135939190615418565b8261359e9190614f31565b9050600061361b8960065473__OptionLibrary_________________________63fd9b87636040518163ffffffff1660e01b8152600401602060405180830381865af41580156135f2573d6000803e3d6000fd5b505050506040513d601f19601f82011682018060405250810190613616919061423b565b613187565b9050600261362a858484613894565b613635868685613894565b61363f9190614f31565b613649919061555e565b94505050505095945050505050565b60606000600283600261366b91906155c8565b613675919061485d565b67ffffffffffffffff81111561368e5761368d614a18565b5b6040519080825280601f01601f1916602001820160405280156136c05781602001600182028036833780820191505090505b5090507f3000000000000000000000000000000000000000000000000000000000000000816000815181106136f8576136f7615622565b5b60200101907effffffffffffffffffffffffffffffffffffffffffffffffffffffffffffff1916908160001a9053507f78000000000000000000000000000000000000000000000000000000000000008160018151811061375c5761375b615622565b5b60200101907effffffffffffffffffffffffffffffffffffffffffffffffffffffffffffff1916908160001a9053506000600184600261379c91906155c8565b6137a6919061485d565b90505b6001811115613846577f3031323334353637383961626364656600000000000000000000000000000000600f8616601081106137e8576137e7615622565b5b1a60f81b8282815181106137ff576137fe615622565b5b60200101907effffffffffffffffffffffffffffffffffffffffffffffffffffffffffffff1916908160001a905350600485901c94508061383f90615651565b90506137a9565b506000841461388a576040517f08c379a0000000000000000000000000000000000000000000000000000000008152600401613881906156c7565b60405180910390fd5b8091505092915050565b60008073__OptionLibrary_________________________63fd9b87636040518163ffffffff1660e01b8152600401602060405180830381865af41580156138e0573d6000803e3d6000fd5b505050506040513d601f19601f82011682018060405250810190613904919061423b565b9050600084121561399d5761398f8461391c906156e7565b73__OptionLibrary_________________________63fd9b87636040518163ffffffff1660e01b8152600401602060405180830381865af4158015613965573d6000803e3d6000fd5b505050506040513d601f19601f82011682018060405250810190613989919061423b565b87613187565b8161399a9190614f31565b90505b6000841315613a2b57613a1d8473__OptionLibrary_________________________63fd9b87636040518163ffffffff1660e01b8152600401602060405180830381865af41580156139f3573d6000803e3d6000fd5b505050506040513d601f19601f82011682018060405250810190613a17919061423b565b87613187565b81613a289190615730565b90505b60008112158015613ab4575073__OptionLibrary_________________________63fd9b87636040518163ffffffff1660e01b8152600401602060405180830381865af4158015613a80573d6000803e3d6000fd5b505050506040513d601f19601f82011682018060405250810190613aa4919061423b565b6002613ab091906155c8565b8113155b613af3576040517f08c379a0000000000000000000000000000000000000000000000000000000008152600401613aea90615810565b60405180910390fd5b82613b6b8473__OptionLibrary_________________________63fd9b87636040518163ffffffff1660e01b8152600401602060405180830381865af4158015613b41573d6000803e3d6000fd5b505050506040513d601f19601f82011682018060405250810190613b65919061423b565b84613187565b613b759190615730565b9150509392505050565b6000604051905090565b600080fd5b60007fffffffff0000000000000000000000000000000000000000000000000000000082169050919050565b613bc381613b8e565b8114613bce57600080fd5b50565b600081359050613be081613bba565b92915050565b600060208284031215613bfc57613bfb613b89565b5b6000613c0a84828501613bd1565b91505092915050565b60008115159050919050565b613c2881613c13565b82525050565b6000602082019050613c436000830184613c1f565b92915050565b6000819050919050565b613c5c81613c49565b8114613c6757600080fd5b50565b600081359050613c7981613c53565b92915050565b600073ffffffffffffffffffffffffffffffffffffffff82169050919050565b6000613caa82613c7f565b9050919050565b613cba81613c9f565b8114613cc557600080fd5b50565b600081359050613cd781613cb1565b92915050565b60008060408385031215613cf457613cf3613b89565b5b6000613d0285828601613c6a565b9250506020613d1385828601613cc8565b9150509250929050565b613d2681613c49565b82525050565b6000602082019050613d416000830184613d1d565b92915050565b600060208284031215613d5d57613d5c613b89565b5b6000613d6b84828501613c6a565b91505092915050565b6000819050919050565b613d8781613d74565b8114613d9257600080fd5b50565b600081359050613da481613d7e565b92915050565b600060208284031215613dc057613dbf613b89565b5b6000613dce84828501613d95565b91505092915050565b613de081613d74565b82525050565b6000602082019050613dfb6000830184613dd7565b92915050565b60028110613e0e57600080fd5b50565b600081359050613e2081613e01565b92915050565b60028110613e3357600080fd5b50565b600081359050613e4581613e26565b92915050565b60008060008060008060c08789031215613e6857613e67613b89565b5b6000613e7689828a01613c6a565b9650506020613e8789828a01613c6a565b9550506040613e9889828a01613c6a565b9450506060613ea989828a01613c6a565b9350506080613eba89828a01613e11565b92505060a0613ecb89828a01613e36565b9150509295509295509295565b6000606082019050613eed6000830186613d1d565b613efa6020830185613d1d565b613f076040830184613d1d565b949350505050565b60008060408385031215613f2657613f25613b89565b5b6000613f3485828601613d95565b9250506020613f4585828601613cc8565b9150509250929050565b613f5881613c9f565b82525050565b6000602082019050613f736000830184613f4f565b92915050565b600080600060608486031215613f9257613f91613b89565b5b6000613fa086828701613c6a565b9350506020613fb186828701613c6a565b9250506040613fc286828701613c6a565b9150509250925092565b60008060008060808587031215613fe657613fe5613b89565b5b6000613ff487828801613c6a565b945050602061400587828801613c6a565b935050604061401687828801613e11565b925050606061402787828801613c6a565b91505092959194509250565b6000806000806080858703121561404d5761404c613b89565b5b600061405b87828801613c6a565b945050602061406c87828801613c6a565b935050604061407d87828801613c6a565b925050606061408e87828801613e36565b91505092959194509250565b6000806000606084860312156140b3576140b2613b89565b5b60006140c186828701613c6a565b93505060206140d286828701613c6a565b92505060406140e386828701613e36565b9150509250925092565b600060a0820190506141026000830188613d1d565b61410f6020830187613d1d565b61411c6040830186613d1d565b6141296060830185613d1d565b6141366080830184613d1d565b9695505050505050565b61414981613c13565b811461415457600080fd5b50565b60008135905061416681614140565b92915050565b60006020828403121561418257614181613b89565b5b600061419084828501614157565b91505092915050565b60008060008060008060c087890312156141b6576141b5613b89565b5b60006141c489828a01613c6a565b96505060206141d589828a01613c6a565b95505060406141e689828a01613c6a565b94505060606141f789828a01613e11565b935050608061420889828a01613e36565b92505060a061421989828a01613c6a565b9150509295509295509295565b60008151905061423581613c53565b92915050565b60006020828403121561425157614250613b89565b5b600061425f84828501614226565b91505092915050565b60008151905061427781613d7e565b92915050565b60006020828403121561429357614292613b89565b5b60006142a184828501614268565b91505092915050565b600082825260208201905092915050565b7f6d69736d61746368656420746f6b656e20616464726573730000000000000000600082015250565b60006142f16018836142aa565b91506142fc826142bb565b602082019050919050565b60006020820190508181036000830152614320816142e4565b9050919050565b61433081613c49565b82525050565b7f4e487b7100000000000000000000000000000000000000000000000000000000600052602160045260246000fd5b6002811061437657614375614336565b5b50565b600081905061438782614365565b919050565b600061439782614379565b9050919050565b6143a78161438c565b82525050565b600281106143be576143bd614336565b5b50565b60008190506143cf826143ad565b919050565b60006143df826143c1565b9050919050565b6143ef816143d4565b82525050565b600060a08201905061440a6000830188614327565b614417602083018761439e565b61442460408301866143e6565b6144316060830185614327565b61443e6080830184614327565b9695505050505050565b600060c08201905061445d6000830189614327565b61446a6020830188614327565b6144776040830187614327565b6144846060830186614327565b614491608083018561439e565b61449e60a08301846143e6565b979650505050505050565b600080604083850312156144c0576144bf613b89565b5b60006144ce85828601614226565b92505060206144df85828601614226565b9150509250929050565b6000815190506144f881613cb1565b92915050565b60006020828403121561451457614513613b89565b5b6000614522848285016144e9565b91505092915050565b61453481613c9f565b82525050565b600060408201905061454f6000830185614327565b61455c602083018461452b565b9392505050565b7f416363657373436f6e74726f6c3a2063616e206f6e6c792072656e6f756e636560008201527f20726f6c657320666f722073656c660000000000000000000000000000000000602082015250565b60006145bf602f836142aa565b91506145ca82614563565b604082019050919050565b600060208201905081810360008301526145ee816145b2565b9050919050565b7f54726164696e672073746f707065642100000000000000000000000000000000600082015250565b600061462b6010836142aa565b9150614636826145f5565b602082019050919050565b6000602082019050818103600083015261465a8161461e565b9050919050565b7f436f737420696e636f7272656374000000000000000000000000000000000000600082015250565b6000614697600e836142aa565b91506146a282614661565b602082019050919050565b600060208201905081810360008301526146c68161468a565b9050919050565b60006060820190506146e26000830186613f4f565b6146ef6020830185613f4f565b6146fc6040830184613d1d565b949350505050565b60008151905061471381614140565b92915050565b60006020828403121561472f5761472e613b89565b5b600061473d84828501614704565b91505092915050565b7f766f6c207061796d656e74206572726f72000000000000000000000000000000600082015250565b600061477c6011836142aa565b915061478782614746565b602082019050919050565b600060208201905081810360008301526147ab8161476f565b9050919050565b60006040820190506147c76000830185613f4f565b6147d46020830184613d1d565b9392505050565b600060a0820190506147f06000830188613f4f565b6147fd6020830187613d1d565b61480a6040830186613d1d565b6148176060830185613d1d565b6148246080830184613d1d565b9695505050505050565b7f4e487b7100000000000000000000000000000000000000000000000000000000600052601160045260246000fd5b600061486882613c49565b915061487383613c49565b9250827fffffffffffffffffffffffffffffffffffffffffffffffffffffffffffffffff038211156148a8576148a761482e565b5b828201905092915050565b7f7061796d656e74206572726f7200000000000000000000000000000000000000600082015250565b60006148e9600d836142aa565b91506148f4826148b3565b602082019050919050565b60006020820190508181036000830152614918816148dc565b9050919050565b6149288161438c565b82525050565b614937816143d4565b82525050565b600061014082019050614953600083018d613d1d565b614960602083018c613d1d565b61496d604083018b613d1d565b61497a606083018a61491f565b614987608083018961492e565b61499460a0830188613d1d565b6149a160c0830187613d1d565b6149ae60e0830186613d1d565b6149bc610100830185613d1d565b6149ca610120830184613f4f565b9b9a5050505050505050505050565b60006040820190506149ee6000830185613d1d565b6149fb6020830184613f4f565b9392505050565b600080fd5b6000601f19601f8301169050919050565b7f4e487b7100000000000000000000000000000000000000000000000000000000600052604160045260246000fd5b614a5082614a07565b810181811067ffffffffffffffff82111715614a6f57614a6e614a18565b5b80604052505050565b6000614a82613b7f565b9050614a8e8282614a47565b919050565b600081519050614aa281613e01565b92915050565b600081519050614ab781613e26565b92915050565b60048110614aca57600080fd5b50565b600081519050614adc81614abd565b92915050565b60006102008284031215614af957614af8614a02565b5b614b04610200614a78565b90506000614b1484828501614a93565b6000830152506020614b2884828501614aa8565b6020830152506040614b3c84828501614acd565b6040830152506060614b50848285016144e9565b6060830152506080614b6484828501614226565b60808301525060a0614b7884828501614226565b60a08301525060c0614b8c84828501614226565b60c08301525060e0614ba084828501614226565b60e083015250610100614bb584828501614226565b61010083015250610120614bcb84828501614226565b61012083015250610140614be184828501614226565b61014083015250610160614bf784828501614226565b61016083015250610180614c0d84828501614226565b610180830152506101a0614c2384828501614226565b6101a0830152506101c0614c3984828501614226565b6101c0830152506101e0614c4f84828501614226565b6101e08301525092915050565b60006102008284031215614c7357614c72613b89565b5b6000614c8184828501614ae2565b91505092915050565b614c938161438c565b82525050565b614ca2816143d4565b82525050565b60048110614cb957614cb8614336565b5b50565b6000819050614cca82614ca8565b919050565b6000614cda82614cbc565b9050919050565b614cea81614ccf565b82525050565b614cf981613c9f565b82525050565b614d0881613c49565b82525050565b61020082016000820151614d256000850182614c8a565b506020820151614d386020850182614c99565b506040820151614d4b6040850182614ce1565b506060820151614d5e6060850182614cf0565b506080820151614d716080850182614cff565b5060a0820151614d8460a0850182614cff565b5060c0820151614d9760c0850182614cff565b5060e0820151614daa60e0850182614cff565b50610100820151614dbf610100850182614cff565b50610120820151614dd4610120850182614cff565b50610140820151614de9610140850182614cff565b50610160820151614dfe610160850182614cff565b50610180820151614e13610180850182614cff565b506101a0820151614e286101a0850182614cff565b506101c0820151614e3d6101c0850182614cff565b506101e0820151614e526101e0850182614cff565b50505050565b600061024082019050614e6e6000830186614d0e565b614e7c610200830185613d1d565b614e8a610220830184613c1f565b949350505050565b6000604082019050614ea76000830185613c1f565b614eb46020830184613c1f565b9392505050565b7f696e73756666696369656e74206361706974616c000000000000000000000000600082015250565b6000614ef16014836142aa565b9150614efc82614ebb565b602082019050919050565b60006020820190508181036000830152614f2081614ee4565b9050919050565b6000819050919050565b6000614f3c82614f27565b9150614f4783614f27565b9250817f7fffffffffffffffffffffffffffffffffffffffffffffffffffffffffffffff03831360008312151615614f8257614f8161482e565b5b817f8000000000000000000000000000000000000000000000000000000000000000038312600083121615614fba57614fb961482e565b5b828201905092915050565b7f496e636f727265637420766f6c207072656d69756d0000000000000000000000600082015250565b6000614ffb6015836142aa565b915061500682614fc5565b602082019050919050565b6000602082019050818103600083015261502a81614fee565b9050919050565b7f696e73756666696369656e74207573646320696e2065786368616e67652e0000600082015250565b6000615067601e836142aa565b915061507282615031565b602082019050919050565b600060208201905081810360008301526150968161505a565b9050919050565b7f54656e6f72206973206e6f742073657400000000000000000000000000000000600082015250565b60006150d36010836142aa565b91506150de8261509d565b602082019050919050565b60006020820190508181036000830152615102816150c6565b9050919050565b7f496e636f727265637420636f737420706169642e000000000000000000000000600082015250565b600061513f6014836142aa565b915061514a82615109565b602082019050919050565b6000602082019050818103600083015261516e81615132565b9050919050565b7f4661696c6564207061796d656e742e0000000000000000000000000000000000600082015250565b60006151ab600f836142aa565b91506151b682615175565b602082019050919050565b600060208201905081810360008301526151da8161519e565b9050919050565b600081905092915050565b7f416363657373436f6e74726f6c3a206163636f756e7420000000000000000000600082015250565b60006152226017836151e1565b915061522d826151ec565b601782019050919050565b600081519050919050565b60005b83811015615261578082015181840152602081019050615246565b83811115615270576000848401525b50505050565b600061528182615238565b61528b81856151e1565b935061529b818560208601615243565b80840191505092915050565b7f206973206d697373696e6720726f6c6520000000000000000000000000000000600082015250565b60006152dd6011836151e1565b91506152e8826152a7565b601182019050919050565b60006152fe82615215565b915061530a8285615276565b9150615315826152d0565b91506153218284615276565b91508190509392505050565b600061533882615238565b61534281856142aa565b9350615352818560208601615243565b61535b81614a07565b840191505092915050565b60006020820190508181036000830152615380818461532d565b905092915050565b600060608201905061539d6000830186614327565b6153aa6020830185614327565b6153b76040830184614327565b949350505050565b6153c881614f27565b81146153d357600080fd5b50565b6000815190506153e5816153bf565b92915050565b60006020828403121561540157615400613b89565b5b600061540f848285016153d6565b91505092915050565b600061542382614f27565b915061542e83614f27565b9250827f7fffffffffffffffffffffffffffffffffffffffffffffffffffffffffffffff048211600084136000841316161561546d5761546c61482e565b5b817f800000000000000000000000000000000000000000000000000000000000000005831260008412600084131616156154aa576154a961482e565b5b827f800000000000000000000000000000000000000000000000000000000000000005821260008413600084121616156154e7576154e661482e565b5b827f7fffffffffffffffffffffffffffffffffffffffffffffffffffffffffffffff05821260008412600084121616156155245761552361482e565b5b828202905092915050565b7f4e487b7100000000000000000000000000000000000000000000000000000000600052601260045260246000fd5b600061556982614f27565b915061557483614f27565b9250826155845761558361552f565b5b600160000383147f8000000000000000000000000000000000000000000000000000000000000000831416156155bd576155bc61482e565b5b828205905092915050565b60006155d382613c49565b91506155de83613c49565b9250817fffffffffffffffffffffffffffffffffffffffffffffffffffffffffffffffff04831182151516156156175761561661482e565b5b828202905092915050565b7f4e487b7100000000000000000000000000000000000000000000000000000000600052603260045260246000fd5b600061565c82613c49565b915060008214156156705761566f61482e565b5b600182039050919050565b7f537472696e67733a20686578206c656e67746820696e73756666696369656e74600082015250565b60006156b16020836142aa565b91506156bc8261567b565b602082019050919050565b600060208201905081810360008301526156e0816156a4565b9050919050565b60006156f282614f27565b91507f80000000000000000000000000000000000000000000000000000000000000008214156157255761572461482e565b5b816000039050919050565b600061573b82614f27565b915061574683614f27565b9250827f8000000000000000000000000000000000000000000000000000000000000000018212600084121516156157815761578061482e565b5b827f7fffffffffffffffffffffffffffffffffffffffffffffffffffffffffffffff0182136000841216156157b9576157b861482e565b5b828203905092915050565b7f43617061636974792062726561636865642e0000000000000000000000000000600082015250565b60006157fa6012836142aa565b9150615805826157c4565b602082019050919050565b60006020820190508181036000830152615829816157ed565b905091905056fea2646970667358221220c975c3ee0d0b2b07c0800b807b8702bf06f4d120a20d7eeeb4851b44f57c13d864736f6c634300080a0033",
  "immutableReferences": {},
  "source": "// SPDX-License-Identifier: MIT\npragma solidity 0.8.10;\n\nimport \"@openzeppelin/contracts/token/ERC20/ERC20.sol\";\nimport \"@openzeppelin/contracts/access/AccessControl.sol\";\nimport \"@openzeppelin/contracts/utils/structs/EnumerableSet.sol\";\nimport \"./MoretInterfaces.sol\";\nimport \"./VolatilityToken.sol\";\nimport \"./MoretMarketMaker.sol\";\n\ncontract Exchange is AccessControl, EOption{\n  bytes32 public constant ADMIN_ROLE = keccak256(\"ADMIN_ROLE\");\n  address public vaultAddress;\n  address public marketMakerAddress;\n  mapping(uint256=>address) public volTokenAddressList;\n\n  MoretMarketMaker internal marketMaker;\n  OptionVault internal optionVault;\n\n  uint256 public volRiskPremiumMaxRatio= 18 * (10 ** 17);\n  uint256 public loanInterest = 0;\n  bool public allowTrading = true;\n\n  constructor( address _marketMakerAddress,address _vaultAddress){\n    _setupRole(DEFAULT_ADMIN_ROLE, msg.sender);\n    _setupRole(ADMIN_ROLE, msg.sender);\n    vaultAddress = _vaultAddress;\n    optionVault = OptionVault(_vaultAddress);\n    marketMakerAddress = _marketMakerAddress;\n    marketMaker = MoretMarketMaker(_marketMakerAddress);}\n\n  function calcCost(uint256 _tenor, uint256 _price, uint256 _strike, uint256 _amount, OptionLibrary.PayoffType _poType, OptionLibrary.OptionSide _side) public view returns(uint256 _premium, uint256 _cost, uint256 _vol){\n    _vol = queryOptionVolatility(_tenor, _strike, _amount, _side);\n    uint256 _adjustedStrike = OptionLibrary.adjustStrike(_strike, _poType, _side, marketMaker.swapSlippage(), loanInterest); \n    (_premium, _cost) = OptionLibrary.calcOptionCost(_price, _adjustedStrike, _amount, _vol, _poType, _side);\n    _premium = MarketLibrary.cvtDecimals(_premium, optionVault.funding());\n    _cost = MarketLibrary.cvtDecimals(_cost, optionVault.funding());}\n\n  function queryOptionVolatility(uint256 _tenor, uint256 _strike, uint256 _amount, OptionLibrary.OptionSide _side) public view returns(uint256 _vol){  \n    _vol = optionVault.queryVol(_tenor); // running vol\n    (uint256 _price,) = optionVault.queryPrice();\n    require(MulDiv(_amount, _price, OptionLibrary.Multiplier())<=marketMaker.calcCapital(true,false),'insufficient capital');\n    int256 _riskPremium = calcRiskPremium(_price, _vol, _strike, _amount, _side);\n    require((int256(_vol)+_riskPremium) > 0,\"Incorrect vol premium\");\n    _vol = uint256(int256(_vol)+_riskPremium);}\n\n  function calcRiskPremium(uint256 _price, uint256 _vol, uint256 _strike, uint256 _amount,OptionLibrary.OptionSide _side) internal view returns(int256) {\n    uint256 _maxGamma = MulDiv(OptionLibrary.calcGamma(_price, _price, _vol), marketMaker.calcCapital(false, false), _price);\n    int256 _currentGamma = optionVault.calculateAggregateGamma(); // include sells.\n    int256 _newGamma = _currentGamma + int256(MulDiv(OptionLibrary.calcGamma(_price, _strike, _vol), _amount, OptionLibrary.Multiplier() )) * (_side==OptionLibrary.OptionSide.Sell? -1: int(1));\n    uint256 _K = MulDiv(_vol, volRiskPremiumMaxRatio, OptionLibrary.Multiplier());\n    return (calcRiskPremiumAMM(_maxGamma, _currentGamma,  _K) + calcRiskPremiumAMM(_maxGamma, _newGamma, _K)) / 2;}\n\n  function calcRiskPremiumAMM(uint256 _max, int256 _input, uint256 _constant) internal pure returns(int256) {\n    int256 _capacity = int256(OptionLibrary.Multiplier()); // capacity should be in (0,2)\n    if(_input < 0){_capacity +=  int256(MulDiv(uint256(-_input), OptionLibrary.Multiplier(), _max));}\n    if(_input > 0){ _capacity -= int256(MulDiv(uint256(_input) , OptionLibrary.Multiplier(), _max));}\n    require((_capacity>=0) && (_capacity <= int256(2 * OptionLibrary.Multiplier())),\"Capacity breached.\");\n    return int256(MulDiv(_constant, OptionLibrary.Multiplier(), uint256(_capacity))) - int256(_constant);}\n\n  function purchaseOption(uint256 _tenor, uint256 _strike, uint256 _amount, OptionLibrary.PayoffType _poType, OptionLibrary.OptionSide _side, uint256 _payInCost) external {\n    require(allowTrading,\"Trading stopped!\");\n    (uint256 _price, ) = optionVault.queryPrice();\n    (uint256 _premium, uint256 _cost, uint256 _vol) = calcCost(_tenor, _price, _strike, _amount, _poType, _side );      \n    require(_payInCost >= _cost, \"Incorrect cost paid.\");\n    uint256 _id = optionVault.addOption(_tenor, _strike, _amount, _poType, _side, _premium, _cost, _price, _vol, msg.sender);\n    require(ERC20(optionVault.funding()).transferFrom(msg.sender, marketMakerAddress, _payInCost), 'Failed payment.');  \n    optionVault.stampActiveOption(_id, msg.sender);\n    emit newOptionBought(msg.sender, optionVault.getOption(_id), _payInCost, false);}\n\n  function getOptionPayoffValue(uint256 _id) external view returns(uint256 _payback){\n    (,_payback) = optionVault.getContractPayoff(_id);}\n\n  function calcVolAmount(uint256 _tenor, uint256 _amount, OptionLibrary.OptionSide _side) public view returns(uint256 _volAmount, uint256 _vol, uint256 _premium, uint256 _cost, uint256 _price){\n    require(volTokenAddressList[_tenor]!=address(0), \"Tenor is not set\");\n    (_price, ) = optionVault.queryPrice();\n    (_premium, _cost, _vol) = calcCost(_tenor, _price, _price, _amount, OptionLibrary.PayoffType.Call, _side); \n    _volAmount = MarketLibrary.cvtDecimals(MulDiv(_premium, OptionLibrary.Multiplier(), _vol), volTokenAddressList[_tenor]);}\n\n  function buyVol(uint256 _tenor, uint256 _amount, uint256 _payInCost) external {\n    require(allowTrading,\"Trading stopped!\");\n    (uint256 _volAmount, , uint256 _premium, , ) = calcVolAmount(_tenor, _amount, OptionLibrary.OptionSide.Buy);\n    require(_payInCost >= _premium, \"Cost incorrect\");\n    require(ERC20(optionVault.funding()).transferFrom(msg.sender, address(this), _premium), \"vol payment error\");\n    VolatilityToken(volTokenAddressList[_tenor]).mint(msg.sender, _volAmount);\n    emit volatilityTokenBought(msg.sender, block.timestamp, _tenor, _volAmount, _premium);}\n  \n  function sellVol(uint256 _tenor, uint256 _amount, uint256 _payInVol) external {\n    require(allowTrading,\"Trading stopped!\");\n    (uint256 _volAmount,  ,  uint256 _premium,  ,  ) = calcVolAmount(_tenor, _amount, OptionLibrary.OptionSide.Sell);\n    require(_payInVol >= _volAmount, \"Cost incorrect\");\n    require(ERC20(optionVault.funding()).balanceOf(address(this))>=_premium, \"insufficient usdc in exchange.\");\n\n    VolatilityToken(volTokenAddressList[_tenor]).burn(msg.sender, _volAmount);\n    require(ERC20(optionVault.funding()).transfer(msg.sender, _premium), \"payment error\");\n    emit volatilityTokenSold(msg.sender, block.timestamp, _tenor, _volAmount, _premium);}  \n\n  function buyOptionInVol(uint256 _tenor, uint256 _amount, OptionLibrary.PayoffType _poType, uint256 _payInVol) external {\n    require(allowTrading,\"Trading stopped!\");\n    (uint256 _volAmount, uint256 _vol, uint256 _premium, uint256 _cost, uint256 _price) = calcVolAmount(_tenor, _amount, OptionLibrary.OptionSide.Buy);\n    require(_payInVol >= _volAmount, \"Cost incorrect\");\n    require(ERC20(optionVault.funding()).balanceOf(address(this))>=_premium, \"insufficient usdc in exchange.\");\n\n    VolatilityToken(volTokenAddressList[_tenor]).burn(msg.sender, _volAmount);\n    uint256 _id = optionVault.addOption(_tenor, _price, _amount, _poType, OptionLibrary.OptionSide.Buy, _premium, _cost, _price, _vol, msg.sender);\n    require(ERC20(optionVault.funding()).transfer(marketMakerAddress, _premium), 'payment error');  \n    optionVault.stampActiveOption(_id, msg.sender);\n    emit newOptionBought(msg.sender, optionVault.getOption(_id), _volAmount, true);}\n\n  function sellOptionInVol(uint256 _tenor, uint256 _amount, OptionLibrary.PayoffType _poType, uint256 _payInCost) external {\n    require(allowTrading,\"Trading stopped!\");\n    (uint256 _volAmount, uint256 _vol, uint256 _premium, uint256 _cost, uint256 _price) = calcVolAmount(_tenor, _amount, OptionLibrary.OptionSide.Sell);\n    uint256 _totalCost = _premium + _cost;\n    require(_payInCost >= _totalCost, \"Cost incorrect\");\n\n    require(ERC20(optionVault.funding()).transferFrom(msg.sender, marketMakerAddress, _cost), 'payment error'); \n    require(ERC20(optionVault.funding()).transferFrom(msg.sender, address(this), _premium), 'payment error');  \n    uint256 _id = optionVault.addOption(_tenor, _price, _amount, _poType, OptionLibrary.OptionSide.Sell, _premium, _cost, _price, _vol, msg.sender);\n    VolatilityToken(volTokenAddressList[_tenor]).mint(msg.sender, _volAmount);\n    optionVault.stampActiveOption(_id, msg.sender);\n    emit newOptionBought(msg.sender, optionVault.getOption(_id), _volAmount, true);}\n\n  function addVolToken(uint256 _tenor, address _tokenAddress) external onlyRole(ADMIN_ROLE){ \n    require(VolatilityToken(volTokenAddressList[_tenor]).tenor()==_tenor && VolatilityToken(volTokenAddressList[_tenor]).tokenHash()==optionVault.tokenHash(), 'mismatched token address');\n    volTokenAddressList[_tenor] = _tokenAddress; }\n  function removeVolToken(uint256 _tenor) external onlyRole(ADMIN_ROLE){ volTokenAddressList[_tenor] = address(0);}\n  \n  function resetLoanRate(uint256 _loanInterest) external onlyRole(ADMIN_ROLE){ loanInterest = _loanInterest;}\n  function resetRiskPremiumMaxRatio(uint256 _newRatio) external onlyRole(ADMIN_ROLE){ volRiskPremiumMaxRatio=_newRatio;}\n  function resetTrading(bool _allowTrading) external onlyRole(DEFAULT_ADMIN_ROLE) {allowTrading=_allowTrading;}\n}\n",
  "sourcePath": "/Users/apple/Documents/GitHub/moret/contracts/Exchange.sol",
  "compiler": {
    "name": "solc",
    "version": "0.8.10+commit.fc410830.Emscripten.clang"
  },
  "schemaVersion": "3.4.3",
  "updatedAt": "2021-11-28T12:43:15.106Z",
  "networkType": "ethereum",
  "devdoc": {
    "kind": "dev",
    "methods": {
      "getRoleAdmin(bytes32)": {
        "details": "Returns the admin role that controls `role`. See {grantRole} and {revokeRole}. To change a role's admin, use {_setRoleAdmin}."
      },
      "grantRole(bytes32,address)": {
        "details": "Grants `role` to `account`. If `account` had not been already granted `role`, emits a {RoleGranted} event. Requirements: - the caller must have ``role``'s admin role."
      },
      "hasRole(bytes32,address)": {
        "details": "Returns `true` if `account` has been granted `role`."
      },
      "renounceRole(bytes32,address)": {
        "details": "Revokes `role` from the calling account. Roles are often managed via {grantRole} and {revokeRole}: this function's purpose is to provide a mechanism for accounts to lose their privileges if they are compromised (such as when a trusted device is misplaced). If the calling account had been revoked `role`, emits a {RoleRevoked} event. Requirements: - the caller must be `account`."
      },
      "revokeRole(bytes32,address)": {
        "details": "Revokes `role` from `account`. If `account` had been granted `role`, emits a {RoleRevoked} event. Requirements: - the caller must have ``role``'s admin role."
      },
      "supportsInterface(bytes4)": {
        "details": "See {IERC165-supportsInterface}."
      }
    },
    "version": 1
  },
  "userdoc": {
    "kind": "user",
    "methods": {},
    "version": 1
  }
}