{
  "contractName": "Exchange",
  "abi": [
    {
      "inputs": [
        {
          "internalType": "address payable",
          "name": "_marketMakerAddress",
          "type": "address"
        },
        {
          "internalType": "address",
          "name": "_optionAddress",
          "type": "address"
        },
        {
          "internalType": "address payable",
          "name": "_volTokenAddress",
          "type": "address"
        }
      ],
      "stateMutability": "nonpayable",
      "type": "constructor"
    },
    {
      "anonymous": false,
      "inputs": [
        {
          "indexed": true,
          "internalType": "bytes32",
          "name": "role",
          "type": "bytes32"
        },
        {
          "indexed": true,
          "internalType": "bytes32",
          "name": "previousAdminRole",
          "type": "bytes32"
        },
        {
          "indexed": true,
          "internalType": "bytes32",
          "name": "newAdminRole",
          "type": "bytes32"
        }
      ],
      "name": "RoleAdminChanged",
      "type": "event"
    },
    {
      "anonymous": false,
      "inputs": [
        {
          "indexed": true,
          "internalType": "bytes32",
          "name": "role",
          "type": "bytes32"
        },
        {
          "indexed": true,
          "internalType": "address",
          "name": "account",
          "type": "address"
        },
        {
          "indexed": true,
          "internalType": "address",
          "name": "sender",
          "type": "address"
        }
      ],
      "name": "RoleGranted",
      "type": "event"
    },
    {
      "anonymous": false,
      "inputs": [
        {
          "indexed": true,
          "internalType": "bytes32",
          "name": "role",
          "type": "bytes32"
        },
        {
          "indexed": true,
          "internalType": "address",
          "name": "account",
          "type": "address"
        },
        {
          "indexed": true,
          "internalType": "address",
          "name": "sender",
          "type": "address"
        }
      ],
      "name": "RoleRevoked",
      "type": "event"
    },
    {
      "anonymous": false,
      "inputs": [
        {
          "indexed": false,
          "internalType": "address",
          "name": "_recipient",
          "type": "address"
        },
        {
          "indexed": false,
          "internalType": "uint256",
          "name": "_mintMPTokenAmount",
          "type": "uint256"
        },
        {
          "indexed": false,
          "internalType": "uint256",
          "name": "_addedValue",
          "type": "uint256"
        }
      ],
      "name": "capitalAdded",
      "type": "event"
    },
    {
      "anonymous": false,
      "inputs": [
        {
          "indexed": false,
          "internalType": "address",
          "name": "_recipient",
          "type": "address"
        },
        {
          "indexed": false,
          "internalType": "uint256",
          "name": "_burnMPTokenAmount",
          "type": "uint256"
        },
        {
          "indexed": false,
          "internalType": "uint256",
          "name": "_withdrawValue",
          "type": "uint256"
        }
      ],
      "name": "capitalWithdrawn",
      "type": "event"
    },
    {
      "anonymous": false,
      "inputs": [
        {
          "indexed": true,
          "internalType": "address",
          "name": "_purchaser",
          "type": "address"
        },
        {
          "components": [
            {
              "internalType": "enum OptionLibrary.PayoffType",
              "name": "poType",
              "type": "uint8"
            },
            {
              "internalType": "enum OptionLibrary.OptionSide",
              "name": "side",
              "type": "uint8"
            },
            {
              "internalType": "enum OptionLibrary.OptionStatus",
              "name": "status",
              "type": "uint8"
            },
            {
              "internalType": "address",
              "name": "holder",
              "type": "address"
            },
            {
              "internalType": "uint256",
              "name": "id",
              "type": "uint256"
            },
            {
              "internalType": "uint256",
              "name": "createTime",
              "type": "uint256"
            },
            {
              "internalType": "uint256",
              "name": "effectiveTime",
              "type": "uint256"
            },
            {
              "internalType": "uint256",
              "name": "tenor",
              "type": "uint256"
            },
            {
              "internalType": "uint256",
              "name": "exerciseTime",
              "type": "uint256"
            },
            {
              "internalType": "uint256",
              "name": "amount",
              "type": "uint256"
            },
            {
              "internalType": "uint256",
              "name": "spot",
              "type": "uint256"
            },
            {
              "internalType": "uint256",
              "name": "strike",
              "type": "uint256"
            },
            {
              "internalType": "uint256",
              "name": "volatility",
              "type": "uint256"
            },
            {
              "internalType": "uint256",
              "name": "premium",
              "type": "uint256"
            },
            {
              "internalType": "uint256",
              "name": "fee",
              "type": "uint256"
            }
          ],
          "indexed": false,
          "internalType": "struct OptionLibrary.Option",
          "name": "_option",
          "type": "tuple"
        },
        {
          "indexed": false,
          "internalType": "uint256",
          "name": "_cost",
          "type": "uint256"
        },
        {
          "indexed": false,
          "internalType": "bool",
          "name": "_inVol",
          "type": "bool"
        }
      ],
      "name": "newOptionBought",
      "type": "event"
    },
    {
      "anonymous": false,
      "inputs": [
        {
          "indexed": false,
          "internalType": "address",
          "name": "_purchaser",
          "type": "address"
        },
        {
          "indexed": false,
          "internalType": "uint256",
          "name": "_time",
          "type": "uint256"
        },
        {
          "indexed": false,
          "internalType": "uint256",
          "name": "_tenor",
          "type": "uint256"
        },
        {
          "indexed": false,
          "internalType": "uint256",
          "name": "_amount",
          "type": "uint256"
        }
      ],
      "name": "newVolatilityTokenBought",
      "type": "event"
    },
    {
      "anonymous": false,
      "inputs": [
        {
          "indexed": true,
          "internalType": "address",
          "name": "_purchaser",
          "type": "address"
        },
        {
          "components": [
            {
              "internalType": "enum OptionLibrary.PayoffType",
              "name": "poType",
              "type": "uint8"
            },
            {
              "internalType": "enum OptionLibrary.OptionSide",
              "name": "side",
              "type": "uint8"
            },
            {
              "internalType": "enum OptionLibrary.OptionStatus",
              "name": "status",
              "type": "uint8"
            },
            {
              "internalType": "address",
              "name": "holder",
              "type": "address"
            },
            {
              "internalType": "uint256",
              "name": "id",
              "type": "uint256"
            },
            {
              "internalType": "uint256",
              "name": "createTime",
              "type": "uint256"
            },
            {
              "internalType": "uint256",
              "name": "effectiveTime",
              "type": "uint256"
            },
            {
              "internalType": "uint256",
              "name": "tenor",
              "type": "uint256"
            },
            {
              "internalType": "uint256",
              "name": "exerciseTime",
              "type": "uint256"
            },
            {
              "internalType": "uint256",
              "name": "amount",
              "type": "uint256"
            },
            {
              "internalType": "uint256",
              "name": "spot",
              "type": "uint256"
            },
            {
              "internalType": "uint256",
              "name": "strike",
              "type": "uint256"
            },
            {
              "internalType": "uint256",
              "name": "volatility",
              "type": "uint256"
            },
            {
              "internalType": "uint256",
              "name": "premium",
              "type": "uint256"
            },
            {
              "internalType": "uint256",
              "name": "fee",
              "type": "uint256"
            }
          ],
          "indexed": false,
          "internalType": "struct OptionLibrary.Option",
          "name": "_option",
          "type": "tuple"
        },
        {
          "indexed": false,
          "internalType": "uint256",
          "name": "_payoff",
          "type": "uint256"
        }
      ],
      "name": "optionExercised",
      "type": "event"
    },
    {
      "inputs": [],
      "name": "ADMIN_ROLE",
      "outputs": [
        {
          "internalType": "bytes32",
          "name": "",
          "type": "bytes32"
        }
      ],
      "stateMutability": "view",
      "type": "function"
    },
    {
      "inputs": [],
      "name": "DEFAULT_ADMIN_ROLE",
      "outputs": [
        {
          "internalType": "bytes32",
          "name": "",
          "type": "bytes32"
        }
      ],
      "stateMutability": "view",
      "type": "function"
    },
    {
      "inputs": [],
      "name": "contractAddress",
      "outputs": [
        {
          "internalType": "address payable",
          "name": "",
          "type": "address"
        }
      ],
      "stateMutability": "view",
      "type": "function"
    },
    {
      "inputs": [
        {
          "internalType": "bytes32",
          "name": "role",
          "type": "bytes32"
        }
      ],
      "name": "getRoleAdmin",
      "outputs": [
        {
          "internalType": "bytes32",
          "name": "",
          "type": "bytes32"
        }
      ],
      "stateMutability": "view",
      "type": "function"
    },
    {
      "inputs": [
        {
          "internalType": "bytes32",
          "name": "role",
          "type": "bytes32"
        },
        {
          "internalType": "address",
          "name": "account",
          "type": "address"
        }
      ],
      "name": "grantRole",
      "outputs": [],
      "stateMutability": "nonpayable",
      "type": "function"
    },
    {
      "inputs": [
        {
          "internalType": "bytes32",
          "name": "role",
          "type": "bytes32"
        },
        {
          "internalType": "address",
          "name": "account",
          "type": "address"
        }
      ],
      "name": "hasRole",
      "outputs": [
        {
          "internalType": "bool",
          "name": "",
          "type": "bool"
        }
      ],
      "stateMutability": "view",
      "type": "function"
    },
    {
      "inputs": [],
      "name": "marketMakerAddress",
      "outputs": [
        {
          "internalType": "address",
          "name": "",
          "type": "address"
        }
      ],
      "stateMutability": "view",
      "type": "function"
    },
    {
      "inputs": [],
      "name": "maxUtilisation",
      "outputs": [
        {
          "internalType": "uint256",
          "name": "",
          "type": "uint256"
        }
      ],
      "stateMutability": "view",
      "type": "function"
    },
    {
      "inputs": [
        {
          "internalType": "bytes32",
          "name": "role",
          "type": "bytes32"
        },
        {
          "internalType": "address",
          "name": "account",
          "type": "address"
        }
      ],
      "name": "renounceRole",
      "outputs": [],
      "stateMutability": "nonpayable",
      "type": "function"
    },
    {
      "inputs": [
        {
          "internalType": "bytes32",
          "name": "role",
          "type": "bytes32"
        },
        {
          "internalType": "address",
          "name": "account",
          "type": "address"
        }
      ],
      "name": "revokeRole",
      "outputs": [],
      "stateMutability": "nonpayable",
      "type": "function"
    },
    {
      "inputs": [],
      "name": "settlementFee",
      "outputs": [
        {
          "internalType": "uint256",
          "name": "numerator",
          "type": "uint256"
        },
        {
          "internalType": "uint256",
          "name": "denominator",
          "type": "uint256"
        }
      ],
      "stateMutability": "view",
      "type": "function"
    },
    {
      "inputs": [
        {
          "internalType": "bytes4",
          "name": "interfaceId",
          "type": "bytes4"
        }
      ],
      "name": "supportsInterface",
      "outputs": [
        {
          "internalType": "bool",
          "name": "",
          "type": "bool"
        }
      ],
      "stateMutability": "view",
      "type": "function"
    },
    {
      "inputs": [
        {
          "internalType": "uint256",
          "name": "",
          "type": "uint256"
        }
      ],
      "name": "volTokensList",
      "outputs": [
        {
          "internalType": "contract VolatilityToken",
          "name": "",
          "type": "address"
        }
      ],
      "stateMutability": "view",
      "type": "function"
    },
    {
      "inputs": [],
      "name": "volTransactionFees",
      "outputs": [
        {
          "internalType": "uint256",
          "name": "numerator",
          "type": "uint256"
        },
        {
          "internalType": "uint256",
          "name": "denominator",
          "type": "uint256"
        }
      ],
      "stateMutability": "view",
      "type": "function"
    },
    {
      "inputs": [
        {
          "internalType": "uint256",
          "name": "_tenor",
          "type": "uint256"
        },
        {
          "internalType": "uint256",
          "name": "_strike",
          "type": "uint256"
        },
        {
          "internalType": "uint256",
          "name": "_amount",
          "type": "uint256"
        },
        {
          "internalType": "enum OptionLibrary.PayoffType",
          "name": "_poType",
          "type": "uint8"
        },
        {
          "internalType": "enum OptionLibrary.OptionSide",
          "name": "_side",
          "type": "uint8"
        }
      ],
      "name": "queryOptionCost",
      "outputs": [
        {
          "internalType": "uint256",
          "name": "",
          "type": "uint256"
        }
      ],
      "stateMutability": "view",
      "type": "function"
    },
    {
      "inputs": [
        {
          "internalType": "uint256",
          "name": "_tenor",
          "type": "uint256"
        },
        {
          "internalType": "uint256",
          "name": "_strike",
          "type": "uint256"
        },
        {
          "internalType": "enum OptionLibrary.PayoffType",
          "name": "_poType",
          "type": "uint8"
        },
        {
          "internalType": "uint256",
          "name": "_amount",
          "type": "uint256"
        },
        {
          "internalType": "uint256",
          "name": "_payInCost",
          "type": "uint256"
        }
      ],
      "name": "purchaseOption",
      "outputs": [],
      "stateMutability": "nonpayable",
      "type": "function"
    },
    {
      "inputs": [
        {
          "internalType": "uint256",
          "name": "_tenor",
          "type": "uint256"
        },
        {
          "internalType": "uint256",
          "name": "_strike",
          "type": "uint256"
        },
        {
          "internalType": "enum OptionLibrary.PayoffType",
          "name": "_poType",
          "type": "uint8"
        },
        {
          "internalType": "uint256",
          "name": "_amount",
          "type": "uint256"
        },
        {
          "internalType": "uint256",
          "name": "_payInCost",
          "type": "uint256"
        }
      ],
      "name": "purchaseOptionInVol",
      "outputs": [],
      "stateMutability": "nonpayable",
      "type": "function"
    },
    {
      "inputs": [
        {
          "internalType": "uint256",
          "name": "_id",
          "type": "uint256"
        }
      ],
      "name": "getOptionPayoffValue",
      "outputs": [
        {
          "internalType": "uint256",
          "name": "",
          "type": "uint256"
        }
      ],
      "stateMutability": "view",
      "type": "function"
    },
    {
      "inputs": [
        {
          "internalType": "uint256",
          "name": "_id",
          "type": "uint256"
        }
      ],
      "name": "exerciseOption",
      "outputs": [],
      "stateMutability": "nonpayable",
      "type": "function"
    },
    {
      "inputs": [
        {
          "internalType": "address payable",
          "name": "_tokenAddress",
          "type": "address"
        }
      ],
      "name": "addVolToken",
      "outputs": [],
      "stateMutability": "nonpayable",
      "type": "function"
    },
    {
      "inputs": [
        {
          "internalType": "uint256",
          "name": "_tenor",
          "type": "uint256"
        },
        {
          "internalType": "uint256",
          "name": "_volAmount",
          "type": "uint256"
        }
      ],
      "name": "quoteVolatilityCost",
      "outputs": [
        {
          "internalType": "uint256",
          "name": "",
          "type": "uint256"
        },
        {
          "internalType": "uint256",
          "name": "",
          "type": "uint256"
        }
      ],
      "stateMutability": "view",
      "type": "function"
    },
    {
      "inputs": [
        {
          "internalType": "uint256",
          "name": "_tenor",
          "type": "uint256"
        },
        {
          "internalType": "uint256",
          "name": "_volAmount",
          "type": "uint256"
        },
        {
          "internalType": "uint256",
          "name": "_payInCost",
          "type": "uint256"
        }
      ],
      "name": "purchaseVolatilityToken",
      "outputs": [],
      "stateMutability": "nonpayable",
      "type": "function"
    },
    {
      "inputs": [],
      "name": "sweepBalance",
      "outputs": [],
      "stateMutability": "nonpayable",
      "type": "function"
    },
    {
      "inputs": [
        {
          "internalType": "uint256",
          "name": "_fee",
          "type": "uint256"
        },
        {
          "internalType": "uint256",
          "name": "_denominator",
          "type": "uint256"
        }
      ],
      "name": "resetSettlementFees",
      "outputs": [],
      "stateMutability": "nonpayable",
      "type": "function"
    },
    {
      "inputs": [
        {
          "internalType": "uint256",
          "name": "_fee",
          "type": "uint256"
        },
        {
          "internalType": "uint256",
          "name": "_denominator",
          "type": "uint256"
        }
      ],
      "name": "resetVolTransactionFees",
      "outputs": [],
      "stateMutability": "nonpayable",
      "type": "function"
    },
    {
      "inputs": [
        {
          "internalType": "uint256",
          "name": "_maxUtil",
          "type": "uint256"
        }
      ],
      "name": "resetMaxUtilisation",
      "outputs": [],
      "stateMutability": "nonpayable",
      "type": "function"
    },
    {
      "inputs": [
        {
          "internalType": "uint256",
          "name": "_amount",
          "type": "uint256"
        },
        {
          "internalType": "enum OptionLibrary.PayoffType",
          "name": "_poType",
          "type": "uint8"
        },
        {
          "internalType": "enum OptionLibrary.OptionSide",
          "name": "_side",
          "type": "uint8"
        }
      ],
      "name": "calcUtilisation",
      "outputs": [
        {
          "internalType": "uint256",
          "name": "",
          "type": "uint256"
        },
        {
          "internalType": "uint256",
          "name": "",
          "type": "uint256"
        }
      ],
      "stateMutability": "view",
      "type": "function"
    },
    {
      "inputs": [],
      "name": "priceDecimals",
      "outputs": [
        {
          "internalType": "uint256",
          "name": "",
          "type": "uint256"
        }
      ],
      "stateMutability": "view",
      "type": "function"
    },
    {
      "inputs": [],
      "name": "queryPrice",
      "outputs": [
        {
          "internalType": "uint256",
          "name": "",
          "type": "uint256"
        },
        {
          "internalType": "uint256",
          "name": "",
          "type": "uint256"
        }
      ],
      "stateMutability": "view",
      "type": "function"
    },
    {
      "inputs": [
        {
          "internalType": "uint256",
          "name": "_tenor",
          "type": "uint256"
        }
      ],
      "name": "queryVol",
      "outputs": [
        {
          "internalType": "uint256",
          "name": "",
          "type": "uint256"
        },
        {
          "internalType": "uint256",
          "name": "",
          "type": "uint256"
        }
      ],
      "stateMutability": "view",
      "type": "function"
    }
  ],
  "bytecode": "0x60806040526040518060400160405280620186a08152602001620f424081525060016000820151816000015560208201518160010155505060405180604001604052806113888152602001620f4240815250600360008201518160000155602082015181600101555050670de0b6b3a7640000600b553480156200008257600080fd5b5060405162005c3038038062005c308339818101604052810190620000a89190620005a9565b620000bd6000801b33620003b960201b60201c565b620000ef7fa49807205ce4d355092ef5a8a18f56e8913cf4a201fbe287825b095693c2177533620003b960201b60201c565b81600860006101000a81548173ffffffffffffffffffffffffffffffffffffffff021916908373ffffffffffffffffffffffffffffffffffffffff16021790555082600660006101000a81548173ffffffffffffffffffffffffffffffffffffffff021916908373ffffffffffffffffffffffffffffffffffffffff16021790555082600760006101000a81548173ffffffffffffffffffffffffffffffffffffffff021916908373ffffffffffffffffffffffffffffffffffffffff160217905550600081905080600a60008373ffffffffffffffffffffffffffffffffffffffff1663a15612d16040518163ffffffff1660e01b815260040160206040518083038186803b1580156200020357600080fd5b505afa15801562000218573d6000803e3d6000fd5b505050506040513d601f19601f820116820180604052508101906200023e919062000605565b815260200190815260200160002060006101000a81548173ffffffffffffffffffffffffffffffffffffffff021916908373ffffffffffffffffffffffffffffffffffffffff16021790555030600560006101000a81548173ffffffffffffffffffffffffffffffffffffffff021916908373ffffffffffffffffffffffffffffffffffffffff160217905550600760009054906101000a900473ffffffffffffffffffffffffffffffffffffffff1673ffffffffffffffffffffffffffffffffffffffff16632140ea676040518163ffffffff1660e01b815260040160206040518083038186803b1580156200033457600080fd5b505afa15801562000349573d6000803e3d6000fd5b505050506040513d601f19601f820116820180604052508101906200036f919062000577565b600960006101000a81548173ffffffffffffffffffffffffffffffffffffffff021916908373ffffffffffffffffffffffffffffffffffffffff16021790555050505050620006dc565b620003cb8282620003cf60201b60201c565b5050565b620003e18282620004c060201b60201c565b620004bc57600160008084815260200190815260200160002060000160008373ffffffffffffffffffffffffffffffffffffffff1673ffffffffffffffffffffffffffffffffffffffff16815260200190815260200160002060006101000a81548160ff021916908315150217905550620004616200052a60201b60201c565b73ffffffffffffffffffffffffffffffffffffffff168173ffffffffffffffffffffffffffffffffffffffff16837f2f8788117e7eff1d82e926ec794901d17c78024a50270940304540a733656f0d60405160405180910390a45b5050565b600080600084815260200190815260200160002060000160008373ffffffffffffffffffffffffffffffffffffffff1673ffffffffffffffffffffffffffffffffffffffff16815260200190815260200160002060009054906101000a900460ff16905092915050565b600033905090565b60008151905062000543816200068e565b92915050565b6000815190506200055a81620006a8565b92915050565b6000815190506200057181620006c2565b92915050565b60006020828403121562000590576200058f62000689565b5b6000620005a08482850162000532565b91505092915050565b600080600060608486031215620005c557620005c462000689565b5b6000620005d58682870162000549565b9350506020620005e88682870162000532565b9250506040620005fb8682870162000549565b9150509250925092565b6000602082840312156200061e576200061d62000689565b5b60006200062e8482850162000560565b91505092915050565b600062000644826200065f565b9050919050565b600062000658826200065f565b9050919050565b600073ffffffffffffffffffffffffffffffffffffffff82169050919050565b6000819050919050565b600080fd5b620006998162000637565b8114620006a557600080fd5b50565b620006b3816200064b565b8114620006bf57600080fd5b50565b620006cd816200067f565b8114620006d957600080fd5b50565b61554480620006ec6000396000f3fe608060405234801561001057600080fd5b50600436106101da5760003560e01c806393ecc4cb11610104578063bd069b41116100a2578063d547741f11610071578063d547741f1461056d578063dc89231714610589578063f52f2526146105a7578063f6b4dfb4146105c3576101da565b8063bd069b41146104e3578063c3513f6d14610514578063cc9105881461051e578063cfc2dc201461053c576101da565b8063a71c1202116100de578063a71c120214610470578063b0667cf81461048c578063b3036ae0146104ab578063b7ab8137146104c7576101da565b806393ecc4cb146103f1578063a217fddf14610422578063a24015fe14610440576101da565b806340d6eaab1161017c57806376df2d081161014b57806376df2d08146103565780637d1d7fb81461038657806391d14854146103a55780639320d4ce146103d5576101da565b806340d6eaab146102cd578063598ddc60146102fd5780635a4a3a921461031957806375b238fc14610338576101da565b8063233dde95116101b8578063233dde9514610249578063248a9ca3146102655780632f2ff15d1461029557806336568abe146102b1576101da565b806301ffc9a7146101df57806305300b281461020f578063127b3a6a1461022d575b600080fd5b6101f960048036038101906101f49190614148565b6105e1565b6040516102069190614a1f565b60405180910390f35b61021761065b565b6040516102249190614c20565b60405180910390f35b610247600480360381019061024291906142d0565b610702565b005b610263600480360381019061025e91906141a3565b61126b565b005b61027f600480360381019061027a91906140db565b6112a8565b60405161028c9190614a63565b60405180910390f35b6102af60048036038101906102aa9190614108565b6112c7565b005b6102cb60048036038101906102c69190614108565b6112f0565b005b6102e760048036038101906102e291906141a3565b611373565b6040516102f49190614c20565b60405180910390f35b61031760048036038101906103129190614250565b611427565b005b61032161148c565b60405161032f929190614cb6565b60405180910390f35b61034061149e565b60405161034d9190614a63565b60405180910390f35b610370600480360381019061036b919061439e565b6114c2565b60405161037d9190614c20565b60405180910390f35b61038e6115e6565b60405161039c929190614cb6565b60405180910390f35b6103bf60048036038101906103ba9190614108565b6115f8565b6040516103cc9190614a1f565b60405180910390f35b6103ef60048036038101906103ea9190614250565b611662565b005b61040b60048036038101906104069190614250565b6116c7565b604051610419929190614cb6565b60405180910390f35b61042a611917565b6040516104379190614a63565b60405180910390f35b61045a600480360381019061045591906141a3565b61191e565b6040516104679190614a7e565b60405180910390f35b61048a6004803603810190610485919061434b565b611951565b005b610494611b44565b6040516104a2929190614cb6565b60405180910390f35b6104c560048036038101906104c091906142d0565b611bee565b005b6104e160048036038101906104dc9190614054565b6124ce565b005b6104fd60048036038101906104f891906141fd565b6125d9565b60405161050b929190614cb6565b60405180910390f35b61051c612e1d565b005b61052661300c565b6040516105339190614831565b60405180910390f35b610556600480360381019061055191906141a3565b613032565b604051610564929190614cb6565b60405180910390f35b61058760048036038101906105829190614108565b6130e8565b005b610591613111565b60405161059e9190614c20565b60405180910390f35b6105c160048036038101906105bc91906141a3565b613117565b005b6105cb613769565b6040516105d89190614867565b60405180910390f35b60007f7965db0b000000000000000000000000000000000000000000000000000000007bffffffffffffffffffffffffffffffffffffffffffffffffffffffff1916827bffffffffffffffffffffffffffffffffffffffffffffffffffffffff1916148061065457506106538261378f565b5b9050919050565b6000600860009054906101000a900473ffffffffffffffffffffffffffffffffffffffff1673ffffffffffffffffffffffffffffffffffffffff166305300b286040518163ffffffff1660e01b815260040160206040518083038186803b1580156106c557600080fd5b505afa1580156106d9573d6000803e3d6000fd5b505050506040513d601f19601f820116820180604052508101906106fd91906141d0565b905090565b60006107128686858760006114c2565b9050600061072a8260016000015460018001546137f9565b90506000600860009054906101000a900473ffffffffffffffffffffffffffffffffffffffff1673ffffffffffffffffffffffffffffffffffffffff1663af7b262589898960008a888a61077e9190614f13565b896040518863ffffffff1660e01b81526004016107a19796959493929190614cdf565b602060405180830381600087803b1580156107bb57600080fd5b505af11580156107cf573d6000803e3d6000fd5b505050506040513d601f19601f820116820180604052508101906107f391906141d0565b9050600860009054906101000a900473ffffffffffffffffffffffffffffffffffffffff1673ffffffffffffffffffffffffffffffffffffffff16636abae9b38260016040518363ffffffff1660e01b8152600401610853929190614c64565b60206040518083038186803b15801561086b57600080fd5b505afa15801561087f573d6000803e3d6000fd5b505050506040513d601f19601f820116820180604052508101906108a391906141d0565b8410156108e5576040517f08c379a00000000000000000000000000000000000000000000000000000000081526004016108dc90614b5b565b60405180910390fd5b600a600089815260200190815260200160002060009054906101000a900473ffffffffffffffffffffffffffffffffffffffff1673ffffffffffffffffffffffffffffffffffffffff166323b872dd33600560009054906101000a900473ffffffffffffffffffffffffffffffffffffffff16876040518463ffffffff1660e01b8152600401610977939291906148e2565b602060405180830381600087803b15801561099157600080fd5b505af11580156109a5573d6000803e3d6000fd5b505050506040513d601f19601f820116820180604052508101906109c991906140ae565b610a08576040517f08c379a00000000000000000000000000000000000000000000000000000000081526004016109ff90614b1b565b60405180910390fd5b600a600089815260200190815260200160002060009054906101000a900473ffffffffffffffffffffffffffffffffffffffff1673ffffffffffffffffffffffffffffffffffffffff1663095ea7b3600a60008b815260200190815260200160002060009054906101000a900473ffffffffffffffffffffffffffffffffffffffff1673ffffffffffffffffffffffffffffffffffffffff1663f6b4dfb46040518163ffffffff1660e01b815260040160206040518083038186803b158015610ad057600080fd5b505afa158015610ae4573d6000803e3d6000fd5b505050506040513d601f19601f82011682018060405250810190610b089190614081565b866040518363ffffffff1660e01b8152600401610b26929190614882565b602060405180830381600087803b158015610b4057600080fd5b505af1158015610b54573d6000803e3d6000fd5b505050506040513d601f19601f82011682018060405250810190610b7891906140ae565b50600a600089815260200190815260200160002060009054906101000a900473ffffffffffffffffffffffffffffffffffffffff1673ffffffffffffffffffffffffffffffffffffffff1663d2f714c5600560009054906101000a900473ffffffffffffffffffffffffffffffffffffffff1686600960009054906101000a900473ffffffffffffffffffffffffffffffffffffffff166040518463ffffffff1660e01b8152600401610c2d939291906148ab565b602060405180830381600087803b158015610c4757600080fd5b505af1158015610c5b573d6000803e3d6000fd5b505050506040513d601f19601f82011682018060405250810190610c7f91906141d0565b50600960009054906101000a900473ffffffffffffffffffffffffffffffffffffffff1673ffffffffffffffffffffffffffffffffffffffff1663a9059cbb600660009054906101000a900473ffffffffffffffffffffffffffffffffffffffff16600860009054906101000a900473ffffffffffffffffffffffffffffffffffffffff1673ffffffffffffffffffffffffffffffffffffffff166346047a66856040518263ffffffff1660e01b8152600401610d3c9190614c20565b60206040518083038186803b158015610d5457600080fd5b505afa158015610d68573d6000803e3d6000fd5b505050506040513d601f19601f82011682018060405250810190610d8c91906141d0565b6040518363ffffffff1660e01b8152600401610da9929190614950565b602060405180830381600087803b158015610dc357600080fd5b505af1158015610dd7573d6000803e3d6000fd5b505050506040513d601f19601f82011682018060405250810190610dfb91906140ae565b610e3a576040517f08c379a0000000000000000000000000000000000000000000000000000000008152600401610e3190614b3b565b60405180910390fd5b600860009054906101000a900473ffffffffffffffffffffffffffffffffffffffff1673ffffffffffffffffffffffffffffffffffffffff166328e493c1826040518263ffffffff1660e01b8152600401610e959190614c20565b600060405180830381600087803b158015610eaf57600080fd5b505af1158015610ec3573d6000803e3d6000fd5b50505050600760009054906101000a900473ffffffffffffffffffffffffffffffffffffffff1673ffffffffffffffffffffffffffffffffffffffff1663d8d1caeb33836001600860009054906101000a900473ffffffffffffffffffffffffffffffffffffffff1673ffffffffffffffffffffffffffffffffffffffff166346047a66876040518263ffffffff1660e01b8152600401610f649190614c20565b60206040518083038186803b158015610f7c57600080fd5b505afa158015610f90573d6000803e3d6000fd5b505050506040513d601f19601f82011682018060405250810190610fb491906141d0565b600860009054906101000a900473ffffffffffffffffffffffffffffffffffffffff1673ffffffffffffffffffffffffffffffffffffffff1663128734c58860006040518363ffffffff1660e01b8152600401611012929190614c8d565b60206040518083038186803b15801561102a57600080fd5b505afa15801561103e573d6000803e3d6000fd5b505050506040513d601f19601f8201168201806040525081019061106291906141d0565b600860009054906101000a900473ffffffffffffffffffffffffffffffffffffffff1673ffffffffffffffffffffffffffffffffffffffff1663128734c58960016040518363ffffffff1660e01b81526004016110c0929190614c8d565b60206040518083038186803b1580156110d857600080fd5b505afa1580156110ec573d6000803e3d6000fd5b505050506040513d601f19601f8201168201806040525081019061111091906141d0565b6040518763ffffffff1660e01b815260040161113196959493929190614979565b600060405180830381600087803b15801561114b57600080fd5b505af115801561115f573d6000803e3d6000fd5b505050503373ffffffffffffffffffffffffffffffffffffffff167f70f78afb3477f32fbbdae25a5446780cf2f44e041329d5f7688fa98e6524bf43600860009054906101000a900473ffffffffffffffffffffffffffffffffffffffff1673ffffffffffffffffffffffffffffffffffffffff16631ce5e9a6846040518263ffffffff1660e01b81526004016111f69190614c20565b6101e06040518083038186803b15801561120f57600080fd5b505afa158015611223573d6000803e3d6000fd5b505050506040513d601f19601f820116820180604052508101906112479190614175565b86600160405161125993929190614be6565b60405180910390a25050505050505050565b7fa49807205ce4d355092ef5a8a18f56e8913cf4a201fbe287825b095693c2177561129d816112986138f5565b6138fd565b81600b819055505050565b6000806000838152602001908152602001600020600101549050919050565b6112d0826112a8565b6112e1816112dc6138f5565b6138fd565b6112eb838361399a565b505050565b6112f86138f5565b73ffffffffffffffffffffffffffffffffffffffff168173ffffffffffffffffffffffffffffffffffffffff1614611365576040517f08c379a000000000000000000000000000000000000000000000000000000000815260040161135c90614b9b565b60405180910390fd5b61136f8282613a7a565b5050565b6000600860009054906101000a900473ffffffffffffffffffffffffffffffffffffffff1673ffffffffffffffffffffffffffffffffffffffff166340d6eaab836040518263ffffffff1660e01b81526004016113d09190614c20565b60206040518083038186803b1580156113e857600080fd5b505afa1580156113fc573d6000803e3d6000fd5b505050506040513d601f19601f8201168201806040525081019061142091906141d0565b9050919050565b7fa49807205ce4d355092ef5a8a18f56e8913cf4a201fbe287825b095693c21775611459816114546138f5565b6138fd565b60405180604001604052808481526020018381525060036000820151816000015560208201518160010155905050505050565b60038060000154908060010154905082565b7fa49807205ce4d355092ef5a8a18f56e8913cf4a201fbe287825b095693c2177581565b60008060006114d28686866125d9565b91509150600b546114e38383613b5b565b1115611524576040517f08c379a000000000000000000000000000000000000000000000000000000000815260040161151b90614adb565b60405180910390fd5b600860009054906101000a900473ffffffffffffffffffffffffffffffffffffffff1673ffffffffffffffffffffffffffffffffffffffff1663d6811db08989888a87876040518763ffffffff1660e01b815260040161158996959493929190614d4e565b60206040518083038186803b1580156115a157600080fd5b505afa1580156115b5573d6000803e3d6000fd5b505050506040513d601f19601f820116820180604052508101906115d991906141d0565b9250505095945050505050565b60018060000154908060010154905082565b600080600084815260200190815260200160002060000160008373ffffffffffffffffffffffffffffffffffffffff1673ffffffffffffffffffffffffffffffffffffffff16815260200190815260200160002060009054906101000a900460ff16905092915050565b7fa49807205ce4d355092ef5a8a18f56e8913cf4a201fbe287825b095693c217756116948161168f6138f5565b6138fd565b60405180604001604052808481526020018381525060016000820151816000015560208201518160010155905050505050565b6000806000600860009054906101000a900473ffffffffffffffffffffffffffffffffffffffff1673ffffffffffffffffffffffffffffffffffffffff1663b0667cf86040518163ffffffff1660e01b8152600401604080518083038186803b15801561173357600080fd5b505afa158015611747573d6000803e3d6000fd5b505050506040513d601f19601f8201168201806040525081019061176b9190614290565b5090506000600860009054906101000a900473ffffffffffffffffffffffffffffffffffffffff1673ffffffffffffffffffffffffffffffffffffffff1663cfc2dc20876040518263ffffffff1660e01b81526004016117cb9190614c20565b604080518083038186803b1580156117e257600080fd5b505afa1580156117f6573d6000803e3d6000fd5b505050506040513d601f19601f8201168201806040525081019061181a9190614290565b5090506000600a600088815260200190815260200160002060009054906101000a900473ffffffffffffffffffffffffffffffffffffffff1673ffffffffffffffffffffffffffffffffffffffff166362c5c1198785856040518463ffffffff1660e01b815260040161188f93929190614daf565b60206040518083038186803b1580156118a757600080fd5b505afa1580156118bb573d6000803e3d6000fd5b505050506040513d601f19601f820116820180604052508101906118df91906141d0565b90506000600360010154600360000154836118fa9190614eb9565b6119049190614e88565b9050818195509550505050509250929050565b6000801b81565b600a6020528060005260406000206000915054906101000a900473ffffffffffffffffffffffffffffffffffffffff1681565b60008061195e85856116c7565b91509150808261196e9190614e32565b83101561197a57600080fd5b600960009054906101000a900473ffffffffffffffffffffffffffffffffffffffff1673ffffffffffffffffffffffffffffffffffffffff166323b872dd33600a600089815260200190815260200160002060009054906101000a900473ffffffffffffffffffffffffffffffffffffffff16856040518463ffffffff1660e01b8152600401611a0c93929190614919565b602060405180830381600087803b158015611a2657600080fd5b505af1158015611a3a573d6000803e3d6000fd5b505050506040513d601f19601f82011682018060405250810190611a5e91906140ae565b50600a600086815260200190815260200160002060009054906101000a900473ffffffffffffffffffffffffffffffffffffffff1673ffffffffffffffffffffffffffffffffffffffff166340c10f198333876040518463ffffffff1660e01b8152600401611ace929190614950565b6000604051808303818588803b158015611ae757600080fd5b505af1158015611afb573d6000803e3d6000fd5b50505050507f701297180b43ed5c70ad79a3036dca759169e2b5f64d7c4d04f2322af0511c8d33428787604051611b3594939291906149da565b60405180910390a15050505050565b600080600860009054906101000a900473ffffffffffffffffffffffffffffffffffffffff1673ffffffffffffffffffffffffffffffffffffffff1663b0667cf86040518163ffffffff1660e01b8152600401604080518083038186803b158015611bae57600080fd5b505afa158015611bc2573d6000803e3d6000fd5b505050506040513d601f19601f82011682018060405250810190611be69190614290565b915091509091565b6000611bfe8686858760006114c2565b90506000611c168260016000015460018001546137f9565b90506000600860009054906101000a900473ffffffffffffffffffffffffffffffffffffffff1673ffffffffffffffffffffffffffffffffffffffff1663af7b262589898960008a888a611c6a9190614f13565b896040518863ffffffff1660e01b8152600401611c8d9796959493929190614cdf565b602060405180830381600087803b158015611ca757600080fd5b505af1158015611cbb573d6000803e3d6000fd5b505050506040513d601f19601f82011682018060405250810190611cdf91906141d0565b9050600860009054906101000a900473ffffffffffffffffffffffffffffffffffffffff1673ffffffffffffffffffffffffffffffffffffffff16636abae9b38260006040518363ffffffff1660e01b8152600401611d3f929190614c64565b60206040518083038186803b158015611d5757600080fd5b505afa158015611d6b573d6000803e3d6000fd5b505050506040513d601f19601f82011682018060405250810190611d8f91906141d0565b841015611dd1576040517f08c379a0000000000000000000000000000000000000000000000000000000008152600401611dc890614b5b565b60405180910390fd5b600960009054906101000a900473ffffffffffffffffffffffffffffffffffffffff1673ffffffffffffffffffffffffffffffffffffffff166323b872dd33600560009054906101000a900473ffffffffffffffffffffffffffffffffffffffff16876040518463ffffffff1660e01b8152600401611e52939291906148e2565b602060405180830381600087803b158015611e6c57600080fd5b505af1158015611e80573d6000803e3d6000fd5b505050506040513d601f19601f82011682018060405250810190611ea491906140ae565b611ee3576040517f08c379a0000000000000000000000000000000000000000000000000000000008152600401611eda90614b1b565b60405180910390fd5b600960009054906101000a900473ffffffffffffffffffffffffffffffffffffffff1673ffffffffffffffffffffffffffffffffffffffff1663a9059cbb600660009054906101000a900473ffffffffffffffffffffffffffffffffffffffff16600860009054906101000a900473ffffffffffffffffffffffffffffffffffffffff1673ffffffffffffffffffffffffffffffffffffffff166346047a66856040518263ffffffff1660e01b8152600401611f9f9190614c20565b60206040518083038186803b158015611fb757600080fd5b505afa158015611fcb573d6000803e3d6000fd5b505050506040513d601f19601f82011682018060405250810190611fef91906141d0565b6040518363ffffffff1660e01b815260040161200c929190614950565b602060405180830381600087803b15801561202657600080fd5b505af115801561203a573d6000803e3d6000fd5b505050506040513d601f19601f8201168201806040525081019061205e91906140ae565b61209d576040517f08c379a000000000000000000000000000000000000000000000000000000000815260040161209490614b3b565b60405180910390fd5b600860009054906101000a900473ffffffffffffffffffffffffffffffffffffffff1673ffffffffffffffffffffffffffffffffffffffff166328e493c1826040518263ffffffff1660e01b81526004016120f89190614c20565b600060405180830381600087803b15801561211257600080fd5b505af1158015612126573d6000803e3d6000fd5b50505050600760009054906101000a900473ffffffffffffffffffffffffffffffffffffffff1673ffffffffffffffffffffffffffffffffffffffff1663d8d1caeb33836001600860009054906101000a900473ffffffffffffffffffffffffffffffffffffffff1673ffffffffffffffffffffffffffffffffffffffff166346047a66876040518263ffffffff1660e01b81526004016121c79190614c20565b60206040518083038186803b1580156121df57600080fd5b505afa1580156121f3573d6000803e3d6000fd5b505050506040513d601f19601f8201168201806040525081019061221791906141d0565b600860009054906101000a900473ffffffffffffffffffffffffffffffffffffffff1673ffffffffffffffffffffffffffffffffffffffff1663128734c58860006040518363ffffffff1660e01b8152600401612275929190614c8d565b60206040518083038186803b15801561228d57600080fd5b505afa1580156122a1573d6000803e3d6000fd5b505050506040513d601f19601f820116820180604052508101906122c591906141d0565b600860009054906101000a900473ffffffffffffffffffffffffffffffffffffffff1673ffffffffffffffffffffffffffffffffffffffff1663128734c58960016040518363ffffffff1660e01b8152600401612323929190614c8d565b60206040518083038186803b15801561233b57600080fd5b505afa15801561234f573d6000803e3d6000fd5b505050506040513d601f19601f8201168201806040525081019061237391906141d0565b6040518763ffffffff1660e01b815260040161239496959493929190614979565b600060405180830381600087803b1580156123ae57600080fd5b505af11580156123c2573d6000803e3d6000fd5b505050503373ffffffffffffffffffffffffffffffffffffffff167f70f78afb3477f32fbbdae25a5446780cf2f44e041329d5f7688fa98e6524bf43600860009054906101000a900473ffffffffffffffffffffffffffffffffffffffff1673ffffffffffffffffffffffffffffffffffffffff16631ce5e9a6846040518263ffffffff1660e01b81526004016124599190614c20565b6101e06040518083038186803b15801561247257600080fd5b505afa158015612486573d6000803e3d6000fd5b505050506040513d601f19601f820116820180604052508101906124aa9190614175565b8660006040516124bc93929190614be6565b60405180910390a25050505050505050565b7fa49807205ce4d355092ef5a8a18f56e8913cf4a201fbe287825b095693c21775612500816124fb6138f5565b6138fd565b600082905080600a60008373ffffffffffffffffffffffffffffffffffffffff1663a15612d16040518163ffffffff1660e01b815260040160206040518083038186803b15801561255057600080fd5b505afa158015612564573d6000803e3d6000fd5b505050506040513d601f19601f8201168201806040525081019061258891906141d0565b815260200190815260200160002060006101000a81548173ffffffffffffffffffffffffffffffffffffffff021916908373ffffffffffffffffffffffffffffffffffffffff160217905550505050565b6000806000600760009054906101000a900473ffffffffffffffffffffffffffffffffffffffff1673ffffffffffffffffffffffffffffffffffffffff1663634479026000806040518363ffffffff1660e01b815260040161263c929190614a3a565b60206040518083038186803b15801561265457600080fd5b505afa158015612668573d6000803e3d6000fd5b505050506040513d601f19601f8201168201806040525081019061268c91906141d0565b905060008060018111156126a3576126a26151b0565b5b8660018111156126b6576126b56151b0565b5b1461276057600760009054906101000a900473ffffffffffffffffffffffffffffffffffffffff1673ffffffffffffffffffffffffffffffffffffffff166336da48876040518163ffffffff1660e01b815260040160206040518083038186803b15801561272357600080fd5b505afa158015612737573d6000803e3d6000fd5b505050506040513d601f19601f8201168201806040525081019061275b91906141d0565b612991565b60006001811115612774576127736151b0565b5b856001811115612787576127866151b0565b5b146128e457612835600760009054906101000a900473ffffffffffffffffffffffffffffffffffffffff1673ffffffffffffffffffffffffffffffffffffffff166336da48876040518163ffffffff1660e01b815260040160206040518083038186803b1580156127f757600080fd5b505afa15801561280b573d6000803e3d6000fd5b505050506040513d601f19601f8201168201806040525081019061282f91906141d0565b88613b75565b600760009054906101000a900473ffffffffffffffffffffffffffffffffffffffff1673ffffffffffffffffffffffffffffffffffffffff166336da48876040518163ffffffff1660e01b815260040160206040518083038186803b15801561289d57600080fd5b505afa1580156128b1573d6000803e3d6000fd5b505050506040513d601f19601f820116820180604052508101906128d591906141d0565b6128df9190614f13565b612990565b86600760009054906101000a900473ffffffffffffffffffffffffffffffffffffffff1673ffffffffffffffffffffffffffffffffffffffff166336da48876040518163ffffffff1660e01b815260040160206040518083038186803b15801561294d57600080fd5b505afa158015612961573d6000803e3d6000fd5b505050506040513d601f19601f8201168201806040525081019061298591906141d0565b61298f9190614e32565b5b5b905060006001808111156129a8576129a76151b0565b5b8760018111156129bb576129ba6151b0565b5b14612a6557600760009054906101000a900473ffffffffffffffffffffffffffffffffffffffff1673ffffffffffffffffffffffffffffffffffffffff1663f8daf7d86040518163ffffffff1660e01b815260040160206040518083038186803b158015612a2857600080fd5b505afa158015612a3c573d6000803e3d6000fd5b505050506040513d601f19601f82011682018060405250810190612a6091906141d0565b612c96565b60006001811115612a7957612a786151b0565b5b866001811115612a8c57612a8b6151b0565b5b14612be957612b3a600760009054906101000a900473ffffffffffffffffffffffffffffffffffffffff1673ffffffffffffffffffffffffffffffffffffffff1663f8daf7d86040518163ffffffff1660e01b815260040160206040518083038186803b158015612afc57600080fd5b505afa158015612b10573d6000803e3d6000fd5b505050506040513d601f19601f82011682018060405250810190612b3491906141d0565b89613b75565b600760009054906101000a900473ffffffffffffffffffffffffffffffffffffffff1673ffffffffffffffffffffffffffffffffffffffff1663f8daf7d86040518163ffffffff1660e01b815260040160206040518083038186803b158015612ba257600080fd5b505afa158015612bb6573d6000803e3d6000fd5b505050506040513d601f19601f82011682018060405250810190612bda91906141d0565b612be49190614f13565b612c95565b87600760009054906101000a900473ffffffffffffffffffffffffffffffffffffffff1673ffffffffffffffffffffffffffffffffffffffff1663f8daf7d86040518163ffffffff1660e01b815260040160206040518083038186803b158015612c5257600080fd5b505afa158015612c66573d6000803e3d6000fd5b505050506040513d601f19601f82011682018060405250810190612c8a91906141d0565b612c949190614e32565b5b5b9050612df2612de3600760009054906101000a900473ffffffffffffffffffffffffffffffffffffffff1673ffffffffffffffffffffffffffffffffffffffff166336da48876040518163ffffffff1660e01b815260040160206040518083038186803b158015612d0657600080fd5b505afa158015612d1a573d6000803e3d6000fd5b505050506040513d601f19601f82011682018060405250810190612d3e91906141d0565b600760009054906101000a900473ffffffffffffffffffffffffffffffffffffffff1673ffffffffffffffffffffffffffffffffffffffff1663f8daf7d86040518163ffffffff1660e01b815260040160206040518083038186803b158015612da657600080fd5b505afa158015612dba573d6000803e3d6000fd5b505050506040513d601f19601f82011682018060405250810190612dde91906141d0565b613b5b565b670de0b6b3a7640000856137f9565b612e0e612dff8484613b5b565b670de0b6b3a7640000866137f9565b94509450505050935093915050565b7fa49807205ce4d355092ef5a8a18f56e8913cf4a201fbe287825b095693c21775612e4f81612e4a6138f5565b6138fd565b600960009054906101000a900473ffffffffffffffffffffffffffffffffffffffff1673ffffffffffffffffffffffffffffffffffffffff1663a9059cbb33600960009054906101000a900473ffffffffffffffffffffffffffffffffffffffff1673ffffffffffffffffffffffffffffffffffffffff166370a08231600560009054906101000a900473ffffffffffffffffffffffffffffffffffffffff166040518263ffffffff1660e01b8152600401612f0b919061484c565b60206040518083038186803b158015612f2357600080fd5b505afa158015612f37573d6000803e3d6000fd5b505050506040513d601f19601f82011682018060405250810190612f5b91906141d0565b6040518363ffffffff1660e01b8152600401612f78929190614950565b602060405180830381600087803b158015612f9257600080fd5b505af1158015612fa6573d6000803e3d6000fd5b505050506040513d601f19601f82011682018060405250810190612fca91906140ae565b613009576040517f08c379a000000000000000000000000000000000000000000000000000000000815260040161300090614afb565b60405180910390fd5b50565b600660009054906101000a900473ffffffffffffffffffffffffffffffffffffffff1681565b600080600860009054906101000a900473ffffffffffffffffffffffffffffffffffffffff1673ffffffffffffffffffffffffffffffffffffffff1663cfc2dc20846040518263ffffffff1660e01b81526004016130909190614c20565b604080518083038186803b1580156130a757600080fd5b505afa1580156130bb573d6000803e3d6000fd5b505050506040513d601f19601f820116820180604052508101906130df9190614290565b91509150915091565b6130f1826112a8565b613102816130fd6138f5565b6138fd565b61310c8383613a7a565b505050565b600b5481565b600860009054906101000a900473ffffffffffffffffffffffffffffffffffffffff1673ffffffffffffffffffffffffffffffffffffffff1663a556feec82336040518363ffffffff1660e01b8152600401613174929190614c3b565b60006040518083038186803b15801561318c57600080fd5b505afa1580156131a0573d6000803e3d6000fd5b505050506000600860009054906101000a900473ffffffffffffffffffffffffffffffffffffffff1673ffffffffffffffffffffffffffffffffffffffff166340d6eaab836040518263ffffffff1660e01b81526004016132019190614c20565b60206040518083038186803b15801561321957600080fd5b505afa15801561322d573d6000803e3d6000fd5b505050506040513d601f19601f8201168201806040525081019061325191906141d0565b9050600860009054906101000a900473ffffffffffffffffffffffffffffffffffffffff1673ffffffffffffffffffffffffffffffffffffffff16636c1f7b93836040518263ffffffff1660e01b81526004016132ae9190614c20565b600060405180830381600087803b1580156132c857600080fd5b505af11580156132dc573d6000803e3d6000fd5b50505050600960009054906101000a900473ffffffffffffffffffffffffffffffffffffffff1673ffffffffffffffffffffffffffffffffffffffff1663a9059cbb33836040518363ffffffff1660e01b815260040161333d929190614950565b602060405180830381600087803b15801561335757600080fd5b505af115801561336b573d6000803e3d6000fd5b505050506040513d601f19601f8201168201806040525081019061338f91906140ae565b6133ce576040517f08c379a00000000000000000000000000000000000000000000000000000000081526004016133c590614b7b565b60405180910390fd5b600760009054906101000a900473ffffffffffffffffffffffffffffffffffffffff1673ffffffffffffffffffffffffffffffffffffffff1663d8d1caeb33846000600860009054906101000a900473ffffffffffffffffffffffffffffffffffffffff1673ffffffffffffffffffffffffffffffffffffffff166346047a66886040518263ffffffff1660e01b815260040161346b9190614c20565b60206040518083038186803b15801561348357600080fd5b505afa158015613497573d6000803e3d6000fd5b505050506040513d601f19601f820116820180604052508101906134bb91906141d0565b600860009054906101000a900473ffffffffffffffffffffffffffffffffffffffff1673ffffffffffffffffffffffffffffffffffffffff1663128734c58960006040518363ffffffff1660e01b8152600401613519929190614c8d565b60206040518083038186803b15801561353157600080fd5b505afa158015613545573d6000803e3d6000fd5b505050506040513d601f19601f8201168201806040525081019061356991906141d0565b600860009054906101000a900473ffffffffffffffffffffffffffffffffffffffff1673ffffffffffffffffffffffffffffffffffffffff1663128734c58a60016040518363ffffffff1660e01b81526004016135c7929190614c8d565b60206040518083038186803b1580156135df57600080fd5b505afa1580156135f3573d6000803e3d6000fd5b505050506040513d601f19601f8201168201806040525081019061361791906141d0565b6040518763ffffffff1660e01b815260040161363896959493929190614979565b600060405180830381600087803b15801561365257600080fd5b505af1158015613666573d6000803e3d6000fd5b505050503373ffffffffffffffffffffffffffffffffffffffff167f41c2c00510329a39f538637baf1a4cec0c212ffecb304f9a04517c285c981b08600860009054906101000a900473ffffffffffffffffffffffffffffffffffffffff1673ffffffffffffffffffffffffffffffffffffffff16631ce5e9a6856040518263ffffffff1660e01b81526004016136fd9190614c20565b6101e06040518083038186803b15801561371657600080fd5b505afa15801561372a573d6000803e3d6000fd5b505050506040513d601f19601f8201168201806040525081019061374e9190614175565b8360405161375d929190614bbb565b60405180910390a25050565b600560009054906101000a900473ffffffffffffffffffffffffffffffffffffffff1681565b60007f01ffc9a7000000000000000000000000000000000000000000000000000000007bffffffffffffffffffffffffffffffffffffffffffffffffffffffff1916827bffffffffffffffffffffffffffffffffffffffffffffffffffffffff1916149050919050565b600080600080198587098587029250828110838203039150506000811415613834576000841161382857600080fd5b838204925050506138ee565b80841161384057600080fd5b60008486880990508281118203915080830392506000856001877fffffffffffffffffffffffffffffffffffffffffffffffffffffffffffffffff0301169050808604955080840493506001818260000304019050808302841793506000600287600302189050808702600203810290508087026002038102905080870260020381029050808702600203810290508087026002038102905080870260020381029050808502955050505050505b9392505050565b600033905090565b61390782826115f8565b6139965761392c8173ffffffffffffffffffffffffffffffffffffffff166014613b8e565b61393a8360001c6020613b8e565b60405160200161394b9291906147f7565b6040516020818303038152906040526040517f08c379a000000000000000000000000000000000000000000000000000000000815260040161398d9190614a99565b60405180910390fd5b5050565b6139a482826115f8565b613a7657600160008084815260200190815260200160002060000160008373ffffffffffffffffffffffffffffffffffffffff1673ffffffffffffffffffffffffffffffffffffffff16815260200190815260200160002060006101000a81548160ff021916908315150217905550613a1b6138f5565b73ffffffffffffffffffffffffffffffffffffffff168173ffffffffffffffffffffffffffffffffffffffff16837f2f8788117e7eff1d82e926ec794901d17c78024a50270940304540a733656f0d60405160405180910390a45b5050565b613a8482826115f8565b15613b5757600080600084815260200190815260200160002060000160008373ffffffffffffffffffffffffffffffffffffffff1673ffffffffffffffffffffffffffffffffffffffff16815260200190815260200160002060006101000a81548160ff021916908315150217905550613afc6138f5565b73ffffffffffffffffffffffffffffffffffffffff168173ffffffffffffffffffffffffffffffffffffffff16837ff6391f5c32d9c69d2a47ea670b442974b53935d1edc7fd64eb21e047a839171b60405160405180910390a45b5050565b600081831015613b6b5781613b6d565b825b905092915050565b6000818310613b845781613b86565b825b905092915050565b606060006002836002613ba19190614eb9565b613bab9190614e32565b67ffffffffffffffff811115613bc457613bc361520e565b5b6040519080825280601f01601f191660200182016040528015613bf65781602001600182028036833780820191505090505b5090507f300000000000000000000000000000000000000000000000000000000000000081600081518110613c2e57613c2d6151df565b5b60200101907effffffffffffffffffffffffffffffffffffffffffffffffffffffffffffff1916908160001a9053507f780000000000000000000000000000000000000000000000000000000000000081600181518110613c9257613c916151df565b5b60200101907effffffffffffffffffffffffffffffffffffffffffffffffffffffffffffff1916908160001a90535060006001846002613cd29190614eb9565b613cdc9190614e32565b90505b6001811115613d7c577f3031323334353637383961626364656600000000000000000000000000000000600f861660108110613d1e57613d1d6151df565b5b1a60f81b828281518110613d3557613d346151df565b5b60200101907effffffffffffffffffffffffffffffffffffffffffffffffffffffffffffff1916908160001a905350600485901c945080613d75906150f7565b9050613cdf565b5060008414613dc0576040517f08c379a0000000000000000000000000000000000000000000000000000000008152600401613db790614abb565b60405180910390fd5b8091505092915050565b600081359050613dd981615454565b92915050565b600081519050613dee81615454565b92915050565b600081359050613e038161546b565b92915050565b600081519050613e188161546b565b92915050565b600081519050613e2d81615482565b92915050565b600081359050613e4281615499565b92915050565b600081359050613e57816154b0565b92915050565b600081359050613e6c816154c7565b92915050565b600081519050613e81816154c7565b92915050565b600081519050613e96816154d7565b92915050565b600081359050613eab816154e7565b92915050565b600081519050613ec0816154e7565b92915050565b60006101e08284031215613edd57613edc61523d565b5b613ee86101e0614de6565b90506000613ef884828501613eb1565b6000830152506020613f0c84828501613e72565b6020830152506040613f2084828501613e87565b6040830152506060613f3484828501613ddf565b6060830152506080613f488482850161403f565b60808301525060a0613f5c8482850161403f565b60a08301525060c0613f708482850161403f565b60c08301525060e0613f848482850161403f565b60e083015250610100613f998482850161403f565b61010083015250610120613faf8482850161403f565b61012083015250610140613fc58482850161403f565b61014083015250610160613fdb8482850161403f565b61016083015250610180613ff18482850161403f565b610180830152506101a06140078482850161403f565b6101a0830152506101c061401d8482850161403f565b6101c08301525092915050565b600081359050614039816154f7565b92915050565b60008151905061404e816154f7565b92915050565b60006020828403121561406a57614069615242565b5b600061407884828501613df4565b91505092915050565b60006020828403121561409757614096615242565b5b60006140a584828501613e09565b91505092915050565b6000602082840312156140c4576140c3615242565b5b60006140d284828501613e1e565b91505092915050565b6000602082840312156140f1576140f0615242565b5b60006140ff84828501613e33565b91505092915050565b6000806040838503121561411f5761411e615242565b5b600061412d85828601613e33565b925050602061413e85828601613dca565b9150509250929050565b60006020828403121561415e5761415d615242565b5b600061416c84828501613e48565b91505092915050565b60006101e0828403121561418c5761418b615242565b5b600061419a84828501613ec6565b91505092915050565b6000602082840312156141b9576141b8615242565b5b60006141c78482850161402a565b91505092915050565b6000602082840312156141e6576141e5615242565b5b60006141f48482850161403f565b91505092915050565b60008060006060848603121561421657614215615242565b5b60006142248682870161402a565b935050602061423586828701613e9c565b925050604061424686828701613e5d565b9150509250925092565b6000806040838503121561426757614266615242565b5b60006142758582860161402a565b92505060206142868582860161402a565b9150509250929050565b600080604083850312156142a7576142a6615242565b5b60006142b58582860161403f565b92505060206142c68582860161403f565b9150509250929050565b600080600080600060a086880312156142ec576142eb615242565b5b60006142fa8882890161402a565b955050602061430b8882890161402a565b945050604061431c88828901613e9c565b935050606061432d8882890161402a565b925050608061433e8882890161402a565b9150509295509295909350565b60008060006060848603121561436457614363615242565b5b60006143728682870161402a565b93505060206143838682870161402a565b92505060406143948682870161402a565b9150509250925092565b600080600080600060a086880312156143ba576143b9615242565b5b60006143c88882890161402a565b95505060206143d98882890161402a565b94505060406143ea8882890161402a565b93505060606143fb88828901613e9c565b925050608061440c88828901613e5d565b9150509295509295909350565b61442281615010565b82525050565b61443181614f59565b82525050565b61444081614f47565b82525050565b61444f81614f47565b82525050565b61445e81614f6b565b82525050565b61446d81614f77565b82525050565b61447c81615022565b82525050565b61448b81615046565b82525050565b61449a8161506a565b82525050565b6144a98161506a565b82525050565b6144b88161507c565b82525050565b6144c78161508e565b82525050565b6144d68161508e565b82525050565b60006144e782614e0b565b6144f18185614e16565b93506145018185602086016150c4565b61450a81615247565b840191505092915050565b600061452082614e0b565b61452a8185614e27565b935061453a8185602086016150c4565b80840191505092915050565b6000614553602083614e16565b915061455e82615258565b602082019050919050565b6000614576601983614e16565b915061458182615281565b602082019050919050565b6000614599601283614e16565b91506145a4826152aa565b602082019050919050565b60006145bc600f83614e16565b91506145c7826152d3565b602082019050919050565b60006145df601783614e16565b91506145ea826152fc565b602082019050919050565b6000614602601a83614e16565b915061460d82615325565b602082019050919050565b6000614625601083614e16565b91506146308261534e565b602082019050919050565b6000614648601783614e27565b915061465382615377565b601782019050919050565b600061466b601183614e27565b9150614676826153a0565b601182019050919050565b600061468e602f83614e16565b9150614699826153c9565b604082019050919050565b6101e0820160008201516146bb60008501826144be565b5060208201516146ce6020850182614491565b5060408201516146e160408501826144af565b5060608201516146f46060850182614437565b50608082015161470760808501826147d9565b5060a082015161471a60a08501826147d9565b5060c082015161472d60c08501826147d9565b5060e082015161474060e08501826147d9565b506101008201516147556101008501826147d9565b5061012082015161476a6101208501826147d9565b5061014082015161477f6101408501826147d9565b506101608201516147946101608501826147d9565b506101808201516147a96101808501826147d9565b506101a08201516147be6101a08501826147d9565b506101c08201516147d36101c08501826147d9565b50505050565b6147e281615006565b82525050565b6147f181615006565b82525050565b60006148028261463b565b915061480e8285614515565b91506148198261465e565b91506148258284614515565b91508190509392505050565b60006020820190506148466000830184614446565b92915050565b60006020820190506148616000830184614419565b92915050565b600060208201905061487c6000830184614428565b92915050565b60006040820190506148976000830185614419565b6148a460208301846147e8565b9392505050565b60006060820190506148c06000830186614428565b6148cd60208301856147e8565b6148da6040830184614473565b949350505050565b60006060820190506148f76000830186614446565b6149046020830185614419565b61491160408301846147e8565b949350505050565b600060608201905061492e6000830186614446565b61493b6020830185614446565b61494860408301846147e8565b949350505050565b60006040820190506149656000830185614446565b61497260208301846147e8565b9392505050565b600060c08201905061498e6000830189614446565b61499b60208301886147e8565b6149a86040830187614455565b6149b560608301866147e8565b6149c260808301856147e8565b6149cf60a08301846147e8565b979650505050505050565b60006080820190506149ef6000830187614446565b6149fc60208301866147e8565b614a0960408301856147e8565b614a1660608301846147e8565b95945050505050565b6000602082019050614a346000830184614455565b92915050565b6000604082019050614a4f6000830185614455565b614a5c6020830184614455565b9392505050565b6000602082019050614a786000830184614464565b92915050565b6000602082019050614a936000830184614482565b92915050565b60006020820190508181036000830152614ab381846144dc565b905092915050565b60006020820190508181036000830152614ad481614546565b9050919050565b60006020820190508181036000830152614af481614569565b9050919050565b60006020820190508181036000830152614b148161458c565b9050919050565b60006020820190508181036000830152614b34816145af565b9050919050565b60006020820190508181036000830152614b54816145d2565b9050919050565b60006020820190508181036000830152614b74816145f5565b9050919050565b60006020820190508181036000830152614b9481614618565b9050919050565b60006020820190508181036000830152614bb481614681565b9050919050565b600061020082019050614bd160008301856146a4565b614bdf6101e08301846147e8565b9392505050565b600061022082019050614bfc60008301866146a4565b614c0a6101e08301856147e8565b614c18610200830184614455565b949350505050565b6000602082019050614c3560008301846147e8565b92915050565b6000604082019050614c5060008301856147e8565b614c5d6020830184614446565b9392505050565b6000604082019050614c7960008301856147e8565b614c866020830184614455565b9392505050565b6000604082019050614ca260008301856147e8565b614caf60208301846144cd565b9392505050565b6000604082019050614ccb60008301856147e8565b614cd860208301846147e8565b9392505050565b600060e082019050614cf4600083018a6147e8565b614d0160208301896147e8565b614d0e60408301886144cd565b614d1b60608301876144a0565b614d2860808301866147e8565b614d3560a08301856147e8565b614d4260c08301846147e8565b98975050505050505050565b600060c082019050614d6360008301896147e8565b614d7060208301886147e8565b614d7d60408301876144cd565b614d8a60608301866147e8565b614d9760808301856147e8565b614da460a08301846147e8565b979650505050505050565b6000606082019050614dc460008301866147e8565b614dd160208301856147e8565b614dde60408301846147e8565b949350505050565b6000614df0614e01565b9050614dfc8282615121565b919050565b6000604051905090565b600081519050919050565b600082825260208201905092915050565b600081905092915050565b6000614e3d82615006565b9150614e4883615006565b9250827fffffffffffffffffffffffffffffffffffffffffffffffffffffffffffffffff03821115614e7d57614e7c615152565b5b828201905092915050565b6000614e9382615006565b9150614e9e83615006565b925082614eae57614ead615181565b5b828204905092915050565b6000614ec482615006565b9150614ecf83615006565b9250817fffffffffffffffffffffffffffffffffffffffffffffffffffffffffffffffff0483118215151615614f0857614f07615152565b5b828202905092915050565b6000614f1e82615006565b9150614f2983615006565b925082821015614f3c57614f3b615152565b5b828203905092915050565b6000614f5282614fe6565b9050919050565b6000614f6482614fe6565b9050919050565b60008115159050919050565b6000819050919050565b60007fffffffff0000000000000000000000000000000000000000000000000000000082169050919050565b6000819050614fbb82615418565b919050565b6000819050614fce8261542c565b919050565b6000819050614fe182615440565b919050565b600073ffffffffffffffffffffffffffffffffffffffff82169050919050565b6000819050919050565b600061501b826150a0565b9050919050565b600061502d82615034565b9050919050565b600061503f82614fe6565b9050919050565b600061505182615058565b9050919050565b600061506382614fe6565b9050919050565b600061507582614fad565b9050919050565b600061508782614fc0565b9050919050565b600061509982614fd3565b9050919050565b60006150ab826150b2565b9050919050565b60006150bd82614fe6565b9050919050565b60005b838110156150e25780820151818401526020810190506150c7565b838111156150f1576000848401525b50505050565b600061510282615006565b9150600082141561511657615115615152565b5b600182039050919050565b61512a82615247565b810181811067ffffffffffffffff821117156151495761514861520e565b5b80604052505050565b7f4e487b7100000000000000000000000000000000000000000000000000000000600052601160045260246000fd5b7f4e487b7100000000000000000000000000000000000000000000000000000000600052601260045260246000fd5b7f4e487b7100000000000000000000000000000000000000000000000000000000600052602160045260246000fd5b7f4e487b7100000000000000000000000000000000000000000000000000000000600052603260045260246000fd5b7f4e487b7100000000000000000000000000000000000000000000000000000000600052604160045260246000fd5b600080fd5b600080fd5b6000601f19601f8301169050919050565b7f537472696e67733a20686578206c656e67746820696e73756666696369656e74600082015250565b7f4d6178207574696c69736174696f6e2062726561636865642e00000000000000600082015250565b7f5769746864726177616c206661696c65642e0000000000000000000000000000600082015250565b7f4661696c6564207061796d656e742e0000000000000000000000000000000000600082015250565b7f4661696c6564207072656d69756d207061796d656e742e000000000000000000600082015250565b7f456e7465726564207072656d69756d20696e636f72726563742e000000000000600082015250565b7f5472616e73666572206661696c65642e00000000000000000000000000000000600082015250565b7f416363657373436f6e74726f6c3a206163636f756e7420000000000000000000600082015250565b7f206973206d697373696e6720726f6c6520000000000000000000000000000000600082015250565b7f416363657373436f6e74726f6c3a2063616e206f6e6c792072656e6f756e636560008201527f20726f6c657320666f722073656c660000000000000000000000000000000000602082015250565b60028110615429576154286151b0565b5b50565b6004811061543d5761543c6151b0565b5b50565b60028110615451576154506151b0565b5b50565b61545d81614f47565b811461546857600080fd5b50565b61547481614f59565b811461547f57600080fd5b50565b61548b81614f6b565b811461549657600080fd5b50565b6154a281614f77565b81146154ad57600080fd5b50565b6154b981614f81565b81146154c457600080fd5b50565b600281106154d457600080fd5b50565b600481106154e457600080fd5b50565b600281106154f457600080fd5b50565b61550081615006565b811461550b57600080fd5b5056fea26469706673582212206d64ed5013ecf565f7bda320823a8ac597a9159a3a7fc6b0b4d10a9bedbd203364736f6c63430008060033",
  "immutableReferences": {},
  "source": "/**\n * SPDX-License-Identifier: GPL-3.0-or-later\n * Moret\n * Copyright (C) 2021 Moret\n*/\n\npragma solidity ^0.8.4;\n\nimport \"@openzeppelin/contracts/token/ERC20/ERC20.sol\";\nimport \"@openzeppelin/contracts/access/AccessControl.sol\";\nimport \"@openzeppelin/contracts/utils/structs/EnumerableSet.sol\";\nimport \"@openzeppelin/contracts/utils/math/Math.sol\";\nimport \"./MoretInterfaces.sol\";\nimport \"./OptionVault.sol\";\nimport \"./VolatilityToken.sol\";\nimport \"./MoretMarketMaker.sol\";\nimport \"./FullMath.sol\";\n\ncontract Exchange is AccessControl, EOption\n{\n    bytes32 public constant ADMIN_ROLE = keccak256(\"ADMIN_ROLE\");\n\n    OptionLibrary.Percent public settlementFee = OptionLibrary.Percent(10 ** 5, 10 ** 6);\n    OptionLibrary.Percent public volTransactionFees = OptionLibrary.Percent(5 * 10 ** 3, 10 ** 6);\n    address payable public contractAddress;\n\n    address public marketMakerAddress;\n    MoretMarketMaker internal marketMaker;\n    OptionVault internal optionVault;\n      ERC20 internal underlyingToken;\n    mapping(uint256=>VolatilityToken) public volTokensList;\n\n    uint256 private constant ethMultiplier = 10 ** 18;\n    uint256 public maxUtilisation = 10 ** 18;\n\n    constructor(\n      address payable _marketMakerAddress,\n      address _optionAddress,\n      address payable _volTokenAddress\n      )\n    {\n       _setupRole(DEFAULT_ADMIN_ROLE, msg.sender);\n        _setupRole(ADMIN_ROLE, msg.sender);\n\n      optionVault = OptionVault(_optionAddress);\n      marketMakerAddress = _marketMakerAddress;\n      marketMaker = MoretMarketMaker(_marketMakerAddress);\n      VolatilityToken _volToken = VolatilityToken(_volTokenAddress);\n      volTokensList[_volToken.tenor()] = _volToken;\n      contractAddress = payable(address(this));\n\n      underlyingToken = ERC20(marketMaker.underlyingAddress());\n    }\n\n    function queryOptionCost(uint256 _tenor, uint256 _strike, uint256 _amount,\n      OptionLibrary.PayoffType _poType, OptionLibrary.OptionSide _side)\n      public view returns(uint256)\n    {\n        (uint256 _utilPrior, uint256 _utilAfter)  = calcUtilisation(_amount, _poType, _side);\n        require(Math.max(_utilPrior, _utilAfter)<= maxUtilisation, \"Max utilisation breached.\");\n\n        return optionVault.queryOptionCost(_tenor, _strike, _poType, _amount, _utilPrior, _utilAfter );\n    }\n\n    function purchaseOption(uint256 _tenor, uint256 _strike, OptionLibrary.PayoffType _poType,\n      uint256 _amount, uint256 _payInCost)\n      external\n      {\n      uint256 _premium = queryOptionCost(_tenor, _strike, _amount, _poType,OptionLibrary.OptionSide.Buy );\n      uint256 _fee = MulDiv(_premium, settlementFee.numerator, settlementFee.denominator);\n\n      uint256 _id = optionVault.addOption(_tenor, _strike, _poType, OptionLibrary.OptionSide.Buy, _amount, _premium - _fee, _fee );\n\n      require(_payInCost >= optionVault.queryDraftOptionCost(_id, false), \"Entered premium incorrect.\");\n\n      require(underlyingToken.transferFrom(msg.sender, contractAddress, _payInCost), 'Failed payment.');\n      require(underlyingToken.transfer(marketMakerAddress, optionVault.queryOptionPremium(_id)), 'Failed premium payment.');\n\n      optionVault.stampActiveOption(_id);\n\n      marketMaker.recordOption(msg.sender, _id, true,\n        optionVault.queryOptionPremium(_id),\n        optionVault.queryOptionExposure(_id, OptionLibrary.PayoffType.Call),\n        optionVault.queryOptionExposure(_id, OptionLibrary.PayoffType.Put));\n\n\n        emit newOptionBought(msg.sender, optionVault.getOption(_id), _payInCost, false);\n\n    }\n\n    function purchaseOptionInVol(uint256 _tenor, uint256 _strike, OptionLibrary.PayoffType _poType,\n      uint256 _amount, uint256 _payInCost)\n      external\n      {\n      uint256 _premium = queryOptionCost(_tenor, _strike, _amount, _poType,OptionLibrary.OptionSide.Buy );\n      uint256 _fee = MulDiv(_premium, settlementFee.numerator, settlementFee.denominator);\n\n      uint256 _id = optionVault.addOption(_tenor, _strike, _poType, OptionLibrary.OptionSide.Buy, _amount, _premium - _fee, _fee );\n      require(_payInCost >= optionVault.queryDraftOptionCost(_id, true), \"Entered premium incorrect.\");\n\n      require(volTokensList[_tenor].transferFrom(msg.sender, contractAddress, _payInCost), 'Failed payment.');\n\n      volTokensList[_tenor].approve(volTokensList[_tenor].contractAddress(), _payInCost);\n      volTokensList[_tenor].recycleInToken(contractAddress, _payInCost, underlyingToken);\n      require(underlyingToken.transfer(marketMakerAddress, optionVault.queryOptionPremium(_id)), 'Failed premium payment.');\n\n      optionVault.stampActiveOption(_id);\n\n      marketMaker.recordOption(msg.sender, _id, true,\n        optionVault.queryOptionPremium(_id),\n        optionVault.queryOptionExposure(_id, OptionLibrary.PayoffType.Call),\n        optionVault.queryOptionExposure(_id, OptionLibrary.PayoffType.Put));\n\n      emit newOptionBought(msg.sender, optionVault.getOption(_id), _payInCost, true);\n\n    }\n\n    function getOptionPayoffValue(uint256 _id) external view returns(uint256){\n      return optionVault.getOptionPayoffValue(_id);\n    }\n\n    function exerciseOption(uint256 _id) external  {\n        optionVault.validateOption(_id, msg.sender);\n\n        uint256 _payoffValue = optionVault.getOptionPayoffValue(_id);\n\n        optionVault.stampExercisedOption(_id);\n\n        require(underlyingToken.transfer(msg.sender, _payoffValue), \"Transfer failed.\");\n\n        marketMaker.recordOption(msg.sender, _id, false,\n          optionVault.queryOptionPremium(_id),\n          optionVault.queryOptionExposure(_id, OptionLibrary.PayoffType.Call),\n          optionVault.queryOptionExposure(_id, OptionLibrary.PayoffType.Put));\n\n        emit optionExercised(msg.sender, optionVault.getOption(_id), _payoffValue);\n    }\n\n    function expireOption(uint256 _id) internal {\n        if(optionVault.isOptionExpiring(_id))\n        {\n            uint256 _payoffValue = optionVault.getOptionPayoffValue(_id);\n            require(_payoffValue < underlyingToken.balanceOf(contractAddress), \"Balance insufficient.\");\n\n            optionVault.stampExercisedOption(_id);\n\n            address payable _optionHolder = optionVault.getOptionHolder(_id);\n            require(underlyingToken.transfer(_optionHolder, _payoffValue), \"Transfer failed.\");\n\n            marketMaker.recordOption(msg.sender, _id, false,\n              optionVault.queryOptionPremium(_id),\n              optionVault.queryOptionExposure(_id, OptionLibrary.PayoffType.Call),\n              optionVault.queryOptionExposure(_id, OptionLibrary.PayoffType.Put));\n        }\n    }\n\n\n      function addVolToken(address payable _tokenAddress) external onlyRole(ADMIN_ROLE)\n      {\n          VolatilityToken _volToken = VolatilityToken(_tokenAddress);\n          /* require(_volToken.descriptionHash() == optionVault.descriptionHash());\n          require(optionVault.containsTenor(_volToken.tenor())); */\n\n          volTokensList[_volToken.tenor()] = _volToken;\n\n      }\n\n      function quoteVolatilityCost(uint256 _tenor, uint256 _volAmount) public view returns(uint256, uint256)\n      {\n          /* require(optionVault.containsTenor(_tenor)); */\n\n          (uint256 _price,) = optionVault.queryPrice();\n          (uint256 _volatility, ) = optionVault.queryVol(_tenor);\n\n          uint256 _value = volTokensList[_tenor].calculateMintValue(_volAmount, _price, _volatility);\n          uint256 _fee = _value * volTransactionFees.numerator/ volTransactionFees.denominator;\n\n          return (_value, _fee);\n      }\n\n      function purchaseVolatilityToken(uint256 _tenor, uint256 _volAmount, uint256 _payInCost)\n      external {\n          (uint256 _value, uint256 _fee) = quoteVolatilityCost(_tenor, _volAmount);\n          require(_payInCost >= (_value + _fee));\n\n          underlyingToken.transferFrom(msg.sender, address(volTokensList[_tenor]), _value);\n          volTokensList[_tenor].mint{value: _value}(msg.sender, _volAmount);\n\n          emit newVolatilityTokenBought(msg.sender, block.timestamp, _tenor, _volAmount);\n      }\n\n      function sweepBalance() external onlyRole(ADMIN_ROLE){\n            require(underlyingToken.transfer(msg.sender, underlyingToken.balanceOf(contractAddress)), \"Withdrawal failed.\");\n      }\n\n      function resetSettlementFees(uint256 _fee, uint256 _denominator) external onlyRole(ADMIN_ROLE){\n          settlementFee = OptionLibrary.Percent(_fee, _denominator);\n      }\n\n          function resetVolTransactionFees(uint256 _fee, uint256 _denominator) external onlyRole(ADMIN_ROLE){\n              volTransactionFees = OptionLibrary.Percent(_fee, _denominator);\n          }\n\n\n            function resetMaxUtilisation(uint256 _maxUtil) external onlyRole(ADMIN_ROLE){\n                maxUtilisation = _maxUtil;\n            }\n\n\n      function calcUtilisation(uint256 _amount, OptionLibrary.PayoffType _poType, OptionLibrary.OptionSide _side)\n      public view returns(uint256, uint256){\n          uint256 _grossCapital = marketMaker.calcCapital(false, false);\n\n          uint256 _newCallExposure = (_poType==OptionLibrary.PayoffType.Call)?\n            ((_side==OptionLibrary.OptionSide.Buy)? (marketMaker.callExposure() + _amount):\n              (marketMaker.callExposure() - Math.min(marketMaker.callExposure(), _amount)) )\n            : marketMaker.callExposure();\n          uint256 _newPutExposure = (_poType==OptionLibrary.PayoffType.Put)?\n            ((_side==OptionLibrary.OptionSide.Buy)? (marketMaker.putExposure()+_amount):\n              (marketMaker.putExposure() - Math.min(marketMaker.putExposure(), _amount)) )\n            : marketMaker.putExposure();\n\n          return (MulDiv(Math.max(marketMaker.callExposure(), marketMaker.putExposure()), ethMultiplier, _grossCapital ),\n            MulDiv(Math.max(_newCallExposure, _newPutExposure) , ethMultiplier, _grossCapital ));\n      }\n\n\n\n          function priceDecimals() external view returns(uint256){ return optionVault.priceDecimals();}\n          function queryPrice() external view returns(uint256, uint256){return optionVault.queryPrice();}\n          function queryVol(uint256 _tenor) external view returns(uint256, uint256){return optionVault.queryVol(_tenor);}\n\n\n}\n",
  "sourcePath": "/Users/mac/Documents/GitHub/moret/contracts/Exchange.sol",
  "compiler": {
    "name": "solc",
    "version": "0.8.6+commit.11564f7e.Emscripten.clang"
  },
  "schemaVersion": "3.4.1",
  "updatedAt": "2021-07-10T00:40:46.714Z",
  "devdoc": {
    "kind": "dev",
    "methods": {
      "getRoleAdmin(bytes32)": {
        "details": "Returns the admin role that controls `role`. See {grantRole} and {revokeRole}. To change a role's admin, use {_setRoleAdmin}."
      },
      "grantRole(bytes32,address)": {
        "details": "Grants `role` to `account`. If `account` had not been already granted `role`, emits a {RoleGranted} event. Requirements: - the caller must have ``role``'s admin role."
      },
      "hasRole(bytes32,address)": {
        "details": "Returns `true` if `account` has been granted `role`."
      },
      "renounceRole(bytes32,address)": {
        "details": "Revokes `role` from the calling account. Roles are often managed via {grantRole} and {revokeRole}: this function's purpose is to provide a mechanism for accounts to lose their privileges if they are compromised (such as when a trusted device is misplaced). If the calling account had been granted `role`, emits a {RoleRevoked} event. Requirements: - the caller must be `account`."
      },
      "revokeRole(bytes32,address)": {
        "details": "Revokes `role` from `account`. If `account` had been granted `role`, emits a {RoleRevoked} event. Requirements: - the caller must have ``role``'s admin role."
      },
      "supportsInterface(bytes4)": {
        "details": "See {IERC165-supportsInterface}."
      }
    },
    "version": 1
  },
  "userdoc": {
    "kind": "user",
    "methods": {},
    "version": 1
  }
}