{
  "contractName": "Exchange",
  "abi": [
    {
      "inputs": [
        {
          "internalType": "contract MoretMarketMaker",
          "name": "_marketMaker",
          "type": "address"
        },
        {
          "internalType": "contract OptionVault",
          "name": "_vault",
          "type": "address"
        }
      ],
      "stateMutability": "nonpayable",
      "type": "constructor"
    },
    {
      "anonymous": false,
      "inputs": [
        {
          "indexed": true,
          "internalType": "address",
          "name": "_purchaser",
          "type": "address"
        },
        {
          "indexed": false,
          "internalType": "uint256",
          "name": "_id",
          "type": "uint256"
        },
        {
          "indexed": false,
          "internalType": "uint256",
          "name": "_payoff",
          "type": "uint256"
        }
      ],
      "name": "Expire",
      "type": "event"
    },
    {
      "anonymous": false,
      "inputs": [
        {
          "indexed": true,
          "internalType": "address",
          "name": "_purchaser",
          "type": "address"
        },
        {
          "indexed": false,
          "internalType": "uint256",
          "name": "_id",
          "type": "uint256"
        },
        {
          "indexed": false,
          "internalType": "uint256",
          "name": "_cost",
          "type": "uint256"
        },
        {
          "indexed": false,
          "internalType": "bool",
          "name": "_inVol",
          "type": "bool"
        }
      ],
      "name": "NewOption",
      "type": "event"
    },
    {
      "anonymous": false,
      "inputs": [
        {
          "indexed": true,
          "internalType": "uint256",
          "name": "_addressId",
          "type": "uint256"
        },
        {
          "indexed": false,
          "internalType": "address",
          "name": "_address",
          "type": "address"
        }
      ],
      "name": "ResetAddress",
      "type": "event"
    },
    {
      "anonymous": false,
      "inputs": [
        {
          "indexed": true,
          "internalType": "uint256",
          "name": "_parameterId",
          "type": "uint256"
        },
        {
          "indexed": false,
          "internalType": "uint256",
          "name": "_parameter",
          "type": "uint256"
        }
      ],
      "name": "ResetParameter",
      "type": "event"
    },
    {
      "anonymous": false,
      "inputs": [
        {
          "indexed": false,
          "internalType": "bool",
          "name": "success",
          "type": "bool"
        },
        {
          "indexed": false,
          "internalType": "bytes",
          "name": "data",
          "type": "bytes"
        }
      ],
      "name": "Response",
      "type": "event"
    },
    {
      "anonymous": false,
      "inputs": [
        {
          "indexed": true,
          "internalType": "bytes32",
          "name": "role",
          "type": "bytes32"
        },
        {
          "indexed": true,
          "internalType": "bytes32",
          "name": "previousAdminRole",
          "type": "bytes32"
        },
        {
          "indexed": true,
          "internalType": "bytes32",
          "name": "newAdminRole",
          "type": "bytes32"
        }
      ],
      "name": "RoleAdminChanged",
      "type": "event"
    },
    {
      "anonymous": false,
      "inputs": [
        {
          "indexed": true,
          "internalType": "bytes32",
          "name": "role",
          "type": "bytes32"
        },
        {
          "indexed": true,
          "internalType": "address",
          "name": "account",
          "type": "address"
        },
        {
          "indexed": true,
          "internalType": "address",
          "name": "sender",
          "type": "address"
        }
      ],
      "name": "RoleGranted",
      "type": "event"
    },
    {
      "anonymous": false,
      "inputs": [
        {
          "indexed": true,
          "internalType": "bytes32",
          "name": "role",
          "type": "bytes32"
        },
        {
          "indexed": true,
          "internalType": "address",
          "name": "account",
          "type": "address"
        },
        {
          "indexed": true,
          "internalType": "address",
          "name": "sender",
          "type": "address"
        }
      ],
      "name": "RoleRevoked",
      "type": "event"
    },
    {
      "anonymous": false,
      "inputs": [
        {
          "indexed": true,
          "internalType": "uint256",
          "name": "_id",
          "type": "uint256"
        },
        {
          "indexed": false,
          "internalType": "uint256",
          "name": "_timestamp",
          "type": "uint256"
        }
      ],
      "name": "StampExpire",
      "type": "event"
    },
    {
      "anonymous": false,
      "inputs": [
        {
          "indexed": true,
          "internalType": "uint256",
          "name": "_id",
          "type": "uint256"
        },
        {
          "indexed": false,
          "internalType": "uint256",
          "name": "_timestamp",
          "type": "uint256"
        }
      ],
      "name": "StampNewOption",
      "type": "event"
    },
    {
      "anonymous": false,
      "inputs": [
        {
          "indexed": true,
          "internalType": "uint256",
          "name": "_tenor",
          "type": "uint256"
        },
        {
          "indexed": false,
          "internalType": "address",
          "name": "_tokenAddress",
          "type": "address"
        }
      ],
      "name": "VolTokenAddition",
      "type": "event"
    },
    {
      "anonymous": false,
      "inputs": [
        {
          "indexed": true,
          "internalType": "uint256",
          "name": "_tenor",
          "type": "uint256"
        }
      ],
      "name": "VolTokenRemoved",
      "type": "event"
    },
    {
      "inputs": [],
      "name": "ADMIN_ROLE",
      "outputs": [
        {
          "internalType": "bytes32",
          "name": "",
          "type": "bytes32"
        }
      ],
      "stateMutability": "view",
      "type": "function",
      "constant": true
    },
    {
      "inputs": [],
      "name": "DEFAULT_ADMIN_ROLE",
      "outputs": [
        {
          "internalType": "bytes32",
          "name": "",
          "type": "bytes32"
        }
      ],
      "stateMutability": "view",
      "type": "function",
      "constant": true
    },
    {
      "inputs": [],
      "name": "allowTrading",
      "outputs": [
        {
          "internalType": "bool",
          "name": "",
          "type": "bool"
        }
      ],
      "stateMutability": "view",
      "type": "function",
      "constant": true
    },
    {
      "inputs": [
        {
          "internalType": "bytes32",
          "name": "role",
          "type": "bytes32"
        }
      ],
      "name": "getRoleAdmin",
      "outputs": [
        {
          "internalType": "bytes32",
          "name": "",
          "type": "bytes32"
        }
      ],
      "stateMutability": "view",
      "type": "function",
      "constant": true
    },
    {
      "inputs": [
        {
          "internalType": "bytes32",
          "name": "role",
          "type": "bytes32"
        },
        {
          "internalType": "address",
          "name": "account",
          "type": "address"
        }
      ],
      "name": "grantRole",
      "outputs": [],
      "stateMutability": "nonpayable",
      "type": "function"
    },
    {
      "inputs": [
        {
          "internalType": "bytes32",
          "name": "role",
          "type": "bytes32"
        },
        {
          "internalType": "address",
          "name": "account",
          "type": "address"
        }
      ],
      "name": "hasRole",
      "outputs": [
        {
          "internalType": "bool",
          "name": "",
          "type": "bool"
        }
      ],
      "stateMutability": "view",
      "type": "function",
      "constant": true
    },
    {
      "inputs": [],
      "name": "hedgingSlippage",
      "outputs": [
        {
          "internalType": "uint256",
          "name": "",
          "type": "uint256"
        }
      ],
      "stateMutability": "view",
      "type": "function",
      "constant": true
    },
    {
      "inputs": [],
      "name": "loanInterest",
      "outputs": [
        {
          "internalType": "uint256",
          "name": "",
          "type": "uint256"
        }
      ],
      "stateMutability": "view",
      "type": "function",
      "constant": true
    },
    {
      "inputs": [],
      "name": "minTradeAmount",
      "outputs": [
        {
          "internalType": "uint256",
          "name": "",
          "type": "uint256"
        }
      ],
      "stateMutability": "view",
      "type": "function",
      "constant": true
    },
    {
      "inputs": [
        {
          "internalType": "bytes32",
          "name": "role",
          "type": "bytes32"
        },
        {
          "internalType": "address",
          "name": "account",
          "type": "address"
        }
      ],
      "name": "renounceRole",
      "outputs": [],
      "stateMutability": "nonpayable",
      "type": "function"
    },
    {
      "inputs": [
        {
          "internalType": "bytes32",
          "name": "role",
          "type": "bytes32"
        },
        {
          "internalType": "address",
          "name": "account",
          "type": "address"
        }
      ],
      "name": "revokeRole",
      "outputs": [],
      "stateMutability": "nonpayable",
      "type": "function"
    },
    {
      "inputs": [
        {
          "internalType": "bytes4",
          "name": "interfaceId",
          "type": "bytes4"
        }
      ],
      "name": "supportsInterface",
      "outputs": [
        {
          "internalType": "bool",
          "name": "",
          "type": "bool"
        }
      ],
      "stateMutability": "view",
      "type": "function",
      "constant": true
    },
    {
      "inputs": [],
      "name": "volCapacityFactor",
      "outputs": [
        {
          "internalType": "uint256",
          "name": "",
          "type": "uint256"
        }
      ],
      "stateMutability": "view",
      "type": "function",
      "constant": true
    },
    {
      "inputs": [
        {
          "internalType": "uint256",
          "name": "",
          "type": "uint256"
        }
      ],
      "name": "volTokenAddressList",
      "outputs": [
        {
          "internalType": "contract VolatilityToken",
          "name": "",
          "type": "address"
        }
      ],
      "stateMutability": "view",
      "type": "function",
      "constant": true
    },
    {
      "inputs": [
        {
          "internalType": "uint256",
          "name": "_tenor",
          "type": "uint256"
        },
        {
          "internalType": "uint256",
          "name": "_strike",
          "type": "uint256"
        },
        {
          "internalType": "uint256",
          "name": "_amount",
          "type": "uint256"
        },
        {
          "internalType": "enum OptionLibrary.PayoffType",
          "name": "_poType",
          "type": "uint8"
        },
        {
          "internalType": "enum OptionLibrary.OptionSide",
          "name": "_side",
          "type": "uint8"
        }
      ],
      "name": "calcCost",
      "outputs": [
        {
          "internalType": "uint256",
          "name": "",
          "type": "uint256"
        },
        {
          "internalType": "uint256",
          "name": "",
          "type": "uint256"
        },
        {
          "internalType": "uint256",
          "name": "",
          "type": "uint256"
        }
      ],
      "stateMutability": "view",
      "type": "function",
      "constant": true
    },
    {
      "inputs": [
        {
          "internalType": "uint256",
          "name": "_tenor",
          "type": "uint256"
        },
        {
          "internalType": "uint256",
          "name": "_price",
          "type": "uint256"
        },
        {
          "internalType": "uint256",
          "name": "_strike",
          "type": "uint256"
        },
        {
          "internalType": "uint256",
          "name": "_amount",
          "type": "uint256"
        },
        {
          "internalType": "enum OptionLibrary.PayoffType",
          "name": "_poType",
          "type": "uint8"
        },
        {
          "internalType": "enum OptionLibrary.OptionSide",
          "name": "_side",
          "type": "uint8"
        },
        {
          "internalType": "bool",
          "name": "_inDecimals",
          "type": "bool"
        }
      ],
      "name": "calcOptionCost",
      "outputs": [
        {
          "internalType": "uint256",
          "name": "_premium",
          "type": "uint256"
        },
        {
          "internalType": "uint256",
          "name": "_cost",
          "type": "uint256"
        },
        {
          "internalType": "uint256",
          "name": "_vol",
          "type": "uint256"
        }
      ],
      "stateMutability": "view",
      "type": "function",
      "constant": true
    },
    {
      "inputs": [
        {
          "internalType": "uint256",
          "name": "_tenor",
          "type": "uint256"
        },
        {
          "internalType": "uint256",
          "name": "_strike",
          "type": "uint256"
        },
        {
          "internalType": "uint256",
          "name": "_amount",
          "type": "uint256"
        },
        {
          "internalType": "enum OptionLibrary.OptionSide",
          "name": "_side",
          "type": "uint8"
        }
      ],
      "name": "queryOptionVolatility",
      "outputs": [
        {
          "internalType": "uint256",
          "name": "_vol",
          "type": "uint256"
        }
      ],
      "stateMutability": "view",
      "type": "function",
      "constant": true
    },
    {
      "inputs": [
        {
          "internalType": "uint256",
          "name": "_tenor",
          "type": "uint256"
        },
        {
          "internalType": "uint256",
          "name": "_strike",
          "type": "uint256"
        },
        {
          "internalType": "uint256",
          "name": "_amount",
          "type": "uint256"
        },
        {
          "internalType": "enum OptionLibrary.PayoffType",
          "name": "_poType",
          "type": "uint8"
        },
        {
          "internalType": "enum OptionLibrary.OptionSide",
          "name": "_side",
          "type": "uint8"
        },
        {
          "internalType": "uint256",
          "name": "_payInCost",
          "type": "uint256"
        }
      ],
      "name": "purchaseOption",
      "outputs": [],
      "stateMutability": "nonpayable",
      "type": "function"
    },
    {
      "inputs": [
        {
          "internalType": "uint256",
          "name": "_id",
          "type": "uint256"
        }
      ],
      "name": "getOptionPayoffValue",
      "outputs": [
        {
          "internalType": "uint256",
          "name": "_payback",
          "type": "uint256"
        }
      ],
      "stateMutability": "view",
      "type": "function",
      "constant": true
    },
    {
      "inputs": [
        {
          "internalType": "uint256",
          "name": "_tenor",
          "type": "uint256"
        },
        {
          "internalType": "uint256",
          "name": "_amount",
          "type": "uint256"
        },
        {
          "internalType": "enum OptionLibrary.OptionSide",
          "name": "_side",
          "type": "uint8"
        }
      ],
      "name": "calcVolAmount",
      "outputs": [
        {
          "internalType": "uint256",
          "name": "_volAmount",
          "type": "uint256"
        },
        {
          "internalType": "uint256",
          "name": "_vol",
          "type": "uint256"
        },
        {
          "internalType": "uint256",
          "name": "_premium",
          "type": "uint256"
        },
        {
          "internalType": "uint256",
          "name": "_cost",
          "type": "uint256"
        },
        {
          "internalType": "uint256",
          "name": "_price",
          "type": "uint256"
        }
      ],
      "stateMutability": "view",
      "type": "function",
      "constant": true
    },
    {
      "inputs": [
        {
          "internalType": "uint256",
          "name": "_tenor",
          "type": "uint256"
        },
        {
          "internalType": "uint256",
          "name": "_amount",
          "type": "uint256"
        },
        {
          "internalType": "uint256",
          "name": "_payInCost",
          "type": "uint256"
        }
      ],
      "name": "buyVol",
      "outputs": [],
      "stateMutability": "nonpayable",
      "type": "function"
    },
    {
      "inputs": [
        {
          "internalType": "uint256",
          "name": "_tenor",
          "type": "uint256"
        },
        {
          "internalType": "uint256",
          "name": "_amount",
          "type": "uint256"
        },
        {
          "internalType": "uint256",
          "name": "_payInVol",
          "type": "uint256"
        }
      ],
      "name": "sellVol",
      "outputs": [],
      "stateMutability": "nonpayable",
      "type": "function"
    },
    {
      "inputs": [
        {
          "internalType": "uint256",
          "name": "_tenor",
          "type": "uint256"
        },
        {
          "internalType": "uint256",
          "name": "_amount",
          "type": "uint256"
        },
        {
          "internalType": "enum OptionLibrary.PayoffType",
          "name": "_poType",
          "type": "uint8"
        },
        {
          "internalType": "uint256",
          "name": "_payInVol",
          "type": "uint256"
        }
      ],
      "name": "buyOptionInVol",
      "outputs": [],
      "stateMutability": "nonpayable",
      "type": "function"
    },
    {
      "inputs": [
        {
          "internalType": "uint256",
          "name": "_tenor",
          "type": "uint256"
        },
        {
          "internalType": "uint256",
          "name": "_amount",
          "type": "uint256"
        },
        {
          "internalType": "enum OptionLibrary.PayoffType",
          "name": "_poType",
          "type": "uint8"
        },
        {
          "internalType": "uint256",
          "name": "_payInCost",
          "type": "uint256"
        }
      ],
      "name": "sellOptionInVol",
      "outputs": [],
      "stateMutability": "nonpayable",
      "type": "function"
    },
    {
      "inputs": [
        {
          "internalType": "uint256",
          "name": "_tenor",
          "type": "uint256"
        },
        {
          "internalType": "address",
          "name": "_tokenAddress",
          "type": "address"
        }
      ],
      "name": "addVolToken",
      "outputs": [],
      "stateMutability": "nonpayable",
      "type": "function"
    },
    {
      "inputs": [
        {
          "internalType": "uint256",
          "name": "_tenor",
          "type": "uint256"
        }
      ],
      "name": "removeVolToken",
      "outputs": [],
      "stateMutability": "nonpayable",
      "type": "function"
    },
    {
      "inputs": [],
      "name": "vaultAddress",
      "outputs": [
        {
          "internalType": "address",
          "name": "",
          "type": "address"
        }
      ],
      "stateMutability": "view",
      "type": "function",
      "constant": true
    },
    {
      "inputs": [],
      "name": "marketMakerAddress",
      "outputs": [
        {
          "internalType": "address",
          "name": "",
          "type": "address"
        }
      ],
      "stateMutability": "view",
      "type": "function",
      "constant": true
    },
    {
      "inputs": [
        {
          "internalType": "uint256",
          "name": "_loanInterest",
          "type": "uint256"
        }
      ],
      "name": "resetLoanRate",
      "outputs": [],
      "stateMutability": "nonpayable",
      "type": "function"
    },
    {
      "inputs": [
        {
          "internalType": "uint256",
          "name": "_newFactor",
          "type": "uint256"
        }
      ],
      "name": "resetVolCapacityFactor",
      "outputs": [],
      "stateMutability": "nonpayable",
      "type": "function"
    },
    {
      "inputs": [
        {
          "internalType": "uint256",
          "name": "_newAmount",
          "type": "uint256"
        }
      ],
      "name": "resetMinAmount",
      "outputs": [],
      "stateMutability": "nonpayable",
      "type": "function"
    },
    {
      "inputs": [
        {
          "internalType": "bool",
          "name": "_allowTrading",
          "type": "bool"
        }
      ],
      "name": "resetTrading",
      "outputs": [],
      "stateMutability": "nonpayable",
      "type": "function"
    }
  ],
  "bytecode": "0x6101206040526706f05b59d3b20000600255655af3107a40006003556000600455660aa87bee5380006005556001600660006101000a81548160ff0219169083151502179055503480156200005357600080fd5b5060405162005698380380620056988339818101604052810190620000799190620005ec565b6200008e6000801b33620003b060201b60201c565b620000c07fa49807205ce4d355092ef5a8a18f56e8913cf4a201fbe287825b095693c2177533620003b060201b60201c565b8073ffffffffffffffffffffffffffffffffffffffff1660a08173ffffffffffffffffffffffffffffffffffffffff16815250508173ffffffffffffffffffffffffffffffffffffffff1660808173ffffffffffffffffffffffffffffffffffffffff16815250508073ffffffffffffffffffffffffffffffffffffffff1663cb4c86b76040518163ffffffff1660e01b8152600401602060405180830381865afa15801562000174573d6000803e3d6000fd5b505050506040513d601f19601f820116820180604052508101906200019a919062000678565b73ffffffffffffffffffffffffffffffffffffffff166101008173ffffffffffffffffffffffffffffffffffffffff16815250508073ffffffffffffffffffffffffffffffffffffffff1663cb4c86b76040518163ffffffff1660e01b8152600401602060405180830381865afa1580156200021a573d6000803e3d6000fd5b505050506040513d601f19601f8201168201806040525081019062000240919062000678565b73ffffffffffffffffffffffffffffffffffffffff1663313ce5676040518163ffffffff1660e01b8152600401602060405180830381865afa1580156200028b573d6000803e3d6000fd5b505050506040513d601f19601f82011682018060405250810190620002b19190620006e8565b60ff1660c081815250508073ffffffffffffffffffffffffffffffffffffffff16636f307dc36040518163ffffffff1660e01b8152600401602060405180830381865afa15801562000307573d6000803e3d6000fd5b505050506040513d601f19601f820116820180604052508101906200032d919062000678565b73ffffffffffffffffffffffffffffffffffffffff1663313ce5676040518163ffffffff1660e01b8152600401602060405180830381865afa15801562000378573d6000803e3d6000fd5b505050506040513d601f19601f820116820180604052508101906200039e9190620006e8565b60ff1660e0818152505050506200071a565b620003c28282620003c660201b60201c565b5050565b620003d88282620004b760201b60201c565b620004b357600160008084815260200190815260200160002060000160008373ffffffffffffffffffffffffffffffffffffffff1673ffffffffffffffffffffffffffffffffffffffff16815260200190815260200160002060006101000a81548160ff021916908315150217905550620004586200052160201b60201c565b73ffffffffffffffffffffffffffffffffffffffff168173ffffffffffffffffffffffffffffffffffffffff16837f2f8788117e7eff1d82e926ec794901d17c78024a50270940304540a733656f0d60405160405180910390a45b5050565b600080600084815260200190815260200160002060000160008373ffffffffffffffffffffffffffffffffffffffff1673ffffffffffffffffffffffffffffffffffffffff16815260200190815260200160002060009054906101000a900460ff16905092915050565b600033905090565b600080fd5b600073ffffffffffffffffffffffffffffffffffffffff82169050919050565b60006200055b826200052e565b9050919050565b60006200056f826200054e565b9050919050565b620005818162000562565b81146200058d57600080fd5b50565b600081519050620005a18162000576565b92915050565b6000620005b4826200054e565b9050919050565b620005c681620005a7565b8114620005d257600080fd5b50565b600081519050620005e681620005bb565b92915050565b6000806040838503121562000606576200060562000529565b5b6000620006168582860162000590565b92505060206200062985828601620005d5565b9150509250929050565b600062000640826200054e565b9050919050565b620006528162000633565b81146200065e57600080fd5b50565b600081519050620006728162000647565b92915050565b60006020828403121562000691576200069062000529565b5b6000620006a18482850162000661565b91505092915050565b600060ff82169050919050565b620006c281620006aa565b8114620006ce57600080fd5b50565b600081519050620006e281620006b7565b92915050565b60006020828403121562000701576200070062000529565b5b60006200071184828501620006d1565b91505092915050565b60805160a05160c05160e05161010051614e8d6200080b6000396000818161102b015281816112710152818161137001528181611c66015281816124af015261284001526000505060008181610d870152610e2501526000818161076901528181610eb701528181610f5d01528181611451015281816115a2015281816116950152818161174a015281816117e801528181611bb501528181611d6301528181611f1d0152818161230e015281816123ff015281816125ae0152612e3f0152600081816112ae0152818161187901528181611ca2015281816124ec015281816126a90152612d3e0152614e8d6000f3fe608060405234801561001057600080fd5b50600436106101f05760003560e01c80636a7d116f1161010f578063a7292ea4116100a2578063dab2432911610071578063dab24329146105bd578063dbfed783146105d9578063dda9046f146105f5578063edf0bec614610613576101f0565b8063a7292ea414610547578063ba2d76cb14610565578063cc91058814610583578063d547741f146105a1576101f0565b80638d4939c6116100de5780638d4939c6146104c157806391d14854146104dd578063a217fddf1461050d578063a34a1e4d1461052b576101f0565b80636a7d116f146104235780637188157e1461045357806375b238fc1461046f57806375b8452b1461048d576101f0565b80632f2ff15d11610187578063430bf08a11610156578063430bf08a1461039b5780634b7a58fb146103b95780634d937da9146103d557806368fefdfb146103f1576101f0565b80632f2ff15d1461030157806336568abe1461031d5780633d2c81691461033957806340d6eaab1461036b576101f0565b8063130dab6a116101c3578063130dab6a1461027b5780631fb2274214610297578063248a9ca3146102b35780632e5b4c43146102e3576101f0565b806301ffc9a7146101f55780630227ac83146102255780630c64307d146102415780630f9026181461025d575b600080fd5b61020f600480360381019061020a91906134b1565b610643565b60405161021c91906134f9565b60405180910390f35b61023f600480360381019061023a91906135a8565b6106bd565b005b61025b600480360381019061025691906135e8565b610935565b005b6102656109ab565b6040516102729190613624565b60405180910390f35b610295600480360381019061029091906135e8565b6109b1565b005b6102b160048036038101906102ac91906135e8565b610a67565b005b6102cd60048036038101906102c89190613675565b610add565b6040516102da91906136b1565b60405180910390f35b6102eb610afc565b6040516102f891906134f9565b60405180910390f35b61031b600480360381019061031691906136cc565b610b0f565b005b610337600480360381019061033291906136cc565b610b38565b005b610353600480360381019061034e9190613782565b610bbb565b60405161036293929190613824565b60405180910390f35b610385600480360381019061038091906135e8565b610eb3565b6040516103929190613624565b60405180910390f35b6103a3610f59565b6040516103b0919061386a565b60405180910390f35b6103d360048036038101906103ce9190613885565b610f81565b005b6103ef60048036038101906103ea91906138d8565b6111af565b005b61040b6004803603810190610406919061393f565b61168d565b60405161041a93929190613824565b60405180910390f35b61043d600480360381019061043891906139ba565b611746565b60405161044a9190613624565b60405180910390f35b61046d600480360381019061046891906138d8565b611a61565b005b610477611e4d565b60405161048491906136b1565b60405180910390f35b6104a760048036038101906104a29190613a21565b611e71565b6040516104b8959493929190613a74565b60405180910390f35b6104db60048036038101906104d69190613ac7565b61218b565b005b6104f760048036038101906104f291906136cc565b612205565b60405161050491906134f9565b60405180910390f35b61051561226f565b60405161052291906136b1565b60405180910390f35b61054560048036038101906105409190613af4565b612276565b005b61054f612699565b60405161055c9190613624565b60405180910390f35b61056d61269f565b60405161057a9190613624565b60405180910390f35b61058b6126a5565b604051610598919061386a565b60405180910390f35b6105bb60048036038101906105b691906136cc565b6126cd565b005b6105d760048036038101906105d29190613885565b6126f6565b005b6105f360048036038101906105ee91906135e8565b612922565b005b6105fd612998565b60405161060a9190613624565b60405180910390f35b61062d600480360381019061062891906135e8565b61299e565b60405161063a9190613be0565b60405180910390f35b60007f7965db0b000000000000000000000000000000000000000000000000000000007bffffffffffffffffffffffffffffffffffffffffffffffffffffffff1916827bffffffffffffffffffffffffffffffffffffffffffffffffffffffff191614806106b657506106b5826129d1565b5b9050919050565b7fa49807205ce4d355092ef5a8a18f56e8913cf4a201fbe287825b095693c217756106ef816106ea612a3b565b612a43565b828273ffffffffffffffffffffffffffffffffffffffff1663a15612d16040518163ffffffff1660e01b8152600401602060405180830381865afa15801561073b573d6000803e3d6000fd5b505050506040513d601f19601f8201168201806040525081019061075f9190613c10565b14801561086757507f000000000000000000000000000000000000000000000000000000000000000073ffffffffffffffffffffffffffffffffffffffff1663cca494736040518163ffffffff1660e01b8152600401602060405180830381865afa1580156107d2573d6000803e3d6000fd5b505050506040513d601f19601f820116820180604052508101906107f69190613c52565b8273ffffffffffffffffffffffffffffffffffffffff1663cca494736040518163ffffffff1660e01b8152600401602060405180830381865afa158015610841573d6000803e3d6000fd5b505050506040513d601f19601f820116820180604052508101906108659190613c52565b145b6108a6576040517f08c379a000000000000000000000000000000000000000000000000000000000815260040161089d90613cdc565b60405180910390fd5b816001600085815260200190815260200160002060006101000a81548173ffffffffffffffffffffffffffffffffffffffff021916908373ffffffffffffffffffffffffffffffffffffffff160217905550827ff52090a6d0640328e5fca5b38028063dc80957a1911e51223e7a53797b600eda83604051610928919061386a565b60405180910390a2505050565b7fa49807205ce4d355092ef5a8a18f56e8913cf4a201fbe287825b095693c2177561096781610962612a3b565b612a43565b8160048190555060647f1f77a5f1218c5e380f0425a2e88a823d831b5f8906f5ab4db8b1565a36f780d78360405161099f9190613624565b60405180910390a25050565b60025481565b7fa49807205ce4d355092ef5a8a18f56e8913cf4a201fbe287825b095693c217756109e3816109de612a3b565b612a43565b60006001600084815260200190815260200160002060006101000a81548173ffffffffffffffffffffffffffffffffffffffff021916908373ffffffffffffffffffffffffffffffffffffffff160217905550817f77deee3eb9b4bb6f251b71ecb6cab511fad7f468b72b821d2315bce091d693b560405160405180910390a25050565b7fa49807205ce4d355092ef5a8a18f56e8913cf4a201fbe287825b095693c21775610a9981610a94612a3b565b612a43565b8160038190555060667f1f77a5f1218c5e380f0425a2e88a823d831b5f8906f5ab4db8b1565a36f780d783604051610ad19190613624565b60405180910390a25050565b6000806000838152602001908152602001600020600101549050919050565b600660009054906101000a900460ff1681565b610b1882610add565b610b2981610b24612a3b565b612a43565b610b338383612ae0565b505050565b610b40612a3b565b73ffffffffffffffffffffffffffffffffffffffff168173ffffffffffffffffffffffffffffffffffffffff1614610bad576040517f08c379a0000000000000000000000000000000000000000000000000000000008152600401610ba490613d6e565b60405180910390fd5b610bb78282612bc0565b5050565b6000806000610bcc8a898988611746565b9050600060045473__FullMath______________________________63b3947c1790918d6301e133806040518463ffffffff1660e01b8152600401610c1393929190613d9d565b602060405180830381865af4158015610c30573d6000803e3d6000fd5b505050506040513d601f19601f82011682018060405250810190610c549190613c10565b905073__OptionLibrary_________________________632634764d8b848c8b8d876005546040518863ffffffff1660e01b8152600401610c9b9796959493929190613e4b565b602060405180830381865af4158015610cb8573d6000803e3d6000fd5b505050506040513d601f19601f82011682018060405250810190610cdc9190613c10565b935073__OptionLibrary_________________________638234348f8b8b8b8b8b8a6040518763ffffffff1660e01b8152600401610d1f96959493929190613f02565b602060405180830381865af4158015610d3c573d6000803e3d6000fd5b505050506040513d601f19601f82011682018060405250810190610d609190613c10565b92508415610ea5578373__MarketLibrary_________________________63174e20e690917f00000000000000000000000000000000000000000000000000000000000000006040518363ffffffff1660e01b8152600401610dc3929190613f63565b602060405180830381865af4158015610de0573d6000803e3d6000fd5b505050506040513d601f19601f82011682018060405250810190610e049190613c10565b93508273__MarketLibrary_________________________63174e20e690917f00000000000000000000000000000000000000000000000000000000000000006040518363ffffffff1660e01b8152600401610e61929190613f63565b602060405180830381865af4158015610e7e573d6000803e3d6000fd5b505050506040513d601f19601f82011682018060405250810190610ea29190613c10565b92505b509750975097945050505050565b60007f000000000000000000000000000000000000000000000000000000000000000073ffffffffffffffffffffffffffffffffffffffff166385ae10e6836040518263ffffffff1660e01b8152600401610f0e9190613624565b6040805180830381865afa158015610f2a573d6000803e3d6000fd5b505050506040513d601f19601f82011682018060405250810190610f4e9190613f8c565b905080915050919050565b60007f0000000000000000000000000000000000000000000000000000000000000000905090565b600660009054906101000a900460ff16610fd0576040517f08c379a0000000000000000000000000000000000000000000000000000000008152600401610fc790614018565b60405180910390fd5b600080610fdf85856000611e71565b5050925050915080831015611029576040517f08c379a000000000000000000000000000000000000000000000000000000000815260040161102090614084565b60405180910390fd5b7f000000000000000000000000000000000000000000000000000000000000000073ffffffffffffffffffffffffffffffffffffffff166323b872dd3330846040518463ffffffff1660e01b8152600401611086939291906140a4565b6020604051808303816000875af11580156110a5573d6000803e3d6000fd5b505050506040513d601f19601f820116820180604052508101906110c991906140f0565b611108576040517f08c379a00000000000000000000000000000000000000000000000000000000081526004016110ff90614169565b60405180910390fd5b6001600086815260200190815260200160002060009054906101000a900473ffffffffffffffffffffffffffffffffffffffff1673ffffffffffffffffffffffffffffffffffffffff166340c10f1933846040518363ffffffff1660e01b8152600401611176929190614189565b600060405180830381600087803b15801561119057600080fd5b505af11580156111a4573d6000803e3d6000fd5b505050505050505050565b600660009054906101000a900460ff166111fe576040517f08c379a00000000000000000000000000000000000000000000000000000000081526004016111f590614018565b60405180910390fd5b600080600080600061121289896001611e71565b945094509450945094506000828461122a91906141e1565b90508087101561126f576040517f08c379a000000000000000000000000000000000000000000000000000000000815260040161126690614084565b60405180910390fd5b7f000000000000000000000000000000000000000000000000000000000000000073ffffffffffffffffffffffffffffffffffffffff166323b872dd337f0000000000000000000000000000000000000000000000000000000000000000866040518463ffffffff1660e01b81526004016112ec939291906140a4565b6020604051808303816000875af115801561130b573d6000803e3d6000fd5b505050506040513d601f19601f8201168201806040525081019061132f91906140f0565b61136e576040517f08c379a000000000000000000000000000000000000000000000000000000000815260040161136590614283565b60405180910390fd5b7f000000000000000000000000000000000000000000000000000000000000000073ffffffffffffffffffffffffffffffffffffffff166323b872dd3330876040518463ffffffff1660e01b81526004016113cb939291906140a4565b6020604051808303816000875af11580156113ea573d6000803e3d6000fd5b505050506040513d601f19601f8201168201806040525081019061140e91906140f0565b61144d576040517f08c379a000000000000000000000000000000000000000000000000000000000815260040161144490614283565b60405180910390fd5b60007f000000000000000000000000000000000000000000000000000000000000000073ffffffffffffffffffffffffffffffffffffffff1663b5310ff98c858d8d60018b8b8b8f336040518b63ffffffff1660e01b81526004016114bb9a999897969594939291906142c1565b6020604051808303816000875af11580156114da573d6000803e3d6000fd5b505050506040513d601f19601f820116820180604052508101906114fe9190613c10565b9050600160008c815260200190815260200160002060009054906101000a900473ffffffffffffffffffffffffffffffffffffffff1673ffffffffffffffffffffffffffffffffffffffff166340c10f1933896040518363ffffffff1660e01b815260040161156e929190614189565b600060405180830381600087803b15801561158857600080fd5b505af115801561159c573d6000803e3d6000fd5b505050507f000000000000000000000000000000000000000000000000000000000000000073ffffffffffffffffffffffffffffffffffffffff166324b4110e82336040518363ffffffff1660e01b81526004016115fb92919061435d565b600060405180830381600087803b15801561161557600080fd5b505af1158015611629573d6000803e3d6000fd5b505050503373ffffffffffffffffffffffffffffffffffffffff167f867ac367830e7b4278cdecab9f5c67d60a41a72739cc35d3be4ff50458af94cb8289600160405161167893929190614386565b60405180910390a25050505050505050505050565b6000806000807f000000000000000000000000000000000000000000000000000000000000000073ffffffffffffffffffffffffffffffffffffffff1663b0667cf86040518163ffffffff1660e01b81526004016040805180830381865afa1580156116fd573d6000803e3d6000fd5b505050506040513d601f19601f820116820180604052508101906117219190613f8c565b50905061173489828a8a8a8a6001610bbb565b93509350935050955095509592505050565b60007f000000000000000000000000000000000000000000000000000000000000000073ffffffffffffffffffffffffffffffffffffffff1663cfc2dc20866040518263ffffffff1660e01b81526004016117a19190613624565b602060405180830381865afa1580156117be573d6000803e3d6000fd5b505050506040513d601f19601f820116820180604052508101906117e29190613c10565b905060007f000000000000000000000000000000000000000000000000000000000000000073ffffffffffffffffffffffffffffffffffffffff1663b0667cf86040518163ffffffff1660e01b81526004016040805180830381865afa158015611850573d6000803e3d6000fd5b505050506040513d601f19601f820116820180604052508101906118749190613f8c565b5090507f000000000000000000000000000000000000000000000000000000000000000073ffffffffffffffffffffffffffffffffffffffff166363447902600160006040518363ffffffff1660e01b81526004016118d49291906143bd565b602060405180830381865afa1580156118f1573d6000803e3d6000fd5b505050506040513d601f19601f820116820180604052508101906119159190613c10565b8473__FullMath______________________________63fed4a0f39091846040518363ffffffff1660e01b8152600401611950929190613f63565b602060405180830381865af415801561196d573d6000803e3d6000fd5b505050506040513d601f19601f820116820180604052508101906119919190613c10565b11156119d2576040517f08c379a00000000000000000000000000000000000000000000000000000000081526004016119c990614432565b60405180910390fd5b60006119e18284888888612ca1565b90506000816119ef8561315e565b6119f9919061445c565b13611a39576040517f08c379a0000000000000000000000000000000000000000000000000000000008152600401611a309061453c565b60405180910390fd5b611a5581611a468561315e565b611a50919061445c565b6131cb565b92505050949350505050565b600660009054906101000a900460ff16611ab0576040517f08c379a0000000000000000000000000000000000000000000000000000000008152600401611aa790614018565b60405180910390fd5b6000806000806000611ac489896000611e71565b9450945094509450945084861015611b11576040517f08c379a0000000000000000000000000000000000000000000000000000000008152600401611b0890614084565b60405180910390fd5b600160008a815260200190815260200160002060009054906101000a900473ffffffffffffffffffffffffffffffffffffffff1673ffffffffffffffffffffffffffffffffffffffff16639dc29fac33876040518363ffffffff1660e01b8152600401611b7f929190614189565b600060405180830381600087803b158015611b9957600080fd5b505af1158015611bad573d6000803e3d6000fd5b5050505060007f000000000000000000000000000000000000000000000000000000000000000073ffffffffffffffffffffffffffffffffffffffff1663b5310ff98b848c8c60008a8a8a8e336040518b63ffffffff1660e01b8152600401611c1f9a999897969594939291906142c1565b6020604051808303816000875af1158015611c3e573d6000803e3d6000fd5b505050506040513d601f19601f82011682018060405250810190611c629190613c10565b90507f000000000000000000000000000000000000000000000000000000000000000073ffffffffffffffffffffffffffffffffffffffff1663a9059cbb7f0000000000000000000000000000000000000000000000000000000000000000866040518363ffffffff1660e01b8152600401611cdf929190614189565b6020604051808303816000875af1158015611cfe573d6000803e3d6000fd5b505050506040513d601f19601f82011682018060405250810190611d2291906140f0565b611d61576040517f08c379a0000000000000000000000000000000000000000000000000000000008152600401611d5890614283565b60405180910390fd5b7f000000000000000000000000000000000000000000000000000000000000000073ffffffffffffffffffffffffffffffffffffffff166324b4110e82336040518363ffffffff1660e01b8152600401611dbc92919061435d565b600060405180830381600087803b158015611dd657600080fd5b505af1158015611dea573d6000803e3d6000fd5b505050503373ffffffffffffffffffffffffffffffffffffffff167f867ac367830e7b4278cdecab9f5c67d60a41a72739cc35d3be4ff50458af94cb82886001604051611e3993929190614386565b60405180910390a250505050505050505050565b7fa49807205ce4d355092ef5a8a18f56e8913cf4a201fbe287825b095693c2177581565b60008060008060008073ffffffffffffffffffffffffffffffffffffffff16600160008a815260200190815260200160002060009054906101000a900473ffffffffffffffffffffffffffffffffffffffff1673ffffffffffffffffffffffffffffffffffffffff161415611f1b576040517f08c379a0000000000000000000000000000000000000000000000000000000008152600401611f12906145a8565b60405180910390fd5b7f000000000000000000000000000000000000000000000000000000000000000073ffffffffffffffffffffffffffffffffffffffff1663b0667cf86040518163ffffffff1660e01b81526004016040805180830381865afa158015611f85573d6000803e3d6000fd5b505050506040513d601f19601f82011682018060405250810190611fa99190613f8c565b5080915050600080611fc28a84858c60008d6000610bbb565b92505091508173__FullMath______________________________63de7f61709091836040518363ffffffff1660e01b8152600401612002929190613f63565b602060405180830381865af415801561201f573d6000803e3d6000fd5b505050506040513d601f19601f820116820180604052508101906120439190613c10565b73__MarketLibrary_________________________63174e20e69091600160008e815260200190815260200160002060009054906101000a900473ffffffffffffffffffffffffffffffffffffffff1673ffffffffffffffffffffffffffffffffffffffff1663313ce5676040518163ffffffff1660e01b8152600401602060405180830381865afa1580156120dd573d6000803e3d6000fd5b505050506040513d601f19601f820116820180604052508101906121019190614601565b6040518363ffffffff1660e01b815260040161211e92919061465f565b602060405180830381865af415801561213b573d6000803e3d6000fd5b505050506040513d601f19601f8201168201806040525081019061215f9190613c10565b96506121728a84858c60008d6001610bbb565b8098508196508297505050505050939792965093509350565b6000801b6121a08161219b612a3b565b612a43565b81600660006101000a81548160ff02191690831515021790555060667f1f77a5f1218c5e380f0425a2e88a823d831b5f8906f5ab4db8b1565a36f780d7836121e95760006121ec565b60015b6040516121f99190614697565b60405180910390a25050565b600080600084815260200190815260200160002060000160008373ffffffffffffffffffffffffffffffffffffffff1673ffffffffffffffffffffffffffffffffffffffff16815260200190815260200160002060009054906101000a900460ff16905092915050565b6000801b81565b600660009054906101000a900460ff166122c5576040517f08c379a00000000000000000000000000000000000000000000000000000000081526004016122bc90614018565b60405180910390fd5b83600354111561230a576040517f08c379a0000000000000000000000000000000000000000000000000000000008152600401612301906146fe565b60405180910390fd5b60007f000000000000000000000000000000000000000000000000000000000000000073ffffffffffffffffffffffffffffffffffffffff1663b0667cf86040518163ffffffff1660e01b81526004016040805180830381865afa158015612376573d6000803e3d6000fd5b505050506040513d601f19601f8201168201806040525081019061239a9190613f8c565b50905060008060006123b28a858b8b8b8b6001610bbb565b925092509250818510156123fb576040517f08c379a00000000000000000000000000000000000000000000000000000000081526004016123f29061476a565b60405180910390fd5b60007f000000000000000000000000000000000000000000000000000000000000000073ffffffffffffffffffffffffffffffffffffffff1663b5310ff98c8c8c8c8c8a8a8d8b336040518b63ffffffff1660e01b81526004016124689a999897969594939291906142c1565b6020604051808303816000875af1158015612487573d6000803e3d6000fd5b505050506040513d601f19601f820116820180604052508101906124ab9190613c10565b90507f000000000000000000000000000000000000000000000000000000000000000073ffffffffffffffffffffffffffffffffffffffff166323b872dd337f0000000000000000000000000000000000000000000000000000000000000000896040518463ffffffff1660e01b815260040161252a939291906140a4565b6020604051808303816000875af1158015612549573d6000803e3d6000fd5b505050506040513d601f19601f8201168201806040525081019061256d91906140f0565b6125ac576040517f08c379a00000000000000000000000000000000000000000000000000000000081526004016125a3906147d6565b60405180910390fd5b7f000000000000000000000000000000000000000000000000000000000000000073ffffffffffffffffffffffffffffffffffffffff166324b4110e82336040518363ffffffff1660e01b815260040161260792919061435d565b600060405180830381600087803b15801561262157600080fd5b505af1158015612635573d6000803e3d6000fd5b505050503373ffffffffffffffffffffffffffffffffffffffff167f867ac367830e7b4278cdecab9f5c67d60a41a72739cc35d3be4ff50458af94cb8288600060405161268493929190614386565b60405180910390a25050505050505050505050565b60045481565b60055481565b60007f0000000000000000000000000000000000000000000000000000000000000000905090565b6126d682610add565b6126e7816126e2612a3b565b612a43565b6126f18383612bc0565b505050565b600660009054906101000a900460ff16612745576040517f08c379a000000000000000000000000000000000000000000000000000000000815260040161273c90614018565b60405180910390fd5b60008061275485856001611e71565b505092505091508183101561279e576040517f08c379a000000000000000000000000000000000000000000000000000000000815260040161279590614084565b60405180910390fd5b6001600086815260200190815260200160002060009054906101000a900473ffffffffffffffffffffffffffffffffffffffff1673ffffffffffffffffffffffffffffffffffffffff16639dc29fac33846040518363ffffffff1660e01b815260040161280c929190614189565b600060405180830381600087803b15801561282657600080fd5b505af115801561283a573d6000803e3d6000fd5b505050507f000000000000000000000000000000000000000000000000000000000000000073ffffffffffffffffffffffffffffffffffffffff1663a9059cbb33836040518363ffffffff1660e01b8152600401612899929190614189565b6020604051808303816000875af11580156128b8573d6000803e3d6000fd5b505050506040513d601f19601f820116820180604052508101906128dc91906140f0565b61291b576040517f08c379a000000000000000000000000000000000000000000000000000000000815260040161291290614283565b60405180910390fd5b5050505050565b7fa49807205ce4d355092ef5a8a18f56e8913cf4a201fbe287825b095693c217756129548161294f612a3b565b612a43565b8160028190555060657f1f77a5f1218c5e380f0425a2e88a823d831b5f8906f5ab4db8b1565a36f780d78360405161298c9190613624565b60405180910390a25050565b60035481565b60016020528060005260406000206000915054906101000a900473ffffffffffffffffffffffffffffffffffffffff1681565b60007f01ffc9a7000000000000000000000000000000000000000000000000000000007bffffffffffffffffffffffffffffffffffffffffffffffffffffffff1916827bffffffffffffffffffffffffffffffffffffffffffffffffffffffff1916149050919050565b600033905090565b612a4d8282612205565b612adc57612a728173ffffffffffffffffffffffffffffffffffffffff166014613218565b612a808360001c6020613218565b604051602001612a91929190614908565b6040516020818303038152906040526040517f08c379a0000000000000000000000000000000000000000000000000000000008152600401612ad3919061498c565b60405180910390fd5b5050565b612aea8282612205565b612bbc57600160008084815260200190815260200160002060000160008373ffffffffffffffffffffffffffffffffffffffff1673ffffffffffffffffffffffffffffffffffffffff16815260200190815260200160002060006101000a81548160ff021916908315150217905550612b61612a3b565b73ffffffffffffffffffffffffffffffffffffffff168173ffffffffffffffffffffffffffffffffffffffff16837f2f8788117e7eff1d82e926ec794901d17c78024a50270940304540a733656f0d60405160405180910390a45b5050565b612bca8282612205565b15612c9d57600080600084815260200190815260200160002060000160008373ffffffffffffffffffffffffffffffffffffffff1673ffffffffffffffffffffffffffffffffffffffff16815260200190815260200160002060006101000a81548160ff021916908315150217905550612c42612a3b565b73ffffffffffffffffffffffffffffffffffffffff168173ffffffffffffffffffffffffffffffffffffffff16837ff6391f5c32d9c69d2a47ea670b442974b53935d1edc7fd64eb21e047a839171b60405160405180910390a45b5050565b60008073__OptionLibrary_________________________639932b2be8889896040518463ffffffff1660e01b8152600401612cdf93929190613d9d565b602060405180830381865af4158015612cfc573d6000803e3d6000fd5b505050506040513d601f19601f82011682018060405250810190612d209190613c10565b73__FullMath______________________________63b3947c1790917f000000000000000000000000000000000000000000000000000000000000000073ffffffffffffffffffffffffffffffffffffffff1663634479026000806040518363ffffffff1660e01b8152600401612d989291906143bd565b602060405180830381865afa158015612db5573d6000803e3d6000fd5b505050506040513d601f19601f82011682018060405250810190612dd99190613c10565b8a6040518463ffffffff1660e01b8152600401612df893929190613d9d565b602060405180830381865af4158015612e15573d6000803e3d6000fd5b505050506040513d601f19601f82011682018060405250810190612e399190613c10565b905060007f000000000000000000000000000000000000000000000000000000000000000073ffffffffffffffffffffffffffffffffffffffff16636fe440316040518163ffffffff1660e01b8152600401602060405180830381865afa158015612ea8573d6000803e3d6000fd5b505050506040513d601f19601f82011682018060405250810190612ecc91906149da565b90506000600180811115612ee357612ee2613dd4565b5b856001811115612ef657612ef5613dd4565b5b14612f02576001612f24565b7fffffffffffffffffffffffffffffffffffffffffffffffffffffffffffffffff5b61302373__OptionLibrary_________________________639932b2be8c8b8d6040518463ffffffff1660e01b8152600401612f6293929190613d9d565b602060405180830381865af4158015612f7f573d6000803e3d6000fd5b505050506040513d601f19601f82011682018060405250810190612fa39190613c10565b73__FullMath______________________________63fed4a0f390918a6040518363ffffffff1660e01b8152600401612fdd929190613f63565b602060405180830381865af4158015612ffa573d6000803e3d6000fd5b505050506040513d601f19601f8201168201806040525081019061301e9190613c10565b61315e565b61302d9190614a07565b82613038919061445c565b9050600273__OptionLibrary_________________________63fcc14dfd85848c6002546040518563ffffffff1660e01b815260040161307b9493929190614b2d565b602060405180830381865af4158015613098573d6000803e3d6000fd5b505050506040513d601f19601f820116820180604052508101906130bc91906149da565b73__OptionLibrary_________________________63fcc14dfd86868d6002546040518563ffffffff1660e01b81526004016130fb9493929190614b2d565b602060405180830381865af4158015613118573d6000803e3d6000fd5b505050506040513d601f19601f8201168201806040525081019061313c91906149da565b613146919061445c565b6131509190614ba1565b935050505095945050505050565b60007f7fffffffffffffffffffffffffffffffffffffffffffffffffffffffffffffff8211156131c3576040517f08c379a00000000000000000000000000000000000000000000000000000000081526004016131ba90614c7d565b60405180910390fd5b819050919050565b600080821215613210576040517f08c379a000000000000000000000000000000000000000000000000000000000815260040161320790614ce9565b60405180910390fd5b819050919050565b60606000600283600261322b9190614d09565b61323591906141e1565b67ffffffffffffffff81111561324e5761324d614d63565b5b6040519080825280601f01601f1916602001820160405280156132805781602001600182028036833780820191505090505b5090507f3000000000000000000000000000000000000000000000000000000000000000816000815181106132b8576132b7614d92565b5b60200101907effffffffffffffffffffffffffffffffffffffffffffffffffffffffffffff1916908160001a9053507f78000000000000000000000000000000000000000000000000000000000000008160018151811061331c5761331b614d92565b5b60200101907effffffffffffffffffffffffffffffffffffffffffffffffffffffffffffff1916908160001a9053506000600184600261335c9190614d09565b61336691906141e1565b90505b6001811115613406577f3031323334353637383961626364656600000000000000000000000000000000600f8616601081106133a8576133a7614d92565b5b1a60f81b8282815181106133bf576133be614d92565b5b60200101907effffffffffffffffffffffffffffffffffffffffffffffffffffffffffffff1916908160001a905350600485901c9450806133ff90614dc1565b9050613369565b506000841461344a576040517f08c379a000000000000000000000000000000000000000000000000000000000815260040161344190614e37565b60405180910390fd5b8091505092915050565b600080fd5b60007fffffffff0000000000000000000000000000000000000000000000000000000082169050919050565b61348e81613459565b811461349957600080fd5b50565b6000813590506134ab81613485565b92915050565b6000602082840312156134c7576134c6613454565b5b60006134d58482850161349c565b91505092915050565b60008115159050919050565b6134f3816134de565b82525050565b600060208201905061350e60008301846134ea565b92915050565b6000819050919050565b61352781613514565b811461353257600080fd5b50565b6000813590506135448161351e565b92915050565b600073ffffffffffffffffffffffffffffffffffffffff82169050919050565b60006135758261354a565b9050919050565b6135858161356a565b811461359057600080fd5b50565b6000813590506135a28161357c565b92915050565b600080604083850312156135bf576135be613454565b5b60006135cd85828601613535565b92505060206135de85828601613593565b9150509250929050565b6000602082840312156135fe576135fd613454565b5b600061360c84828501613535565b91505092915050565b61361e81613514565b82525050565b60006020820190506136396000830184613615565b92915050565b6000819050919050565b6136528161363f565b811461365d57600080fd5b50565b60008135905061366f81613649565b92915050565b60006020828403121561368b5761368a613454565b5b600061369984828501613660565b91505092915050565b6136ab8161363f565b82525050565b60006020820190506136c660008301846136a2565b92915050565b600080604083850312156136e3576136e2613454565b5b60006136f185828601613660565b925050602061370285828601613593565b9150509250929050565b6002811061371957600080fd5b50565b60008135905061372b8161370c565b92915050565b6002811061373e57600080fd5b50565b60008135905061375081613731565b92915050565b61375f816134de565b811461376a57600080fd5b50565b60008135905061377c81613756565b92915050565b600080600080600080600060e0888a0312156137a1576137a0613454565b5b60006137af8a828b01613535565b97505060206137c08a828b01613535565b96505060406137d18a828b01613535565b95505060606137e28a828b01613535565b94505060806137f38a828b0161371c565b93505060a06138048a828b01613741565b92505060c06138158a828b0161376d565b91505092959891949750929550565b60006060820190506138396000830186613615565b6138466020830185613615565b6138536040830184613615565b949350505050565b6138648161356a565b82525050565b600060208201905061387f600083018461385b565b92915050565b60008060006060848603121561389e5761389d613454565b5b60006138ac86828701613535565b93505060206138bd86828701613535565b92505060406138ce86828701613535565b9150509250925092565b600080600080608085870312156138f2576138f1613454565b5b600061390087828801613535565b945050602061391187828801613535565b93505060406139228782880161371c565b925050606061393387828801613535565b91505092959194509250565b600080600080600060a0868803121561395b5761395a613454565b5b600061396988828901613535565b955050602061397a88828901613535565b945050604061398b88828901613535565b935050606061399c8882890161371c565b92505060806139ad88828901613741565b9150509295509295909350565b600080600080608085870312156139d4576139d3613454565b5b60006139e287828801613535565b94505060206139f387828801613535565b9350506040613a0487828801613535565b9250506060613a1587828801613741565b91505092959194509250565b600080600060608486031215613a3a57613a39613454565b5b6000613a4886828701613535565b9350506020613a5986828701613535565b9250506040613a6a86828701613741565b9150509250925092565b600060a082019050613a896000830188613615565b613a966020830187613615565b613aa36040830186613615565b613ab06060830185613615565b613abd6080830184613615565b9695505050505050565b600060208284031215613add57613adc613454565b5b6000613aeb8482850161376d565b91505092915050565b60008060008060008060c08789031215613b1157613b10613454565b5b6000613b1f89828a01613535565b9650506020613b3089828a01613535565b9550506040613b4189828a01613535565b9450506060613b5289828a0161371c565b9350506080613b6389828a01613741565b92505060a0613b7489828a01613535565b9150509295509295509295565b6000819050919050565b6000613ba6613ba1613b9c8461354a565b613b81565b61354a565b9050919050565b6000613bb882613b8b565b9050919050565b6000613bca82613bad565b9050919050565b613bda81613bbf565b82525050565b6000602082019050613bf56000830184613bd1565b92915050565b600081519050613c0a8161351e565b92915050565b600060208284031215613c2657613c25613454565b5b6000613c3484828501613bfb565b91505092915050565b600081519050613c4c81613649565b92915050565b600060208284031215613c6857613c67613454565b5b6000613c7684828501613c3d565b91505092915050565b600082825260208201905092915050565b7f6d69736d61746368656420746f6b656e20616464726573730000000000000000600082015250565b6000613cc6601883613c7f565b9150613cd182613c90565b602082019050919050565b60006020820190508181036000830152613cf581613cb9565b9050919050565b7f416363657373436f6e74726f6c3a2063616e206f6e6c792072656e6f756e636560008201527f20726f6c657320666f722073656c660000000000000000000000000000000000602082015250565b6000613d58602f83613c7f565b9150613d6382613cfc565b604082019050919050565b60006020820190508181036000830152613d8781613d4b565b9050919050565b613d9781613514565b82525050565b6000606082019050613db26000830186613d8e565b613dbf6020830185613d8e565b613dcc6040830184613d8e565b949350505050565b7f4e487b7100000000000000000000000000000000000000000000000000000000600052602160045260246000fd5b60028110613e1457613e13613dd4565b5b50565b6000819050613e2582613e03565b919050565b6000613e3582613e17565b9050919050565b613e4581613e2a565b82525050565b600060e082019050613e60600083018a613d8e565b613e6d6020830189613d8e565b613e7a6040830188613d8e565b613e876060830187613e3c565b613e946080830186613d8e565b613ea160a0830185613d8e565b613eae60c0830184613d8e565b98975050505050505050565b60028110613ecb57613eca613dd4565b5b50565b6000819050613edc82613eba565b919050565b6000613eec82613ece565b9050919050565b613efc81613ee1565b82525050565b600060c082019050613f176000830189613d8e565b613f246020830188613d8e565b613f316040830187613d8e565b613f3e6060830186613e3c565b613f4b6080830185613ef3565b613f5860a0830184613d8e565b979650505050505050565b6000604082019050613f786000830185613d8e565b613f856020830184613d8e565b9392505050565b60008060408385031215613fa357613fa2613454565b5b6000613fb185828601613bfb565b9250506020613fc285828601613bfb565b9150509250929050565b7f54726164696e672073746f707065642100000000000000000000000000000000600082015250565b6000614002601083613c7f565b915061400d82613fcc565b602082019050919050565b6000602082019050818103600083015261403181613ff5565b9050919050565b7f436f737420696e636f7272656374000000000000000000000000000000000000600082015250565b600061406e600e83613c7f565b915061407982614038565b602082019050919050565b6000602082019050818103600083015261409d81614061565b9050919050565b60006060820190506140b9600083018661385b565b6140c6602083018561385b565b6140d36040830184613615565b949350505050565b6000815190506140ea81613756565b92915050565b60006020828403121561410657614105613454565b5b6000614114848285016140db565b91505092915050565b7f766f6c207061796d656e74206572726f72000000000000000000000000000000600082015250565b6000614153601183613c7f565b915061415e8261411d565b602082019050919050565b6000602082019050818103600083015261418281614146565b9050919050565b600060408201905061419e600083018561385b565b6141ab6020830184613615565b9392505050565b7f4e487b7100000000000000000000000000000000000000000000000000000000600052601160045260246000fd5b60006141ec82613514565b91506141f783613514565b9250827fffffffffffffffffffffffffffffffffffffffffffffffffffffffffffffffff0382111561422c5761422b6141b2565b5b828201905092915050565b7f7061796d656e74206572726f7200000000000000000000000000000000000000600082015250565b600061426d600d83613c7f565b915061427882614237565b602082019050919050565b6000602082019050818103600083015261429c81614260565b9050919050565b6142ac81613e2a565b82525050565b6142bb81613ee1565b82525050565b6000610140820190506142d7600083018d613615565b6142e4602083018c613615565b6142f1604083018b613615565b6142fe606083018a6142a3565b61430b60808301896142b2565b61431860a0830188613615565b61432560c0830187613615565b61433260e0830186613615565b614340610100830185613615565b61434e61012083018461385b565b9b9a5050505050505050505050565b60006040820190506143726000830185613615565b61437f602083018461385b565b9392505050565b600060608201905061439b6000830186613615565b6143a86020830185613615565b6143b560408301846134ea565b949350505050565b60006040820190506143d260008301856134ea565b6143df60208301846134ea565b9392505050565b7f696e73756666696369656e74206361706974616c000000000000000000000000600082015250565b600061441c601483613c7f565b9150614427826143e6565b602082019050919050565b6000602082019050818103600083015261444b8161440f565b9050919050565b6000819050919050565b600061446782614452565b915061447283614452565b9250817f7fffffffffffffffffffffffffffffffffffffffffffffffffffffffffffffff038313600083121516156144ad576144ac6141b2565b5b817f80000000000000000000000000000000000000000000000000000000000000000383126000831216156144e5576144e46141b2565b5b828201905092915050565b7f496e636f727265637420766f6c207072656d69756d0000000000000000000000600082015250565b6000614526601583613c7f565b9150614531826144f0565b602082019050919050565b6000602082019050818103600083015261455581614519565b9050919050565b7f54656e6f72206973206e6f742073657400000000000000000000000000000000600082015250565b6000614592601083613c7f565b915061459d8261455c565b602082019050919050565b600060208201905081810360008301526145c181614585565b9050919050565b600060ff82169050919050565b6145de816145c8565b81146145e957600080fd5b50565b6000815190506145fb816145d5565b92915050565b60006020828403121561461757614616613454565b5b6000614625848285016145ec565b91505092915050565b600061464961464461463f846145c8565b613b81565b613514565b9050919050565b6146598161462e565b82525050565b60006040820190506146746000830185613d8e565b6146816020830184614650565b9392505050565b6146918161462e565b82525050565b60006020820190506146ac6000830184614688565b92915050565b7f547261646520616d6f756e742062656c6f77206d696e696d756d2e0000000000600082015250565b60006146e8601b83613c7f565b91506146f3826146b2565b602082019050919050565b60006020820190508181036000830152614717816146db565b9050919050565b7f496e636f727265637420636f737420706169642e000000000000000000000000600082015250565b6000614754601483613c7f565b915061475f8261471e565b602082019050919050565b6000602082019050818103600083015261478381614747565b9050919050565b7f4661696c6564207061796d656e742e0000000000000000000000000000000000600082015250565b60006147c0600f83613c7f565b91506147cb8261478a565b602082019050919050565b600060208201905081810360008301526147ef816147b3565b9050919050565b600081905092915050565b7f416363657373436f6e74726f6c3a206163636f756e7420000000000000000000600082015250565b60006148376017836147f6565b915061484282614801565b601782019050919050565b600081519050919050565b60005b8381101561487657808201518184015260208101905061485b565b83811115614885576000848401525b50505050565b60006148968261484d565b6148a081856147f6565b93506148b0818560208601614858565b80840191505092915050565b7f206973206d697373696e6720726f6c6520000000000000000000000000000000600082015250565b60006148f26011836147f6565b91506148fd826148bc565b601182019050919050565b60006149138261482a565b915061491f828561488b565b915061492a826148e5565b9150614936828461488b565b91508190509392505050565b6000601f19601f8301169050919050565b600061495e8261484d565b6149688185613c7f565b9350614978818560208601614858565b61498181614942565b840191505092915050565b600060208201905081810360008301526149a68184614953565b905092915050565b6149b781614452565b81146149c257600080fd5b50565b6000815190506149d4816149ae565b92915050565b6000602082840312156149f0576149ef613454565b5b60006149fe848285016149c5565b91505092915050565b6000614a1282614452565b9150614a1d83614452565b9250827f7fffffffffffffffffffffffffffffffffffffffffffffffffffffffffffffff0482116000841360008413161615614a5c57614a5b6141b2565b5b817f80000000000000000000000000000000000000000000000000000000000000000583126000841260008413161615614a9957614a986141b2565b5b827f80000000000000000000000000000000000000000000000000000000000000000582126000841360008412161615614ad657614ad56141b2565b5b827f7fffffffffffffffffffffffffffffffffffffffffffffffffffffffffffffff0582126000841260008412161615614b1357614b126141b2565b5b828202905092915050565b614b2781614452565b82525050565b6000608082019050614b426000830187613d8e565b614b4f6020830186614b1e565b614b5c6040830185613d8e565b614b696060830184613d8e565b95945050505050565b7f4e487b7100000000000000000000000000000000000000000000000000000000600052601260045260246000fd5b6000614bac82614452565b9150614bb783614452565b925082614bc757614bc6614b72565b5b600160000383147f800000000000000000000000000000000000000000000000000000000000000083141615614c0057614bff6141b2565b5b828205905092915050565b7f53616665436173743a2076616c756520646f65736e27742066697420696e206160008201527f6e20696e74323536000000000000000000000000000000000000000000000000602082015250565b6000614c67602883613c7f565b9150614c7282614c0b565b604082019050919050565b60006020820190508181036000830152614c9681614c5a565b9050919050565b7f53616665436173743a2076616c7565206d75737420626520706f736974697665600082015250565b6000614cd3602083613c7f565b9150614cde82614c9d565b602082019050919050565b60006020820190508181036000830152614d0281614cc6565b9050919050565b6000614d1482613514565b9150614d1f83613514565b9250817fffffffffffffffffffffffffffffffffffffffffffffffffffffffffffffffff0483118215151615614d5857614d576141b2565b5b828202905092915050565b7f4e487b7100000000000000000000000000000000000000000000000000000000600052604160045260246000fd5b7f4e487b7100000000000000000000000000000000000000000000000000000000600052603260045260246000fd5b6000614dcc82613514565b91506000821415614de057614ddf6141b2565b5b600182039050919050565b7f537472696e67733a20686578206c656e67746820696e73756666696369656e74600082015250565b6000614e21602083613c7f565b9150614e2c82614deb565b602082019050919050565b60006020820190508181036000830152614e5081614e14565b905091905056fea2646970667358221220c32555419a0d44338f78c8133918afdc9f77cb8724b6c1a6e2fba25633bed0e864736f6c634300080b0033",
  "immutableReferences": {
    "2553": [
      {
        "length": 32,
        "start": 4782
      },
      {
        "length": 32,
        "start": 6265
      },
      {
        "length": 32,
        "start": 7330
      },
      {
        "length": 32,
        "start": 9452
      },
      {
        "length": 32,
        "start": 9897
      },
      {
        "length": 32,
        "start": 11582
      }
    ],
    "2556": [
      {
        "length": 32,
        "start": 1897
      },
      {
        "length": 32,
        "start": 3767
      },
      {
        "length": 32,
        "start": 3933
      },
      {
        "length": 32,
        "start": 5201
      },
      {
        "length": 32,
        "start": 5538
      },
      {
        "length": 32,
        "start": 5781
      },
      {
        "length": 32,
        "start": 5962
      },
      {
        "length": 32,
        "start": 6120
      },
      {
        "length": 32,
        "start": 7093
      },
      {
        "length": 32,
        "start": 7523
      },
      {
        "length": 32,
        "start": 7965
      },
      {
        "length": 32,
        "start": 8974
      },
      {
        "length": 32,
        "start": 9215
      },
      {
        "length": 32,
        "start": 9646
      },
      {
        "length": 32,
        "start": 11839
      }
    ],
    "2558": [
      {
        "length": 32,
        "start": 3463
      },
      {
        "length": 32,
        "start": 3621
      }
    ],
    "2563": [
      {
        "length": 32,
        "start": 4139
      },
      {
        "length": 32,
        "start": 4721
      },
      {
        "length": 32,
        "start": 4976
      },
      {
        "length": 32,
        "start": 7270
      },
      {
        "length": 32,
        "start": 9391
      },
      {
        "length": 32,
        "start": 10304
      }
    ]
  },
  "source": "// SPDX-License-Identifier: MIT\npragma solidity ^0.8.0;\n\nimport \"@openzeppelin/contracts/token/ERC20/ERC20.sol\";\nimport \"@openzeppelin/contracts/access/AccessControl.sol\";\nimport \"@openzeppelin/contracts/utils/structs/EnumerableSet.sol\";\nimport \"./VolatilityToken.sol\";\nimport \"./MoretMarketMaker.sol\";\nimport \"./interfaces/EOption.sol\";\n\ncontract Exchange is AccessControl, EOption{\n  using FullMath for uint256;\n  using MarketLibrary for uint256;\n\n  bytes32 public constant ADMIN_ROLE = keccak256(\"ADMIN_ROLE\");\n  mapping(uint256=>VolatilityToken) public volTokenAddressList;\n\n  MoretMarketMaker internal immutable marketMaker;\n  OptionVault internal immutable optionVault;\n  uint256 internal immutable fundingDecimals;\n  uint256 internal immutable underlyingDecimals;\n  ERC20 internal immutable fundingToken;\n\n  uint256 internal constant SECONDS_1Y = 31536000; // 365 * 24 * 60 * 60\n\n  uint256 public volCapacityFactor = 0.5e18;\n  uint256 public minTradeAmount = 1e14;\n  uint256 public loanInterest = 0; // Annualised interest rate in 1e18\n  uint256 public hedgingSlippage = 3e15; // 0.3% for hedging slippage (similar to DEX tx fees)\n  bool public allowTrading = true;\n\n  constructor(MoretMarketMaker _marketMaker, OptionVault _vault){\n    _setupRole(DEFAULT_ADMIN_ROLE, msg.sender);\n    _setupRole(ADMIN_ROLE, msg.sender);\n    optionVault = _vault;\n    marketMaker = _marketMaker;\n    fundingToken = ERC20(_vault.funding());\n    fundingDecimals = ERC20(_vault.funding()).decimals();\n    underlyingDecimals = ERC20(_vault.underlying()).decimals();}\n\n  // Returns premium, costs (if sell option, cost includes collateral) and implied volatility\n  function calcCost(uint256 _tenor, uint256 _strike, uint256 _amount, OptionLibrary.PayoffType _poType, OptionLibrary.OptionSide _side) public view returns(uint256 , uint256 , uint256 ){\n    (uint256 _price,) = optionVault.queryPrice();\n    return calcOptionCost(_tenor, _price, _strike, _amount, _poType, _side, true);}\n\n  function calcOptionCost(uint256 _tenor, uint256 _price, uint256 _strike, uint256 _amount, OptionLibrary.PayoffType _poType, OptionLibrary.OptionSide _side, bool _inDecimals) public view returns(uint256 _premium, uint256 _cost, uint256 _vol){\n    _vol = queryOptionVolatility(_tenor, _strike, _amount, _side);\n    uint256 _interest = loanInterest.muldiv(_tenor, SECONDS_1Y);\n    _premium = OptionLibrary.calcPremium(_price, _vol, _strike, _poType, _amount, _interest, hedgingSlippage);\n    _cost = OptionLibrary.calcCost(_price, _strike, _amount, _poType, _side, _premium);\n    if(_inDecimals){\n      _premium = _premium.toDecimals(fundingDecimals);\n    _cost = _cost.toDecimals(fundingDecimals);}}\n\n  function queryOptionVolatility(uint256 _tenor, uint256 _strike, uint256 _amount, OptionLibrary.OptionSide _side) public view returns(uint256 _vol){  \n    _vol = optionVault.queryVol(_tenor); // running vol\n    (uint256 _price,) = optionVault.queryPrice();\n    require(_amount.ethmul(_price)<=marketMaker.calcCapital(true,false),'insufficient capital');\n    int256 _riskPremium = calcRiskPremium(_price, _vol, _strike, _amount, _side);\n    require((SafeCast.toInt256(_vol)+_riskPremium) > 0,\"Incorrect vol premium\");\n    _vol = SafeCast.toUint256(SafeCast.toInt256(_vol)+_riskPremium);}\n\n  function calcRiskPremium(uint256 _price, uint256 _vol, uint256 _strike, uint256 _amount, OptionLibrary.OptionSide _side) internal view returns(int256) {\n    uint256 _maxGamma = OptionLibrary.calcGamma(_price, _price, _vol).muldiv(marketMaker.calcCapital(false, false), _price);\n    int256 _currentGamma = optionVault.calculateAggregateGamma(); // include sells.\n    int256 _newGamma = _currentGamma + SafeCast.toInt256(OptionLibrary.calcGamma(_price, _strike, _vol).ethmul(_amount)) * (_side==OptionLibrary.OptionSide.Sell? -1: int(1));\n    return (OptionLibrary.calcRiskPremiumAMM(_maxGamma, _currentGamma,  _vol, volCapacityFactor) + OptionLibrary.calcRiskPremiumAMM(_maxGamma, _newGamma, _vol, volCapacityFactor)) / 2;}\n\n  function purchaseOption(uint256 _tenor, uint256 _strike, uint256 _amount, OptionLibrary.PayoffType _poType, OptionLibrary.OptionSide _side, uint256 _payInCost) external {\n    require(allowTrading,\"Trading stopped!\");\n    require(minTradeAmount<= _amount, \"Trade amount below minimum.\");\n    (uint256 _price, ) = optionVault.queryPrice();\n    (uint256 _premium, uint256 _cost, uint256 _vol) = calcOptionCost(_tenor, _price, _strike, _amount, _poType, _side, true);      \n    require(_payInCost >= _cost, \"Incorrect cost paid.\");\n    uint256 _id = optionVault.addOption(_tenor, _strike, _amount, _poType, _side, _premium, _cost, _price, _vol, msg.sender);\n    require(fundingToken.transferFrom(msg.sender, address(marketMaker), _payInCost), 'Failed payment.');  \n    optionVault.stampActiveOption(_id, msg.sender);\n    emit NewOption(msg.sender, _id, _payInCost, false);}\n\n  function getOptionPayoffValue(uint256 _id) external view returns(uint256 _payback){\n    (,_payback) = optionVault.getContractPayoff(_id);}\n\n  function calcVolAmount(uint256 _tenor, uint256 _amount, OptionLibrary.OptionSide _side) public view returns(uint256 _volAmount, uint256 _vol, uint256 _premium, uint256 _cost, uint256 _price){\n    require(address(volTokenAddressList[_tenor])!=address(0), \"Tenor is not set\");\n    (_price, ) = optionVault.queryPrice();\n    (uint256 _premiumDef, , uint256 _volTemp) = calcOptionCost(_tenor, _price, _price, _amount, OptionLibrary.PayoffType.Call, _side, false); \n    _volAmount = _premiumDef.ethdiv(_volTemp).toDecimals(volTokenAddressList[_tenor].decimals());\n    (_premium, _cost, _vol) = calcOptionCost(_tenor, _price, _price, _amount, OptionLibrary.PayoffType.Call, _side, true);}\n\n  function buyVol(uint256 _tenor, uint256 _amount, uint256 _payInCost) external {\n    require(allowTrading,\"Trading stopped!\");\n    (uint256 _volAmount, , uint256 _premium, , ) = calcVolAmount(_tenor, _amount, OptionLibrary.OptionSide.Buy);\n    require(_payInCost >= _premium, \"Cost incorrect\");\n    require(fundingToken.transferFrom(msg.sender, address(this), _premium), \"vol payment error\");\n    volTokenAddressList[_tenor].mint(msg.sender, _volAmount);}\n  \n  function sellVol(uint256 _tenor, uint256 _amount, uint256 _payInVol) external {\n    require(allowTrading,\"Trading stopped!\");\n    (uint256 _volAmount,  ,  uint256 _premium,  ,  ) = calcVolAmount(_tenor, _amount, OptionLibrary.OptionSide.Sell);\n    require(_payInVol >= _volAmount, \"Cost incorrect\");\n\n    volTokenAddressList[_tenor].burn(msg.sender, _volAmount);\n    require(fundingToken.transfer(msg.sender, _premium), \"payment error\");}  \n\n  function buyOptionInVol(uint256 _tenor, uint256 _amount, OptionLibrary.PayoffType _poType, uint256 _payInVol) external {\n    require(allowTrading,\"Trading stopped!\");\n    (uint256 _volAmount, uint256 _vol, uint256 _premium, uint256 _cost, uint256 _price) = calcVolAmount(_tenor, _amount, OptionLibrary.OptionSide.Buy);\n    require(_payInVol >= _volAmount, \"Cost incorrect\");\n\n    volTokenAddressList[_tenor].burn(msg.sender, _volAmount);\n    uint256 _id = optionVault.addOption(_tenor, _price, _amount, _poType, OptionLibrary.OptionSide.Buy, _premium, _cost, _price, _vol, msg.sender);\n    require(fundingToken.transfer(address(marketMaker), _premium), 'payment error');  \n    optionVault.stampActiveOption(_id, msg.sender);\n    emit NewOption(msg.sender, _id, _volAmount, true);}\n\n  function sellOptionInVol(uint256 _tenor, uint256 _amount, OptionLibrary.PayoffType _poType, uint256 _payInCost) external {\n    require(allowTrading,\"Trading stopped!\");\n    (uint256 _volAmount, uint256 _vol, uint256 _premium, uint256 _cost, uint256 _price) = calcVolAmount(_tenor, _amount, OptionLibrary.OptionSide.Sell);\n    uint256 _totalCost = _premium + _cost;\n    require(_payInCost >= _totalCost, \"Cost incorrect\");\n\n    require(fundingToken.transferFrom(msg.sender, address(marketMaker), _cost), 'payment error'); \n    require(fundingToken.transferFrom(msg.sender, address(this), _premium), 'payment error');  \n    uint256 _id = optionVault.addOption(_tenor, _price, _amount, _poType, OptionLibrary.OptionSide.Sell, _premium, _cost, _price, _vol, msg.sender);\n    volTokenAddressList[_tenor].mint(msg.sender, _volAmount);\n    optionVault.stampActiveOption(_id, msg.sender);\n    emit NewOption(msg.sender, _id, _volAmount, true);}\n\n  function addVolToken(uint256 _tenor, address _tokenAddress) external onlyRole(ADMIN_ROLE){ \n    require(VolatilityToken(_tokenAddress).tenor()==_tenor && VolatilityToken(_tokenAddress).tokenHash()==optionVault.tokenHash(), 'mismatched token address');\n    volTokenAddressList[_tenor] = VolatilityToken(_tokenAddress);\n    emit VolTokenAddition(_tenor, _tokenAddress); }\n\n  function removeVolToken(uint256 _tenor) external onlyRole(ADMIN_ROLE){ \n    volTokenAddressList[_tenor] = VolatilityToken(address(0));\n    emit VolTokenRemoved(_tenor);}\n\n  function vaultAddress() external view returns(address){return address(optionVault);}\n  function marketMakerAddress() external view returns(address) {return address(marketMaker);}\n\n  function resetLoanRate(uint256 _loanInterest) external onlyRole(ADMIN_ROLE){ \n    loanInterest = _loanInterest;\n    emit ResetParameter(100, _loanInterest);}\n\n  function resetVolCapacityFactor(uint256 _newFactor) external onlyRole(ADMIN_ROLE){ \n    volCapacityFactor =_newFactor;\n    emit ResetParameter(101, _newFactor);}\n\n  function resetMinAmount(uint256 _newAmount) external onlyRole(ADMIN_ROLE){\n    minTradeAmount = _newAmount;\n    emit ResetParameter(102, _newAmount);\n  }\n\n  function resetTrading(bool _allowTrading) external onlyRole(DEFAULT_ADMIN_ROLE) {\n    allowTrading=_allowTrading;\n    emit ResetParameter(102, _allowTrading ? 1 : 0);}\n\n}\n",
  "sourcePath": "/Users/mac/Documents/GitHub/moret/contracts/Exchange.sol",
  "compiler": {
    "name": "solc",
    "version": "0.8.11+commit.d7f03943.Emscripten.clang"
  },
  "schemaVersion": "3.4.3",
  "updatedAt": "2022-02-14T23:46:52.328Z",
  "networkType": "ethereum",
  "devdoc": {
    "kind": "dev",
    "methods": {
      "getRoleAdmin(bytes32)": {
        "details": "Returns the admin role that controls `role`. See {grantRole} and {revokeRole}. To change a role's admin, use {_setRoleAdmin}."
      },
      "grantRole(bytes32,address)": {
        "details": "Grants `role` to `account`. If `account` had not been already granted `role`, emits a {RoleGranted} event. Requirements: - the caller must have ``role``'s admin role."
      },
      "hasRole(bytes32,address)": {
        "details": "Returns `true` if `account` has been granted `role`."
      },
      "renounceRole(bytes32,address)": {
        "details": "Revokes `role` from the calling account. Roles are often managed via {grantRole} and {revokeRole}: this function's purpose is to provide a mechanism for accounts to lose their privileges if they are compromised (such as when a trusted device is misplaced). If the calling account had been revoked `role`, emits a {RoleRevoked} event. Requirements: - the caller must be `account`."
      },
      "revokeRole(bytes32,address)": {
        "details": "Revokes `role` from `account`. If `account` had been granted `role`, emits a {RoleRevoked} event. Requirements: - the caller must have ``role``'s admin role."
      },
      "supportsInterface(bytes4)": {
        "details": "See {IERC165-supportsInterface}."
      }
    },
    "version": 1
  },
  "userdoc": {
    "kind": "user",
    "methods": {},
    "version": 1
  }
}