{
  "contractName": "Exchange",
  "abi": [
    {
      "inputs": [
        {
          "internalType": "contract MoretMarketMaker",
          "name": "_marketMaker",
          "type": "address"
        },
        {
          "internalType": "contract OptionVault",
          "name": "_vault",
          "type": "address"
        }
      ],
      "stateMutability": "nonpayable",
      "type": "constructor"
    },
    {
      "anonymous": false,
      "inputs": [
        {
          "indexed": true,
          "internalType": "address",
          "name": "_purchaser",
          "type": "address"
        },
        {
          "components": [
            {
              "internalType": "enum OptionLibrary.PayoffType",
              "name": "poType",
              "type": "uint8"
            },
            {
              "internalType": "enum OptionLibrary.OptionSide",
              "name": "side",
              "type": "uint8"
            },
            {
              "internalType": "enum OptionLibrary.OptionStatus",
              "name": "status",
              "type": "uint8"
            },
            {
              "internalType": "address",
              "name": "holder",
              "type": "address"
            },
            {
              "internalType": "uint256",
              "name": "id",
              "type": "uint256"
            },
            {
              "internalType": "uint256",
              "name": "createTime",
              "type": "uint256"
            },
            {
              "internalType": "uint256",
              "name": "effectiveTime",
              "type": "uint256"
            },
            {
              "internalType": "uint256",
              "name": "tenor",
              "type": "uint256"
            },
            {
              "internalType": "uint256",
              "name": "maturity",
              "type": "uint256"
            },
            {
              "internalType": "uint256",
              "name": "exerciseTime",
              "type": "uint256"
            },
            {
              "internalType": "uint256",
              "name": "amount",
              "type": "uint256"
            },
            {
              "internalType": "uint256",
              "name": "spot",
              "type": "uint256"
            },
            {
              "internalType": "uint256",
              "name": "strike",
              "type": "uint256"
            },
            {
              "internalType": "uint256",
              "name": "volatility",
              "type": "uint256"
            },
            {
              "internalType": "uint256",
              "name": "premium",
              "type": "uint256"
            },
            {
              "internalType": "uint256",
              "name": "cost",
              "type": "uint256"
            }
          ],
          "indexed": false,
          "internalType": "struct OptionLibrary.Option",
          "name": "_option",
          "type": "tuple"
        },
        {
          "indexed": false,
          "internalType": "uint256",
          "name": "_payoff",
          "type": "uint256"
        }
      ],
      "name": "Expire",
      "type": "event"
    },
    {
      "anonymous": false,
      "inputs": [
        {
          "indexed": true,
          "internalType": "address",
          "name": "_purchaser",
          "type": "address"
        },
        {
          "components": [
            {
              "internalType": "enum OptionLibrary.PayoffType",
              "name": "poType",
              "type": "uint8"
            },
            {
              "internalType": "enum OptionLibrary.OptionSide",
              "name": "side",
              "type": "uint8"
            },
            {
              "internalType": "enum OptionLibrary.OptionStatus",
              "name": "status",
              "type": "uint8"
            },
            {
              "internalType": "address",
              "name": "holder",
              "type": "address"
            },
            {
              "internalType": "uint256",
              "name": "id",
              "type": "uint256"
            },
            {
              "internalType": "uint256",
              "name": "createTime",
              "type": "uint256"
            },
            {
              "internalType": "uint256",
              "name": "effectiveTime",
              "type": "uint256"
            },
            {
              "internalType": "uint256",
              "name": "tenor",
              "type": "uint256"
            },
            {
              "internalType": "uint256",
              "name": "maturity",
              "type": "uint256"
            },
            {
              "internalType": "uint256",
              "name": "exerciseTime",
              "type": "uint256"
            },
            {
              "internalType": "uint256",
              "name": "amount",
              "type": "uint256"
            },
            {
              "internalType": "uint256",
              "name": "spot",
              "type": "uint256"
            },
            {
              "internalType": "uint256",
              "name": "strike",
              "type": "uint256"
            },
            {
              "internalType": "uint256",
              "name": "volatility",
              "type": "uint256"
            },
            {
              "internalType": "uint256",
              "name": "premium",
              "type": "uint256"
            },
            {
              "internalType": "uint256",
              "name": "cost",
              "type": "uint256"
            }
          ],
          "indexed": false,
          "internalType": "struct OptionLibrary.Option",
          "name": "_option",
          "type": "tuple"
        },
        {
          "indexed": false,
          "internalType": "uint256",
          "name": "_cost",
          "type": "uint256"
        },
        {
          "indexed": false,
          "internalType": "bool",
          "name": "_inVol",
          "type": "bool"
        }
      ],
      "name": "NewOption",
      "type": "event"
    },
    {
      "anonymous": false,
      "inputs": [
        {
          "indexed": true,
          "internalType": "uint256",
          "name": "_addressId",
          "type": "uint256"
        },
        {
          "indexed": false,
          "internalType": "address",
          "name": "_address",
          "type": "address"
        }
      ],
      "name": "ResetAddress",
      "type": "event"
    },
    {
      "anonymous": false,
      "inputs": [
        {
          "indexed": true,
          "internalType": "uint256",
          "name": "_parameterId",
          "type": "uint256"
        },
        {
          "indexed": false,
          "internalType": "uint256",
          "name": "_parameter",
          "type": "uint256"
        }
      ],
      "name": "ResetParameter",
      "type": "event"
    },
    {
      "anonymous": false,
      "inputs": [
        {
          "indexed": false,
          "internalType": "bool",
          "name": "success",
          "type": "bool"
        },
        {
          "indexed": false,
          "internalType": "bytes",
          "name": "data",
          "type": "bytes"
        }
      ],
      "name": "Response",
      "type": "event"
    },
    {
      "anonymous": false,
      "inputs": [
        {
          "indexed": true,
          "internalType": "bytes32",
          "name": "role",
          "type": "bytes32"
        },
        {
          "indexed": true,
          "internalType": "bytes32",
          "name": "previousAdminRole",
          "type": "bytes32"
        },
        {
          "indexed": true,
          "internalType": "bytes32",
          "name": "newAdminRole",
          "type": "bytes32"
        }
      ],
      "name": "RoleAdminChanged",
      "type": "event"
    },
    {
      "anonymous": false,
      "inputs": [
        {
          "indexed": true,
          "internalType": "bytes32",
          "name": "role",
          "type": "bytes32"
        },
        {
          "indexed": true,
          "internalType": "address",
          "name": "account",
          "type": "address"
        },
        {
          "indexed": true,
          "internalType": "address",
          "name": "sender",
          "type": "address"
        }
      ],
      "name": "RoleGranted",
      "type": "event"
    },
    {
      "anonymous": false,
      "inputs": [
        {
          "indexed": true,
          "internalType": "bytes32",
          "name": "role",
          "type": "bytes32"
        },
        {
          "indexed": true,
          "internalType": "address",
          "name": "account",
          "type": "address"
        },
        {
          "indexed": true,
          "internalType": "address",
          "name": "sender",
          "type": "address"
        }
      ],
      "name": "RoleRevoked",
      "type": "event"
    },
    {
      "anonymous": false,
      "inputs": [
        {
          "indexed": true,
          "internalType": "uint256",
          "name": "_id",
          "type": "uint256"
        },
        {
          "indexed": false,
          "internalType": "uint256",
          "name": "_timestamp",
          "type": "uint256"
        }
      ],
      "name": "StampExpire",
      "type": "event"
    },
    {
      "anonymous": false,
      "inputs": [
        {
          "indexed": true,
          "internalType": "uint256",
          "name": "_id",
          "type": "uint256"
        },
        {
          "indexed": false,
          "internalType": "uint256",
          "name": "_timestamp",
          "type": "uint256"
        }
      ],
      "name": "StampNewOption",
      "type": "event"
    },
    {
      "anonymous": false,
      "inputs": [
        {
          "indexed": true,
          "internalType": "uint256",
          "name": "_tenor",
          "type": "uint256"
        },
        {
          "indexed": false,
          "internalType": "address",
          "name": "_tokenAddress",
          "type": "address"
        }
      ],
      "name": "VolTokenAddition",
      "type": "event"
    },
    {
      "anonymous": false,
      "inputs": [
        {
          "indexed": true,
          "internalType": "uint256",
          "name": "_tenor",
          "type": "uint256"
        }
      ],
      "name": "VolTokenRemoved",
      "type": "event"
    },
    {
      "inputs": [],
      "name": "ADMIN_ROLE",
      "outputs": [
        {
          "internalType": "bytes32",
          "name": "",
          "type": "bytes32"
        }
      ],
      "stateMutability": "view",
      "type": "function"
    },
    {
      "inputs": [],
      "name": "DEFAULT_ADMIN_ROLE",
      "outputs": [
        {
          "internalType": "bytes32",
          "name": "",
          "type": "bytes32"
        }
      ],
      "stateMutability": "view",
      "type": "function"
    },
    {
      "inputs": [],
      "name": "allowTrading",
      "outputs": [
        {
          "internalType": "bool",
          "name": "",
          "type": "bool"
        }
      ],
      "stateMutability": "view",
      "type": "function"
    },
    {
      "inputs": [
        {
          "internalType": "bytes32",
          "name": "role",
          "type": "bytes32"
        }
      ],
      "name": "getRoleAdmin",
      "outputs": [
        {
          "internalType": "bytes32",
          "name": "",
          "type": "bytes32"
        }
      ],
      "stateMutability": "view",
      "type": "function"
    },
    {
      "inputs": [
        {
          "internalType": "bytes32",
          "name": "role",
          "type": "bytes32"
        },
        {
          "internalType": "address",
          "name": "account",
          "type": "address"
        }
      ],
      "name": "grantRole",
      "outputs": [],
      "stateMutability": "nonpayable",
      "type": "function"
    },
    {
      "inputs": [
        {
          "internalType": "bytes32",
          "name": "role",
          "type": "bytes32"
        },
        {
          "internalType": "address",
          "name": "account",
          "type": "address"
        }
      ],
      "name": "hasRole",
      "outputs": [
        {
          "internalType": "bool",
          "name": "",
          "type": "bool"
        }
      ],
      "stateMutability": "view",
      "type": "function"
    },
    {
      "inputs": [],
      "name": "hedgingSlippage",
      "outputs": [
        {
          "internalType": "uint256",
          "name": "",
          "type": "uint256"
        }
      ],
      "stateMutability": "view",
      "type": "function"
    },
    {
      "inputs": [],
      "name": "loanInterest",
      "outputs": [
        {
          "internalType": "uint256",
          "name": "",
          "type": "uint256"
        }
      ],
      "stateMutability": "view",
      "type": "function"
    },
    {
      "inputs": [],
      "name": "minTradeAmount",
      "outputs": [
        {
          "internalType": "uint256",
          "name": "",
          "type": "uint256"
        }
      ],
      "stateMutability": "view",
      "type": "function"
    },
    {
      "inputs": [
        {
          "internalType": "bytes32",
          "name": "role",
          "type": "bytes32"
        },
        {
          "internalType": "address",
          "name": "account",
          "type": "address"
        }
      ],
      "name": "renounceRole",
      "outputs": [],
      "stateMutability": "nonpayable",
      "type": "function"
    },
    {
      "inputs": [
        {
          "internalType": "bytes32",
          "name": "role",
          "type": "bytes32"
        },
        {
          "internalType": "address",
          "name": "account",
          "type": "address"
        }
      ],
      "name": "revokeRole",
      "outputs": [],
      "stateMutability": "nonpayable",
      "type": "function"
    },
    {
      "inputs": [
        {
          "internalType": "bytes4",
          "name": "interfaceId",
          "type": "bytes4"
        }
      ],
      "name": "supportsInterface",
      "outputs": [
        {
          "internalType": "bool",
          "name": "",
          "type": "bool"
        }
      ],
      "stateMutability": "view",
      "type": "function"
    },
    {
      "inputs": [],
      "name": "volCapacityFactor",
      "outputs": [
        {
          "internalType": "uint256",
          "name": "",
          "type": "uint256"
        }
      ],
      "stateMutability": "view",
      "type": "function"
    },
    {
      "inputs": [
        {
          "internalType": "uint256",
          "name": "",
          "type": "uint256"
        }
      ],
      "name": "volTokenAddressList",
      "outputs": [
        {
          "internalType": "contract VolatilityToken",
          "name": "",
          "type": "address"
        }
      ],
      "stateMutability": "view",
      "type": "function"
    },
    {
      "inputs": [
        {
          "internalType": "uint256",
          "name": "_tenor",
          "type": "uint256"
        },
        {
          "internalType": "uint256",
          "name": "_strike",
          "type": "uint256"
        },
        {
          "internalType": "uint256",
          "name": "_amount",
          "type": "uint256"
        },
        {
          "internalType": "enum OptionLibrary.PayoffType",
          "name": "_poType",
          "type": "uint8"
        },
        {
          "internalType": "enum OptionLibrary.OptionSide",
          "name": "_side",
          "type": "uint8"
        }
      ],
      "name": "calcCost",
      "outputs": [
        {
          "internalType": "uint256",
          "name": "",
          "type": "uint256"
        },
        {
          "internalType": "uint256",
          "name": "",
          "type": "uint256"
        },
        {
          "internalType": "uint256",
          "name": "",
          "type": "uint256"
        }
      ],
      "stateMutability": "view",
      "type": "function"
    },
    {
      "inputs": [
        {
          "internalType": "uint256",
          "name": "_tenor",
          "type": "uint256"
        },
        {
          "internalType": "uint256",
          "name": "_price",
          "type": "uint256"
        },
        {
          "internalType": "uint256",
          "name": "_strike",
          "type": "uint256"
        },
        {
          "internalType": "uint256",
          "name": "_amount",
          "type": "uint256"
        },
        {
          "internalType": "enum OptionLibrary.PayoffType",
          "name": "_poType",
          "type": "uint8"
        },
        {
          "internalType": "enum OptionLibrary.OptionSide",
          "name": "_side",
          "type": "uint8"
        }
      ],
      "name": "calcOptionCost",
      "outputs": [
        {
          "internalType": "uint256",
          "name": "_premium",
          "type": "uint256"
        },
        {
          "internalType": "uint256",
          "name": "_cost",
          "type": "uint256"
        },
        {
          "internalType": "uint256",
          "name": "_vol",
          "type": "uint256"
        }
      ],
      "stateMutability": "view",
      "type": "function"
    },
    {
      "inputs": [
        {
          "internalType": "uint256",
          "name": "_tenor",
          "type": "uint256"
        },
        {
          "internalType": "uint256",
          "name": "_strike",
          "type": "uint256"
        },
        {
          "internalType": "uint256",
          "name": "_amount",
          "type": "uint256"
        },
        {
          "internalType": "enum OptionLibrary.OptionSide",
          "name": "_side",
          "type": "uint8"
        }
      ],
      "name": "queryOptionVolatility",
      "outputs": [
        {
          "internalType": "uint256",
          "name": "_vol",
          "type": "uint256"
        }
      ],
      "stateMutability": "view",
      "type": "function"
    },
    {
      "inputs": [
        {
          "internalType": "uint256",
          "name": "_tenor",
          "type": "uint256"
        },
        {
          "internalType": "uint256",
          "name": "_strike",
          "type": "uint256"
        },
        {
          "internalType": "uint256",
          "name": "_amount",
          "type": "uint256"
        },
        {
          "internalType": "enum OptionLibrary.PayoffType",
          "name": "_poType",
          "type": "uint8"
        },
        {
          "internalType": "enum OptionLibrary.OptionSide",
          "name": "_side",
          "type": "uint8"
        },
        {
          "internalType": "uint256",
          "name": "_payInCost",
          "type": "uint256"
        }
      ],
      "name": "purchaseOption",
      "outputs": [],
      "stateMutability": "nonpayable",
      "type": "function"
    },
    {
      "inputs": [
        {
          "internalType": "uint256",
          "name": "_id",
          "type": "uint256"
        }
      ],
      "name": "getOptionPayoffValue",
      "outputs": [
        {
          "internalType": "uint256",
          "name": "_payback",
          "type": "uint256"
        }
      ],
      "stateMutability": "view",
      "type": "function"
    },
    {
      "inputs": [
        {
          "internalType": "uint256",
          "name": "_tenor",
          "type": "uint256"
        },
        {
          "internalType": "uint256",
          "name": "_amount",
          "type": "uint256"
        },
        {
          "internalType": "enum OptionLibrary.OptionSide",
          "name": "_side",
          "type": "uint8"
        }
      ],
      "name": "calcVolAmount",
      "outputs": [
        {
          "internalType": "uint256",
          "name": "_volAmount",
          "type": "uint256"
        },
        {
          "internalType": "uint256",
          "name": "_vol",
          "type": "uint256"
        },
        {
          "internalType": "uint256",
          "name": "_premium",
          "type": "uint256"
        },
        {
          "internalType": "uint256",
          "name": "_cost",
          "type": "uint256"
        },
        {
          "internalType": "uint256",
          "name": "_price",
          "type": "uint256"
        }
      ],
      "stateMutability": "view",
      "type": "function"
    },
    {
      "inputs": [
        {
          "internalType": "uint256",
          "name": "_tenor",
          "type": "uint256"
        },
        {
          "internalType": "uint256",
          "name": "_amount",
          "type": "uint256"
        },
        {
          "internalType": "uint256",
          "name": "_payInCost",
          "type": "uint256"
        }
      ],
      "name": "buyVol",
      "outputs": [],
      "stateMutability": "nonpayable",
      "type": "function"
    },
    {
      "inputs": [
        {
          "internalType": "uint256",
          "name": "_tenor",
          "type": "uint256"
        },
        {
          "internalType": "uint256",
          "name": "_amount",
          "type": "uint256"
        },
        {
          "internalType": "uint256",
          "name": "_payInVol",
          "type": "uint256"
        }
      ],
      "name": "sellVol",
      "outputs": [],
      "stateMutability": "nonpayable",
      "type": "function"
    },
    {
      "inputs": [
        {
          "internalType": "uint256",
          "name": "_tenor",
          "type": "uint256"
        },
        {
          "internalType": "uint256",
          "name": "_amount",
          "type": "uint256"
        },
        {
          "internalType": "enum OptionLibrary.PayoffType",
          "name": "_poType",
          "type": "uint8"
        },
        {
          "internalType": "uint256",
          "name": "_payInVol",
          "type": "uint256"
        }
      ],
      "name": "buyOptionInVol",
      "outputs": [],
      "stateMutability": "nonpayable",
      "type": "function"
    },
    {
      "inputs": [
        {
          "internalType": "uint256",
          "name": "_tenor",
          "type": "uint256"
        },
        {
          "internalType": "uint256",
          "name": "_amount",
          "type": "uint256"
        },
        {
          "internalType": "enum OptionLibrary.PayoffType",
          "name": "_poType",
          "type": "uint8"
        },
        {
          "internalType": "uint256",
          "name": "_payInCost",
          "type": "uint256"
        }
      ],
      "name": "sellOptionInVol",
      "outputs": [],
      "stateMutability": "nonpayable",
      "type": "function"
    },
    {
      "inputs": [
        {
          "internalType": "uint256",
          "name": "_tenor",
          "type": "uint256"
        },
        {
          "internalType": "address",
          "name": "_tokenAddress",
          "type": "address"
        }
      ],
      "name": "addVolToken",
      "outputs": [],
      "stateMutability": "nonpayable",
      "type": "function"
    },
    {
      "inputs": [
        {
          "internalType": "uint256",
          "name": "_tenor",
          "type": "uint256"
        }
      ],
      "name": "removeVolToken",
      "outputs": [],
      "stateMutability": "nonpayable",
      "type": "function"
    },
    {
      "inputs": [],
      "name": "vaultAddress",
      "outputs": [
        {
          "internalType": "address",
          "name": "",
          "type": "address"
        }
      ],
      "stateMutability": "view",
      "type": "function"
    },
    {
      "inputs": [],
      "name": "marketMakerAddress",
      "outputs": [
        {
          "internalType": "address",
          "name": "",
          "type": "address"
        }
      ],
      "stateMutability": "view",
      "type": "function"
    },
    {
      "inputs": [
        {
          "internalType": "uint256",
          "name": "_loanInterest",
          "type": "uint256"
        }
      ],
      "name": "resetLoanRate",
      "outputs": [],
      "stateMutability": "nonpayable",
      "type": "function"
    },
    {
      "inputs": [
        {
          "internalType": "uint256",
          "name": "_newFactor",
          "type": "uint256"
        }
      ],
      "name": "resetVolCapacityFactor",
      "outputs": [],
      "stateMutability": "nonpayable",
      "type": "function"
    },
    {
      "inputs": [
        {
          "internalType": "uint256",
          "name": "_newAmount",
          "type": "uint256"
        }
      ],
      "name": "resetMinAmount",
      "outputs": [],
      "stateMutability": "nonpayable",
      "type": "function"
    },
    {
      "inputs": [
        {
          "internalType": "bool",
          "name": "_allowTrading",
          "type": "bool"
        }
      ],
      "name": "resetTrading",
      "outputs": [],
      "stateMutability": "nonpayable",
      "type": "function"
    }
  ],
  "bytecode": "0x6101206040526706f05b59d3b20000600255670de0b6b3a76400006003556000600455660aa87bee5380006005556001600660006101000a81548160ff0219169083151502179055503480156200005557600080fd5b5060405162005c7738038062005c7783398181016040528101906200007b9190620005ee565b620000906000801b33620003b260201b60201c565b620000c27fa49807205ce4d355092ef5a8a18f56e8913cf4a201fbe287825b095693c2177533620003b260201b60201c565b8073ffffffffffffffffffffffffffffffffffffffff1660a08173ffffffffffffffffffffffffffffffffffffffff16815250508173ffffffffffffffffffffffffffffffffffffffff1660808173ffffffffffffffffffffffffffffffffffffffff16815250508073ffffffffffffffffffffffffffffffffffffffff1663cb4c86b76040518163ffffffff1660e01b8152600401602060405180830381865afa15801562000176573d6000803e3d6000fd5b505050506040513d601f19601f820116820180604052508101906200019c91906200067a565b73ffffffffffffffffffffffffffffffffffffffff166101008173ffffffffffffffffffffffffffffffffffffffff16815250508073ffffffffffffffffffffffffffffffffffffffff1663cb4c86b76040518163ffffffff1660e01b8152600401602060405180830381865afa1580156200021c573d6000803e3d6000fd5b505050506040513d601f19601f820116820180604052508101906200024291906200067a565b73ffffffffffffffffffffffffffffffffffffffff1663313ce5676040518163ffffffff1660e01b8152600401602060405180830381865afa1580156200028d573d6000803e3d6000fd5b505050506040513d601f19601f82011682018060405250810190620002b39190620006ea565b60ff1660c081815250508073ffffffffffffffffffffffffffffffffffffffff16636f307dc36040518163ffffffff1660e01b8152600401602060405180830381865afa15801562000309573d6000803e3d6000fd5b505050506040513d601f19601f820116820180604052508101906200032f91906200067a565b73ffffffffffffffffffffffffffffffffffffffff1663313ce5676040518163ffffffff1660e01b8152600401602060405180830381865afa1580156200037a573d6000803e3d6000fd5b505050506040513d601f19601f82011682018060405250810190620003a09190620006ea565b60ff1660e0818152505050506200071c565b620003c48282620003c860201b60201c565b5050565b620003da8282620004b960201b60201c565b620004b557600160008084815260200190815260200160002060000160008373ffffffffffffffffffffffffffffffffffffffff1673ffffffffffffffffffffffffffffffffffffffff16815260200190815260200160002060006101000a81548160ff0219169083151502179055506200045a6200052360201b60201c565b73ffffffffffffffffffffffffffffffffffffffff168173ffffffffffffffffffffffffffffffffffffffff16837f2f8788117e7eff1d82e926ec794901d17c78024a50270940304540a733656f0d60405160405180910390a45b5050565b600080600084815260200190815260200160002060000160008373ffffffffffffffffffffffffffffffffffffffff1673ffffffffffffffffffffffffffffffffffffffff16815260200190815260200160002060009054906101000a900460ff16905092915050565b600033905090565b600080fd5b600073ffffffffffffffffffffffffffffffffffffffff82169050919050565b60006200055d8262000530565b9050919050565b6000620005718262000550565b9050919050565b620005838162000564565b81146200058f57600080fd5b50565b600081519050620005a38162000578565b92915050565b6000620005b68262000550565b9050919050565b620005c881620005a9565b8114620005d457600080fd5b50565b600081519050620005e881620005bd565b92915050565b600080604083850312156200060857620006076200052b565b5b6000620006188582860162000592565b92505060206200062b85828601620005d7565b9150509250929050565b6000620006428262000550565b9050919050565b620006548162000635565b81146200066057600080fd5b50565b600081519050620006748162000649565b92915050565b6000602082840312156200069357620006926200052b565b5b6000620006a38482850162000663565b91505092915050565b600060ff82169050919050565b620006c481620006ac565b8114620006d057600080fd5b50565b600081519050620006e481620006b9565b92915050565b6000602082840312156200070357620007026200052b565b5b60006200071384828501620006d3565b91505092915050565b60805160a05160c05160e051610100516154556200082260003960008181610d3301528181610f790152818161107801528181611a06015281816122ca01526126f501526000505060008181612a190152612ab701526000818161076901528181610bbf01528181610c6501528181611159015281816112aa0152818161136f01528181611437015281816114ea015281816115880152818161195501528181611b0301528181611bc801528181611d570152818161212b0152818161221a015281816123c90152818161248e0152612fe4015260008181610fb60152818161161901528181611a42015281816123070152818161255e0152612ee301526154556000f3fe608060405234801561001057600080fd5b50600436106101f05760003560e01c80637188157e1161010f578063ba2d76cb116100a2578063dbfed78311610071578063dbfed783146105a7578063dda9046f146105c3578063e327c248146105e1578063edf0bec614610613576101f0565b8063ba2d76cb14610533578063cc91058814610551578063d547741f1461056f578063dab243291461058b576101f0565b806391d14854116100de57806391d14854146104ab578063a217fddf146104db578063a34a1e4d146104f9578063a7292ea414610515576101f0565b80637188157e1461042157806375b238fc1461043d57806375b8452b1461045b5780638d4939c61461048f576101f0565b80632f2ff15d116101875780634b7a58fb116101565780634b7a58fb146103875780634d937da9146103a357806368fefdfb146103bf5780636a7d116f146103f1576101f0565b80632f2ff15d1461030157806336568abe1461031d57806340d6eaab14610339578063430bf08a14610369576101f0565b8063130dab6a116101c3578063130dab6a1461027b5780631fb2274214610297578063248a9ca3146102b35780632e5b4c43146102e3576101f0565b806301ffc9a7146101f55780630227ac83146102255780630c64307d146102415780630f9026181461025d575b600080fd5b61020f600480360381019061020a9190613660565b610643565b60405161021c91906136a8565b60405180910390f35b61023f600480360381019061023a9190613757565b6106bd565b005b61025b60048036038101906102569190613797565b610935565b005b6102656109ab565b60405161027291906137d3565b60405180910390f35b61029560048036038101906102909190613797565b6109b1565b005b6102b160048036038101906102ac9190613797565b610a67565b005b6102cd60048036038101906102c89190613824565b610add565b6040516102da9190613860565b60405180910390f35b6102eb610afc565b6040516102f891906136a8565b60405180910390f35b61031b6004803603810190610316919061387b565b610b0f565b005b6103376004803603810190610332919061387b565b610b38565b005b610353600480360381019061034e9190613797565b610bbb565b60405161036091906137d3565b60405180910390f35b610371610c61565b60405161037e91906138ca565b60405180910390f35b6103a1600480360381019061039c91906138e5565b610c89565b005b6103bd60048036038101906103b8919061395d565b610eb7565b005b6103d960048036038101906103d491906139e9565b61142f565b6040516103e893929190613a64565b60405180910390f35b61040b60048036038101906104069190613a9b565b6114e6565b60405161041891906137d3565b60405180910390f35b61043b6004803603810190610436919061395d565b611801565b005b610445611c87565b6040516104529190613860565b60405180910390f35b61047560048036038101906104709190613b02565b611cab565b604051610486959493929190613b55565b60405180910390f35b6104a960048036038101906104a49190613bd4565b611fa8565b005b6104c560048036038101906104c0919061387b565b612022565b6040516104d291906136a8565b60405180910390f35b6104e361208c565b6040516104f09190613860565b60405180910390f35b610513600480360381019061050e9190613c01565b612093565b005b61051d61254e565b60405161052a91906137d3565b60405180910390f35b61053b612554565b60405161054891906137d3565b60405180910390f35b61055961255a565b60405161056691906138ca565b60405180910390f35b6105896004803603810190610584919061387b565b612582565b005b6105a560048036038101906105a091906138e5565b6125ab565b005b6105c160048036038101906105bc9190613797565b6127d7565b005b6105cb61284d565b6040516105d891906137d3565b60405180910390f35b6105fb60048036038101906105f69190613c8e565b612853565b60405161060a93929190613a64565b60405180910390f35b61062d60048036038101906106289190613797565b612b43565b60405161063a9190613d7a565b60405180910390f35b60007f7965db0b000000000000000000000000000000000000000000000000000000007bffffffffffffffffffffffffffffffffffffffffffffffffffffffff1916827bffffffffffffffffffffffffffffffffffffffffffffffffffffffff191614806106b657506106b582612b76565b5b9050919050565b7fa49807205ce4d355092ef5a8a18f56e8913cf4a201fbe287825b095693c217756106ef816106ea612be0565b612be8565b828273ffffffffffffffffffffffffffffffffffffffff1663a15612d16040518163ffffffff1660e01b8152600401602060405180830381865afa15801561073b573d6000803e3d6000fd5b505050506040513d601f19601f8201168201806040525081019061075f9190613daa565b14801561086757507f000000000000000000000000000000000000000000000000000000000000000073ffffffffffffffffffffffffffffffffffffffff1663cca494736040518163ffffffff1660e01b8152600401602060405180830381865afa1580156107d2573d6000803e3d6000fd5b505050506040513d601f19601f820116820180604052508101906107f69190613dec565b8273ffffffffffffffffffffffffffffffffffffffff1663cca494736040518163ffffffff1660e01b8152600401602060405180830381865afa158015610841573d6000803e3d6000fd5b505050506040513d601f19601f820116820180604052508101906108659190613dec565b145b6108a6576040517f08c379a000000000000000000000000000000000000000000000000000000000815260040161089d90613e76565b60405180910390fd5b816001600085815260200190815260200160002060006101000a81548173ffffffffffffffffffffffffffffffffffffffff021916908373ffffffffffffffffffffffffffffffffffffffff160217905550827ff52090a6d0640328e5fca5b38028063dc80957a1911e51223e7a53797b600eda8360405161092891906138ca565b60405180910390a2505050565b7fa49807205ce4d355092ef5a8a18f56e8913cf4a201fbe287825b095693c2177561096781610962612be0565b612be8565b8160048190555060647f1f77a5f1218c5e380f0425a2e88a823d831b5f8906f5ab4db8b1565a36f780d78360405161099f91906137d3565b60405180910390a25050565b60025481565b7fa49807205ce4d355092ef5a8a18f56e8913cf4a201fbe287825b095693c217756109e3816109de612be0565b612be8565b60006001600084815260200190815260200160002060006101000a81548173ffffffffffffffffffffffffffffffffffffffff021916908373ffffffffffffffffffffffffffffffffffffffff160217905550817f77deee3eb9b4bb6f251b71ecb6cab511fad7f468b72b821d2315bce091d693b560405160405180910390a25050565b7fa49807205ce4d355092ef5a8a18f56e8913cf4a201fbe287825b095693c21775610a9981610a94612be0565b612be8565b8160038190555060667f1f77a5f1218c5e380f0425a2e88a823d831b5f8906f5ab4db8b1565a36f780d783604051610ad191906137d3565b60405180910390a25050565b6000806000838152602001908152602001600020600101549050919050565b600660009054906101000a900460ff1681565b610b1882610add565b610b2981610b24612be0565b612be8565b610b338383612c85565b505050565b610b40612be0565b73ffffffffffffffffffffffffffffffffffffffff168173ffffffffffffffffffffffffffffffffffffffff1614610bad576040517f08c379a0000000000000000000000000000000000000000000000000000000008152600401610ba490613f08565b60405180910390fd5b610bb78282612d65565b5050565b60007f000000000000000000000000000000000000000000000000000000000000000073ffffffffffffffffffffffffffffffffffffffff166385ae10e6836040518263ffffffff1660e01b8152600401610c1691906137d3565b6040805180830381865afa158015610c32573d6000803e3d6000fd5b505050506040513d601f19601f82011682018060405250810190610c569190613f28565b905080915050919050565b60007f0000000000000000000000000000000000000000000000000000000000000000905090565b600660009054906101000a900460ff16610cd8576040517f08c379a0000000000000000000000000000000000000000000000000000000008152600401610ccf90613fb4565b60405180910390fd5b600080610ce785856000611cab565b5050925050915080831015610d31576040517f08c379a0000000000000000000000000000000000000000000000000000000008152600401610d2890614020565b60405180910390fd5b7f000000000000000000000000000000000000000000000000000000000000000073ffffffffffffffffffffffffffffffffffffffff166323b872dd3330846040518463ffffffff1660e01b8152600401610d8e93929190614040565b6020604051808303816000875af1158015610dad573d6000803e3d6000fd5b505050506040513d601f19601f82011682018060405250810190610dd1919061408c565b610e10576040517f08c379a0000000000000000000000000000000000000000000000000000000008152600401610e0790614105565b60405180910390fd5b6001600086815260200190815260200160002060009054906101000a900473ffffffffffffffffffffffffffffffffffffffff1673ffffffffffffffffffffffffffffffffffffffff166340c10f1933846040518363ffffffff1660e01b8152600401610e7e929190614125565b600060405180830381600087803b158015610e9857600080fd5b505af1158015610eac573d6000803e3d6000fd5b505050505050505050565b600660009054906101000a900460ff16610f06576040517f08c379a0000000000000000000000000000000000000000000000000000000008152600401610efd90613fb4565b60405180910390fd5b6000806000806000610f1a89896001611cab565b9450945094509450945060008284610f32919061417d565b905080871015610f77576040517f08c379a0000000000000000000000000000000000000000000000000000000008152600401610f6e90614020565b60405180910390fd5b7f000000000000000000000000000000000000000000000000000000000000000073ffffffffffffffffffffffffffffffffffffffff166323b872dd337f0000000000000000000000000000000000000000000000000000000000000000866040518463ffffffff1660e01b8152600401610ff493929190614040565b6020604051808303816000875af1158015611013573d6000803e3d6000fd5b505050506040513d601f19601f82011682018060405250810190611037919061408c565b611076576040517f08c379a000000000000000000000000000000000000000000000000000000000815260040161106d9061421f565b60405180910390fd5b7f000000000000000000000000000000000000000000000000000000000000000073ffffffffffffffffffffffffffffffffffffffff166323b872dd3330876040518463ffffffff1660e01b81526004016110d393929190614040565b6020604051808303816000875af11580156110f2573d6000803e3d6000fd5b505050506040513d601f19601f82011682018060405250810190611116919061408c565b611155576040517f08c379a000000000000000000000000000000000000000000000000000000000815260040161114c9061421f565b60405180910390fd5b60007f000000000000000000000000000000000000000000000000000000000000000073ffffffffffffffffffffffffffffffffffffffff1663b5310ff98c858d8d60018b8b8b8f336040518b63ffffffff1660e01b81526004016111c39a999897969594939291906142fe565b6020604051808303816000875af11580156111e2573d6000803e3d6000fd5b505050506040513d601f19601f820116820180604052508101906112069190613daa565b9050600160008c815260200190815260200160002060009054906101000a900473ffffffffffffffffffffffffffffffffffffffff1673ffffffffffffffffffffffffffffffffffffffff166340c10f1933896040518363ffffffff1660e01b8152600401611276929190614125565b600060405180830381600087803b15801561129057600080fd5b505af11580156112a4573d6000803e3d6000fd5b505050507f000000000000000000000000000000000000000000000000000000000000000073ffffffffffffffffffffffffffffffffffffffff166324b4110e82336040518363ffffffff1660e01b815260040161130392919061439a565b600060405180830381600087803b15801561131d57600080fd5b505af1158015611331573d6000803e3d6000fd5b505050503373ffffffffffffffffffffffffffffffffffffffff167fec9992eb00731da134f6eac37d87ed04f0324c070c4eff62d553ae005dc451067f000000000000000000000000000000000000000000000000000000000000000073ffffffffffffffffffffffffffffffffffffffff16631ce5e9a6846040518263ffffffff1660e01b81526004016113c691906137d3565b61020060405180830381865afa1580156113e4573d6000803e3d6000fd5b505050506040513d601f19601f820116820180604052508101906114089190614632565b89600160405161141a9392919061482e565b60405180910390a25050505050505050505050565b6000806000807f000000000000000000000000000000000000000000000000000000000000000073ffffffffffffffffffffffffffffffffffffffff1663b0667cf86040518163ffffffff1660e01b81526004016040805180830381865afa15801561149f573d6000803e3d6000fd5b505050506040513d601f19601f820116820180604052508101906114c39190613f28565b5090506114d489828a8a8a8a612853565b93509350935050955095509592505050565b60007f000000000000000000000000000000000000000000000000000000000000000073ffffffffffffffffffffffffffffffffffffffff1663cfc2dc20866040518263ffffffff1660e01b815260040161154191906137d3565b602060405180830381865afa15801561155e573d6000803e3d6000fd5b505050506040513d601f19601f820116820180604052508101906115829190613daa565b905060007f000000000000000000000000000000000000000000000000000000000000000073ffffffffffffffffffffffffffffffffffffffff1663b0667cf86040518163ffffffff1660e01b81526004016040805180830381865afa1580156115f0573d6000803e3d6000fd5b505050506040513d601f19601f820116820180604052508101906116149190613f28565b5090507f000000000000000000000000000000000000000000000000000000000000000073ffffffffffffffffffffffffffffffffffffffff166363447902600160006040518363ffffffff1660e01b8152600401611674929190614868565b602060405180830381865afa158015611691573d6000803e3d6000fd5b505050506040513d601f19601f820116820180604052508101906116b59190613daa565b8473__FullMath______________________________63fed4a0f39091846040518363ffffffff1660e01b81526004016116f09291906148a0565b602060405180830381865af415801561170d573d6000803e3d6000fd5b505050506040513d601f19601f820116820180604052508101906117319190613daa565b1115611772576040517f08c379a000000000000000000000000000000000000000000000000000000000815260040161176990614915565b60405180910390fd5b60006117818284888888612e46565b905060008161178f85613303565b611799919061493f565b136117d9576040517f08c379a00000000000000000000000000000000000000000000000000000000081526004016117d090614a1f565b60405180910390fd5b6117f5816117e685613303565b6117f0919061493f565b613370565b92505050949350505050565b600660009054906101000a900460ff16611850576040517f08c379a000000000000000000000000000000000000000000000000000000000815260040161184790613fb4565b60405180910390fd5b600080600080600061186489896000611cab565b94509450945094509450848610156118b1576040517f08c379a00000000000000000000000000000000000000000000000000000000081526004016118a890614020565b60405180910390fd5b600160008a815260200190815260200160002060009054906101000a900473ffffffffffffffffffffffffffffffffffffffff1673ffffffffffffffffffffffffffffffffffffffff16639dc29fac33876040518363ffffffff1660e01b815260040161191f929190614125565b600060405180830381600087803b15801561193957600080fd5b505af115801561194d573d6000803e3d6000fd5b5050505060007f000000000000000000000000000000000000000000000000000000000000000073ffffffffffffffffffffffffffffffffffffffff1663b5310ff98b848c8c60008a8a8a8e336040518b63ffffffff1660e01b81526004016119bf9a999897969594939291906142fe565b6020604051808303816000875af11580156119de573d6000803e3d6000fd5b505050506040513d601f19601f82011682018060405250810190611a029190613daa565b90507f000000000000000000000000000000000000000000000000000000000000000073ffffffffffffffffffffffffffffffffffffffff1663a9059cbb7f0000000000000000000000000000000000000000000000000000000000000000866040518363ffffffff1660e01b8152600401611a7f929190614125565b6020604051808303816000875af1158015611a9e573d6000803e3d6000fd5b505050506040513d601f19601f82011682018060405250810190611ac2919061408c565b611b01576040517f08c379a0000000000000000000000000000000000000000000000000000000008152600401611af89061421f565b60405180910390fd5b7f000000000000000000000000000000000000000000000000000000000000000073ffffffffffffffffffffffffffffffffffffffff166324b4110e82336040518363ffffffff1660e01b8152600401611b5c92919061439a565b600060405180830381600087803b158015611b7657600080fd5b505af1158015611b8a573d6000803e3d6000fd5b505050503373ffffffffffffffffffffffffffffffffffffffff167fec9992eb00731da134f6eac37d87ed04f0324c070c4eff62d553ae005dc451067f000000000000000000000000000000000000000000000000000000000000000073ffffffffffffffffffffffffffffffffffffffff16631ce5e9a6846040518263ffffffff1660e01b8152600401611c1f91906137d3565b61020060405180830381865afa158015611c3d573d6000803e3d6000fd5b505050506040513d601f19601f82011682018060405250810190611c619190614632565b886001604051611c739392919061482e565b60405180910390a250505050505050505050565b7fa49807205ce4d355092ef5a8a18f56e8913cf4a201fbe287825b095693c2177581565b60008060008060008073ffffffffffffffffffffffffffffffffffffffff16600160008a815260200190815260200160002060009054906101000a900473ffffffffffffffffffffffffffffffffffffffff1673ffffffffffffffffffffffffffffffffffffffff161415611d55576040517f08c379a0000000000000000000000000000000000000000000000000000000008152600401611d4c90614a8b565b60405180910390fd5b7f000000000000000000000000000000000000000000000000000000000000000073ffffffffffffffffffffffffffffffffffffffff1663b0667cf86040518163ffffffff1660e01b81526004016040805180830381865afa158015611dbf573d6000803e3d6000fd5b505050506040513d601f19601f82011682018060405250810190611de39190613f28565b5080915050611df78882838a60008b612853565b8096508194508295505050508273__FullMath______________________________63de7f61709091866040518363ffffffff1660e01b8152600401611e3e9291906148a0565b602060405180830381865af4158015611e5b573d6000803e3d6000fd5b505050506040513d601f19601f82011682018060405250810190611e7f9190613daa565b73__MarketLibrary_________________________63174e20e69091600160008c815260200190815260200160002060009054906101000a900473ffffffffffffffffffffffffffffffffffffffff1673ffffffffffffffffffffffffffffffffffffffff1663313ce5676040518163ffffffff1660e01b8152600401602060405180830381865afa158015611f19573d6000803e3d6000fd5b505050506040513d601f19601f82011682018060405250810190611f3d9190614ae4565b6040518363ffffffff1660e01b8152600401611f5a929190614b42565b602060405180830381865af4158015611f77573d6000803e3d6000fd5b505050506040513d601f19601f82011682018060405250810190611f9b9190613daa565b9450939792965093509350565b6000801b611fbd81611fb8612be0565b612be8565b81600660006101000a81548160ff02191690831515021790555060667f1f77a5f1218c5e380f0425a2e88a823d831b5f8906f5ab4db8b1565a36f780d783612006576000612009565b60015b6040516120169190614b7a565b60405180910390a25050565b600080600084815260200190815260200160002060000160008373ffffffffffffffffffffffffffffffffffffffff1673ffffffffffffffffffffffffffffffffffffffff16815260200190815260200160002060009054906101000a900460ff16905092915050565b6000801b81565b600660009054906101000a900460ff166120e2576040517f08c379a00000000000000000000000000000000000000000000000000000000081526004016120d990613fb4565b60405180910390fd5b836003541115612127576040517f08c379a000000000000000000000000000000000000000000000000000000000815260040161211e90614be1565b60405180910390fd5b60007f000000000000000000000000000000000000000000000000000000000000000073ffffffffffffffffffffffffffffffffffffffff1663b0667cf86040518163ffffffff1660e01b81526004016040805180830381865afa158015612193573d6000803e3d6000fd5b505050506040513d601f19601f820116820180604052508101906121b79190613f28565b50905060008060006121cd8a858b8b8b8b612853565b92509250925081851015612216576040517f08c379a000000000000000000000000000000000000000000000000000000000815260040161220d90614c4d565b60405180910390fd5b60007f000000000000000000000000000000000000000000000000000000000000000073ffffffffffffffffffffffffffffffffffffffff1663b5310ff98c8c8c8c8c8a8a8d8b336040518b63ffffffff1660e01b81526004016122839a999897969594939291906142fe565b6020604051808303816000875af11580156122a2573d6000803e3d6000fd5b505050506040513d601f19601f820116820180604052508101906122c69190613daa565b90507f000000000000000000000000000000000000000000000000000000000000000073ffffffffffffffffffffffffffffffffffffffff166323b872dd337f0000000000000000000000000000000000000000000000000000000000000000896040518463ffffffff1660e01b815260040161234593929190614040565b6020604051808303816000875af1158015612364573d6000803e3d6000fd5b505050506040513d601f19601f82011682018060405250810190612388919061408c565b6123c7576040517f08c379a00000000000000000000000000000000000000000000000000000000081526004016123be90614cb9565b60405180910390fd5b7f000000000000000000000000000000000000000000000000000000000000000073ffffffffffffffffffffffffffffffffffffffff166324b4110e82336040518363ffffffff1660e01b815260040161242292919061439a565b600060405180830381600087803b15801561243c57600080fd5b505af1158015612450573d6000803e3d6000fd5b505050503373ffffffffffffffffffffffffffffffffffffffff167fec9992eb00731da134f6eac37d87ed04f0324c070c4eff62d553ae005dc451067f000000000000000000000000000000000000000000000000000000000000000073ffffffffffffffffffffffffffffffffffffffff16631ce5e9a6846040518263ffffffff1660e01b81526004016124e591906137d3565b61020060405180830381865afa158015612503573d6000803e3d6000fd5b505050506040513d601f19601f820116820180604052508101906125279190614632565b8860006040516125399392919061482e565b60405180910390a25050505050505050505050565b60045481565b60055481565b60007f0000000000000000000000000000000000000000000000000000000000000000905090565b61258b82610add565b61259c81612597612be0565b612be8565b6125a68383612d65565b505050565b600660009054906101000a900460ff166125fa576040517f08c379a00000000000000000000000000000000000000000000000000000000081526004016125f190613fb4565b60405180910390fd5b60008061260985856001611cab565b5050925050915081831015612653576040517f08c379a000000000000000000000000000000000000000000000000000000000815260040161264a90614020565b60405180910390fd5b6001600086815260200190815260200160002060009054906101000a900473ffffffffffffffffffffffffffffffffffffffff1673ffffffffffffffffffffffffffffffffffffffff16639dc29fac33846040518363ffffffff1660e01b81526004016126c1929190614125565b600060405180830381600087803b1580156126db57600080fd5b505af11580156126ef573d6000803e3d6000fd5b505050507f000000000000000000000000000000000000000000000000000000000000000073ffffffffffffffffffffffffffffffffffffffff1663a9059cbb33836040518363ffffffff1660e01b815260040161274e929190614125565b6020604051808303816000875af115801561276d573d6000803e3d6000fd5b505050506040513d601f19601f82011682018060405250810190612791919061408c565b6127d0576040517f08c379a00000000000000000000000000000000000000000000000000000000081526004016127c79061421f565b60405180910390fd5b5050505050565b7fa49807205ce4d355092ef5a8a18f56e8913cf4a201fbe287825b095693c2177561280981612804612be0565b612be8565b8160028190555060657f1f77a5f1218c5e380f0425a2e88a823d831b5f8906f5ab4db8b1565a36f780d78360405161284191906137d3565b60405180910390a25050565b60035481565b6000806000612864898888876114e6565b9050600060045473__FullMath______________________________63b3947c1790918c6301e133806040518463ffffffff1660e01b81526004016128ab93929190614cd9565b602060405180830381865af41580156128c8573d6000803e3d6000fd5b505050506040513d601f19601f820116820180604052508101906128ec9190613daa565b905073__OptionLibrary_________________________632634764d8a848b8a8c876005546040518863ffffffff1660e01b81526004016129339796959493929190614d1f565b602060405180830381865af4158015612950573d6000803e3d6000fd5b505050506040513d601f19601f820116820180604052508101906129749190613daa565b935073__OptionLibrary_________________________638234348f8a8a8a8a8a8a6040518763ffffffff1660e01b81526004016129b796959493929190614d9d565b602060405180830381865af41580156129d4573d6000803e3d6000fd5b505050506040513d601f19601f820116820180604052508101906129f89190613daa565b92508373__MarketLibrary_________________________63174e20e690917f00000000000000000000000000000000000000000000000000000000000000006040518363ffffffff1660e01b8152600401612a559291906148a0565b602060405180830381865af4158015612a72573d6000803e3d6000fd5b505050506040513d601f19601f82011682018060405250810190612a969190613daa565b93508273__MarketLibrary_________________________63174e20e690917f00000000000000000000000000000000000000000000000000000000000000006040518363ffffffff1660e01b8152600401612af39291906148a0565b602060405180830381865af4158015612b10573d6000803e3d6000fd5b505050506040513d601f19601f82011682018060405250810190612b349190613daa565b92505096509650969350505050565b60016020528060005260406000206000915054906101000a900473ffffffffffffffffffffffffffffffffffffffff1681565b60007f01ffc9a7000000000000000000000000000000000000000000000000000000007bffffffffffffffffffffffffffffffffffffffffffffffffffffffff1916827bffffffffffffffffffffffffffffffffffffffffffffffffffffffff1916149050919050565b600033905090565b612bf28282612022565b612c8157612c178173ffffffffffffffffffffffffffffffffffffffff1660146133bd565b612c258360001c60206133bd565b604051602001612c36929190614f10565b6040516020818303038152906040526040517f08c379a0000000000000000000000000000000000000000000000000000000008152600401612c789190614f83565b60405180910390fd5b5050565b612c8f8282612022565b612d6157600160008084815260200190815260200160002060000160008373ffffffffffffffffffffffffffffffffffffffff1673ffffffffffffffffffffffffffffffffffffffff16815260200190815260200160002060006101000a81548160ff021916908315150217905550612d06612be0565b73ffffffffffffffffffffffffffffffffffffffff168173ffffffffffffffffffffffffffffffffffffffff16837f2f8788117e7eff1d82e926ec794901d17c78024a50270940304540a733656f0d60405160405180910390a45b5050565b612d6f8282612022565b15612e4257600080600084815260200190815260200160002060000160008373ffffffffffffffffffffffffffffffffffffffff1673ffffffffffffffffffffffffffffffffffffffff16815260200190815260200160002060006101000a81548160ff021916908315150217905550612de7612be0565b73ffffffffffffffffffffffffffffffffffffffff168173ffffffffffffffffffffffffffffffffffffffff16837ff6391f5c32d9c69d2a47ea670b442974b53935d1edc7fd64eb21e047a839171b60405160405180910390a45b5050565b60008073__OptionLibrary_________________________639932b2be8889896040518463ffffffff1660e01b8152600401612e8493929190614cd9565b602060405180830381865af4158015612ea1573d6000803e3d6000fd5b505050506040513d601f19601f82011682018060405250810190612ec59190613daa565b73__FullMath______________________________63b3947c1790917f000000000000000000000000000000000000000000000000000000000000000073ffffffffffffffffffffffffffffffffffffffff1663634479026000806040518363ffffffff1660e01b8152600401612f3d929190614868565b602060405180830381865afa158015612f5a573d6000803e3d6000fd5b505050506040513d601f19601f82011682018060405250810190612f7e9190613daa565b8a6040518463ffffffff1660e01b8152600401612f9d93929190614cd9565b602060405180830381865af4158015612fba573d6000803e3d6000fd5b505050506040513d601f19601f82011682018060405250810190612fde9190613daa565b905060007f000000000000000000000000000000000000000000000000000000000000000073ffffffffffffffffffffffffffffffffffffffff16636fe440316040518163ffffffff1660e01b8152600401602060405180830381865afa15801561304d573d6000803e3d6000fd5b505050506040513d601f19601f820116820180604052508101906130719190614fd1565b905060006001808111156130885761308761423f565b5b85600181111561309b5761309a61423f565b5b146130a75760016130c9565b7fffffffffffffffffffffffffffffffffffffffffffffffffffffffffffffffff5b6131c873__OptionLibrary_________________________639932b2be8c8b8d6040518463ffffffff1660e01b815260040161310793929190614cd9565b602060405180830381865af4158015613124573d6000803e3d6000fd5b505050506040513d601f19601f820116820180604052508101906131489190613daa565b73__FullMath______________________________63fed4a0f390918a6040518363ffffffff1660e01b81526004016131829291906148a0565b602060405180830381865af415801561319f573d6000803e3d6000fd5b505050506040513d601f19601f820116820180604052508101906131c39190613daa565b613303565b6131d29190614ffe565b826131dd919061493f565b9050600273__OptionLibrary_________________________63fcc14dfd85848c6002546040518563ffffffff1660e01b81526004016132209493929190615124565b602060405180830381865af415801561323d573d6000803e3d6000fd5b505050506040513d601f19601f820116820180604052508101906132619190614fd1565b73__OptionLibrary_________________________63fcc14dfd86868d6002546040518563ffffffff1660e01b81526004016132a09493929190615124565b602060405180830381865af41580156132bd573d6000803e3d6000fd5b505050506040513d601f19601f820116820180604052508101906132e19190614fd1565b6132eb919061493f565b6132f59190615198565b935050505095945050505050565b60007f7fffffffffffffffffffffffffffffffffffffffffffffffffffffffffffffff821115613368576040517f08c379a000000000000000000000000000000000000000000000000000000000815260040161335f90615274565b60405180910390fd5b819050919050565b6000808212156133b5576040517f08c379a00000000000000000000000000000000000000000000000000000000081526004016133ac906152e0565b60405180910390fd5b819050919050565b6060600060028360026133d09190615300565b6133da919061417d565b67ffffffffffffffff8111156133f3576133f26143d9565b5b6040519080825280601f01601f1916602001820160405280156134255781602001600182028036833780820191505090505b5090507f30000000000000000000000000000000000000000000000000000000000000008160008151811061345d5761345c61535a565b5b60200101907effffffffffffffffffffffffffffffffffffffffffffffffffffffffffffff1916908160001a9053507f7800000000000000000000000000000000000000000000000000000000000000816001815181106134c1576134c061535a565b5b60200101907effffffffffffffffffffffffffffffffffffffffffffffffffffffffffffff1916908160001a905350600060018460026135019190615300565b61350b919061417d565b90505b60018111156135ab577f3031323334353637383961626364656600000000000000000000000000000000600f86166010811061354d5761354c61535a565b5b1a60f81b8282815181106135645761356361535a565b5b60200101907effffffffffffffffffffffffffffffffffffffffffffffffffffffffffffff1916908160001a905350600485901c9450806135a490615389565b905061350e565b50600084146135ef576040517f08c379a00000000000000000000000000000000000000000000000000000000081526004016135e6906153ff565b60405180910390fd5b8091505092915050565b6000604051905090565b600080fd5b60007fffffffff0000000000000000000000000000000000000000000000000000000082169050919050565b61363d81613608565b811461364857600080fd5b50565b60008135905061365a81613634565b92915050565b60006020828403121561367657613675613603565b5b60006136848482850161364b565b91505092915050565b60008115159050919050565b6136a28161368d565b82525050565b60006020820190506136bd6000830184613699565b92915050565b6000819050919050565b6136d6816136c3565b81146136e157600080fd5b50565b6000813590506136f3816136cd565b92915050565b600073ffffffffffffffffffffffffffffffffffffffff82169050919050565b6000613724826136f9565b9050919050565b61373481613719565b811461373f57600080fd5b50565b6000813590506137518161372b565b92915050565b6000806040838503121561376e5761376d613603565b5b600061377c858286016136e4565b925050602061378d85828601613742565b9150509250929050565b6000602082840312156137ad576137ac613603565b5b60006137bb848285016136e4565b91505092915050565b6137cd816136c3565b82525050565b60006020820190506137e860008301846137c4565b92915050565b6000819050919050565b613801816137ee565b811461380c57600080fd5b50565b60008135905061381e816137f8565b92915050565b60006020828403121561383a57613839613603565b5b60006138488482850161380f565b91505092915050565b61385a816137ee565b82525050565b60006020820190506138756000830184613851565b92915050565b6000806040838503121561389257613891613603565b5b60006138a08582860161380f565b92505060206138b185828601613742565b9150509250929050565b6138c481613719565b82525050565b60006020820190506138df60008301846138bb565b92915050565b6000806000606084860312156138fe576138fd613603565b5b600061390c868287016136e4565b935050602061391d868287016136e4565b925050604061392e868287016136e4565b9150509250925092565b6002811061394557600080fd5b50565b60008135905061395781613938565b92915050565b6000806000806080858703121561397757613976613603565b5b6000613985878288016136e4565b9450506020613996878288016136e4565b93505060406139a787828801613948565b92505060606139b8878288016136e4565b91505092959194509250565b600281106139d157600080fd5b50565b6000813590506139e3816139c4565b92915050565b600080600080600060a08688031215613a0557613a04613603565b5b6000613a13888289016136e4565b9550506020613a24888289016136e4565b9450506040613a35888289016136e4565b9350506060613a4688828901613948565b9250506080613a57888289016139d4565b9150509295509295909350565b6000606082019050613a7960008301866137c4565b613a8660208301856137c4565b613a9360408301846137c4565b949350505050565b60008060008060808587031215613ab557613ab4613603565b5b6000613ac3878288016136e4565b9450506020613ad4878288016136e4565b9350506040613ae5878288016136e4565b9250506060613af6878288016139d4565b91505092959194509250565b600080600060608486031215613b1b57613b1a613603565b5b6000613b29868287016136e4565b9350506020613b3a868287016136e4565b9250506040613b4b868287016139d4565b9150509250925092565b600060a082019050613b6a60008301886137c4565b613b7760208301876137c4565b613b8460408301866137c4565b613b9160608301856137c4565b613b9e60808301846137c4565b9695505050505050565b613bb18161368d565b8114613bbc57600080fd5b50565b600081359050613bce81613ba8565b92915050565b600060208284031215613bea57613be9613603565b5b6000613bf884828501613bbf565b91505092915050565b60008060008060008060c08789031215613c1e57613c1d613603565b5b6000613c2c89828a016136e4565b9650506020613c3d89828a016136e4565b9550506040613c4e89828a016136e4565b9450506060613c5f89828a01613948565b9350506080613c7089828a016139d4565b92505060a0613c8189828a016136e4565b9150509295509295509295565b60008060008060008060c08789031215613cab57613caa613603565b5b6000613cb989828a016136e4565b9650506020613cca89828a016136e4565b9550506040613cdb89828a016136e4565b9450506060613cec89828a016136e4565b9350506080613cfd89828a01613948565b92505060a0613d0e89828a016139d4565b9150509295509295509295565b6000819050919050565b6000613d40613d3b613d36846136f9565b613d1b565b6136f9565b9050919050565b6000613d5282613d25565b9050919050565b6000613d6482613d47565b9050919050565b613d7481613d59565b82525050565b6000602082019050613d8f6000830184613d6b565b92915050565b600081519050613da4816136cd565b92915050565b600060208284031215613dc057613dbf613603565b5b6000613dce84828501613d95565b91505092915050565b600081519050613de6816137f8565b92915050565b600060208284031215613e0257613e01613603565b5b6000613e1084828501613dd7565b91505092915050565b600082825260208201905092915050565b7f6d69736d61746368656420746f6b656e20616464726573730000000000000000600082015250565b6000613e60601883613e19565b9150613e6b82613e2a565b602082019050919050565b60006020820190508181036000830152613e8f81613e53565b9050919050565b7f416363657373436f6e74726f6c3a2063616e206f6e6c792072656e6f756e636560008201527f20726f6c657320666f722073656c660000000000000000000000000000000000602082015250565b6000613ef2602f83613e19565b9150613efd82613e96565b604082019050919050565b60006020820190508181036000830152613f2181613ee5565b9050919050565b60008060408385031215613f3f57613f3e613603565b5b6000613f4d85828601613d95565b9250506020613f5e85828601613d95565b9150509250929050565b7f54726164696e672073746f707065642100000000000000000000000000000000600082015250565b6000613f9e601083613e19565b9150613fa982613f68565b602082019050919050565b60006020820190508181036000830152613fcd81613f91565b9050919050565b7f436f737420696e636f7272656374000000000000000000000000000000000000600082015250565b600061400a600e83613e19565b915061401582613fd4565b602082019050919050565b6000602082019050818103600083015261403981613ffd565b9050919050565b600060608201905061405560008301866138bb565b61406260208301856138bb565b61406f60408301846137c4565b949350505050565b60008151905061408681613ba8565b92915050565b6000602082840312156140a2576140a1613603565b5b60006140b084828501614077565b91505092915050565b7f766f6c207061796d656e74206572726f72000000000000000000000000000000600082015250565b60006140ef601183613e19565b91506140fa826140b9565b602082019050919050565b6000602082019050818103600083015261411e816140e2565b9050919050565b600060408201905061413a60008301856138bb565b61414760208301846137c4565b9392505050565b7f4e487b7100000000000000000000000000000000000000000000000000000000600052601160045260246000fd5b6000614188826136c3565b9150614193836136c3565b9250827fffffffffffffffffffffffffffffffffffffffffffffffffffffffffffffffff038211156141c8576141c761414e565b5b828201905092915050565b7f7061796d656e74206572726f7200000000000000000000000000000000000000600082015250565b6000614209600d83613e19565b9150614214826141d3565b602082019050919050565b60006020820190508181036000830152614238816141fc565b9050919050565b7f4e487b7100000000000000000000000000000000000000000000000000000000600052602160045260246000fd5b6002811061427f5761427e61423f565b5b50565b60008190506142908261426e565b919050565b60006142a082614282565b9050919050565b6142b081614295565b82525050565b600281106142c7576142c661423f565b5b50565b60008190506142d8826142b6565b919050565b60006142e8826142ca565b9050919050565b6142f8816142dd565b82525050565b600061014082019050614314600083018d6137c4565b614321602083018c6137c4565b61432e604083018b6137c4565b61433b606083018a6142a7565b61434860808301896142ef565b61435560a08301886137c4565b61436260c08301876137c4565b61436f60e08301866137c4565b61437d6101008301856137c4565b61438b6101208301846138bb565b9b9a5050505050505050505050565b60006040820190506143af60008301856137c4565b6143bc60208301846138bb565b9392505050565b600080fd5b6000601f19601f8301169050919050565b7f4e487b7100000000000000000000000000000000000000000000000000000000600052604160045260246000fd5b614411826143c8565b810181811067ffffffffffffffff821117156144305761442f6143d9565b5b80604052505050565b60006144436135f9565b905061444f8282614408565b919050565b60008151905061446381613938565b92915050565b600081519050614478816139c4565b92915050565b6004811061448b57600080fd5b50565b60008151905061449d8161447e565b92915050565b6000815190506144b28161372b565b92915050565b600061020082840312156144cf576144ce6143c3565b5b6144da610200614439565b905060006144ea84828501614454565b60008301525060206144fe84828501614469565b60208301525060406145128482850161448e565b6040830152506060614526848285016144a3565b606083015250608061453a84828501613d95565b60808301525060a061454e84828501613d95565b60a08301525060c061456284828501613d95565b60c08301525060e061457684828501613d95565b60e08301525061010061458b84828501613d95565b610100830152506101206145a184828501613d95565b610120830152506101406145b784828501613d95565b610140830152506101606145cd84828501613d95565b610160830152506101806145e384828501613d95565b610180830152506101a06145f984828501613d95565b6101a0830152506101c061460f84828501613d95565b6101c0830152506101e061462584828501613d95565b6101e08301525092915050565b6000610200828403121561464957614648613603565b5b6000614657848285016144b8565b91505092915050565b61466981614295565b82525050565b614678816142dd565b82525050565b6004811061468f5761468e61423f565b5b50565b60008190506146a08261467e565b919050565b60006146b082614692565b9050919050565b6146c0816146a5565b82525050565b6146cf81613719565b82525050565b6146de816136c3565b82525050565b610200820160008201516146fb6000850182614660565b50602082015161470e602085018261466f565b50604082015161472160408501826146b7565b50606082015161473460608501826146c6565b50608082015161474760808501826146d5565b5060a082015161475a60a08501826146d5565b5060c082015161476d60c08501826146d5565b5060e082015161478060e08501826146d5565b506101008201516147956101008501826146d5565b506101208201516147aa6101208501826146d5565b506101408201516147bf6101408501826146d5565b506101608201516147d46101608501826146d5565b506101808201516147e96101808501826146d5565b506101a08201516147fe6101a08501826146d5565b506101c08201516148136101c08501826146d5565b506101e08201516148286101e08501826146d5565b50505050565b60006102408201905061484460008301866146e4565b6148526102008301856137c4565b614860610220830184613699565b949350505050565b600060408201905061487d6000830185613699565b61488a6020830184613699565b9392505050565b61489a816136c3565b82525050565b60006040820190506148b56000830185614891565b6148c26020830184614891565b9392505050565b7f696e73756666696369656e74206361706974616c000000000000000000000000600082015250565b60006148ff601483613e19565b915061490a826148c9565b602082019050919050565b6000602082019050818103600083015261492e816148f2565b9050919050565b6000819050919050565b600061494a82614935565b915061495583614935565b9250817f7fffffffffffffffffffffffffffffffffffffffffffffffffffffffffffffff038313600083121516156149905761498f61414e565b5b817f80000000000000000000000000000000000000000000000000000000000000000383126000831216156149c8576149c761414e565b5b828201905092915050565b7f496e636f727265637420766f6c207072656d69756d0000000000000000000000600082015250565b6000614a09601583613e19565b9150614a14826149d3565b602082019050919050565b60006020820190508181036000830152614a38816149fc565b9050919050565b7f54656e6f72206973206e6f742073657400000000000000000000000000000000600082015250565b6000614a75601083613e19565b9150614a8082614a3f565b602082019050919050565b60006020820190508181036000830152614aa481614a68565b9050919050565b600060ff82169050919050565b614ac181614aab565b8114614acc57600080fd5b50565b600081519050614ade81614ab8565b92915050565b600060208284031215614afa57614af9613603565b5b6000614b0884828501614acf565b91505092915050565b6000614b2c614b27614b2284614aab565b613d1b565b6136c3565b9050919050565b614b3c81614b11565b82525050565b6000604082019050614b576000830185614891565b614b646020830184614b33565b9392505050565b614b7481614b11565b82525050565b6000602082019050614b8f6000830184614b6b565b92915050565b7f547261646520616d6f756e742062656c6f77206d696e696d756d2e0000000000600082015250565b6000614bcb601b83613e19565b9150614bd682614b95565b602082019050919050565b60006020820190508181036000830152614bfa81614bbe565b9050919050565b7f496e636f727265637420636f737420706169642e000000000000000000000000600082015250565b6000614c37601483613e19565b9150614c4282614c01565b602082019050919050565b60006020820190508181036000830152614c6681614c2a565b9050919050565b7f4661696c6564207061796d656e742e0000000000000000000000000000000000600082015250565b6000614ca3600f83613e19565b9150614cae82614c6d565b602082019050919050565b60006020820190508181036000830152614cd281614c96565b9050919050565b6000606082019050614cee6000830186614891565b614cfb6020830185614891565b614d086040830184614891565b949350505050565b614d1981614295565b82525050565b600060e082019050614d34600083018a614891565b614d416020830189614891565b614d4e6040830188614891565b614d5b6060830187614d10565b614d686080830186614891565b614d7560a0830185614891565b614d8260c0830184614891565b98975050505050505050565b614d97816142dd565b82525050565b600060c082019050614db26000830189614891565b614dbf6020830188614891565b614dcc6040830187614891565b614dd96060830186614d10565b614de66080830185614d8e565b614df360a0830184614891565b979650505050505050565b600081905092915050565b7f416363657373436f6e74726f6c3a206163636f756e7420000000000000000000600082015250565b6000614e3f601783614dfe565b9150614e4a82614e09565b601782019050919050565b600081519050919050565b60005b83811015614e7e578082015181840152602081019050614e63565b83811115614e8d576000848401525b50505050565b6000614e9e82614e55565b614ea88185614dfe565b9350614eb8818560208601614e60565b80840191505092915050565b7f206973206d697373696e6720726f6c6520000000000000000000000000000000600082015250565b6000614efa601183614dfe565b9150614f0582614ec4565b601182019050919050565b6000614f1b82614e32565b9150614f278285614e93565b9150614f3282614eed565b9150614f3e8284614e93565b91508190509392505050565b6000614f5582614e55565b614f5f8185613e19565b9350614f6f818560208601614e60565b614f78816143c8565b840191505092915050565b60006020820190508181036000830152614f9d8184614f4a565b905092915050565b614fae81614935565b8114614fb957600080fd5b50565b600081519050614fcb81614fa5565b92915050565b600060208284031215614fe757614fe6613603565b5b6000614ff584828501614fbc565b91505092915050565b600061500982614935565b915061501483614935565b9250827f7fffffffffffffffffffffffffffffffffffffffffffffffffffffffffffffff04821160008413600084131616156150535761505261414e565b5b817f800000000000000000000000000000000000000000000000000000000000000005831260008412600084131616156150905761508f61414e565b5b827f800000000000000000000000000000000000000000000000000000000000000005821260008413600084121616156150cd576150cc61414e565b5b827f7fffffffffffffffffffffffffffffffffffffffffffffffffffffffffffffff058212600084126000841216161561510a5761510961414e565b5b828202905092915050565b61511e81614935565b82525050565b60006080820190506151396000830187614891565b6151466020830186615115565b6151536040830185614891565b6151606060830184614891565b95945050505050565b7f4e487b7100000000000000000000000000000000000000000000000000000000600052601260045260246000fd5b60006151a382614935565b91506151ae83614935565b9250826151be576151bd615169565b5b600160000383147f8000000000000000000000000000000000000000000000000000000000000000831416156151f7576151f661414e565b5b828205905092915050565b7f53616665436173743a2076616c756520646f65736e27742066697420696e206160008201527f6e20696e74323536000000000000000000000000000000000000000000000000602082015250565b600061525e602883613e19565b915061526982615202565b604082019050919050565b6000602082019050818103600083015261528d81615251565b9050919050565b7f53616665436173743a2076616c7565206d75737420626520706f736974697665600082015250565b60006152ca602083613e19565b91506152d582615294565b602082019050919050565b600060208201905081810360008301526152f9816152bd565b9050919050565b600061530b826136c3565b9150615316836136c3565b9250817fffffffffffffffffffffffffffffffffffffffffffffffffffffffffffffffff048311821515161561534f5761534e61414e565b5b828202905092915050565b7f4e487b7100000000000000000000000000000000000000000000000000000000600052603260045260246000fd5b6000615394826136c3565b915060008214156153a8576153a761414e565b5b600182039050919050565b7f537472696e67733a20686578206c656e67746820696e73756666696369656e74600082015250565b60006153e9602083613e19565b91506153f4826153b3565b602082019050919050565b60006020820190508181036000830152615418816153dc565b905091905056fea2646970667358221220a41dd3e4c6d2b41224bd5a87552a2d7ae61d9a94ba5d5aff2a319acff18387d564736f6c634300080b0033",
  "immutableReferences": {
    "2553": [
      {
        "length": 32,
        "start": 4022
      },
      {
        "length": 32,
        "start": 5657
      },
      {
        "length": 32,
        "start": 6722
      },
      {
        "length": 32,
        "start": 8967
      },
      {
        "length": 32,
        "start": 9566
      },
      {
        "length": 32,
        "start": 12003
      }
    ],
    "2556": [
      {
        "length": 32,
        "start": 1897
      },
      {
        "length": 32,
        "start": 3007
      },
      {
        "length": 32,
        "start": 3173
      },
      {
        "length": 32,
        "start": 4441
      },
      {
        "length": 32,
        "start": 4778
      },
      {
        "length": 32,
        "start": 4975
      },
      {
        "length": 32,
        "start": 5175
      },
      {
        "length": 32,
        "start": 5354
      },
      {
        "length": 32,
        "start": 5512
      },
      {
        "length": 32,
        "start": 6485
      },
      {
        "length": 32,
        "start": 6915
      },
      {
        "length": 32,
        "start": 7112
      },
      {
        "length": 32,
        "start": 7511
      },
      {
        "length": 32,
        "start": 8491
      },
      {
        "length": 32,
        "start": 8730
      },
      {
        "length": 32,
        "start": 9161
      },
      {
        "length": 32,
        "start": 9358
      },
      {
        "length": 32,
        "start": 12260
      }
    ],
    "2558": [
      {
        "length": 32,
        "start": 10777
      },
      {
        "length": 32,
        "start": 10935
      }
    ],
    "2563": [
      {
        "length": 32,
        "start": 3379
      },
      {
        "length": 32,
        "start": 3961
      },
      {
        "length": 32,
        "start": 4216
      },
      {
        "length": 32,
        "start": 6662
      },
      {
        "length": 32,
        "start": 8906
      },
      {
        "length": 32,
        "start": 9973
      }
    ]
  },
  "source": "// SPDX-License-Identifier: MIT\npragma solidity ^0.8.0;\n\nimport \"@openzeppelin/contracts/token/ERC20/ERC20.sol\";\nimport \"@openzeppelin/contracts/access/AccessControl.sol\";\nimport \"@openzeppelin/contracts/utils/structs/EnumerableSet.sol\";\nimport \"./VolatilityToken.sol\";\nimport \"./MoretMarketMaker.sol\";\nimport \"./interfaces/EOption.sol\";\n\ncontract Exchange is AccessControl, EOption{\n  using FullMath for uint256;\n  using MarketLibrary for uint256;\n\n  bytes32 public constant ADMIN_ROLE = keccak256(\"ADMIN_ROLE\");\n  mapping(uint256=>VolatilityToken) public volTokenAddressList;\n\n  MoretMarketMaker internal immutable marketMaker;\n  OptionVault internal immutable optionVault;\n  uint256 internal immutable fundingDecimals;\n  uint256 internal immutable underlyingDecimals;\n  ERC20 internal immutable fundingToken;\n\n  uint256 internal constant SECONDS_1Y = 31536000; // 365 * 24 * 60 * 60\n\n  uint256 public volCapacityFactor = 0.5e18;\n  uint256 public minTradeAmount = 1e18;\n  uint256 public loanInterest = 0; // Annualised interest rate in 1e18\n  uint256 public hedgingSlippage = 3e15; // 0.3% for hedging slippage (similar to DEX tx fees)\n  bool public allowTrading = true;\n\n  constructor(MoretMarketMaker _marketMaker, OptionVault _vault){\n    _setupRole(DEFAULT_ADMIN_ROLE, msg.sender);\n    _setupRole(ADMIN_ROLE, msg.sender);\n    optionVault = _vault;\n    marketMaker = _marketMaker;\n    fundingToken = ERC20(_vault.funding());\n    fundingDecimals = ERC20(_vault.funding()).decimals();\n    underlyingDecimals = ERC20(_vault.underlying()).decimals();}\n\n  // Returns premium, costs (if sell option, cost includes collateral) and implied volatility\n  function calcCost(uint256 _tenor, uint256 _strike, uint256 _amount, OptionLibrary.PayoffType _poType, OptionLibrary.OptionSide _side) public view returns(uint256 , uint256 , uint256 ){\n    (uint256 _price,) = optionVault.queryPrice();\n    return calcOptionCost(_tenor, _price, _strike, _amount, _poType, _side);}\n\n  function calcOptionCost(uint256 _tenor, uint256 _price, uint256 _strike, uint256 _amount, OptionLibrary.PayoffType _poType, OptionLibrary.OptionSide _side) public view returns(uint256 _premium, uint256 _cost, uint256 _vol){\n    _vol = queryOptionVolatility(_tenor, _strike, _amount, _side);\n    uint256 _interest = loanInterest.muldiv(_tenor, SECONDS_1Y);\n    _premium = OptionLibrary.calcPremium(_price, _vol, _strike, _poType, _amount, _interest, hedgingSlippage);\n    _cost = OptionLibrary.calcCost(_price, _strike, _amount, _poType, _side, _premium);\n    _premium = _premium.toDecimals(fundingDecimals);\n    _cost = _cost.toDecimals(fundingDecimals);}\n\n  function queryOptionVolatility(uint256 _tenor, uint256 _strike, uint256 _amount, OptionLibrary.OptionSide _side) public view returns(uint256 _vol){  \n    _vol = optionVault.queryVol(_tenor); // running vol\n    (uint256 _price,) = optionVault.queryPrice();\n    require(_amount.ethmul(_price)<=marketMaker.calcCapital(true,false),'insufficient capital');\n    int256 _riskPremium = calcRiskPremium(_price, _vol, _strike, _amount, _side);\n    require((SafeCast.toInt256(_vol)+_riskPremium) > 0,\"Incorrect vol premium\");\n    _vol = SafeCast.toUint256(SafeCast.toInt256(_vol)+_riskPremium);}\n\n  function calcRiskPremium(uint256 _price, uint256 _vol, uint256 _strike, uint256 _amount, OptionLibrary.OptionSide _side) internal view returns(int256) {\n    uint256 _maxGamma = OptionLibrary.calcGamma(_price, _price, _vol).muldiv(marketMaker.calcCapital(false, false), _price);\n    int256 _currentGamma = optionVault.calculateAggregateGamma(); // include sells.\n    int256 _newGamma = _currentGamma + SafeCast.toInt256(OptionLibrary.calcGamma(_price, _strike, _vol).ethmul(_amount)) * (_side==OptionLibrary.OptionSide.Sell? -1: int(1));\n    return (OptionLibrary.calcRiskPremiumAMM(_maxGamma, _currentGamma,  _vol, volCapacityFactor) + OptionLibrary.calcRiskPremiumAMM(_maxGamma, _newGamma, _vol, volCapacityFactor)) / 2;}\n\n  function purchaseOption(uint256 _tenor, uint256 _strike, uint256 _amount, OptionLibrary.PayoffType _poType, OptionLibrary.OptionSide _side, uint256 _payInCost) external {\n    require(allowTrading,\"Trading stopped!\");\n    require(minTradeAmount<= _amount, \"Trade amount below minimum.\");\n    (uint256 _price, ) = optionVault.queryPrice();\n    (uint256 _premium, uint256 _cost, uint256 _vol) = calcOptionCost(_tenor, _price, _strike, _amount, _poType, _side );      \n    require(_payInCost >= _cost, \"Incorrect cost paid.\");\n    uint256 _id = optionVault.addOption(_tenor, _strike, _amount, _poType, _side, _premium, _cost, _price, _vol, msg.sender);\n    require(fundingToken.transferFrom(msg.sender, address(marketMaker), _payInCost), 'Failed payment.');  \n    optionVault.stampActiveOption(_id, msg.sender);\n    emit NewOption(msg.sender, optionVault.getOption(_id), _payInCost, false);}\n\n  function getOptionPayoffValue(uint256 _id) external view returns(uint256 _payback){\n    (,_payback) = optionVault.getContractPayoff(_id);}\n\n  function calcVolAmount(uint256 _tenor, uint256 _amount, OptionLibrary.OptionSide _side) public view returns(uint256 _volAmount, uint256 _vol, uint256 _premium, uint256 _cost, uint256 _price){\n    require(address(volTokenAddressList[_tenor])!=address(0), \"Tenor is not set\");\n    (_price, ) = optionVault.queryPrice();\n    (_premium, _cost, _vol) = calcOptionCost(_tenor, _price, _price, _amount, OptionLibrary.PayoffType.Call, _side); \n    _volAmount = _premium.ethdiv(_vol).toDecimals(volTokenAddressList[_tenor].decimals());}\n\n  function buyVol(uint256 _tenor, uint256 _amount, uint256 _payInCost) external {\n    require(allowTrading,\"Trading stopped!\");\n    (uint256 _volAmount, , uint256 _premium, , ) = calcVolAmount(_tenor, _amount, OptionLibrary.OptionSide.Buy);\n    require(_payInCost >= _premium, \"Cost incorrect\");\n    require(fundingToken.transferFrom(msg.sender, address(this), _premium), \"vol payment error\");\n    volTokenAddressList[_tenor].mint(msg.sender, _volAmount);}\n  \n  function sellVol(uint256 _tenor, uint256 _amount, uint256 _payInVol) external {\n    require(allowTrading,\"Trading stopped!\");\n    (uint256 _volAmount,  ,  uint256 _premium,  ,  ) = calcVolAmount(_tenor, _amount, OptionLibrary.OptionSide.Sell);\n    require(_payInVol >= _volAmount, \"Cost incorrect\");\n\n    volTokenAddressList[_tenor].burn(msg.sender, _volAmount);\n    require(fundingToken.transfer(msg.sender, _premium), \"payment error\");}  \n\n  function buyOptionInVol(uint256 _tenor, uint256 _amount, OptionLibrary.PayoffType _poType, uint256 _payInVol) external {\n    require(allowTrading,\"Trading stopped!\");\n    (uint256 _volAmount, uint256 _vol, uint256 _premium, uint256 _cost, uint256 _price) = calcVolAmount(_tenor, _amount, OptionLibrary.OptionSide.Buy);\n    require(_payInVol >= _volAmount, \"Cost incorrect\");\n\n    volTokenAddressList[_tenor].burn(msg.sender, _volAmount);\n    uint256 _id = optionVault.addOption(_tenor, _price, _amount, _poType, OptionLibrary.OptionSide.Buy, _premium, _cost, _price, _vol, msg.sender);\n    require(fundingToken.transfer(address(marketMaker), _premium), 'payment error');  \n    optionVault.stampActiveOption(_id, msg.sender);\n    emit NewOption(msg.sender, optionVault.getOption(_id), _volAmount, true);}\n\n  function sellOptionInVol(uint256 _tenor, uint256 _amount, OptionLibrary.PayoffType _poType, uint256 _payInCost) external {\n    require(allowTrading,\"Trading stopped!\");\n    (uint256 _volAmount, uint256 _vol, uint256 _premium, uint256 _cost, uint256 _price) = calcVolAmount(_tenor, _amount, OptionLibrary.OptionSide.Sell);\n    uint256 _totalCost = _premium + _cost;\n    require(_payInCost >= _totalCost, \"Cost incorrect\");\n\n    require(fundingToken.transferFrom(msg.sender, address(marketMaker), _cost), 'payment error'); \n    require(fundingToken.transferFrom(msg.sender, address(this), _premium), 'payment error');  \n    uint256 _id = optionVault.addOption(_tenor, _price, _amount, _poType, OptionLibrary.OptionSide.Sell, _premium, _cost, _price, _vol, msg.sender);\n    volTokenAddressList[_tenor].mint(msg.sender, _volAmount);\n    optionVault.stampActiveOption(_id, msg.sender);\n    emit NewOption(msg.sender, optionVault.getOption(_id), _volAmount, true);}\n\n  function addVolToken(uint256 _tenor, address _tokenAddress) external onlyRole(ADMIN_ROLE){ \n    require(VolatilityToken(_tokenAddress).tenor()==_tenor && VolatilityToken(_tokenAddress).tokenHash()==optionVault.tokenHash(), 'mismatched token address');\n    volTokenAddressList[_tenor] = VolatilityToken(_tokenAddress);\n    emit VolTokenAddition(_tenor, _tokenAddress); }\n\n  function removeVolToken(uint256 _tenor) external onlyRole(ADMIN_ROLE){ \n    volTokenAddressList[_tenor] = VolatilityToken(address(0));\n    emit VolTokenRemoved(_tenor);}\n\n  function vaultAddress() external view returns(address){return address(optionVault);}\n  function marketMakerAddress() external view returns(address) {return address(marketMaker);}\n\n  function resetLoanRate(uint256 _loanInterest) external onlyRole(ADMIN_ROLE){ \n    loanInterest = _loanInterest;\n    emit ResetParameter(100, _loanInterest);}\n\n  function resetVolCapacityFactor(uint256 _newFactor) external onlyRole(ADMIN_ROLE){ \n    volCapacityFactor =_newFactor;\n    emit ResetParameter(101, _newFactor);}\n\n  function resetMinAmount(uint256 _newAmount) external onlyRole(ADMIN_ROLE){\n    minTradeAmount = _newAmount;\n    emit ResetParameter(102, _newAmount);\n  }\n\n  function resetTrading(bool _allowTrading) external onlyRole(DEFAULT_ADMIN_ROLE) {\n    allowTrading=_allowTrading;\n    emit ResetParameter(102, _allowTrading ? 1 : 0);}\n\n}\n",
  "sourcePath": "/Users/mac/Documents/GitHub/moret/contracts/Exchange.sol",
  "compiler": {
    "name": "solc",
    "version": "0.8.11+commit.d7f03943.Emscripten.clang"
  },
  "schemaVersion": "3.4.3",
  "updatedAt": "2022-01-11T05:35:48.153Z",
  "devdoc": {
    "kind": "dev",
    "methods": {
      "getRoleAdmin(bytes32)": {
        "details": "Returns the admin role that controls `role`. See {grantRole} and {revokeRole}. To change a role's admin, use {_setRoleAdmin}."
      },
      "grantRole(bytes32,address)": {
        "details": "Grants `role` to `account`. If `account` had not been already granted `role`, emits a {RoleGranted} event. Requirements: - the caller must have ``role``'s admin role."
      },
      "hasRole(bytes32,address)": {
        "details": "Returns `true` if `account` has been granted `role`."
      },
      "renounceRole(bytes32,address)": {
        "details": "Revokes `role` from the calling account. Roles are often managed via {grantRole} and {revokeRole}: this function's purpose is to provide a mechanism for accounts to lose their privileges if they are compromised (such as when a trusted device is misplaced). If the calling account had been revoked `role`, emits a {RoleRevoked} event. Requirements: - the caller must be `account`."
      },
      "revokeRole(bytes32,address)": {
        "details": "Revokes `role` from `account`. If `account` had been granted `role`, emits a {RoleRevoked} event. Requirements: - the caller must have ``role``'s admin role."
      },
      "supportsInterface(bytes4)": {
        "details": "See {IERC165-supportsInterface}."
      }
    },
    "version": 1
  },
  "userdoc": {
    "kind": "user",
    "methods": {},
    "version": 1
  }
}