{
  "contractName": "Exchange",
  "abi": [
    {
      "inputs": [
        {
          "internalType": "address",
          "name": "_marketMakerAddress",
          "type": "address"
        },
        {
          "internalType": "address",
          "name": "_vaultAddress",
          "type": "address"
        }
      ],
      "stateMutability": "nonpayable",
      "type": "constructor"
    },
    {
      "anonymous": false,
      "inputs": [
        {
          "indexed": true,
          "internalType": "bytes32",
          "name": "role",
          "type": "bytes32"
        },
        {
          "indexed": true,
          "internalType": "bytes32",
          "name": "previousAdminRole",
          "type": "bytes32"
        },
        {
          "indexed": true,
          "internalType": "bytes32",
          "name": "newAdminRole",
          "type": "bytes32"
        }
      ],
      "name": "RoleAdminChanged",
      "type": "event"
    },
    {
      "anonymous": false,
      "inputs": [
        {
          "indexed": true,
          "internalType": "bytes32",
          "name": "role",
          "type": "bytes32"
        },
        {
          "indexed": true,
          "internalType": "address",
          "name": "account",
          "type": "address"
        },
        {
          "indexed": true,
          "internalType": "address",
          "name": "sender",
          "type": "address"
        }
      ],
      "name": "RoleGranted",
      "type": "event"
    },
    {
      "anonymous": false,
      "inputs": [
        {
          "indexed": true,
          "internalType": "bytes32",
          "name": "role",
          "type": "bytes32"
        },
        {
          "indexed": true,
          "internalType": "address",
          "name": "account",
          "type": "address"
        },
        {
          "indexed": true,
          "internalType": "address",
          "name": "sender",
          "type": "address"
        }
      ],
      "name": "RoleRevoked",
      "type": "event"
    },
    {
      "anonymous": false,
      "inputs": [
        {
          "indexed": false,
          "internalType": "address",
          "name": "_recipient",
          "type": "address"
        },
        {
          "indexed": false,
          "internalType": "uint256",
          "name": "_mintMPTokenAmount",
          "type": "uint256"
        },
        {
          "indexed": false,
          "internalType": "uint256",
          "name": "_addedValue",
          "type": "uint256"
        }
      ],
      "name": "capitalAdded",
      "type": "event"
    },
    {
      "anonymous": false,
      "inputs": [
        {
          "indexed": false,
          "internalType": "address",
          "name": "_recipient",
          "type": "address"
        },
        {
          "indexed": false,
          "internalType": "uint256",
          "name": "_burnMPTokenAmount",
          "type": "uint256"
        },
        {
          "indexed": false,
          "internalType": "uint256",
          "name": "_withdrawValue",
          "type": "uint256"
        }
      ],
      "name": "capitalWithdrawn",
      "type": "event"
    },
    {
      "anonymous": false,
      "inputs": [
        {
          "indexed": true,
          "internalType": "address",
          "name": "_purchaser",
          "type": "address"
        },
        {
          "components": [
            {
              "internalType": "enum OptionLibrary.PayoffType",
              "name": "poType",
              "type": "uint8"
            },
            {
              "internalType": "enum OptionLibrary.OptionSide",
              "name": "side",
              "type": "uint8"
            },
            {
              "internalType": "enum OptionLibrary.OptionStatus",
              "name": "status",
              "type": "uint8"
            },
            {
              "internalType": "address",
              "name": "holder",
              "type": "address"
            },
            {
              "internalType": "uint256",
              "name": "id",
              "type": "uint256"
            },
            {
              "internalType": "uint256",
              "name": "createTime",
              "type": "uint256"
            },
            {
              "internalType": "uint256",
              "name": "effectiveTime",
              "type": "uint256"
            },
            {
              "internalType": "uint256",
              "name": "tenor",
              "type": "uint256"
            },
            {
              "internalType": "uint256",
              "name": "maturity",
              "type": "uint256"
            },
            {
              "internalType": "uint256",
              "name": "exerciseTime",
              "type": "uint256"
            },
            {
              "internalType": "uint256",
              "name": "amount",
              "type": "uint256"
            },
            {
              "internalType": "uint256",
              "name": "spot",
              "type": "uint256"
            },
            {
              "internalType": "uint256",
              "name": "strike",
              "type": "uint256"
            },
            {
              "internalType": "uint256",
              "name": "volatility",
              "type": "uint256"
            },
            {
              "internalType": "uint256",
              "name": "premium",
              "type": "uint256"
            },
            {
              "internalType": "uint256",
              "name": "cost",
              "type": "uint256"
            }
          ],
          "indexed": false,
          "internalType": "struct OptionLibrary.Option",
          "name": "_option",
          "type": "tuple"
        },
        {
          "indexed": false,
          "internalType": "uint256",
          "name": "_cost",
          "type": "uint256"
        },
        {
          "indexed": false,
          "internalType": "bool",
          "name": "_inVol",
          "type": "bool"
        }
      ],
      "name": "newOptionBought",
      "type": "event"
    },
    {
      "anonymous": false,
      "inputs": [
        {
          "indexed": false,
          "internalType": "address",
          "name": "_purchaser",
          "type": "address"
        },
        {
          "indexed": false,
          "internalType": "uint256",
          "name": "_time",
          "type": "uint256"
        },
        {
          "indexed": false,
          "internalType": "uint256",
          "name": "_tenor",
          "type": "uint256"
        },
        {
          "indexed": false,
          "internalType": "uint256",
          "name": "_amount",
          "type": "uint256"
        }
      ],
      "name": "newVolatilityTokenBought",
      "type": "event"
    },
    {
      "anonymous": false,
      "inputs": [
        {
          "indexed": true,
          "internalType": "address",
          "name": "_purchaser",
          "type": "address"
        },
        {
          "components": [
            {
              "internalType": "enum OptionLibrary.PayoffType",
              "name": "poType",
              "type": "uint8"
            },
            {
              "internalType": "enum OptionLibrary.OptionSide",
              "name": "side",
              "type": "uint8"
            },
            {
              "internalType": "enum OptionLibrary.OptionStatus",
              "name": "status",
              "type": "uint8"
            },
            {
              "internalType": "address",
              "name": "holder",
              "type": "address"
            },
            {
              "internalType": "uint256",
              "name": "id",
              "type": "uint256"
            },
            {
              "internalType": "uint256",
              "name": "createTime",
              "type": "uint256"
            },
            {
              "internalType": "uint256",
              "name": "effectiveTime",
              "type": "uint256"
            },
            {
              "internalType": "uint256",
              "name": "tenor",
              "type": "uint256"
            },
            {
              "internalType": "uint256",
              "name": "maturity",
              "type": "uint256"
            },
            {
              "internalType": "uint256",
              "name": "exerciseTime",
              "type": "uint256"
            },
            {
              "internalType": "uint256",
              "name": "amount",
              "type": "uint256"
            },
            {
              "internalType": "uint256",
              "name": "spot",
              "type": "uint256"
            },
            {
              "internalType": "uint256",
              "name": "strike",
              "type": "uint256"
            },
            {
              "internalType": "uint256",
              "name": "volatility",
              "type": "uint256"
            },
            {
              "internalType": "uint256",
              "name": "premium",
              "type": "uint256"
            },
            {
              "internalType": "uint256",
              "name": "cost",
              "type": "uint256"
            }
          ],
          "indexed": false,
          "internalType": "struct OptionLibrary.Option",
          "name": "_option",
          "type": "tuple"
        },
        {
          "indexed": false,
          "internalType": "uint256",
          "name": "_payoff",
          "type": "uint256"
        }
      ],
      "name": "optionExercised",
      "type": "event"
    },
    {
      "inputs": [],
      "name": "DEFAULT_ADMIN_ROLE",
      "outputs": [
        {
          "internalType": "bytes32",
          "name": "",
          "type": "bytes32"
        }
      ],
      "stateMutability": "view",
      "type": "function",
      "constant": true
    },
    {
      "inputs": [],
      "name": "MINER_ROLE",
      "outputs": [
        {
          "internalType": "bytes32",
          "name": "",
          "type": "bytes32"
        }
      ],
      "stateMutability": "view",
      "type": "function",
      "constant": true
    },
    {
      "inputs": [],
      "name": "allowTrading",
      "outputs": [
        {
          "internalType": "bool",
          "name": "",
          "type": "bool"
        }
      ],
      "stateMutability": "view",
      "type": "function",
      "constant": true
    },
    {
      "inputs": [
        {
          "internalType": "bytes32",
          "name": "role",
          "type": "bytes32"
        }
      ],
      "name": "getRoleAdmin",
      "outputs": [
        {
          "internalType": "bytes32",
          "name": "",
          "type": "bytes32"
        }
      ],
      "stateMutability": "view",
      "type": "function",
      "constant": true
    },
    {
      "inputs": [
        {
          "internalType": "bytes32",
          "name": "role",
          "type": "bytes32"
        },
        {
          "internalType": "address",
          "name": "account",
          "type": "address"
        }
      ],
      "name": "grantRole",
      "outputs": [],
      "stateMutability": "nonpayable",
      "type": "function"
    },
    {
      "inputs": [
        {
          "internalType": "bytes32",
          "name": "role",
          "type": "bytes32"
        },
        {
          "internalType": "address",
          "name": "account",
          "type": "address"
        }
      ],
      "name": "hasRole",
      "outputs": [
        {
          "internalType": "bool",
          "name": "",
          "type": "bool"
        }
      ],
      "stateMutability": "view",
      "type": "function",
      "constant": true
    },
    {
      "inputs": [],
      "name": "loanInterest",
      "outputs": [
        {
          "internalType": "uint256",
          "name": "",
          "type": "uint256"
        }
      ],
      "stateMutability": "view",
      "type": "function",
      "constant": true
    },
    {
      "inputs": [],
      "name": "marketMakerAddress",
      "outputs": [
        {
          "internalType": "address",
          "name": "",
          "type": "address"
        }
      ],
      "stateMutability": "view",
      "type": "function",
      "constant": true
    },
    {
      "inputs": [
        {
          "internalType": "bytes32",
          "name": "role",
          "type": "bytes32"
        },
        {
          "internalType": "address",
          "name": "account",
          "type": "address"
        }
      ],
      "name": "renounceRole",
      "outputs": [],
      "stateMutability": "nonpayable",
      "type": "function"
    },
    {
      "inputs": [
        {
          "internalType": "bytes32",
          "name": "role",
          "type": "bytes32"
        },
        {
          "internalType": "address",
          "name": "account",
          "type": "address"
        }
      ],
      "name": "revokeRole",
      "outputs": [],
      "stateMutability": "nonpayable",
      "type": "function"
    },
    {
      "inputs": [
        {
          "internalType": "bytes4",
          "name": "interfaceId",
          "type": "bytes4"
        }
      ],
      "name": "supportsInterface",
      "outputs": [
        {
          "internalType": "bool",
          "name": "",
          "type": "bool"
        }
      ],
      "stateMutability": "view",
      "type": "function",
      "constant": true
    },
    {
      "inputs": [],
      "name": "vaultAddress",
      "outputs": [
        {
          "internalType": "address",
          "name": "",
          "type": "address"
        }
      ],
      "stateMutability": "view",
      "type": "function",
      "constant": true
    },
    {
      "inputs": [],
      "name": "volRiskPremiumMaxRatio",
      "outputs": [
        {
          "internalType": "uint256",
          "name": "",
          "type": "uint256"
        }
      ],
      "stateMutability": "view",
      "type": "function",
      "constant": true
    },
    {
      "inputs": [
        {
          "internalType": "uint256",
          "name": "_tenor",
          "type": "uint256"
        },
        {
          "internalType": "uint256",
          "name": "_strike",
          "type": "uint256"
        },
        {
          "internalType": "uint256",
          "name": "_amount",
          "type": "uint256"
        },
        {
          "internalType": "enum OptionLibrary.PayoffType",
          "name": "_poType",
          "type": "uint8"
        },
        {
          "internalType": "enum OptionLibrary.OptionSide",
          "name": "_side",
          "type": "uint8"
        }
      ],
      "name": "calcOptionCost",
      "outputs": [
        {
          "internalType": "uint256",
          "name": "_premium",
          "type": "uint256"
        },
        {
          "internalType": "uint256",
          "name": "_cost",
          "type": "uint256"
        },
        {
          "internalType": "uint256",
          "name": "_price",
          "type": "uint256"
        },
        {
          "internalType": "uint256",
          "name": "_vol",
          "type": "uint256"
        }
      ],
      "stateMutability": "view",
      "type": "function",
      "constant": true
    },
    {
      "inputs": [
        {
          "internalType": "uint256",
          "name": "_tenor",
          "type": "uint256"
        },
        {
          "internalType": "uint256",
          "name": "_strike",
          "type": "uint256"
        },
        {
          "internalType": "uint256",
          "name": "_amount",
          "type": "uint256"
        },
        {
          "internalType": "enum OptionLibrary.OptionSide",
          "name": "_side",
          "type": "uint8"
        }
      ],
      "name": "queryOptionVolatility",
      "outputs": [
        {
          "internalType": "uint256",
          "name": "_vol",
          "type": "uint256"
        }
      ],
      "stateMutability": "view",
      "type": "function",
      "constant": true
    },
    {
      "inputs": [
        {
          "internalType": "uint256",
          "name": "_tenor",
          "type": "uint256"
        },
        {
          "internalType": "uint256",
          "name": "_strike",
          "type": "uint256"
        },
        {
          "internalType": "uint256",
          "name": "_amount",
          "type": "uint256"
        },
        {
          "internalType": "enum OptionLibrary.PayoffType",
          "name": "_poType",
          "type": "uint8"
        },
        {
          "internalType": "enum OptionLibrary.OptionSide",
          "name": "_side",
          "type": "uint8"
        },
        {
          "internalType": "uint256",
          "name": "_payInCost",
          "type": "uint256"
        }
      ],
      "name": "purchaseOption",
      "outputs": [],
      "stateMutability": "nonpayable",
      "type": "function"
    },
    {
      "inputs": [
        {
          "internalType": "uint256",
          "name": "_id",
          "type": "uint256"
        }
      ],
      "name": "getOptionPayoffValue",
      "outputs": [
        {
          "internalType": "uint256",
          "name": "_payback",
          "type": "uint256"
        }
      ],
      "stateMutability": "view",
      "type": "function",
      "constant": true
    },
    {
      "inputs": [
        {
          "internalType": "uint256",
          "name": "_loanInterest",
          "type": "uint256"
        }
      ],
      "name": "resetLoanRate",
      "outputs": [],
      "stateMutability": "nonpayable",
      "type": "function"
    },
    {
      "inputs": [
        {
          "internalType": "uint256",
          "name": "_newRatio",
          "type": "uint256"
        }
      ],
      "name": "resetRiskPremiumMaxRatio",
      "outputs": [],
      "stateMutability": "nonpayable",
      "type": "function"
    },
    {
      "inputs": [
        {
          "internalType": "bool",
          "name": "_allowTrading",
          "type": "bool"
        }
      ],
      "name": "resetTrading",
      "outputs": [],
      "stateMutability": "nonpayable",
      "type": "function"
    },
    {
      "inputs": [],
      "name": "queryPrice",
      "outputs": [
        {
          "internalType": "uint256",
          "name": "",
          "type": "uint256"
        },
        {
          "internalType": "uint256",
          "name": "",
          "type": "uint256"
        }
      ],
      "stateMutability": "view",
      "type": "function",
      "constant": true
    },
    {
      "inputs": [
        {
          "internalType": "uint256",
          "name": "_tenor",
          "type": "uint256"
        }
      ],
      "name": "queryVol",
      "outputs": [
        {
          "internalType": "uint256",
          "name": "",
          "type": "uint256"
        }
      ],
      "stateMutability": "view",
      "type": "function",
      "constant": true
    }
  ],
  "bytecode": "0x60806040526718fae27693b4000060055560006006556001600760006101000a81548160ff0219169083151502179055503480156200003d57600080fd5b5060405162003c7638038062003c76833981810160405281019062000063919062000399565b620000786000801b33620001b660201b60201c565b620000aa7fa952726ef2588ad078edf35b066f7c7406e207cb0003bbaba8cb53eba9553e7233620001b660201b60201c565b80600160006101000a81548173ffffffffffffffffffffffffffffffffffffffff021916908373ffffffffffffffffffffffffffffffffffffffff16021790555080600460006101000a81548173ffffffffffffffffffffffffffffffffffffffff021916908373ffffffffffffffffffffffffffffffffffffffff16021790555081600260006101000a81548173ffffffffffffffffffffffffffffffffffffffff021916908373ffffffffffffffffffffffffffffffffffffffff16021790555081600360006101000a81548173ffffffffffffffffffffffffffffffffffffffff021916908373ffffffffffffffffffffffffffffffffffffffff1602179055505050620003e0565b620001c88282620001cc60201b60201c565b5050565b620001de8282620002bd60201b60201c565b620002b957600160008084815260200190815260200160002060000160008373ffffffffffffffffffffffffffffffffffffffff1673ffffffffffffffffffffffffffffffffffffffff16815260200190815260200160002060006101000a81548160ff0219169083151502179055506200025e6200032760201b60201c565b73ffffffffffffffffffffffffffffffffffffffff168173ffffffffffffffffffffffffffffffffffffffff16837f2f8788117e7eff1d82e926ec794901d17c78024a50270940304540a733656f0d60405160405180910390a45b5050565b600080600084815260200190815260200160002060000160008373ffffffffffffffffffffffffffffffffffffffff1673ffffffffffffffffffffffffffffffffffffffff16815260200190815260200160002060009054906101000a900460ff16905092915050565b600033905090565b600080fd5b600073ffffffffffffffffffffffffffffffffffffffff82169050919050565b6000620003618262000334565b9050919050565b620003738162000354565b81146200037f57600080fd5b50565b600081519050620003938162000368565b92915050565b60008060408385031215620003b357620003b26200032f565b5b6000620003c38582860162000382565b9250506020620003d68582860162000382565b9150509250929050565b61388680620003f06000396000f3fe608060405234801561001057600080fd5b50600436106101425760003560e01c806385e6be8b116100b8578063a34a1e4d1161007c578063a34a1e4d1461038c578063a7292ea4146103a8578063b0667cf8146103c6578063cc910588146103e5578063cfc2dc2014610403578063d547741f1461043357610142565b806385e6be8b146102d3578063896b5b1d146102ef5780638d4939c61461032257806391d148541461033e578063a217fddf1461036e57610142565b80632f2ff15d1161010a5780632f2ff15d146101ff57806336568abe1461021b57806340d6eaab14610237578063430bf08a146102675780636394f6e6146102855780636a7d116f146102a357610142565b806301ffc9a7146101475780630875c6b1146101775780630c64307d14610195578063248a9ca3146101b15780632e5b4c43146101e1575b600080fd5b610161600480360381019061015c9190612465565b61044f565b60405161016e91906124ad565b60405180910390f35b61017f6104c9565b60405161018c91906124e1565b60405180910390f35b6101af60048036038101906101aa9190612528565b6104cf565b005b6101cb60048036038101906101c6919061258b565b61050c565b6040516101d891906125c7565b60405180910390f35b6101e961052b565b6040516101f691906124ad565b60405180910390f35b61021960048036038101906102149190612640565b61053e565b005b61023560048036038101906102309190612640565b610567565b005b610251600480360381019061024c9190612528565b6105ea565b60405161025e91906124e1565b60405180910390f35b61026f6106a1565b60405161027c919061268f565b60405180910390f35b61028d6106c7565b60405161029a91906125c7565b60405180910390f35b6102bd60048036038101906102b891906126cf565b6106eb565b6040516102ca91906124e1565b60405180910390f35b6102ed60048036038101906102e89190612528565b610a2b565b005b6103096004803603810190610304919061275b565b610a4b565b60405161031994939291906127d6565b60405180910390f35b61033c60048036038101906103379190612847565b61109d565b005b61035860048036038101906103539190612640565b6110d0565b60405161036591906124ad565b60405180910390f35b61037661113a565b60405161038391906125c7565b60405180910390f35b6103a660048036038101906103a19190612874565b611141565b005b6103b06114dc565b6040516103bd91906124e1565b60405180910390f35b6103ce6114e2565b6040516103dc929190612901565b60405180910390f35b6103ed61158c565b6040516103fa919061268f565b60405180910390f35b61041d60048036038101906104189190612528565b6115b2565b60405161042a91906124e1565b60405180910390f35b61044d60048036038101906104489190612640565b611666565b005b60007f7965db0b000000000000000000000000000000000000000000000000000000007bffffffffffffffffffffffffffffffffffffffffffffffffffffffff1916827bffffffffffffffffffffffffffffffffffffffffffffffffffffffff191614806104c257506104c18261168f565b5b9050919050565b60055481565b7fa952726ef2588ad078edf35b066f7c7406e207cb0003bbaba8cb53eba9553e72610501816104fc6116f9565b611701565b816006819055505050565b6000806000838152602001908152602001600020600101549050919050565b600760009054906101000a900460ff1681565b6105478261050c565b610558816105536116f9565b611701565b610562838361179e565b505050565b61056f6116f9565b73ffffffffffffffffffffffffffffffffffffffff168173ffffffffffffffffffffffffffffffffffffffff16146105dc576040517f08c379a00000000000000000000000000000000000000000000000000000000081526004016105d3906129ad565b60405180910390fd5b6105e6828261187e565b5050565b6000600460009054906101000a900473ffffffffffffffffffffffffffffffffffffffff1673ffffffffffffffffffffffffffffffffffffffff166385ae10e6836040518263ffffffff1660e01b815260040161064791906124e1565b604080518083038186803b15801561065e57600080fd5b505afa158015610672573d6000803e3d6000fd5b505050506040513d601f19601f8201168201806040525081019061069691906129e2565b905080915050919050565b600160009054906101000a900473ffffffffffffffffffffffffffffffffffffffff1681565b7fa952726ef2588ad078edf35b066f7c7406e207cb0003bbaba8cb53eba9553e7281565b6000600460009054906101000a900473ffffffffffffffffffffffffffffffffffffffff1673ffffffffffffffffffffffffffffffffffffffff1663cfc2dc20866040518263ffffffff1660e01b815260040161074891906124e1565b60206040518083038186803b15801561076057600080fd5b505afa158015610774573d6000803e3d6000fd5b505050506040513d601f19601f820116820180604052508101906107989190612a22565b90506000600460009054906101000a900473ffffffffffffffffffffffffffffffffffffffff1673ffffffffffffffffffffffffffffffffffffffff1663b0667cf86040518163ffffffff1660e01b8152600401604080518083038186803b15801561080357600080fd5b505afa158015610817573d6000803e3d6000fd5b505050506040513d601f19601f8201168201806040525081019061083b91906129e2565b509050600360009054906101000a900473ffffffffffffffffffffffffffffffffffffffff1673ffffffffffffffffffffffffffffffffffffffff166363447902600160006040518363ffffffff1660e01b815260040161089d929190612a4f565b60206040518083038186803b1580156108b557600080fd5b505afa1580156108c9573d6000803e3d6000fd5b505050506040513d601f19601f820116820180604052508101906108ed9190612a22565b610973858373__OptionLibrary_________________________63fd9b87636040518163ffffffff1660e01b815260040160206040518083038186803b15801561093657600080fd5b505af415801561094a573d6000803e3d6000fd5b505050506040513d601f19601f8201168201806040525081019061096e9190612a22565b61195f565b11156109b4576040517f08c379a00000000000000000000000000000000000000000000000000000000081526004016109ab90612ac4565b60405180910390fd5b60006109c38284888888611a5b565b9050600081846109d39190612b1d565b13610a13576040517f08c379a0000000000000000000000000000000000000000000000000000000008152600401610a0a90612bfd565b60405180910390fd5b8083610a1f9190612b1d565b92505050949350505050565b6000801b610a4081610a3b6116f9565b611701565b816005819055505050565b600080600080610a5d898989886106eb565b9050600073__OptionLibrary_________________________63508cd14e8a6000600360009054906101000a900473ffffffffffffffffffffffffffffffffffffffff1673ffffffffffffffffffffffffffffffffffffffff16631aedeabe6040518163ffffffff1660e01b815260040160206040518083038186803b158015610ae657600080fd5b505afa158015610afa573d6000803e3d6000fd5b505050506040513d601f19601f82011682018060405250810190610b1e9190612a22565b60006040518563ffffffff1660e01b8152600401610b3f9493929190612c80565b60206040518083038186803b158015610b5757600080fd5b505af4158015610b6b573d6000803e3d6000fd5b505050506040513d601f19601f82011682018060405250810190610b8f9190612a22565b9050600180811115610ba457610ba3612cc5565b5b876001811115610bb757610bb6612cc5565b5b148015610be8575060006001811115610bd357610bd2612cc5565b5b866001811115610be657610be5612cc5565b5b145b80610c46575060006001811115610c0257610c01612cc5565b5b876001811115610c1557610c14612cc5565b5b148015610c455750600180811115610c3057610c2f612cc5565b5b866001811115610c4357610c42612cc5565b5b145b5b15610d7d5773__OptionLibrary_________________________63508cd14e8a6001600360009054906101000a900473ffffffffffffffffffffffffffffffffffffffff1673ffffffffffffffffffffffffffffffffffffffff16631aedeabe6040518163ffffffff1660e01b815260040160206040518083038186803b158015610cd057600080fd5b505afa158015610ce4573d6000803e3d6000fd5b505050506040513d601f19601f82011682018060405250810190610d089190612a22565b6006546040518563ffffffff1660e01b8152600401610d2a9493929190612cf4565b60206040518083038186803b158015610d4257600080fd5b505af4158015610d56573d6000803e3d6000fd5b505050506040513d601f19601f82011682018060405250810190610d7a9190612a22565b90505b600460009054906101000a900473ffffffffffffffffffffffffffffffffffffffff1673ffffffffffffffffffffffffffffffffffffffff166376df2d08828a858b8b6040518663ffffffff1660e01b8152600401610de0959493929190612dc9565b60606040518083038186803b158015610df857600080fd5b505afa158015610e0c573d6000803e3d6000fd5b505050506040513d601f19601f82011682018060405250810190610e309190612e1c565b80955081965082975050505073__MarketLibrary_________________________638170ce8086600460009054906101000a900473ffffffffffffffffffffffffffffffffffffffff1673ffffffffffffffffffffffffffffffffffffffff1663cb4c86b76040518163ffffffff1660e01b815260040160206040518083038186803b158015610ebf57600080fd5b505afa158015610ed3573d6000803e3d6000fd5b505050506040513d601f19601f82011682018060405250810190610ef79190612e84565b6040518363ffffffff1660e01b8152600401610f14929190612ec0565b60206040518083038186803b158015610f2c57600080fd5b505af4158015610f40573d6000803e3d6000fd5b505050506040513d601f19601f82011682018060405250810190610f649190612a22565b945073__MarketLibrary_________________________638170ce8085600460009054906101000a900473ffffffffffffffffffffffffffffffffffffffff1673ffffffffffffffffffffffffffffffffffffffff1663cb4c86b76040518163ffffffff1660e01b815260040160206040518083038186803b158015610fe957600080fd5b505afa158015610ffd573d6000803e3d6000fd5b505050506040513d601f19601f820116820180604052508101906110219190612e84565b6040518363ffffffff1660e01b815260040161103e929190612ec0565b60206040518083038186803b15801561105657600080fd5b505af415801561106a573d6000803e3d6000fd5b505050506040513d601f19601f8201168201806040525081019061108e9190612a22565b93505095509550955095915050565b6000801b6110b2816110ad6116f9565b611701565b81600760006101000a81548160ff0219169083151502179055505050565b600080600084815260200190815260200160002060000160008373ffffffffffffffffffffffffffffffffffffffff1673ffffffffffffffffffffffffffffffffffffffff16815260200190815260200160002060009054906101000a900460ff16905092915050565b6000801b81565b600760009054906101000a900460ff16611190576040517f08c379a000000000000000000000000000000000000000000000000000000000815260040161118790612f35565b60405180910390fd5b6000806000806111a38a8a8a8a8a610a4b565b9350935093509350828510156111ee576040517f08c379a00000000000000000000000000000000000000000000000000000000081526004016111e590612fa1565b60405180910390fd5b6000600460009054906101000a900473ffffffffffffffffffffffffffffffffffffffff1673ffffffffffffffffffffffffffffffffffffffff1663b5310ff98c8c8c8c8c8b8b8b8b336040518b63ffffffff1660e01b815260040161125d9a99989796959493929190612fc1565b602060405180830381600087803b15801561127757600080fd5b505af115801561128b573d6000803e3d6000fd5b505050506040513d601f19601f820116820180604052508101906112af9190612a22565b9050600460009054906101000a900473ffffffffffffffffffffffffffffffffffffffff1673ffffffffffffffffffffffffffffffffffffffff1663cb4c86b76040518163ffffffff1660e01b815260040160206040518083038186803b15801561131957600080fd5b505afa15801561132d573d6000803e3d6000fd5b505050506040513d601f19601f820116820180604052508101906113519190612e84565b73ffffffffffffffffffffffffffffffffffffffff166323b872dd33600360009054906101000a900473ffffffffffffffffffffffffffffffffffffffff16896040518463ffffffff1660e01b81526004016113af9392919061305d565b602060405180830381600087803b1580156113c957600080fd5b505af11580156113dd573d6000803e3d6000fd5b505050506040513d601f19601f8201168201806040525081019061140191906130a9565b611440576040517f08c379a000000000000000000000000000000000000000000000000000000000815260040161143790613122565b60405180910390fd5b600460009054906101000a900473ffffffffffffffffffffffffffffffffffffffff1673ffffffffffffffffffffffffffffffffffffffff166324b4110e82336040518363ffffffff1660e01b815260040161149d929190613142565b600060405180830381600087803b1580156114b757600080fd5b505af11580156114cb573d6000803e3d6000fd5b505050505050505050505050505050565b60065481565b600080600460009054906101000a900473ffffffffffffffffffffffffffffffffffffffff1673ffffffffffffffffffffffffffffffffffffffff1663b0667cf86040518163ffffffff1660e01b8152600401604080518083038186803b15801561154c57600080fd5b505afa158015611560573d6000803e3d6000fd5b505050506040513d601f19601f8201168201806040525081019061158491906129e2565b915091509091565b600260009054906101000a900473ffffffffffffffffffffffffffffffffffffffff1681565b6000600460009054906101000a900473ffffffffffffffffffffffffffffffffffffffff1673ffffffffffffffffffffffffffffffffffffffff1663cfc2dc20836040518263ffffffff1660e01b815260040161160f91906124e1565b60206040518083038186803b15801561162757600080fd5b505afa15801561163b573d6000803e3d6000fd5b505050506040513d601f19601f8201168201806040525081019061165f9190612a22565b9050919050565b61166f8261050c565b6116808161167b6116f9565b611701565b61168a838361187e565b505050565b60007f01ffc9a7000000000000000000000000000000000000000000000000000000007bffffffffffffffffffffffffffffffffffffffffffffffffffffffff1916827bffffffffffffffffffffffffffffffffffffffffffffffffffffffff1916149050919050565b600033905090565b61170b82826110d0565b61179a576117308173ffffffffffffffffffffffffffffffffffffffff166014611e96565b61173e8360001c6020611e96565b60405160200161174f92919061327d565b6040516020818303038152906040526040517f08c379a00000000000000000000000000000000000000000000000000000000081526004016117919190613301565b60405180910390fd5b5050565b6117a882826110d0565b61187a57600160008084815260200190815260200160002060000160008373ffffffffffffffffffffffffffffffffffffffff1673ffffffffffffffffffffffffffffffffffffffff16815260200190815260200160002060006101000a81548160ff02191690831515021790555061181f6116f9565b73ffffffffffffffffffffffffffffffffffffffff168173ffffffffffffffffffffffffffffffffffffffff16837f2f8788117e7eff1d82e926ec794901d17c78024a50270940304540a733656f0d60405160405180910390a45b5050565b61188882826110d0565b1561195b57600080600084815260200190815260200160002060000160008373ffffffffffffffffffffffffffffffffffffffff1673ffffffffffffffffffffffffffffffffffffffff16815260200190815260200160002060006101000a81548160ff0219169083151502179055506119006116f9565b73ffffffffffffffffffffffffffffffffffffffff168173ffffffffffffffffffffffffffffffffffffffff16837ff6391f5c32d9c69d2a47ea670b442974b53935d1edc7fd64eb21e047a839171b60405160405180910390a45b5050565b60008060008019858709858702925082811083820303915050600081141561199a576000841161198e57600080fd5b83820492505050611a54565b8084116119a657600080fd5b60008486880990508281118203915080830392506000856001877fffffffffffffffffffffffffffffffffffffffffffffffffffffffffffffffff0301169050808604955080840493506001818260000304019050808302841793506000600287600302189050808702600203810290508087026002038102905080870260020381029050808702600203810290508087026002038102905080870260020381029050808502955050505050505b9392505050565b600080611ba073__OptionLibrary_________________________639932b2be898a8a6040518463ffffffff1660e01b8152600401611a9c93929190613323565b60206040518083038186803b158015611ab457600080fd5b505af4158015611ac8573d6000803e3d6000fd5b505050506040513d601f19601f82011682018060405250810190611aec9190612a22565b600360009054906101000a900473ffffffffffffffffffffffffffffffffffffffff1673ffffffffffffffffffffffffffffffffffffffff1663634479026000806040518363ffffffff1660e01b8152600401611b4a929190612a4f565b60206040518083038186803b158015611b6257600080fd5b505afa158015611b76573d6000803e3d6000fd5b505050506040513d601f19601f82011682018060405250810190611b9a9190612a22565b8961195f565b90506000600460009054906101000a900473ffffffffffffffffffffffffffffffffffffffff1673ffffffffffffffffffffffffffffffffffffffff1663ea3d612d60006040518263ffffffff1660e01b8152600401611c0091906124ad565b60206040518083038186803b158015611c1857600080fd5b505afa158015611c2c573d6000803e3d6000fd5b505050506040513d601f19601f82011682018060405250810190611c509190613386565b90506000600180811115611c6757611c66612cc5565b5b856001811115611c7a57611c79612cc5565b5b14611c86576001611ca8565b7fffffffffffffffffffffffffffffffffffffffffffffffffffffffffffffffff5b611db873__OptionLibrary_________________________639932b2be8c8b8d6040518463ffffffff1660e01b8152600401611ce693929190613323565b60206040518083038186803b158015611cfe57600080fd5b505af4158015611d12573d6000803e3d6000fd5b505050506040513d601f19601f82011682018060405250810190611d369190612a22565b8873__OptionLibrary_________________________63fd9b87636040518163ffffffff1660e01b815260040160206040518083038186803b158015611d7b57600080fd5b505af4158015611d8f573d6000803e3d6000fd5b505050506040513d601f19601f82011682018060405250810190611db39190612a22565b61195f565b611dc291906133b3565b82611dcd9190612b1d565b90506000611e598960055473__OptionLibrary_________________________63fd9b87636040518163ffffffff1660e01b815260040160206040518083038186803b158015611e1c57600080fd5b505af4158015611e30573d6000803e3d6000fd5b505050506040513d601f19601f82011682018060405250810190611e549190612a22565b61195f565b90506002611e688584846120d2565b611e738686856120d2565b611e7d9190612b1d565b611e8791906134f9565b94505050505095945050505050565b606060006002836002611ea99190613563565b611eb391906135bd565b67ffffffffffffffff811115611ecc57611ecb613613565b5b6040519080825280601f01601f191660200182016040528015611efe5781602001600182028036833780820191505090505b5090507f300000000000000000000000000000000000000000000000000000000000000081600081518110611f3657611f35613642565b5b60200101907effffffffffffffffffffffffffffffffffffffffffffffffffffffffffffff1916908160001a9053507f780000000000000000000000000000000000000000000000000000000000000081600181518110611f9a57611f99613642565b5b60200101907effffffffffffffffffffffffffffffffffffffffffffffffffffffffffffff1916908160001a90535060006001846002611fda9190613563565b611fe491906135bd565b90505b6001811115612084577f3031323334353637383961626364656600000000000000000000000000000000600f86166010811061202657612025613642565b5b1a60f81b82828151811061203d5761203c613642565b5b60200101907effffffffffffffffffffffffffffffffffffffffffffffffffffffffffffff1916908160001a905350600485901c94508061207d90613671565b9050611fe7565b50600084146120c8576040517f08c379a00000000000000000000000000000000000000000000000000000000081526004016120bf906136e7565b60405180910390fd5b8091505092915050565b60008073__OptionLibrary_________________________63fd9b87636040518163ffffffff1660e01b815260040160206040518083038186803b15801561211957600080fd5b505af415801561212d573d6000803e3d6000fd5b505050506040513d601f19601f820116820180604052508101906121519190612a22565b905060008412156121f9576121eb8461216990613707565b73__OptionLibrary_________________________63fd9b87636040518163ffffffff1660e01b815260040160206040518083038186803b1580156121ad57600080fd5b505af41580156121c1573d6000803e3d6000fd5b505050506040513d601f19601f820116820180604052508101906121e59190612a22565b8761195f565b816121f69190612b1d565b90505b6000841315612296576122888473__OptionLibrary_________________________63fd9b87636040518163ffffffff1660e01b815260040160206040518083038186803b15801561224a57600080fd5b505af415801561225e573d6000803e3d6000fd5b505050506040513d601f19601f820116820180604052508101906122829190612a22565b8761195f565b816122939190613750565b90505b6000811215801561232e575073__OptionLibrary_________________________63fd9b87636040518163ffffffff1660e01b815260040160206040518083038186803b1580156122e657600080fd5b505af41580156122fa573d6000803e3d6000fd5b505050506040513d601f19601f8201168201806040525081019061231e9190612a22565b600261232a9190613563565b8113155b61236d576040517f08c379a000000000000000000000000000000000000000000000000000000000815260040161236490613830565b60405180910390fd5b826123f48473__OptionLibrary_________________________63fd9b87636040518163ffffffff1660e01b815260040160206040518083038186803b1580156123b657600080fd5b505af41580156123ca573d6000803e3d6000fd5b505050506040513d601f19601f820116820180604052508101906123ee9190612a22565b8461195f565b6123fe9190613750565b9150509392505050565b600080fd5b60007fffffffff0000000000000000000000000000000000000000000000000000000082169050919050565b6124428161240d565b811461244d57600080fd5b50565b60008135905061245f81612439565b92915050565b60006020828403121561247b5761247a612408565b5b600061248984828501612450565b91505092915050565b60008115159050919050565b6124a781612492565b82525050565b60006020820190506124c2600083018461249e565b92915050565b6000819050919050565b6124db816124c8565b82525050565b60006020820190506124f660008301846124d2565b92915050565b612505816124c8565b811461251057600080fd5b50565b600081359050612522816124fc565b92915050565b60006020828403121561253e5761253d612408565b5b600061254c84828501612513565b91505092915050565b6000819050919050565b61256881612555565b811461257357600080fd5b50565b6000813590506125858161255f565b92915050565b6000602082840312156125a1576125a0612408565b5b60006125af84828501612576565b91505092915050565b6125c181612555565b82525050565b60006020820190506125dc60008301846125b8565b92915050565b600073ffffffffffffffffffffffffffffffffffffffff82169050919050565b600061260d826125e2565b9050919050565b61261d81612602565b811461262857600080fd5b50565b60008135905061263a81612614565b92915050565b6000806040838503121561265757612656612408565b5b600061266585828601612576565b92505060206126768582860161262b565b9150509250929050565b61268981612602565b82525050565b60006020820190506126a46000830184612680565b92915050565b600281106126b757600080fd5b50565b6000813590506126c9816126aa565b92915050565b600080600080608085870312156126e9576126e8612408565b5b60006126f787828801612513565b945050602061270887828801612513565b935050604061271987828801612513565b925050606061272a878288016126ba565b91505092959194509250565b6002811061274357600080fd5b50565b60008135905061275581612736565b92915050565b600080600080600060a0868803121561277757612776612408565b5b600061278588828901612513565b955050602061279688828901612513565b94505060406127a788828901612513565b93505060606127b888828901612746565b92505060806127c9888289016126ba565b9150509295509295909350565b60006080820190506127eb60008301876124d2565b6127f860208301866124d2565b61280560408301856124d2565b61281260608301846124d2565b95945050505050565b61282481612492565b811461282f57600080fd5b50565b6000813590506128418161281b565b92915050565b60006020828403121561285d5761285c612408565b5b600061286b84828501612832565b91505092915050565b60008060008060008060c0878903121561289157612890612408565b5b600061289f89828a01612513565b96505060206128b089828a01612513565b95505060406128c189828a01612513565b94505060606128d289828a01612746565b93505060806128e389828a016126ba565b92505060a06128f489828a01612513565b9150509295509295509295565b600060408201905061291660008301856124d2565b61292360208301846124d2565b9392505050565b600082825260208201905092915050565b7f416363657373436f6e74726f6c3a2063616e206f6e6c792072656e6f756e636560008201527f20726f6c657320666f722073656c660000000000000000000000000000000000602082015250565b6000612997602f8361292a565b91506129a28261293b565b604082019050919050565b600060208201905081810360008301526129c68161298a565b9050919050565b6000815190506129dc816124fc565b92915050565b600080604083850312156129f9576129f8612408565b5b6000612a07858286016129cd565b9250506020612a18858286016129cd565b9150509250929050565b600060208284031215612a3857612a37612408565b5b6000612a46848285016129cd565b91505092915050565b6000604082019050612a64600083018561249e565b612a71602083018461249e565b9392505050565b7f696e73756666696369656e74206361706974616c000000000000000000000000600082015250565b6000612aae60148361292a565b9150612ab982612a78565b602082019050919050565b60006020820190508181036000830152612add81612aa1565b9050919050565b6000819050919050565b7f4e487b7100000000000000000000000000000000000000000000000000000000600052601160045260246000fd5b6000612b2882612ae4565b9150612b3383612ae4565b9250817f7fffffffffffffffffffffffffffffffffffffffffffffffffffffffffffffff03831360008312151615612b6e57612b6d612aee565b5b817f8000000000000000000000000000000000000000000000000000000000000000038312600083121615612ba657612ba5612aee565b5b828201905092915050565b7f496e636f727265637420766f6c207072656d69756d0000000000000000000000600082015250565b6000612be760158361292a565b9150612bf282612bb1565b602082019050919050565b60006020820190508181036000830152612c1681612bda565b9050919050565b612c26816124c8565b82525050565b612c3581612492565b82525050565b6000819050919050565b6000819050919050565b6000612c6a612c65612c6084612c3b565b612c45565b6124c8565b9050919050565b612c7a81612c4f565b82525050565b6000608082019050612c956000830187612c1d565b612ca26020830186612c2c565b612caf6040830185612c1d565b612cbc6060830184612c71565b95945050505050565b7f4e487b7100000000000000000000000000000000000000000000000000000000600052602160045260246000fd5b6000608082019050612d096000830187612c1d565b612d166020830186612c2c565b612d236040830185612c1d565b612d306060830184612c1d565b95945050505050565b60028110612d4a57612d49612cc5565b5b50565b6000819050612d5b82612d39565b919050565b6000612d6b82612d4d565b9050919050565b612d7b81612d60565b82525050565b60028110612d9257612d91612cc5565b5b50565b6000819050612da382612d81565b919050565b6000612db382612d95565b9050919050565b612dc381612da8565b82525050565b600060a082019050612dde60008301886124d2565b612deb60208301876124d2565b612df860408301866124d2565b612e056060830185612d72565b612e126080830184612dba565b9695505050505050565b600080600060608486031215612e3557612e34612408565b5b6000612e43868287016129cd565b9350506020612e54868287016129cd565b9250506040612e65868287016129cd565b9150509250925092565b600081519050612e7e81612614565b92915050565b600060208284031215612e9a57612e99612408565b5b6000612ea884828501612e6f565b91505092915050565b612eba81612602565b82525050565b6000604082019050612ed56000830185612c1d565b612ee26020830184612eb1565b9392505050565b7f54726164696e672073746f707065642100000000000000000000000000000000600082015250565b6000612f1f60108361292a565b9150612f2a82612ee9565b602082019050919050565b60006020820190508181036000830152612f4e81612f12565b9050919050565b7f496e636f727265637420636f737420706169642e000000000000000000000000600082015250565b6000612f8b60148361292a565b9150612f9682612f55565b602082019050919050565b60006020820190508181036000830152612fba81612f7e565b9050919050565b600061014082019050612fd7600083018d6124d2565b612fe4602083018c6124d2565b612ff1604083018b6124d2565b612ffe606083018a612d72565b61300b6080830189612dba565b61301860a08301886124d2565b61302560c08301876124d2565b61303260e08301866124d2565b6130406101008301856124d2565b61304e610120830184612680565b9b9a5050505050505050505050565b60006060820190506130726000830186612680565b61307f6020830185612680565b61308c60408301846124d2565b949350505050565b6000815190506130a38161281b565b92915050565b6000602082840312156130bf576130be612408565b5b60006130cd84828501613094565b91505092915050565b7f4661696c6564207061796d656e742e0000000000000000000000000000000000600082015250565b600061310c600f8361292a565b9150613117826130d6565b602082019050919050565b6000602082019050818103600083015261313b816130ff565b9050919050565b600060408201905061315760008301856124d2565b6131646020830184612680565b9392505050565b600081905092915050565b7f416363657373436f6e74726f6c3a206163636f756e7420000000000000000000600082015250565b60006131ac60178361316b565b91506131b782613176565b601782019050919050565b600081519050919050565b60005b838110156131eb5780820151818401526020810190506131d0565b838111156131fa576000848401525b50505050565b600061320b826131c2565b613215818561316b565b93506132258185602086016131cd565b80840191505092915050565b7f206973206d697373696e6720726f6c6520000000000000000000000000000000600082015250565b600061326760118361316b565b915061327282613231565b601182019050919050565b60006132888261319f565b91506132948285613200565b915061329f8261325a565b91506132ab8284613200565b91508190509392505050565b6000601f19601f8301169050919050565b60006132d3826131c2565b6132dd818561292a565b93506132ed8185602086016131cd565b6132f6816132b7565b840191505092915050565b6000602082019050818103600083015261331b81846132c8565b905092915050565b60006060820190506133386000830186612c1d565b6133456020830185612c1d565b6133526040830184612c1d565b949350505050565b61336381612ae4565b811461336e57600080fd5b50565b6000815190506133808161335a565b92915050565b60006020828403121561339c5761339b612408565b5b60006133aa84828501613371565b91505092915050565b60006133be82612ae4565b91506133c983612ae4565b9250827f7fffffffffffffffffffffffffffffffffffffffffffffffffffffffffffffff048211600084136000841316161561340857613407612aee565b5b817f8000000000000000000000000000000000000000000000000000000000000000058312600084126000841316161561344557613444612aee565b5b827f8000000000000000000000000000000000000000000000000000000000000000058212600084136000841216161561348257613481612aee565b5b827f7fffffffffffffffffffffffffffffffffffffffffffffffffffffffffffffff05821260008412600084121616156134bf576134be612aee565b5b828202905092915050565b7f4e487b7100000000000000000000000000000000000000000000000000000000600052601260045260246000fd5b600061350482612ae4565b915061350f83612ae4565b92508261351f5761351e6134ca565b5b600160000383147f80000000000000000000000000000000000000000000000000000000000000008314161561355857613557612aee565b5b828205905092915050565b600061356e826124c8565b9150613579836124c8565b9250817fffffffffffffffffffffffffffffffffffffffffffffffffffffffffffffffff04831182151516156135b2576135b1612aee565b5b828202905092915050565b60006135c8826124c8565b91506135d3836124c8565b9250827fffffffffffffffffffffffffffffffffffffffffffffffffffffffffffffffff0382111561360857613607612aee565b5b828201905092915050565b7f4e487b7100000000000000000000000000000000000000000000000000000000600052604160045260246000fd5b7f4e487b7100000000000000000000000000000000000000000000000000000000600052603260045260246000fd5b600061367c826124c8565b915060008214156136905761368f612aee565b5b600182039050919050565b7f537472696e67733a20686578206c656e67746820696e73756666696369656e74600082015250565b60006136d160208361292a565b91506136dc8261369b565b602082019050919050565b60006020820190508181036000830152613700816136c4565b9050919050565b600061371282612ae4565b91507f800000000000000000000000000000000000000000000000000000000000000082141561374557613744612aee565b5b816000039050919050565b600061375b82612ae4565b915061376683612ae4565b9250827f8000000000000000000000000000000000000000000000000000000000000000018212600084121516156137a1576137a0612aee565b5b827f7fffffffffffffffffffffffffffffffffffffffffffffffffffffffffffffff0182136000841216156137d9576137d8612aee565b5b828203905092915050565b7f43617061636974792062726561636865642e0000000000000000000000000000600082015250565b600061381a60128361292a565b9150613825826137e4565b602082019050919050565b600060208201905081810360008301526138498161380d565b905091905056fea2646970667358221220d5c215b3fd99e48d7a72f41f9f3ab06a6a82afe24b1c2c4c52b75d135830700064736f6c63430008090033",
  "immutableReferences": {},
  "source": "// SPDX-License-Identifier: MIT\npragma solidity 0.8.9;\n\nimport \"@openzeppelin/contracts/token/ERC20/ERC20.sol\";\nimport \"@openzeppelin/contracts/access/AccessControl.sol\";\nimport \"@openzeppelin/contracts/utils/structs/EnumerableSet.sol\";\nimport \"./MoretInterfaces.sol\";\nimport \"./VolatilityToken.sol\";\nimport \"./MoretMarketMaker.sol\";\n\ncontract Exchange is AccessControl, EOption{\n  bytes32 public constant MINER_ROLE = keccak256(\"MINER_ROLE\");\n  // OptionLibrary.Percent public volTransactionFees = OptionLibrary.Percent(5 * 10 ** 3, 10 ** 6);\n  // address public contractAddress;\n  address public vaultAddress;\n  address public marketMakerAddress;\n  // ERC20 internal underlyingToken; // used to pay premiums (vol token is alternative)\n  // mapping(uint256=>VolatilityToken) public volTokensList;\n\n  MoretMarketMaker internal marketMaker;\n  OptionVault internal optionVault;\n\n  uint256 public volRiskPremiumMaxRatio= 18 * (10 ** 17);\n  uint256 public loanInterest = 0;\n\n  // ILendingPoolAddressesProvider internal lendingPoolAddressProvider;\n  // address internal swapRouterAddress;\n  // address internal aggregatorAddress;\n\n  // uint256 private constant ethMultiplier = 10 ** 18;\n  bool public allowTrading = true;\n  // uint256 lendingPoolRateMode = 2;\n  // bool internal useAggregator;\n  // uint256 public exchangeSlippageMax = 10 ** 16; // 1% max slippage allowed\n  // uint256 public exchangeDeadlineLag = 20; // 20s slippage time\n\n  constructor( address _marketMakerAddress,address _vaultAddress){// address payable _volTokenAddress)\n    _setupRole(DEFAULT_ADMIN_ROLE, msg.sender);\n    _setupRole(MINER_ROLE, msg.sender);\n    vaultAddress = _vaultAddress;\n    optionVault = OptionVault(_vaultAddress);\n    marketMakerAddress = _marketMakerAddress;\n    marketMaker = MoretMarketMaker(_marketMakerAddress);\n    // VolatilityToken _volToken = VolatilityToken(_volTokenAddress);\n    // volTokensList[_volToken.tenor()] = _volToken;\n    // contractAddress = address(this);\n    // underlyingToken = ERC20(marketMaker.underlyingAddress());\n    // swapRouterAddress = _swapRouterAddress;\n    // aggregatorAddress = _aggregatorAddress;\n    // lendingPoolAddressProvider = ILendingPoolAddressesProvider(_lendingPoolAddressProvider);\n    // useAggregator = false;\n    }\n\n  function calcOptionCost(uint256 _tenor, uint256 _strike, uint256 _amount, OptionLibrary.PayoffType _poType, OptionLibrary.OptionSide _side) public view returns(uint256 _premium, uint256 _cost, uint256 _price, uint256 _vol){\n    _vol = queryOptionVolatility(_tenor, _strike, _amount, _side);\n    uint256 _adjustedStrike = OptionLibrary.adjustSlippage(_strike, false, marketMaker.swapSlippage(), 0); // downward\n    if((_poType==OptionLibrary.PayoffType.Put && _side == OptionLibrary.OptionSide.Buy) || (_poType==OptionLibrary.PayoffType.Call && _side == OptionLibrary.OptionSide.Sell)){ \n      _adjustedStrike = OptionLibrary.adjustSlippage(_strike,true, marketMaker.swapSlippage(), loanInterest);}\n    (_premium, _cost, _price) = optionVault.queryOptionCost(_adjustedStrike, _amount, _vol, _poType, _side);\n    _premium = MarketLibrary.cvtDecimals(_premium, optionVault.funding());\n    _cost = MarketLibrary.cvtDecimals(_cost, optionVault.funding());}\n\n  function queryOptionVolatility(uint256 _tenor, uint256 _strike, uint256 _amount, OptionLibrary.OptionSide _side) public view returns(uint256 _vol){  \n    _vol = optionVault.queryVol(_tenor); // running vol\n    (uint256 _price,) = optionVault.queryPrice();\n    require(MulDiv(_amount, _price, OptionLibrary.Multiplier())<=marketMaker.calcCapital(true,false),'insufficient capital');\n    int256 _riskPremium = calcRiskPremium(_price, _vol, _strike, _amount, _side);\n    require((int256(_vol)+_riskPremium) > 0,\"Incorrect vol premium\");\n    _vol = uint256(int256(_vol)+_riskPremium);}\n\n  function calcRiskPremium(uint256 _price, uint256 _vol, uint256 _strike, uint256 _amount,OptionLibrary.OptionSide _side) internal view returns(int256) {\n    uint256 _maxGamma = MulDiv(OptionLibrary.calcGamma(_price, _price, _vol), marketMaker.calcCapital(false, false), _price);\n    int256 _currentGamma = optionVault.calculateAggregateGamma(false); // include sells.\n    int256 _newGamma = _currentGamma + int256(MulDiv(OptionLibrary.calcGamma(_price, _strike, _vol), _amount, OptionLibrary.Multiplier() )) * (_side==OptionLibrary.OptionSide.Sell? -1: int(1));\n    uint256 _K = MulDiv(_vol, volRiskPremiumMaxRatio, OptionLibrary.Multiplier());\n    return (calcRiskPremiumAMM(_maxGamma, _currentGamma,  _K) + calcRiskPremiumAMM(_maxGamma, _newGamma, _K)) / 2;}\n\n  function calcRiskPremiumAMM(uint256 _max, int256 _input, uint256 _constant) internal pure returns(int256) {\n    int256 _capacity = int256(OptionLibrary.Multiplier()); // capacity should be in (0,2)\n    if(_input < 0){_capacity +=  int256(MulDiv(uint256(-_input), OptionLibrary.Multiplier(), _max));}\n    if(_input > 0){ _capacity -= int256(MulDiv(uint256(_input) , OptionLibrary.Multiplier(), _max));}\n    require((_capacity>=0) && (_capacity <= int256(2 * OptionLibrary.Multiplier())),\"Capacity breached.\");\n    return int256(MulDiv(_constant, OptionLibrary.Multiplier(), uint256(_capacity))) - int256(_constant);}\n\n  function purchaseOption(uint256 _tenor, uint256 _strike, uint256 _amount, OptionLibrary.PayoffType _poType, OptionLibrary.OptionSide _side, uint256 _payInCost) external {\n    require(allowTrading,\"Trading stopped!\");\n    (uint256 _premium, uint256 _cost, uint256 _price, uint256 _vol) = calcOptionCost(_tenor, _strike, _amount, _poType, _side );      \n    require(_payInCost >= _cost, \"Incorrect cost paid.\");\n    uint256 _id = optionVault.addOption(_tenor, _strike, _amount, _poType, _side, _premium, _cost, _price, _vol, msg.sender);\n    require(ERC20(optionVault.funding()).transferFrom(msg.sender, address(marketMaker), _payInCost), 'Failed payment.');  \n    // emit newOptionBought(msg.sender, optionVault.getOption(_id), _payInCost, false);\n    optionVault.stampActiveOption(_id, msg.sender);}\n\n  function getOptionPayoffValue(uint256 _id) external view returns(uint256 _payback){\n    (,_payback) = optionVault.getContractPayoff(_id);}\n\n  /* function purchaseOptionInVol(uint256 _tenor, uint256 _strike, uint256 _amount, OptionLibrary.PayoffType _poType, OptionLibrary.OptionSide _side, uint256 _payInCost) external {\n    (uint256 _premium, uint256 _cost, uint256 _price, uint256 _vol) = calcOptionCost(_tenor, _strike, _amount, _poType, _side ); \n\n    uint256 _premium = queryOptionCost(_tenor, _strike, _amount, _poType,OptionLibrary.OptionSide.Buy );\n    uint256 _fee = MulDiv(_premium, settlementFee.numerator, settlementFee.denominator);\n\n    uint256 _id = optionVault.addOption(_tenor, _strike, _poType, OptionLibrary.OptionSide.Buy, _amount, _premium - _fee, _fee );\n    require(_payInCost >= optionVault.queryDraftOptionCost(_id, true), \"Entered premium incorrect.\");\n\n    require(volTokensList[_tenor].transferFrom(msg.sender, contractAddress, _payInCost), 'Failed payment.');\n\n    volTokensList[_tenor].approve(volTokensList[_tenor].contractAddress(), _payInCost);\n    volTokensList[_tenor].recycleInToken(contractAddress, _payInCost, underlyingToken);\n    require(underlyingToken.transfer(marketMakerAddress, optionVault.queryOptionPremium(_id)), 'Failed premium payment.');\n\n    optionVault.stampActiveOption(_id);\n\n    marketMaker.recordOption(msg.sender, _id, true,\n      optionVault.queryOptionPremium(_id),\n      optionVault.queryOptionExposure(_id, OptionLibrary.PayoffType.Call),\n      optionVault.queryOptionExposure(_id, OptionLibrary.PayoffType.Put));\n\n    emit newOptionBought(msg.sender, optionVault.getOption(_id), _payInCost, true);\n\n  }  */\n\n\n      // function addVolToken(address payable _tokenAddress) external onlyRole(ADMIN_ROLE)\n      // {\n      //     VolatilityToken _volToken = VolatilityToken(_tokenAddress);\n      //     /* require(_volToken.descriptionHash() == optionVault.descriptionHash());\n      //     require(optionVault.containsTenor(_volToken.tenor())); */\n\n      //     volTokensList[_volToken.tenor()] = _volToken;\n\n      // }\n\n      // function quoteVolatilityCost(uint256 _tenor, uint256 _volAmount) public view returns(uint256, uint256)\n      // {\n      //     /* require(optionVault.containsTenor(_tenor)); */\n\n      //     (uint256 _price,) = optionVault.queryPrice();\n      //     (uint256 _volatility, ) = optionVault.queryVol(_tenor);\n\n      //     uint256 _value = volTokensList[_tenor].calculateMintValue(_volAmount, _price, _volatility);\n      //     uint256 _fee = _value * volTransactionFees.numerator/ volTransactionFees.denominator;\n\n      //     return (_value, _fee);\n      // }\n\n      // function purchaseVolatilityToken(uint256 _tenor, uint256 _volAmount, uint256 _payInCost)\n      // external {\n      //     (uint256 _value, uint256 _fee) = quoteVolatilityCost(_tenor, _volAmount);\n      //     require(_payInCost >= (_value + _fee));\n\n      //     underlyingToken.transferFrom(msg.sender, address(volTokensList[_tenor]), _value);\n      //     volTokensList[_tenor].mint{value: _value}(msg.sender, _volAmount);\n\n      //     emit newVolatilityTokenBought(msg.sender, block.timestamp, _tenor, _volAmount);\n      // }\n\n    function resetLoanRate(uint256 _loanInterest) external onlyRole(MINER_ROLE){ loanInterest = _loanInterest;}\n    function resetRiskPremiumMaxRatio(uint256 _newRatio) external onlyRole(DEFAULT_ADMIN_ROLE){ volRiskPremiumMaxRatio=_newRatio;}\n    function resetTrading(bool _allowTrading) external onlyRole(DEFAULT_ADMIN_ROLE) {allowTrading=_allowTrading;}\n    function queryPrice() external view returns(uint256, uint256){return optionVault.queryPrice();}\n    function queryVol(uint256 _tenor) external view returns(uint256){return optionVault.queryVol(_tenor);}\n}\n",
  "sourcePath": "/Users/apple/Documents/GitHub/moret/contracts/Exchange.sol",
  "compiler": {
    "name": "solc",
    "version": "0.8.9+commit.e5eed63a.Emscripten.clang"
  },
  "schemaVersion": "3.4.3",
  "updatedAt": "2021-11-24T19:45:48.379Z",
  "networkType": "ethereum",
  "devdoc": {
    "kind": "dev",
    "methods": {
      "getRoleAdmin(bytes32)": {
        "details": "Returns the admin role that controls `role`. See {grantRole} and {revokeRole}. To change a role's admin, use {_setRoleAdmin}."
      },
      "grantRole(bytes32,address)": {
        "details": "Grants `role` to `account`. If `account` had not been already granted `role`, emits a {RoleGranted} event. Requirements: - the caller must have ``role``'s admin role."
      },
      "hasRole(bytes32,address)": {
        "details": "Returns `true` if `account` has been granted `role`."
      },
      "renounceRole(bytes32,address)": {
        "details": "Revokes `role` from the calling account. Roles are often managed via {grantRole} and {revokeRole}: this function's purpose is to provide a mechanism for accounts to lose their privileges if they are compromised (such as when a trusted device is misplaced). If the calling account had been granted `role`, emits a {RoleRevoked} event. Requirements: - the caller must be `account`."
      },
      "revokeRole(bytes32,address)": {
        "details": "Revokes `role` from `account`. If `account` had been granted `role`, emits a {RoleRevoked} event. Requirements: - the caller must have ``role``'s admin role."
      },
      "supportsInterface(bytes4)": {
        "details": "See {IERC165-supportsInterface}."
      }
    },
    "version": 1
  },
  "userdoc": {
    "kind": "user",
    "methods": {},
    "version": 1
  }
}