{
  "contractName": "ExchangeNative",
  "abi": [
    {
      "inputs": [
        {
          "internalType": "address payable",
          "name": "_marketMakerAddress",
          "type": "address"
        },
        {
          "internalType": "address",
          "name": "_optionAddress",
          "type": "address"
        },
        {
          "internalType": "address payable",
          "name": "_volTokenAddress",
          "type": "address"
        }
      ],
      "stateMutability": "nonpayable",
      "type": "constructor"
    },
    {
      "anonymous": false,
      "inputs": [
        {
          "indexed": true,
          "internalType": "bytes32",
          "name": "role",
          "type": "bytes32"
        },
        {
          "indexed": true,
          "internalType": "bytes32",
          "name": "previousAdminRole",
          "type": "bytes32"
        },
        {
          "indexed": true,
          "internalType": "bytes32",
          "name": "newAdminRole",
          "type": "bytes32"
        }
      ],
      "name": "RoleAdminChanged",
      "type": "event"
    },
    {
      "anonymous": false,
      "inputs": [
        {
          "indexed": true,
          "internalType": "bytes32",
          "name": "role",
          "type": "bytes32"
        },
        {
          "indexed": true,
          "internalType": "address",
          "name": "account",
          "type": "address"
        },
        {
          "indexed": true,
          "internalType": "address",
          "name": "sender",
          "type": "address"
        }
      ],
      "name": "RoleGranted",
      "type": "event"
    },
    {
      "anonymous": false,
      "inputs": [
        {
          "indexed": true,
          "internalType": "bytes32",
          "name": "role",
          "type": "bytes32"
        },
        {
          "indexed": true,
          "internalType": "address",
          "name": "account",
          "type": "address"
        },
        {
          "indexed": true,
          "internalType": "address",
          "name": "sender",
          "type": "address"
        }
      ],
      "name": "RoleRevoked",
      "type": "event"
    },
    {
      "anonymous": false,
      "inputs": [
        {
          "indexed": false,
          "internalType": "address",
          "name": "_recipient",
          "type": "address"
        },
        {
          "indexed": false,
          "internalType": "uint256",
          "name": "_mintMPTokenAmount",
          "type": "uint256"
        },
        {
          "indexed": false,
          "internalType": "uint256",
          "name": "_addedValue",
          "type": "uint256"
        }
      ],
      "name": "capitalAdded",
      "type": "event"
    },
    {
      "anonymous": false,
      "inputs": [
        {
          "indexed": false,
          "internalType": "address",
          "name": "_recipient",
          "type": "address"
        },
        {
          "indexed": false,
          "internalType": "uint256",
          "name": "_burnMPTokenAmount",
          "type": "uint256"
        },
        {
          "indexed": false,
          "internalType": "uint256",
          "name": "_withdrawValue",
          "type": "uint256"
        }
      ],
      "name": "capitalWithdrawn",
      "type": "event"
    },
    {
      "anonymous": false,
      "inputs": [
        {
          "indexed": true,
          "internalType": "address",
          "name": "_purchaser",
          "type": "address"
        },
        {
          "components": [
            {
              "internalType": "enum OptionLibrary.PayoffType",
              "name": "poType",
              "type": "uint8"
            },
            {
              "internalType": "address",
              "name": "holder",
              "type": "address"
            },
            {
              "internalType": "enum OptionLibrary.OptionStatus",
              "name": "status",
              "type": "uint8"
            },
            {
              "internalType": "uint256",
              "name": "id",
              "type": "uint256"
            },
            {
              "internalType": "uint256",
              "name": "createTime",
              "type": "uint256"
            },
            {
              "internalType": "uint256",
              "name": "effectiveTime",
              "type": "uint256"
            },
            {
              "internalType": "uint256",
              "name": "tenor",
              "type": "uint256"
            },
            {
              "internalType": "uint256",
              "name": "exerciseTime",
              "type": "uint256"
            },
            {
              "internalType": "uint256",
              "name": "amount",
              "type": "uint256"
            },
            {
              "internalType": "uint256",
              "name": "spot",
              "type": "uint256"
            },
            {
              "internalType": "uint256",
              "name": "strike",
              "type": "uint256"
            },
            {
              "internalType": "uint256",
              "name": "volatility",
              "type": "uint256"
            },
            {
              "internalType": "uint256",
              "name": "premium",
              "type": "uint256"
            },
            {
              "internalType": "uint256",
              "name": "fee",
              "type": "uint256"
            }
          ],
          "indexed": false,
          "internalType": "struct OptionLibrary.Option",
          "name": "_option",
          "type": "tuple"
        },
        {
          "indexed": false,
          "internalType": "uint256",
          "name": "_cost",
          "type": "uint256"
        },
        {
          "indexed": false,
          "internalType": "bool",
          "name": "_inVol",
          "type": "bool"
        }
      ],
      "name": "newOptionBought",
      "type": "event"
    },
    {
      "anonymous": false,
      "inputs": [
        {
          "indexed": false,
          "internalType": "address",
          "name": "_purchaser",
          "type": "address"
        },
        {
          "indexed": false,
          "internalType": "uint256",
          "name": "_time",
          "type": "uint256"
        },
        {
          "indexed": false,
          "internalType": "uint256",
          "name": "_tenor",
          "type": "uint256"
        },
        {
          "indexed": false,
          "internalType": "uint256",
          "name": "_amount",
          "type": "uint256"
        }
      ],
      "name": "newVolatilityTokenBought",
      "type": "event"
    },
    {
      "anonymous": false,
      "inputs": [
        {
          "indexed": true,
          "internalType": "address",
          "name": "_purchaser",
          "type": "address"
        },
        {
          "components": [
            {
              "internalType": "enum OptionLibrary.PayoffType",
              "name": "poType",
              "type": "uint8"
            },
            {
              "internalType": "address",
              "name": "holder",
              "type": "address"
            },
            {
              "internalType": "enum OptionLibrary.OptionStatus",
              "name": "status",
              "type": "uint8"
            },
            {
              "internalType": "uint256",
              "name": "id",
              "type": "uint256"
            },
            {
              "internalType": "uint256",
              "name": "createTime",
              "type": "uint256"
            },
            {
              "internalType": "uint256",
              "name": "effectiveTime",
              "type": "uint256"
            },
            {
              "internalType": "uint256",
              "name": "tenor",
              "type": "uint256"
            },
            {
              "internalType": "uint256",
              "name": "exerciseTime",
              "type": "uint256"
            },
            {
              "internalType": "uint256",
              "name": "amount",
              "type": "uint256"
            },
            {
              "internalType": "uint256",
              "name": "spot",
              "type": "uint256"
            },
            {
              "internalType": "uint256",
              "name": "strike",
              "type": "uint256"
            },
            {
              "internalType": "uint256",
              "name": "volatility",
              "type": "uint256"
            },
            {
              "internalType": "uint256",
              "name": "premium",
              "type": "uint256"
            },
            {
              "internalType": "uint256",
              "name": "fee",
              "type": "uint256"
            }
          ],
          "indexed": false,
          "internalType": "struct OptionLibrary.Option",
          "name": "_option",
          "type": "tuple"
        },
        {
          "indexed": false,
          "internalType": "uint256",
          "name": "_payoff",
          "type": "uint256"
        }
      ],
      "name": "optionExercised",
      "type": "event"
    },
    {
      "inputs": [],
      "name": "ADMIN_ROLE",
      "outputs": [
        {
          "internalType": "bytes32",
          "name": "",
          "type": "bytes32"
        }
      ],
      "stateMutability": "view",
      "type": "function"
    },
    {
      "inputs": [],
      "name": "DEFAULT_ADMIN_ROLE",
      "outputs": [
        {
          "internalType": "bytes32",
          "name": "",
          "type": "bytes32"
        }
      ],
      "stateMutability": "view",
      "type": "function"
    },
    {
      "inputs": [],
      "name": "contractAddress",
      "outputs": [
        {
          "internalType": "address payable",
          "name": "",
          "type": "address"
        }
      ],
      "stateMutability": "view",
      "type": "function"
    },
    {
      "inputs": [
        {
          "internalType": "bytes32",
          "name": "role",
          "type": "bytes32"
        }
      ],
      "name": "getRoleAdmin",
      "outputs": [
        {
          "internalType": "bytes32",
          "name": "",
          "type": "bytes32"
        }
      ],
      "stateMutability": "view",
      "type": "function"
    },
    {
      "inputs": [
        {
          "internalType": "bytes32",
          "name": "role",
          "type": "bytes32"
        },
        {
          "internalType": "address",
          "name": "account",
          "type": "address"
        }
      ],
      "name": "grantRole",
      "outputs": [],
      "stateMutability": "nonpayable",
      "type": "function"
    },
    {
      "inputs": [
        {
          "internalType": "bytes32",
          "name": "role",
          "type": "bytes32"
        },
        {
          "internalType": "address",
          "name": "account",
          "type": "address"
        }
      ],
      "name": "hasRole",
      "outputs": [
        {
          "internalType": "bool",
          "name": "",
          "type": "bool"
        }
      ],
      "stateMutability": "view",
      "type": "function"
    },
    {
      "inputs": [
        {
          "internalType": "bytes32",
          "name": "role",
          "type": "bytes32"
        },
        {
          "internalType": "address",
          "name": "account",
          "type": "address"
        }
      ],
      "name": "renounceRole",
      "outputs": [],
      "stateMutability": "nonpayable",
      "type": "function"
    },
    {
      "inputs": [
        {
          "internalType": "bytes32",
          "name": "role",
          "type": "bytes32"
        },
        {
          "internalType": "address",
          "name": "account",
          "type": "address"
        }
      ],
      "name": "revokeRole",
      "outputs": [],
      "stateMutability": "nonpayable",
      "type": "function"
    },
    {
      "inputs": [],
      "name": "settlementFee",
      "outputs": [
        {
          "internalType": "uint256",
          "name": "numerator",
          "type": "uint256"
        },
        {
          "internalType": "uint256",
          "name": "denominator",
          "type": "uint256"
        }
      ],
      "stateMutability": "view",
      "type": "function"
    },
    {
      "inputs": [
        {
          "internalType": "bytes4",
          "name": "interfaceId",
          "type": "bytes4"
        }
      ],
      "name": "supportsInterface",
      "outputs": [
        {
          "internalType": "bool",
          "name": "",
          "type": "bool"
        }
      ],
      "stateMutability": "view",
      "type": "function"
    },
    {
      "inputs": [
        {
          "internalType": "uint256",
          "name": "",
          "type": "uint256"
        }
      ],
      "name": "volTokensList",
      "outputs": [
        {
          "internalType": "contract VolatilityToken",
          "name": "",
          "type": "address"
        }
      ],
      "stateMutability": "view",
      "type": "function"
    },
    {
      "inputs": [],
      "name": "volTransactionFees",
      "outputs": [
        {
          "internalType": "uint256",
          "name": "numerator",
          "type": "uint256"
        },
        {
          "internalType": "uint256",
          "name": "denominator",
          "type": "uint256"
        }
      ],
      "stateMutability": "view",
      "type": "function"
    },
    {
      "stateMutability": "payable",
      "type": "receive"
    },
    {
      "inputs": [
        {
          "internalType": "uint256",
          "name": "_tenor",
          "type": "uint256"
        },
        {
          "internalType": "uint256",
          "name": "_strike",
          "type": "uint256"
        },
        {
          "internalType": "enum OptionLibrary.PayoffType",
          "name": "_poType",
          "type": "uint8"
        },
        {
          "internalType": "uint256",
          "name": "_amount",
          "type": "uint256"
        }
      ],
      "name": "queryOptionCost",
      "outputs": [
        {
          "internalType": "uint256",
          "name": "",
          "type": "uint256"
        }
      ],
      "stateMutability": "view",
      "type": "function"
    },
    {
      "inputs": [
        {
          "internalType": "uint256",
          "name": "_tenor",
          "type": "uint256"
        },
        {
          "internalType": "uint256",
          "name": "_strike",
          "type": "uint256"
        },
        {
          "internalType": "enum OptionLibrary.PayoffType",
          "name": "_poType",
          "type": "uint8"
        },
        {
          "internalType": "uint256",
          "name": "_amount",
          "type": "uint256"
        }
      ],
      "name": "purchaseOption",
      "outputs": [],
      "stateMutability": "payable",
      "type": "function"
    },
    {
      "inputs": [
        {
          "internalType": "uint256",
          "name": "_tenor",
          "type": "uint256"
        },
        {
          "internalType": "uint256",
          "name": "_strike",
          "type": "uint256"
        },
        {
          "internalType": "enum OptionLibrary.PayoffType",
          "name": "_poType",
          "type": "uint8"
        },
        {
          "internalType": "uint256",
          "name": "_amount",
          "type": "uint256"
        },
        {
          "internalType": "uint256",
          "name": "_payInCost",
          "type": "uint256"
        }
      ],
      "name": "purchaseOptionInVol",
      "outputs": [],
      "stateMutability": "nonpayable",
      "type": "function"
    },
    {
      "inputs": [
        {
          "internalType": "uint256",
          "name": "_id",
          "type": "uint256"
        }
      ],
      "name": "exerciseOption",
      "outputs": [],
      "stateMutability": "nonpayable",
      "type": "function"
    },
    {
      "inputs": [
        {
          "internalType": "address payable",
          "name": "_tokenAddress",
          "type": "address"
        }
      ],
      "name": "addVolToken",
      "outputs": [],
      "stateMutability": "nonpayable",
      "type": "function"
    },
    {
      "inputs": [
        {
          "internalType": "uint256",
          "name": "_tenor",
          "type": "uint256"
        },
        {
          "internalType": "uint256",
          "name": "_volAmount",
          "type": "uint256"
        }
      ],
      "name": "quoteVolatilityCost",
      "outputs": [
        {
          "internalType": "uint256",
          "name": "",
          "type": "uint256"
        },
        {
          "internalType": "uint256",
          "name": "",
          "type": "uint256"
        }
      ],
      "stateMutability": "view",
      "type": "function"
    },
    {
      "inputs": [
        {
          "internalType": "uint256",
          "name": "_tenor",
          "type": "uint256"
        },
        {
          "internalType": "uint256",
          "name": "_volAmount",
          "type": "uint256"
        }
      ],
      "name": "purchaseVolatilityToken",
      "outputs": [],
      "stateMutability": "payable",
      "type": "function"
    },
    {
      "inputs": [],
      "name": "sweepBalance",
      "outputs": [],
      "stateMutability": "nonpayable",
      "type": "function"
    },
    {
      "inputs": [
        {
          "internalType": "uint256",
          "name": "_fee",
          "type": "uint256"
        },
        {
          "internalType": "uint256",
          "name": "_denominator",
          "type": "uint256"
        }
      ],
      "name": "resetSettlementFees",
      "outputs": [],
      "stateMutability": "nonpayable",
      "type": "function"
    },
    {
      "inputs": [
        {
          "internalType": "uint256",
          "name": "_fee",
          "type": "uint256"
        },
        {
          "internalType": "uint256",
          "name": "_denominator",
          "type": "uint256"
        }
      ],
      "name": "resetVolTransactionFees",
      "outputs": [],
      "stateMutability": "nonpayable",
      "type": "function"
    },
    {
      "inputs": [],
      "name": "priceDecimals",
      "outputs": [
        {
          "internalType": "uint256",
          "name": "",
          "type": "uint256"
        }
      ],
      "stateMutability": "view",
      "type": "function"
    },
    {
      "inputs": [
        {
          "internalType": "uint256",
          "name": "_tenor",
          "type": "uint256"
        }
      ],
      "name": "queryVol",
      "outputs": [
        {
          "internalType": "uint256",
          "name": "",
          "type": "uint256"
        }
      ],
      "stateMutability": "view",
      "type": "function"
    }
  ],
  "bytecode": "0x608060405260405180604001604052806113888152602001620f424081525060016000820151816000015560208201518160010155505060405180604001604052806113888152602001620f42408152506003600082015181600001556020820151816001015550503480156200007557600080fd5b50604051620050ad380380620050ad83398181016040528101906200009b919062000445565b620000b06000801b336200028760201b60201c565b620000e27fa49807205ce4d355092ef5a8a18f56e8913cf4a201fbe287825b095693c21775336200028760201b60201c565b81600760006101000a81548173ffffffffffffffffffffffffffffffffffffffff021916908373ffffffffffffffffffffffffffffffffffffffff16021790555082600660006101000a81548173ffffffffffffffffffffffffffffffffffffffff021916908373ffffffffffffffffffffffffffffffffffffffff160217905550600081905080600860008373ffffffffffffffffffffffffffffffffffffffff1663a15612d16040518163ffffffff1660e01b815260040160206040518083038186803b158015620001b557600080fd5b505afa158015620001ca573d6000803e3d6000fd5b505050506040513d601f19601f82011682018060405250810190620001f09190620004a1565b815260200190815260200160002060006101000a81548173ffffffffffffffffffffffffffffffffffffffff021916908373ffffffffffffffffffffffffffffffffffffffff16021790555030600560006101000a81548173ffffffffffffffffffffffffffffffffffffffff021916908373ffffffffffffffffffffffffffffffffffffffff1602179055505050505062000578565b6200029982826200029d60201b60201c565b5050565b620002af82826200038e60201b60201c565b6200038a57600160008084815260200190815260200160002060000160008373ffffffffffffffffffffffffffffffffffffffff1673ffffffffffffffffffffffffffffffffffffffff16815260200190815260200160002060006101000a81548160ff0219169083151502179055506200032f620003f860201b60201c565b73ffffffffffffffffffffffffffffffffffffffff168173ffffffffffffffffffffffffffffffffffffffff16837f2f8788117e7eff1d82e926ec794901d17c78024a50270940304540a733656f0d60405160405180910390a45b5050565b600080600084815260200190815260200160002060000160008373ffffffffffffffffffffffffffffffffffffffff1673ffffffffffffffffffffffffffffffffffffffff16815260200190815260200160002060009054906101000a900460ff16905092915050565b600033905090565b60008151905062000411816200052a565b92915050565b600081519050620004288162000544565b92915050565b6000815190506200043f816200055e565b92915050565b60008060006060848603121562000461576200046062000525565b5b6000620004718682870162000417565b9350506020620004848682870162000400565b9250506040620004978682870162000417565b9150509250925092565b600060208284031215620004ba57620004b962000525565b5b6000620004ca848285016200042e565b91505092915050565b6000620004e082620004fb565b9050919050565b6000620004f482620004fb565b9050919050565b600073ffffffffffffffffffffffffffffffffffffffff82169050919050565b6000819050919050565b600080fd5b6200053581620004d3565b81146200054157600080fd5b50565b6200054f81620004e7565b81146200055b57600080fd5b50565b62000569816200051b565b81146200057557600080fd5b50565b614b2580620005886000396000f3fe60806040526004361061014f5760003560e01c806391d14854116100b6578063b7ab81371161006f578063b7ab8137146104a8578063c3513f6d146104d1578063cfc2dc20146104e8578063d547741f14610525578063f52f25261461054e578063f6b4dfb41461057757610156565b806391d14854146103805780639320d4ce146103bd57806393ecc4cb146103e6578063a217fddf14610424578063a24015fe1461044f578063ada9ecb41461048c57610156565b806336568abe1161010857806336568abe1461026e5780634b70084f14610297578063598ddc60146102d45780635a4a3a92146102fd57806375b238fc146103295780637d1d7fb81461035457610156565b806301ffc9a71461015b57806305300b28146101985780630fd00a0d146101c3578063127b3a6a146101df578063248a9ca3146102085780632f2ff15d1461024557610156565b3661015657005b600080fd5b34801561016757600080fd5b50610182600480360381019061017d9190613946565b6105a2565b60405161018f91906140ef565b60405180910390f35b3480156101a457600080fd5b506101ad61061c565b6040516101ba91906142a7565b60405180910390f35b6101dd60048036038101906101d89190613aa8565b6106c3565b005b3480156101eb57600080fd5b5061020660048036038101906102019190613b0f565b611094565b005b34801561021457600080fd5b5061022f600480360381019061022a91906138ac565b611d60565b60405161023c919061410a565b60405180910390f35b34801561025157600080fd5b5061026c60048036038101906102679190613906565b611d7f565b005b34801561027a57600080fd5b5061029560048036038101906102909190613906565b611da8565b005b3480156102a357600080fd5b506102be60048036038101906102b99190613aa8565b611e2b565b6040516102cb91906142a7565b60405180910390f35b3480156102e057600080fd5b506102fb60048036038101906102f69190613a28565b611fac565b005b34801561030957600080fd5b50610312612011565b60405161032092919061433d565b60405180910390f35b34801561033557600080fd5b5061033e612023565b60405161034b919061410a565b60405180910390f35b34801561036057600080fd5b50610369612047565b60405161037792919061433d565b60405180910390f35b34801561038c57600080fd5b506103a760048036038101906103a29190613906565b612059565b6040516103b491906140ef565b60405180910390f35b3480156103c957600080fd5b506103e460048036038101906103df9190613a28565b6120c3565b005b3480156103f257600080fd5b5061040d60048036038101906104089190613a28565b612128565b60405161041b92919061433d565b60405180910390f35b34801561043057600080fd5b50610439612426565b604051610446919061410a565b60405180910390f35b34801561045b57600080fd5b50610476600480360381019061047191906139ce565b61242d565b6040516104839190614125565b60405180910390f35b6104a660048036038101906104a19190613a28565b612460565b005b3480156104b457600080fd5b506104cf60048036038101906104ca9190613852565b61256d565b005b3480156104dd57600080fd5b506104e66128d1565b005b3480156104f457600080fd5b5061050f600480360381019061050a91906139ce565b612986565b60405161051c91906142a7565b60405180910390f35b34801561053157600080fd5b5061054c60048036038101906105479190613906565b612a3a565b005b34801561055a57600080fd5b50610575600480360381019061057091906139ce565b612a63565b005b34801561058357600080fd5b5061058c613086565b6040516105999190613fb3565b60405180910390f35b60007f7965db0b000000000000000000000000000000000000000000000000000000007bffffffffffffffffffffffffffffffffffffffffffffffffffffffff1916827bffffffffffffffffffffffffffffffffffffffffffffffffffffffff191614806106155750610614826130ac565b5b9050919050565b6000600760009054906101000a900473ffffffffffffffffffffffffffffffffffffffff1673ffffffffffffffffffffffffffffffffffffffff166305300b286040518163ffffffff1660e01b815260040160206040518083038186803b15801561068657600080fd5b505afa15801561069a573d6000803e3d6000fd5b505050506040513d601f19601f820116820180604052508101906106be91906139fb565b905090565b600760009054906101000a900473ffffffffffffffffffffffffffffffffffffffff1673ffffffffffffffffffffffffffffffffffffffff16634d38cad9856040518263ffffffff1660e01b815260040161071e91906142a7565b60206040518083038186803b15801561073657600080fd5b505afa15801561074a573d6000803e3d6000fd5b505050506040513d601f19601f8201168201806040525081019061076e919061387f565b6107ad576040517f08c379a00000000000000000000000000000000000000000000000000000000081526004016107a490614202565b60405180910390fd5b600060018111156107c1576107c06147d1565b5b8260018111156107d4576107d36147d1565b5b148061080357506001808111156107ee576107ed6147d1565b5b826001811115610801576108006147d1565b5b145b610842576040517f08c379a000000000000000000000000000000000000000000000000000000000815260040161083990614182565b60405180910390fd5b600080600760009054906101000a900473ffffffffffffffffffffffffffffffffffffffff1673ffffffffffffffffffffffffffffffffffffffff1663fa66dcd4878787876001600660009054906101000a900473ffffffffffffffffffffffffffffffffffffffff1673ffffffffffffffffffffffffffffffffffffffff1663c679dc798b8d6040518363ffffffff1660e01b81526004016108e6929190614314565b604080518083038186803b1580156108fd57600080fd5b505afa158015610911573d6000803e3d6000fd5b505050506040513d601f19601f8201168201806040525081019061093591906139a1565b6040518763ffffffff1660e01b815260040161095696959493929190614366565b604080518083038186803b15801561096d57600080fd5b505afa158015610981573d6000803e3d6000fd5b505050506040513d601f19601f820116820180604052508101906109a59190613a68565b915091506000600760009054906101000a900473ffffffffffffffffffffffffffffffffffffffff1673ffffffffffffffffffffffffffffffffffffffff1663867536778888888888886040518763ffffffff1660e01b8152600401610a10969594939291906143c8565b602060405180830381600087803b158015610a2a57600080fd5b505af1158015610a3e573d6000803e3d6000fd5b505050506040513d601f19601f82011682018060405250810190610a6291906139fb565b9050600760009054906101000a900473ffffffffffffffffffffffffffffffffffffffff1673ffffffffffffffffffffffffffffffffffffffff16636abae9b38260006040518363ffffffff1660e01b8152600401610ac29291906142eb565b60206040518083038186803b158015610ada57600080fd5b505afa158015610aee573d6000803e3d6000fd5b505050506040513d601f19601f82011682018060405250810190610b1291906139fb565b341015610b54576040517f08c379a0000000000000000000000000000000000000000000000000000000008152600401610b4b906141c2565b60405180910390fd5b600660009054906101000a900473ffffffffffffffffffffffffffffffffffffffff1673ffffffffffffffffffffffffffffffffffffffff166108fc600760009054906101000a900473ffffffffffffffffffffffffffffffffffffffff1673ffffffffffffffffffffffffffffffffffffffff166346047a66846040518263ffffffff1660e01b8152600401610beb91906142a7565b60206040518083038186803b158015610c0357600080fd5b505afa158015610c17573d6000803e3d6000fd5b505050506040513d601f19601f82011682018060405250810190610c3b91906139fb565b9081150290604051600060405180830381858888f19350505050158015610c66573d6000803e3d6000fd5b50600760009054906101000a900473ffffffffffffffffffffffffffffffffffffffff1673ffffffffffffffffffffffffffffffffffffffff166328e493c1826040518263ffffffff1660e01b8152600401610cc291906142a7565b600060405180830381600087803b158015610cdc57600080fd5b505af1158015610cf0573d6000803e3d6000fd5b50505050600660009054906101000a900473ffffffffffffffffffffffffffffffffffffffff1673ffffffffffffffffffffffffffffffffffffffff1663cbe42a183383600760009054906101000a900473ffffffffffffffffffffffffffffffffffffffff1673ffffffffffffffffffffffffffffffffffffffff166346047a66866040518263ffffffff1660e01b8152600401610d8f91906142a7565b60206040518083038186803b158015610da757600080fd5b505afa158015610dbb573d6000803e3d6000fd5b505050506040513d601f19601f82011682018060405250810190610ddf91906139fb565b600760009054906101000a900473ffffffffffffffffffffffffffffffffffffffff1673ffffffffffffffffffffffffffffffffffffffff1663128734c58760006040518363ffffffff1660e01b8152600401610e3d929190614314565b60206040518083038186803b158015610e5557600080fd5b505afa158015610e69573d6000803e3d6000fd5b505050506040513d601f19601f82011682018060405250810190610e8d91906139fb565b600760009054906101000a900473ffffffffffffffffffffffffffffffffffffffff1673ffffffffffffffffffffffffffffffffffffffff1663128734c58860016040518363ffffffff1660e01b8152600401610eeb929190614314565b60206040518083038186803b158015610f0357600080fd5b505afa158015610f17573d6000803e3d6000fd5b505050506040513d601f19601f82011682018060405250810190610f3b91906139fb565b6040518663ffffffff1660e01b8152600401610f5b95949392919061409c565b600060405180830381600087803b158015610f7557600080fd5b505af1158015610f89573d6000803e3d6000fd5b505050503373ffffffffffffffffffffffffffffffffffffffff167f1a4b46dd56fe8b495111c1decc0e13d07ed5c5e1812593e06d770c053d7dc9d8600760009054906101000a900473ffffffffffffffffffffffffffffffffffffffff1673ffffffffffffffffffffffffffffffffffffffff16631ce5e9a6846040518263ffffffff1660e01b815260040161102091906142a7565b6101c06040518083038186803b15801561103957600080fd5b505afa15801561104d573d6000803e3d6000fd5b505050506040513d601f19601f820116820180604052508101906110719190613973565b3460006040516110839392919061426d565b60405180910390a250505050505050565b600760009054906101000a900473ffffffffffffffffffffffffffffffffffffffff1673ffffffffffffffffffffffffffffffffffffffff16634d38cad9866040518263ffffffff1660e01b81526004016110ef91906142a7565b60206040518083038186803b15801561110757600080fd5b505afa15801561111b573d6000803e3d6000fd5b505050506040513d601f19601f8201168201806040525081019061113f919061387f565b61117e576040517f08c379a000000000000000000000000000000000000000000000000000000000815260040161117590614202565b60405180910390fd5b60006001811115611192576111916147d1565b5b8360018111156111a5576111a46147d1565b5b14806111d457506001808111156111bf576111be6147d1565b5b8360018111156111d2576111d16147d1565b5b145b611213576040517f08c379a000000000000000000000000000000000000000000000000000000000815260040161120a90614182565b60405180910390fd5b600080600760009054906101000a900473ffffffffffffffffffffffffffffffffffffffff1673ffffffffffffffffffffffffffffffffffffffff1663fa66dcd4888888886001600660009054906101000a900473ffffffffffffffffffffffffffffffffffffffff1673ffffffffffffffffffffffffffffffffffffffff1663c679dc798c8e6040518363ffffffff1660e01b81526004016112b7929190614314565b604080518083038186803b1580156112ce57600080fd5b505afa1580156112e2573d6000803e3d6000fd5b505050506040513d601f19601f8201168201806040525081019061130691906139a1565b6040518763ffffffff1660e01b815260040161132796959493929190614366565b604080518083038186803b15801561133e57600080fd5b505afa158015611352573d6000803e3d6000fd5b505050506040513d601f19601f820116820180604052508101906113769190613a68565b915091506000600760009054906101000a900473ffffffffffffffffffffffffffffffffffffffff1673ffffffffffffffffffffffffffffffffffffffff1663867536778989898988886040518763ffffffff1660e01b81526004016113e1969594939291906143c8565b602060405180830381600087803b1580156113fb57600080fd5b505af115801561140f573d6000803e3d6000fd5b505050506040513d601f19601f8201168201806040525081019061143391906139fb565b9050600760009054906101000a900473ffffffffffffffffffffffffffffffffffffffff1673ffffffffffffffffffffffffffffffffffffffff16636abae9b38260016040518363ffffffff1660e01b81526004016114939291906142eb565b60206040518083038186803b1580156114ab57600080fd5b505afa1580156114bf573d6000803e3d6000fd5b505050506040513d601f19601f820116820180604052508101906114e391906139fb565b841015611525576040517f08c379a000000000000000000000000000000000000000000000000000000000815260040161151c906141c2565b60405180910390fd5b6008600089815260200190815260200160002060009054906101000a900473ffffffffffffffffffffffffffffffffffffffff1673ffffffffffffffffffffffffffffffffffffffff166323b872dd33600560009054906101000a900473ffffffffffffffffffffffffffffffffffffffff16876040518463ffffffff1660e01b81526004016115b793929190613ff7565b602060405180830381600087803b1580156115d157600080fd5b505af11580156115e5573d6000803e3d6000fd5b505050506040513d601f19601f82011682018060405250810190611609919061387f565b611648576040517f08c379a000000000000000000000000000000000000000000000000000000000815260040161163f906141a2565b60405180910390fd5b6008600089815260200190815260200160002060009054906101000a900473ffffffffffffffffffffffffffffffffffffffff1673ffffffffffffffffffffffffffffffffffffffff1663095ea7b3600860008b815260200190815260200160002060009054906101000a900473ffffffffffffffffffffffffffffffffffffffff16866040518363ffffffff1660e01b81526004016116e992919061402e565b602060405180830381600087803b15801561170357600080fd5b505af1158015611717573d6000803e3d6000fd5b505050506040513d601f19601f8201168201806040525081019061173b919061387f565b506008600089815260200190815260200160002060009054906101000a900473ffffffffffffffffffffffffffffffffffffffff1673ffffffffffffffffffffffffffffffffffffffff16635d36d182600560009054906101000a900473ffffffffffffffffffffffffffffffffffffffff16866040518363ffffffff1660e01b81526004016117cc929190613fce565b602060405180830381600087803b1580156117e657600080fd5b505af11580156117fa573d6000803e3d6000fd5b505050506040513d601f19601f8201168201806040525081019061181e91906139fb565b50600660009054906101000a900473ffffffffffffffffffffffffffffffffffffffff1673ffffffffffffffffffffffffffffffffffffffff166108fc600760009054906101000a900473ffffffffffffffffffffffffffffffffffffffff1673ffffffffffffffffffffffffffffffffffffffff166346047a66846040518263ffffffff1660e01b81526004016118b691906142a7565b60206040518083038186803b1580156118ce57600080fd5b505afa1580156118e2573d6000803e3d6000fd5b505050506040513d601f19601f8201168201806040525081019061190691906139fb565b9081150290604051600060405180830381858888f19350505050158015611931573d6000803e3d6000fd5b50600760009054906101000a900473ffffffffffffffffffffffffffffffffffffffff1673ffffffffffffffffffffffffffffffffffffffff166328e493c1826040518263ffffffff1660e01b815260040161198d91906142a7565b600060405180830381600087803b1580156119a757600080fd5b505af11580156119bb573d6000803e3d6000fd5b50505050600660009054906101000a900473ffffffffffffffffffffffffffffffffffffffff1673ffffffffffffffffffffffffffffffffffffffff1663cbe42a183383600760009054906101000a900473ffffffffffffffffffffffffffffffffffffffff1673ffffffffffffffffffffffffffffffffffffffff166346047a66866040518263ffffffff1660e01b8152600401611a5a91906142a7565b60206040518083038186803b158015611a7257600080fd5b505afa158015611a86573d6000803e3d6000fd5b505050506040513d601f19601f82011682018060405250810190611aaa91906139fb565b600760009054906101000a900473ffffffffffffffffffffffffffffffffffffffff1673ffffffffffffffffffffffffffffffffffffffff1663128734c58760006040518363ffffffff1660e01b8152600401611b08929190614314565b60206040518083038186803b158015611b2057600080fd5b505afa158015611b34573d6000803e3d6000fd5b505050506040513d601f19601f82011682018060405250810190611b5891906139fb565b600760009054906101000a900473ffffffffffffffffffffffffffffffffffffffff1673ffffffffffffffffffffffffffffffffffffffff1663128734c58860016040518363ffffffff1660e01b8152600401611bb6929190614314565b60206040518083038186803b158015611bce57600080fd5b505afa158015611be2573d6000803e3d6000fd5b505050506040513d601f19601f82011682018060405250810190611c0691906139fb565b6040518663ffffffff1660e01b8152600401611c2695949392919061409c565b600060405180830381600087803b158015611c4057600080fd5b505af1158015611c54573d6000803e3d6000fd5b505050503373ffffffffffffffffffffffffffffffffffffffff167f1a4b46dd56fe8b495111c1decc0e13d07ed5c5e1812593e06d770c053d7dc9d8600760009054906101000a900473ffffffffffffffffffffffffffffffffffffffff1673ffffffffffffffffffffffffffffffffffffffff16631ce5e9a6846040518263ffffffff1660e01b8152600401611ceb91906142a7565b6101c06040518083038186803b158015611d0457600080fd5b505afa158015611d18573d6000803e3d6000fd5b505050506040513d601f19601f82011682018060405250810190611d3c9190613973565b866001604051611d4e9392919061426d565b60405180910390a25050505050505050565b6000806000838152602001908152602001600020600101549050919050565b611d8882611d60565b611d9981611d94613116565b61311e565b611da383836131bb565b505050565b611db0613116565b73ffffffffffffffffffffffffffffffffffffffff168173ffffffffffffffffffffffffffffffffffffffff1614611e1d576040517f08c379a0000000000000000000000000000000000000000000000000000000008152600401611e1490614222565b60405180910390fd5b611e27828261329b565b5050565b6000806000600760009054906101000a900473ffffffffffffffffffffffffffffffffffffffff1673ffffffffffffffffffffffffffffffffffffffff1663fa66dcd4888888886001600660009054906101000a900473ffffffffffffffffffffffffffffffffffffffff1673ffffffffffffffffffffffffffffffffffffffff1663c679dc798c8e6040518363ffffffff1660e01b8152600401611ed1929190614314565b604080518083038186803b158015611ee857600080fd5b505afa158015611efc573d6000803e3d6000fd5b505050506040513d601f19601f82011682018060405250810190611f2091906139a1565b6040518763ffffffff1660e01b8152600401611f4196959493929190614366565b604080518083038186803b158015611f5857600080fd5b505afa158015611f6c573d6000803e3d6000fd5b505050506040513d601f19601f82011682018060405250810190611f909190613a68565b915091508082611fa091906144ac565b92505050949350505050565b7fa49807205ce4d355092ef5a8a18f56e8913cf4a201fbe287825b095693c21775611fde81611fd9613116565b61311e565b60405180604001604052808481526020018381525060036000820151816000015560208201518160010155905050505050565b60038060000154908060010154905082565b7fa49807205ce4d355092ef5a8a18f56e8913cf4a201fbe287825b095693c2177581565b60018060000154908060010154905082565b600080600084815260200190815260200160002060000160008373ffffffffffffffffffffffffffffffffffffffff1673ffffffffffffffffffffffffffffffffffffffff16815260200190815260200160002060009054906101000a900460ff16905092915050565b7fa49807205ce4d355092ef5a8a18f56e8913cf4a201fbe287825b095693c217756120f5816120f0613116565b61311e565b60405180604001604052808481526020018381525060016000820151816000015560208201518160010155905050505050565b600080600760009054906101000a900473ffffffffffffffffffffffffffffffffffffffff1673ffffffffffffffffffffffffffffffffffffffff16634d38cad9856040518263ffffffff1660e01b815260040161218691906142a7565b60206040518083038186803b15801561219e57600080fd5b505afa1580156121b2573d6000803e3d6000fd5b505050506040513d601f19601f820116820180604052508101906121d6919061387f565b6121df57600080fd5b6000600760009054906101000a900473ffffffffffffffffffffffffffffffffffffffff1673ffffffffffffffffffffffffffffffffffffffff1663b0667cf86040518163ffffffff1660e01b8152600401604080518083038186803b15801561224857600080fd5b505afa15801561225c573d6000803e3d6000fd5b505050506040513d601f19601f820116820180604052508101906122809190613a68565b50905060006008600087815260200190815260200160002060009054906101000a900473ffffffffffffffffffffffffffffffffffffffff1673ffffffffffffffffffffffffffffffffffffffff166362c5c1198684600760009054906101000a900473ffffffffffffffffffffffffffffffffffffffff1673ffffffffffffffffffffffffffffffffffffffff1663cfc2dc208b6040518263ffffffff1660e01b815260040161233191906142a7565b60206040518083038186803b15801561234957600080fd5b505afa15801561235d573d6000803e3d6000fd5b505050506040513d601f19601f8201168201806040525081019061238191906139fb565b6040518463ffffffff1660e01b815260040161239f93929190614429565b60206040518083038186803b1580156123b757600080fd5b505afa1580156123cb573d6000803e3d6000fd5b505050506040513d601f19601f820116820180604052508101906123ef91906139fb565b905060006003600101546003600001548361240a9190614533565b6124149190614502565b90508181945094505050509250929050565b6000801b81565b60086020528060005260406000206000915054906101000a900473ffffffffffffffffffffffffffffffffffffffff1681565b60008061246d8484612128565b91509150808261247d91906144ac565b34101561248957600080fd5b6008600085815260200190815260200160002060009054906101000a900473ffffffffffffffffffffffffffffffffffffffff1673ffffffffffffffffffffffffffffffffffffffff166340c10f198333866040518463ffffffff1660e01b81526004016124f892919061402e565b6000604051808303818588803b15801561251157600080fd5b505af1158015612525573d6000803e3d6000fd5b50505050507f701297180b43ed5c70ad79a3036dca759169e2b5f64d7c4d04f2322af0511c8d3342868660405161255f9493929190614057565b60405180910390a150505050565b7fa49807205ce4d355092ef5a8a18f56e8913cf4a201fbe287825b095693c2177561259f8161259a613116565b61311e565b6000829050600760009054906101000a900473ffffffffffffffffffffffffffffffffffffffff1673ffffffffffffffffffffffffffffffffffffffff166385dcee936040518163ffffffff1660e01b815260040160206040518083038186803b15801561260c57600080fd5b505afa158015612620573d6000803e3d6000fd5b505050506040513d601f19601f8201168201806040525081019061264491906138d9565b8173ffffffffffffffffffffffffffffffffffffffff166385dcee936040518163ffffffff1660e01b815260040160206040518083038186803b15801561268a57600080fd5b505afa15801561269e573d6000803e3d6000fd5b505050506040513d601f19601f820116820180604052508101906126c291906138d9565b146126cc57600080fd5b600760009054906101000a900473ffffffffffffffffffffffffffffffffffffffff1673ffffffffffffffffffffffffffffffffffffffff16634d38cad98273ffffffffffffffffffffffffffffffffffffffff1663a15612d16040518163ffffffff1660e01b815260040160206040518083038186803b15801561275057600080fd5b505afa158015612764573d6000803e3d6000fd5b505050506040513d601f19601f8201168201806040525081019061278891906139fb565b6040518263ffffffff1660e01b81526004016127a491906142a7565b60206040518083038186803b1580156127bc57600080fd5b505afa1580156127d0573d6000803e3d6000fd5b505050506040513d601f19601f820116820180604052508101906127f4919061387f565b6127fd57600080fd5b80600860008373ffffffffffffffffffffffffffffffffffffffff1663a15612d16040518163ffffffff1660e01b815260040160206040518083038186803b15801561284857600080fd5b505afa15801561285c573d6000803e3d6000fd5b505050506040513d601f19601f8201168201806040525081019061288091906139fb565b815260200190815260200160002060006101000a81548173ffffffffffffffffffffffffffffffffffffffff021916908373ffffffffffffffffffffffffffffffffffffffff160217905550505050565b7fa49807205ce4d355092ef5a8a18f56e8913cf4a201fbe287825b095693c21775612903816128fe613116565b61311e565b3373ffffffffffffffffffffffffffffffffffffffff166108fc600560009054906101000a900473ffffffffffffffffffffffffffffffffffffffff1673ffffffffffffffffffffffffffffffffffffffff16319081150290604051600060405180830381858888f19350505050158015612982573d6000803e3d6000fd5b5050565b6000600760009054906101000a900473ffffffffffffffffffffffffffffffffffffffff1673ffffffffffffffffffffffffffffffffffffffff1663cfc2dc20836040518263ffffffff1660e01b81526004016129e391906142a7565b60206040518083038186803b1580156129fb57600080fd5b505afa158015612a0f573d6000803e3d6000fd5b505050506040513d601f19601f82011682018060405250810190612a3391906139fb565b9050919050565b612a4382611d60565b612a5481612a4f613116565b61311e565b612a5e838361329b565b505050565b600760009054906101000a900473ffffffffffffffffffffffffffffffffffffffff1673ffffffffffffffffffffffffffffffffffffffff1663a556feec82336040518363ffffffff1660e01b8152600401612ac09291906142c2565b60006040518083038186803b158015612ad857600080fd5b505afa158015612aec573d6000803e3d6000fd5b505050506000600760009054906101000a900473ffffffffffffffffffffffffffffffffffffffff1673ffffffffffffffffffffffffffffffffffffffff166340d6eaab836040518263ffffffff1660e01b8152600401612b4d91906142a7565b60206040518083038186803b158015612b6557600080fd5b505afa158015612b79573d6000803e3d6000fd5b505050506040513d601f19601f82011682018060405250810190612b9d91906139fb565b9050600560009054906101000a900473ffffffffffffffffffffffffffffffffffffffff1673ffffffffffffffffffffffffffffffffffffffff16318110612c1a576040517f08c379a0000000000000000000000000000000000000000000000000000000008152600401612c11906141e2565b60405180910390fd5b600760009054906101000a900473ffffffffffffffffffffffffffffffffffffffff1673ffffffffffffffffffffffffffffffffffffffff16636c1f7b93836040518263ffffffff1660e01b8152600401612c7591906142a7565b600060405180830381600087803b158015612c8f57600080fd5b505af1158015612ca3573d6000803e3d6000fd5b505050503373ffffffffffffffffffffffffffffffffffffffff166108fc829081150290604051600060405180830381858888f19350505050158015612ced573d6000803e3d6000fd5b50600660009054906101000a900473ffffffffffffffffffffffffffffffffffffffff1673ffffffffffffffffffffffffffffffffffffffff1663d5093b0b3384600760009054906101000a900473ffffffffffffffffffffffffffffffffffffffff1673ffffffffffffffffffffffffffffffffffffffff166346047a66876040518263ffffffff1660e01b8152600401612d8991906142a7565b60206040518083038186803b158015612da157600080fd5b505afa158015612db5573d6000803e3d6000fd5b505050506040513d601f19601f82011682018060405250810190612dd991906139fb565b600760009054906101000a900473ffffffffffffffffffffffffffffffffffffffff1673ffffffffffffffffffffffffffffffffffffffff1663128734c58860006040518363ffffffff1660e01b8152600401612e37929190614314565b60206040518083038186803b158015612e4f57600080fd5b505afa158015612e63573d6000803e3d6000fd5b505050506040513d601f19601f82011682018060405250810190612e8791906139fb565b600760009054906101000a900473ffffffffffffffffffffffffffffffffffffffff1673ffffffffffffffffffffffffffffffffffffffff1663128734c58960016040518363ffffffff1660e01b8152600401612ee5929190614314565b60206040518083038186803b158015612efd57600080fd5b505afa158015612f11573d6000803e3d6000fd5b505050506040513d601f19601f82011682018060405250810190612f3591906139fb565b6040518663ffffffff1660e01b8152600401612f5595949392919061409c565b600060405180830381600087803b158015612f6f57600080fd5b505af1158015612f83573d6000803e3d6000fd5b505050503373ffffffffffffffffffffffffffffffffffffffff167f8f2c12170d00ec65667818534e98f87ee79befe3c56b35e5d25bc5c504b52b54600760009054906101000a900473ffffffffffffffffffffffffffffffffffffffff1673ffffffffffffffffffffffffffffffffffffffff16631ce5e9a6856040518263ffffffff1660e01b815260040161301a91906142a7565b6101c06040518083038186803b15801561303357600080fd5b505afa158015613047573d6000803e3d6000fd5b505050506040513d601f19601f8201168201806040525081019061306b9190613973565b8360405161307a929190614242565b60405180910390a25050565b600560009054906101000a900473ffffffffffffffffffffffffffffffffffffffff1681565b60007f01ffc9a7000000000000000000000000000000000000000000000000000000007bffffffffffffffffffffffffffffffffffffffffffffffffffffffff1916827bffffffffffffffffffffffffffffffffffffffffffffffffffffffff1916149050919050565b600033905090565b6131288282612059565b6131b75761314d8173ffffffffffffffffffffffffffffffffffffffff16601461337c565b61315b8360001c602061337c565b60405160200161316c929190613f79565b6040516020818303038152906040526040517f08c379a00000000000000000000000000000000000000000000000000000000081526004016131ae9190614140565b60405180910390fd5b5050565b6131c58282612059565b61329757600160008084815260200190815260200160002060000160008373ffffffffffffffffffffffffffffffffffffffff1673ffffffffffffffffffffffffffffffffffffffff16815260200190815260200160002060006101000a81548160ff02191690831515021790555061323c613116565b73ffffffffffffffffffffffffffffffffffffffff168173ffffffffffffffffffffffffffffffffffffffff16837f2f8788117e7eff1d82e926ec794901d17c78024a50270940304540a733656f0d60405160405180910390a45b5050565b6132a58282612059565b1561337857600080600084815260200190815260200160002060000160008373ffffffffffffffffffffffffffffffffffffffff1673ffffffffffffffffffffffffffffffffffffffff16815260200190815260200160002060006101000a81548160ff02191690831515021790555061331d613116565b73ffffffffffffffffffffffffffffffffffffffff168173ffffffffffffffffffffffffffffffffffffffff16837ff6391f5c32d9c69d2a47ea670b442974b53935d1edc7fd64eb21e047a839171b60405160405180910390a45b5050565b60606000600283600261338f9190614533565b61339991906144ac565b67ffffffffffffffff8111156133b2576133b161482f565b5b6040519080825280601f01601f1916602001820160405280156133e45781602001600182028036833780820191505090505b5090507f30000000000000000000000000000000000000000000000000000000000000008160008151811061341c5761341b614800565b5b60200101907effffffffffffffffffffffffffffffffffffffffffffffffffffffffffffff1916908160001a9053507f7800000000000000000000000000000000000000000000000000000000000000816001815181106134805761347f614800565b5b60200101907effffffffffffffffffffffffffffffffffffffffffffffffffffffffffffff1916908160001a905350600060018460026134c09190614533565b6134ca91906144ac565b90505b600181111561356a577f3031323334353637383961626364656600000000000000000000000000000000600f86166010811061350c5761350b614800565b5b1a60f81b82828151811061352357613522614800565b5b60200101907effffffffffffffffffffffffffffffffffffffffffffffffffffffffffffff1916908160001a905350600485901c945080613563906146fe565b90506134cd565b50600084146135ae576040517f08c379a00000000000000000000000000000000000000000000000000000000081526004016135a590614162565b60405180910390fd5b8091505092915050565b6000813590506135c781614a45565b92915050565b6000815190506135dc81614a45565b92915050565b6000813590506135f181614a5c565b92915050565b60008151905061360681614a73565b92915050565b60008135905061361b81614a8a565b92915050565b60008151905061363081614a8a565b92915050565b60008135905061364581614aa1565b92915050565b60008151905061365a81614ab8565b92915050565b60008135905061366f81614ac8565b92915050565b60008151905061368481614ac8565b92915050565b60006101c082840312156136a1576136a061485e565b5b6136ac6101c0614460565b905060006136bc84828501613675565b60008301525060206136d0848285016135cd565b60208301525060406136e48482850161364b565b60408301525060606136f88482850161383d565b606083015250608061370c8482850161383d565b60808301525060a06137208482850161383d565b60a08301525060c06137348482850161383d565b60c08301525060e06137488482850161383d565b60e08301525061010061375d8482850161383d565b610100830152506101206137738482850161383d565b610120830152506101406137898482850161383d565b6101408301525061016061379f8482850161383d565b610160830152506101806137b58482850161383d565b610180830152506101a06137cb8482850161383d565b6101a08301525092915050565b6000604082840312156137ee576137ed61485e565b5b6137f86040614460565b905060006138088482850161383d565b600083015250602061381c8482850161383d565b60208301525092915050565b60008135905061383781614ad8565b92915050565b60008151905061384c81614ad8565b92915050565b60006020828403121561386857613867614863565b5b6000613876848285016135e2565b91505092915050565b60006020828403121561389557613894614863565b5b60006138a3848285016135f7565b91505092915050565b6000602082840312156138c2576138c1614863565b5b60006138d08482850161360c565b91505092915050565b6000602082840312156138ef576138ee614863565b5b60006138fd84828501613621565b91505092915050565b6000806040838503121561391d5761391c614863565b5b600061392b8582860161360c565b925050602061393c858286016135b8565b9150509250929050565b60006020828403121561395c5761395b614863565b5b600061396a84828501613636565b91505092915050565b60006101c0828403121561398a57613989614863565b5b60006139988482850161368a565b91505092915050565b6000604082840312156139b7576139b6614863565b5b60006139c5848285016137d8565b91505092915050565b6000602082840312156139e4576139e3614863565b5b60006139f284828501613828565b91505092915050565b600060208284031215613a1157613a10614863565b5b6000613a1f8482850161383d565b91505092915050565b60008060408385031215613a3f57613a3e614863565b5b6000613a4d85828601613828565b9250506020613a5e85828601613828565b9150509250929050565b60008060408385031215613a7f57613a7e614863565b5b6000613a8d8582860161383d565b9250506020613a9e8582860161383d565b9150509250929050565b60008060008060808587031215613ac257613ac1614863565b5b6000613ad087828801613828565b9450506020613ae187828801613828565b9350506040613af287828801613660565b9250506060613b0387828801613828565b91505092959194509250565b600080600080600060a08688031215613b2b57613b2a614863565b5b6000613b3988828901613828565b9550506020613b4a88828901613828565b9450506040613b5b88828901613660565b9350506060613b6c88828901613828565b9250506080613b7d88828901613828565b9150509295509295909350565b613b938161464d565b82525050565b613ba2816145a9565b82525050565b613bb181614597565b82525050565b613bc081614597565b82525050565b613bcf816145bb565b82525050565b613bde816145c7565b82525050565b613bed8161465f565b82525050565b613bfc81614683565b82525050565b613c0b81614695565b82525050565b613c1a81614695565b82525050565b6000613c2b82614485565b613c358185614490565b9350613c458185602086016146cb565b613c4e81614868565b840191505092915050565b6000613c6482614485565b613c6e81856144a1565b9350613c7e8185602086016146cb565b80840191505092915050565b6000613c97602083614490565b9150613ca282614886565b602082019050919050565b6000613cba601883614490565b9150613cc5826148af565b602082019050919050565b6000613cdd600f83614490565b9150613ce8826148d8565b602082019050919050565b6000613d00601a83614490565b9150613d0b82614901565b602082019050919050565b6000613d23601583614490565b9150613d2e8261492a565b602082019050919050565b6000613d46601983614490565b9150613d5182614953565b602082019050919050565b6000613d696017836144a1565b9150613d748261497c565b601782019050919050565b6000613d8c6011836144a1565b9150613d97826149a5565b601182019050919050565b6000613daf602f83614490565b9150613dba826149ce565b604082019050919050565b6101c082016000820151613ddc6000850182613c02565b506020820151613def6020850182613ba8565b506040820151613e026040850182613bf3565b506060820151613e156060850182613f5b565b506080820151613e286080850182613f5b565b5060a0820151613e3b60a0850182613f5b565b5060c0820151613e4e60c0850182613f5b565b5060e0820151613e6160e0850182613f5b565b50610100820151613e76610100850182613f5b565b50610120820151613e8b610120850182613f5b565b50610140820151613ea0610140850182613f5b565b50610160820151613eb5610160850182613f5b565b50610180820151613eca610180850182613f5b565b506101a0820151613edf6101a0850182613f5b565b50505050565b604082016000820151613efb6000850182613f5b565b506020820151613f0e6020850182613f5b565b50505050565b604082016000808301549050613f2981614728565b613f366000860182613f5b565b5060018301549050613f4781614728565b613f546020860182613f5b565b5050505050565b613f6481614643565b82525050565b613f7381614643565b82525050565b6000613f8482613d5c565b9150613f908285613c59565b9150613f9b82613d7f565b9150613fa78284613c59565b91508190509392505050565b6000602082019050613fc86000830184613b99565b92915050565b6000604082019050613fe36000830185613b99565b613ff06020830184613f6a565b9392505050565b600060608201905061400c6000830186613bb7565b6140196020830185613b8a565b6140266040830184613f6a565b949350505050565b60006040820190506140436000830185613bb7565b6140506020830184613f6a565b9392505050565b600060808201905061406c6000830187613bb7565b6140796020830186613f6a565b6140866040830185613f6a565b6140936060830184613f6a565b95945050505050565b600060a0820190506140b16000830188613bb7565b6140be6020830187613f6a565b6140cb6040830186613f6a565b6140d86060830185613f6a565b6140e56080830184613f6a565b9695505050505050565b60006020820190506141046000830184613bc6565b92915050565b600060208201905061411f6000830184613bd5565b92915050565b600060208201905061413a6000830184613be4565b92915050565b6000602082019050818103600083015261415a8184613c20565b905092915050565b6000602082019050818103600083015261417b81613c8a565b9050919050565b6000602082019050818103600083015261419b81613cad565b9050919050565b600060208201905081810360008301526141bb81613cd0565b9050919050565b600060208201905081810360008301526141db81613cf3565b9050919050565b600060208201905081810360008301526141fb81613d16565b9050919050565b6000602082019050818103600083015261421b81613d39565b9050919050565b6000602082019050818103600083015261423b81613da2565b9050919050565b60006101e0820190506142586000830185613dc5565b6142666101c0830184613f6a565b9392505050565b6000610200820190506142836000830186613dc5565b6142916101c0830185613f6a565b61429f6101e0830184613bc6565b949350505050565b60006020820190506142bc6000830184613f6a565b92915050565b60006040820190506142d76000830185613f6a565b6142e46020830184613bb7565b9392505050565b60006040820190506143006000830185613f6a565b61430d6020830184613bc6565b9392505050565b60006040820190506143296000830185613f6a565b6143366020830184613c11565b9392505050565b60006040820190506143526000830185613f6a565b61435f6020830184613f6a565b9392505050565b60006101008201905061437c6000830189613f6a565b6143896020830188613f6a565b6143966040830187613c11565b6143a36060830186613f6a565b6143b06080830185613f14565b6143bd60c0830184613ee5565b979650505050505050565b600060c0820190506143dd6000830189613f6a565b6143ea6020830188613f6a565b6143f76040830187613c11565b6144046060830186613f6a565b6144116080830185613f6a565b61441e60a0830184613f6a565b979650505050505050565b600060608201905061443e6000830186613f6a565b61444b6020830185613f6a565b6144586040830184613f6a565b949350505050565b600061446a61447b565b90506144768282614742565b919050565b6000604051905090565b600081519050919050565b600082825260208201905092915050565b600081905092915050565b60006144b782614643565b91506144c283614643565b9250827fffffffffffffffffffffffffffffffffffffffffffffffffffffffffffffffff038211156144f7576144f6614773565b5b828201905092915050565b600061450d82614643565b915061451883614643565b925082614528576145276147a2565b5b828204905092915050565b600061453e82614643565b915061454983614643565b9250817fffffffffffffffffffffffffffffffffffffffffffffffffffffffffffffffff048311821515161561458257614581614773565b5b828202905092915050565b6000819050919050565b60006145a282614623565b9050919050565b60006145b482614623565b9050919050565b60008115159050919050565b6000819050919050565b60007fffffffff0000000000000000000000000000000000000000000000000000000082169050919050565b600081905061460b82614a1d565b919050565b600081905061461e82614a31565b919050565b600073ffffffffffffffffffffffffffffffffffffffff82169050919050565b6000819050919050565b6000614658826146a7565b9050919050565b600061466a82614671565b9050919050565b600061467c82614623565b9050919050565b600061468e826145fd565b9050919050565b60006146a082614610565b9050919050565b60006146b2826146b9565b9050919050565b60006146c482614623565b9050919050565b60005b838110156146e95780820151818401526020810190506146ce565b838111156146f8576000848401525b50505050565b600061470982614643565b9150600082141561471d5761471c614773565b5b600182039050919050565b600061473b61473683614879565b61458d565b9050919050565b61474b82614868565b810181811067ffffffffffffffff8211171561476a5761476961482f565b5b80604052505050565b7f4e487b7100000000000000000000000000000000000000000000000000000000600052601160045260246000fd5b7f4e487b7100000000000000000000000000000000000000000000000000000000600052601260045260246000fd5b7f4e487b7100000000000000000000000000000000000000000000000000000000600052602160045260246000fd5b7f4e487b7100000000000000000000000000000000000000000000000000000000600052603260045260246000fd5b7f4e487b7100000000000000000000000000000000000000000000000000000000600052604160045260246000fd5b600080fd5b600080fd5b6000601f19601f8301169050919050565b60008160001c9050919050565b7f537472696e67733a20686578206c656e67746820696e73756666696369656e74600082015250565b7f556e737570706f72746564206f7074696f6e20747970652e0000000000000000600082015250565b7f4661696c6564207061796d656e742e0000000000000000000000000000000000600082015250565b7f456e7465726564207072656d69756d20696e636f72726563742e000000000000600082015250565b7f42616c616e636520696e73756666696369656e742e0000000000000000000000600082015250565b7f556e737570706f72746564206f7074696f6e2074656e6f722e00000000000000600082015250565b7f416363657373436f6e74726f6c3a206163636f756e7420000000000000000000600082015250565b7f206973206d697373696e6720726f6c6520000000000000000000000000000000600082015250565b7f416363657373436f6e74726f6c3a2063616e206f6e6c792072656e6f756e636560008201527f20726f6c657320666f722073656c660000000000000000000000000000000000602082015250565b60048110614a2e57614a2d6147d1565b5b50565b60028110614a4257614a416147d1565b5b50565b614a4e81614597565b8114614a5957600080fd5b50565b614a65816145a9565b8114614a7057600080fd5b50565b614a7c816145bb565b8114614a8757600080fd5b50565b614a93816145c7565b8114614a9e57600080fd5b50565b614aaa816145d1565b8114614ab557600080fd5b50565b60048110614ac557600080fd5b50565b60028110614ad557600080fd5b50565b614ae181614643565b8114614aec57600080fd5b5056fea26469706673582212206b57a6f0ca5f45e7a2e0802757b11ebc61a001d6c3337c117b6db394ee1a4b5264736f6c63430008060033",
  "immutableReferences": {},
  "source": "/**\n * SPDX-License-Identifier: GPL-3.0-or-later\n * Moret\n * Copyright (C) 2021 Moret\n*/\n\npragma solidity ^0.8.4;\n\nimport \"@openzeppelin/contracts/token/ERC20/ERC20.sol\";\nimport \"@openzeppelin/contracts/access/AccessControl.sol\";\nimport \"./MoretInterfaces.sol\";\nimport \"./OptionVault.sol\";\nimport \"./VolatilityToken.sol\";\nimport \"./MarketMakerNative.sol\";\n\ncontract ExchangeNative is AccessControl, EOption\n{\nbytes32 public constant ADMIN_ROLE = keccak256(\"ADMIN_ROLE\");\n    OptionLibrary.Percent public settlementFee = OptionLibrary.Percent(5 * 10 ** 3, 10 ** 6);\n    OptionLibrary.Percent public volTransactionFees = OptionLibrary.Percent(5 * 10 ** 3, 10 ** 6);\n      address payable public contractAddress;\n\n    MarketMakerNative internal marketMaker;\n    OptionVault internal optionVault;\n\n    mapping(uint256=>VolatilityToken) public volTokensList;\n\n    constructor(\n      address payable _marketMakerAddress,\n      address _optionAddress,\n      address payable _volTokenAddress\n      )\n    {\n      _setupRole(DEFAULT_ADMIN_ROLE, msg.sender);\n        _setupRole(ADMIN_ROLE, msg.sender);\n\n      optionVault = OptionVault(_optionAddress);\n      marketMaker = MarketMakerNative(_marketMakerAddress);\n      VolatilityToken _volToken = VolatilityToken(_volTokenAddress);\n      volTokensList[_volToken.tenor()] = _volToken;\n      contractAddress = payable(address(this));\n    }\n\n    function queryOptionCost(uint256 _tenor, uint256 _strike, OptionLibrary.PayoffType _poType, uint256 _amount)\n    external view returns(uint256)\n    {\n        (uint256 _premium, uint256 _fee) = optionVault.queryOptionCost(_tenor, _strike, _poType, _amount,\n          settlementFee, marketMaker.calcUtilityAddon(_amount, _poType) );\n        return _premium + _fee;\n    }\n\n    function purchaseOption(uint256 _tenor, uint256 _strike, OptionLibrary.PayoffType _poType, uint256 _amount)\n    external payable {\n      require(optionVault.containsTenor(_tenor), \"Unsupported option tenor.\");\n      require((_poType == OptionLibrary.PayoffType.Call) || (_poType==OptionLibrary.PayoffType.Put), \"Unsupported option type.\");\n\n      (uint256 _premium, uint256 _fee) = optionVault.queryOptionCost(_tenor, _strike, _poType, _amount, settlementFee, marketMaker.calcUtilityAddon(_amount, _poType) );\n\n      uint256 _id = optionVault.addOption(_tenor, _strike, _poType, _amount, _premium, _fee );\n      require(msg.value >= optionVault.queryDraftOptionCost(_id, false), \"Entered premium incorrect.\");\n      payable(address(marketMaker)).transfer(optionVault.queryOptionPremium(_id));\n\n      optionVault.stampActiveOption(_id);\n\n      marketMaker.recordOptionPurhcase(msg.sender, _id, optionVault.queryOptionPremium(_id),\n        optionVault.queryOptionExposure(_id, OptionLibrary.PayoffType.Call),\n        optionVault.queryOptionExposure(_id, OptionLibrary.PayoffType.Put));\n\n      emit newOptionBought(msg.sender, optionVault.getOption(_id), msg.value, false);\n\n    }\n\n    function purchaseOptionInVol(uint256 _tenor, uint256 _strike, OptionLibrary.PayoffType _poType, uint256 _amount,\n      uint256 _payInCost)\n      external {\n      require(optionVault.containsTenor(_tenor), \"Unsupported option tenor.\");\n      require((_poType == OptionLibrary.PayoffType.Call) || (_poType==OptionLibrary.PayoffType.Put), \"Unsupported option type.\");\n\n      (uint256 _premium, uint256 _fee) = optionVault.queryOptionCost(_tenor, _strike, _poType, _amount, settlementFee, marketMaker.calcUtilityAddon(_amount, _poType) );\n\n      uint256 _id = optionVault.addOption(_tenor, _strike, _poType, _amount, _premium, _fee );\n      require(_payInCost >= optionVault.queryDraftOptionCost(_id, true), \"Entered premium incorrect.\");\n\n      require(volTokensList[_tenor].transferFrom(msg.sender, contractAddress, _payInCost), 'Failed payment.');\n\n      volTokensList[_tenor].approve(address(volTokensList[_tenor]), _payInCost);\n      volTokensList[_tenor].recycle(contractAddress, _payInCost);\n      payable(address(marketMaker)).transfer(optionVault.queryOptionPremium(_id));\n\n      optionVault.stampActiveOption(_id);\n\n      marketMaker.recordOptionPurhcase(msg.sender, _id, optionVault.queryOptionPremium(_id),\n        optionVault.queryOptionExposure(_id, OptionLibrary.PayoffType.Call),\n        optionVault.queryOptionExposure(_id, OptionLibrary.PayoffType.Put));\n\n      emit newOptionBought(msg.sender, optionVault.getOption(_id), _payInCost, true);\n\n    }\n\n    function exerciseOption(uint256 _id) external  {\n        optionVault.validateOption(_id, msg.sender);\n\n        uint256 _payoffValue = optionVault.getOptionPayoffValue(_id);\n        require(_payoffValue < contractAddress.balance, \"Balance insufficient.\");\n\n        optionVault.stampExercisedOption(_id);\n        payable(msg.sender).transfer(_payoffValue);\n\n        marketMaker.recordOptionRemoval(msg.sender, _id, optionVault.queryOptionPremium(_id),\n          optionVault.queryOptionExposure(_id, OptionLibrary.PayoffType.Call),\n          optionVault.queryOptionExposure(_id, OptionLibrary.PayoffType.Put));\n\n        emit optionExercised(msg.sender, optionVault.getOption(_id), _payoffValue);\n    }\n\n    function expireOption(uint256 _id) internal {\n        if(optionVault.isOptionExpiring(_id))\n        {\n            uint256 _payoffValue = optionVault.getOptionPayoffValue(_id);\n            require(_payoffValue < contractAddress.balance, \"Balance insufficient.\");\n\n            optionVault.stampExpiredOption(_id);\n\n            address payable _optionHolder = optionVault.getOptionHolder(_id);\n            payable(_optionHolder).transfer(_payoffValue);\n\n            marketMaker.recordOptionRemoval(msg.sender, _id, optionVault.queryOptionPremium(_id),\n              optionVault.queryOptionExposure(_id, OptionLibrary.PayoffType.Call),\n              optionVault.queryOptionExposure(_id, OptionLibrary.PayoffType.Put));\n        }\n    }\n\n\n      function addVolToken(address payable _tokenAddress) external onlyRole(ADMIN_ROLE)\n      {\n          VolatilityToken _volToken = VolatilityToken(_tokenAddress);\n          require(_volToken.descriptionHash() == optionVault.descriptionHash());\n          require(optionVault.containsTenor(_volToken.tenor()));\n\n          volTokensList[_volToken.tenor()] = _volToken;\n\n      }\n\n      function quoteVolatilityCost(uint256 _tenor, uint256 _volAmount) public view returns(uint256, uint256)\n      {\n          require(optionVault.containsTenor(_tenor));\n\n          (uint256 _price,) = optionVault.queryPrice();\n\n          uint256 _value = volTokensList[_tenor].calculateMintValue(_volAmount, _price, optionVault.queryVol(_tenor));\n          uint256 _fee = _value * volTransactionFees.numerator/ volTransactionFees.denominator;\n\n          return (_value, _fee);\n      }\n\n      function purchaseVolatilityToken(uint256 _tenor, uint256 _volAmount)\n      external payable {\n          (uint256 _value, uint256 _fee) = quoteVolatilityCost(_tenor, _volAmount);\n          require(msg.value >= (_value + _fee));\n\n          volTokensList[_tenor].mint{value: _value}(msg.sender, _volAmount);\n\n          emit newVolatilityTokenBought(msg.sender, block.timestamp, _tenor, _volAmount);\n      }\n\n      function sweepBalance() external onlyRole(ADMIN_ROLE){\n            payable(msg.sender).transfer(contractAddress.balance);\n      }\n\n      function resetSettlementFees(uint256 _fee, uint256 _denominator) external onlyRole(ADMIN_ROLE){\n          settlementFee = OptionLibrary.Percent(_fee, _denominator);\n      }\n\n      function resetVolTransactionFees(uint256 _fee, uint256 _denominator) external onlyRole(ADMIN_ROLE){\n          volTransactionFees = OptionLibrary.Percent(_fee, _denominator);\n      }\n\n      function priceDecimals() external view returns(uint256){ return optionVault.priceDecimals();}\n      function queryVol(uint256 _tenor) external view returns(uint256){return optionVault.queryVol(_tenor);}\n\n          receive() external payable{}\n\n}\n",
  "sourcePath": "/Users/mac/Documents/GitHub/moret/contracts/ExchangeNative.sol",
  "compiler": {
    "name": "solc",
    "version": "0.8.6+commit.11564f7e.Emscripten.clang"
  },
  "schemaVersion": "3.4.1",
  "updatedAt": "2021-07-02T23:42:31.853Z",
  "devdoc": {
    "kind": "dev",
    "methods": {
      "getRoleAdmin(bytes32)": {
        "details": "Returns the admin role that controls `role`. See {grantRole} and {revokeRole}. To change a role's admin, use {_setRoleAdmin}."
      },
      "grantRole(bytes32,address)": {
        "details": "Grants `role` to `account`. If `account` had not been already granted `role`, emits a {RoleGranted} event. Requirements: - the caller must have ``role``'s admin role."
      },
      "hasRole(bytes32,address)": {
        "details": "Returns `true` if `account` has been granted `role`."
      },
      "renounceRole(bytes32,address)": {
        "details": "Revokes `role` from the calling account. Roles are often managed via {grantRole} and {revokeRole}: this function's purpose is to provide a mechanism for accounts to lose their privileges if they are compromised (such as when a trusted device is misplaced). If the calling account had been granted `role`, emits a {RoleRevoked} event. Requirements: - the caller must be `account`."
      },
      "revokeRole(bytes32,address)": {
        "details": "Revokes `role` from `account`. If `account` had been granted `role`, emits a {RoleRevoked} event. Requirements: - the caller must have ``role``'s admin role."
      },
      "supportsInterface(bytes4)": {
        "details": "See {IERC165-supportsInterface}."
      }
    },
    "version": 1
  },
  "userdoc": {
    "kind": "user",
    "methods": {},
    "version": 1
  }
}