{
  "contractName": "Exchange",
  "abi": [
    {
      "inputs": [
        {
          "internalType": "contract OptionVault",
          "name": "_optionVault",
          "type": "address"
        }
      ],
      "stateMutability": "nonpayable",
      "type": "constructor"
    },
    {
      "anonymous": false,
      "inputs": [
        {
          "indexed": true,
          "internalType": "address",
          "name": "_bot",
          "type": "address"
        },
        {
          "indexed": true,
          "internalType": "address",
          "name": "_exchange",
          "type": "address"
        },
        {
          "indexed": false,
          "internalType": "address",
          "name": "_holder",
          "type": "address"
        },
        {
          "indexed": false,
          "internalType": "uint256",
          "name": "_id",
          "type": "uint256"
        },
        {
          "indexed": false,
          "internalType": "uint256",
          "name": "_payoff",
          "type": "uint256"
        }
      ],
      "name": "Expire",
      "type": "event"
    },
    {
      "anonymous": false,
      "inputs": [
        {
          "indexed": true,
          "internalType": "address",
          "name": "_hedger",
          "type": "address"
        },
        {
          "indexed": true,
          "internalType": "address",
          "name": "_market",
          "type": "address"
        },
        {
          "indexed": false,
          "internalType": "bool",
          "name": "success",
          "type": "bool"
        },
        {
          "indexed": false,
          "internalType": "bytes",
          "name": "data",
          "type": "bytes"
        }
      ],
      "name": "HedgeResponse",
      "type": "event"
    },
    {
      "anonymous": false,
      "inputs": [
        {
          "indexed": true,
          "internalType": "address",
          "name": "_hedger",
          "type": "address"
        },
        {
          "indexed": true,
          "internalType": "address",
          "name": "_market",
          "type": "address"
        },
        {
          "indexed": false,
          "internalType": "uint256[]",
          "name": "amounts",
          "type": "uint256[]"
        }
      ],
      "name": "HedgeSwapResponse",
      "type": "event"
    },
    {
      "anonymous": false,
      "inputs": [
        {
          "indexed": true,
          "internalType": "address",
          "name": "_purchaser",
          "type": "address"
        },
        {
          "indexed": true,
          "internalType": "address",
          "name": "_exchange",
          "type": "address"
        },
        {
          "indexed": false,
          "internalType": "uint256",
          "name": "_id",
          "type": "uint256"
        },
        {
          "indexed": false,
          "internalType": "uint256",
          "name": "_premium",
          "type": "uint256"
        },
        {
          "indexed": false,
          "internalType": "uint256",
          "name": "_collateral",
          "type": "uint256"
        },
        {
          "indexed": false,
          "internalType": "bool",
          "name": "_inVol",
          "type": "bool"
        }
      ],
      "name": "NewOption",
      "type": "event"
    },
    {
      "anonymous": false,
      "inputs": [
        {
          "indexed": true,
          "internalType": "address",
          "name": "previousOwner",
          "type": "address"
        },
        {
          "indexed": true,
          "internalType": "address",
          "name": "newOwner",
          "type": "address"
        }
      ],
      "name": "OwnershipTransferred",
      "type": "event"
    },
    {
      "anonymous": false,
      "inputs": [
        {
          "indexed": false,
          "internalType": "address",
          "name": "_newBot",
          "type": "address"
        }
      ],
      "name": "ResetBotAddress",
      "type": "event"
    },
    {
      "anonymous": false,
      "inputs": [
        {
          "indexed": true,
          "internalType": "uint256",
          "name": "_parameterId",
          "type": "uint256"
        },
        {
          "indexed": false,
          "internalType": "uint256",
          "name": "_parameter",
          "type": "uint256"
        }
      ],
      "name": "ResetParameter",
      "type": "event"
    },
    {
      "anonymous": false,
      "inputs": [
        {
          "indexed": true,
          "internalType": "address",
          "name": "_exchange",
          "type": "address"
        },
        {
          "indexed": false,
          "internalType": "bool",
          "name": "_tradingAllowed",
          "type": "bool"
        }
      ],
      "name": "ResetTradingStatus",
      "type": "event"
    },
    {
      "anonymous": false,
      "inputs": [
        {
          "indexed": true,
          "internalType": "address",
          "name": "_purchaser",
          "type": "address"
        },
        {
          "indexed": true,
          "internalType": "address",
          "name": "_exchange",
          "type": "address"
        },
        {
          "indexed": false,
          "internalType": "uint256",
          "name": "_cost",
          "type": "uint256"
        },
        {
          "indexed": false,
          "internalType": "uint256",
          "name": "_volAmount",
          "type": "uint256"
        },
        {
          "indexed": false,
          "internalType": "bool",
          "name": "_isPurchase",
          "type": "bool"
        }
      ],
      "name": "TradeVolatility",
      "type": "event"
    },
    {
      "inputs": [],
      "name": "owner",
      "outputs": [
        {
          "internalType": "address",
          "name": "",
          "type": "address"
        }
      ],
      "stateMutability": "view",
      "type": "function"
    },
    {
      "inputs": [],
      "name": "renounceOwnership",
      "outputs": [],
      "stateMutability": "nonpayable",
      "type": "function"
    },
    {
      "inputs": [
        {
          "internalType": "address",
          "name": "newOwner",
          "type": "address"
        }
      ],
      "name": "transferOwnership",
      "outputs": [],
      "stateMutability": "nonpayable",
      "type": "function"
    },
    {
      "inputs": [],
      "name": "vault",
      "outputs": [
        {
          "internalType": "contract OptionVault",
          "name": "",
          "type": "address"
        }
      ],
      "stateMutability": "view",
      "type": "function"
    },
    {
      "inputs": [
        {
          "internalType": "contract Pool",
          "name": "_pool",
          "type": "address"
        },
        {
          "internalType": "uint256",
          "name": "_tenor",
          "type": "uint256"
        },
        {
          "internalType": "uint256",
          "name": "_strike",
          "type": "uint256"
        },
        {
          "internalType": "uint256",
          "name": "_amount",
          "type": "uint256"
        },
        {
          "internalType": "enum OptionLib.PayoffType",
          "name": "_poType",
          "type": "uint8"
        },
        {
          "internalType": "enum OptionLib.OptionSide",
          "name": "_side",
          "type": "uint8"
        },
        {
          "internalType": "bool",
          "name": "_forceATM",
          "type": "bool"
        }
      ],
      "name": "queryOption",
      "outputs": [
        {
          "internalType": "uint256",
          "name": "_premium",
          "type": "uint256"
        },
        {
          "internalType": "uint256",
          "name": "_collateral",
          "type": "uint256"
        },
        {
          "internalType": "uint256",
          "name": "_price",
          "type": "uint256"
        },
        {
          "internalType": "uint256",
          "name": "_vol",
          "type": "uint256"
        }
      ],
      "stateMutability": "view",
      "type": "function"
    },
    {
      "inputs": [
        {
          "internalType": "contract Pool",
          "name": "_pool",
          "type": "address"
        },
        {
          "internalType": "uint256",
          "name": "_tenor",
          "type": "uint256"
        },
        {
          "internalType": "uint256",
          "name": "_strike",
          "type": "uint256"
        },
        {
          "internalType": "uint256",
          "name": "_amount",
          "type": "uint256"
        },
        {
          "internalType": "enum OptionLib.PayoffType",
          "name": "_poType",
          "type": "uint8"
        },
        {
          "internalType": "enum OptionLib.OptionSide",
          "name": "_side",
          "type": "uint8"
        }
      ],
      "name": "tradeOption",
      "outputs": [],
      "stateMutability": "nonpayable",
      "type": "function"
    },
    {
      "inputs": [
        {
          "internalType": "contract Pool",
          "name": "_pool",
          "type": "address"
        },
        {
          "internalType": "uint256",
          "name": "_tenor",
          "type": "uint256"
        },
        {
          "internalType": "uint256",
          "name": "_amount",
          "type": "uint256"
        },
        {
          "internalType": "enum OptionLib.PayoffType",
          "name": "_poType",
          "type": "uint8"
        },
        {
          "internalType": "enum OptionLib.OptionSide",
          "name": "_side",
          "type": "uint8"
        }
      ],
      "name": "tradeOptionInVol",
      "outputs": [],
      "stateMutability": "nonpayable",
      "type": "function"
    },
    {
      "inputs": [
        {
          "internalType": "contract Pool",
          "name": "_pool",
          "type": "address"
        },
        {
          "internalType": "uint256",
          "name": "_tenor",
          "type": "uint256"
        },
        {
          "internalType": "uint256",
          "name": "_amount",
          "type": "uint256"
        },
        {
          "internalType": "enum OptionLib.OptionSide",
          "name": "_side",
          "type": "uint8"
        }
      ],
      "name": "tradeVolToken",
      "outputs": [],
      "stateMutability": "nonpayable",
      "type": "function"
    },
    {
      "inputs": [
        {
          "internalType": "contract Pool",
          "name": "_pool",
          "type": "address"
        },
        {
          "internalType": "uint256",
          "name": "_tenor",
          "type": "uint256"
        }
      ],
      "name": "getVolatilityToken",
      "outputs": [
        {
          "internalType": "contract VolatilityToken",
          "name": "",
          "type": "address"
        }
      ],
      "stateMutability": "view",
      "type": "function"
    },
    {
      "inputs": [
        {
          "internalType": "contract Pool",
          "name": "_pool",
          "type": "address"
        }
      ],
      "name": "getVolatilityChain",
      "outputs": [
        {
          "internalType": "contract VolatilityChain",
          "name": "",
          "type": "address"
        }
      ],
      "stateMutability": "view",
      "type": "function"
    },
    {
      "inputs": [
        {
          "internalType": "uint256",
          "name": "_expiringId",
          "type": "uint256"
        },
        {
          "internalType": "address",
          "name": "_exerciseFeeRecipient",
          "type": "address"
        }
      ],
      "name": "expireOption",
      "outputs": [],
      "stateMutability": "nonpayable",
      "type": "function"
    },
    {
      "inputs": [
        {
          "internalType": "contract Pool",
          "name": "_pool",
          "type": "address"
        },
        {
          "internalType": "uint256",
          "name": "_depositAmount",
          "type": "uint256"
        }
      ],
      "name": "addCapital",
      "outputs": [],
      "stateMutability": "nonpayable",
      "type": "function"
    },
    {
      "inputs": [
        {
          "internalType": "contract Pool",
          "name": "_pool",
          "type": "address"
        },
        {
          "internalType": "uint256",
          "name": "_burnPoolAmount",
          "type": "uint256"
        }
      ],
      "name": "withdrawCapital",
      "outputs": [],
      "stateMutability": "nonpayable",
      "type": "function"
    }
  ],
  "bytecode": "0x60a06040523480156200001157600080fd5b5060405162004d4438038062004d448339818101604052810190620000379190620001dc565b620000576200004b6200009260201b60201c565b6200009a60201b60201c565b8073ffffffffffffffffffffffffffffffffffffffff1660808173ffffffffffffffffffffffffffffffffffffffff1681525050506200020e565b600033905090565b60008060009054906101000a900473ffffffffffffffffffffffffffffffffffffffff169050816000806101000a81548173ffffffffffffffffffffffffffffffffffffffff021916908373ffffffffffffffffffffffffffffffffffffffff1602179055508173ffffffffffffffffffffffffffffffffffffffff168173ffffffffffffffffffffffffffffffffffffffff167f8be0079c531659141344cd1fd0a4f28419497f9722a3daafe3b4186f6b6457e060405160405180910390a35050565b600080fd5b600073ffffffffffffffffffffffffffffffffffffffff82169050919050565b6000620001908262000163565b9050919050565b6000620001a48262000183565b9050919050565b620001b68162000197565b8114620001c257600080fd5b50565b600081519050620001d681620001ab565b92915050565b600060208284031215620001f557620001f46200015e565b5b60006200020584828501620001c5565b91505092915050565b608051614ac66200027e6000396000818161036401528181610432015281816104c0015281816113b701528181611acd01528181611fe60152818161234e0152818161265501528181612aa001528181612e21015281816130670152818161317301526136530152614ac66000f3fe608060405234801561001057600080fd5b50600436106100cf5760003560e01c80639111fccd1161008c578063e6ab658e11610066578063e6ab658e146101ff578063e98254bb1461021b578063f2fde38b14610237578063fbfa77cf14610253576100cf565b80639111fccd14610194578063b1ff6171146101b0578063b808d76e146101e3576100cf565b806315dc2e9d146100d457806354f6e8c8146101045780636cce891614610120578063715018a614610150578063826fdbbd1461015a5780638da5cb5b14610176575b600080fd5b6100ee60048036038101906100e991906137cf565b610271565b6040516100fb919061385b565b60405180910390f35b61011e600480360381019061011991906138d8565b61035c565b005b61013a60048036038101906101359190613918565b610ea6565b6040516101479190613979565b60405180910390f35b61015861107b565b005b610174600480360381019061016f91906139b9565b611103565b005b61017e611aa0565b60405161018b9190613a2f565b60405180910390f35b6101ae60048036038101906101a99190613918565b611ac9565b005b6101ca60048036038101906101c59190613aa7565b611eff565b6040516101da9493929190613b58565b60405180910390f35b6101fd60048036038101906101f89190613b9d565b612097565b005b61021960048036038101906102149190613c18565b6129b9565b005b61023560048036038101906102309190613918565b61316f565b005b610251600480360381019061024c9190613ca5565b61355a565b005b61025b613651565b6040516102689190613cf3565b60405180910390f35b6000808273ffffffffffffffffffffffffffffffffffffffff16631f21f9af6040518163ffffffff1660e01b8152600401602060405180830381865afa1580156102bf573d6000803e3d6000fd5b505050506040513d601f19601f820116820180604052508101906102e39190613d4c565b90508073ffffffffffffffffffffffffffffffffffffffff1663c0a16f6a6040518163ffffffff1660e01b8152600401602060405180830381865afa158015610330573d6000803e3d6000fd5b505050506040513d601f19601f820116820180604052508101906103549190613db7565b915050919050565b6000806000807f000000000000000000000000000000000000000000000000000000000000000073ffffffffffffffffffffffffffffffffffffffff1663fc9d80e0876040518263ffffffff1660e01b81526004016103bb9190613de4565b608060405180830381865afa1580156103d8573d6000803e3d6000fd5b505050506040513d601f19601f820116820180604052508101906103fc9190613e63565b93509350935093506001600381111561041857610417613eca565b5b84600381111561042b5761042a613eca565b5b03610e9e577f000000000000000000000000000000000000000000000000000000000000000073ffffffffffffffffffffffffffffffffffffffff1663637baf60876040518263ffffffff1660e01b81526004016104899190613de4565b600060405180830381600087803b1580156104a357600080fd5b505af11580156104b7573d6000803e3d6000fd5b505050506000807f000000000000000000000000000000000000000000000000000000000000000073ffffffffffffffffffffffffffffffffffffffff166385ae10e6896040518263ffffffff1660e01b81526004016105179190613de4565b606060405180830381865afa158015610534573d6000803e3d6000fd5b505050506040513d601f19601f820116820180604052508101906105589190613f0e565b509150915060008373ffffffffffffffffffffffffffffffffffffffff16631f21f9af6040518163ffffffff1660e01b8152600401602060405180830381865afa1580156105aa573d6000803e3d6000fd5b505050506040513d601f19601f820116820180604052508101906105ce9190613d4c565b73ffffffffffffffffffffffffffffffffffffffff1663cb4c86b76040518163ffffffff1660e01b8152600401602060405180830381865afa158015610618573d6000803e3d6000fd5b505050506040513d601f19601f8201168201806040525081019061063c9190613f9f565b73ffffffffffffffffffffffffffffffffffffffff1663313ce5676040518163ffffffff1660e01b8152600401602060405180830381865afa158015610686573d6000803e3d6000fd5b505050506040513d601f19601f820116820180604052508101906106aa9190614005565b60ff16905060008373__MathLib_______________________________63fed4a0f390918773ffffffffffffffffffffffffffffffffffffffff16631f21f9af6040518163ffffffff1660e01b8152600401602060405180830381865afa158015610719573d6000803e3d6000fd5b505050506040513d601f19601f8201168201806040525081019061073d9190613d4c565b73ffffffffffffffffffffffffffffffffffffffff166305268cff6040518163ffffffff1660e01b8152600401602060405180830381865afa158015610787573d6000803e3d6000fd5b505050506040513d601f19601f820116820180604052508101906107ab9190614070565b73ffffffffffffffffffffffffffffffffffffffff1663b0e21e8a6040518163ffffffff1660e01b8152600401602060405180830381865afa1580156107f5573d6000803e3d6000fd5b505050506040513d601f19601f82011682018060405250810190610819919061409d565b6040518363ffffffff1660e01b81526004016108369291906140d9565b602060405180830381865af4158015610853573d6000803e3d6000fd5b505050506040513d601f19601f82011682018060405250810190610877919061409d565b73__MarketLib_____________________________63174e20e69091846040518363ffffffff1660e01b81526004016108b19291906140d9565b602060405180830381865af41580156108ce573d6000803e3d6000fd5b505050506040513d601f19601f820116820180604052508101906108f2919061409d565b905060008473__MathLib_______________________________63fed4a0f390918873ffffffffffffffffffffffffffffffffffffffff1663d1c699aa6040518163ffffffff1660e01b8152600401602060405180830381865afa15801561095e573d6000803e3d6000fd5b505050506040513d601f19601f82011682018060405250810190610982919061409d565b6040518363ffffffff1660e01b815260040161099f9291906140d9565b602060405180830381865af41580156109bc573d6000803e3d6000fd5b505050506040513d601f19601f820116820180604052508101906109e0919061409d565b73__MarketLib_____________________________63174e20e69091856040518363ffffffff1660e01b8152600401610a1a9291906140d9565b602060405180830381865af4158015610a37573d6000803e3d6000fd5b505050506040513d601f19601f82011682018060405250810190610a5b919061409d565b90508373__MarketLib_____________________________63174e20e69091856040518363ffffffff1660e01b8152600401610a989291906140d9565b602060405180830381865af4158015610ab5573d6000803e3d6000fd5b505050506040513d601f19601f82011682018060405250810190610ad9919061409d565b935060006001811115610aef57610aee613eca565b5b886001811115610b0257610b01613eca565b5b03610e9857610b1c848284610b179190614131565b613675565b84610b279190614187565b935060008673ffffffffffffffffffffffffffffffffffffffff16631f21f9af6040518163ffffffff1660e01b8152600401602060405180830381865afa158015610b76573d6000803e3d6000fd5b505050506040513d601f19601f82011682018060405250810190610b9a9190613d4c565b90508073ffffffffffffffffffffffffffffffffffffffff16633e60e34889876040518363ffffffff1660e01b8152600401610bd79291906141bb565b600060405180830381600087803b158015610bf157600080fd5b505af1158015610c05573d6000803e3d6000fd5b505050508073ffffffffffffffffffffffffffffffffffffffff16633e60e3488873ffffffffffffffffffffffffffffffffffffffff16631f21f9af6040518163ffffffff1660e01b8152600401602060405180830381865afa158015610c70573d6000803e3d6000fd5b505050506040513d601f19601f82011682018060405250810190610c949190613d4c565b73ffffffffffffffffffffffffffffffffffffffff166305268cff6040518163ffffffff1660e01b8152600401602060405180830381865afa158015610cde573d6000803e3d6000fd5b505050506040513d601f19601f82011682018060405250810190610d029190614070565b73ffffffffffffffffffffffffffffffffffffffff166364df049e6040518163ffffffff1660e01b8152600401602060405180830381865afa158015610d4c573d6000803e3d6000fd5b505050506040513d601f19601f82011682018060405250810190610d7091906141e4565b856040518363ffffffff1660e01b8152600401610d8e9291906141bb565b600060405180830381600087803b158015610da857600080fd5b505af1158015610dbc573d6000803e3d6000fd5b505050508073ffffffffffffffffffffffffffffffffffffffff16633e60e3488c846040518363ffffffff1660e01b8152600401610dfb9291906141bb565b600060405180830381600087803b158015610e1557600080fd5b505af1158015610e29573d6000803e3d6000fd5b505050503073ffffffffffffffffffffffffffffffffffffffff163373ffffffffffffffffffffffffffffffffffffffff167f1cf7404c642614322b1d508b6d5e34e05720d23d9596b59b19c8a05704b495e18a8f89604051610e8e93929190614211565b60405180910390a3505b50505050505b505050505050565b6000808373ffffffffffffffffffffffffffffffffffffffff16631f21f9af6040518163ffffffff1660e01b8152600401602060405180830381865afa158015610ef4573d6000803e3d6000fd5b505050506040513d601f19601f82011682018060405250810190610f189190613d4c565b90508073ffffffffffffffffffffffffffffffffffffffff166305268cff6040518163ffffffff1660e01b8152600401602060405180830381865afa158015610f65573d6000803e3d6000fd5b505050506040513d601f19601f82011682018060405250810190610f899190614070565b73ffffffffffffffffffffffffffffffffffffffff16636cce89168273ffffffffffffffffffffffffffffffffffffffff16636f307dc36040518163ffffffff1660e01b8152600401602060405180830381865afa158015610fef573d6000803e3d6000fd5b505050506040513d601f19601f8201168201806040525081019061101391906141e4565b856040518363ffffffff1660e01b81526004016110319291906141bb565b602060405180830381865afa15801561104e573d6000803e3d6000fd5b505050506040513d601f19601f820116820180604052508101906110729190614286565b91505092915050565b61108361368e565b73ffffffffffffffffffffffffffffffffffffffff166110a1611aa0565b73ffffffffffffffffffffffffffffffffffffffff16146110f7576040517f08c379a00000000000000000000000000000000000000000000000000000000081526004016110ee90614310565b60405180910390fd5b6111016000613696565b565b60008473ffffffffffffffffffffffffffffffffffffffff16631f21f9af6040518163ffffffff1660e01b8152600401602060405180830381865afa158015611150573d6000803e3d6000fd5b505050506040513d601f19601f820116820180604052508101906111749190613d4c565b905060008173ffffffffffffffffffffffffffffffffffffffff166305268cff6040518163ffffffff1660e01b8152600401602060405180830381865afa1580156111c3573d6000803e3d6000fd5b505050506040513d601f19601f820116820180604052508101906111e79190614070565b73ffffffffffffffffffffffffffffffffffffffff16636cce89168373ffffffffffffffffffffffffffffffffffffffff16636f307dc36040518163ffffffff1660e01b8152600401602060405180830381865afa15801561124d573d6000803e3d6000fd5b505050506040513d601f19601f8201168201806040525081019061127191906141e4565b876040518363ffffffff1660e01b815260040161128f9291906141bb565b602060405180830381865afa1580156112ac573d6000803e3d6000fd5b505050506040513d601f19601f820116820180604052508101906112d09190614286565b905060006040518061022001604052806001808111156112f3576112f2613eca565b5b815260200185600181111561130b5761130a613eca565b5b81526020016000600381111561132457611323613eca565b5b81526020013373ffffffffffffffffffffffffffffffffffffffff1681526020016000815260200142815260200160008152602001878152602001600081526020016000815260200186815260200160008152602001600081526020016000815260200160008152602001600081526020018873ffffffffffffffffffffffffffffffffffffffff1681525090506000807f000000000000000000000000000000000000000000000000000000000000000073ffffffffffffffffffffffffffffffffffffffff16632360e8178460016040518363ffffffff1660e01b8152600401611411929190614594565b608060405180830381865afa15801561142e573d6000803e3d6000fd5b505050506040513d601f19601f8201168201806040525081019061145291906145bf565b93505050915060008273__MathLib_______________________________63de7f61709091846040518363ffffffff1660e01b81526004016114959291906140d9565b602060405180830381865af41580156114b2573d6000803e3d6000fd5b505050506040513d601f19601f820116820180604052508101906114d6919061409d565b90508273__MarketLib_____________________________63174e20e690918873ffffffffffffffffffffffffffffffffffffffff1663cb4c86b76040518163ffffffff1660e01b8152600401602060405180830381865afa158015611540573d6000803e3d6000fd5b505050506040513d601f19601f820116820180604052508101906115649190613f9f565b73ffffffffffffffffffffffffffffffffffffffff1663313ce5676040518163ffffffff1660e01b8152600401602060405180830381865afa1580156115ae573d6000803e3d6000fd5b505050506040513d601f19601f820116820180604052508101906115d29190614005565b6040518363ffffffff1660e01b81526004016115ef929190614657565b602060405180830381865af415801561160c573d6000803e3d6000fd5b505050506040513d601f19601f82011682018060405250810190611630919061409d565b92506000600181111561164657611645613eca565b5b87600181111561165957611658613eca565b5b0361186b578573ffffffffffffffffffffffffffffffffffffffff1663cb4c86b76040518163ffffffff1660e01b8152600401602060405180830381865afa1580156116a9573d6000803e3d6000fd5b505050506040513d601f19601f820116820180604052508101906116cd9190613f9f565b73ffffffffffffffffffffffffffffffffffffffff166323b872dd338c73ffffffffffffffffffffffffffffffffffffffff16631f21f9af6040518163ffffffff1660e01b8152600401602060405180830381865afa158015611734573d6000803e3d6000fd5b505050506040513d601f19601f820116820180604052508101906117589190613d4c565b866040518463ffffffff1660e01b815260040161177793929190614680565b6020604051808303816000875af1158015611796573d6000803e3d6000fd5b505050506040513d601f19601f820116820180604052508101906117ba91906146cc565b6117f9576040517f08c379a00000000000000000000000000000000000000000000000000000000081526004016117f090614745565b60405180910390fd5b8473ffffffffffffffffffffffffffffffffffffffff166340c10f1933836040518363ffffffff1660e01b81526004016118349291906141bb565b600060405180830381600087803b15801561184e57600080fd5b505af1158015611862573d6000803e3d6000fd5b50505050611a04565b8473ffffffffffffffffffffffffffffffffffffffff16639dc29fac33836040518363ffffffff1660e01b81526004016118a69291906141bb565b600060405180830381600087803b1580156118c057600080fd5b505af11580156118d4573d6000803e3d6000fd5b505050508573ffffffffffffffffffffffffffffffffffffffff1663cb4c86b76040518163ffffffff1660e01b8152600401602060405180830381865afa158015611923573d6000803e3d6000fd5b505050506040513d601f19601f820116820180604052508101906119479190613f9f565b73ffffffffffffffffffffffffffffffffffffffff1663a9059cbb33856040518363ffffffff1660e01b81526004016119819291906141bb565b6020604051808303816000875af11580156119a0573d6000803e3d6000fd5b505050506040513d601f19601f820116820180604052508101906119c491906146cc565b611a03576040517f08c379a00000000000000000000000000000000000000000000000000000000081526004016119fa906147b1565b60405180910390fd5b5b8973ffffffffffffffffffffffffffffffffffffffff163373ffffffffffffffffffffffffffffffffffffffff167fecff3762708241a160664f7092d4ff3e5e6eed425112beca3a558737639f0ba38a8460006001811115611a6957611a68613eca565b5b8c6001811115611a7c57611a7b613eca565b5b14604051611a8c939291906147d1565b60405180910390a350505050505050505050565b60008060009054906101000a900473ffffffffffffffffffffffffffffffffffffffff16905090565b60007f000000000000000000000000000000000000000000000000000000000000000073ffffffffffffffffffffffffffffffffffffffff16635c273c2f846001806040518463ffffffff1660e01b8152600401611b2993929190614829565b602060405180830381865afa158015611b46573d6000803e3d6000fd5b505050506040513d601f19601f82011682018060405250810190611b6a919061409d565b905060008173__MathLib_______________________________63fed4a0f39091856040518363ffffffff1660e01b8152600401611ba99291906140d9565b602060405180830381865af4158015611bc6573d6000803e3d6000fd5b505050506040513d601f19601f82011682018060405250810190611bea919061409d565b73__MarketLib_____________________________63174e20e690918673ffffffffffffffffffffffffffffffffffffffff16631f21f9af6040518163ffffffff1660e01b8152600401602060405180830381865afa158015611c51573d6000803e3d6000fd5b505050506040513d601f19601f82011682018060405250810190611c759190613d4c565b73ffffffffffffffffffffffffffffffffffffffff1663cb4c86b76040518163ffffffff1660e01b8152600401602060405180830381865afa158015611cbf573d6000803e3d6000fd5b505050506040513d601f19601f82011682018060405250810190611ce39190613f9f565b73ffffffffffffffffffffffffffffffffffffffff1663313ce5676040518163ffffffff1660e01b8152600401602060405180830381865afa158015611d2d573d6000803e3d6000fd5b505050506040513d601f19601f82011682018060405250810190611d519190614005565b6040518363ffffffff1660e01b8152600401611d6e929190614657565b602060405180830381865af4158015611d8b573d6000803e3d6000fd5b505050506040513d601f19601f82011682018060405250810190611daf919061409d565b90508373ffffffffffffffffffffffffffffffffffffffff16639dc29fac33856040518363ffffffff1660e01b8152600401611dec9291906141bb565b600060405180830381600087803b158015611e0657600080fd5b505af1158015611e1a573d6000803e3d6000fd5b505050508373ffffffffffffffffffffffffffffffffffffffff16631f21f9af6040518163ffffffff1660e01b8152600401602060405180830381865afa158015611e69573d6000803e3d6000fd5b505050506040513d601f19601f82011682018060405250810190611e8d9190613d4c565b73ffffffffffffffffffffffffffffffffffffffff16633e60e34833836040518363ffffffff1660e01b8152600401611ec79291906141bb565b600060405180830381600087803b158015611ee157600080fd5b505af1158015611ef5573d6000803e3d6000fd5b5050505050505050565b6000806000806000604051806102200160405280896001811115611f2657611f25613eca565b5b8152602001886001811115611f3e57611f3d613eca565b5b815260200160006003811115611f5757611f56613eca565b5b81526020013373ffffffffffffffffffffffffffffffffffffffff16815260200160008152602001428152602001600081526020018c815260200160008152602001600081526020018a8152602001600081526020018b81526020016000815260200160008152602001600081526020018d73ffffffffffffffffffffffffffffffffffffffff1681525090507f000000000000000000000000000000000000000000000000000000000000000073ffffffffffffffffffffffffffffffffffffffff16632360e81782886040518363ffffffff1660e01b815260040161203f929190614594565b608060405180830381865afa15801561205c573d6000803e3d6000fd5b505050506040513d601f19601f8201168201806040525081019061208091906145bf565b945094509450945050975097509750979350505050565b60008573ffffffffffffffffffffffffffffffffffffffff16631f21f9af6040518163ffffffff1660e01b8152600401602060405180830381865afa1580156120e4573d6000803e3d6000fd5b505050506040513d601f19601f820116820180604052508101906121089190613d4c565b905060008173ffffffffffffffffffffffffffffffffffffffff166305268cff6040518163ffffffff1660e01b8152600401602060405180830381865afa158015612157573d6000803e3d6000fd5b505050506040513d601f19601f8201168201806040525081019061217b9190614070565b73ffffffffffffffffffffffffffffffffffffffff16636cce89168373ffffffffffffffffffffffffffffffffffffffff16636f307dc36040518163ffffffff1660e01b8152600401602060405180830381865afa1580156121e1573d6000803e3d6000fd5b505050506040513d601f19601f8201168201806040525081019061220591906141e4565b886040518363ffffffff1660e01b81526004016122239291906141bb565b602060405180830381865afa158015612240573d6000803e3d6000fd5b505050506040513d601f19601f820116820180604052508101906122649190614286565b9050600060405180610220016040528086600181111561228757612286613eca565b5b815260200185600181111561229f5761229e613eca565b5b8152602001600060038111156122b8576122b7613eca565b5b81526020013373ffffffffffffffffffffffffffffffffffffffff1681526020016000815260200142815260200160008152602001888152602001600081526020016000815260200187815260200160008152602001600081526020016000815260200160008152602001600081526020018973ffffffffffffffffffffffffffffffffffffffff1681525090506000806000807f000000000000000000000000000000000000000000000000000000000000000073ffffffffffffffffffffffffffffffffffffffff16632360e8178660016040518363ffffffff1660e01b81526004016123a8929190614594565b608060405180830381865afa1580156123c5573d6000803e3d6000fd5b505050506040513d601f19601f820116820180604052508101906123e991906145bf565b935093509350935060008473__MathLib_______________________________63de7f61709091846040518363ffffffff1660e01b815260040161242e9291906140d9565b602060405180830381865af415801561244b573d6000803e3d6000fd5b505050506040513d601f19601f8201168201806040525081019061246f919061409d565b905060008873ffffffffffffffffffffffffffffffffffffffff1663cb4c86b76040518163ffffffff1660e01b8152600401602060405180830381865afa1580156124be573d6000803e3d6000fd5b505050506040513d601f19601f820116820180604052508101906124e29190613f9f565b73ffffffffffffffffffffffffffffffffffffffff1663313ce5676040518163ffffffff1660e01b8152600401602060405180830381865afa15801561252c573d6000803e3d6000fd5b505050506040513d601f19601f820116820180604052508101906125509190614005565b60ff1690508573__MarketLib_____________________________63174e20e69091836040518363ffffffff1660e01b81526004016125909291906140d9565b602060405180830381865af41580156125ad573d6000803e3d6000fd5b505050506040513d601f19601f820116820180604052508101906125d1919061409d565b95508473__MarketLib_____________________________63174e20e69091836040518363ffffffff1660e01b815260040161260e9291906140d9565b602060405180830381865af415801561262b573d6000803e3d6000fd5b505050506040513d601f19601f8201168201806040525081019061264f919061409d565b945060007f000000000000000000000000000000000000000000000000000000000000000073ffffffffffffffffffffffffffffffffffffffff1663b9f10b6689898989896040518663ffffffff1660e01b81526004016126b4959493929190614860565b6020604051808303816000875af11580156126d3573d6000803e3d6000fd5b505050506040513d601f19601f820116820180604052508101906126f7919061409d565b90506000861115612830578973ffffffffffffffffffffffffffffffffffffffff1663cb4c86b76040518163ffffffff1660e01b8152600401602060405180830381865afa15801561274d573d6000803e3d6000fd5b505050506040513d601f19601f820116820180604052508101906127719190613f9f565b73ffffffffffffffffffffffffffffffffffffffff166323b872dd338c896040518463ffffffff1660e01b81526004016127ad93929190614680565b6020604051808303816000875af11580156127cc573d6000803e3d6000fd5b505050506040513d601f19601f820116820180604052508101906127f091906146cc565b61282f576040517f08c379a0000000000000000000000000000000000000000000000000000000008152600401612826906147b1565b60405180910390fd5b5b6000600181111561284457612843613eca565b5b8b600181111561285757612856613eca565b5b036128ce578873ffffffffffffffffffffffffffffffffffffffff16639dc29fac33856040518363ffffffff1660e01b81526004016128979291906141bb565b600060405180830381600087803b1580156128b157600080fd5b505af11580156128c5573d6000803e3d6000fd5b5050505061293c565b8873ffffffffffffffffffffffffffffffffffffffff166340c10f1933856040518363ffffffff1660e01b81526004016129099291906141bb565b600060405180830381600087803b15801561292357600080fd5b505af1158015612937573d6000803e3d6000fd5b505050505b3073ffffffffffffffffffffffffffffffffffffffff163373ffffffffffffffffffffffffffffffffffffffff167f2588b8b06c1fb0f749c19fc01df761fb6c5d2497e519c7193a5262ce0d84471483868a60016040516129a094939291906148b8565b60405180910390a3505050505050505050505050505050565b60006040518061022001604052808460018111156129da576129d9613eca565b5b81526020018360018111156129f2576129f1613eca565b5b815260200160006003811115612a0b57612a0a613eca565b5b81526020013373ffffffffffffffffffffffffffffffffffffffff16815260200160008152602001428152602001600081526020018781526020016000815260200160008152602001858152602001600081526020018681526020016000815260200160008152602001600081526020018873ffffffffffffffffffffffffffffffffffffffff1681525090506000806000807f000000000000000000000000000000000000000000000000000000000000000073ffffffffffffffffffffffffffffffffffffffff16632360e8178660006040518363ffffffff1660e01b8152600401612afa929190614594565b608060405180830381865afa158015612b17573d6000803e3d6000fd5b505050506040513d601f19601f82011682018060405250810190612b3b91906145bf565b935093509350935060008b73ffffffffffffffffffffffffffffffffffffffff16631f21f9af6040518163ffffffff1660e01b8152600401602060405180830381865afa158015612b90573d6000803e3d6000fd5b505050506040513d601f19601f82011682018060405250810190612bb49190613d4c565b73ffffffffffffffffffffffffffffffffffffffff1663cb4c86b76040518163ffffffff1660e01b8152600401602060405180830381865afa158015612bfe573d6000803e3d6000fd5b505050506040513d601f19601f82011682018060405250810190612c229190613f9f565b73ffffffffffffffffffffffffffffffffffffffff1663313ce5676040518163ffffffff1660e01b8152600401602060405180830381865afa158015612c6c573d6000803e3d6000fd5b505050506040513d601f19601f82011682018060405250810190612c909190614005565b60ff1690508473__MarketLib_____________________________63174e20e69091836040518363ffffffff1660e01b8152600401612cd09291906140d9565b602060405180830381865af4158015612ced573d6000803e3d6000fd5b505050506040513d601f19601f82011682018060405250810190612d11919061409d565b94508373__MarketLib_____________________________63174e20e69091836040518363ffffffff1660e01b8152600401612d4e9291906140d9565b602060405180830381865af4158015612d6b573d6000803e3d6000fd5b505050506040513d601f19601f82011682018060405250810190612d8f919061409d565b935060008585612d9f9190614131565b9050600180811115612db457612db3613eca565b5b886001811115612dc757612dc6613eca565b5b03612e1d57858511612e0e576040517f08c379a0000000000000000000000000000000000000000000000000000000008152600401612e0590614949565b60405180910390fd5b8585612e1a9190614187565b90505b60007f000000000000000000000000000000000000000000000000000000000000000073ffffffffffffffffffffffffffffffffffffffff1663b9f10b6689898989896040518663ffffffff1660e01b8152600401612e80959493929190614860565b6020604051808303816000875af1158015612e9f573d6000803e3d6000fd5b505050506040513d601f19601f82011682018060405250810190612ec3919061409d565b905060008e73ffffffffffffffffffffffffffffffffffffffff16631f21f9af6040518163ffffffff1660e01b8152600401602060405180830381865afa158015612f12573d6000803e3d6000fd5b505050506040513d601f19601f82011682018060405250810190612f369190613d4c565b90508073ffffffffffffffffffffffffffffffffffffffff1663cb4c86b76040518163ffffffff1660e01b8152600401602060405180830381865afa158015612f83573d6000803e3d6000fd5b505050506040513d601f19601f82011682018060405250810190612fa79190613f9f565b73ffffffffffffffffffffffffffffffffffffffff166323b872dd3383866040518463ffffffff1660e01b8152600401612fe393929190614680565b6020604051808303816000875af1158015613002573d6000803e3d6000fd5b505050506040513d601f19601f8201168201806040525081019061302691906146cc565b613065576040517f08c379a000000000000000000000000000000000000000000000000000000000815260040161305c906149b5565b60405180910390fd5b7f000000000000000000000000000000000000000000000000000000000000000073ffffffffffffffffffffffffffffffffffffffff166324b4110e83336040518363ffffffff1660e01b81526004016130c09291906149d5565b600060405180830381600087803b1580156130da57600080fd5b505af11580156130ee573d6000803e3d6000fd5b505050503073ffffffffffffffffffffffffffffffffffffffff163373ffffffffffffffffffffffffffffffffffffffff167f2588b8b06c1fb0f749c19fc01df761fb6c5d2497e519c7193a5262ce0d844714848b8b600060405161315694939291906148b8565b60405180910390a3505050505050505050505050505050565b60007f000000000000000000000000000000000000000000000000000000000000000073ffffffffffffffffffffffffffffffffffffffff16635c273c2f84600060016040518463ffffffff1660e01b81526004016131d093929190614829565b602060405180830381865afa1580156131ed573d6000803e3d6000fd5b505050506040513d601f19601f82011682018060405250810190613211919061409d565b905060008373ffffffffffffffffffffffffffffffffffffffff16631f21f9af6040518163ffffffff1660e01b8152600401602060405180830381865afa158015613260573d6000803e3d6000fd5b505050506040513d601f19601f820116820180604052508101906132849190613d4c565b73ffffffffffffffffffffffffffffffffffffffff1663cb4c86b76040518163ffffffff1660e01b8152600401602060405180830381865afa1580156132ce573d6000803e3d6000fd5b505050506040513d601f19601f820116820180604052508101906132f29190613f9f565b905060008373__MarketLib_____________________________63ed1bb19990918473ffffffffffffffffffffffffffffffffffffffff1663313ce5676040518163ffffffff1660e01b8152600401602060405180830381865afa15801561335e573d6000803e3d6000fd5b505050506040513d601f19601f820116820180604052508101906133829190614005565b6040518363ffffffff1660e01b815260040161339f929190614657565b602060405180830381865af41580156133bc573d6000803e3d6000fd5b505050506040513d601f19601f820116820180604052508101906133e0919061409d565b73__MathLib_______________________________63de7f61709091856040518363ffffffff1660e01b815260040161341a9291906140d9565b602060405180830381865af4158015613437573d6000803e3d6000fd5b505050506040513d601f19601f8201168201806040525081019061345b919061409d565b90508173ffffffffffffffffffffffffffffffffffffffff166323b872dd3387876040518463ffffffff1660e01b815260040161349a93929190614680565b6020604051808303816000875af11580156134b9573d6000803e3d6000fd5b505050506040513d601f19601f820116820180604052508101906134dd91906146cc565b6134e657600080fd5b8473ffffffffffffffffffffffffffffffffffffffff166340c10f1933836040518363ffffffff1660e01b81526004016135219291906141bb565b600060405180830381600087803b15801561353b57600080fd5b505af115801561354f573d6000803e3d6000fd5b505050505050505050565b61356261368e565b73ffffffffffffffffffffffffffffffffffffffff16613580611aa0565b73ffffffffffffffffffffffffffffffffffffffff16146135d6576040517f08c379a00000000000000000000000000000000000000000000000000000000081526004016135cd90614310565b60405180910390fd5b600073ffffffffffffffffffffffffffffffffffffffff168173ffffffffffffffffffffffffffffffffffffffff1603613645576040517f08c379a000000000000000000000000000000000000000000000000000000000815260040161363c90614a70565b60405180910390fd5b61364e81613696565b50565b7f000000000000000000000000000000000000000000000000000000000000000081565b60008183106136845781613686565b825b905092915050565b600033905090565b60008060009054906101000a900473ffffffffffffffffffffffffffffffffffffffff169050816000806101000a81548173ffffffffffffffffffffffffffffffffffffffff021916908373ffffffffffffffffffffffffffffffffffffffff1602179055508173ffffffffffffffffffffffffffffffffffffffff168173ffffffffffffffffffffffffffffffffffffffff167f8be0079c531659141344cd1fd0a4f28419497f9722a3daafe3b4186f6b6457e060405160405180910390a35050565b600080fd5b600073ffffffffffffffffffffffffffffffffffffffff82169050919050565b600061378a8261375f565b9050919050565b600061379c8261377f565b9050919050565b6137ac81613791565b81146137b757600080fd5b50565b6000813590506137c9816137a3565b92915050565b6000602082840312156137e5576137e461375a565b5b60006137f3848285016137ba565b91505092915050565b6000819050919050565b600061382161381c6138178461375f565b6137fc565b61375f565b9050919050565b600061383382613806565b9050919050565b600061384582613828565b9050919050565b6138558161383a565b82525050565b6000602082019050613870600083018461384c565b92915050565b6000819050919050565b61388981613876565b811461389457600080fd5b50565b6000813590506138a681613880565b92915050565b6138b58161377f565b81146138c057600080fd5b50565b6000813590506138d2816138ac565b92915050565b600080604083850312156138ef576138ee61375a565b5b60006138fd85828601613897565b925050602061390e858286016138c3565b9150509250929050565b6000806040838503121561392f5761392e61375a565b5b600061393d858286016137ba565b925050602061394e85828601613897565b9150509250929050565b600061396382613828565b9050919050565b61397381613958565b82525050565b600060208201905061398e600083018461396a565b92915050565b600281106139a157600080fd5b50565b6000813590506139b381613994565b92915050565b600080600080608085870312156139d3576139d261375a565b5b60006139e1878288016137ba565b94505060206139f287828801613897565b9350506040613a0387828801613897565b9250506060613a14878288016139a4565b91505092959194509250565b613a298161377f565b82525050565b6000602082019050613a446000830184613a20565b92915050565b60028110613a5757600080fd5b50565b600081359050613a6981613a4a565b92915050565b60008115159050919050565b613a8481613a6f565b8114613a8f57600080fd5b50565b600081359050613aa181613a7b565b92915050565b600080600080600080600060e0888a031215613ac657613ac561375a565b5b6000613ad48a828b016137ba565b9750506020613ae58a828b01613897565b9650506040613af68a828b01613897565b9550506060613b078a828b01613897565b9450506080613b188a828b01613a5a565b93505060a0613b298a828b016139a4565b92505060c0613b3a8a828b01613a92565b91505092959891949750929550565b613b5281613876565b82525050565b6000608082019050613b6d6000830187613b49565b613b7a6020830186613b49565b613b876040830185613b49565b613b946060830184613b49565b95945050505050565b600080600080600060a08688031215613bb957613bb861375a565b5b6000613bc7888289016137ba565b9550506020613bd888828901613897565b9450506040613be988828901613897565b9350506060613bfa88828901613a5a565b9250506080613c0b888289016139a4565b9150509295509295909350565b60008060008060008060c08789031215613c3557613c3461375a565b5b6000613c4389828a016137ba565b9650506020613c5489828a01613897565b9550506040613c6589828a01613897565b9450506060613c7689828a01613897565b9350506080613c8789828a01613a5a565b92505060a0613c9889828a016139a4565b9150509295509295509295565b600060208284031215613cbb57613cba61375a565b5b6000613cc9848285016138c3565b91505092915050565b6000613cdd82613828565b9050919050565b613ced81613cd2565b82525050565b6000602082019050613d086000830184613ce4565b92915050565b6000613d198261377f565b9050919050565b613d2981613d0e565b8114613d3457600080fd5b50565b600081519050613d4681613d20565b92915050565b600060208284031215613d6257613d6161375a565b5b6000613d7084828501613d37565b91505092915050565b6000613d848261377f565b9050919050565b613d9481613d79565b8114613d9f57600080fd5b50565b600081519050613db181613d8b565b92915050565b600060208284031215613dcd57613dcc61375a565b5b6000613ddb84828501613da2565b91505092915050565b6000602082019050613df96000830184613b49565b92915050565b60048110613e0c57600080fd5b50565b600081519050613e1e81613dff565b92915050565b600081519050613e3381613994565b92915050565b600081519050613e48816138ac565b92915050565b600081519050613e5d816137a3565b92915050565b60008060008060808587031215613e7d57613e7c61375a565b5b6000613e8b87828801613e0f565b9450506020613e9c87828801613e24565b9350506040613ead87828801613e39565b9250506060613ebe87828801613e4e565b91505092959194509250565b7f4e487b7100000000000000000000000000000000000000000000000000000000600052602160045260246000fd5b600081519050613f0881613880565b92915050565b600080600060608486031215613f2757613f2661375a565b5b6000613f3586828701613ef9565b9350506020613f4686828701613ef9565b9250506040613f5786828701613ef9565b9150509250925092565b6000613f6c8261377f565b9050919050565b613f7c81613f61565b8114613f8757600080fd5b50565b600081519050613f9981613f73565b92915050565b600060208284031215613fb557613fb461375a565b5b6000613fc384828501613f8a565b91505092915050565b600060ff82169050919050565b613fe281613fcc565b8114613fed57600080fd5b50565b600081519050613fff81613fd9565b92915050565b60006020828403121561401b5761401a61375a565b5b600061402984828501613ff0565b91505092915050565b600061403d8261377f565b9050919050565b61404d81614032565b811461405857600080fd5b50565b60008151905061406a81614044565b92915050565b6000602082840312156140865761408561375a565b5b60006140948482850161405b565b91505092915050565b6000602082840312156140b3576140b261375a565b5b60006140c184828501613ef9565b91505092915050565b6140d381613876565b82525050565b60006040820190506140ee60008301856140ca565b6140fb60208301846140ca565b9392505050565b7f4e487b7100000000000000000000000000000000000000000000000000000000600052601160045260246000fd5b600061413c82613876565b915061414783613876565b9250827fffffffffffffffffffffffffffffffffffffffffffffffffffffffffffffffff0382111561417c5761417b614102565b5b828201905092915050565b600061419282613876565b915061419d83613876565b9250828210156141b0576141af614102565b5b828203905092915050565b60006040820190506141d06000830185613a20565b6141dd6020830184613b49565b9392505050565b6000602082840312156141fa576141f961375a565b5b600061420884828501613e39565b91505092915050565b60006060820190506142266000830186613a20565b6142336020830185613b49565b6142406040830184613b49565b949350505050565b60006142538261377f565b9050919050565b61426381614248565b811461426e57600080fd5b50565b6000815190506142808161425a565b92915050565b60006020828403121561429c5761429b61375a565b5b60006142aa84828501614271565b91505092915050565b600082825260208201905092915050565b7f4f776e61626c653a2063616c6c6572206973206e6f7420746865206f776e6572600082015250565b60006142fa6020836142b3565b9150614305826142c4565b602082019050919050565b60006020820190508181036000830152614329816142ed565b9050919050565b6002811061434157614340613eca565b5b50565b600081905061435282614330565b919050565b600061436282614344565b9050919050565b61437281614357565b82525050565b6002811061438957614388613eca565b5b50565b600081905061439a82614378565b919050565b60006143aa8261438c565b9050919050565b6143ba8161439f565b82525050565b600481106143d1576143d0613eca565b5b50565b60008190506143e2826143c0565b919050565b60006143f2826143d4565b9050919050565b614402816143e7565b82525050565b6144118161377f565b82525050565b61442081613876565b82525050565b6102208201600082015161443d6000850182614369565b50602082015161445060208501826143b1565b50604082015161446360408501826143f9565b5060608201516144766060850182614408565b5060808201516144896080850182614417565b5060a082015161449c60a0850182614417565b5060c08201516144af60c0850182614417565b5060e08201516144c260e0850182614417565b506101008201516144d7610100850182614417565b506101208201516144ec610120850182614417565b50610140820151614501610140850182614417565b50610160820151614516610160850182614417565b5061018082015161452b610180850182614417565b506101a08201516145406101a0850182614417565b506101c08201516145556101c0850182614417565b506101e082015161456a6101e0850182614417565b5061020082015161457f610200850182614408565b50505050565b61458e81613a6f565b82525050565b6000610240820190506145aa6000830185614426565b6145b8610220830184614585565b9392505050565b600080600080608085870312156145d9576145d861375a565b5b60006145e787828801613ef9565b94505060206145f887828801613ef9565b935050604061460987828801613ef9565b925050606061461a87828801613ef9565b91505092959194509250565b600061464161463c61463784613fcc565b6137fc565b613876565b9050919050565b61465181614626565b82525050565b600060408201905061466c60008301856140ca565b6146796020830184614648565b9392505050565b60006060820190506146956000830186613a20565b6146a26020830185613a20565b6146af6040830184613b49565b949350505050565b6000815190506146c681613a7b565b92915050565b6000602082840312156146e2576146e161375a565b5b60006146f0848285016146b7565b91505092915050565b7f4661696c6564207061796d656e74000000000000000000000000000000000000600082015250565b600061472f600e836142b3565b915061473a826146f9565b602082019050919050565b6000602082019050818103600083015261475e81614722565b9050919050565b7f7061796d656e74206572726f7200000000000000000000000000000000000000600082015250565b600061479b600d836142b3565b91506147a682614765565b602082019050919050565b600060208201905081810360008301526147ca8161478e565b9050919050565b60006060820190506147e66000830186613b49565b6147f36020830185613b49565b6148006040830184614585565b949350505050565b600061481382613828565b9050919050565b61482381614808565b82525050565b600060608201905061483e600083018661481a565b61484b6020830185614585565b6148586040830184614585565b949350505050565b60006102a0820190506148766000830188614426565b614884610220830187613b49565b614892610240830186613b49565b6148a0610260830185613b49565b6148ae610280830184613b49565b9695505050505050565b60006080820190506148cd6000830187613b49565b6148da6020830186613b49565b6148e76040830185613b49565b6148f46060830184614585565b95945050505050565b7f77726f6e67207072656d69756d00000000000000000000000000000000000000600082015250565b6000614933600d836142b3565b915061493e826148fd565b602082019050919050565b6000602082019050818103600083015261496281614926565b9050919050565b7f4661696c6564207061796d656e742e0000000000000000000000000000000000600082015250565b600061499f600f836142b3565b91506149aa82614969565b602082019050919050565b600060208201905081810360008301526149ce81614992565b9050919050565b60006040820190506149ea6000830185613b49565b6149f76020830184613a20565b9392505050565b7f4f776e61626c653a206e6577206f776e657220697320746865207a65726f206160008201527f6464726573730000000000000000000000000000000000000000000000000000602082015250565b6000614a5a6026836142b3565b9150614a65826149fe565b604082019050919050565b60006020820190508181036000830152614a8981614a4d565b905091905056fea264697066735822122081f5aefb2ec556c80b4f5c85f668bb3ea398fa4fa2bdcb14375376f68813da6864736f6c634300080d0033",
  "immutableReferences": {
    "8082": [
      {
        "length": 32,
        "start": 868
      },
      {
        "length": 32,
        "start": 1074
      },
      {
        "length": 32,
        "start": 1216
      },
      {
        "length": 32,
        "start": 5047
      },
      {
        "length": 32,
        "start": 6861
      },
      {
        "length": 32,
        "start": 8166
      },
      {
        "length": 32,
        "start": 9038
      },
      {
        "length": 32,
        "start": 9813
      },
      {
        "length": 32,
        "start": 10912
      },
      {
        "length": 32,
        "start": 11809
      },
      {
        "length": 32,
        "start": 12391
      },
      {
        "length": 32,
        "start": 12659
      },
      {
        "length": 32,
        "start": 13907
      }
    ]
  },
  "source": "// SPDX-License-Identifier: MIT\npragma solidity ^0.8.4;\n\nimport \"@openzeppelin/contracts/token/ERC20/ERC20.sol\";\nimport \"@openzeppelin/contracts/access/Ownable.sol\";\nimport \"./interfaces/EOption.sol\";\nimport \"./libraries/MathLib.sol\";\nimport \"./libraries/MarketLib.sol\";\nimport \"./libraries/OptionLib.sol\";\nimport \"./governance/Moret.sol\";\nimport \"./pools/Pool.sol\";\nimport \"./pools/MarketMaker.sol\";\nimport \"./OptionVault.sol\";\nimport \"./VolatilityToken.sol\";\n\ncontract Exchange is Ownable, EOption{\n  using MarketLib for uint256;\n  using MathLib for uint256;\n\n  // immutable addresses\n  // Moret public immutable govToken;\n  OptionVault public immutable vault;\n  // ERC20 public immutable funding;\n  // uint256 public fundingDecimals;\n\n  // contructor. Arguments: pool tokens, volatility oracle, option vault and bot address\n  constructor(OptionVault _optionVault){\n    // govToken = _govToken;\n    // funding = _funding;\n    // fundingDecimals = _funding.decimals();\n    vault = _optionVault;}\n  \n  function queryOption(Pool _pool, uint256 _tenor, uint256 _strike, uint256 _amount, OptionLib.PayoffType _poType, OptionLib.OptionSide _side, bool _forceATM) external view returns(uint256 _premium, uint256 _collateral, uint256 _price, uint256 _vol){\n    OptionLib.Option memory _option = OptionLib.Option(_poType, _side, OptionLib.OptionStatus.Draft, msg.sender, 0, block.timestamp,  0, _tenor, 0,  0, _amount, 0, _strike, 0, 0, 0, address(_pool));\n    return vault.calcOptionCost(_option, _forceATM);}\n\n  // functions to transact for option contracts\n  // arguments: pool token address, tenor in seconds, strike in 18 decimals, amount in 18 decimals, payoff type (call 0 or put 1), option side (buy 0 or sell 1)\n  function tradeOption(Pool _pool, uint256 _tenor, uint256 _strike, uint256 _amount, OptionLib.PayoffType _poType, OptionLib.OptionSide _side) external {\n    OptionLib.Option memory _option = OptionLib.Option(_poType, _side, OptionLib.OptionStatus.Draft, msg.sender, 0, block.timestamp,  0, _tenor, 0,  0, _amount, 0, _strike, 0, 0, 0, address(_pool));\n    \n    (uint256 _premium, uint256 _collateral, uint256 _price, uint256 _vol) = vault.calcOptionCost(_option, false);\n\n    uint256 _fundingDecimals = _pool.marketMaker().funding().decimals();\n    _premium = _premium.toDecimals(_fundingDecimals);\n    _collateral = _collateral.toDecimals(_fundingDecimals);\n\n    uint256 _cost = _collateral + _premium;\n    if(_side == OptionLib.OptionSide.Sell){\n      require(_collateral > _premium,\"wrong premium\");\n      _cost = _collateral - _premium;}\n\n    uint256 _id = vault.addOption(_option, _premium, _collateral, _price, _vol);\n    MarketMaker _marketMaker = _pool.marketMaker();\n    require(_marketMaker.funding().transferFrom(msg.sender, address(_marketMaker), _cost), 'Failed payment.');  \n    vault.stampActiveOption(_id, msg.sender);\n    emit NewOption(msg.sender, address(this), _id, _premium, _collateral, false);}\n\n  // functions to transact for option contracts with volatility tokens (buy or sell)\n  // arguments: pool token address, tenor in seconds, strike in 18 decimals, amount in 18 decimals, payoff type (call 0 or put 1), option side (buy 0 or sell 1)\n  function tradeOptionInVol(Pool _pool, uint256 _tenor, uint256 _amount, OptionLib.PayoffType _poType, OptionLib.OptionSide _side) external {\n    MarketMaker _marketMaker = _pool.marketMaker();\n    VolatilityToken _vToken = _marketMaker.govToken().getVolatilityToken(_marketMaker.underlying(), _tenor);\n    OptionLib.Option memory _option = OptionLib.Option(_poType, _side, OptionLib.OptionStatus.Draft, msg.sender, 0, block.timestamp,  0, _tenor, 0,  0, _amount, 0, 0, 0, 0, 0, address(_pool));\n\n    (uint256 _premium, uint256 _collateral, uint256 _price, uint256 _vol) = vault.calcOptionCost(_option, true); \n    uint256 _volAmount = _premium.ethdiv(_vol);\n\n    uint256 _fundingDecimals = _marketMaker.funding().decimals();\n    _premium = _premium.toDecimals(_fundingDecimals);\n    _collateral = _collateral.toDecimals(_fundingDecimals);\n\n    uint256 _id = vault.addOption(_option, _premium, _collateral, _price, _vol);\n\n    if(_collateral > 0){\n      require(_marketMaker.funding().transferFrom(msg.sender, address(_marketMaker), _collateral), 'payment error'); }\n\n    if (_side == OptionLib.OptionSide.Buy){\n      _vToken.burn(msg.sender, _volAmount);}\n    else{\n      _vToken.mint(msg.sender, _volAmount);}\n\n    emit NewOption(msg.sender, address(this), _id, _volAmount, _collateral, true);\n  }\n\n  // functions to transact volatility tokens (buy or sell)\n  // arguments: pool token address, tenor in seconds, strike in 18 decimals, amount in 18 decimals, payoff type (call 0 or put 1), option side (buy 0 or sell 1)\n  function tradeVolToken(Pool _pool, uint256 _tenor, uint256 _amount, OptionLib.OptionSide _side) external {\n    MarketMaker _marketMaker = _pool.marketMaker();\n    VolatilityToken _vToken = _marketMaker.govToken().getVolatilityToken(_marketMaker.underlying(), _tenor);\n    OptionLib.Option memory _option = OptionLib.Option(OptionLib.PayoffType.Put, _side, OptionLib.OptionStatus.Draft, msg.sender, 0, block.timestamp,  0, _tenor, 0,  0, _amount, 0, 0, 0, 0, 0, address(_pool));\n\n    (uint256 _premium, , , uint256 _vol) = vault.calcOptionCost(_option, true); \n    uint256 _volAmount = _premium.ethdiv(_vol);\n    _premium = _premium.toDecimals(_marketMaker.funding().decimals());\n    \n    // require(_payInCost >= _premium, \"Cost incorrect\");\n    if (_side == OptionLib.OptionSide.Buy){\n      require(_marketMaker.funding().transferFrom(msg.sender, address(_pool.marketMaker()), _premium), \"Failed payment\");\n      _vToken.mint(msg.sender, _volAmount);}\n    else{\n      _vToken.burn(msg.sender, _volAmount);\n      require(_marketMaker.funding().transfer(msg.sender, _premium), \"payment error\");}\n    \n    emit TradeVolatility(msg.sender, address(_pool), _amount, _volAmount, _side == OptionLib.OptionSide.Buy);}\n\n  // get volatility token\n  function getVolatilityToken(Pool _pool, uint256 _tenor) external view returns(VolatilityToken){\n    MarketMaker _marketMaker = _pool.marketMaker();\n    return _marketMaker.govToken().getVolatilityToken(_marketMaker.underlying(), _tenor);\n  }\n\n  // get volatility chain\n  function getVolatilityChain(Pool _pool) external view returns(VolatilityChain){\n    MarketMaker _marketMaker = _pool.marketMaker();\n    return _marketMaker.getVolatilityChain();\n  }\n\n  // expire option contracts (one at a time), with exercise fees paid to the exercising bots.\n  function expireOption(uint256 _expiringId, address _exerciseFeeRecipient) external {\n    // uint256 _expiringId = vault.getExpiringOptionId();\n    (OptionLib.OptionStatus _optionStatus, OptionLib.OptionSide _optionSide, address _optionHolder, Pool _pool) = vault.getOptionInfo(_expiringId);\n\n    if(_optionStatus == OptionLib.OptionStatus.Active){\n      vault.stampExpiredOption(_expiringId);\n      (uint256 _payoff, uint256 _payback,) = vault.getContractPayoff(_expiringId);\n      \n      uint256 _fundingDecimals = _pool.marketMaker().funding().decimals();\n      uint256 _protocolAmount = _payoff.ethmul(_pool.marketMaker().govToken().protocolFee()).toDecimals(_fundingDecimals);\n      uint256 _exerciseAmount = _payoff.ethmul(_pool.exerciseFee()).toDecimals(_fundingDecimals);\n      _payback = _payback.toDecimals(_fundingDecimals);\n\n      if(_optionSide == OptionLib.OptionSide.Buy){\n        _payback = _payback - Math.min(_payback, _protocolAmount + _exerciseAmount);\n\n      MarketMaker _marketMaker = MarketMaker(_pool.marketMaker());\n      _marketMaker.settlePayment(_optionHolder, _payback);\n      _marketMaker.settlePayment(_pool.marketMaker().govToken().protocolFeeRecipient(), _protocolAmount);\n      _marketMaker.settlePayment(_exerciseFeeRecipient, _exerciseAmount);      \n      emit Expire(msg.sender, address(this), _optionHolder, _expiringId, _payback);}}}\n  \n  // add capital by depositing amount in funding tokens\n  function addCapital(Pool _pool, uint256 _depositAmount) external {\n    uint256 _averageGrossCapital = vault.calcCapital(_pool, false, true);\n    ERC20 _funding = _pool.marketMaker().funding();\n    uint256 _mintPoolAmount = _depositAmount.toWei(_funding.decimals()).ethdiv(_averageGrossCapital);\n    require(_funding.transferFrom(msg.sender, address(_pool), _depositAmount));\n    _pool.mint(msg.sender, _mintPoolAmount);}\n\n  // remove capital by withdrawing amount in funding tokens\n  function withdrawCapital(Pool _pool, uint256 _burnPoolAmount) external {\n    uint256 _averageNetCapital = vault.calcCapital(_pool, true, true);\n    uint256 _withdrawValue = _averageNetCapital.ethmul(_burnPoolAmount).toDecimals(_pool.marketMaker().funding().decimals()); \n    _pool.burn(msg.sender, _burnPoolAmount);\n    MarketMaker(_pool.marketMaker()).settlePayment(msg.sender, _withdrawValue);}\n\n}\n",
  "sourcePath": "/Users/mac/Documents/GitHub/moret/contracts/Exchange.sol",
  "compiler": {
    "name": "solc",
    "version": "0.8.13+commit.abaa5c0e.Emscripten.clang"
  },
  "schemaVersion": "3.4.3",
  "updatedAt": "2022-05-09T22:27:03.317Z",
  "devdoc": {
    "kind": "dev",
    "methods": {
      "owner()": {
        "details": "Returns the address of the current owner."
      },
      "renounceOwnership()": {
        "details": "Leaves the contract without owner. It will not be possible to call `onlyOwner` functions anymore. Can only be called by the current owner. NOTE: Renouncing ownership will leave the contract without an owner, thereby removing any functionality that is only available to the owner."
      },
      "transferOwnership(address)": {
        "details": "Transfers ownership of the contract to a new account (`newOwner`). Can only be called by the current owner."
      }
    },
    "version": 1
  },
  "userdoc": {
    "kind": "user",
    "methods": {},
    "version": 1
  }
}