{
  "contractName": "Exchange",
  "abi": [
    {
      "inputs": [
        {
          "internalType": "address",
          "name": "_marketMakerAddress",
          "type": "address"
        },
        {
          "internalType": "address",
          "name": "_optionAddress",
          "type": "address"
        }
      ],
      "stateMutability": "nonpayable",
      "type": "constructor"
    },
    {
      "anonymous": false,
      "inputs": [
        {
          "indexed": true,
          "internalType": "bytes32",
          "name": "role",
          "type": "bytes32"
        },
        {
          "indexed": true,
          "internalType": "bytes32",
          "name": "previousAdminRole",
          "type": "bytes32"
        },
        {
          "indexed": true,
          "internalType": "bytes32",
          "name": "newAdminRole",
          "type": "bytes32"
        }
      ],
      "name": "RoleAdminChanged",
      "type": "event"
    },
    {
      "anonymous": false,
      "inputs": [
        {
          "indexed": true,
          "internalType": "bytes32",
          "name": "role",
          "type": "bytes32"
        },
        {
          "indexed": true,
          "internalType": "address",
          "name": "account",
          "type": "address"
        },
        {
          "indexed": true,
          "internalType": "address",
          "name": "sender",
          "type": "address"
        }
      ],
      "name": "RoleGranted",
      "type": "event"
    },
    {
      "anonymous": false,
      "inputs": [
        {
          "indexed": true,
          "internalType": "bytes32",
          "name": "role",
          "type": "bytes32"
        },
        {
          "indexed": true,
          "internalType": "address",
          "name": "account",
          "type": "address"
        },
        {
          "indexed": true,
          "internalType": "address",
          "name": "sender",
          "type": "address"
        }
      ],
      "name": "RoleRevoked",
      "type": "event"
    },
    {
      "anonymous": false,
      "inputs": [
        {
          "indexed": false,
          "internalType": "address",
          "name": "_recipient",
          "type": "address"
        },
        {
          "indexed": false,
          "internalType": "uint256",
          "name": "_mintMPTokenAmount",
          "type": "uint256"
        },
        {
          "indexed": false,
          "internalType": "uint256",
          "name": "_addedValue",
          "type": "uint256"
        }
      ],
      "name": "capitalAdded",
      "type": "event"
    },
    {
      "anonymous": false,
      "inputs": [
        {
          "indexed": false,
          "internalType": "address",
          "name": "_recipient",
          "type": "address"
        },
        {
          "indexed": false,
          "internalType": "uint256",
          "name": "_burnMPTokenAmount",
          "type": "uint256"
        },
        {
          "indexed": false,
          "internalType": "uint256",
          "name": "_withdrawValue",
          "type": "uint256"
        }
      ],
      "name": "capitalWithdrawn",
      "type": "event"
    },
    {
      "anonymous": false,
      "inputs": [
        {
          "indexed": true,
          "internalType": "address",
          "name": "_purchaser",
          "type": "address"
        },
        {
          "components": [
            {
              "internalType": "enum OptionLibrary.PayoffType",
              "name": "poType",
              "type": "uint8"
            },
            {
              "internalType": "enum OptionLibrary.OptionSide",
              "name": "side",
              "type": "uint8"
            },
            {
              "internalType": "enum OptionLibrary.OptionStatus",
              "name": "status",
              "type": "uint8"
            },
            {
              "internalType": "address",
              "name": "holder",
              "type": "address"
            },
            {
              "internalType": "uint256",
              "name": "id",
              "type": "uint256"
            },
            {
              "internalType": "uint256",
              "name": "createTime",
              "type": "uint256"
            },
            {
              "internalType": "uint256",
              "name": "effectiveTime",
              "type": "uint256"
            },
            {
              "internalType": "uint256",
              "name": "tenor",
              "type": "uint256"
            },
            {
              "internalType": "uint256",
              "name": "maturity",
              "type": "uint256"
            },
            {
              "internalType": "uint256",
              "name": "exerciseTime",
              "type": "uint256"
            },
            {
              "internalType": "uint256",
              "name": "amount",
              "type": "uint256"
            },
            {
              "internalType": "uint256",
              "name": "spot",
              "type": "uint256"
            },
            {
              "internalType": "uint256",
              "name": "strike",
              "type": "uint256"
            },
            {
              "internalType": "uint256",
              "name": "volatility",
              "type": "uint256"
            },
            {
              "internalType": "uint256",
              "name": "premium",
              "type": "uint256"
            },
            {
              "internalType": "uint256",
              "name": "cost",
              "type": "uint256"
            }
          ],
          "indexed": false,
          "internalType": "struct OptionLibrary.Option",
          "name": "_option",
          "type": "tuple"
        },
        {
          "indexed": false,
          "internalType": "uint256",
          "name": "_cost",
          "type": "uint256"
        },
        {
          "indexed": false,
          "internalType": "bool",
          "name": "_inVol",
          "type": "bool"
        }
      ],
      "name": "newOptionBought",
      "type": "event"
    },
    {
      "anonymous": false,
      "inputs": [
        {
          "indexed": false,
          "internalType": "address",
          "name": "_purchaser",
          "type": "address"
        },
        {
          "indexed": false,
          "internalType": "uint256",
          "name": "_time",
          "type": "uint256"
        },
        {
          "indexed": false,
          "internalType": "uint256",
          "name": "_tenor",
          "type": "uint256"
        },
        {
          "indexed": false,
          "internalType": "uint256",
          "name": "_amount",
          "type": "uint256"
        }
      ],
      "name": "newVolatilityTokenBought",
      "type": "event"
    },
    {
      "anonymous": false,
      "inputs": [
        {
          "indexed": true,
          "internalType": "address",
          "name": "_purchaser",
          "type": "address"
        },
        {
          "components": [
            {
              "internalType": "enum OptionLibrary.PayoffType",
              "name": "poType",
              "type": "uint8"
            },
            {
              "internalType": "enum OptionLibrary.OptionSide",
              "name": "side",
              "type": "uint8"
            },
            {
              "internalType": "enum OptionLibrary.OptionStatus",
              "name": "status",
              "type": "uint8"
            },
            {
              "internalType": "address",
              "name": "holder",
              "type": "address"
            },
            {
              "internalType": "uint256",
              "name": "id",
              "type": "uint256"
            },
            {
              "internalType": "uint256",
              "name": "createTime",
              "type": "uint256"
            },
            {
              "internalType": "uint256",
              "name": "effectiveTime",
              "type": "uint256"
            },
            {
              "internalType": "uint256",
              "name": "tenor",
              "type": "uint256"
            },
            {
              "internalType": "uint256",
              "name": "maturity",
              "type": "uint256"
            },
            {
              "internalType": "uint256",
              "name": "exerciseTime",
              "type": "uint256"
            },
            {
              "internalType": "uint256",
              "name": "amount",
              "type": "uint256"
            },
            {
              "internalType": "uint256",
              "name": "spot",
              "type": "uint256"
            },
            {
              "internalType": "uint256",
              "name": "strike",
              "type": "uint256"
            },
            {
              "internalType": "uint256",
              "name": "volatility",
              "type": "uint256"
            },
            {
              "internalType": "uint256",
              "name": "premium",
              "type": "uint256"
            },
            {
              "internalType": "uint256",
              "name": "cost",
              "type": "uint256"
            }
          ],
          "indexed": false,
          "internalType": "struct OptionLibrary.Option",
          "name": "_option",
          "type": "tuple"
        },
        {
          "indexed": false,
          "internalType": "uint256",
          "name": "_payoff",
          "type": "uint256"
        }
      ],
      "name": "optionExercised",
      "type": "event"
    },
    {
      "inputs": [],
      "name": "DEFAULT_ADMIN_ROLE",
      "outputs": [
        {
          "internalType": "bytes32",
          "name": "",
          "type": "bytes32"
        }
      ],
      "stateMutability": "view",
      "type": "function",
      "constant": true
    },
    {
      "inputs": [],
      "name": "MINER_ROLE",
      "outputs": [
        {
          "internalType": "bytes32",
          "name": "",
          "type": "bytes32"
        }
      ],
      "stateMutability": "view",
      "type": "function",
      "constant": true
    },
    {
      "inputs": [],
      "name": "allowTrading",
      "outputs": [
        {
          "internalType": "bool",
          "name": "",
          "type": "bool"
        }
      ],
      "stateMutability": "view",
      "type": "function",
      "constant": true
    },
    {
      "inputs": [
        {
          "internalType": "bytes32",
          "name": "role",
          "type": "bytes32"
        }
      ],
      "name": "getRoleAdmin",
      "outputs": [
        {
          "internalType": "bytes32",
          "name": "",
          "type": "bytes32"
        }
      ],
      "stateMutability": "view",
      "type": "function",
      "constant": true
    },
    {
      "inputs": [
        {
          "internalType": "bytes32",
          "name": "role",
          "type": "bytes32"
        },
        {
          "internalType": "address",
          "name": "account",
          "type": "address"
        }
      ],
      "name": "grantRole",
      "outputs": [],
      "stateMutability": "nonpayable",
      "type": "function"
    },
    {
      "inputs": [
        {
          "internalType": "bytes32",
          "name": "role",
          "type": "bytes32"
        },
        {
          "internalType": "address",
          "name": "account",
          "type": "address"
        }
      ],
      "name": "hasRole",
      "outputs": [
        {
          "internalType": "bool",
          "name": "",
          "type": "bool"
        }
      ],
      "stateMutability": "view",
      "type": "function",
      "constant": true
    },
    {
      "inputs": [],
      "name": "loanInterest",
      "outputs": [
        {
          "internalType": "uint256",
          "name": "",
          "type": "uint256"
        }
      ],
      "stateMutability": "view",
      "type": "function",
      "constant": true
    },
    {
      "inputs": [],
      "name": "marketMakerAddress",
      "outputs": [
        {
          "internalType": "address",
          "name": "",
          "type": "address"
        }
      ],
      "stateMutability": "view",
      "type": "function",
      "constant": true
    },
    {
      "inputs": [
        {
          "internalType": "bytes32",
          "name": "role",
          "type": "bytes32"
        },
        {
          "internalType": "address",
          "name": "account",
          "type": "address"
        }
      ],
      "name": "renounceRole",
      "outputs": [],
      "stateMutability": "nonpayable",
      "type": "function"
    },
    {
      "inputs": [
        {
          "internalType": "bytes32",
          "name": "role",
          "type": "bytes32"
        },
        {
          "internalType": "address",
          "name": "account",
          "type": "address"
        }
      ],
      "name": "revokeRole",
      "outputs": [],
      "stateMutability": "nonpayable",
      "type": "function"
    },
    {
      "inputs": [
        {
          "internalType": "bytes4",
          "name": "interfaceId",
          "type": "bytes4"
        }
      ],
      "name": "supportsInterface",
      "outputs": [
        {
          "internalType": "bool",
          "name": "",
          "type": "bool"
        }
      ],
      "stateMutability": "view",
      "type": "function",
      "constant": true
    },
    {
      "inputs": [],
      "name": "volRiskPremiumMaxRatio",
      "outputs": [
        {
          "internalType": "uint256",
          "name": "",
          "type": "uint256"
        }
      ],
      "stateMutability": "view",
      "type": "function",
      "constant": true
    },
    {
      "inputs": [
        {
          "internalType": "uint256",
          "name": "_tenor",
          "type": "uint256"
        },
        {
          "internalType": "uint256",
          "name": "_strike",
          "type": "uint256"
        },
        {
          "internalType": "uint256",
          "name": "_amount",
          "type": "uint256"
        },
        {
          "internalType": "enum OptionLibrary.PayoffType",
          "name": "_poType",
          "type": "uint8"
        },
        {
          "internalType": "enum OptionLibrary.OptionSide",
          "name": "_side",
          "type": "uint8"
        }
      ],
      "name": "calcOptionCost",
      "outputs": [
        {
          "internalType": "uint256",
          "name": "_premium",
          "type": "uint256"
        },
        {
          "internalType": "uint256",
          "name": "_cost",
          "type": "uint256"
        },
        {
          "internalType": "uint256",
          "name": "_price",
          "type": "uint256"
        },
        {
          "internalType": "uint256",
          "name": "_vol",
          "type": "uint256"
        }
      ],
      "stateMutability": "view",
      "type": "function",
      "constant": true
    },
    {
      "inputs": [
        {
          "internalType": "uint256",
          "name": "_tenor",
          "type": "uint256"
        },
        {
          "internalType": "uint256",
          "name": "_strike",
          "type": "uint256"
        },
        {
          "internalType": "uint256",
          "name": "_amount",
          "type": "uint256"
        },
        {
          "internalType": "enum OptionLibrary.OptionSide",
          "name": "_side",
          "type": "uint8"
        }
      ],
      "name": "queryOptionVolatility",
      "outputs": [
        {
          "internalType": "uint256",
          "name": "_vol",
          "type": "uint256"
        }
      ],
      "stateMutability": "view",
      "type": "function",
      "constant": true
    },
    {
      "inputs": [
        {
          "internalType": "uint256",
          "name": "_tenor",
          "type": "uint256"
        },
        {
          "internalType": "uint256",
          "name": "_strike",
          "type": "uint256"
        },
        {
          "internalType": "uint256",
          "name": "_amount",
          "type": "uint256"
        },
        {
          "internalType": "enum OptionLibrary.PayoffType",
          "name": "_poType",
          "type": "uint8"
        },
        {
          "internalType": "enum OptionLibrary.OptionSide",
          "name": "_side",
          "type": "uint8"
        },
        {
          "internalType": "uint256",
          "name": "_payInCost",
          "type": "uint256"
        }
      ],
      "name": "purchaseOption",
      "outputs": [],
      "stateMutability": "nonpayable",
      "type": "function"
    },
    {
      "inputs": [
        {
          "internalType": "uint256",
          "name": "_id",
          "type": "uint256"
        }
      ],
      "name": "getOptionPayoffValue",
      "outputs": [
        {
          "internalType": "uint256",
          "name": "_payback",
          "type": "uint256"
        }
      ],
      "stateMutability": "view",
      "type": "function",
      "constant": true
    },
    {
      "inputs": [
        {
          "internalType": "uint256",
          "name": "_loanInterest",
          "type": "uint256"
        }
      ],
      "name": "resetLoanRate",
      "outputs": [],
      "stateMutability": "nonpayable",
      "type": "function"
    },
    {
      "inputs": [
        {
          "internalType": "uint256",
          "name": "_newRatio",
          "type": "uint256"
        }
      ],
      "name": "resetRiskPremiumMaxRatio",
      "outputs": [],
      "stateMutability": "nonpayable",
      "type": "function"
    },
    {
      "inputs": [
        {
          "internalType": "bool",
          "name": "_allowTrading",
          "type": "bool"
        }
      ],
      "name": "resetTrading",
      "outputs": [],
      "stateMutability": "nonpayable",
      "type": "function"
    },
    {
      "inputs": [],
      "name": "queryPrice",
      "outputs": [
        {
          "internalType": "uint256",
          "name": "",
          "type": "uint256"
        },
        {
          "internalType": "uint256",
          "name": "",
          "type": "uint256"
        }
      ],
      "stateMutability": "view",
      "type": "function",
      "constant": true
    },
    {
      "inputs": [
        {
          "internalType": "uint256",
          "name": "_tenor",
          "type": "uint256"
        }
      ],
      "name": "queryVol",
      "outputs": [
        {
          "internalType": "uint256",
          "name": "",
          "type": "uint256"
        }
      ],
      "stateMutability": "view",
      "type": "function",
      "constant": true
    }
  ],
  "bytecode": "0x60806040526718fae27693b4000060045560006005556001600660006101000a81548160ff0219169083151502179055503480156200003d57600080fd5b50604051620038b8380380620038b8833981810160405281019062000063919062000358565b620000786000801b336200017560201b60201c565b620000aa7fa952726ef2588ad078edf35b066f7c7406e207cb0003bbaba8cb53eba9553e72336200017560201b60201c565b80600360006101000a81548173ffffffffffffffffffffffffffffffffffffffff021916908373ffffffffffffffffffffffffffffffffffffffff16021790555081600160006101000a81548173ffffffffffffffffffffffffffffffffffffffff021916908373ffffffffffffffffffffffffffffffffffffffff16021790555081600260006101000a81548173ffffffffffffffffffffffffffffffffffffffff021916908373ffffffffffffffffffffffffffffffffffffffff16021790555050506200039f565b6200018782826200018b60201b60201c565b5050565b6200019d82826200027c60201b60201c565b6200027857600160008084815260200190815260200160002060000160008373ffffffffffffffffffffffffffffffffffffffff1673ffffffffffffffffffffffffffffffffffffffff16815260200190815260200160002060006101000a81548160ff0219169083151502179055506200021d620002e660201b60201c565b73ffffffffffffffffffffffffffffffffffffffff168173ffffffffffffffffffffffffffffffffffffffff16837f2f8788117e7eff1d82e926ec794901d17c78024a50270940304540a733656f0d60405160405180910390a45b5050565b600080600084815260200190815260200160002060000160008373ffffffffffffffffffffffffffffffffffffffff1673ffffffffffffffffffffffffffffffffffffffff16815260200190815260200160002060009054906101000a900460ff16905092915050565b600033905090565b600080fd5b600073ffffffffffffffffffffffffffffffffffffffff82169050919050565b60006200032082620002f3565b9050919050565b620003328162000313565b81146200033e57600080fd5b50565b600081519050620003528162000327565b92915050565b60008060408385031215620003725762000371620002ee565b5b6000620003828582860162000341565b9250506020620003958582860162000341565b9150509250929050565b61350980620003af6000396000f3fe608060405234801561001057600080fd5b50600436106101375760003560e01c806385e6be8b116100b8578063a34a1e4d1161007c578063a34a1e4d14610363578063a7292ea41461037f578063b0667cf81461039d578063cc910588146103bc578063cfc2dc20146103da578063d547741f1461040a57610137565b806385e6be8b146102aa578063896b5b1d146102c65780638d4939c6146102f957806391d1485414610315578063a217fddf1461034557610137565b80632f2ff15d116100ff5780632f2ff15d146101f457806336568abe1461021057806340d6eaab1461022c5780636394f6e61461025c5780636a7d116f1461027a57610137565b806301ffc9a71461013c5780630875c6b11461016c5780630c64307d1461018a578063248a9ca3146101a65780632e5b4c43146101d6575b600080fd5b610156600480360381019061015191906121c5565b610426565b604051610163919061220d565b60405180910390f35b6101746104a0565b6040516101819190612241565b60405180910390f35b6101a4600480360381019061019f9190612288565b6104a6565b005b6101c060048036038101906101bb91906122eb565b6104e3565b6040516101cd9190612327565b60405180910390f35b6101de610502565b6040516101eb919061220d565b60405180910390f35b61020e600480360381019061020991906123a0565b610515565b005b61022a600480360381019061022591906123a0565b61053e565b005b61024660048036038101906102419190612288565b6105c1565b6040516102539190612241565b60405180910390f35b610264610678565b6040516102719190612327565b60405180910390f35b610294600480360381019061028f9190612405565b61069c565b6040516102a19190612241565b60405180910390f35b6102c460048036038101906102bf9190612288565b610812565b005b6102e060048036038101906102db9190612491565b610832565b6040516102f0949392919061250c565b60405180910390f35b610313600480360381019061030e919061257d565b610e84565b005b61032f600480360381019061032a91906123a0565b610eb7565b60405161033c919061220d565b60405180910390f35b61034d610f21565b60405161035a9190612327565b60405180910390f35b61037d600480360381019061037891906125aa565b610f28565b005b6103876112c3565b6040516103949190612241565b60405180910390f35b6103a56112c9565b6040516103b3929190612637565b60405180910390f35b6103c4611373565b6040516103d1919061266f565b60405180910390f35b6103f460048036038101906103ef9190612288565b611399565b6040516104019190612241565b60405180910390f35b610424600480360381019061041f91906123a0565b61144d565b005b60007f7965db0b000000000000000000000000000000000000000000000000000000007bffffffffffffffffffffffffffffffffffffffffffffffffffffffff1916827bffffffffffffffffffffffffffffffffffffffffffffffffffffffff19161480610499575061049882611476565b5b9050919050565b60045481565b7fa952726ef2588ad078edf35b066f7c7406e207cb0003bbaba8cb53eba9553e726104d8816104d36114e0565b6114e8565b816005819055505050565b6000806000838152602001908152602001600020600101549050919050565b600660009054906101000a900460ff1681565b61051e826104e3565b61052f8161052a6114e0565b6114e8565b6105398383611585565b505050565b6105466114e0565b73ffffffffffffffffffffffffffffffffffffffff168173ffffffffffffffffffffffffffffffffffffffff16146105b3576040517f08c379a00000000000000000000000000000000000000000000000000000000081526004016105aa9061270d565b60405180910390fd5b6105bd8282611665565b5050565b6000600360009054906101000a900473ffffffffffffffffffffffffffffffffffffffff1673ffffffffffffffffffffffffffffffffffffffff166385ae10e6836040518263ffffffff1660e01b815260040161061e9190612241565b604080518083038186803b15801561063557600080fd5b505afa158015610649573d6000803e3d6000fd5b505050506040513d601f19601f8201168201806040525081019061066d9190612742565b905080915050919050565b7fa952726ef2588ad078edf35b066f7c7406e207cb0003bbaba8cb53eba9553e7281565b6000600360009054906101000a900473ffffffffffffffffffffffffffffffffffffffff1673ffffffffffffffffffffffffffffffffffffffff1663cfc2dc20866040518263ffffffff1660e01b81526004016106f99190612241565b60206040518083038186803b15801561071157600080fd5b505afa158015610725573d6000803e3d6000fd5b505050506040513d601f19601f820116820180604052508101906107499190612782565b90506000600360009054906101000a900473ffffffffffffffffffffffffffffffffffffffff1673ffffffffffffffffffffffffffffffffffffffff1663b0667cf86040518163ffffffff1660e01b8152600401604080518083038186803b1580156107b457600080fd5b505afa1580156107c8573d6000803e3d6000fd5b505050506040513d601f19601f820116820180604052508101906107ec9190612742565b5090506107fc8183878787611746565b8261080791906127de565b915050949350505050565b6000801b610827816108226114e0565b6114e8565b816004819055505050565b6000806000806108448989898861069c565b9050600073__OptionLibrary_________________________63508cd14e8a6000600260009054906101000a900473ffffffffffffffffffffffffffffffffffffffff1673ffffffffffffffffffffffffffffffffffffffff16631aedeabe6040518163ffffffff1660e01b815260040160206040518083038186803b1580156108cd57600080fd5b505afa1580156108e1573d6000803e3d6000fd5b505050506040513d601f19601f820116820180604052508101906109059190612782565b60006040518563ffffffff1660e01b81526004016109269493929190612897565b60206040518083038186803b15801561093e57600080fd5b505af4158015610952573d6000803e3d6000fd5b505050506040513d601f19601f820116820180604052508101906109769190612782565b905060018081111561098b5761098a6128dc565b5b87600181111561099e5761099d6128dc565b5b1480156109cf5750600060018111156109ba576109b96128dc565b5b8660018111156109cd576109cc6128dc565b5b145b80610a2d5750600060018111156109e9576109e86128dc565b5b8760018111156109fc576109fb6128dc565b5b148015610a2c5750600180811115610a1757610a166128dc565b5b866001811115610a2a57610a296128dc565b5b145b5b15610b645773__OptionLibrary_________________________63508cd14e8a6001600260009054906101000a900473ffffffffffffffffffffffffffffffffffffffff1673ffffffffffffffffffffffffffffffffffffffff16631aedeabe6040518163ffffffff1660e01b815260040160206040518083038186803b158015610ab757600080fd5b505afa158015610acb573d6000803e3d6000fd5b505050506040513d601f19601f82011682018060405250810190610aef9190612782565b6005546040518563ffffffff1660e01b8152600401610b11949392919061290b565b60206040518083038186803b158015610b2957600080fd5b505af4158015610b3d573d6000803e3d6000fd5b505050506040513d601f19601f82011682018060405250810190610b619190612782565b90505b600360009054906101000a900473ffffffffffffffffffffffffffffffffffffffff1673ffffffffffffffffffffffffffffffffffffffff166376df2d08828a858b8b6040518663ffffffff1660e01b8152600401610bc79594939291906129e0565b60606040518083038186803b158015610bdf57600080fd5b505afa158015610bf3573d6000803e3d6000fd5b505050506040513d601f19601f82011682018060405250810190610c179190612a33565b80955081965082975050505073__MarketLibrary_________________________638170ce8086600260009054906101000a900473ffffffffffffffffffffffffffffffffffffffff1673ffffffffffffffffffffffffffffffffffffffff1663d3b7bfb46040518163ffffffff1660e01b815260040160206040518083038186803b158015610ca657600080fd5b505afa158015610cba573d6000803e3d6000fd5b505050506040513d601f19601f82011682018060405250810190610cde9190612a9b565b6040518363ffffffff1660e01b8152600401610cfb929190612ad7565b60206040518083038186803b158015610d1357600080fd5b505af4158015610d27573d6000803e3d6000fd5b505050506040513d601f19601f82011682018060405250810190610d4b9190612782565b945073__MarketLibrary_________________________638170ce8085600260009054906101000a900473ffffffffffffffffffffffffffffffffffffffff1673ffffffffffffffffffffffffffffffffffffffff1663d3b7bfb46040518163ffffffff1660e01b815260040160206040518083038186803b158015610dd057600080fd5b505afa158015610de4573d6000803e3d6000fd5b505050506040513d601f19601f82011682018060405250810190610e089190612a9b565b6040518363ffffffff1660e01b8152600401610e25929190612ad7565b60206040518083038186803b158015610e3d57600080fd5b505af4158015610e51573d6000803e3d6000fd5b505050506040513d601f19601f82011682018060405250810190610e759190612782565b93505095509550955095915050565b6000801b610e9981610e946114e0565b6114e8565b81600660006101000a81548160ff0219169083151502179055505050565b600080600084815260200190815260200160002060000160008373ffffffffffffffffffffffffffffffffffffffff1673ffffffffffffffffffffffffffffffffffffffff16815260200190815260200160002060009054906101000a900460ff16905092915050565b6000801b81565b600660009054906101000a900460ff16610f77576040517f08c379a0000000000000000000000000000000000000000000000000000000008152600401610f6e90612b4c565b60405180910390fd5b600080600080610f8a8a8a8a8a8a610832565b935093509350935082851015610fd5576040517f08c379a0000000000000000000000000000000000000000000000000000000008152600401610fcc90612bb8565b60405180910390fd5b6000600360009054906101000a900473ffffffffffffffffffffffffffffffffffffffff1673ffffffffffffffffffffffffffffffffffffffff1663b5310ff98c8c8c8c8c8b8b8b8b336040518b63ffffffff1660e01b81526004016110449a99989796959493929190612bd8565b602060405180830381600087803b15801561105e57600080fd5b505af1158015611072573d6000803e3d6000fd5b505050506040513d601f19601f820116820180604052508101906110969190612782565b9050600260009054906101000a900473ffffffffffffffffffffffffffffffffffffffff1673ffffffffffffffffffffffffffffffffffffffff1663d3b7bfb46040518163ffffffff1660e01b815260040160206040518083038186803b15801561110057600080fd5b505afa158015611114573d6000803e3d6000fd5b505050506040513d601f19601f820116820180604052508101906111389190612a9b565b73ffffffffffffffffffffffffffffffffffffffff166323b872dd33600260009054906101000a900473ffffffffffffffffffffffffffffffffffffffff16896040518463ffffffff1660e01b815260040161119693929190612c74565b602060405180830381600087803b1580156111b057600080fd5b505af11580156111c4573d6000803e3d6000fd5b505050506040513d601f19601f820116820180604052508101906111e89190612cc0565b611227576040517f08c379a000000000000000000000000000000000000000000000000000000000815260040161121e90612d39565b60405180910390fd5b600360009054906101000a900473ffffffffffffffffffffffffffffffffffffffff1673ffffffffffffffffffffffffffffffffffffffff166324b4110e82336040518363ffffffff1660e01b8152600401611284929190612d59565b600060405180830381600087803b15801561129e57600080fd5b505af11580156112b2573d6000803e3d6000fd5b505050505050505050505050505050565b60055481565b600080600360009054906101000a900473ffffffffffffffffffffffffffffffffffffffff1673ffffffffffffffffffffffffffffffffffffffff1663b0667cf86040518163ffffffff1660e01b8152600401604080518083038186803b15801561133357600080fd5b505afa158015611347573d6000803e3d6000fd5b505050506040513d601f19601f8201168201806040525081019061136b9190612742565b915091509091565b600160009054906101000a900473ffffffffffffffffffffffffffffffffffffffff1681565b6000600360009054906101000a900473ffffffffffffffffffffffffffffffffffffffff1673ffffffffffffffffffffffffffffffffffffffff1663cfc2dc20836040518263ffffffff1660e01b81526004016113f69190612241565b60206040518083038186803b15801561140e57600080fd5b505afa158015611422573d6000803e3d6000fd5b505050506040513d601f19601f820116820180604052508101906114469190612782565b9050919050565b611456826104e3565b611467816114626114e0565b6114e8565b6114718383611665565b505050565b60007f01ffc9a7000000000000000000000000000000000000000000000000000000007bffffffffffffffffffffffffffffffffffffffffffffffffffffffff1916827bffffffffffffffffffffffffffffffffffffffffffffffffffffffff1916149050919050565b600033905090565b6114f28282610eb7565b611581576115178173ffffffffffffffffffffffffffffffffffffffff166014611b81565b6115258360001c6020611b81565b604051602001611536929190612e94565b6040516020818303038152906040526040517f08c379a00000000000000000000000000000000000000000000000000000000081526004016115789190612f18565b60405180910390fd5b5050565b61158f8282610eb7565b61166157600160008084815260200190815260200160002060000160008373ffffffffffffffffffffffffffffffffffffffff1673ffffffffffffffffffffffffffffffffffffffff16815260200190815260200160002060006101000a81548160ff0219169083151502179055506116066114e0565b73ffffffffffffffffffffffffffffffffffffffff168173ffffffffffffffffffffffffffffffffffffffff16837f2f8788117e7eff1d82e926ec794901d17c78024a50270940304540a733656f0d60405160405180910390a45b5050565b61166f8282610eb7565b1561174257600080600084815260200190815260200160002060000160008373ffffffffffffffffffffffffffffffffffffffff1673ffffffffffffffffffffffffffffffffffffffff16815260200190815260200160002060006101000a81548160ff0219169083151502179055506116e76114e0565b73ffffffffffffffffffffffffffffffffffffffff168173ffffffffffffffffffffffffffffffffffffffff16837ff6391f5c32d9c69d2a47ea670b442974b53935d1edc7fd64eb21e047a839171b60405160405180910390a45b5050565b60008061188b73__OptionLibrary_________________________639932b2be898a8a6040518463ffffffff1660e01b815260040161178793929190612f3a565b60206040518083038186803b15801561179f57600080fd5b505af41580156117b3573d6000803e3d6000fd5b505050506040513d601f19601f820116820180604052508101906117d79190612782565b600260009054906101000a900473ffffffffffffffffffffffffffffffffffffffff1673ffffffffffffffffffffffffffffffffffffffff1663634479026000806040518363ffffffff1660e01b8152600401611835929190612f71565b60206040518083038186803b15801561184d57600080fd5b505afa158015611861573d6000803e3d6000fd5b505050506040513d601f19601f820116820180604052508101906118859190612782565b89611dbd565b90506000600360009054906101000a900473ffffffffffffffffffffffffffffffffffffffff1673ffffffffffffffffffffffffffffffffffffffff1663ea3d612d60006040518263ffffffff1660e01b81526004016118eb919061220d565b60206040518083038186803b15801561190357600080fd5b505afa158015611917573d6000803e3d6000fd5b505050506040513d601f19601f8201168201806040525081019061193b9190612fd0565b90506000600180811115611952576119516128dc565b5b856001811115611965576119646128dc565b5b14611971576001611993565b7fffffffffffffffffffffffffffffffffffffffffffffffffffffffffffffffff5b611aa373__OptionLibrary_________________________639932b2be8c8b8d6040518463ffffffff1660e01b81526004016119d193929190612f3a565b60206040518083038186803b1580156119e957600080fd5b505af41580156119fd573d6000803e3d6000fd5b505050506040513d601f19601f82011682018060405250810190611a219190612782565b8873__OptionLibrary_________________________63fd9b87636040518163ffffffff1660e01b815260040160206040518083038186803b158015611a6657600080fd5b505af4158015611a7a573d6000803e3d6000fd5b505050506040513d601f19601f82011682018060405250810190611a9e9190612782565b611dbd565b611aad9190612ffd565b82611ab89190613114565b90506000611b448960045473__OptionLibrary_________________________63fd9b87636040518163ffffffff1660e01b815260040160206040518083038186803b158015611b0757600080fd5b505af4158015611b1b573d6000803e3d6000fd5b505050506040513d601f19601f82011682018060405250810190611b3f9190612782565b611dbd565b90506002611b53858484611eb9565b611b5e868685611eb9565b611b6891906127de565b611b7291906131d7565b94505050505095945050505050565b606060006002836002611b949190613208565b611b9e91906127de565b67ffffffffffffffff811115611bb757611bb6613262565b5b6040519080825280601f01601f191660200182016040528015611be95781602001600182028036833780820191505090505b5090507f300000000000000000000000000000000000000000000000000000000000000081600081518110611c2157611c20613291565b5b60200101907effffffffffffffffffffffffffffffffffffffffffffffffffffffffffffff1916908160001a9053507f780000000000000000000000000000000000000000000000000000000000000081600181518110611c8557611c84613291565b5b60200101907effffffffffffffffffffffffffffffffffffffffffffffffffffffffffffff1916908160001a90535060006001846002611cc59190613208565b611ccf91906127de565b90505b6001811115611d6f577f3031323334353637383961626364656600000000000000000000000000000000600f861660108110611d1157611d10613291565b5b1a60f81b828281518110611d2857611d27613291565b5b60200101907effffffffffffffffffffffffffffffffffffffffffffffffffffffffffffff1916908160001a905350600485901c945080611d68906132c0565b9050611cd2565b5060008414611db3576040517f08c379a0000000000000000000000000000000000000000000000000000000008152600401611daa90613336565b60405180910390fd5b8091505092915050565b600080600080198587098587029250828110838203039150506000811415611df85760008411611dec57600080fd5b83820492505050611eb2565b808411611e0457600080fd5b60008486880990508281118203915080830392506000856001877fffffffffffffffffffffffffffffffffffffffffffffffffffffffffffffffff0301169050808604955080840493506001818260000304019050808302841793506000600287600302189050808702600203810290508087026002038102905080870260020381029050808702600203810290508087026002038102905080870260020381029050808502955050505050505b9392505050565b60008073__OptionLibrary_________________________63fd9b87636040518163ffffffff1660e01b815260040160206040518083038186803b158015611f0057600080fd5b505af4158015611f14573d6000803e3d6000fd5b505050506040513d601f19601f82011682018060405250810190611f389190612782565b90506000841215611fe057611fd284611f5090613356565b73__OptionLibrary_________________________63fd9b87636040518163ffffffff1660e01b815260040160206040518083038186803b158015611f9457600080fd5b505af4158015611fa8573d6000803e3d6000fd5b505050506040513d601f19601f82011682018060405250810190611fcc9190612782565b87611dbd565b81611fdd9190613114565b90505b600084131561207d5761206f8473__OptionLibrary_________________________63fd9b87636040518163ffffffff1660e01b815260040160206040518083038186803b15801561203157600080fd5b505af4158015612045573d6000803e3d6000fd5b505050506040513d601f19601f820116820180604052508101906120699190612782565b87611dbd565b8161207a919061339f565b90505b60008113158061208e575060028112155b6120cd576040517f08c379a00000000000000000000000000000000000000000000000000000000081526004016120c49061347f565b60405180910390fd5b826121548473__OptionLibrary_________________________63fd9b87636040518163ffffffff1660e01b815260040160206040518083038186803b15801561211657600080fd5b505af415801561212a573d6000803e3d6000fd5b505050506040513d601f19601f8201168201806040525081019061214e9190612782565b84611dbd565b61215e919061349f565b9150509392505050565b600080fd5b60007fffffffff0000000000000000000000000000000000000000000000000000000082169050919050565b6121a28161216d565b81146121ad57600080fd5b50565b6000813590506121bf81612199565b92915050565b6000602082840312156121db576121da612168565b5b60006121e9848285016121b0565b91505092915050565b60008115159050919050565b612207816121f2565b82525050565b600060208201905061222260008301846121fe565b92915050565b6000819050919050565b61223b81612228565b82525050565b60006020820190506122566000830184612232565b92915050565b61226581612228565b811461227057600080fd5b50565b6000813590506122828161225c565b92915050565b60006020828403121561229e5761229d612168565b5b60006122ac84828501612273565b91505092915050565b6000819050919050565b6122c8816122b5565b81146122d357600080fd5b50565b6000813590506122e5816122bf565b92915050565b60006020828403121561230157612300612168565b5b600061230f848285016122d6565b91505092915050565b612321816122b5565b82525050565b600060208201905061233c6000830184612318565b92915050565b600073ffffffffffffffffffffffffffffffffffffffff82169050919050565b600061236d82612342565b9050919050565b61237d81612362565b811461238857600080fd5b50565b60008135905061239a81612374565b92915050565b600080604083850312156123b7576123b6612168565b5b60006123c5858286016122d6565b92505060206123d68582860161238b565b9150509250929050565b600281106123ed57600080fd5b50565b6000813590506123ff816123e0565b92915050565b6000806000806080858703121561241f5761241e612168565b5b600061242d87828801612273565b945050602061243e87828801612273565b935050604061244f87828801612273565b9250506060612460878288016123f0565b91505092959194509250565b6002811061247957600080fd5b50565b60008135905061248b8161246c565b92915050565b600080600080600060a086880312156124ad576124ac612168565b5b60006124bb88828901612273565b95505060206124cc88828901612273565b94505060406124dd88828901612273565b93505060606124ee8882890161247c565b92505060806124ff888289016123f0565b9150509295509295909350565b60006080820190506125216000830187612232565b61252e6020830186612232565b61253b6040830185612232565b6125486060830184612232565b95945050505050565b61255a816121f2565b811461256557600080fd5b50565b60008135905061257781612551565b92915050565b60006020828403121561259357612592612168565b5b60006125a184828501612568565b91505092915050565b60008060008060008060c087890312156125c7576125c6612168565b5b60006125d589828a01612273565b96505060206125e689828a01612273565b95505060406125f789828a01612273565b945050606061260889828a0161247c565b935050608061261989828a016123f0565b92505060a061262a89828a01612273565b9150509295509295509295565b600060408201905061264c6000830185612232565b6126596020830184612232565b9392505050565b61266981612362565b82525050565b60006020820190506126846000830184612660565b92915050565b600082825260208201905092915050565b7f416363657373436f6e74726f6c3a2063616e206f6e6c792072656e6f756e636560008201527f20726f6c657320666f722073656c660000000000000000000000000000000000602082015250565b60006126f7602f8361268a565b91506127028261269b565b604082019050919050565b60006020820190508181036000830152612726816126ea565b9050919050565b60008151905061273c8161225c565b92915050565b6000806040838503121561275957612758612168565b5b60006127678582860161272d565b92505060206127788582860161272d565b9150509250929050565b60006020828403121561279857612797612168565b5b60006127a68482850161272d565b91505092915050565b7f4e487b7100000000000000000000000000000000000000000000000000000000600052601160045260246000fd5b60006127e982612228565b91506127f483612228565b9250827fffffffffffffffffffffffffffffffffffffffffffffffffffffffffffffffff03821115612829576128286127af565b5b828201905092915050565b61283d81612228565b82525050565b61284c816121f2565b82525050565b6000819050919050565b6000819050919050565b600061288161287c61287784612852565b61285c565b612228565b9050919050565b61289181612866565b82525050565b60006080820190506128ac6000830187612834565b6128b96020830186612843565b6128c66040830185612834565b6128d36060830184612888565b95945050505050565b7f4e487b7100000000000000000000000000000000000000000000000000000000600052602160045260246000fd5b60006080820190506129206000830187612834565b61292d6020830186612843565b61293a6040830185612834565b6129476060830184612834565b95945050505050565b60028110612961576129606128dc565b5b50565b600081905061297282612950565b919050565b600061298282612964565b9050919050565b61299281612977565b82525050565b600281106129a9576129a86128dc565b5b50565b60008190506129ba82612998565b919050565b60006129ca826129ac565b9050919050565b6129da816129bf565b82525050565b600060a0820190506129f56000830188612232565b612a026020830187612232565b612a0f6040830186612232565b612a1c6060830185612989565b612a2960808301846129d1565b9695505050505050565b600080600060608486031215612a4c57612a4b612168565b5b6000612a5a8682870161272d565b9350506020612a6b8682870161272d565b9250506040612a7c8682870161272d565b9150509250925092565b600081519050612a9581612374565b92915050565b600060208284031215612ab157612ab0612168565b5b6000612abf84828501612a86565b91505092915050565b612ad181612362565b82525050565b6000604082019050612aec6000830185612834565b612af96020830184612ac8565b9392505050565b7f54726164696e672073746f707065642100000000000000000000000000000000600082015250565b6000612b3660108361268a565b9150612b4182612b00565b602082019050919050565b60006020820190508181036000830152612b6581612b29565b9050919050565b7f496e636f727265637420636f737420706169642e000000000000000000000000600082015250565b6000612ba260148361268a565b9150612bad82612b6c565b602082019050919050565b60006020820190508181036000830152612bd181612b95565b9050919050565b600061014082019050612bee600083018d612232565b612bfb602083018c612232565b612c08604083018b612232565b612c15606083018a612989565b612c2260808301896129d1565b612c2f60a0830188612232565b612c3c60c0830187612232565b612c4960e0830186612232565b612c57610100830185612232565b612c65610120830184612660565b9b9a5050505050505050505050565b6000606082019050612c896000830186612660565b612c966020830185612660565b612ca36040830184612232565b949350505050565b600081519050612cba81612551565b92915050565b600060208284031215612cd657612cd5612168565b5b6000612ce484828501612cab565b91505092915050565b7f4661696c6564207061796d656e742e0000000000000000000000000000000000600082015250565b6000612d23600f8361268a565b9150612d2e82612ced565b602082019050919050565b60006020820190508181036000830152612d5281612d16565b9050919050565b6000604082019050612d6e6000830185612232565b612d7b6020830184612660565b9392505050565b600081905092915050565b7f416363657373436f6e74726f6c3a206163636f756e7420000000000000000000600082015250565b6000612dc3601783612d82565b9150612dce82612d8d565b601782019050919050565b600081519050919050565b60005b83811015612e02578082015181840152602081019050612de7565b83811115612e11576000848401525b50505050565b6000612e2282612dd9565b612e2c8185612d82565b9350612e3c818560208601612de4565b80840191505092915050565b7f206973206d697373696e6720726f6c6520000000000000000000000000000000600082015250565b6000612e7e601183612d82565b9150612e8982612e48565b601182019050919050565b6000612e9f82612db6565b9150612eab8285612e17565b9150612eb682612e71565b9150612ec28284612e17565b91508190509392505050565b6000601f19601f8301169050919050565b6000612eea82612dd9565b612ef4818561268a565b9350612f04818560208601612de4565b612f0d81612ece565b840191505092915050565b60006020820190508181036000830152612f328184612edf565b905092915050565b6000606082019050612f4f6000830186612834565b612f5c6020830185612834565b612f696040830184612834565b949350505050565b6000604082019050612f8660008301856121fe565b612f9360208301846121fe565b9392505050565b6000819050919050565b612fad81612f9a565b8114612fb857600080fd5b50565b600081519050612fca81612fa4565b92915050565b600060208284031215612fe657612fe5612168565b5b6000612ff484828501612fbb565b91505092915050565b600061300882612f9a565b915061301383612f9a565b9250827f7fffffffffffffffffffffffffffffffffffffffffffffffffffffffffffffff0482116000841360008413161615613052576130516127af565b5b817f8000000000000000000000000000000000000000000000000000000000000000058312600084126000841316161561308f5761308e6127af565b5b827f800000000000000000000000000000000000000000000000000000000000000005821260008413600084121616156130cc576130cb6127af565b5b827f7fffffffffffffffffffffffffffffffffffffffffffffffffffffffffffffff0582126000841260008412161615613109576131086127af565b5b828202905092915050565b600061311f82612f9a565b915061312a83612f9a565b9250817f7fffffffffffffffffffffffffffffffffffffffffffffffffffffffffffffff03831360008312151615613165576131646127af565b5b817f800000000000000000000000000000000000000000000000000000000000000003831260008312161561319d5761319c6127af565b5b828201905092915050565b7f4e487b7100000000000000000000000000000000000000000000000000000000600052601260045260246000fd5b60006131e282612228565b91506131ed83612228565b9250826131fd576131fc6131a8565b5b828204905092915050565b600061321382612228565b915061321e83612228565b9250817fffffffffffffffffffffffffffffffffffffffffffffffffffffffffffffffff0483118215151615613257576132566127af565b5b828202905092915050565b7f4e487b7100000000000000000000000000000000000000000000000000000000600052604160045260246000fd5b7f4e487b7100000000000000000000000000000000000000000000000000000000600052603260045260246000fd5b60006132cb82612228565b915060008214156132df576132de6127af565b5b600182039050919050565b7f537472696e67733a20686578206c656e67746820696e73756666696369656e74600082015250565b600061332060208361268a565b915061332b826132ea565b602082019050919050565b6000602082019050818103600083015261334f81613313565b9050919050565b600061336182612f9a565b91507f8000000000000000000000000000000000000000000000000000000000000000821415613394576133936127af565b5b816000039050919050565b60006133aa82612f9a565b91506133b583612f9a565b9250827f8000000000000000000000000000000000000000000000000000000000000000018212600084121516156133f0576133ef6127af565b5b827f7fffffffffffffffffffffffffffffffffffffffffffffffffffffffffffffff018213600084121615613428576134276127af565b5b828203905092915050565b7f4361706163697479206c696d69742062726561636865642e0000000000000000600082015250565b600061346960188361268a565b915061347482613433565b602082019050919050565b600060208201905081810360008301526134988161345c565b9050919050565b60006134aa82612228565b91506134b583612228565b9250828210156134c8576134c76127af565b5b82820390509291505056fea2646970667358221220ff8a6a9d0935dc6260ce8a01a8c56ccf102af380d773d03ee929118a603646ae64736f6c63430008090033",
  "immutableReferences": {},
  "source": "// SPDX-License-Identifier: MIT\npragma solidity 0.8.9;\n\nimport \"@openzeppelin/contracts/token/ERC20/ERC20.sol\";\nimport \"@openzeppelin/contracts/access/AccessControl.sol\";\nimport \"@openzeppelin/contracts/utils/structs/EnumerableSet.sol\";\nimport \"@openzeppelin/contracts/utils/math/Math.sol\";\nimport \"./MoretInterfaces.sol\";\nimport \"./VolatilityToken.sol\";\nimport \"./MoretMarketMaker.sol\";\nimport \"./FullMath.sol\";\n\ncontract Exchange is AccessControl, EOption{\n  bytes32 public constant MINER_ROLE = keccak256(\"MINER_ROLE\");\n  // OptionLibrary.Percent public volTransactionFees = OptionLibrary.Percent(5 * 10 ** 3, 10 ** 6);\n  // address public contractAddress;\n  address public marketMakerAddress;\n  // ERC20 internal underlyingToken; // used to pay premiums (vol token is alternative)\n  // mapping(uint256=>VolatilityToken) public volTokensList;\n\n  MoretMarketMaker internal marketMaker;\n  IOptionVault internal optionVault;\n\n  uint256 public volRiskPremiumMaxRatio= 18 * (10 ** 17);\n  uint256 public loanInterest = 0;\n\n  // ILendingPoolAddressesProvider internal lendingPoolAddressProvider;\n  // address internal swapRouterAddress;\n  // address internal aggregatorAddress;\n\n  // uint256 private constant ethMultiplier = 10 ** 18;\n  bool public allowTrading = true;\n  // uint256 lendingPoolRateMode = 2;\n  // bool internal useAggregator;\n  // uint256 public exchangeSlippageMax = 10 ** 16; // 1% max slippage allowed\n  // uint256 public exchangeDeadlineLag = 20; // 20s slippage time\n\n  constructor( address _marketMakerAddress,address _optionAddress){// address payable _volTokenAddress)\n    _setupRole(DEFAULT_ADMIN_ROLE, msg.sender);\n    _setupRole(MINER_ROLE, msg.sender);\n    optionVault = IOptionVault(_optionAddress);\n    marketMakerAddress = _marketMakerAddress;\n    marketMaker = MoretMarketMaker(_marketMakerAddress);\n    // VolatilityToken _volToken = VolatilityToken(_volTokenAddress);\n    // volTokensList[_volToken.tenor()] = _volToken;\n    // contractAddress = address(this);\n    // underlyingToken = ERC20(marketMaker.underlyingAddress());\n    // swapRouterAddress = _swapRouterAddress;\n    // aggregatorAddress = _aggregatorAddress;\n    // lendingPoolAddressProvider = ILendingPoolAddressesProvider(_lendingPoolAddressProvider);\n    // useAggregator = false;\n    }\n\n  function calcOptionCost(uint256 _tenor, uint256 _strike, uint256 _amount, OptionLibrary.PayoffType _poType, OptionLibrary.OptionSide _side) public view returns(uint256 _premium, uint256 _cost, uint256 _price, uint256 _vol){\n    _vol = queryOptionVolatility(_tenor, _strike, _amount, _side);\n    uint256 _adjustedStrike = OptionLibrary.adjustSlippage(_strike, false, marketMaker.swapSlippage(), 0); // downward\n    if((_poType==OptionLibrary.PayoffType.Put && _side == OptionLibrary.OptionSide.Buy) || (_poType==OptionLibrary.PayoffType.Call && _side == OptionLibrary.OptionSide.Sell)){ \n      _adjustedStrike = OptionLibrary.adjustSlippage(_strike,true, marketMaker.swapSlippage(), loanInterest);}\n    (_premium, _cost, _price) = optionVault.queryOptionCost(_adjustedStrike, _amount, _vol, _poType, _side);\n    _premium = MarketLibrary.cvtDecimals(_premium, marketMaker.fundingAddress());\n    _cost = MarketLibrary.cvtDecimals(_cost, marketMaker.fundingAddress());}\n\n  function queryOptionVolatility(uint256 _tenor, uint256 _strike, uint256 _amount, OptionLibrary.OptionSide _side) public view returns(uint256 _vol){  \n    _vol = optionVault.queryVol(_tenor); // running vol\n    (uint256 _price,) = optionVault.queryPrice();\n    _vol += calcRiskPremium(_price, _vol, _strike, _amount, _side);}\n\n  function calcRiskPremium(uint256 _price, uint256 _vol, uint256 _strike, uint256 _amount,OptionLibrary.OptionSide _side) internal view returns(uint256) {\n    uint256 _maxGamma = MulDiv(OptionLibrary.calcGamma(_price, _price, _vol), marketMaker.calcCapital(false, false), _price);\n    int256 _currentGamma = optionVault.calculateAggregateGamma(false); // include sells.\n    int256 _newGamma = _currentGamma + int256(MulDiv(OptionLibrary.calcGamma(_price, _strike, _vol), _amount, OptionLibrary.Multiplier() )) * (_side==OptionLibrary.OptionSide.Sell? -1: int(1));\n    uint256 _K = MulDiv(_vol, volRiskPremiumMaxRatio, OptionLibrary.Multiplier());\n    return (calcRiskPremiumAMM(_maxGamma, _currentGamma,  _K) + calcRiskPremiumAMM(_maxGamma, _newGamma, _K)) / 2;}\n\n  function calcRiskPremiumAMM(uint256 _max, int256 _input, uint256 _constant) internal pure returns(uint256) {\n    int256 _capacity = int256(OptionLibrary.Multiplier()); // capacity should be in (0,2)\n    if(_input < 0){_capacity +=  int256(MulDiv(uint256(-_input), OptionLibrary.Multiplier(), _max));}\n    if(_input > 0){ _capacity -= int256(MulDiv(uint256(_input) , OptionLibrary.Multiplier(), _max));}\n    require(_capacity<=0 || _capacity >= 2,\"Capacity limit breached.\");\n    return MulDiv(_constant, OptionLibrary.Multiplier(), uint256(_capacity)) - _constant;}\n\n  function purchaseOption(uint256 _tenor, uint256 _strike, uint256 _amount, OptionLibrary.PayoffType _poType, OptionLibrary.OptionSide _side, uint256 _payInCost) external {\n    require(allowTrading,\"Trading stopped!\");\n    (uint256 _premium, uint256 _cost, uint256 _price, uint256 _vol) = calcOptionCost(_tenor, _strike, _amount, _poType, _side );      \n    require(_payInCost >= _cost, \"Incorrect cost paid.\");\n    uint256 _id = optionVault.addOption(_tenor, _strike, _amount, _poType, _side, _premium, _cost, _price, _vol, msg.sender);\n    require(ERC20(marketMaker.fundingAddress()).transferFrom(msg.sender, address(marketMaker), _payInCost), 'Failed payment.');  \n    // emit newOptionBought(msg.sender, optionVault.getOption(_id), _payInCost, false);\n    optionVault.stampActiveOption(_id, msg.sender);}\n\n  function getOptionPayoffValue(uint256 _id) external view returns(uint256 _payback){\n    (,_payback) = optionVault.getContractPayoff(_id);}\n\n  /* function purchaseOptionInVol(uint256 _tenor, uint256 _strike, uint256 _amount, OptionLibrary.PayoffType _poType, OptionLibrary.OptionSide _side, uint256 _payInCost) external {\n    (uint256 _premium, uint256 _cost, uint256 _price, uint256 _vol) = calcOptionCost(_tenor, _strike, _amount, _poType, _side ); \n\n    uint256 _premium = queryOptionCost(_tenor, _strike, _amount, _poType,OptionLibrary.OptionSide.Buy );\n    uint256 _fee = MulDiv(_premium, settlementFee.numerator, settlementFee.denominator);\n\n    uint256 _id = optionVault.addOption(_tenor, _strike, _poType, OptionLibrary.OptionSide.Buy, _amount, _premium - _fee, _fee );\n    require(_payInCost >= optionVault.queryDraftOptionCost(_id, true), \"Entered premium incorrect.\");\n\n    require(volTokensList[_tenor].transferFrom(msg.sender, contractAddress, _payInCost), 'Failed payment.');\n\n    volTokensList[_tenor].approve(volTokensList[_tenor].contractAddress(), _payInCost);\n    volTokensList[_tenor].recycleInToken(contractAddress, _payInCost, underlyingToken);\n    require(underlyingToken.transfer(marketMakerAddress, optionVault.queryOptionPremium(_id)), 'Failed premium payment.');\n\n    optionVault.stampActiveOption(_id);\n\n    marketMaker.recordOption(msg.sender, _id, true,\n      optionVault.queryOptionPremium(_id),\n      optionVault.queryOptionExposure(_id, OptionLibrary.PayoffType.Call),\n      optionVault.queryOptionExposure(_id, OptionLibrary.PayoffType.Put));\n\n    emit newOptionBought(msg.sender, optionVault.getOption(_id), _payInCost, true);\n\n  }  */\n\n\n      // function addVolToken(address payable _tokenAddress) external onlyRole(ADMIN_ROLE)\n      // {\n      //     VolatilityToken _volToken = VolatilityToken(_tokenAddress);\n      //     /* require(_volToken.descriptionHash() == optionVault.descriptionHash());\n      //     require(optionVault.containsTenor(_volToken.tenor())); */\n\n      //     volTokensList[_volToken.tenor()] = _volToken;\n\n      // }\n\n      // function quoteVolatilityCost(uint256 _tenor, uint256 _volAmount) public view returns(uint256, uint256)\n      // {\n      //     /* require(optionVault.containsTenor(_tenor)); */\n\n      //     (uint256 _price,) = optionVault.queryPrice();\n      //     (uint256 _volatility, ) = optionVault.queryVol(_tenor);\n\n      //     uint256 _value = volTokensList[_tenor].calculateMintValue(_volAmount, _price, _volatility);\n      //     uint256 _fee = _value * volTransactionFees.numerator/ volTransactionFees.denominator;\n\n      //     return (_value, _fee);\n      // }\n\n      // function purchaseVolatilityToken(uint256 _tenor, uint256 _volAmount, uint256 _payInCost)\n      // external {\n      //     (uint256 _value, uint256 _fee) = quoteVolatilityCost(_tenor, _volAmount);\n      //     require(_payInCost >= (_value + _fee));\n\n      //     underlyingToken.transferFrom(msg.sender, address(volTokensList[_tenor]), _value);\n      //     volTokensList[_tenor].mint{value: _value}(msg.sender, _volAmount);\n\n      //     emit newVolatilityTokenBought(msg.sender, block.timestamp, _tenor, _volAmount);\n      // }\n\n    function resetLoanRate(uint256 _loanInterest) external onlyRole(MINER_ROLE){ loanInterest = _loanInterest;}\n    function resetRiskPremiumMaxRatio(uint256 _newRatio) external onlyRole(DEFAULT_ADMIN_ROLE){ volRiskPremiumMaxRatio=_newRatio;}\n    function resetTrading(bool _allowTrading) external onlyRole(DEFAULT_ADMIN_ROLE) {allowTrading=_allowTrading;}\n    function queryPrice() external view returns(uint256, uint256){return optionVault.queryPrice();}\n    function queryVol(uint256 _tenor) external view returns(uint256){return optionVault.queryVol(_tenor);}\n}\n",
  "sourcePath": "/Users/apple/Documents/GitHub/moret/contracts/Exchange.sol",
  "compiler": {
    "name": "solc",
    "version": "0.8.9+commit.e5eed63a.Emscripten.clang"
  },
  "schemaVersion": "3.4.3",
  "updatedAt": "2021-11-16T00:48:43.793Z",
  "networkType": "ethereum",
  "devdoc": {
    "kind": "dev",
    "methods": {
      "getRoleAdmin(bytes32)": {
        "details": "Returns the admin role that controls `role`. See {grantRole} and {revokeRole}. To change a role's admin, use {_setRoleAdmin}."
      },
      "grantRole(bytes32,address)": {
        "details": "Grants `role` to `account`. If `account` had not been already granted `role`, emits a {RoleGranted} event. Requirements: - the caller must have ``role``'s admin role."
      },
      "hasRole(bytes32,address)": {
        "details": "Returns `true` if `account` has been granted `role`."
      },
      "renounceRole(bytes32,address)": {
        "details": "Revokes `role` from the calling account. Roles are often managed via {grantRole} and {revokeRole}: this function's purpose is to provide a mechanism for accounts to lose their privileges if they are compromised (such as when a trusted device is misplaced). If the calling account had been granted `role`, emits a {RoleRevoked} event. Requirements: - the caller must be `account`."
      },
      "revokeRole(bytes32,address)": {
        "details": "Revokes `role` from `account`. If `account` had been granted `role`, emits a {RoleRevoked} event. Requirements: - the caller must have ``role``'s admin role."
      },
      "supportsInterface(bytes4)": {
        "details": "See {IERC165-supportsInterface}."
      }
    },
    "version": 1
  },
  "userdoc": {
    "kind": "user",
    "methods": {},
    "version": 1
  }
}