{
  "contractName": "Exchange",
  "abi": [
    {
      "inputs": [
        {
          "internalType": "contract OptionVault",
          "name": "_optionVault",
          "type": "address"
        }
      ],
      "stateMutability": "nonpayable",
      "type": "constructor"
    },
    {
      "anonymous": false,
      "inputs": [
        {
          "indexed": true,
          "internalType": "address",
          "name": "_bot",
          "type": "address"
        },
        {
          "indexed": true,
          "internalType": "address",
          "name": "_exchange",
          "type": "address"
        },
        {
          "indexed": false,
          "internalType": "address",
          "name": "_holder",
          "type": "address"
        },
        {
          "indexed": false,
          "internalType": "uint256",
          "name": "_id",
          "type": "uint256"
        },
        {
          "indexed": false,
          "internalType": "uint256",
          "name": "_payoff",
          "type": "uint256"
        }
      ],
      "name": "Expire",
      "type": "event"
    },
    {
      "anonymous": false,
      "inputs": [
        {
          "indexed": true,
          "internalType": "address",
          "name": "_hedger",
          "type": "address"
        },
        {
          "indexed": true,
          "internalType": "address",
          "name": "_market",
          "type": "address"
        },
        {
          "indexed": false,
          "internalType": "bool",
          "name": "success",
          "type": "bool"
        },
        {
          "indexed": false,
          "internalType": "bytes",
          "name": "data",
          "type": "bytes"
        }
      ],
      "name": "HedgeResponse",
      "type": "event"
    },
    {
      "anonymous": false,
      "inputs": [
        {
          "indexed": true,
          "internalType": "address",
          "name": "_hedger",
          "type": "address"
        },
        {
          "indexed": true,
          "internalType": "address",
          "name": "_market",
          "type": "address"
        },
        {
          "indexed": false,
          "internalType": "uint256[]",
          "name": "amounts",
          "type": "uint256[]"
        }
      ],
      "name": "HedgeSwapResponse",
      "type": "event"
    },
    {
      "anonymous": false,
      "inputs": [
        {
          "indexed": true,
          "internalType": "address",
          "name": "_purchaser",
          "type": "address"
        },
        {
          "indexed": true,
          "internalType": "address",
          "name": "_exchange",
          "type": "address"
        },
        {
          "indexed": false,
          "internalType": "uint256",
          "name": "_id",
          "type": "uint256"
        },
        {
          "indexed": false,
          "internalType": "uint256",
          "name": "_premium",
          "type": "uint256"
        },
        {
          "indexed": false,
          "internalType": "uint256",
          "name": "_collateral",
          "type": "uint256"
        },
        {
          "indexed": false,
          "internalType": "bool",
          "name": "_inVol",
          "type": "bool"
        }
      ],
      "name": "NewOption",
      "type": "event"
    },
    {
      "anonymous": false,
      "inputs": [
        {
          "indexed": true,
          "internalType": "address",
          "name": "previousOwner",
          "type": "address"
        },
        {
          "indexed": true,
          "internalType": "address",
          "name": "newOwner",
          "type": "address"
        }
      ],
      "name": "OwnershipTransferred",
      "type": "event"
    },
    {
      "anonymous": false,
      "inputs": [
        {
          "indexed": false,
          "internalType": "address",
          "name": "_newBot",
          "type": "address"
        }
      ],
      "name": "ResetBotAddress",
      "type": "event"
    },
    {
      "anonymous": false,
      "inputs": [
        {
          "indexed": true,
          "internalType": "uint256",
          "name": "_parameterId",
          "type": "uint256"
        },
        {
          "indexed": false,
          "internalType": "uint256",
          "name": "_parameter",
          "type": "uint256"
        }
      ],
      "name": "ResetParameter",
      "type": "event"
    },
    {
      "anonymous": false,
      "inputs": [
        {
          "indexed": true,
          "internalType": "address",
          "name": "_exchange",
          "type": "address"
        },
        {
          "indexed": false,
          "internalType": "bool",
          "name": "_tradingAllowed",
          "type": "bool"
        }
      ],
      "name": "ResetTradingStatus",
      "type": "event"
    },
    {
      "anonymous": false,
      "inputs": [
        {
          "indexed": true,
          "internalType": "address",
          "name": "_purchaser",
          "type": "address"
        },
        {
          "indexed": true,
          "internalType": "address",
          "name": "_exchange",
          "type": "address"
        },
        {
          "indexed": false,
          "internalType": "uint256",
          "name": "_cost",
          "type": "uint256"
        },
        {
          "indexed": false,
          "internalType": "uint256",
          "name": "_volAmount",
          "type": "uint256"
        },
        {
          "indexed": false,
          "internalType": "bool",
          "name": "_isPurchase",
          "type": "bool"
        }
      ],
      "name": "TradeVolatility",
      "type": "event"
    },
    {
      "inputs": [],
      "name": "owner",
      "outputs": [
        {
          "internalType": "address",
          "name": "",
          "type": "address"
        }
      ],
      "stateMutability": "view",
      "type": "function"
    },
    {
      "inputs": [],
      "name": "renounceOwnership",
      "outputs": [],
      "stateMutability": "nonpayable",
      "type": "function"
    },
    {
      "inputs": [
        {
          "internalType": "address",
          "name": "newOwner",
          "type": "address"
        }
      ],
      "name": "transferOwnership",
      "outputs": [],
      "stateMutability": "nonpayable",
      "type": "function"
    },
    {
      "inputs": [],
      "name": "vault",
      "outputs": [
        {
          "internalType": "contract OptionVault",
          "name": "",
          "type": "address"
        }
      ],
      "stateMutability": "view",
      "type": "function"
    },
    {
      "inputs": [
        {
          "internalType": "contract Pool",
          "name": "_pool",
          "type": "address"
        },
        {
          "internalType": "uint256",
          "name": "_tenor",
          "type": "uint256"
        },
        {
          "internalType": "uint256",
          "name": "_strike",
          "type": "uint256"
        },
        {
          "internalType": "uint256",
          "name": "_amount",
          "type": "uint256"
        },
        {
          "internalType": "enum OptionLib.PayoffType",
          "name": "_poType",
          "type": "uint8"
        },
        {
          "internalType": "enum OptionLib.OptionSide",
          "name": "_side",
          "type": "uint8"
        },
        {
          "internalType": "bool",
          "name": "_forceATM",
          "type": "bool"
        }
      ],
      "name": "queryOption",
      "outputs": [
        {
          "internalType": "uint256",
          "name": "_premium",
          "type": "uint256"
        },
        {
          "internalType": "uint256",
          "name": "_collateral",
          "type": "uint256"
        },
        {
          "internalType": "uint256",
          "name": "_price",
          "type": "uint256"
        },
        {
          "internalType": "uint256",
          "name": "_vol",
          "type": "uint256"
        }
      ],
      "stateMutability": "view",
      "type": "function"
    },
    {
      "inputs": [
        {
          "internalType": "contract Pool",
          "name": "_pool",
          "type": "address"
        },
        {
          "internalType": "uint256",
          "name": "_tenor",
          "type": "uint256"
        },
        {
          "internalType": "uint256",
          "name": "_strike",
          "type": "uint256"
        },
        {
          "internalType": "uint256",
          "name": "_amount",
          "type": "uint256"
        },
        {
          "internalType": "enum OptionLib.PayoffType",
          "name": "_poType",
          "type": "uint8"
        },
        {
          "internalType": "enum OptionLib.OptionSide",
          "name": "_side",
          "type": "uint8"
        }
      ],
      "name": "tradeOption",
      "outputs": [],
      "stateMutability": "nonpayable",
      "type": "function"
    },
    {
      "inputs": [
        {
          "internalType": "contract Pool",
          "name": "_pool",
          "type": "address"
        },
        {
          "internalType": "uint256",
          "name": "_tenor",
          "type": "uint256"
        },
        {
          "internalType": "uint256",
          "name": "_amount",
          "type": "uint256"
        },
        {
          "internalType": "enum OptionLib.PayoffType",
          "name": "_poType",
          "type": "uint8"
        },
        {
          "internalType": "enum OptionLib.OptionSide",
          "name": "_side",
          "type": "uint8"
        }
      ],
      "name": "tradeOptionInVol",
      "outputs": [],
      "stateMutability": "nonpayable",
      "type": "function"
    },
    {
      "inputs": [
        {
          "internalType": "contract Pool",
          "name": "_pool",
          "type": "address"
        },
        {
          "internalType": "uint256",
          "name": "_tenor",
          "type": "uint256"
        },
        {
          "internalType": "uint256",
          "name": "_amount",
          "type": "uint256"
        },
        {
          "internalType": "enum OptionLib.OptionSide",
          "name": "_side",
          "type": "uint8"
        }
      ],
      "name": "tradeVolToken",
      "outputs": [],
      "stateMutability": "nonpayable",
      "type": "function"
    },
    {
      "inputs": [
        {
          "internalType": "uint256",
          "name": "_expiringId",
          "type": "uint256"
        },
        {
          "internalType": "address",
          "name": "_exerciseFeeRecipient",
          "type": "address"
        }
      ],
      "name": "expireOption",
      "outputs": [],
      "stateMutability": "nonpayable",
      "type": "function"
    },
    {
      "inputs": [
        {
          "internalType": "contract Pool",
          "name": "_pool",
          "type": "address"
        },
        {
          "internalType": "uint256",
          "name": "_depositAmount",
          "type": "uint256"
        }
      ],
      "name": "addCapital",
      "outputs": [],
      "stateMutability": "nonpayable",
      "type": "function"
    },
    {
      "inputs": [
        {
          "internalType": "contract Pool",
          "name": "_pool",
          "type": "address"
        },
        {
          "internalType": "uint256",
          "name": "_burnPoolAmount",
          "type": "uint256"
        }
      ],
      "name": "withdrawCapital",
      "outputs": [],
      "stateMutability": "nonpayable",
      "type": "function"
    }
  ],
  "bytecode": "0x60a06040523480156200001157600080fd5b50604051620048ee380380620048ee8339818101604052810190620000379190620001dc565b620000576200004b6200009260201b60201c565b6200009a60201b60201c565b8073ffffffffffffffffffffffffffffffffffffffff1660808173ffffffffffffffffffffffffffffffffffffffff1681525050506200020e565b600033905090565b60008060009054906101000a900473ffffffffffffffffffffffffffffffffffffffff169050816000806101000a81548173ffffffffffffffffffffffffffffffffffffffff021916908373ffffffffffffffffffffffffffffffffffffffff1602179055508173ffffffffffffffffffffffffffffffffffffffff168173ffffffffffffffffffffffffffffffffffffffff167f8be0079c531659141344cd1fd0a4f28419497f9722a3daafe3b4186f6b6457e060405160405180910390a35050565b600080fd5b600073ffffffffffffffffffffffffffffffffffffffff82169050919050565b6000620001908262000163565b9050919050565b6000620001a48262000183565b9050919050565b620001b68162000197565b8114620001c257600080fd5b50565b600081519050620001d681620001ab565b92915050565b600060208284031215620001f557620001f46200015e565b5b60006200020584828501620001c5565b91505092915050565b6080516146706200027e600039600081816101f3015281816102c10152818161034f015281816110710152818161178701528181611ca0015281816120080152818161230f0152818161275a01528181612adb01528181612d2101528181612e2d015261330d01526146706000f3fe608060405234801561001057600080fd5b50600436106100a95760003560e01c8063b1ff617111610071578063b1ff61711461012a578063b808d76e1461015d578063e6ab658e14610179578063e98254bb14610195578063f2fde38b146101b1578063fbfa77cf146101cd576100a9565b806354f6e8c8146100ae578063715018a6146100ca578063826fdbbd146100d45780638da5cb5b146100f05780639111fccd1461010e575b600080fd5b6100c860048036038101906100c391906134ad565b6101eb565b005b6100d2610d35565b005b6100ee60048036038101906100e99190613550565b610dbd565b005b6100f861175a565b60405161010591906135c6565b60405180910390f35b610128600480360381019061012391906135e1565b611783565b005b610144600480360381019061013f919061367e565b611bb9565b604051610154949392919061372f565b60405180910390f35b61017760048036038101906101729190613774565b611d51565b005b610193600480360381019061018e91906137ef565b612673565b005b6101af60048036038101906101aa91906135e1565b612e29565b005b6101cb60048036038101906101c6919061387c565b613214565b005b6101d561330b565b6040516101e29190613908565b60405180910390f35b6000806000807f000000000000000000000000000000000000000000000000000000000000000073ffffffffffffffffffffffffffffffffffffffff1663fc9d80e0876040518263ffffffff1660e01b815260040161024a9190613923565b608060405180830381865afa158015610267573d6000803e3d6000fd5b505050506040513d601f19601f8201168201806040525081019061028b91906139a2565b9350935093509350600160038111156102a7576102a6613a09565b5b8460038111156102ba576102b9613a09565b5b03610d2d577f000000000000000000000000000000000000000000000000000000000000000073ffffffffffffffffffffffffffffffffffffffff1663637baf60876040518263ffffffff1660e01b81526004016103189190613923565b600060405180830381600087803b15801561033257600080fd5b505af1158015610346573d6000803e3d6000fd5b505050506000807f000000000000000000000000000000000000000000000000000000000000000073ffffffffffffffffffffffffffffffffffffffff166385ae10e6896040518263ffffffff1660e01b81526004016103a69190613923565b606060405180830381865afa1580156103c3573d6000803e3d6000fd5b505050506040513d601f19601f820116820180604052508101906103e79190613a4d565b509150915060008373ffffffffffffffffffffffffffffffffffffffff16631f21f9af6040518163ffffffff1660e01b8152600401602060405180830381865afa158015610439573d6000803e3d6000fd5b505050506040513d601f19601f8201168201806040525081019061045d9190613ade565b73ffffffffffffffffffffffffffffffffffffffff1663cb4c86b76040518163ffffffff1660e01b8152600401602060405180830381865afa1580156104a7573d6000803e3d6000fd5b505050506040513d601f19601f820116820180604052508101906104cb9190613b49565b73ffffffffffffffffffffffffffffffffffffffff1663313ce5676040518163ffffffff1660e01b8152600401602060405180830381865afa158015610515573d6000803e3d6000fd5b505050506040513d601f19601f820116820180604052508101906105399190613baf565b60ff16905060008373__MathLib_______________________________63fed4a0f390918773ffffffffffffffffffffffffffffffffffffffff16631f21f9af6040518163ffffffff1660e01b8152600401602060405180830381865afa1580156105a8573d6000803e3d6000fd5b505050506040513d601f19601f820116820180604052508101906105cc9190613ade565b73ffffffffffffffffffffffffffffffffffffffff166305268cff6040518163ffffffff1660e01b8152600401602060405180830381865afa158015610616573d6000803e3d6000fd5b505050506040513d601f19601f8201168201806040525081019061063a9190613c1a565b73ffffffffffffffffffffffffffffffffffffffff1663b0e21e8a6040518163ffffffff1660e01b8152600401602060405180830381865afa158015610684573d6000803e3d6000fd5b505050506040513d601f19601f820116820180604052508101906106a89190613c47565b6040518363ffffffff1660e01b81526004016106c5929190613c83565b602060405180830381865af41580156106e2573d6000803e3d6000fd5b505050506040513d601f19601f820116820180604052508101906107069190613c47565b73__MarketLib_____________________________63174e20e69091846040518363ffffffff1660e01b8152600401610740929190613c83565b602060405180830381865af415801561075d573d6000803e3d6000fd5b505050506040513d601f19601f820116820180604052508101906107819190613c47565b905060008473__MathLib_______________________________63fed4a0f390918873ffffffffffffffffffffffffffffffffffffffff1663d1c699aa6040518163ffffffff1660e01b8152600401602060405180830381865afa1580156107ed573d6000803e3d6000fd5b505050506040513d601f19601f820116820180604052508101906108119190613c47565b6040518363ffffffff1660e01b815260040161082e929190613c83565b602060405180830381865af415801561084b573d6000803e3d6000fd5b505050506040513d601f19601f8201168201806040525081019061086f9190613c47565b73__MarketLib_____________________________63174e20e69091856040518363ffffffff1660e01b81526004016108a9929190613c83565b602060405180830381865af41580156108c6573d6000803e3d6000fd5b505050506040513d601f19601f820116820180604052508101906108ea9190613c47565b90508373__MarketLib_____________________________63174e20e69091856040518363ffffffff1660e01b8152600401610927929190613c83565b602060405180830381865af4158015610944573d6000803e3d6000fd5b505050506040513d601f19601f820116820180604052508101906109689190613c47565b93506000600181111561097e5761097d613a09565b5b88600181111561099157610990613a09565b5b03610d27576109ab8482846109a69190613cdb565b61332f565b846109b69190613d31565b935060008673ffffffffffffffffffffffffffffffffffffffff16631f21f9af6040518163ffffffff1660e01b8152600401602060405180830381865afa158015610a05573d6000803e3d6000fd5b505050506040513d601f19601f82011682018060405250810190610a299190613ade565b90508073ffffffffffffffffffffffffffffffffffffffff16633e60e34889876040518363ffffffff1660e01b8152600401610a66929190613d65565b600060405180830381600087803b158015610a8057600080fd5b505af1158015610a94573d6000803e3d6000fd5b505050508073ffffffffffffffffffffffffffffffffffffffff16633e60e3488873ffffffffffffffffffffffffffffffffffffffff16631f21f9af6040518163ffffffff1660e01b8152600401602060405180830381865afa158015610aff573d6000803e3d6000fd5b505050506040513d601f19601f82011682018060405250810190610b239190613ade565b73ffffffffffffffffffffffffffffffffffffffff166305268cff6040518163ffffffff1660e01b8152600401602060405180830381865afa158015610b6d573d6000803e3d6000fd5b505050506040513d601f19601f82011682018060405250810190610b919190613c1a565b73ffffffffffffffffffffffffffffffffffffffff166364df049e6040518163ffffffff1660e01b8152600401602060405180830381865afa158015610bdb573d6000803e3d6000fd5b505050506040513d601f19601f82011682018060405250810190610bff9190613d8e565b856040518363ffffffff1660e01b8152600401610c1d929190613d65565b600060405180830381600087803b158015610c3757600080fd5b505af1158015610c4b573d6000803e3d6000fd5b505050508073ffffffffffffffffffffffffffffffffffffffff16633e60e3488c846040518363ffffffff1660e01b8152600401610c8a929190613d65565b600060405180830381600087803b158015610ca457600080fd5b505af1158015610cb8573d6000803e3d6000fd5b505050503073ffffffffffffffffffffffffffffffffffffffff163373ffffffffffffffffffffffffffffffffffffffff167f1cf7404c642614322b1d508b6d5e34e05720d23d9596b59b19c8a05704b495e18a8f89604051610d1d93929190613dbb565b60405180910390a3505b50505050505b505050505050565b610d3d613348565b73ffffffffffffffffffffffffffffffffffffffff16610d5b61175a565b73ffffffffffffffffffffffffffffffffffffffff1614610db1576040517f08c379a0000000000000000000000000000000000000000000000000000000008152600401610da890613e4f565b60405180910390fd5b610dbb6000613350565b565b60008473ffffffffffffffffffffffffffffffffffffffff16631f21f9af6040518163ffffffff1660e01b8152600401602060405180830381865afa158015610e0a573d6000803e3d6000fd5b505050506040513d601f19601f82011682018060405250810190610e2e9190613ade565b905060008173ffffffffffffffffffffffffffffffffffffffff166305268cff6040518163ffffffff1660e01b8152600401602060405180830381865afa158015610e7d573d6000803e3d6000fd5b505050506040513d601f19601f82011682018060405250810190610ea19190613c1a565b73ffffffffffffffffffffffffffffffffffffffff16636cce89168373ffffffffffffffffffffffffffffffffffffffff16636f307dc36040518163ffffffff1660e01b8152600401602060405180830381865afa158015610f07573d6000803e3d6000fd5b505050506040513d601f19601f82011682018060405250810190610f2b9190613d8e565b876040518363ffffffff1660e01b8152600401610f49929190613d65565b602060405180830381865afa158015610f66573d6000803e3d6000fd5b505050506040513d601f19601f82011682018060405250810190610f8a9190613ead565b90506000604051806102200160405280600180811115610fad57610fac613a09565b5b8152602001856001811115610fc557610fc4613a09565b5b815260200160006003811115610fde57610fdd613a09565b5b81526020013373ffffffffffffffffffffffffffffffffffffffff1681526020016000815260200142815260200160008152602001878152602001600081526020016000815260200186815260200160008152602001600081526020016000815260200160008152602001600081526020018873ffffffffffffffffffffffffffffffffffffffff1681525090506000807f000000000000000000000000000000000000000000000000000000000000000073ffffffffffffffffffffffffffffffffffffffff16632360e8178460016040518363ffffffff1660e01b81526004016110cb92919061413e565b608060405180830381865afa1580156110e8573d6000803e3d6000fd5b505050506040513d601f19601f8201168201806040525081019061110c9190614169565b93505050915060008273__MathLib_______________________________63de7f61709091846040518363ffffffff1660e01b815260040161114f929190613c83565b602060405180830381865af415801561116c573d6000803e3d6000fd5b505050506040513d601f19601f820116820180604052508101906111909190613c47565b90508273__MarketLib_____________________________63174e20e690918873ffffffffffffffffffffffffffffffffffffffff1663cb4c86b76040518163ffffffff1660e01b8152600401602060405180830381865afa1580156111fa573d6000803e3d6000fd5b505050506040513d601f19601f8201168201806040525081019061121e9190613b49565b73ffffffffffffffffffffffffffffffffffffffff1663313ce5676040518163ffffffff1660e01b8152600401602060405180830381865afa158015611268573d6000803e3d6000fd5b505050506040513d601f19601f8201168201806040525081019061128c9190613baf565b6040518363ffffffff1660e01b81526004016112a9929190614201565b602060405180830381865af41580156112c6573d6000803e3d6000fd5b505050506040513d601f19601f820116820180604052508101906112ea9190613c47565b925060006001811115611300576112ff613a09565b5b87600181111561131357611312613a09565b5b03611525578573ffffffffffffffffffffffffffffffffffffffff1663cb4c86b76040518163ffffffff1660e01b8152600401602060405180830381865afa158015611363573d6000803e3d6000fd5b505050506040513d601f19601f820116820180604052508101906113879190613b49565b73ffffffffffffffffffffffffffffffffffffffff166323b872dd338c73ffffffffffffffffffffffffffffffffffffffff16631f21f9af6040518163ffffffff1660e01b8152600401602060405180830381865afa1580156113ee573d6000803e3d6000fd5b505050506040513d601f19601f820116820180604052508101906114129190613ade565b866040518463ffffffff1660e01b81526004016114319392919061422a565b6020604051808303816000875af1158015611450573d6000803e3d6000fd5b505050506040513d601f19601f820116820180604052508101906114749190614276565b6114b3576040517f08c379a00000000000000000000000000000000000000000000000000000000081526004016114aa906142ef565b60405180910390fd5b8473ffffffffffffffffffffffffffffffffffffffff166340c10f1933836040518363ffffffff1660e01b81526004016114ee929190613d65565b600060405180830381600087803b15801561150857600080fd5b505af115801561151c573d6000803e3d6000fd5b505050506116be565b8473ffffffffffffffffffffffffffffffffffffffff16639dc29fac33836040518363ffffffff1660e01b8152600401611560929190613d65565b600060405180830381600087803b15801561157a57600080fd5b505af115801561158e573d6000803e3d6000fd5b505050508573ffffffffffffffffffffffffffffffffffffffff1663cb4c86b76040518163ffffffff1660e01b8152600401602060405180830381865afa1580156115dd573d6000803e3d6000fd5b505050506040513d601f19601f820116820180604052508101906116019190613b49565b73ffffffffffffffffffffffffffffffffffffffff1663a9059cbb33856040518363ffffffff1660e01b815260040161163b929190613d65565b6020604051808303816000875af115801561165a573d6000803e3d6000fd5b505050506040513d601f19601f8201168201806040525081019061167e9190614276565b6116bd576040517f08c379a00000000000000000000000000000000000000000000000000000000081526004016116b49061435b565b60405180910390fd5b5b8973ffffffffffffffffffffffffffffffffffffffff163373ffffffffffffffffffffffffffffffffffffffff167fecff3762708241a160664f7092d4ff3e5e6eed425112beca3a558737639f0ba38a846000600181111561172357611722613a09565b5b8c600181111561173657611735613a09565b5b146040516117469392919061437b565b60405180910390a350505050505050505050565b60008060009054906101000a900473ffffffffffffffffffffffffffffffffffffffff16905090565b60007f000000000000000000000000000000000000000000000000000000000000000073ffffffffffffffffffffffffffffffffffffffff16635c273c2f846001806040518463ffffffff1660e01b81526004016117e3939291906143d3565b602060405180830381865afa158015611800573d6000803e3d6000fd5b505050506040513d601f19601f820116820180604052508101906118249190613c47565b905060008173__MathLib_______________________________63fed4a0f39091856040518363ffffffff1660e01b8152600401611863929190613c83565b602060405180830381865af4158015611880573d6000803e3d6000fd5b505050506040513d601f19601f820116820180604052508101906118a49190613c47565b73__MarketLib_____________________________63174e20e690918673ffffffffffffffffffffffffffffffffffffffff16631f21f9af6040518163ffffffff1660e01b8152600401602060405180830381865afa15801561190b573d6000803e3d6000fd5b505050506040513d601f19601f8201168201806040525081019061192f9190613ade565b73ffffffffffffffffffffffffffffffffffffffff1663cb4c86b76040518163ffffffff1660e01b8152600401602060405180830381865afa158015611979573d6000803e3d6000fd5b505050506040513d601f19601f8201168201806040525081019061199d9190613b49565b73ffffffffffffffffffffffffffffffffffffffff1663313ce5676040518163ffffffff1660e01b8152600401602060405180830381865afa1580156119e7573d6000803e3d6000fd5b505050506040513d601f19601f82011682018060405250810190611a0b9190613baf565b6040518363ffffffff1660e01b8152600401611a28929190614201565b602060405180830381865af4158015611a45573d6000803e3d6000fd5b505050506040513d601f19601f82011682018060405250810190611a699190613c47565b90508373ffffffffffffffffffffffffffffffffffffffff16639dc29fac33856040518363ffffffff1660e01b8152600401611aa6929190613d65565b600060405180830381600087803b158015611ac057600080fd5b505af1158015611ad4573d6000803e3d6000fd5b505050508373ffffffffffffffffffffffffffffffffffffffff16631f21f9af6040518163ffffffff1660e01b8152600401602060405180830381865afa158015611b23573d6000803e3d6000fd5b505050506040513d601f19601f82011682018060405250810190611b479190613ade565b73ffffffffffffffffffffffffffffffffffffffff16633e60e34833836040518363ffffffff1660e01b8152600401611b81929190613d65565b600060405180830381600087803b158015611b9b57600080fd5b505af1158015611baf573d6000803e3d6000fd5b5050505050505050565b6000806000806000604051806102200160405280896001811115611be057611bdf613a09565b5b8152602001886001811115611bf857611bf7613a09565b5b815260200160006003811115611c1157611c10613a09565b5b81526020013373ffffffffffffffffffffffffffffffffffffffff16815260200160008152602001428152602001600081526020018c815260200160008152602001600081526020018a8152602001600081526020018b81526020016000815260200160008152602001600081526020018d73ffffffffffffffffffffffffffffffffffffffff1681525090507f000000000000000000000000000000000000000000000000000000000000000073ffffffffffffffffffffffffffffffffffffffff16632360e81782886040518363ffffffff1660e01b8152600401611cf992919061413e565b608060405180830381865afa158015611d16573d6000803e3d6000fd5b505050506040513d601f19601f82011682018060405250810190611d3a9190614169565b945094509450945050975097509750979350505050565b60008573ffffffffffffffffffffffffffffffffffffffff16631f21f9af6040518163ffffffff1660e01b8152600401602060405180830381865afa158015611d9e573d6000803e3d6000fd5b505050506040513d601f19601f82011682018060405250810190611dc29190613ade565b905060008173ffffffffffffffffffffffffffffffffffffffff166305268cff6040518163ffffffff1660e01b8152600401602060405180830381865afa158015611e11573d6000803e3d6000fd5b505050506040513d601f19601f82011682018060405250810190611e359190613c1a565b73ffffffffffffffffffffffffffffffffffffffff16636cce89168373ffffffffffffffffffffffffffffffffffffffff16636f307dc36040518163ffffffff1660e01b8152600401602060405180830381865afa158015611e9b573d6000803e3d6000fd5b505050506040513d601f19601f82011682018060405250810190611ebf9190613d8e565b886040518363ffffffff1660e01b8152600401611edd929190613d65565b602060405180830381865afa158015611efa573d6000803e3d6000fd5b505050506040513d601f19601f82011682018060405250810190611f1e9190613ead565b90506000604051806102200160405280866001811115611f4157611f40613a09565b5b8152602001856001811115611f5957611f58613a09565b5b815260200160006003811115611f7257611f71613a09565b5b81526020013373ffffffffffffffffffffffffffffffffffffffff1681526020016000815260200142815260200160008152602001888152602001600081526020016000815260200187815260200160008152602001600081526020016000815260200160008152602001600081526020018973ffffffffffffffffffffffffffffffffffffffff1681525090506000806000807f000000000000000000000000000000000000000000000000000000000000000073ffffffffffffffffffffffffffffffffffffffff16632360e8178660016040518363ffffffff1660e01b815260040161206292919061413e565b608060405180830381865afa15801561207f573d6000803e3d6000fd5b505050506040513d601f19601f820116820180604052508101906120a39190614169565b935093509350935060008473__MathLib_______________________________63de7f61709091846040518363ffffffff1660e01b81526004016120e8929190613c83565b602060405180830381865af4158015612105573d6000803e3d6000fd5b505050506040513d601f19601f820116820180604052508101906121299190613c47565b905060008873ffffffffffffffffffffffffffffffffffffffff1663cb4c86b76040518163ffffffff1660e01b8152600401602060405180830381865afa158015612178573d6000803e3d6000fd5b505050506040513d601f19601f8201168201806040525081019061219c9190613b49565b73ffffffffffffffffffffffffffffffffffffffff1663313ce5676040518163ffffffff1660e01b8152600401602060405180830381865afa1580156121e6573d6000803e3d6000fd5b505050506040513d601f19601f8201168201806040525081019061220a9190613baf565b60ff1690508573__MarketLib_____________________________63174e20e69091836040518363ffffffff1660e01b815260040161224a929190613c83565b602060405180830381865af4158015612267573d6000803e3d6000fd5b505050506040513d601f19601f8201168201806040525081019061228b9190613c47565b95508473__MarketLib_____________________________63174e20e69091836040518363ffffffff1660e01b81526004016122c8929190613c83565b602060405180830381865af41580156122e5573d6000803e3d6000fd5b505050506040513d601f19601f820116820180604052508101906123099190613c47565b945060007f000000000000000000000000000000000000000000000000000000000000000073ffffffffffffffffffffffffffffffffffffffff1663b9f10b6689898989896040518663ffffffff1660e01b815260040161236e95949392919061440a565b6020604051808303816000875af115801561238d573d6000803e3d6000fd5b505050506040513d601f19601f820116820180604052508101906123b19190613c47565b905060008611156124ea578973ffffffffffffffffffffffffffffffffffffffff1663cb4c86b76040518163ffffffff1660e01b8152600401602060405180830381865afa158015612407573d6000803e3d6000fd5b505050506040513d601f19601f8201168201806040525081019061242b9190613b49565b73ffffffffffffffffffffffffffffffffffffffff166323b872dd338c896040518463ffffffff1660e01b81526004016124679392919061422a565b6020604051808303816000875af1158015612486573d6000803e3d6000fd5b505050506040513d601f19601f820116820180604052508101906124aa9190614276565b6124e9576040517f08c379a00000000000000000000000000000000000000000000000000000000081526004016124e09061435b565b60405180910390fd5b5b600060018111156124fe576124fd613a09565b5b8b600181111561251157612510613a09565b5b03612588578873ffffffffffffffffffffffffffffffffffffffff16639dc29fac33856040518363ffffffff1660e01b8152600401612551929190613d65565b600060405180830381600087803b15801561256b57600080fd5b505af115801561257f573d6000803e3d6000fd5b505050506125f6565b8873ffffffffffffffffffffffffffffffffffffffff166340c10f1933856040518363ffffffff1660e01b81526004016125c3929190613d65565b600060405180830381600087803b1580156125dd57600080fd5b505af11580156125f1573d6000803e3d6000fd5b505050505b3073ffffffffffffffffffffffffffffffffffffffff163373ffffffffffffffffffffffffffffffffffffffff167f2588b8b06c1fb0f749c19fc01df761fb6c5d2497e519c7193a5262ce0d84471483868a600160405161265a9493929190614462565b60405180910390a3505050505050505050505050505050565b600060405180610220016040528084600181111561269457612693613a09565b5b81526020018360018111156126ac576126ab613a09565b5b8152602001600060038111156126c5576126c4613a09565b5b81526020013373ffffffffffffffffffffffffffffffffffffffff16815260200160008152602001428152602001600081526020018781526020016000815260200160008152602001858152602001600081526020018681526020016000815260200160008152602001600081526020018873ffffffffffffffffffffffffffffffffffffffff1681525090506000806000807f000000000000000000000000000000000000000000000000000000000000000073ffffffffffffffffffffffffffffffffffffffff16632360e8178660006040518363ffffffff1660e01b81526004016127b492919061413e565b608060405180830381865afa1580156127d1573d6000803e3d6000fd5b505050506040513d601f19601f820116820180604052508101906127f59190614169565b935093509350935060008b73ffffffffffffffffffffffffffffffffffffffff16631f21f9af6040518163ffffffff1660e01b8152600401602060405180830381865afa15801561284a573d6000803e3d6000fd5b505050506040513d601f19601f8201168201806040525081019061286e9190613ade565b73ffffffffffffffffffffffffffffffffffffffff1663cb4c86b76040518163ffffffff1660e01b8152600401602060405180830381865afa1580156128b8573d6000803e3d6000fd5b505050506040513d601f19601f820116820180604052508101906128dc9190613b49565b73ffffffffffffffffffffffffffffffffffffffff1663313ce5676040518163ffffffff1660e01b8152600401602060405180830381865afa158015612926573d6000803e3d6000fd5b505050506040513d601f19601f8201168201806040525081019061294a9190613baf565b60ff1690508473__MarketLib_____________________________63174e20e69091836040518363ffffffff1660e01b815260040161298a929190613c83565b602060405180830381865af41580156129a7573d6000803e3d6000fd5b505050506040513d601f19601f820116820180604052508101906129cb9190613c47565b94508373__MarketLib_____________________________63174e20e69091836040518363ffffffff1660e01b8152600401612a08929190613c83565b602060405180830381865af4158015612a25573d6000803e3d6000fd5b505050506040513d601f19601f82011682018060405250810190612a499190613c47565b935060008585612a599190613cdb565b9050600180811115612a6e57612a6d613a09565b5b886001811115612a8157612a80613a09565b5b03612ad757858511612ac8576040517f08c379a0000000000000000000000000000000000000000000000000000000008152600401612abf906144f3565b60405180910390fd5b8585612ad49190613d31565b90505b60007f000000000000000000000000000000000000000000000000000000000000000073ffffffffffffffffffffffffffffffffffffffff1663b9f10b6689898989896040518663ffffffff1660e01b8152600401612b3a95949392919061440a565b6020604051808303816000875af1158015612b59573d6000803e3d6000fd5b505050506040513d601f19601f82011682018060405250810190612b7d9190613c47565b905060008e73ffffffffffffffffffffffffffffffffffffffff16631f21f9af6040518163ffffffff1660e01b8152600401602060405180830381865afa158015612bcc573d6000803e3d6000fd5b505050506040513d601f19601f82011682018060405250810190612bf09190613ade565b90508073ffffffffffffffffffffffffffffffffffffffff1663cb4c86b76040518163ffffffff1660e01b8152600401602060405180830381865afa158015612c3d573d6000803e3d6000fd5b505050506040513d601f19601f82011682018060405250810190612c619190613b49565b73ffffffffffffffffffffffffffffffffffffffff166323b872dd3383866040518463ffffffff1660e01b8152600401612c9d9392919061422a565b6020604051808303816000875af1158015612cbc573d6000803e3d6000fd5b505050506040513d601f19601f82011682018060405250810190612ce09190614276565b612d1f576040517f08c379a0000000000000000000000000000000000000000000000000000000008152600401612d169061455f565b60405180910390fd5b7f000000000000000000000000000000000000000000000000000000000000000073ffffffffffffffffffffffffffffffffffffffff166324b4110e83336040518363ffffffff1660e01b8152600401612d7a92919061457f565b600060405180830381600087803b158015612d9457600080fd5b505af1158015612da8573d6000803e3d6000fd5b505050503073ffffffffffffffffffffffffffffffffffffffff163373ffffffffffffffffffffffffffffffffffffffff167f2588b8b06c1fb0f749c19fc01df761fb6c5d2497e519c7193a5262ce0d844714848b8b6000604051612e109493929190614462565b60405180910390a3505050505050505050505050505050565b60007f000000000000000000000000000000000000000000000000000000000000000073ffffffffffffffffffffffffffffffffffffffff16635c273c2f84600060016040518463ffffffff1660e01b8152600401612e8a939291906143d3565b602060405180830381865afa158015612ea7573d6000803e3d6000fd5b505050506040513d601f19601f82011682018060405250810190612ecb9190613c47565b905060008373ffffffffffffffffffffffffffffffffffffffff16631f21f9af6040518163ffffffff1660e01b8152600401602060405180830381865afa158015612f1a573d6000803e3d6000fd5b505050506040513d601f19601f82011682018060405250810190612f3e9190613ade565b73ffffffffffffffffffffffffffffffffffffffff1663cb4c86b76040518163ffffffff1660e01b8152600401602060405180830381865afa158015612f88573d6000803e3d6000fd5b505050506040513d601f19601f82011682018060405250810190612fac9190613b49565b905060008373__MarketLib_____________________________63ed1bb19990918473ffffffffffffffffffffffffffffffffffffffff1663313ce5676040518163ffffffff1660e01b8152600401602060405180830381865afa158015613018573d6000803e3d6000fd5b505050506040513d601f19601f8201168201806040525081019061303c9190613baf565b6040518363ffffffff1660e01b8152600401613059929190614201565b602060405180830381865af4158015613076573d6000803e3d6000fd5b505050506040513d601f19601f8201168201806040525081019061309a9190613c47565b73__MathLib_______________________________63de7f61709091856040518363ffffffff1660e01b81526004016130d4929190613c83565b602060405180830381865af41580156130f1573d6000803e3d6000fd5b505050506040513d601f19601f820116820180604052508101906131159190613c47565b90508173ffffffffffffffffffffffffffffffffffffffff166323b872dd3387876040518463ffffffff1660e01b81526004016131549392919061422a565b6020604051808303816000875af1158015613173573d6000803e3d6000fd5b505050506040513d601f19601f820116820180604052508101906131979190614276565b6131a057600080fd5b8473ffffffffffffffffffffffffffffffffffffffff166340c10f1933836040518363ffffffff1660e01b81526004016131db929190613d65565b600060405180830381600087803b1580156131f557600080fd5b505af1158015613209573d6000803e3d6000fd5b505050505050505050565b61321c613348565b73ffffffffffffffffffffffffffffffffffffffff1661323a61175a565b73ffffffffffffffffffffffffffffffffffffffff1614613290576040517f08c379a000000000000000000000000000000000000000000000000000000000815260040161328790613e4f565b60405180910390fd5b600073ffffffffffffffffffffffffffffffffffffffff168173ffffffffffffffffffffffffffffffffffffffff16036132ff576040517f08c379a00000000000000000000000000000000000000000000000000000000081526004016132f69061461a565b60405180910390fd5b61330881613350565b50565b7f000000000000000000000000000000000000000000000000000000000000000081565b600081831061333e5781613340565b825b905092915050565b600033905090565b60008060009054906101000a900473ffffffffffffffffffffffffffffffffffffffff169050816000806101000a81548173ffffffffffffffffffffffffffffffffffffffff021916908373ffffffffffffffffffffffffffffffffffffffff1602179055508173ffffffffffffffffffffffffffffffffffffffff168173ffffffffffffffffffffffffffffffffffffffff167f8be0079c531659141344cd1fd0a4f28419497f9722a3daafe3b4186f6b6457e060405160405180910390a35050565b600080fd5b6000819050919050565b61342c81613419565b811461343757600080fd5b50565b60008135905061344981613423565b92915050565b600073ffffffffffffffffffffffffffffffffffffffff82169050919050565b600061347a8261344f565b9050919050565b61348a8161346f565b811461349557600080fd5b50565b6000813590506134a781613481565b92915050565b600080604083850312156134c4576134c3613414565b5b60006134d28582860161343a565b92505060206134e385828601613498565b9150509250929050565b60006134f88261346f565b9050919050565b613508816134ed565b811461351357600080fd5b50565b600081359050613525816134ff565b92915050565b6002811061353857600080fd5b50565b60008135905061354a8161352b565b92915050565b6000806000806080858703121561356a57613569613414565b5b600061357887828801613516565b94505060206135898782880161343a565b935050604061359a8782880161343a565b92505060606135ab8782880161353b565b91505092959194509250565b6135c08161346f565b82525050565b60006020820190506135db60008301846135b7565b92915050565b600080604083850312156135f8576135f7613414565b5b600061360685828601613516565b92505060206136178582860161343a565b9150509250929050565b6002811061362e57600080fd5b50565b60008135905061364081613621565b92915050565b60008115159050919050565b61365b81613646565b811461366657600080fd5b50565b60008135905061367881613652565b92915050565b600080600080600080600060e0888a03121561369d5761369c613414565b5b60006136ab8a828b01613516565b97505060206136bc8a828b0161343a565b96505060406136cd8a828b0161343a565b95505060606136de8a828b0161343a565b94505060806136ef8a828b01613631565b93505060a06137008a828b0161353b565b92505060c06137118a828b01613669565b91505092959891949750929550565b61372981613419565b82525050565b60006080820190506137446000830187613720565b6137516020830186613720565b61375e6040830185613720565b61376b6060830184613720565b95945050505050565b600080600080600060a086880312156137905761378f613414565b5b600061379e88828901613516565b95505060206137af8882890161343a565b94505060406137c08882890161343a565b93505060606137d188828901613631565b92505060806137e28882890161353b565b9150509295509295909350565b60008060008060008060c0878903121561380c5761380b613414565b5b600061381a89828a01613516565b965050602061382b89828a0161343a565b955050604061383c89828a0161343a565b945050606061384d89828a0161343a565b935050608061385e89828a01613631565b92505060a061386f89828a0161353b565b9150509295509295509295565b60006020828403121561389257613891613414565b5b60006138a084828501613498565b91505092915050565b6000819050919050565b60006138ce6138c96138c48461344f565b6138a9565b61344f565b9050919050565b60006138e0826138b3565b9050919050565b60006138f2826138d5565b9050919050565b613902816138e7565b82525050565b600060208201905061391d60008301846138f9565b92915050565b60006020820190506139386000830184613720565b92915050565b6004811061394b57600080fd5b50565b60008151905061395d8161393e565b92915050565b6000815190506139728161352b565b92915050565b60008151905061398781613481565b92915050565b60008151905061399c816134ff565b92915050565b600080600080608085870312156139bc576139bb613414565b5b60006139ca8782880161394e565b94505060206139db87828801613963565b93505060406139ec87828801613978565b92505060606139fd8782880161398d565b91505092959194509250565b7f4e487b7100000000000000000000000000000000000000000000000000000000600052602160045260246000fd5b600081519050613a4781613423565b92915050565b600080600060608486031215613a6657613a65613414565b5b6000613a7486828701613a38565b9350506020613a8586828701613a38565b9250506040613a9686828701613a38565b9150509250925092565b6000613aab8261346f565b9050919050565b613abb81613aa0565b8114613ac657600080fd5b50565b600081519050613ad881613ab2565b92915050565b600060208284031215613af457613af3613414565b5b6000613b0284828501613ac9565b91505092915050565b6000613b168261346f565b9050919050565b613b2681613b0b565b8114613b3157600080fd5b50565b600081519050613b4381613b1d565b92915050565b600060208284031215613b5f57613b5e613414565b5b6000613b6d84828501613b34565b91505092915050565b600060ff82169050919050565b613b8c81613b76565b8114613b9757600080fd5b50565b600081519050613ba981613b83565b92915050565b600060208284031215613bc557613bc4613414565b5b6000613bd384828501613b9a565b91505092915050565b6000613be78261346f565b9050919050565b613bf781613bdc565b8114613c0257600080fd5b50565b600081519050613c1481613bee565b92915050565b600060208284031215613c3057613c2f613414565b5b6000613c3e84828501613c05565b91505092915050565b600060208284031215613c5d57613c5c613414565b5b6000613c6b84828501613a38565b91505092915050565b613c7d81613419565b82525050565b6000604082019050613c986000830185613c74565b613ca56020830184613c74565b9392505050565b7f4e487b7100000000000000000000000000000000000000000000000000000000600052601160045260246000fd5b6000613ce682613419565b9150613cf183613419565b9250827fffffffffffffffffffffffffffffffffffffffffffffffffffffffffffffffff03821115613d2657613d25613cac565b5b828201905092915050565b6000613d3c82613419565b9150613d4783613419565b925082821015613d5a57613d59613cac565b5b828203905092915050565b6000604082019050613d7a60008301856135b7565b613d876020830184613720565b9392505050565b600060208284031215613da457613da3613414565b5b6000613db284828501613978565b91505092915050565b6000606082019050613dd060008301866135b7565b613ddd6020830185613720565b613dea6040830184613720565b949350505050565b600082825260208201905092915050565b7f4f776e61626c653a2063616c6c6572206973206e6f7420746865206f776e6572600082015250565b6000613e39602083613df2565b9150613e4482613e03565b602082019050919050565b60006020820190508181036000830152613e6881613e2c565b9050919050565b6000613e7a8261346f565b9050919050565b613e8a81613e6f565b8114613e9557600080fd5b50565b600081519050613ea781613e81565b92915050565b600060208284031215613ec357613ec2613414565b5b6000613ed184828501613e98565b91505092915050565b60028110613eeb57613eea613a09565b5b50565b6000819050613efc82613eda565b919050565b6000613f0c82613eee565b9050919050565b613f1c81613f01565b82525050565b60028110613f3357613f32613a09565b5b50565b6000819050613f4482613f22565b919050565b6000613f5482613f36565b9050919050565b613f6481613f49565b82525050565b60048110613f7b57613f7a613a09565b5b50565b6000819050613f8c82613f6a565b919050565b6000613f9c82613f7e565b9050919050565b613fac81613f91565b82525050565b613fbb8161346f565b82525050565b613fca81613419565b82525050565b61022082016000820151613fe76000850182613f13565b506020820151613ffa6020850182613f5b565b50604082015161400d6040850182613fa3565b5060608201516140206060850182613fb2565b5060808201516140336080850182613fc1565b5060a082015161404660a0850182613fc1565b5060c082015161405960c0850182613fc1565b5060e082015161406c60e0850182613fc1565b50610100820151614081610100850182613fc1565b50610120820151614096610120850182613fc1565b506101408201516140ab610140850182613fc1565b506101608201516140c0610160850182613fc1565b506101808201516140d5610180850182613fc1565b506101a08201516140ea6101a0850182613fc1565b506101c08201516140ff6101c0850182613fc1565b506101e08201516141146101e0850182613fc1565b50610200820151614129610200850182613fb2565b50505050565b61413881613646565b82525050565b6000610240820190506141546000830185613fd0565b61416261022083018461412f565b9392505050565b6000806000806080858703121561418357614182613414565b5b600061419187828801613a38565b94505060206141a287828801613a38565b93505060406141b387828801613a38565b92505060606141c487828801613a38565b91505092959194509250565b60006141eb6141e66141e184613b76565b6138a9565b613419565b9050919050565b6141fb816141d0565b82525050565b60006040820190506142166000830185613c74565b61422360208301846141f2565b9392505050565b600060608201905061423f60008301866135b7565b61424c60208301856135b7565b6142596040830184613720565b949350505050565b60008151905061427081613652565b92915050565b60006020828403121561428c5761428b613414565b5b600061429a84828501614261565b91505092915050565b7f4661696c6564207061796d656e74000000000000000000000000000000000000600082015250565b60006142d9600e83613df2565b91506142e4826142a3565b602082019050919050565b60006020820190508181036000830152614308816142cc565b9050919050565b7f7061796d656e74206572726f7200000000000000000000000000000000000000600082015250565b6000614345600d83613df2565b91506143508261430f565b602082019050919050565b6000602082019050818103600083015261437481614338565b9050919050565b60006060820190506143906000830186613720565b61439d6020830185613720565b6143aa604083018461412f565b949350505050565b60006143bd826138d5565b9050919050565b6143cd816143b2565b82525050565b60006060820190506143e860008301866143c4565b6143f5602083018561412f565b614402604083018461412f565b949350505050565b60006102a0820190506144206000830188613fd0565b61442e610220830187613720565b61443c610240830186613720565b61444a610260830185613720565b614458610280830184613720565b9695505050505050565b60006080820190506144776000830187613720565b6144846020830186613720565b6144916040830185613720565b61449e606083018461412f565b95945050505050565b7f77726f6e67207072656d69756d00000000000000000000000000000000000000600082015250565b60006144dd600d83613df2565b91506144e8826144a7565b602082019050919050565b6000602082019050818103600083015261450c816144d0565b9050919050565b7f4661696c6564207061796d656e742e0000000000000000000000000000000000600082015250565b6000614549600f83613df2565b915061455482614513565b602082019050919050565b600060208201905081810360008301526145788161453c565b9050919050565b60006040820190506145946000830185613720565b6145a160208301846135b7565b9392505050565b7f4f776e61626c653a206e6577206f776e657220697320746865207a65726f206160008201527f6464726573730000000000000000000000000000000000000000000000000000602082015250565b6000614604602683613df2565b915061460f826145a8565b604082019050919050565b60006020820190508181036000830152614633816145f7565b905091905056fea264697066735822122007609732f1da9d61bef2860c37d68a3bdfa6036117f7acb5c020bae5b8af779c64736f6c634300080d0033",
  "immutableReferences": {
    "7971": [
      {
        "length": 32,
        "start": 499
      },
      {
        "length": 32,
        "start": 705
      },
      {
        "length": 32,
        "start": 847
      },
      {
        "length": 32,
        "start": 4209
      },
      {
        "length": 32,
        "start": 6023
      },
      {
        "length": 32,
        "start": 7328
      },
      {
        "length": 32,
        "start": 8200
      },
      {
        "length": 32,
        "start": 8975
      },
      {
        "length": 32,
        "start": 10074
      },
      {
        "length": 32,
        "start": 10971
      },
      {
        "length": 32,
        "start": 11553
      },
      {
        "length": 32,
        "start": 11821
      },
      {
        "length": 32,
        "start": 13069
      }
    ]
  },
  "source": "// SPDX-License-Identifier: MIT\npragma solidity ^0.8.4;\n\nimport \"@openzeppelin/contracts/token/ERC20/ERC20.sol\";\nimport \"@openzeppelin/contracts/access/Ownable.sol\";\nimport \"./interfaces/EOption.sol\";\nimport \"./libraries/MathLib.sol\";\nimport \"./libraries/MarketLib.sol\";\nimport \"./libraries/OptionLib.sol\";\nimport \"./governance/Moret.sol\";\nimport \"./pools/Pool.sol\";\nimport \"./pools/MarketMaker.sol\";\nimport \"./OptionVault.sol\";\nimport \"./VolatilityToken.sol\";\n\ncontract Exchange is Ownable, EOption{\n  using MarketLib for uint256;\n  using MathLib for uint256;\n\n  // immutable addresses\n  // Moret public immutable govToken;\n  OptionVault public immutable vault;\n  // ERC20 public immutable funding;\n  // uint256 public fundingDecimals;\n\n  // contructor. Arguments: pool tokens, volatility oracle, option vault and bot address\n  constructor(OptionVault _optionVault){\n    // govToken = _govToken;\n    // funding = _funding;\n    // fundingDecimals = _funding.decimals();\n    vault = _optionVault;}\n  \n  function queryOption(Pool _pool, uint256 _tenor, uint256 _strike, uint256 _amount, OptionLib.PayoffType _poType, OptionLib.OptionSide _side, bool _forceATM) external view returns(uint256 _premium, uint256 _collateral, uint256 _price, uint256 _vol){\n    OptionLib.Option memory _option = OptionLib.Option(_poType, _side, OptionLib.OptionStatus.Draft, msg.sender, 0, block.timestamp,  0, _tenor, 0,  0, _amount, 0, _strike, 0, 0, 0, address(_pool));\n    return vault.calcOptionCost(_option, _forceATM);}\n\n  // functions to transact for option contracts\n  // arguments: pool token address, tenor in seconds, strike in 18 decimals, amount in 18 decimals, payoff type (call 0 or put 1), option side (buy 0 or sell 1)\n  function tradeOption(Pool _pool, uint256 _tenor, uint256 _strike, uint256 _amount, OptionLib.PayoffType _poType, OptionLib.OptionSide _side) external {\n    OptionLib.Option memory _option = OptionLib.Option(_poType, _side, OptionLib.OptionStatus.Draft, msg.sender, 0, block.timestamp,  0, _tenor, 0,  0, _amount, 0, _strike, 0, 0, 0, address(_pool));\n    \n    (uint256 _premium, uint256 _collateral, uint256 _price, uint256 _vol) = vault.calcOptionCost(_option, false);\n\n    uint256 _fundingDecimals = _pool.marketMaker().funding().decimals();\n    _premium = _premium.toDecimals(_fundingDecimals);\n    _collateral = _collateral.toDecimals(_fundingDecimals);\n\n    uint256 _cost = _collateral + _premium;\n    if(_side == OptionLib.OptionSide.Sell){\n      require(_collateral > _premium,\"wrong premium\");\n      _cost = _collateral - _premium;}\n\n    uint256 _id = vault.addOption(_option, _premium, _collateral, _price, _vol);\n    MarketMaker _marketMaker = _pool.marketMaker();\n    require(_marketMaker.funding().transferFrom(msg.sender, address(_marketMaker), _cost), 'Failed payment.');  \n    vault.stampActiveOption(_id, msg.sender);\n    emit NewOption(msg.sender, address(this), _id, _premium, _collateral, false);}\n\n  // functions to transact for option contracts with volatility tokens (buy or sell)\n  // arguments: pool token address, tenor in seconds, strike in 18 decimals, amount in 18 decimals, payoff type (call 0 or put 1), option side (buy 0 or sell 1)\n  function tradeOptionInVol(Pool _pool, uint256 _tenor, uint256 _amount, OptionLib.PayoffType _poType, OptionLib.OptionSide _side) external {\n    MarketMaker _marketMaker = _pool.marketMaker();\n    VolatilityToken _vToken = _marketMaker.govToken().getVolatilityToken(_marketMaker.underlying(), _tenor);\n    OptionLib.Option memory _option = OptionLib.Option(_poType, _side, OptionLib.OptionStatus.Draft, msg.sender, 0, block.timestamp,  0, _tenor, 0,  0, _amount, 0, 0, 0, 0, 0, address(_pool));\n\n    (uint256 _premium, uint256 _collateral, uint256 _price, uint256 _vol) = vault.calcOptionCost(_option, true); \n    uint256 _volAmount = _premium.ethdiv(_vol);\n\n    uint256 _fundingDecimals = _marketMaker.funding().decimals();\n    _premium = _premium.toDecimals(_fundingDecimals);\n    _collateral = _collateral.toDecimals(_fundingDecimals);\n\n    uint256 _id = vault.addOption(_option, _premium, _collateral, _price, _vol);\n\n    if(_collateral > 0){\n      require(_marketMaker.funding().transferFrom(msg.sender, address(_marketMaker), _collateral), 'payment error'); }\n\n    if (_side == OptionLib.OptionSide.Buy){\n      _vToken.burn(msg.sender, _volAmount);}\n    else{\n      _vToken.mint(msg.sender, _volAmount);}\n\n    emit NewOption(msg.sender, address(this), _id, _volAmount, _collateral, true);\n  }\n\n  // functions to transact volatility tokens (buy or sell)\n  // arguments: pool token address, tenor in seconds, strike in 18 decimals, amount in 18 decimals, payoff type (call 0 or put 1), option side (buy 0 or sell 1)\n  function tradeVolToken(Pool _pool, uint256 _tenor, uint256 _amount, OptionLib.OptionSide _side) external {\n    MarketMaker _marketMaker = _pool.marketMaker();\n    VolatilityToken _vToken = _marketMaker.govToken().getVolatilityToken(_marketMaker.underlying(), _tenor);\n    OptionLib.Option memory _option = OptionLib.Option(OptionLib.PayoffType.Put, _side, OptionLib.OptionStatus.Draft, msg.sender, 0, block.timestamp,  0, _tenor, 0,  0, _amount, 0, 0, 0, 0, 0, address(_pool));\n\n    (uint256 _premium, , , uint256 _vol) = vault.calcOptionCost(_option, true); \n    uint256 _volAmount = _premium.ethdiv(_vol);\n    _premium = _premium.toDecimals(_marketMaker.funding().decimals());\n    \n    // require(_payInCost >= _premium, \"Cost incorrect\");\n    if (_side == OptionLib.OptionSide.Buy){\n      require(_marketMaker.funding().transferFrom(msg.sender, address(_pool.marketMaker()), _premium), \"Failed payment\");\n      _vToken.mint(msg.sender, _volAmount);}\n    else{\n      _vToken.burn(msg.sender, _volAmount);\n      require(_marketMaker.funding().transfer(msg.sender, _premium), \"payment error\");}\n    \n    emit TradeVolatility(msg.sender, address(_pool), _amount, _volAmount, _side == OptionLib.OptionSide.Buy);}\n\n  // expire option contracts (one at a time), with exercise fees paid to the exercising bots.\n  function expireOption(uint256 _expiringId, address _exerciseFeeRecipient) external {\n    // uint256 _expiringId = vault.getExpiringOptionId();\n    (OptionLib.OptionStatus _optionStatus, OptionLib.OptionSide _optionSide, address _optionHolder, Pool _pool) = vault.getOptionInfo(_expiringId);\n\n    if(_optionStatus == OptionLib.OptionStatus.Active){\n      vault.stampExpiredOption(_expiringId);\n      (uint256 _payoff, uint256 _payback,) = vault.getContractPayoff(_expiringId);\n      \n      uint256 _fundingDecimals = _pool.marketMaker().funding().decimals();\n      uint256 _protocolAmount = _payoff.ethmul(_pool.marketMaker().govToken().protocolFee()).toDecimals(_fundingDecimals);\n      uint256 _exerciseAmount = _payoff.ethmul(_pool.exerciseFee()).toDecimals(_fundingDecimals);\n      _payback = _payback.toDecimals(_fundingDecimals);\n\n      if(_optionSide == OptionLib.OptionSide.Buy){\n        _payback = _payback - Math.min(_payback, _protocolAmount + _exerciseAmount);\n\n      MarketMaker _marketMaker = MarketMaker(_pool.marketMaker());\n      _marketMaker.settlePayment(_optionHolder, _payback);\n      _marketMaker.settlePayment(_pool.marketMaker().govToken().protocolFeeRecipient(), _protocolAmount);\n      _marketMaker.settlePayment(_exerciseFeeRecipient, _exerciseAmount);      \n      emit Expire(msg.sender, address(this), _optionHolder, _expiringId, _payback);}}}\n  \n  // add capital by depositing amount in funding tokens\n  function addCapital(Pool _pool, uint256 _depositAmount) external {\n    uint256 _averageGrossCapital = vault.calcCapital(_pool, false, true);\n    ERC20 _funding = _pool.marketMaker().funding();\n    uint256 _mintPoolAmount = _depositAmount.toWei(_funding.decimals()).ethdiv(_averageGrossCapital);\n    require(_funding.transferFrom(msg.sender, address(_pool), _depositAmount));\n    _pool.mint(msg.sender, _mintPoolAmount);}\n\n  // remove capital by withdrawing amount in funding tokens\n  function withdrawCapital(Pool _pool, uint256 _burnPoolAmount) external {\n    uint256 _averageNetCapital = vault.calcCapital(_pool, true, true);\n    uint256 _withdrawValue = _averageNetCapital.ethmul(_burnPoolAmount).toDecimals(_pool.marketMaker().funding().decimals()); \n    _pool.burn(msg.sender, _burnPoolAmount);\n    MarketMaker(_pool.marketMaker()).settlePayment(msg.sender, _withdrawValue);}\n\n}\n",
  "sourcePath": "/Users/mac/Documents/GitHub/moret/contracts/Exchange.sol",
  "compiler": {
    "name": "solc",
    "version": "0.8.13+commit.abaa5c0e.Emscripten.clang"
  },
  "schemaVersion": "3.4.3",
  "updatedAt": "2022-05-02T09:43:37.012Z",
  "devdoc": {
    "kind": "dev",
    "methods": {
      "owner()": {
        "details": "Returns the address of the current owner."
      },
      "renounceOwnership()": {
        "details": "Leaves the contract without owner. It will not be possible to call `onlyOwner` functions anymore. Can only be called by the current owner. NOTE: Renouncing ownership will leave the contract without an owner, thereby removing any functionality that is only available to the owner."
      },
      "transferOwnership(address)": {
        "details": "Transfers ownership of the contract to a new account (`newOwner`). Can only be called by the current owner."
      }
    },
    "version": 1
  },
  "userdoc": {
    "kind": "user",
    "methods": {},
    "version": 1
  }
}