{
  "contractName": "Exchange",
  "abi": [
    {
      "inputs": [
        {
          "internalType": "address",
          "name": "_marketMakerAddress",
          "type": "address"
        },
        {
          "internalType": "address",
          "name": "_vaultAddress",
          "type": "address"
        }
      ],
      "stateMutability": "nonpayable",
      "type": "constructor"
    },
    {
      "anonymous": false,
      "inputs": [
        {
          "indexed": false,
          "internalType": "bool",
          "name": "success",
          "type": "bool"
        },
        {
          "indexed": false,
          "internalType": "bytes",
          "name": "data",
          "type": "bytes"
        }
      ],
      "name": "Response",
      "type": "event"
    },
    {
      "anonymous": false,
      "inputs": [
        {
          "indexed": true,
          "internalType": "bytes32",
          "name": "role",
          "type": "bytes32"
        },
        {
          "indexed": true,
          "internalType": "bytes32",
          "name": "previousAdminRole",
          "type": "bytes32"
        },
        {
          "indexed": true,
          "internalType": "bytes32",
          "name": "newAdminRole",
          "type": "bytes32"
        }
      ],
      "name": "RoleAdminChanged",
      "type": "event"
    },
    {
      "anonymous": false,
      "inputs": [
        {
          "indexed": true,
          "internalType": "bytes32",
          "name": "role",
          "type": "bytes32"
        },
        {
          "indexed": true,
          "internalType": "address",
          "name": "account",
          "type": "address"
        },
        {
          "indexed": true,
          "internalType": "address",
          "name": "sender",
          "type": "address"
        }
      ],
      "name": "RoleGranted",
      "type": "event"
    },
    {
      "anonymous": false,
      "inputs": [
        {
          "indexed": true,
          "internalType": "bytes32",
          "name": "role",
          "type": "bytes32"
        },
        {
          "indexed": true,
          "internalType": "address",
          "name": "account",
          "type": "address"
        },
        {
          "indexed": true,
          "internalType": "address",
          "name": "sender",
          "type": "address"
        }
      ],
      "name": "RoleRevoked",
      "type": "event"
    },
    {
      "anonymous": false,
      "inputs": [
        {
          "indexed": false,
          "internalType": "address",
          "name": "_recipient",
          "type": "address"
        },
        {
          "indexed": false,
          "internalType": "uint256",
          "name": "_mintMPTokenAmount",
          "type": "uint256"
        },
        {
          "indexed": false,
          "internalType": "uint256",
          "name": "_addedValue",
          "type": "uint256"
        }
      ],
      "name": "capitalAdded",
      "type": "event"
    },
    {
      "anonymous": false,
      "inputs": [
        {
          "indexed": false,
          "internalType": "address",
          "name": "_recipient",
          "type": "address"
        },
        {
          "indexed": false,
          "internalType": "uint256",
          "name": "_burnMPTokenAmount",
          "type": "uint256"
        },
        {
          "indexed": false,
          "internalType": "uint256",
          "name": "_withdrawValue",
          "type": "uint256"
        }
      ],
      "name": "capitalWithdrawn",
      "type": "event"
    },
    {
      "anonymous": false,
      "inputs": [
        {
          "indexed": true,
          "internalType": "address",
          "name": "_purchaser",
          "type": "address"
        },
        {
          "components": [
            {
              "internalType": "enum OptionLibrary.PayoffType",
              "name": "poType",
              "type": "uint8"
            },
            {
              "internalType": "enum OptionLibrary.OptionSide",
              "name": "side",
              "type": "uint8"
            },
            {
              "internalType": "enum OptionLibrary.OptionStatus",
              "name": "status",
              "type": "uint8"
            },
            {
              "internalType": "address",
              "name": "holder",
              "type": "address"
            },
            {
              "internalType": "uint256",
              "name": "id",
              "type": "uint256"
            },
            {
              "internalType": "uint256",
              "name": "createTime",
              "type": "uint256"
            },
            {
              "internalType": "uint256",
              "name": "effectiveTime",
              "type": "uint256"
            },
            {
              "internalType": "uint256",
              "name": "tenor",
              "type": "uint256"
            },
            {
              "internalType": "uint256",
              "name": "maturity",
              "type": "uint256"
            },
            {
              "internalType": "uint256",
              "name": "exerciseTime",
              "type": "uint256"
            },
            {
              "internalType": "uint256",
              "name": "amount",
              "type": "uint256"
            },
            {
              "internalType": "uint256",
              "name": "spot",
              "type": "uint256"
            },
            {
              "internalType": "uint256",
              "name": "strike",
              "type": "uint256"
            },
            {
              "internalType": "uint256",
              "name": "volatility",
              "type": "uint256"
            },
            {
              "internalType": "uint256",
              "name": "premium",
              "type": "uint256"
            },
            {
              "internalType": "uint256",
              "name": "cost",
              "type": "uint256"
            }
          ],
          "indexed": false,
          "internalType": "struct OptionLibrary.Option",
          "name": "_option",
          "type": "tuple"
        },
        {
          "indexed": false,
          "internalType": "uint256",
          "name": "_cost",
          "type": "uint256"
        },
        {
          "indexed": false,
          "internalType": "bool",
          "name": "_inVol",
          "type": "bool"
        }
      ],
      "name": "newOptionBought",
      "type": "event"
    },
    {
      "anonymous": false,
      "inputs": [
        {
          "indexed": true,
          "internalType": "address",
          "name": "_purchaser",
          "type": "address"
        },
        {
          "components": [
            {
              "internalType": "enum OptionLibrary.PayoffType",
              "name": "poType",
              "type": "uint8"
            },
            {
              "internalType": "enum OptionLibrary.OptionSide",
              "name": "side",
              "type": "uint8"
            },
            {
              "internalType": "enum OptionLibrary.OptionStatus",
              "name": "status",
              "type": "uint8"
            },
            {
              "internalType": "address",
              "name": "holder",
              "type": "address"
            },
            {
              "internalType": "uint256",
              "name": "id",
              "type": "uint256"
            },
            {
              "internalType": "uint256",
              "name": "createTime",
              "type": "uint256"
            },
            {
              "internalType": "uint256",
              "name": "effectiveTime",
              "type": "uint256"
            },
            {
              "internalType": "uint256",
              "name": "tenor",
              "type": "uint256"
            },
            {
              "internalType": "uint256",
              "name": "maturity",
              "type": "uint256"
            },
            {
              "internalType": "uint256",
              "name": "exerciseTime",
              "type": "uint256"
            },
            {
              "internalType": "uint256",
              "name": "amount",
              "type": "uint256"
            },
            {
              "internalType": "uint256",
              "name": "spot",
              "type": "uint256"
            },
            {
              "internalType": "uint256",
              "name": "strike",
              "type": "uint256"
            },
            {
              "internalType": "uint256",
              "name": "volatility",
              "type": "uint256"
            },
            {
              "internalType": "uint256",
              "name": "premium",
              "type": "uint256"
            },
            {
              "internalType": "uint256",
              "name": "cost",
              "type": "uint256"
            }
          ],
          "indexed": false,
          "internalType": "struct OptionLibrary.Option",
          "name": "_option",
          "type": "tuple"
        },
        {
          "indexed": false,
          "internalType": "uint256",
          "name": "_payoff",
          "type": "uint256"
        }
      ],
      "name": "optionExercised",
      "type": "event"
    },
    {
      "anonymous": false,
      "inputs": [
        {
          "indexed": false,
          "internalType": "address",
          "name": "_purchaser",
          "type": "address"
        },
        {
          "indexed": false,
          "internalType": "uint256",
          "name": "_time",
          "type": "uint256"
        },
        {
          "indexed": false,
          "internalType": "uint256",
          "name": "_tenor",
          "type": "uint256"
        },
        {
          "indexed": false,
          "internalType": "uint256",
          "name": "_amount",
          "type": "uint256"
        },
        {
          "indexed": false,
          "internalType": "uint256",
          "name": "_cost",
          "type": "uint256"
        }
      ],
      "name": "volatilityTokenBought",
      "type": "event"
    },
    {
      "anonymous": false,
      "inputs": [
        {
          "indexed": false,
          "internalType": "address",
          "name": "_seller",
          "type": "address"
        },
        {
          "indexed": false,
          "internalType": "uint256",
          "name": "_time",
          "type": "uint256"
        },
        {
          "indexed": false,
          "internalType": "uint256",
          "name": "_tenor",
          "type": "uint256"
        },
        {
          "indexed": false,
          "internalType": "uint256",
          "name": "_amount",
          "type": "uint256"
        },
        {
          "indexed": false,
          "internalType": "uint256",
          "name": "_cost",
          "type": "uint256"
        }
      ],
      "name": "volatilityTokenSold",
      "type": "event"
    },
    {
      "inputs": [],
      "name": "ADMIN_ROLE",
      "outputs": [
        {
          "internalType": "bytes32",
          "name": "",
          "type": "bytes32"
        }
      ],
      "stateMutability": "view",
      "type": "function",
      "constant": true
    },
    {
      "inputs": [],
      "name": "DEFAULT_ADMIN_ROLE",
      "outputs": [
        {
          "internalType": "bytes32",
          "name": "",
          "type": "bytes32"
        }
      ],
      "stateMutability": "view",
      "type": "function",
      "constant": true
    },
    {
      "inputs": [],
      "name": "allowTrading",
      "outputs": [
        {
          "internalType": "bool",
          "name": "",
          "type": "bool"
        }
      ],
      "stateMutability": "view",
      "type": "function",
      "constant": true
    },
    {
      "inputs": [
        {
          "internalType": "bytes32",
          "name": "role",
          "type": "bytes32"
        }
      ],
      "name": "getRoleAdmin",
      "outputs": [
        {
          "internalType": "bytes32",
          "name": "",
          "type": "bytes32"
        }
      ],
      "stateMutability": "view",
      "type": "function",
      "constant": true
    },
    {
      "inputs": [
        {
          "internalType": "bytes32",
          "name": "role",
          "type": "bytes32"
        },
        {
          "internalType": "address",
          "name": "account",
          "type": "address"
        }
      ],
      "name": "grantRole",
      "outputs": [],
      "stateMutability": "nonpayable",
      "type": "function"
    },
    {
      "inputs": [
        {
          "internalType": "bytes32",
          "name": "role",
          "type": "bytes32"
        },
        {
          "internalType": "address",
          "name": "account",
          "type": "address"
        }
      ],
      "name": "hasRole",
      "outputs": [
        {
          "internalType": "bool",
          "name": "",
          "type": "bool"
        }
      ],
      "stateMutability": "view",
      "type": "function",
      "constant": true
    },
    {
      "inputs": [],
      "name": "loanInterest",
      "outputs": [
        {
          "internalType": "uint256",
          "name": "",
          "type": "uint256"
        }
      ],
      "stateMutability": "view",
      "type": "function",
      "constant": true
    },
    {
      "inputs": [],
      "name": "marketMakerAddress",
      "outputs": [
        {
          "internalType": "address",
          "name": "",
          "type": "address"
        }
      ],
      "stateMutability": "view",
      "type": "function",
      "constant": true
    },
    {
      "inputs": [
        {
          "internalType": "bytes32",
          "name": "role",
          "type": "bytes32"
        },
        {
          "internalType": "address",
          "name": "account",
          "type": "address"
        }
      ],
      "name": "renounceRole",
      "outputs": [],
      "stateMutability": "nonpayable",
      "type": "function"
    },
    {
      "inputs": [
        {
          "internalType": "bytes32",
          "name": "role",
          "type": "bytes32"
        },
        {
          "internalType": "address",
          "name": "account",
          "type": "address"
        }
      ],
      "name": "revokeRole",
      "outputs": [],
      "stateMutability": "nonpayable",
      "type": "function"
    },
    {
      "inputs": [
        {
          "internalType": "bytes4",
          "name": "interfaceId",
          "type": "bytes4"
        }
      ],
      "name": "supportsInterface",
      "outputs": [
        {
          "internalType": "bool",
          "name": "",
          "type": "bool"
        }
      ],
      "stateMutability": "view",
      "type": "function",
      "constant": true
    },
    {
      "inputs": [],
      "name": "vaultAddress",
      "outputs": [
        {
          "internalType": "address",
          "name": "",
          "type": "address"
        }
      ],
      "stateMutability": "view",
      "type": "function",
      "constant": true
    },
    {
      "inputs": [],
      "name": "volCapacityFactor",
      "outputs": [
        {
          "internalType": "uint256",
          "name": "",
          "type": "uint256"
        }
      ],
      "stateMutability": "view",
      "type": "function",
      "constant": true
    },
    {
      "inputs": [
        {
          "internalType": "uint256",
          "name": "",
          "type": "uint256"
        }
      ],
      "name": "volTokenAddressList",
      "outputs": [
        {
          "internalType": "address",
          "name": "",
          "type": "address"
        }
      ],
      "stateMutability": "view",
      "type": "function",
      "constant": true
    },
    {
      "inputs": [
        {
          "internalType": "uint256",
          "name": "_tenor",
          "type": "uint256"
        },
        {
          "internalType": "uint256",
          "name": "_strike",
          "type": "uint256"
        },
        {
          "internalType": "uint256",
          "name": "_amount",
          "type": "uint256"
        },
        {
          "internalType": "enum OptionLibrary.PayoffType",
          "name": "_poType",
          "type": "uint8"
        },
        {
          "internalType": "enum OptionLibrary.OptionSide",
          "name": "_side",
          "type": "uint8"
        }
      ],
      "name": "calcCost",
      "outputs": [
        {
          "internalType": "uint256",
          "name": "",
          "type": "uint256"
        },
        {
          "internalType": "uint256",
          "name": "",
          "type": "uint256"
        },
        {
          "internalType": "uint256",
          "name": "",
          "type": "uint256"
        }
      ],
      "stateMutability": "view",
      "type": "function",
      "constant": true
    },
    {
      "inputs": [
        {
          "internalType": "uint256",
          "name": "_tenor",
          "type": "uint256"
        },
        {
          "internalType": "uint256",
          "name": "_price",
          "type": "uint256"
        },
        {
          "internalType": "uint256",
          "name": "_strike",
          "type": "uint256"
        },
        {
          "internalType": "uint256",
          "name": "_amount",
          "type": "uint256"
        },
        {
          "internalType": "enum OptionLibrary.PayoffType",
          "name": "_poType",
          "type": "uint8"
        },
        {
          "internalType": "enum OptionLibrary.OptionSide",
          "name": "_side",
          "type": "uint8"
        }
      ],
      "name": "calcOptionCost",
      "outputs": [
        {
          "internalType": "uint256",
          "name": "_premium",
          "type": "uint256"
        },
        {
          "internalType": "uint256",
          "name": "_cost",
          "type": "uint256"
        },
        {
          "internalType": "uint256",
          "name": "_vol",
          "type": "uint256"
        }
      ],
      "stateMutability": "view",
      "type": "function",
      "constant": true
    },
    {
      "inputs": [
        {
          "internalType": "uint256",
          "name": "_tenor",
          "type": "uint256"
        },
        {
          "internalType": "uint256",
          "name": "_strike",
          "type": "uint256"
        },
        {
          "internalType": "uint256",
          "name": "_amount",
          "type": "uint256"
        },
        {
          "internalType": "enum OptionLibrary.OptionSide",
          "name": "_side",
          "type": "uint8"
        }
      ],
      "name": "queryOptionVolatility",
      "outputs": [
        {
          "internalType": "uint256",
          "name": "_vol",
          "type": "uint256"
        }
      ],
      "stateMutability": "view",
      "type": "function",
      "constant": true
    },
    {
      "inputs": [
        {
          "internalType": "uint256",
          "name": "_tenor",
          "type": "uint256"
        },
        {
          "internalType": "uint256",
          "name": "_strike",
          "type": "uint256"
        },
        {
          "internalType": "uint256",
          "name": "_amount",
          "type": "uint256"
        },
        {
          "internalType": "enum OptionLibrary.PayoffType",
          "name": "_poType",
          "type": "uint8"
        },
        {
          "internalType": "enum OptionLibrary.OptionSide",
          "name": "_side",
          "type": "uint8"
        },
        {
          "internalType": "uint256",
          "name": "_payInCost",
          "type": "uint256"
        }
      ],
      "name": "purchaseOption",
      "outputs": [],
      "stateMutability": "nonpayable",
      "type": "function"
    },
    {
      "inputs": [
        {
          "internalType": "uint256",
          "name": "_id",
          "type": "uint256"
        }
      ],
      "name": "getOptionPayoffValue",
      "outputs": [
        {
          "internalType": "uint256",
          "name": "_payback",
          "type": "uint256"
        }
      ],
      "stateMutability": "view",
      "type": "function",
      "constant": true
    },
    {
      "inputs": [
        {
          "internalType": "uint256",
          "name": "_tenor",
          "type": "uint256"
        },
        {
          "internalType": "uint256",
          "name": "_amount",
          "type": "uint256"
        },
        {
          "internalType": "enum OptionLibrary.OptionSide",
          "name": "_side",
          "type": "uint8"
        }
      ],
      "name": "calcVolAmount",
      "outputs": [
        {
          "internalType": "uint256",
          "name": "_volAmount",
          "type": "uint256"
        },
        {
          "internalType": "uint256",
          "name": "_vol",
          "type": "uint256"
        },
        {
          "internalType": "uint256",
          "name": "_premium",
          "type": "uint256"
        },
        {
          "internalType": "uint256",
          "name": "_cost",
          "type": "uint256"
        },
        {
          "internalType": "uint256",
          "name": "_price",
          "type": "uint256"
        }
      ],
      "stateMutability": "view",
      "type": "function",
      "constant": true
    },
    {
      "inputs": [
        {
          "internalType": "uint256",
          "name": "_tenor",
          "type": "uint256"
        },
        {
          "internalType": "uint256",
          "name": "_amount",
          "type": "uint256"
        },
        {
          "internalType": "uint256",
          "name": "_payInCost",
          "type": "uint256"
        }
      ],
      "name": "buyVol",
      "outputs": [],
      "stateMutability": "nonpayable",
      "type": "function"
    },
    {
      "inputs": [
        {
          "internalType": "uint256",
          "name": "_tenor",
          "type": "uint256"
        },
        {
          "internalType": "uint256",
          "name": "_amount",
          "type": "uint256"
        },
        {
          "internalType": "uint256",
          "name": "_payInVol",
          "type": "uint256"
        }
      ],
      "name": "sellVol",
      "outputs": [],
      "stateMutability": "nonpayable",
      "type": "function"
    },
    {
      "inputs": [
        {
          "internalType": "uint256",
          "name": "_tenor",
          "type": "uint256"
        },
        {
          "internalType": "uint256",
          "name": "_amount",
          "type": "uint256"
        },
        {
          "internalType": "enum OptionLibrary.PayoffType",
          "name": "_poType",
          "type": "uint8"
        },
        {
          "internalType": "uint256",
          "name": "_payInVol",
          "type": "uint256"
        }
      ],
      "name": "buyOptionInVol",
      "outputs": [],
      "stateMutability": "nonpayable",
      "type": "function"
    },
    {
      "inputs": [
        {
          "internalType": "uint256",
          "name": "_tenor",
          "type": "uint256"
        },
        {
          "internalType": "uint256",
          "name": "_amount",
          "type": "uint256"
        },
        {
          "internalType": "enum OptionLibrary.PayoffType",
          "name": "_poType",
          "type": "uint8"
        },
        {
          "internalType": "uint256",
          "name": "_payInCost",
          "type": "uint256"
        }
      ],
      "name": "sellOptionInVol",
      "outputs": [],
      "stateMutability": "nonpayable",
      "type": "function"
    },
    {
      "inputs": [
        {
          "internalType": "uint256",
          "name": "_tenor",
          "type": "uint256"
        },
        {
          "internalType": "address",
          "name": "_tokenAddress",
          "type": "address"
        }
      ],
      "name": "addVolToken",
      "outputs": [],
      "stateMutability": "nonpayable",
      "type": "function"
    },
    {
      "inputs": [
        {
          "internalType": "uint256",
          "name": "_tenor",
          "type": "uint256"
        }
      ],
      "name": "removeVolToken",
      "outputs": [],
      "stateMutability": "nonpayable",
      "type": "function"
    },
    {
      "inputs": [
        {
          "internalType": "uint256",
          "name": "_loanInterest",
          "type": "uint256"
        }
      ],
      "name": "resetLoanRate",
      "outputs": [],
      "stateMutability": "nonpayable",
      "type": "function"
    },
    {
      "inputs": [
        {
          "internalType": "uint256",
          "name": "_newFactor",
          "type": "uint256"
        }
      ],
      "name": "resetVolCapacityFactor",
      "outputs": [],
      "stateMutability": "nonpayable",
      "type": "function"
    },
    {
      "inputs": [
        {
          "internalType": "bool",
          "name": "_allowTrading",
          "type": "bool"
        }
      ],
      "name": "resetTrading",
      "outputs": [],
      "stateMutability": "nonpayable",
      "type": "function"
    }
  ],
  "bytecode": "0x60806040526706f05b59d3b2000060065560006007556001600860006101000a81548160ff0219169083151502179055503480156200003d57600080fd5b506040516200590f3803806200590f833981810160405281019062000063919062000399565b620000786000801b33620001b660201b60201c565b620000aa7fa49807205ce4d355092ef5a8a18f56e8913cf4a201fbe287825b095693c2177533620001b660201b60201c565b80600160006101000a81548173ffffffffffffffffffffffffffffffffffffffff021916908373ffffffffffffffffffffffffffffffffffffffff16021790555080600560006101000a81548173ffffffffffffffffffffffffffffffffffffffff021916908373ffffffffffffffffffffffffffffffffffffffff16021790555081600260006101000a81548173ffffffffffffffffffffffffffffffffffffffff021916908373ffffffffffffffffffffffffffffffffffffffff16021790555081600460006101000a81548173ffffffffffffffffffffffffffffffffffffffff021916908373ffffffffffffffffffffffffffffffffffffffff1602179055505050620003e0565b620001c88282620001cc60201b60201c565b5050565b620001de8282620002bd60201b60201c565b620002b957600160008084815260200190815260200160002060000160008373ffffffffffffffffffffffffffffffffffffffff1673ffffffffffffffffffffffffffffffffffffffff16815260200190815260200160002060006101000a81548160ff0219169083151502179055506200025e6200032760201b60201c565b73ffffffffffffffffffffffffffffffffffffffff168173ffffffffffffffffffffffffffffffffffffffff16837f2f8788117e7eff1d82e926ec794901d17c78024a50270940304540a733656f0d60405160405180910390a45b5050565b600080600084815260200190815260200160002060000160008373ffffffffffffffffffffffffffffffffffffffff1673ffffffffffffffffffffffffffffffffffffffff16815260200190815260200160002060009054906101000a900460ff16905092915050565b600033905090565b600080fd5b600073ffffffffffffffffffffffffffffffffffffffff82169050919050565b6000620003618262000334565b9050919050565b620003738162000354565b81146200037f57600080fd5b50565b600081519050620003938162000368565b92915050565b60008060408385031215620003b357620003b26200032f565b5b6000620003c38582860162000382565b9250506020620003d68582860162000382565b9150509250929050565b61551f80620003f06000396000f3fe608060405234801561001057600080fd5b50600436106101cf5760003560e01c80636a7d116f11610104578063a34a1e4d116100a2578063dab2432911610071578063dab2432914610530578063dbfed7831461054c578063e327c24814610568578063edf0bec61461059a576101cf565b8063a34a1e4d146104bc578063a7292ea4146104d8578063cc910588146104f6578063d547741f14610514576101cf565b806375b8452b116100de57806375b8452b1461041e5780638d4939c61461045257806391d148541461046e578063a217fddf1461049e576101cf565b80636a7d116f146103b45780637188157e146103e457806375b238fc14610400576101cf565b80632f2ff15d11610171578063430bf08a1161014b578063430bf08a1461032c5780634b7a58fb1461034a5780634d937da91461036657806368fefdfb14610382576101cf565b80632f2ff15d146102c457806336568abe146102e057806340d6eaab146102fc576101cf565b80630f902618116101ad5780630f9026181461023c578063130dab6a1461025a578063248a9ca3146102765780632e5b4c43146102a6576101cf565b806301ffc9a7146101d45780630227ac83146102045780630c64307d14610220575b600080fd5b6101ee60048036038101906101e9919061395e565b6105ca565b6040516101fb91906139a6565b60405180910390f35b61021e60048036038101906102199190613a55565b610644565b005b61023a60048036038101906102359190613a95565b6108ec565b005b610244610929565b6040516102519190613ad1565b60405180910390f35b610274600480360381019061026f9190613a95565b61092f565b005b610290600480360381019061028b9190613b22565b6109b8565b60405161029d9190613b5e565b60405180910390f35b6102ae6109d7565b6040516102bb91906139a6565b60405180910390f35b6102de60048036038101906102d99190613b79565b6109ea565b005b6102fa60048036038101906102f59190613b79565b610a13565b005b61031660048036038101906103119190613a95565b610a96565b6040516103239190613ad1565b60405180910390f35b610334610b3e565b6040516103419190613bc8565b60405180910390f35b610364600480360381019061035f9190613be3565b610b64565b005b610380600480360381019061037b9190613c5b565b610e41565b005b61039c60048036038101906103979190613ce7565b6114a1565b6040516103ab93929190613d62565b60405180910390f35b6103ce60048036038101906103c99190613d99565b61155a565b6040516103db9190613ad1565b60405180910390f35b6103fe60048036038101906103f99190613c5b565b61185e565b005b610408611ea8565b6040516104159190613b5e565b60405180910390f35b61043860048036038101906104339190613e00565b611ecc565b604051610449959493929190613e53565b60405180910390f35b61046c60048036038101906104679190613ed2565b612156565b005b61048860048036038101906104839190613b79565b612189565b60405161049591906139a6565b60405180910390f35b6104a66121f3565b6040516104b39190613b5e565b60405180910390f35b6104d660048036038101906104d19190613eff565b6121fa565b005b6104e06126ea565b6040516104ed9190613ad1565b60405180910390f35b6104fe6126f0565b60405161050b9190613bc8565b60405180910390f35b61052e60048036038101906105299190613b79565b612716565b005b61054a60048036038101906105459190613be3565b61273f565b005b61056660048036038101906105619190613a95565b612b66565b005b610582600480360381019061057d9190613f8c565b612ba3565b60405161059193929190613d62565b60405180910390f35b6105b460048036038101906105af9190613a95565b612e7b565b6040516105c19190613bc8565b60405180910390f35b60007f7965db0b000000000000000000000000000000000000000000000000000000007bffffffffffffffffffffffffffffffffffffffffffffffffffffffff1916827bffffffffffffffffffffffffffffffffffffffffffffffffffffffff1916148061063d575061063c82612eae565b5b9050919050565b7fa49807205ce4d355092ef5a8a18f56e8913cf4a201fbe287825b095693c2177561067681610671612f18565b612f20565b826003600085815260200190815260200160002060009054906101000a900473ffffffffffffffffffffffffffffffffffffffff1673ffffffffffffffffffffffffffffffffffffffff1663a15612d16040518163ffffffff1660e01b8152600401602060405180830381865afa1580156106f5573d6000803e3d6000fd5b505050506040513d601f19601f82011682018060405250810190610719919061402e565b1480156108565750600560009054906101000a900473ffffffffffffffffffffffffffffffffffffffff1673ffffffffffffffffffffffffffffffffffffffff1663cca494736040518163ffffffff1660e01b8152600401602060405180830381865afa15801561078e573d6000803e3d6000fd5b505050506040513d601f19601f820116820180604052508101906107b29190614070565b6003600085815260200190815260200160002060009054906101000a900473ffffffffffffffffffffffffffffffffffffffff1673ffffffffffffffffffffffffffffffffffffffff1663cca494736040518163ffffffff1660e01b8152600401602060405180830381865afa158015610830573d6000803e3d6000fd5b505050506040513d601f19601f820116820180604052508101906108549190614070565b145b610895576040517f08c379a000000000000000000000000000000000000000000000000000000000815260040161088c906140fa565b60405180910390fd5b816003600085815260200190815260200160002060006101000a81548173ffffffffffffffffffffffffffffffffffffffff021916908373ffffffffffffffffffffffffffffffffffffffff160217905550505050565b7fa49807205ce4d355092ef5a8a18f56e8913cf4a201fbe287825b095693c2177561091e81610919612f18565b612f20565b816007819055505050565b60065481565b7fa49807205ce4d355092ef5a8a18f56e8913cf4a201fbe287825b095693c217756109618161095c612f18565b612f20565b60006003600084815260200190815260200160002060006101000a81548173ffffffffffffffffffffffffffffffffffffffff021916908373ffffffffffffffffffffffffffffffffffffffff1602179055505050565b6000806000838152602001908152602001600020600101549050919050565b600860009054906101000a900460ff1681565b6109f3826109b8565b610a04816109ff612f18565b612f20565b610a0e8383612fbd565b505050565b610a1b612f18565b73ffffffffffffffffffffffffffffffffffffffff168173ffffffffffffffffffffffffffffffffffffffff1614610a88576040517f08c379a0000000000000000000000000000000000000000000000000000000008152600401610a7f9061418c565b60405180910390fd5b610a92828261309d565b5050565b6000600560009054906101000a900473ffffffffffffffffffffffffffffffffffffffff1673ffffffffffffffffffffffffffffffffffffffff166385ae10e6836040518263ffffffff1660e01b8152600401610af39190613ad1565b6040805180830381865afa158015610b0f573d6000803e3d6000fd5b505050506040513d601f19601f82011682018060405250810190610b3391906141ac565b905080915050919050565b600160009054906101000a900473ffffffffffffffffffffffffffffffffffffffff1681565b600860009054906101000a900460ff16610bb3576040517f08c379a0000000000000000000000000000000000000000000000000000000008152600401610baa90614238565b60405180910390fd5b600080610bc285856000611ecc565b5050925050915080831015610c0c576040517f08c379a0000000000000000000000000000000000000000000000000000000008152600401610c03906142a4565b60405180910390fd5b600560009054906101000a900473ffffffffffffffffffffffffffffffffffffffff1673ffffffffffffffffffffffffffffffffffffffff1663cb4c86b76040518163ffffffff1660e01b8152600401602060405180830381865afa158015610c79573d6000803e3d6000fd5b505050506040513d601f19601f82011682018060405250810190610c9d91906142d9565b73ffffffffffffffffffffffffffffffffffffffff166323b872dd3330846040518463ffffffff1660e01b8152600401610cd993929190614306565b6020604051808303816000875af1158015610cf8573d6000803e3d6000fd5b505050506040513d601f19601f82011682018060405250810190610d1c9190614352565b610d5b576040517f08c379a0000000000000000000000000000000000000000000000000000000008152600401610d52906143cb565b60405180910390fd5b6003600086815260200190815260200160002060009054906101000a900473ffffffffffffffffffffffffffffffffffffffff1673ffffffffffffffffffffffffffffffffffffffff166340c10f1933846040518363ffffffff1660e01b8152600401610dc99291906143eb565b600060405180830381600087803b158015610de357600080fd5b505af1158015610df7573d6000803e3d6000fd5b505050507f41d69e33fd598418aa9a6a5462a34bc55033968f3e4060ef4721e770058cbbb93342878585604051610e32959493929190614414565b60405180910390a15050505050565b600860009054906101000a900460ff16610e90576040517f08c379a0000000000000000000000000000000000000000000000000000000008152600401610e8790614238565b60405180910390fd5b6000806000806000610ea489896001611ecc565b9450945094509450945060008284610ebc9190614496565b905080871015610f01576040517f08c379a0000000000000000000000000000000000000000000000000000000008152600401610ef8906142a4565b60405180910390fd5b600560009054906101000a900473ffffffffffffffffffffffffffffffffffffffff1673ffffffffffffffffffffffffffffffffffffffff1663cb4c86b76040518163ffffffff1660e01b8152600401602060405180830381865afa158015610f6e573d6000803e3d6000fd5b505050506040513d601f19601f82011682018060405250810190610f9291906142d9565b73ffffffffffffffffffffffffffffffffffffffff166323b872dd33600260009054906101000a900473ffffffffffffffffffffffffffffffffffffffff16866040518463ffffffff1660e01b8152600401610ff093929190614306565b6020604051808303816000875af115801561100f573d6000803e3d6000fd5b505050506040513d601f19601f820116820180604052508101906110339190614352565b611072576040517f08c379a000000000000000000000000000000000000000000000000000000000815260040161106990614538565b60405180910390fd5b600560009054906101000a900473ffffffffffffffffffffffffffffffffffffffff1673ffffffffffffffffffffffffffffffffffffffff1663cb4c86b76040518163ffffffff1660e01b8152600401602060405180830381865afa1580156110df573d6000803e3d6000fd5b505050506040513d601f19601f8201168201806040525081019061110391906142d9565b73ffffffffffffffffffffffffffffffffffffffff166323b872dd3330876040518463ffffffff1660e01b815260040161113f93929190614306565b6020604051808303816000875af115801561115e573d6000803e3d6000fd5b505050506040513d601f19601f820116820180604052508101906111829190614352565b6111c1576040517f08c379a00000000000000000000000000000000000000000000000000000000081526004016111b890614538565b60405180910390fd5b6000600560009054906101000a900473ffffffffffffffffffffffffffffffffffffffff1673ffffffffffffffffffffffffffffffffffffffff1663b5310ff98c858d8d60018b8b8b8f336040518b63ffffffff1660e01b81526004016112319a99989796959493929190614617565b6020604051808303816000875af1158015611250573d6000803e3d6000fd5b505050506040513d601f19601f82011682018060405250810190611274919061402e565b9050600360008c815260200190815260200160002060009054906101000a900473ffffffffffffffffffffffffffffffffffffffff1673ffffffffffffffffffffffffffffffffffffffff166340c10f1933896040518363ffffffff1660e01b81526004016112e49291906143eb565b600060405180830381600087803b1580156112fe57600080fd5b505af1158015611312573d6000803e3d6000fd5b50505050600560009054906101000a900473ffffffffffffffffffffffffffffffffffffffff1673ffffffffffffffffffffffffffffffffffffffff166324b4110e82336040518363ffffffff1660e01b81526004016113739291906146b3565b600060405180830381600087803b15801561138d57600080fd5b505af11580156113a1573d6000803e3d6000fd5b505050503373ffffffffffffffffffffffffffffffffffffffff167f639bcb68083836b73ad6cd444bd790e8421c4b363635459fbfff715dc24fa855600560009054906101000a900473ffffffffffffffffffffffffffffffffffffffff1673ffffffffffffffffffffffffffffffffffffffff16631ce5e9a6846040518263ffffffff1660e01b81526004016114389190613ad1565b61020060405180830381865afa158015611456573d6000803e3d6000fd5b505050506040513d601f19601f8201168201806040525081019061147a9190614936565b89600160405161148c93929190614b32565b60405180910390a25050505050505050505050565b600080600080600560009054906101000a900473ffffffffffffffffffffffffffffffffffffffff1673ffffffffffffffffffffffffffffffffffffffff1663b0667cf86040518163ffffffff1660e01b81526004016040805180830381865afa158015611513573d6000803e3d6000fd5b505050506040513d601f19601f8201168201806040525081019061153791906141ac565b50905061154889828a8a8a8a612ba3565b93509350935050955095509592505050565b6000600560009054906101000a900473ffffffffffffffffffffffffffffffffffffffff1673ffffffffffffffffffffffffffffffffffffffff1663cfc2dc20866040518263ffffffff1660e01b81526004016115b79190613ad1565b602060405180830381865afa1580156115d4573d6000803e3d6000fd5b505050506040513d601f19601f820116820180604052508101906115f8919061402e565b90506000600560009054906101000a900473ffffffffffffffffffffffffffffffffffffffff1673ffffffffffffffffffffffffffffffffffffffff1663b0667cf86040518163ffffffff1660e01b81526004016040805180830381865afa158015611668573d6000803e3d6000fd5b505050506040513d601f19601f8201168201806040525081019061168c91906141ac565b509050600460009054906101000a900473ffffffffffffffffffffffffffffffffffffffff1673ffffffffffffffffffffffffffffffffffffffff166363447902600160006040518363ffffffff1660e01b81526004016116ee929190614b6c565b602060405180830381865afa15801561170b573d6000803e3d6000fd5b505050506040513d601f19601f8201168201806040525081019061172f919061402e565b6117a6858373__OptionLibrary_________________________63fd9b87636040518163ffffffff1660e01b8152600401602060405180830381865af415801561177d573d6000803e3d6000fd5b505050506040513d601f19601f820116820180604052508101906117a1919061402e565b61317e565b11156117e7576040517f08c379a00000000000000000000000000000000000000000000000000000000081526004016117de90614be1565b60405180910390fd5b60006117f6828488888861327a565b9050600081846118069190614c0b565b13611846576040517f08c379a000000000000000000000000000000000000000000000000000000000815260040161183d90614ceb565b60405180910390fd5b80836118529190614c0b565b92505050949350505050565b600860009054906101000a900460ff166118ad576040517f08c379a00000000000000000000000000000000000000000000000000000000081526004016118a490614238565b60405180910390fd5b60008060008060006118c189896000611ecc565b945094509450945094508486101561190e576040517f08c379a0000000000000000000000000000000000000000000000000000000008152600401611905906142a4565b60405180910390fd5b82600560009054906101000a900473ffffffffffffffffffffffffffffffffffffffff1673ffffffffffffffffffffffffffffffffffffffff1663cb4c86b76040518163ffffffff1660e01b8152600401602060405180830381865afa15801561197c573d6000803e3d6000fd5b505050506040513d601f19601f820116820180604052508101906119a091906142d9565b73ffffffffffffffffffffffffffffffffffffffff166370a08231306040518263ffffffff1660e01b81526004016119d89190613bc8565b602060405180830381865afa1580156119f5573d6000803e3d6000fd5b505050506040513d601f19601f82011682018060405250810190611a19919061402e565b1015611a5a576040517f08c379a0000000000000000000000000000000000000000000000000000000008152600401611a5190614d57565b60405180910390fd5b600360008a815260200190815260200160002060009054906101000a900473ffffffffffffffffffffffffffffffffffffffff1673ffffffffffffffffffffffffffffffffffffffff16639dc29fac33876040518363ffffffff1660e01b8152600401611ac89291906143eb565b600060405180830381600087803b158015611ae257600080fd5b505af1158015611af6573d6000803e3d6000fd5b505050506000600560009054906101000a900473ffffffffffffffffffffffffffffffffffffffff1673ffffffffffffffffffffffffffffffffffffffff1663b5310ff98b848c8c60008a8a8a8e336040518b63ffffffff1660e01b8152600401611b6a9a99989796959493929190614617565b6020604051808303816000875af1158015611b89573d6000803e3d6000fd5b505050506040513d601f19601f82011682018060405250810190611bad919061402e565b9050600560009054906101000a900473ffffffffffffffffffffffffffffffffffffffff1673ffffffffffffffffffffffffffffffffffffffff1663cb4c86b76040518163ffffffff1660e01b8152600401602060405180830381865afa158015611c1c573d6000803e3d6000fd5b505050506040513d601f19601f82011682018060405250810190611c4091906142d9565b73ffffffffffffffffffffffffffffffffffffffff1663a9059cbb600260009054906101000a900473ffffffffffffffffffffffffffffffffffffffff16866040518363ffffffff1660e01b8152600401611c9c9291906143eb565b6020604051808303816000875af1158015611cbb573d6000803e3d6000fd5b505050506040513d601f19601f82011682018060405250810190611cdf9190614352565b611d1e576040517f08c379a0000000000000000000000000000000000000000000000000000000008152600401611d1590614538565b60405180910390fd5b600560009054906101000a900473ffffffffffffffffffffffffffffffffffffffff1673ffffffffffffffffffffffffffffffffffffffff166324b4110e82336040518363ffffffff1660e01b8152600401611d7b9291906146b3565b600060405180830381600087803b158015611d9557600080fd5b505af1158015611da9573d6000803e3d6000fd5b505050503373ffffffffffffffffffffffffffffffffffffffff167f639bcb68083836b73ad6cd444bd790e8421c4b363635459fbfff715dc24fa855600560009054906101000a900473ffffffffffffffffffffffffffffffffffffffff1673ffffffffffffffffffffffffffffffffffffffff16631ce5e9a6846040518263ffffffff1660e01b8152600401611e409190613ad1565b61020060405180830381865afa158015611e5e573d6000803e3d6000fd5b505050506040513d601f19601f82011682018060405250810190611e829190614936565b886001604051611e9493929190614b32565b60405180910390a250505050505050505050565b7fa49807205ce4d355092ef5a8a18f56e8913cf4a201fbe287825b095693c2177581565b60008060008060008073ffffffffffffffffffffffffffffffffffffffff16600360008a815260200190815260200160002060009054906101000a900473ffffffffffffffffffffffffffffffffffffffff1673ffffffffffffffffffffffffffffffffffffffff161415611f76576040517f08c379a0000000000000000000000000000000000000000000000000000000008152600401611f6d90614dc3565b60405180910390fd5b600560009054906101000a900473ffffffffffffffffffffffffffffffffffffffff1673ffffffffffffffffffffffffffffffffffffffff1663b0667cf86040518163ffffffff1660e01b81526004016040805180830381865afa158015611fe2573d6000803e3d6000fd5b505050506040513d601f19601f8201168201806040525081019061200691906141ac565b508091505061201a8882838a60008b612ba3565b80965081945082955050505073__MarketLibrary_________________________638170ce806120b78573__OptionLibrary_________________________63fd9b87636040518163ffffffff1660e01b8152600401602060405180830381865af415801561208d573d6000803e3d6000fd5b505050506040513d601f19601f820116820180604052508101906120b1919061402e565b8861317e565b600360008c815260200190815260200160002060009054906101000a900473ffffffffffffffffffffffffffffffffffffffff166040518363ffffffff1660e01b8152600401612108929190614e01565b602060405180830381865af4158015612125573d6000803e3d6000fd5b505050506040513d601f19601f82011682018060405250810190612149919061402e565b9450939792965093509350565b6000801b61216b81612166612f18565b612f20565b81600860006101000a81548160ff0219169083151502179055505050565b600080600084815260200190815260200160002060000160008373ffffffffffffffffffffffffffffffffffffffff1673ffffffffffffffffffffffffffffffffffffffff16815260200190815260200160002060009054906101000a900460ff16905092915050565b6000801b81565b600860009054906101000a900460ff16612249576040517f08c379a000000000000000000000000000000000000000000000000000000000815260040161224090614238565b60405180910390fd5b6000600560009054906101000a900473ffffffffffffffffffffffffffffffffffffffff1673ffffffffffffffffffffffffffffffffffffffff1663b0667cf86040518163ffffffff1660e01b81526004016040805180830381865afa1580156122b7573d6000803e3d6000fd5b505050506040513d601f19601f820116820180604052508101906122db91906141ac565b50905060008060006122f18a858b8b8b8b612ba3565b9250925092508185101561233a576040517f08c379a000000000000000000000000000000000000000000000000000000000815260040161233190614e76565b60405180910390fd5b6000600560009054906101000a900473ffffffffffffffffffffffffffffffffffffffff1673ffffffffffffffffffffffffffffffffffffffff1663b5310ff98c8c8c8c8c8a8a8d8b336040518b63ffffffff1660e01b81526004016123a99a99989796959493929190614617565b6020604051808303816000875af11580156123c8573d6000803e3d6000fd5b505050506040513d601f19601f820116820180604052508101906123ec919061402e565b9050600560009054906101000a900473ffffffffffffffffffffffffffffffffffffffff1673ffffffffffffffffffffffffffffffffffffffff1663cb4c86b76040518163ffffffff1660e01b8152600401602060405180830381865afa15801561245b573d6000803e3d6000fd5b505050506040513d601f19601f8201168201806040525081019061247f91906142d9565b73ffffffffffffffffffffffffffffffffffffffff166323b872dd33600260009054906101000a900473ffffffffffffffffffffffffffffffffffffffff16896040518463ffffffff1660e01b81526004016124dd93929190614306565b6020604051808303816000875af11580156124fc573d6000803e3d6000fd5b505050506040513d601f19601f820116820180604052508101906125209190614352565b61255f576040517f08c379a000000000000000000000000000000000000000000000000000000000815260040161255690614ee2565b60405180910390fd5b600560009054906101000a900473ffffffffffffffffffffffffffffffffffffffff1673ffffffffffffffffffffffffffffffffffffffff166324b4110e82336040518363ffffffff1660e01b81526004016125bc9291906146b3565b600060405180830381600087803b1580156125d657600080fd5b505af11580156125ea573d6000803e3d6000fd5b505050503373ffffffffffffffffffffffffffffffffffffffff167f639bcb68083836b73ad6cd444bd790e8421c4b363635459fbfff715dc24fa855600560009054906101000a900473ffffffffffffffffffffffffffffffffffffffff1673ffffffffffffffffffffffffffffffffffffffff16631ce5e9a6846040518263ffffffff1660e01b81526004016126819190613ad1565b61020060405180830381865afa15801561269f573d6000803e3d6000fd5b505050506040513d601f19601f820116820180604052508101906126c39190614936565b8860006040516126d593929190614b32565b60405180910390a25050505050505050505050565b60075481565b600260009054906101000a900473ffffffffffffffffffffffffffffffffffffffff1681565b61271f826109b8565b6127308161272b612f18565b612f20565b61273a838361309d565b505050565b600860009054906101000a900460ff1661278e576040517f08c379a000000000000000000000000000000000000000000000000000000000815260040161278590614238565b60405180910390fd5b60008061279d85856001611ecc565b50509250509150818310156127e7576040517f08c379a00000000000000000000000000000000000000000000000000000000081526004016127de906142a4565b60405180910390fd5b80600560009054906101000a900473ffffffffffffffffffffffffffffffffffffffff1673ffffffffffffffffffffffffffffffffffffffff1663cb4c86b76040518163ffffffff1660e01b8152600401602060405180830381865afa158015612855573d6000803e3d6000fd5b505050506040513d601f19601f8201168201806040525081019061287991906142d9565b73ffffffffffffffffffffffffffffffffffffffff166370a08231306040518263ffffffff1660e01b81526004016128b19190613bc8565b602060405180830381865afa1580156128ce573d6000803e3d6000fd5b505050506040513d601f19601f820116820180604052508101906128f2919061402e565b1015612933576040517f08c379a000000000000000000000000000000000000000000000000000000000815260040161292a90614d57565b60405180910390fd5b6003600086815260200190815260200160002060009054906101000a900473ffffffffffffffffffffffffffffffffffffffff1673ffffffffffffffffffffffffffffffffffffffff16639dc29fac33846040518363ffffffff1660e01b81526004016129a19291906143eb565b600060405180830381600087803b1580156129bb57600080fd5b505af11580156129cf573d6000803e3d6000fd5b50505050600560009054906101000a900473ffffffffffffffffffffffffffffffffffffffff1673ffffffffffffffffffffffffffffffffffffffff1663cb4c86b76040518163ffffffff1660e01b8152600401602060405180830381865afa158015612a40573d6000803e3d6000fd5b505050506040513d601f19601f82011682018060405250810190612a6491906142d9565b73ffffffffffffffffffffffffffffffffffffffff1663a9059cbb33836040518363ffffffff1660e01b8152600401612a9e9291906143eb565b6020604051808303816000875af1158015612abd573d6000803e3d6000fd5b505050506040513d601f19601f82011682018060405250810190612ae19190614352565b612b20576040517f08c379a0000000000000000000000000000000000000000000000000000000008152600401612b1790614538565b60405180910390fd5b7f78dd81a4822884ab6551f5b2dd2a9718e78d150f1a178a3a5bdf9ed45d81c1c83342878585604051612b57959493929190614414565b60405180910390a15050505050565b7fa49807205ce4d355092ef5a8a18f56e8913cf4a201fbe287825b095693c21775612b9881612b93612f18565b612f20565b816006819055505050565b6000806000612bb48988888761155a565b90506000612bc96007548b6301e1338061317e565b905073__OptionLibrary_________________________63cf15ea298a8a8a868b8b886040518863ffffffff1660e01b8152600401612c0e9796959493929190614f20565b6040805180830381865af4158015612c2a573d6000803e3d6000fd5b505050506040513d601f19601f82011682018060405250810190612c4e91906141ac565b809450819550505073__MarketLibrary_________________________638170ce8085600560009054906101000a900473ffffffffffffffffffffffffffffffffffffffff1673ffffffffffffffffffffffffffffffffffffffff1663cb4c86b76040518163ffffffff1660e01b8152600401602060405180830381865afa158015612cde573d6000803e3d6000fd5b505050506040513d601f19601f82011682018060405250810190612d0291906142d9565b6040518363ffffffff1660e01b8152600401612d1f929190614e01565b602060405180830381865af4158015612d3c573d6000803e3d6000fd5b505050506040513d601f19601f82011682018060405250810190612d60919061402e565b935073__MarketLibrary_________________________638170ce8084600560009054906101000a900473ffffffffffffffffffffffffffffffffffffffff1673ffffffffffffffffffffffffffffffffffffffff1663cb4c86b76040518163ffffffff1660e01b8152600401602060405180830381865afa158015612dea573d6000803e3d6000fd5b505050506040513d601f19601f82011682018060405250810190612e0e91906142d9565b6040518363ffffffff1660e01b8152600401612e2b929190614e01565b602060405180830381865af4158015612e48573d6000803e3d6000fd5b505050506040513d601f19601f82011682018060405250810190612e6c919061402e565b92505096509650969350505050565b60036020528060005260406000206000915054906101000a900473ffffffffffffffffffffffffffffffffffffffff1681565b60007f01ffc9a7000000000000000000000000000000000000000000000000000000007bffffffffffffffffffffffffffffffffffffffffffffffffffffffff1916827bffffffffffffffffffffffffffffffffffffffffffffffffffffffff1916149050919050565b600033905090565b612f2a8282612189565b612fb957612f4f8173ffffffffffffffffffffffffffffffffffffffff1660146136bb565b612f5d8360001c60206136bb565b604051602001612f6e9291906150a1565b6040516020818303038152906040526040517f08c379a0000000000000000000000000000000000000000000000000000000008152600401612fb09190615114565b60405180910390fd5b5050565b612fc78282612189565b61309957600160008084815260200190815260200160002060000160008373ffffffffffffffffffffffffffffffffffffffff1673ffffffffffffffffffffffffffffffffffffffff16815260200190815260200160002060006101000a81548160ff02191690831515021790555061303e612f18565b73ffffffffffffffffffffffffffffffffffffffff168173ffffffffffffffffffffffffffffffffffffffff16837f2f8788117e7eff1d82e926ec794901d17c78024a50270940304540a733656f0d60405160405180910390a45b5050565b6130a78282612189565b1561317a57600080600084815260200190815260200160002060000160008373ffffffffffffffffffffffffffffffffffffffff1673ffffffffffffffffffffffffffffffffffffffff16815260200190815260200160002060006101000a81548160ff02191690831515021790555061311f612f18565b73ffffffffffffffffffffffffffffffffffffffff168173ffffffffffffffffffffffffffffffffffffffff16837ff6391f5c32d9c69d2a47ea670b442974b53935d1edc7fd64eb21e047a839171b60405160405180910390a45b5050565b6000806000801985870985870292508281108382030391505060008114156131b957600084116131ad57600080fd5b83820492505050613273565b8084116131c557600080fd5b60008486880990508281118203915080830392506000856001877fffffffffffffffffffffffffffffffffffffffffffffffffffffffffffffffff0301169050808604955080840493506001818260000304019050808302841793506000600287600302189050808702600203810290508087026002038102905080870260020381029050808702600203810290508087026002038102905080870260020381029050808502955050505050505b9392505050565b6000806133a173__OptionLibrary_________________________639932b2be898a8a6040518463ffffffff1660e01b81526004016132bb93929190615136565b602060405180830381865af41580156132d8573d6000803e3d6000fd5b505050506040513d601f19601f820116820180604052508101906132fc919061402e565b600460009054906101000a900473ffffffffffffffffffffffffffffffffffffffff1673ffffffffffffffffffffffffffffffffffffffff1663634479026000806040518363ffffffff1660e01b815260040161335a929190614b6c565b602060405180830381865afa158015613377573d6000803e3d6000fd5b505050506040513d601f19601f8201168201806040525081019061339b919061402e565b8961317e565b90506000600560009054906101000a900473ffffffffffffffffffffffffffffffffffffffff1673ffffffffffffffffffffffffffffffffffffffff16636fe440316040518163ffffffff1660e01b8152600401602060405180830381865afa158015613412573d6000803e3d6000fd5b505050506040513d601f19601f820116820180604052508101906134369190615199565b9050600060018081111561344d5761344c614558565b5b8560018111156134605761345f614558565b5b1461346c57600161348e565b7fffffffffffffffffffffffffffffffffffffffffffffffffffffffffffffffff5b61358073__OptionLibrary_________________________639932b2be8c8b8d6040518463ffffffff1660e01b81526004016134cc93929190615136565b602060405180830381865af41580156134e9573d6000803e3d6000fd5b505050506040513d601f19601f8201168201806040525081019061350d919061402e565b8873__OptionLibrary_________________________63fd9b87636040518163ffffffff1660e01b8152600401602060405180830381865af4158015613557573d6000803e3d6000fd5b505050506040513d601f19601f8201168201806040525081019061357b919061402e565b61317e565b61358a91906151c6565b826135959190614c0b565b9050600273__OptionLibrary_________________________63fcc14dfd85848c6006546040518563ffffffff1660e01b81526004016135d894939291906152ec565b602060405180830381865af41580156135f5573d6000803e3d6000fd5b505050506040513d601f19601f820116820180604052508101906136199190615199565b73__OptionLibrary_________________________63fcc14dfd86868d6006546040518563ffffffff1660e01b815260040161365894939291906152ec565b602060405180830381865af4158015613675573d6000803e3d6000fd5b505050506040513d601f19601f820116820180604052508101906136999190615199565b6136a39190614c0b565b6136ad9190615360565b935050505095945050505050565b6060600060028360026136ce91906153ca565b6136d89190614496565b67ffffffffffffffff8111156136f1576136f06146f2565b5b6040519080825280601f01601f1916602001820160405280156137235781602001600182028036833780820191505090505b5090507f30000000000000000000000000000000000000000000000000000000000000008160008151811061375b5761375a615424565b5b60200101907effffffffffffffffffffffffffffffffffffffffffffffffffffffffffffff1916908160001a9053507f7800000000000000000000000000000000000000000000000000000000000000816001815181106137bf576137be615424565b5b60200101907effffffffffffffffffffffffffffffffffffffffffffffffffffffffffffff1916908160001a905350600060018460026137ff91906153ca565b6138099190614496565b90505b60018111156138a9577f3031323334353637383961626364656600000000000000000000000000000000600f86166010811061384b5761384a615424565b5b1a60f81b82828151811061386257613861615424565b5b60200101907effffffffffffffffffffffffffffffffffffffffffffffffffffffffffffff1916908160001a905350600485901c9450806138a290615453565b905061380c565b50600084146138ed576040517f08c379a00000000000000000000000000000000000000000000000000000000081526004016138e4906154c9565b60405180910390fd5b8091505092915050565b6000604051905090565b600080fd5b60007fffffffff0000000000000000000000000000000000000000000000000000000082169050919050565b61393b81613906565b811461394657600080fd5b50565b60008135905061395881613932565b92915050565b60006020828403121561397457613973613901565b5b600061398284828501613949565b91505092915050565b60008115159050919050565b6139a08161398b565b82525050565b60006020820190506139bb6000830184613997565b92915050565b6000819050919050565b6139d4816139c1565b81146139df57600080fd5b50565b6000813590506139f1816139cb565b92915050565b600073ffffffffffffffffffffffffffffffffffffffff82169050919050565b6000613a22826139f7565b9050919050565b613a3281613a17565b8114613a3d57600080fd5b50565b600081359050613a4f81613a29565b92915050565b60008060408385031215613a6c57613a6b613901565b5b6000613a7a858286016139e2565b9250506020613a8b85828601613a40565b9150509250929050565b600060208284031215613aab57613aaa613901565b5b6000613ab9848285016139e2565b91505092915050565b613acb816139c1565b82525050565b6000602082019050613ae66000830184613ac2565b92915050565b6000819050919050565b613aff81613aec565b8114613b0a57600080fd5b50565b600081359050613b1c81613af6565b92915050565b600060208284031215613b3857613b37613901565b5b6000613b4684828501613b0d565b91505092915050565b613b5881613aec565b82525050565b6000602082019050613b736000830184613b4f565b92915050565b60008060408385031215613b9057613b8f613901565b5b6000613b9e85828601613b0d565b9250506020613baf85828601613a40565b9150509250929050565b613bc281613a17565b82525050565b6000602082019050613bdd6000830184613bb9565b92915050565b600080600060608486031215613bfc57613bfb613901565b5b6000613c0a868287016139e2565b9350506020613c1b868287016139e2565b9250506040613c2c868287016139e2565b9150509250925092565b60028110613c4357600080fd5b50565b600081359050613c5581613c36565b92915050565b60008060008060808587031215613c7557613c74613901565b5b6000613c83878288016139e2565b9450506020613c94878288016139e2565b9350506040613ca587828801613c46565b9250506060613cb6878288016139e2565b91505092959194509250565b60028110613ccf57600080fd5b50565b600081359050613ce181613cc2565b92915050565b600080600080600060a08688031215613d0357613d02613901565b5b6000613d11888289016139e2565b9550506020613d22888289016139e2565b9450506040613d33888289016139e2565b9350506060613d4488828901613c46565b9250506080613d5588828901613cd2565b9150509295509295909350565b6000606082019050613d776000830186613ac2565b613d846020830185613ac2565b613d916040830184613ac2565b949350505050565b60008060008060808587031215613db357613db2613901565b5b6000613dc1878288016139e2565b9450506020613dd2878288016139e2565b9350506040613de3878288016139e2565b9250506060613df487828801613cd2565b91505092959194509250565b600080600060608486031215613e1957613e18613901565b5b6000613e27868287016139e2565b9350506020613e38868287016139e2565b9250506040613e4986828701613cd2565b9150509250925092565b600060a082019050613e686000830188613ac2565b613e756020830187613ac2565b613e826040830186613ac2565b613e8f6060830185613ac2565b613e9c6080830184613ac2565b9695505050505050565b613eaf8161398b565b8114613eba57600080fd5b50565b600081359050613ecc81613ea6565b92915050565b600060208284031215613ee857613ee7613901565b5b6000613ef684828501613ebd565b91505092915050565b60008060008060008060c08789031215613f1c57613f1b613901565b5b6000613f2a89828a016139e2565b9650506020613f3b89828a016139e2565b9550506040613f4c89828a016139e2565b9450506060613f5d89828a01613c46565b9350506080613f6e89828a01613cd2565b92505060a0613f7f89828a016139e2565b9150509295509295509295565b60008060008060008060c08789031215613fa957613fa8613901565b5b6000613fb789828a016139e2565b9650506020613fc889828a016139e2565b9550506040613fd989828a016139e2565b9450506060613fea89828a016139e2565b9350506080613ffb89828a01613c46565b92505060a061400c89828a01613cd2565b9150509295509295509295565b600081519050614028816139cb565b92915050565b60006020828403121561404457614043613901565b5b600061405284828501614019565b91505092915050565b60008151905061406a81613af6565b92915050565b60006020828403121561408657614085613901565b5b60006140948482850161405b565b91505092915050565b600082825260208201905092915050565b7f6d69736d61746368656420746f6b656e20616464726573730000000000000000600082015250565b60006140e460188361409d565b91506140ef826140ae565b602082019050919050565b60006020820190508181036000830152614113816140d7565b9050919050565b7f416363657373436f6e74726f6c3a2063616e206f6e6c792072656e6f756e636560008201527f20726f6c657320666f722073656c660000000000000000000000000000000000602082015250565b6000614176602f8361409d565b91506141818261411a565b604082019050919050565b600060208201905081810360008301526141a581614169565b9050919050565b600080604083850312156141c3576141c2613901565b5b60006141d185828601614019565b92505060206141e285828601614019565b9150509250929050565b7f54726164696e672073746f707065642100000000000000000000000000000000600082015250565b600061422260108361409d565b915061422d826141ec565b602082019050919050565b6000602082019050818103600083015261425181614215565b9050919050565b7f436f737420696e636f7272656374000000000000000000000000000000000000600082015250565b600061428e600e8361409d565b915061429982614258565b602082019050919050565b600060208201905081810360008301526142bd81614281565b9050919050565b6000815190506142d381613a29565b92915050565b6000602082840312156142ef576142ee613901565b5b60006142fd848285016142c4565b91505092915050565b600060608201905061431b6000830186613bb9565b6143286020830185613bb9565b6143356040830184613ac2565b949350505050565b60008151905061434c81613ea6565b92915050565b60006020828403121561436857614367613901565b5b60006143768482850161433d565b91505092915050565b7f766f6c207061796d656e74206572726f72000000000000000000000000000000600082015250565b60006143b560118361409d565b91506143c08261437f565b602082019050919050565b600060208201905081810360008301526143e4816143a8565b9050919050565b60006040820190506144006000830185613bb9565b61440d6020830184613ac2565b9392505050565b600060a0820190506144296000830188613bb9565b6144366020830187613ac2565b6144436040830186613ac2565b6144506060830185613ac2565b61445d6080830184613ac2565b9695505050505050565b7f4e487b7100000000000000000000000000000000000000000000000000000000600052601160045260246000fd5b60006144a1826139c1565b91506144ac836139c1565b9250827fffffffffffffffffffffffffffffffffffffffffffffffffffffffffffffffff038211156144e1576144e0614467565b5b828201905092915050565b7f7061796d656e74206572726f7200000000000000000000000000000000000000600082015250565b6000614522600d8361409d565b915061452d826144ec565b602082019050919050565b6000602082019050818103600083015261455181614515565b9050919050565b7f4e487b7100000000000000000000000000000000000000000000000000000000600052602160045260246000fd5b6002811061459857614597614558565b5b50565b60008190506145a982614587565b919050565b60006145b98261459b565b9050919050565b6145c9816145ae565b82525050565b600281106145e0576145df614558565b5b50565b60008190506145f1826145cf565b919050565b6000614601826145e3565b9050919050565b614611816145f6565b82525050565b60006101408201905061462d600083018d613ac2565b61463a602083018c613ac2565b614647604083018b613ac2565b614654606083018a6145c0565b6146616080830189614608565b61466e60a0830188613ac2565b61467b60c0830187613ac2565b61468860e0830186613ac2565b614696610100830185613ac2565b6146a4610120830184613bb9565b9b9a5050505050505050505050565b60006040820190506146c86000830185613ac2565b6146d56020830184613bb9565b9392505050565b600080fd5b6000601f19601f8301169050919050565b7f4e487b7100000000000000000000000000000000000000000000000000000000600052604160045260246000fd5b61472a826146e1565b810181811067ffffffffffffffff82111715614749576147486146f2565b5b80604052505050565b600061475c6138f7565b90506147688282614721565b919050565b60008151905061477c81613c36565b92915050565b60008151905061479181613cc2565b92915050565b600481106147a457600080fd5b50565b6000815190506147b681614797565b92915050565b600061020082840312156147d3576147d26146dc565b5b6147de610200614752565b905060006147ee8482850161476d565b600083015250602061480284828501614782565b6020830152506040614816848285016147a7565b604083015250606061482a848285016142c4565b606083015250608061483e84828501614019565b60808301525060a061485284828501614019565b60a08301525060c061486684828501614019565b60c08301525060e061487a84828501614019565b60e08301525061010061488f84828501614019565b610100830152506101206148a584828501614019565b610120830152506101406148bb84828501614019565b610140830152506101606148d184828501614019565b610160830152506101806148e784828501614019565b610180830152506101a06148fd84828501614019565b6101a0830152506101c061491384828501614019565b6101c0830152506101e061492984828501614019565b6101e08301525092915050565b6000610200828403121561494d5761494c613901565b5b600061495b848285016147bc565b91505092915050565b61496d816145ae565b82525050565b61497c816145f6565b82525050565b6004811061499357614992614558565b5b50565b60008190506149a482614982565b919050565b60006149b482614996565b9050919050565b6149c4816149a9565b82525050565b6149d381613a17565b82525050565b6149e2816139c1565b82525050565b610200820160008201516149ff6000850182614964565b506020820151614a126020850182614973565b506040820151614a2560408501826149bb565b506060820151614a3860608501826149ca565b506080820151614a4b60808501826149d9565b5060a0820151614a5e60a08501826149d9565b5060c0820151614a7160c08501826149d9565b5060e0820151614a8460e08501826149d9565b50610100820151614a996101008501826149d9565b50610120820151614aae6101208501826149d9565b50610140820151614ac36101408501826149d9565b50610160820151614ad86101608501826149d9565b50610180820151614aed6101808501826149d9565b506101a0820151614b026101a08501826149d9565b506101c0820151614b176101c08501826149d9565b506101e0820151614b2c6101e08501826149d9565b50505050565b600061024082019050614b4860008301866149e8565b614b56610200830185613ac2565b614b64610220830184613997565b949350505050565b6000604082019050614b816000830185613997565b614b8e6020830184613997565b9392505050565b7f696e73756666696369656e74206361706974616c000000000000000000000000600082015250565b6000614bcb60148361409d565b9150614bd682614b95565b602082019050919050565b60006020820190508181036000830152614bfa81614bbe565b9050919050565b6000819050919050565b6000614c1682614c01565b9150614c2183614c01565b9250817f7fffffffffffffffffffffffffffffffffffffffffffffffffffffffffffffff03831360008312151615614c5c57614c5b614467565b5b817f8000000000000000000000000000000000000000000000000000000000000000038312600083121615614c9457614c93614467565b5b828201905092915050565b7f496e636f727265637420766f6c207072656d69756d0000000000000000000000600082015250565b6000614cd560158361409d565b9150614ce082614c9f565b602082019050919050565b60006020820190508181036000830152614d0481614cc8565b9050919050565b7f696e73756666696369656e74207573646320696e2065786368616e67652e0000600082015250565b6000614d41601e8361409d565b9150614d4c82614d0b565b602082019050919050565b60006020820190508181036000830152614d7081614d34565b9050919050565b7f54656e6f72206973206e6f742073657400000000000000000000000000000000600082015250565b6000614dad60108361409d565b9150614db882614d77565b602082019050919050565b60006020820190508181036000830152614ddc81614da0565b9050919050565b614dec816139c1565b82525050565b614dfb81613a17565b82525050565b6000604082019050614e166000830185614de3565b614e236020830184614df2565b9392505050565b7f496e636f727265637420636f737420706169642e000000000000000000000000600082015250565b6000614e6060148361409d565b9150614e6b82614e2a565b602082019050919050565b60006020820190508181036000830152614e8f81614e53565b9050919050565b7f4661696c6564207061796d656e742e0000000000000000000000000000000000600082015250565b6000614ecc600f8361409d565b9150614ed782614e96565b602082019050919050565b60006020820190508181036000830152614efb81614ebf565b9050919050565b614f0b816145ae565b82525050565b614f1a816145f6565b82525050565b600060e082019050614f35600083018a614de3565b614f426020830189614de3565b614f4f6040830188614de3565b614f5c6060830187614de3565b614f696080830186614f02565b614f7660a0830185614f11565b614f8360c0830184614de3565b98975050505050505050565b600081905092915050565b7f416363657373436f6e74726f6c3a206163636f756e7420000000000000000000600082015250565b6000614fd0601783614f8f565b9150614fdb82614f9a565b601782019050919050565b600081519050919050565b60005b8381101561500f578082015181840152602081019050614ff4565b8381111561501e576000848401525b50505050565b600061502f82614fe6565b6150398185614f8f565b9350615049818560208601614ff1565b80840191505092915050565b7f206973206d697373696e6720726f6c6520000000000000000000000000000000600082015250565b600061508b601183614f8f565b915061509682615055565b601182019050919050565b60006150ac82614fc3565b91506150b88285615024565b91506150c38261507e565b91506150cf8284615024565b91508190509392505050565b60006150e682614fe6565b6150f0818561409d565b9350615100818560208601614ff1565b615109816146e1565b840191505092915050565b6000602082019050818103600083015261512e81846150db565b905092915050565b600060608201905061514b6000830186614de3565b6151586020830185614de3565b6151656040830184614de3565b949350505050565b61517681614c01565b811461518157600080fd5b50565b6000815190506151938161516d565b92915050565b6000602082840312156151af576151ae613901565b5b60006151bd84828501615184565b91505092915050565b60006151d182614c01565b91506151dc83614c01565b9250827f7fffffffffffffffffffffffffffffffffffffffffffffffffffffffffffffff048211600084136000841316161561521b5761521a614467565b5b817f8000000000000000000000000000000000000000000000000000000000000000058312600084126000841316161561525857615257614467565b5b827f8000000000000000000000000000000000000000000000000000000000000000058212600084136000841216161561529557615294614467565b5b827f7fffffffffffffffffffffffffffffffffffffffffffffffffffffffffffffff05821260008412600084121616156152d2576152d1614467565b5b828202905092915050565b6152e681614c01565b82525050565b60006080820190506153016000830187614de3565b61530e60208301866152dd565b61531b6040830185614de3565b6153286060830184614de3565b95945050505050565b7f4e487b7100000000000000000000000000000000000000000000000000000000600052601260045260246000fd5b600061536b82614c01565b915061537683614c01565b92508261538657615385615331565b5b600160000383147f8000000000000000000000000000000000000000000000000000000000000000831416156153bf576153be614467565b5b828205905092915050565b60006153d5826139c1565b91506153e0836139c1565b9250817fffffffffffffffffffffffffffffffffffffffffffffffffffffffffffffffff048311821515161561541957615418614467565b5b828202905092915050565b7f4e487b7100000000000000000000000000000000000000000000000000000000600052603260045260246000fd5b600061545e826139c1565b9150600082141561547257615471614467565b5b600182039050919050565b7f537472696e67733a20686578206c656e67746820696e73756666696369656e74600082015250565b60006154b360208361409d565b91506154be8261547d565b602082019050919050565b600060208201905081810360008301526154e2816154a6565b905091905056fea2646970667358221220fb6ab84cf1361a4b27018b9e39ab169c0c314f957006ae6f8b6a68a674ede68c64736f6c634300080a0033",
  "immutableReferences": {},
  "source": "// SPDX-License-Identifier: MIT\npragma solidity 0.8.10;\n\nimport \"@openzeppelin/contracts/token/ERC20/ERC20.sol\";\nimport \"@openzeppelin/contracts/access/AccessControl.sol\";\nimport \"@openzeppelin/contracts/utils/structs/EnumerableSet.sol\";\nimport \"./MoretInterfaces.sol\";\nimport \"./VolatilityToken.sol\";\nimport \"./MoretMarketMaker.sol\";\n\ncontract Exchange is AccessControl, EOption{\n  bytes32 public constant ADMIN_ROLE = keccak256(\"ADMIN_ROLE\");\n  address public vaultAddress;\n  address public marketMakerAddress;\n  mapping(uint256=>address) public volTokenAddressList;\n\n  MoretMarketMaker internal marketMaker;\n  OptionVault internal optionVault;\n\n  uint256 public volCapacityFactor = 5 * (10 ** 17);\n  uint256 public loanInterest = 0; // Annualised interest rate in 1e18\n  bool public allowTrading = true;\n\n  constructor( address _marketMakerAddress,address _vaultAddress){\n    _setupRole(DEFAULT_ADMIN_ROLE, msg.sender);\n    _setupRole(ADMIN_ROLE, msg.sender);\n    vaultAddress = _vaultAddress;\n    optionVault = OptionVault(_vaultAddress);\n    marketMakerAddress = _marketMakerAddress;\n    marketMaker = MoretMarketMaker(_marketMakerAddress);}\n\n  function calcCost(uint256 _tenor, uint256 _strike, uint256 _amount, OptionLibrary.PayoffType _poType, OptionLibrary.OptionSide _side) public view returns(uint256 , uint256 , uint256 ){\n    (uint256 _price,) = optionVault.queryPrice();\n    return calcOptionCost(_tenor, _price, _strike, _amount, _poType, _side);}\n\n  function calcOptionCost(uint256 _tenor, uint256 _price, uint256 _strike, uint256 _amount, OptionLibrary.PayoffType _poType, OptionLibrary.OptionSide _side) public view returns(uint256 _premium, uint256 _cost, uint256 _vol){\n    _vol = queryOptionVolatility(_tenor, _strike, _amount, _side);\n    // uint256 _adjustedStrike = OptionLibrary.adjustStrike(_strike, _poType, _side, marketMaker.swapSlippage(), loanInterest); \n    uint256 _interest = MulDiv(loanInterest, _tenor, OptionLibrary.AnnualSeconds);\n    (_premium, _cost) = OptionLibrary.calcOptionCost(_price, _strike, _amount, _vol, _poType, _side, _interest);\n    _premium = MarketLibrary.cvtDecimals(_premium, optionVault.funding());\n    _cost = MarketLibrary.cvtDecimals(_cost, optionVault.funding());}\n\n  function queryOptionVolatility(uint256 _tenor, uint256 _strike, uint256 _amount, OptionLibrary.OptionSide _side) public view returns(uint256 _vol){  \n    _vol = optionVault.queryVol(_tenor); // running vol\n    (uint256 _price,) = optionVault.queryPrice();\n    require(MulDiv(_amount, _price, OptionLibrary.Multiplier())<=marketMaker.calcCapital(true,false),'insufficient capital');\n    int256 _riskPremium = calcRiskPremium(_price, _vol, _strike, _amount, _side);\n    require((int256(_vol)+_riskPremium) > 0,\"Incorrect vol premium\");\n    _vol = uint256(int256(_vol)+_riskPremium);}\n\n  function calcRiskPremium(uint256 _price, uint256 _vol, uint256 _strike, uint256 _amount, OptionLibrary.OptionSide _side) internal view returns(int256) {\n    uint256 _maxGamma = MulDiv(OptionLibrary.calcGamma(_price, _price, _vol), marketMaker.calcCapital(false, false), _price);\n    int256 _currentGamma = optionVault.calculateAggregateGamma(); // include sells.\n    int256 _newGamma = _currentGamma + int256(MulDiv(OptionLibrary.calcGamma(_price, _strike, _vol), _amount, OptionLibrary.Multiplier() )) * (_side==OptionLibrary.OptionSide.Sell? -1: int(1));\n    return (OptionLibrary.calcRiskPremiumAMM(_maxGamma, _currentGamma,  _vol, volCapacityFactor) + OptionLibrary.calcRiskPremiumAMM(_maxGamma, _newGamma, _vol, volCapacityFactor)) / 2;}\n\n  function purchaseOption(uint256 _tenor, uint256 _strike, uint256 _amount, OptionLibrary.PayoffType _poType, OptionLibrary.OptionSide _side, uint256 _payInCost) external {\n    require(allowTrading,\"Trading stopped!\");\n    (uint256 _price, ) = optionVault.queryPrice();\n    (uint256 _premium, uint256 _cost, uint256 _vol) = calcOptionCost(_tenor, _price, _strike, _amount, _poType, _side );      \n    require(_payInCost >= _cost, \"Incorrect cost paid.\");\n    uint256 _id = optionVault.addOption(_tenor, _strike, _amount, _poType, _side, _premium, _cost, _price, _vol, msg.sender);\n    require(ERC20(optionVault.funding()).transferFrom(msg.sender, marketMakerAddress, _payInCost), 'Failed payment.');  \n    optionVault.stampActiveOption(_id, msg.sender);\n    emit newOptionBought(msg.sender, optionVault.getOption(_id), _payInCost, false);}\n\n  function getOptionPayoffValue(uint256 _id) external view returns(uint256 _payback){\n    (,_payback) = optionVault.getContractPayoff(_id);}\n\n  function calcVolAmount(uint256 _tenor, uint256 _amount, OptionLibrary.OptionSide _side) public view returns(uint256 _volAmount, uint256 _vol, uint256 _premium, uint256 _cost, uint256 _price){\n    require(volTokenAddressList[_tenor]!=address(0), \"Tenor is not set\");\n    (_price, ) = optionVault.queryPrice();\n    (_premium, _cost, _vol) = calcOptionCost(_tenor, _price, _price, _amount, OptionLibrary.PayoffType.Call, _side); \n    _volAmount = MarketLibrary.cvtDecimals(MulDiv(_premium, OptionLibrary.Multiplier(), _vol), volTokenAddressList[_tenor]);}\n\n  function buyVol(uint256 _tenor, uint256 _amount, uint256 _payInCost) external {\n    require(allowTrading,\"Trading stopped!\");\n    (uint256 _volAmount, , uint256 _premium, , ) = calcVolAmount(_tenor, _amount, OptionLibrary.OptionSide.Buy);\n    require(_payInCost >= _premium, \"Cost incorrect\");\n    require(ERC20(optionVault.funding()).transferFrom(msg.sender, address(this), _premium), \"vol payment error\");\n    VolatilityToken(volTokenAddressList[_tenor]).mint(msg.sender, _volAmount);\n    emit volatilityTokenBought(msg.sender, block.timestamp, _tenor, _volAmount, _premium);}\n  \n  function sellVol(uint256 _tenor, uint256 _amount, uint256 _payInVol) external {\n    require(allowTrading,\"Trading stopped!\");\n    (uint256 _volAmount,  ,  uint256 _premium,  ,  ) = calcVolAmount(_tenor, _amount, OptionLibrary.OptionSide.Sell);\n    require(_payInVol >= _volAmount, \"Cost incorrect\");\n    require(ERC20(optionVault.funding()).balanceOf(address(this))>=_premium, \"insufficient usdc in exchange.\");\n\n    VolatilityToken(volTokenAddressList[_tenor]).burn(msg.sender, _volAmount);\n    require(ERC20(optionVault.funding()).transfer(msg.sender, _premium), \"payment error\");\n    emit volatilityTokenSold(msg.sender, block.timestamp, _tenor, _volAmount, _premium);}  \n\n  function buyOptionInVol(uint256 _tenor, uint256 _amount, OptionLibrary.PayoffType _poType, uint256 _payInVol) external {\n    require(allowTrading,\"Trading stopped!\");\n    (uint256 _volAmount, uint256 _vol, uint256 _premium, uint256 _cost, uint256 _price) = calcVolAmount(_tenor, _amount, OptionLibrary.OptionSide.Buy);\n    require(_payInVol >= _volAmount, \"Cost incorrect\");\n    require(ERC20(optionVault.funding()).balanceOf(address(this))>=_premium, \"insufficient usdc in exchange.\");\n\n    VolatilityToken(volTokenAddressList[_tenor]).burn(msg.sender, _volAmount);\n    uint256 _id = optionVault.addOption(_tenor, _price, _amount, _poType, OptionLibrary.OptionSide.Buy, _premium, _cost, _price, _vol, msg.sender);\n    require(ERC20(optionVault.funding()).transfer(marketMakerAddress, _premium), 'payment error');  \n    optionVault.stampActiveOption(_id, msg.sender);\n    emit newOptionBought(msg.sender, optionVault.getOption(_id), _volAmount, true);}\n\n  function sellOptionInVol(uint256 _tenor, uint256 _amount, OptionLibrary.PayoffType _poType, uint256 _payInCost) external {\n    require(allowTrading,\"Trading stopped!\");\n    (uint256 _volAmount, uint256 _vol, uint256 _premium, uint256 _cost, uint256 _price) = calcVolAmount(_tenor, _amount, OptionLibrary.OptionSide.Sell);\n    uint256 _totalCost = _premium + _cost;\n    require(_payInCost >= _totalCost, \"Cost incorrect\");\n\n    require(ERC20(optionVault.funding()).transferFrom(msg.sender, marketMakerAddress, _cost), 'payment error'); \n    require(ERC20(optionVault.funding()).transferFrom(msg.sender, address(this), _premium), 'payment error');  \n    uint256 _id = optionVault.addOption(_tenor, _price, _amount, _poType, OptionLibrary.OptionSide.Sell, _premium, _cost, _price, _vol, msg.sender);\n    VolatilityToken(volTokenAddressList[_tenor]).mint(msg.sender, _volAmount);\n    optionVault.stampActiveOption(_id, msg.sender);\n    emit newOptionBought(msg.sender, optionVault.getOption(_id), _volAmount, true);}\n\n  function addVolToken(uint256 _tenor, address _tokenAddress) external onlyRole(ADMIN_ROLE){ \n    require(VolatilityToken(volTokenAddressList[_tenor]).tenor()==_tenor && VolatilityToken(volTokenAddressList[_tenor]).tokenHash()==optionVault.tokenHash(), 'mismatched token address');\n    volTokenAddressList[_tenor] = _tokenAddress; }\n  function removeVolToken(uint256 _tenor) external onlyRole(ADMIN_ROLE){ volTokenAddressList[_tenor] = address(0);}\n  \n  function resetLoanRate(uint256 _loanInterest) external onlyRole(ADMIN_ROLE){ loanInterest = _loanInterest;}\n  function resetVolCapacityFactor(uint256 _newFactor) external onlyRole(ADMIN_ROLE){ volCapacityFactor =_newFactor;}\n  function resetTrading(bool _allowTrading) external onlyRole(DEFAULT_ADMIN_ROLE) {allowTrading=_allowTrading;}\n}\n",
  "sourcePath": "/Users/apple/Documents/GitHub/moret/contracts/Exchange.sol",
  "compiler": {
    "name": "solc",
    "version": "0.8.10+commit.fc410830.Emscripten.clang"
  },
  "schemaVersion": "3.4.3",
  "updatedAt": "2021-12-14T21:43:55.403Z",
  "networkType": "ethereum",
  "devdoc": {
    "kind": "dev",
    "methods": {
      "getRoleAdmin(bytes32)": {
        "details": "Returns the admin role that controls `role`. See {grantRole} and {revokeRole}. To change a role's admin, use {_setRoleAdmin}."
      },
      "grantRole(bytes32,address)": {
        "details": "Grants `role` to `account`. If `account` had not been already granted `role`, emits a {RoleGranted} event. Requirements: - the caller must have ``role``'s admin role."
      },
      "hasRole(bytes32,address)": {
        "details": "Returns `true` if `account` has been granted `role`."
      },
      "renounceRole(bytes32,address)": {
        "details": "Revokes `role` from the calling account. Roles are often managed via {grantRole} and {revokeRole}: this function's purpose is to provide a mechanism for accounts to lose their privileges if they are compromised (such as when a trusted device is misplaced). If the calling account had been revoked `role`, emits a {RoleRevoked} event. Requirements: - the caller must be `account`."
      },
      "revokeRole(bytes32,address)": {
        "details": "Revokes `role` from `account`. If `account` had been granted `role`, emits a {RoleRevoked} event. Requirements: - the caller must have ``role``'s admin role."
      },
      "supportsInterface(bytes4)": {
        "details": "See {IERC165-supportsInterface}."
      }
    },
    "version": 1
  },
  "userdoc": {
    "kind": "user",
    "methods": {},
    "version": 1
  }
}