{
  "contractName": "Exchange",
  "abi": [
    {
      "inputs": [
        {
          "internalType": "contract MoretMarketMaker",
          "name": "_marketMaker",
          "type": "address"
        },
        {
          "internalType": "contract OptionVault",
          "name": "_vault",
          "type": "address"
        }
      ],
      "stateMutability": "nonpayable",
      "type": "constructor"
    },
    {
      "anonymous": false,
      "inputs": [
        {
          "indexed": true,
          "internalType": "address",
          "name": "_purchaser",
          "type": "address"
        },
        {
          "indexed": false,
          "internalType": "uint256",
          "name": "_id",
          "type": "uint256"
        },
        {
          "indexed": false,
          "internalType": "uint256",
          "name": "_payoff",
          "type": "uint256"
        }
      ],
      "name": "Expire",
      "type": "event"
    },
    {
      "anonymous": false,
      "inputs": [
        {
          "indexed": true,
          "internalType": "address",
          "name": "_purchaser",
          "type": "address"
        },
        {
          "indexed": false,
          "internalType": "uint256",
          "name": "_id",
          "type": "uint256"
        },
        {
          "indexed": false,
          "internalType": "uint256",
          "name": "_cost",
          "type": "uint256"
        },
        {
          "indexed": false,
          "internalType": "bool",
          "name": "_inVol",
          "type": "bool"
        }
      ],
      "name": "NewOption",
      "type": "event"
    },
    {
      "anonymous": false,
      "inputs": [
        {
          "indexed": true,
          "internalType": "uint256",
          "name": "_addressId",
          "type": "uint256"
        },
        {
          "indexed": false,
          "internalType": "address",
          "name": "_address",
          "type": "address"
        }
      ],
      "name": "ResetAddress",
      "type": "event"
    },
    {
      "anonymous": false,
      "inputs": [
        {
          "indexed": true,
          "internalType": "uint256",
          "name": "_parameterId",
          "type": "uint256"
        },
        {
          "indexed": false,
          "internalType": "uint256",
          "name": "_parameter",
          "type": "uint256"
        }
      ],
      "name": "ResetParameter",
      "type": "event"
    },
    {
      "anonymous": false,
      "inputs": [
        {
          "indexed": false,
          "internalType": "bool",
          "name": "success",
          "type": "bool"
        },
        {
          "indexed": false,
          "internalType": "bytes",
          "name": "data",
          "type": "bytes"
        }
      ],
      "name": "Response",
      "type": "event"
    },
    {
      "anonymous": false,
      "inputs": [
        {
          "indexed": true,
          "internalType": "bytes32",
          "name": "role",
          "type": "bytes32"
        },
        {
          "indexed": true,
          "internalType": "bytes32",
          "name": "previousAdminRole",
          "type": "bytes32"
        },
        {
          "indexed": true,
          "internalType": "bytes32",
          "name": "newAdminRole",
          "type": "bytes32"
        }
      ],
      "name": "RoleAdminChanged",
      "type": "event"
    },
    {
      "anonymous": false,
      "inputs": [
        {
          "indexed": true,
          "internalType": "bytes32",
          "name": "role",
          "type": "bytes32"
        },
        {
          "indexed": true,
          "internalType": "address",
          "name": "account",
          "type": "address"
        },
        {
          "indexed": true,
          "internalType": "address",
          "name": "sender",
          "type": "address"
        }
      ],
      "name": "RoleGranted",
      "type": "event"
    },
    {
      "anonymous": false,
      "inputs": [
        {
          "indexed": true,
          "internalType": "bytes32",
          "name": "role",
          "type": "bytes32"
        },
        {
          "indexed": true,
          "internalType": "address",
          "name": "account",
          "type": "address"
        },
        {
          "indexed": true,
          "internalType": "address",
          "name": "sender",
          "type": "address"
        }
      ],
      "name": "RoleRevoked",
      "type": "event"
    },
    {
      "anonymous": false,
      "inputs": [
        {
          "indexed": true,
          "internalType": "uint256",
          "name": "_id",
          "type": "uint256"
        },
        {
          "indexed": false,
          "internalType": "uint256",
          "name": "_timestamp",
          "type": "uint256"
        }
      ],
      "name": "StampExpire",
      "type": "event"
    },
    {
      "anonymous": false,
      "inputs": [
        {
          "indexed": true,
          "internalType": "uint256",
          "name": "_id",
          "type": "uint256"
        },
        {
          "indexed": false,
          "internalType": "uint256",
          "name": "_timestamp",
          "type": "uint256"
        }
      ],
      "name": "StampNewOption",
      "type": "event"
    },
    {
      "anonymous": false,
      "inputs": [
        {
          "indexed": true,
          "internalType": "uint256",
          "name": "_tenor",
          "type": "uint256"
        },
        {
          "indexed": false,
          "internalType": "address",
          "name": "_tokenAddress",
          "type": "address"
        }
      ],
      "name": "VolTokenAddition",
      "type": "event"
    },
    {
      "anonymous": false,
      "inputs": [
        {
          "indexed": true,
          "internalType": "uint256",
          "name": "_tenor",
          "type": "uint256"
        }
      ],
      "name": "VolTokenRemoved",
      "type": "event"
    },
    {
      "inputs": [],
      "name": "ADMIN_ROLE",
      "outputs": [
        {
          "internalType": "bytes32",
          "name": "",
          "type": "bytes32"
        }
      ],
      "stateMutability": "view",
      "type": "function",
      "constant": true
    },
    {
      "inputs": [],
      "name": "DEFAULT_ADMIN_ROLE",
      "outputs": [
        {
          "internalType": "bytes32",
          "name": "",
          "type": "bytes32"
        }
      ],
      "stateMutability": "view",
      "type": "function",
      "constant": true
    },
    {
      "inputs": [],
      "name": "allowTrading",
      "outputs": [
        {
          "internalType": "bool",
          "name": "",
          "type": "bool"
        }
      ],
      "stateMutability": "view",
      "type": "function",
      "constant": true
    },
    {
      "inputs": [
        {
          "internalType": "bytes32",
          "name": "role",
          "type": "bytes32"
        }
      ],
      "name": "getRoleAdmin",
      "outputs": [
        {
          "internalType": "bytes32",
          "name": "",
          "type": "bytes32"
        }
      ],
      "stateMutability": "view",
      "type": "function",
      "constant": true
    },
    {
      "inputs": [
        {
          "internalType": "bytes32",
          "name": "role",
          "type": "bytes32"
        },
        {
          "internalType": "address",
          "name": "account",
          "type": "address"
        }
      ],
      "name": "grantRole",
      "outputs": [],
      "stateMutability": "nonpayable",
      "type": "function"
    },
    {
      "inputs": [
        {
          "internalType": "bytes32",
          "name": "role",
          "type": "bytes32"
        },
        {
          "internalType": "address",
          "name": "account",
          "type": "address"
        }
      ],
      "name": "hasRole",
      "outputs": [
        {
          "internalType": "bool",
          "name": "",
          "type": "bool"
        }
      ],
      "stateMutability": "view",
      "type": "function",
      "constant": true
    },
    {
      "inputs": [],
      "name": "hedgingSlippage",
      "outputs": [
        {
          "internalType": "uint256",
          "name": "",
          "type": "uint256"
        }
      ],
      "stateMutability": "view",
      "type": "function",
      "constant": true
    },
    {
      "inputs": [],
      "name": "loanInterest",
      "outputs": [
        {
          "internalType": "uint256",
          "name": "",
          "type": "uint256"
        }
      ],
      "stateMutability": "view",
      "type": "function",
      "constant": true
    },
    {
      "inputs": [],
      "name": "minTradeAmount",
      "outputs": [
        {
          "internalType": "uint256",
          "name": "",
          "type": "uint256"
        }
      ],
      "stateMutability": "view",
      "type": "function",
      "constant": true
    },
    {
      "inputs": [
        {
          "internalType": "bytes32",
          "name": "role",
          "type": "bytes32"
        },
        {
          "internalType": "address",
          "name": "account",
          "type": "address"
        }
      ],
      "name": "renounceRole",
      "outputs": [],
      "stateMutability": "nonpayable",
      "type": "function"
    },
    {
      "inputs": [
        {
          "internalType": "bytes32",
          "name": "role",
          "type": "bytes32"
        },
        {
          "internalType": "address",
          "name": "account",
          "type": "address"
        }
      ],
      "name": "revokeRole",
      "outputs": [],
      "stateMutability": "nonpayable",
      "type": "function"
    },
    {
      "inputs": [
        {
          "internalType": "bytes4",
          "name": "interfaceId",
          "type": "bytes4"
        }
      ],
      "name": "supportsInterface",
      "outputs": [
        {
          "internalType": "bool",
          "name": "",
          "type": "bool"
        }
      ],
      "stateMutability": "view",
      "type": "function",
      "constant": true
    },
    {
      "inputs": [],
      "name": "volCapacityFactor",
      "outputs": [
        {
          "internalType": "uint256",
          "name": "",
          "type": "uint256"
        }
      ],
      "stateMutability": "view",
      "type": "function",
      "constant": true
    },
    {
      "inputs": [
        {
          "internalType": "uint256",
          "name": "",
          "type": "uint256"
        }
      ],
      "name": "volTokenAddressList",
      "outputs": [
        {
          "internalType": "contract VolatilityToken",
          "name": "",
          "type": "address"
        }
      ],
      "stateMutability": "view",
      "type": "function",
      "constant": true
    },
    {
      "inputs": [
        {
          "internalType": "uint256",
          "name": "_tenor",
          "type": "uint256"
        },
        {
          "internalType": "uint256",
          "name": "_strike",
          "type": "uint256"
        },
        {
          "internalType": "uint256",
          "name": "_amount",
          "type": "uint256"
        },
        {
          "internalType": "enum OptionLibrary.PayoffType",
          "name": "_poType",
          "type": "uint8"
        },
        {
          "internalType": "enum OptionLibrary.OptionSide",
          "name": "_side",
          "type": "uint8"
        }
      ],
      "name": "calcCost",
      "outputs": [
        {
          "internalType": "uint256",
          "name": "",
          "type": "uint256"
        },
        {
          "internalType": "uint256",
          "name": "",
          "type": "uint256"
        },
        {
          "internalType": "uint256",
          "name": "",
          "type": "uint256"
        }
      ],
      "stateMutability": "view",
      "type": "function",
      "constant": true
    },
    {
      "inputs": [
        {
          "internalType": "uint256",
          "name": "_tenor",
          "type": "uint256"
        },
        {
          "internalType": "uint256",
          "name": "_price",
          "type": "uint256"
        },
        {
          "internalType": "uint256",
          "name": "_strike",
          "type": "uint256"
        },
        {
          "internalType": "uint256",
          "name": "_amount",
          "type": "uint256"
        },
        {
          "internalType": "enum OptionLibrary.PayoffType",
          "name": "_poType",
          "type": "uint8"
        },
        {
          "internalType": "enum OptionLibrary.OptionSide",
          "name": "_side",
          "type": "uint8"
        }
      ],
      "name": "calcOptionCost",
      "outputs": [
        {
          "internalType": "uint256",
          "name": "_premium",
          "type": "uint256"
        },
        {
          "internalType": "uint256",
          "name": "_cost",
          "type": "uint256"
        },
        {
          "internalType": "uint256",
          "name": "_vol",
          "type": "uint256"
        }
      ],
      "stateMutability": "view",
      "type": "function",
      "constant": true
    },
    {
      "inputs": [
        {
          "internalType": "uint256",
          "name": "_tenor",
          "type": "uint256"
        },
        {
          "internalType": "uint256",
          "name": "_strike",
          "type": "uint256"
        },
        {
          "internalType": "uint256",
          "name": "_amount",
          "type": "uint256"
        },
        {
          "internalType": "enum OptionLibrary.OptionSide",
          "name": "_side",
          "type": "uint8"
        }
      ],
      "name": "queryOptionVolatility",
      "outputs": [
        {
          "internalType": "uint256",
          "name": "_vol",
          "type": "uint256"
        }
      ],
      "stateMutability": "view",
      "type": "function",
      "constant": true
    },
    {
      "inputs": [
        {
          "internalType": "uint256",
          "name": "_tenor",
          "type": "uint256"
        },
        {
          "internalType": "uint256",
          "name": "_strike",
          "type": "uint256"
        },
        {
          "internalType": "uint256",
          "name": "_amount",
          "type": "uint256"
        },
        {
          "internalType": "enum OptionLibrary.PayoffType",
          "name": "_poType",
          "type": "uint8"
        },
        {
          "internalType": "enum OptionLibrary.OptionSide",
          "name": "_side",
          "type": "uint8"
        },
        {
          "internalType": "uint256",
          "name": "_payInCost",
          "type": "uint256"
        }
      ],
      "name": "purchaseOption",
      "outputs": [],
      "stateMutability": "nonpayable",
      "type": "function"
    },
    {
      "inputs": [
        {
          "internalType": "uint256",
          "name": "_id",
          "type": "uint256"
        }
      ],
      "name": "getOptionPayoffValue",
      "outputs": [
        {
          "internalType": "uint256",
          "name": "_payback",
          "type": "uint256"
        }
      ],
      "stateMutability": "view",
      "type": "function",
      "constant": true
    },
    {
      "inputs": [
        {
          "internalType": "uint256",
          "name": "_tenor",
          "type": "uint256"
        },
        {
          "internalType": "uint256",
          "name": "_amount",
          "type": "uint256"
        },
        {
          "internalType": "enum OptionLibrary.OptionSide",
          "name": "_side",
          "type": "uint8"
        }
      ],
      "name": "calcVolAmount",
      "outputs": [
        {
          "internalType": "uint256",
          "name": "_volAmount",
          "type": "uint256"
        },
        {
          "internalType": "uint256",
          "name": "_vol",
          "type": "uint256"
        },
        {
          "internalType": "uint256",
          "name": "_premium",
          "type": "uint256"
        },
        {
          "internalType": "uint256",
          "name": "_cost",
          "type": "uint256"
        },
        {
          "internalType": "uint256",
          "name": "_price",
          "type": "uint256"
        }
      ],
      "stateMutability": "view",
      "type": "function",
      "constant": true
    },
    {
      "inputs": [
        {
          "internalType": "uint256",
          "name": "_tenor",
          "type": "uint256"
        },
        {
          "internalType": "uint256",
          "name": "_amount",
          "type": "uint256"
        },
        {
          "internalType": "uint256",
          "name": "_payInCost",
          "type": "uint256"
        }
      ],
      "name": "buyVol",
      "outputs": [],
      "stateMutability": "nonpayable",
      "type": "function"
    },
    {
      "inputs": [
        {
          "internalType": "uint256",
          "name": "_tenor",
          "type": "uint256"
        },
        {
          "internalType": "uint256",
          "name": "_amount",
          "type": "uint256"
        },
        {
          "internalType": "uint256",
          "name": "_payInVol",
          "type": "uint256"
        }
      ],
      "name": "sellVol",
      "outputs": [],
      "stateMutability": "nonpayable",
      "type": "function"
    },
    {
      "inputs": [
        {
          "internalType": "uint256",
          "name": "_tenor",
          "type": "uint256"
        },
        {
          "internalType": "uint256",
          "name": "_amount",
          "type": "uint256"
        },
        {
          "internalType": "enum OptionLibrary.PayoffType",
          "name": "_poType",
          "type": "uint8"
        },
        {
          "internalType": "uint256",
          "name": "_payInVol",
          "type": "uint256"
        }
      ],
      "name": "buyOptionInVol",
      "outputs": [],
      "stateMutability": "nonpayable",
      "type": "function"
    },
    {
      "inputs": [
        {
          "internalType": "uint256",
          "name": "_tenor",
          "type": "uint256"
        },
        {
          "internalType": "uint256",
          "name": "_amount",
          "type": "uint256"
        },
        {
          "internalType": "enum OptionLibrary.PayoffType",
          "name": "_poType",
          "type": "uint8"
        },
        {
          "internalType": "uint256",
          "name": "_payInCost",
          "type": "uint256"
        }
      ],
      "name": "sellOptionInVol",
      "outputs": [],
      "stateMutability": "nonpayable",
      "type": "function"
    },
    {
      "inputs": [
        {
          "internalType": "uint256",
          "name": "_tenor",
          "type": "uint256"
        },
        {
          "internalType": "address",
          "name": "_tokenAddress",
          "type": "address"
        }
      ],
      "name": "addVolToken",
      "outputs": [],
      "stateMutability": "nonpayable",
      "type": "function"
    },
    {
      "inputs": [
        {
          "internalType": "uint256",
          "name": "_tenor",
          "type": "uint256"
        }
      ],
      "name": "removeVolToken",
      "outputs": [],
      "stateMutability": "nonpayable",
      "type": "function"
    },
    {
      "inputs": [],
      "name": "vaultAddress",
      "outputs": [
        {
          "internalType": "address",
          "name": "",
          "type": "address"
        }
      ],
      "stateMutability": "view",
      "type": "function",
      "constant": true
    },
    {
      "inputs": [],
      "name": "marketMakerAddress",
      "outputs": [
        {
          "internalType": "address",
          "name": "",
          "type": "address"
        }
      ],
      "stateMutability": "view",
      "type": "function",
      "constant": true
    },
    {
      "inputs": [
        {
          "internalType": "uint256",
          "name": "_loanInterest",
          "type": "uint256"
        }
      ],
      "name": "resetLoanRate",
      "outputs": [],
      "stateMutability": "nonpayable",
      "type": "function"
    },
    {
      "inputs": [
        {
          "internalType": "uint256",
          "name": "_newFactor",
          "type": "uint256"
        }
      ],
      "name": "resetVolCapacityFactor",
      "outputs": [],
      "stateMutability": "nonpayable",
      "type": "function"
    },
    {
      "inputs": [
        {
          "internalType": "uint256",
          "name": "_newAmount",
          "type": "uint256"
        }
      ],
      "name": "resetMinAmount",
      "outputs": [],
      "stateMutability": "nonpayable",
      "type": "function"
    },
    {
      "inputs": [
        {
          "internalType": "bool",
          "name": "_allowTrading",
          "type": "bool"
        }
      ],
      "name": "resetTrading",
      "outputs": [],
      "stateMutability": "nonpayable",
      "type": "function"
    }
  ],
  "bytecode": "0x6101206040526706f05b59d3b20000600255655af3107a40006003556000600455660aa87bee5380006005556001600660006101000a81548160ff0219169083151502179055503480156200005357600080fd5b506040516200565a3803806200565a8339818101604052810190620000799190620005ec565b6200008e6000801b33620003b060201b60201c565b620000c07fa49807205ce4d355092ef5a8a18f56e8913cf4a201fbe287825b095693c2177533620003b060201b60201c565b8073ffffffffffffffffffffffffffffffffffffffff1660a08173ffffffffffffffffffffffffffffffffffffffff16815250508173ffffffffffffffffffffffffffffffffffffffff1660808173ffffffffffffffffffffffffffffffffffffffff16815250508073ffffffffffffffffffffffffffffffffffffffff1663cb4c86b76040518163ffffffff1660e01b8152600401602060405180830381865afa15801562000174573d6000803e3d6000fd5b505050506040513d601f19601f820116820180604052508101906200019a919062000678565b73ffffffffffffffffffffffffffffffffffffffff166101008173ffffffffffffffffffffffffffffffffffffffff16815250508073ffffffffffffffffffffffffffffffffffffffff1663cb4c86b76040518163ffffffff1660e01b8152600401602060405180830381865afa1580156200021a573d6000803e3d6000fd5b505050506040513d601f19601f8201168201806040525081019062000240919062000678565b73ffffffffffffffffffffffffffffffffffffffff1663313ce5676040518163ffffffff1660e01b8152600401602060405180830381865afa1580156200028b573d6000803e3d6000fd5b505050506040513d601f19601f82011682018060405250810190620002b19190620006e8565b60ff1660c081815250508073ffffffffffffffffffffffffffffffffffffffff16636f307dc36040518163ffffffff1660e01b8152600401602060405180830381865afa15801562000307573d6000803e3d6000fd5b505050506040513d601f19601f820116820180604052508101906200032d919062000678565b73ffffffffffffffffffffffffffffffffffffffff1663313ce5676040518163ffffffff1660e01b8152600401602060405180830381865afa15801562000378573d6000803e3d6000fd5b505050506040513d601f19601f820116820180604052508101906200039e9190620006e8565b60ff1660e0818152505050506200071a565b620003c28282620003c660201b60201c565b5050565b620003d88282620004b760201b60201c565b620004b357600160008084815260200190815260200160002060000160008373ffffffffffffffffffffffffffffffffffffffff1673ffffffffffffffffffffffffffffffffffffffff16815260200190815260200160002060006101000a81548160ff021916908315150217905550620004586200052160201b60201c565b73ffffffffffffffffffffffffffffffffffffffff168173ffffffffffffffffffffffffffffffffffffffff16837f2f8788117e7eff1d82e926ec794901d17c78024a50270940304540a733656f0d60405160405180910390a45b5050565b600080600084815260200190815260200160002060000160008373ffffffffffffffffffffffffffffffffffffffff1673ffffffffffffffffffffffffffffffffffffffff16815260200190815260200160002060009054906101000a900460ff16905092915050565b600033905090565b600080fd5b600073ffffffffffffffffffffffffffffffffffffffff82169050919050565b60006200055b826200052e565b9050919050565b60006200056f826200054e565b9050919050565b620005818162000562565b81146200058d57600080fd5b50565b600081519050620005a18162000576565b92915050565b6000620005b4826200054e565b9050919050565b620005c681620005a7565b8114620005d257600080fd5b50565b600081519050620005e681620005bb565b92915050565b6000806040838503121562000606576200060562000529565b5b6000620006168582860162000590565b92505060206200062985828601620005d5565b9150509250929050565b600062000640826200054e565b9050919050565b620006528162000633565b81146200065e57600080fd5b50565b600081519050620006728162000647565b92915050565b60006020828403121562000691576200069062000529565b5b6000620006a18482850162000661565b91505092915050565b600060ff82169050919050565b620006c281620006aa565b8114620006ce57600080fd5b50565b600081519050620006e281620006b7565b92915050565b60006020828403121562000701576200070062000529565b5b60006200071184828501620006d1565b91505092915050565b60805160a05160c05160e05161010051614e4f6200080b60003960008181610d3301528181610f79015281816110780152818161196c0152818161219601526125270152600050506000818161284b01526128e901526000818161076901528181610bbf01528181610c6501528181611159015281816112aa0152818161139d01528181611450015281816114ee015281816118bb01528181611a6901528181611c2301528181611ff7015281816120e6015281816122950152612e16015260008181610fb60152818161157f015281816119a8015281816121d3015281816123900152612d150152614e4f6000f3fe608060405234801561001057600080fd5b50600436106101f05760003560e01c80637188157e1161010f578063ba2d76cb116100a2578063dbfed78311610071578063dbfed783146105a7578063dda9046f146105c3578063e327c248146105e1578063edf0bec614610613576101f0565b8063ba2d76cb14610533578063cc91058814610551578063d547741f1461056f578063dab243291461058b576101f0565b806391d14854116100de57806391d14854146104ab578063a217fddf146104db578063a34a1e4d146104f9578063a7292ea414610515576101f0565b80637188157e1461042157806375b238fc1461043d57806375b8452b1461045b5780638d4939c61461048f576101f0565b80632f2ff15d116101875780634b7a58fb116101565780634b7a58fb146103875780634d937da9146103a357806368fefdfb146103bf5780636a7d116f146103f1576101f0565b80632f2ff15d1461030157806336568abe1461031d57806340d6eaab14610339578063430bf08a14610369576101f0565b8063130dab6a116101c3578063130dab6a1461027b5780631fb2274214610297578063248a9ca3146102b35780632e5b4c43146102e3576101f0565b806301ffc9a7146101f55780630227ac83146102255780630c64307d146102415780630f9026181461025d575b600080fd5b61020f600480360381019061020a9190613488565b610643565b60405161021c91906134d0565b60405180910390f35b61023f600480360381019061023a919061357f565b6106bd565b005b61025b600480360381019061025691906135bf565b610935565b005b6102656109ab565b60405161027291906135fb565b60405180910390f35b610295600480360381019061029091906135bf565b6109b1565b005b6102b160048036038101906102ac91906135bf565b610a67565b005b6102cd60048036038101906102c8919061364c565b610add565b6040516102da9190613688565b60405180910390f35b6102eb610afc565b6040516102f891906134d0565b60405180910390f35b61031b600480360381019061031691906136a3565b610b0f565b005b610337600480360381019061033291906136a3565b610b38565b005b610353600480360381019061034e91906135bf565b610bbb565b60405161036091906135fb565b60405180910390f35b610371610c61565b60405161037e91906136f2565b60405180910390f35b6103a1600480360381019061039c919061370d565b610c89565b005b6103bd60048036038101906103b89190613785565b610eb7565b005b6103d960048036038101906103d49190613811565b611395565b6040516103e89392919061388c565b60405180910390f35b61040b600480360381019061040691906138c3565b61144c565b60405161041891906135fb565b60405180910390f35b61043b60048036038101906104369190613785565b611767565b005b610445611b53565b6040516104529190613688565b60405180910390f35b6104756004803603810190610470919061392a565b611b77565b60405161048695949392919061397d565b60405180910390f35b6104a960048036038101906104a491906139fc565b611e74565b005b6104c560048036038101906104c091906136a3565b611eee565b6040516104d291906134d0565b60405180910390f35b6104e3611f58565b6040516104f09190613688565b60405180910390f35b610513600480360381019061050e9190613a29565b611f5f565b005b61051d612380565b60405161052a91906135fb565b60405180910390f35b61053b612386565b60405161054891906135fb565b60405180910390f35b61055961238c565b60405161056691906136f2565b60405180910390f35b610589600480360381019061058491906136a3565b6123b4565b005b6105a560048036038101906105a0919061370d565b6123dd565b005b6105c160048036038101906105bc91906135bf565b612609565b005b6105cb61267f565b6040516105d891906135fb565b60405180910390f35b6105fb60048036038101906105f69190613ab6565b612685565b60405161060a9392919061388c565b60405180910390f35b61062d600480360381019061062891906135bf565b612975565b60405161063a9190613ba2565b60405180910390f35b60007f7965db0b000000000000000000000000000000000000000000000000000000007bffffffffffffffffffffffffffffffffffffffffffffffffffffffff1916827bffffffffffffffffffffffffffffffffffffffffffffffffffffffff191614806106b657506106b5826129a8565b5b9050919050565b7fa49807205ce4d355092ef5a8a18f56e8913cf4a201fbe287825b095693c217756106ef816106ea612a12565b612a1a565b828273ffffffffffffffffffffffffffffffffffffffff1663a15612d16040518163ffffffff1660e01b8152600401602060405180830381865afa15801561073b573d6000803e3d6000fd5b505050506040513d601f19601f8201168201806040525081019061075f9190613bd2565b14801561086757507f000000000000000000000000000000000000000000000000000000000000000073ffffffffffffffffffffffffffffffffffffffff1663cca494736040518163ffffffff1660e01b8152600401602060405180830381865afa1580156107d2573d6000803e3d6000fd5b505050506040513d601f19601f820116820180604052508101906107f69190613c14565b8273ffffffffffffffffffffffffffffffffffffffff1663cca494736040518163ffffffff1660e01b8152600401602060405180830381865afa158015610841573d6000803e3d6000fd5b505050506040513d601f19601f820116820180604052508101906108659190613c14565b145b6108a6576040517f08c379a000000000000000000000000000000000000000000000000000000000815260040161089d90613c9e565b60405180910390fd5b816001600085815260200190815260200160002060006101000a81548173ffffffffffffffffffffffffffffffffffffffff021916908373ffffffffffffffffffffffffffffffffffffffff160217905550827ff52090a6d0640328e5fca5b38028063dc80957a1911e51223e7a53797b600eda8360405161092891906136f2565b60405180910390a2505050565b7fa49807205ce4d355092ef5a8a18f56e8913cf4a201fbe287825b095693c2177561096781610962612a12565b612a1a565b8160048190555060647f1f77a5f1218c5e380f0425a2e88a823d831b5f8906f5ab4db8b1565a36f780d78360405161099f91906135fb565b60405180910390a25050565b60025481565b7fa49807205ce4d355092ef5a8a18f56e8913cf4a201fbe287825b095693c217756109e3816109de612a12565b612a1a565b60006001600084815260200190815260200160002060006101000a81548173ffffffffffffffffffffffffffffffffffffffff021916908373ffffffffffffffffffffffffffffffffffffffff160217905550817f77deee3eb9b4bb6f251b71ecb6cab511fad7f468b72b821d2315bce091d693b560405160405180910390a25050565b7fa49807205ce4d355092ef5a8a18f56e8913cf4a201fbe287825b095693c21775610a9981610a94612a12565b612a1a565b8160038190555060667f1f77a5f1218c5e380f0425a2e88a823d831b5f8906f5ab4db8b1565a36f780d783604051610ad191906135fb565b60405180910390a25050565b6000806000838152602001908152602001600020600101549050919050565b600660009054906101000a900460ff1681565b610b1882610add565b610b2981610b24612a12565b612a1a565b610b338383612ab7565b505050565b610b40612a12565b73ffffffffffffffffffffffffffffffffffffffff168173ffffffffffffffffffffffffffffffffffffffff1614610bad576040517f08c379a0000000000000000000000000000000000000000000000000000000008152600401610ba490613d30565b60405180910390fd5b610bb78282612b97565b5050565b60007f000000000000000000000000000000000000000000000000000000000000000073ffffffffffffffffffffffffffffffffffffffff166385ae10e6836040518263ffffffff1660e01b8152600401610c1691906135fb565b6040805180830381865afa158015610c32573d6000803e3d6000fd5b505050506040513d601f19601f82011682018060405250810190610c569190613d50565b905080915050919050565b60007f0000000000000000000000000000000000000000000000000000000000000000905090565b600660009054906101000a900460ff16610cd8576040517f08c379a0000000000000000000000000000000000000000000000000000000008152600401610ccf90613ddc565b60405180910390fd5b600080610ce785856000611b77565b5050925050915080831015610d31576040517f08c379a0000000000000000000000000000000000000000000000000000000008152600401610d2890613e48565b60405180910390fd5b7f000000000000000000000000000000000000000000000000000000000000000073ffffffffffffffffffffffffffffffffffffffff166323b872dd3330846040518463ffffffff1660e01b8152600401610d8e93929190613e68565b6020604051808303816000875af1158015610dad573d6000803e3d6000fd5b505050506040513d601f19601f82011682018060405250810190610dd19190613eb4565b610e10576040517f08c379a0000000000000000000000000000000000000000000000000000000008152600401610e0790613f2d565b60405180910390fd5b6001600086815260200190815260200160002060009054906101000a900473ffffffffffffffffffffffffffffffffffffffff1673ffffffffffffffffffffffffffffffffffffffff166340c10f1933846040518363ffffffff1660e01b8152600401610e7e929190613f4d565b600060405180830381600087803b158015610e9857600080fd5b505af1158015610eac573d6000803e3d6000fd5b505050505050505050565b600660009054906101000a900460ff16610f06576040517f08c379a0000000000000000000000000000000000000000000000000000000008152600401610efd90613ddc565b60405180910390fd5b6000806000806000610f1a89896001611b77565b9450945094509450945060008284610f329190613fa5565b905080871015610f77576040517f08c379a0000000000000000000000000000000000000000000000000000000008152600401610f6e90613e48565b60405180910390fd5b7f000000000000000000000000000000000000000000000000000000000000000073ffffffffffffffffffffffffffffffffffffffff166323b872dd337f0000000000000000000000000000000000000000000000000000000000000000866040518463ffffffff1660e01b8152600401610ff493929190613e68565b6020604051808303816000875af1158015611013573d6000803e3d6000fd5b505050506040513d601f19601f820116820180604052508101906110379190613eb4565b611076576040517f08c379a000000000000000000000000000000000000000000000000000000000815260040161106d90614047565b60405180910390fd5b7f000000000000000000000000000000000000000000000000000000000000000073ffffffffffffffffffffffffffffffffffffffff166323b872dd3330876040518463ffffffff1660e01b81526004016110d393929190613e68565b6020604051808303816000875af11580156110f2573d6000803e3d6000fd5b505050506040513d601f19601f820116820180604052508101906111169190613eb4565b611155576040517f08c379a000000000000000000000000000000000000000000000000000000000815260040161114c90614047565b60405180910390fd5b60007f000000000000000000000000000000000000000000000000000000000000000073ffffffffffffffffffffffffffffffffffffffff1663b5310ff98c858d8d60018b8b8b8f336040518b63ffffffff1660e01b81526004016111c39a99989796959493929190614126565b6020604051808303816000875af11580156111e2573d6000803e3d6000fd5b505050506040513d601f19601f820116820180604052508101906112069190613bd2565b9050600160008c815260200190815260200160002060009054906101000a900473ffffffffffffffffffffffffffffffffffffffff1673ffffffffffffffffffffffffffffffffffffffff166340c10f1933896040518363ffffffff1660e01b8152600401611276929190613f4d565b600060405180830381600087803b15801561129057600080fd5b505af11580156112a4573d6000803e3d6000fd5b505050507f000000000000000000000000000000000000000000000000000000000000000073ffffffffffffffffffffffffffffffffffffffff166324b4110e82336040518363ffffffff1660e01b81526004016113039291906141c2565b600060405180830381600087803b15801561131d57600080fd5b505af1158015611331573d6000803e3d6000fd5b505050503373ffffffffffffffffffffffffffffffffffffffff167f867ac367830e7b4278cdecab9f5c67d60a41a72739cc35d3be4ff50458af94cb82896001604051611380939291906141eb565b60405180910390a25050505050505050505050565b6000806000807f000000000000000000000000000000000000000000000000000000000000000073ffffffffffffffffffffffffffffffffffffffff1663b0667cf86040518163ffffffff1660e01b81526004016040805180830381865afa158015611405573d6000803e3d6000fd5b505050506040513d601f19601f820116820180604052508101906114299190613d50565b50905061143a89828a8a8a8a612685565b93509350935050955095509592505050565b60007f000000000000000000000000000000000000000000000000000000000000000073ffffffffffffffffffffffffffffffffffffffff1663cfc2dc20866040518263ffffffff1660e01b81526004016114a791906135fb565b602060405180830381865afa1580156114c4573d6000803e3d6000fd5b505050506040513d601f19601f820116820180604052508101906114e89190613bd2565b905060007f000000000000000000000000000000000000000000000000000000000000000073ffffffffffffffffffffffffffffffffffffffff1663b0667cf86040518163ffffffff1660e01b81526004016040805180830381865afa158015611556573d6000803e3d6000fd5b505050506040513d601f19601f8201168201806040525081019061157a9190613d50565b5090507f000000000000000000000000000000000000000000000000000000000000000073ffffffffffffffffffffffffffffffffffffffff166363447902600160006040518363ffffffff1660e01b81526004016115da929190614222565b602060405180830381865afa1580156115f7573d6000803e3d6000fd5b505050506040513d601f19601f8201168201806040525081019061161b9190613bd2565b8473__FullMath______________________________63fed4a0f39091846040518363ffffffff1660e01b815260040161165692919061425a565b602060405180830381865af4158015611673573d6000803e3d6000fd5b505050506040513d601f19601f820116820180604052508101906116979190613bd2565b11156116d8576040517f08c379a00000000000000000000000000000000000000000000000000000000081526004016116cf906142cf565b60405180910390fd5b60006116e78284888888612c78565b90506000816116f585613135565b6116ff91906142f9565b1361173f576040517f08c379a0000000000000000000000000000000000000000000000000000000008152600401611736906143d9565b60405180910390fd5b61175b8161174c85613135565b61175691906142f9565b6131a2565b92505050949350505050565b600660009054906101000a900460ff166117b6576040517f08c379a00000000000000000000000000000000000000000000000000000000081526004016117ad90613ddc565b60405180910390fd5b60008060008060006117ca89896000611b77565b9450945094509450945084861015611817576040517f08c379a000000000000000000000000000000000000000000000000000000000815260040161180e90613e48565b60405180910390fd5b600160008a815260200190815260200160002060009054906101000a900473ffffffffffffffffffffffffffffffffffffffff1673ffffffffffffffffffffffffffffffffffffffff16639dc29fac33876040518363ffffffff1660e01b8152600401611885929190613f4d565b600060405180830381600087803b15801561189f57600080fd5b505af11580156118b3573d6000803e3d6000fd5b5050505060007f000000000000000000000000000000000000000000000000000000000000000073ffffffffffffffffffffffffffffffffffffffff1663b5310ff98b848c8c60008a8a8a8e336040518b63ffffffff1660e01b81526004016119259a99989796959493929190614126565b6020604051808303816000875af1158015611944573d6000803e3d6000fd5b505050506040513d601f19601f820116820180604052508101906119689190613bd2565b90507f000000000000000000000000000000000000000000000000000000000000000073ffffffffffffffffffffffffffffffffffffffff1663a9059cbb7f0000000000000000000000000000000000000000000000000000000000000000866040518363ffffffff1660e01b81526004016119e5929190613f4d565b6020604051808303816000875af1158015611a04573d6000803e3d6000fd5b505050506040513d601f19601f82011682018060405250810190611a289190613eb4565b611a67576040517f08c379a0000000000000000000000000000000000000000000000000000000008152600401611a5e90614047565b60405180910390fd5b7f000000000000000000000000000000000000000000000000000000000000000073ffffffffffffffffffffffffffffffffffffffff166324b4110e82336040518363ffffffff1660e01b8152600401611ac29291906141c2565b600060405180830381600087803b158015611adc57600080fd5b505af1158015611af0573d6000803e3d6000fd5b505050503373ffffffffffffffffffffffffffffffffffffffff167f867ac367830e7b4278cdecab9f5c67d60a41a72739cc35d3be4ff50458af94cb82886001604051611b3f939291906141eb565b60405180910390a250505050505050505050565b7fa49807205ce4d355092ef5a8a18f56e8913cf4a201fbe287825b095693c2177581565b60008060008060008073ffffffffffffffffffffffffffffffffffffffff16600160008a815260200190815260200160002060009054906101000a900473ffffffffffffffffffffffffffffffffffffffff1673ffffffffffffffffffffffffffffffffffffffff161415611c21576040517f08c379a0000000000000000000000000000000000000000000000000000000008152600401611c1890614445565b60405180910390fd5b7f000000000000000000000000000000000000000000000000000000000000000073ffffffffffffffffffffffffffffffffffffffff1663b0667cf86040518163ffffffff1660e01b81526004016040805180830381865afa158015611c8b573d6000803e3d6000fd5b505050506040513d601f19601f82011682018060405250810190611caf9190613d50565b5080915050611cc38882838a60008b612685565b8096508194508295505050508273__FullMath______________________________63de7f61709091866040518363ffffffff1660e01b8152600401611d0a92919061425a565b602060405180830381865af4158015611d27573d6000803e3d6000fd5b505050506040513d601f19601f82011682018060405250810190611d4b9190613bd2565b73__MarketLibrary_________________________63174e20e69091600160008c815260200190815260200160002060009054906101000a900473ffffffffffffffffffffffffffffffffffffffff1673ffffffffffffffffffffffffffffffffffffffff1663313ce5676040518163ffffffff1660e01b8152600401602060405180830381865afa158015611de5573d6000803e3d6000fd5b505050506040513d601f19601f82011682018060405250810190611e09919061449e565b6040518363ffffffff1660e01b8152600401611e269291906144fc565b602060405180830381865af4158015611e43573d6000803e3d6000fd5b505050506040513d601f19601f82011682018060405250810190611e679190613bd2565b9450939792965093509350565b6000801b611e8981611e84612a12565b612a1a565b81600660006101000a81548160ff02191690831515021790555060667f1f77a5f1218c5e380f0425a2e88a823d831b5f8906f5ab4db8b1565a36f780d783611ed2576000611ed5565b60015b604051611ee29190614534565b60405180910390a25050565b600080600084815260200190815260200160002060000160008373ffffffffffffffffffffffffffffffffffffffff1673ffffffffffffffffffffffffffffffffffffffff16815260200190815260200160002060009054906101000a900460ff16905092915050565b6000801b81565b600660009054906101000a900460ff16611fae576040517f08c379a0000000000000000000000000000000000000000000000000000000008152600401611fa590613ddc565b60405180910390fd5b836003541115611ff3576040517f08c379a0000000000000000000000000000000000000000000000000000000008152600401611fea9061459b565b60405180910390fd5b60007f000000000000000000000000000000000000000000000000000000000000000073ffffffffffffffffffffffffffffffffffffffff1663b0667cf86040518163ffffffff1660e01b81526004016040805180830381865afa15801561205f573d6000803e3d6000fd5b505050506040513d601f19601f820116820180604052508101906120839190613d50565b50905060008060006120998a858b8b8b8b612685565b925092509250818510156120e2576040517f08c379a00000000000000000000000000000000000000000000000000000000081526004016120d990614607565b60405180910390fd5b60007f000000000000000000000000000000000000000000000000000000000000000073ffffffffffffffffffffffffffffffffffffffff1663b5310ff98c8c8c8c8c8a8a8d8b336040518b63ffffffff1660e01b815260040161214f9a99989796959493929190614126565b6020604051808303816000875af115801561216e573d6000803e3d6000fd5b505050506040513d601f19601f820116820180604052508101906121929190613bd2565b90507f000000000000000000000000000000000000000000000000000000000000000073ffffffffffffffffffffffffffffffffffffffff166323b872dd337f0000000000000000000000000000000000000000000000000000000000000000896040518463ffffffff1660e01b815260040161221193929190613e68565b6020604051808303816000875af1158015612230573d6000803e3d6000fd5b505050506040513d601f19601f820116820180604052508101906122549190613eb4565b612293576040517f08c379a000000000000000000000000000000000000000000000000000000000815260040161228a90614673565b60405180910390fd5b7f000000000000000000000000000000000000000000000000000000000000000073ffffffffffffffffffffffffffffffffffffffff166324b4110e82336040518363ffffffff1660e01b81526004016122ee9291906141c2565b600060405180830381600087803b15801561230857600080fd5b505af115801561231c573d6000803e3d6000fd5b505050503373ffffffffffffffffffffffffffffffffffffffff167f867ac367830e7b4278cdecab9f5c67d60a41a72739cc35d3be4ff50458af94cb8288600060405161236b939291906141eb565b60405180910390a25050505050505050505050565b60045481565b60055481565b60007f0000000000000000000000000000000000000000000000000000000000000000905090565b6123bd82610add565b6123ce816123c9612a12565b612a1a565b6123d88383612b97565b505050565b600660009054906101000a900460ff1661242c576040517f08c379a000000000000000000000000000000000000000000000000000000000815260040161242390613ddc565b60405180910390fd5b60008061243b85856001611b77565b5050925050915081831015612485576040517f08c379a000000000000000000000000000000000000000000000000000000000815260040161247c90613e48565b60405180910390fd5b6001600086815260200190815260200160002060009054906101000a900473ffffffffffffffffffffffffffffffffffffffff1673ffffffffffffffffffffffffffffffffffffffff16639dc29fac33846040518363ffffffff1660e01b81526004016124f3929190613f4d565b600060405180830381600087803b15801561250d57600080fd5b505af1158015612521573d6000803e3d6000fd5b505050507f000000000000000000000000000000000000000000000000000000000000000073ffffffffffffffffffffffffffffffffffffffff1663a9059cbb33836040518363ffffffff1660e01b8152600401612580929190613f4d565b6020604051808303816000875af115801561259f573d6000803e3d6000fd5b505050506040513d601f19601f820116820180604052508101906125c39190613eb4565b612602576040517f08c379a00000000000000000000000000000000000000000000000000000000081526004016125f990614047565b60405180910390fd5b5050505050565b7fa49807205ce4d355092ef5a8a18f56e8913cf4a201fbe287825b095693c2177561263b81612636612a12565b612a1a565b8160028190555060657f1f77a5f1218c5e380f0425a2e88a823d831b5f8906f5ab4db8b1565a36f780d78360405161267391906135fb565b60405180910390a25050565b60035481565b60008060006126968988888761144c565b9050600060045473__FullMath______________________________63b3947c1790918c6301e133806040518463ffffffff1660e01b81526004016126dd93929190614693565b602060405180830381865af41580156126fa573d6000803e3d6000fd5b505050506040513d601f19601f8201168201806040525081019061271e9190613bd2565b905073__OptionLibrary_________________________632634764d8a848b8a8c876005546040518863ffffffff1660e01b815260040161276597969594939291906146d9565b602060405180830381865af4158015612782573d6000803e3d6000fd5b505050506040513d601f19601f820116820180604052508101906127a69190613bd2565b935073__OptionLibrary_________________________638234348f8a8a8a8a8a8a6040518763ffffffff1660e01b81526004016127e996959493929190614757565b602060405180830381865af4158015612806573d6000803e3d6000fd5b505050506040513d601f19601f8201168201806040525081019061282a9190613bd2565b92508373__MarketLibrary_________________________63174e20e690917f00000000000000000000000000000000000000000000000000000000000000006040518363ffffffff1660e01b815260040161288792919061425a565b602060405180830381865af41580156128a4573d6000803e3d6000fd5b505050506040513d601f19601f820116820180604052508101906128c89190613bd2565b93508273__MarketLibrary_________________________63174e20e690917f00000000000000000000000000000000000000000000000000000000000000006040518363ffffffff1660e01b815260040161292592919061425a565b602060405180830381865af4158015612942573d6000803e3d6000fd5b505050506040513d601f19601f820116820180604052508101906129669190613bd2565b92505096509650969350505050565b60016020528060005260406000206000915054906101000a900473ffffffffffffffffffffffffffffffffffffffff1681565b60007f01ffc9a7000000000000000000000000000000000000000000000000000000007bffffffffffffffffffffffffffffffffffffffffffffffffffffffff1916827bffffffffffffffffffffffffffffffffffffffffffffffffffffffff1916149050919050565b600033905090565b612a248282611eee565b612ab357612a498173ffffffffffffffffffffffffffffffffffffffff1660146131ef565b612a578360001c60206131ef565b604051602001612a689291906148ca565b6040516020818303038152906040526040517f08c379a0000000000000000000000000000000000000000000000000000000008152600401612aaa919061494e565b60405180910390fd5b5050565b612ac18282611eee565b612b9357600160008084815260200190815260200160002060000160008373ffffffffffffffffffffffffffffffffffffffff1673ffffffffffffffffffffffffffffffffffffffff16815260200190815260200160002060006101000a81548160ff021916908315150217905550612b38612a12565b73ffffffffffffffffffffffffffffffffffffffff168173ffffffffffffffffffffffffffffffffffffffff16837f2f8788117e7eff1d82e926ec794901d17c78024a50270940304540a733656f0d60405160405180910390a45b5050565b612ba18282611eee565b15612c7457600080600084815260200190815260200160002060000160008373ffffffffffffffffffffffffffffffffffffffff1673ffffffffffffffffffffffffffffffffffffffff16815260200190815260200160002060006101000a81548160ff021916908315150217905550612c19612a12565b73ffffffffffffffffffffffffffffffffffffffff168173ffffffffffffffffffffffffffffffffffffffff16837ff6391f5c32d9c69d2a47ea670b442974b53935d1edc7fd64eb21e047a839171b60405160405180910390a45b5050565b60008073__OptionLibrary_________________________639932b2be8889896040518463ffffffff1660e01b8152600401612cb693929190614693565b602060405180830381865af4158015612cd3573d6000803e3d6000fd5b505050506040513d601f19601f82011682018060405250810190612cf79190613bd2565b73__FullMath______________________________63b3947c1790917f000000000000000000000000000000000000000000000000000000000000000073ffffffffffffffffffffffffffffffffffffffff1663634479026000806040518363ffffffff1660e01b8152600401612d6f929190614222565b602060405180830381865afa158015612d8c573d6000803e3d6000fd5b505050506040513d601f19601f82011682018060405250810190612db09190613bd2565b8a6040518463ffffffff1660e01b8152600401612dcf93929190614693565b602060405180830381865af4158015612dec573d6000803e3d6000fd5b505050506040513d601f19601f82011682018060405250810190612e109190613bd2565b905060007f000000000000000000000000000000000000000000000000000000000000000073ffffffffffffffffffffffffffffffffffffffff16636fe440316040518163ffffffff1660e01b8152600401602060405180830381865afa158015612e7f573d6000803e3d6000fd5b505050506040513d601f19601f82011682018060405250810190612ea3919061499c565b90506000600180811115612eba57612eb9614067565b5b856001811115612ecd57612ecc614067565b5b14612ed9576001612efb565b7fffffffffffffffffffffffffffffffffffffffffffffffffffffffffffffffff5b612ffa73__OptionLibrary_________________________639932b2be8c8b8d6040518463ffffffff1660e01b8152600401612f3993929190614693565b602060405180830381865af4158015612f56573d6000803e3d6000fd5b505050506040513d601f19601f82011682018060405250810190612f7a9190613bd2565b73__FullMath______________________________63fed4a0f390918a6040518363ffffffff1660e01b8152600401612fb492919061425a565b602060405180830381865af4158015612fd1573d6000803e3d6000fd5b505050506040513d601f19601f82011682018060405250810190612ff59190613bd2565b613135565b61300491906149c9565b8261300f91906142f9565b9050600273__OptionLibrary_________________________63fcc14dfd85848c6002546040518563ffffffff1660e01b81526004016130529493929190614aef565b602060405180830381865af415801561306f573d6000803e3d6000fd5b505050506040513d601f19601f82011682018060405250810190613093919061499c565b73__OptionLibrary_________________________63fcc14dfd86868d6002546040518563ffffffff1660e01b81526004016130d29493929190614aef565b602060405180830381865af41580156130ef573d6000803e3d6000fd5b505050506040513d601f19601f82011682018060405250810190613113919061499c565b61311d91906142f9565b6131279190614b63565b935050505095945050505050565b60007f7fffffffffffffffffffffffffffffffffffffffffffffffffffffffffffffff82111561319a576040517f08c379a000000000000000000000000000000000000000000000000000000000815260040161319190614c3f565b60405180910390fd5b819050919050565b6000808212156131e7576040517f08c379a00000000000000000000000000000000000000000000000000000000081526004016131de90614cab565b60405180910390fd5b819050919050565b6060600060028360026132029190614ccb565b61320c9190613fa5565b67ffffffffffffffff81111561322557613224614d25565b5b6040519080825280601f01601f1916602001820160405280156132575781602001600182028036833780820191505090505b5090507f30000000000000000000000000000000000000000000000000000000000000008160008151811061328f5761328e614d54565b5b60200101907effffffffffffffffffffffffffffffffffffffffffffffffffffffffffffff1916908160001a9053507f7800000000000000000000000000000000000000000000000000000000000000816001815181106132f3576132f2614d54565b5b60200101907effffffffffffffffffffffffffffffffffffffffffffffffffffffffffffff1916908160001a905350600060018460026133339190614ccb565b61333d9190613fa5565b90505b60018111156133dd577f3031323334353637383961626364656600000000000000000000000000000000600f86166010811061337f5761337e614d54565b5b1a60f81b82828151811061339657613395614d54565b5b60200101907effffffffffffffffffffffffffffffffffffffffffffffffffffffffffffff1916908160001a905350600485901c9450806133d690614d83565b9050613340565b5060008414613421576040517f08c379a000000000000000000000000000000000000000000000000000000000815260040161341890614df9565b60405180910390fd5b8091505092915050565b600080fd5b60007fffffffff0000000000000000000000000000000000000000000000000000000082169050919050565b61346581613430565b811461347057600080fd5b50565b6000813590506134828161345c565b92915050565b60006020828403121561349e5761349d61342b565b5b60006134ac84828501613473565b91505092915050565b60008115159050919050565b6134ca816134b5565b82525050565b60006020820190506134e560008301846134c1565b92915050565b6000819050919050565b6134fe816134eb565b811461350957600080fd5b50565b60008135905061351b816134f5565b92915050565b600073ffffffffffffffffffffffffffffffffffffffff82169050919050565b600061354c82613521565b9050919050565b61355c81613541565b811461356757600080fd5b50565b60008135905061357981613553565b92915050565b600080604083850312156135965761359561342b565b5b60006135a48582860161350c565b92505060206135b58582860161356a565b9150509250929050565b6000602082840312156135d5576135d461342b565b5b60006135e38482850161350c565b91505092915050565b6135f5816134eb565b82525050565b600060208201905061361060008301846135ec565b92915050565b6000819050919050565b61362981613616565b811461363457600080fd5b50565b60008135905061364681613620565b92915050565b6000602082840312156136625761366161342b565b5b600061367084828501613637565b91505092915050565b61368281613616565b82525050565b600060208201905061369d6000830184613679565b92915050565b600080604083850312156136ba576136b961342b565b5b60006136c885828601613637565b92505060206136d98582860161356a565b9150509250929050565b6136ec81613541565b82525050565b600060208201905061370760008301846136e3565b92915050565b6000806000606084860312156137265761372561342b565b5b60006137348682870161350c565b93505060206137458682870161350c565b92505060406137568682870161350c565b9150509250925092565b6002811061376d57600080fd5b50565b60008135905061377f81613760565b92915050565b6000806000806080858703121561379f5761379e61342b565b5b60006137ad8782880161350c565b94505060206137be8782880161350c565b93505060406137cf87828801613770565b92505060606137e08782880161350c565b91505092959194509250565b600281106137f957600080fd5b50565b60008135905061380b816137ec565b92915050565b600080600080600060a0868803121561382d5761382c61342b565b5b600061383b8882890161350c565b955050602061384c8882890161350c565b945050604061385d8882890161350c565b935050606061386e88828901613770565b925050608061387f888289016137fc565b9150509295509295909350565b60006060820190506138a160008301866135ec565b6138ae60208301856135ec565b6138bb60408301846135ec565b949350505050565b600080600080608085870312156138dd576138dc61342b565b5b60006138eb8782880161350c565b94505060206138fc8782880161350c565b935050604061390d8782880161350c565b925050606061391e878288016137fc565b91505092959194509250565b6000806000606084860312156139435761394261342b565b5b60006139518682870161350c565b93505060206139628682870161350c565b9250506040613973868287016137fc565b9150509250925092565b600060a08201905061399260008301886135ec565b61399f60208301876135ec565b6139ac60408301866135ec565b6139b960608301856135ec565b6139c660808301846135ec565b9695505050505050565b6139d9816134b5565b81146139e457600080fd5b50565b6000813590506139f6816139d0565b92915050565b600060208284031215613a1257613a1161342b565b5b6000613a20848285016139e7565b91505092915050565b60008060008060008060c08789031215613a4657613a4561342b565b5b6000613a5489828a0161350c565b9650506020613a6589828a0161350c565b9550506040613a7689828a0161350c565b9450506060613a8789828a01613770565b9350506080613a9889828a016137fc565b92505060a0613aa989828a0161350c565b9150509295509295509295565b60008060008060008060c08789031215613ad357613ad261342b565b5b6000613ae189828a0161350c565b9650506020613af289828a0161350c565b9550506040613b0389828a0161350c565b9450506060613b1489828a0161350c565b9350506080613b2589828a01613770565b92505060a0613b3689828a016137fc565b9150509295509295509295565b6000819050919050565b6000613b68613b63613b5e84613521565b613b43565b613521565b9050919050565b6000613b7a82613b4d565b9050919050565b6000613b8c82613b6f565b9050919050565b613b9c81613b81565b82525050565b6000602082019050613bb76000830184613b93565b92915050565b600081519050613bcc816134f5565b92915050565b600060208284031215613be857613be761342b565b5b6000613bf684828501613bbd565b91505092915050565b600081519050613c0e81613620565b92915050565b600060208284031215613c2a57613c2961342b565b5b6000613c3884828501613bff565b91505092915050565b600082825260208201905092915050565b7f6d69736d61746368656420746f6b656e20616464726573730000000000000000600082015250565b6000613c88601883613c41565b9150613c9382613c52565b602082019050919050565b60006020820190508181036000830152613cb781613c7b565b9050919050565b7f416363657373436f6e74726f6c3a2063616e206f6e6c792072656e6f756e636560008201527f20726f6c657320666f722073656c660000000000000000000000000000000000602082015250565b6000613d1a602f83613c41565b9150613d2582613cbe565b604082019050919050565b60006020820190508181036000830152613d4981613d0d565b9050919050565b60008060408385031215613d6757613d6661342b565b5b6000613d7585828601613bbd565b9250506020613d8685828601613bbd565b9150509250929050565b7f54726164696e672073746f707065642100000000000000000000000000000000600082015250565b6000613dc6601083613c41565b9150613dd182613d90565b602082019050919050565b60006020820190508181036000830152613df581613db9565b9050919050565b7f436f737420696e636f7272656374000000000000000000000000000000000000600082015250565b6000613e32600e83613c41565b9150613e3d82613dfc565b602082019050919050565b60006020820190508181036000830152613e6181613e25565b9050919050565b6000606082019050613e7d60008301866136e3565b613e8a60208301856136e3565b613e9760408301846135ec565b949350505050565b600081519050613eae816139d0565b92915050565b600060208284031215613eca57613ec961342b565b5b6000613ed884828501613e9f565b91505092915050565b7f766f6c207061796d656e74206572726f72000000000000000000000000000000600082015250565b6000613f17601183613c41565b9150613f2282613ee1565b602082019050919050565b60006020820190508181036000830152613f4681613f0a565b9050919050565b6000604082019050613f6260008301856136e3565b613f6f60208301846135ec565b9392505050565b7f4e487b7100000000000000000000000000000000000000000000000000000000600052601160045260246000fd5b6000613fb0826134eb565b9150613fbb836134eb565b9250827fffffffffffffffffffffffffffffffffffffffffffffffffffffffffffffffff03821115613ff057613fef613f76565b5b828201905092915050565b7f7061796d656e74206572726f7200000000000000000000000000000000000000600082015250565b6000614031600d83613c41565b915061403c82613ffb565b602082019050919050565b6000602082019050818103600083015261406081614024565b9050919050565b7f4e487b7100000000000000000000000000000000000000000000000000000000600052602160045260246000fd5b600281106140a7576140a6614067565b5b50565b60008190506140b882614096565b919050565b60006140c8826140aa565b9050919050565b6140d8816140bd565b82525050565b600281106140ef576140ee614067565b5b50565b6000819050614100826140de565b919050565b6000614110826140f2565b9050919050565b61412081614105565b82525050565b60006101408201905061413c600083018d6135ec565b614149602083018c6135ec565b614156604083018b6135ec565b614163606083018a6140cf565b6141706080830189614117565b61417d60a08301886135ec565b61418a60c08301876135ec565b61419760e08301866135ec565b6141a56101008301856135ec565b6141b36101208301846136e3565b9b9a5050505050505050505050565b60006040820190506141d760008301856135ec565b6141e460208301846136e3565b9392505050565b600060608201905061420060008301866135ec565b61420d60208301856135ec565b61421a60408301846134c1565b949350505050565b600060408201905061423760008301856134c1565b61424460208301846134c1565b9392505050565b614254816134eb565b82525050565b600060408201905061426f600083018561424b565b61427c602083018461424b565b9392505050565b7f696e73756666696369656e74206361706974616c000000000000000000000000600082015250565b60006142b9601483613c41565b91506142c482614283565b602082019050919050565b600060208201905081810360008301526142e8816142ac565b9050919050565b6000819050919050565b6000614304826142ef565b915061430f836142ef565b9250817f7fffffffffffffffffffffffffffffffffffffffffffffffffffffffffffffff0383136000831215161561434a57614349613f76565b5b817f800000000000000000000000000000000000000000000000000000000000000003831260008312161561438257614381613f76565b5b828201905092915050565b7f496e636f727265637420766f6c207072656d69756d0000000000000000000000600082015250565b60006143c3601583613c41565b91506143ce8261438d565b602082019050919050565b600060208201905081810360008301526143f2816143b6565b9050919050565b7f54656e6f72206973206e6f742073657400000000000000000000000000000000600082015250565b600061442f601083613c41565b915061443a826143f9565b602082019050919050565b6000602082019050818103600083015261445e81614422565b9050919050565b600060ff82169050919050565b61447b81614465565b811461448657600080fd5b50565b60008151905061449881614472565b92915050565b6000602082840312156144b4576144b361342b565b5b60006144c284828501614489565b91505092915050565b60006144e66144e16144dc84614465565b613b43565b6134eb565b9050919050565b6144f6816144cb565b82525050565b6000604082019050614511600083018561424b565b61451e60208301846144ed565b9392505050565b61452e816144cb565b82525050565b60006020820190506145496000830184614525565b92915050565b7f547261646520616d6f756e742062656c6f77206d696e696d756d2e0000000000600082015250565b6000614585601b83613c41565b91506145908261454f565b602082019050919050565b600060208201905081810360008301526145b481614578565b9050919050565b7f496e636f727265637420636f737420706169642e000000000000000000000000600082015250565b60006145f1601483613c41565b91506145fc826145bb565b602082019050919050565b60006020820190508181036000830152614620816145e4565b9050919050565b7f4661696c6564207061796d656e742e0000000000000000000000000000000000600082015250565b600061465d600f83613c41565b915061466882614627565b602082019050919050565b6000602082019050818103600083015261468c81614650565b9050919050565b60006060820190506146a8600083018661424b565b6146b5602083018561424b565b6146c2604083018461424b565b949350505050565b6146d3816140bd565b82525050565b600060e0820190506146ee600083018a61424b565b6146fb602083018961424b565b614708604083018861424b565b61471560608301876146ca565b614722608083018661424b565b61472f60a083018561424b565b61473c60c083018461424b565b98975050505050505050565b61475181614105565b82525050565b600060c08201905061476c600083018961424b565b614779602083018861424b565b614786604083018761424b565b61479360608301866146ca565b6147a06080830185614748565b6147ad60a083018461424b565b979650505050505050565b600081905092915050565b7f416363657373436f6e74726f6c3a206163636f756e7420000000000000000000600082015250565b60006147f96017836147b8565b9150614804826147c3565b601782019050919050565b600081519050919050565b60005b8381101561483857808201518184015260208101905061481d565b83811115614847576000848401525b50505050565b60006148588261480f565b61486281856147b8565b935061487281856020860161481a565b80840191505092915050565b7f206973206d697373696e6720726f6c6520000000000000000000000000000000600082015250565b60006148b46011836147b8565b91506148bf8261487e565b601182019050919050565b60006148d5826147ec565b91506148e1828561484d565b91506148ec826148a7565b91506148f8828461484d565b91508190509392505050565b6000601f19601f8301169050919050565b60006149208261480f565b61492a8185613c41565b935061493a81856020860161481a565b61494381614904565b840191505092915050565b600060208201905081810360008301526149688184614915565b905092915050565b614979816142ef565b811461498457600080fd5b50565b60008151905061499681614970565b92915050565b6000602082840312156149b2576149b161342b565b5b60006149c084828501614987565b91505092915050565b60006149d4826142ef565b91506149df836142ef565b9250827f7fffffffffffffffffffffffffffffffffffffffffffffffffffffffffffffff0482116000841360008413161615614a1e57614a1d613f76565b5b817f80000000000000000000000000000000000000000000000000000000000000000583126000841260008413161615614a5b57614a5a613f76565b5b827f80000000000000000000000000000000000000000000000000000000000000000582126000841360008412161615614a9857614a97613f76565b5b827f7fffffffffffffffffffffffffffffffffffffffffffffffffffffffffffffff0582126000841260008412161615614ad557614ad4613f76565b5b828202905092915050565b614ae9816142ef565b82525050565b6000608082019050614b04600083018761424b565b614b116020830186614ae0565b614b1e604083018561424b565b614b2b606083018461424b565b95945050505050565b7f4e487b7100000000000000000000000000000000000000000000000000000000600052601260045260246000fd5b6000614b6e826142ef565b9150614b79836142ef565b925082614b8957614b88614b34565b5b600160000383147f800000000000000000000000000000000000000000000000000000000000000083141615614bc257614bc1613f76565b5b828205905092915050565b7f53616665436173743a2076616c756520646f65736e27742066697420696e206160008201527f6e20696e74323536000000000000000000000000000000000000000000000000602082015250565b6000614c29602883613c41565b9150614c3482614bcd565b604082019050919050565b60006020820190508181036000830152614c5881614c1c565b9050919050565b7f53616665436173743a2076616c7565206d75737420626520706f736974697665600082015250565b6000614c95602083613c41565b9150614ca082614c5f565b602082019050919050565b60006020820190508181036000830152614cc481614c88565b9050919050565b6000614cd6826134eb565b9150614ce1836134eb565b9250817fffffffffffffffffffffffffffffffffffffffffffffffffffffffffffffffff0483118215151615614d1a57614d19613f76565b5b828202905092915050565b7f4e487b7100000000000000000000000000000000000000000000000000000000600052604160045260246000fd5b7f4e487b7100000000000000000000000000000000000000000000000000000000600052603260045260246000fd5b6000614d8e826134eb565b91506000821415614da257614da1613f76565b5b600182039050919050565b7f537472696e67733a20686578206c656e67746820696e73756666696369656e74600082015250565b6000614de3602083613c41565b9150614dee82614dad565b602082019050919050565b60006020820190508181036000830152614e1281614dd6565b905091905056fea26469706673582212206131988cb65e9343306ad91417c7894f6f890b627c569cf40adcbb2dbcfcc49064736f6c634300080b0033",
  "immutableReferences": {
    "2553": [
      {
        "length": 32,
        "start": 4022
      },
      {
        "length": 32,
        "start": 5503
      },
      {
        "length": 32,
        "start": 6568
      },
      {
        "length": 32,
        "start": 8659
      },
      {
        "length": 32,
        "start": 9104
      },
      {
        "length": 32,
        "start": 11541
      }
    ],
    "2556": [
      {
        "length": 32,
        "start": 1897
      },
      {
        "length": 32,
        "start": 3007
      },
      {
        "length": 32,
        "start": 3173
      },
      {
        "length": 32,
        "start": 4441
      },
      {
        "length": 32,
        "start": 4778
      },
      {
        "length": 32,
        "start": 5021
      },
      {
        "length": 32,
        "start": 5200
      },
      {
        "length": 32,
        "start": 5358
      },
      {
        "length": 32,
        "start": 6331
      },
      {
        "length": 32,
        "start": 6761
      },
      {
        "length": 32,
        "start": 7203
      },
      {
        "length": 32,
        "start": 8183
      },
      {
        "length": 32,
        "start": 8422
      },
      {
        "length": 32,
        "start": 8853
      },
      {
        "length": 32,
        "start": 11798
      }
    ],
    "2558": [
      {
        "length": 32,
        "start": 10315
      },
      {
        "length": 32,
        "start": 10473
      }
    ],
    "2563": [
      {
        "length": 32,
        "start": 3379
      },
      {
        "length": 32,
        "start": 3961
      },
      {
        "length": 32,
        "start": 4216
      },
      {
        "length": 32,
        "start": 6508
      },
      {
        "length": 32,
        "start": 8598
      },
      {
        "length": 32,
        "start": 9511
      }
    ]
  },
  "source": "// SPDX-License-Identifier: MIT\npragma solidity ^0.8.0;\n\nimport \"@openzeppelin/contracts/token/ERC20/ERC20.sol\";\nimport \"@openzeppelin/contracts/access/AccessControl.sol\";\nimport \"@openzeppelin/contracts/utils/structs/EnumerableSet.sol\";\nimport \"./VolatilityToken.sol\";\nimport \"./MoretMarketMaker.sol\";\nimport \"./interfaces/EOption.sol\";\n\ncontract Exchange is AccessControl, EOption{\n  using FullMath for uint256;\n  using MarketLibrary for uint256;\n\n  bytes32 public constant ADMIN_ROLE = keccak256(\"ADMIN_ROLE\");\n  mapping(uint256=>VolatilityToken) public volTokenAddressList;\n\n  MoretMarketMaker internal immutable marketMaker;\n  OptionVault internal immutable optionVault;\n  uint256 internal immutable fundingDecimals;\n  uint256 internal immutable underlyingDecimals;\n  ERC20 internal immutable fundingToken;\n\n  uint256 internal constant SECONDS_1Y = 31536000; // 365 * 24 * 60 * 60\n\n  uint256 public volCapacityFactor = 0.5e18;\n  uint256 public minTradeAmount = 1e14;\n  uint256 public loanInterest = 0; // Annualised interest rate in 1e18\n  uint256 public hedgingSlippage = 3e15; // 0.3% for hedging slippage (similar to DEX tx fees)\n  bool public allowTrading = true;\n\n  constructor(MoretMarketMaker _marketMaker, OptionVault _vault){\n    _setupRole(DEFAULT_ADMIN_ROLE, msg.sender);\n    _setupRole(ADMIN_ROLE, msg.sender);\n    optionVault = _vault;\n    marketMaker = _marketMaker;\n    fundingToken = ERC20(_vault.funding());\n    fundingDecimals = ERC20(_vault.funding()).decimals();\n    underlyingDecimals = ERC20(_vault.underlying()).decimals();}\n\n  // Returns premium, costs (if sell option, cost includes collateral) and implied volatility\n  function calcCost(uint256 _tenor, uint256 _strike, uint256 _amount, OptionLibrary.PayoffType _poType, OptionLibrary.OptionSide _side) public view returns(uint256 , uint256 , uint256 ){\n    (uint256 _price,) = optionVault.queryPrice();\n    return calcOptionCost(_tenor, _price, _strike, _amount, _poType, _side);}\n\n  function calcOptionCost(uint256 _tenor, uint256 _price, uint256 _strike, uint256 _amount, OptionLibrary.PayoffType _poType, OptionLibrary.OptionSide _side) public view returns(uint256 _premium, uint256 _cost, uint256 _vol){\n    _vol = queryOptionVolatility(_tenor, _strike, _amount, _side);\n    uint256 _interest = loanInterest.muldiv(_tenor, SECONDS_1Y);\n    _premium = OptionLibrary.calcPremium(_price, _vol, _strike, _poType, _amount, _interest, hedgingSlippage);\n    _cost = OptionLibrary.calcCost(_price, _strike, _amount, _poType, _side, _premium);\n    _premium = _premium.toDecimals(fundingDecimals);\n    _cost = _cost.toDecimals(fundingDecimals);}\n\n  function queryOptionVolatility(uint256 _tenor, uint256 _strike, uint256 _amount, OptionLibrary.OptionSide _side) public view returns(uint256 _vol){  \n    _vol = optionVault.queryVol(_tenor); // running vol\n    (uint256 _price,) = optionVault.queryPrice();\n    require(_amount.ethmul(_price)<=marketMaker.calcCapital(true,false),'insufficient capital');\n    int256 _riskPremium = calcRiskPremium(_price, _vol, _strike, _amount, _side);\n    require((SafeCast.toInt256(_vol)+_riskPremium) > 0,\"Incorrect vol premium\");\n    _vol = SafeCast.toUint256(SafeCast.toInt256(_vol)+_riskPremium);}\n\n  function calcRiskPremium(uint256 _price, uint256 _vol, uint256 _strike, uint256 _amount, OptionLibrary.OptionSide _side) internal view returns(int256) {\n    uint256 _maxGamma = OptionLibrary.calcGamma(_price, _price, _vol).muldiv(marketMaker.calcCapital(false, false), _price);\n    int256 _currentGamma = optionVault.calculateAggregateGamma(); // include sells.\n    int256 _newGamma = _currentGamma + SafeCast.toInt256(OptionLibrary.calcGamma(_price, _strike, _vol).ethmul(_amount)) * (_side==OptionLibrary.OptionSide.Sell? -1: int(1));\n    return (OptionLibrary.calcRiskPremiumAMM(_maxGamma, _currentGamma,  _vol, volCapacityFactor) + OptionLibrary.calcRiskPremiumAMM(_maxGamma, _newGamma, _vol, volCapacityFactor)) / 2;}\n\n  function purchaseOption(uint256 _tenor, uint256 _strike, uint256 _amount, OptionLibrary.PayoffType _poType, OptionLibrary.OptionSide _side, uint256 _payInCost) external {\n    require(allowTrading,\"Trading stopped!\");\n    require(minTradeAmount<= _amount, \"Trade amount below minimum.\");\n    (uint256 _price, ) = optionVault.queryPrice();\n    (uint256 _premium, uint256 _cost, uint256 _vol) = calcOptionCost(_tenor, _price, _strike, _amount, _poType, _side );      \n    require(_payInCost >= _cost, \"Incorrect cost paid.\");\n    uint256 _id = optionVault.addOption(_tenor, _strike, _amount, _poType, _side, _premium, _cost, _price, _vol, msg.sender);\n    require(fundingToken.transferFrom(msg.sender, address(marketMaker), _payInCost), 'Failed payment.');  \n    optionVault.stampActiveOption(_id, msg.sender);\n    emit NewOption(msg.sender, _id, _payInCost, false);}\n\n  function getOptionPayoffValue(uint256 _id) external view returns(uint256 _payback){\n    (,_payback) = optionVault.getContractPayoff(_id);}\n\n  function calcVolAmount(uint256 _tenor, uint256 _amount, OptionLibrary.OptionSide _side) public view returns(uint256 _volAmount, uint256 _vol, uint256 _premium, uint256 _cost, uint256 _price){\n    require(address(volTokenAddressList[_tenor])!=address(0), \"Tenor is not set\");\n    (_price, ) = optionVault.queryPrice();\n    (_premium, _cost, _vol) = calcOptionCost(_tenor, _price, _price, _amount, OptionLibrary.PayoffType.Call, _side); \n    _volAmount = _premium.ethdiv(_vol).toDecimals(volTokenAddressList[_tenor].decimals());}\n\n  function buyVol(uint256 _tenor, uint256 _amount, uint256 _payInCost) external {\n    require(allowTrading,\"Trading stopped!\");\n    (uint256 _volAmount, , uint256 _premium, , ) = calcVolAmount(_tenor, _amount, OptionLibrary.OptionSide.Buy);\n    require(_payInCost >= _premium, \"Cost incorrect\");\n    require(fundingToken.transferFrom(msg.sender, address(this), _premium), \"vol payment error\");\n    volTokenAddressList[_tenor].mint(msg.sender, _volAmount);}\n  \n  function sellVol(uint256 _tenor, uint256 _amount, uint256 _payInVol) external {\n    require(allowTrading,\"Trading stopped!\");\n    (uint256 _volAmount,  ,  uint256 _premium,  ,  ) = calcVolAmount(_tenor, _amount, OptionLibrary.OptionSide.Sell);\n    require(_payInVol >= _volAmount, \"Cost incorrect\");\n\n    volTokenAddressList[_tenor].burn(msg.sender, _volAmount);\n    require(fundingToken.transfer(msg.sender, _premium), \"payment error\");}  \n\n  function buyOptionInVol(uint256 _tenor, uint256 _amount, OptionLibrary.PayoffType _poType, uint256 _payInVol) external {\n    require(allowTrading,\"Trading stopped!\");\n    (uint256 _volAmount, uint256 _vol, uint256 _premium, uint256 _cost, uint256 _price) = calcVolAmount(_tenor, _amount, OptionLibrary.OptionSide.Buy);\n    require(_payInVol >= _volAmount, \"Cost incorrect\");\n\n    volTokenAddressList[_tenor].burn(msg.sender, _volAmount);\n    uint256 _id = optionVault.addOption(_tenor, _price, _amount, _poType, OptionLibrary.OptionSide.Buy, _premium, _cost, _price, _vol, msg.sender);\n    require(fundingToken.transfer(address(marketMaker), _premium), 'payment error');  \n    optionVault.stampActiveOption(_id, msg.sender);\n    emit NewOption(msg.sender, _id, _volAmount, true);}\n\n  function sellOptionInVol(uint256 _tenor, uint256 _amount, OptionLibrary.PayoffType _poType, uint256 _payInCost) external {\n    require(allowTrading,\"Trading stopped!\");\n    (uint256 _volAmount, uint256 _vol, uint256 _premium, uint256 _cost, uint256 _price) = calcVolAmount(_tenor, _amount, OptionLibrary.OptionSide.Sell);\n    uint256 _totalCost = _premium + _cost;\n    require(_payInCost >= _totalCost, \"Cost incorrect\");\n\n    require(fundingToken.transferFrom(msg.sender, address(marketMaker), _cost), 'payment error'); \n    require(fundingToken.transferFrom(msg.sender, address(this), _premium), 'payment error');  \n    uint256 _id = optionVault.addOption(_tenor, _price, _amount, _poType, OptionLibrary.OptionSide.Sell, _premium, _cost, _price, _vol, msg.sender);\n    volTokenAddressList[_tenor].mint(msg.sender, _volAmount);\n    optionVault.stampActiveOption(_id, msg.sender);\n    emit NewOption(msg.sender, _id, _volAmount, true);}\n\n  function addVolToken(uint256 _tenor, address _tokenAddress) external onlyRole(ADMIN_ROLE){ \n    require(VolatilityToken(_tokenAddress).tenor()==_tenor && VolatilityToken(_tokenAddress).tokenHash()==optionVault.tokenHash(), 'mismatched token address');\n    volTokenAddressList[_tenor] = VolatilityToken(_tokenAddress);\n    emit VolTokenAddition(_tenor, _tokenAddress); }\n\n  function removeVolToken(uint256 _tenor) external onlyRole(ADMIN_ROLE){ \n    volTokenAddressList[_tenor] = VolatilityToken(address(0));\n    emit VolTokenRemoved(_tenor);}\n\n  function vaultAddress() external view returns(address){return address(optionVault);}\n  function marketMakerAddress() external view returns(address) {return address(marketMaker);}\n\n  function resetLoanRate(uint256 _loanInterest) external onlyRole(ADMIN_ROLE){ \n    loanInterest = _loanInterest;\n    emit ResetParameter(100, _loanInterest);}\n\n  function resetVolCapacityFactor(uint256 _newFactor) external onlyRole(ADMIN_ROLE){ \n    volCapacityFactor =_newFactor;\n    emit ResetParameter(101, _newFactor);}\n\n  function resetMinAmount(uint256 _newAmount) external onlyRole(ADMIN_ROLE){\n    minTradeAmount = _newAmount;\n    emit ResetParameter(102, _newAmount);\n  }\n\n  function resetTrading(bool _allowTrading) external onlyRole(DEFAULT_ADMIN_ROLE) {\n    allowTrading=_allowTrading;\n    emit ResetParameter(102, _allowTrading ? 1 : 0);}\n\n}\n",
  "sourcePath": "/Users/sen/Documents/GitHub/moret/contracts/Exchange.sol",
  "compiler": {
    "name": "solc",
    "version": "0.8.11+commit.d7f03943.Emscripten.clang"
  },
  "schemaVersion": "3.4.4",
  "updatedAt": "2022-02-02T01:09:36.339Z",
  "networkType": "ethereum",
  "devdoc": {
    "kind": "dev",
    "methods": {
      "getRoleAdmin(bytes32)": {
        "details": "Returns the admin role that controls `role`. See {grantRole} and {revokeRole}. To change a role's admin, use {_setRoleAdmin}."
      },
      "grantRole(bytes32,address)": {
        "details": "Grants `role` to `account`. If `account` had not been already granted `role`, emits a {RoleGranted} event. Requirements: - the caller must have ``role``'s admin role."
      },
      "hasRole(bytes32,address)": {
        "details": "Returns `true` if `account` has been granted `role`."
      },
      "renounceRole(bytes32,address)": {
        "details": "Revokes `role` from the calling account. Roles are often managed via {grantRole} and {revokeRole}: this function's purpose is to provide a mechanism for accounts to lose their privileges if they are compromised (such as when a trusted device is misplaced). If the calling account had been revoked `role`, emits a {RoleRevoked} event. Requirements: - the caller must be `account`."
      },
      "revokeRole(bytes32,address)": {
        "details": "Revokes `role` from `account`. If `account` had been granted `role`, emits a {RoleRevoked} event. Requirements: - the caller must have ``role``'s admin role."
      },
      "supportsInterface(bytes4)": {
        "details": "See {IERC165-supportsInterface}."
      }
    },
    "version": 1
  },
  "userdoc": {
    "kind": "user",
    "methods": {},
    "version": 1
  }
}