{
  "contractName": "GovernanceToken",
  "abi": [
    {
      "inputs": [
        {
          "internalType": "string",
          "name": "_name",
          "type": "string"
        },
        {
          "internalType": "string",
          "name": "_symbol",
          "type": "string"
        }
      ],
      "stateMutability": "nonpayable",
      "type": "constructor"
    },
    {
      "anonymous": false,
      "inputs": [
        {
          "indexed": true,
          "internalType": "address",
          "name": "owner",
          "type": "address"
        },
        {
          "indexed": true,
          "internalType": "address",
          "name": "spender",
          "type": "address"
        },
        {
          "indexed": false,
          "internalType": "uint256",
          "name": "value",
          "type": "uint256"
        }
      ],
      "name": "Approval",
      "type": "event"
    },
    {
      "anonymous": false,
      "inputs": [
        {
          "indexed": true,
          "internalType": "address",
          "name": "previousOwner",
          "type": "address"
        },
        {
          "indexed": true,
          "internalType": "address",
          "name": "newOwner",
          "type": "address"
        }
      ],
      "name": "OwnershipTransferred",
      "type": "event"
    },
    {
      "anonymous": false,
      "inputs": [
        {
          "indexed": true,
          "internalType": "bytes32",
          "name": "role",
          "type": "bytes32"
        },
        {
          "indexed": true,
          "internalType": "bytes32",
          "name": "previousAdminRole",
          "type": "bytes32"
        },
        {
          "indexed": true,
          "internalType": "bytes32",
          "name": "newAdminRole",
          "type": "bytes32"
        }
      ],
      "name": "RoleAdminChanged",
      "type": "event"
    },
    {
      "anonymous": false,
      "inputs": [
        {
          "indexed": true,
          "internalType": "bytes32",
          "name": "role",
          "type": "bytes32"
        },
        {
          "indexed": true,
          "internalType": "address",
          "name": "account",
          "type": "address"
        },
        {
          "indexed": true,
          "internalType": "address",
          "name": "sender",
          "type": "address"
        }
      ],
      "name": "RoleGranted",
      "type": "event"
    },
    {
      "anonymous": false,
      "inputs": [
        {
          "indexed": true,
          "internalType": "bytes32",
          "name": "role",
          "type": "bytes32"
        },
        {
          "indexed": true,
          "internalType": "address",
          "name": "account",
          "type": "address"
        },
        {
          "indexed": true,
          "internalType": "address",
          "name": "sender",
          "type": "address"
        }
      ],
      "name": "RoleRevoked",
      "type": "event"
    },
    {
      "anonymous": false,
      "inputs": [
        {
          "indexed": true,
          "internalType": "address",
          "name": "from",
          "type": "address"
        },
        {
          "indexed": true,
          "internalType": "address",
          "name": "to",
          "type": "address"
        },
        {
          "indexed": false,
          "internalType": "uint256",
          "name": "value",
          "type": "uint256"
        }
      ],
      "name": "Transfer",
      "type": "event"
    },
    {
      "anonymous": false,
      "inputs": [
        {
          "indexed": false,
          "internalType": "uint256",
          "name": "_amount",
          "type": "uint256"
        }
      ],
      "name": "cashSweep",
      "type": "event"
    },
    {
      "anonymous": false,
      "inputs": [
        {
          "indexed": false,
          "internalType": "uint256",
          "name": "_fee",
          "type": "uint256"
        }
      ],
      "name": "newGovernanceFees",
      "type": "event"
    },
    {
      "anonymous": false,
      "inputs": [
        {
          "indexed": false,
          "internalType": "string",
          "name": "_underlying",
          "type": "string"
        },
        {
          "indexed": false,
          "internalType": "uint256",
          "name": "_tenor",
          "type": "uint256"
        },
        {
          "indexed": false,
          "internalType": "address",
          "name": "_tokenAddress",
          "type": "address"
        }
      ],
      "name": "newVolatilityToken",
      "type": "event"
    },
    {
      "anonymous": false,
      "inputs": [
        {
          "indexed": false,
          "internalType": "address",
          "name": "_buyer",
          "type": "address"
        },
        {
          "indexed": false,
          "internalType": "uint256",
          "name": "_amout",
          "type": "uint256"
        },
        {
          "indexed": false,
          "internalType": "uint256",
          "name": "_cost",
          "type": "uint256"
        },
        {
          "indexed": false,
          "internalType": "uint256",
          "name": "_fee",
          "type": "uint256"
        }
      ],
      "name": "volatilityTokenPurchased",
      "type": "event"
    },
    {
      "inputs": [],
      "name": "ADMIN_ROLE",
      "outputs": [
        {
          "internalType": "bytes32",
          "name": "",
          "type": "bytes32"
        }
      ],
      "stateMutability": "view",
      "type": "function"
    },
    {
      "inputs": [],
      "name": "DEFAULT_ADMIN_ROLE",
      "outputs": [
        {
          "internalType": "bytes32",
          "name": "",
          "type": "bytes32"
        }
      ],
      "stateMutability": "view",
      "type": "function"
    },
    {
      "inputs": [
        {
          "internalType": "address",
          "name": "owner",
          "type": "address"
        },
        {
          "internalType": "address",
          "name": "spender",
          "type": "address"
        }
      ],
      "name": "allowance",
      "outputs": [
        {
          "internalType": "uint256",
          "name": "",
          "type": "uint256"
        }
      ],
      "stateMutability": "view",
      "type": "function"
    },
    {
      "inputs": [
        {
          "internalType": "address",
          "name": "spender",
          "type": "address"
        },
        {
          "internalType": "uint256",
          "name": "amount",
          "type": "uint256"
        }
      ],
      "name": "approve",
      "outputs": [
        {
          "internalType": "bool",
          "name": "",
          "type": "bool"
        }
      ],
      "stateMutability": "nonpayable",
      "type": "function"
    },
    {
      "inputs": [
        {
          "internalType": "address",
          "name": "account",
          "type": "address"
        }
      ],
      "name": "balanceOf",
      "outputs": [
        {
          "internalType": "uint256",
          "name": "",
          "type": "uint256"
        }
      ],
      "stateMutability": "view",
      "type": "function"
    },
    {
      "inputs": [],
      "name": "decimals",
      "outputs": [
        {
          "internalType": "uint8",
          "name": "",
          "type": "uint8"
        }
      ],
      "stateMutability": "view",
      "type": "function"
    },
    {
      "inputs": [
        {
          "internalType": "address",
          "name": "spender",
          "type": "address"
        },
        {
          "internalType": "uint256",
          "name": "subtractedValue",
          "type": "uint256"
        }
      ],
      "name": "decreaseAllowance",
      "outputs": [
        {
          "internalType": "bool",
          "name": "",
          "type": "bool"
        }
      ],
      "stateMutability": "nonpayable",
      "type": "function"
    },
    {
      "inputs": [
        {
          "internalType": "bytes32",
          "name": "role",
          "type": "bytes32"
        }
      ],
      "name": "getRoleAdmin",
      "outputs": [
        {
          "internalType": "bytes32",
          "name": "",
          "type": "bytes32"
        }
      ],
      "stateMutability": "view",
      "type": "function"
    },
    {
      "inputs": [],
      "name": "governanceFees",
      "outputs": [
        {
          "internalType": "uint256",
          "name": "",
          "type": "uint256"
        }
      ],
      "stateMutability": "view",
      "type": "function"
    },
    {
      "inputs": [
        {
          "internalType": "bytes32",
          "name": "role",
          "type": "bytes32"
        },
        {
          "internalType": "address",
          "name": "account",
          "type": "address"
        }
      ],
      "name": "grantRole",
      "outputs": [],
      "stateMutability": "nonpayable",
      "type": "function"
    },
    {
      "inputs": [
        {
          "internalType": "bytes32",
          "name": "role",
          "type": "bytes32"
        },
        {
          "internalType": "address",
          "name": "account",
          "type": "address"
        }
      ],
      "name": "hasRole",
      "outputs": [
        {
          "internalType": "bool",
          "name": "",
          "type": "bool"
        }
      ],
      "stateMutability": "view",
      "type": "function"
    },
    {
      "inputs": [
        {
          "internalType": "address",
          "name": "spender",
          "type": "address"
        },
        {
          "internalType": "uint256",
          "name": "addedValue",
          "type": "uint256"
        }
      ],
      "name": "increaseAllowance",
      "outputs": [
        {
          "internalType": "bool",
          "name": "",
          "type": "bool"
        }
      ],
      "stateMutability": "nonpayable",
      "type": "function"
    },
    {
      "inputs": [],
      "name": "loanDayBase",
      "outputs": [
        {
          "internalType": "uint256",
          "name": "",
          "type": "uint256"
        }
      ],
      "stateMutability": "view",
      "type": "function"
    },
    {
      "inputs": [],
      "name": "loanFees",
      "outputs": [
        {
          "internalType": "uint256",
          "name": "",
          "type": "uint256"
        }
      ],
      "stateMutability": "view",
      "type": "function"
    },
    {
      "inputs": [],
      "name": "name",
      "outputs": [
        {
          "internalType": "string",
          "name": "",
          "type": "string"
        }
      ],
      "stateMutability": "view",
      "type": "function"
    },
    {
      "inputs": [],
      "name": "owner",
      "outputs": [
        {
          "internalType": "address",
          "name": "",
          "type": "address"
        }
      ],
      "stateMutability": "view",
      "type": "function"
    },
    {
      "inputs": [],
      "name": "pctDenominator",
      "outputs": [
        {
          "internalType": "uint256",
          "name": "",
          "type": "uint256"
        }
      ],
      "stateMutability": "view",
      "type": "function"
    },
    {
      "inputs": [],
      "name": "renounceOwnership",
      "outputs": [],
      "stateMutability": "nonpayable",
      "type": "function"
    },
    {
      "inputs": [
        {
          "internalType": "bytes32",
          "name": "role",
          "type": "bytes32"
        },
        {
          "internalType": "address",
          "name": "account",
          "type": "address"
        }
      ],
      "name": "renounceRole",
      "outputs": [],
      "stateMutability": "nonpayable",
      "type": "function"
    },
    {
      "inputs": [
        {
          "internalType": "bytes32",
          "name": "role",
          "type": "bytes32"
        },
        {
          "internalType": "address",
          "name": "account",
          "type": "address"
        }
      ],
      "name": "revokeRole",
      "outputs": [],
      "stateMutability": "nonpayable",
      "type": "function"
    },
    {
      "inputs": [
        {
          "internalType": "bytes4",
          "name": "interfaceId",
          "type": "bytes4"
        }
      ],
      "name": "supportsInterface",
      "outputs": [
        {
          "internalType": "bool",
          "name": "",
          "type": "bool"
        }
      ],
      "stateMutability": "view",
      "type": "function"
    },
    {
      "inputs": [],
      "name": "symbol",
      "outputs": [
        {
          "internalType": "string",
          "name": "",
          "type": "string"
        }
      ],
      "stateMutability": "view",
      "type": "function"
    },
    {
      "inputs": [],
      "name": "totalSupply",
      "outputs": [
        {
          "internalType": "uint256",
          "name": "",
          "type": "uint256"
        }
      ],
      "stateMutability": "view",
      "type": "function"
    },
    {
      "inputs": [
        {
          "internalType": "address",
          "name": "recipient",
          "type": "address"
        },
        {
          "internalType": "uint256",
          "name": "amount",
          "type": "uint256"
        }
      ],
      "name": "transfer",
      "outputs": [
        {
          "internalType": "bool",
          "name": "",
          "type": "bool"
        }
      ],
      "stateMutability": "nonpayable",
      "type": "function"
    },
    {
      "inputs": [
        {
          "internalType": "address",
          "name": "sender",
          "type": "address"
        },
        {
          "internalType": "address",
          "name": "recipient",
          "type": "address"
        },
        {
          "internalType": "uint256",
          "name": "amount",
          "type": "uint256"
        }
      ],
      "name": "transferFrom",
      "outputs": [
        {
          "internalType": "bool",
          "name": "",
          "type": "bool"
        }
      ],
      "stateMutability": "nonpayable",
      "type": "function"
    },
    {
      "inputs": [
        {
          "internalType": "address",
          "name": "newOwner",
          "type": "address"
        }
      ],
      "name": "transferOwnership",
      "outputs": [],
      "stateMutability": "nonpayable",
      "type": "function"
    },
    {
      "inputs": [
        {
          "internalType": "bytes32",
          "name": "",
          "type": "bytes32"
        }
      ],
      "name": "volChainList",
      "outputs": [
        {
          "internalType": "contract VolatilityChain",
          "name": "",
          "type": "address"
        }
      ],
      "stateMutability": "view",
      "type": "function"
    },
    {
      "inputs": [
        {
          "internalType": "bytes32",
          "name": "",
          "type": "bytes32"
        },
        {
          "internalType": "uint256",
          "name": "",
          "type": "uint256"
        }
      ],
      "name": "volTokensList",
      "outputs": [
        {
          "internalType": "contract VolatilityToken",
          "name": "",
          "type": "address"
        }
      ],
      "stateMutability": "view",
      "type": "function"
    },
    {
      "stateMutability": "payable",
      "type": "receive"
    },
    {
      "inputs": [
        {
          "internalType": "string",
          "name": "_underlying",
          "type": "string"
        },
        {
          "internalType": "uint256",
          "name": "_tenor",
          "type": "uint256"
        },
        {
          "internalType": "uint256",
          "name": "_volAmount",
          "type": "uint256"
        }
      ],
      "name": "getVolatilityQuote",
      "outputs": [
        {
          "internalType": "uint256",
          "name": "",
          "type": "uint256"
        },
        {
          "internalType": "uint256",
          "name": "",
          "type": "uint256"
        }
      ],
      "stateMutability": "view",
      "type": "function"
    },
    {
      "inputs": [
        {
          "internalType": "string",
          "name": "_underlying",
          "type": "string"
        },
        {
          "internalType": "uint256",
          "name": "_tenor",
          "type": "uint256"
        },
        {
          "internalType": "uint256",
          "name": "_ethAmount",
          "type": "uint256"
        }
      ],
      "name": "getVolatilityAmount",
      "outputs": [
        {
          "internalType": "uint256",
          "name": "",
          "type": "uint256"
        },
        {
          "internalType": "uint256",
          "name": "",
          "type": "uint256"
        }
      ],
      "stateMutability": "view",
      "type": "function"
    },
    {
      "inputs": [
        {
          "internalType": "string",
          "name": "_underlying",
          "type": "string"
        },
        {
          "internalType": "uint256",
          "name": "_tenor",
          "type": "uint256"
        }
      ],
      "name": "purchaseVolatilityToken",
      "outputs": [],
      "stateMutability": "payable",
      "type": "function"
    },
    {
      "inputs": [
        {
          "internalType": "string",
          "name": "_underlying",
          "type": "string"
        },
        {
          "internalType": "address",
          "name": "_volChainAddress",
          "type": "address"
        }
      ],
      "name": "addVolChain",
      "outputs": [],
      "stateMutability": "nonpayable",
      "type": "function"
    },
    {
      "inputs": [
        {
          "internalType": "string",
          "name": "_underlying",
          "type": "string"
        },
        {
          "internalType": "uint256",
          "name": "_tenor",
          "type": "uint256"
        },
        {
          "internalType": "address payable",
          "name": "_tokenAddress",
          "type": "address"
        }
      ],
      "name": "addVolToken",
      "outputs": [],
      "stateMutability": "nonpayable",
      "type": "function"
    },
    {
      "inputs": [
        {
          "internalType": "uint256",
          "name": "_tenor",
          "type": "uint256"
        }
      ],
      "name": "removeTenor",
      "outputs": [],
      "stateMutability": "nonpayable",
      "type": "function"
    },
    {
      "inputs": [
        {
          "internalType": "string",
          "name": "_underlying",
          "type": "string"
        }
      ],
      "name": "hasVolToken",
      "outputs": [
        {
          "internalType": "bool",
          "name": "",
          "type": "bool"
        }
      ],
      "stateMutability": "view",
      "type": "function"
    },
    {
      "inputs": [
        {
          "internalType": "uint256",
          "name": "_fee",
          "type": "uint256"
        }
      ],
      "name": "resetGovernanceFees",
      "outputs": [],
      "stateMutability": "nonpayable",
      "type": "function"
    },
    {
      "inputs": [],
      "name": "sweepBalance",
      "outputs": [],
      "stateMutability": "nonpayable",
      "type": "function"
    }
  ],
  "bytecode": "0x6080604052612710600f5562030d406010556301e133806011553480156200002657600080fd5b5060405162004ddd38038062004ddd83398181016040528101906200004c919062000601565b8181816003908051906020019062000066929190620004d3565b5080600490805190602001906200007f929190620004d3565b505050600062000094620001ee60201b60201c565b905080600560006101000a81548173ffffffffffffffffffffffffffffffffffffffff021916908373ffffffffffffffffffffffffffffffffffffffff1602179055508073ffffffffffffffffffffffffffffffffffffffff16600073ffffffffffffffffffffffffffffffffffffffff167f8be0079c531659141344cd1fd0a4f28419497f9722a3daafe3b4186f6b6457e060405160405180910390a35030600760006101000a81548173ffffffffffffffffffffffffffffffffffffffff021916908373ffffffffffffffffffffffffffffffffffffffff160217905550620001b4600760009054906101000a900473ffffffffffffffffffffffffffffffffffffffff166b204fce5e3e25026110000000620001f660201b60201c565b620001e67fa49807205ce4d355092ef5a8a18f56e8913cf4a201fbe287825b095693c21775336200035b60201b60201c565b505062000951565b600033905090565b600073ffffffffffffffffffffffffffffffffffffffff168273ffffffffffffffffffffffffffffffffffffffff16141562000269576040517f08c379a00000000000000000000000000000000000000000000000000000000081526004016200026090620006be565b60405180910390fd5b6200027d600083836200037160201b60201c565b80600260008282546200029191906200076d565b92505081905550806000808473ffffffffffffffffffffffffffffffffffffffff1673ffffffffffffffffffffffffffffffffffffffff1681526020019081526020016000206000828254620002e891906200076d565b925050819055508173ffffffffffffffffffffffffffffffffffffffff16600073ffffffffffffffffffffffffffffffffffffffff167fddf252ad1be2c89b69c2b068fc378daa952ba7f163c4a11628f55a4df523b3ef836040516200034f9190620006e0565b60405180910390a35050565b6200036d82826200037660201b60201c565b5050565b505050565b6200038882826200046860201b60201c565b620004645760016006600084815260200190815260200160002060000160008373ffffffffffffffffffffffffffffffffffffffff1673ffffffffffffffffffffffffffffffffffffffff16815260200190815260200160002060006101000a81548160ff02191690831515021790555062000409620001ee60201b60201c565b73ffffffffffffffffffffffffffffffffffffffff168173ffffffffffffffffffffffffffffffffffffffff16837f2f8788117e7eff1d82e926ec794901d17c78024a50270940304540a733656f0d60405160405180910390a45b5050565b60006006600084815260200190815260200160002060000160008373ffffffffffffffffffffffffffffffffffffffff1673ffffffffffffffffffffffffffffffffffffffff16815260200190815260200160002060009054906101000a900460ff16905092915050565b828054620004e1906200080a565b90600052602060002090601f01602090048101928262000505576000855562000551565b82601f106200052057805160ff191683800117855562000551565b8280016001018555821562000551579182015b828111156200055057825182559160200191906001019062000533565b5b50905062000560919062000564565b5090565b5b808211156200057f57600081600090555060010162000565565b5090565b60006200059a620005948462000726565b620006fd565b905082815260208101848484011115620005b957620005b862000908565b5b620005c6848285620007d4565b509392505050565b600082601f830112620005e657620005e562000903565b5b8151620005f884826020860162000583565b91505092915050565b600080604083850312156200061b576200061a62000912565b5b600083015167ffffffffffffffff8111156200063c576200063b6200090d565b5b6200064a85828601620005ce565b925050602083015167ffffffffffffffff8111156200066e576200066d6200090d565b5b6200067c85828601620005ce565b9150509250929050565b600062000695601f836200075c565b9150620006a28262000928565b602082019050919050565b620006b881620007ca565b82525050565b60006020820190508181036000830152620006d98162000686565b9050919050565b6000602082019050620006f76000830184620006ad565b92915050565b6000620007096200071c565b905062000717828262000840565b919050565b6000604051905090565b600067ffffffffffffffff821115620007445762000743620008d4565b5b6200074f8262000917565b9050602081019050919050565b600082825260208201905092915050565b60006200077a82620007ca565b91506200078783620007ca565b9250827fffffffffffffffffffffffffffffffffffffffffffffffffffffffffffffffff03821115620007bf57620007be62000876565b5b828201905092915050565b6000819050919050565b60005b83811015620007f4578082015181840152602081019050620007d7565b8381111562000804576000848401525b50505050565b600060028204905060018216806200082357607f821691505b602082108114156200083a5762000839620008a5565b5b50919050565b6200084b8262000917565b810181811067ffffffffffffffff821117156200086d576200086c620008d4565b5b80604052505050565b7f4e487b7100000000000000000000000000000000000000000000000000000000600052601160045260246000fd5b7f4e487b7100000000000000000000000000000000000000000000000000000000600052602260045260246000fd5b7f4e487b7100000000000000000000000000000000000000000000000000000000600052604160045260246000fd5b600080fd5b600080fd5b600080fd5b600080fd5b6000601f19601f8301169050919050565b7f45524332303a206d696e7420746f20746865207a65726f206164647265737300600082015250565b61447c80620009616000396000f3fe60806040526004361061021e5760003560e01c80636708794a11610123578063a18dc75e116100ab578063d547741f1161006f578063d547741f14610845578063dd62ed3e1461086e578063e32059c1146108ab578063f2fde38b146108d6578063fd27195f146108ff57610225565b8063a18dc75e1461074c578063a217fddf14610789578063a457c2d7146107b4578063a9059cbb146107f1578063c3513f6d1461082e57610225565b80638da5cb5b116100f25780638da5cb5b1461065057806391d148541461067b578063921e9745146106b857806395d89b41146106f65780639dc56d941461072157610225565b80636708794a146105a857806370a08231146105d1578063715018a61461060e57806375b238fc1461062557610225565b8063248a9ca3116101a6578063313ce56711610175578063313ce5671461049d578063340462ed146104c857806336568abe14610505578063395093511461052e57806364879e411461056b57610225565b8063248a9ca3146103e5578063285f9457146104225780632e107efd1461044b5780632f2ff15d1461047457610225565b806314f35fb3116101ed57806314f35fb3146102eb57806318160ddd146103295780631e20ed2814610354578063216c24901461037d57806323b872dd146103a857610225565b806301ffc9a71461022a57806306fdde0314610267578063091152c714610292578063095ea7b3146102ae57610225565b3661022557005b600080fd5b34801561023657600080fd5b50610251600480360381019061024c91906131c0565b61092a565b60405161025e9190613894565b60405180910390f35b34801561027357600080fd5b5061027c6109a4565b6040516102899190613900565b60405180910390f35b6102ac60048036038101906102a79190613292565b610a36565b005b3480156102ba57600080fd5b506102d560048036038101906102d091906130a6565b610c43565b6040516102e29190613894565b60405180910390f35b3480156102f757600080fd5b50610312600480360381019061030d919061335d565b610c61565b604051610320929190613b1b565b60405180910390f35b34801561033557600080fd5b5061033e610f34565b60405161034b9190613b00565b60405180910390f35b34801561036057600080fd5b5061037b600480360381019061037691906133cc565b610f3e565b005b34801561038957600080fd5b50610392610fb2565b60405161039f9190613b00565b60405180910390f35b3480156103b457600080fd5b506103cf60048036038101906103ca9190613053565b610fb8565b6040516103dc9190613894565b60405180910390f35b3480156103f157600080fd5b5061040c600480360381019061040791906130e6565b6110b9565b60405161041991906138af565b60405180910390f35b34801561042e57600080fd5b50610449600480360381019061044491906133cc565b6110d9565b005b34801561045757600080fd5b50610472600480360381019061046d9190613236565b611141565b005b34801561048057600080fd5b5061049b60048036038101906104969190613140565b6112ad565b005b3480156104a957600080fd5b506104b26112d6565b6040516104bf9190613b7b565b60405180910390f35b3480156104d457600080fd5b506104ef60048036038101906104ea9190613180565b6112df565b6040516104fc91906138e5565b60405180910390f35b34801561051157600080fd5b5061052c60048036038101906105279190613140565b611321565b005b34801561053a57600080fd5b50610555600480360381019061055091906130a6565b6113a4565b6040516105629190613894565b60405180910390f35b34801561057757600080fd5b50610592600480360381019061058d91906131ed565b611450565b60405161059f9190613894565b60405180910390f35b3480156105b457600080fd5b506105cf60048036038101906105ca91906132ee565b611493565b005b3480156105dd57600080fd5b506105f860048036038101906105f39190612fe6565b611767565b6040516106059190613b00565b60405180910390f35b34801561061a57600080fd5b506106236117af565b005b34801561063157600080fd5b5061063a6118ec565b60405161064791906138af565b60405180910390f35b34801561065c57600080fd5b50610665611910565b604051610672919061380b565b60405180910390f35b34801561068757600080fd5b506106a2600480360381019061069d9190613140565b61193a565b6040516106af9190613894565b60405180910390f35b3480156106c457600080fd5b506106df60048036038101906106da919061335d565b6119a5565b6040516106ed929190613b1b565b60405180910390f35b34801561070257600080fd5b5061070b611ca5565b6040516107189190613900565b60405180910390f35b34801561072d57600080fd5b50610736611d37565b6040516107439190613b00565b60405180910390f35b34801561075857600080fd5b50610773600480360381019061076e91906130e6565b611d3e565b60405161078091906138ca565b60405180910390f35b34801561079557600080fd5b5061079e611d71565b6040516107ab91906138af565b60405180910390f35b3480156107c057600080fd5b506107db60048036038101906107d691906130a6565b611d78565b6040516107e89190613894565b60405180910390f35b3480156107fd57600080fd5b50610818600480360381019061081391906130a6565b611e6c565b6040516108259190613894565b60405180910390f35b34801561083a57600080fd5b50610843611e8a565b005b34801561085157600080fd5b5061086c60048036038101906108679190613140565b611ff2565b005b34801561087a57600080fd5b5061089560048036038101906108909190613013565b61201b565b6040516108a29190613b00565b60405180910390f35b3480156108b757600080fd5b506108c06120a2565b6040516108cd9190613b00565b60405180910390f35b3480156108e257600080fd5b506108fd60048036038101906108f89190612fe6565b6120a8565b005b34801561090b57600080fd5b50610914612254565b6040516109219190613b00565b60405180910390f35b60007f7965db0b000000000000000000000000000000000000000000000000000000007bffffffffffffffffffffffffffffffffffffffffffffffffffffffff1916827bffffffffffffffffffffffffffffffffffffffffffffffffffffffff1916148061099d575061099c8261225a565b5b9050919050565b6060600380546109b390613e89565b80601f01602080910402602001604051908101604052809291908181526020018280546109df90613e89565b8015610a2c5780601f10610a0157610100808354040283529160200191610a2c565b820191906000526020600020905b815481529060010190602001808311610a0f57829003601f168201915b5050505050905090565b600080610a448484346119a5565b915091506000600760009054906101000a900473ffffffffffffffffffffffffffffffffffffffff1673ffffffffffffffffffffffffffffffffffffffff1634604051610a90906137bc565b60006040518083038185875af1925050503d8060008114610acd576040519150601f19603f3d011682016040523d82523d6000602084013e610ad2565b606091505b5050905080610b16576040517f08c379a0000000000000000000000000000000000000000000000000000000008152600401610b0d90613a60565b60405180910390fd5b600085604051602001610b2991906137a5565b604051602081830303815290604052805190602001209050600d6000828152602001908152602001600020600086815260200190815260200160002060009054906101000a900473ffffffffffffffffffffffffffffffffffffffff1673ffffffffffffffffffffffffffffffffffffffff166340c10f198434610bad9190613cce565b33876040518463ffffffff1660e01b8152600401610bcc929190613826565b6000604051808303818588803b158015610be557600080fd5b505af1158015610bf9573d6000803e3d6000fd5b50505050507f8b18deef4f7095ff8e0d5807297d88a3e0001abe742fd52a9b8ef98311e4e3d333853486604051610c33949392919061384f565b60405180910390a1505050505050565b6000610c57610c506122c4565b84846122cc565b6001905092915050565b600080600085604051602001610c7791906137a5565b604051602081830303815290604052805190602001209050610ca381600861249790919063ffffffff16565b610cac57600080fd5b610cc085600a6124ae90919063ffffffff16565b610cc957600080fd5b6000600c600083815260200190815260200160002060009054906101000a900473ffffffffffffffffffffffffffffffffffffffff1673ffffffffffffffffffffffffffffffffffffffff1663b0667cf86040518163ffffffff1660e01b8152600401604080518083038186803b158015610d4357600080fd5b505afa158015610d57573d6000803e3d6000fd5b505050506040513d601f19601f82011682018060405250810190610d7b9190613426565b5090506000600c600084815260200190815260200160002060009054906101000a900473ffffffffffffffffffffffffffffffffffffffff1673ffffffffffffffffffffffffffffffffffffffff1663040b030f886040518263ffffffff1660e01b8152600401610dec9190613b00565b60206040518083038186803b158015610e0457600080fd5b505afa158015610e18573d6000803e3d6000fd5b505050506040513d601f19601f82011682018060405250810190610e3c91906133f9565b90506000600d6000858152602001908152602001600020600089815260200190815260200160002060009054906101000a900473ffffffffffffffffffffffffffffffffffffffff1673ffffffffffffffffffffffffffffffffffffffff166362c5c1198885856040518463ffffffff1660e01b8152600401610ec193929190613b44565b60206040518083038186803b158015610ed957600080fd5b505afa158015610eed573d6000803e3d6000fd5b505050506040513d601f19601f82011682018060405250810190610f1191906133f9565b905080610f2482600f54620f42406124c8565b9550955050505050935093915050565b6000600254905090565b7fa49807205ce4d355092ef5a8a18f56e8913cf4a201fbe287825b095693c21775610f7081610f6b6122c4565b6125c4565b81600f819055507f500c80bd9b6a860d5773840a11c8dafaf360016284c941a068837b1ebbdc68ce82604051610fa69190613b00565b60405180910390a15050565b60105481565b6000610fc5848484612661565b6000600160008673ffffffffffffffffffffffffffffffffffffffff1673ffffffffffffffffffffffffffffffffffffffff16815260200190815260200160002060006110106122c4565b73ffffffffffffffffffffffffffffffffffffffff1673ffffffffffffffffffffffffffffffffffffffff16815260200190815260200160002054905082811015611090576040517f08c379a000000000000000000000000000000000000000000000000000000000815260040161108790613a20565b60405180910390fd5b6110ad8561109c6122c4565b85846110a89190613cce565b6122cc565b60019150509392505050565b600060066000838152602001908152602001600020600101549050919050565b7fa49807205ce4d355092ef5a8a18f56e8913cf4a201fbe287825b095693c2177561110b816111066122c4565b6125c4565b61111f82600a6124ae90919063ffffffff16565b61112857600080fd5b61113c82600a6128e090919063ffffffff16565b505050565b7fa49807205ce4d355092ef5a8a18f56e8913cf4a201fbe287825b095693c217756111738161116e6122c4565b6125c4565b60008360405160200161118691906137a5565b6040516020818303038152906040528051906020012090506111b281600861249790919063ffffffff16565b6111cc576111ca8160086128fa90919063ffffffff16565b505b8273ffffffffffffffffffffffffffffffffffffffff1663cca494736040518163ffffffff1660e01b815260040160206040518083038186803b15801561121257600080fd5b505afa158015611226573d6000803e3d6000fd5b505050506040513d601f19601f8201168201806040525081019061124a9190613113565b811461125557600080fd5b82600c600083815260200190815260200160002060006101000a81548173ffffffffffffffffffffffffffffffffffffffff021916908373ffffffffffffffffffffffffffffffffffffffff16021790555050505050565b6112b6826110b9565b6112c7816112c26122c4565b6125c4565b6112d18383612911565b505050565b60006012905090565b600d6020528160005260406000206020528060005260406000206000915091509054906101000a900473ffffffffffffffffffffffffffffffffffffffff1681565b6113296122c4565b73ffffffffffffffffffffffffffffffffffffffff168173ffffffffffffffffffffffffffffffffffffffff1614611396576040517f08c379a000000000000000000000000000000000000000000000000000000000815260040161138d90613ae0565b60405180910390fd5b6113a082826129f2565b5050565b60006114466113b16122c4565b8484600160006113bf6122c4565b73ffffffffffffffffffffffffffffffffffffffff1673ffffffffffffffffffffffffffffffffffffffff16815260200190815260200160002060008873ffffffffffffffffffffffffffffffffffffffff1673ffffffffffffffffffffffffffffffffffffffff168152602001908152602001600020546114419190613c1e565b6122cc565b6001905092915050565b600061148c8260405160200161146691906137a5565b60405160208183030381529060405280519060200120600861249790919063ffffffff16565b9050919050565b7fa49807205ce4d355092ef5a8a18f56e8913cf4a201fbe287825b095693c217756114c5816114c06122c4565b6125c4565b6000846040516020016114d891906137a5565b60405160208183030381529060405280519060200120905061150481600861249790919063ffffffff16565b61151e5761151c8160086128fa90919063ffffffff16565b505b61153284600a6124ae90919063ffffffff16565b61154c5761154a84600a612ad490919063ffffffff16565b505b8273ffffffffffffffffffffffffffffffffffffffff16632b226d2a6040518163ffffffff1660e01b815260040160206040518083038186803b15801561159257600080fd5b505afa1580156115a6573d6000803e3d6000fd5b505050506040513d601f19601f820116820180604052508101906115ca9190613113565b81146115d557600080fd5b82600d6000838152602001908152602001600020600086815260200190815260200160002060006101000a81548173ffffffffffffffffffffffffffffffffffffffff021916908373ffffffffffffffffffffffffffffffffffffffff160217905550600d6000828152602001908152602001600020600085815260200190815260200160002060009054906101000a900473ffffffffffffffffffffffffffffffffffffffff1673ffffffffffffffffffffffffffffffffffffffff1663313ce5676040518163ffffffff1660e01b815260040160206040518083038186803b1580156116c257600080fd5b505afa1580156116d6573d6000803e3d6000fd5b505050506040513d601f19601f820116820180604052508101906116fa9190613466565b600e600083815260200190815260200160002060006101000a81548160ff021916908360ff1602179055507f93dc3bfce85f48c721d4974c97962581e256eb8306b1921bdc290631c6cac8a285858560405161175893929190613922565b60405180910390a15050505050565b60008060008373ffffffffffffffffffffffffffffffffffffffff1673ffffffffffffffffffffffffffffffffffffffff168152602001908152602001600020549050919050565b6117b76122c4565b73ffffffffffffffffffffffffffffffffffffffff166117d5611910565b73ffffffffffffffffffffffffffffffffffffffff161461182b576040517f08c379a000000000000000000000000000000000000000000000000000000000815260040161182290613a40565b60405180910390fd5b600073ffffffffffffffffffffffffffffffffffffffff16600560009054906101000a900473ffffffffffffffffffffffffffffffffffffffff1673ffffffffffffffffffffffffffffffffffffffff167f8be0079c531659141344cd1fd0a4f28419497f9722a3daafe3b4186f6b6457e060405160405180910390a36000600560006101000a81548173ffffffffffffffffffffffffffffffffffffffff021916908373ffffffffffffffffffffffffffffffffffffffff160217905550565b7fa49807205ce4d355092ef5a8a18f56e8913cf4a201fbe287825b095693c2177581565b6000600560009054906101000a900473ffffffffffffffffffffffffffffffffffffffff16905090565b60006006600084815260200190815260200160002060000160008373ffffffffffffffffffffffffffffffffffffffff1673ffffffffffffffffffffffffffffffffffffffff16815260200190815260200160002060009054906101000a900460ff16905092915050565b6000806000856040516020016119bb91906137a5565b6040516020818303038152906040528051906020012090506119e781600861249790919063ffffffff16565b6119f057600080fd5b611a0485600a6124ae90919063ffffffff16565b611a0d57600080fd5b6000600c600083815260200190815260200160002060009054906101000a900473ffffffffffffffffffffffffffffffffffffffff1673ffffffffffffffffffffffffffffffffffffffff1663b0667cf86040518163ffffffff1660e01b8152600401604080518083038186803b158015611a8757600080fd5b505afa158015611a9b573d6000803e3d6000fd5b505050506040513d601f19601f82011682018060405250810190611abf9190613426565b5090506000600c600084815260200190815260200160002060009054906101000a900473ffffffffffffffffffffffffffffffffffffffff1673ffffffffffffffffffffffffffffffffffffffff1663040b030f886040518263ffffffff1660e01b8152600401611b309190613b00565b60206040518083038186803b158015611b4857600080fd5b505afa158015611b5c573d6000803e3d6000fd5b505050506040513d601f19601f82011682018060405250810190611b8091906133f9565b90506000611c6f600d600086815260200190815260200160002060008a815260200190815260200160002060009054906101000a900473ffffffffffffffffffffffffffffffffffffffff1673ffffffffffffffffffffffffffffffffffffffff16632fc7a44a8986866040518463ffffffff1660e01b8152600401611c0893929190613b44565b60206040518083038186803b158015611c2057600080fd5b505afa158015611c34573d6000803e3d6000fd5b505050506040513d601f19601f82011682018060405250810190611c5891906133f9565b620f424080600f54611c6a9190613c1e565b6124c8565b90506000611c9088600f54620f4240600f54611c8b9190613c1e565b6124c8565b90508181965096505050505050935093915050565b606060048054611cb490613e89565b80601f0160208091040260200160405190810160405280929190818152602001828054611ce090613e89565b8015611d2d5780601f10611d0257610100808354040283529160200191611d2d565b820191906000526020600020905b815481529060010190602001808311611d1057829003601f168201915b5050505050905090565b620f424081565b600c6020528060005260406000206000915054906101000a900473ffffffffffffffffffffffffffffffffffffffff1681565b6000801b81565b60008060016000611d876122c4565b73ffffffffffffffffffffffffffffffffffffffff1673ffffffffffffffffffffffffffffffffffffffff16815260200190815260200160002060008573ffffffffffffffffffffffffffffffffffffffff1673ffffffffffffffffffffffffffffffffffffffff16815260200190815260200160002054905082811015611e44576040517f08c379a0000000000000000000000000000000000000000000000000000000008152600401611e3b90613ac0565b60405180910390fd5b611e61611e4f6122c4565b858584611e5c9190613cce565b6122cc565b600191505092915050565b6000611e80611e796122c4565b8484612661565b6001905092915050565b611e926122c4565b73ffffffffffffffffffffffffffffffffffffffff16611eb0611910565b73ffffffffffffffffffffffffffffffffffffffff1614611f06576040517f08c379a0000000000000000000000000000000000000000000000000000000008152600401611efd90613a40565b60405180910390fd5b600047905060003373ffffffffffffffffffffffffffffffffffffffff1682604051611f31906137bc565b60006040518083038185875af1925050503d8060008114611f6e576040519150601f19603f3d011682016040523d82523d6000602084013e611f73565b606091505b5050905080611fb7576040517f08c379a0000000000000000000000000000000000000000000000000000000008152600401611fae90613a00565b60405180910390fd5b7f4f419c906cb8927e83df10513ea1227360d365c979782f6458b22891c1765ba682604051611fe69190613b00565b60405180910390a15050565b611ffb826110b9565b61200c816120076122c4565b6125c4565b61201683836129f2565b505050565b6000600160008473ffffffffffffffffffffffffffffffffffffffff1673ffffffffffffffffffffffffffffffffffffffff16815260200190815260200160002060008373ffffffffffffffffffffffffffffffffffffffff1673ffffffffffffffffffffffffffffffffffffffff16815260200190815260200160002054905092915050565b600f5481565b6120b06122c4565b73ffffffffffffffffffffffffffffffffffffffff166120ce611910565b73ffffffffffffffffffffffffffffffffffffffff1614612124576040517f08c379a000000000000000000000000000000000000000000000000000000000815260040161211b90613a40565b60405180910390fd5b600073ffffffffffffffffffffffffffffffffffffffff168173ffffffffffffffffffffffffffffffffffffffff161415612194576040517f08c379a000000000000000000000000000000000000000000000000000000000815260040161218b906139a0565b60405180910390fd5b8073ffffffffffffffffffffffffffffffffffffffff16600560009054906101000a900473ffffffffffffffffffffffffffffffffffffffff1673ffffffffffffffffffffffffffffffffffffffff167f8be0079c531659141344cd1fd0a4f28419497f9722a3daafe3b4186f6b6457e060405160405180910390a380600560006101000a81548173ffffffffffffffffffffffffffffffffffffffff021916908373ffffffffffffffffffffffffffffffffffffffff16021790555050565b60115481565b60007f01ffc9a7000000000000000000000000000000000000000000000000000000007bffffffffffffffffffffffffffffffffffffffffffffffffffffffff1916827bffffffffffffffffffffffffffffffffffffffffffffffffffffffff1916149050919050565b600033905090565b600073ffffffffffffffffffffffffffffffffffffffff168373ffffffffffffffffffffffffffffffffffffffff16141561233c576040517f08c379a000000000000000000000000000000000000000000000000000000000815260040161233390613aa0565b60405180910390fd5b600073ffffffffffffffffffffffffffffffffffffffff168273ffffffffffffffffffffffffffffffffffffffff1614156123ac576040517f08c379a00000000000000000000000000000000000000000000000000000000081526004016123a3906139c0565b60405180910390fd5b80600160008573ffffffffffffffffffffffffffffffffffffffff1673ffffffffffffffffffffffffffffffffffffffff16815260200190815260200160002060008473ffffffffffffffffffffffffffffffffffffffff1673ffffffffffffffffffffffffffffffffffffffff168152602001908152602001600020819055508173ffffffffffffffffffffffffffffffffffffffff168373ffffffffffffffffffffffffffffffffffffffff167f8c5be1e5ebec7d5bd14f71427d1e84f3dd0314c0f7b2291e5b200ac8c7c3b9258360405161248a9190613b00565b60405180910390a3505050565b60006124a68360000183612aee565b905092915050565b60006124c0836000018360001b612aee565b905092915050565b60008060008019858709858702925082811083820303915050600081141561250357600084116124f757600080fd5b838204925050506125bd565b80841161250f57600080fd5b60008486880990508281118203915080830392506000856001877fffffffffffffffffffffffffffffffffffffffffffffffffffffffffffffffff0301169050808604955080840493506001818260000304019050808302841793506000600287600302189050808702600203810290508087026002038102905080870260020381029050808702600203810290508087026002038102905080870260020381029050808502955050505050505b9392505050565b6125ce828261193a565b61265d576125f38173ffffffffffffffffffffffffffffffffffffffff166014612b11565b6126018360001c6020612b11565b6040516020016126129291906137d1565b6040516020818303038152906040526040517f08c379a00000000000000000000000000000000000000000000000000000000081526004016126549190613900565b60405180910390fd5b5050565b600073ffffffffffffffffffffffffffffffffffffffff168373ffffffffffffffffffffffffffffffffffffffff1614156126d1576040517f08c379a00000000000000000000000000000000000000000000000000000000081526004016126c890613a80565b60405180910390fd5b600073ffffffffffffffffffffffffffffffffffffffff168273ffffffffffffffffffffffffffffffffffffffff161415612741576040517f08c379a000000000000000000000000000000000000000000000000000000000815260040161273890613980565b60405180910390fd5b61274c838383612d4d565b60008060008573ffffffffffffffffffffffffffffffffffffffff1673ffffffffffffffffffffffffffffffffffffffff168152602001908152602001600020549050818110156127d2576040517f08c379a00000000000000000000000000000000000000000000000000000000081526004016127c9906139e0565b60405180910390fd5b81816127de9190613cce565b6000808673ffffffffffffffffffffffffffffffffffffffff1673ffffffffffffffffffffffffffffffffffffffff16815260200190815260200160002081905550816000808573ffffffffffffffffffffffffffffffffffffffff1673ffffffffffffffffffffffffffffffffffffffff168152602001908152602001600020600082825461286e9190613c1e565b925050819055508273ffffffffffffffffffffffffffffffffffffffff168473ffffffffffffffffffffffffffffffffffffffff167fddf252ad1be2c89b69c2b068fc378daa952ba7f163c4a11628f55a4df523b3ef846040516128d29190613b00565b60405180910390a350505050565b60006128f2836000018360001b612d52565b905092915050565b60006129098360000183612e5e565b905092915050565b61291b828261193a565b6129ee5760016006600084815260200190815260200160002060000160008373ffffffffffffffffffffffffffffffffffffffff1673ffffffffffffffffffffffffffffffffffffffff16815260200190815260200160002060006101000a81548160ff0219169083151502179055506129936122c4565b73ffffffffffffffffffffffffffffffffffffffff168173ffffffffffffffffffffffffffffffffffffffff16837f2f8788117e7eff1d82e926ec794901d17c78024a50270940304540a733656f0d60405160405180910390a45b5050565b6129fc828261193a565b15612ad05760006006600084815260200190815260200160002060000160008373ffffffffffffffffffffffffffffffffffffffff1673ffffffffffffffffffffffffffffffffffffffff16815260200190815260200160002060006101000a81548160ff021916908315150217905550612a756122c4565b73ffffffffffffffffffffffffffffffffffffffff168173ffffffffffffffffffffffffffffffffffffffff16837ff6391f5c32d9c69d2a47ea670b442974b53935d1edc7fd64eb21e047a839171b60405160405180910390a45b5050565b6000612ae6836000018360001b612e5e565b905092915050565b600080836001016000848152602001908152602001600020541415905092915050565b606060006002836002612b249190613c74565b612b2e9190613c1e565b67ffffffffffffffff811115612b4757612b46613fa8565b5b6040519080825280601f01601f191660200182016040528015612b795781602001600182028036833780820191505090505b5090507f300000000000000000000000000000000000000000000000000000000000000081600081518110612bb157612bb0613f79565b5b60200101907effffffffffffffffffffffffffffffffffffffffffffffffffffffffffffff1916908160001a9053507f780000000000000000000000000000000000000000000000000000000000000081600181518110612c1557612c14613f79565b5b60200101907effffffffffffffffffffffffffffffffffffffffffffffffffffffffffffff1916908160001a90535060006001846002612c559190613c74565b612c5f9190613c1e565b90505b6001811115612cff577f3031323334353637383961626364656600000000000000000000000000000000600f861660108110612ca157612ca0613f79565b5b1a60f81b828281518110612cb857612cb7613f79565b5b60200101907effffffffffffffffffffffffffffffffffffffffffffffffffffffffffffff1916908160001a905350600485901c945080612cf890613e5f565b9050612c62565b5060008414612d43576040517f08c379a0000000000000000000000000000000000000000000000000000000008152600401612d3a90613960565b60405180910390fd5b8091505092915050565b505050565b60008083600101600084815260200190815260200160002054905060008114612e52576000600182612d849190613cce565b9050600060018660000180549050612d9c9190613cce565b90506000866000018281548110612db657612db5613f79565b5b9060005260206000200154905080876000018481548110612dda57612dd9613f79565b5b9060005260206000200181905550838760010160008381526020019081526020016000208190555086600001805480612e1657612e15613f4a565b5b60019003818190600052602060002001600090559055866001016000878152602001908152602001600020600090556001945050505050612e58565b60009150505b92915050565b6000612e6a8383612aee565b612ec3578260000182908060018154018082558091505060019003906000526020600020016000909190919091505582600001805490508360010160008481526020019081526020016000208190555060019050612ec8565b600090505b92915050565b6000612ee1612edc84613bbb565b613b96565b905082815260208101848484011115612efd57612efc613fdc565b5b612f08848285613e1d565b509392505050565b600081359050612f1f816143bc565b92915050565b600081359050612f34816143d3565b92915050565b600081359050612f49816143ea565b92915050565b600081519050612f5e816143ea565b92915050565b600081359050612f7381614401565b92915050565b600082601f830112612f8e57612f8d613fd7565b5b8135612f9e848260208601612ece565b91505092915050565b600081359050612fb681614418565b92915050565b600081519050612fcb81614418565b92915050565b600081519050612fe08161442f565b92915050565b600060208284031215612ffc57612ffb613fe6565b5b600061300a84828501612f10565b91505092915050565b6000806040838503121561302a57613029613fe6565b5b600061303885828601612f10565b925050602061304985828601612f10565b9150509250929050565b60008060006060848603121561306c5761306b613fe6565b5b600061307a86828701612f10565b935050602061308b86828701612f10565b925050604061309c86828701612fa7565b9150509250925092565b600080604083850312156130bd576130bc613fe6565b5b60006130cb85828601612f10565b92505060206130dc85828601612fa7565b9150509250929050565b6000602082840312156130fc576130fb613fe6565b5b600061310a84828501612f3a565b91505092915050565b60006020828403121561312957613128613fe6565b5b600061313784828501612f4f565b91505092915050565b6000806040838503121561315757613156613fe6565b5b600061316585828601612f3a565b925050602061317685828601612f10565b9150509250929050565b6000806040838503121561319757613196613fe6565b5b60006131a585828601612f3a565b92505060206131b685828601612fa7565b9150509250929050565b6000602082840312156131d6576131d5613fe6565b5b60006131e484828501612f64565b91505092915050565b60006020828403121561320357613202613fe6565b5b600082013567ffffffffffffffff81111561322157613220613fe1565b5b61322d84828501612f79565b91505092915050565b6000806040838503121561324d5761324c613fe6565b5b600083013567ffffffffffffffff81111561326b5761326a613fe1565b5b61327785828601612f79565b925050602061328885828601612f10565b9150509250929050565b600080604083850312156132a9576132a8613fe6565b5b600083013567ffffffffffffffff8111156132c7576132c6613fe1565b5b6132d385828601612f79565b92505060206132e485828601612fa7565b9150509250929050565b60008060006060848603121561330757613306613fe6565b5b600084013567ffffffffffffffff81111561332557613324613fe1565b5b61333186828701612f79565b935050602061334286828701612fa7565b925050604061335386828701612f25565b9150509250925092565b60008060006060848603121561337657613375613fe6565b5b600084013567ffffffffffffffff81111561339457613393613fe1565b5b6133a086828701612f79565b93505060206133b186828701612fa7565b92505060406133c286828701612fa7565b9150509250925092565b6000602082840312156133e2576133e1613fe6565b5b60006133f084828501612fa7565b91505092915050565b60006020828403121561340f5761340e613fe6565b5b600061341d84828501612fbc565b91505092915050565b6000806040838503121561343d5761343c613fe6565b5b600061344b85828601612fbc565b925050602061345c85828601612fbc565b9150509250929050565b60006020828403121561347c5761347b613fe6565b5b600061348a84828501612fd1565b91505092915050565b61349c81613d9f565b82525050565b6134ab81613d02565b82525050565b6134ba81613d26565b82525050565b6134c981613d32565b82525050565b6134d881613db1565b82525050565b6134e781613dd5565b82525050565b60006134f882613bec565b6135028185613c02565b9350613512818560208601613e2c565b61351b81613feb565b840191505092915050565b600061353182613bec565b61353b8185613c13565b935061354b818560208601613e2c565b80840191505092915050565b6000613564602083613c02565b915061356f82613ffc565b602082019050919050565b6000613587602383613c02565b915061359282614025565b604082019050919050565b60006135aa602683613c02565b91506135b582614074565b604082019050919050565b60006135cd602283613c02565b91506135d8826140c3565b604082019050919050565b60006135f0602683613c02565b91506135fb82614112565b604082019050919050565b6000613613601283613c02565b915061361e82614161565b602082019050919050565b6000613636602883613c02565b91506136418261418a565b604082019050919050565b6000613659602083613c02565b9150613664826141d9565b602082019050919050565b600061367c601383613c02565b915061368782614202565b602082019050919050565b600061369f602583613c02565b91506136aa8261422b565b604082019050919050565b60006136c2600083613bf7565b91506136cd8261427a565b600082019050919050565b60006136e5602483613c02565b91506136f08261427d565b604082019050919050565b6000613708601783613c13565b9150613713826142cc565b601782019050919050565b600061372b602583613c02565b9150613736826142f5565b604082019050919050565b600061374e601183613c13565b915061375982614344565b601182019050919050565b6000613771602f83613c02565b915061377c8261436d565b604082019050919050565b61379081613d88565b82525050565b61379f81613d92565b82525050565b60006137b18284613526565b915081905092915050565b60006137c7826136b5565b9150819050919050565b60006137dc826136fb565b91506137e88285613526565b91506137f382613741565b91506137ff8284613526565b91508190509392505050565b600060208201905061382060008301846134a2565b92915050565b600060408201905061383b60008301856134a2565b6138486020830184613787565b9392505050565b600060808201905061386460008301876134a2565b6138716020830186613787565b61387e6040830185613787565b61388b6060830184613787565b95945050505050565b60006020820190506138a960008301846134b1565b92915050565b60006020820190506138c460008301846134c0565b92915050565b60006020820190506138df60008301846134cf565b92915050565b60006020820190506138fa60008301846134de565b92915050565b6000602082019050818103600083015261391a81846134ed565b905092915050565b6000606082019050818103600083015261393c81866134ed565b905061394b6020830185613787565b6139586040830184613493565b949350505050565b6000602082019050818103600083015261397981613557565b9050919050565b600060208201905081810360008301526139998161357a565b9050919050565b600060208201905081810360008301526139b98161359d565b9050919050565b600060208201905081810360008301526139d9816135c0565b9050919050565b600060208201905081810360008301526139f9816135e3565b9050919050565b60006020820190508181036000830152613a1981613606565b9050919050565b60006020820190508181036000830152613a3981613629565b9050919050565b60006020820190508181036000830152613a598161364c565b9050919050565b60006020820190508181036000830152613a798161366f565b9050919050565b60006020820190508181036000830152613a9981613692565b9050919050565b60006020820190508181036000830152613ab9816136d8565b9050919050565b60006020820190508181036000830152613ad98161371e565b9050919050565b60006020820190508181036000830152613af981613764565b9050919050565b6000602082019050613b156000830184613787565b92915050565b6000604082019050613b306000830185613787565b613b3d6020830184613787565b9392505050565b6000606082019050613b596000830186613787565b613b666020830185613787565b613b736040830184613787565b949350505050565b6000602082019050613b906000830184613796565b92915050565b6000613ba0613bb1565b9050613bac8282613ebb565b919050565b6000604051905090565b600067ffffffffffffffff821115613bd657613bd5613fa8565b5b613bdf82613feb565b9050602081019050919050565b600081519050919050565b600081905092915050565b600082825260208201905092915050565b600081905092915050565b6000613c2982613d88565b9150613c3483613d88565b9250827fffffffffffffffffffffffffffffffffffffffffffffffffffffffffffffffff03821115613c6957613c68613eec565b5b828201905092915050565b6000613c7f82613d88565b9150613c8a83613d88565b9250817fffffffffffffffffffffffffffffffffffffffffffffffffffffffffffffffff0483118215151615613cc357613cc2613eec565b5b828202905092915050565b6000613cd982613d88565b9150613ce483613d88565b925082821015613cf757613cf6613eec565b5b828203905092915050565b6000613d0d82613d68565b9050919050565b6000613d1f82613d68565b9050919050565b60008115159050919050565b6000819050919050565b60007fffffffff0000000000000000000000000000000000000000000000000000000082169050919050565b600073ffffffffffffffffffffffffffffffffffffffff82169050919050565b6000819050919050565b600060ff82169050919050565b6000613daa82613df9565b9050919050565b6000613dbc82613dc3565b9050919050565b6000613dce82613d68565b9050919050565b6000613de082613de7565b9050919050565b6000613df282613d68565b9050919050565b6000613e0482613e0b565b9050919050565b6000613e1682613d68565b9050919050565b82818337600083830152505050565b60005b83811015613e4a578082015181840152602081019050613e2f565b83811115613e59576000848401525b50505050565b6000613e6a82613d88565b91506000821415613e7e57613e7d613eec565b5b600182039050919050565b60006002820490506001821680613ea157607f821691505b60208210811415613eb557613eb4613f1b565b5b50919050565b613ec482613feb565b810181811067ffffffffffffffff82111715613ee357613ee2613fa8565b5b80604052505050565b7f4e487b7100000000000000000000000000000000000000000000000000000000600052601160045260246000fd5b7f4e487b7100000000000000000000000000000000000000000000000000000000600052602260045260246000fd5b7f4e487b7100000000000000000000000000000000000000000000000000000000600052603160045260246000fd5b7f4e487b7100000000000000000000000000000000000000000000000000000000600052603260045260246000fd5b7f4e487b7100000000000000000000000000000000000000000000000000000000600052604160045260246000fd5b600080fd5b600080fd5b600080fd5b600080fd5b6000601f19601f8301169050919050565b7f537472696e67733a20686578206c656e67746820696e73756666696369656e74600082015250565b7f45524332303a207472616e7366657220746f20746865207a65726f206164647260008201527f6573730000000000000000000000000000000000000000000000000000000000602082015250565b7f4f776e61626c653a206e6577206f776e657220697320746865207a65726f206160008201527f6464726573730000000000000000000000000000000000000000000000000000602082015250565b7f45524332303a20617070726f766520746f20746865207a65726f20616464726560008201527f7373000000000000000000000000000000000000000000000000000000000000602082015250565b7f45524332303a207472616e7366657220616d6f756e742065786365656473206260008201527f616c616e63650000000000000000000000000000000000000000000000000000602082015250565b7f5769746864726177616c206661696c65642e0000000000000000000000000000600082015250565b7f45524332303a207472616e7366657220616d6f756e742065786365656473206160008201527f6c6c6f77616e6365000000000000000000000000000000000000000000000000602082015250565b7f4f776e61626c653a2063616c6c6572206973206e6f7420746865206f776e6572600082015250565b7f466565207061796d656e74206661696c65642e00000000000000000000000000600082015250565b7f45524332303a207472616e736665722066726f6d20746865207a65726f20616460008201527f6472657373000000000000000000000000000000000000000000000000000000602082015250565b50565b7f45524332303a20617070726f76652066726f6d20746865207a65726f2061646460008201527f7265737300000000000000000000000000000000000000000000000000000000602082015250565b7f416363657373436f6e74726f6c3a206163636f756e7420000000000000000000600082015250565b7f45524332303a2064656372656173656420616c6c6f77616e63652062656c6f7760008201527f207a65726f000000000000000000000000000000000000000000000000000000602082015250565b7f206973206d697373696e6720726f6c6520000000000000000000000000000000600082015250565b7f416363657373436f6e74726f6c3a2063616e206f6e6c792072656e6f756e636560008201527f20726f6c657320666f722073656c660000000000000000000000000000000000602082015250565b6143c581613d02565b81146143d057600080fd5b50565b6143dc81613d14565b81146143e757600080fd5b50565b6143f381613d32565b81146143fe57600080fd5b50565b61440a81613d3c565b811461441557600080fd5b50565b61442181613d88565b811461442c57600080fd5b50565b61443881613d92565b811461444357600080fd5b5056fea26469706673582212202c67bef1dbb882203b5e32fe6f30f3d7dd4e05c660e328f06156dc51395bd4a864736f6c63430008060033",
  "immutableReferences": {},
  "source": "pragma solidity ^0.8.4;\n\n/**\n * SPDX-License-Identifier: GPL-3.0-or-later\n * Moret\n * Copyright (C) 2021 Moret\n */\n\nimport \"./VolatilityToken.sol\";\nimport \"./VolatilityChain.sol\";\nimport \"./FullMath.sol\";\n\nimport \"@openzeppelin/contracts/access/Ownable.sol\";\nimport \"@openzeppelin/contracts/token/ERC20/ERC20.sol\";\nimport \"@openzeppelin/contracts/utils/math/Math.sol\";\nimport \"@openzeppelin/contracts/access/AccessControl.sol\";\nimport \"@openzeppelin/contracts/utils/structs/EnumerableSet.sol\";\n\n\ncontract GovernanceToken is ERC20, Ownable, AccessControl\n{\n  using EnumerableSet for EnumerableSet.UintSet;\n  using EnumerableSet for EnumerableSet.Bytes32Set;\n\n  address payable governanceAddr;\n    bytes32 public constant ADMIN_ROLE = keccak256(\"ADMIN_ROLE\");\n\n  EnumerableSet.Bytes32Set  tokenHashSet;\n  EnumerableSet.UintSet  tenors;\n  mapping(bytes32=> VolatilityChain) public volChainList;\n  mapping(bytes32=>mapping(uint256=>VolatilityToken)) public volTokensList;\n\n  mapping(bytes32=>uint8) decimalList;\n\n    uint256 public constant pctDenominator = 10 ** 6;\n    uint256 public governanceFees = 10000;\n    uint256 public loanFees = 200000;\n    uint256 public loanDayBase = 31536000;\n\n    constructor(\n        string memory _name,\n        string memory _symbol) ERC20(_name, _symbol)\n    {\n        governanceAddr = payable(address(this));\n\n        _mint(governanceAddr, 10 ** (18+10)); // 10 billion total supply.\n        _setupRole(ADMIN_ROLE, msg.sender);\n    }\n\n    function getVolatilityQuote(string memory _underlying, uint256 _tenor, uint256 _volAmount) public view returns(uint256, uint256)\n{\n    bytes32 _underlyingHash = keccak256(abi.encodePacked(_underlying));\n    require(tokenHashSet.contains(_underlyingHash));\n        require(tenors.contains(_tenor));\n        (uint256 _price,) = volChainList[_underlyingHash].queryPrice();\n        uint256 _volatility = volChainList[_underlyingHash].getVol(_tenor);\n\n        uint256 _quote = volTokensList[_underlyingHash][_tenor].calculateMintValue(_volAmount, _price, _volatility);\n\n        return (_quote, MulDiv(_quote, governanceFees, pctDenominator));\n}\n\n    function getVolatilityAmount(string memory _underlying, uint256 _tenor, uint256 _ethAmount) public view returns(uint256, uint256)\n    {\n        bytes32 _underlyingHash = keccak256(abi.encodePacked(_underlying));\n        require(tokenHashSet.contains(_underlyingHash));\n        require(tenors.contains(_tenor));\n\n        (uint256 _price,) = volChainList[_underlyingHash].queryPrice();\n        uint256 _volatility = volChainList[_underlyingHash].getVol(_tenor);\n\n        uint256 _amount = MulDiv(volTokensList[_underlyingHash][_tenor].calculateMintableAmount(_ethAmount, _price, _volatility), pctDenominator, governanceFees + pctDenominator);\n        uint256 _fee = MulDiv(_ethAmount, governanceFees, governanceFees + pctDenominator);\n\n        return (_amount, _fee);\n    }\n\n    function purchaseVolatilityToken(string memory _underlying, uint256 _tenor) external payable {\n        (uint256 _volTokenAmount, uint256 _fee) = getVolatilityAmount(_underlying, _tenor, msg.value);\n        // require(msg.value > _fee);\n\n        (bool _sentFee, ) = governanceAddr.call{value: msg.value}(\"\");\n        require(_sentFee, \"Fee payment failed.\");\n\n        bytes32 _underlyingHash = keccak256(abi.encodePacked(_underlying));\n        volTokensList[_underlyingHash][_tenor].mint{value: msg.value - _fee}(msg.sender, _volTokenAmount);\n\n        emit volatilityTokenPurchased(msg.sender, _volTokenAmount,  msg.value,  _fee);\n    }\n\n    function addVolChain(string memory _underlying, address _volChainAddress) external onlyRole(ADMIN_ROLE){\n        bytes32 _underlyingHash = keccak256(abi.encodePacked(_underlying));\n\n        if(!tokenHashSet.contains(_underlyingHash))\n        {\n            tokenHashSet.add(_underlyingHash);\n        }\n        require(_underlyingHash==VolatilityChain(_volChainAddress).tokenHash());\n        volChainList[_underlyingHash] = VolatilityChain(_volChainAddress);\n    }\n\n    function addVolToken(string memory  _underlying, uint256 _tenor, address payable _tokenAddress) external onlyRole(ADMIN_ROLE)\n    {\n        bytes32 _underlyingHash = keccak256(abi.encodePacked(_underlying));\n        if(!tokenHashSet.contains(_underlyingHash)){\n            tokenHashSet.add(_underlyingHash);\n        }\n        if(!tenors.contains(_tenor)){\n            tenors.add(_tenor);\n        }\n        require(_underlyingHash==VolatilityToken(_tokenAddress).underlyingHash());\n        volTokensList[_underlyingHash][_tenor] = VolatilityToken(_tokenAddress);\n        decimalList[_underlyingHash] = volTokensList[_underlyingHash][_tenor].decimals();\n\n        emit newVolatilityToken(_underlying, _tenor, _tokenAddress);\n    }\n\n    function removeTenor(uint256 _tenor) external onlyRole(ADMIN_ROLE) {\n        require(tenors.contains(_tenor));\n        tenors.remove( _tenor);\n    }\n\n    function hasVolToken(string memory  _underlying) external view returns(bool)\n    {\n        return tokenHashSet.contains(keccak256(abi.encodePacked(_underlying)));\n    }\n\n    function resetGovernanceFees(uint256 _fee) external onlyRole(ADMIN_ROLE){\n        governanceFees = _fee;\n        emit newGovernanceFees(_fee);\n    }\n\n    function sweepBalance() external onlyOwner{\n        uint256 _amount = address(this).balance;\n        (bool _sent, ) = payable(msg.sender).call{value: _amount}(\"\");\n        require(_sent, \"Withdrawal failed.\");\n        emit cashSweep(_amount);\n    }\n\n    receive() external payable{}\n\n    event newGovernanceFees(uint256 _fee);\n    event newVolatilityToken(string  _underlying, uint256 _tenor, address _tokenAddress);\n    event cashSweep(uint256 _amount);\n    event volatilityTokenPurchased(address _buyer, uint256 _amout, uint256 _cost, uint256 _fee);\n\n}\n",
  "sourcePath": "/Users/mac/Documents/GitHub/moret/contracts/GovernanceToken.sol",
  "compiler": {
    "name": "solc",
    "version": "0.8.6+commit.11564f7e.Emscripten.clang"
  },
  "schemaVersion": "3.4.1",
  "updatedAt": "2021-06-24T19:45:29.306Z",
  "devdoc": {
    "kind": "dev",
    "methods": {
      "allowance(address,address)": {
        "details": "See {IERC20-allowance}."
      },
      "approve(address,uint256)": {
        "details": "See {IERC20-approve}. Requirements: - `spender` cannot be the zero address."
      },
      "balanceOf(address)": {
        "details": "See {IERC20-balanceOf}."
      },
      "decimals()": {
        "details": "Returns the number of decimals used to get its user representation. For example, if `decimals` equals `2`, a balance of `505` tokens should be displayed to a user as `5,05` (`505 / 10 ** 2`). Tokens usually opt for a value of 18, imitating the relationship between Ether and Wei. This is the value {ERC20} uses, unless this function is overridden; NOTE: This information is only used for _display_ purposes: it in no way affects any of the arithmetic of the contract, including {IERC20-balanceOf} and {IERC20-transfer}."
      },
      "decreaseAllowance(address,uint256)": {
        "details": "Atomically decreases the allowance granted to `spender` by the caller. This is an alternative to {approve} that can be used as a mitigation for problems described in {IERC20-approve}. Emits an {Approval} event indicating the updated allowance. Requirements: - `spender` cannot be the zero address. - `spender` must have allowance for the caller of at least `subtractedValue`."
      },
      "getRoleAdmin(bytes32)": {
        "details": "Returns the admin role that controls `role`. See {grantRole} and {revokeRole}. To change a role's admin, use {_setRoleAdmin}."
      },
      "grantRole(bytes32,address)": {
        "details": "Grants `role` to `account`. If `account` had not been already granted `role`, emits a {RoleGranted} event. Requirements: - the caller must have ``role``'s admin role."
      },
      "hasRole(bytes32,address)": {
        "details": "Returns `true` if `account` has been granted `role`."
      },
      "increaseAllowance(address,uint256)": {
        "details": "Atomically increases the allowance granted to `spender` by the caller. This is an alternative to {approve} that can be used as a mitigation for problems described in {IERC20-approve}. Emits an {Approval} event indicating the updated allowance. Requirements: - `spender` cannot be the zero address."
      },
      "name()": {
        "details": "Returns the name of the token."
      },
      "owner()": {
        "details": "Returns the address of the current owner."
      },
      "renounceOwnership()": {
        "details": "Leaves the contract without owner. It will not be possible to call `onlyOwner` functions anymore. Can only be called by the current owner. NOTE: Renouncing ownership will leave the contract without an owner, thereby removing any functionality that is only available to the owner."
      },
      "renounceRole(bytes32,address)": {
        "details": "Revokes `role` from the calling account. Roles are often managed via {grantRole} and {revokeRole}: this function's purpose is to provide a mechanism for accounts to lose their privileges if they are compromised (such as when a trusted device is misplaced). If the calling account had been granted `role`, emits a {RoleRevoked} event. Requirements: - the caller must be `account`."
      },
      "revokeRole(bytes32,address)": {
        "details": "Revokes `role` from `account`. If `account` had been granted `role`, emits a {RoleRevoked} event. Requirements: - the caller must have ``role``'s admin role."
      },
      "supportsInterface(bytes4)": {
        "details": "See {IERC165-supportsInterface}."
      },
      "symbol()": {
        "details": "Returns the symbol of the token, usually a shorter version of the name."
      },
      "totalSupply()": {
        "details": "See {IERC20-totalSupply}."
      },
      "transfer(address,uint256)": {
        "details": "See {IERC20-transfer}. Requirements: - `recipient` cannot be the zero address. - the caller must have a balance of at least `amount`."
      },
      "transferFrom(address,address,uint256)": {
        "details": "See {IERC20-transferFrom}. Emits an {Approval} event indicating the updated allowance. This is not required by the EIP. See the note at the beginning of {ERC20}. Requirements: - `sender` and `recipient` cannot be the zero address. - `sender` must have a balance of at least `amount`. - the caller must have allowance for ``sender``'s tokens of at least `amount`."
      },
      "transferOwnership(address)": {
        "details": "Transfers ownership of the contract to a new account (`newOwner`). Can only be called by the current owner."
      }
    },
    "version": 1
  },
  "userdoc": {
    "kind": "user",
    "methods": {},
    "version": 1
  }
}