{
  "contractName": "GovernanceToken",
  "abi": [
    {
      "inputs": [
        {
          "internalType": "string",
          "name": "_name",
          "type": "string"
        },
        {
          "internalType": "string",
          "name": "_symbol",
          "type": "string"
        }
      ],
      "stateMutability": "nonpayable",
      "type": "constructor"
    },
    {
      "anonymous": false,
      "inputs": [
        {
          "indexed": true,
          "internalType": "address",
          "name": "owner",
          "type": "address"
        },
        {
          "indexed": true,
          "internalType": "address",
          "name": "spender",
          "type": "address"
        },
        {
          "indexed": false,
          "internalType": "uint256",
          "name": "value",
          "type": "uint256"
        }
      ],
      "name": "Approval",
      "type": "event"
    },
    {
      "anonymous": false,
      "inputs": [
        {
          "indexed": true,
          "internalType": "address",
          "name": "previousOwner",
          "type": "address"
        },
        {
          "indexed": true,
          "internalType": "address",
          "name": "newOwner",
          "type": "address"
        }
      ],
      "name": "OwnershipTransferred",
      "type": "event"
    },
    {
      "anonymous": false,
      "inputs": [
        {
          "indexed": true,
          "internalType": "bytes32",
          "name": "role",
          "type": "bytes32"
        },
        {
          "indexed": true,
          "internalType": "bytes32",
          "name": "previousAdminRole",
          "type": "bytes32"
        },
        {
          "indexed": true,
          "internalType": "bytes32",
          "name": "newAdminRole",
          "type": "bytes32"
        }
      ],
      "name": "RoleAdminChanged",
      "type": "event"
    },
    {
      "anonymous": false,
      "inputs": [
        {
          "indexed": true,
          "internalType": "bytes32",
          "name": "role",
          "type": "bytes32"
        },
        {
          "indexed": true,
          "internalType": "address",
          "name": "account",
          "type": "address"
        },
        {
          "indexed": true,
          "internalType": "address",
          "name": "sender",
          "type": "address"
        }
      ],
      "name": "RoleGranted",
      "type": "event"
    },
    {
      "anonymous": false,
      "inputs": [
        {
          "indexed": true,
          "internalType": "bytes32",
          "name": "role",
          "type": "bytes32"
        },
        {
          "indexed": true,
          "internalType": "address",
          "name": "account",
          "type": "address"
        },
        {
          "indexed": true,
          "internalType": "address",
          "name": "sender",
          "type": "address"
        }
      ],
      "name": "RoleRevoked",
      "type": "event"
    },
    {
      "anonymous": false,
      "inputs": [
        {
          "indexed": true,
          "internalType": "address",
          "name": "from",
          "type": "address"
        },
        {
          "indexed": true,
          "internalType": "address",
          "name": "to",
          "type": "address"
        },
        {
          "indexed": false,
          "internalType": "uint256",
          "name": "value",
          "type": "uint256"
        }
      ],
      "name": "Transfer",
      "type": "event"
    },
    {
      "anonymous": false,
      "inputs": [
        {
          "indexed": false,
          "internalType": "uint256",
          "name": "_amount",
          "type": "uint256"
        }
      ],
      "name": "cashSweep",
      "type": "event"
    },
    {
      "anonymous": false,
      "inputs": [
        {
          "indexed": false,
          "internalType": "uint256",
          "name": "_fee",
          "type": "uint256"
        }
      ],
      "name": "newGovernanceFees",
      "type": "event"
    },
    {
      "anonymous": false,
      "inputs": [
        {
          "indexed": false,
          "internalType": "string",
          "name": "_underlying",
          "type": "string"
        },
        {
          "indexed": false,
          "internalType": "uint256",
          "name": "_tenor",
          "type": "uint256"
        },
        {
          "indexed": false,
          "internalType": "address",
          "name": "_tokenAddress",
          "type": "address"
        }
      ],
      "name": "newVolatilityToken",
      "type": "event"
    },
    {
      "anonymous": false,
      "inputs": [
        {
          "indexed": false,
          "internalType": "address",
          "name": "_buyer",
          "type": "address"
        },
        {
          "indexed": false,
          "internalType": "uint256",
          "name": "_amout",
          "type": "uint256"
        },
        {
          "indexed": false,
          "internalType": "uint256",
          "name": "_cost",
          "type": "uint256"
        },
        {
          "indexed": false,
          "internalType": "uint256",
          "name": "_fee",
          "type": "uint256"
        }
      ],
      "name": "volatilityTokenPurchased",
      "type": "event"
    },
    {
      "inputs": [],
      "name": "ADMIN_ROLE",
      "outputs": [
        {
          "internalType": "bytes32",
          "name": "",
          "type": "bytes32"
        }
      ],
      "stateMutability": "view",
      "type": "function"
    },
    {
      "inputs": [],
      "name": "DEFAULT_ADMIN_ROLE",
      "outputs": [
        {
          "internalType": "bytes32",
          "name": "",
          "type": "bytes32"
        }
      ],
      "stateMutability": "view",
      "type": "function"
    },
    {
      "inputs": [
        {
          "internalType": "address",
          "name": "owner",
          "type": "address"
        },
        {
          "internalType": "address",
          "name": "spender",
          "type": "address"
        }
      ],
      "name": "allowance",
      "outputs": [
        {
          "internalType": "uint256",
          "name": "",
          "type": "uint256"
        }
      ],
      "stateMutability": "view",
      "type": "function"
    },
    {
      "inputs": [
        {
          "internalType": "address",
          "name": "spender",
          "type": "address"
        },
        {
          "internalType": "uint256",
          "name": "amount",
          "type": "uint256"
        }
      ],
      "name": "approve",
      "outputs": [
        {
          "internalType": "bool",
          "name": "",
          "type": "bool"
        }
      ],
      "stateMutability": "nonpayable",
      "type": "function"
    },
    {
      "inputs": [
        {
          "internalType": "address",
          "name": "account",
          "type": "address"
        }
      ],
      "name": "balanceOf",
      "outputs": [
        {
          "internalType": "uint256",
          "name": "",
          "type": "uint256"
        }
      ],
      "stateMutability": "view",
      "type": "function"
    },
    {
      "inputs": [],
      "name": "decimals",
      "outputs": [
        {
          "internalType": "uint8",
          "name": "",
          "type": "uint8"
        }
      ],
      "stateMutability": "view",
      "type": "function"
    },
    {
      "inputs": [
        {
          "internalType": "address",
          "name": "spender",
          "type": "address"
        },
        {
          "internalType": "uint256",
          "name": "subtractedValue",
          "type": "uint256"
        }
      ],
      "name": "decreaseAllowance",
      "outputs": [
        {
          "internalType": "bool",
          "name": "",
          "type": "bool"
        }
      ],
      "stateMutability": "nonpayable",
      "type": "function"
    },
    {
      "inputs": [
        {
          "internalType": "bytes32",
          "name": "role",
          "type": "bytes32"
        }
      ],
      "name": "getRoleAdmin",
      "outputs": [
        {
          "internalType": "bytes32",
          "name": "",
          "type": "bytes32"
        }
      ],
      "stateMutability": "view",
      "type": "function"
    },
    {
      "inputs": [],
      "name": "governanceFees",
      "outputs": [
        {
          "internalType": "uint256",
          "name": "",
          "type": "uint256"
        }
      ],
      "stateMutability": "view",
      "type": "function"
    },
    {
      "inputs": [
        {
          "internalType": "bytes32",
          "name": "role",
          "type": "bytes32"
        },
        {
          "internalType": "address",
          "name": "account",
          "type": "address"
        }
      ],
      "name": "grantRole",
      "outputs": [],
      "stateMutability": "nonpayable",
      "type": "function"
    },
    {
      "inputs": [
        {
          "internalType": "bytes32",
          "name": "role",
          "type": "bytes32"
        },
        {
          "internalType": "address",
          "name": "account",
          "type": "address"
        }
      ],
      "name": "hasRole",
      "outputs": [
        {
          "internalType": "bool",
          "name": "",
          "type": "bool"
        }
      ],
      "stateMutability": "view",
      "type": "function"
    },
    {
      "inputs": [
        {
          "internalType": "address",
          "name": "spender",
          "type": "address"
        },
        {
          "internalType": "uint256",
          "name": "addedValue",
          "type": "uint256"
        }
      ],
      "name": "increaseAllowance",
      "outputs": [
        {
          "internalType": "bool",
          "name": "",
          "type": "bool"
        }
      ],
      "stateMutability": "nonpayable",
      "type": "function"
    },
    {
      "inputs": [],
      "name": "loanDayBase",
      "outputs": [
        {
          "internalType": "uint256",
          "name": "",
          "type": "uint256"
        }
      ],
      "stateMutability": "view",
      "type": "function"
    },
    {
      "inputs": [],
      "name": "loanFees",
      "outputs": [
        {
          "internalType": "uint256",
          "name": "",
          "type": "uint256"
        }
      ],
      "stateMutability": "view",
      "type": "function"
    },
    {
      "inputs": [],
      "name": "name",
      "outputs": [
        {
          "internalType": "string",
          "name": "",
          "type": "string"
        }
      ],
      "stateMutability": "view",
      "type": "function"
    },
    {
      "inputs": [],
      "name": "owner",
      "outputs": [
        {
          "internalType": "address",
          "name": "",
          "type": "address"
        }
      ],
      "stateMutability": "view",
      "type": "function"
    },
    {
      "inputs": [],
      "name": "pctDenominator",
      "outputs": [
        {
          "internalType": "uint256",
          "name": "",
          "type": "uint256"
        }
      ],
      "stateMutability": "view",
      "type": "function"
    },
    {
      "inputs": [],
      "name": "renounceOwnership",
      "outputs": [],
      "stateMutability": "nonpayable",
      "type": "function"
    },
    {
      "inputs": [
        {
          "internalType": "bytes32",
          "name": "role",
          "type": "bytes32"
        },
        {
          "internalType": "address",
          "name": "account",
          "type": "address"
        }
      ],
      "name": "renounceRole",
      "outputs": [],
      "stateMutability": "nonpayable",
      "type": "function"
    },
    {
      "inputs": [
        {
          "internalType": "bytes32",
          "name": "role",
          "type": "bytes32"
        },
        {
          "internalType": "address",
          "name": "account",
          "type": "address"
        }
      ],
      "name": "revokeRole",
      "outputs": [],
      "stateMutability": "nonpayable",
      "type": "function"
    },
    {
      "inputs": [
        {
          "internalType": "bytes4",
          "name": "interfaceId",
          "type": "bytes4"
        }
      ],
      "name": "supportsInterface",
      "outputs": [
        {
          "internalType": "bool",
          "name": "",
          "type": "bool"
        }
      ],
      "stateMutability": "view",
      "type": "function"
    },
    {
      "inputs": [],
      "name": "symbol",
      "outputs": [
        {
          "internalType": "string",
          "name": "",
          "type": "string"
        }
      ],
      "stateMutability": "view",
      "type": "function"
    },
    {
      "inputs": [],
      "name": "totalSupply",
      "outputs": [
        {
          "internalType": "uint256",
          "name": "",
          "type": "uint256"
        }
      ],
      "stateMutability": "view",
      "type": "function"
    },
    {
      "inputs": [
        {
          "internalType": "address",
          "name": "recipient",
          "type": "address"
        },
        {
          "internalType": "uint256",
          "name": "amount",
          "type": "uint256"
        }
      ],
      "name": "transfer",
      "outputs": [
        {
          "internalType": "bool",
          "name": "",
          "type": "bool"
        }
      ],
      "stateMutability": "nonpayable",
      "type": "function"
    },
    {
      "inputs": [
        {
          "internalType": "address",
          "name": "sender",
          "type": "address"
        },
        {
          "internalType": "address",
          "name": "recipient",
          "type": "address"
        },
        {
          "internalType": "uint256",
          "name": "amount",
          "type": "uint256"
        }
      ],
      "name": "transferFrom",
      "outputs": [
        {
          "internalType": "bool",
          "name": "",
          "type": "bool"
        }
      ],
      "stateMutability": "nonpayable",
      "type": "function"
    },
    {
      "inputs": [
        {
          "internalType": "address",
          "name": "newOwner",
          "type": "address"
        }
      ],
      "name": "transferOwnership",
      "outputs": [],
      "stateMutability": "nonpayable",
      "type": "function"
    },
    {
      "inputs": [
        {
          "internalType": "bytes32",
          "name": "",
          "type": "bytes32"
        }
      ],
      "name": "volChainList",
      "outputs": [
        {
          "internalType": "contract VolatilityChain",
          "name": "",
          "type": "address"
        }
      ],
      "stateMutability": "view",
      "type": "function"
    },
    {
      "inputs": [
        {
          "internalType": "bytes32",
          "name": "",
          "type": "bytes32"
        },
        {
          "internalType": "uint256",
          "name": "",
          "type": "uint256"
        }
      ],
      "name": "volTokensList",
      "outputs": [
        {
          "internalType": "contract VolatilityToken",
          "name": "",
          "type": "address"
        }
      ],
      "stateMutability": "view",
      "type": "function"
    },
    {
      "stateMutability": "payable",
      "type": "receive"
    },
    {
      "inputs": [
        {
          "internalType": "string",
          "name": "_underlying",
          "type": "string"
        },
        {
          "internalType": "uint256",
          "name": "_tenor",
          "type": "uint256"
        },
        {
          "internalType": "uint256",
          "name": "_volAmount",
          "type": "uint256"
        }
      ],
      "name": "getVolatilityQuote",
      "outputs": [
        {
          "internalType": "uint256",
          "name": "",
          "type": "uint256"
        },
        {
          "internalType": "uint256",
          "name": "",
          "type": "uint256"
        }
      ],
      "stateMutability": "view",
      "type": "function"
    },
    {
      "inputs": [
        {
          "internalType": "string",
          "name": "_underlying",
          "type": "string"
        },
        {
          "internalType": "uint256",
          "name": "_tenor",
          "type": "uint256"
        },
        {
          "internalType": "uint256",
          "name": "_ethAmount",
          "type": "uint256"
        }
      ],
      "name": "getVolatilityAmount",
      "outputs": [
        {
          "internalType": "uint256",
          "name": "",
          "type": "uint256"
        },
        {
          "internalType": "uint256",
          "name": "",
          "type": "uint256"
        }
      ],
      "stateMutability": "view",
      "type": "function"
    },
    {
      "inputs": [
        {
          "internalType": "string",
          "name": "_underlying",
          "type": "string"
        },
        {
          "internalType": "uint256",
          "name": "_tenor",
          "type": "uint256"
        }
      ],
      "name": "purchaseVolatilityToken",
      "outputs": [],
      "stateMutability": "payable",
      "type": "function"
    },
    {
      "inputs": [
        {
          "internalType": "string",
          "name": "_underlying",
          "type": "string"
        },
        {
          "internalType": "address",
          "name": "_volChainAddress",
          "type": "address"
        }
      ],
      "name": "addVolChain",
      "outputs": [],
      "stateMutability": "nonpayable",
      "type": "function"
    },
    {
      "inputs": [
        {
          "internalType": "string",
          "name": "_underlying",
          "type": "string"
        },
        {
          "internalType": "uint256",
          "name": "_tenor",
          "type": "uint256"
        },
        {
          "internalType": "address payable",
          "name": "_tokenAddress",
          "type": "address"
        }
      ],
      "name": "addVolToken",
      "outputs": [],
      "stateMutability": "nonpayable",
      "type": "function"
    },
    {
      "inputs": [
        {
          "internalType": "uint256",
          "name": "_tenor",
          "type": "uint256"
        }
      ],
      "name": "removeTenor",
      "outputs": [],
      "stateMutability": "nonpayable",
      "type": "function"
    },
    {
      "inputs": [
        {
          "internalType": "string",
          "name": "_underlying",
          "type": "string"
        }
      ],
      "name": "hasVolToken",
      "outputs": [
        {
          "internalType": "bool",
          "name": "",
          "type": "bool"
        }
      ],
      "stateMutability": "view",
      "type": "function"
    },
    {
      "inputs": [
        {
          "internalType": "uint256",
          "name": "_fee",
          "type": "uint256"
        }
      ],
      "name": "resetGovernanceFees",
      "outputs": [],
      "stateMutability": "nonpayable",
      "type": "function"
    },
    {
      "inputs": [],
      "name": "sweepBalance",
      "outputs": [],
      "stateMutability": "nonpayable",
      "type": "function"
    }
  ],
  "bytecode": "0x6080604052612710600f5562030d406010556301e133806011553480156200002657600080fd5b5060405162004d5438038062004d5483398181016040528101906200004c919062000601565b8181816003908051906020019062000066929190620004d3565b5080600490805190602001906200007f929190620004d3565b505050600062000094620001ee60201b60201c565b905080600560006101000a81548173ffffffffffffffffffffffffffffffffffffffff021916908373ffffffffffffffffffffffffffffffffffffffff1602179055508073ffffffffffffffffffffffffffffffffffffffff16600073ffffffffffffffffffffffffffffffffffffffff167f8be0079c531659141344cd1fd0a4f28419497f9722a3daafe3b4186f6b6457e060405160405180910390a35030600760006101000a81548173ffffffffffffffffffffffffffffffffffffffff021916908373ffffffffffffffffffffffffffffffffffffffff160217905550620001b4600760009054906101000a900473ffffffffffffffffffffffffffffffffffffffff166b204fce5e3e25026110000000620001f660201b60201c565b620001e67fa49807205ce4d355092ef5a8a18f56e8913cf4a201fbe287825b095693c21775336200035b60201b60201c565b505062000951565b600033905090565b600073ffffffffffffffffffffffffffffffffffffffff168273ffffffffffffffffffffffffffffffffffffffff16141562000269576040517f08c379a00000000000000000000000000000000000000000000000000000000081526004016200026090620006be565b60405180910390fd5b6200027d600083836200037160201b60201c565b80600260008282546200029191906200076d565b92505081905550806000808473ffffffffffffffffffffffffffffffffffffffff1673ffffffffffffffffffffffffffffffffffffffff1681526020019081526020016000206000828254620002e891906200076d565b925050819055508173ffffffffffffffffffffffffffffffffffffffff16600073ffffffffffffffffffffffffffffffffffffffff167fddf252ad1be2c89b69c2b068fc378daa952ba7f163c4a11628f55a4df523b3ef836040516200034f9190620006e0565b60405180910390a35050565b6200036d82826200037660201b60201c565b5050565b505050565b6200038882826200046860201b60201c565b620004645760016006600084815260200190815260200160002060000160008373ffffffffffffffffffffffffffffffffffffffff1673ffffffffffffffffffffffffffffffffffffffff16815260200190815260200160002060006101000a81548160ff02191690831515021790555062000409620001ee60201b60201c565b73ffffffffffffffffffffffffffffffffffffffff168173ffffffffffffffffffffffffffffffffffffffff16837f2f8788117e7eff1d82e926ec794901d17c78024a50270940304540a733656f0d60405160405180910390a45b5050565b60006006600084815260200190815260200160002060000160008373ffffffffffffffffffffffffffffffffffffffff1673ffffffffffffffffffffffffffffffffffffffff16815260200190815260200160002060009054906101000a900460ff16905092915050565b828054620004e1906200080a565b90600052602060002090601f01602090048101928262000505576000855562000551565b82601f106200052057805160ff191683800117855562000551565b8280016001018555821562000551579182015b828111156200055057825182559160200191906001019062000533565b5b50905062000560919062000564565b5090565b5b808211156200057f57600081600090555060010162000565565b5090565b60006200059a620005948462000726565b620006fd565b905082815260208101848484011115620005b957620005b862000908565b5b620005c6848285620007d4565b509392505050565b600082601f830112620005e657620005e562000903565b5b8151620005f884826020860162000583565b91505092915050565b600080604083850312156200061b576200061a62000912565b5b600083015167ffffffffffffffff8111156200063c576200063b6200090d565b5b6200064a85828601620005ce565b925050602083015167ffffffffffffffff8111156200066e576200066d6200090d565b5b6200067c85828601620005ce565b9150509250929050565b600062000695601f836200075c565b9150620006a28262000928565b602082019050919050565b620006b881620007ca565b82525050565b60006020820190508181036000830152620006d98162000686565b9050919050565b6000602082019050620006f76000830184620006ad565b92915050565b6000620007096200071c565b905062000717828262000840565b919050565b6000604051905090565b600067ffffffffffffffff821115620007445762000743620008d4565b5b6200074f8262000917565b9050602081019050919050565b600082825260208201905092915050565b60006200077a82620007ca565b91506200078783620007ca565b9250827fffffffffffffffffffffffffffffffffffffffffffffffffffffffffffffffff03821115620007bf57620007be62000876565b5b828201905092915050565b6000819050919050565b60005b83811015620007f4578082015181840152602081019050620007d7565b8381111562000804576000848401525b50505050565b600060028204905060018216806200082357607f821691505b602082108114156200083a5762000839620008a5565b5b50919050565b6200084b8262000917565b810181811067ffffffffffffffff821117156200086d576200086c620008d4565b5b80604052505050565b7f4e487b7100000000000000000000000000000000000000000000000000000000600052601160045260246000fd5b7f4e487b7100000000000000000000000000000000000000000000000000000000600052602260045260246000fd5b7f4e487b7100000000000000000000000000000000000000000000000000000000600052604160045260246000fd5b600080fd5b600080fd5b600080fd5b600080fd5b6000601f19601f8301169050919050565b7f45524332303a206d696e7420746f20746865207a65726f206164647265737300600082015250565b6143f380620009616000396000f3fe60806040526004361061021e5760003560e01c80636708794a11610123578063a18dc75e116100ab578063d547741f1161006f578063d547741f14610845578063dd62ed3e1461086e578063e32059c1146108ab578063f2fde38b146108d6578063fd27195f146108ff57610225565b8063a18dc75e1461074c578063a217fddf14610789578063a457c2d7146107b4578063a9059cbb146107f1578063c3513f6d1461082e57610225565b80638da5cb5b116100f25780638da5cb5b1461065057806391d148541461067b578063921e9745146106b857806395d89b41146106f65780639dc56d941461072157610225565b80636708794a146105a857806370a08231146105d1578063715018a61461060e57806375b238fc1461062557610225565b8063248a9ca3116101a6578063313ce56711610175578063313ce5671461049d578063340462ed146104c857806336568abe14610505578063395093511461052e57806364879e411461056b57610225565b8063248a9ca3146103e5578063285f9457146104225780632e107efd1461044b5780632f2ff15d1461047457610225565b806314f35fb3116101ed57806314f35fb3146102eb57806318160ddd146103295780631e20ed2814610354578063216c24901461037d57806323b872dd146103a857610225565b806301ffc9a71461022a57806306fdde0314610267578063091152c714610292578063095ea7b3146102ae57610225565b3661022557005b600080fd5b34801561023657600080fd5b50610251600480360381019061024c9190613137565b61092a565b60405161025e919061380b565b60405180910390f35b34801561027357600080fd5b5061027c6109a4565b6040516102899190613877565b60405180910390f35b6102ac60048036038101906102a79190613209565b610a36565b005b3480156102ba57600080fd5b506102d560048036038101906102d0919061301d565b610c43565b6040516102e2919061380b565b60405180910390f35b3480156102f757600080fd5b50610312600480360381019061030d91906132d4565b610c61565b604051610320929190613a92565b60405180910390f35b34801561033557600080fd5b5061033e610f34565b60405161034b9190613a77565b60405180910390f35b34801561036057600080fd5b5061037b60048036038101906103769190613343565b610f3e565b005b34801561038957600080fd5b50610392610fb2565b60405161039f9190613a77565b60405180910390f35b3480156103b457600080fd5b506103cf60048036038101906103ca9190612fca565b610fb8565b6040516103dc919061380b565b60405180910390f35b3480156103f157600080fd5b5061040c6004803603810190610407919061305d565b6110b9565b6040516104199190613826565b60405180910390f35b34801561042e57600080fd5b5061044960048036038101906104449190613343565b6110d9565b005b34801561045757600080fd5b50610472600480360381019061046d91906131ad565b611141565b005b34801561048057600080fd5b5061049b600480360381019061049691906130b7565b6112ad565b005b3480156104a957600080fd5b506104b26112d6565b6040516104bf9190613af2565b60405180910390f35b3480156104d457600080fd5b506104ef60048036038101906104ea91906130f7565b6112df565b6040516104fc919061385c565b60405180910390f35b34801561051157600080fd5b5061052c600480360381019061052791906130b7565b611321565b005b34801561053a57600080fd5b506105556004803603810190610550919061301d565b6113a4565b604051610562919061380b565b60405180910390f35b34801561057757600080fd5b50610592600480360381019061058d9190613164565b611450565b60405161059f919061380b565b60405180910390f35b3480156105b457600080fd5b506105cf60048036038101906105ca9190613265565b611493565b005b3480156105dd57600080fd5b506105f860048036038101906105f39190612f5d565b6116de565b6040516106059190613a77565b60405180910390f35b34801561061a57600080fd5b50610623611726565b005b34801561063157600080fd5b5061063a611863565b6040516106479190613826565b60405180910390f35b34801561065c57600080fd5b50610665611887565b6040516106729190613782565b60405180910390f35b34801561068757600080fd5b506106a2600480360381019061069d91906130b7565b6118b1565b6040516106af919061380b565b60405180910390f35b3480156106c457600080fd5b506106df60048036038101906106da91906132d4565b61191c565b6040516106ed929190613a92565b60405180910390f35b34801561070257600080fd5b5061070b611c1c565b6040516107189190613877565b60405180910390f35b34801561072d57600080fd5b50610736611cae565b6040516107439190613a77565b60405180910390f35b34801561075857600080fd5b50610773600480360381019061076e919061305d565b611cb5565b6040516107809190613841565b60405180910390f35b34801561079557600080fd5b5061079e611ce8565b6040516107ab9190613826565b60405180910390f35b3480156107c057600080fd5b506107db60048036038101906107d6919061301d565b611cef565b6040516107e8919061380b565b60405180910390f35b3480156107fd57600080fd5b506108186004803603810190610813919061301d565b611de3565b604051610825919061380b565b60405180910390f35b34801561083a57600080fd5b50610843611e01565b005b34801561085157600080fd5b5061086c600480360381019061086791906130b7565b611f69565b005b34801561087a57600080fd5b5061089560048036038101906108909190612f8a565b611f92565b6040516108a29190613a77565b60405180910390f35b3480156108b757600080fd5b506108c0612019565b6040516108cd9190613a77565b60405180910390f35b3480156108e257600080fd5b506108fd60048036038101906108f89190612f5d565b61201f565b005b34801561090b57600080fd5b506109146121cb565b6040516109219190613a77565b60405180910390f35b60007f7965db0b000000000000000000000000000000000000000000000000000000007bffffffffffffffffffffffffffffffffffffffffffffffffffffffff1916827bffffffffffffffffffffffffffffffffffffffffffffffffffffffff1916148061099d575061099c826121d1565b5b9050919050565b6060600380546109b390613e00565b80601f01602080910402602001604051908101604052809291908181526020018280546109df90613e00565b8015610a2c5780601f10610a0157610100808354040283529160200191610a2c565b820191906000526020600020905b815481529060010190602001808311610a0f57829003601f168201915b5050505050905090565b600080610a4484843461191c565b915091506000600760009054906101000a900473ffffffffffffffffffffffffffffffffffffffff1673ffffffffffffffffffffffffffffffffffffffff1634604051610a9090613733565b60006040518083038185875af1925050503d8060008114610acd576040519150601f19603f3d011682016040523d82523d6000602084013e610ad2565b606091505b5050905080610b16576040517f08c379a0000000000000000000000000000000000000000000000000000000008152600401610b0d906139d7565b60405180910390fd5b600085604051602001610b29919061371c565b604051602081830303815290604052805190602001209050600d6000828152602001908152602001600020600086815260200190815260200160002060009054906101000a900473ffffffffffffffffffffffffffffffffffffffff1673ffffffffffffffffffffffffffffffffffffffff166340c10f198434610bad9190613c45565b33876040518463ffffffff1660e01b8152600401610bcc92919061379d565b6000604051808303818588803b158015610be557600080fd5b505af1158015610bf9573d6000803e3d6000fd5b50505050507f8b18deef4f7095ff8e0d5807297d88a3e0001abe742fd52a9b8ef98311e4e3d333853486604051610c3394939291906137c6565b60405180910390a1505050505050565b6000610c57610c5061223b565b8484612243565b6001905092915050565b600080600085604051602001610c77919061371c565b604051602081830303815290604052805190602001209050610ca381600861240e90919063ffffffff16565b610cac57600080fd5b610cc085600a61242590919063ffffffff16565b610cc957600080fd5b6000600c600083815260200190815260200160002060009054906101000a900473ffffffffffffffffffffffffffffffffffffffff1673ffffffffffffffffffffffffffffffffffffffff1663b0667cf86040518163ffffffff1660e01b8152600401604080518083038186803b158015610d4357600080fd5b505afa158015610d57573d6000803e3d6000fd5b505050506040513d601f19601f82011682018060405250810190610d7b919061339d565b5090506000600c600084815260200190815260200160002060009054906101000a900473ffffffffffffffffffffffffffffffffffffffff1673ffffffffffffffffffffffffffffffffffffffff1663040b030f886040518263ffffffff1660e01b8152600401610dec9190613a77565b60206040518083038186803b158015610e0457600080fd5b505afa158015610e18573d6000803e3d6000fd5b505050506040513d601f19601f82011682018060405250810190610e3c9190613370565b90506000600d6000858152602001908152602001600020600089815260200190815260200160002060009054906101000a900473ffffffffffffffffffffffffffffffffffffffff1673ffffffffffffffffffffffffffffffffffffffff166362c5c1198885856040518463ffffffff1660e01b8152600401610ec193929190613abb565b60206040518083038186803b158015610ed957600080fd5b505afa158015610eed573d6000803e3d6000fd5b505050506040513d601f19601f82011682018060405250810190610f119190613370565b905080610f2482600f54620f424061243f565b9550955050505050935093915050565b6000600254905090565b7fa49807205ce4d355092ef5a8a18f56e8913cf4a201fbe287825b095693c21775610f7081610f6b61223b565b61253b565b81600f819055507f500c80bd9b6a860d5773840a11c8dafaf360016284c941a068837b1ebbdc68ce82604051610fa69190613a77565b60405180910390a15050565b60105481565b6000610fc58484846125d8565b6000600160008673ffffffffffffffffffffffffffffffffffffffff1673ffffffffffffffffffffffffffffffffffffffff168152602001908152602001600020600061101061223b565b73ffffffffffffffffffffffffffffffffffffffff1673ffffffffffffffffffffffffffffffffffffffff16815260200190815260200160002054905082811015611090576040517f08c379a000000000000000000000000000000000000000000000000000000000815260040161108790613997565b60405180910390fd5b6110ad8561109c61223b565b85846110a89190613c45565b612243565b60019150509392505050565b600060066000838152602001908152602001600020600101549050919050565b7fa49807205ce4d355092ef5a8a18f56e8913cf4a201fbe287825b095693c2177561110b8161110661223b565b61253b565b61111f82600a61242590919063ffffffff16565b61112857600080fd5b61113c82600a61285790919063ffffffff16565b505050565b7fa49807205ce4d355092ef5a8a18f56e8913cf4a201fbe287825b095693c217756111738161116e61223b565b61253b565b600083604051602001611186919061371c565b6040516020818303038152906040528051906020012090506111b281600861240e90919063ffffffff16565b6111cc576111ca81600861287190919063ffffffff16565b505b8273ffffffffffffffffffffffffffffffffffffffff1663cca494736040518163ffffffff1660e01b815260040160206040518083038186803b15801561121257600080fd5b505afa158015611226573d6000803e3d6000fd5b505050506040513d601f19601f8201168201806040525081019061124a919061308a565b811461125557600080fd5b82600c600083815260200190815260200160002060006101000a81548173ffffffffffffffffffffffffffffffffffffffff021916908373ffffffffffffffffffffffffffffffffffffffff16021790555050505050565b6112b6826110b9565b6112c7816112c261223b565b61253b565b6112d18383612888565b505050565b60006012905090565b600d6020528160005260406000206020528060005260406000206000915091509054906101000a900473ffffffffffffffffffffffffffffffffffffffff1681565b61132961223b565b73ffffffffffffffffffffffffffffffffffffffff168173ffffffffffffffffffffffffffffffffffffffff1614611396576040517f08c379a000000000000000000000000000000000000000000000000000000000815260040161138d90613a57565b60405180910390fd5b6113a08282612969565b5050565b60006114466113b161223b565b8484600160006113bf61223b565b73ffffffffffffffffffffffffffffffffffffffff1673ffffffffffffffffffffffffffffffffffffffff16815260200190815260200160002060008873ffffffffffffffffffffffffffffffffffffffff1673ffffffffffffffffffffffffffffffffffffffff168152602001908152602001600020546114419190613b95565b612243565b6001905092915050565b600061148c82604051602001611466919061371c565b60405160208183030381529060405280519060200120600861240e90919063ffffffff16565b9050919050565b7fa49807205ce4d355092ef5a8a18f56e8913cf4a201fbe287825b095693c217756114c5816114c061223b565b61253b565b6000846040516020016114d8919061371c565b60405160208183030381529060405280519060200120905061150481600861240e90919063ffffffff16565b61151e5761151c81600861287190919063ffffffff16565b505b61153284600a61242590919063ffffffff16565b61154c5761154a84600a612a4b90919063ffffffff16565b505b82600d6000838152602001908152602001600020600086815260200190815260200160002060006101000a81548173ffffffffffffffffffffffffffffffffffffffff021916908373ffffffffffffffffffffffffffffffffffffffff160217905550600d6000828152602001908152602001600020600085815260200190815260200160002060009054906101000a900473ffffffffffffffffffffffffffffffffffffffff1673ffffffffffffffffffffffffffffffffffffffff1663313ce5676040518163ffffffff1660e01b815260040160206040518083038186803b15801561163957600080fd5b505afa15801561164d573d6000803e3d6000fd5b505050506040513d601f19601f8201168201806040525081019061167191906133dd565b600e600083815260200190815260200160002060006101000a81548160ff021916908360ff1602179055507f93dc3bfce85f48c721d4974c97962581e256eb8306b1921bdc290631c6cac8a28585856040516116cf93929190613899565b60405180910390a15050505050565b60008060008373ffffffffffffffffffffffffffffffffffffffff1673ffffffffffffffffffffffffffffffffffffffff168152602001908152602001600020549050919050565b61172e61223b565b73ffffffffffffffffffffffffffffffffffffffff1661174c611887565b73ffffffffffffffffffffffffffffffffffffffff16146117a2576040517f08c379a0000000000000000000000000000000000000000000000000000000008152600401611799906139b7565b60405180910390fd5b600073ffffffffffffffffffffffffffffffffffffffff16600560009054906101000a900473ffffffffffffffffffffffffffffffffffffffff1673ffffffffffffffffffffffffffffffffffffffff167f8be0079c531659141344cd1fd0a4f28419497f9722a3daafe3b4186f6b6457e060405160405180910390a36000600560006101000a81548173ffffffffffffffffffffffffffffffffffffffff021916908373ffffffffffffffffffffffffffffffffffffffff160217905550565b7fa49807205ce4d355092ef5a8a18f56e8913cf4a201fbe287825b095693c2177581565b6000600560009054906101000a900473ffffffffffffffffffffffffffffffffffffffff16905090565b60006006600084815260200190815260200160002060000160008373ffffffffffffffffffffffffffffffffffffffff1673ffffffffffffffffffffffffffffffffffffffff16815260200190815260200160002060009054906101000a900460ff16905092915050565b600080600085604051602001611932919061371c565b60405160208183030381529060405280519060200120905061195e81600861240e90919063ffffffff16565b61196757600080fd5b61197b85600a61242590919063ffffffff16565b61198457600080fd5b6000600c600083815260200190815260200160002060009054906101000a900473ffffffffffffffffffffffffffffffffffffffff1673ffffffffffffffffffffffffffffffffffffffff1663b0667cf86040518163ffffffff1660e01b8152600401604080518083038186803b1580156119fe57600080fd5b505afa158015611a12573d6000803e3d6000fd5b505050506040513d601f19601f82011682018060405250810190611a36919061339d565b5090506000600c600084815260200190815260200160002060009054906101000a900473ffffffffffffffffffffffffffffffffffffffff1673ffffffffffffffffffffffffffffffffffffffff1663040b030f886040518263ffffffff1660e01b8152600401611aa79190613a77565b60206040518083038186803b158015611abf57600080fd5b505afa158015611ad3573d6000803e3d6000fd5b505050506040513d601f19601f82011682018060405250810190611af79190613370565b90506000611be6600d600086815260200190815260200160002060008a815260200190815260200160002060009054906101000a900473ffffffffffffffffffffffffffffffffffffffff1673ffffffffffffffffffffffffffffffffffffffff16632fc7a44a8986866040518463ffffffff1660e01b8152600401611b7f93929190613abb565b60206040518083038186803b158015611b9757600080fd5b505afa158015611bab573d6000803e3d6000fd5b505050506040513d601f19601f82011682018060405250810190611bcf9190613370565b620f424080600f54611be19190613b95565b61243f565b90506000611c0788600f54620f4240600f54611c029190613b95565b61243f565b90508181965096505050505050935093915050565b606060048054611c2b90613e00565b80601f0160208091040260200160405190810160405280929190818152602001828054611c5790613e00565b8015611ca45780601f10611c7957610100808354040283529160200191611ca4565b820191906000526020600020905b815481529060010190602001808311611c8757829003601f168201915b5050505050905090565b620f424081565b600c6020528060005260406000206000915054906101000a900473ffffffffffffffffffffffffffffffffffffffff1681565b6000801b81565b60008060016000611cfe61223b565b73ffffffffffffffffffffffffffffffffffffffff1673ffffffffffffffffffffffffffffffffffffffff16815260200190815260200160002060008573ffffffffffffffffffffffffffffffffffffffff1673ffffffffffffffffffffffffffffffffffffffff16815260200190815260200160002054905082811015611dbb576040517f08c379a0000000000000000000000000000000000000000000000000000000008152600401611db290613a37565b60405180910390fd5b611dd8611dc661223b565b858584611dd39190613c45565b612243565b600191505092915050565b6000611df7611df061223b565b84846125d8565b6001905092915050565b611e0961223b565b73ffffffffffffffffffffffffffffffffffffffff16611e27611887565b73ffffffffffffffffffffffffffffffffffffffff1614611e7d576040517f08c379a0000000000000000000000000000000000000000000000000000000008152600401611e74906139b7565b60405180910390fd5b600047905060003373ffffffffffffffffffffffffffffffffffffffff1682604051611ea890613733565b60006040518083038185875af1925050503d8060008114611ee5576040519150601f19603f3d011682016040523d82523d6000602084013e611eea565b606091505b5050905080611f2e576040517f08c379a0000000000000000000000000000000000000000000000000000000008152600401611f2590613977565b60405180910390fd5b7f4f419c906cb8927e83df10513ea1227360d365c979782f6458b22891c1765ba682604051611f5d9190613a77565b60405180910390a15050565b611f72826110b9565b611f8381611f7e61223b565b61253b565b611f8d8383612969565b505050565b6000600160008473ffffffffffffffffffffffffffffffffffffffff1673ffffffffffffffffffffffffffffffffffffffff16815260200190815260200160002060008373ffffffffffffffffffffffffffffffffffffffff1673ffffffffffffffffffffffffffffffffffffffff16815260200190815260200160002054905092915050565b600f5481565b61202761223b565b73ffffffffffffffffffffffffffffffffffffffff16612045611887565b73ffffffffffffffffffffffffffffffffffffffff161461209b576040517f08c379a0000000000000000000000000000000000000000000000000000000008152600401612092906139b7565b60405180910390fd5b600073ffffffffffffffffffffffffffffffffffffffff168173ffffffffffffffffffffffffffffffffffffffff16141561210b576040517f08c379a000000000000000000000000000000000000000000000000000000000815260040161210290613917565b60405180910390fd5b8073ffffffffffffffffffffffffffffffffffffffff16600560009054906101000a900473ffffffffffffffffffffffffffffffffffffffff1673ffffffffffffffffffffffffffffffffffffffff167f8be0079c531659141344cd1fd0a4f28419497f9722a3daafe3b4186f6b6457e060405160405180910390a380600560006101000a81548173ffffffffffffffffffffffffffffffffffffffff021916908373ffffffffffffffffffffffffffffffffffffffff16021790555050565b60115481565b60007f01ffc9a7000000000000000000000000000000000000000000000000000000007bffffffffffffffffffffffffffffffffffffffffffffffffffffffff1916827bffffffffffffffffffffffffffffffffffffffffffffffffffffffff1916149050919050565b600033905090565b600073ffffffffffffffffffffffffffffffffffffffff168373ffffffffffffffffffffffffffffffffffffffff1614156122b3576040517f08c379a00000000000000000000000000000000000000000000000000000000081526004016122aa90613a17565b60405180910390fd5b600073ffffffffffffffffffffffffffffffffffffffff168273ffffffffffffffffffffffffffffffffffffffff161415612323576040517f08c379a000000000000000000000000000000000000000000000000000000000815260040161231a90613937565b60405180910390fd5b80600160008573ffffffffffffffffffffffffffffffffffffffff1673ffffffffffffffffffffffffffffffffffffffff16815260200190815260200160002060008473ffffffffffffffffffffffffffffffffffffffff1673ffffffffffffffffffffffffffffffffffffffff168152602001908152602001600020819055508173ffffffffffffffffffffffffffffffffffffffff168373ffffffffffffffffffffffffffffffffffffffff167f8c5be1e5ebec7d5bd14f71427d1e84f3dd0314c0f7b2291e5b200ac8c7c3b925836040516124019190613a77565b60405180910390a3505050565b600061241d8360000183612a65565b905092915050565b6000612437836000018360001b612a65565b905092915050565b60008060008019858709858702925082811083820303915050600081141561247a576000841161246e57600080fd5b83820492505050612534565b80841161248657600080fd5b60008486880990508281118203915080830392506000856001877fffffffffffffffffffffffffffffffffffffffffffffffffffffffffffffffff0301169050808604955080840493506001818260000304019050808302841793506000600287600302189050808702600203810290508087026002038102905080870260020381029050808702600203810290508087026002038102905080870260020381029050808502955050505050505b9392505050565b61254582826118b1565b6125d45761256a8173ffffffffffffffffffffffffffffffffffffffff166014612a88565b6125788360001c6020612a88565b604051602001612589929190613748565b6040516020818303038152906040526040517f08c379a00000000000000000000000000000000000000000000000000000000081526004016125cb9190613877565b60405180910390fd5b5050565b600073ffffffffffffffffffffffffffffffffffffffff168373ffffffffffffffffffffffffffffffffffffffff161415612648576040517f08c379a000000000000000000000000000000000000000000000000000000000815260040161263f906139f7565b60405180910390fd5b600073ffffffffffffffffffffffffffffffffffffffff168273ffffffffffffffffffffffffffffffffffffffff1614156126b8576040517f08c379a00000000000000000000000000000000000000000000000000000000081526004016126af906138f7565b60405180910390fd5b6126c3838383612cc4565b60008060008573ffffffffffffffffffffffffffffffffffffffff1673ffffffffffffffffffffffffffffffffffffffff16815260200190815260200160002054905081811015612749576040517f08c379a000000000000000000000000000000000000000000000000000000000815260040161274090613957565b60405180910390fd5b81816127559190613c45565b6000808673ffffffffffffffffffffffffffffffffffffffff1673ffffffffffffffffffffffffffffffffffffffff16815260200190815260200160002081905550816000808573ffffffffffffffffffffffffffffffffffffffff1673ffffffffffffffffffffffffffffffffffffffff16815260200190815260200160002060008282546127e59190613b95565b925050819055508273ffffffffffffffffffffffffffffffffffffffff168473ffffffffffffffffffffffffffffffffffffffff167fddf252ad1be2c89b69c2b068fc378daa952ba7f163c4a11628f55a4df523b3ef846040516128499190613a77565b60405180910390a350505050565b6000612869836000018360001b612cc9565b905092915050565b60006128808360000183612dd5565b905092915050565b61289282826118b1565b6129655760016006600084815260200190815260200160002060000160008373ffffffffffffffffffffffffffffffffffffffff1673ffffffffffffffffffffffffffffffffffffffff16815260200190815260200160002060006101000a81548160ff02191690831515021790555061290a61223b565b73ffffffffffffffffffffffffffffffffffffffff168173ffffffffffffffffffffffffffffffffffffffff16837f2f8788117e7eff1d82e926ec794901d17c78024a50270940304540a733656f0d60405160405180910390a45b5050565b61297382826118b1565b15612a475760006006600084815260200190815260200160002060000160008373ffffffffffffffffffffffffffffffffffffffff1673ffffffffffffffffffffffffffffffffffffffff16815260200190815260200160002060006101000a81548160ff0219169083151502179055506129ec61223b565b73ffffffffffffffffffffffffffffffffffffffff168173ffffffffffffffffffffffffffffffffffffffff16837ff6391f5c32d9c69d2a47ea670b442974b53935d1edc7fd64eb21e047a839171b60405160405180910390a45b5050565b6000612a5d836000018360001b612dd5565b905092915050565b600080836001016000848152602001908152602001600020541415905092915050565b606060006002836002612a9b9190613beb565b612aa59190613b95565b67ffffffffffffffff811115612abe57612abd613f1f565b5b6040519080825280601f01601f191660200182016040528015612af05781602001600182028036833780820191505090505b5090507f300000000000000000000000000000000000000000000000000000000000000081600081518110612b2857612b27613ef0565b5b60200101907effffffffffffffffffffffffffffffffffffffffffffffffffffffffffffff1916908160001a9053507f780000000000000000000000000000000000000000000000000000000000000081600181518110612b8c57612b8b613ef0565b5b60200101907effffffffffffffffffffffffffffffffffffffffffffffffffffffffffffff1916908160001a90535060006001846002612bcc9190613beb565b612bd69190613b95565b90505b6001811115612c76577f3031323334353637383961626364656600000000000000000000000000000000600f861660108110612c1857612c17613ef0565b5b1a60f81b828281518110612c2f57612c2e613ef0565b5b60200101907effffffffffffffffffffffffffffffffffffffffffffffffffffffffffffff1916908160001a905350600485901c945080612c6f90613dd6565b9050612bd9565b5060008414612cba576040517f08c379a0000000000000000000000000000000000000000000000000000000008152600401612cb1906138d7565b60405180910390fd5b8091505092915050565b505050565b60008083600101600084815260200190815260200160002054905060008114612dc9576000600182612cfb9190613c45565b9050600060018660000180549050612d139190613c45565b90506000866000018281548110612d2d57612d2c613ef0565b5b9060005260206000200154905080876000018481548110612d5157612d50613ef0565b5b9060005260206000200181905550838760010160008381526020019081526020016000208190555086600001805480612d8d57612d8c613ec1565b5b60019003818190600052602060002001600090559055866001016000878152602001908152602001600020600090556001945050505050612dcf565b60009150505b92915050565b6000612de18383612a65565b612e3a578260000182908060018154018082558091505060019003906000526020600020016000909190919091505582600001805490508360010160008481526020019081526020016000208190555060019050612e3f565b600090505b92915050565b6000612e58612e5384613b32565b613b0d565b905082815260208101848484011115612e7457612e73613f53565b5b612e7f848285613d94565b509392505050565b600081359050612e9681614333565b92915050565b600081359050612eab8161434a565b92915050565b600081359050612ec081614361565b92915050565b600081519050612ed581614361565b92915050565b600081359050612eea81614378565b92915050565b600082601f830112612f0557612f04613f4e565b5b8135612f15848260208601612e45565b91505092915050565b600081359050612f2d8161438f565b92915050565b600081519050612f428161438f565b92915050565b600081519050612f57816143a6565b92915050565b600060208284031215612f7357612f72613f5d565b5b6000612f8184828501612e87565b91505092915050565b60008060408385031215612fa157612fa0613f5d565b5b6000612faf85828601612e87565b9250506020612fc085828601612e87565b9150509250929050565b600080600060608486031215612fe357612fe2613f5d565b5b6000612ff186828701612e87565b935050602061300286828701612e87565b925050604061301386828701612f1e565b9150509250925092565b6000806040838503121561303457613033613f5d565b5b600061304285828601612e87565b925050602061305385828601612f1e565b9150509250929050565b60006020828403121561307357613072613f5d565b5b600061308184828501612eb1565b91505092915050565b6000602082840312156130a05761309f613f5d565b5b60006130ae84828501612ec6565b91505092915050565b600080604083850312156130ce576130cd613f5d565b5b60006130dc85828601612eb1565b92505060206130ed85828601612e87565b9150509250929050565b6000806040838503121561310e5761310d613f5d565b5b600061311c85828601612eb1565b925050602061312d85828601612f1e565b9150509250929050565b60006020828403121561314d5761314c613f5d565b5b600061315b84828501612edb565b91505092915050565b60006020828403121561317a57613179613f5d565b5b600082013567ffffffffffffffff81111561319857613197613f58565b5b6131a484828501612ef0565b91505092915050565b600080604083850312156131c4576131c3613f5d565b5b600083013567ffffffffffffffff8111156131e2576131e1613f58565b5b6131ee85828601612ef0565b92505060206131ff85828601612e87565b9150509250929050565b600080604083850312156132205761321f613f5d565b5b600083013567ffffffffffffffff81111561323e5761323d613f58565b5b61324a85828601612ef0565b925050602061325b85828601612f1e565b9150509250929050565b60008060006060848603121561327e5761327d613f5d565b5b600084013567ffffffffffffffff81111561329c5761329b613f58565b5b6132a886828701612ef0565b93505060206132b986828701612f1e565b92505060406132ca86828701612e9c565b9150509250925092565b6000806000606084860312156132ed576132ec613f5d565b5b600084013567ffffffffffffffff81111561330b5761330a613f58565b5b61331786828701612ef0565b935050602061332886828701612f1e565b925050604061333986828701612f1e565b9150509250925092565b60006020828403121561335957613358613f5d565b5b600061336784828501612f1e565b91505092915050565b60006020828403121561338657613385613f5d565b5b600061339484828501612f33565b91505092915050565b600080604083850312156133b4576133b3613f5d565b5b60006133c285828601612f33565b92505060206133d385828601612f33565b9150509250929050565b6000602082840312156133f3576133f2613f5d565b5b600061340184828501612f48565b91505092915050565b61341381613d16565b82525050565b61342281613c79565b82525050565b61343181613c9d565b82525050565b61344081613ca9565b82525050565b61344f81613d28565b82525050565b61345e81613d4c565b82525050565b600061346f82613b63565b6134798185613b79565b9350613489818560208601613da3565b61349281613f62565b840191505092915050565b60006134a882613b63565b6134b28185613b8a565b93506134c2818560208601613da3565b80840191505092915050565b60006134db602083613b79565b91506134e682613f73565b602082019050919050565b60006134fe602383613b79565b915061350982613f9c565b604082019050919050565b6000613521602683613b79565b915061352c82613feb565b604082019050919050565b6000613544602283613b79565b915061354f8261403a565b604082019050919050565b6000613567602683613b79565b915061357282614089565b604082019050919050565b600061358a601283613b79565b9150613595826140d8565b602082019050919050565b60006135ad602883613b79565b91506135b882614101565b604082019050919050565b60006135d0602083613b79565b91506135db82614150565b602082019050919050565b60006135f3601383613b79565b91506135fe82614179565b602082019050919050565b6000613616602583613b79565b9150613621826141a2565b604082019050919050565b6000613639600083613b6e565b9150613644826141f1565b600082019050919050565b600061365c602483613b79565b9150613667826141f4565b604082019050919050565b600061367f601783613b8a565b915061368a82614243565b601782019050919050565b60006136a2602583613b79565b91506136ad8261426c565b604082019050919050565b60006136c5601183613b8a565b91506136d0826142bb565b601182019050919050565b60006136e8602f83613b79565b91506136f3826142e4565b604082019050919050565b61370781613cff565b82525050565b61371681613d09565b82525050565b6000613728828461349d565b915081905092915050565b600061373e8261362c565b9150819050919050565b600061375382613672565b915061375f828561349d565b915061376a826136b8565b9150613776828461349d565b91508190509392505050565b60006020820190506137976000830184613419565b92915050565b60006040820190506137b26000830185613419565b6137bf60208301846136fe565b9392505050565b60006080820190506137db6000830187613419565b6137e860208301866136fe565b6137f560408301856136fe565b61380260608301846136fe565b95945050505050565b60006020820190506138206000830184613428565b92915050565b600060208201905061383b6000830184613437565b92915050565b60006020820190506138566000830184613446565b92915050565b60006020820190506138716000830184613455565b92915050565b600060208201905081810360008301526138918184613464565b905092915050565b600060608201905081810360008301526138b38186613464565b90506138c260208301856136fe565b6138cf604083018461340a565b949350505050565b600060208201905081810360008301526138f0816134ce565b9050919050565b60006020820190508181036000830152613910816134f1565b9050919050565b6000602082019050818103600083015261393081613514565b9050919050565b6000602082019050818103600083015261395081613537565b9050919050565b600060208201905081810360008301526139708161355a565b9050919050565b600060208201905081810360008301526139908161357d565b9050919050565b600060208201905081810360008301526139b0816135a0565b9050919050565b600060208201905081810360008301526139d0816135c3565b9050919050565b600060208201905081810360008301526139f0816135e6565b9050919050565b60006020820190508181036000830152613a1081613609565b9050919050565b60006020820190508181036000830152613a308161364f565b9050919050565b60006020820190508181036000830152613a5081613695565b9050919050565b60006020820190508181036000830152613a70816136db565b9050919050565b6000602082019050613a8c60008301846136fe565b92915050565b6000604082019050613aa760008301856136fe565b613ab460208301846136fe565b9392505050565b6000606082019050613ad060008301866136fe565b613add60208301856136fe565b613aea60408301846136fe565b949350505050565b6000602082019050613b07600083018461370d565b92915050565b6000613b17613b28565b9050613b238282613e32565b919050565b6000604051905090565b600067ffffffffffffffff821115613b4d57613b4c613f1f565b5b613b5682613f62565b9050602081019050919050565b600081519050919050565b600081905092915050565b600082825260208201905092915050565b600081905092915050565b6000613ba082613cff565b9150613bab83613cff565b9250827fffffffffffffffffffffffffffffffffffffffffffffffffffffffffffffffff03821115613be057613bdf613e63565b5b828201905092915050565b6000613bf682613cff565b9150613c0183613cff565b9250817fffffffffffffffffffffffffffffffffffffffffffffffffffffffffffffffff0483118215151615613c3a57613c39613e63565b5b828202905092915050565b6000613c5082613cff565b9150613c5b83613cff565b925082821015613c6e57613c6d613e63565b5b828203905092915050565b6000613c8482613cdf565b9050919050565b6000613c9682613cdf565b9050919050565b60008115159050919050565b6000819050919050565b60007fffffffff0000000000000000000000000000000000000000000000000000000082169050919050565b600073ffffffffffffffffffffffffffffffffffffffff82169050919050565b6000819050919050565b600060ff82169050919050565b6000613d2182613d70565b9050919050565b6000613d3382613d3a565b9050919050565b6000613d4582613cdf565b9050919050565b6000613d5782613d5e565b9050919050565b6000613d6982613cdf565b9050919050565b6000613d7b82613d82565b9050919050565b6000613d8d82613cdf565b9050919050565b82818337600083830152505050565b60005b83811015613dc1578082015181840152602081019050613da6565b83811115613dd0576000848401525b50505050565b6000613de182613cff565b91506000821415613df557613df4613e63565b5b600182039050919050565b60006002820490506001821680613e1857607f821691505b60208210811415613e2c57613e2b613e92565b5b50919050565b613e3b82613f62565b810181811067ffffffffffffffff82111715613e5a57613e59613f1f565b5b80604052505050565b7f4e487b7100000000000000000000000000000000000000000000000000000000600052601160045260246000fd5b7f4e487b7100000000000000000000000000000000000000000000000000000000600052602260045260246000fd5b7f4e487b7100000000000000000000000000000000000000000000000000000000600052603160045260246000fd5b7f4e487b7100000000000000000000000000000000000000000000000000000000600052603260045260246000fd5b7f4e487b7100000000000000000000000000000000000000000000000000000000600052604160045260246000fd5b600080fd5b600080fd5b600080fd5b600080fd5b6000601f19601f8301169050919050565b7f537472696e67733a20686578206c656e67746820696e73756666696369656e74600082015250565b7f45524332303a207472616e7366657220746f20746865207a65726f206164647260008201527f6573730000000000000000000000000000000000000000000000000000000000602082015250565b7f4f776e61626c653a206e6577206f776e657220697320746865207a65726f206160008201527f6464726573730000000000000000000000000000000000000000000000000000602082015250565b7f45524332303a20617070726f766520746f20746865207a65726f20616464726560008201527f7373000000000000000000000000000000000000000000000000000000000000602082015250565b7f45524332303a207472616e7366657220616d6f756e742065786365656473206260008201527f616c616e63650000000000000000000000000000000000000000000000000000602082015250565b7f5769746864726177616c206661696c65642e0000000000000000000000000000600082015250565b7f45524332303a207472616e7366657220616d6f756e742065786365656473206160008201527f6c6c6f77616e6365000000000000000000000000000000000000000000000000602082015250565b7f4f776e61626c653a2063616c6c6572206973206e6f7420746865206f776e6572600082015250565b7f466565207061796d656e74206661696c65642e00000000000000000000000000600082015250565b7f45524332303a207472616e736665722066726f6d20746865207a65726f20616460008201527f6472657373000000000000000000000000000000000000000000000000000000602082015250565b50565b7f45524332303a20617070726f76652066726f6d20746865207a65726f2061646460008201527f7265737300000000000000000000000000000000000000000000000000000000602082015250565b7f416363657373436f6e74726f6c3a206163636f756e7420000000000000000000600082015250565b7f45524332303a2064656372656173656420616c6c6f77616e63652062656c6f7760008201527f207a65726f000000000000000000000000000000000000000000000000000000602082015250565b7f206973206d697373696e6720726f6c6520000000000000000000000000000000600082015250565b7f416363657373436f6e74726f6c3a2063616e206f6e6c792072656e6f756e636560008201527f20726f6c657320666f722073656c660000000000000000000000000000000000602082015250565b61433c81613c79565b811461434757600080fd5b50565b61435381613c8b565b811461435e57600080fd5b50565b61436a81613ca9565b811461437557600080fd5b50565b61438181613cb3565b811461438c57600080fd5b50565b61439881613cff565b81146143a357600080fd5b50565b6143af81613d09565b81146143ba57600080fd5b5056fea2646970667358221220bcf75fffbc36a56acd45fd4cd2d376ec256c4654c07a3498a45986aebcb2b09264736f6c63430008060033",
  "immutableReferences": {},
  "source": "pragma solidity ^0.8.4;\n\n/**\n * SPDX-License-Identifier: GPL-3.0-or-later\n * Moret\n * Copyright (C) 2021 Moret\n */\n\nimport \"./VolatilityToken.sol\";\nimport \"./VolatilityChain.sol\";\nimport \"./FullMath.sol\";\n\nimport \"@openzeppelin/contracts/access/Ownable.sol\";\nimport \"@openzeppelin/contracts/token/ERC20/ERC20.sol\";\nimport \"@openzeppelin/contracts/utils/math/Math.sol\";\nimport \"@openzeppelin/contracts/access/AccessControl.sol\";\nimport \"@openzeppelin/contracts/utils/structs/EnumerableSet.sol\";\n\n\ncontract GovernanceToken is ERC20, Ownable, AccessControl\n{\n  using EnumerableSet for EnumerableSet.UintSet;\n  using EnumerableSet for EnumerableSet.Bytes32Set;\n\n  address payable governanceAddr;\n    bytes32 public constant ADMIN_ROLE = keccak256(\"ADMIN_ROLE\");\n\n  EnumerableSet.Bytes32Set  tokenHashSet;\n  EnumerableSet.UintSet  tenors;\n  mapping(bytes32=> VolatilityChain) public volChainList;\n  mapping(bytes32=>mapping(uint256=>VolatilityToken)) public volTokensList;\n\n  mapping(bytes32=>uint8) decimalList;\n\n    uint256 public constant pctDenominator = 10 ** 6;\n    uint256 public governanceFees = 10000;\n    uint256 public loanFees = 200000;\n    uint256 public loanDayBase = 31536000;\n\n    constructor(\n        string memory _name,\n        string memory _symbol) ERC20(_name, _symbol)\n    {\n        governanceAddr = payable(address(this));\n\n        _mint(governanceAddr, 10 ** (18+10)); // 10 billion total supply.\n        _setupRole(ADMIN_ROLE, msg.sender);\n    }\n\n    function getVolatilityQuote(string memory _underlying, uint256 _tenor, uint256 _volAmount) public view returns(uint256, uint256)\n{\n    bytes32 _underlyingHash = keccak256(abi.encodePacked(_underlying));\n    require(tokenHashSet.contains(_underlyingHash));\n        require(tenors.contains(_tenor));\n        (uint256 _price,) = volChainList[_underlyingHash].queryPrice();\n        uint256 _volatility = volChainList[_underlyingHash].getVol(_tenor);\n\n        uint256 _quote = volTokensList[_underlyingHash][_tenor].calculateMintValue(_volAmount, _price, _volatility);\n\n        return (_quote, MulDiv(_quote, governanceFees, pctDenominator));\n}\n\n    function getVolatilityAmount(string memory _underlying, uint256 _tenor, uint256 _ethAmount) public view returns(uint256, uint256)\n    {\n        bytes32 _underlyingHash = keccak256(abi.encodePacked(_underlying));\n        require(tokenHashSet.contains(_underlyingHash));\n        require(tenors.contains(_tenor));\n\n        (uint256 _price,) = volChainList[_underlyingHash].queryPrice();\n        uint256 _volatility = volChainList[_underlyingHash].getVol(_tenor);\n\n        uint256 _amount = MulDiv(volTokensList[_underlyingHash][_tenor].calculateMintableAmount(_ethAmount, _price, _volatility), pctDenominator, governanceFees + pctDenominator);\n        uint256 _fee = MulDiv(_ethAmount, governanceFees, governanceFees + pctDenominator);\n\n        return (_amount, _fee);\n    }\n\n    function purchaseVolatilityToken(string memory _underlying, uint256 _tenor) external payable {\n        (uint256 _volTokenAmount, uint256 _fee) = getVolatilityAmount(_underlying, _tenor, msg.value);\n        // require(msg.value > _fee);\n\n        (bool _sentFee, ) = governanceAddr.call{value: msg.value}(\"\");\n        require(_sentFee, \"Fee payment failed.\");\n\n        bytes32 _underlyingHash = keccak256(abi.encodePacked(_underlying));\n        volTokensList[_underlyingHash][_tenor].mint{value: msg.value - _fee}(msg.sender, _volTokenAmount);\n\n        emit volatilityTokenPurchased(msg.sender, _volTokenAmount,  msg.value,  _fee);\n    }\n\n    function addVolChain(string memory _underlying, address _volChainAddress) external onlyRole(ADMIN_ROLE){\n        bytes32 _underlyingHash = keccak256(abi.encodePacked(_underlying));\n\n        if(!tokenHashSet.contains(_underlyingHash))\n        {\n            tokenHashSet.add(_underlyingHash);\n        }\n        require(_underlyingHash==VolatilityChain(_volChainAddress).tokenHash());\n        volChainList[_underlyingHash] = VolatilityChain(_volChainAddress);\n    }\n\n    function addVolToken(string memory  _underlying, uint256 _tenor, address payable _tokenAddress) external onlyRole(ADMIN_ROLE)\n    {\n        bytes32 _underlyingHash = keccak256(abi.encodePacked(_underlying));\n        if(!tokenHashSet.contains(_underlyingHash)){\n            tokenHashSet.add(_underlyingHash);\n        }\n        if(!tenors.contains(_tenor)){\n            tenors.add(_tenor);\n        }\n        /* require(_underlyingHash==VolatilityToken(_tokenAddress).descriptionHash()); */\n        volTokensList[_underlyingHash][_tenor] = VolatilityToken(_tokenAddress);\n        decimalList[_underlyingHash] = volTokensList[_underlyingHash][_tenor].decimals();\n\n        emit newVolatilityToken(_underlying, _tenor, _tokenAddress);\n    }\n\n    function removeTenor(uint256 _tenor) external onlyRole(ADMIN_ROLE) {\n        require(tenors.contains(_tenor));\n        tenors.remove( _tenor);\n    }\n\n    function hasVolToken(string memory  _underlying) external view returns(bool)\n    {\n        return tokenHashSet.contains(keccak256(abi.encodePacked(_underlying)));\n    }\n\n    function resetGovernanceFees(uint256 _fee) external onlyRole(ADMIN_ROLE){\n        governanceFees = _fee;\n        emit newGovernanceFees(_fee);\n    }\n\n    function sweepBalance() external onlyOwner{\n        uint256 _amount = address(this).balance;\n        (bool _sent, ) = payable(msg.sender).call{value: _amount}(\"\");\n        require(_sent, \"Withdrawal failed.\");\n        emit cashSweep(_amount);\n    }\n\n    receive() external payable{}\n\n    event newGovernanceFees(uint256 _fee);\n    event newVolatilityToken(string  _underlying, uint256 _tenor, address _tokenAddress);\n    event cashSweep(uint256 _amount);\n    event volatilityTokenPurchased(address _buyer, uint256 _amout, uint256 _cost, uint256 _fee);\n\n}\n",
  "sourcePath": "/Users/mac/Documents/GitHub/moret/contracts/GovernanceToken.sol",
  "compiler": {
    "name": "solc",
    "version": "0.8.6+commit.11564f7e.Emscripten.clang"
  },
  "schemaVersion": "3.4.1",
  "updatedAt": "2021-07-02T23:42:31.892Z",
  "devdoc": {
    "kind": "dev",
    "methods": {
      "allowance(address,address)": {
        "details": "See {IERC20-allowance}."
      },
      "approve(address,uint256)": {
        "details": "See {IERC20-approve}. Requirements: - `spender` cannot be the zero address."
      },
      "balanceOf(address)": {
        "details": "See {IERC20-balanceOf}."
      },
      "decimals()": {
        "details": "Returns the number of decimals used to get its user representation. For example, if `decimals` equals `2`, a balance of `505` tokens should be displayed to a user as `5,05` (`505 / 10 ** 2`). Tokens usually opt for a value of 18, imitating the relationship between Ether and Wei. This is the value {ERC20} uses, unless this function is overridden; NOTE: This information is only used for _display_ purposes: it in no way affects any of the arithmetic of the contract, including {IERC20-balanceOf} and {IERC20-transfer}."
      },
      "decreaseAllowance(address,uint256)": {
        "details": "Atomically decreases the allowance granted to `spender` by the caller. This is an alternative to {approve} that can be used as a mitigation for problems described in {IERC20-approve}. Emits an {Approval} event indicating the updated allowance. Requirements: - `spender` cannot be the zero address. - `spender` must have allowance for the caller of at least `subtractedValue`."
      },
      "getRoleAdmin(bytes32)": {
        "details": "Returns the admin role that controls `role`. See {grantRole} and {revokeRole}. To change a role's admin, use {_setRoleAdmin}."
      },
      "grantRole(bytes32,address)": {
        "details": "Grants `role` to `account`. If `account` had not been already granted `role`, emits a {RoleGranted} event. Requirements: - the caller must have ``role``'s admin role."
      },
      "hasRole(bytes32,address)": {
        "details": "Returns `true` if `account` has been granted `role`."
      },
      "increaseAllowance(address,uint256)": {
        "details": "Atomically increases the allowance granted to `spender` by the caller. This is an alternative to {approve} that can be used as a mitigation for problems described in {IERC20-approve}. Emits an {Approval} event indicating the updated allowance. Requirements: - `spender` cannot be the zero address."
      },
      "name()": {
        "details": "Returns the name of the token."
      },
      "owner()": {
        "details": "Returns the address of the current owner."
      },
      "renounceOwnership()": {
        "details": "Leaves the contract without owner. It will not be possible to call `onlyOwner` functions anymore. Can only be called by the current owner. NOTE: Renouncing ownership will leave the contract without an owner, thereby removing any functionality that is only available to the owner."
      },
      "renounceRole(bytes32,address)": {
        "details": "Revokes `role` from the calling account. Roles are often managed via {grantRole} and {revokeRole}: this function's purpose is to provide a mechanism for accounts to lose their privileges if they are compromised (such as when a trusted device is misplaced). If the calling account had been granted `role`, emits a {RoleRevoked} event. Requirements: - the caller must be `account`."
      },
      "revokeRole(bytes32,address)": {
        "details": "Revokes `role` from `account`. If `account` had been granted `role`, emits a {RoleRevoked} event. Requirements: - the caller must have ``role``'s admin role."
      },
      "supportsInterface(bytes4)": {
        "details": "See {IERC165-supportsInterface}."
      },
      "symbol()": {
        "details": "Returns the symbol of the token, usually a shorter version of the name."
      },
      "totalSupply()": {
        "details": "See {IERC20-totalSupply}."
      },
      "transfer(address,uint256)": {
        "details": "See {IERC20-transfer}. Requirements: - `recipient` cannot be the zero address. - the caller must have a balance of at least `amount`."
      },
      "transferFrom(address,address,uint256)": {
        "details": "See {IERC20-transferFrom}. Emits an {Approval} event indicating the updated allowance. This is not required by the EIP. See the note at the beginning of {ERC20}. Requirements: - `sender` and `recipient` cannot be the zero address. - `sender` must have a balance of at least `amount`. - the caller must have allowance for ``sender``'s tokens of at least `amount`."
      },
      "transferOwnership(address)": {
        "details": "Transfers ownership of the contract to a new account (`newOwner`). Can only be called by the current owner."
      }
    },
    "version": 1
  },
  "userdoc": {
    "kind": "user",
    "methods": {},
    "version": 1
  }
}