{
  "contractName": "MarketMakerFactory",
  "abi": [
    {
      "inputs": [
        {
          "internalType": "contract Moret",
          "name": "_govToken",
          "type": "address"
        },
        {
          "internalType": "contract Exchange",
          "name": "_exchange",
          "type": "address"
        }
      ],
      "stateMutability": "nonpayable",
      "type": "constructor"
    },
    {
      "anonymous": false,
      "inputs": [
        {
          "indexed": true,
          "internalType": "address",
          "name": "underlyingAddress",
          "type": "address"
        },
        {
          "indexed": false,
          "internalType": "address",
          "name": "marketMaker",
          "type": "address"
        }
      ],
      "name": "MarketMakerCreated",
      "type": "event"
    },
    {
      "inputs": [],
      "name": "exchange",
      "outputs": [
        {
          "internalType": "contract Exchange",
          "name": "",
          "type": "address"
        }
      ],
      "stateMutability": "view",
      "type": "function"
    },
    {
      "inputs": [],
      "name": "govToken",
      "outputs": [
        {
          "internalType": "contract Moret",
          "name": "",
          "type": "address"
        }
      ],
      "stateMutability": "view",
      "type": "function"
    },
    {
      "inputs": [
        {
          "internalType": "address",
          "name": "_hedgingBot",
          "type": "address"
        },
        {
          "internalType": "address",
          "name": "_underlying",
          "type": "address"
        },
        {
          "internalType": "bytes32",
          "name": "_description",
          "type": "bytes32"
        }
      ],
      "name": "createMarketMaker",
      "outputs": [
        {
          "internalType": "address",
          "name": "_marketMakerAddress",
          "type": "address"
        }
      ],
      "stateMutability": "nonpayable",
      "type": "function"
    }
  ],
  "bytecode": "0x60c060405234801561001057600080fd5b50604051611d84380380611d8483398181016040528101906100329190610154565b8173ffffffffffffffffffffffffffffffffffffffff1660808173ffffffffffffffffffffffffffffffffffffffff16815250508073ffffffffffffffffffffffffffffffffffffffff1660a08173ffffffffffffffffffffffffffffffffffffffff16815250505050610194565b600080fd5b600073ffffffffffffffffffffffffffffffffffffffff82169050919050565b60006100d1826100a6565b9050919050565b60006100e3826100c6565b9050919050565b6100f3816100d8565b81146100fe57600080fd5b50565b600081519050610110816100ea565b92915050565b6000610121826100c6565b9050919050565b61013181610116565b811461013c57600080fd5b50565b60008151905061014e81610128565b92915050565b6000806040838503121561016b5761016a6100a1565b5b600061017985828601610101565b925050602061018a8582860161013f565b9150509250929050565b60805160a051611bbe6101c6600039600081816101b901526102b501526000818160c701526101da0152611bbe6000f3fe60806040523480156200001157600080fd5b5060043610620000465760003560e01c806305268cff146200004b5780637810d8e0146200006d578063d2f7265a14620000a3575b600080fd5b62000055620000c5565b60405162000064919062000370565b60405180910390f35b6200008b600480360381019062000085919062000412565b620000e9565b6040516200009a91906200047f565b60405180910390f35b620000ad620002b3565b604051620000bc9190620004c1565b60405180910390f35b7f000000000000000000000000000000000000000000000000000000000000000081565b60008073ffffffffffffffffffffffffffffffffffffffff168473ffffffffffffffffffffffffffffffffffffffff16036200015c576040517f08c379a000000000000000000000000000000000000000000000000000000000815260040162000153906200053f565b60405180910390fd5b600084604051602001620001719190620005b1565b6040516020818303038152906040528051906020012090506000604051806020016200019d90620002d7565b6020820181038252601f19601f820116604052509050808685877f00000000000000000000000000000000000000000000000000000000000000007f00000000000000000000000000000000000000000000000000000000000000006040516020016200020f959493929190620005df565b60405160208183030381529060405260405160200162000231929190620006bf565b6040516020818303038152906040529050818151602083016000f59050803b6200025a57600080fd5b8473ffffffffffffffffffffffffffffffffffffffff167fa42c882cff0238125f6988621e4215919ff5bdb8aa38abb02c0f10df9e7da5e784604051620002a291906200047f565b60405180910390a250509392505050565b7f000000000000000000000000000000000000000000000000000000000000000081565b6114a180620006e883390190565b600073ffffffffffffffffffffffffffffffffffffffff82169050919050565b6000819050919050565b6000620003306200032a6200032484620002e5565b62000305565b620002e5565b9050919050565b600062000344826200030f565b9050919050565b6000620003588262000337565b9050919050565b6200036a816200034b565b82525050565b60006020820190506200038760008301846200035f565b92915050565b600080fd5b60006200039f82620002e5565b9050919050565b620003b18162000392565b8114620003bd57600080fd5b50565b600081359050620003d181620003a6565b92915050565b6000819050919050565b620003ec81620003d7565b8114620003f857600080fd5b50565b6000813590506200040c81620003e1565b92915050565b6000806000606084860312156200042e576200042d6200038d565b5b60006200043e86828701620003c0565b93505060206200045186828701620003c0565b92505060406200046486828701620003fb565b9150509250925092565b620004798162000392565b82525050565b60006020820190506200049660008301846200046e565b92915050565b6000620004a98262000337565b9050919050565b620004bb816200049c565b82525050565b6000602082019050620004d86000830184620004b0565b92915050565b600082825260208201905092915050565b7f5a45524f5f414444524553530000000000000000000000000000000000000000600082015250565b600062000527600c83620004de565b91506200053482620004ef565b602082019050919050565b600060208201905081810360008301526200055a8162000518565b9050919050565b60008160601b9050919050565b60006200057b8262000561565b9050919050565b60006200058f826200056e565b9050919050565b620005ab620005a58262000392565b62000582565b82525050565b6000620005bf828462000596565b60148201915081905092915050565b620005d981620003d7565b82525050565b600060a082019050620005f660008301886200046e565b620006056020830187620005ce565b6200061460408301866200046e565b620006236060830185620004b0565b6200063260808301846200035f565b9695505050505050565b600081519050919050565b600081905092915050565b60005b838110156200067257808201518184015260208101905062000655565b8381111562000682576000848401525b50505050565b600062000695826200063c565b620006a1818562000647565b9350620006b381856020860162000652565b80840191505092915050565b6000620006cd828562000688565b9150620006db828462000688565b9150819050939250505056fe61014060405260008055660aa87bee5380006001553480156200002157600080fd5b50604051620014a1380380620014a18339818101604052810190620000479190620002bb565b8473ffffffffffffffffffffffffffffffffffffffff1660808173ffffffffffffffffffffffffffffffffffffffff16815250508360a081815250508073ffffffffffffffffffffffffffffffffffffffff1660c08173ffffffffffffffffffffffffffffffffffffffff16815250508073ffffffffffffffffffffffffffffffffffffffff1663cb4c86b76040518163ffffffff1660e01b8152600401602060405180830381865afa15801562000103573d6000803e3d6000fd5b505050506040513d601f19601f8201168201806040525081019062000129919062000388565b73ffffffffffffffffffffffffffffffffffffffff166101008173ffffffffffffffffffffffffffffffffffffffff16815250508173ffffffffffffffffffffffffffffffffffffffff1660e08173ffffffffffffffffffffffffffffffffffffffff16815250508273ffffffffffffffffffffffffffffffffffffffff166101208173ffffffffffffffffffffffffffffffffffffffff16815250505050505050620003ba565b600080fd5b600073ffffffffffffffffffffffffffffffffffffffff82169050919050565b60006200020382620001d6565b9050919050565b6200021581620001f6565b81146200022157600080fd5b50565b60008151905062000235816200020a565b92915050565b6000819050919050565b62000250816200023b565b81146200025c57600080fd5b50565b600081519050620002708162000245565b92915050565b60006200028382620001f6565b9050919050565b620002958162000276565b8114620002a157600080fd5b50565b600081519050620002b5816200028a565b92915050565b600080600080600060a08688031215620002da57620002d9620001d1565b5b6000620002ea8882890162000224565b9550506020620002fd888289016200025f565b9450506040620003108882890162000224565b9350506060620003238882890162000224565b92505060806200033688828901620002a4565b9150509295509295909350565b60006200035082620001f6565b9050919050565b620003628162000343565b81146200036e57600080fd5b50565b600081519050620003828162000357565b92915050565b600060208284031215620003a157620003a0620001d1565b5b6000620003b18482850162000371565b91505092915050565b60805160a05160c05160e05161010051610120516110666200043b6000396000818161072d01526107dd01526000818161067b01526108600152600081816105e4015261088401526000818161021d015281816103a001526107a10152600061075101526000818161024101528181610312015261077501526110666000f3fe608060405234801561001057600080fd5b50600436106100b45760003560e01c80637284e416116100715780637284e4161461016757806384d3d76714610185578063a7292ea4146101a3578063c0a16f6a146101c1578063cb4c86b7146101df578063d2f7265a146101fd576100b4565b806305268cff146100b95780630c9eba2f146100d7578063315818d2146100f35780633e60e3481461010f57806343cee9191461012b5780636f307dc314610149575b600080fd5b6100c161021b565b6040516100ce9190610925565b60405180910390f35b6100f160048036038101906100ec9190610980565b61023f565b005b61010d60048036038101906101089190610a8e565b610310565b005b61012960048036038101906101249190610b28565b6105e2565b005b610133610725565b6040516101409190610b77565b60405180910390f35b61015161072b565b60405161015e9190610ba1565b60405180910390f35b61016f61074f565b60405161017c9190610bd5565b60405180910390f35b61018d610773565b60405161019a9190610ba1565b60405180910390f35b6101ab610797565b6040516101b89190610b77565b60405180910390f35b6101c961079d565b6040516101d69190610c11565b60405180910390f35b6101e761085e565b6040516101f49190610c4d565b60405180910390f35b610205610882565b6040516102129190610ba1565b60405180910390f35b7f000000000000000000000000000000000000000000000000000000000000000081565b7f000000000000000000000000000000000000000000000000000000000000000073ffffffffffffffffffffffffffffffffffffffff163373ffffffffffffffffffffffffffffffffffffffff16146102cd576040517f08c379a00000000000000000000000000000000000000000000000000000000081526004016102c490610cc5565b60405180910390fd5b8060008190555060657f1f77a5f1218c5e380f0425a2e88a823d831b5f8906f5ab4db8b1565a36f780d7826040516103059190610b77565b60405180910390a250565b7f000000000000000000000000000000000000000000000000000000000000000073ffffffffffffffffffffffffffffffffffffffff163373ffffffffffffffffffffffffffffffffffffffff161461039e576040517f08c379a000000000000000000000000000000000000000000000000000000000815260040161039590610cc5565b60405180910390fd5b7f000000000000000000000000000000000000000000000000000000000000000073ffffffffffffffffffffffffffffffffffffffff1663d5fb0a2a856040518263ffffffff1660e01b81526004016103f79190610ba1565b602060405180830381865afa158015610414573d6000803e3d6000fd5b505050506040513d601f19601f820116820180604052508101906104389190610d1d565b610477576040517f08c379a000000000000000000000000000000000000000000000000000000000815260040161046e90610d96565b60405180910390fd5b8573ffffffffffffffffffffffffffffffffffffffff1663095ea7b385876040518363ffffffff1660e01b81526004016104b2929190610dd7565b6020604051808303816000875af11580156104d1573d6000803e3d6000fd5b505050506040513d601f19601f820116820180604052508101906104f59190610d1d565b6104fe57600080fd5b6000808573ffffffffffffffffffffffffffffffffffffffff16838686604051610529929190610e3f565b60006040518083038160008787f1925050503d8060008114610567576040519150601f19603f3d011682016040523d82523d6000602084013e61056c565b606091505b50915091503073ffffffffffffffffffffffffffffffffffffffff163373ffffffffffffffffffffffffffffffffffffffff167f234723957084f18c54f8bc86e2b86341d24d4412c847641cf02b474d93c8bcd784846040516105d0929190610f00565b60405180910390a35050505050505050565b7f000000000000000000000000000000000000000000000000000000000000000073ffffffffffffffffffffffffffffffffffffffff163373ffffffffffffffffffffffffffffffffffffffff1614610670576040517f08c379a000000000000000000000000000000000000000000000000000000000815260040161066790610f7c565b60405180910390fd5b6000811115610721577f000000000000000000000000000000000000000000000000000000000000000073ffffffffffffffffffffffffffffffffffffffff1663a9059cbb83836040518363ffffffff1660e01b81526004016106d4929190610f9c565b6020604051808303816000875af11580156106f3573d6000803e3d6000fd5b505050506040513d601f19601f820116820180604052508101906107179190610d1d565b61072057600080fd5b5b5050565b60015481565b7f000000000000000000000000000000000000000000000000000000000000000081565b7f000000000000000000000000000000000000000000000000000000000000000081565b7f000000000000000000000000000000000000000000000000000000000000000081565b60005481565b60007f000000000000000000000000000000000000000000000000000000000000000073ffffffffffffffffffffffffffffffffffffffff166315dc2e9d7f00000000000000000000000000000000000000000000000000000000000000006040518263ffffffff1660e01b81526004016108189190610ba1565b602060405180830381865afa158015610835573d6000803e3d6000fd5b505050506040513d601f19601f820116820180604052508101906108599190611003565b905090565b7f000000000000000000000000000000000000000000000000000000000000000081565b7f000000000000000000000000000000000000000000000000000000000000000081565b600073ffffffffffffffffffffffffffffffffffffffff82169050919050565b6000819050919050565b60006108eb6108e66108e1846108a6565b6108c6565b6108a6565b9050919050565b60006108fd826108d0565b9050919050565b600061090f826108f2565b9050919050565b61091f81610904565b82525050565b600060208201905061093a6000830184610916565b92915050565b600080fd5b600080fd5b6000819050919050565b61095d8161094a565b811461096857600080fd5b50565b60008135905061097a81610954565b92915050565b60006020828403121561099657610995610940565b5b60006109a48482850161096b565b91505092915050565b60006109b8826108a6565b9050919050565b6109c8816109ad565b81146109d357600080fd5b50565b6000813590506109e5816109bf565b92915050565b60006109f6826108a6565b9050919050565b610a06816109eb565b8114610a1157600080fd5b50565b600081359050610a23816109fd565b92915050565b600080fd5b600080fd5b600080fd5b60008083601f840112610a4e57610a4d610a29565b5b8235905067ffffffffffffffff811115610a6b57610a6a610a2e565b5b602083019150836001820283011115610a8757610a86610a33565b5b9250929050565b60008060008060008060a08789031215610aab57610aaa610940565b5b6000610ab989828a016109d6565b9650506020610aca89828a0161096b565b9550506040610adb89828a01610a14565b945050606087013567ffffffffffffffff811115610afc57610afb610945565b5b610b0889828a01610a38565b93509350506080610b1b89828a0161096b565b9150509295509295509295565b60008060408385031215610b3f57610b3e610940565b5b6000610b4d858286016109d6565b9250506020610b5e8582860161096b565b9150509250929050565b610b718161094a565b82525050565b6000602082019050610b8c6000830184610b68565b92915050565b610b9b816109ad565b82525050565b6000602082019050610bb66000830184610b92565b92915050565b6000819050919050565b610bcf81610bbc565b82525050565b6000602082019050610bea6000830184610bc6565b92915050565b6000610bfb826108f2565b9050919050565b610c0b81610bf0565b82525050565b6000602082019050610c266000830184610c02565b92915050565b6000610c37826108f2565b9050919050565b610c4781610c2c565b82525050565b6000602082019050610c626000830184610c3e565b92915050565b600082825260208201905092915050565b7f2d48000000000000000000000000000000000000000000000000000000000000600082015250565b6000610caf600283610c68565b9150610cba82610c79565b602082019050919050565b60006020820190508181036000830152610cde81610ca2565b9050919050565b60008115159050919050565b610cfa81610ce5565b8114610d0557600080fd5b50565b600081519050610d1781610cf1565b92915050565b600060208284031215610d3357610d32610940565b5b6000610d4184828501610d08565b91505092915050565b7f2d52000000000000000000000000000000000000000000000000000000000000600082015250565b6000610d80600283610c68565b9150610d8b82610d4a565b602082019050919050565b60006020820190508181036000830152610daf81610d73565b9050919050565b6000610dc1826108f2565b9050919050565b610dd181610db6565b82525050565b6000604082019050610dec6000830185610dc8565b610df96020830184610b68565b9392505050565b600081905092915050565b82818337600083830152505050565b6000610e268385610e00565b9350610e33838584610e0b565b82840190509392505050565b6000610e4c828486610e1a565b91508190509392505050565b610e6181610ce5565b82525050565b600081519050919050565b600082825260208201905092915050565b60005b83811015610ea1578082015181840152602081019050610e86565b83811115610eb0576000848401525b50505050565b6000601f19601f8301169050919050565b6000610ed282610e67565b610edc8185610e72565b9350610eec818560208601610e83565b610ef581610eb6565b840191505092915050565b6000604082019050610f156000830185610e58565b8181036020830152610f278184610ec7565b90509392505050565b7f2d58000000000000000000000000000000000000000000000000000000000000600082015250565b6000610f66600283610c68565b9150610f7182610f30565b602082019050919050565b60006020820190508181036000830152610f9581610f59565b9050919050565b6000604082019050610fb16000830185610b92565b610fbe6020830184610b68565b9392505050565b6000610fd0826109ad565b9050919050565b610fe081610fc5565b8114610feb57600080fd5b50565b600081519050610ffd81610fd7565b92915050565b60006020828403121561101957611018610940565b5b600061102784828501610fee565b9150509291505056fea26469706673582212208ce1424ab82c02b2d467f2b80485b2e02cd79c5e6b6705c810508c701287ef2c64736f6c634300080d0033a2646970667358221220e48066a4cf15648e0751ece5de48cb8bd35e8fea6ee4cf94ea4dbef17dcb999b64736f6c634300080d0033",
  "immutableReferences": {
    "14425": [
      {
        "length": 32,
        "start": 199
      },
      {
        "length": 32,
        "start": 474
      }
    ],
    "14428": [
      {
        "length": 32,
        "start": 441
      },
      {
        "length": 32,
        "start": 693
      }
    ]
  },
  "source": "// SPDX-License-Identifier: MIT\npragma solidity ^0.8.4;\n\nimport \"@openzeppelin/contracts/token/ERC20/ERC20.sol\";\nimport \"@openzeppelin/contracts/utils/Strings.sol\";\nimport \"@openzeppelin/contracts/governance/TimelockController.sol\";\nimport \"../governance/Moret.sol\";\nimport \"./MarketMaker.sol\";\nimport \"../Exchange.sol\";\n\ncontract MarketMakerFactory {\n    Moret public immutable govToken;\n    Exchange public immutable exchange;\n\n    // events\n    event MarketMakerCreated(address indexed underlyingAddress, address marketMaker);\n\n    constructor(Moret _govToken, Exchange _exchange) {\n        govToken = _govToken;\n        exchange = _exchange;\n        }\n    \n    function createMarketMaker(address _hedgingBot, address _underlying, bytes32 _description) external returns (address _marketMakerAddress) {\n        require(_hedgingBot != address(0), 'ZERO_ADDRESS');\n        bytes32 _salt = keccak256(abi.encodePacked(_hedgingBot));\n\n        bytes memory _marketMakerBytecode = type(MarketMaker).creationCode;\n        _marketMakerBytecode = abi.encodePacked(_marketMakerBytecode, abi.encode(_hedgingBot, _description, _underlying, exchange, govToken));\n        assembly{\n            _marketMakerBytecode := create2(0, add(_marketMakerBytecode, 0x20), mload(_marketMakerBytecode), _salt)\n            if iszero(extcodesize(_marketMakerBytecode)) {revert(0,0)}\n        }\n        emit MarketMakerCreated(address(_underlying), _marketMakerAddress);}\n\n}",
  "sourcePath": "/Users/mac/Documents/GitHub/moret/contracts/pools/MarketMakerFactory.sol",
  "compiler": {
    "name": "solc",
    "version": "0.8.13+commit.abaa5c0e.Emscripten.clang"
  },
  "schemaVersion": "3.4.3",
  "updatedAt": "2022-05-02T09:43:37.198Z",
  "devdoc": {
    "kind": "dev",
    "methods": {},
    "version": 1
  },
  "userdoc": {
    "kind": "user",
    "methods": {},
    "version": 1
  }
}