{
  "contractName": "MarketLibrary",
  "abi": [
    {
      "inputs": [
        {
          "internalType": "address",
          "name": "_lendingPoolAddressProviderAddress",
          "type": "address"
        },
        {
          "internalType": "address",
          "name": "_tokenAddress",
          "type": "address"
        }
      ],
      "name": "getLendingTokenAddresses",
      "outputs": [
        {
          "internalType": "address",
          "name": "",
          "type": "address"
        },
        {
          "internalType": "address",
          "name": "",
          "type": "address"
        },
        {
          "internalType": "address",
          "name": "",
          "type": "address"
        }
      ],
      "stateMutability": "view",
      "type": "function"
    },
    {
      "inputs": [
        {
          "internalType": "address",
          "name": "_lendingPoolAddressProviderAddress",
          "type": "address"
        },
        {
          "internalType": "address",
          "name": "_tokenAddress",
          "type": "address"
        }
      ],
      "name": "getLTV",
      "outputs": [
        {
          "internalType": "uint256",
          "name": "",
          "type": "uint256"
        },
        {
          "internalType": "uint256",
          "name": "",
          "type": "uint256"
        }
      ],
      "stateMutability": "view",
      "type": "function"
    },
    {
      "inputs": [
        {
          "internalType": "int256",
          "name": "_targetBalances",
          "type": "int256"
        },
        {
          "internalType": "address",
          "name": "_contractAddress",
          "type": "address"
        },
        {
          "internalType": "address",
          "name": "_lendingPoolAddressProviderAddress",
          "type": "address"
        },
        {
          "internalType": "address",
          "name": "_tokenAddress",
          "type": "address"
        }
      ],
      "name": "calcRepay",
      "outputs": [
        {
          "internalType": "uint256",
          "name": "",
          "type": "uint256"
        }
      ],
      "stateMutability": "view",
      "type": "function"
    },
    {
      "inputs": [
        {
          "internalType": "int256",
          "name": "_targetBalances",
          "type": "int256"
        },
        {
          "internalType": "address",
          "name": "_contractAddress",
          "type": "address"
        },
        {
          "internalType": "address",
          "name": "_lendingPoolAddressProviderAddress",
          "type": "address"
        },
        {
          "internalType": "address",
          "name": "_tokenAddress",
          "type": "address"
        }
      ],
      "name": "calcBorrow",
      "outputs": [
        {
          "internalType": "uint256",
          "name": "",
          "type": "uint256"
        }
      ],
      "stateMutability": "view",
      "type": "function"
    },
    {
      "inputs": [
        {
          "internalType": "address",
          "name": "_contractAddress",
          "type": "address"
        },
        {
          "internalType": "address",
          "name": "_lendingPoolAddressProviderAddress",
          "type": "address"
        },
        {
          "internalType": "address",
          "name": "_tokenAddress",
          "type": "address"
        }
      ],
      "name": "calcWithdrawCollateral",
      "outputs": [
        {
          "internalType": "uint256",
          "name": "",
          "type": "uint256"
        }
      ],
      "stateMutability": "view",
      "type": "function"
    },
    {
      "inputs": [
        {
          "internalType": "uint256",
          "name": "_newBorrowing",
          "type": "uint256"
        },
        {
          "internalType": "address",
          "name": "_contractAddress",
          "type": "address"
        },
        {
          "internalType": "address",
          "name": "_lendingPoolAddressProviderAddress",
          "type": "address"
        },
        {
          "internalType": "address",
          "name": "_tokenAddress",
          "type": "address"
        }
      ],
      "name": "calcDepositCollateral",
      "outputs": [
        {
          "internalType": "uint256",
          "name": "",
          "type": "uint256"
        }
      ],
      "stateMutability": "view",
      "type": "function"
    }
  ],
  "bytecode": "0x611b44610053600b82828239805160001a607314610046577f4e487b7100000000000000000000000000000000000000000000000000000000600052600060045260246000fd5b30600052607381538281f3fe730000000000000000000000000000000000000000301460806040526004361061006c5760003560e01c80633ab0b9ce14610071578063680f43b1146100a15780638684fd28146100d25780639ee103f514610104578063b6c1728b14610134578063eb119a9514610164575b600080fd5b61008b600480360381019061008691906114b4565b610194565b604051610098919061174c565b60405180910390f35b6100bb60048036038101906100b691906113ce565b610428565b6040516100c9929190611767565b60405180910390f35b6100ec60048036038101906100e791906113ce565b610571565b6040516100fb939291906116fc565b60405180910390f35b61011e600480360381019061011991906114b4565b61069d565b60405161012b919061174c565b60405180910390f35b61014e6004803603810190610149919061140e565b610911565b60405161015b919061174c565b60405180910390f35b61017e60048036038101906101799190611548565b610d41565b60405161018b919061174c565b60405180910390f35b6000806101a18484610571565b505090506000806101b28686610428565b9150915060008373ffffffffffffffffffffffffffffffffffffffff166370a08231896040518263ffffffff1660e01b81526004016101f191906116e1565b60206040518083038186803b15801561020957600080fd5b505afa15801561021d573d6000803e3d6000fd5b505050506040513d601f19601f82011682018060405250810190610241919061151b565b8673ffffffffffffffffffffffffffffffffffffffff166370a082318a6040518263ffffffff1660e01b815260040161027a91906116e1565b60206040518083038186803b15801561029257600080fd5b505afa1580156102a6573d6000803e3d6000fd5b505050506040513d601f19601f820116820180604052508101906102ca919061151b565b6102d49190611790565b905061041a818a6102e591906119eb565b61041561037b8773ffffffffffffffffffffffffffffffffffffffff166370a082318d6040518263ffffffff1660e01b815260040161032491906116e1565b60206040518083038186803b15801561033c57600080fd5b505afa158015610350573d6000803e3d6000fd5b505050506040513d601f19601f82011682018060405250810190610374919061151b565b878761120e565b8973ffffffffffffffffffffffffffffffffffffffff166370a082318d6040518263ffffffff1660e01b81526004016103b491906116e1565b60206040518083038186803b1580156103cc57600080fd5b505afa1580156103e0573d6000803e3d6000fd5b505050506040513d601f19601f82011682018060405250810190610404919061151b565b61040e91906119eb565b868661120e565b61130a565b945050505050949350505050565b600080600084905060008173ffffffffffffffffffffffffffffffffffffffff166321f8a7216040518163ffffffff1660e01b815260040161046990611733565b60206040518083038186803b15801561048157600080fd5b505afa158015610495573d6000803e3d6000fd5b505050506040513d601f19601f820116820180604052508101906104b991906113a1565b90506000808273ffffffffffffffffffffffffffffffffffffffff16633e150141886040518263ffffffff1660e01b81526004016104f791906116e1565b6101406040518083038186803b15801561051057600080fd5b505afa158015610524573d6000803e3d6000fd5b505050506040513d601f19601f8201168201806040525081019061054891906115af565b5050505050505050915091508082600a6105629190611839565b95509550505050509250929050565b60008060008085905060008173ffffffffffffffffffffffffffffffffffffffff166321f8a7216040518163ffffffff1660e01b81526004016105b390611733565b60206040518083038186803b1580156105cb57600080fd5b505afa1580156105df573d6000803e3d6000fd5b505050506040513d601f19601f8201168201806040525081019061060391906113a1565b90508073ffffffffffffffffffffffffffffffffffffffff1663d2493b6c876040518263ffffffff1660e01b815260040161063e91906116e1565b60606040518083038186803b15801561065657600080fd5b505afa15801561066a573d6000803e3d6000fd5b505050506040513d601f19601f8201168201806040525081019061068e9190611461565b94509450945050509250925092565b6000806000806106ad8686610571565b92509250925060008373ffffffffffffffffffffffffffffffffffffffff166370a08231896040518263ffffffff1660e01b81526004016106ee91906116e1565b60206040518083038186803b15801561070657600080fd5b505afa15801561071a573d6000803e3d6000fd5b505050506040513d601f19601f8201168201806040525081019061073e919061151b565b8673ffffffffffffffffffffffffffffffffffffffff166370a082318a6040518263ffffffff1660e01b815260040161077791906116e1565b60206040518083038186803b15801561078f57600080fd5b505afa1580156107a3573d6000803e3d6000fd5b505050506040513d601f19601f820116820180604052508101906107c7919061151b565b6107d19190611790565b905061090389826107e29190611957565b8373ffffffffffffffffffffffffffffffffffffffff166370a082318b6040518263ffffffff1660e01b815260040161081b91906116e1565b60206040518083038186803b15801561083357600080fd5b505afa158015610847573d6000803e3d6000fd5b505050506040513d601f19601f8201168201806040525081019061086b919061151b565b8573ffffffffffffffffffffffffffffffffffffffff166370a082318c6040518263ffffffff1660e01b81526004016108a491906116e1565b60206040518083038186803b1580156108bc57600080fd5b505afa1580156108d0573d6000803e3d6000fd5b505050506040513d601f19601f820116820180604052508101906108f4919061151b565b6108fe9190611790565b61130a565b945050505050949350505050565b60008083905060008173ffffffffffffffffffffffffffffffffffffffff166321f8a7216040518163ffffffff1660e01b815260040161095090611733565b60206040518083038186803b15801561096857600080fd5b505afa15801561097c573d6000803e3d6000fd5b505050506040513d601f19601f820116820180604052508101906109a091906113a1565b905060008060008373ffffffffffffffffffffffffffffffffffffffff1663d2493b6c886040518263ffffffff1660e01b81526004016109e091906116e1565b60606040518083038186803b1580156109f857600080fd5b505afa158015610a0c573d6000803e3d6000fd5b505050506040513d601f19601f82011682018060405250810190610a309190611461565b9250925092506000808573ffffffffffffffffffffffffffffffffffffffff16633e1501418a6040518263ffffffff1660e01b8152600401610a7291906116e1565b6101406040518083038186803b158015610a8b57600080fd5b505afa158015610a9f573d6000803e3d6000fd5b505050506040513d601f19601f82011682018060405250810190610ac391906115af565b5050505050505050915091506000610c038473ffffffffffffffffffffffffffffffffffffffff166370a082318e6040518263ffffffff1660e01b8152600401610b0d91906116e1565b60206040518083038186803b158015610b2557600080fd5b505afa158015610b39573d6000803e3d6000fd5b505050506040513d601f19601f82011682018060405250810190610b5d919061151b565b8673ffffffffffffffffffffffffffffffffffffffff166370a082318f6040518263ffffffff1660e01b8152600401610b9691906116e1565b60206040518083038186803b158015610bae57600080fd5b505afa158015610bc2573d6000803e3d6000fd5b505050506040513d601f19601f82011682018060405250810190610be6919061151b565b610bf09190611790565b84600a610bfd9190611839565b8461120e565b9050808673ffffffffffffffffffffffffffffffffffffffff166370a082318e6040518263ffffffff1660e01b8152600401610c3f91906116e1565b60206040518083038186803b158015610c5757600080fd5b505afa158015610c6b573d6000803e3d6000fd5b505050506040513d601f19601f82011682018060405250810190610c8f919061151b565b11610c9b576000610d30565b808673ffffffffffffffffffffffffffffffffffffffff166370a082318e6040518263ffffffff1660e01b8152600401610cd591906116e1565b60206040518083038186803b158015610ced57600080fd5b505afa158015610d01573d6000803e3d6000fd5b505050506040513d601f19601f82011682018060405250810190610d25919061151b565b610d2f91906119eb565b5b985050505050505050509392505050565b60008083905060008173ffffffffffffffffffffffffffffffffffffffff166321f8a7216040518163ffffffff1660e01b8152600401610d8090611733565b60206040518083038186803b158015610d9857600080fd5b505afa158015610dac573d6000803e3d6000fd5b505050506040513d601f19601f82011682018060405250810190610dd091906113a1565b905060008060008373ffffffffffffffffffffffffffffffffffffffff1663d2493b6c886040518263ffffffff1660e01b8152600401610e1091906116e1565b60606040518083038186803b158015610e2857600080fd5b505afa158015610e3c573d6000803e3d6000fd5b505050506040513d601f19601f82011682018060405250810190610e609190611461565b9250925092506000808573ffffffffffffffffffffffffffffffffffffffff16633e1501418a6040518263ffffffff1660e01b8152600401610ea291906116e1565b6101406040518083038186803b158015610ebb57600080fd5b505afa158015610ecf573d6000803e3d6000fd5b505050506040513d601f19601f82011682018060405250810190610ef391906115af565b505050505050505091509150600061103e8473ffffffffffffffffffffffffffffffffffffffff166370a082318e6040518263ffffffff1660e01b8152600401610f3d91906116e1565b60206040518083038186803b158015610f5557600080fd5b505afa158015610f69573d6000803e3d6000fd5b505050506040513d601f19601f82011682018060405250810190610f8d919061151b565b8673ffffffffffffffffffffffffffffffffffffffff166370a082318f6040518263ffffffff1660e01b8152600401610fc691906116e1565b60206040518083038186803b158015610fde57600080fd5b505afa158015610ff2573d6000803e3d6000fd5b505050506040513d601f19601f82011682018060405250810190611016919061151b565b8f6110219190611790565b61102b9190611790565b84600a6110389190611839565b8461120e565b9050808673ffffffffffffffffffffffffffffffffffffffff166370a082318e6040518263ffffffff1660e01b815260040161107a91906116e1565b60206040518083038186803b15801561109257600080fd5b505afa1580156110a6573d6000803e3d6000fd5b505050506040513d601f19601f820116820180604052508101906110ca919061151b565b106110d65760006111fc565b6111fb8a73ffffffffffffffffffffffffffffffffffffffff166370a082318e6040518263ffffffff1660e01b815260040161111291906116e1565b60206040518083038186803b15801561112a57600080fd5b505afa15801561113e573d6000803e3d6000fd5b505050506040513d601f19601f82011682018060405250810190611162919061151b565b8773ffffffffffffffffffffffffffffffffffffffff166370a082318f6040518263ffffffff1660e01b815260040161119b91906116e1565b60206040518083038186803b1580156111b357600080fd5b505afa1580156111c7573d6000803e3d6000fd5b505050506040513d601f19601f820116820180604052508101906111eb919061151b565b836111f691906119eb565b61130a565b5b98505050505050505050949350505050565b600080600080198587098587029250828110838203039150506000811415611249576000841161123d57600080fd5b83820492505050611303565b80841161125557600080fd5b60008486880990508281118203915080830392506000856001877fffffffffffffffffffffffffffffffffffffffffffffffffffffffffffffffff0301169050808604955080840493506001818260000304019050808302841793506000600287600302189050808702600203810290508087026002038102905080870260020381029050808702600203810290508087026002038102905080870260020381029050808502955050505050505b9392505050565b6000818310611319578161131b565b825b905092915050565b60008135905061133281611ab2565b92915050565b60008151905061134781611ab2565b92915050565b60008151905061135c81611ac9565b92915050565b60008135905061137181611ae0565b92915050565b60008135905061138681611af7565b92915050565b60008151905061139b81611af7565b92915050565b6000602082840312156113b7576113b6611aa0565b5b60006113c584828501611338565b91505092915050565b600080604083850312156113e5576113e4611aa0565b5b60006113f385828601611323565b925050602061140485828601611323565b9150509250929050565b60008060006060848603121561142757611426611aa0565b5b600061143586828701611323565b935050602061144686828701611323565b925050604061145786828701611323565b9150509250925092565b60008060006060848603121561147a57611479611aa0565b5b600061148886828701611338565b935050602061149986828701611338565b92505060406114aa86828701611338565b9150509250925092565b600080600080608085870312156114ce576114cd611aa0565b5b60006114dc87828801611362565b94505060206114ed87828801611323565b93505060406114fe87828801611323565b925050606061150f87828801611323565b91505092959194509250565b60006020828403121561153157611530611aa0565b5b600061153f8482850161138c565b91505092915050565b6000806000806080858703121561156257611561611aa0565b5b600061157087828801611377565b945050602061158187828801611323565b935050604061159287828801611323565b92505060606115a387828801611323565b91505092959194509250565b6000806000806000806000806000806101408b8d0312156115d3576115d2611aa0565b5b60006115e18d828e0161138c565b9a505060206115f28d828e0161138c565b99505060406116038d828e0161138c565b98505060606116148d828e0161138c565b97505060806116258d828e0161138c565b96505060a06116368d828e0161134d565b95505060c06116478d828e0161134d565b94505060e06116588d828e0161134d565b93505061010061166a8d828e0161134d565b92505061012061167c8d828e0161134d565b9150509295989b9194979a5092959850565b61169781611a1f565b82525050565b6116a681611a1f565b82525050565b7f3078310000000000000000000000000000000000000000000000000000000000815250565b6116db81611a67565b82525050565b60006020820190506116f6600083018461168e565b92915050565b6000606082019050611711600083018661169d565b61171e602083018561169d565b61172b604083018461169d565b949350505050565b6000602082019050611747600083016116ac565b919050565b600060208201905061176160008301846116d2565b92915050565b600060408201905061177c60008301856116d2565b61178960208301846116d2565b9392505050565b600061179b82611a67565b91506117a683611a67565b9250827fffffffffffffffffffffffffffffffffffffffffffffffffffffffffffffffff038211156117db576117da611a71565b5b828201905092915050565b6000808291508390505b60018511156118305780860481111561180c5761180b611a71565b5b600185161561181b5780820291505b808102905061182985611aa5565b94506117f0565b94509492505050565b600061184482611a67565b915061184f83611a67565b925061187c7fffffffffffffffffffffffffffffffffffffffffffffffffffffffffffffffff8484611884565b905092915050565b6000826118945760019050611950565b816118a25760009050611950565b81600181146118b857600281146118c2576118f1565b6001915050611950565b60ff8411156118d4576118d3611a71565b5b8360020a9150848211156118eb576118ea611a71565b5b50611950565b5060208310610133831016604e8410600b84101617156119265782820a90508381111561192157611920611a71565b5b611950565b61193384848460016117e6565b9250905081840481111561194a57611949611a71565b5b81810290505b9392505050565b600061196282611a3d565b915061196d83611a3d565b9250827f8000000000000000000000000000000000000000000000000000000000000000018212600084121516156119a8576119a7611a71565b5b827f7fffffffffffffffffffffffffffffffffffffffffffffffffffffffffffffff0182136000841216156119e0576119df611a71565b5b828203905092915050565b60006119f682611a67565b9150611a0183611a67565b925082821015611a1457611a13611a71565b5b828203905092915050565b6000611a2a82611a47565b9050919050565b60008115159050919050565b6000819050919050565b600073ffffffffffffffffffffffffffffffffffffffff82169050919050565b6000819050919050565b7f4e487b7100000000000000000000000000000000000000000000000000000000600052601160045260246000fd5b600080fd5b60008160011c9050919050565b611abb81611a1f565b8114611ac657600080fd5b50565b611ad281611a31565b8114611add57600080fd5b50565b611ae981611a3d565b8114611af457600080fd5b50565b611b0081611a67565b8114611b0b57600080fd5b5056fea2646970667358221220a2db33852a70451cc18806333aa13b2239bfd2e593949f178e69aff918b38e8164736f6c63430008060033",
  "immutableReferences": {},
  "source": "/**\n * SPDX-License-Identifier: GPL-3.0-or-later\n * Moret\n * Copyright (C) 2021 Moret\n*/\n\npragma solidity ^0.8.4;\n\nimport \"./MarketInterfaces.sol\";\nimport \"@openzeppelin/contracts/utils/math/Math.sol\";\nimport \"./FullMath.sol\";\n\nlibrary MarketLibrary {\n  function getLendingTokenAddresses(address _lendingPoolAddressProviderAddress, address _tokenAddress)\n  public view returns (address, address, address){\n    ILendingPoolAddressesProvider _lendingPoolAddressProvider = ILendingPoolAddressesProvider(_lendingPoolAddressProviderAddress);\n    IProtocolDataProvider _protocolDataProvider = IProtocolDataProvider(_lendingPoolAddressProvider.getAddress(\"0x1\"));\n    return  _protocolDataProvider.getReserveTokensAddresses(_tokenAddress);\n  }\n\n  function getLTV(address _lendingPoolAddressProviderAddress, address _tokenAddress)\n  public view returns (uint256, uint256)\n  {\n    ILendingPoolAddressesProvider _lendingPoolAddressProvider = ILendingPoolAddressesProvider(_lendingPoolAddressProviderAddress);\n    IProtocolDataProvider _protocolDataProvider = IProtocolDataProvider(_lendingPoolAddressProvider.getAddress(\"0x1\"));\n    (uint256 _reserveDecimals, uint256 _ltv, ,,,,,,, ) = _protocolDataProvider.getReserveConfigurationData(_tokenAddress);\n    return (_ltv, 10**_reserveDecimals);\n  }\n\n  function calcRepay(int256 _targetBalances, address _contractAddress, address _lendingPoolAddressProviderAddress, address _tokenAddress)\n  public view returns(uint256)\n  {\n    (address _aToken, address _stableDebt, address _variableDebt) = getLendingTokenAddresses(_lendingPoolAddressProviderAddress, _tokenAddress);\n    uint256 _currentBalances = IERC20(_tokenAddress).balanceOf(_contractAddress) + IERC20(_aToken).balanceOf(_contractAddress);\n    return Math.min(uint256(int256(_currentBalances) - _targetBalances),\n      IERC20(_stableDebt).balanceOf(_contractAddress) + IERC20(_variableDebt).balanceOf(_contractAddress));\n  }\n\n  function calcBorrow(int256 _targetBalances, address _contractAddress, address _lendingPoolAddressProviderAddress, address _tokenAddress)\n  public view returns(uint256)\n  {\n    (address _aToken, ,) = getLendingTokenAddresses(_lendingPoolAddressProviderAddress, _tokenAddress);\n    (uint256 _ltv, uint256 _ltvMultiplier) = getLTV(_lendingPoolAddressProviderAddress, _tokenAddress);\n\n    uint256 _currentBalances = IERC20(_tokenAddress).balanceOf(_contractAddress) + IERC20(_aToken).balanceOf(_contractAddress);\n    return Math.min(uint256(_targetBalances) - _currentBalances,\n        MulDiv(IERC20(_tokenAddress).balanceOf(_contractAddress) - MulDiv(IERC20(_aToken).balanceOf(_contractAddress) , _ltv, _ltvMultiplier) , _ltv, _ltvMultiplier));\n  }\n\n  function calcWithdrawCollateral(address _contractAddress, address _lendingPoolAddressProviderAddress, address _tokenAddress)\n  public view returns(uint256)\n  {\n    ILendingPoolAddressesProvider _lendingPoolAddressProvider = ILendingPoolAddressesProvider(_lendingPoolAddressProviderAddress);\n    IProtocolDataProvider _protocolDataProvider = IProtocolDataProvider(_lendingPoolAddressProvider.getAddress(\"0x1\"));\n    (address _aToken, address _stableDebt, address _variableDebt) = _protocolDataProvider.getReserveTokensAddresses(_tokenAddress);\n    (uint256 _reserveDecimals, uint256 _ltv, ,,,,,,, ) = _protocolDataProvider.getReserveConfigurationData(_tokenAddress);\n\n    uint256 _desiredCollateral = MulDiv(IERC20(_stableDebt).balanceOf(_contractAddress) + IERC20(_variableDebt).balanceOf(_contractAddress), 10 ** _reserveDecimals, _ltv);\n    return (IERC20(_aToken).balanceOf(_contractAddress) > _desiredCollateral)? (IERC20(_aToken).balanceOf(_contractAddress) - _desiredCollateral): 0;\n  }\n\n  function calcDepositCollateral(uint256 _newBorrowing, address _contractAddress, address _lendingPoolAddressProviderAddress, address _tokenAddress)\n  public view returns (uint256)\n  {\n    ILendingPoolAddressesProvider _lendingPoolAddressProvider = ILendingPoolAddressesProvider(_lendingPoolAddressProviderAddress);\n    IProtocolDataProvider _protocolDataProvider = IProtocolDataProvider(_lendingPoolAddressProvider.getAddress(\"0x1\"));\n    (address _aToken, address _stableDebt, address _variableDebt) = _protocolDataProvider.getReserveTokensAddresses(_tokenAddress);\n    (uint256 _reserveDecimals, uint256 _ltv, ,,,,,,, ) = _protocolDataProvider.getReserveConfigurationData(_tokenAddress);\n\n    uint256 _desiredCollateral = MulDiv(_newBorrowing + IERC20(_stableDebt).balanceOf(_contractAddress) + IERC20(_variableDebt).balanceOf(_contractAddress), 10 ** _reserveDecimals, _ltv);\n    return (IERC20(_aToken).balanceOf(_contractAddress) < _desiredCollateral)?\n      Math.min(IERC20(_tokenAddress).balanceOf(_contractAddress) , _desiredCollateral - IERC20(_aToken).balanceOf(_contractAddress)): 0;\n  }\n\n}\n",
  "sourcePath": "/Users/mac/Documents/GitHub/moret/contracts/MarketLibrary.sol",
  "compiler": {
    "name": "solc",
    "version": "0.8.6+commit.11564f7e.Emscripten.clang"
  },
  "schemaVersion": "3.4.1",
  "updatedAt": "2021-07-10T00:40:46.952Z",
  "devdoc": {
    "kind": "dev",
    "methods": {},
    "version": 1
  },
  "userdoc": {
    "kind": "user",
    "methods": {},
    "version": 1
  }
}