{
  "contractName": "MarketMakerNative",
  "abi": [
    {
      "inputs": [
        {
          "internalType": "string",
          "name": "_name",
          "type": "string"
        },
        {
          "internalType": "string",
          "name": "_symbol",
          "type": "string"
        },
        {
          "internalType": "address",
          "name": "_wethAddress",
          "type": "address"
        },
        {
          "internalType": "address",
          "name": "_fundingAddress",
          "type": "address"
        },
        {
          "internalType": "address",
          "name": "_optionAddress",
          "type": "address"
        },
        {
          "internalType": "address",
          "name": "_swapRouterAddress",
          "type": "address"
        },
        {
          "internalType": "address",
          "name": "_priceSourceId",
          "type": "address"
        }
      ],
      "stateMutability": "payable",
      "type": "constructor"
    },
    {
      "anonymous": false,
      "inputs": [
        {
          "indexed": true,
          "internalType": "address",
          "name": "owner",
          "type": "address"
        },
        {
          "indexed": true,
          "internalType": "address",
          "name": "spender",
          "type": "address"
        },
        {
          "indexed": false,
          "internalType": "uint256",
          "name": "value",
          "type": "uint256"
        }
      ],
      "name": "Approval",
      "type": "event"
    },
    {
      "anonymous": false,
      "inputs": [
        {
          "indexed": true,
          "internalType": "bytes32",
          "name": "role",
          "type": "bytes32"
        },
        {
          "indexed": true,
          "internalType": "bytes32",
          "name": "previousAdminRole",
          "type": "bytes32"
        },
        {
          "indexed": true,
          "internalType": "bytes32",
          "name": "newAdminRole",
          "type": "bytes32"
        }
      ],
      "name": "RoleAdminChanged",
      "type": "event"
    },
    {
      "anonymous": false,
      "inputs": [
        {
          "indexed": true,
          "internalType": "bytes32",
          "name": "role",
          "type": "bytes32"
        },
        {
          "indexed": true,
          "internalType": "address",
          "name": "account",
          "type": "address"
        },
        {
          "indexed": true,
          "internalType": "address",
          "name": "sender",
          "type": "address"
        }
      ],
      "name": "RoleGranted",
      "type": "event"
    },
    {
      "anonymous": false,
      "inputs": [
        {
          "indexed": true,
          "internalType": "bytes32",
          "name": "role",
          "type": "bytes32"
        },
        {
          "indexed": true,
          "internalType": "address",
          "name": "account",
          "type": "address"
        },
        {
          "indexed": true,
          "internalType": "address",
          "name": "sender",
          "type": "address"
        }
      ],
      "name": "RoleRevoked",
      "type": "event"
    },
    {
      "anonymous": false,
      "inputs": [
        {
          "indexed": true,
          "internalType": "address",
          "name": "from",
          "type": "address"
        },
        {
          "indexed": true,
          "internalType": "address",
          "name": "to",
          "type": "address"
        },
        {
          "indexed": false,
          "internalType": "uint256",
          "name": "value",
          "type": "uint256"
        }
      ],
      "name": "Transfer",
      "type": "event"
    },
    {
      "anonymous": false,
      "inputs": [
        {
          "indexed": false,
          "internalType": "address",
          "name": "_recipient",
          "type": "address"
        },
        {
          "indexed": false,
          "internalType": "uint256",
          "name": "_mintMPTokenAmount",
          "type": "uint256"
        },
        {
          "indexed": false,
          "internalType": "uint256",
          "name": "_addedValue",
          "type": "uint256"
        }
      ],
      "name": "capitalAdded",
      "type": "event"
    },
    {
      "anonymous": false,
      "inputs": [
        {
          "indexed": false,
          "internalType": "address",
          "name": "_recipient",
          "type": "address"
        },
        {
          "indexed": false,
          "internalType": "uint256",
          "name": "_burnMPTokenAmount",
          "type": "uint256"
        },
        {
          "indexed": false,
          "internalType": "uint256",
          "name": "_withdrawValue",
          "type": "uint256"
        }
      ],
      "name": "capitalWithdrawn",
      "type": "event"
    },
    {
      "anonymous": false,
      "inputs": [
        {
          "indexed": true,
          "internalType": "address",
          "name": "_purchaser",
          "type": "address"
        },
        {
          "components": [
            {
              "internalType": "enum OptionLibrary.PayoffType",
              "name": "poType",
              "type": "uint8"
            },
            {
              "internalType": "address",
              "name": "holder",
              "type": "address"
            },
            {
              "internalType": "enum OptionLibrary.OptionStatus",
              "name": "status",
              "type": "uint8"
            },
            {
              "internalType": "uint256",
              "name": "id",
              "type": "uint256"
            },
            {
              "internalType": "uint256",
              "name": "createTime",
              "type": "uint256"
            },
            {
              "internalType": "uint256",
              "name": "effectiveTime",
              "type": "uint256"
            },
            {
              "internalType": "uint256",
              "name": "tenor",
              "type": "uint256"
            },
            {
              "internalType": "uint256",
              "name": "exerciseTime",
              "type": "uint256"
            },
            {
              "internalType": "uint256",
              "name": "amount",
              "type": "uint256"
            },
            {
              "internalType": "uint256",
              "name": "spot",
              "type": "uint256"
            },
            {
              "internalType": "uint256",
              "name": "strike",
              "type": "uint256"
            },
            {
              "internalType": "uint256",
              "name": "volatility",
              "type": "uint256"
            },
            {
              "internalType": "uint256",
              "name": "premium",
              "type": "uint256"
            },
            {
              "internalType": "uint256",
              "name": "fee",
              "type": "uint256"
            }
          ],
          "indexed": false,
          "internalType": "struct OptionLibrary.Option",
          "name": "_option",
          "type": "tuple"
        },
        {
          "indexed": false,
          "internalType": "uint256",
          "name": "_cost",
          "type": "uint256"
        },
        {
          "indexed": false,
          "internalType": "bool",
          "name": "_inVol",
          "type": "bool"
        }
      ],
      "name": "newOptionBought",
      "type": "event"
    },
    {
      "anonymous": false,
      "inputs": [
        {
          "indexed": false,
          "internalType": "address",
          "name": "_purchaser",
          "type": "address"
        },
        {
          "indexed": false,
          "internalType": "uint256",
          "name": "_time",
          "type": "uint256"
        },
        {
          "indexed": false,
          "internalType": "uint256",
          "name": "_tenor",
          "type": "uint256"
        },
        {
          "indexed": false,
          "internalType": "uint256",
          "name": "_amount",
          "type": "uint256"
        }
      ],
      "name": "newVolatilityTokenBought",
      "type": "event"
    },
    {
      "anonymous": false,
      "inputs": [
        {
          "indexed": true,
          "internalType": "address",
          "name": "_purchaser",
          "type": "address"
        },
        {
          "components": [
            {
              "internalType": "enum OptionLibrary.PayoffType",
              "name": "poType",
              "type": "uint8"
            },
            {
              "internalType": "address",
              "name": "holder",
              "type": "address"
            },
            {
              "internalType": "enum OptionLibrary.OptionStatus",
              "name": "status",
              "type": "uint8"
            },
            {
              "internalType": "uint256",
              "name": "id",
              "type": "uint256"
            },
            {
              "internalType": "uint256",
              "name": "createTime",
              "type": "uint256"
            },
            {
              "internalType": "uint256",
              "name": "effectiveTime",
              "type": "uint256"
            },
            {
              "internalType": "uint256",
              "name": "tenor",
              "type": "uint256"
            },
            {
              "internalType": "uint256",
              "name": "exerciseTime",
              "type": "uint256"
            },
            {
              "internalType": "uint256",
              "name": "amount",
              "type": "uint256"
            },
            {
              "internalType": "uint256",
              "name": "spot",
              "type": "uint256"
            },
            {
              "internalType": "uint256",
              "name": "strike",
              "type": "uint256"
            },
            {
              "internalType": "uint256",
              "name": "volatility",
              "type": "uint256"
            },
            {
              "internalType": "uint256",
              "name": "premium",
              "type": "uint256"
            },
            {
              "internalType": "uint256",
              "name": "fee",
              "type": "uint256"
            }
          ],
          "indexed": false,
          "internalType": "struct OptionLibrary.Option",
          "name": "_option",
          "type": "tuple"
        },
        {
          "indexed": false,
          "internalType": "uint256",
          "name": "_payoff",
          "type": "uint256"
        }
      ],
      "name": "optionExercised",
      "type": "event"
    },
    {
      "inputs": [],
      "name": "ADMIN_ROLE",
      "outputs": [
        {
          "internalType": "bytes32",
          "name": "",
          "type": "bytes32"
        }
      ],
      "stateMutability": "view",
      "type": "function"
    },
    {
      "inputs": [],
      "name": "DEFAULT_ADMIN_ROLE",
      "outputs": [
        {
          "internalType": "bytes32",
          "name": "",
          "type": "bytes32"
        }
      ],
      "stateMutability": "view",
      "type": "function"
    },
    {
      "inputs": [],
      "name": "WETH",
      "outputs": [
        {
          "internalType": "address",
          "name": "",
          "type": "address"
        }
      ],
      "stateMutability": "view",
      "type": "function"
    },
    {
      "inputs": [
        {
          "internalType": "address",
          "name": "owner",
          "type": "address"
        },
        {
          "internalType": "address",
          "name": "spender",
          "type": "address"
        }
      ],
      "name": "allowance",
      "outputs": [
        {
          "internalType": "uint256",
          "name": "",
          "type": "uint256"
        }
      ],
      "stateMutability": "view",
      "type": "function"
    },
    {
      "inputs": [
        {
          "internalType": "address",
          "name": "spender",
          "type": "address"
        },
        {
          "internalType": "uint256",
          "name": "amount",
          "type": "uint256"
        }
      ],
      "name": "approve",
      "outputs": [
        {
          "internalType": "bool",
          "name": "",
          "type": "bool"
        }
      ],
      "stateMutability": "nonpayable",
      "type": "function"
    },
    {
      "inputs": [
        {
          "internalType": "address",
          "name": "account",
          "type": "address"
        }
      ],
      "name": "balanceOf",
      "outputs": [
        {
          "internalType": "uint256",
          "name": "",
          "type": "uint256"
        }
      ],
      "stateMutability": "view",
      "type": "function"
    },
    {
      "inputs": [],
      "name": "callExposure",
      "outputs": [
        {
          "internalType": "uint256",
          "name": "",
          "type": "uint256"
        }
      ],
      "stateMutability": "view",
      "type": "function"
    },
    {
      "inputs": [],
      "name": "decimals",
      "outputs": [
        {
          "internalType": "uint8",
          "name": "",
          "type": "uint8"
        }
      ],
      "stateMutability": "view",
      "type": "function"
    },
    {
      "inputs": [
        {
          "internalType": "address",
          "name": "spender",
          "type": "address"
        },
        {
          "internalType": "uint256",
          "name": "subtractedValue",
          "type": "uint256"
        }
      ],
      "name": "decreaseAllowance",
      "outputs": [
        {
          "internalType": "bool",
          "name": "",
          "type": "bool"
        }
      ],
      "stateMutability": "nonpayable",
      "type": "function"
    },
    {
      "inputs": [
        {
          "internalType": "bytes32",
          "name": "role",
          "type": "bytes32"
        }
      ],
      "name": "getRoleAdmin",
      "outputs": [
        {
          "internalType": "bytes32",
          "name": "",
          "type": "bytes32"
        }
      ],
      "stateMutability": "view",
      "type": "function"
    },
    {
      "inputs": [
        {
          "internalType": "bytes32",
          "name": "role",
          "type": "bytes32"
        },
        {
          "internalType": "address",
          "name": "account",
          "type": "address"
        }
      ],
      "name": "grantRole",
      "outputs": [],
      "stateMutability": "nonpayable",
      "type": "function"
    },
    {
      "inputs": [
        {
          "internalType": "bytes32",
          "name": "role",
          "type": "bytes32"
        },
        {
          "internalType": "address",
          "name": "account",
          "type": "address"
        }
      ],
      "name": "hasRole",
      "outputs": [
        {
          "internalType": "bool",
          "name": "",
          "type": "bool"
        }
      ],
      "stateMutability": "view",
      "type": "function"
    },
    {
      "inputs": [],
      "name": "hedgePositionAmount",
      "outputs": [
        {
          "internalType": "int256",
          "name": "",
          "type": "int256"
        }
      ],
      "stateMutability": "view",
      "type": "function"
    },
    {
      "inputs": [
        {
          "internalType": "address",
          "name": "spender",
          "type": "address"
        },
        {
          "internalType": "uint256",
          "name": "addedValue",
          "type": "uint256"
        }
      ],
      "name": "increaseAllowance",
      "outputs": [
        {
          "internalType": "bool",
          "name": "",
          "type": "bool"
        }
      ],
      "stateMutability": "nonpayable",
      "type": "function"
    },
    {
      "inputs": [],
      "name": "lockedPremium",
      "outputs": [
        {
          "internalType": "uint256",
          "name": "",
          "type": "uint256"
        }
      ],
      "stateMutability": "view",
      "type": "function"
    },
    {
      "inputs": [],
      "name": "maxCollateralisation",
      "outputs": [
        {
          "internalType": "uint256",
          "name": "numerator",
          "type": "uint256"
        },
        {
          "internalType": "uint256",
          "name": "denominator",
          "type": "uint256"
        }
      ],
      "stateMutability": "view",
      "type": "function"
    },
    {
      "inputs": [],
      "name": "name",
      "outputs": [
        {
          "internalType": "string",
          "name": "",
          "type": "string"
        }
      ],
      "stateMutability": "view",
      "type": "function"
    },
    {
      "inputs": [],
      "name": "priceDecimals",
      "outputs": [
        {
          "internalType": "uint256",
          "name": "",
          "type": "uint256"
        }
      ],
      "stateMutability": "view",
      "type": "function"
    },
    {
      "inputs": [],
      "name": "priceMultiplier",
      "outputs": [
        {
          "internalType": "uint256",
          "name": "",
          "type": "uint256"
        }
      ],
      "stateMutability": "view",
      "type": "function"
    },
    {
      "inputs": [],
      "name": "putExposure",
      "outputs": [
        {
          "internalType": "uint256",
          "name": "",
          "type": "uint256"
        }
      ],
      "stateMutability": "view",
      "type": "function"
    },
    {
      "inputs": [
        {
          "internalType": "bytes32",
          "name": "role",
          "type": "bytes32"
        },
        {
          "internalType": "address",
          "name": "account",
          "type": "address"
        }
      ],
      "name": "renounceRole",
      "outputs": [],
      "stateMutability": "nonpayable",
      "type": "function"
    },
    {
      "inputs": [
        {
          "internalType": "bytes32",
          "name": "role",
          "type": "bytes32"
        },
        {
          "internalType": "address",
          "name": "account",
          "type": "address"
        }
      ],
      "name": "revokeRole",
      "outputs": [],
      "stateMutability": "nonpayable",
      "type": "function"
    },
    {
      "inputs": [],
      "name": "stableCoinAddress",
      "outputs": [
        {
          "internalType": "address",
          "name": "",
          "type": "address"
        }
      ],
      "stateMutability": "view",
      "type": "function"
    },
    {
      "inputs": [
        {
          "internalType": "bytes4",
          "name": "interfaceId",
          "type": "bytes4"
        }
      ],
      "name": "supportsInterface",
      "outputs": [
        {
          "internalType": "bool",
          "name": "",
          "type": "bool"
        }
      ],
      "stateMutability": "view",
      "type": "function"
    },
    {
      "inputs": [],
      "name": "swapSlippageAllowance",
      "outputs": [
        {
          "internalType": "uint256",
          "name": "numerator",
          "type": "uint256"
        },
        {
          "internalType": "uint256",
          "name": "denominator",
          "type": "uint256"
        }
      ],
      "stateMutability": "view",
      "type": "function"
    },
    {
      "inputs": [],
      "name": "symbol",
      "outputs": [
        {
          "internalType": "string",
          "name": "",
          "type": "string"
        }
      ],
      "stateMutability": "view",
      "type": "function"
    },
    {
      "inputs": [],
      "name": "totalSupply",
      "outputs": [
        {
          "internalType": "uint256",
          "name": "",
          "type": "uint256"
        }
      ],
      "stateMutability": "view",
      "type": "function"
    },
    {
      "inputs": [
        {
          "internalType": "address",
          "name": "recipient",
          "type": "address"
        },
        {
          "internalType": "uint256",
          "name": "amount",
          "type": "uint256"
        }
      ],
      "name": "transfer",
      "outputs": [
        {
          "internalType": "bool",
          "name": "",
          "type": "bool"
        }
      ],
      "stateMutability": "nonpayable",
      "type": "function"
    },
    {
      "inputs": [
        {
          "internalType": "address",
          "name": "sender",
          "type": "address"
        },
        {
          "internalType": "address",
          "name": "recipient",
          "type": "address"
        },
        {
          "internalType": "uint256",
          "name": "amount",
          "type": "uint256"
        }
      ],
      "name": "transferFrom",
      "outputs": [
        {
          "internalType": "bool",
          "name": "",
          "type": "bool"
        }
      ],
      "stateMutability": "nonpayable",
      "type": "function"
    },
    {
      "inputs": [],
      "name": "volPremiumMultiplier",
      "outputs": [
        {
          "internalType": "uint256",
          "name": "numerator",
          "type": "uint256"
        },
        {
          "internalType": "uint256",
          "name": "denominator",
          "type": "uint256"
        }
      ],
      "stateMutability": "view",
      "type": "function"
    },
    {
      "inputs": [],
      "name": "volPremiumPenalty",
      "outputs": [
        {
          "internalType": "uint256",
          "name": "numerator",
          "type": "uint256"
        },
        {
          "internalType": "uint256",
          "name": "denominator",
          "type": "uint256"
        }
      ],
      "stateMutability": "view",
      "type": "function"
    },
    {
      "stateMutability": "payable",
      "type": "receive"
    },
    {
      "inputs": [
        {
          "internalType": "address",
          "name": "_purchaser",
          "type": "address"
        },
        {
          "internalType": "uint256",
          "name": "_id",
          "type": "uint256"
        },
        {
          "internalType": "uint256",
          "name": "_newPremium",
          "type": "uint256"
        },
        {
          "internalType": "uint256",
          "name": "_newCallExposure",
          "type": "uint256"
        },
        {
          "internalType": "uint256",
          "name": "_newPutExposure",
          "type": "uint256"
        }
      ],
      "name": "recordOptionPurhcase",
      "outputs": [],
      "stateMutability": "nonpayable",
      "type": "function"
    },
    {
      "inputs": [
        {
          "internalType": "address",
          "name": "_purchaser",
          "type": "address"
        },
        {
          "internalType": "uint256",
          "name": "_id",
          "type": "uint256"
        },
        {
          "internalType": "uint256",
          "name": "_removePremium",
          "type": "uint256"
        },
        {
          "internalType": "uint256",
          "name": "_removeCallExposure",
          "type": "uint256"
        },
        {
          "internalType": "uint256",
          "name": "_removePutExposure",
          "type": "uint256"
        }
      ],
      "name": "recordOptionRemoval",
      "outputs": [],
      "stateMutability": "nonpayable",
      "type": "function"
    },
    {
      "inputs": [],
      "name": "queryPrice",
      "outputs": [
        {
          "internalType": "uint256",
          "name": "",
          "type": "uint256"
        }
      ],
      "stateMutability": "view",
      "type": "function"
    },
    {
      "inputs": [],
      "name": "calcTotalDelta",
      "outputs": [
        {
          "internalType": "int256",
          "name": "",
          "type": "int256"
        }
      ],
      "stateMutability": "view",
      "type": "function"
    },
    {
      "inputs": [
        {
          "internalType": "uint256",
          "name": "_deadline",
          "type": "uint256"
        }
      ],
      "name": "updateHedges",
      "outputs": [],
      "stateMutability": "nonpayable",
      "type": "function"
    },
    {
      "inputs": [
        {
          "internalType": "uint256",
          "name": "_newStable",
          "type": "uint256"
        },
        {
          "internalType": "uint256",
          "name": "_deadline",
          "type": "uint256"
        }
      ],
      "name": "swapToStable",
      "outputs": [
        {
          "internalType": "uint256[]",
          "name": "_swappedAmounts",
          "type": "uint256[]"
        }
      ],
      "stateMutability": "nonpayable",
      "type": "function"
    },
    {
      "inputs": [
        {
          "internalType": "uint256",
          "name": "_unwindStable",
          "type": "uint256"
        },
        {
          "internalType": "uint256",
          "name": "_deadline",
          "type": "uint256"
        }
      ],
      "name": "swapToUnderlying",
      "outputs": [
        {
          "internalType": "uint256[]",
          "name": "_swappedAmounts",
          "type": "uint256[]"
        }
      ],
      "stateMutability": "nonpayable",
      "type": "function"
    },
    {
      "inputs": [
        {
          "internalType": "uint256",
          "name": "_mpAmount",
          "type": "uint256"
        }
      ],
      "name": "quoteCapitalCost",
      "outputs": [
        {
          "internalType": "uint256",
          "name": "",
          "type": "uint256"
        }
      ],
      "stateMutability": "view",
      "type": "function"
    },
    {
      "inputs": [
        {
          "internalType": "uint256",
          "name": "_depositAmount",
          "type": "uint256"
        }
      ],
      "name": "addCapital",
      "outputs": [],
      "stateMutability": "payable",
      "type": "function"
    },
    {
      "inputs": [
        {
          "internalType": "uint256",
          "name": "_burnMPTokenAmount",
          "type": "uint256"
        }
      ],
      "name": "withdrawCapital",
      "outputs": [],
      "stateMutability": "nonpayable",
      "type": "function"
    },
    {
      "inputs": [
        {
          "internalType": "bool",
          "name": "_net",
          "type": "bool"
        },
        {
          "internalType": "bool",
          "name": "_average",
          "type": "bool"
        }
      ],
      "name": "calcCapital",
      "outputs": [
        {
          "internalType": "uint256",
          "name": "",
          "type": "uint256"
        }
      ],
      "stateMutability": "view",
      "type": "function"
    },
    {
      "inputs": [
        {
          "internalType": "uint256",
          "name": "_amount",
          "type": "uint256"
        },
        {
          "internalType": "enum OptionLibrary.PayoffType",
          "name": "_poType",
          "type": "uint8"
        }
      ],
      "name": "calcUtilityRatios",
      "outputs": [
        {
          "internalType": "uint256",
          "name": "",
          "type": "uint256"
        },
        {
          "internalType": "uint256",
          "name": "",
          "type": "uint256"
        },
        {
          "internalType": "uint256",
          "name": "",
          "type": "uint256"
        }
      ],
      "stateMutability": "view",
      "type": "function"
    },
    {
      "inputs": [
        {
          "internalType": "uint256",
          "name": "_amount",
          "type": "uint256"
        },
        {
          "internalType": "enum OptionLibrary.PayoffType",
          "name": "_poType",
          "type": "uint8"
        }
      ],
      "name": "calcUtilityAddon",
      "outputs": [
        {
          "components": [
            {
              "internalType": "uint256",
              "name": "numerator",
              "type": "uint256"
            },
            {
              "internalType": "uint256",
              "name": "denominator",
              "type": "uint256"
            }
          ],
          "internalType": "struct OptionLibrary.Percent",
          "name": "",
          "type": "tuple"
        }
      ],
      "stateMutability": "view",
      "type": "function"
    },
    {
      "inputs": [],
      "name": "sweepBalance",
      "outputs": [],
      "stateMutability": "nonpayable",
      "type": "function"
    },
    {
      "inputs": [
        {
          "internalType": "uint256",
          "name": "_multiplier",
          "type": "uint256"
        },
        {
          "internalType": "uint256",
          "name": "_denominator",
          "type": "uint256"
        }
      ],
      "name": "resetMaxCollateralisation",
      "outputs": [],
      "stateMutability": "nonpayable",
      "type": "function"
    },
    {
      "inputs": [
        {
          "internalType": "uint256",
          "name": "_multiplier",
          "type": "uint256"
        },
        {
          "internalType": "uint256",
          "name": "_denominator",
          "type": "uint256"
        }
      ],
      "name": "resetVolPremiumMultiplier",
      "outputs": [],
      "stateMutability": "nonpayable",
      "type": "function"
    },
    {
      "inputs": [
        {
          "internalType": "uint256",
          "name": "_multiplier",
          "type": "uint256"
        },
        {
          "internalType": "uint256",
          "name": "_denominator",
          "type": "uint256"
        }
      ],
      "name": "resetVolPremiumPenalty",
      "outputs": [],
      "stateMutability": "nonpayable",
      "type": "function"
    },
    {
      "inputs": [
        {
          "internalType": "uint256",
          "name": "_multiplier",
          "type": "uint256"
        },
        {
          "internalType": "uint256",
          "name": "_denominator",
          "type": "uint256"
        }
      ],
      "name": "resetSwapSlippageAllowance",
      "outputs": [],
      "stateMutability": "nonpayable",
      "type": "function"
    },
    {
      "inputs": [
        {
          "internalType": "address",
          "name": "_address",
          "type": "address"
        }
      ],
      "name": "getHoldersOptionCount",
      "outputs": [
        {
          "internalType": "uint256",
          "name": "",
          "type": "uint256"
        }
      ],
      "stateMutability": "view",
      "type": "function"
    },
    {
      "inputs": [
        {
          "internalType": "uint256",
          "name": "_index",
          "type": "uint256"
        },
        {
          "internalType": "address",
          "name": "_address",
          "type": "address"
        }
      ],
      "name": "getHoldersOption",
      "outputs": [
        {
          "components": [
            {
              "internalType": "enum OptionLibrary.PayoffType",
              "name": "poType",
              "type": "uint8"
            },
            {
              "internalType": "address",
              "name": "holder",
              "type": "address"
            },
            {
              "internalType": "enum OptionLibrary.OptionStatus",
              "name": "status",
              "type": "uint8"
            },
            {
              "internalType": "uint256",
              "name": "id",
              "type": "uint256"
            },
            {
              "internalType": "uint256",
              "name": "createTime",
              "type": "uint256"
            },
            {
              "internalType": "uint256",
              "name": "effectiveTime",
              "type": "uint256"
            },
            {
              "internalType": "uint256",
              "name": "tenor",
              "type": "uint256"
            },
            {
              "internalType": "uint256",
              "name": "exerciseTime",
              "type": "uint256"
            },
            {
              "internalType": "uint256",
              "name": "amount",
              "type": "uint256"
            },
            {
              "internalType": "uint256",
              "name": "spot",
              "type": "uint256"
            },
            {
              "internalType": "uint256",
              "name": "strike",
              "type": "uint256"
            },
            {
              "internalType": "uint256",
              "name": "volatility",
              "type": "uint256"
            },
            {
              "internalType": "uint256",
              "name": "premium",
              "type": "uint256"
            },
            {
              "internalType": "uint256",
              "name": "fee",
              "type": "uint256"
            }
          ],
          "internalType": "struct OptionLibrary.Option",
          "name": "",
          "type": "tuple"
        }
      ],
      "stateMutability": "view",
      "type": "function"
    }
  ],
  "bytecode": "0x60806040526000600f556000601055600060115560006012556040518060400160405280620f42408152602001620f42408152506015600082015181600001556020820151816001015550506040518060400160405280620186a08152602001620f424081525060176000820151816000015560208201518160010155505060405180604001604052806207a1208152602001620f42408152506019600082015181600001556020820151816001015550506040518060400160405280614e208152602001620f4240815250601b60008201518160000155602082015181600101555050604051620065b8380380620065b8833981810160405281019062000108919062000837565b8686816003908051906020019062000122929190620006db565b5080600490805190602001906200013b929190620006db565b505050620001536000801b33620003f660201b60201c565b620001857fa49807205ce4d355092ef5a8a18f56e8913cf4a201fbe287825b095693c2177533620003f660201b60201c565b80600d60006101000a81548173ffffffffffffffffffffffffffffffffffffffff021916908373ffffffffffffffffffffffffffffffffffffffff16021790555081600c60006101000a81548173ffffffffffffffffffffffffffffffffffffffff021916908373ffffffffffffffffffffffffffffffffffffffff16021790555082600e60006101000a81548173ffffffffffffffffffffffffffffffffffffffff021916908373ffffffffffffffffffffffffffffffffffffffff16021790555083601e60006101000a81548173ffffffffffffffffffffffffffffffffffffffff021916908373ffffffffffffffffffffffffffffffffffffffff16021790555084601d60006101000a81548173ffffffffffffffffffffffffffffffffffffffff021916908373ffffffffffffffffffffffffffffffffffffffff16021790555030600660006101000a81548173ffffffffffffffffffffffffffffffffffffffff021916908373ffffffffffffffffffffffffffffffffffffffff160217905550600d60009054906101000a900473ffffffffffffffffffffffffffffffffffffffff1673ffffffffffffffffffffffffffffffffffffffff1663313ce5676040518163ffffffff1660e01b815260040160206040518083038186803b1580156200037457600080fd5b505afa15801562000389573d6000803e3d6000fd5b505050506040513d601f19601f82011682018060405250810190620003af919062000928565b60ff16601481905550601454600a620003c9919062000af9565b601381905550620003e933670de0b6b3a76400006200040c60201b60201c565b5050505050505062000e3f565b6200040882826200057160201b60201c565b5050565b600073ffffffffffffffffffffffffffffffffffffffff168273ffffffffffffffffffffffffffffffffffffffff1614156200047f576040517f08c379a0000000000000000000000000000000000000000000000000000000008152600401620004769062000992565b60405180910390fd5b62000493600083836200066360201b60201c565b8060026000828254620004a7919062000a41565b92505081905550806000808473ffffffffffffffffffffffffffffffffffffffff1673ffffffffffffffffffffffffffffffffffffffff1681526020019081526020016000206000828254620004fe919062000a41565b925050819055508173ffffffffffffffffffffffffffffffffffffffff16600073ffffffffffffffffffffffffffffffffffffffff167fddf252ad1be2c89b69c2b068fc378daa952ba7f163c4a11628f55a4df523b3ef83604051620005659190620009b4565b60405180910390a35050565b6200058382826200066860201b60201c565b6200065f5760016005600084815260200190815260200160002060000160008373ffffffffffffffffffffffffffffffffffffffff1673ffffffffffffffffffffffffffffffffffffffff16815260200190815260200160002060006101000a81548160ff02191690831515021790555062000604620006d360201b60201c565b73ffffffffffffffffffffffffffffffffffffffff168173ffffffffffffffffffffffffffffffffffffffff16837f2f8788117e7eff1d82e926ec794901d17c78024a50270940304540a733656f0d60405160405180910390a45b5050565b505050565b60006005600084815260200190815260200160002060000160008373ffffffffffffffffffffffffffffffffffffffff1673ffffffffffffffffffffffffffffffffffffffff16815260200190815260200160002060009054906101000a900460ff16905092915050565b600033905090565b828054620006e99062000cb7565b90600052602060002090601f0160209004810192826200070d576000855562000759565b82601f106200072857805160ff191683800117855562000759565b8280016001018555821562000759579182015b82811115620007585782518255916020019190600101906200073b565b5b5090506200076891906200076c565b5090565b5b80821115620007875760008160009055506001016200076d565b5090565b6000620007a26200079c84620009fa565b620009d1565b905082815260208101848484011115620007c157620007c062000db5565b5b620007ce84828562000c81565b509392505050565b600081519050620007e78162000e0b565b92915050565b600082601f83011262000805576200080462000db0565b5b8151620008178482602086016200078b565b91505092915050565b600081519050620008318162000e25565b92915050565b600080600080600080600060e0888a03121562000859576200085862000dbf565b5b600088015167ffffffffffffffff8111156200087a576200087962000dba565b5b620008888a828b01620007ed565b975050602088015167ffffffffffffffff811115620008ac57620008ab62000dba565b5b620008ba8a828b01620007ed565b9650506040620008cd8a828b01620007d6565b9550506060620008e08a828b01620007d6565b9450506080620008f38a828b01620007d6565b93505060a0620009068a828b01620007d6565b92505060c0620009198a828b01620007d6565b91505092959891949750929550565b60006020828403121562000941576200094062000dbf565b5b6000620009518482850162000820565b91505092915050565b600062000969601f8362000a30565b9150620009768262000de2565b602082019050919050565b6200098c8162000c6a565b82525050565b60006020820190508181036000830152620009ad816200095a565b9050919050565b6000602082019050620009cb600083018462000981565b92915050565b6000620009dd620009f0565b9050620009eb828262000ced565b919050565b6000604051905090565b600067ffffffffffffffff82111562000a185762000a1762000d81565b5b62000a238262000dc4565b9050602081019050919050565b600082825260208201905092915050565b600062000a4e8262000c6a565b915062000a5b8362000c6a565b9250827fffffffffffffffffffffffffffffffffffffffffffffffffffffffffffffffff0382111562000a935762000a9262000d23565b5b828201905092915050565b6000808291508390505b600185111562000af05780860481111562000ac85762000ac762000d23565b5b600185161562000ad85780820291505b808102905062000ae88562000dd5565b945062000aa8565b94509492505050565b600062000b068262000c6a565b915062000b138362000c6a565b925062000b427fffffffffffffffffffffffffffffffffffffffffffffffffffffffffffffffff848462000b4a565b905092915050565b60008262000b5c576001905062000c2f565b8162000b6c576000905062000c2f565b816001811462000b85576002811462000b905762000bc6565b600191505062000c2f565b60ff84111562000ba55762000ba462000d23565b5b8360020a91508482111562000bbf5762000bbe62000d23565b5b5062000c2f565b5060208310610133831016604e8410600b841016171562000c005782820a90508381111562000bfa5762000bf962000d23565b5b62000c2f565b62000c0f848484600162000a9e565b9250905081840481111562000c295762000c2862000d23565b5b81810290505b9392505050565b600062000c438262000c4a565b9050919050565b600073ffffffffffffffffffffffffffffffffffffffff82169050919050565b6000819050919050565b600060ff82169050919050565b60005b8381101562000ca157808201518184015260208101905062000c84565b8381111562000cb1576000848401525b50505050565b6000600282049050600182168062000cd057607f821691505b6020821081141562000ce75762000ce662000d52565b5b50919050565b62000cf88262000dc4565b810181811067ffffffffffffffff8211171562000d1a5762000d1962000d81565b5b80604052505050565b7f4e487b7100000000000000000000000000000000000000000000000000000000600052601160045260246000fd5b7f4e487b7100000000000000000000000000000000000000000000000000000000600052602260045260246000fd5b7f4e487b7100000000000000000000000000000000000000000000000000000000600052604160045260246000fd5b600080fd5b600080fd5b600080fd5b600080fd5b6000601f19601f8301169050919050565b60008160011c9050919050565b7f45524332303a206d696e7420746f20746865207a65726f206164647265737300600082015250565b62000e168162000c36565b811462000e2257600080fd5b50565b62000e308162000c74565b811462000e3c57600080fd5b50565b6157698062000e4f6000396000f3fe6080604052600436106102e85760003560e01c806394d1d54a11610190578063c3513f6d116100dc578063d50cb88b11610095578063dc723c6e1161006f578063dc723c6e14610bd7578063dd62ed3e14610c02578063e400bdf014610c3f578063f8daf7d814610c6b576102ef565b8063d50cb88b14610b5a578063d547741f14610b85578063d95b0a1214610bae576102ef565b8063c3513f6d14610a4e578063c679dc7914610a65578063cbe42a1814610aa2578063cc8156ce14610acb578063d4427b9114610af4578063d5093b0b14610b31576102ef565b8063a457c2d711610149578063ad5c464811610123578063ad5c46481461099f578063ad760032146109ca578063b0667cf814610a07578063bea10f9614610a32576102ef565b8063a457c2d7146108e6578063a7aa180814610923578063a9059cbb14610962576102ef565b806394d1d54a146107d357806395d89b41146107ff5780639617c16e1461082a578063982aae4614610853578063a217fddf1461087e578063a42b6626146108a9576102ef565b8063395093511161024f57806375b238fc116102085780638a0687d2116101e25780638a0687d2146106f35780638e16a8a61461073057806391d148541461076d57806392e33c00146107aa576102ef565b806375b238fc1461067457806378b5b5491461069f578063797be55e146106c8576102ef565b8063395093511461053c57806343138690146105795780634d3e8863146105a257806363447902146105ce5780636467b2cf1461060b57806370a0823114610637576102ef565b806323b872dd116102a157806323b872dd1461041a578063248a9ca3146104575780632f2ff15d14610494578063313ce567146104bd57806336568abe146104e857806336da488714610511576102ef565b806301ffc9a7146102f457806305300b281461033157806306fdde031461035c578063095ea7b31461038757806318160ddd146103c45780631dca1553146103ef576102ef565b366102ef57005b600080fd5b34801561030057600080fd5b5061031b60048036038101906103169190613e8f565b610c96565b6040516103289190614712565b60405180910390f35b34801561033d57600080fd5b50610346610d10565b604051610353919061499c565b60405180910390f35b34801561036857600080fd5b50610371610d16565b60405161037e9190614763565b60405180910390f35b34801561039357600080fd5b506103ae60048036038101906103a99190613cde565b610da8565b6040516103bb9190614712565b60405180910390f35b3480156103d057600080fd5b506103d9610dc6565b6040516103e6919061499c565b60405180910390f35b3480156103fb57600080fd5b50610404610dd0565b6040516104119190614748565b60405180910390f35b34801561042657600080fd5b50610441600480360381019061043c9190613c8b565b610dd6565b60405161044e9190614712565b60405180910390f35b34801561046357600080fd5b5061047e60048036038101906104799190613e22565b610ed7565b60405161048b919061472d565b60405180910390f35b3480156104a057600080fd5b506104bb60048036038101906104b69190613e4f565b610ef7565b005b3480156104c957600080fd5b506104d2610f20565b6040516104df9190614abd565b60405180910390f35b3480156104f457600080fd5b5061050f600480360381019061050a9190613e4f565b610f29565b005b34801561051d57600080fd5b50610526610fac565b604051610533919061499c565b60405180910390f35b34801561054857600080fd5b50610563600480360381019061055e9190613cde565b610fb2565b6040516105709190614712565b60405180910390f35b34801561058557600080fd5b506105a0600480360381019061059b9190613f17565b61105e565b005b3480156105ae57600080fd5b506105b761118b565b6040516105c5929190614a03565b60405180910390f35b3480156105da57600080fd5b506105f560048036038101906105f09190613de2565b61119d565b604051610602919061499c565b60405180910390f35b34801561061757600080fd5b50610620611377565b60405161062e929190614a03565b60405180910390f35b34801561064357600080fd5b5061065e60048036038101906106599190613c1e565b611389565b60405161066b919061499c565b60405180910390f35b34801561068057600080fd5b506106896113d1565b604051610696919061472d565b60405180910390f35b3480156106ab57600080fd5b506106c660048036038101906106c19190613ff1565b6113f5565b005b3480156106d457600080fd5b506106dd61145a565b6040516106ea919061499c565b60405180910390f35b3480156106ff57600080fd5b5061071a60048036038101906107159190613f71565b611460565b6040516107279190614965565b60405180910390f35b34801561073c57600080fd5b5061075760048036038101906107529190613ff1565b61156c565b60405161076491906146f0565b60405180910390f35b34801561077957600080fd5b50610794600480360381019061078f9190613e4f565b611811565b6040516107a19190614712565b60405180910390f35b3480156107b657600080fd5b506107d160048036038101906107cc9190613ff1565b61187c565b005b3480156107df57600080fd5b506107e86118e1565b6040516107f6929190614a03565b60405180910390f35b34801561080b57600080fd5b506108146118f3565b6040516108219190614763565b60405180910390f35b34801561083657600080fd5b50610851600480360381019061084c9190613ff1565b611985565b005b34801561085f57600080fd5b506108686119ea565b6040516108759190614683565b60405180910390f35b34801561088a57600080fd5b50610893611a10565b6040516108a0919061472d565b60405180910390f35b3480156108b557600080fd5b506108d060048036038101906108cb9190613c1e565b611a17565b6040516108dd919061499c565b60405180910390f35b3480156108f257600080fd5b5061090d60048036038101906109089190613cde565b611a67565b60405161091a9190614712565b60405180910390f35b34801561092f57600080fd5b5061094a60048036038101906109459190613fb1565b611b5b565b60405161095993929190614a86565b60405180910390f35b34801561096e57600080fd5b5061098960048036038101906109849190613cde565b611c98565b6040516109969190614712565b60405180910390f35b3480156109ab57600080fd5b506109b4611cb6565b6040516109c19190614683565b60405180910390f35b3480156109d657600080fd5b506109f160048036038101906109ec9190613ff1565b611cdc565b6040516109fe91906146f0565b60405180910390f35b348015610a1357600080fd5b50610a1c611f80565b604051610a29919061499c565b60405180910390f35b610a4c6004803603810190610a479190613f17565b612030565b005b348015610a5a57600080fd5b50610a636120f1565b005b348015610a7157600080fd5b50610a8c6004803603810190610a879190613fb1565b6121a6565b604051610a999190614981565b60405180910390f35b348015610aae57600080fd5b50610ac96004803603810190610ac49190613d1e565b612358565b005b348015610ad757600080fd5b50610af26004803603810190610aed9190613ff1565b61243f565b005b348015610b0057600080fd5b50610b1b6004803603810190610b169190613f17565b6124a4565b604051610b28919061499c565b60405180910390f35b348015610b3d57600080fd5b50610b586004803603810190610b539190613d1e565b6124cb565b005b348015610b6657600080fd5b50610b6f612584565b604051610b7c919061499c565b60405180910390f35b348015610b9157600080fd5b50610bac6004803603810190610ba79190613e4f565b61258a565b005b348015610bba57600080fd5b50610bd56004803603810190610bd09190613f17565b6125b3565b005b348015610be357600080fd5b50610bec612664565b604051610bf99190614748565b60405180910390f35b348015610c0e57600080fd5b50610c296004803603810190610c249190613c4b565b61276c565b604051610c36919061499c565b60405180910390f35b348015610c4b57600080fd5b50610c546127f3565b604051610c62929190614a03565b60405180910390f35b348015610c7757600080fd5b50610c80612805565b604051610c8d919061499c565b60405180910390f35b60007f7965db0b000000000000000000000000000000000000000000000000000000007bffffffffffffffffffffffffffffffffffffffffffffffffffffffff1916827bffffffffffffffffffffffffffffffffffffffffffffffffffffffff19161480610d095750610d088261280b565b5b9050919050565b60145481565b606060038054610d2590614f87565b80601f0160208091040260200160405190810160405280929190818152602001828054610d5190614f87565b8015610d9e5780601f10610d7357610100808354040283529160200191610d9e565b820191906000526020600020905b815481529060010190602001808311610d8157829003601f168201915b5050505050905090565b6000610dbc610db5612875565b848461287d565b6001905092915050565b6000600254905090565b60125481565b6000610de3848484612a48565b6000600160008673ffffffffffffffffffffffffffffffffffffffff1673ffffffffffffffffffffffffffffffffffffffff1681526020019081526020016000206000610e2e612875565b73ffffffffffffffffffffffffffffffffffffffff1673ffffffffffffffffffffffffffffffffffffffff16815260200190815260200160002054905082811015610eae576040517f08c379a0000000000000000000000000000000000000000000000000000000008152600401610ea590614845565b60405180910390fd5b610ecb85610eba612875565b8584610ec69190614dcb565b61287d565b60019150509392505050565b600060056000838152602001908152602001600020600101549050919050565b610f0082610ed7565b610f1181610f0c612875565b612cc7565b610f1b8383612d64565b505050565b60006012905090565b610f31612875565b73ffffffffffffffffffffffffffffffffffffffff168173ffffffffffffffffffffffffffffffffffffffff1614610f9e576040517f08c379a0000000000000000000000000000000000000000000000000000000008152600401610f9590614925565b60405180910390fd5b610fa88282612e45565b5050565b60105481565b6000611054610fbf612875565b848460016000610fcd612875565b73ffffffffffffffffffffffffffffffffffffffff1673ffffffffffffffffffffffffffffffffffffffff16815260200190815260200160002060008873ffffffffffffffffffffffffffffffffffffffff1673ffffffffffffffffffffffffffffffffffffffff1681526020019081526020016000205461104f9190614c56565b61287d565b6001905092915050565b7fa49807205ce4d355092ef5a8a18f56e8913cf4a201fbe287825b095693c217756110908161108b612875565b612cc7565b600061109a612664565b90506000808212156110b55781816110b29190614bc2565b90505b600060125412156110d157601254816110ce9190614d37565b90505b600080821215611123576000826110e790615033565b905060006110f58288611cdc565b90508060008151811061110b5761110a615167565b5b60200260200101518361111e9190614d37565b925050505b600082131561116b576000829050600061113d828861156c565b90508060018151811061115357611152615167565b5b6020026020010151836111669190614bc2565b925050505b806012600082825461117d9190614bc2565b925050819055505050505050565b601b8060000154908060010154905082565b6000806111a8611f80565b9050600081601354601e60009054906101000a900473ffffffffffffffffffffffffffffffffffffffff1673ffffffffffffffffffffffffffffffffffffffff166370a08231600660009054906101000a900473ffffffffffffffffffffffffffffffffffffffff166040518263ffffffff1660e01b815260040161122d919061469e565b60206040518083038186803b15801561124557600080fd5b505afa158015611259573d6000803e3d6000fd5b505050506040513d601f19601f8201168201806040525081019061127d9190613f44565b6112879190614cdd565b6112919190614cac565b9050600660009054906101000a900473ffffffffffffffffffffffffffffffffffffffff1673ffffffffffffffffffffffffffffffffffffffff1631816112d89190614c56565b9050841561133d576011546010546112f09190614c56565b81111561130c576011546010546113079190614c56565b61130e565b805b816113199190614dcb565b9050600f5481111561132d57600f5461132f565b805b8161133a9190614dcb565b90505b831561136c5761134b610dc6565b670de0b6b3a76400008261135f9190614cdd565b6113699190614cac565b90505b809250505092915050565b60178060000154908060010154905082565b60008060008373ffffffffffffffffffffffffffffffffffffffff1673ffffffffffffffffffffffffffffffffffffffff168152602001908152602001600020549050919050565b7fa49807205ce4d355092ef5a8a18f56e8913cf4a201fbe287825b095693c2177581565b7fa49807205ce4d355092ef5a8a18f56e8913cf4a201fbe287825b095693c2177561142781611422612875565b612cc7565b60405180604001604052808481526020018381525060176000820151816000015560208201518160010155905050505050565b600f5481565b611468613873565b600e60009054906101000a900473ffffffffffffffffffffffffffffffffffffffff1673ffffffffffffffffffffffffffffffffffffffff16631ce5e9a66114f785600760008773ffffffffffffffffffffffffffffffffffffffff1673ffffffffffffffffffffffffffffffffffffffff168152602001908152602001600020612f2790919063ffffffff16565b6040518263ffffffff1660e01b8152600401611513919061499c565b6101c06040518083038186803b15801561152c57600080fd5b505afa158015611540573d6000803e3d6000fd5b505050506040513d601f19601f820116820180604052508101906115649190613ee9565b905092915050565b60607fa49807205ce4d355092ef5a8a18f56e8913cf4a201fbe287825b095693c217756115a08161159b612875565b612cc7565b6000601b60010154601b60000154601b600101546115be9190614c56565b6115c6611f80565b6115d09190614cdd565b6115da9190614cac565b9050600081601354876115ed9190614cdd565b6115f79190614cac565b90506000600267ffffffffffffffff81111561161657611615615196565b5b6040519080825280602002602001820160405280156116445781602001602082028036833780820191505090505b509050601e60009054906101000a900473ffffffffffffffffffffffffffffffffffffffff168160008151811061167e5761167d615167565b5b602002602001019073ffffffffffffffffffffffffffffffffffffffff16908173ffffffffffffffffffffffffffffffffffffffff1681525050601d60009054906101000a900473ffffffffffffffffffffffffffffffffffffffff16816001815181106116ef576116ee615167565b5b602002602001019073ffffffffffffffffffffffffffffffffffffffff16908173ffffffffffffffffffffffffffffffffffffffff1681525050600c60009054906101000a900473ffffffffffffffffffffffffffffffffffffffff1673ffffffffffffffffffffffffffffffffffffffff166318cbafe5888484600660009054906101000a900473ffffffffffffffffffffffffffffffffffffffff168b6040518663ffffffff1660e01b81526004016117ae959493929190614a2c565b600060405180830381600087803b1580156117c857600080fd5b505af11580156117dc573d6000803e3d6000fd5b505050506040513d6000823e3d601f19601f820116820180604052508101906118059190613d99565b94505050505092915050565b60006005600084815260200190815260200160002060000160008373ffffffffffffffffffffffffffffffffffffffff1673ffffffffffffffffffffffffffffffffffffffff16815260200190815260200160002060009054906101000a900460ff16905092915050565b7fa49807205ce4d355092ef5a8a18f56e8913cf4a201fbe287825b095693c217756118ae816118a9612875565b612cc7565b60405180604001604052808481526020018381525060156000820151816000015560208201518160010155905050505050565b60198060000154908060010154905082565b60606004805461190290614f87565b80601f016020809104026020016040519081016040528092919081815260200182805461192e90614f87565b801561197b5780601f106119505761010080835404028352916020019161197b565b820191906000526020600020905b81548152906001019060200180831161195e57829003601f168201915b5050505050905090565b7fa49807205ce4d355092ef5a8a18f56e8913cf4a201fbe287825b095693c217756119b7816119b2612875565b612cc7565b60405180604001604052808481526020018381525060196000820151816000015560208201518160010155905050505050565b601e60009054906101000a900473ffffffffffffffffffffffffffffffffffffffff1681565b6000801b81565b6000611a60600760008473ffffffffffffffffffffffffffffffffffffffff1673ffffffffffffffffffffffffffffffffffffffff168152602001908152602001600020612f41565b9050919050565b60008060016000611a76612875565b73ffffffffffffffffffffffffffffffffffffffff1673ffffffffffffffffffffffffffffffffffffffff16815260200190815260200160002060008573ffffffffffffffffffffffffffffffffffffffff1673ffffffffffffffffffffffffffffffffffffffff16815260200190815260200160002054905082811015611b33576040517f08c379a0000000000000000000000000000000000000000000000000000000008152600401611b2a90614905565b60405180910390fd5b611b50611b3e612875565b858584611b4b9190614dcb565b61287d565b600191505092915050565b600080600080611b6c60008061119d565b905060006011546010541015611b8457601154611b88565b6010545b9050600081905060006001811115611ba357611ba26150da565b5b876001811115611bb657611bb56150da565b5b1415611bed5760115488601054611bcd9190614c56565b1015611bdb57601154611bea565b87601054611be99190614c56565b5b90505b600180811115611c0057611bff6150da565b5b876001811115611c1357611c126150da565b5b1415611c4a5787601154611c279190614c56565b6010541015611c435787601154611c3e9190614c56565b611c47565b6010545b90505b8260156001015483611c5c9190614cdd565b611c669190614cac565b8360156001015483611c789190614cdd565b611c829190614cac565b6015600101549550955095505050509250925092565b6000611cac611ca5612875565b8484612a48565b6001905092915050565b601d60009054906101000a900473ffffffffffffffffffffffffffffffffffffffff1681565b60607fa49807205ce4d355092ef5a8a18f56e8913cf4a201fbe287825b095693c21775611d1081611d0b612875565b612cc7565b6000601b60010154601b60000154601b60010154611d2e9190614c56565b611d36611f80565b611d409190614cdd565b611d4a9190614cac565b905060008160135487611d5d9190614cdd565b611d679190614cac565b90506000600267ffffffffffffffff811115611d8657611d85615196565b5b604051908082528060200260200182016040528015611db45781602001602082028036833780820191505090505b509050601d60009054906101000a900473ffffffffffffffffffffffffffffffffffffffff1681600081518110611dee57611ded615167565b5b602002602001019073ffffffffffffffffffffffffffffffffffffffff16908173ffffffffffffffffffffffffffffffffffffffff1681525050601e60009054906101000a900473ffffffffffffffffffffffffffffffffffffffff1681600181518110611e5f57611e5e615167565b5b602002602001019073ffffffffffffffffffffffffffffffffffffffff16908173ffffffffffffffffffffffffffffffffffffffff1681525050600c60009054906101000a900473ffffffffffffffffffffffffffffffffffffffff1673ffffffffffffffffffffffffffffffffffffffff1663fb3bdb41838984600660009054906101000a900473ffffffffffffffffffffffffffffffffffffffff168b6040518663ffffffff1660e01b8152600401611f1d94939291906149b7565b6000604051808303818588803b158015611f3657600080fd5b505af1158015611f4a573d6000803e3d6000fd5b50505050506040513d6000823e3d601f19601f82011682018060405250810190611f749190613d99565b94505050505092915050565b600080600d60009054906101000a900473ffffffffffffffffffffffffffffffffffffffff1673ffffffffffffffffffffffffffffffffffffffff1663feaf968c6040518163ffffffff1660e01b815260040160a06040518083038186803b158015611feb57600080fd5b505afa158015611fff573d6000803e3d6000fd5b505050506040513d601f19601f820116820180604052508101906120239190614031565b5050509150508091505090565b600061203e6000600161119d565b905060008111612083576040517f08c379a000000000000000000000000000000000000000000000000000000000815260040161207a90614865565b60405180910390fd5b600061209883670de0b6b3a764000084612f56565b9050823410156120a757600080fd5b6120b13382613052565b7fd0d5ca25112902dbbf5a70a67eed6edc7513b74f2a7ec0805ca216c99f981cc13384836040516120e4939291906146b9565b60405180910390a1505050565b7fa49807205ce4d355092ef5a8a18f56e8913cf4a201fbe287825b095693c217756121238161211e612875565b612cc7565b3373ffffffffffffffffffffffffffffffffffffffff166108fc600660009054906101000a900473ffffffffffffffffffffffffffffffffffffffff1673ffffffffffffffffffffffffffffffffffffffff16319081150290604051600060405180830381858888f193505050501580156121a2573d6000803e3d6000fd5b5050565b6121ae61391c565b60008060006121bd8686611b5b565b925092509250601560000154831061220a576040517f08c379a0000000000000000000000000000000000000000000000000000000008152600401612201906148c5565b60405180910390fd5b6015600001548210612251576040517f08c379a0000000000000000000000000000000000000000000000000000000008152600401612248906148c5565b60405180910390fd5b60006017600101548460176000015461226a9190614cdd565b6122749190614cac565b9050818411156122b85760196001015482856122909190614dcb565b6019600001546122a09190614cdd565b6122aa9190614cac565b816122b59190614c56565b90505b6000601760010154846017600001546122d19190614cdd565b6122db9190614cac565b90508284111561231f5760196001015483856122f79190614dcb565b6019600001546123079190614cdd565b6123119190614cac565b8161231c9190614c56565b90505b6040518060400160405280600283856123389190614c56565b6123429190614cac565b8152602001848152509550505050505092915050565b61236c85600a6131a690919063ffffffff16565b6123865761238485600a6131d690919063ffffffff16565b505b6123d784600760008873ffffffffffffffffffffffffffffffffffffffff1673ffffffffffffffffffffffffffffffffffffffff16815260200190815260200160002061320690919063ffffffff16565b506123ec84600861320690919063ffffffff16565b5082600f60008282546123ff9190614c56565b9250508190555081601060008282546124189190614c56565b9250508190555080601160008282546124319190614c56565b925050819055505050505050565b7fa49807205ce4d355092ef5a8a18f56e8913cf4a201fbe287825b095693c217756124718161246c612875565b612cc7565b604051806040016040528084815260200183815250601b6000820151816000015560208201518160010155905050505050565b60006124c4826124b66000600161119d565b670de0b6b3a7640000612f56565b9050919050565b61251c84600760008873ffffffffffffffffffffffffffffffffffffffff1673ffffffffffffffffffffffffffffffffffffffff16815260200190815260200160002061322090919063ffffffff16565b5061253184600861322090919063ffffffff16565b5082600f60008282546125449190614dcb565b92505081905550816010600082825461255d9190614dcb565b9250508190555080601160008282546125769190614dcb565b925050819055505050505050565b60135481565b61259382610ed7565b6125a48161259f612875565b612cc7565b6125ae8383612e45565b505050565b60006125d26125c360018061119d565b83670de0b6b3a7640000612f56565b90506125de338361323a565b3373ffffffffffffffffffffffffffffffffffffffff166108fc829081150290604051600060405180830381858888f19350505050158015612624573d6000803e3d6000fd5b507f3a9e5b3b520d77dc26bf05104c863b6b654d4b96fa8031a783ad0dbd905cdf39338383604051612658939291906146b9565b60405180910390a15050565b6000806126716008612f41565b90506000805b82811015612763576000612695826008612f2790919063ffffffff16565b9050600e60009054906101000a900473ffffffffffffffffffffffffffffffffffffffff1673ffffffffffffffffffffffffffffffffffffffff1663a823c087826040518263ffffffff1660e01b81526004016126f2919061499c565b60206040518083038186803b15801561270a57600080fd5b505afa15801561271e573d6000803e3d6000fd5b505050506040513d601f19601f820116820180604052508101906127429190613ebc565b8361274d9190614bc2565b925050808061275b90614fea565b915050612677565b50809250505090565b6000600160008473ffffffffffffffffffffffffffffffffffffffff1673ffffffffffffffffffffffffffffffffffffffff16815260200190815260200160002060008373ffffffffffffffffffffffffffffffffffffffff1673ffffffffffffffffffffffffffffffffffffffff16815260200190815260200160002054905092915050565b60158060000154908060010154905082565b60115481565b60007f01ffc9a7000000000000000000000000000000000000000000000000000000007bffffffffffffffffffffffffffffffffffffffffffffffffffffffff1916827bffffffffffffffffffffffffffffffffffffffffffffffffffffffff1916149050919050565b600033905090565b600073ffffffffffffffffffffffffffffffffffffffff168373ffffffffffffffffffffffffffffffffffffffff1614156128ed576040517f08c379a00000000000000000000000000000000000000000000000000000000081526004016128e4906148e5565b60405180910390fd5b600073ffffffffffffffffffffffffffffffffffffffff168273ffffffffffffffffffffffffffffffffffffffff16141561295d576040517f08c379a000000000000000000000000000000000000000000000000000000000815260040161295490614805565b60405180910390fd5b80600160008573ffffffffffffffffffffffffffffffffffffffff1673ffffffffffffffffffffffffffffffffffffffff16815260200190815260200160002060008473ffffffffffffffffffffffffffffffffffffffff1673ffffffffffffffffffffffffffffffffffffffff168152602001908152602001600020819055508173ffffffffffffffffffffffffffffffffffffffff168373ffffffffffffffffffffffffffffffffffffffff167f8c5be1e5ebec7d5bd14f71427d1e84f3dd0314c0f7b2291e5b200ac8c7c3b92583604051612a3b919061499c565b60405180910390a3505050565b600073ffffffffffffffffffffffffffffffffffffffff168373ffffffffffffffffffffffffffffffffffffffff161415612ab8576040517f08c379a0000000000000000000000000000000000000000000000000000000008152600401612aaf906148a5565b60405180910390fd5b600073ffffffffffffffffffffffffffffffffffffffff168273ffffffffffffffffffffffffffffffffffffffff161415612b28576040517f08c379a0000000000000000000000000000000000000000000000000000000008152600401612b1f906147c5565b60405180910390fd5b612b3383838361340e565b60008060008573ffffffffffffffffffffffffffffffffffffffff1673ffffffffffffffffffffffffffffffffffffffff16815260200190815260200160002054905081811015612bb9576040517f08c379a0000000000000000000000000000000000000000000000000000000008152600401612bb090614825565b60405180910390fd5b8181612bc59190614dcb565b6000808673ffffffffffffffffffffffffffffffffffffffff1673ffffffffffffffffffffffffffffffffffffffff16815260200190815260200160002081905550816000808573ffffffffffffffffffffffffffffffffffffffff1673ffffffffffffffffffffffffffffffffffffffff1681526020019081526020016000206000828254612c559190614c56565b925050819055508273ffffffffffffffffffffffffffffffffffffffff168473ffffffffffffffffffffffffffffffffffffffff167fddf252ad1be2c89b69c2b068fc378daa952ba7f163c4a11628f55a4df523b3ef84604051612cb9919061499c565b60405180910390a350505050565b612cd18282611811565b612d6057612cf68173ffffffffffffffffffffffffffffffffffffffff166014613413565b612d048360001c6020613413565b604051602001612d15929190614649565b6040516020818303038152906040526040517f08c379a0000000000000000000000000000000000000000000000000000000008152600401612d579190614763565b60405180910390fd5b5050565b612d6e8282611811565b612e415760016005600084815260200190815260200160002060000160008373ffffffffffffffffffffffffffffffffffffffff1673ffffffffffffffffffffffffffffffffffffffff16815260200190815260200160002060006101000a81548160ff021916908315150217905550612de6612875565b73ffffffffffffffffffffffffffffffffffffffff168173ffffffffffffffffffffffffffffffffffffffff16837f2f8788117e7eff1d82e926ec794901d17c78024a50270940304540a733656f0d60405160405180910390a45b5050565b612e4f8282611811565b15612f235760006005600084815260200190815260200160002060000160008373ffffffffffffffffffffffffffffffffffffffff1673ffffffffffffffffffffffffffffffffffffffff16815260200190815260200160002060006101000a81548160ff021916908315150217905550612ec8612875565b73ffffffffffffffffffffffffffffffffffffffff168173ffffffffffffffffffffffffffffffffffffffff16837ff6391f5c32d9c69d2a47ea670b442974b53935d1edc7fd64eb21e047a839171b60405160405180910390a45b5050565b6000612f36836000018361364f565b60001c905092915050565b6000612f4f826000016136c3565b9050919050565b600080600080198587098587029250828110838203039150506000811415612f915760008411612f8557600080fd5b8382049250505061304b565b808411612f9d57600080fd5b60008486880990508281118203915080830392506000856001877fffffffffffffffffffffffffffffffffffffffffffffffffffffffffffffffff0301169050808604955080840493506001818260000304019050808302841793506000600287600302189050808702600203810290508087026002038102905080870260020381029050808702600203810290508087026002038102905080870260020381029050808502955050505050505b9392505050565b600073ffffffffffffffffffffffffffffffffffffffff168273ffffffffffffffffffffffffffffffffffffffff1614156130c2576040517f08c379a00000000000000000000000000000000000000000000000000000000081526004016130b990614945565b60405180910390fd5b6130ce6000838361340e565b80600260008282546130e09190614c56565b92505081905550806000808473ffffffffffffffffffffffffffffffffffffffff1673ffffffffffffffffffffffffffffffffffffffff16815260200190815260200160002060008282546131359190614c56565b925050819055508173ffffffffffffffffffffffffffffffffffffffff16600073ffffffffffffffffffffffffffffffffffffffff167fddf252ad1be2c89b69c2b068fc378daa952ba7f163c4a11628f55a4df523b3ef8360405161319a919061499c565b60405180910390a35050565b60006131ce836000018373ffffffffffffffffffffffffffffffffffffffff1660001b6136d4565b905092915050565b60006131fe836000018373ffffffffffffffffffffffffffffffffffffffff1660001b6136f7565b905092915050565b6000613218836000018360001b6136f7565b905092915050565b6000613232836000018360001b613767565b905092915050565b600073ffffffffffffffffffffffffffffffffffffffff168273ffffffffffffffffffffffffffffffffffffffff1614156132aa576040517f08c379a00000000000000000000000000000000000000000000000000000000081526004016132a190614885565b60405180910390fd5b6132b68260008361340e565b60008060008473ffffffffffffffffffffffffffffffffffffffff1673ffffffffffffffffffffffffffffffffffffffff1681526020019081526020016000205490508181101561333c576040517f08c379a0000000000000000000000000000000000000000000000000000000008152600401613333906147e5565b60405180910390fd5b81816133489190614dcb565b6000808573ffffffffffffffffffffffffffffffffffffffff1673ffffffffffffffffffffffffffffffffffffffff16815260200190815260200160002081905550816002600082825461339c9190614dcb565b92505081905550600073ffffffffffffffffffffffffffffffffffffffff168373ffffffffffffffffffffffffffffffffffffffff167fddf252ad1be2c89b69c2b068fc378daa952ba7f163c4a11628f55a4df523b3ef84604051613401919061499c565b60405180910390a3505050565b505050565b6060600060028360026134269190614cdd565b6134309190614c56565b67ffffffffffffffff81111561344957613448615196565b5b6040519080825280601f01601f19166020018201604052801561347b5781602001600182028036833780820191505090505b5090507f3000000000000000000000000000000000000000000000000000000000000000816000815181106134b3576134b2615167565b5b60200101907effffffffffffffffffffffffffffffffffffffffffffffffffffffffffffff1916908160001a9053507f78000000000000000000000000000000000000000000000000000000000000008160018151811061351757613516615167565b5b60200101907effffffffffffffffffffffffffffffffffffffffffffffffffffffffffffff1916908160001a905350600060018460026135579190614cdd565b6135619190614c56565b90505b6001811115613601577f3031323334353637383961626364656600000000000000000000000000000000600f8616601081106135a3576135a2615167565b5b1a60f81b8282815181106135ba576135b9615167565b5b60200101907effffffffffffffffffffffffffffffffffffffffffffffffffffffffffffff1916908160001a905350600485901c9450806135fa90614f5d565b9050613564565b5060008414613645576040517f08c379a000000000000000000000000000000000000000000000000000000000815260040161363c906147a5565b60405180910390fd5b8091505092915050565b60008183600001805490501161369a576040517f08c379a000000000000000000000000000000000000000000000000000000000815260040161369190614785565b60405180910390fd5b8260000182815481106136b0576136af615167565b5b9060005260206000200154905092915050565b600081600001805490509050919050565b600080836001016000848152602001908152602001600020541415905092915050565b600061370383836136d4565b61375c578260000182908060018154018082558091505060019003906000526020600020016000909190919091505582600001805490508360010160008481526020019081526020016000208190555060019050613761565b600090505b92915050565b600080836001016000848152602001908152602001600020549050600081146138675760006001826137999190614dcb565b90506000600186600001805490506137b19190614dcb565b905060008660000182815481106137cb576137ca615167565b5b90600052602060002001549050808760000184815481106137ef576137ee615167565b5b906000526020600020018190555083876001016000838152602001908152602001600020819055508660000180548061382b5761382a615138565b5b6001900381819060005260206000200160009055905586600101600087815260200190815260200160002060009055600194505050505061386d565b60009150505b92915050565b604051806101c0016040528060006001811115613893576138926150da565b5b8152602001600073ffffffffffffffffffffffffffffffffffffffff168152602001600060038111156138c9576138c86150da565b5b815260200160008152602001600081526020016000815260200160008152602001600081526020016000815260200160008152602001600081526020016000815260200160008152602001600081525090565b604051806040016040528060008152602001600081525090565b600061394961394484614afd565b614ad8565b9050808382526020820190508285602086028201111561396c5761396b6151cf565b5b60005b8581101561399c57816139828882613bf4565b84526020840193506020830192505060018101905061396f565b5050509392505050565b6000813590506139b581615672565b92915050565b6000815190506139ca81615672565b92915050565b600082601f8301126139e5576139e46151c5565b5b81516139f5848260208601613936565b91505092915050565b600081359050613a0d81615689565b92915050565b600081359050613a22816156a0565b92915050565b600081359050613a37816156b7565b92915050565b600081519050613a4c816156ce565b92915050565b600081359050613a61816156de565b92915050565b600081519050613a76816156de565b92915050565b600081519050613a8b816156ee565b92915050565b60006101c08284031215613aa857613aa76151ca565b5b613ab36101c0614ad8565b90506000613ac384828501613a67565b6000830152506020613ad7848285016139bb565b6020830152506040613aeb84828501613a3d565b6040830152506060613aff84828501613bf4565b6060830152506080613b1384828501613bf4565b60808301525060a0613b2784828501613bf4565b60a08301525060c0613b3b84828501613bf4565b60c08301525060e0613b4f84828501613bf4565b60e083015250610100613b6484828501613bf4565b61010083015250610120613b7a84828501613bf4565b61012083015250610140613b9084828501613bf4565b61014083015250610160613ba684828501613bf4565b61016083015250610180613bbc84828501613bf4565b610180830152506101a0613bd284828501613bf4565b6101a08301525092915050565b600081359050613bee81615705565b92915050565b600081519050613c0381615705565b92915050565b600081519050613c188161571c565b92915050565b600060208284031215613c3457613c336151d9565b5b6000613c42848285016139a6565b91505092915050565b60008060408385031215613c6257613c616151d9565b5b6000613c70858286016139a6565b9250506020613c81858286016139a6565b9150509250929050565b600080600060608486031215613ca457613ca36151d9565b5b6000613cb2868287016139a6565b9350506020613cc3868287016139a6565b9250506040613cd486828701613bdf565b9150509250925092565b60008060408385031215613cf557613cf46151d9565b5b6000613d03858286016139a6565b9250506020613d1485828601613bdf565b9150509250929050565b600080600080600060a08688031215613d3a57613d396151d9565b5b6000613d48888289016139a6565b9550506020613d5988828901613bdf565b9450506040613d6a88828901613bdf565b9350506060613d7b88828901613bdf565b9250506080613d8c88828901613bdf565b9150509295509295909350565b600060208284031215613daf57613dae6151d9565b5b600082015167ffffffffffffffff811115613dcd57613dcc6151d4565b5b613dd9848285016139d0565b91505092915050565b60008060408385031215613df957613df86151d9565b5b6000613e07858286016139fe565b9250506020613e18858286016139fe565b9150509250929050565b600060208284031215613e3857613e376151d9565b5b6000613e4684828501613a13565b91505092915050565b60008060408385031215613e6657613e656151d9565b5b6000613e7485828601613a13565b9250506020613e85858286016139a6565b9150509250929050565b600060208284031215613ea557613ea46151d9565b5b6000613eb384828501613a28565b91505092915050565b600060208284031215613ed257613ed16151d9565b5b6000613ee084828501613a7c565b91505092915050565b60006101c08284031215613f0057613eff6151d9565b5b6000613f0e84828501613a91565b91505092915050565b600060208284031215613f2d57613f2c6151d9565b5b6000613f3b84828501613bdf565b91505092915050565b600060208284031215613f5a57613f596151d9565b5b6000613f6884828501613bf4565b91505092915050565b60008060408385031215613f8857613f876151d9565b5b6000613f9685828601613bdf565b9250506020613fa7858286016139a6565b9150509250929050565b60008060408385031215613fc857613fc76151d9565b5b6000613fd685828601613bdf565b9250506020613fe785828601613a52565b9150509250929050565b60008060408385031215614008576140076151d9565b5b600061401685828601613bdf565b925050602061402785828601613bdf565b9150509250929050565b600080600080600060a0868803121561404d5761404c6151d9565b5b600061405b88828901613c09565b955050602061406c88828901613a7c565b945050604061407d88828901613bf4565b935050606061408e88828901613bf4565b925050608061409f88828901613c09565b9150509295509295909350565b60006140b883836140eb565b60208301905092915050565b60006140d0838361461c565b60208301905092915050565b6140e581614ed0565b82525050565b6140f481614dff565b82525050565b61410381614dff565b82525050565b600061411482614b49565b61411e8185614b84565b935061412983614b29565b8060005b8381101561415a57815161414188826140ac565b975061414c83614b6a565b92505060018101905061412d565b5085935050505092915050565b600061417282614b54565b61417c8185614b95565b935061418783614b39565b8060005b838110156141b857815161419f88826140c4565b97506141aa83614b77565b92505060018101905061418b565b5085935050505092915050565b6141ce81614e11565b82525050565b6141dd81614e1d565b82525050565b6141ec81614ee2565b82525050565b6141fb81614ef4565b82525050565b61420a81614e79565b82525050565b600061421b82614b5f565b6142258185614ba6565b9350614235818560208601614f2a565b61423e816151de565b840191505092915050565b600061425482614b5f565b61425e8185614bb7565b935061426e818560208601614f2a565b80840191505092915050565b6000614287602283614ba6565b9150614292826151ef565b604082019050919050565b60006142aa602083614ba6565b91506142b58261523e565b602082019050919050565b60006142cd602383614ba6565b91506142d882615267565b604082019050919050565b60006142f0602283614ba6565b91506142fb826152b6565b604082019050919050565b6000614313602283614ba6565b915061431e82615305565b604082019050919050565b6000614336602683614ba6565b915061434182615354565b604082019050919050565b6000614359602883614ba6565b9150614364826153a3565b604082019050919050565b600061437c601383614ba6565b9150614387826153f2565b602082019050919050565b600061439f602183614ba6565b91506143aa8261541b565b604082019050919050565b60006143c2602583614ba6565b91506143cd8261546a565b604082019050919050565b60006143e5601f83614ba6565b91506143f0826154b9565b602082019050919050565b6000614408602483614ba6565b9150614413826154e2565b604082019050919050565b600061442b601783614bb7565b915061443682615531565b601782019050919050565b600061444e602583614ba6565b91506144598261555a565b604082019050919050565b6000614471601183614bb7565b915061447c826155a9565b601182019050919050565b6000614494602f83614ba6565b915061449f826155d2565b604082019050919050565b60006144b7601f83614ba6565b91506144c282615621565b602082019050919050565b6101c0820160008201516144e460008501826141f2565b5060208201516144f760208501826140eb565b50604082015161450a60408501826141e3565b50606082015161451d606085018261461c565b506080820151614530608085018261461c565b5060a082015161454360a085018261461c565b5060c082015161455660c085018261461c565b5060e082015161456960e085018261461c565b5061010082015161457e61010085018261461c565b5061012082015161459361012085018261461c565b506101408201516145a861014085018261461c565b506101608201516145bd61016085018261461c565b506101808201516145d261018085018261461c565b506101a08201516145e76101a085018261461c565b50505050565b604082016000820151614603600085018261461c565b506020820151614616602085018261461c565b50505050565b61462581614ea3565b82525050565b61463481614ea3565b82525050565b61464381614ead565b82525050565b60006146548261441e565b91506146608285614249565b915061466b82614464565b91506146778284614249565b91508190509392505050565b600060208201905061469860008301846140fa565b92915050565b60006020820190506146b360008301846140dc565b92915050565b60006060820190506146ce60008301866140fa565b6146db602083018561462b565b6146e8604083018461462b565b949350505050565b6000602082019050818103600083015261470a8184614167565b905092915050565b600060208201905061472760008301846141c5565b92915050565b600060208201905061474260008301846141d4565b92915050565b600060208201905061475d6000830184614201565b92915050565b6000602082019050818103600083015261477d8184614210565b905092915050565b6000602082019050818103600083015261479e8161427a565b9050919050565b600060208201905081810360008301526147be8161429d565b9050919050565b600060208201905081810360008301526147de816142c0565b9050919050565b600060208201905081810360008301526147fe816142e3565b9050919050565b6000602082019050818103600083015261481e81614306565b9050919050565b6000602082019050818103600083015261483e81614329565b9050919050565b6000602082019050818103600083015261485e8161434c565b9050919050565b6000602082019050818103600083015261487e8161436f565b9050919050565b6000602082019050818103600083015261489e81614392565b9050919050565b600060208201905081810360008301526148be816143b5565b9050919050565b600060208201905081810360008301526148de816143d8565b9050919050565b600060208201905081810360008301526148fe816143fb565b9050919050565b6000602082019050818103600083015261491e81614441565b9050919050565b6000602082019050818103600083015261493e81614487565b9050919050565b6000602082019050818103600083015261495e816144aa565b9050919050565b60006101c08201905061497b60008301846144cd565b92915050565b600060408201905061499660008301846145ed565b92915050565b60006020820190506149b1600083018461462b565b92915050565b60006080820190506149cc600083018761462b565b81810360208301526149de8186614109565b90506149ed60408301856140dc565b6149fa606083018461462b565b95945050505050565b6000604082019050614a18600083018561462b565b614a25602083018461462b565b9392505050565b600060a082019050614a41600083018861462b565b614a4e602083018761462b565b8181036040830152614a608186614109565b9050614a6f60608301856140dc565b614a7c608083018461462b565b9695505050505050565b6000606082019050614a9b600083018661462b565b614aa8602083018561462b565b614ab5604083018461462b565b949350505050565b6000602082019050614ad2600083018461463a565b92915050565b6000614ae2614af3565b9050614aee8282614fb9565b919050565b6000604051905090565b600067ffffffffffffffff821115614b1857614b17615196565b5b602082029050602081019050919050565b6000819050602082019050919050565b6000819050602082019050919050565b600081519050919050565b600081519050919050565b600081519050919050565b6000602082019050919050565b6000602082019050919050565b600082825260208201905092915050565b600082825260208201905092915050565b600082825260208201905092915050565b600081905092915050565b6000614bcd82614e79565b9150614bd883614e79565b9250817f7fffffffffffffffffffffffffffffffffffffffffffffffffffffffffffffff03831360008312151615614c1357614c1261507c565b5b817f8000000000000000000000000000000000000000000000000000000000000000038312600083121615614c4b57614c4a61507c565b5b828201905092915050565b6000614c6182614ea3565b9150614c6c83614ea3565b9250827fffffffffffffffffffffffffffffffffffffffffffffffffffffffffffffffff03821115614ca157614ca061507c565b5b828201905092915050565b6000614cb782614ea3565b9150614cc283614ea3565b925082614cd257614cd16150ab565b5b828204905092915050565b6000614ce882614ea3565b9150614cf383614ea3565b9250817fffffffffffffffffffffffffffffffffffffffffffffffffffffffffffffffff0483118215151615614d2c57614d2b61507c565b5b828202905092915050565b6000614d4282614e79565b9150614d4d83614e79565b9250827f800000000000000000000000000000000000000000000000000000000000000001821260008412151615614d8857614d8761507c565b5b827f7fffffffffffffffffffffffffffffffffffffffffffffffffffffffffffffff018213600084121615614dc057614dbf61507c565b5b828203905092915050565b6000614dd682614ea3565b9150614de183614ea3565b925082821015614df457614df361507c565b5b828203905092915050565b6000614e0a82614e83565b9050919050565b60008115159050919050565b6000819050919050565b60007fffffffff0000000000000000000000000000000000000000000000000000000082169050919050565b6000819050614e618261564a565b919050565b6000819050614e748261565e565b919050565b6000819050919050565b600073ffffffffffffffffffffffffffffffffffffffff82169050919050565b6000819050919050565b600060ff82169050919050565b600069ffffffffffffffffffff82169050919050565b6000614edb82614f06565b9050919050565b6000614eed82614e53565b9050919050565b6000614eff82614e66565b9050919050565b6000614f1182614f18565b9050919050565b6000614f2382614e83565b9050919050565b60005b83811015614f48578082015181840152602081019050614f2d565b83811115614f57576000848401525b50505050565b6000614f6882614ea3565b91506000821415614f7c57614f7b61507c565b5b600182039050919050565b60006002820490506001821680614f9f57607f821691505b60208210811415614fb357614fb2615109565b5b50919050565b614fc2826151de565b810181811067ffffffffffffffff82111715614fe157614fe0615196565b5b80604052505050565b6000614ff582614ea3565b91507fffffffffffffffffffffffffffffffffffffffffffffffffffffffffffffffff8214156150285761502761507c565b5b600182019050919050565b600061503e82614e79565b91507f80000000000000000000000000000000000000000000000000000000000000008214156150715761507061507c565b5b816000039050919050565b7f4e487b7100000000000000000000000000000000000000000000000000000000600052601160045260246000fd5b7f4e487b7100000000000000000000000000000000000000000000000000000000600052601260045260246000fd5b7f4e487b7100000000000000000000000000000000000000000000000000000000600052602160045260246000fd5b7f4e487b7100000000000000000000000000000000000000000000000000000000600052602260045260246000fd5b7f4e487b7100000000000000000000000000000000000000000000000000000000600052603160045260246000fd5b7f4e487b7100000000000000000000000000000000000000000000000000000000600052603260045260246000fd5b7f4e487b7100000000000000000000000000000000000000000000000000000000600052604160045260246000fd5b600080fd5b600080fd5b600080fd5b600080fd5b600080fd5b6000601f19601f8301169050919050565b7f456e756d657261626c655365743a20696e646578206f7574206f6620626f756e60008201527f6473000000000000000000000000000000000000000000000000000000000000602082015250565b7f537472696e67733a20686578206c656e67746820696e73756666696369656e74600082015250565b7f45524332303a207472616e7366657220746f20746865207a65726f206164647260008201527f6573730000000000000000000000000000000000000000000000000000000000602082015250565b7f45524332303a206275726e20616d6f756e7420657863656564732062616c616e60008201527f6365000000000000000000000000000000000000000000000000000000000000602082015250565b7f45524332303a20617070726f766520746f20746865207a65726f20616464726560008201527f7373000000000000000000000000000000000000000000000000000000000000602082015250565b7f45524332303a207472616e7366657220616d6f756e742065786365656473206260008201527f616c616e63650000000000000000000000000000000000000000000000000000602082015250565b7f45524332303a207472616e7366657220616d6f756e742065786365656473206160008201527f6c6c6f77616e6365000000000000000000000000000000000000000000000000602082015250565b7f5a65726f2047726f7373204361706974616c2e00000000000000000000000000600082015250565b7f45524332303a206275726e2066726f6d20746865207a65726f2061646472657360008201527f7300000000000000000000000000000000000000000000000000000000000000602082015250565b7f45524332303a207472616e736665722066726f6d20746865207a65726f20616460008201527f6472657373000000000000000000000000000000000000000000000000000000602082015250565b7f4d617820636f6c6c61746572616c69736174696f6e2062726561636865642e00600082015250565b7f45524332303a20617070726f76652066726f6d20746865207a65726f2061646460008201527f7265737300000000000000000000000000000000000000000000000000000000602082015250565b7f416363657373436f6e74726f6c3a206163636f756e7420000000000000000000600082015250565b7f45524332303a2064656372656173656420616c6c6f77616e63652062656c6f7760008201527f207a65726f000000000000000000000000000000000000000000000000000000602082015250565b7f206973206d697373696e6720726f6c6520000000000000000000000000000000600082015250565b7f416363657373436f6e74726f6c3a2063616e206f6e6c792072656e6f756e636560008201527f20726f6c657320666f722073656c660000000000000000000000000000000000602082015250565b7f45524332303a206d696e7420746f20746865207a65726f206164647265737300600082015250565b6004811061565b5761565a6150da565b5b50565b6002811061566f5761566e6150da565b5b50565b61567b81614dff565b811461568657600080fd5b50565b61569281614e11565b811461569d57600080fd5b50565b6156a981614e1d565b81146156b457600080fd5b50565b6156c081614e27565b81146156cb57600080fd5b50565b600481106156db57600080fd5b50565b600281106156eb57600080fd5b50565b6156f781614e79565b811461570257600080fd5b50565b61570e81614ea3565b811461571957600080fd5b50565b61572581614eba565b811461573057600080fd5b5056fea26469706673582212208a5ebbdb7fbf623fc2df1be94ba123b5fe2f8184dfdb8ae2f50ee6b1f1c553b564736f6c63430008060033",
  "immutableReferences": {},
  "source": "/**\n * SPDX-License-Identifier: GPL-3.0-or-later\n * Moret\n * Copyright (C) 2021 Moret\n*/\n\npragma solidity ^0.8.4;\n\nimport \"@openzeppelin/contracts/token/ERC20/ERC20.sol\";\nimport \"@openzeppelin/contracts/access/AccessControl.sol\";\nimport \"@openzeppelin/contracts/utils/structs/EnumerableSet.sol\";\nimport '@uniswap/v2-periphery/contracts/interfaces/IUniswapV2Router02.sol';\nimport \"@chainlink/contracts/src/v0.8/interfaces/AggregatorV3Interface.sol\";\nimport \"./MoretInterfaces.sol\";\nimport \"./FullMath.sol\";\n\ncontract MarketMakerNative is ERC20, AccessControl, EOption\n{\n  using EnumerableSet for EnumerableSet.UintSet;\n  using EnumerableSet for EnumerableSet.AddressSet;\n\n  address payable contractAddress;\n  bytes32 public constant ADMIN_ROLE = keccak256(\"ADMIN_ROLE\");\n  uint256 private constant ethMultiplier = 10 ** 18;\n\n  mapping(address=> EnumerableSet.UintSet) internal activeOptionsPerOwner;\n  EnumerableSet.UintSet internal activeOptions;\n  EnumerableSet.AddressSet holderList;\n\n  IUniswapV2Router02 internal uniswapRouter;\n  AggregatorV3Interface internal priceInterface;\n  IOptionVault internal optionVault;\n\n  uint256 public lockedPremium = 0;\n  uint256 public callExposure = 0;\n  uint256 public putExposure = 0;\n  int256 public hedgePositionAmount = 0;\n\n  uint256 public priceMultiplier;\n  uint256 public priceDecimals;\n\n  OptionLibrary.Percent public maxCollateralisation = OptionLibrary.Percent(10 * 10 ** 5, 10 ** 6);\n  OptionLibrary.Percent public volPremiumMultiplier = OptionLibrary.Percent(10 ** 5 , 10 ** 6) ;\n  OptionLibrary.Percent public volPremiumPenalty = OptionLibrary.Percent(5 * 10 ** 5, 10 ** 6) ;\n  OptionLibrary.Percent public swapSlippageAllowance = OptionLibrary.Percent (2 * 10**4, 10**6);\n\n  /* address internal constant UNISWAP_ROUTER_ADDRESS = 0x1b02dA8Cb0d097eB8D57A175b88c7D8b47997506;\n  address internal constant PRICING_ADDRESS = 0xAB594600376Ec9fD91F8e885dADF0CE036862dE0;\n  address internal constant FUNDING_ADDRESS = 0x2791Bca1f2de4661ED88A30C99A7a9449Aa84174; */\n  address public WETH;\n  address public stableCoinAddress;\n\n  constructor(\n      string memory _name,\n      string memory _symbol,\n      address _wethAddress,\n      address _fundingAddress,\n      address _optionAddress,\n      address _swapRouterAddress,\n      address _priceSourceId\n      ) payable\n      ERC20(_name, _symbol)\n      {\n          _setupRole(DEFAULT_ADMIN_ROLE, msg.sender);\n          _setupRole(ADMIN_ROLE, msg.sender);\n\n          priceInterface = AggregatorV3Interface(_priceSourceId);\n          uniswapRouter = IUniswapV2Router02(_swapRouterAddress);\n          optionVault = IOptionVault(_optionAddress);\n\n          stableCoinAddress = _fundingAddress;\n          WETH = _wethAddress;//uniswapRouter.WETH();\n\n          contractAddress = payable(address(this));\n          priceDecimals = priceInterface.decimals();\n          priceMultiplier = 10 ** priceDecimals;\n\n          _mint(msg.sender, ethMultiplier);\n      }\n\n\n      function recordOptionPurhcase(address _purchaser, uint256 _id,\n        uint256 _newPremium, uint256 _newCallExposure, uint256 _newPutExposure)\n        external\n      {\n        if(!holderList.contains(_purchaser))\n        {\n            holderList.add(_purchaser);\n        }\n\n        activeOptionsPerOwner[_purchaser].add(_id);\n        activeOptions.add(_id);\n        lockedPremium += _newPremium;\n        callExposure += _newCallExposure;\n        putExposure += _newPutExposure;\n      }\n\n      function recordOptionRemoval(address _purchaser, uint256 _id,\n        uint256 _removePremium, uint256 _removeCallExposure, uint256 _removePutExposure)\n        external\n      {\n        activeOptionsPerOwner[_purchaser].remove(_id);\n        activeOptions.remove(_id);\n\n        lockedPremium -= _removePremium;\n        callExposure -= _removeCallExposure;\n        putExposure -= _removePutExposure;\n      }\n\n      function queryPrice() public view returns(uint256){\n        (,int _price,,,) = priceInterface.latestRoundData();\n       return uint256(_price);\n      }\n\n    function calcTotalDelta() public view returns(int256)\n    {\n      uint256 _totalContracts = activeOptions.length();\n      int256 _totalDelta= 0;\n\n      for(uint256 i=0;i<_totalContracts;i++)\n      {\n          uint256 _id = uint256(activeOptions.at(i));\n\n        _totalDelta += optionVault.calculateContractDelta(_id);\n      }\n      return _totalDelta;\n    }\n\n    function updateHedges(uint256 _deadline) external onlyRole(ADMIN_ROLE)\n    {\n        int256 _targetDelta = calcTotalDelta();\n        int256 _changesInDelta_m1_0 = 0;\n\n        if(_targetDelta<0){_changesInDelta_m1_0+= _targetDelta;}\n        if(hedgePositionAmount<0){_changesInDelta_m1_0-= hedgePositionAmount;}\n\n        int _swappedUnderlying = 0;\n\n        if(_changesInDelta_m1_0<0)\n        {\n            uint256 _newStable = uint256(-_changesInDelta_m1_0);\n            uint256[] memory _swappedAmounts = swapToStable(_newStable,  _deadline);\n            _swappedUnderlying -= int256(_swappedAmounts[0]);\n        }\n        if(_changesInDelta_m1_0>0)\n        {\n            uint256 _unwindStable = uint256(_changesInDelta_m1_0);\n            uint256[] memory _swappedAmounts = swapToUnderlying( _unwindStable,  _deadline);\n            _swappedUnderlying += int256(_swappedAmounts[1]);\n        }\n\n        hedgePositionAmount += _swappedUnderlying;\n    }\n\n    function swapToStable(uint256 _newStable, uint256 _deadline) public onlyRole(ADMIN_ROLE) returns(uint256[] memory _swappedAmounts)\n    {\n        uint256 _priceLimit = queryPrice() * (swapSlippageAllowance.denominator + swapSlippageAllowance.numerator)/ swapSlippageAllowance.denominator;\n        uint256 _amountInMaximum = (_newStable * priceMultiplier / _priceLimit );\n\n        address[] memory path = new address[](2);\n        path[0] = address(WETH);\n        path[1] = address(stableCoinAddress);\n\n        return uniswapRouter.swapETHForExactTokens{value: _amountInMaximum}(_newStable, path, contractAddress, _deadline);\n    }\n\n    function swapToUnderlying(uint256 _unwindStable, uint256 _deadline) public onlyRole(ADMIN_ROLE) returns(uint256[] memory _swappedAmounts)\n    {\n      uint256 _priceLimit = queryPrice() *(swapSlippageAllowance.denominator + swapSlippageAllowance.numerator)/ swapSlippageAllowance.denominator;\n      uint256 _amountOutMinimum = (_unwindStable * priceMultiplier / _priceLimit);\n\n      address[] memory path = new address[](2);\n      path[0] = address(stableCoinAddress);\n      path[1] = address(WETH);\n\n      return uniswapRouter.swapExactTokensForETH(_unwindStable, _amountOutMinimum, path, contractAddress, _deadline);\n    }\n\n    function quoteCapitalCost(uint256 _mpAmount) external view returns(uint256){\n        return MulDiv(_mpAmount, calcCapital(false, true), ethMultiplier);\n    }\n\n    function addCapital(uint256 _depositAmount) external payable{\n        uint256 _averageGrossCapital = calcCapital(false, true);\n        require(_averageGrossCapital>0, \"Zero Gross Capital.\");\n\n        uint256 _mintMPTokenAmount = MulDiv(_depositAmount, ethMultiplier, _averageGrossCapital);\n        require(msg.value>=_depositAmount);\n\n        _mint(msg.sender, _mintMPTokenAmount);\n        emit capitalAdded(msg.sender, _depositAmount, _mintMPTokenAmount);\n    }\n\n    function withdrawCapital(uint256 _burnMPTokenAmount) external {\n        uint256 _withdrawValue = MulDiv(calcCapital(true, true) ,  _burnMPTokenAmount , ethMultiplier);\n\n        _burn(msg.sender, _burnMPTokenAmount);\n        payable(msg.sender).transfer(_withdrawValue);\n\n        emit capitalWithdrawn(msg.sender, _burnMPTokenAmount, _withdrawValue);\n    }\n\n    function calcCapital(bool _net, bool _average) public view returns(uint256){\n        uint256 _price = queryPrice();\n        uint256 _capital = ERC20(stableCoinAddress).balanceOf(contractAddress) * priceMultiplier / _price;\n        _capital += contractAddress.balance ;\n\n        if(_net)\n        {\n          _capital -= (_capital <= (callExposure+ putExposure)? _capital: (callExposure+ putExposure));\n          _capital -= (_capital <= lockedPremium? _capital: lockedPremium)  ;\n        }\n\n        if(_average)\n        {\n          _capital = _capital * ethMultiplier / totalSupply();\n        }\n        return _capital;\n    }\n\n    function calcUtilityRatios(uint256 _amount, OptionLibrary.PayoffType  _poType) public view returns(uint256, uint256, uint256){\n        uint256 _grossCapital = calcCapital(false, false);\n        uint256 _existingExposure = callExposure>= putExposure? callExposure: putExposure;\n        uint256 _newExposure = _existingExposure;\n\n        if(_poType==OptionLibrary.PayoffType.Call){\n          _newExposure = (callExposure + _amount) >= putExposure? (callExposure + _amount): putExposure;\n        }\n        if(_poType==OptionLibrary.PayoffType.Put){\n          _newExposure = (callExposure) >= (putExposure + _amount)? (callExposure): (putExposure + _amount);\n        }\n\n        return ((_existingExposure * maxCollateralisation.denominator / _grossCapital ),\n          (_newExposure * maxCollateralisation.denominator/ _grossCapital ),\n          maxCollateralisation.denominator);\n    }\n\n    function calcUtilityAddon(uint256 _amount, OptionLibrary.PayoffType  _poType) external view returns(OptionLibrary.Percent memory){\n        (uint256 _utilityBefore, uint256 _utilityAfter, uint256 _denominator) = calcUtilityRatios(_amount, _poType);\n        require(_utilityBefore < maxCollateralisation.numerator, \"Max collateralisation breached.\");\n        require(_utilityAfter < maxCollateralisation.numerator, \"Max collateralisation breached.\");\n\n        uint256 _addonBefore = volPremiumMultiplier.numerator * _utilityBefore / volPremiumMultiplier.denominator;\n        if(_utilityBefore> _denominator)\n        {\n            _addonBefore += volPremiumPenalty.numerator *( _utilityBefore - _denominator)/ volPremiumPenalty.denominator;\n        }\n\n        uint256 _addonAfter = (volPremiumMultiplier.numerator * _utilityAfter/ volPremiumMultiplier.denominator);\n        if(_utilityAfter> _denominator)\n        {\n            _addonAfter += (volPremiumPenalty.numerator* ( _utilityAfter - _denominator) / volPremiumPenalty.denominator);\n        }\n\n        return OptionLibrary.Percent((_addonBefore + _addonAfter) / 2, _denominator);\n    }\n\n    function sweepBalance() external onlyRole(ADMIN_ROLE){\n        payable(msg.sender).transfer(contractAddress.balance);\n    }\n\n    function resetMaxCollateralisation(uint256 _multiplier, uint256 _denominator) external onlyRole(ADMIN_ROLE){\n        maxCollateralisation = OptionLibrary.Percent(_multiplier, _denominator);\n    }\n\n    function resetVolPremiumMultiplier(uint256 _multiplier, uint256 _denominator) external onlyRole(ADMIN_ROLE){\n        volPremiumMultiplier = OptionLibrary.Percent(_multiplier, _denominator);\n    }\n\n    function resetVolPremiumPenalty(uint256 _multiplier, uint256 _denominator) external onlyRole(ADMIN_ROLE){\n        volPremiumPenalty = OptionLibrary.Percent(_multiplier, _denominator);\n    }\n\n    function resetSwapSlippageAllowance(uint256 _multiplier, uint256 _denominator) external onlyRole(ADMIN_ROLE){\n        swapSlippageAllowance = OptionLibrary.Percent(_multiplier, _denominator);\n    }\n\n    /* function getHolderCount() external view returns(uint256){return holderList.length();}\n    function getHolderAddress(uint256 _index) external view returns(address) {return holderList.at(_index);} */\n    function getHoldersOptionCount(address _address) external view returns(uint256){return activeOptionsPerOwner[_address].length();}\n    function getHoldersOption(uint256 _index, address _address) external view returns(OptionLibrary.Option memory) {return optionVault.getOption(activeOptionsPerOwner[_address].at(_index));}\n    /* function getOptionPayoff(uint256 _id) external view returns(uint256){return optionVault.getOptionPayoffValue(_id);} */\n\n    receive() external payable{}\n\n}\n",
  "sourcePath": "/Users/mac/Documents/GitHub/moret/contracts/MarketMakerNative.sol",
  "compiler": {
    "name": "solc",
    "version": "0.8.6+commit.11564f7e.Emscripten.clang"
  },
  "schemaVersion": "3.4.1",
  "updatedAt": "2021-07-02T23:42:32.034Z",
  "devdoc": {
    "kind": "dev",
    "methods": {
      "allowance(address,address)": {
        "details": "See {IERC20-allowance}."
      },
      "approve(address,uint256)": {
        "details": "See {IERC20-approve}. Requirements: - `spender` cannot be the zero address."
      },
      "balanceOf(address)": {
        "details": "See {IERC20-balanceOf}."
      },
      "decimals()": {
        "details": "Returns the number of decimals used to get its user representation. For example, if `decimals` equals `2`, a balance of `505` tokens should be displayed to a user as `5,05` (`505 / 10 ** 2`). Tokens usually opt for a value of 18, imitating the relationship between Ether and Wei. This is the value {ERC20} uses, unless this function is overridden; NOTE: This information is only used for _display_ purposes: it in no way affects any of the arithmetic of the contract, including {IERC20-balanceOf} and {IERC20-transfer}."
      },
      "decreaseAllowance(address,uint256)": {
        "details": "Atomically decreases the allowance granted to `spender` by the caller. This is an alternative to {approve} that can be used as a mitigation for problems described in {IERC20-approve}. Emits an {Approval} event indicating the updated allowance. Requirements: - `spender` cannot be the zero address. - `spender` must have allowance for the caller of at least `subtractedValue`."
      },
      "getRoleAdmin(bytes32)": {
        "details": "Returns the admin role that controls `role`. See {grantRole} and {revokeRole}. To change a role's admin, use {_setRoleAdmin}."
      },
      "grantRole(bytes32,address)": {
        "details": "Grants `role` to `account`. If `account` had not been already granted `role`, emits a {RoleGranted} event. Requirements: - the caller must have ``role``'s admin role."
      },
      "hasRole(bytes32,address)": {
        "details": "Returns `true` if `account` has been granted `role`."
      },
      "increaseAllowance(address,uint256)": {
        "details": "Atomically increases the allowance granted to `spender` by the caller. This is an alternative to {approve} that can be used as a mitigation for problems described in {IERC20-approve}. Emits an {Approval} event indicating the updated allowance. Requirements: - `spender` cannot be the zero address."
      },
      "name()": {
        "details": "Returns the name of the token."
      },
      "renounceRole(bytes32,address)": {
        "details": "Revokes `role` from the calling account. Roles are often managed via {grantRole} and {revokeRole}: this function's purpose is to provide a mechanism for accounts to lose their privileges if they are compromised (such as when a trusted device is misplaced). If the calling account had been granted `role`, emits a {RoleRevoked} event. Requirements: - the caller must be `account`."
      },
      "revokeRole(bytes32,address)": {
        "details": "Revokes `role` from `account`. If `account` had been granted `role`, emits a {RoleRevoked} event. Requirements: - the caller must have ``role``'s admin role."
      },
      "supportsInterface(bytes4)": {
        "details": "See {IERC165-supportsInterface}."
      },
      "symbol()": {
        "details": "Returns the symbol of the token, usually a shorter version of the name."
      },
      "totalSupply()": {
        "details": "See {IERC20-totalSupply}."
      },
      "transfer(address,uint256)": {
        "details": "See {IERC20-transfer}. Requirements: - `recipient` cannot be the zero address. - the caller must have a balance of at least `amount`."
      },
      "transferFrom(address,address,uint256)": {
        "details": "See {IERC20-transferFrom}. Emits an {Approval} event indicating the updated allowance. This is not required by the EIP. See the note at the beginning of {ERC20}. Requirements: - `sender` and `recipient` cannot be the zero address. - `sender` must have a balance of at least `amount`. - the caller must have allowance for ``sender``'s tokens of at least `amount`."
      }
    },
    "version": 1
  },
  "userdoc": {
    "kind": "user",
    "methods": {},
    "version": 1
  }
}