{
  "contractName": "MarketMakerNative",
  "abi": [
    {
      "inputs": [
        {
          "internalType": "string",
          "name": "_name",
          "type": "string"
        },
        {
          "internalType": "string",
          "name": "_symbol",
          "type": "string"
        },
        {
          "internalType": "address",
          "name": "_wethAddress",
          "type": "address"
        },
        {
          "internalType": "address",
          "name": "_fundingAddress",
          "type": "address"
        },
        {
          "internalType": "address",
          "name": "_optionAddress",
          "type": "address"
        },
        {
          "internalType": "address",
          "name": "_swapRouterAddress",
          "type": "address"
        }
      ],
      "stateMutability": "payable",
      "type": "constructor"
    },
    {
      "anonymous": false,
      "inputs": [
        {
          "indexed": true,
          "internalType": "address",
          "name": "owner",
          "type": "address"
        },
        {
          "indexed": true,
          "internalType": "address",
          "name": "spender",
          "type": "address"
        },
        {
          "indexed": false,
          "internalType": "uint256",
          "name": "value",
          "type": "uint256"
        }
      ],
      "name": "Approval",
      "type": "event"
    },
    {
      "anonymous": false,
      "inputs": [
        {
          "indexed": true,
          "internalType": "bytes32",
          "name": "role",
          "type": "bytes32"
        },
        {
          "indexed": true,
          "internalType": "bytes32",
          "name": "previousAdminRole",
          "type": "bytes32"
        },
        {
          "indexed": true,
          "internalType": "bytes32",
          "name": "newAdminRole",
          "type": "bytes32"
        }
      ],
      "name": "RoleAdminChanged",
      "type": "event"
    },
    {
      "anonymous": false,
      "inputs": [
        {
          "indexed": true,
          "internalType": "bytes32",
          "name": "role",
          "type": "bytes32"
        },
        {
          "indexed": true,
          "internalType": "address",
          "name": "account",
          "type": "address"
        },
        {
          "indexed": true,
          "internalType": "address",
          "name": "sender",
          "type": "address"
        }
      ],
      "name": "RoleGranted",
      "type": "event"
    },
    {
      "anonymous": false,
      "inputs": [
        {
          "indexed": true,
          "internalType": "bytes32",
          "name": "role",
          "type": "bytes32"
        },
        {
          "indexed": true,
          "internalType": "address",
          "name": "account",
          "type": "address"
        },
        {
          "indexed": true,
          "internalType": "address",
          "name": "sender",
          "type": "address"
        }
      ],
      "name": "RoleRevoked",
      "type": "event"
    },
    {
      "anonymous": false,
      "inputs": [
        {
          "indexed": true,
          "internalType": "address",
          "name": "from",
          "type": "address"
        },
        {
          "indexed": true,
          "internalType": "address",
          "name": "to",
          "type": "address"
        },
        {
          "indexed": false,
          "internalType": "uint256",
          "name": "value",
          "type": "uint256"
        }
      ],
      "name": "Transfer",
      "type": "event"
    },
    {
      "anonymous": false,
      "inputs": [
        {
          "indexed": false,
          "internalType": "address",
          "name": "_recipient",
          "type": "address"
        },
        {
          "indexed": false,
          "internalType": "uint256",
          "name": "_mintMPTokenAmount",
          "type": "uint256"
        },
        {
          "indexed": false,
          "internalType": "uint256",
          "name": "_addedValue",
          "type": "uint256"
        }
      ],
      "name": "capitalAdded",
      "type": "event"
    },
    {
      "anonymous": false,
      "inputs": [
        {
          "indexed": false,
          "internalType": "address",
          "name": "_recipient",
          "type": "address"
        },
        {
          "indexed": false,
          "internalType": "uint256",
          "name": "_burnMPTokenAmount",
          "type": "uint256"
        },
        {
          "indexed": false,
          "internalType": "uint256",
          "name": "_withdrawValue",
          "type": "uint256"
        }
      ],
      "name": "capitalWithdrawn",
      "type": "event"
    },
    {
      "anonymous": false,
      "inputs": [
        {
          "indexed": true,
          "internalType": "address",
          "name": "_purchaser",
          "type": "address"
        },
        {
          "components": [
            {
              "internalType": "enum OptionLibrary.PayoffType",
              "name": "poType",
              "type": "uint8"
            },
            {
              "internalType": "enum OptionLibrary.OptionSide",
              "name": "side",
              "type": "uint8"
            },
            {
              "internalType": "enum OptionLibrary.OptionStatus",
              "name": "status",
              "type": "uint8"
            },
            {
              "internalType": "address",
              "name": "holder",
              "type": "address"
            },
            {
              "internalType": "uint256",
              "name": "id",
              "type": "uint256"
            },
            {
              "internalType": "uint256",
              "name": "createTime",
              "type": "uint256"
            },
            {
              "internalType": "uint256",
              "name": "effectiveTime",
              "type": "uint256"
            },
            {
              "internalType": "uint256",
              "name": "tenor",
              "type": "uint256"
            },
            {
              "internalType": "uint256",
              "name": "exerciseTime",
              "type": "uint256"
            },
            {
              "internalType": "uint256",
              "name": "amount",
              "type": "uint256"
            },
            {
              "internalType": "uint256",
              "name": "spot",
              "type": "uint256"
            },
            {
              "internalType": "uint256",
              "name": "strike",
              "type": "uint256"
            },
            {
              "internalType": "uint256",
              "name": "volatility",
              "type": "uint256"
            },
            {
              "internalType": "uint256",
              "name": "premium",
              "type": "uint256"
            },
            {
              "internalType": "uint256",
              "name": "fee",
              "type": "uint256"
            }
          ],
          "indexed": false,
          "internalType": "struct OptionLibrary.Option",
          "name": "_option",
          "type": "tuple"
        },
        {
          "indexed": false,
          "internalType": "uint256",
          "name": "_cost",
          "type": "uint256"
        },
        {
          "indexed": false,
          "internalType": "bool",
          "name": "_inVol",
          "type": "bool"
        }
      ],
      "name": "newOptionBought",
      "type": "event"
    },
    {
      "anonymous": false,
      "inputs": [
        {
          "indexed": false,
          "internalType": "address",
          "name": "_purchaser",
          "type": "address"
        },
        {
          "indexed": false,
          "internalType": "uint256",
          "name": "_time",
          "type": "uint256"
        },
        {
          "indexed": false,
          "internalType": "uint256",
          "name": "_tenor",
          "type": "uint256"
        },
        {
          "indexed": false,
          "internalType": "uint256",
          "name": "_amount",
          "type": "uint256"
        }
      ],
      "name": "newVolatilityTokenBought",
      "type": "event"
    },
    {
      "anonymous": false,
      "inputs": [
        {
          "indexed": true,
          "internalType": "address",
          "name": "_purchaser",
          "type": "address"
        },
        {
          "components": [
            {
              "internalType": "enum OptionLibrary.PayoffType",
              "name": "poType",
              "type": "uint8"
            },
            {
              "internalType": "enum OptionLibrary.OptionSide",
              "name": "side",
              "type": "uint8"
            },
            {
              "internalType": "enum OptionLibrary.OptionStatus",
              "name": "status",
              "type": "uint8"
            },
            {
              "internalType": "address",
              "name": "holder",
              "type": "address"
            },
            {
              "internalType": "uint256",
              "name": "id",
              "type": "uint256"
            },
            {
              "internalType": "uint256",
              "name": "createTime",
              "type": "uint256"
            },
            {
              "internalType": "uint256",
              "name": "effectiveTime",
              "type": "uint256"
            },
            {
              "internalType": "uint256",
              "name": "tenor",
              "type": "uint256"
            },
            {
              "internalType": "uint256",
              "name": "exerciseTime",
              "type": "uint256"
            },
            {
              "internalType": "uint256",
              "name": "amount",
              "type": "uint256"
            },
            {
              "internalType": "uint256",
              "name": "spot",
              "type": "uint256"
            },
            {
              "internalType": "uint256",
              "name": "strike",
              "type": "uint256"
            },
            {
              "internalType": "uint256",
              "name": "volatility",
              "type": "uint256"
            },
            {
              "internalType": "uint256",
              "name": "premium",
              "type": "uint256"
            },
            {
              "internalType": "uint256",
              "name": "fee",
              "type": "uint256"
            }
          ],
          "indexed": false,
          "internalType": "struct OptionLibrary.Option",
          "name": "_option",
          "type": "tuple"
        },
        {
          "indexed": false,
          "internalType": "uint256",
          "name": "_payoff",
          "type": "uint256"
        }
      ],
      "name": "optionExercised",
      "type": "event"
    },
    {
      "inputs": [],
      "name": "ADMIN_ROLE",
      "outputs": [
        {
          "internalType": "bytes32",
          "name": "",
          "type": "bytes32"
        }
      ],
      "stateMutability": "view",
      "type": "function"
    },
    {
      "inputs": [],
      "name": "DEFAULT_ADMIN_ROLE",
      "outputs": [
        {
          "internalType": "bytes32",
          "name": "",
          "type": "bytes32"
        }
      ],
      "stateMutability": "view",
      "type": "function"
    },
    {
      "inputs": [],
      "name": "WETH",
      "outputs": [
        {
          "internalType": "address",
          "name": "",
          "type": "address"
        }
      ],
      "stateMutability": "view",
      "type": "function"
    },
    {
      "inputs": [
        {
          "internalType": "address",
          "name": "owner",
          "type": "address"
        },
        {
          "internalType": "address",
          "name": "spender",
          "type": "address"
        }
      ],
      "name": "allowance",
      "outputs": [
        {
          "internalType": "uint256",
          "name": "",
          "type": "uint256"
        }
      ],
      "stateMutability": "view",
      "type": "function"
    },
    {
      "inputs": [
        {
          "internalType": "address",
          "name": "spender",
          "type": "address"
        },
        {
          "internalType": "uint256",
          "name": "amount",
          "type": "uint256"
        }
      ],
      "name": "approve",
      "outputs": [
        {
          "internalType": "bool",
          "name": "",
          "type": "bool"
        }
      ],
      "stateMutability": "nonpayable",
      "type": "function"
    },
    {
      "inputs": [
        {
          "internalType": "address",
          "name": "account",
          "type": "address"
        }
      ],
      "name": "balanceOf",
      "outputs": [
        {
          "internalType": "uint256",
          "name": "",
          "type": "uint256"
        }
      ],
      "stateMutability": "view",
      "type": "function"
    },
    {
      "inputs": [],
      "name": "callExposure",
      "outputs": [
        {
          "internalType": "uint256",
          "name": "",
          "type": "uint256"
        }
      ],
      "stateMutability": "view",
      "type": "function"
    },
    {
      "inputs": [],
      "name": "decimals",
      "outputs": [
        {
          "internalType": "uint8",
          "name": "",
          "type": "uint8"
        }
      ],
      "stateMutability": "view",
      "type": "function"
    },
    {
      "inputs": [
        {
          "internalType": "address",
          "name": "spender",
          "type": "address"
        },
        {
          "internalType": "uint256",
          "name": "subtractedValue",
          "type": "uint256"
        }
      ],
      "name": "decreaseAllowance",
      "outputs": [
        {
          "internalType": "bool",
          "name": "",
          "type": "bool"
        }
      ],
      "stateMutability": "nonpayable",
      "type": "function"
    },
    {
      "inputs": [
        {
          "internalType": "bytes32",
          "name": "role",
          "type": "bytes32"
        }
      ],
      "name": "getRoleAdmin",
      "outputs": [
        {
          "internalType": "bytes32",
          "name": "",
          "type": "bytes32"
        }
      ],
      "stateMutability": "view",
      "type": "function"
    },
    {
      "inputs": [
        {
          "internalType": "bytes32",
          "name": "role",
          "type": "bytes32"
        },
        {
          "internalType": "address",
          "name": "account",
          "type": "address"
        }
      ],
      "name": "grantRole",
      "outputs": [],
      "stateMutability": "nonpayable",
      "type": "function"
    },
    {
      "inputs": [
        {
          "internalType": "bytes32",
          "name": "role",
          "type": "bytes32"
        },
        {
          "internalType": "address",
          "name": "account",
          "type": "address"
        }
      ],
      "name": "hasRole",
      "outputs": [
        {
          "internalType": "bool",
          "name": "",
          "type": "bool"
        }
      ],
      "stateMutability": "view",
      "type": "function"
    },
    {
      "inputs": [],
      "name": "hedgePositionAmount",
      "outputs": [
        {
          "internalType": "int256",
          "name": "",
          "type": "int256"
        }
      ],
      "stateMutability": "view",
      "type": "function"
    },
    {
      "inputs": [
        {
          "internalType": "address",
          "name": "spender",
          "type": "address"
        },
        {
          "internalType": "uint256",
          "name": "addedValue",
          "type": "uint256"
        }
      ],
      "name": "increaseAllowance",
      "outputs": [
        {
          "internalType": "bool",
          "name": "",
          "type": "bool"
        }
      ],
      "stateMutability": "nonpayable",
      "type": "function"
    },
    {
      "inputs": [],
      "name": "lockedPremium",
      "outputs": [
        {
          "internalType": "uint256",
          "name": "",
          "type": "uint256"
        }
      ],
      "stateMutability": "view",
      "type": "function"
    },
    {
      "inputs": [],
      "name": "name",
      "outputs": [
        {
          "internalType": "string",
          "name": "",
          "type": "string"
        }
      ],
      "stateMutability": "view",
      "type": "function"
    },
    {
      "inputs": [],
      "name": "putExposure",
      "outputs": [
        {
          "internalType": "uint256",
          "name": "",
          "type": "uint256"
        }
      ],
      "stateMutability": "view",
      "type": "function"
    },
    {
      "inputs": [
        {
          "internalType": "bytes32",
          "name": "role",
          "type": "bytes32"
        },
        {
          "internalType": "address",
          "name": "account",
          "type": "address"
        }
      ],
      "name": "renounceRole",
      "outputs": [],
      "stateMutability": "nonpayable",
      "type": "function"
    },
    {
      "inputs": [
        {
          "internalType": "bytes32",
          "name": "role",
          "type": "bytes32"
        },
        {
          "internalType": "address",
          "name": "account",
          "type": "address"
        }
      ],
      "name": "revokeRole",
      "outputs": [],
      "stateMutability": "nonpayable",
      "type": "function"
    },
    {
      "inputs": [],
      "name": "stableCoinAddress",
      "outputs": [
        {
          "internalType": "address",
          "name": "",
          "type": "address"
        }
      ],
      "stateMutability": "view",
      "type": "function"
    },
    {
      "inputs": [
        {
          "internalType": "bytes4",
          "name": "interfaceId",
          "type": "bytes4"
        }
      ],
      "name": "supportsInterface",
      "outputs": [
        {
          "internalType": "bool",
          "name": "",
          "type": "bool"
        }
      ],
      "stateMutability": "view",
      "type": "function"
    },
    {
      "inputs": [],
      "name": "swapSlippageAllowance",
      "outputs": [
        {
          "internalType": "uint256",
          "name": "numerator",
          "type": "uint256"
        },
        {
          "internalType": "uint256",
          "name": "denominator",
          "type": "uint256"
        }
      ],
      "stateMutability": "view",
      "type": "function"
    },
    {
      "inputs": [],
      "name": "symbol",
      "outputs": [
        {
          "internalType": "string",
          "name": "",
          "type": "string"
        }
      ],
      "stateMutability": "view",
      "type": "function"
    },
    {
      "inputs": [],
      "name": "totalSupply",
      "outputs": [
        {
          "internalType": "uint256",
          "name": "",
          "type": "uint256"
        }
      ],
      "stateMutability": "view",
      "type": "function"
    },
    {
      "inputs": [
        {
          "internalType": "address",
          "name": "recipient",
          "type": "address"
        },
        {
          "internalType": "uint256",
          "name": "amount",
          "type": "uint256"
        }
      ],
      "name": "transfer",
      "outputs": [
        {
          "internalType": "bool",
          "name": "",
          "type": "bool"
        }
      ],
      "stateMutability": "nonpayable",
      "type": "function"
    },
    {
      "inputs": [
        {
          "internalType": "address",
          "name": "sender",
          "type": "address"
        },
        {
          "internalType": "address",
          "name": "recipient",
          "type": "address"
        },
        {
          "internalType": "uint256",
          "name": "amount",
          "type": "uint256"
        }
      ],
      "name": "transferFrom",
      "outputs": [
        {
          "internalType": "bool",
          "name": "",
          "type": "bool"
        }
      ],
      "stateMutability": "nonpayable",
      "type": "function"
    },
    {
      "stateMutability": "payable",
      "type": "receive"
    },
    {
      "inputs": [
        {
          "internalType": "address",
          "name": "_purchaser",
          "type": "address"
        },
        {
          "internalType": "uint256",
          "name": "_id",
          "type": "uint256"
        },
        {
          "internalType": "uint256",
          "name": "_newPremium",
          "type": "uint256"
        },
        {
          "internalType": "uint256",
          "name": "_newCallExposure",
          "type": "uint256"
        },
        {
          "internalType": "uint256",
          "name": "_newPutExposure",
          "type": "uint256"
        }
      ],
      "name": "recordOptionPurhcase",
      "outputs": [],
      "stateMutability": "nonpayable",
      "type": "function"
    },
    {
      "inputs": [
        {
          "internalType": "address",
          "name": "_purchaser",
          "type": "address"
        },
        {
          "internalType": "uint256",
          "name": "_id",
          "type": "uint256"
        },
        {
          "internalType": "uint256",
          "name": "_removePremium",
          "type": "uint256"
        },
        {
          "internalType": "uint256",
          "name": "_removeCallExposure",
          "type": "uint256"
        },
        {
          "internalType": "uint256",
          "name": "_removePutExposure",
          "type": "uint256"
        }
      ],
      "name": "recordOptionRemoval",
      "outputs": [],
      "stateMutability": "nonpayable",
      "type": "function"
    },
    {
      "inputs": [],
      "name": "calcTotalDelta",
      "outputs": [
        {
          "internalType": "int256",
          "name": "",
          "type": "int256"
        }
      ],
      "stateMutability": "view",
      "type": "function"
    },
    {
      "inputs": [
        {
          "internalType": "uint256",
          "name": "_deadline",
          "type": "uint256"
        }
      ],
      "name": "updateHedges",
      "outputs": [],
      "stateMutability": "nonpayable",
      "type": "function"
    },
    {
      "inputs": [
        {
          "internalType": "uint256",
          "name": "_newStable",
          "type": "uint256"
        },
        {
          "internalType": "uint256",
          "name": "_deadline",
          "type": "uint256"
        }
      ],
      "name": "swapToStable",
      "outputs": [
        {
          "internalType": "uint256[]",
          "name": "_swappedAmounts",
          "type": "uint256[]"
        }
      ],
      "stateMutability": "nonpayable",
      "type": "function"
    },
    {
      "inputs": [
        {
          "internalType": "uint256",
          "name": "_unwindStable",
          "type": "uint256"
        },
        {
          "internalType": "uint256",
          "name": "_deadline",
          "type": "uint256"
        }
      ],
      "name": "swapToUnderlying",
      "outputs": [
        {
          "internalType": "uint256[]",
          "name": "_swappedAmounts",
          "type": "uint256[]"
        }
      ],
      "stateMutability": "nonpayable",
      "type": "function"
    },
    {
      "inputs": [
        {
          "internalType": "uint256",
          "name": "_mpAmount",
          "type": "uint256"
        }
      ],
      "name": "quoteCapitalCost",
      "outputs": [
        {
          "internalType": "uint256",
          "name": "",
          "type": "uint256"
        }
      ],
      "stateMutability": "view",
      "type": "function"
    },
    {
      "inputs": [
        {
          "internalType": "uint256",
          "name": "_depositAmount",
          "type": "uint256"
        }
      ],
      "name": "addCapital",
      "outputs": [],
      "stateMutability": "payable",
      "type": "function"
    },
    {
      "inputs": [
        {
          "internalType": "uint256",
          "name": "_burnMPTokenAmount",
          "type": "uint256"
        }
      ],
      "name": "withdrawCapital",
      "outputs": [],
      "stateMutability": "nonpayable",
      "type": "function"
    },
    {
      "inputs": [
        {
          "internalType": "bool",
          "name": "_net",
          "type": "bool"
        },
        {
          "internalType": "bool",
          "name": "_average",
          "type": "bool"
        }
      ],
      "name": "calcCapital",
      "outputs": [
        {
          "internalType": "uint256",
          "name": "",
          "type": "uint256"
        }
      ],
      "stateMutability": "view",
      "type": "function"
    },
    {
      "inputs": [
        {
          "internalType": "uint256",
          "name": "_amount",
          "type": "uint256"
        },
        {
          "internalType": "enum OptionLibrary.PayoffType",
          "name": "_poType",
          "type": "uint8"
        },
        {
          "internalType": "enum OptionLibrary.OptionSide",
          "name": "_side",
          "type": "uint8"
        }
      ],
      "name": "calcUtilisation",
      "outputs": [
        {
          "internalType": "uint256",
          "name": "",
          "type": "uint256"
        },
        {
          "internalType": "uint256",
          "name": "",
          "type": "uint256"
        }
      ],
      "stateMutability": "view",
      "type": "function"
    },
    {
      "inputs": [],
      "name": "sweepBalance",
      "outputs": [],
      "stateMutability": "nonpayable",
      "type": "function"
    },
    {
      "inputs": [
        {
          "internalType": "uint256",
          "name": "_multiplier",
          "type": "uint256"
        },
        {
          "internalType": "uint256",
          "name": "_denominator",
          "type": "uint256"
        }
      ],
      "name": "resetSwapSlippageAllowance",
      "outputs": [],
      "stateMutability": "nonpayable",
      "type": "function"
    },
    {
      "inputs": [
        {
          "internalType": "address",
          "name": "_address",
          "type": "address"
        }
      ],
      "name": "getHoldersOptionCount",
      "outputs": [
        {
          "internalType": "uint256",
          "name": "",
          "type": "uint256"
        }
      ],
      "stateMutability": "view",
      "type": "function"
    },
    {
      "inputs": [
        {
          "internalType": "uint256",
          "name": "_index",
          "type": "uint256"
        },
        {
          "internalType": "address",
          "name": "_address",
          "type": "address"
        }
      ],
      "name": "getHoldersOption",
      "outputs": [
        {
          "components": [
            {
              "internalType": "enum OptionLibrary.PayoffType",
              "name": "poType",
              "type": "uint8"
            },
            {
              "internalType": "enum OptionLibrary.OptionSide",
              "name": "side",
              "type": "uint8"
            },
            {
              "internalType": "enum OptionLibrary.OptionStatus",
              "name": "status",
              "type": "uint8"
            },
            {
              "internalType": "address",
              "name": "holder",
              "type": "address"
            },
            {
              "internalType": "uint256",
              "name": "id",
              "type": "uint256"
            },
            {
              "internalType": "uint256",
              "name": "createTime",
              "type": "uint256"
            },
            {
              "internalType": "uint256",
              "name": "effectiveTime",
              "type": "uint256"
            },
            {
              "internalType": "uint256",
              "name": "tenor",
              "type": "uint256"
            },
            {
              "internalType": "uint256",
              "name": "exerciseTime",
              "type": "uint256"
            },
            {
              "internalType": "uint256",
              "name": "amount",
              "type": "uint256"
            },
            {
              "internalType": "uint256",
              "name": "spot",
              "type": "uint256"
            },
            {
              "internalType": "uint256",
              "name": "strike",
              "type": "uint256"
            },
            {
              "internalType": "uint256",
              "name": "volatility",
              "type": "uint256"
            },
            {
              "internalType": "uint256",
              "name": "premium",
              "type": "uint256"
            },
            {
              "internalType": "uint256",
              "name": "fee",
              "type": "uint256"
            }
          ],
          "internalType": "struct OptionLibrary.Option",
          "name": "",
          "type": "tuple"
        }
      ],
      "stateMutability": "view",
      "type": "function"
    },
    {
      "inputs": [],
      "name": "priceDecimals",
      "outputs": [
        {
          "internalType": "uint256",
          "name": "",
          "type": "uint256"
        }
      ],
      "stateMutability": "view",
      "type": "function"
    }
  ],
  "bytecode": "0x60806040526000600d556000600e556000600f5560006010556040518060400160405280614e208152602001620f424081525060116000820151816000015560208201518160010155505060405162005f2538038062005f2583398181016040528101906200006f919062000640565b8585816003908051906020019062000089929190620004fb565b508060049080519060200190620000a2929190620004fb565b505050620000ba6000801b336200021660201b60201c565b620000ec7fa49807205ce4d355092ef5a8a18f56e8913cf4a201fbe287825b095693c21775336200021660201b60201c565b80600b60006101000a81548173ffffffffffffffffffffffffffffffffffffffff021916908373ffffffffffffffffffffffffffffffffffffffff16021790555081600c60006101000a81548173ffffffffffffffffffffffffffffffffffffffff021916908373ffffffffffffffffffffffffffffffffffffffff16021790555082601460006101000a81548173ffffffffffffffffffffffffffffffffffffffff021916908373ffffffffffffffffffffffffffffffffffffffff16021790555083601360006101000a81548173ffffffffffffffffffffffffffffffffffffffff021916908373ffffffffffffffffffffffffffffffffffffffff1602179055506200020a33670de0b6b3a76400006200022c60201b60201c565b50505050505062000a33565b6200022882826200039160201b60201c565b5050565b600073ffffffffffffffffffffffffffffffffffffffff168273ffffffffffffffffffffffffffffffffffffffff1614156200029f576040517f08c379a0000000000000000000000000000000000000000000000000000000008152600401620002969062000752565b60405180910390fd5b620002b3600083836200048360201b60201c565b8060026000828254620002c7919062000801565b92505081905550806000808473ffffffffffffffffffffffffffffffffffffffff1673ffffffffffffffffffffffffffffffffffffffff16815260200190815260200160002060008282546200031e919062000801565b925050819055508173ffffffffffffffffffffffffffffffffffffffff16600073ffffffffffffffffffffffffffffffffffffffff167fddf252ad1be2c89b69c2b068fc378daa952ba7f163c4a11628f55a4df523b3ef8360405162000385919062000774565b60405180910390a35050565b620003a382826200048860201b60201c565b6200047f5760016005600084815260200190815260200160002060000160008373ffffffffffffffffffffffffffffffffffffffff1673ffffffffffffffffffffffffffffffffffffffff16815260200190815260200160002060006101000a81548160ff02191690831515021790555062000424620004f360201b60201c565b73ffffffffffffffffffffffffffffffffffffffff168173ffffffffffffffffffffffffffffffffffffffff16837f2f8788117e7eff1d82e926ec794901d17c78024a50270940304540a733656f0d60405160405180910390a45b5050565b505050565b60006005600084815260200190815260200160002060000160008373ffffffffffffffffffffffffffffffffffffffff1673ffffffffffffffffffffffffffffffffffffffff16815260200190815260200160002060009054906101000a900460ff16905092915050565b600033905090565b8280546200050990620008d2565b90600052602060002090601f0160209004810192826200052d576000855562000579565b82601f106200054857805160ff191683800117855562000579565b8280016001018555821562000579579182015b82811115620005785782518255916020019190600101906200055b565b5b5090506200058891906200058c565b5090565b5b80821115620005a75760008160009055506001016200058d565b5090565b6000620005c2620005bc84620007ba565b62000791565b905082815260208101848484011115620005e157620005e0620009d0565b5b620005ee8482856200089c565b509392505050565b600081519050620006078162000a19565b92915050565b600082601f830112620006255762000624620009cb565b5b815162000637848260208601620005ab565b91505092915050565b60008060008060008060c0878903121562000660576200065f620009da565b5b600087015167ffffffffffffffff811115620006815762000680620009d5565b5b6200068f89828a016200060d565b965050602087015167ffffffffffffffff811115620006b357620006b2620009d5565b5b620006c189828a016200060d565b9550506040620006d489828a01620005f6565b9450506060620006e789828a01620005f6565b9350506080620006fa89828a01620005f6565b92505060a06200070d89828a01620005f6565b9150509295509295509295565b600062000729601f83620007f0565b91506200073682620009f0565b602082019050919050565b6200074c8162000892565b82525050565b600060208201905081810360008301526200076d816200071a565b9050919050565b60006020820190506200078b600083018462000741565b92915050565b60006200079d620007b0565b9050620007ab828262000908565b919050565b6000604051905090565b600067ffffffffffffffff821115620007d857620007d76200099c565b5b620007e382620009df565b9050602081019050919050565b600082825260208201905092915050565b60006200080e8262000892565b91506200081b8362000892565b9250827fffffffffffffffffffffffffffffffffffffffffffffffffffffffffffffffff038211156200085357620008526200093e565b5b828201905092915050565b60006200086b8262000872565b9050919050565b600073ffffffffffffffffffffffffffffffffffffffff82169050919050565b6000819050919050565b60005b83811015620008bc5780820151818401526020810190506200089f565b83811115620008cc576000848401525b50505050565b60006002820490506001821680620008eb57607f821691505b602082108114156200090257620009016200096d565b5b50919050565b6200091382620009df565b810181811067ffffffffffffffff821117156200093557620009346200099c565b5b80604052505050565b7f4e487b7100000000000000000000000000000000000000000000000000000000600052601160045260246000fd5b7f4e487b7100000000000000000000000000000000000000000000000000000000600052602260045260246000fd5b7f4e487b7100000000000000000000000000000000000000000000000000000000600052604160045260246000fd5b600080fd5b600080fd5b600080fd5b600080fd5b6000601f19601f8301169050919050565b7f45524332303a206d696e7420746f20746865207a65726f206164647265737300600082015250565b62000a24816200085e565b811462000a3057600080fd5b50565b6154e28062000a436000396000f3fe6080604052600436106102555760003560e01c806391d1485411610139578063bea10f96116100b6578063d5093b0b1161007a578063d5093b0b14610962578063d547741f1461098b578063d95b0a12146109b4578063dc723c6e146109dd578063dd62ed3e14610a08578063f8daf7d814610a455761025c565b8063bea10f96146108a0578063c3513f6d146108bc578063cbe42a18146108d3578063cc8156ce146108fc578063d4427b91146109255761025c565b8063a457c2d7116100fd578063a457c2d714610780578063a9059cbb146107bd578063ad5c4648146107fa578063ad76003214610825578063bd069b41146108625761025c565b806391d148541461068557806395d89b41146106c2578063982aae46146106ed578063a217fddf14610718578063a42b6626146107435761025c565b806336568abe116101d25780636344790211610196578063634479021461053b57806370a082311461057857806375b238fc146105b5578063797be55e146105e05780638a0687d21461060b5780638e16a8a6146106485761025c565b806336568abe1461045557806336da48871461047e57806339509351146104a957806343138690146104e65780634d3e88631461050f5761025c565b80631dca1553116102195780631dca15531461035c57806323b872dd14610387578063248a9ca3146103c45780632f2ff15d14610401578063313ce5671461042a5761025c565b806301ffc9a71461026157806305300b281461029e57806306fdde03146102c9578063095ea7b3146102f457806318160ddd146103315761025c565b3661025c57005b600080fd5b34801561026d57600080fd5b5061028860048036038101906102839190613cdd565b610a70565b604051610295919061450a565b60405180910390f35b3480156102aa57600080fd5b506102b3610aea565b6040516102c09190614759565b60405180910390f35b3480156102d557600080fd5b506102de610b91565b6040516102eb919061455b565b60405180910390f35b34801561030057600080fd5b5061031b60048036038101906103169190613b2c565b610c23565b604051610328919061450a565b60405180910390f35b34801561033d57600080fd5b50610346610c41565b6040516103539190614759565b60405180910390f35b34801561036857600080fd5b50610371610c4b565b60405161037e9190614540565b60405180910390f35b34801561039357600080fd5b506103ae60048036038101906103a99190613ad9565b610c51565b6040516103bb919061450a565b60405180910390f35b3480156103d057600080fd5b506103eb60048036038101906103e69190613c70565b610d52565b6040516103f89190614525565b60405180910390f35b34801561040d57600080fd5b5061042860048036038101906104239190613c9d565b610d72565b005b34801561043657600080fd5b5061043f610d9b565b60405161044c9190614843565b60405180910390f35b34801561046157600080fd5b5061047c60048036038101906104779190613c9d565b610da4565b005b34801561048a57600080fd5b50610493610e27565b6040516104a09190614759565b60405180910390f35b3480156104b557600080fd5b506104d060048036038101906104cb9190613b2c565b610e2d565b6040516104dd919061450a565b60405180910390f35b3480156104f257600080fd5b5061050d60048036038101906105089190613d65565b610ed9565b005b34801561051b57600080fd5b50610524611006565b6040516105329291906147c0565b60405180910390f35b34801561054757600080fd5b50610562600480360381019061055d9190613c30565b611018565b60405161056f9190614759565b60405180910390f35b34801561058457600080fd5b5061059f600480360381019061059a9190613a6c565b6112e3565b6040516105ac9190614759565b60405180910390f35b3480156105c157600080fd5b506105ca61132b565b6040516105d79190614525565b60405180910390f35b3480156105ec57600080fd5b506105f561134f565b6040516106029190614759565b60405180910390f35b34801561061757600080fd5b50610632600480360381019061062d9190613dbf565b611355565b60405161063f919061473d565b60405180910390f35b34801561065457600080fd5b5061066f600480360381019061066a9190613e52565b611461565b60405161067c91906144e8565b60405180910390f35b34801561069157600080fd5b506106ac60048036038101906106a79190613c9d565b61181f565b6040516106b9919061450a565b60405180910390f35b3480156106ce57600080fd5b506106d761188a565b6040516106e4919061455b565b60405180910390f35b3480156106f957600080fd5b5061070261191c565b60405161070f919061447b565b60405180910390f35b34801561072457600080fd5b5061072d611942565b60405161073a9190614525565b60405180910390f35b34801561074f57600080fd5b5061076a60048036038101906107659190613a6c565b611949565b6040516107779190614759565b60405180910390f35b34801561078c57600080fd5b506107a760048036038101906107a29190613b2c565b611999565b6040516107b4919061450a565b60405180910390f35b3480156107c957600080fd5b506107e460048036038101906107df9190613b2c565b611a8d565b6040516107f1919061450a565b60405180910390f35b34801561080657600080fd5b5061080f611aab565b60405161081c919061447b565b60405180910390f35b34801561083157600080fd5b5061084c60048036038101906108479190613e52565b611ad1565b60405161085991906144e8565b60405180910390f35b34801561086e57600080fd5b5061088960048036038101906108849190613dff565b611e8e565b6040516108979291906147c0565b60405180910390f35b6108ba60048036038101906108b59190613d65565b61200d565b005b3480156108c857600080fd5b506108d16120ce565b005b3480156108df57600080fd5b506108fa60048036038101906108f59190613b6c565b612161565b005b34801561090857600080fd5b50610923600480360381019061091e9190613e52565b612248565b005b34801561093157600080fd5b5061094c60048036038101906109479190613d65565b6122ad565b6040516109599190614759565b60405180910390f35b34801561096e57600080fd5b5061098960048036038101906109849190613b6c565b6122d4565b005b34801561099757600080fd5b506109b260048036038101906109ad9190613c9d565b61238d565b005b3480156109c057600080fd5b506109db60048036038101906109d69190613d65565b6123b6565b005b3480156109e957600080fd5b506109f2612467565b6040516109ff9190614540565b60405180910390f35b348015610a1457600080fd5b50610a2f6004803603810190610a2a9190613a99565b61256f565b604051610a3c9190614759565b60405180910390f35b348015610a5157600080fd5b50610a5a6125f6565b604051610a679190614759565b60405180910390f35b60007f7965db0b000000000000000000000000000000000000000000000000000000007bffffffffffffffffffffffffffffffffffffffffffffffffffffffff1916827bffffffffffffffffffffffffffffffffffffffffffffffffffffffff19161480610ae35750610ae2826125fc565b5b9050919050565b6000600c60009054906101000a900473ffffffffffffffffffffffffffffffffffffffff1673ffffffffffffffffffffffffffffffffffffffff166305300b286040518163ffffffff1660e01b815260040160206040518083038186803b158015610b5457600080fd5b505afa158015610b68573d6000803e3d6000fd5b505050506040513d601f19601f82011682018060405250810190610b8c9190613d92565b905090565b606060038054610ba090614d1c565b80601f0160208091040260200160405190810160405280929190818152602001828054610bcc90614d1c565b8015610c195780601f10610bee57610100808354040283529160200191610c19565b820191906000526020600020905b815481529060010190602001808311610bfc57829003601f168201915b5050505050905090565b6000610c37610c30612666565b848461266e565b6001905092915050565b6000600254905090565b60105481565b6000610c5e848484612839565b6000600160008673ffffffffffffffffffffffffffffffffffffffff1673ffffffffffffffffffffffffffffffffffffffff1681526020019081526020016000206000610ca9612666565b73ffffffffffffffffffffffffffffffffffffffff1673ffffffffffffffffffffffffffffffffffffffff16815260200190815260200160002054905082811015610d29576040517f08c379a0000000000000000000000000000000000000000000000000000000008152600401610d209061463d565b60405180910390fd5b610d4685610d35612666565b8584610d419190614b51565b61266e565b60019150509392505050565b600060056000838152602001908152602001600020600101549050919050565b610d7b82610d52565b610d8c81610d87612666565b612ab8565b610d968383612b55565b505050565b60006012905090565b610dac612666565b73ffffffffffffffffffffffffffffffffffffffff168173ffffffffffffffffffffffffffffffffffffffff1614610e19576040517f08c379a0000000000000000000000000000000000000000000000000000000008152600401610e10906146fd565b60405180910390fd5b610e238282612c36565b5050565b600e5481565b6000610ecf610e3a612666565b848460016000610e48612666565b73ffffffffffffffffffffffffffffffffffffffff1673ffffffffffffffffffffffffffffffffffffffff16815260200190815260200160002060008873ffffffffffffffffffffffffffffffffffffffff1673ffffffffffffffffffffffffffffffffffffffff16815260200190815260200160002054610eca91906149dc565b61266e565b6001905092915050565b7fa49807205ce4d355092ef5a8a18f56e8913cf4a201fbe287825b095693c21775610f0b81610f06612666565b612ab8565b6000610f15612467565b9050600080821215610f30578181610f2d9190614948565b90505b60006010541215610f4c5760105481610f499190614abd565b90505b600080821215610f9e57600082610f6290614dc8565b90506000610f708288611ad1565b905080600081518110610f8657610f85614efc565b5b602002602001015183610f999190614abd565b925050505b6000821315610fe65760008290506000610fb88288611461565b905080600181518110610fce57610fcd614efc565b5b602002602001015183610fe19190614948565b925050505b8060106000828254610ff89190614948565b925050819055505050505050565b60118060000154908060010154905082565b600080600c60009054906101000a900473ffffffffffffffffffffffffffffffffffffffff1673ffffffffffffffffffffffffffffffffffffffff1663b0667cf86040518163ffffffff1660e01b8152600401604080518083038186803b15801561108257600080fd5b505afa158015611096573d6000803e3d6000fd5b505050506040513d601f19601f820116820180604052508101906110ba9190613e92565b509050600081600c60009054906101000a900473ffffffffffffffffffffffffffffffffffffffff1673ffffffffffffffffffffffffffffffffffffffff1663d50cb88b6040518163ffffffff1660e01b815260040160206040518083038186803b15801561112857600080fd5b505afa15801561113c573d6000803e3d6000fd5b505050506040513d601f19601f820116820180604052508101906111609190613d92565b601460009054906101000a900473ffffffffffffffffffffffffffffffffffffffff1673ffffffffffffffffffffffffffffffffffffffff166370a08231306040518263ffffffff1660e01b81526004016111bb9190614496565b60206040518083038186803b1580156111d357600080fd5b505afa1580156111e7573d6000803e3d6000fd5b505050506040513d601f19601f8201168201806040525081019061120b9190613d92565b6112159190614a63565b61121f9190614a32565b90503073ffffffffffffffffffffffffffffffffffffffff16318161124491906149dc565b905084156112a957600f54600e5461125c91906149dc565b81111561127857600f54600e5461127391906149dc565b61127a565b805b816112859190614b51565b9050600d5481111561129957600d5461129b565b805b816112a69190614b51565b90505b83156112d8576112b7610c41565b670de0b6b3a7640000826112cb9190614a63565b6112d59190614a32565b90505b809250505092915050565b60008060008373ffffffffffffffffffffffffffffffffffffffff1673ffffffffffffffffffffffffffffffffffffffff168152602001908152602001600020549050919050565b7fa49807205ce4d355092ef5a8a18f56e8913cf4a201fbe287825b095693c2177581565b600d5481565b61135d613697565b600c60009054906101000a900473ffffffffffffffffffffffffffffffffffffffff1673ffffffffffffffffffffffffffffffffffffffff16631ce5e9a66113ec85600660008773ffffffffffffffffffffffffffffffffffffffff1673ffffffffffffffffffffffffffffffffffffffff168152602001908152602001600020612d1890919063ffffffff16565b6040518263ffffffff1660e01b81526004016114089190614759565b6101e06040518083038186803b15801561142157600080fd5b505afa158015611435573d6000803e3d6000fd5b505050506040513d601f19601f820116820180604052508101906114599190613d37565b905092915050565b60607fa49807205ce4d355092ef5a8a18f56e8913cf4a201fbe287825b095693c2177561149581611490612666565b612ab8565b6000600c60009054906101000a900473ffffffffffffffffffffffffffffffffffffffff1673ffffffffffffffffffffffffffffffffffffffff1663b0667cf86040518163ffffffff1660e01b8152600401604080518083038186803b1580156114fe57600080fd5b505afa158015611512573d6000803e3d6000fd5b505050506040513d601f19601f820116820180604052508101906115369190613e92565b509050600060116001015460116000015460116001015461155791906149dc565b836115629190614a63565b61156c9190614a32565b9050600081600c60009054906101000a900473ffffffffffffffffffffffffffffffffffffffff1673ffffffffffffffffffffffffffffffffffffffff1663d50cb88b6040518163ffffffff1660e01b815260040160206040518083038186803b1580156115d957600080fd5b505afa1580156115ed573d6000803e3d6000fd5b505050506040513d601f19601f820116820180604052508101906116119190613d92565b8861161c9190614a63565b6116269190614a32565b90506000600267ffffffffffffffff81111561164557611644614f2b565b5b6040519080825280602002602001820160405280156116735781602001602082028036833780820191505090505b509050601460009054906101000a900473ffffffffffffffffffffffffffffffffffffffff16816000815181106116ad576116ac614efc565b5b602002602001019073ffffffffffffffffffffffffffffffffffffffff16908173ffffffffffffffffffffffffffffffffffffffff1681525050601360009054906101000a900473ffffffffffffffffffffffffffffffffffffffff168160018151811061171e5761171d614efc565b5b602002602001019073ffffffffffffffffffffffffffffffffffffffff16908173ffffffffffffffffffffffffffffffffffffffff1681525050600b60009054906101000a900473ffffffffffffffffffffffffffffffffffffffff1673ffffffffffffffffffffffffffffffffffffffff166318cbafe5898484308c6040518663ffffffff1660e01b81526004016117bb9594939291906147e9565b600060405180830381600087803b1580156117d557600080fd5b505af11580156117e9573d6000803e3d6000fd5b505050506040513d6000823e3d601f19601f820116820180604052508101906118129190613be7565b9550505050505092915050565b60006005600084815260200190815260200160002060000160008373ffffffffffffffffffffffffffffffffffffffff1673ffffffffffffffffffffffffffffffffffffffff16815260200190815260200160002060009054906101000a900460ff16905092915050565b60606004805461189990614d1c565b80601f01602080910402602001604051908101604052809291908181526020018280546118c590614d1c565b80156119125780601f106118e757610100808354040283529160200191611912565b820191906000526020600020905b8154815290600101906020018083116118f557829003601f168201915b5050505050905090565b601460009054906101000a900473ffffffffffffffffffffffffffffffffffffffff1681565b6000801b81565b6000611992600660008473ffffffffffffffffffffffffffffffffffffffff1673ffffffffffffffffffffffffffffffffffffffff168152602001908152602001600020612d32565b9050919050565b600080600160006119a8612666565b73ffffffffffffffffffffffffffffffffffffffff1673ffffffffffffffffffffffffffffffffffffffff16815260200190815260200160002060008573ffffffffffffffffffffffffffffffffffffffff1673ffffffffffffffffffffffffffffffffffffffff16815260200190815260200160002054905082811015611a65576040517f08c379a0000000000000000000000000000000000000000000000000000000008152600401611a5c906146dd565b60405180910390fd5b611a82611a70612666565b858584611a7d9190614b51565b61266e565b600191505092915050565b6000611aa1611a9a612666565b8484612839565b6001905092915050565b601360009054906101000a900473ffffffffffffffffffffffffffffffffffffffff1681565b60607fa49807205ce4d355092ef5a8a18f56e8913cf4a201fbe287825b095693c21775611b0581611b00612666565b612ab8565b6000600c60009054906101000a900473ffffffffffffffffffffffffffffffffffffffff1673ffffffffffffffffffffffffffffffffffffffff1663b0667cf86040518163ffffffff1660e01b8152600401604080518083038186803b158015611b6e57600080fd5b505afa158015611b82573d6000803e3d6000fd5b505050506040513d601f19601f82011682018060405250810190611ba69190613e92565b5090506000601160010154601160000154601160010154611bc791906149dc565b83611bd29190614a63565b611bdc9190614a32565b9050600081600c60009054906101000a900473ffffffffffffffffffffffffffffffffffffffff1673ffffffffffffffffffffffffffffffffffffffff1663d50cb88b6040518163ffffffff1660e01b815260040160206040518083038186803b158015611c4957600080fd5b505afa158015611c5d573d6000803e3d6000fd5b505050506040513d601f19601f82011682018060405250810190611c819190613d92565b88611c8c9190614a63565b611c969190614a32565b90506000600267ffffffffffffffff811115611cb557611cb4614f2b565b5b604051908082528060200260200182016040528015611ce35781602001602082028036833780820191505090505b509050601360009054906101000a900473ffffffffffffffffffffffffffffffffffffffff1681600081518110611d1d57611d1c614efc565b5b602002602001019073ffffffffffffffffffffffffffffffffffffffff16908173ffffffffffffffffffffffffffffffffffffffff1681525050601460009054906101000a900473ffffffffffffffffffffffffffffffffffffffff1681600181518110611d8e57611d8d614efc565b5b602002602001019073ffffffffffffffffffffffffffffffffffffffff16908173ffffffffffffffffffffffffffffffffffffffff1681525050600b60009054906101000a900473ffffffffffffffffffffffffffffffffffffffff1673ffffffffffffffffffffffffffffffffffffffff1663fb3bdb41838a84308c6040518663ffffffff1660e01b8152600401611e2a9493929190614774565b6000604051808303818588803b158015611e4357600080fd5b505af1158015611e57573d6000803e3d6000fd5b50505050506040513d6000823e3d601f19601f82011682018060405250810190611e819190613be7565b9550505050505092915050565b6000806000611e9e600080611018565b90506000806001811115611eb557611eb4614e6f565b5b866001811115611ec857611ec7614e6f565b5b14611ed557600e54611f2f565b60006001811115611ee957611ee8614e6f565b5b856001811115611efc57611efb614e6f565b5b14611f1f57611f0d600e5488612d47565b600e54611f1a9190614b51565b611f2e565b86600e54611f2d91906149dc565b5b5b90506000600180811115611f4657611f45614e6f565b5b876001811115611f5957611f58614e6f565b5b14611f6657600f54611fc0565b60006001811115611f7a57611f79614e6f565b5b866001811115611f8d57611f8c614e6f565b5b14611fb057611f9e600f5489612d47565b600f54611fab9190614b51565b611fbf565b87600f54611fbe91906149dc565b5b5b9050611fe2611fd3600e54600f54612d60565b670de0b6b3a764000085612d7a565b611ffe611fef8484612d60565b670de0b6b3a764000086612d7a565b94509450505050935093915050565b600061201b60006001611018565b905060008111612060576040517f08c379a00000000000000000000000000000000000000000000000000000000081526004016120579061465d565b60405180910390fd5b600061207583670de0b6b3a764000084612d7a565b90508234101561208457600080fd5b61208e3382612e76565b7fd0d5ca25112902dbbf5a70a67eed6edc7513b74f2a7ec0805ca216c99f981cc13384836040516120c1939291906144b1565b60405180910390a1505050565b7fa49807205ce4d355092ef5a8a18f56e8913cf4a201fbe287825b095693c21775612100816120fb612666565b612ab8565b3373ffffffffffffffffffffffffffffffffffffffff166108fc3073ffffffffffffffffffffffffffffffffffffffff16319081150290604051600060405180830381858888f1935050505015801561215d573d6000803e3d6000fd5b5050565b612175856009612fca90919063ffffffff16565b61218f5761218d856009612ffa90919063ffffffff16565b505b6121e084600660008873ffffffffffffffffffffffffffffffffffffffff1673ffffffffffffffffffffffffffffffffffffffff16815260200190815260200160002061302a90919063ffffffff16565b506121f584600761302a90919063ffffffff16565b5082600d600082825461220891906149dc565b9250508190555081600e600082825461222191906149dc565b9250508190555080600f600082825461223a91906149dc565b925050819055505050505050565b7fa49807205ce4d355092ef5a8a18f56e8913cf4a201fbe287825b095693c2177561227a81612275612666565b612ab8565b60405180604001604052808481526020018381525060116000820151816000015560208201518160010155905050505050565b60006122cd826122bf60006001611018565b670de0b6b3a7640000612d7a565b9050919050565b61232584600660008873ffffffffffffffffffffffffffffffffffffffff1673ffffffffffffffffffffffffffffffffffffffff16815260200190815260200160002061304490919063ffffffff16565b5061233a84600761304490919063ffffffff16565b5082600d600082825461234d9190614b51565b9250508190555081600e60008282546123669190614b51565b9250508190555080600f600082825461237f9190614b51565b925050819055505050505050565b61239682610d52565b6123a7816123a2612666565b612ab8565b6123b18383612c36565b505050565b60006123d56123c6600180611018565b83670de0b6b3a7640000612d7a565b90506123e1338361305e565b3373ffffffffffffffffffffffffffffffffffffffff166108fc829081150290604051600060405180830381858888f19350505050158015612427573d6000803e3d6000fd5b507f3a9e5b3b520d77dc26bf05104c863b6b654d4b96fa8031a783ad0dbd905cdf3933838360405161245b939291906144b1565b60405180910390a15050565b6000806124746007612d32565b90506000805b82811015612566576000612498826007612d1890919063ffffffff16565b9050600c60009054906101000a900473ffffffffffffffffffffffffffffffffffffffff1673ffffffffffffffffffffffffffffffffffffffff1663a823c087826040518263ffffffff1660e01b81526004016124f59190614759565b60206040518083038186803b15801561250d57600080fd5b505afa158015612521573d6000803e3d6000fd5b505050506040513d601f19601f820116820180604052508101906125459190613d0a565b836125509190614948565b925050808061255e90614d7f565b91505061247a565b50809250505090565b6000600160008473ffffffffffffffffffffffffffffffffffffffff1673ffffffffffffffffffffffffffffffffffffffff16815260200190815260200160002060008373ffffffffffffffffffffffffffffffffffffffff1673ffffffffffffffffffffffffffffffffffffffff16815260200190815260200160002054905092915050565b600f5481565b60007f01ffc9a7000000000000000000000000000000000000000000000000000000007bffffffffffffffffffffffffffffffffffffffffffffffffffffffff1916827bffffffffffffffffffffffffffffffffffffffffffffffffffffffff1916149050919050565b600033905090565b600073ffffffffffffffffffffffffffffffffffffffff168373ffffffffffffffffffffffffffffffffffffffff1614156126de576040517f08c379a00000000000000000000000000000000000000000000000000000000081526004016126d5906146bd565b60405180910390fd5b600073ffffffffffffffffffffffffffffffffffffffff168273ffffffffffffffffffffffffffffffffffffffff16141561274e576040517f08c379a0000000000000000000000000000000000000000000000000000000008152600401612745906145fd565b60405180910390fd5b80600160008573ffffffffffffffffffffffffffffffffffffffff1673ffffffffffffffffffffffffffffffffffffffff16815260200190815260200160002060008473ffffffffffffffffffffffffffffffffffffffff1673ffffffffffffffffffffffffffffffffffffffff168152602001908152602001600020819055508173ffffffffffffffffffffffffffffffffffffffff168373ffffffffffffffffffffffffffffffffffffffff167f8c5be1e5ebec7d5bd14f71427d1e84f3dd0314c0f7b2291e5b200ac8c7c3b9258360405161282c9190614759565b60405180910390a3505050565b600073ffffffffffffffffffffffffffffffffffffffff168373ffffffffffffffffffffffffffffffffffffffff1614156128a9576040517f08c379a00000000000000000000000000000000000000000000000000000000081526004016128a09061469d565b60405180910390fd5b600073ffffffffffffffffffffffffffffffffffffffff168273ffffffffffffffffffffffffffffffffffffffff161415612919576040517f08c379a0000000000000000000000000000000000000000000000000000000008152600401612910906145bd565b60405180910390fd5b612924838383613232565b60008060008573ffffffffffffffffffffffffffffffffffffffff1673ffffffffffffffffffffffffffffffffffffffff168152602001908152602001600020549050818110156129aa576040517f08c379a00000000000000000000000000000000000000000000000000000000081526004016129a19061461d565b60405180910390fd5b81816129b69190614b51565b6000808673ffffffffffffffffffffffffffffffffffffffff1673ffffffffffffffffffffffffffffffffffffffff16815260200190815260200160002081905550816000808573ffffffffffffffffffffffffffffffffffffffff1673ffffffffffffffffffffffffffffffffffffffff1681526020019081526020016000206000828254612a4691906149dc565b925050819055508273ffffffffffffffffffffffffffffffffffffffff168473ffffffffffffffffffffffffffffffffffffffff167fddf252ad1be2c89b69c2b068fc378daa952ba7f163c4a11628f55a4df523b3ef84604051612aaa9190614759565b60405180910390a350505050565b612ac2828261181f565b612b5157612ae78173ffffffffffffffffffffffffffffffffffffffff166014613237565b612af58360001c6020613237565b604051602001612b06929190614441565b6040516020818303038152906040526040517f08c379a0000000000000000000000000000000000000000000000000000000008152600401612b48919061455b565b60405180910390fd5b5050565b612b5f828261181f565b612c325760016005600084815260200190815260200160002060000160008373ffffffffffffffffffffffffffffffffffffffff1673ffffffffffffffffffffffffffffffffffffffff16815260200190815260200160002060006101000a81548160ff021916908315150217905550612bd7612666565b73ffffffffffffffffffffffffffffffffffffffff168173ffffffffffffffffffffffffffffffffffffffff16837f2f8788117e7eff1d82e926ec794901d17c78024a50270940304540a733656f0d60405160405180910390a45b5050565b612c40828261181f565b15612d145760006005600084815260200190815260200160002060000160008373ffffffffffffffffffffffffffffffffffffffff1673ffffffffffffffffffffffffffffffffffffffff16815260200190815260200160002060006101000a81548160ff021916908315150217905550612cb9612666565b73ffffffffffffffffffffffffffffffffffffffff168173ffffffffffffffffffffffffffffffffffffffff16837ff6391f5c32d9c69d2a47ea670b442974b53935d1edc7fd64eb21e047a839171b60405160405180910390a45b5050565b6000612d278360000183613473565b60001c905092915050565b6000612d40826000016134e7565b9050919050565b6000818310612d565781612d58565b825b905092915050565b600081831015612d705781612d72565b825b905092915050565b600080600080198587098587029250828110838203039150506000811415612db55760008411612da957600080fd5b83820492505050612e6f565b808411612dc157600080fd5b60008486880990508281118203915080830392506000856001877fffffffffffffffffffffffffffffffffffffffffffffffffffffffffffffffff0301169050808604955080840493506001818260000304019050808302841793506000600287600302189050808702600203810290508087026002038102905080870260020381029050808702600203810290508087026002038102905080870260020381029050808502955050505050505b9392505050565b600073ffffffffffffffffffffffffffffffffffffffff168273ffffffffffffffffffffffffffffffffffffffff161415612ee6576040517f08c379a0000000000000000000000000000000000000000000000000000000008152600401612edd9061471d565b60405180910390fd5b612ef260008383613232565b8060026000828254612f0491906149dc565b92505081905550806000808473ffffffffffffffffffffffffffffffffffffffff1673ffffffffffffffffffffffffffffffffffffffff1681526020019081526020016000206000828254612f5991906149dc565b925050819055508173ffffffffffffffffffffffffffffffffffffffff16600073ffffffffffffffffffffffffffffffffffffffff167fddf252ad1be2c89b69c2b068fc378daa952ba7f163c4a11628f55a4df523b3ef83604051612fbe9190614759565b60405180910390a35050565b6000612ff2836000018373ffffffffffffffffffffffffffffffffffffffff1660001b6134f8565b905092915050565b6000613022836000018373ffffffffffffffffffffffffffffffffffffffff1660001b61351b565b905092915050565b600061303c836000018360001b61351b565b905092915050565b6000613056836000018360001b61358b565b905092915050565b600073ffffffffffffffffffffffffffffffffffffffff168273ffffffffffffffffffffffffffffffffffffffff1614156130ce576040517f08c379a00000000000000000000000000000000000000000000000000000000081526004016130c59061467d565b60405180910390fd5b6130da82600083613232565b60008060008473ffffffffffffffffffffffffffffffffffffffff1673ffffffffffffffffffffffffffffffffffffffff16815260200190815260200160002054905081811015613160576040517f08c379a0000000000000000000000000000000000000000000000000000000008152600401613157906145dd565b60405180910390fd5b818161316c9190614b51565b6000808573ffffffffffffffffffffffffffffffffffffffff1673ffffffffffffffffffffffffffffffffffffffff1681526020019081526020016000208190555081600260008282546131c09190614b51565b92505081905550600073ffffffffffffffffffffffffffffffffffffffff168373ffffffffffffffffffffffffffffffffffffffff167fddf252ad1be2c89b69c2b068fc378daa952ba7f163c4a11628f55a4df523b3ef846040516132259190614759565b60405180910390a3505050565b505050565b60606000600283600261324a9190614a63565b61325491906149dc565b67ffffffffffffffff81111561326d5761326c614f2b565b5b6040519080825280601f01601f19166020018201604052801561329f5781602001600182028036833780820191505090505b5090507f3000000000000000000000000000000000000000000000000000000000000000816000815181106132d7576132d6614efc565b5b60200101907effffffffffffffffffffffffffffffffffffffffffffffffffffffffffffff1916908160001a9053507f78000000000000000000000000000000000000000000000000000000000000008160018151811061333b5761333a614efc565b5b60200101907effffffffffffffffffffffffffffffffffffffffffffffffffffffffffffff1916908160001a9053506000600184600261337b9190614a63565b61338591906149dc565b90505b6001811115613425577f3031323334353637383961626364656600000000000000000000000000000000600f8616601081106133c7576133c6614efc565b5b1a60f81b8282815181106133de576133dd614efc565b5b60200101907effffffffffffffffffffffffffffffffffffffffffffffffffffffffffffff1916908160001a905350600485901c94508061341e90614cf2565b9050613388565b5060008414613469576040517f08c379a00000000000000000000000000000000000000000000000000000000081526004016134609061459d565b60405180910390fd5b8091505092915050565b6000818360000180549050116134be576040517f08c379a00000000000000000000000000000000000000000000000000000000081526004016134b59061457d565b60405180910390fd5b8260000182815481106134d4576134d3614efc565b5b9060005260206000200154905092915050565b600081600001805490509050919050565b600080836001016000848152602001908152602001600020541415905092915050565b600061352783836134f8565b613580578260000182908060018154018082558091505060019003906000526020600020016000909190919091505582600001805490508360010160008481526020019081526020016000208190555060019050613585565b600090505b92915050565b6000808360010160008481526020019081526020016000205490506000811461368b5760006001826135bd9190614b51565b90506000600186600001805490506135d59190614b51565b905060008660000182815481106135ef576135ee614efc565b5b906000526020600020015490508087600001848154811061361357613612614efc565b5b906000526020600020018190555083876001016000838152602001908152602001600020819055508660000180548061364f5761364e614ecd565b5b60019003818190600052602060002001600090559055866001016000878152602001908152602001600020600090556001945050505050613691565b60009150505b92915050565b604051806101e00160405280600060018111156136b7576136b6614e6f565b5b8152602001600060018111156136d0576136cf614e6f565b5b8152602001600060038111156136e9576136e8614e6f565b5b8152602001600073ffffffffffffffffffffffffffffffffffffffff16815260200160008152602001600081526020016000815260200160008152602001600081526020016000815260200160008152602001600081526020016000815260200160008152602001600081525090565b600061376c61376784614883565b61485e565b9050808382526020820190508285602086028201111561378f5761378e614f64565b5b60005b858110156137bf57816137a58882613a57565b845260208401935060208301925050600181019050613792565b5050509392505050565b6000813590506137d8816153f2565b92915050565b6000815190506137ed816153f2565b92915050565b600082601f83011261380857613807614f5a565b5b8151613818848260208601613759565b91505092915050565b60008135905061383081615409565b92915050565b60008135905061384581615420565b92915050565b60008135905061385a81615437565b92915050565b60008135905061386f8161544e565b92915050565b6000815190506138848161544e565b92915050565b6000815190506138998161545e565b92915050565b6000813590506138ae8161546e565b92915050565b6000815190506138c38161546e565b92915050565b6000815190506138d88161547e565b92915050565b60006101e082840312156138f5576138f4614f5f565b5b6139006101e061485e565b90506000613910848285016138b4565b600083015250602061392484828501613875565b60208301525060406139388482850161388a565b604083015250606061394c848285016137de565b606083015250608061396084828501613a57565b60808301525060a061397484828501613a57565b60a08301525060c061398884828501613a57565b60c08301525060e061399c84828501613a57565b60e0830152506101006139b184828501613a57565b610100830152506101206139c784828501613a57565b610120830152506101406139dd84828501613a57565b610140830152506101606139f384828501613a57565b61016083015250610180613a0984828501613a57565b610180830152506101a0613a1f84828501613a57565b6101a0830152506101c0613a3584828501613a57565b6101c08301525092915050565b600081359050613a5181615495565b92915050565b600081519050613a6681615495565b92915050565b600060208284031215613a8257613a81614f6e565b5b6000613a90848285016137c9565b91505092915050565b60008060408385031215613ab057613aaf614f6e565b5b6000613abe858286016137c9565b9250506020613acf858286016137c9565b9150509250929050565b600080600060608486031215613af257613af1614f6e565b5b6000613b00868287016137c9565b9350506020613b11868287016137c9565b9250506040613b2286828701613a42565b9150509250925092565b60008060408385031215613b4357613b42614f6e565b5b6000613b51858286016137c9565b9250506020613b6285828601613a42565b9150509250929050565b600080600080600060a08688031215613b8857613b87614f6e565b5b6000613b96888289016137c9565b9550506020613ba788828901613a42565b9450506040613bb888828901613a42565b9350506060613bc988828901613a42565b9250506080613bda88828901613a42565b9150509295509295909350565b600060208284031215613bfd57613bfc614f6e565b5b600082015167ffffffffffffffff811115613c1b57613c1a614f69565b5b613c27848285016137f3565b91505092915050565b60008060408385031215613c4757613c46614f6e565b5b6000613c5585828601613821565b9250506020613c6685828601613821565b9150509250929050565b600060208284031215613c8657613c85614f6e565b5b6000613c9484828501613836565b91505092915050565b60008060408385031215613cb457613cb3614f6e565b5b6000613cc285828601613836565b9250506020613cd3858286016137c9565b9150509250929050565b600060208284031215613cf357613cf2614f6e565b5b6000613d018482850161384b565b91505092915050565b600060208284031215613d2057613d1f614f6e565b5b6000613d2e848285016138c9565b91505092915050565b60006101e08284031215613d4e57613d4d614f6e565b5b6000613d5c848285016138de565b91505092915050565b600060208284031215613d7b57613d7a614f6e565b5b6000613d8984828501613a42565b91505092915050565b600060208284031215613da857613da7614f6e565b5b6000613db684828501613a57565b91505092915050565b60008060408385031215613dd657613dd5614f6e565b5b6000613de485828601613a42565b9250506020613df5858286016137c9565b9150509250929050565b600080600060608486031215613e1857613e17614f6e565b5b6000613e2686828701613a42565b9350506020613e378682870161389f565b9250506040613e4886828701613860565b9150509250925092565b60008060408385031215613e6957613e68614f6e565b5b6000613e7785828601613a42565b9250506020613e8885828601613a42565b9150509250929050565b60008060408385031215613ea957613ea8614f6e565b5b6000613eb785828601613a57565b9250506020613ec885828601613a57565b9150509250929050565b6000613ede8383613f11565b60208301905092915050565b6000613ef68383614414565b60208301905092915050565b613f0b81614c53565b82525050565b613f1a81614b85565b82525050565b613f2981614b85565b82525050565b6000613f3a826148cf565b613f44818561490a565b9350613f4f836148af565b8060005b83811015613f80578151613f678882613ed2565b9750613f72836148f0565b925050600181019050613f53565b5085935050505092915050565b6000613f98826148da565b613fa2818561491b565b9350613fad836148bf565b8060005b83811015613fde578151613fc58882613eea565b9750613fd0836148fd565b925050600181019050613fb1565b5085935050505092915050565b613ff481614b97565b82525050565b61400381614ba3565b82525050565b61401281614c65565b82525050565b61402181614c77565b82525050565b61403081614c89565b82525050565b61403f81614c12565b82525050565b6000614050826148e5565b61405a818561492c565b935061406a818560208601614cbf565b61407381614f73565b840191505092915050565b6000614089826148e5565b614093818561493d565b93506140a3818560208601614cbf565b80840191505092915050565b60006140bc60228361492c565b91506140c782614f84565b604082019050919050565b60006140df60208361492c565b91506140ea82614fd3565b602082019050919050565b600061410260238361492c565b915061410d82614ffc565b604082019050919050565b600061412560228361492c565b91506141308261504b565b604082019050919050565b600061414860228361492c565b91506141538261509a565b604082019050919050565b600061416b60268361492c565b9150614176826150e9565b604082019050919050565b600061418e60288361492c565b915061419982615138565b604082019050919050565b60006141b160138361492c565b91506141bc82615187565b602082019050919050565b60006141d460218361492c565b91506141df826151b0565b604082019050919050565b60006141f760258361492c565b9150614202826151ff565b604082019050919050565b600061421a60248361492c565b91506142258261524e565b604082019050919050565b600061423d60178361493d565b91506142488261529d565b601782019050919050565b600061426060258361492c565b915061426b826152c6565b604082019050919050565b600061428360118361493d565b915061428e82615315565b601182019050919050565b60006142a6602f8361492c565b91506142b18261533e565b604082019050919050565b60006142c9601f8361492c565b91506142d48261538d565b602082019050919050565b6101e0820160008201516142f66000850182614027565b5060208201516143096020850182614009565b50604082015161431c6040850182614018565b50606082015161432f6060850182613f11565b5060808201516143426080850182614414565b5060a082015161435560a0850182614414565b5060c082015161436860c0850182614414565b5060e082015161437b60e0850182614414565b50610100820151614390610100850182614414565b506101208201516143a5610120850182614414565b506101408201516143ba610140850182614414565b506101608201516143cf610160850182614414565b506101808201516143e4610180850182614414565b506101a08201516143f96101a0850182614414565b506101c082015161440e6101c0850182614414565b50505050565b61441d81614c3c565b82525050565b61442c81614c3c565b82525050565b61443b81614c46565b82525050565b600061444c82614230565b9150614458828561407e565b915061446382614276565b915061446f828461407e565b91508190509392505050565b60006020820190506144906000830184613f20565b92915050565b60006020820190506144ab6000830184613f02565b92915050565b60006060820190506144c66000830186613f20565b6144d36020830185614423565b6144e06040830184614423565b949350505050565b600060208201905081810360008301526145028184613f8d565b905092915050565b600060208201905061451f6000830184613feb565b92915050565b600060208201905061453a6000830184613ffa565b92915050565b60006020820190506145556000830184614036565b92915050565b600060208201905081810360008301526145758184614045565b905092915050565b60006020820190508181036000830152614596816140af565b9050919050565b600060208201905081810360008301526145b6816140d2565b9050919050565b600060208201905081810360008301526145d6816140f5565b9050919050565b600060208201905081810360008301526145f681614118565b9050919050565b600060208201905081810360008301526146168161413b565b9050919050565b600060208201905081810360008301526146368161415e565b9050919050565b6000602082019050818103600083015261465681614181565b9050919050565b60006020820190508181036000830152614676816141a4565b9050919050565b60006020820190508181036000830152614696816141c7565b9050919050565b600060208201905081810360008301526146b6816141ea565b9050919050565b600060208201905081810360008301526146d68161420d565b9050919050565b600060208201905081810360008301526146f681614253565b9050919050565b6000602082019050818103600083015261471681614299565b9050919050565b60006020820190508181036000830152614736816142bc565b9050919050565b60006101e08201905061475360008301846142df565b92915050565b600060208201905061476e6000830184614423565b92915050565b60006080820190506147896000830187614423565b818103602083015261479b8186613f2f565b90506147aa6040830185613f02565b6147b76060830184614423565b95945050505050565b60006040820190506147d56000830185614423565b6147e26020830184614423565b9392505050565b600060a0820190506147fe6000830188614423565b61480b6020830187614423565b818103604083015261481d8186613f2f565b905061482c6060830185613f02565b6148396080830184614423565b9695505050505050565b60006020820190506148586000830184614432565b92915050565b6000614868614879565b90506148748282614d4e565b919050565b6000604051905090565b600067ffffffffffffffff82111561489e5761489d614f2b565b5b602082029050602081019050919050565b6000819050602082019050919050565b6000819050602082019050919050565b600081519050919050565b600081519050919050565b600081519050919050565b6000602082019050919050565b6000602082019050919050565b600082825260208201905092915050565b600082825260208201905092915050565b600082825260208201905092915050565b600081905092915050565b600061495382614c12565b915061495e83614c12565b9250817f7fffffffffffffffffffffffffffffffffffffffffffffffffffffffffffffff0383136000831215161561499957614998614e11565b5b817f80000000000000000000000000000000000000000000000000000000000000000383126000831216156149d1576149d0614e11565b5b828201905092915050565b60006149e782614c3c565b91506149f283614c3c565b9250827fffffffffffffffffffffffffffffffffffffffffffffffffffffffffffffffff03821115614a2757614a26614e11565b5b828201905092915050565b6000614a3d82614c3c565b9150614a4883614c3c565b925082614a5857614a57614e40565b5b828204905092915050565b6000614a6e82614c3c565b9150614a7983614c3c565b9250817fffffffffffffffffffffffffffffffffffffffffffffffffffffffffffffffff0483118215151615614ab257614ab1614e11565b5b828202905092915050565b6000614ac882614c12565b9150614ad383614c12565b9250827f800000000000000000000000000000000000000000000000000000000000000001821260008412151615614b0e57614b0d614e11565b5b827f7fffffffffffffffffffffffffffffffffffffffffffffffffffffffffffffff018213600084121615614b4657614b45614e11565b5b828203905092915050565b6000614b5c82614c3c565b9150614b6783614c3c565b925082821015614b7a57614b79614e11565b5b828203905092915050565b6000614b9082614c1c565b9050919050565b60008115159050919050565b6000819050919050565b60007fffffffff0000000000000000000000000000000000000000000000000000000082169050919050565b6000819050614be7826153b6565b919050565b6000819050614bfa826153ca565b919050565b6000819050614c0d826153de565b919050565b6000819050919050565b600073ffffffffffffffffffffffffffffffffffffffff82169050919050565b6000819050919050565b600060ff82169050919050565b6000614c5e82614c9b565b9050919050565b6000614c7082614bd9565b9050919050565b6000614c8282614bec565b9050919050565b6000614c9482614bff565b9050919050565b6000614ca682614cad565b9050919050565b6000614cb882614c1c565b9050919050565b60005b83811015614cdd578082015181840152602081019050614cc2565b83811115614cec576000848401525b50505050565b6000614cfd82614c3c565b91506000821415614d1157614d10614e11565b5b600182039050919050565b60006002820490506001821680614d3457607f821691505b60208210811415614d4857614d47614e9e565b5b50919050565b614d5782614f73565b810181811067ffffffffffffffff82111715614d7657614d75614f2b565b5b80604052505050565b6000614d8a82614c3c565b91507fffffffffffffffffffffffffffffffffffffffffffffffffffffffffffffffff821415614dbd57614dbc614e11565b5b600182019050919050565b6000614dd382614c12565b91507f8000000000000000000000000000000000000000000000000000000000000000821415614e0657614e05614e11565b5b816000039050919050565b7f4e487b7100000000000000000000000000000000000000000000000000000000600052601160045260246000fd5b7f4e487b7100000000000000000000000000000000000000000000000000000000600052601260045260246000fd5b7f4e487b7100000000000000000000000000000000000000000000000000000000600052602160045260246000fd5b7f4e487b7100000000000000000000000000000000000000000000000000000000600052602260045260246000fd5b7f4e487b7100000000000000000000000000000000000000000000000000000000600052603160045260246000fd5b7f4e487b7100000000000000000000000000000000000000000000000000000000600052603260045260246000fd5b7f4e487b7100000000000000000000000000000000000000000000000000000000600052604160045260246000fd5b600080fd5b600080fd5b600080fd5b600080fd5b600080fd5b6000601f19601f8301169050919050565b7f456e756d657261626c655365743a20696e646578206f7574206f6620626f756e60008201527f6473000000000000000000000000000000000000000000000000000000000000602082015250565b7f537472696e67733a20686578206c656e67746820696e73756666696369656e74600082015250565b7f45524332303a207472616e7366657220746f20746865207a65726f206164647260008201527f6573730000000000000000000000000000000000000000000000000000000000602082015250565b7f45524332303a206275726e20616d6f756e7420657863656564732062616c616e60008201527f6365000000000000000000000000000000000000000000000000000000000000602082015250565b7f45524332303a20617070726f766520746f20746865207a65726f20616464726560008201527f7373000000000000000000000000000000000000000000000000000000000000602082015250565b7f45524332303a207472616e7366657220616d6f756e742065786365656473206260008201527f616c616e63650000000000000000000000000000000000000000000000000000602082015250565b7f45524332303a207472616e7366657220616d6f756e742065786365656473206160008201527f6c6c6f77616e6365000000000000000000000000000000000000000000000000602082015250565b7f5a65726f2047726f7373204361706974616c2e00000000000000000000000000600082015250565b7f45524332303a206275726e2066726f6d20746865207a65726f2061646472657360008201527f7300000000000000000000000000000000000000000000000000000000000000602082015250565b7f45524332303a207472616e736665722066726f6d20746865207a65726f20616460008201527f6472657373000000000000000000000000000000000000000000000000000000602082015250565b7f45524332303a20617070726f76652066726f6d20746865207a65726f2061646460008201527f7265737300000000000000000000000000000000000000000000000000000000602082015250565b7f416363657373436f6e74726f6c3a206163636f756e7420000000000000000000600082015250565b7f45524332303a2064656372656173656420616c6c6f77616e63652062656c6f7760008201527f207a65726f000000000000000000000000000000000000000000000000000000602082015250565b7f206973206d697373696e6720726f6c6520000000000000000000000000000000600082015250565b7f416363657373436f6e74726f6c3a2063616e206f6e6c792072656e6f756e636560008201527f20726f6c657320666f722073656c660000000000000000000000000000000000602082015250565b7f45524332303a206d696e7420746f20746865207a65726f206164647265737300600082015250565b600281106153c7576153c6614e6f565b5b50565b600481106153db576153da614e6f565b5b50565b600281106153ef576153ee614e6f565b5b50565b6153fb81614b85565b811461540657600080fd5b50565b61541281614b97565b811461541d57600080fd5b50565b61542981614ba3565b811461543457600080fd5b50565b61544081614bad565b811461544b57600080fd5b50565b6002811061545b57600080fd5b50565b6004811061546b57600080fd5b50565b6002811061547b57600080fd5b50565b61548781614c12565b811461549257600080fd5b50565b61549e81614c3c565b81146154a957600080fd5b5056fea264697066735822122088d892375cbf0db53bdfa54448ffd8824faf06f6487a6ec1fab22e891417da2d64736f6c63430008060033",
  "immutableReferences": {},
  "source": "/**\n * SPDX-License-Identifier: GPL-3.0-or-later\n * Moret\n * Copyright (C) 2021 Moret\n*/\n\npragma solidity ^0.8.4;\n\nimport \"@openzeppelin/contracts/token/ERC20/ERC20.sol\";\nimport \"@openzeppelin/contracts/access/AccessControl.sol\";\nimport \"@openzeppelin/contracts/utils/structs/EnumerableSet.sol\";\nimport \"@openzeppelin/contracts/utils/math/Math.sol\";\n/* import '@uniswap/v2-periphery/contracts/interfaces/IUniswapV2Router02.sol'; */\nimport \"./MoretInterfaces.sol\";\nimport \"./FullMath.sol\";\n\ncontract MarketMakerNative is ERC20, AccessControl, EOption\n{\n  using EnumerableSet for EnumerableSet.UintSet;\n  using EnumerableSet for EnumerableSet.AddressSet;\n\n  bytes32 public constant ADMIN_ROLE = keccak256(\"ADMIN_ROLE\");\n  uint256 private constant ethMultiplier = 10 ** 18;\n\n  mapping(address=> EnumerableSet.UintSet) internal activeOptionsPerOwner;\n  EnumerableSet.UintSet internal activeOptions;\n  EnumerableSet.AddressSet holderList;\n\n  IUniswapV2Router02 internal uniswapRouter;\n  IOptionVault internal optionVault;\n\n  uint256 public lockedPremium = 0;\n  uint256 public callExposure = 0;\n  uint256 public putExposure = 0;\n  int256 public hedgePositionAmount = 0;\n\n  /* OptionLibrary.Percent public maxCollateralisation = OptionLibrary.Percent(10 * 10 ** 5, 10 ** 6);\n  OptionLibrary.Percent public volPremiumMultiplier = OptionLibrary.Percent(10 ** 5 , 10 ** 6) ;\n  OptionLibrary.Percent public volPremiumPenalty = OptionLibrary.Percent(5 * 10 ** 5, 10 ** 6) ; */\n  OptionLibrary.Percent public swapSlippageAllowance = OptionLibrary.Percent (2 * 10**4, 10**6);\n\n  /* address internal constant UNISWAP_ROUTER_ADDRESS = 0x1b02dA8Cb0d097eB8D57A175b88c7D8b47997506;\n  address internal constant PRICING_ADDRESS = 0xAB594600376Ec9fD91F8e885dADF0CE036862dE0;\n  address internal constant FUNDING_ADDRESS = 0x2791Bca1f2de4661ED88A30C99A7a9449Aa84174; */\n  address public WETH;\n  address public stableCoinAddress;\n\n  constructor(\n      string memory _name,\n      string memory _symbol,\n      address _wethAddress,\n      address _fundingAddress,\n      address _optionAddress,\n      address _swapRouterAddress\n      ) payable\n      ERC20(_name, _symbol)\n      {\n          _setupRole(DEFAULT_ADMIN_ROLE, msg.sender);\n          _setupRole(ADMIN_ROLE, msg.sender);\n\n          uniswapRouter = IUniswapV2Router02(_swapRouterAddress);\n          optionVault = IOptionVault(_optionAddress);\n\n          stableCoinAddress = _fundingAddress;\n          WETH = _wethAddress;//uniswapRouter.WETH();\n\n          _mint(msg.sender, ethMultiplier);\n      }\n\n\n      function recordOptionPurhcase(address _purchaser, uint256 _id,\n        uint256 _newPremium, uint256 _newCallExposure, uint256 _newPutExposure)\n        external\n      {\n        if(!holderList.contains(_purchaser))\n        {\n            holderList.add(_purchaser);\n        }\n\n        activeOptionsPerOwner[_purchaser].add(_id);\n        activeOptions.add(_id);\n        lockedPremium += _newPremium;\n        callExposure += _newCallExposure;\n        putExposure += _newPutExposure;\n      }\n\n      function recordOptionRemoval(address _purchaser, uint256 _id,\n        uint256 _removePremium, uint256 _removeCallExposure, uint256 _removePutExposure)\n        external\n      {\n        activeOptionsPerOwner[_purchaser].remove(_id);\n        activeOptions.remove(_id);\n\n        lockedPremium -= _removePremium;\n        callExposure -= _removeCallExposure;\n        putExposure -= _removePutExposure;\n      }\n\n    function calcTotalDelta() public view returns(int256)\n    {\n      uint256 _totalContracts = activeOptions.length();\n      int256 _totalDelta= 0;\n\n      for(uint256 i=0;i<_totalContracts;i++)\n      {\n          uint256 _id = uint256(activeOptions.at(i));\n\n        _totalDelta += optionVault.calculateContractDelta(_id);\n      }\n      return _totalDelta;\n    }\n\n    function updateHedges(uint256 _deadline) external onlyRole(ADMIN_ROLE)\n    {\n        int256 _targetDelta = calcTotalDelta();\n        int256 _changesInDelta_m1_0 = 0;\n\n        if(_targetDelta<0){_changesInDelta_m1_0+= _targetDelta;}\n        if(hedgePositionAmount<0){_changesInDelta_m1_0-= hedgePositionAmount;}\n\n        int _swappedUnderlying = 0;\n\n        if(_changesInDelta_m1_0<0)\n        {\n            uint256 _newStable = uint256(-_changesInDelta_m1_0);\n            uint256[] memory _swappedAmounts = swapToStable(_newStable,  _deadline);\n            _swappedUnderlying -= int256(_swappedAmounts[0]);\n        }\n        if(_changesInDelta_m1_0>0)\n        {\n            uint256 _unwindStable = uint256(_changesInDelta_m1_0);\n            uint256[] memory _swappedAmounts = swapToUnderlying( _unwindStable,  _deadline);\n            _swappedUnderlying += int256(_swappedAmounts[1]);\n        }\n\n        hedgePositionAmount += _swappedUnderlying;\n    }\n\n    function swapToStable(uint256 _newStable, uint256 _deadline) public onlyRole(ADMIN_ROLE) returns(uint256[] memory _swappedAmounts)\n    {\n        (uint256 _price,) = optionVault.queryPrice();\n        uint256 _priceLimit = _price * (swapSlippageAllowance.denominator + swapSlippageAllowance.numerator)/ swapSlippageAllowance.denominator;\n        uint256 _amountInMaximum = (_newStable * optionVault.priceMultiplier() / _priceLimit );\n\n        address[] memory path = new address[](2);\n        path[0] = address(WETH);\n        path[1] = address(stableCoinAddress);\n\n        return uniswapRouter.swapETHForExactTokens{value: _amountInMaximum}(_newStable, path, payable(address(this)), _deadline);\n    }\n\n    function swapToUnderlying(uint256 _unwindStable, uint256 _deadline) public onlyRole(ADMIN_ROLE) returns(uint256[] memory _swappedAmounts)\n    {\n      (uint256 _price,) = optionVault.queryPrice();\n      uint256 _priceLimit = _price *(swapSlippageAllowance.denominator + swapSlippageAllowance.numerator)/ swapSlippageAllowance.denominator;\n      uint256 _amountOutMinimum = (_unwindStable * optionVault.priceMultiplier() / _priceLimit);\n\n      address[] memory path = new address[](2);\n      path[0] = address(stableCoinAddress);\n      path[1] = address(WETH);\n\n      return uniswapRouter.swapExactTokensForETH(_unwindStable, _amountOutMinimum, path, payable(address(this)), _deadline);\n    }\n\n    function quoteCapitalCost(uint256 _mpAmount) external view returns(uint256){\n        return MulDiv(_mpAmount, calcCapital(false, true), ethMultiplier);\n    }\n\n    function addCapital(uint256 _depositAmount) external payable{\n        uint256 _averageGrossCapital = calcCapital(false, true);\n        require(_averageGrossCapital>0, \"Zero Gross Capital.\");\n\n        uint256 _mintMPTokenAmount = MulDiv(_depositAmount, ethMultiplier, _averageGrossCapital);\n        require(msg.value>=_depositAmount);\n\n        _mint(msg.sender, _mintMPTokenAmount);\n        emit capitalAdded(msg.sender, _depositAmount, _mintMPTokenAmount);\n    }\n\n    function withdrawCapital(uint256 _burnMPTokenAmount) external {\n        uint256 _withdrawValue = MulDiv(calcCapital(true, true) ,  _burnMPTokenAmount , ethMultiplier);\n\n        _burn(msg.sender, _burnMPTokenAmount);\n        payable(msg.sender).transfer(_withdrawValue);\n\n        emit capitalWithdrawn(msg.sender, _burnMPTokenAmount, _withdrawValue);\n    }\n\n    function calcCapital(bool _net, bool _average) public view returns(uint256){\n        (uint256 _price,) = optionVault.queryPrice();\n        uint256 _capital = ERC20(stableCoinAddress).balanceOf(payable(address(this))) * optionVault.priceMultiplier() / _price;\n        _capital += payable(address(this)).balance ;\n\n        if(_net)\n        {\n          _capital -= (_capital <= (callExposure+ putExposure)? _capital: (callExposure+ putExposure));\n          _capital -= (_capital <= lockedPremium? _capital: lockedPremium)  ;\n        }\n\n        if(_average)\n        {\n          _capital = _capital * ethMultiplier / totalSupply();\n        }\n        return _capital;\n    }\n\n    function calcUtilisation(uint256 _amount, OptionLibrary.PayoffType _poType, OptionLibrary.OptionSide _side)\n    external view returns(uint256, uint256){\n        uint256 _grossCapital = calcCapital(false, false);\n\n        uint256 _newCallExposure = (_poType==OptionLibrary.PayoffType.Call)?\n          ((_side==OptionLibrary.OptionSide.Buy)? (callExposure+_amount): (callExposure - Math.min(callExposure, _amount)) )\n          : callExposure;\n        uint256 _newPutExposure = (_poType==OptionLibrary.PayoffType.Put)?\n          ((_side==OptionLibrary.OptionSide.Buy)? (putExposure+_amount): (putExposure - Math.min(putExposure, _amount)) )\n          : putExposure;\n\n        return (MulDiv(Math.max(callExposure, putExposure), ethMultiplier, _grossCapital ),\n          MulDiv(Math.max(_newCallExposure, _newPutExposure) , ethMultiplier, _grossCapital ));\n    }\n/*\n    function calcUtilityAddon(uint256 _amount, OptionLibrary.PayoffType  _poType) external view returns(OptionLibrary.Percent memory){\n        (uint256 _utilityBefore, uint256 _utilityAfter, uint256 _denominator) = calcUtilityRatios(_amount, _poType);\n        require(_utilityBefore < maxCollateralisation.numerator, \"Max collateralisation breached.\");\n        require(_utilityAfter < maxCollateralisation.numerator, \"Max collateralisation breached.\");\n\n        uint256 _addonBefore = volPremiumMultiplier.numerator * _utilityBefore / volPremiumMultiplier.denominator;\n        if(_utilityBefore> _denominator)\n        {\n            _addonBefore += volPremiumPenalty.numerator *( _utilityBefore - _denominator)/ volPremiumPenalty.denominator;\n        }\n\n        uint256 _addonAfter = (volPremiumMultiplier.numerator * _utilityAfter/ volPremiumMultiplier.denominator);\n        if(_utilityAfter> _denominator)\n        {\n            _addonAfter += (volPremiumPenalty.numerator* ( _utilityAfter - _denominator) / volPremiumPenalty.denominator);\n        }\n\n        return OptionLibrary.Percent((_addonBefore + _addonAfter) / 2, _denominator);\n    } */\n\n    function sweepBalance() external onlyRole(ADMIN_ROLE){\n        payable(msg.sender).transfer(payable(address(this)).balance);\n    }\n\n    /* function resetMaxCollateralisation(uint256 _multiplier, uint256 _denominator) external onlyRole(ADMIN_ROLE){\n        maxCollateralisation = OptionLibrary.Percent(_multiplier, _denominator);\n    }\n\n    function resetVolPremiumMultiplier(uint256 _multiplier, uint256 _denominator) external onlyRole(ADMIN_ROLE){\n        volPremiumMultiplier = OptionLibrary.Percent(_multiplier, _denominator);\n    }\n\n    function resetVolPremiumPenalty(uint256 _multiplier, uint256 _denominator) external onlyRole(ADMIN_ROLE){\n        volPremiumPenalty = OptionLibrary.Percent(_multiplier, _denominator);\n    } */\n\n    function resetSwapSlippageAllowance(uint256 _multiplier, uint256 _denominator) external onlyRole(ADMIN_ROLE){\n        swapSlippageAllowance = OptionLibrary.Percent(_multiplier, _denominator);\n    }\n\n    /* function getHolderCount() external view returns(uint256){return holderList.length();}\n    function getHolderAddress(uint256 _index) external view returns(address) {return holderList.at(_index);} */\n    function getHoldersOptionCount(address _address) external view returns(uint256){return activeOptionsPerOwner[_address].length();}\n    function getHoldersOption(uint256 _index, address _address) external view returns(OptionLibrary.Option memory) {return optionVault.getOption(activeOptionsPerOwner[_address].at(_index));}\n    /* function getOptionPayoff(uint256 _id) external view returns(uint256){return optionVault.getOptionPayoffValue(_id);} */\n    function priceDecimals() external view returns(uint256){ return optionVault.priceDecimals();}\n\n    receive() external payable{}\n\n}\n",
  "sourcePath": "/Users/mac/Documents/GitHub/moret/contracts/MarketMakerNative.sol",
  "compiler": {
    "name": "solc",
    "version": "0.8.6+commit.11564f7e.Emscripten.clang"
  },
  "schemaVersion": "3.4.1",
  "updatedAt": "2021-07-10T00:40:47.061Z",
  "devdoc": {
    "kind": "dev",
    "methods": {
      "allowance(address,address)": {
        "details": "See {IERC20-allowance}."
      },
      "approve(address,uint256)": {
        "details": "See {IERC20-approve}. Requirements: - `spender` cannot be the zero address."
      },
      "balanceOf(address)": {
        "details": "See {IERC20-balanceOf}."
      },
      "decimals()": {
        "details": "Returns the number of decimals used to get its user representation. For example, if `decimals` equals `2`, a balance of `505` tokens should be displayed to a user as `5,05` (`505 / 10 ** 2`). Tokens usually opt for a value of 18, imitating the relationship between Ether and Wei. This is the value {ERC20} uses, unless this function is overridden; NOTE: This information is only used for _display_ purposes: it in no way affects any of the arithmetic of the contract, including {IERC20-balanceOf} and {IERC20-transfer}."
      },
      "decreaseAllowance(address,uint256)": {
        "details": "Atomically decreases the allowance granted to `spender` by the caller. This is an alternative to {approve} that can be used as a mitigation for problems described in {IERC20-approve}. Emits an {Approval} event indicating the updated allowance. Requirements: - `spender` cannot be the zero address. - `spender` must have allowance for the caller of at least `subtractedValue`."
      },
      "getRoleAdmin(bytes32)": {
        "details": "Returns the admin role that controls `role`. See {grantRole} and {revokeRole}. To change a role's admin, use {_setRoleAdmin}."
      },
      "grantRole(bytes32,address)": {
        "details": "Grants `role` to `account`. If `account` had not been already granted `role`, emits a {RoleGranted} event. Requirements: - the caller must have ``role``'s admin role."
      },
      "hasRole(bytes32,address)": {
        "details": "Returns `true` if `account` has been granted `role`."
      },
      "increaseAllowance(address,uint256)": {
        "details": "Atomically increases the allowance granted to `spender` by the caller. This is an alternative to {approve} that can be used as a mitigation for problems described in {IERC20-approve}. Emits an {Approval} event indicating the updated allowance. Requirements: - `spender` cannot be the zero address."
      },
      "name()": {
        "details": "Returns the name of the token."
      },
      "renounceRole(bytes32,address)": {
        "details": "Revokes `role` from the calling account. Roles are often managed via {grantRole} and {revokeRole}: this function's purpose is to provide a mechanism for accounts to lose their privileges if they are compromised (such as when a trusted device is misplaced). If the calling account had been granted `role`, emits a {RoleRevoked} event. Requirements: - the caller must be `account`."
      },
      "revokeRole(bytes32,address)": {
        "details": "Revokes `role` from `account`. If `account` had been granted `role`, emits a {RoleRevoked} event. Requirements: - the caller must have ``role``'s admin role."
      },
      "supportsInterface(bytes4)": {
        "details": "See {IERC165-supportsInterface}."
      },
      "symbol()": {
        "details": "Returns the symbol of the token, usually a shorter version of the name."
      },
      "totalSupply()": {
        "details": "See {IERC20-totalSupply}."
      },
      "transfer(address,uint256)": {
        "details": "See {IERC20-transfer}. Requirements: - `recipient` cannot be the zero address. - the caller must have a balance of at least `amount`."
      },
      "transferFrom(address,address,uint256)": {
        "details": "See {IERC20-transferFrom}. Emits an {Approval} event indicating the updated allowance. This is not required by the EIP. See the note at the beginning of {ERC20}. Requirements: - `sender` and `recipient` cannot be the zero address. - `sender` must have a balance of at least `amount`. - the caller must have allowance for ``sender``'s tokens of at least `amount`."
      }
    },
    "version": 1
  },
  "userdoc": {
    "kind": "user",
    "methods": {},
    "version": 1
  }
}