{
  "contractName": "MoretMarketMaker",
  "abi": [
    {
      "inputs": [
        {
          "internalType": "string",
          "name": "_name",
          "type": "string"
        },
        {
          "internalType": "string",
          "name": "_symbol",
          "type": "string"
        },
        {
          "internalType": "address",
          "name": "_underlyingAddress",
          "type": "address"
        },
        {
          "internalType": "address",
          "name": "_fundingAddress",
          "type": "address"
        },
        {
          "internalType": "address",
          "name": "_optionAddress",
          "type": "address"
        },
        {
          "internalType": "address",
          "name": "_aaveAddressProviderAddress",
          "type": "address"
        }
      ],
      "stateMutability": "nonpayable",
      "type": "constructor"
    },
    {
      "anonymous": false,
      "inputs": [
        {
          "indexed": true,
          "internalType": "address",
          "name": "owner",
          "type": "address"
        },
        {
          "indexed": true,
          "internalType": "address",
          "name": "spender",
          "type": "address"
        },
        {
          "indexed": false,
          "internalType": "uint256",
          "name": "value",
          "type": "uint256"
        }
      ],
      "name": "Approval",
      "type": "event"
    },
    {
      "anonymous": false,
      "inputs": [
        {
          "indexed": true,
          "internalType": "bytes32",
          "name": "role",
          "type": "bytes32"
        },
        {
          "indexed": true,
          "internalType": "bytes32",
          "name": "previousAdminRole",
          "type": "bytes32"
        },
        {
          "indexed": true,
          "internalType": "bytes32",
          "name": "newAdminRole",
          "type": "bytes32"
        }
      ],
      "name": "RoleAdminChanged",
      "type": "event"
    },
    {
      "anonymous": false,
      "inputs": [
        {
          "indexed": true,
          "internalType": "bytes32",
          "name": "role",
          "type": "bytes32"
        },
        {
          "indexed": true,
          "internalType": "address",
          "name": "account",
          "type": "address"
        },
        {
          "indexed": true,
          "internalType": "address",
          "name": "sender",
          "type": "address"
        }
      ],
      "name": "RoleGranted",
      "type": "event"
    },
    {
      "anonymous": false,
      "inputs": [
        {
          "indexed": true,
          "internalType": "bytes32",
          "name": "role",
          "type": "bytes32"
        },
        {
          "indexed": true,
          "internalType": "address",
          "name": "account",
          "type": "address"
        },
        {
          "indexed": true,
          "internalType": "address",
          "name": "sender",
          "type": "address"
        }
      ],
      "name": "RoleRevoked",
      "type": "event"
    },
    {
      "anonymous": false,
      "inputs": [
        {
          "indexed": true,
          "internalType": "address",
          "name": "from",
          "type": "address"
        },
        {
          "indexed": true,
          "internalType": "address",
          "name": "to",
          "type": "address"
        },
        {
          "indexed": false,
          "internalType": "uint256",
          "name": "value",
          "type": "uint256"
        }
      ],
      "name": "Transfer",
      "type": "event"
    },
    {
      "anonymous": false,
      "inputs": [
        {
          "indexed": false,
          "internalType": "address",
          "name": "_recipient",
          "type": "address"
        },
        {
          "indexed": false,
          "internalType": "uint256",
          "name": "_mintMPTokenAmount",
          "type": "uint256"
        },
        {
          "indexed": false,
          "internalType": "uint256",
          "name": "_addedValue",
          "type": "uint256"
        }
      ],
      "name": "capitalAdded",
      "type": "event"
    },
    {
      "anonymous": false,
      "inputs": [
        {
          "indexed": false,
          "internalType": "address",
          "name": "_recipient",
          "type": "address"
        },
        {
          "indexed": false,
          "internalType": "uint256",
          "name": "_burnMPTokenAmount",
          "type": "uint256"
        },
        {
          "indexed": false,
          "internalType": "uint256",
          "name": "_withdrawValue",
          "type": "uint256"
        }
      ],
      "name": "capitalWithdrawn",
      "type": "event"
    },
    {
      "anonymous": false,
      "inputs": [
        {
          "indexed": true,
          "internalType": "address",
          "name": "_purchaser",
          "type": "address"
        },
        {
          "components": [
            {
              "internalType": "enum OptionLibrary.PayoffType",
              "name": "poType",
              "type": "uint8"
            },
            {
              "internalType": "enum OptionLibrary.OptionSide",
              "name": "side",
              "type": "uint8"
            },
            {
              "internalType": "enum OptionLibrary.OptionStatus",
              "name": "status",
              "type": "uint8"
            },
            {
              "internalType": "address",
              "name": "holder",
              "type": "address"
            },
            {
              "internalType": "uint256",
              "name": "id",
              "type": "uint256"
            },
            {
              "internalType": "uint256",
              "name": "createTime",
              "type": "uint256"
            },
            {
              "internalType": "uint256",
              "name": "effectiveTime",
              "type": "uint256"
            },
            {
              "internalType": "uint256",
              "name": "tenor",
              "type": "uint256"
            },
            {
              "internalType": "uint256",
              "name": "maturity",
              "type": "uint256"
            },
            {
              "internalType": "uint256",
              "name": "exerciseTime",
              "type": "uint256"
            },
            {
              "internalType": "uint256",
              "name": "amount",
              "type": "uint256"
            },
            {
              "internalType": "uint256",
              "name": "spot",
              "type": "uint256"
            },
            {
              "internalType": "uint256",
              "name": "strike",
              "type": "uint256"
            },
            {
              "internalType": "uint256",
              "name": "volatility",
              "type": "uint256"
            },
            {
              "internalType": "uint256",
              "name": "premium",
              "type": "uint256"
            },
            {
              "internalType": "uint256",
              "name": "cost",
              "type": "uint256"
            }
          ],
          "indexed": false,
          "internalType": "struct OptionLibrary.Option",
          "name": "_option",
          "type": "tuple"
        },
        {
          "indexed": false,
          "internalType": "uint256",
          "name": "_cost",
          "type": "uint256"
        },
        {
          "indexed": false,
          "internalType": "bool",
          "name": "_inVol",
          "type": "bool"
        }
      ],
      "name": "newOptionBought",
      "type": "event"
    },
    {
      "anonymous": false,
      "inputs": [
        {
          "indexed": false,
          "internalType": "address",
          "name": "_purchaser",
          "type": "address"
        },
        {
          "indexed": false,
          "internalType": "uint256",
          "name": "_time",
          "type": "uint256"
        },
        {
          "indexed": false,
          "internalType": "uint256",
          "name": "_tenor",
          "type": "uint256"
        },
        {
          "indexed": false,
          "internalType": "uint256",
          "name": "_amount",
          "type": "uint256"
        }
      ],
      "name": "newVolatilityTokenBought",
      "type": "event"
    },
    {
      "anonymous": false,
      "inputs": [
        {
          "indexed": true,
          "internalType": "address",
          "name": "_purchaser",
          "type": "address"
        },
        {
          "components": [
            {
              "internalType": "enum OptionLibrary.PayoffType",
              "name": "poType",
              "type": "uint8"
            },
            {
              "internalType": "enum OptionLibrary.OptionSide",
              "name": "side",
              "type": "uint8"
            },
            {
              "internalType": "enum OptionLibrary.OptionStatus",
              "name": "status",
              "type": "uint8"
            },
            {
              "internalType": "address",
              "name": "holder",
              "type": "address"
            },
            {
              "internalType": "uint256",
              "name": "id",
              "type": "uint256"
            },
            {
              "internalType": "uint256",
              "name": "createTime",
              "type": "uint256"
            },
            {
              "internalType": "uint256",
              "name": "effectiveTime",
              "type": "uint256"
            },
            {
              "internalType": "uint256",
              "name": "tenor",
              "type": "uint256"
            },
            {
              "internalType": "uint256",
              "name": "maturity",
              "type": "uint256"
            },
            {
              "internalType": "uint256",
              "name": "exerciseTime",
              "type": "uint256"
            },
            {
              "internalType": "uint256",
              "name": "amount",
              "type": "uint256"
            },
            {
              "internalType": "uint256",
              "name": "spot",
              "type": "uint256"
            },
            {
              "internalType": "uint256",
              "name": "strike",
              "type": "uint256"
            },
            {
              "internalType": "uint256",
              "name": "volatility",
              "type": "uint256"
            },
            {
              "internalType": "uint256",
              "name": "premium",
              "type": "uint256"
            },
            {
              "internalType": "uint256",
              "name": "cost",
              "type": "uint256"
            }
          ],
          "indexed": false,
          "internalType": "struct OptionLibrary.Option",
          "name": "_option",
          "type": "tuple"
        },
        {
          "indexed": false,
          "internalType": "uint256",
          "name": "_payoff",
          "type": "uint256"
        }
      ],
      "name": "optionExercised",
      "type": "event"
    },
    {
      "inputs": [],
      "name": "ADMIN_ROLE",
      "outputs": [
        {
          "internalType": "bytes32",
          "name": "",
          "type": "bytes32"
        }
      ],
      "stateMutability": "view",
      "type": "function",
      "constant": true
    },
    {
      "inputs": [],
      "name": "DEFAULT_ADMIN_ROLE",
      "outputs": [
        {
          "internalType": "bytes32",
          "name": "",
          "type": "bytes32"
        }
      ],
      "stateMutability": "view",
      "type": "function",
      "constant": true
    },
    {
      "inputs": [],
      "name": "EXCHANGE_ROLE",
      "outputs": [
        {
          "internalType": "bytes32",
          "name": "",
          "type": "bytes32"
        }
      ],
      "stateMutability": "view",
      "type": "function",
      "constant": true
    },
    {
      "inputs": [],
      "name": "MINER_ROLE",
      "outputs": [
        {
          "internalType": "bytes32",
          "name": "",
          "type": "bytes32"
        }
      ],
      "stateMutability": "view",
      "type": "function",
      "constant": true
    },
    {
      "inputs": [],
      "name": "aaveAddressProviderAddress",
      "outputs": [
        {
          "internalType": "address",
          "name": "",
          "type": "address"
        }
      ],
      "stateMutability": "view",
      "type": "function",
      "constant": true
    },
    {
      "inputs": [
        {
          "internalType": "address",
          "name": "owner",
          "type": "address"
        },
        {
          "internalType": "address",
          "name": "spender",
          "type": "address"
        }
      ],
      "name": "allowance",
      "outputs": [
        {
          "internalType": "uint256",
          "name": "",
          "type": "uint256"
        }
      ],
      "stateMutability": "view",
      "type": "function",
      "constant": true
    },
    {
      "inputs": [
        {
          "internalType": "address",
          "name": "spender",
          "type": "address"
        },
        {
          "internalType": "uint256",
          "name": "amount",
          "type": "uint256"
        }
      ],
      "name": "approve",
      "outputs": [
        {
          "internalType": "bool",
          "name": "",
          "type": "bool"
        }
      ],
      "stateMutability": "nonpayable",
      "type": "function"
    },
    {
      "inputs": [
        {
          "internalType": "address",
          "name": "account",
          "type": "address"
        }
      ],
      "name": "balanceOf",
      "outputs": [
        {
          "internalType": "uint256",
          "name": "",
          "type": "uint256"
        }
      ],
      "stateMutability": "view",
      "type": "function",
      "constant": true
    },
    {
      "inputs": [],
      "name": "decimals",
      "outputs": [
        {
          "internalType": "uint8",
          "name": "",
          "type": "uint8"
        }
      ],
      "stateMutability": "view",
      "type": "function",
      "constant": true
    },
    {
      "inputs": [
        {
          "internalType": "address",
          "name": "spender",
          "type": "address"
        },
        {
          "internalType": "uint256",
          "name": "subtractedValue",
          "type": "uint256"
        }
      ],
      "name": "decreaseAllowance",
      "outputs": [
        {
          "internalType": "bool",
          "name": "",
          "type": "bool"
        }
      ],
      "stateMutability": "nonpayable",
      "type": "function"
    },
    {
      "inputs": [],
      "name": "exerciseFee",
      "outputs": [
        {
          "internalType": "uint256",
          "name": "",
          "type": "uint256"
        }
      ],
      "stateMutability": "view",
      "type": "function",
      "constant": true
    },
    {
      "inputs": [],
      "name": "fundingAddress",
      "outputs": [
        {
          "internalType": "address",
          "name": "",
          "type": "address"
        }
      ],
      "stateMutability": "view",
      "type": "function",
      "constant": true
    },
    {
      "inputs": [
        {
          "internalType": "bytes32",
          "name": "role",
          "type": "bytes32"
        }
      ],
      "name": "getRoleAdmin",
      "outputs": [
        {
          "internalType": "bytes32",
          "name": "",
          "type": "bytes32"
        }
      ],
      "stateMutability": "view",
      "type": "function",
      "constant": true
    },
    {
      "inputs": [
        {
          "internalType": "bytes32",
          "name": "role",
          "type": "bytes32"
        },
        {
          "internalType": "address",
          "name": "account",
          "type": "address"
        }
      ],
      "name": "grantRole",
      "outputs": [],
      "stateMutability": "nonpayable",
      "type": "function"
    },
    {
      "inputs": [
        {
          "internalType": "bytes32",
          "name": "role",
          "type": "bytes32"
        },
        {
          "internalType": "address",
          "name": "account",
          "type": "address"
        }
      ],
      "name": "hasRole",
      "outputs": [
        {
          "internalType": "bool",
          "name": "",
          "type": "bool"
        }
      ],
      "stateMutability": "view",
      "type": "function",
      "constant": true
    },
    {
      "inputs": [
        {
          "internalType": "address",
          "name": "spender",
          "type": "address"
        },
        {
          "internalType": "uint256",
          "name": "addedValue",
          "type": "uint256"
        }
      ],
      "name": "increaseAllowance",
      "outputs": [
        {
          "internalType": "bool",
          "name": "",
          "type": "bool"
        }
      ],
      "stateMutability": "nonpayable",
      "type": "function"
    },
    {
      "inputs": [],
      "name": "lendingPoolRateMode",
      "outputs": [
        {
          "internalType": "uint256",
          "name": "",
          "type": "uint256"
        }
      ],
      "stateMutability": "view",
      "type": "function",
      "constant": true
    },
    {
      "inputs": [],
      "name": "maintenanceAddress",
      "outputs": [
        {
          "internalType": "address",
          "name": "",
          "type": "address"
        }
      ],
      "stateMutability": "view",
      "type": "function",
      "constant": true
    },
    {
      "inputs": [],
      "name": "name",
      "outputs": [
        {
          "internalType": "string",
          "name": "",
          "type": "string"
        }
      ],
      "stateMutability": "view",
      "type": "function",
      "constant": true
    },
    {
      "inputs": [
        {
          "internalType": "bytes32",
          "name": "role",
          "type": "bytes32"
        },
        {
          "internalType": "address",
          "name": "account",
          "type": "address"
        }
      ],
      "name": "renounceRole",
      "outputs": [],
      "stateMutability": "nonpayable",
      "type": "function"
    },
    {
      "inputs": [
        {
          "internalType": "bytes32",
          "name": "role",
          "type": "bytes32"
        },
        {
          "internalType": "address",
          "name": "account",
          "type": "address"
        }
      ],
      "name": "revokeRole",
      "outputs": [],
      "stateMutability": "nonpayable",
      "type": "function"
    },
    {
      "inputs": [],
      "name": "settlementFee",
      "outputs": [
        {
          "internalType": "uint256",
          "name": "",
          "type": "uint256"
        }
      ],
      "stateMutability": "view",
      "type": "function",
      "constant": true
    },
    {
      "inputs": [
        {
          "internalType": "bytes4",
          "name": "interfaceId",
          "type": "bytes4"
        }
      ],
      "name": "supportsInterface",
      "outputs": [
        {
          "internalType": "bool",
          "name": "",
          "type": "bool"
        }
      ],
      "stateMutability": "view",
      "type": "function",
      "constant": true
    },
    {
      "inputs": [],
      "name": "swapSlippage",
      "outputs": [
        {
          "internalType": "uint256",
          "name": "",
          "type": "uint256"
        }
      ],
      "stateMutability": "view",
      "type": "function",
      "constant": true
    },
    {
      "inputs": [],
      "name": "symbol",
      "outputs": [
        {
          "internalType": "string",
          "name": "",
          "type": "string"
        }
      ],
      "stateMutability": "view",
      "type": "function",
      "constant": true
    },
    {
      "inputs": [],
      "name": "totalSupply",
      "outputs": [
        {
          "internalType": "uint256",
          "name": "",
          "type": "uint256"
        }
      ],
      "stateMutability": "view",
      "type": "function",
      "constant": true
    },
    {
      "inputs": [
        {
          "internalType": "address",
          "name": "recipient",
          "type": "address"
        },
        {
          "internalType": "uint256",
          "name": "amount",
          "type": "uint256"
        }
      ],
      "name": "transfer",
      "outputs": [
        {
          "internalType": "bool",
          "name": "",
          "type": "bool"
        }
      ],
      "stateMutability": "nonpayable",
      "type": "function"
    },
    {
      "inputs": [
        {
          "internalType": "address",
          "name": "sender",
          "type": "address"
        },
        {
          "internalType": "address",
          "name": "recipient",
          "type": "address"
        },
        {
          "internalType": "uint256",
          "name": "amount",
          "type": "uint256"
        }
      ],
      "name": "transferFrom",
      "outputs": [
        {
          "internalType": "bool",
          "name": "",
          "type": "bool"
        }
      ],
      "stateMutability": "nonpayable",
      "type": "function"
    },
    {
      "inputs": [],
      "name": "underlyingAddress",
      "outputs": [
        {
          "internalType": "address",
          "name": "",
          "type": "address"
        }
      ],
      "stateMutability": "view",
      "type": "function",
      "constant": true
    },
    {
      "inputs": [],
      "name": "vaultAddress",
      "outputs": [
        {
          "internalType": "address",
          "name": "",
          "type": "address"
        }
      ],
      "stateMutability": "view",
      "type": "function",
      "constant": true
    },
    {
      "inputs": [],
      "name": "getBalances",
      "outputs": [
        {
          "internalType": "uint256",
          "name": "_underlyingBalance",
          "type": "uint256"
        },
        {
          "internalType": "uint256",
          "name": "_fundingBalance",
          "type": "uint256"
        },
        {
          "internalType": "uint256",
          "name": "_collateralBalance",
          "type": "uint256"
        },
        {
          "internalType": "uint256",
          "name": "_debtBalance",
          "type": "uint256"
        }
      ],
      "stateMutability": "view",
      "type": "function",
      "constant": true
    },
    {
      "inputs": [
        {
          "internalType": "address",
          "name": "exerciseFeeRecipient",
          "type": "address"
        }
      ],
      "name": "expireOptions",
      "outputs": [],
      "stateMutability": "nonpayable",
      "type": "function"
    },
    {
      "inputs": [
        {
          "internalType": "bool",
          "name": "_net",
          "type": "bool"
        },
        {
          "internalType": "bool",
          "name": "_average",
          "type": "bool"
        }
      ],
      "name": "calcCapital",
      "outputs": [
        {
          "internalType": "uint256",
          "name": "_capital",
          "type": "uint256"
        }
      ],
      "stateMutability": "view",
      "type": "function",
      "constant": true
    },
    {
      "inputs": [
        {
          "internalType": "uint256",
          "name": "_depositAmount",
          "type": "uint256"
        }
      ],
      "name": "addCapital",
      "outputs": [],
      "stateMutability": "nonpayable",
      "type": "function"
    },
    {
      "inputs": [
        {
          "internalType": "uint256",
          "name": "_burnMPTokenAmount",
          "type": "uint256"
        }
      ],
      "name": "withdrawCapital",
      "outputs": [],
      "stateMutability": "nonpayable",
      "type": "function"
    },
    {
      "inputs": [
        {
          "internalType": "address",
          "name": "_tokenAddress",
          "type": "address"
        },
        {
          "internalType": "address",
          "name": "_spenderAddress",
          "type": "address"
        },
        {
          "internalType": "uint256",
          "name": "_amount",
          "type": "uint256"
        }
      ],
      "name": "approveSpending",
      "outputs": [],
      "stateMutability": "nonpayable",
      "type": "function"
    },
    {
      "inputs": [],
      "name": "calcHedgeTradesForSwaps",
      "outputs": [
        {
          "internalType": "int256",
          "name": "_tradeUnderlyingAmount",
          "type": "int256"
        },
        {
          "internalType": "int256",
          "name": "_tradeFundingAmount",
          "type": "int256"
        }
      ],
      "stateMutability": "view",
      "type": "function",
      "constant": true
    },
    {
      "inputs": [],
      "name": "calcHedgeTradesForLoans",
      "outputs": [
        {
          "internalType": "int256",
          "name": "_loanTradeAmount",
          "type": "int256"
        },
        {
          "internalType": "int256",
          "name": "_collateralChange",
          "type": "int256"
        },
        {
          "internalType": "address",
          "name": "_loanAddress",
          "type": "address"
        },
        {
          "internalType": "address",
          "name": "_collateralAddress",
          "type": "address"
        }
      ],
      "stateMutability": "view",
      "type": "function",
      "constant": true
    },
    {
      "inputs": [
        {
          "internalType": "uint256",
          "name": "_newFee",
          "type": "uint256"
        }
      ],
      "name": "resetSettlementFee",
      "outputs": [],
      "stateMutability": "nonpayable",
      "type": "function"
    },
    {
      "inputs": [
        {
          "internalType": "uint256",
          "name": "_newFee",
          "type": "uint256"
        }
      ],
      "name": "resetExerciseFee",
      "outputs": [],
      "stateMutability": "nonpayable",
      "type": "function"
    },
    {
      "inputs": [
        {
          "internalType": "uint256",
          "name": "_slippage",
          "type": "uint256"
        }
      ],
      "name": "resetSlippage",
      "outputs": [],
      "stateMutability": "nonpayable",
      "type": "function"
    },
    {
      "inputs": [
        {
          "internalType": "uint256",
          "name": "_newRateMode",
          "type": "uint256"
        }
      ],
      "name": "resetLendingPoolRateMode",
      "outputs": [],
      "stateMutability": "nonpayable",
      "type": "function"
    },
    {
      "inputs": [
        {
          "internalType": "address",
          "name": "_address",
          "type": "address"
        }
      ],
      "name": "getHoldersOptionCount",
      "outputs": [
        {
          "internalType": "uint256",
          "name": "",
          "type": "uint256"
        }
      ],
      "stateMutability": "view",
      "type": "function",
      "constant": true
    },
    {
      "inputs": [
        {
          "internalType": "uint256",
          "name": "_index",
          "type": "uint256"
        },
        {
          "internalType": "address",
          "name": "_address",
          "type": "address"
        }
      ],
      "name": "getHoldersOption",
      "outputs": [
        {
          "components": [
            {
              "internalType": "enum OptionLibrary.PayoffType",
              "name": "poType",
              "type": "uint8"
            },
            {
              "internalType": "enum OptionLibrary.OptionSide",
              "name": "side",
              "type": "uint8"
            },
            {
              "internalType": "enum OptionLibrary.OptionStatus",
              "name": "status",
              "type": "uint8"
            },
            {
              "internalType": "address",
              "name": "holder",
              "type": "address"
            },
            {
              "internalType": "uint256",
              "name": "id",
              "type": "uint256"
            },
            {
              "internalType": "uint256",
              "name": "createTime",
              "type": "uint256"
            },
            {
              "internalType": "uint256",
              "name": "effectiveTime",
              "type": "uint256"
            },
            {
              "internalType": "uint256",
              "name": "tenor",
              "type": "uint256"
            },
            {
              "internalType": "uint256",
              "name": "maturity",
              "type": "uint256"
            },
            {
              "internalType": "uint256",
              "name": "exerciseTime",
              "type": "uint256"
            },
            {
              "internalType": "uint256",
              "name": "amount",
              "type": "uint256"
            },
            {
              "internalType": "uint256",
              "name": "spot",
              "type": "uint256"
            },
            {
              "internalType": "uint256",
              "name": "strike",
              "type": "uint256"
            },
            {
              "internalType": "uint256",
              "name": "volatility",
              "type": "uint256"
            },
            {
              "internalType": "uint256",
              "name": "premium",
              "type": "uint256"
            },
            {
              "internalType": "uint256",
              "name": "cost",
              "type": "uint256"
            }
          ],
          "internalType": "struct OptionLibrary.Option",
          "name": "",
          "type": "tuple"
        }
      ],
      "stateMutability": "view",
      "type": "function",
      "constant": true
    },
    {
      "inputs": [],
      "name": "anyOptionExpiring",
      "outputs": [
        {
          "internalType": "bool",
          "name": "",
          "type": "bool"
        }
      ],
      "stateMutability": "view",
      "type": "function",
      "constant": true
    }
  ],
  "bytecode": "0x6080604052670de0b6b3a76400006006556611c37937e080006007556611c37937e080006008556002600f556611c37937e080006010553480156200004357600080fd5b506040516200651c3803806200651c8339818101604052810190620000699190620008a0565b8585816003908051906020019062000083929190620005ee565b5080600490805190602001906200009c929190620005ee565b505050620000b46000801b33620002f060201b60201c565b620000e67fa49807205ce4d355092ef5a8a18f56e8913cf4a201fbe287825b095693c2177533620002f060201b60201c565b620001187f28d62fc77014de57a1bbaa8212ff0979fa61ab00d377b4b8d9762048fb41996133620002f060201b60201c565b6200014a7fa952726ef2588ad078edf35b066f7c7406e207cb0003bbaba8cb53eba9553e7233620002f060201b60201c565b33600d60006101000a81548173ffffffffffffffffffffffffffffffffffffffff021916908373ffffffffffffffffffffffffffffffffffffffff16021790555082600b60006101000a81548173ffffffffffffffffffffffffffffffffffffffff021916908373ffffffffffffffffffffffffffffffffffffffff16021790555083600a60006101000a81548173ffffffffffffffffffffffffffffffffffffffff021916908373ffffffffffffffffffffffffffffffffffffffff16021790555081600c60006101000a81548173ffffffffffffffffffffffffffffffffffffffff021916908373ffffffffffffffffffffffffffffffffffffffff16021790555081600960006101000a81548173ffffffffffffffffffffffffffffffffffffffff021916908373ffffffffffffffffffffffffffffffffffffffff16021790555080600e60006101000a81548173ffffffffffffffffffffffffffffffffffffffff021916908373ffffffffffffffffffffffffffffffffffffffff160217905550620002e4336006546200030660201b60201c565b50505050505062000b26565b6200030282826200047f60201b60201c565b5050565b600073ffffffffffffffffffffffffffffffffffffffff168273ffffffffffffffffffffffffffffffffffffffff16141562000379576040517f08c379a00000000000000000000000000000000000000000000000000000000081526004016200037090620009db565b60405180910390fd5b6200038d600083836200057160201b60201c565b8060026000828254620003a1919062000a36565b92505081905550806000808473ffffffffffffffffffffffffffffffffffffffff1673ffffffffffffffffffffffffffffffffffffffff1681526020019081526020016000206000828254620003f8919062000a36565b925050819055508173ffffffffffffffffffffffffffffffffffffffff16600073ffffffffffffffffffffffffffffffffffffffff167fddf252ad1be2c89b69c2b068fc378daa952ba7f163c4a11628f55a4df523b3ef836040516200045f919062000aa4565b60405180910390a36200047b600083836200057660201b60201c565b5050565b6200049182826200057b60201b60201c565b6200056d5760016005600084815260200190815260200160002060000160008373ffffffffffffffffffffffffffffffffffffffff1673ffffffffffffffffffffffffffffffffffffffff16815260200190815260200160002060006101000a81548160ff02191690831515021790555062000512620005e660201b60201c565b73ffffffffffffffffffffffffffffffffffffffff168173ffffffffffffffffffffffffffffffffffffffff16837f2f8788117e7eff1d82e926ec794901d17c78024a50270940304540a733656f0d60405160405180910390a45b5050565b505050565b505050565b60006005600084815260200190815260200160002060000160008373ffffffffffffffffffffffffffffffffffffffff1673ffffffffffffffffffffffffffffffffffffffff16815260200190815260200160002060009054906101000a900460ff16905092915050565b600033905090565b828054620005fc9062000af0565b90600052602060002090601f0160209004810192826200062057600085556200066c565b82601f106200063b57805160ff19168380011785556200066c565b828001600101855582156200066c579182015b828111156200066b5782518255916020019190600101906200064e565b5b5090506200067b91906200067f565b5090565b5b808211156200069a57600081600090555060010162000680565b5090565b6000604051905090565b600080fd5b600080fd5b600080fd5b600080fd5b6000601f19601f8301169050919050565b7f4e487b7100000000000000000000000000000000000000000000000000000000600052604160045260246000fd5b6200070782620006bc565b810181811067ffffffffffffffff82111715620007295762000728620006cd565b5b80604052505050565b60006200073e6200069e565b90506200074c8282620006fc565b919050565b600067ffffffffffffffff8211156200076f576200076e620006cd565b5b6200077a82620006bc565b9050602081019050919050565b60005b83811015620007a75780820151818401526020810190506200078a565b83811115620007b7576000848401525b50505050565b6000620007d4620007ce8462000751565b62000732565b905082815260208101848484011115620007f357620007f2620006b7565b5b6200080084828562000787565b509392505050565b600082601f83011262000820576200081f620006b2565b5b815162000832848260208601620007bd565b91505092915050565b600073ffffffffffffffffffffffffffffffffffffffff82169050919050565b600062000868826200083b565b9050919050565b6200087a816200085b565b81146200088657600080fd5b50565b6000815190506200089a816200086f565b92915050565b60008060008060008060c08789031215620008c057620008bf620006a8565b5b600087015167ffffffffffffffff811115620008e157620008e0620006ad565b5b620008ef89828a0162000808565b965050602087015167ffffffffffffffff811115620009135762000912620006ad565b5b6200092189828a0162000808565b95505060406200093489828a0162000889565b94505060606200094789828a0162000889565b93505060806200095a89828a0162000889565b92505060a06200096d89828a0162000889565b9150509295509295509295565b600082825260208201905092915050565b7f45524332303a206d696e7420746f20746865207a65726f206164647265737300600082015250565b6000620009c3601f836200097a565b9150620009d0826200098b565b602082019050919050565b60006020820190508181036000830152620009f681620009b4565b9050919050565b6000819050919050565b7f4e487b7100000000000000000000000000000000000000000000000000000000600052601160045260246000fd5b600062000a4382620009fd565b915062000a5083620009fd565b9250827fffffffffffffffffffffffffffffffffffffffffffffffffffffffffffffffff0382111562000a885762000a8762000a07565b5b828201905092915050565b62000a9e81620009fd565b82525050565b600060208201905062000abb600083018462000a93565b92915050565b7f4e487b7100000000000000000000000000000000000000000000000000000000600052602260045260246000fd5b6000600282049050600182168062000b0957607f821691505b6020821081141562000b205762000b1f62000ac1565b5b50919050565b6159e68062000b366000396000f3fe608060405234801561001057600080fd5b506004361061027e5760003560e01c8063719d5f831161015c578063a9059cbb116100ce578063d8a14cbe11610087578063d8a14cbe146107e3578063d95b0a12146107ff578063dd62ed3e1461081b578063e3f828fa1461084b578063ecc513f014610867578063ed7dfbdf146108835761027e565b8063a9059cbb14610721578063b82e106d14610751578063bea10f961461076f578063d1c699aa1461078b578063d3b7bfb4146107a9578063d547741f146107c75761027e565b806391d148541161012057806391d148541461063757806395d89b4114610667578063967ad68b14610685578063a217fddf146106a3578063a42b6626146106c1578063a457c2d7146106f15761027e565b8063719d5f831461058f57806375b238fc146105ad5780637d1d7fb8146105cb5780638a0687d2146105e957806390618ed9146106195761027e565b80632f2ff15d116101f5578063430bf08a116101b9578063430bf08a146104b857806346c777d8146104d65780635fb1b1a6146104f257806363447902146105115780636394f6e61461054157806370a082311461055f5761027e565b80632f2ff15d14610414578063313ce5671461043057806336568abe1461044e578063395093511461046a5780633b7345011461049a5761027e565b8063095ea7b311610247578063095ea7b31461032a57806318160ddd1461035a5780631aedeabe146103785780632140ea671461039657806323b872dd146103b4578063248a9ca3146103e45761027e565b8062113e081461028357806301ffc9a7146102a457806306fdde03146102d457806307ba08ce146102f25780630837ecfd1461030e575b600080fd5b61028b6108a4565b60405161029b9493929190613cb1565b60405180910390f35b6102be60048036038101906102b99190613d5d565b610acb565b6040516102cb9190613da5565b60405180910390f35b6102dc610b45565b6040516102e99190613e59565b60405180910390f35b61030c60048036038101906103079190613ed9565b610bd7565b005b61032860048036038101906103239190613f32565b61155e565b005b610344600480360381019061033f9190613f5f565b6115b3565b6040516103519190613da5565b60405180910390f35b6103626115d1565b60405161036f9190613f9f565b60405180910390f35b6103806115db565b60405161038d9190613f9f565b60405180910390f35b61039e6115e1565b6040516103ab9190613fc9565b60405180910390f35b6103ce60048036038101906103c99190613fe4565b611607565b6040516103db9190613da5565b60405180910390f35b6103fe60048036038101906103f9919061406d565b6116ff565b60405161040b91906140a9565b60405180910390f35b61042e600480360381019061042991906140c4565b61171f565b005b610438611748565b6040516104459190614120565b60405180910390f35b610468600480360381019061046391906140c4565b611751565b005b610484600480360381019061047f9190613f5f565b6117d4565b6040516104919190613da5565b60405180910390f35b6104a2611880565b6040516104af91906140a9565b60405180910390f35b6104c06118a4565b6040516104cd9190613fc9565b60405180910390f35b6104f060048036038101906104eb9190613f32565b6118ca565b005b6104fa611915565b604051610508929190614154565b60405180910390f35b61052b600480360381019061052691906141a9565b611cb2565b6040516105389190613f9f565b60405180910390f35b610549611f2a565b60405161055691906140a9565b60405180910390f35b61057960048036038101906105749190613ed9565b611f4e565b6040516105869190613f9f565b60405180910390f35b610597611f96565b6040516105a49190613fc9565b60405180910390f35b6105b5611fbc565b6040516105c291906140a9565b60405180910390f35b6105d3611fe0565b6040516105e09190613f9f565b60405180910390f35b61060360048036038101906105fe91906141e9565b611fe6565b6040516106109190614498565b60405180910390f35b6106216120a4565b60405161062e9190613da5565b60405180910390f35b610651600480360381019061064c91906140c4565b61214b565b60405161065e9190613da5565b60405180910390f35b61066f6121b6565b60405161067c9190613e59565b60405180910390f35b61068d612248565b60405161069a9190613fc9565b60405180910390f35b6106ab61226e565b6040516106b891906140a9565b60405180910390f35b6106db60048036038101906106d69190613ed9565b612275565b6040516106e89190613f9f565b60405180910390f35b61070b60048036038101906107069190613f5f565b612329565b6040516107189190613da5565b60405180910390f35b61073b60048036038101906107369190613f5f565b612414565b6040516107489190613da5565b60405180910390f35b610759612432565b6040516107669190613f9f565b60405180910390f35b61078960048036038101906107849190613f32565b612438565b005b610793612601565b6040516107a09190613f9f565b60405180910390f35b6107b1612607565b6040516107be9190613fc9565b60405180910390f35b6107e160048036038101906107dc91906140c4565b61262d565b005b6107fd60048036038101906107f89190613fe4565b612656565b005b61081960048036038101906108149190613f32565b61271c565b005b610835600480360381019061083091906144b4565b6129ce565b6040516108429190613f9f565b60405180910390f35b61086560048036038101906108609190613f32565b612a55565b005b610881600480360381019061087c9190613f32565b612a92565b005b61088b612add565b60405161089b94939291906144f4565b60405180910390f35b6000806000806000600e60009054906101000a900473ffffffffffffffffffffffffffffffffffffffff1673ffffffffffffffffffffffffffffffffffffffff166321f8a7216040518163ffffffff1660e01b81526004016109059061455f565b60206040518083038186803b15801561091d57600080fd5b505afa158015610931573d6000803e3d6000fd5b505050506040513d601f19601f82011682018060405250810190610955919061458d565b905073__MarketLibrary_________________________6332c21e133083600a60009054906101000a900473ffffffffffffffffffffffffffffffffffffffff166040518463ffffffff1660e01b81526004016109b4939291906145c9565b60606040518083038186803b1580156109cc57600080fd5b505af41580156109e0573d6000803e3d6000fd5b505050506040513d601f19601f82011682018060405250810190610a049190614615565b9050809350819650505073__MarketLibrary_________________________6332c21e133083600b60009054906101000a900473ffffffffffffffffffffffffffffffffffffffff166040518463ffffffff1660e01b8152600401610a6b939291906145c9565b60606040518083038186803b158015610a8357600080fd5b505af4158015610a97573d6000803e3d6000fd5b505050506040513d601f19601f82011682018060405250810190610abb9190614615565b5080945081955050505090919293565b60007f7965db0b000000000000000000000000000000000000000000000000000000007bffffffffffffffffffffffffffffffffffffffffffffffffffffffff1916827bffffffffffffffffffffffffffffffffffffffffffffffffffffffff19161480610b3e5750610b3d82612e1f565b5b9050919050565b606060038054610b5490614697565b80601f0160208091040260200160405190810160405280929190818152602001828054610b8090614697565b8015610bcd5780601f10610ba257610100808354040283529160200191610bcd565b820191906000526020600020905b815481529060010190602001808311610bb057829003601f168201915b5050505050905090565b6000600960009054906101000a900473ffffffffffffffffffffffffffffffffffffffff1673ffffffffffffffffffffffffffffffffffffffff16637652e7c46040518163ffffffff1660e01b815260040160206040518083038186803b158015610c4157600080fd5b505afa158015610c55573d6000803e3d6000fd5b505050506040513d601f19601f82011682018060405250810190610c7991906146c9565b90505b600081111561155a57600960009054906101000a900473ffffffffffffffffffffffffffffffffffffffff1673ffffffffffffffffffffffffffffffffffffffff1663637baf60826040518263ffffffff1660e01b8152600401610ce09190613f9f565b600060405180830381600087803b158015610cfa57600080fd5b505af1158015610d0e573d6000803e3d6000fd5b50505050600080600960009054906101000a900473ffffffffffffffffffffffffffffffffffffffff1673ffffffffffffffffffffffffffffffffffffffff166385ae10e6846040518263ffffffff1660e01b8152600401610d709190613f9f565b604080518083038186803b158015610d8757600080fd5b505afa158015610d9b573d6000803e3d6000fd5b505050506040513d601f19601f82011682018060405250810190610dbf91906146f6565b9150915073__MarketLibrary_________________________63eea2526b600b60009054906101000a900473ffffffffffffffffffffffffffffffffffffffff16306040518363ffffffff1660e01b8152600401610e1e929190614736565b60206040518083038186803b158015610e3657600080fd5b505af4158015610e4a573d6000803e3d6000fd5b505050506040513d601f19601f82011682018060405250810190610e6e91906146c9565b8110610eaf576040517f08c379a0000000000000000000000000000000000000000000000000000000008152600401610ea6906147ab565b60405180910390fd5b60008111156114b1576000818314610ec75781610ef1565b610ef082600854600754600654610ede91906147fa565b610ee891906147fa565b600654612e89565b5b90506000610f0484600754600654612e89565b90506000610f1785600854600654612e89565b9050600b60009054906101000a900473ffffffffffffffffffffffffffffffffffffffff1673ffffffffffffffffffffffffffffffffffffffff1663a9059cbb600960009054906101000a900473ffffffffffffffffffffffffffffffffffffffff1673ffffffffffffffffffffffffffffffffffffffff16631a7985ba896040518263ffffffff1660e01b8152600401610fb29190613f9f565b60206040518083038186803b158015610fca57600080fd5b505afa158015610fde573d6000803e3d6000fd5b505050506040513d601f19601f82011682018060405250810190611002919061458d565b73__MarketLibrary_________________________638170ce8087600b60009054906101000a900473ffffffffffffffffffffffffffffffffffffffff166040518363ffffffff1660e01b815260040161105d92919061483d565b60206040518083038186803b15801561107557600080fd5b505af4158015611089573d6000803e3d6000fd5b505050506040513d601f19601f820116820180604052508101906110ad91906146c9565b6040518363ffffffff1660e01b81526004016110ca929190614866565b602060405180830381600087803b1580156110e457600080fd5b505af11580156110f8573d6000803e3d6000fd5b505050506040513d601f19601f8201168201806040525081019061111c91906148a4565b61115b576040517f08c379a00000000000000000000000000000000000000000000000000000000081526004016111529061491d565b60405180910390fd5b600b60009054906101000a900473ffffffffffffffffffffffffffffffffffffffff1673ffffffffffffffffffffffffffffffffffffffff1663a9059cbb600d60009054906101000a900473ffffffffffffffffffffffffffffffffffffffff1673__MarketLibrary_________________________638170ce8086600b60009054906101000a900473ffffffffffffffffffffffffffffffffffffffff166040518363ffffffff1660e01b815260040161121792919061483d565b60206040518083038186803b15801561122f57600080fd5b505af4158015611243573d6000803e3d6000fd5b505050506040513d601f19601f8201168201806040525081019061126791906146c9565b6040518363ffffffff1660e01b8152600401611284929190614866565b602060405180830381600087803b15801561129e57600080fd5b505af11580156112b2573d6000803e3d6000fd5b505050506040513d601f19601f820116820180604052508101906112d691906148a4565b611315576040517f08c379a000000000000000000000000000000000000000000000000000000000815260040161130c90614989565b60405180910390fd5b600b60009054906101000a900473ffffffffffffffffffffffffffffffffffffffff1673ffffffffffffffffffffffffffffffffffffffff1663a9059cbb8873__MarketLibrary_________________________638170ce8085600b60009054906101000a900473ffffffffffffffffffffffffffffffffffffffff166040518363ffffffff1660e01b81526004016113af92919061483d565b60206040518083038186803b1580156113c757600080fd5b505af41580156113db573d6000803e3d6000fd5b505050506040513d601f19601f820116820180604052508101906113ff91906146c9565b6040518363ffffffff1660e01b815260040161141c929190614866565b602060405180830381600087803b15801561143657600080fd5b505af115801561144a573d6000803e3d6000fd5b505050506040513d601f19601f8201168201806040525081019061146e91906148a4565b6114ad576040517f08c379a00000000000000000000000000000000000000000000000000000000081526004016114a4906149f5565b60405180910390fd5b5050505b600960009054906101000a900473ffffffffffffffffffffffffffffffffffffffff1673ffffffffffffffffffffffffffffffffffffffff16637652e7c46040518163ffffffff1660e01b815260040160206040518083038186803b15801561151957600080fd5b505afa15801561152d573d6000803e3d6000fd5b505050506040513d601f19601f8201168201806040525081019061155191906146c9565b92505050610c7c565b5050565b7fa49807205ce4d355092ef5a8a18f56e8913cf4a201fbe287825b095693c217756115908161158b612f85565b612f8d565b600182148061159f5750600282145b6115a857600080fd5b81600f819055505050565b60006115c76115c0612f85565b848461302a565b6001905092915050565b6000600254905090565b60105481565b600a60009054906101000a900473ffffffffffffffffffffffffffffffffffffffff1681565b60006116148484846131f5565b6000600160008673ffffffffffffffffffffffffffffffffffffffff1673ffffffffffffffffffffffffffffffffffffffff168152602001908152602001600020600061165f612f85565b73ffffffffffffffffffffffffffffffffffffffff1673ffffffffffffffffffffffffffffffffffffffff168152602001908152602001600020549050828110156116df576040517f08c379a00000000000000000000000000000000000000000000000000000000081526004016116d690614a87565b60405180910390fd5b6116f3856116eb612f85565b85840361302a565b60019150509392505050565b600060056000838152602001908152602001600020600101549050919050565b611728826116ff565b61173981611734612f85565b612f8d565b6117438383613476565b505050565b60006012905090565b611759612f85565b73ffffffffffffffffffffffffffffffffffffffff168173ffffffffffffffffffffffffffffffffffffffff16146117c6576040517f08c379a00000000000000000000000000000000000000000000000000000000081526004016117bd90614b19565b60405180910390fd5b6117d08282613557565b5050565b60006118766117e1612f85565b8484600160006117ef612f85565b73ffffffffffffffffffffffffffffffffffffffff1673ffffffffffffffffffffffffffffffffffffffff16815260200190815260200160002060008873ffffffffffffffffffffffffffffffffffffffff1673ffffffffffffffffffffffffffffffffffffffff168152602001908152602001600020546118719190614b39565b61302a565b6001905092915050565b7f28d62fc77014de57a1bbaa8212ff0979fa61ab00d377b4b8d9762048fb41996181565b600c60009054906101000a900473ffffffffffffffffffffffffffffffffffffffff1681565b7fa49807205ce4d355092ef5a8a18f56e8913cf4a201fbe287825b095693c217756118fc816118f7612f85565b612f8d565b600654821061190a57600080fd5b816007819055505050565b6000807fa952726ef2588ad078edf35b066f7c7406e207cb0003bbaba8cb53eba9553e7261194a81611945612f85565b612f8d565b600080600960009054906101000a900473ffffffffffffffffffffffffffffffffffffffff1673ffffffffffffffffffffffffffffffffffffffff166337f0882f60006040518263ffffffff1660e01b81526004016119a99190613da5565b604080518083038186803b1580156119c057600080fd5b505afa1580156119d4573d6000803e3d6000fd5b505050506040513d601f19601f820116820180604052508101906119f89190614bbb565b9150915073__MarketLibrary_________________________63eea2526b600a60009054906101000a900473ffffffffffffffffffffffffffffffffffffffff16306040518363ffffffff1660e01b8152600401611a57929190614736565b60206040518083038186803b158015611a6f57600080fd5b505af4158015611a83573d6000803e3d6000fd5b505050506040513d601f19601f82011682018060405250810190611aa791906146c9565b6000831215611ab7576000611ab9565b825b611ac39190614bfb565b945073__MarketLibrary_________________________63aa5c12c773__OptionLibrary_________________________63ca0cc13d88856010546040518463ffffffff1660e01b8152600401611b1c93929190614c9e565b60206040518083038186803b158015611b3457600080fd5b505af4158015611b48573d6000803e3d6000fd5b505050506040513d601f19601f82011682018060405250810190611b6c9190614cd5565b600b60009054906101000a900473ffffffffffffffffffffffffffffffffffffffff166040518363ffffffff1660e01b8152600401611bac929190614d02565b60206040518083038186803b158015611bc457600080fd5b505af4158015611bd8573d6000803e3d6000fd5b505050506040513d601f19601f82011682018060405250810190611bfc9190614cd5565b935073__MarketLibrary_________________________63aa5c12c786600a60009054906101000a900473ffffffffffffffffffffffffffffffffffffffff166040518363ffffffff1660e01b8152600401611c59929190614d02565b60206040518083038186803b158015611c7157600080fd5b505af4158015611c85573d6000803e3d6000fd5b505050506040513d601f19601f82011682018060405250810190611ca99190614cd5565b94505050509091565b600080600960009054906101000a900473ffffffffffffffffffffffffffffffffffffffff1673ffffffffffffffffffffffffffffffffffffffff1663b0667cf86040518163ffffffff1660e01b8152600401604080518083038186803b158015611d1c57600080fd5b505afa158015611d30573d6000803e3d6000fd5b505050506040513d601f19601f82011682018060405250810190611d5491906146f6565b509050600080600080611d656108a4565b9350935093509350611d7a8486600654612e89565b8284611d869190614b39565b611d909190614b39565b9550611d9f8186600654612e89565b8611611de0576040517f08c379a0000000000000000000000000000000000000000000000000000000008152600401611dd790614d77565b60405180910390fd5b611ded8186600654612e89565b86611df891906147fa565b95508715611ecf57611ec1611ebb600960009054906101000a900473ffffffffffffffffffffffffffffffffffffffff1673ffffffffffffffffffffffffffffffffffffffff16633b7745ab60006040518263ffffffff1660e01b8152600401611e629190613da5565b60206040518083038186803b158015611e7a57600080fd5b505afa158015611e8e573d6000803e3d6000fd5b505050506040513d601f19601f82011682018060405250810190611eb291906146c9565b87600654612e89565b87613639565b86611ecc91906147fa565b95505b8615611f1f576000611edf6115d1565b1115611efc57611ef986600654611ef46115d1565b612e89565b95505b6000611f066115d1565b148015611f135750600086145b15611f1e5760065495505b5b505050505092915050565b7fa952726ef2588ad078edf35b066f7c7406e207cb0003bbaba8cb53eba9553e7281565b60008060008373ffffffffffffffffffffffffffffffffffffffff1673ffffffffffffffffffffffffffffffffffffffff168152602001908152602001600020549050919050565b600d60009054906101000a900473ffffffffffffffffffffffffffffffffffffffff1681565b7fa49807205ce4d355092ef5a8a18f56e8913cf4a201fbe287825b095693c2177581565b60075481565b611fee613bcf565b600960009054906101000a900473ffffffffffffffffffffffffffffffffffffffff1673ffffffffffffffffffffffffffffffffffffffff16638a0687d284846040518363ffffffff1660e01b815260040161204b929190614d97565b6102006040518083038186803b15801561206457600080fd5b505afa158015612078573d6000803e3d6000fd5b505050506040513d601f19601f8201168201806040525081019061209c9190615029565b905092915050565b6000600960009054906101000a900473ffffffffffffffffffffffffffffffffffffffff1673ffffffffffffffffffffffffffffffffffffffff166390618ed96040518163ffffffff1660e01b815260040160206040518083038186803b15801561210e57600080fd5b505afa158015612122573d6000803e3d6000fd5b505050506040513d601f19601f8201168201806040525081019061214691906148a4565b905090565b60006005600084815260200190815260200160002060000160008373ffffffffffffffffffffffffffffffffffffffff1673ffffffffffffffffffffffffffffffffffffffff16815260200190815260200160002060009054906101000a900460ff16905092915050565b6060600480546121c590614697565b80601f01602080910402602001604051908101604052809291908181526020018280546121f190614697565b801561223e5780601f106122135761010080835404028352916020019161223e565b820191906000526020600020905b81548152906001019060200180831161222157829003601f168201915b5050505050905090565b600e60009054906101000a900473ffffffffffffffffffffffffffffffffffffffff1681565b6000801b81565b6000600960009054906101000a900473ffffffffffffffffffffffffffffffffffffffff1673ffffffffffffffffffffffffffffffffffffffff1663a42b6626836040518263ffffffff1660e01b81526004016122d29190613fc9565b60206040518083038186803b1580156122ea57600080fd5b505afa1580156122fe573d6000803e3d6000fd5b505050506040513d601f19601f8201168201806040525081019061232291906146c9565b9050919050565b60008060016000612338612f85565b73ffffffffffffffffffffffffffffffffffffffff1673ffffffffffffffffffffffffffffffffffffffff16815260200190815260200160002060008573ffffffffffffffffffffffffffffffffffffffff1673ffffffffffffffffffffffffffffffffffffffff168152602001908152602001600020549050828110156123f5576040517f08c379a00000000000000000000000000000000000000000000000000000000081526004016123ec906150c9565b60405180910390fd5b612409612400612f85565b8585840361302a565b600191505092915050565b6000612428612421612f85565b84846131f5565b6001905092915050565b600f5481565b60006124fc73__MarketLibrary_________________________63f0742a2584600b60009054906101000a900473ffffffffffffffffffffffffffffffffffffffff166040518363ffffffff1660e01b815260040161249892919061483d565b60206040518083038186803b1580156124b057600080fd5b505af41580156124c4573d6000803e3d6000fd5b505050506040513d601f19601f820116820180604052508101906124e891906146c9565b6006546124f760006001611cb2565b612e89565b9050600b60009054906101000a900473ffffffffffffffffffffffffffffffffffffffff1673ffffffffffffffffffffffffffffffffffffffff166323b872dd3330856040518463ffffffff1660e01b815260040161255d939291906150e9565b602060405180830381600087803b15801561257757600080fd5b505af115801561258b573d6000803e3d6000fd5b505050506040513d601f19601f820116820180604052508101906125af91906148a4565b6125b857600080fd5b6125c23382613652565b7fd0d5ca25112902dbbf5a70a67eed6edc7513b74f2a7ec0805ca216c99f981cc13383836040516125f593929190615120565b60405180910390a15050565b60085481565b600b60009054906101000a900473ffffffffffffffffffffffffffffffffffffffff1681565b612636826116ff565b61264781612642612f85565b612f8d565b6126518383613557565b505050565b7fa952726ef2588ad078edf35b066f7c7406e207cb0003bbaba8cb53eba9553e7261268881612683612f85565b612f8d565b8373ffffffffffffffffffffffffffffffffffffffff1663095ea7b384846040518363ffffffff1660e01b81526004016126c3929190614866565b602060405180830381600087803b1580156126dd57600080fd5b505af11580156126f1573d6000803e3d6000fd5b505050506040513d601f19601f8201168201806040525081019061271591906148a4565b5050505050565b600073__MarketLibrary_________________________638170ce8061274f612746600180611cb2565b85600654612e89565b600b60009054906101000a900473ffffffffffffffffffffffffffffffffffffffff166040518363ffffffff1660e01b815260040161278f92919061483d565b60206040518083038186803b1580156127a757600080fd5b505af41580156127bb573d6000803e3d6000fd5b505050506040513d601f19601f820116820180604052508101906127df91906146c9565b905080600b60009054906101000a900473ffffffffffffffffffffffffffffffffffffffff1673ffffffffffffffffffffffffffffffffffffffff166370a08231306040518263ffffffff1660e01b815260040161283d9190613fc9565b60206040518083038186803b15801561285557600080fd5b505afa158015612869573d6000803e3d6000fd5b505050506040513d601f19601f8201168201806040525081019061288d91906146c9565b116128cd576040517f08c379a00000000000000000000000000000000000000000000000000000000081526004016128c4906151a3565b60405180910390fd5b6128d733836137b2565b600b60009054906101000a900473ffffffffffffffffffffffffffffffffffffffff1673ffffffffffffffffffffffffffffffffffffffff1663a9059cbb33836040518363ffffffff1660e01b8152600401612934929190614866565b602060405180830381600087803b15801561294e57600080fd5b505af1158015612962573d6000803e3d6000fd5b505050506040513d601f19601f8201168201806040525081019061298691906148a4565b61298f57600080fd5b7f3a9e5b3b520d77dc26bf05104c863b6b654d4b96fa8031a783ad0dbd905cdf393383836040516129c293929190615120565b60405180910390a15050565b6000600160008473ffffffffffffffffffffffffffffffffffffffff1673ffffffffffffffffffffffffffffffffffffffff16815260200190815260200160002060008373ffffffffffffffffffffffffffffffffffffffff1673ffffffffffffffffffffffffffffffffffffffff16815260200190815260200160002054905092915050565b7fa49807205ce4d355092ef5a8a18f56e8913cf4a201fbe287825b095693c21775612a8781612a82612f85565b612f8d565b816010819055505050565b7fa49807205ce4d355092ef5a8a18f56e8913cf4a201fbe287825b095693c21775612ac481612abf612f85565b612f8d565b6006548210612ad257600080fd5b816008819055505050565b6000806000807fa952726ef2588ad078edf35b066f7c7406e207cb0003bbaba8cb53eba9553e72612b1581612b10612f85565b612f8d565b600080600960009054906101000a900473ffffffffffffffffffffffffffffffffffffffff1673ffffffffffffffffffffffffffffffffffffffff166337f0882f60006040518263ffffffff1660e01b8152600401612b749190613da5565b604080518083038186803b158015612b8b57600080fd5b505afa158015612b9f573d6000803e3d6000fd5b505050506040513d601f19601f82011682018060405250810190612bc39190614bbb565b915091506000600e60009054906101000a900473ffffffffffffffffffffffffffffffffffffffff1673ffffffffffffffffffffffffffffffffffffffff166321f8a7216040518163ffffffff1660e01b8152600401612c229061455f565b60206040518083038186803b158015612c3a57600080fd5b505afa158015612c4e573d6000803e3d6000fd5b505050506040513d601f19601f82011682018060405250810190612c72919061458d565b9050600073__MarketLibrary_________________________63b076288a308487600a60009054906101000a900473ffffffffffffffffffffffffffffffffffffffff166002600f54146040518663ffffffff1660e01b8152600401612cdc9594939291906151d2565b60606040518083038186803b158015612cf457600080fd5b505af4158015612d08573d6000803e3d6000fd5b505050506040513d601f19601f82011682018060405250810190612d2c9190615225565b809950819350829b5050505073__MarketLibrary_________________________6312638d3a30848487600b60009054906101000a900473ffffffffffffffffffffffffffffffffffffffff16600a60009054906101000a900473ffffffffffffffffffffffffffffffffffffffff166040518763ffffffff1660e01b8152600401612dbd96959493929190615278565b604080518083038186803b158015612dd457600080fd5b505af4158015612de8573d6000803e3d6000fd5b505050506040513d601f19601f82011682018060405250810190612e0c91906152d9565b8097508199505050505050505090919293565b60007f01ffc9a7000000000000000000000000000000000000000000000000000000007bffffffffffffffffffffffffffffffffffffffffffffffffffffffff1916827bffffffffffffffffffffffffffffffffffffffffffffffffffffffff1916149050919050565b600080600080198587098587029250828110838203039150506000811415612ec45760008411612eb857600080fd5b83820492505050612f7e565b808411612ed057600080fd5b60008486880990508281118203915080830392506000856001877fffffffffffffffffffffffffffffffffffffffffffffffffffffffffffffffff0301169050808604955080840493506001818260000304019050808302841793506000600287600302189050808702600203810290508087026002038102905080870260020381029050808702600203810290508087026002038102905080870260020381029050808502955050505050505b9392505050565b600033905090565b612f97828261214b565b61302657612fbc8173ffffffffffffffffffffffffffffffffffffffff166014613989565b612fca8360001c6020613989565b604051602001612fdb9291906153ed565b6040516020818303038152906040526040517f08c379a000000000000000000000000000000000000000000000000000000000815260040161301d9190613e59565b60405180910390fd5b5050565b600073ffffffffffffffffffffffffffffffffffffffff168373ffffffffffffffffffffffffffffffffffffffff16141561309a576040517f08c379a000000000000000000000000000000000000000000000000000000000815260040161309190615499565b60405180910390fd5b600073ffffffffffffffffffffffffffffffffffffffff168273ffffffffffffffffffffffffffffffffffffffff16141561310a576040517f08c379a00000000000000000000000000000000000000000000000000000000081526004016131019061552b565b60405180910390fd5b80600160008573ffffffffffffffffffffffffffffffffffffffff1673ffffffffffffffffffffffffffffffffffffffff16815260200190815260200160002060008473ffffffffffffffffffffffffffffffffffffffff1673ffffffffffffffffffffffffffffffffffffffff168152602001908152602001600020819055508173ffffffffffffffffffffffffffffffffffffffff168373ffffffffffffffffffffffffffffffffffffffff167f8c5be1e5ebec7d5bd14f71427d1e84f3dd0314c0f7b2291e5b200ac8c7c3b925836040516131e89190613f9f565b60405180910390a3505050565b600073ffffffffffffffffffffffffffffffffffffffff168373ffffffffffffffffffffffffffffffffffffffff161415613265576040517f08c379a000000000000000000000000000000000000000000000000000000000815260040161325c906155bd565b60405180910390fd5b600073ffffffffffffffffffffffffffffffffffffffff168273ffffffffffffffffffffffffffffffffffffffff1614156132d5576040517f08c379a00000000000000000000000000000000000000000000000000000000081526004016132cc9061564f565b60405180910390fd5b6132e0838383613bc5565b60008060008573ffffffffffffffffffffffffffffffffffffffff1673ffffffffffffffffffffffffffffffffffffffff16815260200190815260200160002054905081811015613366576040517f08c379a000000000000000000000000000000000000000000000000000000000815260040161335d906156e1565b60405180910390fd5b8181036000808673ffffffffffffffffffffffffffffffffffffffff1673ffffffffffffffffffffffffffffffffffffffff16815260200190815260200160002081905550816000808573ffffffffffffffffffffffffffffffffffffffff1673ffffffffffffffffffffffffffffffffffffffff16815260200190815260200160002060008282546133f99190614b39565b925050819055508273ffffffffffffffffffffffffffffffffffffffff168473ffffffffffffffffffffffffffffffffffffffff167fddf252ad1be2c89b69c2b068fc378daa952ba7f163c4a11628f55a4df523b3ef8460405161345d9190613f9f565b60405180910390a3613470848484613bca565b50505050565b613480828261214b565b6135535760016005600084815260200190815260200160002060000160008373ffffffffffffffffffffffffffffffffffffffff1673ffffffffffffffffffffffffffffffffffffffff16815260200190815260200160002060006101000a81548160ff0219169083151502179055506134f8612f85565b73ffffffffffffffffffffffffffffffffffffffff168173ffffffffffffffffffffffffffffffffffffffff16837f2f8788117e7eff1d82e926ec794901d17c78024a50270940304540a733656f0d60405160405180910390a45b5050565b613561828261214b565b156136355760006005600084815260200190815260200160002060000160008373ffffffffffffffffffffffffffffffffffffffff1673ffffffffffffffffffffffffffffffffffffffff16815260200190815260200160002060006101000a81548160ff0219169083151502179055506135da612f85565b73ffffffffffffffffffffffffffffffffffffffff168173ffffffffffffffffffffffffffffffffffffffff16837ff6391f5c32d9c69d2a47ea670b442974b53935d1edc7fd64eb21e047a839171b60405160405180910390a45b5050565b6000818310613648578161364a565b825b905092915050565b600073ffffffffffffffffffffffffffffffffffffffff168273ffffffffffffffffffffffffffffffffffffffff1614156136c2576040517f08c379a00000000000000000000000000000000000000000000000000000000081526004016136b99061574d565b60405180910390fd5b6136ce60008383613bc5565b80600260008282546136e09190614b39565b92505081905550806000808473ffffffffffffffffffffffffffffffffffffffff1673ffffffffffffffffffffffffffffffffffffffff16815260200190815260200160002060008282546137359190614b39565b925050819055508173ffffffffffffffffffffffffffffffffffffffff16600073ffffffffffffffffffffffffffffffffffffffff167fddf252ad1be2c89b69c2b068fc378daa952ba7f163c4a11628f55a4df523b3ef8360405161379a9190613f9f565b60405180910390a36137ae60008383613bca565b5050565b600073ffffffffffffffffffffffffffffffffffffffff168273ffffffffffffffffffffffffffffffffffffffff161415613822576040517f08c379a0000000000000000000000000000000000000000000000000000000008152600401613819906157df565b60405180910390fd5b61382e82600083613bc5565b60008060008473ffffffffffffffffffffffffffffffffffffffff1673ffffffffffffffffffffffffffffffffffffffff168152602001908152602001600020549050818110156138b4576040517f08c379a00000000000000000000000000000000000000000000000000000000081526004016138ab90615871565b60405180910390fd5b8181036000808573ffffffffffffffffffffffffffffffffffffffff1673ffffffffffffffffffffffffffffffffffffffff16815260200190815260200160002081905550816002600082825461390b91906147fa565b92505081905550600073ffffffffffffffffffffffffffffffffffffffff168373ffffffffffffffffffffffffffffffffffffffff167fddf252ad1be2c89b69c2b068fc378daa952ba7f163c4a11628f55a4df523b3ef846040516139709190613f9f565b60405180910390a361398483600084613bca565b505050565b60606000600283600261399c9190615891565b6139a69190614b39565b67ffffffffffffffff8111156139bf576139be614dc5565b5b6040519080825280601f01601f1916602001820160405280156139f15781602001600182028036833780820191505090505b5090507f300000000000000000000000000000000000000000000000000000000000000081600081518110613a2957613a286158eb565b5b60200101907effffffffffffffffffffffffffffffffffffffffffffffffffffffffffffff1916908160001a9053507f780000000000000000000000000000000000000000000000000000000000000081600181518110613a8d57613a8c6158eb565b5b60200101907effffffffffffffffffffffffffffffffffffffffffffffffffffffffffffff1916908160001a90535060006001846002613acd9190615891565b613ad79190614b39565b90505b6001811115613b77577f3031323334353637383961626364656600000000000000000000000000000000600f861660108110613b1957613b186158eb565b5b1a60f81b828281518110613b3057613b2f6158eb565b5b60200101907effffffffffffffffffffffffffffffffffffffffffffffffffffffffffffff1916908160001a905350600485901c945080613b709061591a565b9050613ada565b5060008414613bbb576040517f08c379a0000000000000000000000000000000000000000000000000000000008152600401613bb290615990565b60405180910390fd5b8091505092915050565b505050565b505050565b60405180610200016040528060006001811115613bef57613bee614229565b5b815260200160006001811115613c0857613c07614229565b5b815260200160006003811115613c2157613c20614229565b5b8152602001600073ffffffffffffffffffffffffffffffffffffffff1681526020016000815260200160008152602001600081526020016000815260200160008152602001600081526020016000815260200160008152602001600081526020016000815260200160008152602001600081525090565b6000819050919050565b613cab81613c98565b82525050565b6000608082019050613cc66000830187613ca2565b613cd36020830186613ca2565b613ce06040830185613ca2565b613ced6060830184613ca2565b95945050505050565b6000604051905090565b600080fd5b60007fffffffff0000000000000000000000000000000000000000000000000000000082169050919050565b613d3a81613d05565b8114613d4557600080fd5b50565b600081359050613d5781613d31565b92915050565b600060208284031215613d7357613d72613d00565b5b6000613d8184828501613d48565b91505092915050565b60008115159050919050565b613d9f81613d8a565b82525050565b6000602082019050613dba6000830184613d96565b92915050565b600081519050919050565b600082825260208201905092915050565b60005b83811015613dfa578082015181840152602081019050613ddf565b83811115613e09576000848401525b50505050565b6000601f19601f8301169050919050565b6000613e2b82613dc0565b613e358185613dcb565b9350613e45818560208601613ddc565b613e4e81613e0f565b840191505092915050565b60006020820190508181036000830152613e738184613e20565b905092915050565b600073ffffffffffffffffffffffffffffffffffffffff82169050919050565b6000613ea682613e7b565b9050919050565b613eb681613e9b565b8114613ec157600080fd5b50565b600081359050613ed381613ead565b92915050565b600060208284031215613eef57613eee613d00565b5b6000613efd84828501613ec4565b91505092915050565b613f0f81613c98565b8114613f1a57600080fd5b50565b600081359050613f2c81613f06565b92915050565b600060208284031215613f4857613f47613d00565b5b6000613f5684828501613f1d565b91505092915050565b60008060408385031215613f7657613f75613d00565b5b6000613f8485828601613ec4565b9250506020613f9585828601613f1d565b9150509250929050565b6000602082019050613fb46000830184613ca2565b92915050565b613fc381613e9b565b82525050565b6000602082019050613fde6000830184613fba565b92915050565b600080600060608486031215613ffd57613ffc613d00565b5b600061400b86828701613ec4565b935050602061401c86828701613ec4565b925050604061402d86828701613f1d565b9150509250925092565b6000819050919050565b61404a81614037565b811461405557600080fd5b50565b60008135905061406781614041565b92915050565b60006020828403121561408357614082613d00565b5b600061409184828501614058565b91505092915050565b6140a381614037565b82525050565b60006020820190506140be600083018461409a565b92915050565b600080604083850312156140db576140da613d00565b5b60006140e985828601614058565b92505060206140fa85828601613ec4565b9150509250929050565b600060ff82169050919050565b61411a81614104565b82525050565b60006020820190506141356000830184614111565b92915050565b6000819050919050565b61414e8161413b565b82525050565b60006040820190506141696000830185614145565b6141766020830184614145565b9392505050565b61418681613d8a565b811461419157600080fd5b50565b6000813590506141a38161417d565b92915050565b600080604083850312156141c0576141bf613d00565b5b60006141ce85828601614194565b92505060206141df85828601614194565b9150509250929050565b60008060408385031215614200576141ff613d00565b5b600061420e85828601613f1d565b925050602061421f85828601613ec4565b9150509250929050565b7f4e487b7100000000000000000000000000000000000000000000000000000000600052602160045260246000fd5b6002811061426957614268614229565b5b50565b600081905061427a82614258565b919050565b600061428a8261426c565b9050919050565b61429a8161427f565b82525050565b600281106142b1576142b0614229565b5b50565b60008190506142c2826142a0565b919050565b60006142d2826142b4565b9050919050565b6142e2816142c7565b82525050565b600481106142f9576142f8614229565b5b50565b600081905061430a826142e8565b919050565b600061431a826142fc565b9050919050565b61432a8161430f565b82525050565b61433981613e9b565b82525050565b61434881613c98565b82525050565b610200820160008201516143656000850182614291565b50602082015161437860208501826142d9565b50604082015161438b6040850182614321565b50606082015161439e6060850182614330565b5060808201516143b1608085018261433f565b5060a08201516143c460a085018261433f565b5060c08201516143d760c085018261433f565b5060e08201516143ea60e085018261433f565b506101008201516143ff61010085018261433f565b5061012082015161441461012085018261433f565b5061014082015161442961014085018261433f565b5061016082015161443e61016085018261433f565b5061018082015161445361018085018261433f565b506101a08201516144686101a085018261433f565b506101c082015161447d6101c085018261433f565b506101e08201516144926101e085018261433f565b50505050565b6000610200820190506144ae600083018461434e565b92915050565b600080604083850312156144cb576144ca613d00565b5b60006144d985828601613ec4565b92505060206144ea85828601613ec4565b9150509250929050565b60006080820190506145096000830187614145565b6145166020830186614145565b6145236040830185613fba565b6145306060830184613fba565b95945050505050565b7f3078310000000000000000000000000000000000000000000000000000000000815250565b600060208201905061457360008301614539565b919050565b60008151905061458781613ead565b92915050565b6000602082840312156145a3576145a2613d00565b5b60006145b184828501614578565b91505092915050565b6145c381613e9b565b82525050565b60006060820190506145de60008301866145ba565b6145eb60208301856145ba565b6145f860408301846145ba565b949350505050565b60008151905061460f81613f06565b92915050565b60008060006060848603121561462e5761462d613d00565b5b600061463c86828701614600565b935050602061464d86828701614600565b925050604061465e86828701614600565b9150509250925092565b7f4e487b7100000000000000000000000000000000000000000000000000000000600052602260045260246000fd5b600060028204905060018216806146af57607f821691505b602082108114156146c3576146c2614668565b5b50919050565b6000602082840312156146df576146de613d00565b5b60006146ed84828501614600565b91505092915050565b6000806040838503121561470d5761470c613d00565b5b600061471b85828601614600565b925050602061472c85828601614600565b9150509250929050565b600060408201905061474b60008301856145ba565b61475860208301846145ba565b9392505050565b7f42616c616e636520696e73756666696369656e742e0000000000000000000000600082015250565b6000614795601583613dcb565b91506147a08261475f565b602082019050919050565b600060208201905081810360008301526147c481614788565b9050919050565b7f4e487b7100000000000000000000000000000000000000000000000000000000600052601160045260246000fd5b600061480582613c98565b915061481083613c98565b925082821015614823576148226147cb565b5b828203905092915050565b61483781613c98565b82525050565b6000604082019050614852600083018561482e565b61485f60208301846145ba565b9392505050565b600060408201905061487b6000830185613fba565b6148886020830184613ca2565b9392505050565b60008151905061489e8161417d565b92915050565b6000602082840312156148ba576148b9613d00565b5b60006148c88482850161488f565b91505092915050565b7f4661696c6564207061796d656e7420746f20686f6c6465720000000000000000600082015250565b6000614907601883613dcb565b9150614912826148d1565b602082019050919050565b60006020820190508181036000830152614936816148fa565b9050919050565b7f4661696c6564207061796d656e7420746f206d61696e74656e616e6365000000600082015250565b6000614973601d83613dcb565b915061497e8261493d565b602082019050919050565b600060208201905081810360008301526149a281614966565b9050919050565b7f4661696c6564207061796d656e7420746f206578657263697365722e00000000600082015250565b60006149df601c83613dcb565b91506149ea826149a9565b602082019050919050565b60006020820190508181036000830152614a0e816149d2565b9050919050565b7f45524332303a207472616e7366657220616d6f756e742065786365656473206160008201527f6c6c6f77616e6365000000000000000000000000000000000000000000000000602082015250565b6000614a71602883613dcb565b9150614a7c82614a15565b604082019050919050565b60006020820190508181036000830152614aa081614a64565b9050919050565b7f416363657373436f6e74726f6c3a2063616e206f6e6c792072656e6f756e636560008201527f20726f6c657320666f722073656c660000000000000000000000000000000000602082015250565b6000614b03602f83613dcb565b9150614b0e82614aa7565b604082019050919050565b60006020820190508181036000830152614b3281614af6565b9050919050565b6000614b4482613c98565b9150614b4f83613c98565b9250827fffffffffffffffffffffffffffffffffffffffffffffffffffffffffffffffff03821115614b8457614b836147cb565b5b828201905092915050565b614b988161413b565b8114614ba357600080fd5b50565b600081519050614bb581614b8f565b92915050565b60008060408385031215614bd257614bd1613d00565b5b6000614be085828601614ba6565b9250506020614bf185828601614600565b9150509250929050565b6000614c068261413b565b9150614c118361413b565b9250827f800000000000000000000000000000000000000000000000000000000000000001821260008412151615614c4c57614c4b6147cb565b5b827f7fffffffffffffffffffffffffffffffffffffffffffffffffffffffffffffff018213600084121615614c8457614c836147cb565b5b828203905092915050565b614c988161413b565b82525050565b6000606082019050614cb36000830186614c8f565b614cc0602083018561482e565b614ccd604083018461482e565b949350505050565b600060208284031215614ceb57614cea613d00565b5b6000614cf984828501614ba6565b91505092915050565b6000604082019050614d176000830185614c8f565b614d2460208301846145ba565b9392505050565b7f4e65676174697665206571756974792e00000000000000000000000000000000600082015250565b6000614d61601083613dcb565b9150614d6c82614d2b565b602082019050919050565b60006020820190508181036000830152614d9081614d54565b9050919050565b6000604082019050614dac6000830185613ca2565b614db96020830184613fba565b9392505050565b600080fd5b7f4e487b7100000000000000000000000000000000000000000000000000000000600052604160045260246000fd5b614dfd82613e0f565b810181811067ffffffffffffffff82111715614e1c57614e1b614dc5565b5b80604052505050565b6000614e2f613cf6565b9050614e3b8282614df4565b919050565b60028110614e4d57600080fd5b50565b600081519050614e5f81614e40565b92915050565b60028110614e7257600080fd5b50565b600081519050614e8481614e65565b92915050565b60048110614e9757600080fd5b50565b600081519050614ea981614e8a565b92915050565b60006102008284031215614ec657614ec5614dc0565b5b614ed1610200614e25565b90506000614ee184828501614e50565b6000830152506020614ef584828501614e75565b6020830152506040614f0984828501614e9a565b6040830152506060614f1d84828501614578565b6060830152506080614f3184828501614600565b60808301525060a0614f4584828501614600565b60a08301525060c0614f5984828501614600565b60c08301525060e0614f6d84828501614600565b60e083015250610100614f8284828501614600565b61010083015250610120614f9884828501614600565b61012083015250610140614fae84828501614600565b61014083015250610160614fc484828501614600565b61016083015250610180614fda84828501614600565b610180830152506101a0614ff084828501614600565b6101a0830152506101c061500684828501614600565b6101c0830152506101e061501c84828501614600565b6101e08301525092915050565b600061020082840312156150405761503f613d00565b5b600061504e84828501614eaf565b91505092915050565b7f45524332303a2064656372656173656420616c6c6f77616e63652062656c6f7760008201527f207a65726f000000000000000000000000000000000000000000000000000000602082015250565b60006150b3602583613dcb565b91506150be82615057565b604082019050919050565b600060208201905081810360008301526150e2816150a6565b9050919050565b60006060820190506150fe6000830186613fba565b61510b6020830185613fba565b6151186040830184613ca2565b949350505050565b60006060820190506151356000830186613fba565b6151426020830185613ca2565b61514f6040830184613ca2565b949350505050565b7f496e73756666696369656e742062616c616e6365000000000000000000000000600082015250565b600061518d601483613dcb565b915061519882615157565b602082019050919050565b600060208201905081810360008301526151bc81615180565b9050919050565b6151cc81613d8a565b82525050565b600060a0820190506151e760008301886145ba565b6151f460208301876145ba565b6152016040830186614c8f565b61520e60608301856145ba565b61521b60808301846151c3565b9695505050505050565b60008060006060848603121561523e5761523d613d00565b5b600061524c86828701614ba6565b935050602061525d86828701614600565b925050604061526e86828701614578565b9150509250925092565b600060c08201905061528d60008301896145ba565b61529a60208301886145ba565b6152a7604083018761482e565b6152b4606083018661482e565b6152c160808301856145ba565b6152ce60a08301846145ba565b979650505050505050565b600080604083850312156152f0576152ef613d00565b5b60006152fe85828601614ba6565b925050602061530f85828601614578565b9150509250929050565b600081905092915050565b7f416363657373436f6e74726f6c3a206163636f756e7420000000000000000000600082015250565b600061535a601783615319565b915061536582615324565b601782019050919050565b600061537b82613dc0565b6153858185615319565b9350615395818560208601613ddc565b80840191505092915050565b7f206973206d697373696e6720726f6c6520000000000000000000000000000000600082015250565b60006153d7601183615319565b91506153e2826153a1565b601182019050919050565b60006153f88261534d565b91506154048285615370565b915061540f826153ca565b915061541b8284615370565b91508190509392505050565b7f45524332303a20617070726f76652066726f6d20746865207a65726f2061646460008201527f7265737300000000000000000000000000000000000000000000000000000000602082015250565b6000615483602483613dcb565b915061548e82615427565b604082019050919050565b600060208201905081810360008301526154b281615476565b9050919050565b7f45524332303a20617070726f766520746f20746865207a65726f20616464726560008201527f7373000000000000000000000000000000000000000000000000000000000000602082015250565b6000615515602283613dcb565b9150615520826154b9565b604082019050919050565b6000602082019050818103600083015261554481615508565b9050919050565b7f45524332303a207472616e736665722066726f6d20746865207a65726f20616460008201527f6472657373000000000000000000000000000000000000000000000000000000602082015250565b60006155a7602583613dcb565b91506155b28261554b565b604082019050919050565b600060208201905081810360008301526155d68161559a565b9050919050565b7f45524332303a207472616e7366657220746f20746865207a65726f206164647260008201527f6573730000000000000000000000000000000000000000000000000000000000602082015250565b6000615639602383613dcb565b9150615644826155dd565b604082019050919050565b600060208201905081810360008301526156688161562c565b9050919050565b7f45524332303a207472616e7366657220616d6f756e742065786365656473206260008201527f616c616e63650000000000000000000000000000000000000000000000000000602082015250565b60006156cb602683613dcb565b91506156d68261566f565b604082019050919050565b600060208201905081810360008301526156fa816156be565b9050919050565b7f45524332303a206d696e7420746f20746865207a65726f206164647265737300600082015250565b6000615737601f83613dcb565b915061574282615701565b602082019050919050565b600060208201905081810360008301526157668161572a565b9050919050565b7f45524332303a206275726e2066726f6d20746865207a65726f2061646472657360008201527f7300000000000000000000000000000000000000000000000000000000000000602082015250565b60006157c9602183613dcb565b91506157d48261576d565b604082019050919050565b600060208201905081810360008301526157f8816157bc565b9050919050565b7f45524332303a206275726e20616d6f756e7420657863656564732062616c616e60008201527f6365000000000000000000000000000000000000000000000000000000000000602082015250565b600061585b602283613dcb565b9150615866826157ff565b604082019050919050565b6000602082019050818103600083015261588a8161584e565b9050919050565b600061589c82613c98565b91506158a783613c98565b9250817fffffffffffffffffffffffffffffffffffffffffffffffffffffffffffffffff04831182151516156158e0576158df6147cb565b5b828202905092915050565b7f4e487b7100000000000000000000000000000000000000000000000000000000600052603260045260246000fd5b600061592582613c98565b91506000821415615939576159386147cb565b5b600182039050919050565b7f537472696e67733a20686578206c656e67746820696e73756666696369656e74600082015250565b600061597a602083613dcb565b915061598582615944565b602082019050919050565b600060208201905081810360008301526159a98161596d565b905091905056fea2646970667358221220669366be65a0464c6cb1dcbf7622b7c676997294dbec81646a7085570c94820964736f6c63430008090033",
  "immutableReferences": {},
  "source": "// SPDX-License-Identifier: MIT\npragma solidity 0.8.9;\n\n// import \"@openzeppelin/contracts/token/ERC20/ERC20.sol\";\nimport \"@openzeppelin/contracts/access/AccessControl.sol\";\nimport \"@openzeppelin/contracts/utils/structs/EnumerableSet.sol\";\nimport \"@openzeppelin/contracts/utils/math/Math.sol\";\nimport \"./MoretInterfaces.sol\";\nimport \"./MarketLibrary.sol\";\n\ncontract MoretMarketMaker is ERC20, AccessControl, EOption\n{\n  bytes32 public constant ADMIN_ROLE = keccak256(\"ADMIN_ROLE\");\n  bytes32 public constant EXCHANGE_ROLE = keccak256(\"EXCHANGE_ROLE\");\n  bytes32 public constant MINER_ROLE = keccak256(\"MINER_ROLE\");\n\n  uint256 private multiplier = 10 ** 18;\n  uint256 public settlementFee= 5 * (10 ** 15);\n  uint256 public exerciseFee= 5 * (10 ** 15);\n  IOptionVault internal optionVault;\n\n  address public underlyingAddress;\n  address public fundingAddress;\n  address public vaultAddress; \n  address public maintenanceAddress;\n  address public aaveAddressProviderAddress;\n  uint256 public lendingPoolRateMode = 2;\n  uint256 public swapSlippage = 5 * (10 ** 15);\n  \n  constructor(string memory _name, string memory _symbol, address _underlyingAddress, address _fundingAddress, address _optionAddress, address _aaveAddressProviderAddress) ERC20(_name, _symbol){\n    _setupRole(DEFAULT_ADMIN_ROLE, msg.sender);\n    _setupRole(ADMIN_ROLE, msg.sender);\n    _setupRole(EXCHANGE_ROLE, msg.sender);\n    _setupRole(MINER_ROLE, msg.sender);\n    maintenanceAddress = msg.sender;\n    fundingAddress = _fundingAddress;\n    underlyingAddress = _underlyingAddress;\n    vaultAddress = _optionAddress;\n    optionVault = IOptionVault(_optionAddress);\n    aaveAddressProviderAddress = _aaveAddressProviderAddress;\n    _mint(msg.sender, multiplier);}\n\n  function getBalances() public view returns(uint256 _underlyingBalance, uint256 _fundingBalance, uint256 _collateralBalance, uint256 _debtBalance){\n    address _protocolDataProviderAddress = ILendingPoolAddressesProvider(aaveAddressProviderAddress).getAddress(\"0x1\");//bytes32(uint256(1)));\n    ( _underlyingBalance, ,  _debtBalance) = MarketLibrary.getTokenBalances(address(this), _protocolDataProviderAddress, underlyingAddress);\n    ( _fundingBalance,  _collateralBalance,) = MarketLibrary.getTokenBalances(address(this), _protocolDataProviderAddress, fundingAddress); }\n\n  function expireOptions(address exerciseFeeRecipient) external {\n    uint256 _expiringId = optionVault.getExpiringOptionId();\n    while(_expiringId >0) {\n      optionVault.stampExpiredOption(_expiringId);\n      \n      ( uint256 _payoff, uint256 _payback) = optionVault.getContractPayoff(_expiringId);\n      require(_payback < MarketLibrary.balanceDef(fundingAddress, address(this)), \"Balance insufficient.\");\n      if(_payback > 0){\n        uint256 _holderPayment = _payoff == _payback? MulDiv(_payback, multiplier - settlementFee - exerciseFee, multiplier): _payback;\n        uint256 _settleFeeAmount = MulDiv(_payoff, settlementFee, multiplier);\n        uint256 _exerciseFeeAmount = MulDiv(_payoff, exerciseFee, multiplier);\n\n        require(IERC20(fundingAddress).transfer(optionVault.getOptionHolder(_expiringId), MarketLibrary.cvtDecimals(_holderPayment, fundingAddress)), \"Failed payment to holder\");\n        require(IERC20(fundingAddress).transfer(maintenanceAddress, MarketLibrary.cvtDecimals(_settleFeeAmount, fundingAddress)), \"Failed payment to maintenance\");\n        require(IERC20(fundingAddress).transfer(exerciseFeeRecipient, MarketLibrary.cvtDecimals(_exerciseFeeAmount, fundingAddress)), \"Failed payment to exerciser.\");}\n      \n      _expiringId = optionVault.getExpiringOptionId();}}\n\n  function calcCapital(bool _net, bool _average) public view returns(uint256 _capital){\n      (uint256 _price, ) = optionVault.queryPrice();\n      (uint256 _underlying_balance, uint256 _funding_balance, uint256 _collateral_balance, uint256 _debt_balance) = getBalances();\n      _capital = _funding_balance + _collateral_balance + MulDiv(_underlying_balance, _price, multiplier);\n      require(_capital > MulDiv(_debt_balance, _price, multiplier), \"Negative equity.\");\n      _capital -= MulDiv(_debt_balance, _price, multiplier);\n\n      if(_net){ _capital -= Math.min(MulDiv(optionVault.getAggregateNotional(false), _price, multiplier), _capital);}\n      if(_average){ \n        if(totalSupply() > 0) _capital = MulDiv(_capital , multiplier , totalSupply()); \n        if(totalSupply() == 0 && _capital == 0) _capital = multiplier;}}\n    \n  function addCapital(uint256 _depositAmount) external {\n      uint256 _mintMPTokenAmount = MulDiv(MarketLibrary.cvtDef(_depositAmount, fundingAddress), multiplier, calcCapital(false, true));\n      require(ERC20(fundingAddress).transferFrom(msg.sender, address(this), _depositAmount));\n      _mint(msg.sender, _mintMPTokenAmount);\n      emit capitalAdded(msg.sender, _depositAmount, _mintMPTokenAmount);}\n\n  function withdrawCapital(uint256 _burnMPTokenAmount) external {\n      uint256 _withdrawValue = MarketLibrary.cvtDecimals(MulDiv(calcCapital(true, true),  _burnMPTokenAmount , multiplier), fundingAddress); \n      require(IERC20(fundingAddress).balanceOf(address(this)) > _withdrawValue,\"Insufficient balance\");\n      _burn(msg.sender, _burnMPTokenAmount);\n      require(ERC20(fundingAddress).transfer(msg.sender, _withdrawValue));\n      emit capitalWithdrawn(msg.sender, _burnMPTokenAmount, _withdrawValue);}\n  \n  function approveSpending(address _tokenAddress, address _spenderAddress, uint256 _amount) external onlyRole(MINER_ROLE){\n    ERC20(_tokenAddress).approve(_spenderAddress, _amount);}\n\n  function calcHedgeTradesForSwaps() external onlyRole(MINER_ROLE) view returns(int256 _tradeUnderlyingAmount, int256 _tradeFundingAmount){\n    (int256 _aggregateDelta, uint256 _price) = optionVault.calculateAggregateDelta(false);\n    _tradeUnderlyingAmount = (_aggregateDelta >= 0? _aggregateDelta: int256(0)) - int256(MarketLibrary.balanceDef(underlyingAddress, address(this)));\n    _tradeFundingAmount = MarketLibrary.cvtDecimalsInt(OptionLibrary.getOpposeTrade(_tradeUnderlyingAmount, _price, swapSlippage), fundingAddress);\n    _tradeUnderlyingAmount = MarketLibrary.cvtDecimalsInt(_tradeUnderlyingAmount, underlyingAddress);}\n\n  function calcHedgeTradesForLoans() external onlyRole(MINER_ROLE) view returns(int256 _loanTradeAmount, int256 _collateralChange, address _loanAddress, address _collateralAddress){\n    (int256 _aggregateDelta, uint256 _price) = optionVault.calculateAggregateDelta(false);\n    address _protocolDataProviderAddress = ILendingPoolAddressesProvider(aaveAddressProviderAddress).getAddress(\"0x1\");//bytes32(uint256(1)));\n    uint256 _targetLoan = 0;\n    (_loanTradeAmount, _targetLoan, _loanAddress) = MarketLibrary.getLoanTrade(address(this), _protocolDataProviderAddress, _aggregateDelta, underlyingAddress, lendingPoolRateMode == 2);\n    (_collateralChange, _collateralAddress) = MarketLibrary.getCollateralTrade(address(this), _protocolDataProviderAddress, _targetLoan, _price, fundingAddress, underlyingAddress);}\n\n  // function depositCollateral(uint256 _addCollateral, address _lendingPoolAddress) external onlyRole(EXCHANGE_ROLE){\n  //   ERC20(fundingAddress).increaseAllowance(_lendingPoolAddress, _addCollateral);\n  //   ILendingPool(_lendingPoolAddress).deposit(fundingAddress, _addCollateral, address(this), 0);}\n\n  // function withdrawCollateral(uint256 _removeCollateral, address _lendingPoolAddress) external onlyRole(EXCHANGE_ROLE){\n  //   (address _collateralAddress,,) = MarketLibrary.getLendingTokenAddresses(protocolDataProviderAddress, fundingAddress);\n  //   ERC20(_collateralAddress).increaseAllowance(_lendingPoolAddress, _removeCollateral);\n  //   ILendingPool(_lendingPoolAddress).withdraw(fundingAddress, _removeCollateral, address(this));}\n\n  // function borrowLoans(uint256 _borrowAmount , address _lendingPoolAddress, uint256 _lendingPoolRateMode)  external onlyRole(EXCHANGE_ROLE) {\n  //   ILendingPool(_lendingPoolAddress).borrow(underlyingAddress, _borrowAmount, _lendingPoolRateMode,  0, address(this));}\n\n  // function repayLoans(uint256 _repayAmount, address _lendingPoolAddress, uint256 _lendingPoolRateMode)  external onlyRole(EXCHANGE_ROLE) {\n  //   (,address _stableDebt, address _debtToken) = MarketLibrary.getLendingTokenAddresses(protocolDataProviderAddress, underlyingAddress);\n  //   if(_lendingPoolRateMode==1) _debtToken = _stableDebt;\n  //   ERC20(_debtToken).approve(_lendingPoolAddress, _repayAmount);\n  //   ERC20(underlyingAddress).approve(_lendingPoolAddress, _repayAmount);\n  //   ILendingPool(_lendingPoolAddress).repay(underlyingAddress, _repayAmount, _lendingPoolRateMode, address(this));}\n\n  function resetSettlementFee(uint256 _newFee) external onlyRole(ADMIN_ROLE){ require(_newFee < multiplier); settlementFee = _newFee;}\n  function resetExerciseFee(uint256 _newFee) external onlyRole(ADMIN_ROLE){ require(_newFee < multiplier); exerciseFee = _newFee;}\n  // function resetMaintenance(address _newAddress) external onlyRole(ADMIN_ROLE){ maintenanceAddress = _newAddress;}\n  function resetSlippage(uint256 _slippage) external onlyRole(ADMIN_ROLE){ swapSlippage = _slippage;}\n  function resetLendingPoolRateMode(uint256 _newRateMode) external onlyRole(ADMIN_ROLE) {\n    require(_newRateMode == 1 || _newRateMode == 2);\n    lendingPoolRateMode = _newRateMode;}\n  function getHoldersOptionCount(address _address) external view returns(uint256){return optionVault.getHoldersOptionCount(_address);}\n  function getHoldersOption(uint256 _index, address _address) external view returns(OptionLibrary.Option memory) {return optionVault.getHoldersOption(_index, _address);}\n  function anyOptionExpiring() external view returns(bool){return optionVault.anyOptionExpiring();} \n}\n",
  "sourcePath": "/Users/apple/Documents/GitHub/moret/contracts/MoretMarketMaker.sol",
  "compiler": {
    "name": "solc",
    "version": "0.8.9+commit.e5eed63a.Emscripten.clang"
  },
  "schemaVersion": "3.4.3",
  "updatedAt": "2021-11-19T13:39:23.928Z",
  "networkType": "ethereum",
  "devdoc": {
    "kind": "dev",
    "methods": {
      "allowance(address,address)": {
        "details": "See {IERC20-allowance}."
      },
      "approve(address,uint256)": {
        "details": "See {IERC20-approve}. Requirements: - `spender` cannot be the zero address."
      },
      "balanceOf(address)": {
        "details": "See {IERC20-balanceOf}."
      },
      "decimals()": {
        "details": "Returns the number of decimals used to get its user representation. For example, if `decimals` equals `2`, a balance of `505` tokens should be displayed to a user as `5.05` (`505 / 10 ** 2`). Tokens usually opt for a value of 18, imitating the relationship between Ether and Wei. This is the value {ERC20} uses, unless this function is overridden; NOTE: This information is only used for _display_ purposes: it in no way affects any of the arithmetic of the contract, including {IERC20-balanceOf} and {IERC20-transfer}."
      },
      "decreaseAllowance(address,uint256)": {
        "details": "Atomically decreases the allowance granted to `spender` by the caller. This is an alternative to {approve} that can be used as a mitigation for problems described in {IERC20-approve}. Emits an {Approval} event indicating the updated allowance. Requirements: - `spender` cannot be the zero address. - `spender` must have allowance for the caller of at least `subtractedValue`."
      },
      "getRoleAdmin(bytes32)": {
        "details": "Returns the admin role that controls `role`. See {grantRole} and {revokeRole}. To change a role's admin, use {_setRoleAdmin}."
      },
      "grantRole(bytes32,address)": {
        "details": "Grants `role` to `account`. If `account` had not been already granted `role`, emits a {RoleGranted} event. Requirements: - the caller must have ``role``'s admin role."
      },
      "hasRole(bytes32,address)": {
        "details": "Returns `true` if `account` has been granted `role`."
      },
      "increaseAllowance(address,uint256)": {
        "details": "Atomically increases the allowance granted to `spender` by the caller. This is an alternative to {approve} that can be used as a mitigation for problems described in {IERC20-approve}. Emits an {Approval} event indicating the updated allowance. Requirements: - `spender` cannot be the zero address."
      },
      "name()": {
        "details": "Returns the name of the token."
      },
      "renounceRole(bytes32,address)": {
        "details": "Revokes `role` from the calling account. Roles are often managed via {grantRole} and {revokeRole}: this function's purpose is to provide a mechanism for accounts to lose their privileges if they are compromised (such as when a trusted device is misplaced). If the calling account had been granted `role`, emits a {RoleRevoked} event. Requirements: - the caller must be `account`."
      },
      "revokeRole(bytes32,address)": {
        "details": "Revokes `role` from `account`. If `account` had been granted `role`, emits a {RoleRevoked} event. Requirements: - the caller must have ``role``'s admin role."
      },
      "supportsInterface(bytes4)": {
        "details": "See {IERC165-supportsInterface}."
      },
      "symbol()": {
        "details": "Returns the symbol of the token, usually a shorter version of the name."
      },
      "totalSupply()": {
        "details": "See {IERC20-totalSupply}."
      },
      "transfer(address,uint256)": {
        "details": "See {IERC20-transfer}. Requirements: - `recipient` cannot be the zero address. - the caller must have a balance of at least `amount`."
      },
      "transferFrom(address,address,uint256)": {
        "details": "See {IERC20-transferFrom}. Emits an {Approval} event indicating the updated allowance. This is not required by the EIP. See the note at the beginning of {ERC20}. Requirements: - `sender` and `recipient` cannot be the zero address. - `sender` must have a balance of at least `amount`. - the caller must have allowance for ``sender``'s tokens of at least `amount`."
      }
    },
    "version": 1
  },
  "userdoc": {
    "kind": "user",
    "methods": {},
    "version": 1
  }
}