{
  "contractName": "MoretMarketMaker",
  "abi": [
    {
      "inputs": [
        {
          "internalType": "string",
          "name": "_name",
          "type": "string"
        },
        {
          "internalType": "string",
          "name": "_symbol",
          "type": "string"
        },
        {
          "internalType": "address",
          "name": "_optionAddress",
          "type": "address"
        }
      ],
      "stateMutability": "nonpayable",
      "type": "constructor"
    },
    {
      "anonymous": false,
      "inputs": [
        {
          "indexed": true,
          "internalType": "address",
          "name": "owner",
          "type": "address"
        },
        {
          "indexed": true,
          "internalType": "address",
          "name": "spender",
          "type": "address"
        },
        {
          "indexed": false,
          "internalType": "uint256",
          "name": "value",
          "type": "uint256"
        }
      ],
      "name": "Approval",
      "type": "event"
    },
    {
      "anonymous": false,
      "inputs": [
        {
          "indexed": true,
          "internalType": "bytes32",
          "name": "role",
          "type": "bytes32"
        },
        {
          "indexed": true,
          "internalType": "bytes32",
          "name": "previousAdminRole",
          "type": "bytes32"
        },
        {
          "indexed": true,
          "internalType": "bytes32",
          "name": "newAdminRole",
          "type": "bytes32"
        }
      ],
      "name": "RoleAdminChanged",
      "type": "event"
    },
    {
      "anonymous": false,
      "inputs": [
        {
          "indexed": true,
          "internalType": "bytes32",
          "name": "role",
          "type": "bytes32"
        },
        {
          "indexed": true,
          "internalType": "address",
          "name": "account",
          "type": "address"
        },
        {
          "indexed": true,
          "internalType": "address",
          "name": "sender",
          "type": "address"
        }
      ],
      "name": "RoleGranted",
      "type": "event"
    },
    {
      "anonymous": false,
      "inputs": [
        {
          "indexed": true,
          "internalType": "bytes32",
          "name": "role",
          "type": "bytes32"
        },
        {
          "indexed": true,
          "internalType": "address",
          "name": "account",
          "type": "address"
        },
        {
          "indexed": true,
          "internalType": "address",
          "name": "sender",
          "type": "address"
        }
      ],
      "name": "RoleRevoked",
      "type": "event"
    },
    {
      "anonymous": false,
      "inputs": [
        {
          "indexed": true,
          "internalType": "address",
          "name": "from",
          "type": "address"
        },
        {
          "indexed": true,
          "internalType": "address",
          "name": "to",
          "type": "address"
        },
        {
          "indexed": false,
          "internalType": "uint256",
          "name": "value",
          "type": "uint256"
        }
      ],
      "name": "Transfer",
      "type": "event"
    },
    {
      "anonymous": false,
      "inputs": [
        {
          "indexed": false,
          "internalType": "address",
          "name": "_recipient",
          "type": "address"
        },
        {
          "indexed": false,
          "internalType": "uint256",
          "name": "_mintMPTokenAmount",
          "type": "uint256"
        },
        {
          "indexed": false,
          "internalType": "uint256",
          "name": "_addedValue",
          "type": "uint256"
        }
      ],
      "name": "capitalAdded",
      "type": "event"
    },
    {
      "anonymous": false,
      "inputs": [
        {
          "indexed": false,
          "internalType": "address",
          "name": "_recipient",
          "type": "address"
        },
        {
          "indexed": false,
          "internalType": "uint256",
          "name": "_burnMPTokenAmount",
          "type": "uint256"
        },
        {
          "indexed": false,
          "internalType": "uint256",
          "name": "_withdrawValue",
          "type": "uint256"
        }
      ],
      "name": "capitalWithdrawn",
      "type": "event"
    },
    {
      "anonymous": false,
      "inputs": [
        {
          "indexed": true,
          "internalType": "address",
          "name": "_purchaser",
          "type": "address"
        },
        {
          "components": [
            {
              "internalType": "enum OptionLibrary.PayoffType",
              "name": "poType",
              "type": "uint8"
            },
            {
              "internalType": "enum OptionLibrary.OptionSide",
              "name": "side",
              "type": "uint8"
            },
            {
              "internalType": "enum OptionLibrary.OptionStatus",
              "name": "status",
              "type": "uint8"
            },
            {
              "internalType": "address",
              "name": "holder",
              "type": "address"
            },
            {
              "internalType": "uint256",
              "name": "id",
              "type": "uint256"
            },
            {
              "internalType": "uint256",
              "name": "createTime",
              "type": "uint256"
            },
            {
              "internalType": "uint256",
              "name": "effectiveTime",
              "type": "uint256"
            },
            {
              "internalType": "uint256",
              "name": "tenor",
              "type": "uint256"
            },
            {
              "internalType": "uint256",
              "name": "maturity",
              "type": "uint256"
            },
            {
              "internalType": "uint256",
              "name": "exerciseTime",
              "type": "uint256"
            },
            {
              "internalType": "uint256",
              "name": "amount",
              "type": "uint256"
            },
            {
              "internalType": "uint256",
              "name": "spot",
              "type": "uint256"
            },
            {
              "internalType": "uint256",
              "name": "strike",
              "type": "uint256"
            },
            {
              "internalType": "uint256",
              "name": "volatility",
              "type": "uint256"
            },
            {
              "internalType": "uint256",
              "name": "premium",
              "type": "uint256"
            },
            {
              "internalType": "uint256",
              "name": "cost",
              "type": "uint256"
            }
          ],
          "indexed": false,
          "internalType": "struct OptionLibrary.Option",
          "name": "_option",
          "type": "tuple"
        },
        {
          "indexed": false,
          "internalType": "uint256",
          "name": "_cost",
          "type": "uint256"
        },
        {
          "indexed": false,
          "internalType": "bool",
          "name": "_inVol",
          "type": "bool"
        }
      ],
      "name": "newOptionBought",
      "type": "event"
    },
    {
      "anonymous": false,
      "inputs": [
        {
          "indexed": false,
          "internalType": "address",
          "name": "_purchaser",
          "type": "address"
        },
        {
          "indexed": false,
          "internalType": "uint256",
          "name": "_time",
          "type": "uint256"
        },
        {
          "indexed": false,
          "internalType": "uint256",
          "name": "_tenor",
          "type": "uint256"
        },
        {
          "indexed": false,
          "internalType": "uint256",
          "name": "_amount",
          "type": "uint256"
        }
      ],
      "name": "newVolatilityTokenBought",
      "type": "event"
    },
    {
      "anonymous": false,
      "inputs": [
        {
          "indexed": true,
          "internalType": "address",
          "name": "_purchaser",
          "type": "address"
        },
        {
          "components": [
            {
              "internalType": "enum OptionLibrary.PayoffType",
              "name": "poType",
              "type": "uint8"
            },
            {
              "internalType": "enum OptionLibrary.OptionSide",
              "name": "side",
              "type": "uint8"
            },
            {
              "internalType": "enum OptionLibrary.OptionStatus",
              "name": "status",
              "type": "uint8"
            },
            {
              "internalType": "address",
              "name": "holder",
              "type": "address"
            },
            {
              "internalType": "uint256",
              "name": "id",
              "type": "uint256"
            },
            {
              "internalType": "uint256",
              "name": "createTime",
              "type": "uint256"
            },
            {
              "internalType": "uint256",
              "name": "effectiveTime",
              "type": "uint256"
            },
            {
              "internalType": "uint256",
              "name": "tenor",
              "type": "uint256"
            },
            {
              "internalType": "uint256",
              "name": "maturity",
              "type": "uint256"
            },
            {
              "internalType": "uint256",
              "name": "exerciseTime",
              "type": "uint256"
            },
            {
              "internalType": "uint256",
              "name": "amount",
              "type": "uint256"
            },
            {
              "internalType": "uint256",
              "name": "spot",
              "type": "uint256"
            },
            {
              "internalType": "uint256",
              "name": "strike",
              "type": "uint256"
            },
            {
              "internalType": "uint256",
              "name": "volatility",
              "type": "uint256"
            },
            {
              "internalType": "uint256",
              "name": "premium",
              "type": "uint256"
            },
            {
              "internalType": "uint256",
              "name": "cost",
              "type": "uint256"
            }
          ],
          "indexed": false,
          "internalType": "struct OptionLibrary.Option",
          "name": "_option",
          "type": "tuple"
        },
        {
          "indexed": false,
          "internalType": "uint256",
          "name": "_payoff",
          "type": "uint256"
        }
      ],
      "name": "optionExercised",
      "type": "event"
    },
    {
      "inputs": [],
      "name": "ADMIN_ROLE",
      "outputs": [
        {
          "internalType": "bytes32",
          "name": "",
          "type": "bytes32"
        }
      ],
      "stateMutability": "view",
      "type": "function"
    },
    {
      "inputs": [],
      "name": "DEFAULT_ADMIN_ROLE",
      "outputs": [
        {
          "internalType": "bytes32",
          "name": "",
          "type": "bytes32"
        }
      ],
      "stateMutability": "view",
      "type": "function"
    },
    {
      "inputs": [],
      "name": "EXCHANGE_ROLE",
      "outputs": [
        {
          "internalType": "bytes32",
          "name": "",
          "type": "bytes32"
        }
      ],
      "stateMutability": "view",
      "type": "function"
    },
    {
      "inputs": [],
      "name": "MINER_ROLE",
      "outputs": [
        {
          "internalType": "bytes32",
          "name": "",
          "type": "bytes32"
        }
      ],
      "stateMutability": "view",
      "type": "function"
    },
    {
      "inputs": [
        {
          "internalType": "address",
          "name": "owner",
          "type": "address"
        },
        {
          "internalType": "address",
          "name": "spender",
          "type": "address"
        }
      ],
      "name": "allowance",
      "outputs": [
        {
          "internalType": "uint256",
          "name": "",
          "type": "uint256"
        }
      ],
      "stateMutability": "view",
      "type": "function"
    },
    {
      "inputs": [
        {
          "internalType": "address",
          "name": "spender",
          "type": "address"
        },
        {
          "internalType": "uint256",
          "name": "amount",
          "type": "uint256"
        }
      ],
      "name": "approve",
      "outputs": [
        {
          "internalType": "bool",
          "name": "",
          "type": "bool"
        }
      ],
      "stateMutability": "nonpayable",
      "type": "function"
    },
    {
      "inputs": [
        {
          "internalType": "address",
          "name": "account",
          "type": "address"
        }
      ],
      "name": "balanceOf",
      "outputs": [
        {
          "internalType": "uint256",
          "name": "",
          "type": "uint256"
        }
      ],
      "stateMutability": "view",
      "type": "function"
    },
    {
      "inputs": [],
      "name": "decimals",
      "outputs": [
        {
          "internalType": "uint8",
          "name": "",
          "type": "uint8"
        }
      ],
      "stateMutability": "view",
      "type": "function"
    },
    {
      "inputs": [
        {
          "internalType": "address",
          "name": "spender",
          "type": "address"
        },
        {
          "internalType": "uint256",
          "name": "subtractedValue",
          "type": "uint256"
        }
      ],
      "name": "decreaseAllowance",
      "outputs": [
        {
          "internalType": "bool",
          "name": "",
          "type": "bool"
        }
      ],
      "stateMutability": "nonpayable",
      "type": "function"
    },
    {
      "inputs": [],
      "name": "exerciseFee",
      "outputs": [
        {
          "internalType": "uint256",
          "name": "",
          "type": "uint256"
        }
      ],
      "stateMutability": "view",
      "type": "function"
    },
    {
      "inputs": [
        {
          "internalType": "bytes32",
          "name": "role",
          "type": "bytes32"
        }
      ],
      "name": "getRoleAdmin",
      "outputs": [
        {
          "internalType": "bytes32",
          "name": "",
          "type": "bytes32"
        }
      ],
      "stateMutability": "view",
      "type": "function"
    },
    {
      "inputs": [
        {
          "internalType": "bytes32",
          "name": "role",
          "type": "bytes32"
        },
        {
          "internalType": "address",
          "name": "account",
          "type": "address"
        }
      ],
      "name": "grantRole",
      "outputs": [],
      "stateMutability": "nonpayable",
      "type": "function"
    },
    {
      "inputs": [
        {
          "internalType": "bytes32",
          "name": "role",
          "type": "bytes32"
        },
        {
          "internalType": "address",
          "name": "account",
          "type": "address"
        }
      ],
      "name": "hasRole",
      "outputs": [
        {
          "internalType": "bool",
          "name": "",
          "type": "bool"
        }
      ],
      "stateMutability": "view",
      "type": "function"
    },
    {
      "inputs": [
        {
          "internalType": "address",
          "name": "spender",
          "type": "address"
        },
        {
          "internalType": "uint256",
          "name": "addedValue",
          "type": "uint256"
        }
      ],
      "name": "increaseAllowance",
      "outputs": [
        {
          "internalType": "bool",
          "name": "",
          "type": "bool"
        }
      ],
      "stateMutability": "nonpayable",
      "type": "function"
    },
    {
      "inputs": [],
      "name": "lendingPoolRateMode",
      "outputs": [
        {
          "internalType": "uint256",
          "name": "",
          "type": "uint256"
        }
      ],
      "stateMutability": "view",
      "type": "function"
    },
    {
      "inputs": [],
      "name": "maintenanceAddress",
      "outputs": [
        {
          "internalType": "address",
          "name": "",
          "type": "address"
        }
      ],
      "stateMutability": "view",
      "type": "function"
    },
    {
      "inputs": [],
      "name": "name",
      "outputs": [
        {
          "internalType": "string",
          "name": "",
          "type": "string"
        }
      ],
      "stateMutability": "view",
      "type": "function"
    },
    {
      "inputs": [
        {
          "internalType": "bytes32",
          "name": "role",
          "type": "bytes32"
        },
        {
          "internalType": "address",
          "name": "account",
          "type": "address"
        }
      ],
      "name": "renounceRole",
      "outputs": [],
      "stateMutability": "nonpayable",
      "type": "function"
    },
    {
      "inputs": [
        {
          "internalType": "bytes32",
          "name": "role",
          "type": "bytes32"
        },
        {
          "internalType": "address",
          "name": "account",
          "type": "address"
        }
      ],
      "name": "revokeRole",
      "outputs": [],
      "stateMutability": "nonpayable",
      "type": "function"
    },
    {
      "inputs": [],
      "name": "settlementFee",
      "outputs": [
        {
          "internalType": "uint256",
          "name": "",
          "type": "uint256"
        }
      ],
      "stateMutability": "view",
      "type": "function"
    },
    {
      "inputs": [
        {
          "internalType": "bytes4",
          "name": "interfaceId",
          "type": "bytes4"
        }
      ],
      "name": "supportsInterface",
      "outputs": [
        {
          "internalType": "bool",
          "name": "",
          "type": "bool"
        }
      ],
      "stateMutability": "view",
      "type": "function"
    },
    {
      "inputs": [],
      "name": "swapSlippage",
      "outputs": [
        {
          "internalType": "uint256",
          "name": "",
          "type": "uint256"
        }
      ],
      "stateMutability": "view",
      "type": "function"
    },
    {
      "inputs": [],
      "name": "symbol",
      "outputs": [
        {
          "internalType": "string",
          "name": "",
          "type": "string"
        }
      ],
      "stateMutability": "view",
      "type": "function"
    },
    {
      "inputs": [],
      "name": "totalSupply",
      "outputs": [
        {
          "internalType": "uint256",
          "name": "",
          "type": "uint256"
        }
      ],
      "stateMutability": "view",
      "type": "function"
    },
    {
      "inputs": [
        {
          "internalType": "address",
          "name": "recipient",
          "type": "address"
        },
        {
          "internalType": "uint256",
          "name": "amount",
          "type": "uint256"
        }
      ],
      "name": "transfer",
      "outputs": [
        {
          "internalType": "bool",
          "name": "",
          "type": "bool"
        }
      ],
      "stateMutability": "nonpayable",
      "type": "function"
    },
    {
      "inputs": [
        {
          "internalType": "address",
          "name": "sender",
          "type": "address"
        },
        {
          "internalType": "address",
          "name": "recipient",
          "type": "address"
        },
        {
          "internalType": "uint256",
          "name": "amount",
          "type": "uint256"
        }
      ],
      "name": "transferFrom",
      "outputs": [
        {
          "internalType": "bool",
          "name": "",
          "type": "bool"
        }
      ],
      "stateMutability": "nonpayable",
      "type": "function"
    },
    {
      "inputs": [
        {
          "internalType": "address",
          "name": "exerciseFeeRecipient",
          "type": "address"
        }
      ],
      "name": "expireOptions",
      "outputs": [],
      "stateMutability": "nonpayable",
      "type": "function"
    },
    {
      "inputs": [
        {
          "internalType": "bool",
          "name": "_net",
          "type": "bool"
        },
        {
          "internalType": "bool",
          "name": "_average",
          "type": "bool"
        }
      ],
      "name": "calcCapital",
      "outputs": [
        {
          "internalType": "uint256",
          "name": "_capital",
          "type": "uint256"
        }
      ],
      "stateMutability": "view",
      "type": "function"
    },
    {
      "inputs": [
        {
          "internalType": "uint256",
          "name": "_depositAmount",
          "type": "uint256"
        }
      ],
      "name": "addCapital",
      "outputs": [],
      "stateMutability": "nonpayable",
      "type": "function"
    },
    {
      "inputs": [
        {
          "internalType": "uint256",
          "name": "_burnMPTokenAmount",
          "type": "uint256"
        }
      ],
      "name": "withdrawCapital",
      "outputs": [],
      "stateMutability": "nonpayable",
      "type": "function"
    },
    {
      "inputs": [
        {
          "internalType": "address",
          "name": "_tokenAddress",
          "type": "address"
        },
        {
          "internalType": "address",
          "name": "_spenderAddress",
          "type": "address"
        },
        {
          "internalType": "uint256",
          "name": "_amount",
          "type": "uint256"
        }
      ],
      "name": "approveSpending",
      "outputs": [],
      "stateMutability": "nonpayable",
      "type": "function"
    },
    {
      "inputs": [
        {
          "internalType": "int256",
          "name": "_underlyingAmt",
          "type": "int256"
        },
        {
          "internalType": "int256",
          "name": "_fundingAmt",
          "type": "int256"
        },
        {
          "internalType": "address",
          "name": "_router",
          "type": "address"
        },
        {
          "internalType": "uint256",
          "name": "_parameter",
          "type": "uint256"
        },
        {
          "internalType": "bool",
          "name": "_useAggregator",
          "type": "bool"
        }
      ],
      "name": "tradesSwaps",
      "outputs": [],
      "stateMutability": "nonpayable",
      "type": "function"
    },
    {
      "inputs": [],
      "name": "hedgeTradesForLoans",
      "outputs": [],
      "stateMutability": "nonpayable",
      "type": "function"
    },
    {
      "inputs": [
        {
          "internalType": "uint256",
          "name": "_newFee",
          "type": "uint256"
        }
      ],
      "name": "resetSettlementFee",
      "outputs": [],
      "stateMutability": "nonpayable",
      "type": "function"
    },
    {
      "inputs": [
        {
          "internalType": "uint256",
          "name": "_newFee",
          "type": "uint256"
        }
      ],
      "name": "resetExerciseFee",
      "outputs": [],
      "stateMutability": "nonpayable",
      "type": "function"
    },
    {
      "inputs": [
        {
          "internalType": "address",
          "name": "_newAddress",
          "type": "address"
        }
      ],
      "name": "resetMaintenance",
      "outputs": [],
      "stateMutability": "nonpayable",
      "type": "function"
    },
    {
      "inputs": [
        {
          "internalType": "uint256",
          "name": "_slippage",
          "type": "uint256"
        }
      ],
      "name": "resetSlippage",
      "outputs": [],
      "stateMutability": "nonpayable",
      "type": "function"
    }
  ],
  "bytecode": "0x60806040526611c37937e080006007556611c37937e080006008556002600d556611c37937e08000600e553480156200003757600080fd5b5060405162006c8938038062006c8983398181016040528101906200005d9190620009db565b828281600390805190602001906200007792919062000729565b5080600490805190602001906200009092919062000729565b505050620000a86000801b336200042b60201b60201c565b620000da7fa49807205ce4d355092ef5a8a18f56e8913cf4a201fbe287825b095693c21775336200042b60201b60201c565b6200010c7f28d62fc77014de57a1bbaa8212ff0979fa61ab00d377b4b8d9762048fb419961336200042b60201b60201c565b6200013e7fa952726ef2588ad078edf35b066f7c7406e207cb0003bbaba8cb53eba9553e72336200042b60201b60201c565b33600c60006101000a81548173ffffffffffffffffffffffffffffffffffffffff021916908373ffffffffffffffffffffffffffffffffffffffff16021790555080600960006101000a81548173ffffffffffffffffffffffffffffffffffffffff021916908373ffffffffffffffffffffffffffffffffffffffff16021790555073__OptionLibrary_________________________63fd9b87636040518163ffffffff1660e01b815260040160206040518083038186803b1580156200020557600080fd5b505af41580156200021a573d6000803e3d6000fd5b505050506040513d601f19601f8201168201806040525081019062000240919062000ab0565b600681905550600960009054906101000a900473ffffffffffffffffffffffffffffffffffffffff1673ffffffffffffffffffffffffffffffffffffffff16636f307dc36040518163ffffffff1660e01b815260040160206040518083038186803b158015620002af57600080fd5b505afa158015620002c4573d6000803e3d6000fd5b505050506040513d601f19601f82011682018060405250810190620002ea919062000ae2565b600a60006101000a81548173ffffffffffffffffffffffffffffffffffffffff021916908373ffffffffffffffffffffffffffffffffffffffff160217905550600960009054906101000a900473ffffffffffffffffffffffffffffffffffffffff1673ffffffffffffffffffffffffffffffffffffffff1663cb4c86b76040518163ffffffff1660e01b815260040160206040518083038186803b1580156200039357600080fd5b505afa158015620003a8573d6000803e3d6000fd5b505050506040513d601f19601f82011682018060405250810190620003ce919062000ae2565b600b60006101000a81548173ffffffffffffffffffffffffffffffffffffffff021916908373ffffffffffffffffffffffffffffffffffffffff16021790555062000422336006546200044160201b60201c565b50505062000cb6565b6200043d8282620005ba60201b60201c565b5050565b600073ffffffffffffffffffffffffffffffffffffffff168273ffffffffffffffffffffffffffffffffffffffff161415620004b4576040517f08c379a0000000000000000000000000000000000000000000000000000000008152600401620004ab9062000b75565b60405180910390fd5b620004c860008383620006ac60201b60201c565b8060026000828254620004dc919062000bc6565b92505081905550806000808473ffffffffffffffffffffffffffffffffffffffff1673ffffffffffffffffffffffffffffffffffffffff168152602001908152602001600020600082825462000533919062000bc6565b925050819055508173ffffffffffffffffffffffffffffffffffffffff16600073ffffffffffffffffffffffffffffffffffffffff167fddf252ad1be2c89b69c2b068fc378daa952ba7f163c4a11628f55a4df523b3ef836040516200059a919062000c34565b60405180910390a3620005b660008383620006b160201b60201c565b5050565b620005cc8282620006b660201b60201c565b620006a85760016005600084815260200190815260200160002060000160008373ffffffffffffffffffffffffffffffffffffffff1673ffffffffffffffffffffffffffffffffffffffff16815260200190815260200160002060006101000a81548160ff0219169083151502179055506200064d6200072160201b60201c565b73ffffffffffffffffffffffffffffffffffffffff168173ffffffffffffffffffffffffffffffffffffffff16837f2f8788117e7eff1d82e926ec794901d17c78024a50270940304540a733656f0d60405160405180910390a45b5050565b505050565b505050565b60006005600084815260200190815260200160002060000160008373ffffffffffffffffffffffffffffffffffffffff1673ffffffffffffffffffffffffffffffffffffffff16815260200190815260200160002060009054906101000a900460ff16905092915050565b600033905090565b828054620007379062000c80565b90600052602060002090601f0160209004810192826200075b5760008555620007a7565b82601f106200077657805160ff1916838001178555620007a7565b82800160010185558215620007a7579182015b82811115620007a657825182559160200191906001019062000789565b5b509050620007b69190620007ba565b5090565b5b80821115620007d5576000816000905550600101620007bb565b5090565b6000604051905090565b600080fd5b600080fd5b600080fd5b600080fd5b6000601f19601f8301169050919050565b7f4e487b7100000000000000000000000000000000000000000000000000000000600052604160045260246000fd5b6200084282620007f7565b810181811067ffffffffffffffff8211171562000864576200086362000808565b5b80604052505050565b600062000879620007d9565b905062000887828262000837565b919050565b600067ffffffffffffffff821115620008aa57620008a962000808565b5b620008b582620007f7565b9050602081019050919050565b60005b83811015620008e2578082015181840152602081019050620008c5565b83811115620008f2576000848401525b50505050565b60006200090f62000909846200088c565b6200086d565b9050828152602081018484840111156200092e576200092d620007f2565b5b6200093b848285620008c2565b509392505050565b600082601f8301126200095b576200095a620007ed565b5b81516200096d848260208601620008f8565b91505092915050565b600073ffffffffffffffffffffffffffffffffffffffff82169050919050565b6000620009a38262000976565b9050919050565b620009b58162000996565b8114620009c157600080fd5b50565b600081519050620009d581620009aa565b92915050565b600080600060608486031215620009f757620009f6620007e3565b5b600084015167ffffffffffffffff81111562000a185762000a17620007e8565b5b62000a268682870162000943565b935050602084015167ffffffffffffffff81111562000a4a5762000a49620007e8565b5b62000a588682870162000943565b925050604062000a6b86828701620009c4565b9150509250925092565b6000819050919050565b62000a8a8162000a75565b811462000a9657600080fd5b50565b60008151905062000aaa8162000a7f565b92915050565b60006020828403121562000ac95762000ac8620007e3565b5b600062000ad98482850162000a99565b91505092915050565b60006020828403121562000afb5762000afa620007e3565b5b600062000b0b84828501620009c4565b91505092915050565b600082825260208201905092915050565b7f45524332303a206d696e7420746f20746865207a65726f206164647265737300600082015250565b600062000b5d601f8362000b14565b915062000b6a8262000b25565b602082019050919050565b6000602082019050818103600083015262000b908162000b4e565b9050919050565b7f4e487b7100000000000000000000000000000000000000000000000000000000600052601160045260246000fd5b600062000bd38262000a75565b915062000be08362000a75565b9250827fffffffffffffffffffffffffffffffffffffffffffffffffffffffffffffffff0382111562000c185762000c1762000b97565b5b828201905092915050565b62000c2e8162000a75565b82525050565b600060208201905062000c4b600083018462000c23565b92915050565b7f4e487b7100000000000000000000000000000000000000000000000000000000600052602260045260246000fd5b6000600282049050600182168062000c9957607f821691505b6020821081141562000cb05762000caf62000c51565b5b50919050565b615fc38062000cc66000396000f3fe608060405234801561001057600080fd5b50600436106102275760003560e01c80636394f6e611610130578063a9059cbb116100b8578063d8a14cbe1161007c578063d8a14cbe1461067c578063d95b0a1214610698578063dd62ed3e146106b4578063e3f828fa146106e4578063ecc513f01461070057610227565b8063a9059cbb146105d8578063b82e106d14610608578063bea10f9614610626578063d1c699aa14610642578063d547741f1461066057610227565b80637d1d7fb8116100ff5780637d1d7fb81461051e57806391d148541461053c57806395d89b411461056c578063a217fddf1461058a578063a457c2d7146105a857610227565b80636394f6e61461049457806370a08231146104b2578063719d5f83146104e257806375b238fc1461050057610227565b8063313ce567116101b3578063395093511161018257806339509351146103de5780633b7345011461040e57806345b2f91c1461042c57806346c777d814610448578063634479021461046457610227565b8063313ce5671461037e57806333d0d83c1461039c57806336568abe146103b85780633733116d146103d457610227565b806318160ddd116101fa57806318160ddd146102c65780631aedeabe146102e457806323b872dd14610302578063248a9ca3146103325780632f2ff15d1461036257610227565b806301ffc9a71461022c57806306fdde031461025c57806307ba08ce1461027a578063095ea7b314610296575b600080fd5b610246600480360381019061024191906141bb565b61071c565b6040516102539190614203565b60405180910390f35b610264610796565b60405161027191906142b7565b60405180910390f35b610294600480360381019061028f9190614337565b610828565b005b6102b060048036038101906102ab919061439a565b6111af565b6040516102bd9190614203565b60405180910390f35b6102ce6111cd565b6040516102db91906143e9565b60405180910390f35b6102ec6111d7565b6040516102f991906143e9565b60405180910390f35b61031c60048036038101906103179190614404565b6111dd565b6040516103299190614203565b60405180910390f35b61034c6004803603810190610347919061448d565b6112d5565b60405161035991906144c9565b60405180910390f35b61037c600480360381019061037791906144e4565b6112f5565b005b61038661131e565b6040516103939190614540565b60405180910390f35b6103b660048036038101906103b191906145bd565b611327565b005b6103d260048036038101906103cd91906144e4565b611567565b005b6103dc6115ea565b005b6103f860048036038101906103f3919061439a565b6121a7565b6040516104059190614203565b60405180910390f35b610416612253565b60405161042391906144c9565b60405180910390f35b61044660048036038101906104419190614337565b612277565b005b610462600480360381019061045d9190614638565b6122ee565b005b61047e60048036038101906104799190614665565b612339565b60405161048b91906143e9565b60405180910390f35b61049c612654565b6040516104a991906144c9565b60405180910390f35b6104cc60048036038101906104c79190614337565b612678565b6040516104d991906143e9565b60405180910390f35b6104ea6126c0565b6040516104f791906146b4565b60405180910390f35b6105086126e6565b60405161051591906144c9565b60405180910390f35b61052661270a565b60405161053391906143e9565b60405180910390f35b610556600480360381019061055191906144e4565b612710565b6040516105639190614203565b60405180910390f35b61057461277b565b60405161058191906142b7565b60405180910390f35b61059261280d565b60405161059f91906144c9565b60405180910390f35b6105c260048036038101906105bd919061439a565b612814565b6040516105cf9190614203565b60405180910390f35b6105f260048036038101906105ed919061439a565b6128ff565b6040516105ff9190614203565b60405180910390f35b61061061291d565b60405161061d91906143e9565b60405180910390f35b610640600480360381019061063b9190614638565b612923565b005b61064a612aec565b60405161065791906143e9565b60405180910390f35b61067a600480360381019061067591906144e4565b612af2565b005b61069660048036038101906106919190614404565b612b1b565b005b6106b260048036038101906106ad9190614638565b612be1565b005b6106ce60048036038101906106c991906146cf565b612e93565b6040516106db91906143e9565b60405180910390f35b6106fe60048036038101906106f99190614638565b612f1a565b005b61071a60048036038101906107159190614638565b612f57565b005b60007f7965db0b000000000000000000000000000000000000000000000000000000007bffffffffffffffffffffffffffffffffffffffffffffffffffffffff1916827bffffffffffffffffffffffffffffffffffffffffffffffffffffffff1916148061078f575061078e82612fa2565b5b9050919050565b6060600380546107a59061473e565b80601f01602080910402602001604051908101604052809291908181526020018280546107d19061473e565b801561081e5780601f106107f35761010080835404028352916020019161081e565b820191906000526020600020905b81548152906001019060200180831161080157829003601f168201915b5050505050905090565b6000600960009054906101000a900473ffffffffffffffffffffffffffffffffffffffff1673ffffffffffffffffffffffffffffffffffffffff16637652e7c46040518163ffffffff1660e01b815260040160206040518083038186803b15801561089257600080fd5b505afa1580156108a6573d6000803e3d6000fd5b505050506040513d601f19601f820116820180604052508101906108ca9190614785565b90505b60008111156111ab57600960009054906101000a900473ffffffffffffffffffffffffffffffffffffffff1673ffffffffffffffffffffffffffffffffffffffff1663637baf60826040518263ffffffff1660e01b815260040161093191906143e9565b600060405180830381600087803b15801561094b57600080fd5b505af115801561095f573d6000803e3d6000fd5b50505050600080600960009054906101000a900473ffffffffffffffffffffffffffffffffffffffff1673ffffffffffffffffffffffffffffffffffffffff166385ae10e6846040518263ffffffff1660e01b81526004016109c191906143e9565b604080518083038186803b1580156109d857600080fd5b505afa1580156109ec573d6000803e3d6000fd5b505050506040513d601f19601f82011682018060405250810190610a1091906147b2565b9150915073__MarketLibrary_________________________63eea2526b600b60009054906101000a900473ffffffffffffffffffffffffffffffffffffffff16306040518363ffffffff1660e01b8152600401610a6f929190614801565b60206040518083038186803b158015610a8757600080fd5b505af4158015610a9b573d6000803e3d6000fd5b505050506040513d601f19601f82011682018060405250810190610abf9190614785565b8110610b00576040517f08c379a0000000000000000000000000000000000000000000000000000000008152600401610af790614876565b60405180910390fd5b6000811115611102576000818314610b185781610b42565b610b4182600854600754600654610b2f91906148c5565b610b3991906148c5565b60065461300c565b5b90506000610b558460075460065461300c565b90506000610b688560085460065461300c565b9050600b60009054906101000a900473ffffffffffffffffffffffffffffffffffffffff1673ffffffffffffffffffffffffffffffffffffffff1663a9059cbb600960009054906101000a900473ffffffffffffffffffffffffffffffffffffffff1673ffffffffffffffffffffffffffffffffffffffff16631a7985ba896040518263ffffffff1660e01b8152600401610c0391906143e9565b60206040518083038186803b158015610c1b57600080fd5b505afa158015610c2f573d6000803e3d6000fd5b505050506040513d601f19601f82011682018060405250810190610c53919061490e565b73__MarketLibrary_________________________638170ce8087600b60009054906101000a900473ffffffffffffffffffffffffffffffffffffffff166040518363ffffffff1660e01b8152600401610cae92919061494a565b60206040518083038186803b158015610cc657600080fd5b505af4158015610cda573d6000803e3d6000fd5b505050506040513d601f19601f82011682018060405250810190610cfe9190614785565b6040518363ffffffff1660e01b8152600401610d1b929190614973565b602060405180830381600087803b158015610d3557600080fd5b505af1158015610d49573d6000803e3d6000fd5b505050506040513d601f19601f82011682018060405250810190610d6d91906149b1565b610dac576040517f08c379a0000000000000000000000000000000000000000000000000000000008152600401610da390614a2a565b60405180910390fd5b600b60009054906101000a900473ffffffffffffffffffffffffffffffffffffffff1673ffffffffffffffffffffffffffffffffffffffff1663a9059cbb600c60009054906101000a900473ffffffffffffffffffffffffffffffffffffffff1673__MarketLibrary_________________________638170ce8086600b60009054906101000a900473ffffffffffffffffffffffffffffffffffffffff166040518363ffffffff1660e01b8152600401610e6892919061494a565b60206040518083038186803b158015610e8057600080fd5b505af4158015610e94573d6000803e3d6000fd5b505050506040513d601f19601f82011682018060405250810190610eb89190614785565b6040518363ffffffff1660e01b8152600401610ed5929190614973565b602060405180830381600087803b158015610eef57600080fd5b505af1158015610f03573d6000803e3d6000fd5b505050506040513d601f19601f82011682018060405250810190610f2791906149b1565b610f66576040517f08c379a0000000000000000000000000000000000000000000000000000000008152600401610f5d90614a96565b60405180910390fd5b600b60009054906101000a900473ffffffffffffffffffffffffffffffffffffffff1673ffffffffffffffffffffffffffffffffffffffff1663a9059cbb8873__MarketLibrary_________________________638170ce8085600b60009054906101000a900473ffffffffffffffffffffffffffffffffffffffff166040518363ffffffff1660e01b815260040161100092919061494a565b60206040518083038186803b15801561101857600080fd5b505af415801561102c573d6000803e3d6000fd5b505050506040513d601f19601f820116820180604052508101906110509190614785565b6040518363ffffffff1660e01b815260040161106d929190614973565b602060405180830381600087803b15801561108757600080fd5b505af115801561109b573d6000803e3d6000fd5b505050506040513d601f19601f820116820180604052508101906110bf91906149b1565b6110fe576040517f08c379a00000000000000000000000000000000000000000000000000000000081526004016110f590614b02565b60405180910390fd5b5050505b600960009054906101000a900473ffffffffffffffffffffffffffffffffffffffff1673ffffffffffffffffffffffffffffffffffffffff16637652e7c46040518163ffffffff1660e01b815260040160206040518083038186803b15801561116a57600080fd5b505afa15801561117e573d6000803e3d6000fd5b505050506040513d601f19601f820116820180604052508101906111a29190614785565b925050506108cd565b5050565b60006111c36111bc613108565b8484613110565b6001905092915050565b6000600254905090565b600e5481565b60006111ea8484846132db565b6000600160008673ffffffffffffffffffffffffffffffffffffffff1673ffffffffffffffffffffffffffffffffffffffff1681526020019081526020016000206000611235613108565b73ffffffffffffffffffffffffffffffffffffffff1673ffffffffffffffffffffffffffffffffffffffff168152602001908152602001600020549050828110156112b5576040517f08c379a00000000000000000000000000000000000000000000000000000000081526004016112ac90614b94565b60405180910390fd5b6112c9856112c1613108565b858403613110565b60019150509392505050565b600060056000838152602001908152602001600020600101549050919050565b6112fe826112d5565b61130f8161130a613108565b61355c565b61131983836135f9565b505050565b60006012905090565b7fa952726ef2588ad078edf35b066f7c7406e207cb0003bbaba8cb53eba9553e7261135981611354613108565b61355c565b60008060008073__MarketLibrary_________________________63865c99848b8b600960009054906101000a900473ffffffffffffffffffffffffffffffffffffffff1673ffffffffffffffffffffffffffffffffffffffff16636f307dc36040518163ffffffff1660e01b815260040160206040518083038186803b1580156113e357600080fd5b505afa1580156113f7573d6000803e3d6000fd5b505050506040513d601f19601f8201168201806040525081019061141b919061490e565b600960009054906101000a900473ffffffffffffffffffffffffffffffffffffffff1673ffffffffffffffffffffffffffffffffffffffff1663cb4c86b76040518163ffffffff1660e01b815260040160206040518083038186803b15801561148357600080fd5b505afa158015611497573d6000803e3d6000fd5b505050506040513d601f19601f820116820180604052508101906114bb919061490e565b6040518563ffffffff1660e01b81526004016114da9493929190614bc3565b60806040518083038186803b1580156114f257600080fd5b505af4158015611506573d6000803e3d6000fd5b505050506040513d601f19601f8201168201806040525081019061152a9190614c08565b935093509350935085156115475761154682828a87878c6136da565b5b8561155b5761155a82828a87878c6138b0565b5b50505050505050505050565b61156f613108565b73ffffffffffffffffffffffffffffffffffffffff168173ffffffffffffffffffffffffffffffffffffffff16146115dc576040517f08c379a00000000000000000000000000000000000000000000000000000000081526004016115d390614ce1565b60405180910390fd5b6115e68282613ad7565b5050565b7fa952726ef2588ad078edf35b066f7c7406e207cb0003bbaba8cb53eba9553e7261161c81611617613108565b61355c565b600080600960009054906101000a900473ffffffffffffffffffffffffffffffffffffffff1673ffffffffffffffffffffffffffffffffffffffff166337f0882f60006040518263ffffffff1660e01b815260040161167b9190614203565b604080518083038186803b15801561169257600080fd5b505afa1580156116a6573d6000803e3d6000fd5b505050506040513d601f19601f820116820180604052508101906116ca9190614d16565b915091506000600960009054906101000a900473ffffffffffffffffffffffffffffffffffffffff1673ffffffffffffffffffffffffffffffffffffffff1663251e1e8a6040518163ffffffff1660e01b815260040160206040518083038186803b15801561173857600080fd5b505afa15801561174c573d6000803e3d6000fd5b505050506040513d601f19601f82011682018060405250810190611770919061490e565b73ffffffffffffffffffffffffffffffffffffffff166321f8a7216040518163ffffffff1660e01b81526004016117a690614d7c565b60206040518083038186803b1580156117be57600080fd5b505afa1580156117d2573d6000803e3d6000fd5b505050506040513d601f19601f820116820180604052508101906117f6919061490e565b90506000600960009054906101000a900473ffffffffffffffffffffffffffffffffffffffff1673ffffffffffffffffffffffffffffffffffffffff1663251e1e8a6040518163ffffffff1660e01b815260040160206040518083038186803b15801561186257600080fd5b505afa158015611876573d6000803e3d6000fd5b505050506040513d601f19601f8201168201806040525081019061189a919061490e565b73ffffffffffffffffffffffffffffffffffffffff16630261bf8b6040518163ffffffff1660e01b815260040160206040518083038186803b1580156118df57600080fd5b505afa1580156118f3573d6000803e3d6000fd5b505050506040513d601f19601f82011682018060405250810190611917919061490e565b9050600080600073__MarketLibrary_________________________63b076288a30878a600a60009054906101000a900473ffffffffffffffffffffffffffffffffffffffff166002600d54146040518663ffffffff1660e01b8152600401611984959493929190614da4565b60606040518083038186803b15801561199c57600080fd5b505af41580156119b0573d6000803e3d6000fd5b505050506040513d601f19601f820116820180604052508101906119d49190614df7565b92509250925073__MarketLibrary_________________________63aa5c12c784836040518363ffffffff1660e01b8152600401611a13929190614e4a565b60206040518083038186803b158015611a2b57600080fd5b505af4158015611a3f573d6000803e3d6000fd5b505050506040513d601f19601f82011682018060405250810190611a639190614e73565b925060008073__MarketLibrary_________________________6312638d3a3089878c600b60009054906101000a900473ffffffffffffffffffffffffffffffffffffffff16600a60009054906101000a900473ffffffffffffffffffffffffffffffffffffffff166040518763ffffffff1660e01b8152600401611aed96959493929190614ea0565b604080518083038186803b158015611b0457600080fd5b505af4158015611b18573d6000803e3d6000fd5b505050506040513d601f19601f82011682018060405250810190611b3c9190614f01565b915091506000821315611c8e57600b60009054906101000a900473ffffffffffffffffffffffffffffffffffffffff1673ffffffffffffffffffffffffffffffffffffffff16633950935187846040518363ffffffff1660e01b8152600401611ba6929190614973565b602060405180830381600087803b158015611bc057600080fd5b505af1158015611bd4573d6000803e3d6000fd5b505050506040513d601f19601f82011682018060405250810190611bf891906149b1565b508573ffffffffffffffffffffffffffffffffffffffff1663e8eda9df600b60009054906101000a900473ffffffffffffffffffffffffffffffffffffffff16843060006040518563ffffffff1660e01b8152600401611c5b9493929190614f94565b600060405180830381600087803b158015611c7557600080fd5b505af1158015611c89573d6000803e3d6000fd5b505050505b6000851315611d30578573ffffffffffffffffffffffffffffffffffffffff1663a415bcad600a60009054906101000a900473ffffffffffffffffffffffffffffffffffffffff1687600d546000306040518663ffffffff1660e01b8152600401611cfd959493929190614fd9565b600060405180830381600087803b158015611d1757600080fd5b505af1158015611d2b573d6000803e3d6000fd5b505050505b600085121561203f5784611d439061502c565b600a60009054906101000a900473ffffffffffffffffffffffffffffffffffffffff1673ffffffffffffffffffffffffffffffffffffffff166370a08231306040518263ffffffff1660e01b8152600401611d9e91906146b4565b60206040518083038186803b158015611db657600080fd5b505afa158015611dca573d6000803e3d6000fd5b505050506040513d601f19601f82011682018060405250810190611dee9190614785565b1015611e2f576040517f08c379a0000000000000000000000000000000000000000000000000000000008152600401611e26906150c1565b60405180910390fd5b8273ffffffffffffffffffffffffffffffffffffffff1663095ea7b38787611e569061502c565b6040518363ffffffff1660e01b8152600401611e73929190614973565b602060405180830381600087803b158015611e8d57600080fd5b505af1158015611ea1573d6000803e3d6000fd5b505050506040513d601f19601f82011682018060405250810190611ec591906149b1565b50600a60009054906101000a900473ffffffffffffffffffffffffffffffffffffffff1673ffffffffffffffffffffffffffffffffffffffff1663095ea7b38787611f0f9061502c565b6040518363ffffffff1660e01b8152600401611f2c929190614973565b602060405180830381600087803b158015611f4657600080fd5b505af1158015611f5a573d6000803e3d6000fd5b505050506040513d601f19601f82011682018060405250810190611f7e91906149b1565b508573ffffffffffffffffffffffffffffffffffffffff1663573ade81600a60009054906101000a900473ffffffffffffffffffffffffffffffffffffffff1687611fc89061502c565b600d54306040518563ffffffff1660e01b8152600401611feb94939291906150e1565b602060405180830381600087803b15801561200557600080fd5b505af1158015612019573d6000803e3d6000fd5b505050506040513d601f19601f8201168201806040525081019061203d9190614785565b505b600082121561219b578073ffffffffffffffffffffffffffffffffffffffff166339509351878461206f9061502c565b6040518363ffffffff1660e01b815260040161208c929190614973565b602060405180830381600087803b1580156120a657600080fd5b505af11580156120ba573d6000803e3d6000fd5b505050506040513d601f19601f820116820180604052508101906120de91906149b1565b508573ffffffffffffffffffffffffffffffffffffffff166369328dec600b60009054906101000a900473ffffffffffffffffffffffffffffffffffffffff16846121289061502c565b306040518463ffffffff1660e01b815260040161214793929190615126565b602060405180830381600087803b15801561216157600080fd5b505af1158015612175573d6000803e3d6000fd5b505050506040513d601f19601f820116820180604052508101906121999190614785565b505b50505050505050505050565b60006122496121b4613108565b8484600160006121c2613108565b73ffffffffffffffffffffffffffffffffffffffff1673ffffffffffffffffffffffffffffffffffffffff16815260200190815260200160002060008873ffffffffffffffffffffffffffffffffffffffff1673ffffffffffffffffffffffffffffffffffffffff16815260200190815260200160002054612244919061515d565b613110565b6001905092915050565b7f28d62fc77014de57a1bbaa8212ff0979fa61ab00d377b4b8d9762048fb41996181565b7fa49807205ce4d355092ef5a8a18f56e8913cf4a201fbe287825b095693c217756122a9816122a4613108565b61355c565b81600c60006101000a81548173ffffffffffffffffffffffffffffffffffffffff021916908373ffffffffffffffffffffffffffffffffffffffff1602179055505050565b7fa49807205ce4d355092ef5a8a18f56e8913cf4a201fbe287825b095693c217756123208161231b613108565b61355c565b600654821061232e57600080fd5b816007819055505050565b600080600960009054906101000a900473ffffffffffffffffffffffffffffffffffffffff1673ffffffffffffffffffffffffffffffffffffffff1663b0667cf86040518163ffffffff1660e01b8152600401604080518083038186803b1580156123a357600080fd5b505afa1580156123b7573d6000803e3d6000fd5b505050506040513d601f19601f820116820180604052508101906123db91906147b2565b509050600080600080600960009054906101000a900473ffffffffffffffffffffffffffffffffffffffff1673ffffffffffffffffffffffffffffffffffffffff1663c84aae17306040518263ffffffff1660e01b815260040161243f91906146b4565b60806040518083038186803b15801561245757600080fd5b505afa15801561246b573d6000803e3d6000fd5b505050506040513d601f19601f8201168201806040525081019061248f91906151b3565b93509350935093506124a4848660065461300c565b82846124b0919061515d565b6124ba919061515d565b95506124c9818660065461300c565b861161250a576040517f08c379a000000000000000000000000000000000000000000000000000000000815260040161250190615266565b60405180910390fd5b612517818660065461300c565b8661252291906148c5565b955087156125f9576125eb6125e5600960009054906101000a900473ffffffffffffffffffffffffffffffffffffffff1673ffffffffffffffffffffffffffffffffffffffff16633b7745ab60006040518263ffffffff1660e01b815260040161258c9190614203565b60206040518083038186803b1580156125a457600080fd5b505afa1580156125b8573d6000803e3d6000fd5b505050506040513d601f19601f820116820180604052508101906125dc9190614785565b8760065461300c565b87613bb9565b866125f691906148c5565b95505b86156126495760006126096111cd565b1115612626576126238660065461261e6111cd565b61300c565b95505b60006126306111cd565b14801561263d5750600086145b156126485760065495505b5b505050505092915050565b7fa952726ef2588ad078edf35b066f7c7406e207cb0003bbaba8cb53eba9553e7281565b60008060008373ffffffffffffffffffffffffffffffffffffffff1673ffffffffffffffffffffffffffffffffffffffff168152602001908152602001600020549050919050565b600c60009054906101000a900473ffffffffffffffffffffffffffffffffffffffff1681565b7fa49807205ce4d355092ef5a8a18f56e8913cf4a201fbe287825b095693c2177581565b60075481565b60006005600084815260200190815260200160002060000160008373ffffffffffffffffffffffffffffffffffffffff1673ffffffffffffffffffffffffffffffffffffffff16815260200190815260200160002060009054906101000a900460ff16905092915050565b60606004805461278a9061473e565b80601f01602080910402602001604051908101604052809291908181526020018280546127b69061473e565b80156128035780601f106127d857610100808354040283529160200191612803565b820191906000526020600020905b8154815290600101906020018083116127e657829003601f168201915b5050505050905090565b6000801b81565b60008060016000612823613108565b73ffffffffffffffffffffffffffffffffffffffff1673ffffffffffffffffffffffffffffffffffffffff16815260200190815260200160002060008573ffffffffffffffffffffffffffffffffffffffff1673ffffffffffffffffffffffffffffffffffffffff168152602001908152602001600020549050828110156128e0576040517f08c379a00000000000000000000000000000000000000000000000000000000081526004016128d7906152f8565b60405180910390fd5b6128f46128eb613108565b85858403613110565b600191505092915050565b600061291361290c613108565b84846132db565b6001905092915050565b600d5481565b60006129e773__MarketLibrary_________________________63f0742a2584600b60009054906101000a900473ffffffffffffffffffffffffffffffffffffffff166040518363ffffffff1660e01b815260040161298392919061494a565b60206040518083038186803b15801561299b57600080fd5b505af41580156129af573d6000803e3d6000fd5b505050506040513d601f19601f820116820180604052508101906129d39190614785565b6006546129e260006001612339565b61300c565b9050600b60009054906101000a900473ffffffffffffffffffffffffffffffffffffffff1673ffffffffffffffffffffffffffffffffffffffff166323b872dd3330856040518463ffffffff1660e01b8152600401612a4893929190615318565b602060405180830381600087803b158015612a6257600080fd5b505af1158015612a76573d6000803e3d6000fd5b505050506040513d601f19601f82011682018060405250810190612a9a91906149b1565b612aa357600080fd5b612aad3382613bd2565b7fd0d5ca25112902dbbf5a70a67eed6edc7513b74f2a7ec0805ca216c99f981cc1338383604051612ae09392919061534f565b60405180910390a15050565b60085481565b612afb826112d5565b612b0c81612b07613108565b61355c565b612b168383613ad7565b505050565b7fa952726ef2588ad078edf35b066f7c7406e207cb0003bbaba8cb53eba9553e72612b4d81612b48613108565b61355c565b8373ffffffffffffffffffffffffffffffffffffffff1663095ea7b384846040518363ffffffff1660e01b8152600401612b88929190614973565b602060405180830381600087803b158015612ba257600080fd5b505af1158015612bb6573d6000803e3d6000fd5b505050506040513d601f19601f82011682018060405250810190612bda91906149b1565b5050505050565b600073__MarketLibrary_________________________638170ce80612c14612c0b600180612339565b8560065461300c565b600b60009054906101000a900473ffffffffffffffffffffffffffffffffffffffff166040518363ffffffff1660e01b8152600401612c5492919061494a565b60206040518083038186803b158015612c6c57600080fd5b505af4158015612c80573d6000803e3d6000fd5b505050506040513d601f19601f82011682018060405250810190612ca49190614785565b905080600b60009054906101000a900473ffffffffffffffffffffffffffffffffffffffff1673ffffffffffffffffffffffffffffffffffffffff166370a08231306040518263ffffffff1660e01b8152600401612d0291906146b4565b60206040518083038186803b158015612d1a57600080fd5b505afa158015612d2e573d6000803e3d6000fd5b505050506040513d601f19601f82011682018060405250810190612d529190614785565b11612d92576040517f08c379a0000000000000000000000000000000000000000000000000000000008152600401612d89906153d2565b60405180910390fd5b612d9c3383613d32565b600b60009054906101000a900473ffffffffffffffffffffffffffffffffffffffff1673ffffffffffffffffffffffffffffffffffffffff1663a9059cbb33836040518363ffffffff1660e01b8152600401612df9929190614973565b602060405180830381600087803b158015612e1357600080fd5b505af1158015612e27573d6000803e3d6000fd5b505050506040513d601f19601f82011682018060405250810190612e4b91906149b1565b612e5457600080fd5b7f3a9e5b3b520d77dc26bf05104c863b6b654d4b96fa8031a783ad0dbd905cdf39338383604051612e879392919061534f565b60405180910390a15050565b6000600160008473ffffffffffffffffffffffffffffffffffffffff1673ffffffffffffffffffffffffffffffffffffffff16815260200190815260200160002060008373ffffffffffffffffffffffffffffffffffffffff1673ffffffffffffffffffffffffffffffffffffffff16815260200190815260200160002054905092915050565b7fa49807205ce4d355092ef5a8a18f56e8913cf4a201fbe287825b095693c21775612f4c81612f47613108565b61355c565b81600e819055505050565b7fa49807205ce4d355092ef5a8a18f56e8913cf4a201fbe287825b095693c21775612f8981612f84613108565b61355c565b6006548210612f9757600080fd5b816008819055505050565b60007f01ffc9a7000000000000000000000000000000000000000000000000000000007bffffffffffffffffffffffffffffffffffffffffffffffffffffffff1916827bffffffffffffffffffffffffffffffffffffffffffffffffffffffff1916149050919050565b600080600080198587098587029250828110838203039150506000811415613047576000841161303b57600080fd5b83820492505050613101565b80841161305357600080fd5b60008486880990508281118203915080830392506000856001877fffffffffffffffffffffffffffffffffffffffffffffffffffffffffffffffff0301169050808604955080840493506001818260000304019050808302841793506000600287600302189050808702600203810290508087026002038102905080870260020381029050808702600203810290508087026002038102905080870260020381029050808502955050505050505b9392505050565b600033905090565b600073ffffffffffffffffffffffffffffffffffffffff168373ffffffffffffffffffffffffffffffffffffffff161415613180576040517f08c379a000000000000000000000000000000000000000000000000000000000815260040161317790615464565b60405180910390fd5b600073ffffffffffffffffffffffffffffffffffffffff168273ffffffffffffffffffffffffffffffffffffffff1614156131f0576040517f08c379a00000000000000000000000000000000000000000000000000000000081526004016131e7906154f6565b60405180910390fd5b80600160008573ffffffffffffffffffffffffffffffffffffffff1673ffffffffffffffffffffffffffffffffffffffff16815260200190815260200160002060008473ffffffffffffffffffffffffffffffffffffffff1673ffffffffffffffffffffffffffffffffffffffff168152602001908152602001600020819055508173ffffffffffffffffffffffffffffffffffffffff168373ffffffffffffffffffffffffffffffffffffffff167f8c5be1e5ebec7d5bd14f71427d1e84f3dd0314c0f7b2291e5b200ac8c7c3b925836040516132ce91906143e9565b60405180910390a3505050565b600073ffffffffffffffffffffffffffffffffffffffff168373ffffffffffffffffffffffffffffffffffffffff16141561334b576040517f08c379a000000000000000000000000000000000000000000000000000000000815260040161334290615588565b60405180910390fd5b600073ffffffffffffffffffffffffffffffffffffffff168273ffffffffffffffffffffffffffffffffffffffff1614156133bb576040517f08c379a00000000000000000000000000000000000000000000000000000000081526004016133b29061561a565b60405180910390fd5b6133c6838383613f09565b60008060008573ffffffffffffffffffffffffffffffffffffffff1673ffffffffffffffffffffffffffffffffffffffff1681526020019081526020016000205490508181101561344c576040517f08c379a0000000000000000000000000000000000000000000000000000000008152600401613443906156ac565b60405180910390fd5b8181036000808673ffffffffffffffffffffffffffffffffffffffff1673ffffffffffffffffffffffffffffffffffffffff16815260200190815260200160002081905550816000808573ffffffffffffffffffffffffffffffffffffffff1673ffffffffffffffffffffffffffffffffffffffff16815260200190815260200160002060008282546134df919061515d565b925050819055508273ffffffffffffffffffffffffffffffffffffffff168473ffffffffffffffffffffffffffffffffffffffff167fddf252ad1be2c89b69c2b068fc378daa952ba7f163c4a11628f55a4df523b3ef8460405161354391906143e9565b60405180910390a3613556848484613f0e565b50505050565b6135668282612710565b6135f55761358b8173ffffffffffffffffffffffffffffffffffffffff166014613f13565b6135998360001c6020613f13565b6040516020016135aa9291906157a0565b6040516020818303038152906040526040517f08c379a00000000000000000000000000000000000000000000000000000000081526004016135ec91906142b7565b60405180910390fd5b5050565b6136038282612710565b6136d65760016005600084815260200190815260200160002060000160008373ffffffffffffffffffffffffffffffffffffffff1673ffffffffffffffffffffffffffffffffffffffff16815260200190815260200160002060006101000a81548160ff02191690831515021790555061367b613108565b73ffffffffffffffffffffffffffffffffffffffff168173ffffffffffffffffffffffffffffffffffffffff16837f2f8788117e7eff1d82e926ec794901d17c78024a50270940304540a733656f0d60405160405180910390a45b5050565b8573ffffffffffffffffffffffffffffffffffffffff1663095ea7b385856040518363ffffffff1660e01b8152600401613715929190614973565b602060405180830381600087803b15801561372f57600080fd5b505af1158015613743573d6000803e3d6000fd5b505050506040513d601f19601f8201168201806040525081019061376791906149b1565b506000808573ffffffffffffffffffffffffffffffffffffffff1663085e2c5b8989888760006040518663ffffffff1660e01b81526004016137ad959493929190615860565b60006040518083038186803b1580156137c557600080fd5b505afa1580156137d9573d6000803e3d6000fd5b505050506040513d6000823e3d601f19601f8201168201806040525081019061380291906159fb565b915091508573ffffffffffffffffffffffffffffffffffffffff1663e2a7515e89898861382f878a613bb9565b8660006040518763ffffffff1660e01b815260040161385396959493929190615b15565b602060405180830381600087803b15801561386d57600080fd5b505af1158015613881573d6000803e3d6000fd5b505050506040513d601f19601f820116820180604052508101906138a59190614785565b505050505050505050565b8573ffffffffffffffffffffffffffffffffffffffff1663095ea7b385856040518363ffffffff1660e01b81526004016138eb929190614973565b602060405180830381600087803b15801561390557600080fd5b505af1158015613919573d6000803e3d6000fd5b505050506040513d601f19601f8201168201806040525081019061393d91906149b1565b506000600267ffffffffffffffff81111561395b5761395a6158b8565b5b6040519080825280602002602001820160405280156139895781602001602082028036833780820191505090505b50905086816000815181106139a1576139a0615b7d565b5b602002602001019073ffffffffffffffffffffffffffffffffffffffff16908173ffffffffffffffffffffffffffffffffffffffff168152505085816001815181106139f0576139ef615b7d565b5b602002602001019073ffffffffffffffffffffffffffffffffffffffff16908173ffffffffffffffffffffffffffffffffffffffff16815250508473ffffffffffffffffffffffffffffffffffffffff16638803dbee858584308742613a56919061515d565b6040518663ffffffff1660e01b8152600401613a76959493929190615c6a565b600060405180830381600087803b158015613a9057600080fd5b505af1158015613aa4573d6000803e3d6000fd5b505050506040513d6000823e3d601f19601f82011682018060405250810190613acd9190615cc4565b5050505050505050565b613ae18282612710565b15613bb55760006005600084815260200190815260200160002060000160008373ffffffffffffffffffffffffffffffffffffffff1673ffffffffffffffffffffffffffffffffffffffff16815260200190815260200160002060006101000a81548160ff021916908315150217905550613b5a613108565b73ffffffffffffffffffffffffffffffffffffffff168173ffffffffffffffffffffffffffffffffffffffff16837ff6391f5c32d9c69d2a47ea670b442974b53935d1edc7fd64eb21e047a839171b60405160405180910390a45b5050565b6000818310613bc85781613bca565b825b905092915050565b600073ffffffffffffffffffffffffffffffffffffffff168273ffffffffffffffffffffffffffffffffffffffff161415613c42576040517f08c379a0000000000000000000000000000000000000000000000000000000008152600401613c3990615d59565b60405180910390fd5b613c4e60008383613f09565b8060026000828254613c60919061515d565b92505081905550806000808473ffffffffffffffffffffffffffffffffffffffff1673ffffffffffffffffffffffffffffffffffffffff1681526020019081526020016000206000828254613cb5919061515d565b925050819055508173ffffffffffffffffffffffffffffffffffffffff16600073ffffffffffffffffffffffffffffffffffffffff167fddf252ad1be2c89b69c2b068fc378daa952ba7f163c4a11628f55a4df523b3ef83604051613d1a91906143e9565b60405180910390a3613d2e60008383613f0e565b5050565b600073ffffffffffffffffffffffffffffffffffffffff168273ffffffffffffffffffffffffffffffffffffffff161415613da2576040517f08c379a0000000000000000000000000000000000000000000000000000000008152600401613d9990615deb565b60405180910390fd5b613dae82600083613f09565b60008060008473ffffffffffffffffffffffffffffffffffffffff1673ffffffffffffffffffffffffffffffffffffffff16815260200190815260200160002054905081811015613e34576040517f08c379a0000000000000000000000000000000000000000000000000000000008152600401613e2b90615e7d565b60405180910390fd5b8181036000808573ffffffffffffffffffffffffffffffffffffffff1673ffffffffffffffffffffffffffffffffffffffff168152602001908152602001600020819055508160026000828254613e8b91906148c5565b92505081905550600073ffffffffffffffffffffffffffffffffffffffff168373ffffffffffffffffffffffffffffffffffffffff167fddf252ad1be2c89b69c2b068fc378daa952ba7f163c4a11628f55a4df523b3ef84604051613ef091906143e9565b60405180910390a3613f0483600084613f0e565b505050565b505050565b505050565b606060006002836002613f269190615e9d565b613f30919061515d565b67ffffffffffffffff811115613f4957613f486158b8565b5b6040519080825280601f01601f191660200182016040528015613f7b5781602001600182028036833780820191505090505b5090507f300000000000000000000000000000000000000000000000000000000000000081600081518110613fb357613fb2615b7d565b5b60200101907effffffffffffffffffffffffffffffffffffffffffffffffffffffffffffff1916908160001a9053507f78000000000000000000000000000000000000000000000000000000000000008160018151811061401757614016615b7d565b5b60200101907effffffffffffffffffffffffffffffffffffffffffffffffffffffffffffff1916908160001a905350600060018460026140579190615e9d565b614061919061515d565b90505b6001811115614101577f3031323334353637383961626364656600000000000000000000000000000000600f8616601081106140a3576140a2615b7d565b5b1a60f81b8282815181106140ba576140b9615b7d565b5b60200101907effffffffffffffffffffffffffffffffffffffffffffffffffffffffffffff1916908160001a905350600485901c9450806140fa90615ef7565b9050614064565b5060008414614145576040517f08c379a000000000000000000000000000000000000000000000000000000000815260040161413c90615f6d565b60405180910390fd5b8091505092915050565b6000604051905090565b600080fd5b600080fd5b60007fffffffff0000000000000000000000000000000000000000000000000000000082169050919050565b61419881614163565b81146141a357600080fd5b50565b6000813590506141b58161418f565b92915050565b6000602082840312156141d1576141d0614159565b5b60006141df848285016141a6565b91505092915050565b60008115159050919050565b6141fd816141e8565b82525050565b600060208201905061421860008301846141f4565b92915050565b600081519050919050565b600082825260208201905092915050565b60005b8381101561425857808201518184015260208101905061423d565b83811115614267576000848401525b50505050565b6000601f19601f8301169050919050565b60006142898261421e565b6142938185614229565b93506142a381856020860161423a565b6142ac8161426d565b840191505092915050565b600060208201905081810360008301526142d1818461427e565b905092915050565b600073ffffffffffffffffffffffffffffffffffffffff82169050919050565b6000614304826142d9565b9050919050565b614314816142f9565b811461431f57600080fd5b50565b6000813590506143318161430b565b92915050565b60006020828403121561434d5761434c614159565b5b600061435b84828501614322565b91505092915050565b6000819050919050565b61437781614364565b811461438257600080fd5b50565b6000813590506143948161436e565b92915050565b600080604083850312156143b1576143b0614159565b5b60006143bf85828601614322565b92505060206143d085828601614385565b9150509250929050565b6143e381614364565b82525050565b60006020820190506143fe60008301846143da565b92915050565b60008060006060848603121561441d5761441c614159565b5b600061442b86828701614322565b935050602061443c86828701614322565b925050604061444d86828701614385565b9150509250925092565b6000819050919050565b61446a81614457565b811461447557600080fd5b50565b60008135905061448781614461565b92915050565b6000602082840312156144a3576144a2614159565b5b60006144b184828501614478565b91505092915050565b6144c381614457565b82525050565b60006020820190506144de60008301846144ba565b92915050565b600080604083850312156144fb576144fa614159565b5b600061450985828601614478565b925050602061451a85828601614322565b9150509250929050565b600060ff82169050919050565b61453a81614524565b82525050565b60006020820190506145556000830184614531565b92915050565b6000819050919050565b61456e8161455b565b811461457957600080fd5b50565b60008135905061458b81614565565b92915050565b61459a816141e8565b81146145a557600080fd5b50565b6000813590506145b781614591565b92915050565b600080600080600060a086880312156145d9576145d8614159565b5b60006145e78882890161457c565b95505060206145f88882890161457c565b945050604061460988828901614322565b935050606061461a88828901614385565b925050608061462b888289016145a8565b9150509295509295909350565b60006020828403121561464e5761464d614159565b5b600061465c84828501614385565b91505092915050565b6000806040838503121561467c5761467b614159565b5b600061468a858286016145a8565b925050602061469b858286016145a8565b9150509250929050565b6146ae816142f9565b82525050565b60006020820190506146c960008301846146a5565b92915050565b600080604083850312156146e6576146e5614159565b5b60006146f485828601614322565b925050602061470585828601614322565b9150509250929050565b7f4e487b7100000000000000000000000000000000000000000000000000000000600052602260045260246000fd5b6000600282049050600182168061475657607f821691505b6020821081141561476a5761476961470f565b5b50919050565b60008151905061477f8161436e565b92915050565b60006020828403121561479b5761479a614159565b5b60006147a984828501614770565b91505092915050565b600080604083850312156147c9576147c8614159565b5b60006147d785828601614770565b92505060206147e885828601614770565b9150509250929050565b6147fb816142f9565b82525050565b600060408201905061481660008301856147f2565b61482360208301846147f2565b9392505050565b7f42616c616e636520696e73756666696369656e742e0000000000000000000000600082015250565b6000614860601583614229565b915061486b8261482a565b602082019050919050565b6000602082019050818103600083015261488f81614853565b9050919050565b7f4e487b7100000000000000000000000000000000000000000000000000000000600052601160045260246000fd5b60006148d082614364565b91506148db83614364565b9250828210156148ee576148ed614896565b5b828203905092915050565b6000815190506149088161430b565b92915050565b60006020828403121561492457614923614159565b5b6000614932848285016148f9565b91505092915050565b61494481614364565b82525050565b600060408201905061495f600083018561493b565b61496c60208301846147f2565b9392505050565b600060408201905061498860008301856146a5565b61499560208301846143da565b9392505050565b6000815190506149ab81614591565b92915050565b6000602082840312156149c7576149c6614159565b5b60006149d58482850161499c565b91505092915050565b7f4661696c6564207061796d656e7420746f20686f6c6465720000000000000000600082015250565b6000614a14601883614229565b9150614a1f826149de565b602082019050919050565b60006020820190508181036000830152614a4381614a07565b9050919050565b7f4661696c6564207061796d656e7420746f206d61696e74656e616e6365000000600082015250565b6000614a80601d83614229565b9150614a8b82614a4a565b602082019050919050565b60006020820190508181036000830152614aaf81614a73565b9050919050565b7f4661696c6564207061796d656e7420746f206578657263697365722e00000000600082015250565b6000614aec601c83614229565b9150614af782614ab6565b602082019050919050565b60006020820190508181036000830152614b1b81614adf565b9050919050565b7f45524332303a207472616e7366657220616d6f756e742065786365656473206160008201527f6c6c6f77616e6365000000000000000000000000000000000000000000000000602082015250565b6000614b7e602883614229565b9150614b8982614b22565b604082019050919050565b60006020820190508181036000830152614bad81614b71565b9050919050565b614bbd8161455b565b82525050565b6000608082019050614bd86000830187614bb4565b614be56020830186614bb4565b614bf260408301856147f2565b614bff60608301846147f2565b95945050505050565b60008060008060808587031215614c2257614c21614159565b5b6000614c3087828801614770565b9450506020614c4187828801614770565b9350506040614c52878288016148f9565b9250506060614c63878288016148f9565b91505092959194509250565b7f416363657373436f6e74726f6c3a2063616e206f6e6c792072656e6f756e636560008201527f20726f6c657320666f722073656c660000000000000000000000000000000000602082015250565b6000614ccb602f83614229565b9150614cd682614c6f565b604082019050919050565b60006020820190508181036000830152614cfa81614cbe565b9050919050565b600081519050614d1081614565565b92915050565b60008060408385031215614d2d57614d2c614159565b5b6000614d3b85828601614d01565b9250506020614d4c85828601614770565b9150509250929050565b7f3078310000000000000000000000000000000000000000000000000000000000815250565b6000602082019050614d9060008301614d56565b919050565b614d9e816141e8565b82525050565b600060a082019050614db960008301886147f2565b614dc660208301876147f2565b614dd36040830186614bb4565b614de060608301856147f2565b614ded6080830184614d95565b9695505050505050565b600080600060608486031215614e1057614e0f614159565b5b6000614e1e86828701614d01565b9350506020614e2f86828701614770565b9250506040614e40868287016148f9565b9150509250925092565b6000604082019050614e5f6000830185614bb4565b614e6c60208301846147f2565b9392505050565b600060208284031215614e8957614e88614159565b5b6000614e9784828501614d01565b91505092915050565b600060c082019050614eb560008301896147f2565b614ec260208301886147f2565b614ecf604083018761493b565b614edc606083018661493b565b614ee960808301856147f2565b614ef660a08301846147f2565b979650505050505050565b60008060408385031215614f1857614f17614159565b5b6000614f2685828601614d01565b9250506020614f37858286016148f9565b9150509250929050565b6000819050919050565b600061ffff82169050919050565b6000819050919050565b6000614f7e614f79614f7484614f41565b614f59565b614f4b565b9050919050565b614f8e81614f63565b82525050565b6000608082019050614fa960008301876146a5565b614fb660208301866143da565b614fc360408301856146a5565b614fd06060830184614f85565b95945050505050565b600060a082019050614fee60008301886146a5565b614ffb60208301876143da565b61500860408301866143da565b6150156060830185614f85565b61502260808301846146a5565b9695505050505050565b60006150378261455b565b91507f800000000000000000000000000000000000000000000000000000000000000082141561506a57615069614896565b5b816000039050919050565b7f6e6f7420656e6f75676820746f6b656e20746f207265706179206c6f616e7300600082015250565b60006150ab601f83614229565b91506150b682615075565b602082019050919050565b600060208201905081810360008301526150da8161509e565b9050919050565b60006080820190506150f660008301876146a5565b61510360208301866143da565b61511060408301856143da565b61511d60608301846146a5565b95945050505050565b600060608201905061513b60008301866146a5565b61514860208301856143da565b61515560408301846146a5565b949350505050565b600061516882614364565b915061517383614364565b9250827fffffffffffffffffffffffffffffffffffffffffffffffffffffffffffffffff038211156151a8576151a7614896565b5b828201905092915050565b600080600080608085870312156151cd576151cc614159565b5b60006151db87828801614770565b94505060206151ec87828801614770565b93505060406151fd87828801614770565b925050606061520e87828801614770565b91505092959194509250565b7f4e65676174697665206571756974792e00000000000000000000000000000000600082015250565b6000615250601083614229565b915061525b8261521a565b602082019050919050565b6000602082019050818103600083015261527f81615243565b9050919050565b7f45524332303a2064656372656173656420616c6c6f77616e63652062656c6f7760008201527f207a65726f000000000000000000000000000000000000000000000000000000602082015250565b60006152e2602583614229565b91506152ed82615286565b604082019050919050565b60006020820190508181036000830152615311816152d5565b9050919050565b600060608201905061532d60008301866146a5565b61533a60208301856146a5565b61534760408301846143da565b949350505050565b600060608201905061536460008301866146a5565b61537160208301856143da565b61537e60408301846143da565b949350505050565b7f496e73756666696369656e742062616c616e6365000000000000000000000000600082015250565b60006153bc601483614229565b91506153c782615386565b602082019050919050565b600060208201905081810360008301526153eb816153af565b9050919050565b7f45524332303a20617070726f76652066726f6d20746865207a65726f2061646460008201527f7265737300000000000000000000000000000000000000000000000000000000602082015250565b600061544e602483614229565b9150615459826153f2565b604082019050919050565b6000602082019050818103600083015261547d81615441565b9050919050565b7f45524332303a20617070726f766520746f20746865207a65726f20616464726560008201527f7373000000000000000000000000000000000000000000000000000000000000602082015250565b60006154e0602283614229565b91506154eb82615484565b604082019050919050565b6000602082019050818103600083015261550f816154d3565b9050919050565b7f45524332303a207472616e736665722066726f6d20746865207a65726f20616460008201527f6472657373000000000000000000000000000000000000000000000000000000602082015250565b6000615572602583614229565b915061557d82615516565b604082019050919050565b600060208201905081810360008301526155a181615565565b9050919050565b7f45524332303a207472616e7366657220746f20746865207a65726f206164647260008201527f6573730000000000000000000000000000000000000000000000000000000000602082015250565b6000615604602383614229565b915061560f826155a8565b604082019050919050565b60006020820190508181036000830152615633816155f7565b9050919050565b7f45524332303a207472616e7366657220616d6f756e742065786365656473206260008201527f616c616e63650000000000000000000000000000000000000000000000000000602082015250565b6000615696602683614229565b91506156a18261563a565b604082019050919050565b600060208201905081810360008301526156c581615689565b9050919050565b600081905092915050565b7f416363657373436f6e74726f6c3a206163636f756e7420000000000000000000600082015250565b600061570d6017836156cc565b9150615718826156d7565b601782019050919050565b600061572e8261421e565b61573881856156cc565b935061574881856020860161423a565b80840191505092915050565b7f206973206d697373696e6720726f6c6520000000000000000000000000000000600082015250565b600061578a6011836156cc565b915061579582615754565b601182019050919050565b60006157ab82615700565b91506157b78285615723565b91506157c28261577d565b91506157ce8284615723565b91508190509392505050565b60006157f56157f06157eb846142d9565b614f59565b6142d9565b9050919050565b6000615807826157da565b9050919050565b6000615819826157fc565b9050919050565b6158298161580e565b82525050565b600061584a61584561584084614f41565b614f59565b614364565b9050919050565b61585a8161582f565b82525050565b600060a0820190506158756000830188615820565b6158826020830187615820565b61588f60408301866143da565b61589c60608301856143da565b6158a96080830184615851565b9695505050505050565b600080fd5b7f4e487b7100000000000000000000000000000000000000000000000000000000600052604160045260246000fd5b6158f08261426d565b810181811067ffffffffffffffff8211171561590f5761590e6158b8565b5b80604052505050565b600061592261414f565b905061592e82826158e7565b919050565b600067ffffffffffffffff82111561594e5761594d6158b8565b5b602082029050602081019050919050565b600080fd5b600061597761597284615933565b615918565b9050808382526020820190506020840283018581111561599a5761599961595f565b5b835b818110156159c357806159af8882614770565b84526020840193505060208101905061599c565b5050509392505050565b600082601f8301126159e2576159e16158b3565b5b81516159f2848260208601615964565b91505092915050565b60008060408385031215615a1257615a11614159565b5b6000615a2085828601614770565b925050602083015167ffffffffffffffff811115615a4157615a4061415e565b5b615a4d858286016159cd565b9150509250929050565b600081519050919050565b600082825260208201905092915050565b6000819050602082019050919050565b615a8c81614364565b82525050565b6000615a9e8383615a83565b60208301905092915050565b6000602082019050919050565b6000615ac282615a57565b615acc8185615a62565b9350615ad783615a73565b8060005b83811015615b08578151615aef8882615a92565b9750615afa83615aaa565b925050600181019050615adb565b5085935050505092915050565b600060c082019050615b2a6000830189615820565b615b376020830188615820565b615b4460408301876143da565b615b5160608301866143da565b8181036080830152615b638185615ab7565b9050615b7260a0830184615851565b979650505050505050565b7f4e487b7100000000000000000000000000000000000000000000000000000000600052603260045260246000fd5b600081519050919050565b600082825260208201905092915050565b6000819050602082019050919050565b615be1816142f9565b82525050565b6000615bf38383615bd8565b60208301905092915050565b6000602082019050919050565b6000615c1782615bac565b615c218185615bb7565b9350615c2c83615bc8565b8060005b83811015615c5d578151615c448882615be7565b9750615c4f83615bff565b925050600181019050615c30565b5085935050505092915050565b600060a082019050615c7f60008301886143da565b615c8c60208301876143da565b8181036040830152615c9e8186615c0c565b9050615cad60608301856146a5565b615cba60808301846143da565b9695505050505050565b600060208284031215615cda57615cd9614159565b5b600082015167ffffffffffffffff811115615cf857615cf761415e565b5b615d04848285016159cd565b91505092915050565b7f45524332303a206d696e7420746f20746865207a65726f206164647265737300600082015250565b6000615d43601f83614229565b9150615d4e82615d0d565b602082019050919050565b60006020820190508181036000830152615d7281615d36565b9050919050565b7f45524332303a206275726e2066726f6d20746865207a65726f2061646472657360008201527f7300000000000000000000000000000000000000000000000000000000000000602082015250565b6000615dd5602183614229565b9150615de082615d79565b604082019050919050565b60006020820190508181036000830152615e0481615dc8565b9050919050565b7f45524332303a206275726e20616d6f756e7420657863656564732062616c616e60008201527f6365000000000000000000000000000000000000000000000000000000000000602082015250565b6000615e67602283614229565b9150615e7282615e0b565b604082019050919050565b60006020820190508181036000830152615e9681615e5a565b9050919050565b6000615ea882614364565b9150615eb383614364565b9250817fffffffffffffffffffffffffffffffffffffffffffffffffffffffffffffffff0483118215151615615eec57615eeb614896565b5b828202905092915050565b6000615f0282614364565b91506000821415615f1657615f15614896565b5b600182039050919050565b7f537472696e67733a20686578206c656e67746820696e73756666696369656e74600082015250565b6000615f57602083614229565b9150615f6282615f21565b602082019050919050565b60006020820190508181036000830152615f8681615f4a565b905091905056fea2646970667358221220a2693eb49d5ea86595d5a0482a0f2f2235df9d9c3e811402098f2b21e315c3fd64736f6c63430008090033",
  "immutableReferences": {},
  "source": "// SPDX-License-Identifier: MIT\npragma solidity 0.8.9;\n\nimport \"@openzeppelin/contracts/access/AccessControl.sol\";\nimport \"@openzeppelin/contracts/utils/structs/EnumerableSet.sol\";\nimport \"./MarketLibrary.sol\";\nimport \"./OptionVault.sol\";\n\ncontract MoretMarketMaker is ERC20, AccessControl, EOption\n{\n  bytes32 public constant ADMIN_ROLE = keccak256(\"ADMIN_ROLE\");\n  bytes32 public constant EXCHANGE_ROLE = keccak256(\"EXCHANGE_ROLE\");\n  bytes32 public constant MINER_ROLE = keccak256(\"MINER_ROLE\");\n\n  uint256 private multiplier;\n  uint256 public settlementFee= 5 * (10 ** 15);\n  uint256 public exerciseFee= 5 * (10 ** 15);\n  OptionVault internal optionVault;\n\n  address internal underlying;\n  address internal funding;\n  address public maintenanceAddress;\n  uint256 public lendingPoolRateMode = 2;\n  uint256 public swapSlippage = 5 * (10 ** 15);\n  \n  constructor(string memory _name, string memory _symbol, address _optionAddress) ERC20(_name, _symbol){\n    _setupRole(DEFAULT_ADMIN_ROLE, msg.sender);\n    _setupRole(ADMIN_ROLE, msg.sender);\n    _setupRole(EXCHANGE_ROLE, msg.sender);\n    _setupRole(MINER_ROLE, msg.sender);\n    maintenanceAddress = msg.sender;\n    optionVault = OptionVault(_optionAddress);\n    multiplier = OptionLibrary.Multiplier();\n    underlying = optionVault.underlying();\n    funding = optionVault.funding();\n    _mint(msg.sender, multiplier);}\n\n  function expireOptions(address exerciseFeeRecipient) external {\n    uint256 _expiringId = optionVault.getExpiringOptionId();\n    while(_expiringId >0) {\n      optionVault.stampExpiredOption(_expiringId);\n      \n      ( uint256 _payoff, uint256 _payback) = optionVault.getContractPayoff(_expiringId);\n      require(_payback < MarketLibrary.balanceDef(funding, address(this)), \"Balance insufficient.\");\n      if(_payback > 0){\n        uint256 _holderPayment = _payoff == _payback? MulDiv(_payback, multiplier - settlementFee - exerciseFee, multiplier): _payback;\n        uint256 _settleFeeAmount = MulDiv(_payoff, settlementFee, multiplier);\n        uint256 _exerciseFeeAmount = MulDiv(_payoff, exerciseFee, multiplier);\n\n        require(IERC20(funding).transfer(optionVault.getOptionHolder(_expiringId), MarketLibrary.cvtDecimals(_holderPayment, funding)), \"Failed payment to holder\");\n        require(IERC20(funding).transfer(maintenanceAddress, MarketLibrary.cvtDecimals(_settleFeeAmount, funding)), \"Failed payment to maintenance\");\n        require(IERC20(funding).transfer(exerciseFeeRecipient, MarketLibrary.cvtDecimals(_exerciseFeeAmount, funding)), \"Failed payment to exerciser.\");}\n      \n      _expiringId = optionVault.getExpiringOptionId();}}\n\n  function calcCapital(bool _net, bool _average) public view returns(uint256 _capital){\n      (uint256 _price, ) = optionVault.queryPrice();\n      (uint256 _underlying_balance, uint256 _funding_balance, uint256 _collateral_balance, uint256 _debt_balance) = optionVault.getBalances(address(this));\n      _capital = _funding_balance + _collateral_balance + MulDiv(_underlying_balance, _price, multiplier);\n      require(_capital > MulDiv(_debt_balance, _price, multiplier), \"Negative equity.\");\n      _capital -= MulDiv(_debt_balance, _price, multiplier);\n\n      if(_net){ _capital -= Math.min(MulDiv(optionVault.getAggregateNotional(false), _price, multiplier), _capital);}\n      if(_average){ \n        if(totalSupply() > 0) _capital = MulDiv(_capital , multiplier , totalSupply()); \n        if(totalSupply() == 0 && _capital == 0) _capital = multiplier;}}\n    \n  function addCapital(uint256 _depositAmount) external {\n      uint256 _mintMPTokenAmount = MulDiv(MarketLibrary.cvtDef(_depositAmount, funding), multiplier, calcCapital(false, true));\n      require(ERC20(funding).transferFrom(msg.sender, address(this), _depositAmount));\n      _mint(msg.sender, _mintMPTokenAmount);\n      emit capitalAdded(msg.sender, _depositAmount, _mintMPTokenAmount);}\n\n  function withdrawCapital(uint256 _burnMPTokenAmount) external {\n      uint256 _withdrawValue = MarketLibrary.cvtDecimals(MulDiv(calcCapital(true, true),  _burnMPTokenAmount , multiplier), funding); \n      require(IERC20(funding).balanceOf(address(this)) > _withdrawValue,\"Insufficient balance\");\n      _burn(msg.sender, _burnMPTokenAmount);\n      require(ERC20(funding).transfer(msg.sender, _withdrawValue));\n      emit capitalWithdrawn(msg.sender, _burnMPTokenAmount, _withdrawValue);}\n  \n  function approveSpending(address _tokenAddress, address _spenderAddress, uint256 _amount) external onlyRole(MINER_ROLE){\n    ERC20(_tokenAddress).approve(_spenderAddress, _amount);}\n\n  function tradesSwaps(int256 _underlyingAmt, int256 _fundingAmt, address _router, uint256 _parameter, bool _useAggregator) external onlyRole(MINER_ROLE) {\n    (uint256 _fromAmt, uint256 _toAmt, address _fromAddress, address _toAddress) = MarketLibrary.cleanTradeAmounts(_underlyingAmt, _fundingAmt, optionVault.underlying(), optionVault.funding());\n    if(_useAggregator) swapByAggregator(_fromAddress, _toAddress, _router, _fromAmt, _toAmt, _parameter);\n    if(!_useAggregator) swapByRouter(_fromAddress, _toAddress, _router, _fromAmt, _toAmt, _parameter);}\n  \n  function swapByRouter(address _fromAddress, address _toAddress, address _router, uint256 _fromAmt, uint256 _toAmt, uint256 _deadline) internal {\n    ERC20(_fromAddress).approve(_router, _fromAmt);\n    address[] memory _path = new address[](2);\n    _path[0]=_fromAddress;\n    _path[1] = _toAddress;\n    IUniswapV2Router02(_router).swapTokensForExactTokens(_fromAmt, _toAmt, _path, address(this), block.timestamp + _deadline );}\n\n  function swapByAggregator(address _fromAddress, address _toAddress, address _aggregator, uint256 _fromAmt, uint256 _toAmt, uint256 _parts) internal {\n    ERC20(_fromAddress).approve(_aggregator, _fromAmt);\n    (uint256 returnAmount, uint256[] memory distribution) =  I1InchProtocol(_aggregator).getExpectedReturn( IERC20(_fromAddress), IERC20(_toAddress), _fromAmt, _parts, 0);\n    I1InchProtocol(_aggregator).swap(IERC20(_fromAddress), IERC20(_toAddress), _fromAmt, Math.min(returnAmount, _toAmt), distribution, 0);}\n\n  // function calcHedgeTradesForLoans() external onlyRole(MINER_ROLE) view returns(int256 _loanTradeAmount, int256 _collateralChange, address _loanAddress, address _collateralAddress){\n  //   (int256 _aggregateDelta, uint256 _price) = optionVault.calculateAggregateDelta(false);\n  //   address _protocolAds = ILendingPoolAddressesProvider(optionVault.aaveAddress()).getAddress(\"0x1\");\n  //   uint256 _targetLoan = 0;\n  //   (_loanTradeAmount, _targetLoan, _loanAddress) = MarketLibrary.getLoanTrade(address(this), _protocolAds, _aggregateDelta, underlying, lendingPoolRateMode == 2);\n  //   (_collateralChange, _collateralAddress) = MarketLibrary.getCollateralTrade(address(this), _protocolAds, _targetLoan, _price, funding, underlying);}\n\n  function hedgeTradesForLoans() external onlyRole(MINER_ROLE) {\n    (int256 _aggregateDelta, uint256 _price) = optionVault.calculateAggregateDelta(false);\n    address _protocolAds = ILendingPoolAddressesProvider(optionVault.aaveAddress()).getAddress(\"0x1\");address _lendingPoolAddress = ILendingPoolAddressesProvider(optionVault.aaveAddress()).getLendingPool();\n    (int256 _loanTradeAmount,uint256 _targetLoan,address _loanAddress) = MarketLibrary.getLoanTrade(address(this), _protocolAds, _aggregateDelta, underlying, lendingPoolRateMode == 2);\n    _loanTradeAmount = MarketLibrary.cvtDecimalsInt(_loanTradeAmount, _loanAddress);\n    (int256 _collateralChange, address _collateralAddress) = MarketLibrary.getCollateralTrade(address(this), _protocolAds, _targetLoan, _price, funding, underlying);\n    \n    if(_collateralChange > 0){\n      ERC20(funding).increaseAllowance(_lendingPoolAddress, uint256(_collateralChange));\n      ILendingPool(_lendingPoolAddress).deposit(funding, uint256(_collateralChange), address(this), 0);}\n    \n    if(_loanTradeAmount > 0){\n      ILendingPool(_lendingPoolAddress).borrow(underlying, uint256(_loanTradeAmount), lendingPoolRateMode,  0, address(this));}\n\n    if(_loanTradeAmount < 0){\n      require(ERC20(underlying).balanceOf(address(this))>= uint256(-_loanTradeAmount), \"not enough token to repay loans\");\n      ERC20(_loanAddress).approve(_lendingPoolAddress, uint256(-_loanTradeAmount));\n      ERC20(underlying).approve(_lendingPoolAddress, uint256(-_loanTradeAmount));\n      ILendingPool(_lendingPoolAddress).repay(underlying, uint256(-_loanTradeAmount), lendingPoolRateMode, address(this));}\n\n    if(_collateralChange < 0){\n      ERC20(_collateralAddress).increaseAllowance(_lendingPoolAddress, uint256(-_collateralChange));\n      ILendingPool(_lendingPoolAddress).withdraw(funding, uint256(-_collateralChange), address(this));}}\n\n  function resetSettlementFee(uint256 _newFee) external onlyRole(ADMIN_ROLE){ require(_newFee < multiplier); settlementFee = _newFee;}\n  function resetExerciseFee(uint256 _newFee) external onlyRole(ADMIN_ROLE){ require(_newFee < multiplier); exerciseFee = _newFee;}\n  function resetMaintenance(address _newAddress) external onlyRole(ADMIN_ROLE){ maintenanceAddress = _newAddress;}\n  function resetSlippage(uint256 _slippage) external onlyRole(ADMIN_ROLE){ swapSlippage = _slippage;}\n  // function resetLendingPoolRateMode(uint256 _newRateMode) external onlyRole(ADMIN_ROLE) {\n  //   require(_newRateMode == 1 || _newRateMode == 2);\n  //   lendingPoolRateMode = _newRateMode;}\n}\n",
  "sourcePath": "/Users/apple/Documents/GitHub/moret/contracts/MoretMarketMaker.sol",
  "compiler": {
    "name": "solc",
    "version": "0.8.9+commit.e5eed63a.Emscripten.clang"
  },
  "schemaVersion": "3.4.3",
  "updatedAt": "2021-11-21T19:52:23.573Z",
  "devdoc": {
    "kind": "dev",
    "methods": {
      "allowance(address,address)": {
        "details": "See {IERC20-allowance}."
      },
      "approve(address,uint256)": {
        "details": "See {IERC20-approve}. Requirements: - `spender` cannot be the zero address."
      },
      "balanceOf(address)": {
        "details": "See {IERC20-balanceOf}."
      },
      "decimals()": {
        "details": "Returns the number of decimals used to get its user representation. For example, if `decimals` equals `2`, a balance of `505` tokens should be displayed to a user as `5.05` (`505 / 10 ** 2`). Tokens usually opt for a value of 18, imitating the relationship between Ether and Wei. This is the value {ERC20} uses, unless this function is overridden; NOTE: This information is only used for _display_ purposes: it in no way affects any of the arithmetic of the contract, including {IERC20-balanceOf} and {IERC20-transfer}."
      },
      "decreaseAllowance(address,uint256)": {
        "details": "Atomically decreases the allowance granted to `spender` by the caller. This is an alternative to {approve} that can be used as a mitigation for problems described in {IERC20-approve}. Emits an {Approval} event indicating the updated allowance. Requirements: - `spender` cannot be the zero address. - `spender` must have allowance for the caller of at least `subtractedValue`."
      },
      "getRoleAdmin(bytes32)": {
        "details": "Returns the admin role that controls `role`. See {grantRole} and {revokeRole}. To change a role's admin, use {_setRoleAdmin}."
      },
      "grantRole(bytes32,address)": {
        "details": "Grants `role` to `account`. If `account` had not been already granted `role`, emits a {RoleGranted} event. Requirements: - the caller must have ``role``'s admin role."
      },
      "hasRole(bytes32,address)": {
        "details": "Returns `true` if `account` has been granted `role`."
      },
      "increaseAllowance(address,uint256)": {
        "details": "Atomically increases the allowance granted to `spender` by the caller. This is an alternative to {approve} that can be used as a mitigation for problems described in {IERC20-approve}. Emits an {Approval} event indicating the updated allowance. Requirements: - `spender` cannot be the zero address."
      },
      "name()": {
        "details": "Returns the name of the token."
      },
      "renounceRole(bytes32,address)": {
        "details": "Revokes `role` from the calling account. Roles are often managed via {grantRole} and {revokeRole}: this function's purpose is to provide a mechanism for accounts to lose their privileges if they are compromised (such as when a trusted device is misplaced). If the calling account had been granted `role`, emits a {RoleRevoked} event. Requirements: - the caller must be `account`."
      },
      "revokeRole(bytes32,address)": {
        "details": "Revokes `role` from `account`. If `account` had been granted `role`, emits a {RoleRevoked} event. Requirements: - the caller must have ``role``'s admin role."
      },
      "supportsInterface(bytes4)": {
        "details": "See {IERC165-supportsInterface}."
      },
      "symbol()": {
        "details": "Returns the symbol of the token, usually a shorter version of the name."
      },
      "totalSupply()": {
        "details": "See {IERC20-totalSupply}."
      },
      "transfer(address,uint256)": {
        "details": "See {IERC20-transfer}. Requirements: - `recipient` cannot be the zero address. - the caller must have a balance of at least `amount`."
      },
      "transferFrom(address,address,uint256)": {
        "details": "See {IERC20-transferFrom}. Emits an {Approval} event indicating the updated allowance. This is not required by the EIP. See the note at the beginning of {ERC20}. Requirements: - `sender` and `recipient` cannot be the zero address. - `sender` must have a balance of at least `amount`. - the caller must have allowance for ``sender``'s tokens of at least `amount`."
      }
    },
    "version": 1
  },
  "userdoc": {
    "kind": "user",
    "methods": {},
    "version": 1
  }
}