{
  "contractName": "MoretMarketMaker",
  "abi": [
    {
      "inputs": [
        {
          "internalType": "string",
          "name": "_name",
          "type": "string"
        },
        {
          "internalType": "string",
          "name": "_symbol",
          "type": "string"
        },
        {
          "internalType": "address",
          "name": "_underlyingAddress",
          "type": "address"
        },
        {
          "internalType": "address",
          "name": "_fundingAddress",
          "type": "address"
        },
        {
          "internalType": "address",
          "name": "_optionAddress",
          "type": "address"
        },
        {
          "internalType": "address",
          "name": "_aaveAddressProviderAddress",
          "type": "address"
        }
      ],
      "stateMutability": "nonpayable",
      "type": "constructor"
    },
    {
      "anonymous": false,
      "inputs": [
        {
          "indexed": true,
          "internalType": "address",
          "name": "owner",
          "type": "address"
        },
        {
          "indexed": true,
          "internalType": "address",
          "name": "spender",
          "type": "address"
        },
        {
          "indexed": false,
          "internalType": "uint256",
          "name": "value",
          "type": "uint256"
        }
      ],
      "name": "Approval",
      "type": "event"
    },
    {
      "anonymous": false,
      "inputs": [
        {
          "indexed": true,
          "internalType": "bytes32",
          "name": "role",
          "type": "bytes32"
        },
        {
          "indexed": true,
          "internalType": "bytes32",
          "name": "previousAdminRole",
          "type": "bytes32"
        },
        {
          "indexed": true,
          "internalType": "bytes32",
          "name": "newAdminRole",
          "type": "bytes32"
        }
      ],
      "name": "RoleAdminChanged",
      "type": "event"
    },
    {
      "anonymous": false,
      "inputs": [
        {
          "indexed": true,
          "internalType": "bytes32",
          "name": "role",
          "type": "bytes32"
        },
        {
          "indexed": true,
          "internalType": "address",
          "name": "account",
          "type": "address"
        },
        {
          "indexed": true,
          "internalType": "address",
          "name": "sender",
          "type": "address"
        }
      ],
      "name": "RoleGranted",
      "type": "event"
    },
    {
      "anonymous": false,
      "inputs": [
        {
          "indexed": true,
          "internalType": "bytes32",
          "name": "role",
          "type": "bytes32"
        },
        {
          "indexed": true,
          "internalType": "address",
          "name": "account",
          "type": "address"
        },
        {
          "indexed": true,
          "internalType": "address",
          "name": "sender",
          "type": "address"
        }
      ],
      "name": "RoleRevoked",
      "type": "event"
    },
    {
      "anonymous": false,
      "inputs": [
        {
          "indexed": true,
          "internalType": "address",
          "name": "from",
          "type": "address"
        },
        {
          "indexed": true,
          "internalType": "address",
          "name": "to",
          "type": "address"
        },
        {
          "indexed": false,
          "internalType": "uint256",
          "name": "value",
          "type": "uint256"
        }
      ],
      "name": "Transfer",
      "type": "event"
    },
    {
      "anonymous": false,
      "inputs": [
        {
          "indexed": false,
          "internalType": "address",
          "name": "_recipient",
          "type": "address"
        },
        {
          "indexed": false,
          "internalType": "uint256",
          "name": "_mintMPTokenAmount",
          "type": "uint256"
        },
        {
          "indexed": false,
          "internalType": "uint256",
          "name": "_addedValue",
          "type": "uint256"
        }
      ],
      "name": "capitalAdded",
      "type": "event"
    },
    {
      "anonymous": false,
      "inputs": [
        {
          "indexed": false,
          "internalType": "address",
          "name": "_recipient",
          "type": "address"
        },
        {
          "indexed": false,
          "internalType": "uint256",
          "name": "_burnMPTokenAmount",
          "type": "uint256"
        },
        {
          "indexed": false,
          "internalType": "uint256",
          "name": "_withdrawValue",
          "type": "uint256"
        }
      ],
      "name": "capitalWithdrawn",
      "type": "event"
    },
    {
      "anonymous": false,
      "inputs": [
        {
          "indexed": true,
          "internalType": "address",
          "name": "_purchaser",
          "type": "address"
        },
        {
          "components": [
            {
              "internalType": "enum OptionLibrary.PayoffType",
              "name": "poType",
              "type": "uint8"
            },
            {
              "internalType": "enum OptionLibrary.OptionSide",
              "name": "side",
              "type": "uint8"
            },
            {
              "internalType": "enum OptionLibrary.OptionStatus",
              "name": "status",
              "type": "uint8"
            },
            {
              "internalType": "address",
              "name": "holder",
              "type": "address"
            },
            {
              "internalType": "uint256",
              "name": "id",
              "type": "uint256"
            },
            {
              "internalType": "uint256",
              "name": "createTime",
              "type": "uint256"
            },
            {
              "internalType": "uint256",
              "name": "effectiveTime",
              "type": "uint256"
            },
            {
              "internalType": "uint256",
              "name": "tenor",
              "type": "uint256"
            },
            {
              "internalType": "uint256",
              "name": "maturity",
              "type": "uint256"
            },
            {
              "internalType": "uint256",
              "name": "exerciseTime",
              "type": "uint256"
            },
            {
              "internalType": "uint256",
              "name": "amount",
              "type": "uint256"
            },
            {
              "internalType": "uint256",
              "name": "spot",
              "type": "uint256"
            },
            {
              "internalType": "uint256",
              "name": "strike",
              "type": "uint256"
            },
            {
              "internalType": "uint256",
              "name": "volatility",
              "type": "uint256"
            },
            {
              "internalType": "uint256",
              "name": "premium",
              "type": "uint256"
            },
            {
              "internalType": "uint256",
              "name": "cost",
              "type": "uint256"
            }
          ],
          "indexed": false,
          "internalType": "struct OptionLibrary.Option",
          "name": "_option",
          "type": "tuple"
        },
        {
          "indexed": false,
          "internalType": "uint256",
          "name": "_cost",
          "type": "uint256"
        },
        {
          "indexed": false,
          "internalType": "bool",
          "name": "_inVol",
          "type": "bool"
        }
      ],
      "name": "newOptionBought",
      "type": "event"
    },
    {
      "anonymous": false,
      "inputs": [
        {
          "indexed": false,
          "internalType": "address",
          "name": "_purchaser",
          "type": "address"
        },
        {
          "indexed": false,
          "internalType": "uint256",
          "name": "_time",
          "type": "uint256"
        },
        {
          "indexed": false,
          "internalType": "uint256",
          "name": "_tenor",
          "type": "uint256"
        },
        {
          "indexed": false,
          "internalType": "uint256",
          "name": "_amount",
          "type": "uint256"
        }
      ],
      "name": "newVolatilityTokenBought",
      "type": "event"
    },
    {
      "anonymous": false,
      "inputs": [
        {
          "indexed": true,
          "internalType": "address",
          "name": "_purchaser",
          "type": "address"
        },
        {
          "components": [
            {
              "internalType": "enum OptionLibrary.PayoffType",
              "name": "poType",
              "type": "uint8"
            },
            {
              "internalType": "enum OptionLibrary.OptionSide",
              "name": "side",
              "type": "uint8"
            },
            {
              "internalType": "enum OptionLibrary.OptionStatus",
              "name": "status",
              "type": "uint8"
            },
            {
              "internalType": "address",
              "name": "holder",
              "type": "address"
            },
            {
              "internalType": "uint256",
              "name": "id",
              "type": "uint256"
            },
            {
              "internalType": "uint256",
              "name": "createTime",
              "type": "uint256"
            },
            {
              "internalType": "uint256",
              "name": "effectiveTime",
              "type": "uint256"
            },
            {
              "internalType": "uint256",
              "name": "tenor",
              "type": "uint256"
            },
            {
              "internalType": "uint256",
              "name": "maturity",
              "type": "uint256"
            },
            {
              "internalType": "uint256",
              "name": "exerciseTime",
              "type": "uint256"
            },
            {
              "internalType": "uint256",
              "name": "amount",
              "type": "uint256"
            },
            {
              "internalType": "uint256",
              "name": "spot",
              "type": "uint256"
            },
            {
              "internalType": "uint256",
              "name": "strike",
              "type": "uint256"
            },
            {
              "internalType": "uint256",
              "name": "volatility",
              "type": "uint256"
            },
            {
              "internalType": "uint256",
              "name": "premium",
              "type": "uint256"
            },
            {
              "internalType": "uint256",
              "name": "cost",
              "type": "uint256"
            }
          ],
          "indexed": false,
          "internalType": "struct OptionLibrary.Option",
          "name": "_option",
          "type": "tuple"
        },
        {
          "indexed": false,
          "internalType": "uint256",
          "name": "_payoff",
          "type": "uint256"
        }
      ],
      "name": "optionExercised",
      "type": "event"
    },
    {
      "inputs": [],
      "name": "ADMIN_ROLE",
      "outputs": [
        {
          "internalType": "bytes32",
          "name": "",
          "type": "bytes32"
        }
      ],
      "stateMutability": "view",
      "type": "function"
    },
    {
      "inputs": [],
      "name": "DEFAULT_ADMIN_ROLE",
      "outputs": [
        {
          "internalType": "bytes32",
          "name": "",
          "type": "bytes32"
        }
      ],
      "stateMutability": "view",
      "type": "function"
    },
    {
      "inputs": [],
      "name": "EXCHANGE_ROLE",
      "outputs": [
        {
          "internalType": "bytes32",
          "name": "",
          "type": "bytes32"
        }
      ],
      "stateMutability": "view",
      "type": "function"
    },
    {
      "inputs": [],
      "name": "MINER_ROLE",
      "outputs": [
        {
          "internalType": "bytes32",
          "name": "",
          "type": "bytes32"
        }
      ],
      "stateMutability": "view",
      "type": "function"
    },
    {
      "inputs": [],
      "name": "aaveAddressProviderAddress",
      "outputs": [
        {
          "internalType": "address",
          "name": "",
          "type": "address"
        }
      ],
      "stateMutability": "view",
      "type": "function"
    },
    {
      "inputs": [
        {
          "internalType": "address",
          "name": "owner",
          "type": "address"
        },
        {
          "internalType": "address",
          "name": "spender",
          "type": "address"
        }
      ],
      "name": "allowance",
      "outputs": [
        {
          "internalType": "uint256",
          "name": "",
          "type": "uint256"
        }
      ],
      "stateMutability": "view",
      "type": "function"
    },
    {
      "inputs": [
        {
          "internalType": "address",
          "name": "spender",
          "type": "address"
        },
        {
          "internalType": "uint256",
          "name": "amount",
          "type": "uint256"
        }
      ],
      "name": "approve",
      "outputs": [
        {
          "internalType": "bool",
          "name": "",
          "type": "bool"
        }
      ],
      "stateMutability": "nonpayable",
      "type": "function"
    },
    {
      "inputs": [
        {
          "internalType": "address",
          "name": "account",
          "type": "address"
        }
      ],
      "name": "balanceOf",
      "outputs": [
        {
          "internalType": "uint256",
          "name": "",
          "type": "uint256"
        }
      ],
      "stateMutability": "view",
      "type": "function"
    },
    {
      "inputs": [],
      "name": "decimals",
      "outputs": [
        {
          "internalType": "uint8",
          "name": "",
          "type": "uint8"
        }
      ],
      "stateMutability": "view",
      "type": "function"
    },
    {
      "inputs": [
        {
          "internalType": "address",
          "name": "spender",
          "type": "address"
        },
        {
          "internalType": "uint256",
          "name": "subtractedValue",
          "type": "uint256"
        }
      ],
      "name": "decreaseAllowance",
      "outputs": [
        {
          "internalType": "bool",
          "name": "",
          "type": "bool"
        }
      ],
      "stateMutability": "nonpayable",
      "type": "function"
    },
    {
      "inputs": [],
      "name": "exerciseFee",
      "outputs": [
        {
          "internalType": "uint256",
          "name": "",
          "type": "uint256"
        }
      ],
      "stateMutability": "view",
      "type": "function"
    },
    {
      "inputs": [],
      "name": "fundingAddress",
      "outputs": [
        {
          "internalType": "address",
          "name": "",
          "type": "address"
        }
      ],
      "stateMutability": "view",
      "type": "function"
    },
    {
      "inputs": [
        {
          "internalType": "bytes32",
          "name": "role",
          "type": "bytes32"
        }
      ],
      "name": "getRoleAdmin",
      "outputs": [
        {
          "internalType": "bytes32",
          "name": "",
          "type": "bytes32"
        }
      ],
      "stateMutability": "view",
      "type": "function"
    },
    {
      "inputs": [
        {
          "internalType": "bytes32",
          "name": "role",
          "type": "bytes32"
        },
        {
          "internalType": "address",
          "name": "account",
          "type": "address"
        }
      ],
      "name": "grantRole",
      "outputs": [],
      "stateMutability": "nonpayable",
      "type": "function"
    },
    {
      "inputs": [
        {
          "internalType": "bytes32",
          "name": "role",
          "type": "bytes32"
        },
        {
          "internalType": "address",
          "name": "account",
          "type": "address"
        }
      ],
      "name": "hasRole",
      "outputs": [
        {
          "internalType": "bool",
          "name": "",
          "type": "bool"
        }
      ],
      "stateMutability": "view",
      "type": "function"
    },
    {
      "inputs": [
        {
          "internalType": "address",
          "name": "spender",
          "type": "address"
        },
        {
          "internalType": "uint256",
          "name": "addedValue",
          "type": "uint256"
        }
      ],
      "name": "increaseAllowance",
      "outputs": [
        {
          "internalType": "bool",
          "name": "",
          "type": "bool"
        }
      ],
      "stateMutability": "nonpayable",
      "type": "function"
    },
    {
      "inputs": [],
      "name": "lendingPoolRateMode",
      "outputs": [
        {
          "internalType": "uint256",
          "name": "",
          "type": "uint256"
        }
      ],
      "stateMutability": "view",
      "type": "function"
    },
    {
      "inputs": [],
      "name": "name",
      "outputs": [
        {
          "internalType": "string",
          "name": "",
          "type": "string"
        }
      ],
      "stateMutability": "view",
      "type": "function"
    },
    {
      "inputs": [
        {
          "internalType": "bytes32",
          "name": "role",
          "type": "bytes32"
        },
        {
          "internalType": "address",
          "name": "account",
          "type": "address"
        }
      ],
      "name": "renounceRole",
      "outputs": [],
      "stateMutability": "nonpayable",
      "type": "function"
    },
    {
      "inputs": [
        {
          "internalType": "bytes32",
          "name": "role",
          "type": "bytes32"
        },
        {
          "internalType": "address",
          "name": "account",
          "type": "address"
        }
      ],
      "name": "revokeRole",
      "outputs": [],
      "stateMutability": "nonpayable",
      "type": "function"
    },
    {
      "inputs": [],
      "name": "settlementFee",
      "outputs": [
        {
          "internalType": "uint256",
          "name": "",
          "type": "uint256"
        }
      ],
      "stateMutability": "view",
      "type": "function"
    },
    {
      "inputs": [
        {
          "internalType": "bytes4",
          "name": "interfaceId",
          "type": "bytes4"
        }
      ],
      "name": "supportsInterface",
      "outputs": [
        {
          "internalType": "bool",
          "name": "",
          "type": "bool"
        }
      ],
      "stateMutability": "view",
      "type": "function"
    },
    {
      "inputs": [],
      "name": "swapSlippage",
      "outputs": [
        {
          "internalType": "uint256",
          "name": "",
          "type": "uint256"
        }
      ],
      "stateMutability": "view",
      "type": "function"
    },
    {
      "inputs": [],
      "name": "symbol",
      "outputs": [
        {
          "internalType": "string",
          "name": "",
          "type": "string"
        }
      ],
      "stateMutability": "view",
      "type": "function"
    },
    {
      "inputs": [],
      "name": "totalSupply",
      "outputs": [
        {
          "internalType": "uint256",
          "name": "",
          "type": "uint256"
        }
      ],
      "stateMutability": "view",
      "type": "function"
    },
    {
      "inputs": [
        {
          "internalType": "address",
          "name": "recipient",
          "type": "address"
        },
        {
          "internalType": "uint256",
          "name": "amount",
          "type": "uint256"
        }
      ],
      "name": "transfer",
      "outputs": [
        {
          "internalType": "bool",
          "name": "",
          "type": "bool"
        }
      ],
      "stateMutability": "nonpayable",
      "type": "function"
    },
    {
      "inputs": [
        {
          "internalType": "address",
          "name": "sender",
          "type": "address"
        },
        {
          "internalType": "address",
          "name": "recipient",
          "type": "address"
        },
        {
          "internalType": "uint256",
          "name": "amount",
          "type": "uint256"
        }
      ],
      "name": "transferFrom",
      "outputs": [
        {
          "internalType": "bool",
          "name": "",
          "type": "bool"
        }
      ],
      "stateMutability": "nonpayable",
      "type": "function"
    },
    {
      "inputs": [],
      "name": "underlyingAddress",
      "outputs": [
        {
          "internalType": "address",
          "name": "",
          "type": "address"
        }
      ],
      "stateMutability": "view",
      "type": "function"
    },
    {
      "inputs": [
        {
          "internalType": "address",
          "name": "_purchaser",
          "type": "address"
        },
        {
          "internalType": "uint256",
          "name": "_id",
          "type": "uint256"
        }
      ],
      "name": "recordOptionPurchase",
      "outputs": [],
      "stateMutability": "nonpayable",
      "type": "function"
    },
    {
      "inputs": [
        {
          "internalType": "bool",
          "name": "_ignoreSells",
          "type": "bool"
        }
      ],
      "name": "getAggregateGamma",
      "outputs": [
        {
          "internalType": "int256",
          "name": "_gamma",
          "type": "int256"
        }
      ],
      "stateMutability": "view",
      "type": "function"
    },
    {
      "inputs": [],
      "name": "getBalances",
      "outputs": [
        {
          "internalType": "uint256",
          "name": "_underlyingBalance",
          "type": "uint256"
        },
        {
          "internalType": "uint256",
          "name": "_fundingBalance",
          "type": "uint256"
        },
        {
          "internalType": "uint256",
          "name": "_collateralBalance",
          "type": "uint256"
        },
        {
          "internalType": "uint256",
          "name": "_debtBalance",
          "type": "uint256"
        }
      ],
      "stateMutability": "view",
      "type": "function"
    },
    {
      "inputs": [],
      "name": "anyOptionExpiring",
      "outputs": [
        {
          "internalType": "bool",
          "name": "_isExpiring",
          "type": "bool"
        }
      ],
      "stateMutability": "view",
      "type": "function"
    },
    {
      "inputs": [],
      "name": "expireOptions",
      "outputs": [
        {
          "internalType": "uint256",
          "name": "_expiringId",
          "type": "uint256"
        }
      ],
      "stateMutability": "nonpayable",
      "type": "function"
    },
    {
      "inputs": [
        {
          "internalType": "bool",
          "name": "_net",
          "type": "bool"
        },
        {
          "internalType": "bool",
          "name": "_average",
          "type": "bool"
        }
      ],
      "name": "calcCapital",
      "outputs": [
        {
          "internalType": "uint256",
          "name": "_capital",
          "type": "uint256"
        }
      ],
      "stateMutability": "view",
      "type": "function"
    },
    {
      "inputs": [
        {
          "internalType": "uint256",
          "name": "_depositAmount",
          "type": "uint256"
        }
      ],
      "name": "addCapital",
      "outputs": [],
      "stateMutability": "nonpayable",
      "type": "function"
    },
    {
      "inputs": [
        {
          "internalType": "uint256",
          "name": "_burnMPTokenAmount",
          "type": "uint256"
        }
      ],
      "name": "withdrawCapital",
      "outputs": [],
      "stateMutability": "nonpayable",
      "type": "function"
    },
    {
      "inputs": [
        {
          "internalType": "address",
          "name": "_tokenAddress",
          "type": "address"
        },
        {
          "internalType": "address",
          "name": "_spenderAddress",
          "type": "address"
        },
        {
          "internalType": "uint256",
          "name": "_amount",
          "type": "uint256"
        }
      ],
      "name": "approveSpending",
      "outputs": [],
      "stateMutability": "nonpayable",
      "type": "function"
    },
    {
      "inputs": [],
      "name": "calcHedgeTradesForSwaps",
      "outputs": [
        {
          "internalType": "int256",
          "name": "_tradeUnderlyingAmount",
          "type": "int256"
        },
        {
          "internalType": "int256",
          "name": "_tradeFundingAmount",
          "type": "int256"
        }
      ],
      "stateMutability": "view",
      "type": "function"
    },
    {
      "inputs": [],
      "name": "calcHedgeTradesForLoans",
      "outputs": [
        {
          "internalType": "int256",
          "name": "_loanTradeAmount",
          "type": "int256"
        },
        {
          "internalType": "int256",
          "name": "_collateralChange",
          "type": "int256"
        },
        {
          "internalType": "address",
          "name": "_loanAddress",
          "type": "address"
        },
        {
          "internalType": "address",
          "name": "_collateralAddress",
          "type": "address"
        }
      ],
      "stateMutability": "view",
      "type": "function"
    },
    {
      "inputs": [
        {
          "internalType": "uint256",
          "name": "_newFee",
          "type": "uint256"
        }
      ],
      "name": "resetSettlementFee",
      "outputs": [],
      "stateMutability": "nonpayable",
      "type": "function"
    },
    {
      "inputs": [
        {
          "internalType": "uint256",
          "name": "_newFee",
          "type": "uint256"
        }
      ],
      "name": "resetExerciseFee",
      "outputs": [],
      "stateMutability": "nonpayable",
      "type": "function"
    },
    {
      "inputs": [
        {
          "internalType": "uint256",
          "name": "_slippage",
          "type": "uint256"
        }
      ],
      "name": "resetSlippage",
      "outputs": [],
      "stateMutability": "nonpayable",
      "type": "function"
    },
    {
      "inputs": [
        {
          "internalType": "uint256",
          "name": "_newRateMode",
          "type": "uint256"
        }
      ],
      "name": "resetLendingPoolRateMode",
      "outputs": [],
      "stateMutability": "nonpayable",
      "type": "function"
    },
    {
      "inputs": [
        {
          "internalType": "address",
          "name": "_address",
          "type": "address"
        }
      ],
      "name": "getHoldersOptionCount",
      "outputs": [
        {
          "internalType": "uint256",
          "name": "",
          "type": "uint256"
        }
      ],
      "stateMutability": "view",
      "type": "function"
    },
    {
      "inputs": [
        {
          "internalType": "uint256",
          "name": "_index",
          "type": "uint256"
        },
        {
          "internalType": "address",
          "name": "_address",
          "type": "address"
        }
      ],
      "name": "getHoldersOption",
      "outputs": [
        {
          "components": [
            {
              "internalType": "enum OptionLibrary.PayoffType",
              "name": "poType",
              "type": "uint8"
            },
            {
              "internalType": "enum OptionLibrary.OptionSide",
              "name": "side",
              "type": "uint8"
            },
            {
              "internalType": "enum OptionLibrary.OptionStatus",
              "name": "status",
              "type": "uint8"
            },
            {
              "internalType": "address",
              "name": "holder",
              "type": "address"
            },
            {
              "internalType": "uint256",
              "name": "id",
              "type": "uint256"
            },
            {
              "internalType": "uint256",
              "name": "createTime",
              "type": "uint256"
            },
            {
              "internalType": "uint256",
              "name": "effectiveTime",
              "type": "uint256"
            },
            {
              "internalType": "uint256",
              "name": "tenor",
              "type": "uint256"
            },
            {
              "internalType": "uint256",
              "name": "maturity",
              "type": "uint256"
            },
            {
              "internalType": "uint256",
              "name": "exerciseTime",
              "type": "uint256"
            },
            {
              "internalType": "uint256",
              "name": "amount",
              "type": "uint256"
            },
            {
              "internalType": "uint256",
              "name": "spot",
              "type": "uint256"
            },
            {
              "internalType": "uint256",
              "name": "strike",
              "type": "uint256"
            },
            {
              "internalType": "uint256",
              "name": "volatility",
              "type": "uint256"
            },
            {
              "internalType": "uint256",
              "name": "premium",
              "type": "uint256"
            },
            {
              "internalType": "uint256",
              "name": "cost",
              "type": "uint256"
            }
          ],
          "internalType": "struct OptionLibrary.Option",
          "name": "",
          "type": "tuple"
        }
      ],
      "stateMutability": "view",
      "type": "function"
    }
  ],
  "bytecode": "0x6080604052670de0b6b3a76400006009556611c37937e08000600a556611c37937e08000600b55600260115560006012553480156200003d57600080fd5b50604051620069b0380380620069b0833981810160405281019062000063919062000840565b858581600390805190602001906200007d9291906200058e565b508060049080519060200190620000969291906200058e565b505050620000ae6000801b33620002a960201b60201c565b620000e07fa49807205ce4d355092ef5a8a18f56e8913cf4a201fbe287825b095693c2177533620002a960201b60201c565b620001127f28d62fc77014de57a1bbaa8212ff0979fa61ab00d377b4b8d9762048fb41996133620002a960201b60201c565b620001447fa952726ef2588ad078edf35b066f7c7406e207cb0003bbaba8cb53eba9553e7233620002a960201b60201c565b33600f60006101000a81548173ffffffffffffffffffffffffffffffffffffffff021916908373ffffffffffffffffffffffffffffffffffffffff16021790555082600e60006101000a81548173ffffffffffffffffffffffffffffffffffffffff021916908373ffffffffffffffffffffffffffffffffffffffff16021790555083600d60006101000a81548173ffffffffffffffffffffffffffffffffffffffff021916908373ffffffffffffffffffffffffffffffffffffffff16021790555081600c60006101000a81548173ffffffffffffffffffffffffffffffffffffffff021916908373ffffffffffffffffffffffffffffffffffffffff16021790555080601060006101000a81548173ffffffffffffffffffffffffffffffffffffffff021916908373ffffffffffffffffffffffffffffffffffffffff1602179055506200029d33600954620002bf60201b60201c565b50505050505062000ac6565b620002bb82826200042460201b60201c565b5050565b600073ffffffffffffffffffffffffffffffffffffffff168273ffffffffffffffffffffffffffffffffffffffff16141562000332576040517f08c379a000000000000000000000000000000000000000000000000000000000815260040162000329906200097b565b60405180910390fd5b62000346600083836200051660201b60201c565b80600260008282546200035a9190620009d6565b92505081905550806000808473ffffffffffffffffffffffffffffffffffffffff1673ffffffffffffffffffffffffffffffffffffffff1681526020019081526020016000206000828254620003b19190620009d6565b925050819055508173ffffffffffffffffffffffffffffffffffffffff16600073ffffffffffffffffffffffffffffffffffffffff167fddf252ad1be2c89b69c2b068fc378daa952ba7f163c4a11628f55a4df523b3ef8360405162000418919062000a44565b60405180910390a35050565b6200043682826200051b60201b60201c565b620005125760016005600084815260200190815260200160002060000160008373ffffffffffffffffffffffffffffffffffffffff1673ffffffffffffffffffffffffffffffffffffffff16815260200190815260200160002060006101000a81548160ff021916908315150217905550620004b76200058660201b60201c565b73ffffffffffffffffffffffffffffffffffffffff168173ffffffffffffffffffffffffffffffffffffffff16837f2f8788117e7eff1d82e926ec794901d17c78024a50270940304540a733656f0d60405160405180910390a45b5050565b505050565b60006005600084815260200190815260200160002060000160008373ffffffffffffffffffffffffffffffffffffffff1673ffffffffffffffffffffffffffffffffffffffff16815260200190815260200160002060009054906101000a900460ff16905092915050565b600033905090565b8280546200059c9062000a90565b90600052602060002090601f016020900481019282620005c057600085556200060c565b82601f10620005db57805160ff19168380011785556200060c565b828001600101855582156200060c579182015b828111156200060b578251825591602001919060010190620005ee565b5b5090506200061b91906200061f565b5090565b5b808211156200063a57600081600090555060010162000620565b5090565b6000604051905090565b600080fd5b600080fd5b600080fd5b600080fd5b6000601f19601f8301169050919050565b7f4e487b7100000000000000000000000000000000000000000000000000000000600052604160045260246000fd5b620006a7826200065c565b810181811067ffffffffffffffff82111715620006c957620006c86200066d565b5b80604052505050565b6000620006de6200063e565b9050620006ec82826200069c565b919050565b600067ffffffffffffffff8211156200070f576200070e6200066d565b5b6200071a826200065c565b9050602081019050919050565b60005b83811015620007475780820151818401526020810190506200072a565b8381111562000757576000848401525b50505050565b6000620007746200076e84620006f1565b620006d2565b90508281526020810184848401111562000793576200079262000657565b5b620007a084828562000727565b509392505050565b600082601f830112620007c057620007bf62000652565b5b8151620007d28482602086016200075d565b91505092915050565b600073ffffffffffffffffffffffffffffffffffffffff82169050919050565b60006200080882620007db565b9050919050565b6200081a81620007fb565b81146200082657600080fd5b50565b6000815190506200083a816200080f565b92915050565b60008060008060008060c0878903121562000860576200085f62000648565b5b600087015167ffffffffffffffff8111156200088157620008806200064d565b5b6200088f89828a01620007a8565b965050602087015167ffffffffffffffff811115620008b357620008b26200064d565b5b620008c189828a01620007a8565b9550506040620008d489828a0162000829565b9450506060620008e789828a0162000829565b9350506080620008fa89828a0162000829565b92505060a06200090d89828a0162000829565b9150509295509295509295565b600082825260208201905092915050565b7f45524332303a206d696e7420746f20746865207a65726f206164647265737300600082015250565b600062000963601f836200091a565b915062000970826200092b565b602082019050919050565b60006020820190508181036000830152620009968162000954565b9050919050565b6000819050919050565b7f4e487b7100000000000000000000000000000000000000000000000000000000600052601160045260246000fd5b6000620009e3826200099d565b9150620009f0836200099d565b9250827fffffffffffffffffffffffffffffffffffffffffffffffffffffffffffffffff0382111562000a285762000a27620009a7565b5b828201905092915050565b62000a3e816200099d565b82525050565b600060208201905062000a5b600083018462000a33565b92915050565b7f4e487b7100000000000000000000000000000000000000000000000000000000600052602260045260246000fd5b6000600282049050600182168062000aa957607f821691505b6020821081141562000ac05762000abf62000a61565b5b50919050565b615eda8062000ad66000396000f3fe608060405234801561001057600080fd5b506004361061027e5760003560e01c80638a0687d21161015c578063b82e106d116100ce578063d95b0a1211610087578063d95b0a12146107f3578063dd62ed3e1461080f578063e3f828fa1461083f578063eaa2b0b51461085b578063ecc513f014610879578063ed7dfbdf146108955761027e565b8063b82e106d14610745578063bea10f9614610763578063d1c699aa1461077f578063d3b7bfb41461079d578063d547741f146107bb578063d8a14cbe146107d75761027e565b806395d89b411161012057806395d89b411461065b578063967ad68b14610679578063a217fddf14610697578063a42b6626146106b5578063a457c2d7146106e5578063a9059cbb146107155761027e565b80638a0687d2146105915780638a9450fe146105c157806390618ed9146105dd57806391d14854146105fb5780639462ad651461062b5761027e565b8063313ce567116101f55780635fb1b1a6116101b95780635fb1b1a6146104b857806363447902146104d75780636394f6e61461050757806370a082311461052557806375b238fc146105555780637d1d7fb8146105735761027e565b8063313ce5671461041457806336568abe14610432578063395093511461044e5780633b7345011461047e57806346c777d81461049c5761027e565b806318160ddd1161024757806318160ddd1461033e5780631aedeabe1461035c5780632140ea671461037a57806323b872dd14610398578063248a9ca3146103c85780632f2ff15d146103f85761027e565b8062113e081461028357806301ffc9a7146102a457806306fdde03146102d45780630837ecfd146102f2578063095ea7b31461030e575b600080fd5b61028b6108b6565b60405161029b949392919061410c565b60405180910390f35b6102be60048036038101906102b991906141b8565b610add565b6040516102cb9190614200565b60405180910390f35b6102dc610b57565b6040516102e991906142b4565b60405180910390f35b61030c60048036038101906103079190614302565b610be9565b005b6103286004803603810190610323919061438d565b610c3e565b6040516103359190614200565b60405180910390f35b610346610c5c565b60405161035391906143cd565b60405180910390f35b610364610c66565b60405161037191906143cd565b60405180910390f35b610382610c6c565b60405161038f91906143f7565b60405180910390f35b6103b260048036038101906103ad9190614412565b610c92565b6040516103bf9190614200565b60405180910390f35b6103e260048036038101906103dd919061449b565b610d93565b6040516103ef91906144d7565b60405180910390f35b610412600480360381019061040d91906144f2565b610db3565b005b61041c610ddc565b604051610429919061454e565b60405180910390f35b61044c600480360381019061044791906144f2565b610de5565b005b6104686004803603810190610463919061438d565b610e68565b6040516104759190614200565b60405180910390f35b610486610f14565b60405161049391906144d7565b60405180910390f35b6104b660048036038101906104b19190614302565b610f38565b005b6104c0610f83565b6040516104ce929190614582565b60405180910390f35b6104f160048036038101906104ec91906145d7565b61127f565b6040516104fe91906143cd565b60405180910390f35b61050f611447565b60405161051c91906144d7565b60405180910390f35b61053f600480360381019061053a9190614617565b61146b565b60405161054c91906143cd565b60405180910390f35b61055d6114b3565b60405161056a91906144d7565b60405180910390f35b61057b6114d7565b60405161058891906143cd565b60405180910390f35b6105ab60048036038101906105a69190614644565b6114dd565b6040516105b891906148f3565b60405180910390f35b6105db60048036038101906105d6919061438d565b6115e9565b005b6105e5611687565b6040516105f29190614200565b60405180910390f35b610615600480360381019061061091906144f2565b61177f565b6040516106229190614200565b60405180910390f35b6106456004803603810190610640919061490f565b6117ea565b604051610652919061493c565b60405180910390f35b6106636119c4565b60405161067091906142b4565b60405180910390f35b610681611a56565b60405161068e91906143f7565b60405180910390f35b61069f611a7c565b6040516106ac91906144d7565b60405180910390f35b6106cf60048036038101906106ca9190614617565b611a83565b6040516106dc91906143cd565b60405180910390f35b6106ff60048036038101906106fa919061438d565b611ad3565b60405161070c9190614200565b60405180910390f35b61072f600480360381019061072a919061438d565b611bc7565b60405161073c9190614200565b60405180910390f35b61074d611be5565b60405161075a91906143cd565b60405180910390f35b61077d60048036038101906107789190614302565b611beb565b005b610787611db4565b60405161079491906143cd565b60405180910390f35b6107a5611dba565b6040516107b291906143f7565b60405180910390f35b6107d560048036038101906107d091906144f2565b611de0565b005b6107f160048036038101906107ec9190614412565b611e09565b005b61080d60048036038101906108089190614302565b611ecf565b005b61082960048036038101906108249190614957565b612181565b60405161083691906143cd565b60405180910390f35b61085960048036038101906108549190614302565b612208565b005b610863612245565b60405161087091906143cd565b60405180910390f35b610893600480360381019061088e9190614302565b612a7c565b005b61089d612ac7565b6040516108ad9493929190614997565b60405180910390f35b6000806000806000601060009054906101000a900473ffffffffffffffffffffffffffffffffffffffff1673ffffffffffffffffffffffffffffffffffffffff166321f8a7216040518163ffffffff1660e01b815260040161091790614a02565b60206040518083038186803b15801561092f57600080fd5b505afa158015610943573d6000803e3d6000fd5b505050506040513d601f19601f820116820180604052508101906109679190614a30565b905073__MarketLibrary_________________________6332c21e133083600d60009054906101000a900473ffffffffffffffffffffffffffffffffffffffff166040518463ffffffff1660e01b81526004016109c693929190614a6c565b60606040518083038186803b1580156109de57600080fd5b505af41580156109f2573d6000803e3d6000fd5b505050506040513d601f19601f82011682018060405250810190610a169190614ab8565b9050809350819650505073__MarketLibrary_________________________6332c21e133083600e60009054906101000a900473ffffffffffffffffffffffffffffffffffffffff166040518463ffffffff1660e01b8152600401610a7d93929190614a6c565b60606040518083038186803b158015610a9557600080fd5b505af4158015610aa9573d6000803e3d6000fd5b505050506040513d601f19601f82011682018060405250810190610acd9190614ab8565b5080945081955050505090919293565b60007f7965db0b000000000000000000000000000000000000000000000000000000007bffffffffffffffffffffffffffffffffffffffffffffffffffffffff1916827bffffffffffffffffffffffffffffffffffffffffffffffffffffffff19161480610b505750610b4f82612d68565b5b9050919050565b606060038054610b6690614b3a565b80601f0160208091040260200160405190810160405280929190818152602001828054610b9290614b3a565b8015610bdf5780601f10610bb457610100808354040283529160200191610bdf565b820191906000526020600020905b815481529060010190602001808311610bc257829003601f168201915b5050505050905090565b7fa49807205ce4d355092ef5a8a18f56e8913cf4a201fbe287825b095693c21775610c1b81610c16612dd2565b612dda565b6001821480610c2a5750600282145b610c3357600080fd5b816011819055505050565b6000610c52610c4b612dd2565b8484612e77565b6001905092915050565b6000600254905090565b60125481565b600d60009054906101000a900473ffffffffffffffffffffffffffffffffffffffff1681565b6000610c9f848484613042565b6000600160008673ffffffffffffffffffffffffffffffffffffffff1673ffffffffffffffffffffffffffffffffffffffff1681526020019081526020016000206000610cea612dd2565b73ffffffffffffffffffffffffffffffffffffffff1673ffffffffffffffffffffffffffffffffffffffff16815260200190815260200160002054905082811015610d6a576040517f08c379a0000000000000000000000000000000000000000000000000000000008152600401610d6190614bde565b60405180910390fd5b610d8785610d76612dd2565b8584610d829190614c2d565b612e77565b60019150509392505050565b600060056000838152602001908152602001600020600101549050919050565b610dbc82610d93565b610dcd81610dc8612dd2565b612dda565b610dd783836132c1565b505050565b60006012905090565b610ded612dd2565b73ffffffffffffffffffffffffffffffffffffffff168173ffffffffffffffffffffffffffffffffffffffff1614610e5a576040517f08c379a0000000000000000000000000000000000000000000000000000000008152600401610e5190614cd3565b60405180910390fd5b610e6482826133a2565b5050565b6000610f0a610e75612dd2565b848460016000610e83612dd2565b73ffffffffffffffffffffffffffffffffffffffff1673ffffffffffffffffffffffffffffffffffffffff16815260200190815260200160002060008873ffffffffffffffffffffffffffffffffffffffff1673ffffffffffffffffffffffffffffffffffffffff16815260200190815260200160002054610f059190614cf3565b612e77565b6001905092915050565b7f28d62fc77014de57a1bbaa8212ff0979fa61ab00d377b4b8d9762048fb41996181565b7fa49807205ce4d355092ef5a8a18f56e8913cf4a201fbe287825b095693c21775610f6a81610f65612dd2565b612dda565b6009548210610f7857600080fd5b81600a819055505050565b6000807fa952726ef2588ad078edf35b066f7c7406e207cb0003bbaba8cb53eba9553e72610fb881610fb3612dd2565b612dda565b600080610fc56000613484565b9150915073__MarketLibrary_________________________63eea2526b600d60009054906101000a900473ffffffffffffffffffffffffffffffffffffffff16306040518363ffffffff1660e01b8152600401611024929190614d49565b60206040518083038186803b15801561103c57600080fd5b505af4158015611050573d6000803e3d6000fd5b505050506040513d601f19601f820116820180604052508101906110749190614d72565b6000831215611084576000611086565b825b6110909190614d9f565b945073__MarketLibrary_________________________63aa5c12c773__OptionLibrary_________________________63ca0cc13d88856012546040518463ffffffff1660e01b81526004016110e993929190614e51565b60206040518083038186803b15801561110157600080fd5b505af4158015611115573d6000803e3d6000fd5b505050506040513d601f19601f820116820180604052508101906111399190614eb4565b600e60009054906101000a900473ffffffffffffffffffffffffffffffffffffffff166040518363ffffffff1660e01b8152600401611179929190614ee1565b60206040518083038186803b15801561119157600080fd5b505af41580156111a5573d6000803e3d6000fd5b505050506040513d601f19601f820116820180604052508101906111c99190614eb4565b935073__MarketLibrary_________________________63aa5c12c786600d60009054906101000a900473ffffffffffffffffffffffffffffffffffffffff166040518363ffffffff1660e01b8152600401611226929190614ee1565b60206040518083038186803b15801561123e57600080fd5b505af4158015611252573d6000803e3d6000fd5b505050506040513d601f19601f820116820180604052508101906112769190614eb4565b94505050509091565b600080600c60009054906101000a900473ffffffffffffffffffffffffffffffffffffffff1673ffffffffffffffffffffffffffffffffffffffff1663b0667cf86040518163ffffffff1660e01b8152600401604080518083038186803b1580156112e957600080fd5b505afa1580156112fd573d6000803e3d6000fd5b505050506040513d601f19601f820116820180604052508101906113219190614f0a565b5090506000806000806113326108b6565b9350935093509350611347848660095461362b565b82846113539190614cf3565b61135d9190614cf3565b955061136c818660095461362b565b86116113ad576040517f08c379a00000000000000000000000000000000000000000000000000000000081526004016113a490614f96565b60405180910390fd5b6113ba818660095461362b565b866113c59190614c2d565b955087156113ec576113de6113d8613727565b87613821565b866113e99190614c2d565b95505b861561143c5760006113fc610c5c565b11156114195761141686600954611411610c5c565b61362b565b95505b6000611423610c5c565b1480156114305750600086145b1561143b5760095495505b5b505050505092915050565b7fa952726ef2588ad078edf35b066f7c7406e207cb0003bbaba8cb53eba9553e7281565b60008060008373ffffffffffffffffffffffffffffffffffffffff1673ffffffffffffffffffffffffffffffffffffffff168152602001908152602001600020549050919050565b7fa49807205ce4d355092ef5a8a18f56e8913cf4a201fbe287825b095693c2177581565b600a5481565b6114e561402a565b600c60009054906101000a900473ffffffffffffffffffffffffffffffffffffffff1673ffffffffffffffffffffffffffffffffffffffff16631ce5e9a661157485600660008773ffffffffffffffffffffffffffffffffffffffff1673ffffffffffffffffffffffffffffffffffffffff16815260200190815260200160002061383a90919063ffffffff16565b6040518263ffffffff1660e01b815260040161159091906143cd565b6102006040518083038186803b1580156115a957600080fd5b505afa1580156115bd573d6000803e3d6000fd5b505050506040513d601f19601f820116820180604052508101906115e1919061521f565b905092915050565b7f28d62fc77014de57a1bbaa8212ff0979fa61ab00d377b4b8d9762048fb41996161161b81611616612dd2565b612dda565b61166c82600660008673ffffffffffffffffffffffffffffffffffffffff1673ffffffffffffffffffffffffffffffffffffffff16815260200190815260200160002061385490919063ffffffff16565b5061168182600761385490919063ffffffff16565b50505050565b6000805b611695600761386e565b81101561177b57600c60009054906101000a900473ffffffffffffffffffffffffffffffffffffffff1673ffffffffffffffffffffffffffffffffffffffff166369369ab56116ee83600761383a90919063ffffffff16565b6040518263ffffffff1660e01b815260040161170a91906143cd565b60206040518083038186803b15801561172257600080fd5b505afa158015611736573d6000803e3d6000fd5b505050506040513d601f19601f8201168201806040525081019061175a9190615262565b15611768576001915061177b565b80806117739061528f565b91505061168b565b5090565b60006005600084815260200190815260200160002060000160008373ffffffffffffffffffffffffffffffffffffffff1673ffffffffffffffffffffffffffffffffffffffff16815260200190815260200160002060009054906101000a900460ff16905092915050565b60007f28d62fc77014de57a1bbaa8212ff0979fa61ab00d377b4b8d9762048fb41996161181e81611819612dd2565b612dda565b6000600c60009054906101000a900473ffffffffffffffffffffffffffffffffffffffff1673ffffffffffffffffffffffffffffffffffffffff1663b0667cf86040518163ffffffff1660e01b8152600401604080518083038186803b15801561188757600080fd5b505afa15801561189b573d6000803e3d6000fd5b505050506040513d601f19601f820116820180604052508101906118bf9190614f0a565b5090506000925060005b6118d3600761386e565b8110156119bc57600c60009054906101000a900473ffffffffffffffffffffffffffffffffffffffff1673ffffffffffffffffffffffffffffffffffffffff1663b1cbbfb761192c83600761383a90919063ffffffff16565b84886040518463ffffffff1660e01b815260040161194c939291906152d8565b60206040518083038186803b15801561196457600080fd5b505afa158015611978573d6000803e3d6000fd5b505050506040513d601f19601f8201168201806040525081019061199c9190614eb4565b846119a7919061530f565b935080806119b49061528f565b9150506118c9565b505050919050565b6060600480546119d390614b3a565b80601f01602080910402602001604051908101604052809291908181526020018280546119ff90614b3a565b8015611a4c5780601f10611a2157610100808354040283529160200191611a4c565b820191906000526020600020905b815481529060010190602001808311611a2f57829003601f168201915b5050505050905090565b601060009054906101000a900473ffffffffffffffffffffffffffffffffffffffff1681565b6000801b81565b6000611acc600660008473ffffffffffffffffffffffffffffffffffffffff1673ffffffffffffffffffffffffffffffffffffffff16815260200190815260200160002061386e565b9050919050565b60008060016000611ae2612dd2565b73ffffffffffffffffffffffffffffffffffffffff1673ffffffffffffffffffffffffffffffffffffffff16815260200190815260200160002060008573ffffffffffffffffffffffffffffffffffffffff1673ffffffffffffffffffffffffffffffffffffffff16815260200190815260200160002054905082811015611b9f576040517f08c379a0000000000000000000000000000000000000000000000000000000008152600401611b9690615415565b60405180910390fd5b611bbc611baa612dd2565b858584611bb79190614c2d565b612e77565b600191505092915050565b6000611bdb611bd4612dd2565b8484613042565b6001905092915050565b60115481565b6000611caf73__MarketLibrary_________________________63f0742a2584600e60009054906101000a900473ffffffffffffffffffffffffffffffffffffffff166040518363ffffffff1660e01b8152600401611c4b929190615435565b60206040518083038186803b158015611c6357600080fd5b505af4158015611c77573d6000803e3d6000fd5b505050506040513d601f19601f82011682018060405250810190611c9b9190614d72565b600954611caa6000600161127f565b61362b565b9050600e60009054906101000a900473ffffffffffffffffffffffffffffffffffffffff1673ffffffffffffffffffffffffffffffffffffffff166323b872dd3330856040518463ffffffff1660e01b8152600401611d109392919061545e565b602060405180830381600087803b158015611d2a57600080fd5b505af1158015611d3e573d6000803e3d6000fd5b505050506040513d601f19601f82011682018060405250810190611d629190615262565b611d6b57600080fd5b611d753382613883565b7fd0d5ca25112902dbbf5a70a67eed6edc7513b74f2a7ec0805ca216c99f981cc1338383604051611da893929190615495565b60405180910390a15050565b600b5481565b600e60009054906101000a900473ffffffffffffffffffffffffffffffffffffffff1681565b611de982610d93565b611dfa81611df5612dd2565b612dda565b611e0483836133a2565b505050565b7fa952726ef2588ad078edf35b066f7c7406e207cb0003bbaba8cb53eba9553e72611e3b81611e36612dd2565b612dda565b8373ffffffffffffffffffffffffffffffffffffffff16633950935184846040518363ffffffff1660e01b8152600401611e769291906154cc565b602060405180830381600087803b158015611e9057600080fd5b505af1158015611ea4573d6000803e3d6000fd5b505050506040513d601f19601f82011682018060405250810190611ec89190615262565b5050505050565b600073__MarketLibrary_________________________638170ce80611f02611ef960018061127f565b8560095461362b565b600e60009054906101000a900473ffffffffffffffffffffffffffffffffffffffff166040518363ffffffff1660e01b8152600401611f42929190615435565b60206040518083038186803b158015611f5a57600080fd5b505af4158015611f6e573d6000803e3d6000fd5b505050506040513d601f19601f82011682018060405250810190611f929190614d72565b905080600e60009054906101000a900473ffffffffffffffffffffffffffffffffffffffff1673ffffffffffffffffffffffffffffffffffffffff166370a08231306040518263ffffffff1660e01b8152600401611ff091906143f7565b60206040518083038186803b15801561200857600080fd5b505afa15801561201c573d6000803e3d6000fd5b505050506040513d601f19601f820116820180604052508101906120409190614d72565b11612080576040517f08c379a000000000000000000000000000000000000000000000000000000000815260040161207790615541565b60405180910390fd5b61208a33836139d7565b600e60009054906101000a900473ffffffffffffffffffffffffffffffffffffffff1673ffffffffffffffffffffffffffffffffffffffff1663a9059cbb33836040518363ffffffff1660e01b81526004016120e79291906154cc565b602060405180830381600087803b15801561210157600080fd5b505af1158015612115573d6000803e3d6000fd5b505050506040513d601f19601f820116820180604052508101906121399190615262565b61214257600080fd5b7f3a9e5b3b520d77dc26bf05104c863b6b654d4b96fa8031a783ad0dbd905cdf3933838360405161217593929190615495565b60405180910390a15050565b6000600160008473ffffffffffffffffffffffffffffffffffffffff1673ffffffffffffffffffffffffffffffffffffffff16815260200190815260200160002060008373ffffffffffffffffffffffffffffffffffffffff1673ffffffffffffffffffffffffffffffffffffffff16815260200190815260200160002054905092915050565b7fa49807205ce4d355092ef5a8a18f56e8913cf4a201fbe287825b095693c2177561223a81612235612dd2565b612dda565b816012819055505050565b6000805b612253600761386e565b81101561234b57600c60009054906101000a900473ffffffffffffffffffffffffffffffffffffffff1673ffffffffffffffffffffffffffffffffffffffff166369369ab56122ac83600761383a90919063ffffffff16565b6040518263ffffffff1660e01b81526004016122c891906143cd565b60206040518083038186803b1580156122e057600080fd5b505afa1580156122f4573d6000803e3d6000fd5b505050506040513d601f19601f820116820180604052508101906123189190615262565b156123385761233181600761383a90919063ffffffff16565b915061234b565b80806123439061528f565b915050612249565b506000811115612a79576000600c60009054906101000a900473ffffffffffffffffffffffffffffffffffffffff1673ffffffffffffffffffffffffffffffffffffffff166385ae10e6836040518263ffffffff1660e01b81526004016123b291906143cd565b604080518083038186803b1580156123c957600080fd5b505afa1580156123dd573d6000803e3d6000fd5b505050506040513d601f19601f820116820180604052508101906124019190614f0a565b91505073__MarketLibrary_________________________63eea2526b600d60009054906101000a900473ffffffffffffffffffffffffffffffffffffffff16306040518363ffffffff1660e01b815260040161245f929190614d49565b60206040518083038186803b15801561247757600080fd5b505af415801561248b573d6000803e3d6000fd5b505050506040513d601f19601f820116820180604052508101906124af9190614d72565b81106124f0576040517f08c379a00000000000000000000000000000000000000000000000000000000081526004016124e7906155ad565b60405180910390fd5b6000811115612a7757600c60009054906101000a900473ffffffffffffffffffffffffffffffffffffffff1673ffffffffffffffffffffffffffffffffffffffff1663637baf60836040518263ffffffff1660e01b815260040161255491906143cd565b600060405180830381600087803b15801561256e57600080fd5b505af1158015612582573d6000803e3d6000fd5b505050506126818260066000600c60009054906101000a900473ffffffffffffffffffffffffffffffffffffffff1673ffffffffffffffffffffffffffffffffffffffff16631a7985ba876040518263ffffffff1660e01b81526004016125e991906143cd565b60206040518083038186803b15801561260157600080fd5b505afa158015612615573d6000803e3d6000fd5b505050506040513d601f19601f820116820180604052508101906126399190614a30565b73ffffffffffffffffffffffffffffffffffffffff1673ffffffffffffffffffffffffffffffffffffffff168152602001908152602001600020613bab90919063ffffffff16565b50612696826007613bab90919063ffffffff16565b5073__MarketLibrary_________________________638170ce8082600d60009054906101000a900473ffffffffffffffffffffffffffffffffffffffff166040518363ffffffff1660e01b81526004016126f2929190615435565b60206040518083038186803b15801561270a57600080fd5b505af415801561271e573d6000803e3d6000fd5b505050506040513d601f19601f820116820180604052508101906127429190614d72565b9050600061275582600a5460095461362b565b9050600061276883600b5460095461362b565b9050600d60009054906101000a900473ffffffffffffffffffffffffffffffffffffffff1673ffffffffffffffffffffffffffffffffffffffff1663a9059cbb600c60009054906101000a900473ffffffffffffffffffffffffffffffffffffffff1673ffffffffffffffffffffffffffffffffffffffff16631a7985ba876040518263ffffffff1660e01b815260040161280391906143cd565b60206040518083038186803b15801561281b57600080fd5b505afa15801561282f573d6000803e3d6000fd5b505050506040513d601f19601f820116820180604052508101906128539190614a30565b8385876128609190614c2d565b61286a9190614c2d565b6040518363ffffffff1660e01b81526004016128879291906154cc565b602060405180830381600087803b1580156128a157600080fd5b505af11580156128b5573d6000803e3d6000fd5b505050506040513d601f19601f820116820180604052508101906128d99190615262565b6128e257600080fd5b600d60009054906101000a900473ffffffffffffffffffffffffffffffffffffffff1673ffffffffffffffffffffffffffffffffffffffff1663a9059cbb600f60009054906101000a900473ffffffffffffffffffffffffffffffffffffffff16846040518363ffffffff1660e01b81526004016129619291906154cc565b602060405180830381600087803b15801561297b57600080fd5b505af115801561298f573d6000803e3d6000fd5b505050506040513d601f19601f820116820180604052508101906129b39190615262565b6129bc57600080fd5b600d60009054906101000a900473ffffffffffffffffffffffffffffffffffffffff1673ffffffffffffffffffffffffffffffffffffffff1663a9059cbb33836040518363ffffffff1660e01b8152600401612a199291906154cc565b602060405180830381600087803b158015612a3357600080fd5b505af1158015612a47573d6000803e3d6000fd5b505050506040513d601f19601f82011682018060405250810190612a6b9190615262565b612a7457600080fd5b50505b505b90565b7fa49807205ce4d355092ef5a8a18f56e8913cf4a201fbe287825b095693c21775612aae81612aa9612dd2565b612dda565b6009548210612abc57600080fd5b81600b819055505050565b6000806000807fa952726ef2588ad078edf35b066f7c7406e207cb0003bbaba8cb53eba9553e72612aff81612afa612dd2565b612dda565b600080612b0c6000613484565b915091506000601060009054906101000a900473ffffffffffffffffffffffffffffffffffffffff1673ffffffffffffffffffffffffffffffffffffffff166321f8a7216040518163ffffffff1660e01b8152600401612b6b90614a02565b60206040518083038186803b158015612b8357600080fd5b505afa158015612b97573d6000803e3d6000fd5b505050506040513d601f19601f82011682018060405250810190612bbb9190614a30565b9050600073__MarketLibrary_________________________63b076288a308487600d60009054906101000a900473ffffffffffffffffffffffffffffffffffffffff166002601154146040518663ffffffff1660e01b8152600401612c259594939291906155dc565b60606040518083038186803b158015612c3d57600080fd5b505af4158015612c51573d6000803e3d6000fd5b505050506040513d601f19601f82011682018060405250810190612c75919061562f565b809950819350829b5050505073__MarketLibrary_________________________6312638d3a30848487600e60009054906101000a900473ffffffffffffffffffffffffffffffffffffffff16600d60009054906101000a900473ffffffffffffffffffffffffffffffffffffffff166040518763ffffffff1660e01b8152600401612d0696959493929190615682565b604080518083038186803b158015612d1d57600080fd5b505af4158015612d31573d6000803e3d6000fd5b505050506040513d601f19601f82011682018060405250810190612d5591906156e3565b8097508199505050505050505090919293565b60007f01ffc9a7000000000000000000000000000000000000000000000000000000007bffffffffffffffffffffffffffffffffffffffffffffffffffffffff1916827bffffffffffffffffffffffffffffffffffffffffffffffffffffffff1916149050919050565b600033905090565b612de4828261177f565b612e7357612e098173ffffffffffffffffffffffffffffffffffffffff166014613bc5565b612e178360001c6020613bc5565b604051602001612e289291906157f7565b6040516020818303038152906040526040517f08c379a0000000000000000000000000000000000000000000000000000000008152600401612e6a91906142b4565b60405180910390fd5b5050565b600073ffffffffffffffffffffffffffffffffffffffff168373ffffffffffffffffffffffffffffffffffffffff161415612ee7576040517f08c379a0000000000000000000000000000000000000000000000000000000008152600401612ede906158a3565b60405180910390fd5b600073ffffffffffffffffffffffffffffffffffffffff168273ffffffffffffffffffffffffffffffffffffffff161415612f57576040517f08c379a0000000000000000000000000000000000000000000000000000000008152600401612f4e90615935565b60405180910390fd5b80600160008573ffffffffffffffffffffffffffffffffffffffff1673ffffffffffffffffffffffffffffffffffffffff16815260200190815260200160002060008473ffffffffffffffffffffffffffffffffffffffff1673ffffffffffffffffffffffffffffffffffffffff168152602001908152602001600020819055508173ffffffffffffffffffffffffffffffffffffffff168373ffffffffffffffffffffffffffffffffffffffff167f8c5be1e5ebec7d5bd14f71427d1e84f3dd0314c0f7b2291e5b200ac8c7c3b9258360405161303591906143cd565b60405180910390a3505050565b600073ffffffffffffffffffffffffffffffffffffffff168373ffffffffffffffffffffffffffffffffffffffff1614156130b2576040517f08c379a00000000000000000000000000000000000000000000000000000000081526004016130a9906159c7565b60405180910390fd5b600073ffffffffffffffffffffffffffffffffffffffff168273ffffffffffffffffffffffffffffffffffffffff161415613122576040517f08c379a000000000000000000000000000000000000000000000000000000000815260040161311990615a59565b60405180910390fd5b61312d838383613e01565b60008060008573ffffffffffffffffffffffffffffffffffffffff1673ffffffffffffffffffffffffffffffffffffffff168152602001908152602001600020549050818110156131b3576040517f08c379a00000000000000000000000000000000000000000000000000000000081526004016131aa90615aeb565b60405180910390fd5b81816131bf9190614c2d565b6000808673ffffffffffffffffffffffffffffffffffffffff1673ffffffffffffffffffffffffffffffffffffffff16815260200190815260200160002081905550816000808573ffffffffffffffffffffffffffffffffffffffff1673ffffffffffffffffffffffffffffffffffffffff168152602001908152602001600020600082825461324f9190614cf3565b925050819055508273ffffffffffffffffffffffffffffffffffffffff168473ffffffffffffffffffffffffffffffffffffffff167fddf252ad1be2c89b69c2b068fc378daa952ba7f163c4a11628f55a4df523b3ef846040516132b391906143cd565b60405180910390a350505050565b6132cb828261177f565b61339e5760016005600084815260200190815260200160002060000160008373ffffffffffffffffffffffffffffffffffffffff1673ffffffffffffffffffffffffffffffffffffffff16815260200190815260200160002060006101000a81548160ff021916908315150217905550613343612dd2565b73ffffffffffffffffffffffffffffffffffffffff168173ffffffffffffffffffffffffffffffffffffffff16837f2f8788117e7eff1d82e926ec794901d17c78024a50270940304540a733656f0d60405160405180910390a45b5050565b6133ac828261177f565b156134805760006005600084815260200190815260200160002060000160008373ffffffffffffffffffffffffffffffffffffffff1673ffffffffffffffffffffffffffffffffffffffff16815260200190815260200160002060006101000a81548160ff021916908315150217905550613425612dd2565b73ffffffffffffffffffffffffffffffffffffffff168173ffffffffffffffffffffffffffffffffffffffff16837ff6391f5c32d9c69d2a47ea670b442974b53935d1edc7fd64eb21e047a839171b60405160405180910390a45b5050565b600080600c60009054906101000a900473ffffffffffffffffffffffffffffffffffffffff1673ffffffffffffffffffffffffffffffffffffffff1663b0667cf86040518163ffffffff1660e01b8152600401604080518083038186803b1580156134ee57600080fd5b505afa158015613502573d6000803e3d6000fd5b505050506040513d601f19601f820116820180604052508101906135269190614f0a565b50809150506000915060005b61353c600761386e565b81101561362557600c60009054906101000a900473ffffffffffffffffffffffffffffffffffffffff1673ffffffffffffffffffffffffffffffffffffffff16638cbb0cd061359583600761383a90919063ffffffff16565b84876040518463ffffffff1660e01b81526004016135b5939291906152d8565b60206040518083038186803b1580156135cd57600080fd5b505afa1580156135e1573d6000803e3d6000fd5b505050506040513d601f19601f820116820180604052508101906136059190614eb4565b83613610919061530f565b9250808061361d9061528f565b915050613532565b50915091565b600080600080198587098587029250828110838203039150506000811415613666576000841161365a57600080fd5b83820492505050613720565b80841161367257600080fd5b60008486880990508281118203915080830392506000856001877fffffffffffffffffffffffffffffffffffffffffffffffffffffffffffffffff0301169050808604955080840493506001818260000304019050808302841793506000600287600302189050808702600203810290508087026002038102905080870260020381029050808702600203810290508087026002038102905080870260020381029050808502955050505050505b9392505050565b6000805b613735600761386e565b81101561381d57600c60009054906101000a900473ffffffffffffffffffffffffffffffffffffffff1673ffffffffffffffffffffffffffffffffffffffff1663105df85661378e83600761383a90919063ffffffff16565b60006040518363ffffffff1660e01b81526004016137ad929190615b0b565b60206040518083038186803b1580156137c557600080fd5b505afa1580156137d9573d6000803e3d6000fd5b505050506040513d601f19601f820116820180604052508101906137fd9190614d72565b826138089190614cf3565b915080806138159061528f565b91505061372b565b5090565b60008183106138305781613832565b825b905092915050565b60006138498360000183613e06565b60001c905092915050565b6000613866836000018360001b613e7a565b905092915050565b600061387c82600001613eea565b9050919050565b600073ffffffffffffffffffffffffffffffffffffffff168273ffffffffffffffffffffffffffffffffffffffff1614156138f3576040517f08c379a00000000000000000000000000000000000000000000000000000000081526004016138ea90615b80565b60405180910390fd5b6138ff60008383613e01565b80600260008282546139119190614cf3565b92505081905550806000808473ffffffffffffffffffffffffffffffffffffffff1673ffffffffffffffffffffffffffffffffffffffff16815260200190815260200160002060008282546139669190614cf3565b925050819055508173ffffffffffffffffffffffffffffffffffffffff16600073ffffffffffffffffffffffffffffffffffffffff167fddf252ad1be2c89b69c2b068fc378daa952ba7f163c4a11628f55a4df523b3ef836040516139cb91906143cd565b60405180910390a35050565b600073ffffffffffffffffffffffffffffffffffffffff168273ffffffffffffffffffffffffffffffffffffffff161415613a47576040517f08c379a0000000000000000000000000000000000000000000000000000000008152600401613a3e90615c12565b60405180910390fd5b613a5382600083613e01565b60008060008473ffffffffffffffffffffffffffffffffffffffff1673ffffffffffffffffffffffffffffffffffffffff16815260200190815260200160002054905081811015613ad9576040517f08c379a0000000000000000000000000000000000000000000000000000000008152600401613ad090615ca4565b60405180910390fd5b8181613ae59190614c2d565b6000808573ffffffffffffffffffffffffffffffffffffffff1673ffffffffffffffffffffffffffffffffffffffff168152602001908152602001600020819055508160026000828254613b399190614c2d565b92505081905550600073ffffffffffffffffffffffffffffffffffffffff168373ffffffffffffffffffffffffffffffffffffffff167fddf252ad1be2c89b69c2b068fc378daa952ba7f163c4a11628f55a4df523b3ef84604051613b9e91906143cd565b60405180910390a3505050565b6000613bbd836000018360001b613efb565b905092915050565b606060006002836002613bd89190615cc4565b613be29190614cf3565b67ffffffffffffffff811115613bfb57613bfa614fbb565b5b6040519080825280601f01601f191660200182016040528015613c2d5781602001600182028036833780820191505090505b5090507f300000000000000000000000000000000000000000000000000000000000000081600081518110613c6557613c64615d1e565b5b60200101907effffffffffffffffffffffffffffffffffffffffffffffffffffffffffffff1916908160001a9053507f780000000000000000000000000000000000000000000000000000000000000081600181518110613cc957613cc8615d1e565b5b60200101907effffffffffffffffffffffffffffffffffffffffffffffffffffffffffffff1916908160001a90535060006001846002613d099190615cc4565b613d139190614cf3565b90505b6001811115613db3577f3031323334353637383961626364656600000000000000000000000000000000600f861660108110613d5557613d54615d1e565b5b1a60f81b828281518110613d6c57613d6b615d1e565b5b60200101907effffffffffffffffffffffffffffffffffffffffffffffffffffffffffffff1916908160001a905350600485901c945080613dac90615d4d565b9050613d16565b5060008414613df7576040517f08c379a0000000000000000000000000000000000000000000000000000000008152600401613dee90615dc3565b60405180910390fd5b8091505092915050565b505050565b600081836000018054905011613e51576040517f08c379a0000000000000000000000000000000000000000000000000000000008152600401613e4890615e55565b60405180910390fd5b826000018281548110613e6757613e66615d1e565b5b9060005260206000200154905092915050565b6000613e868383614007565b613edf578260000182908060018154018082558091505060019003906000526020600020016000909190919091505582600001805490508360010160008481526020019081526020016000208190555060019050613ee4565b600090505b92915050565b600081600001805490509050919050565b60008083600101600084815260200190815260200160002054905060008114613ffb576000600182613f2d9190614c2d565b9050600060018660000180549050613f459190614c2d565b90506000866000018281548110613f5f57613f5e615d1e565b5b9060005260206000200154905080876000018481548110613f8357613f82615d1e565b5b9060005260206000200181905550838760010160008381526020019081526020016000208190555086600001805480613fbf57613fbe615e75565b5b60019003818190600052602060002001600090559055866001016000878152602001908152602001600020600090556001945050505050614001565b60009150505b92915050565b600080836001016000848152602001908152602001600020541415905092915050565b6040518061020001604052806000600181111561404a57614049614684565b5b81526020016000600181111561406357614062614684565b5b81526020016000600381111561407c5761407b614684565b5b8152602001600073ffffffffffffffffffffffffffffffffffffffff1681526020016000815260200160008152602001600081526020016000815260200160008152602001600081526020016000815260200160008152602001600081526020016000815260200160008152602001600081525090565b6000819050919050565b614106816140f3565b82525050565b600060808201905061412160008301876140fd565b61412e60208301866140fd565b61413b60408301856140fd565b61414860608301846140fd565b95945050505050565b6000604051905090565b600080fd5b60007fffffffff0000000000000000000000000000000000000000000000000000000082169050919050565b61419581614160565b81146141a057600080fd5b50565b6000813590506141b28161418c565b92915050565b6000602082840312156141ce576141cd61415b565b5b60006141dc848285016141a3565b91505092915050565b60008115159050919050565b6141fa816141e5565b82525050565b600060208201905061421560008301846141f1565b92915050565b600081519050919050565b600082825260208201905092915050565b60005b8381101561425557808201518184015260208101905061423a565b83811115614264576000848401525b50505050565b6000601f19601f8301169050919050565b60006142868261421b565b6142908185614226565b93506142a0818560208601614237565b6142a98161426a565b840191505092915050565b600060208201905081810360008301526142ce818461427b565b905092915050565b6142df816140f3565b81146142ea57600080fd5b50565b6000813590506142fc816142d6565b92915050565b6000602082840312156143185761431761415b565b5b6000614326848285016142ed565b91505092915050565b600073ffffffffffffffffffffffffffffffffffffffff82169050919050565b600061435a8261432f565b9050919050565b61436a8161434f565b811461437557600080fd5b50565b60008135905061438781614361565b92915050565b600080604083850312156143a4576143a361415b565b5b60006143b285828601614378565b92505060206143c3858286016142ed565b9150509250929050565b60006020820190506143e260008301846140fd565b92915050565b6143f18161434f565b82525050565b600060208201905061440c60008301846143e8565b92915050565b60008060006060848603121561442b5761442a61415b565b5b600061443986828701614378565b935050602061444a86828701614378565b925050604061445b868287016142ed565b9150509250925092565b6000819050919050565b61447881614465565b811461448357600080fd5b50565b6000813590506144958161446f565b92915050565b6000602082840312156144b1576144b061415b565b5b60006144bf84828501614486565b91505092915050565b6144d181614465565b82525050565b60006020820190506144ec60008301846144c8565b92915050565b600080604083850312156145095761450861415b565b5b600061451785828601614486565b925050602061452885828601614378565b9150509250929050565b600060ff82169050919050565b61454881614532565b82525050565b6000602082019050614563600083018461453f565b92915050565b6000819050919050565b61457c81614569565b82525050565b60006040820190506145976000830185614573565b6145a46020830184614573565b9392505050565b6145b4816141e5565b81146145bf57600080fd5b50565b6000813590506145d1816145ab565b92915050565b600080604083850312156145ee576145ed61415b565b5b60006145fc858286016145c2565b925050602061460d858286016145c2565b9150509250929050565b60006020828403121561462d5761462c61415b565b5b600061463b84828501614378565b91505092915050565b6000806040838503121561465b5761465a61415b565b5b6000614669858286016142ed565b925050602061467a85828601614378565b9150509250929050565b7f4e487b7100000000000000000000000000000000000000000000000000000000600052602160045260246000fd5b600281106146c4576146c3614684565b5b50565b60008190506146d5826146b3565b919050565b60006146e5826146c7565b9050919050565b6146f5816146da565b82525050565b6002811061470c5761470b614684565b5b50565b600081905061471d826146fb565b919050565b600061472d8261470f565b9050919050565b61473d81614722565b82525050565b6004811061475457614753614684565b5b50565b600081905061476582614743565b919050565b600061477582614757565b9050919050565b6147858161476a565b82525050565b6147948161434f565b82525050565b6147a3816140f3565b82525050565b610200820160008201516147c060008501826146ec565b5060208201516147d36020850182614734565b5060408201516147e6604085018261477c565b5060608201516147f9606085018261478b565b50608082015161480c608085018261479a565b5060a082015161481f60a085018261479a565b5060c082015161483260c085018261479a565b5060e082015161484560e085018261479a565b5061010082015161485a61010085018261479a565b5061012082015161486f61012085018261479a565b5061014082015161488461014085018261479a565b5061016082015161489961016085018261479a565b506101808201516148ae61018085018261479a565b506101a08201516148c36101a085018261479a565b506101c08201516148d86101c085018261479a565b506101e08201516148ed6101e085018261479a565b50505050565b60006102008201905061490960008301846147a9565b92915050565b6000602082840312156149255761492461415b565b5b6000614933848285016145c2565b91505092915050565b60006020820190506149516000830184614573565b92915050565b6000806040838503121561496e5761496d61415b565b5b600061497c85828601614378565b925050602061498d85828601614378565b9150509250929050565b60006080820190506149ac6000830187614573565b6149b96020830186614573565b6149c660408301856143e8565b6149d360608301846143e8565b95945050505050565b7f3078310000000000000000000000000000000000000000000000000000000000815250565b6000602082019050614a16600083016149dc565b919050565b600081519050614a2a81614361565b92915050565b600060208284031215614a4657614a4561415b565b5b6000614a5484828501614a1b565b91505092915050565b614a668161434f565b82525050565b6000606082019050614a816000830186614a5d565b614a8e6020830185614a5d565b614a9b6040830184614a5d565b949350505050565b600081519050614ab2816142d6565b92915050565b600080600060608486031215614ad157614ad061415b565b5b6000614adf86828701614aa3565b9350506020614af086828701614aa3565b9250506040614b0186828701614aa3565b9150509250925092565b7f4e487b7100000000000000000000000000000000000000000000000000000000600052602260045260246000fd5b60006002820490506001821680614b5257607f821691505b60208210811415614b6657614b65614b0b565b5b50919050565b7f45524332303a207472616e7366657220616d6f756e742065786365656473206160008201527f6c6c6f77616e6365000000000000000000000000000000000000000000000000602082015250565b6000614bc8602883614226565b9150614bd382614b6c565b604082019050919050565b60006020820190508181036000830152614bf781614bbb565b9050919050565b7f4e487b7100000000000000000000000000000000000000000000000000000000600052601160045260246000fd5b6000614c38826140f3565b9150614c43836140f3565b925082821015614c5657614c55614bfe565b5b828203905092915050565b7f416363657373436f6e74726f6c3a2063616e206f6e6c792072656e6f756e636560008201527f20726f6c657320666f722073656c660000000000000000000000000000000000602082015250565b6000614cbd602f83614226565b9150614cc882614c61565b604082019050919050565b60006020820190508181036000830152614cec81614cb0565b9050919050565b6000614cfe826140f3565b9150614d09836140f3565b9250827fffffffffffffffffffffffffffffffffffffffffffffffffffffffffffffffff03821115614d3e57614d3d614bfe565b5b828201905092915050565b6000604082019050614d5e6000830185614a5d565b614d6b6020830184614a5d565b9392505050565b600060208284031215614d8857614d8761415b565b5b6000614d9684828501614aa3565b91505092915050565b6000614daa82614569565b9150614db583614569565b9250827f800000000000000000000000000000000000000000000000000000000000000001821260008412151615614df057614def614bfe565b5b827f7fffffffffffffffffffffffffffffffffffffffffffffffffffffffffffffff018213600084121615614e2857614e27614bfe565b5b828203905092915050565b614e3c81614569565b82525050565b614e4b816140f3565b82525050565b6000606082019050614e666000830186614e33565b614e736020830185614e42565b614e806040830184614e42565b949350505050565b614e9181614569565b8114614e9c57600080fd5b50565b600081519050614eae81614e88565b92915050565b600060208284031215614eca57614ec961415b565b5b6000614ed884828501614e9f565b91505092915050565b6000604082019050614ef66000830185614e33565b614f036020830184614a5d565b9392505050565b60008060408385031215614f2157614f2061415b565b5b6000614f2f85828601614aa3565b9250506020614f4085828601614aa3565b9150509250929050565b7f4e65676174697665206571756974792e00000000000000000000000000000000600082015250565b6000614f80601083614226565b9150614f8b82614f4a565b602082019050919050565b60006020820190508181036000830152614faf81614f73565b9050919050565b600080fd5b7f4e487b7100000000000000000000000000000000000000000000000000000000600052604160045260246000fd5b614ff38261426a565b810181811067ffffffffffffffff8211171561501257615011614fbb565b5b80604052505050565b6000615025614151565b90506150318282614fea565b919050565b6002811061504357600080fd5b50565b60008151905061505581615036565b92915050565b6002811061506857600080fd5b50565b60008151905061507a8161505b565b92915050565b6004811061508d57600080fd5b50565b60008151905061509f81615080565b92915050565b600061020082840312156150bc576150bb614fb6565b5b6150c761020061501b565b905060006150d784828501615046565b60008301525060206150eb8482850161506b565b60208301525060406150ff84828501615090565b604083015250606061511384828501614a1b565b606083015250608061512784828501614aa3565b60808301525060a061513b84828501614aa3565b60a08301525060c061514f84828501614aa3565b60c08301525060e061516384828501614aa3565b60e08301525061010061517884828501614aa3565b6101008301525061012061518e84828501614aa3565b610120830152506101406151a484828501614aa3565b610140830152506101606151ba84828501614aa3565b610160830152506101806151d084828501614aa3565b610180830152506101a06151e684828501614aa3565b6101a0830152506101c06151fc84828501614aa3565b6101c0830152506101e061521284828501614aa3565b6101e08301525092915050565b600061020082840312156152365761523561415b565b5b6000615244848285016150a5565b91505092915050565b60008151905061525c816145ab565b92915050565b6000602082840312156152785761527761415b565b5b60006152868482850161524d565b91505092915050565b600061529a826140f3565b91507fffffffffffffffffffffffffffffffffffffffffffffffffffffffffffffffff8214156152cd576152cc614bfe565b5b600182019050919050565b60006060820190506152ed60008301866140fd565b6152fa60208301856140fd565b61530760408301846141f1565b949350505050565b600061531a82614569565b915061532583614569565b9250817f7fffffffffffffffffffffffffffffffffffffffffffffffffffffffffffffff038313600083121516156153605761535f614bfe565b5b817f800000000000000000000000000000000000000000000000000000000000000003831260008312161561539857615397614bfe565b5b828201905092915050565b7f45524332303a2064656372656173656420616c6c6f77616e63652062656c6f7760008201527f207a65726f000000000000000000000000000000000000000000000000000000602082015250565b60006153ff602583614226565b915061540a826153a3565b604082019050919050565b6000602082019050818103600083015261542e816153f2565b9050919050565b600060408201905061544a6000830185614e42565b6154576020830184614a5d565b9392505050565b600060608201905061547360008301866143e8565b61548060208301856143e8565b61548d60408301846140fd565b949350505050565b60006060820190506154aa60008301866143e8565b6154b760208301856140fd565b6154c460408301846140fd565b949350505050565b60006040820190506154e160008301856143e8565b6154ee60208301846140fd565b9392505050565b7f496e73756666696369656e742062616c616e6365000000000000000000000000600082015250565b600061552b601483614226565b9150615536826154f5565b602082019050919050565b6000602082019050818103600083015261555a8161551e565b9050919050565b7f42616c616e636520696e73756666696369656e742e0000000000000000000000600082015250565b6000615597601583614226565b91506155a282615561565b602082019050919050565b600060208201905081810360008301526155c68161558a565b9050919050565b6155d6816141e5565b82525050565b600060a0820190506155f16000830188614a5d565b6155fe6020830187614a5d565b61560b6040830186614e33565b6156186060830185614a5d565b61562560808301846155cd565b9695505050505050565b6000806000606084860312156156485761564761415b565b5b600061565686828701614e9f565b935050602061566786828701614aa3565b925050604061567886828701614a1b565b9150509250925092565b600060c0820190506156976000830189614a5d565b6156a46020830188614a5d565b6156b16040830187614e42565b6156be6060830186614e42565b6156cb6080830185614a5d565b6156d860a0830184614a5d565b979650505050505050565b600080604083850312156156fa576156f961415b565b5b600061570885828601614e9f565b925050602061571985828601614a1b565b9150509250929050565b600081905092915050565b7f416363657373436f6e74726f6c3a206163636f756e7420000000000000000000600082015250565b6000615764601783615723565b915061576f8261572e565b601782019050919050565b60006157858261421b565b61578f8185615723565b935061579f818560208601614237565b80840191505092915050565b7f206973206d697373696e6720726f6c6520000000000000000000000000000000600082015250565b60006157e1601183615723565b91506157ec826157ab565b601182019050919050565b600061580282615757565b915061580e828561577a565b9150615819826157d4565b9150615825828461577a565b91508190509392505050565b7f45524332303a20617070726f76652066726f6d20746865207a65726f2061646460008201527f7265737300000000000000000000000000000000000000000000000000000000602082015250565b600061588d602483614226565b915061589882615831565b604082019050919050565b600060208201905081810360008301526158bc81615880565b9050919050565b7f45524332303a20617070726f766520746f20746865207a65726f20616464726560008201527f7373000000000000000000000000000000000000000000000000000000000000602082015250565b600061591f602283614226565b915061592a826158c3565b604082019050919050565b6000602082019050818103600083015261594e81615912565b9050919050565b7f45524332303a207472616e736665722066726f6d20746865207a65726f20616460008201527f6472657373000000000000000000000000000000000000000000000000000000602082015250565b60006159b1602583614226565b91506159bc82615955565b604082019050919050565b600060208201905081810360008301526159e0816159a4565b9050919050565b7f45524332303a207472616e7366657220746f20746865207a65726f206164647260008201527f6573730000000000000000000000000000000000000000000000000000000000602082015250565b6000615a43602383614226565b9150615a4e826159e7565b604082019050919050565b60006020820190508181036000830152615a7281615a36565b9050919050565b7f45524332303a207472616e7366657220616d6f756e742065786365656473206260008201527f616c616e63650000000000000000000000000000000000000000000000000000602082015250565b6000615ad5602683614226565b9150615ae082615a79565b604082019050919050565b60006020820190508181036000830152615b0481615ac8565b9050919050565b6000604082019050615b2060008301856140fd565b615b2d60208301846141f1565b9392505050565b7f45524332303a206d696e7420746f20746865207a65726f206164647265737300600082015250565b6000615b6a601f83614226565b9150615b7582615b34565b602082019050919050565b60006020820190508181036000830152615b9981615b5d565b9050919050565b7f45524332303a206275726e2066726f6d20746865207a65726f2061646472657360008201527f7300000000000000000000000000000000000000000000000000000000000000602082015250565b6000615bfc602183614226565b9150615c0782615ba0565b604082019050919050565b60006020820190508181036000830152615c2b81615bef565b9050919050565b7f45524332303a206275726e20616d6f756e7420657863656564732062616c616e60008201527f6365000000000000000000000000000000000000000000000000000000000000602082015250565b6000615c8e602283614226565b9150615c9982615c32565b604082019050919050565b60006020820190508181036000830152615cbd81615c81565b9050919050565b6000615ccf826140f3565b9150615cda836140f3565b9250817fffffffffffffffffffffffffffffffffffffffffffffffffffffffffffffffff0483118215151615615d1357615d12614bfe565b5b828202905092915050565b7f4e487b7100000000000000000000000000000000000000000000000000000000600052603260045260246000fd5b6000615d58826140f3565b91506000821415615d6c57615d6b614bfe565b5b600182039050919050565b7f537472696e67733a20686578206c656e67746820696e73756666696369656e74600082015250565b6000615dad602083614226565b9150615db882615d77565b602082019050919050565b60006020820190508181036000830152615ddc81615da0565b9050919050565b7f456e756d657261626c655365743a20696e646578206f7574206f6620626f756e60008201527f6473000000000000000000000000000000000000000000000000000000000000602082015250565b6000615e3f602283614226565b9150615e4a82615de3565b604082019050919050565b60006020820190508181036000830152615e6e81615e32565b9050919050565b7f4e487b7100000000000000000000000000000000000000000000000000000000600052603160045260246000fdfea2646970667358221220f5537dfb18b97d83b80f6e3e0f251bf2b7715ea7ead3ab636e2daaae74c53e5d64736f6c63430008090033",
  "immutableReferences": {},
  "source": "// SPDX-License-Identifier: MIT\npragma solidity 0.8.9;\n\n// import \"@openzeppelin/contracts/token/ERC20/ERC20.sol\";\nimport \"@openzeppelin/contracts/access/AccessControl.sol\";\nimport \"@openzeppelin/contracts/utils/structs/EnumerableSet.sol\";\nimport \"@openzeppelin/contracts/utils/math/Math.sol\";\nimport \"./MoretInterfaces.sol\";\nimport \"./MarketLibrary.sol\";\n\ncontract MoretMarketMaker is ERC20, AccessControl, EOption\n{\n  using EnumerableSet for EnumerableSet.UintSet;\n  using EnumerableSet for EnumerableSet.AddressSet;\n\n  bytes32 public constant ADMIN_ROLE = keccak256(\"ADMIN_ROLE\");\n  bytes32 public constant EXCHANGE_ROLE = keccak256(\"EXCHANGE_ROLE\");\n  bytes32 public constant MINER_ROLE = keccak256(\"MINER_ROLE\");\n  mapping(address=> EnumerableSet.UintSet) internal activeOptionsPerOwner;\n  EnumerableSet.UintSet internal activeOptions;\n\n  uint256 private multiplier = 10 ** 18;\n  uint256 public settlementFee= 5 * (10 ** 15);\n  uint256 public exerciseFee= 5 * (10 ** 15);\n  IOptionVault internal optionVault;\n\n  address public underlyingAddress;\n  address public fundingAddress;\n  address internal maintenanceAddress;\n  address public aaveAddressProviderAddress;\n  uint256 public lendingPoolRateMode = 2;\n  uint256 public swapSlippage = 0;\n  \n  constructor(string memory _name, string memory _symbol, address _underlyingAddress, address _fundingAddress, address _optionAddress, address _aaveAddressProviderAddress) ERC20(_name, _symbol){\n    _setupRole(DEFAULT_ADMIN_ROLE, msg.sender);\n    _setupRole(ADMIN_ROLE, msg.sender);\n    _setupRole(EXCHANGE_ROLE, msg.sender);\n    _setupRole(MINER_ROLE, msg.sender);\n    maintenanceAddress = msg.sender;\n    fundingAddress = _fundingAddress;\n    underlyingAddress = _underlyingAddress;\n    optionVault = IOptionVault(_optionAddress);\n    aaveAddressProviderAddress = _aaveAddressProviderAddress;\n    _mint(msg.sender, multiplier);}\n\n  function recordOptionPurchase(address _purchaser, uint256 _id) external  onlyRole(EXCHANGE_ROLE){\n    activeOptionsPerOwner[_purchaser].add(_id);\n    activeOptions.add(_id);}\n\n  function getAggregateGamma(bool _ignoreSells) public onlyRole(EXCHANGE_ROLE) view returns(int256 _gamma){\n    (uint256 _price,) = optionVault.queryPrice();\n    _gamma= 0;\n    for(uint256 i=0;i<activeOptions.length();i++){\n      _gamma += optionVault.calculateContractGamma(uint256(activeOptions.at(i)),_price, _ignoreSells);}}\n\n  function getAggregateDelta(bool _ignoreSells) internal view returns(int256 _delta,uint256 _price){\n    (_price,) = optionVault.queryPrice();\n    _delta= 0;\n    for(uint256 i=0;i<activeOptions.length();i++){\n      _delta += optionVault.calculateContractDelta(uint256(activeOptions.at(i)),_price, _ignoreSells);}}\n\n  function getBalances() public view returns(uint256 _underlyingBalance, uint256 _fundingBalance, uint256 _collateralBalance, uint256 _debtBalance){\n    address _protocolDataProviderAddress = ILendingPoolAddressesProvider(aaveAddressProviderAddress).getAddress(\"0x1\");//bytes32(uint256(1)));\n    ( _underlyingBalance, ,  _debtBalance) = MarketLibrary.getTokenBalances(address(this), _protocolDataProviderAddress, underlyingAddress);\n    ( _fundingBalance,  _collateralBalance,) = MarketLibrary.getTokenBalances(address(this), _protocolDataProviderAddress, fundingAddress); }\n\n  function anyOptionExpiring() external view returns(bool _isExpiring) {\n    _isExpiring = false;\n    for(uint256 i=0;i<activeOptions.length();i++){\n      if(optionVault.isOptionExpiring(uint256(activeOptions.at(i)))){\n        _isExpiring = true;\n        break;}}}\n\n  function expireOptions() external  returns(uint256 _expiringId){\n    _expiringId = 0;\n    for(uint256 i=0;i<activeOptions.length();i++){\n      if(optionVault.isOptionExpiring(uint256(activeOptions.at(i)))){\n        _expiringId = uint256(activeOptions.at(i));\n        break;}}\n    if(_expiringId >0) {\n      ( , uint256 _payback) = optionVault.getContractPayoff(_expiringId);\n      require(_payback < MarketLibrary.balanceDef(underlyingAddress, address(this)), \"Balance insufficient.\");\n      if(_payback > 0){\n        optionVault.stampExpiredOption(_expiringId);\n        activeOptionsPerOwner[optionVault.getOptionHolder(_expiringId)].remove(_expiringId);\n        activeOptions.remove(_expiringId);\n\n        _payback = MarketLibrary.cvtDecimals(_payback, underlyingAddress);\n        uint256 _settleFeeAmount = MulDiv(_payback, settlementFee, multiplier);\n        uint256 _exerciseFeeAmount = MulDiv(_payback, exerciseFee, multiplier);\n\n        require(IERC20(underlyingAddress).transfer(optionVault.getOptionHolder(_expiringId), _payback - _settleFeeAmount - _exerciseFeeAmount));\n        require(IERC20(underlyingAddress).transfer(maintenanceAddress, _settleFeeAmount));\n        require(IERC20(underlyingAddress).transfer(msg.sender, _exerciseFeeAmount));}}}\n\n  function getAggregateNotional() internal view returns(uint256 _notional) {\n    _notional= 0;\n    for(uint256 i=0;i<activeOptions.length();i++){\n      _notional += optionVault.queryOptionNotional(uint256(activeOptions.at(i)), false);} }\n\n  function calcCapital(bool _net, bool _average) public view returns(uint256 _capital){\n      (uint256 _price, ) = optionVault.queryPrice();\n      (uint256 _underlying_balance, uint256 _funding_balance, uint256 _collateral_balance, uint256 _debt_balance) = getBalances();\n      _capital = _funding_balance + _collateral_balance + MulDiv(_underlying_balance, _price, multiplier);\n      require(_capital > MulDiv(_debt_balance, _price, multiplier), \"Negative equity.\");\n      _capital -= MulDiv(_debt_balance, _price, multiplier);\n\n      if(_net){ _capital -= Math.min(getAggregateNotional(), _capital);}\n      if(_average){ \n        if(totalSupply() > 0) _capital = MulDiv(_capital , multiplier , totalSupply()); \n        if(totalSupply() == 0 && _capital == 0) _capital = multiplier;}}\n    \n  function addCapital(uint256 _depositAmount) external {\n      uint256 _mintMPTokenAmount = MulDiv(MarketLibrary.cvtDef(_depositAmount, fundingAddress), multiplier, calcCapital(false, true));\n      require(ERC20(fundingAddress).transferFrom(msg.sender, address(this), _depositAmount));\n      _mint(msg.sender, _mintMPTokenAmount);\n      emit capitalAdded(msg.sender, _depositAmount, _mintMPTokenAmount);}\n\n  function withdrawCapital(uint256 _burnMPTokenAmount) external {\n      uint256 _withdrawValue = MarketLibrary.cvtDecimals(MulDiv(calcCapital(true, true),  _burnMPTokenAmount , multiplier), fundingAddress); \n      require(IERC20(fundingAddress).balanceOf(address(this)) > _withdrawValue,\"Insufficient balance\");\n      _burn(msg.sender, _burnMPTokenAmount);\n      require(ERC20(fundingAddress).transfer(msg.sender, _withdrawValue));\n      emit capitalWithdrawn(msg.sender, _burnMPTokenAmount, _withdrawValue);}\n  \n  function approveSpending(address _tokenAddress, address _spenderAddress, uint256 _amount) external onlyRole(MINER_ROLE){\n    ERC20(_tokenAddress).increaseAllowance(_spenderAddress, _amount);}\n\n  function calcHedgeTradesForSwaps() external onlyRole(MINER_ROLE) view returns(int256 _tradeUnderlyingAmount, int256 _tradeFundingAmount){\n    (int256 _aggregateDelta, uint256 _price) = getAggregateDelta(false);\n    _tradeUnderlyingAmount = (_aggregateDelta >= 0? _aggregateDelta: int256(0)) - int256(MarketLibrary.balanceDef(underlyingAddress, address(this)));\n    _tradeFundingAmount = MarketLibrary.cvtDecimalsInt(OptionLibrary.getOpposeTrade(_tradeUnderlyingAmount, _price, swapSlippage), fundingAddress);\n    _tradeUnderlyingAmount = MarketLibrary.cvtDecimalsInt(_tradeUnderlyingAmount, underlyingAddress);}\n\n  function calcHedgeTradesForLoans() external onlyRole(MINER_ROLE) view returns(int256 _loanTradeAmount, int256 _collateralChange, address _loanAddress, address _collateralAddress){\n    (int256 _aggregateDelta, uint256 _price) = getAggregateDelta(false);\n    address _protocolDataProviderAddress = ILendingPoolAddressesProvider(aaveAddressProviderAddress).getAddress(\"0x1\");//bytes32(uint256(1)));\n    uint256 _targetLoan = 0;\n    (_loanTradeAmount, _targetLoan, _loanAddress) = MarketLibrary.getLoanTrade(address(this), _protocolDataProviderAddress, _aggregateDelta, underlyingAddress, lendingPoolRateMode == 2);\n    (_collateralChange, _collateralAddress) = MarketLibrary.getCollateralTrade(address(this), _protocolDataProviderAddress, _targetLoan, _price, fundingAddress, underlyingAddress);}\n\n  // function depositCollateral(uint256 _addCollateral, address _lendingPoolAddress) external onlyRole(EXCHANGE_ROLE){\n  //   ERC20(fundingAddress).increaseAllowance(_lendingPoolAddress, _addCollateral);\n  //   ILendingPool(_lendingPoolAddress).deposit(fundingAddress, _addCollateral, address(this), 0);}\n\n  // function withdrawCollateral(uint256 _removeCollateral, address _lendingPoolAddress) external onlyRole(EXCHANGE_ROLE){\n  //   (address _collateralAddress,,) = MarketLibrary.getLendingTokenAddresses(protocolDataProviderAddress, fundingAddress);\n  //   ERC20(_collateralAddress).increaseAllowance(_lendingPoolAddress, _removeCollateral);\n  //   ILendingPool(_lendingPoolAddress).withdraw(fundingAddress, _removeCollateral, address(this));}\n\n  // function borrowLoans(uint256 _borrowAmount , address _lendingPoolAddress, uint256 _lendingPoolRateMode)  external onlyRole(EXCHANGE_ROLE) {\n  //   ILendingPool(_lendingPoolAddress).borrow(underlyingAddress, _borrowAmount, _lendingPoolRateMode,  0, address(this));}\n\n  // function repayLoans(uint256 _repayAmount, address _lendingPoolAddress, uint256 _lendingPoolRateMode)  external onlyRole(EXCHANGE_ROLE) {\n  //   (,address _stableDebt, address _debtToken) = MarketLibrary.getLendingTokenAddresses(protocolDataProviderAddress, underlyingAddress);\n  //   if(_lendingPoolRateMode==1) _debtToken = _stableDebt;\n  //   ERC20(_debtToken).approve(_lendingPoolAddress, _repayAmount);\n  //   ERC20(underlyingAddress).approve(_lendingPoolAddress, _repayAmount);\n  //   ILendingPool(_lendingPoolAddress).repay(underlyingAddress, _repayAmount, _lendingPoolRateMode, address(this));}\n\n  // function swapToUnderlyingAtVenue(uint256 _underlyingAmount, address _exchangeAddress, uint256 _maxSlippage, uint256 _deadlineLag) external onlyRole(EXCHANGE_ROLE)  returns(uint256[] memory _swappedAmounts){\n  //   address[] memory _path = new address[](2);\n  //   _path[0] = fundingAddress;\n  //   _path[1] = underlyingAddress; \n  //   (uint256 _price,, uint256 _priceMultiplier) = optionVault.queryPrice();\n  //   uint256 _maxCost = MulDiv(MulDiv(_underlyingAmount, _price, _priceMultiplier), ethMultiplier + _maxSlippage, ethMultiplier);\n  //   ERC20(fundingAddress).increaseAllowance(_exchangeAddress, _maxCost);\n  //   _swappedAmounts = IUniswapV2Router02(_exchangeAddress).swapTokensForExactTokens(_underlyingAmount, _maxCost, _path, address(this), block.timestamp + _deadlineLag); }\n\n  // function swapToFundingAtVenue(uint256 _underlyingAmount,  address _exchangeAddress, uint256 _maxSlippage, uint256 _deadlineLag) external onlyRole(EXCHANGE_ROLE)   returns(uint256[] memory _swappedAmounts) {\n  //   ERC20(underlyingAddress).increaseAllowance(_exchangeAddress, _underlyingAmount);\n  //   address[] memory _path = new address[](2);\n  //   _path[0] = underlyingAddress;\n  //   _path[1] = fundingAddress;\n  //   (uint256 _price,, uint256 _priceMultiplier) = optionVault.queryPrice();\n  //   uint256 _minReturn = MulDiv(MulDiv(_underlyingAmount, _price, _priceMultiplier), ethMultiplier - _maxSlippage, ethMultiplier);\n  //   _swappedAmounts = IUniswapV2Router02(_exchangeAddress).swapExactTokensForTokens(_underlyingAmount, _minReturn, _path, address(this), block.timestamp + _deadlineLag);}\n\n  // function swapAtAggregator(uint256 _underlyingAmount, address _exchangeAddress, uint256 _maxSlippage, bool _toUnderlying ) external onlyRole(EXCHANGE_ROLE)  returns(uint256 _swappedAmountFrom, uint256 _swappedAmountTo){\n  //   (uint256 _price,, uint256 _priceMultiplier) = optionVault.queryPrice();\n  //   address _swapFrom = _toUnderlying? fundingAddress: underlyingAddress;\n  //   address _swapTo = _toUnderlying? underlyingAddress: fundingAddress;\n  //   _swappedAmountFrom = _toUnderlying? MulDiv(MulDiv(_underlyingAmount, _price, _priceMultiplier), ethMultiplier + _maxSlippage, ethMultiplier):_underlyingAmount;\n  //   (uint256 _returnAmount, uint256[] memory _distribution) = I1InchProtocol(_exchangeAddress).getExpectedReturn( IERC20(_swapFrom) , IERC20(_swapTo) , _swappedAmountFrom, 1, 0);\n  //   ERC20(_swapFrom).increaseAllowance(_exchangeAddress, _swappedAmountFrom);\n  //   _swappedAmountTo = I1InchProtocol(_exchangeAddress).swap( IERC20(_swapFrom), IERC20(_swapTo), _swappedAmountFrom, _returnAmount, _distribution, 0);}\n\n  function resetSettlementFee(uint256 _newFee) external onlyRole(ADMIN_ROLE){ require(_newFee < multiplier); settlementFee = _newFee;}\n  function resetExerciseFee(uint256 _newFee) external onlyRole(ADMIN_ROLE){ require(_newFee < multiplier); exerciseFee = _newFee;}\n  // function resetMaintenance(address _newAddress) external onlyRole(ADMIN_ROLE){ maintenanceAddress = _newAddress;}\n  function resetSlippage(uint256 _slippage) external onlyRole(ADMIN_ROLE){ swapSlippage = _slippage;}\n  function resetLendingPoolRateMode(uint256 _newRateMode) external onlyRole(ADMIN_ROLE) {\n    require(_newRateMode == 1 || _newRateMode == 2);\n    lendingPoolRateMode = _newRateMode;}\n  function getHoldersOptionCount(address _address) external view returns(uint256){return activeOptionsPerOwner[_address].length();}\n  function getHoldersOption(uint256 _index, address _address) external view returns(OptionLibrary.Option memory) {return optionVault.getOption(activeOptionsPerOwner[_address].at(_index));}\n\n}\n",
  "sourcePath": "/Users/apple/Documents/GitHub/moret/contracts/MoretMarketMaker.sol",
  "compiler": {
    "name": "solc",
    "version": "0.8.9+commit.e5eed63a.Emscripten.clang"
  },
  "schemaVersion": "3.4.3",
  "updatedAt": "2021-11-07T19:48:05.836Z",
  "devdoc": {
    "kind": "dev",
    "methods": {
      "allowance(address,address)": {
        "details": "See {IERC20-allowance}."
      },
      "approve(address,uint256)": {
        "details": "See {IERC20-approve}. Requirements: - `spender` cannot be the zero address."
      },
      "balanceOf(address)": {
        "details": "See {IERC20-balanceOf}."
      },
      "decimals()": {
        "details": "Returns the number of decimals used to get its user representation. For example, if `decimals` equals `2`, a balance of `505` tokens should be displayed to a user as `5,05` (`505 / 10 ** 2`). Tokens usually opt for a value of 18, imitating the relationship between Ether and Wei. This is the value {ERC20} uses, unless this function is overridden; NOTE: This information is only used for _display_ purposes: it in no way affects any of the arithmetic of the contract, including {IERC20-balanceOf} and {IERC20-transfer}."
      },
      "decreaseAllowance(address,uint256)": {
        "details": "Atomically decreases the allowance granted to `spender` by the caller. This is an alternative to {approve} that can be used as a mitigation for problems described in {IERC20-approve}. Emits an {Approval} event indicating the updated allowance. Requirements: - `spender` cannot be the zero address. - `spender` must have allowance for the caller of at least `subtractedValue`."
      },
      "getRoleAdmin(bytes32)": {
        "details": "Returns the admin role that controls `role`. See {grantRole} and {revokeRole}. To change a role's admin, use {_setRoleAdmin}."
      },
      "grantRole(bytes32,address)": {
        "details": "Grants `role` to `account`. If `account` had not been already granted `role`, emits a {RoleGranted} event. Requirements: - the caller must have ``role``'s admin role."
      },
      "hasRole(bytes32,address)": {
        "details": "Returns `true` if `account` has been granted `role`."
      },
      "increaseAllowance(address,uint256)": {
        "details": "Atomically increases the allowance granted to `spender` by the caller. This is an alternative to {approve} that can be used as a mitigation for problems described in {IERC20-approve}. Emits an {Approval} event indicating the updated allowance. Requirements: - `spender` cannot be the zero address."
      },
      "name()": {
        "details": "Returns the name of the token."
      },
      "renounceRole(bytes32,address)": {
        "details": "Revokes `role` from the calling account. Roles are often managed via {grantRole} and {revokeRole}: this function's purpose is to provide a mechanism for accounts to lose their privileges if they are compromised (such as when a trusted device is misplaced). If the calling account had been granted `role`, emits a {RoleRevoked} event. Requirements: - the caller must be `account`."
      },
      "revokeRole(bytes32,address)": {
        "details": "Revokes `role` from `account`. If `account` had been granted `role`, emits a {RoleRevoked} event. Requirements: - the caller must have ``role``'s admin role."
      },
      "supportsInterface(bytes4)": {
        "details": "See {IERC165-supportsInterface}."
      },
      "symbol()": {
        "details": "Returns the symbol of the token, usually a shorter version of the name."
      },
      "totalSupply()": {
        "details": "See {IERC20-totalSupply}."
      },
      "transfer(address,uint256)": {
        "details": "See {IERC20-transfer}. Requirements: - `recipient` cannot be the zero address. - the caller must have a balance of at least `amount`."
      },
      "transferFrom(address,address,uint256)": {
        "details": "See {IERC20-transferFrom}. Emits an {Approval} event indicating the updated allowance. This is not required by the EIP. See the note at the beginning of {ERC20}. Requirements: - `sender` and `recipient` cannot be the zero address. - `sender` must have a balance of at least `amount`. - the caller must have allowance for ``sender``'s tokens of at least `amount`."
      }
    },
    "version": 1
  },
  "userdoc": {
    "kind": "user",
    "methods": {},
    "version": 1
  }
}