{
  "contractName": "Moret",
  "abi": [
    {
      "inputs": [
        {
          "internalType": "contract MoretBroker",
          "name": "_broker",
          "type": "address"
        }
      ],
      "stateMutability": "nonpayable",
      "type": "constructor"
    },
    {
      "anonymous": false,
      "inputs": [
        {
          "indexed": true,
          "internalType": "address",
          "name": "owner",
          "type": "address"
        },
        {
          "indexed": true,
          "internalType": "address",
          "name": "spender",
          "type": "address"
        },
        {
          "indexed": false,
          "internalType": "uint256",
          "name": "value",
          "type": "uint256"
        }
      ],
      "name": "Approval",
      "type": "event"
    },
    {
      "anonymous": false,
      "inputs": [
        {
          "indexed": true,
          "internalType": "address",
          "name": "delegator",
          "type": "address"
        },
        {
          "indexed": true,
          "internalType": "address",
          "name": "fromDelegate",
          "type": "address"
        },
        {
          "indexed": true,
          "internalType": "address",
          "name": "toDelegate",
          "type": "address"
        }
      ],
      "name": "DelegateChanged",
      "type": "event"
    },
    {
      "anonymous": false,
      "inputs": [
        {
          "indexed": true,
          "internalType": "address",
          "name": "delegate",
          "type": "address"
        },
        {
          "indexed": false,
          "internalType": "uint256",
          "name": "previousBalance",
          "type": "uint256"
        },
        {
          "indexed": false,
          "internalType": "uint256",
          "name": "newBalance",
          "type": "uint256"
        }
      ],
      "name": "DelegateVotesChanged",
      "type": "event"
    },
    {
      "anonymous": false,
      "inputs": [
        {
          "indexed": false,
          "internalType": "address",
          "name": "_pool",
          "type": "address"
        },
        {
          "indexed": false,
          "internalType": "address",
          "name": "_sender",
          "type": "address"
        },
        {
          "indexed": false,
          "internalType": "uint256",
          "name": "_amount",
          "type": "uint256"
        },
        {
          "indexed": false,
          "internalType": "uint256",
          "name": "_moretAmount",
          "type": "uint256"
        }
      ],
      "name": "ExchangePoolTokens",
      "type": "event"
    },
    {
      "anonymous": false,
      "inputs": [
        {
          "indexed": true,
          "internalType": "address",
          "name": "previousOwner",
          "type": "address"
        },
        {
          "indexed": true,
          "internalType": "address",
          "name": "newOwner",
          "type": "address"
        }
      ],
      "name": "OwnershipTransferred",
      "type": "event"
    },
    {
      "anonymous": false,
      "inputs": [
        {
          "indexed": true,
          "internalType": "address",
          "name": "from",
          "type": "address"
        },
        {
          "indexed": true,
          "internalType": "address",
          "name": "to",
          "type": "address"
        },
        {
          "indexed": false,
          "internalType": "uint256",
          "name": "value",
          "type": "uint256"
        }
      ],
      "name": "Transfer",
      "type": "event"
    },
    {
      "anonymous": false,
      "inputs": [
        {
          "indexed": false,
          "internalType": "uint256",
          "name": "_fee",
          "type": "uint256"
        }
      ],
      "name": "UpdateProtocolFees",
      "type": "event"
    },
    {
      "anonymous": false,
      "inputs": [
        {
          "indexed": false,
          "internalType": "address",
          "name": "_route",
          "type": "address"
        },
        {
          "indexed": false,
          "internalType": "bool",
          "name": "_addition",
          "type": "bool"
        }
      ],
      "name": "UpdateRoute",
      "type": "event"
    },
    {
      "anonymous": false,
      "inputs": [
        {
          "indexed": false,
          "internalType": "address",
          "name": "_pool",
          "type": "address"
        },
        {
          "indexed": false,
          "internalType": "uint256",
          "name": "_amount",
          "type": "uint256"
        }
      ],
      "name": "WithdrawPoolTokens",
      "type": "event"
    },
    {
      "inputs": [],
      "name": "DOMAIN_SEPARATOR",
      "outputs": [
        {
          "internalType": "bytes32",
          "name": "",
          "type": "bytes32"
        }
      ],
      "stateMutability": "view",
      "type": "function"
    },
    {
      "inputs": [
        {
          "internalType": "address",
          "name": "owner",
          "type": "address"
        },
        {
          "internalType": "address",
          "name": "spender",
          "type": "address"
        }
      ],
      "name": "allowance",
      "outputs": [
        {
          "internalType": "uint256",
          "name": "",
          "type": "uint256"
        }
      ],
      "stateMutability": "view",
      "type": "function"
    },
    {
      "inputs": [
        {
          "internalType": "address",
          "name": "spender",
          "type": "address"
        },
        {
          "internalType": "uint256",
          "name": "amount",
          "type": "uint256"
        }
      ],
      "name": "approve",
      "outputs": [
        {
          "internalType": "bool",
          "name": "",
          "type": "bool"
        }
      ],
      "stateMutability": "nonpayable",
      "type": "function"
    },
    {
      "inputs": [
        {
          "internalType": "address",
          "name": "account",
          "type": "address"
        }
      ],
      "name": "balanceOf",
      "outputs": [
        {
          "internalType": "uint256",
          "name": "",
          "type": "uint256"
        }
      ],
      "stateMutability": "view",
      "type": "function"
    },
    {
      "inputs": [],
      "name": "broker",
      "outputs": [
        {
          "internalType": "contract MoretBroker",
          "name": "",
          "type": "address"
        }
      ],
      "stateMutability": "view",
      "type": "function"
    },
    {
      "inputs": [
        {
          "internalType": "address",
          "name": "account",
          "type": "address"
        },
        {
          "internalType": "uint32",
          "name": "pos",
          "type": "uint32"
        }
      ],
      "name": "checkpoints",
      "outputs": [
        {
          "components": [
            {
              "internalType": "uint32",
              "name": "fromBlock",
              "type": "uint32"
            },
            {
              "internalType": "uint224",
              "name": "votes",
              "type": "uint224"
            }
          ],
          "internalType": "struct ERC20Votes.Checkpoint",
          "name": "",
          "type": "tuple"
        }
      ],
      "stateMutability": "view",
      "type": "function"
    },
    {
      "inputs": [],
      "name": "decimals",
      "outputs": [
        {
          "internalType": "uint8",
          "name": "",
          "type": "uint8"
        }
      ],
      "stateMutability": "view",
      "type": "function"
    },
    {
      "inputs": [
        {
          "internalType": "address",
          "name": "spender",
          "type": "address"
        },
        {
          "internalType": "uint256",
          "name": "subtractedValue",
          "type": "uint256"
        }
      ],
      "name": "decreaseAllowance",
      "outputs": [
        {
          "internalType": "bool",
          "name": "",
          "type": "bool"
        }
      ],
      "stateMutability": "nonpayable",
      "type": "function"
    },
    {
      "inputs": [
        {
          "internalType": "address",
          "name": "delegatee",
          "type": "address"
        }
      ],
      "name": "delegate",
      "outputs": [],
      "stateMutability": "nonpayable",
      "type": "function"
    },
    {
      "inputs": [
        {
          "internalType": "address",
          "name": "delegatee",
          "type": "address"
        },
        {
          "internalType": "uint256",
          "name": "nonce",
          "type": "uint256"
        },
        {
          "internalType": "uint256",
          "name": "expiry",
          "type": "uint256"
        },
        {
          "internalType": "uint8",
          "name": "v",
          "type": "uint8"
        },
        {
          "internalType": "bytes32",
          "name": "r",
          "type": "bytes32"
        },
        {
          "internalType": "bytes32",
          "name": "s",
          "type": "bytes32"
        }
      ],
      "name": "delegateBySig",
      "outputs": [],
      "stateMutability": "nonpayable",
      "type": "function"
    },
    {
      "inputs": [
        {
          "internalType": "address",
          "name": "account",
          "type": "address"
        }
      ],
      "name": "delegates",
      "outputs": [
        {
          "internalType": "address",
          "name": "",
          "type": "address"
        }
      ],
      "stateMutability": "view",
      "type": "function"
    },
    {
      "inputs": [],
      "name": "funding",
      "outputs": [
        {
          "internalType": "contract ERC20",
          "name": "",
          "type": "address"
        }
      ],
      "stateMutability": "view",
      "type": "function"
    },
    {
      "inputs": [
        {
          "internalType": "uint256",
          "name": "blockNumber",
          "type": "uint256"
        }
      ],
      "name": "getPastTotalSupply",
      "outputs": [
        {
          "internalType": "uint256",
          "name": "",
          "type": "uint256"
        }
      ],
      "stateMutability": "view",
      "type": "function"
    },
    {
      "inputs": [
        {
          "internalType": "address",
          "name": "account",
          "type": "address"
        },
        {
          "internalType": "uint256",
          "name": "blockNumber",
          "type": "uint256"
        }
      ],
      "name": "getPastVotes",
      "outputs": [
        {
          "internalType": "uint256",
          "name": "",
          "type": "uint256"
        }
      ],
      "stateMutability": "view",
      "type": "function"
    },
    {
      "inputs": [
        {
          "internalType": "address",
          "name": "account",
          "type": "address"
        }
      ],
      "name": "getVotes",
      "outputs": [
        {
          "internalType": "uint256",
          "name": "",
          "type": "uint256"
        }
      ],
      "stateMutability": "view",
      "type": "function"
    },
    {
      "inputs": [
        {
          "internalType": "address",
          "name": "spender",
          "type": "address"
        },
        {
          "internalType": "uint256",
          "name": "addedValue",
          "type": "uint256"
        }
      ],
      "name": "increaseAllowance",
      "outputs": [
        {
          "internalType": "bool",
          "name": "",
          "type": "bool"
        }
      ],
      "stateMutability": "nonpayable",
      "type": "function"
    },
    {
      "inputs": [],
      "name": "name",
      "outputs": [
        {
          "internalType": "string",
          "name": "",
          "type": "string"
        }
      ],
      "stateMutability": "view",
      "type": "function"
    },
    {
      "inputs": [
        {
          "internalType": "address",
          "name": "owner",
          "type": "address"
        }
      ],
      "name": "nonces",
      "outputs": [
        {
          "internalType": "uint256",
          "name": "",
          "type": "uint256"
        }
      ],
      "stateMutability": "view",
      "type": "function"
    },
    {
      "inputs": [
        {
          "internalType": "address",
          "name": "account",
          "type": "address"
        }
      ],
      "name": "numCheckpoints",
      "outputs": [
        {
          "internalType": "uint32",
          "name": "",
          "type": "uint32"
        }
      ],
      "stateMutability": "view",
      "type": "function"
    },
    {
      "inputs": [],
      "name": "owner",
      "outputs": [
        {
          "internalType": "address",
          "name": "",
          "type": "address"
        }
      ],
      "stateMutability": "view",
      "type": "function"
    },
    {
      "inputs": [
        {
          "internalType": "address",
          "name": "owner",
          "type": "address"
        },
        {
          "internalType": "address",
          "name": "spender",
          "type": "address"
        },
        {
          "internalType": "uint256",
          "name": "value",
          "type": "uint256"
        },
        {
          "internalType": "uint256",
          "name": "deadline",
          "type": "uint256"
        },
        {
          "internalType": "uint8",
          "name": "v",
          "type": "uint8"
        },
        {
          "internalType": "bytes32",
          "name": "r",
          "type": "bytes32"
        },
        {
          "internalType": "bytes32",
          "name": "s",
          "type": "bytes32"
        }
      ],
      "name": "permit",
      "outputs": [],
      "stateMutability": "nonpayable",
      "type": "function"
    },
    {
      "inputs": [],
      "name": "protocolFee",
      "outputs": [
        {
          "internalType": "uint256",
          "name": "",
          "type": "uint256"
        }
      ],
      "stateMutability": "view",
      "type": "function"
    },
    {
      "inputs": [],
      "name": "protocolFeeRecipient",
      "outputs": [
        {
          "internalType": "address",
          "name": "",
          "type": "address"
        }
      ],
      "stateMutability": "view",
      "type": "function"
    },
    {
      "inputs": [],
      "name": "renounceOwnership",
      "outputs": [],
      "stateMutability": "nonpayable",
      "type": "function"
    },
    {
      "inputs": [],
      "name": "symbol",
      "outputs": [
        {
          "internalType": "string",
          "name": "",
          "type": "string"
        }
      ],
      "stateMutability": "view",
      "type": "function"
    },
    {
      "inputs": [],
      "name": "totalSupply",
      "outputs": [
        {
          "internalType": "uint256",
          "name": "",
          "type": "uint256"
        }
      ],
      "stateMutability": "view",
      "type": "function"
    },
    {
      "inputs": [
        {
          "internalType": "address",
          "name": "to",
          "type": "address"
        },
        {
          "internalType": "uint256",
          "name": "amount",
          "type": "uint256"
        }
      ],
      "name": "transfer",
      "outputs": [
        {
          "internalType": "bool",
          "name": "",
          "type": "bool"
        }
      ],
      "stateMutability": "nonpayable",
      "type": "function"
    },
    {
      "inputs": [
        {
          "internalType": "address",
          "name": "from",
          "type": "address"
        },
        {
          "internalType": "address",
          "name": "to",
          "type": "address"
        },
        {
          "internalType": "uint256",
          "name": "amount",
          "type": "uint256"
        }
      ],
      "name": "transferFrom",
      "outputs": [
        {
          "internalType": "bool",
          "name": "",
          "type": "bool"
        }
      ],
      "stateMutability": "nonpayable",
      "type": "function"
    },
    {
      "inputs": [
        {
          "internalType": "address",
          "name": "newOwner",
          "type": "address"
        }
      ],
      "name": "transferOwnership",
      "outputs": [],
      "stateMutability": "nonpayable",
      "type": "function"
    },
    {
      "inputs": [
        {
          "internalType": "address",
          "name": "_to",
          "type": "address"
        },
        {
          "internalType": "uint256",
          "name": "_amount",
          "type": "uint256"
        }
      ],
      "name": "mint",
      "outputs": [],
      "stateMutability": "nonpayable",
      "type": "function"
    },
    {
      "inputs": [
        {
          "internalType": "uint256",
          "name": "_amount",
          "type": "uint256"
        }
      ],
      "name": "divest",
      "outputs": [],
      "stateMutability": "nonpayable",
      "type": "function"
    },
    {
      "inputs": [
        {
          "internalType": "contract Pool",
          "name": "_pool",
          "type": "address"
        },
        {
          "internalType": "uint256",
          "name": "_amount",
          "type": "uint256"
        }
      ],
      "name": "withdrawPool",
      "outputs": [],
      "stateMutability": "nonpayable",
      "type": "function"
    },
    {
      "inputs": [
        {
          "internalType": "uint256",
          "name": "_newFee",
          "type": "uint256"
        }
      ],
      "name": "setProtocolFee",
      "outputs": [],
      "stateMutability": "nonpayable",
      "type": "function"
    },
    {
      "inputs": [
        {
          "internalType": "address",
          "name": "_newAddress",
          "type": "address"
        }
      ],
      "name": "setProtocolRecipient",
      "outputs": [],
      "stateMutability": "nonpayable",
      "type": "function"
    },
    {
      "inputs": [],
      "name": "getAllUnderlyings",
      "outputs": [
        {
          "internalType": "address[]",
          "name": "",
          "type": "address[]"
        }
      ],
      "stateMutability": "view",
      "type": "function"
    },
    {
      "inputs": [
        {
          "internalType": "address",
          "name": "_underlyingAddress",
          "type": "address"
        },
        {
          "internalType": "contract VolatilityChain",
          "name": "_newOracle",
          "type": "address"
        }
      ],
      "name": "updateVolChain",
      "outputs": [],
      "stateMutability": "nonpayable",
      "type": "function"
    },
    {
      "inputs": [
        {
          "internalType": "address",
          "name": "_underlyingAddress",
          "type": "address"
        }
      ],
      "name": "getVolatilityChain",
      "outputs": [
        {
          "internalType": "contract VolatilityChain",
          "name": "",
          "type": "address"
        }
      ],
      "stateMutability": "view",
      "type": "function"
    },
    {
      "inputs": [
        {
          "internalType": "address",
          "name": "_underlyingAddress",
          "type": "address"
        },
        {
          "internalType": "uint256",
          "name": "_tenor",
          "type": "uint256"
        },
        {
          "internalType": "contract VolatilityToken",
          "name": "_volToken",
          "type": "address"
        }
      ],
      "name": "updateVolToken",
      "outputs": [],
      "stateMutability": "nonpayable",
      "type": "function"
    },
    {
      "inputs": [
        {
          "internalType": "address",
          "name": "_underlyingAddress",
          "type": "address"
        },
        {
          "internalType": "uint256",
          "name": "_tenor",
          "type": "uint256"
        }
      ],
      "name": "getVolatilityToken",
      "outputs": [
        {
          "internalType": "contract VolatilityToken",
          "name": "",
          "type": "address"
        }
      ],
      "stateMutability": "view",
      "type": "function"
    },
    {
      "inputs": [
        {
          "internalType": "address",
          "name": "_route",
          "type": "address"
        },
        {
          "internalType": "bool",
          "name": "_add",
          "type": "bool"
        }
      ],
      "name": "updateEligibleRoute",
      "outputs": [
        {
          "internalType": "bool",
          "name": "",
          "type": "bool"
        }
      ],
      "stateMutability": "nonpayable",
      "type": "function"
    },
    {
      "inputs": [
        {
          "internalType": "address",
          "name": "_route",
          "type": "address"
        }
      ],
      "name": "existEligibleRoute",
      "outputs": [
        {
          "internalType": "bool",
          "name": "",
          "type": "bool"
        }
      ],
      "stateMutability": "view",
      "type": "function"
    },
    {
      "inputs": [
        {
          "internalType": "address",
          "name": "_poolAddress",
          "type": "address"
        },
        {
          "internalType": "bool",
          "name": "_add",
          "type": "bool"
        }
      ],
      "name": "updateVolTradingPool",
      "outputs": [
        {
          "internalType": "bool",
          "name": "",
          "type": "bool"
        }
      ],
      "stateMutability": "nonpayable",
      "type": "function"
    },
    {
      "inputs": [
        {
          "internalType": "address",
          "name": "_poolAddress",
          "type": "address"
        }
      ],
      "name": "existVolTradingPool",
      "outputs": [
        {
          "internalType": "bool",
          "name": "",
          "type": "bool"
        }
      ],
      "stateMutability": "view",
      "type": "function"
    }
  ],
  "bytecode": "0x6101606040527f6e71edae12b1b97f4d1f60370fef10105fa2faae0126114a169c64845d6126c9610140908152506611c37937e080006012553480156200004557600080fd5b50604051620071883803806200718883398181016040528101906200006b919062000f01565b6040518060400160405280600581526020017f4d6f726574000000000000000000000000000000000000000000000000000000815250806040518060400160405280600181526020017f31000000000000000000000000000000000000000000000000000000000000008152506040518060400160405280600581526020017f4d6f7265740000000000000000000000000000000000000000000000000000008152506040518060400160405280600381526020017f4d4f52000000000000000000000000000000000000000000000000000000000081525081600390805190602001906200015c92919062000dd3565b5080600490805190602001906200017592919062000dd3565b505050620001986200018c620003a260201b60201c565b620003aa60201b60201c565b60008280519060200120905060008280519060200120905060007f8b73c3c69bb8fe3d512ecc4cf759cc79239f7b179b0ffacaa9a75d522b39400f90508260e081815250508161010081815250504660a08181525050620002018184846200047060201b60201c565b608081815250503073ffffffffffffffffffffffffffffffffffffffff1660c08173ffffffffffffffffffffffffffffffffffffffff168152505080610120818152505050505050505080601560006101000a81548173ffffffffffffffffffffffffffffffffffffffff021916908373ffffffffffffffffffffffffffffffffffffffff1602179055508073ffffffffffffffffffffffffffffffffffffffff1663cb4c86b76040518163ffffffff1660e01b8152600401602060405180830381865afa158015620002d8573d6000803e3d6000fd5b505050506040513d601f19601f82011682018060405250810190620002fe919062000f78565b601460006101000a81548173ffffffffffffffffffffffffffffffffffffffff021916908373ffffffffffffffffffffffffffffffffffffffff1602179055506200035a3369d3c21bcecceda1000000620004ac60201b60201c565b33601360006101000a81548173ffffffffffffffffffffffffffffffffffffffff021916908373ffffffffffffffffffffffffffffffffffffffff160217905550506200143d565b600033905090565b6000600560009054906101000a900473ffffffffffffffffffffffffffffffffffffffff16905081600560006101000a81548173ffffffffffffffffffffffffffffffffffffffff021916908373ffffffffffffffffffffffffffffffffffffffff1602179055508173ffffffffffffffffffffffffffffffffffffffff168173ffffffffffffffffffffffffffffffffffffffff167f8be0079c531659141344cd1fd0a4f28419497f9722a3daafe3b4186f6b6457e060405160405180910390a35050565b600083838346306040516020016200048d95949392919062000ff1565b6040516020818303038152906040528051906020012090509392505050565b620004c38282620004c760201b6200232a1760201c565b5050565b620004de82826200058560201b620023b71760201c565b620004ee620006fd60201b60201c565b7bffffffffffffffffffffffffffffffffffffffffffffffffffffffff166200051c6200072160201b60201c565b111562000560576040517f08c379a00000000000000000000000000000000000000000000000000000000081526004016200055790620010d5565b60405180910390fd5b6200057f60096200072b60201b6200251617836200074360201b60201c565b50505050565b600073ffffffffffffffffffffffffffffffffffffffff168273ffffffffffffffffffffffffffffffffffffffff1603620005f7576040517f08c379a0000000000000000000000000000000000000000000000000000000008152600401620005ee9062001147565b60405180910390fd5b6200060b60008383620009f460201b60201c565b80600260008282546200061f919062001198565b92505081905550806000808473ffffffffffffffffffffffffffffffffffffffff1673ffffffffffffffffffffffffffffffffffffffff168152602001908152602001600020600082825462000676919062001198565b925050819055508173ffffffffffffffffffffffffffffffffffffffff16600073ffffffffffffffffffffffffffffffffffffffff167fddf252ad1be2c89b69c2b068fc378daa952ba7f163c4a11628f55a4df523b3ef83604051620006dd9190620011f5565b60405180910390a3620006f960008383620009f960201b60201c565b5050565b60007bffffffffffffffffffffffffffffffffffffffffffffffffffffffff905090565b6000600254905090565b600081836200073b919062001198565b905092915050565b60008060008580549050905060008114620007b8578560018262000768919062001212565b815481106200077c576200077b6200124d565b5b9060005260206000200160000160049054906101000a90047bffffffffffffffffffffffffffffffffffffffffffffffffffffffff16620007bb565b60005b7bffffffffffffffffffffffffffffffffffffffffffffffffffffffff169250620007e783858760201c565b9150600081118015620008405750438660018362000806919062001212565b815481106200081a57620008196200124d565b5b9060005260206000200160000160009054906101000a900463ffffffff1663ffffffff16145b15620008e1576200085c8262000a1660201b6200252c1760201c565b866001836200086c919062001212565b8154811062000880576200087f6200124d565b5b9060005260206000200160000160046101000a8154817bffffffffffffffffffffffffffffffffffffffffffffffffffffffff02191690837bffffffffffffffffffffffffffffffffffffffffffffffffffffffff160217905550620009eb565b856040518060400160405280620009034362000a8460201b620025971760201c565b63ffffffff168152602001620009248562000a1660201b6200252c1760201c565b7bffffffffffffffffffffffffffffffffffffffffffffffffffffffff168152509080600181540180825580915050600190039060005260206000200160009091909190915060008201518160000160006101000a81548163ffffffff021916908363ffffffff16021790555060208201518160000160046101000a8154817bffffffffffffffffffffffffffffffffffffffffffffffffffffffff02191690837bffffffffffffffffffffffffffffffffffffffffffffffffffffffff16021790555050505b50935093915050565b505050565b62000a1183838362000ada60201b620025ea1760201c565b505050565b60007bffffffffffffffffffffffffffffffffffffffffffffffffffffffff801682111562000a7c576040517f08c379a000000000000000000000000000000000000000000000000000000000815260040162000a7390620012f2565b60405180910390fd5b819050919050565b600063ffffffff801682111562000ad2576040517f08c379a000000000000000000000000000000000000000000000000000000000815260040162000ac9906200138a565b60405180910390fd5b819050919050565b62000af283838362000b2a60201b620026151760201c565b62000b2562000b078462000b2f60201b60201c565b62000b188462000b2f60201b60201c565b8362000b9860201b60201c565b505050565b505050565b6000600760008373ffffffffffffffffffffffffffffffffffffffff1673ffffffffffffffffffffffffffffffffffffffff16815260200190815260200160002060009054906101000a900473ffffffffffffffffffffffffffffffffffffffff169050919050565b8173ffffffffffffffffffffffffffffffffffffffff168373ffffffffffffffffffffffffffffffffffffffff161415801562000bd55750600081115b1562000db657600073ffffffffffffffffffffffffffffffffffffffff168373ffffffffffffffffffffffffffffffffffffffff161462000cc85760008062000c6f600860008773ffffffffffffffffffffffffffffffffffffffff1673ffffffffffffffffffffffffffffffffffffffff16815260200190815260200160002062000dbb60201b6200261a17856200074360201b60201c565b915091508473ffffffffffffffffffffffffffffffffffffffff167fdec2bacdd2f05b59de34da9b523dff8be42e5e38e818c82fdb0bae774387a724838360405162000cbd929190620013ac565b60405180910390a250505b600073ffffffffffffffffffffffffffffffffffffffff168273ffffffffffffffffffffffffffffffffffffffff161462000db55760008062000d5c600860008673ffffffffffffffffffffffffffffffffffffffff1673ffffffffffffffffffffffffffffffffffffffff1681526020019081526020016000206200072b60201b6200251617856200074360201b60201c565b915091508373ffffffffffffffffffffffffffffffffffffffff167fdec2bacdd2f05b59de34da9b523dff8be42e5e38e818c82fdb0bae774387a724838360405162000daa929190620013ac565b60405180910390a250505b5b505050565b6000818362000dcb919062001212565b905092915050565b82805462000de19062001408565b90600052602060002090601f01602090048101928262000e05576000855562000e51565b82601f1062000e2057805160ff191683800117855562000e51565b8280016001018555821562000e51579182015b8281111562000e5057825182559160200191906001019062000e33565b5b50905062000e60919062000e64565b5090565b5b8082111562000e7f57600081600090555060010162000e65565b5090565b600080fd5b600073ffffffffffffffffffffffffffffffffffffffff82169050919050565b600062000eb58262000e88565b9050919050565b600062000ec98262000ea8565b9050919050565b62000edb8162000ebc565b811462000ee757600080fd5b50565b60008151905062000efb8162000ed0565b92915050565b60006020828403121562000f1a5762000f1962000e83565b5b600062000f2a8482850162000eea565b91505092915050565b600062000f408262000ea8565b9050919050565b62000f528162000f33565b811462000f5e57600080fd5b50565b60008151905062000f728162000f47565b92915050565b60006020828403121562000f915762000f9062000e83565b5b600062000fa18482850162000f61565b91505092915050565b6000819050919050565b62000fbf8162000faa565b82525050565b6000819050919050565b62000fda8162000fc5565b82525050565b62000feb8162000ea8565b82525050565b600060a08201905062001008600083018862000fb4565b62001017602083018762000fb4565b62001026604083018662000fb4565b62001035606083018562000fcf565b62001044608083018462000fe0565b9695505050505050565b600082825260208201905092915050565b7f4552433230566f7465733a20746f74616c20737570706c79207269736b73206f60008201527f766572666c6f77696e6720766f74657300000000000000000000000000000000602082015250565b6000620010bd6030836200104e565b9150620010ca826200105f565b604082019050919050565b60006020820190508181036000830152620010f081620010ae565b9050919050565b7f45524332303a206d696e7420746f20746865207a65726f206164647265737300600082015250565b60006200112f601f836200104e565b91506200113c82620010f7565b602082019050919050565b60006020820190508181036000830152620011628162001120565b9050919050565b7f4e487b7100000000000000000000000000000000000000000000000000000000600052601160045260246000fd5b6000620011a58262000fc5565b9150620011b28362000fc5565b9250827fffffffffffffffffffffffffffffffffffffffffffffffffffffffffffffffff03821115620011ea57620011e962001169565b5b828201905092915050565b60006020820190506200120c600083018462000fcf565b92915050565b60006200121f8262000fc5565b91506200122c8362000fc5565b92508282101562001242576200124162001169565b5b828203905092915050565b7f4e487b7100000000000000000000000000000000000000000000000000000000600052603260045260246000fd5b7f53616665436173743a2076616c756520646f65736e27742066697420696e203260008201527f3234206269747300000000000000000000000000000000000000000000000000602082015250565b6000620012da6027836200104e565b9150620012e7826200127c565b604082019050919050565b600060208201905081810360008301526200130d81620012cb565b9050919050565b7f53616665436173743a2076616c756520646f65736e27742066697420696e203360008201527f3220626974730000000000000000000000000000000000000000000000000000602082015250565b6000620013726026836200104e565b91506200137f8262001314565b604082019050919050565b60006020820190508181036000830152620013a58162001363565b9050919050565b6000604082019050620013c3600083018562000fcf565b620013d2602083018462000fcf565b9392505050565b7f4e487b7100000000000000000000000000000000000000000000000000000000600052602260045260246000fd5b600060028204905060018216806200142157607f821691505b602082108103620014375762001436620013d9565b5b50919050565b60805160a05160c05160e051610100516101205161014051615cf0620014986000396000611c2f01526000612bea01526000612c2c01526000612c0b01526000612b4001526000612b9601526000612bbf0152615cf06000f3fe608060405234801561001057600080fd5b50600436106102695760003560e01c80637ecebe0011610151578063bb3260e4116100c3578063d5fb0a2a11610087578063d5fb0a2a146107be578063dd62ed3e146107ee578063edabed8f1461081e578063ef5ddd3a1461083a578063f1127ed81461086a578063f2fde38b1461089a57610269565b8063bb3260e41461072e578063c3cda5201461074a578063c3f80bc414610766578063cb4c86b714610784578063d505accf146107a257610269565b806395d89b411161011557806395d89b41146106445780639ab24eb014610662578063a457c2d714610692578063a9059cbb146106c2578063abff0110146106f2578063b0e21e8a1461071057610269565b80637ecebe001461057a5780638ca17995146105aa5780638da5cb5b146105c65780638e539e8c146105e457806391d0094c1461061457610269565b80633a46b1a8116101ea5780636cce8916116101ae5780636cce8916146104a85780636fcfff45146104d857806370a0823114610508578063715018a614610538578063787dce3d146105425780637c4304ff1461055e57610269565b80633a46b1a8146103f257806340c10f1914610422578063587cde1e1461043e5780635c19a95c1461046e57806364df049e1461048a57610269565b806323b872dd1161023157806323b872dd14610326578063255fdcff14610356578063313ce567146103865780633644e515146103a457806339509351146103c257610269565b806306fdde031461026e57806307ba8a541461028c578063095ea7b3146102a857806315dc2e9d146102d857806318160ddd14610308575b600080fd5b6102766108b6565b6040516102839190613ec2565b60405180910390f35b6102a660048036038101906102a19190613f47565b610948565b005b6102c260048036038101906102bd9190613faa565b610a77565b6040516102cf9190614005565b60405180910390f35b6102f260048036038101906102ed9190613f47565b610a9a565b6040516102ff919061407f565b60405180910390f35b610310610bd0565b60405161031d91906140a9565b60405180910390f35b610340600480360381019061033b91906140c4565b610bda565b60405161034d9190614005565b60405180910390f35b610370600480360381019061036b9190613f47565b610c09565b60405161037d9190614005565b60405180910390f35b61038e610c26565b60405161039b9190614133565b60405180910390f35b6103ac610c2f565b6040516103b99190614167565b60405180910390f35b6103dc60048036038101906103d79190613faa565b610c3e565b6040516103e99190614005565b60405180910390f35b61040c60048036038101906104079190613faa565b610ce8565b60405161041991906140a9565b60405180910390f35b61043c60048036038101906104379190613faa565b610d7c565b005b61045860048036038101906104539190613f47565b610e1a565b6040516104659190614191565b60405180910390f35b61048860048036038101906104839190613f47565b610e83565b005b610492610e97565b60405161049f9190614191565b60405180910390f35b6104c260048036038101906104bd9190613faa565b610ebd565b6040516104cf91906141cd565b60405180910390f35b6104f260048036038101906104ed9190613f47565b610f62565b6040516104ff9190614207565b60405180910390f35b610522600480360381019061051d9190613f47565b610fb6565b60405161052f91906140a9565b60405180910390f35b610540610ffe565b005b61055c60048036038101906105579190614222565b611086565b005b6105786004803603810190610573919061428d565b611143565b005b610594600480360381019061058f9190613f47565b6112d7565b6040516105a191906140a9565b60405180910390f35b6105c460048036038101906105bf9190614222565b611327565b005b6105ce6114fa565b6040516105db9190614191565b60405180910390f35b6105fe60048036038101906105f99190614222565b611524565b60405161060b91906140a9565b60405180910390f35b61062e600480360381019061062991906142f9565b61157a565b60405161063b9190614005565b60405180910390f35b61064c6116a5565b6040516106599190613ec2565b60405180910390f35b61067c60048036038101906106779190613f47565b611737565b60405161068991906140a9565b60405180910390f35b6106ac60048036038101906106a79190613faa565b611848565b6040516106b99190614005565b60405180910390f35b6106dc60048036038101906106d79190613faa565b611932565b6040516106e99190614005565b60405180910390f35b6106fa611955565b604051610707919061435a565b60405180910390f35b61071861197b565b60405161072591906140a9565b60405180910390f35b610748600480360381019061074391906143b3565b611981565b005b610764600480360381019061075f919061444b565b611aad565b005b61076e611bb1565b60405161077b9190614596565b60405180910390f35b61078c611bc2565b60405161079991906145d9565b60405180910390f35b6107bc60048036038101906107b791906145f4565b611be8565b005b6107d860048036038101906107d39190613f47565b611d2a565b6040516107e59190614005565b60405180910390f35b61080860048036038101906108039190614696565b611d47565b60405161081591906140a9565b60405180910390f35b61083860048036038101906108339190614714565b611dce565b005b610854600480360381019061084f91906142f9565b611ff8565b6040516108619190614005565b60405180910390f35b610884600480360381019061087f9190614793565b612123565b6040516108919190614848565b60405180910390f35b6108b460048036038101906108af9190613f47565b612233565b005b6060600380546108c590614892565b80601f01602080910402602001604051908101604052809291908181526020018280546108f190614892565b801561093e5780601f106109135761010080835404028352916020019161093e565b820191906000526020600020905b81548152906001019060200180831161092157829003601f168201915b5050505050905090565b610950612630565b73ffffffffffffffffffffffffffffffffffffffff1661096e6114fa565b73ffffffffffffffffffffffffffffffffffffffff16146109c4576040517f08c379a00000000000000000000000000000000000000000000000000000000081526004016109bb9061490f565b60405180910390fd5b600073ffffffffffffffffffffffffffffffffffffffff168173ffffffffffffffffffffffffffffffffffffffff1603610a33576040517f08c379a0000000000000000000000000000000000000000000000000000000008152600401610a2a9061497b565b60405180910390fd5b80601360006101000a81548173ffffffffffffffffffffffffffffffffffffffff021916908373ffffffffffffffffffffffffffffffffffffffff16021790555050565b600080610a82612630565b9050610a8f818585612638565b600191505092915050565b60008073ffffffffffffffffffffffffffffffffffffffff16600c60008473ffffffffffffffffffffffffffffffffffffffff1673ffffffffffffffffffffffffffffffffffffffff16815260200190815260200160002060009054906101000a900473ffffffffffffffffffffffffffffffffffffffff1673ffffffffffffffffffffffffffffffffffffffff1603610b69576040517f08c379a0000000000000000000000000000000000000000000000000000000008152600401610b60906149e7565b60405180910390fd5b600c60008373ffffffffffffffffffffffffffffffffffffffff1673ffffffffffffffffffffffffffffffffffffffff16815260200190815260200160002060009054906101000a900473ffffffffffffffffffffffffffffffffffffffff169050919050565b6000600254905090565b600080610be5612630565b9050610bf2858285612801565b610bfd85858561288d565b60019150509392505050565b6000610c1f826010612b0c90919063ffffffff16565b9050919050565b60006012905090565b6000610c39612b3c565b905090565b600080610c49612630565b9050610cdd818585600160008673ffffffffffffffffffffffffffffffffffffffff1673ffffffffffffffffffffffffffffffffffffffff16815260200190815260200160002060008973ffffffffffffffffffffffffffffffffffffffff1673ffffffffffffffffffffffffffffffffffffffff16815260200190815260200160002054610cd89190614a36565b612638565b600191505092915050565b6000438210610d2c576040517f08c379a0000000000000000000000000000000000000000000000000000000008152600401610d2390614ad8565b60405180910390fd5b610d74600860008573ffffffffffffffffffffffffffffffffffffffff1673ffffffffffffffffffffffffffffffffffffffff16815260200190815260200160002083612c56565b905092915050565b3373ffffffffffffffffffffffffffffffffffffffff16601560009054906101000a900473ffffffffffffffffffffffffffffffffffffffff1673ffffffffffffffffffffffffffffffffffffffff1614610e0c576040517f08c379a0000000000000000000000000000000000000000000000000000000008152600401610e0390614b44565b60405180910390fd5b610e168282612d62565b5050565b6000600760008373ffffffffffffffffffffffffffffffffffffffff1673ffffffffffffffffffffffffffffffffffffffff16815260200190815260200160002060009054906101000a900473ffffffffffffffffffffffffffffffffffffffff169050919050565b610e94610e8e612630565b82612d70565b50565b601360009054906101000a900473ffffffffffffffffffffffffffffffffffffffff1681565b6000806000610f1384600d60008873ffffffffffffffffffffffffffffffffffffffff1673ffffffffffffffffffffffffffffffffffffffff168152602001908152602001600020612e8a90919063ffffffff16565b9150915081610f57576040517f08c379a0000000000000000000000000000000000000000000000000000000008152600401610f4e90614bb0565b60405180910390fd5b809250505092915050565b6000610faf600860008473ffffffffffffffffffffffffffffffffffffffff1673ffffffffffffffffffffffffffffffffffffffff16815260200190815260200160002080549050612597565b9050919050565b60008060008373ffffffffffffffffffffffffffffffffffffffff1673ffffffffffffffffffffffffffffffffffffffff168152602001908152602001600020549050919050565b611006612630565b73ffffffffffffffffffffffffffffffffffffffff166110246114fa565b73ffffffffffffffffffffffffffffffffffffffff161461107a576040517f08c379a00000000000000000000000000000000000000000000000000000000081526004016110719061490f565b60405180910390fd5b6110846000612eb6565b565b61108e612630565b73ffffffffffffffffffffffffffffffffffffffff166110ac6114fa565b73ffffffffffffffffffffffffffffffffffffffff1614611102576040517f08c379a00000000000000000000000000000000000000000000000000000000081526004016110f99061490f565b60405180910390fd5b806012819055507f29472a82a52b1caa40964580caee03ad34e2750d3051c517527a5ef27eb58b308160405161113891906140a9565b60405180910390a150565b61114b612630565b73ffffffffffffffffffffffffffffffffffffffff166111696114fa565b73ffffffffffffffffffffffffffffffffffffffff16146111bf576040517f08c379a00000000000000000000000000000000000000000000000000000000081526004016111b69061490f565b60405180910390fd5b8173ffffffffffffffffffffffffffffffffffffffff1663d2f7265a6040518163ffffffff1660e01b8152600401602060405180830381865afa15801561120a573d6000803e3d6000fd5b505050506040513d601f19601f8201168201806040525081019061122e9190614be5565b73ffffffffffffffffffffffffffffffffffffffff16639111fccd83836040518363ffffffff1660e01b8152600401611268929190614c33565b600060405180830381600087803b15801561128257600080fd5b505af1158015611296573d6000803e3d6000fd5b505050507ffb24c384840b912caf631799804e8d43a3950d690745f2b8501b47c8e8d90fd282826040516112cb929190614c5c565b60405180910390a15050565b6000611320600660008473ffffffffffffffffffffffffffffffffffffffff1673ffffffffffffffffffffffffffffffffffffffff168152602001908152602001600020612f7c565b9050919050565b60008173__MathLib_______________________________63b3947c179091601460009054906101000a900473ffffffffffffffffffffffffffffffffffffffff1673ffffffffffffffffffffffffffffffffffffffff166370a08231306040518263ffffffff1660e01b81526004016113a19190614191565b602060405180830381865afa1580156113be573d6000803e3d6000fd5b505050506040513d601f19601f820116820180604052508101906113e29190614c9a565b6113ea610bd0565b6040518463ffffffff1660e01b815260040161140893929190614cd6565b602060405180830381865af4158015611425573d6000803e3d6000fd5b505050506040513d601f19601f820116820180604052508101906114499190614c9a565b90506114553383612f8a565b601460009054906101000a900473ffffffffffffffffffffffffffffffffffffffff1673ffffffffffffffffffffffffffffffffffffffff1663a9059cbb33836040518363ffffffff1660e01b81526004016114b2929190614c5c565b6020604051808303816000875af11580156114d1573d6000803e3d6000fd5b505050506040513d601f19601f820116820180604052508101906114f59190614d22565b505050565b6000600560009054906101000a900473ffffffffffffffffffffffffffffffffffffffff16905090565b6000438210611568576040517f08c379a000000000000000000000000000000000000000000000000000000000815260040161155f90614ad8565b60405180910390fd5b611573600983612c56565b9050919050565b6000611584612630565b73ffffffffffffffffffffffffffffffffffffffff166115a26114fa565b73ffffffffffffffffffffffffffffffffffffffff16146115f8576040517f08c379a00000000000000000000000000000000000000000000000000000000081526004016115ef9061490f565b60405180910390fd5b600073ffffffffffffffffffffffffffffffffffffffff168373ffffffffffffffffffffffffffffffffffffffff1603611667576040517f08c379a000000000000000000000000000000000000000000000000000000000815260040161165e90614d9b565b60405180910390fd5b811561168857611681836010612f9890919063ffffffff16565b905061169f565b61169c836010612fc890919063ffffffff16565b90505b92915050565b6060600480546116b490614892565b80601f01602080910402602001604051908101604052809291908181526020018280546116e090614892565b801561172d5780601f106117025761010080835404028352916020019161172d565b820191906000526020600020905b81548152906001019060200180831161171057829003601f168201915b5050505050905090565b600080600860008473ffffffffffffffffffffffffffffffffffffffff1673ffffffffffffffffffffffffffffffffffffffff1681526020019081526020016000208054905090506000811461181f57600860008473ffffffffffffffffffffffffffffffffffffffff1673ffffffffffffffffffffffffffffffffffffffff1681526020019081526020016000206001826117d39190614dbb565b815481106117e4576117e3614def565b5b9060005260206000200160000160049054906101000a90047bffffffffffffffffffffffffffffffffffffffffffffffffffffffff16611822565b60005b7bffffffffffffffffffffffffffffffffffffffffffffffffffffffff16915050919050565b600080611853612630565b90506000600160008373ffffffffffffffffffffffffffffffffffffffff1673ffffffffffffffffffffffffffffffffffffffff16815260200190815260200160002060008673ffffffffffffffffffffffffffffffffffffffff1673ffffffffffffffffffffffffffffffffffffffff16815260200190815260200160002054905083811015611919576040517f08c379a000000000000000000000000000000000000000000000000000000000815260040161191090614e90565b60405180910390fd5b6119268286868403612638565b60019250505092915050565b60008061193d612630565b905061194a81858561288d565b600191505092915050565b601560009054906101000a900473ffffffffffffffffffffffffffffffffffffffff1681565b60125481565b611989612630565b73ffffffffffffffffffffffffffffffffffffffff166119a76114fa565b73ffffffffffffffffffffffffffffffffffffffff16146119fd576040517f08c379a00000000000000000000000000000000000000000000000000000000081526004016119f49061490f565b60405180910390fd5b611a1182600a612b0c90919063ffffffff16565b611a2b57611a2982600a612f9890919063ffffffff16565b505b80600c60008473ffffffffffffffffffffffffffffffffffffffff1673ffffffffffffffffffffffffffffffffffffffff16815260200190815260200160002060006101000a81548173ffffffffffffffffffffffffffffffffffffffff021916908373ffffffffffffffffffffffffffffffffffffffff1602179055505050565b83421115611af0576040517f08c379a0000000000000000000000000000000000000000000000000000000008152600401611ae790614efc565b60405180910390fd5b6000611b52611b4a7fe48329057bfd03d55e49b547132e39cffd9c1820ad7b9d4c5307691425d15adf898989604051602001611b2f9493929190614f1c565b60405160208183030381529060405280519060200120612ff8565b858585613012565b9050611b5d8161303d565b8614611b9e576040517f08c379a0000000000000000000000000000000000000000000000000000000008152600401611b9590614fad565b60405180910390fd5b611ba88188612d70565b50505050505050565b6060611bbd600a61309b565b905090565b601460009054906101000a900473ffffffffffffffffffffffffffffffffffffffff1681565b83421115611c2b576040517f08c379a0000000000000000000000000000000000000000000000000000000008152600401611c2290615019565b60405180910390fd5b60007f0000000000000000000000000000000000000000000000000000000000000000888888611c5a8c61303d565b89604051602001611c7096959493929190615039565b6040516020818303038152906040528051906020012090506000611c9382612ff8565b90506000611ca382878787613012565b90508973ffffffffffffffffffffffffffffffffffffffff168173ffffffffffffffffffffffffffffffffffffffff1614611d13576040517f08c379a0000000000000000000000000000000000000000000000000000000008152600401611d0a906150e6565b60405180910390fd5b611d1e8a8a8a612638565b50505050505050505050565b6000611d4082600e612b0c90919063ffffffff16565b9050919050565b6000600160008473ffffffffffffffffffffffffffffffffffffffff1673ffffffffffffffffffffffffffffffffffffffff16815260200190815260200160002060008373ffffffffffffffffffffffffffffffffffffffff1673ffffffffffffffffffffffffffffffffffffffff16815260200190815260200160002054905092915050565b611dd6612630565b73ffffffffffffffffffffffffffffffffffffffff16611df46114fa565b73ffffffffffffffffffffffffffffffffffffffff1614611e4a576040517f08c379a0000000000000000000000000000000000000000000000000000000008152600401611e419061490f565b60405180910390fd5b818173ffffffffffffffffffffffffffffffffffffffff1663a15612d16040518163ffffffff1660e01b8152600401602060405180830381865afa158015611e96573d6000803e3d6000fd5b505050506040513d601f19601f82011682018060405250810190611eba9190614c9a565b148015611f6057508273ffffffffffffffffffffffffffffffffffffffff168173ffffffffffffffffffffffffffffffffffffffff16636f307dc36040518163ffffffff1660e01b8152600401602060405180830381865afa158015611f24573d6000803e3d6000fd5b505050506040513d601f19601f82011682018060405250810190611f489190614be5565b73ffffffffffffffffffffffffffffffffffffffff16145b611f9f576040517f08c379a0000000000000000000000000000000000000000000000000000000008152600401611f9690615152565b60405180910390fd5b611ff28282600d60008773ffffffffffffffffffffffffffffffffffffffff1673ffffffffffffffffffffffffffffffffffffffff1681526020019081526020016000206130bc9092919063ffffffff16565b50505050565b6000612002612630565b73ffffffffffffffffffffffffffffffffffffffff166120206114fa565b73ffffffffffffffffffffffffffffffffffffffff1614612076576040517f08c379a000000000000000000000000000000000000000000000000000000000815260040161206d9061490f565b60405180910390fd5b600073ffffffffffffffffffffffffffffffffffffffff168373ffffffffffffffffffffffffffffffffffffffff16036120e5576040517f08c379a00000000000000000000000000000000000000000000000000000000081526004016120dc90614d9b565b60405180910390fd5b8115612106576120ff83600e612f9890919063ffffffff16565b905061211d565b61211a83600e612fc890919063ffffffff16565b90505b92915050565b61212b613deb565b600860008473ffffffffffffffffffffffffffffffffffffffff1673ffffffffffffffffffffffffffffffffffffffff1681526020019081526020016000208263ffffffff168154811061218257612181614def565b5b906000526020600020016040518060400160405290816000820160009054906101000a900463ffffffff1663ffffffff1663ffffffff1681526020016000820160049054906101000a90047bffffffffffffffffffffffffffffffffffffffffffffffffffffffff167bffffffffffffffffffffffffffffffffffffffffffffffffffffffff167bffffffffffffffffffffffffffffffffffffffffffffffffffffffff1681525050905092915050565b61223b612630565b73ffffffffffffffffffffffffffffffffffffffff166122596114fa565b73ffffffffffffffffffffffffffffffffffffffff16146122af576040517f08c379a00000000000000000000000000000000000000000000000000000000081526004016122a69061490f565b60405180910390fd5b600073ffffffffffffffffffffffffffffffffffffffff168173ffffffffffffffffffffffffffffffffffffffff160361231e576040517f08c379a0000000000000000000000000000000000000000000000000000000008152600401612315906151e4565b60405180910390fd5b61232781612eb6565b50565b61233482826123b7565b61233c6130f1565b7bffffffffffffffffffffffffffffffffffffffffffffffffffffffff16612362610bd0565b11156123a3576040517f08c379a000000000000000000000000000000000000000000000000000000000815260040161239a90615276565b60405180910390fd5b6123b1600961251683613115565b50505050565b600073ffffffffffffffffffffffffffffffffffffffff168273ffffffffffffffffffffffffffffffffffffffff1603612426576040517f08c379a000000000000000000000000000000000000000000000000000000000815260040161241d906152e2565b60405180910390fd5b6124326000838361338d565b80600260008282546124449190614a36565b92505081905550806000808473ffffffffffffffffffffffffffffffffffffffff1673ffffffffffffffffffffffffffffffffffffffff16815260200190815260200160002060008282546124999190614a36565b925050819055508173ffffffffffffffffffffffffffffffffffffffff16600073ffffffffffffffffffffffffffffffffffffffff167fddf252ad1be2c89b69c2b068fc378daa952ba7f163c4a11628f55a4df523b3ef836040516124fe91906140a9565b60405180910390a361251260008383613392565b5050565b600081836125249190614a36565b905092915050565b60007bffffffffffffffffffffffffffffffffffffffffffffffffffffffff801682111561258f576040517f08c379a000000000000000000000000000000000000000000000000000000000815260040161258690615374565b60405180910390fd5b819050919050565b600063ffffffff80168211156125e2576040517f08c379a00000000000000000000000000000000000000000000000000000000081526004016125d990615406565b60405180910390fd5b819050919050565b6125f5838383612615565b61261061260184610e1a565b61260a84610e1a565b836133a2565b505050565b505050565b600081836126289190614dbb565b905092915050565b600033905090565b600073ffffffffffffffffffffffffffffffffffffffff168373ffffffffffffffffffffffffffffffffffffffff16036126a7576040517f08c379a000000000000000000000000000000000000000000000000000000000815260040161269e90615498565b60405180910390fd5b600073ffffffffffffffffffffffffffffffffffffffff168273ffffffffffffffffffffffffffffffffffffffff1603612716576040517f08c379a000000000000000000000000000000000000000000000000000000000815260040161270d9061552a565b60405180910390fd5b80600160008573ffffffffffffffffffffffffffffffffffffffff1673ffffffffffffffffffffffffffffffffffffffff16815260200190815260200160002060008473ffffffffffffffffffffffffffffffffffffffff1673ffffffffffffffffffffffffffffffffffffffff168152602001908152602001600020819055508173ffffffffffffffffffffffffffffffffffffffff168373ffffffffffffffffffffffffffffffffffffffff167f8c5be1e5ebec7d5bd14f71427d1e84f3dd0314c0f7b2291e5b200ac8c7c3b925836040516127f491906140a9565b60405180910390a3505050565b600061280d8484611d47565b90507fffffffffffffffffffffffffffffffffffffffffffffffffffffffffffffffff81146128875781811015612879576040517f08c379a000000000000000000000000000000000000000000000000000000000815260040161287090615596565b60405180910390fd5b6128868484848403612638565b5b50505050565b600073ffffffffffffffffffffffffffffffffffffffff168373ffffffffffffffffffffffffffffffffffffffff16036128fc576040517f08c379a00000000000000000000000000000000000000000000000000000000081526004016128f390615628565b60405180910390fd5b600073ffffffffffffffffffffffffffffffffffffffff168273ffffffffffffffffffffffffffffffffffffffff160361296b576040517f08c379a0000000000000000000000000000000000000000000000000000000008152600401612962906156ba565b60405180910390fd5b61297683838361338d565b60008060008573ffffffffffffffffffffffffffffffffffffffff1673ffffffffffffffffffffffffffffffffffffffff168152602001908152602001600020549050818110156129fc576040517f08c379a00000000000000000000000000000000000000000000000000000000081526004016129f39061574c565b60405180910390fd5b8181036000808673ffffffffffffffffffffffffffffffffffffffff1673ffffffffffffffffffffffffffffffffffffffff16815260200190815260200160002081905550816000808573ffffffffffffffffffffffffffffffffffffffff1673ffffffffffffffffffffffffffffffffffffffff1681526020019081526020016000206000828254612a8f9190614a36565b925050819055508273ffffffffffffffffffffffffffffffffffffffff168473ffffffffffffffffffffffffffffffffffffffff167fddf252ad1be2c89b69c2b068fc378daa952ba7f163c4a11628f55a4df523b3ef84604051612af391906140a9565b60405180910390a3612b06848484613392565b50505050565b6000612b34836000018373ffffffffffffffffffffffffffffffffffffffff1660001b61359b565b905092915050565b60007f000000000000000000000000000000000000000000000000000000000000000073ffffffffffffffffffffffffffffffffffffffff163073ffffffffffffffffffffffffffffffffffffffff16148015612bb857507f000000000000000000000000000000000000000000000000000000000000000046145b15612be5577f00000000000000000000000000000000000000000000000000000000000000009050612c53565b612c507f00000000000000000000000000000000000000000000000000000000000000007f00000000000000000000000000000000000000000000000000000000000000007f00000000000000000000000000000000000000000000000000000000000000006135be565b90505b90565b6000808380549050905060005b81811015612cd5576000612c7782846135f8565b905084868281548110612c8d57612c8c614def565b5b9060005260206000200160000160009054906101000a900463ffffffff1663ffffffff161115612cbf57809250612ccf565b600181612ccc9190614a36565b91505b50612c63565b60008214612d375784600183612ceb9190614dbb565b81548110612cfc57612cfb614def565b5b9060005260206000200160000160049054906101000a90047bffffffffffffffffffffffffffffffffffffffffffffffffffffffff16612d3a565b60005b7bffffffffffffffffffffffffffffffffffffffffffffffffffffffff169250505092915050565b612d6c828261232a565b5050565b6000612d7b83610e1a565b90506000612d8884610fb6565b905082600760008673ffffffffffffffffffffffffffffffffffffffff1673ffffffffffffffffffffffffffffffffffffffff16815260200190815260200160002060006101000a81548173ffffffffffffffffffffffffffffffffffffffff021916908373ffffffffffffffffffffffffffffffffffffffff1602179055508273ffffffffffffffffffffffffffffffffffffffff168273ffffffffffffffffffffffffffffffffffffffff168573ffffffffffffffffffffffffffffffffffffffff167f3134e8a2e6d97e929a7e54011ea5485d7d196dd5f0ba4d4ef95803e8e3fc257f60405160405180910390a4612e848284836133a2565b50505050565b600080600080612ea0866000018660001b61361e565b91509150818160001c9350935050509250929050565b6000600560009054906101000a900473ffffffffffffffffffffffffffffffffffffffff16905081600560006101000a81548173ffffffffffffffffffffffffffffffffffffffff021916908373ffffffffffffffffffffffffffffffffffffffff1602179055508173ffffffffffffffffffffffffffffffffffffffff168173ffffffffffffffffffffffffffffffffffffffff167f8be0079c531659141344cd1fd0a4f28419497f9722a3daafe3b4186f6b6457e060405160405180910390a35050565b600081600001549050919050565b612f94828261366d565b5050565b6000612fc0836000018373ffffffffffffffffffffffffffffffffffffffff1660001b61368b565b905092915050565b6000612ff0836000018373ffffffffffffffffffffffffffffffffffffffff1660001b6136fb565b905092915050565b600061300b613005612b3c565b8361380f565b9050919050565b600080600061302387878787613842565b915091506130308161394e565b8192505050949350505050565b600080600660008473ffffffffffffffffffffffffffffffffffffffff1673ffffffffffffffffffffffffffffffffffffffff168152602001908152602001600020905061308a81612f7c565b915061309581613b1a565b50919050565b606060006130ab83600001613b30565b905060608190508092505050919050565b60006130e8846000018460001b8473ffffffffffffffffffffffffffffffffffffffff1660001b613b8c565b90509392505050565b60007bffffffffffffffffffffffffffffffffffffffffffffffffffffffff905090565b6000806000858054905090506000811461318357856001826131379190614dbb565b8154811061314857613147614def565b5b9060005260206000200160000160049054906101000a90047bffffffffffffffffffffffffffffffffffffffffffffffffffffffff16613186565b60005b7bffffffffffffffffffffffffffffffffffffffffffffffffffffffff1692506131b483858763ffffffff16565b9150600081118015613207575043866001836131d09190614dbb565b815481106131e1576131e0614def565b5b9060005260206000200160000160009054906101000a900463ffffffff1663ffffffff16145b15613294576132158261252c565b866001836132239190614dbb565b8154811061323457613233614def565b5b9060005260206000200160000160046101000a8154817bffffffffffffffffffffffffffffffffffffffffffffffffffffffff02191690837bffffffffffffffffffffffffffffffffffffffffffffffffffffffff160217905550613384565b8560405180604001604052806132a943612597565b63ffffffff1681526020016132bd8561252c565b7bffffffffffffffffffffffffffffffffffffffffffffffffffffffff168152509080600181540180825580915050600190039060005260206000200160009091909190915060008201518160000160006101000a81548163ffffffff021916908363ffffffff16021790555060208201518160000160046101000a8154817bffffffffffffffffffffffffffffffffffffffffffffffffffffffff02191690837bffffffffffffffffffffffffffffffffffffffffffffffffffffffff16021790555050505b50935093915050565b505050565b61339d8383836125ea565b505050565b8173ffffffffffffffffffffffffffffffffffffffff168373ffffffffffffffffffffffffffffffffffffffff16141580156133de5750600081115b1561359657600073ffffffffffffffffffffffffffffffffffffffff168373ffffffffffffffffffffffffffffffffffffffff16146134bc57600080613465600860008773ffffffffffffffffffffffffffffffffffffffff1673ffffffffffffffffffffffffffffffffffffffff16815260200190815260200160002061261a85613115565b915091508473ffffffffffffffffffffffffffffffffffffffff167fdec2bacdd2f05b59de34da9b523dff8be42e5e38e818c82fdb0bae774387a72483836040516134b192919061576c565b60405180910390a250505b600073ffffffffffffffffffffffffffffffffffffffff168273ffffffffffffffffffffffffffffffffffffffff16146135955760008061353e600860008673ffffffffffffffffffffffffffffffffffffffff1673ffffffffffffffffffffffffffffffffffffffff16815260200190815260200160002061251685613115565b915091508373ffffffffffffffffffffffffffffffffffffffff167fdec2bacdd2f05b59de34da9b523dff8be42e5e38e818c82fdb0bae774387a724838360405161358a92919061576c565b60405180910390a250505b5b505050565b600080836001016000848152602001908152602001600020541415905092915050565b600083838346306040516020016135d9959493929190615795565b6040516020818303038152906040528051906020012090509392505050565b600060028284186136099190615817565b8284166136169190614a36565b905092915050565b60008060008460020160008581526020019081526020016000205490506000801b810361365d5761364f8585613bc7565b6000801b9250925050613666565b60018192509250505b9250929050565b6136778282613be7565b613685600961261a83613115565b50505050565b6000613697838361359b565b6136f05782600001829080600181540180825580915050600190039060005260206000200160009091909190915055826000018054905083600101600084815260200190815260200160002081905550600190506136f5565b600090505b92915050565b6000808360010160008481526020019081526020016000205490506000811461380357600060018261372d9190614dbb565b90506000600186600001805490506137459190614dbb565b90508181146137b457600086600001828154811061376657613765614def565b5b906000526020600020015490508087600001848154811061378a57613789614def565b5b90600052602060002001819055508387600101600083815260200190815260200160002081905550505b856000018054806137c8576137c7615848565b5b600190038181906000526020600020016000905590558560010160008681526020019081526020016000206000905560019350505050613809565b60009150505b92915050565b600082826040516020016138249291906158ef565b60405160208183030381529060405280519060200120905092915050565b6000807f7fffffffffffffffffffffffffffffff5d576e7357a4501ddfe92f46681b20a08360001c111561387d576000600391509150613945565b601b8560ff16141580156138955750601c8560ff1614155b156138a7576000600491509150613945565b6000600187878787604051600081526020016040526040516138cc9493929190615926565b6020604051602081039080840390855afa1580156138ee573d6000803e3d6000fd5b505050602060405103519050600073ffffffffffffffffffffffffffffffffffffffff168173ffffffffffffffffffffffffffffffffffffffff160361393c57600060019250925050613945565b80600092509250505b94509492505050565b600060048111156139625761396161596b565b5b8160048111156139755761397461596b565b5b0315613b17576001600481111561398f5761398e61596b565b5b8160048111156139a2576139a161596b565b5b036139e2576040517f08c379a00000000000000000000000000000000000000000000000000000000081526004016139d9906159e6565b60405180910390fd5b600260048111156139f6576139f561596b565b5b816004811115613a0957613a0861596b565b5b03613a49576040517f08c379a0000000000000000000000000000000000000000000000000000000008152600401613a4090615a52565b60405180910390fd5b60036004811115613a5d57613a5c61596b565b5b816004811115613a7057613a6f61596b565b5b03613ab0576040517f08c379a0000000000000000000000000000000000000000000000000000000008152600401613aa790615ae4565b60405180910390fd5b600480811115613ac357613ac261596b565b5b816004811115613ad657613ad561596b565b5b03613b16576040517f08c379a0000000000000000000000000000000000000000000000000000000008152600401613b0d90615b76565b60405180910390fd5b5b50565b6001816000016000828254019250508190555050565b606081600001805480602002602001604051908101604052809291908181526020018280548015613b8057602002820191906000526020600020905b815481526020019060010190808311613b6c575b50505050509050919050565b60008184600201600085815260200190815260200160002081905550613bbe8385600001613dbd90919063ffffffff16565b90509392505050565b6000613bdf8284600001613dd490919063ffffffff16565b905092915050565b600073ffffffffffffffffffffffffffffffffffffffff168273ffffffffffffffffffffffffffffffffffffffff1603613c56576040517f08c379a0000000000000000000000000000000000000000000000000000000008152600401613c4d90615c08565b60405180910390fd5b613c628260008361338d565b60008060008473ffffffffffffffffffffffffffffffffffffffff1673ffffffffffffffffffffffffffffffffffffffff16815260200190815260200160002054905081811015613ce8576040517f08c379a0000000000000000000000000000000000000000000000000000000008152600401613cdf90615c9a565b60405180910390fd5b8181036000808573ffffffffffffffffffffffffffffffffffffffff1673ffffffffffffffffffffffffffffffffffffffff168152602001908152602001600020819055508160026000828254613d3f9190614dbb565b92505081905550600073ffffffffffffffffffffffffffffffffffffffff168373ffffffffffffffffffffffffffffffffffffffff167fddf252ad1be2c89b69c2b068fc378daa952ba7f163c4a11628f55a4df523b3ef84604051613da491906140a9565b60405180910390a3613db883600084613392565b505050565b6000613dcc836000018361368b565b905092915050565b6000613de3836000018361359b565b905092915050565b6040518060400160405280600063ffffffff16815260200160007bffffffffffffffffffffffffffffffffffffffffffffffffffffffff1681525090565b600081519050919050565b600082825260208201905092915050565b60005b83811015613e63578082015181840152602081019050613e48565b83811115613e72576000848401525b50505050565b6000601f19601f8301169050919050565b6000613e9482613e29565b613e9e8185613e34565b9350613eae818560208601613e45565b613eb781613e78565b840191505092915050565b60006020820190508181036000830152613edc8184613e89565b905092915050565b600080fd5b600073ffffffffffffffffffffffffffffffffffffffff82169050919050565b6000613f1482613ee9565b9050919050565b613f2481613f09565b8114613f2f57600080fd5b50565b600081359050613f4181613f1b565b92915050565b600060208284031215613f5d57613f5c613ee4565b5b6000613f6b84828501613f32565b91505092915050565b6000819050919050565b613f8781613f74565b8114613f9257600080fd5b50565b600081359050613fa481613f7e565b92915050565b60008060408385031215613fc157613fc0613ee4565b5b6000613fcf85828601613f32565b9250506020613fe085828601613f95565b9150509250929050565b60008115159050919050565b613fff81613fea565b82525050565b600060208201905061401a6000830184613ff6565b92915050565b6000819050919050565b600061404561404061403b84613ee9565b614020565b613ee9565b9050919050565b60006140578261402a565b9050919050565b60006140698261404c565b9050919050565b6140798161405e565b82525050565b60006020820190506140946000830184614070565b92915050565b6140a381613f74565b82525050565b60006020820190506140be600083018461409a565b92915050565b6000806000606084860312156140dd576140dc613ee4565b5b60006140eb86828701613f32565b93505060206140fc86828701613f32565b925050604061410d86828701613f95565b9150509250925092565b600060ff82169050919050565b61412d81614117565b82525050565b60006020820190506141486000830184614124565b92915050565b6000819050919050565b6141618161414e565b82525050565b600060208201905061417c6000830184614158565b92915050565b61418b81613f09565b82525050565b60006020820190506141a66000830184614182565b92915050565b60006141b78261404c565b9050919050565b6141c7816141ac565b82525050565b60006020820190506141e260008301846141be565b92915050565b600063ffffffff82169050919050565b614201816141e8565b82525050565b600060208201905061421c60008301846141f8565b92915050565b60006020828403121561423857614237613ee4565b5b600061424684828501613f95565b91505092915050565b600061425a82613f09565b9050919050565b61426a8161424f565b811461427557600080fd5b50565b60008135905061428781614261565b92915050565b600080604083850312156142a4576142a3613ee4565b5b60006142b285828601614278565b92505060206142c385828601613f95565b9150509250929050565b6142d681613fea565b81146142e157600080fd5b50565b6000813590506142f3816142cd565b92915050565b600080604083850312156143105761430f613ee4565b5b600061431e85828601613f32565b925050602061432f858286016142e4565b9150509250929050565b60006143448261404c565b9050919050565b61435481614339565b82525050565b600060208201905061436f600083018461434b565b92915050565b600061438082613f09565b9050919050565b61439081614375565b811461439b57600080fd5b50565b6000813590506143ad81614387565b92915050565b600080604083850312156143ca576143c9613ee4565b5b60006143d885828601613f32565b92505060206143e98582860161439e565b9150509250929050565b6143fc81614117565b811461440757600080fd5b50565b600081359050614419816143f3565b92915050565b6144288161414e565b811461443357600080fd5b50565b6000813590506144458161441f565b92915050565b60008060008060008060c0878903121561446857614467613ee4565b5b600061447689828a01613f32565b965050602061448789828a01613f95565b955050604061449889828a01613f95565b94505060606144a989828a0161440a565b93505060806144ba89828a01614436565b92505060a06144cb89828a01614436565b9150509295509295509295565b600081519050919050565b600082825260208201905092915050565b6000819050602082019050919050565b61450d81613f09565b82525050565b600061451f8383614504565b60208301905092915050565b6000602082019050919050565b6000614543826144d8565b61454d81856144e3565b9350614558836144f4565b8060005b838110156145895781516145708882614513565b975061457b8361452b565b92505060018101905061455c565b5085935050505092915050565b600060208201905081810360008301526145b08184614538565b905092915050565b60006145c38261404c565b9050919050565b6145d3816145b8565b82525050565b60006020820190506145ee60008301846145ca565b92915050565b600080600080600080600060e0888a03121561461357614612613ee4565b5b60006146218a828b01613f32565b97505060206146328a828b01613f32565b96505060406146438a828b01613f95565b95505060606146548a828b01613f95565b94505060806146658a828b0161440a565b93505060a06146768a828b01614436565b92505060c06146878a828b01614436565b91505092959891949750929550565b600080604083850312156146ad576146ac613ee4565b5b60006146bb85828601613f32565b92505060206146cc85828601613f32565b9150509250929050565b60006146e182613f09565b9050919050565b6146f1816146d6565b81146146fc57600080fd5b50565b60008135905061470e816146e8565b92915050565b60008060006060848603121561472d5761472c613ee4565b5b600061473b86828701613f32565b935050602061474c86828701613f95565b925050604061475d868287016146ff565b9150509250925092565b614770816141e8565b811461477b57600080fd5b50565b60008135905061478d81614767565b92915050565b600080604083850312156147aa576147a9613ee4565b5b60006147b885828601613f32565b92505060206147c98582860161477e565b9150509250929050565b6147dc816141e8565b82525050565b60007bffffffffffffffffffffffffffffffffffffffffffffffffffffffff82169050919050565b614813816147e2565b82525050565b60408201600082015161482f60008501826147d3565b506020820151614842602085018261480a565b50505050565b600060408201905061485d6000830184614819565b92915050565b7f4e487b7100000000000000000000000000000000000000000000000000000000600052602260045260246000fd5b600060028204905060018216806148aa57607f821691505b6020821081036148bd576148bc614863565b5b50919050565b7f4f776e61626c653a2063616c6c6572206973206e6f7420746865206f776e6572600082015250565b60006148f9602083613e34565b9150614904826148c3565b602082019050919050565b60006020820190508181036000830152614928816148ec565b9050919050565b7f506172616d20746f6f2062696700000000000000000000000000000000000000600082015250565b6000614965600d83613e34565b91506149708261492f565b602082019050919050565b6000602082019050818103600083015261499481614958565b9050919050565b7f4f7261636c65206e6f7420726567697374657265640000000000000000000000600082015250565b60006149d1601583613e34565b91506149dc8261499b565b602082019050919050565b60006020820190508181036000830152614a00816149c4565b9050919050565b7f4e487b7100000000000000000000000000000000000000000000000000000000600052601160045260246000fd5b6000614a4182613f74565b9150614a4c83613f74565b9250827fffffffffffffffffffffffffffffffffffffffffffffffffffffffffffffffff03821115614a8157614a80614a07565b5b828201905092915050565b7f4552433230566f7465733a20626c6f636b206e6f7420796574206d696e656400600082015250565b6000614ac2601f83613e34565b9150614acd82614a8c565b602082019050919050565b60006020820190508181036000830152614af181614ab5565b9050919050565b7f62726f6b6572206f6e6c79000000000000000000000000000000000000000000600082015250565b6000614b2e600b83613e34565b9150614b3982614af8565b602082019050919050565b60006020820190508181036000830152614b5d81614b21565b9050919050565b7f6e6f20766f6c20746f6b656e0000000000000000000000000000000000000000600082015250565b6000614b9a600c83613e34565b9150614ba582614b64565b602082019050919050565b60006020820190508181036000830152614bc981614b8d565b9050919050565b600081519050614bdf81613f1b565b92915050565b600060208284031215614bfb57614bfa613ee4565b5b6000614c0984828501614bd0565b91505092915050565b6000614c1d8261404c565b9050919050565b614c2d81614c12565b82525050565b6000604082019050614c486000830185614c24565b614c55602083018461409a565b9392505050565b6000604082019050614c716000830185614182565b614c7e602083018461409a565b9392505050565b600081519050614c9481613f7e565b92915050565b600060208284031215614cb057614caf613ee4565b5b6000614cbe84828501614c85565b91505092915050565b614cd081613f74565b82525050565b6000606082019050614ceb6000830186614cc7565b614cf86020830185614cc7565b614d056040830184614cc7565b949350505050565b600081519050614d1c816142cd565b92915050565b600060208284031215614d3857614d37613ee4565b5b6000614d4684828501614d0d565b91505092915050565b7f656d707479206164647265737300000000000000000000000000000000000000600082015250565b6000614d85600d83613e34565b9150614d9082614d4f565b602082019050919050565b60006020820190508181036000830152614db481614d78565b9050919050565b6000614dc682613f74565b9150614dd183613f74565b925082821015614de457614de3614a07565b5b828203905092915050565b7f4e487b7100000000000000000000000000000000000000000000000000000000600052603260045260246000fd5b7f45524332303a2064656372656173656420616c6c6f77616e63652062656c6f7760008201527f207a65726f000000000000000000000000000000000000000000000000000000602082015250565b6000614e7a602583613e34565b9150614e8582614e1e565b604082019050919050565b60006020820190508181036000830152614ea981614e6d565b9050919050565b7f4552433230566f7465733a207369676e61747572652065787069726564000000600082015250565b6000614ee6601d83613e34565b9150614ef182614eb0565b602082019050919050565b60006020820190508181036000830152614f1581614ed9565b9050919050565b6000608082019050614f316000830187614158565b614f3e6020830186614182565b614f4b604083018561409a565b614f58606083018461409a565b95945050505050565b7f4552433230566f7465733a20696e76616c6964206e6f6e636500000000000000600082015250565b6000614f97601983613e34565b9150614fa282614f61565b602082019050919050565b60006020820190508181036000830152614fc681614f8a565b9050919050565b7f45524332305065726d69743a206578706972656420646561646c696e65000000600082015250565b6000615003601d83613e34565b915061500e82614fcd565b602082019050919050565b6000602082019050818103600083015261503281614ff6565b9050919050565b600060c08201905061504e6000830189614158565b61505b6020830188614182565b6150686040830187614182565b615075606083018661409a565b615082608083018561409a565b61508f60a083018461409a565b979650505050505050565b7f45524332305065726d69743a20696e76616c6964207369676e61747572650000600082015250565b60006150d0601e83613e34565b91506150db8261509a565b602082019050919050565b600060208201905081810360008301526150ff816150c3565b9050919050565b7f7856000000000000000000000000000000000000000000000000000000000000600082015250565b600061513c600283613e34565b915061514782615106565b602082019050919050565b6000602082019050818103600083015261516b8161512f565b9050919050565b7f4f776e61626c653a206e6577206f776e657220697320746865207a65726f206160008201527f6464726573730000000000000000000000000000000000000000000000000000602082015250565b60006151ce602683613e34565b91506151d982615172565b604082019050919050565b600060208201905081810360008301526151fd816151c1565b9050919050565b7f4552433230566f7465733a20746f74616c20737570706c79207269736b73206f60008201527f766572666c6f77696e6720766f74657300000000000000000000000000000000602082015250565b6000615260603083613e34565b915061526b82615204565b604082019050919050565b6000602082019050818103600083015261528f81615253565b9050919050565b7f45524332303a206d696e7420746f20746865207a65726f206164647265737300600082015250565b60006152cc601f83613e34565b91506152d782615296565b602082019050919050565b600060208201905081810360008301526152fb816152bf565b9050919050565b7f53616665436173743a2076616c756520646f65736e27742066697420696e203260008201527f3234206269747300000000000000000000000000000000000000000000000000602082015250565b600061535e602783613e34565b915061536982615302565b604082019050919050565b6000602082019050818103600083015261538d81615351565b9050919050565b7f53616665436173743a2076616c756520646f65736e27742066697420696e203360008201527f3220626974730000000000000000000000000000000000000000000000000000602082015250565b60006153f0602683613e34565b91506153fb82615394565b604082019050919050565b6000602082019050818103600083015261541f816153e3565b9050919050565b7f45524332303a20617070726f76652066726f6d20746865207a65726f2061646460008201527f7265737300000000000000000000000000000000000000000000000000000000602082015250565b6000615482602483613e34565b915061548d82615426565b604082019050919050565b600060208201905081810360008301526154b181615475565b9050919050565b7f45524332303a20617070726f766520746f20746865207a65726f20616464726560008201527f7373000000000000000000000000000000000000000000000000000000000000602082015250565b6000615514602283613e34565b915061551f826154b8565b604082019050919050565b6000602082019050818103600083015261554381615507565b9050919050565b7f45524332303a20696e73756666696369656e7420616c6c6f77616e6365000000600082015250565b6000615580601d83613e34565b915061558b8261554a565b602082019050919050565b600060208201905081810360008301526155af81615573565b9050919050565b7f45524332303a207472616e736665722066726f6d20746865207a65726f20616460008201527f6472657373000000000000000000000000000000000000000000000000000000602082015250565b6000615612602583613e34565b915061561d826155b6565b604082019050919050565b6000602082019050818103600083015261564181615605565b9050919050565b7f45524332303a207472616e7366657220746f20746865207a65726f206164647260008201527f6573730000000000000000000000000000000000000000000000000000000000602082015250565b60006156a4602383613e34565b91506156af82615648565b604082019050919050565b600060208201905081810360008301526156d381615697565b9050919050565b7f45524332303a207472616e7366657220616d6f756e742065786365656473206260008201527f616c616e63650000000000000000000000000000000000000000000000000000602082015250565b6000615736602683613e34565b9150615741826156da565b604082019050919050565b6000602082019050818103600083015261576581615729565b9050919050565b6000604082019050615781600083018561409a565b61578e602083018461409a565b9392505050565b600060a0820190506157aa6000830188614158565b6157b76020830187614158565b6157c46040830186614158565b6157d1606083018561409a565b6157de6080830184614182565b9695505050505050565b7f4e487b7100000000000000000000000000000000000000000000000000000000600052601260045260246000fd5b600061582282613f74565b915061582d83613f74565b92508261583d5761583c6157e8565b5b828204905092915050565b7f4e487b7100000000000000000000000000000000000000000000000000000000600052603160045260246000fd5b600081905092915050565b7f1901000000000000000000000000000000000000000000000000000000000000600082015250565b60006158b8600283615877565b91506158c382615882565b600282019050919050565b6000819050919050565b6158e96158e48261414e565b6158ce565b82525050565b60006158fa826158ab565b915061590682856158d8565b60208201915061591682846158d8565b6020820191508190509392505050565b600060808201905061593b6000830187614158565b6159486020830186614124565b6159556040830185614158565b6159626060830184614158565b95945050505050565b7f4e487b7100000000000000000000000000000000000000000000000000000000600052602160045260246000fd5b7f45434453413a20696e76616c6964207369676e61747572650000000000000000600082015250565b60006159d0601883613e34565b91506159db8261599a565b602082019050919050565b600060208201905081810360008301526159ff816159c3565b9050919050565b7f45434453413a20696e76616c6964207369676e6174757265206c656e67746800600082015250565b6000615a3c601f83613e34565b9150615a4782615a06565b602082019050919050565b60006020820190508181036000830152615a6b81615a2f565b9050919050565b7f45434453413a20696e76616c6964207369676e6174757265202773272076616c60008201527f7565000000000000000000000000000000000000000000000000000000000000602082015250565b6000615ace602283613e34565b9150615ad982615a72565b604082019050919050565b60006020820190508181036000830152615afd81615ac1565b9050919050565b7f45434453413a20696e76616c6964207369676e6174757265202776272076616c60008201527f7565000000000000000000000000000000000000000000000000000000000000602082015250565b6000615b60602283613e34565b9150615b6b82615b04565b604082019050919050565b60006020820190508181036000830152615b8f81615b53565b9050919050565b7f45524332303a206275726e2066726f6d20746865207a65726f2061646472657360008201527f7300000000000000000000000000000000000000000000000000000000000000602082015250565b6000615bf2602183613e34565b9150615bfd82615b96565b604082019050919050565b60006020820190508181036000830152615c2181615be5565b9050919050565b7f45524332303a206275726e20616d6f756e7420657863656564732062616c616e60008201527f6365000000000000000000000000000000000000000000000000000000000000602082015250565b6000615c84602283613e34565b9150615c8f82615c28565b604082019050919050565b60006020820190508181036000830152615cb381615c77565b905091905056fea264697066735822122049f7dbd62374dadf979f929292856ba88e5ca5c0799ccc19c007c23bbd4a270364736f6c634300080d0033",
  "immutableReferences": {
    "4803": [
      {
        "length": 32,
        "start": 7215
      }
    ],
    "6312": [
      {
        "length": 32,
        "start": 11199
      }
    ],
    "6314": [
      {
        "length": 32,
        "start": 11158
      }
    ],
    "6316": [
      {
        "length": 32,
        "start": 11072
      }
    ],
    "6318": [
      {
        "length": 32,
        "start": 11275
      }
    ],
    "6320": [
      {
        "length": 32,
        "start": 11308
      }
    ],
    "6322": [
      {
        "length": 32,
        "start": 11242
      }
    ]
  },
  "source": "// SPDX-License-Identifier: MIT\npragma solidity ^0.8.4;\n\nimport \"@openzeppelin/contracts/token/ERC20/ERC20.sol\";\nimport \"@openzeppelin/contracts/access/Ownable.sol\";\nimport \"@openzeppelin/contracts/token/ERC20/extensions/draft-ERC20Permit.sol\";\nimport \"@openzeppelin/contracts/token/ERC20/extensions/ERC20Votes.sol\";\nimport \"@openzeppelin/contracts/utils/structs/EnumerableMap.sol\";\nimport \"@openzeppelin/contracts/utils/structs/EnumerableSet.sol\";\nimport \"../pools/Pool.sol\";\nimport \"../libraries/MathLib.sol\";\nimport \"../interfaces/EMoret.sol\";\nimport \"../VolatilityChain.sol\";\nimport \"../VolatilityToken.sol\";\nimport \"../Exchange.sol\";\nimport \"./MoretBroker.sol\";\n\n/// @custom:security-contact eight@moret.io\ncontract Moret is ERC20, Ownable, ERC20Permit, ERC20Votes, EMoret {\n    using MathLib for uint256;\n    using EnumerableSet for EnumerableSet.AddressSet;\n    using EnumerableMap for EnumerableMap.UintToAddressMap;\n\n    EnumerableSet.AddressSet internal underlyingList; // list of underlying tokens\n    mapping(address=>VolatilityChain) internal volatilityChainMap; // volatility oracle: token address => volatiltiy chain address\n    mapping(address=>EnumerableMap.UintToAddressMap) internal volatilityTokenMap; // volatility token list: token address => volatility token map (tenor => volatility tokens)\n    EnumerableSet.AddressSet internal eligibleTradingRoutes; // list of exchange routes that are allowed for hedging transactions\n    EnumerableSet.AddressSet internal volTradingPools; // pools allowed to trade volatility tokens\n\n    uint256 public protocolFee = 0.005e18; // protocol fees payable to governance token each time option contract is exercised\n    address public protocolFeeRecipient;\n    \n    // funding token address\n    ERC20 public funding;\n    MoretBroker public broker;\n\n    constructor(MoretBroker _broker) ERC20(\"Moret\", \"MOR\") ERC20Permit(\"Moret\") {\n        broker = _broker;\n        funding = _broker.funding();\n        _mint(msg.sender, 1e24); // initial mint, 1e6 * 1e18\n        protocolFeeRecipient = msg.sender;\n        }\n    \n    // mint function\n    function mint(address _to, uint256 _amount) external {\n        require(address(broker) == msg.sender, 'broker only');\n        _mint(_to, _amount);}\n    function divest(uint256 _amount) external {\n        uint256 _capitalToDivest = _amount.muldiv(funding.balanceOf(address(this)), totalSupply());\n        _burn(msg.sender, _amount);\n        funding.transfer(msg.sender, _capitalToDivest);\n        // emit DivestFromGov(msg.sender, _capitalToDivest);}\n    }\n\n    // withdraw from certain pool -> \n    function withdrawPool(Pool _pool, uint256 _amount) external onlyOwner{\n        Exchange(_pool.exchange()).withdrawCapital(_pool, _amount);\n        emit WithdrawPoolTokens(address(_pool), _amount);}\n\n    // governable parameters\n    function setProtocolFee(uint256 _newFee) public onlyOwner(){ \n        protocolFee = _newFee;\n        emit UpdateProtocolFees(_newFee);}\n    function setProtocolRecipient(address _newAddress) public onlyOwner(){ \n        require(_newAddress != address(0), \"Param too big\"); \n        protocolFeeRecipient = _newAddress;}\n\n    // list of underlying addresses\n    function getAllUnderlyings() external view returns(address[] memory){\n        return underlyingList.values();}\n\n    // update/add new volatility oracles\n    function updateVolChain(address _underlyingAddress, VolatilityChain _newOracle) external onlyOwner{\n        if(!underlyingList.contains(_underlyingAddress)){\n            underlyingList.add(_underlyingAddress);}\n        volatilityChainMap[_underlyingAddress] = _newOracle;}\n        // emit UpdateToken( _underlyingAddress, address(_newOracle));}\n    function getVolatilityChain(address _underlyingAddress) public view returns(VolatilityChain){\n        require(address(volatilityChainMap[_underlyingAddress]) != address(0), \"Oracle not registered\");\n        return volatilityChainMap[_underlyingAddress];}\n    \n    // update/get vol tokens.\n    function updateVolToken(address _underlyingAddress, uint256 _tenor, VolatilityToken _volToken) external onlyOwner{ \n        require((_volToken.tenor() == _tenor) && (_volToken.underlying() == _underlyingAddress), 'xV');\n        volatilityTokenMap[_underlyingAddress].set(_tenor, address(_volToken));}\n        // emit UpdateVolToken(_underlyingAddress, _tenor, address(_volToken)); }\n    function getVolatilityToken(address _underlyingAddress, uint256 _tenor) external view returns (VolatilityToken){\n        (bool _success, address _volToken) = volatilityTokenMap[_underlyingAddress].tryGet(_tenor);\n        require(_success, \"no vol token\");\n        return VolatilityToken(_volToken);}\n    \n    // update eligible routes\n    function updateEligibleRoute(address _route, bool _add) public onlyOwner returns(bool){\n        require(_route != address(0), \"empty address\");\n        if(_add) { return eligibleTradingRoutes.add(_route);}\n        else{ return eligibleTradingRoutes.remove(_route);}}\n    function existEligibleRoute(address _route) external view returns(bool){\n        return eligibleTradingRoutes.contains(_route);}\n    \n    // update vol trading pool\n    function updateVolTradingPool(address _poolAddress, bool _add) public onlyOwner returns(bool){\n        require(_poolAddress != address(0), \"empty address\");\n        if(_add) { return volTradingPools.add(_poolAddress);}\n        else{ return volTradingPools.remove(_poolAddress);}}\n    function existVolTradingPool(address _poolAddress) external view returns(bool){\n        return volTradingPools.contains(_poolAddress);}\n\n    // The following functions are overrides required by Solidity.\n\n    function _afterTokenTransfer(address from, address to, uint256 amount)\n        internal\n        override(ERC20, ERC20Votes)\n    {\n        super._afterTokenTransfer(from, to, amount);\n    }\n\n    function _mint(address to, uint256 amount)\n        internal\n        override(ERC20, ERC20Votes)\n    {\n        super._mint(to, amount);\n    }\n\n    function _burn(address account, uint256 amount)\n        internal\n        override(ERC20, ERC20Votes)\n    {\n        super._burn(account, amount);\n    }\n}\n",
  "sourcePath": "/Users/mac/Documents/GitHub/moret/contracts/governance/Moret.sol",
  "compiler": {
    "name": "solc",
    "version": "0.8.13+commit.abaa5c0e.Emscripten.clang"
  },
  "schemaVersion": "3.4.3",
  "updatedAt": "2022-05-09T22:27:03.667Z",
  "devdoc": {
    "custom:security-contact": "eight@moret.io",
    "kind": "dev",
    "methods": {
      "DOMAIN_SEPARATOR()": {
        "details": "See {IERC20Permit-DOMAIN_SEPARATOR}."
      },
      "allowance(address,address)": {
        "details": "See {IERC20-allowance}."
      },
      "approve(address,uint256)": {
        "details": "See {IERC20-approve}. NOTE: If `amount` is the maximum `uint256`, the allowance is not updated on `transferFrom`. This is semantically equivalent to an infinite approval. Requirements: - `spender` cannot be the zero address."
      },
      "balanceOf(address)": {
        "details": "See {IERC20-balanceOf}."
      },
      "checkpoints(address,uint32)": {
        "details": "Get the `pos`-th checkpoint for `account`."
      },
      "decimals()": {
        "details": "Returns the number of decimals used to get its user representation. For example, if `decimals` equals `2`, a balance of `505` tokens should be displayed to a user as `5.05` (`505 / 10 ** 2`). Tokens usually opt for a value of 18, imitating the relationship between Ether and Wei. This is the value {ERC20} uses, unless this function is overridden; NOTE: This information is only used for _display_ purposes: it in no way affects any of the arithmetic of the contract, including {IERC20-balanceOf} and {IERC20-transfer}."
      },
      "decreaseAllowance(address,uint256)": {
        "details": "Atomically decreases the allowance granted to `spender` by the caller. This is an alternative to {approve} that can be used as a mitigation for problems described in {IERC20-approve}. Emits an {Approval} event indicating the updated allowance. Requirements: - `spender` cannot be the zero address. - `spender` must have allowance for the caller of at least `subtractedValue`."
      },
      "delegate(address)": {
        "details": "Delegate votes from the sender to `delegatee`."
      },
      "delegateBySig(address,uint256,uint256,uint8,bytes32,bytes32)": {
        "details": "Delegates votes from signer to `delegatee`"
      },
      "delegates(address)": {
        "details": "Get the address `account` is currently delegating to."
      },
      "getPastTotalSupply(uint256)": {
        "details": "Retrieve the `totalSupply` at the end of `blockNumber`. Note, this value is the sum of all balances. It is but NOT the sum of all the delegated votes! Requirements: - `blockNumber` must have been already mined"
      },
      "getPastVotes(address,uint256)": {
        "details": "Retrieve the number of votes for `account` at the end of `blockNumber`. Requirements: - `blockNumber` must have been already mined"
      },
      "getVotes(address)": {
        "details": "Gets the current votes balance for `account`"
      },
      "increaseAllowance(address,uint256)": {
        "details": "Atomically increases the allowance granted to `spender` by the caller. This is an alternative to {approve} that can be used as a mitigation for problems described in {IERC20-approve}. Emits an {Approval} event indicating the updated allowance. Requirements: - `spender` cannot be the zero address."
      },
      "name()": {
        "details": "Returns the name of the token."
      },
      "nonces(address)": {
        "details": "See {IERC20Permit-nonces}."
      },
      "numCheckpoints(address)": {
        "details": "Get number of checkpoints for `account`."
      },
      "owner()": {
        "details": "Returns the address of the current owner."
      },
      "permit(address,address,uint256,uint256,uint8,bytes32,bytes32)": {
        "details": "See {IERC20Permit-permit}."
      },
      "renounceOwnership()": {
        "details": "Leaves the contract without owner. It will not be possible to call `onlyOwner` functions anymore. Can only be called by the current owner. NOTE: Renouncing ownership will leave the contract without an owner, thereby removing any functionality that is only available to the owner."
      },
      "symbol()": {
        "details": "Returns the symbol of the token, usually a shorter version of the name."
      },
      "totalSupply()": {
        "details": "See {IERC20-totalSupply}."
      },
      "transfer(address,uint256)": {
        "details": "See {IERC20-transfer}. Requirements: - `to` cannot be the zero address. - the caller must have a balance of at least `amount`."
      },
      "transferFrom(address,address,uint256)": {
        "details": "See {IERC20-transferFrom}. Emits an {Approval} event indicating the updated allowance. This is not required by the EIP. See the note at the beginning of {ERC20}. NOTE: Does not update the allowance if the current allowance is the maximum `uint256`. Requirements: - `from` and `to` cannot be the zero address. - `from` must have a balance of at least `amount`. - the caller must have allowance for ``from``'s tokens of at least `amount`."
      },
      "transferOwnership(address)": {
        "details": "Transfers ownership of the contract to a new account (`newOwner`). Can only be called by the current owner."
      }
    },
    "version": 1
  },
  "userdoc": {
    "kind": "user",
    "methods": {},
    "version": 1
  }
}