{
  "contractName": "MoretBroker",
  "abi": [
    {
      "inputs": [
        {
          "internalType": "contract ERC20",
          "name": "_funding",
          "type": "address"
        },
        {
          "internalType": "contract OptionVault",
          "name": "_vault",
          "type": "address"
        }
      ],
      "stateMutability": "nonpayable",
      "type": "constructor"
    },
    {
      "anonymous": false,
      "inputs": [
        {
          "indexed": false,
          "internalType": "address",
          "name": "_pool",
          "type": "address"
        },
        {
          "indexed": false,
          "internalType": "address",
          "name": "_sender",
          "type": "address"
        },
        {
          "indexed": false,
          "internalType": "uint256",
          "name": "_amount",
          "type": "uint256"
        },
        {
          "indexed": false,
          "internalType": "uint256",
          "name": "_moretAmount",
          "type": "uint256"
        }
      ],
      "name": "ExchangePoolTokens",
      "type": "event"
    },
    {
      "anonymous": false,
      "inputs": [
        {
          "indexed": true,
          "internalType": "bytes32",
          "name": "role",
          "type": "bytes32"
        },
        {
          "indexed": true,
          "internalType": "bytes32",
          "name": "previousAdminRole",
          "type": "bytes32"
        },
        {
          "indexed": true,
          "internalType": "bytes32",
          "name": "newAdminRole",
          "type": "bytes32"
        }
      ],
      "name": "RoleAdminChanged",
      "type": "event"
    },
    {
      "anonymous": false,
      "inputs": [
        {
          "indexed": true,
          "internalType": "bytes32",
          "name": "role",
          "type": "bytes32"
        },
        {
          "indexed": true,
          "internalType": "address",
          "name": "account",
          "type": "address"
        },
        {
          "indexed": true,
          "internalType": "address",
          "name": "sender",
          "type": "address"
        }
      ],
      "name": "RoleGranted",
      "type": "event"
    },
    {
      "anonymous": false,
      "inputs": [
        {
          "indexed": true,
          "internalType": "bytes32",
          "name": "role",
          "type": "bytes32"
        },
        {
          "indexed": true,
          "internalType": "address",
          "name": "account",
          "type": "address"
        },
        {
          "indexed": true,
          "internalType": "address",
          "name": "sender",
          "type": "address"
        }
      ],
      "name": "RoleRevoked",
      "type": "event"
    },
    {
      "anonymous": false,
      "inputs": [
        {
          "indexed": false,
          "internalType": "uint256",
          "name": "_fee",
          "type": "uint256"
        }
      ],
      "name": "UpdateProtocolFees",
      "type": "event"
    },
    {
      "anonymous": false,
      "inputs": [
        {
          "indexed": false,
          "internalType": "address",
          "name": "_route",
          "type": "address"
        },
        {
          "indexed": false,
          "internalType": "bool",
          "name": "_addition",
          "type": "bool"
        }
      ],
      "name": "UpdateRoute",
      "type": "event"
    },
    {
      "anonymous": false,
      "inputs": [
        {
          "indexed": false,
          "internalType": "address",
          "name": "_pool",
          "type": "address"
        },
        {
          "indexed": false,
          "internalType": "uint256",
          "name": "_amount",
          "type": "uint256"
        }
      ],
      "name": "WithdrawPoolTokens",
      "type": "event"
    },
    {
      "inputs": [],
      "name": "DEFAULT_ADMIN_ROLE",
      "outputs": [
        {
          "internalType": "bytes32",
          "name": "",
          "type": "bytes32"
        }
      ],
      "stateMutability": "view",
      "type": "function",
      "constant": true
    },
    {
      "inputs": [],
      "name": "funding",
      "outputs": [
        {
          "internalType": "contract ERC20",
          "name": "",
          "type": "address"
        }
      ],
      "stateMutability": "view",
      "type": "function",
      "constant": true
    },
    {
      "inputs": [
        {
          "internalType": "bytes32",
          "name": "role",
          "type": "bytes32"
        }
      ],
      "name": "getRoleAdmin",
      "outputs": [
        {
          "internalType": "bytes32",
          "name": "",
          "type": "bytes32"
        }
      ],
      "stateMutability": "view",
      "type": "function",
      "constant": true
    },
    {
      "inputs": [
        {
          "internalType": "bytes32",
          "name": "role",
          "type": "bytes32"
        },
        {
          "internalType": "address",
          "name": "account",
          "type": "address"
        }
      ],
      "name": "grantRole",
      "outputs": [],
      "stateMutability": "nonpayable",
      "type": "function"
    },
    {
      "inputs": [
        {
          "internalType": "bytes32",
          "name": "role",
          "type": "bytes32"
        },
        {
          "internalType": "address",
          "name": "account",
          "type": "address"
        }
      ],
      "name": "hasRole",
      "outputs": [
        {
          "internalType": "bool",
          "name": "",
          "type": "bool"
        }
      ],
      "stateMutability": "view",
      "type": "function",
      "constant": true
    },
    {
      "inputs": [],
      "name": "minCapital",
      "outputs": [
        {
          "internalType": "uint256",
          "name": "",
          "type": "uint256"
        }
      ],
      "stateMutability": "view",
      "type": "function",
      "constant": true
    },
    {
      "inputs": [],
      "name": "poolCapital",
      "outputs": [
        {
          "internalType": "uint256",
          "name": "",
          "type": "uint256"
        }
      ],
      "stateMutability": "view",
      "type": "function",
      "constant": true
    },
    {
      "inputs": [
        {
          "internalType": "bytes32",
          "name": "role",
          "type": "bytes32"
        },
        {
          "internalType": "address",
          "name": "account",
          "type": "address"
        }
      ],
      "name": "renounceRole",
      "outputs": [],
      "stateMutability": "nonpayable",
      "type": "function"
    },
    {
      "inputs": [
        {
          "internalType": "bytes32",
          "name": "role",
          "type": "bytes32"
        },
        {
          "internalType": "address",
          "name": "account",
          "type": "address"
        }
      ],
      "name": "revokeRole",
      "outputs": [],
      "stateMutability": "nonpayable",
      "type": "function"
    },
    {
      "inputs": [
        {
          "internalType": "bytes4",
          "name": "interfaceId",
          "type": "bytes4"
        }
      ],
      "name": "supportsInterface",
      "outputs": [
        {
          "internalType": "bool",
          "name": "",
          "type": "bool"
        }
      ],
      "stateMutability": "view",
      "type": "function",
      "constant": true
    },
    {
      "inputs": [],
      "name": "vault",
      "outputs": [
        {
          "internalType": "contract OptionVault",
          "name": "",
          "type": "address"
        }
      ],
      "stateMutability": "view",
      "type": "function",
      "constant": true
    },
    {
      "inputs": [
        {
          "internalType": "contract Pool",
          "name": "_pool",
          "type": "address"
        },
        {
          "internalType": "uint256",
          "name": "_payInAmount",
          "type": "uint256"
        }
      ],
      "name": "exchangePoolForMoret",
      "outputs": [],
      "stateMutability": "nonpayable",
      "type": "function"
    },
    {
      "inputs": [
        {
          "internalType": "contract Pool",
          "name": "_pool",
          "type": "address"
        }
      ],
      "name": "addPool",
      "outputs": [],
      "stateMutability": "nonpayable",
      "type": "function"
    },
    {
      "inputs": [
        {
          "internalType": "address",
          "name": "_underlyingAddress",
          "type": "address"
        }
      ],
      "name": "getAllPools",
      "outputs": [
        {
          "internalType": "address[]",
          "name": "",
          "type": "address[]"
        }
      ],
      "stateMutability": "view",
      "type": "function",
      "constant": true
    },
    {
      "inputs": [
        {
          "internalType": "address",
          "name": "_underlyingAddress",
          "type": "address"
        }
      ],
      "name": "getTopPool",
      "outputs": [
        {
          "internalType": "address",
          "name": "",
          "type": "address"
        }
      ],
      "stateMutability": "view",
      "type": "function",
      "constant": true
    }
  ],
  "bytecode": "0x608060405260006004553480156200001657600080fd5b5060405162002aa438038062002aa483398181016040528101906200003c919062000241565b81600560006101000a81548173ffffffffffffffffffffffffffffffffffffffff021916908373ffffffffffffffffffffffffffffffffffffffff16021790555080600660006101000a81548173ffffffffffffffffffffffffffffffffffffffff021916908373ffffffffffffffffffffffffffffffffffffffff160217905550600560009054906101000a900473ffffffffffffffffffffffffffffffffffffffff1673ffffffffffffffffffffffffffffffffffffffff1663313ce5676040518163ffffffff1660e01b8152600401602060405180830381865afa1580156200012c573d6000803e3d6000fd5b505050506040513d601f19601f82011682018060405250810190620001529190620002c6565b600a62000160919062000485565b620f4240620001709190620004d6565b600381905550505062000537565b600080fd5b600073ffffffffffffffffffffffffffffffffffffffff82169050919050565b6000620001b08262000183565b9050919050565b6000620001c482620001a3565b9050919050565b620001d681620001b7565b8114620001e257600080fd5b50565b600081519050620001f681620001cb565b92915050565b60006200020982620001a3565b9050919050565b6200021b81620001fc565b81146200022757600080fd5b50565b6000815190506200023b8162000210565b92915050565b600080604083850312156200025b576200025a6200017e565b5b60006200026b85828601620001e5565b92505060206200027e858286016200022a565b9150509250929050565b600060ff82169050919050565b620002a08162000288565b8114620002ac57600080fd5b50565b600081519050620002c08162000295565b92915050565b600060208284031215620002df57620002de6200017e565b5b6000620002ef84828501620002af565b91505092915050565b7f4e487b7100000000000000000000000000000000000000000000000000000000600052601160045260246000fd5b60008160011c9050919050565b6000808291508390505b600185111562000386578086048111156200035e576200035d620002f8565b5b60018516156200036e5780820291505b80810290506200037e8562000327565b94506200033e565b94509492505050565b600082620003a1576001905062000474565b81620003b1576000905062000474565b8160018114620003ca5760028114620003d5576200040b565b600191505062000474565b60ff841115620003ea57620003e9620002f8565b5b8360020a915084821115620004045762000403620002f8565b5b5062000474565b5060208310610133831016604e8410600b8410161715620004455782820a9050838111156200043f576200043e620002f8565b5b62000474565b62000454848484600162000334565b925090508184048111156200046e576200046d620002f8565b5b81810290505b9392505050565b6000819050919050565b600062000492826200047b565b91506200049f8362000288565b9250620004ce7fffffffffffffffffffffffffffffffffffffffffffffffffffffffffffffffff84846200038f565b905092915050565b6000620004e3826200047b565b9150620004f0836200047b565b9250817fffffffffffffffffffffffffffffffffffffffffffffffffffffffffffffffff04831182151516156200052c576200052b620002f8565b5b828202905092915050565b61255d80620005476000396000f3fe608060405234801561001057600080fd5b50600436106100f55760003560e01c8063aa61dcd311610097578063d903802711610066578063d903802714610286578063d914cd4b146102a2578063da882217146102be578063fbfa77cf146102ee576100f5565b8063aa61dcd314610210578063caa8c3821461022e578063cb4c86b71461024c578063d547741f1461026a576100f5565b8063345954dc116100d3578063345954dc1461017657806336568abe146101a657806391d14854146101c2578063a217fddf146101f2576100f5565b806301ffc9a7146100fa578063248a9ca31461012a5780632f2ff15d1461015a575b600080fd5b610114600480360381019061010f919061183b565b61030c565b6040516101219190611883565b60405180910390f35b610144600480360381019061013f91906118d4565b610386565b6040516101519190611910565b60405180910390f35b610174600480360381019061016f9190611989565b6103a5565b005b610190600480360381019061018b91906119c9565b6103c6565b60405161019d9190611ab4565b60405180910390f35b6101c060048036038101906101bb9190611989565b610416565b005b6101dc60048036038101906101d79190611989565b610499565b6040516101e99190611883565b60405180910390f35b6101fa610503565b6040516102079190611910565b60405180910390f35b61021861050a565b6040516102259190611aef565b60405180910390f35b610236610510565b6040516102439190611aef565b60405180910390f35b610254610516565b6040516102619190611b69565b60405180910390f35b610284600480360381019061027f9190611989565b61053c565b005b6102a0600480360381019061029b9190611bee565b61055d565b005b6102bc60048036038101906102b79190611c2e565b610ae1565b005b6102d860048036038101906102d391906119c9565b610c12565b6040516102e59190611c6a565b60405180910390f35b6102f6610c7b565b6040516103039190611ca6565b60405180910390f35b60007f7965db0b000000000000000000000000000000000000000000000000000000007bffffffffffffffffffffffffffffffffffffffffffffffffffffffff1916827bffffffffffffffffffffffffffffffffffffffffffffffffffffffff1916148061037f575061037e82610ca1565b5b9050919050565b6000806000838152602001908152602001600020600101549050919050565b6103ae82610386565b6103b781610d0b565b6103c18383610d1f565b505050565b606061040f600260008473ffffffffffffffffffffffffffffffffffffffff1673ffffffffffffffffffffffffffffffffffffffff168152602001908152602001600020610dff565b9050919050565b61041e610e20565b73ffffffffffffffffffffffffffffffffffffffff168173ffffffffffffffffffffffffffffffffffffffff161461048b576040517f08c379a000000000000000000000000000000000000000000000000000000000815260040161048290611d44565b60405180910390fd5b6104958282610e28565b5050565b600080600084815260200190815260200160002060000160008373ffffffffffffffffffffffffffffffffffffffff1673ffffffffffffffffffffffffffffffffffffffff16815260200190815260200160002060009054906101000a900460ff16905092915050565b6000801b81565b60045481565b60035481565b600560009054906101000a900473ffffffffffffffffffffffffffffffffffffffff1681565b61054582610386565b61054e81610d0b565b6105588383610e28565b505050565b60008273ffffffffffffffffffffffffffffffffffffffff16631f21f9af6040518163ffffffff1660e01b8152600401602060405180830381865afa1580156105aa573d6000803e3d6000fd5b505050506040513d601f19601f820116820180604052508101906105ce9190611da2565b73ffffffffffffffffffffffffffffffffffffffff166305268cff6040518163ffffffff1660e01b8152600401602060405180830381865afa158015610618573d6000803e3d6000fd5b505050506040513d601f19601f8201168201806040525081019061063c9190611e0d565b90508073ffffffffffffffffffffffffffffffffffffffff166315dc2e9d8473ffffffffffffffffffffffffffffffffffffffff16631f21f9af6040518163ffffffff1660e01b8152600401602060405180830381865afa1580156106a5573d6000803e3d6000fd5b505050506040513d601f19601f820116820180604052508101906106c99190611da2565b73ffffffffffffffffffffffffffffffffffffffff16636f307dc36040518163ffffffff1660e01b8152600401602060405180830381865afa158015610713573d6000803e3d6000fd5b505050506040513d601f19601f820116820180604052508101906107379190611e4f565b6040518263ffffffff1660e01b81526004016107539190611c6a565b602060405180830381865afa158015610770573d6000803e3d6000fd5b505050506040513d601f19601f820116820180604052508101906107949190611eba565b5060006107a084610f09565b905060006107b26003546004546113cc565b905060008473__MathLib_______________________________63b3947c179091858973ffffffffffffffffffffffffffffffffffffffff166318160ddd6040518163ffffffff1660e01b8152600401602060405180830381865afa15801561081f573d6000803e3d6000fd5b505050506040513d601f19601f820116820180604052508101906108439190611efc565b6040518463ffffffff1660e01b815260040161086193929190611f38565b602060405180830381865af415801561087e573d6000803e3d6000fd5b505050506040513d601f19601f820116820180604052508101906108a29190611efc565b905060008173__MathLib_______________________________63b3947c1790918773ffffffffffffffffffffffffffffffffffffffff166318160ddd6040518163ffffffff1660e01b8152600401602060405180830381865afa15801561090e573d6000803e3d6000fd5b505050506040513d601f19601f820116820180604052508101906109329190611efc565b866040518463ffffffff1660e01b815260040161095193929190611f38565b602060405180830381865af415801561096e573d6000803e3d6000fd5b505050506040513d601f19601f820116820180604052508101906109929190611efc565b90508673ffffffffffffffffffffffffffffffffffffffff166323b872dd3387896040518463ffffffff1660e01b81526004016109d193929190611f6f565b6020604051808303816000875af11580156109f0573d6000803e3d6000fd5b505050506040513d601f19601f82011682018060405250810190610a149190611fd2565b508160046000828254610a27919061202e565b925050819055508473ffffffffffffffffffffffffffffffffffffffff166340c10f1933836040518363ffffffff1660e01b8152600401610a69929190612084565b600060405180830381600087803b158015610a8357600080fd5b505af1158015610a97573d6000803e3d6000fd5b505050507f4877c2e401ca94d9fe3d52bf4c0904a11f6a4bcbf76b8ec5a1684f396859e0c487338884604051610ad094939291906120ad565b60405180910390a150505050505050565b610c0e81600260008473ffffffffffffffffffffffffffffffffffffffff16631f21f9af6040518163ffffffff1660e01b8152600401602060405180830381865afa158015610b34573d6000803e3d6000fd5b505050506040513d601f19601f82011682018060405250810190610b589190611da2565b73ffffffffffffffffffffffffffffffffffffffff16636f307dc36040518163ffffffff1660e01b8152600401602060405180830381865afa158015610ba2573d6000803e3d6000fd5b505050506040513d601f19601f82011682018060405250810190610bc69190611e4f565b73ffffffffffffffffffffffffffffffffffffffff1673ffffffffffffffffffffffffffffffffffffffff1681526020019081526020016000206113e690919063ffffffff16565b5050565b6000600160008373ffffffffffffffffffffffffffffffffffffffff1673ffffffffffffffffffffffffffffffffffffffff16815260200190815260200160002060009054906101000a900473ffffffffffffffffffffffffffffffffffffffff169050919050565b600660009054906101000a900473ffffffffffffffffffffffffffffffffffffffff1681565b60007f01ffc9a7000000000000000000000000000000000000000000000000000000007bffffffffffffffffffffffffffffffffffffffffffffffffffffffff1916827bffffffffffffffffffffffffffffffffffffffffffffffffffffffff1916149050919050565b610d1c81610d17610e20565b611416565b50565b610d298282610499565b610dfb57600160008084815260200190815260200160002060000160008373ffffffffffffffffffffffffffffffffffffffff1673ffffffffffffffffffffffffffffffffffffffff16815260200190815260200160002060006101000a81548160ff021916908315150217905550610da0610e20565b73ffffffffffffffffffffffffffffffffffffffff168173ffffffffffffffffffffffffffffffffffffffff16837f2f8788117e7eff1d82e926ec794901d17c78024a50270940304540a733656f0d60405160405180910390a45b5050565b60606000610e0f836000016114b3565b905060608190508092505050919050565b600033905090565b610e328282610499565b15610f0557600080600084815260200190815260200160002060000160008373ffffffffffffffffffffffffffffffffffffffff1673ffffffffffffffffffffffffffffffffffffffff16815260200190815260200160002060006101000a81548160ff021916908315150217905550610eaa610e20565b73ffffffffffffffffffffffffffffffffffffffff168173ffffffffffffffffffffffffffffffffffffffff16837ff6391f5c32d9c69d2a47ea670b442974b53935d1edc7fd64eb21e047a839171b60405160405180910390a45b5050565b6000808273ffffffffffffffffffffffffffffffffffffffff16631f21f9af6040518163ffffffff1660e01b8152600401602060405180830381865afa158015610f57573d6000803e3d6000fd5b505050506040513d601f19601f82011682018060405250810190610f7b9190611da2565b73ffffffffffffffffffffffffffffffffffffffff16636f307dc36040518163ffffffff1660e01b8152600401602060405180830381865afa158015610fc5573d6000803e3d6000fd5b505050506040513d601f19601f82011682018060405250810190610fe99190611e4f565b9050600660009054906101000a900473ffffffffffffffffffffffffffffffffffffffff1673ffffffffffffffffffffffffffffffffffffffff16635c273c2f84600160006040518463ffffffff1660e01b815260040161104c93929190612113565b602060405180830381865afa158015611069573d6000803e3d6000fd5b505050506040513d601f19601f8201168201806040525081019061108d9190611efc565b915060035482116110d3576040517f08c379a00000000000000000000000000000000000000000000000000000000081526004016110ca90612196565b60405180910390fd5b600073ffffffffffffffffffffffffffffffffffffffff16600160008373ffffffffffffffffffffffffffffffffffffffff1673ffffffffffffffffffffffffffffffffffffffff16815260200190815260200160002060009054906101000a900473ffffffffffffffffffffffffffffffffffffffff1673ffffffffffffffffffffffffffffffffffffffff16141580156111fa57508273ffffffffffffffffffffffffffffffffffffffff16600160008373ffffffffffffffffffffffffffffffffffffffff1673ffffffffffffffffffffffffffffffffffffffff16815260200190815260200160002060009054906101000a900473ffffffffffffffffffffffffffffffffffffffff1673ffffffffffffffffffffffffffffffffffffffff1614155b156113c6576000600660009054906101000a900473ffffffffffffffffffffffffffffffffffffffff1673ffffffffffffffffffffffffffffffffffffffff16635c273c2f600160008573ffffffffffffffffffffffffffffffffffffffff1673ffffffffffffffffffffffffffffffffffffffff16815260200190815260200160002060009054906101000a900473ffffffffffffffffffffffffffffffffffffffff16600160006040518463ffffffff1660e01b81526004016112c193929190612113565b602060405180830381865afa1580156112de573d6000803e3d6000fd5b505050506040513d601f19601f820116820180604052508101906113029190611efc565b9050808311611346576040517f08c379a000000000000000000000000000000000000000000000000000000000815260040161133d90612202565b60405180910390fd5b83600160008473ffffffffffffffffffffffffffffffffffffffff1673ffffffffffffffffffffffffffffffffffffffff16815260200190815260200160002060006101000a81548173ffffffffffffffffffffffffffffffffffffffff021916908373ffffffffffffffffffffffffffffffffffffffff160217905550505b50919050565b6000818310156113dc57816113de565b825b905092915050565b600061140e836000018373ffffffffffffffffffffffffffffffffffffffff1660001b61150f565b905092915050565b6114208282610499565b6114af576114458173ffffffffffffffffffffffffffffffffffffffff16601461157f565b6114538360001c602061157f565b604051602001611464929190612334565b6040516020818303038152906040526040517f08c379a00000000000000000000000000000000000000000000000000000000081526004016114a691906123b8565b60405180910390fd5b5050565b60608160000180548060200260200160405190810160405280929190818152602001828054801561150357602002820191906000526020600020905b8154815260200190600101908083116114ef575b50505050509050919050565b600061151b83836117bb565b611574578260000182908060018154018082558091505060019003906000526020600020016000909190919091505582600001805490508360010160008481526020019081526020016000208190555060019050611579565b600090505b92915050565b60606000600283600261159291906123da565b61159c919061202e565b67ffffffffffffffff8111156115b5576115b4612434565b5b6040519080825280601f01601f1916602001820160405280156115e75781602001600182028036833780820191505090505b5090507f30000000000000000000000000000000000000000000000000000000000000008160008151811061161f5761161e612463565b5b60200101907effffffffffffffffffffffffffffffffffffffffffffffffffffffffffffff1916908160001a9053507f78000000000000000000000000000000000000000000000000000000000000008160018151811061168357611682612463565b5b60200101907effffffffffffffffffffffffffffffffffffffffffffffffffffffffffffff1916908160001a905350600060018460026116c391906123da565b6116cd919061202e565b90505b600181111561176d577f3031323334353637383961626364656600000000000000000000000000000000600f86166010811061170f5761170e612463565b5b1a60f81b82828151811061172657611725612463565b5b60200101907effffffffffffffffffffffffffffffffffffffffffffffffffffffffffffff1916908160001a905350600485901c94508061176690612492565b90506116d0565b50600084146117b1576040517f08c379a00000000000000000000000000000000000000000000000000000000081526004016117a890612507565b60405180910390fd5b8091505092915050565b600080836001016000848152602001908152602001600020541415905092915050565b600080fd5b60007fffffffff0000000000000000000000000000000000000000000000000000000082169050919050565b611818816117e3565b811461182357600080fd5b50565b6000813590506118358161180f565b92915050565b600060208284031215611851576118506117de565b5b600061185f84828501611826565b91505092915050565b60008115159050919050565b61187d81611868565b82525050565b60006020820190506118986000830184611874565b92915050565b6000819050919050565b6118b18161189e565b81146118bc57600080fd5b50565b6000813590506118ce816118a8565b92915050565b6000602082840312156118ea576118e96117de565b5b60006118f8848285016118bf565b91505092915050565b61190a8161189e565b82525050565b60006020820190506119256000830184611901565b92915050565b600073ffffffffffffffffffffffffffffffffffffffff82169050919050565b60006119568261192b565b9050919050565b6119668161194b565b811461197157600080fd5b50565b6000813590506119838161195d565b92915050565b600080604083850312156119a05761199f6117de565b5b60006119ae858286016118bf565b92505060206119bf85828601611974565b9150509250929050565b6000602082840312156119df576119de6117de565b5b60006119ed84828501611974565b91505092915050565b600081519050919050565b600082825260208201905092915050565b6000819050602082019050919050565b611a2b8161194b565b82525050565b6000611a3d8383611a22565b60208301905092915050565b6000602082019050919050565b6000611a61826119f6565b611a6b8185611a01565b9350611a7683611a12565b8060005b83811015611aa7578151611a8e8882611a31565b9750611a9983611a49565b925050600181019050611a7a565b5085935050505092915050565b60006020820190508181036000830152611ace8184611a56565b905092915050565b6000819050919050565b611ae981611ad6565b82525050565b6000602082019050611b046000830184611ae0565b92915050565b6000819050919050565b6000611b2f611b2a611b258461192b565b611b0a565b61192b565b9050919050565b6000611b4182611b14565b9050919050565b6000611b5382611b36565b9050919050565b611b6381611b48565b82525050565b6000602082019050611b7e6000830184611b5a565b92915050565b6000611b8f8261194b565b9050919050565b611b9f81611b84565b8114611baa57600080fd5b50565b600081359050611bbc81611b96565b92915050565b611bcb81611ad6565b8114611bd657600080fd5b50565b600081359050611be881611bc2565b92915050565b60008060408385031215611c0557611c046117de565b5b6000611c1385828601611bad565b9250506020611c2485828601611bd9565b9150509250929050565b600060208284031215611c4457611c436117de565b5b6000611c5284828501611bad565b91505092915050565b611c648161194b565b82525050565b6000602082019050611c7f6000830184611c5b565b92915050565b6000611c9082611b36565b9050919050565b611ca081611c85565b82525050565b6000602082019050611cbb6000830184611c97565b92915050565b600082825260208201905092915050565b7f416363657373436f6e74726f6c3a2063616e206f6e6c792072656e6f756e636560008201527f20726f6c657320666f722073656c660000000000000000000000000000000000602082015250565b6000611d2e602f83611cc1565b9150611d3982611cd2565b604082019050919050565b60006020820190508181036000830152611d5d81611d21565b9050919050565b6000611d6f8261194b565b9050919050565b611d7f81611d64565b8114611d8a57600080fd5b50565b600081519050611d9c81611d76565b92915050565b600060208284031215611db857611db76117de565b5b6000611dc684828501611d8d565b91505092915050565b6000611dda8261194b565b9050919050565b611dea81611dcf565b8114611df557600080fd5b50565b600081519050611e0781611de1565b92915050565b600060208284031215611e2357611e226117de565b5b6000611e3184828501611df8565b91505092915050565b600081519050611e498161195d565b92915050565b600060208284031215611e6557611e646117de565b5b6000611e7384828501611e3a565b91505092915050565b6000611e878261194b565b9050919050565b611e9781611e7c565b8114611ea257600080fd5b50565b600081519050611eb481611e8e565b92915050565b600060208284031215611ed057611ecf6117de565b5b6000611ede84828501611ea5565b91505092915050565b600081519050611ef681611bc2565b92915050565b600060208284031215611f1257611f116117de565b5b6000611f2084828501611ee7565b91505092915050565b611f3281611ad6565b82525050565b6000606082019050611f4d6000830186611f29565b611f5a6020830185611f29565b611f676040830184611f29565b949350505050565b6000606082019050611f846000830186611c5b565b611f916020830185611c5b565b611f9e6040830184611ae0565b949350505050565b611faf81611868565b8114611fba57600080fd5b50565b600081519050611fcc81611fa6565b92915050565b600060208284031215611fe857611fe76117de565b5b6000611ff684828501611fbd565b91505092915050565b7f4e487b7100000000000000000000000000000000000000000000000000000000600052601160045260246000fd5b600061203982611ad6565b915061204483611ad6565b9250827fffffffffffffffffffffffffffffffffffffffffffffffffffffffffffffffff0382111561207957612078611fff565b5b828201905092915050565b60006040820190506120996000830185611c5b565b6120a66020830184611ae0565b9392505050565b60006080820190506120c26000830187611c5b565b6120cf6020830186611c5b565b6120dc6040830185611ae0565b6120e96060830184611ae0565b95945050505050565b60006120fd82611b36565b9050919050565b61210d816120f2565b82525050565b60006060820190506121286000830186612104565b6121356020830185611874565b6121426040830184611874565b949350505050565b7f6d696e206361706974616c206e6f74206d65742e000000000000000000000000600082015250565b6000612180601483611cc1565b915061218b8261214a565b602082019050919050565b600060208201905081810360008301526121af81612173565b9050919050565b7f6e6f742074686520746f702065786368616e6765000000000000000000000000600082015250565b60006121ec601483611cc1565b91506121f7826121b6565b602082019050919050565b6000602082019050818103600083015261221b816121df565b9050919050565b600081905092915050565b7f416363657373436f6e74726f6c3a206163636f756e7420000000000000000000600082015250565b6000612263601783612222565b915061226e8261222d565b601782019050919050565b600081519050919050565b60005b838110156122a2578082015181840152602081019050612287565b838111156122b1576000848401525b50505050565b60006122c282612279565b6122cc8185612222565b93506122dc818560208601612284565b80840191505092915050565b7f206973206d697373696e6720726f6c6520000000000000000000000000000000600082015250565b600061231e601183612222565b9150612329826122e8565b601182019050919050565b600061233f82612256565b915061234b82856122b7565b915061235682612311565b915061236282846122b7565b91508190509392505050565b6000601f19601f8301169050919050565b600061238a82612279565b6123948185611cc1565b93506123a4818560208601612284565b6123ad8161236e565b840191505092915050565b600060208201905081810360008301526123d2818461237f565b905092915050565b60006123e582611ad6565b91506123f083611ad6565b9250817fffffffffffffffffffffffffffffffffffffffffffffffffffffffffffffffff048311821515161561242957612428611fff565b5b828202905092915050565b7f4e487b7100000000000000000000000000000000000000000000000000000000600052604160045260246000fd5b7f4e487b7100000000000000000000000000000000000000000000000000000000600052603260045260246000fd5b600061249d82611ad6565b9150600082036124b0576124af611fff565b5b600182039050919050565b7f537472696e67733a20686578206c656e67746820696e73756666696369656e74600082015250565b60006124f1602083611cc1565b91506124fc826124bb565b602082019050919050565b60006020820190508181036000830152612520816124e4565b905091905056fea26469706673582212206e699285036966026abb18aafdd4d7967a17a1c77a84e024e2634ac8ae37d74564736f6c634300080e0033",
  "immutableReferences": {},
  "source": "// SPDX-License-Identifier: MIT\npragma solidity ^0.8.4;\n\nimport \"@openzeppelin/contracts/access/Ownable.sol\";\nimport \"@openzeppelin/contracts/access/AccessControl.sol\";\nimport \"@openzeppelin/contracts/token/ERC20/ERC20.sol\";\nimport \"@openzeppelin/contracts/utils/math/Math.sol\";\nimport \"@openzeppelin/contracts/utils/structs/EnumerableSet.sol\";\nimport \"../pools/Pool.sol\";\nimport \"../libraries/MathLib.sol\";\nimport \"../interfaces/EMoret.sol\";\nimport \"../OptionVault.sol\";\nimport \"../VolatilityChain.sol\";\nimport \"./Moret.sol\";\n\n/// @custom:security-contact eight@moret.io\ncontract MoretBroker is EMoret, AccessControl {\n    using MathLib for uint256;\n    using EnumerableSet for EnumerableSet.AddressSet;\n\n    // list of pools\n    mapping(address=>address) internal topPoolMap; // only the top pool address is allowed to exchange their pool tokens with Moret. underlying token addres => pool address\n    mapping(address=>EnumerableSet.AddressSet) internal allPoolMap; // all created pools\n    \n    // capital records\n    uint256 public minCapital; // 1m minimum capital for the whole Moret pool and for exchanges\n    uint256 public poolCapital = 0; // total capitals\n    \n    // address\n    ERC20 public funding;\n    OptionVault public vault;\n\n    constructor(ERC20 _funding, OptionVault _vault){\n        funding = _funding;\n        vault = _vault;\n        minCapital = 1e6 * (10 ** (funding.decimals())); // 1m min notional (in funding token decimals)\n        }\n\n    // functions to allow pool to exchange their tokens for Moret\n    // arguments: pool contract address, amount of pool tokens to be exchanged\n    // a minimum capital of 1m USDC is assumed for any exchange calculations.\n    function exchangePoolForMoret(Pool _pool, uint256 _payInAmount) external{\n        Moret _gov = _pool.marketMaker().govToken();\n        _gov.getVolatilityChain(_pool.marketMaker().underlying()); // use this function to check if underlying exists.\n\n        uint256 _poolNetCapital = getAndUpdateTopPool(_pool);\n        uint256 _currentCapital = Math.max(minCapital, poolCapital);\n\n        uint256 _payInCapital = _payInAmount.muldiv(_poolNetCapital, _pool.totalSupply());\n        uint256 _mintAmount = _payInCapital.muldiv(_gov.totalSupply(), _currentCapital);\n        _pool.transferFrom(msg.sender, address(_gov), _payInAmount);\n        poolCapital += _payInCapital;\n        _gov.mint(msg.sender, _mintAmount); // This ensures only the right Moret contract mints.\n        emit ExchangePoolTokens(address(_pool), msg.sender, _payInAmount, _mintAmount);}\n\n    function getAndUpdateTopPool(Pool _pool) internal returns(uint256 _poolNetCapital){\n        address _underlyingAddress = _pool.marketMaker().underlying();\n        _poolNetCapital = vault.calcCapital(_pool, true, false);\n        require(_poolNetCapital > minCapital, \"min capital not met.\");\n\n        if ((topPoolMap[_underlyingAddress] != address(0)) && (topPoolMap[_underlyingAddress] != address(_pool)))\n        {\n            uint256 _topCapital = vault.calcCapital(Pool(topPoolMap[_underlyingAddress]), true, false);\n            require(_poolNetCapital > _topCapital, 'not the top exchange');\n            topPoolMap[_underlyingAddress] = address(_pool);}}\n\n    // update list of pools\n    function addPool(Pool _pool) external{\n        allPoolMap[_pool.marketMaker().underlying()].add(address(_pool));}\n    function getAllPools(address _underlyingAddress) external view returns(address[] memory){\n        return allPoolMap[_underlyingAddress].values();}\n    function getTopPool(address _underlyingAddress) external view returns(address){\n        return topPoolMap[_underlyingAddress];}\n    // function getPoolsCount(address _underlyingAddress) external view returns(uint256){\n    //     return allPoolMap[_underlyingAddress].length();}\n    \n}",
  "sourcePath": "/Users/mac/Documents/GitHub/moret/contracts/governance/MoretBroker.sol",
  "compiler": {
    "name": "solc",
    "version": "0.8.14+commit.80d49f37.Emscripten.clang"
  },
  "schemaVersion": "3.4.3",
  "updatedAt": "2022-05-21T16:26:27.243Z",
  "networkType": "ethereum",
  "devdoc": {
    "custom:security-contact": "eight@moret.io",
    "kind": "dev",
    "methods": {
      "getRoleAdmin(bytes32)": {
        "details": "Returns the admin role that controls `role`. See {grantRole} and {revokeRole}. To change a role's admin, use {_setRoleAdmin}."
      },
      "grantRole(bytes32,address)": {
        "details": "Grants `role` to `account`. If `account` had not been already granted `role`, emits a {RoleGranted} event. Requirements: - the caller must have ``role``'s admin role."
      },
      "hasRole(bytes32,address)": {
        "details": "Returns `true` if `account` has been granted `role`."
      },
      "renounceRole(bytes32,address)": {
        "details": "Revokes `role` from the calling account. Roles are often managed via {grantRole} and {revokeRole}: this function's purpose is to provide a mechanism for accounts to lose their privileges if they are compromised (such as when a trusted device is misplaced). If the calling account had been revoked `role`, emits a {RoleRevoked} event. Requirements: - the caller must be `account`."
      },
      "revokeRole(bytes32,address)": {
        "details": "Revokes `role` from `account`. If `account` had been granted `role`, emits a {RoleRevoked} event. Requirements: - the caller must have ``role``'s admin role."
      },
      "supportsInterface(bytes4)": {
        "details": "See {IERC165-supportsInterface}."
      }
    },
    "version": 1
  },
  "userdoc": {
    "kind": "user",
    "methods": {},
    "version": 1
  }
}