{
  "contractName": "MoretMarketMaker",
  "abi": [
    {
      "inputs": [
        {
          "internalType": "string",
          "name": "_name",
          "type": "string"
        },
        {
          "internalType": "string",
          "name": "_symbol",
          "type": "string"
        },
        {
          "internalType": "address",
          "name": "_optionAddress",
          "type": "address"
        }
      ],
      "stateMutability": "nonpayable",
      "type": "constructor"
    },
    {
      "anonymous": false,
      "inputs": [
        {
          "indexed": true,
          "internalType": "address",
          "name": "owner",
          "type": "address"
        },
        {
          "indexed": true,
          "internalType": "address",
          "name": "spender",
          "type": "address"
        },
        {
          "indexed": false,
          "internalType": "uint256",
          "name": "value",
          "type": "uint256"
        }
      ],
      "name": "Approval",
      "type": "event"
    },
    {
      "anonymous": false,
      "inputs": [
        {
          "indexed": true,
          "internalType": "bytes32",
          "name": "role",
          "type": "bytes32"
        },
        {
          "indexed": true,
          "internalType": "bytes32",
          "name": "previousAdminRole",
          "type": "bytes32"
        },
        {
          "indexed": true,
          "internalType": "bytes32",
          "name": "newAdminRole",
          "type": "bytes32"
        }
      ],
      "name": "RoleAdminChanged",
      "type": "event"
    },
    {
      "anonymous": false,
      "inputs": [
        {
          "indexed": true,
          "internalType": "bytes32",
          "name": "role",
          "type": "bytes32"
        },
        {
          "indexed": true,
          "internalType": "address",
          "name": "account",
          "type": "address"
        },
        {
          "indexed": true,
          "internalType": "address",
          "name": "sender",
          "type": "address"
        }
      ],
      "name": "RoleGranted",
      "type": "event"
    },
    {
      "anonymous": false,
      "inputs": [
        {
          "indexed": true,
          "internalType": "bytes32",
          "name": "role",
          "type": "bytes32"
        },
        {
          "indexed": true,
          "internalType": "address",
          "name": "account",
          "type": "address"
        },
        {
          "indexed": true,
          "internalType": "address",
          "name": "sender",
          "type": "address"
        }
      ],
      "name": "RoleRevoked",
      "type": "event"
    },
    {
      "anonymous": false,
      "inputs": [
        {
          "indexed": true,
          "internalType": "address",
          "name": "from",
          "type": "address"
        },
        {
          "indexed": true,
          "internalType": "address",
          "name": "to",
          "type": "address"
        },
        {
          "indexed": false,
          "internalType": "uint256",
          "name": "value",
          "type": "uint256"
        }
      ],
      "name": "Transfer",
      "type": "event"
    },
    {
      "anonymous": false,
      "inputs": [
        {
          "indexed": false,
          "internalType": "address",
          "name": "_recipient",
          "type": "address"
        },
        {
          "indexed": false,
          "internalType": "uint256",
          "name": "_mintMPTokenAmount",
          "type": "uint256"
        },
        {
          "indexed": false,
          "internalType": "uint256",
          "name": "_addedValue",
          "type": "uint256"
        }
      ],
      "name": "capitalAdded",
      "type": "event"
    },
    {
      "anonymous": false,
      "inputs": [
        {
          "indexed": false,
          "internalType": "address",
          "name": "_recipient",
          "type": "address"
        },
        {
          "indexed": false,
          "internalType": "uint256",
          "name": "_burnMPTokenAmount",
          "type": "uint256"
        },
        {
          "indexed": false,
          "internalType": "uint256",
          "name": "_withdrawValue",
          "type": "uint256"
        }
      ],
      "name": "capitalWithdrawn",
      "type": "event"
    },
    {
      "anonymous": false,
      "inputs": [
        {
          "indexed": true,
          "internalType": "address",
          "name": "_purchaser",
          "type": "address"
        },
        {
          "components": [
            {
              "internalType": "enum OptionLibrary.PayoffType",
              "name": "poType",
              "type": "uint8"
            },
            {
              "internalType": "enum OptionLibrary.OptionSide",
              "name": "side",
              "type": "uint8"
            },
            {
              "internalType": "enum OptionLibrary.OptionStatus",
              "name": "status",
              "type": "uint8"
            },
            {
              "internalType": "address",
              "name": "holder",
              "type": "address"
            },
            {
              "internalType": "uint256",
              "name": "id",
              "type": "uint256"
            },
            {
              "internalType": "uint256",
              "name": "createTime",
              "type": "uint256"
            },
            {
              "internalType": "uint256",
              "name": "effectiveTime",
              "type": "uint256"
            },
            {
              "internalType": "uint256",
              "name": "tenor",
              "type": "uint256"
            },
            {
              "internalType": "uint256",
              "name": "maturity",
              "type": "uint256"
            },
            {
              "internalType": "uint256",
              "name": "exerciseTime",
              "type": "uint256"
            },
            {
              "internalType": "uint256",
              "name": "amount",
              "type": "uint256"
            },
            {
              "internalType": "uint256",
              "name": "spot",
              "type": "uint256"
            },
            {
              "internalType": "uint256",
              "name": "strike",
              "type": "uint256"
            },
            {
              "internalType": "uint256",
              "name": "volatility",
              "type": "uint256"
            },
            {
              "internalType": "uint256",
              "name": "premium",
              "type": "uint256"
            },
            {
              "internalType": "uint256",
              "name": "cost",
              "type": "uint256"
            }
          ],
          "indexed": false,
          "internalType": "struct OptionLibrary.Option",
          "name": "_option",
          "type": "tuple"
        },
        {
          "indexed": false,
          "internalType": "uint256",
          "name": "_cost",
          "type": "uint256"
        },
        {
          "indexed": false,
          "internalType": "bool",
          "name": "_inVol",
          "type": "bool"
        }
      ],
      "name": "newOptionBought",
      "type": "event"
    },
    {
      "anonymous": false,
      "inputs": [
        {
          "indexed": true,
          "internalType": "address",
          "name": "_purchaser",
          "type": "address"
        },
        {
          "components": [
            {
              "internalType": "enum OptionLibrary.PayoffType",
              "name": "poType",
              "type": "uint8"
            },
            {
              "internalType": "enum OptionLibrary.OptionSide",
              "name": "side",
              "type": "uint8"
            },
            {
              "internalType": "enum OptionLibrary.OptionStatus",
              "name": "status",
              "type": "uint8"
            },
            {
              "internalType": "address",
              "name": "holder",
              "type": "address"
            },
            {
              "internalType": "uint256",
              "name": "id",
              "type": "uint256"
            },
            {
              "internalType": "uint256",
              "name": "createTime",
              "type": "uint256"
            },
            {
              "internalType": "uint256",
              "name": "effectiveTime",
              "type": "uint256"
            },
            {
              "internalType": "uint256",
              "name": "tenor",
              "type": "uint256"
            },
            {
              "internalType": "uint256",
              "name": "maturity",
              "type": "uint256"
            },
            {
              "internalType": "uint256",
              "name": "exerciseTime",
              "type": "uint256"
            },
            {
              "internalType": "uint256",
              "name": "amount",
              "type": "uint256"
            },
            {
              "internalType": "uint256",
              "name": "spot",
              "type": "uint256"
            },
            {
              "internalType": "uint256",
              "name": "strike",
              "type": "uint256"
            },
            {
              "internalType": "uint256",
              "name": "volatility",
              "type": "uint256"
            },
            {
              "internalType": "uint256",
              "name": "premium",
              "type": "uint256"
            },
            {
              "internalType": "uint256",
              "name": "cost",
              "type": "uint256"
            }
          ],
          "indexed": false,
          "internalType": "struct OptionLibrary.Option",
          "name": "_option",
          "type": "tuple"
        },
        {
          "indexed": false,
          "internalType": "uint256",
          "name": "_payoff",
          "type": "uint256"
        }
      ],
      "name": "optionExercised",
      "type": "event"
    },
    {
      "anonymous": false,
      "inputs": [
        {
          "indexed": false,
          "internalType": "address",
          "name": "_purchaser",
          "type": "address"
        },
        {
          "indexed": false,
          "internalType": "uint256",
          "name": "_time",
          "type": "uint256"
        },
        {
          "indexed": false,
          "internalType": "uint256",
          "name": "_tenor",
          "type": "uint256"
        },
        {
          "indexed": false,
          "internalType": "uint256",
          "name": "_amount",
          "type": "uint256"
        },
        {
          "indexed": false,
          "internalType": "uint256",
          "name": "_cost",
          "type": "uint256"
        }
      ],
      "name": "volatilityTokenBought",
      "type": "event"
    },
    {
      "anonymous": false,
      "inputs": [
        {
          "indexed": false,
          "internalType": "address",
          "name": "_seller",
          "type": "address"
        },
        {
          "indexed": false,
          "internalType": "uint256",
          "name": "_time",
          "type": "uint256"
        },
        {
          "indexed": false,
          "internalType": "uint256",
          "name": "_tenor",
          "type": "uint256"
        },
        {
          "indexed": false,
          "internalType": "uint256",
          "name": "_amount",
          "type": "uint256"
        },
        {
          "indexed": false,
          "internalType": "uint256",
          "name": "_cost",
          "type": "uint256"
        }
      ],
      "name": "volatilityTokenSold",
      "type": "event"
    },
    {
      "inputs": [],
      "name": "ADMIN_ROLE",
      "outputs": [
        {
          "internalType": "bytes32",
          "name": "",
          "type": "bytes32"
        }
      ],
      "stateMutability": "view",
      "type": "function",
      "constant": true
    },
    {
      "inputs": [],
      "name": "DEFAULT_ADMIN_ROLE",
      "outputs": [
        {
          "internalType": "bytes32",
          "name": "",
          "type": "bytes32"
        }
      ],
      "stateMutability": "view",
      "type": "function",
      "constant": true
    },
    {
      "inputs": [],
      "name": "EXCHANGE_ROLE",
      "outputs": [
        {
          "internalType": "bytes32",
          "name": "",
          "type": "bytes32"
        }
      ],
      "stateMutability": "view",
      "type": "function",
      "constant": true
    },
    {
      "inputs": [
        {
          "internalType": "address",
          "name": "owner",
          "type": "address"
        },
        {
          "internalType": "address",
          "name": "spender",
          "type": "address"
        }
      ],
      "name": "allowance",
      "outputs": [
        {
          "internalType": "uint256",
          "name": "",
          "type": "uint256"
        }
      ],
      "stateMutability": "view",
      "type": "function",
      "constant": true
    },
    {
      "inputs": [
        {
          "internalType": "address",
          "name": "spender",
          "type": "address"
        },
        {
          "internalType": "uint256",
          "name": "amount",
          "type": "uint256"
        }
      ],
      "name": "approve",
      "outputs": [
        {
          "internalType": "bool",
          "name": "",
          "type": "bool"
        }
      ],
      "stateMutability": "nonpayable",
      "type": "function"
    },
    {
      "inputs": [
        {
          "internalType": "address",
          "name": "account",
          "type": "address"
        }
      ],
      "name": "balanceOf",
      "outputs": [
        {
          "internalType": "uint256",
          "name": "",
          "type": "uint256"
        }
      ],
      "stateMutability": "view",
      "type": "function",
      "constant": true
    },
    {
      "inputs": [],
      "name": "decimals",
      "outputs": [
        {
          "internalType": "uint8",
          "name": "",
          "type": "uint8"
        }
      ],
      "stateMutability": "view",
      "type": "function",
      "constant": true
    },
    {
      "inputs": [
        {
          "internalType": "address",
          "name": "spender",
          "type": "address"
        },
        {
          "internalType": "uint256",
          "name": "subtractedValue",
          "type": "uint256"
        }
      ],
      "name": "decreaseAllowance",
      "outputs": [
        {
          "internalType": "bool",
          "name": "",
          "type": "bool"
        }
      ],
      "stateMutability": "nonpayable",
      "type": "function"
    },
    {
      "inputs": [],
      "name": "exerciseFee",
      "outputs": [
        {
          "internalType": "uint256",
          "name": "",
          "type": "uint256"
        }
      ],
      "stateMutability": "view",
      "type": "function",
      "constant": true
    },
    {
      "inputs": [
        {
          "internalType": "bytes32",
          "name": "role",
          "type": "bytes32"
        }
      ],
      "name": "getRoleAdmin",
      "outputs": [
        {
          "internalType": "bytes32",
          "name": "",
          "type": "bytes32"
        }
      ],
      "stateMutability": "view",
      "type": "function",
      "constant": true
    },
    {
      "inputs": [
        {
          "internalType": "bytes32",
          "name": "role",
          "type": "bytes32"
        },
        {
          "internalType": "address",
          "name": "account",
          "type": "address"
        }
      ],
      "name": "grantRole",
      "outputs": [],
      "stateMutability": "nonpayable",
      "type": "function"
    },
    {
      "inputs": [
        {
          "internalType": "bytes32",
          "name": "role",
          "type": "bytes32"
        },
        {
          "internalType": "address",
          "name": "account",
          "type": "address"
        }
      ],
      "name": "hasRole",
      "outputs": [
        {
          "internalType": "bool",
          "name": "",
          "type": "bool"
        }
      ],
      "stateMutability": "view",
      "type": "function",
      "constant": true
    },
    {
      "inputs": [
        {
          "internalType": "address",
          "name": "spender",
          "type": "address"
        },
        {
          "internalType": "uint256",
          "name": "addedValue",
          "type": "uint256"
        }
      ],
      "name": "increaseAllowance",
      "outputs": [
        {
          "internalType": "bool",
          "name": "",
          "type": "bool"
        }
      ],
      "stateMutability": "nonpayable",
      "type": "function"
    },
    {
      "inputs": [],
      "name": "lendingPoolRateMode",
      "outputs": [
        {
          "internalType": "uint256",
          "name": "",
          "type": "uint256"
        }
      ],
      "stateMutability": "view",
      "type": "function",
      "constant": true
    },
    {
      "inputs": [],
      "name": "maintenanceAddress",
      "outputs": [
        {
          "internalType": "address",
          "name": "",
          "type": "address"
        }
      ],
      "stateMutability": "view",
      "type": "function",
      "constant": true
    },
    {
      "inputs": [],
      "name": "name",
      "outputs": [
        {
          "internalType": "string",
          "name": "",
          "type": "string"
        }
      ],
      "stateMutability": "view",
      "type": "function",
      "constant": true
    },
    {
      "inputs": [
        {
          "internalType": "bytes32",
          "name": "role",
          "type": "bytes32"
        },
        {
          "internalType": "address",
          "name": "account",
          "type": "address"
        }
      ],
      "name": "renounceRole",
      "outputs": [],
      "stateMutability": "nonpayable",
      "type": "function"
    },
    {
      "inputs": [
        {
          "internalType": "bytes32",
          "name": "role",
          "type": "bytes32"
        },
        {
          "internalType": "address",
          "name": "account",
          "type": "address"
        }
      ],
      "name": "revokeRole",
      "outputs": [],
      "stateMutability": "nonpayable",
      "type": "function"
    },
    {
      "inputs": [],
      "name": "settlementFee",
      "outputs": [
        {
          "internalType": "uint256",
          "name": "",
          "type": "uint256"
        }
      ],
      "stateMutability": "view",
      "type": "function",
      "constant": true
    },
    {
      "inputs": [
        {
          "internalType": "bytes4",
          "name": "interfaceId",
          "type": "bytes4"
        }
      ],
      "name": "supportsInterface",
      "outputs": [
        {
          "internalType": "bool",
          "name": "",
          "type": "bool"
        }
      ],
      "stateMutability": "view",
      "type": "function",
      "constant": true
    },
    {
      "inputs": [],
      "name": "swapSlippage",
      "outputs": [
        {
          "internalType": "uint256",
          "name": "",
          "type": "uint256"
        }
      ],
      "stateMutability": "view",
      "type": "function",
      "constant": true
    },
    {
      "inputs": [],
      "name": "symbol",
      "outputs": [
        {
          "internalType": "string",
          "name": "",
          "type": "string"
        }
      ],
      "stateMutability": "view",
      "type": "function",
      "constant": true
    },
    {
      "inputs": [],
      "name": "totalSupply",
      "outputs": [
        {
          "internalType": "uint256",
          "name": "",
          "type": "uint256"
        }
      ],
      "stateMutability": "view",
      "type": "function",
      "constant": true
    },
    {
      "inputs": [
        {
          "internalType": "address",
          "name": "recipient",
          "type": "address"
        },
        {
          "internalType": "uint256",
          "name": "amount",
          "type": "uint256"
        }
      ],
      "name": "transfer",
      "outputs": [
        {
          "internalType": "bool",
          "name": "",
          "type": "bool"
        }
      ],
      "stateMutability": "nonpayable",
      "type": "function"
    },
    {
      "inputs": [
        {
          "internalType": "address",
          "name": "sender",
          "type": "address"
        },
        {
          "internalType": "address",
          "name": "recipient",
          "type": "address"
        },
        {
          "internalType": "uint256",
          "name": "amount",
          "type": "uint256"
        }
      ],
      "name": "transferFrom",
      "outputs": [
        {
          "internalType": "bool",
          "name": "",
          "type": "bool"
        }
      ],
      "stateMutability": "nonpayable",
      "type": "function"
    },
    {
      "inputs": [
        {
          "internalType": "address",
          "name": "exerciseFeeRecipient",
          "type": "address"
        }
      ],
      "name": "expireOptions",
      "outputs": [],
      "stateMutability": "nonpayable",
      "type": "function"
    },
    {
      "inputs": [
        {
          "internalType": "bool",
          "name": "_net",
          "type": "bool"
        },
        {
          "internalType": "bool",
          "name": "_average",
          "type": "bool"
        }
      ],
      "name": "calcCapital",
      "outputs": [
        {
          "internalType": "uint256",
          "name": "_capital",
          "type": "uint256"
        }
      ],
      "stateMutability": "view",
      "type": "function",
      "constant": true
    },
    {
      "inputs": [
        {
          "internalType": "uint256",
          "name": "_depositAmount",
          "type": "uint256"
        }
      ],
      "name": "addCapital",
      "outputs": [],
      "stateMutability": "nonpayable",
      "type": "function"
    },
    {
      "inputs": [
        {
          "internalType": "uint256",
          "name": "_burnMPTokenAmount",
          "type": "uint256"
        }
      ],
      "name": "withdrawCapital",
      "outputs": [],
      "stateMutability": "nonpayable",
      "type": "function"
    },
    {
      "inputs": [
        {
          "internalType": "address",
          "name": "_tokenAddress",
          "type": "address"
        },
        {
          "internalType": "address",
          "name": "_spenderAddress",
          "type": "address"
        },
        {
          "internalType": "uint256",
          "name": "_amount",
          "type": "uint256"
        }
      ],
      "name": "approveSpending",
      "outputs": [],
      "stateMutability": "nonpayable",
      "type": "function"
    },
    {
      "inputs": [
        {
          "internalType": "int256",
          "name": "_underlyingAmt",
          "type": "int256"
        },
        {
          "internalType": "int256",
          "name": "_fundingAmt",
          "type": "int256"
        },
        {
          "internalType": "address",
          "name": "_router",
          "type": "address"
        },
        {
          "internalType": "uint256",
          "name": "_parameter",
          "type": "uint256"
        },
        {
          "internalType": "bool",
          "name": "_useAggregator",
          "type": "bool"
        }
      ],
      "name": "tradesSwaps",
      "outputs": [],
      "stateMutability": "nonpayable",
      "type": "function"
    },
    {
      "inputs": [],
      "name": "hedgeTradesForLoans",
      "outputs": [],
      "stateMutability": "nonpayable",
      "type": "function"
    },
    {
      "inputs": [
        {
          "internalType": "uint256",
          "name": "_newFee",
          "type": "uint256"
        }
      ],
      "name": "resetSettlementFee",
      "outputs": [],
      "stateMutability": "nonpayable",
      "type": "function"
    },
    {
      "inputs": [
        {
          "internalType": "uint256",
          "name": "_newFee",
          "type": "uint256"
        }
      ],
      "name": "resetExerciseFee",
      "outputs": [],
      "stateMutability": "nonpayable",
      "type": "function"
    },
    {
      "inputs": [
        {
          "internalType": "address",
          "name": "_newAddress",
          "type": "address"
        }
      ],
      "name": "resetMaintenance",
      "outputs": [],
      "stateMutability": "nonpayable",
      "type": "function"
    },
    {
      "inputs": [
        {
          "internalType": "uint256",
          "name": "_slippage",
          "type": "uint256"
        }
      ],
      "name": "resetSlippage",
      "outputs": [],
      "stateMutability": "nonpayable",
      "type": "function"
    }
  ],
  "bytecode": "0x60806040526611c37937e080006007556611c37937e080006008556002600d556611c37937e08000600e553480156200003757600080fd5b50604051620063c3380380620063c383398181016040528101906200005d919062000979565b8282816003908051906020019062000077929190620006c7565b50806004908051906020019062000090929190620006c7565b505050620000a86000801b33620003c960201b60201c565b620000da7fa49807205ce4d355092ef5a8a18f56e8913cf4a201fbe287825b095693c2177533620003c960201b60201c565b6200010c7f28d62fc77014de57a1bbaa8212ff0979fa61ab00d377b4b8d9762048fb41996133620003c960201b60201c565b33600c60006101000a81548173ffffffffffffffffffffffffffffffffffffffff021916908373ffffffffffffffffffffffffffffffffffffffff16021790555080600960006101000a81548173ffffffffffffffffffffffffffffffffffffffff021916908373ffffffffffffffffffffffffffffffffffffffff16021790555073__OptionLibrary_________________________63fd9b87636040518163ffffffff1660e01b8152600401602060405180830381865af4158015620001d8573d6000803e3d6000fd5b505050506040513d601f19601f82011682018060405250810190620001fe919062000a4e565b600681905550600960009054906101000a900473ffffffffffffffffffffffffffffffffffffffff1673ffffffffffffffffffffffffffffffffffffffff16636f307dc36040518163ffffffff1660e01b8152600401602060405180830381865afa15801562000272573d6000803e3d6000fd5b505050506040513d601f19601f8201168201806040525081019062000298919062000a80565b600a60006101000a81548173ffffffffffffffffffffffffffffffffffffffff021916908373ffffffffffffffffffffffffffffffffffffffff160217905550600960009054906101000a900473ffffffffffffffffffffffffffffffffffffffff1673ffffffffffffffffffffffffffffffffffffffff1663cb4c86b76040518163ffffffff1660e01b8152600401602060405180830381865afa15801562000346573d6000803e3d6000fd5b505050506040513d601f19601f820116820180604052508101906200036c919062000a80565b600b60006101000a81548173ffffffffffffffffffffffffffffffffffffffff021916908373ffffffffffffffffffffffffffffffffffffffff160217905550620003c033600654620003df60201b60201c565b50505062000c54565b620003db82826200055860201b60201c565b5050565b600073ffffffffffffffffffffffffffffffffffffffff168273ffffffffffffffffffffffffffffffffffffffff16141562000452576040517f08c379a0000000000000000000000000000000000000000000000000000000008152600401620004499062000b13565b60405180910390fd5b62000466600083836200064a60201b60201c565b80600260008282546200047a919062000b64565b92505081905550806000808473ffffffffffffffffffffffffffffffffffffffff1673ffffffffffffffffffffffffffffffffffffffff1681526020019081526020016000206000828254620004d1919062000b64565b925050819055508173ffffffffffffffffffffffffffffffffffffffff16600073ffffffffffffffffffffffffffffffffffffffff167fddf252ad1be2c89b69c2b068fc378daa952ba7f163c4a11628f55a4df523b3ef8360405162000538919062000bd2565b60405180910390a362000554600083836200064f60201b60201c565b5050565b6200056a82826200065460201b60201c565b620006465760016005600084815260200190815260200160002060000160008373ffffffffffffffffffffffffffffffffffffffff1673ffffffffffffffffffffffffffffffffffffffff16815260200190815260200160002060006101000a81548160ff021916908315150217905550620005eb620006bf60201b60201c565b73ffffffffffffffffffffffffffffffffffffffff168173ffffffffffffffffffffffffffffffffffffffff16837f2f8788117e7eff1d82e926ec794901d17c78024a50270940304540a733656f0d60405160405180910390a45b5050565b505050565b505050565b60006005600084815260200190815260200160002060000160008373ffffffffffffffffffffffffffffffffffffffff1673ffffffffffffffffffffffffffffffffffffffff16815260200190815260200160002060009054906101000a900460ff16905092915050565b600033905090565b828054620006d59062000c1e565b90600052602060002090601f016020900481019282620006f9576000855562000745565b82601f106200071457805160ff191683800117855562000745565b8280016001018555821562000745579182015b828111156200074457825182559160200191906001019062000727565b5b50905062000754919062000758565b5090565b5b808211156200077357600081600090555060010162000759565b5090565b6000604051905090565b600080fd5b600080fd5b600080fd5b600080fd5b6000601f19601f8301169050919050565b7f4e487b7100000000000000000000000000000000000000000000000000000000600052604160045260246000fd5b620007e08262000795565b810181811067ffffffffffffffff82111715620008025762000801620007a6565b5b80604052505050565b60006200081762000777565b9050620008258282620007d5565b919050565b600067ffffffffffffffff821115620008485762000847620007a6565b5b620008538262000795565b9050602081019050919050565b60005b838110156200088057808201518184015260208101905062000863565b8381111562000890576000848401525b50505050565b6000620008ad620008a7846200082a565b6200080b565b905082815260208101848484011115620008cc57620008cb62000790565b5b620008d984828562000860565b509392505050565b600082601f830112620008f957620008f86200078b565b5b81516200090b84826020860162000896565b91505092915050565b600073ffffffffffffffffffffffffffffffffffffffff82169050919050565b6000620009418262000914565b9050919050565b620009538162000934565b81146200095f57600080fd5b50565b600081519050620009738162000948565b92915050565b60008060006060848603121562000995576200099462000781565b5b600084015167ffffffffffffffff811115620009b657620009b562000786565b5b620009c486828701620008e1565b935050602084015167ffffffffffffffff811115620009e857620009e762000786565b5b620009f686828701620008e1565b925050604062000a098682870162000962565b9150509250925092565b6000819050919050565b62000a288162000a13565b811462000a3457600080fd5b50565b60008151905062000a488162000a1d565b92915050565b60006020828403121562000a675762000a6662000781565b5b600062000a778482850162000a37565b91505092915050565b60006020828403121562000a995762000a9862000781565b5b600062000aa98482850162000962565b91505092915050565b600082825260208201905092915050565b7f45524332303a206d696e7420746f20746865207a65726f206164647265737300600082015250565b600062000afb601f8362000ab2565b915062000b088262000ac3565b602082019050919050565b6000602082019050818103600083015262000b2e8162000aec565b9050919050565b7f4e487b7100000000000000000000000000000000000000000000000000000000600052601160045260246000fd5b600062000b718262000a13565b915062000b7e8362000a13565b9250827fffffffffffffffffffffffffffffffffffffffffffffffffffffffffffffffff0382111562000bb65762000bb562000b35565b5b828201905092915050565b62000bcc8162000a13565b82525050565b600060208201905062000be9600083018462000bc1565b92915050565b7f4e487b7100000000000000000000000000000000000000000000000000000000600052602260045260246000fd5b6000600282049050600182168062000c3757607f821691505b6020821081141562000c4e5762000c4d62000bef565b5b50919050565b61575f8062000c646000396000f3fe608060405234801561001057600080fd5b506004361061021c5760003560e01c806370a0823111610125578063b82e106d116100ad578063d8a14cbe1161007c578063d8a14cbe14610653578063d95b0a121461066f578063dd62ed3e1461068b578063e3f828fa146106bb578063ecc513f0146106d75761021c565b8063b82e106d146105df578063bea10f96146105fd578063d1c699aa14610619578063d547741f146106375761021c565b806391d14854116100f457806391d148541461051357806395d89b4114610543578063a217fddf14610561578063a457c2d71461057f578063a9059cbb146105af5761021c565b806370a0823114610489578063719d5f83146104b957806375b238fc146104d75780637d1d7fb8146104f55761021c565b8063313ce567116101a8578063395093511161017757806339509351146103d35780633b7345011461040357806345b2f91c1461042157806346c777d81461043d57806363447902146104595761021c565b8063313ce5671461037357806333d0d83c1461039157806336568abe146103ad5780633733116d146103c95761021c565b806318160ddd116101ef57806318160ddd146102bb5780631aedeabe146102d957806323b872dd146102f7578063248a9ca3146103275780632f2ff15d146103575761021c565b806301ffc9a71461022157806306fdde031461025157806307ba08ce1461026f578063095ea7b31461028b575b600080fd5b61023b60048036038101906102369190613b98565b6106f3565b6040516102489190613be0565b60405180910390f35b61025961076d565b6040516102669190613c94565b60405180910390f35b61028960048036038101906102849190613d14565b6107ff565b005b6102a560048036038101906102a09190613d77565b6110e1565b6040516102b29190613be0565b60405180910390f35b6102c36110ff565b6040516102d09190613dc6565b60405180910390f35b6102e1611109565b6040516102ee9190613dc6565b60405180910390f35b610311600480360381019061030c9190613de1565b61110f565b60405161031e9190613be0565b60405180910390f35b610341600480360381019061033c9190613e6a565b611207565b60405161034e9190613ea6565b60405180910390f35b610371600480360381019061036c9190613ec1565b611227565b005b61037b611250565b6040516103889190613f1d565b60405180910390f35b6103ab60048036038101906103a69190613f9a565b611259565b005b6103c760048036038101906103c29190613ec1565b61146c565b005b6103d16114ef565b005b6103ed60048036038101906103e89190613d77565b611dc4565b6040516103fa9190613be0565b60405180910390f35b61040b611e70565b6040516104189190613ea6565b60405180910390f35b61043b60048036038101906104369190613d14565b611e94565b005b61045760048036038101906104529190614015565b611f0b565b005b610473600480360381019061046e9190614042565b611f56565b6040516104809190613dc6565b60405180910390f35b6104a3600480360381019061049e9190613d14565b6120fa565b6040516104b09190613dc6565b60405180910390f35b6104c1612142565b6040516104ce9190614091565b60405180910390f35b6104df612168565b6040516104ec9190613ea6565b60405180910390f35b6104fd61218c565b60405161050a9190613dc6565b60405180910390f35b61052d60048036038101906105289190613ec1565b612192565b60405161053a9190613be0565b60405180910390f35b61054b6121fd565b6040516105589190613c94565b60405180910390f35b61056961228f565b6040516105769190613ea6565b60405180910390f35b61059960048036038101906105949190613d77565b612296565b6040516105a69190613be0565b60405180910390f35b6105c960048036038101906105c49190613d77565b612381565b6040516105d69190613be0565b60405180910390f35b6105e761239f565b6040516105f49190613dc6565b60405180910390f35b61061760048036038101906106129190614015565b6123a5565b005b610621612550565b60405161062e9190613dc6565b60405180910390f35b610651600480360381019061064c9190613ec1565b612556565b005b61066d60048036038101906106689190613de1565b61257f565b005b61068960048036038101906106849190614015565b612636565b005b6106a560048036038101906106a091906140ac565b6128bb565b6040516106b29190613dc6565b60405180910390f35b6106d560048036038101906106d09190614015565b612942565b005b6106f160048036038101906106ec9190614015565b61297f565b005b60007f7965db0b000000000000000000000000000000000000000000000000000000007bffffffffffffffffffffffffffffffffffffffffffffffffffffffff1916827bffffffffffffffffffffffffffffffffffffffffffffffffffffffff191614806107665750610765826129ca565b5b9050919050565b60606003805461077c9061411b565b80601f01602080910402602001604051908101604052809291908181526020018280546107a89061411b565b80156107f55780601f106107ca576101008083540402835291602001916107f5565b820191906000526020600020905b8154815290600101906020018083116107d857829003601f168201915b5050505050905090565b6000600960009054906101000a900473ffffffffffffffffffffffffffffffffffffffff1673ffffffffffffffffffffffffffffffffffffffff16637652e7c46040518163ffffffff1660e01b8152600401602060405180830381865afa15801561086e573d6000803e3d6000fd5b505050506040513d601f19601f820116820180604052508101906108929190614162565b90505b60008111156110dd57600960009054906101000a900473ffffffffffffffffffffffffffffffffffffffff1673ffffffffffffffffffffffffffffffffffffffff1663637baf60826040518263ffffffff1660e01b81526004016108f99190613dc6565b600060405180830381600087803b15801561091357600080fd5b505af1158015610927573d6000803e3d6000fd5b50505050600080600960009054906101000a900473ffffffffffffffffffffffffffffffffffffffff1673ffffffffffffffffffffffffffffffffffffffff166385ae10e6846040518263ffffffff1660e01b81526004016109899190613dc6565b6040805180830381865afa1580156109a5573d6000803e3d6000fd5b505050506040513d601f19601f820116820180604052508101906109c9919061418f565b9150915073__MarketLibrary_________________________63eea2526b600b60009054906101000a900473ffffffffffffffffffffffffffffffffffffffff16306040518363ffffffff1660e01b8152600401610a289291906141de565b602060405180830381865af4158015610a45573d6000803e3d6000fd5b505050506040513d601f19601f82011682018060405250810190610a699190614162565b8110610aaa576040517f08c379a0000000000000000000000000000000000000000000000000000000008152600401610aa190614253565b60405180910390fd5b6000811115611043576000818314610ac25781610aec565b610aeb82600854600754600654610ad991906142a2565b610ae391906142a2565b600654612a34565b5b90506000610aff84600754600654612a34565b90506000610b1285600854600654612a34565b9050600b60009054906101000a900473ffffffffffffffffffffffffffffffffffffffff1673ffffffffffffffffffffffffffffffffffffffff1663a9059cbb600960009054906101000a900473ffffffffffffffffffffffffffffffffffffffff1673ffffffffffffffffffffffffffffffffffffffff16631a7985ba896040518263ffffffff1660e01b8152600401610bad9190613dc6565b602060405180830381865afa158015610bca573d6000803e3d6000fd5b505050506040513d601f19601f82011682018060405250810190610bee91906142eb565b73__MarketLibrary_________________________638170ce8087600b60009054906101000a900473ffffffffffffffffffffffffffffffffffffffff166040518363ffffffff1660e01b8152600401610c49929190614327565b602060405180830381865af4158015610c66573d6000803e3d6000fd5b505050506040513d601f19601f82011682018060405250810190610c8a9190614162565b6040518363ffffffff1660e01b8152600401610ca7929190614350565b6020604051808303816000875af1158015610cc6573d6000803e3d6000fd5b505050506040513d601f19601f82011682018060405250810190610cea919061438e565b610d29576040517f08c379a0000000000000000000000000000000000000000000000000000000008152600401610d2090614407565b60405180910390fd5b600b60009054906101000a900473ffffffffffffffffffffffffffffffffffffffff1673ffffffffffffffffffffffffffffffffffffffff1663a9059cbb600c60009054906101000a900473ffffffffffffffffffffffffffffffffffffffff1673__MarketLibrary_________________________638170ce8086600b60009054906101000a900473ffffffffffffffffffffffffffffffffffffffff166040518363ffffffff1660e01b8152600401610de5929190614327565b602060405180830381865af4158015610e02573d6000803e3d6000fd5b505050506040513d601f19601f82011682018060405250810190610e269190614162565b6040518363ffffffff1660e01b8152600401610e43929190614350565b6020604051808303816000875af1158015610e62573d6000803e3d6000fd5b505050506040513d601f19601f82011682018060405250810190610e86919061438e565b610ec5576040517f08c379a0000000000000000000000000000000000000000000000000000000008152600401610ebc90614473565b60405180910390fd5b600b60009054906101000a900473ffffffffffffffffffffffffffffffffffffffff1673ffffffffffffffffffffffffffffffffffffffff1663a9059cbb8873__MarketLibrary_________________________638170ce8085600b60009054906101000a900473ffffffffffffffffffffffffffffffffffffffff166040518363ffffffff1660e01b8152600401610f5f929190614327565b602060405180830381865af4158015610f7c573d6000803e3d6000fd5b505050506040513d601f19601f82011682018060405250810190610fa09190614162565b6040518363ffffffff1660e01b8152600401610fbd929190614350565b6020604051808303816000875af1158015610fdc573d6000803e3d6000fd5b505050506040513d601f19601f82011682018060405250810190611000919061438e565b61103f576040517f08c379a0000000000000000000000000000000000000000000000000000000008152600401611036906144df565b60405180910390fd5b5050505b600960009054906101000a900473ffffffffffffffffffffffffffffffffffffffff1673ffffffffffffffffffffffffffffffffffffffff16637652e7c46040518163ffffffff1660e01b8152600401602060405180830381865afa1580156110b0573d6000803e3d6000fd5b505050506040513d601f19601f820116820180604052508101906110d49190614162565b92505050610895565b5050565b60006110f56110ee612b30565b8484612b38565b6001905092915050565b6000600254905090565b600e5481565b600061111c848484612d03565b6000600160008673ffffffffffffffffffffffffffffffffffffffff1673ffffffffffffffffffffffffffffffffffffffff1681526020019081526020016000206000611167612b30565b73ffffffffffffffffffffffffffffffffffffffff1673ffffffffffffffffffffffffffffffffffffffff168152602001908152602001600020549050828110156111e7576040517f08c379a00000000000000000000000000000000000000000000000000000000081526004016111de90614571565b60405180910390fd5b6111fb856111f3612b30565b858403612b38565b60019150509392505050565b600060056000838152602001908152602001600020600101549050919050565b61123082611207565b6112418161123c612b30565b612f84565b61124b8383613021565b505050565b60006012905090565b7f28d62fc77014de57a1bbaa8212ff0979fa61ab00d377b4b8d9762048fb41996161128b81611286612b30565b612f84565b60008060008073__MarketLibrary_________________________63865c99848b8b600960009054906101000a900473ffffffffffffffffffffffffffffffffffffffff1673ffffffffffffffffffffffffffffffffffffffff16636f307dc36040518163ffffffff1660e01b8152600401602060405180830381865afa15801561131a573d6000803e3d6000fd5b505050506040513d601f19601f8201168201806040525081019061133e91906142eb565b600960009054906101000a900473ffffffffffffffffffffffffffffffffffffffff1673ffffffffffffffffffffffffffffffffffffffff1663cb4c86b76040518163ffffffff1660e01b8152600401602060405180830381865afa1580156113ab573d6000803e3d6000fd5b505050506040513d601f19601f820116820180604052508101906113cf91906142eb565b6040518563ffffffff1660e01b81526004016113ee94939291906145a0565b608060405180830381865af415801561140b573d6000803e3d6000fd5b505050506040513d601f19601f8201168201806040525081019061142f91906145e5565b9350935093509350851561144c5761144b82828a87878c613102565b5b856114605761145f82828a87878c6132ab565b5b50505050505050505050565b611474612b30565b73ffffffffffffffffffffffffffffffffffffffff168173ffffffffffffffffffffffffffffffffffffffff16146114e1576040517f08c379a00000000000000000000000000000000000000000000000000000000081526004016114d8906146be565b60405180910390fd5b6114eb82826134b4565b5050565b7f28d62fc77014de57a1bbaa8212ff0979fa61ab00d377b4b8d9762048fb4199616115218161151c612b30565b612f84565b600080600080600960009054906101000a900473ffffffffffffffffffffffffffffffffffffffff1673ffffffffffffffffffffffffffffffffffffffff166365bf997630600d546040518363ffffffff1660e01b8152600401611586929190614350565b608060405180830381865afa1580156115a3573d6000803e3d6000fd5b505050506040513d601f19601f820116820180604052508101906115c791906146f3565b935093509350935073__MarketLibrary_________________________63aa5c12c785846040518363ffffffff1660e01b815260040161160892919061475a565b602060405180830381865af4158015611625573d6000803e3d6000fd5b505050506040513d601f19601f820116820180604052508101906116499190614783565b935073__MarketLibrary_________________________63aa5c12c784836040518363ffffffff1660e01b815260040161168492919061475a565b602060405180830381865af41580156116a1573d6000803e3d6000fd5b505050506040513d601f19601f820116820180604052508101906116c59190614783565b92506000600960009054906101000a900473ffffffffffffffffffffffffffffffffffffffff1673ffffffffffffffffffffffffffffffffffffffff1663251e1e8a6040518163ffffffff1660e01b8152600401602060405180830381865afa158015611736573d6000803e3d6000fd5b505050506040513d601f19601f8201168201806040525081019061175a91906142eb565b73ffffffffffffffffffffffffffffffffffffffff16630261bf8b6040518163ffffffff1660e01b8152600401602060405180830381865afa1580156117a4573d6000803e3d6000fd5b505050506040513d601f19601f820116820180604052508101906117c891906142eb565b9050600084131561190957600b60009054906101000a900473ffffffffffffffffffffffffffffffffffffffff1673ffffffffffffffffffffffffffffffffffffffff16633950935182866040518363ffffffff1660e01b8152600401611830929190614350565b6020604051808303816000875af115801561184f573d6000803e3d6000fd5b505050506040513d601f19601f82011682018060405250810190611873919061438e565b508073ffffffffffffffffffffffffffffffffffffffff1663e8eda9df600b60009054906101000a900473ffffffffffffffffffffffffffffffffffffffff16863060006040518563ffffffff1660e01b81526004016118d69493929190614803565b600060405180830381600087803b1580156118f057600080fd5b505af1158015611904573d6000803e3d6000fd5b505050505b60008513156119ab578073ffffffffffffffffffffffffffffffffffffffff1663a415bcad600a60009054906101000a900473ffffffffffffffffffffffffffffffffffffffff1687600d546000306040518663ffffffff1660e01b8152600401611978959493929190614848565b600060405180830381600087803b15801561199257600080fd5b505af11580156119a6573d6000803e3d6000fd5b505050505b6000851215611c7e57846119be9061489b565b600a60009054906101000a900473ffffffffffffffffffffffffffffffffffffffff1673ffffffffffffffffffffffffffffffffffffffff166370a08231306040518263ffffffff1660e01b8152600401611a199190614091565b602060405180830381865afa158015611a36573d6000803e3d6000fd5b505050506040513d601f19601f82011682018060405250810190611a5a9190614162565b1015611a9b576040517f08c379a0000000000000000000000000000000000000000000000000000000008152600401611a9290614930565b60405180910390fd5b8273ffffffffffffffffffffffffffffffffffffffff1663095ea7b38287611ac29061489b565b6040518363ffffffff1660e01b8152600401611adf929190614350565b6020604051808303816000875af1158015611afe573d6000803e3d6000fd5b505050506040513d601f19601f82011682018060405250810190611b22919061438e565b50600a60009054906101000a900473ffffffffffffffffffffffffffffffffffffffff1673ffffffffffffffffffffffffffffffffffffffff1663095ea7b38287611b6c9061489b565b6040518363ffffffff1660e01b8152600401611b89929190614350565b6020604051808303816000875af1158015611ba8573d6000803e3d6000fd5b505050506040513d601f19601f82011682018060405250810190611bcc919061438e565b508073ffffffffffffffffffffffffffffffffffffffff1663573ade81600a60009054906101000a900473ffffffffffffffffffffffffffffffffffffffff1687611c169061489b565b600d54306040518563ffffffff1660e01b8152600401611c399493929190614950565b6020604051808303816000875af1158015611c58573d6000803e3d6000fd5b505050506040513d601f19601f82011682018060405250810190611c7c9190614162565b505b6000841215611dbc578173ffffffffffffffffffffffffffffffffffffffff1663395093518286611cae9061489b565b6040518363ffffffff1660e01b8152600401611ccb929190614350565b6020604051808303816000875af1158015611cea573d6000803e3d6000fd5b505050506040513d601f19601f82011682018060405250810190611d0e919061438e565b508073ffffffffffffffffffffffffffffffffffffffff166369328dec600b60009054906101000a900473ffffffffffffffffffffffffffffffffffffffff1686611d589061489b565b306040518463ffffffff1660e01b8152600401611d7793929190614995565b6020604051808303816000875af1158015611d96573d6000803e3d6000fd5b505050506040513d601f19601f82011682018060405250810190611dba9190614162565b505b505050505050565b6000611e66611dd1612b30565b848460016000611ddf612b30565b73ffffffffffffffffffffffffffffffffffffffff1673ffffffffffffffffffffffffffffffffffffffff16815260200190815260200160002060008873ffffffffffffffffffffffffffffffffffffffff1673ffffffffffffffffffffffffffffffffffffffff16815260200190815260200160002054611e6191906149cc565b612b38565b6001905092915050565b7f28d62fc77014de57a1bbaa8212ff0979fa61ab00d377b4b8d9762048fb41996181565b7fa49807205ce4d355092ef5a8a18f56e8913cf4a201fbe287825b095693c21775611ec681611ec1612b30565b612f84565b81600c60006101000a81548173ffffffffffffffffffffffffffffffffffffffff021916908373ffffffffffffffffffffffffffffffffffffffff1602179055505050565b7fa49807205ce4d355092ef5a8a18f56e8913cf4a201fbe287825b095693c21775611f3d81611f38612b30565b612f84565b6006548210611f4b57600080fd5b816007819055505050565b6000600960009054906101000a900473ffffffffffffffffffffffffffffffffffffffff1673ffffffffffffffffffffffffffffffffffffffff16638b83b6b6306040518263ffffffff1660e01b8152600401611fb39190614091565b602060405180830381865afa158015611fd0573d6000803e3d6000fd5b505050506040513d601f19601f82011682018060405250810190611ff49190614162565b905082156120a457612096600960009054906101000a900473ffffffffffffffffffffffffffffffffffffffff1673ffffffffffffffffffffffffffffffffffffffff1663448ba42f6040518163ffffffff1660e01b8152600401602060405180830381865afa15801561206c573d6000803e3d6000fd5b505050506040513d601f19601f820116820180604052508101906120909190614162565b82613596565b816120a191906142a2565b90505b81156120f45760006120b46110ff565b11156120d1576120ce816006546120c96110ff565b612a34565b90505b60006120db6110ff565b1480156120e85750600081145b156120f35760065490505b5b92915050565b60008060008373ffffffffffffffffffffffffffffffffffffffff1673ffffffffffffffffffffffffffffffffffffffff168152602001908152602001600020549050919050565b600c60009054906101000a900473ffffffffffffffffffffffffffffffffffffffff1681565b7fa49807205ce4d355092ef5a8a18f56e8913cf4a201fbe287825b095693c2177581565b60075481565b60006005600084815260200190815260200160002060000160008373ffffffffffffffffffffffffffffffffffffffff1673ffffffffffffffffffffffffffffffffffffffff16815260200190815260200160002060009054906101000a900460ff16905092915050565b60606004805461220c9061411b565b80601f01602080910402602001604051908101604052809291908181526020018280546122389061411b565b80156122855780601f1061225a57610100808354040283529160200191612285565b820191906000526020600020905b81548152906001019060200180831161226857829003601f168201915b5050505050905090565b6000801b81565b600080600160006122a5612b30565b73ffffffffffffffffffffffffffffffffffffffff1673ffffffffffffffffffffffffffffffffffffffff16815260200190815260200160002060008573ffffffffffffffffffffffffffffffffffffffff1673ffffffffffffffffffffffffffffffffffffffff16815260200190815260200160002054905082811015612362576040517f08c379a000000000000000000000000000000000000000000000000000000000815260040161235990614a94565b60405180910390fd5b61237661236d612b30565b85858403612b38565b600191505092915050565b600061239561238e612b30565b8484612d03565b6001905092915050565b600d5481565b600061245a73__MarketLibrary_________________________63f0742a2584600b60009054906101000a900473ffffffffffffffffffffffffffffffffffffffff166040518363ffffffff1660e01b8152600401612405929190614327565b602060405180830381865af4158015612422573d6000803e3d6000fd5b505050506040513d601f19601f820116820180604052508101906124469190614162565b60065461245560006001611f56565b612a34565b9050600b60009054906101000a900473ffffffffffffffffffffffffffffffffffffffff1673ffffffffffffffffffffffffffffffffffffffff166323b872dd3330856040518463ffffffff1660e01b81526004016124bb93929190614ab4565b6020604051808303816000875af11580156124da573d6000803e3d6000fd5b505050506040513d601f19601f820116820180604052508101906124fe919061438e565b61250757600080fd5b61251133826135af565b7fd0d5ca25112902dbbf5a70a67eed6edc7513b74f2a7ec0805ca216c99f981cc133838360405161254493929190614aeb565b60405180910390a15050565b60085481565b61255f82611207565b6125708161256b612b30565b612f84565b61257a83836134b4565b505050565b7f28d62fc77014de57a1bbaa8212ff0979fa61ab00d377b4b8d9762048fb4199616125b1816125ac612b30565b612f84565b8373ffffffffffffffffffffffffffffffffffffffff1663095ea7b384846040518363ffffffff1660e01b81526004016125ec929190614350565b6020604051808303816000875af115801561260b573d6000803e3d6000fd5b505050506040513d601f19601f8201168201806040525081019061262f919061438e565b5050505050565b600073__MarketLibrary_________________________638170ce80612669612660600180611f56565b85600654612a34565b600b60009054906101000a900473ffffffffffffffffffffffffffffffffffffffff166040518363ffffffff1660e01b81526004016126a9929190614327565b602060405180830381865af41580156126c6573d6000803e3d6000fd5b505050506040513d601f19601f820116820180604052508101906126ea9190614162565b905080600b60009054906101000a900473ffffffffffffffffffffffffffffffffffffffff1673ffffffffffffffffffffffffffffffffffffffff166370a08231306040518263ffffffff1660e01b81526004016127489190614091565b602060405180830381865afa158015612765573d6000803e3d6000fd5b505050506040513d601f19601f820116820180604052508101906127899190614162565b116127c9576040517f08c379a00000000000000000000000000000000000000000000000000000000081526004016127c090614b6e565b60405180910390fd5b6127d3338361370f565b600b60009054906101000a900473ffffffffffffffffffffffffffffffffffffffff1673ffffffffffffffffffffffffffffffffffffffff1663a9059cbb33836040518363ffffffff1660e01b8152600401612830929190614350565b6020604051808303816000875af115801561284f573d6000803e3d6000fd5b505050506040513d601f19601f82011682018060405250810190612873919061438e565b61287c57600080fd5b7f3a9e5b3b520d77dc26bf05104c863b6b654d4b96fa8031a783ad0dbd905cdf393383836040516128af93929190614aeb565b60405180910390a15050565b6000600160008473ffffffffffffffffffffffffffffffffffffffff1673ffffffffffffffffffffffffffffffffffffffff16815260200190815260200160002060008373ffffffffffffffffffffffffffffffffffffffff1673ffffffffffffffffffffffffffffffffffffffff16815260200190815260200160002054905092915050565b7fa49807205ce4d355092ef5a8a18f56e8913cf4a201fbe287825b095693c217756129748161296f612b30565b612f84565b81600e819055505050565b7fa49807205ce4d355092ef5a8a18f56e8913cf4a201fbe287825b095693c217756129b1816129ac612b30565b612f84565b60065482106129bf57600080fd5b816008819055505050565b60007f01ffc9a7000000000000000000000000000000000000000000000000000000007bffffffffffffffffffffffffffffffffffffffffffffffffffffffff1916827bffffffffffffffffffffffffffffffffffffffffffffffffffffffff1916149050919050565b600080600080198587098587029250828110838203039150506000811415612a6f5760008411612a6357600080fd5b83820492505050612b29565b808411612a7b57600080fd5b60008486880990508281118203915080830392506000856001877fffffffffffffffffffffffffffffffffffffffffffffffffffffffffffffffff0301169050808604955080840493506001818260000304019050808302841793506000600287600302189050808702600203810290508087026002038102905080870260020381029050808702600203810290508087026002038102905080870260020381029050808502955050505050505b9392505050565b600033905090565b600073ffffffffffffffffffffffffffffffffffffffff168373ffffffffffffffffffffffffffffffffffffffff161415612ba8576040517f08c379a0000000000000000000000000000000000000000000000000000000008152600401612b9f90614c00565b60405180910390fd5b600073ffffffffffffffffffffffffffffffffffffffff168273ffffffffffffffffffffffffffffffffffffffff161415612c18576040517f08c379a0000000000000000000000000000000000000000000000000000000008152600401612c0f90614c92565b60405180910390fd5b80600160008573ffffffffffffffffffffffffffffffffffffffff1673ffffffffffffffffffffffffffffffffffffffff16815260200190815260200160002060008473ffffffffffffffffffffffffffffffffffffffff1673ffffffffffffffffffffffffffffffffffffffff168152602001908152602001600020819055508173ffffffffffffffffffffffffffffffffffffffff168373ffffffffffffffffffffffffffffffffffffffff167f8c5be1e5ebec7d5bd14f71427d1e84f3dd0314c0f7b2291e5b200ac8c7c3b92583604051612cf69190613dc6565b60405180910390a3505050565b600073ffffffffffffffffffffffffffffffffffffffff168373ffffffffffffffffffffffffffffffffffffffff161415612d73576040517f08c379a0000000000000000000000000000000000000000000000000000000008152600401612d6a90614d24565b60405180910390fd5b600073ffffffffffffffffffffffffffffffffffffffff168273ffffffffffffffffffffffffffffffffffffffff161415612de3576040517f08c379a0000000000000000000000000000000000000000000000000000000008152600401612dda90614db6565b60405180910390fd5b612dee8383836138e6565b60008060008573ffffffffffffffffffffffffffffffffffffffff1673ffffffffffffffffffffffffffffffffffffffff16815260200190815260200160002054905081811015612e74576040517f08c379a0000000000000000000000000000000000000000000000000000000008152600401612e6b90614e48565b60405180910390fd5b8181036000808673ffffffffffffffffffffffffffffffffffffffff1673ffffffffffffffffffffffffffffffffffffffff16815260200190815260200160002081905550816000808573ffffffffffffffffffffffffffffffffffffffff1673ffffffffffffffffffffffffffffffffffffffff1681526020019081526020016000206000828254612f0791906149cc565b925050819055508273ffffffffffffffffffffffffffffffffffffffff168473ffffffffffffffffffffffffffffffffffffffff167fddf252ad1be2c89b69c2b068fc378daa952ba7f163c4a11628f55a4df523b3ef84604051612f6b9190613dc6565b60405180910390a3612f7e8484846138eb565b50505050565b612f8e8282612192565b61301d57612fb38173ffffffffffffffffffffffffffffffffffffffff1660146138f0565b612fc18360001c60206138f0565b604051602001612fd2929190614f3c565b6040516020818303038152906040526040517f08c379a00000000000000000000000000000000000000000000000000000000081526004016130149190613c94565b60405180910390fd5b5050565b61302b8282612192565b6130fe5760016005600084815260200190815260200160002060000160008373ffffffffffffffffffffffffffffffffffffffff1673ffffffffffffffffffffffffffffffffffffffff16815260200190815260200160002060006101000a81548160ff0219169083151502179055506130a3612b30565b73ffffffffffffffffffffffffffffffffffffffff168173ffffffffffffffffffffffffffffffffffffffff16837f2f8788117e7eff1d82e926ec794901d17c78024a50270940304540a733656f0d60405160405180910390a45b5050565b8573ffffffffffffffffffffffffffffffffffffffff1663095ea7b385856040518363ffffffff1660e01b815260040161313d929190614350565b6020604051808303816000875af115801561315c573d6000803e3d6000fd5b505050506040513d601f19601f82011682018060405250810190613180919061438e565b506000808573ffffffffffffffffffffffffffffffffffffffff1663085e2c5b8989888760006040518663ffffffff1660e01b81526004016131c6959493929190614ffc565b600060405180830381865afa1580156131e3573d6000803e3d6000fd5b505050506040513d6000823e3d601f19601f8201168201806040525081019061320c9190615197565b915091508573ffffffffffffffffffffffffffffffffffffffff1663e2a7515e898988613239878a613596565b8660006040518763ffffffff1660e01b815260040161325d969594939291906152b1565b6020604051808303816000875af115801561327c573d6000803e3d6000fd5b505050506040513d601f19601f820116820180604052508101906132a09190614162565b505050505050505050565b8573ffffffffffffffffffffffffffffffffffffffff1663095ea7b385856040518363ffffffff1660e01b81526004016132e6929190614350565b6020604051808303816000875af1158015613305573d6000803e3d6000fd5b505050506040513d601f19601f82011682018060405250810190613329919061438e565b506000600267ffffffffffffffff81111561334757613346615054565b5b6040519080825280602002602001820160405280156133755781602001602082028036833780820191505090505b509050868160008151811061338d5761338c615319565b5b602002602001019073ffffffffffffffffffffffffffffffffffffffff16908173ffffffffffffffffffffffffffffffffffffffff168152505085816001815181106133dc576133db615319565b5b602002602001019073ffffffffffffffffffffffffffffffffffffffff16908173ffffffffffffffffffffffffffffffffffffffff16815250508473ffffffffffffffffffffffffffffffffffffffff16638803dbee84868430874261344291906149cc565b6040518663ffffffff1660e01b8152600401613462959493929190615406565b6000604051808303816000875af1158015613481573d6000803e3d6000fd5b505050506040513d6000823e3d601f19601f820116820180604052508101906134aa9190615460565b5050505050505050565b6134be8282612192565b156135925760006005600084815260200190815260200160002060000160008373ffffffffffffffffffffffffffffffffffffffff1673ffffffffffffffffffffffffffffffffffffffff16815260200190815260200160002060006101000a81548160ff021916908315150217905550613537612b30565b73ffffffffffffffffffffffffffffffffffffffff168173ffffffffffffffffffffffffffffffffffffffff16837ff6391f5c32d9c69d2a47ea670b442974b53935d1edc7fd64eb21e047a839171b60405160405180910390a45b5050565b60008183106135a557816135a7565b825b905092915050565b600073ffffffffffffffffffffffffffffffffffffffff168273ffffffffffffffffffffffffffffffffffffffff16141561361f576040517f08c379a0000000000000000000000000000000000000000000000000000000008152600401613616906154f5565b60405180910390fd5b61362b600083836138e6565b806002600082825461363d91906149cc565b92505081905550806000808473ffffffffffffffffffffffffffffffffffffffff1673ffffffffffffffffffffffffffffffffffffffff168152602001908152602001600020600082825461369291906149cc565b925050819055508173ffffffffffffffffffffffffffffffffffffffff16600073ffffffffffffffffffffffffffffffffffffffff167fddf252ad1be2c89b69c2b068fc378daa952ba7f163c4a11628f55a4df523b3ef836040516136f79190613dc6565b60405180910390a361370b600083836138eb565b5050565b600073ffffffffffffffffffffffffffffffffffffffff168273ffffffffffffffffffffffffffffffffffffffff16141561377f576040517f08c379a000000000000000000000000000000000000000000000000000000000815260040161377690615587565b60405180910390fd5b61378b826000836138e6565b60008060008473ffffffffffffffffffffffffffffffffffffffff1673ffffffffffffffffffffffffffffffffffffffff16815260200190815260200160002054905081811015613811576040517f08c379a000000000000000000000000000000000000000000000000000000000815260040161380890615619565b60405180910390fd5b8181036000808573ffffffffffffffffffffffffffffffffffffffff1673ffffffffffffffffffffffffffffffffffffffff16815260200190815260200160002081905550816002600082825461386891906142a2565b92505081905550600073ffffffffffffffffffffffffffffffffffffffff168373ffffffffffffffffffffffffffffffffffffffff167fddf252ad1be2c89b69c2b068fc378daa952ba7f163c4a11628f55a4df523b3ef846040516138cd9190613dc6565b60405180910390a36138e1836000846138eb565b505050565b505050565b505050565b6060600060028360026139039190615639565b61390d91906149cc565b67ffffffffffffffff81111561392657613925615054565b5b6040519080825280601f01601f1916602001820160405280156139585781602001600182028036833780820191505090505b5090507f3000000000000000000000000000000000000000000000000000000000000000816000815181106139905761398f615319565b5b60200101907effffffffffffffffffffffffffffffffffffffffffffffffffffffffffffff1916908160001a9053507f7800000000000000000000000000000000000000000000000000000000000000816001815181106139f4576139f3615319565b5b60200101907effffffffffffffffffffffffffffffffffffffffffffffffffffffffffffff1916908160001a90535060006001846002613a349190615639565b613a3e91906149cc565b90505b6001811115613ade577f3031323334353637383961626364656600000000000000000000000000000000600f861660108110613a8057613a7f615319565b5b1a60f81b828281518110613a9757613a96615319565b5b60200101907effffffffffffffffffffffffffffffffffffffffffffffffffffffffffffff1916908160001a905350600485901c945080613ad790615693565b9050613a41565b5060008414613b22576040517f08c379a0000000000000000000000000000000000000000000000000000000008152600401613b1990615709565b60405180910390fd5b8091505092915050565b6000604051905090565b600080fd5b600080fd5b60007fffffffff0000000000000000000000000000000000000000000000000000000082169050919050565b613b7581613b40565b8114613b8057600080fd5b50565b600081359050613b9281613b6c565b92915050565b600060208284031215613bae57613bad613b36565b5b6000613bbc84828501613b83565b91505092915050565b60008115159050919050565b613bda81613bc5565b82525050565b6000602082019050613bf56000830184613bd1565b92915050565b600081519050919050565b600082825260208201905092915050565b60005b83811015613c35578082015181840152602081019050613c1a565b83811115613c44576000848401525b50505050565b6000601f19601f8301169050919050565b6000613c6682613bfb565b613c708185613c06565b9350613c80818560208601613c17565b613c8981613c4a565b840191505092915050565b60006020820190508181036000830152613cae8184613c5b565b905092915050565b600073ffffffffffffffffffffffffffffffffffffffff82169050919050565b6000613ce182613cb6565b9050919050565b613cf181613cd6565b8114613cfc57600080fd5b50565b600081359050613d0e81613ce8565b92915050565b600060208284031215613d2a57613d29613b36565b5b6000613d3884828501613cff565b91505092915050565b6000819050919050565b613d5481613d41565b8114613d5f57600080fd5b50565b600081359050613d7181613d4b565b92915050565b60008060408385031215613d8e57613d8d613b36565b5b6000613d9c85828601613cff565b9250506020613dad85828601613d62565b9150509250929050565b613dc081613d41565b82525050565b6000602082019050613ddb6000830184613db7565b92915050565b600080600060608486031215613dfa57613df9613b36565b5b6000613e0886828701613cff565b9350506020613e1986828701613cff565b9250506040613e2a86828701613d62565b9150509250925092565b6000819050919050565b613e4781613e34565b8114613e5257600080fd5b50565b600081359050613e6481613e3e565b92915050565b600060208284031215613e8057613e7f613b36565b5b6000613e8e84828501613e55565b91505092915050565b613ea081613e34565b82525050565b6000602082019050613ebb6000830184613e97565b92915050565b60008060408385031215613ed857613ed7613b36565b5b6000613ee685828601613e55565b9250506020613ef785828601613cff565b9150509250929050565b600060ff82169050919050565b613f1781613f01565b82525050565b6000602082019050613f326000830184613f0e565b92915050565b6000819050919050565b613f4b81613f38565b8114613f5657600080fd5b50565b600081359050613f6881613f42565b92915050565b613f7781613bc5565b8114613f8257600080fd5b50565b600081359050613f9481613f6e565b92915050565b600080600080600060a08688031215613fb657613fb5613b36565b5b6000613fc488828901613f59565b9550506020613fd588828901613f59565b9450506040613fe688828901613cff565b9350506060613ff788828901613d62565b925050608061400888828901613f85565b9150509295509295909350565b60006020828403121561402b5761402a613b36565b5b600061403984828501613d62565b91505092915050565b6000806040838503121561405957614058613b36565b5b600061406785828601613f85565b925050602061407885828601613f85565b9150509250929050565b61408b81613cd6565b82525050565b60006020820190506140a66000830184614082565b92915050565b600080604083850312156140c3576140c2613b36565b5b60006140d185828601613cff565b92505060206140e285828601613cff565b9150509250929050565b7f4e487b7100000000000000000000000000000000000000000000000000000000600052602260045260246000fd5b6000600282049050600182168061413357607f821691505b60208210811415614147576141466140ec565b5b50919050565b60008151905061415c81613d4b565b92915050565b60006020828403121561417857614177613b36565b5b60006141868482850161414d565b91505092915050565b600080604083850312156141a6576141a5613b36565b5b60006141b48582860161414d565b92505060206141c58582860161414d565b9150509250929050565b6141d881613cd6565b82525050565b60006040820190506141f360008301856141cf565b61420060208301846141cf565b9392505050565b7f42616c616e636520696e73756666696369656e742e0000000000000000000000600082015250565b600061423d601583613c06565b915061424882614207565b602082019050919050565b6000602082019050818103600083015261426c81614230565b9050919050565b7f4e487b7100000000000000000000000000000000000000000000000000000000600052601160045260246000fd5b60006142ad82613d41565b91506142b883613d41565b9250828210156142cb576142ca614273565b5b828203905092915050565b6000815190506142e581613ce8565b92915050565b60006020828403121561430157614300613b36565b5b600061430f848285016142d6565b91505092915050565b61432181613d41565b82525050565b600060408201905061433c6000830185614318565b61434960208301846141cf565b9392505050565b60006040820190506143656000830185614082565b6143726020830184613db7565b9392505050565b60008151905061438881613f6e565b92915050565b6000602082840312156143a4576143a3613b36565b5b60006143b284828501614379565b91505092915050565b7f4661696c6564207061796d656e7420746f20686f6c6465720000000000000000600082015250565b60006143f1601883613c06565b91506143fc826143bb565b602082019050919050565b60006020820190508181036000830152614420816143e4565b9050919050565b7f4661696c6564207061796d656e7420746f206d61696e74656e616e6365000000600082015250565b600061445d601d83613c06565b915061446882614427565b602082019050919050565b6000602082019050818103600083015261448c81614450565b9050919050565b7f4661696c6564207061796d656e7420746f206578657263697365722e00000000600082015250565b60006144c9601c83613c06565b91506144d482614493565b602082019050919050565b600060208201905081810360008301526144f8816144bc565b9050919050565b7f45524332303a207472616e7366657220616d6f756e742065786365656473206160008201527f6c6c6f77616e6365000000000000000000000000000000000000000000000000602082015250565b600061455b602883613c06565b9150614566826144ff565b604082019050919050565b6000602082019050818103600083015261458a8161454e565b9050919050565b61459a81613f38565b82525050565b60006080820190506145b56000830187614591565b6145c26020830186614591565b6145cf60408301856141cf565b6145dc60608301846141cf565b95945050505050565b600080600080608085870312156145ff576145fe613b36565b5b600061460d8782880161414d565b945050602061461e8782880161414d565b935050604061462f878288016142d6565b9250506060614640878288016142d6565b91505092959194509250565b7f416363657373436f6e74726f6c3a2063616e206f6e6c792072656e6f756e636560008201527f20726f6c657320666f722073656c660000000000000000000000000000000000602082015250565b60006146a8602f83613c06565b91506146b38261464c565b604082019050919050565b600060208201905081810360008301526146d78161469b565b9050919050565b6000815190506146ed81613f42565b92915050565b6000806000806080858703121561470d5761470c613b36565b5b600061471b878288016146de565b945050602061472c878288016146de565b935050604061473d878288016142d6565b925050606061474e878288016142d6565b91505092959194509250565b600060408201905061476f6000830185614591565b61477c60208301846141cf565b9392505050565b60006020828403121561479957614798613b36565b5b60006147a7848285016146de565b91505092915050565b6000819050919050565b600061ffff82169050919050565b6000819050919050565b60006147ed6147e86147e3846147b0565b6147c8565b6147ba565b9050919050565b6147fd816147d2565b82525050565b60006080820190506148186000830187614082565b6148256020830186613db7565b6148326040830185614082565b61483f60608301846147f4565b95945050505050565b600060a08201905061485d6000830188614082565b61486a6020830187613db7565b6148776040830186613db7565b61488460608301856147f4565b6148916080830184614082565b9695505050505050565b60006148a682613f38565b91507f80000000000000000000000000000000000000000000000000000000000000008214156148d9576148d8614273565b5b816000039050919050565b7f6e6f7420656e6f75676820746f6b656e20746f207265706179206c6f616e7300600082015250565b600061491a601f83613c06565b9150614925826148e4565b602082019050919050565b600060208201905081810360008301526149498161490d565b9050919050565b60006080820190506149656000830187614082565b6149726020830186613db7565b61497f6040830185613db7565b61498c6060830184614082565b95945050505050565b60006060820190506149aa6000830186614082565b6149b76020830185613db7565b6149c46040830184614082565b949350505050565b60006149d782613d41565b91506149e283613d41565b9250827fffffffffffffffffffffffffffffffffffffffffffffffffffffffffffffffff03821115614a1757614a16614273565b5b828201905092915050565b7f45524332303a2064656372656173656420616c6c6f77616e63652062656c6f7760008201527f207a65726f000000000000000000000000000000000000000000000000000000602082015250565b6000614a7e602583613c06565b9150614a8982614a22565b604082019050919050565b60006020820190508181036000830152614aad81614a71565b9050919050565b6000606082019050614ac96000830186614082565b614ad66020830185614082565b614ae36040830184613db7565b949350505050565b6000606082019050614b006000830186614082565b614b0d6020830185613db7565b614b1a6040830184613db7565b949350505050565b7f496e73756666696369656e742062616c616e6365000000000000000000000000600082015250565b6000614b58601483613c06565b9150614b6382614b22565b602082019050919050565b60006020820190508181036000830152614b8781614b4b565b9050919050565b7f45524332303a20617070726f76652066726f6d20746865207a65726f2061646460008201527f7265737300000000000000000000000000000000000000000000000000000000602082015250565b6000614bea602483613c06565b9150614bf582614b8e565b604082019050919050565b60006020820190508181036000830152614c1981614bdd565b9050919050565b7f45524332303a20617070726f766520746f20746865207a65726f20616464726560008201527f7373000000000000000000000000000000000000000000000000000000000000602082015250565b6000614c7c602283613c06565b9150614c8782614c20565b604082019050919050565b60006020820190508181036000830152614cab81614c6f565b9050919050565b7f45524332303a207472616e736665722066726f6d20746865207a65726f20616460008201527f6472657373000000000000000000000000000000000000000000000000000000602082015250565b6000614d0e602583613c06565b9150614d1982614cb2565b604082019050919050565b60006020820190508181036000830152614d3d81614d01565b9050919050565b7f45524332303a207472616e7366657220746f20746865207a65726f206164647260008201527f6573730000000000000000000000000000000000000000000000000000000000602082015250565b6000614da0602383613c06565b9150614dab82614d44565b604082019050919050565b60006020820190508181036000830152614dcf81614d93565b9050919050565b7f45524332303a207472616e7366657220616d6f756e742065786365656473206260008201527f616c616e63650000000000000000000000000000000000000000000000000000602082015250565b6000614e32602683613c06565b9150614e3d82614dd6565b604082019050919050565b60006020820190508181036000830152614e6181614e25565b9050919050565b600081905092915050565b7f416363657373436f6e74726f6c3a206163636f756e7420000000000000000000600082015250565b6000614ea9601783614e68565b9150614eb482614e73565b601782019050919050565b6000614eca82613bfb565b614ed48185614e68565b9350614ee4818560208601613c17565b80840191505092915050565b7f206973206d697373696e6720726f6c6520000000000000000000000000000000600082015250565b6000614f26601183614e68565b9150614f3182614ef0565b601182019050919050565b6000614f4782614e9c565b9150614f538285614ebf565b9150614f5e82614f19565b9150614f6a8284614ebf565b91508190509392505050565b6000614f91614f8c614f8784613cb6565b6147c8565b613cb6565b9050919050565b6000614fa382614f76565b9050919050565b6000614fb582614f98565b9050919050565b614fc581614faa565b82525050565b6000614fe6614fe1614fdc846147b0565b6147c8565b613d41565b9050919050565b614ff681614fcb565b82525050565b600060a0820190506150116000830188614fbc565b61501e6020830187614fbc565b61502b6040830186613db7565b6150386060830185613db7565b6150456080830184614fed565b9695505050505050565b600080fd5b7f4e487b7100000000000000000000000000000000000000000000000000000000600052604160045260246000fd5b61508c82613c4a565b810181811067ffffffffffffffff821117156150ab576150aa615054565b5b80604052505050565b60006150be613b2c565b90506150ca8282615083565b919050565b600067ffffffffffffffff8211156150ea576150e9615054565b5b602082029050602081019050919050565b600080fd5b600061511361510e846150cf565b6150b4565b90508083825260208201905060208402830185811115615136576151356150fb565b5b835b8181101561515f578061514b888261414d565b845260208401935050602081019050615138565b5050509392505050565b600082601f83011261517e5761517d61504f565b5b815161518e848260208601615100565b91505092915050565b600080604083850312156151ae576151ad613b36565b5b60006151bc8582860161414d565b925050602083015167ffffffffffffffff8111156151dd576151dc613b3b565b5b6151e985828601615169565b9150509250929050565b600081519050919050565b600082825260208201905092915050565b6000819050602082019050919050565b61522881613d41565b82525050565b600061523a838361521f565b60208301905092915050565b6000602082019050919050565b600061525e826151f3565b61526881856151fe565b93506152738361520f565b8060005b838110156152a457815161528b888261522e565b975061529683615246565b925050600181019050615277565b5085935050505092915050565b600060c0820190506152c66000830189614fbc565b6152d36020830188614fbc565b6152e06040830187613db7565b6152ed6060830186613db7565b81810360808301526152ff8185615253565b905061530e60a0830184614fed565b979650505050505050565b7f4e487b7100000000000000000000000000000000000000000000000000000000600052603260045260246000fd5b600081519050919050565b600082825260208201905092915050565b6000819050602082019050919050565b61537d81613cd6565b82525050565b600061538f8383615374565b60208301905092915050565b6000602082019050919050565b60006153b382615348565b6153bd8185615353565b93506153c883615364565b8060005b838110156153f95781516153e08882615383565b97506153eb8361539b565b9250506001810190506153cc565b5085935050505092915050565b600060a08201905061541b6000830188613db7565b6154286020830187613db7565b818103604083015261543a81866153a8565b90506154496060830185614082565b6154566080830184613db7565b9695505050505050565b60006020828403121561547657615475613b36565b5b600082015167ffffffffffffffff81111561549457615493613b3b565b5b6154a084828501615169565b91505092915050565b7f45524332303a206d696e7420746f20746865207a65726f206164647265737300600082015250565b60006154df601f83613c06565b91506154ea826154a9565b602082019050919050565b6000602082019050818103600083015261550e816154d2565b9050919050565b7f45524332303a206275726e2066726f6d20746865207a65726f2061646472657360008201527f7300000000000000000000000000000000000000000000000000000000000000602082015250565b6000615571602183613c06565b915061557c82615515565b604082019050919050565b600060208201905081810360008301526155a081615564565b9050919050565b7f45524332303a206275726e20616d6f756e7420657863656564732062616c616e60008201527f6365000000000000000000000000000000000000000000000000000000000000602082015250565b6000615603602283613c06565b915061560e826155a7565b604082019050919050565b60006020820190508181036000830152615632816155f6565b9050919050565b600061564482613d41565b915061564f83613d41565b9250817fffffffffffffffffffffffffffffffffffffffffffffffffffffffffffffffff048311821515161561568857615687614273565b5b828202905092915050565b600061569e82613d41565b915060008214156156b2576156b1614273565b5b600182039050919050565b7f537472696e67733a20686578206c656e67746820696e73756666696369656e74600082015250565b60006156f3602083613c06565b91506156fe826156bd565b602082019050919050565b60006020820190508181036000830152615722816156e6565b905091905056fea2646970667358221220ce44a9bfbc14324bc40b596cec00c355cde1574531c674bf322e219793295fd364736f6c634300080a0033",
  "immutableReferences": {},
  "source": "// SPDX-License-Identifier: MIT\npragma solidity 0.8.10;\n\nimport \"@openzeppelin/contracts/access/AccessControl.sol\";\nimport \"@openzeppelin/contracts/utils/structs/EnumerableSet.sol\";\nimport \"./MarketLibrary.sol\";\nimport \"./OptionVault.sol\";\n\ncontract MoretMarketMaker is ERC20, AccessControl, EOption\n{\n  bytes32 public constant ADMIN_ROLE = keccak256(\"ADMIN_ROLE\");\n  bytes32 public constant EXCHANGE_ROLE = keccak256(\"EXCHANGE_ROLE\");\n\n  uint256 private multiplier;\n  uint256 public settlementFee= 5 * (10 ** 15);\n  uint256 public exerciseFee= 5 * (10 ** 15);\n  OptionVault internal optionVault;\n\n  address internal underlying;\n  address internal funding;\n  address public maintenanceAddress;\n  uint256 public lendingPoolRateMode = 2;\n  uint256 public swapSlippage = 5 * (10 ** 15);\n  \n  constructor(string memory _name, string memory _symbol, address _optionAddress) ERC20(_name, _symbol){\n    _setupRole(DEFAULT_ADMIN_ROLE, msg.sender);\n    _setupRole(ADMIN_ROLE, msg.sender);\n    _setupRole(EXCHANGE_ROLE, msg.sender);\n    maintenanceAddress = msg.sender;\n    optionVault = OptionVault(_optionAddress);\n    multiplier = OptionLibrary.Multiplier();\n    underlying = optionVault.underlying();\n    funding = optionVault.funding();\n    _mint(msg.sender, multiplier);}\n\n  function expireOptions(address exerciseFeeRecipient) external {\n    uint256 _expiringId = optionVault.getExpiringOptionId();\n    while(_expiringId >0) {\n      optionVault.stampExpiredOption(_expiringId);\n      \n      ( uint256 _payoff, uint256 _payback) = optionVault.getContractPayoff(_expiringId);\n      require(_payback < MarketLibrary.balanceDef(funding, address(this)), \"Balance insufficient.\");\n      if(_payback > 0){\n        uint256 _holderPayment = _payoff == _payback? MulDiv(_payback, multiplier - settlementFee - exerciseFee, multiplier): _payback;\n        uint256 _settleFeeAmount = MulDiv(_payoff, settlementFee, multiplier);\n        uint256 _exerciseFeeAmount = MulDiv(_payoff, exerciseFee, multiplier);\n\n        require(IERC20(funding).transfer(optionVault.getOptionHolder(_expiringId), MarketLibrary.cvtDecimals(_holderPayment, funding)), \"Failed payment to holder\");\n        require(IERC20(funding).transfer(maintenanceAddress, MarketLibrary.cvtDecimals(_settleFeeAmount, funding)), \"Failed payment to maintenance\");\n        require(IERC20(funding).transfer(exerciseFeeRecipient, MarketLibrary.cvtDecimals(_exerciseFeeAmount, funding)), \"Failed payment to exerciser.\");}\n      \n      _expiringId = optionVault.getExpiringOptionId();}}\n\n  function calcCapital(bool _net, bool _average) public view returns(uint256 _capital){\n    _capital = optionVault.getGrossCapital(address(this));\n    if(_net){ _capital -= Math.min(optionVault.getMaxHedge(), _capital);}\n    if(_average){ \n      if(totalSupply() > 0) _capital = MulDiv(_capital , multiplier , totalSupply()); \n      if(totalSupply() == 0 && _capital == 0) _capital = multiplier;}}\n    \n  function addCapital(uint256 _depositAmount) external {\n      uint256 _mintMPTokenAmount = MulDiv(MarketLibrary.cvtDef(_depositAmount, funding), multiplier, calcCapital(false, true));\n      require(ERC20(funding).transferFrom(msg.sender, address(this), _depositAmount));\n      _mint(msg.sender, _mintMPTokenAmount);\n      emit capitalAdded(msg.sender, _depositAmount, _mintMPTokenAmount);}\n\n  function withdrawCapital(uint256 _burnMPTokenAmount) external {\n      uint256 _withdrawValue = MarketLibrary.cvtDecimals(MulDiv(calcCapital(true, true),  _burnMPTokenAmount , multiplier), funding); \n      require(IERC20(funding).balanceOf(address(this)) > _withdrawValue,\"Insufficient balance\");\n      _burn(msg.sender, _burnMPTokenAmount);\n      require(ERC20(funding).transfer(msg.sender, _withdrawValue));\n      emit capitalWithdrawn(msg.sender, _burnMPTokenAmount, _withdrawValue);}\n  \n  function approveSpending(address _tokenAddress, address _spenderAddress, uint256 _amount) external onlyRole(EXCHANGE_ROLE){\n    ERC20(_tokenAddress).approve(_spenderAddress, _amount);}\n\n  function tradesSwaps(int256 _underlyingAmt, int256 _fundingAmt, address _router, uint256 _parameter, bool _useAggregator) external onlyRole(EXCHANGE_ROLE) {\n    (uint256 _fromAmt, uint256 _toAmt, address _fromAddress, address _toAddress) = MarketLibrary.cleanTradeAmounts(_underlyingAmt, _fundingAmt, optionVault.underlying(), optionVault.funding());\n    if(_useAggregator) swapByAggregator(_fromAddress, _toAddress, _router, _fromAmt, _toAmt, _parameter);\n    if(!_useAggregator) swapByRouter(_fromAddress, _toAddress, _router, _fromAmt, _toAmt, _parameter);}\n  \n  function swapByRouter(address _fromAddress, address _toAddress, address _router, uint256 _fromAmt, uint256 _toAmt, uint256 _deadline) internal {\n    ERC20(_fromAddress).approve(_router, _fromAmt);\n    address[] memory _path = new address[](2);\n    _path[0]=_fromAddress;\n    _path[1] = _toAddress;\n    IUniswapV2Router02(_router).swapTokensForExactTokens(_toAmt, _fromAmt, _path, address(this), block.timestamp + _deadline );}\n\n  function swapByAggregator(address _fromAddress, address _toAddress, address _aggregator, uint256 _fromAmt, uint256 _toAmt, uint256 _parts) internal {\n    ERC20(_fromAddress).approve(_aggregator, _fromAmt);\n    (uint256 returnAmount, uint256[] memory distribution) =  I1InchProtocol(_aggregator).getExpectedReturn( IERC20(_fromAddress), IERC20(_toAddress), _fromAmt, _parts, 0);\n    I1InchProtocol(_aggregator).swap(IERC20(_fromAddress), IERC20(_toAddress), _fromAmt, Math.min(returnAmount, _toAmt), distribution, 0);}\n\n  function hedgeTradesForLoans() external onlyRole(EXCHANGE_ROLE) {\n    (int256 _loanTradeAmount, int256 _collateralChange, address _loanAddress, address _collateralAddress) = optionVault.calcLoanTrades(address(this), lendingPoolRateMode);\n    _loanTradeAmount = MarketLibrary.cvtDecimalsInt(_loanTradeAmount, _loanAddress);\n    _collateralChange = MarketLibrary.cvtDecimalsInt(_collateralChange, _collateralAddress);\n    address _lendingPoolAddress = ILendingPoolAddressesProvider(optionVault.aaveAddress()).getLendingPool();\n\n    if(_collateralChange > 0){\n      ERC20(funding).increaseAllowance(_lendingPoolAddress, uint256(_collateralChange));\n      ILendingPool(_lendingPoolAddress).deposit(funding, uint256(_collateralChange), address(this), 0);}\n    \n    if(_loanTradeAmount > 0){\n      ILendingPool(_lendingPoolAddress).borrow(underlying, uint256(_loanTradeAmount), lendingPoolRateMode,  0, address(this));}\n\n    if(_loanTradeAmount < 0){\n      require(ERC20(underlying).balanceOf(address(this))>= uint256(-_loanTradeAmount), \"not enough token to repay loans\");\n      ERC20(_loanAddress).approve(_lendingPoolAddress, uint256(-_loanTradeAmount));\n      ERC20(underlying).approve(_lendingPoolAddress, uint256(-_loanTradeAmount));\n      ILendingPool(_lendingPoolAddress).repay(underlying, uint256(-_loanTradeAmount), lendingPoolRateMode, address(this));}\n\n    if(_collateralChange < 0){\n      ERC20(_collateralAddress).increaseAllowance(_lendingPoolAddress, uint256(-_collateralChange));\n      ILendingPool(_lendingPoolAddress).withdraw(funding, uint256(-_collateralChange), address(this));}}\n\n  function resetSettlementFee(uint256 _newFee) external onlyRole(ADMIN_ROLE){ require(_newFee < multiplier); settlementFee = _newFee;}\n  function resetExerciseFee(uint256 _newFee) external onlyRole(ADMIN_ROLE){ require(_newFee < multiplier); exerciseFee = _newFee;}\n  function resetMaintenance(address _newAddress) external onlyRole(ADMIN_ROLE){ maintenanceAddress = _newAddress;}\n  function resetSlippage(uint256 _slippage) external onlyRole(ADMIN_ROLE){ swapSlippage = _slippage;}\n  // function resetLendingPoolRateMode(uint256 _newRateMode) external onlyRole(ADMIN_ROLE) {\n  //   require(_newRateMode == 1 || _newRateMode == 2);\n  //   lendingPoolRateMode = _newRateMode;}\n}\n",
  "sourcePath": "/Users/apple/Documents/GitHub/moret/contracts/MoretMarketMaker.sol",
  "compiler": {
    "name": "solc",
    "version": "0.8.10+commit.fc410830.Emscripten.clang"
  },
  "schemaVersion": "3.4.3",
  "updatedAt": "2021-11-28T12:43:15.160Z",
  "networkType": "ethereum",
  "devdoc": {
    "kind": "dev",
    "methods": {
      "allowance(address,address)": {
        "details": "See {IERC20-allowance}."
      },
      "approve(address,uint256)": {
        "details": "See {IERC20-approve}. Requirements: - `spender` cannot be the zero address."
      },
      "balanceOf(address)": {
        "details": "See {IERC20-balanceOf}."
      },
      "decimals()": {
        "details": "Returns the number of decimals used to get its user representation. For example, if `decimals` equals `2`, a balance of `505` tokens should be displayed to a user as `5.05` (`505 / 10 ** 2`). Tokens usually opt for a value of 18, imitating the relationship between Ether and Wei. This is the value {ERC20} uses, unless this function is overridden; NOTE: This information is only used for _display_ purposes: it in no way affects any of the arithmetic of the contract, including {IERC20-balanceOf} and {IERC20-transfer}."
      },
      "decreaseAllowance(address,uint256)": {
        "details": "Atomically decreases the allowance granted to `spender` by the caller. This is an alternative to {approve} that can be used as a mitigation for problems described in {IERC20-approve}. Emits an {Approval} event indicating the updated allowance. Requirements: - `spender` cannot be the zero address. - `spender` must have allowance for the caller of at least `subtractedValue`."
      },
      "getRoleAdmin(bytes32)": {
        "details": "Returns the admin role that controls `role`. See {grantRole} and {revokeRole}. To change a role's admin, use {_setRoleAdmin}."
      },
      "grantRole(bytes32,address)": {
        "details": "Grants `role` to `account`. If `account` had not been already granted `role`, emits a {RoleGranted} event. Requirements: - the caller must have ``role``'s admin role."
      },
      "hasRole(bytes32,address)": {
        "details": "Returns `true` if `account` has been granted `role`."
      },
      "increaseAllowance(address,uint256)": {
        "details": "Atomically increases the allowance granted to `spender` by the caller. This is an alternative to {approve} that can be used as a mitigation for problems described in {IERC20-approve}. Emits an {Approval} event indicating the updated allowance. Requirements: - `spender` cannot be the zero address."
      },
      "name()": {
        "details": "Returns the name of the token."
      },
      "renounceRole(bytes32,address)": {
        "details": "Revokes `role` from the calling account. Roles are often managed via {grantRole} and {revokeRole}: this function's purpose is to provide a mechanism for accounts to lose their privileges if they are compromised (such as when a trusted device is misplaced). If the calling account had been revoked `role`, emits a {RoleRevoked} event. Requirements: - the caller must be `account`."
      },
      "revokeRole(bytes32,address)": {
        "details": "Revokes `role` from `account`. If `account` had been granted `role`, emits a {RoleRevoked} event. Requirements: - the caller must have ``role``'s admin role."
      },
      "supportsInterface(bytes4)": {
        "details": "See {IERC165-supportsInterface}."
      },
      "symbol()": {
        "details": "Returns the symbol of the token, usually a shorter version of the name."
      },
      "totalSupply()": {
        "details": "See {IERC20-totalSupply}."
      },
      "transfer(address,uint256)": {
        "details": "See {IERC20-transfer}. Requirements: - `recipient` cannot be the zero address. - the caller must have a balance of at least `amount`."
      },
      "transferFrom(address,address,uint256)": {
        "details": "See {IERC20-transferFrom}. Emits an {Approval} event indicating the updated allowance. This is not required by the EIP. See the note at the beginning of {ERC20}. Requirements: - `sender` and `recipient` cannot be the zero address. - `sender` must have a balance of at least `amount`. - the caller must have allowance for ``sender``'s tokens of at least `amount`."
      }
    },
    "version": 1
  },
  "userdoc": {
    "kind": "user",
    "methods": {},
    "version": 1
  }
}