{
  "contractName": "MoretMarketMaker",
  "abi": [
    {
      "inputs": [
        {
          "internalType": "string",
          "name": "_name",
          "type": "string"
        },
        {
          "internalType": "string",
          "name": "_symbol",
          "type": "string"
        },
        {
          "internalType": "address",
          "name": "_optionAddress",
          "type": "address"
        }
      ],
      "stateMutability": "nonpayable",
      "type": "constructor"
    },
    {
      "anonymous": false,
      "inputs": [
        {
          "indexed": true,
          "internalType": "address",
          "name": "owner",
          "type": "address"
        },
        {
          "indexed": true,
          "internalType": "address",
          "name": "spender",
          "type": "address"
        },
        {
          "indexed": false,
          "internalType": "uint256",
          "name": "value",
          "type": "uint256"
        }
      ],
      "name": "Approval",
      "type": "event"
    },
    {
      "anonymous": false,
      "inputs": [
        {
          "indexed": true,
          "internalType": "bytes32",
          "name": "role",
          "type": "bytes32"
        },
        {
          "indexed": true,
          "internalType": "bytes32",
          "name": "previousAdminRole",
          "type": "bytes32"
        },
        {
          "indexed": true,
          "internalType": "bytes32",
          "name": "newAdminRole",
          "type": "bytes32"
        }
      ],
      "name": "RoleAdminChanged",
      "type": "event"
    },
    {
      "anonymous": false,
      "inputs": [
        {
          "indexed": true,
          "internalType": "bytes32",
          "name": "role",
          "type": "bytes32"
        },
        {
          "indexed": true,
          "internalType": "address",
          "name": "account",
          "type": "address"
        },
        {
          "indexed": true,
          "internalType": "address",
          "name": "sender",
          "type": "address"
        }
      ],
      "name": "RoleGranted",
      "type": "event"
    },
    {
      "anonymous": false,
      "inputs": [
        {
          "indexed": true,
          "internalType": "bytes32",
          "name": "role",
          "type": "bytes32"
        },
        {
          "indexed": true,
          "internalType": "address",
          "name": "account",
          "type": "address"
        },
        {
          "indexed": true,
          "internalType": "address",
          "name": "sender",
          "type": "address"
        }
      ],
      "name": "RoleRevoked",
      "type": "event"
    },
    {
      "anonymous": false,
      "inputs": [
        {
          "indexed": true,
          "internalType": "address",
          "name": "from",
          "type": "address"
        },
        {
          "indexed": true,
          "internalType": "address",
          "name": "to",
          "type": "address"
        },
        {
          "indexed": false,
          "internalType": "uint256",
          "name": "value",
          "type": "uint256"
        }
      ],
      "name": "Transfer",
      "type": "event"
    },
    {
      "anonymous": false,
      "inputs": [
        {
          "indexed": false,
          "internalType": "address",
          "name": "_recipient",
          "type": "address"
        },
        {
          "indexed": false,
          "internalType": "uint256",
          "name": "_mintMPTokenAmount",
          "type": "uint256"
        },
        {
          "indexed": false,
          "internalType": "uint256",
          "name": "_addedValue",
          "type": "uint256"
        }
      ],
      "name": "capitalAdded",
      "type": "event"
    },
    {
      "anonymous": false,
      "inputs": [
        {
          "indexed": false,
          "internalType": "address",
          "name": "_recipient",
          "type": "address"
        },
        {
          "indexed": false,
          "internalType": "uint256",
          "name": "_burnMPTokenAmount",
          "type": "uint256"
        },
        {
          "indexed": false,
          "internalType": "uint256",
          "name": "_withdrawValue",
          "type": "uint256"
        }
      ],
      "name": "capitalWithdrawn",
      "type": "event"
    },
    {
      "anonymous": false,
      "inputs": [
        {
          "indexed": true,
          "internalType": "address",
          "name": "_purchaser",
          "type": "address"
        },
        {
          "components": [
            {
              "internalType": "enum OptionLibrary.PayoffType",
              "name": "poType",
              "type": "uint8"
            },
            {
              "internalType": "enum OptionLibrary.OptionSide",
              "name": "side",
              "type": "uint8"
            },
            {
              "internalType": "enum OptionLibrary.OptionStatus",
              "name": "status",
              "type": "uint8"
            },
            {
              "internalType": "address",
              "name": "holder",
              "type": "address"
            },
            {
              "internalType": "uint256",
              "name": "id",
              "type": "uint256"
            },
            {
              "internalType": "uint256",
              "name": "createTime",
              "type": "uint256"
            },
            {
              "internalType": "uint256",
              "name": "effectiveTime",
              "type": "uint256"
            },
            {
              "internalType": "uint256",
              "name": "tenor",
              "type": "uint256"
            },
            {
              "internalType": "uint256",
              "name": "maturity",
              "type": "uint256"
            },
            {
              "internalType": "uint256",
              "name": "exerciseTime",
              "type": "uint256"
            },
            {
              "internalType": "uint256",
              "name": "amount",
              "type": "uint256"
            },
            {
              "internalType": "uint256",
              "name": "spot",
              "type": "uint256"
            },
            {
              "internalType": "uint256",
              "name": "strike",
              "type": "uint256"
            },
            {
              "internalType": "uint256",
              "name": "volatility",
              "type": "uint256"
            },
            {
              "internalType": "uint256",
              "name": "premium",
              "type": "uint256"
            },
            {
              "internalType": "uint256",
              "name": "cost",
              "type": "uint256"
            }
          ],
          "indexed": false,
          "internalType": "struct OptionLibrary.Option",
          "name": "_option",
          "type": "tuple"
        },
        {
          "indexed": false,
          "internalType": "uint256",
          "name": "_cost",
          "type": "uint256"
        },
        {
          "indexed": false,
          "internalType": "bool",
          "name": "_inVol",
          "type": "bool"
        }
      ],
      "name": "newOptionBought",
      "type": "event"
    },
    {
      "anonymous": false,
      "inputs": [
        {
          "indexed": true,
          "internalType": "address",
          "name": "_purchaser",
          "type": "address"
        },
        {
          "components": [
            {
              "internalType": "enum OptionLibrary.PayoffType",
              "name": "poType",
              "type": "uint8"
            },
            {
              "internalType": "enum OptionLibrary.OptionSide",
              "name": "side",
              "type": "uint8"
            },
            {
              "internalType": "enum OptionLibrary.OptionStatus",
              "name": "status",
              "type": "uint8"
            },
            {
              "internalType": "address",
              "name": "holder",
              "type": "address"
            },
            {
              "internalType": "uint256",
              "name": "id",
              "type": "uint256"
            },
            {
              "internalType": "uint256",
              "name": "createTime",
              "type": "uint256"
            },
            {
              "internalType": "uint256",
              "name": "effectiveTime",
              "type": "uint256"
            },
            {
              "internalType": "uint256",
              "name": "tenor",
              "type": "uint256"
            },
            {
              "internalType": "uint256",
              "name": "maturity",
              "type": "uint256"
            },
            {
              "internalType": "uint256",
              "name": "exerciseTime",
              "type": "uint256"
            },
            {
              "internalType": "uint256",
              "name": "amount",
              "type": "uint256"
            },
            {
              "internalType": "uint256",
              "name": "spot",
              "type": "uint256"
            },
            {
              "internalType": "uint256",
              "name": "strike",
              "type": "uint256"
            },
            {
              "internalType": "uint256",
              "name": "volatility",
              "type": "uint256"
            },
            {
              "internalType": "uint256",
              "name": "premium",
              "type": "uint256"
            },
            {
              "internalType": "uint256",
              "name": "cost",
              "type": "uint256"
            }
          ],
          "indexed": false,
          "internalType": "struct OptionLibrary.Option",
          "name": "_option",
          "type": "tuple"
        },
        {
          "indexed": false,
          "internalType": "uint256",
          "name": "_payoff",
          "type": "uint256"
        }
      ],
      "name": "optionExercised",
      "type": "event"
    },
    {
      "anonymous": false,
      "inputs": [
        {
          "indexed": false,
          "internalType": "address",
          "name": "_purchaser",
          "type": "address"
        },
        {
          "indexed": false,
          "internalType": "uint256",
          "name": "_time",
          "type": "uint256"
        },
        {
          "indexed": false,
          "internalType": "uint256",
          "name": "_tenor",
          "type": "uint256"
        },
        {
          "indexed": false,
          "internalType": "uint256",
          "name": "_amount",
          "type": "uint256"
        },
        {
          "indexed": false,
          "internalType": "uint256",
          "name": "_cost",
          "type": "uint256"
        }
      ],
      "name": "volatilityTokenBought",
      "type": "event"
    },
    {
      "anonymous": false,
      "inputs": [
        {
          "indexed": false,
          "internalType": "address",
          "name": "_seller",
          "type": "address"
        },
        {
          "indexed": false,
          "internalType": "uint256",
          "name": "_time",
          "type": "uint256"
        },
        {
          "indexed": false,
          "internalType": "uint256",
          "name": "_tenor",
          "type": "uint256"
        },
        {
          "indexed": false,
          "internalType": "uint256",
          "name": "_amount",
          "type": "uint256"
        },
        {
          "indexed": false,
          "internalType": "uint256",
          "name": "_cost",
          "type": "uint256"
        }
      ],
      "name": "volatilityTokenSold",
      "type": "event"
    },
    {
      "inputs": [],
      "name": "ADMIN_ROLE",
      "outputs": [
        {
          "internalType": "bytes32",
          "name": "",
          "type": "bytes32"
        }
      ],
      "stateMutability": "view",
      "type": "function",
      "constant": true
    },
    {
      "inputs": [],
      "name": "DEFAULT_ADMIN_ROLE",
      "outputs": [
        {
          "internalType": "bytes32",
          "name": "",
          "type": "bytes32"
        }
      ],
      "stateMutability": "view",
      "type": "function",
      "constant": true
    },
    {
      "inputs": [],
      "name": "EXCHANGE_ROLE",
      "outputs": [
        {
          "internalType": "bytes32",
          "name": "",
          "type": "bytes32"
        }
      ],
      "stateMutability": "view",
      "type": "function",
      "constant": true
    },
    {
      "inputs": [
        {
          "internalType": "address",
          "name": "owner",
          "type": "address"
        },
        {
          "internalType": "address",
          "name": "spender",
          "type": "address"
        }
      ],
      "name": "allowance",
      "outputs": [
        {
          "internalType": "uint256",
          "name": "",
          "type": "uint256"
        }
      ],
      "stateMutability": "view",
      "type": "function",
      "constant": true
    },
    {
      "inputs": [
        {
          "internalType": "address",
          "name": "spender",
          "type": "address"
        },
        {
          "internalType": "uint256",
          "name": "amount",
          "type": "uint256"
        }
      ],
      "name": "approve",
      "outputs": [
        {
          "internalType": "bool",
          "name": "",
          "type": "bool"
        }
      ],
      "stateMutability": "nonpayable",
      "type": "function"
    },
    {
      "inputs": [
        {
          "internalType": "address",
          "name": "account",
          "type": "address"
        }
      ],
      "name": "balanceOf",
      "outputs": [
        {
          "internalType": "uint256",
          "name": "",
          "type": "uint256"
        }
      ],
      "stateMutability": "view",
      "type": "function",
      "constant": true
    },
    {
      "inputs": [],
      "name": "decimals",
      "outputs": [
        {
          "internalType": "uint8",
          "name": "",
          "type": "uint8"
        }
      ],
      "stateMutability": "view",
      "type": "function",
      "constant": true
    },
    {
      "inputs": [
        {
          "internalType": "address",
          "name": "spender",
          "type": "address"
        },
        {
          "internalType": "uint256",
          "name": "subtractedValue",
          "type": "uint256"
        }
      ],
      "name": "decreaseAllowance",
      "outputs": [
        {
          "internalType": "bool",
          "name": "",
          "type": "bool"
        }
      ],
      "stateMutability": "nonpayable",
      "type": "function"
    },
    {
      "inputs": [],
      "name": "exerciseFee",
      "outputs": [
        {
          "internalType": "uint256",
          "name": "",
          "type": "uint256"
        }
      ],
      "stateMutability": "view",
      "type": "function",
      "constant": true
    },
    {
      "inputs": [
        {
          "internalType": "bytes32",
          "name": "role",
          "type": "bytes32"
        }
      ],
      "name": "getRoleAdmin",
      "outputs": [
        {
          "internalType": "bytes32",
          "name": "",
          "type": "bytes32"
        }
      ],
      "stateMutability": "view",
      "type": "function",
      "constant": true
    },
    {
      "inputs": [
        {
          "internalType": "bytes32",
          "name": "role",
          "type": "bytes32"
        },
        {
          "internalType": "address",
          "name": "account",
          "type": "address"
        }
      ],
      "name": "grantRole",
      "outputs": [],
      "stateMutability": "nonpayable",
      "type": "function"
    },
    {
      "inputs": [
        {
          "internalType": "bytes32",
          "name": "role",
          "type": "bytes32"
        },
        {
          "internalType": "address",
          "name": "account",
          "type": "address"
        }
      ],
      "name": "hasRole",
      "outputs": [
        {
          "internalType": "bool",
          "name": "",
          "type": "bool"
        }
      ],
      "stateMutability": "view",
      "type": "function",
      "constant": true
    },
    {
      "inputs": [
        {
          "internalType": "address",
          "name": "spender",
          "type": "address"
        },
        {
          "internalType": "uint256",
          "name": "addedValue",
          "type": "uint256"
        }
      ],
      "name": "increaseAllowance",
      "outputs": [
        {
          "internalType": "bool",
          "name": "",
          "type": "bool"
        }
      ],
      "stateMutability": "nonpayable",
      "type": "function"
    },
    {
      "inputs": [],
      "name": "lendingPoolRateMode",
      "outputs": [
        {
          "internalType": "uint256",
          "name": "",
          "type": "uint256"
        }
      ],
      "stateMutability": "view",
      "type": "function",
      "constant": true
    },
    {
      "inputs": [],
      "name": "maintenanceAddress",
      "outputs": [
        {
          "internalType": "address",
          "name": "",
          "type": "address"
        }
      ],
      "stateMutability": "view",
      "type": "function",
      "constant": true
    },
    {
      "inputs": [],
      "name": "name",
      "outputs": [
        {
          "internalType": "string",
          "name": "",
          "type": "string"
        }
      ],
      "stateMutability": "view",
      "type": "function",
      "constant": true
    },
    {
      "inputs": [
        {
          "internalType": "bytes32",
          "name": "role",
          "type": "bytes32"
        },
        {
          "internalType": "address",
          "name": "account",
          "type": "address"
        }
      ],
      "name": "renounceRole",
      "outputs": [],
      "stateMutability": "nonpayable",
      "type": "function"
    },
    {
      "inputs": [
        {
          "internalType": "bytes32",
          "name": "role",
          "type": "bytes32"
        },
        {
          "internalType": "address",
          "name": "account",
          "type": "address"
        }
      ],
      "name": "revokeRole",
      "outputs": [],
      "stateMutability": "nonpayable",
      "type": "function"
    },
    {
      "inputs": [],
      "name": "settlementFee",
      "outputs": [
        {
          "internalType": "uint256",
          "name": "",
          "type": "uint256"
        }
      ],
      "stateMutability": "view",
      "type": "function",
      "constant": true
    },
    {
      "inputs": [
        {
          "internalType": "bytes4",
          "name": "interfaceId",
          "type": "bytes4"
        }
      ],
      "name": "supportsInterface",
      "outputs": [
        {
          "internalType": "bool",
          "name": "",
          "type": "bool"
        }
      ],
      "stateMutability": "view",
      "type": "function",
      "constant": true
    },
    {
      "inputs": [],
      "name": "swapSlippage",
      "outputs": [
        {
          "internalType": "uint256",
          "name": "",
          "type": "uint256"
        }
      ],
      "stateMutability": "view",
      "type": "function",
      "constant": true
    },
    {
      "inputs": [],
      "name": "symbol",
      "outputs": [
        {
          "internalType": "string",
          "name": "",
          "type": "string"
        }
      ],
      "stateMutability": "view",
      "type": "function",
      "constant": true
    },
    {
      "inputs": [],
      "name": "totalSupply",
      "outputs": [
        {
          "internalType": "uint256",
          "name": "",
          "type": "uint256"
        }
      ],
      "stateMutability": "view",
      "type": "function",
      "constant": true
    },
    {
      "inputs": [
        {
          "internalType": "address",
          "name": "recipient",
          "type": "address"
        },
        {
          "internalType": "uint256",
          "name": "amount",
          "type": "uint256"
        }
      ],
      "name": "transfer",
      "outputs": [
        {
          "internalType": "bool",
          "name": "",
          "type": "bool"
        }
      ],
      "stateMutability": "nonpayable",
      "type": "function"
    },
    {
      "inputs": [
        {
          "internalType": "address",
          "name": "sender",
          "type": "address"
        },
        {
          "internalType": "address",
          "name": "recipient",
          "type": "address"
        },
        {
          "internalType": "uint256",
          "name": "amount",
          "type": "uint256"
        }
      ],
      "name": "transferFrom",
      "outputs": [
        {
          "internalType": "bool",
          "name": "",
          "type": "bool"
        }
      ],
      "stateMutability": "nonpayable",
      "type": "function"
    },
    {
      "inputs": [
        {
          "internalType": "address",
          "name": "exerciseFeeRecipient",
          "type": "address"
        }
      ],
      "name": "expireOptions",
      "outputs": [],
      "stateMutability": "nonpayable",
      "type": "function"
    },
    {
      "inputs": [
        {
          "internalType": "bool",
          "name": "_net",
          "type": "bool"
        },
        {
          "internalType": "bool",
          "name": "_average",
          "type": "bool"
        }
      ],
      "name": "calcCapital",
      "outputs": [
        {
          "internalType": "uint256",
          "name": "_capital",
          "type": "uint256"
        }
      ],
      "stateMutability": "view",
      "type": "function",
      "constant": true
    },
    {
      "inputs": [
        {
          "internalType": "uint256",
          "name": "_depositAmount",
          "type": "uint256"
        }
      ],
      "name": "addCapital",
      "outputs": [],
      "stateMutability": "nonpayable",
      "type": "function"
    },
    {
      "inputs": [
        {
          "internalType": "uint256",
          "name": "_burnMPTokenAmount",
          "type": "uint256"
        }
      ],
      "name": "withdrawCapital",
      "outputs": [],
      "stateMutability": "nonpayable",
      "type": "function"
    },
    {
      "inputs": [
        {
          "internalType": "address",
          "name": "_tokenAddress",
          "type": "address"
        },
        {
          "internalType": "address",
          "name": "_spenderAddress",
          "type": "address"
        },
        {
          "internalType": "uint256",
          "name": "_amount",
          "type": "uint256"
        }
      ],
      "name": "approveSpending",
      "outputs": [],
      "stateMutability": "nonpayable",
      "type": "function"
    },
    {
      "inputs": [
        {
          "internalType": "int256",
          "name": "_underlyingAmt",
          "type": "int256"
        },
        {
          "internalType": "int256",
          "name": "_fundingAmt",
          "type": "int256"
        },
        {
          "internalType": "address",
          "name": "_router",
          "type": "address"
        },
        {
          "internalType": "uint256",
          "name": "_parameter",
          "type": "uint256"
        },
        {
          "internalType": "bool",
          "name": "_useAggregator",
          "type": "bool"
        }
      ],
      "name": "tradesSwaps",
      "outputs": [],
      "stateMutability": "nonpayable",
      "type": "function"
    },
    {
      "inputs": [],
      "name": "hedgeTradesForLoans",
      "outputs": [],
      "stateMutability": "nonpayable",
      "type": "function"
    },
    {
      "inputs": [
        {
          "internalType": "uint256",
          "name": "_newFee",
          "type": "uint256"
        }
      ],
      "name": "resetSettlementFee",
      "outputs": [],
      "stateMutability": "nonpayable",
      "type": "function"
    },
    {
      "inputs": [
        {
          "internalType": "uint256",
          "name": "_newFee",
          "type": "uint256"
        }
      ],
      "name": "resetExerciseFee",
      "outputs": [],
      "stateMutability": "nonpayable",
      "type": "function"
    },
    {
      "inputs": [
        {
          "internalType": "address",
          "name": "_newAddress",
          "type": "address"
        }
      ],
      "name": "resetMaintenance",
      "outputs": [],
      "stateMutability": "nonpayable",
      "type": "function"
    },
    {
      "inputs": [
        {
          "internalType": "uint256",
          "name": "_slippage",
          "type": "uint256"
        }
      ],
      "name": "resetSlippage",
      "outputs": [],
      "stateMutability": "nonpayable",
      "type": "function"
    },
    {
      "inputs": [
        {
          "internalType": "uint256",
          "name": "_newRateMode",
          "type": "uint256"
        }
      ],
      "name": "resetLendingPoolRateMode",
      "outputs": [],
      "stateMutability": "nonpayable",
      "type": "function"
    }
  ],
  "bytecode": "0x60806040526611c37937e080006007556611c37937e080006008556002600d556611c37937e08000600e553480156200003757600080fd5b50604051620064da380380620064da83398181016040528101906200005d919062000979565b8282816003908051906020019062000077929190620006c7565b50806004908051906020019062000090929190620006c7565b505050620000a86000801b33620003c960201b60201c565b620000da7fa49807205ce4d355092ef5a8a18f56e8913cf4a201fbe287825b095693c2177533620003c960201b60201c565b6200010c7f28d62fc77014de57a1bbaa8212ff0979fa61ab00d377b4b8d9762048fb41996133620003c960201b60201c565b33600c60006101000a81548173ffffffffffffffffffffffffffffffffffffffff021916908373ffffffffffffffffffffffffffffffffffffffff16021790555080600960006101000a81548173ffffffffffffffffffffffffffffffffffffffff021916908373ffffffffffffffffffffffffffffffffffffffff16021790555073__OptionLibrary_________________________63fd9b87636040518163ffffffff1660e01b8152600401602060405180830381865af4158015620001d8573d6000803e3d6000fd5b505050506040513d601f19601f82011682018060405250810190620001fe919062000a4e565b600681905550600960009054906101000a900473ffffffffffffffffffffffffffffffffffffffff1673ffffffffffffffffffffffffffffffffffffffff16636f307dc36040518163ffffffff1660e01b8152600401602060405180830381865afa15801562000272573d6000803e3d6000fd5b505050506040513d601f19601f8201168201806040525081019062000298919062000a80565b600a60006101000a81548173ffffffffffffffffffffffffffffffffffffffff021916908373ffffffffffffffffffffffffffffffffffffffff160217905550600960009054906101000a900473ffffffffffffffffffffffffffffffffffffffff1673ffffffffffffffffffffffffffffffffffffffff1663cb4c86b76040518163ffffffff1660e01b8152600401602060405180830381865afa15801562000346573d6000803e3d6000fd5b505050506040513d601f19601f820116820180604052508101906200036c919062000a80565b600b60006101000a81548173ffffffffffffffffffffffffffffffffffffffff021916908373ffffffffffffffffffffffffffffffffffffffff160217905550620003c033600654620003df60201b60201c565b50505062000c54565b620003db82826200055860201b60201c565b5050565b600073ffffffffffffffffffffffffffffffffffffffff168273ffffffffffffffffffffffffffffffffffffffff16141562000452576040517f08c379a0000000000000000000000000000000000000000000000000000000008152600401620004499062000b13565b60405180910390fd5b62000466600083836200064a60201b60201c565b80600260008282546200047a919062000b64565b92505081905550806000808473ffffffffffffffffffffffffffffffffffffffff1673ffffffffffffffffffffffffffffffffffffffff1681526020019081526020016000206000828254620004d1919062000b64565b925050819055508173ffffffffffffffffffffffffffffffffffffffff16600073ffffffffffffffffffffffffffffffffffffffff167fddf252ad1be2c89b69c2b068fc378daa952ba7f163c4a11628f55a4df523b3ef8360405162000538919062000bd2565b60405180910390a362000554600083836200064f60201b60201c565b5050565b6200056a82826200065460201b60201c565b620006465760016005600084815260200190815260200160002060000160008373ffffffffffffffffffffffffffffffffffffffff1673ffffffffffffffffffffffffffffffffffffffff16815260200190815260200160002060006101000a81548160ff021916908315150217905550620005eb620006bf60201b60201c565b73ffffffffffffffffffffffffffffffffffffffff168173ffffffffffffffffffffffffffffffffffffffff16837f2f8788117e7eff1d82e926ec794901d17c78024a50270940304540a733656f0d60405160405180910390a45b5050565b505050565b505050565b60006005600084815260200190815260200160002060000160008373ffffffffffffffffffffffffffffffffffffffff1673ffffffffffffffffffffffffffffffffffffffff16815260200190815260200160002060009054906101000a900460ff16905092915050565b600033905090565b828054620006d59062000c1e565b90600052602060002090601f016020900481019282620006f9576000855562000745565b82601f106200071457805160ff191683800117855562000745565b8280016001018555821562000745579182015b828111156200074457825182559160200191906001019062000727565b5b50905062000754919062000758565b5090565b5b808211156200077357600081600090555060010162000759565b5090565b6000604051905090565b600080fd5b600080fd5b600080fd5b600080fd5b6000601f19601f8301169050919050565b7f4e487b7100000000000000000000000000000000000000000000000000000000600052604160045260246000fd5b620007e08262000795565b810181811067ffffffffffffffff82111715620008025762000801620007a6565b5b80604052505050565b60006200081762000777565b9050620008258282620007d5565b919050565b600067ffffffffffffffff821115620008485762000847620007a6565b5b620008538262000795565b9050602081019050919050565b60005b838110156200088057808201518184015260208101905062000863565b8381111562000890576000848401525b50505050565b6000620008ad620008a7846200082a565b6200080b565b905082815260208101848484011115620008cc57620008cb62000790565b5b620008d984828562000860565b509392505050565b600082601f830112620008f957620008f86200078b565b5b81516200090b84826020860162000896565b91505092915050565b600073ffffffffffffffffffffffffffffffffffffffff82169050919050565b6000620009418262000914565b9050919050565b620009538162000934565b81146200095f57600080fd5b50565b600081519050620009738162000948565b92915050565b60008060006060848603121562000995576200099462000781565b5b600084015167ffffffffffffffff811115620009b657620009b562000786565b5b620009c486828701620008e1565b935050602084015167ffffffffffffffff811115620009e857620009e762000786565b5b620009f686828701620008e1565b925050604062000a098682870162000962565b9150509250925092565b6000819050919050565b62000a288162000a13565b811462000a3457600080fd5b50565b60008151905062000a488162000a1d565b92915050565b60006020828403121562000a675762000a6662000781565b5b600062000a778482850162000a37565b91505092915050565b60006020828403121562000a995762000a9862000781565b5b600062000aa98482850162000962565b91505092915050565b600082825260208201905092915050565b7f45524332303a206d696e7420746f20746865207a65726f206164647265737300600082015250565b600062000afb601f8362000ab2565b915062000b088262000ac3565b602082019050919050565b6000602082019050818103600083015262000b2e8162000aec565b9050919050565b7f4e487b7100000000000000000000000000000000000000000000000000000000600052601160045260246000fd5b600062000b718262000a13565b915062000b7e8362000a13565b9250827fffffffffffffffffffffffffffffffffffffffffffffffffffffffffffffffff0382111562000bb65762000bb562000b35565b5b828201905092915050565b62000bcc8162000a13565b82525050565b600060208201905062000be9600083018462000bc1565b92915050565b7f4e487b7100000000000000000000000000000000000000000000000000000000600052602260045260246000fd5b6000600282049050600182168062000c3757607f821691505b6020821081141562000c4e5762000c4d62000bef565b5b50919050565b6158768062000c646000396000f3fe608060405234801561001057600080fd5b50600436106102275760003560e01c80636344790211610130578063a9059cbb116100b8578063d8a14cbe1161007c578063d8a14cbe1461067a578063d95b0a1214610696578063dd62ed3e146106b2578063e3f828fa146106e2578063ecc513f0146106fe57610227565b8063a9059cbb146105d6578063b82e106d14610606578063bea10f9614610624578063d1c699aa14610640578063d547741f1461065e57610227565b80637d1d7fb8116100ff5780637d1d7fb81461051c57806391d148541461053a57806395d89b411461056a578063a217fddf14610588578063a457c2d7146105a657610227565b8063634479021461048057806370a08231146104b0578063719d5f83146104e057806375b238fc146104fe57610227565b80632f2ff15d116101b35780633733116d116101825780633733116d146103f057806339509351146103fa5780633b7345011461042a57806345b2f91c1461044857806346c777d81461046457610227565b80632f2ff15d1461037e578063313ce5671461039a57806333d0d83c146103b857806336568abe146103d457610227565b8063095ea7b3116101fa578063095ea7b3146102b257806318160ddd146102e25780631aedeabe1461030057806323b872dd1461031e578063248a9ca31461034e57610227565b806301ffc9a71461022c57806306fdde031461025c57806307ba08ce1461027a5780630837ecfd14610296575b600080fd5b61024660048036038101906102419190613caf565b61071a565b6040516102539190613cf7565b60405180910390f35b610264610794565b6040516102719190613dab565b60405180910390f35b610294600480360381019061028f9190613e2b565b610826565b005b6102b060048036038101906102ab9190613e8e565b611108565b005b6102cc60048036038101906102c79190613ebb565b61115d565b6040516102d99190613cf7565b60405180910390f35b6102ea61117b565b6040516102f79190613f0a565b60405180910390f35b610308611185565b6040516103159190613f0a565b60405180910390f35b61033860048036038101906103339190613f25565b61118b565b6040516103459190613cf7565b60405180910390f35b61036860048036038101906103639190613fae565b611283565b6040516103759190613fea565b60405180910390f35b61039860048036038101906103939190614005565b6112a3565b005b6103a26112cc565b6040516103af9190614061565b60405180910390f35b6103d260048036038101906103cd91906140de565b6112d5565b005b6103ee60048036038101906103e99190614005565b6114e8565b005b6103f861156b565b005b610414600480360381019061040f9190613ebb565b611e40565b6040516104219190613cf7565b60405180910390f35b610432611eec565b60405161043f9190613fea565b60405180910390f35b610462600480360381019061045d9190613e2b565b611f10565b005b61047e60048036038101906104799190613e8e565b611f87565b005b61049a60048036038101906104959190614159565b611fd2565b6040516104a79190613f0a565b60405180910390f35b6104ca60048036038101906104c59190613e2b565b612211565b6040516104d79190613f0a565b60405180910390f35b6104e8612259565b6040516104f591906141a8565b60405180910390f35b61050661227f565b6040516105139190613fea565b60405180910390f35b6105246122a3565b6040516105319190613f0a565b60405180910390f35b610554600480360381019061054f9190614005565b6122a9565b6040516105619190613cf7565b60405180910390f35b610572612314565b60405161057f9190613dab565b60405180910390f35b6105906123a6565b60405161059d9190613fea565b60405180910390f35b6105c060048036038101906105bb9190613ebb565b6123ad565b6040516105cd9190613cf7565b60405180910390f35b6105f060048036038101906105eb9190613ebb565b612498565b6040516105fd9190613cf7565b60405180910390f35b61060e6124b6565b60405161061b9190613f0a565b60405180910390f35b61063e60048036038101906106399190613e8e565b6124bc565b005b610648612667565b6040516106559190613f0a565b60405180910390f35b61067860048036038101906106739190614005565b61266d565b005b610694600480360381019061068f9190613f25565b612696565b005b6106b060048036038101906106ab9190613e8e565b61274d565b005b6106cc60048036038101906106c791906141c3565b6129d2565b6040516106d99190613f0a565b60405180910390f35b6106fc60048036038101906106f79190613e8e565b612a59565b005b61071860048036038101906107139190613e8e565b612a96565b005b60007f7965db0b000000000000000000000000000000000000000000000000000000007bffffffffffffffffffffffffffffffffffffffffffffffffffffffff1916827bffffffffffffffffffffffffffffffffffffffffffffffffffffffff1916148061078d575061078c82612ae1565b5b9050919050565b6060600380546107a390614232565b80601f01602080910402602001604051908101604052809291908181526020018280546107cf90614232565b801561081c5780601f106107f15761010080835404028352916020019161081c565b820191906000526020600020905b8154815290600101906020018083116107ff57829003601f168201915b5050505050905090565b6000600960009054906101000a900473ffffffffffffffffffffffffffffffffffffffff1673ffffffffffffffffffffffffffffffffffffffff16637652e7c46040518163ffffffff1660e01b8152600401602060405180830381865afa158015610895573d6000803e3d6000fd5b505050506040513d601f19601f820116820180604052508101906108b99190614279565b90505b600081111561110457600960009054906101000a900473ffffffffffffffffffffffffffffffffffffffff1673ffffffffffffffffffffffffffffffffffffffff1663637baf60826040518263ffffffff1660e01b81526004016109209190613f0a565b600060405180830381600087803b15801561093a57600080fd5b505af115801561094e573d6000803e3d6000fd5b50505050600080600960009054906101000a900473ffffffffffffffffffffffffffffffffffffffff1673ffffffffffffffffffffffffffffffffffffffff166385ae10e6846040518263ffffffff1660e01b81526004016109b09190613f0a565b6040805180830381865afa1580156109cc573d6000803e3d6000fd5b505050506040513d601f19601f820116820180604052508101906109f091906142a6565b9150915073__MarketLibrary_________________________63eea2526b600b60009054906101000a900473ffffffffffffffffffffffffffffffffffffffff16306040518363ffffffff1660e01b8152600401610a4f9291906142f5565b602060405180830381865af4158015610a6c573d6000803e3d6000fd5b505050506040513d601f19601f82011682018060405250810190610a909190614279565b8110610ad1576040517f08c379a0000000000000000000000000000000000000000000000000000000008152600401610ac89061436a565b60405180910390fd5b600081111561106a576000818314610ae95781610b13565b610b1282600854600754600654610b0091906143b9565b610b0a91906143b9565b600654612b4b565b5b90506000610b2684600754600654612b4b565b90506000610b3985600854600654612b4b565b9050600b60009054906101000a900473ffffffffffffffffffffffffffffffffffffffff1673ffffffffffffffffffffffffffffffffffffffff1663a9059cbb600960009054906101000a900473ffffffffffffffffffffffffffffffffffffffff1673ffffffffffffffffffffffffffffffffffffffff16631a7985ba896040518263ffffffff1660e01b8152600401610bd49190613f0a565b602060405180830381865afa158015610bf1573d6000803e3d6000fd5b505050506040513d601f19601f82011682018060405250810190610c159190614402565b73__MarketLibrary_________________________638170ce8087600b60009054906101000a900473ffffffffffffffffffffffffffffffffffffffff166040518363ffffffff1660e01b8152600401610c7092919061443e565b602060405180830381865af4158015610c8d573d6000803e3d6000fd5b505050506040513d601f19601f82011682018060405250810190610cb19190614279565b6040518363ffffffff1660e01b8152600401610cce929190614467565b6020604051808303816000875af1158015610ced573d6000803e3d6000fd5b505050506040513d601f19601f82011682018060405250810190610d1191906144a5565b610d50576040517f08c379a0000000000000000000000000000000000000000000000000000000008152600401610d479061451e565b60405180910390fd5b600b60009054906101000a900473ffffffffffffffffffffffffffffffffffffffff1673ffffffffffffffffffffffffffffffffffffffff1663a9059cbb600c60009054906101000a900473ffffffffffffffffffffffffffffffffffffffff1673__MarketLibrary_________________________638170ce8086600b60009054906101000a900473ffffffffffffffffffffffffffffffffffffffff166040518363ffffffff1660e01b8152600401610e0c92919061443e565b602060405180830381865af4158015610e29573d6000803e3d6000fd5b505050506040513d601f19601f82011682018060405250810190610e4d9190614279565b6040518363ffffffff1660e01b8152600401610e6a929190614467565b6020604051808303816000875af1158015610e89573d6000803e3d6000fd5b505050506040513d601f19601f82011682018060405250810190610ead91906144a5565b610eec576040517f08c379a0000000000000000000000000000000000000000000000000000000008152600401610ee39061458a565b60405180910390fd5b600b60009054906101000a900473ffffffffffffffffffffffffffffffffffffffff1673ffffffffffffffffffffffffffffffffffffffff1663a9059cbb8873__MarketLibrary_________________________638170ce8085600b60009054906101000a900473ffffffffffffffffffffffffffffffffffffffff166040518363ffffffff1660e01b8152600401610f8692919061443e565b602060405180830381865af4158015610fa3573d6000803e3d6000fd5b505050506040513d601f19601f82011682018060405250810190610fc79190614279565b6040518363ffffffff1660e01b8152600401610fe4929190614467565b6020604051808303816000875af1158015611003573d6000803e3d6000fd5b505050506040513d601f19601f8201168201806040525081019061102791906144a5565b611066576040517f08c379a000000000000000000000000000000000000000000000000000000000815260040161105d906145f6565b60405180910390fd5b5050505b600960009054906101000a900473ffffffffffffffffffffffffffffffffffffffff1673ffffffffffffffffffffffffffffffffffffffff16637652e7c46040518163ffffffff1660e01b8152600401602060405180830381865afa1580156110d7573d6000803e3d6000fd5b505050506040513d601f19601f820116820180604052508101906110fb9190614279565b925050506108bc565b5050565b7fa49807205ce4d355092ef5a8a18f56e8913cf4a201fbe287825b095693c2177561113a81611135612c47565b612c4f565b60018214806111495750600282145b61115257600080fd5b81600d819055505050565b600061117161116a612c47565b8484612cec565b6001905092915050565b6000600254905090565b600e5481565b6000611198848484612eb7565b6000600160008673ffffffffffffffffffffffffffffffffffffffff1673ffffffffffffffffffffffffffffffffffffffff16815260200190815260200160002060006111e3612c47565b73ffffffffffffffffffffffffffffffffffffffff1673ffffffffffffffffffffffffffffffffffffffff16815260200190815260200160002054905082811015611263576040517f08c379a000000000000000000000000000000000000000000000000000000000815260040161125a90614688565b60405180910390fd5b6112778561126f612c47565b858403612cec565b60019150509392505050565b600060056000838152602001908152602001600020600101549050919050565b6112ac82611283565b6112bd816112b8612c47565b612c4f565b6112c78383613138565b505050565b60006012905090565b7f28d62fc77014de57a1bbaa8212ff0979fa61ab00d377b4b8d9762048fb41996161130781611302612c47565b612c4f565b60008060008073__MarketLibrary_________________________63865c99848b8b600960009054906101000a900473ffffffffffffffffffffffffffffffffffffffff1673ffffffffffffffffffffffffffffffffffffffff16636f307dc36040518163ffffffff1660e01b8152600401602060405180830381865afa158015611396573d6000803e3d6000fd5b505050506040513d601f19601f820116820180604052508101906113ba9190614402565b600960009054906101000a900473ffffffffffffffffffffffffffffffffffffffff1673ffffffffffffffffffffffffffffffffffffffff1663cb4c86b76040518163ffffffff1660e01b8152600401602060405180830381865afa158015611427573d6000803e3d6000fd5b505050506040513d601f19601f8201168201806040525081019061144b9190614402565b6040518563ffffffff1660e01b815260040161146a94939291906146b7565b608060405180830381865af4158015611487573d6000803e3d6000fd5b505050506040513d601f19601f820116820180604052508101906114ab91906146fc565b935093509350935085156114c8576114c782828a87878c613219565b5b856114dc576114db82828a87878c6133c2565b5b50505050505050505050565b6114f0612c47565b73ffffffffffffffffffffffffffffffffffffffff168173ffffffffffffffffffffffffffffffffffffffff161461155d576040517f08c379a0000000000000000000000000000000000000000000000000000000008152600401611554906147d5565b60405180910390fd5b61156782826135cb565b5050565b7f28d62fc77014de57a1bbaa8212ff0979fa61ab00d377b4b8d9762048fb41996161159d81611598612c47565b612c4f565b600080600080600960009054906101000a900473ffffffffffffffffffffffffffffffffffffffff1673ffffffffffffffffffffffffffffffffffffffff166365bf997630600d546040518363ffffffff1660e01b8152600401611602929190614467565b608060405180830381865afa15801561161f573d6000803e3d6000fd5b505050506040513d601f19601f82011682018060405250810190611643919061480a565b935093509350935073__MarketLibrary_________________________63aa5c12c785846040518363ffffffff1660e01b8152600401611684929190614871565b602060405180830381865af41580156116a1573d6000803e3d6000fd5b505050506040513d601f19601f820116820180604052508101906116c5919061489a565b935073__MarketLibrary_________________________63aa5c12c784836040518363ffffffff1660e01b8152600401611700929190614871565b602060405180830381865af415801561171d573d6000803e3d6000fd5b505050506040513d601f19601f82011682018060405250810190611741919061489a565b92506000600960009054906101000a900473ffffffffffffffffffffffffffffffffffffffff1673ffffffffffffffffffffffffffffffffffffffff1663251e1e8a6040518163ffffffff1660e01b8152600401602060405180830381865afa1580156117b2573d6000803e3d6000fd5b505050506040513d601f19601f820116820180604052508101906117d69190614402565b73ffffffffffffffffffffffffffffffffffffffff16630261bf8b6040518163ffffffff1660e01b8152600401602060405180830381865afa158015611820573d6000803e3d6000fd5b505050506040513d601f19601f820116820180604052508101906118449190614402565b9050600084131561198557600b60009054906101000a900473ffffffffffffffffffffffffffffffffffffffff1673ffffffffffffffffffffffffffffffffffffffff16633950935182866040518363ffffffff1660e01b81526004016118ac929190614467565b6020604051808303816000875af11580156118cb573d6000803e3d6000fd5b505050506040513d601f19601f820116820180604052508101906118ef91906144a5565b508073ffffffffffffffffffffffffffffffffffffffff1663e8eda9df600b60009054906101000a900473ffffffffffffffffffffffffffffffffffffffff16863060006040518563ffffffff1660e01b8152600401611952949392919061491a565b600060405180830381600087803b15801561196c57600080fd5b505af1158015611980573d6000803e3d6000fd5b505050505b6000851315611a27578073ffffffffffffffffffffffffffffffffffffffff1663a415bcad600a60009054906101000a900473ffffffffffffffffffffffffffffffffffffffff1687600d546000306040518663ffffffff1660e01b81526004016119f495949392919061495f565b600060405180830381600087803b158015611a0e57600080fd5b505af1158015611a22573d6000803e3d6000fd5b505050505b6000851215611cfa5784611a3a906149b2565b600a60009054906101000a900473ffffffffffffffffffffffffffffffffffffffff1673ffffffffffffffffffffffffffffffffffffffff166370a08231306040518263ffffffff1660e01b8152600401611a9591906141a8565b602060405180830381865afa158015611ab2573d6000803e3d6000fd5b505050506040513d601f19601f82011682018060405250810190611ad69190614279565b1015611b17576040517f08c379a0000000000000000000000000000000000000000000000000000000008152600401611b0e90614a47565b60405180910390fd5b8273ffffffffffffffffffffffffffffffffffffffff1663095ea7b38287611b3e906149b2565b6040518363ffffffff1660e01b8152600401611b5b929190614467565b6020604051808303816000875af1158015611b7a573d6000803e3d6000fd5b505050506040513d601f19601f82011682018060405250810190611b9e91906144a5565b50600a60009054906101000a900473ffffffffffffffffffffffffffffffffffffffff1673ffffffffffffffffffffffffffffffffffffffff1663095ea7b38287611be8906149b2565b6040518363ffffffff1660e01b8152600401611c05929190614467565b6020604051808303816000875af1158015611c24573d6000803e3d6000fd5b505050506040513d601f19601f82011682018060405250810190611c4891906144a5565b508073ffffffffffffffffffffffffffffffffffffffff1663573ade81600a60009054906101000a900473ffffffffffffffffffffffffffffffffffffffff1687611c92906149b2565b600d54306040518563ffffffff1660e01b8152600401611cb59493929190614a67565b6020604051808303816000875af1158015611cd4573d6000803e3d6000fd5b505050506040513d601f19601f82011682018060405250810190611cf89190614279565b505b6000841215611e38578173ffffffffffffffffffffffffffffffffffffffff1663395093518286611d2a906149b2565b6040518363ffffffff1660e01b8152600401611d47929190614467565b6020604051808303816000875af1158015611d66573d6000803e3d6000fd5b505050506040513d601f19601f82011682018060405250810190611d8a91906144a5565b508073ffffffffffffffffffffffffffffffffffffffff166369328dec600b60009054906101000a900473ffffffffffffffffffffffffffffffffffffffff1686611dd4906149b2565b306040518463ffffffff1660e01b8152600401611df393929190614aac565b6020604051808303816000875af1158015611e12573d6000803e3d6000fd5b505050506040513d601f19601f82011682018060405250810190611e369190614279565b505b505050505050565b6000611ee2611e4d612c47565b848460016000611e5b612c47565b73ffffffffffffffffffffffffffffffffffffffff1673ffffffffffffffffffffffffffffffffffffffff16815260200190815260200160002060008873ffffffffffffffffffffffffffffffffffffffff1673ffffffffffffffffffffffffffffffffffffffff16815260200190815260200160002054611edd9190614ae3565b612cec565b6001905092915050565b7f28d62fc77014de57a1bbaa8212ff0979fa61ab00d377b4b8d9762048fb41996181565b7fa49807205ce4d355092ef5a8a18f56e8913cf4a201fbe287825b095693c21775611f4281611f3d612c47565b612c4f565b81600c60006101000a81548173ffffffffffffffffffffffffffffffffffffffff021916908373ffffffffffffffffffffffffffffffffffffffff1602179055505050565b7fa49807205ce4d355092ef5a8a18f56e8913cf4a201fbe287825b095693c21775611fb981611fb4612c47565b612c4f565b6006548210611fc757600080fd5b816007819055505050565b6000600960009054906101000a900473ffffffffffffffffffffffffffffffffffffffff1673ffffffffffffffffffffffffffffffffffffffff16638b83b6b6306040518263ffffffff1660e01b815260040161202f91906141a8565b602060405180830381865afa15801561204c573d6000803e3d6000fd5b505050506040513d601f19601f820116820180604052508101906120709190614279565b905082156121bb576121ad600960009054906101000a900473ffffffffffffffffffffffffffffffffffffffff1673ffffffffffffffffffffffffffffffffffffffff16634717f5b96040518163ffffffff1660e01b8152600401602060405180830381865afa1580156120e8573d6000803e3d6000fd5b505050506040513d601f19601f8201168201806040525081019061210c9190614279565b600960009054906101000a900473ffffffffffffffffffffffffffffffffffffffff1673ffffffffffffffffffffffffffffffffffffffff1663448ba42f6040518163ffffffff1660e01b8152600401602060405180830381865afa158015612179573d6000803e3d6000fd5b505050506040513d601f19601f8201168201806040525081019061219d9190614279565b6121a79190614ae3565b826136ad565b816121b891906143b9565b90505b811561220b5760006121cb61117b565b11156121e8576121e5816006546121e061117b565b612b4b565b90505b60006121f261117b565b1480156121ff5750600081145b1561220a5760065490505b5b92915050565b60008060008373ffffffffffffffffffffffffffffffffffffffff1673ffffffffffffffffffffffffffffffffffffffff168152602001908152602001600020549050919050565b600c60009054906101000a900473ffffffffffffffffffffffffffffffffffffffff1681565b7fa49807205ce4d355092ef5a8a18f56e8913cf4a201fbe287825b095693c2177581565b60075481565b60006005600084815260200190815260200160002060000160008373ffffffffffffffffffffffffffffffffffffffff1673ffffffffffffffffffffffffffffffffffffffff16815260200190815260200160002060009054906101000a900460ff16905092915050565b60606004805461232390614232565b80601f016020809104026020016040519081016040528092919081815260200182805461234f90614232565b801561239c5780601f106123715761010080835404028352916020019161239c565b820191906000526020600020905b81548152906001019060200180831161237f57829003601f168201915b5050505050905090565b6000801b81565b600080600160006123bc612c47565b73ffffffffffffffffffffffffffffffffffffffff1673ffffffffffffffffffffffffffffffffffffffff16815260200190815260200160002060008573ffffffffffffffffffffffffffffffffffffffff1673ffffffffffffffffffffffffffffffffffffffff16815260200190815260200160002054905082811015612479576040517f08c379a000000000000000000000000000000000000000000000000000000000815260040161247090614bab565b60405180910390fd5b61248d612484612c47565b85858403612cec565b600191505092915050565b60006124ac6124a5612c47565b8484612eb7565b6001905092915050565b600d5481565b600061257173__MarketLibrary_________________________63f0742a2584600b60009054906101000a900473ffffffffffffffffffffffffffffffffffffffff166040518363ffffffff1660e01b815260040161251c92919061443e565b602060405180830381865af4158015612539573d6000803e3d6000fd5b505050506040513d601f19601f8201168201806040525081019061255d9190614279565b60065461256c60006001611fd2565b612b4b565b9050600b60009054906101000a900473ffffffffffffffffffffffffffffffffffffffff1673ffffffffffffffffffffffffffffffffffffffff166323b872dd3330856040518463ffffffff1660e01b81526004016125d293929190614bcb565b6020604051808303816000875af11580156125f1573d6000803e3d6000fd5b505050506040513d601f19601f8201168201806040525081019061261591906144a5565b61261e57600080fd5b61262833826136c6565b7fd0d5ca25112902dbbf5a70a67eed6edc7513b74f2a7ec0805ca216c99f981cc133838360405161265b93929190614c02565b60405180910390a15050565b60085481565b61267682611283565b61268781612682612c47565b612c4f565b61269183836135cb565b505050565b7f28d62fc77014de57a1bbaa8212ff0979fa61ab00d377b4b8d9762048fb4199616126c8816126c3612c47565b612c4f565b8373ffffffffffffffffffffffffffffffffffffffff1663095ea7b384846040518363ffffffff1660e01b8152600401612703929190614467565b6020604051808303816000875af1158015612722573d6000803e3d6000fd5b505050506040513d601f19601f8201168201806040525081019061274691906144a5565b5050505050565b600073__MarketLibrary_________________________638170ce80612780612777600180611fd2565b85600654612b4b565b600b60009054906101000a900473ffffffffffffffffffffffffffffffffffffffff166040518363ffffffff1660e01b81526004016127c092919061443e565b602060405180830381865af41580156127dd573d6000803e3d6000fd5b505050506040513d601f19601f820116820180604052508101906128019190614279565b905080600b60009054906101000a900473ffffffffffffffffffffffffffffffffffffffff1673ffffffffffffffffffffffffffffffffffffffff166370a08231306040518263ffffffff1660e01b815260040161285f91906141a8565b602060405180830381865afa15801561287c573d6000803e3d6000fd5b505050506040513d601f19601f820116820180604052508101906128a09190614279565b116128e0576040517f08c379a00000000000000000000000000000000000000000000000000000000081526004016128d790614c85565b60405180910390fd5b6128ea3383613826565b600b60009054906101000a900473ffffffffffffffffffffffffffffffffffffffff1673ffffffffffffffffffffffffffffffffffffffff1663a9059cbb33836040518363ffffffff1660e01b8152600401612947929190614467565b6020604051808303816000875af1158015612966573d6000803e3d6000fd5b505050506040513d601f19601f8201168201806040525081019061298a91906144a5565b61299357600080fd5b7f3a9e5b3b520d77dc26bf05104c863b6b654d4b96fa8031a783ad0dbd905cdf393383836040516129c693929190614c02565b60405180910390a15050565b6000600160008473ffffffffffffffffffffffffffffffffffffffff1673ffffffffffffffffffffffffffffffffffffffff16815260200190815260200160002060008373ffffffffffffffffffffffffffffffffffffffff1673ffffffffffffffffffffffffffffffffffffffff16815260200190815260200160002054905092915050565b7fa49807205ce4d355092ef5a8a18f56e8913cf4a201fbe287825b095693c21775612a8b81612a86612c47565b612c4f565b81600e819055505050565b7fa49807205ce4d355092ef5a8a18f56e8913cf4a201fbe287825b095693c21775612ac881612ac3612c47565b612c4f565b6006548210612ad657600080fd5b816008819055505050565b60007f01ffc9a7000000000000000000000000000000000000000000000000000000007bffffffffffffffffffffffffffffffffffffffffffffffffffffffff1916827bffffffffffffffffffffffffffffffffffffffffffffffffffffffff1916149050919050565b600080600080198587098587029250828110838203039150506000811415612b865760008411612b7a57600080fd5b83820492505050612c40565b808411612b9257600080fd5b60008486880990508281118203915080830392506000856001877fffffffffffffffffffffffffffffffffffffffffffffffffffffffffffffffff0301169050808604955080840493506001818260000304019050808302841793506000600287600302189050808702600203810290508087026002038102905080870260020381029050808702600203810290508087026002038102905080870260020381029050808502955050505050505b9392505050565b600033905090565b612c5982826122a9565b612ce857612c7e8173ffffffffffffffffffffffffffffffffffffffff1660146139fd565b612c8c8360001c60206139fd565b604051602001612c9d929190614d79565b6040516020818303038152906040526040517f08c379a0000000000000000000000000000000000000000000000000000000008152600401612cdf9190613dab565b60405180910390fd5b5050565b600073ffffffffffffffffffffffffffffffffffffffff168373ffffffffffffffffffffffffffffffffffffffff161415612d5c576040517f08c379a0000000000000000000000000000000000000000000000000000000008152600401612d5390614e25565b60405180910390fd5b600073ffffffffffffffffffffffffffffffffffffffff168273ffffffffffffffffffffffffffffffffffffffff161415612dcc576040517f08c379a0000000000000000000000000000000000000000000000000000000008152600401612dc390614eb7565b60405180910390fd5b80600160008573ffffffffffffffffffffffffffffffffffffffff1673ffffffffffffffffffffffffffffffffffffffff16815260200190815260200160002060008473ffffffffffffffffffffffffffffffffffffffff1673ffffffffffffffffffffffffffffffffffffffff168152602001908152602001600020819055508173ffffffffffffffffffffffffffffffffffffffff168373ffffffffffffffffffffffffffffffffffffffff167f8c5be1e5ebec7d5bd14f71427d1e84f3dd0314c0f7b2291e5b200ac8c7c3b92583604051612eaa9190613f0a565b60405180910390a3505050565b600073ffffffffffffffffffffffffffffffffffffffff168373ffffffffffffffffffffffffffffffffffffffff161415612f27576040517f08c379a0000000000000000000000000000000000000000000000000000000008152600401612f1e90614f49565b60405180910390fd5b600073ffffffffffffffffffffffffffffffffffffffff168273ffffffffffffffffffffffffffffffffffffffff161415612f97576040517f08c379a0000000000000000000000000000000000000000000000000000000008152600401612f8e90614fdb565b60405180910390fd5b612fa2838383613c39565b60008060008573ffffffffffffffffffffffffffffffffffffffff1673ffffffffffffffffffffffffffffffffffffffff16815260200190815260200160002054905081811015613028576040517f08c379a000000000000000000000000000000000000000000000000000000000815260040161301f9061506d565b60405180910390fd5b8181036000808673ffffffffffffffffffffffffffffffffffffffff1673ffffffffffffffffffffffffffffffffffffffff16815260200190815260200160002081905550816000808573ffffffffffffffffffffffffffffffffffffffff1673ffffffffffffffffffffffffffffffffffffffff16815260200190815260200160002060008282546130bb9190614ae3565b925050819055508273ffffffffffffffffffffffffffffffffffffffff168473ffffffffffffffffffffffffffffffffffffffff167fddf252ad1be2c89b69c2b068fc378daa952ba7f163c4a11628f55a4df523b3ef8460405161311f9190613f0a565b60405180910390a3613132848484613c3e565b50505050565b61314282826122a9565b6132155760016005600084815260200190815260200160002060000160008373ffffffffffffffffffffffffffffffffffffffff1673ffffffffffffffffffffffffffffffffffffffff16815260200190815260200160002060006101000a81548160ff0219169083151502179055506131ba612c47565b73ffffffffffffffffffffffffffffffffffffffff168173ffffffffffffffffffffffffffffffffffffffff16837f2f8788117e7eff1d82e926ec794901d17c78024a50270940304540a733656f0d60405160405180910390a45b5050565b8573ffffffffffffffffffffffffffffffffffffffff1663095ea7b385856040518363ffffffff1660e01b8152600401613254929190614467565b6020604051808303816000875af1158015613273573d6000803e3d6000fd5b505050506040513d601f19601f8201168201806040525081019061329791906144a5565b506000808573ffffffffffffffffffffffffffffffffffffffff1663085e2c5b8989888760006040518663ffffffff1660e01b81526004016132dd959493929190615113565b600060405180830381865afa1580156132fa573d6000803e3d6000fd5b505050506040513d6000823e3d601f19601f8201168201806040525081019061332391906152ae565b915091508573ffffffffffffffffffffffffffffffffffffffff1663e2a7515e898988613350878a6136ad565b8660006040518763ffffffff1660e01b8152600401613374969594939291906153c8565b6020604051808303816000875af1158015613393573d6000803e3d6000fd5b505050506040513d601f19601f820116820180604052508101906133b79190614279565b505050505050505050565b8573ffffffffffffffffffffffffffffffffffffffff1663095ea7b385856040518363ffffffff1660e01b81526004016133fd929190614467565b6020604051808303816000875af115801561341c573d6000803e3d6000fd5b505050506040513d601f19601f8201168201806040525081019061344091906144a5565b506000600267ffffffffffffffff81111561345e5761345d61516b565b5b60405190808252806020026020018201604052801561348c5781602001602082028036833780820191505090505b50905086816000815181106134a4576134a3615430565b5b602002602001019073ffffffffffffffffffffffffffffffffffffffff16908173ffffffffffffffffffffffffffffffffffffffff168152505085816001815181106134f3576134f2615430565b5b602002602001019073ffffffffffffffffffffffffffffffffffffffff16908173ffffffffffffffffffffffffffffffffffffffff16815250508473ffffffffffffffffffffffffffffffffffffffff16638803dbee8486843087426135599190614ae3565b6040518663ffffffff1660e01b815260040161357995949392919061551d565b6000604051808303816000875af1158015613598573d6000803e3d6000fd5b505050506040513d6000823e3d601f19601f820116820180604052508101906135c19190615577565b5050505050505050565b6135d582826122a9565b156136a95760006005600084815260200190815260200160002060000160008373ffffffffffffffffffffffffffffffffffffffff1673ffffffffffffffffffffffffffffffffffffffff16815260200190815260200160002060006101000a81548160ff02191690831515021790555061364e612c47565b73ffffffffffffffffffffffffffffffffffffffff168173ffffffffffffffffffffffffffffffffffffffff16837ff6391f5c32d9c69d2a47ea670b442974b53935d1edc7fd64eb21e047a839171b60405160405180910390a45b5050565b60008183106136bc57816136be565b825b905092915050565b600073ffffffffffffffffffffffffffffffffffffffff168273ffffffffffffffffffffffffffffffffffffffff161415613736576040517f08c379a000000000000000000000000000000000000000000000000000000000815260040161372d9061560c565b60405180910390fd5b61374260008383613c39565b80600260008282546137549190614ae3565b92505081905550806000808473ffffffffffffffffffffffffffffffffffffffff1673ffffffffffffffffffffffffffffffffffffffff16815260200190815260200160002060008282546137a99190614ae3565b925050819055508173ffffffffffffffffffffffffffffffffffffffff16600073ffffffffffffffffffffffffffffffffffffffff167fddf252ad1be2c89b69c2b068fc378daa952ba7f163c4a11628f55a4df523b3ef8360405161380e9190613f0a565b60405180910390a361382260008383613c3e565b5050565b600073ffffffffffffffffffffffffffffffffffffffff168273ffffffffffffffffffffffffffffffffffffffff161415613896576040517f08c379a000000000000000000000000000000000000000000000000000000000815260040161388d9061569e565b60405180910390fd5b6138a282600083613c39565b60008060008473ffffffffffffffffffffffffffffffffffffffff1673ffffffffffffffffffffffffffffffffffffffff16815260200190815260200160002054905081811015613928576040517f08c379a000000000000000000000000000000000000000000000000000000000815260040161391f90615730565b60405180910390fd5b8181036000808573ffffffffffffffffffffffffffffffffffffffff1673ffffffffffffffffffffffffffffffffffffffff16815260200190815260200160002081905550816002600082825461397f91906143b9565b92505081905550600073ffffffffffffffffffffffffffffffffffffffff168373ffffffffffffffffffffffffffffffffffffffff167fddf252ad1be2c89b69c2b068fc378daa952ba7f163c4a11628f55a4df523b3ef846040516139e49190613f0a565b60405180910390a36139f883600084613c3e565b505050565b606060006002836002613a109190615750565b613a1a9190614ae3565b67ffffffffffffffff811115613a3357613a3261516b565b5b6040519080825280601f01601f191660200182016040528015613a655781602001600182028036833780820191505090505b5090507f300000000000000000000000000000000000000000000000000000000000000081600081518110613a9d57613a9c615430565b5b60200101907effffffffffffffffffffffffffffffffffffffffffffffffffffffffffffff1916908160001a9053507f780000000000000000000000000000000000000000000000000000000000000081600181518110613b0157613b00615430565b5b60200101907effffffffffffffffffffffffffffffffffffffffffffffffffffffffffffff1916908160001a90535060006001846002613b419190615750565b613b4b9190614ae3565b90505b6001811115613beb577f3031323334353637383961626364656600000000000000000000000000000000600f861660108110613b8d57613b8c615430565b5b1a60f81b828281518110613ba457613ba3615430565b5b60200101907effffffffffffffffffffffffffffffffffffffffffffffffffffffffffffff1916908160001a905350600485901c945080613be4906157aa565b9050613b4e565b5060008414613c2f576040517f08c379a0000000000000000000000000000000000000000000000000000000008152600401613c2690615820565b60405180910390fd5b8091505092915050565b505050565b505050565b6000604051905090565b600080fd5b600080fd5b60007fffffffff0000000000000000000000000000000000000000000000000000000082169050919050565b613c8c81613c57565b8114613c9757600080fd5b50565b600081359050613ca981613c83565b92915050565b600060208284031215613cc557613cc4613c4d565b5b6000613cd384828501613c9a565b91505092915050565b60008115159050919050565b613cf181613cdc565b82525050565b6000602082019050613d0c6000830184613ce8565b92915050565b600081519050919050565b600082825260208201905092915050565b60005b83811015613d4c578082015181840152602081019050613d31565b83811115613d5b576000848401525b50505050565b6000601f19601f8301169050919050565b6000613d7d82613d12565b613d878185613d1d565b9350613d97818560208601613d2e565b613da081613d61565b840191505092915050565b60006020820190508181036000830152613dc58184613d72565b905092915050565b600073ffffffffffffffffffffffffffffffffffffffff82169050919050565b6000613df882613dcd565b9050919050565b613e0881613ded565b8114613e1357600080fd5b50565b600081359050613e2581613dff565b92915050565b600060208284031215613e4157613e40613c4d565b5b6000613e4f84828501613e16565b91505092915050565b6000819050919050565b613e6b81613e58565b8114613e7657600080fd5b50565b600081359050613e8881613e62565b92915050565b600060208284031215613ea457613ea3613c4d565b5b6000613eb284828501613e79565b91505092915050565b60008060408385031215613ed257613ed1613c4d565b5b6000613ee085828601613e16565b9250506020613ef185828601613e79565b9150509250929050565b613f0481613e58565b82525050565b6000602082019050613f1f6000830184613efb565b92915050565b600080600060608486031215613f3e57613f3d613c4d565b5b6000613f4c86828701613e16565b9350506020613f5d86828701613e16565b9250506040613f6e86828701613e79565b9150509250925092565b6000819050919050565b613f8b81613f78565b8114613f9657600080fd5b50565b600081359050613fa881613f82565b92915050565b600060208284031215613fc457613fc3613c4d565b5b6000613fd284828501613f99565b91505092915050565b613fe481613f78565b82525050565b6000602082019050613fff6000830184613fdb565b92915050565b6000806040838503121561401c5761401b613c4d565b5b600061402a85828601613f99565b925050602061403b85828601613e16565b9150509250929050565b600060ff82169050919050565b61405b81614045565b82525050565b60006020820190506140766000830184614052565b92915050565b6000819050919050565b61408f8161407c565b811461409a57600080fd5b50565b6000813590506140ac81614086565b92915050565b6140bb81613cdc565b81146140c657600080fd5b50565b6000813590506140d8816140b2565b92915050565b600080600080600060a086880312156140fa576140f9613c4d565b5b60006141088882890161409d565b95505060206141198882890161409d565b945050604061412a88828901613e16565b935050606061413b88828901613e79565b925050608061414c888289016140c9565b9150509295509295909350565b600080604083850312156141705761416f613c4d565b5b600061417e858286016140c9565b925050602061418f858286016140c9565b9150509250929050565b6141a281613ded565b82525050565b60006020820190506141bd6000830184614199565b92915050565b600080604083850312156141da576141d9613c4d565b5b60006141e885828601613e16565b92505060206141f985828601613e16565b9150509250929050565b7f4e487b7100000000000000000000000000000000000000000000000000000000600052602260045260246000fd5b6000600282049050600182168061424a57607f821691505b6020821081141561425e5761425d614203565b5b50919050565b60008151905061427381613e62565b92915050565b60006020828403121561428f5761428e613c4d565b5b600061429d84828501614264565b91505092915050565b600080604083850312156142bd576142bc613c4d565b5b60006142cb85828601614264565b92505060206142dc85828601614264565b9150509250929050565b6142ef81613ded565b82525050565b600060408201905061430a60008301856142e6565b61431760208301846142e6565b9392505050565b7f42616c616e636520696e73756666696369656e742e0000000000000000000000600082015250565b6000614354601583613d1d565b915061435f8261431e565b602082019050919050565b6000602082019050818103600083015261438381614347565b9050919050565b7f4e487b7100000000000000000000000000000000000000000000000000000000600052601160045260246000fd5b60006143c482613e58565b91506143cf83613e58565b9250828210156143e2576143e161438a565b5b828203905092915050565b6000815190506143fc81613dff565b92915050565b60006020828403121561441857614417613c4d565b5b6000614426848285016143ed565b91505092915050565b61443881613e58565b82525050565b6000604082019050614453600083018561442f565b61446060208301846142e6565b9392505050565b600060408201905061447c6000830185614199565b6144896020830184613efb565b9392505050565b60008151905061449f816140b2565b92915050565b6000602082840312156144bb576144ba613c4d565b5b60006144c984828501614490565b91505092915050565b7f4661696c6564207061796d656e7420746f20686f6c6465720000000000000000600082015250565b6000614508601883613d1d565b9150614513826144d2565b602082019050919050565b60006020820190508181036000830152614537816144fb565b9050919050565b7f4661696c6564207061796d656e7420746f206d61696e74656e616e6365000000600082015250565b6000614574601d83613d1d565b915061457f8261453e565b602082019050919050565b600060208201905081810360008301526145a381614567565b9050919050565b7f4661696c6564207061796d656e7420746f206578657263697365722e00000000600082015250565b60006145e0601c83613d1d565b91506145eb826145aa565b602082019050919050565b6000602082019050818103600083015261460f816145d3565b9050919050565b7f45524332303a207472616e7366657220616d6f756e742065786365656473206160008201527f6c6c6f77616e6365000000000000000000000000000000000000000000000000602082015250565b6000614672602883613d1d565b915061467d82614616565b604082019050919050565b600060208201905081810360008301526146a181614665565b9050919050565b6146b18161407c565b82525050565b60006080820190506146cc60008301876146a8565b6146d960208301866146a8565b6146e660408301856142e6565b6146f360608301846142e6565b95945050505050565b6000806000806080858703121561471657614715613c4d565b5b600061472487828801614264565b945050602061473587828801614264565b9350506040614746878288016143ed565b9250506060614757878288016143ed565b91505092959194509250565b7f416363657373436f6e74726f6c3a2063616e206f6e6c792072656e6f756e636560008201527f20726f6c657320666f722073656c660000000000000000000000000000000000602082015250565b60006147bf602f83613d1d565b91506147ca82614763565b604082019050919050565b600060208201905081810360008301526147ee816147b2565b9050919050565b60008151905061480481614086565b92915050565b6000806000806080858703121561482457614823613c4d565b5b6000614832878288016147f5565b9450506020614843878288016147f5565b9350506040614854878288016143ed565b9250506060614865878288016143ed565b91505092959194509250565b600060408201905061488660008301856146a8565b61489360208301846142e6565b9392505050565b6000602082840312156148b0576148af613c4d565b5b60006148be848285016147f5565b91505092915050565b6000819050919050565b600061ffff82169050919050565b6000819050919050565b60006149046148ff6148fa846148c7565b6148df565b6148d1565b9050919050565b614914816148e9565b82525050565b600060808201905061492f6000830187614199565b61493c6020830186613efb565b6149496040830185614199565b614956606083018461490b565b95945050505050565b600060a0820190506149746000830188614199565b6149816020830187613efb565b61498e6040830186613efb565b61499b606083018561490b565b6149a86080830184614199565b9695505050505050565b60006149bd8261407c565b91507f80000000000000000000000000000000000000000000000000000000000000008214156149f0576149ef61438a565b5b816000039050919050565b7f6e6f7420656e6f75676820746f6b656e20746f207265706179206c6f616e7300600082015250565b6000614a31601f83613d1d565b9150614a3c826149fb565b602082019050919050565b60006020820190508181036000830152614a6081614a24565b9050919050565b6000608082019050614a7c6000830187614199565b614a896020830186613efb565b614a966040830185613efb565b614aa36060830184614199565b95945050505050565b6000606082019050614ac16000830186614199565b614ace6020830185613efb565b614adb6040830184614199565b949350505050565b6000614aee82613e58565b9150614af983613e58565b9250827fffffffffffffffffffffffffffffffffffffffffffffffffffffffffffffffff03821115614b2e57614b2d61438a565b5b828201905092915050565b7f45524332303a2064656372656173656420616c6c6f77616e63652062656c6f7760008201527f207a65726f000000000000000000000000000000000000000000000000000000602082015250565b6000614b95602583613d1d565b9150614ba082614b39565b604082019050919050565b60006020820190508181036000830152614bc481614b88565b9050919050565b6000606082019050614be06000830186614199565b614bed6020830185614199565b614bfa6040830184613efb565b949350505050565b6000606082019050614c176000830186614199565b614c246020830185613efb565b614c316040830184613efb565b949350505050565b7f496e73756666696369656e742062616c616e6365000000000000000000000000600082015250565b6000614c6f601483613d1d565b9150614c7a82614c39565b602082019050919050565b60006020820190508181036000830152614c9e81614c62565b9050919050565b600081905092915050565b7f416363657373436f6e74726f6c3a206163636f756e7420000000000000000000600082015250565b6000614ce6601783614ca5565b9150614cf182614cb0565b601782019050919050565b6000614d0782613d12565b614d118185614ca5565b9350614d21818560208601613d2e565b80840191505092915050565b7f206973206d697373696e6720726f6c6520000000000000000000000000000000600082015250565b6000614d63601183614ca5565b9150614d6e82614d2d565b601182019050919050565b6000614d8482614cd9565b9150614d908285614cfc565b9150614d9b82614d56565b9150614da78284614cfc565b91508190509392505050565b7f45524332303a20617070726f76652066726f6d20746865207a65726f2061646460008201527f7265737300000000000000000000000000000000000000000000000000000000602082015250565b6000614e0f602483613d1d565b9150614e1a82614db3565b604082019050919050565b60006020820190508181036000830152614e3e81614e02565b9050919050565b7f45524332303a20617070726f766520746f20746865207a65726f20616464726560008201527f7373000000000000000000000000000000000000000000000000000000000000602082015250565b6000614ea1602283613d1d565b9150614eac82614e45565b604082019050919050565b60006020820190508181036000830152614ed081614e94565b9050919050565b7f45524332303a207472616e736665722066726f6d20746865207a65726f20616460008201527f6472657373000000000000000000000000000000000000000000000000000000602082015250565b6000614f33602583613d1d565b9150614f3e82614ed7565b604082019050919050565b60006020820190508181036000830152614f6281614f26565b9050919050565b7f45524332303a207472616e7366657220746f20746865207a65726f206164647260008201527f6573730000000000000000000000000000000000000000000000000000000000602082015250565b6000614fc5602383613d1d565b9150614fd082614f69565b604082019050919050565b60006020820190508181036000830152614ff481614fb8565b9050919050565b7f45524332303a207472616e7366657220616d6f756e742065786365656473206260008201527f616c616e63650000000000000000000000000000000000000000000000000000602082015250565b6000615057602683613d1d565b915061506282614ffb565b604082019050919050565b600060208201905081810360008301526150868161504a565b9050919050565b60006150a86150a361509e84613dcd565b6148df565b613dcd565b9050919050565b60006150ba8261508d565b9050919050565b60006150cc826150af565b9050919050565b6150dc816150c1565b82525050565b60006150fd6150f86150f3846148c7565b6148df565b613e58565b9050919050565b61510d816150e2565b82525050565b600060a08201905061512860008301886150d3565b61513560208301876150d3565b6151426040830186613efb565b61514f6060830185613efb565b61515c6080830184615104565b9695505050505050565b600080fd5b7f4e487b7100000000000000000000000000000000000000000000000000000000600052604160045260246000fd5b6151a382613d61565b810181811067ffffffffffffffff821117156151c2576151c161516b565b5b80604052505050565b60006151d5613c43565b90506151e1828261519a565b919050565b600067ffffffffffffffff8211156152015761520061516b565b5b602082029050602081019050919050565b600080fd5b600061522a615225846151e6565b6151cb565b9050808382526020820190506020840283018581111561524d5761524c615212565b5b835b8181101561527657806152628882614264565b84526020840193505060208101905061524f565b5050509392505050565b600082601f83011261529557615294615166565b5b81516152a5848260208601615217565b91505092915050565b600080604083850312156152c5576152c4613c4d565b5b60006152d385828601614264565b925050602083015167ffffffffffffffff8111156152f4576152f3613c52565b5b61530085828601615280565b9150509250929050565b600081519050919050565b600082825260208201905092915050565b6000819050602082019050919050565b61533f81613e58565b82525050565b60006153518383615336565b60208301905092915050565b6000602082019050919050565b60006153758261530a565b61537f8185615315565b935061538a83615326565b8060005b838110156153bb5781516153a28882615345565b97506153ad8361535d565b92505060018101905061538e565b5085935050505092915050565b600060c0820190506153dd60008301896150d3565b6153ea60208301886150d3565b6153f76040830187613efb565b6154046060830186613efb565b8181036080830152615416818561536a565b905061542560a0830184615104565b979650505050505050565b7f4e487b7100000000000000000000000000000000000000000000000000000000600052603260045260246000fd5b600081519050919050565b600082825260208201905092915050565b6000819050602082019050919050565b61549481613ded565b82525050565b60006154a6838361548b565b60208301905092915050565b6000602082019050919050565b60006154ca8261545f565b6154d4818561546a565b93506154df8361547b565b8060005b838110156155105781516154f7888261549a565b9750615502836154b2565b9250506001810190506154e3565b5085935050505092915050565b600060a0820190506155326000830188613efb565b61553f6020830187613efb565b818103604083015261555181866154bf565b90506155606060830185614199565b61556d6080830184613efb565b9695505050505050565b60006020828403121561558d5761558c613c4d565b5b600082015167ffffffffffffffff8111156155ab576155aa613c52565b5b6155b784828501615280565b91505092915050565b7f45524332303a206d696e7420746f20746865207a65726f206164647265737300600082015250565b60006155f6601f83613d1d565b9150615601826155c0565b602082019050919050565b60006020820190508181036000830152615625816155e9565b9050919050565b7f45524332303a206275726e2066726f6d20746865207a65726f2061646472657360008201527f7300000000000000000000000000000000000000000000000000000000000000602082015250565b6000615688602183613d1d565b91506156938261562c565b604082019050919050565b600060208201905081810360008301526156b78161567b565b9050919050565b7f45524332303a206275726e20616d6f756e7420657863656564732062616c616e60008201527f6365000000000000000000000000000000000000000000000000000000000000602082015250565b600061571a602283613d1d565b9150615725826156be565b604082019050919050565b600060208201905081810360008301526157498161570d565b9050919050565b600061575b82613e58565b915061576683613e58565b9250817fffffffffffffffffffffffffffffffffffffffffffffffffffffffffffffffff048311821515161561579f5761579e61438a565b5b828202905092915050565b60006157b582613e58565b915060008214156157c9576157c861438a565b5b600182039050919050565b7f537472696e67733a20686578206c656e67746820696e73756666696369656e74600082015250565b600061580a602083613d1d565b9150615815826157d4565b602082019050919050565b60006020820190508181036000830152615839816157fd565b905091905056fea26469706673582212200a6ffb1ff115eefbce5e1fca85449aa65321516ee731af55d9696b3f656706ad64736f6c634300080a0033",
  "immutableReferences": {},
  "source": "// SPDX-License-Identifier: MIT\npragma solidity 0.8.10;\n\nimport \"@openzeppelin/contracts/access/AccessControl.sol\";\nimport \"@openzeppelin/contracts/utils/structs/EnumerableSet.sol\";\nimport \"./MarketLibrary.sol\";\nimport \"./OptionVault.sol\";\n\ncontract MoretMarketMaker is ERC20, AccessControl, EOption\n{\n  bytes32 public constant ADMIN_ROLE = keccak256(\"ADMIN_ROLE\");\n  bytes32 public constant EXCHANGE_ROLE = keccak256(\"EXCHANGE_ROLE\");\n\n  uint256 private multiplier;\n  uint256 public settlementFee= 5 * (10 ** 15);\n  uint256 public exerciseFee= 5 * (10 ** 15);\n  OptionVault internal optionVault;\n\n  address internal underlying;\n  address internal funding;\n  address public maintenanceAddress;\n  uint256 public lendingPoolRateMode = 2;\n  uint256 public swapSlippage = 5 * (10 ** 15);\n  \n  constructor(string memory _name, string memory _symbol, address _optionAddress) ERC20(_name, _symbol){\n    _setupRole(DEFAULT_ADMIN_ROLE, msg.sender);\n    _setupRole(ADMIN_ROLE, msg.sender);\n    _setupRole(EXCHANGE_ROLE, msg.sender);\n    maintenanceAddress = msg.sender;\n    optionVault = OptionVault(_optionAddress);\n    multiplier = OptionLibrary.Multiplier();\n    underlying = optionVault.underlying();\n    funding = optionVault.funding();\n    _mint(msg.sender, multiplier);}\n\n  function expireOptions(address exerciseFeeRecipient) external {\n    uint256 _expiringId = optionVault.getExpiringOptionId();\n    while(_expiringId >0) {\n      optionVault.stampExpiredOption(_expiringId);\n      \n      ( uint256 _payoff, uint256 _payback) = optionVault.getContractPayoff(_expiringId);\n      require(_payback < MarketLibrary.balanceDef(funding, address(this)), \"Balance insufficient.\");\n      if(_payback > 0){\n        uint256 _holderPayment = _payoff == _payback? MulDiv(_payback, multiplier - settlementFee - exerciseFee, multiplier): _payback;\n        uint256 _settleFeeAmount = MulDiv(_payoff, settlementFee, multiplier);\n        uint256 _exerciseFeeAmount = MulDiv(_payoff, exerciseFee, multiplier);\n\n        require(IERC20(funding).transfer(optionVault.getOptionHolder(_expiringId), MarketLibrary.cvtDecimals(_holderPayment, funding)), \"Failed payment to holder\");\n        require(IERC20(funding).transfer(maintenanceAddress, MarketLibrary.cvtDecimals(_settleFeeAmount, funding)), \"Failed payment to maintenance\");\n        require(IERC20(funding).transfer(exerciseFeeRecipient, MarketLibrary.cvtDecimals(_exerciseFeeAmount, funding)), \"Failed payment to exerciser.\");}\n      \n      _expiringId = optionVault.getExpiringOptionId();}}\n\n  function calcCapital(bool _net, bool _average) public view returns(uint256 _capital){\n    _capital = optionVault.getGrossCapital(address(this));\n    if(_net){ _capital -= Math.min(optionVault.getMaxHedge() + optionVault.getSellPutCollateral(), _capital);}\n    if(_average){ \n      if(totalSupply() > 0) _capital = MulDiv(_capital , multiplier , totalSupply()); \n      if(totalSupply() == 0 && _capital == 0) _capital = multiplier;}}\n    \n  function addCapital(uint256 _depositAmount) external {\n      uint256 _mintMPTokenAmount = MulDiv(MarketLibrary.cvtDef(_depositAmount, funding), multiplier, calcCapital(false, true));\n      require(ERC20(funding).transferFrom(msg.sender, address(this), _depositAmount));\n      _mint(msg.sender, _mintMPTokenAmount);\n      emit capitalAdded(msg.sender, _depositAmount, _mintMPTokenAmount);}\n\n  function withdrawCapital(uint256 _burnMPTokenAmount) external {\n      uint256 _withdrawValue = MarketLibrary.cvtDecimals(MulDiv(calcCapital(true, true),  _burnMPTokenAmount , multiplier), funding); \n      require(IERC20(funding).balanceOf(address(this)) > _withdrawValue,\"Insufficient balance\");\n      _burn(msg.sender, _burnMPTokenAmount);\n      require(ERC20(funding).transfer(msg.sender, _withdrawValue));\n      emit capitalWithdrawn(msg.sender, _burnMPTokenAmount, _withdrawValue);}\n  \n  function approveSpending(address _tokenAddress, address _spenderAddress, uint256 _amount) external onlyRole(EXCHANGE_ROLE){\n    ERC20(_tokenAddress).approve(_spenderAddress, _amount);}\n\n  function tradesSwaps(int256 _underlyingAmt, int256 _fundingAmt, address _router, uint256 _parameter, bool _useAggregator) external onlyRole(EXCHANGE_ROLE) {\n    (uint256 _fromAmt, uint256 _toAmt, address _fromAddress, address _toAddress) = MarketLibrary.cleanTradeAmounts(_underlyingAmt, _fundingAmt, optionVault.underlying(), optionVault.funding());\n    if(_useAggregator) swapByAggregator(_fromAddress, _toAddress, _router, _fromAmt, _toAmt, _parameter);\n    if(!_useAggregator) swapByRouter(_fromAddress, _toAddress, _router, _fromAmt, _toAmt, _parameter);}\n  \n  function swapByRouter(address _fromAddress, address _toAddress, address _router, uint256 _fromAmt, uint256 _toAmt, uint256 _deadline) internal {\n    ERC20(_fromAddress).approve(_router, _fromAmt);\n    address[] memory _path = new address[](2);\n    _path[0]=_fromAddress;\n    _path[1] = _toAddress;\n    IUniswapV2Router02(_router).swapTokensForExactTokens(_toAmt, _fromAmt, _path, address(this), block.timestamp + _deadline );}\n\n  function swapByAggregator(address _fromAddress, address _toAddress, address _aggregator, uint256 _fromAmt, uint256 _toAmt, uint256 _parts) internal {\n    ERC20(_fromAddress).approve(_aggregator, _fromAmt);\n    (uint256 returnAmount, uint256[] memory distribution) =  I1InchProtocol(_aggregator).getExpectedReturn( IERC20(_fromAddress), IERC20(_toAddress), _fromAmt, _parts, 0);\n    I1InchProtocol(_aggregator).swap(IERC20(_fromAddress), IERC20(_toAddress), _fromAmt, Math.min(returnAmount, _toAmt), distribution, 0);}\n\n  function hedgeTradesForLoans() external onlyRole(EXCHANGE_ROLE) {\n    (int256 _loanTradeAmount, int256 _collateralChange, address _loanAddress, address _collateralAddress) = optionVault.calcLoanTrades(address(this), lendingPoolRateMode);\n    _loanTradeAmount = MarketLibrary.cvtDecimalsInt(_loanTradeAmount, _loanAddress);\n    _collateralChange = MarketLibrary.cvtDecimalsInt(_collateralChange, _collateralAddress);\n    address _lendingPoolAddress = ILendingPoolAddressesProvider(optionVault.aaveAddress()).getLendingPool();\n\n    if(_collateralChange > 0){\n      ERC20(funding).increaseAllowance(_lendingPoolAddress, uint256(_collateralChange));\n      ILendingPool(_lendingPoolAddress).deposit(funding, uint256(_collateralChange), address(this), 0);}\n    \n    if(_loanTradeAmount > 0){\n      ILendingPool(_lendingPoolAddress).borrow(underlying, uint256(_loanTradeAmount), lendingPoolRateMode,  0, address(this));}\n\n    if(_loanTradeAmount < 0){\n      require(ERC20(underlying).balanceOf(address(this))>= uint256(-_loanTradeAmount), \"not enough token to repay loans\");\n      ERC20(_loanAddress).approve(_lendingPoolAddress, uint256(-_loanTradeAmount));\n      ERC20(underlying).approve(_lendingPoolAddress, uint256(-_loanTradeAmount));\n      ILendingPool(_lendingPoolAddress).repay(underlying, uint256(-_loanTradeAmount), lendingPoolRateMode, address(this));}\n\n    if(_collateralChange < 0){\n      ERC20(_collateralAddress).increaseAllowance(_lendingPoolAddress, uint256(-_collateralChange));\n      ILendingPool(_lendingPoolAddress).withdraw(funding, uint256(-_collateralChange), address(this));}}\n\n  function resetSettlementFee(uint256 _newFee) external onlyRole(ADMIN_ROLE){ require(_newFee < multiplier); settlementFee = _newFee;}\n  function resetExerciseFee(uint256 _newFee) external onlyRole(ADMIN_ROLE){ require(_newFee < multiplier); exerciseFee = _newFee;}\n  function resetMaintenance(address _newAddress) external onlyRole(ADMIN_ROLE){ maintenanceAddress = _newAddress;}\n  function resetSlippage(uint256 _slippage) external onlyRole(ADMIN_ROLE){ swapSlippage = _slippage;}\n  function resetLendingPoolRateMode(uint256 _newRateMode) external onlyRole(ADMIN_ROLE) {\n    require(_newRateMode == 1 || _newRateMode == 2);\n    lendingPoolRateMode = _newRateMode;}\n}\n",
  "sourcePath": "/Users/apple/Documents/GitHub/moret/contracts/MoretMarketMaker.sol",
  "compiler": {
    "name": "solc",
    "version": "0.8.10+commit.fc410830.Emscripten.clang"
  },
  "schemaVersion": "3.4.3",
  "updatedAt": "2021-11-29T23:16:43.147Z",
  "networkType": "ethereum",
  "devdoc": {
    "kind": "dev",
    "methods": {
      "allowance(address,address)": {
        "details": "See {IERC20-allowance}."
      },
      "approve(address,uint256)": {
        "details": "See {IERC20-approve}. Requirements: - `spender` cannot be the zero address."
      },
      "balanceOf(address)": {
        "details": "See {IERC20-balanceOf}."
      },
      "decimals()": {
        "details": "Returns the number of decimals used to get its user representation. For example, if `decimals` equals `2`, a balance of `505` tokens should be displayed to a user as `5.05` (`505 / 10 ** 2`). Tokens usually opt for a value of 18, imitating the relationship between Ether and Wei. This is the value {ERC20} uses, unless this function is overridden; NOTE: This information is only used for _display_ purposes: it in no way affects any of the arithmetic of the contract, including {IERC20-balanceOf} and {IERC20-transfer}."
      },
      "decreaseAllowance(address,uint256)": {
        "details": "Atomically decreases the allowance granted to `spender` by the caller. This is an alternative to {approve} that can be used as a mitigation for problems described in {IERC20-approve}. Emits an {Approval} event indicating the updated allowance. Requirements: - `spender` cannot be the zero address. - `spender` must have allowance for the caller of at least `subtractedValue`."
      },
      "getRoleAdmin(bytes32)": {
        "details": "Returns the admin role that controls `role`. See {grantRole} and {revokeRole}. To change a role's admin, use {_setRoleAdmin}."
      },
      "grantRole(bytes32,address)": {
        "details": "Grants `role` to `account`. If `account` had not been already granted `role`, emits a {RoleGranted} event. Requirements: - the caller must have ``role``'s admin role."
      },
      "hasRole(bytes32,address)": {
        "details": "Returns `true` if `account` has been granted `role`."
      },
      "increaseAllowance(address,uint256)": {
        "details": "Atomically increases the allowance granted to `spender` by the caller. This is an alternative to {approve} that can be used as a mitigation for problems described in {IERC20-approve}. Emits an {Approval} event indicating the updated allowance. Requirements: - `spender` cannot be the zero address."
      },
      "name()": {
        "details": "Returns the name of the token."
      },
      "renounceRole(bytes32,address)": {
        "details": "Revokes `role` from the calling account. Roles are often managed via {grantRole} and {revokeRole}: this function's purpose is to provide a mechanism for accounts to lose their privileges if they are compromised (such as when a trusted device is misplaced). If the calling account had been revoked `role`, emits a {RoleRevoked} event. Requirements: - the caller must be `account`."
      },
      "revokeRole(bytes32,address)": {
        "details": "Revokes `role` from `account`. If `account` had been granted `role`, emits a {RoleRevoked} event. Requirements: - the caller must have ``role``'s admin role."
      },
      "supportsInterface(bytes4)": {
        "details": "See {IERC165-supportsInterface}."
      },
      "symbol()": {
        "details": "Returns the symbol of the token, usually a shorter version of the name."
      },
      "totalSupply()": {
        "details": "See {IERC20-totalSupply}."
      },
      "transfer(address,uint256)": {
        "details": "See {IERC20-transfer}. Requirements: - `recipient` cannot be the zero address. - the caller must have a balance of at least `amount`."
      },
      "transferFrom(address,address,uint256)": {
        "details": "See {IERC20-transferFrom}. Emits an {Approval} event indicating the updated allowance. This is not required by the EIP. See the note at the beginning of {ERC20}. Requirements: - `sender` and `recipient` cannot be the zero address. - `sender` must have a balance of at least `amount`. - the caller must have allowance for ``sender``'s tokens of at least `amount`."
      }
    },
    "version": 1
  },
  "userdoc": {
    "kind": "user",
    "methods": {},
    "version": 1
  }
}