{
  "contractName": "MoretMarketMaker",
  "abi": [
    {
      "inputs": [
        {
          "internalType": "string",
          "name": "_name",
          "type": "string"
        },
        {
          "internalType": "string",
          "name": "_symbol",
          "type": "string"
        },
        {
          "internalType": "address",
          "name": "_underlyingAddress",
          "type": "address"
        },
        {
          "internalType": "address",
          "name": "_fundingAddress",
          "type": "address"
        },
        {
          "internalType": "address",
          "name": "_optionAddress",
          "type": "address"
        },
        {
          "internalType": "address",
          "name": "_swapRouterAddress",
          "type": "address"
        },
        {
          "internalType": "address",
          "name": "_priceSourceId",
          "type": "address"
        }
      ],
      "stateMutability": "nonpayable",
      "type": "constructor"
    },
    {
      "anonymous": false,
      "inputs": [
        {
          "indexed": true,
          "internalType": "address",
          "name": "owner",
          "type": "address"
        },
        {
          "indexed": true,
          "internalType": "address",
          "name": "spender",
          "type": "address"
        },
        {
          "indexed": false,
          "internalType": "uint256",
          "name": "value",
          "type": "uint256"
        }
      ],
      "name": "Approval",
      "type": "event"
    },
    {
      "anonymous": false,
      "inputs": [
        {
          "indexed": true,
          "internalType": "bytes32",
          "name": "role",
          "type": "bytes32"
        },
        {
          "indexed": true,
          "internalType": "bytes32",
          "name": "previousAdminRole",
          "type": "bytes32"
        },
        {
          "indexed": true,
          "internalType": "bytes32",
          "name": "newAdminRole",
          "type": "bytes32"
        }
      ],
      "name": "RoleAdminChanged",
      "type": "event"
    },
    {
      "anonymous": false,
      "inputs": [
        {
          "indexed": true,
          "internalType": "bytes32",
          "name": "role",
          "type": "bytes32"
        },
        {
          "indexed": true,
          "internalType": "address",
          "name": "account",
          "type": "address"
        },
        {
          "indexed": true,
          "internalType": "address",
          "name": "sender",
          "type": "address"
        }
      ],
      "name": "RoleGranted",
      "type": "event"
    },
    {
      "anonymous": false,
      "inputs": [
        {
          "indexed": true,
          "internalType": "bytes32",
          "name": "role",
          "type": "bytes32"
        },
        {
          "indexed": true,
          "internalType": "address",
          "name": "account",
          "type": "address"
        },
        {
          "indexed": true,
          "internalType": "address",
          "name": "sender",
          "type": "address"
        }
      ],
      "name": "RoleRevoked",
      "type": "event"
    },
    {
      "anonymous": false,
      "inputs": [
        {
          "indexed": true,
          "internalType": "address",
          "name": "from",
          "type": "address"
        },
        {
          "indexed": true,
          "internalType": "address",
          "name": "to",
          "type": "address"
        },
        {
          "indexed": false,
          "internalType": "uint256",
          "name": "value",
          "type": "uint256"
        }
      ],
      "name": "Transfer",
      "type": "event"
    },
    {
      "anonymous": false,
      "inputs": [
        {
          "indexed": false,
          "internalType": "address",
          "name": "_recipient",
          "type": "address"
        },
        {
          "indexed": false,
          "internalType": "uint256",
          "name": "_mintMPTokenAmount",
          "type": "uint256"
        },
        {
          "indexed": false,
          "internalType": "uint256",
          "name": "_addedValue",
          "type": "uint256"
        }
      ],
      "name": "capitalAdded",
      "type": "event"
    },
    {
      "anonymous": false,
      "inputs": [
        {
          "indexed": false,
          "internalType": "address",
          "name": "_recipient",
          "type": "address"
        },
        {
          "indexed": false,
          "internalType": "uint256",
          "name": "_burnMPTokenAmount",
          "type": "uint256"
        },
        {
          "indexed": false,
          "internalType": "uint256",
          "name": "_withdrawValue",
          "type": "uint256"
        }
      ],
      "name": "capitalWithdrawn",
      "type": "event"
    },
    {
      "anonymous": false,
      "inputs": [
        {
          "indexed": true,
          "internalType": "address",
          "name": "_purchaser",
          "type": "address"
        },
        {
          "components": [
            {
              "internalType": "enum OptionLibrary.PayoffType",
              "name": "poType",
              "type": "uint8"
            },
            {
              "internalType": "address",
              "name": "holder",
              "type": "address"
            },
            {
              "internalType": "enum OptionLibrary.OptionStatus",
              "name": "status",
              "type": "uint8"
            },
            {
              "internalType": "uint256",
              "name": "id",
              "type": "uint256"
            },
            {
              "internalType": "uint256",
              "name": "createTime",
              "type": "uint256"
            },
            {
              "internalType": "uint256",
              "name": "effectiveTime",
              "type": "uint256"
            },
            {
              "internalType": "uint256",
              "name": "tenor",
              "type": "uint256"
            },
            {
              "internalType": "uint256",
              "name": "exerciseTime",
              "type": "uint256"
            },
            {
              "internalType": "uint256",
              "name": "amount",
              "type": "uint256"
            },
            {
              "internalType": "uint256",
              "name": "spot",
              "type": "uint256"
            },
            {
              "internalType": "uint256",
              "name": "strike",
              "type": "uint256"
            },
            {
              "internalType": "uint256",
              "name": "volatility",
              "type": "uint256"
            },
            {
              "internalType": "uint256",
              "name": "premium",
              "type": "uint256"
            },
            {
              "internalType": "uint256",
              "name": "fee",
              "type": "uint256"
            }
          ],
          "indexed": false,
          "internalType": "struct OptionLibrary.Option",
          "name": "_option",
          "type": "tuple"
        },
        {
          "indexed": false,
          "internalType": "uint256",
          "name": "_cost",
          "type": "uint256"
        },
        {
          "indexed": false,
          "internalType": "bool",
          "name": "_inVol",
          "type": "bool"
        }
      ],
      "name": "newOptionBought",
      "type": "event"
    },
    {
      "anonymous": false,
      "inputs": [
        {
          "indexed": false,
          "internalType": "address",
          "name": "_purchaser",
          "type": "address"
        },
        {
          "indexed": false,
          "internalType": "uint256",
          "name": "_time",
          "type": "uint256"
        },
        {
          "indexed": false,
          "internalType": "uint256",
          "name": "_tenor",
          "type": "uint256"
        },
        {
          "indexed": false,
          "internalType": "uint256",
          "name": "_amount",
          "type": "uint256"
        }
      ],
      "name": "newVolatilityTokenBought",
      "type": "event"
    },
    {
      "anonymous": false,
      "inputs": [
        {
          "indexed": true,
          "internalType": "address",
          "name": "_purchaser",
          "type": "address"
        },
        {
          "components": [
            {
              "internalType": "enum OptionLibrary.PayoffType",
              "name": "poType",
              "type": "uint8"
            },
            {
              "internalType": "address",
              "name": "holder",
              "type": "address"
            },
            {
              "internalType": "enum OptionLibrary.OptionStatus",
              "name": "status",
              "type": "uint8"
            },
            {
              "internalType": "uint256",
              "name": "id",
              "type": "uint256"
            },
            {
              "internalType": "uint256",
              "name": "createTime",
              "type": "uint256"
            },
            {
              "internalType": "uint256",
              "name": "effectiveTime",
              "type": "uint256"
            },
            {
              "internalType": "uint256",
              "name": "tenor",
              "type": "uint256"
            },
            {
              "internalType": "uint256",
              "name": "exerciseTime",
              "type": "uint256"
            },
            {
              "internalType": "uint256",
              "name": "amount",
              "type": "uint256"
            },
            {
              "internalType": "uint256",
              "name": "spot",
              "type": "uint256"
            },
            {
              "internalType": "uint256",
              "name": "strike",
              "type": "uint256"
            },
            {
              "internalType": "uint256",
              "name": "volatility",
              "type": "uint256"
            },
            {
              "internalType": "uint256",
              "name": "premium",
              "type": "uint256"
            },
            {
              "internalType": "uint256",
              "name": "fee",
              "type": "uint256"
            }
          ],
          "indexed": false,
          "internalType": "struct OptionLibrary.Option",
          "name": "_option",
          "type": "tuple"
        },
        {
          "indexed": false,
          "internalType": "uint256",
          "name": "_payoff",
          "type": "uint256"
        }
      ],
      "name": "optionExercised",
      "type": "event"
    },
    {
      "inputs": [],
      "name": "ADMIN_ROLE",
      "outputs": [
        {
          "internalType": "bytes32",
          "name": "",
          "type": "bytes32"
        }
      ],
      "stateMutability": "view",
      "type": "function"
    },
    {
      "inputs": [],
      "name": "DEFAULT_ADMIN_ROLE",
      "outputs": [
        {
          "internalType": "bytes32",
          "name": "",
          "type": "bytes32"
        }
      ],
      "stateMutability": "view",
      "type": "function"
    },
    {
      "inputs": [
        {
          "internalType": "address",
          "name": "owner",
          "type": "address"
        },
        {
          "internalType": "address",
          "name": "spender",
          "type": "address"
        }
      ],
      "name": "allowance",
      "outputs": [
        {
          "internalType": "uint256",
          "name": "",
          "type": "uint256"
        }
      ],
      "stateMutability": "view",
      "type": "function"
    },
    {
      "inputs": [
        {
          "internalType": "address",
          "name": "spender",
          "type": "address"
        },
        {
          "internalType": "uint256",
          "name": "amount",
          "type": "uint256"
        }
      ],
      "name": "approve",
      "outputs": [
        {
          "internalType": "bool",
          "name": "",
          "type": "bool"
        }
      ],
      "stateMutability": "nonpayable",
      "type": "function"
    },
    {
      "inputs": [
        {
          "internalType": "address",
          "name": "account",
          "type": "address"
        }
      ],
      "name": "balanceOf",
      "outputs": [
        {
          "internalType": "uint256",
          "name": "",
          "type": "uint256"
        }
      ],
      "stateMutability": "view",
      "type": "function"
    },
    {
      "inputs": [],
      "name": "callExposure",
      "outputs": [
        {
          "internalType": "uint256",
          "name": "",
          "type": "uint256"
        }
      ],
      "stateMutability": "view",
      "type": "function"
    },
    {
      "inputs": [],
      "name": "decimals",
      "outputs": [
        {
          "internalType": "uint8",
          "name": "",
          "type": "uint8"
        }
      ],
      "stateMutability": "view",
      "type": "function"
    },
    {
      "inputs": [
        {
          "internalType": "address",
          "name": "spender",
          "type": "address"
        },
        {
          "internalType": "uint256",
          "name": "subtractedValue",
          "type": "uint256"
        }
      ],
      "name": "decreaseAllowance",
      "outputs": [
        {
          "internalType": "bool",
          "name": "",
          "type": "bool"
        }
      ],
      "stateMutability": "nonpayable",
      "type": "function"
    },
    {
      "inputs": [],
      "name": "fundingAddress",
      "outputs": [
        {
          "internalType": "address",
          "name": "",
          "type": "address"
        }
      ],
      "stateMutability": "view",
      "type": "function"
    },
    {
      "inputs": [
        {
          "internalType": "bytes32",
          "name": "role",
          "type": "bytes32"
        }
      ],
      "name": "getRoleAdmin",
      "outputs": [
        {
          "internalType": "bytes32",
          "name": "",
          "type": "bytes32"
        }
      ],
      "stateMutability": "view",
      "type": "function"
    },
    {
      "inputs": [
        {
          "internalType": "bytes32",
          "name": "role",
          "type": "bytes32"
        },
        {
          "internalType": "address",
          "name": "account",
          "type": "address"
        }
      ],
      "name": "grantRole",
      "outputs": [],
      "stateMutability": "nonpayable",
      "type": "function"
    },
    {
      "inputs": [
        {
          "internalType": "bytes32",
          "name": "role",
          "type": "bytes32"
        },
        {
          "internalType": "address",
          "name": "account",
          "type": "address"
        }
      ],
      "name": "hasRole",
      "outputs": [
        {
          "internalType": "bool",
          "name": "",
          "type": "bool"
        }
      ],
      "stateMutability": "view",
      "type": "function"
    },
    {
      "inputs": [],
      "name": "hedgePositionAmount",
      "outputs": [
        {
          "internalType": "int256",
          "name": "",
          "type": "int256"
        }
      ],
      "stateMutability": "view",
      "type": "function"
    },
    {
      "inputs": [
        {
          "internalType": "address",
          "name": "spender",
          "type": "address"
        },
        {
          "internalType": "uint256",
          "name": "addedValue",
          "type": "uint256"
        }
      ],
      "name": "increaseAllowance",
      "outputs": [
        {
          "internalType": "bool",
          "name": "",
          "type": "bool"
        }
      ],
      "stateMutability": "nonpayable",
      "type": "function"
    },
    {
      "inputs": [],
      "name": "lockedPremium",
      "outputs": [
        {
          "internalType": "uint256",
          "name": "",
          "type": "uint256"
        }
      ],
      "stateMutability": "view",
      "type": "function"
    },
    {
      "inputs": [],
      "name": "maxCollateralisation",
      "outputs": [
        {
          "internalType": "uint256",
          "name": "numerator",
          "type": "uint256"
        },
        {
          "internalType": "uint256",
          "name": "denominator",
          "type": "uint256"
        }
      ],
      "stateMutability": "view",
      "type": "function"
    },
    {
      "inputs": [],
      "name": "name",
      "outputs": [
        {
          "internalType": "string",
          "name": "",
          "type": "string"
        }
      ],
      "stateMutability": "view",
      "type": "function"
    },
    {
      "inputs": [],
      "name": "priceDecimals",
      "outputs": [
        {
          "internalType": "uint256",
          "name": "",
          "type": "uint256"
        }
      ],
      "stateMutability": "view",
      "type": "function"
    },
    {
      "inputs": [],
      "name": "priceMultiplier",
      "outputs": [
        {
          "internalType": "uint256",
          "name": "",
          "type": "uint256"
        }
      ],
      "stateMutability": "view",
      "type": "function"
    },
    {
      "inputs": [],
      "name": "putExposure",
      "outputs": [
        {
          "internalType": "uint256",
          "name": "",
          "type": "uint256"
        }
      ],
      "stateMutability": "view",
      "type": "function"
    },
    {
      "inputs": [
        {
          "internalType": "bytes32",
          "name": "role",
          "type": "bytes32"
        },
        {
          "internalType": "address",
          "name": "account",
          "type": "address"
        }
      ],
      "name": "renounceRole",
      "outputs": [],
      "stateMutability": "nonpayable",
      "type": "function"
    },
    {
      "inputs": [
        {
          "internalType": "bytes32",
          "name": "role",
          "type": "bytes32"
        },
        {
          "internalType": "address",
          "name": "account",
          "type": "address"
        }
      ],
      "name": "revokeRole",
      "outputs": [],
      "stateMutability": "nonpayable",
      "type": "function"
    },
    {
      "inputs": [
        {
          "internalType": "bytes4",
          "name": "interfaceId",
          "type": "bytes4"
        }
      ],
      "name": "supportsInterface",
      "outputs": [
        {
          "internalType": "bool",
          "name": "",
          "type": "bool"
        }
      ],
      "stateMutability": "view",
      "type": "function"
    },
    {
      "inputs": [],
      "name": "swapSlippageAllowance",
      "outputs": [
        {
          "internalType": "uint256",
          "name": "numerator",
          "type": "uint256"
        },
        {
          "internalType": "uint256",
          "name": "denominator",
          "type": "uint256"
        }
      ],
      "stateMutability": "view",
      "type": "function"
    },
    {
      "inputs": [],
      "name": "symbol",
      "outputs": [
        {
          "internalType": "string",
          "name": "",
          "type": "string"
        }
      ],
      "stateMutability": "view",
      "type": "function"
    },
    {
      "inputs": [],
      "name": "totalSupply",
      "outputs": [
        {
          "internalType": "uint256",
          "name": "",
          "type": "uint256"
        }
      ],
      "stateMutability": "view",
      "type": "function"
    },
    {
      "inputs": [
        {
          "internalType": "address",
          "name": "recipient",
          "type": "address"
        },
        {
          "internalType": "uint256",
          "name": "amount",
          "type": "uint256"
        }
      ],
      "name": "transfer",
      "outputs": [
        {
          "internalType": "bool",
          "name": "",
          "type": "bool"
        }
      ],
      "stateMutability": "nonpayable",
      "type": "function"
    },
    {
      "inputs": [
        {
          "internalType": "address",
          "name": "sender",
          "type": "address"
        },
        {
          "internalType": "address",
          "name": "recipient",
          "type": "address"
        },
        {
          "internalType": "uint256",
          "name": "amount",
          "type": "uint256"
        }
      ],
      "name": "transferFrom",
      "outputs": [
        {
          "internalType": "bool",
          "name": "",
          "type": "bool"
        }
      ],
      "stateMutability": "nonpayable",
      "type": "function"
    },
    {
      "inputs": [],
      "name": "underlyingAddress",
      "outputs": [
        {
          "internalType": "address",
          "name": "",
          "type": "address"
        }
      ],
      "stateMutability": "view",
      "type": "function"
    },
    {
      "inputs": [],
      "name": "volPremiumMultiplier",
      "outputs": [
        {
          "internalType": "uint256",
          "name": "numerator",
          "type": "uint256"
        },
        {
          "internalType": "uint256",
          "name": "denominator",
          "type": "uint256"
        }
      ],
      "stateMutability": "view",
      "type": "function"
    },
    {
      "inputs": [],
      "name": "volPremiumPenalty",
      "outputs": [
        {
          "internalType": "uint256",
          "name": "numerator",
          "type": "uint256"
        },
        {
          "internalType": "uint256",
          "name": "denominator",
          "type": "uint256"
        }
      ],
      "stateMutability": "view",
      "type": "function"
    },
    {
      "stateMutability": "payable",
      "type": "receive"
    },
    {
      "inputs": [
        {
          "internalType": "address",
          "name": "_purchaser",
          "type": "address"
        },
        {
          "internalType": "uint256",
          "name": "_id",
          "type": "uint256"
        },
        {
          "internalType": "uint256",
          "name": "_newPremium",
          "type": "uint256"
        },
        {
          "internalType": "uint256",
          "name": "_newCallExposure",
          "type": "uint256"
        },
        {
          "internalType": "uint256",
          "name": "_newPutExposure",
          "type": "uint256"
        }
      ],
      "name": "recordOptionPurhcase",
      "outputs": [],
      "stateMutability": "nonpayable",
      "type": "function"
    },
    {
      "inputs": [
        {
          "internalType": "address",
          "name": "_purchaser",
          "type": "address"
        },
        {
          "internalType": "uint256",
          "name": "_id",
          "type": "uint256"
        },
        {
          "internalType": "uint256",
          "name": "_removePremium",
          "type": "uint256"
        },
        {
          "internalType": "uint256",
          "name": "_removeCallExposure",
          "type": "uint256"
        },
        {
          "internalType": "uint256",
          "name": "_removePutExposure",
          "type": "uint256"
        }
      ],
      "name": "recordOptionRemoval",
      "outputs": [],
      "stateMutability": "nonpayable",
      "type": "function"
    },
    {
      "inputs": [],
      "name": "queryPrice",
      "outputs": [
        {
          "internalType": "uint256",
          "name": "",
          "type": "uint256"
        }
      ],
      "stateMutability": "view",
      "type": "function"
    },
    {
      "inputs": [],
      "name": "calcTotalDelta",
      "outputs": [
        {
          "internalType": "int256",
          "name": "",
          "type": "int256"
        }
      ],
      "stateMutability": "view",
      "type": "function"
    },
    {
      "inputs": [
        {
          "internalType": "uint256",
          "name": "_deadline",
          "type": "uint256"
        }
      ],
      "name": "updateHedges",
      "outputs": [],
      "stateMutability": "payable",
      "type": "function"
    },
    {
      "inputs": [
        {
          "internalType": "uint256",
          "name": "_newStable",
          "type": "uint256"
        },
        {
          "internalType": "uint256",
          "name": "_deadline",
          "type": "uint256"
        }
      ],
      "name": "swapToStable",
      "outputs": [
        {
          "internalType": "uint256[]",
          "name": "_swappedAmounts",
          "type": "uint256[]"
        }
      ],
      "stateMutability": "nonpayable",
      "type": "function"
    },
    {
      "inputs": [
        {
          "internalType": "uint256",
          "name": "_unwindStable",
          "type": "uint256"
        },
        {
          "internalType": "uint256",
          "name": "_deadline",
          "type": "uint256"
        }
      ],
      "name": "swapToUnderlying",
      "outputs": [
        {
          "internalType": "uint256[]",
          "name": "_swappedAmounts",
          "type": "uint256[]"
        }
      ],
      "stateMutability": "nonpayable",
      "type": "function"
    },
    {
      "inputs": [
        {
          "internalType": "uint256",
          "name": "_mpAmount",
          "type": "uint256"
        }
      ],
      "name": "quoteCapitalCost",
      "outputs": [
        {
          "internalType": "uint256",
          "name": "",
          "type": "uint256"
        }
      ],
      "stateMutability": "view",
      "type": "function"
    },
    {
      "inputs": [
        {
          "internalType": "uint256",
          "name": "_depositAmount",
          "type": "uint256"
        }
      ],
      "name": "addCapital",
      "outputs": [],
      "stateMutability": "payable",
      "type": "function"
    },
    {
      "inputs": [
        {
          "internalType": "uint256",
          "name": "_burnMPTokenAmount",
          "type": "uint256"
        }
      ],
      "name": "withdrawCapital",
      "outputs": [],
      "stateMutability": "nonpayable",
      "type": "function"
    },
    {
      "inputs": [
        {
          "internalType": "bool",
          "name": "_net",
          "type": "bool"
        },
        {
          "internalType": "bool",
          "name": "_average",
          "type": "bool"
        }
      ],
      "name": "calcCapital",
      "outputs": [
        {
          "internalType": "uint256",
          "name": "",
          "type": "uint256"
        }
      ],
      "stateMutability": "view",
      "type": "function"
    },
    {
      "inputs": [
        {
          "internalType": "uint256",
          "name": "_amount",
          "type": "uint256"
        },
        {
          "internalType": "enum OptionLibrary.PayoffType",
          "name": "_poType",
          "type": "uint8"
        }
      ],
      "name": "calcUtilityRatios",
      "outputs": [
        {
          "internalType": "uint256",
          "name": "",
          "type": "uint256"
        },
        {
          "internalType": "uint256",
          "name": "",
          "type": "uint256"
        },
        {
          "internalType": "uint256",
          "name": "",
          "type": "uint256"
        }
      ],
      "stateMutability": "view",
      "type": "function"
    },
    {
      "inputs": [
        {
          "internalType": "uint256",
          "name": "_amount",
          "type": "uint256"
        },
        {
          "internalType": "enum OptionLibrary.PayoffType",
          "name": "_poType",
          "type": "uint8"
        }
      ],
      "name": "calcUtilityAddon",
      "outputs": [
        {
          "components": [
            {
              "internalType": "uint256",
              "name": "numerator",
              "type": "uint256"
            },
            {
              "internalType": "uint256",
              "name": "denominator",
              "type": "uint256"
            }
          ],
          "internalType": "struct OptionLibrary.Percent",
          "name": "",
          "type": "tuple"
        }
      ],
      "stateMutability": "view",
      "type": "function"
    },
    {
      "inputs": [],
      "name": "sweepBalance",
      "outputs": [],
      "stateMutability": "nonpayable",
      "type": "function"
    },
    {
      "inputs": [
        {
          "internalType": "uint256",
          "name": "_multiplier",
          "type": "uint256"
        },
        {
          "internalType": "uint256",
          "name": "_denominator",
          "type": "uint256"
        }
      ],
      "name": "resetMaxCollateralisation",
      "outputs": [],
      "stateMutability": "nonpayable",
      "type": "function"
    },
    {
      "inputs": [
        {
          "internalType": "uint256",
          "name": "_multiplier",
          "type": "uint256"
        },
        {
          "internalType": "uint256",
          "name": "_denominator",
          "type": "uint256"
        }
      ],
      "name": "resetVolPremiumMultiplier",
      "outputs": [],
      "stateMutability": "nonpayable",
      "type": "function"
    },
    {
      "inputs": [
        {
          "internalType": "uint256",
          "name": "_multiplier",
          "type": "uint256"
        },
        {
          "internalType": "uint256",
          "name": "_denominator",
          "type": "uint256"
        }
      ],
      "name": "resetVolPremiumPenalty",
      "outputs": [],
      "stateMutability": "nonpayable",
      "type": "function"
    },
    {
      "inputs": [
        {
          "internalType": "uint256",
          "name": "_multiplier",
          "type": "uint256"
        },
        {
          "internalType": "uint256",
          "name": "_denominator",
          "type": "uint256"
        }
      ],
      "name": "resetSwapSlippageAllowance",
      "outputs": [],
      "stateMutability": "nonpayable",
      "type": "function"
    },
    {
      "inputs": [
        {
          "internalType": "address",
          "name": "_address",
          "type": "address"
        }
      ],
      "name": "getHoldersOptionCount",
      "outputs": [
        {
          "internalType": "uint256",
          "name": "",
          "type": "uint256"
        }
      ],
      "stateMutability": "view",
      "type": "function"
    },
    {
      "inputs": [
        {
          "internalType": "uint256",
          "name": "_index",
          "type": "uint256"
        },
        {
          "internalType": "address",
          "name": "_address",
          "type": "address"
        }
      ],
      "name": "getHoldersOption",
      "outputs": [
        {
          "components": [
            {
              "internalType": "enum OptionLibrary.PayoffType",
              "name": "poType",
              "type": "uint8"
            },
            {
              "internalType": "address",
              "name": "holder",
              "type": "address"
            },
            {
              "internalType": "enum OptionLibrary.OptionStatus",
              "name": "status",
              "type": "uint8"
            },
            {
              "internalType": "uint256",
              "name": "id",
              "type": "uint256"
            },
            {
              "internalType": "uint256",
              "name": "createTime",
              "type": "uint256"
            },
            {
              "internalType": "uint256",
              "name": "effectiveTime",
              "type": "uint256"
            },
            {
              "internalType": "uint256",
              "name": "tenor",
              "type": "uint256"
            },
            {
              "internalType": "uint256",
              "name": "exerciseTime",
              "type": "uint256"
            },
            {
              "internalType": "uint256",
              "name": "amount",
              "type": "uint256"
            },
            {
              "internalType": "uint256",
              "name": "spot",
              "type": "uint256"
            },
            {
              "internalType": "uint256",
              "name": "strike",
              "type": "uint256"
            },
            {
              "internalType": "uint256",
              "name": "volatility",
              "type": "uint256"
            },
            {
              "internalType": "uint256",
              "name": "premium",
              "type": "uint256"
            },
            {
              "internalType": "uint256",
              "name": "fee",
              "type": "uint256"
            }
          ],
          "internalType": "struct OptionLibrary.Option",
          "name": "",
          "type": "tuple"
        }
      ],
      "stateMutability": "view",
      "type": "function"
    }
  ],
  "bytecode": "0x608060405260006010556000601155600060125560006013556040518060400160405280620f42408152602001620f42408152506016600082015181600001556020820151816001015550506040518060400160405280620186a08152602001620f424081525060186000820151816000015560208201518160010155505060405180604001604052806207a1208152602001620f4240815250601a600082015181600001556020820151816001015550506040518060400160405280614e208152602001620f4240815250601c60008201518160000155602082015181600101555050348015620000f057600080fd5b5060405162006ad038038062006ad08339818101604052810190620001169190620008a8565b86868160039080519060200190620001309291906200074c565b508060049080519060200190620001499291906200074c565b505050620001616000801b336200046760201b60201c565b620001937fa49807205ce4d355092ef5a8a18f56e8913cf4a201fbe287825b095693c21775336200046760201b60201c565b80600d60006101000a81548173ffffffffffffffffffffffffffffffffffffffff021916908373ffffffffffffffffffffffffffffffffffffffff16021790555081600c60006101000a81548173ffffffffffffffffffffffffffffffffffffffff021916908373ffffffffffffffffffffffffffffffffffffffff16021790555083601f60006101000a81548173ffffffffffffffffffffffffffffffffffffffff021916908373ffffffffffffffffffffffffffffffffffffffff16021790555084601e60006101000a81548173ffffffffffffffffffffffffffffffffffffffff021916908373ffffffffffffffffffffffffffffffffffffffff160217905550601e60009054906101000a900473ffffffffffffffffffffffffffffffffffffffff16600e60006101000a81548173ffffffffffffffffffffffffffffffffffffffff021916908373ffffffffffffffffffffffffffffffffffffffff16021790555030600660006101000a81548173ffffffffffffffffffffffffffffffffffffffff021916908373ffffffffffffffffffffffffffffffffffffffff16021790555082600f60006101000a81548173ffffffffffffffffffffffffffffffffffffffff021916908373ffffffffffffffffffffffffffffffffffffffff160217905550600d60009054906101000a900473ffffffffffffffffffffffffffffffffffffffff1673ffffffffffffffffffffffffffffffffffffffff1663313ce5676040518163ffffffff1660e01b815260040160206040518083038186803b158015620003e557600080fd5b505afa158015620003fa573d6000803e3d6000fd5b505050506040513d601f19601f8201168201806040525081019062000420919062000999565b60ff16601581905550601554600a6200043a919062000b6a565b6014819055506200045a33670de0b6b3a76400006200047d60201b60201c565b5050505050505062000eb0565b620004798282620005e260201b60201c565b5050565b600073ffffffffffffffffffffffffffffffffffffffff168273ffffffffffffffffffffffffffffffffffffffff161415620004f0576040517f08c379a0000000000000000000000000000000000000000000000000000000008152600401620004e79062000a03565b60405180910390fd5b6200050460008383620006d460201b60201c565b806002600082825462000518919062000ab2565b92505081905550806000808473ffffffffffffffffffffffffffffffffffffffff1673ffffffffffffffffffffffffffffffffffffffff16815260200190815260200160002060008282546200056f919062000ab2565b925050819055508173ffffffffffffffffffffffffffffffffffffffff16600073ffffffffffffffffffffffffffffffffffffffff167fddf252ad1be2c89b69c2b068fc378daa952ba7f163c4a11628f55a4df523b3ef83604051620005d6919062000a25565b60405180910390a35050565b620005f48282620006d960201b60201c565b620006d05760016005600084815260200190815260200160002060000160008373ffffffffffffffffffffffffffffffffffffffff1673ffffffffffffffffffffffffffffffffffffffff16815260200190815260200160002060006101000a81548160ff021916908315150217905550620006756200074460201b60201c565b73ffffffffffffffffffffffffffffffffffffffff168173ffffffffffffffffffffffffffffffffffffffff16837f2f8788117e7eff1d82e926ec794901d17c78024a50270940304540a733656f0d60405160405180910390a45b5050565b505050565b60006005600084815260200190815260200160002060000160008373ffffffffffffffffffffffffffffffffffffffff1673ffffffffffffffffffffffffffffffffffffffff16815260200190815260200160002060009054906101000a900460ff16905092915050565b600033905090565b8280546200075a9062000d28565b90600052602060002090601f0160209004810192826200077e5760008555620007ca565b82601f106200079957805160ff1916838001178555620007ca565b82800160010185558215620007ca579182015b82811115620007c9578251825591602001919060010190620007ac565b5b509050620007d99190620007dd565b5090565b5b80821115620007f8576000816000905550600101620007de565b5090565b6000620008136200080d8462000a6b565b62000a42565b90508281526020810184848401111562000832576200083162000e26565b5b6200083f84828562000cf2565b509392505050565b600081519050620008588162000e7c565b92915050565b600082601f83011262000876576200087562000e21565b5b815162000888848260208601620007fc565b91505092915050565b600081519050620008a28162000e96565b92915050565b600080600080600080600060e0888a031215620008ca57620008c962000e30565b5b600088015167ffffffffffffffff811115620008eb57620008ea62000e2b565b5b620008f98a828b016200085e565b975050602088015167ffffffffffffffff8111156200091d576200091c62000e2b565b5b6200092b8a828b016200085e565b96505060406200093e8a828b0162000847565b9550506060620009518a828b0162000847565b9450506080620009648a828b0162000847565b93505060a0620009778a828b0162000847565b92505060c06200098a8a828b0162000847565b91505092959891949750929550565b600060208284031215620009b257620009b162000e30565b5b6000620009c28482850162000891565b91505092915050565b6000620009da601f8362000aa1565b9150620009e78262000e53565b602082019050919050565b620009fd8162000cdb565b82525050565b6000602082019050818103600083015262000a1e81620009cb565b9050919050565b600060208201905062000a3c6000830184620009f2565b92915050565b600062000a4e62000a61565b905062000a5c828262000d5e565b919050565b6000604051905090565b600067ffffffffffffffff82111562000a895762000a8862000df2565b5b62000a948262000e35565b9050602081019050919050565b600082825260208201905092915050565b600062000abf8262000cdb565b915062000acc8362000cdb565b9250827fffffffffffffffffffffffffffffffffffffffffffffffffffffffffffffffff0382111562000b045762000b0362000d94565b5b828201905092915050565b6000808291508390505b600185111562000b615780860481111562000b395762000b3862000d94565b5b600185161562000b495780820291505b808102905062000b598562000e46565b945062000b19565b94509492505050565b600062000b778262000cdb565b915062000b848362000cdb565b925062000bb37fffffffffffffffffffffffffffffffffffffffffffffffffffffffffffffffff848462000bbb565b905092915050565b60008262000bcd576001905062000ca0565b8162000bdd576000905062000ca0565b816001811462000bf6576002811462000c015762000c37565b600191505062000ca0565b60ff84111562000c165762000c1562000d94565b5b8360020a91508482111562000c305762000c2f62000d94565b5b5062000ca0565b5060208310610133831016604e8410600b841016171562000c715782820a90508381111562000c6b5762000c6a62000d94565b5b62000ca0565b62000c80848484600162000b0f565b9250905081840481111562000c9a5762000c9962000d94565b5b81810290505b9392505050565b600062000cb48262000cbb565b9050919050565b600073ffffffffffffffffffffffffffffffffffffffff82169050919050565b6000819050919050565b600060ff82169050919050565b60005b8381101562000d1257808201518184015260208101905062000cf5565b8381111562000d22576000848401525b50505050565b6000600282049050600182168062000d4157607f821691505b6020821081141562000d585762000d5762000dc3565b5b50919050565b62000d698262000e35565b810181811067ffffffffffffffff8211171562000d8b5762000d8a62000df2565b5b80604052505050565b7f4e487b7100000000000000000000000000000000000000000000000000000000600052601160045260246000fd5b7f4e487b7100000000000000000000000000000000000000000000000000000000600052602260045260246000fd5b7f4e487b7100000000000000000000000000000000000000000000000000000000600052604160045260246000fd5b600080fd5b600080fd5b600080fd5b600080fd5b6000601f19601f8301169050919050565b60008160011c9050919050565b7f45524332303a206d696e7420746f20746865207a65726f206164647265737300600082015250565b62000e878162000ca7565b811462000e9357600080fd5b50565b62000ea18162000ce5565b811462000ead57600080fd5b50565b615c108062000ec06000396000f3fe6080604052600436106102e85760003560e01c806392e33c0011610190578063c679dc79116100dc578063d50cb88b11610095578063dc723c6e1161006f578063dc723c6e14610bca578063dd62ed3e14610bf5578063e400bdf014610c32578063f8daf7d814610c5e576102ef565b8063d50cb88b14610b4d578063d547741f14610b78578063d95b0a1214610ba1576102ef565b8063c679dc7914610a2d578063cbe42a1814610a6a578063cc8156ce14610a93578063d3b7bfb414610abc578063d4427b9114610ae7578063d5093b0b14610b24576102ef565b8063a457c2d711610149578063ad76003211610123578063ad76003214610992578063b0667cf8146109cf578063bea10f96146109fa578063c3513f6d14610a16576102ef565b8063a457c2d7146108d9578063a7aa180814610916578063a9059cbb14610955576102ef565b806392e33c00146107c857806394d1d54a146107f157806395d89b411461081d5780639617c16e14610848578063a217fddf14610871578063a42b66261461089c576102ef565b806336da48871161024f57806370a0823111610208578063797be55e116101e2578063797be55e146106e65780638a0687d2146107115780638e16a8a61461074e57806391d148541461078b576102ef565b806370a082311461065557806375b238fc1461069257806378b5b549146106bd576102ef565b806336da48871461053c578063395093511461056757806343138690146105a45780634d3e8863146105c057806363447902146105ec5780636467b2cf14610629576102ef565b80632140ea67116102a15780632140ea671461041a57806323b872dd14610445578063248a9ca3146104825780632f2ff15d146104bf578063313ce567146104e857806336568abe14610513576102ef565b806301ffc9a7146102f457806305300b281461033157806306fdde031461035c578063095ea7b31461038757806318160ddd146103c45780631dca1553146103ef576102ef565b366102ef57005b600080fd5b34801561030057600080fd5b5061031b6004803603810190610316919061424a565b610c89565b6040516103289190614b73565b60405180910390f35b34801561033d57600080fd5b50610346610d03565b6040516103539190614e3d565b60405180910390f35b34801561036857600080fd5b50610371610d09565b60405161037e9190614bc4565b60405180910390f35b34801561039357600080fd5b506103ae60048036038101906103a9919061406c565b610d9b565b6040516103bb9190614b73565b60405180910390f35b3480156103d057600080fd5b506103d9610db9565b6040516103e69190614e3d565b60405180910390f35b3480156103fb57600080fd5b50610404610dc3565b6040516104119190614ba9565b60405180910390f35b34801561042657600080fd5b5061042f610dc9565b60405161043c9190614a84565b60405180910390f35b34801561045157600080fd5b5061046c60048036038101906104679190614019565b610def565b6040516104799190614b73565b60405180910390f35b34801561048e57600080fd5b506104a960048036038101906104a491906141dd565b610ef0565b6040516104b69190614b8e565b60405180910390f35b3480156104cb57600080fd5b506104e660048036038101906104e1919061420a565b610f10565b005b3480156104f457600080fd5b506104fd610f39565b60405161050a9190614f12565b60405180910390f35b34801561051f57600080fd5b5061053a6004803603810190610535919061420a565b610f42565b005b34801561054857600080fd5b50610551610fc5565b60405161055e9190614e3d565b60405180910390f35b34801561057357600080fd5b5061058e6004803603810190610589919061406c565b610fcb565b60405161059b9190614b73565b60405180910390f35b6105be60048036038101906105b991906142d2565b611077565b005b3480156105cc57600080fd5b506105d56111a4565b6040516105e3929190614e58565b60405180910390f35b3480156105f857600080fd5b50610613600480360381019061060e919061419d565b6111b6565b6040516106209190614e3d565b60405180910390f35b34801561063557600080fd5b5061063e611423565b60405161064c929190614e58565b60405180910390f35b34801561066157600080fd5b5061067c60048036038101906106779190613fac565b611435565b6040516106899190614e3d565b60405180910390f35b34801561069e57600080fd5b506106a761147d565b6040516106b49190614b8e565b60405180910390f35b3480156106c957600080fd5b506106e460048036038101906106df91906143ac565b6114a1565b005b3480156106f257600080fd5b506106fb611506565b6040516107089190614e3d565b60405180910390f35b34801561071d57600080fd5b506107386004803603810190610733919061432c565b61150c565b6040516107459190614e06565b60405180910390f35b34801561075a57600080fd5b50610775600480360381019061077091906143ac565b611618565b6040516107829190614b51565b60405180910390f35b34801561079757600080fd5b506107b260048036038101906107ad919061420a565b6118c3565b6040516107bf9190614b73565b60405180910390f35b3480156107d457600080fd5b506107ef60048036038101906107ea91906143ac565b61192e565b005b3480156107fd57600080fd5b50610806611993565b604051610814929190614e58565b60405180910390f35b34801561082957600080fd5b506108326119a5565b60405161083f9190614bc4565b60405180910390f35b34801561085457600080fd5b5061086f600480360381019061086a91906143ac565b611a37565b005b34801561087d57600080fd5b50610886611a9c565b6040516108939190614b8e565b60405180910390f35b3480156108a857600080fd5b506108c360048036038101906108be9190613fac565b611aa3565b6040516108d09190614e3d565b60405180910390f35b3480156108e557600080fd5b5061090060048036038101906108fb919061406c565b611af3565b60405161090d9190614b73565b60405180910390f35b34801561092257600080fd5b5061093d6004803603810190610938919061436c565b611be7565b60405161094c93929190614edb565b60405180910390f35b34801561096157600080fd5b5061097c6004803603810190610977919061406c565b611d24565b6040516109899190614b73565b60405180910390f35b34801561099e57600080fd5b506109b960048036038101906109b491906143ac565b611d42565b6040516109c69190614b51565b60405180910390f35b3480156109db57600080fd5b506109e4611fed565b6040516109f19190614e3d565b60405180910390f35b610a146004803603810190610a0f91906142d2565b61209d565b005b348015610a2257600080fd5b50610a2b612263565b005b348015610a3957600080fd5b50610a546004803603810190610a4f919061436c565b612452565b604051610a619190614e22565b60405180910390f35b348015610a7657600080fd5b50610a916004803603810190610a8c91906140ac565b612604565b005b348015610a9f57600080fd5b50610aba6004803603810190610ab591906143ac565b6126eb565b005b348015610ac857600080fd5b50610ad1612750565b604051610ade9190614a84565b60405180910390f35b348015610af357600080fd5b50610b0e6004803603810190610b0991906142d2565b612776565b604051610b1b9190614e3d565b60405180910390f35b348015610b3057600080fd5b50610b4b6004803603810190610b4691906140ac565b61279d565b005b348015610b5957600080fd5b50610b62612856565b604051610b6f9190614e3d565b60405180910390f35b348015610b8457600080fd5b50610b9f6004803603810190610b9a919061420a565b61285c565b005b348015610bad57600080fd5b50610bc86004803603810190610bc391906142d2565b612885565b005b348015610bd657600080fd5b50610bdf6129dd565b604051610bec9190614ba9565b60405180910390f35b348015610c0157600080fd5b50610c1c6004803603810190610c179190613fd9565b612ae5565b604051610c299190614e3d565b60405180910390f35b348015610c3e57600080fd5b50610c47612b6c565b604051610c55929190614e58565b60405180910390f35b348015610c6a57600080fd5b50610c73612b7e565b604051610c809190614e3d565b60405180910390f35b60007f7965db0b000000000000000000000000000000000000000000000000000000007bffffffffffffffffffffffffffffffffffffffffffffffffffffffff1916827bffffffffffffffffffffffffffffffffffffffffffffffffffffffff19161480610cfc5750610cfb82612b84565b5b9050919050565b60155481565b606060038054610d18906153dc565b80601f0160208091040260200160405190810160405280929190818152602001828054610d44906153dc565b8015610d915780601f10610d6657610100808354040283529160200191610d91565b820191906000526020600020905b815481529060010190602001808311610d7457829003601f168201915b5050505050905090565b6000610daf610da8612bee565b8484612bf6565b6001905092915050565b6000600254905090565b60135481565b601e60009054906101000a900473ffffffffffffffffffffffffffffffffffffffff1681565b6000610dfc848484612dc1565b6000600160008673ffffffffffffffffffffffffffffffffffffffff1673ffffffffffffffffffffffffffffffffffffffff1681526020019081526020016000206000610e47612bee565b73ffffffffffffffffffffffffffffffffffffffff1673ffffffffffffffffffffffffffffffffffffffff16815260200190815260200160002054905082811015610ec7576040517f08c379a0000000000000000000000000000000000000000000000000000000008152600401610ebe90614cc6565b60405180910390fd5b610ee485610ed3612bee565b8584610edf9190615220565b612bf6565b60019150509392505050565b600060056000838152602001908152602001600020600101549050919050565b610f1982610ef0565b610f2a81610f25612bee565b613040565b610f3483836130dd565b505050565b60006012905090565b610f4a612bee565b73ffffffffffffffffffffffffffffffffffffffff168173ffffffffffffffffffffffffffffffffffffffff1614610fb7576040517f08c379a0000000000000000000000000000000000000000000000000000000008152600401610fae90614dc6565b60405180910390fd5b610fc182826131be565b5050565b60115481565b600061106d610fd8612bee565b848460016000610fe6612bee565b73ffffffffffffffffffffffffffffffffffffffff1673ffffffffffffffffffffffffffffffffffffffff16815260200190815260200160002060008873ffffffffffffffffffffffffffffffffffffffff1673ffffffffffffffffffffffffffffffffffffffff1681526020019081526020016000205461106891906150ab565b612bf6565b6001905092915050565b7fa49807205ce4d355092ef5a8a18f56e8913cf4a201fbe287825b095693c217756110a9816110a4612bee565b613040565b60006110b36129dd565b90506000808212156110ce5781816110cb9190615017565b90505b600060135412156110ea57601354816110e7919061518c565b90505b60008082121561113c5760008261110090615488565b9050600061110e8288611d42565b905080600081518110611124576111236155bc565b5b602002602001015183611137919061518c565b925050505b600082131561118457600082905060006111568288611618565b90508060018151811061116c5761116b6155bc565b5b60200260200101518361117f9190615017565b925050505b80601360008282546111969190615017565b925050819055505050505050565b601c8060000154908060010154905082565b6000806111c1611fed565b9050600081601454601f60009054906101000a900473ffffffffffffffffffffffffffffffffffffffff1673ffffffffffffffffffffffffffffffffffffffff166370a08231600660009054906101000a900473ffffffffffffffffffffffffffffffffffffffff166040518263ffffffff1660e01b81526004016112469190614a9f565b60206040518083038186803b15801561125e57600080fd5b505afa158015611272573d6000803e3d6000fd5b505050506040513d601f19601f8201168201806040525081019061129691906142ff565b6112a09190615132565b6112aa9190615101565b9050600e60009054906101000a900473ffffffffffffffffffffffffffffffffffffffff1673ffffffffffffffffffffffffffffffffffffffff166370a08231600660009054906101000a900473ffffffffffffffffffffffffffffffffffffffff166040518263ffffffff1660e01b81526004016113299190614a9f565b60206040518083038186803b15801561134157600080fd5b505afa158015611355573d6000803e3d6000fd5b505050506040513d601f19601f8201168201806040525081019061137991906142ff565b8161138491906150ab565b905084156113e95760125460115461139c91906150ab565b8111156113b8576012546011546113b391906150ab565b6113ba565b805b816113c59190615220565b90506010548111156113d9576010546113db565b805b816113e69190615220565b90505b8315611418576113f7610db9565b670de0b6b3a76400008261140b9190615132565b6114159190615101565b90505b809250505092915050565b60188060000154908060010154905082565b60008060008373ffffffffffffffffffffffffffffffffffffffff1673ffffffffffffffffffffffffffffffffffffffff168152602001908152602001600020549050919050565b7fa49807205ce4d355092ef5a8a18f56e8913cf4a201fbe287825b095693c2177581565b7fa49807205ce4d355092ef5a8a18f56e8913cf4a201fbe287825b095693c217756114d3816114ce612bee565b613040565b60405180604001604052808481526020018381525060186000820151816000015560208201518160010155905050505050565b60105481565b611514613bec565b600f60009054906101000a900473ffffffffffffffffffffffffffffffffffffffff1673ffffffffffffffffffffffffffffffffffffffff16631ce5e9a66115a385600760008773ffffffffffffffffffffffffffffffffffffffff1673ffffffffffffffffffffffffffffffffffffffff1681526020019081526020016000206132a090919063ffffffff16565b6040518263ffffffff1660e01b81526004016115bf9190614e3d565b6101c06040518083038186803b1580156115d857600080fd5b505afa1580156115ec573d6000803e3d6000fd5b505050506040513d601f19601f8201168201806040525081019061161091906142a4565b905092915050565b60607fa49807205ce4d355092ef5a8a18f56e8913cf4a201fbe287825b095693c2177561164c81611647612bee565b613040565b6000611656611fed565b90506000601c60010154601c60000154601c6001015461167691906150ab565b836116819190615132565b61168b9190615101565b90506000816014548861169e9190615132565b6116a89190615101565b90506000600267ffffffffffffffff8111156116c7576116c66155eb565b5b6040519080825280602002602001820160405280156116f55781602001602082028036833780820191505090505b509050601f60009054906101000a900473ffffffffffffffffffffffffffffffffffffffff168160008151811061172f5761172e6155bc565b5b602002602001019073ffffffffffffffffffffffffffffffffffffffff16908173ffffffffffffffffffffffffffffffffffffffff1681525050601e60009054906101000a900473ffffffffffffffffffffffffffffffffffffffff16816001815181106117a05761179f6155bc565b5b602002602001019073ffffffffffffffffffffffffffffffffffffffff16908173ffffffffffffffffffffffffffffffffffffffff1681525050600c60009054906101000a900473ffffffffffffffffffffffffffffffffffffffff1673ffffffffffffffffffffffffffffffffffffffff166338ed1739898484600660009054906101000a900473ffffffffffffffffffffffffffffffffffffffff168c6040518663ffffffff1660e01b815260040161185f959493929190614e81565b600060405180830381600087803b15801561187957600080fd5b505af115801561188d573d6000803e3d6000fd5b505050506040513d6000823e3d601f19601f820116820180604052508101906118b69190614127565b9550505050505092915050565b60006005600084815260200190815260200160002060000160008373ffffffffffffffffffffffffffffffffffffffff1673ffffffffffffffffffffffffffffffffffffffff16815260200190815260200160002060009054906101000a900460ff16905092915050565b7fa49807205ce4d355092ef5a8a18f56e8913cf4a201fbe287825b095693c217756119608161195b612bee565b613040565b60405180604001604052808481526020018381525060166000820151816000015560208201518160010155905050505050565b601a8060000154908060010154905082565b6060600480546119b4906153dc565b80601f01602080910402602001604051908101604052809291908181526020018280546119e0906153dc565b8015611a2d5780601f10611a0257610100808354040283529160200191611a2d565b820191906000526020600020905b815481529060010190602001808311611a1057829003601f168201915b5050505050905090565b7fa49807205ce4d355092ef5a8a18f56e8913cf4a201fbe287825b095693c21775611a6981611a64612bee565b613040565b604051806040016040528084815260200183815250601a6000820151816000015560208201518160010155905050505050565b6000801b81565b6000611aec600760008473ffffffffffffffffffffffffffffffffffffffff1673ffffffffffffffffffffffffffffffffffffffff1681526020019081526020016000206132ba565b9050919050565b60008060016000611b02612bee565b73ffffffffffffffffffffffffffffffffffffffff1673ffffffffffffffffffffffffffffffffffffffff16815260200190815260200160002060008573ffffffffffffffffffffffffffffffffffffffff1673ffffffffffffffffffffffffffffffffffffffff16815260200190815260200160002054905082811015611bbf576040517f08c379a0000000000000000000000000000000000000000000000000000000008152600401611bb690614da6565b60405180910390fd5b611bdc611bca612bee565b858584611bd79190615220565b612bf6565b600191505092915050565b600080600080611bf86000806111b6565b905060006012546011541015611c1057601254611c14565b6011545b9050600081905060006001811115611c2f57611c2e61552f565b5b876001811115611c4257611c4161552f565b5b1415611c795760125488601154611c5991906150ab565b1015611c6757601254611c76565b87601154611c7591906150ab565b5b90505b600180811115611c8c57611c8b61552f565b5b876001811115611c9f57611c9e61552f565b5b1415611cd65787601254611cb391906150ab565b6011541015611ccf5787601254611cca91906150ab565b611cd3565b6011545b90505b8260166001015483611ce89190615132565b611cf29190615101565b8360166001015483611d049190615132565b611d0e9190615101565b6016600101549550955095505050509250925092565b6000611d38611d31612bee565b8484612dc1565b6001905092915050565b60607fa49807205ce4d355092ef5a8a18f56e8913cf4a201fbe287825b095693c21775611d7681611d71612bee565b613040565b6000611d80611fed565b90506000601c60010154601c60000154601c60010154611da091906150ab565b83611dab9190615132565b611db59190615101565b905060008160145488611dc89190615132565b611dd29190615101565b90506000600267ffffffffffffffff811115611df157611df06155eb565b5b604051908082528060200260200182016040528015611e1f5781602001602082028036833780820191505090505b509050601f60009054906101000a900473ffffffffffffffffffffffffffffffffffffffff1681600181518110611e5957611e586155bc565b5b602002602001019073ffffffffffffffffffffffffffffffffffffffff16908173ffffffffffffffffffffffffffffffffffffffff1681525050601e60009054906101000a900473ffffffffffffffffffffffffffffffffffffffff1681600081518110611eca57611ec96155bc565b5b602002602001019073ffffffffffffffffffffffffffffffffffffffff16908173ffffffffffffffffffffffffffffffffffffffff1681525050600c60009054906101000a900473ffffffffffffffffffffffffffffffffffffffff1673ffffffffffffffffffffffffffffffffffffffff16638803dbee898484600660009054906101000a900473ffffffffffffffffffffffffffffffffffffffff168c6040518663ffffffff1660e01b8152600401611f89959493929190614e81565b600060405180830381600087803b158015611fa357600080fd5b505af1158015611fb7573d6000803e3d6000fd5b505050506040513d6000823e3d601f19601f82011682018060405250810190611fe09190614127565b9550505050505092915050565b600080600d60009054906101000a900473ffffffffffffffffffffffffffffffffffffffff1673ffffffffffffffffffffffffffffffffffffffff1663feaf968c6040518163ffffffff1660e01b815260040160a06040518083038186803b15801561205857600080fd5b505afa15801561206c573d6000803e3d6000fd5b505050506040513d601f19601f8201168201806040525081019061209091906143ec565b5050509150508091505090565b60006120ab600060016111b6565b9050600081116120f0576040517f08c379a00000000000000000000000000000000000000000000000000000000081526004016120e790614ce6565b60405180910390fd5b600061210583670de0b6b3a7640000846132cf565b9050600e60009054906101000a900473ffffffffffffffffffffffffffffffffffffffff1673ffffffffffffffffffffffffffffffffffffffff166323b872dd33600660009054906101000a900473ffffffffffffffffffffffffffffffffffffffff16866040518463ffffffff1660e01b815260040161218893929190614aba565b602060405180830381600087803b1580156121a257600080fd5b505af11580156121b6573d6000803e3d6000fd5b505050506040513d601f19601f820116820180604052508101906121da9190614170565b612219576040517f08c379a000000000000000000000000000000000000000000000000000000000815260040161221090614d66565b60405180910390fd5b61222333826133cb565b7fd0d5ca25112902dbbf5a70a67eed6edc7513b74f2a7ec0805ca216c99f981cc133848360405161225693929190614b1a565b60405180910390a1505050565b7fa49807205ce4d355092ef5a8a18f56e8913cf4a201fbe287825b095693c2177561229581612290612bee565b613040565b600e60009054906101000a900473ffffffffffffffffffffffffffffffffffffffff1673ffffffffffffffffffffffffffffffffffffffff1663a9059cbb33600e60009054906101000a900473ffffffffffffffffffffffffffffffffffffffff1673ffffffffffffffffffffffffffffffffffffffff166370a08231600660009054906101000a900473ffffffffffffffffffffffffffffffffffffffff166040518263ffffffff1660e01b81526004016123519190614a9f565b60206040518083038186803b15801561236957600080fd5b505afa15801561237d573d6000803e3d6000fd5b505050506040513d601f19601f820116820180604052508101906123a191906142ff565b6040518363ffffffff1660e01b81526004016123be929190614af1565b602060405180830381600087803b1580156123d857600080fd5b505af11580156123ec573d6000803e3d6000fd5b505050506040513d601f19601f820116820180604052508101906124109190614170565b61244f576040517f08c379a000000000000000000000000000000000000000000000000000000000815260040161244690614ca6565b60405180910390fd5b50565b61245a613c95565b60008060006124698686611be7565b92509250925060166000015483106124b6576040517f08c379a00000000000000000000000000000000000000000000000000000000081526004016124ad90614d46565b60405180910390fd5b60166000015482106124fd576040517f08c379a00000000000000000000000000000000000000000000000000000000081526004016124f490614d46565b60405180910390fd5b6000601860010154846018600001546125169190615132565b6125209190615101565b90508184111561256457601a60010154828561253c9190615220565b601a6000015461254c9190615132565b6125569190615101565b8161256191906150ab565b90505b6000601a600101548460186000015461257d9190615132565b6125879190615101565b9050828411156125cb57601a6001015483856125a39190615220565b601a600001546125b39190615132565b6125bd9190615101565b816125c891906150ab565b90505b6040518060400160405280600283856125e491906150ab565b6125ee9190615101565b8152602001848152509550505050505092915050565b61261885600a61351f90919063ffffffff16565b6126325761263085600a61354f90919063ffffffff16565b505b61268384600760008873ffffffffffffffffffffffffffffffffffffffff1673ffffffffffffffffffffffffffffffffffffffff16815260200190815260200160002061357f90919063ffffffff16565b5061269884600861357f90919063ffffffff16565b5082601060008282546126ab91906150ab565b9250508190555081601160008282546126c491906150ab565b9250508190555080601260008282546126dd91906150ab565b925050819055505050505050565b7fa49807205ce4d355092ef5a8a18f56e8913cf4a201fbe287825b095693c2177561271d81612718612bee565b613040565b604051806040016040528084815260200183815250601c6000820151816000015560208201518160010155905050505050565b601f60009054906101000a900473ffffffffffffffffffffffffffffffffffffffff1681565b600061279682612788600060016111b6565b670de0b6b3a76400006132cf565b9050919050565b6127ee84600760008873ffffffffffffffffffffffffffffffffffffffff1673ffffffffffffffffffffffffffffffffffffffff16815260200190815260200160002061359990919063ffffffff16565b5061280384600861359990919063ffffffff16565b5082601060008282546128169190615220565b92505081905550816011600082825461282f9190615220565b9250508190555080601260008282546128489190615220565b925050819055505050505050565b60145481565b61286582610ef0565b61287681612871612bee565b613040565b61288083836131be565b505050565b60006128a46128956001806111b6565b83670de0b6b3a76400006132cf565b90506128b033836135b3565b600e60009054906101000a900473ffffffffffffffffffffffffffffffffffffffff1673ffffffffffffffffffffffffffffffffffffffff1663a9059cbb33836040518363ffffffff1660e01b815260040161290d929190614af1565b602060405180830381600087803b15801561292757600080fd5b505af115801561293b573d6000803e3d6000fd5b505050506040513d601f19601f8201168201806040525081019061295f9190614170565b61299e576040517f08c379a000000000000000000000000000000000000000000000000000000000815260040161299590614ca6565b60405180910390fd5b7f3a9e5b3b520d77dc26bf05104c863b6b654d4b96fa8031a783ad0dbd905cdf393383836040516129d193929190614b1a565b60405180910390a15050565b6000806129ea60086132ba565b90506000805b82811015612adc576000612a0e8260086132a090919063ffffffff16565b9050600f60009054906101000a900473ffffffffffffffffffffffffffffffffffffffff1673ffffffffffffffffffffffffffffffffffffffff1663a823c087826040518263ffffffff1660e01b8152600401612a6b9190614e3d565b60206040518083038186803b158015612a8357600080fd5b505afa158015612a97573d6000803e3d6000fd5b505050506040513d601f19601f82011682018060405250810190612abb9190614277565b83612ac69190615017565b9250508080612ad49061543f565b9150506129f0565b50809250505090565b6000600160008473ffffffffffffffffffffffffffffffffffffffff1673ffffffffffffffffffffffffffffffffffffffff16815260200190815260200160002060008373ffffffffffffffffffffffffffffffffffffffff1673ffffffffffffffffffffffffffffffffffffffff16815260200190815260200160002054905092915050565b60168060000154908060010154905082565b60125481565b60007f01ffc9a7000000000000000000000000000000000000000000000000000000007bffffffffffffffffffffffffffffffffffffffffffffffffffffffff1916827bffffffffffffffffffffffffffffffffffffffffffffffffffffffff1916149050919050565b600033905090565b600073ffffffffffffffffffffffffffffffffffffffff168373ffffffffffffffffffffffffffffffffffffffff161415612c66576040517f08c379a0000000000000000000000000000000000000000000000000000000008152600401612c5d90614d86565b60405180910390fd5b600073ffffffffffffffffffffffffffffffffffffffff168273ffffffffffffffffffffffffffffffffffffffff161415612cd6576040517f08c379a0000000000000000000000000000000000000000000000000000000008152600401612ccd90614c66565b60405180910390fd5b80600160008573ffffffffffffffffffffffffffffffffffffffff1673ffffffffffffffffffffffffffffffffffffffff16815260200190815260200160002060008473ffffffffffffffffffffffffffffffffffffffff1673ffffffffffffffffffffffffffffffffffffffff168152602001908152602001600020819055508173ffffffffffffffffffffffffffffffffffffffff168373ffffffffffffffffffffffffffffffffffffffff167f8c5be1e5ebec7d5bd14f71427d1e84f3dd0314c0f7b2291e5b200ac8c7c3b92583604051612db49190614e3d565b60405180910390a3505050565b600073ffffffffffffffffffffffffffffffffffffffff168373ffffffffffffffffffffffffffffffffffffffff161415612e31576040517f08c379a0000000000000000000000000000000000000000000000000000000008152600401612e2890614d26565b60405180910390fd5b600073ffffffffffffffffffffffffffffffffffffffff168273ffffffffffffffffffffffffffffffffffffffff161415612ea1576040517f08c379a0000000000000000000000000000000000000000000000000000000008152600401612e9890614c26565b60405180910390fd5b612eac838383613787565b60008060008573ffffffffffffffffffffffffffffffffffffffff1673ffffffffffffffffffffffffffffffffffffffff16815260200190815260200160002054905081811015612f32576040517f08c379a0000000000000000000000000000000000000000000000000000000008152600401612f2990614c86565b60405180910390fd5b8181612f3e9190615220565b6000808673ffffffffffffffffffffffffffffffffffffffff1673ffffffffffffffffffffffffffffffffffffffff16815260200190815260200160002081905550816000808573ffffffffffffffffffffffffffffffffffffffff1673ffffffffffffffffffffffffffffffffffffffff1681526020019081526020016000206000828254612fce91906150ab565b925050819055508273ffffffffffffffffffffffffffffffffffffffff168473ffffffffffffffffffffffffffffffffffffffff167fddf252ad1be2c89b69c2b068fc378daa952ba7f163c4a11628f55a4df523b3ef846040516130329190614e3d565b60405180910390a350505050565b61304a82826118c3565b6130d95761306f8173ffffffffffffffffffffffffffffffffffffffff16601461378c565b61307d8360001c602061378c565b60405160200161308e929190614a4a565b6040516020818303038152906040526040517f08c379a00000000000000000000000000000000000000000000000000000000081526004016130d09190614bc4565b60405180910390fd5b5050565b6130e782826118c3565b6131ba5760016005600084815260200190815260200160002060000160008373ffffffffffffffffffffffffffffffffffffffff1673ffffffffffffffffffffffffffffffffffffffff16815260200190815260200160002060006101000a81548160ff02191690831515021790555061315f612bee565b73ffffffffffffffffffffffffffffffffffffffff168173ffffffffffffffffffffffffffffffffffffffff16837f2f8788117e7eff1d82e926ec794901d17c78024a50270940304540a733656f0d60405160405180910390a45b5050565b6131c882826118c3565b1561329c5760006005600084815260200190815260200160002060000160008373ffffffffffffffffffffffffffffffffffffffff1673ffffffffffffffffffffffffffffffffffffffff16815260200190815260200160002060006101000a81548160ff021916908315150217905550613241612bee565b73ffffffffffffffffffffffffffffffffffffffff168173ffffffffffffffffffffffffffffffffffffffff16837ff6391f5c32d9c69d2a47ea670b442974b53935d1edc7fd64eb21e047a839171b60405160405180910390a45b5050565b60006132af83600001836139c8565b60001c905092915050565b60006132c882600001613a3c565b9050919050565b60008060008019858709858702925082811083820303915050600081141561330a57600084116132fe57600080fd5b838204925050506133c4565b80841161331657600080fd5b60008486880990508281118203915080830392506000856001877fffffffffffffffffffffffffffffffffffffffffffffffffffffffffffffffff0301169050808604955080840493506001818260000304019050808302841793506000600287600302189050808702600203810290508087026002038102905080870260020381029050808702600203810290508087026002038102905080870260020381029050808502955050505050505b9392505050565b600073ffffffffffffffffffffffffffffffffffffffff168273ffffffffffffffffffffffffffffffffffffffff16141561343b576040517f08c379a000000000000000000000000000000000000000000000000000000000815260040161343290614de6565b60405180910390fd5b61344760008383613787565b806002600082825461345991906150ab565b92505081905550806000808473ffffffffffffffffffffffffffffffffffffffff1673ffffffffffffffffffffffffffffffffffffffff16815260200190815260200160002060008282546134ae91906150ab565b925050819055508173ffffffffffffffffffffffffffffffffffffffff16600073ffffffffffffffffffffffffffffffffffffffff167fddf252ad1be2c89b69c2b068fc378daa952ba7f163c4a11628f55a4df523b3ef836040516135139190614e3d565b60405180910390a35050565b6000613547836000018373ffffffffffffffffffffffffffffffffffffffff1660001b613a4d565b905092915050565b6000613577836000018373ffffffffffffffffffffffffffffffffffffffff1660001b613a70565b905092915050565b6000613591836000018360001b613a70565b905092915050565b60006135ab836000018360001b613ae0565b905092915050565b600073ffffffffffffffffffffffffffffffffffffffff168273ffffffffffffffffffffffffffffffffffffffff161415613623576040517f08c379a000000000000000000000000000000000000000000000000000000000815260040161361a90614d06565b60405180910390fd5b61362f82600083613787565b60008060008473ffffffffffffffffffffffffffffffffffffffff1673ffffffffffffffffffffffffffffffffffffffff168152602001908152602001600020549050818110156136b5576040517f08c379a00000000000000000000000000000000000000000000000000000000081526004016136ac90614c46565b60405180910390fd5b81816136c19190615220565b6000808573ffffffffffffffffffffffffffffffffffffffff1673ffffffffffffffffffffffffffffffffffffffff1681526020019081526020016000208190555081600260008282546137159190615220565b92505081905550600073ffffffffffffffffffffffffffffffffffffffff168373ffffffffffffffffffffffffffffffffffffffff167fddf252ad1be2c89b69c2b068fc378daa952ba7f163c4a11628f55a4df523b3ef8460405161377a9190614e3d565b60405180910390a3505050565b505050565b60606000600283600261379f9190615132565b6137a991906150ab565b67ffffffffffffffff8111156137c2576137c16155eb565b5b6040519080825280601f01601f1916602001820160405280156137f45781602001600182028036833780820191505090505b5090507f30000000000000000000000000000000000000000000000000000000000000008160008151811061382c5761382b6155bc565b5b60200101907effffffffffffffffffffffffffffffffffffffffffffffffffffffffffffff1916908160001a9053507f7800000000000000000000000000000000000000000000000000000000000000816001815181106138905761388f6155bc565b5b60200101907effffffffffffffffffffffffffffffffffffffffffffffffffffffffffffff1916908160001a905350600060018460026138d09190615132565b6138da91906150ab565b90505b600181111561397a577f3031323334353637383961626364656600000000000000000000000000000000600f86166010811061391c5761391b6155bc565b5b1a60f81b828281518110613933576139326155bc565b5b60200101907effffffffffffffffffffffffffffffffffffffffffffffffffffffffffffff1916908160001a905350600485901c945080613973906153b2565b90506138dd565b50600084146139be576040517f08c379a00000000000000000000000000000000000000000000000000000000081526004016139b590614c06565b60405180910390fd5b8091505092915050565b600081836000018054905011613a13576040517f08c379a0000000000000000000000000000000000000000000000000000000008152600401613a0a90614be6565b60405180910390fd5b826000018281548110613a2957613a286155bc565b5b9060005260206000200154905092915050565b600081600001805490509050919050565b600080836001016000848152602001908152602001600020541415905092915050565b6000613a7c8383613a4d565b613ad5578260000182908060018154018082558091505060019003906000526020600020016000909190919091505582600001805490508360010160008481526020019081526020016000208190555060019050613ada565b600090505b92915050565b60008083600101600084815260200190815260200160002054905060008114613be0576000600182613b129190615220565b9050600060018660000180549050613b2a9190615220565b90506000866000018281548110613b4457613b436155bc565b5b9060005260206000200154905080876000018481548110613b6857613b676155bc565b5b9060005260206000200181905550838760010160008381526020019081526020016000208190555086600001805480613ba457613ba361558d565b5b60019003818190600052602060002001600090559055866001016000878152602001908152602001600020600090556001945050505050613be6565b60009150505b92915050565b604051806101c0016040528060006001811115613c0c57613c0b61552f565b5b8152602001600073ffffffffffffffffffffffffffffffffffffffff16815260200160006003811115613c4257613c4161552f565b5b815260200160008152602001600081526020016000815260200160008152602001600081526020016000815260200160008152602001600081526020016000815260200160008152602001600081525090565b604051806040016040528060008152602001600081525090565b6000613cc2613cbd84614f52565b614f2d565b90508083825260208201905082856020860282011115613ce557613ce4615624565b5b60005b85811015613d155781613cfb8882613f82565b845260208401935060208301925050600181019050613ce8565b5050509392505050565b600081359050613d2e81615b19565b92915050565b600081519050613d4381615b19565b92915050565b600082601f830112613d5e57613d5d61561a565b5b8151613d6e848260208601613caf565b91505092915050565b600081359050613d8681615b30565b92915050565b600081519050613d9b81615b30565b92915050565b600081359050613db081615b47565b92915050565b600081359050613dc581615b5e565b92915050565b600081519050613dda81615b75565b92915050565b600081359050613def81615b85565b92915050565b600081519050613e0481615b85565b92915050565b600081519050613e1981615b95565b92915050565b60006101c08284031215613e3657613e3561561f565b5b613e416101c0614f2d565b90506000613e5184828501613df5565b6000830152506020613e6584828501613d34565b6020830152506040613e7984828501613dcb565b6040830152506060613e8d84828501613f82565b6060830152506080613ea184828501613f82565b60808301525060a0613eb584828501613f82565b60a08301525060c0613ec984828501613f82565b60c08301525060e0613edd84828501613f82565b60e083015250610100613ef284828501613f82565b61010083015250610120613f0884828501613f82565b61012083015250610140613f1e84828501613f82565b61014083015250610160613f3484828501613f82565b61016083015250610180613f4a84828501613f82565b610180830152506101a0613f6084828501613f82565b6101a08301525092915050565b600081359050613f7c81615bac565b92915050565b600081519050613f9181615bac565b92915050565b600081519050613fa681615bc3565b92915050565b600060208284031215613fc257613fc161562e565b5b6000613fd084828501613d1f565b91505092915050565b60008060408385031215613ff057613fef61562e565b5b6000613ffe85828601613d1f565b925050602061400f85828601613d1f565b9150509250929050565b6000806000606084860312156140325761403161562e565b5b600061404086828701613d1f565b935050602061405186828701613d1f565b925050604061406286828701613f6d565b9150509250925092565b600080604083850312156140835761408261562e565b5b600061409185828601613d1f565b92505060206140a285828601613f6d565b9150509250929050565b600080600080600060a086880312156140c8576140c761562e565b5b60006140d688828901613d1f565b95505060206140e788828901613f6d565b94505060406140f888828901613f6d565b935050606061410988828901613f6d565b925050608061411a88828901613f6d565b9150509295509295909350565b60006020828403121561413d5761413c61562e565b5b600082015167ffffffffffffffff81111561415b5761415a615629565b5b61416784828501613d49565b91505092915050565b6000602082840312156141865761418561562e565b5b600061419484828501613d8c565b91505092915050565b600080604083850312156141b4576141b361562e565b5b60006141c285828601613d77565b92505060206141d385828601613d77565b9150509250929050565b6000602082840312156141f3576141f261562e565b5b600061420184828501613da1565b91505092915050565b600080604083850312156142215761422061562e565b5b600061422f85828601613da1565b925050602061424085828601613d1f565b9150509250929050565b6000602082840312156142605761425f61562e565b5b600061426e84828501613db6565b91505092915050565b60006020828403121561428d5761428c61562e565b5b600061429b84828501613e0a565b91505092915050565b60006101c082840312156142bb576142ba61562e565b5b60006142c984828501613e1f565b91505092915050565b6000602082840312156142e8576142e761562e565b5b60006142f684828501613f6d565b91505092915050565b6000602082840312156143155761431461562e565b5b600061432384828501613f82565b91505092915050565b600080604083850312156143435761434261562e565b5b600061435185828601613f6d565b925050602061436285828601613d1f565b9150509250929050565b600080604083850312156143835761438261562e565b5b600061439185828601613f6d565b92505060206143a285828601613de0565b9150509250929050565b600080604083850312156143c3576143c261562e565b5b60006143d185828601613f6d565b92505060206143e285828601613f6d565b9150509250929050565b600080600080600060a086880312156144085761440761562e565b5b600061441688828901613f97565b955050602061442788828901613e0a565b945050604061443888828901613f82565b935050606061444988828901613f82565b925050608061445a88828901613f97565b9150509295509295909350565b600061447383836144a6565b60208301905092915050565b600061448b8383614a1d565b60208301905092915050565b6144a081615325565b82525050565b6144af81615254565b82525050565b6144be81615254565b82525050565b60006144cf82614f9e565b6144d98185614fd9565b93506144e483614f7e565b8060005b838110156145155781516144fc8882614467565b975061450783614fbf565b9250506001810190506144e8565b5085935050505092915050565b600061452d82614fa9565b6145378185614fea565b935061454283614f8e565b8060005b8381101561457357815161455a888261447f565b975061456583614fcc565b925050600181019050614546565b5085935050505092915050565b61458981615266565b82525050565b61459881615272565b82525050565b6145a781615337565b82525050565b6145b681615349565b82525050565b6145c5816152ce565b82525050565b60006145d682614fb4565b6145e08185614ffb565b93506145f081856020860161537f565b6145f981615633565b840191505092915050565b600061460f82614fb4565b614619818561500c565b935061462981856020860161537f565b80840191505092915050565b6000614642602283614ffb565b915061464d82615644565b604082019050919050565b6000614665602083614ffb565b915061467082615693565b602082019050919050565b6000614688602383614ffb565b9150614693826156bc565b604082019050919050565b60006146ab602283614ffb565b91506146b68261570b565b604082019050919050565b60006146ce602283614ffb565b91506146d98261575a565b604082019050919050565b60006146f1602683614ffb565b91506146fc826157a9565b604082019050919050565b6000614714601283614ffb565b915061471f826157f8565b602082019050919050565b6000614737602883614ffb565b915061474282615821565b604082019050919050565b600061475a601383614ffb565b915061476582615870565b602082019050919050565b600061477d602183614ffb565b915061478882615899565b604082019050919050565b60006147a0602583614ffb565b91506147ab826158e8565b604082019050919050565b60006147c3601f83614ffb565b91506147ce82615937565b602082019050919050565b60006147e6601083614ffb565b91506147f182615960565b602082019050919050565b6000614809602483614ffb565b915061481482615989565b604082019050919050565b600061482c60178361500c565b9150614837826159d8565b601782019050919050565b600061484f602583614ffb565b915061485a82615a01565b604082019050919050565b600061487260118361500c565b915061487d82615a50565b601182019050919050565b6000614895602f83614ffb565b91506148a082615a79565b604082019050919050565b60006148b8601f83614ffb565b91506148c382615ac8565b602082019050919050565b6101c0820160008201516148e560008501826145ad565b5060208201516148f860208501826144a6565b50604082015161490b604085018261459e565b50606082015161491e6060850182614a1d565b5060808201516149316080850182614a1d565b5060a082015161494460a0850182614a1d565b5060c082015161495760c0850182614a1d565b5060e082015161496a60e0850182614a1d565b5061010082015161497f610100850182614a1d565b50610120820151614994610120850182614a1d565b506101408201516149a9610140850182614a1d565b506101608201516149be610160850182614a1d565b506101808201516149d3610180850182614a1d565b506101a08201516149e86101a0850182614a1d565b50505050565b604082016000820151614a046000850182614a1d565b506020820151614a176020850182614a1d565b50505050565b614a26816152f8565b82525050565b614a35816152f8565b82525050565b614a4481615302565b82525050565b6000614a558261481f565b9150614a618285614604565b9150614a6c82614865565b9150614a788284614604565b91508190509392505050565b6000602082019050614a9960008301846144b5565b92915050565b6000602082019050614ab46000830184614497565b92915050565b6000606082019050614acf60008301866144b5565b614adc6020830185614497565b614ae96040830184614a2c565b949350505050565b6000604082019050614b0660008301856144b5565b614b136020830184614a2c565b9392505050565b6000606082019050614b2f60008301866144b5565b614b3c6020830185614a2c565b614b496040830184614a2c565b949350505050565b60006020820190508181036000830152614b6b8184614522565b905092915050565b6000602082019050614b886000830184614580565b92915050565b6000602082019050614ba3600083018461458f565b92915050565b6000602082019050614bbe60008301846145bc565b92915050565b60006020820190508181036000830152614bde81846145cb565b905092915050565b60006020820190508181036000830152614bff81614635565b9050919050565b60006020820190508181036000830152614c1f81614658565b9050919050565b60006020820190508181036000830152614c3f8161467b565b9050919050565b60006020820190508181036000830152614c5f8161469e565b9050919050565b60006020820190508181036000830152614c7f816146c1565b9050919050565b60006020820190508181036000830152614c9f816146e4565b9050919050565b60006020820190508181036000830152614cbf81614707565b9050919050565b60006020820190508181036000830152614cdf8161472a565b9050919050565b60006020820190508181036000830152614cff8161474d565b9050919050565b60006020820190508181036000830152614d1f81614770565b9050919050565b60006020820190508181036000830152614d3f81614793565b9050919050565b60006020820190508181036000830152614d5f816147b6565b9050919050565b60006020820190508181036000830152614d7f816147d9565b9050919050565b60006020820190508181036000830152614d9f816147fc565b9050919050565b60006020820190508181036000830152614dbf81614842565b9050919050565b60006020820190508181036000830152614ddf81614888565b9050919050565b60006020820190508181036000830152614dff816148ab565b9050919050565b60006101c082019050614e1c60008301846148ce565b92915050565b6000604082019050614e3760008301846149ee565b92915050565b6000602082019050614e526000830184614a2c565b92915050565b6000604082019050614e6d6000830185614a2c565b614e7a6020830184614a2c565b9392505050565b600060a082019050614e966000830188614a2c565b614ea36020830187614a2c565b8181036040830152614eb581866144c4565b9050614ec46060830185614497565b614ed16080830184614a2c565b9695505050505050565b6000606082019050614ef06000830186614a2c565b614efd6020830185614a2c565b614f0a6040830184614a2c565b949350505050565b6000602082019050614f276000830184614a3b565b92915050565b6000614f37614f48565b9050614f43828261540e565b919050565b6000604051905090565b600067ffffffffffffffff821115614f6d57614f6c6155eb565b5b602082029050602081019050919050565b6000819050602082019050919050565b6000819050602082019050919050565b600081519050919050565b600081519050919050565b600081519050919050565b6000602082019050919050565b6000602082019050919050565b600082825260208201905092915050565b600082825260208201905092915050565b600082825260208201905092915050565b600081905092915050565b6000615022826152ce565b915061502d836152ce565b9250817f7fffffffffffffffffffffffffffffffffffffffffffffffffffffffffffffff03831360008312151615615068576150676154d1565b5b817f80000000000000000000000000000000000000000000000000000000000000000383126000831216156150a05761509f6154d1565b5b828201905092915050565b60006150b6826152f8565b91506150c1836152f8565b9250827fffffffffffffffffffffffffffffffffffffffffffffffffffffffffffffffff038211156150f6576150f56154d1565b5b828201905092915050565b600061510c826152f8565b9150615117836152f8565b92508261512757615126615500565b5b828204905092915050565b600061513d826152f8565b9150615148836152f8565b9250817fffffffffffffffffffffffffffffffffffffffffffffffffffffffffffffffff0483118215151615615181576151806154d1565b5b828202905092915050565b6000615197826152ce565b91506151a2836152ce565b9250827f8000000000000000000000000000000000000000000000000000000000000000018212600084121516156151dd576151dc6154d1565b5b827f7fffffffffffffffffffffffffffffffffffffffffffffffffffffffffffffff018213600084121615615215576152146154d1565b5b828203905092915050565b600061522b826152f8565b9150615236836152f8565b925082821015615249576152486154d1565b5b828203905092915050565b600061525f826152d8565b9050919050565b60008115159050919050565b6000819050919050565b60007fffffffff0000000000000000000000000000000000000000000000000000000082169050919050565b60008190506152b682615af1565b919050565b60008190506152c982615b05565b919050565b6000819050919050565b600073ffffffffffffffffffffffffffffffffffffffff82169050919050565b6000819050919050565b600060ff82169050919050565b600069ffffffffffffffffffff82169050919050565b60006153308261535b565b9050919050565b6000615342826152a8565b9050919050565b6000615354826152bb565b9050919050565b60006153668261536d565b9050919050565b6000615378826152d8565b9050919050565b60005b8381101561539d578082015181840152602081019050615382565b838111156153ac576000848401525b50505050565b60006153bd826152f8565b915060008214156153d1576153d06154d1565b5b600182039050919050565b600060028204905060018216806153f457607f821691505b602082108114156154085761540761555e565b5b50919050565b61541782615633565b810181811067ffffffffffffffff82111715615436576154356155eb565b5b80604052505050565b600061544a826152f8565b91507fffffffffffffffffffffffffffffffffffffffffffffffffffffffffffffffff82141561547d5761547c6154d1565b5b600182019050919050565b6000615493826152ce565b91507f80000000000000000000000000000000000000000000000000000000000000008214156154c6576154c56154d1565b5b816000039050919050565b7f4e487b7100000000000000000000000000000000000000000000000000000000600052601160045260246000fd5b7f4e487b7100000000000000000000000000000000000000000000000000000000600052601260045260246000fd5b7f4e487b7100000000000000000000000000000000000000000000000000000000600052602160045260246000fd5b7f4e487b7100000000000000000000000000000000000000000000000000000000600052602260045260246000fd5b7f4e487b7100000000000000000000000000000000000000000000000000000000600052603160045260246000fd5b7f4e487b7100000000000000000000000000000000000000000000000000000000600052603260045260246000fd5b7f4e487b7100000000000000000000000000000000000000000000000000000000600052604160045260246000fd5b600080fd5b600080fd5b600080fd5b600080fd5b600080fd5b6000601f19601f8301169050919050565b7f456e756d657261626c655365743a20696e646578206f7574206f6620626f756e60008201527f6473000000000000000000000000000000000000000000000000000000000000602082015250565b7f537472696e67733a20686578206c656e67746820696e73756666696369656e74600082015250565b7f45524332303a207472616e7366657220746f20746865207a65726f206164647260008201527f6573730000000000000000000000000000000000000000000000000000000000602082015250565b7f45524332303a206275726e20616d6f756e7420657863656564732062616c616e60008201527f6365000000000000000000000000000000000000000000000000000000000000602082015250565b7f45524332303a20617070726f766520746f20746865207a65726f20616464726560008201527f7373000000000000000000000000000000000000000000000000000000000000602082015250565b7f45524332303a207472616e7366657220616d6f756e742065786365656473206260008201527f616c616e63650000000000000000000000000000000000000000000000000000602082015250565b7f5769746864726177616c206661696c65642e0000000000000000000000000000600082015250565b7f45524332303a207472616e7366657220616d6f756e742065786365656473206160008201527f6c6c6f77616e6365000000000000000000000000000000000000000000000000602082015250565b7f5a65726f2047726f7373204361706974616c2e00000000000000000000000000600082015250565b7f45524332303a206275726e2066726f6d20746865207a65726f2061646472657360008201527f7300000000000000000000000000000000000000000000000000000000000000602082015250565b7f45524332303a207472616e736665722066726f6d20746865207a65726f20616460008201527f6472657373000000000000000000000000000000000000000000000000000000602082015250565b7f4d617820636f6c6c61746572616c69736174696f6e2062726561636865642e00600082015250565b7f5472616e73666572206661696c65642e00000000000000000000000000000000600082015250565b7f45524332303a20617070726f76652066726f6d20746865207a65726f2061646460008201527f7265737300000000000000000000000000000000000000000000000000000000602082015250565b7f416363657373436f6e74726f6c3a206163636f756e7420000000000000000000600082015250565b7f45524332303a2064656372656173656420616c6c6f77616e63652062656c6f7760008201527f207a65726f000000000000000000000000000000000000000000000000000000602082015250565b7f206973206d697373696e6720726f6c6520000000000000000000000000000000600082015250565b7f416363657373436f6e74726f6c3a2063616e206f6e6c792072656e6f756e636560008201527f20726f6c657320666f722073656c660000000000000000000000000000000000602082015250565b7f45524332303a206d696e7420746f20746865207a65726f206164647265737300600082015250565b60048110615b0257615b0161552f565b5b50565b60028110615b1657615b1561552f565b5b50565b615b2281615254565b8114615b2d57600080fd5b50565b615b3981615266565b8114615b4457600080fd5b50565b615b5081615272565b8114615b5b57600080fd5b50565b615b678161527c565b8114615b7257600080fd5b50565b60048110615b8257600080fd5b50565b60028110615b9257600080fd5b50565b615b9e816152ce565b8114615ba957600080fd5b50565b615bb5816152f8565b8114615bc057600080fd5b50565b615bcc8161530f565b8114615bd757600080fd5b5056fea26469706673582212201a7414948e379e4d3fb4a80412ef5b7bfa923a68353a35805849f5c98c71b89364736f6c63430008060033",
  "immutableReferences": {},
  "source": "/**\n * SPDX-License-Identifier: GPL-3.0-or-later\n * Moret\n * Copyright (C) 2021 Moret\n*/\n\npragma solidity ^0.8.4;\n\nimport \"@openzeppelin/contracts/token/ERC20/ERC20.sol\";\nimport \"@openzeppelin/contracts/access/AccessControl.sol\";\nimport \"@openzeppelin/contracts/utils/structs/EnumerableSet.sol\";\nimport '@uniswap/v2-periphery/contracts/interfaces/IUniswapV2Router02.sol';\nimport \"@chainlink/contracts/src/v0.8/interfaces/AggregatorV3Interface.sol\";\nimport \"./MoretInterfaces.sol\";\nimport \"./FullMath.sol\";\n\ncontract MoretMarketMaker is ERC20, AccessControl, EOption\n{\n  using EnumerableSet for EnumerableSet.UintSet;\n  using EnumerableSet for EnumerableSet.AddressSet;\n\n  address payable contractAddress;\n  bytes32 public constant ADMIN_ROLE = keccak256(\"ADMIN_ROLE\");\n  uint256 private constant ethMultiplier = 10 ** 18;\n\n  mapping(address=> EnumerableSet.UintSet) internal activeOptionsPerOwner;\n  EnumerableSet.UintSet internal activeOptions;\n  EnumerableSet.AddressSet holderList;\n\n  IUniswapV2Router02 internal uniswapRouter;\n  AggregatorV3Interface internal priceInterface;\n  ERC20 internal underlyingToken;\n\n  IOptionVault internal optionVault;\n\n  uint256 public lockedPremium = 0;\n  uint256 public callExposure = 0;\n  uint256 public putExposure = 0;\n  int256 public hedgePositionAmount = 0;\n\n  uint256 public priceMultiplier;\n  uint256 public priceDecimals;\n\n  OptionLibrary.Percent public maxCollateralisation = OptionLibrary.Percent(10 * 10 ** 5, 10 ** 6);\n  OptionLibrary.Percent public volPremiumMultiplier = OptionLibrary.Percent(10 ** 5 , 10 ** 6) ;\n  OptionLibrary.Percent public volPremiumPenalty = OptionLibrary.Percent(5 * 10 ** 5, 10 ** 6) ;\n  OptionLibrary.Percent public swapSlippageAllowance = OptionLibrary.Percent (2 * 10**4, 10**6);\n\n  /* address internal constant UNISWAP_ROUTER_ADDRESS = 0xa5E0829CaCEd8fFDD4De3c43696c57F7D7A678ff;\n  address internal constant FUNDING_ADDRESS = 0x4DfAe612aaCB5b448C12A591cD0879bFa2e51d62; */\n  address public underlyingAddress;\n  address public fundingAddress;\n\n  constructor(\n      string memory _name,\n      string memory _symbol,\n      address _underlyingAddress,\n      address _fundingAddress,\n      address _optionAddress,\n      address _swapRouterAddress,\n      address _priceSourceId\n      )\n      ERC20(_name, _symbol)\n      {\n          _setupRole(DEFAULT_ADMIN_ROLE, msg.sender);\n          _setupRole(ADMIN_ROLE, msg.sender);\n\n          priceInterface = AggregatorV3Interface(_priceSourceId);\n          uniswapRouter = IUniswapV2Router02(_swapRouterAddress);\n\n          fundingAddress = _fundingAddress;\n          underlyingAddress = _underlyingAddress;\n          underlyingToken = ERC20(underlyingAddress);\n\n          contractAddress = payable(address(this));\n          optionVault = IOptionVault(_optionAddress);\n\n          priceDecimals = priceInterface.decimals();\n          priceMultiplier = 10 ** priceDecimals;\n\n          _mint(msg.sender, ethMultiplier);\n      }\n\n\n      function recordOptionPurhcase(address _purchaser, uint256 _id,\n        uint256 _newPremium, uint256 _newCallExposure, uint256 _newPutExposure)\n        external\n      {\n        if(!holderList.contains(_purchaser))\n        {\n            holderList.add(_purchaser);\n        }\n\n        activeOptionsPerOwner[_purchaser].add(_id);\n        activeOptions.add(_id);\n        lockedPremium += _newPremium;\n        callExposure += _newCallExposure;\n        putExposure += _newPutExposure;\n      }\n\n      function recordOptionRemoval(address _purchaser, uint256 _id,\n        uint256 _removePremium, uint256 _removeCallExposure, uint256 _removePutExposure)\n        external\n      {\n        activeOptionsPerOwner[_purchaser].remove(_id);\n        activeOptions.remove(_id);\n\n        lockedPremium -= _removePremium;\n        callExposure -= _removeCallExposure;\n        putExposure -= _removePutExposure;\n      }\n\n      function queryPrice() public view returns(uint256){\n        (,int _price,,,) = priceInterface.latestRoundData();\n       return uint256(_price);\n      }\n\n    function calcTotalDelta() public view returns(int256)\n    {\n      uint256 _totalContracts = activeOptions.length();\n      int256 _totalDelta= 0;\n\n      for(uint256 i=0;i<_totalContracts;i++)\n      {\n          uint256 _id = uint256(activeOptions.at(i));\n\n        _totalDelta += optionVault.calculateContractDelta(_id);\n      }\n      return _totalDelta;\n    }\n\n    function updateHedges(uint256 _deadline) external payable onlyRole(ADMIN_ROLE)\n    {\n        int256 _targetDelta = calcTotalDelta();\n        int256 _changesInDelta_m1_0 = 0;\n\n        if(_targetDelta<0){_changesInDelta_m1_0+= _targetDelta;}\n        if(hedgePositionAmount<0){_changesInDelta_m1_0-= hedgePositionAmount;}\n\n        int _swappedUnderlying = 0;\n\n        if(_changesInDelta_m1_0<0)\n        {\n            uint256 _newStable = uint256(-_changesInDelta_m1_0);\n            uint256[] memory _swappedAmounts = swapToStable(_newStable,  _deadline);\n            _swappedUnderlying -= int256(_swappedAmounts[0]);\n        }\n        if(_changesInDelta_m1_0>0)\n        {\n            uint256 _unwindStable = uint256(_changesInDelta_m1_0);\n            uint256[] memory _swappedAmounts = swapToUnderlying( _unwindStable,  _deadline);\n            _swappedUnderlying += int256(_swappedAmounts[1]);\n        }\n\n        hedgePositionAmount += _swappedUnderlying;\n    }\n\n    function swapToStable(uint256 _newStable, uint256 _deadline) public onlyRole(ADMIN_ROLE) returns(uint256[] memory _swappedAmounts)\n    {\n        uint256 _price = queryPrice();\n\n        uint256 _priceLimit = _price * (swapSlippageAllowance.denominator + swapSlippageAllowance.numerator)/ swapSlippageAllowance.denominator;\n        uint256 _amountInMaximum = (_newStable * priceMultiplier / _priceLimit );\n\n        address[] memory path = new address[](2);\n        path[1] = fundingAddress;\n        path[0] = underlyingAddress;\n\n          return uniswapRouter.swapTokensForExactTokens(\n            _newStable,\n            _amountInMaximum,\n            path,\n            contractAddress,\n            _deadline\n             );\n    }\n\n    function swapToUnderlying(uint256 _unwindStable, uint256 _deadline) public onlyRole(ADMIN_ROLE) returns(uint256[] memory _swappedAmounts)\n    {\n      uint256 _price = queryPrice();\n\n      uint256 _priceLimit = _price *(swapSlippageAllowance.denominator + swapSlippageAllowance.numerator)/ swapSlippageAllowance.denominator;\n      uint256 _amountOutMinimum = (_unwindStable * priceMultiplier / _priceLimit);\n\n      address[] memory path = new address[](2);\n      path[0] = fundingAddress;\n      path[1] = underlyingAddress;\n\n      return uniswapRouter.swapExactTokensForTokens(\n        _unwindStable,\n        _amountOutMinimum,\n        path,\n        contractAddress,\n        _deadline\n         );\n\n    }\n\n    function quoteCapitalCost(uint256 _mpAmount) external view returns(uint256){\n        return MulDiv(_mpAmount, calcCapital(false, true), ethMultiplier);\n    }\n\n    function addCapital(uint256 _depositAmount) external payable{\n        uint256 _averageGrossCapital = calcCapital(false, true);\n        require(_averageGrossCapital>0, \"Zero Gross Capital.\");\n\n        uint256 _mintMPTokenAmount = MulDiv(_depositAmount, ethMultiplier, _averageGrossCapital);\n\n        require(underlyingToken.transferFrom(msg.sender, contractAddress, _depositAmount), \"Transfer failed.\");\n\n        _mint(msg.sender, _mintMPTokenAmount);\n\n        emit capitalAdded(msg.sender, _depositAmount, _mintMPTokenAmount);\n    }\n\n\n    function withdrawCapital(uint256 _burnMPTokenAmount) external {\n        uint256 _withdrawValue = MulDiv(calcCapital(true, true),  _burnMPTokenAmount , ethMultiplier);\n\n        _burn(msg.sender, _burnMPTokenAmount);\n\n        require(underlyingToken.transfer(msg.sender, _withdrawValue), \"Withdrawal failed.\");\n\n        emit capitalWithdrawn(msg.sender, _burnMPTokenAmount, _withdrawValue);\n    }\n\n    function calcCapital(bool _net, bool _average) public view returns(uint256){\n        uint256 _price = queryPrice();\n        uint256 _capital = ERC20(fundingAddress).balanceOf(contractAddress) * priceMultiplier / _price;\n\n        _capital += underlyingToken.balanceOf(contractAddress);\n\n        if(_net)\n        {\n          _capital -= (_capital <= (callExposure+ putExposure)? _capital: (callExposure+ putExposure));\n          _capital -= (_capital <= lockedPremium? _capital: lockedPremium)  ;\n        }\n\n        if(_average)\n        {\n          _capital = _capital * ethMultiplier / totalSupply();\n        }\n        return _capital;\n    }\n\n    function calcUtilityRatios(uint256 _amount, OptionLibrary.PayoffType  _poType) public view returns(uint256, uint256, uint256){\n        uint256 _grossCapital = calcCapital(false, false);\n        uint256 _existingExposure = callExposure>= putExposure? callExposure: putExposure;\n        uint256 _newExposure = _existingExposure;\n\n        if(_poType==OptionLibrary.PayoffType.Call){\n          _newExposure = (callExposure + _amount) >= putExposure? (callExposure + _amount): putExposure;\n        }\n        if(_poType==OptionLibrary.PayoffType.Put){\n          _newExposure = (callExposure) >= (putExposure + _amount)? (callExposure): (putExposure + _amount);\n        }\n\n        return ((_existingExposure * maxCollateralisation.denominator / _grossCapital ),\n          (_newExposure * maxCollateralisation.denominator/ _grossCapital ),\n          maxCollateralisation.denominator);\n    }\n\n    function calcUtilityAddon(uint256 _amount, OptionLibrary.PayoffType  _poType) external view returns(OptionLibrary.Percent memory){\n        (uint256 _utilityBefore, uint256 _utilityAfter, uint256 _denominator) = calcUtilityRatios(_amount, _poType);\n        require(_utilityBefore < maxCollateralisation.numerator, \"Max collateralisation breached.\");\n        require(_utilityAfter < maxCollateralisation.numerator, \"Max collateralisation breached.\");\n\n        uint256 _addonBefore = volPremiumMultiplier.numerator * _utilityBefore / volPremiumMultiplier.denominator;\n        if(_utilityBefore> _denominator)\n        {\n            _addonBefore += volPremiumPenalty.numerator *( _utilityBefore - _denominator)/ volPremiumPenalty.denominator;\n        }\n\n        uint256 _addonAfter = (volPremiumMultiplier.numerator * _utilityAfter/ volPremiumPenalty.denominator);\n        if(_utilityAfter> _denominator)\n        {\n            _addonAfter += (volPremiumPenalty.numerator* ( _utilityAfter - _denominator) / volPremiumPenalty.denominator);\n        }\n\n        return OptionLibrary.Percent((_addonBefore + _addonAfter) / 2, _denominator);\n    }\n\n    function sweepBalance() external onlyRole(ADMIN_ROLE){\n        require(underlyingToken.transfer(msg.sender, underlyingToken.balanceOf(contractAddress)), \"Withdrawal failed.\");\n\n    }\n\n    function resetMaxCollateralisation(uint256 _multiplier, uint256 _denominator) external onlyRole(ADMIN_ROLE){\n        maxCollateralisation = OptionLibrary.Percent(_multiplier, _denominator);\n    }\n\n    function resetVolPremiumMultiplier(uint256 _multiplier, uint256 _denominator) external onlyRole(ADMIN_ROLE){\n        volPremiumMultiplier = OptionLibrary.Percent(_multiplier, _denominator);\n    }\n\n    function resetVolPremiumPenalty(uint256 _multiplier, uint256 _denominator) external onlyRole(ADMIN_ROLE){\n        volPremiumPenalty = OptionLibrary.Percent(_multiplier, _denominator);\n    }\n\n    function resetSwapSlippageAllowance(uint256 _multiplier, uint256 _denominator) external onlyRole(ADMIN_ROLE){\n        swapSlippageAllowance = OptionLibrary.Percent(_multiplier, _denominator);\n    }\n\n    /* function getHolderCount() external view returns(uint256){return holderList.length();}\n    function getHolderAddress(uint256 _index) external view returns(address) {return holderList.at(_index);} */\n    function getHoldersOptionCount(address _address) external view returns(uint256){return activeOptionsPerOwner[_address].length();}\n    function getHoldersOption(uint256 _index, address _address) external view returns(OptionLibrary.Option memory) {return optionVault.getOption(activeOptionsPerOwner[_address].at(_index));}\n\n    receive() external payable{}\n\n}\n",
  "sourcePath": "/Users/mac/Documents/GitHub/moret/contracts/MoretMarketMaker.sol",
  "compiler": {
    "name": "solc",
    "version": "0.8.6+commit.11564f7e.Emscripten.clang"
  },
  "schemaVersion": "3.4.1",
  "updatedAt": "2021-07-02T23:42:32.108Z",
  "devdoc": {
    "kind": "dev",
    "methods": {
      "allowance(address,address)": {
        "details": "See {IERC20-allowance}."
      },
      "approve(address,uint256)": {
        "details": "See {IERC20-approve}. Requirements: - `spender` cannot be the zero address."
      },
      "balanceOf(address)": {
        "details": "See {IERC20-balanceOf}."
      },
      "decimals()": {
        "details": "Returns the number of decimals used to get its user representation. For example, if `decimals` equals `2`, a balance of `505` tokens should be displayed to a user as `5,05` (`505 / 10 ** 2`). Tokens usually opt for a value of 18, imitating the relationship between Ether and Wei. This is the value {ERC20} uses, unless this function is overridden; NOTE: This information is only used for _display_ purposes: it in no way affects any of the arithmetic of the contract, including {IERC20-balanceOf} and {IERC20-transfer}."
      },
      "decreaseAllowance(address,uint256)": {
        "details": "Atomically decreases the allowance granted to `spender` by the caller. This is an alternative to {approve} that can be used as a mitigation for problems described in {IERC20-approve}. Emits an {Approval} event indicating the updated allowance. Requirements: - `spender` cannot be the zero address. - `spender` must have allowance for the caller of at least `subtractedValue`."
      },
      "getRoleAdmin(bytes32)": {
        "details": "Returns the admin role that controls `role`. See {grantRole} and {revokeRole}. To change a role's admin, use {_setRoleAdmin}."
      },
      "grantRole(bytes32,address)": {
        "details": "Grants `role` to `account`. If `account` had not been already granted `role`, emits a {RoleGranted} event. Requirements: - the caller must have ``role``'s admin role."
      },
      "hasRole(bytes32,address)": {
        "details": "Returns `true` if `account` has been granted `role`."
      },
      "increaseAllowance(address,uint256)": {
        "details": "Atomically increases the allowance granted to `spender` by the caller. This is an alternative to {approve} that can be used as a mitigation for problems described in {IERC20-approve}. Emits an {Approval} event indicating the updated allowance. Requirements: - `spender` cannot be the zero address."
      },
      "name()": {
        "details": "Returns the name of the token."
      },
      "renounceRole(bytes32,address)": {
        "details": "Revokes `role` from the calling account. Roles are often managed via {grantRole} and {revokeRole}: this function's purpose is to provide a mechanism for accounts to lose their privileges if they are compromised (such as when a trusted device is misplaced). If the calling account had been granted `role`, emits a {RoleRevoked} event. Requirements: - the caller must be `account`."
      },
      "revokeRole(bytes32,address)": {
        "details": "Revokes `role` from `account`. If `account` had been granted `role`, emits a {RoleRevoked} event. Requirements: - the caller must have ``role``'s admin role."
      },
      "supportsInterface(bytes4)": {
        "details": "See {IERC165-supportsInterface}."
      },
      "symbol()": {
        "details": "Returns the symbol of the token, usually a shorter version of the name."
      },
      "totalSupply()": {
        "details": "See {IERC20-totalSupply}."
      },
      "transfer(address,uint256)": {
        "details": "See {IERC20-transfer}. Requirements: - `recipient` cannot be the zero address. - the caller must have a balance of at least `amount`."
      },
      "transferFrom(address,address,uint256)": {
        "details": "See {IERC20-transferFrom}. Emits an {Approval} event indicating the updated allowance. This is not required by the EIP. See the note at the beginning of {ERC20}. Requirements: - `sender` and `recipient` cannot be the zero address. - `sender` must have a balance of at least `amount`. - the caller must have allowance for ``sender``'s tokens of at least `amount`."
      }
    },
    "version": 1
  },
  "userdoc": {
    "kind": "user",
    "methods": {},
    "version": 1
  }
}