{
  "contractName": "MoretBroker",
  "abi": [
    {
      "inputs": [
        {
          "internalType": "contract ERC20",
          "name": "_funding",
          "type": "address"
        },
        {
          "internalType": "contract OptionVault",
          "name": "_vault",
          "type": "address"
        }
      ],
      "stateMutability": "nonpayable",
      "type": "constructor"
    },
    {
      "anonymous": false,
      "inputs": [
        {
          "indexed": false,
          "internalType": "address",
          "name": "_pool",
          "type": "address"
        },
        {
          "indexed": false,
          "internalType": "address",
          "name": "_sender",
          "type": "address"
        },
        {
          "indexed": false,
          "internalType": "uint256",
          "name": "_amount",
          "type": "uint256"
        },
        {
          "indexed": false,
          "internalType": "uint256",
          "name": "_moretAmount",
          "type": "uint256"
        }
      ],
      "name": "ExchangePoolTokens",
      "type": "event"
    },
    {
      "anonymous": false,
      "inputs": [
        {
          "indexed": true,
          "internalType": "bytes32",
          "name": "role",
          "type": "bytes32"
        },
        {
          "indexed": true,
          "internalType": "bytes32",
          "name": "previousAdminRole",
          "type": "bytes32"
        },
        {
          "indexed": true,
          "internalType": "bytes32",
          "name": "newAdminRole",
          "type": "bytes32"
        }
      ],
      "name": "RoleAdminChanged",
      "type": "event"
    },
    {
      "anonymous": false,
      "inputs": [
        {
          "indexed": true,
          "internalType": "bytes32",
          "name": "role",
          "type": "bytes32"
        },
        {
          "indexed": true,
          "internalType": "address",
          "name": "account",
          "type": "address"
        },
        {
          "indexed": true,
          "internalType": "address",
          "name": "sender",
          "type": "address"
        }
      ],
      "name": "RoleGranted",
      "type": "event"
    },
    {
      "anonymous": false,
      "inputs": [
        {
          "indexed": true,
          "internalType": "bytes32",
          "name": "role",
          "type": "bytes32"
        },
        {
          "indexed": true,
          "internalType": "address",
          "name": "account",
          "type": "address"
        },
        {
          "indexed": true,
          "internalType": "address",
          "name": "sender",
          "type": "address"
        }
      ],
      "name": "RoleRevoked",
      "type": "event"
    },
    {
      "anonymous": false,
      "inputs": [
        {
          "indexed": false,
          "internalType": "uint256",
          "name": "_fee",
          "type": "uint256"
        }
      ],
      "name": "UpdateProtocolFees",
      "type": "event"
    },
    {
      "anonymous": false,
      "inputs": [
        {
          "indexed": false,
          "internalType": "address",
          "name": "_route",
          "type": "address"
        },
        {
          "indexed": false,
          "internalType": "bool",
          "name": "_addition",
          "type": "bool"
        }
      ],
      "name": "UpdateRoute",
      "type": "event"
    },
    {
      "anonymous": false,
      "inputs": [
        {
          "indexed": false,
          "internalType": "address",
          "name": "_pool",
          "type": "address"
        },
        {
          "indexed": false,
          "internalType": "uint256",
          "name": "_amount",
          "type": "uint256"
        }
      ],
      "name": "WithdrawPoolTokens",
      "type": "event"
    },
    {
      "inputs": [],
      "name": "DEFAULT_ADMIN_ROLE",
      "outputs": [
        {
          "internalType": "bytes32",
          "name": "",
          "type": "bytes32"
        }
      ],
      "stateMutability": "view",
      "type": "function"
    },
    {
      "inputs": [],
      "name": "funding",
      "outputs": [
        {
          "internalType": "contract ERC20",
          "name": "",
          "type": "address"
        }
      ],
      "stateMutability": "view",
      "type": "function"
    },
    {
      "inputs": [
        {
          "internalType": "bytes32",
          "name": "role",
          "type": "bytes32"
        }
      ],
      "name": "getRoleAdmin",
      "outputs": [
        {
          "internalType": "bytes32",
          "name": "",
          "type": "bytes32"
        }
      ],
      "stateMutability": "view",
      "type": "function"
    },
    {
      "inputs": [
        {
          "internalType": "bytes32",
          "name": "role",
          "type": "bytes32"
        },
        {
          "internalType": "address",
          "name": "account",
          "type": "address"
        }
      ],
      "name": "grantRole",
      "outputs": [],
      "stateMutability": "nonpayable",
      "type": "function"
    },
    {
      "inputs": [
        {
          "internalType": "bytes32",
          "name": "role",
          "type": "bytes32"
        },
        {
          "internalType": "address",
          "name": "account",
          "type": "address"
        }
      ],
      "name": "hasRole",
      "outputs": [
        {
          "internalType": "bool",
          "name": "",
          "type": "bool"
        }
      ],
      "stateMutability": "view",
      "type": "function"
    },
    {
      "inputs": [],
      "name": "minCapital",
      "outputs": [
        {
          "internalType": "uint256",
          "name": "",
          "type": "uint256"
        }
      ],
      "stateMutability": "view",
      "type": "function"
    },
    {
      "inputs": [],
      "name": "poolCapital",
      "outputs": [
        {
          "internalType": "uint256",
          "name": "",
          "type": "uint256"
        }
      ],
      "stateMutability": "view",
      "type": "function"
    },
    {
      "inputs": [
        {
          "internalType": "bytes32",
          "name": "role",
          "type": "bytes32"
        },
        {
          "internalType": "address",
          "name": "account",
          "type": "address"
        }
      ],
      "name": "renounceRole",
      "outputs": [],
      "stateMutability": "nonpayable",
      "type": "function"
    },
    {
      "inputs": [
        {
          "internalType": "bytes32",
          "name": "role",
          "type": "bytes32"
        },
        {
          "internalType": "address",
          "name": "account",
          "type": "address"
        }
      ],
      "name": "revokeRole",
      "outputs": [],
      "stateMutability": "nonpayable",
      "type": "function"
    },
    {
      "inputs": [
        {
          "internalType": "bytes4",
          "name": "interfaceId",
          "type": "bytes4"
        }
      ],
      "name": "supportsInterface",
      "outputs": [
        {
          "internalType": "bool",
          "name": "",
          "type": "bool"
        }
      ],
      "stateMutability": "view",
      "type": "function"
    },
    {
      "inputs": [],
      "name": "vault",
      "outputs": [
        {
          "internalType": "contract OptionVault",
          "name": "",
          "type": "address"
        }
      ],
      "stateMutability": "view",
      "type": "function"
    },
    {
      "inputs": [
        {
          "internalType": "contract Pool",
          "name": "_pool",
          "type": "address"
        },
        {
          "internalType": "uint256",
          "name": "_payInAmount",
          "type": "uint256"
        }
      ],
      "name": "exchangePoolForMoret",
      "outputs": [],
      "stateMutability": "nonpayable",
      "type": "function"
    },
    {
      "inputs": [
        {
          "internalType": "contract Pool",
          "name": "_pool",
          "type": "address"
        }
      ],
      "name": "addPool",
      "outputs": [],
      "stateMutability": "nonpayable",
      "type": "function"
    },
    {
      "inputs": [
        {
          "internalType": "address",
          "name": "_underlyingAddress",
          "type": "address"
        }
      ],
      "name": "getAllPools",
      "outputs": [
        {
          "internalType": "address[]",
          "name": "",
          "type": "address[]"
        }
      ],
      "stateMutability": "view",
      "type": "function"
    },
    {
      "inputs": [
        {
          "internalType": "address",
          "name": "_underlyingAddress",
          "type": "address"
        }
      ],
      "name": "getPoolsCount",
      "outputs": [
        {
          "internalType": "uint256",
          "name": "",
          "type": "uint256"
        }
      ],
      "stateMutability": "view",
      "type": "function"
    }
  ],
  "bytecode": "0x608060405260006004553480156200001657600080fd5b5060405162002aad38038062002aad83398181016040528101906200003c919062000241565b81600560006101000a81548173ffffffffffffffffffffffffffffffffffffffff021916908373ffffffffffffffffffffffffffffffffffffffff16021790555080600660006101000a81548173ffffffffffffffffffffffffffffffffffffffff021916908373ffffffffffffffffffffffffffffffffffffffff160217905550600560009054906101000a900473ffffffffffffffffffffffffffffffffffffffff1673ffffffffffffffffffffffffffffffffffffffff1663313ce5676040518163ffffffff1660e01b8152600401602060405180830381865afa1580156200012c573d6000803e3d6000fd5b505050506040513d601f19601f82011682018060405250810190620001529190620002c6565b600a62000160919062000485565b620f4240620001709190620004d6565b600381905550505062000537565b600080fd5b600073ffffffffffffffffffffffffffffffffffffffff82169050919050565b6000620001b08262000183565b9050919050565b6000620001c482620001a3565b9050919050565b620001d681620001b7565b8114620001e257600080fd5b50565b600081519050620001f681620001cb565b92915050565b60006200020982620001a3565b9050919050565b6200021b81620001fc565b81146200022757600080fd5b50565b6000815190506200023b8162000210565b92915050565b600080604083850312156200025b576200025a6200017e565b5b60006200026b85828601620001e5565b92505060206200027e858286016200022a565b9150509250929050565b600060ff82169050919050565b620002a08162000288565b8114620002ac57600080fd5b50565b600081519050620002c08162000295565b92915050565b600060208284031215620002df57620002de6200017e565b5b6000620002ef84828501620002af565b91505092915050565b7f4e487b7100000000000000000000000000000000000000000000000000000000600052601160045260246000fd5b60008160011c9050919050565b6000808291508390505b600185111562000386578086048111156200035e576200035d620002f8565b5b60018516156200036e5780820291505b80810290506200037e8562000327565b94506200033e565b94509492505050565b600082620003a1576001905062000474565b81620003b1576000905062000474565b8160018114620003ca5760028114620003d5576200040b565b600191505062000474565b60ff841115620003ea57620003e9620002f8565b5b8360020a915084821115620004045762000403620002f8565b5b5062000474565b5060208310610133831016604e8410600b8410161715620004455782820a9050838111156200043f576200043e620002f8565b5b62000474565b62000454848484600162000334565b925090508184048111156200046e576200046d620002f8565b5b81810290505b9392505050565b6000819050919050565b600062000492826200047b565b91506200049f8362000288565b9250620004ce7fffffffffffffffffffffffffffffffffffffffffffffffffffffffffffffffff84846200038f565b905092915050565b6000620004e3826200047b565b9150620004f0836200047b565b9250817fffffffffffffffffffffffffffffffffffffffffffffffffffffffffffffffff04831182151516156200052c576200052b620002f8565b5b828202905092915050565b61256680620005476000396000f3fe608060405234801561001057600080fd5b50600436106100f55760003560e01c8063a217fddf11610097578063d547741f11610066578063d547741f1461029a578063d9038027146102b6578063d914cd4b146102d2578063fbfa77cf146102ee576100f5565b8063a217fddf14610222578063aa61dcd314610240578063caa8c3821461025e578063cb4c86b71461027c576100f5565b8063345954dc116100d3578063345954dc1461017657806336568abe146101a65780635a6f5710146101c257806391d14854146101f2576100f5565b806301ffc9a7146100fa578063248a9ca31461012a5780632f2ff15d1461015a575b600080fd5b610114600480360381019061010f9190611844565b61030c565b604051610121919061188c565b60405180910390f35b610144600480360381019061013f91906118dd565b610386565b6040516101519190611919565b60405180910390f35b610174600480360381019061016f9190611992565b6103a5565b005b610190600480360381019061018b91906119d2565b6103ce565b60405161019d9190611abd565b60405180910390f35b6101c060048036038101906101bb9190611992565b61041e565b005b6101dc60048036038101906101d791906119d2565b6104a1565b6040516101e99190611af8565b60405180910390f35b61020c60048036038101906102079190611992565b6104f1565b604051610219919061188c565b60405180910390f35b61022a61055b565b6040516102379190611919565b60405180910390f35b610248610562565b6040516102559190611af8565b60405180910390f35b610266610568565b6040516102739190611af8565b60405180910390f35b61028461056e565b6040516102919190611b72565b60405180910390f35b6102b460048036038101906102af9190611992565b610594565b005b6102d060048036038101906102cb9190611bf7565b6105bd565b005b6102ec60048036038101906102e79190611c37565b610b41565b005b6102f6610c72565b6040516103039190611c85565b60405180910390f35b60007f7965db0b000000000000000000000000000000000000000000000000000000007bffffffffffffffffffffffffffffffffffffffffffffffffffffffff1916827bffffffffffffffffffffffffffffffffffffffffffffffffffffffff1916148061037f575061037e82610c98565b5b9050919050565b6000806000838152602001908152602001600020600101549050919050565b6103ae82610386565b6103bf816103ba610d02565b610d0a565b6103c98383610da7565b505050565b6060610417600260008473ffffffffffffffffffffffffffffffffffffffff1673ffffffffffffffffffffffffffffffffffffffff168152602001908152602001600020610e87565b9050919050565b610426610d02565b73ffffffffffffffffffffffffffffffffffffffff168173ffffffffffffffffffffffffffffffffffffffff1614610493576040517f08c379a000000000000000000000000000000000000000000000000000000000815260040161048a90611d23565b60405180910390fd5b61049d8282610ea8565b5050565b60006104ea600260008473ffffffffffffffffffffffffffffffffffffffff1673ffffffffffffffffffffffffffffffffffffffff168152602001908152602001600020610f89565b9050919050565b600080600084815260200190815260200160002060000160008373ffffffffffffffffffffffffffffffffffffffff1673ffffffffffffffffffffffffffffffffffffffff16815260200190815260200160002060009054906101000a900460ff16905092915050565b6000801b81565b60045481565b60035481565b600560009054906101000a900473ffffffffffffffffffffffffffffffffffffffff1681565b61059d82610386565b6105ae816105a9610d02565b610d0a565b6105b88383610ea8565b505050565b60008273ffffffffffffffffffffffffffffffffffffffff16631f21f9af6040518163ffffffff1660e01b8152600401602060405180830381865afa15801561060a573d6000803e3d6000fd5b505050506040513d601f19601f8201168201806040525081019061062e9190611d81565b73ffffffffffffffffffffffffffffffffffffffff166305268cff6040518163ffffffff1660e01b8152600401602060405180830381865afa158015610678573d6000803e3d6000fd5b505050506040513d601f19601f8201168201806040525081019061069c9190611dec565b90508073ffffffffffffffffffffffffffffffffffffffff166315dc2e9d8473ffffffffffffffffffffffffffffffffffffffff16631f21f9af6040518163ffffffff1660e01b8152600401602060405180830381865afa158015610705573d6000803e3d6000fd5b505050506040513d601f19601f820116820180604052508101906107299190611d81565b73ffffffffffffffffffffffffffffffffffffffff16636f307dc36040518163ffffffff1660e01b8152600401602060405180830381865afa158015610773573d6000803e3d6000fd5b505050506040513d601f19601f820116820180604052508101906107979190611e2e565b6040518263ffffffff1660e01b81526004016107b39190611e6a565b602060405180830381865afa1580156107d0573d6000803e3d6000fd5b505050506040513d601f19601f820116820180604052508101906107f49190611ec3565b50600061080084610f9e565b90506000610812600354600454611461565b905060008473__MathLib_______________________________63b3947c179091858973ffffffffffffffffffffffffffffffffffffffff166318160ddd6040518163ffffffff1660e01b8152600401602060405180830381865afa15801561087f573d6000803e3d6000fd5b505050506040513d601f19601f820116820180604052508101906108a39190611f05565b6040518463ffffffff1660e01b81526004016108c193929190611f41565b602060405180830381865af41580156108de573d6000803e3d6000fd5b505050506040513d601f19601f820116820180604052508101906109029190611f05565b905060008173__MathLib_______________________________63b3947c1790918773ffffffffffffffffffffffffffffffffffffffff166318160ddd6040518163ffffffff1660e01b8152600401602060405180830381865afa15801561096e573d6000803e3d6000fd5b505050506040513d601f19601f820116820180604052508101906109929190611f05565b866040518463ffffffff1660e01b81526004016109b193929190611f41565b602060405180830381865af41580156109ce573d6000803e3d6000fd5b505050506040513d601f19601f820116820180604052508101906109f29190611f05565b90508673ffffffffffffffffffffffffffffffffffffffff166323b872dd3387896040518463ffffffff1660e01b8152600401610a3193929190611f78565b6020604051808303816000875af1158015610a50573d6000803e3d6000fd5b505050506040513d601f19601f82011682018060405250810190610a749190611fdb565b508160046000828254610a879190612037565b925050819055508473ffffffffffffffffffffffffffffffffffffffff166340c10f1933836040518363ffffffff1660e01b8152600401610ac992919061208d565b600060405180830381600087803b158015610ae357600080fd5b505af1158015610af7573d6000803e3d6000fd5b505050507f4877c2e401ca94d9fe3d52bf4c0904a11f6a4bcbf76b8ec5a1684f396859e0c487338884604051610b3094939291906120b6565b60405180910390a150505050505050565b610c6e81600260008473ffffffffffffffffffffffffffffffffffffffff16631f21f9af6040518163ffffffff1660e01b8152600401602060405180830381865afa158015610b94573d6000803e3d6000fd5b505050506040513d601f19601f82011682018060405250810190610bb89190611d81565b73ffffffffffffffffffffffffffffffffffffffff16636f307dc36040518163ffffffff1660e01b8152600401602060405180830381865afa158015610c02573d6000803e3d6000fd5b505050506040513d601f19601f82011682018060405250810190610c269190611e2e565b73ffffffffffffffffffffffffffffffffffffffff1673ffffffffffffffffffffffffffffffffffffffff16815260200190815260200160002061147b90919063ffffffff16565b5050565b600660009054906101000a900473ffffffffffffffffffffffffffffffffffffffff1681565b60007f01ffc9a7000000000000000000000000000000000000000000000000000000007bffffffffffffffffffffffffffffffffffffffffffffffffffffffff1916827bffffffffffffffffffffffffffffffffffffffffffffffffffffffff1916149050919050565b600033905090565b610d1482826104f1565b610da357610d398173ffffffffffffffffffffffffffffffffffffffff1660146114ab565b610d478360001c60206114ab565b604051602001610d5892919061220d565b6040516020818303038152906040526040517f08c379a0000000000000000000000000000000000000000000000000000000008152600401610d9a9190612291565b60405180910390fd5b5050565b610db182826104f1565b610e8357600160008084815260200190815260200160002060000160008373ffffffffffffffffffffffffffffffffffffffff1673ffffffffffffffffffffffffffffffffffffffff16815260200190815260200160002060006101000a81548160ff021916908315150217905550610e28610d02565b73ffffffffffffffffffffffffffffffffffffffff168173ffffffffffffffffffffffffffffffffffffffff16837f2f8788117e7eff1d82e926ec794901d17c78024a50270940304540a733656f0d60405160405180910390a45b5050565b60606000610e97836000016116e7565b905060608190508092505050919050565b610eb282826104f1565b15610f8557600080600084815260200190815260200160002060000160008373ffffffffffffffffffffffffffffffffffffffff1673ffffffffffffffffffffffffffffffffffffffff16815260200190815260200160002060006101000a81548160ff021916908315150217905550610f2a610d02565b73ffffffffffffffffffffffffffffffffffffffff168173ffffffffffffffffffffffffffffffffffffffff16837ff6391f5c32d9c69d2a47ea670b442974b53935d1edc7fd64eb21e047a839171b60405160405180910390a45b5050565b6000610f9782600001611743565b9050919050565b6000808273ffffffffffffffffffffffffffffffffffffffff16631f21f9af6040518163ffffffff1660e01b8152600401602060405180830381865afa158015610fec573d6000803e3d6000fd5b505050506040513d601f19601f820116820180604052508101906110109190611d81565b73ffffffffffffffffffffffffffffffffffffffff16636f307dc36040518163ffffffff1660e01b8152600401602060405180830381865afa15801561105a573d6000803e3d6000fd5b505050506040513d601f19601f8201168201806040525081019061107e9190611e2e565b9050600660009054906101000a900473ffffffffffffffffffffffffffffffffffffffff1673ffffffffffffffffffffffffffffffffffffffff16635c273c2f84600160006040518463ffffffff1660e01b81526004016110e1939291906122d4565b602060405180830381865afa1580156110fe573d6000803e3d6000fd5b505050506040513d601f19601f820116820180604052508101906111229190611f05565b91506003548211611168576040517f08c379a000000000000000000000000000000000000000000000000000000000815260040161115f90612357565b60405180910390fd5b600073ffffffffffffffffffffffffffffffffffffffff16600160008373ffffffffffffffffffffffffffffffffffffffff1673ffffffffffffffffffffffffffffffffffffffff16815260200190815260200160002060009054906101000a900473ffffffffffffffffffffffffffffffffffffffff1673ffffffffffffffffffffffffffffffffffffffff161415801561128f57508273ffffffffffffffffffffffffffffffffffffffff16600160008373ffffffffffffffffffffffffffffffffffffffff1673ffffffffffffffffffffffffffffffffffffffff16815260200190815260200160002060009054906101000a900473ffffffffffffffffffffffffffffffffffffffff1673ffffffffffffffffffffffffffffffffffffffff1614155b1561145b576000600660009054906101000a900473ffffffffffffffffffffffffffffffffffffffff1673ffffffffffffffffffffffffffffffffffffffff16635c273c2f600160008573ffffffffffffffffffffffffffffffffffffffff1673ffffffffffffffffffffffffffffffffffffffff16815260200190815260200160002060009054906101000a900473ffffffffffffffffffffffffffffffffffffffff16600160006040518463ffffffff1660e01b8152600401611356939291906122d4565b602060405180830381865afa158015611373573d6000803e3d6000fd5b505050506040513d601f19601f820116820180604052508101906113979190611f05565b90508083116113db576040517f08c379a00000000000000000000000000000000000000000000000000000000081526004016113d2906123c3565b60405180910390fd5b83600160008473ffffffffffffffffffffffffffffffffffffffff1673ffffffffffffffffffffffffffffffffffffffff16815260200190815260200160002060006101000a81548173ffffffffffffffffffffffffffffffffffffffff021916908373ffffffffffffffffffffffffffffffffffffffff160217905550505b50919050565b6000818310156114715781611473565b825b905092915050565b60006114a3836000018373ffffffffffffffffffffffffffffffffffffffff1660001b611754565b905092915050565b6060600060028360026114be91906123e3565b6114c89190612037565b67ffffffffffffffff8111156114e1576114e061243d565b5b6040519080825280601f01601f1916602001820160405280156115135781602001600182028036833780820191505090505b5090507f30000000000000000000000000000000000000000000000000000000000000008160008151811061154b5761154a61246c565b5b60200101907effffffffffffffffffffffffffffffffffffffffffffffffffffffffffffff1916908160001a9053507f7800000000000000000000000000000000000000000000000000000000000000816001815181106115af576115ae61246c565b5b60200101907effffffffffffffffffffffffffffffffffffffffffffffffffffffffffffff1916908160001a905350600060018460026115ef91906123e3565b6115f99190612037565b90505b6001811115611699577f3031323334353637383961626364656600000000000000000000000000000000600f86166010811061163b5761163a61246c565b5b1a60f81b8282815181106116525761165161246c565b5b60200101907effffffffffffffffffffffffffffffffffffffffffffffffffffffffffffff1916908160001a905350600485901c9450806116929061249b565b90506115fc565b50600084146116dd576040517f08c379a00000000000000000000000000000000000000000000000000000000081526004016116d490612510565b60405180910390fd5b8091505092915050565b60608160000180548060200260200160405190810160405280929190818152602001828054801561173757602002820191906000526020600020905b815481526020019060010190808311611723575b50505050509050919050565b600081600001805490509050919050565b600061176083836117c4565b6117b95782600001829080600181540180825580915050600190039060005260206000200160009091909190915055826000018054905083600101600084815260200190815260200160002081905550600190506117be565b600090505b92915050565b600080836001016000848152602001908152602001600020541415905092915050565b600080fd5b60007fffffffff0000000000000000000000000000000000000000000000000000000082169050919050565b611821816117ec565b811461182c57600080fd5b50565b60008135905061183e81611818565b92915050565b60006020828403121561185a576118596117e7565b5b60006118688482850161182f565b91505092915050565b60008115159050919050565b61188681611871565b82525050565b60006020820190506118a1600083018461187d565b92915050565b6000819050919050565b6118ba816118a7565b81146118c557600080fd5b50565b6000813590506118d7816118b1565b92915050565b6000602082840312156118f3576118f26117e7565b5b6000611901848285016118c8565b91505092915050565b611913816118a7565b82525050565b600060208201905061192e600083018461190a565b92915050565b600073ffffffffffffffffffffffffffffffffffffffff82169050919050565b600061195f82611934565b9050919050565b61196f81611954565b811461197a57600080fd5b50565b60008135905061198c81611966565b92915050565b600080604083850312156119a9576119a86117e7565b5b60006119b7858286016118c8565b92505060206119c88582860161197d565b9150509250929050565b6000602082840312156119e8576119e76117e7565b5b60006119f68482850161197d565b91505092915050565b600081519050919050565b600082825260208201905092915050565b6000819050602082019050919050565b611a3481611954565b82525050565b6000611a468383611a2b565b60208301905092915050565b6000602082019050919050565b6000611a6a826119ff565b611a748185611a0a565b9350611a7f83611a1b565b8060005b83811015611ab0578151611a978882611a3a565b9750611aa283611a52565b925050600181019050611a83565b5085935050505092915050565b60006020820190508181036000830152611ad78184611a5f565b905092915050565b6000819050919050565b611af281611adf565b82525050565b6000602082019050611b0d6000830184611ae9565b92915050565b6000819050919050565b6000611b38611b33611b2e84611934565b611b13565b611934565b9050919050565b6000611b4a82611b1d565b9050919050565b6000611b5c82611b3f565b9050919050565b611b6c81611b51565b82525050565b6000602082019050611b876000830184611b63565b92915050565b6000611b9882611954565b9050919050565b611ba881611b8d565b8114611bb357600080fd5b50565b600081359050611bc581611b9f565b92915050565b611bd481611adf565b8114611bdf57600080fd5b50565b600081359050611bf181611bcb565b92915050565b60008060408385031215611c0e57611c0d6117e7565b5b6000611c1c85828601611bb6565b9250506020611c2d85828601611be2565b9150509250929050565b600060208284031215611c4d57611c4c6117e7565b5b6000611c5b84828501611bb6565b91505092915050565b6000611c6f82611b3f565b9050919050565b611c7f81611c64565b82525050565b6000602082019050611c9a6000830184611c76565b92915050565b600082825260208201905092915050565b7f416363657373436f6e74726f6c3a2063616e206f6e6c792072656e6f756e636560008201527f20726f6c657320666f722073656c660000000000000000000000000000000000602082015250565b6000611d0d602f83611ca0565b9150611d1882611cb1565b604082019050919050565b60006020820190508181036000830152611d3c81611d00565b9050919050565b6000611d4e82611954565b9050919050565b611d5e81611d43565b8114611d6957600080fd5b50565b600081519050611d7b81611d55565b92915050565b600060208284031215611d9757611d966117e7565b5b6000611da584828501611d6c565b91505092915050565b6000611db982611954565b9050919050565b611dc981611dae565b8114611dd457600080fd5b50565b600081519050611de681611dc0565b92915050565b600060208284031215611e0257611e016117e7565b5b6000611e1084828501611dd7565b91505092915050565b600081519050611e2881611966565b92915050565b600060208284031215611e4457611e436117e7565b5b6000611e5284828501611e19565b91505092915050565b611e6481611954565b82525050565b6000602082019050611e7f6000830184611e5b565b92915050565b6000611e9082611954565b9050919050565b611ea081611e85565b8114611eab57600080fd5b50565b600081519050611ebd81611e97565b92915050565b600060208284031215611ed957611ed86117e7565b5b6000611ee784828501611eae565b91505092915050565b600081519050611eff81611bcb565b92915050565b600060208284031215611f1b57611f1a6117e7565b5b6000611f2984828501611ef0565b91505092915050565b611f3b81611adf565b82525050565b6000606082019050611f566000830186611f32565b611f636020830185611f32565b611f706040830184611f32565b949350505050565b6000606082019050611f8d6000830186611e5b565b611f9a6020830185611e5b565b611fa76040830184611ae9565b949350505050565b611fb881611871565b8114611fc357600080fd5b50565b600081519050611fd581611faf565b92915050565b600060208284031215611ff157611ff06117e7565b5b6000611fff84828501611fc6565b91505092915050565b7f4e487b7100000000000000000000000000000000000000000000000000000000600052601160045260246000fd5b600061204282611adf565b915061204d83611adf565b9250827fffffffffffffffffffffffffffffffffffffffffffffffffffffffffffffffff0382111561208257612081612008565b5b828201905092915050565b60006040820190506120a26000830185611e5b565b6120af6020830184611ae9565b9392505050565b60006080820190506120cb6000830187611e5b565b6120d86020830186611e5b565b6120e56040830185611ae9565b6120f26060830184611ae9565b95945050505050565b600081905092915050565b7f416363657373436f6e74726f6c3a206163636f756e7420000000000000000000600082015250565b600061213c6017836120fb565b915061214782612106565b601782019050919050565b600081519050919050565b60005b8381101561217b578082015181840152602081019050612160565b8381111561218a576000848401525b50505050565b600061219b82612152565b6121a581856120fb565b93506121b581856020860161215d565b80840191505092915050565b7f206973206d697373696e6720726f6c6520000000000000000000000000000000600082015250565b60006121f76011836120fb565b9150612202826121c1565b601182019050919050565b60006122188261212f565b91506122248285612190565b915061222f826121ea565b915061223b8284612190565b91508190509392505050565b6000601f19601f8301169050919050565b600061226382612152565b61226d8185611ca0565b935061227d81856020860161215d565b61228681612247565b840191505092915050565b600060208201905081810360008301526122ab8184612258565b905092915050565b60006122be82611b3f565b9050919050565b6122ce816122b3565b82525050565b60006060820190506122e960008301866122c5565b6122f6602083018561187d565b612303604083018461187d565b949350505050565b7f6d696e206361706974616c206e6f74206d65742e000000000000000000000000600082015250565b6000612341601483611ca0565b915061234c8261230b565b602082019050919050565b6000602082019050818103600083015261237081612334565b9050919050565b7f6e6f742074686520746f702065786368616e6765000000000000000000000000600082015250565b60006123ad601483611ca0565b91506123b882612377565b602082019050919050565b600060208201905081810360008301526123dc816123a0565b9050919050565b60006123ee82611adf565b91506123f983611adf565b9250817fffffffffffffffffffffffffffffffffffffffffffffffffffffffffffffffff048311821515161561243257612431612008565b5b828202905092915050565b7f4e487b7100000000000000000000000000000000000000000000000000000000600052604160045260246000fd5b7f4e487b7100000000000000000000000000000000000000000000000000000000600052603260045260246000fd5b60006124a682611adf565b9150600082036124b9576124b8612008565b5b600182039050919050565b7f537472696e67733a20686578206c656e67746820696e73756666696369656e74600082015250565b60006124fa602083611ca0565b9150612505826124c4565b602082019050919050565b60006020820190508181036000830152612529816124ed565b905091905056fea2646970667358221220590a61e1f6967da6de2265bd69d63b7897f06ee211d8f65fc3113bd16fe5eecc64736f6c634300080d0033",
  "immutableReferences": {},
  "source": "// SPDX-License-Identifier: MIT\npragma solidity ^0.8.4;\n\nimport \"@openzeppelin/contracts/access/Ownable.sol\";\nimport \"@openzeppelin/contracts/access/AccessControl.sol\";\nimport \"@openzeppelin/contracts/token/ERC20/ERC20.sol\";\nimport \"@openzeppelin/contracts/utils/math/Math.sol\";\nimport \"@openzeppelin/contracts/utils/structs/EnumerableSet.sol\";\nimport \"../pools/Pool.sol\";\nimport \"../libraries/MathLib.sol\";\nimport \"../interfaces/EMoret.sol\";\nimport \"../OptionVault.sol\";\nimport \"../VolatilityChain.sol\";\nimport \"./Moret.sol\";\n\n/// @custom:security-contact eight@moret.io\ncontract MoretBroker is EMoret, AccessControl {\n    using MathLib for uint256;\n    using EnumerableSet for EnumerableSet.AddressSet;\n\n    // list of pools\n    mapping(address=>Pool) internal topPoolMap; // only the top pool address is allowed to exchange their pool tokens with Moret. underlying token addres => pool address\n    mapping(address=>EnumerableSet.AddressSet) internal allPoolMap; // all created pools\n    \n    // capital records\n    uint256 public minCapital; // 1m minimum capital for the whole Moret pool and for exchanges\n    uint256 public poolCapital = 0; // total capitals\n    \n    // address\n    ERC20 public funding;\n    OptionVault public vault;\n\n    constructor(ERC20 _funding, OptionVault _vault){\n        funding = _funding;\n        vault = _vault;\n        minCapital = 1e6 * (10 ** (funding.decimals())); // 1m min notional (in funding token decimals)\n        }\n\n    // functions to allow pool to exchange their tokens for Moret\n    // arguments: pool contract address, amount of pool tokens to be exchanged\n    // a minimum capital of 1m USDC is assumed for any exchange calculations.\n    function exchangePoolForMoret(Pool _pool, uint256 _payInAmount) external{\n        Moret _gov = _pool.marketMaker().govToken();\n        _gov.getVolatilityChain(_pool.marketMaker().underlying()); // use this function to check if underlying exists.\n\n        uint256 _poolNetCapital = getAndUpdateTopPool(_pool);\n        uint256 _currentCapital = Math.max(minCapital, poolCapital);\n\n        uint256 _payInCapital = _payInAmount.muldiv(_poolNetCapital, _pool.totalSupply());\n        uint256 _mintAmount = _payInCapital.muldiv(_gov.totalSupply(), _currentCapital);\n        _pool.transferFrom(msg.sender, address(_gov), _payInAmount);\n        poolCapital += _payInCapital;\n        _gov.mint(msg.sender, _mintAmount);\n        emit ExchangePoolTokens(address(_pool), msg.sender, _payInAmount, _mintAmount);}\n\n    function getAndUpdateTopPool(Pool _pool) internal returns(uint256 _poolNetCapital){\n        address _underlyingAddress = _pool.marketMaker().underlying();\n        _poolNetCapital = vault.calcCapital(_pool, true, false);\n        require(_poolNetCapital > minCapital, \"min capital not met.\");\n\n        if ((address(topPoolMap[_underlyingAddress]) != address(0)) && (topPoolMap[_underlyingAddress] != _pool)){\n            uint256 _topCapital = vault.calcCapital(topPoolMap[_underlyingAddress], true, false);\n            require(_poolNetCapital > _topCapital, 'not the top exchange');\n            topPoolMap[_underlyingAddress] = _pool;}}\n\n    // update list of pools\n    function addPool(Pool _pool) external{\n        allPoolMap[_pool.marketMaker().underlying()].add(address(_pool));}\n    function getAllPools(address _underlyingAddress) external view returns(address[] memory){\n        return allPoolMap[_underlyingAddress].values();}\n    function getPoolsCount(address _underlyingAddress) external view returns(uint256){\n        return allPoolMap[_underlyingAddress].length();}\n    \n}",
  "sourcePath": "/Users/mac/Documents/GitHub/moret/contracts/governance/MoretBroker.sol",
  "compiler": {
    "name": "solc",
    "version": "0.8.13+commit.abaa5c0e.Emscripten.clang"
  },
  "schemaVersion": "3.4.3",
  "updatedAt": "2022-05-02T09:43:37.127Z",
  "devdoc": {
    "custom:security-contact": "eight@moret.io",
    "kind": "dev",
    "methods": {
      "getRoleAdmin(bytes32)": {
        "details": "Returns the admin role that controls `role`. See {grantRole} and {revokeRole}. To change a role's admin, use {_setRoleAdmin}."
      },
      "grantRole(bytes32,address)": {
        "details": "Grants `role` to `account`. If `account` had not been already granted `role`, emits a {RoleGranted} event. Requirements: - the caller must have ``role``'s admin role."
      },
      "hasRole(bytes32,address)": {
        "details": "Returns `true` if `account` has been granted `role`."
      },
      "renounceRole(bytes32,address)": {
        "details": "Revokes `role` from the calling account. Roles are often managed via {grantRole} and {revokeRole}: this function's purpose is to provide a mechanism for accounts to lose their privileges if they are compromised (such as when a trusted device is misplaced). If the calling account had been revoked `role`, emits a {RoleRevoked} event. Requirements: - the caller must be `account`."
      },
      "revokeRole(bytes32,address)": {
        "details": "Revokes `role` from `account`. If `account` had been granted `role`, emits a {RoleRevoked} event. Requirements: - the caller must have ``role``'s admin role."
      },
      "supportsInterface(bytes4)": {
        "details": "See {IERC165-supportsInterface}."
      }
    },
    "version": 1
  },
  "userdoc": {
    "kind": "user",
    "methods": {},
    "version": 1
  }
}