{
  "contractName": "MoretMarketMaker",
  "abi": [
    {
      "inputs": [
        {
          "internalType": "string",
          "name": "_name",
          "type": "string"
        },
        {
          "internalType": "string",
          "name": "_symbol",
          "type": "string"
        },
        {
          "internalType": "address",
          "name": "_underlyingAddress",
          "type": "address"
        },
        {
          "internalType": "address",
          "name": "_fundingAddress",
          "type": "address"
        },
        {
          "internalType": "address",
          "name": "_optionAddress",
          "type": "address"
        },
        {
          "internalType": "address",
          "name": "_aaveAddressProviderAddress",
          "type": "address"
        }
      ],
      "stateMutability": "nonpayable",
      "type": "constructor"
    },
    {
      "anonymous": false,
      "inputs": [
        {
          "indexed": true,
          "internalType": "address",
          "name": "owner",
          "type": "address"
        },
        {
          "indexed": true,
          "internalType": "address",
          "name": "spender",
          "type": "address"
        },
        {
          "indexed": false,
          "internalType": "uint256",
          "name": "value",
          "type": "uint256"
        }
      ],
      "name": "Approval",
      "type": "event"
    },
    {
      "anonymous": false,
      "inputs": [
        {
          "indexed": true,
          "internalType": "bytes32",
          "name": "role",
          "type": "bytes32"
        },
        {
          "indexed": true,
          "internalType": "bytes32",
          "name": "previousAdminRole",
          "type": "bytes32"
        },
        {
          "indexed": true,
          "internalType": "bytes32",
          "name": "newAdminRole",
          "type": "bytes32"
        }
      ],
      "name": "RoleAdminChanged",
      "type": "event"
    },
    {
      "anonymous": false,
      "inputs": [
        {
          "indexed": true,
          "internalType": "bytes32",
          "name": "role",
          "type": "bytes32"
        },
        {
          "indexed": true,
          "internalType": "address",
          "name": "account",
          "type": "address"
        },
        {
          "indexed": true,
          "internalType": "address",
          "name": "sender",
          "type": "address"
        }
      ],
      "name": "RoleGranted",
      "type": "event"
    },
    {
      "anonymous": false,
      "inputs": [
        {
          "indexed": true,
          "internalType": "bytes32",
          "name": "role",
          "type": "bytes32"
        },
        {
          "indexed": true,
          "internalType": "address",
          "name": "account",
          "type": "address"
        },
        {
          "indexed": true,
          "internalType": "address",
          "name": "sender",
          "type": "address"
        }
      ],
      "name": "RoleRevoked",
      "type": "event"
    },
    {
      "anonymous": false,
      "inputs": [
        {
          "indexed": true,
          "internalType": "address",
          "name": "from",
          "type": "address"
        },
        {
          "indexed": true,
          "internalType": "address",
          "name": "to",
          "type": "address"
        },
        {
          "indexed": false,
          "internalType": "uint256",
          "name": "value",
          "type": "uint256"
        }
      ],
      "name": "Transfer",
      "type": "event"
    },
    {
      "anonymous": false,
      "inputs": [
        {
          "indexed": false,
          "internalType": "address",
          "name": "_recipient",
          "type": "address"
        },
        {
          "indexed": false,
          "internalType": "uint256",
          "name": "_mintMPTokenAmount",
          "type": "uint256"
        },
        {
          "indexed": false,
          "internalType": "uint256",
          "name": "_addedValue",
          "type": "uint256"
        }
      ],
      "name": "capitalAdded",
      "type": "event"
    },
    {
      "anonymous": false,
      "inputs": [
        {
          "indexed": false,
          "internalType": "address",
          "name": "_recipient",
          "type": "address"
        },
        {
          "indexed": false,
          "internalType": "uint256",
          "name": "_burnMPTokenAmount",
          "type": "uint256"
        },
        {
          "indexed": false,
          "internalType": "uint256",
          "name": "_withdrawValue",
          "type": "uint256"
        }
      ],
      "name": "capitalWithdrawn",
      "type": "event"
    },
    {
      "anonymous": false,
      "inputs": [
        {
          "indexed": true,
          "internalType": "address",
          "name": "_purchaser",
          "type": "address"
        },
        {
          "components": [
            {
              "internalType": "enum OptionLibrary.PayoffType",
              "name": "poType",
              "type": "uint8"
            },
            {
              "internalType": "enum OptionLibrary.OptionSide",
              "name": "side",
              "type": "uint8"
            },
            {
              "internalType": "enum OptionLibrary.OptionStatus",
              "name": "status",
              "type": "uint8"
            },
            {
              "internalType": "address",
              "name": "holder",
              "type": "address"
            },
            {
              "internalType": "uint256",
              "name": "id",
              "type": "uint256"
            },
            {
              "internalType": "uint256",
              "name": "createTime",
              "type": "uint256"
            },
            {
              "internalType": "uint256",
              "name": "effectiveTime",
              "type": "uint256"
            },
            {
              "internalType": "uint256",
              "name": "tenor",
              "type": "uint256"
            },
            {
              "internalType": "uint256",
              "name": "maturity",
              "type": "uint256"
            },
            {
              "internalType": "uint256",
              "name": "exerciseTime",
              "type": "uint256"
            },
            {
              "internalType": "uint256",
              "name": "amount",
              "type": "uint256"
            },
            {
              "internalType": "uint256",
              "name": "spot",
              "type": "uint256"
            },
            {
              "internalType": "uint256",
              "name": "strike",
              "type": "uint256"
            },
            {
              "internalType": "uint256",
              "name": "volatility",
              "type": "uint256"
            },
            {
              "internalType": "uint256",
              "name": "premium",
              "type": "uint256"
            },
            {
              "internalType": "uint256",
              "name": "cost",
              "type": "uint256"
            }
          ],
          "indexed": false,
          "internalType": "struct OptionLibrary.Option",
          "name": "_option",
          "type": "tuple"
        },
        {
          "indexed": false,
          "internalType": "uint256",
          "name": "_cost",
          "type": "uint256"
        },
        {
          "indexed": false,
          "internalType": "bool",
          "name": "_inVol",
          "type": "bool"
        }
      ],
      "name": "newOptionBought",
      "type": "event"
    },
    {
      "anonymous": false,
      "inputs": [
        {
          "indexed": false,
          "internalType": "address",
          "name": "_purchaser",
          "type": "address"
        },
        {
          "indexed": false,
          "internalType": "uint256",
          "name": "_time",
          "type": "uint256"
        },
        {
          "indexed": false,
          "internalType": "uint256",
          "name": "_tenor",
          "type": "uint256"
        },
        {
          "indexed": false,
          "internalType": "uint256",
          "name": "_amount",
          "type": "uint256"
        }
      ],
      "name": "newVolatilityTokenBought",
      "type": "event"
    },
    {
      "anonymous": false,
      "inputs": [
        {
          "indexed": true,
          "internalType": "address",
          "name": "_purchaser",
          "type": "address"
        },
        {
          "components": [
            {
              "internalType": "enum OptionLibrary.PayoffType",
              "name": "poType",
              "type": "uint8"
            },
            {
              "internalType": "enum OptionLibrary.OptionSide",
              "name": "side",
              "type": "uint8"
            },
            {
              "internalType": "enum OptionLibrary.OptionStatus",
              "name": "status",
              "type": "uint8"
            },
            {
              "internalType": "address",
              "name": "holder",
              "type": "address"
            },
            {
              "internalType": "uint256",
              "name": "id",
              "type": "uint256"
            },
            {
              "internalType": "uint256",
              "name": "createTime",
              "type": "uint256"
            },
            {
              "internalType": "uint256",
              "name": "effectiveTime",
              "type": "uint256"
            },
            {
              "internalType": "uint256",
              "name": "tenor",
              "type": "uint256"
            },
            {
              "internalType": "uint256",
              "name": "maturity",
              "type": "uint256"
            },
            {
              "internalType": "uint256",
              "name": "exerciseTime",
              "type": "uint256"
            },
            {
              "internalType": "uint256",
              "name": "amount",
              "type": "uint256"
            },
            {
              "internalType": "uint256",
              "name": "spot",
              "type": "uint256"
            },
            {
              "internalType": "uint256",
              "name": "strike",
              "type": "uint256"
            },
            {
              "internalType": "uint256",
              "name": "volatility",
              "type": "uint256"
            },
            {
              "internalType": "uint256",
              "name": "premium",
              "type": "uint256"
            },
            {
              "internalType": "uint256",
              "name": "cost",
              "type": "uint256"
            }
          ],
          "indexed": false,
          "internalType": "struct OptionLibrary.Option",
          "name": "_option",
          "type": "tuple"
        },
        {
          "indexed": false,
          "internalType": "uint256",
          "name": "_payoff",
          "type": "uint256"
        }
      ],
      "name": "optionExercised",
      "type": "event"
    },
    {
      "inputs": [],
      "name": "ADMIN_ROLE",
      "outputs": [
        {
          "internalType": "bytes32",
          "name": "",
          "type": "bytes32"
        }
      ],
      "stateMutability": "view",
      "type": "function",
      "constant": true
    },
    {
      "inputs": [],
      "name": "DEFAULT_ADMIN_ROLE",
      "outputs": [
        {
          "internalType": "bytes32",
          "name": "",
          "type": "bytes32"
        }
      ],
      "stateMutability": "view",
      "type": "function",
      "constant": true
    },
    {
      "inputs": [],
      "name": "EXCHANGE_ROLE",
      "outputs": [
        {
          "internalType": "bytes32",
          "name": "",
          "type": "bytes32"
        }
      ],
      "stateMutability": "view",
      "type": "function",
      "constant": true
    },
    {
      "inputs": [],
      "name": "MINER_ROLE",
      "outputs": [
        {
          "internalType": "bytes32",
          "name": "",
          "type": "bytes32"
        }
      ],
      "stateMutability": "view",
      "type": "function",
      "constant": true
    },
    {
      "inputs": [],
      "name": "aaveAddressProviderAddress",
      "outputs": [
        {
          "internalType": "address",
          "name": "",
          "type": "address"
        }
      ],
      "stateMutability": "view",
      "type": "function",
      "constant": true
    },
    {
      "inputs": [
        {
          "internalType": "address",
          "name": "owner",
          "type": "address"
        },
        {
          "internalType": "address",
          "name": "spender",
          "type": "address"
        }
      ],
      "name": "allowance",
      "outputs": [
        {
          "internalType": "uint256",
          "name": "",
          "type": "uint256"
        }
      ],
      "stateMutability": "view",
      "type": "function",
      "constant": true
    },
    {
      "inputs": [
        {
          "internalType": "address",
          "name": "spender",
          "type": "address"
        },
        {
          "internalType": "uint256",
          "name": "amount",
          "type": "uint256"
        }
      ],
      "name": "approve",
      "outputs": [
        {
          "internalType": "bool",
          "name": "",
          "type": "bool"
        }
      ],
      "stateMutability": "nonpayable",
      "type": "function"
    },
    {
      "inputs": [
        {
          "internalType": "address",
          "name": "account",
          "type": "address"
        }
      ],
      "name": "balanceOf",
      "outputs": [
        {
          "internalType": "uint256",
          "name": "",
          "type": "uint256"
        }
      ],
      "stateMutability": "view",
      "type": "function",
      "constant": true
    },
    {
      "inputs": [],
      "name": "decimals",
      "outputs": [
        {
          "internalType": "uint8",
          "name": "",
          "type": "uint8"
        }
      ],
      "stateMutability": "view",
      "type": "function",
      "constant": true
    },
    {
      "inputs": [
        {
          "internalType": "address",
          "name": "spender",
          "type": "address"
        },
        {
          "internalType": "uint256",
          "name": "subtractedValue",
          "type": "uint256"
        }
      ],
      "name": "decreaseAllowance",
      "outputs": [
        {
          "internalType": "bool",
          "name": "",
          "type": "bool"
        }
      ],
      "stateMutability": "nonpayable",
      "type": "function"
    },
    {
      "inputs": [],
      "name": "exerciseFee",
      "outputs": [
        {
          "internalType": "uint256",
          "name": "",
          "type": "uint256"
        }
      ],
      "stateMutability": "view",
      "type": "function",
      "constant": true
    },
    {
      "inputs": [],
      "name": "fundingAddress",
      "outputs": [
        {
          "internalType": "address",
          "name": "",
          "type": "address"
        }
      ],
      "stateMutability": "view",
      "type": "function",
      "constant": true
    },
    {
      "inputs": [
        {
          "internalType": "bytes32",
          "name": "role",
          "type": "bytes32"
        }
      ],
      "name": "getRoleAdmin",
      "outputs": [
        {
          "internalType": "bytes32",
          "name": "",
          "type": "bytes32"
        }
      ],
      "stateMutability": "view",
      "type": "function",
      "constant": true
    },
    {
      "inputs": [
        {
          "internalType": "bytes32",
          "name": "role",
          "type": "bytes32"
        },
        {
          "internalType": "address",
          "name": "account",
          "type": "address"
        }
      ],
      "name": "grantRole",
      "outputs": [],
      "stateMutability": "nonpayable",
      "type": "function"
    },
    {
      "inputs": [
        {
          "internalType": "bytes32",
          "name": "role",
          "type": "bytes32"
        },
        {
          "internalType": "address",
          "name": "account",
          "type": "address"
        }
      ],
      "name": "hasRole",
      "outputs": [
        {
          "internalType": "bool",
          "name": "",
          "type": "bool"
        }
      ],
      "stateMutability": "view",
      "type": "function",
      "constant": true
    },
    {
      "inputs": [
        {
          "internalType": "address",
          "name": "spender",
          "type": "address"
        },
        {
          "internalType": "uint256",
          "name": "addedValue",
          "type": "uint256"
        }
      ],
      "name": "increaseAllowance",
      "outputs": [
        {
          "internalType": "bool",
          "name": "",
          "type": "bool"
        }
      ],
      "stateMutability": "nonpayable",
      "type": "function"
    },
    {
      "inputs": [],
      "name": "lendingPoolRateMode",
      "outputs": [
        {
          "internalType": "uint256",
          "name": "",
          "type": "uint256"
        }
      ],
      "stateMutability": "view",
      "type": "function",
      "constant": true
    },
    {
      "inputs": [],
      "name": "name",
      "outputs": [
        {
          "internalType": "string",
          "name": "",
          "type": "string"
        }
      ],
      "stateMutability": "view",
      "type": "function",
      "constant": true
    },
    {
      "inputs": [
        {
          "internalType": "bytes32",
          "name": "role",
          "type": "bytes32"
        },
        {
          "internalType": "address",
          "name": "account",
          "type": "address"
        }
      ],
      "name": "renounceRole",
      "outputs": [],
      "stateMutability": "nonpayable",
      "type": "function"
    },
    {
      "inputs": [
        {
          "internalType": "bytes32",
          "name": "role",
          "type": "bytes32"
        },
        {
          "internalType": "address",
          "name": "account",
          "type": "address"
        }
      ],
      "name": "revokeRole",
      "outputs": [],
      "stateMutability": "nonpayable",
      "type": "function"
    },
    {
      "inputs": [],
      "name": "settlementFee",
      "outputs": [
        {
          "internalType": "uint256",
          "name": "",
          "type": "uint256"
        }
      ],
      "stateMutability": "view",
      "type": "function",
      "constant": true
    },
    {
      "inputs": [
        {
          "internalType": "bytes4",
          "name": "interfaceId",
          "type": "bytes4"
        }
      ],
      "name": "supportsInterface",
      "outputs": [
        {
          "internalType": "bool",
          "name": "",
          "type": "bool"
        }
      ],
      "stateMutability": "view",
      "type": "function",
      "constant": true
    },
    {
      "inputs": [],
      "name": "swapSlippage",
      "outputs": [
        {
          "internalType": "uint256",
          "name": "",
          "type": "uint256"
        }
      ],
      "stateMutability": "view",
      "type": "function",
      "constant": true
    },
    {
      "inputs": [],
      "name": "symbol",
      "outputs": [
        {
          "internalType": "string",
          "name": "",
          "type": "string"
        }
      ],
      "stateMutability": "view",
      "type": "function",
      "constant": true
    },
    {
      "inputs": [],
      "name": "totalSupply",
      "outputs": [
        {
          "internalType": "uint256",
          "name": "",
          "type": "uint256"
        }
      ],
      "stateMutability": "view",
      "type": "function",
      "constant": true
    },
    {
      "inputs": [
        {
          "internalType": "address",
          "name": "recipient",
          "type": "address"
        },
        {
          "internalType": "uint256",
          "name": "amount",
          "type": "uint256"
        }
      ],
      "name": "transfer",
      "outputs": [
        {
          "internalType": "bool",
          "name": "",
          "type": "bool"
        }
      ],
      "stateMutability": "nonpayable",
      "type": "function"
    },
    {
      "inputs": [
        {
          "internalType": "address",
          "name": "sender",
          "type": "address"
        },
        {
          "internalType": "address",
          "name": "recipient",
          "type": "address"
        },
        {
          "internalType": "uint256",
          "name": "amount",
          "type": "uint256"
        }
      ],
      "name": "transferFrom",
      "outputs": [
        {
          "internalType": "bool",
          "name": "",
          "type": "bool"
        }
      ],
      "stateMutability": "nonpayable",
      "type": "function"
    },
    {
      "inputs": [],
      "name": "underlyingAddress",
      "outputs": [
        {
          "internalType": "address",
          "name": "",
          "type": "address"
        }
      ],
      "stateMutability": "view",
      "type": "function",
      "constant": true
    },
    {
      "inputs": [
        {
          "internalType": "address",
          "name": "_purchaser",
          "type": "address"
        },
        {
          "internalType": "uint256",
          "name": "_id",
          "type": "uint256"
        }
      ],
      "name": "recordOptionPurchase",
      "outputs": [],
      "stateMutability": "nonpayable",
      "type": "function"
    },
    {
      "inputs": [
        {
          "internalType": "bool",
          "name": "_ignoreSells",
          "type": "bool"
        }
      ],
      "name": "getAggregateGamma",
      "outputs": [
        {
          "internalType": "int256",
          "name": "_gamma",
          "type": "int256"
        }
      ],
      "stateMutability": "view",
      "type": "function",
      "constant": true
    },
    {
      "inputs": [],
      "name": "getBalances",
      "outputs": [
        {
          "internalType": "uint256",
          "name": "_underlyingBalance",
          "type": "uint256"
        },
        {
          "internalType": "uint256",
          "name": "_fundingBalance",
          "type": "uint256"
        },
        {
          "internalType": "uint256",
          "name": "_collateralBalance",
          "type": "uint256"
        },
        {
          "internalType": "uint256",
          "name": "_debtBalance",
          "type": "uint256"
        }
      ],
      "stateMutability": "view",
      "type": "function",
      "constant": true
    },
    {
      "inputs": [],
      "name": "anyOptionExpiring",
      "outputs": [
        {
          "internalType": "bool",
          "name": "_isExpiring",
          "type": "bool"
        }
      ],
      "stateMutability": "view",
      "type": "function",
      "constant": true
    },
    {
      "inputs": [],
      "name": "expireOptions",
      "outputs": [
        {
          "internalType": "uint256",
          "name": "_expiringId",
          "type": "uint256"
        }
      ],
      "stateMutability": "nonpayable",
      "type": "function"
    },
    {
      "inputs": [
        {
          "internalType": "bool",
          "name": "_net",
          "type": "bool"
        },
        {
          "internalType": "bool",
          "name": "_average",
          "type": "bool"
        }
      ],
      "name": "calcCapital",
      "outputs": [
        {
          "internalType": "uint256",
          "name": "_capital",
          "type": "uint256"
        }
      ],
      "stateMutability": "view",
      "type": "function",
      "constant": true
    },
    {
      "inputs": [
        {
          "internalType": "uint256",
          "name": "_depositAmount",
          "type": "uint256"
        }
      ],
      "name": "addCapital",
      "outputs": [],
      "stateMutability": "nonpayable",
      "type": "function"
    },
    {
      "inputs": [
        {
          "internalType": "uint256",
          "name": "_burnMPTokenAmount",
          "type": "uint256"
        }
      ],
      "name": "withdrawCapital",
      "outputs": [],
      "stateMutability": "nonpayable",
      "type": "function"
    },
    {
      "inputs": [
        {
          "internalType": "address",
          "name": "_tokenAddress",
          "type": "address"
        },
        {
          "internalType": "address",
          "name": "_spenderAddress",
          "type": "address"
        },
        {
          "internalType": "uint256",
          "name": "_amount",
          "type": "uint256"
        }
      ],
      "name": "approveSpending",
      "outputs": [],
      "stateMutability": "nonpayable",
      "type": "function"
    },
    {
      "inputs": [],
      "name": "calcHedgeTradesForSwaps",
      "outputs": [
        {
          "internalType": "int256",
          "name": "_tradeUnderlyingAmount",
          "type": "int256"
        },
        {
          "internalType": "int256",
          "name": "_tradeFundingAmount",
          "type": "int256"
        }
      ],
      "stateMutability": "view",
      "type": "function",
      "constant": true
    },
    {
      "inputs": [],
      "name": "calcHedgeTradesForLoans",
      "outputs": [
        {
          "internalType": "int256",
          "name": "_loanTradeAmount",
          "type": "int256"
        },
        {
          "internalType": "int256",
          "name": "_collateralChange",
          "type": "int256"
        },
        {
          "internalType": "address",
          "name": "_loanAddress",
          "type": "address"
        },
        {
          "internalType": "address",
          "name": "_collateralAddress",
          "type": "address"
        }
      ],
      "stateMutability": "view",
      "type": "function",
      "constant": true
    },
    {
      "inputs": [
        {
          "internalType": "uint256",
          "name": "_newFee",
          "type": "uint256"
        }
      ],
      "name": "resetSettlementFee",
      "outputs": [],
      "stateMutability": "nonpayable",
      "type": "function"
    },
    {
      "inputs": [
        {
          "internalType": "uint256",
          "name": "_newFee",
          "type": "uint256"
        }
      ],
      "name": "resetExerciseFee",
      "outputs": [],
      "stateMutability": "nonpayable",
      "type": "function"
    },
    {
      "inputs": [
        {
          "internalType": "uint256",
          "name": "_slippage",
          "type": "uint256"
        }
      ],
      "name": "resetSlippage",
      "outputs": [],
      "stateMutability": "nonpayable",
      "type": "function"
    },
    {
      "inputs": [
        {
          "internalType": "uint256",
          "name": "_newRateMode",
          "type": "uint256"
        }
      ],
      "name": "resetLendingPoolRateMode",
      "outputs": [],
      "stateMutability": "nonpayable",
      "type": "function"
    },
    {
      "inputs": [
        {
          "internalType": "address",
          "name": "_address",
          "type": "address"
        }
      ],
      "name": "getHoldersOptionCount",
      "outputs": [
        {
          "internalType": "uint256",
          "name": "",
          "type": "uint256"
        }
      ],
      "stateMutability": "view",
      "type": "function",
      "constant": true
    },
    {
      "inputs": [
        {
          "internalType": "uint256",
          "name": "_index",
          "type": "uint256"
        },
        {
          "internalType": "address",
          "name": "_address",
          "type": "address"
        }
      ],
      "name": "getHoldersOption",
      "outputs": [
        {
          "components": [
            {
              "internalType": "enum OptionLibrary.PayoffType",
              "name": "poType",
              "type": "uint8"
            },
            {
              "internalType": "enum OptionLibrary.OptionSide",
              "name": "side",
              "type": "uint8"
            },
            {
              "internalType": "enum OptionLibrary.OptionStatus",
              "name": "status",
              "type": "uint8"
            },
            {
              "internalType": "address",
              "name": "holder",
              "type": "address"
            },
            {
              "internalType": "uint256",
              "name": "id",
              "type": "uint256"
            },
            {
              "internalType": "uint256",
              "name": "createTime",
              "type": "uint256"
            },
            {
              "internalType": "uint256",
              "name": "effectiveTime",
              "type": "uint256"
            },
            {
              "internalType": "uint256",
              "name": "tenor",
              "type": "uint256"
            },
            {
              "internalType": "uint256",
              "name": "maturity",
              "type": "uint256"
            },
            {
              "internalType": "uint256",
              "name": "exerciseTime",
              "type": "uint256"
            },
            {
              "internalType": "uint256",
              "name": "amount",
              "type": "uint256"
            },
            {
              "internalType": "uint256",
              "name": "spot",
              "type": "uint256"
            },
            {
              "internalType": "uint256",
              "name": "strike",
              "type": "uint256"
            },
            {
              "internalType": "uint256",
              "name": "volatility",
              "type": "uint256"
            },
            {
              "internalType": "uint256",
              "name": "premium",
              "type": "uint256"
            },
            {
              "internalType": "uint256",
              "name": "cost",
              "type": "uint256"
            }
          ],
          "internalType": "struct OptionLibrary.Option",
          "name": "",
          "type": "tuple"
        }
      ],
      "stateMutability": "view",
      "type": "function",
      "constant": true
    }
  ],
  "bytecode": "0x6080604052670de0b6b3a76400006009556611c37937e08000600a556611c37937e08000600b55600260115560006012553480156200003d57600080fd5b506040516200697d3803806200697d833981810160405281019062000063919062000840565b858581600390805190602001906200007d9291906200058e565b508060049080519060200190620000969291906200058e565b505050620000ae6000801b33620002a960201b60201c565b620000e07fa49807205ce4d355092ef5a8a18f56e8913cf4a201fbe287825b095693c2177533620002a960201b60201c565b620001127f28d62fc77014de57a1bbaa8212ff0979fa61ab00d377b4b8d9762048fb41996133620002a960201b60201c565b620001447fa952726ef2588ad078edf35b066f7c7406e207cb0003bbaba8cb53eba9553e7233620002a960201b60201c565b33600f60006101000a81548173ffffffffffffffffffffffffffffffffffffffff021916908373ffffffffffffffffffffffffffffffffffffffff16021790555082600e60006101000a81548173ffffffffffffffffffffffffffffffffffffffff021916908373ffffffffffffffffffffffffffffffffffffffff16021790555083600d60006101000a81548173ffffffffffffffffffffffffffffffffffffffff021916908373ffffffffffffffffffffffffffffffffffffffff16021790555081600c60006101000a81548173ffffffffffffffffffffffffffffffffffffffff021916908373ffffffffffffffffffffffffffffffffffffffff16021790555080601060006101000a81548173ffffffffffffffffffffffffffffffffffffffff021916908373ffffffffffffffffffffffffffffffffffffffff1602179055506200029d33600954620002bf60201b60201c565b50505050505062000ac6565b620002bb82826200042460201b60201c565b5050565b600073ffffffffffffffffffffffffffffffffffffffff168273ffffffffffffffffffffffffffffffffffffffff16141562000332576040517f08c379a000000000000000000000000000000000000000000000000000000000815260040162000329906200097b565b60405180910390fd5b62000346600083836200051660201b60201c565b80600260008282546200035a9190620009d6565b92505081905550806000808473ffffffffffffffffffffffffffffffffffffffff1673ffffffffffffffffffffffffffffffffffffffff1681526020019081526020016000206000828254620003b19190620009d6565b925050819055508173ffffffffffffffffffffffffffffffffffffffff16600073ffffffffffffffffffffffffffffffffffffffff167fddf252ad1be2c89b69c2b068fc378daa952ba7f163c4a11628f55a4df523b3ef8360405162000418919062000a44565b60405180910390a35050565b6200043682826200051b60201b60201c565b620005125760016005600084815260200190815260200160002060000160008373ffffffffffffffffffffffffffffffffffffffff1673ffffffffffffffffffffffffffffffffffffffff16815260200190815260200160002060006101000a81548160ff021916908315150217905550620004b76200058660201b60201c565b73ffffffffffffffffffffffffffffffffffffffff168173ffffffffffffffffffffffffffffffffffffffff16837f2f8788117e7eff1d82e926ec794901d17c78024a50270940304540a733656f0d60405160405180910390a45b5050565b505050565b60006005600084815260200190815260200160002060000160008373ffffffffffffffffffffffffffffffffffffffff1673ffffffffffffffffffffffffffffffffffffffff16815260200190815260200160002060009054906101000a900460ff16905092915050565b600033905090565b8280546200059c9062000a90565b90600052602060002090601f016020900481019282620005c057600085556200060c565b82601f10620005db57805160ff19168380011785556200060c565b828001600101855582156200060c579182015b828111156200060b578251825591602001919060010190620005ee565b5b5090506200061b91906200061f565b5090565b5b808211156200063a57600081600090555060010162000620565b5090565b6000604051905090565b600080fd5b600080fd5b600080fd5b600080fd5b6000601f19601f8301169050919050565b7f4e487b7100000000000000000000000000000000000000000000000000000000600052604160045260246000fd5b620006a7826200065c565b810181811067ffffffffffffffff82111715620006c957620006c86200066d565b5b80604052505050565b6000620006de6200063e565b9050620006ec82826200069c565b919050565b600067ffffffffffffffff8211156200070f576200070e6200066d565b5b6200071a826200065c565b9050602081019050919050565b60005b83811015620007475780820151818401526020810190506200072a565b8381111562000757576000848401525b50505050565b6000620007746200076e84620006f1565b620006d2565b90508281526020810184848401111562000793576200079262000657565b5b620007a084828562000727565b509392505050565b600082601f830112620007c057620007bf62000652565b5b8151620007d28482602086016200075d565b91505092915050565b600073ffffffffffffffffffffffffffffffffffffffff82169050919050565b60006200080882620007db565b9050919050565b6200081a81620007fb565b81146200082657600080fd5b50565b6000815190506200083a816200080f565b92915050565b60008060008060008060c0878903121562000860576200085f62000648565b5b600087015167ffffffffffffffff8111156200088157620008806200064d565b5b6200088f89828a01620007a8565b965050602087015167ffffffffffffffff811115620008b357620008b26200064d565b5b620008c189828a01620007a8565b9550506040620008d489828a0162000829565b9450506060620008e789828a0162000829565b9350506080620008fa89828a0162000829565b92505060a06200090d89828a0162000829565b9150509295509295509295565b600082825260208201905092915050565b7f45524332303a206d696e7420746f20746865207a65726f206164647265737300600082015250565b600062000963601f836200091a565b915062000970826200092b565b602082019050919050565b60006020820190508181036000830152620009968162000954565b9050919050565b6000819050919050565b7f4e487b7100000000000000000000000000000000000000000000000000000000600052601160045260246000fd5b6000620009e3826200099d565b9150620009f0836200099d565b9250827fffffffffffffffffffffffffffffffffffffffffffffffffffffffffffffffff0382111562000a285762000a27620009a7565b5b828201905092915050565b62000a3e816200099d565b82525050565b600060208201905062000a5b600083018462000a33565b92915050565b7f4e487b7100000000000000000000000000000000000000000000000000000000600052602260045260246000fd5b6000600282049050600182168062000aa957607f821691505b6020821081141562000ac05762000abf62000a61565b5b50919050565b615ea78062000ad66000396000f3fe608060405234801561001057600080fd5b506004361061027e5760003560e01c80638a0687d21161015c578063b82e106d116100ce578063d95b0a1211610087578063d95b0a12146107f3578063dd62ed3e1461080f578063e3f828fa1461083f578063eaa2b0b51461085b578063ecc513f014610879578063ed7dfbdf146108955761027e565b8063b82e106d14610745578063bea10f9614610763578063d1c699aa1461077f578063d3b7bfb41461079d578063d547741f146107bb578063d8a14cbe146107d75761027e565b806395d89b411161012057806395d89b411461065b578063967ad68b14610679578063a217fddf14610697578063a42b6626146106b5578063a457c2d7146106e5578063a9059cbb146107155761027e565b80638a0687d2146105915780638a9450fe146105c157806390618ed9146105dd57806391d14854146105fb5780639462ad651461062b5761027e565b8063313ce567116101f55780635fb1b1a6116101b95780635fb1b1a6146104b857806363447902146104d75780636394f6e61461050757806370a082311461052557806375b238fc146105555780637d1d7fb8146105735761027e565b8063313ce5671461041457806336568abe14610432578063395093511461044e5780633b7345011461047e57806346c777d81461049c5761027e565b806318160ddd1161024757806318160ddd1461033e5780631aedeabe1461035c5780632140ea671461037a57806323b872dd14610398578063248a9ca3146103c85780632f2ff15d146103f85761027e565b8062113e081461028357806301ffc9a7146102a457806306fdde03146102d45780630837ecfd146102f2578063095ea7b31461030e575b600080fd5b61028b6108b6565b60405161029b9493929190614118565b60405180910390f35b6102be60048036038101906102b991906141c4565b610ae3565b6040516102cb919061420c565b60405180910390f35b6102dc610b5d565b6040516102e991906142c0565b60405180910390f35b61030c6004803603810190610307919061430e565b610bef565b005b61032860048036038101906103239190614399565b610c44565b604051610335919061420c565b60405180910390f35b610346610c62565b60405161035391906143d9565b60405180910390f35b610364610c6c565b60405161037191906143d9565b60405180910390f35b610382610c72565b60405161038f9190614403565b60405180910390f35b6103b260048036038101906103ad919061441e565b610c98565b6040516103bf919061420c565b60405180910390f35b6103e260048036038101906103dd91906144a7565b610d99565b6040516103ef91906144e3565b60405180910390f35b610412600480360381019061040d91906144fe565b610db9565b005b61041c610de2565b604051610429919061455a565b60405180910390f35b61044c600480360381019061044791906144fe565b610deb565b005b61046860048036038101906104639190614399565b610e6e565b604051610475919061420c565b60405180910390f35b610486610f1a565b60405161049391906144e3565b60405180910390f35b6104b660048036038101906104b1919061430e565b610f3e565b005b6104c0610f89565b6040516104ce92919061458e565b60405180910390f35b6104f160048036038101906104ec91906145e3565b611285565b6040516104fe91906143d9565b60405180910390f35b61050f61144d565b60405161051c91906144e3565b60405180910390f35b61053f600480360381019061053a9190614623565b611471565b60405161054c91906143d9565b60405180910390f35b61055d6114b9565b60405161056a91906144e3565b60405180910390f35b61057b6114dd565b60405161058891906143d9565b60405180910390f35b6105ab60048036038101906105a69190614650565b6114e3565b6040516105b891906148ff565b60405180910390f35b6105db60048036038101906105d69190614399565b6115ef565b005b6105e561168d565b6040516105f2919061420c565b60405180910390f35b610615600480360381019061061091906144fe565b611785565b604051610622919061420c565b60405180910390f35b6106456004803603810190610640919061491b565b6117f0565b6040516106529190614948565b60405180910390f35b6106636119ca565b60405161067091906142c0565b60405180910390f35b610681611a5c565b60405161068e9190614403565b60405180910390f35b61069f611a82565b6040516106ac91906144e3565b60405180910390f35b6106cf60048036038101906106ca9190614623565b611a89565b6040516106dc91906143d9565b60405180910390f35b6106ff60048036038101906106fa9190614399565b611ad9565b60405161070c919061420c565b60405180910390f35b61072f600480360381019061072a9190614399565b611bcd565b60405161073c919061420c565b60405180910390f35b61074d611beb565b60405161075a91906143d9565b60405180910390f35b61077d6004803603810190610778919061430e565b611bf1565b005b610787611dba565b60405161079491906143d9565b60405180910390f35b6107a5611dc0565b6040516107b29190614403565b60405180910390f35b6107d560048036038101906107d091906144fe565b611de6565b005b6107f160048036038101906107ec919061441e565b611e0f565b005b61080d6004803603810190610808919061430e565b611ed5565b005b61082960048036038101906108249190614963565b612187565b60405161083691906143d9565b60405180910390f35b6108596004803603810190610854919061430e565b61220e565b005b61086361224b565b60405161087091906143d9565b60405180910390f35b610893600480360381019061088e919061430e565b612a82565b005b61089d612acd565b6040516108ad94939291906149a3565b60405180910390f35b6000806000806000601060009054906101000a900473ffffffffffffffffffffffffffffffffffffffff1673ffffffffffffffffffffffffffffffffffffffff166321f8a721600160001b6040518263ffffffff1660e01b815260040161091d91906144e3565b60206040518083038186803b15801561093557600080fd5b505afa158015610949573d6000803e3d6000fd5b505050506040513d601f19601f8201168201806040525081019061096d91906149fd565b905073__MarketLibrary_________________________6332c21e133083600d60009054906101000a900473ffffffffffffffffffffffffffffffffffffffff166040518463ffffffff1660e01b81526004016109cc93929190614a39565b60606040518083038186803b1580156109e457600080fd5b505af41580156109f8573d6000803e3d6000fd5b505050506040513d601f19601f82011682018060405250810190610a1c9190614a85565b9050809350819650505073__MarketLibrary_________________________6332c21e133083600e60009054906101000a900473ffffffffffffffffffffffffffffffffffffffff166040518463ffffffff1660e01b8152600401610a8393929190614a39565b60606040518083038186803b158015610a9b57600080fd5b505af4158015610aaf573d6000803e3d6000fd5b505050506040513d601f19601f82011682018060405250810190610ad39190614a85565b5080945081955050505090919293565b60007f7965db0b000000000000000000000000000000000000000000000000000000007bffffffffffffffffffffffffffffffffffffffffffffffffffffffff1916827bffffffffffffffffffffffffffffffffffffffffffffffffffffffff19161480610b565750610b5582612d74565b5b9050919050565b606060038054610b6c90614b07565b80601f0160208091040260200160405190810160405280929190818152602001828054610b9890614b07565b8015610be55780601f10610bba57610100808354040283529160200191610be5565b820191906000526020600020905b815481529060010190602001808311610bc857829003601f168201915b5050505050905090565b7fa49807205ce4d355092ef5a8a18f56e8913cf4a201fbe287825b095693c21775610c2181610c1c612dde565b612de6565b6001821480610c305750600282145b610c3957600080fd5b816011819055505050565b6000610c58610c51612dde565b8484612e83565b6001905092915050565b6000600254905090565b60125481565b600d60009054906101000a900473ffffffffffffffffffffffffffffffffffffffff1681565b6000610ca584848461304e565b6000600160008673ffffffffffffffffffffffffffffffffffffffff1673ffffffffffffffffffffffffffffffffffffffff1681526020019081526020016000206000610cf0612dde565b73ffffffffffffffffffffffffffffffffffffffff1673ffffffffffffffffffffffffffffffffffffffff16815260200190815260200160002054905082811015610d70576040517f08c379a0000000000000000000000000000000000000000000000000000000008152600401610d6790614bab565b60405180910390fd5b610d8d85610d7c612dde565b8584610d889190614bfa565b612e83565b60019150509392505050565b600060056000838152602001908152602001600020600101549050919050565b610dc282610d99565b610dd381610dce612dde565b612de6565b610ddd83836132cd565b505050565b60006012905090565b610df3612dde565b73ffffffffffffffffffffffffffffffffffffffff168173ffffffffffffffffffffffffffffffffffffffff1614610e60576040517f08c379a0000000000000000000000000000000000000000000000000000000008152600401610e5790614ca0565b60405180910390fd5b610e6a82826133ae565b5050565b6000610f10610e7b612dde565b848460016000610e89612dde565b73ffffffffffffffffffffffffffffffffffffffff1673ffffffffffffffffffffffffffffffffffffffff16815260200190815260200160002060008873ffffffffffffffffffffffffffffffffffffffff1673ffffffffffffffffffffffffffffffffffffffff16815260200190815260200160002054610f0b9190614cc0565b612e83565b6001905092915050565b7f28d62fc77014de57a1bbaa8212ff0979fa61ab00d377b4b8d9762048fb41996181565b7fa49807205ce4d355092ef5a8a18f56e8913cf4a201fbe287825b095693c21775610f7081610f6b612dde565b612de6565b6009548210610f7e57600080fd5b81600a819055505050565b6000807fa952726ef2588ad078edf35b066f7c7406e207cb0003bbaba8cb53eba9553e72610fbe81610fb9612dde565b612de6565b600080610fcb6000613490565b9150915073__MarketLibrary_________________________63eea2526b600d60009054906101000a900473ffffffffffffffffffffffffffffffffffffffff16306040518363ffffffff1660e01b815260040161102a929190614d16565b60206040518083038186803b15801561104257600080fd5b505af4158015611056573d6000803e3d6000fd5b505050506040513d601f19601f8201168201806040525081019061107a9190614d3f565b600083121561108a57600061108c565b825b6110969190614d6c565b945073__MarketLibrary_________________________63aa5c12c773__OptionLibrary_________________________63ca0cc13d88856012546040518463ffffffff1660e01b81526004016110ef93929190614e1e565b60206040518083038186803b15801561110757600080fd5b505af415801561111b573d6000803e3d6000fd5b505050506040513d601f19601f8201168201806040525081019061113f9190614e81565b600e60009054906101000a900473ffffffffffffffffffffffffffffffffffffffff166040518363ffffffff1660e01b815260040161117f929190614eae565b60206040518083038186803b15801561119757600080fd5b505af41580156111ab573d6000803e3d6000fd5b505050506040513d601f19601f820116820180604052508101906111cf9190614e81565b935073__MarketLibrary_________________________63aa5c12c786600d60009054906101000a900473ffffffffffffffffffffffffffffffffffffffff166040518363ffffffff1660e01b815260040161122c929190614eae565b60206040518083038186803b15801561124457600080fd5b505af4158015611258573d6000803e3d6000fd5b505050506040513d601f19601f8201168201806040525081019061127c9190614e81565b94505050509091565b600080600c60009054906101000a900473ffffffffffffffffffffffffffffffffffffffff1673ffffffffffffffffffffffffffffffffffffffff1663b0667cf86040518163ffffffff1660e01b8152600401604080518083038186803b1580156112ef57600080fd5b505afa158015611303573d6000803e3d6000fd5b505050506040513d601f19601f820116820180604052508101906113279190614ed7565b5090506000806000806113386108b6565b935093509350935061134d8486600954613637565b82846113599190614cc0565b6113639190614cc0565b95506113728186600954613637565b86116113b3576040517f08c379a00000000000000000000000000000000000000000000000000000000081526004016113aa90614f63565b60405180910390fd5b6113c08186600954613637565b866113cb9190614bfa565b955087156113f2576113e46113de613733565b8761382d565b866113ef9190614bfa565b95505b8615611442576000611402610c62565b111561141f5761141c86600954611417610c62565b613637565b95505b6000611429610c62565b1480156114365750600086145b156114415760095495505b5b505050505092915050565b7fa952726ef2588ad078edf35b066f7c7406e207cb0003bbaba8cb53eba9553e7281565b60008060008373ffffffffffffffffffffffffffffffffffffffff1673ffffffffffffffffffffffffffffffffffffffff168152602001908152602001600020549050919050565b7fa49807205ce4d355092ef5a8a18f56e8913cf4a201fbe287825b095693c2177581565b600a5481565b6114eb614036565b600c60009054906101000a900473ffffffffffffffffffffffffffffffffffffffff1673ffffffffffffffffffffffffffffffffffffffff16631ce5e9a661157a85600660008773ffffffffffffffffffffffffffffffffffffffff1673ffffffffffffffffffffffffffffffffffffffff16815260200190815260200160002061384690919063ffffffff16565b6040518263ffffffff1660e01b815260040161159691906143d9565b6102006040518083038186803b1580156115af57600080fd5b505afa1580156115c3573d6000803e3d6000fd5b505050506040513d601f19601f820116820180604052508101906115e791906151ec565b905092915050565b7f28d62fc77014de57a1bbaa8212ff0979fa61ab00d377b4b8d9762048fb4199616116218161161c612dde565b612de6565b61167282600660008673ffffffffffffffffffffffffffffffffffffffff1673ffffffffffffffffffffffffffffffffffffffff16815260200190815260200160002061386090919063ffffffff16565b5061168782600761386090919063ffffffff16565b50505050565b6000805b61169b600761387a565b81101561178157600c60009054906101000a900473ffffffffffffffffffffffffffffffffffffffff1673ffffffffffffffffffffffffffffffffffffffff166369369ab56116f483600761384690919063ffffffff16565b6040518263ffffffff1660e01b815260040161171091906143d9565b60206040518083038186803b15801561172857600080fd5b505afa15801561173c573d6000803e3d6000fd5b505050506040513d601f19601f82011682018060405250810190611760919061522f565b1561176e5760019150611781565b80806117799061525c565b915050611691565b5090565b60006005600084815260200190815260200160002060000160008373ffffffffffffffffffffffffffffffffffffffff1673ffffffffffffffffffffffffffffffffffffffff16815260200190815260200160002060009054906101000a900460ff16905092915050565b60007f28d62fc77014de57a1bbaa8212ff0979fa61ab00d377b4b8d9762048fb4199616118248161181f612dde565b612de6565b6000600c60009054906101000a900473ffffffffffffffffffffffffffffffffffffffff1673ffffffffffffffffffffffffffffffffffffffff1663b0667cf86040518163ffffffff1660e01b8152600401604080518083038186803b15801561188d57600080fd5b505afa1580156118a1573d6000803e3d6000fd5b505050506040513d601f19601f820116820180604052508101906118c59190614ed7565b5090506000925060005b6118d9600761387a565b8110156119c257600c60009054906101000a900473ffffffffffffffffffffffffffffffffffffffff1673ffffffffffffffffffffffffffffffffffffffff1663b1cbbfb761193283600761384690919063ffffffff16565b84886040518463ffffffff1660e01b8152600401611952939291906152a5565b60206040518083038186803b15801561196a57600080fd5b505afa15801561197e573d6000803e3d6000fd5b505050506040513d601f19601f820116820180604052508101906119a29190614e81565b846119ad91906152dc565b935080806119ba9061525c565b9150506118cf565b505050919050565b6060600480546119d990614b07565b80601f0160208091040260200160405190810160405280929190818152602001828054611a0590614b07565b8015611a525780601f10611a2757610100808354040283529160200191611a52565b820191906000526020600020905b815481529060010190602001808311611a3557829003601f168201915b5050505050905090565b601060009054906101000a900473ffffffffffffffffffffffffffffffffffffffff1681565b6000801b81565b6000611ad2600660008473ffffffffffffffffffffffffffffffffffffffff1673ffffffffffffffffffffffffffffffffffffffff16815260200190815260200160002061387a565b9050919050565b60008060016000611ae8612dde565b73ffffffffffffffffffffffffffffffffffffffff1673ffffffffffffffffffffffffffffffffffffffff16815260200190815260200160002060008573ffffffffffffffffffffffffffffffffffffffff1673ffffffffffffffffffffffffffffffffffffffff16815260200190815260200160002054905082811015611ba5576040517f08c379a0000000000000000000000000000000000000000000000000000000008152600401611b9c906153e2565b60405180910390fd5b611bc2611bb0612dde565b858584611bbd9190614bfa565b612e83565b600191505092915050565b6000611be1611bda612dde565b848461304e565b6001905092915050565b60115481565b6000611cb573__MarketLibrary_________________________63f0742a2584600e60009054906101000a900473ffffffffffffffffffffffffffffffffffffffff166040518363ffffffff1660e01b8152600401611c51929190615402565b60206040518083038186803b158015611c6957600080fd5b505af4158015611c7d573d6000803e3d6000fd5b505050506040513d601f19601f82011682018060405250810190611ca19190614d3f565b600954611cb060006001611285565b613637565b9050600e60009054906101000a900473ffffffffffffffffffffffffffffffffffffffff1673ffffffffffffffffffffffffffffffffffffffff166323b872dd3330856040518463ffffffff1660e01b8152600401611d169392919061542b565b602060405180830381600087803b158015611d3057600080fd5b505af1158015611d44573d6000803e3d6000fd5b505050506040513d601f19601f82011682018060405250810190611d68919061522f565b611d7157600080fd5b611d7b338261388f565b7fd0d5ca25112902dbbf5a70a67eed6edc7513b74f2a7ec0805ca216c99f981cc1338383604051611dae93929190615462565b60405180910390a15050565b600b5481565b600e60009054906101000a900473ffffffffffffffffffffffffffffffffffffffff1681565b611def82610d99565b611e0081611dfb612dde565b612de6565b611e0a83836133ae565b505050565b7fa952726ef2588ad078edf35b066f7c7406e207cb0003bbaba8cb53eba9553e72611e4181611e3c612dde565b612de6565b8373ffffffffffffffffffffffffffffffffffffffff16633950935184846040518363ffffffff1660e01b8152600401611e7c929190615499565b602060405180830381600087803b158015611e9657600080fd5b505af1158015611eaa573d6000803e3d6000fd5b505050506040513d601f19601f82011682018060405250810190611ece919061522f565b5050505050565b600073__MarketLibrary_________________________638170ce80611f08611eff600180611285565b85600954613637565b600e60009054906101000a900473ffffffffffffffffffffffffffffffffffffffff166040518363ffffffff1660e01b8152600401611f48929190615402565b60206040518083038186803b158015611f6057600080fd5b505af4158015611f74573d6000803e3d6000fd5b505050506040513d601f19601f82011682018060405250810190611f989190614d3f565b905080600e60009054906101000a900473ffffffffffffffffffffffffffffffffffffffff1673ffffffffffffffffffffffffffffffffffffffff166370a08231306040518263ffffffff1660e01b8152600401611ff69190614403565b60206040518083038186803b15801561200e57600080fd5b505afa158015612022573d6000803e3d6000fd5b505050506040513d601f19601f820116820180604052508101906120469190614d3f565b11612086576040517f08c379a000000000000000000000000000000000000000000000000000000000815260040161207d9061550e565b60405180910390fd5b61209033836139e3565b600e60009054906101000a900473ffffffffffffffffffffffffffffffffffffffff1673ffffffffffffffffffffffffffffffffffffffff1663a9059cbb33836040518363ffffffff1660e01b81526004016120ed929190615499565b602060405180830381600087803b15801561210757600080fd5b505af115801561211b573d6000803e3d6000fd5b505050506040513d601f19601f8201168201806040525081019061213f919061522f565b61214857600080fd5b7f3a9e5b3b520d77dc26bf05104c863b6b654d4b96fa8031a783ad0dbd905cdf3933838360405161217b93929190615462565b60405180910390a15050565b6000600160008473ffffffffffffffffffffffffffffffffffffffff1673ffffffffffffffffffffffffffffffffffffffff16815260200190815260200160002060008373ffffffffffffffffffffffffffffffffffffffff1673ffffffffffffffffffffffffffffffffffffffff16815260200190815260200160002054905092915050565b7fa49807205ce4d355092ef5a8a18f56e8913cf4a201fbe287825b095693c217756122408161223b612dde565b612de6565b816012819055505050565b6000805b612259600761387a565b81101561235157600c60009054906101000a900473ffffffffffffffffffffffffffffffffffffffff1673ffffffffffffffffffffffffffffffffffffffff166369369ab56122b283600761384690919063ffffffff16565b6040518263ffffffff1660e01b81526004016122ce91906143d9565b60206040518083038186803b1580156122e657600080fd5b505afa1580156122fa573d6000803e3d6000fd5b505050506040513d601f19601f8201168201806040525081019061231e919061522f565b1561233e5761233781600761384690919063ffffffff16565b9150612351565b80806123499061525c565b91505061224f565b506000811115612a7f576000600c60009054906101000a900473ffffffffffffffffffffffffffffffffffffffff1673ffffffffffffffffffffffffffffffffffffffff166385ae10e6836040518263ffffffff1660e01b81526004016123b891906143d9565b604080518083038186803b1580156123cf57600080fd5b505afa1580156123e3573d6000803e3d6000fd5b505050506040513d601f19601f820116820180604052508101906124079190614ed7565b91505073__MarketLibrary_________________________63eea2526b600d60009054906101000a900473ffffffffffffffffffffffffffffffffffffffff16306040518363ffffffff1660e01b8152600401612465929190614d16565b60206040518083038186803b15801561247d57600080fd5b505af4158015612491573d6000803e3d6000fd5b505050506040513d601f19601f820116820180604052508101906124b59190614d3f565b81106124f6576040517f08c379a00000000000000000000000000000000000000000000000000000000081526004016124ed9061557a565b60405180910390fd5b6000811115612a7d57600c60009054906101000a900473ffffffffffffffffffffffffffffffffffffffff1673ffffffffffffffffffffffffffffffffffffffff1663637baf60836040518263ffffffff1660e01b815260040161255a91906143d9565b600060405180830381600087803b15801561257457600080fd5b505af1158015612588573d6000803e3d6000fd5b505050506126878260066000600c60009054906101000a900473ffffffffffffffffffffffffffffffffffffffff1673ffffffffffffffffffffffffffffffffffffffff16631a7985ba876040518263ffffffff1660e01b81526004016125ef91906143d9565b60206040518083038186803b15801561260757600080fd5b505afa15801561261b573d6000803e3d6000fd5b505050506040513d601f19601f8201168201806040525081019061263f91906149fd565b73ffffffffffffffffffffffffffffffffffffffff1673ffffffffffffffffffffffffffffffffffffffff168152602001908152602001600020613bb790919063ffffffff16565b5061269c826007613bb790919063ffffffff16565b5073__MarketLibrary_________________________638170ce8082600d60009054906101000a900473ffffffffffffffffffffffffffffffffffffffff166040518363ffffffff1660e01b81526004016126f8929190615402565b60206040518083038186803b15801561271057600080fd5b505af4158015612724573d6000803e3d6000fd5b505050506040513d601f19601f820116820180604052508101906127489190614d3f565b9050600061275b82600a54600954613637565b9050600061276e83600b54600954613637565b9050600d60009054906101000a900473ffffffffffffffffffffffffffffffffffffffff1673ffffffffffffffffffffffffffffffffffffffff1663a9059cbb600c60009054906101000a900473ffffffffffffffffffffffffffffffffffffffff1673ffffffffffffffffffffffffffffffffffffffff16631a7985ba876040518263ffffffff1660e01b815260040161280991906143d9565b60206040518083038186803b15801561282157600080fd5b505afa158015612835573d6000803e3d6000fd5b505050506040513d601f19601f8201168201806040525081019061285991906149fd565b8385876128669190614bfa565b6128709190614bfa565b6040518363ffffffff1660e01b815260040161288d929190615499565b602060405180830381600087803b1580156128a757600080fd5b505af11580156128bb573d6000803e3d6000fd5b505050506040513d601f19601f820116820180604052508101906128df919061522f565b6128e857600080fd5b600d60009054906101000a900473ffffffffffffffffffffffffffffffffffffffff1673ffffffffffffffffffffffffffffffffffffffff1663a9059cbb600f60009054906101000a900473ffffffffffffffffffffffffffffffffffffffff16846040518363ffffffff1660e01b8152600401612967929190615499565b602060405180830381600087803b15801561298157600080fd5b505af1158015612995573d6000803e3d6000fd5b505050506040513d601f19601f820116820180604052508101906129b9919061522f565b6129c257600080fd5b600d60009054906101000a900473ffffffffffffffffffffffffffffffffffffffff1673ffffffffffffffffffffffffffffffffffffffff1663a9059cbb33836040518363ffffffff1660e01b8152600401612a1f929190615499565b602060405180830381600087803b158015612a3957600080fd5b505af1158015612a4d573d6000803e3d6000fd5b505050506040513d601f19601f82011682018060405250810190612a71919061522f565b612a7a57600080fd5b50505b505b90565b7fa49807205ce4d355092ef5a8a18f56e8913cf4a201fbe287825b095693c21775612ab481612aaf612dde565b612de6565b6009548210612ac257600080fd5b81600b819055505050565b6000806000807fa952726ef2588ad078edf35b066f7c7406e207cb0003bbaba8cb53eba9553e72612b0581612b00612dde565b612de6565b600080612b126000613490565b915091506000601060009054906101000a900473ffffffffffffffffffffffffffffffffffffffff1673ffffffffffffffffffffffffffffffffffffffff166321f8a721600160001b6040518263ffffffff1660e01b8152600401612b7791906144e3565b60206040518083038186803b158015612b8f57600080fd5b505afa158015612ba3573d6000803e3d6000fd5b505050506040513d601f19601f82011682018060405250810190612bc791906149fd565b9050600073__MarketLibrary_________________________63b076288a308487600d60009054906101000a900473ffffffffffffffffffffffffffffffffffffffff166002601154146040518663ffffffff1660e01b8152600401612c319594939291906155a9565b60606040518083038186803b158015612c4957600080fd5b505af4158015612c5d573d6000803e3d6000fd5b505050506040513d601f19601f82011682018060405250810190612c8191906155fc565b809950819350829b5050505073__MarketLibrary_________________________6312638d3a30848487600e60009054906101000a900473ffffffffffffffffffffffffffffffffffffffff16600d60009054906101000a900473ffffffffffffffffffffffffffffffffffffffff166040518763ffffffff1660e01b8152600401612d129695949392919061564f565b604080518083038186803b158015612d2957600080fd5b505af4158015612d3d573d6000803e3d6000fd5b505050506040513d601f19601f82011682018060405250810190612d6191906156b0565b8097508199505050505050505090919293565b60007f01ffc9a7000000000000000000000000000000000000000000000000000000007bffffffffffffffffffffffffffffffffffffffffffffffffffffffff1916827bffffffffffffffffffffffffffffffffffffffffffffffffffffffff1916149050919050565b600033905090565b612df08282611785565b612e7f57612e158173ffffffffffffffffffffffffffffffffffffffff166014613bd1565b612e238360001c6020613bd1565b604051602001612e349291906157c4565b6040516020818303038152906040526040517f08c379a0000000000000000000000000000000000000000000000000000000008152600401612e7691906142c0565b60405180910390fd5b5050565b600073ffffffffffffffffffffffffffffffffffffffff168373ffffffffffffffffffffffffffffffffffffffff161415612ef3576040517f08c379a0000000000000000000000000000000000000000000000000000000008152600401612eea90615870565b60405180910390fd5b600073ffffffffffffffffffffffffffffffffffffffff168273ffffffffffffffffffffffffffffffffffffffff161415612f63576040517f08c379a0000000000000000000000000000000000000000000000000000000008152600401612f5a90615902565b60405180910390fd5b80600160008573ffffffffffffffffffffffffffffffffffffffff1673ffffffffffffffffffffffffffffffffffffffff16815260200190815260200160002060008473ffffffffffffffffffffffffffffffffffffffff1673ffffffffffffffffffffffffffffffffffffffff168152602001908152602001600020819055508173ffffffffffffffffffffffffffffffffffffffff168373ffffffffffffffffffffffffffffffffffffffff167f8c5be1e5ebec7d5bd14f71427d1e84f3dd0314c0f7b2291e5b200ac8c7c3b9258360405161304191906143d9565b60405180910390a3505050565b600073ffffffffffffffffffffffffffffffffffffffff168373ffffffffffffffffffffffffffffffffffffffff1614156130be576040517f08c379a00000000000000000000000000000000000000000000000000000000081526004016130b590615994565b60405180910390fd5b600073ffffffffffffffffffffffffffffffffffffffff168273ffffffffffffffffffffffffffffffffffffffff16141561312e576040517f08c379a000000000000000000000000000000000000000000000000000000000815260040161312590615a26565b60405180910390fd5b613139838383613e0d565b60008060008573ffffffffffffffffffffffffffffffffffffffff1673ffffffffffffffffffffffffffffffffffffffff168152602001908152602001600020549050818110156131bf576040517f08c379a00000000000000000000000000000000000000000000000000000000081526004016131b690615ab8565b60405180910390fd5b81816131cb9190614bfa565b6000808673ffffffffffffffffffffffffffffffffffffffff1673ffffffffffffffffffffffffffffffffffffffff16815260200190815260200160002081905550816000808573ffffffffffffffffffffffffffffffffffffffff1673ffffffffffffffffffffffffffffffffffffffff168152602001908152602001600020600082825461325b9190614cc0565b925050819055508273ffffffffffffffffffffffffffffffffffffffff168473ffffffffffffffffffffffffffffffffffffffff167fddf252ad1be2c89b69c2b068fc378daa952ba7f163c4a11628f55a4df523b3ef846040516132bf91906143d9565b60405180910390a350505050565b6132d78282611785565b6133aa5760016005600084815260200190815260200160002060000160008373ffffffffffffffffffffffffffffffffffffffff1673ffffffffffffffffffffffffffffffffffffffff16815260200190815260200160002060006101000a81548160ff02191690831515021790555061334f612dde565b73ffffffffffffffffffffffffffffffffffffffff168173ffffffffffffffffffffffffffffffffffffffff16837f2f8788117e7eff1d82e926ec794901d17c78024a50270940304540a733656f0d60405160405180910390a45b5050565b6133b88282611785565b1561348c5760006005600084815260200190815260200160002060000160008373ffffffffffffffffffffffffffffffffffffffff1673ffffffffffffffffffffffffffffffffffffffff16815260200190815260200160002060006101000a81548160ff021916908315150217905550613431612dde565b73ffffffffffffffffffffffffffffffffffffffff168173ffffffffffffffffffffffffffffffffffffffff16837ff6391f5c32d9c69d2a47ea670b442974b53935d1edc7fd64eb21e047a839171b60405160405180910390a45b5050565b600080600c60009054906101000a900473ffffffffffffffffffffffffffffffffffffffff1673ffffffffffffffffffffffffffffffffffffffff1663b0667cf86040518163ffffffff1660e01b8152600401604080518083038186803b1580156134fa57600080fd5b505afa15801561350e573d6000803e3d6000fd5b505050506040513d601f19601f820116820180604052508101906135329190614ed7565b50809150506000915060005b613548600761387a565b81101561363157600c60009054906101000a900473ffffffffffffffffffffffffffffffffffffffff1673ffffffffffffffffffffffffffffffffffffffff16638cbb0cd06135a183600761384690919063ffffffff16565b84876040518463ffffffff1660e01b81526004016135c1939291906152a5565b60206040518083038186803b1580156135d957600080fd5b505afa1580156135ed573d6000803e3d6000fd5b505050506040513d601f19601f820116820180604052508101906136119190614e81565b8361361c91906152dc565b925080806136299061525c565b91505061353e565b50915091565b600080600080198587098587029250828110838203039150506000811415613672576000841161366657600080fd5b8382049250505061372c565b80841161367e57600080fd5b60008486880990508281118203915080830392506000856001877fffffffffffffffffffffffffffffffffffffffffffffffffffffffffffffffff0301169050808604955080840493506001818260000304019050808302841793506000600287600302189050808702600203810290508087026002038102905080870260020381029050808702600203810290508087026002038102905080870260020381029050808502955050505050505b9392505050565b6000805b613741600761387a565b81101561382957600c60009054906101000a900473ffffffffffffffffffffffffffffffffffffffff1673ffffffffffffffffffffffffffffffffffffffff1663105df85661379a83600761384690919063ffffffff16565b60006040518363ffffffff1660e01b81526004016137b9929190615ad8565b60206040518083038186803b1580156137d157600080fd5b505afa1580156137e5573d6000803e3d6000fd5b505050506040513d601f19601f820116820180604052508101906138099190614d3f565b826138149190614cc0565b915080806138219061525c565b915050613737565b5090565b600081831061383c578161383e565b825b905092915050565b60006138558360000183613e12565b60001c905092915050565b6000613872836000018360001b613e86565b905092915050565b600061388882600001613ef6565b9050919050565b600073ffffffffffffffffffffffffffffffffffffffff168273ffffffffffffffffffffffffffffffffffffffff1614156138ff576040517f08c379a00000000000000000000000000000000000000000000000000000000081526004016138f690615b4d565b60405180910390fd5b61390b60008383613e0d565b806002600082825461391d9190614cc0565b92505081905550806000808473ffffffffffffffffffffffffffffffffffffffff1673ffffffffffffffffffffffffffffffffffffffff16815260200190815260200160002060008282546139729190614cc0565b925050819055508173ffffffffffffffffffffffffffffffffffffffff16600073ffffffffffffffffffffffffffffffffffffffff167fddf252ad1be2c89b69c2b068fc378daa952ba7f163c4a11628f55a4df523b3ef836040516139d791906143d9565b60405180910390a35050565b600073ffffffffffffffffffffffffffffffffffffffff168273ffffffffffffffffffffffffffffffffffffffff161415613a53576040517f08c379a0000000000000000000000000000000000000000000000000000000008152600401613a4a90615bdf565b60405180910390fd5b613a5f82600083613e0d565b60008060008473ffffffffffffffffffffffffffffffffffffffff1673ffffffffffffffffffffffffffffffffffffffff16815260200190815260200160002054905081811015613ae5576040517f08c379a0000000000000000000000000000000000000000000000000000000008152600401613adc90615c71565b60405180910390fd5b8181613af19190614bfa565b6000808573ffffffffffffffffffffffffffffffffffffffff1673ffffffffffffffffffffffffffffffffffffffff168152602001908152602001600020819055508160026000828254613b459190614bfa565b92505081905550600073ffffffffffffffffffffffffffffffffffffffff168373ffffffffffffffffffffffffffffffffffffffff167fddf252ad1be2c89b69c2b068fc378daa952ba7f163c4a11628f55a4df523b3ef84604051613baa91906143d9565b60405180910390a3505050565b6000613bc9836000018360001b613f07565b905092915050565b606060006002836002613be49190615c91565b613bee9190614cc0565b67ffffffffffffffff811115613c0757613c06614f88565b5b6040519080825280601f01601f191660200182016040528015613c395781602001600182028036833780820191505090505b5090507f300000000000000000000000000000000000000000000000000000000000000081600081518110613c7157613c70615ceb565b5b60200101907effffffffffffffffffffffffffffffffffffffffffffffffffffffffffffff1916908160001a9053507f780000000000000000000000000000000000000000000000000000000000000081600181518110613cd557613cd4615ceb565b5b60200101907effffffffffffffffffffffffffffffffffffffffffffffffffffffffffffff1916908160001a90535060006001846002613d159190615c91565b613d1f9190614cc0565b90505b6001811115613dbf577f3031323334353637383961626364656600000000000000000000000000000000600f861660108110613d6157613d60615ceb565b5b1a60f81b828281518110613d7857613d77615ceb565b5b60200101907effffffffffffffffffffffffffffffffffffffffffffffffffffffffffffff1916908160001a905350600485901c945080613db890615d1a565b9050613d22565b5060008414613e03576040517f08c379a0000000000000000000000000000000000000000000000000000000008152600401613dfa90615d90565b60405180910390fd5b8091505092915050565b505050565b600081836000018054905011613e5d576040517f08c379a0000000000000000000000000000000000000000000000000000000008152600401613e5490615e22565b60405180910390fd5b826000018281548110613e7357613e72615ceb565b5b9060005260206000200154905092915050565b6000613e928383614013565b613eeb578260000182908060018154018082558091505060019003906000526020600020016000909190919091505582600001805490508360010160008481526020019081526020016000208190555060019050613ef0565b600090505b92915050565b600081600001805490509050919050565b60008083600101600084815260200190815260200160002054905060008114614007576000600182613f399190614bfa565b9050600060018660000180549050613f519190614bfa565b90506000866000018281548110613f6b57613f6a615ceb565b5b9060005260206000200154905080876000018481548110613f8f57613f8e615ceb565b5b9060005260206000200181905550838760010160008381526020019081526020016000208190555086600001805480613fcb57613fca615e42565b5b6001900381819060005260206000200160009055905586600101600087815260200190815260200160002060009055600194505050505061400d565b60009150505b92915050565b600080836001016000848152602001908152602001600020541415905092915050565b6040518061020001604052806000600181111561405657614055614690565b5b81526020016000600181111561406f5761406e614690565b5b81526020016000600381111561408857614087614690565b5b8152602001600073ffffffffffffffffffffffffffffffffffffffff1681526020016000815260200160008152602001600081526020016000815260200160008152602001600081526020016000815260200160008152602001600081526020016000815260200160008152602001600081525090565b6000819050919050565b614112816140ff565b82525050565b600060808201905061412d6000830187614109565b61413a6020830186614109565b6141476040830185614109565b6141546060830184614109565b95945050505050565b6000604051905090565b600080fd5b60007fffffffff0000000000000000000000000000000000000000000000000000000082169050919050565b6141a18161416c565b81146141ac57600080fd5b50565b6000813590506141be81614198565b92915050565b6000602082840312156141da576141d9614167565b5b60006141e8848285016141af565b91505092915050565b60008115159050919050565b614206816141f1565b82525050565b600060208201905061422160008301846141fd565b92915050565b600081519050919050565b600082825260208201905092915050565b60005b83811015614261578082015181840152602081019050614246565b83811115614270576000848401525b50505050565b6000601f19601f8301169050919050565b600061429282614227565b61429c8185614232565b93506142ac818560208601614243565b6142b581614276565b840191505092915050565b600060208201905081810360008301526142da8184614287565b905092915050565b6142eb816140ff565b81146142f657600080fd5b50565b600081359050614308816142e2565b92915050565b60006020828403121561432457614323614167565b5b6000614332848285016142f9565b91505092915050565b600073ffffffffffffffffffffffffffffffffffffffff82169050919050565b60006143668261433b565b9050919050565b6143768161435b565b811461438157600080fd5b50565b6000813590506143938161436d565b92915050565b600080604083850312156143b0576143af614167565b5b60006143be85828601614384565b92505060206143cf858286016142f9565b9150509250929050565b60006020820190506143ee6000830184614109565b92915050565b6143fd8161435b565b82525050565b600060208201905061441860008301846143f4565b92915050565b60008060006060848603121561443757614436614167565b5b600061444586828701614384565b935050602061445686828701614384565b9250506040614467868287016142f9565b9150509250925092565b6000819050919050565b61448481614471565b811461448f57600080fd5b50565b6000813590506144a18161447b565b92915050565b6000602082840312156144bd576144bc614167565b5b60006144cb84828501614492565b91505092915050565b6144dd81614471565b82525050565b60006020820190506144f860008301846144d4565b92915050565b6000806040838503121561451557614514614167565b5b600061452385828601614492565b925050602061453485828601614384565b9150509250929050565b600060ff82169050919050565b6145548161453e565b82525050565b600060208201905061456f600083018461454b565b92915050565b6000819050919050565b61458881614575565b82525050565b60006040820190506145a3600083018561457f565b6145b0602083018461457f565b9392505050565b6145c0816141f1565b81146145cb57600080fd5b50565b6000813590506145dd816145b7565b92915050565b600080604083850312156145fa576145f9614167565b5b6000614608858286016145ce565b9250506020614619858286016145ce565b9150509250929050565b60006020828403121561463957614638614167565b5b600061464784828501614384565b91505092915050565b6000806040838503121561466757614666614167565b5b6000614675858286016142f9565b925050602061468685828601614384565b9150509250929050565b7f4e487b7100000000000000000000000000000000000000000000000000000000600052602160045260246000fd5b600281106146d0576146cf614690565b5b50565b60008190506146e1826146bf565b919050565b60006146f1826146d3565b9050919050565b614701816146e6565b82525050565b6002811061471857614717614690565b5b50565b600081905061472982614707565b919050565b60006147398261471b565b9050919050565b6147498161472e565b82525050565b600481106147605761475f614690565b5b50565b60008190506147718261474f565b919050565b600061478182614763565b9050919050565b61479181614776565b82525050565b6147a08161435b565b82525050565b6147af816140ff565b82525050565b610200820160008201516147cc60008501826146f8565b5060208201516147df6020850182614740565b5060408201516147f26040850182614788565b5060608201516148056060850182614797565b50608082015161481860808501826147a6565b5060a082015161482b60a08501826147a6565b5060c082015161483e60c08501826147a6565b5060e082015161485160e08501826147a6565b506101008201516148666101008501826147a6565b5061012082015161487b6101208501826147a6565b506101408201516148906101408501826147a6565b506101608201516148a56101608501826147a6565b506101808201516148ba6101808501826147a6565b506101a08201516148cf6101a08501826147a6565b506101c08201516148e46101c08501826147a6565b506101e08201516148f96101e08501826147a6565b50505050565b60006102008201905061491560008301846147b5565b92915050565b60006020828403121561493157614930614167565b5b600061493f848285016145ce565b91505092915050565b600060208201905061495d600083018461457f565b92915050565b6000806040838503121561497a57614979614167565b5b600061498885828601614384565b925050602061499985828601614384565b9150509250929050565b60006080820190506149b8600083018761457f565b6149c5602083018661457f565b6149d260408301856143f4565b6149df60608301846143f4565b95945050505050565b6000815190506149f78161436d565b92915050565b600060208284031215614a1357614a12614167565b5b6000614a21848285016149e8565b91505092915050565b614a338161435b565b82525050565b6000606082019050614a4e6000830186614a2a565b614a5b6020830185614a2a565b614a686040830184614a2a565b949350505050565b600081519050614a7f816142e2565b92915050565b600080600060608486031215614a9e57614a9d614167565b5b6000614aac86828701614a70565b9350506020614abd86828701614a70565b9250506040614ace86828701614a70565b9150509250925092565b7f4e487b7100000000000000000000000000000000000000000000000000000000600052602260045260246000fd5b60006002820490506001821680614b1f57607f821691505b60208210811415614b3357614b32614ad8565b5b50919050565b7f45524332303a207472616e7366657220616d6f756e742065786365656473206160008201527f6c6c6f77616e6365000000000000000000000000000000000000000000000000602082015250565b6000614b95602883614232565b9150614ba082614b39565b604082019050919050565b60006020820190508181036000830152614bc481614b88565b9050919050565b7f4e487b7100000000000000000000000000000000000000000000000000000000600052601160045260246000fd5b6000614c05826140ff565b9150614c10836140ff565b925082821015614c2357614c22614bcb565b5b828203905092915050565b7f416363657373436f6e74726f6c3a2063616e206f6e6c792072656e6f756e636560008201527f20726f6c657320666f722073656c660000000000000000000000000000000000602082015250565b6000614c8a602f83614232565b9150614c9582614c2e565b604082019050919050565b60006020820190508181036000830152614cb981614c7d565b9050919050565b6000614ccb826140ff565b9150614cd6836140ff565b9250827fffffffffffffffffffffffffffffffffffffffffffffffffffffffffffffffff03821115614d0b57614d0a614bcb565b5b828201905092915050565b6000604082019050614d2b6000830185614a2a565b614d386020830184614a2a565b9392505050565b600060208284031215614d5557614d54614167565b5b6000614d6384828501614a70565b91505092915050565b6000614d7782614575565b9150614d8283614575565b9250827f800000000000000000000000000000000000000000000000000000000000000001821260008412151615614dbd57614dbc614bcb565b5b827f7fffffffffffffffffffffffffffffffffffffffffffffffffffffffffffffff018213600084121615614df557614df4614bcb565b5b828203905092915050565b614e0981614575565b82525050565b614e18816140ff565b82525050565b6000606082019050614e336000830186614e00565b614e406020830185614e0f565b614e4d6040830184614e0f565b949350505050565b614e5e81614575565b8114614e6957600080fd5b50565b600081519050614e7b81614e55565b92915050565b600060208284031215614e9757614e96614167565b5b6000614ea584828501614e6c565b91505092915050565b6000604082019050614ec36000830185614e00565b614ed06020830184614a2a565b9392505050565b60008060408385031215614eee57614eed614167565b5b6000614efc85828601614a70565b9250506020614f0d85828601614a70565b9150509250929050565b7f4e65676174697665206571756974792e00000000000000000000000000000000600082015250565b6000614f4d601083614232565b9150614f5882614f17565b602082019050919050565b60006020820190508181036000830152614f7c81614f40565b9050919050565b600080fd5b7f4e487b7100000000000000000000000000000000000000000000000000000000600052604160045260246000fd5b614fc082614276565b810181811067ffffffffffffffff82111715614fdf57614fde614f88565b5b80604052505050565b6000614ff261415d565b9050614ffe8282614fb7565b919050565b6002811061501057600080fd5b50565b60008151905061502281615003565b92915050565b6002811061503557600080fd5b50565b60008151905061504781615028565b92915050565b6004811061505a57600080fd5b50565b60008151905061506c8161504d565b92915050565b6000610200828403121561508957615088614f83565b5b615094610200614fe8565b905060006150a484828501615013565b60008301525060206150b884828501615038565b60208301525060406150cc8482850161505d565b60408301525060606150e0848285016149e8565b60608301525060806150f484828501614a70565b60808301525060a061510884828501614a70565b60a08301525060c061511c84828501614a70565b60c08301525060e061513084828501614a70565b60e08301525061010061514584828501614a70565b6101008301525061012061515b84828501614a70565b6101208301525061014061517184828501614a70565b6101408301525061016061518784828501614a70565b6101608301525061018061519d84828501614a70565b610180830152506101a06151b384828501614a70565b6101a0830152506101c06151c984828501614a70565b6101c0830152506101e06151df84828501614a70565b6101e08301525092915050565b6000610200828403121561520357615202614167565b5b600061521184828501615072565b91505092915050565b600081519050615229816145b7565b92915050565b60006020828403121561524557615244614167565b5b60006152538482850161521a565b91505092915050565b6000615267826140ff565b91507fffffffffffffffffffffffffffffffffffffffffffffffffffffffffffffffff82141561529a57615299614bcb565b5b600182019050919050565b60006060820190506152ba6000830186614109565b6152c76020830185614109565b6152d460408301846141fd565b949350505050565b60006152e782614575565b91506152f283614575565b9250817f7fffffffffffffffffffffffffffffffffffffffffffffffffffffffffffffff0383136000831215161561532d5761532c614bcb565b5b817f800000000000000000000000000000000000000000000000000000000000000003831260008312161561536557615364614bcb565b5b828201905092915050565b7f45524332303a2064656372656173656420616c6c6f77616e63652062656c6f7760008201527f207a65726f000000000000000000000000000000000000000000000000000000602082015250565b60006153cc602583614232565b91506153d782615370565b604082019050919050565b600060208201905081810360008301526153fb816153bf565b9050919050565b60006040820190506154176000830185614e0f565b6154246020830184614a2a565b9392505050565b600060608201905061544060008301866143f4565b61544d60208301856143f4565b61545a6040830184614109565b949350505050565b600060608201905061547760008301866143f4565b6154846020830185614109565b6154916040830184614109565b949350505050565b60006040820190506154ae60008301856143f4565b6154bb6020830184614109565b9392505050565b7f496e73756666696369656e742062616c616e6365000000000000000000000000600082015250565b60006154f8601483614232565b9150615503826154c2565b602082019050919050565b60006020820190508181036000830152615527816154eb565b9050919050565b7f42616c616e636520696e73756666696369656e742e0000000000000000000000600082015250565b6000615564601583614232565b915061556f8261552e565b602082019050919050565b6000602082019050818103600083015261559381615557565b9050919050565b6155a3816141f1565b82525050565b600060a0820190506155be6000830188614a2a565b6155cb6020830187614a2a565b6155d86040830186614e00565b6155e56060830185614a2a565b6155f2608083018461559a565b9695505050505050565b60008060006060848603121561561557615614614167565b5b600061562386828701614e6c565b935050602061563486828701614a70565b9250506040615645868287016149e8565b9150509250925092565b600060c0820190506156646000830189614a2a565b6156716020830188614a2a565b61567e6040830187614e0f565b61568b6060830186614e0f565b6156986080830185614a2a565b6156a560a0830184614a2a565b979650505050505050565b600080604083850312156156c7576156c6614167565b5b60006156d585828601614e6c565b92505060206156e6858286016149e8565b9150509250929050565b600081905092915050565b7f416363657373436f6e74726f6c3a206163636f756e7420000000000000000000600082015250565b60006157316017836156f0565b915061573c826156fb565b601782019050919050565b600061575282614227565b61575c81856156f0565b935061576c818560208601614243565b80840191505092915050565b7f206973206d697373696e6720726f6c6520000000000000000000000000000000600082015250565b60006157ae6011836156f0565b91506157b982615778565b601182019050919050565b60006157cf82615724565b91506157db8285615747565b91506157e6826157a1565b91506157f28284615747565b91508190509392505050565b7f45524332303a20617070726f76652066726f6d20746865207a65726f2061646460008201527f7265737300000000000000000000000000000000000000000000000000000000602082015250565b600061585a602483614232565b9150615865826157fe565b604082019050919050565b600060208201905081810360008301526158898161584d565b9050919050565b7f45524332303a20617070726f766520746f20746865207a65726f20616464726560008201527f7373000000000000000000000000000000000000000000000000000000000000602082015250565b60006158ec602283614232565b91506158f782615890565b604082019050919050565b6000602082019050818103600083015261591b816158df565b9050919050565b7f45524332303a207472616e736665722066726f6d20746865207a65726f20616460008201527f6472657373000000000000000000000000000000000000000000000000000000602082015250565b600061597e602583614232565b915061598982615922565b604082019050919050565b600060208201905081810360008301526159ad81615971565b9050919050565b7f45524332303a207472616e7366657220746f20746865207a65726f206164647260008201527f6573730000000000000000000000000000000000000000000000000000000000602082015250565b6000615a10602383614232565b9150615a1b826159b4565b604082019050919050565b60006020820190508181036000830152615a3f81615a03565b9050919050565b7f45524332303a207472616e7366657220616d6f756e742065786365656473206260008201527f616c616e63650000000000000000000000000000000000000000000000000000602082015250565b6000615aa2602683614232565b9150615aad82615a46565b604082019050919050565b60006020820190508181036000830152615ad181615a95565b9050919050565b6000604082019050615aed6000830185614109565b615afa60208301846141fd565b9392505050565b7f45524332303a206d696e7420746f20746865207a65726f206164647265737300600082015250565b6000615b37601f83614232565b9150615b4282615b01565b602082019050919050565b60006020820190508181036000830152615b6681615b2a565b9050919050565b7f45524332303a206275726e2066726f6d20746865207a65726f2061646472657360008201527f7300000000000000000000000000000000000000000000000000000000000000602082015250565b6000615bc9602183614232565b9150615bd482615b6d565b604082019050919050565b60006020820190508181036000830152615bf881615bbc565b9050919050565b7f45524332303a206275726e20616d6f756e7420657863656564732062616c616e60008201527f6365000000000000000000000000000000000000000000000000000000000000602082015250565b6000615c5b602283614232565b9150615c6682615bff565b604082019050919050565b60006020820190508181036000830152615c8a81615c4e565b9050919050565b6000615c9c826140ff565b9150615ca7836140ff565b9250817fffffffffffffffffffffffffffffffffffffffffffffffffffffffffffffffff0483118215151615615ce057615cdf614bcb565b5b828202905092915050565b7f4e487b7100000000000000000000000000000000000000000000000000000000600052603260045260246000fd5b6000615d25826140ff565b91506000821415615d3957615d38614bcb565b5b600182039050919050565b7f537472696e67733a20686578206c656e67746820696e73756666696369656e74600082015250565b6000615d7a602083614232565b9150615d8582615d44565b602082019050919050565b60006020820190508181036000830152615da981615d6d565b9050919050565b7f456e756d657261626c655365743a20696e646578206f7574206f6620626f756e60008201527f6473000000000000000000000000000000000000000000000000000000000000602082015250565b6000615e0c602283614232565b9150615e1782615db0565b604082019050919050565b60006020820190508181036000830152615e3b81615dff565b9050919050565b7f4e487b7100000000000000000000000000000000000000000000000000000000600052603160045260246000fdfea2646970667358221220afc00d21a2c34dd3ba4bba1226f417457085b243f0fdbdd4aa33eb503d5b7f5d64736f6c63430008090033",
  "immutableReferences": {},
  "source": "// SPDX-License-Identifier: MIT\npragma solidity 0.8.9;\n\n// import \"@openzeppelin/contracts/token/ERC20/ERC20.sol\";\nimport \"@openzeppelin/contracts/access/AccessControl.sol\";\nimport \"@openzeppelin/contracts/utils/structs/EnumerableSet.sol\";\nimport \"@openzeppelin/contracts/utils/math/Math.sol\";\nimport \"./MoretInterfaces.sol\";\nimport \"./MarketLibrary.sol\";\n\ncontract MoretMarketMaker is ERC20, AccessControl, EOption\n{\n  using EnumerableSet for EnumerableSet.UintSet;\n  using EnumerableSet for EnumerableSet.AddressSet;\n\n  bytes32 public constant ADMIN_ROLE = keccak256(\"ADMIN_ROLE\");\n  bytes32 public constant EXCHANGE_ROLE = keccak256(\"EXCHANGE_ROLE\");\n  bytes32 public constant MINER_ROLE = keccak256(\"MINER_ROLE\");\n  mapping(address=> EnumerableSet.UintSet) internal activeOptionsPerOwner;\n  EnumerableSet.UintSet internal activeOptions;\n\n  uint256 private multiplier = 10 ** 18;\n  uint256 public settlementFee= 5 * (10 ** 15);\n  uint256 public exerciseFee= 5 * (10 ** 15);\n  IOptionVault internal optionVault;\n\n  address public underlyingAddress;\n  address public fundingAddress;\n  address internal maintenanceAddress;\n  address public aaveAddressProviderAddress;\n  uint256 public lendingPoolRateMode = 2;\n  uint256 public swapSlippage = 0;\n  \n  constructor(string memory _name, string memory _symbol, address _underlyingAddress, address _fundingAddress, address _optionAddress, address _aaveAddressProviderAddress) ERC20(_name, _symbol){\n    _setupRole(DEFAULT_ADMIN_ROLE, msg.sender);\n    _setupRole(ADMIN_ROLE, msg.sender);\n    _setupRole(EXCHANGE_ROLE, msg.sender);\n    _setupRole(MINER_ROLE, msg.sender);\n    maintenanceAddress = msg.sender;\n    fundingAddress = _fundingAddress;\n    underlyingAddress = _underlyingAddress;\n    optionVault = IOptionVault(_optionAddress);\n    aaveAddressProviderAddress = _aaveAddressProviderAddress;\n    _mint(msg.sender, multiplier);}\n\n  function recordOptionPurchase(address _purchaser, uint256 _id) external  onlyRole(EXCHANGE_ROLE){\n    activeOptionsPerOwner[_purchaser].add(_id);\n    activeOptions.add(_id);}\n\n  function getAggregateGamma(bool _ignoreSells) public onlyRole(EXCHANGE_ROLE) view returns(int256 _gamma){\n    (uint256 _price,) = optionVault.queryPrice();\n    _gamma= 0;\n    for(uint256 i=0;i<activeOptions.length();i++){\n      _gamma += optionVault.calculateContractGamma(uint256(activeOptions.at(i)),_price, _ignoreSells);}}\n\n  function getAggregateDelta(bool _ignoreSells) internal view returns(int256 _delta,uint256 _price){\n    (_price,) = optionVault.queryPrice();\n    _delta= 0;\n    for(uint256 i=0;i<activeOptions.length();i++){\n      _delta += optionVault.calculateContractDelta(uint256(activeOptions.at(i)),_price, _ignoreSells);}}\n\n  function getBalances() public view returns(uint256 _underlyingBalance, uint256 _fundingBalance, uint256 _collateralBalance, uint256 _debtBalance){\n    address _protocolDataProviderAddress = ILendingPoolAddressesProvider(aaveAddressProviderAddress).getAddress(bytes32(uint256(1)));\n    ( _underlyingBalance, ,  _debtBalance) = MarketLibrary.getTokenBalances(address(this), _protocolDataProviderAddress, underlyingAddress);\n    ( _fundingBalance,  _collateralBalance,) = MarketLibrary.getTokenBalances(address(this), _protocolDataProviderAddress, fundingAddress); }\n\n  function anyOptionExpiring() external view returns(bool _isExpiring) {\n    _isExpiring = false;\n    for(uint256 i=0;i<activeOptions.length();i++){\n      if(optionVault.isOptionExpiring(uint256(activeOptions.at(i)))){\n        _isExpiring = true;\n        break;}}}\n\n  function expireOptions() external  returns(uint256 _expiringId){\n    _expiringId = 0;\n    for(uint256 i=0;i<activeOptions.length();i++){\n      if(optionVault.isOptionExpiring(uint256(activeOptions.at(i)))){\n        _expiringId = uint256(activeOptions.at(i));\n        break;}}\n    if(_expiringId >0) {\n      ( , uint256 _payback) = optionVault.getContractPayoff(_expiringId);\n      require(_payback < MarketLibrary.balanceDef(underlyingAddress, address(this)), \"Balance insufficient.\");\n      if(_payback > 0){\n        optionVault.stampExpiredOption(_expiringId);\n        activeOptionsPerOwner[optionVault.getOptionHolder(_expiringId)].remove(_expiringId);\n        activeOptions.remove(_expiringId);\n\n        _payback = MarketLibrary.cvtDecimals(_payback, underlyingAddress);\n        uint256 _settleFeeAmount = MulDiv(_payback, settlementFee, multiplier);\n        uint256 _exerciseFeeAmount = MulDiv(_payback, exerciseFee, multiplier);\n\n        require(IERC20(underlyingAddress).transfer(optionVault.getOptionHolder(_expiringId), _payback - _settleFeeAmount - _exerciseFeeAmount));\n        require(IERC20(underlyingAddress).transfer(maintenanceAddress, _settleFeeAmount));\n        require(IERC20(underlyingAddress).transfer(msg.sender, _exerciseFeeAmount));}}}\n\n  function getAggregateNotional() internal view returns(uint256 _notional) {\n    _notional= 0;\n    for(uint256 i=0;i<activeOptions.length();i++){\n      _notional += optionVault.queryOptionNotional(uint256(activeOptions.at(i)), false);} }\n\n  function calcCapital(bool _net, bool _average) public view returns(uint256 _capital){\n      (uint256 _price, ) = optionVault.queryPrice();\n      (uint256 _underlying_balance, uint256 _funding_balance, uint256 _collateral_balance, uint256 _debt_balance) = getBalances();\n      _capital = _funding_balance + _collateral_balance + MulDiv(_underlying_balance, _price, multiplier);\n      require(_capital > MulDiv(_debt_balance, _price, multiplier), \"Negative equity.\");\n      _capital -= MulDiv(_debt_balance, _price, multiplier);\n\n      if(_net){ _capital -= Math.min(getAggregateNotional(), _capital);}\n      if(_average){ \n        if(totalSupply() > 0) _capital = MulDiv(_capital , multiplier , totalSupply()); \n        if(totalSupply() == 0 && _capital == 0) _capital = multiplier;}}\n    \n  function addCapital(uint256 _depositAmount) external {\n      uint256 _mintMPTokenAmount = MulDiv(MarketLibrary.cvtDef(_depositAmount, fundingAddress), multiplier, calcCapital(false, true));\n      require(ERC20(fundingAddress).transferFrom(msg.sender, address(this), _depositAmount));\n      _mint(msg.sender, _mintMPTokenAmount);\n      emit capitalAdded(msg.sender, _depositAmount, _mintMPTokenAmount);}\n\n  function withdrawCapital(uint256 _burnMPTokenAmount) external {\n      uint256 _withdrawValue = MarketLibrary.cvtDecimals(MulDiv(calcCapital(true, true),  _burnMPTokenAmount , multiplier), fundingAddress); \n      require(IERC20(fundingAddress).balanceOf(address(this)) > _withdrawValue,\"Insufficient balance\");\n      _burn(msg.sender, _burnMPTokenAmount);\n      require(ERC20(fundingAddress).transfer(msg.sender, _withdrawValue));\n      emit capitalWithdrawn(msg.sender, _burnMPTokenAmount, _withdrawValue);}\n  \n  function approveSpending(address _tokenAddress, address _spenderAddress, uint256 _amount) external onlyRole(MINER_ROLE){\n    ERC20(_tokenAddress).increaseAllowance(_spenderAddress, _amount);}\n\n  function calcHedgeTradesForSwaps() external onlyRole(MINER_ROLE) view returns(int256 _tradeUnderlyingAmount, int256 _tradeFundingAmount){\n    (int256 _aggregateDelta, uint256 _price) = getAggregateDelta(false);\n    _tradeUnderlyingAmount = (_aggregateDelta >= 0? _aggregateDelta: int256(0)) - int256(MarketLibrary.balanceDef(underlyingAddress, address(this)));\n    _tradeFundingAmount = MarketLibrary.cvtDecimalsInt(OptionLibrary.getOpposeTrade(_tradeUnderlyingAmount, _price, swapSlippage), fundingAddress);\n    _tradeUnderlyingAmount = MarketLibrary.cvtDecimalsInt(_tradeUnderlyingAmount, underlyingAddress);}\n\n  function calcHedgeTradesForLoans() external onlyRole(MINER_ROLE) view returns(int256 _loanTradeAmount, int256 _collateralChange, address _loanAddress, address _collateralAddress){\n    (int256 _aggregateDelta, uint256 _price) = getAggregateDelta(false);\n    address _protocolDataProviderAddress = ILendingPoolAddressesProvider(aaveAddressProviderAddress).getAddress(bytes32(uint256(1)));\n    uint256 _targetLoan = 0;\n    (_loanTradeAmount, _targetLoan, _loanAddress) = MarketLibrary.getLoanTrade(address(this), _protocolDataProviderAddress, _aggregateDelta, underlyingAddress, lendingPoolRateMode == 2);\n    (_collateralChange, _collateralAddress) = MarketLibrary.getCollateralTrade(address(this), _protocolDataProviderAddress, _targetLoan, _price, fundingAddress, underlyingAddress);}\n\n  // function depositCollateral(uint256 _addCollateral, address _lendingPoolAddress) external onlyRole(EXCHANGE_ROLE){\n  //   ERC20(fundingAddress).increaseAllowance(_lendingPoolAddress, _addCollateral);\n  //   ILendingPool(_lendingPoolAddress).deposit(fundingAddress, _addCollateral, address(this), 0);}\n\n  // function withdrawCollateral(uint256 _removeCollateral, address _lendingPoolAddress) external onlyRole(EXCHANGE_ROLE){\n  //   (address _collateralAddress,,) = MarketLibrary.getLendingTokenAddresses(protocolDataProviderAddress, fundingAddress);\n  //   ERC20(_collateralAddress).increaseAllowance(_lendingPoolAddress, _removeCollateral);\n  //   ILendingPool(_lendingPoolAddress).withdraw(fundingAddress, _removeCollateral, address(this));}\n\n  // function borrowLoans(uint256 _borrowAmount , address _lendingPoolAddress, uint256 _lendingPoolRateMode)  external onlyRole(EXCHANGE_ROLE) {\n  //   ILendingPool(_lendingPoolAddress).borrow(underlyingAddress, _borrowAmount, _lendingPoolRateMode,  0, address(this));}\n\n  // function repayLoans(uint256 _repayAmount, address _lendingPoolAddress, uint256 _lendingPoolRateMode)  external onlyRole(EXCHANGE_ROLE) {\n  //   (,address _stableDebt, address _debtToken) = MarketLibrary.getLendingTokenAddresses(protocolDataProviderAddress, underlyingAddress);\n  //   if(_lendingPoolRateMode==1) _debtToken = _stableDebt;\n  //   ERC20(_debtToken).approve(_lendingPoolAddress, _repayAmount);\n  //   ERC20(underlyingAddress).approve(_lendingPoolAddress, _repayAmount);\n  //   ILendingPool(_lendingPoolAddress).repay(underlyingAddress, _repayAmount, _lendingPoolRateMode, address(this));}\n\n  // function swapToUnderlyingAtVenue(uint256 _underlyingAmount, address _exchangeAddress, uint256 _maxSlippage, uint256 _deadlineLag) external onlyRole(EXCHANGE_ROLE)  returns(uint256[] memory _swappedAmounts){\n  //   address[] memory _path = new address[](2);\n  //   _path[0] = fundingAddress;\n  //   _path[1] = underlyingAddress; \n  //   (uint256 _price,, uint256 _priceMultiplier) = optionVault.queryPrice();\n  //   uint256 _maxCost = MulDiv(MulDiv(_underlyingAmount, _price, _priceMultiplier), ethMultiplier + _maxSlippage, ethMultiplier);\n  //   ERC20(fundingAddress).increaseAllowance(_exchangeAddress, _maxCost);\n  //   _swappedAmounts = IUniswapV2Router02(_exchangeAddress).swapTokensForExactTokens(_underlyingAmount, _maxCost, _path, address(this), block.timestamp + _deadlineLag); }\n\n  // function swapToFundingAtVenue(uint256 _underlyingAmount,  address _exchangeAddress, uint256 _maxSlippage, uint256 _deadlineLag) external onlyRole(EXCHANGE_ROLE)   returns(uint256[] memory _swappedAmounts) {\n  //   ERC20(underlyingAddress).increaseAllowance(_exchangeAddress, _underlyingAmount);\n  //   address[] memory _path = new address[](2);\n  //   _path[0] = underlyingAddress;\n  //   _path[1] = fundingAddress;\n  //   (uint256 _price,, uint256 _priceMultiplier) = optionVault.queryPrice();\n  //   uint256 _minReturn = MulDiv(MulDiv(_underlyingAmount, _price, _priceMultiplier), ethMultiplier - _maxSlippage, ethMultiplier);\n  //   _swappedAmounts = IUniswapV2Router02(_exchangeAddress).swapExactTokensForTokens(_underlyingAmount, _minReturn, _path, address(this), block.timestamp + _deadlineLag);}\n\n  // function swapAtAggregator(uint256 _underlyingAmount, address _exchangeAddress, uint256 _maxSlippage, bool _toUnderlying ) external onlyRole(EXCHANGE_ROLE)  returns(uint256 _swappedAmountFrom, uint256 _swappedAmountTo){\n  //   (uint256 _price,, uint256 _priceMultiplier) = optionVault.queryPrice();\n  //   address _swapFrom = _toUnderlying? fundingAddress: underlyingAddress;\n  //   address _swapTo = _toUnderlying? underlyingAddress: fundingAddress;\n  //   _swappedAmountFrom = _toUnderlying? MulDiv(MulDiv(_underlyingAmount, _price, _priceMultiplier), ethMultiplier + _maxSlippage, ethMultiplier):_underlyingAmount;\n  //   (uint256 _returnAmount, uint256[] memory _distribution) = I1InchProtocol(_exchangeAddress).getExpectedReturn( IERC20(_swapFrom) , IERC20(_swapTo) , _swappedAmountFrom, 1, 0);\n  //   ERC20(_swapFrom).increaseAllowance(_exchangeAddress, _swappedAmountFrom);\n  //   _swappedAmountTo = I1InchProtocol(_exchangeAddress).swap( IERC20(_swapFrom), IERC20(_swapTo), _swappedAmountFrom, _returnAmount, _distribution, 0);}\n\n  function resetSettlementFee(uint256 _newFee) external onlyRole(ADMIN_ROLE){ require(_newFee < multiplier); settlementFee = _newFee;}\n  function resetExerciseFee(uint256 _newFee) external onlyRole(ADMIN_ROLE){ require(_newFee < multiplier); exerciseFee = _newFee;}\n  // function resetMaintenance(address _newAddress) external onlyRole(ADMIN_ROLE){ maintenanceAddress = _newAddress;}\n  function resetSlippage(uint256 _slippage) external onlyRole(ADMIN_ROLE){ swapSlippage = _slippage;}\n  function resetLendingPoolRateMode(uint256 _newRateMode) external onlyRole(ADMIN_ROLE) {\n    require(_newRateMode == 1 || _newRateMode == 2);\n    lendingPoolRateMode = _newRateMode;}\n  function getHoldersOptionCount(address _address) external view returns(uint256){return activeOptionsPerOwner[_address].length();}\n  function getHoldersOption(uint256 _index, address _address) external view returns(OptionLibrary.Option memory) {return optionVault.getOption(activeOptionsPerOwner[_address].at(_index));}\n\n}\n",
  "sourcePath": "/Users/apple/Documents/GitHub/moret/contracts/MoretMarketMaker.sol",
  "compiler": {
    "name": "solc",
    "version": "0.8.9+commit.e5eed63a.Emscripten.clang"
  },
  "schemaVersion": "3.4.3",
  "updatedAt": "2021-11-05T00:11:03.249Z",
  "networkType": "ethereum",
  "devdoc": {
    "kind": "dev",
    "methods": {
      "allowance(address,address)": {
        "details": "See {IERC20-allowance}."
      },
      "approve(address,uint256)": {
        "details": "See {IERC20-approve}. Requirements: - `spender` cannot be the zero address."
      },
      "balanceOf(address)": {
        "details": "See {IERC20-balanceOf}."
      },
      "decimals()": {
        "details": "Returns the number of decimals used to get its user representation. For example, if `decimals` equals `2`, a balance of `505` tokens should be displayed to a user as `5,05` (`505 / 10 ** 2`). Tokens usually opt for a value of 18, imitating the relationship between Ether and Wei. This is the value {ERC20} uses, unless this function is overridden; NOTE: This information is only used for _display_ purposes: it in no way affects any of the arithmetic of the contract, including {IERC20-balanceOf} and {IERC20-transfer}."
      },
      "decreaseAllowance(address,uint256)": {
        "details": "Atomically decreases the allowance granted to `spender` by the caller. This is an alternative to {approve} that can be used as a mitigation for problems described in {IERC20-approve}. Emits an {Approval} event indicating the updated allowance. Requirements: - `spender` cannot be the zero address. - `spender` must have allowance for the caller of at least `subtractedValue`."
      },
      "getRoleAdmin(bytes32)": {
        "details": "Returns the admin role that controls `role`. See {grantRole} and {revokeRole}. To change a role's admin, use {_setRoleAdmin}."
      },
      "grantRole(bytes32,address)": {
        "details": "Grants `role` to `account`. If `account` had not been already granted `role`, emits a {RoleGranted} event. Requirements: - the caller must have ``role``'s admin role."
      },
      "hasRole(bytes32,address)": {
        "details": "Returns `true` if `account` has been granted `role`."
      },
      "increaseAllowance(address,uint256)": {
        "details": "Atomically increases the allowance granted to `spender` by the caller. This is an alternative to {approve} that can be used as a mitigation for problems described in {IERC20-approve}. Emits an {Approval} event indicating the updated allowance. Requirements: - `spender` cannot be the zero address."
      },
      "name()": {
        "details": "Returns the name of the token."
      },
      "renounceRole(bytes32,address)": {
        "details": "Revokes `role` from the calling account. Roles are often managed via {grantRole} and {revokeRole}: this function's purpose is to provide a mechanism for accounts to lose their privileges if they are compromised (such as when a trusted device is misplaced). If the calling account had been granted `role`, emits a {RoleRevoked} event. Requirements: - the caller must be `account`."
      },
      "revokeRole(bytes32,address)": {
        "details": "Revokes `role` from `account`. If `account` had been granted `role`, emits a {RoleRevoked} event. Requirements: - the caller must have ``role``'s admin role."
      },
      "supportsInterface(bytes4)": {
        "details": "See {IERC165-supportsInterface}."
      },
      "symbol()": {
        "details": "Returns the symbol of the token, usually a shorter version of the name."
      },
      "totalSupply()": {
        "details": "See {IERC20-totalSupply}."
      },
      "transfer(address,uint256)": {
        "details": "See {IERC20-transfer}. Requirements: - `recipient` cannot be the zero address. - the caller must have a balance of at least `amount`."
      },
      "transferFrom(address,address,uint256)": {
        "details": "See {IERC20-transferFrom}. Emits an {Approval} event indicating the updated allowance. This is not required by the EIP. See the note at the beginning of {ERC20}. Requirements: - `sender` and `recipient` cannot be the zero address. - `sender` must have a balance of at least `amount`. - the caller must have allowance for ``sender``'s tokens of at least `amount`."
      }
    },
    "version": 1
  },
  "userdoc": {
    "kind": "user",
    "methods": {},
    "version": 1
  }
}