{
  "contractName": "MoretMarketMaker",
  "abi": [
    {
      "inputs": [
        {
          "internalType": "string",
          "name": "_name",
          "type": "string"
        },
        {
          "internalType": "string",
          "name": "_symbol",
          "type": "string"
        },
        {
          "internalType": "contract OptionVault",
          "name": "_optionVault",
          "type": "address"
        }
      ],
      "stateMutability": "nonpayable",
      "type": "constructor"
    },
    {
      "anonymous": false,
      "inputs": [
        {
          "indexed": true,
          "internalType": "address",
          "name": "owner",
          "type": "address"
        },
        {
          "indexed": true,
          "internalType": "address",
          "name": "spender",
          "type": "address"
        },
        {
          "indexed": false,
          "internalType": "uint256",
          "name": "value",
          "type": "uint256"
        }
      ],
      "name": "Approval",
      "type": "event"
    },
    {
      "anonymous": false,
      "inputs": [
        {
          "indexed": true,
          "internalType": "address",
          "name": "_purchaser",
          "type": "address"
        },
        {
          "indexed": false,
          "internalType": "uint256",
          "name": "_id",
          "type": "uint256"
        },
        {
          "indexed": false,
          "internalType": "uint256",
          "name": "_payoff",
          "type": "uint256"
        }
      ],
      "name": "Expire",
      "type": "event"
    },
    {
      "anonymous": false,
      "inputs": [
        {
          "indexed": true,
          "internalType": "address",
          "name": "_purchaser",
          "type": "address"
        },
        {
          "indexed": false,
          "internalType": "uint256",
          "name": "_id",
          "type": "uint256"
        },
        {
          "indexed": false,
          "internalType": "uint256",
          "name": "_cost",
          "type": "uint256"
        },
        {
          "indexed": false,
          "internalType": "bool",
          "name": "_inVol",
          "type": "bool"
        }
      ],
      "name": "NewOption",
      "type": "event"
    },
    {
      "anonymous": false,
      "inputs": [
        {
          "indexed": true,
          "internalType": "uint256",
          "name": "_addressId",
          "type": "uint256"
        },
        {
          "indexed": false,
          "internalType": "address",
          "name": "_address",
          "type": "address"
        }
      ],
      "name": "ResetAddress",
      "type": "event"
    },
    {
      "anonymous": false,
      "inputs": [
        {
          "indexed": true,
          "internalType": "uint256",
          "name": "_parameterId",
          "type": "uint256"
        },
        {
          "indexed": false,
          "internalType": "uint256",
          "name": "_parameter",
          "type": "uint256"
        }
      ],
      "name": "ResetParameter",
      "type": "event"
    },
    {
      "anonymous": false,
      "inputs": [
        {
          "indexed": false,
          "internalType": "bool",
          "name": "success",
          "type": "bool"
        },
        {
          "indexed": false,
          "internalType": "bytes",
          "name": "data",
          "type": "bytes"
        }
      ],
      "name": "Response",
      "type": "event"
    },
    {
      "anonymous": false,
      "inputs": [
        {
          "indexed": true,
          "internalType": "bytes32",
          "name": "role",
          "type": "bytes32"
        },
        {
          "indexed": true,
          "internalType": "bytes32",
          "name": "previousAdminRole",
          "type": "bytes32"
        },
        {
          "indexed": true,
          "internalType": "bytes32",
          "name": "newAdminRole",
          "type": "bytes32"
        }
      ],
      "name": "RoleAdminChanged",
      "type": "event"
    },
    {
      "anonymous": false,
      "inputs": [
        {
          "indexed": true,
          "internalType": "bytes32",
          "name": "role",
          "type": "bytes32"
        },
        {
          "indexed": true,
          "internalType": "address",
          "name": "account",
          "type": "address"
        },
        {
          "indexed": true,
          "internalType": "address",
          "name": "sender",
          "type": "address"
        }
      ],
      "name": "RoleGranted",
      "type": "event"
    },
    {
      "anonymous": false,
      "inputs": [
        {
          "indexed": true,
          "internalType": "bytes32",
          "name": "role",
          "type": "bytes32"
        },
        {
          "indexed": true,
          "internalType": "address",
          "name": "account",
          "type": "address"
        },
        {
          "indexed": true,
          "internalType": "address",
          "name": "sender",
          "type": "address"
        }
      ],
      "name": "RoleRevoked",
      "type": "event"
    },
    {
      "anonymous": false,
      "inputs": [
        {
          "indexed": true,
          "internalType": "uint256",
          "name": "_id",
          "type": "uint256"
        },
        {
          "indexed": false,
          "internalType": "uint256",
          "name": "_timestamp",
          "type": "uint256"
        }
      ],
      "name": "StampExpire",
      "type": "event"
    },
    {
      "anonymous": false,
      "inputs": [
        {
          "indexed": true,
          "internalType": "uint256",
          "name": "_id",
          "type": "uint256"
        },
        {
          "indexed": false,
          "internalType": "uint256",
          "name": "_timestamp",
          "type": "uint256"
        }
      ],
      "name": "StampNewOption",
      "type": "event"
    },
    {
      "anonymous": false,
      "inputs": [
        {
          "indexed": true,
          "internalType": "address",
          "name": "from",
          "type": "address"
        },
        {
          "indexed": true,
          "internalType": "address",
          "name": "to",
          "type": "address"
        },
        {
          "indexed": false,
          "internalType": "uint256",
          "name": "value",
          "type": "uint256"
        }
      ],
      "name": "Transfer",
      "type": "event"
    },
    {
      "anonymous": false,
      "inputs": [
        {
          "indexed": true,
          "internalType": "uint256",
          "name": "_tenor",
          "type": "uint256"
        },
        {
          "indexed": false,
          "internalType": "address",
          "name": "_tokenAddress",
          "type": "address"
        }
      ],
      "name": "VolTokenAddition",
      "type": "event"
    },
    {
      "anonymous": false,
      "inputs": [
        {
          "indexed": true,
          "internalType": "uint256",
          "name": "_tenor",
          "type": "uint256"
        }
      ],
      "name": "VolTokenRemoved",
      "type": "event"
    },
    {
      "inputs": [],
      "name": "ADMIN_ROLE",
      "outputs": [
        {
          "internalType": "bytes32",
          "name": "",
          "type": "bytes32"
        }
      ],
      "stateMutability": "view",
      "type": "function",
      "constant": true
    },
    {
      "inputs": [],
      "name": "DEFAULT_ADMIN_ROLE",
      "outputs": [
        {
          "internalType": "bytes32",
          "name": "",
          "type": "bytes32"
        }
      ],
      "stateMutability": "view",
      "type": "function",
      "constant": true
    },
    {
      "inputs": [],
      "name": "EXCHANGE_ROLE",
      "outputs": [
        {
          "internalType": "bytes32",
          "name": "",
          "type": "bytes32"
        }
      ],
      "stateMutability": "view",
      "type": "function",
      "constant": true
    },
    {
      "inputs": [
        {
          "internalType": "address",
          "name": "owner",
          "type": "address"
        },
        {
          "internalType": "address",
          "name": "spender",
          "type": "address"
        }
      ],
      "name": "allowance",
      "outputs": [
        {
          "internalType": "uint256",
          "name": "",
          "type": "uint256"
        }
      ],
      "stateMutability": "view",
      "type": "function",
      "constant": true
    },
    {
      "inputs": [
        {
          "internalType": "address",
          "name": "spender",
          "type": "address"
        },
        {
          "internalType": "uint256",
          "name": "amount",
          "type": "uint256"
        }
      ],
      "name": "approve",
      "outputs": [
        {
          "internalType": "bool",
          "name": "",
          "type": "bool"
        }
      ],
      "stateMutability": "nonpayable",
      "type": "function"
    },
    {
      "inputs": [
        {
          "internalType": "address",
          "name": "account",
          "type": "address"
        }
      ],
      "name": "balanceOf",
      "outputs": [
        {
          "internalType": "uint256",
          "name": "",
          "type": "uint256"
        }
      ],
      "stateMutability": "view",
      "type": "function",
      "constant": true
    },
    {
      "inputs": [],
      "name": "decimals",
      "outputs": [
        {
          "internalType": "uint8",
          "name": "",
          "type": "uint8"
        }
      ],
      "stateMutability": "view",
      "type": "function",
      "constant": true
    },
    {
      "inputs": [
        {
          "internalType": "address",
          "name": "spender",
          "type": "address"
        },
        {
          "internalType": "uint256",
          "name": "subtractedValue",
          "type": "uint256"
        }
      ],
      "name": "decreaseAllowance",
      "outputs": [
        {
          "internalType": "bool",
          "name": "",
          "type": "bool"
        }
      ],
      "stateMutability": "nonpayable",
      "type": "function"
    },
    {
      "inputs": [],
      "name": "exerciseFee",
      "outputs": [
        {
          "internalType": "uint256",
          "name": "",
          "type": "uint256"
        }
      ],
      "stateMutability": "view",
      "type": "function",
      "constant": true
    },
    {
      "inputs": [
        {
          "internalType": "bytes32",
          "name": "role",
          "type": "bytes32"
        }
      ],
      "name": "getRoleAdmin",
      "outputs": [
        {
          "internalType": "bytes32",
          "name": "",
          "type": "bytes32"
        }
      ],
      "stateMutability": "view",
      "type": "function",
      "constant": true
    },
    {
      "inputs": [
        {
          "internalType": "bytes32",
          "name": "role",
          "type": "bytes32"
        },
        {
          "internalType": "address",
          "name": "account",
          "type": "address"
        }
      ],
      "name": "grantRole",
      "outputs": [],
      "stateMutability": "nonpayable",
      "type": "function"
    },
    {
      "inputs": [
        {
          "internalType": "bytes32",
          "name": "role",
          "type": "bytes32"
        },
        {
          "internalType": "address",
          "name": "account",
          "type": "address"
        }
      ],
      "name": "hasRole",
      "outputs": [
        {
          "internalType": "bool",
          "name": "",
          "type": "bool"
        }
      ],
      "stateMutability": "view",
      "type": "function",
      "constant": true
    },
    {
      "inputs": [
        {
          "internalType": "address",
          "name": "spender",
          "type": "address"
        },
        {
          "internalType": "uint256",
          "name": "addedValue",
          "type": "uint256"
        }
      ],
      "name": "increaseAllowance",
      "outputs": [
        {
          "internalType": "bool",
          "name": "",
          "type": "bool"
        }
      ],
      "stateMutability": "nonpayable",
      "type": "function"
    },
    {
      "inputs": [],
      "name": "lendingPoolRateMode",
      "outputs": [
        {
          "internalType": "uint256",
          "name": "",
          "type": "uint256"
        }
      ],
      "stateMutability": "view",
      "type": "function",
      "constant": true
    },
    {
      "inputs": [],
      "name": "maintenanceAddress",
      "outputs": [
        {
          "internalType": "address",
          "name": "",
          "type": "address"
        }
      ],
      "stateMutability": "view",
      "type": "function",
      "constant": true
    },
    {
      "inputs": [],
      "name": "name",
      "outputs": [
        {
          "internalType": "string",
          "name": "",
          "type": "string"
        }
      ],
      "stateMutability": "view",
      "type": "function",
      "constant": true
    },
    {
      "inputs": [
        {
          "internalType": "bytes32",
          "name": "role",
          "type": "bytes32"
        },
        {
          "internalType": "address",
          "name": "account",
          "type": "address"
        }
      ],
      "name": "renounceRole",
      "outputs": [],
      "stateMutability": "nonpayable",
      "type": "function"
    },
    {
      "inputs": [
        {
          "internalType": "bytes32",
          "name": "role",
          "type": "bytes32"
        },
        {
          "internalType": "address",
          "name": "account",
          "type": "address"
        }
      ],
      "name": "revokeRole",
      "outputs": [],
      "stateMutability": "nonpayable",
      "type": "function"
    },
    {
      "inputs": [],
      "name": "settlementFee",
      "outputs": [
        {
          "internalType": "uint256",
          "name": "",
          "type": "uint256"
        }
      ],
      "stateMutability": "view",
      "type": "function",
      "constant": true
    },
    {
      "inputs": [
        {
          "internalType": "bytes4",
          "name": "interfaceId",
          "type": "bytes4"
        }
      ],
      "name": "supportsInterface",
      "outputs": [
        {
          "internalType": "bool",
          "name": "",
          "type": "bool"
        }
      ],
      "stateMutability": "view",
      "type": "function",
      "constant": true
    },
    {
      "inputs": [],
      "name": "swapSlippage",
      "outputs": [
        {
          "internalType": "uint256",
          "name": "",
          "type": "uint256"
        }
      ],
      "stateMutability": "view",
      "type": "function",
      "constant": true
    },
    {
      "inputs": [],
      "name": "symbol",
      "outputs": [
        {
          "internalType": "string",
          "name": "",
          "type": "string"
        }
      ],
      "stateMutability": "view",
      "type": "function",
      "constant": true
    },
    {
      "inputs": [],
      "name": "totalSupply",
      "outputs": [
        {
          "internalType": "uint256",
          "name": "",
          "type": "uint256"
        }
      ],
      "stateMutability": "view",
      "type": "function",
      "constant": true
    },
    {
      "inputs": [
        {
          "internalType": "address",
          "name": "recipient",
          "type": "address"
        },
        {
          "internalType": "uint256",
          "name": "amount",
          "type": "uint256"
        }
      ],
      "name": "transfer",
      "outputs": [
        {
          "internalType": "bool",
          "name": "",
          "type": "bool"
        }
      ],
      "stateMutability": "nonpayable",
      "type": "function"
    },
    {
      "inputs": [
        {
          "internalType": "address",
          "name": "sender",
          "type": "address"
        },
        {
          "internalType": "address",
          "name": "recipient",
          "type": "address"
        },
        {
          "internalType": "uint256",
          "name": "amount",
          "type": "uint256"
        }
      ],
      "name": "transferFrom",
      "outputs": [
        {
          "internalType": "bool",
          "name": "",
          "type": "bool"
        }
      ],
      "stateMutability": "nonpayable",
      "type": "function"
    },
    {
      "inputs": [
        {
          "internalType": "address",
          "name": "_exerciseFeeRecipient",
          "type": "address"
        }
      ],
      "name": "expireOptions",
      "outputs": [],
      "stateMutability": "nonpayable",
      "type": "function"
    },
    {
      "inputs": [
        {
          "internalType": "bool",
          "name": "_net",
          "type": "bool"
        },
        {
          "internalType": "bool",
          "name": "_average",
          "type": "bool"
        }
      ],
      "name": "calcCapital",
      "outputs": [
        {
          "internalType": "uint256",
          "name": "_capital",
          "type": "uint256"
        }
      ],
      "stateMutability": "view",
      "type": "function",
      "constant": true
    },
    {
      "inputs": [
        {
          "internalType": "uint256",
          "name": "_depositAmount",
          "type": "uint256"
        }
      ],
      "name": "addCapital",
      "outputs": [],
      "stateMutability": "nonpayable",
      "type": "function"
    },
    {
      "inputs": [
        {
          "internalType": "uint256",
          "name": "_burnMPTokenAmount",
          "type": "uint256"
        }
      ],
      "name": "withdrawCapital",
      "outputs": [],
      "stateMutability": "nonpayable",
      "type": "function"
    },
    {
      "inputs": [
        {
          "internalType": "int256",
          "name": "_underlyingAmt",
          "type": "int256"
        },
        {
          "internalType": "int256",
          "name": "_fundingAmt",
          "type": "int256"
        },
        {
          "internalType": "address payable",
          "name": "_spender",
          "type": "address"
        },
        {
          "internalType": "bytes",
          "name": "_calldata",
          "type": "bytes"
        },
        {
          "internalType": "uint256",
          "name": "_gas",
          "type": "uint256"
        }
      ],
      "name": "tradeSwapAggregate",
      "outputs": [],
      "stateMutability": "nonpayable",
      "type": "function"
    },
    {
      "inputs": [
        {
          "internalType": "int256",
          "name": "_underlyingAmt",
          "type": "int256"
        },
        {
          "internalType": "int256",
          "name": "_fundingAmt",
          "type": "int256"
        },
        {
          "internalType": "contract IUniswapV2Router02",
          "name": "_router",
          "type": "address"
        },
        {
          "internalType": "uint256",
          "name": "_deadline",
          "type": "uint256"
        }
      ],
      "name": "tradeSwaps",
      "outputs": [],
      "stateMutability": "nonpayable",
      "type": "function"
    },
    {
      "inputs": [],
      "name": "hedgeTradesForLoans",
      "outputs": [],
      "stateMutability": "nonpayable",
      "type": "function"
    },
    {
      "inputs": [
        {
          "internalType": "uint256",
          "name": "_newFee",
          "type": "uint256"
        }
      ],
      "name": "resetSettlementFee",
      "outputs": [],
      "stateMutability": "nonpayable",
      "type": "function"
    },
    {
      "inputs": [
        {
          "internalType": "uint256",
          "name": "_newFee",
          "type": "uint256"
        }
      ],
      "name": "resetExerciseFee",
      "outputs": [],
      "stateMutability": "nonpayable",
      "type": "function"
    },
    {
      "inputs": [
        {
          "internalType": "uint256",
          "name": "_slippage",
          "type": "uint256"
        }
      ],
      "name": "resetSlippage",
      "outputs": [],
      "stateMutability": "nonpayable",
      "type": "function"
    },
    {
      "inputs": [
        {
          "internalType": "uint256",
          "name": "_newRateMode",
          "type": "uint256"
        }
      ],
      "name": "resetLendingPoolRateMode",
      "outputs": [],
      "stateMutability": "nonpayable",
      "type": "function"
    },
    {
      "inputs": [
        {
          "internalType": "address",
          "name": "_newAddress",
          "type": "address"
        }
      ],
      "name": "resetMaintenance",
      "outputs": [],
      "stateMutability": "nonpayable",
      "type": "function"
    }
  ],
  "bytecode": "0x6101006040526611c37937e080006006556611c37937e080006007556601c6bf5263400060085560026009553480156200003857600080fd5b50604051620068033803806200680383398181016040528101906200005e9190620009a0565b8282816003908051906020019062000078929190620006da565b50806004908051906020019062000091929190620006da565b505050620000a96000801b33620003dc60201b60201c565b620000db7fa49807205ce4d355092ef5a8a18f56e8913cf4a201fbe287825b095693c2177533620003dc60201b60201c565b6200010d7f28d62fc77014de57a1bbaa8212ff0979fa61ab00d377b4b8d9762048fb41996133620003dc60201b60201c565b33600a60006101000a81548173ffffffffffffffffffffffffffffffffffffffff021916908373ffffffffffffffffffffffffffffffffffffffff1602179055508073ffffffffffffffffffffffffffffffffffffffff1660a08173ffffffffffffffffffffffffffffffffffffffff16815250508073ffffffffffffffffffffffffffffffffffffffff16636f307dc36040518163ffffffff1660e01b8152600401602060405180830381865afa158015620001ce573d6000803e3d6000fd5b505050506040513d601f19601f82011682018060405250810190620001f4919062000a7f565b73ffffffffffffffffffffffffffffffffffffffff1660c08173ffffffffffffffffffffffffffffffffffffffff16815250508073ffffffffffffffffffffffffffffffffffffffff1663cb4c86b76040518163ffffffff1660e01b8152600401602060405180830381865afa15801562000273573d6000803e3d6000fd5b505050506040513d601f19601f8201168201806040525081019062000299919062000a7f565b73ffffffffffffffffffffffffffffffffffffffff1660e08173ffffffffffffffffffffffffffffffffffffffff16815250508073ffffffffffffffffffffffffffffffffffffffff1663cb4c86b76040518163ffffffff1660e01b8152600401602060405180830381865afa15801562000318573d6000803e3d6000fd5b505050506040513d601f19601f820116820180604052508101906200033e919062000a7f565b73ffffffffffffffffffffffffffffffffffffffff1663313ce5676040518163ffffffff1660e01b8152600401602060405180830381865afa15801562000389573d6000803e3d6000fd5b505050506040513d601f19601f82011682018060405250810190620003af919062000aef565b60ff1660808181525050620003d333670de0b6b3a7640000620003f260201b60201c565b50505062000ccd565b620003ee82826200056b60201b60201c565b5050565b600073ffffffffffffffffffffffffffffffffffffffff168273ffffffffffffffffffffffffffffffffffffffff16141562000465576040517f08c379a00000000000000000000000000000000000000000000000000000000081526004016200045c9062000b82565b60405180910390fd5b62000479600083836200065d60201b60201c565b80600260008282546200048d919062000bdd565b92505081905550806000808473ffffffffffffffffffffffffffffffffffffffff1673ffffffffffffffffffffffffffffffffffffffff1681526020019081526020016000206000828254620004e4919062000bdd565b925050819055508173ffffffffffffffffffffffffffffffffffffffff16600073ffffffffffffffffffffffffffffffffffffffff167fddf252ad1be2c89b69c2b068fc378daa952ba7f163c4a11628f55a4df523b3ef836040516200054b919062000c4b565b60405180910390a362000567600083836200066260201b60201c565b5050565b6200057d82826200066760201b60201c565b620006595760016005600084815260200190815260200160002060000160008373ffffffffffffffffffffffffffffffffffffffff1673ffffffffffffffffffffffffffffffffffffffff16815260200190815260200160002060006101000a81548160ff021916908315150217905550620005fe620006d260201b60201c565b73ffffffffffffffffffffffffffffffffffffffff168173ffffffffffffffffffffffffffffffffffffffff16837f2f8788117e7eff1d82e926ec794901d17c78024a50270940304540a733656f0d60405160405180910390a45b5050565b505050565b505050565b60006005600084815260200190815260200160002060000160008373ffffffffffffffffffffffffffffffffffffffff1673ffffffffffffffffffffffffffffffffffffffff16815260200190815260200160002060009054906101000a900460ff16905092915050565b600033905090565b828054620006e89062000c97565b90600052602060002090601f0160209004810192826200070c576000855562000758565b82601f106200072757805160ff191683800117855562000758565b8280016001018555821562000758579182015b82811115620007575782518255916020019190600101906200073a565b5b5090506200076791906200076b565b5090565b5b80821115620007865760008160009055506001016200076c565b5090565b6000604051905090565b600080fd5b600080fd5b600080fd5b600080fd5b6000601f19601f8301169050919050565b7f4e487b7100000000000000000000000000000000000000000000000000000000600052604160045260246000fd5b620007f382620007a8565b810181811067ffffffffffffffff82111715620008155762000814620007b9565b5b80604052505050565b60006200082a6200078a565b9050620008388282620007e8565b919050565b600067ffffffffffffffff8211156200085b576200085a620007b9565b5b6200086682620007a8565b9050602081019050919050565b60005b838110156200089357808201518184015260208101905062000876565b83811115620008a3576000848401525b50505050565b6000620008c0620008ba846200083d565b6200081e565b905082815260208101848484011115620008df57620008de620007a3565b5b620008ec84828562000873565b509392505050565b600082601f8301126200090c576200090b6200079e565b5b81516200091e848260208601620008a9565b91505092915050565b600073ffffffffffffffffffffffffffffffffffffffff82169050919050565b6000620009548262000927565b9050919050565b6000620009688262000947565b9050919050565b6200097a816200095b565b81146200098657600080fd5b50565b6000815190506200099a816200096f565b92915050565b600080600060608486031215620009bc57620009bb62000794565b5b600084015167ffffffffffffffff811115620009dd57620009dc62000799565b5b620009eb86828701620008f4565b935050602084015167ffffffffffffffff81111562000a0f5762000a0e62000799565b5b62000a1d86828701620008f4565b925050604062000a308682870162000989565b9150509250925092565b600062000a478262000947565b9050919050565b62000a598162000a3a565b811462000a6557600080fd5b50565b60008151905062000a798162000a4e565b92915050565b60006020828403121562000a985762000a9762000794565b5b600062000aa88482850162000a68565b91505092915050565b600060ff82169050919050565b62000ac98162000ab1565b811462000ad557600080fd5b50565b60008151905062000ae98162000abe565b92915050565b60006020828403121562000b085762000b0762000794565b5b600062000b188482850162000ad8565b91505092915050565b600082825260208201905092915050565b7f45524332303a206d696e7420746f20746865207a65726f206164647265737300600082015250565b600062000b6a601f8362000b21565b915062000b778262000b32565b602082019050919050565b6000602082019050818103600083015262000b9d8162000b5b565b9050919050565b6000819050919050565b7f4e487b7100000000000000000000000000000000000000000000000000000000600052601160045260246000fd5b600062000bea8262000ba4565b915062000bf78362000ba4565b9250827fffffffffffffffffffffffffffffffffffffffffffffffffffffffffffffffff0382111562000c2f5762000c2e62000bae565b5b828201905092915050565b62000c458162000ba4565b82525050565b600060208201905062000c62600083018462000c3a565b92915050565b7f4e487b7100000000000000000000000000000000000000000000000000000000600052602260045260246000fd5b6000600282049050600182168062000cb057607f821691505b6020821081141562000cc75762000cc662000c68565b5b50919050565b60805160a05160c05160e051615a3862000dcb60003960008181610c1401528181610dca01528181610f4d015281816110f1015281816117370152818161183001528181611be801528181611dc00152818161203201528181612af70152612d0c0152600081816118cc0152818161196301528181611a3e01528181611b3701528181611d9f015261201101526000818161082a015281816108c00152818161098d01528181610a1b015281816115840152818161162a015281816124770152818161251c01526125ab015260008181610c6e01528181610e2401528181610fc90152818161114b015281816129f00152612c810152615a386000f3fe608060405234801561001057600080fd5b50600436106102275760003560e01c806346c777d811610130578063a457c2d7116100b8578063d547741f1161007c578063d547741f1461067a578063d95b0a1214610696578063dd62ed3e146106b2578063e3f828fa146106e2578063ecc513f0146106fe57610227565b8063a457c2d7146105c2578063a9059cbb146105f2578063b82e106d14610622578063bea10f9614610640578063d1c699aa1461065c57610227565b806375b238fc116100ff57806375b238fc1461051a5780637d1d7fb81461053857806391d148541461055657806395d89b4114610586578063a217fddf146105a457610227565b806346c777d814610480578063634479021461049c57806370a08231146104cc578063719d5f83146104fc57610227565b80632f2ff15d116101b3578063395093511161018257806339509351146103de5780633b7345011461040e5780633e30f6511461042c5780633e8c47c01461044857806345b2f91c1461046457610227565b80632f2ff15d1461037e578063313ce5671461039a57806336568abe146103b85780633733116d146103d457610227565b8063095ea7b3116101fa578063095ea7b3146102b257806318160ddd146102e25780631aedeabe1461030057806323b872dd1461031e578063248a9ca31461034e57610227565b806301ffc9a71461022c57806306fdde031461025c57806307ba08ce1461027a5780630837ecfd14610296575b600080fd5b61024660048036038101906102419190613c92565b61071a565b6040516102539190613cda565b60405180910390f35b610264610794565b6040516102719190613d8e565b60405180910390f35b610294600480360381019061028f9190613e0e565b610826565b005b6102b060048036038101906102ab9190613e71565b6112c4565b005b6102cc60048036038101906102c79190613e9e565b611352565b6040516102d99190613cda565b60405180910390f35b6102ea611370565b6040516102f79190613eed565b60405180910390f35b61030861137a565b6040516103159190613eed565b60405180910390f35b61033860048036038101906103339190613f08565b611380565b6040516103459190613cda565b60405180910390f35b61036860048036038101906103639190613f91565b611478565b6040516103759190613fcd565b60405180910390f35b61039860048036038101906103939190613fe8565b611498565b005b6103a26114c1565b6040516103af9190614044565b60405180910390f35b6103d260048036038101906103cd9190613fe8565b6114ca565b005b6103dc61154d565b005b6103f860048036038101906103f39190613e9e565b611c7c565b6040516104059190613cda565b60405180910390f35b610416611d28565b6040516104239190613fcd565b60405180910390f35b61044660048036038101906104419190614138565b611d4c565b005b610462600480360381019061045d9190614210565b611fbb565b005b61047e60048036038101906104799190613e0e565b612303565b005b61049a60048036038101906104959190613e71565b6123b3565b005b6104b660048036038101906104b191906142a3565b612473565b6040516104c39190613eed565b60405180910390f35b6104e660048036038101906104e19190613e0e565b612726565b6040516104f39190613eed565b60405180910390f35b61050461276e565b60405161051191906142f2565b60405180910390f35b610522612794565b60405161052f9190613fcd565b60405180910390f35b6105406127b8565b60405161054d9190613eed565b60405180910390f35b610570600480360381019061056b9190613fe8565b6127be565b60405161057d9190613cda565b60405180910390f35b61058e612829565b60405161059b9190613d8e565b60405180910390f35b6105ac6128bb565b6040516105b99190613fcd565b60405180910390f35b6105dc60048036038101906105d79190613e9e565b6128c2565b6040516105e99190613cda565b60405180910390f35b61060c60048036038101906106079190613e9e565b6129ad565b6040516106199190613cda565b60405180910390f35b61062a6129cb565b6040516106379190613eed565b60405180910390f35b61065a60048036038101906106559190613e71565b6129d1565b005b610664612bac565b6040516106719190613eed565b60405180910390f35b610694600480360381019061068f9190613fe8565b612bb2565b005b6106b060048036038101906106ab9190613e71565b612bdb565b005b6106cc60048036038101906106c7919061430d565b612db5565b6040516106d99190613eed565b60405180910390f35b6106fc60048036038101906106f79190613e71565b612e3c565b005b61071860048036038101906107139190613e71565b612eb2565b005b60007f7965db0b000000000000000000000000000000000000000000000000000000007bffffffffffffffffffffffffffffffffffffffffffffffffffffffff1916827bffffffffffffffffffffffffffffffffffffffffffffffffffffffff1916148061078d575061078c82612f72565b5b9050919050565b6060600380546107a39061437c565b80601f01602080910402602001604051908101604052809291908181526020018280546107cf9061437c565b801561081c5780601f106107f15761010080835404028352916020019161081c565b820191906000526020600020905b8154815290600101906020018083116107ff57829003601f168201915b5050505050905090565b60007f000000000000000000000000000000000000000000000000000000000000000073ffffffffffffffffffffffffffffffffffffffff16637652e7c46040518163ffffffff1660e01b8152600401602060405180830381865afa158015610893573d6000803e3d6000fd5b505050506040513d601f19601f820116820180604052508101906108b791906143c3565b905060008060007f000000000000000000000000000000000000000000000000000000000000000073ffffffffffffffffffffffffffffffffffffffff1663fc9d80e0856040518263ffffffff1660e01b81526004016109179190613eed565b606060405180830381865afa158015610934573d6000803e3d6000fd5b505050506040513d601f19601f82011682018060405250810190610958919061444f565b92509250925060016003811115610972576109716144a2565b5b836003811115610985576109846144a2565b5b14156112bd577f000000000000000000000000000000000000000000000000000000000000000073ffffffffffffffffffffffffffffffffffffffff1663637baf60856040518263ffffffff1660e01b81526004016109e49190613eed565b600060405180830381600087803b1580156109fe57600080fd5b505af1158015610a12573d6000803e3d6000fd5b505050506000807f000000000000000000000000000000000000000000000000000000000000000073ffffffffffffffffffffffffffffffffffffffff166385ae10e6876040518263ffffffff1660e01b8152600401610a729190613eed565b6040805180830381865afa158015610a8e573d6000803e3d6000fd5b505050506040513d601f19601f82011682018060405250810190610ab291906144d1565b9150915060008273__FullMath______________________________63fed4a0f390916006546040518363ffffffff1660e01b8152600401610af5929190614520565b602060405180830381865af4158015610b12573d6000803e3d6000fd5b505050506040513d601f19601f82011682018060405250810190610b3691906143c3565b905060008373__FullMath______________________________63fed4a0f390916007546040518363ffffffff1660e01b8152600401610b77929190614520565b602060405180830381865af4158015610b94573d6000803e3d6000fd5b505050506040513d601f19601f82011682018060405250810190610bb891906143c3565b905060006001811115610bce57610bcd6144a2565b5b866001811115610be157610be06144a2565b5b1415610d9057610bfc838284610bf79190614578565b612fdc565b83610c0791906145ce565b92506000831115610d8b577f000000000000000000000000000000000000000000000000000000000000000073ffffffffffffffffffffffffffffffffffffffff1663a9059cbb868573__MarketLibrary_________________________63174e20e690917f00000000000000000000000000000000000000000000000000000000000000006040518363ffffffff1660e01b8152600401610caa929190614520565b602060405180830381865af4158015610cc7573d6000803e3d6000fd5b505050506040513d601f19601f82011682018060405250810190610ceb91906143c3565b6040518363ffffffff1660e01b8152600401610d08929190614602565b6020604051808303816000875af1158015610d27573d6000803e3d6000fd5b505050506040513d601f19601f82011682018060405250810190610d4b9190614640565b610d8a576040517f08c379a0000000000000000000000000000000000000000000000000000000008152600401610d81906146b9565b60405180910390fd5b5b610f42565b600180811115610da357610da26144a2565b5b866001811115610db657610db56144a2565b5b148015610dc35750600083115b15610f41577f000000000000000000000000000000000000000000000000000000000000000073ffffffffffffffffffffffffffffffffffffffff1663a9059cbb868573__MarketLibrary_________________________63174e20e690917f00000000000000000000000000000000000000000000000000000000000000006040518363ffffffff1660e01b8152600401610e60929190614520565b602060405180830381865af4158015610e7d573d6000803e3d6000fd5b505050506040513d601f19601f82011682018060405250810190610ea191906143c3565b6040518363ffffffff1660e01b8152600401610ebe929190614602565b6020604051808303816000875af1158015610edd573d6000803e3d6000fd5b505050506040513d601f19601f82011682018060405250810190610f019190614640565b610f40576040517f08c379a0000000000000000000000000000000000000000000000000000000008152600401610f37906146b9565b60405180910390fd5b5b5b60008211156110e6577f000000000000000000000000000000000000000000000000000000000000000073ffffffffffffffffffffffffffffffffffffffff1663a9059cbb600a60009054906101000a900473ffffffffffffffffffffffffffffffffffffffff168473__MarketLibrary_________________________63174e20e690917f00000000000000000000000000000000000000000000000000000000000000006040518363ffffffff1660e01b8152600401611005929190614520565b602060405180830381865af4158015611022573d6000803e3d6000fd5b505050506040513d601f19601f8201168201806040525081019061104691906143c3565b6040518363ffffffff1660e01b8152600401611063929190614602565b6020604051808303816000875af1158015611082573d6000803e3d6000fd5b505050506040513d601f19601f820116820180604052508101906110a69190614640565b6110e5576040517f08c379a00000000000000000000000000000000000000000000000000000000081526004016110dc90614725565b60405180910390fd5b5b6000811115611268577f000000000000000000000000000000000000000000000000000000000000000073ffffffffffffffffffffffffffffffffffffffff1663a9059cbb8a8373__MarketLibrary_________________________63174e20e690917f00000000000000000000000000000000000000000000000000000000000000006040518363ffffffff1660e01b8152600401611187929190614520565b602060405180830381865af41580156111a4573d6000803e3d6000fd5b505050506040513d601f19601f820116820180604052508101906111c891906143c3565b6040518363ffffffff1660e01b81526004016111e5929190614602565b6020604051808303816000875af1158015611204573d6000803e3d6000fd5b505050506040513d601f19601f820116820180604052508101906112289190614640565b611267576040517f08c379a000000000000000000000000000000000000000000000000000000000815260040161125e90614791565b60405180910390fd5b5b8473ffffffffffffffffffffffffffffffffffffffff167f87aa736083a42932e632f2450a030af683e18d432e3ab0b6c1aff1943c13040889856040516112b09291906147b1565b60405180910390a2505050505b5050505050565b7fa49807205ce4d355092ef5a8a18f56e8913cf4a201fbe287825b095693c217756112f6816112f1612ff5565b612ffd565b60018214806113055750600282145b61130e57600080fd5b8160098190555060037f1f77a5f1218c5e380f0425a2e88a823d831b5f8906f5ab4db8b1565a36f780d7836040516113469190613eed565b60405180910390a25050565b600061136661135f612ff5565b848461309a565b6001905092915050565b6000600254905090565b60085481565b600061138d848484613265565b6000600160008673ffffffffffffffffffffffffffffffffffffffff1673ffffffffffffffffffffffffffffffffffffffff16815260200190815260200160002060006113d8612ff5565b73ffffffffffffffffffffffffffffffffffffffff1673ffffffffffffffffffffffffffffffffffffffff16815260200190815260200160002054905082811015611458576040517f08c379a000000000000000000000000000000000000000000000000000000000815260040161144f9061484c565b60405180910390fd5b61146c85611464612ff5565b85840361309a565b60019150509392505050565b600060056000838152602001908152602001600020600101549050919050565b6114a182611478565b6114b2816114ad612ff5565b612ffd565b6114bc83836134e6565b505050565b60006012905090565b6114d2612ff5565b73ffffffffffffffffffffffffffffffffffffffff168173ffffffffffffffffffffffffffffffffffffffff161461153f576040517f08c379a0000000000000000000000000000000000000000000000000000000008152600401611536906148de565b60405180910390fd5b61154982826135c7565b5050565b7f28d62fc77014de57a1bbaa8212ff0979fa61ab00d377b4b8d9762048fb41996161157f8161157a612ff5565b612ffd565b6000807f000000000000000000000000000000000000000000000000000000000000000073ffffffffffffffffffffffffffffffffffffffff1663305868da306009546040518363ffffffff1660e01b81526004016115df929190614602565b608060405180830381865afa1580156115fc573d6000803e3d6000fd5b505050506040513d601f19601f820116820180604052508101906116209190614913565b50509150915060007f000000000000000000000000000000000000000000000000000000000000000073ffffffffffffffffffffffffffffffffffffffff1663251e1e8a6040518163ffffffff1660e01b8152600401602060405180830381865afa158015611693573d6000803e3d6000fd5b505050506040513d601f19601f820116820180604052508101906116b791906149b8565b73ffffffffffffffffffffffffffffffffffffffff16630261bf8b6040518163ffffffff1660e01b8152600401602060405180830381865afa158015611701573d6000803e3d6000fd5b505050506040513d601f19601f8201168201806040525081019061172591906149e5565b9050600081905060008313156118a5577f000000000000000000000000000000000000000000000000000000000000000073ffffffffffffffffffffffffffffffffffffffff1663095ea7b383856040518363ffffffff1660e01b8152600401611790929190614602565b6020604051808303816000875af11580156117af573d6000803e3d6000fd5b505050506040513d601f19601f820116820180604052508101906117d39190614640565b611812576040517f08c379a000000000000000000000000000000000000000000000000000000000815260040161180990614a5e565b60405180910390fd5b8073ffffffffffffffffffffffffffffffffffffffff1663e8eda9df7f0000000000000000000000000000000000000000000000000000000000000000853060006040518563ffffffff1660e01b81526004016118729493929190614ad1565b600060405180830381600087803b15801561188c57600080fd5b505af11580156118a0573d6000803e3d6000fd5b505050505b6000841315611949578073ffffffffffffffffffffffffffffffffffffffff1663a415bcad7f0000000000000000000000000000000000000000000000000000000000000000866009546000306040518663ffffffff1660e01b8152600401611912959493929190614b16565b600060405180830381600087803b15801561192c57600080fd5b505af1158015611940573d6000803e3d6000fd5b50505050611bc1565b6000841215611bc05760008461195e90614b69565b9050807f000000000000000000000000000000000000000000000000000000000000000073ffffffffffffffffffffffffffffffffffffffff166370a08231306040518263ffffffff1660e01b81526004016119ba91906142f2565b602060405180830381865afa1580156119d7573d6000803e3d6000fd5b505050506040513d601f19601f820116820180604052508101906119fb91906143c3565b1015611a3c576040517f08c379a0000000000000000000000000000000000000000000000000000000008152600401611a3390614bfe565b60405180910390fd5b7f000000000000000000000000000000000000000000000000000000000000000073ffffffffffffffffffffffffffffffffffffffff1663095ea7b384836040518363ffffffff1660e01b8152600401611a97929190614602565b6020604051808303816000875af1158015611ab6573d6000803e3d6000fd5b505050506040513d601f19601f82011682018060405250810190611ada9190614640565b611b19576040517f08c379a0000000000000000000000000000000000000000000000000000000008152600401611b1090614c6a565b60405180910390fd5b8173ffffffffffffffffffffffffffffffffffffffff1663573ade817f000000000000000000000000000000000000000000000000000000000000000083600954306040518563ffffffff1660e01b8152600401611b7a9493929190614c8a565b6020604051808303816000875af1158015611b99573d6000803e3d6000fd5b505050506040513d601f19601f82011682018060405250810190611bbd91906143c3565b50505b5b6000831215611c75578073ffffffffffffffffffffffffffffffffffffffff166369328dec7f000000000000000000000000000000000000000000000000000000000000000085611c1190614b69565b306040518463ffffffff1660e01b8152600401611c3093929190614ccf565b6020604051808303816000875af1158015611c4f573d6000803e3d6000fd5b505050506040513d601f19601f82011682018060405250810190611c7391906143c3565b505b5050505050565b6000611d1e611c89612ff5565b848460016000611c97612ff5565b73ffffffffffffffffffffffffffffffffffffffff1673ffffffffffffffffffffffffffffffffffffffff16815260200190815260200160002060008873ffffffffffffffffffffffffffffffffffffffff1673ffffffffffffffffffffffffffffffffffffffff16815260200190815260200160002054611d199190614578565b61309a565b6001905092915050565b7f28d62fc77014de57a1bbaa8212ff0979fa61ab00d377b4b8d9762048fb41996181565b7f28d62fc77014de57a1bbaa8212ff0979fa61ab00d377b4b8d9762048fb419961611d7e81611d79612ff5565b612ffd565b60008073__MarketLibrary_________________________63865c99848a8a7f00000000000000000000000000000000000000000000000000000000000000007f00000000000000000000000000000000000000000000000000000000000000006040518563ffffffff1660e01b8152600401611dfe9493929190614d24565b608060405180830381865af4158015611e1b573d6000803e3d6000fd5b505050506040513d601f19601f82011682018060405250810190611e3f9190614d69565b5092505091508073ffffffffffffffffffffffffffffffffffffffff1663095ea7b388846040518363ffffffff1660e01b8152600401611e80929190614e25565b6020604051808303816000875af1158015611e9f573d6000803e3d6000fd5b505050506040513d601f19601f82011682018060405250810190611ec39190614640565b611f02576040517f08c379a0000000000000000000000000000000000000000000000000000000008152600401611ef990614e9a565b60405180910390fd5b6000808873ffffffffffffffffffffffffffffffffffffffff16868989604051611f2d929190614ef9565b60006040518083038160008787f1925050503d8060008114611f6b576040519150601f19603f3d011682016040523d82523d6000602084013e611f70565b606091505b50915091507f13848c3e38f8886f3f5d2ad9dff80d8092c2bbb8efd5b887a99c2c6cfc09ac2a8282604051611fa6929190614f67565b60405180910390a15050505050505050505050565b7f28d62fc77014de57a1bbaa8212ff0979fa61ab00d377b4b8d9762048fb419961611fed81611fe8612ff5565b612ffd565b60008060008073__MarketLibrary_________________________63865c99848a8a7f00000000000000000000000000000000000000000000000000000000000000007f00000000000000000000000000000000000000000000000000000000000000006040518563ffffffff1660e01b81526004016120709493929190614d24565b608060405180830381865af415801561208d573d6000803e3d6000fd5b505050506040513d601f19601f820116820180604052508101906120b19190614d69565b93509350935093508173ffffffffffffffffffffffffffffffffffffffff1663095ea7b388866040518363ffffffff1660e01b81526004016120f4929190614602565b6020604051808303816000875af1158015612113573d6000803e3d6000fd5b505050506040513d601f19601f820116820180604052508101906121379190614640565b612176576040517f08c379a000000000000000000000000000000000000000000000000000000000815260040161216d90614e9a565b60405180910390fd5b6000600267ffffffffffffffff81111561219357612192614f97565b5b6040519080825280602002602001820160405280156121c15781602001602082028036833780820191505090505b50905082816000815181106121d9576121d8614fc6565b5b602002602001019073ffffffffffffffffffffffffffffffffffffffff16908173ffffffffffffffffffffffffffffffffffffffff1681525050818160018151811061222857612227614fc6565b5b602002602001019073ffffffffffffffffffffffffffffffffffffffff16908173ffffffffffffffffffffffffffffffffffffffff16815250508773ffffffffffffffffffffffffffffffffffffffff16638803dbee858784308c4261228e9190614578565b6040518663ffffffff1660e01b81526004016122ae9594939291906150b3565b6000604051808303816000875af11580156122cd573d6000803e3d6000fd5b505050506040513d6000823e3d601f19601f820116820180604052508101906122f6919061521c565b5050505050505050505050565b7fa49807205ce4d355092ef5a8a18f56e8913cf4a201fbe287825b095693c2177561233581612330612ff5565b612ffd565b81600a60006101000a81548173ffffffffffffffffffffffffffffffffffffffff021916908373ffffffffffffffffffffffffffffffffffffffff16021790555060007f24d6288eaa984b5d82c86fa2319ac360582ee0f3b6e5d20731355f6f00250f16836040516123a791906142f2565b60405180910390a25050565b7fa49807205ce4d355092ef5a8a18f56e8913cf4a201fbe287825b095693c217756123e5816123e0612ff5565b612ffd565b670de0b6b3a7640000821061242f576040517f08c379a0000000000000000000000000000000000000000000000000000000008152600401612426906152b1565b60405180910390fd5b8160068190555060007f1f77a5f1218c5e380f0425a2e88a823d831b5f8906f5ab4db8b1565a36f780d7836040516124679190613eed565b60405180910390a25050565b60007f000000000000000000000000000000000000000000000000000000000000000073ffffffffffffffffffffffffffffffffffffffff16638b83b6b6306040518263ffffffff1660e01b81526004016124ce91906142f2565b602060405180830381865afa1580156124eb573d6000803e3d6000fd5b505050506040513d601f19601f8201168201806040525081019061250f91906143c3565b90508215612656576126487f000000000000000000000000000000000000000000000000000000000000000073ffffffffffffffffffffffffffffffffffffffff1663d19f50326040518163ffffffff1660e01b8152600401602060405180830381865afa158015612585573d6000803e3d6000fd5b505050506040513d601f19601f820116820180604052508101906125a991906143c3565b7f000000000000000000000000000000000000000000000000000000000000000073ffffffffffffffffffffffffffffffffffffffff1663448ba42f6040518163ffffffff1660e01b8152600401602060405180830381865afa158015612614573d6000803e3d6000fd5b505050506040513d601f19601f8201168201806040525081019061263891906143c3565b6126429190614578565b82612fdc565b8161265391906145ce565b90505b8115612720576000612666611370565b11156126f6578073__FullMath______________________________63de7f61709091612691611370565b6040518363ffffffff1660e01b81526004016126ae929190614520565b602060405180830381865af41580156126cb573d6000803e3d6000fd5b505050506040513d601f19601f820116820180604052508101906126ef91906143c3565b905061271f565b6000612700611370565b14801561270d5750600081145b1561271e57670de0b6b3a764000090505b5b5b92915050565b60008060008373ffffffffffffffffffffffffffffffffffffffff1673ffffffffffffffffffffffffffffffffffffffff168152602001908152602001600020549050919050565b600a60009054906101000a900473ffffffffffffffffffffffffffffffffffffffff1681565b7fa49807205ce4d355092ef5a8a18f56e8913cf4a201fbe287825b095693c2177581565b60065481565b60006005600084815260200190815260200160002060000160008373ffffffffffffffffffffffffffffffffffffffff1673ffffffffffffffffffffffffffffffffffffffff16815260200190815260200160002060009054906101000a900460ff16905092915050565b6060600480546128389061437c565b80601f01602080910402602001604051908101604052809291908181526020018280546128649061437c565b80156128b15780601f10612886576101008083540402835291602001916128b1565b820191906000526020600020905b81548152906001019060200180831161289457829003601f168201915b5050505050905090565b6000801b81565b600080600160006128d1612ff5565b73ffffffffffffffffffffffffffffffffffffffff1673ffffffffffffffffffffffffffffffffffffffff16815260200190815260200160002060008573ffffffffffffffffffffffffffffffffffffffff1673ffffffffffffffffffffffffffffffffffffffff1681526020019081526020016000205490508281101561298e576040517f08c379a000000000000000000000000000000000000000000000000000000000815260040161298590615343565b60405180910390fd5b6129a2612999612ff5565b8585840361309a565b600191505092915050565b60006129c16129ba612ff5565b8484613265565b6001905092915050565b60095481565b600073__MarketLibrary_________________________63ed1bb199837f00000000000000000000000000000000000000000000000000000000000000006040518363ffffffff1660e01b8152600401612a2c929190614520565b602060405180830381865af4158015612a49573d6000803e3d6000fd5b505050506040513d601f19601f82011682018060405250810190612a6d91906143c3565b73__FullMath______________________________63de7f61709091612a9560006001612473565b6040518363ffffffff1660e01b8152600401612ab2929190614520565b602060405180830381865af4158015612acf573d6000803e3d6000fd5b505050506040513d601f19601f82011682018060405250810190612af391906143c3565b90507f000000000000000000000000000000000000000000000000000000000000000073ffffffffffffffffffffffffffffffffffffffff166323b872dd3330856040518463ffffffff1660e01b8152600401612b5293929190615363565b6020604051808303816000875af1158015612b71573d6000803e3d6000fd5b505050506040513d601f19601f82011682018060405250810190612b959190614640565b612b9e57600080fd5b612ba833826136a9565b5050565b60075481565b612bbb82611478565b612bcc81612bc7612ff5565b612ffd565b612bd683836135c7565b505050565b6000612be8600180612473565b73__FullMath______________________________63fed4a0f39091846040518363ffffffff1660e01b8152600401612c22929190614520565b602060405180830381865af4158015612c3f573d6000803e3d6000fd5b505050506040513d601f19601f82011682018060405250810190612c6391906143c3565b73__MarketLibrary_________________________63174e20e690917f00000000000000000000000000000000000000000000000000000000000000006040518363ffffffff1660e01b8152600401612cbd929190614520565b602060405180830381865af4158015612cda573d6000803e3d6000fd5b505050506040513d601f19601f82011682018060405250810190612cfe91906143c3565b9050612d0a3383613809565b7f000000000000000000000000000000000000000000000000000000000000000073ffffffffffffffffffffffffffffffffffffffff1663a9059cbb33836040518363ffffffff1660e01b8152600401612d65929190614602565b6020604051808303816000875af1158015612d84573d6000803e3d6000fd5b505050506040513d601f19601f82011682018060405250810190612da89190614640565b612db157600080fd5b5050565b6000600160008473ffffffffffffffffffffffffffffffffffffffff1673ffffffffffffffffffffffffffffffffffffffff16815260200190815260200160002060008373ffffffffffffffffffffffffffffffffffffffff1673ffffffffffffffffffffffffffffffffffffffff16815260200190815260200160002054905092915050565b7fa49807205ce4d355092ef5a8a18f56e8913cf4a201fbe287825b095693c21775612e6e81612e69612ff5565b612ffd565b8160088190555060027f1f77a5f1218c5e380f0425a2e88a823d831b5f8906f5ab4db8b1565a36f780d783604051612ea69190613eed565b60405180910390a25050565b7fa49807205ce4d355092ef5a8a18f56e8913cf4a201fbe287825b095693c21775612ee481612edf612ff5565b612ffd565b670de0b6b3a76400008210612f2e576040517f08c379a0000000000000000000000000000000000000000000000000000000008152600401612f25906152b1565b60405180910390fd5b8160078190555060017f1f77a5f1218c5e380f0425a2e88a823d831b5f8906f5ab4db8b1565a36f780d783604051612f669190613eed565b60405180910390a25050565b60007f01ffc9a7000000000000000000000000000000000000000000000000000000007bffffffffffffffffffffffffffffffffffffffffffffffffffffffff1916827bffffffffffffffffffffffffffffffffffffffffffffffffffffffff1916149050919050565b6000818310612feb5781612fed565b825b905092915050565b600033905090565b61300782826127be565b6130965761302c8173ffffffffffffffffffffffffffffffffffffffff1660146139e0565b61303a8360001c60206139e0565b60405160200161304b92919061546e565b6040516020818303038152906040526040517f08c379a000000000000000000000000000000000000000000000000000000000815260040161308d9190613d8e565b60405180910390fd5b5050565b600073ffffffffffffffffffffffffffffffffffffffff168373ffffffffffffffffffffffffffffffffffffffff16141561310a576040517f08c379a00000000000000000000000000000000000000000000000000000000081526004016131019061551a565b60405180910390fd5b600073ffffffffffffffffffffffffffffffffffffffff168273ffffffffffffffffffffffffffffffffffffffff16141561317a576040517f08c379a0000000000000000000000000000000000000000000000000000000008152600401613171906155ac565b60405180910390fd5b80600160008573ffffffffffffffffffffffffffffffffffffffff1673ffffffffffffffffffffffffffffffffffffffff16815260200190815260200160002060008473ffffffffffffffffffffffffffffffffffffffff1673ffffffffffffffffffffffffffffffffffffffff168152602001908152602001600020819055508173ffffffffffffffffffffffffffffffffffffffff168373ffffffffffffffffffffffffffffffffffffffff167f8c5be1e5ebec7d5bd14f71427d1e84f3dd0314c0f7b2291e5b200ac8c7c3b925836040516132589190613eed565b60405180910390a3505050565b600073ffffffffffffffffffffffffffffffffffffffff168373ffffffffffffffffffffffffffffffffffffffff1614156132d5576040517f08c379a00000000000000000000000000000000000000000000000000000000081526004016132cc9061563e565b60405180910390fd5b600073ffffffffffffffffffffffffffffffffffffffff168273ffffffffffffffffffffffffffffffffffffffff161415613345576040517f08c379a000000000000000000000000000000000000000000000000000000000815260040161333c906156d0565b60405180910390fd5b613350838383613c1c565b60008060008573ffffffffffffffffffffffffffffffffffffffff1673ffffffffffffffffffffffffffffffffffffffff168152602001908152602001600020549050818110156133d6576040517f08c379a00000000000000000000000000000000000000000000000000000000081526004016133cd90615762565b60405180910390fd5b8181036000808673ffffffffffffffffffffffffffffffffffffffff1673ffffffffffffffffffffffffffffffffffffffff16815260200190815260200160002081905550816000808573ffffffffffffffffffffffffffffffffffffffff1673ffffffffffffffffffffffffffffffffffffffff16815260200190815260200160002060008282546134699190614578565b925050819055508273ffffffffffffffffffffffffffffffffffffffff168473ffffffffffffffffffffffffffffffffffffffff167fddf252ad1be2c89b69c2b068fc378daa952ba7f163c4a11628f55a4df523b3ef846040516134cd9190613eed565b60405180910390a36134e0848484613c21565b50505050565b6134f082826127be565b6135c35760016005600084815260200190815260200160002060000160008373ffffffffffffffffffffffffffffffffffffffff1673ffffffffffffffffffffffffffffffffffffffff16815260200190815260200160002060006101000a81548160ff021916908315150217905550613568612ff5565b73ffffffffffffffffffffffffffffffffffffffff168173ffffffffffffffffffffffffffffffffffffffff16837f2f8788117e7eff1d82e926ec794901d17c78024a50270940304540a733656f0d60405160405180910390a45b5050565b6135d182826127be565b156136a55760006005600084815260200190815260200160002060000160008373ffffffffffffffffffffffffffffffffffffffff1673ffffffffffffffffffffffffffffffffffffffff16815260200190815260200160002060006101000a81548160ff02191690831515021790555061364a612ff5565b73ffffffffffffffffffffffffffffffffffffffff168173ffffffffffffffffffffffffffffffffffffffff16837ff6391f5c32d9c69d2a47ea670b442974b53935d1edc7fd64eb21e047a839171b60405160405180910390a45b5050565b600073ffffffffffffffffffffffffffffffffffffffff168273ffffffffffffffffffffffffffffffffffffffff161415613719576040517f08c379a0000000000000000000000000000000000000000000000000000000008152600401613710906157ce565b60405180910390fd5b61372560008383613c1c565b80600260008282546137379190614578565b92505081905550806000808473ffffffffffffffffffffffffffffffffffffffff1673ffffffffffffffffffffffffffffffffffffffff168152602001908152602001600020600082825461378c9190614578565b925050819055508173ffffffffffffffffffffffffffffffffffffffff16600073ffffffffffffffffffffffffffffffffffffffff167fddf252ad1be2c89b69c2b068fc378daa952ba7f163c4a11628f55a4df523b3ef836040516137f19190613eed565b60405180910390a361380560008383613c21565b5050565b600073ffffffffffffffffffffffffffffffffffffffff168273ffffffffffffffffffffffffffffffffffffffff161415613879576040517f08c379a000000000000000000000000000000000000000000000000000000000815260040161387090615860565b60405180910390fd5b61388582600083613c1c565b60008060008473ffffffffffffffffffffffffffffffffffffffff1673ffffffffffffffffffffffffffffffffffffffff1681526020019081526020016000205490508181101561390b576040517f08c379a0000000000000000000000000000000000000000000000000000000008152600401613902906158f2565b60405180910390fd5b8181036000808573ffffffffffffffffffffffffffffffffffffffff1673ffffffffffffffffffffffffffffffffffffffff16815260200190815260200160002081905550816002600082825461396291906145ce565b92505081905550600073ffffffffffffffffffffffffffffffffffffffff168373ffffffffffffffffffffffffffffffffffffffff167fddf252ad1be2c89b69c2b068fc378daa952ba7f163c4a11628f55a4df523b3ef846040516139c79190613eed565b60405180910390a36139db83600084613c21565b505050565b6060600060028360026139f39190615912565b6139fd9190614578565b67ffffffffffffffff811115613a1657613a15614f97565b5b6040519080825280601f01601f191660200182016040528015613a485781602001600182028036833780820191505090505b5090507f300000000000000000000000000000000000000000000000000000000000000081600081518110613a8057613a7f614fc6565b5b60200101907effffffffffffffffffffffffffffffffffffffffffffffffffffffffffffff1916908160001a9053507f780000000000000000000000000000000000000000000000000000000000000081600181518110613ae457613ae3614fc6565b5b60200101907effffffffffffffffffffffffffffffffffffffffffffffffffffffffffffff1916908160001a90535060006001846002613b249190615912565b613b2e9190614578565b90505b6001811115613bce577f3031323334353637383961626364656600000000000000000000000000000000600f861660108110613b7057613b6f614fc6565b5b1a60f81b828281518110613b8757613b86614fc6565b5b60200101907effffffffffffffffffffffffffffffffffffffffffffffffffffffffffffff1916908160001a905350600485901c945080613bc79061596c565b9050613b31565b5060008414613c12576040517f08c379a0000000000000000000000000000000000000000000000000000000008152600401613c09906159e2565b60405180910390fd5b8091505092915050565b505050565b505050565b6000604051905090565b600080fd5b600080fd5b60007fffffffff0000000000000000000000000000000000000000000000000000000082169050919050565b613c6f81613c3a565b8114613c7a57600080fd5b50565b600081359050613c8c81613c66565b92915050565b600060208284031215613ca857613ca7613c30565b5b6000613cb684828501613c7d565b91505092915050565b60008115159050919050565b613cd481613cbf565b82525050565b6000602082019050613cef6000830184613ccb565b92915050565b600081519050919050565b600082825260208201905092915050565b60005b83811015613d2f578082015181840152602081019050613d14565b83811115613d3e576000848401525b50505050565b6000601f19601f8301169050919050565b6000613d6082613cf5565b613d6a8185613d00565b9350613d7a818560208601613d11565b613d8381613d44565b840191505092915050565b60006020820190508181036000830152613da88184613d55565b905092915050565b600073ffffffffffffffffffffffffffffffffffffffff82169050919050565b6000613ddb82613db0565b9050919050565b613deb81613dd0565b8114613df657600080fd5b50565b600081359050613e0881613de2565b92915050565b600060208284031215613e2457613e23613c30565b5b6000613e3284828501613df9565b91505092915050565b6000819050919050565b613e4e81613e3b565b8114613e5957600080fd5b50565b600081359050613e6b81613e45565b92915050565b600060208284031215613e8757613e86613c30565b5b6000613e9584828501613e5c565b91505092915050565b60008060408385031215613eb557613eb4613c30565b5b6000613ec385828601613df9565b9250506020613ed485828601613e5c565b9150509250929050565b613ee781613e3b565b82525050565b6000602082019050613f026000830184613ede565b92915050565b600080600060608486031215613f2157613f20613c30565b5b6000613f2f86828701613df9565b9350506020613f4086828701613df9565b9250506040613f5186828701613e5c565b9150509250925092565b6000819050919050565b613f6e81613f5b565b8114613f7957600080fd5b50565b600081359050613f8b81613f65565b92915050565b600060208284031215613fa757613fa6613c30565b5b6000613fb584828501613f7c565b91505092915050565b613fc781613f5b565b82525050565b6000602082019050613fe26000830184613fbe565b92915050565b60008060408385031215613fff57613ffe613c30565b5b600061400d85828601613f7c565b925050602061401e85828601613df9565b9150509250929050565b600060ff82169050919050565b61403e81614028565b82525050565b60006020820190506140596000830184614035565b92915050565b6000819050919050565b6140728161405f565b811461407d57600080fd5b50565b60008135905061408f81614069565b92915050565b60006140a082613db0565b9050919050565b6140b081614095565b81146140bb57600080fd5b50565b6000813590506140cd816140a7565b92915050565b600080fd5b600080fd5b600080fd5b60008083601f8401126140f8576140f76140d3565b5b8235905067ffffffffffffffff811115614115576141146140d8565b5b602083019150836001820283011115614131576141306140dd565b5b9250929050565b60008060008060008060a0878903121561415557614154613c30565b5b600061416389828a01614080565b965050602061417489828a01614080565b955050604061418589828a016140be565b945050606087013567ffffffffffffffff8111156141a6576141a5613c35565b5b6141b289828a016140e2565b935093505060806141c589828a01613e5c565b9150509295509295509295565b60006141dd82613dd0565b9050919050565b6141ed816141d2565b81146141f857600080fd5b50565b60008135905061420a816141e4565b92915050565b6000806000806080858703121561422a57614229613c30565b5b600061423887828801614080565b945050602061424987828801614080565b935050604061425a878288016141fb565b925050606061426b87828801613e5c565b91505092959194509250565b61428081613cbf565b811461428b57600080fd5b50565b60008135905061429d81614277565b92915050565b600080604083850312156142ba576142b9613c30565b5b60006142c88582860161428e565b92505060206142d98582860161428e565b9150509250929050565b6142ec81613dd0565b82525050565b600060208201905061430760008301846142e3565b92915050565b6000806040838503121561432457614323613c30565b5b600061433285828601613df9565b925050602061434385828601613df9565b9150509250929050565b7f4e487b7100000000000000000000000000000000000000000000000000000000600052602260045260246000fd5b6000600282049050600182168061439457607f821691505b602082108114156143a8576143a761434d565b5b50919050565b6000815190506143bd81613e45565b92915050565b6000602082840312156143d9576143d8613c30565b5b60006143e7848285016143ae565b91505092915050565b600481106143fd57600080fd5b50565b60008151905061440f816143f0565b92915050565b6002811061442257600080fd5b50565b60008151905061443481614415565b92915050565b60008151905061444981613de2565b92915050565b60008060006060848603121561446857614467613c30565b5b600061447686828701614400565b935050602061448786828701614425565b92505060406144988682870161443a565b9150509250925092565b7f4e487b7100000000000000000000000000000000000000000000000000000000600052602160045260246000fd5b600080604083850312156144e8576144e7613c30565b5b60006144f6858286016143ae565b9250506020614507858286016143ae565b9150509250929050565b61451a81613e3b565b82525050565b60006040820190506145356000830185614511565b6145426020830184614511565b9392505050565b7f4e487b7100000000000000000000000000000000000000000000000000000000600052601160045260246000fd5b600061458382613e3b565b915061458e83613e3b565b9250827fffffffffffffffffffffffffffffffffffffffffffffffffffffffffffffffff038211156145c3576145c2614549565b5b828201905092915050565b60006145d982613e3b565b91506145e483613e3b565b9250828210156145f7576145f6614549565b5b828203905092915050565b600060408201905061461760008301856142e3565b6146246020830184613ede565b9392505050565b60008151905061463a81614277565b92915050565b60006020828403121561465657614655613c30565b5b60006146648482850161462b565b91505092915050565b7f4661696c6564207061796d656e7420746f20686f6c6465720000000000000000600082015250565b60006146a3601883613d00565b91506146ae8261466d565b602082019050919050565b600060208201905081810360008301526146d281614696565b9050919050565b7f4661696c6564207061796d656e7420746f206d61696e74656e616e6365000000600082015250565b600061470f601d83613d00565b915061471a826146d9565b602082019050919050565b6000602082019050818103600083015261473e81614702565b9050919050565b7f4661696c6564207061796d656e7420746f206578657263697365722e00000000600082015250565b600061477b601c83613d00565b915061478682614745565b602082019050919050565b600060208201905081810360008301526147aa8161476e565b9050919050565b60006040820190506147c66000830185613ede565b6147d36020830184613ede565b9392505050565b7f45524332303a207472616e7366657220616d6f756e742065786365656473206160008201527f6c6c6f77616e6365000000000000000000000000000000000000000000000000602082015250565b6000614836602883613d00565b9150614841826147da565b604082019050919050565b6000602082019050818103600083015261486581614829565b9050919050565b7f416363657373436f6e74726f6c3a2063616e206f6e6c792072656e6f756e636560008201527f20726f6c657320666f722073656c660000000000000000000000000000000000602082015250565b60006148c8602f83613d00565b91506148d38261486c565b604082019050919050565b600060208201905081810360008301526148f7816148bb565b9050919050565b60008151905061490d81614069565b92915050565b6000806000806080858703121561492d5761492c613c30565b5b600061493b878288016148fe565b945050602061494c878288016148fe565b935050604061495d8782880161443a565b925050606061496e8782880161443a565b91505092959194509250565b600061498582613dd0565b9050919050565b6149958161497a565b81146149a057600080fd5b50565b6000815190506149b28161498c565b92915050565b6000602082840312156149ce576149cd613c30565b5b60006149dc848285016149a3565b91505092915050565b6000602082840312156149fb576149fa613c30565b5b6000614a098482850161443a565b91505092915050565b7f436f6c6c61746572616c20617070726f76616c206661696c65642e0000000000600082015250565b6000614a48601b83613d00565b9150614a5382614a12565b602082019050919050565b60006020820190508181036000830152614a7781614a3b565b9050919050565b6000819050919050565b600061ffff82169050919050565b6000819050919050565b6000614abb614ab6614ab184614a7e565b614a96565b614a88565b9050919050565b614acb81614aa0565b82525050565b6000608082019050614ae660008301876142e3565b614af36020830186613ede565b614b0060408301856142e3565b614b0d6060830184614ac2565b95945050505050565b600060a082019050614b2b60008301886142e3565b614b386020830187613ede565b614b456040830186613ede565b614b526060830185614ac2565b614b5f60808301846142e3565b9695505050505050565b6000614b748261405f565b91507f8000000000000000000000000000000000000000000000000000000000000000821415614ba757614ba6614549565b5b816000039050919050565b7f6e6f7420656e6f75676820746f6b656e20746f207265706179206c6f616e7300600082015250565b6000614be8601f83613d00565b9150614bf382614bb2565b602082019050919050565b60006020820190508181036000830152614c1781614bdb565b9050919050565b7f4c6f616e20617070726f76616c206661696c6564000000000000000000000000600082015250565b6000614c54601483613d00565b9150614c5f82614c1e565b602082019050919050565b60006020820190508181036000830152614c8381614c47565b9050919050565b6000608082019050614c9f60008301876142e3565b614cac6020830186613ede565b614cb96040830185613ede565b614cc660608301846142e3565b95945050505050565b6000606082019050614ce460008301866142e3565b614cf16020830185613ede565b614cfe60408301846142e3565b949350505050565b614d0f8161405f565b82525050565b614d1e81613dd0565b82525050565b6000608082019050614d396000830187614d06565b614d466020830186614d06565b614d536040830185614d15565b614d606060830184614d15565b95945050505050565b60008060008060808587031215614d8357614d82613c30565b5b6000614d91878288016143ae565b9450506020614da2878288016143ae565b9350506040614db38782880161443a565b9250506060614dc48782880161443a565b91505092959194509250565b6000614deb614de6614de184613db0565b614a96565b613db0565b9050919050565b6000614dfd82614dd0565b9050919050565b6000614e0f82614df2565b9050919050565b614e1f81614e04565b82525050565b6000604082019050614e3a6000830185614e16565b614e476020830184613ede565b9392505050565b7f5377617020617070726f76616c206661696c6564000000000000000000000000600082015250565b6000614e84601483613d00565b9150614e8f82614e4e565b602082019050919050565b60006020820190508181036000830152614eb381614e77565b9050919050565b600081905092915050565b82818337600083830152505050565b6000614ee08385614eba565b9350614eed838584614ec5565b82840190509392505050565b6000614f06828486614ed4565b91508190509392505050565b600081519050919050565b600082825260208201905092915050565b6000614f3982614f12565b614f438185614f1d565b9350614f53818560208601613d11565b614f5c81613d44565b840191505092915050565b6000604082019050614f7c6000830185613ccb565b8181036020830152614f8e8184614f2e565b90509392505050565b7f4e487b7100000000000000000000000000000000000000000000000000000000600052604160045260246000fd5b7f4e487b7100000000000000000000000000000000000000000000000000000000600052603260045260246000fd5b600081519050919050565b600082825260208201905092915050565b6000819050602082019050919050565b61502a81613dd0565b82525050565b600061503c8383615021565b60208301905092915050565b6000602082019050919050565b600061506082614ff5565b61506a8185615000565b935061507583615011565b8060005b838110156150a657815161508d8882615030565b975061509883615048565b925050600181019050615079565b5085935050505092915050565b600060a0820190506150c86000830188613ede565b6150d56020830187613ede565b81810360408301526150e78186615055565b90506150f660608301856142e3565b6151036080830184613ede565b9695505050505050565b61511682613d44565b810181811067ffffffffffffffff8211171561513557615134614f97565b5b80604052505050565b6000615148613c26565b9050615154828261510d565b919050565b600067ffffffffffffffff82111561517457615173614f97565b5b602082029050602081019050919050565b600061519861519384615159565b61513e565b905080838252602082019050602084028301858111156151bb576151ba6140dd565b5b835b818110156151e457806151d088826143ae565b8452602084019350506020810190506151bd565b5050509392505050565b600082601f830112615203576152026140d3565b5b8151615213848260208601615185565b91505092915050565b60006020828403121561523257615231613c30565b5b600082015167ffffffffffffffff8111156152505761524f613c35565b5b61525c848285016151ee565b91505092915050565b7f506172616d20746f6f2062696700000000000000000000000000000000000000600082015250565b600061529b600d83613d00565b91506152a682615265565b602082019050919050565b600060208201905081810360008301526152ca8161528e565b9050919050565b7f45524332303a2064656372656173656420616c6c6f77616e63652062656c6f7760008201527f207a65726f000000000000000000000000000000000000000000000000000000602082015250565b600061532d602583613d00565b9150615338826152d1565b604082019050919050565b6000602082019050818103600083015261535c81615320565b9050919050565b600060608201905061537860008301866142e3565b61538560208301856142e3565b6153926040830184613ede565b949350505050565b600081905092915050565b7f416363657373436f6e74726f6c3a206163636f756e7420000000000000000000600082015250565b60006153db60178361539a565b91506153e6826153a5565b601782019050919050565b60006153fc82613cf5565b615406818561539a565b9350615416818560208601613d11565b80840191505092915050565b7f206973206d697373696e6720726f6c6520000000000000000000000000000000600082015250565b600061545860118361539a565b915061546382615422565b601182019050919050565b6000615479826153ce565b915061548582856153f1565b91506154908261544b565b915061549c82846153f1565b91508190509392505050565b7f45524332303a20617070726f76652066726f6d20746865207a65726f2061646460008201527f7265737300000000000000000000000000000000000000000000000000000000602082015250565b6000615504602483613d00565b915061550f826154a8565b604082019050919050565b60006020820190508181036000830152615533816154f7565b9050919050565b7f45524332303a20617070726f766520746f20746865207a65726f20616464726560008201527f7373000000000000000000000000000000000000000000000000000000000000602082015250565b6000615596602283613d00565b91506155a18261553a565b604082019050919050565b600060208201905081810360008301526155c581615589565b9050919050565b7f45524332303a207472616e736665722066726f6d20746865207a65726f20616460008201527f6472657373000000000000000000000000000000000000000000000000000000602082015250565b6000615628602583613d00565b9150615633826155cc565b604082019050919050565b600060208201905081810360008301526156578161561b565b9050919050565b7f45524332303a207472616e7366657220746f20746865207a65726f206164647260008201527f6573730000000000000000000000000000000000000000000000000000000000602082015250565b60006156ba602383613d00565b91506156c58261565e565b604082019050919050565b600060208201905081810360008301526156e9816156ad565b9050919050565b7f45524332303a207472616e7366657220616d6f756e742065786365656473206260008201527f616c616e63650000000000000000000000000000000000000000000000000000602082015250565b600061574c602683613d00565b9150615757826156f0565b604082019050919050565b6000602082019050818103600083015261577b8161573f565b9050919050565b7f45524332303a206d696e7420746f20746865207a65726f206164647265737300600082015250565b60006157b8601f83613d00565b91506157c382615782565b602082019050919050565b600060208201905081810360008301526157e7816157ab565b9050919050565b7f45524332303a206275726e2066726f6d20746865207a65726f2061646472657360008201527f7300000000000000000000000000000000000000000000000000000000000000602082015250565b600061584a602183613d00565b9150615855826157ee565b604082019050919050565b600060208201905081810360008301526158798161583d565b9050919050565b7f45524332303a206275726e20616d6f756e7420657863656564732062616c616e60008201527f6365000000000000000000000000000000000000000000000000000000000000602082015250565b60006158dc602283613d00565b91506158e782615880565b604082019050919050565b6000602082019050818103600083015261590b816158cf565b9050919050565b600061591d82613e3b565b915061592883613e3b565b9250817fffffffffffffffffffffffffffffffffffffffffffffffffffffffffffffffff048311821515161561596157615960614549565b5b828202905092915050565b600061597782613e3b565b9150600082141561598b5761598a614549565b5b600182039050919050565b7f537472696e67733a20686578206c656e67746820696e73756666696369656e74600082015250565b60006159cc602083613d00565b91506159d782615996565b602082019050919050565b600060208201905081810360008301526159fb816159bf565b905091905056fea2646970667358221220774a4dc5327e2ab1b4c625549e9f3f829a2497ada190ba72f9ef3af77512ab3264736f6c634300080b0033",
  "immutableReferences": {
    "5222": [
      {
        "length": 32,
        "start": 3182
      },
      {
        "length": 32,
        "start": 3620
      },
      {
        "length": 32,
        "start": 4041
      },
      {
        "length": 32,
        "start": 4427
      },
      {
        "length": 32,
        "start": 10736
      },
      {
        "length": 32,
        "start": 11393
      }
    ],
    "5225": [
      {
        "length": 32,
        "start": 2090
      },
      {
        "length": 32,
        "start": 2240
      },
      {
        "length": 32,
        "start": 2445
      },
      {
        "length": 32,
        "start": 2587
      },
      {
        "length": 32,
        "start": 5508
      },
      {
        "length": 32,
        "start": 5674
      },
      {
        "length": 32,
        "start": 9335
      },
      {
        "length": 32,
        "start": 9500
      },
      {
        "length": 32,
        "start": 9643
      }
    ],
    "5228": [
      {
        "length": 32,
        "start": 6348
      },
      {
        "length": 32,
        "start": 6499
      },
      {
        "length": 32,
        "start": 6718
      },
      {
        "length": 32,
        "start": 6967
      },
      {
        "length": 32,
        "start": 7583
      },
      {
        "length": 32,
        "start": 8209
      }
    ],
    "5231": [
      {
        "length": 32,
        "start": 3092
      },
      {
        "length": 32,
        "start": 3530
      },
      {
        "length": 32,
        "start": 3917
      },
      {
        "length": 32,
        "start": 4337
      },
      {
        "length": 32,
        "start": 5943
      },
      {
        "length": 32,
        "start": 6192
      },
      {
        "length": 32,
        "start": 7144
      },
      {
        "length": 32,
        "start": 7616
      },
      {
        "length": 32,
        "start": 8242
      },
      {
        "length": 32,
        "start": 10999
      },
      {
        "length": 32,
        "start": 11532
      }
    ]
  },
  "source": "// SPDX-License-Identifier: MIT\npragma solidity ^0.8.0;\n\nimport \"@openzeppelin/contracts/access/AccessControl.sol\";\nimport \"@openzeppelin/contracts/utils/structs/EnumerableSet.sol\";\nimport \"./MarketLibrary.sol\";\nimport \"./OptionVault.sol\";\nimport \"./interfaces/EOption.sol\";\nimport \"./interfaces/IUniswapV2Router02.sol\";\nimport \"./interfaces/ILendingPoolAddressesProvider.sol\";\nimport \"./interfaces/ILendingPool.sol\";\n\ncontract MoretMarketMaker is ERC20, AccessControl, EOption{\n  using FullMath for uint256;\n  using MarketLibrary for uint256;\n  \n  bytes32 public constant ADMIN_ROLE = keccak256(\"ADMIN_ROLE\");\n  bytes32 public constant EXCHANGE_ROLE = keccak256(\"EXCHANGE_ROLE\");\n  uint256 internal constant BASE = 1e18;\n\n  uint256 internal immutable fundingDecimals;\n  OptionVault internal immutable optionVault;\n  ERC20 internal immutable underlying;\n  ERC20 internal immutable funding;\n\n  uint256 public settlementFee= 0.005e18;\n  uint256 public exerciseFee= 0.005e18;\n  uint256 public swapSlippage = 0.0005e18;\n  uint256 public lendingPoolRateMode = 2;\n  address public maintenanceAddress;\n  \n  constructor(string memory _name, string memory _symbol, OptionVault _optionVault) ERC20(_name, _symbol){\n    _setupRole(DEFAULT_ADMIN_ROLE, msg.sender);\n    _setupRole(ADMIN_ROLE, msg.sender);\n    _setupRole(EXCHANGE_ROLE, msg.sender);\n    maintenanceAddress = msg.sender;\n    optionVault = _optionVault;\n    underlying = _optionVault.underlying();\n    funding = _optionVault.funding();\n    fundingDecimals = _optionVault.funding().decimals();\n    _mint(msg.sender, BASE);}\n\n  function expireOptions(address _exerciseFeeRecipient) external {\n    uint256 _expiringId = optionVault.getExpiringOptionId();\n    (OptionLibrary.OptionStatus _optionStatus, OptionLibrary.OptionSide _optionSide, address _optionHolder) = optionVault.getOptionInfo(_expiringId);\n\n    if(_optionStatus == OptionLibrary.OptionStatus.Active){\n      optionVault.stampExpiredOption(_expiringId);\n    \n      (uint256 _payoff, uint256 _payback) = optionVault.getContractPayoff(_expiringId);\n      \n      uint256 _settleFeeAmount = _payoff.ethmul(settlementFee);\n      uint256 _exerciseFeeAmount = _payoff.ethmul(exerciseFee);\n      \n      if(_optionSide == OptionLibrary.OptionSide.Buy){\n        _payback = _payback - Math.min(_payback, _settleFeeAmount + _exerciseFeeAmount);\n        if(_payback > 0){\n          require(funding.transfer(_optionHolder, _payback.toDecimals(fundingDecimals)), \"Failed payment to holder\");}}\n      else if(_optionSide == OptionLibrary.OptionSide.Sell && _payback > 0){\n        require(funding.transfer(_optionHolder, _payback.toDecimals(fundingDecimals)), \"Failed payment to holder\");}\n\n      if(_settleFeeAmount > 0){\n        require(funding.transfer(maintenanceAddress, _settleFeeAmount.toDecimals(fundingDecimals)), \"Failed payment to maintenance\");}\n\n      if(_exerciseFeeAmount > 0){\n        require(funding.transfer(_exerciseFeeRecipient, _exerciseFeeAmount.toDecimals(fundingDecimals)), \"Failed payment to exerciser.\");}\n      \n      emit Expire(_optionHolder, _expiringId, _payback);}}\n\n  function calcCapital(bool _net, bool _average) public view returns(uint256 _capital){\n    _capital = optionVault.getGrossCapital(address(this));\n    if(_net){ _capital -= Math.min(optionVault.getMaxHedge() + optionVault.sellPutCollaterals(), _capital);}\n    if(_average){ \n      if(totalSupply() > 0) {\n        _capital = _capital.ethdiv(totalSupply()); }\n      else if(totalSupply() == 0 && _capital == 0) {\n        _capital = BASE;}}}\n    \n  function addCapital(uint256 _depositAmount) external {\n      uint256 _mintMPTokenAmount = MarketLibrary.toWei(_depositAmount, fundingDecimals).ethdiv(calcCapital(false, true));\n      require(funding.transferFrom(msg.sender, address(this), _depositAmount));\n      _mint(msg.sender, _mintMPTokenAmount);}\n\n  function withdrawCapital(uint256 _burnMPTokenAmount) external {\n      uint256 _withdrawValue = calcCapital(true, true).ethmul(_burnMPTokenAmount).toDecimals(fundingDecimals); \n      _burn(msg.sender, _burnMPTokenAmount);\n      require(funding.transfer(msg.sender, _withdrawValue));}\n\n  function tradeSwapAggregate(int256 _underlyingAmt, int256 _fundingAmt, address payable _spender, bytes calldata _calldata, uint256 _gas) external onlyRole(EXCHANGE_ROLE){\n    (uint256 _fromAmt, , address _fromAddress, ) = MarketLibrary.cleanTradeAmounts(_underlyingAmt, _fundingAmt, address(underlying), address(funding));\n    require(ERC20(_fromAddress).approve(_spender, _fromAmt), \"Swap approval failed\");\n    (bool success, bytes memory data) = _spender.call{gas: _gas}(_calldata);\n    emit Response(success, data);}\n\n  function tradeSwaps(int256 _underlyingAmt, int256 _fundingAmt, IUniswapV2Router02 _router, uint256 _deadline) external onlyRole(EXCHANGE_ROLE) {\n    (uint256 _fromAmt, uint256 _toAmt, address _fromAddress, address _toAddress) = MarketLibrary.cleanTradeAmounts(_underlyingAmt, _fundingAmt, address(underlying), address(funding));\n    require(ERC20(_fromAddress).approve(address(_router), _fromAmt), \"Swap approval failed\");\n    address[] memory _path = new address[](2);\n    _path[0]=_fromAddress;\n    _path[1] = _toAddress;\n    _router.swapTokensForExactTokens(_toAmt, _fromAmt, _path, address(this), block.timestamp + _deadline );}\n\n  function hedgeTradesForLoans() external onlyRole(EXCHANGE_ROLE) {\n    (int256 _loanTradeAmount, int256 _collateralChange,,) = optionVault.calcLoanTradesInTok(address(this), lendingPoolRateMode);\n    address _lendingPoolAddress = ILendingPoolAddressesProvider(optionVault.aaveAddress()).getLendingPool();\n    ILendingPool _lendingPool = ILendingPool(_lendingPoolAddress);\n\n    if(_collateralChange > 0){\n      require(funding.approve(_lendingPoolAddress, uint256(_collateralChange)), \"Collateral approval failed.\");\n      _lendingPool.deposit(address(funding), uint256(_collateralChange), address(this), 0);}\n    \n    if(_loanTradeAmount > 0){\n      _lendingPool.borrow(address(underlying), uint256(_loanTradeAmount), lendingPoolRateMode,  0, address(this));}\n    else if(_loanTradeAmount < 0){\n      uint256 _loan = uint256(-_loanTradeAmount);\n      require(underlying.balanceOf(address(this))>= _loan, \"not enough token to repay loans\");\n      require(underlying.approve(_lendingPoolAddress, _loan), \"Loan approval failed\");\n      _lendingPool.repay(address(underlying), _loan, lendingPoolRateMode, address(this));}\n\n    if(_collateralChange < 0){\n      _lendingPool.withdraw(address(funding), uint256(-_collateralChange), address(this));}}\n\n  function resetSettlementFee(uint256 _newFee) external onlyRole(ADMIN_ROLE){ \n    require(_newFee < BASE, \"Param too big\"); \n    settlementFee = _newFee;\n    emit ResetParameter(0, _newFee);}\n\n  function resetExerciseFee(uint256 _newFee) external onlyRole(ADMIN_ROLE){ \n    require(_newFee < BASE, \"Param too big\"); \n    exerciseFee = _newFee;\n    emit ResetParameter(1, _newFee);}\n\n  function resetSlippage(uint256 _slippage) external onlyRole(ADMIN_ROLE){ \n    swapSlippage = _slippage;\n    emit ResetParameter(2, _slippage);}\n  \n  function resetLendingPoolRateMode(uint256 _newRateMode) external onlyRole(ADMIN_ROLE) {\n    require(_newRateMode == 1 || _newRateMode == 2);\n    lendingPoolRateMode = _newRateMode;\n    emit ResetParameter(3, _newRateMode);}\n\n  function resetMaintenance(address _newAddress) external onlyRole(ADMIN_ROLE){ \n    maintenanceAddress = _newAddress;\n    emit ResetAddress(0, _newAddress);}\n}\n",
  "sourcePath": "/Users/sen/Documents/GitHub/moret/contracts/MoretMarketMaker.sol",
  "compiler": {
    "name": "solc",
    "version": "0.8.11+commit.d7f03943.Emscripten.clang"
  },
  "schemaVersion": "3.4.4",
  "updatedAt": "2022-02-02T01:09:36.380Z",
  "networkType": "ethereum",
  "devdoc": {
    "kind": "dev",
    "methods": {
      "allowance(address,address)": {
        "details": "See {IERC20-allowance}."
      },
      "approve(address,uint256)": {
        "details": "See {IERC20-approve}. Requirements: - `spender` cannot be the zero address."
      },
      "balanceOf(address)": {
        "details": "See {IERC20-balanceOf}."
      },
      "decimals()": {
        "details": "Returns the number of decimals used to get its user representation. For example, if `decimals` equals `2`, a balance of `505` tokens should be displayed to a user as `5.05` (`505 / 10 ** 2`). Tokens usually opt for a value of 18, imitating the relationship between Ether and Wei. This is the value {ERC20} uses, unless this function is overridden; NOTE: This information is only used for _display_ purposes: it in no way affects any of the arithmetic of the contract, including {IERC20-balanceOf} and {IERC20-transfer}."
      },
      "decreaseAllowance(address,uint256)": {
        "details": "Atomically decreases the allowance granted to `spender` by the caller. This is an alternative to {approve} that can be used as a mitigation for problems described in {IERC20-approve}. Emits an {Approval} event indicating the updated allowance. Requirements: - `spender` cannot be the zero address. - `spender` must have allowance for the caller of at least `subtractedValue`."
      },
      "getRoleAdmin(bytes32)": {
        "details": "Returns the admin role that controls `role`. See {grantRole} and {revokeRole}. To change a role's admin, use {_setRoleAdmin}."
      },
      "grantRole(bytes32,address)": {
        "details": "Grants `role` to `account`. If `account` had not been already granted `role`, emits a {RoleGranted} event. Requirements: - the caller must have ``role``'s admin role."
      },
      "hasRole(bytes32,address)": {
        "details": "Returns `true` if `account` has been granted `role`."
      },
      "increaseAllowance(address,uint256)": {
        "details": "Atomically increases the allowance granted to `spender` by the caller. This is an alternative to {approve} that can be used as a mitigation for problems described in {IERC20-approve}. Emits an {Approval} event indicating the updated allowance. Requirements: - `spender` cannot be the zero address."
      },
      "name()": {
        "details": "Returns the name of the token."
      },
      "renounceRole(bytes32,address)": {
        "details": "Revokes `role` from the calling account. Roles are often managed via {grantRole} and {revokeRole}: this function's purpose is to provide a mechanism for accounts to lose their privileges if they are compromised (such as when a trusted device is misplaced). If the calling account had been revoked `role`, emits a {RoleRevoked} event. Requirements: - the caller must be `account`."
      },
      "revokeRole(bytes32,address)": {
        "details": "Revokes `role` from `account`. If `account` had been granted `role`, emits a {RoleRevoked} event. Requirements: - the caller must have ``role``'s admin role."
      },
      "supportsInterface(bytes4)": {
        "details": "See {IERC165-supportsInterface}."
      },
      "symbol()": {
        "details": "Returns the symbol of the token, usually a shorter version of the name."
      },
      "totalSupply()": {
        "details": "See {IERC20-totalSupply}."
      },
      "transfer(address,uint256)": {
        "details": "See {IERC20-transfer}. Requirements: - `recipient` cannot be the zero address. - the caller must have a balance of at least `amount`."
      },
      "transferFrom(address,address,uint256)": {
        "details": "See {IERC20-transferFrom}. Emits an {Approval} event indicating the updated allowance. This is not required by the EIP. See the note at the beginning of {ERC20}. Requirements: - `sender` and `recipient` cannot be the zero address. - `sender` must have a balance of at least `amount`. - the caller must have allowance for ``sender``'s tokens of at least `amount`."
      }
    },
    "version": 1
  },
  "userdoc": {
    "kind": "user",
    "methods": {},
    "version": 1
  }
}