{
  "contractName": "MoretMarketMaker",
  "abi": [
    {
      "inputs": [
        {
          "internalType": "string",
          "name": "_name",
          "type": "string"
        },
        {
          "internalType": "string",
          "name": "_symbol",
          "type": "string"
        },
        {
          "internalType": "address",
          "name": "_underlyingAddress",
          "type": "address"
        },
        {
          "internalType": "address",
          "name": "_fundingAddress",
          "type": "address"
        },
        {
          "internalType": "address",
          "name": "_optionAddress",
          "type": "address"
        },
        {
          "internalType": "address",
          "name": "_swapRouterAddress",
          "type": "address"
        },
        {
          "internalType": "address",
          "name": "_lendingPoolAddressProvider",
          "type": "address"
        }
      ],
      "stateMutability": "nonpayable",
      "type": "constructor"
    },
    {
      "anonymous": false,
      "inputs": [
        {
          "indexed": true,
          "internalType": "address",
          "name": "owner",
          "type": "address"
        },
        {
          "indexed": true,
          "internalType": "address",
          "name": "spender",
          "type": "address"
        },
        {
          "indexed": false,
          "internalType": "uint256",
          "name": "value",
          "type": "uint256"
        }
      ],
      "name": "Approval",
      "type": "event"
    },
    {
      "anonymous": false,
      "inputs": [
        {
          "indexed": true,
          "internalType": "bytes32",
          "name": "role",
          "type": "bytes32"
        },
        {
          "indexed": true,
          "internalType": "bytes32",
          "name": "previousAdminRole",
          "type": "bytes32"
        },
        {
          "indexed": true,
          "internalType": "bytes32",
          "name": "newAdminRole",
          "type": "bytes32"
        }
      ],
      "name": "RoleAdminChanged",
      "type": "event"
    },
    {
      "anonymous": false,
      "inputs": [
        {
          "indexed": true,
          "internalType": "bytes32",
          "name": "role",
          "type": "bytes32"
        },
        {
          "indexed": true,
          "internalType": "address",
          "name": "account",
          "type": "address"
        },
        {
          "indexed": true,
          "internalType": "address",
          "name": "sender",
          "type": "address"
        }
      ],
      "name": "RoleGranted",
      "type": "event"
    },
    {
      "anonymous": false,
      "inputs": [
        {
          "indexed": true,
          "internalType": "bytes32",
          "name": "role",
          "type": "bytes32"
        },
        {
          "indexed": true,
          "internalType": "address",
          "name": "account",
          "type": "address"
        },
        {
          "indexed": true,
          "internalType": "address",
          "name": "sender",
          "type": "address"
        }
      ],
      "name": "RoleRevoked",
      "type": "event"
    },
    {
      "anonymous": false,
      "inputs": [
        {
          "indexed": true,
          "internalType": "address",
          "name": "from",
          "type": "address"
        },
        {
          "indexed": true,
          "internalType": "address",
          "name": "to",
          "type": "address"
        },
        {
          "indexed": false,
          "internalType": "uint256",
          "name": "value",
          "type": "uint256"
        }
      ],
      "name": "Transfer",
      "type": "event"
    },
    {
      "anonymous": false,
      "inputs": [
        {
          "indexed": false,
          "internalType": "address",
          "name": "_recipient",
          "type": "address"
        },
        {
          "indexed": false,
          "internalType": "uint256",
          "name": "_mintMPTokenAmount",
          "type": "uint256"
        },
        {
          "indexed": false,
          "internalType": "uint256",
          "name": "_addedValue",
          "type": "uint256"
        }
      ],
      "name": "capitalAdded",
      "type": "event"
    },
    {
      "anonymous": false,
      "inputs": [
        {
          "indexed": false,
          "internalType": "address",
          "name": "_recipient",
          "type": "address"
        },
        {
          "indexed": false,
          "internalType": "uint256",
          "name": "_burnMPTokenAmount",
          "type": "uint256"
        },
        {
          "indexed": false,
          "internalType": "uint256",
          "name": "_withdrawValue",
          "type": "uint256"
        }
      ],
      "name": "capitalWithdrawn",
      "type": "event"
    },
    {
      "anonymous": false,
      "inputs": [
        {
          "indexed": true,
          "internalType": "address",
          "name": "_purchaser",
          "type": "address"
        },
        {
          "components": [
            {
              "internalType": "enum OptionLibrary.PayoffType",
              "name": "poType",
              "type": "uint8"
            },
            {
              "internalType": "enum OptionLibrary.OptionSide",
              "name": "side",
              "type": "uint8"
            },
            {
              "internalType": "enum OptionLibrary.OptionStatus",
              "name": "status",
              "type": "uint8"
            },
            {
              "internalType": "address",
              "name": "holder",
              "type": "address"
            },
            {
              "internalType": "uint256",
              "name": "id",
              "type": "uint256"
            },
            {
              "internalType": "uint256",
              "name": "createTime",
              "type": "uint256"
            },
            {
              "internalType": "uint256",
              "name": "effectiveTime",
              "type": "uint256"
            },
            {
              "internalType": "uint256",
              "name": "tenor",
              "type": "uint256"
            },
            {
              "internalType": "uint256",
              "name": "exerciseTime",
              "type": "uint256"
            },
            {
              "internalType": "uint256",
              "name": "amount",
              "type": "uint256"
            },
            {
              "internalType": "uint256",
              "name": "spot",
              "type": "uint256"
            },
            {
              "internalType": "uint256",
              "name": "strike",
              "type": "uint256"
            },
            {
              "internalType": "uint256",
              "name": "volatility",
              "type": "uint256"
            },
            {
              "internalType": "uint256",
              "name": "premium",
              "type": "uint256"
            },
            {
              "internalType": "uint256",
              "name": "fee",
              "type": "uint256"
            }
          ],
          "indexed": false,
          "internalType": "struct OptionLibrary.Option",
          "name": "_option",
          "type": "tuple"
        },
        {
          "indexed": false,
          "internalType": "uint256",
          "name": "_cost",
          "type": "uint256"
        },
        {
          "indexed": false,
          "internalType": "bool",
          "name": "_inVol",
          "type": "bool"
        }
      ],
      "name": "newOptionBought",
      "type": "event"
    },
    {
      "anonymous": false,
      "inputs": [
        {
          "indexed": false,
          "internalType": "address",
          "name": "_purchaser",
          "type": "address"
        },
        {
          "indexed": false,
          "internalType": "uint256",
          "name": "_time",
          "type": "uint256"
        },
        {
          "indexed": false,
          "internalType": "uint256",
          "name": "_tenor",
          "type": "uint256"
        },
        {
          "indexed": false,
          "internalType": "uint256",
          "name": "_amount",
          "type": "uint256"
        }
      ],
      "name": "newVolatilityTokenBought",
      "type": "event"
    },
    {
      "anonymous": false,
      "inputs": [
        {
          "indexed": true,
          "internalType": "address",
          "name": "_purchaser",
          "type": "address"
        },
        {
          "components": [
            {
              "internalType": "enum OptionLibrary.PayoffType",
              "name": "poType",
              "type": "uint8"
            },
            {
              "internalType": "enum OptionLibrary.OptionSide",
              "name": "side",
              "type": "uint8"
            },
            {
              "internalType": "enum OptionLibrary.OptionStatus",
              "name": "status",
              "type": "uint8"
            },
            {
              "internalType": "address",
              "name": "holder",
              "type": "address"
            },
            {
              "internalType": "uint256",
              "name": "id",
              "type": "uint256"
            },
            {
              "internalType": "uint256",
              "name": "createTime",
              "type": "uint256"
            },
            {
              "internalType": "uint256",
              "name": "effectiveTime",
              "type": "uint256"
            },
            {
              "internalType": "uint256",
              "name": "tenor",
              "type": "uint256"
            },
            {
              "internalType": "uint256",
              "name": "exerciseTime",
              "type": "uint256"
            },
            {
              "internalType": "uint256",
              "name": "amount",
              "type": "uint256"
            },
            {
              "internalType": "uint256",
              "name": "spot",
              "type": "uint256"
            },
            {
              "internalType": "uint256",
              "name": "strike",
              "type": "uint256"
            },
            {
              "internalType": "uint256",
              "name": "volatility",
              "type": "uint256"
            },
            {
              "internalType": "uint256",
              "name": "premium",
              "type": "uint256"
            },
            {
              "internalType": "uint256",
              "name": "fee",
              "type": "uint256"
            }
          ],
          "indexed": false,
          "internalType": "struct OptionLibrary.Option",
          "name": "_option",
          "type": "tuple"
        },
        {
          "indexed": false,
          "internalType": "uint256",
          "name": "_payoff",
          "type": "uint256"
        }
      ],
      "name": "optionExercised",
      "type": "event"
    },
    {
      "inputs": [],
      "name": "ADMIN_ROLE",
      "outputs": [
        {
          "internalType": "bytes32",
          "name": "",
          "type": "bytes32"
        }
      ],
      "stateMutability": "view",
      "type": "function"
    },
    {
      "inputs": [],
      "name": "DEFAULT_ADMIN_ROLE",
      "outputs": [
        {
          "internalType": "bytes32",
          "name": "",
          "type": "bytes32"
        }
      ],
      "stateMutability": "view",
      "type": "function"
    },
    {
      "inputs": [],
      "name": "EXCHANGE_ROLE",
      "outputs": [
        {
          "internalType": "bytes32",
          "name": "",
          "type": "bytes32"
        }
      ],
      "stateMutability": "view",
      "type": "function"
    },
    {
      "inputs": [
        {
          "internalType": "address",
          "name": "owner",
          "type": "address"
        },
        {
          "internalType": "address",
          "name": "spender",
          "type": "address"
        }
      ],
      "name": "allowance",
      "outputs": [
        {
          "internalType": "uint256",
          "name": "",
          "type": "uint256"
        }
      ],
      "stateMutability": "view",
      "type": "function"
    },
    {
      "inputs": [
        {
          "internalType": "address",
          "name": "spender",
          "type": "address"
        },
        {
          "internalType": "uint256",
          "name": "amount",
          "type": "uint256"
        }
      ],
      "name": "approve",
      "outputs": [
        {
          "internalType": "bool",
          "name": "",
          "type": "bool"
        }
      ],
      "stateMutability": "nonpayable",
      "type": "function"
    },
    {
      "inputs": [
        {
          "internalType": "address",
          "name": "account",
          "type": "address"
        }
      ],
      "name": "balanceOf",
      "outputs": [
        {
          "internalType": "uint256",
          "name": "",
          "type": "uint256"
        }
      ],
      "stateMutability": "view",
      "type": "function"
    },
    {
      "inputs": [],
      "name": "callExposure",
      "outputs": [
        {
          "internalType": "uint256",
          "name": "",
          "type": "uint256"
        }
      ],
      "stateMutability": "view",
      "type": "function"
    },
    {
      "inputs": [],
      "name": "decimals",
      "outputs": [
        {
          "internalType": "uint8",
          "name": "",
          "type": "uint8"
        }
      ],
      "stateMutability": "view",
      "type": "function"
    },
    {
      "inputs": [
        {
          "internalType": "address",
          "name": "spender",
          "type": "address"
        },
        {
          "internalType": "uint256",
          "name": "subtractedValue",
          "type": "uint256"
        }
      ],
      "name": "decreaseAllowance",
      "outputs": [
        {
          "internalType": "bool",
          "name": "",
          "type": "bool"
        }
      ],
      "stateMutability": "nonpayable",
      "type": "function"
    },
    {
      "inputs": [],
      "name": "fundingAddress",
      "outputs": [
        {
          "internalType": "address",
          "name": "",
          "type": "address"
        }
      ],
      "stateMutability": "view",
      "type": "function"
    },
    {
      "inputs": [
        {
          "internalType": "bytes32",
          "name": "role",
          "type": "bytes32"
        }
      ],
      "name": "getRoleAdmin",
      "outputs": [
        {
          "internalType": "bytes32",
          "name": "",
          "type": "bytes32"
        }
      ],
      "stateMutability": "view",
      "type": "function"
    },
    {
      "inputs": [
        {
          "internalType": "bytes32",
          "name": "role",
          "type": "bytes32"
        },
        {
          "internalType": "address",
          "name": "account",
          "type": "address"
        }
      ],
      "name": "grantRole",
      "outputs": [],
      "stateMutability": "nonpayable",
      "type": "function"
    },
    {
      "inputs": [
        {
          "internalType": "bytes32",
          "name": "role",
          "type": "bytes32"
        },
        {
          "internalType": "address",
          "name": "account",
          "type": "address"
        }
      ],
      "name": "hasRole",
      "outputs": [
        {
          "internalType": "bool",
          "name": "",
          "type": "bool"
        }
      ],
      "stateMutability": "view",
      "type": "function"
    },
    {
      "inputs": [
        {
          "internalType": "address",
          "name": "spender",
          "type": "address"
        },
        {
          "internalType": "uint256",
          "name": "addedValue",
          "type": "uint256"
        }
      ],
      "name": "increaseAllowance",
      "outputs": [
        {
          "internalType": "bool",
          "name": "",
          "type": "bool"
        }
      ],
      "stateMutability": "nonpayable",
      "type": "function"
    },
    {
      "inputs": [],
      "name": "lendingPoolAddressProviderAddress",
      "outputs": [
        {
          "internalType": "address",
          "name": "",
          "type": "address"
        }
      ],
      "stateMutability": "view",
      "type": "function"
    },
    {
      "inputs": [],
      "name": "lendingPoolRateMode",
      "outputs": [
        {
          "internalType": "uint256",
          "name": "",
          "type": "uint256"
        }
      ],
      "stateMutability": "view",
      "type": "function"
    },
    {
      "inputs": [],
      "name": "lockedPremium",
      "outputs": [
        {
          "internalType": "uint256",
          "name": "",
          "type": "uint256"
        }
      ],
      "stateMutability": "view",
      "type": "function"
    },
    {
      "inputs": [],
      "name": "name",
      "outputs": [
        {
          "internalType": "string",
          "name": "",
          "type": "string"
        }
      ],
      "stateMutability": "view",
      "type": "function"
    },
    {
      "inputs": [],
      "name": "putExposure",
      "outputs": [
        {
          "internalType": "uint256",
          "name": "",
          "type": "uint256"
        }
      ],
      "stateMutability": "view",
      "type": "function"
    },
    {
      "inputs": [
        {
          "internalType": "bytes32",
          "name": "role",
          "type": "bytes32"
        },
        {
          "internalType": "address",
          "name": "account",
          "type": "address"
        }
      ],
      "name": "renounceRole",
      "outputs": [],
      "stateMutability": "nonpayable",
      "type": "function"
    },
    {
      "inputs": [
        {
          "internalType": "bytes32",
          "name": "role",
          "type": "bytes32"
        },
        {
          "internalType": "address",
          "name": "account",
          "type": "address"
        }
      ],
      "name": "revokeRole",
      "outputs": [],
      "stateMutability": "nonpayable",
      "type": "function"
    },
    {
      "inputs": [],
      "name": "shortPosition",
      "outputs": [
        {
          "internalType": "uint256",
          "name": "",
          "type": "uint256"
        }
      ],
      "stateMutability": "view",
      "type": "function"
    },
    {
      "inputs": [
        {
          "internalType": "bytes4",
          "name": "interfaceId",
          "type": "bytes4"
        }
      ],
      "name": "supportsInterface",
      "outputs": [
        {
          "internalType": "bool",
          "name": "",
          "type": "bool"
        }
      ],
      "stateMutability": "view",
      "type": "function"
    },
    {
      "inputs": [],
      "name": "swapRouterAddress",
      "outputs": [
        {
          "internalType": "address",
          "name": "",
          "type": "address"
        }
      ],
      "stateMutability": "view",
      "type": "function"
    },
    {
      "inputs": [],
      "name": "swapSlp",
      "outputs": [
        {
          "internalType": "uint256",
          "name": "",
          "type": "uint256"
        }
      ],
      "stateMutability": "view",
      "type": "function"
    },
    {
      "inputs": [],
      "name": "symbol",
      "outputs": [
        {
          "internalType": "string",
          "name": "",
          "type": "string"
        }
      ],
      "stateMutability": "view",
      "type": "function"
    },
    {
      "inputs": [],
      "name": "totalSupply",
      "outputs": [
        {
          "internalType": "uint256",
          "name": "",
          "type": "uint256"
        }
      ],
      "stateMutability": "view",
      "type": "function"
    },
    {
      "inputs": [
        {
          "internalType": "address",
          "name": "recipient",
          "type": "address"
        },
        {
          "internalType": "uint256",
          "name": "amount",
          "type": "uint256"
        }
      ],
      "name": "transfer",
      "outputs": [
        {
          "internalType": "bool",
          "name": "",
          "type": "bool"
        }
      ],
      "stateMutability": "nonpayable",
      "type": "function"
    },
    {
      "inputs": [
        {
          "internalType": "address",
          "name": "sender",
          "type": "address"
        },
        {
          "internalType": "address",
          "name": "recipient",
          "type": "address"
        },
        {
          "internalType": "uint256",
          "name": "amount",
          "type": "uint256"
        }
      ],
      "name": "transferFrom",
      "outputs": [
        {
          "internalType": "bool",
          "name": "",
          "type": "bool"
        }
      ],
      "stateMutability": "nonpayable",
      "type": "function"
    },
    {
      "inputs": [],
      "name": "underlyingAddress",
      "outputs": [
        {
          "internalType": "address",
          "name": "",
          "type": "address"
        }
      ],
      "stateMutability": "view",
      "type": "function"
    },
    {
      "inputs": [
        {
          "internalType": "address",
          "name": "_purchaser",
          "type": "address"
        },
        {
          "internalType": "uint256",
          "name": "_id",
          "type": "uint256"
        },
        {
          "internalType": "bool",
          "name": "_isPuchase",
          "type": "bool"
        },
        {
          "internalType": "uint256",
          "name": "_newPremium",
          "type": "uint256"
        },
        {
          "internalType": "uint256",
          "name": "_newCallExposure",
          "type": "uint256"
        },
        {
          "internalType": "uint256",
          "name": "_newPutExposure",
          "type": "uint256"
        }
      ],
      "name": "recordOption",
      "outputs": [],
      "stateMutability": "nonpayable",
      "type": "function"
    },
    {
      "inputs": [],
      "name": "calcTotalDelta",
      "outputs": [
        {
          "internalType": "int256",
          "name": "",
          "type": "int256"
        }
      ],
      "stateMutability": "view",
      "type": "function"
    },
    {
      "inputs": [
        {
          "internalType": "uint256",
          "name": "_deadline",
          "type": "uint256"
        }
      ],
      "name": "updateHedges",
      "outputs": [
        {
          "internalType": "uint256",
          "name": "",
          "type": "uint256"
        }
      ],
      "stateMutability": "nonpayable",
      "type": "function"
    },
    {
      "inputs": [
        {
          "internalType": "uint256",
          "name": "_depositAmount",
          "type": "uint256"
        }
      ],
      "name": "addCapital",
      "outputs": [],
      "stateMutability": "nonpayable",
      "type": "function"
    },
    {
      "inputs": [
        {
          "internalType": "uint256",
          "name": "_burnMPTokenAmount",
          "type": "uint256"
        }
      ],
      "name": "withdrawCapital",
      "outputs": [],
      "stateMutability": "nonpayable",
      "type": "function"
    },
    {
      "inputs": [
        {
          "internalType": "bool",
          "name": "_net",
          "type": "bool"
        },
        {
          "internalType": "bool",
          "name": "_average",
          "type": "bool"
        }
      ],
      "name": "calcCapital",
      "outputs": [
        {
          "internalType": "uint256",
          "name": "",
          "type": "uint256"
        }
      ],
      "stateMutability": "view",
      "type": "function"
    },
    {
      "inputs": [
        {
          "internalType": "uint256",
          "name": "_multiplier",
          "type": "uint256"
        }
      ],
      "name": "resetSwapSlippageAllowance",
      "outputs": [],
      "stateMutability": "nonpayable",
      "type": "function"
    },
    {
      "inputs": [
        {
          "internalType": "address",
          "name": "_address",
          "type": "address"
        }
      ],
      "name": "getHoldersOptionCount",
      "outputs": [
        {
          "internalType": "uint256",
          "name": "",
          "type": "uint256"
        }
      ],
      "stateMutability": "view",
      "type": "function"
    },
    {
      "inputs": [
        {
          "internalType": "uint256",
          "name": "_index",
          "type": "uint256"
        },
        {
          "internalType": "address",
          "name": "_address",
          "type": "address"
        }
      ],
      "name": "getHoldersOption",
      "outputs": [
        {
          "components": [
            {
              "internalType": "enum OptionLibrary.PayoffType",
              "name": "poType",
              "type": "uint8"
            },
            {
              "internalType": "enum OptionLibrary.OptionSide",
              "name": "side",
              "type": "uint8"
            },
            {
              "internalType": "enum OptionLibrary.OptionStatus",
              "name": "status",
              "type": "uint8"
            },
            {
              "internalType": "address",
              "name": "holder",
              "type": "address"
            },
            {
              "internalType": "uint256",
              "name": "id",
              "type": "uint256"
            },
            {
              "internalType": "uint256",
              "name": "createTime",
              "type": "uint256"
            },
            {
              "internalType": "uint256",
              "name": "effectiveTime",
              "type": "uint256"
            },
            {
              "internalType": "uint256",
              "name": "tenor",
              "type": "uint256"
            },
            {
              "internalType": "uint256",
              "name": "exerciseTime",
              "type": "uint256"
            },
            {
              "internalType": "uint256",
              "name": "amount",
              "type": "uint256"
            },
            {
              "internalType": "uint256",
              "name": "spot",
              "type": "uint256"
            },
            {
              "internalType": "uint256",
              "name": "strike",
              "type": "uint256"
            },
            {
              "internalType": "uint256",
              "name": "volatility",
              "type": "uint256"
            },
            {
              "internalType": "uint256",
              "name": "premium",
              "type": "uint256"
            },
            {
              "internalType": "uint256",
              "name": "fee",
              "type": "uint256"
            }
          ],
          "internalType": "struct OptionLibrary.Option",
          "name": "",
          "type": "tuple"
        }
      ],
      "stateMutability": "view",
      "type": "function"
    }
  ],
  "bytecode": "0x60806040526000600a556000600b556000600c556000600d5566470de4df820000600e556001600f553480156200003557600080fd5b50604051620063543803806200635483398181016040528101906200005b9190620006a0565b86868160039080519060200190620000759291906200055b565b5080600490805190602001906200008e9291906200055b565b505050620000a66000801b336200027660201b60201c565b620000d87fa49807205ce4d355092ef5a8a18f56e8913cf4a201fbe287825b095693c21775336200027660201b60201c565b6200010a7f28d62fc77014de57a1bbaa8212ff0979fa61ab00d377b4b8d9762048fb419961336200027660201b60201c565b81601160006101000a81548173ffffffffffffffffffffffffffffffffffffffff021916908373ffffffffffffffffffffffffffffffffffffffff16021790555080601060006101000a81548173ffffffffffffffffffffffffffffffffffffffff021916908373ffffffffffffffffffffffffffffffffffffffff16021790555083601360006101000a81548173ffffffffffffffffffffffffffffffffffffffff021916908373ffffffffffffffffffffffffffffffffffffffff16021790555084601260006101000a81548173ffffffffffffffffffffffffffffffffffffffff021916908373ffffffffffffffffffffffffffffffffffffffff16021790555082600960006101000a81548173ffffffffffffffffffffffffffffffffffffffff021916908373ffffffffffffffffffffffffffffffffffffffff1602179055506200026933670de0b6b3a76400006200028c60201b60201c565b5050505050505062000aaa565b620002888282620003f160201b60201c565b5050565b600073ffffffffffffffffffffffffffffffffffffffff168273ffffffffffffffffffffffffffffffffffffffff161415620002ff576040517f08c379a0000000000000000000000000000000000000000000000000000000008152600401620002f690620007c9565b60405180910390fd5b6200031360008383620004e360201b60201c565b806002600082825462000327919062000878565b92505081905550806000808473ffffffffffffffffffffffffffffffffffffffff1673ffffffffffffffffffffffffffffffffffffffff16815260200190815260200160002060008282546200037e919062000878565b925050819055508173ffffffffffffffffffffffffffffffffffffffff16600073ffffffffffffffffffffffffffffffffffffffff167fddf252ad1be2c89b69c2b068fc378daa952ba7f163c4a11628f55a4df523b3ef83604051620003e59190620007eb565b60405180910390a35050565b620004038282620004e860201b60201c565b620004df5760016005600084815260200190815260200160002060000160008373ffffffffffffffffffffffffffffffffffffffff1673ffffffffffffffffffffffffffffffffffffffff16815260200190815260200160002060006101000a81548160ff021916908315150217905550620004846200055360201b60201c565b73ffffffffffffffffffffffffffffffffffffffff168173ffffffffffffffffffffffffffffffffffffffff16837f2f8788117e7eff1d82e926ec794901d17c78024a50270940304540a733656f0d60405160405180910390a45b5050565b505050565b60006005600084815260200190815260200160002060000160008373ffffffffffffffffffffffffffffffffffffffff1673ffffffffffffffffffffffffffffffffffffffff16815260200190815260200160002060009054906101000a900460ff16905092915050565b600033905090565b828054620005699062000949565b90600052602060002090601f0160209004810192826200058d5760008555620005d9565b82601f10620005a857805160ff1916838001178555620005d9565b82800160010185558215620005d9579182015b82811115620005d8578251825591602001919060010190620005bb565b5b509050620005e89190620005ec565b5090565b5b8082111562000607576000816000905550600101620005ed565b5090565b6000620006226200061c8462000831565b62000808565b90508281526020810184848401111562000641576200064062000a47565b5b6200064e84828562000913565b509392505050565b600081519050620006678162000a90565b92915050565b600082601f83011262000685576200068462000a42565b5b8151620006978482602086016200060b565b91505092915050565b600080600080600080600060e0888a031215620006c257620006c162000a51565b5b600088015167ffffffffffffffff811115620006e357620006e262000a4c565b5b620006f18a828b016200066d565b975050602088015167ffffffffffffffff81111562000715576200071462000a4c565b5b620007238a828b016200066d565b9650506040620007368a828b0162000656565b9550506060620007498a828b0162000656565b94505060806200075c8a828b0162000656565b93505060a06200076f8a828b0162000656565b92505060c0620007828a828b0162000656565b91505092959891949750929550565b6000620007a0601f8362000867565b9150620007ad8262000a67565b602082019050919050565b620007c38162000909565b82525050565b60006020820190508181036000830152620007e48162000791565b9050919050565b6000602082019050620008026000830184620007b8565b92915050565b60006200081462000827565b90506200082282826200097f565b919050565b6000604051905090565b600067ffffffffffffffff8211156200084f576200084e62000a13565b5b6200085a8262000a56565b9050602081019050919050565b600082825260208201905092915050565b6000620008858262000909565b9150620008928362000909565b9250827fffffffffffffffffffffffffffffffffffffffffffffffffffffffffffffffff03821115620008ca57620008c9620009b5565b5b828201905092915050565b6000620008e282620008e9565b9050919050565b600073ffffffffffffffffffffffffffffffffffffffff82169050919050565b6000819050919050565b60005b838110156200093357808201518184015260208101905062000916565b8381111562000943576000848401525b50505050565b600060028204905060018216806200096257607f821691505b60208210811415620009795762000978620009e4565b5b50919050565b6200098a8262000a56565b810181811067ffffffffffffffff82111715620009ac57620009ab62000a13565b5b80604052505050565b7f4e487b7100000000000000000000000000000000000000000000000000000000600052601160045260246000fd5b7f4e487b7100000000000000000000000000000000000000000000000000000000600052602260045260246000fd5b7f4e487b7100000000000000000000000000000000000000000000000000000000600052604160045260246000fd5b600080fd5b600080fd5b600080fd5b600080fd5b6000601f19601f8301169050919050565b7f45524332303a206d696e7420746f20746865207a65726f206164647265737300600082015250565b62000a9b81620008d5565b811462000aa757600080fd5b50565b61589a8062000aba6000396000f3fe608060405234801561001057600080fd5b506004361061023d5760003560e01c806390fcdb361161013b578063bea10f96116100b8578063d95b0a121161007c578063d95b0a121461071c578063dc723c6e14610738578063dd62ed3e14610756578063e9141bdb14610786578063f8daf7d8146107a45761023d565b8063bea10f961461068c578063c20c49ec146106a8578063d3b7bfb4146106c6578063d547741f146106e4578063d8d1caeb146107005761023d565b8063a457c2d7116100ff578063a457c2d7146105d4578063a86e9f3514610604578063a9059cbb14610622578063b82e106d14610652578063be7c3455146106705761023d565b806390fcdb361461051a57806391d148541461053857806395d89b4114610568578063a217fddf14610586578063a42b6626146105a45761023d565b806336568abe116101c9578063634479021161018d578063634479021461044e57806370a082311461047e57806375b238fc146104ae578063797be55e146104cc5780638a0687d2146104ea5761023d565b806336568abe1461039657806336da4887146103b257806339509351146103d05780633b73450114610400578063431386901461041e5761023d565b80632140ea67116102105780632140ea67146102de57806323b872dd146102fc578063248a9ca31461032c5780632f2ff15d1461035c578063313ce567146103785761023d565b806301ffc9a71461024257806306fdde0314610272578063095ea7b31461029057806318160ddd146102c0575b600080fd5b61025c600480360381019061025791906141bc565b6107c2565b60405161026991906149a5565b60405180910390f35b61027a61083c565b6040516102879190614a3b565b60405180910390f35b6102aa60048036038101906102a59190613fcc565b6108ce565b6040516102b791906149a5565b60405180910390f35b6102c86108ec565b6040516102d59190614c19565b60405180910390f35b6102e66108f6565b6040516102f3919061485b565b60405180910390f35b61031660048036038101906103119190613f79565b61091c565b60405161032391906149a5565b60405180910390f35b6103466004803603810190610341919061414f565b610a1d565b60405161035391906149c0565b60405180910390f35b6103766004803603810190610371919061417c565b610a3d565b005b610380610a66565b60405161038d9190614cd3565b60405180910390f35b6103b060048036038101906103ab919061417c565b610a6f565b005b6103ba610af2565b6040516103c79190614c19565b60405180910390f35b6103ea60048036038101906103e59190613fcc565b610af8565b6040516103f791906149a5565b60405180910390f35b610408610ba4565b60405161041591906149c0565b60405180910390f35b61043860048036038101906104339190614244565b610bc8565b6040516104459190614c19565b60405180910390f35b6104686004803603810190610463919061410f565b610e3c565b6040516104759190614c19565b60405180910390f35b61049860048036038101906104939190613edf565b611178565b6040516104a59190614c19565b60405180910390f35b6104b66111c0565b6040516104c391906149c0565b60405180910390f35b6104d46111e4565b6040516104e19190614c19565b60405180910390f35b61050460048036038101906104ff919061429e565b6111ea565b6040516105119190614bfd565b60405180910390f35b6105226112f6565b60405161052f919061485b565b60405180910390f35b610552600480360381019061054d919061417c565b61131c565b60405161055f91906149a5565b60405180910390f35b610570611387565b60405161057d9190614a3b565b60405180910390f35b61058e611419565b60405161059b91906149c0565b60405180910390f35b6105be60048036038101906105b99190613edf565b611420565b6040516105cb9190614c19565b60405180910390f35b6105ee60048036038101906105e99190613fcc565b611470565b6040516105fb91906149a5565b60405180910390f35b61060c611564565b6040516106199190614c19565b60405180910390f35b61063c60048036038101906106379190613fcc565b61156a565b60405161064991906149a5565b60405180910390f35b61065a611588565b6040516106679190614c19565b60405180910390f35b61068a60048036038101906106859190614244565b61158e565b005b6106a660048036038101906106a19190614244565b6115cb565b005b6106b0611703565b6040516106bd9190614c19565b60405180910390f35b6106ce611709565b6040516106db919061485b565b60405180910390f35b6106fe60048036038101906106f9919061417c565b61172f565b005b61071a6004803603810190610715919061400c565b611758565b005b61073660048036038101906107319190614244565b6118f5565b005b610740611a17565b60405161074d91906149db565b60405180910390f35b610770600480360381019061076b9190613f39565b611b18565b60405161077d9190614c19565b60405180910390f35b61078e611b9f565b60405161079b919061485b565b60405180910390f35b6107ac611bc5565b6040516107b99190614c19565b60405180910390f35b60007f7965db0b000000000000000000000000000000000000000000000000000000007bffffffffffffffffffffffffffffffffffffffffffffffffffffffff1916827bffffffffffffffffffffffffffffffffffffffffffffffffffffffff19161480610835575061083482611bcb565b5b9050919050565b60606003805461084b9061512c565b80601f01602080910402602001604051908101604052809291908181526020018280546108779061512c565b80156108c45780601f10610899576101008083540402835291602001916108c4565b820191906000526020600020905b8154815290600101906020018083116108a757829003601f168201915b5050505050905090565b60006108e26108db611c35565b8484611c3d565b6001905092915050565b6000600254905090565b601260009054906101000a900473ffffffffffffffffffffffffffffffffffffffff1681565b6000610929848484611e08565b6000600160008673ffffffffffffffffffffffffffffffffffffffff1673ffffffffffffffffffffffffffffffffffffffff1681526020019081526020016000206000610974611c35565b73ffffffffffffffffffffffffffffffffffffffff1673ffffffffffffffffffffffffffffffffffffffff168152602001908152602001600020549050828110156109f4576040517f08c379a00000000000000000000000000000000000000000000000000000000081526004016109eb90614b1d565b60405180910390fd5b610a1185610a00611c35565b8584610a0c9190614f77565b611c3d565b60019150509392505050565b600060056000838152602001908152602001600020600101549050919050565b610a4682610a1d565b610a5781610a52611c35565b612087565b610a618383612124565b505050565b60006012905090565b610a77611c35565b73ffffffffffffffffffffffffffffffffffffffff168173ffffffffffffffffffffffffffffffffffffffff1614610ae4576040517f08c379a0000000000000000000000000000000000000000000000000000000008152600401610adb90614bbd565b60405180910390fd5b610aee8282612205565b5050565b600b5481565b6000610b9a610b05611c35565b848460016000610b13611c35565b73ffffffffffffffffffffffffffffffffffffffff1673ffffffffffffffffffffffffffffffffffffffff16815260200190815260200160002060008873ffffffffffffffffffffffffffffffffffffffff1673ffffffffffffffffffffffffffffffffffffffff16815260200190815260200160002054610b959190614e33565b611c3d565b6001905092915050565b7f28d62fc77014de57a1bbaa8212ff0979fa61ab00d377b4b8d9762048fb41996181565b60007fa49807205ce4d355092ef5a8a18f56e8913cf4a201fbe287825b095693c21775610bfc81610bf7611c35565b612087565b6000610c06611a17565b90506000600960009054906101000a900473ffffffffffffffffffffffffffffffffffffffff1673ffffffffffffffffffffffffffffffffffffffff1663b0667cf86040518163ffffffff1660e01b8152600401604080518083038186803b158015610c7157600080fd5b505afa158015610c85573d6000803e3d6000fd5b505050506040513d601f19601f82011682018060405250810190610ca991906142de565b5090506000600d54610cba906151d8565b831215610d6f57610d6c838388601060009054906101000a900473ffffffffffffffffffffffffffffffffffffffff1673ffffffffffffffffffffffffffffffffffffffff16630261bf8b6040518163ffffffff1660e01b815260040160206040518083038186803b158015610d2f57600080fd5b505afa158015610d43573d6000803e3d6000fd5b505050506040513d601f19601f82011682018060405250810190610d679190613f0c565b6122e7565b90505b600d54610d7b906151d8565b831315610e3057610e2d838388601060009054906101000a900473ffffffffffffffffffffffffffffffffffffffff1673ffffffffffffffffffffffffffffffffffffffff16630261bf8b6040518163ffffffff1660e01b815260040160206040518083038186803b158015610df057600080fd5b505afa158015610e04573d6000803e3d6000fd5b505050506040513d601f19601f82011682018060405250810190610e289190613f0c565b612868565b90505b80945050505050919050565b600080600960009054906101000a900473ffffffffffffffffffffffffffffffffffffffff1673ffffffffffffffffffffffffffffffffffffffff1663b0667cf86040518163ffffffff1660e01b8152600401604080518083038186803b158015610ea657600080fd5b505afa158015610eba573d6000803e3d6000fd5b505050506040513d601f19601f82011682018060405250810190610ede91906142de565b5090506000601260009054906101000a900473ffffffffffffffffffffffffffffffffffffffff1673ffffffffffffffffffffffffffffffffffffffff166370a08231306040518263ffffffff1660e01b8152600401610f3e919061485b565b60206040518083038186803b158015610f5657600080fd5b505afa158015610f6a573d6000803e3d6000fd5b505050506040513d601f19601f82011682018060405250810190610f8e9190614271565b6110e2601360009054906101000a900473ffffffffffffffffffffffffffffffffffffffff1673ffffffffffffffffffffffffffffffffffffffff166370a08231306040518263ffffffff1660e01b8152600401610fec919061485b565b60206040518083038186803b15801561100457600080fd5b505afa158015611018573d6000803e3d6000fd5b505050506040513d601f19601f8201168201806040525081019061103c9190614271565b600960009054906101000a900473ffffffffffffffffffffffffffffffffffffffff1673ffffffffffffffffffffffffffffffffffffffff1663d50cb88b6040518163ffffffff1660e01b815260040160206040518083038186803b1580156110a457600080fd5b505afa1580156110b8573d6000803e3d6000fd5b505050506040513d601f19601f820116820180604052508101906110dc9190614271565b8561321a565b6110ec9190614e33565b9050841561114a57600a54600c54600b546111079190614e33565b6111119190614e33565b81111561113a57600a54600c54600b5461112b9190614e33565b6111359190614e33565b61113c565b805b816111479190614f77565b90505b831561116d5761116a81670de0b6b3a76400006111656108ec565b61321a565b90505b809250505092915050565b60008060008373ffffffffffffffffffffffffffffffffffffffff1673ffffffffffffffffffffffffffffffffffffffff168152602001908152602001600020549050919050565b7fa49807205ce4d355092ef5a8a18f56e8913cf4a201fbe287825b095693c2177581565b600a5481565b6111f2613b1f565b600960009054906101000a900473ffffffffffffffffffffffffffffffffffffffff1673ffffffffffffffffffffffffffffffffffffffff16631ce5e9a661128185600660008773ffffffffffffffffffffffffffffffffffffffff1673ffffffffffffffffffffffffffffffffffffffff16815260200190815260200160002061331690919063ffffffff16565b6040518263ffffffff1660e01b815260040161129d9190614c19565b6101e06040518083038186803b1580156112b657600080fd5b505afa1580156112ca573d6000803e3d6000fd5b505050506040513d601f19601f820116820180604052508101906112ee9190614216565b905092915050565b601160009054906101000a900473ffffffffffffffffffffffffffffffffffffffff1681565b60006005600084815260200190815260200160002060000160008373ffffffffffffffffffffffffffffffffffffffff1673ffffffffffffffffffffffffffffffffffffffff16815260200190815260200160002060009054906101000a900460ff16905092915050565b6060600480546113969061512c565b80601f01602080910402602001604051908101604052809291908181526020018280546113c29061512c565b801561140f5780601f106113e45761010080835404028352916020019161140f565b820191906000526020600020905b8154815290600101906020018083116113f257829003601f168201915b5050505050905090565b6000801b81565b6000611469600660008473ffffffffffffffffffffffffffffffffffffffff1673ffffffffffffffffffffffffffffffffffffffff168152602001908152602001600020613330565b9050919050565b6000806001600061147f611c35565b73ffffffffffffffffffffffffffffffffffffffff1673ffffffffffffffffffffffffffffffffffffffff16815260200190815260200160002060008573ffffffffffffffffffffffffffffffffffffffff1673ffffffffffffffffffffffffffffffffffffffff1681526020019081526020016000205490508281101561153c576040517f08c379a000000000000000000000000000000000000000000000000000000000815260040161153390614b9d565b60405180910390fd5b611559611547611c35565b8585846115549190614f77565b611c3d565b600191505092915050565b600e5481565b600061157e611577611c35565b8484611e08565b6001905092915050565b600f5481565b7fa49807205ce4d355092ef5a8a18f56e8913cf4a201fbe287825b095693c217756115c0816115bb611c35565b612087565b81600e819055505050565b60006115d960006001610e3c565b9050600081116115e857600080fd5b60006115fd83670de0b6b3a76400008461321a565b9050601260009054906101000a900473ffffffffffffffffffffffffffffffffffffffff1673ffffffffffffffffffffffffffffffffffffffff166323b872dd3330866040518463ffffffff1660e01b815260040161165e93929190614876565b602060405180830381600087803b15801561167857600080fd5b505af115801561168c573d6000803e3d6000fd5b505050506040513d601f19601f820116820180604052508101906116b091906140e2565b6116b957600080fd5b6116c33382613345565b7fd0d5ca25112902dbbf5a70a67eed6edc7513b74f2a7ec0805ca216c99f981cc13384836040516116f69392919061491b565b60405180910390a1505050565b600d5481565b601360009054906101000a900473ffffffffffffffffffffffffffffffffffffffff1681565b61173882610a1d565b61174981611744611c35565b612087565b6117538383612205565b505050565b7f28d62fc77014de57a1bbaa8212ff0979fa61ab00d377b4b8d9762048fb41996161178a81611785611c35565b612087565b84156117f8576117e186600660008a73ffffffffffffffffffffffffffffffffffffffff1673ffffffffffffffffffffffffffffffffffffffff16815260200190815260200160002061349990919063ffffffff16565b506117f686600761349990919063ffffffff16565b505b846118655761184e86600660008a73ffffffffffffffffffffffffffffffffffffffff1673ffffffffffffffffffffffffffffffffffffffff1681526020019081526020016000206134b390919063ffffffff16565b506118638660076134b390919063ffffffff16565b505b8461187d5783600a546118789190614f77565b61188c565b83600a5461188b9190614e33565b5b600a81905550846118aa5782600b546118a59190614f77565b6118b9565b82600b546118b89190614e33565b5b600b81905550846118d75781600c546118d29190614f77565b6118e6565b81600c546118e59190614e33565b5b600c8190555050505050505050565b6000611914611905600180610e3c565b83670de0b6b3a764000061321a565b905061192033836134cd565b601260009054906101000a900473ffffffffffffffffffffffffffffffffffffffff1673ffffffffffffffffffffffffffffffffffffffff1663a9059cbb33836040518363ffffffff1660e01b815260040161197d9291906148ad565b602060405180830381600087803b15801561199757600080fd5b505af11580156119ab573d6000803e3d6000fd5b505050506040513d601f19601f820116820180604052508101906119cf91906140e2565b6119d857600080fd5b7f3a9e5b3b520d77dc26bf05104c863b6b654d4b96fa8031a783ad0dbd905cdf39338383604051611a0b9392919061491b565b60405180910390a15050565b6000806000905060005b611a2b6007613330565b811015611b1057600960009054906101000a900473ffffffffffffffffffffffffffffffffffffffff1673ffffffffffffffffffffffffffffffffffffffff1663a823c087611a8483600761331690919063ffffffff16565b6040518263ffffffff1660e01b8152600401611aa09190614c19565b60206040518083038186803b158015611ab857600080fd5b505afa158015611acc573d6000803e3d6000fd5b505050506040513d601f19601f82011682018060405250810190611af091906141e9565b82611afb9190614d9f565b91508080611b089061518f565b915050611a21565b508091505090565b6000600160008473ffffffffffffffffffffffffffffffffffffffff1673ffffffffffffffffffffffffffffffffffffffff16815260200190815260200160002060008373ffffffffffffffffffffffffffffffffffffffff1673ffffffffffffffffffffffffffffffffffffffff16815260200190815260200160002054905092915050565b601060009054906101000a900473ffffffffffffffffffffffffffffffffffffffff1681565b600c5481565b60007f01ffc9a7000000000000000000000000000000000000000000000000000000007bffffffffffffffffffffffffffffffffffffffffffffffffffffffff1916827bffffffffffffffffffffffffffffffffffffffffffffffffffffffff1916149050919050565b600033905090565b600073ffffffffffffffffffffffffffffffffffffffff168373ffffffffffffffffffffffffffffffffffffffff161415611cad576040517f08c379a0000000000000000000000000000000000000000000000000000000008152600401611ca490614b7d565b60405180910390fd5b600073ffffffffffffffffffffffffffffffffffffffff168273ffffffffffffffffffffffffffffffffffffffff161415611d1d576040517f08c379a0000000000000000000000000000000000000000000000000000000008152600401611d1490614add565b60405180910390fd5b80600160008573ffffffffffffffffffffffffffffffffffffffff1673ffffffffffffffffffffffffffffffffffffffff16815260200190815260200160002060008473ffffffffffffffffffffffffffffffffffffffff1673ffffffffffffffffffffffffffffffffffffffff168152602001908152602001600020819055508173ffffffffffffffffffffffffffffffffffffffff168373ffffffffffffffffffffffffffffffffffffffff167f8c5be1e5ebec7d5bd14f71427d1e84f3dd0314c0f7b2291e5b200ac8c7c3b92583604051611dfb9190614c19565b60405180910390a3505050565b600073ffffffffffffffffffffffffffffffffffffffff168373ffffffffffffffffffffffffffffffffffffffff161415611e78576040517f08c379a0000000000000000000000000000000000000000000000000000000008152600401611e6f90614b5d565b60405180910390fd5b600073ffffffffffffffffffffffffffffffffffffffff168273ffffffffffffffffffffffffffffffffffffffff161415611ee8576040517f08c379a0000000000000000000000000000000000000000000000000000000008152600401611edf90614a9d565b60405180910390fd5b611ef38383836136a1565b60008060008573ffffffffffffffffffffffffffffffffffffffff1673ffffffffffffffffffffffffffffffffffffffff16815260200190815260200160002054905081811015611f79576040517f08c379a0000000000000000000000000000000000000000000000000000000008152600401611f7090614afd565b60405180910390fd5b8181611f859190614f77565b6000808673ffffffffffffffffffffffffffffffffffffffff1673ffffffffffffffffffffffffffffffffffffffff16815260200190815260200160002081905550816000808573ffffffffffffffffffffffffffffffffffffffff1673ffffffffffffffffffffffffffffffffffffffff16815260200190815260200160002060008282546120159190614e33565b925050819055508273ffffffffffffffffffffffffffffffffffffffff168473ffffffffffffffffffffffffffffffffffffffff167fddf252ad1be2c89b69c2b068fc378daa952ba7f163c4a11628f55a4df523b3ef846040516120799190614c19565b60405180910390a350505050565b612091828261131c565b612120576120b68173ffffffffffffffffffffffffffffffffffffffff1660146136a6565b6120c48360001c60206136a6565b6040516020016120d5929190614821565b6040516020818303038152906040526040517f08c379a00000000000000000000000000000000000000000000000000000000081526004016121179190614a3b565b60405180910390fd5b5050565b61212e828261131c565b6122015760016005600084815260200190815260200160002060000160008373ffffffffffffffffffffffffffffffffffffffff1673ffffffffffffffffffffffffffffffffffffffff16815260200190815260200160002060006101000a81548160ff0219169083151502179055506121a6611c35565b73ffffffffffffffffffffffffffffffffffffffff168173ffffffffffffffffffffffffffffffffffffffff16837f2f8788117e7eff1d82e926ec794901d17c78024a50270940304540a733656f0d60405160405180910390a45b5050565b61220f828261131c565b156122e35760006005600084815260200190815260200160002060000160008373ffffffffffffffffffffffffffffffffffffffff1673ffffffffffffffffffffffffffffffffffffffff16815260200190815260200160002060006101000a81548160ff021916908315150217905550612288611c35565b73ffffffffffffffffffffffffffffffffffffffff168173ffffffffffffffffffffffffffffffffffffffff16837ff6391f5c32d9c69d2a47ea670b442974b53935d1edc7fd64eb21e047a839171b60405160405180910390a45b5050565b60008073__MarketLibrary_________________________639ee103f58730601060009054906101000a900473ffffffffffffffffffffffffffffffffffffffff16601260009054906101000a900473ffffffffffffffffffffffffffffffffffffffff166040518563ffffffff1660e01b815260040161236b94939291906149f6565b60206040518083038186803b15801561238357600080fd5b505af4158015612397573d6000803e3d6000fd5b505050506040513d601f19601f820116820180604052508101906123bb9190614271565b90506000612489601260009054906101000a900473ffffffffffffffffffffffffffffffffffffffff1673ffffffffffffffffffffffffffffffffffffffff166370a08231306040518263ffffffff1660e01b815260040161241d919061485b565b60206040518083038186803b15801561243557600080fd5b505afa158015612449573d6000803e3d6000fd5b505050506040513d601f19601f8201168201806040525081019061246d9190614271565b88600d5461247a906151d8565b6124849190614ee3565b6138e2565b9050600081111561285b57601260009054906101000a900473ffffffffffffffffffffffffffffffffffffffff1673ffffffffffffffffffffffffffffffffffffffff1663095ea7b3601160009054906101000a900473ffffffffffffffffffffffffffffffffffffffff16836040518363ffffffff1660e01b81526004016125139291906148ad565b602060405180830381600087803b15801561252d57600080fd5b505af1158015612541573d6000803e3d6000fd5b505050506040513d601f19601f8201168201806040525081019061256591906140e2565b506000600267ffffffffffffffff8111156125835761258261530c565b5b6040519080825280602002602001820160405280156125b15781602001602082028036833780820191505090505b509050601260009054906101000a900473ffffffffffffffffffffffffffffffffffffffff16816000815181106125eb576125ea6152dd565b5b602002602001019073ffffffffffffffffffffffffffffffffffffffff16908173ffffffffffffffffffffffffffffffffffffffff1681525050601360009054906101000a900473ffffffffffffffffffffffffffffffffffffffff168160018151811061265c5761265b6152dd565b5b602002602001019073ffffffffffffffffffffffffffffffffffffffff16908173ffffffffffffffffffffffffffffffffffffffff16815250506000601160009054906101000a900473ffffffffffffffffffffffffffffffffffffffff1673ffffffffffffffffffffffffffffffffffffffff166338ed1739846127a8866127038d600e54670de0b6b3a76400006126f59190614f77565b670de0b6b3a764000061321a565b600960009054906101000a900473ffffffffffffffffffffffffffffffffffffffff1673ffffffffffffffffffffffffffffffffffffffff1663d50cb88b6040518163ffffffff1660e01b815260040160206040518083038186803b15801561276b57600080fd5b505afa15801561277f573d6000803e3d6000fd5b505050506040513d601f19601f820116820180604052508101906127a39190614271565b61321a565b85308c6040518663ffffffff1660e01b81526004016127cb959493929190614c79565b600060405180830381600087803b1580156127e557600080fd5b505af11580156127f9573d6000803e3d6000fd5b505050506040513d6000823e3d601f19601f820116820180604052508101906128229190614099565b905080600081518110612838576128376152dd565b5b6020026020010151600d60008282546128519190614e33565b9250508190555050505b8192505050949350505050565b6000806129e0601360009054906101000a900473ffffffffffffffffffffffffffffffffffffffff1673ffffffffffffffffffffffffffffffffffffffff166370a08231306040518263ffffffff1660e01b81526004016128c9919061485b565b60206040518083038186803b1580156128e157600080fd5b505afa1580156128f5573d6000803e3d6000fd5b505050506040513d601f19601f820116820180604052508101906129199190614271565b6129db612935600d54600d548b6129309190614d9f565b6138e2565b88600960009054906101000a900473ffffffffffffffffffffffffffffffffffffffff1673ffffffffffffffffffffffffffffffffffffffff1663d50cb88b6040518163ffffffff1660e01b815260040160206040518083038186803b15801561299e57600080fd5b505afa1580156129b2573d6000803e3d6000fd5b505050506040513d601f19601f820116820180604052508101906129d69190614271565b61321a565b6138e2565b90506000811115612db257601360009054906101000a900473ffffffffffffffffffffffffffffffffffffffff1673ffffffffffffffffffffffffffffffffffffffff1663095ea7b3601160009054906101000a900473ffffffffffffffffffffffffffffffffffffffff16836040518363ffffffff1660e01b8152600401612a6a9291906148ad565b602060405180830381600087803b158015612a8457600080fd5b505af1158015612a98573d6000803e3d6000fd5b505050506040513d601f19601f82011682018060405250810190612abc91906140e2565b506000600267ffffffffffffffff811115612ada57612ad961530c565b5b604051908082528060200260200182016040528015612b085781602001602082028036833780820191505090505b509050601360009054906101000a900473ffffffffffffffffffffffffffffffffffffffff1681600081518110612b4257612b416152dd565b5b602002602001019073ffffffffffffffffffffffffffffffffffffffff16908173ffffffffffffffffffffffffffffffffffffffff1681525050601260009054906101000a900473ffffffffffffffffffffffffffffffffffffffff1681600181518110612bb357612bb26152dd565b5b602002602001019073ffffffffffffffffffffffffffffffffffffffff16908173ffffffffffffffffffffffffffffffffffffffff16815250506000601160009054906101000a900473ffffffffffffffffffffffffffffffffffffffff1673ffffffffffffffffffffffffffffffffffffffff166338ed173984612cff86600960009054906101000a900473ffffffffffffffffffffffffffffffffffffffff1673ffffffffffffffffffffffffffffffffffffffff1663d50cb88b6040518163ffffffff1660e01b815260040160206040518083038186803b158015612c9a57600080fd5b505afa158015612cae573d6000803e3d6000fd5b505050506040513d601f19601f82011682018060405250810190612cd29190614271565b612cfa8d600e54670de0b6b3a7640000612cec9190614e33565b670de0b6b3a764000061321a565b61321a565b85308b6040518663ffffffff1660e01b8152600401612d22959493929190614c79565b600060405180830381600087803b158015612d3c57600080fd5b505af1158015612d50573d6000803e3d6000fd5b505050506040513d6000823e3d601f19601f82011682018060405250810190612d799190614099565b905080600081518110612d8f57612d8e6152dd565b5b6020026020010151600d6000828254612da89190614f77565b9250508190555050505b600073__MarketLibrary_________________________633ab0b9ce8830601060009054906101000a900473ffffffffffffffffffffffffffffffffffffffff16601260009054906101000a900473ffffffffffffffffffffffffffffffffffffffff166040518563ffffffff1660e01b8152600401612e3594939291906149f6565b60206040518083038186803b158015612e4d57600080fd5b505af4158015612e61573d6000803e3d6000fd5b505050506040513d601f19601f82011682018060405250810190612e859190614271565b9050600081111561320d57601260009054906101000a900473ffffffffffffffffffffffffffffffffffffffff1673ffffffffffffffffffffffffffffffffffffffff1663095ea7b38573__MarketLibrary_________________________63eb119a958530601060009054906101000a900473ffffffffffffffffffffffffffffffffffffffff16601260009054906101000a900473ffffffffffffffffffffffffffffffffffffffff166040518563ffffffff1660e01b8152600401612f509493929190614c34565b60206040518083038186803b158015612f6857600080fd5b505af4158015612f7c573d6000803e3d6000fd5b505050506040513d601f19601f82011682018060405250810190612fa09190614271565b6040518363ffffffff1660e01b8152600401612fbd9291906148ad565b602060405180830381600087803b158015612fd757600080fd5b505af1158015612feb573d6000803e3d6000fd5b505050506040513d601f19601f8201168201806040525081019061300f91906140e2565b508373ffffffffffffffffffffffffffffffffffffffff1663e8eda9df601260009054906101000a900473ffffffffffffffffffffffffffffffffffffffff1673__MarketLibrary_________________________63eb119a958530601060009054906101000a900473ffffffffffffffffffffffffffffffffffffffff16601260009054906101000a900473ffffffffffffffffffffffffffffffffffffffff166040518563ffffffff1660e01b81526004016130d09493929190614c34565b60206040518083038186803b1580156130e857600080fd5b505af41580156130fc573d6000803e3d6000fd5b505050506040513d601f19601f820116820180604052508101906131209190614271565b3060006040518563ffffffff1660e01b815260040161314294939291906148d6565b600060405180830381600087803b15801561315c57600080fd5b505af1158015613170573d6000803e3d6000fd5b505050508373ffffffffffffffffffffffffffffffffffffffff1663a415bcad601260009054906101000a900473ffffffffffffffffffffffffffffffffffffffff1683600f546000306040518663ffffffff1660e01b81526004016131da959493929190614952565b600060405180830381600087803b1580156131f457600080fd5b505af1158015613208573d6000803e3d6000fd5b505050505b8092505050949350505050565b600080600080198587098587029250828110838203039150506000811415613255576000841161324957600080fd5b8382049250505061330f565b80841161326157600080fd5b60008486880990508281118203915080830392506000856001877fffffffffffffffffffffffffffffffffffffffffffffffffffffffffffffffff0301169050808604955080840493506001818260000304019050808302841793506000600287600302189050808702600203810290508087026002038102905080870260020381029050808702600203810290508087026002038102905080870260020381029050808502955050505050505b9392505050565b600061332583600001836138fb565b60001c905092915050565b600061333e8260000161396f565b9050919050565b600073ffffffffffffffffffffffffffffffffffffffff168273ffffffffffffffffffffffffffffffffffffffff1614156133b5576040517f08c379a00000000000000000000000000000000000000000000000000000000081526004016133ac90614bdd565b60405180910390fd5b6133c1600083836136a1565b80600260008282546133d39190614e33565b92505081905550806000808473ffffffffffffffffffffffffffffffffffffffff1673ffffffffffffffffffffffffffffffffffffffff16815260200190815260200160002060008282546134289190614e33565b925050819055508173ffffffffffffffffffffffffffffffffffffffff16600073ffffffffffffffffffffffffffffffffffffffff167fddf252ad1be2c89b69c2b068fc378daa952ba7f163c4a11628f55a4df523b3ef8360405161348d9190614c19565b60405180910390a35050565b60006134ab836000018360001b613980565b905092915050565b60006134c5836000018360001b6139f0565b905092915050565b600073ffffffffffffffffffffffffffffffffffffffff168273ffffffffffffffffffffffffffffffffffffffff16141561353d576040517f08c379a000000000000000000000000000000000000000000000000000000000815260040161353490614b3d565b60405180910390fd5b613549826000836136a1565b60008060008473ffffffffffffffffffffffffffffffffffffffff1673ffffffffffffffffffffffffffffffffffffffff168152602001908152602001600020549050818110156135cf576040517f08c379a00000000000000000000000000000000000000000000000000000000081526004016135c690614abd565b60405180910390fd5b81816135db9190614f77565b6000808573ffffffffffffffffffffffffffffffffffffffff1673ffffffffffffffffffffffffffffffffffffffff16815260200190815260200160002081905550816002600082825461362f9190614f77565b92505081905550600073ffffffffffffffffffffffffffffffffffffffff168373ffffffffffffffffffffffffffffffffffffffff167fddf252ad1be2c89b69c2b068fc378daa952ba7f163c4a11628f55a4df523b3ef846040516136949190614c19565b60405180910390a3505050565b505050565b6060600060028360026136b99190614e89565b6136c39190614e33565b67ffffffffffffffff8111156136dc576136db61530c565b5b6040519080825280601f01601f19166020018201604052801561370e5781602001600182028036833780820191505090505b5090507f300000000000000000000000000000000000000000000000000000000000000081600081518110613746576137456152dd565b5b60200101907effffffffffffffffffffffffffffffffffffffffffffffffffffffffffffff1916908160001a9053507f7800000000000000000000000000000000000000000000000000000000000000816001815181106137aa576137a96152dd565b5b60200101907effffffffffffffffffffffffffffffffffffffffffffffffffffffffffffff1916908160001a905350600060018460026137ea9190614e89565b6137f49190614e33565b90505b6001811115613894577f3031323334353637383961626364656600000000000000000000000000000000600f861660108110613836576138356152dd565b5b1a60f81b82828151811061384d5761384c6152dd565b5b60200101907effffffffffffffffffffffffffffffffffffffffffffffffffffffffffffff1916908160001a905350600485901c94508061388d90615102565b90506137f7565b50600084146138d8576040517f08c379a00000000000000000000000000000000000000000000000000000000081526004016138cf90614a7d565b60405180910390fd5b8091505092915050565b60008183106138f157816138f3565b825b905092915050565b600081836000018054905011613946576040517f08c379a000000000000000000000000000000000000000000000000000000000815260040161393d90614a5d565b60405180910390fd5b82600001828154811061395c5761395b6152dd565b5b9060005260206000200154905092915050565b600081600001805490509050919050565b600061398c8383613afc565b6139e55782600001829080600181540180825580915050600190039060005260206000200160009091909190915055826000018054905083600101600084815260200190815260200160002081905550600190506139ea565b600090505b92915050565b60008083600101600084815260200190815260200160002054905060008114613af0576000600182613a229190614f77565b9050600060018660000180549050613a3a9190614f77565b90506000866000018281548110613a5457613a536152dd565b5b9060005260206000200154905080876000018481548110613a7857613a776152dd565b5b9060005260206000200181905550838760010160008381526020019081526020016000208190555086600001805480613ab457613ab36152ae565b5b60019003818190600052602060002001600090559055866001016000878152602001908152602001600020600090556001945050505050613af6565b60009150505b92915050565b600080836001016000848152602001908152602001600020541415905092915050565b604051806101e0016040528060006001811115613b3f57613b3e615250565b5b815260200160006001811115613b5857613b57615250565b5b815260200160006003811115613b7157613b70615250565b5b8152602001600073ffffffffffffffffffffffffffffffffffffffff16815260200160008152602001600081526020016000815260200160008152602001600081526020016000815260200160008152602001600081526020016000815260200160008152602001600081525090565b6000613bf4613bef84614d13565b614cee565b90508083825260208201905082856020860282011115613c1757613c16615345565b5b60005b85811015613c475781613c2d8882613eca565b845260208401935060208301925050600181019050613c1a565b5050509392505050565b600081359050613c60816157aa565b92915050565b600081519050613c75816157aa565b92915050565b600082601f830112613c9057613c8f61533b565b5b8151613ca0848260208601613be1565b91505092915050565b600081359050613cb8816157c1565b92915050565b600081519050613ccd816157c1565b92915050565b600081359050613ce2816157d8565b92915050565b600081359050613cf7816157ef565b92915050565b600081519050613d0c81615806565b92915050565b600081519050613d2181615816565b92915050565b600081519050613d3681615826565b92915050565b600081519050613d4b81615836565b92915050565b60006101e08284031215613d6857613d67615340565b5b613d736101e0614cee565b90506000613d8384828501613d27565b6000830152506020613d9784828501613cfd565b6020830152506040613dab84828501613d12565b6040830152506060613dbf84828501613c66565b6060830152506080613dd384828501613eca565b60808301525060a0613de784828501613eca565b60a08301525060c0613dfb84828501613eca565b60c08301525060e0613e0f84828501613eca565b60e083015250610100613e2484828501613eca565b61010083015250610120613e3a84828501613eca565b61012083015250610140613e5084828501613eca565b61014083015250610160613e6684828501613eca565b61016083015250610180613e7c84828501613eca565b610180830152506101a0613e9284828501613eca565b6101a0830152506101c0613ea884828501613eca565b6101c08301525092915050565b600081359050613ec48161584d565b92915050565b600081519050613ed98161584d565b92915050565b600060208284031215613ef557613ef461534f565b5b6000613f0384828501613c51565b91505092915050565b600060208284031215613f2257613f2161534f565b5b6000613f3084828501613c66565b91505092915050565b60008060408385031215613f5057613f4f61534f565b5b6000613f5e85828601613c51565b9250506020613f6f85828601613c51565b9150509250929050565b600080600060608486031215613f9257613f9161534f565b5b6000613fa086828701613c51565b9350506020613fb186828701613c51565b9250506040613fc286828701613eb5565b9150509250925092565b60008060408385031215613fe357613fe261534f565b5b6000613ff185828601613c51565b925050602061400285828601613eb5565b9150509250929050565b60008060008060008060c087890312156140295761402861534f565b5b600061403789828a01613c51565b965050602061404889828a01613eb5565b955050604061405989828a01613ca9565b945050606061406a89828a01613eb5565b935050608061407b89828a01613eb5565b92505060a061408c89828a01613eb5565b9150509295509295509295565b6000602082840312156140af576140ae61534f565b5b600082015167ffffffffffffffff8111156140cd576140cc61534a565b5b6140d984828501613c7b565b91505092915050565b6000602082840312156140f8576140f761534f565b5b600061410684828501613cbe565b91505092915050565b600080604083850312156141265761412561534f565b5b600061413485828601613ca9565b925050602061414585828601613ca9565b9150509250929050565b6000602082840312156141655761416461534f565b5b600061417384828501613cd3565b91505092915050565b600080604083850312156141935761419261534f565b5b60006141a185828601613cd3565b92505060206141b285828601613c51565b9150509250929050565b6000602082840312156141d2576141d161534f565b5b60006141e084828501613ce8565b91505092915050565b6000602082840312156141ff576141fe61534f565b5b600061420d84828501613d3c565b91505092915050565b60006101e0828403121561422d5761422c61534f565b5b600061423b84828501613d51565b91505092915050565b60006020828403121561425a5761425961534f565b5b600061426884828501613eb5565b91505092915050565b6000602082840312156142875761428661534f565b5b600061429584828501613eca565b91505092915050565b600080604083850312156142b5576142b461534f565b5b60006142c385828601613eb5565b92505060206142d485828601613c51565b9150509250929050565b600080604083850312156142f5576142f461534f565b5b600061430385828601613eca565b925050602061431485828601613eca565b9150509250929050565b600061432a8383614336565b60208301905092915050565b61433f81614fab565b82525050565b61434e81614fab565b82525050565b61435d81614fab565b82525050565b600061436e82614d4f565b6143788185614d72565b935061438383614d3f565b8060005b838110156143b457815161439b888261431e565b97506143a683614d65565b925050600181019050614387565b5085935050505092915050565b6143ca81614fbd565b82525050565b6143d981614fc9565b82525050565b6143e881615087565b82525050565b6143f781615099565b82525050565b614406816150ab565b82525050565b61441581615038565b82525050565b61442481615038565b82525050565b614433816150bd565b82525050565b600061444482614d5a565b61444e8185614d83565b935061445e8185602086016150cf565b61446781615354565b840191505092915050565b600061447d82614d5a565b6144878185614d94565b93506144978185602086016150cf565b80840191505092915050565b60006144b0602283614d83565b91506144bb82615365565b604082019050919050565b60006144d3602083614d83565b91506144de826153b4565b602082019050919050565b60006144f6602383614d83565b9150614501826153dd565b604082019050919050565b6000614519602283614d83565b91506145248261542c565b604082019050919050565b600061453c602283614d83565b91506145478261547b565b604082019050919050565b600061455f602683614d83565b915061456a826154ca565b604082019050919050565b6000614582602883614d83565b915061458d82615519565b604082019050919050565b60006145a5602183614d83565b91506145b082615568565b604082019050919050565b60006145c8602583614d83565b91506145d3826155b7565b604082019050919050565b60006145eb602483614d83565b91506145f682615606565b604082019050919050565b600061460e601783614d94565b915061461982615655565b601782019050919050565b6000614631602583614d83565b915061463c8261567e565b604082019050919050565b6000614654601183614d94565b915061465f826156cd565b601182019050919050565b6000614677602f83614d83565b9150614682826156f6565b604082019050919050565b600061469a601f83614d83565b91506146a582615745565b602082019050919050565b6101e0820160008201516146c760008501826143fd565b5060208201516146da60208501826143df565b5060408201516146ed60408501826143ee565b5060608201516147006060850182614336565b50608082015161471360808501826147e5565b5060a082015161472660a08501826147e5565b5060c082015161473960c08501826147e5565b5060e082015161474c60e08501826147e5565b506101008201516147616101008501826147e5565b506101208201516147766101208501826147e5565b5061014082015161478b6101408501826147e5565b506101608201516147a06101608501826147e5565b506101808201516147b56101808501826147e5565b506101a08201516147ca6101a08501826147e5565b506101c08201516147df6101c08501826147e5565b50505050565b6147ee81615070565b82525050565b6147fd81615070565b82525050565b61480c81615070565b82525050565b61481b8161507a565b82525050565b600061482c82614601565b91506148388285614472565b915061484382614647565b915061484f8284614472565b91508190509392505050565b60006020820190506148706000830184614345565b92915050565b600060608201905061488b6000830186614345565b6148986020830185614345565b6148a560408301846147f4565b949350505050565b60006040820190506148c26000830185614345565b6148cf60208301846147f4565b9392505050565b60006080820190506148eb6000830187614345565b6148f860208301866147f4565b6149056040830185614345565b614912606083018461442a565b95945050505050565b60006060820190506149306000830186614345565b61493d60208301856147f4565b61494a60408301846147f4565b949350505050565b600060a0820190506149676000830188614345565b61497460208301876147f4565b61498160408301866147f4565b61498e606083018561442a565b61499b6080830184614345565b9695505050505050565b60006020820190506149ba60008301846143c1565b92915050565b60006020820190506149d560008301846143d0565b92915050565b60006020820190506149f0600083018461440c565b92915050565b6000608082019050614a0b600083018761441b565b614a186020830186614354565b614a256040830185614354565b614a326060830184614354565b95945050505050565b60006020820190508181036000830152614a558184614439565b905092915050565b60006020820190508181036000830152614a76816144a3565b9050919050565b60006020820190508181036000830152614a96816144c6565b9050919050565b60006020820190508181036000830152614ab6816144e9565b9050919050565b60006020820190508181036000830152614ad68161450c565b9050919050565b60006020820190508181036000830152614af68161452f565b9050919050565b60006020820190508181036000830152614b1681614552565b9050919050565b60006020820190508181036000830152614b3681614575565b9050919050565b60006020820190508181036000830152614b5681614598565b9050919050565b60006020820190508181036000830152614b76816145bb565b9050919050565b60006020820190508181036000830152614b96816145de565b9050919050565b60006020820190508181036000830152614bb681614624565b9050919050565b60006020820190508181036000830152614bd68161466a565b9050919050565b60006020820190508181036000830152614bf68161468d565b9050919050565b60006101e082019050614c1360008301846146b0565b92915050565b6000602082019050614c2e60008301846147f4565b92915050565b6000608082019050614c496000830187614803565b614c566020830186614354565b614c636040830185614354565b614c706060830184614354565b95945050505050565b600060a082019050614c8e60008301886147f4565b614c9b60208301876147f4565b8181036040830152614cad8186614363565b9050614cbc6060830185614345565b614cc960808301846147f4565b9695505050505050565b6000602082019050614ce86000830184614812565b92915050565b6000614cf8614d09565b9050614d04828261515e565b919050565b6000604051905090565b600067ffffffffffffffff821115614d2e57614d2d61530c565b5b602082029050602081019050919050565b6000819050602082019050919050565b600081519050919050565b600081519050919050565b6000602082019050919050565b600082825260208201905092915050565b600082825260208201905092915050565b600081905092915050565b6000614daa82615038565b9150614db583615038565b9250817f7fffffffffffffffffffffffffffffffffffffffffffffffffffffffffffffff03831360008312151615614df057614def615221565b5b817f8000000000000000000000000000000000000000000000000000000000000000038312600083121615614e2857614e27615221565b5b828201905092915050565b6000614e3e82615070565b9150614e4983615070565b9250827fffffffffffffffffffffffffffffffffffffffffffffffffffffffffffffffff03821115614e7e57614e7d615221565b5b828201905092915050565b6000614e9482615070565b9150614e9f83615070565b9250817fffffffffffffffffffffffffffffffffffffffffffffffffffffffffffffffff0483118215151615614ed857614ed7615221565b5b828202905092915050565b6000614eee82615038565b9150614ef983615038565b9250827f800000000000000000000000000000000000000000000000000000000000000001821260008412151615614f3457614f33615221565b5b827f7fffffffffffffffffffffffffffffffffffffffffffffffffffffffffffffff018213600084121615614f6c57614f6b615221565b5b828203905092915050565b6000614f8282615070565b9150614f8d83615070565b925082821015614fa057614f9f615221565b5b828203905092915050565b6000614fb682615050565b9050919050565b60008115159050919050565b6000819050919050565b60007fffffffff0000000000000000000000000000000000000000000000000000000082169050919050565b600081905061500d8261576e565b919050565b600081905061502082615782565b919050565b600081905061503382615796565b919050565b6000819050919050565b600061ffff82169050919050565b600073ffffffffffffffffffffffffffffffffffffffff82169050919050565b6000819050919050565b600060ff82169050919050565b600061509282614fff565b9050919050565b60006150a482615012565b9050919050565b60006150b682615025565b9050919050565b60006150c882615042565b9050919050565b60005b838110156150ed5780820151818401526020810190506150d2565b838111156150fc576000848401525b50505050565b600061510d82615070565b9150600082141561512157615120615221565b5b600182039050919050565b6000600282049050600182168061514457607f821691505b602082108114156151585761515761527f565b5b50919050565b61516782615354565b810181811067ffffffffffffffff821117156151865761518561530c565b5b80604052505050565b600061519a82615070565b91507fffffffffffffffffffffffffffffffffffffffffffffffffffffffffffffffff8214156151cd576151cc615221565b5b600182019050919050565b60006151e382615038565b91507f800000000000000000000000000000000000000000000000000000000000000082141561521657615215615221565b5b816000039050919050565b7f4e487b7100000000000000000000000000000000000000000000000000000000600052601160045260246000fd5b7f4e487b7100000000000000000000000000000000000000000000000000000000600052602160045260246000fd5b7f4e487b7100000000000000000000000000000000000000000000000000000000600052602260045260246000fd5b7f4e487b7100000000000000000000000000000000000000000000000000000000600052603160045260246000fd5b7f4e487b7100000000000000000000000000000000000000000000000000000000600052603260045260246000fd5b7f4e487b7100000000000000000000000000000000000000000000000000000000600052604160045260246000fd5b600080fd5b600080fd5b600080fd5b600080fd5b600080fd5b6000601f19601f8301169050919050565b7f456e756d657261626c655365743a20696e646578206f7574206f6620626f756e60008201527f6473000000000000000000000000000000000000000000000000000000000000602082015250565b7f537472696e67733a20686578206c656e67746820696e73756666696369656e74600082015250565b7f45524332303a207472616e7366657220746f20746865207a65726f206164647260008201527f6573730000000000000000000000000000000000000000000000000000000000602082015250565b7f45524332303a206275726e20616d6f756e7420657863656564732062616c616e60008201527f6365000000000000000000000000000000000000000000000000000000000000602082015250565b7f45524332303a20617070726f766520746f20746865207a65726f20616464726560008201527f7373000000000000000000000000000000000000000000000000000000000000602082015250565b7f45524332303a207472616e7366657220616d6f756e742065786365656473206260008201527f616c616e63650000000000000000000000000000000000000000000000000000602082015250565b7f45524332303a207472616e7366657220616d6f756e742065786365656473206160008201527f6c6c6f77616e6365000000000000000000000000000000000000000000000000602082015250565b7f45524332303a206275726e2066726f6d20746865207a65726f2061646472657360008201527f7300000000000000000000000000000000000000000000000000000000000000602082015250565b7f45524332303a207472616e736665722066726f6d20746865207a65726f20616460008201527f6472657373000000000000000000000000000000000000000000000000000000602082015250565b7f45524332303a20617070726f76652066726f6d20746865207a65726f2061646460008201527f7265737300000000000000000000000000000000000000000000000000000000602082015250565b7f416363657373436f6e74726f6c3a206163636f756e7420000000000000000000600082015250565b7f45524332303a2064656372656173656420616c6c6f77616e63652062656c6f7760008201527f207a65726f000000000000000000000000000000000000000000000000000000602082015250565b7f206973206d697373696e6720726f6c6520000000000000000000000000000000600082015250565b7f416363657373436f6e74726f6c3a2063616e206f6e6c792072656e6f756e636560008201527f20726f6c657320666f722073656c660000000000000000000000000000000000602082015250565b7f45524332303a206d696e7420746f20746865207a65726f206164647265737300600082015250565b6002811061577f5761577e615250565b5b50565b6004811061579357615792615250565b5b50565b600281106157a7576157a6615250565b5b50565b6157b381614fab565b81146157be57600080fd5b50565b6157ca81614fbd565b81146157d557600080fd5b50565b6157e181614fc9565b81146157ec57600080fd5b50565b6157f881614fd3565b811461580357600080fd5b50565b6002811061581357600080fd5b50565b6004811061582357600080fd5b50565b6002811061583357600080fd5b50565b61583f81615038565b811461584a57600080fd5b50565b61585681615070565b811461586157600080fd5b5056fea2646970667358221220097ddf98c2254ae7a0f81f43937ec6006785ade4dfaf5b79387d271d25b6396664736f6c63430008060033",
  "immutableReferences": {},
  "source": "/**\n * SPDX-License-Identifier: GPL-3.0-or-later\n * Moret\n * Copyright (C) 2021 Moret\n*/\n\npragma solidity ^0.8.4;\n\nimport \"@openzeppelin/contracts/token/ERC20/ERC20.sol\";\nimport \"@openzeppelin/contracts/access/AccessControl.sol\";\nimport \"@openzeppelin/contracts/utils/structs/EnumerableSet.sol\";\nimport \"./MoretInterfaces.sol\";\nimport \"./MarketLibrary.sol\";\n\ncontract MoretMarketMaker is ERC20, AccessControl, EOption\n{\n  using EnumerableSet for EnumerableSet.UintSet;\n  using EnumerableSet for EnumerableSet.AddressSet;\n\n  bytes32 public constant ADMIN_ROLE = keccak256(\"ADMIN_ROLE\");\n  bytes32 public constant EXCHANGE_ROLE = keccak256(\"EXCHANGE_ROLE\");\n\n  uint256 private constant ethMultiplier = 10 ** 18;\n\n  mapping(address=> EnumerableSet.UintSet) internal activeOptionsPerOwner;\n  EnumerableSet.UintSet internal activeOptions;\n\n  IOptionVault internal optionVault;\n\n  uint256 public lockedPremium = 0;\n  uint256 public callExposure = 0;\n  uint256 public putExposure = 0;\n  uint256 public shortPosition = 0;\n\n  uint256 public swapSlp = 2 * 10**16;\n  uint256 public lendingPoolRateMode = 1;\n\n  address public lendingPoolAddressProviderAddress;\n  address public swapRouterAddress;\n  address public underlyingAddress;\n  address public fundingAddress;\n\n  constructor(\n      string memory _name,\n      string memory _symbol,\n      address _underlyingAddress,\n      address _fundingAddress,\n      address _optionAddress,\n      address _swapRouterAddress,\n      address _lendingPoolAddressProvider\n      )\n      ERC20(_name, _symbol)\n      {\n          _setupRole(DEFAULT_ADMIN_ROLE, msg.sender);\n          _setupRole(ADMIN_ROLE, msg.sender);\n          _setupRole(EXCHANGE_ROLE, msg.sender);\n\n          swapRouterAddress = _swapRouterAddress;\n          lendingPoolAddressProviderAddress = _lendingPoolAddressProvider;\n\n          fundingAddress = _fundingAddress;\n          underlyingAddress = _underlyingAddress;\n          optionVault = IOptionVault(_optionAddress);\n\n          _mint(msg.sender, ethMultiplier);\n      }\n\n\n      function recordOption(address _purchaser, uint256 _id, bool _isPuchase,\n        uint256 _newPremium, uint256 _newCallExposure, uint256 _newPutExposure)\n        external  onlyRole(EXCHANGE_ROLE)\n      {\n        if(_isPuchase)\n        {activeOptionsPerOwner[_purchaser].add(_id);\n        activeOptions.add(_id);}\n        if(!_isPuchase)\n        {activeOptionsPerOwner[_purchaser].remove(_id);\n        activeOptions.remove(_id);}\n\n        lockedPremium = _isPuchase? (lockedPremium + _newPremium): (lockedPremium - _newPremium);\n        callExposure = _isPuchase? (callExposure + _newCallExposure): (callExposure - _newCallExposure);\n        putExposure = _isPuchase? (putExposure + _newPutExposure) : (putExposure - _newPutExposure);\n      }\n\n    function calcTotalDelta() public view returns(int256)\n    {\n      int256 _totalDelta= 0;\n\n      for(uint256 i=0;i<activeOptions.length();i++)\n      {\n        _totalDelta += optionVault.calculateContractDelta(uint256(activeOptions.at(i)));\n      }\n      return _totalDelta;\n    }\n\n    function updateHedges(uint256 _deadline)\n    external onlyRole(ADMIN_ROLE) returns(uint256)\n    {\n         int256 _targetDelta = calcTotalDelta();\n         (uint256 _price,) = optionVault.queryPrice();\n         uint256 _amount = 0;\n         if(_targetDelta<-int256(shortPosition))\n         {\n           _amount = updateHedgesDownwards( _targetDelta, _price,_deadline,  ILendingPoolAddressesProvider(lendingPoolAddressProviderAddress).getLendingPool());\n         }\n         if(_targetDelta>-int256(shortPosition))\n         {\n           _amount = updateHedgesUpwards( _targetDelta, _price,_deadline, ILendingPoolAddressesProvider(lendingPoolAddressProviderAddress).getLendingPool());\n         }\n         return _amount;\n    }\n\n    function updateHedgesDownwards(int256 _targetDelta, uint256 _price, uint256 _deadline, address _lendingPoolAddress)\n    internal returns (uint256){\n\n      uint256 _repayAmount = MarketLibrary.calcRepay(_targetDelta, address(this), lendingPoolAddressProviderAddress, underlyingAddress);\n      /* if(_repayAmount>0)\n      {\n        // repay all borrowing first\n        (address _aToken, address _stableDebt, address _variableDebt) = MarketLibrary.getLendingTokenAddresses (lendingPoolAddressProviderAddress, underlyingAddress );\n        ERC20(lendingPoolRateMode==0? _variableDebt: _stableDebt).approve(_lendingPoolAddress, _repayAmount);\n        ERC20(underlyingAddress).approve(_lendingPoolAddress, _repayAmount);\n        ILendingPool(_lendingPoolAddress).repay(underlyingAddress, _repayAmount, lendingPoolRateMode, address(this));\n        // withdraw collaterals\n        ERC20(_aToken).approve(_lendingPoolAddress, MarketLibrary.calcWithdrawCollateral(address(this), lendingPoolAddressProviderAddress, underlyingAddress));\n        ILendingPool(_lendingPoolAddress).withdraw(underlyingAddress,\n          MarketLibrary.calcWithdrawCollateral(address(this), lendingPoolAddressProviderAddress, underlyingAddress),\n          address(this));\n      } */\n\n      // swap to funding\n      uint256 _swapToFunding = Math.min(ERC20(underlyingAddress).balanceOf(address(this)),\n         uint256(-int256(shortPosition)-_targetDelta));\n      if(_swapToFunding>0){\n        ERC20(underlyingAddress).approve(swapRouterAddress, _swapToFunding);\n\n        address[] memory path = new address[](2);\n        path[0] = underlyingAddress;\n        path[1] = fundingAddress;\n        uint[] memory _swappedAmountsToFunding = IUniswapV2Router02(swapRouterAddress).swapExactTokensForTokens(\n          _swapToFunding,\n          MulDiv(_swapToFunding, MulDiv(_price , ethMultiplier - swapSlp, ethMultiplier),  optionVault.priceMultiplier() ),\n          path,\n          address(this),\n          _deadline\n           );\n\n        // reassign short position\n        shortPosition += _swappedAmountsToFunding[0];\n      }\n\n      return _repayAmount;\n    }\n\n    function updateHedgesUpwards(int256 _targetDelta, uint256 _price, uint256 _deadline, address _lendingPoolAddress)\n    internal returns (uint256){\n      // swap to underlying\n      uint256 _swapFromFunding = Math.min(IERC20(fundingAddress).balanceOf(address(this)),\n       MulDiv(Math.min(shortPosition, uint256(_targetDelta + int256(shortPosition))), _price, optionVault.priceMultiplier()));\n\n      if(_swapFromFunding>0){\n        ERC20(fundingAddress).approve(swapRouterAddress, _swapFromFunding);\n\n        address[] memory path = new address[](2);\n        path[0] = fundingAddress;\n        path[1]= underlyingAddress;\n        uint[] memory _swappedAmountsToUnderlying = IUniswapV2Router02(swapRouterAddress).swapExactTokensForTokens(\n          _swapFromFunding,\n          MulDiv(_swapFromFunding, optionVault.priceMultiplier() , MulDiv(_price , ethMultiplier + swapSlp, ethMultiplier) ),\n          path,\n          address(this),\n          _deadline\n           );\n\n        // reassign short position\n        shortPosition -= _swappedAmountsToUnderlying[0];\n      }\n\n      uint256 _borrowAmount = MarketLibrary.calcBorrow(_targetDelta, address(this), lendingPoolAddressProviderAddress, underlyingAddress);\n      if(_borrowAmount>0)\n      {\n        // deposit collaterals\n        ERC20(underlyingAddress).approve(_lendingPoolAddress, MarketLibrary.calcDepositCollateral(_borrowAmount, address(this), lendingPoolAddressProviderAddress, underlyingAddress));\n        ILendingPool(_lendingPoolAddress).deposit(underlyingAddress,\n          MarketLibrary.calcDepositCollateral(_borrowAmount, address(this), lendingPoolAddressProviderAddress, underlyingAddress),\n          address(this), 0);\n        // borrow\n        ILendingPool(_lendingPoolAddress).borrow(underlyingAddress, _borrowAmount, lendingPoolRateMode,  0, address(this));\n      }\n\n      return _borrowAmount;\n    }\n\n    function addCapital(uint256 _depositAmount) external {\n        uint256 _averageGrossCapital = calcCapital(false, true);\n        require(_averageGrossCapital>0);\n\n        uint256 _mintMPTokenAmount = MulDiv(_depositAmount, ethMultiplier, _averageGrossCapital);\n\n        require(ERC20(underlyingAddress).transferFrom(msg.sender, address(this), _depositAmount));\n\n        _mint(msg.sender, _mintMPTokenAmount);\n\n        emit capitalAdded(msg.sender, _depositAmount, _mintMPTokenAmount);\n    }\n\n\n    function withdrawCapital(uint256 _burnMPTokenAmount) external {\n        uint256 _withdrawValue = MulDiv(calcCapital(true, true),  _burnMPTokenAmount , ethMultiplier);\n\n        _burn(msg.sender, _burnMPTokenAmount);\n\n        require(ERC20(underlyingAddress).transfer(msg.sender, _withdrawValue));\n\n        emit capitalWithdrawn(msg.sender, _burnMPTokenAmount, _withdrawValue);\n    }\n\n    function calcCapital(bool _net, bool _average) public view returns(uint256){\n        (uint256 _price,) = optionVault.queryPrice();\n        uint256 _capital = MulDiv(IERC20(fundingAddress).balanceOf(address(this)), optionVault.priceMultiplier() , _price ) + ERC20(underlyingAddress).balanceOf(address(this)) ;\n\n        if(_net)\n        {\n          _capital -= (_capital <= (callExposure+ putExposure + lockedPremium)? _capital: (callExposure+ putExposure + lockedPremium));\n        }\n\n        if(_average)\n        {\n          _capital = MulDiv(_capital , ethMultiplier , totalSupply());\n        }\n        return _capital;\n    }\n\n    function resetSwapSlippageAllowance(uint256 _multiplier) external onlyRole(ADMIN_ROLE){\n        swapSlp = _multiplier;\n    }\n\n    function getHoldersOptionCount(address _address) external view returns(uint256){return activeOptionsPerOwner[_address].length();}\n    function getHoldersOption(uint256 _index, address _address) external view returns(OptionLibrary.Option memory) {return optionVault.getOption(activeOptionsPerOwner[_address].at(_index));}\n\n\n}\n",
  "sourcePath": "/Users/mac/Documents/GitHub/moret/contracts/MoretMarketMaker.sol",
  "compiler": {
    "name": "solc",
    "version": "0.8.6+commit.11564f7e.Emscripten.clang"
  },
  "schemaVersion": "3.4.1",
  "updatedAt": "2021-07-10T00:40:47.297Z",
  "devdoc": {
    "kind": "dev",
    "methods": {
      "allowance(address,address)": {
        "details": "See {IERC20-allowance}."
      },
      "approve(address,uint256)": {
        "details": "See {IERC20-approve}. Requirements: - `spender` cannot be the zero address."
      },
      "balanceOf(address)": {
        "details": "See {IERC20-balanceOf}."
      },
      "decimals()": {
        "details": "Returns the number of decimals used to get its user representation. For example, if `decimals` equals `2`, a balance of `505` tokens should be displayed to a user as `5,05` (`505 / 10 ** 2`). Tokens usually opt for a value of 18, imitating the relationship between Ether and Wei. This is the value {ERC20} uses, unless this function is overridden; NOTE: This information is only used for _display_ purposes: it in no way affects any of the arithmetic of the contract, including {IERC20-balanceOf} and {IERC20-transfer}."
      },
      "decreaseAllowance(address,uint256)": {
        "details": "Atomically decreases the allowance granted to `spender` by the caller. This is an alternative to {approve} that can be used as a mitigation for problems described in {IERC20-approve}. Emits an {Approval} event indicating the updated allowance. Requirements: - `spender` cannot be the zero address. - `spender` must have allowance for the caller of at least `subtractedValue`."
      },
      "getRoleAdmin(bytes32)": {
        "details": "Returns the admin role that controls `role`. See {grantRole} and {revokeRole}. To change a role's admin, use {_setRoleAdmin}."
      },
      "grantRole(bytes32,address)": {
        "details": "Grants `role` to `account`. If `account` had not been already granted `role`, emits a {RoleGranted} event. Requirements: - the caller must have ``role``'s admin role."
      },
      "hasRole(bytes32,address)": {
        "details": "Returns `true` if `account` has been granted `role`."
      },
      "increaseAllowance(address,uint256)": {
        "details": "Atomically increases the allowance granted to `spender` by the caller. This is an alternative to {approve} that can be used as a mitigation for problems described in {IERC20-approve}. Emits an {Approval} event indicating the updated allowance. Requirements: - `spender` cannot be the zero address."
      },
      "name()": {
        "details": "Returns the name of the token."
      },
      "renounceRole(bytes32,address)": {
        "details": "Revokes `role` from the calling account. Roles are often managed via {grantRole} and {revokeRole}: this function's purpose is to provide a mechanism for accounts to lose their privileges if they are compromised (such as when a trusted device is misplaced). If the calling account had been granted `role`, emits a {RoleRevoked} event. Requirements: - the caller must be `account`."
      },
      "revokeRole(bytes32,address)": {
        "details": "Revokes `role` from `account`. If `account` had been granted `role`, emits a {RoleRevoked} event. Requirements: - the caller must have ``role``'s admin role."
      },
      "supportsInterface(bytes4)": {
        "details": "See {IERC165-supportsInterface}."
      },
      "symbol()": {
        "details": "Returns the symbol of the token, usually a shorter version of the name."
      },
      "totalSupply()": {
        "details": "See {IERC20-totalSupply}."
      },
      "transfer(address,uint256)": {
        "details": "See {IERC20-transfer}. Requirements: - `recipient` cannot be the zero address. - the caller must have a balance of at least `amount`."
      },
      "transferFrom(address,address,uint256)": {
        "details": "See {IERC20-transferFrom}. Emits an {Approval} event indicating the updated allowance. This is not required by the EIP. See the note at the beginning of {ERC20}. Requirements: - `sender` and `recipient` cannot be the zero address. - `sender` must have a balance of at least `amount`. - the caller must have allowance for ``sender``'s tokens of at least `amount`."
      }
    },
    "version": 1
  },
  "userdoc": {
    "kind": "user",
    "methods": {},
    "version": 1
  }
}