{
  "contractName": "MoretMarketMaker",
  "abi": [
    {
      "inputs": [
        {
          "internalType": "string",
          "name": "_name",
          "type": "string"
        },
        {
          "internalType": "string",
          "name": "_symbol",
          "type": "string"
        },
        {
          "internalType": "address",
          "name": "_optionAddress",
          "type": "address"
        }
      ],
      "stateMutability": "nonpayable",
      "type": "constructor"
    },
    {
      "anonymous": false,
      "inputs": [
        {
          "indexed": true,
          "internalType": "address",
          "name": "owner",
          "type": "address"
        },
        {
          "indexed": true,
          "internalType": "address",
          "name": "spender",
          "type": "address"
        },
        {
          "indexed": false,
          "internalType": "uint256",
          "name": "value",
          "type": "uint256"
        }
      ],
      "name": "Approval",
      "type": "event"
    },
    {
      "anonymous": false,
      "inputs": [
        {
          "indexed": true,
          "internalType": "bytes32",
          "name": "role",
          "type": "bytes32"
        },
        {
          "indexed": true,
          "internalType": "bytes32",
          "name": "previousAdminRole",
          "type": "bytes32"
        },
        {
          "indexed": true,
          "internalType": "bytes32",
          "name": "newAdminRole",
          "type": "bytes32"
        }
      ],
      "name": "RoleAdminChanged",
      "type": "event"
    },
    {
      "anonymous": false,
      "inputs": [
        {
          "indexed": true,
          "internalType": "bytes32",
          "name": "role",
          "type": "bytes32"
        },
        {
          "indexed": true,
          "internalType": "address",
          "name": "account",
          "type": "address"
        },
        {
          "indexed": true,
          "internalType": "address",
          "name": "sender",
          "type": "address"
        }
      ],
      "name": "RoleGranted",
      "type": "event"
    },
    {
      "anonymous": false,
      "inputs": [
        {
          "indexed": true,
          "internalType": "bytes32",
          "name": "role",
          "type": "bytes32"
        },
        {
          "indexed": true,
          "internalType": "address",
          "name": "account",
          "type": "address"
        },
        {
          "indexed": true,
          "internalType": "address",
          "name": "sender",
          "type": "address"
        }
      ],
      "name": "RoleRevoked",
      "type": "event"
    },
    {
      "anonymous": false,
      "inputs": [
        {
          "indexed": true,
          "internalType": "address",
          "name": "from",
          "type": "address"
        },
        {
          "indexed": true,
          "internalType": "address",
          "name": "to",
          "type": "address"
        },
        {
          "indexed": false,
          "internalType": "uint256",
          "name": "value",
          "type": "uint256"
        }
      ],
      "name": "Transfer",
      "type": "event"
    },
    {
      "anonymous": false,
      "inputs": [
        {
          "indexed": false,
          "internalType": "address",
          "name": "_recipient",
          "type": "address"
        },
        {
          "indexed": false,
          "internalType": "uint256",
          "name": "_mintMPTokenAmount",
          "type": "uint256"
        },
        {
          "indexed": false,
          "internalType": "uint256",
          "name": "_addedValue",
          "type": "uint256"
        }
      ],
      "name": "capitalAdded",
      "type": "event"
    },
    {
      "anonymous": false,
      "inputs": [
        {
          "indexed": false,
          "internalType": "address",
          "name": "_recipient",
          "type": "address"
        },
        {
          "indexed": false,
          "internalType": "uint256",
          "name": "_burnMPTokenAmount",
          "type": "uint256"
        },
        {
          "indexed": false,
          "internalType": "uint256",
          "name": "_withdrawValue",
          "type": "uint256"
        }
      ],
      "name": "capitalWithdrawn",
      "type": "event"
    },
    {
      "anonymous": false,
      "inputs": [
        {
          "indexed": true,
          "internalType": "address",
          "name": "_purchaser",
          "type": "address"
        },
        {
          "components": [
            {
              "internalType": "enum OptionLibrary.PayoffType",
              "name": "poType",
              "type": "uint8"
            },
            {
              "internalType": "enum OptionLibrary.OptionSide",
              "name": "side",
              "type": "uint8"
            },
            {
              "internalType": "enum OptionLibrary.OptionStatus",
              "name": "status",
              "type": "uint8"
            },
            {
              "internalType": "address",
              "name": "holder",
              "type": "address"
            },
            {
              "internalType": "uint256",
              "name": "id",
              "type": "uint256"
            },
            {
              "internalType": "uint256",
              "name": "createTime",
              "type": "uint256"
            },
            {
              "internalType": "uint256",
              "name": "effectiveTime",
              "type": "uint256"
            },
            {
              "internalType": "uint256",
              "name": "tenor",
              "type": "uint256"
            },
            {
              "internalType": "uint256",
              "name": "maturity",
              "type": "uint256"
            },
            {
              "internalType": "uint256",
              "name": "exerciseTime",
              "type": "uint256"
            },
            {
              "internalType": "uint256",
              "name": "amount",
              "type": "uint256"
            },
            {
              "internalType": "uint256",
              "name": "spot",
              "type": "uint256"
            },
            {
              "internalType": "uint256",
              "name": "strike",
              "type": "uint256"
            },
            {
              "internalType": "uint256",
              "name": "volatility",
              "type": "uint256"
            },
            {
              "internalType": "uint256",
              "name": "premium",
              "type": "uint256"
            },
            {
              "internalType": "uint256",
              "name": "cost",
              "type": "uint256"
            }
          ],
          "indexed": false,
          "internalType": "struct OptionLibrary.Option",
          "name": "_option",
          "type": "tuple"
        },
        {
          "indexed": false,
          "internalType": "uint256",
          "name": "_cost",
          "type": "uint256"
        },
        {
          "indexed": false,
          "internalType": "bool",
          "name": "_inVol",
          "type": "bool"
        }
      ],
      "name": "newOptionBought",
      "type": "event"
    },
    {
      "anonymous": false,
      "inputs": [
        {
          "indexed": false,
          "internalType": "address",
          "name": "_purchaser",
          "type": "address"
        },
        {
          "indexed": false,
          "internalType": "uint256",
          "name": "_time",
          "type": "uint256"
        },
        {
          "indexed": false,
          "internalType": "uint256",
          "name": "_tenor",
          "type": "uint256"
        },
        {
          "indexed": false,
          "internalType": "uint256",
          "name": "_amount",
          "type": "uint256"
        }
      ],
      "name": "newVolatilityTokenBought",
      "type": "event"
    },
    {
      "anonymous": false,
      "inputs": [
        {
          "indexed": true,
          "internalType": "address",
          "name": "_purchaser",
          "type": "address"
        },
        {
          "components": [
            {
              "internalType": "enum OptionLibrary.PayoffType",
              "name": "poType",
              "type": "uint8"
            },
            {
              "internalType": "enum OptionLibrary.OptionSide",
              "name": "side",
              "type": "uint8"
            },
            {
              "internalType": "enum OptionLibrary.OptionStatus",
              "name": "status",
              "type": "uint8"
            },
            {
              "internalType": "address",
              "name": "holder",
              "type": "address"
            },
            {
              "internalType": "uint256",
              "name": "id",
              "type": "uint256"
            },
            {
              "internalType": "uint256",
              "name": "createTime",
              "type": "uint256"
            },
            {
              "internalType": "uint256",
              "name": "effectiveTime",
              "type": "uint256"
            },
            {
              "internalType": "uint256",
              "name": "tenor",
              "type": "uint256"
            },
            {
              "internalType": "uint256",
              "name": "maturity",
              "type": "uint256"
            },
            {
              "internalType": "uint256",
              "name": "exerciseTime",
              "type": "uint256"
            },
            {
              "internalType": "uint256",
              "name": "amount",
              "type": "uint256"
            },
            {
              "internalType": "uint256",
              "name": "spot",
              "type": "uint256"
            },
            {
              "internalType": "uint256",
              "name": "strike",
              "type": "uint256"
            },
            {
              "internalType": "uint256",
              "name": "volatility",
              "type": "uint256"
            },
            {
              "internalType": "uint256",
              "name": "premium",
              "type": "uint256"
            },
            {
              "internalType": "uint256",
              "name": "cost",
              "type": "uint256"
            }
          ],
          "indexed": false,
          "internalType": "struct OptionLibrary.Option",
          "name": "_option",
          "type": "tuple"
        },
        {
          "indexed": false,
          "internalType": "uint256",
          "name": "_payoff",
          "type": "uint256"
        }
      ],
      "name": "optionExercised",
      "type": "event"
    },
    {
      "inputs": [],
      "name": "ADMIN_ROLE",
      "outputs": [
        {
          "internalType": "bytes32",
          "name": "",
          "type": "bytes32"
        }
      ],
      "stateMutability": "view",
      "type": "function"
    },
    {
      "inputs": [],
      "name": "DEFAULT_ADMIN_ROLE",
      "outputs": [
        {
          "internalType": "bytes32",
          "name": "",
          "type": "bytes32"
        }
      ],
      "stateMutability": "view",
      "type": "function"
    },
    {
      "inputs": [],
      "name": "EXCHANGE_ROLE",
      "outputs": [
        {
          "internalType": "bytes32",
          "name": "",
          "type": "bytes32"
        }
      ],
      "stateMutability": "view",
      "type": "function"
    },
    {
      "inputs": [],
      "name": "MINER_ROLE",
      "outputs": [
        {
          "internalType": "bytes32",
          "name": "",
          "type": "bytes32"
        }
      ],
      "stateMutability": "view",
      "type": "function"
    },
    {
      "inputs": [
        {
          "internalType": "address",
          "name": "owner",
          "type": "address"
        },
        {
          "internalType": "address",
          "name": "spender",
          "type": "address"
        }
      ],
      "name": "allowance",
      "outputs": [
        {
          "internalType": "uint256",
          "name": "",
          "type": "uint256"
        }
      ],
      "stateMutability": "view",
      "type": "function"
    },
    {
      "inputs": [
        {
          "internalType": "address",
          "name": "spender",
          "type": "address"
        },
        {
          "internalType": "uint256",
          "name": "amount",
          "type": "uint256"
        }
      ],
      "name": "approve",
      "outputs": [
        {
          "internalType": "bool",
          "name": "",
          "type": "bool"
        }
      ],
      "stateMutability": "nonpayable",
      "type": "function"
    },
    {
      "inputs": [
        {
          "internalType": "address",
          "name": "account",
          "type": "address"
        }
      ],
      "name": "balanceOf",
      "outputs": [
        {
          "internalType": "uint256",
          "name": "",
          "type": "uint256"
        }
      ],
      "stateMutability": "view",
      "type": "function"
    },
    {
      "inputs": [],
      "name": "decimals",
      "outputs": [
        {
          "internalType": "uint8",
          "name": "",
          "type": "uint8"
        }
      ],
      "stateMutability": "view",
      "type": "function"
    },
    {
      "inputs": [
        {
          "internalType": "address",
          "name": "spender",
          "type": "address"
        },
        {
          "internalType": "uint256",
          "name": "subtractedValue",
          "type": "uint256"
        }
      ],
      "name": "decreaseAllowance",
      "outputs": [
        {
          "internalType": "bool",
          "name": "",
          "type": "bool"
        }
      ],
      "stateMutability": "nonpayable",
      "type": "function"
    },
    {
      "inputs": [],
      "name": "exerciseFee",
      "outputs": [
        {
          "internalType": "uint256",
          "name": "",
          "type": "uint256"
        }
      ],
      "stateMutability": "view",
      "type": "function"
    },
    {
      "inputs": [
        {
          "internalType": "bytes32",
          "name": "role",
          "type": "bytes32"
        }
      ],
      "name": "getRoleAdmin",
      "outputs": [
        {
          "internalType": "bytes32",
          "name": "",
          "type": "bytes32"
        }
      ],
      "stateMutability": "view",
      "type": "function"
    },
    {
      "inputs": [
        {
          "internalType": "bytes32",
          "name": "role",
          "type": "bytes32"
        },
        {
          "internalType": "address",
          "name": "account",
          "type": "address"
        }
      ],
      "name": "grantRole",
      "outputs": [],
      "stateMutability": "nonpayable",
      "type": "function"
    },
    {
      "inputs": [
        {
          "internalType": "bytes32",
          "name": "role",
          "type": "bytes32"
        },
        {
          "internalType": "address",
          "name": "account",
          "type": "address"
        }
      ],
      "name": "hasRole",
      "outputs": [
        {
          "internalType": "bool",
          "name": "",
          "type": "bool"
        }
      ],
      "stateMutability": "view",
      "type": "function"
    },
    {
      "inputs": [
        {
          "internalType": "address",
          "name": "spender",
          "type": "address"
        },
        {
          "internalType": "uint256",
          "name": "addedValue",
          "type": "uint256"
        }
      ],
      "name": "increaseAllowance",
      "outputs": [
        {
          "internalType": "bool",
          "name": "",
          "type": "bool"
        }
      ],
      "stateMutability": "nonpayable",
      "type": "function"
    },
    {
      "inputs": [],
      "name": "lendingPoolRateMode",
      "outputs": [
        {
          "internalType": "uint256",
          "name": "",
          "type": "uint256"
        }
      ],
      "stateMutability": "view",
      "type": "function"
    },
    {
      "inputs": [],
      "name": "maintenanceAddress",
      "outputs": [
        {
          "internalType": "address",
          "name": "",
          "type": "address"
        }
      ],
      "stateMutability": "view",
      "type": "function"
    },
    {
      "inputs": [],
      "name": "name",
      "outputs": [
        {
          "internalType": "string",
          "name": "",
          "type": "string"
        }
      ],
      "stateMutability": "view",
      "type": "function"
    },
    {
      "inputs": [
        {
          "internalType": "bytes32",
          "name": "role",
          "type": "bytes32"
        },
        {
          "internalType": "address",
          "name": "account",
          "type": "address"
        }
      ],
      "name": "renounceRole",
      "outputs": [],
      "stateMutability": "nonpayable",
      "type": "function"
    },
    {
      "inputs": [
        {
          "internalType": "bytes32",
          "name": "role",
          "type": "bytes32"
        },
        {
          "internalType": "address",
          "name": "account",
          "type": "address"
        }
      ],
      "name": "revokeRole",
      "outputs": [],
      "stateMutability": "nonpayable",
      "type": "function"
    },
    {
      "inputs": [],
      "name": "settlementFee",
      "outputs": [
        {
          "internalType": "uint256",
          "name": "",
          "type": "uint256"
        }
      ],
      "stateMutability": "view",
      "type": "function"
    },
    {
      "inputs": [
        {
          "internalType": "bytes4",
          "name": "interfaceId",
          "type": "bytes4"
        }
      ],
      "name": "supportsInterface",
      "outputs": [
        {
          "internalType": "bool",
          "name": "",
          "type": "bool"
        }
      ],
      "stateMutability": "view",
      "type": "function"
    },
    {
      "inputs": [],
      "name": "swapSlippage",
      "outputs": [
        {
          "internalType": "uint256",
          "name": "",
          "type": "uint256"
        }
      ],
      "stateMutability": "view",
      "type": "function"
    },
    {
      "inputs": [],
      "name": "symbol",
      "outputs": [
        {
          "internalType": "string",
          "name": "",
          "type": "string"
        }
      ],
      "stateMutability": "view",
      "type": "function"
    },
    {
      "inputs": [],
      "name": "totalSupply",
      "outputs": [
        {
          "internalType": "uint256",
          "name": "",
          "type": "uint256"
        }
      ],
      "stateMutability": "view",
      "type": "function"
    },
    {
      "inputs": [
        {
          "internalType": "address",
          "name": "recipient",
          "type": "address"
        },
        {
          "internalType": "uint256",
          "name": "amount",
          "type": "uint256"
        }
      ],
      "name": "transfer",
      "outputs": [
        {
          "internalType": "bool",
          "name": "",
          "type": "bool"
        }
      ],
      "stateMutability": "nonpayable",
      "type": "function"
    },
    {
      "inputs": [
        {
          "internalType": "address",
          "name": "sender",
          "type": "address"
        },
        {
          "internalType": "address",
          "name": "recipient",
          "type": "address"
        },
        {
          "internalType": "uint256",
          "name": "amount",
          "type": "uint256"
        }
      ],
      "name": "transferFrom",
      "outputs": [
        {
          "internalType": "bool",
          "name": "",
          "type": "bool"
        }
      ],
      "stateMutability": "nonpayable",
      "type": "function"
    },
    {
      "inputs": [
        {
          "internalType": "address",
          "name": "exerciseFeeRecipient",
          "type": "address"
        }
      ],
      "name": "expireOptions",
      "outputs": [],
      "stateMutability": "nonpayable",
      "type": "function"
    },
    {
      "inputs": [
        {
          "internalType": "bool",
          "name": "_net",
          "type": "bool"
        },
        {
          "internalType": "bool",
          "name": "_average",
          "type": "bool"
        }
      ],
      "name": "calcCapital",
      "outputs": [
        {
          "internalType": "uint256",
          "name": "_capital",
          "type": "uint256"
        }
      ],
      "stateMutability": "view",
      "type": "function"
    },
    {
      "inputs": [
        {
          "internalType": "uint256",
          "name": "_depositAmount",
          "type": "uint256"
        }
      ],
      "name": "addCapital",
      "outputs": [],
      "stateMutability": "nonpayable",
      "type": "function"
    },
    {
      "inputs": [
        {
          "internalType": "uint256",
          "name": "_burnMPTokenAmount",
          "type": "uint256"
        }
      ],
      "name": "withdrawCapital",
      "outputs": [],
      "stateMutability": "nonpayable",
      "type": "function"
    },
    {
      "inputs": [
        {
          "internalType": "address",
          "name": "_tokenAddress",
          "type": "address"
        },
        {
          "internalType": "address",
          "name": "_spenderAddress",
          "type": "address"
        },
        {
          "internalType": "uint256",
          "name": "_amount",
          "type": "uint256"
        }
      ],
      "name": "approveSpending",
      "outputs": [],
      "stateMutability": "nonpayable",
      "type": "function"
    },
    {
      "inputs": [
        {
          "internalType": "int256",
          "name": "_underlyingAmt",
          "type": "int256"
        },
        {
          "internalType": "int256",
          "name": "_fundingAmt",
          "type": "int256"
        },
        {
          "internalType": "address",
          "name": "_router",
          "type": "address"
        },
        {
          "internalType": "uint256",
          "name": "_parameter",
          "type": "uint256"
        },
        {
          "internalType": "bool",
          "name": "_useAggregator",
          "type": "bool"
        }
      ],
      "name": "tradesSwaps",
      "outputs": [],
      "stateMutability": "nonpayable",
      "type": "function"
    },
    {
      "inputs": [],
      "name": "hedgeTradesForLoans",
      "outputs": [],
      "stateMutability": "nonpayable",
      "type": "function"
    },
    {
      "inputs": [
        {
          "internalType": "uint256",
          "name": "_newFee",
          "type": "uint256"
        }
      ],
      "name": "resetSettlementFee",
      "outputs": [],
      "stateMutability": "nonpayable",
      "type": "function"
    },
    {
      "inputs": [
        {
          "internalType": "uint256",
          "name": "_newFee",
          "type": "uint256"
        }
      ],
      "name": "resetExerciseFee",
      "outputs": [],
      "stateMutability": "nonpayable",
      "type": "function"
    },
    {
      "inputs": [
        {
          "internalType": "address",
          "name": "_newAddress",
          "type": "address"
        }
      ],
      "name": "resetMaintenance",
      "outputs": [],
      "stateMutability": "nonpayable",
      "type": "function"
    },
    {
      "inputs": [
        {
          "internalType": "uint256",
          "name": "_slippage",
          "type": "uint256"
        }
      ],
      "name": "resetSlippage",
      "outputs": [],
      "stateMutability": "nonpayable",
      "type": "function"
    }
  ],
  "bytecode": "0x60806040526611c37937e080006007556611c37937e080006008556002600d556611c37937e08000600e553480156200003757600080fd5b50604051620068e7380380620068e783398181016040528101906200005d9190620009db565b828281600390805190602001906200007792919062000729565b5080600490805190602001906200009092919062000729565b505050620000a86000801b336200042b60201b60201c565b620000da7fa49807205ce4d355092ef5a8a18f56e8913cf4a201fbe287825b095693c21775336200042b60201b60201c565b6200010c7f28d62fc77014de57a1bbaa8212ff0979fa61ab00d377b4b8d9762048fb419961336200042b60201b60201c565b6200013e7fa952726ef2588ad078edf35b066f7c7406e207cb0003bbaba8cb53eba9553e72336200042b60201b60201c565b33600c60006101000a81548173ffffffffffffffffffffffffffffffffffffffff021916908373ffffffffffffffffffffffffffffffffffffffff16021790555080600960006101000a81548173ffffffffffffffffffffffffffffffffffffffff021916908373ffffffffffffffffffffffffffffffffffffffff16021790555073__OptionLibrary_________________________63fd9b87636040518163ffffffff1660e01b815260040160206040518083038186803b1580156200020557600080fd5b505af41580156200021a573d6000803e3d6000fd5b505050506040513d601f19601f8201168201806040525081019062000240919062000ab0565b600681905550600960009054906101000a900473ffffffffffffffffffffffffffffffffffffffff1673ffffffffffffffffffffffffffffffffffffffff16636f307dc36040518163ffffffff1660e01b815260040160206040518083038186803b158015620002af57600080fd5b505afa158015620002c4573d6000803e3d6000fd5b505050506040513d601f19601f82011682018060405250810190620002ea919062000ae2565b600a60006101000a81548173ffffffffffffffffffffffffffffffffffffffff021916908373ffffffffffffffffffffffffffffffffffffffff160217905550600960009054906101000a900473ffffffffffffffffffffffffffffffffffffffff1673ffffffffffffffffffffffffffffffffffffffff1663cb4c86b76040518163ffffffff1660e01b815260040160206040518083038186803b1580156200039357600080fd5b505afa158015620003a8573d6000803e3d6000fd5b505050506040513d601f19601f82011682018060405250810190620003ce919062000ae2565b600b60006101000a81548173ffffffffffffffffffffffffffffffffffffffff021916908373ffffffffffffffffffffffffffffffffffffffff16021790555062000422336006546200044160201b60201c565b50505062000cb6565b6200043d8282620005ba60201b60201c565b5050565b600073ffffffffffffffffffffffffffffffffffffffff168273ffffffffffffffffffffffffffffffffffffffff161415620004b4576040517f08c379a0000000000000000000000000000000000000000000000000000000008152600401620004ab9062000b75565b60405180910390fd5b620004c860008383620006ac60201b60201c565b8060026000828254620004dc919062000bc6565b92505081905550806000808473ffffffffffffffffffffffffffffffffffffffff1673ffffffffffffffffffffffffffffffffffffffff168152602001908152602001600020600082825462000533919062000bc6565b925050819055508173ffffffffffffffffffffffffffffffffffffffff16600073ffffffffffffffffffffffffffffffffffffffff167fddf252ad1be2c89b69c2b068fc378daa952ba7f163c4a11628f55a4df523b3ef836040516200059a919062000c34565b60405180910390a3620005b660008383620006b160201b60201c565b5050565b620005cc8282620006b660201b60201c565b620006a85760016005600084815260200190815260200160002060000160008373ffffffffffffffffffffffffffffffffffffffff1673ffffffffffffffffffffffffffffffffffffffff16815260200190815260200160002060006101000a81548160ff0219169083151502179055506200064d6200072160201b60201c565b73ffffffffffffffffffffffffffffffffffffffff168173ffffffffffffffffffffffffffffffffffffffff16837f2f8788117e7eff1d82e926ec794901d17c78024a50270940304540a733656f0d60405160405180910390a45b5050565b505050565b505050565b60006005600084815260200190815260200160002060000160008373ffffffffffffffffffffffffffffffffffffffff1673ffffffffffffffffffffffffffffffffffffffff16815260200190815260200160002060009054906101000a900460ff16905092915050565b600033905090565b828054620007379062000c80565b90600052602060002090601f0160209004810192826200075b5760008555620007a7565b82601f106200077657805160ff1916838001178555620007a7565b82800160010185558215620007a7579182015b82811115620007a657825182559160200191906001019062000789565b5b509050620007b69190620007ba565b5090565b5b80821115620007d5576000816000905550600101620007bb565b5090565b6000604051905090565b600080fd5b600080fd5b600080fd5b600080fd5b6000601f19601f8301169050919050565b7f4e487b7100000000000000000000000000000000000000000000000000000000600052604160045260246000fd5b6200084282620007f7565b810181811067ffffffffffffffff8211171562000864576200086362000808565b5b80604052505050565b600062000879620007d9565b905062000887828262000837565b919050565b600067ffffffffffffffff821115620008aa57620008a962000808565b5b620008b582620007f7565b9050602081019050919050565b60005b83811015620008e2578082015181840152602081019050620008c5565b83811115620008f2576000848401525b50505050565b60006200090f62000909846200088c565b6200086d565b9050828152602081018484840111156200092e576200092d620007f2565b5b6200093b848285620008c2565b509392505050565b600082601f8301126200095b576200095a620007ed565b5b81516200096d848260208601620008f8565b91505092915050565b600073ffffffffffffffffffffffffffffffffffffffff82169050919050565b6000620009a38262000976565b9050919050565b620009b58162000996565b8114620009c157600080fd5b50565b600081519050620009d581620009aa565b92915050565b600080600060608486031215620009f757620009f6620007e3565b5b600084015167ffffffffffffffff81111562000a185762000a17620007e8565b5b62000a268682870162000943565b935050602084015167ffffffffffffffff81111562000a4a5762000a49620007e8565b5b62000a588682870162000943565b925050604062000a6b86828701620009c4565b9150509250925092565b6000819050919050565b62000a8a8162000a75565b811462000a9657600080fd5b50565b60008151905062000aaa8162000a7f565b92915050565b60006020828403121562000ac95762000ac8620007e3565b5b600062000ad98482850162000a99565b91505092915050565b60006020828403121562000afb5762000afa620007e3565b5b600062000b0b84828501620009c4565b91505092915050565b600082825260208201905092915050565b7f45524332303a206d696e7420746f20746865207a65726f206164647265737300600082015250565b600062000b5d601f8362000b14565b915062000b6a8262000b25565b602082019050919050565b6000602082019050818103600083015262000b908162000b4e565b9050919050565b7f4e487b7100000000000000000000000000000000000000000000000000000000600052601160045260246000fd5b600062000bd38262000a75565b915062000be08362000a75565b9250827fffffffffffffffffffffffffffffffffffffffffffffffffffffffffffffffff0382111562000c185762000c1762000b97565b5b828201905092915050565b62000c2e8162000a75565b82525050565b600060208201905062000c4b600083018462000c23565b92915050565b7f4e487b7100000000000000000000000000000000000000000000000000000000600052602260045260246000fd5b6000600282049050600182168062000c9957607f821691505b6020821081141562000cb05762000caf62000c51565b5b50919050565b615c218062000cc66000396000f3fe608060405234801561001057600080fd5b50600436106102275760003560e01c80636394f6e611610130578063a9059cbb116100b8578063d8a14cbe1161007c578063d8a14cbe1461067c578063d95b0a1214610698578063dd62ed3e146106b4578063e3f828fa146106e4578063ecc513f01461070057610227565b8063a9059cbb146105d8578063b82e106d14610608578063bea10f9614610626578063d1c699aa14610642578063d547741f1461066057610227565b80637d1d7fb8116100ff5780637d1d7fb81461051e57806391d148541461053c57806395d89b411461056c578063a217fddf1461058a578063a457c2d7146105a857610227565b80636394f6e61461049457806370a08231146104b2578063719d5f83146104e257806375b238fc1461050057610227565b8063313ce567116101b3578063395093511161018257806339509351146103de5780633b7345011461040e57806345b2f91c1461042c57806346c777d814610448578063634479021461046457610227565b8063313ce5671461037e57806333d0d83c1461039c57806336568abe146103b85780633733116d146103d457610227565b806318160ddd116101fa57806318160ddd146102c65780631aedeabe146102e457806323b872dd14610302578063248a9ca3146103325780632f2ff15d1461036257610227565b806301ffc9a71461022c57806306fdde031461025c57806307ba08ce1461027a578063095ea7b314610296575b600080fd5b61024660048036038101906102419190613f87565b61071c565b6040516102539190613fcf565b60405180910390f35b610264610796565b6040516102719190614083565b60405180910390f35b610294600480360381019061028f9190614103565b610828565b005b6102b060048036038101906102ab9190614166565b6111af565b6040516102bd9190613fcf565b60405180910390f35b6102ce6111cd565b6040516102db91906141b5565b60405180910390f35b6102ec6111d7565b6040516102f991906141b5565b60405180910390f35b61031c600480360381019061031791906141d0565b6111dd565b6040516103299190613fcf565b60405180910390f35b61034c60048036038101906103479190614259565b6112d5565b6040516103599190614295565b60405180910390f35b61037c600480360381019061037791906142b0565b6112f5565b005b61038661131e565b604051610393919061430c565b60405180910390f35b6103b660048036038101906103b19190614389565b611327565b005b6103d260048036038101906103cd91906142b0565b611567565b005b6103dc6115ea565b005b6103f860048036038101906103f39190614166565b611f73565b6040516104059190613fcf565b60405180910390f35b61041661201f565b6040516104239190614295565b60405180910390f35b61044660048036038101906104419190614103565b612043565b005b610462600480360381019061045d9190614404565b6120ba565b005b61047e60048036038101906104799190614431565b612105565b60405161048b91906141b5565b60405180910390f35b61049c612420565b6040516104a99190614295565b60405180910390f35b6104cc60048036038101906104c79190614103565b612444565b6040516104d991906141b5565b60405180910390f35b6104ea61248c565b6040516104f79190614480565b60405180910390f35b6105086124b2565b6040516105159190614295565b60405180910390f35b6105266124d6565b60405161053391906141b5565b60405180910390f35b610556600480360381019061055191906142b0565b6124dc565b6040516105639190613fcf565b60405180910390f35b610574612547565b6040516105819190614083565b60405180910390f35b6105926125d9565b60405161059f9190614295565b60405180910390f35b6105c260048036038101906105bd9190614166565b6125e0565b6040516105cf9190613fcf565b60405180910390f35b6105f260048036038101906105ed9190614166565b6126cb565b6040516105ff9190613fcf565b60405180910390f35b6106106126e9565b60405161061d91906141b5565b60405180910390f35b610640600480360381019061063b9190614404565b6126ef565b005b61064a6128b8565b60405161065791906141b5565b60405180910390f35b61067a600480360381019061067591906142b0565b6128be565b005b610696600480360381019061069191906141d0565b6128e7565b005b6106b260048036038101906106ad9190614404565b6129ad565b005b6106ce60048036038101906106c9919061449b565b612c5f565b6040516106db91906141b5565b60405180910390f35b6106fe60048036038101906106f99190614404565b612ce6565b005b61071a60048036038101906107159190614404565b612d23565b005b60007f7965db0b000000000000000000000000000000000000000000000000000000007bffffffffffffffffffffffffffffffffffffffffffffffffffffffff1916827bffffffffffffffffffffffffffffffffffffffffffffffffffffffff1916148061078f575061078e82612d6e565b5b9050919050565b6060600380546107a59061450a565b80601f01602080910402602001604051908101604052809291908181526020018280546107d19061450a565b801561081e5780601f106107f35761010080835404028352916020019161081e565b820191906000526020600020905b81548152906001019060200180831161080157829003601f168201915b5050505050905090565b6000600960009054906101000a900473ffffffffffffffffffffffffffffffffffffffff1673ffffffffffffffffffffffffffffffffffffffff16637652e7c46040518163ffffffff1660e01b815260040160206040518083038186803b15801561089257600080fd5b505afa1580156108a6573d6000803e3d6000fd5b505050506040513d601f19601f820116820180604052508101906108ca9190614551565b90505b60008111156111ab57600960009054906101000a900473ffffffffffffffffffffffffffffffffffffffff1673ffffffffffffffffffffffffffffffffffffffff1663637baf60826040518263ffffffff1660e01b815260040161093191906141b5565b600060405180830381600087803b15801561094b57600080fd5b505af115801561095f573d6000803e3d6000fd5b50505050600080600960009054906101000a900473ffffffffffffffffffffffffffffffffffffffff1673ffffffffffffffffffffffffffffffffffffffff166385ae10e6846040518263ffffffff1660e01b81526004016109c191906141b5565b604080518083038186803b1580156109d857600080fd5b505afa1580156109ec573d6000803e3d6000fd5b505050506040513d601f19601f82011682018060405250810190610a10919061457e565b9150915073__MarketLibrary_________________________63eea2526b600b60009054906101000a900473ffffffffffffffffffffffffffffffffffffffff16306040518363ffffffff1660e01b8152600401610a6f9291906145cd565b60206040518083038186803b158015610a8757600080fd5b505af4158015610a9b573d6000803e3d6000fd5b505050506040513d601f19601f82011682018060405250810190610abf9190614551565b8110610b00576040517f08c379a0000000000000000000000000000000000000000000000000000000008152600401610af790614642565b60405180910390fd5b6000811115611102576000818314610b185781610b42565b610b4182600854600754600654610b2f9190614691565b610b399190614691565b600654612dd8565b5b90506000610b5584600754600654612dd8565b90506000610b6885600854600654612dd8565b9050600b60009054906101000a900473ffffffffffffffffffffffffffffffffffffffff1673ffffffffffffffffffffffffffffffffffffffff1663a9059cbb600960009054906101000a900473ffffffffffffffffffffffffffffffffffffffff1673ffffffffffffffffffffffffffffffffffffffff16631a7985ba896040518263ffffffff1660e01b8152600401610c0391906141b5565b60206040518083038186803b158015610c1b57600080fd5b505afa158015610c2f573d6000803e3d6000fd5b505050506040513d601f19601f82011682018060405250810190610c5391906146da565b73__MarketLibrary_________________________638170ce8087600b60009054906101000a900473ffffffffffffffffffffffffffffffffffffffff166040518363ffffffff1660e01b8152600401610cae929190614716565b60206040518083038186803b158015610cc657600080fd5b505af4158015610cda573d6000803e3d6000fd5b505050506040513d601f19601f82011682018060405250810190610cfe9190614551565b6040518363ffffffff1660e01b8152600401610d1b92919061473f565b602060405180830381600087803b158015610d3557600080fd5b505af1158015610d49573d6000803e3d6000fd5b505050506040513d601f19601f82011682018060405250810190610d6d919061477d565b610dac576040517f08c379a0000000000000000000000000000000000000000000000000000000008152600401610da3906147f6565b60405180910390fd5b600b60009054906101000a900473ffffffffffffffffffffffffffffffffffffffff1673ffffffffffffffffffffffffffffffffffffffff1663a9059cbb600c60009054906101000a900473ffffffffffffffffffffffffffffffffffffffff1673__MarketLibrary_________________________638170ce8086600b60009054906101000a900473ffffffffffffffffffffffffffffffffffffffff166040518363ffffffff1660e01b8152600401610e68929190614716565b60206040518083038186803b158015610e8057600080fd5b505af4158015610e94573d6000803e3d6000fd5b505050506040513d601f19601f82011682018060405250810190610eb89190614551565b6040518363ffffffff1660e01b8152600401610ed592919061473f565b602060405180830381600087803b158015610eef57600080fd5b505af1158015610f03573d6000803e3d6000fd5b505050506040513d601f19601f82011682018060405250810190610f27919061477d565b610f66576040517f08c379a0000000000000000000000000000000000000000000000000000000008152600401610f5d90614862565b60405180910390fd5b600b60009054906101000a900473ffffffffffffffffffffffffffffffffffffffff1673ffffffffffffffffffffffffffffffffffffffff1663a9059cbb8873__MarketLibrary_________________________638170ce8085600b60009054906101000a900473ffffffffffffffffffffffffffffffffffffffff166040518363ffffffff1660e01b8152600401611000929190614716565b60206040518083038186803b15801561101857600080fd5b505af415801561102c573d6000803e3d6000fd5b505050506040513d601f19601f820116820180604052508101906110509190614551565b6040518363ffffffff1660e01b815260040161106d92919061473f565b602060405180830381600087803b15801561108757600080fd5b505af115801561109b573d6000803e3d6000fd5b505050506040513d601f19601f820116820180604052508101906110bf919061477d565b6110fe576040517f08c379a00000000000000000000000000000000000000000000000000000000081526004016110f5906148ce565b60405180910390fd5b5050505b600960009054906101000a900473ffffffffffffffffffffffffffffffffffffffff1673ffffffffffffffffffffffffffffffffffffffff16637652e7c46040518163ffffffff1660e01b815260040160206040518083038186803b15801561116a57600080fd5b505afa15801561117e573d6000803e3d6000fd5b505050506040513d601f19601f820116820180604052508101906111a29190614551565b925050506108cd565b5050565b60006111c36111bc612ed4565b8484612edc565b6001905092915050565b6000600254905090565b600e5481565b60006111ea8484846130a7565b6000600160008673ffffffffffffffffffffffffffffffffffffffff1673ffffffffffffffffffffffffffffffffffffffff1681526020019081526020016000206000611235612ed4565b73ffffffffffffffffffffffffffffffffffffffff1673ffffffffffffffffffffffffffffffffffffffff168152602001908152602001600020549050828110156112b5576040517f08c379a00000000000000000000000000000000000000000000000000000000081526004016112ac90614960565b60405180910390fd5b6112c9856112c1612ed4565b858403612edc565b60019150509392505050565b600060056000838152602001908152602001600020600101549050919050565b6112fe826112d5565b61130f8161130a612ed4565b613328565b61131983836133c5565b505050565b60006012905090565b7fa952726ef2588ad078edf35b066f7c7406e207cb0003bbaba8cb53eba9553e7261135981611354612ed4565b613328565b60008060008073__MarketLibrary_________________________63865c99848b8b600960009054906101000a900473ffffffffffffffffffffffffffffffffffffffff1673ffffffffffffffffffffffffffffffffffffffff16636f307dc36040518163ffffffff1660e01b815260040160206040518083038186803b1580156113e357600080fd5b505afa1580156113f7573d6000803e3d6000fd5b505050506040513d601f19601f8201168201806040525081019061141b91906146da565b600960009054906101000a900473ffffffffffffffffffffffffffffffffffffffff1673ffffffffffffffffffffffffffffffffffffffff1663cb4c86b76040518163ffffffff1660e01b815260040160206040518083038186803b15801561148357600080fd5b505afa158015611497573d6000803e3d6000fd5b505050506040513d601f19601f820116820180604052508101906114bb91906146da565b6040518563ffffffff1660e01b81526004016114da949392919061498f565b60806040518083038186803b1580156114f257600080fd5b505af4158015611506573d6000803e3d6000fd5b505050506040513d601f19601f8201168201806040525081019061152a91906149d4565b935093509350935085156115475761154682828a87878c6134a6565b5b8561155b5761155a82828a87878c61367c565b5b50505050505050505050565b61156f612ed4565b73ffffffffffffffffffffffffffffffffffffffff168173ffffffffffffffffffffffffffffffffffffffff16146115dc576040517f08c379a00000000000000000000000000000000000000000000000000000000081526004016115d390614aad565b60405180910390fd5b6115e682826138a3565b5050565b7fa952726ef2588ad078edf35b066f7c7406e207cb0003bbaba8cb53eba9553e7261161c81611617612ed4565b613328565b600080600080600960009054906101000a900473ffffffffffffffffffffffffffffffffffffffff1673ffffffffffffffffffffffffffffffffffffffff16630674367830600d546040518363ffffffff1660e01b815260040161168192919061473f565b60806040518083038186803b15801561169957600080fd5b505afa1580156116ad573d6000803e3d6000fd5b505050506040513d601f19601f820116820180604052508101906116d19190614ae2565b935093509350935073__MarketLibrary_________________________63aa5c12c785846040518363ffffffff1660e01b8152600401611712929190614b49565b60206040518083038186803b15801561172a57600080fd5b505af415801561173e573d6000803e3d6000fd5b505050506040513d601f19601f820116820180604052508101906117629190614b72565b935073__MarketLibrary_________________________63aa5c12c784836040518363ffffffff1660e01b815260040161179d929190614b49565b60206040518083038186803b1580156117b557600080fd5b505af41580156117c9573d6000803e3d6000fd5b505050506040513d601f19601f820116820180604052508101906117ed9190614b72565b92506000600960009054906101000a900473ffffffffffffffffffffffffffffffffffffffff1673ffffffffffffffffffffffffffffffffffffffff1663251e1e8a6040518163ffffffff1660e01b815260040160206040518083038186803b15801561185957600080fd5b505afa15801561186d573d6000803e3d6000fd5b505050506040513d601f19601f8201168201806040525081019061189191906146da565b73ffffffffffffffffffffffffffffffffffffffff16630261bf8b6040518163ffffffff1660e01b815260040160206040518083038186803b1580156118d657600080fd5b505afa1580156118ea573d6000803e3d6000fd5b505050506040513d601f19601f8201168201806040525081019061190e91906146da565b90506000841315611a5e57600b60009054906101000a900473ffffffffffffffffffffffffffffffffffffffff1673ffffffffffffffffffffffffffffffffffffffff16633950935182866040518363ffffffff1660e01b815260040161197692919061473f565b602060405180830381600087803b15801561199057600080fd5b505af11580156119a4573d6000803e3d6000fd5b505050506040513d601f19601f820116820180604052508101906119c8919061477d565b508073ffffffffffffffffffffffffffffffffffffffff1663e8eda9df600b60009054906101000a900473ffffffffffffffffffffffffffffffffffffffff16863060006040518563ffffffff1660e01b8152600401611a2b9493929190614bf2565b600060405180830381600087803b158015611a4557600080fd5b505af1158015611a59573d6000803e3d6000fd5b505050505b6000851315611b00578073ffffffffffffffffffffffffffffffffffffffff1663a415bcad600a60009054906101000a900473ffffffffffffffffffffffffffffffffffffffff1687600d546000306040518663ffffffff1660e01b8152600401611acd959493929190614c37565b600060405180830381600087803b158015611ae757600080fd5b505af1158015611afb573d6000803e3d6000fd5b505050505b6000851215611e0f5784611b1390614c8a565b600a60009054906101000a900473ffffffffffffffffffffffffffffffffffffffff1673ffffffffffffffffffffffffffffffffffffffff166370a08231306040518263ffffffff1660e01b8152600401611b6e9190614480565b60206040518083038186803b158015611b8657600080fd5b505afa158015611b9a573d6000803e3d6000fd5b505050506040513d601f19601f82011682018060405250810190611bbe9190614551565b1015611bff576040517f08c379a0000000000000000000000000000000000000000000000000000000008152600401611bf690614d1f565b60405180910390fd5b8273ffffffffffffffffffffffffffffffffffffffff1663095ea7b38287611c2690614c8a565b6040518363ffffffff1660e01b8152600401611c4392919061473f565b602060405180830381600087803b158015611c5d57600080fd5b505af1158015611c71573d6000803e3d6000fd5b505050506040513d601f19601f82011682018060405250810190611c95919061477d565b50600a60009054906101000a900473ffffffffffffffffffffffffffffffffffffffff1673ffffffffffffffffffffffffffffffffffffffff1663095ea7b38287611cdf90614c8a565b6040518363ffffffff1660e01b8152600401611cfc92919061473f565b602060405180830381600087803b158015611d1657600080fd5b505af1158015611d2a573d6000803e3d6000fd5b505050506040513d601f19601f82011682018060405250810190611d4e919061477d565b508073ffffffffffffffffffffffffffffffffffffffff1663573ade81600a60009054906101000a900473ffffffffffffffffffffffffffffffffffffffff1687611d9890614c8a565b600d54306040518563ffffffff1660e01b8152600401611dbb9493929190614d3f565b602060405180830381600087803b158015611dd557600080fd5b505af1158015611de9573d6000803e3d6000fd5b505050506040513d601f19601f82011682018060405250810190611e0d9190614551565b505b6000841215611f6b578173ffffffffffffffffffffffffffffffffffffffff1663395093518286611e3f90614c8a565b6040518363ffffffff1660e01b8152600401611e5c92919061473f565b602060405180830381600087803b158015611e7657600080fd5b505af1158015611e8a573d6000803e3d6000fd5b505050506040513d601f19601f82011682018060405250810190611eae919061477d565b508073ffffffffffffffffffffffffffffffffffffffff166369328dec600b60009054906101000a900473ffffffffffffffffffffffffffffffffffffffff1686611ef890614c8a565b306040518463ffffffff1660e01b8152600401611f1793929190614d84565b602060405180830381600087803b158015611f3157600080fd5b505af1158015611f45573d6000803e3d6000fd5b505050506040513d601f19601f82011682018060405250810190611f699190614551565b505b505050505050565b6000612015611f80612ed4565b848460016000611f8e612ed4565b73ffffffffffffffffffffffffffffffffffffffff1673ffffffffffffffffffffffffffffffffffffffff16815260200190815260200160002060008873ffffffffffffffffffffffffffffffffffffffff1673ffffffffffffffffffffffffffffffffffffffff168152602001908152602001600020546120109190614dbb565b612edc565b6001905092915050565b7f28d62fc77014de57a1bbaa8212ff0979fa61ab00d377b4b8d9762048fb41996181565b7fa49807205ce4d355092ef5a8a18f56e8913cf4a201fbe287825b095693c2177561207581612070612ed4565b613328565b81600c60006101000a81548173ffffffffffffffffffffffffffffffffffffffff021916908373ffffffffffffffffffffffffffffffffffffffff1602179055505050565b7fa49807205ce4d355092ef5a8a18f56e8913cf4a201fbe287825b095693c217756120ec816120e7612ed4565b613328565b60065482106120fa57600080fd5b816007819055505050565b600080600960009054906101000a900473ffffffffffffffffffffffffffffffffffffffff1673ffffffffffffffffffffffffffffffffffffffff1663b0667cf86040518163ffffffff1660e01b8152600401604080518083038186803b15801561216f57600080fd5b505afa158015612183573d6000803e3d6000fd5b505050506040513d601f19601f820116820180604052508101906121a7919061457e565b509050600080600080600960009054906101000a900473ffffffffffffffffffffffffffffffffffffffff1673ffffffffffffffffffffffffffffffffffffffff1663c84aae17306040518263ffffffff1660e01b815260040161220b9190614480565b60806040518083038186803b15801561222357600080fd5b505afa158015612237573d6000803e3d6000fd5b505050506040513d601f19601f8201168201806040525081019061225b9190614e11565b93509350935093506122708486600654612dd8565b828461227c9190614dbb565b6122869190614dbb565b95506122958186600654612dd8565b86116122d6576040517f08c379a00000000000000000000000000000000000000000000000000000000081526004016122cd90614ec4565b60405180910390fd5b6122e38186600654612dd8565b866122ee9190614691565b955087156123c5576123b76123b1600960009054906101000a900473ffffffffffffffffffffffffffffffffffffffff1673ffffffffffffffffffffffffffffffffffffffff16633b7745ab60006040518263ffffffff1660e01b81526004016123589190613fcf565b60206040518083038186803b15801561237057600080fd5b505afa158015612384573d6000803e3d6000fd5b505050506040513d601f19601f820116820180604052508101906123a89190614551565b87600654612dd8565b87613985565b866123c29190614691565b95505b86156124155760006123d56111cd565b11156123f2576123ef866006546123ea6111cd565b612dd8565b95505b60006123fc6111cd565b1480156124095750600086145b156124145760065495505b5b505050505092915050565b7fa952726ef2588ad078edf35b066f7c7406e207cb0003bbaba8cb53eba9553e7281565b60008060008373ffffffffffffffffffffffffffffffffffffffff1673ffffffffffffffffffffffffffffffffffffffff168152602001908152602001600020549050919050565b600c60009054906101000a900473ffffffffffffffffffffffffffffffffffffffff1681565b7fa49807205ce4d355092ef5a8a18f56e8913cf4a201fbe287825b095693c2177581565b60075481565b60006005600084815260200190815260200160002060000160008373ffffffffffffffffffffffffffffffffffffffff1673ffffffffffffffffffffffffffffffffffffffff16815260200190815260200160002060009054906101000a900460ff16905092915050565b6060600480546125569061450a565b80601f01602080910402602001604051908101604052809291908181526020018280546125829061450a565b80156125cf5780601f106125a4576101008083540402835291602001916125cf565b820191906000526020600020905b8154815290600101906020018083116125b257829003601f168201915b5050505050905090565b6000801b81565b600080600160006125ef612ed4565b73ffffffffffffffffffffffffffffffffffffffff1673ffffffffffffffffffffffffffffffffffffffff16815260200190815260200160002060008573ffffffffffffffffffffffffffffffffffffffff1673ffffffffffffffffffffffffffffffffffffffff168152602001908152602001600020549050828110156126ac576040517f08c379a00000000000000000000000000000000000000000000000000000000081526004016126a390614f56565b60405180910390fd5b6126c06126b7612ed4565b85858403612edc565b600191505092915050565b60006126df6126d8612ed4565b84846130a7565b6001905092915050565b600d5481565b60006127b373__MarketLibrary_________________________63f0742a2584600b60009054906101000a900473ffffffffffffffffffffffffffffffffffffffff166040518363ffffffff1660e01b815260040161274f929190614716565b60206040518083038186803b15801561276757600080fd5b505af415801561277b573d6000803e3d6000fd5b505050506040513d601f19601f8201168201806040525081019061279f9190614551565b6006546127ae60006001612105565b612dd8565b9050600b60009054906101000a900473ffffffffffffffffffffffffffffffffffffffff1673ffffffffffffffffffffffffffffffffffffffff166323b872dd3330856040518463ffffffff1660e01b815260040161281493929190614f76565b602060405180830381600087803b15801561282e57600080fd5b505af1158015612842573d6000803e3d6000fd5b505050506040513d601f19601f82011682018060405250810190612866919061477d565b61286f57600080fd5b612879338261399e565b7fd0d5ca25112902dbbf5a70a67eed6edc7513b74f2a7ec0805ca216c99f981cc13383836040516128ac93929190614fad565b60405180910390a15050565b60085481565b6128c7826112d5565b6128d8816128d3612ed4565b613328565b6128e283836138a3565b505050565b7fa952726ef2588ad078edf35b066f7c7406e207cb0003bbaba8cb53eba9553e7261291981612914612ed4565b613328565b8373ffffffffffffffffffffffffffffffffffffffff1663095ea7b384846040518363ffffffff1660e01b815260040161295492919061473f565b602060405180830381600087803b15801561296e57600080fd5b505af1158015612982573d6000803e3d6000fd5b505050506040513d601f19601f820116820180604052508101906129a6919061477d565b5050505050565b600073__MarketLibrary_________________________638170ce806129e06129d7600180612105565b85600654612dd8565b600b60009054906101000a900473ffffffffffffffffffffffffffffffffffffffff166040518363ffffffff1660e01b8152600401612a20929190614716565b60206040518083038186803b158015612a3857600080fd5b505af4158015612a4c573d6000803e3d6000fd5b505050506040513d601f19601f82011682018060405250810190612a709190614551565b905080600b60009054906101000a900473ffffffffffffffffffffffffffffffffffffffff1673ffffffffffffffffffffffffffffffffffffffff166370a08231306040518263ffffffff1660e01b8152600401612ace9190614480565b60206040518083038186803b158015612ae657600080fd5b505afa158015612afa573d6000803e3d6000fd5b505050506040513d601f19601f82011682018060405250810190612b1e9190614551565b11612b5e576040517f08c379a0000000000000000000000000000000000000000000000000000000008152600401612b5590615030565b60405180910390fd5b612b683383613afe565b600b60009054906101000a900473ffffffffffffffffffffffffffffffffffffffff1673ffffffffffffffffffffffffffffffffffffffff1663a9059cbb33836040518363ffffffff1660e01b8152600401612bc592919061473f565b602060405180830381600087803b158015612bdf57600080fd5b505af1158015612bf3573d6000803e3d6000fd5b505050506040513d601f19601f82011682018060405250810190612c17919061477d565b612c2057600080fd5b7f3a9e5b3b520d77dc26bf05104c863b6b654d4b96fa8031a783ad0dbd905cdf39338383604051612c5393929190614fad565b60405180910390a15050565b6000600160008473ffffffffffffffffffffffffffffffffffffffff1673ffffffffffffffffffffffffffffffffffffffff16815260200190815260200160002060008373ffffffffffffffffffffffffffffffffffffffff1673ffffffffffffffffffffffffffffffffffffffff16815260200190815260200160002054905092915050565b7fa49807205ce4d355092ef5a8a18f56e8913cf4a201fbe287825b095693c21775612d1881612d13612ed4565b613328565b81600e819055505050565b7fa49807205ce4d355092ef5a8a18f56e8913cf4a201fbe287825b095693c21775612d5581612d50612ed4565b613328565b6006548210612d6357600080fd5b816008819055505050565b60007f01ffc9a7000000000000000000000000000000000000000000000000000000007bffffffffffffffffffffffffffffffffffffffffffffffffffffffff1916827bffffffffffffffffffffffffffffffffffffffffffffffffffffffff1916149050919050565b600080600080198587098587029250828110838203039150506000811415612e135760008411612e0757600080fd5b83820492505050612ecd565b808411612e1f57600080fd5b60008486880990508281118203915080830392506000856001877fffffffffffffffffffffffffffffffffffffffffffffffffffffffffffffffff0301169050808604955080840493506001818260000304019050808302841793506000600287600302189050808702600203810290508087026002038102905080870260020381029050808702600203810290508087026002038102905080870260020381029050808502955050505050505b9392505050565b600033905090565b600073ffffffffffffffffffffffffffffffffffffffff168373ffffffffffffffffffffffffffffffffffffffff161415612f4c576040517f08c379a0000000000000000000000000000000000000000000000000000000008152600401612f43906150c2565b60405180910390fd5b600073ffffffffffffffffffffffffffffffffffffffff168273ffffffffffffffffffffffffffffffffffffffff161415612fbc576040517f08c379a0000000000000000000000000000000000000000000000000000000008152600401612fb390615154565b60405180910390fd5b80600160008573ffffffffffffffffffffffffffffffffffffffff1673ffffffffffffffffffffffffffffffffffffffff16815260200190815260200160002060008473ffffffffffffffffffffffffffffffffffffffff1673ffffffffffffffffffffffffffffffffffffffff168152602001908152602001600020819055508173ffffffffffffffffffffffffffffffffffffffff168373ffffffffffffffffffffffffffffffffffffffff167f8c5be1e5ebec7d5bd14f71427d1e84f3dd0314c0f7b2291e5b200ac8c7c3b9258360405161309a91906141b5565b60405180910390a3505050565b600073ffffffffffffffffffffffffffffffffffffffff168373ffffffffffffffffffffffffffffffffffffffff161415613117576040517f08c379a000000000000000000000000000000000000000000000000000000000815260040161310e906151e6565b60405180910390fd5b600073ffffffffffffffffffffffffffffffffffffffff168273ffffffffffffffffffffffffffffffffffffffff161415613187576040517f08c379a000000000000000000000000000000000000000000000000000000000815260040161317e90615278565b60405180910390fd5b613192838383613cd5565b60008060008573ffffffffffffffffffffffffffffffffffffffff1673ffffffffffffffffffffffffffffffffffffffff16815260200190815260200160002054905081811015613218576040517f08c379a000000000000000000000000000000000000000000000000000000000815260040161320f9061530a565b60405180910390fd5b8181036000808673ffffffffffffffffffffffffffffffffffffffff1673ffffffffffffffffffffffffffffffffffffffff16815260200190815260200160002081905550816000808573ffffffffffffffffffffffffffffffffffffffff1673ffffffffffffffffffffffffffffffffffffffff16815260200190815260200160002060008282546132ab9190614dbb565b925050819055508273ffffffffffffffffffffffffffffffffffffffff168473ffffffffffffffffffffffffffffffffffffffff167fddf252ad1be2c89b69c2b068fc378daa952ba7f163c4a11628f55a4df523b3ef8460405161330f91906141b5565b60405180910390a3613322848484613cda565b50505050565b61333282826124dc565b6133c1576133578173ffffffffffffffffffffffffffffffffffffffff166014613cdf565b6133658360001c6020613cdf565b6040516020016133769291906153fe565b6040516020818303038152906040526040517f08c379a00000000000000000000000000000000000000000000000000000000081526004016133b89190614083565b60405180910390fd5b5050565b6133cf82826124dc565b6134a25760016005600084815260200190815260200160002060000160008373ffffffffffffffffffffffffffffffffffffffff1673ffffffffffffffffffffffffffffffffffffffff16815260200190815260200160002060006101000a81548160ff021916908315150217905550613447612ed4565b73ffffffffffffffffffffffffffffffffffffffff168173ffffffffffffffffffffffffffffffffffffffff16837f2f8788117e7eff1d82e926ec794901d17c78024a50270940304540a733656f0d60405160405180910390a45b5050565b8573ffffffffffffffffffffffffffffffffffffffff1663095ea7b385856040518363ffffffff1660e01b81526004016134e192919061473f565b602060405180830381600087803b1580156134fb57600080fd5b505af115801561350f573d6000803e3d6000fd5b505050506040513d601f19601f82011682018060405250810190613533919061477d565b506000808573ffffffffffffffffffffffffffffffffffffffff1663085e2c5b8989888760006040518663ffffffff1660e01b81526004016135799594939291906154be565b60006040518083038186803b15801561359157600080fd5b505afa1580156135a5573d6000803e3d6000fd5b505050506040513d6000823e3d601f19601f820116820180604052508101906135ce9190615659565b915091508573ffffffffffffffffffffffffffffffffffffffff1663e2a7515e8989886135fb878a613985565b8660006040518763ffffffff1660e01b815260040161361f96959493929190615773565b602060405180830381600087803b15801561363957600080fd5b505af115801561364d573d6000803e3d6000fd5b505050506040513d601f19601f820116820180604052508101906136719190614551565b505050505050505050565b8573ffffffffffffffffffffffffffffffffffffffff1663095ea7b385856040518363ffffffff1660e01b81526004016136b792919061473f565b602060405180830381600087803b1580156136d157600080fd5b505af11580156136e5573d6000803e3d6000fd5b505050506040513d601f19601f82011682018060405250810190613709919061477d565b506000600267ffffffffffffffff81111561372757613726615516565b5b6040519080825280602002602001820160405280156137555781602001602082028036833780820191505090505b509050868160008151811061376d5761376c6157db565b5b602002602001019073ffffffffffffffffffffffffffffffffffffffff16908173ffffffffffffffffffffffffffffffffffffffff168152505085816001815181106137bc576137bb6157db565b5b602002602001019073ffffffffffffffffffffffffffffffffffffffff16908173ffffffffffffffffffffffffffffffffffffffff16815250508473ffffffffffffffffffffffffffffffffffffffff16638803dbee8585843087426138229190614dbb565b6040518663ffffffff1660e01b81526004016138429594939291906158c8565b600060405180830381600087803b15801561385c57600080fd5b505af1158015613870573d6000803e3d6000fd5b505050506040513d6000823e3d601f19601f820116820180604052508101906138999190615922565b5050505050505050565b6138ad82826124dc565b156139815760006005600084815260200190815260200160002060000160008373ffffffffffffffffffffffffffffffffffffffff1673ffffffffffffffffffffffffffffffffffffffff16815260200190815260200160002060006101000a81548160ff021916908315150217905550613926612ed4565b73ffffffffffffffffffffffffffffffffffffffff168173ffffffffffffffffffffffffffffffffffffffff16837ff6391f5c32d9c69d2a47ea670b442974b53935d1edc7fd64eb21e047a839171b60405160405180910390a45b5050565b60008183106139945781613996565b825b905092915050565b600073ffffffffffffffffffffffffffffffffffffffff168273ffffffffffffffffffffffffffffffffffffffff161415613a0e576040517f08c379a0000000000000000000000000000000000000000000000000000000008152600401613a05906159b7565b60405180910390fd5b613a1a60008383613cd5565b8060026000828254613a2c9190614dbb565b92505081905550806000808473ffffffffffffffffffffffffffffffffffffffff1673ffffffffffffffffffffffffffffffffffffffff1681526020019081526020016000206000828254613a819190614dbb565b925050819055508173ffffffffffffffffffffffffffffffffffffffff16600073ffffffffffffffffffffffffffffffffffffffff167fddf252ad1be2c89b69c2b068fc378daa952ba7f163c4a11628f55a4df523b3ef83604051613ae691906141b5565b60405180910390a3613afa60008383613cda565b5050565b600073ffffffffffffffffffffffffffffffffffffffff168273ffffffffffffffffffffffffffffffffffffffff161415613b6e576040517f08c379a0000000000000000000000000000000000000000000000000000000008152600401613b6590615a49565b60405180910390fd5b613b7a82600083613cd5565b60008060008473ffffffffffffffffffffffffffffffffffffffff1673ffffffffffffffffffffffffffffffffffffffff16815260200190815260200160002054905081811015613c00576040517f08c379a0000000000000000000000000000000000000000000000000000000008152600401613bf790615adb565b60405180910390fd5b8181036000808573ffffffffffffffffffffffffffffffffffffffff1673ffffffffffffffffffffffffffffffffffffffff168152602001908152602001600020819055508160026000828254613c579190614691565b92505081905550600073ffffffffffffffffffffffffffffffffffffffff168373ffffffffffffffffffffffffffffffffffffffff167fddf252ad1be2c89b69c2b068fc378daa952ba7f163c4a11628f55a4df523b3ef84604051613cbc91906141b5565b60405180910390a3613cd083600084613cda565b505050565b505050565b505050565b606060006002836002613cf29190615afb565b613cfc9190614dbb565b67ffffffffffffffff811115613d1557613d14615516565b5b6040519080825280601f01601f191660200182016040528015613d475781602001600182028036833780820191505090505b5090507f300000000000000000000000000000000000000000000000000000000000000081600081518110613d7f57613d7e6157db565b5b60200101907effffffffffffffffffffffffffffffffffffffffffffffffffffffffffffff1916908160001a9053507f780000000000000000000000000000000000000000000000000000000000000081600181518110613de357613de26157db565b5b60200101907effffffffffffffffffffffffffffffffffffffffffffffffffffffffffffff1916908160001a90535060006001846002613e239190615afb565b613e2d9190614dbb565b90505b6001811115613ecd577f3031323334353637383961626364656600000000000000000000000000000000600f861660108110613e6f57613e6e6157db565b5b1a60f81b828281518110613e8657613e856157db565b5b60200101907effffffffffffffffffffffffffffffffffffffffffffffffffffffffffffff1916908160001a905350600485901c945080613ec690615b55565b9050613e30565b5060008414613f11576040517f08c379a0000000000000000000000000000000000000000000000000000000008152600401613f0890615bcb565b60405180910390fd5b8091505092915050565b6000604051905090565b600080fd5b600080fd5b60007fffffffff0000000000000000000000000000000000000000000000000000000082169050919050565b613f6481613f2f565b8114613f6f57600080fd5b50565b600081359050613f8181613f5b565b92915050565b600060208284031215613f9d57613f9c613f25565b5b6000613fab84828501613f72565b91505092915050565b60008115159050919050565b613fc981613fb4565b82525050565b6000602082019050613fe46000830184613fc0565b92915050565b600081519050919050565b600082825260208201905092915050565b60005b83811015614024578082015181840152602081019050614009565b83811115614033576000848401525b50505050565b6000601f19601f8301169050919050565b600061405582613fea565b61405f8185613ff5565b935061406f818560208601614006565b61407881614039565b840191505092915050565b6000602082019050818103600083015261409d818461404a565b905092915050565b600073ffffffffffffffffffffffffffffffffffffffff82169050919050565b60006140d0826140a5565b9050919050565b6140e0816140c5565b81146140eb57600080fd5b50565b6000813590506140fd816140d7565b92915050565b60006020828403121561411957614118613f25565b5b6000614127848285016140ee565b91505092915050565b6000819050919050565b61414381614130565b811461414e57600080fd5b50565b6000813590506141608161413a565b92915050565b6000806040838503121561417d5761417c613f25565b5b600061418b858286016140ee565b925050602061419c85828601614151565b9150509250929050565b6141af81614130565b82525050565b60006020820190506141ca60008301846141a6565b92915050565b6000806000606084860312156141e9576141e8613f25565b5b60006141f7868287016140ee565b9350506020614208868287016140ee565b925050604061421986828701614151565b9150509250925092565b6000819050919050565b61423681614223565b811461424157600080fd5b50565b6000813590506142538161422d565b92915050565b60006020828403121561426f5761426e613f25565b5b600061427d84828501614244565b91505092915050565b61428f81614223565b82525050565b60006020820190506142aa6000830184614286565b92915050565b600080604083850312156142c7576142c6613f25565b5b60006142d585828601614244565b92505060206142e6858286016140ee565b9150509250929050565b600060ff82169050919050565b614306816142f0565b82525050565b600060208201905061432160008301846142fd565b92915050565b6000819050919050565b61433a81614327565b811461434557600080fd5b50565b60008135905061435781614331565b92915050565b61436681613fb4565b811461437157600080fd5b50565b6000813590506143838161435d565b92915050565b600080600080600060a086880312156143a5576143a4613f25565b5b60006143b388828901614348565b95505060206143c488828901614348565b94505060406143d5888289016140ee565b93505060606143e688828901614151565b92505060806143f788828901614374565b9150509295509295909350565b60006020828403121561441a57614419613f25565b5b600061442884828501614151565b91505092915050565b6000806040838503121561444857614447613f25565b5b600061445685828601614374565b925050602061446785828601614374565b9150509250929050565b61447a816140c5565b82525050565b60006020820190506144956000830184614471565b92915050565b600080604083850312156144b2576144b1613f25565b5b60006144c0858286016140ee565b92505060206144d1858286016140ee565b9150509250929050565b7f4e487b7100000000000000000000000000000000000000000000000000000000600052602260045260246000fd5b6000600282049050600182168061452257607f821691505b60208210811415614536576145356144db565b5b50919050565b60008151905061454b8161413a565b92915050565b60006020828403121561456757614566613f25565b5b60006145758482850161453c565b91505092915050565b6000806040838503121561459557614594613f25565b5b60006145a38582860161453c565b92505060206145b48582860161453c565b9150509250929050565b6145c7816140c5565b82525050565b60006040820190506145e260008301856145be565b6145ef60208301846145be565b9392505050565b7f42616c616e636520696e73756666696369656e742e0000000000000000000000600082015250565b600061462c601583613ff5565b9150614637826145f6565b602082019050919050565b6000602082019050818103600083015261465b8161461f565b9050919050565b7f4e487b7100000000000000000000000000000000000000000000000000000000600052601160045260246000fd5b600061469c82614130565b91506146a783614130565b9250828210156146ba576146b9614662565b5b828203905092915050565b6000815190506146d4816140d7565b92915050565b6000602082840312156146f0576146ef613f25565b5b60006146fe848285016146c5565b91505092915050565b61471081614130565b82525050565b600060408201905061472b6000830185614707565b61473860208301846145be565b9392505050565b60006040820190506147546000830185614471565b61476160208301846141a6565b9392505050565b6000815190506147778161435d565b92915050565b60006020828403121561479357614792613f25565b5b60006147a184828501614768565b91505092915050565b7f4661696c6564207061796d656e7420746f20686f6c6465720000000000000000600082015250565b60006147e0601883613ff5565b91506147eb826147aa565b602082019050919050565b6000602082019050818103600083015261480f816147d3565b9050919050565b7f4661696c6564207061796d656e7420746f206d61696e74656e616e6365000000600082015250565b600061484c601d83613ff5565b915061485782614816565b602082019050919050565b6000602082019050818103600083015261487b8161483f565b9050919050565b7f4661696c6564207061796d656e7420746f206578657263697365722e00000000600082015250565b60006148b8601c83613ff5565b91506148c382614882565b602082019050919050565b600060208201905081810360008301526148e7816148ab565b9050919050565b7f45524332303a207472616e7366657220616d6f756e742065786365656473206160008201527f6c6c6f77616e6365000000000000000000000000000000000000000000000000602082015250565b600061494a602883613ff5565b9150614955826148ee565b604082019050919050565b600060208201905081810360008301526149798161493d565b9050919050565b61498981614327565b82525050565b60006080820190506149a46000830187614980565b6149b16020830186614980565b6149be60408301856145be565b6149cb60608301846145be565b95945050505050565b600080600080608085870312156149ee576149ed613f25565b5b60006149fc8782880161453c565b9450506020614a0d8782880161453c565b9350506040614a1e878288016146c5565b9250506060614a2f878288016146c5565b91505092959194509250565b7f416363657373436f6e74726f6c3a2063616e206f6e6c792072656e6f756e636560008201527f20726f6c657320666f722073656c660000000000000000000000000000000000602082015250565b6000614a97602f83613ff5565b9150614aa282614a3b565b604082019050919050565b60006020820190508181036000830152614ac681614a8a565b9050919050565b600081519050614adc81614331565b92915050565b60008060008060808587031215614afc57614afb613f25565b5b6000614b0a87828801614acd565b9450506020614b1b87828801614acd565b9350506040614b2c878288016146c5565b9250506060614b3d878288016146c5565b91505092959194509250565b6000604082019050614b5e6000830185614980565b614b6b60208301846145be565b9392505050565b600060208284031215614b8857614b87613f25565b5b6000614b9684828501614acd565b91505092915050565b6000819050919050565b600061ffff82169050919050565b6000819050919050565b6000614bdc614bd7614bd284614b9f565b614bb7565b614ba9565b9050919050565b614bec81614bc1565b82525050565b6000608082019050614c076000830187614471565b614c1460208301866141a6565b614c216040830185614471565b614c2e6060830184614be3565b95945050505050565b600060a082019050614c4c6000830188614471565b614c5960208301876141a6565b614c6660408301866141a6565b614c736060830185614be3565b614c806080830184614471565b9695505050505050565b6000614c9582614327565b91507f8000000000000000000000000000000000000000000000000000000000000000821415614cc857614cc7614662565b5b816000039050919050565b7f6e6f7420656e6f75676820746f6b656e20746f207265706179206c6f616e7300600082015250565b6000614d09601f83613ff5565b9150614d1482614cd3565b602082019050919050565b60006020820190508181036000830152614d3881614cfc565b9050919050565b6000608082019050614d546000830187614471565b614d6160208301866141a6565b614d6e60408301856141a6565b614d7b6060830184614471565b95945050505050565b6000606082019050614d996000830186614471565b614da660208301856141a6565b614db36040830184614471565b949350505050565b6000614dc682614130565b9150614dd183614130565b9250827fffffffffffffffffffffffffffffffffffffffffffffffffffffffffffffffff03821115614e0657614e05614662565b5b828201905092915050565b60008060008060808587031215614e2b57614e2a613f25565b5b6000614e398782880161453c565b9450506020614e4a8782880161453c565b9350506040614e5b8782880161453c565b9250506060614e6c8782880161453c565b91505092959194509250565b7f4e65676174697665206571756974792e00000000000000000000000000000000600082015250565b6000614eae601083613ff5565b9150614eb982614e78565b602082019050919050565b60006020820190508181036000830152614edd81614ea1565b9050919050565b7f45524332303a2064656372656173656420616c6c6f77616e63652062656c6f7760008201527f207a65726f000000000000000000000000000000000000000000000000000000602082015250565b6000614f40602583613ff5565b9150614f4b82614ee4565b604082019050919050565b60006020820190508181036000830152614f6f81614f33565b9050919050565b6000606082019050614f8b6000830186614471565b614f986020830185614471565b614fa560408301846141a6565b949350505050565b6000606082019050614fc26000830186614471565b614fcf60208301856141a6565b614fdc60408301846141a6565b949350505050565b7f496e73756666696369656e742062616c616e6365000000000000000000000000600082015250565b600061501a601483613ff5565b915061502582614fe4565b602082019050919050565b600060208201905081810360008301526150498161500d565b9050919050565b7f45524332303a20617070726f76652066726f6d20746865207a65726f2061646460008201527f7265737300000000000000000000000000000000000000000000000000000000602082015250565b60006150ac602483613ff5565b91506150b782615050565b604082019050919050565b600060208201905081810360008301526150db8161509f565b9050919050565b7f45524332303a20617070726f766520746f20746865207a65726f20616464726560008201527f7373000000000000000000000000000000000000000000000000000000000000602082015250565b600061513e602283613ff5565b9150615149826150e2565b604082019050919050565b6000602082019050818103600083015261516d81615131565b9050919050565b7f45524332303a207472616e736665722066726f6d20746865207a65726f20616460008201527f6472657373000000000000000000000000000000000000000000000000000000602082015250565b60006151d0602583613ff5565b91506151db82615174565b604082019050919050565b600060208201905081810360008301526151ff816151c3565b9050919050565b7f45524332303a207472616e7366657220746f20746865207a65726f206164647260008201527f6573730000000000000000000000000000000000000000000000000000000000602082015250565b6000615262602383613ff5565b915061526d82615206565b604082019050919050565b6000602082019050818103600083015261529181615255565b9050919050565b7f45524332303a207472616e7366657220616d6f756e742065786365656473206260008201527f616c616e63650000000000000000000000000000000000000000000000000000602082015250565b60006152f4602683613ff5565b91506152ff82615298565b604082019050919050565b60006020820190508181036000830152615323816152e7565b9050919050565b600081905092915050565b7f416363657373436f6e74726f6c3a206163636f756e7420000000000000000000600082015250565b600061536b60178361532a565b915061537682615335565b601782019050919050565b600061538c82613fea565b615396818561532a565b93506153a6818560208601614006565b80840191505092915050565b7f206973206d697373696e6720726f6c6520000000000000000000000000000000600082015250565b60006153e860118361532a565b91506153f3826153b2565b601182019050919050565b60006154098261535e565b91506154158285615381565b9150615420826153db565b915061542c8284615381565b91508190509392505050565b600061545361544e615449846140a5565b614bb7565b6140a5565b9050919050565b600061546582615438565b9050919050565b60006154778261545a565b9050919050565b6154878161546c565b82525050565b60006154a86154a361549e84614b9f565b614bb7565b614130565b9050919050565b6154b88161548d565b82525050565b600060a0820190506154d3600083018861547e565b6154e0602083018761547e565b6154ed60408301866141a6565b6154fa60608301856141a6565b61550760808301846154af565b9695505050505050565b600080fd5b7f4e487b7100000000000000000000000000000000000000000000000000000000600052604160045260246000fd5b61554e82614039565b810181811067ffffffffffffffff8211171561556d5761556c615516565b5b80604052505050565b6000615580613f1b565b905061558c8282615545565b919050565b600067ffffffffffffffff8211156155ac576155ab615516565b5b602082029050602081019050919050565b600080fd5b60006155d56155d084615591565b615576565b905080838252602082019050602084028301858111156155f8576155f76155bd565b5b835b81811015615621578061560d888261453c565b8452602084019350506020810190506155fa565b5050509392505050565b600082601f8301126156405761563f615511565b5b81516156508482602086016155c2565b91505092915050565b600080604083850312156156705761566f613f25565b5b600061567e8582860161453c565b925050602083015167ffffffffffffffff81111561569f5761569e613f2a565b5b6156ab8582860161562b565b9150509250929050565b600081519050919050565b600082825260208201905092915050565b6000819050602082019050919050565b6156ea81614130565b82525050565b60006156fc83836156e1565b60208301905092915050565b6000602082019050919050565b6000615720826156b5565b61572a81856156c0565b9350615735836156d1565b8060005b8381101561576657815161574d88826156f0565b975061575883615708565b925050600181019050615739565b5085935050505092915050565b600060c082019050615788600083018961547e565b615795602083018861547e565b6157a260408301876141a6565b6157af60608301866141a6565b81810360808301526157c18185615715565b90506157d060a08301846154af565b979650505050505050565b7f4e487b7100000000000000000000000000000000000000000000000000000000600052603260045260246000fd5b600081519050919050565b600082825260208201905092915050565b6000819050602082019050919050565b61583f816140c5565b82525050565b60006158518383615836565b60208301905092915050565b6000602082019050919050565b60006158758261580a565b61587f8185615815565b935061588a83615826565b8060005b838110156158bb5781516158a28882615845565b97506158ad8361585d565b92505060018101905061588e565b5085935050505092915050565b600060a0820190506158dd60008301886141a6565b6158ea60208301876141a6565b81810360408301526158fc818661586a565b905061590b6060830185614471565b61591860808301846141a6565b9695505050505050565b60006020828403121561593857615937613f25565b5b600082015167ffffffffffffffff81111561595657615955613f2a565b5b6159628482850161562b565b91505092915050565b7f45524332303a206d696e7420746f20746865207a65726f206164647265737300600082015250565b60006159a1601f83613ff5565b91506159ac8261596b565b602082019050919050565b600060208201905081810360008301526159d081615994565b9050919050565b7f45524332303a206275726e2066726f6d20746865207a65726f2061646472657360008201527f7300000000000000000000000000000000000000000000000000000000000000602082015250565b6000615a33602183613ff5565b9150615a3e826159d7565b604082019050919050565b60006020820190508181036000830152615a6281615a26565b9050919050565b7f45524332303a206275726e20616d6f756e7420657863656564732062616c616e60008201527f6365000000000000000000000000000000000000000000000000000000000000602082015250565b6000615ac5602283613ff5565b9150615ad082615a69565b604082019050919050565b60006020820190508181036000830152615af481615ab8565b9050919050565b6000615b0682614130565b9150615b1183614130565b9250817fffffffffffffffffffffffffffffffffffffffffffffffffffffffffffffffff0483118215151615615b4a57615b49614662565b5b828202905092915050565b6000615b6082614130565b91506000821415615b7457615b73614662565b5b600182039050919050565b7f537472696e67733a20686578206c656e67746820696e73756666696369656e74600082015250565b6000615bb5602083613ff5565b9150615bc082615b7f565b602082019050919050565b60006020820190508181036000830152615be481615ba8565b905091905056fea26469706673582212201b357879dfb8e70f40226b3701195747e100cfc77318b404322cdfdd48627c1c64736f6c63430008090033",
  "immutableReferences": {},
  "source": "// SPDX-License-Identifier: MIT\npragma solidity 0.8.9;\n\nimport \"@openzeppelin/contracts/access/AccessControl.sol\";\nimport \"@openzeppelin/contracts/utils/structs/EnumerableSet.sol\";\nimport \"./MarketLibrary.sol\";\nimport \"./OptionVault.sol\";\n\ncontract MoretMarketMaker is ERC20, AccessControl, EOption\n{\n  bytes32 public constant ADMIN_ROLE = keccak256(\"ADMIN_ROLE\");\n  bytes32 public constant EXCHANGE_ROLE = keccak256(\"EXCHANGE_ROLE\");\n  bytes32 public constant MINER_ROLE = keccak256(\"MINER_ROLE\");\n\n  uint256 private multiplier;\n  uint256 public settlementFee= 5 * (10 ** 15);\n  uint256 public exerciseFee= 5 * (10 ** 15);\n  OptionVault internal optionVault;\n\n  address internal underlying;\n  address internal funding;\n  address public maintenanceAddress;\n  uint256 public lendingPoolRateMode = 2;\n  uint256 public swapSlippage = 5 * (10 ** 15);\n  \n  constructor(string memory _name, string memory _symbol, address _optionAddress) ERC20(_name, _symbol){\n    _setupRole(DEFAULT_ADMIN_ROLE, msg.sender);\n    _setupRole(ADMIN_ROLE, msg.sender);\n    _setupRole(EXCHANGE_ROLE, msg.sender);\n    _setupRole(MINER_ROLE, msg.sender);\n    maintenanceAddress = msg.sender;\n    optionVault = OptionVault(_optionAddress);\n    multiplier = OptionLibrary.Multiplier();\n    underlying = optionVault.underlying();\n    funding = optionVault.funding();\n    _mint(msg.sender, multiplier);}\n\n  function expireOptions(address exerciseFeeRecipient) external {\n    uint256 _expiringId = optionVault.getExpiringOptionId();\n    while(_expiringId >0) {\n      optionVault.stampExpiredOption(_expiringId);\n      \n      ( uint256 _payoff, uint256 _payback) = optionVault.getContractPayoff(_expiringId);\n      require(_payback < MarketLibrary.balanceDef(funding, address(this)), \"Balance insufficient.\");\n      if(_payback > 0){\n        uint256 _holderPayment = _payoff == _payback? MulDiv(_payback, multiplier - settlementFee - exerciseFee, multiplier): _payback;\n        uint256 _settleFeeAmount = MulDiv(_payoff, settlementFee, multiplier);\n        uint256 _exerciseFeeAmount = MulDiv(_payoff, exerciseFee, multiplier);\n\n        require(IERC20(funding).transfer(optionVault.getOptionHolder(_expiringId), MarketLibrary.cvtDecimals(_holderPayment, funding)), \"Failed payment to holder\");\n        require(IERC20(funding).transfer(maintenanceAddress, MarketLibrary.cvtDecimals(_settleFeeAmount, funding)), \"Failed payment to maintenance\");\n        require(IERC20(funding).transfer(exerciseFeeRecipient, MarketLibrary.cvtDecimals(_exerciseFeeAmount, funding)), \"Failed payment to exerciser.\");}\n      \n      _expiringId = optionVault.getExpiringOptionId();}}\n\n  function calcCapital(bool _net, bool _average) public view returns(uint256 _capital){\n      (uint256 _price, ) = optionVault.queryPrice();\n      (uint256 _underlying_balance, uint256 _funding_balance, uint256 _collateral_balance, uint256 _debt_balance) = optionVault.getBalances(address(this));\n      _capital = _funding_balance + _collateral_balance + MulDiv(_underlying_balance, _price, multiplier);\n      require(_capital > MulDiv(_debt_balance, _price, multiplier), \"Negative equity.\");\n      _capital -= MulDiv(_debt_balance, _price, multiplier);\n\n      if(_net){ _capital -= Math.min(MulDiv(optionVault.getAggregateNotional(false), _price, multiplier), _capital);}\n      if(_average){ \n        if(totalSupply() > 0) _capital = MulDiv(_capital , multiplier , totalSupply()); \n        if(totalSupply() == 0 && _capital == 0) _capital = multiplier;}}\n    \n  function addCapital(uint256 _depositAmount) external {\n      uint256 _mintMPTokenAmount = MulDiv(MarketLibrary.cvtDef(_depositAmount, funding), multiplier, calcCapital(false, true));\n      require(ERC20(funding).transferFrom(msg.sender, address(this), _depositAmount));\n      _mint(msg.sender, _mintMPTokenAmount);\n      emit capitalAdded(msg.sender, _depositAmount, _mintMPTokenAmount);}\n\n  function withdrawCapital(uint256 _burnMPTokenAmount) external {\n      uint256 _withdrawValue = MarketLibrary.cvtDecimals(MulDiv(calcCapital(true, true),  _burnMPTokenAmount , multiplier), funding); \n      require(IERC20(funding).balanceOf(address(this)) > _withdrawValue,\"Insufficient balance\");\n      _burn(msg.sender, _burnMPTokenAmount);\n      require(ERC20(funding).transfer(msg.sender, _withdrawValue));\n      emit capitalWithdrawn(msg.sender, _burnMPTokenAmount, _withdrawValue);}\n  \n  function approveSpending(address _tokenAddress, address _spenderAddress, uint256 _amount) external onlyRole(MINER_ROLE){\n    ERC20(_tokenAddress).approve(_spenderAddress, _amount);}\n\n  function tradesSwaps(int256 _underlyingAmt, int256 _fundingAmt, address _router, uint256 _parameter, bool _useAggregator) external onlyRole(MINER_ROLE) {\n    (uint256 _fromAmt, uint256 _toAmt, address _fromAddress, address _toAddress) = MarketLibrary.cleanTradeAmounts(_underlyingAmt, _fundingAmt, optionVault.underlying(), optionVault.funding());\n    if(_useAggregator) swapByAggregator(_fromAddress, _toAddress, _router, _fromAmt, _toAmt, _parameter);\n    if(!_useAggregator) swapByRouter(_fromAddress, _toAddress, _router, _fromAmt, _toAmt, _parameter);}\n  \n  function swapByRouter(address _fromAddress, address _toAddress, address _router, uint256 _fromAmt, uint256 _toAmt, uint256 _deadline) internal {\n    ERC20(_fromAddress).approve(_router, _fromAmt);\n    address[] memory _path = new address[](2);\n    _path[0]=_fromAddress;\n    _path[1] = _toAddress;\n    IUniswapV2Router02(_router).swapTokensForExactTokens(_fromAmt, _toAmt, _path, address(this), block.timestamp + _deadline );}\n\n  function swapByAggregator(address _fromAddress, address _toAddress, address _aggregator, uint256 _fromAmt, uint256 _toAmt, uint256 _parts) internal {\n    ERC20(_fromAddress).approve(_aggregator, _fromAmt);\n    (uint256 returnAmount, uint256[] memory distribution) =  I1InchProtocol(_aggregator).getExpectedReturn( IERC20(_fromAddress), IERC20(_toAddress), _fromAmt, _parts, 0);\n    I1InchProtocol(_aggregator).swap(IERC20(_fromAddress), IERC20(_toAddress), _fromAmt, Math.min(returnAmount, _toAmt), distribution, 0);}\n\n  function hedgeTradesForLoans() external onlyRole(MINER_ROLE) {\n    (int256 _loanTradeAmount, int256 _collateralChange, address _loanAddress, address _collateralAddress) = optionVault.calcHedgeTradesForLoans(address(this), lendingPoolRateMode);\n    _loanTradeAmount = MarketLibrary.cvtDecimalsInt(_loanTradeAmount, _loanAddress);\n    _collateralChange = MarketLibrary.cvtDecimalsInt(_collateralChange, _collateralAddress);\n    address _lendingPoolAddress = ILendingPoolAddressesProvider(optionVault.aaveAddress()).getLendingPool();\n\n    if(_collateralChange > 0){\n      ERC20(funding).increaseAllowance(_lendingPoolAddress, uint256(_collateralChange));\n      ILendingPool(_lendingPoolAddress).deposit(funding, uint256(_collateralChange), address(this), 0);}\n    \n    if(_loanTradeAmount > 0){\n      ILendingPool(_lendingPoolAddress).borrow(underlying, uint256(_loanTradeAmount), lendingPoolRateMode,  0, address(this));}\n\n    if(_loanTradeAmount < 0){\n      require(ERC20(underlying).balanceOf(address(this))>= uint256(-_loanTradeAmount), \"not enough token to repay loans\");\n      ERC20(_loanAddress).approve(_lendingPoolAddress, uint256(-_loanTradeAmount));\n      ERC20(underlying).approve(_lendingPoolAddress, uint256(-_loanTradeAmount));\n      ILendingPool(_lendingPoolAddress).repay(underlying, uint256(-_loanTradeAmount), lendingPoolRateMode, address(this));}\n\n    if(_collateralChange < 0){\n      ERC20(_collateralAddress).increaseAllowance(_lendingPoolAddress, uint256(-_collateralChange));\n      ILendingPool(_lendingPoolAddress).withdraw(funding, uint256(-_collateralChange), address(this));}}\n\n  function resetSettlementFee(uint256 _newFee) external onlyRole(ADMIN_ROLE){ require(_newFee < multiplier); settlementFee = _newFee;}\n  function resetExerciseFee(uint256 _newFee) external onlyRole(ADMIN_ROLE){ require(_newFee < multiplier); exerciseFee = _newFee;}\n  function resetMaintenance(address _newAddress) external onlyRole(ADMIN_ROLE){ maintenanceAddress = _newAddress;}\n  function resetSlippage(uint256 _slippage) external onlyRole(ADMIN_ROLE){ swapSlippage = _slippage;}\n  // function resetLendingPoolRateMode(uint256 _newRateMode) external onlyRole(ADMIN_ROLE) {\n  //   require(_newRateMode == 1 || _newRateMode == 2);\n  //   lendingPoolRateMode = _newRateMode;}\n}\n",
  "sourcePath": "/Users/apple/Documents/GitHub/moret/contracts/MoretMarketMaker.sol",
  "compiler": {
    "name": "solc",
    "version": "0.8.9+commit.e5eed63a.Emscripten.clang"
  },
  "schemaVersion": "3.4.3",
  "updatedAt": "2021-11-22T21:51:21.939Z",
  "devdoc": {
    "kind": "dev",
    "methods": {
      "allowance(address,address)": {
        "details": "See {IERC20-allowance}."
      },
      "approve(address,uint256)": {
        "details": "See {IERC20-approve}. Requirements: - `spender` cannot be the zero address."
      },
      "balanceOf(address)": {
        "details": "See {IERC20-balanceOf}."
      },
      "decimals()": {
        "details": "Returns the number of decimals used to get its user representation. For example, if `decimals` equals `2`, a balance of `505` tokens should be displayed to a user as `5.05` (`505 / 10 ** 2`). Tokens usually opt for a value of 18, imitating the relationship between Ether and Wei. This is the value {ERC20} uses, unless this function is overridden; NOTE: This information is only used for _display_ purposes: it in no way affects any of the arithmetic of the contract, including {IERC20-balanceOf} and {IERC20-transfer}."
      },
      "decreaseAllowance(address,uint256)": {
        "details": "Atomically decreases the allowance granted to `spender` by the caller. This is an alternative to {approve} that can be used as a mitigation for problems described in {IERC20-approve}. Emits an {Approval} event indicating the updated allowance. Requirements: - `spender` cannot be the zero address. - `spender` must have allowance for the caller of at least `subtractedValue`."
      },
      "getRoleAdmin(bytes32)": {
        "details": "Returns the admin role that controls `role`. See {grantRole} and {revokeRole}. To change a role's admin, use {_setRoleAdmin}."
      },
      "grantRole(bytes32,address)": {
        "details": "Grants `role` to `account`. If `account` had not been already granted `role`, emits a {RoleGranted} event. Requirements: - the caller must have ``role``'s admin role."
      },
      "hasRole(bytes32,address)": {
        "details": "Returns `true` if `account` has been granted `role`."
      },
      "increaseAllowance(address,uint256)": {
        "details": "Atomically increases the allowance granted to `spender` by the caller. This is an alternative to {approve} that can be used as a mitigation for problems described in {IERC20-approve}. Emits an {Approval} event indicating the updated allowance. Requirements: - `spender` cannot be the zero address."
      },
      "name()": {
        "details": "Returns the name of the token."
      },
      "renounceRole(bytes32,address)": {
        "details": "Revokes `role` from the calling account. Roles are often managed via {grantRole} and {revokeRole}: this function's purpose is to provide a mechanism for accounts to lose their privileges if they are compromised (such as when a trusted device is misplaced). If the calling account had been granted `role`, emits a {RoleRevoked} event. Requirements: - the caller must be `account`."
      },
      "revokeRole(bytes32,address)": {
        "details": "Revokes `role` from `account`. If `account` had been granted `role`, emits a {RoleRevoked} event. Requirements: - the caller must have ``role``'s admin role."
      },
      "supportsInterface(bytes4)": {
        "details": "See {IERC165-supportsInterface}."
      },
      "symbol()": {
        "details": "Returns the symbol of the token, usually a shorter version of the name."
      },
      "totalSupply()": {
        "details": "See {IERC20-totalSupply}."
      },
      "transfer(address,uint256)": {
        "details": "See {IERC20-transfer}. Requirements: - `recipient` cannot be the zero address. - the caller must have a balance of at least `amount`."
      },
      "transferFrom(address,address,uint256)": {
        "details": "See {IERC20-transferFrom}. Emits an {Approval} event indicating the updated allowance. This is not required by the EIP. See the note at the beginning of {ERC20}. Requirements: - `sender` and `recipient` cannot be the zero address. - `sender` must have a balance of at least `amount`. - the caller must have allowance for ``sender``'s tokens of at least `amount`."
      }
    },
    "version": 1
  },
  "userdoc": {
    "kind": "user",
    "methods": {},
    "version": 1
  }
}