{
  "contractName": "Moret",
  "abi": [
    {
      "inputs": [
        {
          "internalType": "contract MoretBroker",
          "name": "_broker",
          "type": "address"
        }
      ],
      "stateMutability": "nonpayable",
      "type": "constructor"
    },
    {
      "anonymous": false,
      "inputs": [
        {
          "indexed": true,
          "internalType": "address",
          "name": "owner",
          "type": "address"
        },
        {
          "indexed": true,
          "internalType": "address",
          "name": "spender",
          "type": "address"
        },
        {
          "indexed": false,
          "internalType": "uint256",
          "name": "value",
          "type": "uint256"
        }
      ],
      "name": "Approval",
      "type": "event"
    },
    {
      "anonymous": false,
      "inputs": [
        {
          "indexed": true,
          "internalType": "address",
          "name": "delegator",
          "type": "address"
        },
        {
          "indexed": true,
          "internalType": "address",
          "name": "fromDelegate",
          "type": "address"
        },
        {
          "indexed": true,
          "internalType": "address",
          "name": "toDelegate",
          "type": "address"
        }
      ],
      "name": "DelegateChanged",
      "type": "event"
    },
    {
      "anonymous": false,
      "inputs": [
        {
          "indexed": true,
          "internalType": "address",
          "name": "delegate",
          "type": "address"
        },
        {
          "indexed": false,
          "internalType": "uint256",
          "name": "previousBalance",
          "type": "uint256"
        },
        {
          "indexed": false,
          "internalType": "uint256",
          "name": "newBalance",
          "type": "uint256"
        }
      ],
      "name": "DelegateVotesChanged",
      "type": "event"
    },
    {
      "anonymous": false,
      "inputs": [
        {
          "indexed": false,
          "internalType": "address",
          "name": "_pool",
          "type": "address"
        },
        {
          "indexed": false,
          "internalType": "address",
          "name": "_sender",
          "type": "address"
        },
        {
          "indexed": false,
          "internalType": "uint256",
          "name": "_amount",
          "type": "uint256"
        },
        {
          "indexed": false,
          "internalType": "uint256",
          "name": "_moretAmount",
          "type": "uint256"
        }
      ],
      "name": "ExchangePoolTokens",
      "type": "event"
    },
    {
      "anonymous": false,
      "inputs": [
        {
          "indexed": true,
          "internalType": "address",
          "name": "previousOwner",
          "type": "address"
        },
        {
          "indexed": true,
          "internalType": "address",
          "name": "newOwner",
          "type": "address"
        }
      ],
      "name": "OwnershipTransferred",
      "type": "event"
    },
    {
      "anonymous": false,
      "inputs": [
        {
          "indexed": true,
          "internalType": "address",
          "name": "from",
          "type": "address"
        },
        {
          "indexed": true,
          "internalType": "address",
          "name": "to",
          "type": "address"
        },
        {
          "indexed": false,
          "internalType": "uint256",
          "name": "value",
          "type": "uint256"
        }
      ],
      "name": "Transfer",
      "type": "event"
    },
    {
      "anonymous": false,
      "inputs": [
        {
          "indexed": false,
          "internalType": "uint256",
          "name": "_fee",
          "type": "uint256"
        }
      ],
      "name": "UpdateProtocolFees",
      "type": "event"
    },
    {
      "anonymous": false,
      "inputs": [
        {
          "indexed": false,
          "internalType": "address",
          "name": "_route",
          "type": "address"
        },
        {
          "indexed": false,
          "internalType": "bool",
          "name": "_addition",
          "type": "bool"
        }
      ],
      "name": "UpdateRoute",
      "type": "event"
    },
    {
      "anonymous": false,
      "inputs": [
        {
          "indexed": false,
          "internalType": "address",
          "name": "_pool",
          "type": "address"
        },
        {
          "indexed": false,
          "internalType": "uint256",
          "name": "_amount",
          "type": "uint256"
        }
      ],
      "name": "WithdrawPoolTokens",
      "type": "event"
    },
    {
      "inputs": [],
      "name": "DOMAIN_SEPARATOR",
      "outputs": [
        {
          "internalType": "bytes32",
          "name": "",
          "type": "bytes32"
        }
      ],
      "stateMutability": "view",
      "type": "function"
    },
    {
      "inputs": [
        {
          "internalType": "address",
          "name": "owner",
          "type": "address"
        },
        {
          "internalType": "address",
          "name": "spender",
          "type": "address"
        }
      ],
      "name": "allowance",
      "outputs": [
        {
          "internalType": "uint256",
          "name": "",
          "type": "uint256"
        }
      ],
      "stateMutability": "view",
      "type": "function"
    },
    {
      "inputs": [
        {
          "internalType": "address",
          "name": "spender",
          "type": "address"
        },
        {
          "internalType": "uint256",
          "name": "amount",
          "type": "uint256"
        }
      ],
      "name": "approve",
      "outputs": [
        {
          "internalType": "bool",
          "name": "",
          "type": "bool"
        }
      ],
      "stateMutability": "nonpayable",
      "type": "function"
    },
    {
      "inputs": [
        {
          "internalType": "address",
          "name": "account",
          "type": "address"
        }
      ],
      "name": "balanceOf",
      "outputs": [
        {
          "internalType": "uint256",
          "name": "",
          "type": "uint256"
        }
      ],
      "stateMutability": "view",
      "type": "function"
    },
    {
      "inputs": [],
      "name": "broker",
      "outputs": [
        {
          "internalType": "contract MoretBroker",
          "name": "",
          "type": "address"
        }
      ],
      "stateMutability": "view",
      "type": "function"
    },
    {
      "inputs": [
        {
          "internalType": "address",
          "name": "account",
          "type": "address"
        },
        {
          "internalType": "uint32",
          "name": "pos",
          "type": "uint32"
        }
      ],
      "name": "checkpoints",
      "outputs": [
        {
          "components": [
            {
              "internalType": "uint32",
              "name": "fromBlock",
              "type": "uint32"
            },
            {
              "internalType": "uint224",
              "name": "votes",
              "type": "uint224"
            }
          ],
          "internalType": "struct ERC20Votes.Checkpoint",
          "name": "",
          "type": "tuple"
        }
      ],
      "stateMutability": "view",
      "type": "function"
    },
    {
      "inputs": [],
      "name": "decimals",
      "outputs": [
        {
          "internalType": "uint8",
          "name": "",
          "type": "uint8"
        }
      ],
      "stateMutability": "view",
      "type": "function"
    },
    {
      "inputs": [
        {
          "internalType": "address",
          "name": "spender",
          "type": "address"
        },
        {
          "internalType": "uint256",
          "name": "subtractedValue",
          "type": "uint256"
        }
      ],
      "name": "decreaseAllowance",
      "outputs": [
        {
          "internalType": "bool",
          "name": "",
          "type": "bool"
        }
      ],
      "stateMutability": "nonpayable",
      "type": "function"
    },
    {
      "inputs": [
        {
          "internalType": "address",
          "name": "delegatee",
          "type": "address"
        }
      ],
      "name": "delegate",
      "outputs": [],
      "stateMutability": "nonpayable",
      "type": "function"
    },
    {
      "inputs": [
        {
          "internalType": "address",
          "name": "delegatee",
          "type": "address"
        },
        {
          "internalType": "uint256",
          "name": "nonce",
          "type": "uint256"
        },
        {
          "internalType": "uint256",
          "name": "expiry",
          "type": "uint256"
        },
        {
          "internalType": "uint8",
          "name": "v",
          "type": "uint8"
        },
        {
          "internalType": "bytes32",
          "name": "r",
          "type": "bytes32"
        },
        {
          "internalType": "bytes32",
          "name": "s",
          "type": "bytes32"
        }
      ],
      "name": "delegateBySig",
      "outputs": [],
      "stateMutability": "nonpayable",
      "type": "function"
    },
    {
      "inputs": [
        {
          "internalType": "address",
          "name": "account",
          "type": "address"
        }
      ],
      "name": "delegates",
      "outputs": [
        {
          "internalType": "address",
          "name": "",
          "type": "address"
        }
      ],
      "stateMutability": "view",
      "type": "function"
    },
    {
      "inputs": [],
      "name": "funding",
      "outputs": [
        {
          "internalType": "contract ERC20",
          "name": "",
          "type": "address"
        }
      ],
      "stateMutability": "view",
      "type": "function"
    },
    {
      "inputs": [
        {
          "internalType": "uint256",
          "name": "blockNumber",
          "type": "uint256"
        }
      ],
      "name": "getPastTotalSupply",
      "outputs": [
        {
          "internalType": "uint256",
          "name": "",
          "type": "uint256"
        }
      ],
      "stateMutability": "view",
      "type": "function"
    },
    {
      "inputs": [
        {
          "internalType": "address",
          "name": "account",
          "type": "address"
        },
        {
          "internalType": "uint256",
          "name": "blockNumber",
          "type": "uint256"
        }
      ],
      "name": "getPastVotes",
      "outputs": [
        {
          "internalType": "uint256",
          "name": "",
          "type": "uint256"
        }
      ],
      "stateMutability": "view",
      "type": "function"
    },
    {
      "inputs": [
        {
          "internalType": "address",
          "name": "account",
          "type": "address"
        }
      ],
      "name": "getVotes",
      "outputs": [
        {
          "internalType": "uint256",
          "name": "",
          "type": "uint256"
        }
      ],
      "stateMutability": "view",
      "type": "function"
    },
    {
      "inputs": [
        {
          "internalType": "address",
          "name": "spender",
          "type": "address"
        },
        {
          "internalType": "uint256",
          "name": "addedValue",
          "type": "uint256"
        }
      ],
      "name": "increaseAllowance",
      "outputs": [
        {
          "internalType": "bool",
          "name": "",
          "type": "bool"
        }
      ],
      "stateMutability": "nonpayable",
      "type": "function"
    },
    {
      "inputs": [],
      "name": "name",
      "outputs": [
        {
          "internalType": "string",
          "name": "",
          "type": "string"
        }
      ],
      "stateMutability": "view",
      "type": "function"
    },
    {
      "inputs": [
        {
          "internalType": "address",
          "name": "owner",
          "type": "address"
        }
      ],
      "name": "nonces",
      "outputs": [
        {
          "internalType": "uint256",
          "name": "",
          "type": "uint256"
        }
      ],
      "stateMutability": "view",
      "type": "function"
    },
    {
      "inputs": [
        {
          "internalType": "address",
          "name": "account",
          "type": "address"
        }
      ],
      "name": "numCheckpoints",
      "outputs": [
        {
          "internalType": "uint32",
          "name": "",
          "type": "uint32"
        }
      ],
      "stateMutability": "view",
      "type": "function"
    },
    {
      "inputs": [],
      "name": "owner",
      "outputs": [
        {
          "internalType": "address",
          "name": "",
          "type": "address"
        }
      ],
      "stateMutability": "view",
      "type": "function"
    },
    {
      "inputs": [
        {
          "internalType": "address",
          "name": "owner",
          "type": "address"
        },
        {
          "internalType": "address",
          "name": "spender",
          "type": "address"
        },
        {
          "internalType": "uint256",
          "name": "value",
          "type": "uint256"
        },
        {
          "internalType": "uint256",
          "name": "deadline",
          "type": "uint256"
        },
        {
          "internalType": "uint8",
          "name": "v",
          "type": "uint8"
        },
        {
          "internalType": "bytes32",
          "name": "r",
          "type": "bytes32"
        },
        {
          "internalType": "bytes32",
          "name": "s",
          "type": "bytes32"
        }
      ],
      "name": "permit",
      "outputs": [],
      "stateMutability": "nonpayable",
      "type": "function"
    },
    {
      "inputs": [],
      "name": "protocolFee",
      "outputs": [
        {
          "internalType": "uint256",
          "name": "",
          "type": "uint256"
        }
      ],
      "stateMutability": "view",
      "type": "function"
    },
    {
      "inputs": [],
      "name": "protocolFeeRecipient",
      "outputs": [
        {
          "internalType": "address",
          "name": "",
          "type": "address"
        }
      ],
      "stateMutability": "view",
      "type": "function"
    },
    {
      "inputs": [],
      "name": "renounceOwnership",
      "outputs": [],
      "stateMutability": "nonpayable",
      "type": "function"
    },
    {
      "inputs": [],
      "name": "symbol",
      "outputs": [
        {
          "internalType": "string",
          "name": "",
          "type": "string"
        }
      ],
      "stateMutability": "view",
      "type": "function"
    },
    {
      "inputs": [],
      "name": "totalSupply",
      "outputs": [
        {
          "internalType": "uint256",
          "name": "",
          "type": "uint256"
        }
      ],
      "stateMutability": "view",
      "type": "function"
    },
    {
      "inputs": [
        {
          "internalType": "address",
          "name": "to",
          "type": "address"
        },
        {
          "internalType": "uint256",
          "name": "amount",
          "type": "uint256"
        }
      ],
      "name": "transfer",
      "outputs": [
        {
          "internalType": "bool",
          "name": "",
          "type": "bool"
        }
      ],
      "stateMutability": "nonpayable",
      "type": "function"
    },
    {
      "inputs": [
        {
          "internalType": "address",
          "name": "from",
          "type": "address"
        },
        {
          "internalType": "address",
          "name": "to",
          "type": "address"
        },
        {
          "internalType": "uint256",
          "name": "amount",
          "type": "uint256"
        }
      ],
      "name": "transferFrom",
      "outputs": [
        {
          "internalType": "bool",
          "name": "",
          "type": "bool"
        }
      ],
      "stateMutability": "nonpayable",
      "type": "function"
    },
    {
      "inputs": [
        {
          "internalType": "address",
          "name": "newOwner",
          "type": "address"
        }
      ],
      "name": "transferOwnership",
      "outputs": [],
      "stateMutability": "nonpayable",
      "type": "function"
    },
    {
      "inputs": [
        {
          "internalType": "address",
          "name": "_to",
          "type": "address"
        },
        {
          "internalType": "uint256",
          "name": "_amount",
          "type": "uint256"
        }
      ],
      "name": "mint",
      "outputs": [],
      "stateMutability": "nonpayable",
      "type": "function"
    },
    {
      "inputs": [
        {
          "internalType": "uint256",
          "name": "_amount",
          "type": "uint256"
        }
      ],
      "name": "divest",
      "outputs": [],
      "stateMutability": "nonpayable",
      "type": "function"
    },
    {
      "inputs": [
        {
          "internalType": "contract Pool",
          "name": "_pool",
          "type": "address"
        },
        {
          "internalType": "uint256",
          "name": "_amount",
          "type": "uint256"
        }
      ],
      "name": "withdrawPool",
      "outputs": [],
      "stateMutability": "nonpayable",
      "type": "function"
    },
    {
      "inputs": [
        {
          "internalType": "uint256",
          "name": "_newFee",
          "type": "uint256"
        }
      ],
      "name": "setProtocolFee",
      "outputs": [],
      "stateMutability": "nonpayable",
      "type": "function"
    },
    {
      "inputs": [
        {
          "internalType": "address",
          "name": "_newAddress",
          "type": "address"
        }
      ],
      "name": "setProtocolRecipient",
      "outputs": [],
      "stateMutability": "nonpayable",
      "type": "function"
    },
    {
      "inputs": [
        {
          "internalType": "address",
          "name": "_underlyingAddress",
          "type": "address"
        },
        {
          "internalType": "contract VolatilityChain",
          "name": "_newOracle",
          "type": "address"
        }
      ],
      "name": "updateVolChain",
      "outputs": [],
      "stateMutability": "nonpayable",
      "type": "function"
    },
    {
      "inputs": [
        {
          "internalType": "address",
          "name": "_underlyingAddress",
          "type": "address"
        }
      ],
      "name": "getVolatilityChain",
      "outputs": [
        {
          "internalType": "contract VolatilityChain",
          "name": "",
          "type": "address"
        }
      ],
      "stateMutability": "view",
      "type": "function"
    },
    {
      "inputs": [
        {
          "internalType": "address",
          "name": "_underlyingAddress",
          "type": "address"
        },
        {
          "internalType": "uint256",
          "name": "_tenor",
          "type": "uint256"
        },
        {
          "internalType": "contract VolatilityToken",
          "name": "_volToken",
          "type": "address"
        }
      ],
      "name": "updateVolToken",
      "outputs": [],
      "stateMutability": "nonpayable",
      "type": "function"
    },
    {
      "inputs": [
        {
          "internalType": "address",
          "name": "_underlyingAddress",
          "type": "address"
        },
        {
          "internalType": "uint256",
          "name": "_tenor",
          "type": "uint256"
        }
      ],
      "name": "getVolatilityToken",
      "outputs": [
        {
          "internalType": "contract VolatilityToken",
          "name": "",
          "type": "address"
        }
      ],
      "stateMutability": "view",
      "type": "function"
    },
    {
      "inputs": [
        {
          "internalType": "address",
          "name": "_route",
          "type": "address"
        },
        {
          "internalType": "bool",
          "name": "_add",
          "type": "bool"
        }
      ],
      "name": "updateEligibleRoute",
      "outputs": [
        {
          "internalType": "bool",
          "name": "",
          "type": "bool"
        }
      ],
      "stateMutability": "nonpayable",
      "type": "function"
    },
    {
      "inputs": [
        {
          "internalType": "address",
          "name": "_route",
          "type": "address"
        }
      ],
      "name": "existEligibleRoute",
      "outputs": [
        {
          "internalType": "bool",
          "name": "",
          "type": "bool"
        }
      ],
      "stateMutability": "view",
      "type": "function"
    },
    {
      "inputs": [
        {
          "internalType": "address",
          "name": "_poolAddress",
          "type": "address"
        },
        {
          "internalType": "bool",
          "name": "_add",
          "type": "bool"
        }
      ],
      "name": "updateVolTradingPool",
      "outputs": [
        {
          "internalType": "bool",
          "name": "",
          "type": "bool"
        }
      ],
      "stateMutability": "nonpayable",
      "type": "function"
    },
    {
      "inputs": [
        {
          "internalType": "address",
          "name": "_poolAddress",
          "type": "address"
        }
      ],
      "name": "existVolTradingPool",
      "outputs": [
        {
          "internalType": "bool",
          "name": "",
          "type": "bool"
        }
      ],
      "stateMutability": "view",
      "type": "function"
    }
  ],
  "bytecode": "0x6101606040527f6e71edae12b1b97f4d1f60370fef10105fa2faae0126114a169c64845d6126c9610140908152506611c37937e080006010553480156200004557600080fd5b5060405162006fc338038062006fc383398181016040528101906200006b919062000f01565b6040518060400160405280600581526020017f4d6f726574000000000000000000000000000000000000000000000000000000815250806040518060400160405280600181526020017f31000000000000000000000000000000000000000000000000000000000000008152506040518060400160405280600581526020017f4d6f7265740000000000000000000000000000000000000000000000000000008152506040518060400160405280600381526020017f4d4f52000000000000000000000000000000000000000000000000000000000081525081600390805190602001906200015c92919062000dd3565b5080600490805190602001906200017592919062000dd3565b505050620001986200018c620003a260201b60201c565b620003aa60201b60201c565b60008280519060200120905060008280519060200120905060007f8b73c3c69bb8fe3d512ecc4cf759cc79239f7b179b0ffacaa9a75d522b39400f90508260e081815250508161010081815250504660a08181525050620002018184846200047060201b60201c565b608081815250503073ffffffffffffffffffffffffffffffffffffffff1660c08173ffffffffffffffffffffffffffffffffffffffff168152505080610120818152505050505050505080601360006101000a81548173ffffffffffffffffffffffffffffffffffffffff021916908373ffffffffffffffffffffffffffffffffffffffff1602179055508073ffffffffffffffffffffffffffffffffffffffff1663cb4c86b76040518163ffffffff1660e01b8152600401602060405180830381865afa158015620002d8573d6000803e3d6000fd5b505050506040513d601f19601f82011682018060405250810190620002fe919062000f78565b601260006101000a81548173ffffffffffffffffffffffffffffffffffffffff021916908373ffffffffffffffffffffffffffffffffffffffff1602179055506200035a3369d3c21bcecceda1000000620004ac60201b60201c565b33601160006101000a81548173ffffffffffffffffffffffffffffffffffffffff021916908373ffffffffffffffffffffffffffffffffffffffff160217905550506200143d565b600033905090565b6000600560009054906101000a900473ffffffffffffffffffffffffffffffffffffffff16905081600560006101000a81548173ffffffffffffffffffffffffffffffffffffffff021916908373ffffffffffffffffffffffffffffffffffffffff1602179055508173ffffffffffffffffffffffffffffffffffffffff168173ffffffffffffffffffffffffffffffffffffffff167f8be0079c531659141344cd1fd0a4f28419497f9722a3daafe3b4186f6b6457e060405160405180910390a35050565b600083838346306040516020016200048d95949392919062000ff1565b6040516020818303038152906040528051906020012090509392505050565b620004c38282620004c760201b620022c21760201c565b5050565b620004de82826200058560201b6200234f1760201c565b620004ee620006fd60201b60201c565b7bffffffffffffffffffffffffffffffffffffffffffffffffffffffff166200051c6200072160201b60201c565b111562000560576040517f08c379a00000000000000000000000000000000000000000000000000000000081526004016200055790620010d5565b60405180910390fd5b6200057f60096200072b60201b620024ae17836200074360201b60201c565b50505050565b600073ffffffffffffffffffffffffffffffffffffffff168273ffffffffffffffffffffffffffffffffffffffff1603620005f7576040517f08c379a0000000000000000000000000000000000000000000000000000000008152600401620005ee9062001147565b60405180910390fd5b6200060b60008383620009f460201b60201c565b80600260008282546200061f919062001198565b92505081905550806000808473ffffffffffffffffffffffffffffffffffffffff1673ffffffffffffffffffffffffffffffffffffffff168152602001908152602001600020600082825462000676919062001198565b925050819055508173ffffffffffffffffffffffffffffffffffffffff16600073ffffffffffffffffffffffffffffffffffffffff167fddf252ad1be2c89b69c2b068fc378daa952ba7f163c4a11628f55a4df523b3ef83604051620006dd9190620011f5565b60405180910390a3620006f960008383620009f960201b60201c565b5050565b60007bffffffffffffffffffffffffffffffffffffffffffffffffffffffff905090565b6000600254905090565b600081836200073b919062001198565b905092915050565b60008060008580549050905060008114620007b8578560018262000768919062001212565b815481106200077c576200077b6200124d565b5b9060005260206000200160000160049054906101000a90047bffffffffffffffffffffffffffffffffffffffffffffffffffffffff16620007bb565b60005b7bffffffffffffffffffffffffffffffffffffffffffffffffffffffff169250620007e783858760201c565b9150600081118015620008405750438660018362000806919062001212565b815481106200081a57620008196200124d565b5b9060005260206000200160000160009054906101000a900463ffffffff1663ffffffff16145b15620008e1576200085c8262000a1660201b620024c41760201c565b866001836200086c919062001212565b8154811062000880576200087f6200124d565b5b9060005260206000200160000160046101000a8154817bffffffffffffffffffffffffffffffffffffffffffffffffffffffff02191690837bffffffffffffffffffffffffffffffffffffffffffffffffffffffff160217905550620009eb565b856040518060400160405280620009034362000a8460201b6200252f1760201c565b63ffffffff168152602001620009248562000a1660201b620024c41760201c565b7bffffffffffffffffffffffffffffffffffffffffffffffffffffffff168152509080600181540180825580915050600190039060005260206000200160009091909190915060008201518160000160006101000a81548163ffffffff021916908363ffffffff16021790555060208201518160000160046101000a8154817bffffffffffffffffffffffffffffffffffffffffffffffffffffffff02191690837bffffffffffffffffffffffffffffffffffffffffffffffffffffffff16021790555050505b50935093915050565b505050565b62000a1183838362000ada60201b620025821760201c565b505050565b60007bffffffffffffffffffffffffffffffffffffffffffffffffffffffff801682111562000a7c576040517f08c379a000000000000000000000000000000000000000000000000000000000815260040162000a7390620012f2565b60405180910390fd5b819050919050565b600063ffffffff801682111562000ad2576040517f08c379a000000000000000000000000000000000000000000000000000000000815260040162000ac9906200138a565b60405180910390fd5b819050919050565b62000af283838362000b2a60201b620025ad1760201c565b62000b2562000b078462000b2f60201b60201c565b62000b188462000b2f60201b60201c565b8362000b9860201b60201c565b505050565b505050565b6000600760008373ffffffffffffffffffffffffffffffffffffffff1673ffffffffffffffffffffffffffffffffffffffff16815260200190815260200160002060009054906101000a900473ffffffffffffffffffffffffffffffffffffffff169050919050565b8173ffffffffffffffffffffffffffffffffffffffff168373ffffffffffffffffffffffffffffffffffffffff161415801562000bd55750600081115b1562000db657600073ffffffffffffffffffffffffffffffffffffffff168373ffffffffffffffffffffffffffffffffffffffff161462000cc85760008062000c6f600860008773ffffffffffffffffffffffffffffffffffffffff1673ffffffffffffffffffffffffffffffffffffffff16815260200190815260200160002062000dbb60201b620025b217856200074360201b60201c565b915091508473ffffffffffffffffffffffffffffffffffffffff167fdec2bacdd2f05b59de34da9b523dff8be42e5e38e818c82fdb0bae774387a724838360405162000cbd929190620013ac565b60405180910390a250505b600073ffffffffffffffffffffffffffffffffffffffff168273ffffffffffffffffffffffffffffffffffffffff161462000db55760008062000d5c600860008673ffffffffffffffffffffffffffffffffffffffff1673ffffffffffffffffffffffffffffffffffffffff1681526020019081526020016000206200072b60201b620024ae17856200074360201b60201c565b915091508373ffffffffffffffffffffffffffffffffffffffff167fdec2bacdd2f05b59de34da9b523dff8be42e5e38e818c82fdb0bae774387a724838360405162000daa929190620013ac565b60405180910390a250505b5b505050565b6000818362000dcb919062001212565b905092915050565b82805462000de19062001408565b90600052602060002090601f01602090048101928262000e05576000855562000e51565b82601f1062000e2057805160ff191683800117855562000e51565b8280016001018555821562000e51579182015b8281111562000e5057825182559160200191906001019062000e33565b5b50905062000e60919062000e64565b5090565b5b8082111562000e7f57600081600090555060010162000e65565b5090565b600080fd5b600073ffffffffffffffffffffffffffffffffffffffff82169050919050565b600062000eb58262000e88565b9050919050565b600062000ec98262000ea8565b9050919050565b62000edb8162000ebc565b811462000ee757600080fd5b50565b60008151905062000efb8162000ed0565b92915050565b60006020828403121562000f1a5762000f1962000e83565b5b600062000f2a8482850162000eea565b91505092915050565b600062000f408262000ea8565b9050919050565b62000f528162000f33565b811462000f5e57600080fd5b50565b60008151905062000f728162000f47565b92915050565b60006020828403121562000f915762000f9062000e83565b5b600062000fa18482850162000f61565b91505092915050565b6000819050919050565b62000fbf8162000faa565b82525050565b6000819050919050565b62000fda8162000fc5565b82525050565b62000feb8162000ea8565b82525050565b600060a08201905062001008600083018862000fb4565b62001017602083018762000fb4565b62001026604083018662000fb4565b62001035606083018562000fcf565b62001044608083018462000fe0565b9695505050505050565b600082825260208201905092915050565b7f4552433230566f7465733a20746f74616c20737570706c79207269736b73206f60008201527f766572666c6f77696e6720766f74657300000000000000000000000000000000602082015250565b6000620010bd6030836200104e565b9150620010ca826200105f565b604082019050919050565b60006020820190508181036000830152620010f081620010ae565b9050919050565b7f45524332303a206d696e7420746f20746865207a65726f206164647265737300600082015250565b60006200112f601f836200104e565b91506200113c82620010f7565b602082019050919050565b60006020820190508181036000830152620011628162001120565b9050919050565b7f4e487b7100000000000000000000000000000000000000000000000000000000600052601160045260246000fd5b6000620011a58262000fc5565b9150620011b28362000fc5565b9250827fffffffffffffffffffffffffffffffffffffffffffffffffffffffffffffffff03821115620011ea57620011e962001169565b5b828201905092915050565b60006020820190506200120c600083018462000fcf565b92915050565b60006200121f8262000fc5565b91506200122c8362000fc5565b92508282101562001242576200124162001169565b5b828203905092915050565b7f4e487b7100000000000000000000000000000000000000000000000000000000600052603260045260246000fd5b7f53616665436173743a2076616c756520646f65736e27742066697420696e203260008201527f3234206269747300000000000000000000000000000000000000000000000000602082015250565b6000620012da6027836200104e565b9150620012e7826200127c565b604082019050919050565b600060208201905081810360008301526200130d81620012cb565b9050919050565b7f53616665436173743a2076616c756520646f65736e27742066697420696e203360008201527f3220626974730000000000000000000000000000000000000000000000000000602082015250565b6000620013726026836200104e565b91506200137f8262001314565b604082019050919050565b60006020820190508181036000830152620013a58162001363565b9050919050565b6000604082019050620013c3600083018562000fcf565b620013d2602083018462000fcf565b9392505050565b7f4e487b7100000000000000000000000000000000000000000000000000000000600052602260045260246000fd5b600060028204905060018216806200142157607f821691505b602082108103620014375762001436620013d9565b5b50919050565b60805160a05160c05160e051610100516101205161014051615b2b620014986000396000611bc701526000612b8201526000612bc401526000612ba301526000612ad801526000612b2e01526000612b570152615b2b6000f3fe608060405234801561001057600080fd5b506004361061025e5760003560e01c80637ecebe0011610146578063b0e21e8a116100c3578063d5fb0a2a11610087578063d5fb0a2a14610795578063dd62ed3e146107c5578063edabed8f146107f5578063ef5ddd3a14610811578063f1127ed814610841578063f2fde38b146108715761025e565b8063b0e21e8a14610705578063bb3260e414610723578063c3cda5201461073f578063cb4c86b71461075b578063d505accf146107795761025e565b806395d89b411161010a57806395d89b41146106395780639ab24eb014610657578063a457c2d714610687578063a9059cbb146106b7578063abff0110146106e75761025e565b80637ecebe001461056f5780638ca179951461059f5780638da5cb5b146105bb5780638e539e8c146105d957806391d0094c146106095761025e565b80633a46b1a8116101df5780636cce8916116101a35780636cce89161461049d5780636fcfff45146104cd57806370a08231146104fd578063715018a61461052d578063787dce3d146105375780637c4304ff146105535761025e565b80633a46b1a8146103e757806340c10f1914610417578063587cde1e146104335780635c19a95c1461046357806364df049e1461047f5761025e565b806323b872dd1161022657806323b872dd1461031b578063255fdcff1461034b578063313ce5671461037b5780633644e5151461039957806339509351146103b75761025e565b806306fdde031461026357806307ba8a5414610281578063095ea7b31461029d57806315dc2e9d146102cd57806318160ddd146102fd575b600080fd5b61026b61088d565b6040516102789190613ddd565b60405180910390f35b61029b60048036038101906102969190613e62565b61091f565b005b6102b760048036038101906102b29190613ec5565b610a4e565b6040516102c49190613f20565b60405180910390f35b6102e760048036038101906102e29190613e62565b610a71565b6040516102f49190613f9a565b60405180910390f35b610305610ba7565b6040516103129190613fc4565b60405180910390f35b61033560048036038101906103309190613fdf565b610bb1565b6040516103429190613f20565b60405180910390f35b61036560048036038101906103609190613e62565b610be0565b6040516103729190613f20565b60405180910390f35b610383610bfd565b604051610390919061404e565b60405180910390f35b6103a1610c06565b6040516103ae9190614082565b60405180910390f35b6103d160048036038101906103cc9190613ec5565b610c15565b6040516103de9190613f20565b60405180910390f35b61040160048036038101906103fc9190613ec5565b610cbf565b60405161040e9190613fc4565b60405180910390f35b610431600480360381019061042c9190613ec5565b610d53565b005b61044d60048036038101906104489190613e62565b610df1565b60405161045a91906140ac565b60405180910390f35b61047d60048036038101906104789190613e62565b610e5a565b005b610487610e6e565b60405161049491906140ac565b60405180910390f35b6104b760048036038101906104b29190613ec5565b610e94565b6040516104c491906140e8565b60405180910390f35b6104e760048036038101906104e29190613e62565b610f39565b6040516104f49190614122565b60405180910390f35b61051760048036038101906105129190613e62565b610f8d565b6040516105249190613fc4565b60405180910390f35b610535610fd5565b005b610551600480360381019061054c919061413d565b61105d565b005b61056d600480360381019061056891906141a8565b61111a565b005b61058960048036038101906105849190613e62565b6112ae565b6040516105969190613fc4565b60405180910390f35b6105b960048036038101906105b4919061413d565b6112fe565b005b6105c36114d1565b6040516105d091906140ac565b60405180910390f35b6105f360048036038101906105ee919061413d565b6114fb565b6040516106009190613fc4565b60405180910390f35b610623600480360381019061061e9190614214565b611551565b6040516106309190613f20565b60405180910390f35b61064161167c565b60405161064e9190613ddd565b60405180910390f35b610671600480360381019061066c9190613e62565b61170e565b60405161067e9190613fc4565b60405180910390f35b6106a1600480360381019061069c9190613ec5565b61181f565b6040516106ae9190613f20565b60405180910390f35b6106d160048036038101906106cc9190613ec5565b611909565b6040516106de9190613f20565b60405180910390f35b6106ef61192c565b6040516106fc9190614275565b60405180910390f35b61070d611952565b60405161071a9190613fc4565b60405180910390f35b61073d600480360381019061073891906142ce565b611958565b005b61075960048036038101906107549190614366565b611a56565b005b610763611b5a565b6040516107709190614414565b60405180910390f35b610793600480360381019061078e919061442f565b611b80565b005b6107af60048036038101906107aa9190613e62565b611cc2565b6040516107bc9190613f20565b60405180910390f35b6107df60048036038101906107da91906144d1565b611cdf565b6040516107ec9190613fc4565b60405180910390f35b61080f600480360381019061080a919061454f565b611d66565b005b61082b60048036038101906108269190614214565b611f90565b6040516108389190613f20565b60405180910390f35b61085b600480360381019061085691906145ce565b6120bb565b6040516108689190614683565b60405180910390f35b61088b60048036038101906108869190613e62565b6121cb565b005b60606003805461089c906146cd565b80601f01602080910402602001604051908101604052809291908181526020018280546108c8906146cd565b80156109155780601f106108ea57610100808354040283529160200191610915565b820191906000526020600020905b8154815290600101906020018083116108f857829003601f168201915b5050505050905090565b6109276125c8565b73ffffffffffffffffffffffffffffffffffffffff166109456114d1565b73ffffffffffffffffffffffffffffffffffffffff161461099b576040517f08c379a00000000000000000000000000000000000000000000000000000000081526004016109929061474a565b60405180910390fd5b600073ffffffffffffffffffffffffffffffffffffffff168173ffffffffffffffffffffffffffffffffffffffff1603610a0a576040517f08c379a0000000000000000000000000000000000000000000000000000000008152600401610a01906147b6565b60405180910390fd5b80601160006101000a81548173ffffffffffffffffffffffffffffffffffffffff021916908373ffffffffffffffffffffffffffffffffffffffff16021790555050565b600080610a596125c8565b9050610a668185856125d0565b600191505092915050565b60008073ffffffffffffffffffffffffffffffffffffffff16600a60008473ffffffffffffffffffffffffffffffffffffffff1673ffffffffffffffffffffffffffffffffffffffff16815260200190815260200160002060009054906101000a900473ffffffffffffffffffffffffffffffffffffffff1673ffffffffffffffffffffffffffffffffffffffff1603610b40576040517f08c379a0000000000000000000000000000000000000000000000000000000008152600401610b3790614822565b60405180910390fd5b600a60008373ffffffffffffffffffffffffffffffffffffffff1673ffffffffffffffffffffffffffffffffffffffff16815260200190815260200160002060009054906101000a900473ffffffffffffffffffffffffffffffffffffffff169050919050565b6000600254905090565b600080610bbc6125c8565b9050610bc9858285612799565b610bd4858585612825565b60019150509392505050565b6000610bf682600e612aa490919063ffffffff16565b9050919050565b60006012905090565b6000610c10612ad4565b905090565b600080610c206125c8565b9050610cb4818585600160008673ffffffffffffffffffffffffffffffffffffffff1673ffffffffffffffffffffffffffffffffffffffff16815260200190815260200160002060008973ffffffffffffffffffffffffffffffffffffffff1673ffffffffffffffffffffffffffffffffffffffff16815260200190815260200160002054610caf9190614871565b6125d0565b600191505092915050565b6000438210610d03576040517f08c379a0000000000000000000000000000000000000000000000000000000008152600401610cfa90614913565b60405180910390fd5b610d4b600860008573ffffffffffffffffffffffffffffffffffffffff1673ffffffffffffffffffffffffffffffffffffffff16815260200190815260200160002083612bee565b905092915050565b3373ffffffffffffffffffffffffffffffffffffffff16601360009054906101000a900473ffffffffffffffffffffffffffffffffffffffff1673ffffffffffffffffffffffffffffffffffffffff1614610de3576040517f08c379a0000000000000000000000000000000000000000000000000000000008152600401610dda9061497f565b60405180910390fd5b610ded8282612cfa565b5050565b6000600760008373ffffffffffffffffffffffffffffffffffffffff1673ffffffffffffffffffffffffffffffffffffffff16815260200190815260200160002060009054906101000a900473ffffffffffffffffffffffffffffffffffffffff169050919050565b610e6b610e656125c8565b82612d08565b50565b601160009054906101000a900473ffffffffffffffffffffffffffffffffffffffff1681565b6000806000610eea84600b60008873ffffffffffffffffffffffffffffffffffffffff1673ffffffffffffffffffffffffffffffffffffffff168152602001908152602001600020612e2290919063ffffffff16565b9150915081610f2e576040517f08c379a0000000000000000000000000000000000000000000000000000000008152600401610f25906149eb565b60405180910390fd5b809250505092915050565b6000610f86600860008473ffffffffffffffffffffffffffffffffffffffff1673ffffffffffffffffffffffffffffffffffffffff1681526020019081526020016000208054905061252f565b9050919050565b60008060008373ffffffffffffffffffffffffffffffffffffffff1673ffffffffffffffffffffffffffffffffffffffff168152602001908152602001600020549050919050565b610fdd6125c8565b73ffffffffffffffffffffffffffffffffffffffff16610ffb6114d1565b73ffffffffffffffffffffffffffffffffffffffff1614611051576040517f08c379a00000000000000000000000000000000000000000000000000000000081526004016110489061474a565b60405180910390fd5b61105b6000612e4e565b565b6110656125c8565b73ffffffffffffffffffffffffffffffffffffffff166110836114d1565b73ffffffffffffffffffffffffffffffffffffffff16146110d9576040517f08c379a00000000000000000000000000000000000000000000000000000000081526004016110d09061474a565b60405180910390fd5b806010819055507f29472a82a52b1caa40964580caee03ad34e2750d3051c517527a5ef27eb58b308160405161110f9190613fc4565b60405180910390a150565b6111226125c8565b73ffffffffffffffffffffffffffffffffffffffff166111406114d1565b73ffffffffffffffffffffffffffffffffffffffff1614611196576040517f08c379a000000000000000000000000000000000000000000000000000000000815260040161118d9061474a565b60405180910390fd5b8173ffffffffffffffffffffffffffffffffffffffff1663d2f7265a6040518163ffffffff1660e01b8152600401602060405180830381865afa1580156111e1573d6000803e3d6000fd5b505050506040513d601f19601f820116820180604052508101906112059190614a20565b73ffffffffffffffffffffffffffffffffffffffff16639111fccd83836040518363ffffffff1660e01b815260040161123f929190614a6e565b600060405180830381600087803b15801561125957600080fd5b505af115801561126d573d6000803e3d6000fd5b505050507ffb24c384840b912caf631799804e8d43a3950d690745f2b8501b47c8e8d90fd282826040516112a2929190614a97565b60405180910390a15050565b60006112f7600660008473ffffffffffffffffffffffffffffffffffffffff1673ffffffffffffffffffffffffffffffffffffffff168152602001908152602001600020612f14565b9050919050565b60008173__MathLib_______________________________63b3947c179091601260009054906101000a900473ffffffffffffffffffffffffffffffffffffffff1673ffffffffffffffffffffffffffffffffffffffff166370a08231306040518263ffffffff1660e01b815260040161137891906140ac565b602060405180830381865afa158015611395573d6000803e3d6000fd5b505050506040513d601f19601f820116820180604052508101906113b99190614ad5565b6113c1610ba7565b6040518463ffffffff1660e01b81526004016113df93929190614b11565b602060405180830381865af41580156113fc573d6000803e3d6000fd5b505050506040513d601f19601f820116820180604052508101906114209190614ad5565b905061142c3383612f22565b601260009054906101000a900473ffffffffffffffffffffffffffffffffffffffff1673ffffffffffffffffffffffffffffffffffffffff1663a9059cbb33836040518363ffffffff1660e01b8152600401611489929190614a97565b6020604051808303816000875af11580156114a8573d6000803e3d6000fd5b505050506040513d601f19601f820116820180604052508101906114cc9190614b5d565b505050565b6000600560009054906101000a900473ffffffffffffffffffffffffffffffffffffffff16905090565b600043821061153f576040517f08c379a000000000000000000000000000000000000000000000000000000000815260040161153690614913565b60405180910390fd5b61154a600983612bee565b9050919050565b600061155b6125c8565b73ffffffffffffffffffffffffffffffffffffffff166115796114d1565b73ffffffffffffffffffffffffffffffffffffffff16146115cf576040517f08c379a00000000000000000000000000000000000000000000000000000000081526004016115c69061474a565b60405180910390fd5b600073ffffffffffffffffffffffffffffffffffffffff168373ffffffffffffffffffffffffffffffffffffffff160361163e576040517f08c379a000000000000000000000000000000000000000000000000000000000815260040161163590614bd6565b60405180910390fd5b811561165f5761165883600e612f3090919063ffffffff16565b9050611676565b61167383600e612f6090919063ffffffff16565b90505b92915050565b60606004805461168b906146cd565b80601f01602080910402602001604051908101604052809291908181526020018280546116b7906146cd565b80156117045780601f106116d957610100808354040283529160200191611704565b820191906000526020600020905b8154815290600101906020018083116116e757829003601f168201915b5050505050905090565b600080600860008473ffffffffffffffffffffffffffffffffffffffff1673ffffffffffffffffffffffffffffffffffffffff168152602001908152602001600020805490509050600081146117f657600860008473ffffffffffffffffffffffffffffffffffffffff1673ffffffffffffffffffffffffffffffffffffffff1681526020019081526020016000206001826117aa9190614bf6565b815481106117bb576117ba614c2a565b5b9060005260206000200160000160049054906101000a90047bffffffffffffffffffffffffffffffffffffffffffffffffffffffff166117f9565b60005b7bffffffffffffffffffffffffffffffffffffffffffffffffffffffff16915050919050565b60008061182a6125c8565b90506000600160008373ffffffffffffffffffffffffffffffffffffffff1673ffffffffffffffffffffffffffffffffffffffff16815260200190815260200160002060008673ffffffffffffffffffffffffffffffffffffffff1673ffffffffffffffffffffffffffffffffffffffff168152602001908152602001600020549050838110156118f0576040517f08c379a00000000000000000000000000000000000000000000000000000000081526004016118e790614ccb565b60405180910390fd5b6118fd82868684036125d0565b60019250505092915050565b6000806119146125c8565b9050611921818585612825565b600191505092915050565b601360009054906101000a900473ffffffffffffffffffffffffffffffffffffffff1681565b60105481565b6119606125c8565b73ffffffffffffffffffffffffffffffffffffffff1661197e6114d1565b73ffffffffffffffffffffffffffffffffffffffff16146119d4576040517f08c379a00000000000000000000000000000000000000000000000000000000081526004016119cb9061474a565b60405180910390fd5b80600a60008473ffffffffffffffffffffffffffffffffffffffff1673ffffffffffffffffffffffffffffffffffffffff16815260200190815260200160002060006101000a81548173ffffffffffffffffffffffffffffffffffffffff021916908373ffffffffffffffffffffffffffffffffffffffff1602179055505050565b83421115611a99576040517f08c379a0000000000000000000000000000000000000000000000000000000008152600401611a9090614d37565b60405180910390fd5b6000611afb611af37fe48329057bfd03d55e49b547132e39cffd9c1820ad7b9d4c5307691425d15adf898989604051602001611ad89493929190614d57565b60405160208183030381529060405280519060200120612f90565b858585612faa565b9050611b0681612fd5565b8614611b47576040517f08c379a0000000000000000000000000000000000000000000000000000000008152600401611b3e90614de8565b60405180910390fd5b611b518188612d08565b50505050505050565b601260009054906101000a900473ffffffffffffffffffffffffffffffffffffffff1681565b83421115611bc3576040517f08c379a0000000000000000000000000000000000000000000000000000000008152600401611bba90614e54565b60405180910390fd5b60007f0000000000000000000000000000000000000000000000000000000000000000888888611bf28c612fd5565b89604051602001611c0896959493929190614e74565b6040516020818303038152906040528051906020012090506000611c2b82612f90565b90506000611c3b82878787612faa565b90508973ffffffffffffffffffffffffffffffffffffffff168173ffffffffffffffffffffffffffffffffffffffff1614611cab576040517f08c379a0000000000000000000000000000000000000000000000000000000008152600401611ca290614f21565b60405180910390fd5b611cb68a8a8a6125d0565b50505050505050505050565b6000611cd882600c612aa490919063ffffffff16565b9050919050565b6000600160008473ffffffffffffffffffffffffffffffffffffffff1673ffffffffffffffffffffffffffffffffffffffff16815260200190815260200160002060008373ffffffffffffffffffffffffffffffffffffffff1673ffffffffffffffffffffffffffffffffffffffff16815260200190815260200160002054905092915050565b611d6e6125c8565b73ffffffffffffffffffffffffffffffffffffffff16611d8c6114d1565b73ffffffffffffffffffffffffffffffffffffffff1614611de2576040517f08c379a0000000000000000000000000000000000000000000000000000000008152600401611dd99061474a565b60405180910390fd5b818173ffffffffffffffffffffffffffffffffffffffff1663a15612d16040518163ffffffff1660e01b8152600401602060405180830381865afa158015611e2e573d6000803e3d6000fd5b505050506040513d601f19601f82011682018060405250810190611e529190614ad5565b148015611ef857508273ffffffffffffffffffffffffffffffffffffffff168173ffffffffffffffffffffffffffffffffffffffff16636f307dc36040518163ffffffff1660e01b8152600401602060405180830381865afa158015611ebc573d6000803e3d6000fd5b505050506040513d601f19601f82011682018060405250810190611ee09190614a20565b73ffffffffffffffffffffffffffffffffffffffff16145b611f37576040517f08c379a0000000000000000000000000000000000000000000000000000000008152600401611f2e90614f8d565b60405180910390fd5b611f8a8282600b60008773ffffffffffffffffffffffffffffffffffffffff1673ffffffffffffffffffffffffffffffffffffffff1681526020019081526020016000206130339092919063ffffffff16565b50505050565b6000611f9a6125c8565b73ffffffffffffffffffffffffffffffffffffffff16611fb86114d1565b73ffffffffffffffffffffffffffffffffffffffff161461200e576040517f08c379a00000000000000000000000000000000000000000000000000000000081526004016120059061474a565b60405180910390fd5b600073ffffffffffffffffffffffffffffffffffffffff168373ffffffffffffffffffffffffffffffffffffffff160361207d576040517f08c379a000000000000000000000000000000000000000000000000000000000815260040161207490614bd6565b60405180910390fd5b811561209e5761209783600c612f3090919063ffffffff16565b90506120b5565b6120b283600c612f6090919063ffffffff16565b90505b92915050565b6120c3613d06565b600860008473ffffffffffffffffffffffffffffffffffffffff1673ffffffffffffffffffffffffffffffffffffffff1681526020019081526020016000208263ffffffff168154811061211a57612119614c2a565b5b906000526020600020016040518060400160405290816000820160009054906101000a900463ffffffff1663ffffffff1663ffffffff1681526020016000820160049054906101000a90047bffffffffffffffffffffffffffffffffffffffffffffffffffffffff167bffffffffffffffffffffffffffffffffffffffffffffffffffffffff167bffffffffffffffffffffffffffffffffffffffffffffffffffffffff1681525050905092915050565b6121d36125c8565b73ffffffffffffffffffffffffffffffffffffffff166121f16114d1565b73ffffffffffffffffffffffffffffffffffffffff1614612247576040517f08c379a000000000000000000000000000000000000000000000000000000000815260040161223e9061474a565b60405180910390fd5b600073ffffffffffffffffffffffffffffffffffffffff168173ffffffffffffffffffffffffffffffffffffffff16036122b6576040517f08c379a00000000000000000000000000000000000000000000000000000000081526004016122ad9061501f565b60405180910390fd5b6122bf81612e4e565b50565b6122cc828261234f565b6122d4613068565b7bffffffffffffffffffffffffffffffffffffffffffffffffffffffff166122fa610ba7565b111561233b576040517f08c379a0000000000000000000000000000000000000000000000000000000008152600401612332906150b1565b60405180910390fd5b61234960096124ae8361308c565b50505050565b600073ffffffffffffffffffffffffffffffffffffffff168273ffffffffffffffffffffffffffffffffffffffff16036123be576040517f08c379a00000000000000000000000000000000000000000000000000000000081526004016123b59061511d565b60405180910390fd5b6123ca60008383613304565b80600260008282546123dc9190614871565b92505081905550806000808473ffffffffffffffffffffffffffffffffffffffff1673ffffffffffffffffffffffffffffffffffffffff16815260200190815260200160002060008282546124319190614871565b925050819055508173ffffffffffffffffffffffffffffffffffffffff16600073ffffffffffffffffffffffffffffffffffffffff167fddf252ad1be2c89b69c2b068fc378daa952ba7f163c4a11628f55a4df523b3ef836040516124969190613fc4565b60405180910390a36124aa60008383613309565b5050565b600081836124bc9190614871565b905092915050565b60007bffffffffffffffffffffffffffffffffffffffffffffffffffffffff8016821115612527576040517f08c379a000000000000000000000000000000000000000000000000000000000815260040161251e906151af565b60405180910390fd5b819050919050565b600063ffffffff801682111561257a576040517f08c379a000000000000000000000000000000000000000000000000000000000815260040161257190615241565b60405180910390fd5b819050919050565b61258d8383836125ad565b6125a861259984610df1565b6125a284610df1565b83613319565b505050565b505050565b600081836125c09190614bf6565b905092915050565b600033905090565b600073ffffffffffffffffffffffffffffffffffffffff168373ffffffffffffffffffffffffffffffffffffffff160361263f576040517f08c379a0000000000000000000000000000000000000000000000000000000008152600401612636906152d3565b60405180910390fd5b600073ffffffffffffffffffffffffffffffffffffffff168273ffffffffffffffffffffffffffffffffffffffff16036126ae576040517f08c379a00000000000000000000000000000000000000000000000000000000081526004016126a590615365565b60405180910390fd5b80600160008573ffffffffffffffffffffffffffffffffffffffff1673ffffffffffffffffffffffffffffffffffffffff16815260200190815260200160002060008473ffffffffffffffffffffffffffffffffffffffff1673ffffffffffffffffffffffffffffffffffffffff168152602001908152602001600020819055508173ffffffffffffffffffffffffffffffffffffffff168373ffffffffffffffffffffffffffffffffffffffff167f8c5be1e5ebec7d5bd14f71427d1e84f3dd0314c0f7b2291e5b200ac8c7c3b9258360405161278c9190613fc4565b60405180910390a3505050565b60006127a58484611cdf565b90507fffffffffffffffffffffffffffffffffffffffffffffffffffffffffffffffff811461281f5781811015612811576040517f08c379a0000000000000000000000000000000000000000000000000000000008152600401612808906153d1565b60405180910390fd5b61281e84848484036125d0565b5b50505050565b600073ffffffffffffffffffffffffffffffffffffffff168373ffffffffffffffffffffffffffffffffffffffff1603612894576040517f08c379a000000000000000000000000000000000000000000000000000000000815260040161288b90615463565b60405180910390fd5b600073ffffffffffffffffffffffffffffffffffffffff168273ffffffffffffffffffffffffffffffffffffffff1603612903576040517f08c379a00000000000000000000000000000000000000000000000000000000081526004016128fa906154f5565b60405180910390fd5b61290e838383613304565b60008060008573ffffffffffffffffffffffffffffffffffffffff1673ffffffffffffffffffffffffffffffffffffffff16815260200190815260200160002054905081811015612994576040517f08c379a000000000000000000000000000000000000000000000000000000000815260040161298b90615587565b60405180910390fd5b8181036000808673ffffffffffffffffffffffffffffffffffffffff1673ffffffffffffffffffffffffffffffffffffffff16815260200190815260200160002081905550816000808573ffffffffffffffffffffffffffffffffffffffff1673ffffffffffffffffffffffffffffffffffffffff1681526020019081526020016000206000828254612a279190614871565b925050819055508273ffffffffffffffffffffffffffffffffffffffff168473ffffffffffffffffffffffffffffffffffffffff167fddf252ad1be2c89b69c2b068fc378daa952ba7f163c4a11628f55a4df523b3ef84604051612a8b9190613fc4565b60405180910390a3612a9e848484613309565b50505050565b6000612acc836000018373ffffffffffffffffffffffffffffffffffffffff1660001b613512565b905092915050565b60007f000000000000000000000000000000000000000000000000000000000000000073ffffffffffffffffffffffffffffffffffffffff163073ffffffffffffffffffffffffffffffffffffffff16148015612b5057507f000000000000000000000000000000000000000000000000000000000000000046145b15612b7d577f00000000000000000000000000000000000000000000000000000000000000009050612beb565b612be87f00000000000000000000000000000000000000000000000000000000000000007f00000000000000000000000000000000000000000000000000000000000000007f0000000000000000000000000000000000000000000000000000000000000000613535565b90505b90565b6000808380549050905060005b81811015612c6d576000612c0f828461356f565b905084868281548110612c2557612c24614c2a565b5b9060005260206000200160000160009054906101000a900463ffffffff1663ffffffff161115612c5757809250612c67565b600181612c649190614871565b91505b50612bfb565b60008214612ccf5784600183612c839190614bf6565b81548110612c9457612c93614c2a565b5b9060005260206000200160000160049054906101000a90047bffffffffffffffffffffffffffffffffffffffffffffffffffffffff16612cd2565b60005b7bffffffffffffffffffffffffffffffffffffffffffffffffffffffff169250505092915050565b612d0482826122c2565b5050565b6000612d1383610df1565b90506000612d2084610f8d565b905082600760008673ffffffffffffffffffffffffffffffffffffffff1673ffffffffffffffffffffffffffffffffffffffff16815260200190815260200160002060006101000a81548173ffffffffffffffffffffffffffffffffffffffff021916908373ffffffffffffffffffffffffffffffffffffffff1602179055508273ffffffffffffffffffffffffffffffffffffffff168273ffffffffffffffffffffffffffffffffffffffff168573ffffffffffffffffffffffffffffffffffffffff167f3134e8a2e6d97e929a7e54011ea5485d7d196dd5f0ba4d4ef95803e8e3fc257f60405160405180910390a4612e1c828483613319565b50505050565b600080600080612e38866000018660001b613595565b91509150818160001c9350935050509250929050565b6000600560009054906101000a900473ffffffffffffffffffffffffffffffffffffffff16905081600560006101000a81548173ffffffffffffffffffffffffffffffffffffffff021916908373ffffffffffffffffffffffffffffffffffffffff1602179055508173ffffffffffffffffffffffffffffffffffffffff168173ffffffffffffffffffffffffffffffffffffffff167f8be0079c531659141344cd1fd0a4f28419497f9722a3daafe3b4186f6b6457e060405160405180910390a35050565b600081600001549050919050565b612f2c82826135e4565b5050565b6000612f58836000018373ffffffffffffffffffffffffffffffffffffffff1660001b613602565b905092915050565b6000612f88836000018373ffffffffffffffffffffffffffffffffffffffff1660001b613672565b905092915050565b6000612fa3612f9d612ad4565b83613786565b9050919050565b6000806000612fbb878787876137b9565b91509150612fc8816138c5565b8192505050949350505050565b600080600660008473ffffffffffffffffffffffffffffffffffffffff1673ffffffffffffffffffffffffffffffffffffffff168152602001908152602001600020905061302281612f14565b915061302d81613a91565b50919050565b600061305f846000018460001b8473ffffffffffffffffffffffffffffffffffffffff1660001b613aa7565b90509392505050565b60007bffffffffffffffffffffffffffffffffffffffffffffffffffffffff905090565b600080600085805490509050600081146130fa57856001826130ae9190614bf6565b815481106130bf576130be614c2a565b5b9060005260206000200160000160049054906101000a90047bffffffffffffffffffffffffffffffffffffffffffffffffffffffff166130fd565b60005b7bffffffffffffffffffffffffffffffffffffffffffffffffffffffff16925061312b83858763ffffffff16565b915060008111801561317e575043866001836131479190614bf6565b8154811061315857613157614c2a565b5b9060005260206000200160000160009054906101000a900463ffffffff1663ffffffff16145b1561320b5761318c826124c4565b8660018361319a9190614bf6565b815481106131ab576131aa614c2a565b5b9060005260206000200160000160046101000a8154817bffffffffffffffffffffffffffffffffffffffffffffffffffffffff02191690837bffffffffffffffffffffffffffffffffffffffffffffffffffffffff1602179055506132fb565b8560405180604001604052806132204361252f565b63ffffffff168152602001613234856124c4565b7bffffffffffffffffffffffffffffffffffffffffffffffffffffffff168152509080600181540180825580915050600190039060005260206000200160009091909190915060008201518160000160006101000a81548163ffffffff021916908363ffffffff16021790555060208201518160000160046101000a8154817bffffffffffffffffffffffffffffffffffffffffffffffffffffffff02191690837bffffffffffffffffffffffffffffffffffffffffffffffffffffffff16021790555050505b50935093915050565b505050565b613314838383612582565b505050565b8173ffffffffffffffffffffffffffffffffffffffff168373ffffffffffffffffffffffffffffffffffffffff16141580156133555750600081115b1561350d57600073ffffffffffffffffffffffffffffffffffffffff168373ffffffffffffffffffffffffffffffffffffffff1614613433576000806133dc600860008773ffffffffffffffffffffffffffffffffffffffff1673ffffffffffffffffffffffffffffffffffffffff1681526020019081526020016000206125b28561308c565b915091508473ffffffffffffffffffffffffffffffffffffffff167fdec2bacdd2f05b59de34da9b523dff8be42e5e38e818c82fdb0bae774387a72483836040516134289291906155a7565b60405180910390a250505b600073ffffffffffffffffffffffffffffffffffffffff168273ffffffffffffffffffffffffffffffffffffffff161461350c576000806134b5600860008673ffffffffffffffffffffffffffffffffffffffff1673ffffffffffffffffffffffffffffffffffffffff1681526020019081526020016000206124ae8561308c565b915091508373ffffffffffffffffffffffffffffffffffffffff167fdec2bacdd2f05b59de34da9b523dff8be42e5e38e818c82fdb0bae774387a72483836040516135019291906155a7565b60405180910390a250505b5b505050565b600080836001016000848152602001908152602001600020541415905092915050565b600083838346306040516020016135509594939291906155d0565b6040516020818303038152906040528051906020012090509392505050565b600060028284186135809190615652565b82841661358d9190614871565b905092915050565b60008060008460020160008581526020019081526020016000205490506000801b81036135d4576135c68585613ae2565b6000801b92509250506135dd565b60018192509250505b9250929050565b6135ee8282613b02565b6135fc60096125b28361308c565b50505050565b600061360e8383613512565b61366757826000018290806001815401808255809150506001900390600052602060002001600090919091909150558260000180549050836001016000848152602001908152602001600020819055506001905061366c565b600090505b92915050565b6000808360010160008481526020019081526020016000205490506000811461377a5760006001826136a49190614bf6565b90506000600186600001805490506136bc9190614bf6565b905081811461372b5760008660000182815481106136dd576136dc614c2a565b5b906000526020600020015490508087600001848154811061370157613700614c2a565b5b90600052602060002001819055508387600101600083815260200190815260200160002081905550505b8560000180548061373f5761373e615683565b5b600190038181906000526020600020016000905590558560010160008681526020019081526020016000206000905560019350505050613780565b60009150505b92915050565b6000828260405160200161379b92919061572a565b60405160208183030381529060405280519060200120905092915050565b6000807f7fffffffffffffffffffffffffffffff5d576e7357a4501ddfe92f46681b20a08360001c11156137f45760006003915091506138bc565b601b8560ff161415801561380c5750601c8560ff1614155b1561381e5760006004915091506138bc565b6000600187878787604051600081526020016040526040516138439493929190615761565b6020604051602081039080840390855afa158015613865573d6000803e3d6000fd5b505050602060405103519050600073ffffffffffffffffffffffffffffffffffffffff168173ffffffffffffffffffffffffffffffffffffffff16036138b3576000600192509250506138bc565b80600092509250505b94509492505050565b600060048111156138d9576138d86157a6565b5b8160048111156138ec576138eb6157a6565b5b0315613a8e5760016004811115613906576139056157a6565b5b816004811115613919576139186157a6565b5b03613959576040517f08c379a000000000000000000000000000000000000000000000000000000000815260040161395090615821565b60405180910390fd5b6002600481111561396d5761396c6157a6565b5b8160048111156139805761397f6157a6565b5b036139c0576040517f08c379a00000000000000000000000000000000000000000000000000000000081526004016139b79061588d565b60405180910390fd5b600360048111156139d4576139d36157a6565b5b8160048111156139e7576139e66157a6565b5b03613a27576040517f08c379a0000000000000000000000000000000000000000000000000000000008152600401613a1e9061591f565b60405180910390fd5b600480811115613a3a57613a396157a6565b5b816004811115613a4d57613a4c6157a6565b5b03613a8d576040517f08c379a0000000000000000000000000000000000000000000000000000000008152600401613a84906159b1565b60405180910390fd5b5b50565b6001816000016000828254019250508190555050565b60008184600201600085815260200190815260200160002081905550613ad98385600001613cd890919063ffffffff16565b90509392505050565b6000613afa8284600001613cef90919063ffffffff16565b905092915050565b600073ffffffffffffffffffffffffffffffffffffffff168273ffffffffffffffffffffffffffffffffffffffff1603613b71576040517f08c379a0000000000000000000000000000000000000000000000000000000008152600401613b6890615a43565b60405180910390fd5b613b7d82600083613304565b60008060008473ffffffffffffffffffffffffffffffffffffffff1673ffffffffffffffffffffffffffffffffffffffff16815260200190815260200160002054905081811015613c03576040517f08c379a0000000000000000000000000000000000000000000000000000000008152600401613bfa90615ad5565b60405180910390fd5b8181036000808573ffffffffffffffffffffffffffffffffffffffff1673ffffffffffffffffffffffffffffffffffffffff168152602001908152602001600020819055508160026000828254613c5a9190614bf6565b92505081905550600073ffffffffffffffffffffffffffffffffffffffff168373ffffffffffffffffffffffffffffffffffffffff167fddf252ad1be2c89b69c2b068fc378daa952ba7f163c4a11628f55a4df523b3ef84604051613cbf9190613fc4565b60405180910390a3613cd383600084613309565b505050565b6000613ce78360000183613602565b905092915050565b6000613cfe8360000183613512565b905092915050565b6040518060400160405280600063ffffffff16815260200160007bffffffffffffffffffffffffffffffffffffffffffffffffffffffff1681525090565b600081519050919050565b600082825260208201905092915050565b60005b83811015613d7e578082015181840152602081019050613d63565b83811115613d8d576000848401525b50505050565b6000601f19601f8301169050919050565b6000613daf82613d44565b613db98185613d4f565b9350613dc9818560208601613d60565b613dd281613d93565b840191505092915050565b60006020820190508181036000830152613df78184613da4565b905092915050565b600080fd5b600073ffffffffffffffffffffffffffffffffffffffff82169050919050565b6000613e2f82613e04565b9050919050565b613e3f81613e24565b8114613e4a57600080fd5b50565b600081359050613e5c81613e36565b92915050565b600060208284031215613e7857613e77613dff565b5b6000613e8684828501613e4d565b91505092915050565b6000819050919050565b613ea281613e8f565b8114613ead57600080fd5b50565b600081359050613ebf81613e99565b92915050565b60008060408385031215613edc57613edb613dff565b5b6000613eea85828601613e4d565b9250506020613efb85828601613eb0565b9150509250929050565b60008115159050919050565b613f1a81613f05565b82525050565b6000602082019050613f356000830184613f11565b92915050565b6000819050919050565b6000613f60613f5b613f5684613e04565b613f3b565b613e04565b9050919050565b6000613f7282613f45565b9050919050565b6000613f8482613f67565b9050919050565b613f9481613f79565b82525050565b6000602082019050613faf6000830184613f8b565b92915050565b613fbe81613e8f565b82525050565b6000602082019050613fd96000830184613fb5565b92915050565b600080600060608486031215613ff857613ff7613dff565b5b600061400686828701613e4d565b935050602061401786828701613e4d565b925050604061402886828701613eb0565b9150509250925092565b600060ff82169050919050565b61404881614032565b82525050565b6000602082019050614063600083018461403f565b92915050565b6000819050919050565b61407c81614069565b82525050565b60006020820190506140976000830184614073565b92915050565b6140a681613e24565b82525050565b60006020820190506140c1600083018461409d565b92915050565b60006140d282613f67565b9050919050565b6140e2816140c7565b82525050565b60006020820190506140fd60008301846140d9565b92915050565b600063ffffffff82169050919050565b61411c81614103565b82525050565b60006020820190506141376000830184614113565b92915050565b60006020828403121561415357614152613dff565b5b600061416184828501613eb0565b91505092915050565b600061417582613e24565b9050919050565b6141858161416a565b811461419057600080fd5b50565b6000813590506141a28161417c565b92915050565b600080604083850312156141bf576141be613dff565b5b60006141cd85828601614193565b92505060206141de85828601613eb0565b9150509250929050565b6141f181613f05565b81146141fc57600080fd5b50565b60008135905061420e816141e8565b92915050565b6000806040838503121561422b5761422a613dff565b5b600061423985828601613e4d565b925050602061424a858286016141ff565b9150509250929050565b600061425f82613f67565b9050919050565b61426f81614254565b82525050565b600060208201905061428a6000830184614266565b92915050565b600061429b82613e24565b9050919050565b6142ab81614290565b81146142b657600080fd5b50565b6000813590506142c8816142a2565b92915050565b600080604083850312156142e5576142e4613dff565b5b60006142f385828601613e4d565b9250506020614304858286016142b9565b9150509250929050565b61431781614032565b811461432257600080fd5b50565b6000813590506143348161430e565b92915050565b61434381614069565b811461434e57600080fd5b50565b6000813590506143608161433a565b92915050565b60008060008060008060c0878903121561438357614382613dff565b5b600061439189828a01613e4d565b96505060206143a289828a01613eb0565b95505060406143b389828a01613eb0565b94505060606143c489828a01614325565b93505060806143d589828a01614351565b92505060a06143e689828a01614351565b9150509295509295509295565b60006143fe82613f67565b9050919050565b61440e816143f3565b82525050565b60006020820190506144296000830184614405565b92915050565b600080600080600080600060e0888a03121561444e5761444d613dff565b5b600061445c8a828b01613e4d565b975050602061446d8a828b01613e4d565b965050604061447e8a828b01613eb0565b955050606061448f8a828b01613eb0565b94505060806144a08a828b01614325565b93505060a06144b18a828b01614351565b92505060c06144c28a828b01614351565b91505092959891949750929550565b600080604083850312156144e8576144e7613dff565b5b60006144f685828601613e4d565b925050602061450785828601613e4d565b9150509250929050565b600061451c82613e24565b9050919050565b61452c81614511565b811461453757600080fd5b50565b60008135905061454981614523565b92915050565b60008060006060848603121561456857614567613dff565b5b600061457686828701613e4d565b935050602061458786828701613eb0565b92505060406145988682870161453a565b9150509250925092565b6145ab81614103565b81146145b657600080fd5b50565b6000813590506145c8816145a2565b92915050565b600080604083850312156145e5576145e4613dff565b5b60006145f385828601613e4d565b9250506020614604858286016145b9565b9150509250929050565b61461781614103565b82525050565b60007bffffffffffffffffffffffffffffffffffffffffffffffffffffffff82169050919050565b61464e8161461d565b82525050565b60408201600082015161466a600085018261460e565b50602082015161467d6020850182614645565b50505050565b60006040820190506146986000830184614654565b92915050565b7f4e487b7100000000000000000000000000000000000000000000000000000000600052602260045260246000fd5b600060028204905060018216806146e557607f821691505b6020821081036146f8576146f761469e565b5b50919050565b7f4f776e61626c653a2063616c6c6572206973206e6f7420746865206f776e6572600082015250565b6000614734602083613d4f565b915061473f826146fe565b602082019050919050565b6000602082019050818103600083015261476381614727565b9050919050565b7f506172616d20746f6f2062696700000000000000000000000000000000000000600082015250565b60006147a0600d83613d4f565b91506147ab8261476a565b602082019050919050565b600060208201905081810360008301526147cf81614793565b9050919050565b7f4f7261636c65206e6f7420726567697374657265640000000000000000000000600082015250565b600061480c601583613d4f565b9150614817826147d6565b602082019050919050565b6000602082019050818103600083015261483b816147ff565b9050919050565b7f4e487b7100000000000000000000000000000000000000000000000000000000600052601160045260246000fd5b600061487c82613e8f565b915061488783613e8f565b9250827fffffffffffffffffffffffffffffffffffffffffffffffffffffffffffffffff038211156148bc576148bb614842565b5b828201905092915050565b7f4552433230566f7465733a20626c6f636b206e6f7420796574206d696e656400600082015250565b60006148fd601f83613d4f565b9150614908826148c7565b602082019050919050565b6000602082019050818103600083015261492c816148f0565b9050919050565b7f62726f6b6572206f6e6c79000000000000000000000000000000000000000000600082015250565b6000614969600b83613d4f565b915061497482614933565b602082019050919050565b600060208201905081810360008301526149988161495c565b9050919050565b7f6e6f20766f6c20746f6b656e0000000000000000000000000000000000000000600082015250565b60006149d5600c83613d4f565b91506149e08261499f565b602082019050919050565b60006020820190508181036000830152614a04816149c8565b9050919050565b600081519050614a1a81613e36565b92915050565b600060208284031215614a3657614a35613dff565b5b6000614a4484828501614a0b565b91505092915050565b6000614a5882613f67565b9050919050565b614a6881614a4d565b82525050565b6000604082019050614a836000830185614a5f565b614a906020830184613fb5565b9392505050565b6000604082019050614aac600083018561409d565b614ab96020830184613fb5565b9392505050565b600081519050614acf81613e99565b92915050565b600060208284031215614aeb57614aea613dff565b5b6000614af984828501614ac0565b91505092915050565b614b0b81613e8f565b82525050565b6000606082019050614b266000830186614b02565b614b336020830185614b02565b614b406040830184614b02565b949350505050565b600081519050614b57816141e8565b92915050565b600060208284031215614b7357614b72613dff565b5b6000614b8184828501614b48565b91505092915050565b7f656d707479206164647265737300000000000000000000000000000000000000600082015250565b6000614bc0600d83613d4f565b9150614bcb82614b8a565b602082019050919050565b60006020820190508181036000830152614bef81614bb3565b9050919050565b6000614c0182613e8f565b9150614c0c83613e8f565b925082821015614c1f57614c1e614842565b5b828203905092915050565b7f4e487b7100000000000000000000000000000000000000000000000000000000600052603260045260246000fd5b7f45524332303a2064656372656173656420616c6c6f77616e63652062656c6f7760008201527f207a65726f000000000000000000000000000000000000000000000000000000602082015250565b6000614cb5602583613d4f565b9150614cc082614c59565b604082019050919050565b60006020820190508181036000830152614ce481614ca8565b9050919050565b7f4552433230566f7465733a207369676e61747572652065787069726564000000600082015250565b6000614d21601d83613d4f565b9150614d2c82614ceb565b602082019050919050565b60006020820190508181036000830152614d5081614d14565b9050919050565b6000608082019050614d6c6000830187614073565b614d79602083018661409d565b614d866040830185613fb5565b614d936060830184613fb5565b95945050505050565b7f4552433230566f7465733a20696e76616c6964206e6f6e636500000000000000600082015250565b6000614dd2601983613d4f565b9150614ddd82614d9c565b602082019050919050565b60006020820190508181036000830152614e0181614dc5565b9050919050565b7f45524332305065726d69743a206578706972656420646561646c696e65000000600082015250565b6000614e3e601d83613d4f565b9150614e4982614e08565b602082019050919050565b60006020820190508181036000830152614e6d81614e31565b9050919050565b600060c082019050614e896000830189614073565b614e96602083018861409d565b614ea3604083018761409d565b614eb06060830186613fb5565b614ebd6080830185613fb5565b614eca60a0830184613fb5565b979650505050505050565b7f45524332305065726d69743a20696e76616c6964207369676e61747572650000600082015250565b6000614f0b601e83613d4f565b9150614f1682614ed5565b602082019050919050565b60006020820190508181036000830152614f3a81614efe565b9050919050565b7f7856000000000000000000000000000000000000000000000000000000000000600082015250565b6000614f77600283613d4f565b9150614f8282614f41565b602082019050919050565b60006020820190508181036000830152614fa681614f6a565b9050919050565b7f4f776e61626c653a206e6577206f776e657220697320746865207a65726f206160008201527f6464726573730000000000000000000000000000000000000000000000000000602082015250565b6000615009602683613d4f565b915061501482614fad565b604082019050919050565b6000602082019050818103600083015261503881614ffc565b9050919050565b7f4552433230566f7465733a20746f74616c20737570706c79207269736b73206f60008201527f766572666c6f77696e6720766f74657300000000000000000000000000000000602082015250565b600061509b603083613d4f565b91506150a68261503f565b604082019050919050565b600060208201905081810360008301526150ca8161508e565b9050919050565b7f45524332303a206d696e7420746f20746865207a65726f206164647265737300600082015250565b6000615107601f83613d4f565b9150615112826150d1565b602082019050919050565b60006020820190508181036000830152615136816150fa565b9050919050565b7f53616665436173743a2076616c756520646f65736e27742066697420696e203260008201527f3234206269747300000000000000000000000000000000000000000000000000602082015250565b6000615199602783613d4f565b91506151a48261513d565b604082019050919050565b600060208201905081810360008301526151c88161518c565b9050919050565b7f53616665436173743a2076616c756520646f65736e27742066697420696e203360008201527f3220626974730000000000000000000000000000000000000000000000000000602082015250565b600061522b602683613d4f565b9150615236826151cf565b604082019050919050565b6000602082019050818103600083015261525a8161521e565b9050919050565b7f45524332303a20617070726f76652066726f6d20746865207a65726f2061646460008201527f7265737300000000000000000000000000000000000000000000000000000000602082015250565b60006152bd602483613d4f565b91506152c882615261565b604082019050919050565b600060208201905081810360008301526152ec816152b0565b9050919050565b7f45524332303a20617070726f766520746f20746865207a65726f20616464726560008201527f7373000000000000000000000000000000000000000000000000000000000000602082015250565b600061534f602283613d4f565b915061535a826152f3565b604082019050919050565b6000602082019050818103600083015261537e81615342565b9050919050565b7f45524332303a20696e73756666696369656e7420616c6c6f77616e6365000000600082015250565b60006153bb601d83613d4f565b91506153c682615385565b602082019050919050565b600060208201905081810360008301526153ea816153ae565b9050919050565b7f45524332303a207472616e736665722066726f6d20746865207a65726f20616460008201527f6472657373000000000000000000000000000000000000000000000000000000602082015250565b600061544d602583613d4f565b9150615458826153f1565b604082019050919050565b6000602082019050818103600083015261547c81615440565b9050919050565b7f45524332303a207472616e7366657220746f20746865207a65726f206164647260008201527f6573730000000000000000000000000000000000000000000000000000000000602082015250565b60006154df602383613d4f565b91506154ea82615483565b604082019050919050565b6000602082019050818103600083015261550e816154d2565b9050919050565b7f45524332303a207472616e7366657220616d6f756e742065786365656473206260008201527f616c616e63650000000000000000000000000000000000000000000000000000602082015250565b6000615571602683613d4f565b915061557c82615515565b604082019050919050565b600060208201905081810360008301526155a081615564565b9050919050565b60006040820190506155bc6000830185613fb5565b6155c96020830184613fb5565b9392505050565b600060a0820190506155e56000830188614073565b6155f26020830187614073565b6155ff6040830186614073565b61560c6060830185613fb5565b615619608083018461409d565b9695505050505050565b7f4e487b7100000000000000000000000000000000000000000000000000000000600052601260045260246000fd5b600061565d82613e8f565b915061566883613e8f565b92508261567857615677615623565b5b828204905092915050565b7f4e487b7100000000000000000000000000000000000000000000000000000000600052603160045260246000fd5b600081905092915050565b7f1901000000000000000000000000000000000000000000000000000000000000600082015250565b60006156f36002836156b2565b91506156fe826156bd565b600282019050919050565b6000819050919050565b61572461571f82614069565b615709565b82525050565b6000615735826156e6565b91506157418285615713565b6020820191506157518284615713565b6020820191508190509392505050565b60006080820190506157766000830187614073565b615783602083018661403f565b6157906040830185614073565b61579d6060830184614073565b95945050505050565b7f4e487b7100000000000000000000000000000000000000000000000000000000600052602160045260246000fd5b7f45434453413a20696e76616c6964207369676e61747572650000000000000000600082015250565b600061580b601883613d4f565b9150615816826157d5565b602082019050919050565b6000602082019050818103600083015261583a816157fe565b9050919050565b7f45434453413a20696e76616c6964207369676e6174757265206c656e67746800600082015250565b6000615877601f83613d4f565b915061588282615841565b602082019050919050565b600060208201905081810360008301526158a68161586a565b9050919050565b7f45434453413a20696e76616c6964207369676e6174757265202773272076616c60008201527f7565000000000000000000000000000000000000000000000000000000000000602082015250565b6000615909602283613d4f565b9150615914826158ad565b604082019050919050565b60006020820190508181036000830152615938816158fc565b9050919050565b7f45434453413a20696e76616c6964207369676e6174757265202776272076616c60008201527f7565000000000000000000000000000000000000000000000000000000000000602082015250565b600061599b602283613d4f565b91506159a68261593f565b604082019050919050565b600060208201905081810360008301526159ca8161598e565b9050919050565b7f45524332303a206275726e2066726f6d20746865207a65726f2061646472657360008201527f7300000000000000000000000000000000000000000000000000000000000000602082015250565b6000615a2d602183613d4f565b9150615a38826159d1565b604082019050919050565b60006020820190508181036000830152615a5c81615a20565b9050919050565b7f45524332303a206275726e20616d6f756e7420657863656564732062616c616e60008201527f6365000000000000000000000000000000000000000000000000000000000000602082015250565b6000615abf602283613d4f565b9150615aca82615a63565b604082019050919050565b60006020820190508181036000830152615aee81615ab2565b905091905056fea2646970667358221220f743e34eb7d9c4185d09dc48a07aba379d871dd103893f024db92f77f2bc615a64736f6c634300080d0033",
  "immutableReferences": {
    "4803": [
      {
        "length": 32,
        "start": 7111
      }
    ],
    "6201": [
      {
        "length": 32,
        "start": 11095
      }
    ],
    "6203": [
      {
        "length": 32,
        "start": 11054
      }
    ],
    "6205": [
      {
        "length": 32,
        "start": 10968
      }
    ],
    "6207": [
      {
        "length": 32,
        "start": 11171
      }
    ],
    "6209": [
      {
        "length": 32,
        "start": 11204
      }
    ],
    "6211": [
      {
        "length": 32,
        "start": 11138
      }
    ]
  },
  "source": "// SPDX-License-Identifier: MIT\npragma solidity ^0.8.4;\n\nimport \"@openzeppelin/contracts/token/ERC20/ERC20.sol\";\nimport \"@openzeppelin/contracts/access/Ownable.sol\";\nimport \"@openzeppelin/contracts/token/ERC20/extensions/draft-ERC20Permit.sol\";\nimport \"@openzeppelin/contracts/token/ERC20/extensions/ERC20Votes.sol\";\nimport \"@openzeppelin/contracts/utils/structs/EnumerableMap.sol\";\nimport \"@openzeppelin/contracts/utils/structs/EnumerableSet.sol\";\nimport \"../pools/Pool.sol\";\nimport \"../libraries/MathLib.sol\";\nimport \"../interfaces/EMoret.sol\";\nimport \"../VolatilityChain.sol\";\nimport \"../VolatilityToken.sol\";\nimport \"../Exchange.sol\";\nimport \"./MoretBroker.sol\";\n\n/// @custom:security-contact eight@moret.io\ncontract Moret is ERC20, Ownable, ERC20Permit, ERC20Votes, EMoret {\n    using MathLib for uint256;\n    using EnumerableSet for EnumerableSet.AddressSet;\n    using EnumerableMap for EnumerableMap.UintToAddressMap;\n\n    mapping(address=>VolatilityChain) internal volatilityChainMap; // volatility oracle: token address => volatiltiy chain address\n    mapping(address=>EnumerableMap.UintToAddressMap) internal volatilityTokenMap; // volatility token list: token address => volatility token map (tenor => volatility tokens)\n    EnumerableSet.AddressSet internal eligibleTradingRoutes; // list of exchange routes that are allowed for hedging transactions\n    EnumerableSet.AddressSet internal volTradingPools; // pools allowed to trade volatility tokens\n\n    uint256 public protocolFee = 0.005e18; // protocol fees payable to governance token each time option contract is exercised\n    address public protocolFeeRecipient;\n    \n    // funding token address\n    ERC20 public funding;\n    MoretBroker public broker;\n\n    constructor(MoretBroker _broker) ERC20(\"Moret\", \"MOR\") ERC20Permit(\"Moret\") {\n        broker = _broker;\n        funding = _broker.funding();\n        _mint(msg.sender, 1e24); // initial mint, 1e6 * 1e18\n        protocolFeeRecipient = msg.sender;\n        }\n    \n    // mint function\n    function mint(address _to, uint256 _amount) external {\n        require(address(broker) == msg.sender, 'broker only');\n        _mint(_to, _amount);}\n    function divest(uint256 _amount) external {\n        uint256 _capitalToDivest = _amount.muldiv(funding.balanceOf(address(this)), totalSupply());\n        _burn(msg.sender, _amount);\n        funding.transfer(msg.sender, _capitalToDivest);\n        // emit DivestFromGov(msg.sender, _capitalToDivest);}\n    }\n\n    // withdraw from certain pool -> \n    function withdrawPool(Pool _pool, uint256 _amount) external onlyOwner{\n        Exchange(_pool.exchange()).withdrawCapital(_pool, _amount);\n        emit WithdrawPoolTokens(address(_pool), _amount);}\n\n    // governable parameters\n    function setProtocolFee(uint256 _newFee) public onlyOwner(){ \n        protocolFee = _newFee;\n        emit UpdateProtocolFees(_newFee);}\n    function setProtocolRecipient(address _newAddress) public onlyOwner(){ \n        require(_newAddress != address(0), \"Param too big\"); \n        protocolFeeRecipient = _newAddress;}\n\n    // update/add new volatility oracles\n    function updateVolChain(address _underlyingAddress, VolatilityChain _newOracle) external onlyOwner{\n        volatilityChainMap[_underlyingAddress] = _newOracle;}\n        // emit UpdateToken( _underlyingAddress, address(_newOracle));}\n    function getVolatilityChain(address _underlyingAddress) public view returns(VolatilityChain){\n        require(address(volatilityChainMap[_underlyingAddress]) != address(0), \"Oracle not registered\");\n        return volatilityChainMap[_underlyingAddress];}\n    \n    // update/get vol tokens.\n    function updateVolToken(address _underlyingAddress, uint256 _tenor, VolatilityToken _volToken) external onlyOwner{ \n        require((_volToken.tenor() == _tenor) && (_volToken.underlying() == _underlyingAddress), 'xV');\n        volatilityTokenMap[_underlyingAddress].set(_tenor, address(_volToken));}\n        // emit UpdateVolToken(_underlyingAddress, _tenor, address(_volToken)); }\n    function getVolatilityToken(address _underlyingAddress, uint256 _tenor) external view returns (VolatilityToken){\n        (bool _success, address _volToken) = volatilityTokenMap[_underlyingAddress].tryGet(_tenor);\n        require(_success, \"no vol token\");\n        return VolatilityToken(_volToken);}\n    \n    // update eligible routes\n    function updateEligibleRoute(address _route, bool _add) public onlyOwner returns(bool){\n        require(_route != address(0), \"empty address\");\n        if(_add) { return eligibleTradingRoutes.add(_route);}\n        else{ return eligibleTradingRoutes.remove(_route);}}\n    function existEligibleRoute(address _route) external view returns(bool){\n        return eligibleTradingRoutes.contains(_route);}\n    \n    // update vol trading pool\n    function updateVolTradingPool(address _poolAddress, bool _add) public onlyOwner returns(bool){\n        require(_poolAddress != address(0), \"empty address\");\n        if(_add) { return volTradingPools.add(_poolAddress);}\n        else{ return volTradingPools.remove(_poolAddress);}}\n    function existVolTradingPool(address _poolAddress) external view returns(bool){\n        return volTradingPools.contains(_poolAddress);}\n\n    // The following functions are overrides required by Solidity.\n\n    function _afterTokenTransfer(address from, address to, uint256 amount)\n        internal\n        override(ERC20, ERC20Votes)\n    {\n        super._afterTokenTransfer(from, to, amount);\n    }\n\n    function _mint(address to, uint256 amount)\n        internal\n        override(ERC20, ERC20Votes)\n    {\n        super._mint(to, amount);\n    }\n\n    function _burn(address account, uint256 amount)\n        internal\n        override(ERC20, ERC20Votes)\n    {\n        super._burn(account, amount);\n    }\n}\n",
  "sourcePath": "/Users/mac/Documents/GitHub/moret/contracts/governance/Moret.sol",
  "compiler": {
    "name": "solc",
    "version": "0.8.13+commit.abaa5c0e.Emscripten.clang"
  },
  "schemaVersion": "3.4.3",
  "updatedAt": "2022-05-02T09:43:37.098Z",
  "devdoc": {
    "custom:security-contact": "eight@moret.io",
    "kind": "dev",
    "methods": {
      "DOMAIN_SEPARATOR()": {
        "details": "See {IERC20Permit-DOMAIN_SEPARATOR}."
      },
      "allowance(address,address)": {
        "details": "See {IERC20-allowance}."
      },
      "approve(address,uint256)": {
        "details": "See {IERC20-approve}. NOTE: If `amount` is the maximum `uint256`, the allowance is not updated on `transferFrom`. This is semantically equivalent to an infinite approval. Requirements: - `spender` cannot be the zero address."
      },
      "balanceOf(address)": {
        "details": "See {IERC20-balanceOf}."
      },
      "checkpoints(address,uint32)": {
        "details": "Get the `pos`-th checkpoint for `account`."
      },
      "decimals()": {
        "details": "Returns the number of decimals used to get its user representation. For example, if `decimals` equals `2`, a balance of `505` tokens should be displayed to a user as `5.05` (`505 / 10 ** 2`). Tokens usually opt for a value of 18, imitating the relationship between Ether and Wei. This is the value {ERC20} uses, unless this function is overridden; NOTE: This information is only used for _display_ purposes: it in no way affects any of the arithmetic of the contract, including {IERC20-balanceOf} and {IERC20-transfer}."
      },
      "decreaseAllowance(address,uint256)": {
        "details": "Atomically decreases the allowance granted to `spender` by the caller. This is an alternative to {approve} that can be used as a mitigation for problems described in {IERC20-approve}. Emits an {Approval} event indicating the updated allowance. Requirements: - `spender` cannot be the zero address. - `spender` must have allowance for the caller of at least `subtractedValue`."
      },
      "delegate(address)": {
        "details": "Delegate votes from the sender to `delegatee`."
      },
      "delegateBySig(address,uint256,uint256,uint8,bytes32,bytes32)": {
        "details": "Delegates votes from signer to `delegatee`"
      },
      "delegates(address)": {
        "details": "Get the address `account` is currently delegating to."
      },
      "getPastTotalSupply(uint256)": {
        "details": "Retrieve the `totalSupply` at the end of `blockNumber`. Note, this value is the sum of all balances. It is but NOT the sum of all the delegated votes! Requirements: - `blockNumber` must have been already mined"
      },
      "getPastVotes(address,uint256)": {
        "details": "Retrieve the number of votes for `account` at the end of `blockNumber`. Requirements: - `blockNumber` must have been already mined"
      },
      "getVotes(address)": {
        "details": "Gets the current votes balance for `account`"
      },
      "increaseAllowance(address,uint256)": {
        "details": "Atomically increases the allowance granted to `spender` by the caller. This is an alternative to {approve} that can be used as a mitigation for problems described in {IERC20-approve}. Emits an {Approval} event indicating the updated allowance. Requirements: - `spender` cannot be the zero address."
      },
      "name()": {
        "details": "Returns the name of the token."
      },
      "nonces(address)": {
        "details": "See {IERC20Permit-nonces}."
      },
      "numCheckpoints(address)": {
        "details": "Get number of checkpoints for `account`."
      },
      "owner()": {
        "details": "Returns the address of the current owner."
      },
      "permit(address,address,uint256,uint256,uint8,bytes32,bytes32)": {
        "details": "See {IERC20Permit-permit}."
      },
      "renounceOwnership()": {
        "details": "Leaves the contract without owner. It will not be possible to call `onlyOwner` functions anymore. Can only be called by the current owner. NOTE: Renouncing ownership will leave the contract without an owner, thereby removing any functionality that is only available to the owner."
      },
      "symbol()": {
        "details": "Returns the symbol of the token, usually a shorter version of the name."
      },
      "totalSupply()": {
        "details": "See {IERC20-totalSupply}."
      },
      "transfer(address,uint256)": {
        "details": "See {IERC20-transfer}. Requirements: - `to` cannot be the zero address. - the caller must have a balance of at least `amount`."
      },
      "transferFrom(address,address,uint256)": {
        "details": "See {IERC20-transferFrom}. Emits an {Approval} event indicating the updated allowance. This is not required by the EIP. See the note at the beginning of {ERC20}. NOTE: Does not update the allowance if the current allowance is the maximum `uint256`. Requirements: - `from` and `to` cannot be the zero address. - `from` must have a balance of at least `amount`. - the caller must have allowance for ``from``'s tokens of at least `amount`."
      },
      "transferOwnership(address)": {
        "details": "Transfers ownership of the contract to a new account (`newOwner`). Can only be called by the current owner."
      }
    },
    "version": 1
  },
  "userdoc": {
    "kind": "user",
    "methods": {},
    "version": 1
  }
}