{
  "contractName": "MoretMarketMaker",
  "abi": [
    {
      "inputs": [
        {
          "internalType": "string",
          "name": "_name",
          "type": "string"
        },
        {
          "internalType": "string",
          "name": "_symbol",
          "type": "string"
        },
        {
          "internalType": "contract OptionVault",
          "name": "_optionVault",
          "type": "address"
        }
      ],
      "stateMutability": "nonpayable",
      "type": "constructor"
    },
    {
      "anonymous": false,
      "inputs": [
        {
          "indexed": true,
          "internalType": "address",
          "name": "owner",
          "type": "address"
        },
        {
          "indexed": true,
          "internalType": "address",
          "name": "spender",
          "type": "address"
        },
        {
          "indexed": false,
          "internalType": "uint256",
          "name": "value",
          "type": "uint256"
        }
      ],
      "name": "Approval",
      "type": "event"
    },
    {
      "anonymous": false,
      "inputs": [
        {
          "indexed": true,
          "internalType": "address",
          "name": "_purchaser",
          "type": "address"
        },
        {
          "components": [
            {
              "internalType": "enum OptionLibrary.PayoffType",
              "name": "poType",
              "type": "uint8"
            },
            {
              "internalType": "enum OptionLibrary.OptionSide",
              "name": "side",
              "type": "uint8"
            },
            {
              "internalType": "enum OptionLibrary.OptionStatus",
              "name": "status",
              "type": "uint8"
            },
            {
              "internalType": "address",
              "name": "holder",
              "type": "address"
            },
            {
              "internalType": "uint256",
              "name": "id",
              "type": "uint256"
            },
            {
              "internalType": "uint256",
              "name": "createTime",
              "type": "uint256"
            },
            {
              "internalType": "uint256",
              "name": "effectiveTime",
              "type": "uint256"
            },
            {
              "internalType": "uint256",
              "name": "tenor",
              "type": "uint256"
            },
            {
              "internalType": "uint256",
              "name": "maturity",
              "type": "uint256"
            },
            {
              "internalType": "uint256",
              "name": "exerciseTime",
              "type": "uint256"
            },
            {
              "internalType": "uint256",
              "name": "amount",
              "type": "uint256"
            },
            {
              "internalType": "uint256",
              "name": "spot",
              "type": "uint256"
            },
            {
              "internalType": "uint256",
              "name": "strike",
              "type": "uint256"
            },
            {
              "internalType": "uint256",
              "name": "volatility",
              "type": "uint256"
            },
            {
              "internalType": "uint256",
              "name": "premium",
              "type": "uint256"
            },
            {
              "internalType": "uint256",
              "name": "cost",
              "type": "uint256"
            }
          ],
          "indexed": false,
          "internalType": "struct OptionLibrary.Option",
          "name": "_option",
          "type": "tuple"
        },
        {
          "indexed": false,
          "internalType": "uint256",
          "name": "_payoff",
          "type": "uint256"
        }
      ],
      "name": "Expire",
      "type": "event"
    },
    {
      "anonymous": false,
      "inputs": [
        {
          "indexed": true,
          "internalType": "address",
          "name": "_purchaser",
          "type": "address"
        },
        {
          "components": [
            {
              "internalType": "enum OptionLibrary.PayoffType",
              "name": "poType",
              "type": "uint8"
            },
            {
              "internalType": "enum OptionLibrary.OptionSide",
              "name": "side",
              "type": "uint8"
            },
            {
              "internalType": "enum OptionLibrary.OptionStatus",
              "name": "status",
              "type": "uint8"
            },
            {
              "internalType": "address",
              "name": "holder",
              "type": "address"
            },
            {
              "internalType": "uint256",
              "name": "id",
              "type": "uint256"
            },
            {
              "internalType": "uint256",
              "name": "createTime",
              "type": "uint256"
            },
            {
              "internalType": "uint256",
              "name": "effectiveTime",
              "type": "uint256"
            },
            {
              "internalType": "uint256",
              "name": "tenor",
              "type": "uint256"
            },
            {
              "internalType": "uint256",
              "name": "maturity",
              "type": "uint256"
            },
            {
              "internalType": "uint256",
              "name": "exerciseTime",
              "type": "uint256"
            },
            {
              "internalType": "uint256",
              "name": "amount",
              "type": "uint256"
            },
            {
              "internalType": "uint256",
              "name": "spot",
              "type": "uint256"
            },
            {
              "internalType": "uint256",
              "name": "strike",
              "type": "uint256"
            },
            {
              "internalType": "uint256",
              "name": "volatility",
              "type": "uint256"
            },
            {
              "internalType": "uint256",
              "name": "premium",
              "type": "uint256"
            },
            {
              "internalType": "uint256",
              "name": "cost",
              "type": "uint256"
            }
          ],
          "indexed": false,
          "internalType": "struct OptionLibrary.Option",
          "name": "_option",
          "type": "tuple"
        },
        {
          "indexed": false,
          "internalType": "uint256",
          "name": "_cost",
          "type": "uint256"
        },
        {
          "indexed": false,
          "internalType": "bool",
          "name": "_inVol",
          "type": "bool"
        }
      ],
      "name": "NewOption",
      "type": "event"
    },
    {
      "anonymous": false,
      "inputs": [
        {
          "indexed": true,
          "internalType": "uint256",
          "name": "_addressId",
          "type": "uint256"
        },
        {
          "indexed": false,
          "internalType": "address",
          "name": "_address",
          "type": "address"
        }
      ],
      "name": "ResetAddress",
      "type": "event"
    },
    {
      "anonymous": false,
      "inputs": [
        {
          "indexed": true,
          "internalType": "uint256",
          "name": "_parameterId",
          "type": "uint256"
        },
        {
          "indexed": false,
          "internalType": "uint256",
          "name": "_parameter",
          "type": "uint256"
        }
      ],
      "name": "ResetParameter",
      "type": "event"
    },
    {
      "anonymous": false,
      "inputs": [
        {
          "indexed": false,
          "internalType": "bool",
          "name": "success",
          "type": "bool"
        },
        {
          "indexed": false,
          "internalType": "bytes",
          "name": "data",
          "type": "bytes"
        }
      ],
      "name": "Response",
      "type": "event"
    },
    {
      "anonymous": false,
      "inputs": [
        {
          "indexed": true,
          "internalType": "bytes32",
          "name": "role",
          "type": "bytes32"
        },
        {
          "indexed": true,
          "internalType": "bytes32",
          "name": "previousAdminRole",
          "type": "bytes32"
        },
        {
          "indexed": true,
          "internalType": "bytes32",
          "name": "newAdminRole",
          "type": "bytes32"
        }
      ],
      "name": "RoleAdminChanged",
      "type": "event"
    },
    {
      "anonymous": false,
      "inputs": [
        {
          "indexed": true,
          "internalType": "bytes32",
          "name": "role",
          "type": "bytes32"
        },
        {
          "indexed": true,
          "internalType": "address",
          "name": "account",
          "type": "address"
        },
        {
          "indexed": true,
          "internalType": "address",
          "name": "sender",
          "type": "address"
        }
      ],
      "name": "RoleGranted",
      "type": "event"
    },
    {
      "anonymous": false,
      "inputs": [
        {
          "indexed": true,
          "internalType": "bytes32",
          "name": "role",
          "type": "bytes32"
        },
        {
          "indexed": true,
          "internalType": "address",
          "name": "account",
          "type": "address"
        },
        {
          "indexed": true,
          "internalType": "address",
          "name": "sender",
          "type": "address"
        }
      ],
      "name": "RoleRevoked",
      "type": "event"
    },
    {
      "anonymous": false,
      "inputs": [
        {
          "indexed": true,
          "internalType": "uint256",
          "name": "_id",
          "type": "uint256"
        },
        {
          "indexed": false,
          "internalType": "uint256",
          "name": "_timestamp",
          "type": "uint256"
        }
      ],
      "name": "StampExpire",
      "type": "event"
    },
    {
      "anonymous": false,
      "inputs": [
        {
          "indexed": true,
          "internalType": "uint256",
          "name": "_id",
          "type": "uint256"
        },
        {
          "indexed": false,
          "internalType": "uint256",
          "name": "_timestamp",
          "type": "uint256"
        }
      ],
      "name": "StampNewOption",
      "type": "event"
    },
    {
      "anonymous": false,
      "inputs": [
        {
          "indexed": true,
          "internalType": "address",
          "name": "from",
          "type": "address"
        },
        {
          "indexed": true,
          "internalType": "address",
          "name": "to",
          "type": "address"
        },
        {
          "indexed": false,
          "internalType": "uint256",
          "name": "value",
          "type": "uint256"
        }
      ],
      "name": "Transfer",
      "type": "event"
    },
    {
      "anonymous": false,
      "inputs": [
        {
          "indexed": true,
          "internalType": "uint256",
          "name": "_tenor",
          "type": "uint256"
        },
        {
          "indexed": false,
          "internalType": "address",
          "name": "_tokenAddress",
          "type": "address"
        }
      ],
      "name": "VolTokenAddition",
      "type": "event"
    },
    {
      "anonymous": false,
      "inputs": [
        {
          "indexed": true,
          "internalType": "uint256",
          "name": "_tenor",
          "type": "uint256"
        }
      ],
      "name": "VolTokenRemoved",
      "type": "event"
    },
    {
      "inputs": [],
      "name": "ADMIN_ROLE",
      "outputs": [
        {
          "internalType": "bytes32",
          "name": "",
          "type": "bytes32"
        }
      ],
      "stateMutability": "view",
      "type": "function",
      "constant": true
    },
    {
      "inputs": [],
      "name": "DEFAULT_ADMIN_ROLE",
      "outputs": [
        {
          "internalType": "bytes32",
          "name": "",
          "type": "bytes32"
        }
      ],
      "stateMutability": "view",
      "type": "function",
      "constant": true
    },
    {
      "inputs": [],
      "name": "EXCHANGE_ROLE",
      "outputs": [
        {
          "internalType": "bytes32",
          "name": "",
          "type": "bytes32"
        }
      ],
      "stateMutability": "view",
      "type": "function",
      "constant": true
    },
    {
      "inputs": [
        {
          "internalType": "address",
          "name": "owner",
          "type": "address"
        },
        {
          "internalType": "address",
          "name": "spender",
          "type": "address"
        }
      ],
      "name": "allowance",
      "outputs": [
        {
          "internalType": "uint256",
          "name": "",
          "type": "uint256"
        }
      ],
      "stateMutability": "view",
      "type": "function",
      "constant": true
    },
    {
      "inputs": [
        {
          "internalType": "address",
          "name": "spender",
          "type": "address"
        },
        {
          "internalType": "uint256",
          "name": "amount",
          "type": "uint256"
        }
      ],
      "name": "approve",
      "outputs": [
        {
          "internalType": "bool",
          "name": "",
          "type": "bool"
        }
      ],
      "stateMutability": "nonpayable",
      "type": "function"
    },
    {
      "inputs": [
        {
          "internalType": "address",
          "name": "account",
          "type": "address"
        }
      ],
      "name": "balanceOf",
      "outputs": [
        {
          "internalType": "uint256",
          "name": "",
          "type": "uint256"
        }
      ],
      "stateMutability": "view",
      "type": "function",
      "constant": true
    },
    {
      "inputs": [],
      "name": "decimals",
      "outputs": [
        {
          "internalType": "uint8",
          "name": "",
          "type": "uint8"
        }
      ],
      "stateMutability": "view",
      "type": "function",
      "constant": true
    },
    {
      "inputs": [
        {
          "internalType": "address",
          "name": "spender",
          "type": "address"
        },
        {
          "internalType": "uint256",
          "name": "subtractedValue",
          "type": "uint256"
        }
      ],
      "name": "decreaseAllowance",
      "outputs": [
        {
          "internalType": "bool",
          "name": "",
          "type": "bool"
        }
      ],
      "stateMutability": "nonpayable",
      "type": "function"
    },
    {
      "inputs": [],
      "name": "exerciseFee",
      "outputs": [
        {
          "internalType": "uint256",
          "name": "",
          "type": "uint256"
        }
      ],
      "stateMutability": "view",
      "type": "function",
      "constant": true
    },
    {
      "inputs": [
        {
          "internalType": "bytes32",
          "name": "role",
          "type": "bytes32"
        }
      ],
      "name": "getRoleAdmin",
      "outputs": [
        {
          "internalType": "bytes32",
          "name": "",
          "type": "bytes32"
        }
      ],
      "stateMutability": "view",
      "type": "function",
      "constant": true
    },
    {
      "inputs": [
        {
          "internalType": "bytes32",
          "name": "role",
          "type": "bytes32"
        },
        {
          "internalType": "address",
          "name": "account",
          "type": "address"
        }
      ],
      "name": "grantRole",
      "outputs": [],
      "stateMutability": "nonpayable",
      "type": "function"
    },
    {
      "inputs": [
        {
          "internalType": "bytes32",
          "name": "role",
          "type": "bytes32"
        },
        {
          "internalType": "address",
          "name": "account",
          "type": "address"
        }
      ],
      "name": "hasRole",
      "outputs": [
        {
          "internalType": "bool",
          "name": "",
          "type": "bool"
        }
      ],
      "stateMutability": "view",
      "type": "function",
      "constant": true
    },
    {
      "inputs": [
        {
          "internalType": "address",
          "name": "spender",
          "type": "address"
        },
        {
          "internalType": "uint256",
          "name": "addedValue",
          "type": "uint256"
        }
      ],
      "name": "increaseAllowance",
      "outputs": [
        {
          "internalType": "bool",
          "name": "",
          "type": "bool"
        }
      ],
      "stateMutability": "nonpayable",
      "type": "function"
    },
    {
      "inputs": [],
      "name": "lendingPoolRateMode",
      "outputs": [
        {
          "internalType": "uint256",
          "name": "",
          "type": "uint256"
        }
      ],
      "stateMutability": "view",
      "type": "function",
      "constant": true
    },
    {
      "inputs": [],
      "name": "maintenanceAddress",
      "outputs": [
        {
          "internalType": "address",
          "name": "",
          "type": "address"
        }
      ],
      "stateMutability": "view",
      "type": "function",
      "constant": true
    },
    {
      "inputs": [],
      "name": "name",
      "outputs": [
        {
          "internalType": "string",
          "name": "",
          "type": "string"
        }
      ],
      "stateMutability": "view",
      "type": "function",
      "constant": true
    },
    {
      "inputs": [
        {
          "internalType": "bytes32",
          "name": "role",
          "type": "bytes32"
        },
        {
          "internalType": "address",
          "name": "account",
          "type": "address"
        }
      ],
      "name": "renounceRole",
      "outputs": [],
      "stateMutability": "nonpayable",
      "type": "function"
    },
    {
      "inputs": [
        {
          "internalType": "bytes32",
          "name": "role",
          "type": "bytes32"
        },
        {
          "internalType": "address",
          "name": "account",
          "type": "address"
        }
      ],
      "name": "revokeRole",
      "outputs": [],
      "stateMutability": "nonpayable",
      "type": "function"
    },
    {
      "inputs": [],
      "name": "settlementFee",
      "outputs": [
        {
          "internalType": "uint256",
          "name": "",
          "type": "uint256"
        }
      ],
      "stateMutability": "view",
      "type": "function",
      "constant": true
    },
    {
      "inputs": [
        {
          "internalType": "bytes4",
          "name": "interfaceId",
          "type": "bytes4"
        }
      ],
      "name": "supportsInterface",
      "outputs": [
        {
          "internalType": "bool",
          "name": "",
          "type": "bool"
        }
      ],
      "stateMutability": "view",
      "type": "function",
      "constant": true
    },
    {
      "inputs": [],
      "name": "swapSlippage",
      "outputs": [
        {
          "internalType": "uint256",
          "name": "",
          "type": "uint256"
        }
      ],
      "stateMutability": "view",
      "type": "function",
      "constant": true
    },
    {
      "inputs": [],
      "name": "symbol",
      "outputs": [
        {
          "internalType": "string",
          "name": "",
          "type": "string"
        }
      ],
      "stateMutability": "view",
      "type": "function",
      "constant": true
    },
    {
      "inputs": [],
      "name": "totalSupply",
      "outputs": [
        {
          "internalType": "uint256",
          "name": "",
          "type": "uint256"
        }
      ],
      "stateMutability": "view",
      "type": "function",
      "constant": true
    },
    {
      "inputs": [
        {
          "internalType": "address",
          "name": "recipient",
          "type": "address"
        },
        {
          "internalType": "uint256",
          "name": "amount",
          "type": "uint256"
        }
      ],
      "name": "transfer",
      "outputs": [
        {
          "internalType": "bool",
          "name": "",
          "type": "bool"
        }
      ],
      "stateMutability": "nonpayable",
      "type": "function"
    },
    {
      "inputs": [
        {
          "internalType": "address",
          "name": "sender",
          "type": "address"
        },
        {
          "internalType": "address",
          "name": "recipient",
          "type": "address"
        },
        {
          "internalType": "uint256",
          "name": "amount",
          "type": "uint256"
        }
      ],
      "name": "transferFrom",
      "outputs": [
        {
          "internalType": "bool",
          "name": "",
          "type": "bool"
        }
      ],
      "stateMutability": "nonpayable",
      "type": "function"
    },
    {
      "inputs": [
        {
          "internalType": "address",
          "name": "_exerciseFeeRecipient",
          "type": "address"
        }
      ],
      "name": "expireOptions",
      "outputs": [],
      "stateMutability": "nonpayable",
      "type": "function"
    },
    {
      "inputs": [
        {
          "internalType": "bool",
          "name": "_net",
          "type": "bool"
        },
        {
          "internalType": "bool",
          "name": "_average",
          "type": "bool"
        }
      ],
      "name": "calcCapital",
      "outputs": [
        {
          "internalType": "uint256",
          "name": "_capital",
          "type": "uint256"
        }
      ],
      "stateMutability": "view",
      "type": "function",
      "constant": true
    },
    {
      "inputs": [
        {
          "internalType": "uint256",
          "name": "_depositAmount",
          "type": "uint256"
        }
      ],
      "name": "addCapital",
      "outputs": [],
      "stateMutability": "nonpayable",
      "type": "function"
    },
    {
      "inputs": [
        {
          "internalType": "uint256",
          "name": "_burnMPTokenAmount",
          "type": "uint256"
        }
      ],
      "name": "withdrawCapital",
      "outputs": [],
      "stateMutability": "nonpayable",
      "type": "function"
    },
    {
      "inputs": [
        {
          "internalType": "int256",
          "name": "_underlyingAmt",
          "type": "int256"
        },
        {
          "internalType": "int256",
          "name": "_fundingAmt",
          "type": "int256"
        },
        {
          "internalType": "address payable",
          "name": "_spender",
          "type": "address"
        },
        {
          "internalType": "bytes",
          "name": "_calldata",
          "type": "bytes"
        },
        {
          "internalType": "uint256",
          "name": "_gas",
          "type": "uint256"
        }
      ],
      "name": "tradeSwapAggregate",
      "outputs": [],
      "stateMutability": "nonpayable",
      "type": "function"
    },
    {
      "inputs": [
        {
          "internalType": "int256",
          "name": "_underlyingAmt",
          "type": "int256"
        },
        {
          "internalType": "int256",
          "name": "_fundingAmt",
          "type": "int256"
        },
        {
          "internalType": "contract IUniswapV2Router02",
          "name": "_router",
          "type": "address"
        },
        {
          "internalType": "uint256",
          "name": "_deadline",
          "type": "uint256"
        }
      ],
      "name": "tradeSwaps",
      "outputs": [],
      "stateMutability": "nonpayable",
      "type": "function"
    },
    {
      "inputs": [],
      "name": "hedgeTradesForLoans",
      "outputs": [],
      "stateMutability": "nonpayable",
      "type": "function"
    },
    {
      "inputs": [
        {
          "internalType": "uint256",
          "name": "_newFee",
          "type": "uint256"
        }
      ],
      "name": "resetSettlementFee",
      "outputs": [],
      "stateMutability": "nonpayable",
      "type": "function"
    },
    {
      "inputs": [
        {
          "internalType": "uint256",
          "name": "_newFee",
          "type": "uint256"
        }
      ],
      "name": "resetExerciseFee",
      "outputs": [],
      "stateMutability": "nonpayable",
      "type": "function"
    },
    {
      "inputs": [
        {
          "internalType": "uint256",
          "name": "_slippage",
          "type": "uint256"
        }
      ],
      "name": "resetSlippage",
      "outputs": [],
      "stateMutability": "nonpayable",
      "type": "function"
    },
    {
      "inputs": [
        {
          "internalType": "uint256",
          "name": "_newRateMode",
          "type": "uint256"
        }
      ],
      "name": "resetLendingPoolRateMode",
      "outputs": [],
      "stateMutability": "nonpayable",
      "type": "function"
    },
    {
      "inputs": [
        {
          "internalType": "address",
          "name": "_newAddress",
          "type": "address"
        }
      ],
      "name": "resetMaintenance",
      "outputs": [],
      "stateMutability": "nonpayable",
      "type": "function"
    }
  ],
  "bytecode": "0x6101006040526611c37937e080006006556611c37937e080006007556601c6bf5263400060085560026009553480156200003857600080fd5b5060405162006cd738038062006cd783398181016040528101906200005e9190620009a0565b8282816003908051906020019062000078929190620006da565b50806004908051906020019062000091929190620006da565b505050620000a96000801b33620003dc60201b60201c565b620000db7fa49807205ce4d355092ef5a8a18f56e8913cf4a201fbe287825b095693c2177533620003dc60201b60201c565b6200010d7f28d62fc77014de57a1bbaa8212ff0979fa61ab00d377b4b8d9762048fb41996133620003dc60201b60201c565b33600a60006101000a81548173ffffffffffffffffffffffffffffffffffffffff021916908373ffffffffffffffffffffffffffffffffffffffff1602179055508073ffffffffffffffffffffffffffffffffffffffff1660a08173ffffffffffffffffffffffffffffffffffffffff16815250508073ffffffffffffffffffffffffffffffffffffffff16636f307dc36040518163ffffffff1660e01b8152600401602060405180830381865afa158015620001ce573d6000803e3d6000fd5b505050506040513d601f19601f82011682018060405250810190620001f4919062000a7f565b73ffffffffffffffffffffffffffffffffffffffff1660c08173ffffffffffffffffffffffffffffffffffffffff16815250508073ffffffffffffffffffffffffffffffffffffffff1663cb4c86b76040518163ffffffff1660e01b8152600401602060405180830381865afa15801562000273573d6000803e3d6000fd5b505050506040513d601f19601f8201168201806040525081019062000299919062000a7f565b73ffffffffffffffffffffffffffffffffffffffff1660e08173ffffffffffffffffffffffffffffffffffffffff16815250508073ffffffffffffffffffffffffffffffffffffffff1663cb4c86b76040518163ffffffff1660e01b8152600401602060405180830381865afa15801562000318573d6000803e3d6000fd5b505050506040513d601f19601f820116820180604052508101906200033e919062000a7f565b73ffffffffffffffffffffffffffffffffffffffff1663313ce5676040518163ffffffff1660e01b8152600401602060405180830381865afa15801562000389573d6000803e3d6000fd5b505050506040513d601f19601f82011682018060405250810190620003af919062000aef565b60ff1660808181525050620003d333670de0b6b3a7640000620003f260201b60201c565b50505062000ccd565b620003ee82826200056b60201b60201c565b5050565b600073ffffffffffffffffffffffffffffffffffffffff168273ffffffffffffffffffffffffffffffffffffffff16141562000465576040517f08c379a00000000000000000000000000000000000000000000000000000000081526004016200045c9062000b82565b60405180910390fd5b62000479600083836200065d60201b60201c565b80600260008282546200048d919062000bdd565b92505081905550806000808473ffffffffffffffffffffffffffffffffffffffff1673ffffffffffffffffffffffffffffffffffffffff1681526020019081526020016000206000828254620004e4919062000bdd565b925050819055508173ffffffffffffffffffffffffffffffffffffffff16600073ffffffffffffffffffffffffffffffffffffffff167fddf252ad1be2c89b69c2b068fc378daa952ba7f163c4a11628f55a4df523b3ef836040516200054b919062000c4b565b60405180910390a362000567600083836200066260201b60201c565b5050565b6200057d82826200066760201b60201c565b620006595760016005600084815260200190815260200160002060000160008373ffffffffffffffffffffffffffffffffffffffff1673ffffffffffffffffffffffffffffffffffffffff16815260200190815260200160002060006101000a81548160ff021916908315150217905550620005fe620006d260201b60201c565b73ffffffffffffffffffffffffffffffffffffffff168173ffffffffffffffffffffffffffffffffffffffff16837f2f8788117e7eff1d82e926ec794901d17c78024a50270940304540a733656f0d60405160405180910390a45b5050565b505050565b505050565b60006005600084815260200190815260200160002060000160008373ffffffffffffffffffffffffffffffffffffffff1673ffffffffffffffffffffffffffffffffffffffff16815260200190815260200160002060009054906101000a900460ff16905092915050565b600033905090565b828054620006e89062000c97565b90600052602060002090601f0160209004810192826200070c576000855562000758565b82601f106200072757805160ff191683800117855562000758565b8280016001018555821562000758579182015b82811115620007575782518255916020019190600101906200073a565b5b5090506200076791906200076b565b5090565b5b80821115620007865760008160009055506001016200076c565b5090565b6000604051905090565b600080fd5b600080fd5b600080fd5b600080fd5b6000601f19601f8301169050919050565b7f4e487b7100000000000000000000000000000000000000000000000000000000600052604160045260246000fd5b620007f382620007a8565b810181811067ffffffffffffffff82111715620008155762000814620007b9565b5b80604052505050565b60006200082a6200078a565b9050620008388282620007e8565b919050565b600067ffffffffffffffff8211156200085b576200085a620007b9565b5b6200086682620007a8565b9050602081019050919050565b60005b838110156200089357808201518184015260208101905062000876565b83811115620008a3576000848401525b50505050565b6000620008c0620008ba846200083d565b6200081e565b905082815260208101848484011115620008df57620008de620007a3565b5b620008ec84828562000873565b509392505050565b600082601f8301126200090c576200090b6200079e565b5b81516200091e848260208601620008a9565b91505092915050565b600073ffffffffffffffffffffffffffffffffffffffff82169050919050565b6000620009548262000927565b9050919050565b6000620009688262000947565b9050919050565b6200097a816200095b565b81146200098657600080fd5b50565b6000815190506200099a816200096f565b92915050565b600080600060608486031215620009bc57620009bb62000794565b5b600084015167ffffffffffffffff811115620009dd57620009dc62000799565b5b620009eb86828701620008f4565b935050602084015167ffffffffffffffff81111562000a0f5762000a0e62000799565b5b62000a1d86828701620008f4565b925050604062000a308682870162000989565b9150509250925092565b600062000a478262000947565b9050919050565b62000a598162000a3a565b811462000a6557600080fd5b50565b60008151905062000a798162000a4e565b92915050565b60006020828403121562000a985762000a9762000794565b5b600062000aa88482850162000a68565b91505092915050565b600060ff82169050919050565b62000ac98162000ab1565b811462000ad557600080fd5b50565b60008151905062000ae98162000abe565b92915050565b60006020828403121562000b085762000b0762000794565b5b600062000b188482850162000ad8565b91505092915050565b600082825260208201905092915050565b7f45524332303a206d696e7420746f20746865207a65726f206164647265737300600082015250565b600062000b6a601f8362000b21565b915062000b778262000b32565b602082019050919050565b6000602082019050818103600083015262000b9d8162000b5b565b9050919050565b6000819050919050565b7f4e487b7100000000000000000000000000000000000000000000000000000000600052601160045260246000fd5b600062000bea8262000ba4565b915062000bf78362000ba4565b9250827fffffffffffffffffffffffffffffffffffffffffffffffffffffffffffffffff0382111562000c2f5762000c2e62000bae565b5b828201905092915050565b62000c458162000ba4565b82525050565b600060208201905062000c62600083018462000c3a565b92915050565b7f4e487b7100000000000000000000000000000000000000000000000000000000600052602260045260246000fd5b6000600282049050600182168062000cb057607f821691505b6020821081141562000cc75762000cc662000c68565b5b50919050565b60805160a05160c05160e051615efe62000dd960003960008181610bea01528181610e3e0152818161105f015281816112030152818161184b0152818161194401528181611cfc01528181611ed40152818161214601528181612c0b0152612e200152600081816119e001528181611a7701528181611b5201528181611c4b01528181611eb3015261212501526000818161082a015281816108bb0152818161094901528181610aec01528181610c2601528181610e7a015281816116980152818161173e0152818161258b0152818161263001526126bf015260008181610ce201528181610f36015281816110db0152818161125d01528181612b040152612d950152615efe6000f3fe608060405234801561001057600080fd5b50600436106102275760003560e01c806346c777d811610130578063a457c2d7116100b8578063d547741f1161007c578063d547741f1461067a578063d95b0a1214610696578063dd62ed3e146106b2578063e3f828fa146106e2578063ecc513f0146106fe57610227565b8063a457c2d7146105c2578063a9059cbb146105f2578063b82e106d14610622578063bea10f9614610640578063d1c699aa1461065c57610227565b806375b238fc116100ff57806375b238fc1461051a5780637d1d7fb81461053857806391d148541461055657806395d89b4114610586578063a217fddf146105a457610227565b806346c777d814610480578063634479021461049c57806370a08231146104cc578063719d5f83146104fc57610227565b80632f2ff15d116101b3578063395093511161018257806339509351146103de5780633b7345011461040e5780633e30f6511461042c5780633e8c47c01461044857806345b2f91c1461046457610227565b80632f2ff15d1461037e578063313ce5671461039a57806336568abe146103b85780633733116d146103d457610227565b8063095ea7b3116101fa578063095ea7b3146102b257806318160ddd146102e25780631aedeabe1461030057806323b872dd1461031e578063248a9ca31461034e57610227565b806301ffc9a71461022c57806306fdde031461025c57806307ba08ce1461027a5780630837ecfd14610296575b600080fd5b61024660048036038101906102419190613da6565b61071a565b6040516102539190613dee565b60405180910390f35b610264610794565b6040516102719190613ea2565b60405180910390f35b610294600480360381019061028f9190613f22565b610826565b005b6102b060048036038101906102ab9190613f85565b6113d8565b005b6102cc60048036038101906102c79190613fb2565b611466565b6040516102d99190613dee565b60405180910390f35b6102ea611484565b6040516102f79190614001565b60405180910390f35b61030861148e565b6040516103159190614001565b60405180910390f35b6103386004803603810190610333919061401c565b611494565b6040516103459190613dee565b60405180910390f35b610368600480360381019061036391906140a5565b61158c565b60405161037591906140e1565b60405180910390f35b610398600480360381019061039391906140fc565b6115ac565b005b6103a26115d5565b6040516103af9190614158565b60405180910390f35b6103d260048036038101906103cd91906140fc565b6115de565b005b6103dc611661565b005b6103f860048036038101906103f39190613fb2565b611d90565b6040516104059190613dee565b60405180910390f35b610416611e3c565b60405161042391906140e1565b60405180910390f35b6104466004803603810190610441919061424c565b611e60565b005b610462600480360381019061045d9190614324565b6120cf565b005b61047e60048036038101906104799190613f22565b612417565b005b61049a60048036038101906104959190613f85565b6124c7565b005b6104b660048036038101906104b191906143b7565b612587565b6040516104c39190614001565b60405180910390f35b6104e660048036038101906104e19190613f22565b61283a565b6040516104f39190614001565b60405180910390f35b610504612882565b6040516105119190614406565b60405180910390f35b6105226128a8565b60405161052f91906140e1565b60405180910390f35b6105406128cc565b60405161054d9190614001565b60405180910390f35b610570600480360381019061056b91906140fc565b6128d2565b60405161057d9190613dee565b60405180910390f35b61058e61293d565b60405161059b9190613ea2565b60405180910390f35b6105ac6129cf565b6040516105b991906140e1565b60405180910390f35b6105dc60048036038101906105d79190613fb2565b6129d6565b6040516105e99190613dee565b60405180910390f35b61060c60048036038101906106079190613fb2565b612ac1565b6040516106199190613dee565b60405180910390f35b61062a612adf565b6040516106379190614001565b60405180910390f35b61065a60048036038101906106559190613f85565b612ae5565b005b610664612cc0565b6040516106719190614001565b60405180910390f35b610694600480360381019061068f91906140fc565b612cc6565b005b6106b060048036038101906106ab9190613f85565b612cef565b005b6106cc60048036038101906106c79190614421565b612ec9565b6040516106d99190614001565b60405180910390f35b6106fc60048036038101906106f79190613f85565b612f50565b005b61071860048036038101906107139190613f85565b612fc6565b005b60007f7965db0b000000000000000000000000000000000000000000000000000000007bffffffffffffffffffffffffffffffffffffffffffffffffffffffff1916827bffffffffffffffffffffffffffffffffffffffffffffffffffffffff1916148061078d575061078c82613086565b5b9050919050565b6060600380546107a390614490565b80601f01602080910402602001604051908101604052809291908181526020018280546107cf90614490565b801561081c5780601f106107f15761010080835404028352916020019161081c565b820191906000526020600020905b8154815290600101906020018083116107ff57829003601f168201915b5050505050905090565b60007f000000000000000000000000000000000000000000000000000000000000000073ffffffffffffffffffffffffffffffffffffffff16637652e7c46040518163ffffffff1660e01b8152600401602060405180830381865afa158015610893573d6000803e3d6000fd5b505050506040513d601f19601f820116820180604052508101906108b791906144d7565b90507f000000000000000000000000000000000000000000000000000000000000000073ffffffffffffffffffffffffffffffffffffffff1663637baf60826040518263ffffffff1660e01b81526004016109129190614001565b600060405180830381600087803b15801561092c57600080fd5b505af1158015610940573d6000803e3d6000fd5b505050506000807f000000000000000000000000000000000000000000000000000000000000000073ffffffffffffffffffffffffffffffffffffffff166385ae10e6846040518263ffffffff1660e01b81526004016109a09190614001565b6040805180830381865afa1580156109bc573d6000803e3d6000fd5b505050506040513d601f19601f820116820180604052508101906109e09190614504565b9150915060008273__FullMath______________________________63fed4a0f390916006546040518363ffffffff1660e01b8152600401610a23929190614553565b602060405180830381865af4158015610a40573d6000803e3d6000fd5b505050506040513d601f19601f82011682018060405250810190610a6491906144d7565b905060008373__FullMath______________________________63fed4a0f390916007546040518363ffffffff1660e01b8152600401610aa5929190614553565b602060405180830381865af4158015610ac2573d6000803e3d6000fd5b505050506040513d601f19601f82011682018060405250810190610ae691906144d7565b905060007f000000000000000000000000000000000000000000000000000000000000000073ffffffffffffffffffffffffffffffffffffffff16631ce5e9a6876040518263ffffffff1660e01b8152600401610b439190614001565b61020060405180830381865afa158015610b61573d6000803e3d6000fd5b505050506040513d601f19601f82011682018060405250810190610b8591906147fa565b905060008160200151905060006001811115610ba457610ba3614828565b5b816001811115610bb757610bb6614828565b5b1415610e0457610bd2858486610bcd9190614886565b6130f0565b85610bdd91906148dc565b94506000851115610dff577f000000000000000000000000000000000000000000000000000000000000000073ffffffffffffffffffffffffffffffffffffffff1663a9059cbb7f000000000000000000000000000000000000000000000000000000000000000073ffffffffffffffffffffffffffffffffffffffff16631ce5e9a68a6040518263ffffffff1660e01b8152600401610c7d9190614001565b61020060405180830381865afa158015610c9b573d6000803e3d6000fd5b505050506040513d601f19601f82011682018060405250810190610cbf91906147fa565b606001518773__MarketLibrary_________________________63174e20e690917f00000000000000000000000000000000000000000000000000000000000000006040518363ffffffff1660e01b8152600401610d1e929190614553565b602060405180830381865af4158015610d3b573d6000803e3d6000fd5b505050506040513d601f19601f82011682018060405250810190610d5f91906144d7565b6040518363ffffffff1660e01b8152600401610d7c929190614910565b6020604051808303816000875af1158015610d9b573d6000803e3d6000fd5b505050506040513d601f19601f82011682018060405250810190610dbf919061494e565b610dfe576040517f08c379a0000000000000000000000000000000000000000000000000000000008152600401610df5906149c7565b60405180910390fd5b5b611054565b600180811115610e1757610e16614828565b5b816001811115610e2a57610e29614828565b5b148015610e375750600085115b15611053577f000000000000000000000000000000000000000000000000000000000000000073ffffffffffffffffffffffffffffffffffffffff1663a9059cbb7f000000000000000000000000000000000000000000000000000000000000000073ffffffffffffffffffffffffffffffffffffffff16631ce5e9a68a6040518263ffffffff1660e01b8152600401610ed19190614001565b61020060405180830381865afa158015610eef573d6000803e3d6000fd5b505050506040513d601f19601f82011682018060405250810190610f1391906147fa565b606001518773__MarketLibrary_________________________63174e20e690917f00000000000000000000000000000000000000000000000000000000000000006040518363ffffffff1660e01b8152600401610f72929190614553565b602060405180830381865af4158015610f8f573d6000803e3d6000fd5b505050506040513d601f19601f82011682018060405250810190610fb391906144d7565b6040518363ffffffff1660e01b8152600401610fd0929190614910565b6020604051808303816000875af1158015610fef573d6000803e3d6000fd5b505050506040513d601f19601f82011682018060405250810190611013919061494e565b611052576040517f08c379a0000000000000000000000000000000000000000000000000000000008152600401611049906149c7565b60405180910390fd5b5b5b60008411156111f8577f000000000000000000000000000000000000000000000000000000000000000073ffffffffffffffffffffffffffffffffffffffff1663a9059cbb600a60009054906101000a900473ffffffffffffffffffffffffffffffffffffffff168673__MarketLibrary_________________________63174e20e690917f00000000000000000000000000000000000000000000000000000000000000006040518363ffffffff1660e01b8152600401611117929190614553565b602060405180830381865af4158015611134573d6000803e3d6000fd5b505050506040513d601f19601f8201168201806040525081019061115891906144d7565b6040518363ffffffff1660e01b8152600401611175929190614910565b6020604051808303816000875af1158015611194573d6000803e3d6000fd5b505050506040513d601f19601f820116820180604052508101906111b8919061494e565b6111f7576040517f08c379a00000000000000000000000000000000000000000000000000000000081526004016111ee90614a33565b60405180910390fd5b5b600083111561137a577f000000000000000000000000000000000000000000000000000000000000000073ffffffffffffffffffffffffffffffffffffffff1663a9059cbb898573__MarketLibrary_________________________63174e20e690917f00000000000000000000000000000000000000000000000000000000000000006040518363ffffffff1660e01b8152600401611299929190614553565b602060405180830381865af41580156112b6573d6000803e3d6000fd5b505050506040513d601f19601f820116820180604052508101906112da91906144d7565b6040518363ffffffff1660e01b81526004016112f7929190614910565b6020604051808303816000875af1158015611316573d6000803e3d6000fd5b505050506040513d601f19601f8201168201806040525081019061133a919061494e565b611379576040517f08c379a000000000000000000000000000000000000000000000000000000000815260040161137090614a9f565b60405180910390fd5b5b816060015173ffffffffffffffffffffffffffffffffffffffff167fe12237cf6b49de0ce802659bc13dca020d3c1456b6a375bdc2c806b1b43eca5383876040516113c6929190614cff565b60405180910390a25050505050505050565b7fa49807205ce4d355092ef5a8a18f56e8913cf4a201fbe287825b095693c2177561140a81611405613109565b613111565b60018214806114195750600282145b61142257600080fd5b8160098190555060037f1f77a5f1218c5e380f0425a2e88a823d831b5f8906f5ab4db8b1565a36f780d78360405161145a9190614001565b60405180910390a25050565b600061147a611473613109565b84846131ae565b6001905092915050565b6000600254905090565b60085481565b60006114a1848484613379565b6000600160008673ffffffffffffffffffffffffffffffffffffffff1673ffffffffffffffffffffffffffffffffffffffff16815260200190815260200160002060006114ec613109565b73ffffffffffffffffffffffffffffffffffffffff1673ffffffffffffffffffffffffffffffffffffffff1681526020019081526020016000205490508281101561156c576040517f08c379a000000000000000000000000000000000000000000000000000000000815260040161156390614d9c565b60405180910390fd5b61158085611578613109565b8584036131ae565b60019150509392505050565b600060056000838152602001908152602001600020600101549050919050565b6115b58261158c565b6115c6816115c1613109565b613111565b6115d083836135fa565b505050565b60006012905090565b6115e6613109565b73ffffffffffffffffffffffffffffffffffffffff168173ffffffffffffffffffffffffffffffffffffffff1614611653576040517f08c379a000000000000000000000000000000000000000000000000000000000815260040161164a90614e2e565b60405180910390fd5b61165d82826136db565b5050565b7f28d62fc77014de57a1bbaa8212ff0979fa61ab00d377b4b8d9762048fb4199616116938161168e613109565b613111565b6000807f000000000000000000000000000000000000000000000000000000000000000073ffffffffffffffffffffffffffffffffffffffff1663305868da306009546040518363ffffffff1660e01b81526004016116f3929190614910565b608060405180830381865afa158015611710573d6000803e3d6000fd5b505050506040513d601f19601f820116820180604052508101906117349190614e63565b50509150915060007f000000000000000000000000000000000000000000000000000000000000000073ffffffffffffffffffffffffffffffffffffffff1663251e1e8a6040518163ffffffff1660e01b8152600401602060405180830381865afa1580156117a7573d6000803e3d6000fd5b505050506040513d601f19601f820116820180604052508101906117cb9190614f08565b73ffffffffffffffffffffffffffffffffffffffff16630261bf8b6040518163ffffffff1660e01b8152600401602060405180830381865afa158015611815573d6000803e3d6000fd5b505050506040513d601f19601f820116820180604052508101906118399190614f35565b9050600081905060008313156119b9577f000000000000000000000000000000000000000000000000000000000000000073ffffffffffffffffffffffffffffffffffffffff1663095ea7b383856040518363ffffffff1660e01b81526004016118a4929190614910565b6020604051808303816000875af11580156118c3573d6000803e3d6000fd5b505050506040513d601f19601f820116820180604052508101906118e7919061494e565b611926576040517f08c379a000000000000000000000000000000000000000000000000000000000815260040161191d90614fae565b60405180910390fd5b8073ffffffffffffffffffffffffffffffffffffffff1663e8eda9df7f0000000000000000000000000000000000000000000000000000000000000000853060006040518563ffffffff1660e01b81526004016119869493929190615021565b600060405180830381600087803b1580156119a057600080fd5b505af11580156119b4573d6000803e3d6000fd5b505050505b6000841315611a5d578073ffffffffffffffffffffffffffffffffffffffff1663a415bcad7f0000000000000000000000000000000000000000000000000000000000000000866009546000306040518663ffffffff1660e01b8152600401611a26959493929190615066565b600060405180830381600087803b158015611a4057600080fd5b505af1158015611a54573d6000803e3d6000fd5b50505050611cd5565b6000841215611cd457600084611a72906150b9565b9050807f000000000000000000000000000000000000000000000000000000000000000073ffffffffffffffffffffffffffffffffffffffff166370a08231306040518263ffffffff1660e01b8152600401611ace9190614406565b602060405180830381865afa158015611aeb573d6000803e3d6000fd5b505050506040513d601f19601f82011682018060405250810190611b0f91906144d7565b1015611b50576040517f08c379a0000000000000000000000000000000000000000000000000000000008152600401611b479061514e565b60405180910390fd5b7f000000000000000000000000000000000000000000000000000000000000000073ffffffffffffffffffffffffffffffffffffffff1663095ea7b384836040518363ffffffff1660e01b8152600401611bab929190614910565b6020604051808303816000875af1158015611bca573d6000803e3d6000fd5b505050506040513d601f19601f82011682018060405250810190611bee919061494e565b611c2d576040517f08c379a0000000000000000000000000000000000000000000000000000000008152600401611c24906151ba565b60405180910390fd5b8173ffffffffffffffffffffffffffffffffffffffff1663573ade817f000000000000000000000000000000000000000000000000000000000000000083600954306040518563ffffffff1660e01b8152600401611c8e94939291906151da565b6020604051808303816000875af1158015611cad573d6000803e3d6000fd5b505050506040513d601f19601f82011682018060405250810190611cd191906144d7565b50505b5b6000831215611d89578073ffffffffffffffffffffffffffffffffffffffff166369328dec7f000000000000000000000000000000000000000000000000000000000000000085611d25906150b9565b306040518463ffffffff1660e01b8152600401611d449392919061521f565b6020604051808303816000875af1158015611d63573d6000803e3d6000fd5b505050506040513d601f19601f82011682018060405250810190611d8791906144d7565b505b5050505050565b6000611e32611d9d613109565b848460016000611dab613109565b73ffffffffffffffffffffffffffffffffffffffff1673ffffffffffffffffffffffffffffffffffffffff16815260200190815260200160002060008873ffffffffffffffffffffffffffffffffffffffff1673ffffffffffffffffffffffffffffffffffffffff16815260200190815260200160002054611e2d9190614886565b6131ae565b6001905092915050565b7f28d62fc77014de57a1bbaa8212ff0979fa61ab00d377b4b8d9762048fb41996181565b7f28d62fc77014de57a1bbaa8212ff0979fa61ab00d377b4b8d9762048fb419961611e9281611e8d613109565b613111565b60008073__MarketLibrary_________________________63865c99848a8a7f00000000000000000000000000000000000000000000000000000000000000007f00000000000000000000000000000000000000000000000000000000000000006040518563ffffffff1660e01b8152600401611f129493929190615274565b608060405180830381865af4158015611f2f573d6000803e3d6000fd5b505050506040513d601f19601f82011682018060405250810190611f5391906152b9565b5092505091508073ffffffffffffffffffffffffffffffffffffffff1663095ea7b388846040518363ffffffff1660e01b8152600401611f94929190615375565b6020604051808303816000875af1158015611fb3573d6000803e3d6000fd5b505050506040513d601f19601f82011682018060405250810190611fd7919061494e565b612016576040517f08c379a000000000000000000000000000000000000000000000000000000000815260040161200d906153ea565b60405180910390fd5b6000808873ffffffffffffffffffffffffffffffffffffffff16868989604051612041929190615449565b60006040518083038160008787f1925050503d806000811461207f576040519150601f19603f3d011682016040523d82523d6000602084013e612084565b606091505b50915091507f13848c3e38f8886f3f5d2ad9dff80d8092c2bbb8efd5b887a99c2c6cfc09ac2a82826040516120ba9291906154b7565b60405180910390a15050505050505050505050565b7f28d62fc77014de57a1bbaa8212ff0979fa61ab00d377b4b8d9762048fb419961612101816120fc613109565b613111565b60008060008073__MarketLibrary_________________________63865c99848a8a7f00000000000000000000000000000000000000000000000000000000000000007f00000000000000000000000000000000000000000000000000000000000000006040518563ffffffff1660e01b81526004016121849493929190615274565b608060405180830381865af41580156121a1573d6000803e3d6000fd5b505050506040513d601f19601f820116820180604052508101906121c591906152b9565b93509350935093508173ffffffffffffffffffffffffffffffffffffffff1663095ea7b388866040518363ffffffff1660e01b8152600401612208929190614910565b6020604051808303816000875af1158015612227573d6000803e3d6000fd5b505050506040513d601f19601f8201168201806040525081019061224b919061494e565b61228a576040517f08c379a0000000000000000000000000000000000000000000000000000000008152600401612281906153ea565b60405180910390fd5b6000600267ffffffffffffffff8111156122a7576122a6614581565b5b6040519080825280602002602001820160405280156122d55781602001602082028036833780820191505090505b50905082816000815181106122ed576122ec6154e7565b5b602002602001019073ffffffffffffffffffffffffffffffffffffffff16908173ffffffffffffffffffffffffffffffffffffffff1681525050818160018151811061233c5761233b6154e7565b5b602002602001019073ffffffffffffffffffffffffffffffffffffffff16908173ffffffffffffffffffffffffffffffffffffffff16815250508773ffffffffffffffffffffffffffffffffffffffff16638803dbee858784308c426123a29190614886565b6040518663ffffffff1660e01b81526004016123c29594939291906155c5565b6000604051808303816000875af11580156123e1573d6000803e3d6000fd5b505050506040513d6000823e3d601f19601f8201168201806040525081019061240a91906156e2565b5050505050505050505050565b7fa49807205ce4d355092ef5a8a18f56e8913cf4a201fbe287825b095693c2177561244981612444613109565b613111565b81600a60006101000a81548173ffffffffffffffffffffffffffffffffffffffff021916908373ffffffffffffffffffffffffffffffffffffffff16021790555060007f24d6288eaa984b5d82c86fa2319ac360582ee0f3b6e5d20731355f6f00250f16836040516124bb9190614406565b60405180910390a25050565b7fa49807205ce4d355092ef5a8a18f56e8913cf4a201fbe287825b095693c217756124f9816124f4613109565b613111565b670de0b6b3a76400008210612543576040517f08c379a000000000000000000000000000000000000000000000000000000000815260040161253a90615777565b60405180910390fd5b8160068190555060007f1f77a5f1218c5e380f0425a2e88a823d831b5f8906f5ab4db8b1565a36f780d78360405161257b9190614001565b60405180910390a25050565b60007f000000000000000000000000000000000000000000000000000000000000000073ffffffffffffffffffffffffffffffffffffffff16638b83b6b6306040518263ffffffff1660e01b81526004016125e29190614406565b602060405180830381865afa1580156125ff573d6000803e3d6000fd5b505050506040513d601f19601f8201168201806040525081019061262391906144d7565b9050821561276a5761275c7f000000000000000000000000000000000000000000000000000000000000000073ffffffffffffffffffffffffffffffffffffffff1663d19f50326040518163ffffffff1660e01b8152600401602060405180830381865afa158015612699573d6000803e3d6000fd5b505050506040513d601f19601f820116820180604052508101906126bd91906144d7565b7f000000000000000000000000000000000000000000000000000000000000000073ffffffffffffffffffffffffffffffffffffffff1663448ba42f6040518163ffffffff1660e01b8152600401602060405180830381865afa158015612728573d6000803e3d6000fd5b505050506040513d601f19601f8201168201806040525081019061274c91906144d7565b6127569190614886565b826130f0565b8161276791906148dc565b90505b811561283457600061277a611484565b111561280a578073__FullMath______________________________63de7f617090916127a5611484565b6040518363ffffffff1660e01b81526004016127c2929190614553565b602060405180830381865af41580156127df573d6000803e3d6000fd5b505050506040513d601f19601f8201168201806040525081019061280391906144d7565b9050612833565b6000612814611484565b1480156128215750600081145b1561283257670de0b6b3a764000090505b5b5b92915050565b60008060008373ffffffffffffffffffffffffffffffffffffffff1673ffffffffffffffffffffffffffffffffffffffff168152602001908152602001600020549050919050565b600a60009054906101000a900473ffffffffffffffffffffffffffffffffffffffff1681565b7fa49807205ce4d355092ef5a8a18f56e8913cf4a201fbe287825b095693c2177581565b60065481565b60006005600084815260200190815260200160002060000160008373ffffffffffffffffffffffffffffffffffffffff1673ffffffffffffffffffffffffffffffffffffffff16815260200190815260200160002060009054906101000a900460ff16905092915050565b60606004805461294c90614490565b80601f016020809104026020016040519081016040528092919081815260200182805461297890614490565b80156129c55780601f1061299a576101008083540402835291602001916129c5565b820191906000526020600020905b8154815290600101906020018083116129a857829003601f168201915b5050505050905090565b6000801b81565b600080600160006129e5613109565b73ffffffffffffffffffffffffffffffffffffffff1673ffffffffffffffffffffffffffffffffffffffff16815260200190815260200160002060008573ffffffffffffffffffffffffffffffffffffffff1673ffffffffffffffffffffffffffffffffffffffff16815260200190815260200160002054905082811015612aa2576040517f08c379a0000000000000000000000000000000000000000000000000000000008152600401612a9990615809565b60405180910390fd5b612ab6612aad613109565b858584036131ae565b600191505092915050565b6000612ad5612ace613109565b8484613379565b6001905092915050565b60095481565b600073__MarketLibrary_________________________63ed1bb199837f00000000000000000000000000000000000000000000000000000000000000006040518363ffffffff1660e01b8152600401612b40929190614553565b602060405180830381865af4158015612b5d573d6000803e3d6000fd5b505050506040513d601f19601f82011682018060405250810190612b8191906144d7565b73__FullMath______________________________63de7f61709091612ba960006001612587565b6040518363ffffffff1660e01b8152600401612bc6929190614553565b602060405180830381865af4158015612be3573d6000803e3d6000fd5b505050506040513d601f19601f82011682018060405250810190612c0791906144d7565b90507f000000000000000000000000000000000000000000000000000000000000000073ffffffffffffffffffffffffffffffffffffffff166323b872dd3330856040518463ffffffff1660e01b8152600401612c6693929190615829565b6020604051808303816000875af1158015612c85573d6000803e3d6000fd5b505050506040513d601f19601f82011682018060405250810190612ca9919061494e565b612cb257600080fd5b612cbc33826137bd565b5050565b60075481565b612ccf8261158c565b612ce081612cdb613109565b613111565b612cea83836136db565b505050565b6000612cfc600180612587565b73__FullMath______________________________63fed4a0f39091846040518363ffffffff1660e01b8152600401612d36929190614553565b602060405180830381865af4158015612d53573d6000803e3d6000fd5b505050506040513d601f19601f82011682018060405250810190612d7791906144d7565b73__MarketLibrary_________________________63174e20e690917f00000000000000000000000000000000000000000000000000000000000000006040518363ffffffff1660e01b8152600401612dd1929190614553565b602060405180830381865af4158015612dee573d6000803e3d6000fd5b505050506040513d601f19601f82011682018060405250810190612e1291906144d7565b9050612e1e338361391d565b7f000000000000000000000000000000000000000000000000000000000000000073ffffffffffffffffffffffffffffffffffffffff1663a9059cbb33836040518363ffffffff1660e01b8152600401612e79929190614910565b6020604051808303816000875af1158015612e98573d6000803e3d6000fd5b505050506040513d601f19601f82011682018060405250810190612ebc919061494e565b612ec557600080fd5b5050565b6000600160008473ffffffffffffffffffffffffffffffffffffffff1673ffffffffffffffffffffffffffffffffffffffff16815260200190815260200160002060008373ffffffffffffffffffffffffffffffffffffffff1673ffffffffffffffffffffffffffffffffffffffff16815260200190815260200160002054905092915050565b7fa49807205ce4d355092ef5a8a18f56e8913cf4a201fbe287825b095693c21775612f8281612f7d613109565b613111565b8160088190555060027f1f77a5f1218c5e380f0425a2e88a823d831b5f8906f5ab4db8b1565a36f780d783604051612fba9190614001565b60405180910390a25050565b7fa49807205ce4d355092ef5a8a18f56e8913cf4a201fbe287825b095693c21775612ff881612ff3613109565b613111565b670de0b6b3a76400008210613042576040517f08c379a000000000000000000000000000000000000000000000000000000000815260040161303990615777565b60405180910390fd5b8160078190555060017f1f77a5f1218c5e380f0425a2e88a823d831b5f8906f5ab4db8b1565a36f780d78360405161307a9190614001565b60405180910390a25050565b60007f01ffc9a7000000000000000000000000000000000000000000000000000000007bffffffffffffffffffffffffffffffffffffffffffffffffffffffff1916827bffffffffffffffffffffffffffffffffffffffffffffffffffffffff1916149050919050565b60008183106130ff5781613101565b825b905092915050565b600033905090565b61311b82826128d2565b6131aa576131408173ffffffffffffffffffffffffffffffffffffffff166014613af4565b61314e8360001c6020613af4565b60405160200161315f929190615934565b6040516020818303038152906040526040517f08c379a00000000000000000000000000000000000000000000000000000000081526004016131a19190613ea2565b60405180910390fd5b5050565b600073ffffffffffffffffffffffffffffffffffffffff168373ffffffffffffffffffffffffffffffffffffffff16141561321e576040517f08c379a0000000000000000000000000000000000000000000000000000000008152600401613215906159e0565b60405180910390fd5b600073ffffffffffffffffffffffffffffffffffffffff168273ffffffffffffffffffffffffffffffffffffffff16141561328e576040517f08c379a000000000000000000000000000000000000000000000000000000000815260040161328590615a72565b60405180910390fd5b80600160008573ffffffffffffffffffffffffffffffffffffffff1673ffffffffffffffffffffffffffffffffffffffff16815260200190815260200160002060008473ffffffffffffffffffffffffffffffffffffffff1673ffffffffffffffffffffffffffffffffffffffff168152602001908152602001600020819055508173ffffffffffffffffffffffffffffffffffffffff168373ffffffffffffffffffffffffffffffffffffffff167f8c5be1e5ebec7d5bd14f71427d1e84f3dd0314c0f7b2291e5b200ac8c7c3b9258360405161336c9190614001565b60405180910390a3505050565b600073ffffffffffffffffffffffffffffffffffffffff168373ffffffffffffffffffffffffffffffffffffffff1614156133e9576040517f08c379a00000000000000000000000000000000000000000000000000000000081526004016133e090615b04565b60405180910390fd5b600073ffffffffffffffffffffffffffffffffffffffff168273ffffffffffffffffffffffffffffffffffffffff161415613459576040517f08c379a000000000000000000000000000000000000000000000000000000000815260040161345090615b96565b60405180910390fd5b613464838383613d30565b60008060008573ffffffffffffffffffffffffffffffffffffffff1673ffffffffffffffffffffffffffffffffffffffff168152602001908152602001600020549050818110156134ea576040517f08c379a00000000000000000000000000000000000000000000000000000000081526004016134e190615c28565b60405180910390fd5b8181036000808673ffffffffffffffffffffffffffffffffffffffff1673ffffffffffffffffffffffffffffffffffffffff16815260200190815260200160002081905550816000808573ffffffffffffffffffffffffffffffffffffffff1673ffffffffffffffffffffffffffffffffffffffff168152602001908152602001600020600082825461357d9190614886565b925050819055508273ffffffffffffffffffffffffffffffffffffffff168473ffffffffffffffffffffffffffffffffffffffff167fddf252ad1be2c89b69c2b068fc378daa952ba7f163c4a11628f55a4df523b3ef846040516135e19190614001565b60405180910390a36135f4848484613d35565b50505050565b61360482826128d2565b6136d75760016005600084815260200190815260200160002060000160008373ffffffffffffffffffffffffffffffffffffffff1673ffffffffffffffffffffffffffffffffffffffff16815260200190815260200160002060006101000a81548160ff02191690831515021790555061367c613109565b73ffffffffffffffffffffffffffffffffffffffff168173ffffffffffffffffffffffffffffffffffffffff16837f2f8788117e7eff1d82e926ec794901d17c78024a50270940304540a733656f0d60405160405180910390a45b5050565b6136e582826128d2565b156137b95760006005600084815260200190815260200160002060000160008373ffffffffffffffffffffffffffffffffffffffff1673ffffffffffffffffffffffffffffffffffffffff16815260200190815260200160002060006101000a81548160ff02191690831515021790555061375e613109565b73ffffffffffffffffffffffffffffffffffffffff168173ffffffffffffffffffffffffffffffffffffffff16837ff6391f5c32d9c69d2a47ea670b442974b53935d1edc7fd64eb21e047a839171b60405160405180910390a45b5050565b600073ffffffffffffffffffffffffffffffffffffffff168273ffffffffffffffffffffffffffffffffffffffff16141561382d576040517f08c379a000000000000000000000000000000000000000000000000000000000815260040161382490615c94565b60405180910390fd5b61383960008383613d30565b806002600082825461384b9190614886565b92505081905550806000808473ffffffffffffffffffffffffffffffffffffffff1673ffffffffffffffffffffffffffffffffffffffff16815260200190815260200160002060008282546138a09190614886565b925050819055508173ffffffffffffffffffffffffffffffffffffffff16600073ffffffffffffffffffffffffffffffffffffffff167fddf252ad1be2c89b69c2b068fc378daa952ba7f163c4a11628f55a4df523b3ef836040516139059190614001565b60405180910390a361391960008383613d35565b5050565b600073ffffffffffffffffffffffffffffffffffffffff168273ffffffffffffffffffffffffffffffffffffffff16141561398d576040517f08c379a000000000000000000000000000000000000000000000000000000000815260040161398490615d26565b60405180910390fd5b61399982600083613d30565b60008060008473ffffffffffffffffffffffffffffffffffffffff1673ffffffffffffffffffffffffffffffffffffffff16815260200190815260200160002054905081811015613a1f576040517f08c379a0000000000000000000000000000000000000000000000000000000008152600401613a1690615db8565b60405180910390fd5b8181036000808573ffffffffffffffffffffffffffffffffffffffff1673ffffffffffffffffffffffffffffffffffffffff168152602001908152602001600020819055508160026000828254613a7691906148dc565b92505081905550600073ffffffffffffffffffffffffffffffffffffffff168373ffffffffffffffffffffffffffffffffffffffff167fddf252ad1be2c89b69c2b068fc378daa952ba7f163c4a11628f55a4df523b3ef84604051613adb9190614001565b60405180910390a3613aef83600084613d35565b505050565b606060006002836002613b079190615dd8565b613b119190614886565b67ffffffffffffffff811115613b2a57613b29614581565b5b6040519080825280601f01601f191660200182016040528015613b5c5781602001600182028036833780820191505090505b5090507f300000000000000000000000000000000000000000000000000000000000000081600081518110613b9457613b936154e7565b5b60200101907effffffffffffffffffffffffffffffffffffffffffffffffffffffffffffff1916908160001a9053507f780000000000000000000000000000000000000000000000000000000000000081600181518110613bf857613bf76154e7565b5b60200101907effffffffffffffffffffffffffffffffffffffffffffffffffffffffffffff1916908160001a90535060006001846002613c389190615dd8565b613c429190614886565b90505b6001811115613ce2577f3031323334353637383961626364656600000000000000000000000000000000600f861660108110613c8457613c836154e7565b5b1a60f81b828281518110613c9b57613c9a6154e7565b5b60200101907effffffffffffffffffffffffffffffffffffffffffffffffffffffffffffff1916908160001a905350600485901c945080613cdb90615e32565b9050613c45565b5060008414613d26576040517f08c379a0000000000000000000000000000000000000000000000000000000008152600401613d1d90615ea8565b60405180910390fd5b8091505092915050565b505050565b505050565b6000604051905090565b600080fd5b600080fd5b60007fffffffff0000000000000000000000000000000000000000000000000000000082169050919050565b613d8381613d4e565b8114613d8e57600080fd5b50565b600081359050613da081613d7a565b92915050565b600060208284031215613dbc57613dbb613d44565b5b6000613dca84828501613d91565b91505092915050565b60008115159050919050565b613de881613dd3565b82525050565b6000602082019050613e036000830184613ddf565b92915050565b600081519050919050565b600082825260208201905092915050565b60005b83811015613e43578082015181840152602081019050613e28565b83811115613e52576000848401525b50505050565b6000601f19601f8301169050919050565b6000613e7482613e09565b613e7e8185613e14565b9350613e8e818560208601613e25565b613e9781613e58565b840191505092915050565b60006020820190508181036000830152613ebc8184613e69565b905092915050565b600073ffffffffffffffffffffffffffffffffffffffff82169050919050565b6000613eef82613ec4565b9050919050565b613eff81613ee4565b8114613f0a57600080fd5b50565b600081359050613f1c81613ef6565b92915050565b600060208284031215613f3857613f37613d44565b5b6000613f4684828501613f0d565b91505092915050565b6000819050919050565b613f6281613f4f565b8114613f6d57600080fd5b50565b600081359050613f7f81613f59565b92915050565b600060208284031215613f9b57613f9a613d44565b5b6000613fa984828501613f70565b91505092915050565b60008060408385031215613fc957613fc8613d44565b5b6000613fd785828601613f0d565b9250506020613fe885828601613f70565b9150509250929050565b613ffb81613f4f565b82525050565b60006020820190506140166000830184613ff2565b92915050565b60008060006060848603121561403557614034613d44565b5b600061404386828701613f0d565b935050602061405486828701613f0d565b925050604061406586828701613f70565b9150509250925092565b6000819050919050565b6140828161406f565b811461408d57600080fd5b50565b60008135905061409f81614079565b92915050565b6000602082840312156140bb576140ba613d44565b5b60006140c984828501614090565b91505092915050565b6140db8161406f565b82525050565b60006020820190506140f660008301846140d2565b92915050565b6000806040838503121561411357614112613d44565b5b600061412185828601614090565b925050602061413285828601613f0d565b9150509250929050565b600060ff82169050919050565b6141528161413c565b82525050565b600060208201905061416d6000830184614149565b92915050565b6000819050919050565b61418681614173565b811461419157600080fd5b50565b6000813590506141a38161417d565b92915050565b60006141b482613ec4565b9050919050565b6141c4816141a9565b81146141cf57600080fd5b50565b6000813590506141e1816141bb565b92915050565b600080fd5b600080fd5b600080fd5b60008083601f84011261420c5761420b6141e7565b5b8235905067ffffffffffffffff811115614229576142286141ec565b5b602083019150836001820283011115614245576142446141f1565b5b9250929050565b60008060008060008060a0878903121561426957614268613d44565b5b600061427789828a01614194565b965050602061428889828a01614194565b955050604061429989828a016141d2565b945050606087013567ffffffffffffffff8111156142ba576142b9613d49565b5b6142c689828a016141f6565b935093505060806142d989828a01613f70565b9150509295509295509295565b60006142f182613ee4565b9050919050565b614301816142e6565b811461430c57600080fd5b50565b60008135905061431e816142f8565b92915050565b6000806000806080858703121561433e5761433d613d44565b5b600061434c87828801614194565b945050602061435d87828801614194565b935050604061436e8782880161430f565b925050606061437f87828801613f70565b91505092959194509250565b61439481613dd3565b811461439f57600080fd5b50565b6000813590506143b18161438b565b92915050565b600080604083850312156143ce576143cd613d44565b5b60006143dc858286016143a2565b92505060206143ed858286016143a2565b9150509250929050565b61440081613ee4565b82525050565b600060208201905061441b60008301846143f7565b92915050565b6000806040838503121561443857614437613d44565b5b600061444685828601613f0d565b925050602061445785828601613f0d565b9150509250929050565b7f4e487b7100000000000000000000000000000000000000000000000000000000600052602260045260246000fd5b600060028204905060018216806144a857607f821691505b602082108114156144bc576144bb614461565b5b50919050565b6000815190506144d181613f59565b92915050565b6000602082840312156144ed576144ec613d44565b5b60006144fb848285016144c2565b91505092915050565b6000806040838503121561451b5761451a613d44565b5b6000614529858286016144c2565b925050602061453a858286016144c2565b9150509250929050565b61454d81613f4f565b82525050565b60006040820190506145686000830185614544565b6145756020830184614544565b9392505050565b600080fd5b7f4e487b7100000000000000000000000000000000000000000000000000000000600052604160045260246000fd5b6145b982613e58565b810181811067ffffffffffffffff821117156145d8576145d7614581565b5b80604052505050565b60006145eb613d3a565b90506145f782826145b0565b919050565b6002811061460957600080fd5b50565b60008151905061461b816145fc565b92915050565b6002811061462e57600080fd5b50565b60008151905061464081614621565b92915050565b6004811061465357600080fd5b50565b60008151905061466581614646565b92915050565b60008151905061467a81613ef6565b92915050565b600061020082840312156146975761469661457c565b5b6146a26102006145e1565b905060006146b28482850161460c565b60008301525060206146c684828501614631565b60208301525060406146da84828501614656565b60408301525060606146ee8482850161466b565b6060830152506080614702848285016144c2565b60808301525060a0614716848285016144c2565b60a08301525060c061472a848285016144c2565b60c08301525060e061473e848285016144c2565b60e083015250610100614753848285016144c2565b61010083015250610120614769848285016144c2565b6101208301525061014061477f848285016144c2565b61014083015250610160614795848285016144c2565b610160830152506101806147ab848285016144c2565b610180830152506101a06147c1848285016144c2565b6101a0830152506101c06147d7848285016144c2565b6101c0830152506101e06147ed848285016144c2565b6101e08301525092915050565b6000610200828403121561481157614810613d44565b5b600061481f84828501614680565b91505092915050565b7f4e487b7100000000000000000000000000000000000000000000000000000000600052602160045260246000fd5b7f4e487b7100000000000000000000000000000000000000000000000000000000600052601160045260246000fd5b600061489182613f4f565b915061489c83613f4f565b9250827fffffffffffffffffffffffffffffffffffffffffffffffffffffffffffffffff038211156148d1576148d0614857565b5b828201905092915050565b60006148e782613f4f565b91506148f283613f4f565b92508282101561490557614904614857565b5b828203905092915050565b600060408201905061492560008301856143f7565b6149326020830184613ff2565b9392505050565b6000815190506149488161438b565b92915050565b60006020828403121561496457614963613d44565b5b600061497284828501614939565b91505092915050565b7f4661696c6564207061796d656e7420746f20686f6c6465720000000000000000600082015250565b60006149b1601883613e14565b91506149bc8261497b565b602082019050919050565b600060208201905081810360008301526149e0816149a4565b9050919050565b7f4661696c6564207061796d656e7420746f206d61696e74656e616e6365000000600082015250565b6000614a1d601d83613e14565b9150614a28826149e7565b602082019050919050565b60006020820190508181036000830152614a4c81614a10565b9050919050565b7f4661696c6564207061796d656e7420746f206578657263697365722e00000000600082015250565b6000614a89601c83613e14565b9150614a9482614a53565b602082019050919050565b60006020820190508181036000830152614ab881614a7c565b9050919050565b60028110614ad057614acf614828565b5b50565b6000819050614ae182614abf565b919050565b6000614af182614ad3565b9050919050565b614b0181614ae6565b82525050565b60028110614b1857614b17614828565b5b50565b6000819050614b2982614b07565b919050565b6000614b3982614b1b565b9050919050565b614b4981614b2e565b82525050565b60048110614b6057614b5f614828565b5b50565b6000819050614b7182614b4f565b919050565b6000614b8182614b63565b9050919050565b614b9181614b76565b82525050565b614ba081613ee4565b82525050565b614baf81613f4f565b82525050565b61020082016000820151614bcc6000850182614af8565b506020820151614bdf6020850182614b40565b506040820151614bf26040850182614b88565b506060820151614c056060850182614b97565b506080820151614c186080850182614ba6565b5060a0820151614c2b60a0850182614ba6565b5060c0820151614c3e60c0850182614ba6565b5060e0820151614c5160e0850182614ba6565b50610100820151614c66610100850182614ba6565b50610120820151614c7b610120850182614ba6565b50610140820151614c90610140850182614ba6565b50610160820151614ca5610160850182614ba6565b50610180820151614cba610180850182614ba6565b506101a0820151614ccf6101a0850182614ba6565b506101c0820151614ce46101c0850182614ba6565b506101e0820151614cf96101e0850182614ba6565b50505050565b600061022082019050614d156000830185614bb5565b614d23610200830184613ff2565b9392505050565b7f45524332303a207472616e7366657220616d6f756e742065786365656473206160008201527f6c6c6f77616e6365000000000000000000000000000000000000000000000000602082015250565b6000614d86602883613e14565b9150614d9182614d2a565b604082019050919050565b60006020820190508181036000830152614db581614d79565b9050919050565b7f416363657373436f6e74726f6c3a2063616e206f6e6c792072656e6f756e636560008201527f20726f6c657320666f722073656c660000000000000000000000000000000000602082015250565b6000614e18602f83613e14565b9150614e2382614dbc565b604082019050919050565b60006020820190508181036000830152614e4781614e0b565b9050919050565b600081519050614e5d8161417d565b92915050565b60008060008060808587031215614e7d57614e7c613d44565b5b6000614e8b87828801614e4e565b9450506020614e9c87828801614e4e565b9350506040614ead8782880161466b565b9250506060614ebe8782880161466b565b91505092959194509250565b6000614ed582613ee4565b9050919050565b614ee581614eca565b8114614ef057600080fd5b50565b600081519050614f0281614edc565b92915050565b600060208284031215614f1e57614f1d613d44565b5b6000614f2c84828501614ef3565b91505092915050565b600060208284031215614f4b57614f4a613d44565b5b6000614f598482850161466b565b91505092915050565b7f436f6c6c61746572616c20617070726f76616c206661696c65642e0000000000600082015250565b6000614f98601b83613e14565b9150614fa382614f62565b602082019050919050565b60006020820190508181036000830152614fc781614f8b565b9050919050565b6000819050919050565b600061ffff82169050919050565b6000819050919050565b600061500b61500661500184614fce565b614fe6565b614fd8565b9050919050565b61501b81614ff0565b82525050565b600060808201905061503660008301876143f7565b6150436020830186613ff2565b61505060408301856143f7565b61505d6060830184615012565b95945050505050565b600060a08201905061507b60008301886143f7565b6150886020830187613ff2565b6150956040830186613ff2565b6150a26060830185615012565b6150af60808301846143f7565b9695505050505050565b60006150c482614173565b91507f80000000000000000000000000000000000000000000000000000000000000008214156150f7576150f6614857565b5b816000039050919050565b7f6e6f7420656e6f75676820746f6b656e20746f207265706179206c6f616e7300600082015250565b6000615138601f83613e14565b915061514382615102565b602082019050919050565b600060208201905081810360008301526151678161512b565b9050919050565b7f4c6f616e20617070726f76616c206661696c6564000000000000000000000000600082015250565b60006151a4601483613e14565b91506151af8261516e565b602082019050919050565b600060208201905081810360008301526151d381615197565b9050919050565b60006080820190506151ef60008301876143f7565b6151fc6020830186613ff2565b6152096040830185613ff2565b61521660608301846143f7565b95945050505050565b600060608201905061523460008301866143f7565b6152416020830185613ff2565b61524e60408301846143f7565b949350505050565b61525f81614173565b82525050565b61526e81613ee4565b82525050565b60006080820190506152896000830187615256565b6152966020830186615256565b6152a36040830185615265565b6152b06060830184615265565b95945050505050565b600080600080608085870312156152d3576152d2613d44565b5b60006152e1878288016144c2565b94505060206152f2878288016144c2565b93505060406153038782880161466b565b92505060606153148782880161466b565b91505092959194509250565b600061533b61533661533184613ec4565b614fe6565b613ec4565b9050919050565b600061534d82615320565b9050919050565b600061535f82615342565b9050919050565b61536f81615354565b82525050565b600060408201905061538a6000830185615366565b6153976020830184613ff2565b9392505050565b7f5377617020617070726f76616c206661696c6564000000000000000000000000600082015250565b60006153d4601483613e14565b91506153df8261539e565b602082019050919050565b60006020820190508181036000830152615403816153c7565b9050919050565b600081905092915050565b82818337600083830152505050565b6000615430838561540a565b935061543d838584615415565b82840190509392505050565b6000615456828486615424565b91508190509392505050565b600081519050919050565b600082825260208201905092915050565b600061548982615462565b615493818561546d565b93506154a3818560208601613e25565b6154ac81613e58565b840191505092915050565b60006040820190506154cc6000830185613ddf565b81810360208301526154de818461547e565b90509392505050565b7f4e487b7100000000000000000000000000000000000000000000000000000000600052603260045260246000fd5b600081519050919050565b600082825260208201905092915050565b6000819050602082019050919050565b600061554e8383614b97565b60208301905092915050565b6000602082019050919050565b600061557282615516565b61557c8185615521565b935061558783615532565b8060005b838110156155b857815161559f8882615542565b97506155aa8361555a565b92505060018101905061558b565b5085935050505092915050565b600060a0820190506155da6000830188613ff2565b6155e76020830187613ff2565b81810360408301526155f98186615567565b905061560860608301856143f7565b6156156080830184613ff2565b9695505050505050565b600067ffffffffffffffff82111561563a57615639614581565b5b602082029050602081019050919050565b600061565e6156598461561f565b6145e1565b90508083825260208201905060208402830185811115615681576156806141f1565b5b835b818110156156aa578061569688826144c2565b845260208401935050602081019050615683565b5050509392505050565b600082601f8301126156c9576156c86141e7565b5b81516156d984826020860161564b565b91505092915050565b6000602082840312156156f8576156f7613d44565b5b600082015167ffffffffffffffff81111561571657615715613d49565b5b615722848285016156b4565b91505092915050565b7f506172616d20746f6f2062696700000000000000000000000000000000000000600082015250565b6000615761600d83613e14565b915061576c8261572b565b602082019050919050565b6000602082019050818103600083015261579081615754565b9050919050565b7f45524332303a2064656372656173656420616c6c6f77616e63652062656c6f7760008201527f207a65726f000000000000000000000000000000000000000000000000000000602082015250565b60006157f3602583613e14565b91506157fe82615797565b604082019050919050565b60006020820190508181036000830152615822816157e6565b9050919050565b600060608201905061583e60008301866143f7565b61584b60208301856143f7565b6158586040830184613ff2565b949350505050565b600081905092915050565b7f416363657373436f6e74726f6c3a206163636f756e7420000000000000000000600082015250565b60006158a1601783615860565b91506158ac8261586b565b601782019050919050565b60006158c282613e09565b6158cc8185615860565b93506158dc818560208601613e25565b80840191505092915050565b7f206973206d697373696e6720726f6c6520000000000000000000000000000000600082015250565b600061591e601183615860565b9150615929826158e8565b601182019050919050565b600061593f82615894565b915061594b82856158b7565b915061595682615911565b915061596282846158b7565b91508190509392505050565b7f45524332303a20617070726f76652066726f6d20746865207a65726f2061646460008201527f7265737300000000000000000000000000000000000000000000000000000000602082015250565b60006159ca602483613e14565b91506159d58261596e565b604082019050919050565b600060208201905081810360008301526159f9816159bd565b9050919050565b7f45524332303a20617070726f766520746f20746865207a65726f20616464726560008201527f7373000000000000000000000000000000000000000000000000000000000000602082015250565b6000615a5c602283613e14565b9150615a6782615a00565b604082019050919050565b60006020820190508181036000830152615a8b81615a4f565b9050919050565b7f45524332303a207472616e736665722066726f6d20746865207a65726f20616460008201527f6472657373000000000000000000000000000000000000000000000000000000602082015250565b6000615aee602583613e14565b9150615af982615a92565b604082019050919050565b60006020820190508181036000830152615b1d81615ae1565b9050919050565b7f45524332303a207472616e7366657220746f20746865207a65726f206164647260008201527f6573730000000000000000000000000000000000000000000000000000000000602082015250565b6000615b80602383613e14565b9150615b8b82615b24565b604082019050919050565b60006020820190508181036000830152615baf81615b73565b9050919050565b7f45524332303a207472616e7366657220616d6f756e742065786365656473206260008201527f616c616e63650000000000000000000000000000000000000000000000000000602082015250565b6000615c12602683613e14565b9150615c1d82615bb6565b604082019050919050565b60006020820190508181036000830152615c4181615c05565b9050919050565b7f45524332303a206d696e7420746f20746865207a65726f206164647265737300600082015250565b6000615c7e601f83613e14565b9150615c8982615c48565b602082019050919050565b60006020820190508181036000830152615cad81615c71565b9050919050565b7f45524332303a206275726e2066726f6d20746865207a65726f2061646472657360008201527f7300000000000000000000000000000000000000000000000000000000000000602082015250565b6000615d10602183613e14565b9150615d1b82615cb4565b604082019050919050565b60006020820190508181036000830152615d3f81615d03565b9050919050565b7f45524332303a206275726e20616d6f756e7420657863656564732062616c616e60008201527f6365000000000000000000000000000000000000000000000000000000000000602082015250565b6000615da2602283613e14565b9150615dad82615d46565b604082019050919050565b60006020820190508181036000830152615dd181615d95565b9050919050565b6000615de382613f4f565b9150615dee83613f4f565b9250817fffffffffffffffffffffffffffffffffffffffffffffffffffffffffffffffff0483118215151615615e2757615e26614857565b5b828202905092915050565b6000615e3d82613f4f565b91506000821415615e5157615e50614857565b5b600182039050919050565b7f537472696e67733a20686578206c656e67746820696e73756666696369656e74600082015250565b6000615e92602083613e14565b9150615e9d82615e5c565b602082019050919050565b60006020820190508181036000830152615ec181615e85565b905091905056fea2646970667358221220787edecbb875337a4f3d514c0713bbe7bd4f1407bf221391bc1a9ba224fdb2fc64736f6c634300080b0033",
  "immutableReferences": {
    "5231": [
      {
        "length": 32,
        "start": 3298
      },
      {
        "length": 32,
        "start": 3894
      },
      {
        "length": 32,
        "start": 4315
      },
      {
        "length": 32,
        "start": 4701
      },
      {
        "length": 32,
        "start": 11012
      },
      {
        "length": 32,
        "start": 11669
      }
    ],
    "5234": [
      {
        "length": 32,
        "start": 2090
      },
      {
        "length": 32,
        "start": 2235
      },
      {
        "length": 32,
        "start": 2377
      },
      {
        "length": 32,
        "start": 2796
      },
      {
        "length": 32,
        "start": 3110
      },
      {
        "length": 32,
        "start": 3706
      },
      {
        "length": 32,
        "start": 5784
      },
      {
        "length": 32,
        "start": 5950
      },
      {
        "length": 32,
        "start": 9611
      },
      {
        "length": 32,
        "start": 9776
      },
      {
        "length": 32,
        "start": 9919
      }
    ],
    "5237": [
      {
        "length": 32,
        "start": 6624
      },
      {
        "length": 32,
        "start": 6775
      },
      {
        "length": 32,
        "start": 6994
      },
      {
        "length": 32,
        "start": 7243
      },
      {
        "length": 32,
        "start": 7859
      },
      {
        "length": 32,
        "start": 8485
      }
    ],
    "5240": [
      {
        "length": 32,
        "start": 3050
      },
      {
        "length": 32,
        "start": 3646
      },
      {
        "length": 32,
        "start": 4191
      },
      {
        "length": 32,
        "start": 4611
      },
      {
        "length": 32,
        "start": 6219
      },
      {
        "length": 32,
        "start": 6468
      },
      {
        "length": 32,
        "start": 7420
      },
      {
        "length": 32,
        "start": 7892
      },
      {
        "length": 32,
        "start": 8518
      },
      {
        "length": 32,
        "start": 11275
      },
      {
        "length": 32,
        "start": 11808
      }
    ]
  },
  "source": "// SPDX-License-Identifier: MIT\npragma solidity ^0.8.0;\n\nimport \"@openzeppelin/contracts/access/AccessControl.sol\";\nimport \"@openzeppelin/contracts/utils/structs/EnumerableSet.sol\";\nimport \"./MarketLibrary.sol\";\nimport \"./OptionVault.sol\";\nimport \"./interfaces/EOption.sol\";\nimport \"./interfaces/IUniswapV2Router02.sol\";\nimport \"./interfaces/ILendingPoolAddressesProvider.sol\";\nimport \"./interfaces/ILendingPool.sol\";\n\ncontract MoretMarketMaker is ERC20, AccessControl, EOption{\n  using FullMath for uint256;\n  using MarketLibrary for uint256;\n  \n  bytes32 public constant ADMIN_ROLE = keccak256(\"ADMIN_ROLE\");\n  bytes32 public constant EXCHANGE_ROLE = keccak256(\"EXCHANGE_ROLE\");\n  uint256 internal constant BASE = 1e18;\n\n  uint256 internal immutable fundingDecimals;\n  OptionVault internal immutable optionVault;\n  ERC20 internal immutable underlying;\n  ERC20 internal immutable funding;\n\n  uint256 public settlementFee= 0.005e18;\n  uint256 public exerciseFee= 0.005e18;\n  uint256 public swapSlippage = 0.0005e18;\n  uint256 public lendingPoolRateMode = 2;\n  address public maintenanceAddress;\n  \n  constructor(string memory _name, string memory _symbol, OptionVault _optionVault) ERC20(_name, _symbol){\n    _setupRole(DEFAULT_ADMIN_ROLE, msg.sender);\n    _setupRole(ADMIN_ROLE, msg.sender);\n    _setupRole(EXCHANGE_ROLE, msg.sender);\n    maintenanceAddress = msg.sender;\n    optionVault = _optionVault;\n    underlying = _optionVault.underlying();\n    funding = _optionVault.funding();\n    fundingDecimals = _optionVault.funding().decimals();\n    _mint(msg.sender, BASE);}\n\n  function expireOptions(address _exerciseFeeRecipient) external {\n    uint256 _expiringId = optionVault.getExpiringOptionId();\n\n    optionVault.stampExpiredOption(_expiringId);\n    \n    (uint256 _payoff, uint256 _payback) = optionVault.getContractPayoff(_expiringId);\n    \n    uint256 _settleFeeAmount = _payoff.ethmul(settlementFee);\n    uint256 _exerciseFeeAmount = _payoff.ethmul(exerciseFee);\n    \n    OptionLibrary.Option memory _option = optionVault.getOption(_expiringId);\n    OptionLibrary.OptionSide _optionSide = _option.side;\n    if(_optionSide == OptionLibrary.OptionSide.Buy){\n      _payback = _payback - Math.min(_payback, _settleFeeAmount + _exerciseFeeAmount);\n      if(_payback > 0){\n        require(funding.transfer(optionVault.getOption(_expiringId).holder, _payback.toDecimals(fundingDecimals)), \"Failed payment to holder\");}}\n    else if(_optionSide == OptionLibrary.OptionSide.Sell && _payback > 0){\n      require(funding.transfer(optionVault.getOption(_expiringId).holder, _payback.toDecimals(fundingDecimals)), \"Failed payment to holder\");}\n\n    if(_settleFeeAmount > 0){\n      require(funding.transfer(maintenanceAddress, _settleFeeAmount.toDecimals(fundingDecimals)), \"Failed payment to maintenance\");}\n\n    if(_exerciseFeeAmount > 0){\n      require(funding.transfer(_exerciseFeeRecipient, _exerciseFeeAmount.toDecimals(fundingDecimals)), \"Failed payment to exerciser.\");}\n    \n    emit Expire(_option.holder, _option, _payback);}\n\n  function calcCapital(bool _net, bool _average) public view returns(uint256 _capital){\n    _capital = optionVault.getGrossCapital(address(this));\n    if(_net){ _capital -= Math.min(optionVault.getMaxHedge() + optionVault.sellPutCollaterals(), _capital);}\n    if(_average){ \n      if(totalSupply() > 0) {\n        _capital = _capital.ethdiv(totalSupply()); }\n      else if(totalSupply() == 0 && _capital == 0) {\n        _capital = BASE;}}}\n    \n  function addCapital(uint256 _depositAmount) external {\n      uint256 _mintMPTokenAmount = MarketLibrary.toWei(_depositAmount, fundingDecimals).ethdiv(calcCapital(false, true));\n      require(funding.transferFrom(msg.sender, address(this), _depositAmount));\n      _mint(msg.sender, _mintMPTokenAmount);}\n\n  function withdrawCapital(uint256 _burnMPTokenAmount) external {\n      uint256 _withdrawValue = calcCapital(true, true).ethmul(_burnMPTokenAmount).toDecimals(fundingDecimals); \n      _burn(msg.sender, _burnMPTokenAmount);\n      require(funding.transfer(msg.sender, _withdrawValue));}\n\n  function tradeSwapAggregate(int256 _underlyingAmt, int256 _fundingAmt, address payable _spender, bytes calldata _calldata, uint256 _gas) external onlyRole(EXCHANGE_ROLE){\n    (uint256 _fromAmt, , address _fromAddress, ) = MarketLibrary.cleanTradeAmounts(_underlyingAmt, _fundingAmt, address(underlying), address(funding));\n    require(ERC20(_fromAddress).approve(_spender, _fromAmt), \"Swap approval failed\");\n    (bool success, bytes memory data) = _spender.call{gas: _gas}(_calldata);\n    emit Response(success, data);}\n\n  function tradeSwaps(int256 _underlyingAmt, int256 _fundingAmt, IUniswapV2Router02 _router, uint256 _deadline) external onlyRole(EXCHANGE_ROLE) {\n    (uint256 _fromAmt, uint256 _toAmt, address _fromAddress, address _toAddress) = MarketLibrary.cleanTradeAmounts(_underlyingAmt, _fundingAmt, address(underlying), address(funding));\n    require(ERC20(_fromAddress).approve(address(_router), _fromAmt), \"Swap approval failed\");\n    address[] memory _path = new address[](2);\n    _path[0]=_fromAddress;\n    _path[1] = _toAddress;\n    _router.swapTokensForExactTokens(_toAmt, _fromAmt, _path, address(this), block.timestamp + _deadline );}\n\n  function hedgeTradesForLoans() external onlyRole(EXCHANGE_ROLE) {\n    (int256 _loanTradeAmount, int256 _collateralChange,,) = optionVault.calcLoanTradesInTok(address(this), lendingPoolRateMode);\n    address _lendingPoolAddress = ILendingPoolAddressesProvider(optionVault.aaveAddress()).getLendingPool();\n    ILendingPool _lendingPool = ILendingPool(_lendingPoolAddress);\n\n    if(_collateralChange > 0){\n      require(funding.approve(_lendingPoolAddress, uint256(_collateralChange)), \"Collateral approval failed.\");\n      _lendingPool.deposit(address(funding), uint256(_collateralChange), address(this), 0);}\n    \n    if(_loanTradeAmount > 0){\n      _lendingPool.borrow(address(underlying), uint256(_loanTradeAmount), lendingPoolRateMode,  0, address(this));}\n    else if(_loanTradeAmount < 0){\n      uint256 _loan = uint256(-_loanTradeAmount);\n      require(underlying.balanceOf(address(this))>= _loan, \"not enough token to repay loans\");\n      require(underlying.approve(_lendingPoolAddress, _loan), \"Loan approval failed\");\n      _lendingPool.repay(address(underlying), _loan, lendingPoolRateMode, address(this));}\n\n    if(_collateralChange < 0){\n      _lendingPool.withdraw(address(funding), uint256(-_collateralChange), address(this));}}\n\n  function resetSettlementFee(uint256 _newFee) external onlyRole(ADMIN_ROLE){ \n    require(_newFee < BASE, \"Param too big\"); \n    settlementFee = _newFee;\n    emit ResetParameter(0, _newFee);}\n\n  function resetExerciseFee(uint256 _newFee) external onlyRole(ADMIN_ROLE){ \n    require(_newFee < BASE, \"Param too big\"); \n    exerciseFee = _newFee;\n    emit ResetParameter(1, _newFee);}\n\n  function resetSlippage(uint256 _slippage) external onlyRole(ADMIN_ROLE){ \n    swapSlippage = _slippage;\n    emit ResetParameter(2, _slippage);}\n  \n  function resetLendingPoolRateMode(uint256 _newRateMode) external onlyRole(ADMIN_ROLE) {\n    require(_newRateMode == 1 || _newRateMode == 2);\n    lendingPoolRateMode = _newRateMode;\n    emit ResetParameter(3, _newRateMode);}\n\n  function resetMaintenance(address _newAddress) external onlyRole(ADMIN_ROLE){ \n    maintenanceAddress = _newAddress;\n    emit ResetAddress(0, _newAddress);}\n}\n",
  "sourcePath": "/Users/mac/Documents/GitHub/moret/contracts/MoretMarketMaker.sol",
  "compiler": {
    "name": "solc",
    "version": "0.8.11+commit.d7f03943.Emscripten.clang"
  },
  "schemaVersion": "3.4.3",
  "updatedAt": "2022-01-31T16:27:30.594Z",
  "networkType": "ethereum",
  "devdoc": {
    "kind": "dev",
    "methods": {
      "allowance(address,address)": {
        "details": "See {IERC20-allowance}."
      },
      "approve(address,uint256)": {
        "details": "See {IERC20-approve}. Requirements: - `spender` cannot be the zero address."
      },
      "balanceOf(address)": {
        "details": "See {IERC20-balanceOf}."
      },
      "decimals()": {
        "details": "Returns the number of decimals used to get its user representation. For example, if `decimals` equals `2`, a balance of `505` tokens should be displayed to a user as `5.05` (`505 / 10 ** 2`). Tokens usually opt for a value of 18, imitating the relationship between Ether and Wei. This is the value {ERC20} uses, unless this function is overridden; NOTE: This information is only used for _display_ purposes: it in no way affects any of the arithmetic of the contract, including {IERC20-balanceOf} and {IERC20-transfer}."
      },
      "decreaseAllowance(address,uint256)": {
        "details": "Atomically decreases the allowance granted to `spender` by the caller. This is an alternative to {approve} that can be used as a mitigation for problems described in {IERC20-approve}. Emits an {Approval} event indicating the updated allowance. Requirements: - `spender` cannot be the zero address. - `spender` must have allowance for the caller of at least `subtractedValue`."
      },
      "getRoleAdmin(bytes32)": {
        "details": "Returns the admin role that controls `role`. See {grantRole} and {revokeRole}. To change a role's admin, use {_setRoleAdmin}."
      },
      "grantRole(bytes32,address)": {
        "details": "Grants `role` to `account`. If `account` had not been already granted `role`, emits a {RoleGranted} event. Requirements: - the caller must have ``role``'s admin role."
      },
      "hasRole(bytes32,address)": {
        "details": "Returns `true` if `account` has been granted `role`."
      },
      "increaseAllowance(address,uint256)": {
        "details": "Atomically increases the allowance granted to `spender` by the caller. This is an alternative to {approve} that can be used as a mitigation for problems described in {IERC20-approve}. Emits an {Approval} event indicating the updated allowance. Requirements: - `spender` cannot be the zero address."
      },
      "name()": {
        "details": "Returns the name of the token."
      },
      "renounceRole(bytes32,address)": {
        "details": "Revokes `role` from the calling account. Roles are often managed via {grantRole} and {revokeRole}: this function's purpose is to provide a mechanism for accounts to lose their privileges if they are compromised (such as when a trusted device is misplaced). If the calling account had been revoked `role`, emits a {RoleRevoked} event. Requirements: - the caller must be `account`."
      },
      "revokeRole(bytes32,address)": {
        "details": "Revokes `role` from `account`. If `account` had been granted `role`, emits a {RoleRevoked} event. Requirements: - the caller must have ``role``'s admin role."
      },
      "supportsInterface(bytes4)": {
        "details": "See {IERC165-supportsInterface}."
      },
      "symbol()": {
        "details": "Returns the symbol of the token, usually a shorter version of the name."
      },
      "totalSupply()": {
        "details": "See {IERC20-totalSupply}."
      },
      "transfer(address,uint256)": {
        "details": "See {IERC20-transfer}. Requirements: - `recipient` cannot be the zero address. - the caller must have a balance of at least `amount`."
      },
      "transferFrom(address,address,uint256)": {
        "details": "See {IERC20-transferFrom}. Emits an {Approval} event indicating the updated allowance. This is not required by the EIP. See the note at the beginning of {ERC20}. Requirements: - `sender` and `recipient` cannot be the zero address. - `sender` must have a balance of at least `amount`. - the caller must have allowance for ``sender``'s tokens of at least `amount`."
      }
    },
    "version": 1
  },
  "userdoc": {
    "kind": "user",
    "methods": {},
    "version": 1
  }
}