{
  "contractName": "OptionLibrary",
  "abi": [
    {
      "inputs": [
        {
          "internalType": "uint256",
          "name": "_strike",
          "type": "uint256"
        },
        {
          "internalType": "uint256",
          "name": "_price",
          "type": "uint256"
        },
        {
          "internalType": "uint256",
          "name": "_amount",
          "type": "uint256"
        },
        {
          "internalType": "enum OptionLibrary.PayoffType",
          "name": "_poType",
          "type": "OptionLibrary.PayoffType"
        }
      ],
      "name": "calcIntrinsicValue",
      "outputs": [
        {
          "internalType": "uint256",
          "name": "",
          "type": "uint256"
        }
      ],
      "stateMutability": "pure",
      "type": "function"
    },
    {
      "inputs": [
        {
          "internalType": "uint256",
          "name": "_strike",
          "type": "uint256"
        },
        {
          "internalType": "uint256",
          "name": "_price",
          "type": "uint256"
        },
        {
          "internalType": "uint256",
          "name": "_volatility",
          "type": "uint256"
        },
        {
          "internalType": "uint256",
          "name": "_priceMultiplier",
          "type": "uint256"
        }
      ],
      "name": "calcVolSkew",
      "outputs": [
        {
          "internalType": "uint256",
          "name": "",
          "type": "uint256"
        }
      ],
      "stateMutability": "pure",
      "type": "function"
    },
    {
      "inputs": [
        {
          "internalType": "uint256",
          "name": "_volatility",
          "type": "uint256"
        },
        {
          "internalType": "uint256",
          "name": "_amount",
          "type": "uint256"
        },
        {
          "internalType": "uint256",
          "name": "_priceMultiplier",
          "type": "uint256"
        }
      ],
      "name": "calcTimeValue",
      "outputs": [
        {
          "internalType": "uint256",
          "name": "",
          "type": "uint256"
        }
      ],
      "stateMutability": "pure",
      "type": "function"
    },
    {
      "inputs": [
        {
          "internalType": "uint256",
          "name": "_price",
          "type": "uint256"
        },
        {
          "internalType": "uint256",
          "name": "_volatility",
          "type": "uint256"
        },
        {
          "internalType": "uint256",
          "name": "_strike",
          "type": "uint256"
        },
        {
          "internalType": "enum OptionLibrary.PayoffType",
          "name": "_poType",
          "type": "OptionLibrary.PayoffType"
        },
        {
          "internalType": "uint256",
          "name": "_amount",
          "type": "uint256"
        },
        {
          "components": [
            {
              "internalType": "uint256",
              "name": "numerator",
              "type": "uint256"
            },
            {
              "internalType": "uint256",
              "name": "denominator",
              "type": "uint256"
            }
          ],
          "internalType": "struct OptionLibrary.Percent",
          "name": "_volAddon",
          "type": "tuple"
        },
        {
          "internalType": "uint256",
          "name": "_priceMultiplier",
          "type": "uint256"
        }
      ],
      "name": "calcPremium",
      "outputs": [
        {
          "internalType": "uint256",
          "name": "",
          "type": "uint256"
        }
      ],
      "stateMutability": "pure",
      "type": "function"
    },
    {
      "inputs": [
        {
          "internalType": "uint256",
          "name": "_amount",
          "type": "uint256"
        },
        {
          "components": [
            {
              "internalType": "uint256",
              "name": "numerator",
              "type": "uint256"
            },
            {
              "internalType": "uint256",
              "name": "denominator",
              "type": "uint256"
            }
          ],
          "internalType": "struct OptionLibrary.Percent",
          "name": "_feeAddon",
          "type": "tuple"
        }
      ],
      "name": "calcFee",
      "outputs": [
        {
          "internalType": "uint256",
          "name": "",
          "type": "uint256"
        }
      ],
      "stateMutability": "pure",
      "type": "function"
    }
  ],
  "bytecode": "0x610bc7610053600b82828239805160001a607314610046577f4e487b7100000000000000000000000000000000000000000000000000000000600052600060045260246000fd5b30600052607381538281f3fe73000000000000000000000000000000000000000030146080604052600436106100875760003560e01c8063ab39019711610065578063ab3901971461011c578063ae10d55d1461014c578063d26870851461017c578063eb4da63e146101ac57610087565b8063369995791461008c5780635783dddd146100bc5780639931896a146100ec575b600080fd5b6100a660048036038101906100a191906106ac565b6101dc565b6040516100b391906108bf565b60405180910390f35b6100d660048036038101906100d191906106ec565b610205565b6040516100e391906108bf565b60405180910390f35b6101066004803603810190610101919061062c565b61023f565b60405161011391906108bf565b60405180910390f35b61013660048036038101906101319190610849565b61029d565b60405161014391906108bf565b60405180910390f35b6101666004803603810190610161919061073f565b610375565b60405161017391906108bf565b60405180910390f35b6101966004803603810190610191919061066c565b61042b565b6040516101a391906108bf565b60405180910390f35b6101c660048036038101906101c191906107a6565b610515565b6040516101d391906108bf565b60405180910390f35b600081602001518260000151846101f39190610986565b6101fd9190610955565b905092915050565b6000600a60048386866102189190610986565b6102229190610955565b61022c9190610986565b6102369190610955565b90509392505050565b60008115610280578260090154836007015484600b015485600a015461026591906108ff565b61026f9190610986565b6102799190610955565b9050610297565b82600b015483600a015461029491906108ff565b90505b92915050565b6000808314156102af5782905061036d565b60008486116102d4578483876102c59190610986565b6102cf9190610955565b6102ec565b8583866102e19190610986565b6102eb9190610955565b5b9050600060028486116102ff5785610301565b845b61030b9190610955565b8461031691906109e0565b90506000818560026103289190610986565b61033291906109e0565b90506000828661034291906109e0565b9050838261035091906109e0565b878261035c9190610986565b6103669190610955565b9450505050505b949350505050565b60008060009050600060018111156103905761038f610ac3565b5b8360018111156103a3576103a2610ac3565b5b1480156103af57508585115b156103c35785856103c091906109e0565b90505b6001808111156103d6576103d5610ac3565b5b8360018111156103e9576103e8610ac3565b5b1480156103f557508585105b1561040957848661040691906109e0565b90505b8484826104169190610986565b6104209190610955565b915050949350505050565b600080600090506000600181111561044657610445610ac3565b5b8460000160009054906101000a900460ff16600181111561046a57610469610ac3565b5b14801561047a5750836008015483115b156104925783600801548361048f91906109e0565b90505b6001808111156104a5576104a4610ac3565b5b8460000160009054906101000a900460ff1660018111156104c9576104c8610ac3565b5b1480156104d95750836008015483105b156104f1578284600801546104ee91906109e0565b90505b828460060154826105029190610986565b61050c9190610955565b91505092915050565b600080610524878a8789610375565b9050600061053e610537898c8c8861029d565b8786610205565b905084602001518560000151866020015161055991906108ff565b826105649190610986565b61056e9190610955565b8261057991906108ff565b92505050979650505050505050565b60008135905061059781610b3c565b92915050565b6000813590506105ac81610b53565b92915050565b6000813590506105c181610b63565b92915050565b6000604082840312156105dd576105dc610b21565b5b6105e760406108da565b905060006105f784828501610617565b600083015250602061060b84828501610617565b60208301525092915050565b60008135905061062681610b7a565b92915050565b6000806040838503121561064357610642610b26565b5b6000610651858286016105b2565b925050602061066285828601610588565b9150509250929050565b6000806040838503121561068357610682610b26565b5b6000610691858286016105b2565b92505060206106a285828601610617565b9150509250929050565b600080606083850312156106c3576106c2610b26565b5b60006106d185828601610617565b92505060206106e2858286016105c7565b9150509250929050565b60008060006060848603121561070557610704610b26565b5b600061071386828701610617565b935050602061072486828701610617565b925050604061073586828701610617565b9150509250925092565b6000806000806080858703121561075957610758610b26565b5b600061076787828801610617565b945050602061077887828801610617565b935050604061078987828801610617565b925050606061079a8782880161059d565b91505092959194509250565b6000806000806000806000610100888a0312156107c6576107c5610b26565b5b60006107d48a828b01610617565b97505060206107e58a828b01610617565b96505060406107f68a828b01610617565b95505060606108078a828b0161059d565b94505060806108188a828b01610617565b93505060a06108298a828b016105c7565b92505060e061083a8a828b01610617565b91505092959891949750929550565b6000806000806080858703121561086357610862610b26565b5b600061087187828801610617565b945050602061088287828801610617565b935050604061089387828801610617565b92505060606108a487828801610617565b91505092959194509250565b6108b981610a2a565b82525050565b60006020820190506108d460008301846108b0565b92915050565b60006108e46108f5565b90506108f08282610a34565b919050565b6000604051905090565b600061090a82610a2a565b915061091583610a2a565b9250827fffffffffffffffffffffffffffffffffffffffffffffffffffffffffffffffff0382111561094a57610949610a65565b5b828201905092915050565b600061096082610a2a565b915061096b83610a2a565b92508261097b5761097a610a94565b5b828204905092915050565b600061099182610a2a565b915061099c83610a2a565b9250817fffffffffffffffffffffffffffffffffffffffffffffffffffffffffffffffff04831182151516156109d5576109d4610a65565b5b828202905092915050565b60006109eb82610a2a565b91506109f683610a2a565b925082821015610a0957610a08610a65565b5b828203905092915050565b60008115159050919050565b6000819050919050565b6000819050919050565b610a3d82610b2b565b810181811067ffffffffffffffff82111715610a5c57610a5b610af2565b5b80604052505050565b7f4e487b7100000000000000000000000000000000000000000000000000000000600052601160045260246000fd5b7f4e487b7100000000000000000000000000000000000000000000000000000000600052601260045260246000fd5b7f4e487b7100000000000000000000000000000000000000000000000000000000600052602160045260246000fd5b7f4e487b7100000000000000000000000000000000000000000000000000000000600052604160045260246000fd5b600080fd5b600080fd5b6000601f19601f8301169050919050565b610b4581610a14565b8114610b5057600080fd5b50565b60028110610b6057600080fd5b50565b610b6c81610a20565b8114610b7757600080fd5b50565b610b8381610a2a565b8114610b8e57600080fd5b5056fea2646970667358221220db6997804af6c00d610a2836e6cb71b10691bb1c5160bb8952bc09110d4c492064736f6c63430008060033",
  "immutableReferences": {},
  "source": "/**\n * SPDX-License-Identifier: GPL-3.0-or-later\n * Moret\n * Copyright (C) 2021 Moret\n*/\n\npragma solidity ^0.8.4;\n\nlibrary OptionLibrary {\n  enum PayoffType { Call, Put }\n  enum OptionStatus { Draft, Active, Exercised, Expired}\n\n  struct Option {\n      PayoffType poType;\n      address holder;\n      OptionStatus status;\n      uint256 id;\n      uint256 createTime;\n      uint256 effectiveTime;\n      uint256 tenor;\n      uint256 exerciseTime;\n\n      uint256 amount;\n      uint256 spot;\n      uint256 strike;\n      uint256 volatility;\n      uint256 premium;\n      uint256 fee;\n  }\n\n  struct Percent{\n    uint256 numerator;\n    uint256 denominator;\n  }\n\n  function calcIntrinsicValue(uint256 _strike, uint256 _price, uint256 _amount, PayoffType _poType) public pure returns(uint256)\n  {\n      uint256 _intrinsicValue = 0;\n\n      if((_poType == PayoffType.Call) && (_price > _strike)){\n        _intrinsicValue = _price - _strike;\n      }\n      if((_poType == PayoffType.Put) && (_price<_strike)){\n        _intrinsicValue = _strike - _price;\n      }\n      return _intrinsicValue * _amount / _price;\n  }\n\n  function calcVolSkew(uint256 _strike, uint256 _price, uint256 _volatility, uint256 _priceMultiplier) public pure returns (uint256)\n  {\n    if(_volatility == 0)\n       return _volatility;\n\n    uint256 _moneyness = _strike > _price? (_price * _priceMultiplier / _strike) : (_strike * _priceMultiplier / _price); // always in (0,1]\n\n    uint256 _midPoint = _priceMultiplier - (_volatility > _priceMultiplier? _priceMultiplier: _volatility) / 2 ; // always in [0.5, 1]\n    uint256 _a = 2 * _priceMultiplier - _midPoint; // always in [1, 1.5]\n    uint256 _b = _priceMultiplier - _midPoint; // always in [0, 0.5]\n\n    return _b * _volatility / (_a - _moneyness);\n  }\n\n  function calcTimeValue(uint _volatility, uint256 _amount, uint256 _priceMultiplier) public pure returns(uint256)\n  {\n      return _amount * _volatility / _priceMultiplier * 4 / 10;\n  }\n\n  function calcPremium(uint256 _price, uint256 _volatility, uint256 _strike, PayoffType _poType, uint256 _amount,\n    Percent memory _volAddon, uint256 _priceMultiplier)\n    public pure returns(uint256){\n      uint256 _intrinsicValue = calcIntrinsicValue(_strike, _price, _amount, _poType);\n      uint256 _timeValue = calcTimeValue(calcVolSkew(_strike, _price, _volatility, _priceMultiplier), _amount, _priceMultiplier);\n\n      return _intrinsicValue + (_timeValue * (_volAddon.denominator + _volAddon.numerator) / _volAddon.denominator) ;\n  }\n\n  function calcFee(uint256 _amount, Percent memory _feeAddon) public pure returns(uint256)\n  {\n      return _amount * _feeAddon.numerator / _feeAddon.denominator;\n  }\n\n  function getCost(Option storage _option, bool _inVol) public view returns(uint256){\n    if(_inVol)\n    {\n      return (_option.premium + _option.fee)  * _option.spot / _option.volatility;\n    }\n    return _option.premium + _option.fee;\n  }\n\n  function calcPayoffValue(Option storage _option, uint256 _price) public view returns(uint256)\n  {\n      uint256 _intrinsicValue = 0;\n\n      if((_option.poType == PayoffType.Call) && (_price > _option.strike)){\n        _intrinsicValue = _price - _option.strike;\n      }\n      if((_option.poType == PayoffType.Put) && (_price<_option.strike)){\n        _intrinsicValue = _option.strike - _price;\n      }\n      return _intrinsicValue * _option.amount / _price;\n  }\n\n}\n",
  "sourcePath": "/Users/mac/Documents/GitHub/moret/contracts/OptionLibrary.sol",
  "compiler": {
    "name": "solc",
    "version": "0.8.6+commit.11564f7e.Emscripten.clang"
  },
  "schemaVersion": "3.4.1",
  "updatedAt": "2021-06-27T11:01:17.095Z",
  "devdoc": {
    "kind": "dev",
    "methods": {},
    "version": 1
  },
  "userdoc": {
    "kind": "user",
    "methods": {},
    "version": 1
  }
}