{
  "contractName": "OptionVault",
  "abi": [
    {
      "inputs": [
        {
          "internalType": "address",
          "name": "_volChainAddress",
          "type": "address"
        },
        {
          "internalType": "address",
          "name": "_underlying",
          "type": "address"
        },
        {
          "internalType": "address",
          "name": "_funding",
          "type": "address"
        },
        {
          "internalType": "address",
          "name": "_aaveAddress",
          "type": "address"
        }
      ],
      "stateMutability": "nonpayable",
      "type": "constructor"
    },
    {
      "anonymous": false,
      "inputs": [
        {
          "indexed": true,
          "internalType": "bytes32",
          "name": "role",
          "type": "bytes32"
        },
        {
          "indexed": true,
          "internalType": "bytes32",
          "name": "previousAdminRole",
          "type": "bytes32"
        },
        {
          "indexed": true,
          "internalType": "bytes32",
          "name": "newAdminRole",
          "type": "bytes32"
        }
      ],
      "name": "RoleAdminChanged",
      "type": "event"
    },
    {
      "anonymous": false,
      "inputs": [
        {
          "indexed": true,
          "internalType": "bytes32",
          "name": "role",
          "type": "bytes32"
        },
        {
          "indexed": true,
          "internalType": "address",
          "name": "account",
          "type": "address"
        },
        {
          "indexed": true,
          "internalType": "address",
          "name": "sender",
          "type": "address"
        }
      ],
      "name": "RoleGranted",
      "type": "event"
    },
    {
      "anonymous": false,
      "inputs": [
        {
          "indexed": true,
          "internalType": "bytes32",
          "name": "role",
          "type": "bytes32"
        },
        {
          "indexed": true,
          "internalType": "address",
          "name": "account",
          "type": "address"
        },
        {
          "indexed": true,
          "internalType": "address",
          "name": "sender",
          "type": "address"
        }
      ],
      "name": "RoleRevoked",
      "type": "event"
    },
    {
      "inputs": [],
      "name": "DEFAULT_ADMIN_ROLE",
      "outputs": [
        {
          "internalType": "bytes32",
          "name": "",
          "type": "bytes32"
        }
      ],
      "stateMutability": "view",
      "type": "function",
      "constant": true
    },
    {
      "inputs": [],
      "name": "EXCHANGE_ROLE",
      "outputs": [
        {
          "internalType": "bytes32",
          "name": "",
          "type": "bytes32"
        }
      ],
      "stateMutability": "view",
      "type": "function",
      "constant": true
    },
    {
      "inputs": [],
      "name": "aaveAddress",
      "outputs": [
        {
          "internalType": "address",
          "name": "",
          "type": "address"
        }
      ],
      "stateMutability": "view",
      "type": "function",
      "constant": true
    },
    {
      "inputs": [],
      "name": "funding",
      "outputs": [
        {
          "internalType": "address",
          "name": "",
          "type": "address"
        }
      ],
      "stateMutability": "view",
      "type": "function",
      "constant": true
    },
    {
      "inputs": [
        {
          "internalType": "bytes32",
          "name": "role",
          "type": "bytes32"
        }
      ],
      "name": "getRoleAdmin",
      "outputs": [
        {
          "internalType": "bytes32",
          "name": "",
          "type": "bytes32"
        }
      ],
      "stateMutability": "view",
      "type": "function",
      "constant": true
    },
    {
      "inputs": [
        {
          "internalType": "bytes32",
          "name": "role",
          "type": "bytes32"
        },
        {
          "internalType": "address",
          "name": "account",
          "type": "address"
        }
      ],
      "name": "grantRole",
      "outputs": [],
      "stateMutability": "nonpayable",
      "type": "function"
    },
    {
      "inputs": [
        {
          "internalType": "bytes32",
          "name": "role",
          "type": "bytes32"
        },
        {
          "internalType": "address",
          "name": "account",
          "type": "address"
        }
      ],
      "name": "hasRole",
      "outputs": [
        {
          "internalType": "bool",
          "name": "",
          "type": "bool"
        }
      ],
      "stateMutability": "view",
      "type": "function",
      "constant": true
    },
    {
      "inputs": [],
      "name": "optionCounter",
      "outputs": [
        {
          "internalType": "uint256",
          "name": "",
          "type": "uint256"
        }
      ],
      "stateMutability": "view",
      "type": "function",
      "constant": true
    },
    {
      "inputs": [
        {
          "internalType": "bytes32",
          "name": "role",
          "type": "bytes32"
        },
        {
          "internalType": "address",
          "name": "account",
          "type": "address"
        }
      ],
      "name": "renounceRole",
      "outputs": [],
      "stateMutability": "nonpayable",
      "type": "function"
    },
    {
      "inputs": [
        {
          "internalType": "bytes32",
          "name": "role",
          "type": "bytes32"
        },
        {
          "internalType": "address",
          "name": "account",
          "type": "address"
        }
      ],
      "name": "revokeRole",
      "outputs": [],
      "stateMutability": "nonpayable",
      "type": "function"
    },
    {
      "inputs": [
        {
          "internalType": "bytes4",
          "name": "interfaceId",
          "type": "bytes4"
        }
      ],
      "name": "supportsInterface",
      "outputs": [
        {
          "internalType": "bool",
          "name": "",
          "type": "bool"
        }
      ],
      "stateMutability": "view",
      "type": "function",
      "constant": true
    },
    {
      "inputs": [],
      "name": "underlying",
      "outputs": [
        {
          "internalType": "address",
          "name": "",
          "type": "address"
        }
      ],
      "stateMutability": "view",
      "type": "function",
      "constant": true
    },
    {
      "inputs": [],
      "name": "volChainAddress",
      "outputs": [
        {
          "internalType": "address",
          "name": "",
          "type": "address"
        }
      ],
      "stateMutability": "view",
      "type": "function",
      "constant": true
    },
    {
      "inputs": [],
      "name": "descriptionHash",
      "outputs": [
        {
          "internalType": "bytes32",
          "name": "",
          "type": "bytes32"
        }
      ],
      "stateMutability": "view",
      "type": "function",
      "constant": true
    },
    {
      "inputs": [
        {
          "internalType": "uint256",
          "name": "_tenor",
          "type": "uint256"
        },
        {
          "internalType": "uint256",
          "name": "_strike",
          "type": "uint256"
        },
        {
          "internalType": "uint256",
          "name": "_amount",
          "type": "uint256"
        },
        {
          "internalType": "enum OptionLibrary.PayoffType",
          "name": "_poType",
          "type": "uint8"
        },
        {
          "internalType": "enum OptionLibrary.OptionSide",
          "name": "_side",
          "type": "uint8"
        },
        {
          "internalType": "uint256",
          "name": "_premium",
          "type": "uint256"
        },
        {
          "internalType": "uint256",
          "name": "_cost",
          "type": "uint256"
        },
        {
          "internalType": "uint256",
          "name": "_price",
          "type": "uint256"
        },
        {
          "internalType": "uint256",
          "name": "_volatility",
          "type": "uint256"
        },
        {
          "internalType": "address",
          "name": "_holder",
          "type": "address"
        }
      ],
      "name": "addOption",
      "outputs": [
        {
          "internalType": "uint256",
          "name": "_id",
          "type": "uint256"
        }
      ],
      "stateMutability": "nonpayable",
      "type": "function"
    },
    {
      "inputs": [
        {
          "internalType": "uint256",
          "name": "_id",
          "type": "uint256"
        }
      ],
      "name": "getOptionHolder",
      "outputs": [
        {
          "internalType": "address",
          "name": "",
          "type": "address"
        }
      ],
      "stateMutability": "view",
      "type": "function",
      "constant": true
    },
    {
      "inputs": [
        {
          "internalType": "address",
          "name": "_address",
          "type": "address"
        }
      ],
      "name": "getHoldersOptionCount",
      "outputs": [
        {
          "internalType": "uint256",
          "name": "",
          "type": "uint256"
        }
      ],
      "stateMutability": "view",
      "type": "function",
      "constant": true
    },
    {
      "inputs": [
        {
          "internalType": "uint256",
          "name": "_index",
          "type": "uint256"
        },
        {
          "internalType": "address",
          "name": "_address",
          "type": "address"
        }
      ],
      "name": "getHoldersOption",
      "outputs": [
        {
          "components": [
            {
              "internalType": "enum OptionLibrary.PayoffType",
              "name": "poType",
              "type": "uint8"
            },
            {
              "internalType": "enum OptionLibrary.OptionSide",
              "name": "side",
              "type": "uint8"
            },
            {
              "internalType": "enum OptionLibrary.OptionStatus",
              "name": "status",
              "type": "uint8"
            },
            {
              "internalType": "address",
              "name": "holder",
              "type": "address"
            },
            {
              "internalType": "uint256",
              "name": "id",
              "type": "uint256"
            },
            {
              "internalType": "uint256",
              "name": "createTime",
              "type": "uint256"
            },
            {
              "internalType": "uint256",
              "name": "effectiveTime",
              "type": "uint256"
            },
            {
              "internalType": "uint256",
              "name": "tenor",
              "type": "uint256"
            },
            {
              "internalType": "uint256",
              "name": "maturity",
              "type": "uint256"
            },
            {
              "internalType": "uint256",
              "name": "exerciseTime",
              "type": "uint256"
            },
            {
              "internalType": "uint256",
              "name": "amount",
              "type": "uint256"
            },
            {
              "internalType": "uint256",
              "name": "spot",
              "type": "uint256"
            },
            {
              "internalType": "uint256",
              "name": "strike",
              "type": "uint256"
            },
            {
              "internalType": "uint256",
              "name": "volatility",
              "type": "uint256"
            },
            {
              "internalType": "uint256",
              "name": "premium",
              "type": "uint256"
            },
            {
              "internalType": "uint256",
              "name": "cost",
              "type": "uint256"
            }
          ],
          "internalType": "struct OptionLibrary.Option",
          "name": "",
          "type": "tuple"
        }
      ],
      "stateMutability": "view",
      "type": "function",
      "constant": true
    },
    {
      "inputs": [
        {
          "internalType": "uint256",
          "name": "_id",
          "type": "uint256"
        }
      ],
      "name": "getOption",
      "outputs": [
        {
          "components": [
            {
              "internalType": "enum OptionLibrary.PayoffType",
              "name": "poType",
              "type": "uint8"
            },
            {
              "internalType": "enum OptionLibrary.OptionSide",
              "name": "side",
              "type": "uint8"
            },
            {
              "internalType": "enum OptionLibrary.OptionStatus",
              "name": "status",
              "type": "uint8"
            },
            {
              "internalType": "address",
              "name": "holder",
              "type": "address"
            },
            {
              "internalType": "uint256",
              "name": "id",
              "type": "uint256"
            },
            {
              "internalType": "uint256",
              "name": "createTime",
              "type": "uint256"
            },
            {
              "internalType": "uint256",
              "name": "effectiveTime",
              "type": "uint256"
            },
            {
              "internalType": "uint256",
              "name": "tenor",
              "type": "uint256"
            },
            {
              "internalType": "uint256",
              "name": "maturity",
              "type": "uint256"
            },
            {
              "internalType": "uint256",
              "name": "exerciseTime",
              "type": "uint256"
            },
            {
              "internalType": "uint256",
              "name": "amount",
              "type": "uint256"
            },
            {
              "internalType": "uint256",
              "name": "spot",
              "type": "uint256"
            },
            {
              "internalType": "uint256",
              "name": "strike",
              "type": "uint256"
            },
            {
              "internalType": "uint256",
              "name": "volatility",
              "type": "uint256"
            },
            {
              "internalType": "uint256",
              "name": "premium",
              "type": "uint256"
            },
            {
              "internalType": "uint256",
              "name": "cost",
              "type": "uint256"
            }
          ],
          "internalType": "struct OptionLibrary.Option",
          "name": "",
          "type": "tuple"
        }
      ],
      "stateMutability": "view",
      "type": "function",
      "constant": true
    },
    {
      "inputs": [],
      "name": "getAggregateNotional",
      "outputs": [
        {
          "internalType": "uint256",
          "name": "_notional",
          "type": "uint256"
        }
      ],
      "stateMutability": "view",
      "type": "function",
      "constant": true
    },
    {
      "inputs": [
        {
          "internalType": "address",
          "name": "_address",
          "type": "address"
        }
      ],
      "name": "getGrossCapital",
      "outputs": [
        {
          "internalType": "uint256",
          "name": "_capital",
          "type": "uint256"
        }
      ],
      "stateMutability": "view",
      "type": "function",
      "constant": true
    },
    {
      "inputs": [],
      "name": "getMaxHedge",
      "outputs": [
        {
          "internalType": "uint256",
          "name": "",
          "type": "uint256"
        }
      ],
      "stateMutability": "view",
      "type": "function",
      "constant": true
    },
    {
      "inputs": [],
      "name": "getSellPutCollateral",
      "outputs": [
        {
          "internalType": "uint256",
          "name": "_collateral",
          "type": "uint256"
        }
      ],
      "stateMutability": "view",
      "type": "function",
      "constant": true
    },
    {
      "inputs": [
        {
          "internalType": "uint256",
          "name": "_id",
          "type": "uint256"
        }
      ],
      "name": "getContractPayoff",
      "outputs": [
        {
          "internalType": "uint256",
          "name": "_payoff",
          "type": "uint256"
        },
        {
          "internalType": "uint256",
          "name": "_payback",
          "type": "uint256"
        }
      ],
      "stateMutability": "view",
      "type": "function",
      "constant": true
    },
    {
      "inputs": [
        {
          "internalType": "uint256",
          "name": "_id",
          "type": "uint256"
        },
        {
          "internalType": "uint256",
          "name": "_price",
          "type": "uint256"
        },
        {
          "internalType": "bool",
          "name": "_includeExpiring",
          "type": "bool"
        }
      ],
      "name": "calculateContractDelta",
      "outputs": [
        {
          "internalType": "int256",
          "name": "_delta",
          "type": "int256"
        }
      ],
      "stateMutability": "view",
      "type": "function",
      "constant": true
    },
    {
      "inputs": [
        {
          "internalType": "uint256",
          "name": "_price",
          "type": "uint256"
        },
        {
          "internalType": "bool",
          "name": "_includeExpiring",
          "type": "bool"
        }
      ],
      "name": "calculateAggregateDelta",
      "outputs": [
        {
          "internalType": "int256",
          "name": "_delta",
          "type": "int256"
        }
      ],
      "stateMutability": "view",
      "type": "function",
      "constant": true
    },
    {
      "inputs": [
        {
          "internalType": "uint256",
          "name": "_id",
          "type": "uint256"
        },
        {
          "internalType": "uint256",
          "name": "_price",
          "type": "uint256"
        }
      ],
      "name": "calculateContractGamma",
      "outputs": [
        {
          "internalType": "int256",
          "name": "_gamma",
          "type": "int256"
        }
      ],
      "stateMutability": "view",
      "type": "function",
      "constant": true
    },
    {
      "inputs": [],
      "name": "calculateAggregateGamma",
      "outputs": [
        {
          "internalType": "int256",
          "name": "_gamma",
          "type": "int256"
        }
      ],
      "stateMutability": "view",
      "type": "function",
      "constant": true
    },
    {
      "inputs": [],
      "name": "calculateSpotGamma",
      "outputs": [
        {
          "internalType": "int256",
          "name": "_gamma",
          "type": "int256"
        }
      ],
      "stateMutability": "view",
      "type": "function",
      "constant": true
    },
    {
      "inputs": [],
      "name": "anyOptionExpiring",
      "outputs": [
        {
          "internalType": "bool",
          "name": "_isExpiring",
          "type": "bool"
        }
      ],
      "stateMutability": "view",
      "type": "function",
      "constant": true
    },
    {
      "inputs": [
        {
          "internalType": "uint256",
          "name": "_id",
          "type": "uint256"
        }
      ],
      "name": "isExpiring",
      "outputs": [
        {
          "internalType": "bool",
          "name": "",
          "type": "bool"
        }
      ],
      "stateMutability": "view",
      "type": "function",
      "constant": true
    },
    {
      "inputs": [],
      "name": "getExpiringOptionId",
      "outputs": [
        {
          "internalType": "uint256",
          "name": "_id",
          "type": "uint256"
        }
      ],
      "stateMutability": "view",
      "type": "function",
      "constant": true
    },
    {
      "inputs": [
        {
          "internalType": "uint256",
          "name": "_id",
          "type": "uint256"
        },
        {
          "internalType": "address",
          "name": "_holder",
          "type": "address"
        }
      ],
      "name": "stampActiveOption",
      "outputs": [],
      "stateMutability": "nonpayable",
      "type": "function"
    },
    {
      "inputs": [
        {
          "internalType": "uint256",
          "name": "_id",
          "type": "uint256"
        }
      ],
      "name": "stampExpiredOption",
      "outputs": [],
      "stateMutability": "nonpayable",
      "type": "function"
    },
    {
      "inputs": [
        {
          "internalType": "address",
          "name": "_address",
          "type": "address"
        },
        {
          "internalType": "uint256",
          "name": "_swapSlippage",
          "type": "uint256"
        }
      ],
      "name": "calcSwapTradesInTok",
      "outputs": [
        {
          "internalType": "int256",
          "name": "_tradeUnderlyingAmount",
          "type": "int256"
        },
        {
          "internalType": "int256",
          "name": "_tradeFundingAmount",
          "type": "int256"
        }
      ],
      "stateMutability": "view",
      "type": "function",
      "constant": true
    },
    {
      "inputs": [
        {
          "internalType": "address",
          "name": "_address",
          "type": "address"
        }
      ],
      "name": "getBalances",
      "outputs": [
        {
          "internalType": "uint256",
          "name": "_underlyingBalance",
          "type": "uint256"
        },
        {
          "internalType": "uint256",
          "name": "_fundingBalance",
          "type": "uint256"
        },
        {
          "internalType": "uint256",
          "name": "_collateralBalance",
          "type": "uint256"
        },
        {
          "internalType": "uint256",
          "name": "_debtBalance",
          "type": "uint256"
        }
      ],
      "stateMutability": "view",
      "type": "function",
      "constant": true
    },
    {
      "inputs": [
        {
          "internalType": "address",
          "name": "_address",
          "type": "address"
        },
        {
          "internalType": "uint256",
          "name": "_lendingPoolRateMode",
          "type": "uint256"
        }
      ],
      "name": "calcLoanRepaymentInTok",
      "outputs": [
        {
          "internalType": "uint256",
          "name": "_repayAmount",
          "type": "uint256"
        },
        {
          "internalType": "uint256",
          "name": "_repaySwapValue",
          "type": "uint256"
        }
      ],
      "stateMutability": "view",
      "type": "function",
      "constant": true
    },
    {
      "inputs": [
        {
          "internalType": "address",
          "name": "_address",
          "type": "address"
        },
        {
          "internalType": "uint256",
          "name": "_lendingPoolRateMode",
          "type": "uint256"
        }
      ],
      "name": "calcLoanTrades",
      "outputs": [
        {
          "internalType": "int256",
          "name": "_loanTradeAmount",
          "type": "int256"
        },
        {
          "internalType": "int256",
          "name": "_collateralChange",
          "type": "int256"
        },
        {
          "internalType": "address",
          "name": "_loanAddress",
          "type": "address"
        },
        {
          "internalType": "address",
          "name": "_collateralAddress",
          "type": "address"
        }
      ],
      "stateMutability": "view",
      "type": "function",
      "constant": true
    },
    {
      "inputs": [
        {
          "internalType": "uint256",
          "name": "_tenor",
          "type": "uint256"
        }
      ],
      "name": "queryVol",
      "outputs": [
        {
          "internalType": "uint256",
          "name": "",
          "type": "uint256"
        }
      ],
      "stateMutability": "view",
      "type": "function",
      "constant": true
    },
    {
      "inputs": [],
      "name": "queryPrice",
      "outputs": [
        {
          "internalType": "uint256",
          "name": "",
          "type": "uint256"
        },
        {
          "internalType": "uint256",
          "name": "",
          "type": "uint256"
        }
      ],
      "stateMutability": "view",
      "type": "function",
      "constant": true
    },
    {
      "inputs": [],
      "name": "tokenHash",
      "outputs": [
        {
          "internalType": "bytes32",
          "name": "",
          "type": "bytes32"
        }
      ],
      "stateMutability": "view",
      "type": "function",
      "constant": true
    }
  ],
  "bytecode": "0x608060405260006002553480156200001657600080fd5b5060405162005d2638038062005d2683398181016040528101906200003c9190620003b5565b620000516000801b33620001d260201b60201c565b620000837f28d62fc77014de57a1bbaa8212ff0979fa61ab00d377b4b8d9762048fb41996133620001d260201b60201c565b83600760006101000a81548173ffffffffffffffffffffffffffffffffffffffff021916908373ffffffffffffffffffffffffffffffffffffffff16021790555083600660006101000a81548173ffffffffffffffffffffffffffffffffffffffff021916908373ffffffffffffffffffffffffffffffffffffffff16021790555081600a60006101000a81548173ffffffffffffffffffffffffffffffffffffffff021916908373ffffffffffffffffffffffffffffffffffffffff16021790555082600960006101000a81548173ffffffffffffffffffffffffffffffffffffffff021916908373ffffffffffffffffffffffffffffffffffffffff16021790555080600860006101000a81548173ffffffffffffffffffffffffffffffffffffffff021916908373ffffffffffffffffffffffffffffffffffffffff1602179055505050505062000427565b620001e48282620001e860201b60201c565b5050565b620001fa8282620002d960201b60201c565b620002d557600160008084815260200190815260200160002060000160008373ffffffffffffffffffffffffffffffffffffffff1673ffffffffffffffffffffffffffffffffffffffff16815260200190815260200160002060006101000a81548160ff0219169083151502179055506200027a6200034360201b60201c565b73ffffffffffffffffffffffffffffffffffffffff168173ffffffffffffffffffffffffffffffffffffffff16837f2f8788117e7eff1d82e926ec794901d17c78024a50270940304540a733656f0d60405160405180910390a45b5050565b600080600084815260200190815260200160002060000160008373ffffffffffffffffffffffffffffffffffffffff1673ffffffffffffffffffffffffffffffffffffffff16815260200190815260200160002060009054906101000a900460ff16905092915050565b600033905090565b600080fd5b600073ffffffffffffffffffffffffffffffffffffffff82169050919050565b60006200037d8262000350565b9050919050565b6200038f8162000370565b81146200039b57600080fd5b50565b600081519050620003af8162000384565b92915050565b60008060008060808587031215620003d257620003d16200034b565b5b6000620003e2878288016200039e565b9450506020620003f5878288016200039e565b935050604062000408878288016200039e565b92505060606200041b878288016200039e565b91505092959194509250565b6158ef80620004376000396000f3fe608060405234801561001057600080fd5b50600436106102535760003560e01c806385dcee9311610146578063b0667cf8116100c3578063cb4c86b711610087578063cb4c86b7146107a5578063cca49473146107c3578063cfc2dc20146107e1578063d547741f14610811578063ec5398281461082d578063f8a351811461085e57610253565b8063b0667cf8146106c2578063b4f8fe49146106e1578063b5310ff914610712578063c7da750514610742578063c84aae171461077257610253565b806390618ed91161010a57806390618ed91461060857806391d14854146106265780639bc67cd214610656578063a217fddf14610674578063a42b66261461069257610253565b806385dcee931461052a5780638a0687d2146105485780638b83b6b6146105785780638cbb0cd0146105a85780638e82c9f1146105d857610253565b8063448ba42f116101d45780636f307dc3116101985780636f307dc3146104815780636fe440311461049f57806371eaf9c6146104bd5780637652e7c4146104db57806385ae10e6146104f957610253565b8063448ba42f146103c65780634717f5b9146103e45780634b3ba34014610402578063637baf601461043257806365bf99761461044e57610253565b806324b4110e1161021b57806324b4110e14610336578063251e1e8a146103525780632f2ff15d1461037057806336568abe1461038c5780633b734501146103a857610253565b806301ffc9a7146102585780630eb5cbfe146102885780631a7985ba146102a65780631ce5e9a6146102d6578063248a9ca314610306575b600080fd5b610272600480360381019061026d9190614272565b61087c565b60405161027f91906142ba565b60405180910390f35b6102906108f6565b60405161029d91906142ee565b60405180910390f35b6102c060048036038101906102bb9190614335565b610959565b6040516102cd91906143a3565b60405180910390f35b6102f060048036038101906102eb9190614335565b610999565b6040516102fd919061462d565b60405180910390f35b610320600480360381019061031b919061467f565b610b46565b60405161032d91906146bb565b60405180910390f35b610350600480360381019061034b9190614702565b610b65565b005b61035a610cae565b60405161036791906143a3565b60405180910390f35b61038a60048036038101906103859190614742565b610cd4565b005b6103a660048036038101906103a19190614742565b610cfd565b005b6103b0610d80565b6040516103bd91906146bb565b60405180910390f35b6103ce610da4565b6040516103db91906142ee565b60405180910390f35b6103ec610f2e565b6040516103f991906142ee565b60405180910390f35b61041c60048036038101906104179190614782565b611119565b60405161042991906147db565b60405180910390f35b61044c60048036038101906104479190614335565b6113d1565b005b610468600480360381019061046391906147f6565b6114fe565b6040516104789493929190614836565b60405180910390f35b6104896117d3565b60405161049691906143a3565b60405180910390f35b6104a76117f9565b6040516104b491906147db565b60405180910390f35b6104c56118e9565b6040516104d291906143a3565b60405180910390f35b6104e361190f565b6040516104f091906142ee565b60405180910390f35b610513600480360381019061050e9190614335565b611977565b60405161052192919061487b565b60405180910390f35b610532611d39565b60405161053f91906146bb565b60405180910390f35b610562600480360381019061055d9190614702565b611dfc565b60405161056f919061462d565b60405180910390f35b610592600480360381019061058d91906148a4565b611ffa565b60405161059f91906142ee565b60405180910390f35b6105c260048036038101906105bd91906148fd565b61227c565b6040516105cf91906147db565b60405180910390f35b6105f260048036038101906105ed9190614950565b61268a565b6040516105ff91906147db565b60405180910390f35b6106106126e4565b60405161061d91906142ba565b60405180910390f35b610640600480360381019061063b9190614742565b61273a565b60405161064d91906142ba565b60405180910390f35b61065e6127a4565b60405161066b91906147db565b60405180910390f35b61067c6129a2565b60405161068991906146bb565b60405180910390f35b6106ac60048036038101906106a791906148a4565b6129a9565b6040516106b991906142ee565b60405180910390f35b6106ca6129f9565b6040516106d892919061487b565b60405180910390f35b6106fb60048036038101906106f691906147f6565b612a94565b60405161070992919061487b565b60405180910390f35b61072c600480360381019061072791906149da565b612f11565b60405161073991906142ee565b60405180910390f35b61075c60048036038101906107579190614335565b613198565b60405161076991906142ba565b60405180910390f35b61078c600480360381019061078791906148a4565b61320e565b60405161079c9493929190614ab9565b60405180910390f35b6107ad613409565b6040516107ba91906143a3565b60405180910390f35b6107cb61342f565b6040516107d891906146bb565b60405180910390f35b6107fb60048036038101906107f69190614335565b6134c7565b60405161080891906142ee565b60405180910390f35b61082b60048036038101906108269190614742565b61356c565b005b610847600480360381019061084291906147f6565b613595565b604051610855929190614afe565b60405180910390f35b6108666138b6565b60405161087391906142ee565b60405180910390f35b60007f7965db0b000000000000000000000000000000000000000000000000000000007bffffffffffffffffffffffffffffffffffffffffffffffffffffffff1916827bffffffffffffffffffffffffffffffffffffffffffffffffffffffff191614806108ef57506108ee826138bc565b5b9050919050565b6000805b6109046004613926565b811015610955576001600061092383600461393b90919063ffffffff16565b815260200190815260200160002060070154826109409190614b56565b9150808061094d90614bac565b9150506108fa565b5090565b60006001600083815260200190815260200160002060000160039054906101000a900473ffffffffffffffffffffffffffffffffffffffff169050919050565b6109a161413d565b60016000838152602001908152602001600020604051806102000160405290816000820160009054906101000a900460ff1660018111156109e5576109e46143be565b5b60018111156109f7576109f66143be565b5b81526020016000820160019054906101000a900460ff166001811115610a2057610a1f6143be565b5b6001811115610a3257610a316143be565b5b81526020016000820160029054906101000a900460ff166003811115610a5b57610a5a6143be565b5b6003811115610a6d57610a6c6143be565b5b81526020016000820160039054906101000a900473ffffffffffffffffffffffffffffffffffffffff1673ffffffffffffffffffffffffffffffffffffffff1673ffffffffffffffffffffffffffffffffffffffff168152602001600182015481526020016002820154815260200160038201548152602001600482015481526020016005820154815260200160068201548152602001600782015481526020016008820154815260200160098201548152602001600a8201548152602001600b8201548152602001600c820154815250509050919050565b6000806000838152602001908152602001600020600101549050919050565b7f28d62fc77014de57a1bbaa8212ff0979fa61ab00d377b4b8d9762048fb419961610b9781610b92613955565b61395d565b42600160008581526020019081526020016000206003018190555060016000848152602001908152602001600020600401546001600085815260200190815260200160002060030154610bea9190614b56565b6001600085815260200190815260200160002060050181905550600180600085815260200190815260200160002060000160026101000a81548160ff02191690836003811115610c3d57610c3c6143be565b5b0217905550610c9383600360008573ffffffffffffffffffffffffffffffffffffffff1673ffffffffffffffffffffffffffffffffffffffff1681526020019081526020016000206139fa90919063ffffffff16565b50610ca88360046139fa90919063ffffffff16565b50505050565b600860009054906101000a900473ffffffffffffffffffffffffffffffffffffffff1681565b610cdd82610b46565b610cee81610ce9613955565b61395d565b610cf88383613a14565b505050565b610d05613955565b73ffffffffffffffffffffffffffffffffffffffff168173ffffffffffffffffffffffffffffffffffffffff1614610d72576040517f08c379a0000000000000000000000000000000000000000000000000000000008152600401610d6990614c78565b60405180910390fd5b610d7c8282613af4565b5050565b7f28d62fc77014de57a1bbaa8212ff0979fa61ab00d377b4b8d9762048fb41996181565b600080600660009054906101000a900473ffffffffffffffffffffffffffffffffffffffff1673ffffffffffffffffffffffffffffffffffffffff1663b0667cf86040518163ffffffff1660e01b81526004016040805180830381865afa158015610e13573d6000803e3d6000fd5b505050506040513d601f19601f82011682018060405250810190610e379190614cad565b5090506000610e55620186a083610e4e9190614d1c565b600161268a565b90506000610e72620186a084610e6b9190614d4d565b600161268a565b9050610f26610eb36000841215610e925783610e8d90614da7565b610e94565b835b6000841215610eac5783610ea790614da7565b610eae565b835b613bd5565b8473__OptionLibrary_________________________63fd9b87636040518163ffffffff1660e01b8152600401602060405180830381865af4158015610efd573d6000803e3d6000fd5b505050506040513d601f19601f82011682018060405250810190610f219190614df0565b613bef565b935050505090565b6000805b610f3c6004613926565b811015611115576000610f5982600461393b90919063ffffffff16565b905060016003811115610f6f57610f6e6143be565b5b6001600083815260200190815260200160002060000160029054906101000a900460ff166003811115610fa557610fa46143be565b5b148015610ff85750600180811115610fc057610fbf6143be565b5b6001600083815260200190815260200160002060000160019054906101000a900460ff166001811115610ff657610ff56143be565b5b145b801561104a5750600180811115611012576110116143be565b5b6001600083815260200190815260200160002060000160009054906101000a900460ff166001811115611048576110476143be565b5b145b15611101576001600082815260200190815260200160002073__OptionLibrary_________________________630862958b909160016000858152602001908152602001600020600901546040518363ffffffff1660e01b81526004016110b2929190614e33565b602060405180830381865af41580156110cf573d6000803e3d6000fd5b505050506040513d601f19601f820116820180604052508101906110f39190614df0565b836110fe9190614b56565b92505b50808061110d90614bac565b915050610f32565b5090565b60006001600381111561112f5761112e6143be565b5b6001600085815260200190815260200160002060000160029054906101000a900460ff166003811115611165576111646143be565b5b1480156111875750426001600085815260200190815260200160002060050154115b156113cb576000600660009054906101000a900473ffffffffffffffffffffffffffffffffffffffff1673ffffffffffffffffffffffffffffffffffffffff1663040b030f4260016000888152602001908152602001600020600501546111ee9190614e5c565b6040518263ffffffff1660e01b815260040161120a91906142ee565b602060405180830381865afa158015611227573d6000803e3d6000fd5b505050506040513d601f19601f8201168201806040525081019061124b9190614df0565b905061136b73__OptionLibrary_________________________639932b2be856001600089815260200190815260200160002060090154856040518463ffffffff1660e01b81526004016112a193929190614e90565b602060405180830381865af41580156112be573d6000803e3d6000fd5b505050506040513d601f19601f820116820180604052508101906112e29190614df0565b600160008781526020019081526020016000206007015473__OptionLibrary_________________________63fd9b87636040518163ffffffff1660e01b8152600401602060405180830381865af4158015611342573d6000803e3d6000fd5b505050506040513d601f19601f820116820180604052508101906113669190614df0565b613bef565b91506001808111156113805761137f6143be565b5b6001600086815260200190815260200160002060000160019054906101000a900460ff1660018111156113b6576113b56143be565b5b14156113c957816113c690614da7565b91505b505b92915050565b7f28d62fc77014de57a1bbaa8212ff0979fa61ab00d377b4b8d9762048fb419961611403816113fe613955565b61395d565b42600160008481526020019081526020016000206006018190555060036001600084815260200190815260200160002060000160026101000a81548160ff02191690836003811115611458576114576143be565b5b02179055506114e482600360006001600087815260200190815260200160002060000160039054906101000a900473ffffffffffffffffffffffffffffffffffffffff1673ffffffffffffffffffffffffffffffffffffffff1673ffffffffffffffffffffffffffffffffffffffff168152602001908152602001600020613ceb90919063ffffffff16565b506114f9826004613ceb90919063ffffffff16565b505050565b6000806000806000600660009054906101000a900473ffffffffffffffffffffffffffffffffffffffff1673ffffffffffffffffffffffffffffffffffffffff1663b0667cf86040518163ffffffff1660e01b81526004016040805180830381865afa158015611572573d6000803e3d6000fd5b505050506040513d601f19601f820116820180604052508101906115969190614cad565b50905060006115a682600061268a565b90506000600860009054906101000a900473ffffffffffffffffffffffffffffffffffffffff1673ffffffffffffffffffffffffffffffffffffffff166321f8a7216040518163ffffffff1660e01b815260040161160390614eed565b602060405180830381865afa158015611620573d6000803e3d6000fd5b505050506040513d601f19601f820116820180604052508101906116449190614f1b565b9050600073__MarketLibrary_________________________63b076288a8b8486600960009054906101000a900473ffffffffffffffffffffffffffffffffffffffff1660028f146040518663ffffffff1660e01b81526004016116ac959493929190614f75565b606060405180830381865af41580156116c9573d6000803e3d6000fd5b505050506040513d601f19601f820116820180604052508101906116ed9190614ff4565b809850819350829a5050505073__MarketLibrary_________________________6312638d3a8b848488600a60009054906101000a900473ffffffffffffffffffffffffffffffffffffffff16600960009054906101000a900473ffffffffffffffffffffffffffffffffffffffff166040518763ffffffff1660e01b815260040161177e96959493929190615047565b6040805180830381865af415801561179a573d6000803e3d6000fd5b505050506040513d601f19601f820116820180604052508101906117be91906150a8565b80965081985050505050505092959194509250565b600960009054906101000a900473ffffffffffffffffffffffffffffffffffffffff1681565b600080600660009054906101000a900473ffffffffffffffffffffffffffffffffffffffff1673ffffffffffffffffffffffffffffffffffffffff1663b0667cf86040518163ffffffff1660e01b81526004016040805180830381865afa158015611868573d6000803e3d6000fd5b505050506040513d601f19601f8201168201806040525081019061188c9190614cad565b5090506000915060005b6118a06004613926565b8110156118e4576118c46118be82600461393b90919063ffffffff16565b83611119565b836118cf91906150e8565b925080806118dc90614bac565b915050611896565b505090565b600760009054906101000a900473ffffffffffffffffffffffffffffffffffffffff1681565b6000805b61191d6004613926565b8110156119735761194061193b82600461393b90919063ffffffff16565b613198565b156119605761195981600461393b90919063ffffffff16565b9150611973565b808061196b90614bac565b915050611913565b5090565b6000806000600660009054906101000a900473ffffffffffffffffffffffffffffffffffffffff1673ffffffffffffffffffffffffffffffffffffffff1663b0667cf86040518163ffffffff1660e01b81526004016040805180830381865afa1580156119e8573d6000803e3d6000fd5b505050506040513d601f19601f82011682018060405250810190611a0c9190614cad565b5090506001600085815260200190815260200160002073__OptionLibrary_________________________63a69d3ae09091836040518363ffffffff1660e01b8152600401611a5c929190614e33565b602060405180830381865af4158015611a79573d6000803e3d6000fd5b505050506040513d601f19601f82011682018060405250810190611a9d9190614df0565b9250829150600180811115611ab557611ab46143be565b5b6001600086815260200190815260200160002060000160019054906101000a900460ff166001811115611aeb57611aea6143be565b5b148015611b3f575060006001811115611b0757611b066143be565b5b6001600086815260200190815260200160002060000160009054906101000a900460ff166001811115611b3d57611b3c6143be565b5b145b15611be057826001600086815260200190815260200160002073__OptionLibrary_________________________630862958b9091846040518363ffffffff1660e01b8152600401611b92929190614e33565b602060405180830381865af4158015611baf573d6000803e3d6000fd5b505050506040513d601f19601f82011682018060405250810190611bd39190614df0565b611bdd9190614e5c565b91505b600180811115611bf357611bf26143be565b5b6001600086815260200190815260200160002060000160019054906101000a900460ff166001811115611c2957611c286143be565b5b148015611c7c5750600180811115611c4457611c436143be565b5b6001600086815260200190815260200160002060000160009054906101000a900460ff166001811115611c7a57611c796143be565b5b145b15611d3357826001600086815260200190815260200160002073__OptionLibrary_________________________630862958b909160016000898152602001908152602001600020600901546040518363ffffffff1660e01b8152600401611ce5929190614e33565b602060405180830381865af4158015611d02573d6000803e3d6000fd5b505050506040513d601f19601f82011682018060405250810190611d269190614df0565b611d309190614e5c565b91505b50915091565b6000600660009054906101000a900473ffffffffffffffffffffffffffffffffffffffff1673ffffffffffffffffffffffffffffffffffffffff166398de78976040518163ffffffff1660e01b8152600401600060405180830381865afa158015611da8573d6000803e3d6000fd5b505050506040513d6000823e3d601f19601f82011682018060405250810190611dd191906152e6565b604051602001611de19190615376565b60405160208183030381529060405280519060200120905090565b611e0461413d565b60016000611e5985600360008773ffffffffffffffffffffffffffffffffffffffff1673ffffffffffffffffffffffffffffffffffffffff16815260200190815260200160002061393b90919063ffffffff16565b8152602001908152602001600020604051806102000160405290816000820160009054906101000a900460ff166001811115611e9857611e976143be565b5b6001811115611eaa57611ea96143be565b5b81526020016000820160019054906101000a900460ff166001811115611ed357611ed26143be565b5b6001811115611ee557611ee46143be565b5b81526020016000820160029054906101000a900460ff166003811115611f0e57611f0d6143be565b5b6003811115611f2057611f1f6143be565b5b81526020016000820160039054906101000a900473ffffffffffffffffffffffffffffffffffffffff1673ffffffffffffffffffffffffffffffffffffffff1673ffffffffffffffffffffffffffffffffffffffff168152602001600182015481526020016002820154815260200160038201548152602001600482015481526020016005820154815260200160068201548152602001600782015481526020016008820154815260200160098201548152602001600a8201548152602001600b8201548152602001600c82015481525050905092915050565b600080600660009054906101000a900473ffffffffffffffffffffffffffffffffffffffff1673ffffffffffffffffffffffffffffffffffffffff1663b0667cf86040518163ffffffff1660e01b81526004016040805180830381865afa158015612069573d6000803e3d6000fd5b505050506040513d601f19601f8201168201806040525081019061208d9190614cad565b50905060008060008061209f8761320e565b935093509350935061211e848673__OptionLibrary_________________________63fd9b87636040518163ffffffff1660e01b8152600401602060405180830381865af41580156120f5573d6000803e3d6000fd5b505050506040513d601f19601f820116820180604052508101906121199190614df0565b613bef565b828461212a9190614b56565b6121349190614b56565b95506121ad818673__OptionLibrary_________________________63fd9b87636040518163ffffffff1660e01b8152600401602060405180830381865af4158015612184573d6000803e3d6000fd5b505050506040513d601f19601f820116820180604052508101906121a89190614df0565b613bef565b86116121ee576040517f08c379a00000000000000000000000000000000000000000000000000000000081526004016121e5906153d9565b60405180910390fd5b612265818673__OptionLibrary_________________________63fd9b87636040518163ffffffff1660e01b8152600401602060405180830381865af415801561223c573d6000803e3d6000fd5b505050506040513d601f19601f820116820180604052508101906122609190614df0565b613bef565b866122709190614e5c565b95505050505050919050565b600060016003811115612292576122916143be565b5b6001600086815260200190815260200160002060000160029054906101000a900460ff1660038111156122c8576122c76143be565b5b1480156122f2575081806122f15750426001600086815260200190815260200160002060050154115b5b15612683576000600181111561230b5761230a6143be565b5b6001600086815260200190815260200160002060000160019054906101000a900460ff166001811115612341576123406143be565b5b14156125c6576000600660009054906101000a900473ffffffffffffffffffffffffffffffffffffffff1673ffffffffffffffffffffffffffffffffffffffff1663040b030f6123a7600160008981526020019081526020016000206005015442613d05565b60016000898152602001908152602001600020600501546123c89190614e5c565b6040518263ffffffff1660e01b81526004016123e491906142ee565b602060405180830381865afa158015612401573d6000803e3d6000fd5b505050506040513d601f19601f820116820180604052508101906124259190614df0565b905061254573__OptionLibrary_________________________6323a00f6586600160008a815260200190815260200160002060090154856040518463ffffffff1660e01b815260040161247b93929190614e90565b602060405180830381865af4158015612498573d6000803e3d6000fd5b505050506040513d601f19601f820116820180604052508101906124bc9190614df0565b600160008881526020019081526020016000206007015473__OptionLibrary_________________________63fd9b87636040518163ffffffff1660e01b8152600401602060405180830381865af415801561251c573d6000803e3d6000fd5b505050506040513d601f19601f820116820180604052508101906125409190614df0565b613bef565b915060018081111561255a576125596143be565b5b6001600087815260200190815260200160002060000160009054906101000a900460ff1660018111156125905761258f6143be565b5b14156125c4578160016000878152602001908152602001600020600701546125b790614da7565b6125c191906150e8565b91505b505b6001808111156125d9576125d86143be565b5b6001600086815260200190815260200160002060000160019054906101000a900460ff16600181111561260f5761260e6143be565b5b14801561266357506000600181111561262b5761262a6143be565b5b6001600086815260200190815260200160002060000160009054906101000a900460ff166001811115612661576126606143be565b5b145b1561268257600160008581526020019081526020016000206007015490505b5b9392505050565b6000805b6126986004613926565b8110156126dd576126bd6126b682600461393b90919063ffffffff16565b858561227c565b826126c891906150e8565b915080806126d590614bac565b91505061268e565b5092915050565b6000805b6126f26004613926565b8110156127365761271561271082600461393b90919063ffffffff16565b613198565b156127235760019150612736565b808061272e90614bac565b9150506126e8565b5090565b600080600084815260200190815260200160002060000160008373ffffffffffffffffffffffffffffffffffffffff1673ffffffffffffffffffffffffffffffffffffffff16815260200190815260200160002060009054906101000a900460ff16905092915050565b600080600660009054906101000a900473ffffffffffffffffffffffffffffffffffffffff1673ffffffffffffffffffffffffffffffffffffffff1663040b030f620151806040518263ffffffff1660e01b8152600401612805919061543e565b602060405180830381865afa158015612822573d6000803e3d6000fd5b505050506040513d601f19601f820116820180604052508101906128469190614df0565b905073__OptionLibrary_________________________639932b2be73__OptionLibrary_________________________63fd9b87636040518163ffffffff1660e01b8152600401602060405180830381865af41580156128ab573d6000803e3d6000fd5b505050506040513d601f19601f820116820180604052508101906128cf9190614df0565b73__OptionLibrary_________________________63fd9b87636040518163ffffffff1660e01b8152600401602060405180830381865af4158015612918573d6000803e3d6000fd5b505050506040513d601f19601f8201168201806040525081019061293c9190614df0565b846040518463ffffffff1660e01b815260040161295b93929190614e90565b602060405180830381865af4158015612978573d6000803e3d6000fd5b505050506040513d601f19601f8201168201806040525081019061299c9190614df0565b91505090565b6000801b81565b60006129f2600360008473ffffffffffffffffffffffffffffffffffffffff1673ffffffffffffffffffffffffffffffffffffffff168152602001908152602001600020613926565b9050919050565b600080600660009054906101000a900473ffffffffffffffffffffffffffffffffffffffff1673ffffffffffffffffffffffffffffffffffffffff1663b0667cf86040518163ffffffff1660e01b81526004016040805180830381865afa158015612a68573d6000803e3d6000fd5b505050506040513d601f19601f82011682018060405250810190612a8c9190614cad565b915091509091565b6000806000600660009054906101000a900473ffffffffffffffffffffffffffffffffffffffff1673ffffffffffffffffffffffffffffffffffffffff1663b0667cf86040518163ffffffff1660e01b81526004016040805180830381865afa158015612b05573d6000803e3d6000fd5b505050506040513d601f19601f82011682018060405250810190612b299190614cad565b5090506000612b3982600061268a565b9050600073__MarketLibrary_________________________63b076288a88600860009054906101000a900473ffffffffffffffffffffffffffffffffffffffff1673ffffffffffffffffffffffffffffffffffffffff166321f8a7216040518163ffffffff1660e01b8152600401612bb190614eed565b602060405180830381865afa158015612bce573d6000803e3d6000fd5b505050506040513d601f19601f82011682018060405250810190612bf29190614f1b565b85600960009054906101000a900473ffffffffffffffffffffffffffffffffffffffff1660028c146040518663ffffffff1660e01b8152600401612c3a959493929190614f75565b606060405180830381865af4158015612c57573d6000803e3d6000fd5b505050506040513d601f19601f82011682018060405250810190612c7b9190614ff4565b5050905060009450600093506000811215612f0757612d3e81612c9d90614da7565b600960009054906101000a900473ffffffffffffffffffffffffffffffffffffffff1673ffffffffffffffffffffffffffffffffffffffff166370a08231306040518263ffffffff1660e01b8152600401612cf891906143a3565b602060405180830381865afa158015612d15573d6000803e3d6000fd5b505050506040513d601f19601f82011682018060405250810190612d399190614df0565b613d05565b81612d4890614da7565b612d529190614e5c565b945073__MarketLibrary_________________________638170ce80612de5878673__OptionLibrary_________________________63fd9b87636040518163ffffffff1660e01b8152600401602060405180830381865af4158015612dbc573d6000803e3d6000fd5b505050506040513d601f19601f82011682018060405250810190612de09190614df0565b613bef565b600a60009054906101000a900473ffffffffffffffffffffffffffffffffffffffff166040518363ffffffff1660e01b8152600401612e25929190615459565b602060405180830381865af4158015612e42573d6000803e3d6000fd5b505050506040513d601f19601f82011682018060405250810190612e669190614df0565b935073__MarketLibrary_________________________638170ce8086600960009054906101000a900473ffffffffffffffffffffffffffffffffffffffff166040518363ffffffff1660e01b8152600401612ec3929190615459565b602060405180830381865af4158015612ee0573d6000803e3d6000fd5b505050506040513d601f19601f82011682018060405250810190612f049190614df0565b94505b5050509250929050565b60007f28d62fc77014de57a1bbaa8212ff0979fa61ab00d377b4b8d9762048fb419961612f4581612f40613955565b61395d565b60026000815480929190612f5890614bac565b919050555060025491506040518061020001604052808a6001811115612f8157612f806143be565b5b8152602001896001811115612f9957612f986143be565b5b815260200160006003811115612fb257612fb16143be565b5b81526020018473ffffffffffffffffffffffffffffffffffffffff168152602001838152602001428152602001600081526020018d815260200160008152602001600081526020018b81526020018681526020018c8152602001858152602001888152602001878152506001600084815260200190815260200160002060008201518160000160006101000a81548160ff0219169083600181111561305a576130596143be565b5b021790555060208201518160000160016101000a81548160ff0219169083600181111561308a576130896143be565b5b021790555060408201518160000160026101000a81548160ff021916908360038111156130ba576130b96143be565b5b021790555060608201518160000160036101000a81548173ffffffffffffffffffffffffffffffffffffffff021916908373ffffffffffffffffffffffffffffffffffffffff1602179055506080820151816001015560a0820151816002015560c0820151816003015560e08201518160040155610100820151816005015561012082015181600601556101408201518160070155610160820151816008015561018082015181600901556101a082015181600a01556101c082015181600b01556101e082015181600c0155905050509a9950505050505050505050565b6000600160038111156131ae576131ad6143be565b5b6001600084815260200190815260200160002060000160029054906101000a900460ff1660038111156131e4576131e36143be565b5b148015613207575042600160008481526020019081526020016000206005015411155b9050919050565b6000806000806000600860009054906101000a900473ffffffffffffffffffffffffffffffffffffffff1673ffffffffffffffffffffffffffffffffffffffff166321f8a7216040518163ffffffff1660e01b815260040161326f90614eed565b602060405180830381865afa15801561328c573d6000803e3d6000fd5b505050506040513d601f19601f820116820180604052508101906132b09190614f1b565b905073__MarketLibrary_________________________6332c21e138783600960009054906101000a900473ffffffffffffffffffffffffffffffffffffffff166040518463ffffffff1660e01b815260040161330f93929190615482565b606060405180830381865af415801561332c573d6000803e3d6000fd5b505050506040513d601f19601f8201168201806040525081019061335091906154b9565b9050809350819650505073__MarketLibrary_________________________6332c21e138783600a60009054906101000a900473ffffffffffffffffffffffffffffffffffffffff166040518463ffffffff1660e01b81526004016133b793929190615482565b606060405180830381865af41580156133d4573d6000803e3d6000fd5b505050506040513d601f19601f820116820180604052508101906133f891906154b9565b508094508195505050509193509193565b600a60009054906101000a900473ffffffffffffffffffffffffffffffffffffffff1681565b6000600660009054906101000a900473ffffffffffffffffffffffffffffffffffffffff1673ffffffffffffffffffffffffffffffffffffffff1663def215446040518163ffffffff1660e01b8152600401602060405180830381865afa15801561349e573d6000803e3d6000fd5b505050506040513d601f19601f820116820180604052508101906134c29190615521565b905090565b6000600660009054906101000a900473ffffffffffffffffffffffffffffffffffffffff1673ffffffffffffffffffffffffffffffffffffffff1663040b030f836040518263ffffffff1660e01b815260040161352491906142ee565b602060405180830381865afa158015613541573d6000803e3d6000fd5b505050506040513d601f19601f820116820180604052508101906135659190614df0565b9050919050565b61357582610b46565b61358681613581613955565b61395d565b6135908383613af4565b505050565b6000806000600660009054906101000a900473ffffffffffffffffffffffffffffffffffffffff1673ffffffffffffffffffffffffffffffffffffffff1663b0667cf86040518163ffffffff1660e01b81526004016040805180830381865afa158015613606573d6000803e3d6000fd5b505050506040513d601f19601f8201168201806040525081019061362a9190614cad565b509050600061363a82600061268a565b905073__MarketLibrary_________________________63eea2526b600960009054906101000a900473ffffffffffffffffffffffffffffffffffffffff16886040518363ffffffff1660e01b815260040161369792919061554e565b602060405180830381865af41580156136b4573d6000803e3d6000fd5b505050506040513d601f19601f820116820180604052508101906136d89190614df0565b60008212156136e85760006136ea565b815b6136f49190615577565b935073__MarketLibrary_________________________63aa5c12c773__OptionLibrary_________________________63ca0cc13d87868a6040518463ffffffff1660e01b815260040161374b9392919061560b565b602060405180830381865af4158015613768573d6000803e3d6000fd5b505050506040513d601f19601f8201168201806040525081019061378c9190615642565b600a60009054906101000a900473ffffffffffffffffffffffffffffffffffffffff166040518363ffffffff1660e01b81526004016137cc92919061566f565b602060405180830381865af41580156137e9573d6000803e3d6000fd5b505050506040513d601f19601f8201168201806040525081019061380d9190615642565b925073__MarketLibrary_________________________63aa5c12c785600960009054906101000a900473ffffffffffffffffffffffffffffffffffffffff166040518363ffffffff1660e01b815260040161386a92919061566f565b602060405180830381865af4158015613887573d6000803e3d6000fd5b505050506040513d601f19601f820116820180604052508101906138ab9190615642565b935050509250929050565b60025481565b60007f01ffc9a7000000000000000000000000000000000000000000000000000000007bffffffffffffffffffffffffffffffffffffffffffffffffffffffff1916827bffffffffffffffffffffffffffffffffffffffffffffffffffffffff1916149050919050565b600061393482600001613d1e565b9050919050565b600061394a8360000183613d2f565b60001c905092915050565b600033905090565b613967828261273a565b6139f65761398c8173ffffffffffffffffffffffffffffffffffffffff166014613d5a565b61399a8360001c6020613d5a565b6040516020016139ab929190615730565b6040516020818303038152906040526040517f08c379a00000000000000000000000000000000000000000000000000000000081526004016139ed91906157a3565b60405180910390fd5b5050565b6000613a0c836000018360001b613f96565b905092915050565b613a1e828261273a565b613af057600160008084815260200190815260200160002060000160008373ffffffffffffffffffffffffffffffffffffffff1673ffffffffffffffffffffffffffffffffffffffff16815260200190815260200160002060006101000a81548160ff021916908315150217905550613a95613955565b73ffffffffffffffffffffffffffffffffffffffff168173ffffffffffffffffffffffffffffffffffffffff16837f2f8788117e7eff1d82e926ec794901d17c78024a50270940304540a733656f0d60405160405180910390a45b5050565b613afe828261273a565b15613bd157600080600084815260200190815260200160002060000160008373ffffffffffffffffffffffffffffffffffffffff1673ffffffffffffffffffffffffffffffffffffffff16815260200190815260200160002060006101000a81548160ff021916908315150217905550613b76613955565b73ffffffffffffffffffffffffffffffffffffffff168173ffffffffffffffffffffffffffffffffffffffff16837ff6391f5c32d9c69d2a47ea670b442974b53935d1edc7fd64eb21e047a839171b60405160405180910390a45b5050565b600081831015613be55781613be7565b825b905092915050565b600080600080198587098587029250828110838203039150506000811415613c2a5760008411613c1e57600080fd5b83820492505050613ce4565b808411613c3657600080fd5b60008486880990508281118203915080830392506000856001877fffffffffffffffffffffffffffffffffffffffffffffffffffffffffffffffff0301169050808604955080840493506001818260000304019050808302841793506000600287600302189050808702600203810290508087026002038102905080870260020381029050808702600203810290508087026002038102905080870260020381029050808502955050505050505b9392505050565b6000613cfd836000018360001b614006565b905092915050565b6000818310613d145781613d16565b825b905092915050565b600081600001805490509050919050565b6000826000018281548110613d4757613d466157c5565b5b9060005260206000200154905092915050565b606060006002836002613d6d9190614d4d565b613d779190614b56565b67ffffffffffffffff811115613d9057613d8f615197565b5b6040519080825280601f01601f191660200182016040528015613dc25781602001600182028036833780820191505090505b5090507f300000000000000000000000000000000000000000000000000000000000000081600081518110613dfa57613df96157c5565b5b60200101907effffffffffffffffffffffffffffffffffffffffffffffffffffffffffffff1916908160001a9053507f780000000000000000000000000000000000000000000000000000000000000081600181518110613e5e57613e5d6157c5565b5b60200101907effffffffffffffffffffffffffffffffffffffffffffffffffffffffffffff1916908160001a90535060006001846002613e9e9190614d4d565b613ea89190614b56565b90505b6001811115613f48577f3031323334353637383961626364656600000000000000000000000000000000600f861660108110613eea57613ee96157c5565b5b1a60f81b828281518110613f0157613f006157c5565b5b60200101907effffffffffffffffffffffffffffffffffffffffffffffffffffffffffffff1916908160001a905350600485901c945080613f41906157f4565b9050613eab565b5060008414613f8c576040517f08c379a0000000000000000000000000000000000000000000000000000000008152600401613f839061586a565b60405180910390fd5b8091505092915050565b6000613fa2838361411a565b613ffb578260000182908060018154018082558091505060019003906000526020600020016000909190919091505582600001805490508360010160008481526020019081526020016000208190555060019050614000565b600090505b92915050565b6000808360010160008481526020019081526020016000205490506000811461410e5760006001826140389190614e5c565b90506000600186600001805490506140509190614e5c565b90508181146140bf576000866000018281548110614071576140706157c5565b5b9060005260206000200154905080876000018481548110614095576140946157c5565b5b90600052602060002001819055508387600101600083815260200190815260200160002081905550505b856000018054806140d3576140d261588a565b5b600190038181906000526020600020016000905590558560010160008681526020019081526020016000206000905560019350505050614114565b60009150505b92915050565b600080836001016000848152602001908152602001600020541415905092915050565b6040518061020001604052806000600181111561415d5761415c6143be565b5b815260200160006001811115614176576141756143be565b5b81526020016000600381111561418f5761418e6143be565b5b8152602001600073ffffffffffffffffffffffffffffffffffffffff1681526020016000815260200160008152602001600081526020016000815260200160008152602001600081526020016000815260200160008152602001600081526020016000815260200160008152602001600081525090565b6000604051905090565b600080fd5b600080fd5b60007fffffffff0000000000000000000000000000000000000000000000000000000082169050919050565b61424f8161421a565b811461425a57600080fd5b50565b60008135905061426c81614246565b92915050565b60006020828403121561428857614287614210565b5b60006142968482850161425d565b91505092915050565b60008115159050919050565b6142b48161429f565b82525050565b60006020820190506142cf60008301846142ab565b92915050565b6000819050919050565b6142e8816142d5565b82525050565b600060208201905061430360008301846142df565b92915050565b614312816142d5565b811461431d57600080fd5b50565b60008135905061432f81614309565b92915050565b60006020828403121561434b5761434a614210565b5b600061435984828501614320565b91505092915050565b600073ffffffffffffffffffffffffffffffffffffffff82169050919050565b600061438d82614362565b9050919050565b61439d81614382565b82525050565b60006020820190506143b86000830184614394565b92915050565b7f4e487b7100000000000000000000000000000000000000000000000000000000600052602160045260246000fd5b600281106143fe576143fd6143be565b5b50565b600081905061440f826143ed565b919050565b600061441f82614401565b9050919050565b61442f81614414565b82525050565b60028110614446576144456143be565b5b50565b600081905061445782614435565b919050565b600061446782614449565b9050919050565b6144778161445c565b82525050565b6004811061448e5761448d6143be565b5b50565b600081905061449f8261447d565b919050565b60006144af82614491565b9050919050565b6144bf816144a4565b82525050565b6144ce81614382565b82525050565b6144dd816142d5565b82525050565b610200820160008201516144fa6000850182614426565b50602082015161450d602085018261446e565b50604082015161452060408501826144b6565b50606082015161453360608501826144c5565b50608082015161454660808501826144d4565b5060a082015161455960a08501826144d4565b5060c082015161456c60c08501826144d4565b5060e082015161457f60e08501826144d4565b506101008201516145946101008501826144d4565b506101208201516145a96101208501826144d4565b506101408201516145be6101408501826144d4565b506101608201516145d36101608501826144d4565b506101808201516145e86101808501826144d4565b506101a08201516145fd6101a08501826144d4565b506101c08201516146126101c08501826144d4565b506101e08201516146276101e08501826144d4565b50505050565b60006102008201905061464360008301846144e3565b92915050565b6000819050919050565b61465c81614649565b811461466757600080fd5b50565b60008135905061467981614653565b92915050565b60006020828403121561469557614694614210565b5b60006146a38482850161466a565b91505092915050565b6146b581614649565b82525050565b60006020820190506146d060008301846146ac565b92915050565b6146df81614382565b81146146ea57600080fd5b50565b6000813590506146fc816146d6565b92915050565b6000806040838503121561471957614718614210565b5b600061472785828601614320565b9250506020614738858286016146ed565b9150509250929050565b6000806040838503121561475957614758614210565b5b60006147678582860161466a565b9250506020614778858286016146ed565b9150509250929050565b6000806040838503121561479957614798614210565b5b60006147a785828601614320565b92505060206147b885828601614320565b9150509250929050565b6000819050919050565b6147d5816147c2565b82525050565b60006020820190506147f060008301846147cc565b92915050565b6000806040838503121561480d5761480c614210565b5b600061481b858286016146ed565b925050602061482c85828601614320565b9150509250929050565b600060808201905061484b60008301876147cc565b61485860208301866147cc565b6148656040830185614394565b6148726060830184614394565b95945050505050565b600060408201905061489060008301856142df565b61489d60208301846142df565b9392505050565b6000602082840312156148ba576148b9614210565b5b60006148c8848285016146ed565b91505092915050565b6148da8161429f565b81146148e557600080fd5b50565b6000813590506148f7816148d1565b92915050565b60008060006060848603121561491657614915614210565b5b600061492486828701614320565b935050602061493586828701614320565b9250506040614946868287016148e8565b9150509250925092565b6000806040838503121561496757614966614210565b5b600061497585828601614320565b9250506020614986858286016148e8565b9150509250929050565b6002811061499d57600080fd5b50565b6000813590506149af81614990565b92915050565b600281106149c257600080fd5b50565b6000813590506149d4816149b5565b92915050565b6000806000806000806000806000806101408b8d0312156149fe576149fd614210565b5b6000614a0c8d828e01614320565b9a50506020614a1d8d828e01614320565b9950506040614a2e8d828e01614320565b9850506060614a3f8d828e016149a0565b9750506080614a508d828e016149c5565b96505060a0614a618d828e01614320565b95505060c0614a728d828e01614320565b94505060e0614a838d828e01614320565b935050610100614a958d828e01614320565b925050610120614aa78d828e016146ed565b9150509295989b9194979a5092959850565b6000608082019050614ace60008301876142df565b614adb60208301866142df565b614ae860408301856142df565b614af560608301846142df565b95945050505050565b6000604082019050614b1360008301856147cc565b614b2060208301846147cc565b9392505050565b7f4e487b7100000000000000000000000000000000000000000000000000000000600052601160045260246000fd5b6000614b61826142d5565b9150614b6c836142d5565b9250827fffffffffffffffffffffffffffffffffffffffffffffffffffffffffffffffff03821115614ba157614ba0614b27565b5b828201905092915050565b6000614bb7826142d5565b91507fffffffffffffffffffffffffffffffffffffffffffffffffffffffffffffffff821415614bea57614be9614b27565b5b600182019050919050565b600082825260208201905092915050565b7f416363657373436f6e74726f6c3a2063616e206f6e6c792072656e6f756e636560008201527f20726f6c657320666f722073656c660000000000000000000000000000000000602082015250565b6000614c62602f83614bf5565b9150614c6d82614c06565b604082019050919050565b60006020820190508181036000830152614c9181614c55565b9050919050565b600081519050614ca781614309565b92915050565b60008060408385031215614cc457614cc3614210565b5b6000614cd285828601614c98565b9250506020614ce385828601614c98565b9150509250929050565b7f4e487b7100000000000000000000000000000000000000000000000000000000600052601260045260246000fd5b6000614d27826142d5565b9150614d32836142d5565b925082614d4257614d41614ced565b5b828204905092915050565b6000614d58826142d5565b9150614d63836142d5565b9250817fffffffffffffffffffffffffffffffffffffffffffffffffffffffffffffffff0483118215151615614d9c57614d9b614b27565b5b828202905092915050565b6000614db2826147c2565b91507f8000000000000000000000000000000000000000000000000000000000000000821415614de557614de4614b27565b5b816000039050919050565b600060208284031215614e0657614e05614210565b5b6000614e1484828501614c98565b91505092915050565b8082525050565b614e2d816142d5565b82525050565b6000604082019050614e486000830185614e1d565b614e556020830184614e24565b9392505050565b6000614e67826142d5565b9150614e72836142d5565b925082821015614e8557614e84614b27565b5b828203905092915050565b6000606082019050614ea56000830186614e24565b614eb26020830185614e24565b614ebf6040830184614e24565b949350505050565b7f3078310000000000000000000000000000000000000000000000000000000000815250565b6000602082019050614f0160008301614ec7565b919050565b600081519050614f15816146d6565b92915050565b600060208284031215614f3157614f30614210565b5b6000614f3f84828501614f06565b91505092915050565b614f5181614382565b82525050565b614f60816147c2565b82525050565b614f6f8161429f565b82525050565b600060a082019050614f8a6000830188614f48565b614f976020830187614f48565b614fa46040830186614f57565b614fb16060830185614f48565b614fbe6080830184614f66565b9695505050505050565b614fd1816147c2565b8114614fdc57600080fd5b50565b600081519050614fee81614fc8565b92915050565b60008060006060848603121561500d5761500c614210565b5b600061501b86828701614fdf565b935050602061502c86828701614c98565b925050604061503d86828701614f06565b9150509250925092565b600060c08201905061505c6000830189614f48565b6150696020830188614f48565b6150766040830187614e24565b6150836060830186614e24565b6150906080830185614f48565b61509d60a0830184614f48565b979650505050505050565b600080604083850312156150bf576150be614210565b5b60006150cd85828601614fdf565b92505060206150de85828601614f06565b9150509250929050565b60006150f3826147c2565b91506150fe836147c2565b9250817f7fffffffffffffffffffffffffffffffffffffffffffffffffffffffffffffff0383136000831215161561513957615138614b27565b5b817f800000000000000000000000000000000000000000000000000000000000000003831260008312161561517157615170614b27565b5b828201905092915050565b600080fd5b600080fd5b6000601f19601f8301169050919050565b7f4e487b7100000000000000000000000000000000000000000000000000000000600052604160045260246000fd5b6151cf82615186565b810181811067ffffffffffffffff821117156151ee576151ed615197565b5b80604052505050565b6000615201614206565b905061520d82826151c6565b919050565b600067ffffffffffffffff82111561522d5761522c615197565b5b61523682615186565b9050602081019050919050565b60005b83811015615261578082015181840152602081019050615246565b83811115615270576000848401525b50505050565b600061528961528484615212565b6151f7565b9050828152602081018484840111156152a5576152a4615181565b5b6152b0848285615243565b509392505050565b600082601f8301126152cd576152cc61517c565b5b81516152dd848260208601615276565b91505092915050565b6000602082840312156152fc576152fb614210565b5b600082015167ffffffffffffffff81111561531a57615319614215565b5b615326848285016152b8565b91505092915050565b600081519050919050565b600081905092915050565b60006153508261532f565b61535a818561533a565b935061536a818560208601615243565b80840191505092915050565b60006153828284615345565b915081905092915050565b7f4e65676174697665206571756974792e00000000000000000000000000000000600082015250565b60006153c3601083614bf5565b91506153ce8261538d565b602082019050919050565b600060208201905081810360008301526153f2816153b6565b9050919050565b6000819050919050565b6000819050919050565b600061542861542361541e846153f9565b615403565b6142d5565b9050919050565b6154388161540d565b82525050565b6000602082019050615453600083018461542f565b92915050565b600060408201905061546e6000830185614e24565b61547b6020830184614f48565b9392505050565b60006060820190506154976000830186614f48565b6154a46020830185614f48565b6154b16040830184614f48565b949350505050565b6000806000606084860312156154d2576154d1614210565b5b60006154e086828701614c98565b93505060206154f186828701614c98565b925050604061550286828701614c98565b9150509250925092565b60008151905061551b81614653565b92915050565b60006020828403121561553757615536614210565b5b60006155458482850161550c565b91505092915050565b60006040820190506155636000830185614f48565b6155706020830184614f48565b9392505050565b6000615582826147c2565b915061558d836147c2565b9250827f8000000000000000000000000000000000000000000000000000000000000000018212600084121516156155c8576155c7614b27565b5b827f7fffffffffffffffffffffffffffffffffffffffffffffffffffffffffffffff018213600084121615615600576155ff614b27565b5b828203905092915050565b60006060820190506156206000830186614f57565b61562d6020830185614e24565b61563a6040830184614e24565b949350505050565b60006020828403121561565857615657614210565b5b600061566684828501614fdf565b91505092915050565b60006040820190506156846000830185614f57565b6156916020830184614f48565b9392505050565b7f416363657373436f6e74726f6c3a206163636f756e7420000000000000000000600082015250565b60006156ce60178361533a565b91506156d982615698565b601782019050919050565b7f206973206d697373696e6720726f6c6520000000000000000000000000000000600082015250565b600061571a60118361533a565b9150615725826156e4565b601182019050919050565b600061573b826156c1565b91506157478285615345565b91506157528261570d565b915061575e8284615345565b91508190509392505050565b60006157758261532f565b61577f8185614bf5565b935061578f818560208601615243565b61579881615186565b840191505092915050565b600060208201905081810360008301526157bd818461576a565b905092915050565b7f4e487b7100000000000000000000000000000000000000000000000000000000600052603260045260246000fd5b60006157ff826142d5565b9150600082141561581357615812614b27565b5b600182039050919050565b7f537472696e67733a20686578206c656e67746820696e73756666696369656e74600082015250565b6000615854602083614bf5565b915061585f8261581e565b602082019050919050565b6000602082019050818103600083015261588381615847565b9050919050565b7f4e487b7100000000000000000000000000000000000000000000000000000000600052603160045260246000fdfea2646970667358221220b45e9c3de41d7f50be5565df7b087dc149a08e6606570b8826988e5606b5d18364736f6c634300080a0033",
  "immutableReferences": {},
  "source": "/**\n * SPDX-License-Identifier: GPL-3.0-or-later\n * Moret\n * Copyright (C) 2021 Moret\n*/\n\npragma solidity 0.8.10;\nimport \"@openzeppelin/contracts/access/AccessControl.sol\";\nimport \"@openzeppelin/contracts/utils/structs/EnumerableSet.sol\";\nimport \"./MarketLibrary.sol\";\n\ncontract OptionVault is AccessControl{\n  using OptionLibrary for OptionLibrary.Option;\n  using EnumerableSet for EnumerableSet.UintSet;\n  // using EnumerableSet for EnumerableSet.AddressSet;\n\n  bytes32 public constant EXCHANGE_ROLE = keccak256(\"EXCHANGE_ROLE\");\n  mapping(uint256=> OptionLibrary.Option) internal optionsList;\n  uint256 public optionCounter = 0;\n  mapping(address=> EnumerableSet.UintSet) internal activeOptionsPerOwner;\n  EnumerableSet.UintSet internal activeOptions;\n  IVolatilityChain internal volatilityChain;\n\n  address public volChainAddress;\n  address public aaveAddress;\n  address public underlying;\n  address public funding;\n\n  constructor( address _volChainAddress, address _underlying, address _funding, address _aaveAddress){\n    _setupRole(DEFAULT_ADMIN_ROLE, msg.sender);\n    _setupRole(EXCHANGE_ROLE, msg.sender);\n    volChainAddress = _volChainAddress;\n    volatilityChain = IVolatilityChain(_volChainAddress); \n    funding = _funding;\n    underlying = _underlying;\n    aaveAddress = _aaveAddress;}\n  \n  function descriptionHash() external view returns (bytes32)  { return keccak256(abi.encodePacked(volatilityChain.getDecription()));}\n\n  function addOption(uint256 _tenor, uint256 _strike, uint256 _amount, OptionLibrary.PayoffType _poType, OptionLibrary.OptionSide _side, uint256 _premium, uint256 _cost, uint256 _price, uint256 _volatility, address _holder) external onlyRole(EXCHANGE_ROLE) returns(uint256 _id) {\n    optionCounter++;\n    _id = optionCounter;\n    optionsList[_id] = OptionLibrary.Option(_poType, _side, OptionLibrary.OptionStatus.Draft, _holder, _id, block.timestamp,  0, _tenor, 0,  0, _amount, _price, _strike, _volatility, _premium, _cost);}\n\n  function getOptionHolder(uint256 _id) external view returns(address) { return optionsList[_id].holder;}\n  function getHoldersOptionCount(address _address) external view returns(uint256){return activeOptionsPerOwner[_address].length();}\n  function getHoldersOption(uint256 _index, address _address) external view returns(OptionLibrary.Option memory) {return optionsList[activeOptionsPerOwner[_address].at(_index)];}\n  function getOption(uint256 _id) external view returns(OptionLibrary.Option memory) {return optionsList[_id];}\n\n  function getAggregateNotional() external view returns(uint256 _notional) {\n    _notional= 0;\n    for(uint256 i=0;i<activeOptions.length();i++){\n      _notional += optionsList[uint256(activeOptions.at(i))].amount;} }\n\n  function getGrossCapital(address _address) external view returns(uint256 _capital){\n    (uint256 _price, ) = volatilityChain.queryPrice();\n    (uint256 _underlying_balance, uint256 _funding_balance, uint256 _collateral_balance, uint256 _debt_balance) = getBalances(_address);\n    _capital = _funding_balance + _collateral_balance + MulDiv(_underlying_balance, _price, OptionLibrary.Multiplier());\n    require(_capital > MulDiv(_debt_balance, _price, OptionLibrary.Multiplier()), \"Negative equity.\");\n    _capital -= MulDiv(_debt_balance, _price, OptionLibrary.Multiplier());}\n\n  function getMaxHedge() external view returns (uint256){\n    (uint256 _price,) = volatilityChain.queryPrice();\n    int256 _deltaZero = calculateAggregateDelta(_price / 1e5, true);\n    int256 _deltaMax = calculateAggregateDelta(_price * 1e5, true);\n    return MulDiv(Math.max(_deltaZero>=0?uint256(_deltaZero):uint256(-_deltaZero), _deltaMax>=0?uint256(_deltaMax):uint256(-_deltaMax) ), _price, OptionLibrary.Multiplier());}\n\n  function getSellPutCollateral() external view returns (uint256 _collateral){\n    _collateral= 0;\n    for(uint256 i=0;i<activeOptions.length();i++){\n      uint256 _id = uint256(activeOptions.at(i));\n      if(optionsList[_id].status== OptionLibrary.OptionStatus.Active && optionsList[_id].side == OptionLibrary.OptionSide.Sell && optionsList[_id].poType==OptionLibrary.PayoffType.Put){\n      _collateral +=  optionsList[_id].calcNotionalExposure(optionsList[_id].strike);}}}\n\n  function getContractPayoff(uint256 _id) external view returns(uint256 _payoff, uint256 _payback){\n    (uint256 _price,) = volatilityChain.queryPrice();\n    _payoff = optionsList[_id].calcPayoff(_price);\n    _payback = _payoff;\n    if(optionsList[_id].side == OptionLibrary.OptionSide.Sell && optionsList[_id].poType==OptionLibrary.PayoffType.Call){\n      _payback =  optionsList[_id].calcNotionalExposure(_price) - _payoff;}\n    if(optionsList[_id].side == OptionLibrary.OptionSide.Sell && optionsList[_id].poType==OptionLibrary.PayoffType.Put){\n      _payback =  optionsList[_id].calcNotionalExposure(optionsList[_id].strike) - _payoff;}}\n\n  function calculateContractDelta(uint256 _id, uint256 _price, bool _includeExpiring) public view returns(int256 _delta){\n    _delta = 0;\n    if(optionsList[_id].status== OptionLibrary.OptionStatus.Active && (_includeExpiring || (optionsList[_id].maturity > block.timestamp))){\n      if(optionsList[_id].side==OptionLibrary.OptionSide.Buy){\n        uint256 _vol = volatilityChain.getVol(optionsList[_id].maturity - Math.min(optionsList[_id].maturity, block.timestamp));\n        _delta = int256(MulDiv(OptionLibrary.calcDelta(_price, optionsList[_id].strike, _vol), optionsList[_id].amount, OptionLibrary.Multiplier() ));\n        if(optionsList[_id].poType==OptionLibrary.PayoffType.Put) {_delta = -int256(optionsList[_id].amount) + _delta; }}\n      if(optionsList[_id].side==OptionLibrary.OptionSide.Sell && optionsList[_id].poType==OptionLibrary.PayoffType.Call){ \n        _delta = int256(optionsList[_id].amount);}}} // collateral for sell call options. zero for sell put options\n    \n  function calculateAggregateDelta(uint256 _price, bool _includeExpiring) public view returns(int256 _delta){\n    _delta= 0;\n    for(uint256 i=0;i<activeOptions.length();i++){\n      _delta += calculateContractDelta(uint256(activeOptions.at(i)),_price, _includeExpiring);}}\n\n  function calculateContractGamma(uint256 _id, uint256 _price) public view returns(int256 _gamma){\n    _gamma = 0;\n    if(optionsList[_id].status== OptionLibrary.OptionStatus.Active  && (optionsList[_id].maturity > block.timestamp)){\n      uint256 _vol = volatilityChain.getVol(optionsList[_id].maturity - block.timestamp);\n      _gamma = int256(MulDiv(OptionLibrary.calcGamma(_price, optionsList[_id].strike, _vol), optionsList[_id].amount, OptionLibrary.Multiplier() ));\n      if(optionsList[_id].side==OptionLibrary.OptionSide.Sell){ _gamma = -_gamma;}}}\n      \n  function calculateAggregateGamma() external view returns(int256 _gamma){\n    (uint256 _price,) = volatilityChain.queryPrice();\n    _gamma= 0;\n    for(uint256 i=0;i<activeOptions.length();i++){\n      _gamma += calculateContractGamma(uint256(activeOptions.at(i)),_price);}}\n\n  function calculateSpotGamma() external view returns(int256 _gamma){\n    uint256 _vol = volatilityChain.getVol(86400);\n    _gamma = int256(OptionLibrary.calcGamma(OptionLibrary.Multiplier(), OptionLibrary.Multiplier(), _vol));}\n    \n  // function validateOption(uint256 _id, address _holder) external view {\n  //   require(optionsList[_id].holder== _holder, \"Not the owner.\");\n  //   require(optionsList[_id].maturity >= block.timestamp, \"Option has expired.\");\n  //   require(optionsList[_id].status==OptionLibrary.OptionStatus.Active, \"Not active option.\");}\n\n  function anyOptionExpiring() external view returns(bool _isExpiring) {\n    _isExpiring = false;\n    for(uint256 i=0;i<activeOptions.length();i++){\n      if(isExpiring(uint256(activeOptions.at(i)))){\n        _isExpiring = true;\n        break;}}}\n\n  function isExpiring(uint256 _id) public view returns (bool){ return (optionsList[_id].status== OptionLibrary.OptionStatus.Active) && (optionsList[_id].maturity <= block.timestamp);}\n\n  function getExpiringOptionId() external view returns(uint256 _id){\n    _id = 0;\n    for(uint256 i=0;i<activeOptions.length();i++){\n      if(isExpiring(uint256(activeOptions.at(i)))){\n        _id = uint256(activeOptions.at(i));\n        break;}}\n  }\n\n  function stampActiveOption(uint256 _id, address _holder) external onlyRole(EXCHANGE_ROLE) {\n    optionsList[_id].effectiveTime = block.timestamp;\n    optionsList[_id].maturity = optionsList[_id].effectiveTime + optionsList[_id].tenor;\n    optionsList[_id].status = OptionLibrary.OptionStatus.Active;\n    activeOptionsPerOwner[_holder].add(_id);\n    activeOptions.add(_id);}\n\n  // function stampExercisedOption(uint256 _id) external onlyRole(EXCHANGE_ROLE){\n  //     optionsList[_id].exerciseTime = block.timestamp;\n  //     optionsList[_id].status = OptionLibrary.OptionStatus.Exercised;}\n\n  function stampExpiredOption(uint256 _id)  external onlyRole(EXCHANGE_ROLE){\n    optionsList[_id].exerciseTime = block.timestamp;\n    optionsList[_id].status = OptionLibrary.OptionStatus.Expired;\n    activeOptionsPerOwner[optionsList[_id].holder].remove(_id);\n    activeOptions.remove(_id);}\n\n  // this function emits values in token decimals.\n  function calcSwapTradesInTok(address _address, uint256 _swapSlippage) external view returns(int256 _tradeUnderlyingAmount, int256 _tradeFundingAmount){\n    (uint256 _price,) = volatilityChain.queryPrice();\n    int256 _aggregateDelta = calculateAggregateDelta(_price, false);\n    _tradeUnderlyingAmount = (_aggregateDelta >= 0? _aggregateDelta: int256(0)) - int256(MarketLibrary.balanceDef(underlying, _address));\n    _tradeFundingAmount = MarketLibrary.cvtDecimalsInt(OptionLibrary.getOpposeTrade(_tradeUnderlyingAmount, _price, _swapSlippage), funding);\n    _tradeUnderlyingAmount = MarketLibrary.cvtDecimalsInt(_tradeUnderlyingAmount, underlying);}\n  \n  // this function emits values in DEFAULT decimals.\n  function getBalances(address _address) public view returns(uint256 _underlyingBalance, uint256 _fundingBalance, uint256 _collateralBalance, uint256 _debtBalance){\n    address _protocolAds = ILendingPoolAddressesProvider(aaveAddress).getAddress(\"0x1\");//bytes32(uint256(1)));\n    ( _underlyingBalance, ,  _debtBalance) = MarketLibrary.getTokenBalances(_address, _protocolAds, underlying);\n    ( _fundingBalance,  _collateralBalance,) = MarketLibrary.getTokenBalances(_address, _protocolAds, funding); }\n\n  // this function emits values in token decimals.\n  function calcLoanRepaymentInTok(address _address, uint256 _lendingPoolRateMode) external view returns(uint256 _repayAmount, uint256 _repaySwapValue){\n    (uint256 _price,) = volatilityChain.queryPrice();\n    int256 _aggregateDelta = calculateAggregateDelta(_price, false);\n    (int256 _loanTradeAmount, , ) = MarketLibrary.getLoanTrade(_address, ILendingPoolAddressesProvider(aaveAddress).getAddress(\"0x1\"), _aggregateDelta, underlying, _lendingPoolRateMode == 2);\n    _repayAmount = 0;\n    _repaySwapValue = 0;\n    if(_loanTradeAmount < 0){\n      _repayAmount = uint256(-_loanTradeAmount) - Math.min(uint256(-_loanTradeAmount), ERC20(underlying).balanceOf(address(this)));\n      _repaySwapValue = MarketLibrary.cvtDecimals(MulDiv(_repayAmount, _price, OptionLibrary.Multiplier()), funding);\n      _repayAmount = MarketLibrary.cvtDecimals(_repayAmount, underlying);}}\n\n  // this function emits values in DEFAULT decimals.\n  function calcLoanTrades(address _address, uint256 _lendingPoolRateMode) external view returns(int256 _loanTradeAmount, int256 _collateralChange, address _loanAddress, address _collateralAddress){\n    (uint256 _price,) = volatilityChain.queryPrice();\n    int256 _aggregateDelta = calculateAggregateDelta(_price, false);\n    address _protocolAds = ILendingPoolAddressesProvider(aaveAddress).getAddress(\"0x1\");\n    uint256 _targetLoan = 0;\n    (_loanTradeAmount, _targetLoan, _loanAddress) = MarketLibrary.getLoanTrade(_address, _protocolAds, _aggregateDelta, underlying, _lendingPoolRateMode == 2);\n    (_collateralChange, _collateralAddress) = MarketLibrary.getCollateralTrade(_address, _protocolAds, _targetLoan, _price, funding, underlying);}\n\n  function queryVol(uint256 _tenor) external view returns(uint256){return volatilityChain.getVol(_tenor);}\n  function queryPrice() external view returns(uint256, uint256){return volatilityChain.queryPrice();}\n  function tokenHash() external view returns (bytes32) {return volatilityChain.getTokenHash();}\n}\n",
  "sourcePath": "/Users/apple/Documents/GitHub/moret/contracts/OptionVault.sol",
  "compiler": {
    "name": "solc",
    "version": "0.8.10+commit.fc410830.Emscripten.clang"
  },
  "schemaVersion": "3.4.3",
  "updatedAt": "2021-11-29T23:16:43.209Z",
  "networkType": "ethereum",
  "devdoc": {
    "kind": "dev",
    "methods": {
      "getRoleAdmin(bytes32)": {
        "details": "Returns the admin role that controls `role`. See {grantRole} and {revokeRole}. To change a role's admin, use {_setRoleAdmin}."
      },
      "grantRole(bytes32,address)": {
        "details": "Grants `role` to `account`. If `account` had not been already granted `role`, emits a {RoleGranted} event. Requirements: - the caller must have ``role``'s admin role."
      },
      "hasRole(bytes32,address)": {
        "details": "Returns `true` if `account` has been granted `role`."
      },
      "renounceRole(bytes32,address)": {
        "details": "Revokes `role` from the calling account. Roles are often managed via {grantRole} and {revokeRole}: this function's purpose is to provide a mechanism for accounts to lose their privileges if they are compromised (such as when a trusted device is misplaced). If the calling account had been revoked `role`, emits a {RoleRevoked} event. Requirements: - the caller must be `account`."
      },
      "revokeRole(bytes32,address)": {
        "details": "Revokes `role` from `account`. If `account` had been granted `role`, emits a {RoleRevoked} event. Requirements: - the caller must have ``role``'s admin role."
      },
      "supportsInterface(bytes4)": {
        "details": "See {IERC165-supportsInterface}."
      }
    },
    "version": 1
  },
  "userdoc": {
    "kind": "user",
    "methods": {},
    "version": 1
  }
}