{
  "contractName": "OptionVault",
  "abi": [
    {
      "inputs": [
        {
          "internalType": "address",
          "name": "_volChainAddress",
          "type": "address"
        },
        {
          "internalType": "address",
          "name": "_underlying",
          "type": "address"
        },
        {
          "internalType": "address",
          "name": "_funding",
          "type": "address"
        },
        {
          "internalType": "address",
          "name": "_aaveAddress",
          "type": "address"
        }
      ],
      "stateMutability": "nonpayable",
      "type": "constructor"
    },
    {
      "anonymous": false,
      "inputs": [
        {
          "indexed": true,
          "internalType": "bytes32",
          "name": "role",
          "type": "bytes32"
        },
        {
          "indexed": true,
          "internalType": "bytes32",
          "name": "previousAdminRole",
          "type": "bytes32"
        },
        {
          "indexed": true,
          "internalType": "bytes32",
          "name": "newAdminRole",
          "type": "bytes32"
        }
      ],
      "name": "RoleAdminChanged",
      "type": "event"
    },
    {
      "anonymous": false,
      "inputs": [
        {
          "indexed": true,
          "internalType": "bytes32",
          "name": "role",
          "type": "bytes32"
        },
        {
          "indexed": true,
          "internalType": "address",
          "name": "account",
          "type": "address"
        },
        {
          "indexed": true,
          "internalType": "address",
          "name": "sender",
          "type": "address"
        }
      ],
      "name": "RoleGranted",
      "type": "event"
    },
    {
      "anonymous": false,
      "inputs": [
        {
          "indexed": true,
          "internalType": "bytes32",
          "name": "role",
          "type": "bytes32"
        },
        {
          "indexed": true,
          "internalType": "address",
          "name": "account",
          "type": "address"
        },
        {
          "indexed": true,
          "internalType": "address",
          "name": "sender",
          "type": "address"
        }
      ],
      "name": "RoleRevoked",
      "type": "event"
    },
    {
      "inputs": [],
      "name": "DEFAULT_ADMIN_ROLE",
      "outputs": [
        {
          "internalType": "bytes32",
          "name": "",
          "type": "bytes32"
        }
      ],
      "stateMutability": "view",
      "type": "function",
      "constant": true
    },
    {
      "inputs": [],
      "name": "EXCHANGE_ROLE",
      "outputs": [
        {
          "internalType": "bytes32",
          "name": "",
          "type": "bytes32"
        }
      ],
      "stateMutability": "view",
      "type": "function",
      "constant": true
    },
    {
      "inputs": [],
      "name": "aaveAddress",
      "outputs": [
        {
          "internalType": "address",
          "name": "",
          "type": "address"
        }
      ],
      "stateMutability": "view",
      "type": "function",
      "constant": true
    },
    {
      "inputs": [],
      "name": "funding",
      "outputs": [
        {
          "internalType": "address",
          "name": "",
          "type": "address"
        }
      ],
      "stateMutability": "view",
      "type": "function",
      "constant": true
    },
    {
      "inputs": [
        {
          "internalType": "bytes32",
          "name": "role",
          "type": "bytes32"
        }
      ],
      "name": "getRoleAdmin",
      "outputs": [
        {
          "internalType": "bytes32",
          "name": "",
          "type": "bytes32"
        }
      ],
      "stateMutability": "view",
      "type": "function",
      "constant": true
    },
    {
      "inputs": [
        {
          "internalType": "bytes32",
          "name": "role",
          "type": "bytes32"
        },
        {
          "internalType": "address",
          "name": "account",
          "type": "address"
        }
      ],
      "name": "grantRole",
      "outputs": [],
      "stateMutability": "nonpayable",
      "type": "function"
    },
    {
      "inputs": [
        {
          "internalType": "bytes32",
          "name": "role",
          "type": "bytes32"
        },
        {
          "internalType": "address",
          "name": "account",
          "type": "address"
        }
      ],
      "name": "hasRole",
      "outputs": [
        {
          "internalType": "bool",
          "name": "",
          "type": "bool"
        }
      ],
      "stateMutability": "view",
      "type": "function",
      "constant": true
    },
    {
      "inputs": [],
      "name": "optionCounter",
      "outputs": [
        {
          "internalType": "uint256",
          "name": "",
          "type": "uint256"
        }
      ],
      "stateMutability": "view",
      "type": "function",
      "constant": true
    },
    {
      "inputs": [],
      "name": "overCollateral",
      "outputs": [
        {
          "internalType": "uint256",
          "name": "",
          "type": "uint256"
        }
      ],
      "stateMutability": "view",
      "type": "function",
      "constant": true
    },
    {
      "inputs": [
        {
          "internalType": "bytes32",
          "name": "role",
          "type": "bytes32"
        },
        {
          "internalType": "address",
          "name": "account",
          "type": "address"
        }
      ],
      "name": "renounceRole",
      "outputs": [],
      "stateMutability": "nonpayable",
      "type": "function"
    },
    {
      "inputs": [
        {
          "internalType": "bytes32",
          "name": "role",
          "type": "bytes32"
        },
        {
          "internalType": "address",
          "name": "account",
          "type": "address"
        }
      ],
      "name": "revokeRole",
      "outputs": [],
      "stateMutability": "nonpayable",
      "type": "function"
    },
    {
      "inputs": [
        {
          "internalType": "bytes4",
          "name": "interfaceId",
          "type": "bytes4"
        }
      ],
      "name": "supportsInterface",
      "outputs": [
        {
          "internalType": "bool",
          "name": "",
          "type": "bool"
        }
      ],
      "stateMutability": "view",
      "type": "function",
      "constant": true
    },
    {
      "inputs": [],
      "name": "underlying",
      "outputs": [
        {
          "internalType": "address",
          "name": "",
          "type": "address"
        }
      ],
      "stateMutability": "view",
      "type": "function",
      "constant": true
    },
    {
      "inputs": [],
      "name": "volChainAddress",
      "outputs": [
        {
          "internalType": "address",
          "name": "",
          "type": "address"
        }
      ],
      "stateMutability": "view",
      "type": "function",
      "constant": true
    },
    {
      "inputs": [],
      "name": "descriptionHash",
      "outputs": [
        {
          "internalType": "bytes32",
          "name": "",
          "type": "bytes32"
        }
      ],
      "stateMutability": "view",
      "type": "function",
      "constant": true
    },
    {
      "inputs": [
        {
          "internalType": "uint256",
          "name": "_tenor",
          "type": "uint256"
        },
        {
          "internalType": "uint256",
          "name": "_strike",
          "type": "uint256"
        },
        {
          "internalType": "uint256",
          "name": "_amount",
          "type": "uint256"
        },
        {
          "internalType": "enum OptionLibrary.PayoffType",
          "name": "_poType",
          "type": "uint8"
        },
        {
          "internalType": "enum OptionLibrary.OptionSide",
          "name": "_side",
          "type": "uint8"
        },
        {
          "internalType": "uint256",
          "name": "_premium",
          "type": "uint256"
        },
        {
          "internalType": "uint256",
          "name": "_cost",
          "type": "uint256"
        },
        {
          "internalType": "uint256",
          "name": "_price",
          "type": "uint256"
        },
        {
          "internalType": "uint256",
          "name": "_volatility",
          "type": "uint256"
        },
        {
          "internalType": "address",
          "name": "_holder",
          "type": "address"
        }
      ],
      "name": "addOption",
      "outputs": [
        {
          "internalType": "uint256",
          "name": "_id",
          "type": "uint256"
        }
      ],
      "stateMutability": "nonpayable",
      "type": "function"
    },
    {
      "inputs": [
        {
          "internalType": "uint256",
          "name": "_id",
          "type": "uint256"
        }
      ],
      "name": "getOptionHolder",
      "outputs": [
        {
          "internalType": "address",
          "name": "",
          "type": "address"
        }
      ],
      "stateMutability": "view",
      "type": "function",
      "constant": true
    },
    {
      "inputs": [
        {
          "internalType": "address",
          "name": "_address",
          "type": "address"
        }
      ],
      "name": "getHoldersOptionCount",
      "outputs": [
        {
          "internalType": "uint256",
          "name": "",
          "type": "uint256"
        }
      ],
      "stateMutability": "view",
      "type": "function",
      "constant": true
    },
    {
      "inputs": [
        {
          "internalType": "uint256",
          "name": "_index",
          "type": "uint256"
        },
        {
          "internalType": "address",
          "name": "_address",
          "type": "address"
        }
      ],
      "name": "getHoldersOption",
      "outputs": [
        {
          "components": [
            {
              "internalType": "enum OptionLibrary.PayoffType",
              "name": "poType",
              "type": "uint8"
            },
            {
              "internalType": "enum OptionLibrary.OptionSide",
              "name": "side",
              "type": "uint8"
            },
            {
              "internalType": "enum OptionLibrary.OptionStatus",
              "name": "status",
              "type": "uint8"
            },
            {
              "internalType": "address",
              "name": "holder",
              "type": "address"
            },
            {
              "internalType": "uint256",
              "name": "id",
              "type": "uint256"
            },
            {
              "internalType": "uint256",
              "name": "createTime",
              "type": "uint256"
            },
            {
              "internalType": "uint256",
              "name": "effectiveTime",
              "type": "uint256"
            },
            {
              "internalType": "uint256",
              "name": "tenor",
              "type": "uint256"
            },
            {
              "internalType": "uint256",
              "name": "maturity",
              "type": "uint256"
            },
            {
              "internalType": "uint256",
              "name": "exerciseTime",
              "type": "uint256"
            },
            {
              "internalType": "uint256",
              "name": "amount",
              "type": "uint256"
            },
            {
              "internalType": "uint256",
              "name": "spot",
              "type": "uint256"
            },
            {
              "internalType": "uint256",
              "name": "strike",
              "type": "uint256"
            },
            {
              "internalType": "uint256",
              "name": "volatility",
              "type": "uint256"
            },
            {
              "internalType": "uint256",
              "name": "premium",
              "type": "uint256"
            },
            {
              "internalType": "uint256",
              "name": "cost",
              "type": "uint256"
            }
          ],
          "internalType": "struct OptionLibrary.Option",
          "name": "",
          "type": "tuple"
        }
      ],
      "stateMutability": "view",
      "type": "function",
      "constant": true
    },
    {
      "inputs": [
        {
          "internalType": "uint256",
          "name": "_id",
          "type": "uint256"
        }
      ],
      "name": "getOption",
      "outputs": [
        {
          "components": [
            {
              "internalType": "enum OptionLibrary.PayoffType",
              "name": "poType",
              "type": "uint8"
            },
            {
              "internalType": "enum OptionLibrary.OptionSide",
              "name": "side",
              "type": "uint8"
            },
            {
              "internalType": "enum OptionLibrary.OptionStatus",
              "name": "status",
              "type": "uint8"
            },
            {
              "internalType": "address",
              "name": "holder",
              "type": "address"
            },
            {
              "internalType": "uint256",
              "name": "id",
              "type": "uint256"
            },
            {
              "internalType": "uint256",
              "name": "createTime",
              "type": "uint256"
            },
            {
              "internalType": "uint256",
              "name": "effectiveTime",
              "type": "uint256"
            },
            {
              "internalType": "uint256",
              "name": "tenor",
              "type": "uint256"
            },
            {
              "internalType": "uint256",
              "name": "maturity",
              "type": "uint256"
            },
            {
              "internalType": "uint256",
              "name": "exerciseTime",
              "type": "uint256"
            },
            {
              "internalType": "uint256",
              "name": "amount",
              "type": "uint256"
            },
            {
              "internalType": "uint256",
              "name": "spot",
              "type": "uint256"
            },
            {
              "internalType": "uint256",
              "name": "strike",
              "type": "uint256"
            },
            {
              "internalType": "uint256",
              "name": "volatility",
              "type": "uint256"
            },
            {
              "internalType": "uint256",
              "name": "premium",
              "type": "uint256"
            },
            {
              "internalType": "uint256",
              "name": "cost",
              "type": "uint256"
            }
          ],
          "internalType": "struct OptionLibrary.Option",
          "name": "",
          "type": "tuple"
        }
      ],
      "stateMutability": "view",
      "type": "function",
      "constant": true
    },
    {
      "inputs": [],
      "name": "getAggregateNotional",
      "outputs": [
        {
          "internalType": "uint256",
          "name": "_notional",
          "type": "uint256"
        }
      ],
      "stateMutability": "view",
      "type": "function",
      "constant": true
    },
    {
      "inputs": [
        {
          "internalType": "address",
          "name": "_address",
          "type": "address"
        }
      ],
      "name": "getGrossCapital",
      "outputs": [
        {
          "internalType": "uint256",
          "name": "_capital",
          "type": "uint256"
        }
      ],
      "stateMutability": "view",
      "type": "function",
      "constant": true
    },
    {
      "inputs": [],
      "name": "getMaxHedge",
      "outputs": [
        {
          "internalType": "uint256",
          "name": "",
          "type": "uint256"
        }
      ],
      "stateMutability": "view",
      "type": "function",
      "constant": true
    },
    {
      "inputs": [],
      "name": "getSellPutCollateral",
      "outputs": [
        {
          "internalType": "uint256",
          "name": "_collateral",
          "type": "uint256"
        }
      ],
      "stateMutability": "view",
      "type": "function",
      "constant": true
    },
    {
      "inputs": [
        {
          "internalType": "uint256",
          "name": "_id",
          "type": "uint256"
        }
      ],
      "name": "getContractPayoff",
      "outputs": [
        {
          "internalType": "uint256",
          "name": "_payoff",
          "type": "uint256"
        },
        {
          "internalType": "uint256",
          "name": "_payback",
          "type": "uint256"
        }
      ],
      "stateMutability": "view",
      "type": "function",
      "constant": true
    },
    {
      "inputs": [
        {
          "internalType": "uint256",
          "name": "_id",
          "type": "uint256"
        },
        {
          "internalType": "uint256",
          "name": "_price",
          "type": "uint256"
        },
        {
          "internalType": "bool",
          "name": "_includeExpiring",
          "type": "bool"
        }
      ],
      "name": "calculateContractDelta",
      "outputs": [
        {
          "internalType": "int256",
          "name": "_delta",
          "type": "int256"
        }
      ],
      "stateMutability": "view",
      "type": "function",
      "constant": true
    },
    {
      "inputs": [
        {
          "internalType": "uint256",
          "name": "_price",
          "type": "uint256"
        },
        {
          "internalType": "bool",
          "name": "_includeExpiring",
          "type": "bool"
        }
      ],
      "name": "calculateAggregateDelta",
      "outputs": [
        {
          "internalType": "int256",
          "name": "_delta",
          "type": "int256"
        }
      ],
      "stateMutability": "view",
      "type": "function",
      "constant": true
    },
    {
      "inputs": [
        {
          "internalType": "uint256",
          "name": "_id",
          "type": "uint256"
        },
        {
          "internalType": "uint256",
          "name": "_price",
          "type": "uint256"
        }
      ],
      "name": "calculateContractGamma",
      "outputs": [
        {
          "internalType": "int256",
          "name": "_gamma",
          "type": "int256"
        }
      ],
      "stateMutability": "view",
      "type": "function",
      "constant": true
    },
    {
      "inputs": [],
      "name": "calculateAggregateGamma",
      "outputs": [
        {
          "internalType": "int256",
          "name": "_gamma",
          "type": "int256"
        }
      ],
      "stateMutability": "view",
      "type": "function",
      "constant": true
    },
    {
      "inputs": [],
      "name": "calculateSpotGamma",
      "outputs": [
        {
          "internalType": "int256",
          "name": "_gamma",
          "type": "int256"
        }
      ],
      "stateMutability": "view",
      "type": "function",
      "constant": true
    },
    {
      "inputs": [],
      "name": "anyOptionExpiring",
      "outputs": [
        {
          "internalType": "bool",
          "name": "_isExpiring",
          "type": "bool"
        }
      ],
      "stateMutability": "view",
      "type": "function",
      "constant": true
    },
    {
      "inputs": [
        {
          "internalType": "uint256",
          "name": "_id",
          "type": "uint256"
        }
      ],
      "name": "isExpiring",
      "outputs": [
        {
          "internalType": "bool",
          "name": "",
          "type": "bool"
        }
      ],
      "stateMutability": "view",
      "type": "function",
      "constant": true
    },
    {
      "inputs": [],
      "name": "getExpiringOptionId",
      "outputs": [
        {
          "internalType": "uint256",
          "name": "_id",
          "type": "uint256"
        }
      ],
      "stateMutability": "view",
      "type": "function",
      "constant": true
    },
    {
      "inputs": [
        {
          "internalType": "uint256",
          "name": "_id",
          "type": "uint256"
        },
        {
          "internalType": "address",
          "name": "_holder",
          "type": "address"
        }
      ],
      "name": "stampActiveOption",
      "outputs": [],
      "stateMutability": "nonpayable",
      "type": "function"
    },
    {
      "inputs": [
        {
          "internalType": "uint256",
          "name": "_id",
          "type": "uint256"
        }
      ],
      "name": "stampExercisedOption",
      "outputs": [],
      "stateMutability": "nonpayable",
      "type": "function"
    },
    {
      "inputs": [
        {
          "internalType": "uint256",
          "name": "_id",
          "type": "uint256"
        }
      ],
      "name": "stampExpiredOption",
      "outputs": [],
      "stateMutability": "nonpayable",
      "type": "function"
    },
    {
      "inputs": [
        {
          "internalType": "address",
          "name": "_address",
          "type": "address"
        },
        {
          "internalType": "uint256",
          "name": "_swapSlippage",
          "type": "uint256"
        }
      ],
      "name": "calcSwapTradesInTok",
      "outputs": [
        {
          "internalType": "int256",
          "name": "_tradeUnderlyingAmount",
          "type": "int256"
        },
        {
          "internalType": "int256",
          "name": "_tradeFundingAmount",
          "type": "int256"
        }
      ],
      "stateMutability": "view",
      "type": "function",
      "constant": true
    },
    {
      "inputs": [
        {
          "internalType": "address",
          "name": "_address",
          "type": "address"
        }
      ],
      "name": "getBalances",
      "outputs": [
        {
          "internalType": "uint256",
          "name": "_underlyingBalance",
          "type": "uint256"
        },
        {
          "internalType": "uint256",
          "name": "_fundingBalance",
          "type": "uint256"
        },
        {
          "internalType": "uint256",
          "name": "_collateralBalance",
          "type": "uint256"
        },
        {
          "internalType": "uint256",
          "name": "_debtBalance",
          "type": "uint256"
        }
      ],
      "stateMutability": "view",
      "type": "function",
      "constant": true
    },
    {
      "inputs": [
        {
          "internalType": "address",
          "name": "_address",
          "type": "address"
        },
        {
          "internalType": "uint256",
          "name": "_lendingPoolRateMode",
          "type": "uint256"
        }
      ],
      "name": "calcLoanRepaymentInTok",
      "outputs": [
        {
          "internalType": "uint256",
          "name": "_repayAmount",
          "type": "uint256"
        },
        {
          "internalType": "uint256",
          "name": "_repaySwapValue",
          "type": "uint256"
        }
      ],
      "stateMutability": "view",
      "type": "function",
      "constant": true
    },
    {
      "inputs": [
        {
          "internalType": "address",
          "name": "_address",
          "type": "address"
        },
        {
          "internalType": "uint256",
          "name": "_lendingPoolRateMode",
          "type": "uint256"
        }
      ],
      "name": "calcLoanTradesInTok",
      "outputs": [
        {
          "internalType": "int256",
          "name": "_loanTradeAmount",
          "type": "int256"
        },
        {
          "internalType": "int256",
          "name": "_collateralChange",
          "type": "int256"
        },
        {
          "internalType": "address",
          "name": "_loanAddress",
          "type": "address"
        },
        {
          "internalType": "address",
          "name": "_collateralAddress",
          "type": "address"
        }
      ],
      "stateMutability": "view",
      "type": "function",
      "constant": true
    },
    {
      "inputs": [
        {
          "internalType": "uint256",
          "name": "_tenor",
          "type": "uint256"
        }
      ],
      "name": "queryVol",
      "outputs": [
        {
          "internalType": "uint256",
          "name": "",
          "type": "uint256"
        }
      ],
      "stateMutability": "view",
      "type": "function",
      "constant": true
    },
    {
      "inputs": [],
      "name": "queryPrice",
      "outputs": [
        {
          "internalType": "uint256",
          "name": "",
          "type": "uint256"
        },
        {
          "internalType": "uint256",
          "name": "",
          "type": "uint256"
        }
      ],
      "stateMutability": "view",
      "type": "function",
      "constant": true
    },
    {
      "inputs": [],
      "name": "tokenHash",
      "outputs": [
        {
          "internalType": "bytes32",
          "name": "",
          "type": "bytes32"
        }
      ],
      "stateMutability": "view",
      "type": "function",
      "constant": true
    },
    {
      "inputs": [
        {
          "internalType": "uint256",
          "name": "_overCollateral",
          "type": "uint256"
        }
      ],
      "name": "resetOverCollateral",
      "outputs": [],
      "stateMutability": "nonpayable",
      "type": "function"
    }
  ],
  "bytecode": "0x6080604052600060025567016345785d8a0000600b553480156200002257600080fd5b5060405162006006380380620060068339818101604052810190620000489190620003c1565b6200005d6000801b33620001de60201b60201c565b6200008f7f28d62fc77014de57a1bbaa8212ff0979fa61ab00d377b4b8d9762048fb41996133620001de60201b60201c565b83600760006101000a81548173ffffffffffffffffffffffffffffffffffffffff021916908373ffffffffffffffffffffffffffffffffffffffff16021790555083600660006101000a81548173ffffffffffffffffffffffffffffffffffffffff021916908373ffffffffffffffffffffffffffffffffffffffff16021790555081600a60006101000a81548173ffffffffffffffffffffffffffffffffffffffff021916908373ffffffffffffffffffffffffffffffffffffffff16021790555082600960006101000a81548173ffffffffffffffffffffffffffffffffffffffff021916908373ffffffffffffffffffffffffffffffffffffffff16021790555080600860006101000a81548173ffffffffffffffffffffffffffffffffffffffff021916908373ffffffffffffffffffffffffffffffffffffffff1602179055505050505062000433565b620001f08282620001f460201b60201c565b5050565b620002068282620002e560201b60201c565b620002e157600160008084815260200190815260200160002060000160008373ffffffffffffffffffffffffffffffffffffffff1673ffffffffffffffffffffffffffffffffffffffff16815260200190815260200160002060006101000a81548160ff021916908315150217905550620002866200034f60201b60201c565b73ffffffffffffffffffffffffffffffffffffffff168173ffffffffffffffffffffffffffffffffffffffff16837f2f8788117e7eff1d82e926ec794901d17c78024a50270940304540a733656f0d60405160405180910390a45b5050565b600080600084815260200190815260200160002060000160008373ffffffffffffffffffffffffffffffffffffffff1673ffffffffffffffffffffffffffffffffffffffff16815260200190815260200160002060009054906101000a900460ff16905092915050565b600033905090565b600080fd5b600073ffffffffffffffffffffffffffffffffffffffff82169050919050565b600062000389826200035c565b9050919050565b6200039b816200037c565b8114620003a757600080fd5b50565b600081519050620003bb8162000390565b92915050565b60008060008060808587031215620003de57620003dd62000357565b5b6000620003ee87828801620003aa565b94505060206200040187828801620003aa565b93505060406200041487828801620003aa565b92505060606200042787828801620003aa565b91505092959194509250565b615bc380620004436000396000f3fe608060405234801561001057600080fd5b50600436106102745760003560e01c806385dcee9311610151578063b4f8fe49116100c3578063cb4c86b711610087578063cb4c86b71461081c578063cca494731461083a578063cfc2dc2014610858578063d547741f14610888578063ec539828146108a4578063f8a35181146108d557610274565b8063b4f8fe491461073a578063b5310ff91461076b578063c45b1d851461079b578063c7da7505146107b9578063c84aae17146107e957610274565b806390618ed91161011557806390618ed91461066157806391d148541461067f5780639bc67cd2146106af578063a217fddf146106cd578063a42b6626146106eb578063b0667cf81461071b57610274565b806385dcee93146105835780638a0687d2146105a15780638b83b6b6146105d15780638cbb0cd0146106015780638e82c9f11461063157610274565b8063448ba42f116101ea5780636c1f7b93116101ae5780636c1f7b93146104be5780636f307dc3146104da5780636fe44031146104f857806371eaf9c6146105165780637652e7c41461053457806385ae10e61461055257610274565b8063448ba42f1461041a5780634717f5b9146104385780634aa2913e146104565780634b3ba34014610472578063637baf60146104a257610274565b806324b4110e1161023c57806324b4110e14610357578063251e1e8a146103735780632f2ff15d14610391578063305868da146103ad57806336568abe146103e05780633b734501146103fc57610274565b806301ffc9a7146102795780630eb5cbfe146102a95780631a7985ba146102c75780631ce5e9a6146102f7578063248a9ca314610327575b600080fd5b610293600480360381019061028e9190614538565b6108f3565b6040516102a09190614580565b60405180910390f35b6102b161096d565b6040516102be91906145b4565b60405180910390f35b6102e160048036038101906102dc91906145fb565b6109d0565b6040516102ee9190614669565b60405180910390f35b610311600480360381019061030c91906145fb565b610a10565b60405161031e91906148f3565b60405180910390f35b610341600480360381019061033c9190614945565b610bbd565b60405161034e9190614981565b60405180910390f35b610371600480360381019061036c91906149c8565b610bdc565b005b61037b610d25565b6040516103889190614669565b60405180910390f35b6103ab60048036038101906103a69190614a08565b610d4b565b005b6103c760048036038101906103c29190614a48565b610d74565b6040516103d79493929190614aa1565b60405180910390f35b6103fa60048036038101906103f59190614a08565b611145565b005b6104046111c8565b6040516104119190614981565b60405180910390f35b6104226111ec565b60405161042f91906145b4565b60405180910390f35b610440611376565b60405161044d91906145b4565b60405180910390f35b610470600480360381019061046b91906145fb565b611561565b005b61048c60048036038101906104879190614ae6565b611581565b6040516104999190614b26565b60405180910390f35b6104bc60048036038101906104b791906145fb565b611839565b005b6104d860048036038101906104d391906145fb565b611966565b005b6104e2611a93565b6040516104ef9190614669565b60405180910390f35b610500611ab9565b60405161050d9190614b26565b60405180910390f35b61051e611ba9565b60405161052b9190614669565b60405180910390f35b61053c611bcf565b60405161054991906145b4565b60405180910390f35b61056c600480360381019061056791906145fb565b611c37565b60405161057a929190614b41565b60405180910390f35b61058b611ff9565b6040516105989190614981565b60405180910390f35b6105bb60048036038101906105b691906149c8565b6120bc565b6040516105c891906148f3565b60405180910390f35b6105eb60048036038101906105e69190614b6a565b6122ba565b6040516105f891906145b4565b60405180910390f35b61061b60048036038101906106169190614bc3565b61253c565b6040516106289190614b26565b60405180910390f35b61064b60048036038101906106469190614c16565b61294a565b6040516106589190614b26565b60405180910390f35b6106696129a4565b6040516106769190614580565b60405180910390f35b61069960048036038101906106949190614a08565b6129fa565b6040516106a69190614580565b60405180910390f35b6106b7612a64565b6040516106c49190614b26565b60405180910390f35b6106d5612c62565b6040516106e29190614981565b60405180910390f35b61070560048036038101906107009190614b6a565b612c69565b60405161071291906145b4565b60405180910390f35b610723612cb9565b604051610731929190614b41565b60405180910390f35b610754600480360381019061074f9190614a48565b612d54565b604051610762929190614b41565b60405180910390f35b61078560048036038101906107809190614ca0565b6131d1565b60405161079291906145b4565b60405180910390f35b6107a3613458565b6040516107b091906145b4565b60405180910390f35b6107d360048036038101906107ce91906145fb565b61345e565b6040516107e09190614580565b60405180910390f35b61080360048036038101906107fe9190614b6a565b6134d4565b6040516108139493929190614d7f565b60405180910390f35b6108246136cf565b6040516108319190614669565b60405180910390f35b6108426136f5565b60405161084f9190614981565b60405180910390f35b610872600480360381019061086d91906145fb565b61378d565b60405161087f91906145b4565b60405180910390f35b6108a2600480360381019061089d9190614a08565b613832565b005b6108be60048036038101906108b99190614a48565b61385b565b6040516108cc929190614dc4565b60405180910390f35b6108dd613b7c565b6040516108ea91906145b4565b60405180910390f35b60007f7965db0b000000000000000000000000000000000000000000000000000000007bffffffffffffffffffffffffffffffffffffffffffffffffffffffff1916827bffffffffffffffffffffffffffffffffffffffffffffffffffffffff19161480610966575061096582613b82565b5b9050919050565b6000805b61097b6004613bec565b8110156109cc576001600061099a836004613c0190919063ffffffff16565b815260200190815260200160002060070154826109b79190614e1c565b915080806109c490614e72565b915050610971565b5090565b60006001600083815260200190815260200160002060000160039054906101000a900473ffffffffffffffffffffffffffffffffffffffff169050919050565b610a18614403565b60016000838152602001908152602001600020604051806102000160405290816000820160009054906101000a900460ff166001811115610a5c57610a5b614684565b5b6001811115610a6e57610a6d614684565b5b81526020016000820160019054906101000a900460ff166001811115610a9757610a96614684565b5b6001811115610aa957610aa8614684565b5b81526020016000820160029054906101000a900460ff166003811115610ad257610ad1614684565b5b6003811115610ae457610ae3614684565b5b81526020016000820160039054906101000a900473ffffffffffffffffffffffffffffffffffffffff1673ffffffffffffffffffffffffffffffffffffffff1673ffffffffffffffffffffffffffffffffffffffff168152602001600182015481526020016002820154815260200160038201548152602001600482015481526020016005820154815260200160068201548152602001600782015481526020016008820154815260200160098201548152602001600a8201548152602001600b8201548152602001600c820154815250509050919050565b6000806000838152602001908152602001600020600101549050919050565b7f28d62fc77014de57a1bbaa8212ff0979fa61ab00d377b4b8d9762048fb419961610c0e81610c09613c1b565b613c23565b42600160008581526020019081526020016000206003018190555060016000848152602001908152602001600020600401546001600085815260200190815260200160002060030154610c619190614e1c565b6001600085815260200190815260200160002060050181905550600180600085815260200190815260200160002060000160026101000a81548160ff02191690836003811115610cb457610cb3614684565b5b0217905550610d0a83600360008573ffffffffffffffffffffffffffffffffffffffff1673ffffffffffffffffffffffffffffffffffffffff168152602001908152602001600020613cc090919063ffffffff16565b50610d1f836004613cc090919063ffffffff16565b50505050565b600860009054906101000a900473ffffffffffffffffffffffffffffffffffffffff1681565b610d5482610bbd565b610d6581610d60613c1b565b613c23565b610d6f8383613cda565b505050565b6000806000806000600660009054906101000a900473ffffffffffffffffffffffffffffffffffffffff1673ffffffffffffffffffffffffffffffffffffffff1663b0667cf86040518163ffffffff1660e01b81526004016040805180830381865afa158015610de8573d6000803e3d6000fd5b505050506040513d601f19601f82011682018060405250810190610e0c9190614ed0565b5090506000610e1c82600061294a565b90506000600860009054906101000a900473ffffffffffffffffffffffffffffffffffffffff1673ffffffffffffffffffffffffffffffffffffffff166321f8a7216040518163ffffffff1660e01b8152600401610e7990614f36565b602060405180830381865afa158015610e96573d6000803e3d6000fd5b505050506040513d601f19601f82011682018060405250810190610eba9190614f64565b9050600073__MarketLibrary_________________________63b076288a8b8486600960009054906101000a900473ffffffffffffffffffffffffffffffffffffffff1660028f146040518663ffffffff1660e01b8152600401610f22959493929190614fbe565b606060405180830381865af4158015610f3f573d6000803e3d6000fd5b505050506040513d601f19601f82011682018060405250810190610f63919061503d565b809850819350829a5050505073__MarketLibrary_________________________636198d6548b848488600a60009054906101000a900473ffffffffffffffffffffffffffffffffffffffff16600960009054906101000a900473ffffffffffffffffffffffffffffffffffffffff16600b546040518863ffffffff1660e01b8152600401610ff8979695949392919061509f565b6040805180830381865af4158015611014573d6000803e3d6000fd5b505050506040513d601f19601f82011682018060405250810190611038919061510e565b809650819850505073__MarketLibrary_________________________63aa5c12c789886040518363ffffffff1660e01b815260040161107992919061514e565b602060405180830381865af4158015611096573d6000803e3d6000fd5b505050506040513d601f19601f820116820180604052508101906110ba9190615177565b975073__MarketLibrary_________________________63aa5c12c788876040518363ffffffff1660e01b81526004016110f592919061514e565b602060405180830381865af4158015611112573d6000803e3d6000fd5b505050506040513d601f19601f820116820180604052508101906111369190615177565b96505050505092959194509250565b61114d613c1b565b73ffffffffffffffffffffffffffffffffffffffff168173ffffffffffffffffffffffffffffffffffffffff16146111ba576040517f08c379a00000000000000000000000000000000000000000000000000000000081526004016111b190615227565b60405180910390fd5b6111c48282613dba565b5050565b7f28d62fc77014de57a1bbaa8212ff0979fa61ab00d377b4b8d9762048fb41996181565b600080600660009054906101000a900473ffffffffffffffffffffffffffffffffffffffff1673ffffffffffffffffffffffffffffffffffffffff1663b0667cf86040518163ffffffff1660e01b81526004016040805180830381865afa15801561125b573d6000803e3d6000fd5b505050506040513d601f19601f8201168201806040525081019061127f9190614ed0565b509050600061129d620186a0836112969190615276565b600161294a565b905060006112ba620186a0846112b391906152a7565b600161294a565b905061136e6112fb60008412156112da57836112d590615301565b6112dc565b835b60008412156112f457836112ef90615301565b6112f6565b835b613e9b565b8473__OptionLibrary_________________________63fd9b87636040518163ffffffff1660e01b8152600401602060405180830381865af4158015611345573d6000803e3d6000fd5b505050506040513d601f19601f82011682018060405250810190611369919061534a565b613eb5565b935050505090565b6000805b6113846004613bec565b81101561155d5760006113a1826004613c0190919063ffffffff16565b9050600160038111156113b7576113b6614684565b5b6001600083815260200190815260200160002060000160029054906101000a900460ff1660038111156113ed576113ec614684565b5b148015611440575060018081111561140857611407614684565b5b6001600083815260200190815260200160002060000160019054906101000a900460ff16600181111561143e5761143d614684565b5b145b8015611492575060018081111561145a57611459614684565b5b6001600083815260200190815260200160002060000160009054906101000a900460ff1660018111156114905761148f614684565b5b145b15611549576001600082815260200190815260200160002073__OptionLibrary_________________________630862958b909160016000858152602001908152602001600020600901546040518363ffffffff1660e01b81526004016114fa92919061537e565b602060405180830381865af4158015611517573d6000803e3d6000fd5b505050506040513d601f19601f8201168201806040525081019061153b919061534a565b836115469190614e1c565b92505b50808061155590614e72565b91505061137a565b5090565b6000801b61157681611571613c1b565b613c23565b81600b819055505050565b60006001600381111561159757611596614684565b5b6001600085815260200190815260200160002060000160029054906101000a900460ff1660038111156115cd576115cc614684565b5b1480156115ef5750426001600085815260200190815260200160002060050154115b15611833576000600660009054906101000a900473ffffffffffffffffffffffffffffffffffffffff1673ffffffffffffffffffffffffffffffffffffffff1663040b030f42600160008881526020019081526020016000206005015461165691906153a7565b6040518263ffffffff1660e01b815260040161167291906145b4565b602060405180830381865afa15801561168f573d6000803e3d6000fd5b505050506040513d601f19601f820116820180604052508101906116b3919061534a565b90506117d373__OptionLibrary_________________________639932b2be856001600089815260200190815260200160002060090154856040518463ffffffff1660e01b8152600401611709939291906153db565b602060405180830381865af4158015611726573d6000803e3d6000fd5b505050506040513d601f19601f8201168201806040525081019061174a919061534a565b600160008781526020019081526020016000206007015473__OptionLibrary_________________________63fd9b87636040518163ffffffff1660e01b8152600401602060405180830381865af41580156117aa573d6000803e3d6000fd5b505050506040513d601f19601f820116820180604052508101906117ce919061534a565b613eb5565b91506001808111156117e8576117e7614684565b5b6001600086815260200190815260200160002060000160019054906101000a900460ff16600181111561181e5761181d614684565b5b1415611831578161182e90615301565b91505b505b92915050565b7f28d62fc77014de57a1bbaa8212ff0979fa61ab00d377b4b8d9762048fb41996161186b81611866613c1b565b613c23565b6118f282600360006001600087815260200190815260200160002060000160039054906101000a900473ffffffffffffffffffffffffffffffffffffffff1673ffffffffffffffffffffffffffffffffffffffff1673ffffffffffffffffffffffffffffffffffffffff168152602001908152602001600020613fb190919063ffffffff16565b50611907826004613fb190919063ffffffff16565b5060036001600084815260200190815260200160002060000160026101000a81548160ff0219169083600381111561194257611941614684565b5b02179055504260016000848152602001908152602001600020600601819055505050565b7f28d62fc77014de57a1bbaa8212ff0979fa61ab00d377b4b8d9762048fb41996161199881611993613c1b565b613c23565b611a1f82600360006001600087815260200190815260200160002060000160039054906101000a900473ffffffffffffffffffffffffffffffffffffffff1673ffffffffffffffffffffffffffffffffffffffff1673ffffffffffffffffffffffffffffffffffffffff168152602001908152602001600020613fb190919063ffffffff16565b50611a34826004613fb190919063ffffffff16565b5060026001600084815260200190815260200160002060000160026101000a81548160ff02191690836003811115611a6f57611a6e614684565b5b02179055504260016000848152602001908152602001600020600601819055505050565b600960009054906101000a900473ffffffffffffffffffffffffffffffffffffffff1681565b600080600660009054906101000a900473ffffffffffffffffffffffffffffffffffffffff1673ffffffffffffffffffffffffffffffffffffffff1663b0667cf86040518163ffffffff1660e01b81526004016040805180830381865afa158015611b28573d6000803e3d6000fd5b505050506040513d601f19601f82011682018060405250810190611b4c9190614ed0565b5090506000915060005b611b606004613bec565b811015611ba457611b84611b7e826004613c0190919063ffffffff16565b83611581565b83611b8f9190615412565b92508080611b9c90614e72565b915050611b56565b505090565b600760009054906101000a900473ffffffffffffffffffffffffffffffffffffffff1681565b6000805b611bdd6004613bec565b811015611c3357611c00611bfb826004613c0190919063ffffffff16565b61345e565b15611c2057611c19816004613c0190919063ffffffff16565b9150611c33565b8080611c2b90614e72565b915050611bd3565b5090565b6000806000600660009054906101000a900473ffffffffffffffffffffffffffffffffffffffff1673ffffffffffffffffffffffffffffffffffffffff1663b0667cf86040518163ffffffff1660e01b81526004016040805180830381865afa158015611ca8573d6000803e3d6000fd5b505050506040513d601f19601f82011682018060405250810190611ccc9190614ed0565b5090506001600085815260200190815260200160002073__OptionLibrary_________________________63a69d3ae09091836040518363ffffffff1660e01b8152600401611d1c92919061537e565b602060405180830381865af4158015611d39573d6000803e3d6000fd5b505050506040513d601f19601f82011682018060405250810190611d5d919061534a565b9250829150600180811115611d7557611d74614684565b5b6001600086815260200190815260200160002060000160019054906101000a900460ff166001811115611dab57611daa614684565b5b148015611dff575060006001811115611dc757611dc6614684565b5b6001600086815260200190815260200160002060000160009054906101000a900460ff166001811115611dfd57611dfc614684565b5b145b15611ea057826001600086815260200190815260200160002073__OptionLibrary_________________________630862958b9091846040518363ffffffff1660e01b8152600401611e5292919061537e565b602060405180830381865af4158015611e6f573d6000803e3d6000fd5b505050506040513d601f19601f82011682018060405250810190611e93919061534a565b611e9d91906153a7565b91505b600180811115611eb357611eb2614684565b5b6001600086815260200190815260200160002060000160019054906101000a900460ff166001811115611ee957611ee8614684565b5b148015611f3c5750600180811115611f0457611f03614684565b5b6001600086815260200190815260200160002060000160009054906101000a900460ff166001811115611f3a57611f39614684565b5b145b15611ff357826001600086815260200190815260200160002073__OptionLibrary_________________________630862958b909160016000898152602001908152602001600020600901546040518363ffffffff1660e01b8152600401611fa592919061537e565b602060405180830381865af4158015611fc2573d6000803e3d6000fd5b505050506040513d601f19601f82011682018060405250810190611fe6919061534a565b611ff091906153a7565b91505b50915091565b6000600660009054906101000a900473ffffffffffffffffffffffffffffffffffffffff1673ffffffffffffffffffffffffffffffffffffffff166398de78976040518163ffffffff1660e01b8152600401600060405180830381865afa158015612068573d6000803e3d6000fd5b505050506040513d6000823e3d601f19601f820116820180604052508101906120919190615610565b6040516020016120a191906156a0565b60405160208183030381529060405280519060200120905090565b6120c4614403565b6001600061211985600360008773ffffffffffffffffffffffffffffffffffffffff1673ffffffffffffffffffffffffffffffffffffffff168152602001908152602001600020613c0190919063ffffffff16565b8152602001908152602001600020604051806102000160405290816000820160009054906101000a900460ff16600181111561215857612157614684565b5b600181111561216a57612169614684565b5b81526020016000820160019054906101000a900460ff16600181111561219357612192614684565b5b60018111156121a5576121a4614684565b5b81526020016000820160029054906101000a900460ff1660038111156121ce576121cd614684565b5b60038111156121e0576121df614684565b5b81526020016000820160039054906101000a900473ffffffffffffffffffffffffffffffffffffffff1673ffffffffffffffffffffffffffffffffffffffff1673ffffffffffffffffffffffffffffffffffffffff168152602001600182015481526020016002820154815260200160038201548152602001600482015481526020016005820154815260200160068201548152602001600782015481526020016008820154815260200160098201548152602001600a8201548152602001600b8201548152602001600c82015481525050905092915050565b600080600660009054906101000a900473ffffffffffffffffffffffffffffffffffffffff1673ffffffffffffffffffffffffffffffffffffffff1663b0667cf86040518163ffffffff1660e01b81526004016040805180830381865afa158015612329573d6000803e3d6000fd5b505050506040513d601f19601f8201168201806040525081019061234d9190614ed0565b50905060008060008061235f876134d4565b93509350935093506123de848673__OptionLibrary_________________________63fd9b87636040518163ffffffff1660e01b8152600401602060405180830381865af41580156123b5573d6000803e3d6000fd5b505050506040513d601f19601f820116820180604052508101906123d9919061534a565b613eb5565b82846123ea9190614e1c565b6123f49190614e1c565b955061246d818673__OptionLibrary_________________________63fd9b87636040518163ffffffff1660e01b8152600401602060405180830381865af4158015612444573d6000803e3d6000fd5b505050506040513d601f19601f82011682018060405250810190612468919061534a565b613eb5565b86116124ae576040517f08c379a00000000000000000000000000000000000000000000000000000000081526004016124a590615703565b60405180910390fd5b612525818673__OptionLibrary_________________________63fd9b87636040518163ffffffff1660e01b8152600401602060405180830381865af41580156124fc573d6000803e3d6000fd5b505050506040513d601f19601f82011682018060405250810190612520919061534a565b613eb5565b8661253091906153a7565b95505050505050919050565b60006001600381111561255257612551614684565b5b6001600086815260200190815260200160002060000160029054906101000a900460ff16600381111561258857612587614684565b5b1480156125b2575081806125b15750426001600086815260200190815260200160002060050154115b5b1561294357600060018111156125cb576125ca614684565b5b6001600086815260200190815260200160002060000160019054906101000a900460ff16600181111561260157612600614684565b5b1415612886576000600660009054906101000a900473ffffffffffffffffffffffffffffffffffffffff1673ffffffffffffffffffffffffffffffffffffffff1663040b030f612667600160008981526020019081526020016000206005015442613fcb565b600160008981526020019081526020016000206005015461268891906153a7565b6040518263ffffffff1660e01b81526004016126a491906145b4565b602060405180830381865afa1580156126c1573d6000803e3d6000fd5b505050506040513d601f19601f820116820180604052508101906126e5919061534a565b905061280573__OptionLibrary_________________________6323a00f6586600160008a815260200190815260200160002060090154856040518463ffffffff1660e01b815260040161273b939291906153db565b602060405180830381865af4158015612758573d6000803e3d6000fd5b505050506040513d601f19601f8201168201806040525081019061277c919061534a565b600160008881526020019081526020016000206007015473__OptionLibrary_________________________63fd9b87636040518163ffffffff1660e01b8152600401602060405180830381865af41580156127dc573d6000803e3d6000fd5b505050506040513d601f19601f82011682018060405250810190612800919061534a565b613eb5565b915060018081111561281a57612819614684565b5b6001600087815260200190815260200160002060000160009054906101000a900460ff1660018111156128505761284f614684565b5b14156128845781600160008781526020019081526020016000206007015461287790615301565b6128819190615412565b91505b505b60018081111561289957612898614684565b5b6001600086815260200190815260200160002060000160019054906101000a900460ff1660018111156128cf576128ce614684565b5b1480156129235750600060018111156128eb576128ea614684565b5b6001600086815260200190815260200160002060000160009054906101000a900460ff16600181111561292157612920614684565b5b145b1561294257600160008581526020019081526020016000206007015490505b5b9392505050565b6000805b6129586004613bec565b81101561299d5761297d612976826004613c0190919063ffffffff16565b858561253c565b826129889190615412565b9150808061299590614e72565b91505061294e565b5092915050565b6000805b6129b26004613bec565b8110156129f6576129d56129d0826004613c0190919063ffffffff16565b61345e565b156129e357600191506129f6565b80806129ee90614e72565b9150506129a8565b5090565b600080600084815260200190815260200160002060000160008373ffffffffffffffffffffffffffffffffffffffff1673ffffffffffffffffffffffffffffffffffffffff16815260200190815260200160002060009054906101000a900460ff16905092915050565b600080600660009054906101000a900473ffffffffffffffffffffffffffffffffffffffff1673ffffffffffffffffffffffffffffffffffffffff1663040b030f620151806040518263ffffffff1660e01b8152600401612ac59190615768565b602060405180830381865afa158015612ae2573d6000803e3d6000fd5b505050506040513d601f19601f82011682018060405250810190612b06919061534a565b905073__OptionLibrary_________________________639932b2be73__OptionLibrary_________________________63fd9b87636040518163ffffffff1660e01b8152600401602060405180830381865af4158015612b6b573d6000803e3d6000fd5b505050506040513d601f19601f82011682018060405250810190612b8f919061534a565b73__OptionLibrary_________________________63fd9b87636040518163ffffffff1660e01b8152600401602060405180830381865af4158015612bd8573d6000803e3d6000fd5b505050506040513d601f19601f82011682018060405250810190612bfc919061534a565b846040518463ffffffff1660e01b8152600401612c1b939291906153db565b602060405180830381865af4158015612c38573d6000803e3d6000fd5b505050506040513d601f19601f82011682018060405250810190612c5c919061534a565b91505090565b6000801b81565b6000612cb2600360008473ffffffffffffffffffffffffffffffffffffffff1673ffffffffffffffffffffffffffffffffffffffff168152602001908152602001600020613bec565b9050919050565b600080600660009054906101000a900473ffffffffffffffffffffffffffffffffffffffff1673ffffffffffffffffffffffffffffffffffffffff1663b0667cf86040518163ffffffff1660e01b81526004016040805180830381865afa158015612d28573d6000803e3d6000fd5b505050506040513d601f19601f82011682018060405250810190612d4c9190614ed0565b915091509091565b6000806000600660009054906101000a900473ffffffffffffffffffffffffffffffffffffffff1673ffffffffffffffffffffffffffffffffffffffff1663b0667cf86040518163ffffffff1660e01b81526004016040805180830381865afa158015612dc5573d6000803e3d6000fd5b505050506040513d601f19601f82011682018060405250810190612de99190614ed0565b5090506000612df982600061294a565b9050600073__MarketLibrary_________________________63b076288a88600860009054906101000a900473ffffffffffffffffffffffffffffffffffffffff1673ffffffffffffffffffffffffffffffffffffffff166321f8a7216040518163ffffffff1660e01b8152600401612e7190614f36565b602060405180830381865afa158015612e8e573d6000803e3d6000fd5b505050506040513d601f19601f82011682018060405250810190612eb29190614f64565b85600960009054906101000a900473ffffffffffffffffffffffffffffffffffffffff1660028c146040518663ffffffff1660e01b8152600401612efa959493929190614fbe565b606060405180830381865af4158015612f17573d6000803e3d6000fd5b505050506040513d601f19601f82011682018060405250810190612f3b919061503d565b50509050600094506000935060008112156131c757612ffe81612f5d90615301565b600960009054906101000a900473ffffffffffffffffffffffffffffffffffffffff1673ffffffffffffffffffffffffffffffffffffffff166370a08231306040518263ffffffff1660e01b8152600401612fb89190614669565b602060405180830381865afa158015612fd5573d6000803e3d6000fd5b505050506040513d601f19601f82011682018060405250810190612ff9919061534a565b613fcb565b8161300890615301565b61301291906153a7565b945073__MarketLibrary_________________________638170ce806130a5878673__OptionLibrary_________________________63fd9b87636040518163ffffffff1660e01b8152600401602060405180830381865af415801561307c573d6000803e3d6000fd5b505050506040513d601f19601f820116820180604052508101906130a0919061534a565b613eb5565b600a60009054906101000a900473ffffffffffffffffffffffffffffffffffffffff166040518363ffffffff1660e01b81526004016130e5929190615783565b602060405180830381865af4158015613102573d6000803e3d6000fd5b505050506040513d601f19601f82011682018060405250810190613126919061534a565b935073__MarketLibrary_________________________638170ce8086600960009054906101000a900473ffffffffffffffffffffffffffffffffffffffff166040518363ffffffff1660e01b8152600401613183929190615783565b602060405180830381865af41580156131a0573d6000803e3d6000fd5b505050506040513d601f19601f820116820180604052508101906131c4919061534a565b94505b5050509250929050565b60007f28d62fc77014de57a1bbaa8212ff0979fa61ab00d377b4b8d9762048fb41996161320581613200613c1b565b613c23565b6002600081548092919061321890614e72565b919050555060025491506040518061020001604052808a600181111561324157613240614684565b5b815260200189600181111561325957613258614684565b5b81526020016000600381111561327257613271614684565b5b81526020018473ffffffffffffffffffffffffffffffffffffffff168152602001838152602001428152602001600081526020018d815260200160008152602001600081526020018b81526020018681526020018c8152602001858152602001888152602001878152506001600084815260200190815260200160002060008201518160000160006101000a81548160ff0219169083600181111561331a57613319614684565b5b021790555060208201518160000160016101000a81548160ff0219169083600181111561334a57613349614684565b5b021790555060408201518160000160026101000a81548160ff0219169083600381111561337a57613379614684565b5b021790555060608201518160000160036101000a81548173ffffffffffffffffffffffffffffffffffffffff021916908373ffffffffffffffffffffffffffffffffffffffff1602179055506080820151816001015560a0820151816002015560c0820151816003015560e08201518160040155610100820151816005015561012082015181600601556101408201518160070155610160820151816008015561018082015181600901556101a082015181600a01556101c082015181600b01556101e082015181600c0155905050509a9950505050505050505050565b600b5481565b60006001600381111561347457613473614684565b5b6001600084815260200190815260200160002060000160029054906101000a900460ff1660038111156134aa576134a9614684565b5b1480156134cd575042600160008481526020019081526020016000206005015411155b9050919050565b6000806000806000600860009054906101000a900473ffffffffffffffffffffffffffffffffffffffff1673ffffffffffffffffffffffffffffffffffffffff166321f8a7216040518163ffffffff1660e01b815260040161353590614f36565b602060405180830381865afa158015613552573d6000803e3d6000fd5b505050506040513d601f19601f820116820180604052508101906135769190614f64565b905073__MarketLibrary_________________________6332c21e138783600960009054906101000a900473ffffffffffffffffffffffffffffffffffffffff166040518463ffffffff1660e01b81526004016135d5939291906157ac565b606060405180830381865af41580156135f2573d6000803e3d6000fd5b505050506040513d601f19601f8201168201806040525081019061361691906157e3565b9050809350819650505073__MarketLibrary_________________________6332c21e138783600a60009054906101000a900473ffffffffffffffffffffffffffffffffffffffff166040518463ffffffff1660e01b815260040161367d939291906157ac565b606060405180830381865af415801561369a573d6000803e3d6000fd5b505050506040513d601f19601f820116820180604052508101906136be91906157e3565b508094508195505050509193509193565b600a60009054906101000a900473ffffffffffffffffffffffffffffffffffffffff1681565b6000600660009054906101000a900473ffffffffffffffffffffffffffffffffffffffff1673ffffffffffffffffffffffffffffffffffffffff1663def215446040518163ffffffff1660e01b8152600401602060405180830381865afa158015613764573d6000803e3d6000fd5b505050506040513d601f19601f82011682018060405250810190613788919061584b565b905090565b6000600660009054906101000a900473ffffffffffffffffffffffffffffffffffffffff1673ffffffffffffffffffffffffffffffffffffffff1663040b030f836040518263ffffffff1660e01b81526004016137ea91906145b4565b602060405180830381865afa158015613807573d6000803e3d6000fd5b505050506040513d601f19601f8201168201806040525081019061382b919061534a565b9050919050565b61383b82610bbd565b61384c81613847613c1b565b613c23565b6138568383613dba565b505050565b6000806000600660009054906101000a900473ffffffffffffffffffffffffffffffffffffffff1673ffffffffffffffffffffffffffffffffffffffff1663b0667cf86040518163ffffffff1660e01b81526004016040805180830381865afa1580156138cc573d6000803e3d6000fd5b505050506040513d601f19601f820116820180604052508101906138f09190614ed0565b509050600061390082600061294a565b905073__MarketLibrary_________________________63eea2526b600960009054906101000a900473ffffffffffffffffffffffffffffffffffffffff16886040518363ffffffff1660e01b815260040161395d929190615878565b602060405180830381865af415801561397a573d6000803e3d6000fd5b505050506040513d601f19601f8201168201806040525081019061399e919061534a565b60008212156139ae5760006139b0565b815b6139ba91906158a1565b935073__MarketLibrary_________________________63aa5c12c773__OptionLibrary_________________________63ca0cc13d87868a6040518463ffffffff1660e01b8152600401613a1193929190615935565b602060405180830381865af4158015613a2e573d6000803e3d6000fd5b505050506040513d601f19601f82011682018060405250810190613a529190615177565b600a60009054906101000a900473ffffffffffffffffffffffffffffffffffffffff166040518363ffffffff1660e01b8152600401613a9292919061514e565b602060405180830381865af4158015613aaf573d6000803e3d6000fd5b505050506040513d601f19601f82011682018060405250810190613ad39190615177565b925073__MarketLibrary_________________________63aa5c12c785600960009054906101000a900473ffffffffffffffffffffffffffffffffffffffff166040518363ffffffff1660e01b8152600401613b3092919061514e565b602060405180830381865af4158015613b4d573d6000803e3d6000fd5b505050506040513d601f19601f82011682018060405250810190613b719190615177565b935050509250929050565b60025481565b60007f01ffc9a7000000000000000000000000000000000000000000000000000000007bffffffffffffffffffffffffffffffffffffffffffffffffffffffff1916827bffffffffffffffffffffffffffffffffffffffffffffffffffffffff1916149050919050565b6000613bfa82600001613fe4565b9050919050565b6000613c108360000183613ff5565b60001c905092915050565b600033905090565b613c2d82826129fa565b613cbc57613c528173ffffffffffffffffffffffffffffffffffffffff166014614020565b613c608360001c6020614020565b604051602001613c71929190615a04565b6040516020818303038152906040526040517f08c379a0000000000000000000000000000000000000000000000000000000008152600401613cb39190615a77565b60405180910390fd5b5050565b6000613cd2836000018360001b61425c565b905092915050565b613ce482826129fa565b613db657600160008084815260200190815260200160002060000160008373ffffffffffffffffffffffffffffffffffffffff1673ffffffffffffffffffffffffffffffffffffffff16815260200190815260200160002060006101000a81548160ff021916908315150217905550613d5b613c1b565b73ffffffffffffffffffffffffffffffffffffffff168173ffffffffffffffffffffffffffffffffffffffff16837f2f8788117e7eff1d82e926ec794901d17c78024a50270940304540a733656f0d60405160405180910390a45b5050565b613dc482826129fa565b15613e9757600080600084815260200190815260200160002060000160008373ffffffffffffffffffffffffffffffffffffffff1673ffffffffffffffffffffffffffffffffffffffff16815260200190815260200160002060006101000a81548160ff021916908315150217905550613e3c613c1b565b73ffffffffffffffffffffffffffffffffffffffff168173ffffffffffffffffffffffffffffffffffffffff16837ff6391f5c32d9c69d2a47ea670b442974b53935d1edc7fd64eb21e047a839171b60405160405180910390a45b5050565b600081831015613eab5781613ead565b825b905092915050565b600080600080198587098587029250828110838203039150506000811415613ef05760008411613ee457600080fd5b83820492505050613faa565b808411613efc57600080fd5b60008486880990508281118203915080830392506000856001877fffffffffffffffffffffffffffffffffffffffffffffffffffffffffffffffff0301169050808604955080840493506001818260000304019050808302841793506000600287600302189050808702600203810290508087026002038102905080870260020381029050808702600203810290508087026002038102905080870260020381029050808502955050505050505b9392505050565b6000613fc3836000018360001b6142cc565b905092915050565b6000818310613fda5781613fdc565b825b905092915050565b600081600001805490509050919050565b600082600001828154811061400d5761400c615a99565b5b9060005260206000200154905092915050565b60606000600283600261403391906152a7565b61403d9190614e1c565b67ffffffffffffffff811115614056576140556154c1565b5b6040519080825280601f01601f1916602001820160405280156140885781602001600182028036833780820191505090505b5090507f3000000000000000000000000000000000000000000000000000000000000000816000815181106140c0576140bf615a99565b5b60200101907effffffffffffffffffffffffffffffffffffffffffffffffffffffffffffff1916908160001a9053507f78000000000000000000000000000000000000000000000000000000000000008160018151811061412457614123615a99565b5b60200101907effffffffffffffffffffffffffffffffffffffffffffffffffffffffffffff1916908160001a9053506000600184600261416491906152a7565b61416e9190614e1c565b90505b600181111561420e577f3031323334353637383961626364656600000000000000000000000000000000600f8616601081106141b0576141af615a99565b5b1a60f81b8282815181106141c7576141c6615a99565b5b60200101907effffffffffffffffffffffffffffffffffffffffffffffffffffffffffffff1916908160001a905350600485901c94508061420790615ac8565b9050614171565b5060008414614252576040517f08c379a000000000000000000000000000000000000000000000000000000000815260040161424990615b3e565b60405180910390fd5b8091505092915050565b600061426883836143e0565b6142c15782600001829080600181540180825580915050600190039060005260206000200160009091909190915055826000018054905083600101600084815260200190815260200160002081905550600190506142c6565b600090505b92915050565b600080836001016000848152602001908152602001600020549050600081146143d45760006001826142fe91906153a7565b905060006001866000018054905061431691906153a7565b905081811461438557600086600001828154811061433757614336615a99565b5b906000526020600020015490508087600001848154811061435b5761435a615a99565b5b90600052602060002001819055508387600101600083815260200190815260200160002081905550505b8560000180548061439957614398615b5e565b5b6001900381819060005260206000200160009055905585600101600086815260200190815260200160002060009055600193505050506143da565b60009150505b92915050565b600080836001016000848152602001908152602001600020541415905092915050565b6040518061020001604052806000600181111561442357614422614684565b5b81526020016000600181111561443c5761443b614684565b5b81526020016000600381111561445557614454614684565b5b8152602001600073ffffffffffffffffffffffffffffffffffffffff1681526020016000815260200160008152602001600081526020016000815260200160008152602001600081526020016000815260200160008152602001600081526020016000815260200160008152602001600081525090565b6000604051905090565b600080fd5b600080fd5b60007fffffffff0000000000000000000000000000000000000000000000000000000082169050919050565b614515816144e0565b811461452057600080fd5b50565b6000813590506145328161450c565b92915050565b60006020828403121561454e5761454d6144d6565b5b600061455c84828501614523565b91505092915050565b60008115159050919050565b61457a81614565565b82525050565b60006020820190506145956000830184614571565b92915050565b6000819050919050565b6145ae8161459b565b82525050565b60006020820190506145c960008301846145a5565b92915050565b6145d88161459b565b81146145e357600080fd5b50565b6000813590506145f5816145cf565b92915050565b600060208284031215614611576146106144d6565b5b600061461f848285016145e6565b91505092915050565b600073ffffffffffffffffffffffffffffffffffffffff82169050919050565b600061465382614628565b9050919050565b61466381614648565b82525050565b600060208201905061467e600083018461465a565b92915050565b7f4e487b7100000000000000000000000000000000000000000000000000000000600052602160045260246000fd5b600281106146c4576146c3614684565b5b50565b60008190506146d5826146b3565b919050565b60006146e5826146c7565b9050919050565b6146f5816146da565b82525050565b6002811061470c5761470b614684565b5b50565b600081905061471d826146fb565b919050565b600061472d8261470f565b9050919050565b61473d81614722565b82525050565b6004811061475457614753614684565b5b50565b600081905061476582614743565b919050565b600061477582614757565b9050919050565b6147858161476a565b82525050565b61479481614648565b82525050565b6147a38161459b565b82525050565b610200820160008201516147c060008501826146ec565b5060208201516147d36020850182614734565b5060408201516147e6604085018261477c565b5060608201516147f9606085018261478b565b50608082015161480c608085018261479a565b5060a082015161481f60a085018261479a565b5060c082015161483260c085018261479a565b5060e082015161484560e085018261479a565b5061010082015161485a61010085018261479a565b5061012082015161486f61012085018261479a565b5061014082015161488461014085018261479a565b5061016082015161489961016085018261479a565b506101808201516148ae61018085018261479a565b506101a08201516148c36101a085018261479a565b506101c08201516148d86101c085018261479a565b506101e08201516148ed6101e085018261479a565b50505050565b60006102008201905061490960008301846147a9565b92915050565b6000819050919050565b6149228161490f565b811461492d57600080fd5b50565b60008135905061493f81614919565b92915050565b60006020828403121561495b5761495a6144d6565b5b600061496984828501614930565b91505092915050565b61497b8161490f565b82525050565b60006020820190506149966000830184614972565b92915050565b6149a581614648565b81146149b057600080fd5b50565b6000813590506149c28161499c565b92915050565b600080604083850312156149df576149de6144d6565b5b60006149ed858286016145e6565b92505060206149fe858286016149b3565b9150509250929050565b60008060408385031215614a1f57614a1e6144d6565b5b6000614a2d85828601614930565b9250506020614a3e858286016149b3565b9150509250929050565b60008060408385031215614a5f57614a5e6144d6565b5b6000614a6d858286016149b3565b9250506020614a7e858286016145e6565b9150509250929050565b6000819050919050565b614a9b81614a88565b82525050565b6000608082019050614ab66000830187614a92565b614ac36020830186614a92565b614ad0604083018561465a565b614add606083018461465a565b95945050505050565b60008060408385031215614afd57614afc6144d6565b5b6000614b0b858286016145e6565b9250506020614b1c858286016145e6565b9150509250929050565b6000602082019050614b3b6000830184614a92565b92915050565b6000604082019050614b5660008301856145a5565b614b6360208301846145a5565b9392505050565b600060208284031215614b8057614b7f6144d6565b5b6000614b8e848285016149b3565b91505092915050565b614ba081614565565b8114614bab57600080fd5b50565b600081359050614bbd81614b97565b92915050565b600080600060608486031215614bdc57614bdb6144d6565b5b6000614bea868287016145e6565b9350506020614bfb868287016145e6565b9250506040614c0c86828701614bae565b9150509250925092565b60008060408385031215614c2d57614c2c6144d6565b5b6000614c3b858286016145e6565b9250506020614c4c85828601614bae565b9150509250929050565b60028110614c6357600080fd5b50565b600081359050614c7581614c56565b92915050565b60028110614c8857600080fd5b50565b600081359050614c9a81614c7b565b92915050565b6000806000806000806000806000806101408b8d031215614cc457614cc36144d6565b5b6000614cd28d828e016145e6565b9a50506020614ce38d828e016145e6565b9950506040614cf48d828e016145e6565b9850506060614d058d828e01614c66565b9750506080614d168d828e01614c8b565b96505060a0614d278d828e016145e6565b95505060c0614d388d828e016145e6565b94505060e0614d498d828e016145e6565b935050610100614d5b8d828e016145e6565b925050610120614d6d8d828e016149b3565b9150509295989b9194979a5092959850565b6000608082019050614d9460008301876145a5565b614da160208301866145a5565b614dae60408301856145a5565b614dbb60608301846145a5565b95945050505050565b6000604082019050614dd96000830185614a92565b614de66020830184614a92565b9392505050565b7f4e487b7100000000000000000000000000000000000000000000000000000000600052601160045260246000fd5b6000614e278261459b565b9150614e328361459b565b9250827fffffffffffffffffffffffffffffffffffffffffffffffffffffffffffffffff03821115614e6757614e66614ded565b5b828201905092915050565b6000614e7d8261459b565b91507fffffffffffffffffffffffffffffffffffffffffffffffffffffffffffffffff821415614eb057614eaf614ded565b5b600182019050919050565b600081519050614eca816145cf565b92915050565b60008060408385031215614ee757614ee66144d6565b5b6000614ef585828601614ebb565b9250506020614f0685828601614ebb565b9150509250929050565b7f3078310000000000000000000000000000000000000000000000000000000000815250565b6000602082019050614f4a60008301614f10565b919050565b600081519050614f5e8161499c565b92915050565b600060208284031215614f7a57614f796144d6565b5b6000614f8884828501614f4f565b91505092915050565b614f9a81614648565b82525050565b614fa981614a88565b82525050565b614fb881614565565b82525050565b600060a082019050614fd36000830188614f91565b614fe06020830187614f91565b614fed6040830186614fa0565b614ffa6060830185614f91565b6150076080830184614faf565b9695505050505050565b61501a81614a88565b811461502557600080fd5b50565b60008151905061503781615011565b92915050565b600080600060608486031215615056576150556144d6565b5b600061506486828701615028565b935050602061507586828701614ebb565b925050604061508686828701614f4f565b9150509250925092565b6150998161459b565b82525050565b600060e0820190506150b4600083018a614f91565b6150c16020830189614f91565b6150ce6040830188615090565b6150db6060830187615090565b6150e86080830186614f91565b6150f560a0830185614f91565b61510260c0830184615090565b98975050505050505050565b60008060408385031215615125576151246144d6565b5b600061513385828601615028565b925050602061514485828601614f4f565b9150509250929050565b60006040820190506151636000830185614fa0565b6151706020830184614f91565b9392505050565b60006020828403121561518d5761518c6144d6565b5b600061519b84828501615028565b91505092915050565b600082825260208201905092915050565b7f416363657373436f6e74726f6c3a2063616e206f6e6c792072656e6f756e636560008201527f20726f6c657320666f722073656c660000000000000000000000000000000000602082015250565b6000615211602f836151a4565b915061521c826151b5565b604082019050919050565b6000602082019050818103600083015261524081615204565b9050919050565b7f4e487b7100000000000000000000000000000000000000000000000000000000600052601260045260246000fd5b60006152818261459b565b915061528c8361459b565b92508261529c5761529b615247565b5b828204905092915050565b60006152b28261459b565b91506152bd8361459b565b9250817fffffffffffffffffffffffffffffffffffffffffffffffffffffffffffffffff04831182151516156152f6576152f5614ded565b5b828202905092915050565b600061530c82614a88565b91507f800000000000000000000000000000000000000000000000000000000000000082141561533f5761533e614ded565b5b816000039050919050565b6000602082840312156153605761535f6144d6565b5b600061536e84828501614ebb565b91505092915050565b8082525050565b60006040820190506153936000830185615377565b6153a06020830184615090565b9392505050565b60006153b28261459b565b91506153bd8361459b565b9250828210156153d0576153cf614ded565b5b828203905092915050565b60006060820190506153f06000830186615090565b6153fd6020830185615090565b61540a6040830184615090565b949350505050565b600061541d82614a88565b915061542883614a88565b9250817f7fffffffffffffffffffffffffffffffffffffffffffffffffffffffffffffff0383136000831215161561546357615462614ded565b5b817f800000000000000000000000000000000000000000000000000000000000000003831260008312161561549b5761549a614ded565b5b828201905092915050565b600080fd5b600080fd5b6000601f19601f8301169050919050565b7f4e487b7100000000000000000000000000000000000000000000000000000000600052604160045260246000fd5b6154f9826154b0565b810181811067ffffffffffffffff82111715615518576155176154c1565b5b80604052505050565b600061552b6144cc565b905061553782826154f0565b919050565b600067ffffffffffffffff821115615557576155566154c1565b5b615560826154b0565b9050602081019050919050565b60005b8381101561558b578082015181840152602081019050615570565b8381111561559a576000848401525b50505050565b60006155b36155ae8461553c565b615521565b9050828152602081018484840111156155cf576155ce6154ab565b5b6155da84828561556d565b509392505050565b600082601f8301126155f7576155f66154a6565b5b81516156078482602086016155a0565b91505092915050565b600060208284031215615626576156256144d6565b5b600082015167ffffffffffffffff811115615644576156436144db565b5b615650848285016155e2565b91505092915050565b600081519050919050565b600081905092915050565b600061567a82615659565b6156848185615664565b935061569481856020860161556d565b80840191505092915050565b60006156ac828461566f565b915081905092915050565b7f4e65676174697665206571756974792e00000000000000000000000000000000600082015250565b60006156ed6010836151a4565b91506156f8826156b7565b602082019050919050565b6000602082019050818103600083015261571c816156e0565b9050919050565b6000819050919050565b6000819050919050565b600061575261574d61574884615723565b61572d565b61459b565b9050919050565b61576281615737565b82525050565b600060208201905061577d6000830184615759565b92915050565b60006040820190506157986000830185615090565b6157a56020830184614f91565b9392505050565b60006060820190506157c16000830186614f91565b6157ce6020830185614f91565b6157db6040830184614f91565b949350505050565b6000806000606084860312156157fc576157fb6144d6565b5b600061580a86828701614ebb565b935050602061581b86828701614ebb565b925050604061582c86828701614ebb565b9150509250925092565b60008151905061584581614919565b92915050565b600060208284031215615861576158606144d6565b5b600061586f84828501615836565b91505092915050565b600060408201905061588d6000830185614f91565b61589a6020830184614f91565b9392505050565b60006158ac82614a88565b91506158b783614a88565b9250827f8000000000000000000000000000000000000000000000000000000000000000018212600084121516156158f2576158f1614ded565b5b827f7fffffffffffffffffffffffffffffffffffffffffffffffffffffffffffffff01821360008412161561592a57615929614ded565b5b828203905092915050565b600060608201905061594a6000830186614fa0565b6159576020830185615090565b6159646040830184615090565b949350505050565b7f416363657373436f6e74726f6c3a206163636f756e7420000000000000000000600082015250565b60006159a2601783615664565b91506159ad8261596c565b601782019050919050565b7f206973206d697373696e6720726f6c6520000000000000000000000000000000600082015250565b60006159ee601183615664565b91506159f9826159b8565b601182019050919050565b6000615a0f82615995565b9150615a1b828561566f565b9150615a26826159e1565b9150615a32828461566f565b91508190509392505050565b6000615a4982615659565b615a5381856151a4565b9350615a6381856020860161556d565b615a6c816154b0565b840191505092915050565b60006020820190508181036000830152615a918184615a3e565b905092915050565b7f4e487b7100000000000000000000000000000000000000000000000000000000600052603260045260246000fd5b6000615ad38261459b565b91506000821415615ae757615ae6614ded565b5b600182039050919050565b7f537472696e67733a20686578206c656e67746820696e73756666696369656e74600082015250565b6000615b286020836151a4565b9150615b3382615af2565b602082019050919050565b60006020820190508181036000830152615b5781615b1b565b9050919050565b7f4e487b7100000000000000000000000000000000000000000000000000000000600052603160045260246000fdfea26469706673582212200ea65b6ed01164424c2682bc4204ce2d71eb1ba9b4657615737bb13bae01df1764736f6c634300080a0033",
  "immutableReferences": {},
  "source": "/**\n * SPDX-License-Identifier: GPL-3.0-or-later\n * Moret\n * Copyright (C) 2021 Moret\n*/\n\npragma solidity 0.8.10;\nimport \"@openzeppelin/contracts/access/AccessControl.sol\";\nimport \"@openzeppelin/contracts/utils/structs/EnumerableSet.sol\";\nimport \"./MarketLibrary.sol\";\n\ncontract OptionVault is AccessControl{\n  using OptionLibrary for OptionLibrary.Option;\n  using EnumerableSet for EnumerableSet.UintSet;\n  // using EnumerableSet for EnumerableSet.AddressSet;\n\n  bytes32 public constant EXCHANGE_ROLE = keccak256(\"EXCHANGE_ROLE\");\n  mapping(uint256=> OptionLibrary.Option) internal optionsList;\n  uint256 public optionCounter = 0;\n  mapping(address=> EnumerableSet.UintSet) internal activeOptionsPerOwner;\n  EnumerableSet.UintSet internal activeOptions;\n  IVolatilityChain internal volatilityChain;\n\n  address public volChainAddress;\n  address public aaveAddress;\n  address public underlying;\n  address public funding;\n\n  uint256 public overCollateral = 10 ** 17;\n\n  constructor( address _volChainAddress, address _underlying, address _funding, address _aaveAddress){\n    _setupRole(DEFAULT_ADMIN_ROLE, msg.sender);\n    _setupRole(EXCHANGE_ROLE, msg.sender);\n    volChainAddress = _volChainAddress;\n    volatilityChain = IVolatilityChain(_volChainAddress); \n    funding = _funding;\n    underlying = _underlying;\n    aaveAddress = _aaveAddress;}\n  \n  function descriptionHash() external view returns (bytes32)  { return keccak256(abi.encodePacked(volatilityChain.getDecription()));}\n\n  function addOption(uint256 _tenor, uint256 _strike, uint256 _amount, OptionLibrary.PayoffType _poType, OptionLibrary.OptionSide _side, uint256 _premium, uint256 _cost, uint256 _price, uint256 _volatility, address _holder) external onlyRole(EXCHANGE_ROLE) returns(uint256 _id) {\n    optionCounter++;\n    _id = optionCounter;\n    optionsList[_id] = OptionLibrary.Option(_poType, _side, OptionLibrary.OptionStatus.Draft, _holder, _id, block.timestamp,  0, _tenor, 0,  0, _amount, _price, _strike, _volatility, _premium, _cost);}\n\n  function getOptionHolder(uint256 _id) external view returns(address) { return optionsList[_id].holder;}\n  function getHoldersOptionCount(address _address) external view returns(uint256){return activeOptionsPerOwner[_address].length();}\n  function getHoldersOption(uint256 _index, address _address) external view returns(OptionLibrary.Option memory) {return optionsList[activeOptionsPerOwner[_address].at(_index)];}\n  function getOption(uint256 _id) external view returns(OptionLibrary.Option memory) {return optionsList[_id];}\n\n  function getAggregateNotional() external view returns(uint256 _notional) {\n    _notional= 0;\n    for(uint256 i=0;i<activeOptions.length();i++){\n      _notional += optionsList[uint256(activeOptions.at(i))].amount;} }\n\n  function getGrossCapital(address _address) external view returns(uint256 _capital){\n    (uint256 _price, ) = volatilityChain.queryPrice();\n    (uint256 _underlying_balance, uint256 _funding_balance, uint256 _collateral_balance, uint256 _debt_balance) = getBalances(_address);\n    _capital = _funding_balance + _collateral_balance + MulDiv(_underlying_balance, _price, OptionLibrary.Multiplier());\n    require(_capital > MulDiv(_debt_balance, _price, OptionLibrary.Multiplier()), \"Negative equity.\");\n    _capital -= MulDiv(_debt_balance, _price, OptionLibrary.Multiplier());}\n\n  function getMaxHedge() external view returns (uint256){\n    (uint256 _price,) = volatilityChain.queryPrice();\n    int256 _deltaZero = calculateAggregateDelta(_price / 1e5, true);\n    int256 _deltaMax = calculateAggregateDelta(_price * 1e5, true);\n    return MulDiv(Math.max(_deltaZero>=0?uint256(_deltaZero):uint256(-_deltaZero), _deltaMax>=0?uint256(_deltaMax):uint256(-_deltaMax) ), _price, OptionLibrary.Multiplier());}\n\n  function getSellPutCollateral() external view returns (uint256 _collateral){\n    _collateral= 0;\n    for(uint256 i=0;i<activeOptions.length();i++){\n      uint256 _id = uint256(activeOptions.at(i));\n      if(optionsList[_id].status== OptionLibrary.OptionStatus.Active && optionsList[_id].side == OptionLibrary.OptionSide.Sell && optionsList[_id].poType==OptionLibrary.PayoffType.Put){\n      _collateral +=  optionsList[_id].calcNotionalExposure(optionsList[_id].strike);}}}\n\n  function getContractPayoff(uint256 _id) external view returns(uint256 _payoff, uint256 _payback){\n    (uint256 _price,) = volatilityChain.queryPrice();\n    _payoff = optionsList[_id].calcPayoff(_price);\n    _payback = _payoff;\n    if(optionsList[_id].side == OptionLibrary.OptionSide.Sell && optionsList[_id].poType==OptionLibrary.PayoffType.Call){\n      _payback =  optionsList[_id].calcNotionalExposure(_price) - _payoff;}\n    if(optionsList[_id].side == OptionLibrary.OptionSide.Sell && optionsList[_id].poType==OptionLibrary.PayoffType.Put){\n      _payback =  optionsList[_id].calcNotionalExposure(optionsList[_id].strike) - _payoff;}}\n\n  function calculateContractDelta(uint256 _id, uint256 _price, bool _includeExpiring) public view returns(int256 _delta){\n    _delta = 0;\n    if(optionsList[_id].status== OptionLibrary.OptionStatus.Active && (_includeExpiring || (optionsList[_id].maturity > block.timestamp))){\n      if(optionsList[_id].side==OptionLibrary.OptionSide.Buy){\n        uint256 _vol = volatilityChain.getVol(optionsList[_id].maturity - Math.min(optionsList[_id].maturity, block.timestamp));\n        _delta = int256(MulDiv(OptionLibrary.calcDelta(_price, optionsList[_id].strike, _vol), optionsList[_id].amount, OptionLibrary.Multiplier() ));\n        if(optionsList[_id].poType==OptionLibrary.PayoffType.Put) {_delta = -int256(optionsList[_id].amount) + _delta; }}\n      if(optionsList[_id].side==OptionLibrary.OptionSide.Sell && optionsList[_id].poType==OptionLibrary.PayoffType.Call){ \n        _delta = int256(optionsList[_id].amount);}}} // collateral for sell call options. zero for sell put options\n    \n  function calculateAggregateDelta(uint256 _price, bool _includeExpiring) public view returns(int256 _delta){\n    _delta= 0;\n    for(uint256 i=0;i<activeOptions.length();i++){\n      _delta += calculateContractDelta(uint256(activeOptions.at(i)),_price, _includeExpiring);}}\n\n  function calculateContractGamma(uint256 _id, uint256 _price) public view returns(int256 _gamma){\n    _gamma = 0;\n    if(optionsList[_id].status== OptionLibrary.OptionStatus.Active  && (optionsList[_id].maturity > block.timestamp)){\n      uint256 _vol = volatilityChain.getVol(optionsList[_id].maturity - block.timestamp);\n      _gamma = int256(MulDiv(OptionLibrary.calcGamma(_price, optionsList[_id].strike, _vol), optionsList[_id].amount, OptionLibrary.Multiplier() ));\n      if(optionsList[_id].side==OptionLibrary.OptionSide.Sell){ _gamma = -_gamma;}}}\n      \n  function calculateAggregateGamma() external view returns(int256 _gamma){\n    (uint256 _price,) = volatilityChain.queryPrice();\n    _gamma= 0;\n    for(uint256 i=0;i<activeOptions.length();i++){\n      _gamma += calculateContractGamma(uint256(activeOptions.at(i)),_price);}}\n\n  function calculateSpotGamma() external view returns(int256 _gamma){\n    uint256 _vol = volatilityChain.getVol(86400);\n    _gamma = int256(OptionLibrary.calcGamma(OptionLibrary.Multiplier(), OptionLibrary.Multiplier(), _vol));}\n    \n  // function validateOption(uint256 _id, address _holder) external view {\n  //   require(optionsList[_id].holder== _holder, \"Not the owner.\");\n  //   require(optionsList[_id].maturity >= block.timestamp, \"Option has expired.\");\n  //   require(optionsList[_id].status==OptionLibrary.OptionStatus.Active, \"Not active option.\");}\n\n  function anyOptionExpiring() external view returns(bool _isExpiring) {\n    _isExpiring = false;\n    for(uint256 i=0;i<activeOptions.length();i++){\n      if(isExpiring(uint256(activeOptions.at(i)))){\n        _isExpiring = true;\n        break;}}}\n\n  function isExpiring(uint256 _id) public view returns (bool){ return (optionsList[_id].status== OptionLibrary.OptionStatus.Active) && (optionsList[_id].maturity <= block.timestamp);}\n\n  function getExpiringOptionId() external view returns(uint256 _id){\n    _id = 0;\n    for(uint256 i=0;i<activeOptions.length();i++){\n      if(isExpiring(uint256(activeOptions.at(i)))){\n        _id = uint256(activeOptions.at(i));\n        break;}}\n  }\n\n  function stampActiveOption(uint256 _id, address _holder) external onlyRole(EXCHANGE_ROLE) {\n    optionsList[_id].effectiveTime = block.timestamp;\n    optionsList[_id].maturity = optionsList[_id].effectiveTime + optionsList[_id].tenor;\n    optionsList[_id].status = OptionLibrary.OptionStatus.Active;\n    activeOptionsPerOwner[_holder].add(_id);\n    activeOptions.add(_id);}\n\n  function stampExercisedOption(uint256 _id) external onlyRole(EXCHANGE_ROLE){\n    activeOptionsPerOwner[optionsList[_id].holder].remove(_id);\n    activeOptions.remove(_id);\n    optionsList[_id].status = OptionLibrary.OptionStatus.Exercised;\n    optionsList[_id].exerciseTime = block.timestamp;}\n\n  function stampExpiredOption(uint256 _id)  external onlyRole(EXCHANGE_ROLE){\n    activeOptionsPerOwner[optionsList[_id].holder].remove(_id);\n    activeOptions.remove(_id);\n    optionsList[_id].status = OptionLibrary.OptionStatus.Expired;\n    optionsList[_id].exerciseTime = block.timestamp;}\n\n  // this function emits values in token decimals.\n  function calcSwapTradesInTok(address _address, uint256 _swapSlippage) external view returns(int256 _tradeUnderlyingAmount, int256 _tradeFundingAmount){\n    (uint256 _price,) = volatilityChain.queryPrice();\n    int256 _aggregateDelta = calculateAggregateDelta(_price, false);\n    _tradeUnderlyingAmount = (_aggregateDelta >= 0? _aggregateDelta: int256(0)) - int256(MarketLibrary.balanceDef(underlying, _address));\n    _tradeFundingAmount = MarketLibrary.cvtDecimalsInt(OptionLibrary.getOpposeTrade(_tradeUnderlyingAmount, _price, _swapSlippage), funding);\n    _tradeUnderlyingAmount = MarketLibrary.cvtDecimalsInt(_tradeUnderlyingAmount, underlying);}\n  \n  // this function emits values in DEFAULT decimals.\n  function getBalances(address _address) public view returns(uint256 _underlyingBalance, uint256 _fundingBalance, uint256 _collateralBalance, uint256 _debtBalance){\n    address _protocolAds = ILendingPoolAddressesProvider(aaveAddress).getAddress(\"0x1\");//bytes32(uint256(1)));\n    ( _underlyingBalance, ,  _debtBalance) = MarketLibrary.getTokenBalances(_address, _protocolAds, underlying);\n    ( _fundingBalance,  _collateralBalance,) = MarketLibrary.getTokenBalances(_address, _protocolAds, funding); }\n\n  // this function emits values in token decimals.\n  function calcLoanRepaymentInTok(address _address, uint256 _lendingPoolRateMode) external view returns(uint256 _repayAmount, uint256 _repaySwapValue){\n    (uint256 _price,) = volatilityChain.queryPrice();\n    int256 _aggregateDelta = calculateAggregateDelta(_price, false);\n    (int256 _loanTradeAmount, , ) = MarketLibrary.getLoanTrade(_address, ILendingPoolAddressesProvider(aaveAddress).getAddress(\"0x1\"), _aggregateDelta, underlying, _lendingPoolRateMode == 2);\n    _repayAmount = 0;\n    _repaySwapValue = 0;\n    if(_loanTradeAmount < 0){\n      _repayAmount = uint256(-_loanTradeAmount) - Math.min(uint256(-_loanTradeAmount), ERC20(underlying).balanceOf(address(this)));\n      _repaySwapValue = MarketLibrary.cvtDecimals(MulDiv(_repayAmount, _price, OptionLibrary.Multiplier()), funding);\n      _repayAmount = MarketLibrary.cvtDecimals(_repayAmount, underlying);}}\n\n  // this function emits values in token decimals.\n  function calcLoanTradesInTok(address _address, uint256 _lendingPoolRateMode) external view returns(int256 _loanTradeAmount, int256 _collateralChange, address _loanAddress, address _collateralAddress){\n    (uint256 _price,) = volatilityChain.queryPrice();\n    int256 _aggregateDelta = calculateAggregateDelta(_price, false);\n    address _protocolAds = ILendingPoolAddressesProvider(aaveAddress).getAddress(\"0x1\");\n    uint256 _targetLoan = 0;\n    (_loanTradeAmount, _targetLoan, _loanAddress) = MarketLibrary.getLoanTrade(_address, _protocolAds, _aggregateDelta, underlying, _lendingPoolRateMode == 2);\n    (_collateralChange, _collateralAddress) = MarketLibrary.getCollateralTrade(_address, _protocolAds, _targetLoan, _price, funding, underlying, overCollateral);\n    _loanTradeAmount = MarketLibrary.cvtDecimalsInt(_loanTradeAmount, _loanAddress);\n    _collateralChange =MarketLibrary.cvtDecimalsInt(_collateralChange, _collateralAddress);}\n\n  function queryVol(uint256 _tenor) external view returns(uint256){return volatilityChain.getVol(_tenor);}\n  function queryPrice() external view returns(uint256, uint256){return volatilityChain.queryPrice();}\n  function tokenHash() external view returns (bytes32) {return volatilityChain.getTokenHash();}\n  function resetOverCollateral(uint256 _overCollateral) external onlyRole(DEFAULT_ADMIN_ROLE) { overCollateral= _overCollateral;}\n}\n",
  "sourcePath": "/Users/apple/Documents/GitHub/moret/contracts/OptionVault.sol",
  "compiler": {
    "name": "solc",
    "version": "0.8.10+commit.fc410830.Emscripten.clang"
  },
  "schemaVersion": "3.4.3",
  "updatedAt": "2021-12-09T00:28:56.475Z",
  "networkType": "ethereum",
  "devdoc": {
    "kind": "dev",
    "methods": {
      "getRoleAdmin(bytes32)": {
        "details": "Returns the admin role that controls `role`. See {grantRole} and {revokeRole}. To change a role's admin, use {_setRoleAdmin}."
      },
      "grantRole(bytes32,address)": {
        "details": "Grants `role` to `account`. If `account` had not been already granted `role`, emits a {RoleGranted} event. Requirements: - the caller must have ``role``'s admin role."
      },
      "hasRole(bytes32,address)": {
        "details": "Returns `true` if `account` has been granted `role`."
      },
      "renounceRole(bytes32,address)": {
        "details": "Revokes `role` from the calling account. Roles are often managed via {grantRole} and {revokeRole}: this function's purpose is to provide a mechanism for accounts to lose their privileges if they are compromised (such as when a trusted device is misplaced). If the calling account had been revoked `role`, emits a {RoleRevoked} event. Requirements: - the caller must be `account`."
      },
      "revokeRole(bytes32,address)": {
        "details": "Revokes `role` from `account`. If `account` had been granted `role`, emits a {RoleRevoked} event. Requirements: - the caller must have ``role``'s admin role."
      },
      "supportsInterface(bytes4)": {
        "details": "See {IERC165-supportsInterface}."
      }
    },
    "version": 1
  },
  "userdoc": {
    "kind": "user",
    "methods": {},
    "version": 1
  }
}