{
  "contractName": "OptionVault",
  "abi": [
    {
      "inputs": [
        {
          "internalType": "address",
          "name": "_volChainAddress",
          "type": "address"
        },
        {
          "internalType": "address",
          "name": "_underlying",
          "type": "address"
        },
        {
          "internalType": "address",
          "name": "_funding",
          "type": "address"
        },
        {
          "internalType": "address",
          "name": "_aaveAddress",
          "type": "address"
        }
      ],
      "stateMutability": "nonpayable",
      "type": "constructor"
    },
    {
      "anonymous": false,
      "inputs": [
        {
          "indexed": true,
          "internalType": "bytes32",
          "name": "role",
          "type": "bytes32"
        },
        {
          "indexed": true,
          "internalType": "bytes32",
          "name": "previousAdminRole",
          "type": "bytes32"
        },
        {
          "indexed": true,
          "internalType": "bytes32",
          "name": "newAdminRole",
          "type": "bytes32"
        }
      ],
      "name": "RoleAdminChanged",
      "type": "event"
    },
    {
      "anonymous": false,
      "inputs": [
        {
          "indexed": true,
          "internalType": "bytes32",
          "name": "role",
          "type": "bytes32"
        },
        {
          "indexed": true,
          "internalType": "address",
          "name": "account",
          "type": "address"
        },
        {
          "indexed": true,
          "internalType": "address",
          "name": "sender",
          "type": "address"
        }
      ],
      "name": "RoleGranted",
      "type": "event"
    },
    {
      "anonymous": false,
      "inputs": [
        {
          "indexed": true,
          "internalType": "bytes32",
          "name": "role",
          "type": "bytes32"
        },
        {
          "indexed": true,
          "internalType": "address",
          "name": "account",
          "type": "address"
        },
        {
          "indexed": true,
          "internalType": "address",
          "name": "sender",
          "type": "address"
        }
      ],
      "name": "RoleRevoked",
      "type": "event"
    },
    {
      "inputs": [],
      "name": "DEFAULT_ADMIN_ROLE",
      "outputs": [
        {
          "internalType": "bytes32",
          "name": "",
          "type": "bytes32"
        }
      ],
      "stateMutability": "view",
      "type": "function"
    },
    {
      "inputs": [],
      "name": "EXCHANGE_ROLE",
      "outputs": [
        {
          "internalType": "bytes32",
          "name": "",
          "type": "bytes32"
        }
      ],
      "stateMutability": "view",
      "type": "function"
    },
    {
      "inputs": [],
      "name": "aaveAddress",
      "outputs": [
        {
          "internalType": "address",
          "name": "",
          "type": "address"
        }
      ],
      "stateMutability": "view",
      "type": "function"
    },
    {
      "inputs": [],
      "name": "funding",
      "outputs": [
        {
          "internalType": "address",
          "name": "",
          "type": "address"
        }
      ],
      "stateMutability": "view",
      "type": "function"
    },
    {
      "inputs": [
        {
          "internalType": "bytes32",
          "name": "role",
          "type": "bytes32"
        }
      ],
      "name": "getRoleAdmin",
      "outputs": [
        {
          "internalType": "bytes32",
          "name": "",
          "type": "bytes32"
        }
      ],
      "stateMutability": "view",
      "type": "function"
    },
    {
      "inputs": [
        {
          "internalType": "bytes32",
          "name": "role",
          "type": "bytes32"
        },
        {
          "internalType": "address",
          "name": "account",
          "type": "address"
        }
      ],
      "name": "grantRole",
      "outputs": [],
      "stateMutability": "nonpayable",
      "type": "function"
    },
    {
      "inputs": [
        {
          "internalType": "bytes32",
          "name": "role",
          "type": "bytes32"
        },
        {
          "internalType": "address",
          "name": "account",
          "type": "address"
        }
      ],
      "name": "hasRole",
      "outputs": [
        {
          "internalType": "bool",
          "name": "",
          "type": "bool"
        }
      ],
      "stateMutability": "view",
      "type": "function"
    },
    {
      "inputs": [],
      "name": "optionCounter",
      "outputs": [
        {
          "internalType": "uint256",
          "name": "",
          "type": "uint256"
        }
      ],
      "stateMutability": "view",
      "type": "function"
    },
    {
      "inputs": [
        {
          "internalType": "bytes32",
          "name": "role",
          "type": "bytes32"
        },
        {
          "internalType": "address",
          "name": "account",
          "type": "address"
        }
      ],
      "name": "renounceRole",
      "outputs": [],
      "stateMutability": "nonpayable",
      "type": "function"
    },
    {
      "inputs": [
        {
          "internalType": "bytes32",
          "name": "role",
          "type": "bytes32"
        },
        {
          "internalType": "address",
          "name": "account",
          "type": "address"
        }
      ],
      "name": "revokeRole",
      "outputs": [],
      "stateMutability": "nonpayable",
      "type": "function"
    },
    {
      "inputs": [
        {
          "internalType": "bytes4",
          "name": "interfaceId",
          "type": "bytes4"
        }
      ],
      "name": "supportsInterface",
      "outputs": [
        {
          "internalType": "bool",
          "name": "",
          "type": "bool"
        }
      ],
      "stateMutability": "view",
      "type": "function"
    },
    {
      "inputs": [],
      "name": "underlying",
      "outputs": [
        {
          "internalType": "address",
          "name": "",
          "type": "address"
        }
      ],
      "stateMutability": "view",
      "type": "function"
    },
    {
      "inputs": [],
      "name": "descriptionHash",
      "outputs": [
        {
          "internalType": "bytes32",
          "name": "",
          "type": "bytes32"
        }
      ],
      "stateMutability": "view",
      "type": "function"
    },
    {
      "inputs": [
        {
          "internalType": "uint256",
          "name": "_strike",
          "type": "uint256"
        },
        {
          "internalType": "uint256",
          "name": "_amount",
          "type": "uint256"
        },
        {
          "internalType": "uint256",
          "name": "_vol",
          "type": "uint256"
        },
        {
          "internalType": "enum OptionLibrary.PayoffType",
          "name": "_poType",
          "type": "uint8"
        },
        {
          "internalType": "enum OptionLibrary.OptionSide",
          "name": "_side",
          "type": "uint8"
        }
      ],
      "name": "queryOptionCost",
      "outputs": [
        {
          "internalType": "uint256",
          "name": "_premium",
          "type": "uint256"
        },
        {
          "internalType": "uint256",
          "name": "_cost",
          "type": "uint256"
        },
        {
          "internalType": "uint256",
          "name": "_price",
          "type": "uint256"
        }
      ],
      "stateMutability": "view",
      "type": "function"
    },
    {
      "inputs": [
        {
          "internalType": "uint256",
          "name": "_tenor",
          "type": "uint256"
        },
        {
          "internalType": "uint256",
          "name": "_strike",
          "type": "uint256"
        },
        {
          "internalType": "uint256",
          "name": "_amount",
          "type": "uint256"
        },
        {
          "internalType": "enum OptionLibrary.PayoffType",
          "name": "_poType",
          "type": "uint8"
        },
        {
          "internalType": "enum OptionLibrary.OptionSide",
          "name": "_side",
          "type": "uint8"
        },
        {
          "internalType": "uint256",
          "name": "_premium",
          "type": "uint256"
        },
        {
          "internalType": "uint256",
          "name": "_cost",
          "type": "uint256"
        },
        {
          "internalType": "uint256",
          "name": "_price",
          "type": "uint256"
        },
        {
          "internalType": "uint256",
          "name": "_volatility",
          "type": "uint256"
        },
        {
          "internalType": "address",
          "name": "_holder",
          "type": "address"
        }
      ],
      "name": "addOption",
      "outputs": [
        {
          "internalType": "uint256",
          "name": "_id",
          "type": "uint256"
        }
      ],
      "stateMutability": "nonpayable",
      "type": "function"
    },
    {
      "inputs": [
        {
          "internalType": "uint256",
          "name": "_id",
          "type": "uint256"
        }
      ],
      "name": "getOptionHolder",
      "outputs": [
        {
          "internalType": "address",
          "name": "",
          "type": "address"
        }
      ],
      "stateMutability": "view",
      "type": "function"
    },
    {
      "inputs": [
        {
          "internalType": "address",
          "name": "_address",
          "type": "address"
        }
      ],
      "name": "getHoldersOptionCount",
      "outputs": [
        {
          "internalType": "uint256",
          "name": "",
          "type": "uint256"
        }
      ],
      "stateMutability": "view",
      "type": "function"
    },
    {
      "inputs": [
        {
          "internalType": "uint256",
          "name": "_index",
          "type": "uint256"
        },
        {
          "internalType": "address",
          "name": "_address",
          "type": "address"
        }
      ],
      "name": "getHoldersOption",
      "outputs": [
        {
          "components": [
            {
              "internalType": "enum OptionLibrary.PayoffType",
              "name": "poType",
              "type": "uint8"
            },
            {
              "internalType": "enum OptionLibrary.OptionSide",
              "name": "side",
              "type": "uint8"
            },
            {
              "internalType": "enum OptionLibrary.OptionStatus",
              "name": "status",
              "type": "uint8"
            },
            {
              "internalType": "address",
              "name": "holder",
              "type": "address"
            },
            {
              "internalType": "uint256",
              "name": "id",
              "type": "uint256"
            },
            {
              "internalType": "uint256",
              "name": "createTime",
              "type": "uint256"
            },
            {
              "internalType": "uint256",
              "name": "effectiveTime",
              "type": "uint256"
            },
            {
              "internalType": "uint256",
              "name": "tenor",
              "type": "uint256"
            },
            {
              "internalType": "uint256",
              "name": "maturity",
              "type": "uint256"
            },
            {
              "internalType": "uint256",
              "name": "exerciseTime",
              "type": "uint256"
            },
            {
              "internalType": "uint256",
              "name": "amount",
              "type": "uint256"
            },
            {
              "internalType": "uint256",
              "name": "spot",
              "type": "uint256"
            },
            {
              "internalType": "uint256",
              "name": "strike",
              "type": "uint256"
            },
            {
              "internalType": "uint256",
              "name": "volatility",
              "type": "uint256"
            },
            {
              "internalType": "uint256",
              "name": "premium",
              "type": "uint256"
            },
            {
              "internalType": "uint256",
              "name": "cost",
              "type": "uint256"
            }
          ],
          "internalType": "struct OptionLibrary.Option",
          "name": "",
          "type": "tuple"
        }
      ],
      "stateMutability": "view",
      "type": "function"
    },
    {
      "inputs": [
        {
          "internalType": "uint256",
          "name": "_id",
          "type": "uint256"
        }
      ],
      "name": "getOption",
      "outputs": [
        {
          "components": [
            {
              "internalType": "enum OptionLibrary.PayoffType",
              "name": "poType",
              "type": "uint8"
            },
            {
              "internalType": "enum OptionLibrary.OptionSide",
              "name": "side",
              "type": "uint8"
            },
            {
              "internalType": "enum OptionLibrary.OptionStatus",
              "name": "status",
              "type": "uint8"
            },
            {
              "internalType": "address",
              "name": "holder",
              "type": "address"
            },
            {
              "internalType": "uint256",
              "name": "id",
              "type": "uint256"
            },
            {
              "internalType": "uint256",
              "name": "createTime",
              "type": "uint256"
            },
            {
              "internalType": "uint256",
              "name": "effectiveTime",
              "type": "uint256"
            },
            {
              "internalType": "uint256",
              "name": "tenor",
              "type": "uint256"
            },
            {
              "internalType": "uint256",
              "name": "maturity",
              "type": "uint256"
            },
            {
              "internalType": "uint256",
              "name": "exerciseTime",
              "type": "uint256"
            },
            {
              "internalType": "uint256",
              "name": "amount",
              "type": "uint256"
            },
            {
              "internalType": "uint256",
              "name": "spot",
              "type": "uint256"
            },
            {
              "internalType": "uint256",
              "name": "strike",
              "type": "uint256"
            },
            {
              "internalType": "uint256",
              "name": "volatility",
              "type": "uint256"
            },
            {
              "internalType": "uint256",
              "name": "premium",
              "type": "uint256"
            },
            {
              "internalType": "uint256",
              "name": "cost",
              "type": "uint256"
            }
          ],
          "internalType": "struct OptionLibrary.Option",
          "name": "",
          "type": "tuple"
        }
      ],
      "stateMutability": "view",
      "type": "function"
    },
    {
      "inputs": [
        {
          "internalType": "uint256",
          "name": "_id",
          "type": "uint256"
        }
      ],
      "name": "queryOptionPremium",
      "outputs": [
        {
          "internalType": "uint256",
          "name": "",
          "type": "uint256"
        }
      ],
      "stateMutability": "view",
      "type": "function"
    },
    {
      "inputs": [
        {
          "internalType": "uint256",
          "name": "_id",
          "type": "uint256"
        },
        {
          "internalType": "bool",
          "name": "_ignoreSells",
          "type": "bool"
        }
      ],
      "name": "queryOptionNotional",
      "outputs": [
        {
          "internalType": "uint256",
          "name": "_notional",
          "type": "uint256"
        }
      ],
      "stateMutability": "view",
      "type": "function"
    },
    {
      "inputs": [
        {
          "internalType": "bool",
          "name": "_ignoreSells",
          "type": "bool"
        }
      ],
      "name": "getAggregateNotional",
      "outputs": [
        {
          "internalType": "uint256",
          "name": "_notional",
          "type": "uint256"
        }
      ],
      "stateMutability": "view",
      "type": "function"
    },
    {
      "inputs": [
        {
          "internalType": "uint256",
          "name": "_id",
          "type": "uint256"
        }
      ],
      "name": "getContractPayoff",
      "outputs": [
        {
          "internalType": "uint256",
          "name": "_payoff",
          "type": "uint256"
        },
        {
          "internalType": "uint256",
          "name": "_payback",
          "type": "uint256"
        }
      ],
      "stateMutability": "view",
      "type": "function"
    },
    {
      "inputs": [
        {
          "internalType": "uint256",
          "name": "_id",
          "type": "uint256"
        },
        {
          "internalType": "uint256",
          "name": "_price",
          "type": "uint256"
        },
        {
          "internalType": "bool",
          "name": "_ignoreSells",
          "type": "bool"
        }
      ],
      "name": "calculateContractDelta",
      "outputs": [
        {
          "internalType": "int256",
          "name": "_delta",
          "type": "int256"
        }
      ],
      "stateMutability": "view",
      "type": "function"
    },
    {
      "inputs": [
        {
          "internalType": "bool",
          "name": "_ignoreSells",
          "type": "bool"
        }
      ],
      "name": "calculateAggregateDelta",
      "outputs": [
        {
          "internalType": "int256",
          "name": "_delta",
          "type": "int256"
        },
        {
          "internalType": "uint256",
          "name": "_price",
          "type": "uint256"
        }
      ],
      "stateMutability": "view",
      "type": "function"
    },
    {
      "inputs": [
        {
          "internalType": "uint256",
          "name": "_id",
          "type": "uint256"
        },
        {
          "internalType": "uint256",
          "name": "_price",
          "type": "uint256"
        },
        {
          "internalType": "bool",
          "name": "_ignoreSells",
          "type": "bool"
        }
      ],
      "name": "calculateContractGamma",
      "outputs": [
        {
          "internalType": "int256",
          "name": "_gamma",
          "type": "int256"
        }
      ],
      "stateMutability": "view",
      "type": "function"
    },
    {
      "inputs": [
        {
          "internalType": "bool",
          "name": "_ignoreSells",
          "type": "bool"
        }
      ],
      "name": "calculateAggregateGamma",
      "outputs": [
        {
          "internalType": "int256",
          "name": "_gamma",
          "type": "int256"
        }
      ],
      "stateMutability": "view",
      "type": "function"
    },
    {
      "inputs": [],
      "name": "calculateSpotGamma",
      "outputs": [
        {
          "internalType": "int256",
          "name": "_gamma",
          "type": "int256"
        }
      ],
      "stateMutability": "view",
      "type": "function"
    },
    {
      "inputs": [],
      "name": "anyOptionExpiring",
      "outputs": [
        {
          "internalType": "bool",
          "name": "_isExpiring",
          "type": "bool"
        }
      ],
      "stateMutability": "view",
      "type": "function"
    },
    {
      "inputs": [
        {
          "internalType": "uint256",
          "name": "_id",
          "type": "uint256"
        }
      ],
      "name": "isExpiring",
      "outputs": [
        {
          "internalType": "bool",
          "name": "",
          "type": "bool"
        }
      ],
      "stateMutability": "view",
      "type": "function"
    },
    {
      "inputs": [],
      "name": "getExpiringOptionId",
      "outputs": [
        {
          "internalType": "uint256",
          "name": "_id",
          "type": "uint256"
        }
      ],
      "stateMutability": "view",
      "type": "function"
    },
    {
      "inputs": [
        {
          "internalType": "uint256",
          "name": "_id",
          "type": "uint256"
        },
        {
          "internalType": "address",
          "name": "_holder",
          "type": "address"
        }
      ],
      "name": "stampActiveOption",
      "outputs": [],
      "stateMutability": "nonpayable",
      "type": "function"
    },
    {
      "inputs": [
        {
          "internalType": "uint256",
          "name": "_id",
          "type": "uint256"
        }
      ],
      "name": "stampExpiredOption",
      "outputs": [],
      "stateMutability": "nonpayable",
      "type": "function"
    },
    {
      "inputs": [
        {
          "internalType": "uint256",
          "name": "_swapSlippage",
          "type": "uint256"
        }
      ],
      "name": "calcHedgeTradesForSwaps",
      "outputs": [
        {
          "internalType": "int256",
          "name": "_tradeUnderlyingAmount",
          "type": "int256"
        },
        {
          "internalType": "int256",
          "name": "_tradeFundingAmount",
          "type": "int256"
        }
      ],
      "stateMutability": "view",
      "type": "function"
    },
    {
      "inputs": [
        {
          "internalType": "address",
          "name": "_address",
          "type": "address"
        }
      ],
      "name": "getBalances",
      "outputs": [
        {
          "internalType": "uint256",
          "name": "_underlyingBalance",
          "type": "uint256"
        },
        {
          "internalType": "uint256",
          "name": "_fundingBalance",
          "type": "uint256"
        },
        {
          "internalType": "uint256",
          "name": "_collateralBalance",
          "type": "uint256"
        },
        {
          "internalType": "uint256",
          "name": "_debtBalance",
          "type": "uint256"
        }
      ],
      "stateMutability": "view",
      "type": "function"
    },
    {
      "inputs": [
        {
          "internalType": "address",
          "name": "_address",
          "type": "address"
        },
        {
          "internalType": "uint256",
          "name": "_lendingPoolRateMode",
          "type": "uint256"
        }
      ],
      "name": "calcLoanRepayment",
      "outputs": [
        {
          "internalType": "uint256",
          "name": "_repayAmount",
          "type": "uint256"
        },
        {
          "internalType": "uint256",
          "name": "_repaySwapValue",
          "type": "uint256"
        }
      ],
      "stateMutability": "view",
      "type": "function"
    },
    {
      "inputs": [
        {
          "internalType": "uint256",
          "name": "_tenor",
          "type": "uint256"
        }
      ],
      "name": "queryVol",
      "outputs": [
        {
          "internalType": "uint256",
          "name": "",
          "type": "uint256"
        }
      ],
      "stateMutability": "view",
      "type": "function"
    },
    {
      "inputs": [],
      "name": "queryPrice",
      "outputs": [
        {
          "internalType": "uint256",
          "name": "",
          "type": "uint256"
        },
        {
          "internalType": "uint256",
          "name": "",
          "type": "uint256"
        }
      ],
      "stateMutability": "view",
      "type": "function"
    }
  ],
  "bytecode": "0x608060405260006002553480156200001657600080fd5b50604051620055353803806200553583398181016040528101906200003c919062000374565b620000516000801b336200019160201b60201c565b620000837f28d62fc77014de57a1bbaa8212ff0979fa61ab00d377b4b8d9762048fb419961336200019160201b60201c565b83600660006101000a81548173ffffffffffffffffffffffffffffffffffffffff021916908373ffffffffffffffffffffffffffffffffffffffff16021790555081600960006101000a81548173ffffffffffffffffffffffffffffffffffffffff021916908373ffffffffffffffffffffffffffffffffffffffff16021790555082600860006101000a81548173ffffffffffffffffffffffffffffffffffffffff021916908373ffffffffffffffffffffffffffffffffffffffff16021790555080600760006101000a81548173ffffffffffffffffffffffffffffffffffffffff021916908373ffffffffffffffffffffffffffffffffffffffff16021790555050505050620003e6565b620001a38282620001a760201b60201c565b5050565b620001b982826200029860201b60201c565b6200029457600160008084815260200190815260200160002060000160008373ffffffffffffffffffffffffffffffffffffffff1673ffffffffffffffffffffffffffffffffffffffff16815260200190815260200160002060006101000a81548160ff021916908315150217905550620002396200030260201b60201c565b73ffffffffffffffffffffffffffffffffffffffff168173ffffffffffffffffffffffffffffffffffffffff16837f2f8788117e7eff1d82e926ec794901d17c78024a50270940304540a733656f0d60405160405180910390a45b5050565b600080600084815260200190815260200160002060000160008373ffffffffffffffffffffffffffffffffffffffff1673ffffffffffffffffffffffffffffffffffffffff16815260200190815260200160002060009054906101000a900460ff16905092915050565b600033905090565b600080fd5b600073ffffffffffffffffffffffffffffffffffffffff82169050919050565b60006200033c826200030f565b9050919050565b6200034e816200032f565b81146200035a57600080fd5b50565b6000815190506200036e8162000343565b92915050565b600080600080608085870312156200039157620003906200030a565b5b6000620003a1878288016200035d565b9450506020620003b4878288016200035d565b9350506040620003c7878288016200035d565b9250506060620003da878288016200035d565b91505092959194509250565b61513f80620003f66000396000f3fe608060405234801561001057600080fd5b50600436106102325760003560e01c806385dcee9311610130578063b1cbbfb7116100b8578063cfc2dc201161007c578063cfc2dc201461076c578063d547741f1461079c578063df3189c2146107b8578063ea3d612d146107e9578063f8a351811461081957610232565b8063b1cbbfb71461068b578063b5310ff9146106bb578063c7da7505146106eb578063c84aae171461071b578063cb4c86b71461074e57610232565b806391d14854116100ff57806391d14854146105d05780639bc67cd214610600578063a217fddf1461061e578063a42b66261461063c578063b0667cf81461066c57610232565b806385dcee93146105345780638a0687d2146105525780638cbb0cd01461058257806390618ed9146105b257610232565b806336568abe116101be578063637baf6011610182578063637baf60146104795780636f307dc3146104955780637652e7c4146104b357806376df2d08146104d157806385ae10e61461050357610232565b806336568abe146103ae57806337f0882f146103ca5780633b734501146103fb5780633b7745ab1461041957806346047a661461044957610232565b80631ce5e9a6116102055780631ce5e9a6146102f8578063248a9ca31461032857806324b4110e14610358578063251e1e8a146103745780632f2ff15d1461039257610232565b806301ffc9a714610237578063105df85614610267578063122ebb3c146102975780631a7985ba146102c8575b600080fd5b610251600480360381019061024c9190613b20565b610837565b60405161025e9190613b68565b60405180910390f35b610281600480360381019061027c9190613be5565b6108b1565b60405161028e9190613c34565b60405180910390f35b6102b160048036038101906102ac9190613cad565b61092f565b6040516102bf929190613ced565b60405180910390f35b6102e260048036038101906102dd9190613d16565b610d73565b6040516102ef9190613d52565b60405180910390f35b610312600480360381019061030d9190613d16565b610db3565b60405161031f9190613fdc565b60405180910390f35b610342600480360381019061033d919061402e565b610f60565b60405161034f919061406a565b60405180910390f35b610372600480360381019061036d9190614085565b610f7f565b005b61037c6110c8565b6040516103899190613d52565b60405180910390f35b6103ac60048036038101906103a791906140c5565b6110ee565b005b6103c860048036038101906103c391906140c5565b611117565b005b6103e460048036038101906103df9190614105565b61119a565b6040516103f292919061414b565b60405180910390f35b61040361129d565b604051610410919061406a565b60405180910390f35b610433600480360381019061042e9190614105565b6112c1565b6040516104409190613c34565b60405180910390f35b610463600480360381019061045e9190613d16565b611319565b6040516104709190613c34565b60405180910390f35b610493600480360381019061048e9190613d16565b611339565b005b61049d611466565b6040516104aa9190613d52565b60405180910390f35b6104bb61148c565b6040516104c89190613c34565b60405180910390f35b6104eb60048036038101906104e691906141be565b6114f4565b6040516104fa93929190614239565b60405180910390f35b61051d60048036038101906105189190613d16565b61170f565b60405161052b929190613ced565b60405180910390f35b61053c6119a1565b604051610549919061406a565b60405180910390f35b61056c60048036038101906105679190614085565b611a73565b6040516105799190613fdc565b60405180910390f35b61059c60048036038101906105979190614270565b611c71565b6040516105a991906142c3565b60405180910390f35b6105ba61204f565b6040516105c79190613b68565b60405180910390f35b6105ea60048036038101906105e591906140c5565b6120a5565b6040516105f79190613b68565b60405180910390f35b61060861210f565b60405161061591906142c3565b60405180910390f35b610626612349565b604051610633919061406a565b60405180910390f35b610656600480360381019061065191906142de565b612350565b6040516106639190613c34565b60405180910390f35b6106746123a0565b604051610682929190613ced565b60405180910390f35b6106a560048036038101906106a09190614270565b61244a565b6040516106b291906142c3565b60405180910390f35b6106d560048036038101906106d0919061430b565b61278c565b6040516106e29190613c34565b60405180910390f35b61070560048036038101906107009190613d16565b612a13565b6040516107129190613b68565b60405180910390f35b610735600480360381019061073091906142de565b612a89565b60405161074594939291906143ea565b60405180910390f35b610756612cb1565b6040516107639190613d52565b60405180910390f35b61078660048036038101906107819190613d16565b612cd7565b6040516107939190613c34565b60405180910390f35b6107b660048036038101906107b191906140c5565b612d8b565b005b6107d260048036038101906107cd9190613d16565b612db4565b6040516107e092919061442f565b60405180910390f35b61080360048036038101906107fe9190614105565b61307c565b60405161081091906142c3565b60405180910390f35b61082161317e565b60405161082e9190613c34565b60405180910390f35b60007f7965db0b000000000000000000000000000000000000000000000000000000007bffffffffffffffffffffffffffffffffffffffffffffffffffffffff1916827bffffffffffffffffffffffffffffffffffffffffffffffffffffffff191614806108aa57506108a982613184565b5b9050919050565b6000600160008481526020019081526020016000206007015490506001808111156108df576108de613d6d565b5b6001600085815260200190815260200160002060000160019054906101000a900460ff16600181111561091557610914613d6d565b5b14801561091f5750815b1561092957600090505b92915050565b60008060008061093f600061119a565b91509150600073__MarketLibrary_________________________63b076288a88600760009054906101000a900473ffffffffffffffffffffffffffffffffffffffff1673ffffffffffffffffffffffffffffffffffffffff166321f8a7216040518163ffffffff1660e01b81526004016109b99061447e565b60206040518083038186803b1580156109d157600080fd5b505afa1580156109e5573d6000803e3d6000fd5b505050506040513d601f19601f82011682018060405250810190610a0991906144ac565b86600860009054906101000a900473ffffffffffffffffffffffffffffffffffffffff1660028c146040518663ffffffff1660e01b8152600401610a51959493929190614506565b60606040518083038186803b158015610a6957600080fd5b505af4158015610a7d573d6000803e3d6000fd5b505050506040513d601f19601f82011682018060405250810190610aa1919061459a565b5050905060009450600093506000811215610d6957610b7381610ac39061461c565b600860009054906101000a900473ffffffffffffffffffffffffffffffffffffffff1673ffffffffffffffffffffffffffffffffffffffff166370a08231306040518263ffffffff1660e01b8152600401610b1e9190613d52565b60206040518083038186803b158015610b3657600080fd5b505afa158015610b4a573d6000803e3d6000fd5b505050506040513d601f19601f82011682018060405250810190610b6e9190614665565b6131ee565b81610b7d9061461c565b610b879190614692565b945073__MarketLibrary_________________________638170ce80610c29878573__OptionLibrary_________________________63fd9b87636040518163ffffffff1660e01b815260040160206040518083038186803b158015610bec57600080fd5b505af4158015610c00573d6000803e3d6000fd5b505050506040513d601f19601f82011682018060405250810190610c249190614665565b613207565b600960009054906101000a900473ffffffffffffffffffffffffffffffffffffffff166040518363ffffffff1660e01b8152600401610c699291906146d5565b60206040518083038186803b158015610c8157600080fd5b505af4158015610c95573d6000803e3d6000fd5b505050506040513d601f19601f82011682018060405250810190610cb99190614665565b935073__MarketLibrary_________________________638170ce8086600860009054906101000a900473ffffffffffffffffffffffffffffffffffffffff166040518363ffffffff1660e01b8152600401610d169291906146d5565b60206040518083038186803b158015610d2e57600080fd5b505af4158015610d42573d6000803e3d6000fd5b505050506040513d601f19601f82011682018060405250810190610d669190614665565b94505b5050509250929050565b60006001600083815260200190815260200160002060000160039054906101000a900473ffffffffffffffffffffffffffffffffffffffff169050919050565b610dbb6139eb565b60016000838152602001908152602001600020604051806102000160405290816000820160009054906101000a900460ff166001811115610dff57610dfe613d6d565b5b6001811115610e1157610e10613d6d565b5b81526020016000820160019054906101000a900460ff166001811115610e3a57610e39613d6d565b5b6001811115610e4c57610e4b613d6d565b5b81526020016000820160029054906101000a900460ff166003811115610e7557610e74613d6d565b5b6003811115610e8757610e86613d6d565b5b81526020016000820160039054906101000a900473ffffffffffffffffffffffffffffffffffffffff1673ffffffffffffffffffffffffffffffffffffffff1673ffffffffffffffffffffffffffffffffffffffff168152602001600182015481526020016002820154815260200160038201548152602001600482015481526020016005820154815260200160068201548152602001600782015481526020016008820154815260200160098201548152602001600a8201548152602001600b8201548152602001600c820154815250509050919050565b6000806000838152602001908152602001600020600101549050919050565b7f28d62fc77014de57a1bbaa8212ff0979fa61ab00d377b4b8d9762048fb419961610fb181610fac613303565b61330b565b4260016000858152602001908152602001600020600301819055506001600084815260200190815260200160002060040154600160008581526020019081526020016000206003015461100491906146fe565b6001600085815260200190815260200160002060050181905550600180600085815260200190815260200160002060000160026101000a81548160ff0219169083600381111561105757611056613d6d565b5b02179055506110ad83600360008573ffffffffffffffffffffffffffffffffffffffff1673ffffffffffffffffffffffffffffffffffffffff1681526020019081526020016000206133a890919063ffffffff16565b506110c28360046133a890919063ffffffff16565b50505050565b600760009054906101000a900473ffffffffffffffffffffffffffffffffffffffff1681565b6110f782610f60565b61110881611103613303565b61330b565b61111283836133c2565b505050565b61111f613303565b73ffffffffffffffffffffffffffffffffffffffff168173ffffffffffffffffffffffffffffffffffffffff161461118c576040517f08c379a0000000000000000000000000000000000000000000000000000000008152600401611183906147d7565b60405180910390fd5b61119682826134a2565b5050565b600080600660009054906101000a900473ffffffffffffffffffffffffffffffffffffffff1673ffffffffffffffffffffffffffffffffffffffff1663b0667cf86040518163ffffffff1660e01b8152600401604080518083038186803b15801561120457600080fd5b505afa158015611218573d6000803e3d6000fd5b505050506040513d601f19601f8201168201806040525081019061123c91906147f7565b50809150506000915060005b6112526004613583565b8110156112975761127761127082600461359890919063ffffffff16565b8386611c71565b836112829190614837565b9250808061128f906148cb565b915050611248565b50915091565b7f28d62fc77014de57a1bbaa8212ff0979fa61ab00d377b4b8d9762048fb41996181565b6000805b6112cf6004613583565b811015611313576112f36112ed82600461359890919063ffffffff16565b846108b1565b826112fe91906146fe565b9150808061130b906148cb565b9150506112c5565b50919050565b600060016000838152602001908152602001600020600b01549050919050565b7f28d62fc77014de57a1bbaa8212ff0979fa61ab00d377b4b8d9762048fb41996161136b81611366613303565b61330b565b42600160008481526020019081526020016000206006018190555060036001600084815260200190815260200160002060000160026101000a81548160ff021916908360038111156113c0576113bf613d6d565b5b021790555061144c82600360006001600087815260200190815260200160002060000160039054906101000a900473ffffffffffffffffffffffffffffffffffffffff1673ffffffffffffffffffffffffffffffffffffffff1673ffffffffffffffffffffffffffffffffffffffff1681526020019081526020016000206135b290919063ffffffff16565b506114618260046135b290919063ffffffff16565b505050565b600860009054906101000a900473ffffffffffffffffffffffffffffffffffffffff1681565b6000805b61149a6004613583565b8110156114f0576114bd6114b882600461359890919063ffffffff16565b612a13565b156114dd576114d681600461359890919063ffffffff16565b91506114f0565b80806114e8906148cb565b915050611490565b5090565b6000806000600660009054906101000a900473ffffffffffffffffffffffffffffffffffffffff1673ffffffffffffffffffffffffffffffffffffffff1663b0667cf86040518163ffffffff1660e01b8152600401604080518083038186803b15801561156057600080fd5b505afa158015611574573d6000803e3d6000fd5b505050506040513d601f19601f8201168201806040525081019061159891906147f7565b508091505073__OptionLibrary_________________________6324f6434582888b898c6040518663ffffffff1660e01b81526004016115dc959493929190614923565b60206040518083038186803b1580156115f457600080fd5b505af4158015611608573d6000803e3d6000fd5b505050506040513d601f19601f8201168201806040525081019061162c9190614665565b925082915060018081111561164457611643613d6d565b5b84600181111561165757611656613d6d565b5b14156117045760006116e5888373__OptionLibrary_________________________63fd9b87636040518163ffffffff1660e01b815260040160206040518083038186803b1580156116a857600080fd5b505af41580156116bc573d6000803e3d6000fd5b505050506040513d601f19601f820116820180604052508101906116e09190614665565b613207565b9050838110156116f457600080fd5b83816117009190614692565b9250505b955095509592505050565b6000806000600660009054906101000a900473ffffffffffffffffffffffffffffffffffffffff1673ffffffffffffffffffffffffffffffffffffffff1663b0667cf86040518163ffffffff1660e01b8152600401604080518083038186803b15801561177b57600080fd5b505afa15801561178f573d6000803e3d6000fd5b505050506040513d601f19601f820116820180604052508101906117b391906147f7565b5090506001600085815260200190815260200160002073__OptionLibrary_________________________63a69d3ae09091836040518363ffffffff1660e01b815260040161180392919061497d565b60206040518083038186803b15801561181b57600080fd5b505af415801561182f573d6000803e3d6000fd5b505050506040513d601f19601f820116820180604052508101906118539190614665565b925082915060018081111561186b5761186a613d6d565b5b6001600086815260200190815260200160002060000160019054906101000a900460ff1660018111156118a1576118a0613d6d565b5b141561199b5760006001600086815260200190815260200160002073__OptionLibrary_________________________630862958b9091846040518363ffffffff1660e01b81526004016118f692919061497d565b60206040518083038186803b15801561190e57600080fd5b505af4158015611922573d6000803e3d6000fd5b505050506040513d601f19601f820116820180604052508101906119469190614665565b90508381101561198b576040517f08c379a0000000000000000000000000000000000000000000000000000000008152600401611982906149f2565b60405180910390fd5b83816119979190614692565b9250505b50915091565b6000600660009054906101000a900473ffffffffffffffffffffffffffffffffffffffff1673ffffffffffffffffffffffffffffffffffffffff166398de78976040518163ffffffff1660e01b815260040160006040518083038186803b158015611a0b57600080fd5b505afa158015611a1f573d6000803e3d6000fd5b505050506040513d6000823e3d601f19601f82011682018060405250810190611a489190614b7c565b604051602001611a589190614c0c565b60405160208183030381529060405280519060200120905090565b611a7b6139eb565b60016000611ad085600360008773ffffffffffffffffffffffffffffffffffffffff1673ffffffffffffffffffffffffffffffffffffffff16815260200190815260200160002061359890919063ffffffff16565b8152602001908152602001600020604051806102000160405290816000820160009054906101000a900460ff166001811115611b0f57611b0e613d6d565b5b6001811115611b2157611b20613d6d565b5b81526020016000820160019054906101000a900460ff166001811115611b4a57611b49613d6d565b5b6001811115611b5c57611b5b613d6d565b5b81526020016000820160029054906101000a900460ff166003811115611b8557611b84613d6d565b5b6003811115611b9757611b96613d6d565b5b81526020016000820160039054906101000a900473ffffffffffffffffffffffffffffffffffffffff1673ffffffffffffffffffffffffffffffffffffffff1673ffffffffffffffffffffffffffffffffffffffff168152602001600182015481526020016002820154815260200160038201548152602001600482015481526020016005820154815260200160068201548152602001600782015481526020016008820154815260200160098201548152602001600a8201548152602001600b8201548152602001600c82015481525050905092915050565b600060016003811115611c8757611c86613d6d565b5b6001600086815260200190815260200160002060000160029054906101000a900460ff166003811115611cbd57611cbc613d6d565b5b148015611cdf5750426001600086815260200190815260200160002060050154115b8015611d3b5750818015611d395750600180811115611d0157611d00613d6d565b5b6001600086815260200190815260200160002060000160019054906101000a900460ff166001811115611d3757611d36613d6d565b5b145b155b15612048576000600660009054906101000a900473ffffffffffffffffffffffffffffffffffffffff1673ffffffffffffffffffffffffffffffffffffffff1663040b030f611da06001600089815260200190815260200160002060050154426131ee565b6001600089815260200190815260200160002060050154611dc19190614692565b6040518263ffffffff1660e01b8152600401611ddd9190613c34565b60206040518083038186803b158015611df557600080fd5b505afa158015611e09573d6000803e3d6000fd5b505050506040513d601f19601f82011682018060405250810190611e2d9190614665565b9050611f6b73__OptionLibrary_________________________6323a00f6586600160008a815260200190815260200160002060090154856040518463ffffffff1660e01b8152600401611e8393929190614c23565b60206040518083038186803b158015611e9b57600080fd5b505af4158015611eaf573d6000803e3d6000fd5b505050506040513d601f19601f82011682018060405250810190611ed39190614665565b600160008881526020019081526020016000206007015473__OptionLibrary_________________________63fd9b87636040518163ffffffff1660e01b815260040160206040518083038186803b158015611f2e57600080fd5b505af4158015611f42573d6000803e3d6000fd5b505050506040513d601f19601f82011682018060405250810190611f669190614665565b613207565b9150600180811115611f8057611f7f613d6d565b5b6001600087815260200190815260200160002060000160009054906101000a900460ff166001811115611fb657611fb5613d6d565b5b1415611fea57816001600087815260200190815260200160002060070154611fdd9061461c565b611fe79190614837565b91505b600180811115611ffd57611ffc613d6d565b5b6001600087815260200190815260200160002060000160019054906101000a900460ff16600181111561203357612032613d6d565b5b141561204657816120439061461c565b91505b505b9392505050565b6000805b61205d6004613583565b8110156120a15761208061207b82600461359890919063ffffffff16565b612a13565b1561208e57600191506120a1565b8080612099906148cb565b915050612053565b5090565b600080600084815260200190815260200160002060000160008373ffffffffffffffffffffffffffffffffffffffff1673ffffffffffffffffffffffffffffffffffffffff16815260200190815260200160002060009054906101000a900460ff16905092915050565b600080600660009054906101000a900473ffffffffffffffffffffffffffffffffffffffff1673ffffffffffffffffffffffffffffffffffffffff1663040b030f620151806040518263ffffffff1660e01b81526004016121709190614c9f565b60206040518083038186803b15801561218857600080fd5b505afa15801561219c573d6000803e3d6000fd5b505050506040513d601f19601f820116820180604052508101906121c09190614665565b905073__OptionLibrary_________________________639932b2be73__OptionLibrary_________________________63fd9b87636040518163ffffffff1660e01b815260040160206040518083038186803b15801561222057600080fd5b505af4158015612234573d6000803e3d6000fd5b505050506040513d601f19601f820116820180604052508101906122589190614665565b73__OptionLibrary_________________________63fd9b87636040518163ffffffff1660e01b815260040160206040518083038186803b15801561229c57600080fd5b505af41580156122b0573d6000803e3d6000fd5b505050506040513d601f19601f820116820180604052508101906122d49190614665565b846040518463ffffffff1660e01b81526004016122f393929190614c23565b60206040518083038186803b15801561230b57600080fd5b505af415801561231f573d6000803e3d6000fd5b505050506040513d601f19601f820116820180604052508101906123439190614665565b91505090565b6000801b81565b6000612399600360008473ffffffffffffffffffffffffffffffffffffffff1673ffffffffffffffffffffffffffffffffffffffff168152602001908152602001600020613583565b9050919050565b600080600660009054906101000a900473ffffffffffffffffffffffffffffffffffffffff1673ffffffffffffffffffffffffffffffffffffffff1663b0667cf86040518163ffffffff1660e01b8152600401604080518083038186803b15801561240a57600080fd5b505afa15801561241e573d6000803e3d6000fd5b505050506040513d601f19601f8201168201806040525081019061244291906147f7565b915091509091565b6000600160038111156124605761245f613d6d565b5b6001600086815260200190815260200160002060000160029054906101000a900460ff16600381111561249657612495613d6d565b5b1480156124b85750426001600086815260200190815260200160002060050154115b8015612514575081801561251257506001808111156124da576124d9613d6d565b5b6001600086815260200190815260200160002060000160019054906101000a900460ff1660018111156125105761250f613d6d565b5b145b155b15612785576000600660009054906101000a900473ffffffffffffffffffffffffffffffffffffffff1673ffffffffffffffffffffffffffffffffffffffff1663040b030f42600160008981526020019081526020016000206005015461257b9190614692565b6040518263ffffffff1660e01b81526004016125979190613c34565b60206040518083038186803b1580156125af57600080fd5b505afa1580156125c3573d6000803e3d6000fd5b505050506040513d601f19601f820116820180604052508101906125e79190614665565b905061272573__OptionLibrary_________________________639932b2be86600160008a815260200190815260200160002060090154856040518463ffffffff1660e01b815260040161263d93929190614c23565b60206040518083038186803b15801561265557600080fd5b505af4158015612669573d6000803e3d6000fd5b505050506040513d601f19601f8201168201806040525081019061268d9190614665565b600160008881526020019081526020016000206007015473__OptionLibrary_________________________63fd9b87636040518163ffffffff1660e01b815260040160206040518083038186803b1580156126e857600080fd5b505af41580156126fc573d6000803e3d6000fd5b505050506040513d601f19601f820116820180604052508101906127209190614665565b613207565b915060018081111561273a57612739613d6d565b5b6001600087815260200190815260200160002060000160019054906101000a900460ff1660018111156127705761276f613d6d565b5b141561278357816127809061461c565b91505b505b9392505050565b60007f28d62fc77014de57a1bbaa8212ff0979fa61ab00d377b4b8d9762048fb4199616127c0816127bb613303565b61330b565b600260008154809291906127d3906148cb565b919050555060025491506040518061020001604052808a60018111156127fc576127fb613d6d565b5b815260200189600181111561281457612813613d6d565b5b81526020016000600381111561282d5761282c613d6d565b5b81526020018473ffffffffffffffffffffffffffffffffffffffff168152602001838152602001428152602001600081526020018d815260200160008152602001600081526020018b81526020018681526020018c8152602001858152602001888152602001878152506001600084815260200190815260200160002060008201518160000160006101000a81548160ff021916908360018111156128d5576128d4613d6d565b5b021790555060208201518160000160016101000a81548160ff0219169083600181111561290557612904613d6d565b5b021790555060408201518160000160026101000a81548160ff0219169083600381111561293557612934613d6d565b5b021790555060608201518160000160036101000a81548173ffffffffffffffffffffffffffffffffffffffff021916908373ffffffffffffffffffffffffffffffffffffffff1602179055506080820151816001015560a0820151816002015560c0820151816003015560e08201518160040155610100820151816005015561012082015181600601556101408201518160070155610160820151816008015561018082015181600901556101a082015181600a01556101c082015181600b01556101e082015181600c0155905050509a9950505050505050505050565b600060016003811115612a2957612a28613d6d565b5b6001600084815260200190815260200160002060000160029054906101000a900460ff166003811115612a5f57612a5e613d6d565b5b148015612a82575042600160008481526020019081526020016000206005015411155b9050919050565b6000806000806000600760009054906101000a900473ffffffffffffffffffffffffffffffffffffffff1673ffffffffffffffffffffffffffffffffffffffff166321f8a7216040518163ffffffff1660e01b8152600401612aea9061447e565b60206040518083038186803b158015612b0257600080fd5b505afa158015612b16573d6000803e3d6000fd5b505050506040513d601f19601f82011682018060405250810190612b3a91906144ac565b905073__MarketLibrary_________________________6332c21e138783600860009054906101000a900473ffffffffffffffffffffffffffffffffffffffff166040518463ffffffff1660e01b8152600401612b9993929190614cba565b60606040518083038186803b158015612bb157600080fd5b505af4158015612bc5573d6000803e3d6000fd5b505050506040513d601f19601f82011682018060405250810190612be99190614cf1565b9050809350819650505073__MarketLibrary_________________________6332c21e138783600960009054906101000a900473ffffffffffffffffffffffffffffffffffffffff166040518463ffffffff1660e01b8152600401612c5093929190614cba565b60606040518083038186803b158015612c6857600080fd5b505af4158015612c7c573d6000803e3d6000fd5b505050506040513d601f19601f82011682018060405250810190612ca09190614cf1565b508094508195505050509193509193565b600960009054906101000a900473ffffffffffffffffffffffffffffffffffffffff1681565b6000600660009054906101000a900473ffffffffffffffffffffffffffffffffffffffff1673ffffffffffffffffffffffffffffffffffffffff1663040b030f836040518263ffffffff1660e01b8152600401612d349190613c34565b60206040518083038186803b158015612d4c57600080fd5b505afa158015612d60573d6000803e3d6000fd5b505050506040513d601f19601f82011682018060405250810190612d849190614665565b9050919050565b612d9482610f60565b612da581612da0613303565b61330b565b612daf83836134a2565b505050565b600080600080612dc4600061119a565b9150915073__MarketLibrary_________________________63eea2526b600860009054906101000a900473ffffffffffffffffffffffffffffffffffffffff16306040518363ffffffff1660e01b8152600401612e23929190614d44565b60206040518083038186803b158015612e3b57600080fd5b505af4158015612e4f573d6000803e3d6000fd5b505050506040513d601f19601f82011682018060405250810190612e739190614665565b6000831215612e83576000612e85565b825b612e8f9190614d6d565b935073__MarketLibrary_________________________63aa5c12c773__OptionLibrary_________________________63ca0cc13d87858a6040518463ffffffff1660e01b8152600401612ee693929190614e01565b60206040518083038186803b158015612efe57600080fd5b505af4158015612f12573d6000803e3d6000fd5b505050506040513d601f19601f82011682018060405250810190612f369190614e38565b600960009054906101000a900473ffffffffffffffffffffffffffffffffffffffff166040518363ffffffff1660e01b8152600401612f76929190614e65565b60206040518083038186803b158015612f8e57600080fd5b505af4158015612fa2573d6000803e3d6000fd5b505050506040513d601f19601f82011682018060405250810190612fc69190614e38565b925073__MarketLibrary_________________________63aa5c12c785600860009054906101000a900473ffffffffffffffffffffffffffffffffffffffff166040518363ffffffff1660e01b8152600401613023929190614e65565b60206040518083038186803b15801561303b57600080fd5b505af415801561304f573d6000803e3d6000fd5b505050506040513d601f19601f820116820180604052508101906130739190614e38565b93505050915091565b600080600660009054906101000a900473ffffffffffffffffffffffffffffffffffffffff1673ffffffffffffffffffffffffffffffffffffffff1663b0667cf86040518163ffffffff1660e01b8152600401604080518083038186803b1580156130e657600080fd5b505afa1580156130fa573d6000803e3d6000fd5b505050506040513d601f19601f8201168201806040525081019061311e91906147f7565b5090506000915060005b6131326004613583565b8110156131775761315761315082600461359890919063ffffffff16565b838661244a565b836131629190614837565b9250808061316f906148cb565b915050613128565b5050919050565b60025481565b60007f01ffc9a7000000000000000000000000000000000000000000000000000000007bffffffffffffffffffffffffffffffffffffffffffffffffffffffff1916827bffffffffffffffffffffffffffffffffffffffffffffffffffffffff1916149050919050565b60008183106131fd57816131ff565b825b905092915050565b600080600080198587098587029250828110838203039150506000811415613242576000841161323657600080fd5b838204925050506132fc565b80841161324e57600080fd5b60008486880990508281118203915080830392506000856001877fffffffffffffffffffffffffffffffffffffffffffffffffffffffffffffffff0301169050808604955080840493506001818260000304019050808302841793506000600287600302189050808702600203810290508087026002038102905080870260020381029050808702600203810290508087026002038102905080870260020381029050808502955050505050505b9392505050565b600033905090565b61331582826120a5565b6133a45761333a8173ffffffffffffffffffffffffffffffffffffffff1660146135cc565b6133488360001c60206135cc565b604051602001613359929190614f26565b6040516020818303038152906040526040517f08c379a000000000000000000000000000000000000000000000000000000000815260040161339b9190614f99565b60405180910390fd5b5050565b60006133ba836000018360001b613808565b905092915050565b6133cc82826120a5565b61349e57600160008084815260200190815260200160002060000160008373ffffffffffffffffffffffffffffffffffffffff1673ffffffffffffffffffffffffffffffffffffffff16815260200190815260200160002060006101000a81548160ff021916908315150217905550613443613303565b73ffffffffffffffffffffffffffffffffffffffff168173ffffffffffffffffffffffffffffffffffffffff16837f2f8788117e7eff1d82e926ec794901d17c78024a50270940304540a733656f0d60405160405180910390a45b5050565b6134ac82826120a5565b1561357f57600080600084815260200190815260200160002060000160008373ffffffffffffffffffffffffffffffffffffffff1673ffffffffffffffffffffffffffffffffffffffff16815260200190815260200160002060006101000a81548160ff021916908315150217905550613524613303565b73ffffffffffffffffffffffffffffffffffffffff168173ffffffffffffffffffffffffffffffffffffffff16837ff6391f5c32d9c69d2a47ea670b442974b53935d1edc7fd64eb21e047a839171b60405160405180910390a45b5050565b600061359182600001613878565b9050919050565b60006135a78360000183613889565b60001c905092915050565b60006135c4836000018360001b6138b4565b905092915050565b6060600060028360026135df9190614fbb565b6135e991906146fe565b67ffffffffffffffff81111561360257613601614a2d565b5b6040519080825280601f01601f1916602001820160405280156136345781602001600182028036833780820191505090505b5090507f30000000000000000000000000000000000000000000000000000000000000008160008151811061366c5761366b615015565b5b60200101907effffffffffffffffffffffffffffffffffffffffffffffffffffffffffffff1916908160001a9053507f7800000000000000000000000000000000000000000000000000000000000000816001815181106136d0576136cf615015565b5b60200101907effffffffffffffffffffffffffffffffffffffffffffffffffffffffffffff1916908160001a905350600060018460026137109190614fbb565b61371a91906146fe565b90505b60018111156137ba577f3031323334353637383961626364656600000000000000000000000000000000600f86166010811061375c5761375b615015565b5b1a60f81b82828151811061377357613772615015565b5b60200101907effffffffffffffffffffffffffffffffffffffffffffffffffffffffffffff1916908160001a905350600485901c9450806137b390615044565b905061371d565b50600084146137fe576040517f08c379a00000000000000000000000000000000000000000000000000000000081526004016137f5906150ba565b60405180910390fd5b8091505092915050565b600061381483836139c8565b61386d578260000182908060018154018082558091505060019003906000526020600020016000909190919091505582600001805490508360010160008481526020019081526020016000208190555060019050613872565b600090505b92915050565b600081600001805490509050919050565b60008260000182815481106138a1576138a0615015565b5b9060005260206000200154905092915050565b600080836001016000848152602001908152602001600020549050600081146139bc5760006001826138e69190614692565b90506000600186600001805490506138fe9190614692565b905081811461396d57600086600001828154811061391f5761391e615015565b5b906000526020600020015490508087600001848154811061394357613942615015565b5b90600052602060002001819055508387600101600083815260200190815260200160002081905550505b85600001805480613981576139806150da565b5b6001900381819060005260206000200160009055905585600101600086815260200190815260200160002060009055600193505050506139c2565b60009150505b92915050565b600080836001016000848152602001908152602001600020541415905092915050565b60405180610200016040528060006001811115613a0b57613a0a613d6d565b5b815260200160006001811115613a2457613a23613d6d565b5b815260200160006003811115613a3d57613a3c613d6d565b5b8152602001600073ffffffffffffffffffffffffffffffffffffffff1681526020016000815260200160008152602001600081526020016000815260200160008152602001600081526020016000815260200160008152602001600081526020016000815260200160008152602001600081525090565b6000604051905090565b600080fd5b600080fd5b60007fffffffff0000000000000000000000000000000000000000000000000000000082169050919050565b613afd81613ac8565b8114613b0857600080fd5b50565b600081359050613b1a81613af4565b92915050565b600060208284031215613b3657613b35613abe565b5b6000613b4484828501613b0b565b91505092915050565b60008115159050919050565b613b6281613b4d565b82525050565b6000602082019050613b7d6000830184613b59565b92915050565b6000819050919050565b613b9681613b83565b8114613ba157600080fd5b50565b600081359050613bb381613b8d565b92915050565b613bc281613b4d565b8114613bcd57600080fd5b50565b600081359050613bdf81613bb9565b92915050565b60008060408385031215613bfc57613bfb613abe565b5b6000613c0a85828601613ba4565b9250506020613c1b85828601613bd0565b9150509250929050565b613c2e81613b83565b82525050565b6000602082019050613c496000830184613c25565b92915050565b600073ffffffffffffffffffffffffffffffffffffffff82169050919050565b6000613c7a82613c4f565b9050919050565b613c8a81613c6f565b8114613c9557600080fd5b50565b600081359050613ca781613c81565b92915050565b60008060408385031215613cc457613cc3613abe565b5b6000613cd285828601613c98565b9250506020613ce385828601613ba4565b9150509250929050565b6000604082019050613d026000830185613c25565b613d0f6020830184613c25565b9392505050565b600060208284031215613d2c57613d2b613abe565b5b6000613d3a84828501613ba4565b91505092915050565b613d4c81613c6f565b82525050565b6000602082019050613d676000830184613d43565b92915050565b7f4e487b7100000000000000000000000000000000000000000000000000000000600052602160045260246000fd5b60028110613dad57613dac613d6d565b5b50565b6000819050613dbe82613d9c565b919050565b6000613dce82613db0565b9050919050565b613dde81613dc3565b82525050565b60028110613df557613df4613d6d565b5b50565b6000819050613e0682613de4565b919050565b6000613e1682613df8565b9050919050565b613e2681613e0b565b82525050565b60048110613e3d57613e3c613d6d565b5b50565b6000819050613e4e82613e2c565b919050565b6000613e5e82613e40565b9050919050565b613e6e81613e53565b82525050565b613e7d81613c6f565b82525050565b613e8c81613b83565b82525050565b61020082016000820151613ea96000850182613dd5565b506020820151613ebc6020850182613e1d565b506040820151613ecf6040850182613e65565b506060820151613ee26060850182613e74565b506080820151613ef56080850182613e83565b5060a0820151613f0860a0850182613e83565b5060c0820151613f1b60c0850182613e83565b5060e0820151613f2e60e0850182613e83565b50610100820151613f43610100850182613e83565b50610120820151613f58610120850182613e83565b50610140820151613f6d610140850182613e83565b50610160820151613f82610160850182613e83565b50610180820151613f97610180850182613e83565b506101a0820151613fac6101a0850182613e83565b506101c0820151613fc16101c0850182613e83565b506101e0820151613fd66101e0850182613e83565b50505050565b600061020082019050613ff26000830184613e92565b92915050565b6000819050919050565b61400b81613ff8565b811461401657600080fd5b50565b60008135905061402881614002565b92915050565b60006020828403121561404457614043613abe565b5b600061405284828501614019565b91505092915050565b61406481613ff8565b82525050565b600060208201905061407f600083018461405b565b92915050565b6000806040838503121561409c5761409b613abe565b5b60006140aa85828601613ba4565b92505060206140bb85828601613c98565b9150509250929050565b600080604083850312156140dc576140db613abe565b5b60006140ea85828601614019565b92505060206140fb85828601613c98565b9150509250929050565b60006020828403121561411b5761411a613abe565b5b600061412984828501613bd0565b91505092915050565b6000819050919050565b61414581614132565b82525050565b6000604082019050614160600083018561413c565b61416d6020830184613c25565b9392505050565b6002811061418157600080fd5b50565b60008135905061419381614174565b92915050565b600281106141a657600080fd5b50565b6000813590506141b881614199565b92915050565b600080600080600060a086880312156141da576141d9613abe565b5b60006141e888828901613ba4565b95505060206141f988828901613ba4565b945050604061420a88828901613ba4565b935050606061421b88828901614184565b925050608061422c888289016141a9565b9150509295509295909350565b600060608201905061424e6000830186613c25565b61425b6020830185613c25565b6142686040830184613c25565b949350505050565b60008060006060848603121561428957614288613abe565b5b600061429786828701613ba4565b93505060206142a886828701613ba4565b92505060406142b986828701613bd0565b9150509250925092565b60006020820190506142d8600083018461413c565b92915050565b6000602082840312156142f4576142f3613abe565b5b600061430284828501613c98565b91505092915050565b6000806000806000806000806000806101408b8d03121561432f5761432e613abe565b5b600061433d8d828e01613ba4565b9a5050602061434e8d828e01613ba4565b995050604061435f8d828e01613ba4565b98505060606143708d828e01614184565b97505060806143818d828e016141a9565b96505060a06143928d828e01613ba4565b95505060c06143a38d828e01613ba4565b94505060e06143b48d828e01613ba4565b9350506101006143c68d828e01613ba4565b9250506101206143d88d828e01613c98565b9150509295989b9194979a5092959850565b60006080820190506143ff6000830187613c25565b61440c6020830186613c25565b6144196040830185613c25565b6144266060830184613c25565b95945050505050565b6000604082019050614444600083018561413c565b614451602083018461413c565b9392505050565b7f3078310000000000000000000000000000000000000000000000000000000000815250565b600060208201905061449260008301614458565b919050565b6000815190506144a681613c81565b92915050565b6000602082840312156144c2576144c1613abe565b5b60006144d084828501614497565b91505092915050565b6144e281613c6f565b82525050565b6144f181614132565b82525050565b61450081613b4d565b82525050565b600060a08201905061451b60008301886144d9565b61452860208301876144d9565b61453560408301866144e8565b61454260608301856144d9565b61454f60808301846144f7565b9695505050505050565b61456281614132565b811461456d57600080fd5b50565b60008151905061457f81614559565b92915050565b60008151905061459481613b8d565b92915050565b6000806000606084860312156145b3576145b2613abe565b5b60006145c186828701614570565b93505060206145d286828701614585565b92505060406145e386828701614497565b9150509250925092565b7f4e487b7100000000000000000000000000000000000000000000000000000000600052601160045260246000fd5b600061462782614132565b91507f800000000000000000000000000000000000000000000000000000000000000082141561465a576146596145ed565b5b816000039050919050565b60006020828403121561467b5761467a613abe565b5b600061468984828501614585565b91505092915050565b600061469d82613b83565b91506146a883613b83565b9250828210156146bb576146ba6145ed565b5b828203905092915050565b6146cf81613b83565b82525050565b60006040820190506146ea60008301856146c6565b6146f760208301846144d9565b9392505050565b600061470982613b83565b915061471483613b83565b9250827fffffffffffffffffffffffffffffffffffffffffffffffffffffffffffffffff03821115614749576147486145ed565b5b828201905092915050565b600082825260208201905092915050565b7f416363657373436f6e74726f6c3a2063616e206f6e6c792072656e6f756e636560008201527f20726f6c657320666f722073656c660000000000000000000000000000000000602082015250565b60006147c1602f83614754565b91506147cc82614765565b604082019050919050565b600060208201905081810360008301526147f0816147b4565b9050919050565b6000806040838503121561480e5761480d613abe565b5b600061481c85828601614585565b925050602061482d85828601614585565b9150509250929050565b600061484282614132565b915061484d83614132565b9250817f7fffffffffffffffffffffffffffffffffffffffffffffffffffffffffffffff03831360008312151615614888576148876145ed565b5b817f80000000000000000000000000000000000000000000000000000000000000000383126000831216156148c0576148bf6145ed565b5b828201905092915050565b60006148d682613b83565b91507fffffffffffffffffffffffffffffffffffffffffffffffffffffffffffffffff821415614909576149086145ed565b5b600182019050919050565b61491d81613dc3565b82525050565b600060a08201905061493860008301886146c6565b61494560208301876146c6565b61495260408301866146c6565b61495f6060830185614914565b61496c60808301846146c6565b9695505050505050565b8082525050565b60006040820190506149926000830185614976565b61499f60208301846146c6565b9392505050565b7f5061796f666620696e636f72726563742e000000000000000000000000000000600082015250565b60006149dc601183614754565b91506149e7826149a6565b602082019050919050565b60006020820190508181036000830152614a0b816149cf565b9050919050565b600080fd5b600080fd5b6000601f19601f8301169050919050565b7f4e487b7100000000000000000000000000000000000000000000000000000000600052604160045260246000fd5b614a6582614a1c565b810181811067ffffffffffffffff82111715614a8457614a83614a2d565b5b80604052505050565b6000614a97613ab4565b9050614aa38282614a5c565b919050565b600067ffffffffffffffff821115614ac357614ac2614a2d565b5b614acc82614a1c565b9050602081019050919050565b60005b83811015614af7578082015181840152602081019050614adc565b83811115614b06576000848401525b50505050565b6000614b1f614b1a84614aa8565b614a8d565b905082815260208101848484011115614b3b57614b3a614a17565b5b614b46848285614ad9565b509392505050565b600082601f830112614b6357614b62614a12565b5b8151614b73848260208601614b0c565b91505092915050565b600060208284031215614b9257614b91613abe565b5b600082015167ffffffffffffffff811115614bb057614baf613ac3565b5b614bbc84828501614b4e565b91505092915050565b600081519050919050565b600081905092915050565b6000614be682614bc5565b614bf08185614bd0565b9350614c00818560208601614ad9565b80840191505092915050565b6000614c188284614bdb565b915081905092915050565b6000606082019050614c3860008301866146c6565b614c4560208301856146c6565b614c5260408301846146c6565b949350505050565b6000819050919050565b6000819050919050565b6000614c89614c84614c7f84614c5a565b614c64565b613b83565b9050919050565b614c9981614c6e565b82525050565b6000602082019050614cb46000830184614c90565b92915050565b6000606082019050614ccf60008301866144d9565b614cdc60208301856144d9565b614ce960408301846144d9565b949350505050565b600080600060608486031215614d0a57614d09613abe565b5b6000614d1886828701614585565b9350506020614d2986828701614585565b9250506040614d3a86828701614585565b9150509250925092565b6000604082019050614d5960008301856144d9565b614d6660208301846144d9565b9392505050565b6000614d7882614132565b9150614d8383614132565b9250827f800000000000000000000000000000000000000000000000000000000000000001821260008412151615614dbe57614dbd6145ed565b5b827f7fffffffffffffffffffffffffffffffffffffffffffffffffffffffffffffff018213600084121615614df657614df56145ed565b5b828203905092915050565b6000606082019050614e1660008301866144e8565b614e2360208301856146c6565b614e3060408301846146c6565b949350505050565b600060208284031215614e4e57614e4d613abe565b5b6000614e5c84828501614570565b91505092915050565b6000604082019050614e7a60008301856144e8565b614e8760208301846144d9565b9392505050565b7f416363657373436f6e74726f6c3a206163636f756e7420000000000000000000600082015250565b6000614ec4601783614bd0565b9150614ecf82614e8e565b601782019050919050565b7f206973206d697373696e6720726f6c6520000000000000000000000000000000600082015250565b6000614f10601183614bd0565b9150614f1b82614eda565b601182019050919050565b6000614f3182614eb7565b9150614f3d8285614bdb565b9150614f4882614f03565b9150614f548284614bdb565b91508190509392505050565b6000614f6b82614bc5565b614f758185614754565b9350614f85818560208601614ad9565b614f8e81614a1c565b840191505092915050565b60006020820190508181036000830152614fb38184614f60565b905092915050565b6000614fc682613b83565b9150614fd183613b83565b9250817fffffffffffffffffffffffffffffffffffffffffffffffffffffffffffffffff048311821515161561500a576150096145ed565b5b828202905092915050565b7f4e487b7100000000000000000000000000000000000000000000000000000000600052603260045260246000fd5b600061504f82613b83565b91506000821415615063576150626145ed565b5b600182039050919050565b7f537472696e67733a20686578206c656e67746820696e73756666696369656e74600082015250565b60006150a4602083614754565b91506150af8261506e565b602082019050919050565b600060208201905081810360008301526150d381615097565b9050919050565b7f4e487b7100000000000000000000000000000000000000000000000000000000600052603160045260246000fdfea2646970667358221220c001c8e338a7b7d52e8c05b0560838ee7e701f6235a21228df9d221725162b4064736f6c63430008090033",
  "immutableReferences": {},
  "source": "/**\n * SPDX-License-Identifier: GPL-3.0-or-later\n * Moret\n * Copyright (C) 2021 Moret\n*/\n\npragma solidity 0.8.9;\nimport \"@openzeppelin/contracts/access/AccessControl.sol\";\nimport \"@openzeppelin/contracts/utils/structs/EnumerableSet.sol\";\nimport \"./MarketLibrary.sol\";\n\ncontract OptionVault is AccessControl{\n  using OptionLibrary for OptionLibrary.Option;\n  using EnumerableSet for EnumerableSet.UintSet;\n  // using EnumerableSet for EnumerableSet.AddressSet;\n\n  bytes32 public constant EXCHANGE_ROLE = keccak256(\"EXCHANGE_ROLE\");\n  mapping(uint256=> OptionLibrary.Option) internal optionsList;\n  uint256 public optionCounter = 0;\n  mapping(address=> EnumerableSet.UintSet) internal activeOptionsPerOwner;\n  EnumerableSet.UintSet internal activeOptions;\n  IVolatilityChain internal volatilityChain;\n\n  address public aaveAddress;\n  address public underlying;\n  address public funding;\n\n  constructor( address _volChainAddress, address _underlying, address _funding, address _aaveAddress){\n    _setupRole(DEFAULT_ADMIN_ROLE, msg.sender);\n    _setupRole(EXCHANGE_ROLE, msg.sender);\n    volatilityChain = IVolatilityChain(_volChainAddress); \n    funding = _funding;\n    underlying = _underlying;\n    aaveAddress = _aaveAddress;}\n  \n  function descriptionHash() external view returns (bytes32)  { return keccak256(abi.encodePacked(volatilityChain.getDecription()));}\n\n  function queryOptionCost(uint256 _strike, uint256 _amount, uint256 _vol, OptionLibrary.PayoffType _poType, OptionLibrary.OptionSide _side) external view returns(uint256 _premium, uint256 _cost, uint256 _price) {\n    (_price,) = volatilityChain.queryPrice();\n    _premium = OptionLibrary.calcPremium(_price, _vol, _strike, _poType, _amount);\n    _cost = _premium;\n    if(_side == OptionLibrary.OptionSide.Sell){\n      uint256 _notional = MulDiv(_amount, _price, OptionLibrary.Multiplier());\n      require(_notional>= _premium);\n      _cost = _notional - _premium;}}\n\n  function addOption(uint256 _tenor, uint256 _strike, uint256 _amount, OptionLibrary.PayoffType _poType, OptionLibrary.OptionSide _side, uint256 _premium, uint256 _cost, uint256 _price, uint256 _volatility, address _holder) external onlyRole(EXCHANGE_ROLE) returns(uint256 _id) {\n    optionCounter++;\n    _id = optionCounter;\n    optionsList[_id] = OptionLibrary.Option(_poType, _side, OptionLibrary.OptionStatus.Draft, _holder, _id, block.timestamp,  0, _tenor, 0,  0, _amount, _price, _strike, _volatility, _premium, _cost);}\n\n  function getOptionHolder(uint256 _id) external view returns(address) { return optionsList[_id].holder;}\n  function getHoldersOptionCount(address _address) external view returns(uint256){return activeOptionsPerOwner[_address].length();}\n  function getHoldersOption(uint256 _index, address _address) external view returns(OptionLibrary.Option memory) {return optionsList[activeOptionsPerOwner[_address].at(_index)];}\n  function getOption(uint256 _id) external view returns(OptionLibrary.Option memory) {return optionsList[_id];}\n\n  function queryOptionPremium(uint256 _id) external view returns(uint256) {return optionsList[_id].premium;}\n\n  function queryOptionNotional(uint256 _id, bool _ignoreSells) public view returns(uint256 _notional){\n    _notional=optionsList[_id].amount;\n    if(optionsList[_id].side==OptionLibrary.OptionSide.Sell && _ignoreSells){_notional=0;}}\n  \n  function getAggregateNotional(bool _ignoreSells) external view returns(uint256 _notional) {\n    _notional= 0;\n    for(uint256 i=0;i<activeOptions.length();i++){\n      _notional += queryOptionNotional(uint256(activeOptions.at(i)), _ignoreSells);} }\n\n  function getContractPayoff(uint256 _id) external view returns(uint256 _payoff, uint256 _payback){\n    (uint256 _price,) = volatilityChain.queryPrice();\n    _payoff = optionsList[_id].calcPayoff(_price);\n    _payback = _payoff;\n    if(optionsList[_id].side == OptionLibrary.OptionSide.Sell){ \n      uint256 _notional = optionsList[_id].calcNotionalExposure(_price);\n      require(_notional >= _payoff, \"Payoff incorrect.\");\n      _payback = _notional - _payoff;}}\n\n  function calculateContractDelta(uint256 _id, uint256 _price, bool _ignoreSells) public view returns(int256 _delta){\n    _delta = 0;\n    if(optionsList[_id].status== OptionLibrary.OptionStatus.Active && (optionsList[_id].maturity > block.timestamp) && !(_ignoreSells && optionsList[_id].side==OptionLibrary.OptionSide.Sell)){\n      uint256 _vol = volatilityChain.getVol(optionsList[_id].maturity - Math.min(optionsList[_id].maturity, block.timestamp));\n      _delta = int256(MulDiv(OptionLibrary.calcDelta(_price, optionsList[_id].strike, _vol), optionsList[_id].amount, OptionLibrary.Multiplier() ));\n      if(optionsList[_id].poType==OptionLibrary.PayoffType.Put) {_delta = -int256(optionsList[_id].amount) + _delta; }\n      if(optionsList[_id].side==OptionLibrary.OptionSide.Sell){ _delta = -_delta;}}}\n    \n  function calculateAggregateDelta(bool _ignoreSells) public view returns(int256 _delta, uint256 _price){\n    (_price,) = volatilityChain.queryPrice();\n    _delta= 0;\n    for(uint256 i=0;i<activeOptions.length();i++){\n      _delta += calculateContractDelta(uint256(activeOptions.at(i)),_price, _ignoreSells);}}\n\n  function calculateContractGamma(uint256 _id, uint256 _price, bool _ignoreSells) public view returns(int256 _gamma){\n    _gamma = 0;\n    if(optionsList[_id].status== OptionLibrary.OptionStatus.Active  && (optionsList[_id].maturity > block.timestamp) && !(_ignoreSells && optionsList[_id].side==OptionLibrary.OptionSide.Sell)){\n      uint256 _vol = volatilityChain.getVol(optionsList[_id].maturity - block.timestamp);\n      _gamma = int256(MulDiv(OptionLibrary.calcGamma(_price, optionsList[_id].strike, _vol), optionsList[_id].amount, OptionLibrary.Multiplier() ));\n      if(optionsList[_id].side==OptionLibrary.OptionSide.Sell){ _gamma = -_gamma;}}}\n      \n  function calculateAggregateGamma(bool _ignoreSells) external view returns(int256 _gamma){\n    (uint256 _price,) = volatilityChain.queryPrice();\n    _gamma= 0;\n    for(uint256 i=0;i<activeOptions.length();i++){\n      _gamma += calculateContractGamma(uint256(activeOptions.at(i)),_price, _ignoreSells);}}\n\n  function calculateSpotGamma() external view returns(int256 _gamma){\n    uint256 _vol = volatilityChain.getVol(86400);\n    _gamma = int256(OptionLibrary.calcGamma(OptionLibrary.Multiplier(), OptionLibrary.Multiplier(), _vol));}\n    \n  // function validateOption(uint256 _id, address _holder) external view {\n  //   require(optionsList[_id].holder== _holder, \"Not the owner.\");\n  //   require(optionsList[_id].maturity >= block.timestamp, \"Option has expired.\");\n  //   require(optionsList[_id].status==OptionLibrary.OptionStatus.Active, \"Not active option.\");}\n\n  function anyOptionExpiring() external view returns(bool _isExpiring) {\n    _isExpiring = false;\n    for(uint256 i=0;i<activeOptions.length();i++){\n      if(isExpiring(uint256(activeOptions.at(i)))){\n        _isExpiring = true;\n        break;}}}\n\n  function isExpiring(uint256 _id) public view returns (bool){ return (optionsList[_id].status== OptionLibrary.OptionStatus.Active) && (optionsList[_id].maturity <= block.timestamp);}\n\n  function getExpiringOptionId() external view returns(uint256 _id){\n    _id = 0;\n    for(uint256 i=0;i<activeOptions.length();i++){\n      if(isExpiring(uint256(activeOptions.at(i)))){\n        _id = uint256(activeOptions.at(i));\n        break;}}\n  }\n\n  function stampActiveOption(uint256 _id, address _holder) external onlyRole(EXCHANGE_ROLE) {\n    optionsList[_id].effectiveTime = block.timestamp;\n    optionsList[_id].maturity = optionsList[_id].effectiveTime + optionsList[_id].tenor;\n    optionsList[_id].status = OptionLibrary.OptionStatus.Active;\n    activeOptionsPerOwner[_holder].add(_id);\n    activeOptions.add(_id);}\n\n  // function stampExercisedOption(uint256 _id) external onlyRole(EXCHANGE_ROLE){\n  //     optionsList[_id].exerciseTime = block.timestamp;\n  //     optionsList[_id].status = OptionLibrary.OptionStatus.Exercised;}\n\n  function stampExpiredOption(uint256 _id)  external onlyRole(EXCHANGE_ROLE){\n    optionsList[_id].exerciseTime = block.timestamp;\n    optionsList[_id].status = OptionLibrary.OptionStatus.Expired;\n    activeOptionsPerOwner[optionsList[_id].holder].remove(_id);\n    activeOptions.remove(_id);}\n\n  function calcHedgeTradesForSwaps(uint256 _swapSlippage) external view returns(int256 _tradeUnderlyingAmount, int256 _tradeFundingAmount){\n    (int256 _aggregateDelta, uint256 _price) = calculateAggregateDelta(false);\n    _tradeUnderlyingAmount = (_aggregateDelta >= 0? _aggregateDelta: int256(0)) - int256(MarketLibrary.balanceDef(underlying, address(this)));\n    _tradeFundingAmount = MarketLibrary.cvtDecimalsInt(OptionLibrary.getOpposeTrade(_tradeUnderlyingAmount, _price, _swapSlippage), funding);\n    _tradeUnderlyingAmount = MarketLibrary.cvtDecimalsInt(_tradeUnderlyingAmount, underlying);}\n  \n  function getBalances(address _address) external view returns(uint256 _underlyingBalance, uint256 _fundingBalance, uint256 _collateralBalance, uint256 _debtBalance){\n    address _protocolAds = ILendingPoolAddressesProvider(aaveAddress).getAddress(\"0x1\");//bytes32(uint256(1)));\n    ( _underlyingBalance, ,  _debtBalance) = MarketLibrary.getTokenBalances(_address, _protocolAds, underlying);\n    ( _fundingBalance,  _collateralBalance,) = MarketLibrary.getTokenBalances(_address, _protocolAds, funding); }\n\n  function calcLoanRepayment(address _address, uint256 _lendingPoolRateMode) external view returns(uint256 _repayAmount, uint256 _repaySwapValue){\n    (int256 _aggregateDelta, uint256 _price ) = calculateAggregateDelta(false);\n    (int256 _loanTradeAmount, , ) = MarketLibrary.getLoanTrade(_address, ILendingPoolAddressesProvider(aaveAddress).getAddress(\"0x1\"), _aggregateDelta, underlying, _lendingPoolRateMode == 2);\n    _repayAmount = 0;\n    _repaySwapValue = 0;\n    if(_loanTradeAmount < 0){\n      _repayAmount = uint256(-_loanTradeAmount) - Math.min(uint256(-_loanTradeAmount), ERC20(underlying).balanceOf(address(this)));\n      _repaySwapValue = MarketLibrary.cvtDecimals(MulDiv(_repayAmount, _price, OptionLibrary.Multiplier()), funding);\n      _repayAmount = MarketLibrary.cvtDecimals(_repayAmount, underlying);}}\n\n  function queryVol(uint256 _tenor) external view returns(uint256){return volatilityChain.getVol(_tenor);}\n  function queryPrice() external view returns(uint256, uint256){return volatilityChain.queryPrice();}\n}\n",
  "sourcePath": "/Users/apple/Documents/GitHub/moret/contracts/OptionVault.sol",
  "compiler": {
    "name": "solc",
    "version": "0.8.9+commit.e5eed63a.Emscripten.clang"
  },
  "schemaVersion": "3.4.3",
  "updatedAt": "2021-11-21T20:18:03.884Z",
  "devdoc": {
    "kind": "dev",
    "methods": {
      "getRoleAdmin(bytes32)": {
        "details": "Returns the admin role that controls `role`. See {grantRole} and {revokeRole}. To change a role's admin, use {_setRoleAdmin}."
      },
      "grantRole(bytes32,address)": {
        "details": "Grants `role` to `account`. If `account` had not been already granted `role`, emits a {RoleGranted} event. Requirements: - the caller must have ``role``'s admin role."
      },
      "hasRole(bytes32,address)": {
        "details": "Returns `true` if `account` has been granted `role`."
      },
      "renounceRole(bytes32,address)": {
        "details": "Revokes `role` from the calling account. Roles are often managed via {grantRole} and {revokeRole}: this function's purpose is to provide a mechanism for accounts to lose their privileges if they are compromised (such as when a trusted device is misplaced). If the calling account had been granted `role`, emits a {RoleRevoked} event. Requirements: - the caller must be `account`."
      },
      "revokeRole(bytes32,address)": {
        "details": "Revokes `role` from `account`. If `account` had been granted `role`, emits a {RoleRevoked} event. Requirements: - the caller must have ``role``'s admin role."
      },
      "supportsInterface(bytes4)": {
        "details": "See {IERC165-supportsInterface}."
      }
    },
    "version": 1
  },
  "userdoc": {
    "kind": "user",
    "methods": {},
    "version": 1
  }
}