{
  "contractName": "OptionVault",
  "abi": [
    {
      "inputs": [],
      "stateMutability": "nonpayable",
      "type": "constructor"
    },
    {
      "anonymous": false,
      "inputs": [
        {
          "indexed": true,
          "internalType": "address",
          "name": "_bot",
          "type": "address"
        },
        {
          "indexed": true,
          "internalType": "address",
          "name": "_exchange",
          "type": "address"
        },
        {
          "indexed": false,
          "internalType": "address",
          "name": "_holder",
          "type": "address"
        },
        {
          "indexed": false,
          "internalType": "uint256",
          "name": "_id",
          "type": "uint256"
        },
        {
          "indexed": false,
          "internalType": "uint256",
          "name": "_payoff",
          "type": "uint256"
        }
      ],
      "name": "Expire",
      "type": "event"
    },
    {
      "anonymous": false,
      "inputs": [
        {
          "indexed": true,
          "internalType": "address",
          "name": "_hedger",
          "type": "address"
        },
        {
          "indexed": true,
          "internalType": "address",
          "name": "_market",
          "type": "address"
        },
        {
          "indexed": false,
          "internalType": "bool",
          "name": "success",
          "type": "bool"
        },
        {
          "indexed": false,
          "internalType": "bytes",
          "name": "data",
          "type": "bytes"
        }
      ],
      "name": "HedgeResponse",
      "type": "event"
    },
    {
      "anonymous": false,
      "inputs": [
        {
          "indexed": true,
          "internalType": "address",
          "name": "_hedger",
          "type": "address"
        },
        {
          "indexed": true,
          "internalType": "address",
          "name": "_market",
          "type": "address"
        },
        {
          "indexed": false,
          "internalType": "uint256[]",
          "name": "amounts",
          "type": "uint256[]"
        }
      ],
      "name": "HedgeSwapResponse",
      "type": "event"
    },
    {
      "anonymous": false,
      "inputs": [
        {
          "indexed": true,
          "internalType": "address",
          "name": "_purchaser",
          "type": "address"
        },
        {
          "indexed": true,
          "internalType": "address",
          "name": "_exchange",
          "type": "address"
        },
        {
          "indexed": false,
          "internalType": "uint256",
          "name": "_id",
          "type": "uint256"
        },
        {
          "indexed": false,
          "internalType": "uint256",
          "name": "_premium",
          "type": "uint256"
        },
        {
          "indexed": false,
          "internalType": "uint256",
          "name": "_collateral",
          "type": "uint256"
        },
        {
          "indexed": false,
          "internalType": "bool",
          "name": "_inVol",
          "type": "bool"
        }
      ],
      "name": "NewOption",
      "type": "event"
    },
    {
      "anonymous": false,
      "inputs": [
        {
          "indexed": false,
          "internalType": "address",
          "name": "_newBot",
          "type": "address"
        }
      ],
      "name": "ResetBotAddress",
      "type": "event"
    },
    {
      "anonymous": false,
      "inputs": [
        {
          "indexed": true,
          "internalType": "uint256",
          "name": "_parameterId",
          "type": "uint256"
        },
        {
          "indexed": false,
          "internalType": "uint256",
          "name": "_parameter",
          "type": "uint256"
        }
      ],
      "name": "ResetParameter",
      "type": "event"
    },
    {
      "anonymous": false,
      "inputs": [
        {
          "indexed": true,
          "internalType": "address",
          "name": "_exchange",
          "type": "address"
        },
        {
          "indexed": false,
          "internalType": "bool",
          "name": "_tradingAllowed",
          "type": "bool"
        }
      ],
      "name": "ResetTradingStatus",
      "type": "event"
    },
    {
      "anonymous": false,
      "inputs": [
        {
          "indexed": true,
          "internalType": "bytes32",
          "name": "role",
          "type": "bytes32"
        },
        {
          "indexed": true,
          "internalType": "bytes32",
          "name": "previousAdminRole",
          "type": "bytes32"
        },
        {
          "indexed": true,
          "internalType": "bytes32",
          "name": "newAdminRole",
          "type": "bytes32"
        }
      ],
      "name": "RoleAdminChanged",
      "type": "event"
    },
    {
      "anonymous": false,
      "inputs": [
        {
          "indexed": true,
          "internalType": "bytes32",
          "name": "role",
          "type": "bytes32"
        },
        {
          "indexed": true,
          "internalType": "address",
          "name": "account",
          "type": "address"
        },
        {
          "indexed": true,
          "internalType": "address",
          "name": "sender",
          "type": "address"
        }
      ],
      "name": "RoleGranted",
      "type": "event"
    },
    {
      "anonymous": false,
      "inputs": [
        {
          "indexed": true,
          "internalType": "bytes32",
          "name": "role",
          "type": "bytes32"
        },
        {
          "indexed": true,
          "internalType": "address",
          "name": "account",
          "type": "address"
        },
        {
          "indexed": true,
          "internalType": "address",
          "name": "sender",
          "type": "address"
        }
      ],
      "name": "RoleRevoked",
      "type": "event"
    },
    {
      "anonymous": false,
      "inputs": [
        {
          "indexed": true,
          "internalType": "address",
          "name": "_purchaser",
          "type": "address"
        },
        {
          "indexed": true,
          "internalType": "address",
          "name": "_exchange",
          "type": "address"
        },
        {
          "indexed": false,
          "internalType": "uint256",
          "name": "_cost",
          "type": "uint256"
        },
        {
          "indexed": false,
          "internalType": "uint256",
          "name": "_volAmount",
          "type": "uint256"
        },
        {
          "indexed": false,
          "internalType": "bool",
          "name": "_isPurchase",
          "type": "bool"
        }
      ],
      "name": "TradeVolatility",
      "type": "event"
    },
    {
      "inputs": [],
      "name": "DEFAULT_ADMIN_ROLE",
      "outputs": [
        {
          "internalType": "bytes32",
          "name": "",
          "type": "bytes32"
        }
      ],
      "stateMutability": "view",
      "type": "function",
      "constant": true
    },
    {
      "inputs": [],
      "name": "EXCHANGE",
      "outputs": [
        {
          "internalType": "bytes32",
          "name": "",
          "type": "bytes32"
        }
      ],
      "stateMutability": "view",
      "type": "function",
      "constant": true
    },
    {
      "inputs": [
        {
          "internalType": "bytes32",
          "name": "role",
          "type": "bytes32"
        }
      ],
      "name": "getRoleAdmin",
      "outputs": [
        {
          "internalType": "bytes32",
          "name": "",
          "type": "bytes32"
        }
      ],
      "stateMutability": "view",
      "type": "function",
      "constant": true
    },
    {
      "inputs": [
        {
          "internalType": "bytes32",
          "name": "role",
          "type": "bytes32"
        },
        {
          "internalType": "address",
          "name": "account",
          "type": "address"
        }
      ],
      "name": "grantRole",
      "outputs": [],
      "stateMutability": "nonpayable",
      "type": "function"
    },
    {
      "inputs": [
        {
          "internalType": "bytes32",
          "name": "role",
          "type": "bytes32"
        },
        {
          "internalType": "address",
          "name": "account",
          "type": "address"
        }
      ],
      "name": "hasRole",
      "outputs": [
        {
          "internalType": "bool",
          "name": "",
          "type": "bool"
        }
      ],
      "stateMutability": "view",
      "type": "function",
      "constant": true
    },
    {
      "inputs": [
        {
          "internalType": "address",
          "name": "",
          "type": "address"
        }
      ],
      "name": "mDeltaAtMax",
      "outputs": [
        {
          "internalType": "uint256",
          "name": "",
          "type": "uint256"
        }
      ],
      "stateMutability": "view",
      "type": "function",
      "constant": true
    },
    {
      "inputs": [
        {
          "internalType": "address",
          "name": "",
          "type": "address"
        }
      ],
      "name": "mDeltaAtZero",
      "outputs": [
        {
          "internalType": "uint256",
          "name": "",
          "type": "uint256"
        }
      ],
      "stateMutability": "view",
      "type": "function",
      "constant": true
    },
    {
      "inputs": [
        {
          "internalType": "address",
          "name": "",
          "type": "address"
        }
      ],
      "name": "mNetNotional",
      "outputs": [
        {
          "internalType": "int256",
          "name": "",
          "type": "int256"
        }
      ],
      "stateMutability": "view",
      "type": "function",
      "constant": true
    },
    {
      "inputs": [
        {
          "internalType": "address",
          "name": "",
          "type": "address"
        }
      ],
      "name": "mPutCollateral",
      "outputs": [
        {
          "internalType": "uint256",
          "name": "",
          "type": "uint256"
        }
      ],
      "stateMutability": "view",
      "type": "function",
      "constant": true
    },
    {
      "inputs": [
        {
          "internalType": "bytes32",
          "name": "role",
          "type": "bytes32"
        },
        {
          "internalType": "address",
          "name": "account",
          "type": "address"
        }
      ],
      "name": "renounceRole",
      "outputs": [],
      "stateMutability": "nonpayable",
      "type": "function"
    },
    {
      "inputs": [
        {
          "internalType": "bytes32",
          "name": "role",
          "type": "bytes32"
        },
        {
          "internalType": "address",
          "name": "account",
          "type": "address"
        }
      ],
      "name": "revokeRole",
      "outputs": [],
      "stateMutability": "nonpayable",
      "type": "function"
    },
    {
      "inputs": [
        {
          "internalType": "bytes4",
          "name": "interfaceId",
          "type": "bytes4"
        }
      ],
      "name": "supportsInterface",
      "outputs": [
        {
          "internalType": "bool",
          "name": "",
          "type": "bool"
        }
      ],
      "stateMutability": "view",
      "type": "function",
      "constant": true
    },
    {
      "inputs": [
        {
          "components": [
            {
              "internalType": "enum OptionLib.PayoffType",
              "name": "poType",
              "type": "uint8"
            },
            {
              "internalType": "enum OptionLib.OptionSide",
              "name": "side",
              "type": "uint8"
            },
            {
              "internalType": "enum OptionLib.OptionStatus",
              "name": "status",
              "type": "uint8"
            },
            {
              "internalType": "address",
              "name": "holder",
              "type": "address"
            },
            {
              "internalType": "uint256",
              "name": "id",
              "type": "uint256"
            },
            {
              "internalType": "uint256",
              "name": "createTime",
              "type": "uint256"
            },
            {
              "internalType": "uint256",
              "name": "effectiveTime",
              "type": "uint256"
            },
            {
              "internalType": "uint256",
              "name": "tenor",
              "type": "uint256"
            },
            {
              "internalType": "uint256",
              "name": "maturity",
              "type": "uint256"
            },
            {
              "internalType": "uint256",
              "name": "exerciseTime",
              "type": "uint256"
            },
            {
              "internalType": "uint256",
              "name": "amount",
              "type": "uint256"
            },
            {
              "internalType": "uint256",
              "name": "spot",
              "type": "uint256"
            },
            {
              "internalType": "uint256",
              "name": "strike",
              "type": "uint256"
            },
            {
              "internalType": "uint256",
              "name": "volatility",
              "type": "uint256"
            },
            {
              "internalType": "uint256",
              "name": "premium",
              "type": "uint256"
            },
            {
              "internalType": "uint256",
              "name": "cost",
              "type": "uint256"
            },
            {
              "internalType": "address",
              "name": "pool",
              "type": "address"
            }
          ],
          "internalType": "struct OptionLib.Option",
          "name": "_option",
          "type": "tuple"
        },
        {
          "internalType": "uint256",
          "name": "_premium",
          "type": "uint256"
        },
        {
          "internalType": "uint256",
          "name": "_collateral",
          "type": "uint256"
        },
        {
          "internalType": "uint256",
          "name": "_price",
          "type": "uint256"
        },
        {
          "internalType": "uint256",
          "name": "_vol",
          "type": "uint256"
        }
      ],
      "name": "addOption",
      "outputs": [
        {
          "internalType": "uint256",
          "name": "_id",
          "type": "uint256"
        }
      ],
      "stateMutability": "nonpayable",
      "type": "function"
    },
    {
      "inputs": [
        {
          "internalType": "uint256",
          "name": "_id",
          "type": "uint256"
        },
        {
          "internalType": "address",
          "name": "_holder",
          "type": "address"
        }
      ],
      "name": "stampActiveOption",
      "outputs": [],
      "stateMutability": "nonpayable",
      "type": "function"
    },
    {
      "inputs": [
        {
          "internalType": "uint256",
          "name": "_id",
          "type": "uint256"
        }
      ],
      "name": "stampExpiredOption",
      "outputs": [],
      "stateMutability": "nonpayable",
      "type": "function"
    },
    {
      "inputs": [
        {
          "internalType": "address",
          "name": "_pool",
          "type": "address"
        },
        {
          "internalType": "address",
          "name": "_address",
          "type": "address"
        }
      ],
      "name": "getHolderOptions",
      "outputs": [
        {
          "internalType": "uint256[]",
          "name": "",
          "type": "uint256[]"
        }
      ],
      "stateMutability": "view",
      "type": "function",
      "constant": true
    },
    {
      "inputs": [
        {
          "internalType": "uint256",
          "name": "_id",
          "type": "uint256"
        }
      ],
      "name": "getOption",
      "outputs": [
        {
          "components": [
            {
              "internalType": "enum OptionLib.PayoffType",
              "name": "poType",
              "type": "uint8"
            },
            {
              "internalType": "enum OptionLib.OptionSide",
              "name": "side",
              "type": "uint8"
            },
            {
              "internalType": "enum OptionLib.OptionStatus",
              "name": "status",
              "type": "uint8"
            },
            {
              "internalType": "address",
              "name": "holder",
              "type": "address"
            },
            {
              "internalType": "uint256",
              "name": "id",
              "type": "uint256"
            },
            {
              "internalType": "uint256",
              "name": "createTime",
              "type": "uint256"
            },
            {
              "internalType": "uint256",
              "name": "effectiveTime",
              "type": "uint256"
            },
            {
              "internalType": "uint256",
              "name": "tenor",
              "type": "uint256"
            },
            {
              "internalType": "uint256",
              "name": "maturity",
              "type": "uint256"
            },
            {
              "internalType": "uint256",
              "name": "exerciseTime",
              "type": "uint256"
            },
            {
              "internalType": "uint256",
              "name": "amount",
              "type": "uint256"
            },
            {
              "internalType": "uint256",
              "name": "spot",
              "type": "uint256"
            },
            {
              "internalType": "uint256",
              "name": "strike",
              "type": "uint256"
            },
            {
              "internalType": "uint256",
              "name": "volatility",
              "type": "uint256"
            },
            {
              "internalType": "uint256",
              "name": "premium",
              "type": "uint256"
            },
            {
              "internalType": "uint256",
              "name": "cost",
              "type": "uint256"
            },
            {
              "internalType": "address",
              "name": "pool",
              "type": "address"
            }
          ],
          "internalType": "struct OptionLib.Option",
          "name": "",
          "type": "tuple"
        }
      ],
      "stateMutability": "view",
      "type": "function",
      "constant": true
    },
    {
      "inputs": [
        {
          "internalType": "address",
          "name": "_poolAddress",
          "type": "address"
        }
      ],
      "name": "getActiveOptionCount",
      "outputs": [
        {
          "internalType": "uint256",
          "name": "",
          "type": "uint256"
        }
      ],
      "stateMutability": "view",
      "type": "function",
      "constant": true
    },
    {
      "inputs": [
        {
          "internalType": "uint256",
          "name": "_id",
          "type": "uint256"
        }
      ],
      "name": "getOptionInfo",
      "outputs": [
        {
          "internalType": "enum OptionLib.OptionStatus",
          "name": "",
          "type": "uint8"
        },
        {
          "internalType": "enum OptionLib.OptionSide",
          "name": "",
          "type": "uint8"
        },
        {
          "internalType": "address",
          "name": "",
          "type": "address"
        },
        {
          "internalType": "contract Pool",
          "name": "",
          "type": "address"
        }
      ],
      "stateMutability": "view",
      "type": "function",
      "constant": true
    },
    {
      "inputs": [
        {
          "internalType": "uint256",
          "name": "_id",
          "type": "uint256"
        }
      ],
      "name": "getContractPayoff",
      "outputs": [
        {
          "internalType": "uint256",
          "name": "_payoff",
          "type": "uint256"
        },
        {
          "internalType": "uint256",
          "name": "_payback",
          "type": "uint256"
        },
        {
          "internalType": "uint256",
          "name": "_collateral",
          "type": "uint256"
        }
      ],
      "stateMutability": "view",
      "type": "function",
      "constant": true
    },
    {
      "inputs": [
        {
          "internalType": "address",
          "name": "_poolAddress",
          "type": "address"
        }
      ],
      "name": "anyOptionExpiring",
      "outputs": [
        {
          "internalType": "bool",
          "name": "_isExpiring",
          "type": "bool"
        }
      ],
      "stateMutability": "view",
      "type": "function",
      "constant": true
    },
    {
      "inputs": [
        {
          "internalType": "address",
          "name": "_poolAddress",
          "type": "address"
        }
      ],
      "name": "getExpiringOptionId",
      "outputs": [
        {
          "internalType": "uint256",
          "name": "_id",
          "type": "uint256"
        }
      ],
      "stateMutability": "view",
      "type": "function",
      "constant": true
    },
    {
      "inputs": [
        {
          "internalType": "contract Pool",
          "name": "_pool",
          "type": "address"
        },
        {
          "internalType": "uint256",
          "name": "_tenor",
          "type": "uint256"
        },
        {
          "internalType": "uint256",
          "name": "_amount",
          "type": "uint256"
        },
        {
          "internalType": "enum OptionLib.PayoffType",
          "name": "_poType",
          "type": "uint8"
        },
        {
          "internalType": "enum OptionLib.OptionSide",
          "name": "_side",
          "type": "uint8"
        }
      ],
      "name": "tryATMOptionCost",
      "outputs": [
        {
          "internalType": "uint256",
          "name": "_premium",
          "type": "uint256"
        },
        {
          "internalType": "uint256",
          "name": "_collateral",
          "type": "uint256"
        },
        {
          "internalType": "uint256",
          "name": "_price",
          "type": "uint256"
        },
        {
          "internalType": "uint256",
          "name": "_vol",
          "type": "uint256"
        }
      ],
      "stateMutability": "view",
      "type": "function",
      "constant": true
    },
    {
      "inputs": [
        {
          "components": [
            {
              "internalType": "enum OptionLib.PayoffType",
              "name": "poType",
              "type": "uint8"
            },
            {
              "internalType": "enum OptionLib.OptionSide",
              "name": "side",
              "type": "uint8"
            },
            {
              "internalType": "enum OptionLib.OptionStatus",
              "name": "status",
              "type": "uint8"
            },
            {
              "internalType": "address",
              "name": "holder",
              "type": "address"
            },
            {
              "internalType": "uint256",
              "name": "id",
              "type": "uint256"
            },
            {
              "internalType": "uint256",
              "name": "createTime",
              "type": "uint256"
            },
            {
              "internalType": "uint256",
              "name": "effectiveTime",
              "type": "uint256"
            },
            {
              "internalType": "uint256",
              "name": "tenor",
              "type": "uint256"
            },
            {
              "internalType": "uint256",
              "name": "maturity",
              "type": "uint256"
            },
            {
              "internalType": "uint256",
              "name": "exerciseTime",
              "type": "uint256"
            },
            {
              "internalType": "uint256",
              "name": "amount",
              "type": "uint256"
            },
            {
              "internalType": "uint256",
              "name": "spot",
              "type": "uint256"
            },
            {
              "internalType": "uint256",
              "name": "strike",
              "type": "uint256"
            },
            {
              "internalType": "uint256",
              "name": "volatility",
              "type": "uint256"
            },
            {
              "internalType": "uint256",
              "name": "premium",
              "type": "uint256"
            },
            {
              "internalType": "uint256",
              "name": "cost",
              "type": "uint256"
            },
            {
              "internalType": "address",
              "name": "pool",
              "type": "address"
            }
          ],
          "internalType": "struct OptionLib.Option",
          "name": "_option",
          "type": "tuple"
        },
        {
          "internalType": "bool",
          "name": "_forceATM",
          "type": "bool"
        }
      ],
      "name": "calcOptionCost",
      "outputs": [
        {
          "internalType": "uint256",
          "name": "_premium",
          "type": "uint256"
        },
        {
          "internalType": "uint256",
          "name": "_collateral",
          "type": "uint256"
        },
        {
          "internalType": "uint256",
          "name": "_price",
          "type": "uint256"
        },
        {
          "internalType": "uint256",
          "name": "_vol",
          "type": "uint256"
        }
      ],
      "stateMutability": "view",
      "type": "function",
      "constant": true
    },
    {
      "inputs": [
        {
          "internalType": "contract MarketMaker",
          "name": "_market",
          "type": "address"
        },
        {
          "internalType": "uint256",
          "name": "_tenor",
          "type": "uint256"
        },
        {
          "internalType": "uint256",
          "name": "_volCapacityFactor",
          "type": "uint256"
        },
        {
          "internalType": "int256",
          "name": "_currentNetNotional",
          "type": "int256"
        },
        {
          "internalType": "int256",
          "name": "_newNetNotional",
          "type": "int256"
        }
      ],
      "name": "calcImpliedVol",
      "outputs": [
        {
          "internalType": "uint256",
          "name": "",
          "type": "uint256"
        },
        {
          "internalType": "uint256",
          "name": "",
          "type": "uint256"
        }
      ],
      "stateMutability": "view",
      "type": "function",
      "constant": true
    },
    {
      "inputs": [
        {
          "internalType": "contract Pool",
          "name": "_pool",
          "type": "address"
        },
        {
          "internalType": "bool",
          "name": "_net",
          "type": "bool"
        },
        {
          "internalType": "bool",
          "name": "_average",
          "type": "bool"
        }
      ],
      "name": "calcCapital",
      "outputs": [
        {
          "internalType": "uint256",
          "name": "",
          "type": "uint256"
        }
      ],
      "stateMutability": "view",
      "type": "function",
      "constant": true
    }
  ],
  "bytecode": "0x60806040523480156200001157600080fd5b50620000276000801b336200002d60201b60201c565b620001a6565b6200003f82826200004360201b60201c565b5050565b6200005582826200013460201b60201c565b6200013057600160008084815260200190815260200160002060000160008373ffffffffffffffffffffffffffffffffffffffff1673ffffffffffffffffffffffffffffffffffffffff16815260200190815260200160002060006101000a81548160ff021916908315150217905550620000d56200019e60201b60201c565b73ffffffffffffffffffffffffffffffffffffffff168173ffffffffffffffffffffffffffffffffffffffff16837f2f8788117e7eff1d82e926ec794901d17c78024a50270940304540a733656f0d60405160405180910390a45b5050565b600080600084815260200190815260200160002060000160008373ffffffffffffffffffffffffffffffffffffffff1673ffffffffffffffffffffffffffffffffffffffff16815260200190815260200160002060009054906101000a900460ff16905092915050565b600033905090565b61502b80620001b66000396000f3fe608060405234801561001057600080fd5b506004361061018e5760003560e01c806365c22c5f116100de5780639bafc25411610097578063b50e44b811610071578063b50e44b81461055a578063b9f10b6614610578578063d547741f146105a8578063fc9d80e0146105c45761018e565b80639bafc254146104dc5780639f2b958c1461050c578063a217fddf1461053c5761018e565b806365c22c5f146103ba5780636a347c40146103ea5780637be795e01461041a578063844a7c9a1461044a57806385ae10e61461047a57806391d14854146104ac5761018e565b8063255242171161014b5780633a328e29116101255780633a328e291461030b5780634bf728b21461033b5780635c273c2f1461036e578063637baf601461039e5761018e565b806325524217146102a25780632f2ff15d146102d357806336568abe146102ef5761018e565b806301ffc9a714610193578063132a0f1b146101c35780631ce5e9a6146101f35780632360e81714610223578063248a9ca31461025657806324b4110e14610286575b600080fd5b6101ad60048036038101906101a891906135e8565b6105f7565b6040516101ba9190613630565b60405180910390f35b6101dd60048036038101906101d891906136a9565b610671565b6040516101ea91906136ef565b60405180910390f35b61020d60048036038101906102089190613736565b6106c1565b60405161021a91906139e7565b60405180910390f35b61023d60048036038101906102389190613cbf565b6108d3565b60405161024d9493929190613d01565b60405180910390f35b610270600480360381019061026b9190613d7c565b610c80565b60405161027d9190613db8565b60405180910390f35b6102a0600480360381019061029b9190613dd3565b610c9f565b005b6102bc60048036038101906102b79190613e87565b61118a565b6040516102ca929190613f02565b60405180910390f35b6102ed60048036038101906102e89190613f2b565b6114f0565b005b61030960048036038101906103049190613f2b565b611511565b005b610325600480360381019061032091906136a9565b611594565b60405161033291906136ef565b60405180910390f35b61035560048036038101906103509190613fa9565b611704565b6040516103659493929190613d01565b60405180910390f35b61038860048036038101906103839190614024565b61180a565b60405161039591906136ef565b60405180910390f35b6103b860048036038101906103b39190613736565b611c8f565b005b6103d460048036038101906103cf91906136a9565b612263565b6040516103e191906136ef565b60405180910390f35b61040460048036038101906103ff91906136a9565b61227b565b60405161041191906136ef565b60405180910390f35b610434600480360381019061042f9190614077565b612293565b6040516104419190614166565b60405180910390f35b610464600480360381019061045f91906136a9565b612321565b6040516104719190614197565b60405180910390f35b610494600480360381019061048f9190613736565b612339565b6040516104a3939291906141b2565b60405180910390f35b6104c660048036038101906104c19190613f2b565b612582565b6040516104d39190613630565b60405180910390f35b6104f660048036038101906104f191906136a9565b6125ec565b60405161050391906136ef565b60405180910390f35b610526600480360381019061052191906136a9565b612604565b6040516105339190613630565b60405180910390f35b61054461276e565b6040516105519190613db8565b60405180910390f35b610562612775565b60405161056f9190613db8565b60405180910390f35b610592600480360381019061058d91906141e9565b612799565b60405161059f91906136ef565b60405180910390f35b6105c260048036038101906105bd9190613f2b565b612adf565b005b6105de60048036038101906105d99190613736565b612b00565b6040516105ee94939291906142f5565b60405180910390f35b60007f7965db0b000000000000000000000000000000000000000000000000000000007bffffffffffffffffffffffffffffffffffffffffffffffffffffffff1916827bffffffffffffffffffffffffffffffffffffffffffffffffffffffff1916148061066a575061066982612c18565b5b9050919050565b60006106ba600360008473ffffffffffffffffffffffffffffffffffffffff1673ffffffffffffffffffffffffffffffffffffffff168152602001908152602001600020612c82565b9050919050565b6106c961349b565b600182815481106106dd576106dc61433a565b5b90600052602060002090600e0201604051806102200160405290816000820160009054906101000a900460ff16600181111561071c5761071b613763565b5b600181111561072e5761072d613763565b5b81526020016000820160019054906101000a900460ff16600181111561075757610756613763565b5b600181111561076957610768613763565b5b81526020016000820160029054906101000a900460ff16600381111561079257610791613763565b5b60038111156107a4576107a3613763565b5b81526020016000820160039054906101000a900473ffffffffffffffffffffffffffffffffffffffff1673ffffffffffffffffffffffffffffffffffffffff1673ffffffffffffffffffffffffffffffffffffffff168152602001600182015481526020016002820154815260200160038201548152602001600482015481526020016005820154815260200160068201548152602001600782015481526020016008820154815260200160098201548152602001600a8201548152602001600b8201548152602001600c8201548152602001600d820160009054906101000a900473ffffffffffffffffffffffffffffffffffffffff1673ffffffffffffffffffffffffffffffffffffffff1673ffffffffffffffffffffffffffffffffffffffff16815250509050919050565b6000806000806000866102000151905060008173ffffffffffffffffffffffffffffffffffffffff16631f21f9af6040518163ffffffff1660e01b8152600401602060405180830381865afa158015610930573d6000803e3d6000fd5b505050506040513d601f19601f82011682018060405250810190610954919061437e565b9050600060018081111561096b5761096a613763565b5b8960200151600181111561098257610981613763565b5b1461098e5760016109b0565b7fffffffffffffffffffffffffffffffffffffffffffffffffffffffffffffffff5b6109be8a6101400151612c97565b6109c891906143da565b600460008b610200015173ffffffffffffffffffffffffffffffffffffffff1673ffffffffffffffffffffffffffffffffffffffff16815260200190815260200160002054610a1791906144f1565b9050610adc828a60e001518573ffffffffffffffffffffffffffffffffffffffff16630f9026186040518163ffffffff1660e01b8152600401602060405180830381865afa158015610a6d573d6000803e3d6000fd5b505050506040513d601f19601f82011682018060405250810190610a91919061459a565b600460008e610200015173ffffffffffffffffffffffffffffffffffffffff1673ffffffffffffffffffffffffffffffffffffffff168152602001908152602001600020548561118a565b8095508196505050848961016001818152505083896101a00181815250508715610b0c5784896101800181815250505b8873__OptionLib_____________________________636eef991090918473ffffffffffffffffffffffffffffffffffffffff1663a7292ea46040518163ffffffff1660e01b8152600401602060405180830381865afa158015610b74573d6000803e3d6000fd5b505050506040513d601f19601f82011682018060405250810190610b98919061459a565b6040518363ffffffff1660e01b8152600401610bb5929190614780565b602060405180830381865af4158015610bd2573d6000803e3d6000fd5b505050506040513d601f19601f82011682018060405250810190610bf6919061459a565b96508873__OptionLib_____________________________63f8581c2c90916040518263ffffffff1660e01b8152600401610c3191906147ab565b602060405180830381865af4158015610c4e573d6000803e3d6000fd5b505050506040513d601f19601f82011682018060405250810190610c72919061459a565b955050505092959194509250565b6000806000838152602001908152602001600020600101549050919050565b7f10b261d3bc7a74f38949f9212b0336103474898eda034c06ae0a3e478dc0e4a5610cc981612d04565b600060018481548110610cdf57610cde61433a565b5b90600052602060002090600e02019050428160030181905550806004015442610d0891906147c7565b816005018190555060018160000160026101000a81548160ff02191690836003811115610d3857610d37613763565b5b0217905550600081600d0160009054906101000a900473ffffffffffffffffffffffffffffffffffffffff1690508173__OptionLib_____________________________63bf38721c90916040518263ffffffff1660e01b8152600401610d9f9190614824565b602060405180830381865af4158015610dbc573d6000803e3d6000fd5b505050506040513d601f19601f82011682018060405250810190610de09190614854565b600460008373ffffffffffffffffffffffffffffffffffffffff1673ffffffffffffffffffffffffffffffffffffffff1681526020019081526020016000206000828254610e2e91906144f1565b925050819055508173__OptionLib_____________________________631b4fb86990916040518263ffffffff1660e01b8152600401610e6e9190614824565b602060405180830381865af4158015610e8b573d6000803e3d6000fd5b505050506040513d601f19601f82011682018060405250810190610eaf919061459a565b600560008373ffffffffffffffffffffffffffffffffffffffff1673ffffffffffffffffffffffffffffffffffffffff1681526020019081526020016000206000828254610efd91906147c7565b925050819055508173__OptionLib_____________________________632e5cf0a790916040518263ffffffff1660e01b8152600401610f3d9190614824565b602060405180830381865af4158015610f5a573d6000803e3d6000fd5b505050506040513d601f19601f82011682018060405250810190610f7e919061459a565b600660008373ffffffffffffffffffffffffffffffffffffffff1673ffffffffffffffffffffffffffffffffffffffff1681526020019081526020016000206000828254610fcc91906147c7565b925050819055508173__OptionLib_____________________________6304a65c3e90916040518263ffffffff1660e01b815260040161100c9190614824565b602060405180830381865af4158015611029573d6000803e3d6000fd5b505050506040513d601f19601f8201168201806040525081019061104d919061459a565b600760008373ffffffffffffffffffffffffffffffffffffffff1673ffffffffffffffffffffffffffffffffffffffff168152602001908152602001600020600082825461109b91906147c7565b9250508190555061113085600260008473ffffffffffffffffffffffffffffffffffffffff1673ffffffffffffffffffffffffffffffffffffffff16815260200190815260200160002060008773ffffffffffffffffffffffffffffffffffffffff1673ffffffffffffffffffffffffffffffffffffffff168152602001908152602001600020612d1890919063ffffffff16565b5061118285600360008473ffffffffffffffffffffffffffffffffffffffff1673ffffffffffffffffffffffffffffffffffffffff168152602001908152602001600020612d1890919063ffffffff16565b505050505050565b60008060008773ffffffffffffffffffffffffffffffffffffffff1663c0a16f6a6040518163ffffffff1660e01b8152600401602060405180830381865afa1580156111da573d6000803e3d6000fd5b505050506040513d601f19601f820116820180604052508101906111fe91906148bf565b905060008173ffffffffffffffffffffffffffffffffffffffff1663b0667cf86040518163ffffffff1660e01b8152600401602060405180830381865afa15801561124d573d6000803e3d6000fd5b505050506040513d601f19601f82011682018060405250810190611271919061459a565b9050600073__MarketLib_____________________________637bc7ed7873__MarketLib_____________________________63e74207d68d866040518363ffffffff1660e01b81526004016112c892919061490d565b602060405180830381865af41580156112e5573d6000803e3d6000fd5b505050506040513d601f19601f82011682018060405250810190611309919061459a565b89898773ffffffffffffffffffffffffffffffffffffffff1663cfc2dc208f6040518263ffffffff1660e01b815260040161134491906136ef565b602060405180830381865afa158015611361573d6000803e3d6000fd5b505050506040513d601f19601f82011682018060405250810190611385919061459a565b8d6040518663ffffffff1660e01b81526004016113a6959493929190614945565b602060405180830381865af41580156113c3573d6000803e3d6000fd5b505050506040513d601f19601f820116820180604052508101906113e7919061459a565b9050818173__MathLib_______________________________63fed4a0f390918673ffffffffffffffffffffffffffffffffffffffff1663430417f78e6040518263ffffffff1660e01b815260040161144091906136ef565b602060405180830381865afa15801561145d573d6000803e3d6000fd5b505050506040513d601f19601f82011682018060405250810190611481919061459a565b6040518363ffffffff1660e01b815260040161149e929190614998565b602060405180830381865af41580156114bb573d6000803e3d6000fd5b505050506040513d601f19601f820116820180604052508101906114df919061459a565b945094505050509550959350505050565b6114f982610c80565b61150281612d04565b61150c8383612d32565b505050565b611519612e12565b73ffffffffffffffffffffffffffffffffffffffff168173ffffffffffffffffffffffffffffffffffffffff1614611586576040517f08c379a000000000000000000000000000000000000000000000000000000000815260040161157d90614a44565b60405180910390fd5b6115908282612e1a565b5050565b6000806115de600360008573ffffffffffffffffffffffffffffffffffffffff1673ffffffffffffffffffffffffffffffffffffffff168152602001908152602001600020612c82565b905060005b818110156116fd57600061163e82600360008873ffffffffffffffffffffffffffffffffffffffff1673ffffffffffffffffffffffffffffffffffffffff168152602001908152602001600020612efb90919063ffffffff16565b9050600181815481106116545761165361433a565b5b90600052602060002090600e020173__OptionLib_____________________________63febf205490916040518263ffffffff1660e01b815260040161169a9190614824565b602060405180830381865af41580156116b7573d6000803e3d6000fd5b505050506040513d601f19601f820116820180604052508101906116db9190614a79565b156116e957809350506116fd565b5080806116f590614aa6565b9150506115e3565b5050919050565b600080600080600060405180610220016040528088600181111561172b5761172a613763565b5b815260200187600181111561174357611742613763565b5b81526020016000600381111561175c5761175b613763565b5b81526020013373ffffffffffffffffffffffffffffffffffffffff16815260200160008152602001428152602001600081526020018a8152602001600081526020016000815260200189815260200160008152602001600081526020016000815260200160008152602001600081526020018b73ffffffffffffffffffffffffffffffffffffffff1681525090506117f58160016108d3565b94509450945094505095509550955095915050565b6000808473ffffffffffffffffffffffffffffffffffffffff16631f21f9af6040518163ffffffff1660e01b8152600401602060405180830381865afa158015611858573d6000803e3d6000fd5b505050506040513d601f19601f8201168201806040525081019061187c919061437e565b905060008173ffffffffffffffffffffffffffffffffffffffff1663c0a16f6a6040518163ffffffff1660e01b8152600401602060405180830381865afa1580156118cb573d6000803e3d6000fd5b505050506040513d601f19601f820116820180604052508101906118ef91906148bf565b905060008173ffffffffffffffffffffffffffffffffffffffff1663b0667cf86040518163ffffffff1660e01b8152600401602060405180830381865afa15801561193e573d6000803e3d6000fd5b505050506040513d601f19601f82011682018060405250810190611962919061459a565b9050600073__MarketLib_____________________________63e74207d685846040518363ffffffff1660e01b815260040161199f92919061490d565b602060405180830381865af41580156119bc573d6000803e3d6000fd5b505050506040513d601f19601f820116820180604052508101906119e0919061459a565b905060008890508715611b57576000611a77600660008473ffffffffffffffffffffffffffffffffffffffff1673ffffffffffffffffffffffffffffffffffffffff16815260200190815260200160002054600760008573ffffffffffffffffffffffffffffffffffffffff1673ffffffffffffffffffffffffffffffffffffffff16815260200190815260200160002054612f15565b73__MathLib_______________________________63fed4a0f39091866040518363ffffffff1660e01b8152600401611ab1929190614998565b602060405180830381865af4158015611ace573d6000803e3d6000fd5b505050506040513d601f19601f82011682018060405250810190611af2919061459a565b9050611b48600560008473ffffffffffffffffffffffffffffffffffffffff1673ffffffffffffffffffffffffffffffffffffffff1681526020019081526020016000205482611b4291906147c7565b84612f2f565b83611b539190614aee565b9250505b8615611c805760008973ffffffffffffffffffffffffffffffffffffffff166318160ddd6040518163ffffffff1660e01b8152600401602060405180830381865afa158015611baa573d6000803e3d6000fd5b505050506040513d601f19601f82011682018060405250810190611bce919061459a565b90506000811115611c5c578273__MathLib_______________________________63de7f61709091836040518363ffffffff1660e01b8152600401611c14929190614998565b602060405180830381865af4158015611c31573d6000803e3d6000fd5b505050506040513d601f19601f82011682018060405250810190611c55919061459a565b9250611c7e565b600081148015611c6c5750600083145b15611c7d57670de0b6b3a764000092505b5b505b81955050505050509392505050565b7f10b261d3bc7a74f38949f9212b0336103474898eda034c06ae0a3e478dc0e4a5611cb981612d04565b600060018381548110611ccf57611cce61433a565b5b90600052602060002090600e02019050600081600d0160009054906101000a900473ffffffffffffffffffffffffffffffffffffffff16905060008260000160039054906101000a900473ffffffffffffffffffffffffffffffffffffffff169050611d8285600360008573ffffffffffffffffffffffffffffffffffffffff1673ffffffffffffffffffffffffffffffffffffffff168152602001908152602001600020612f4890919063ffffffff16565b50611e1185600260008573ffffffffffffffffffffffffffffffffffffffff1673ffffffffffffffffffffffffffffffffffffffff16815260200190815260200160002060008473ffffffffffffffffffffffffffffffffffffffff1673ffffffffffffffffffffffffffffffffffffffff168152602001908152602001600020612f4890919063ffffffff16565b508273__OptionLib_____________________________63bf38721c90916040518263ffffffff1660e01b8152600401611e4b9190614824565b602060405180830381865af4158015611e68573d6000803e3d6000fd5b505050506040513d601f19601f82011682018060405250810190611e8c9190614854565b600460008473ffffffffffffffffffffffffffffffffffffffff1673ffffffffffffffffffffffffffffffffffffffff1681526020019081526020016000206000828254611eda9190614b22565b92505081905550611fa3600660008473ffffffffffffffffffffffffffffffffffffffff1673ffffffffffffffffffffffffffffffffffffffff168152602001908152602001600020548473__OptionLib_____________________________632e5cf0a790916040518263ffffffff1660e01b8152600401611f5d9190614824565b602060405180830381865af4158015611f7a573d6000803e3d6000fd5b505050506040513d601f19601f82011682018060405250810190611f9e919061459a565b612f2f565b600660008473ffffffffffffffffffffffffffffffffffffffff1673ffffffffffffffffffffffffffffffffffffffff1681526020019081526020016000206000828254611ff19190614aee565b925050819055506120ba600760008473ffffffffffffffffffffffffffffffffffffffff1673ffffffffffffffffffffffffffffffffffffffff168152602001908152602001600020548473__OptionLib_____________________________6304a65c3e90916040518263ffffffff1660e01b81526004016120749190614824565b602060405180830381865af4158015612091573d6000803e3d6000fd5b505050506040513d601f19601f820116820180604052508101906120b5919061459a565b612f2f565b600760008473ffffffffffffffffffffffffffffffffffffffff1673ffffffffffffffffffffffffffffffffffffffff16815260200190815260200160002060008282546121089190614aee565b925050819055506121d1600560008473ffffffffffffffffffffffffffffffffffffffff1673ffffffffffffffffffffffffffffffffffffffff168152602001908152602001600020548473__OptionLib_____________________________631b4fb86990916040518263ffffffff1660e01b815260040161218b9190614824565b602060405180830381865af41580156121a8573d6000803e3d6000fd5b505050506040513d601f19601f820116820180604052508101906121cc919061459a565b612f2f565b600560008473ffffffffffffffffffffffffffffffffffffffff1673ffffffffffffffffffffffffffffffffffffffff168152602001908152602001600020600082825461221f9190614aee565b9250508190555060038360000160026101000a81548160ff0219169083600381111561224e5761224d613763565b5b02179055504283600601819055505050505050565b60076020528060005260406000206000915090505481565b60066020528060005260406000206000915090505481565b6060612319600260008573ffffffffffffffffffffffffffffffffffffffff1673ffffffffffffffffffffffffffffffffffffffff16815260200190815260200160002060008473ffffffffffffffffffffffffffffffffffffffff1673ffffffffffffffffffffffffffffffffffffffff168152602001908152602001600020612f62565b905092915050565b60046020528060005260406000206000915090505481565b600080600080600185815481106123535761235261433a565b5b90600052602060002090600e0201600d0160009054906101000a900473ffffffffffffffffffffffffffffffffffffffff16905060008173ffffffffffffffffffffffffffffffffffffffff16631f21f9af6040518163ffffffff1660e01b8152600401602060405180830381865afa1580156123d4573d6000803e3d6000fd5b505050506040513d601f19601f820116820180604052508101906123f8919061437e565b73ffffffffffffffffffffffffffffffffffffffff1663c0a16f6a6040518163ffffffff1660e01b8152600401602060405180830381865afa158015612442573d6000803e3d6000fd5b505050506040513d601f19601f8201168201806040525081019061246691906148bf565b90506001868154811061247c5761247b61433a565b5b90600052602060002090600e020173__OptionLib_____________________________63357aa1df90918373ffffffffffffffffffffffffffffffffffffffff1663b0667cf86040518163ffffffff1660e01b8152600401602060405180830381865afa1580156124f1573d6000803e3d6000fd5b505050506040513d601f19601f82011682018060405250810190612515919061459a565b6040518363ffffffff1660e01b8152600401612532929190614bb6565b606060405180830381865af415801561254f573d6000803e3d6000fd5b505050506040513d601f19601f820116820180604052508101906125739190614bdf565b94509450945050509193909250565b600080600084815260200190815260200160002060000160008373ffffffffffffffffffffffffffffffffffffffff1673ffffffffffffffffffffffffffffffffffffffff16815260200190815260200160002060009054906101000a900460ff16905092915050565b60056020528060005260406000206000915090505481565b60008061264e600360008573ffffffffffffffffffffffffffffffffffffffff1673ffffffffffffffffffffffffffffffffffffffff168152602001908152602001600020612c82565b905060005b818110156127675760016126ae82600360008873ffffffffffffffffffffffffffffffffffffffff1673ffffffffffffffffffffffffffffffffffffffff168152602001908152602001600020612efb90919063ffffffff16565b815481106126bf576126be61433a565b5b90600052602060002090600e020173__OptionLib_____________________________63febf205490916040518263ffffffff1660e01b81526004016127059190614824565b602060405180830381865af4158015612722573d6000803e3d6000fd5b505050506040513d601f19601f820116820180604052508101906127469190614a79565b156127545760019250612767565b808061275f90614aa6565b915050612653565b5050919050565b6000801b81565b7f10b261d3bc7a74f38949f9212b0336103474898eda034c06ae0a3e478dc0e4a581565b60007f10b261d3bc7a74f38949f9212b0336103474898eda034c06ae0a3e478dc0e4a56127c581612d04565b60008760e001511161280c576040517f08c379a000000000000000000000000000000000000000000000000000000000815260040161280390614c7e565b60405180910390fd5b600180549050915060016040518061022001604052808960000151600181111561283957612838613763565b5b81526020018960200151600181111561285557612854613763565b5b81526020016000600381111561286e5761286d613763565b5b8152602001896060015173ffffffffffffffffffffffffffffffffffffffff168152602001848152602001428152602001600081526020018960e00151815260200160008152602001600081526020018961014001518152602001868152602001896101800151815260200185815260200188815260200187815260200189610200015173ffffffffffffffffffffffffffffffffffffffff1681525090806001815401808255809150506001900390600052602060002090600e020160009091909190915060008201518160000160006101000a81548160ff0219169083600181111561295f5761295e613763565b5b021790555060208201518160000160016101000a81548160ff0219169083600181111561298f5761298e613763565b5b021790555060408201518160000160026101000a81548160ff021916908360038111156129bf576129be613763565b5b021790555060608201518160000160036101000a81548173ffffffffffffffffffffffffffffffffffffffff021916908373ffffffffffffffffffffffffffffffffffffffff1602179055506080820151816001015560a0820151816002015560c0820151816003015560e08201518160040155610100820151816005015561012082015181600601556101408201518160070155610160820151816008015561018082015181600901556101a082015181600a01556101c082015181600b01556101e082015181600c015561020082015181600d0160006101000a81548173ffffffffffffffffffffffffffffffffffffffff021916908373ffffffffffffffffffffffffffffffffffffffff16021790555050505095945050505050565b612ae882610c80565b612af181612d04565b612afb8383612e1a565b505050565b6000806000806001805490508510612b1757600080fd5b60018581548110612b2b57612b2a61433a565b5b90600052602060002090600e020160000160029054906101000a900460ff1660018681548110612b5e57612b5d61433a565b5b90600052602060002090600e020160000160019054906101000a900460ff1660018781548110612b9157612b9061433a565b5b90600052602060002090600e020160000160039054906101000a900473ffffffffffffffffffffffffffffffffffffffff1660018881548110612bd757612bd661433a565b5b90600052602060002090600e0201600d0160009054906101000a900473ffffffffffffffffffffffffffffffffffffffff1693509350935093509193509193565b60007f01ffc9a7000000000000000000000000000000000000000000000000000000007bffffffffffffffffffffffffffffffffffffffffffffffffffffffff1916827bffffffffffffffffffffffffffffffffffffffffffffffffffffffff1916149050919050565b6000612c9082600001612f83565b9050919050565b60007f7fffffffffffffffffffffffffffffffffffffffffffffffffffffffffffffff821115612cfc576040517f08c379a0000000000000000000000000000000000000000000000000000000008152600401612cf390614d10565b60405180910390fd5b819050919050565b612d1581612d10612e12565b612f94565b50565b6000612d2a836000018360001b613031565b905092915050565b612d3c8282612582565b612e0e57600160008084815260200190815260200160002060000160008373ffffffffffffffffffffffffffffffffffffffff1673ffffffffffffffffffffffffffffffffffffffff16815260200190815260200160002060006101000a81548160ff021916908315150217905550612db3612e12565b73ffffffffffffffffffffffffffffffffffffffff168173ffffffffffffffffffffffffffffffffffffffff16837f2f8788117e7eff1d82e926ec794901d17c78024a50270940304540a733656f0d60405160405180910390a45b5050565b600033905090565b612e248282612582565b15612ef757600080600084815260200190815260200160002060000160008373ffffffffffffffffffffffffffffffffffffffff1673ffffffffffffffffffffffffffffffffffffffff16815260200190815260200160002060006101000a81548160ff021916908315150217905550612e9c612e12565b73ffffffffffffffffffffffffffffffffffffffff168173ffffffffffffffffffffffffffffffffffffffff16837ff6391f5c32d9c69d2a47ea670b442974b53935d1edc7fd64eb21e047a839171b60405160405180910390a45b5050565b6000612f0a83600001836130a1565b60001c905092915050565b600081831015612f255781612f27565b825b905092915050565b6000818310612f3e5781612f40565b825b905092915050565b6000612f5a836000018360001b6130cc565b905092915050565b60606000612f72836000016131e0565b905060608190508092505050919050565b600081600001805490509050919050565b612f9e8282612582565b61302d57612fc38173ffffffffffffffffffffffffffffffffffffffff16601461323c565b612fd18360001c602061323c565b604051602001612fe2929190614e42565b6040516020818303038152906040526040517f08c379a00000000000000000000000000000000000000000000000000000000081526004016130249190614eb5565b60405180910390fd5b5050565b600061303d8383613478565b61309657826000018290806001815401808255809150506001900390600052602060002001600090919091909150558260000180549050836001016000848152602001908152602001600020819055506001905061309b565b600090505b92915050565b60008260000182815481106130b9576130b861433a565b5b9060005260206000200154905092915050565b600080836001016000848152602001908152602001600020549050600081146131d45760006001826130fe9190614aee565b90506000600186600001805490506131169190614aee565b90508181146131855760008660000182815481106131375761313661433a565b5b906000526020600020015490508087600001848154811061315b5761315a61433a565b5b90600052602060002001819055508387600101600083815260200190815260200160002081905550505b8560000180548061319957613198614ed7565b5b6001900381819060005260206000200160009055905585600101600086815260200190815260200160002060009055600193505050506131da565b60009150505b92915050565b60608160000180548060200260200160405190810160405280929190818152602001828054801561323057602002820191906000526020600020905b81548152602001906001019080831161321c575b50505050509050919050565b60606000600283600261324f9190614f06565b61325991906147c7565b67ffffffffffffffff81111561327257613271613a19565b5b6040519080825280601f01601f1916602001820160405280156132a45781602001600182028036833780820191505090505b5090507f3000000000000000000000000000000000000000000000000000000000000000816000815181106132dc576132db61433a565b5b60200101907effffffffffffffffffffffffffffffffffffffffffffffffffffffffffffff1916908160001a9053507f7800000000000000000000000000000000000000000000000000000000000000816001815181106133405761333f61433a565b5b60200101907effffffffffffffffffffffffffffffffffffffffffffffffffffffffffffff1916908160001a905350600060018460026133809190614f06565b61338a91906147c7565b90505b600181111561342a577f3031323334353637383961626364656600000000000000000000000000000000600f8616601081106133cc576133cb61433a565b5b1a60f81b8282815181106133e3576133e261433a565b5b60200101907effffffffffffffffffffffffffffffffffffffffffffffffffffffffffffff1916908160001a905350600485901c94508061342390614f60565b905061338d565b506000841461346e576040517f08c379a000000000000000000000000000000000000000000000000000000000815260040161346590614fd5565b60405180910390fd5b8091505092915050565b600080836001016000848152602001908152602001600020541415905092915050565b604051806102200160405280600060018111156134bb576134ba613763565b5b8152602001600060018111156134d4576134d3613763565b5b8152602001600060038111156134ed576134ec613763565b5b8152602001600073ffffffffffffffffffffffffffffffffffffffff168152602001600081526020016000815260200160008152602001600081526020016000815260200160008152602001600081526020016000815260200160008152602001600081526020016000815260200160008152602001600073ffffffffffffffffffffffffffffffffffffffff1681525090565b6000604051905090565b600080fd5b60007fffffffff0000000000000000000000000000000000000000000000000000000082169050919050565b6135c581613590565b81146135d057600080fd5b50565b6000813590506135e2816135bc565b92915050565b6000602082840312156135fe576135fd61358b565b5b600061360c848285016135d3565b91505092915050565b60008115159050919050565b61362a81613615565b82525050565b60006020820190506136456000830184613621565b92915050565b600073ffffffffffffffffffffffffffffffffffffffff82169050919050565b60006136768261364b565b9050919050565b6136868161366b565b811461369157600080fd5b50565b6000813590506136a38161367d565b92915050565b6000602082840312156136bf576136be61358b565b5b60006136cd84828501613694565b91505092915050565b6000819050919050565b6136e9816136d6565b82525050565b600060208201905061370460008301846136e0565b92915050565b613713816136d6565b811461371e57600080fd5b50565b6000813590506137308161370a565b92915050565b60006020828403121561374c5761374b61358b565b5b600061375a84828501613721565b91505092915050565b7f4e487b7100000000000000000000000000000000000000000000000000000000600052602160045260246000fd5b600281106137a3576137a2613763565b5b50565b60008190506137b482613792565b919050565b60006137c4826137a6565b9050919050565b6137d4816137b9565b82525050565b600281106137eb576137ea613763565b5b50565b60008190506137fc826137da565b919050565b600061380c826137ee565b9050919050565b61381c81613801565b82525050565b6004811061383357613832613763565b5b50565b600081905061384482613822565b919050565b600061385482613836565b9050919050565b61386481613849565b82525050565b6138738161366b565b82525050565b613882816136d6565b82525050565b6102208201600082015161389f60008501826137cb565b5060208201516138b26020850182613813565b5060408201516138c5604085018261385b565b5060608201516138d8606085018261386a565b5060808201516138eb6080850182613879565b5060a08201516138fe60a0850182613879565b5060c082015161391160c0850182613879565b5060e082015161392460e0850182613879565b50610100820151613939610100850182613879565b5061012082015161394e610120850182613879565b50610140820151613963610140850182613879565b50610160820151613978610160850182613879565b5061018082015161398d610180850182613879565b506101a08201516139a26101a0850182613879565b506101c08201516139b76101c0850182613879565b506101e08201516139cc6101e0850182613879565b506102008201516139e161020085018261386a565b50505050565b6000610220820190506139fd6000830184613888565b92915050565b600080fd5b6000601f19601f8301169050919050565b7f4e487b7100000000000000000000000000000000000000000000000000000000600052604160045260246000fd5b613a5182613a08565b810181811067ffffffffffffffff82111715613a7057613a6f613a19565b5b80604052505050565b6000613a83613581565b9050613a8f8282613a48565b919050565b60028110613aa157600080fd5b50565b600081359050613ab381613a94565b92915050565b60028110613ac657600080fd5b50565b600081359050613ad881613ab9565b92915050565b60048110613aeb57600080fd5b50565b600081359050613afd81613ade565b92915050565b60006102208284031215613b1a57613b19613a03565b5b613b25610220613a79565b90506000613b3584828501613aa4565b6000830152506020613b4984828501613ac9565b6020830152506040613b5d84828501613aee565b6040830152506060613b7184828501613694565b6060830152506080613b8584828501613721565b60808301525060a0613b9984828501613721565b60a08301525060c0613bad84828501613721565b60c08301525060e0613bc184828501613721565b60e083015250610100613bd684828501613721565b61010083015250610120613bec84828501613721565b61012083015250610140613c0284828501613721565b61014083015250610160613c1884828501613721565b61016083015250610180613c2e84828501613721565b610180830152506101a0613c4484828501613721565b6101a0830152506101c0613c5a84828501613721565b6101c0830152506101e0613c7084828501613721565b6101e083015250610200613c8684828501613694565b6102008301525092915050565b613c9c81613615565b8114613ca757600080fd5b50565b600081359050613cb981613c93565b92915050565b6000806102408385031215613cd757613cd661358b565b5b6000613ce585828601613b03565b925050610220613cf785828601613caa565b9150509250929050565b6000608082019050613d1660008301876136e0565b613d2360208301866136e0565b613d3060408301856136e0565b613d3d60608301846136e0565b95945050505050565b6000819050919050565b613d5981613d46565b8114613d6457600080fd5b50565b600081359050613d7681613d50565b92915050565b600060208284031215613d9257613d9161358b565b5b6000613da084828501613d67565b91505092915050565b613db281613d46565b82525050565b6000602082019050613dcd6000830184613da9565b92915050565b60008060408385031215613dea57613de961358b565b5b6000613df885828601613721565b9250506020613e0985828601613694565b9150509250929050565b6000613e1e8261366b565b9050919050565b613e2e81613e13565b8114613e3957600080fd5b50565b600081359050613e4b81613e25565b92915050565b6000819050919050565b613e6481613e51565b8114613e6f57600080fd5b50565b600081359050613e8181613e5b565b92915050565b600080600080600060a08688031215613ea357613ea261358b565b5b6000613eb188828901613e3c565b9550506020613ec288828901613721565b9450506040613ed388828901613721565b9350506060613ee488828901613e72565b9250506080613ef588828901613e72565b9150509295509295909350565b6000604082019050613f1760008301856136e0565b613f2460208301846136e0565b9392505050565b60008060408385031215613f4257613f4161358b565b5b6000613f5085828601613d67565b9250506020613f6185828601613694565b9150509250929050565b6000613f768261366b565b9050919050565b613f8681613f6b565b8114613f9157600080fd5b50565b600081359050613fa381613f7d565b92915050565b600080600080600060a08688031215613fc557613fc461358b565b5b6000613fd388828901613f94565b9550506020613fe488828901613721565b9450506040613ff588828901613721565b935050606061400688828901613aa4565b925050608061401788828901613ac9565b9150509295509295909350565b60008060006060848603121561403d5761403c61358b565b5b600061404b86828701613f94565b935050602061405c86828701613caa565b925050604061406d86828701613caa565b9150509250925092565b6000806040838503121561408e5761408d61358b565b5b600061409c85828601613694565b92505060206140ad85828601613694565b9150509250929050565b600081519050919050565b600082825260208201905092915050565b6000819050602082019050919050565b60006140ef8383613879565b60208301905092915050565b6000602082019050919050565b6000614113826140b7565b61411d81856140c2565b9350614128836140d3565b8060005b8381101561415957815161414088826140e3565b975061414b836140fb565b92505060018101905061412c565b5085935050505092915050565b600060208201905081810360008301526141808184614108565b905092915050565b61419181613e51565b82525050565b60006020820190506141ac6000830184614188565b92915050565b60006060820190506141c760008301866136e0565b6141d460208301856136e0565b6141e160408301846136e0565b949350505050565b60008060008060006102a086880312156142065761420561358b565b5b600061421488828901613b03565b95505061022061422688828901613721565b94505061024061423888828901613721565b93505061026061424a88828901613721565b92505061028061425c88828901613721565b9150509295509295909350565b61427281613849565b82525050565b61428181613801565b82525050565b6142908161366b565b82525050565b6000819050919050565b60006142bb6142b66142b18461364b565b614296565b61364b565b9050919050565b60006142cd826142a0565b9050919050565b60006142df826142c2565b9050919050565b6142ef816142d4565b82525050565b600060808201905061430a6000830187614269565b6143176020830186614278565b6143246040830185614287565b61433160608301846142e6565b95945050505050565b7f4e487b7100000000000000000000000000000000000000000000000000000000600052603260045260246000fd5b60008151905061437881613e25565b92915050565b6000602082840312156143945761439361358b565b5b60006143a284828501614369565b91505092915050565b7f4e487b7100000000000000000000000000000000000000000000000000000000600052601160045260246000fd5b60006143e582613e51565b91506143f083613e51565b9250827f7fffffffffffffffffffffffffffffffffffffffffffffffffffffffffffffff048211600084136000841316161561442f5761442e6143ab565b5b817f8000000000000000000000000000000000000000000000000000000000000000058312600084126000841316161561446c5761446b6143ab565b5b827f800000000000000000000000000000000000000000000000000000000000000005821260008413600084121616156144a9576144a86143ab565b5b827f7fffffffffffffffffffffffffffffffffffffffffffffffffffffffffffffff05821260008412600084121616156144e6576144e56143ab565b5b828202905092915050565b60006144fc82613e51565b915061450783613e51565b9250817f7fffffffffffffffffffffffffffffffffffffffffffffffffffffffffffffff03831360008312151615614542576145416143ab565b5b817f800000000000000000000000000000000000000000000000000000000000000003831260008312161561457a576145796143ab565b5b828201905092915050565b6000815190506145948161370a565b92915050565b6000602082840312156145b0576145af61358b565b5b60006145be84828501614585565b91505092915050565b6145d0816137b9565b82525050565b6145df81613801565b82525050565b6145ee81613849565b82525050565b6145fd8161366b565b82525050565b61460c816136d6565b82525050565b6102208201600082015161462960008501826145c7565b50602082015161463c60208501826145d6565b50604082015161464f60408501826145e5565b50606082015161466260608501826145f4565b5060808201516146756080850182614603565b5060a082015161468860a0850182614603565b5060c082015161469b60c0850182614603565b5060e08201516146ae60e0850182614603565b506101008201516146c3610100850182614603565b506101208201516146d8610120850182614603565b506101408201516146ed610140850182614603565b50610160820151614702610160850182614603565b50610180820151614717610180850182614603565b506101a082015161472c6101a0850182614603565b506101c08201516147416101c0850182614603565b506101e08201516147566101e0850182614603565b5061020082015161476b6102008501826145f4565b50505050565b61477a816136d6565b82525050565b6000610240820190506147966000830185614612565b6147a4610220830184614771565b9392505050565b6000610220820190506147c16000830184614612565b92915050565b60006147d2826136d6565b91506147dd836136d6565b9250827fffffffffffffffffffffffffffffffffffffffffffffffffffffffffffffffff03821115614812576148116143ab565b5b828201905092915050565b8082525050565b6000602082019050614839600083018461481d565b92915050565b60008151905061484e81613e5b565b92915050565b60006020828403121561486a5761486961358b565b5b60006148788482850161483f565b91505092915050565b600061488c8261366b565b9050919050565b61489c81614881565b81146148a757600080fd5b50565b6000815190506148b981614893565b92915050565b6000602082840312156148d5576148d461358b565b5b60006148e3848285016148aa565b91505092915050565b60006148f7826142c2565b9050919050565b614907816148ec565b82525050565b600060408201905061492260008301856148fe565b61492f6020830184614771565b9392505050565b61493f81613e51565b82525050565b600060a08201905061495a6000830188614771565b6149676020830187614936565b6149746040830186614936565b6149816060830185614771565b61498e6080830184614771565b9695505050505050565b60006040820190506149ad6000830185614771565b6149ba6020830184614771565b9392505050565b600082825260208201905092915050565b7f416363657373436f6e74726f6c3a2063616e206f6e6c792072656e6f756e636560008201527f20726f6c657320666f722073656c660000000000000000000000000000000000602082015250565b6000614a2e602f836149c1565b9150614a39826149d2565b604082019050919050565b60006020820190508181036000830152614a5d81614a21565b9050919050565b600081519050614a7381613c93565b92915050565b600060208284031215614a8f57614a8e61358b565b5b6000614a9d84828501614a64565b91505092915050565b6000614ab1826136d6565b91507fffffffffffffffffffffffffffffffffffffffffffffffffffffffffffffffff8203614ae357614ae26143ab565b5b600182019050919050565b6000614af9826136d6565b9150614b04836136d6565b925082821015614b1757614b166143ab565b5b828203905092915050565b6000614b2d82613e51565b9150614b3883613e51565b9250827f800000000000000000000000000000000000000000000000000000000000000001821260008412151615614b7357614b726143ab565b5b827f7fffffffffffffffffffffffffffffffffffffffffffffffffffffffffffffff018213600084121615614bab57614baa6143ab565b5b828203905092915050565b6000604082019050614bcb600083018561481d565b614bd86020830184614771565b9392505050565b600080600060608486031215614bf857614bf761358b565b5b6000614c0686828701614585565b9350506020614c1786828701614585565b9250506040614c2886828701614585565b9150509250925092565b7f5a65726f2074656e6f7200000000000000000000000000000000000000000000600082015250565b6000614c68600a836149c1565b9150614c7382614c32565b602082019050919050565b60006020820190508181036000830152614c9781614c5b565b9050919050565b7f53616665436173743a2076616c756520646f65736e27742066697420696e206160008201527f6e20696e74323536000000000000000000000000000000000000000000000000602082015250565b6000614cfa6028836149c1565b9150614d0582614c9e565b604082019050919050565b60006020820190508181036000830152614d2981614ced565b9050919050565b600081905092915050565b7f416363657373436f6e74726f6c3a206163636f756e7420000000000000000000600082015250565b6000614d71601783614d30565b9150614d7c82614d3b565b601782019050919050565b600081519050919050565b60005b83811015614db0578082015181840152602081019050614d95565b83811115614dbf576000848401525b50505050565b6000614dd082614d87565b614dda8185614d30565b9350614dea818560208601614d92565b80840191505092915050565b7f206973206d697373696e6720726f6c6520000000000000000000000000000000600082015250565b6000614e2c601183614d30565b9150614e3782614df6565b601182019050919050565b6000614e4d82614d64565b9150614e598285614dc5565b9150614e6482614e1f565b9150614e708284614dc5565b91508190509392505050565b6000614e8782614d87565b614e9181856149c1565b9350614ea1818560208601614d92565b614eaa81613a08565b840191505092915050565b60006020820190508181036000830152614ecf8184614e7c565b905092915050565b7f4e487b7100000000000000000000000000000000000000000000000000000000600052603160045260246000fd5b6000614f11826136d6565b9150614f1c836136d6565b9250817fffffffffffffffffffffffffffffffffffffffffffffffffffffffffffffffff0483118215151615614f5557614f546143ab565b5b828202905092915050565b6000614f6b826136d6565b915060008203614f7e57614f7d6143ab565b5b600182039050919050565b7f537472696e67733a20686578206c656e67746820696e73756666696369656e74600082015250565b6000614fbf6020836149c1565b9150614fca82614f89565b602082019050919050565b60006020820190508181036000830152614fee81614fb2565b905091905056fea2646970667358221220f1c1872e79f927bb5f5cd935821ddd86c11b0477f8d002e4403c718802ef819b64736f6c634300080e0033",
  "immutableReferences": {},
  "source": "// SPDX-License-Identifier: MIT\npragma solidity ^0.8.4;\n\nimport \"@openzeppelin/contracts/access/AccessControl.sol\";\nimport \"@openzeppelin/contracts/utils/structs/EnumerableSet.sol\";\n\nimport \"./libraries/MarketLib.sol\";\nimport \"./libraries/OptionLib.sol\";\nimport \"./libraries/MathLib.sol\";\nimport \"./interfaces/EOption.sol\";\nimport \"./pools/Pool.sol\";\nimport \"./pools/MarketMaker.sol\";\nimport \"./VolatilityChain.sol\";\nimport \"./VolatilityToken.sol\";\n\ncontract OptionVault is EOption, AccessControl{\n  using MathLib for uint256;\n  using MarketLib for uint256;\n  \n  using OptionLib for OptionLib.Option;\n  using EnumerableSet for EnumerableSet.UintSet;\n  using EnumerableSet for EnumerableSet.AddressSet;\n\n  bytes32 public constant EXCHANGE = keccak256(\"EXCHANGE\");\n  \n  // list of option contracts\n  OptionLib.Option[] internal aOption;\n  mapping(address=>mapping(address=> EnumerableSet.UintSet)) internal mHolderAtiveOption;\n  mapping(address=>EnumerableSet.UintSet) internal mActiveOption;\n  // mapping(address=>uint256) public mActiveContractCount = 0;\n  mapping(address=>int256) public mNetNotional;\n  mapping(address=>uint256) public mPutCollateral;\n  mapping(address=>uint256) public mDeltaAtZero;\n  mapping(address=>uint256) public mDeltaAtMax;\n\n  // immutable and constant values\n  uint256 internal constant BASE  = 1e18;\n  uint256 internal constant SCALING = 1e5;\n\n  // constructor\n  constructor(){\n    _setupRole(DEFAULT_ADMIN_ROLE, msg.sender); }\n\n  // function to add new option contracts, only executable by Exchange contract as owner\n  // arguments: tenor of option contracts (in seconds), strike (consistent with price source decimals), amount (consistent with underlying token decimals), option type (call or put), option side (buy or sell), premium (in funding token decimals), cost (in funding token decimals), price (in price source decimals), volatility (in default decimals 18), holder address\n  // return id of option contract\n  function addOption(OptionLib.Option memory _option, uint256 _premium, uint256 _collateral, uint256 _price, uint256 _vol) external onlyRole(EXCHANGE) returns(uint256 _id){\n    require(_option.tenor > 0, \"Zero tenor\");\n    _id = aOption.length;\n    // Arguments: option type, option side, contract status (default to draft), contract holder address, contract id, creation timestamp, effective timestamp (default to 0), tenor in seconds, maturity timestamp (default to 0), excersie timestamp (default to 0), amount or size of contract, current spot price, option strike, implied volatility, calculated premium and total cost including collaterals.\n    aOption.push(OptionLib.Option(_option.poType, _option.side, OptionLib.OptionStatus.Draft, _option.holder, _id, block.timestamp,  0, _option.tenor, 0,  0, _option.amount, _price, _option.strike, _vol, _premium, _collateral, _option.pool));}\n\n  // function to stamp option as an active contract, only executable by Exchange contract as owner\n  // arguments: contract id and holder address\n  function stampActiveOption(uint256 _id, address _holder) external onlyRole(EXCHANGE){\n    // update Option records\n    OptionLib.Option storage _option = aOption[_id];\n    _option.effectiveTime = block.timestamp;\n    _option.maturity = block.timestamp + _option.tenor;\n    _option.status = OptionLib.OptionStatus.Active;\n    \n    // update ownership and exposure records\n    address _poolAddress = _option.pool;\n    mNetNotional[_poolAddress] += _option.getNetNotional();\n    mPutCollateral[_poolAddress] += _option.sellPutCollateral();\n    mDeltaAtZero[_poolAddress] += _option.calcDeltaAtZero();\n    mDeltaAtMax[_poolAddress] += _option.calcDeltaAtMax();\n\n    mHolderAtiveOption[_poolAddress][_holder].add(_id);\n    mActiveOption[_poolAddress].add(_id);}\n\n  // function to stamp option as an expired contract, only executable by Exchange contract as owner\n  // arguments: contract id\n  function stampExpiredOption(uint256 _id)  external onlyRole(EXCHANGE){\n    // update Option records\n    OptionLib.Option storage _option = aOption[_id];\n    address _poolAddress = _option.pool;\n    address _holder = _option.holder;\n    mActiveOption[_poolAddress].remove(_id);\n    mHolderAtiveOption[_poolAddress][_holder].remove(_id);\n\n    mNetNotional[_poolAddress] -= _option.getNetNotional();\n    mDeltaAtZero[_poolAddress] -= Math.min(mDeltaAtZero[_poolAddress], _option.calcDeltaAtZero());\n    mDeltaAtMax[_poolAddress] -= Math.min(mDeltaAtMax[_poolAddress], _option.calcDeltaAtMax());\n    mPutCollateral[_poolAddress] -= Math.min(mPutCollateral[_poolAddress], _option.sellPutCollateral());\n   \n    _option.status = OptionLib.OptionStatus.Expired;\n    _option.exerciseTime = block.timestamp;}\n\n  // functions to get information of the option list -> ONLY USED in VIEW, gas cost unlimited\n  function getHolderOptions(address _pool, address _address) external view returns(uint256[] memory){\n    return mHolderAtiveOption[_pool][_address].values();}\n  function getOption(uint256 _id) external view returns(OptionLib.Option memory) {return aOption[_id];}\n  function getActiveOptionCount(address _poolAddress) external view returns(uint256) {return mActiveOption[_poolAddress].length();}\n\n  // function getHoldersOption(uint256 _index, address _address) external view returns(OptionLib.Option memory) {return aOption[activeOptionsPerOwner[_address].at(_index)];}\n  function getOptionInfo(uint256 _id) external view returns(OptionLib.OptionStatus, OptionLib.OptionSide, address, Pool) {\n    require(_id< aOption.length);\n    return (aOption[_id].status, aOption[_id].side, aOption[_id].holder, Pool(aOption[_id].pool));}\n\n  // functions to get the hedging inputs\n  // maximum hedges needed \n  // function getMaxHedge(Pool _pool) external view returns (uint256){\n  //   VolatilityChain _volChain = _pool.volChain();\n  //   address _poolAddress = address(_pool);\n  //   return Math.max(mDeltaAtZero[_poolAddress], mDeltaAtMax[_poolAddress]).ethmul(_volChain.queryPrice());}\n\n  // aggregate delta of all active contracts, optional including expiring contracts yet stamped as Expired. Arguments: spot price and whether to include expiring contracts\n  // function calculateAggregateDelta(address _pool, uint256 _price, bool _includeExpiring) public view returns(int256 _delta){\n  //   _delta= 0;\n  //   for(uint256 i=0;i<activeContractCount;i++){\n  //     OptionLib.Option storage _option = aOption[uint256(activeOptions.at(i))];\n  //     uint256 _maturityLeft = _option.calcRemainingMaturity();\n  //     uint256 _vol = volChain.queryVol(_maturityLeft);\n  //     _delta += _option.calcDelta(_price, _vol, _includeExpiring);}}\n  \n  // aggregate gamma. Arguments: spot price\n  // function calculateAggregateGamma(address _pool, uint256 _price) external view returns(int256 _gamma){\n  //   _gamma= 0;\n  //   for(uint256 i=0;i<activeContractCount;i++){\n  //     uint256 _id = uint256(activeOptions.at(i));\n  //     if(aOption[_id].status== OptionLib.OptionStatus.Active  && (aOption[_id].maturity > block.timestamp)){\n  //       uint256 _vol = volChain.queryVol(aOption[_id].maturity - block.timestamp);\n  //       int256 _contractGamma = SafeCast.toInt256(OptionLib.calcGamma(_price, aOption[_id].strike, _vol).ethmul(aOption[_id].amount));\n  //       if(aOption[_id].side==OptionLib.OptionSide.Sell){ _gamma -= _contractGamma;}\n  //       else{_gamma += _contractGamma;}}}}\n\n  // hypothetical gamma assuming at the money and 1-day expiry\n  // function calculateSpotGamma() external view returns(int256 _gamma){\n  //   uint256 _vol = volChain.queryVol(86400);\n  //   _gamma = SafeCast.toInt256(OptionLib.calcGamma(BASE, BASE, _vol));}\n\n  // functions used in expiring option contracts\n  // contract payoff of specified contract ID\n  function getContractPayoff(uint256 _id) external view returns(uint256 _payoff, uint256 _payback, uint256 _collateral){\n    Pool _pool = Pool(aOption[_id].pool);\n    VolatilityChain _volChain = _pool.marketMaker().getVolatilityChain();\n    return aOption[_id].calcPayoff(_volChain.queryPrice());}\n    \n  // check if any option contract is expiring\n  function anyOptionExpiring(address _poolAddress) external view returns(bool _isExpiring) {\n    _isExpiring = false;\n    uint256 _count = mActiveOption[_poolAddress].length();\n    for(uint256 i=0;i<_count;i++){\n      if(aOption[uint256(mActiveOption[_poolAddress].at(i))].isExpiring()){\n        _isExpiring = true;\n        break;}}}\n  // get the id of any expiring contract -> please only run it on view function as it has unlimited gas usage.\n  function getExpiringOptionId(address _poolAddress) external view returns(uint256 _id){\n    // uint256[] memory _id;\n    uint256 _count = mActiveOption[_poolAddress].length();\n    for(uint256 i=0;i<_count;i++){\n      uint256 _id_i = uint256(mActiveOption[_poolAddress].at(i));\n      if(aOption[_id_i].isExpiring()){\n        _id = _id_i;\n        break;}}}\n\n  function tryATMOptionCost(Pool _pool, uint256 _tenor, uint256 _amount, OptionLib.PayoffType _poType, OptionLib.OptionSide _side) public view returns(uint256 _premium, uint256 _collateral, uint256 _price, uint256 _vol){\n    OptionLib.Option memory _option = OptionLib.Option(_poType, _side, OptionLib.OptionStatus.Draft, msg.sender, 0, block.timestamp,  0, _tenor, 0,  0, _amount, 0, 0, 0, 0, 0, address(_pool));\n    return calcOptionCost(_option, true);\n  }\n\n  function calcOptionCost(OptionLib.Option memory _option, bool _forceATM) public view returns(uint256 _premium, uint256 _collateral, uint256 _price, uint256 _vol){\n    Pool _pool = Pool(_option.pool);\n    MarketMaker _market = _pool.marketMaker();\n\n    int256 _newNetNotional = mNetNotional[_option.pool] + SafeCast.toInt256(_option.amount) * (_option.side==OptionLib.OptionSide.Sell? -1: int(1));\n    (_price, _vol) = calcImpliedVol(_market, _option.tenor, _pool.volCapacityFactor(), mNetNotional[_option.pool], _newNetNotional);\n    _option.spot = _price;\n    _option.volatility = _vol;\n    if (_forceATM){_option.strike = _price;}\n\n    _premium = _option.calcPremium(_market.loanInterest());\n    _collateral = _option.calcCollateral();}\n\n  function calcImpliedVol(MarketMaker _market, uint256 _tenor, uint256 _volCapacityFactor, int256 _currentNetNotional, int256 _newNetNotional) public view returns(uint256, uint256){\n    VolatilityChain _volChain = _market.getVolatilityChain();\n    uint256 _price = _volChain.queryPrice();\n    uint256 _impVol = MarketLib.calcRiskPremium(MarketLib.getGrossCapital(_market, _price), _currentNetNotional, _newNetNotional, _volChain.queryVol(_tenor), _volCapacityFactor);\n    return (_price, _impVol.ethmul(_volChain.getSqrtRatio(_tenor)));}\n    \n  // functions related to capital calculation, addition and removals\n  // calculate capitals. Arguments: net for net capital (removing all collaterals and max exposures of option contracts) or gross (including all exposures in the underlying and funding tokens), average for average capital (total divided by number of Pool tokens) or gross (not divided by tokens)\n  function calcCapital(Pool _pool, bool _net, bool _average) external view returns(uint256){\n    MarketMaker _market = _pool.marketMaker();\n    VolatilityChain _volChain = _market.getVolatilityChain();\n    uint256 _price = _volChain.queryPrice();\n    uint256 _capital = MarketLib.getGrossCapital(_market, _price);\n    address _poolAddress = address(_pool);\n\n    if(_net){ \n      uint256 _maxHedge = Math.max(mDeltaAtZero[_poolAddress], mDeltaAtMax[_poolAddress]).ethmul(_price);\n      _capital -= Math.min(_maxHedge + mPutCollateral[_poolAddress], _capital);}\n\n    if(_average){ \n      uint256 _poolSupply = _pool.totalSupply();\n      if(_poolSupply > 0) {\n        _capital = _capital.ethdiv(_poolSupply); }\n      else if(_poolSupply == 0 && _capital == 0) {\n        _capital = BASE;}}\n    \n    return _capital;}\n}\n",
  "sourcePath": "/Users/mac/Documents/GitHub/moret/contracts/OptionVault.sol",
  "compiler": {
    "name": "solc",
    "version": "0.8.14+commit.80d49f37.Emscripten.clang"
  },
  "schemaVersion": "3.4.3",
  "updatedAt": "2022-05-21T16:26:27.485Z",
  "networkType": "ethereum",
  "devdoc": {
    "kind": "dev",
    "methods": {
      "getRoleAdmin(bytes32)": {
        "details": "Returns the admin role that controls `role`. See {grantRole} and {revokeRole}. To change a role's admin, use {_setRoleAdmin}."
      },
      "grantRole(bytes32,address)": {
        "details": "Grants `role` to `account`. If `account` had not been already granted `role`, emits a {RoleGranted} event. Requirements: - the caller must have ``role``'s admin role."
      },
      "hasRole(bytes32,address)": {
        "details": "Returns `true` if `account` has been granted `role`."
      },
      "renounceRole(bytes32,address)": {
        "details": "Revokes `role` from the calling account. Roles are often managed via {grantRole} and {revokeRole}: this function's purpose is to provide a mechanism for accounts to lose their privileges if they are compromised (such as when a trusted device is misplaced). If the calling account had been revoked `role`, emits a {RoleRevoked} event. Requirements: - the caller must be `account`."
      },
      "revokeRole(bytes32,address)": {
        "details": "Revokes `role` from `account`. If `account` had been granted `role`, emits a {RoleRevoked} event. Requirements: - the caller must have ``role``'s admin role."
      },
      "supportsInterface(bytes4)": {
        "details": "See {IERC165-supportsInterface}."
      }
    },
    "version": 1
  },
  "userdoc": {
    "kind": "user",
    "methods": {},
    "version": 1
  }
}