{
  "contractName": "OptionVault",
  "abi": [
    {
      "inputs": [
        {
          "internalType": "address",
          "name": "_volChainAddress",
          "type": "address"
        },
        {
          "internalType": "address",
          "name": "_underlying",
          "type": "address"
        },
        {
          "internalType": "address",
          "name": "_funding",
          "type": "address"
        },
        {
          "internalType": "address",
          "name": "_aaveAddress",
          "type": "address"
        }
      ],
      "stateMutability": "nonpayable",
      "type": "constructor"
    },
    {
      "anonymous": false,
      "inputs": [
        {
          "indexed": true,
          "internalType": "bytes32",
          "name": "role",
          "type": "bytes32"
        },
        {
          "indexed": true,
          "internalType": "bytes32",
          "name": "previousAdminRole",
          "type": "bytes32"
        },
        {
          "indexed": true,
          "internalType": "bytes32",
          "name": "newAdminRole",
          "type": "bytes32"
        }
      ],
      "name": "RoleAdminChanged",
      "type": "event"
    },
    {
      "anonymous": false,
      "inputs": [
        {
          "indexed": true,
          "internalType": "bytes32",
          "name": "role",
          "type": "bytes32"
        },
        {
          "indexed": true,
          "internalType": "address",
          "name": "account",
          "type": "address"
        },
        {
          "indexed": true,
          "internalType": "address",
          "name": "sender",
          "type": "address"
        }
      ],
      "name": "RoleGranted",
      "type": "event"
    },
    {
      "anonymous": false,
      "inputs": [
        {
          "indexed": true,
          "internalType": "bytes32",
          "name": "role",
          "type": "bytes32"
        },
        {
          "indexed": true,
          "internalType": "address",
          "name": "account",
          "type": "address"
        },
        {
          "indexed": true,
          "internalType": "address",
          "name": "sender",
          "type": "address"
        }
      ],
      "name": "RoleRevoked",
      "type": "event"
    },
    {
      "inputs": [],
      "name": "DEFAULT_ADMIN_ROLE",
      "outputs": [
        {
          "internalType": "bytes32",
          "name": "",
          "type": "bytes32"
        }
      ],
      "stateMutability": "view",
      "type": "function",
      "constant": true
    },
    {
      "inputs": [],
      "name": "EXCHANGE_ROLE",
      "outputs": [
        {
          "internalType": "bytes32",
          "name": "",
          "type": "bytes32"
        }
      ],
      "stateMutability": "view",
      "type": "function",
      "constant": true
    },
    {
      "inputs": [],
      "name": "aaveAddress",
      "outputs": [
        {
          "internalType": "address",
          "name": "",
          "type": "address"
        }
      ],
      "stateMutability": "view",
      "type": "function",
      "constant": true
    },
    {
      "inputs": [],
      "name": "funding",
      "outputs": [
        {
          "internalType": "address",
          "name": "",
          "type": "address"
        }
      ],
      "stateMutability": "view",
      "type": "function",
      "constant": true
    },
    {
      "inputs": [
        {
          "internalType": "bytes32",
          "name": "role",
          "type": "bytes32"
        }
      ],
      "name": "getRoleAdmin",
      "outputs": [
        {
          "internalType": "bytes32",
          "name": "",
          "type": "bytes32"
        }
      ],
      "stateMutability": "view",
      "type": "function",
      "constant": true
    },
    {
      "inputs": [
        {
          "internalType": "bytes32",
          "name": "role",
          "type": "bytes32"
        },
        {
          "internalType": "address",
          "name": "account",
          "type": "address"
        }
      ],
      "name": "grantRole",
      "outputs": [],
      "stateMutability": "nonpayable",
      "type": "function"
    },
    {
      "inputs": [
        {
          "internalType": "bytes32",
          "name": "role",
          "type": "bytes32"
        },
        {
          "internalType": "address",
          "name": "account",
          "type": "address"
        }
      ],
      "name": "hasRole",
      "outputs": [
        {
          "internalType": "bool",
          "name": "",
          "type": "bool"
        }
      ],
      "stateMutability": "view",
      "type": "function",
      "constant": true
    },
    {
      "inputs": [],
      "name": "optionCounter",
      "outputs": [
        {
          "internalType": "uint256",
          "name": "",
          "type": "uint256"
        }
      ],
      "stateMutability": "view",
      "type": "function",
      "constant": true
    },
    {
      "inputs": [],
      "name": "overCollateral",
      "outputs": [
        {
          "internalType": "uint256",
          "name": "",
          "type": "uint256"
        }
      ],
      "stateMutability": "view",
      "type": "function",
      "constant": true
    },
    {
      "inputs": [
        {
          "internalType": "bytes32",
          "name": "role",
          "type": "bytes32"
        },
        {
          "internalType": "address",
          "name": "account",
          "type": "address"
        }
      ],
      "name": "renounceRole",
      "outputs": [],
      "stateMutability": "nonpayable",
      "type": "function"
    },
    {
      "inputs": [
        {
          "internalType": "bytes32",
          "name": "role",
          "type": "bytes32"
        },
        {
          "internalType": "address",
          "name": "account",
          "type": "address"
        }
      ],
      "name": "revokeRole",
      "outputs": [],
      "stateMutability": "nonpayable",
      "type": "function"
    },
    {
      "inputs": [
        {
          "internalType": "bytes4",
          "name": "interfaceId",
          "type": "bytes4"
        }
      ],
      "name": "supportsInterface",
      "outputs": [
        {
          "internalType": "bool",
          "name": "",
          "type": "bool"
        }
      ],
      "stateMutability": "view",
      "type": "function",
      "constant": true
    },
    {
      "inputs": [],
      "name": "underlying",
      "outputs": [
        {
          "internalType": "address",
          "name": "",
          "type": "address"
        }
      ],
      "stateMutability": "view",
      "type": "function",
      "constant": true
    },
    {
      "inputs": [],
      "name": "volChainAddress",
      "outputs": [
        {
          "internalType": "address",
          "name": "",
          "type": "address"
        }
      ],
      "stateMutability": "view",
      "type": "function",
      "constant": true
    },
    {
      "inputs": [],
      "name": "descriptionHash",
      "outputs": [
        {
          "internalType": "bytes32",
          "name": "",
          "type": "bytes32"
        }
      ],
      "stateMutability": "view",
      "type": "function",
      "constant": true
    },
    {
      "inputs": [
        {
          "internalType": "uint256",
          "name": "_tenor",
          "type": "uint256"
        },
        {
          "internalType": "uint256",
          "name": "_strike",
          "type": "uint256"
        },
        {
          "internalType": "uint256",
          "name": "_amount",
          "type": "uint256"
        },
        {
          "internalType": "enum OptionLibrary.PayoffType",
          "name": "_poType",
          "type": "uint8"
        },
        {
          "internalType": "enum OptionLibrary.OptionSide",
          "name": "_side",
          "type": "uint8"
        },
        {
          "internalType": "uint256",
          "name": "_premium",
          "type": "uint256"
        },
        {
          "internalType": "uint256",
          "name": "_cost",
          "type": "uint256"
        },
        {
          "internalType": "uint256",
          "name": "_price",
          "type": "uint256"
        },
        {
          "internalType": "uint256",
          "name": "_volatility",
          "type": "uint256"
        },
        {
          "internalType": "address",
          "name": "_holder",
          "type": "address"
        }
      ],
      "name": "addOption",
      "outputs": [
        {
          "internalType": "uint256",
          "name": "_id",
          "type": "uint256"
        }
      ],
      "stateMutability": "nonpayable",
      "type": "function"
    },
    {
      "inputs": [
        {
          "internalType": "uint256",
          "name": "_id",
          "type": "uint256"
        }
      ],
      "name": "getOptionHolder",
      "outputs": [
        {
          "internalType": "address",
          "name": "",
          "type": "address"
        }
      ],
      "stateMutability": "view",
      "type": "function",
      "constant": true
    },
    {
      "inputs": [
        {
          "internalType": "address",
          "name": "_address",
          "type": "address"
        }
      ],
      "name": "getHoldersOptionCount",
      "outputs": [
        {
          "internalType": "uint256",
          "name": "",
          "type": "uint256"
        }
      ],
      "stateMutability": "view",
      "type": "function",
      "constant": true
    },
    {
      "inputs": [
        {
          "internalType": "uint256",
          "name": "_index",
          "type": "uint256"
        },
        {
          "internalType": "address",
          "name": "_address",
          "type": "address"
        }
      ],
      "name": "getHoldersOption",
      "outputs": [
        {
          "components": [
            {
              "internalType": "enum OptionLibrary.PayoffType",
              "name": "poType",
              "type": "uint8"
            },
            {
              "internalType": "enum OptionLibrary.OptionSide",
              "name": "side",
              "type": "uint8"
            },
            {
              "internalType": "enum OptionLibrary.OptionStatus",
              "name": "status",
              "type": "uint8"
            },
            {
              "internalType": "address",
              "name": "holder",
              "type": "address"
            },
            {
              "internalType": "uint256",
              "name": "id",
              "type": "uint256"
            },
            {
              "internalType": "uint256",
              "name": "createTime",
              "type": "uint256"
            },
            {
              "internalType": "uint256",
              "name": "effectiveTime",
              "type": "uint256"
            },
            {
              "internalType": "uint256",
              "name": "tenor",
              "type": "uint256"
            },
            {
              "internalType": "uint256",
              "name": "maturity",
              "type": "uint256"
            },
            {
              "internalType": "uint256",
              "name": "exerciseTime",
              "type": "uint256"
            },
            {
              "internalType": "uint256",
              "name": "amount",
              "type": "uint256"
            },
            {
              "internalType": "uint256",
              "name": "spot",
              "type": "uint256"
            },
            {
              "internalType": "uint256",
              "name": "strike",
              "type": "uint256"
            },
            {
              "internalType": "uint256",
              "name": "volatility",
              "type": "uint256"
            },
            {
              "internalType": "uint256",
              "name": "premium",
              "type": "uint256"
            },
            {
              "internalType": "uint256",
              "name": "cost",
              "type": "uint256"
            }
          ],
          "internalType": "struct OptionLibrary.Option",
          "name": "",
          "type": "tuple"
        }
      ],
      "stateMutability": "view",
      "type": "function",
      "constant": true
    },
    {
      "inputs": [
        {
          "internalType": "uint256",
          "name": "_id",
          "type": "uint256"
        }
      ],
      "name": "getOption",
      "outputs": [
        {
          "components": [
            {
              "internalType": "enum OptionLibrary.PayoffType",
              "name": "poType",
              "type": "uint8"
            },
            {
              "internalType": "enum OptionLibrary.OptionSide",
              "name": "side",
              "type": "uint8"
            },
            {
              "internalType": "enum OptionLibrary.OptionStatus",
              "name": "status",
              "type": "uint8"
            },
            {
              "internalType": "address",
              "name": "holder",
              "type": "address"
            },
            {
              "internalType": "uint256",
              "name": "id",
              "type": "uint256"
            },
            {
              "internalType": "uint256",
              "name": "createTime",
              "type": "uint256"
            },
            {
              "internalType": "uint256",
              "name": "effectiveTime",
              "type": "uint256"
            },
            {
              "internalType": "uint256",
              "name": "tenor",
              "type": "uint256"
            },
            {
              "internalType": "uint256",
              "name": "maturity",
              "type": "uint256"
            },
            {
              "internalType": "uint256",
              "name": "exerciseTime",
              "type": "uint256"
            },
            {
              "internalType": "uint256",
              "name": "amount",
              "type": "uint256"
            },
            {
              "internalType": "uint256",
              "name": "spot",
              "type": "uint256"
            },
            {
              "internalType": "uint256",
              "name": "strike",
              "type": "uint256"
            },
            {
              "internalType": "uint256",
              "name": "volatility",
              "type": "uint256"
            },
            {
              "internalType": "uint256",
              "name": "premium",
              "type": "uint256"
            },
            {
              "internalType": "uint256",
              "name": "cost",
              "type": "uint256"
            }
          ],
          "internalType": "struct OptionLibrary.Option",
          "name": "",
          "type": "tuple"
        }
      ],
      "stateMutability": "view",
      "type": "function",
      "constant": true
    },
    {
      "inputs": [],
      "name": "getAggregateNotional",
      "outputs": [
        {
          "internalType": "uint256",
          "name": "_notional",
          "type": "uint256"
        }
      ],
      "stateMutability": "view",
      "type": "function",
      "constant": true
    },
    {
      "inputs": [
        {
          "internalType": "address",
          "name": "_address",
          "type": "address"
        }
      ],
      "name": "getGrossCapital",
      "outputs": [
        {
          "internalType": "uint256",
          "name": "_capital",
          "type": "uint256"
        }
      ],
      "stateMutability": "view",
      "type": "function",
      "constant": true
    },
    {
      "inputs": [],
      "name": "getMaxHedge",
      "outputs": [
        {
          "internalType": "uint256",
          "name": "",
          "type": "uint256"
        }
      ],
      "stateMutability": "view",
      "type": "function",
      "constant": true
    },
    {
      "inputs": [],
      "name": "getSellPutCollateral",
      "outputs": [
        {
          "internalType": "uint256",
          "name": "_collateral",
          "type": "uint256"
        }
      ],
      "stateMutability": "view",
      "type": "function",
      "constant": true
    },
    {
      "inputs": [
        {
          "internalType": "uint256",
          "name": "_id",
          "type": "uint256"
        }
      ],
      "name": "getContractPayoff",
      "outputs": [
        {
          "internalType": "uint256",
          "name": "_payoff",
          "type": "uint256"
        },
        {
          "internalType": "uint256",
          "name": "_payback",
          "type": "uint256"
        }
      ],
      "stateMutability": "view",
      "type": "function",
      "constant": true
    },
    {
      "inputs": [
        {
          "internalType": "uint256",
          "name": "_id",
          "type": "uint256"
        },
        {
          "internalType": "uint256",
          "name": "_price",
          "type": "uint256"
        },
        {
          "internalType": "bool",
          "name": "_includeExpiring",
          "type": "bool"
        }
      ],
      "name": "calculateContractDelta",
      "outputs": [
        {
          "internalType": "int256",
          "name": "_delta",
          "type": "int256"
        }
      ],
      "stateMutability": "view",
      "type": "function",
      "constant": true
    },
    {
      "inputs": [
        {
          "internalType": "uint256",
          "name": "_price",
          "type": "uint256"
        },
        {
          "internalType": "bool",
          "name": "_includeExpiring",
          "type": "bool"
        }
      ],
      "name": "calculateAggregateDelta",
      "outputs": [
        {
          "internalType": "int256",
          "name": "_delta",
          "type": "int256"
        }
      ],
      "stateMutability": "view",
      "type": "function",
      "constant": true
    },
    {
      "inputs": [
        {
          "internalType": "uint256",
          "name": "_id",
          "type": "uint256"
        },
        {
          "internalType": "uint256",
          "name": "_price",
          "type": "uint256"
        }
      ],
      "name": "calculateContractGamma",
      "outputs": [
        {
          "internalType": "int256",
          "name": "_gamma",
          "type": "int256"
        }
      ],
      "stateMutability": "view",
      "type": "function",
      "constant": true
    },
    {
      "inputs": [],
      "name": "calculateAggregateGamma",
      "outputs": [
        {
          "internalType": "int256",
          "name": "_gamma",
          "type": "int256"
        }
      ],
      "stateMutability": "view",
      "type": "function",
      "constant": true
    },
    {
      "inputs": [],
      "name": "calculateSpotGamma",
      "outputs": [
        {
          "internalType": "int256",
          "name": "_gamma",
          "type": "int256"
        }
      ],
      "stateMutability": "view",
      "type": "function",
      "constant": true
    },
    {
      "inputs": [],
      "name": "anyOptionExpiring",
      "outputs": [
        {
          "internalType": "bool",
          "name": "_isExpiring",
          "type": "bool"
        }
      ],
      "stateMutability": "view",
      "type": "function",
      "constant": true
    },
    {
      "inputs": [
        {
          "internalType": "uint256",
          "name": "_id",
          "type": "uint256"
        }
      ],
      "name": "isExpiring",
      "outputs": [
        {
          "internalType": "bool",
          "name": "",
          "type": "bool"
        }
      ],
      "stateMutability": "view",
      "type": "function",
      "constant": true
    },
    {
      "inputs": [],
      "name": "getExpiringOptionId",
      "outputs": [
        {
          "internalType": "uint256",
          "name": "_id",
          "type": "uint256"
        }
      ],
      "stateMutability": "view",
      "type": "function",
      "constant": true
    },
    {
      "inputs": [
        {
          "internalType": "uint256",
          "name": "_id",
          "type": "uint256"
        },
        {
          "internalType": "address",
          "name": "_holder",
          "type": "address"
        }
      ],
      "name": "stampActiveOption",
      "outputs": [],
      "stateMutability": "nonpayable",
      "type": "function"
    },
    {
      "inputs": [
        {
          "internalType": "uint256",
          "name": "_id",
          "type": "uint256"
        }
      ],
      "name": "stampExercisedOption",
      "outputs": [],
      "stateMutability": "nonpayable",
      "type": "function"
    },
    {
      "inputs": [
        {
          "internalType": "uint256",
          "name": "_id",
          "type": "uint256"
        }
      ],
      "name": "stampExpiredOption",
      "outputs": [],
      "stateMutability": "nonpayable",
      "type": "function"
    },
    {
      "inputs": [
        {
          "internalType": "address",
          "name": "_address",
          "type": "address"
        },
        {
          "internalType": "uint256",
          "name": "_swapSlippage",
          "type": "uint256"
        }
      ],
      "name": "calcSwapTradesInTok",
      "outputs": [
        {
          "internalType": "int256",
          "name": "_tradeUnderlyingAmount",
          "type": "int256"
        },
        {
          "internalType": "int256",
          "name": "_tradeFundingAmount",
          "type": "int256"
        }
      ],
      "stateMutability": "view",
      "type": "function",
      "constant": true
    },
    {
      "inputs": [
        {
          "internalType": "address",
          "name": "_address",
          "type": "address"
        }
      ],
      "name": "getBalances",
      "outputs": [
        {
          "internalType": "uint256",
          "name": "_underlyingBalance",
          "type": "uint256"
        },
        {
          "internalType": "uint256",
          "name": "_fundingBalance",
          "type": "uint256"
        },
        {
          "internalType": "uint256",
          "name": "_collateralBalance",
          "type": "uint256"
        },
        {
          "internalType": "uint256",
          "name": "_debtBalance",
          "type": "uint256"
        }
      ],
      "stateMutability": "view",
      "type": "function",
      "constant": true
    },
    {
      "inputs": [
        {
          "internalType": "address",
          "name": "_address",
          "type": "address"
        },
        {
          "internalType": "uint256",
          "name": "_lendingPoolRateMode",
          "type": "uint256"
        }
      ],
      "name": "calcLoanRepaymentInTok",
      "outputs": [
        {
          "internalType": "uint256",
          "name": "_repayAmount",
          "type": "uint256"
        },
        {
          "internalType": "uint256",
          "name": "_repaySwapValue",
          "type": "uint256"
        }
      ],
      "stateMutability": "view",
      "type": "function",
      "constant": true
    },
    {
      "inputs": [
        {
          "internalType": "address",
          "name": "_address",
          "type": "address"
        },
        {
          "internalType": "uint256",
          "name": "_lendingPoolRateMode",
          "type": "uint256"
        }
      ],
      "name": "calcLoanTradesInTok",
      "outputs": [
        {
          "internalType": "int256",
          "name": "_loanTradeAmount",
          "type": "int256"
        },
        {
          "internalType": "int256",
          "name": "_collateralChange",
          "type": "int256"
        },
        {
          "internalType": "address",
          "name": "_loanAddress",
          "type": "address"
        },
        {
          "internalType": "address",
          "name": "_collateralAddress",
          "type": "address"
        }
      ],
      "stateMutability": "view",
      "type": "function",
      "constant": true
    },
    {
      "inputs": [
        {
          "internalType": "uint256",
          "name": "_tenor",
          "type": "uint256"
        }
      ],
      "name": "queryVol",
      "outputs": [
        {
          "internalType": "uint256",
          "name": "",
          "type": "uint256"
        }
      ],
      "stateMutability": "view",
      "type": "function",
      "constant": true
    },
    {
      "inputs": [],
      "name": "queryPrice",
      "outputs": [
        {
          "internalType": "uint256",
          "name": "",
          "type": "uint256"
        },
        {
          "internalType": "uint256",
          "name": "",
          "type": "uint256"
        }
      ],
      "stateMutability": "view",
      "type": "function",
      "constant": true
    },
    {
      "inputs": [],
      "name": "tokenHash",
      "outputs": [
        {
          "internalType": "bytes32",
          "name": "",
          "type": "bytes32"
        }
      ],
      "stateMutability": "view",
      "type": "function",
      "constant": true
    },
    {
      "inputs": [
        {
          "internalType": "uint256",
          "name": "_overCollateral",
          "type": "uint256"
        }
      ],
      "name": "resetOverCollateral",
      "outputs": [],
      "stateMutability": "nonpayable",
      "type": "function"
    }
  ],
  "bytecode": "0x6080604052600060025567016345785d8a0000600b553480156200002257600080fd5b5060405162005f9f38038062005f9f8339818101604052810190620000489190620003c1565b6200005d6000801b33620001de60201b60201c565b6200008f7f28d62fc77014de57a1bbaa8212ff0979fa61ab00d377b4b8d9762048fb41996133620001de60201b60201c565b83600760006101000a81548173ffffffffffffffffffffffffffffffffffffffff021916908373ffffffffffffffffffffffffffffffffffffffff16021790555083600660006101000a81548173ffffffffffffffffffffffffffffffffffffffff021916908373ffffffffffffffffffffffffffffffffffffffff16021790555081600a60006101000a81548173ffffffffffffffffffffffffffffffffffffffff021916908373ffffffffffffffffffffffffffffffffffffffff16021790555082600960006101000a81548173ffffffffffffffffffffffffffffffffffffffff021916908373ffffffffffffffffffffffffffffffffffffffff16021790555080600860006101000a81548173ffffffffffffffffffffffffffffffffffffffff021916908373ffffffffffffffffffffffffffffffffffffffff1602179055505050505062000433565b620001f08282620001f460201b60201c565b5050565b620002068282620002e560201b60201c565b620002e157600160008084815260200190815260200160002060000160008373ffffffffffffffffffffffffffffffffffffffff1673ffffffffffffffffffffffffffffffffffffffff16815260200190815260200160002060006101000a81548160ff021916908315150217905550620002866200034f60201b60201c565b73ffffffffffffffffffffffffffffffffffffffff168173ffffffffffffffffffffffffffffffffffffffff16837f2f8788117e7eff1d82e926ec794901d17c78024a50270940304540a733656f0d60405160405180910390a45b5050565b600080600084815260200190815260200160002060000160008373ffffffffffffffffffffffffffffffffffffffff1673ffffffffffffffffffffffffffffffffffffffff16815260200190815260200160002060009054906101000a900460ff16905092915050565b600033905090565b600080fd5b600073ffffffffffffffffffffffffffffffffffffffff82169050919050565b600062000389826200035c565b9050919050565b6200039b816200037c565b8114620003a757600080fd5b50565b600081519050620003bb8162000390565b92915050565b60008060008060808587031215620003de57620003dd62000357565b5b6000620003ee87828801620003aa565b94505060206200040187828801620003aa565b93505060406200041487828801620003aa565b92505060606200042787828801620003aa565b91505092959194509250565b615b5c80620004436000396000f3fe608060405234801561001057600080fd5b50600436106102745760003560e01c806385dcee9311610151578063b4f8fe49116100c3578063cb4c86b711610087578063cb4c86b71461081c578063cca494731461083a578063cfc2dc2014610858578063d547741f14610888578063ec539828146108a4578063f8a35181146108d557610274565b8063b4f8fe491461073a578063b5310ff91461076b578063c45b1d851461079b578063c7da7505146107b9578063c84aae17146107e957610274565b806390618ed91161011557806390618ed91461066157806391d148541461067f5780639bc67cd2146106af578063a217fddf146106cd578063a42b6626146106eb578063b0667cf81461071b57610274565b806385dcee93146105835780638a0687d2146105a15780638b83b6b6146105d15780638cbb0cd0146106015780638e82c9f11461063157610274565b8063448ba42f116101ea5780636c1f7b93116101ae5780636c1f7b93146104be5780636f307dc3146104da5780636fe44031146104f857806371eaf9c6146105165780637652e7c41461053457806385ae10e61461055257610274565b8063448ba42f1461041a5780634717f5b9146104385780634aa2913e146104565780634b3ba34014610472578063637baf60146104a257610274565b806324b4110e1161023c57806324b4110e14610357578063251e1e8a146103735780632f2ff15d14610391578063305868da146103ad57806336568abe146103e05780633b734501146103fc57610274565b806301ffc9a7146102795780630eb5cbfe146102a95780631a7985ba146102c75780631ce5e9a6146102f7578063248a9ca314610327575b600080fd5b610293600480360381019061028e919061449a565b6108f3565b6040516102a091906144e2565b60405180910390f35b6102b161096d565b6040516102be9190614516565b60405180910390f35b6102e160048036038101906102dc919061455d565b6109d0565b6040516102ee91906145cb565b60405180910390f35b610311600480360381019061030c919061455d565b610a10565b60405161031e9190614855565b60405180910390f35b610341600480360381019061033c91906148a7565b610bbd565b60405161034e91906148e3565b60405180910390f35b610371600480360381019061036c919061492a565b610bdc565b005b61037b610d25565b60405161038891906145cb565b60405180910390f35b6103ab60048036038101906103a6919061496a565b610d4b565b005b6103c760048036038101906103c291906149aa565b610d74565b6040516103d79493929190614a03565b60405180910390f35b6103fa60048036038101906103f5919061496a565b611145565b005b6104046111c8565b60405161041191906148e3565b60405180910390f35b6104226111ec565b60405161042f9190614516565b60405180910390f35b610440611380565b60405161044d9190614516565b60405180910390f35b610470600480360381019061046b919061455d565b61156b565b005b61048c60048036038101906104879190614a48565b61158b565b6040516104999190614a88565b60405180910390f35b6104bc60048036038101906104b7919061455d565b611843565b005b6104d860048036038101906104d3919061455d565b611970565b005b6104e2611a9d565b6040516104ef91906145cb565b60405180910390f35b610500611ac3565b60405161050d9190614a88565b60405180910390f35b61051e611bb3565b60405161052b91906145cb565b60405180910390f35b61053c611bd9565b6040516105499190614516565b60405180910390f35b61056c6004803603810190610567919061455d565b611c41565b60405161057a929190614aa3565b60405180910390f35b61058b612003565b60405161059891906148e3565b60405180910390f35b6105bb60048036038101906105b6919061492a565b6120c6565b6040516105c89190614855565b60405180910390f35b6105eb60048036038101906105e69190614acc565b6122c4565b6040516105f89190614516565b60405180910390f35b61061b60048036038101906106169190614b25565b612546565b6040516106289190614a88565b60405180910390f35b61064b60048036038101906106469190614b78565b6128c6565b6040516106589190614a88565b60405180910390f35b610669612920565b60405161067691906144e2565b60405180910390f35b6106996004803603810190610694919061496a565b612976565b6040516106a691906144e2565b60405180910390f35b6106b76129e0565b6040516106c49190614a88565b60405180910390f35b6106d5612bde565b6040516106e291906148e3565b60405180910390f35b61070560048036038101906107009190614acc565b612be5565b6040516107129190614516565b60405180910390f35b610723612c35565b604051610731929190614aa3565b60405180910390f35b610754600480360381019061074f91906149aa565b612cd0565b604051610762929190614aa3565b60405180910390f35b61078560048036038101906107809190614c02565b61314d565b6040516107929190614516565b60405180910390f35b6107a36133d4565b6040516107b09190614516565b60405180910390f35b6107d360048036038101906107ce919061455d565b6133da565b6040516107e091906144e2565b60405180910390f35b61080360048036038101906107fe9190614acc565b613450565b6040516108139493929190614ce1565b60405180910390f35b61082461364b565b60405161083191906145cb565b60405180910390f35b610842613671565b60405161084f91906148e3565b60405180910390f35b610872600480360381019061086d919061455d565b613709565b60405161087f9190614516565b60405180910390f35b6108a2600480360381019061089d919061496a565b6137ae565b005b6108be60048036038101906108b991906149aa565b6137d7565b6040516108cc929190614d26565b60405180910390f35b6108dd613af8565b6040516108ea9190614516565b60405180910390f35b60007f7965db0b000000000000000000000000000000000000000000000000000000007bffffffffffffffffffffffffffffffffffffffffffffffffffffffff1916827bffffffffffffffffffffffffffffffffffffffffffffffffffffffff19161480610966575061096582613afe565b5b9050919050565b6000805b61097b6004613b68565b8110156109cc576001600061099a836004613b7d90919063ffffffff16565b815260200190815260200160002060070154826109b79190614d7e565b915080806109c490614dd4565b915050610971565b5090565b60006001600083815260200190815260200160002060000160039054906101000a900473ffffffffffffffffffffffffffffffffffffffff169050919050565b610a18614365565b60016000838152602001908152602001600020604051806102000160405290816000820160009054906101000a900460ff166001811115610a5c57610a5b6145e6565b5b6001811115610a6e57610a6d6145e6565b5b81526020016000820160019054906101000a900460ff166001811115610a9757610a966145e6565b5b6001811115610aa957610aa86145e6565b5b81526020016000820160029054906101000a900460ff166003811115610ad257610ad16145e6565b5b6003811115610ae457610ae36145e6565b5b81526020016000820160039054906101000a900473ffffffffffffffffffffffffffffffffffffffff1673ffffffffffffffffffffffffffffffffffffffff1673ffffffffffffffffffffffffffffffffffffffff168152602001600182015481526020016002820154815260200160038201548152602001600482015481526020016005820154815260200160068201548152602001600782015481526020016008820154815260200160098201548152602001600a8201548152602001600b8201548152602001600c820154815250509050919050565b6000806000838152602001908152602001600020600101549050919050565b7f28d62fc77014de57a1bbaa8212ff0979fa61ab00d377b4b8d9762048fb419961610c0e81610c09613b97565b613b9f565b42600160008581526020019081526020016000206003018190555060016000848152602001908152602001600020600401546001600085815260200190815260200160002060030154610c619190614d7e565b6001600085815260200190815260200160002060050181905550600180600085815260200190815260200160002060000160026101000a81548160ff02191690836003811115610cb457610cb36145e6565b5b0217905550610d0a83600360008573ffffffffffffffffffffffffffffffffffffffff1673ffffffffffffffffffffffffffffffffffffffff168152602001908152602001600020613c3c90919063ffffffff16565b50610d1f836004613c3c90919063ffffffff16565b50505050565b600860009054906101000a900473ffffffffffffffffffffffffffffffffffffffff1681565b610d5482610bbd565b610d6581610d60613b97565b613b9f565b610d6f8383613c56565b505050565b6000806000806000600660009054906101000a900473ffffffffffffffffffffffffffffffffffffffff1673ffffffffffffffffffffffffffffffffffffffff1663b0667cf86040518163ffffffff1660e01b81526004016040805180830381865afa158015610de8573d6000803e3d6000fd5b505050506040513d601f19601f82011682018060405250810190610e0c9190614e32565b5090506000610e1c8260006128c6565b90506000600860009054906101000a900473ffffffffffffffffffffffffffffffffffffffff1673ffffffffffffffffffffffffffffffffffffffff166321f8a7216040518163ffffffff1660e01b8152600401610e7990614e98565b602060405180830381865afa158015610e96573d6000803e3d6000fd5b505050506040513d601f19601f82011682018060405250810190610eba9190614ec6565b9050600073__MarketLibrary_________________________63b076288a8b8486600960009054906101000a900473ffffffffffffffffffffffffffffffffffffffff1660028f146040518663ffffffff1660e01b8152600401610f22959493929190614f20565b606060405180830381865af4158015610f3f573d6000803e3d6000fd5b505050506040513d601f19601f82011682018060405250810190610f639190614f9f565b809850819350829a5050505073__MarketLibrary_________________________636198d6548b848488600a60009054906101000a900473ffffffffffffffffffffffffffffffffffffffff16600960009054906101000a900473ffffffffffffffffffffffffffffffffffffffff16600b546040518863ffffffff1660e01b8152600401610ff89796959493929190615001565b6040805180830381865af4158015611014573d6000803e3d6000fd5b505050506040513d601f19601f820116820180604052508101906110389190615070565b809650819850505073__MarketLibrary_________________________63aa5c12c789886040518363ffffffff1660e01b81526004016110799291906150b0565b602060405180830381865af4158015611096573d6000803e3d6000fd5b505050506040513d601f19601f820116820180604052508101906110ba91906150d9565b975073__MarketLibrary_________________________63aa5c12c788876040518363ffffffff1660e01b81526004016110f59291906150b0565b602060405180830381865af4158015611112573d6000803e3d6000fd5b505050506040513d601f19601f8201168201806040525081019061113691906150d9565b96505050505092959194509250565b61114d613b97565b73ffffffffffffffffffffffffffffffffffffffff168173ffffffffffffffffffffffffffffffffffffffff16146111ba576040517f08c379a00000000000000000000000000000000000000000000000000000000081526004016111b190615189565b60405180910390fd5b6111c48282613d36565b5050565b7f28d62fc77014de57a1bbaa8212ff0979fa61ab00d377b4b8d9762048fb41996181565b600080600660009054906101000a900473ffffffffffffffffffffffffffffffffffffffff1673ffffffffffffffffffffffffffffffffffffffff1663b0667cf86040518163ffffffff1660e01b81526004016040805180830381865afa15801561125b573d6000803e3d6000fd5b505050506040513d601f19601f8201168201806040525081019061127f9190614e32565b509050600061129d620186a08361129691906151d8565b60016128c6565b905060006112ba620186a0846112b39190615209565b60016128c6565b90506000808312156112d557826112d090615263565b6112d7565b825b90506000808312156112f257826112ed90615263565b6112f4565b825b90506113766113038383613e17565b8673__OptionLibrary_________________________63fd9b87636040518163ffffffff1660e01b8152600401602060405180830381865af415801561134d573d6000803e3d6000fd5b505050506040513d601f19601f8201168201806040525081019061137191906152ac565b613e30565b9550505050505090565b6000805b61138e6004613b68565b8110156115675760006113ab826004613b7d90919063ffffffff16565b9050600160038111156113c1576113c06145e6565b5b6001600083815260200190815260200160002060000160029054906101000a900460ff1660038111156113f7576113f66145e6565b5b14801561144a5750600180811115611412576114116145e6565b5b6001600083815260200190815260200160002060000160019054906101000a900460ff166001811115611448576114476145e6565b5b145b801561149c5750600180811115611464576114636145e6565b5b6001600083815260200190815260200160002060000160009054906101000a900460ff16600181111561149a576114996145e6565b5b145b15611553576001600082815260200190815260200160002073__OptionLibrary_________________________630862958b909160016000858152602001908152602001600020600901546040518363ffffffff1660e01b81526004016115049291906152e0565b602060405180830381865af4158015611521573d6000803e3d6000fd5b505050506040513d601f19601f8201168201806040525081019061154591906152ac565b836115509190614d7e565b92505b50808061155f90614dd4565b915050611384565b5090565b6000801b6115808161157b613b97565b613b9f565b81600b819055505050565b6000600160038111156115a1576115a06145e6565b5b6001600085815260200190815260200160002060000160029054906101000a900460ff1660038111156115d7576115d66145e6565b5b1480156115f95750426001600085815260200190815260200160002060050154115b1561183d576000600660009054906101000a900473ffffffffffffffffffffffffffffffffffffffff1673ffffffffffffffffffffffffffffffffffffffff1663040b030f4260016000888152602001908152602001600020600501546116609190615309565b6040518263ffffffff1660e01b815260040161167c9190614516565b602060405180830381865afa158015611699573d6000803e3d6000fd5b505050506040513d601f19601f820116820180604052508101906116bd91906152ac565b90506117dd73__OptionLibrary_________________________639932b2be856001600089815260200190815260200160002060090154856040518463ffffffff1660e01b81526004016117139392919061533d565b602060405180830381865af4158015611730573d6000803e3d6000fd5b505050506040513d601f19601f8201168201806040525081019061175491906152ac565b600160008781526020019081526020016000206007015473__OptionLibrary_________________________63fd9b87636040518163ffffffff1660e01b8152600401602060405180830381865af41580156117b4573d6000803e3d6000fd5b505050506040513d601f19601f820116820180604052508101906117d891906152ac565b613e30565b91506001808111156117f2576117f16145e6565b5b6001600086815260200190815260200160002060000160019054906101000a900460ff166001811115611828576118276145e6565b5b141561183b578161183890615263565b91505b505b92915050565b7f28d62fc77014de57a1bbaa8212ff0979fa61ab00d377b4b8d9762048fb41996161187581611870613b97565b613b9f565b6118fc82600360006001600087815260200190815260200160002060000160039054906101000a900473ffffffffffffffffffffffffffffffffffffffff1673ffffffffffffffffffffffffffffffffffffffff1673ffffffffffffffffffffffffffffffffffffffff168152602001908152602001600020613f2c90919063ffffffff16565b50611911826004613f2c90919063ffffffff16565b5060036001600084815260200190815260200160002060000160026101000a81548160ff0219169083600381111561194c5761194b6145e6565b5b02179055504260016000848152602001908152602001600020600601819055505050565b7f28d62fc77014de57a1bbaa8212ff0979fa61ab00d377b4b8d9762048fb4199616119a28161199d613b97565b613b9f565b611a2982600360006001600087815260200190815260200160002060000160039054906101000a900473ffffffffffffffffffffffffffffffffffffffff1673ffffffffffffffffffffffffffffffffffffffff1673ffffffffffffffffffffffffffffffffffffffff168152602001908152602001600020613f2c90919063ffffffff16565b50611a3e826004613f2c90919063ffffffff16565b5060026001600084815260200190815260200160002060000160026101000a81548160ff02191690836003811115611a7957611a786145e6565b5b02179055504260016000848152602001908152602001600020600601819055505050565b600960009054906101000a900473ffffffffffffffffffffffffffffffffffffffff1681565b600080600660009054906101000a900473ffffffffffffffffffffffffffffffffffffffff1673ffffffffffffffffffffffffffffffffffffffff1663b0667cf86040518163ffffffff1660e01b81526004016040805180830381865afa158015611b32573d6000803e3d6000fd5b505050506040513d601f19601f82011682018060405250810190611b569190614e32565b5090506000915060005b611b6a6004613b68565b811015611bae57611b8e611b88826004613b7d90919063ffffffff16565b8361158b565b83611b999190615374565b92508080611ba690614dd4565b915050611b60565b505090565b600760009054906101000a900473ffffffffffffffffffffffffffffffffffffffff1681565b6000805b611be76004613b68565b811015611c3d57611c0a611c05826004613b7d90919063ffffffff16565b6133da565b15611c2a57611c23816004613b7d90919063ffffffff16565b9150611c3d565b8080611c3590614dd4565b915050611bdd565b5090565b6000806000600660009054906101000a900473ffffffffffffffffffffffffffffffffffffffff1673ffffffffffffffffffffffffffffffffffffffff1663b0667cf86040518163ffffffff1660e01b81526004016040805180830381865afa158015611cb2573d6000803e3d6000fd5b505050506040513d601f19601f82011682018060405250810190611cd69190614e32565b5090506001600085815260200190815260200160002073__OptionLibrary_________________________63a69d3ae09091836040518363ffffffff1660e01b8152600401611d269291906152e0565b602060405180830381865af4158015611d43573d6000803e3d6000fd5b505050506040513d601f19601f82011682018060405250810190611d6791906152ac565b9250829150600180811115611d7f57611d7e6145e6565b5b6001600086815260200190815260200160002060000160019054906101000a900460ff166001811115611db557611db46145e6565b5b148015611e09575060006001811115611dd157611dd06145e6565b5b6001600086815260200190815260200160002060000160009054906101000a900460ff166001811115611e0757611e066145e6565b5b145b15611eaa57826001600086815260200190815260200160002073__OptionLibrary_________________________630862958b9091846040518363ffffffff1660e01b8152600401611e5c9291906152e0565b602060405180830381865af4158015611e79573d6000803e3d6000fd5b505050506040513d601f19601f82011682018060405250810190611e9d91906152ac565b611ea79190615309565b91505b600180811115611ebd57611ebc6145e6565b5b6001600086815260200190815260200160002060000160019054906101000a900460ff166001811115611ef357611ef26145e6565b5b148015611f465750600180811115611f0e57611f0d6145e6565b5b6001600086815260200190815260200160002060000160009054906101000a900460ff166001811115611f4457611f436145e6565b5b145b15611ffd57826001600086815260200190815260200160002073__OptionLibrary_________________________630862958b909160016000898152602001908152602001600020600901546040518363ffffffff1660e01b8152600401611faf9291906152e0565b602060405180830381865af4158015611fcc573d6000803e3d6000fd5b505050506040513d601f19601f82011682018060405250810190611ff091906152ac565b611ffa9190615309565b91505b50915091565b6000600660009054906101000a900473ffffffffffffffffffffffffffffffffffffffff1673ffffffffffffffffffffffffffffffffffffffff166398de78976040518163ffffffff1660e01b8152600401600060405180830381865afa158015612072573d6000803e3d6000fd5b505050506040513d6000823e3d601f19601f8201168201806040525081019061209b9190615572565b6040516020016120ab9190615602565b60405160208183030381529060405280519060200120905090565b6120ce614365565b6001600061212385600360008773ffffffffffffffffffffffffffffffffffffffff1673ffffffffffffffffffffffffffffffffffffffff168152602001908152602001600020613b7d90919063ffffffff16565b8152602001908152602001600020604051806102000160405290816000820160009054906101000a900460ff166001811115612162576121616145e6565b5b6001811115612174576121736145e6565b5b81526020016000820160019054906101000a900460ff16600181111561219d5761219c6145e6565b5b60018111156121af576121ae6145e6565b5b81526020016000820160029054906101000a900460ff1660038111156121d8576121d76145e6565b5b60038111156121ea576121e96145e6565b5b81526020016000820160039054906101000a900473ffffffffffffffffffffffffffffffffffffffff1673ffffffffffffffffffffffffffffffffffffffff1673ffffffffffffffffffffffffffffffffffffffff168152602001600182015481526020016002820154815260200160038201548152602001600482015481526020016005820154815260200160068201548152602001600782015481526020016008820154815260200160098201548152602001600a8201548152602001600b8201548152602001600c82015481525050905092915050565b600080600660009054906101000a900473ffffffffffffffffffffffffffffffffffffffff1673ffffffffffffffffffffffffffffffffffffffff1663b0667cf86040518163ffffffff1660e01b81526004016040805180830381865afa158015612333573d6000803e3d6000fd5b505050506040513d601f19601f820116820180604052508101906123579190614e32565b50905060008060008061236987613450565b93509350935093506123e8848673__OptionLibrary_________________________63fd9b87636040518163ffffffff1660e01b8152600401602060405180830381865af41580156123bf573d6000803e3d6000fd5b505050506040513d601f19601f820116820180604052508101906123e391906152ac565b613e30565b82846123f49190614d7e565b6123fe9190614d7e565b9550612477818673__OptionLibrary_________________________63fd9b87636040518163ffffffff1660e01b8152600401602060405180830381865af415801561244e573d6000803e3d6000fd5b505050506040513d601f19601f8201168201806040525081019061247291906152ac565b613e30565b86116124b8576040517f08c379a00000000000000000000000000000000000000000000000000000000081526004016124af90615665565b60405180910390fd5b61252f818673__OptionLibrary_________________________63fd9b87636040518163ffffffff1660e01b8152600401602060405180830381865af4158015612506573d6000803e3d6000fd5b505050506040513d601f19601f8201168201806040525081019061252a91906152ac565b613e30565b8661253a9190615309565b95505050505050919050565b60006001600381111561255c5761255b6145e6565b5b6001600086815260200190815260200160002060000160029054906101000a900460ff166003811115612592576125916145e6565b5b1480156125bc575081806125bb5750426001600086815260200190815260200160002060050154115b5b156128bf57600060018111156125d5576125d46145e6565b5b6001600086815260200190815260200160002060000160019054906101000a900460ff16600181111561260b5761260a6145e6565b5b1415612802576000600660009054906101000a900473ffffffffffffffffffffffffffffffffffffffff1673ffffffffffffffffffffffffffffffffffffffff1663040b030f612671600160008981526020019081526020016000206005015442613e17565b60016000898152602001908152602001600020600501546126929190615309565b6040518263ffffffff1660e01b81526004016126ae9190614516565b602060405180830381865afa1580156126cb573d6000803e3d6000fd5b505050506040513d601f19601f820116820180604052508101906126ef91906152ac565b90506001600086815260200190815260200160002073__OptionLibrary_________________________63865a0e00909186846040518463ffffffff1660e01b815260040161274093929190615685565b602060405180830381865af415801561275d573d6000803e3d6000fd5b505050506040513d601f19601f8201168201806040525081019061278191906152ac565b9150600180811115612796576127956145e6565b5b6001600087815260200190815260200160002060000160009054906101000a900460ff1660018111156127cc576127cb6145e6565b5b1415612800578160016000878152602001908152602001600020600701546127f390615263565b6127fd9190615374565b91505b505b600180811115612815576128146145e6565b5b6001600086815260200190815260200160002060000160019054906101000a900460ff16600181111561284b5761284a6145e6565b5b14801561289f575060006001811115612867576128666145e6565b5b6001600086815260200190815260200160002060000160009054906101000a900460ff16600181111561289d5761289c6145e6565b5b145b156128be57600160008581526020019081526020016000206007015490505b5b9392505050565b6000805b6128d46004613b68565b811015612919576128f96128f2826004613b7d90919063ffffffff16565b8585612546565b826129049190615374565b9150808061291190614dd4565b9150506128ca565b5092915050565b6000805b61292e6004613b68565b8110156129725761295161294c826004613b7d90919063ffffffff16565b6133da565b1561295f5760019150612972565b808061296a90614dd4565b915050612924565b5090565b600080600084815260200190815260200160002060000160008373ffffffffffffffffffffffffffffffffffffffff1673ffffffffffffffffffffffffffffffffffffffff16815260200190815260200160002060009054906101000a900460ff16905092915050565b600080600660009054906101000a900473ffffffffffffffffffffffffffffffffffffffff1673ffffffffffffffffffffffffffffffffffffffff1663040b030f620151806040518263ffffffff1660e01b8152600401612a419190615701565b602060405180830381865afa158015612a5e573d6000803e3d6000fd5b505050506040513d601f19601f82011682018060405250810190612a8291906152ac565b905073__OptionLibrary_________________________639932b2be73__OptionLibrary_________________________63fd9b87636040518163ffffffff1660e01b8152600401602060405180830381865af4158015612ae7573d6000803e3d6000fd5b505050506040513d601f19601f82011682018060405250810190612b0b91906152ac565b73__OptionLibrary_________________________63fd9b87636040518163ffffffff1660e01b8152600401602060405180830381865af4158015612b54573d6000803e3d6000fd5b505050506040513d601f19601f82011682018060405250810190612b7891906152ac565b846040518463ffffffff1660e01b8152600401612b979392919061533d565b602060405180830381865af4158015612bb4573d6000803e3d6000fd5b505050506040513d601f19601f82011682018060405250810190612bd891906152ac565b91505090565b6000801b81565b6000612c2e600360008473ffffffffffffffffffffffffffffffffffffffff1673ffffffffffffffffffffffffffffffffffffffff168152602001908152602001600020613b68565b9050919050565b600080600660009054906101000a900473ffffffffffffffffffffffffffffffffffffffff1673ffffffffffffffffffffffffffffffffffffffff1663b0667cf86040518163ffffffff1660e01b81526004016040805180830381865afa158015612ca4573d6000803e3d6000fd5b505050506040513d601f19601f82011682018060405250810190612cc89190614e32565b915091509091565b6000806000600660009054906101000a900473ffffffffffffffffffffffffffffffffffffffff1673ffffffffffffffffffffffffffffffffffffffff1663b0667cf86040518163ffffffff1660e01b81526004016040805180830381865afa158015612d41573d6000803e3d6000fd5b505050506040513d601f19601f82011682018060405250810190612d659190614e32565b5090506000612d758260006128c6565b9050600073__MarketLibrary_________________________63b076288a88600860009054906101000a900473ffffffffffffffffffffffffffffffffffffffff1673ffffffffffffffffffffffffffffffffffffffff166321f8a7216040518163ffffffff1660e01b8152600401612ded90614e98565b602060405180830381865afa158015612e0a573d6000803e3d6000fd5b505050506040513d601f19601f82011682018060405250810190612e2e9190614ec6565b85600960009054906101000a900473ffffffffffffffffffffffffffffffffffffffff1660028c146040518663ffffffff1660e01b8152600401612e76959493929190614f20565b606060405180830381865af4158015612e93573d6000803e3d6000fd5b505050506040513d601f19601f82011682018060405250810190612eb79190614f9f565b505090506000945060009350600081121561314357612f7a81612ed990615263565b600960009054906101000a900473ffffffffffffffffffffffffffffffffffffffff1673ffffffffffffffffffffffffffffffffffffffff166370a08231306040518263ffffffff1660e01b8152600401612f3491906145cb565b602060405180830381865afa158015612f51573d6000803e3d6000fd5b505050506040513d601f19601f82011682018060405250810190612f7591906152ac565b613e17565b81612f8490615263565b612f8e9190615309565b945073__MarketLibrary_________________________638170ce80613021878673__OptionLibrary_________________________63fd9b87636040518163ffffffff1660e01b8152600401602060405180830381865af4158015612ff8573d6000803e3d6000fd5b505050506040513d601f19601f8201168201806040525081019061301c91906152ac565b613e30565b600a60009054906101000a900473ffffffffffffffffffffffffffffffffffffffff166040518363ffffffff1660e01b815260040161306192919061571c565b602060405180830381865af415801561307e573d6000803e3d6000fd5b505050506040513d601f19601f820116820180604052508101906130a291906152ac565b935073__MarketLibrary_________________________638170ce8086600960009054906101000a900473ffffffffffffffffffffffffffffffffffffffff166040518363ffffffff1660e01b81526004016130ff92919061571c565b602060405180830381865af415801561311c573d6000803e3d6000fd5b505050506040513d601f19601f8201168201806040525081019061314091906152ac565b94505b5050509250929050565b60007f28d62fc77014de57a1bbaa8212ff0979fa61ab00d377b4b8d9762048fb4199616131818161317c613b97565b613b9f565b6002600081548092919061319490614dd4565b919050555060025491506040518061020001604052808a60018111156131bd576131bc6145e6565b5b81526020018960018111156131d5576131d46145e6565b5b8152602001600060038111156131ee576131ed6145e6565b5b81526020018473ffffffffffffffffffffffffffffffffffffffff168152602001838152602001428152602001600081526020018d815260200160008152602001600081526020018b81526020018681526020018c8152602001858152602001888152602001878152506001600084815260200190815260200160002060008201518160000160006101000a81548160ff02191690836001811115613296576132956145e6565b5b021790555060208201518160000160016101000a81548160ff021916908360018111156132c6576132c56145e6565b5b021790555060408201518160000160026101000a81548160ff021916908360038111156132f6576132f56145e6565b5b021790555060608201518160000160036101000a81548173ffffffffffffffffffffffffffffffffffffffff021916908373ffffffffffffffffffffffffffffffffffffffff1602179055506080820151816001015560a0820151816002015560c0820151816003015560e08201518160040155610100820151816005015561012082015181600601556101408201518160070155610160820151816008015561018082015181600901556101a082015181600a01556101c082015181600b01556101e082015181600c0155905050509a9950505050505050505050565b600b5481565b6000600160038111156133f0576133ef6145e6565b5b6001600084815260200190815260200160002060000160029054906101000a900460ff166003811115613426576134256145e6565b5b148015613449575042600160008481526020019081526020016000206005015411155b9050919050565b6000806000806000600860009054906101000a900473ffffffffffffffffffffffffffffffffffffffff1673ffffffffffffffffffffffffffffffffffffffff166321f8a7216040518163ffffffff1660e01b81526004016134b190614e98565b602060405180830381865afa1580156134ce573d6000803e3d6000fd5b505050506040513d601f19601f820116820180604052508101906134f29190614ec6565b905073__MarketLibrary_________________________6332c21e138783600960009054906101000a900473ffffffffffffffffffffffffffffffffffffffff166040518463ffffffff1660e01b815260040161355193929190615745565b606060405180830381865af415801561356e573d6000803e3d6000fd5b505050506040513d601f19601f82011682018060405250810190613592919061577c565b9050809350819650505073__MarketLibrary_________________________6332c21e138783600a60009054906101000a900473ffffffffffffffffffffffffffffffffffffffff166040518463ffffffff1660e01b81526004016135f993929190615745565b606060405180830381865af4158015613616573d6000803e3d6000fd5b505050506040513d601f19601f8201168201806040525081019061363a919061577c565b508094508195505050509193509193565b600a60009054906101000a900473ffffffffffffffffffffffffffffffffffffffff1681565b6000600660009054906101000a900473ffffffffffffffffffffffffffffffffffffffff1673ffffffffffffffffffffffffffffffffffffffff1663def215446040518163ffffffff1660e01b8152600401602060405180830381865afa1580156136e0573d6000803e3d6000fd5b505050506040513d601f19601f8201168201806040525081019061370491906157e4565b905090565b6000600660009054906101000a900473ffffffffffffffffffffffffffffffffffffffff1673ffffffffffffffffffffffffffffffffffffffff1663040b030f836040518263ffffffff1660e01b81526004016137669190614516565b602060405180830381865afa158015613783573d6000803e3d6000fd5b505050506040513d601f19601f820116820180604052508101906137a791906152ac565b9050919050565b6137b782610bbd565b6137c8816137c3613b97565b613b9f565b6137d28383613d36565b505050565b6000806000600660009054906101000a900473ffffffffffffffffffffffffffffffffffffffff1673ffffffffffffffffffffffffffffffffffffffff1663b0667cf86040518163ffffffff1660e01b81526004016040805180830381865afa158015613848573d6000803e3d6000fd5b505050506040513d601f19601f8201168201806040525081019061386c9190614e32565b509050600061387c8260006128c6565b905073__MarketLibrary_________________________63eea2526b600960009054906101000a900473ffffffffffffffffffffffffffffffffffffffff16886040518363ffffffff1660e01b81526004016138d9929190615811565b602060405180830381865af41580156138f6573d6000803e3d6000fd5b505050506040513d601f19601f8201168201806040525081019061391a91906152ac565b600082121561392a57600061392c565b815b613936919061583a565b935073__MarketLibrary_________________________63aa5c12c773__OptionLibrary_________________________63ca0cc13d87868a6040518463ffffffff1660e01b815260040161398d939291906158ce565b602060405180830381865af41580156139aa573d6000803e3d6000fd5b505050506040513d601f19601f820116820180604052508101906139ce91906150d9565b600a60009054906101000a900473ffffffffffffffffffffffffffffffffffffffff166040518363ffffffff1660e01b8152600401613a0e9291906150b0565b602060405180830381865af4158015613a2b573d6000803e3d6000fd5b505050506040513d601f19601f82011682018060405250810190613a4f91906150d9565b925073__MarketLibrary_________________________63aa5c12c785600960009054906101000a900473ffffffffffffffffffffffffffffffffffffffff166040518363ffffffff1660e01b8152600401613aac9291906150b0565b602060405180830381865af4158015613ac9573d6000803e3d6000fd5b505050506040513d601f19601f82011682018060405250810190613aed91906150d9565b935050509250929050565b60025481565b60007f01ffc9a7000000000000000000000000000000000000000000000000000000007bffffffffffffffffffffffffffffffffffffffffffffffffffffffff1916827bffffffffffffffffffffffffffffffffffffffffffffffffffffffff1916149050919050565b6000613b7682600001613f46565b9050919050565b6000613b8c8360000183613f57565b60001c905092915050565b600033905090565b613ba98282612976565b613c3857613bce8173ffffffffffffffffffffffffffffffffffffffff166014613f82565b613bdc8360001c6020613f82565b604051602001613bed92919061599d565b6040516020818303038152906040526040517f08c379a0000000000000000000000000000000000000000000000000000000008152600401613c2f9190615a10565b60405180910390fd5b5050565b6000613c4e836000018360001b6141be565b905092915050565b613c608282612976565b613d3257600160008084815260200190815260200160002060000160008373ffffffffffffffffffffffffffffffffffffffff1673ffffffffffffffffffffffffffffffffffffffff16815260200190815260200160002060006101000a81548160ff021916908315150217905550613cd7613b97565b73ffffffffffffffffffffffffffffffffffffffff168173ffffffffffffffffffffffffffffffffffffffff16837f2f8788117e7eff1d82e926ec794901d17c78024a50270940304540a733656f0d60405160405180910390a45b5050565b613d408282612976565b15613e1357600080600084815260200190815260200160002060000160008373ffffffffffffffffffffffffffffffffffffffff1673ffffffffffffffffffffffffffffffffffffffff16815260200190815260200160002060006101000a81548160ff021916908315150217905550613db8613b97565b73ffffffffffffffffffffffffffffffffffffffff168173ffffffffffffffffffffffffffffffffffffffff16837ff6391f5c32d9c69d2a47ea670b442974b53935d1edc7fd64eb21e047a839171b60405160405180910390a45b5050565b6000818310613e265781613e28565b825b905092915050565b600080600080198587098587029250828110838203039150506000811415613e6b5760008411613e5f57600080fd5b83820492505050613f25565b808411613e7757600080fd5b60008486880990508281118203915080830392506000856001877fffffffffffffffffffffffffffffffffffffffffffffffffffffffffffffffff0301169050808604955080840493506001818260000304019050808302841793506000600287600302189050808702600203810290508087026002038102905080870260020381029050808702600203810290508087026002038102905080870260020381029050808502955050505050505b9392505050565b6000613f3e836000018360001b61422e565b905092915050565b600081600001805490509050919050565b6000826000018281548110613f6f57613f6e615a32565b5b9060005260206000200154905092915050565b606060006002836002613f959190615209565b613f9f9190614d7e565b67ffffffffffffffff811115613fb857613fb7615423565b5b6040519080825280601f01601f191660200182016040528015613fea5781602001600182028036833780820191505090505b5090507f30000000000000000000000000000000000000000000000000000000000000008160008151811061402257614021615a32565b5b60200101907effffffffffffffffffffffffffffffffffffffffffffffffffffffffffffff1916908160001a9053507f78000000000000000000000000000000000000000000000000000000000000008160018151811061408657614085615a32565b5b60200101907effffffffffffffffffffffffffffffffffffffffffffffffffffffffffffff1916908160001a905350600060018460026140c69190615209565b6140d09190614d7e565b90505b6001811115614170577f3031323334353637383961626364656600000000000000000000000000000000600f86166010811061411257614111615a32565b5b1a60f81b82828151811061412957614128615a32565b5b60200101907effffffffffffffffffffffffffffffffffffffffffffffffffffffffffffff1916908160001a905350600485901c94508061416990615a61565b90506140d3565b50600084146141b4576040517f08c379a00000000000000000000000000000000000000000000000000000000081526004016141ab90615ad7565b60405180910390fd5b8091505092915050565b60006141ca8383614342565b614223578260000182908060018154018082558091505060019003906000526020600020016000909190919091505582600001805490508360010160008481526020019081526020016000208190555060019050614228565b600090505b92915050565b600080836001016000848152602001908152602001600020549050600081146143365760006001826142609190615309565b90506000600186600001805490506142789190615309565b90508181146142e757600086600001828154811061429957614298615a32565b5b90600052602060002001549050808760000184815481106142bd576142bc615a32565b5b90600052602060002001819055508387600101600083815260200190815260200160002081905550505b856000018054806142fb576142fa615af7565b5b60019003818190600052602060002001600090559055856001016000868152602001908152602001600020600090556001935050505061433c565b60009150505b92915050565b600080836001016000848152602001908152602001600020541415905092915050565b60405180610200016040528060006001811115614385576143846145e6565b5b81526020016000600181111561439e5761439d6145e6565b5b8152602001600060038111156143b7576143b66145e6565b5b8152602001600073ffffffffffffffffffffffffffffffffffffffff1681526020016000815260200160008152602001600081526020016000815260200160008152602001600081526020016000815260200160008152602001600081526020016000815260200160008152602001600081525090565b6000604051905090565b600080fd5b600080fd5b60007fffffffff0000000000000000000000000000000000000000000000000000000082169050919050565b61447781614442565b811461448257600080fd5b50565b6000813590506144948161446e565b92915050565b6000602082840312156144b0576144af614438565b5b60006144be84828501614485565b91505092915050565b60008115159050919050565b6144dc816144c7565b82525050565b60006020820190506144f760008301846144d3565b92915050565b6000819050919050565b614510816144fd565b82525050565b600060208201905061452b6000830184614507565b92915050565b61453a816144fd565b811461454557600080fd5b50565b60008135905061455781614531565b92915050565b60006020828403121561457357614572614438565b5b600061458184828501614548565b91505092915050565b600073ffffffffffffffffffffffffffffffffffffffff82169050919050565b60006145b58261458a565b9050919050565b6145c5816145aa565b82525050565b60006020820190506145e060008301846145bc565b92915050565b7f4e487b7100000000000000000000000000000000000000000000000000000000600052602160045260246000fd5b60028110614626576146256145e6565b5b50565b600081905061463782614615565b919050565b600061464782614629565b9050919050565b6146578161463c565b82525050565b6002811061466e5761466d6145e6565b5b50565b600081905061467f8261465d565b919050565b600061468f82614671565b9050919050565b61469f81614684565b82525050565b600481106146b6576146b56145e6565b5b50565b60008190506146c7826146a5565b919050565b60006146d7826146b9565b9050919050565b6146e7816146cc565b82525050565b6146f6816145aa565b82525050565b614705816144fd565b82525050565b61020082016000820151614722600085018261464e565b5060208201516147356020850182614696565b50604082015161474860408501826146de565b50606082015161475b60608501826146ed565b50608082015161476e60808501826146fc565b5060a082015161478160a08501826146fc565b5060c082015161479460c08501826146fc565b5060e08201516147a760e08501826146fc565b506101008201516147bc6101008501826146fc565b506101208201516147d16101208501826146fc565b506101408201516147e66101408501826146fc565b506101608201516147fb6101608501826146fc565b506101808201516148106101808501826146fc565b506101a08201516148256101a08501826146fc565b506101c082015161483a6101c08501826146fc565b506101e082015161484f6101e08501826146fc565b50505050565b60006102008201905061486b600083018461470b565b92915050565b6000819050919050565b61488481614871565b811461488f57600080fd5b50565b6000813590506148a18161487b565b92915050565b6000602082840312156148bd576148bc614438565b5b60006148cb84828501614892565b91505092915050565b6148dd81614871565b82525050565b60006020820190506148f860008301846148d4565b92915050565b614907816145aa565b811461491257600080fd5b50565b600081359050614924816148fe565b92915050565b6000806040838503121561494157614940614438565b5b600061494f85828601614548565b925050602061496085828601614915565b9150509250929050565b6000806040838503121561498157614980614438565b5b600061498f85828601614892565b92505060206149a085828601614915565b9150509250929050565b600080604083850312156149c1576149c0614438565b5b60006149cf85828601614915565b92505060206149e085828601614548565b9150509250929050565b6000819050919050565b6149fd816149ea565b82525050565b6000608082019050614a1860008301876149f4565b614a2560208301866149f4565b614a3260408301856145bc565b614a3f60608301846145bc565b95945050505050565b60008060408385031215614a5f57614a5e614438565b5b6000614a6d85828601614548565b9250506020614a7e85828601614548565b9150509250929050565b6000602082019050614a9d60008301846149f4565b92915050565b6000604082019050614ab86000830185614507565b614ac56020830184614507565b9392505050565b600060208284031215614ae257614ae1614438565b5b6000614af084828501614915565b91505092915050565b614b02816144c7565b8114614b0d57600080fd5b50565b600081359050614b1f81614af9565b92915050565b600080600060608486031215614b3e57614b3d614438565b5b6000614b4c86828701614548565b9350506020614b5d86828701614548565b9250506040614b6e86828701614b10565b9150509250925092565b60008060408385031215614b8f57614b8e614438565b5b6000614b9d85828601614548565b9250506020614bae85828601614b10565b9150509250929050565b60028110614bc557600080fd5b50565b600081359050614bd781614bb8565b92915050565b60028110614bea57600080fd5b50565b600081359050614bfc81614bdd565b92915050565b6000806000806000806000806000806101408b8d031215614c2657614c25614438565b5b6000614c348d828e01614548565b9a50506020614c458d828e01614548565b9950506040614c568d828e01614548565b9850506060614c678d828e01614bc8565b9750506080614c788d828e01614bed565b96505060a0614c898d828e01614548565b95505060c0614c9a8d828e01614548565b94505060e0614cab8d828e01614548565b935050610100614cbd8d828e01614548565b925050610120614ccf8d828e01614915565b9150509295989b9194979a5092959850565b6000608082019050614cf66000830187614507565b614d036020830186614507565b614d106040830185614507565b614d1d6060830184614507565b95945050505050565b6000604082019050614d3b60008301856149f4565b614d4860208301846149f4565b9392505050565b7f4e487b7100000000000000000000000000000000000000000000000000000000600052601160045260246000fd5b6000614d89826144fd565b9150614d94836144fd565b9250827fffffffffffffffffffffffffffffffffffffffffffffffffffffffffffffffff03821115614dc957614dc8614d4f565b5b828201905092915050565b6000614ddf826144fd565b91507fffffffffffffffffffffffffffffffffffffffffffffffffffffffffffffffff821415614e1257614e11614d4f565b5b600182019050919050565b600081519050614e2c81614531565b92915050565b60008060408385031215614e4957614e48614438565b5b6000614e5785828601614e1d565b9250506020614e6885828601614e1d565b9150509250929050565b7f3078310000000000000000000000000000000000000000000000000000000000815250565b6000602082019050614eac60008301614e72565b919050565b600081519050614ec0816148fe565b92915050565b600060208284031215614edc57614edb614438565b5b6000614eea84828501614eb1565b91505092915050565b614efc816145aa565b82525050565b614f0b816149ea565b82525050565b614f1a816144c7565b82525050565b600060a082019050614f356000830188614ef3565b614f426020830187614ef3565b614f4f6040830186614f02565b614f5c6060830185614ef3565b614f696080830184614f11565b9695505050505050565b614f7c816149ea565b8114614f8757600080fd5b50565b600081519050614f9981614f73565b92915050565b600080600060608486031215614fb857614fb7614438565b5b6000614fc686828701614f8a565b9350506020614fd786828701614e1d565b9250506040614fe886828701614eb1565b9150509250925092565b614ffb816144fd565b82525050565b600060e082019050615016600083018a614ef3565b6150236020830189614ef3565b6150306040830188614ff2565b61503d6060830187614ff2565b61504a6080830186614ef3565b61505760a0830185614ef3565b61506460c0830184614ff2565b98975050505050505050565b6000806040838503121561508757615086614438565b5b600061509585828601614f8a565b92505060206150a685828601614eb1565b9150509250929050565b60006040820190506150c56000830185614f02565b6150d26020830184614ef3565b9392505050565b6000602082840312156150ef576150ee614438565b5b60006150fd84828501614f8a565b91505092915050565b600082825260208201905092915050565b7f416363657373436f6e74726f6c3a2063616e206f6e6c792072656e6f756e636560008201527f20726f6c657320666f722073656c660000000000000000000000000000000000602082015250565b6000615173602f83615106565b915061517e82615117565b604082019050919050565b600060208201905081810360008301526151a281615166565b9050919050565b7f4e487b7100000000000000000000000000000000000000000000000000000000600052601260045260246000fd5b60006151e3826144fd565b91506151ee836144fd565b9250826151fe576151fd6151a9565b5b828204905092915050565b6000615214826144fd565b915061521f836144fd565b9250817fffffffffffffffffffffffffffffffffffffffffffffffffffffffffffffffff048311821515161561525857615257614d4f565b5b828202905092915050565b600061526e826149ea565b91507f80000000000000000000000000000000000000000000000000000000000000008214156152a1576152a0614d4f565b5b816000039050919050565b6000602082840312156152c2576152c1614438565b5b60006152d084828501614e1d565b91505092915050565b8082525050565b60006040820190506152f560008301856152d9565b6153026020830184614ff2565b9392505050565b6000615314826144fd565b915061531f836144fd565b92508282101561533257615331614d4f565b5b828203905092915050565b60006060820190506153526000830186614ff2565b61535f6020830185614ff2565b61536c6040830184614ff2565b949350505050565b600061537f826149ea565b915061538a836149ea565b9250817f7fffffffffffffffffffffffffffffffffffffffffffffffffffffffffffffff038313600083121516156153c5576153c4614d4f565b5b817f80000000000000000000000000000000000000000000000000000000000000000383126000831216156153fd576153fc614d4f565b5b828201905092915050565b600080fd5b600080fd5b6000601f19601f8301169050919050565b7f4e487b7100000000000000000000000000000000000000000000000000000000600052604160045260246000fd5b61545b82615412565b810181811067ffffffffffffffff8211171561547a57615479615423565b5b80604052505050565b600061548d61442e565b90506154998282615452565b919050565b600067ffffffffffffffff8211156154b9576154b8615423565b5b6154c282615412565b9050602081019050919050565b60005b838110156154ed5780820151818401526020810190506154d2565b838111156154fc576000848401525b50505050565b60006155156155108461549e565b615483565b9050828152602081018484840111156155315761553061540d565b5b61553c8482856154cf565b509392505050565b600082601f83011261555957615558615408565b5b8151615569848260208601615502565b91505092915050565b60006020828403121561558857615587614438565b5b600082015167ffffffffffffffff8111156155a6576155a561443d565b5b6155b284828501615544565b91505092915050565b600081519050919050565b600081905092915050565b60006155dc826155bb565b6155e681856155c6565b93506155f68185602086016154cf565b80840191505092915050565b600061560e82846155d1565b915081905092915050565b7f4e65676174697665206571756974792e00000000000000000000000000000000600082015250565b600061564f601083615106565b915061565a82615619565b602082019050919050565b6000602082019050818103600083015261567e81615642565b9050919050565b600060608201905061569a60008301866152d9565b6156a76020830185614ff2565b6156b46040830184614ff2565b949350505050565b6000819050919050565b6000819050919050565b60006156eb6156e66156e1846156bc565b6156c6565b6144fd565b9050919050565b6156fb816156d0565b82525050565b600060208201905061571660008301846156f2565b92915050565b60006040820190506157316000830185614ff2565b61573e6020830184614ef3565b9392505050565b600060608201905061575a6000830186614ef3565b6157676020830185614ef3565b6157746040830184614ef3565b949350505050565b60008060006060848603121561579557615794614438565b5b60006157a386828701614e1d565b93505060206157b486828701614e1d565b92505060406157c586828701614e1d565b9150509250925092565b6000815190506157de8161487b565b92915050565b6000602082840312156157fa576157f9614438565b5b6000615808848285016157cf565b91505092915050565b60006040820190506158266000830185614ef3565b6158336020830184614ef3565b9392505050565b6000615845826149ea565b9150615850836149ea565b9250827f80000000000000000000000000000000000000000000000000000000000000000182126000841215161561588b5761588a614d4f565b5b827f7fffffffffffffffffffffffffffffffffffffffffffffffffffffffffffffff0182136000841216156158c3576158c2614d4f565b5b828203905092915050565b60006060820190506158e36000830186614f02565b6158f06020830185614ff2565b6158fd6040830184614ff2565b949350505050565b7f416363657373436f6e74726f6c3a206163636f756e7420000000000000000000600082015250565b600061593b6017836155c6565b915061594682615905565b601782019050919050565b7f206973206d697373696e6720726f6c6520000000000000000000000000000000600082015250565b60006159876011836155c6565b915061599282615951565b601182019050919050565b60006159a88261592e565b91506159b482856155d1565b91506159bf8261597a565b91506159cb82846155d1565b91508190509392505050565b60006159e2826155bb565b6159ec8185615106565b93506159fc8185602086016154cf565b615a0581615412565b840191505092915050565b60006020820190508181036000830152615a2a81846159d7565b905092915050565b7f4e487b7100000000000000000000000000000000000000000000000000000000600052603260045260246000fd5b6000615a6c826144fd565b91506000821415615a8057615a7f614d4f565b5b600182039050919050565b7f537472696e67733a20686578206c656e67746820696e73756666696369656e74600082015250565b6000615ac1602083615106565b9150615acc82615a8b565b602082019050919050565b60006020820190508181036000830152615af081615ab4565b9050919050565b7f4e487b7100000000000000000000000000000000000000000000000000000000600052603160045260246000fdfea264697066735822122076cce2b2947a2733accce5f52b6a1fd2f0bdfc07f498f4abebdc437af28951c464736f6c634300080a0033",
  "immutableReferences": {},
  "source": "/**\n * SPDX-License-Identifier: GPL-3.0-or-later\n * Moret\n * Copyright (C) 2021 Moret\n*/\n\npragma solidity 0.8.10;\nimport \"@openzeppelin/contracts/access/AccessControl.sol\";\nimport \"@openzeppelin/contracts/utils/structs/EnumerableSet.sol\";\nimport \"./MarketLibrary.sol\";\n\ncontract OptionVault is AccessControl{\n  using OptionLibrary for OptionLibrary.Option;\n  using EnumerableSet for EnumerableSet.UintSet;\n  // using EnumerableSet for EnumerableSet.AddressSet;\n\n  bytes32 public constant EXCHANGE_ROLE = keccak256(\"EXCHANGE_ROLE\");\n  mapping(uint256=> OptionLibrary.Option) internal optionsList;\n  uint256 public optionCounter = 0;\n  mapping(address=> EnumerableSet.UintSet) internal activeOptionsPerOwner;\n  EnumerableSet.UintSet internal activeOptions;\n  IVolatilityChain internal volatilityChain;\n\n  address public volChainAddress;\n  address public aaveAddress;\n  address public underlying;\n  address public funding;\n\n  uint256 public overCollateral = 10 ** 17;\n\n  constructor( address _volChainAddress, address _underlying, address _funding, address _aaveAddress){\n    _setupRole(DEFAULT_ADMIN_ROLE, msg.sender);\n    _setupRole(EXCHANGE_ROLE, msg.sender);\n    volChainAddress = _volChainAddress;\n    volatilityChain = IVolatilityChain(_volChainAddress); \n    funding = _funding;\n    underlying = _underlying;\n    aaveAddress = _aaveAddress;}\n  \n  function descriptionHash() external view returns (bytes32)  { return keccak256(abi.encodePacked(volatilityChain.getDecription()));}\n\n  function addOption(uint256 _tenor, uint256 _strike, uint256 _amount, OptionLibrary.PayoffType _poType, OptionLibrary.OptionSide _side, uint256 _premium, uint256 _cost, uint256 _price, uint256 _volatility, address _holder) external onlyRole(EXCHANGE_ROLE) returns(uint256 _id) {\n    optionCounter++;\n    _id = optionCounter;\n    optionsList[_id] = OptionLibrary.Option(_poType, _side, OptionLibrary.OptionStatus.Draft, _holder, _id, block.timestamp,  0, _tenor, 0,  0, _amount, _price, _strike, _volatility, _premium, _cost);}\n\n  function getOptionHolder(uint256 _id) external view returns(address) { return optionsList[_id].holder;}\n  function getHoldersOptionCount(address _address) external view returns(uint256){return activeOptionsPerOwner[_address].length();}\n  function getHoldersOption(uint256 _index, address _address) external view returns(OptionLibrary.Option memory) {return optionsList[activeOptionsPerOwner[_address].at(_index)];}\n  function getOption(uint256 _id) external view returns(OptionLibrary.Option memory) {return optionsList[_id];}\n\n  function getAggregateNotional() external view returns(uint256 _notional) {\n    _notional= 0;\n    for(uint256 i=0;i<activeOptions.length();i++){\n      _notional += optionsList[uint256(activeOptions.at(i))].amount;} }\n\n  function getGrossCapital(address _address) external view returns(uint256 _capital){\n    (uint256 _price, ) = volatilityChain.queryPrice();\n    (uint256 _underlying_balance, uint256 _funding_balance, uint256 _collateral_balance, uint256 _debt_balance) = getBalances(_address);\n    _capital = _funding_balance + _collateral_balance + MulDiv(_underlying_balance, _price, OptionLibrary.Multiplier());\n    require(_capital > MulDiv(_debt_balance, _price, OptionLibrary.Multiplier()), \"Negative equity.\");\n    _capital -= MulDiv(_debt_balance, _price, OptionLibrary.Multiplier());}\n\n  function getMaxHedge() external view returns (uint256){\n    (uint256 _price,) = volatilityChain.queryPrice();\n    int256 _deltaZero = calculateAggregateDelta(_price / 1e5, true);\n    int256 _deltaMax = calculateAggregateDelta(_price * 1e5, true);\n    uint256 _deltaZeroU = _deltaZero>=0?uint256(_deltaZero):uint256(-_deltaZero);\n    uint256 _deltaMaxU = _deltaMax>=0?uint256(_deltaMax):uint256(-_deltaMax);\n    return MulDiv(Math.min(_deltaZeroU, _deltaMaxU), _price, OptionLibrary.Multiplier());}\n\n  function getSellPutCollateral() external view returns (uint256 _collateral){\n    _collateral= 0;\n    for(uint256 i=0;i<activeOptions.length();i++){\n      uint256 _id = uint256(activeOptions.at(i));\n      if(optionsList[_id].status== OptionLibrary.OptionStatus.Active && optionsList[_id].side == OptionLibrary.OptionSide.Sell && optionsList[_id].poType==OptionLibrary.PayoffType.Put){\n      _collateral +=  optionsList[_id].calcNotionalExposure(optionsList[_id].strike);}}}\n\n  function getContractPayoff(uint256 _id) external view returns(uint256 _payoff, uint256 _payback){\n    (uint256 _price,) = volatilityChain.queryPrice();\n    _payoff = optionsList[_id].calcPayoff(_price);\n    _payback = _payoff;\n    if(optionsList[_id].side == OptionLibrary.OptionSide.Sell && optionsList[_id].poType==OptionLibrary.PayoffType.Call){\n      _payback =  optionsList[_id].calcNotionalExposure(_price) - _payoff;}\n    if(optionsList[_id].side == OptionLibrary.OptionSide.Sell && optionsList[_id].poType==OptionLibrary.PayoffType.Put){\n      _payback =  optionsList[_id].calcNotionalExposure(optionsList[_id].strike) - _payoff;}}\n\n  function calculateContractDelta(uint256 _id, uint256 _price, bool _includeExpiring) public view returns(int256 _delta){\n    _delta = 0;\n    if(optionsList[_id].status== OptionLibrary.OptionStatus.Active && (_includeExpiring || (optionsList[_id].maturity > block.timestamp))){\n      if(optionsList[_id].side==OptionLibrary.OptionSide.Buy){\n        uint256 _vol = volatilityChain.getVol(optionsList[_id].maturity - Math.min(optionsList[_id].maturity, block.timestamp));\n        _delta = int256(optionsList[_id].calcDelta(_price, _vol));\n        if(optionsList[_id].poType==OptionLibrary.PayoffType.Put) {_delta = -int256(optionsList[_id].amount) + _delta; }}\n      if(optionsList[_id].side==OptionLibrary.OptionSide.Sell && optionsList[_id].poType==OptionLibrary.PayoffType.Call){ \n        _delta = int256(optionsList[_id].amount);}}} // collateral for sell call options. zero for sell put options\n    \n  function calculateAggregateDelta(uint256 _price, bool _includeExpiring) public view returns(int256 _delta){\n    _delta= 0;\n    for(uint256 i=0;i<activeOptions.length();i++){\n      _delta += calculateContractDelta(uint256(activeOptions.at(i)),_price, _includeExpiring);}}\n\n  function calculateContractGamma(uint256 _id, uint256 _price) public view returns(int256 _gamma){\n    _gamma = 0;\n    if(optionsList[_id].status== OptionLibrary.OptionStatus.Active  && (optionsList[_id].maturity > block.timestamp)){\n      uint256 _vol = volatilityChain.getVol(optionsList[_id].maturity - block.timestamp);\n      _gamma = int256(MulDiv(OptionLibrary.calcGamma(_price, optionsList[_id].strike, _vol), optionsList[_id].amount, OptionLibrary.Multiplier() ));\n      if(optionsList[_id].side==OptionLibrary.OptionSide.Sell){ _gamma = -_gamma;}}}\n      \n  function calculateAggregateGamma() external view returns(int256 _gamma){\n    (uint256 _price,) = volatilityChain.queryPrice();\n    _gamma= 0;\n    for(uint256 i=0;i<activeOptions.length();i++){\n      _gamma += calculateContractGamma(uint256(activeOptions.at(i)),_price);}}\n\n  function calculateSpotGamma() external view returns(int256 _gamma){\n    uint256 _vol = volatilityChain.getVol(86400);\n    _gamma = int256(OptionLibrary.calcGamma(OptionLibrary.Multiplier(), OptionLibrary.Multiplier(), _vol));}\n    \n  // function validateOption(uint256 _id, address _holder) external view {\n  //   require(optionsList[_id].holder== _holder, \"Not the owner.\");\n  //   require(optionsList[_id].maturity >= block.timestamp, \"Option has expired.\");\n  //   require(optionsList[_id].status==OptionLibrary.OptionStatus.Active, \"Not active option.\");}\n\n  function anyOptionExpiring() external view returns(bool _isExpiring) {\n    _isExpiring = false;\n    for(uint256 i=0;i<activeOptions.length();i++){\n      if(isExpiring(uint256(activeOptions.at(i)))){\n        _isExpiring = true;\n        break;}}}\n\n  function isExpiring(uint256 _id) public view returns (bool){ return (optionsList[_id].status== OptionLibrary.OptionStatus.Active) && (optionsList[_id].maturity <= block.timestamp);}\n\n  function getExpiringOptionId() external view returns(uint256 _id){\n    _id = 0;\n    for(uint256 i=0;i<activeOptions.length();i++){\n      if(isExpiring(uint256(activeOptions.at(i)))){\n        _id = uint256(activeOptions.at(i));\n        break;}}\n  }\n\n  function stampActiveOption(uint256 _id, address _holder) external onlyRole(EXCHANGE_ROLE) {\n    optionsList[_id].effectiveTime = block.timestamp;\n    optionsList[_id].maturity = optionsList[_id].effectiveTime + optionsList[_id].tenor;\n    optionsList[_id].status = OptionLibrary.OptionStatus.Active;\n    activeOptionsPerOwner[_holder].add(_id);\n    activeOptions.add(_id);}\n\n  function stampExercisedOption(uint256 _id) external onlyRole(EXCHANGE_ROLE){\n    activeOptionsPerOwner[optionsList[_id].holder].remove(_id);\n    activeOptions.remove(_id);\n    optionsList[_id].status = OptionLibrary.OptionStatus.Exercised;\n    optionsList[_id].exerciseTime = block.timestamp;}\n\n  function stampExpiredOption(uint256 _id)  external onlyRole(EXCHANGE_ROLE){\n    activeOptionsPerOwner[optionsList[_id].holder].remove(_id);\n    activeOptions.remove(_id);\n    optionsList[_id].status = OptionLibrary.OptionStatus.Expired;\n    optionsList[_id].exerciseTime = block.timestamp;}\n\n  // this function emits values in token decimals.\n  function calcSwapTradesInTok(address _address, uint256 _swapSlippage) external view returns(int256 _tradeUnderlyingAmount, int256 _tradeFundingAmount){\n    (uint256 _price,) = volatilityChain.queryPrice();\n    int256 _aggregateDelta = calculateAggregateDelta(_price, false);\n    _tradeUnderlyingAmount = (_aggregateDelta >= 0? _aggregateDelta: int256(0)) - int256(MarketLibrary.balanceDef(underlying, _address));\n    _tradeFundingAmount = MarketLibrary.cvtDecimalsInt(OptionLibrary.getOpposeTrade(_tradeUnderlyingAmount, _price, _swapSlippage), funding);\n    _tradeUnderlyingAmount = MarketLibrary.cvtDecimalsInt(_tradeUnderlyingAmount, underlying);}\n  \n  // this function emits values in DEFAULT decimals.\n  function getBalances(address _address) public view returns(uint256 _underlyingBalance, uint256 _fundingBalance, uint256 _collateralBalance, uint256 _debtBalance){\n    address _protocolAds = ILendingPoolAddressesProvider(aaveAddress).getAddress(\"0x1\");//bytes32(uint256(1)));\n    ( _underlyingBalance, ,  _debtBalance) = MarketLibrary.getTokenBalances(_address, _protocolAds, underlying);\n    ( _fundingBalance,  _collateralBalance,) = MarketLibrary.getTokenBalances(_address, _protocolAds, funding); }\n\n  // this function emits values in token decimals.\n  function calcLoanRepaymentInTok(address _address, uint256 _lendingPoolRateMode) external view returns(uint256 _repayAmount, uint256 _repaySwapValue){\n    (uint256 _price,) = volatilityChain.queryPrice();\n    int256 _aggregateDelta = calculateAggregateDelta(_price, false);\n    (int256 _loanTradeAmount, , ) = MarketLibrary.getLoanTrade(_address, ILendingPoolAddressesProvider(aaveAddress).getAddress(\"0x1\"), _aggregateDelta, underlying, _lendingPoolRateMode == 2);\n    _repayAmount = 0;\n    _repaySwapValue = 0;\n    if(_loanTradeAmount < 0){\n      _repayAmount = uint256(-_loanTradeAmount) - Math.min(uint256(-_loanTradeAmount), ERC20(underlying).balanceOf(address(this)));\n      _repaySwapValue = MarketLibrary.cvtDecimals(MulDiv(_repayAmount, _price, OptionLibrary.Multiplier()), funding);\n      _repayAmount = MarketLibrary.cvtDecimals(_repayAmount, underlying);}}\n\n  // this function emits values in token decimals.\n  function calcLoanTradesInTok(address _address, uint256 _lendingPoolRateMode) external view returns(int256 _loanTradeAmount, int256 _collateralChange, address _loanAddress, address _collateralAddress){\n    (uint256 _price,) = volatilityChain.queryPrice();\n    int256 _aggregateDelta = calculateAggregateDelta(_price, false);\n    address _protocolAds = ILendingPoolAddressesProvider(aaveAddress).getAddress(\"0x1\");\n    uint256 _targetLoan = 0;\n    (_loanTradeAmount, _targetLoan, _loanAddress) = MarketLibrary.getLoanTrade(_address, _protocolAds, _aggregateDelta, underlying, _lendingPoolRateMode == 2);\n    (_collateralChange, _collateralAddress) = MarketLibrary.getCollateralTrade(_address, _protocolAds, _targetLoan, _price, funding, underlying, overCollateral);\n    _loanTradeAmount = MarketLibrary.cvtDecimalsInt(_loanTradeAmount, _loanAddress);\n    _collateralChange =MarketLibrary.cvtDecimalsInt(_collateralChange, _collateralAddress);}\n\n  function queryVol(uint256 _tenor) external view returns(uint256){return volatilityChain.getVol(_tenor);}\n  function queryPrice() external view returns(uint256, uint256){return volatilityChain.queryPrice();}\n  function tokenHash() external view returns (bytes32) {return volatilityChain.getTokenHash();}\n  function resetOverCollateral(uint256 _overCollateral) external onlyRole(DEFAULT_ADMIN_ROLE) { overCollateral= _overCollateral;}\n}\n",
  "sourcePath": "/Users/apple/Documents/GitHub/moret/contracts/OptionVault.sol",
  "compiler": {
    "name": "solc",
    "version": "0.8.10+commit.fc410830.Emscripten.clang"
  },
  "schemaVersion": "3.4.3",
  "updatedAt": "2021-12-14T21:43:55.502Z",
  "networkType": "ethereum",
  "devdoc": {
    "kind": "dev",
    "methods": {
      "getRoleAdmin(bytes32)": {
        "details": "Returns the admin role that controls `role`. See {grantRole} and {revokeRole}. To change a role's admin, use {_setRoleAdmin}."
      },
      "grantRole(bytes32,address)": {
        "details": "Grants `role` to `account`. If `account` had not been already granted `role`, emits a {RoleGranted} event. Requirements: - the caller must have ``role``'s admin role."
      },
      "hasRole(bytes32,address)": {
        "details": "Returns `true` if `account` has been granted `role`."
      },
      "renounceRole(bytes32,address)": {
        "details": "Revokes `role` from the calling account. Roles are often managed via {grantRole} and {revokeRole}: this function's purpose is to provide a mechanism for accounts to lose their privileges if they are compromised (such as when a trusted device is misplaced). If the calling account had been revoked `role`, emits a {RoleRevoked} event. Requirements: - the caller must be `account`."
      },
      "revokeRole(bytes32,address)": {
        "details": "Revokes `role` from `account`. If `account` had been granted `role`, emits a {RoleRevoked} event. Requirements: - the caller must have ``role``'s admin role."
      },
      "supportsInterface(bytes4)": {
        "details": "See {IERC165-supportsInterface}."
      }
    },
    "version": 1
  },
  "userdoc": {
    "kind": "user",
    "methods": {},
    "version": 1
  }
}