{
  "contractName": "OptionVault",
  "abi": [
    {
      "inputs": [
        {
          "internalType": "address",
          "name": "_volChainAddress",
          "type": "address"
        }
      ],
      "stateMutability": "nonpayable",
      "type": "constructor"
    },
    {
      "anonymous": false,
      "inputs": [
        {
          "indexed": true,
          "internalType": "bytes32",
          "name": "role",
          "type": "bytes32"
        },
        {
          "indexed": true,
          "internalType": "bytes32",
          "name": "previousAdminRole",
          "type": "bytes32"
        },
        {
          "indexed": true,
          "internalType": "bytes32",
          "name": "newAdminRole",
          "type": "bytes32"
        }
      ],
      "name": "RoleAdminChanged",
      "type": "event"
    },
    {
      "anonymous": false,
      "inputs": [
        {
          "indexed": true,
          "internalType": "bytes32",
          "name": "role",
          "type": "bytes32"
        },
        {
          "indexed": true,
          "internalType": "address",
          "name": "account",
          "type": "address"
        },
        {
          "indexed": true,
          "internalType": "address",
          "name": "sender",
          "type": "address"
        }
      ],
      "name": "RoleGranted",
      "type": "event"
    },
    {
      "anonymous": false,
      "inputs": [
        {
          "indexed": true,
          "internalType": "bytes32",
          "name": "role",
          "type": "bytes32"
        },
        {
          "indexed": true,
          "internalType": "address",
          "name": "account",
          "type": "address"
        },
        {
          "indexed": true,
          "internalType": "address",
          "name": "sender",
          "type": "address"
        }
      ],
      "name": "RoleRevoked",
      "type": "event"
    },
    {
      "inputs": [],
      "name": "ADMIN_ROLE",
      "outputs": [
        {
          "internalType": "bytes32",
          "name": "",
          "type": "bytes32"
        }
      ],
      "stateMutability": "view",
      "type": "function"
    },
    {
      "inputs": [],
      "name": "DEFAULT_ADMIN_ROLE",
      "outputs": [
        {
          "internalType": "bytes32",
          "name": "",
          "type": "bytes32"
        }
      ],
      "stateMutability": "view",
      "type": "function"
    },
    {
      "inputs": [],
      "name": "EXCHANGE_ROLE",
      "outputs": [
        {
          "internalType": "bytes32",
          "name": "",
          "type": "bytes32"
        }
      ],
      "stateMutability": "view",
      "type": "function"
    },
    {
      "inputs": [],
      "name": "deltaRange",
      "outputs": [
        {
          "internalType": "uint256",
          "name": "numerator",
          "type": "uint256"
        },
        {
          "internalType": "uint256",
          "name": "denominator",
          "type": "uint256"
        }
      ],
      "stateMutability": "view",
      "type": "function"
    },
    {
      "inputs": [
        {
          "internalType": "bytes32",
          "name": "role",
          "type": "bytes32"
        }
      ],
      "name": "getRoleAdmin",
      "outputs": [
        {
          "internalType": "bytes32",
          "name": "",
          "type": "bytes32"
        }
      ],
      "stateMutability": "view",
      "type": "function"
    },
    {
      "inputs": [
        {
          "internalType": "bytes32",
          "name": "role",
          "type": "bytes32"
        },
        {
          "internalType": "address",
          "name": "account",
          "type": "address"
        }
      ],
      "name": "grantRole",
      "outputs": [],
      "stateMutability": "nonpayable",
      "type": "function"
    },
    {
      "inputs": [
        {
          "internalType": "bytes32",
          "name": "role",
          "type": "bytes32"
        },
        {
          "internalType": "address",
          "name": "account",
          "type": "address"
        }
      ],
      "name": "hasRole",
      "outputs": [
        {
          "internalType": "bool",
          "name": "",
          "type": "bool"
        }
      ],
      "stateMutability": "view",
      "type": "function"
    },
    {
      "inputs": [],
      "name": "optionCounter",
      "outputs": [
        {
          "internalType": "uint256",
          "name": "",
          "type": "uint256"
        }
      ],
      "stateMutability": "view",
      "type": "function"
    },
    {
      "inputs": [
        {
          "internalType": "bytes32",
          "name": "role",
          "type": "bytes32"
        },
        {
          "internalType": "address",
          "name": "account",
          "type": "address"
        }
      ],
      "name": "renounceRole",
      "outputs": [],
      "stateMutability": "nonpayable",
      "type": "function"
    },
    {
      "inputs": [
        {
          "internalType": "bytes32",
          "name": "role",
          "type": "bytes32"
        },
        {
          "internalType": "address",
          "name": "account",
          "type": "address"
        }
      ],
      "name": "revokeRole",
      "outputs": [],
      "stateMutability": "nonpayable",
      "type": "function"
    },
    {
      "inputs": [
        {
          "internalType": "bytes4",
          "name": "interfaceId",
          "type": "bytes4"
        }
      ],
      "name": "supportsInterface",
      "outputs": [
        {
          "internalType": "bool",
          "name": "",
          "type": "bool"
        }
      ],
      "stateMutability": "view",
      "type": "function"
    },
    {
      "inputs": [],
      "name": "volPremiumFixedAddon",
      "outputs": [
        {
          "internalType": "uint256",
          "name": "numerator",
          "type": "uint256"
        },
        {
          "internalType": "uint256",
          "name": "denominator",
          "type": "uint256"
        }
      ],
      "stateMutability": "view",
      "type": "function"
    },
    {
      "inputs": [],
      "name": "descriptionHash",
      "outputs": [
        {
          "internalType": "bytes32",
          "name": "",
          "type": "bytes32"
        }
      ],
      "stateMutability": "view",
      "type": "function"
    },
    {
      "inputs": [
        {
          "internalType": "uint256",
          "name": "_tenor",
          "type": "uint256"
        },
        {
          "internalType": "uint256",
          "name": "_strike",
          "type": "uint256"
        },
        {
          "internalType": "enum OptionLibrary.PayoffType",
          "name": "_poType",
          "type": "uint8"
        },
        {
          "internalType": "uint256",
          "name": "_amount",
          "type": "uint256"
        },
        {
          "internalType": "uint256",
          "name": "_utilPrior",
          "type": "uint256"
        },
        {
          "internalType": "uint256",
          "name": "_utilAfter",
          "type": "uint256"
        }
      ],
      "name": "queryOptionCost",
      "outputs": [
        {
          "internalType": "uint256",
          "name": "",
          "type": "uint256"
        }
      ],
      "stateMutability": "view",
      "type": "function"
    },
    {
      "inputs": [
        {
          "internalType": "uint256",
          "name": "_tenor",
          "type": "uint256"
        },
        {
          "internalType": "uint256",
          "name": "_strike",
          "type": "uint256"
        }
      ],
      "name": "checkVolSkew",
      "outputs": [
        {
          "internalType": "uint256",
          "name": "",
          "type": "uint256"
        },
        {
          "internalType": "uint256",
          "name": "",
          "type": "uint256"
        },
        {
          "internalType": "uint256",
          "name": "",
          "type": "uint256"
        }
      ],
      "stateMutability": "view",
      "type": "function"
    },
    {
      "inputs": [
        {
          "internalType": "uint256",
          "name": "_tenor",
          "type": "uint256"
        },
        {
          "internalType": "uint256",
          "name": "_strike",
          "type": "uint256"
        },
        {
          "internalType": "enum OptionLibrary.PayoffType",
          "name": "_poType",
          "type": "uint8"
        },
        {
          "internalType": "enum OptionLibrary.OptionSide",
          "name": "_side",
          "type": "uint8"
        },
        {
          "internalType": "uint256",
          "name": "_amount",
          "type": "uint256"
        },
        {
          "internalType": "uint256",
          "name": "_premium",
          "type": "uint256"
        },
        {
          "internalType": "uint256",
          "name": "_fee",
          "type": "uint256"
        }
      ],
      "name": "addOption",
      "outputs": [
        {
          "internalType": "uint256",
          "name": "",
          "type": "uint256"
        }
      ],
      "stateMutability": "nonpayable",
      "type": "function"
    },
    {
      "inputs": [
        {
          "internalType": "uint256",
          "name": "_id",
          "type": "uint256"
        },
        {
          "internalType": "bool",
          "name": "_inVol",
          "type": "bool"
        }
      ],
      "name": "queryDraftOptionCost",
      "outputs": [
        {
          "internalType": "uint256",
          "name": "",
          "type": "uint256"
        }
      ],
      "stateMutability": "view",
      "type": "function"
    },
    {
      "inputs": [
        {
          "internalType": "uint256",
          "name": "_id",
          "type": "uint256"
        }
      ],
      "name": "queryDraftOptionFee",
      "outputs": [
        {
          "internalType": "uint256",
          "name": "",
          "type": "uint256"
        }
      ],
      "stateMutability": "view",
      "type": "function"
    },
    {
      "inputs": [
        {
          "internalType": "uint256",
          "name": "_id",
          "type": "uint256"
        }
      ],
      "name": "queryOptionPremium",
      "outputs": [
        {
          "internalType": "uint256",
          "name": "",
          "type": "uint256"
        }
      ],
      "stateMutability": "view",
      "type": "function"
    },
    {
      "inputs": [
        {
          "internalType": "uint256",
          "name": "_id",
          "type": "uint256"
        },
        {
          "internalType": "enum OptionLibrary.PayoffType",
          "name": "_poType",
          "type": "uint8"
        }
      ],
      "name": "queryOptionExposure",
      "outputs": [
        {
          "internalType": "uint256",
          "name": "",
          "type": "uint256"
        }
      ],
      "stateMutability": "view",
      "type": "function"
    },
    {
      "inputs": [
        {
          "internalType": "uint256",
          "name": "_id",
          "type": "uint256"
        }
      ],
      "name": "getOptionPayoffValue",
      "outputs": [
        {
          "internalType": "uint256",
          "name": "",
          "type": "uint256"
        }
      ],
      "stateMutability": "view",
      "type": "function"
    },
    {
      "inputs": [
        {
          "internalType": "uint256",
          "name": "_id",
          "type": "uint256"
        }
      ],
      "name": "getOptionHolder",
      "outputs": [
        {
          "internalType": "address payable",
          "name": "",
          "type": "address"
        }
      ],
      "stateMutability": "view",
      "type": "function"
    },
    {
      "inputs": [
        {
          "internalType": "uint256",
          "name": "_id",
          "type": "uint256"
        }
      ],
      "name": "calculateContractDelta",
      "outputs": [
        {
          "internalType": "int256",
          "name": "",
          "type": "int256"
        }
      ],
      "stateMutability": "view",
      "type": "function"
    },
    {
      "inputs": [
        {
          "internalType": "uint256",
          "name": "_id",
          "type": "uint256"
        },
        {
          "internalType": "address",
          "name": "_holder",
          "type": "address"
        }
      ],
      "name": "validateOption",
      "outputs": [],
      "stateMutability": "view",
      "type": "function"
    },
    {
      "inputs": [
        {
          "internalType": "uint256",
          "name": "_id",
          "type": "uint256"
        }
      ],
      "name": "isOptionExpiring",
      "outputs": [
        {
          "internalType": "bool",
          "name": "",
          "type": "bool"
        }
      ],
      "stateMutability": "view",
      "type": "function"
    },
    {
      "inputs": [
        {
          "internalType": "uint256",
          "name": "_id",
          "type": "uint256"
        }
      ],
      "name": "stampActiveOption",
      "outputs": [],
      "stateMutability": "nonpayable",
      "type": "function"
    },
    {
      "inputs": [
        {
          "internalType": "uint256",
          "name": "_id",
          "type": "uint256"
        }
      ],
      "name": "stampExercisedOption",
      "outputs": [],
      "stateMutability": "nonpayable",
      "type": "function"
    },
    {
      "inputs": [
        {
          "internalType": "uint256",
          "name": "_id",
          "type": "uint256"
        }
      ],
      "name": "stampExpiredOption",
      "outputs": [],
      "stateMutability": "nonpayable",
      "type": "function"
    },
    {
      "inputs": [
        {
          "internalType": "uint256",
          "name": "_id",
          "type": "uint256"
        }
      ],
      "name": "getOption",
      "outputs": [
        {
          "components": [
            {
              "internalType": "enum OptionLibrary.PayoffType",
              "name": "poType",
              "type": "uint8"
            },
            {
              "internalType": "enum OptionLibrary.OptionSide",
              "name": "side",
              "type": "uint8"
            },
            {
              "internalType": "enum OptionLibrary.OptionStatus",
              "name": "status",
              "type": "uint8"
            },
            {
              "internalType": "address",
              "name": "holder",
              "type": "address"
            },
            {
              "internalType": "uint256",
              "name": "id",
              "type": "uint256"
            },
            {
              "internalType": "uint256",
              "name": "createTime",
              "type": "uint256"
            },
            {
              "internalType": "uint256",
              "name": "effectiveTime",
              "type": "uint256"
            },
            {
              "internalType": "uint256",
              "name": "tenor",
              "type": "uint256"
            },
            {
              "internalType": "uint256",
              "name": "exerciseTime",
              "type": "uint256"
            },
            {
              "internalType": "uint256",
              "name": "amount",
              "type": "uint256"
            },
            {
              "internalType": "uint256",
              "name": "spot",
              "type": "uint256"
            },
            {
              "internalType": "uint256",
              "name": "strike",
              "type": "uint256"
            },
            {
              "internalType": "uint256",
              "name": "volatility",
              "type": "uint256"
            },
            {
              "internalType": "uint256",
              "name": "premium",
              "type": "uint256"
            },
            {
              "internalType": "uint256",
              "name": "fee",
              "type": "uint256"
            }
          ],
          "internalType": "struct OptionLibrary.Option",
          "name": "",
          "type": "tuple"
        }
      ],
      "stateMutability": "view",
      "type": "function"
    },
    {
      "inputs": [
        {
          "internalType": "uint256",
          "name": "_tenor",
          "type": "uint256"
        }
      ],
      "name": "queryVol",
      "outputs": [
        {
          "internalType": "uint256",
          "name": "",
          "type": "uint256"
        },
        {
          "internalType": "uint256",
          "name": "",
          "type": "uint256"
        }
      ],
      "stateMutability": "view",
      "type": "function"
    },
    {
      "inputs": [],
      "name": "queryPrice",
      "outputs": [
        {
          "internalType": "uint256",
          "name": "",
          "type": "uint256"
        },
        {
          "internalType": "uint256",
          "name": "",
          "type": "uint256"
        }
      ],
      "stateMutability": "view",
      "type": "function"
    },
    {
      "inputs": [],
      "name": "priceMultiplier",
      "outputs": [
        {
          "internalType": "uint256",
          "name": "",
          "type": "uint256"
        }
      ],
      "stateMutability": "view",
      "type": "function"
    },
    {
      "inputs": [],
      "name": "priceDecimals",
      "outputs": [
        {
          "internalType": "uint256",
          "name": "",
          "type": "uint256"
        }
      ],
      "stateMutability": "view",
      "type": "function"
    }
  ],
  "bytecode": "0x60806040526000600255670de0b6b3a7640000600455620f424060055560405180604001604052806113888152602001620f42408152506006600082015181600001556020820151816001015550506040518060400160405280620c35008152602001620f42408152506008600082015181600001556020820151816001015550503480156200008e57600080fd5b50604051620044a3380380620044a38339818101604052810190620000b4919062000305565b620000c96000801b336200017560201b60201c565b620000fb7fa49807205ce4d355092ef5a8a18f56e8913cf4a201fbe287825b095693c21775336200017560201b60201c565b6200012d7f28d62fc77014de57a1bbaa8212ff0979fa61ab00d377b4b8d9762048fb419961336200017560201b60201c565b80600360006101000a81548173ffffffffffffffffffffffffffffffffffffffff021916908373ffffffffffffffffffffffffffffffffffffffff160217905550506200038a565b6200018782826200018b60201b60201c565b5050565b6200019d82826200027c60201b60201c565b6200027857600160008084815260200190815260200160002060000160008373ffffffffffffffffffffffffffffffffffffffff1673ffffffffffffffffffffffffffffffffffffffff16815260200190815260200160002060006101000a81548160ff0219169083151502179055506200021d620002e660201b60201c565b73ffffffffffffffffffffffffffffffffffffffff168173ffffffffffffffffffffffffffffffffffffffff16837f2f8788117e7eff1d82e926ec794901d17c78024a50270940304540a733656f0d60405160405180910390a45b5050565b600080600084815260200190815260200160002060000160008373ffffffffffffffffffffffffffffffffffffffff1673ffffffffffffffffffffffffffffffffffffffff16815260200190815260200160002060009054906101000a900460ff16905092915050565b600033905090565b600081519050620002ff8162000370565b92915050565b6000602082840312156200031e576200031d6200036b565b5b60006200032e84828501620002ee565b91505092915050565b600062000344826200034b565b9050919050565b600073ffffffffffffffffffffffffffffffffffffffff82169050919050565b600080fd5b6200037b8162000337565b81146200038757600080fd5b50565b614109806200039a6000396000f3fe608060405234801561001057600080fd5b50600436106101fb5760003560e01c80636abae9b31161011a578063af7b2625116100ad578063cff7fb051161007c578063cff7fb051461063c578063d50cb88b1461066e578063d547741f1461068c578063d6811db0146106a8578063f8a35181146106d8576101fb565b8063af7b26251461059d578063b0667cf8146105cd578063b4469944146105ec578063cfc2dc201461060b576101fb565b806391d14854116100e957806391d1485414610503578063a217fddf14610533578063a556feec14610551578063a823c0871461056d576101fb565b80636abae9b31461047b5780636c1f7b93146104ab57806375b238fc146104c757806385dcee93146104e5576101fb565b80632f2ff15d1161019257806346047a661161016157806346047a66146103cf57806349b04ee1146103ff578063637baf601461042f57806369369ab51461044b576101fb565b80632f2ff15d1461034957806336568abe146103655780633b7345011461038157806340d6eaab1461039f576101fb565b80631ce5e9a6116101ce5780631ce5e9a6146102ae578063248a9ca3146102de57806328e493c11461030e5780632bd81a0f1461032a576101fb565b806301ffc9a71461020057806305300b2814610230578063128734c51461024e5780631a7985ba1461027e575b600080fd5b61021a60048036038101906102159190612e2b565b6106f6565b6040516102279190613557565b60405180910390f35b610238610770565b60405161024591906136f8565b60405180910390f35b61026860048036038101906102639190612f7b565b610817565b60405161027591906136f8565b60405180910390f35b61029860048036038101906102939190612ea1565b610891565b6040516102a5919061353c565b60405180910390f35b6102c860048036038101906102c39190612ea1565b6108d1565b6040516102d5919061368a565b60405180910390f35b6102f860048036038101906102f39190612dbe565b610a74565b6040516103059190613572565b60405180910390f35b61032860048036038101906103239190612ea1565b610a93565b005b610332610b22565b604051610340929190613713565b60405180910390f35b610363600480360381019061035e9190612deb565b610b34565b005b61037f600480360381019061037a9190612deb565b610b5d565b005b610389610be0565b6040516103969190613572565b60405180910390f35b6103b960048036038101906103b49190612ea1565b610c04565b6040516103c691906136f8565b60405180910390f35b6103e960048036038101906103e49190612ea1565b610d4e565b6040516103f691906136f8565b60405180910390f35b61041960048036038101906104149190612ea1565b610d6e565b60405161042691906136f8565b60405180910390f35b61044960048036038101906104449190612ea1565b610de1565b005b61046560048036038101906104609190612ea1565b610e56565b6040516104729190613557565b60405180910390f35b61049560048036038101906104909190612f3b565b610eec565b6040516104a291906136f8565b60405180910390f35b6104c560048036038101906104c09190612ea1565b610fe6565b005b6104cf611076565b6040516104dc9190613572565b60405180910390f35b6104ed61109a565b6040516104fa9190613572565b60405180910390f35b61051d60048036038101906105189190612deb565b61116c565b60405161052a9190613557565b60405180910390f35b61053b6111d6565b6040516105489190613572565b60405180910390f35b61056b60048036038101906105669190612efb565b6111dd565b005b61058760048036038101906105829190612ea1565b611389565b604051610594919061358d565b60405180910390f35b6105b760048036038101906105b2919061303b565b611838565b6040516105c491906136f8565b60405180910390f35b6105d5611c9a565b6040516105e3929190613713565b60405180910390f35b6105f4611d44565b604051610602929190613713565b60405180910390f35b61062560048036038101906106209190612ea1565b611d56565b604051610633929190613713565b60405180910390f35b61065660048036038101906106519190612fbb565b611e0c565b6040516106659392919061373c565b60405180910390f35b6106766120a0565b60405161068391906136f8565b60405180910390f35b6106a660048036038101906106a19190612deb565b612147565b005b6106c260048036038101906106bd91906130dd565b612170565b6040516106cf91906136f8565b60405180910390f35b6106e0612487565b6040516106ed91906136f8565b60405180910390f35b60007f7965db0b000000000000000000000000000000000000000000000000000000007bffffffffffffffffffffffffffffffffffffffffffffffffffffffff1916827bffffffffffffffffffffffffffffffffffffffffffffffffffffffff1916148061076957506107688261248d565b5b9050919050565b6000600360009054906101000a900473ffffffffffffffffffffffffffffffffffffffff1673ffffffffffffffffffffffffffffffffffffffff16631b30aafc6040518163ffffffff1660e01b815260040160206040518083038186803b1580156107da57600080fd5b505afa1580156107ee573d6000803e3d6000fd5b505050506040513d601f19601f820116820180604052508101906108129190612ece565b905090565b600081600181111561082c5761082b613de4565b5b6001600085815260200190815260200160002060000160009054906101000a900460ff16600181111561086257610861613de4565b5b1415610886576001600084815260200190815260200160002060060154905061088b565b600090505b92915050565b60006001600083815260200190815260200160002060000160039054906101000a900473ffffffffffffffffffffffffffffffffffffffff169050919050565b6108d9612be4565b60016000838152602001908152602001600020604051806101e00160405290816000820160009054906101000a900460ff16600181111561091d5761091c613de4565b5b600181111561092f5761092e613de4565b5b81526020016000820160019054906101000a900460ff16600181111561095857610957613de4565b5b600181111561096a57610969613de4565b5b81526020016000820160029054906101000a900460ff16600381111561099357610992613de4565b5b60038111156109a5576109a4613de4565b5b81526020016000820160039054906101000a900473ffffffffffffffffffffffffffffffffffffffff1673ffffffffffffffffffffffffffffffffffffffff1673ffffffffffffffffffffffffffffffffffffffff168152602001600182015481526020016002820154815260200160038201548152602001600482015481526020016005820154815260200160068201548152602001600782015481526020016008820154815260200160098201548152602001600a8201548152602001600b820154815250509050919050565b6000806000838152602001908152602001600020600101549050919050565b7f28d62fc77014de57a1bbaa8212ff0979fa61ab00d377b4b8d9762048fb419961610ac581610ac06124f7565b6124ff565b426001600084815260200190815260200160002060030181905550600180600084815260200190815260200160002060000160026101000a81548160ff02191690836003811115610b1957610b18613de4565b5b02179055505050565b60088060000154908060010154905082565b610b3d82610a74565b610b4e81610b496124f7565b6124ff565b610b58838361259c565b505050565b610b656124f7565b73ffffffffffffffffffffffffffffffffffffffff168173ffffffffffffffffffffffffffffffffffffffff1614610bd2576040517f08c379a0000000000000000000000000000000000000000000000000000000008152600401610bc99061366a565b60405180910390fd5b610bdc828261267c565b5050565b7f28d62fc77014de57a1bbaa8212ff0979fa61ab00d377b4b8d9762048fb41996181565b600080600360009054906101000a900473ffffffffffffffffffffffffffffffffffffffff1673ffffffffffffffffffffffffffffffffffffffff1663b0667cf86040518163ffffffff1660e01b8152600401604080518083038186803b158015610c6e57600080fd5b505afa158015610c82573d6000803e3d6000fd5b505050506040513d601f19601f82011682018060405250810190610ca69190612ffb565b5090506001600084815260200190815260200160002073__OptionLibrary_________________________63d26870859091836040518363ffffffff1660e01b8152600401610cf69291906136cf565b60206040518083038186803b158015610d0e57600080fd5b505af4158015610d22573d6000803e3d6000fd5b505050506040513d601f19601f82011682018060405250810190610d469190612ece565b915050919050565b600060016000838152602001908152602001600020600a01549050919050565b6000806003811115610d8357610d82613de4565b5b6001600084815260200190815260200160002060000160029054906101000a900460ff166003811115610db957610db8613de4565b5b14610dc357600080fd5b60016000838152602001908152602001600020600b01549050919050565b7f28d62fc77014de57a1bbaa8212ff0979fa61ab00d377b4b8d9762048fb419961610e1381610e0e6124f7565b6124ff565b60036001600084815260200190815260200160002060000160026101000a81548160ff02191690836003811115610e4d57610e4c613de4565b5b02179055505050565b6000806003811115610e6b57610e6a613de4565b5b6001600084815260200190815260200160002060000160029054906101000a900460ff166003811115610ea157610ea0613de4565b5b148015610ee557504260016000848152602001908152602001600020600401546001600085815260200190815260200160002060030154610ee29190613896565b11155b9050919050565b6000806003811115610f0157610f00613de4565b5b6001600085815260200190815260200160002060000160029054906101000a900460ff166003811115610f3757610f36613de4565b5b14610f4157600080fd5b6001600084815260200190815260200160002073__OptionLibrary_________________________639931896a9091846040518363ffffffff1660e01b8152600401610f8e9291906136a6565b60206040518083038186803b158015610fa657600080fd5b505af4158015610fba573d6000803e3d6000fd5b505050506040513d601f19601f82011682018060405250810190610fde9190612ece565b905092915050565b7f28d62fc77014de57a1bbaa8212ff0979fa61ab00d377b4b8d9762048fb419961611018816110136124f7565b6124ff565b42600160008481526020019081526020016000206005018190555060026001600084815260200190815260200160002060000160026101000a81548160ff0219169083600381111561106d5761106c613de4565b5b02179055505050565b7fa49807205ce4d355092ef5a8a18f56e8913cf4a201fbe287825b095693c2177581565b6000600360009054906101000a900473ffffffffffffffffffffffffffffffffffffffff1673ffffffffffffffffffffffffffffffffffffffff166398de78976040518163ffffffff1660e01b815260040160006040518083038186803b15801561110457600080fd5b505afa158015611118573d6000803e3d6000fd5b505050506040513d6000823e3d601f19601f820116820180604052508101906111419190612e58565b60405160200161115191906134eb565b60405160208183030381529060405280519060200120905090565b600080600084815260200190815260200160002060000160008373ffffffffffffffffffffffffffffffffffffffff1673ffffffffffffffffffffffffffffffffffffffff16815260200190815260200160002060009054906101000a900460ff16905092915050565b6000801b81565b8073ffffffffffffffffffffffffffffffffffffffff166001600084815260200190815260200160002060000160039054906101000a900473ffffffffffffffffffffffffffffffffffffffff1673ffffffffffffffffffffffffffffffffffffffff1614611281576040517f08c379a00000000000000000000000000000000000000000000000000000000081526004016112789061364a565b60405180910390fd5b42600160008481526020019081526020016000206004015460016000858152602001908152602001600020600301546112ba9190613896565b10156112fb576040517f08c379a00000000000000000000000000000000000000000000000000000000081526004016112f29061362a565b60405180910390fd5b6001600381111561130f5761130e613de4565b5b6001600084815260200190815260200160002060000160029054906101000a900460ff16600381111561134557611344613de4565b5b14611385576040517f08c379a000000000000000000000000000000000000000000000000000000000815260040161137c9061360a565b60405180910390fd5b5050565b60008060009050600160038111156113a4576113a3613de4565b5b6001600085815260200190815260200160002060000160029054906101000a900460ff1660038111156113da576113d9613de4565b5b141561182f576000600360009054906101000a900473ffffffffffffffffffffffffffffffffffffffff1673ffffffffffffffffffffffffffffffffffffffff1663b0667cf86040518163ffffffff1660e01b8152600401604080518083038186803b15801561144957600080fd5b505afa15801561145d573d6000803e3d6000fd5b505050506040513d601f19601f820116820180604052508101906114819190612ffb565b5090506000600360009054906101000a900473ffffffffffffffffffffffffffffffffffffffff1673ffffffffffffffffffffffffffffffffffffffff1663040b030f60016000888152602001908152602001600020600401546040518263ffffffff1660e01b81526004016114f791906136f8565b604080518083038186803b15801561150e57600080fd5b505afa158015611522573d6000803e3d6000fd5b505050506040513d601f19601f820116820180604052508101906115469190612ffb565b50905060006115936115828361155e6201518061275d565b61157d600160008c81526020019081526020016000206004015461275d565b6127ba565b6008600001546008600101546127ba565b90506000600360009054906101000a900473ffffffffffffffffffffffffffffffffffffffff1673ffffffffffffffffffffffffffffffffffffffff1663bf0a03ca6040518163ffffffff1660e01b815260040160206040518083038186803b1580156115ff57600080fd5b505afa158015611613573d6000803e3d6000fd5b505050506040513d601f19601f820116820180604052508101906116379190612ece565b82856116439190613a9e565b61164d9190613956565b846116589190613af8565b905060008160028661166a9190613a9e565b6116749190613af8565b90506002600160008a81526020019081526020016000206006015461169991906138ec565b9550600060018111156116af576116ae613de4565b5b600160008a815260200190815260200160002060000160009054906101000a900460ff1660018111156116e5576116e4613de4565b5b141561174757600160008981526020019081526020016000206008015481101561170e57600095505b600160008981526020019081526020016000206008015482111561174657600160008981526020019081526020016000206006015495505b5b60018081111561175a57611759613de4565b5b600160008a815260200190815260200160002060000160009054906101000a900460ff1660018111156117905761178f613de4565b5b1415611829577fffffffffffffffffffffffffffffffffffffffffffffffffffffffffffffffff866117c29190613987565b9550600160008981526020019081526020016000206008015481101561180557600160008981526020019081526020016000206006015461180290613d3d565b95505b600160008981526020019081526020016000206008015482111561182857600095505b5b50505050505b80915050919050565b60007f28d62fc77014de57a1bbaa8212ff0979fa61ab00d377b4b8d9762048fb41996161186c816118676124f7565b6124ff565b600060018111156118805761187f613de4565b5b87600181111561189357611892613de4565b5b14806118c257506001808111156118ad576118ac613de4565b5b8760018111156118c0576118bf613de4565b5b145b611901576040517f08c379a00000000000000000000000000000000000000000000000000000000081526004016118f8906135ea565b60405180910390fd5b6000600360009054906101000a900473ffffffffffffffffffffffffffffffffffffffff1673ffffffffffffffffffffffffffffffffffffffff1663b0667cf86040518163ffffffff1660e01b8152600401604080518083038186803b15801561196a57600080fd5b505afa15801561197e573d6000803e3d6000fd5b505050506040513d601f19601f820116820180604052508101906119a29190612ffb565b5090506000600360009054906101000a900473ffffffffffffffffffffffffffffffffffffffff1673ffffffffffffffffffffffffffffffffffffffff1663040b030f8c6040518263ffffffff1660e01b8152600401611a0291906136f8565b604080518083038186803b158015611a1957600080fd5b505afa158015611a2d573d6000803e3d6000fd5b505050506040513d601f19601f82011682018060405250810190611a519190612ffb565b50905060026000815480929190611a6790613cc3565b919050555060006002549050604051806101e001604052808b6001811115611a9257611a91613de4565b5b81526020018a6001811115611aaa57611aa9613de4565b5b815260200160006003811115611ac357611ac2613de4565b5b81526020013373ffffffffffffffffffffffffffffffffffffffff168152602001828152602001428152602001600081526020018d8152602001600081526020018981526020018481526020018c8152602001838152602001888152602001878152506001600083815260200190815260200160002060008201518160000160006101000a81548160ff02191690836001811115611b6457611b63613de4565b5b021790555060208201518160000160016101000a81548160ff02191690836001811115611b9457611b93613de4565b5b021790555060408201518160000160026101000a81548160ff02191690836003811115611bc457611bc3613de4565b5b021790555060608201518160000160036101000a81548173ffffffffffffffffffffffffffffffffffffffff021916908373ffffffffffffffffffffffffffffffffffffffff1602179055506080820151816001015560a0820151816002015560c0820151816003015560e08201518160040155610100820151816005015561012082015181600601556101408201518160070155610160820151816008015561018082015181600901556101a082015181600a01556101c082015181600b015590505080945050505050979650505050505050565b600080600360009054906101000a900473ffffffffffffffffffffffffffffffffffffffff1673ffffffffffffffffffffffffffffffffffffffff1663b0667cf86040518163ffffffff1660e01b8152600401604080518083038186803b158015611d0457600080fd5b505afa158015611d18573d6000803e3d6000fd5b505050506040513d601f19601f82011682018060405250810190611d3c9190612ffb565b915091509091565b60068060000154908060010154905082565b600080600360009054906101000a900473ffffffffffffffffffffffffffffffffffffffff1673ffffffffffffffffffffffffffffffffffffffff1663040b030f846040518263ffffffff1660e01b8152600401611db491906136f8565b604080518083038186803b158015611dcb57600080fd5b505afa158015611ddf573d6000803e3d6000fd5b505050506040513d601f19601f82011682018060405250810190611e039190612ffb565b91509150915091565b600080600080600360009054906101000a900473ffffffffffffffffffffffffffffffffffffffff1673ffffffffffffffffffffffffffffffffffffffff1663b0667cf86040518163ffffffff1660e01b8152600401604080518083038186803b158015611e7957600080fd5b505afa158015611e8d573d6000803e3d6000fd5b505050506040513d601f19601f82011682018060405250810190611eb19190612ffb565b5090506000600360009054906101000a900473ffffffffffffffffffffffffffffffffffffffff1673ffffffffffffffffffffffffffffffffffffffff1663040b030f886040518263ffffffff1660e01b8152600401611f1191906136f8565b604080518083038186803b158015611f2857600080fd5b505afa158015611f3c573d6000803e3d6000fd5b505050506040513d601f19601f82011682018060405250810190611f609190612ffb565b509050818173__OptionLibrary_________________________63ab390197898686600360009054906101000a900473ffffffffffffffffffffffffffffffffffffffff1673ffffffffffffffffffffffffffffffffffffffff1663bf0a03ca6040518163ffffffff1660e01b815260040160206040518083038186803b158015611fea57600080fd5b505afa158015611ffe573d6000803e3d6000fd5b505050506040513d601f19601f820116820180604052508101906120229190612ece565b6040518563ffffffff1660e01b815260040161204194939291906137d4565b60206040518083038186803b15801561205957600080fd5b505af415801561206d573d6000803e3d6000fd5b505050506040513d601f19601f820116820180604052508101906120919190612ece565b94509450945050509250925092565b6000600360009054906101000a900473ffffffffffffffffffffffffffffffffffffffff1673ffffffffffffffffffffffffffffffffffffffff1663bf0a03ca6040518163ffffffff1660e01b815260040160206040518083038186803b15801561210a57600080fd5b505afa15801561211e573d6000803e3d6000fd5b505050506040513d601f19601f820116820180604052508101906121429190612ece565b905090565b61215082610a74565b6121618161215c6124f7565b6124ff565b61216b838361267c565b505050565b600080600181111561218557612184613de4565b5b85600181111561219857612197613de4565b5b14806121c757506001808111156121b2576121b1613de4565b5b8560018111156121c5576121c4613de4565b5b145b6121d057600080fd5b6000600360009054906101000a900473ffffffffffffffffffffffffffffffffffffffff1673ffffffffffffffffffffffffffffffffffffffff1663b0667cf86040518163ffffffff1660e01b8152600401604080518083038186803b15801561223957600080fd5b505afa15801561224d573d6000803e3d6000fd5b505050506040513d601f19601f820116820180604052508101906122719190612ffb565b509050600080600360009054906101000a900473ffffffffffffffffffffffffffffffffffffffff1673ffffffffffffffffffffffffffffffffffffffff1663040b030f8b6040518263ffffffff1660e01b81526004016122d291906136f8565b604080518083038186803b1580156122e957600080fd5b505afa1580156122fd573d6000803e3d6000fd5b505050506040513d601f19601f820116820180604052508101906123219190612ffb565b9150915060006123456123358885856128b6565b6123408886866128b6565b612941565b905073__OptionLibrary_________________________6399b0113985838d8d8d600360009054906101000a900473ffffffffffffffffffffffffffffffffffffffff1673ffffffffffffffffffffffffffffffffffffffff1663bf0a03ca6040518163ffffffff1660e01b815260040160206040518083038186803b1580156123ce57600080fd5b505afa1580156123e2573d6000803e3d6000fd5b505050506040513d601f19601f820116820180604052508101906124069190612ece565b6040518763ffffffff1660e01b815260040161242796959493929190613773565b60206040518083038186803b15801561243f57600080fd5b505af4158015612453573d6000803e3d6000fd5b505050506040513d601f19601f820116820180604052508101906124779190612ece565b9450505050509695505050505050565b60025481565b60007f01ffc9a7000000000000000000000000000000000000000000000000000000007bffffffffffffffffffffffffffffffffffffffffffffffffffffffff1916827bffffffffffffffffffffffffffffffffffffffffffffffffffffffff1916149050919050565b600033905090565b612509828261116c565b6125985761252e8173ffffffffffffffffffffffffffffffffffffffff1660146129a8565b61253c8360001c60206129a8565b60405160200161254d929190613502565b6040516020818303038152906040526040517f08c379a000000000000000000000000000000000000000000000000000000000815260040161258f91906135a8565b60405180910390fd5b5050565b6125a6828261116c565b61267857600160008084815260200190815260200160002060000160008373ffffffffffffffffffffffffffffffffffffffff1673ffffffffffffffffffffffffffffffffffffffff16815260200190815260200160002060006101000a81548160ff02191690831515021790555061261d6124f7565b73ffffffffffffffffffffffffffffffffffffffff168173ffffffffffffffffffffffffffffffffffffffff16837f2f8788117e7eff1d82e926ec794901d17c78024a50270940304540a733656f0d60405160405180910390a45b5050565b612686828261116c565b1561275957600080600084815260200190815260200160002060000160008373ffffffffffffffffffffffffffffffffffffffff1673ffffffffffffffffffffffffffffffffffffffff16815260200190815260200160002060006101000a81548160ff0219169083151502179055506126fe6124f7565b73ffffffffffffffffffffffffffffffffffffffff168173ffffffffffffffffffffffffffffffffffffffff16837ff6391f5c32d9c69d2a47ea670b442974b53935d1edc7fd64eb21e047a839171b60405160405180910390a45b5050565b600080600260018461276f9190613896565b6127799190613956565b90508291505b818110156127b45780915060028182856127999190613956565b6127a39190613896565b6127ad9190613956565b905061277f565b50919050565b6000806000801985870985870292508281108382030391505060008114156127f557600084116127e957600080fd5b838204925050506128af565b80841161280157600080fd5b60008486880990508281118203915080830392506000856001877fffffffffffffffffffffffffffffffffffffffffffffffffffffffffffffffff0301169050808604955080840493506001818260000304019050808302841793506000600287600302189050808702600203810290508087026002038102905080870260020381029050808702600203810290508087026002038102905080870260020381029050808502955050505050505b9392505050565b6000828210156128c85782905061293a565b6004548411156129135761290383836128e19190613af8565b600454866128ef9190613af8565b60026128fb9190613a9e565b6004546127ba565b8261290e9190613896565b612937565b61292b83836129229190613af8565b856004546127ba565b836129369190613896565b5b90505b9392505050565b6000600280836129519190613d0c565b60028561295e9190613d0c565b6129689190613896565b6129729190613956565b60028361297f9190613956565b60028561298c9190613956565b6129969190613896565b6129a09190613896565b905092915050565b6060600060028360026129bb9190613a9e565b6129c59190613896565b67ffffffffffffffff8111156129de576129dd613e42565b5b6040519080825280601f01601f191660200182016040528015612a105781602001600182028036833780820191505090505b5090507f300000000000000000000000000000000000000000000000000000000000000081600081518110612a4857612a47613e13565b5b60200101907effffffffffffffffffffffffffffffffffffffffffffffffffffffffffffff1916908160001a9053507f780000000000000000000000000000000000000000000000000000000000000081600181518110612aac57612aab613e13565b5b60200101907effffffffffffffffffffffffffffffffffffffffffffffffffffffffffffff1916908160001a90535060006001846002612aec9190613a9e565b612af69190613896565b90505b6001811115612b96577f3031323334353637383961626364656600000000000000000000000000000000600f861660108110612b3857612b37613e13565b5b1a60f81b828281518110612b4f57612b4e613e13565b5b60200101907effffffffffffffffffffffffffffffffffffffffffffffffffffffffffffff1916908160001a905350600485901c945080612b8f90613c68565b9050612af9565b5060008414612bda576040517f08c379a0000000000000000000000000000000000000000000000000000000008152600401612bd1906135ca565b60405180910390fd5b8091505092915050565b604051806101e0016040528060006001811115612c0457612c03613de4565b5b815260200160006001811115612c1d57612c1c613de4565b5b815260200160006003811115612c3657612c35613de4565b5b8152602001600073ffffffffffffffffffffffffffffffffffffffff16815260200160008152602001600081526020016000815260200160008152602001600081526020016000815260200160008152602001600081526020016000815260200160008152602001600081525090565b6000612cb9612cb48461383e565b613819565b905082815260208101848484011115612cd557612cd4613e76565b5b612ce0848285613c35565b509392505050565b600081359050612cf781614040565b92915050565b600081359050612d0c81614057565b92915050565b600081359050612d218161406e565b92915050565b600081359050612d3681614085565b92915050565b600081359050612d4b8161409c565b92915050565b600081359050612d60816140ac565b92915050565b600082601f830112612d7b57612d7a613e71565b5b8151612d8b848260208601612ca6565b91505092915050565b600081359050612da3816140bc565b92915050565b600081519050612db8816140bc565b92915050565b600060208284031215612dd457612dd3613e80565b5b6000612de284828501612d12565b91505092915050565b60008060408385031215612e0257612e01613e80565b5b6000612e1085828601612d12565b9250506020612e2185828601612ce8565b9150509250929050565b600060208284031215612e4157612e40613e80565b5b6000612e4f84828501612d27565b91505092915050565b600060208284031215612e6e57612e6d613e80565b5b600082015167ffffffffffffffff811115612e8c57612e8b613e7b565b5b612e9884828501612d66565b91505092915050565b600060208284031215612eb757612eb6613e80565b5b6000612ec584828501612d94565b91505092915050565b600060208284031215612ee457612ee3613e80565b5b6000612ef284828501612da9565b91505092915050565b60008060408385031215612f1257612f11613e80565b5b6000612f2085828601612d94565b9250506020612f3185828601612ce8565b9150509250929050565b60008060408385031215612f5257612f51613e80565b5b6000612f6085828601612d94565b9250506020612f7185828601612cfd565b9150509250929050565b60008060408385031215612f9257612f91613e80565b5b6000612fa085828601612d94565b9250506020612fb185828601612d51565b9150509250929050565b60008060408385031215612fd257612fd1613e80565b5b6000612fe085828601612d94565b9250506020612ff185828601612d94565b9150509250929050565b6000806040838503121561301257613011613e80565b5b600061302085828601612da9565b925050602061303185828601612da9565b9150509250929050565b600080600080600080600060e0888a03121561305a57613059613e80565b5b60006130688a828b01612d94565b97505060206130798a828b01612d94565b965050604061308a8a828b01612d51565b955050606061309b8a828b01612d3c565b94505060806130ac8a828b01612d94565b93505060a06130bd8a828b01612d94565b92505060c06130ce8a828b01612d94565b91505092959891949750929550565b60008060008060008060c087890312156130fa576130f9613e80565b5b600061310889828a01612d94565b965050602061311989828a01612d94565b955050604061312a89828a01612d51565b945050606061313b89828a01612d94565b935050608061314c89828a01612d94565b92505060a061315d89828a01612d94565b9150509295509295509295565b61317381613b3e565b82525050565b61318281613b2c565b82525050565b61319181613b50565b82525050565b6131a081613b50565b82525050565b6131af81613b5c565b82525050565b6131be81613bff565b82525050565b6131cd81613c11565b82525050565b6131dc81613c23565b82525050565b6131eb81613c23565b82525050565b6131fa81613bcb565b82525050565b600061320b8261386f565b613215818561387a565b9350613225818560208601613c35565b61322e81613e85565b840191505092915050565b60006132448261386f565b61324e818561388b565b935061325e818560208601613c35565b80840191505092915050565b600061327760208361387a565b915061328282613e96565b602082019050919050565b600061329a60178361387a565b91506132a582613ebf565b602082019050919050565b60006132bd60128361387a565b91506132c882613ee8565b602082019050919050565b60006132e060138361387a565b91506132eb82613f11565b602082019050919050565b6000613303600e8361387a565b915061330e82613f3a565b602082019050919050565b600061332660178361388b565b915061333182613f63565b601782019050919050565b600061334960118361388b565b915061335482613f8c565b601182019050919050565b600061336c602f8361387a565b915061337782613fb5565b604082019050919050565b6101e08201600082015161339960008501826131d3565b5060208201516133ac60208501826131b5565b5060408201516133bf60408501826131c4565b5060608201516133d26060850182613179565b5060808201516133e560808501826134be565b5060a08201516133f860a08501826134be565b5060c082015161340b60c08501826134be565b5060e082015161341e60e08501826134be565b506101008201516134336101008501826134be565b506101208201516134486101208501826134be565b5061014082015161345d6101408501826134be565b506101608201516134726101608501826134be565b506101808201516134876101808501826134be565b506101a082015161349c6101a08501826134be565b506101c08201516134b16101c08501826134be565b50505050565b8082525050565b6134c781613bf5565b82525050565b6134d681613bf5565b82525050565b6134e581613bf5565b82525050565b60006134f78284613239565b915081905092915050565b600061350d82613319565b91506135198285613239565b91506135248261333c565b91506135308284613239565b91508190509392505050565b6000602082019050613551600083018461316a565b92915050565b600060208201905061356c6000830184613188565b92915050565b600060208201905061358760008301846131a6565b92915050565b60006020820190506135a260008301846131f1565b92915050565b600060208201905081810360008301526135c28184613200565b905092915050565b600060208201905081810360008301526135e38161326a565b9050919050565b600060208201905081810360008301526136038161328d565b9050919050565b60006020820190508181036000830152613623816132b0565b9050919050565b60006020820190508181036000830152613643816132d3565b9050919050565b60006020820190508181036000830152613663816132f6565b9050919050565b600060208201905081810360008301526136838161335f565b9050919050565b60006101e0820190506136a06000830184613382565b92915050565b60006040820190506136bb60008301856134b7565b6136c86020830184613197565b9392505050565b60006040820190506136e460008301856134b7565b6136f160208301846134dc565b9392505050565b600060208201905061370d60008301846134cd565b92915050565b600060408201905061372860008301856134cd565b61373560208301846134cd565b9392505050565b600060608201905061375160008301866134cd565b61375e60208301856134cd565b61376b60408301846134cd565b949350505050565b600060c08201905061378860008301896134dc565b61379560208301886134dc565b6137a260408301876134dc565b6137af60608301866131e2565b6137bc60808301856134dc565b6137c960a08301846134dc565b979650505050505050565b60006080820190506137e960008301876134dc565b6137f660208301866134dc565b61380360408301856134dc565b61381060608301846134dc565b95945050505050565b6000613823613834565b905061382f8282613c92565b919050565b6000604051905090565b600067ffffffffffffffff82111561385957613858613e42565b5b61386282613e85565b9050602081019050919050565b600081519050919050565b600082825260208201905092915050565b600081905092915050565b60006138a182613bf5565b91506138ac83613bf5565b9250827fffffffffffffffffffffffffffffffffffffffffffffffffffffffffffffffff038211156138e1576138e0613d86565b5b828201905092915050565b60006138f782613bcb565b915061390283613bcb565b92508261391257613911613db5565b5b600160000383147f80000000000000000000000000000000000000000000000000000000000000008314161561394b5761394a613d86565b5b828205905092915050565b600061396182613bf5565b915061396c83613bf5565b92508261397c5761397b613db5565b5b828204905092915050565b600061399282613bcb565b915061399d83613bcb565b9250827f7fffffffffffffffffffffffffffffffffffffffffffffffffffffffffffffff04821160008413600084131616156139dc576139db613d86565b5b817f80000000000000000000000000000000000000000000000000000000000000000583126000841260008413161615613a1957613a18613d86565b5b827f80000000000000000000000000000000000000000000000000000000000000000582126000841360008412161615613a5657613a55613d86565b5b827f7fffffffffffffffffffffffffffffffffffffffffffffffffffffffffffffff0582126000841260008412161615613a9357613a92613d86565b5b828202905092915050565b6000613aa982613bf5565b9150613ab483613bf5565b9250817fffffffffffffffffffffffffffffffffffffffffffffffffffffffffffffffff0483118215151615613aed57613aec613d86565b5b828202905092915050565b6000613b0382613bf5565b9150613b0e83613bf5565b925082821015613b2157613b20613d86565b5b828203905092915050565b6000613b3782613bd5565b9050919050565b6000613b4982613bd5565b9050919050565b60008115159050919050565b6000819050919050565b60007fffffffff0000000000000000000000000000000000000000000000000000000082169050919050565b6000819050613ba082614004565b919050565b6000819050613bb382614018565b919050565b6000819050613bc68261402c565b919050565b6000819050919050565b600073ffffffffffffffffffffffffffffffffffffffff82169050919050565b6000819050919050565b6000613c0a82613b92565b9050919050565b6000613c1c82613ba5565b9050919050565b6000613c2e82613bb8565b9050919050565b60005b83811015613c53578082015181840152602081019050613c38565b83811115613c62576000848401525b50505050565b6000613c7382613bf5565b91506000821415613c8757613c86613d86565b5b600182039050919050565b613c9b82613e85565b810181811067ffffffffffffffff82111715613cba57613cb9613e42565b5b80604052505050565b6000613cce82613bf5565b91507fffffffffffffffffffffffffffffffffffffffffffffffffffffffffffffffff821415613d0157613d00613d86565b5b600182019050919050565b6000613d1782613bf5565b9150613d2283613bf5565b925082613d3257613d31613db5565b5b828206905092915050565b6000613d4882613bcb565b91507f8000000000000000000000000000000000000000000000000000000000000000821415613d7b57613d7a613d86565b5b816000039050919050565b7f4e487b7100000000000000000000000000000000000000000000000000000000600052601160045260246000fd5b7f4e487b7100000000000000000000000000000000000000000000000000000000600052601260045260246000fd5b7f4e487b7100000000000000000000000000000000000000000000000000000000600052602160045260246000fd5b7f4e487b7100000000000000000000000000000000000000000000000000000000600052603260045260246000fd5b7f4e487b7100000000000000000000000000000000000000000000000000000000600052604160045260246000fd5b600080fd5b600080fd5b600080fd5b600080fd5b6000601f19601f8301169050919050565b7f537472696e67733a20686578206c656e67746820696e73756666696369656e74600082015250565b7f5573652063616c6c206f7220707574206f7074696f6e2e000000000000000000600082015250565b7f4e6f7420616374697665206f7074696f6e2e0000000000000000000000000000600082015250565b7f4f7074696f6e2068617320657870697265642e00000000000000000000000000600082015250565b7f4e6f7420746865206f776e65722e000000000000000000000000000000000000600082015250565b7f416363657373436f6e74726f6c3a206163636f756e7420000000000000000000600082015250565b7f206973206d697373696e6720726f6c6520000000000000000000000000000000600082015250565b7f416363657373436f6e74726f6c3a2063616e206f6e6c792072656e6f756e636560008201527f20726f6c657320666f722073656c660000000000000000000000000000000000602082015250565b6002811061401557614014613de4565b5b50565b6004811061402957614028613de4565b5b50565b6002811061403d5761403c613de4565b5b50565b61404981613b2c565b811461405457600080fd5b50565b61406081613b50565b811461406b57600080fd5b50565b61407781613b5c565b811461408257600080fd5b50565b61408e81613b66565b811461409957600080fd5b50565b600281106140a957600080fd5b50565b600281106140b957600080fd5b50565b6140c581613bf5565b81146140d057600080fd5b5056fea26469706673582212207c189aee207b40111419b5c89791d4f23b06da30f6abdf3599bbfc9dce39af9c64736f6c63430008060033",
  "immutableReferences": {},
  "source": "/**\n * SPDX-License-Identifier: GPL-3.0-or-later\n * Moret\n * Copyright (C) 2021 Moret\n*/\n\npragma solidity ^0.8.4;\n\nimport \"@openzeppelin/contracts/access/AccessControl.sol\";\nimport \"@openzeppelin/contracts/utils/math/Math.sol\";\nimport \"./MoretInterfaces.sol\";\nimport \"./FullMath.sol\";\n\ncontract OptionVault is AccessControl\n{\n  using OptionLibrary for OptionLibrary.Option;\n\n  bytes32 public constant ADMIN_ROLE = keccak256(\"ADMIN_ROLE\");\n  bytes32 public constant EXCHANGE_ROLE = keccak256(\"EXCHANGE_ROLE\");\n\n  mapping(uint256=> OptionLibrary.Option) internal optionsList;\n  uint256 public optionCounter = 0;\n\n  IVolatilityChain internal volatilityChain;\n  uint256 internal ethMultiplier = 10 ** 18;\n  uint256 internal pctDenominator = 10 ** 6;\n\n  OptionLibrary.Percent public volPremiumFixedAddon = OptionLibrary.Percent(5 * 10 ** 3, 10 ** 6) ;\n  OptionLibrary.Percent public deltaRange = OptionLibrary.Percent(8 * 10 ** 5, 10 ** 6) ;\n\n  constructor(\n      address _volChainAddress\n      )\n      {\n          _setupRole(DEFAULT_ADMIN_ROLE, msg.sender);\n          _setupRole(ADMIN_ROLE, msg.sender);\n          _setupRole(EXCHANGE_ROLE, msg.sender);\n\n          volatilityChain = IVolatilityChain(_volChainAddress);\n      }\n\n    function descriptionHash() external view returns (bytes32)\n    {\n      return keccak256(abi.encodePacked(volatilityChain.getDecription()));\n    }\n\n    function queryOptionCost(uint256 _tenor, uint256 _strike, OptionLibrary.PayoffType _poType, uint256 _amount,\n      uint256 _utilPrior, uint256 _utilAfter)\n      external view returns(uint256)\n    {\n        require((_poType==OptionLibrary.PayoffType.Call) || (_poType==OptionLibrary.PayoffType.Put));\n\n        (uint256 _price,) = volatilityChain.queryPrice();\n        (uint256 _histoVol, uint256 _accentus) = volatilityChain.getVol(_tenor);\n\n        uint256 _volatility = Math.average(calcVolCurve(_utilPrior, _histoVol, _accentus), calcVolCurve(_utilAfter, _histoVol, _accentus));\n\n        return  OptionLibrary.calcPremium(_price, _volatility, _strike, _poType, _amount, volatilityChain.getPriceMultiplier());\n    }\n\n    function calcVolCurve(uint256 _util, uint256 _histoVol, uint256 _accentus) internal view returns (uint256)\n    {\n      if(_accentus < _histoVol)\n      {\n        return _histoVol;\n      }\n      return (_util <= ethMultiplier)? (_histoVol + MulDiv(_accentus - _histoVol, _util, ethMultiplier))\n        : (_accentus + MulDiv(_accentus - _histoVol, 2 * (_util - ethMultiplier), ethMultiplier));\n    }\n\n    function checkVolSkew(uint256 _tenor, uint256 _strike) external view returns (uint256, uint256, uint256)\n    {\n        (uint256 _price,) = volatilityChain.queryPrice();\n        (uint256 _volatility, ) = volatilityChain.getVol(_tenor);\n        return (_price, _volatility, OptionLibrary.calcVolSkew(_strike, _price, _volatility, volatilityChain.getPriceMultiplier()));\n    }\n\n    function addOption(uint256 _tenor, uint256 _strike, OptionLibrary.PayoffType _poType, OptionLibrary.OptionSide _side,\n      uint256 _amount, uint256 _premium, uint256 _fee)\n    external onlyRole(EXCHANGE_ROLE) returns(uint256)\n    {\n        require((_poType==OptionLibrary.PayoffType.Call) || (_poType==OptionLibrary.PayoffType.Put), \"Use call or put option.\");\n\n        (uint256 _price,) = volatilityChain.queryPrice();\n        (uint256 _volatility, ) = volatilityChain.getVol(_tenor);\n\n        optionCounter++;\n        uint256 _id = optionCounter;\n        optionsList[_id] = OptionLibrary.Option(\n            _poType,\n            _side,\n            OptionLibrary.OptionStatus.Draft,\n            msg.sender,\n            _id,\n            block.timestamp,\n            0,\n            _tenor,\n            0,\n            _amount,\n            _price,\n            _strike,\n            _volatility,\n            _premium,\n            _fee);\n\n        return _id;\n    }\n\n    function queryDraftOptionCost(uint256 _id, bool _inVol) external view returns(uint256)\n    {\n        require(optionsList[_id].status== OptionLibrary.OptionStatus.Draft);\n        return optionsList[_id].getCost(_inVol);\n    }\n\n    function queryDraftOptionFee(uint256 _id) external view returns(uint256)\n    {\n        require(optionsList[_id].status== OptionLibrary.OptionStatus.Draft);\n        return optionsList[_id].fee;\n    }\n\n    function queryOptionPremium(uint256 _id) external view returns(uint256)\n    {\n        return optionsList[_id].premium;\n    }\n    function queryOptionExposure(uint256 _id, OptionLibrary.PayoffType _poType) external view returns(uint256)\n    {\n      if(optionsList[_id].poType==_poType)\n      {\n          return optionsList[_id].amount;\n      }\n      return 0;\n    }\n\n    function getOptionPayoffValue(uint256 _id) external view returns(uint256)\n    {\n        (uint256 _price,) = volatilityChain.queryPrice();\n        return optionsList[_id].calcPayoffValue(_price);\n    }\n\n    function getOptionHolder(uint256 _id) external view returns (address payable){\n      return payable(optionsList[_id].holder);\n    }\n\n    function calculateContractDelta(uint256 _id) external view returns(int256){\n      int256 _delta = 0;\n      if(optionsList[_id].status== OptionLibrary.OptionStatus.Active)\n      {\n       (uint256 _price, ) = volatilityChain.queryPrice();\n       (uint256 _vol, ) = volatilityChain.getVol(optionsList[_id].tenor);\n\n        uint256 _vol1DAdjusted = MulDiv(MulDiv(_vol, Sqrt(86400), Sqrt(optionsList[_id].tenor)), deltaRange.numerator, deltaRange.denominator);\n        uint256 _lowerRange = _price - (_price* _vol1DAdjusted/ volatilityChain.getPriceMultiplier());\n        uint256 _upperRange = _price * 2 - _lowerRange;\n\n        _delta = int256(optionsList[_id].amount) / 2;\n        if (optionsList[_id].poType==OptionLibrary.PayoffType.Call)\n        {\n          if(_upperRange < optionsList[_id].strike)\n          {\n            _delta = 0;\n          }\n          if(_lowerRange > optionsList[_id].strike)\n          {\n            _delta = int256(optionsList[_id].amount);\n          }\n        }\n\n        if(optionsList[_id].poType==OptionLibrary.PayoffType.Put)\n        {\n            _delta *= -1;\n          if(_upperRange < optionsList[_id].strike)\n          {\n            _delta = -int256(optionsList[_id].amount);\n          }\n          if(_lowerRange > optionsList[_id].strike)\n          {\n            _delta = 0;\n          }\n        }\n      }\n        return _delta;\n    }\n\n\n    function validateOption(uint256 _id, address _holder) external view {\n      require(optionsList[_id].holder== _holder, \"Not the owner.\");\n      require((optionsList[_id].effectiveTime + optionsList[_id].tenor) >= block.timestamp, \"Option has expired.\");\n      require(optionsList[_id].status==OptionLibrary.OptionStatus.Active, \"Not active option.\");\n    }\n\n    function isOptionExpiring(uint256 _id) external view returns (bool)\n    {\n      return (optionsList[_id].status== OptionLibrary.OptionStatus.Draft) && ((optionsList[_id].effectiveTime + optionsList[_id].tenor) <= block.timestamp);\n    }\n\n    function stampActiveOption(uint256 _id) external onlyRole(EXCHANGE_ROLE) {\n        optionsList[_id].effectiveTime = block.timestamp;\n        optionsList[_id].status = OptionLibrary.OptionStatus.Active;\n    }\n\n    function stampExercisedOption(uint256 _id) external onlyRole(EXCHANGE_ROLE){\n        optionsList[_id].exerciseTime = block.timestamp;\n        optionsList[_id].status = OptionLibrary.OptionStatus.Exercised;\n    }\n\n    function stampExpiredOption(uint256 _id)  external onlyRole(EXCHANGE_ROLE){\n        optionsList[_id].status = OptionLibrary.OptionStatus.Expired;\n    }\n\n    function getOption(uint256 _id) external view returns(OptionLibrary.Option memory) {\n        return optionsList[_id];\n    }\n\n    function queryVol(uint256 _tenor) external view returns(uint256, uint256){return volatilityChain.getVol(_tenor);}\n    function queryPrice() external view returns(uint256, uint256){return volatilityChain.queryPrice();}\n    function priceMultiplier() external view returns (uint256){return volatilityChain.getPriceMultiplier();}\n    function priceDecimals() external view returns(uint256) {return volatilityChain.getPriceDecimals();}\n}\n",
  "sourcePath": "/Users/mac/Documents/GitHub/moret/contracts/OptionVault.sol",
  "compiler": {
    "name": "solc",
    "version": "0.8.6+commit.11564f7e.Emscripten.clang"
  },
  "schemaVersion": "3.4.1",
  "updatedAt": "2021-07-10T00:40:47.363Z",
  "devdoc": {
    "kind": "dev",
    "methods": {
      "getRoleAdmin(bytes32)": {
        "details": "Returns the admin role that controls `role`. See {grantRole} and {revokeRole}. To change a role's admin, use {_setRoleAdmin}."
      },
      "grantRole(bytes32,address)": {
        "details": "Grants `role` to `account`. If `account` had not been already granted `role`, emits a {RoleGranted} event. Requirements: - the caller must have ``role``'s admin role."
      },
      "hasRole(bytes32,address)": {
        "details": "Returns `true` if `account` has been granted `role`."
      },
      "renounceRole(bytes32,address)": {
        "details": "Revokes `role` from the calling account. Roles are often managed via {grantRole} and {revokeRole}: this function's purpose is to provide a mechanism for accounts to lose their privileges if they are compromised (such as when a trusted device is misplaced). If the calling account had been granted `role`, emits a {RoleRevoked} event. Requirements: - the caller must be `account`."
      },
      "revokeRole(bytes32,address)": {
        "details": "Revokes `role` from `account`. If `account` had been granted `role`, emits a {RoleRevoked} event. Requirements: - the caller must have ``role``'s admin role."
      },
      "supportsInterface(bytes4)": {
        "details": "See {IERC165-supportsInterface}."
      }
    },
    "version": 1
  },
  "userdoc": {
    "kind": "user",
    "methods": {},
    "version": 1
  }
}