{
  "contractName": "OptionVault",
  "abi": [
    {
      "inputs": [],
      "stateMutability": "nonpayable",
      "type": "constructor"
    },
    {
      "anonymous": false,
      "inputs": [
        {
          "indexed": true,
          "internalType": "address",
          "name": "_bot",
          "type": "address"
        },
        {
          "indexed": true,
          "internalType": "address",
          "name": "_exchange",
          "type": "address"
        },
        {
          "indexed": false,
          "internalType": "address",
          "name": "_holder",
          "type": "address"
        },
        {
          "indexed": false,
          "internalType": "uint256",
          "name": "_id",
          "type": "uint256"
        },
        {
          "indexed": false,
          "internalType": "uint256",
          "name": "_payoff",
          "type": "uint256"
        }
      ],
      "name": "Expire",
      "type": "event"
    },
    {
      "anonymous": false,
      "inputs": [
        {
          "indexed": true,
          "internalType": "address",
          "name": "_hedger",
          "type": "address"
        },
        {
          "indexed": true,
          "internalType": "address",
          "name": "_market",
          "type": "address"
        },
        {
          "indexed": false,
          "internalType": "bool",
          "name": "success",
          "type": "bool"
        },
        {
          "indexed": false,
          "internalType": "bytes",
          "name": "data",
          "type": "bytes"
        }
      ],
      "name": "HedgeResponse",
      "type": "event"
    },
    {
      "anonymous": false,
      "inputs": [
        {
          "indexed": true,
          "internalType": "address",
          "name": "_hedger",
          "type": "address"
        },
        {
          "indexed": true,
          "internalType": "address",
          "name": "_market",
          "type": "address"
        },
        {
          "indexed": false,
          "internalType": "uint256[]",
          "name": "amounts",
          "type": "uint256[]"
        }
      ],
      "name": "HedgeSwapResponse",
      "type": "event"
    },
    {
      "anonymous": false,
      "inputs": [
        {
          "indexed": true,
          "internalType": "address",
          "name": "_purchaser",
          "type": "address"
        },
        {
          "indexed": true,
          "internalType": "address",
          "name": "_exchange",
          "type": "address"
        },
        {
          "indexed": false,
          "internalType": "uint256",
          "name": "_id",
          "type": "uint256"
        },
        {
          "indexed": false,
          "internalType": "uint256",
          "name": "_premium",
          "type": "uint256"
        },
        {
          "indexed": false,
          "internalType": "uint256",
          "name": "_collateral",
          "type": "uint256"
        },
        {
          "indexed": false,
          "internalType": "bool",
          "name": "_inVol",
          "type": "bool"
        }
      ],
      "name": "NewOption",
      "type": "event"
    },
    {
      "anonymous": false,
      "inputs": [
        {
          "indexed": false,
          "internalType": "address",
          "name": "_newBot",
          "type": "address"
        }
      ],
      "name": "ResetBotAddress",
      "type": "event"
    },
    {
      "anonymous": false,
      "inputs": [
        {
          "indexed": true,
          "internalType": "uint256",
          "name": "_parameterId",
          "type": "uint256"
        },
        {
          "indexed": false,
          "internalType": "uint256",
          "name": "_parameter",
          "type": "uint256"
        }
      ],
      "name": "ResetParameter",
      "type": "event"
    },
    {
      "anonymous": false,
      "inputs": [
        {
          "indexed": true,
          "internalType": "address",
          "name": "_exchange",
          "type": "address"
        },
        {
          "indexed": false,
          "internalType": "bool",
          "name": "_tradingAllowed",
          "type": "bool"
        }
      ],
      "name": "ResetTradingStatus",
      "type": "event"
    },
    {
      "anonymous": false,
      "inputs": [
        {
          "indexed": true,
          "internalType": "bytes32",
          "name": "role",
          "type": "bytes32"
        },
        {
          "indexed": true,
          "internalType": "bytes32",
          "name": "previousAdminRole",
          "type": "bytes32"
        },
        {
          "indexed": true,
          "internalType": "bytes32",
          "name": "newAdminRole",
          "type": "bytes32"
        }
      ],
      "name": "RoleAdminChanged",
      "type": "event"
    },
    {
      "anonymous": false,
      "inputs": [
        {
          "indexed": true,
          "internalType": "bytes32",
          "name": "role",
          "type": "bytes32"
        },
        {
          "indexed": true,
          "internalType": "address",
          "name": "account",
          "type": "address"
        },
        {
          "indexed": true,
          "internalType": "address",
          "name": "sender",
          "type": "address"
        }
      ],
      "name": "RoleGranted",
      "type": "event"
    },
    {
      "anonymous": false,
      "inputs": [
        {
          "indexed": true,
          "internalType": "bytes32",
          "name": "role",
          "type": "bytes32"
        },
        {
          "indexed": true,
          "internalType": "address",
          "name": "account",
          "type": "address"
        },
        {
          "indexed": true,
          "internalType": "address",
          "name": "sender",
          "type": "address"
        }
      ],
      "name": "RoleRevoked",
      "type": "event"
    },
    {
      "anonymous": false,
      "inputs": [
        {
          "indexed": true,
          "internalType": "address",
          "name": "_purchaser",
          "type": "address"
        },
        {
          "indexed": true,
          "internalType": "address",
          "name": "_exchange",
          "type": "address"
        },
        {
          "indexed": false,
          "internalType": "uint256",
          "name": "_cost",
          "type": "uint256"
        },
        {
          "indexed": false,
          "internalType": "uint256",
          "name": "_volAmount",
          "type": "uint256"
        },
        {
          "indexed": false,
          "internalType": "bool",
          "name": "_isPurchase",
          "type": "bool"
        }
      ],
      "name": "TradeVolatility",
      "type": "event"
    },
    {
      "inputs": [],
      "name": "DEFAULT_ADMIN_ROLE",
      "outputs": [
        {
          "internalType": "bytes32",
          "name": "",
          "type": "bytes32"
        }
      ],
      "stateMutability": "view",
      "type": "function"
    },
    {
      "inputs": [],
      "name": "EXCHANGE",
      "outputs": [
        {
          "internalType": "bytes32",
          "name": "",
          "type": "bytes32"
        }
      ],
      "stateMutability": "view",
      "type": "function"
    },
    {
      "inputs": [
        {
          "internalType": "bytes32",
          "name": "role",
          "type": "bytes32"
        }
      ],
      "name": "getRoleAdmin",
      "outputs": [
        {
          "internalType": "bytes32",
          "name": "",
          "type": "bytes32"
        }
      ],
      "stateMutability": "view",
      "type": "function"
    },
    {
      "inputs": [
        {
          "internalType": "bytes32",
          "name": "role",
          "type": "bytes32"
        },
        {
          "internalType": "address",
          "name": "account",
          "type": "address"
        }
      ],
      "name": "grantRole",
      "outputs": [],
      "stateMutability": "nonpayable",
      "type": "function"
    },
    {
      "inputs": [
        {
          "internalType": "bytes32",
          "name": "role",
          "type": "bytes32"
        },
        {
          "internalType": "address",
          "name": "account",
          "type": "address"
        }
      ],
      "name": "hasRole",
      "outputs": [
        {
          "internalType": "bool",
          "name": "",
          "type": "bool"
        }
      ],
      "stateMutability": "view",
      "type": "function"
    },
    {
      "inputs": [
        {
          "internalType": "address",
          "name": "",
          "type": "address"
        }
      ],
      "name": "mDeltaAtMax",
      "outputs": [
        {
          "internalType": "uint256",
          "name": "",
          "type": "uint256"
        }
      ],
      "stateMutability": "view",
      "type": "function"
    },
    {
      "inputs": [
        {
          "internalType": "address",
          "name": "",
          "type": "address"
        }
      ],
      "name": "mDeltaAtZero",
      "outputs": [
        {
          "internalType": "uint256",
          "name": "",
          "type": "uint256"
        }
      ],
      "stateMutability": "view",
      "type": "function"
    },
    {
      "inputs": [
        {
          "internalType": "address",
          "name": "",
          "type": "address"
        }
      ],
      "name": "mNetNotional",
      "outputs": [
        {
          "internalType": "int256",
          "name": "",
          "type": "int256"
        }
      ],
      "stateMutability": "view",
      "type": "function"
    },
    {
      "inputs": [
        {
          "internalType": "address",
          "name": "",
          "type": "address"
        }
      ],
      "name": "mPutCollateral",
      "outputs": [
        {
          "internalType": "uint256",
          "name": "",
          "type": "uint256"
        }
      ],
      "stateMutability": "view",
      "type": "function"
    },
    {
      "inputs": [
        {
          "internalType": "bytes32",
          "name": "role",
          "type": "bytes32"
        },
        {
          "internalType": "address",
          "name": "account",
          "type": "address"
        }
      ],
      "name": "renounceRole",
      "outputs": [],
      "stateMutability": "nonpayable",
      "type": "function"
    },
    {
      "inputs": [
        {
          "internalType": "bytes32",
          "name": "role",
          "type": "bytes32"
        },
        {
          "internalType": "address",
          "name": "account",
          "type": "address"
        }
      ],
      "name": "revokeRole",
      "outputs": [],
      "stateMutability": "nonpayable",
      "type": "function"
    },
    {
      "inputs": [
        {
          "internalType": "bytes4",
          "name": "interfaceId",
          "type": "bytes4"
        }
      ],
      "name": "supportsInterface",
      "outputs": [
        {
          "internalType": "bool",
          "name": "",
          "type": "bool"
        }
      ],
      "stateMutability": "view",
      "type": "function"
    },
    {
      "inputs": [
        {
          "components": [
            {
              "internalType": "enum OptionLib.PayoffType",
              "name": "poType",
              "type": "uint8"
            },
            {
              "internalType": "enum OptionLib.OptionSide",
              "name": "side",
              "type": "uint8"
            },
            {
              "internalType": "enum OptionLib.OptionStatus",
              "name": "status",
              "type": "uint8"
            },
            {
              "internalType": "address",
              "name": "holder",
              "type": "address"
            },
            {
              "internalType": "uint256",
              "name": "id",
              "type": "uint256"
            },
            {
              "internalType": "uint256",
              "name": "createTime",
              "type": "uint256"
            },
            {
              "internalType": "uint256",
              "name": "effectiveTime",
              "type": "uint256"
            },
            {
              "internalType": "uint256",
              "name": "tenor",
              "type": "uint256"
            },
            {
              "internalType": "uint256",
              "name": "maturity",
              "type": "uint256"
            },
            {
              "internalType": "uint256",
              "name": "exerciseTime",
              "type": "uint256"
            },
            {
              "internalType": "uint256",
              "name": "amount",
              "type": "uint256"
            },
            {
              "internalType": "uint256",
              "name": "spot",
              "type": "uint256"
            },
            {
              "internalType": "uint256",
              "name": "strike",
              "type": "uint256"
            },
            {
              "internalType": "uint256",
              "name": "volatility",
              "type": "uint256"
            },
            {
              "internalType": "uint256",
              "name": "premium",
              "type": "uint256"
            },
            {
              "internalType": "uint256",
              "name": "cost",
              "type": "uint256"
            },
            {
              "internalType": "address",
              "name": "pool",
              "type": "address"
            }
          ],
          "internalType": "struct OptionLib.Option",
          "name": "_option",
          "type": "tuple"
        },
        {
          "internalType": "uint256",
          "name": "_premium",
          "type": "uint256"
        },
        {
          "internalType": "uint256",
          "name": "_collateral",
          "type": "uint256"
        },
        {
          "internalType": "uint256",
          "name": "_price",
          "type": "uint256"
        },
        {
          "internalType": "uint256",
          "name": "_vol",
          "type": "uint256"
        }
      ],
      "name": "addOption",
      "outputs": [
        {
          "internalType": "uint256",
          "name": "_id",
          "type": "uint256"
        }
      ],
      "stateMutability": "nonpayable",
      "type": "function"
    },
    {
      "inputs": [
        {
          "internalType": "uint256",
          "name": "_id",
          "type": "uint256"
        },
        {
          "internalType": "address",
          "name": "_holder",
          "type": "address"
        }
      ],
      "name": "stampActiveOption",
      "outputs": [],
      "stateMutability": "nonpayable",
      "type": "function"
    },
    {
      "inputs": [
        {
          "internalType": "uint256",
          "name": "_id",
          "type": "uint256"
        }
      ],
      "name": "stampExpiredOption",
      "outputs": [],
      "stateMutability": "nonpayable",
      "type": "function"
    },
    {
      "inputs": [
        {
          "internalType": "address",
          "name": "_pool",
          "type": "address"
        },
        {
          "internalType": "address",
          "name": "_address",
          "type": "address"
        }
      ],
      "name": "getHolderOptions",
      "outputs": [
        {
          "internalType": "uint256[]",
          "name": "",
          "type": "uint256[]"
        }
      ],
      "stateMutability": "view",
      "type": "function"
    },
    {
      "inputs": [
        {
          "internalType": "uint256",
          "name": "_id",
          "type": "uint256"
        }
      ],
      "name": "getOption",
      "outputs": [
        {
          "components": [
            {
              "internalType": "enum OptionLib.PayoffType",
              "name": "poType",
              "type": "uint8"
            },
            {
              "internalType": "enum OptionLib.OptionSide",
              "name": "side",
              "type": "uint8"
            },
            {
              "internalType": "enum OptionLib.OptionStatus",
              "name": "status",
              "type": "uint8"
            },
            {
              "internalType": "address",
              "name": "holder",
              "type": "address"
            },
            {
              "internalType": "uint256",
              "name": "id",
              "type": "uint256"
            },
            {
              "internalType": "uint256",
              "name": "createTime",
              "type": "uint256"
            },
            {
              "internalType": "uint256",
              "name": "effectiveTime",
              "type": "uint256"
            },
            {
              "internalType": "uint256",
              "name": "tenor",
              "type": "uint256"
            },
            {
              "internalType": "uint256",
              "name": "maturity",
              "type": "uint256"
            },
            {
              "internalType": "uint256",
              "name": "exerciseTime",
              "type": "uint256"
            },
            {
              "internalType": "uint256",
              "name": "amount",
              "type": "uint256"
            },
            {
              "internalType": "uint256",
              "name": "spot",
              "type": "uint256"
            },
            {
              "internalType": "uint256",
              "name": "strike",
              "type": "uint256"
            },
            {
              "internalType": "uint256",
              "name": "volatility",
              "type": "uint256"
            },
            {
              "internalType": "uint256",
              "name": "premium",
              "type": "uint256"
            },
            {
              "internalType": "uint256",
              "name": "cost",
              "type": "uint256"
            },
            {
              "internalType": "address",
              "name": "pool",
              "type": "address"
            }
          ],
          "internalType": "struct OptionLib.Option",
          "name": "",
          "type": "tuple"
        }
      ],
      "stateMutability": "view",
      "type": "function"
    },
    {
      "inputs": [
        {
          "internalType": "address",
          "name": "_poolAddress",
          "type": "address"
        }
      ],
      "name": "getActiveOptionCount",
      "outputs": [
        {
          "internalType": "uint256",
          "name": "",
          "type": "uint256"
        }
      ],
      "stateMutability": "view",
      "type": "function"
    },
    {
      "inputs": [
        {
          "internalType": "uint256",
          "name": "_id",
          "type": "uint256"
        }
      ],
      "name": "getOptionInfo",
      "outputs": [
        {
          "internalType": "enum OptionLib.OptionStatus",
          "name": "",
          "type": "uint8"
        },
        {
          "internalType": "enum OptionLib.OptionSide",
          "name": "",
          "type": "uint8"
        },
        {
          "internalType": "address",
          "name": "",
          "type": "address"
        },
        {
          "internalType": "contract Pool",
          "name": "",
          "type": "address"
        }
      ],
      "stateMutability": "view",
      "type": "function"
    },
    {
      "inputs": [
        {
          "internalType": "uint256",
          "name": "_id",
          "type": "uint256"
        }
      ],
      "name": "getContractPayoff",
      "outputs": [
        {
          "internalType": "uint256",
          "name": "_payoff",
          "type": "uint256"
        },
        {
          "internalType": "uint256",
          "name": "_payback",
          "type": "uint256"
        },
        {
          "internalType": "uint256",
          "name": "_collateral",
          "type": "uint256"
        }
      ],
      "stateMutability": "view",
      "type": "function"
    },
    {
      "inputs": [
        {
          "internalType": "address",
          "name": "_poolAddress",
          "type": "address"
        }
      ],
      "name": "anyOptionExpiring",
      "outputs": [
        {
          "internalType": "bool",
          "name": "_isExpiring",
          "type": "bool"
        }
      ],
      "stateMutability": "view",
      "type": "function"
    },
    {
      "inputs": [
        {
          "internalType": "address",
          "name": "_poolAddress",
          "type": "address"
        }
      ],
      "name": "getExpiringOptionId",
      "outputs": [
        {
          "internalType": "uint256",
          "name": "_id",
          "type": "uint256"
        }
      ],
      "stateMutability": "view",
      "type": "function"
    },
    {
      "inputs": [
        {
          "components": [
            {
              "internalType": "enum OptionLib.PayoffType",
              "name": "poType",
              "type": "uint8"
            },
            {
              "internalType": "enum OptionLib.OptionSide",
              "name": "side",
              "type": "uint8"
            },
            {
              "internalType": "enum OptionLib.OptionStatus",
              "name": "status",
              "type": "uint8"
            },
            {
              "internalType": "address",
              "name": "holder",
              "type": "address"
            },
            {
              "internalType": "uint256",
              "name": "id",
              "type": "uint256"
            },
            {
              "internalType": "uint256",
              "name": "createTime",
              "type": "uint256"
            },
            {
              "internalType": "uint256",
              "name": "effectiveTime",
              "type": "uint256"
            },
            {
              "internalType": "uint256",
              "name": "tenor",
              "type": "uint256"
            },
            {
              "internalType": "uint256",
              "name": "maturity",
              "type": "uint256"
            },
            {
              "internalType": "uint256",
              "name": "exerciseTime",
              "type": "uint256"
            },
            {
              "internalType": "uint256",
              "name": "amount",
              "type": "uint256"
            },
            {
              "internalType": "uint256",
              "name": "spot",
              "type": "uint256"
            },
            {
              "internalType": "uint256",
              "name": "strike",
              "type": "uint256"
            },
            {
              "internalType": "uint256",
              "name": "volatility",
              "type": "uint256"
            },
            {
              "internalType": "uint256",
              "name": "premium",
              "type": "uint256"
            },
            {
              "internalType": "uint256",
              "name": "cost",
              "type": "uint256"
            },
            {
              "internalType": "address",
              "name": "pool",
              "type": "address"
            }
          ],
          "internalType": "struct OptionLib.Option",
          "name": "_option",
          "type": "tuple"
        },
        {
          "internalType": "bool",
          "name": "_forceATM",
          "type": "bool"
        }
      ],
      "name": "calcOptionCost",
      "outputs": [
        {
          "internalType": "uint256",
          "name": "_premium",
          "type": "uint256"
        },
        {
          "internalType": "uint256",
          "name": "_collateral",
          "type": "uint256"
        },
        {
          "internalType": "uint256",
          "name": "_price",
          "type": "uint256"
        },
        {
          "internalType": "uint256",
          "name": "_vol",
          "type": "uint256"
        }
      ],
      "stateMutability": "view",
      "type": "function"
    },
    {
      "inputs": [
        {
          "internalType": "contract MarketMaker",
          "name": "_market",
          "type": "address"
        },
        {
          "internalType": "uint256",
          "name": "_tenor",
          "type": "uint256"
        },
        {
          "internalType": "uint256",
          "name": "_volCapacityFactor",
          "type": "uint256"
        },
        {
          "internalType": "int256",
          "name": "_currentNetNotional",
          "type": "int256"
        },
        {
          "internalType": "int256",
          "name": "_newNetNotional",
          "type": "int256"
        }
      ],
      "name": "calcImpliedVol",
      "outputs": [
        {
          "internalType": "uint256",
          "name": "",
          "type": "uint256"
        },
        {
          "internalType": "uint256",
          "name": "",
          "type": "uint256"
        }
      ],
      "stateMutability": "view",
      "type": "function"
    },
    {
      "inputs": [
        {
          "internalType": "contract Pool",
          "name": "_pool",
          "type": "address"
        },
        {
          "internalType": "bool",
          "name": "_net",
          "type": "bool"
        },
        {
          "internalType": "bool",
          "name": "_average",
          "type": "bool"
        }
      ],
      "name": "calcCapital",
      "outputs": [
        {
          "internalType": "uint256",
          "name": "",
          "type": "uint256"
        }
      ],
      "stateMutability": "view",
      "type": "function"
    }
  ],
  "bytecode": "0x60806040523480156200001157600080fd5b50620000276000801b336200002d60201b60201c565b620001a6565b6200003f82826200004360201b60201c565b5050565b6200005582826200013460201b60201c565b6200013057600160008084815260200190815260200160002060000160008373ffffffffffffffffffffffffffffffffffffffff1673ffffffffffffffffffffffffffffffffffffffff16815260200190815260200160002060006101000a81548160ff021916908315150217905550620000d56200019e60201b60201c565b73ffffffffffffffffffffffffffffffffffffffff168173ffffffffffffffffffffffffffffffffffffffff16837f2f8788117e7eff1d82e926ec794901d17c78024a50270940304540a733656f0d60405160405180910390a45b5050565b600080600084815260200190815260200160002060000160008373ffffffffffffffffffffffffffffffffffffffff1673ffffffffffffffffffffffffffffffffffffffff16815260200190815260200160002060009054906101000a900460ff16905092915050565b600033905090565b61508d80620001b66000396000f3fe608060405234801561001057600080fd5b50600436106101735760003560e01c806365c22c5f116100de5780639bafc25411610097578063b50e44b811610071578063b50e44b81461050c578063b9f10b661461052a578063d547741f1461055a578063fc9d80e01461057657610173565b80639bafc2541461048e5780639f2b958c146104be578063a217fddf146104ee57610173565b806365c22c5f1461036c5780636a347c401461039c5780637be795e0146103cc578063844a7c9a146103fc57806385ae10e61461042c57806391d148541461045e57610173565b8063255242171161013057806325524217146102875780632f2ff15d146102b857806336568abe146102d45780633a328e29146102f05780635c273c2f14610320578063637baf601461035057610173565b806301ffc9a714610178578063132a0f1b146101a85780631ce5e9a6146101d85780632360e81714610208578063248a9ca31461023b57806324b4110e1461026b575b600080fd5b610192600480360381019061018d91906135fd565b6105a9565b60405161019f9190613645565b60405180910390f35b6101c260048036038101906101bd91906136be565b610623565b6040516101cf9190613704565b60405180910390f35b6101f260048036038101906101ed919061374b565b610673565b6040516101ff91906139fc565b60405180910390f35b610222600480360381019061021d9190613cd4565b610885565b6040516102329493929190613d16565b60405180910390f35b61025560048036038101906102509190613d91565b610c32565b6040516102629190613dcd565b60405180910390f35b61028560048036038101906102809190613de8565b610c51565b005b6102a1600480360381019061029c9190613e9c565b611144565b6040516102af929190613f17565b60405180910390f35b6102d260048036038101906102cd9190613f40565b6114aa565b005b6102ee60048036038101906102e99190613f40565b6114d3565b005b61030a600480360381019061030591906136be565b611556565b6040516103179190613704565b60405180910390f35b61033a60048036038101906103359190613fbe565b6116c6565b6040516103479190613704565b60405180910390f35b61036a6004803603810190610365919061374b565b611b4b565b005b610386600480360381019061038191906136be565b612127565b6040516103939190613704565b60405180910390f35b6103b660048036038101906103b191906136be565b61213f565b6040516103c39190613704565b60405180910390f35b6103e660048036038101906103e19190614011565b612157565b6040516103f39190614100565b60405180910390f35b610416600480360381019061041191906136be565b6121e5565b6040516104239190614131565b60405180910390f35b6104466004803603810190610441919061374b565b6121fd565b6040516104559392919061414c565b60405180910390f35b61047860048036038101906104739190613f40565b61259b565b6040516104859190613645565b60405180910390f35b6104a860048036038101906104a391906136be565b612605565b6040516104b59190613704565b60405180910390f35b6104d860048036038101906104d391906136be565b61261d565b6040516104e59190613645565b60405180910390f35b6104f6612787565b6040516105039190613dcd565b60405180910390f35b61051461278e565b6040516105219190613dcd565b60405180910390f35b610544600480360381019061053f9190614183565b6127b2565b6040516105519190613704565b60405180910390f35b610574600480360381019061056f9190613f40565b612b00565b005b610590600480360381019061058b919061374b565b612b29565b6040516105a0949392919061428f565b60405180910390f35b60007f7965db0b000000000000000000000000000000000000000000000000000000007bffffffffffffffffffffffffffffffffffffffffffffffffffffffff1916827bffffffffffffffffffffffffffffffffffffffffffffffffffffffff1916148061061c575061061b82612c41565b5b9050919050565b600061066c600360008473ffffffffffffffffffffffffffffffffffffffff1673ffffffffffffffffffffffffffffffffffffffff168152602001908152602001600020612cab565b9050919050565b61067b6134b0565b6001828154811061068f5761068e6142d4565b5b90600052602060002090600e0201604051806102200160405290816000820160009054906101000a900460ff1660018111156106ce576106cd613778565b5b60018111156106e0576106df613778565b5b81526020016000820160019054906101000a900460ff16600181111561070957610708613778565b5b600181111561071b5761071a613778565b5b81526020016000820160029054906101000a900460ff16600381111561074457610743613778565b5b600381111561075657610755613778565b5b81526020016000820160039054906101000a900473ffffffffffffffffffffffffffffffffffffffff1673ffffffffffffffffffffffffffffffffffffffff1673ffffffffffffffffffffffffffffffffffffffff168152602001600182015481526020016002820154815260200160038201548152602001600482015481526020016005820154815260200160068201548152602001600782015481526020016008820154815260200160098201548152602001600a8201548152602001600b8201548152602001600c8201548152602001600d820160009054906101000a900473ffffffffffffffffffffffffffffffffffffffff1673ffffffffffffffffffffffffffffffffffffffff1673ffffffffffffffffffffffffffffffffffffffff16815250509050919050565b6000806000806000866102000151905060008173ffffffffffffffffffffffffffffffffffffffff16631f21f9af6040518163ffffffff1660e01b8152600401602060405180830381865afa1580156108e2573d6000803e3d6000fd5b505050506040513d601f19601f820116820180604052508101906109069190614318565b9050600060018081111561091d5761091c613778565b5b8960200151600181111561093457610933613778565b5b14610940576001610962565b7fffffffffffffffffffffffffffffffffffffffffffffffffffffffffffffffff5b6109708a6101400151612cc0565b61097a9190614374565b600460008b610200015173ffffffffffffffffffffffffffffffffffffffff1673ffffffffffffffffffffffffffffffffffffffff168152602001908152602001600020546109c9919061448b565b9050610a8e828a60e001518573ffffffffffffffffffffffffffffffffffffffff16630f9026186040518163ffffffff1660e01b8152600401602060405180830381865afa158015610a1f573d6000803e3d6000fd5b505050506040513d601f19601f82011682018060405250810190610a439190614534565b600460008e610200015173ffffffffffffffffffffffffffffffffffffffff1673ffffffffffffffffffffffffffffffffffffffff1681526020019081526020016000205485611144565b8095508196505050848961016001818152505083896101a00181815250508715610abe5784896101800181815250505b8873__OptionLib_____________________________636eef991090918473ffffffffffffffffffffffffffffffffffffffff1663a7292ea46040518163ffffffff1660e01b8152600401602060405180830381865afa158015610b26573d6000803e3d6000fd5b505050506040513d601f19601f82011682018060405250810190610b4a9190614534565b6040518363ffffffff1660e01b8152600401610b6792919061471a565b602060405180830381865af4158015610b84573d6000803e3d6000fd5b505050506040513d601f19601f82011682018060405250810190610ba89190614534565b96508873__OptionLib_____________________________63f8581c2c90916040518263ffffffff1660e01b8152600401610be39190614745565b602060405180830381865af4158015610c00573d6000803e3d6000fd5b505050506040513d601f19601f82011682018060405250810190610c249190614534565b955050505092959194509250565b6000806000838152602001908152602001600020600101549050919050565b7f10b261d3bc7a74f38949f9212b0336103474898eda034c06ae0a3e478dc0e4a5610c8381610c7e612d2d565b612d35565b600060018481548110610c9957610c986142d4565b5b90600052602060002090600e02019050428160030181905550806004015442610cc29190614761565b816005018190555060018160000160026101000a81548160ff02191690836003811115610cf257610cf1613778565b5b0217905550600081600d0160009054906101000a900473ffffffffffffffffffffffffffffffffffffffff1690508173__OptionLib_____________________________63bf38721c90916040518263ffffffff1660e01b8152600401610d5991906147be565b602060405180830381865af4158015610d76573d6000803e3d6000fd5b505050506040513d601f19601f82011682018060405250810190610d9a91906147ee565b600460008373ffffffffffffffffffffffffffffffffffffffff1673ffffffffffffffffffffffffffffffffffffffff1681526020019081526020016000206000828254610de8919061448b565b925050819055508173__OptionLib_____________________________631b4fb86990916040518263ffffffff1660e01b8152600401610e2891906147be565b602060405180830381865af4158015610e45573d6000803e3d6000fd5b505050506040513d601f19601f82011682018060405250810190610e699190614534565b600560008373ffffffffffffffffffffffffffffffffffffffff1673ffffffffffffffffffffffffffffffffffffffff1681526020019081526020016000206000828254610eb79190614761565b925050819055508173__OptionLib_____________________________632e5cf0a790916040518263ffffffff1660e01b8152600401610ef791906147be565b602060405180830381865af4158015610f14573d6000803e3d6000fd5b505050506040513d601f19601f82011682018060405250810190610f389190614534565b600660008373ffffffffffffffffffffffffffffffffffffffff1673ffffffffffffffffffffffffffffffffffffffff1681526020019081526020016000206000828254610f869190614761565b925050819055508173__OptionLib_____________________________6304a65c3e90916040518263ffffffff1660e01b8152600401610fc691906147be565b602060405180830381865af4158015610fe3573d6000803e3d6000fd5b505050506040513d601f19601f820116820180604052508101906110079190614534565b600760008373ffffffffffffffffffffffffffffffffffffffff1673ffffffffffffffffffffffffffffffffffffffff16815260200190815260200160002060008282546110559190614761565b925050819055506110ea85600260008473ffffffffffffffffffffffffffffffffffffffff1673ffffffffffffffffffffffffffffffffffffffff16815260200190815260200160002060008773ffffffffffffffffffffffffffffffffffffffff1673ffffffffffffffffffffffffffffffffffffffff168152602001908152602001600020612dd290919063ffffffff16565b5061113c85600360008473ffffffffffffffffffffffffffffffffffffffff1673ffffffffffffffffffffffffffffffffffffffff168152602001908152602001600020612dd290919063ffffffff16565b505050505050565b60008060008773ffffffffffffffffffffffffffffffffffffffff1663c0a16f6a6040518163ffffffff1660e01b8152600401602060405180830381865afa158015611194573d6000803e3d6000fd5b505050506040513d601f19601f820116820180604052508101906111b89190614859565b905060008173ffffffffffffffffffffffffffffffffffffffff1663b0667cf86040518163ffffffff1660e01b8152600401602060405180830381865afa158015611207573d6000803e3d6000fd5b505050506040513d601f19601f8201168201806040525081019061122b9190614534565b9050600073__MarketLib_____________________________637bc7ed7873__MarketLib_____________________________63e74207d68d866040518363ffffffff1660e01b81526004016112829291906148a7565b602060405180830381865af415801561129f573d6000803e3d6000fd5b505050506040513d601f19601f820116820180604052508101906112c39190614534565b89898773ffffffffffffffffffffffffffffffffffffffff1663cfc2dc208f6040518263ffffffff1660e01b81526004016112fe9190613704565b602060405180830381865afa15801561131b573d6000803e3d6000fd5b505050506040513d601f19601f8201168201806040525081019061133f9190614534565b8d6040518663ffffffff1660e01b81526004016113609594939291906148df565b602060405180830381865af415801561137d573d6000803e3d6000fd5b505050506040513d601f19601f820116820180604052508101906113a19190614534565b9050818173__MathLib_______________________________63fed4a0f390918673ffffffffffffffffffffffffffffffffffffffff1663430417f78e6040518263ffffffff1660e01b81526004016113fa9190613704565b602060405180830381865afa158015611417573d6000803e3d6000fd5b505050506040513d601f19601f8201168201806040525081019061143b9190614534565b6040518363ffffffff1660e01b8152600401611458929190614932565b602060405180830381865af4158015611475573d6000803e3d6000fd5b505050506040513d601f19601f820116820180604052508101906114999190614534565b945094505050509550959350505050565b6114b382610c32565b6114c4816114bf612d2d565b612d35565b6114ce8383612dec565b505050565b6114db612d2d565b73ffffffffffffffffffffffffffffffffffffffff168173ffffffffffffffffffffffffffffffffffffffff1614611548576040517f08c379a000000000000000000000000000000000000000000000000000000000815260040161153f906149de565b60405180910390fd5b6115528282612ecc565b5050565b6000806115a0600360008573ffffffffffffffffffffffffffffffffffffffff1673ffffffffffffffffffffffffffffffffffffffff168152602001908152602001600020612cab565b905060005b818110156116bf57600061160082600360008873ffffffffffffffffffffffffffffffffffffffff1673ffffffffffffffffffffffffffffffffffffffff168152602001908152602001600020612fad90919063ffffffff16565b905060018181548110611616576116156142d4565b5b90600052602060002090600e020173__OptionLib_____________________________63febf205490916040518263ffffffff1660e01b815260040161165c91906147be565b602060405180830381865af4158015611679573d6000803e3d6000fd5b505050506040513d601f19601f8201168201806040525081019061169d9190614a13565b156116ab57809350506116bf565b5080806116b790614a40565b9150506115a5565b5050919050565b6000808473ffffffffffffffffffffffffffffffffffffffff16631f21f9af6040518163ffffffff1660e01b8152600401602060405180830381865afa158015611714573d6000803e3d6000fd5b505050506040513d601f19601f820116820180604052508101906117389190614318565b905060008173ffffffffffffffffffffffffffffffffffffffff1663c0a16f6a6040518163ffffffff1660e01b8152600401602060405180830381865afa158015611787573d6000803e3d6000fd5b505050506040513d601f19601f820116820180604052508101906117ab9190614859565b905060008173ffffffffffffffffffffffffffffffffffffffff1663b0667cf86040518163ffffffff1660e01b8152600401602060405180830381865afa1580156117fa573d6000803e3d6000fd5b505050506040513d601f19601f8201168201806040525081019061181e9190614534565b9050600073__MarketLib_____________________________63e74207d685846040518363ffffffff1660e01b815260040161185b9291906148a7565b602060405180830381865af4158015611878573d6000803e3d6000fd5b505050506040513d601f19601f8201168201806040525081019061189c9190614534565b905060008890508715611a13576000611933600660008473ffffffffffffffffffffffffffffffffffffffff1673ffffffffffffffffffffffffffffffffffffffff16815260200190815260200160002054600760008573ffffffffffffffffffffffffffffffffffffffff1673ffffffffffffffffffffffffffffffffffffffff16815260200190815260200160002054612fc7565b73__MathLib_______________________________63fed4a0f39091866040518363ffffffff1660e01b815260040161196d929190614932565b602060405180830381865af415801561198a573d6000803e3d6000fd5b505050506040513d601f19601f820116820180604052508101906119ae9190614534565b9050611a04600560008473ffffffffffffffffffffffffffffffffffffffff1673ffffffffffffffffffffffffffffffffffffffff16815260200190815260200160002054826119fe9190614761565b84612fe1565b83611a0f9190614a88565b9250505b8615611b3c5760008973ffffffffffffffffffffffffffffffffffffffff166318160ddd6040518163ffffffff1660e01b8152600401602060405180830381865afa158015611a66573d6000803e3d6000fd5b505050506040513d601f19601f82011682018060405250810190611a8a9190614534565b90506000811115611b18578273__MathLib_______________________________63de7f61709091836040518363ffffffff1660e01b8152600401611ad0929190614932565b602060405180830381865af4158015611aed573d6000803e3d6000fd5b505050506040513d601f19601f82011682018060405250810190611b119190614534565b9250611b3a565b600081148015611b285750600083145b15611b3957670de0b6b3a764000092505b5b505b81955050505050509392505050565b7f10b261d3bc7a74f38949f9212b0336103474898eda034c06ae0a3e478dc0e4a5611b7d81611b78612d2d565b612d35565b600060018381548110611b9357611b926142d4565b5b90600052602060002090600e02019050600081600d0160009054906101000a900473ffffffffffffffffffffffffffffffffffffffff16905060008260000160039054906101000a900473ffffffffffffffffffffffffffffffffffffffff169050611c4685600360008573ffffffffffffffffffffffffffffffffffffffff1673ffffffffffffffffffffffffffffffffffffffff168152602001908152602001600020612ffa90919063ffffffff16565b50611cd585600260008573ffffffffffffffffffffffffffffffffffffffff1673ffffffffffffffffffffffffffffffffffffffff16815260200190815260200160002060008473ffffffffffffffffffffffffffffffffffffffff1673ffffffffffffffffffffffffffffffffffffffff168152602001908152602001600020612ffa90919063ffffffff16565b508273__OptionLib_____________________________63bf38721c90916040518263ffffffff1660e01b8152600401611d0f91906147be565b602060405180830381865af4158015611d2c573d6000803e3d6000fd5b505050506040513d601f19601f82011682018060405250810190611d5091906147ee565b600460008473ffffffffffffffffffffffffffffffffffffffff1673ffffffffffffffffffffffffffffffffffffffff1681526020019081526020016000206000828254611d9e9190614abc565b92505081905550611e67600660008473ffffffffffffffffffffffffffffffffffffffff1673ffffffffffffffffffffffffffffffffffffffff168152602001908152602001600020548473__OptionLib_____________________________632e5cf0a790916040518263ffffffff1660e01b8152600401611e2191906147be565b602060405180830381865af4158015611e3e573d6000803e3d6000fd5b505050506040513d601f19601f82011682018060405250810190611e629190614534565b612fe1565b600660008473ffffffffffffffffffffffffffffffffffffffff1673ffffffffffffffffffffffffffffffffffffffff1681526020019081526020016000206000828254611eb59190614a88565b92505081905550611f7e600760008473ffffffffffffffffffffffffffffffffffffffff1673ffffffffffffffffffffffffffffffffffffffff168152602001908152602001600020548473__OptionLib_____________________________6304a65c3e90916040518263ffffffff1660e01b8152600401611f3891906147be565b602060405180830381865af4158015611f55573d6000803e3d6000fd5b505050506040513d601f19601f82011682018060405250810190611f799190614534565b612fe1565b600760008473ffffffffffffffffffffffffffffffffffffffff1673ffffffffffffffffffffffffffffffffffffffff1681526020019081526020016000206000828254611fcc9190614a88565b92505081905550612095600560008473ffffffffffffffffffffffffffffffffffffffff1673ffffffffffffffffffffffffffffffffffffffff168152602001908152602001600020548473__OptionLib_____________________________631b4fb86990916040518263ffffffff1660e01b815260040161204f91906147be565b602060405180830381865af415801561206c573d6000803e3d6000fd5b505050506040513d601f19601f820116820180604052508101906120909190614534565b612fe1565b600560008473ffffffffffffffffffffffffffffffffffffffff1673ffffffffffffffffffffffffffffffffffffffff16815260200190815260200160002060008282546120e39190614a88565b9250508190555060038360000160026101000a81548160ff0219169083600381111561211257612111613778565b5b02179055504283600601819055505050505050565b60076020528060005260406000206000915090505481565b60066020528060005260406000206000915090505481565b60606121dd600260008573ffffffffffffffffffffffffffffffffffffffff1673ffffffffffffffffffffffffffffffffffffffff16815260200190815260200160002060008473ffffffffffffffffffffffffffffffffffffffff1673ffffffffffffffffffffffffffffffffffffffff168152602001908152602001600020613014565b905092915050565b60046020528060005260406000206000915090505481565b60008060008060018581548110612217576122166142d4565b5b90600052602060002090600e0201600d0160009054906101000a900473ffffffffffffffffffffffffffffffffffffffff16905060008173ffffffffffffffffffffffffffffffffffffffff16631f21f9af6040518163ffffffff1660e01b8152600401602060405180830381865afa158015612298573d6000803e3d6000fd5b505050506040513d601f19601f820116820180604052508101906122bc9190614318565b73ffffffffffffffffffffffffffffffffffffffff166305268cff6040518163ffffffff1660e01b8152600401602060405180830381865afa158015612306573d6000803e3d6000fd5b505050506040513d601f19601f8201168201806040525081019061232a9190614b8e565b73ffffffffffffffffffffffffffffffffffffffff166315dc2e9d8373ffffffffffffffffffffffffffffffffffffffff16631f21f9af6040518163ffffffff1660e01b8152600401602060405180830381865afa158015612390573d6000803e3d6000fd5b505050506040513d601f19601f820116820180604052508101906123b49190614318565b73ffffffffffffffffffffffffffffffffffffffff16636f307dc36040518163ffffffff1660e01b8152600401602060405180830381865afa1580156123fe573d6000803e3d6000fd5b505050506040513d601f19601f820116820180604052508101906124229190614bd0565b6040518263ffffffff1660e01b815260040161243e9190614bfd565b602060405180830381865afa15801561245b573d6000803e3d6000fd5b505050506040513d601f19601f8201168201806040525081019061247f9190614859565b905060018681548110612495576124946142d4565b5b90600052602060002090600e020173__OptionLib_____________________________63357aa1df90918373ffffffffffffffffffffffffffffffffffffffff1663b0667cf86040518163ffffffff1660e01b8152600401602060405180830381865afa15801561250a573d6000803e3d6000fd5b505050506040513d601f19601f8201168201806040525081019061252e9190614534565b6040518363ffffffff1660e01b815260040161254b929190614c18565b606060405180830381865af4158015612568573d6000803e3d6000fd5b505050506040513d601f19601f8201168201806040525081019061258c9190614c41565b94509450945050509193909250565b600080600084815260200190815260200160002060000160008373ffffffffffffffffffffffffffffffffffffffff1673ffffffffffffffffffffffffffffffffffffffff16815260200190815260200160002060009054906101000a900460ff16905092915050565b60056020528060005260406000206000915090505481565b600080612667600360008573ffffffffffffffffffffffffffffffffffffffff1673ffffffffffffffffffffffffffffffffffffffff168152602001908152602001600020612cab565b905060005b818110156127805760016126c782600360008873ffffffffffffffffffffffffffffffffffffffff1673ffffffffffffffffffffffffffffffffffffffff168152602001908152602001600020612fad90919063ffffffff16565b815481106126d8576126d76142d4565b5b90600052602060002090600e020173__OptionLib_____________________________63febf205490916040518263ffffffff1660e01b815260040161271e91906147be565b602060405180830381865af415801561273b573d6000803e3d6000fd5b505050506040513d601f19601f8201168201806040525081019061275f9190614a13565b1561276d5760019250612780565b808061277890614a40565b91505061266c565b5050919050565b6000801b81565b7f10b261d3bc7a74f38949f9212b0336103474898eda034c06ae0a3e478dc0e4a581565b60007f10b261d3bc7a74f38949f9212b0336103474898eda034c06ae0a3e478dc0e4a56127e6816127e1612d2d565b612d35565b60008760e001511161282d576040517f08c379a000000000000000000000000000000000000000000000000000000000815260040161282490614ce0565b60405180910390fd5b600180549050915060016040518061022001604052808960000151600181111561285a57612859613778565b5b81526020018960200151600181111561287657612875613778565b5b81526020016000600381111561288f5761288e613778565b5b8152602001896060015173ffffffffffffffffffffffffffffffffffffffff168152602001848152602001428152602001600081526020018960e00151815260200160008152602001600081526020018961014001518152602001868152602001896101800151815260200185815260200188815260200187815260200189610200015173ffffffffffffffffffffffffffffffffffffffff1681525090806001815401808255809150506001900390600052602060002090600e020160009091909190915060008201518160000160006101000a81548160ff021916908360018111156129805761297f613778565b5b021790555060208201518160000160016101000a81548160ff021916908360018111156129b0576129af613778565b5b021790555060408201518160000160026101000a81548160ff021916908360038111156129e0576129df613778565b5b021790555060608201518160000160036101000a81548173ffffffffffffffffffffffffffffffffffffffff021916908373ffffffffffffffffffffffffffffffffffffffff1602179055506080820151816001015560a0820151816002015560c0820151816003015560e08201518160040155610100820151816005015561012082015181600601556101408201518160070155610160820151816008015561018082015181600901556101a082015181600a01556101c082015181600b01556101e082015181600c015561020082015181600d0160006101000a81548173ffffffffffffffffffffffffffffffffffffffff021916908373ffffffffffffffffffffffffffffffffffffffff16021790555050505095945050505050565b612b0982610c32565b612b1a81612b15612d2d565b612d35565b612b248383612ecc565b505050565b6000806000806001805490508510612b4057600080fd5b60018581548110612b5457612b536142d4565b5b90600052602060002090600e020160000160029054906101000a900460ff1660018681548110612b8757612b866142d4565b5b90600052602060002090600e020160000160019054906101000a900460ff1660018781548110612bba57612bb96142d4565b5b90600052602060002090600e020160000160039054906101000a900473ffffffffffffffffffffffffffffffffffffffff1660018881548110612c0057612bff6142d4565b5b90600052602060002090600e0201600d0160009054906101000a900473ffffffffffffffffffffffffffffffffffffffff1693509350935093509193509193565b60007f01ffc9a7000000000000000000000000000000000000000000000000000000007bffffffffffffffffffffffffffffffffffffffffffffffffffffffff1916827bffffffffffffffffffffffffffffffffffffffffffffffffffffffff1916149050919050565b6000612cb982600001613035565b9050919050565b60007f7fffffffffffffffffffffffffffffffffffffffffffffffffffffffffffffff821115612d25576040517f08c379a0000000000000000000000000000000000000000000000000000000008152600401612d1c90614d72565b60405180910390fd5b819050919050565b600033905090565b612d3f828261259b565b612dce57612d648173ffffffffffffffffffffffffffffffffffffffff166014613046565b612d728360001c6020613046565b604051602001612d83929190614ea4565b6040516020818303038152906040526040517f08c379a0000000000000000000000000000000000000000000000000000000008152600401612dc59190614f17565b60405180910390fd5b5050565b6000612de4836000018360001b613282565b905092915050565b612df6828261259b565b612ec857600160008084815260200190815260200160002060000160008373ffffffffffffffffffffffffffffffffffffffff1673ffffffffffffffffffffffffffffffffffffffff16815260200190815260200160002060006101000a81548160ff021916908315150217905550612e6d612d2d565b73ffffffffffffffffffffffffffffffffffffffff168173ffffffffffffffffffffffffffffffffffffffff16837f2f8788117e7eff1d82e926ec794901d17c78024a50270940304540a733656f0d60405160405180910390a45b5050565b612ed6828261259b565b15612fa957600080600084815260200190815260200160002060000160008373ffffffffffffffffffffffffffffffffffffffff1673ffffffffffffffffffffffffffffffffffffffff16815260200190815260200160002060006101000a81548160ff021916908315150217905550612f4e612d2d565b73ffffffffffffffffffffffffffffffffffffffff168173ffffffffffffffffffffffffffffffffffffffff16837ff6391f5c32d9c69d2a47ea670b442974b53935d1edc7fd64eb21e047a839171b60405160405180910390a45b5050565b6000612fbc83600001836132f2565b60001c905092915050565b600081831015612fd75781612fd9565b825b905092915050565b6000818310612ff05781612ff2565b825b905092915050565b600061300c836000018360001b61331d565b905092915050565b6060600061302483600001613431565b905060608190508092505050919050565b600081600001805490509050919050565b6060600060028360026130599190614f39565b6130639190614761565b67ffffffffffffffff81111561307c5761307b613a2e565b5b6040519080825280601f01601f1916602001820160405280156130ae5781602001600182028036833780820191505090505b5090507f3000000000000000000000000000000000000000000000000000000000000000816000815181106130e6576130e56142d4565b5b60200101907effffffffffffffffffffffffffffffffffffffffffffffffffffffffffffff1916908160001a9053507f78000000000000000000000000000000000000000000000000000000000000008160018151811061314a576131496142d4565b5b60200101907effffffffffffffffffffffffffffffffffffffffffffffffffffffffffffff1916908160001a9053506000600184600261318a9190614f39565b6131949190614761565b90505b6001811115613234577f3031323334353637383961626364656600000000000000000000000000000000600f8616601081106131d6576131d56142d4565b5b1a60f81b8282815181106131ed576131ec6142d4565b5b60200101907effffffffffffffffffffffffffffffffffffffffffffffffffffffffffffff1916908160001a905350600485901c94508061322d90614f93565b9050613197565b5060008414613278576040517f08c379a000000000000000000000000000000000000000000000000000000000815260040161326f90615008565b60405180910390fd5b8091505092915050565b600061328e838361348d565b6132e75782600001829080600181540180825580915050600190039060005260206000200160009091909190915055826000018054905083600101600084815260200190815260200160002081905550600190506132ec565b600090505b92915050565b600082600001828154811061330a576133096142d4565b5b9060005260206000200154905092915050565b6000808360010160008481526020019081526020016000205490506000811461342557600060018261334f9190614a88565b90506000600186600001805490506133679190614a88565b90508181146133d6576000866000018281548110613388576133876142d4565b5b90600052602060002001549050808760000184815481106133ac576133ab6142d4565b5b90600052602060002001819055508387600101600083815260200190815260200160002081905550505b856000018054806133ea576133e9615028565b5b60019003818190600052602060002001600090559055856001016000868152602001908152602001600020600090556001935050505061342b565b60009150505b92915050565b60608160000180548060200260200160405190810160405280929190818152602001828054801561348157602002820191906000526020600020905b81548152602001906001019080831161346d575b50505050509050919050565b600080836001016000848152602001908152602001600020541415905092915050565b604051806102200160405280600060018111156134d0576134cf613778565b5b8152602001600060018111156134e9576134e8613778565b5b81526020016000600381111561350257613501613778565b5b8152602001600073ffffffffffffffffffffffffffffffffffffffff168152602001600081526020016000815260200160008152602001600081526020016000815260200160008152602001600081526020016000815260200160008152602001600081526020016000815260200160008152602001600073ffffffffffffffffffffffffffffffffffffffff1681525090565b6000604051905090565b600080fd5b60007fffffffff0000000000000000000000000000000000000000000000000000000082169050919050565b6135da816135a5565b81146135e557600080fd5b50565b6000813590506135f7816135d1565b92915050565b600060208284031215613613576136126135a0565b5b6000613621848285016135e8565b91505092915050565b60008115159050919050565b61363f8161362a565b82525050565b600060208201905061365a6000830184613636565b92915050565b600073ffffffffffffffffffffffffffffffffffffffff82169050919050565b600061368b82613660565b9050919050565b61369b81613680565b81146136a657600080fd5b50565b6000813590506136b881613692565b92915050565b6000602082840312156136d4576136d36135a0565b5b60006136e2848285016136a9565b91505092915050565b6000819050919050565b6136fe816136eb565b82525050565b600060208201905061371960008301846136f5565b92915050565b613728816136eb565b811461373357600080fd5b50565b6000813590506137458161371f565b92915050565b600060208284031215613761576137606135a0565b5b600061376f84828501613736565b91505092915050565b7f4e487b7100000000000000000000000000000000000000000000000000000000600052602160045260246000fd5b600281106137b8576137b7613778565b5b50565b60008190506137c9826137a7565b919050565b60006137d9826137bb565b9050919050565b6137e9816137ce565b82525050565b60028110613800576137ff613778565b5b50565b6000819050613811826137ef565b919050565b600061382182613803565b9050919050565b61383181613816565b82525050565b6004811061384857613847613778565b5b50565b600081905061385982613837565b919050565b60006138698261384b565b9050919050565b6138798161385e565b82525050565b61388881613680565b82525050565b613897816136eb565b82525050565b610220820160008201516138b460008501826137e0565b5060208201516138c76020850182613828565b5060408201516138da6040850182613870565b5060608201516138ed606085018261387f565b506080820151613900608085018261388e565b5060a082015161391360a085018261388e565b5060c082015161392660c085018261388e565b5060e082015161393960e085018261388e565b5061010082015161394e61010085018261388e565b5061012082015161396361012085018261388e565b5061014082015161397861014085018261388e565b5061016082015161398d61016085018261388e565b506101808201516139a261018085018261388e565b506101a08201516139b76101a085018261388e565b506101c08201516139cc6101c085018261388e565b506101e08201516139e16101e085018261388e565b506102008201516139f661020085018261387f565b50505050565b600061022082019050613a12600083018461389d565b92915050565b600080fd5b6000601f19601f8301169050919050565b7f4e487b7100000000000000000000000000000000000000000000000000000000600052604160045260246000fd5b613a6682613a1d565b810181811067ffffffffffffffff82111715613a8557613a84613a2e565b5b80604052505050565b6000613a98613596565b9050613aa48282613a5d565b919050565b60028110613ab657600080fd5b50565b600081359050613ac881613aa9565b92915050565b60028110613adb57600080fd5b50565b600081359050613aed81613ace565b92915050565b60048110613b0057600080fd5b50565b600081359050613b1281613af3565b92915050565b60006102208284031215613b2f57613b2e613a18565b5b613b3a610220613a8e565b90506000613b4a84828501613ab9565b6000830152506020613b5e84828501613ade565b6020830152506040613b7284828501613b03565b6040830152506060613b86848285016136a9565b6060830152506080613b9a84828501613736565b60808301525060a0613bae84828501613736565b60a08301525060c0613bc284828501613736565b60c08301525060e0613bd684828501613736565b60e083015250610100613beb84828501613736565b61010083015250610120613c0184828501613736565b61012083015250610140613c1784828501613736565b61014083015250610160613c2d84828501613736565b61016083015250610180613c4384828501613736565b610180830152506101a0613c5984828501613736565b6101a0830152506101c0613c6f84828501613736565b6101c0830152506101e0613c8584828501613736565b6101e083015250610200613c9b848285016136a9565b6102008301525092915050565b613cb18161362a565b8114613cbc57600080fd5b50565b600081359050613cce81613ca8565b92915050565b6000806102408385031215613cec57613ceb6135a0565b5b6000613cfa85828601613b18565b925050610220613d0c85828601613cbf565b9150509250929050565b6000608082019050613d2b60008301876136f5565b613d3860208301866136f5565b613d4560408301856136f5565b613d5260608301846136f5565b95945050505050565b6000819050919050565b613d6e81613d5b565b8114613d7957600080fd5b50565b600081359050613d8b81613d65565b92915050565b600060208284031215613da757613da66135a0565b5b6000613db584828501613d7c565b91505092915050565b613dc781613d5b565b82525050565b6000602082019050613de26000830184613dbe565b92915050565b60008060408385031215613dff57613dfe6135a0565b5b6000613e0d85828601613736565b9250506020613e1e858286016136a9565b9150509250929050565b6000613e3382613680565b9050919050565b613e4381613e28565b8114613e4e57600080fd5b50565b600081359050613e6081613e3a565b92915050565b6000819050919050565b613e7981613e66565b8114613e8457600080fd5b50565b600081359050613e9681613e70565b92915050565b600080600080600060a08688031215613eb857613eb76135a0565b5b6000613ec688828901613e51565b9550506020613ed788828901613736565b9450506040613ee888828901613736565b9350506060613ef988828901613e87565b9250506080613f0a88828901613e87565b9150509295509295909350565b6000604082019050613f2c60008301856136f5565b613f3960208301846136f5565b9392505050565b60008060408385031215613f5757613f566135a0565b5b6000613f6585828601613d7c565b9250506020613f76858286016136a9565b9150509250929050565b6000613f8b82613680565b9050919050565b613f9b81613f80565b8114613fa657600080fd5b50565b600081359050613fb881613f92565b92915050565b600080600060608486031215613fd757613fd66135a0565b5b6000613fe586828701613fa9565b9350506020613ff686828701613cbf565b925050604061400786828701613cbf565b9150509250925092565b60008060408385031215614028576140276135a0565b5b6000614036858286016136a9565b9250506020614047858286016136a9565b9150509250929050565b600081519050919050565b600082825260208201905092915050565b6000819050602082019050919050565b6000614089838361388e565b60208301905092915050565b6000602082019050919050565b60006140ad82614051565b6140b7818561405c565b93506140c28361406d565b8060005b838110156140f35781516140da888261407d565b97506140e583614095565b9250506001810190506140c6565b5085935050505092915050565b6000602082019050818103600083015261411a81846140a2565b905092915050565b61412b81613e66565b82525050565b60006020820190506141466000830184614122565b92915050565b600060608201905061416160008301866136f5565b61416e60208301856136f5565b61417b60408301846136f5565b949350505050565b60008060008060006102a086880312156141a05761419f6135a0565b5b60006141ae88828901613b18565b9550506102206141c088828901613736565b9450506102406141d288828901613736565b9350506102606141e488828901613736565b9250506102806141f688828901613736565b9150509295509295909350565b61420c8161385e565b82525050565b61421b81613816565b82525050565b61422a81613680565b82525050565b6000819050919050565b600061425561425061424b84613660565b614230565b613660565b9050919050565b60006142678261423a565b9050919050565b60006142798261425c565b9050919050565b6142898161426e565b82525050565b60006080820190506142a46000830187614203565b6142b16020830186614212565b6142be6040830185614221565b6142cb6060830184614280565b95945050505050565b7f4e487b7100000000000000000000000000000000000000000000000000000000600052603260045260246000fd5b60008151905061431281613e3a565b92915050565b60006020828403121561432e5761432d6135a0565b5b600061433c84828501614303565b91505092915050565b7f4e487b7100000000000000000000000000000000000000000000000000000000600052601160045260246000fd5b600061437f82613e66565b915061438a83613e66565b9250827f7fffffffffffffffffffffffffffffffffffffffffffffffffffffffffffffff04821160008413600084131616156143c9576143c8614345565b5b817f8000000000000000000000000000000000000000000000000000000000000000058312600084126000841316161561440657614405614345565b5b827f8000000000000000000000000000000000000000000000000000000000000000058212600084136000841216161561444357614442614345565b5b827f7fffffffffffffffffffffffffffffffffffffffffffffffffffffffffffffff05821260008412600084121616156144805761447f614345565b5b828202905092915050565b600061449682613e66565b91506144a183613e66565b9250817f7fffffffffffffffffffffffffffffffffffffffffffffffffffffffffffffff038313600083121516156144dc576144db614345565b5b817f800000000000000000000000000000000000000000000000000000000000000003831260008312161561451457614513614345565b5b828201905092915050565b60008151905061452e8161371f565b92915050565b60006020828403121561454a576145496135a0565b5b60006145588482850161451f565b91505092915050565b61456a816137ce565b82525050565b61457981613816565b82525050565b6145888161385e565b82525050565b61459781613680565b82525050565b6145a6816136eb565b82525050565b610220820160008201516145c36000850182614561565b5060208201516145d66020850182614570565b5060408201516145e9604085018261457f565b5060608201516145fc606085018261458e565b50608082015161460f608085018261459d565b5060a082015161462260a085018261459d565b5060c082015161463560c085018261459d565b5060e082015161464860e085018261459d565b5061010082015161465d61010085018261459d565b5061012082015161467261012085018261459d565b5061014082015161468761014085018261459d565b5061016082015161469c61016085018261459d565b506101808201516146b161018085018261459d565b506101a08201516146c66101a085018261459d565b506101c08201516146db6101c085018261459d565b506101e08201516146f06101e085018261459d565b5061020082015161470561020085018261458e565b50505050565b614714816136eb565b82525050565b60006102408201905061473060008301856145ac565b61473e61022083018461470b565b9392505050565b60006102208201905061475b60008301846145ac565b92915050565b600061476c826136eb565b9150614777836136eb565b9250827fffffffffffffffffffffffffffffffffffffffffffffffffffffffffffffffff038211156147ac576147ab614345565b5b828201905092915050565b8082525050565b60006020820190506147d360008301846147b7565b92915050565b6000815190506147e881613e70565b92915050565b600060208284031215614804576148036135a0565b5b6000614812848285016147d9565b91505092915050565b600061482682613680565b9050919050565b6148368161481b565b811461484157600080fd5b50565b6000815190506148538161482d565b92915050565b60006020828403121561486f5761486e6135a0565b5b600061487d84828501614844565b91505092915050565b60006148918261425c565b9050919050565b6148a181614886565b82525050565b60006040820190506148bc6000830185614898565b6148c9602083018461470b565b9392505050565b6148d981613e66565b82525050565b600060a0820190506148f4600083018861470b565b61490160208301876148d0565b61490e60408301866148d0565b61491b606083018561470b565b614928608083018461470b565b9695505050505050565b6000604082019050614947600083018561470b565b614954602083018461470b565b9392505050565b600082825260208201905092915050565b7f416363657373436f6e74726f6c3a2063616e206f6e6c792072656e6f756e636560008201527f20726f6c657320666f722073656c660000000000000000000000000000000000602082015250565b60006149c8602f8361495b565b91506149d38261496c565b604082019050919050565b600060208201905081810360008301526149f7816149bb565b9050919050565b600081519050614a0d81613ca8565b92915050565b600060208284031215614a2957614a286135a0565b5b6000614a37848285016149fe565b91505092915050565b6000614a4b826136eb565b91507fffffffffffffffffffffffffffffffffffffffffffffffffffffffffffffffff8203614a7d57614a7c614345565b5b600182019050919050565b6000614a93826136eb565b9150614a9e836136eb565b925082821015614ab157614ab0614345565b5b828203905092915050565b6000614ac782613e66565b9150614ad283613e66565b9250827f800000000000000000000000000000000000000000000000000000000000000001821260008412151615614b0d57614b0c614345565b5b827f7fffffffffffffffffffffffffffffffffffffffffffffffffffffffffffffff018213600084121615614b4557614b44614345565b5b828203905092915050565b6000614b5b82613680565b9050919050565b614b6b81614b50565b8114614b7657600080fd5b50565b600081519050614b8881614b62565b92915050565b600060208284031215614ba457614ba36135a0565b5b6000614bb284828501614b79565b91505092915050565b600081519050614bca81613692565b92915050565b600060208284031215614be657614be56135a0565b5b6000614bf484828501614bbb565b91505092915050565b6000602082019050614c126000830184614221565b92915050565b6000604082019050614c2d60008301856147b7565b614c3a602083018461470b565b9392505050565b600080600060608486031215614c5a57614c596135a0565b5b6000614c688682870161451f565b9350506020614c798682870161451f565b9250506040614c8a8682870161451f565b9150509250925092565b7f5a65726f2074656e6f7200000000000000000000000000000000000000000000600082015250565b6000614cca600a8361495b565b9150614cd582614c94565b602082019050919050565b60006020820190508181036000830152614cf981614cbd565b9050919050565b7f53616665436173743a2076616c756520646f65736e27742066697420696e206160008201527f6e20696e74323536000000000000000000000000000000000000000000000000602082015250565b6000614d5c60288361495b565b9150614d6782614d00565b604082019050919050565b60006020820190508181036000830152614d8b81614d4f565b9050919050565b600081905092915050565b7f416363657373436f6e74726f6c3a206163636f756e7420000000000000000000600082015250565b6000614dd3601783614d92565b9150614dde82614d9d565b601782019050919050565b600081519050919050565b60005b83811015614e12578082015181840152602081019050614df7565b83811115614e21576000848401525b50505050565b6000614e3282614de9565b614e3c8185614d92565b9350614e4c818560208601614df4565b80840191505092915050565b7f206973206d697373696e6720726f6c6520000000000000000000000000000000600082015250565b6000614e8e601183614d92565b9150614e9982614e58565b601182019050919050565b6000614eaf82614dc6565b9150614ebb8285614e27565b9150614ec682614e81565b9150614ed28284614e27565b91508190509392505050565b6000614ee982614de9565b614ef3818561495b565b9350614f03818560208601614df4565b614f0c81613a1d565b840191505092915050565b60006020820190508181036000830152614f318184614ede565b905092915050565b6000614f44826136eb565b9150614f4f836136eb565b9250817fffffffffffffffffffffffffffffffffffffffffffffffffffffffffffffffff0483118215151615614f8857614f87614345565b5b828202905092915050565b6000614f9e826136eb565b915060008203614fb157614fb0614345565b5b600182039050919050565b7f537472696e67733a20686578206c656e67746820696e73756666696369656e74600082015250565b6000614ff260208361495b565b9150614ffd82614fbc565b602082019050919050565b6000602082019050818103600083015261502181614fe5565b9050919050565b7f4e487b7100000000000000000000000000000000000000000000000000000000600052603160045260246000fdfea2646970667358221220ddea2022b1016f1bf1385d5e956721a6fb1169999ce0e82a45ab765ebdadac1e64736f6c634300080d0033",
  "immutableReferences": {},
  "source": "// SPDX-License-Identifier: MIT\npragma solidity ^0.8.4;\n\nimport \"@openzeppelin/contracts/access/AccessControl.sol\";\nimport \"@openzeppelin/contracts/utils/structs/EnumerableSet.sol\";\nimport \"./libraries/MarketLib.sol\";\nimport \"./libraries/OptionLib.sol\";\nimport \"./libraries/MathLib.sol\";\nimport \"./interfaces/EOption.sol\";\nimport \"./pools/Pool.sol\";\nimport \"./pools/MarketMaker.sol\";\nimport \"./VolatilityChain.sol\";\n\ncontract OptionVault is EOption, AccessControl{\n  using MathLib for uint256;\n  using MarketLib for uint256;\n  using OptionLib for OptionLib.Option;\n  using EnumerableSet for EnumerableSet.UintSet;\n  using EnumerableSet for EnumerableSet.AddressSet;\n\n  bytes32 public constant EXCHANGE = keccak256(\"EXCHANGE\");\n  \n  // list of option contracts\n  OptionLib.Option[] internal aOption;\n  mapping(address=>mapping(address=> EnumerableSet.UintSet)) internal mHolderAtiveOption;\n  mapping(address=>EnumerableSet.UintSet) internal mActiveOption;\n  // mapping(address=>uint256) public mActiveContractCount = 0;\n  mapping(address=>int256) public mNetNotional;\n  mapping(address=>uint256) public mPutCollateral;\n  mapping(address=>uint256) public mDeltaAtZero;\n  mapping(address=>uint256) public mDeltaAtMax;\n\n  // immutable and constant values\n  uint256 internal constant BASE  = 1e18;\n  uint256 internal constant SCALING = 1e5;\n\n  // constructor\n  constructor(){\n    _setupRole(DEFAULT_ADMIN_ROLE, msg.sender); }\n\n  // function to add new option contracts, only executable by Exchange contract as owner\n  // arguments: tenor of option contracts (in seconds), strike (consistent with price source decimals), amount (consistent with underlying token decimals), option type (call or put), option side (buy or sell), premium (in funding token decimals), cost (in funding token decimals), price (in price source decimals), volatility (in default decimals 18), holder address\n  // return id of option contract\n  function addOption(OptionLib.Option memory _option, uint256 _premium, uint256 _collateral, uint256 _price, uint256 _vol) external onlyRole(EXCHANGE) returns(uint256 _id){\n    require(_option.tenor > 0, \"Zero tenor\");\n    _id = aOption.length;\n    // Arguments: option type, option side, contract status (default to draft), contract holder address, contract id, creation timestamp, effective timestamp (default to 0), tenor in seconds, maturity timestamp (default to 0), excersie timestamp (default to 0), amount or size of contract, current spot price, option strike, implied volatility, calculated premium and total cost including collaterals.\n    aOption.push(OptionLib.Option(_option.poType, _option.side, OptionLib.OptionStatus.Draft, _option.holder, _id, block.timestamp,  0, _option.tenor, 0,  0, _option.amount, _price, _option.strike, _vol, _premium, _collateral, _option.pool));}\n\n  // function to stamp option as an active contract, only executable by Exchange contract as owner\n  // arguments: contract id and holder address\n  function stampActiveOption(uint256 _id, address _holder) external onlyRole(EXCHANGE){\n    // update Option records\n    OptionLib.Option storage _option = aOption[_id];\n    _option.effectiveTime = block.timestamp;\n    _option.maturity = block.timestamp + _option.tenor;\n    _option.status = OptionLib.OptionStatus.Active;\n    \n    // update ownership and exposure records\n    address _poolAddress = _option.pool;\n    mNetNotional[_poolAddress] += _option.getNetNotional();\n    mPutCollateral[_poolAddress] += _option.sellPutCollateral();\n    mDeltaAtZero[_poolAddress] += _option.calcDeltaAtZero();\n    mDeltaAtMax[_poolAddress] += _option.calcDeltaAtMax();\n\n    mHolderAtiveOption[_poolAddress][_holder].add(_id);\n    mActiveOption[_poolAddress].add(_id);}\n\n  // function to stamp option as an expired contract, only executable by Exchange contract as owner\n  // arguments: contract id\n  function stampExpiredOption(uint256 _id)  external onlyRole(EXCHANGE){\n    // update Option records\n    OptionLib.Option storage _option = aOption[_id];\n    address _poolAddress = _option.pool;\n    address _holder = _option.holder;\n    mActiveOption[_poolAddress].remove(_id);\n    mHolderAtiveOption[_poolAddress][_holder].remove(_id);\n\n    mNetNotional[_poolAddress] -= _option.getNetNotional();\n    mDeltaAtZero[_poolAddress] -= Math.min(mDeltaAtZero[_poolAddress], _option.calcDeltaAtZero());\n    mDeltaAtMax[_poolAddress] -= Math.min(mDeltaAtMax[_poolAddress], _option.calcDeltaAtMax());\n    mPutCollateral[_poolAddress] -= Math.min(mPutCollateral[_poolAddress], _option.sellPutCollateral());\n   \n    _option.status = OptionLib.OptionStatus.Expired;\n    _option.exerciseTime = block.timestamp;}\n\n  // functions to get information of the option list -> ONLY USED in VIEW, gas cost unlimited\n  function getHolderOptions(address _pool, address _address) external view returns(uint256[] memory){\n    return mHolderAtiveOption[_pool][_address].values();}\n  function getOption(uint256 _id) external view returns(OptionLib.Option memory) {return aOption[_id];}\n  function getActiveOptionCount(address _poolAddress) external view returns(uint256) {return mActiveOption[_poolAddress].length();}\n\n  // function getHoldersOption(uint256 _index, address _address) external view returns(OptionLib.Option memory) {return aOption[activeOptionsPerOwner[_address].at(_index)];}\n  function getOptionInfo(uint256 _id) external view returns(OptionLib.OptionStatus, OptionLib.OptionSide, address, Pool) {\n    require(_id< aOption.length);\n    return (aOption[_id].status, aOption[_id].side, aOption[_id].holder, Pool(aOption[_id].pool));}\n\n  // functions to get the hedging inputs\n  // maximum hedges needed \n  // function getMaxHedge(Pool _pool) external view returns (uint256){\n  //   VolatilityChain _volChain = _pool.volChain();\n  //   address _poolAddress = address(_pool);\n  //   return Math.max(mDeltaAtZero[_poolAddress], mDeltaAtMax[_poolAddress]).ethmul(_volChain.queryPrice());}\n\n  // aggregate delta of all active contracts, optional including expiring contracts yet stamped as Expired. Arguments: spot price and whether to include expiring contracts\n  // function calculateAggregateDelta(address _pool, uint256 _price, bool _includeExpiring) public view returns(int256 _delta){\n  //   _delta= 0;\n  //   for(uint256 i=0;i<activeContractCount;i++){\n  //     OptionLib.Option storage _option = aOption[uint256(activeOptions.at(i))];\n  //     uint256 _maturityLeft = _option.calcRemainingMaturity();\n  //     uint256 _vol = volChain.queryVol(_maturityLeft);\n  //     _delta += _option.calcDelta(_price, _vol, _includeExpiring);}}\n  \n  // aggregate gamma. Arguments: spot price\n  // function calculateAggregateGamma(address _pool, uint256 _price) external view returns(int256 _gamma){\n  //   _gamma= 0;\n  //   for(uint256 i=0;i<activeContractCount;i++){\n  //     uint256 _id = uint256(activeOptions.at(i));\n  //     if(aOption[_id].status== OptionLib.OptionStatus.Active  && (aOption[_id].maturity > block.timestamp)){\n  //       uint256 _vol = volChain.queryVol(aOption[_id].maturity - block.timestamp);\n  //       int256 _contractGamma = SafeCast.toInt256(OptionLib.calcGamma(_price, aOption[_id].strike, _vol).ethmul(aOption[_id].amount));\n  //       if(aOption[_id].side==OptionLib.OptionSide.Sell){ _gamma -= _contractGamma;}\n  //       else{_gamma += _contractGamma;}}}}\n\n  // hypothetical gamma assuming at the money and 1-day expiry\n  // function calculateSpotGamma() external view returns(int256 _gamma){\n  //   uint256 _vol = volChain.queryVol(86400);\n  //   _gamma = SafeCast.toInt256(OptionLib.calcGamma(BASE, BASE, _vol));}\n\n  // functions used in expiring option contracts\n  // contract payoff of specified contract ID\n  function getContractPayoff(uint256 _id) external view returns(uint256 _payoff, uint256 _payback, uint256 _collateral){\n    Pool _pool = Pool(aOption[_id].pool);\n    VolatilityChain _volChain = _pool.marketMaker().govToken().getVolatilityChain(_pool.marketMaker().underlying());\n    return aOption[_id].calcPayoff(_volChain.queryPrice());}\n    \n  // check if any option contract is expiring\n  function anyOptionExpiring(address _poolAddress) external view returns(bool _isExpiring) {\n    _isExpiring = false;\n    uint256 _count = mActiveOption[_poolAddress].length();\n    for(uint256 i=0;i<_count;i++){\n      if(aOption[uint256(mActiveOption[_poolAddress].at(i))].isExpiring()){\n        _isExpiring = true;\n        break;}}}\n  // get the id of any expiring contract -> please only run it on view function as it has unlimited gas usage.\n  function getExpiringOptionId(address _poolAddress) external view returns(uint256 _id){\n    // uint256[] memory _id;\n    uint256 _count = mActiveOption[_poolAddress].length();\n    for(uint256 i=0;i<_count;i++){\n      uint256 _id_i = uint256(mActiveOption[_poolAddress].at(i));\n      if(aOption[_id_i].isExpiring()){\n        _id = _id_i;\n        break;}}}\n\n  function calcOptionCost(OptionLib.Option memory _option, bool _forceATM) public view returns(uint256 _premium, uint256 _collateral, uint256 _price, uint256 _vol){\n    Pool _pool = Pool(_option.pool);\n    MarketMaker _market = _pool.marketMaker();\n\n    int256 _newNetNotional = mNetNotional[_option.pool] + SafeCast.toInt256(_option.amount) * (_option.side==OptionLib.OptionSide.Sell? -1: int(1));\n    (_price, _vol) = calcImpliedVol(_market, _option.tenor, _pool.volCapacityFactor(), mNetNotional[_option.pool], _newNetNotional);\n    _option.spot = _price;\n    _option.volatility = _vol;\n    if (_forceATM){_option.strike = _price;}\n\n    _premium = _option.calcPremium(_market.loanInterest());\n    _collateral = _option.calcCollateral();}\n\n  function calcImpliedVol(MarketMaker _market, uint256 _tenor, uint256 _volCapacityFactor, int256 _currentNetNotional, int256 _newNetNotional) public view returns(uint256, uint256){\n    VolatilityChain _volChain = _market.getVolatilityChain();\n    uint256 _price = _volChain.queryPrice();\n    uint256 _impVol = MarketLib.calcRiskPremium(MarketLib.getGrossCapital(_market, _price), _currentNetNotional, _newNetNotional, _volChain.queryVol(_tenor), _volCapacityFactor);\n    return (_price, _impVol.ethmul(_volChain.getSqrtRatio(_tenor)));}\n    \n  // functions related to capital calculation, addition and removals\n  // calculate capitals. Arguments: net for net capital (removing all collaterals and max exposures of option contracts) or gross (including all exposures in the underlying and funding tokens), average for average capital (total divided by number of Pool tokens) or gross (not divided by tokens)\n  function calcCapital(Pool _pool, bool _net, bool _average) external view returns(uint256){\n    MarketMaker _market = _pool.marketMaker();\n    VolatilityChain _volChain = _market.getVolatilityChain();\n    uint256 _price = _volChain.queryPrice();\n    uint256 _capital = MarketLib.getGrossCapital(_market, _price);\n    address _poolAddress = address(_pool);\n\n    if(_net){ \n      uint256 _maxHedge = Math.max(mDeltaAtZero[_poolAddress], mDeltaAtMax[_poolAddress]).ethmul(_price);\n      _capital -= Math.min(_maxHedge + mPutCollateral[_poolAddress], _capital);}\n\n    if(_average){ \n      uint256 _poolSupply = _pool.totalSupply();\n      if(_poolSupply > 0) {\n        _capital = _capital.ethdiv(_poolSupply); }\n      else if(_poolSupply == 0 && _capital == 0) {\n        _capital = BASE;}}\n    \n    return _capital;}\n}\n",
  "sourcePath": "/Users/mac/Documents/GitHub/moret/contracts/OptionVault.sol",
  "compiler": {
    "name": "solc",
    "version": "0.8.13+commit.abaa5c0e.Emscripten.clang"
  },
  "schemaVersion": "3.4.3",
  "updatedAt": "2022-05-02T09:43:37.054Z",
  "devdoc": {
    "kind": "dev",
    "methods": {
      "getRoleAdmin(bytes32)": {
        "details": "Returns the admin role that controls `role`. See {grantRole} and {revokeRole}. To change a role's admin, use {_setRoleAdmin}."
      },
      "grantRole(bytes32,address)": {
        "details": "Grants `role` to `account`. If `account` had not been already granted `role`, emits a {RoleGranted} event. Requirements: - the caller must have ``role``'s admin role."
      },
      "hasRole(bytes32,address)": {
        "details": "Returns `true` if `account` has been granted `role`."
      },
      "renounceRole(bytes32,address)": {
        "details": "Revokes `role` from the calling account. Roles are often managed via {grantRole} and {revokeRole}: this function's purpose is to provide a mechanism for accounts to lose their privileges if they are compromised (such as when a trusted device is misplaced). If the calling account had been revoked `role`, emits a {RoleRevoked} event. Requirements: - the caller must be `account`."
      },
      "revokeRole(bytes32,address)": {
        "details": "Revokes `role` from `account`. If `account` had been granted `role`, emits a {RoleRevoked} event. Requirements: - the caller must have ``role``'s admin role."
      },
      "supportsInterface(bytes4)": {
        "details": "See {IERC165-supportsInterface}."
      }
    },
    "version": 1
  },
  "userdoc": {
    "kind": "user",
    "methods": {},
    "version": 1
  }
}