{
  "contractName": "OptionVault",
  "abi": [
    {
      "inputs": [],
      "stateMutability": "nonpayable",
      "type": "constructor"
    },
    {
      "anonymous": false,
      "inputs": [
        {
          "indexed": true,
          "internalType": "address",
          "name": "_bot",
          "type": "address"
        },
        {
          "indexed": true,
          "internalType": "address",
          "name": "_exchange",
          "type": "address"
        },
        {
          "indexed": false,
          "internalType": "address",
          "name": "_holder",
          "type": "address"
        },
        {
          "indexed": false,
          "internalType": "uint256",
          "name": "_id",
          "type": "uint256"
        },
        {
          "indexed": false,
          "internalType": "uint256",
          "name": "_payoff",
          "type": "uint256"
        }
      ],
      "name": "Expire",
      "type": "event"
    },
    {
      "anonymous": false,
      "inputs": [
        {
          "indexed": true,
          "internalType": "address",
          "name": "_hedger",
          "type": "address"
        },
        {
          "indexed": true,
          "internalType": "address",
          "name": "_market",
          "type": "address"
        },
        {
          "indexed": false,
          "internalType": "bool",
          "name": "success",
          "type": "bool"
        },
        {
          "indexed": false,
          "internalType": "bytes",
          "name": "data",
          "type": "bytes"
        }
      ],
      "name": "HedgeResponse",
      "type": "event"
    },
    {
      "anonymous": false,
      "inputs": [
        {
          "indexed": true,
          "internalType": "address",
          "name": "_hedger",
          "type": "address"
        },
        {
          "indexed": true,
          "internalType": "address",
          "name": "_market",
          "type": "address"
        },
        {
          "indexed": false,
          "internalType": "uint256[]",
          "name": "amounts",
          "type": "uint256[]"
        }
      ],
      "name": "HedgeSwapResponse",
      "type": "event"
    },
    {
      "anonymous": false,
      "inputs": [
        {
          "indexed": true,
          "internalType": "address",
          "name": "_purchaser",
          "type": "address"
        },
        {
          "indexed": true,
          "internalType": "address",
          "name": "_exchange",
          "type": "address"
        },
        {
          "indexed": false,
          "internalType": "uint256",
          "name": "_id",
          "type": "uint256"
        },
        {
          "indexed": false,
          "internalType": "uint256",
          "name": "_premium",
          "type": "uint256"
        },
        {
          "indexed": false,
          "internalType": "uint256",
          "name": "_collateral",
          "type": "uint256"
        },
        {
          "indexed": false,
          "internalType": "bool",
          "name": "_inVol",
          "type": "bool"
        }
      ],
      "name": "NewOption",
      "type": "event"
    },
    {
      "anonymous": false,
      "inputs": [
        {
          "indexed": false,
          "internalType": "address",
          "name": "_newBot",
          "type": "address"
        }
      ],
      "name": "ResetBotAddress",
      "type": "event"
    },
    {
      "anonymous": false,
      "inputs": [
        {
          "indexed": true,
          "internalType": "uint256",
          "name": "_parameterId",
          "type": "uint256"
        },
        {
          "indexed": false,
          "internalType": "uint256",
          "name": "_parameter",
          "type": "uint256"
        }
      ],
      "name": "ResetParameter",
      "type": "event"
    },
    {
      "anonymous": false,
      "inputs": [
        {
          "indexed": true,
          "internalType": "address",
          "name": "_exchange",
          "type": "address"
        },
        {
          "indexed": false,
          "internalType": "bool",
          "name": "_tradingAllowed",
          "type": "bool"
        }
      ],
      "name": "ResetTradingStatus",
      "type": "event"
    },
    {
      "anonymous": false,
      "inputs": [
        {
          "indexed": true,
          "internalType": "bytes32",
          "name": "role",
          "type": "bytes32"
        },
        {
          "indexed": true,
          "internalType": "bytes32",
          "name": "previousAdminRole",
          "type": "bytes32"
        },
        {
          "indexed": true,
          "internalType": "bytes32",
          "name": "newAdminRole",
          "type": "bytes32"
        }
      ],
      "name": "RoleAdminChanged",
      "type": "event"
    },
    {
      "anonymous": false,
      "inputs": [
        {
          "indexed": true,
          "internalType": "bytes32",
          "name": "role",
          "type": "bytes32"
        },
        {
          "indexed": true,
          "internalType": "address",
          "name": "account",
          "type": "address"
        },
        {
          "indexed": true,
          "internalType": "address",
          "name": "sender",
          "type": "address"
        }
      ],
      "name": "RoleGranted",
      "type": "event"
    },
    {
      "anonymous": false,
      "inputs": [
        {
          "indexed": true,
          "internalType": "bytes32",
          "name": "role",
          "type": "bytes32"
        },
        {
          "indexed": true,
          "internalType": "address",
          "name": "account",
          "type": "address"
        },
        {
          "indexed": true,
          "internalType": "address",
          "name": "sender",
          "type": "address"
        }
      ],
      "name": "RoleRevoked",
      "type": "event"
    },
    {
      "anonymous": false,
      "inputs": [
        {
          "indexed": true,
          "internalType": "address",
          "name": "_purchaser",
          "type": "address"
        },
        {
          "indexed": true,
          "internalType": "address",
          "name": "_exchange",
          "type": "address"
        },
        {
          "indexed": false,
          "internalType": "uint256",
          "name": "_cost",
          "type": "uint256"
        },
        {
          "indexed": false,
          "internalType": "uint256",
          "name": "_volAmount",
          "type": "uint256"
        },
        {
          "indexed": false,
          "internalType": "bool",
          "name": "_isPurchase",
          "type": "bool"
        }
      ],
      "name": "TradeVolatility",
      "type": "event"
    },
    {
      "inputs": [],
      "name": "DEFAULT_ADMIN_ROLE",
      "outputs": [
        {
          "internalType": "bytes32",
          "name": "",
          "type": "bytes32"
        }
      ],
      "stateMutability": "view",
      "type": "function",
      "constant": true
    },
    {
      "inputs": [],
      "name": "EXCHANGE",
      "outputs": [
        {
          "internalType": "bytes32",
          "name": "",
          "type": "bytes32"
        }
      ],
      "stateMutability": "view",
      "type": "function",
      "constant": true
    },
    {
      "inputs": [
        {
          "internalType": "bytes32",
          "name": "role",
          "type": "bytes32"
        }
      ],
      "name": "getRoleAdmin",
      "outputs": [
        {
          "internalType": "bytes32",
          "name": "",
          "type": "bytes32"
        }
      ],
      "stateMutability": "view",
      "type": "function",
      "constant": true
    },
    {
      "inputs": [
        {
          "internalType": "bytes32",
          "name": "role",
          "type": "bytes32"
        },
        {
          "internalType": "address",
          "name": "account",
          "type": "address"
        }
      ],
      "name": "grantRole",
      "outputs": [],
      "stateMutability": "nonpayable",
      "type": "function"
    },
    {
      "inputs": [
        {
          "internalType": "bytes32",
          "name": "role",
          "type": "bytes32"
        },
        {
          "internalType": "address",
          "name": "account",
          "type": "address"
        }
      ],
      "name": "hasRole",
      "outputs": [
        {
          "internalType": "bool",
          "name": "",
          "type": "bool"
        }
      ],
      "stateMutability": "view",
      "type": "function",
      "constant": true
    },
    {
      "inputs": [
        {
          "internalType": "address",
          "name": "",
          "type": "address"
        }
      ],
      "name": "mDeltaAtMax",
      "outputs": [
        {
          "internalType": "uint256",
          "name": "",
          "type": "uint256"
        }
      ],
      "stateMutability": "view",
      "type": "function",
      "constant": true
    },
    {
      "inputs": [
        {
          "internalType": "address",
          "name": "",
          "type": "address"
        }
      ],
      "name": "mDeltaAtZero",
      "outputs": [
        {
          "internalType": "uint256",
          "name": "",
          "type": "uint256"
        }
      ],
      "stateMutability": "view",
      "type": "function",
      "constant": true
    },
    {
      "inputs": [
        {
          "internalType": "address",
          "name": "",
          "type": "address"
        }
      ],
      "name": "mNetNotional",
      "outputs": [
        {
          "internalType": "int256",
          "name": "",
          "type": "int256"
        }
      ],
      "stateMutability": "view",
      "type": "function",
      "constant": true
    },
    {
      "inputs": [
        {
          "internalType": "address",
          "name": "",
          "type": "address"
        }
      ],
      "name": "mPutCollateral",
      "outputs": [
        {
          "internalType": "uint256",
          "name": "",
          "type": "uint256"
        }
      ],
      "stateMutability": "view",
      "type": "function",
      "constant": true
    },
    {
      "inputs": [
        {
          "internalType": "bytes32",
          "name": "role",
          "type": "bytes32"
        },
        {
          "internalType": "address",
          "name": "account",
          "type": "address"
        }
      ],
      "name": "renounceRole",
      "outputs": [],
      "stateMutability": "nonpayable",
      "type": "function"
    },
    {
      "inputs": [
        {
          "internalType": "bytes32",
          "name": "role",
          "type": "bytes32"
        },
        {
          "internalType": "address",
          "name": "account",
          "type": "address"
        }
      ],
      "name": "revokeRole",
      "outputs": [],
      "stateMutability": "nonpayable",
      "type": "function"
    },
    {
      "inputs": [
        {
          "internalType": "bytes4",
          "name": "interfaceId",
          "type": "bytes4"
        }
      ],
      "name": "supportsInterface",
      "outputs": [
        {
          "internalType": "bool",
          "name": "",
          "type": "bool"
        }
      ],
      "stateMutability": "view",
      "type": "function",
      "constant": true
    },
    {
      "inputs": [
        {
          "components": [
            {
              "internalType": "enum OptionLib.PayoffType",
              "name": "poType",
              "type": "uint8"
            },
            {
              "internalType": "enum OptionLib.OptionSide",
              "name": "side",
              "type": "uint8"
            },
            {
              "internalType": "enum OptionLib.OptionStatus",
              "name": "status",
              "type": "uint8"
            },
            {
              "internalType": "address",
              "name": "holder",
              "type": "address"
            },
            {
              "internalType": "uint256",
              "name": "id",
              "type": "uint256"
            },
            {
              "internalType": "uint256",
              "name": "createTime",
              "type": "uint256"
            },
            {
              "internalType": "uint256",
              "name": "effectiveTime",
              "type": "uint256"
            },
            {
              "internalType": "uint256",
              "name": "tenor",
              "type": "uint256"
            },
            {
              "internalType": "uint256",
              "name": "maturity",
              "type": "uint256"
            },
            {
              "internalType": "uint256",
              "name": "exerciseTime",
              "type": "uint256"
            },
            {
              "internalType": "uint256",
              "name": "amount",
              "type": "uint256"
            },
            {
              "internalType": "uint256",
              "name": "spot",
              "type": "uint256"
            },
            {
              "internalType": "uint256",
              "name": "strike",
              "type": "uint256"
            },
            {
              "internalType": "uint256",
              "name": "volatility",
              "type": "uint256"
            },
            {
              "internalType": "uint256",
              "name": "premium",
              "type": "uint256"
            },
            {
              "internalType": "uint256",
              "name": "cost",
              "type": "uint256"
            },
            {
              "internalType": "address",
              "name": "pool",
              "type": "address"
            }
          ],
          "internalType": "struct OptionLib.Option",
          "name": "_option",
          "type": "tuple"
        },
        {
          "internalType": "uint256",
          "name": "_premium",
          "type": "uint256"
        },
        {
          "internalType": "uint256",
          "name": "_collateral",
          "type": "uint256"
        },
        {
          "internalType": "uint256",
          "name": "_price",
          "type": "uint256"
        },
        {
          "internalType": "uint256",
          "name": "_vol",
          "type": "uint256"
        }
      ],
      "name": "addOption",
      "outputs": [
        {
          "internalType": "uint256",
          "name": "_id",
          "type": "uint256"
        }
      ],
      "stateMutability": "nonpayable",
      "type": "function"
    },
    {
      "inputs": [
        {
          "internalType": "uint256",
          "name": "_id",
          "type": "uint256"
        },
        {
          "internalType": "address",
          "name": "_holder",
          "type": "address"
        }
      ],
      "name": "stampActiveOption",
      "outputs": [],
      "stateMutability": "nonpayable",
      "type": "function"
    },
    {
      "inputs": [
        {
          "internalType": "uint256",
          "name": "_id",
          "type": "uint256"
        }
      ],
      "name": "stampExpiredOption",
      "outputs": [],
      "stateMutability": "nonpayable",
      "type": "function"
    },
    {
      "inputs": [
        {
          "internalType": "address",
          "name": "_pool",
          "type": "address"
        },
        {
          "internalType": "address",
          "name": "_address",
          "type": "address"
        }
      ],
      "name": "getHolderOptions",
      "outputs": [
        {
          "internalType": "uint256[]",
          "name": "",
          "type": "uint256[]"
        }
      ],
      "stateMutability": "view",
      "type": "function",
      "constant": true
    },
    {
      "inputs": [
        {
          "internalType": "uint256",
          "name": "_id",
          "type": "uint256"
        }
      ],
      "name": "getOption",
      "outputs": [
        {
          "components": [
            {
              "internalType": "enum OptionLib.PayoffType",
              "name": "poType",
              "type": "uint8"
            },
            {
              "internalType": "enum OptionLib.OptionSide",
              "name": "side",
              "type": "uint8"
            },
            {
              "internalType": "enum OptionLib.OptionStatus",
              "name": "status",
              "type": "uint8"
            },
            {
              "internalType": "address",
              "name": "holder",
              "type": "address"
            },
            {
              "internalType": "uint256",
              "name": "id",
              "type": "uint256"
            },
            {
              "internalType": "uint256",
              "name": "createTime",
              "type": "uint256"
            },
            {
              "internalType": "uint256",
              "name": "effectiveTime",
              "type": "uint256"
            },
            {
              "internalType": "uint256",
              "name": "tenor",
              "type": "uint256"
            },
            {
              "internalType": "uint256",
              "name": "maturity",
              "type": "uint256"
            },
            {
              "internalType": "uint256",
              "name": "exerciseTime",
              "type": "uint256"
            },
            {
              "internalType": "uint256",
              "name": "amount",
              "type": "uint256"
            },
            {
              "internalType": "uint256",
              "name": "spot",
              "type": "uint256"
            },
            {
              "internalType": "uint256",
              "name": "strike",
              "type": "uint256"
            },
            {
              "internalType": "uint256",
              "name": "volatility",
              "type": "uint256"
            },
            {
              "internalType": "uint256",
              "name": "premium",
              "type": "uint256"
            },
            {
              "internalType": "uint256",
              "name": "cost",
              "type": "uint256"
            },
            {
              "internalType": "address",
              "name": "pool",
              "type": "address"
            }
          ],
          "internalType": "struct OptionLib.Option",
          "name": "",
          "type": "tuple"
        }
      ],
      "stateMutability": "view",
      "type": "function",
      "constant": true
    },
    {
      "inputs": [
        {
          "internalType": "address",
          "name": "_poolAddress",
          "type": "address"
        }
      ],
      "name": "getActiveOptionCount",
      "outputs": [
        {
          "internalType": "uint256",
          "name": "",
          "type": "uint256"
        }
      ],
      "stateMutability": "view",
      "type": "function",
      "constant": true
    },
    {
      "inputs": [
        {
          "internalType": "uint256",
          "name": "_id",
          "type": "uint256"
        }
      ],
      "name": "getOptionInfo",
      "outputs": [
        {
          "internalType": "enum OptionLib.OptionStatus",
          "name": "",
          "type": "uint8"
        },
        {
          "internalType": "enum OptionLib.OptionSide",
          "name": "",
          "type": "uint8"
        },
        {
          "internalType": "address",
          "name": "",
          "type": "address"
        },
        {
          "internalType": "contract Pool",
          "name": "",
          "type": "address"
        }
      ],
      "stateMutability": "view",
      "type": "function",
      "constant": true
    },
    {
      "inputs": [
        {
          "internalType": "uint256",
          "name": "_id",
          "type": "uint256"
        }
      ],
      "name": "getContractPayoff",
      "outputs": [
        {
          "internalType": "uint256",
          "name": "_payoff",
          "type": "uint256"
        },
        {
          "internalType": "uint256",
          "name": "_payback",
          "type": "uint256"
        },
        {
          "internalType": "uint256",
          "name": "_collateral",
          "type": "uint256"
        }
      ],
      "stateMutability": "view",
      "type": "function",
      "constant": true
    },
    {
      "inputs": [
        {
          "internalType": "address",
          "name": "_poolAddress",
          "type": "address"
        }
      ],
      "name": "anyOptionExpiring",
      "outputs": [
        {
          "internalType": "bool",
          "name": "_isExpiring",
          "type": "bool"
        }
      ],
      "stateMutability": "view",
      "type": "function",
      "constant": true
    },
    {
      "inputs": [
        {
          "internalType": "address",
          "name": "_poolAddress",
          "type": "address"
        }
      ],
      "name": "getExpiringOptionId",
      "outputs": [
        {
          "internalType": "uint256",
          "name": "_id",
          "type": "uint256"
        }
      ],
      "stateMutability": "view",
      "type": "function",
      "constant": true
    },
    {
      "inputs": [
        {
          "internalType": "contract Pool",
          "name": "_pool",
          "type": "address"
        },
        {
          "internalType": "uint256",
          "name": "_tenor",
          "type": "uint256"
        },
        {
          "internalType": "uint256",
          "name": "_amount",
          "type": "uint256"
        },
        {
          "internalType": "enum OptionLib.PayoffType",
          "name": "_poType",
          "type": "uint8"
        },
        {
          "internalType": "enum OptionLib.OptionSide",
          "name": "_side",
          "type": "uint8"
        }
      ],
      "name": "tryATMOptionCost",
      "outputs": [
        {
          "internalType": "uint256",
          "name": "_premium",
          "type": "uint256"
        },
        {
          "internalType": "uint256",
          "name": "_collateral",
          "type": "uint256"
        },
        {
          "internalType": "uint256",
          "name": "_price",
          "type": "uint256"
        },
        {
          "internalType": "uint256",
          "name": "_volatilty",
          "type": "uint256"
        }
      ],
      "stateMutability": "view",
      "type": "function",
      "constant": true
    },
    {
      "inputs": [
        {
          "components": [
            {
              "internalType": "enum OptionLib.PayoffType",
              "name": "poType",
              "type": "uint8"
            },
            {
              "internalType": "enum OptionLib.OptionSide",
              "name": "side",
              "type": "uint8"
            },
            {
              "internalType": "enum OptionLib.OptionStatus",
              "name": "status",
              "type": "uint8"
            },
            {
              "internalType": "address",
              "name": "holder",
              "type": "address"
            },
            {
              "internalType": "uint256",
              "name": "id",
              "type": "uint256"
            },
            {
              "internalType": "uint256",
              "name": "createTime",
              "type": "uint256"
            },
            {
              "internalType": "uint256",
              "name": "effectiveTime",
              "type": "uint256"
            },
            {
              "internalType": "uint256",
              "name": "tenor",
              "type": "uint256"
            },
            {
              "internalType": "uint256",
              "name": "maturity",
              "type": "uint256"
            },
            {
              "internalType": "uint256",
              "name": "exerciseTime",
              "type": "uint256"
            },
            {
              "internalType": "uint256",
              "name": "amount",
              "type": "uint256"
            },
            {
              "internalType": "uint256",
              "name": "spot",
              "type": "uint256"
            },
            {
              "internalType": "uint256",
              "name": "strike",
              "type": "uint256"
            },
            {
              "internalType": "uint256",
              "name": "volatility",
              "type": "uint256"
            },
            {
              "internalType": "uint256",
              "name": "premium",
              "type": "uint256"
            },
            {
              "internalType": "uint256",
              "name": "cost",
              "type": "uint256"
            },
            {
              "internalType": "address",
              "name": "pool",
              "type": "address"
            }
          ],
          "internalType": "struct OptionLib.Option",
          "name": "_option",
          "type": "tuple"
        },
        {
          "internalType": "bool",
          "name": "_forceATM",
          "type": "bool"
        }
      ],
      "name": "calcOptionCost",
      "outputs": [
        {
          "internalType": "uint256",
          "name": "_premium",
          "type": "uint256"
        },
        {
          "internalType": "uint256",
          "name": "_collateral",
          "type": "uint256"
        },
        {
          "internalType": "uint256",
          "name": "_price",
          "type": "uint256"
        },
        {
          "internalType": "uint256",
          "name": "_annualisedVol",
          "type": "uint256"
        }
      ],
      "stateMutability": "view",
      "type": "function",
      "constant": true
    },
    {
      "inputs": [
        {
          "internalType": "contract MarketMaker",
          "name": "_market",
          "type": "address"
        },
        {
          "internalType": "uint256",
          "name": "_tenor",
          "type": "uint256"
        },
        {
          "internalType": "uint256",
          "name": "_volCapacityFactor",
          "type": "uint256"
        },
        {
          "internalType": "int256",
          "name": "_currentNetNotional",
          "type": "int256"
        },
        {
          "internalType": "int256",
          "name": "_newNetNotional",
          "type": "int256"
        }
      ],
      "name": "calcImpliedVol",
      "outputs": [
        {
          "internalType": "uint256",
          "name": "_price",
          "type": "uint256"
        },
        {
          "internalType": "uint256",
          "name": "_impVol",
          "type": "uint256"
        },
        {
          "internalType": "uint256",
          "name": "_annualisedVol",
          "type": "uint256"
        }
      ],
      "stateMutability": "view",
      "type": "function",
      "constant": true
    },
    {
      "inputs": [
        {
          "internalType": "contract Pool",
          "name": "_pool",
          "type": "address"
        },
        {
          "internalType": "bool",
          "name": "_net",
          "type": "bool"
        },
        {
          "internalType": "bool",
          "name": "_average",
          "type": "bool"
        }
      ],
      "name": "calcCapital",
      "outputs": [
        {
          "internalType": "uint256",
          "name": "",
          "type": "uint256"
        }
      ],
      "stateMutability": "view",
      "type": "function",
      "constant": true
    }
  ],
  "bytecode": "0x60806040523480156200001157600080fd5b50620000276000801b336200002d60201b60201c565b620001a6565b6200003f82826200004360201b60201c565b5050565b6200005582826200013460201b60201c565b6200013057600160008084815260200190815260200160002060000160008373ffffffffffffffffffffffffffffffffffffffff1673ffffffffffffffffffffffffffffffffffffffff16815260200190815260200160002060006101000a81548160ff021916908315150217905550620000d56200019e60201b60201c565b73ffffffffffffffffffffffffffffffffffffffff168173ffffffffffffffffffffffffffffffffffffffff16837f2f8788117e7eff1d82e926ec794901d17c78024a50270940304540a733656f0d60405160405180910390a45b5050565b600080600084815260200190815260200160002060000160008373ffffffffffffffffffffffffffffffffffffffff1673ffffffffffffffffffffffffffffffffffffffff16815260200190815260200160002060009054906101000a900460ff16905092915050565b600033905090565b61502080620001b66000396000f3fe608060405234801561001057600080fd5b506004361061018e5760003560e01c806365c22c5f116100de5780639bafc25411610097578063b50e44b811610071578063b50e44b81461055b578063b9f10b6614610579578063d547741f146105a9578063fc9d80e0146105c55761018e565b80639bafc254146104dd5780639f2b958c1461050d578063a217fddf1461053d5761018e565b806365c22c5f146103bb5780636a347c40146103eb5780637be795e01461041b578063844a7c9a1461044b57806385ae10e61461047b57806391d14854146104ad5761018e565b8063255242171161014b5780633a328e29116101255780633a328e291461030c5780634bf728b21461033c5780635c273c2f1461036f578063637baf601461039f5761018e565b806325524217146102a25780632f2ff15d146102d457806336568abe146102f05761018e565b806301ffc9a714610193578063132a0f1b146101c35780631ce5e9a6146101f35780632360e81714610223578063248a9ca31461025657806324b4110e14610286575b600080fd5b6101ad60048036038101906101a891906135d9565b6105f8565b6040516101ba9190613621565b60405180910390f35b6101dd60048036038101906101d8919061369a565b610672565b6040516101ea91906136e0565b60405180910390f35b61020d60048036038101906102089190613727565b6106c2565b60405161021a91906139d8565b60405180910390f35b61023d60048036038101906102389190613cb0565b6108d4565b60405161024d9493929190613cf2565b60405180910390f35b610270600480360381019061026b9190613d6d565b610c78565b60405161027d9190613da9565b60405180910390f35b6102a0600480360381019061029b9190613dc4565b610c97565b005b6102bc60048036038101906102b79190613e78565b611182565b6040516102cb93929190613ef3565b60405180910390f35b6102ee60048036038101906102e99190613f2a565b6114e1565b005b61030a60048036038101906103059190613f2a565b611502565b005b6103266004803603810190610321919061369a565b611585565b60405161033391906136e0565b60405180910390f35b61035660048036038101906103519190613fa8565b6116f5565b6040516103669493929190613cf2565b60405180910390f35b61038960048036038101906103849190614023565b6117fb565b60405161039691906136e0565b60405180910390f35b6103b960048036038101906103b49190613727565b611c80565b005b6103d560048036038101906103d0919061369a565b612254565b6040516103e291906136e0565b60405180910390f35b6104056004803603810190610400919061369a565b61226c565b60405161041291906136e0565b60405180910390f35b61043560048036038101906104309190614076565b612284565b6040516104429190614165565b60405180910390f35b6104656004803603810190610460919061369a565b612312565b6040516104729190614196565b60405180910390f35b61049560048036038101906104909190613727565b61232a565b6040516104a493929190613ef3565b60405180910390f35b6104c760048036038101906104c29190613f2a565b612573565b6040516104d49190613621565b60405180910390f35b6104f760048036038101906104f2919061369a565b6125dd565b60405161050491906136e0565b60405180910390f35b6105276004803603810190610522919061369a565b6125f5565b6040516105349190613621565b60405180910390f35b61054561275f565b6040516105529190613da9565b60405180910390f35b610563612766565b6040516105709190613da9565b60405180910390f35b610593600480360381019061058e91906141b1565b61278a565b6040516105a091906136e0565b60405180910390f35b6105c360048036038101906105be9190613f2a565b612ad0565b005b6105df60048036038101906105da9190613727565b612af1565b6040516105ef94939291906142bd565b60405180910390f35b60007f7965db0b000000000000000000000000000000000000000000000000000000007bffffffffffffffffffffffffffffffffffffffffffffffffffffffff1916827bffffffffffffffffffffffffffffffffffffffffffffffffffffffff1916148061066b575061066a82612c09565b5b9050919050565b60006106bb600360008473ffffffffffffffffffffffffffffffffffffffff1673ffffffffffffffffffffffffffffffffffffffff168152602001908152602001600020612c73565b9050919050565b6106ca61348c565b600182815481106106de576106dd614302565b5b90600052602060002090600e0201604051806102200160405290816000820160009054906101000a900460ff16600181111561071d5761071c613754565b5b600181111561072f5761072e613754565b5b81526020016000820160019054906101000a900460ff16600181111561075857610757613754565b5b600181111561076a57610769613754565b5b81526020016000820160029054906101000a900460ff16600381111561079357610792613754565b5b60038111156107a5576107a4613754565b5b81526020016000820160039054906101000a900473ffffffffffffffffffffffffffffffffffffffff1673ffffffffffffffffffffffffffffffffffffffff1673ffffffffffffffffffffffffffffffffffffffff168152602001600182015481526020016002820154815260200160038201548152602001600482015481526020016005820154815260200160068201548152602001600782015481526020016008820154815260200160098201548152602001600a8201548152602001600b8201548152602001600c8201548152602001600d820160009054906101000a900473ffffffffffffffffffffffffffffffffffffffff1673ffffffffffffffffffffffffffffffffffffffff1673ffffffffffffffffffffffffffffffffffffffff16815250509050919050565b6000806000806000866102000151905060008173ffffffffffffffffffffffffffffffffffffffff16631f21f9af6040518163ffffffff1660e01b8152600401602060405180830381865afa158015610931573d6000803e3d6000fd5b505050506040513d601f19601f820116820180604052508101906109559190614346565b9050600060018081111561096c5761096b613754565b5b8960200151600181111561098357610982613754565b5b1461098f5760016109b1565b7fffffffffffffffffffffffffffffffffffffffffffffffffffffffffffffffff5b6109bf8a6101400151612c88565b6109c991906143a2565b600460008b610200015173ffffffffffffffffffffffffffffffffffffffff1673ffffffffffffffffffffffffffffffffffffffff16815260200190815260200160002054610a1891906144b9565b90506000610adf838b60e001518673ffffffffffffffffffffffffffffffffffffffff16630f9026186040518163ffffffff1660e01b8152600401602060405180830381865afa158015610a70573d6000803e3d6000fd5b505050506040513d601f19601f82011682018060405250810190610a949190614562565b600460008f610200015173ffffffffffffffffffffffffffffffffffffffff1673ffffffffffffffffffffffffffffffffffffffff1681526020019081526020016000205486611182565b8097508193508298505050508815610afd57858a6101800181815250505b8973__OptionLib_____________________________638399d60c909188848773ffffffffffffffffffffffffffffffffffffffff1663a7292ea46040518163ffffffff1660e01b8152600401602060405180830381865afa158015610b67573d6000803e3d6000fd5b505050506040513d601f19601f82011682018060405250810190610b8b9190614562565b6040518563ffffffff1660e01b8152600401610baa9493929190614748565b602060405180830381865af4158015610bc7573d6000803e3d6000fd5b505050506040513d601f19601f82011682018060405250810190610beb9190614562565b97508973__OptionLib_____________________________63efa572899091886040518363ffffffff1660e01b8152600401610c28929190614791565b602060405180830381865af4158015610c45573d6000803e3d6000fd5b505050506040513d601f19601f82011682018060405250810190610c699190614562565b96505050505092959194509250565b6000806000838152602001908152602001600020600101549050919050565b7f10b261d3bc7a74f38949f9212b0336103474898eda034c06ae0a3e478dc0e4a5610cc181612cf5565b600060018481548110610cd757610cd6614302565b5b90600052602060002090600e02019050428160030181905550806004015442610d0091906147bc565b816005018190555060018160000160026101000a81548160ff02191690836003811115610d3057610d2f613754565b5b0217905550600081600d0160009054906101000a900473ffffffffffffffffffffffffffffffffffffffff1690508173__OptionLib_____________________________63bf38721c90916040518263ffffffff1660e01b8152600401610d979190614819565b602060405180830381865af4158015610db4573d6000803e3d6000fd5b505050506040513d601f19601f82011682018060405250810190610dd89190614849565b600460008373ffffffffffffffffffffffffffffffffffffffff1673ffffffffffffffffffffffffffffffffffffffff1681526020019081526020016000206000828254610e2691906144b9565b925050819055508173__OptionLib_____________________________631b4fb86990916040518263ffffffff1660e01b8152600401610e669190614819565b602060405180830381865af4158015610e83573d6000803e3d6000fd5b505050506040513d601f19601f82011682018060405250810190610ea79190614562565b600560008373ffffffffffffffffffffffffffffffffffffffff1673ffffffffffffffffffffffffffffffffffffffff1681526020019081526020016000206000828254610ef591906147bc565b925050819055508173__OptionLib_____________________________632e5cf0a790916040518263ffffffff1660e01b8152600401610f359190614819565b602060405180830381865af4158015610f52573d6000803e3d6000fd5b505050506040513d601f19601f82011682018060405250810190610f769190614562565b600660008373ffffffffffffffffffffffffffffffffffffffff1673ffffffffffffffffffffffffffffffffffffffff1681526020019081526020016000206000828254610fc491906147bc565b925050819055508173__OptionLib_____________________________6304a65c3e90916040518263ffffffff1660e01b81526004016110049190614819565b602060405180830381865af4158015611021573d6000803e3d6000fd5b505050506040513d601f19601f820116820180604052508101906110459190614562565b600760008373ffffffffffffffffffffffffffffffffffffffff1673ffffffffffffffffffffffffffffffffffffffff168152602001908152602001600020600082825461109391906147bc565b9250508190555061112885600260008473ffffffffffffffffffffffffffffffffffffffff1673ffffffffffffffffffffffffffffffffffffffff16815260200190815260200160002060008773ffffffffffffffffffffffffffffffffffffffff1673ffffffffffffffffffffffffffffffffffffffff168152602001908152602001600020612d0990919063ffffffff16565b5061117a85600360008473ffffffffffffffffffffffffffffffffffffffff1673ffffffffffffffffffffffffffffffffffffffff168152602001908152602001600020612d0990919063ffffffff16565b505050505050565b6000806000808873ffffffffffffffffffffffffffffffffffffffff1663c0a16f6a6040518163ffffffff1660e01b8152600401602060405180830381865afa1580156111d3573d6000803e3d6000fd5b505050506040513d601f19601f820116820180604052508101906111f791906148b4565b90508073ffffffffffffffffffffffffffffffffffffffff1663b0667cf86040518163ffffffff1660e01b8152600401602060405180830381865afa158015611244573d6000803e3d6000fd5b505050506040513d601f19601f820116820180604052508101906112689190614562565b935073__MarketLib_____________________________637bc7ed7873__MarketLib_____________________________63e74207d68c886040518363ffffffff1660e01b81526004016112bd929190614902565b602060405180830381865af41580156112da573d6000803e3d6000fd5b505050506040513d601f19601f820116820180604052508101906112fe9190614562565b88888573ffffffffffffffffffffffffffffffffffffffff1663cfc2dc208e6040518263ffffffff1660e01b815260040161133991906136e0565b602060405180830381865afa158015611356573d6000803e3d6000fd5b505050506040513d601f19601f8201168201806040525081019061137a9190614562565b8c6040518663ffffffff1660e01b815260040161139b95949392919061493a565b602060405180830381865af41580156113b8573d6000803e3d6000fd5b505050506040513d601f19601f820116820180604052508101906113dc9190614562565b92508273__MathLib_______________________________63fed4a0f390918373ffffffffffffffffffffffffffffffffffffffff1663430417f78c6040518263ffffffff1660e01b815260040161143491906136e0565b602060405180830381865afa158015611451573d6000803e3d6000fd5b505050506040513d601f19601f820116820180604052508101906114759190614562565b6040518363ffffffff1660e01b815260040161149292919061498d565b602060405180830381865af41580156114af573d6000803e3d6000fd5b505050506040513d601f19601f820116820180604052508101906114d39190614562565b915050955095509592505050565b6114ea82610c78565b6114f381612cf5565b6114fd8383612d23565b505050565b61150a612e03565b73ffffffffffffffffffffffffffffffffffffffff168173ffffffffffffffffffffffffffffffffffffffff1614611577576040517f08c379a000000000000000000000000000000000000000000000000000000000815260040161156e90614a39565b60405180910390fd5b6115818282612e0b565b5050565b6000806115cf600360008573ffffffffffffffffffffffffffffffffffffffff1673ffffffffffffffffffffffffffffffffffffffff168152602001908152602001600020612c73565b905060005b818110156116ee57600061162f82600360008873ffffffffffffffffffffffffffffffffffffffff1673ffffffffffffffffffffffffffffffffffffffff168152602001908152602001600020612eec90919063ffffffff16565b90506001818154811061164557611644614302565b5b90600052602060002090600e020173__OptionLib_____________________________63febf205490916040518263ffffffff1660e01b815260040161168b9190614819565b602060405180830381865af41580156116a8573d6000803e3d6000fd5b505050506040513d601f19601f820116820180604052508101906116cc9190614a6e565b156116da57809350506116ee565b5080806116e690614a9b565b9150506115d4565b5050919050565b600080600080600060405180610220016040528088600181111561171c5761171b613754565b5b815260200187600181111561173457611733613754565b5b81526020016000600381111561174d5761174c613754565b5b81526020013373ffffffffffffffffffffffffffffffffffffffff16815260200160008152602001428152602001600081526020018a8152602001600081526020016000815260200189815260200160008152602001600081526020016000815260200160008152602001600081526020018b73ffffffffffffffffffffffffffffffffffffffff1681525090506117e68160016108d4565b94509450945094505095509550955095915050565b6000808473ffffffffffffffffffffffffffffffffffffffff16631f21f9af6040518163ffffffff1660e01b8152600401602060405180830381865afa158015611849573d6000803e3d6000fd5b505050506040513d601f19601f8201168201806040525081019061186d9190614346565b905060008173ffffffffffffffffffffffffffffffffffffffff1663c0a16f6a6040518163ffffffff1660e01b8152600401602060405180830381865afa1580156118bc573d6000803e3d6000fd5b505050506040513d601f19601f820116820180604052508101906118e091906148b4565b905060008173ffffffffffffffffffffffffffffffffffffffff1663b0667cf86040518163ffffffff1660e01b8152600401602060405180830381865afa15801561192f573d6000803e3d6000fd5b505050506040513d601f19601f820116820180604052508101906119539190614562565b9050600073__MarketLib_____________________________63e74207d685846040518363ffffffff1660e01b8152600401611990929190614902565b602060405180830381865af41580156119ad573d6000803e3d6000fd5b505050506040513d601f19601f820116820180604052508101906119d19190614562565b905060008890508715611b48576000611a68600660008473ffffffffffffffffffffffffffffffffffffffff1673ffffffffffffffffffffffffffffffffffffffff16815260200190815260200160002054600760008573ffffffffffffffffffffffffffffffffffffffff1673ffffffffffffffffffffffffffffffffffffffff16815260200190815260200160002054612f06565b73__MathLib_______________________________63fed4a0f39091866040518363ffffffff1660e01b8152600401611aa292919061498d565b602060405180830381865af4158015611abf573d6000803e3d6000fd5b505050506040513d601f19601f82011682018060405250810190611ae39190614562565b9050611b39600560008473ffffffffffffffffffffffffffffffffffffffff1673ffffffffffffffffffffffffffffffffffffffff1681526020019081526020016000205482611b3391906147bc565b84612f20565b83611b449190614ae3565b9250505b8615611c715760008973ffffffffffffffffffffffffffffffffffffffff166318160ddd6040518163ffffffff1660e01b8152600401602060405180830381865afa158015611b9b573d6000803e3d6000fd5b505050506040513d601f19601f82011682018060405250810190611bbf9190614562565b90506000811115611c4d578273__MathLib_______________________________63de7f61709091836040518363ffffffff1660e01b8152600401611c0592919061498d565b602060405180830381865af4158015611c22573d6000803e3d6000fd5b505050506040513d601f19601f82011682018060405250810190611c469190614562565b9250611c6f565b600081148015611c5d5750600083145b15611c6e57670de0b6b3a764000092505b5b505b81955050505050509392505050565b7f10b261d3bc7a74f38949f9212b0336103474898eda034c06ae0a3e478dc0e4a5611caa81612cf5565b600060018381548110611cc057611cbf614302565b5b90600052602060002090600e02019050600081600d0160009054906101000a900473ffffffffffffffffffffffffffffffffffffffff16905060008260000160039054906101000a900473ffffffffffffffffffffffffffffffffffffffff169050611d7385600360008573ffffffffffffffffffffffffffffffffffffffff1673ffffffffffffffffffffffffffffffffffffffff168152602001908152602001600020612f3990919063ffffffff16565b50611e0285600260008573ffffffffffffffffffffffffffffffffffffffff1673ffffffffffffffffffffffffffffffffffffffff16815260200190815260200160002060008473ffffffffffffffffffffffffffffffffffffffff1673ffffffffffffffffffffffffffffffffffffffff168152602001908152602001600020612f3990919063ffffffff16565b508273__OptionLib_____________________________63bf38721c90916040518263ffffffff1660e01b8152600401611e3c9190614819565b602060405180830381865af4158015611e59573d6000803e3d6000fd5b505050506040513d601f19601f82011682018060405250810190611e7d9190614849565b600460008473ffffffffffffffffffffffffffffffffffffffff1673ffffffffffffffffffffffffffffffffffffffff1681526020019081526020016000206000828254611ecb9190614b17565b92505081905550611f94600660008473ffffffffffffffffffffffffffffffffffffffff1673ffffffffffffffffffffffffffffffffffffffff168152602001908152602001600020548473__OptionLib_____________________________632e5cf0a790916040518263ffffffff1660e01b8152600401611f4e9190614819565b602060405180830381865af4158015611f6b573d6000803e3d6000fd5b505050506040513d601f19601f82011682018060405250810190611f8f9190614562565b612f20565b600660008473ffffffffffffffffffffffffffffffffffffffff1673ffffffffffffffffffffffffffffffffffffffff1681526020019081526020016000206000828254611fe29190614ae3565b925050819055506120ab600760008473ffffffffffffffffffffffffffffffffffffffff1673ffffffffffffffffffffffffffffffffffffffff168152602001908152602001600020548473__OptionLib_____________________________6304a65c3e90916040518263ffffffff1660e01b81526004016120659190614819565b602060405180830381865af4158015612082573d6000803e3d6000fd5b505050506040513d601f19601f820116820180604052508101906120a69190614562565b612f20565b600760008473ffffffffffffffffffffffffffffffffffffffff1673ffffffffffffffffffffffffffffffffffffffff16815260200190815260200160002060008282546120f99190614ae3565b925050819055506121c2600560008473ffffffffffffffffffffffffffffffffffffffff1673ffffffffffffffffffffffffffffffffffffffff168152602001908152602001600020548473__OptionLib_____________________________631b4fb86990916040518263ffffffff1660e01b815260040161217c9190614819565b602060405180830381865af4158015612199573d6000803e3d6000fd5b505050506040513d601f19601f820116820180604052508101906121bd9190614562565b612f20565b600560008473ffffffffffffffffffffffffffffffffffffffff1673ffffffffffffffffffffffffffffffffffffffff16815260200190815260200160002060008282546122109190614ae3565b9250508190555060038360000160026101000a81548160ff0219169083600381111561223f5761223e613754565b5b02179055504283600601819055505050505050565b60076020528060005260406000206000915090505481565b60066020528060005260406000206000915090505481565b606061230a600260008573ffffffffffffffffffffffffffffffffffffffff1673ffffffffffffffffffffffffffffffffffffffff16815260200190815260200160002060008473ffffffffffffffffffffffffffffffffffffffff1673ffffffffffffffffffffffffffffffffffffffff168152602001908152602001600020612f53565b905092915050565b60046020528060005260406000206000915090505481565b6000806000806001858154811061234457612343614302565b5b90600052602060002090600e0201600d0160009054906101000a900473ffffffffffffffffffffffffffffffffffffffff16905060008173ffffffffffffffffffffffffffffffffffffffff16631f21f9af6040518163ffffffff1660e01b8152600401602060405180830381865afa1580156123c5573d6000803e3d6000fd5b505050506040513d601f19601f820116820180604052508101906123e99190614346565b73ffffffffffffffffffffffffffffffffffffffff1663c0a16f6a6040518163ffffffff1660e01b8152600401602060405180830381865afa158015612433573d6000803e3d6000fd5b505050506040513d601f19601f8201168201806040525081019061245791906148b4565b90506001868154811061246d5761246c614302565b5b90600052602060002090600e020173__OptionLib_____________________________63357aa1df90918373ffffffffffffffffffffffffffffffffffffffff1663b0667cf86040518163ffffffff1660e01b8152600401602060405180830381865afa1580156124e2573d6000803e3d6000fd5b505050506040513d601f19601f820116820180604052508101906125069190614562565b6040518363ffffffff1660e01b8152600401612523929190614bab565b606060405180830381865af4158015612540573d6000803e3d6000fd5b505050506040513d601f19601f820116820180604052508101906125649190614bd4565b94509450945050509193909250565b600080600084815260200190815260200160002060000160008373ffffffffffffffffffffffffffffffffffffffff1673ffffffffffffffffffffffffffffffffffffffff16815260200190815260200160002060009054906101000a900460ff16905092915050565b60056020528060005260406000206000915090505481565b60008061263f600360008573ffffffffffffffffffffffffffffffffffffffff1673ffffffffffffffffffffffffffffffffffffffff168152602001908152602001600020612c73565b905060005b8181101561275857600161269f82600360008873ffffffffffffffffffffffffffffffffffffffff1673ffffffffffffffffffffffffffffffffffffffff168152602001908152602001600020612eec90919063ffffffff16565b815481106126b0576126af614302565b5b90600052602060002090600e020173__OptionLib_____________________________63febf205490916040518263ffffffff1660e01b81526004016126f69190614819565b602060405180830381865af4158015612713573d6000803e3d6000fd5b505050506040513d601f19601f820116820180604052508101906127379190614a6e565b156127455760019250612758565b808061275090614a9b565b915050612644565b5050919050565b6000801b81565b7f10b261d3bc7a74f38949f9212b0336103474898eda034c06ae0a3e478dc0e4a581565b60007f10b261d3bc7a74f38949f9212b0336103474898eda034c06ae0a3e478dc0e4a56127b681612cf5565b60008760e00151116127fd576040517f08c379a00000000000000000000000000000000000000000000000000000000081526004016127f490614c73565b60405180910390fd5b600180549050915060016040518061022001604052808960000151600181111561282a57612829613754565b5b81526020018960200151600181111561284657612845613754565b5b81526020016000600381111561285f5761285e613754565b5b8152602001896060015173ffffffffffffffffffffffffffffffffffffffff168152602001848152602001428152602001600081526020018960e00151815260200160008152602001600081526020018961014001518152602001868152602001896101800151815260200185815260200188815260200187815260200189610200015173ffffffffffffffffffffffffffffffffffffffff1681525090806001815401808255809150506001900390600052602060002090600e020160009091909190915060008201518160000160006101000a81548160ff021916908360018111156129505761294f613754565b5b021790555060208201518160000160016101000a81548160ff021916908360018111156129805761297f613754565b5b021790555060408201518160000160026101000a81548160ff021916908360038111156129b0576129af613754565b5b021790555060608201518160000160036101000a81548173ffffffffffffffffffffffffffffffffffffffff021916908373ffffffffffffffffffffffffffffffffffffffff1602179055506080820151816001015560a0820151816002015560c0820151816003015560e08201518160040155610100820151816005015561012082015181600601556101408201518160070155610160820151816008015561018082015181600901556101a082015181600a01556101c082015181600b01556101e082015181600c015561020082015181600d0160006101000a81548173ffffffffffffffffffffffffffffffffffffffff021916908373ffffffffffffffffffffffffffffffffffffffff16021790555050505095945050505050565b612ad982610c78565b612ae281612cf5565b612aec8383612e0b565b505050565b6000806000806001805490508510612b0857600080fd5b60018581548110612b1c57612b1b614302565b5b90600052602060002090600e020160000160029054906101000a900460ff1660018681548110612b4f57612b4e614302565b5b90600052602060002090600e020160000160019054906101000a900460ff1660018781548110612b8257612b81614302565b5b90600052602060002090600e020160000160039054906101000a900473ffffffffffffffffffffffffffffffffffffffff1660018881548110612bc857612bc7614302565b5b90600052602060002090600e0201600d0160009054906101000a900473ffffffffffffffffffffffffffffffffffffffff1693509350935093509193509193565b60007f01ffc9a7000000000000000000000000000000000000000000000000000000007bffffffffffffffffffffffffffffffffffffffffffffffffffffffff1916827bffffffffffffffffffffffffffffffffffffffffffffffffffffffff1916149050919050565b6000612c8182600001612f74565b9050919050565b60007f7fffffffffffffffffffffffffffffffffffffffffffffffffffffffffffffff821115612ced576040517f08c379a0000000000000000000000000000000000000000000000000000000008152600401612ce490614d05565b60405180910390fd5b819050919050565b612d0681612d01612e03565b612f85565b50565b6000612d1b836000018360001b613022565b905092915050565b612d2d8282612573565b612dff57600160008084815260200190815260200160002060000160008373ffffffffffffffffffffffffffffffffffffffff1673ffffffffffffffffffffffffffffffffffffffff16815260200190815260200160002060006101000a81548160ff021916908315150217905550612da4612e03565b73ffffffffffffffffffffffffffffffffffffffff168173ffffffffffffffffffffffffffffffffffffffff16837f2f8788117e7eff1d82e926ec794901d17c78024a50270940304540a733656f0d60405160405180910390a45b5050565b600033905090565b612e158282612573565b15612ee857600080600084815260200190815260200160002060000160008373ffffffffffffffffffffffffffffffffffffffff1673ffffffffffffffffffffffffffffffffffffffff16815260200190815260200160002060006101000a81548160ff021916908315150217905550612e8d612e03565b73ffffffffffffffffffffffffffffffffffffffff168173ffffffffffffffffffffffffffffffffffffffff16837ff6391f5c32d9c69d2a47ea670b442974b53935d1edc7fd64eb21e047a839171b60405160405180910390a45b5050565b6000612efb8360000183613092565b60001c905092915050565b600081831015612f165781612f18565b825b905092915050565b6000818310612f2f5781612f31565b825b905092915050565b6000612f4b836000018360001b6130bd565b905092915050565b60606000612f63836000016131d1565b905060608190508092505050919050565b600081600001805490509050919050565b612f8f8282612573565b61301e57612fb48173ffffffffffffffffffffffffffffffffffffffff16601461322d565b612fc28360001c602061322d565b604051602001612fd3929190614e37565b6040516020818303038152906040526040517f08c379a00000000000000000000000000000000000000000000000000000000081526004016130159190614eaa565b60405180910390fd5b5050565b600061302e8383613469565b61308757826000018290806001815401808255809150506001900390600052602060002001600090919091909150558260000180549050836001016000848152602001908152602001600020819055506001905061308c565b600090505b92915050565b60008260000182815481106130aa576130a9614302565b5b9060005260206000200154905092915050565b600080836001016000848152602001908152602001600020549050600081146131c55760006001826130ef9190614ae3565b90506000600186600001805490506131079190614ae3565b905081811461317657600086600001828154811061312857613127614302565b5b906000526020600020015490508087600001848154811061314c5761314b614302565b5b90600052602060002001819055508387600101600083815260200190815260200160002081905550505b8560000180548061318a57613189614ecc565b5b6001900381819060005260206000200160009055905585600101600086815260200190815260200160002060009055600193505050506131cb565b60009150505b92915050565b60608160000180548060200260200160405190810160405280929190818152602001828054801561322157602002820191906000526020600020905b81548152602001906001019080831161320d575b50505050509050919050565b6060600060028360026132409190614efb565b61324a91906147bc565b67ffffffffffffffff81111561326357613262613a0a565b5b6040519080825280601f01601f1916602001820160405280156132955781602001600182028036833780820191505090505b5090507f3000000000000000000000000000000000000000000000000000000000000000816000815181106132cd576132cc614302565b5b60200101907effffffffffffffffffffffffffffffffffffffffffffffffffffffffffffff1916908160001a9053507f78000000000000000000000000000000000000000000000000000000000000008160018151811061333157613330614302565b5b60200101907effffffffffffffffffffffffffffffffffffffffffffffffffffffffffffff1916908160001a905350600060018460026133719190614efb565b61337b91906147bc565b90505b600181111561341b577f3031323334353637383961626364656600000000000000000000000000000000600f8616601081106133bd576133bc614302565b5b1a60f81b8282815181106133d4576133d3614302565b5b60200101907effffffffffffffffffffffffffffffffffffffffffffffffffffffffffffff1916908160001a905350600485901c94508061341490614f55565b905061337e565b506000841461345f576040517f08c379a000000000000000000000000000000000000000000000000000000000815260040161345690614fca565b60405180910390fd5b8091505092915050565b600080836001016000848152602001908152602001600020541415905092915050565b604051806102200160405280600060018111156134ac576134ab613754565b5b8152602001600060018111156134c5576134c4613754565b5b8152602001600060038111156134de576134dd613754565b5b8152602001600073ffffffffffffffffffffffffffffffffffffffff168152602001600081526020016000815260200160008152602001600081526020016000815260200160008152602001600081526020016000815260200160008152602001600081526020016000815260200160008152602001600073ffffffffffffffffffffffffffffffffffffffff1681525090565b6000604051905090565b600080fd5b60007fffffffff0000000000000000000000000000000000000000000000000000000082169050919050565b6135b681613581565b81146135c157600080fd5b50565b6000813590506135d3816135ad565b92915050565b6000602082840312156135ef576135ee61357c565b5b60006135fd848285016135c4565b91505092915050565b60008115159050919050565b61361b81613606565b82525050565b60006020820190506136366000830184613612565b92915050565b600073ffffffffffffffffffffffffffffffffffffffff82169050919050565b60006136678261363c565b9050919050565b6136778161365c565b811461368257600080fd5b50565b6000813590506136948161366e565b92915050565b6000602082840312156136b0576136af61357c565b5b60006136be84828501613685565b91505092915050565b6000819050919050565b6136da816136c7565b82525050565b60006020820190506136f560008301846136d1565b92915050565b613704816136c7565b811461370f57600080fd5b50565b600081359050613721816136fb565b92915050565b60006020828403121561373d5761373c61357c565b5b600061374b84828501613712565b91505092915050565b7f4e487b7100000000000000000000000000000000000000000000000000000000600052602160045260246000fd5b6002811061379457613793613754565b5b50565b60008190506137a582613783565b919050565b60006137b582613797565b9050919050565b6137c5816137aa565b82525050565b600281106137dc576137db613754565b5b50565b60008190506137ed826137cb565b919050565b60006137fd826137df565b9050919050565b61380d816137f2565b82525050565b6004811061382457613823613754565b5b50565b600081905061383582613813565b919050565b600061384582613827565b9050919050565b6138558161383a565b82525050565b6138648161365c565b82525050565b613873816136c7565b82525050565b6102208201600082015161389060008501826137bc565b5060208201516138a36020850182613804565b5060408201516138b6604085018261384c565b5060608201516138c9606085018261385b565b5060808201516138dc608085018261386a565b5060a08201516138ef60a085018261386a565b5060c082015161390260c085018261386a565b5060e082015161391560e085018261386a565b5061010082015161392a61010085018261386a565b5061012082015161393f61012085018261386a565b5061014082015161395461014085018261386a565b5061016082015161396961016085018261386a565b5061018082015161397e61018085018261386a565b506101a08201516139936101a085018261386a565b506101c08201516139a86101c085018261386a565b506101e08201516139bd6101e085018261386a565b506102008201516139d261020085018261385b565b50505050565b6000610220820190506139ee6000830184613879565b92915050565b600080fd5b6000601f19601f8301169050919050565b7f4e487b7100000000000000000000000000000000000000000000000000000000600052604160045260246000fd5b613a42826139f9565b810181811067ffffffffffffffff82111715613a6157613a60613a0a565b5b80604052505050565b6000613a74613572565b9050613a808282613a39565b919050565b60028110613a9257600080fd5b50565b600081359050613aa481613a85565b92915050565b60028110613ab757600080fd5b50565b600081359050613ac981613aaa565b92915050565b60048110613adc57600080fd5b50565b600081359050613aee81613acf565b92915050565b60006102208284031215613b0b57613b0a6139f4565b5b613b16610220613a6a565b90506000613b2684828501613a95565b6000830152506020613b3a84828501613aba565b6020830152506040613b4e84828501613adf565b6040830152506060613b6284828501613685565b6060830152506080613b7684828501613712565b60808301525060a0613b8a84828501613712565b60a08301525060c0613b9e84828501613712565b60c08301525060e0613bb284828501613712565b60e083015250610100613bc784828501613712565b61010083015250610120613bdd84828501613712565b61012083015250610140613bf384828501613712565b61014083015250610160613c0984828501613712565b61016083015250610180613c1f84828501613712565b610180830152506101a0613c3584828501613712565b6101a0830152506101c0613c4b84828501613712565b6101c0830152506101e0613c6184828501613712565b6101e083015250610200613c7784828501613685565b6102008301525092915050565b613c8d81613606565b8114613c9857600080fd5b50565b600081359050613caa81613c84565b92915050565b6000806102408385031215613cc857613cc761357c565b5b6000613cd685828601613af4565b925050610220613ce885828601613c9b565b9150509250929050565b6000608082019050613d0760008301876136d1565b613d1460208301866136d1565b613d2160408301856136d1565b613d2e60608301846136d1565b95945050505050565b6000819050919050565b613d4a81613d37565b8114613d5557600080fd5b50565b600081359050613d6781613d41565b92915050565b600060208284031215613d8357613d8261357c565b5b6000613d9184828501613d58565b91505092915050565b613da381613d37565b82525050565b6000602082019050613dbe6000830184613d9a565b92915050565b60008060408385031215613ddb57613dda61357c565b5b6000613de985828601613712565b9250506020613dfa85828601613685565b9150509250929050565b6000613e0f8261365c565b9050919050565b613e1f81613e04565b8114613e2a57600080fd5b50565b600081359050613e3c81613e16565b92915050565b6000819050919050565b613e5581613e42565b8114613e6057600080fd5b50565b600081359050613e7281613e4c565b92915050565b600080600080600060a08688031215613e9457613e9361357c565b5b6000613ea288828901613e2d565b9550506020613eb388828901613712565b9450506040613ec488828901613712565b9350506060613ed588828901613e63565b9250506080613ee688828901613e63565b9150509295509295909350565b6000606082019050613f0860008301866136d1565b613f1560208301856136d1565b613f2260408301846136d1565b949350505050565b60008060408385031215613f4157613f4061357c565b5b6000613f4f85828601613d58565b9250506020613f6085828601613685565b9150509250929050565b6000613f758261365c565b9050919050565b613f8581613f6a565b8114613f9057600080fd5b50565b600081359050613fa281613f7c565b92915050565b600080600080600060a08688031215613fc457613fc361357c565b5b6000613fd288828901613f93565b9550506020613fe388828901613712565b9450506040613ff488828901613712565b935050606061400588828901613a95565b925050608061401688828901613aba565b9150509295509295909350565b60008060006060848603121561403c5761403b61357c565b5b600061404a86828701613f93565b935050602061405b86828701613c9b565b925050604061406c86828701613c9b565b9150509250925092565b6000806040838503121561408d5761408c61357c565b5b600061409b85828601613685565b92505060206140ac85828601613685565b9150509250929050565b600081519050919050565b600082825260208201905092915050565b6000819050602082019050919050565b60006140ee838361386a565b60208301905092915050565b6000602082019050919050565b6000614112826140b6565b61411c81856140c1565b9350614127836140d2565b8060005b8381101561415857815161413f88826140e2565b975061414a836140fa565b92505060018101905061412b565b5085935050505092915050565b6000602082019050818103600083015261417f8184614107565b905092915050565b61419081613e42565b82525050565b60006020820190506141ab6000830184614187565b92915050565b60008060008060006102a086880312156141ce576141cd61357c565b5b60006141dc88828901613af4565b9550506102206141ee88828901613712565b94505061024061420088828901613712565b93505061026061421288828901613712565b92505061028061422488828901613712565b9150509295509295909350565b61423a8161383a565b82525050565b614249816137f2565b82525050565b6142588161365c565b82525050565b6000819050919050565b600061428361427e6142798461363c565b61425e565b61363c565b9050919050565b600061429582614268565b9050919050565b60006142a78261428a565b9050919050565b6142b78161429c565b82525050565b60006080820190506142d26000830187614231565b6142df6020830186614240565b6142ec604083018561424f565b6142f960608301846142ae565b95945050505050565b7f4e487b7100000000000000000000000000000000000000000000000000000000600052603260045260246000fd5b60008151905061434081613e16565b92915050565b60006020828403121561435c5761435b61357c565b5b600061436a84828501614331565b91505092915050565b7f4e487b7100000000000000000000000000000000000000000000000000000000600052601160045260246000fd5b60006143ad82613e42565b91506143b883613e42565b9250827f7fffffffffffffffffffffffffffffffffffffffffffffffffffffffffffffff04821160008413600084131616156143f7576143f6614373565b5b817f8000000000000000000000000000000000000000000000000000000000000000058312600084126000841316161561443457614433614373565b5b827f8000000000000000000000000000000000000000000000000000000000000000058212600084136000841216161561447157614470614373565b5b827f7fffffffffffffffffffffffffffffffffffffffffffffffffffffffffffffff05821260008412600084121616156144ae576144ad614373565b5b828202905092915050565b60006144c482613e42565b91506144cf83613e42565b9250817f7fffffffffffffffffffffffffffffffffffffffffffffffffffffffffffffff0383136000831215161561450a57614509614373565b5b817f800000000000000000000000000000000000000000000000000000000000000003831260008312161561454257614541614373565b5b828201905092915050565b60008151905061455c816136fb565b92915050565b6000602082840312156145785761457761357c565b5b60006145868482850161454d565b91505092915050565b614598816137aa565b82525050565b6145a7816137f2565b82525050565b6145b68161383a565b82525050565b6145c58161365c565b82525050565b6145d4816136c7565b82525050565b610220820160008201516145f1600085018261458f565b506020820151614604602085018261459e565b50604082015161461760408501826145ad565b50606082015161462a60608501826145bc565b50608082015161463d60808501826145cb565b5060a082015161465060a08501826145cb565b5060c082015161466360c08501826145cb565b5060e082015161467660e08501826145cb565b5061010082015161468b6101008501826145cb565b506101208201516146a06101208501826145cb565b506101408201516146b56101408501826145cb565b506101608201516146ca6101608501826145cb565b506101808201516146df6101808501826145cb565b506101a08201516146f46101a08501826145cb565b506101c08201516147096101c08501826145cb565b506101e082015161471e6101e08501826145cb565b506102008201516147336102008501826145bc565b50505050565b614742816136c7565b82525050565b60006102808201905061475e60008301876145da565b61476c610220830186614739565b61477a610240830185614739565b614788610260830184614739565b95945050505050565b6000610240820190506147a760008301856145da565b6147b5610220830184614739565b9392505050565b60006147c7826136c7565b91506147d2836136c7565b9250827fffffffffffffffffffffffffffffffffffffffffffffffffffffffffffffffff0382111561480757614806614373565b5b828201905092915050565b8082525050565b600060208201905061482e6000830184614812565b92915050565b60008151905061484381613e4c565b92915050565b60006020828403121561485f5761485e61357c565b5b600061486d84828501614834565b91505092915050565b60006148818261365c565b9050919050565b61489181614876565b811461489c57600080fd5b50565b6000815190506148ae81614888565b92915050565b6000602082840312156148ca576148c961357c565b5b60006148d88482850161489f565b91505092915050565b60006148ec8261428a565b9050919050565b6148fc816148e1565b82525050565b600060408201905061491760008301856148f3565b6149246020830184614739565b9392505050565b61493481613e42565b82525050565b600060a08201905061494f6000830188614739565b61495c602083018761492b565b614969604083018661492b565b6149766060830185614739565b6149836080830184614739565b9695505050505050565b60006040820190506149a26000830185614739565b6149af6020830184614739565b9392505050565b600082825260208201905092915050565b7f416363657373436f6e74726f6c3a2063616e206f6e6c792072656e6f756e636560008201527f20726f6c657320666f722073656c660000000000000000000000000000000000602082015250565b6000614a23602f836149b6565b9150614a2e826149c7565b604082019050919050565b60006020820190508181036000830152614a5281614a16565b9050919050565b600081519050614a6881613c84565b92915050565b600060208284031215614a8457614a8361357c565b5b6000614a9284828501614a59565b91505092915050565b6000614aa6826136c7565b91507fffffffffffffffffffffffffffffffffffffffffffffffffffffffffffffffff8203614ad857614ad7614373565b5b600182019050919050565b6000614aee826136c7565b9150614af9836136c7565b925082821015614b0c57614b0b614373565b5b828203905092915050565b6000614b2282613e42565b9150614b2d83613e42565b9250827f800000000000000000000000000000000000000000000000000000000000000001821260008412151615614b6857614b67614373565b5b827f7fffffffffffffffffffffffffffffffffffffffffffffffffffffffffffffff018213600084121615614ba057614b9f614373565b5b828203905092915050565b6000604082019050614bc06000830185614812565b614bcd6020830184614739565b9392505050565b600080600060608486031215614bed57614bec61357c565b5b6000614bfb8682870161454d565b9350506020614c0c8682870161454d565b9250506040614c1d8682870161454d565b9150509250925092565b7f5a65726f2074656e6f7200000000000000000000000000000000000000000000600082015250565b6000614c5d600a836149b6565b9150614c6882614c27565b602082019050919050565b60006020820190508181036000830152614c8c81614c50565b9050919050565b7f53616665436173743a2076616c756520646f65736e27742066697420696e206160008201527f6e20696e74323536000000000000000000000000000000000000000000000000602082015250565b6000614cef6028836149b6565b9150614cfa82614c93565b604082019050919050565b60006020820190508181036000830152614d1e81614ce2565b9050919050565b600081905092915050565b7f416363657373436f6e74726f6c3a206163636f756e7420000000000000000000600082015250565b6000614d66601783614d25565b9150614d7182614d30565b601782019050919050565b600081519050919050565b60005b83811015614da5578082015181840152602081019050614d8a565b83811115614db4576000848401525b50505050565b6000614dc582614d7c565b614dcf8185614d25565b9350614ddf818560208601614d87565b80840191505092915050565b7f206973206d697373696e6720726f6c6520000000000000000000000000000000600082015250565b6000614e21601183614d25565b9150614e2c82614deb565b601182019050919050565b6000614e4282614d59565b9150614e4e8285614dba565b9150614e5982614e14565b9150614e658284614dba565b91508190509392505050565b6000614e7c82614d7c565b614e8681856149b6565b9350614e96818560208601614d87565b614e9f816139f9565b840191505092915050565b60006020820190508181036000830152614ec48184614e71565b905092915050565b7f4e487b7100000000000000000000000000000000000000000000000000000000600052603160045260246000fd5b6000614f06826136c7565b9150614f11836136c7565b9250817fffffffffffffffffffffffffffffffffffffffffffffffffffffffffffffffff0483118215151615614f4a57614f49614373565b5b828202905092915050565b6000614f60826136c7565b915060008203614f7357614f72614373565b5b600182039050919050565b7f537472696e67733a20686578206c656e67746820696e73756666696369656e74600082015250565b6000614fb46020836149b6565b9150614fbf82614f7e565b602082019050919050565b60006020820190508181036000830152614fe381614fa7565b905091905056fea2646970667358221220f5802ba5f8e40f4d98ebcffdbb576e5219a5744e1952be8b3962c695cad674b864736f6c634300080e0033",
  "immutableReferences": {},
  "source": "// SPDX-License-Identifier: MIT\npragma solidity ^0.8.4;\n\nimport \"@openzeppelin/contracts/access/AccessControl.sol\";\nimport \"@openzeppelin/contracts/utils/structs/EnumerableSet.sol\";\n\nimport \"./libraries/MarketLib.sol\";\nimport \"./libraries/OptionLib.sol\";\nimport \"./libraries/MathLib.sol\";\nimport \"./interfaces/EOption.sol\";\nimport \"./pools/Pool.sol\";\nimport \"./pools/MarketMaker.sol\";\nimport \"./VolatilityChain.sol\";\nimport \"./VolatilityToken.sol\";\n\ncontract OptionVault is EOption, AccessControl{\n  using MathLib for uint256;\n  using MarketLib for uint256;\n  \n  using OptionLib for OptionLib.Option;\n  using EnumerableSet for EnumerableSet.UintSet;\n  using EnumerableSet for EnumerableSet.AddressSet;\n\n  bytes32 public constant EXCHANGE = keccak256(\"EXCHANGE\");\n  \n  // list of option contracts\n  OptionLib.Option[] internal aOption;\n  mapping(address=>mapping(address=> EnumerableSet.UintSet)) internal mHolderAtiveOption;\n  mapping(address=>EnumerableSet.UintSet) internal mActiveOption;\n  // mapping(address=>uint256) public mActiveContractCount = 0;\n  mapping(address=>int256) public mNetNotional;\n  mapping(address=>uint256) public mPutCollateral;\n  mapping(address=>uint256) public mDeltaAtZero;\n  mapping(address=>uint256) public mDeltaAtMax;\n\n  // immutable and constant values\n  uint256 internal constant BASE  = 1e18;\n  uint256 internal constant SCALING = 1e5;\n\n  // constructor\n  constructor(){\n    _setupRole(DEFAULT_ADMIN_ROLE, msg.sender); }\n\n  // function to add new option contracts, only executable by Exchange contract as owner\n  // arguments: tenor of option contracts (in seconds), strike (consistent with price source decimals), amount (consistent with underlying token decimals), option type (call or put), option side (buy or sell), premium (in funding token decimals), cost (in funding token decimals), price (in price source decimals), volatility (in default decimals 18), holder address\n  // return id of option contract\n  function addOption(OptionLib.Option memory _option, uint256 _premium, uint256 _collateral, uint256 _price, uint256 _vol) external onlyRole(EXCHANGE) returns(uint256 _id){\n    require(_option.tenor > 0, \"Zero tenor\");\n    _id = aOption.length;\n    // Arguments: option type, option side, contract status (default to draft), contract holder address, contract id, creation timestamp, effective timestamp (default to 0), tenor in seconds, maturity timestamp (default to 0), excersie timestamp (default to 0), amount or size of contract, current spot price, option strike, implied volatility, calculated premium and total cost including collaterals.\n    aOption.push(OptionLib.Option(_option.poType, _option.side, OptionLib.OptionStatus.Draft, _option.holder, _id, block.timestamp,  0, _option.tenor, 0,  0, _option.amount, _price, _option.strike, _vol, _premium, _collateral, _option.pool));}\n\n  // function to stamp option as an active contract, only executable by Exchange contract as owner\n  // arguments: contract id and holder address\n  function stampActiveOption(uint256 _id, address _holder) external onlyRole(EXCHANGE){\n    // update Option records\n    OptionLib.Option storage _option = aOption[_id];\n    _option.effectiveTime = block.timestamp;\n    _option.maturity = block.timestamp + _option.tenor;\n    _option.status = OptionLib.OptionStatus.Active;\n    \n    // update ownership and exposure records\n    address _poolAddress = _option.pool;\n    mNetNotional[_poolAddress] += _option.getNetNotional();\n    mPutCollateral[_poolAddress] += _option.sellPutCollateral();\n    mDeltaAtZero[_poolAddress] += _option.calcDeltaAtZero();\n    mDeltaAtMax[_poolAddress] += _option.calcDeltaAtMax();\n\n    mHolderAtiveOption[_poolAddress][_holder].add(_id);\n    mActiveOption[_poolAddress].add(_id);}\n\n  // function to stamp option as an expired contract, only executable by Exchange contract as owner\n  // arguments: contract id\n  function stampExpiredOption(uint256 _id)  external onlyRole(EXCHANGE){\n    // update Option records\n    OptionLib.Option storage _option = aOption[_id];\n    address _poolAddress = _option.pool;\n    address _holder = _option.holder;\n    mActiveOption[_poolAddress].remove(_id);\n    mHolderAtiveOption[_poolAddress][_holder].remove(_id);\n\n    mNetNotional[_poolAddress] -= _option.getNetNotional();\n    mDeltaAtZero[_poolAddress] -= Math.min(mDeltaAtZero[_poolAddress], _option.calcDeltaAtZero());\n    mDeltaAtMax[_poolAddress] -= Math.min(mDeltaAtMax[_poolAddress], _option.calcDeltaAtMax());\n    mPutCollateral[_poolAddress] -= Math.min(mPutCollateral[_poolAddress], _option.sellPutCollateral());\n   \n    _option.status = OptionLib.OptionStatus.Expired;\n    _option.exerciseTime = block.timestamp;}\n\n  // functions to get information of the option list -> ONLY USED in VIEW, gas cost unlimited\n  function getHolderOptions(address _pool, address _address) external view returns(uint256[] memory){\n    return mHolderAtiveOption[_pool][_address].values();}\n  function getOption(uint256 _id) external view returns(OptionLib.Option memory) {return aOption[_id];}\n  function getActiveOptionCount(address _poolAddress) external view returns(uint256) {return mActiveOption[_poolAddress].length();}\n\n  // function getHoldersOption(uint256 _index, address _address) external view returns(OptionLib.Option memory) {return aOption[activeOptionsPerOwner[_address].at(_index)];}\n  function getOptionInfo(uint256 _id) external view returns(OptionLib.OptionStatus, OptionLib.OptionSide, address, Pool) {\n    require(_id< aOption.length);\n    return (aOption[_id].status, aOption[_id].side, aOption[_id].holder, Pool(aOption[_id].pool));}\n\n  // functions to get the hedging inputs\n  // maximum hedges needed \n  // function getMaxHedge(Pool _pool) external view returns (uint256){\n  //   VolatilityChain _volChain = _pool.volChain();\n  //   address _poolAddress = address(_pool);\n  //   return Math.max(mDeltaAtZero[_poolAddress], mDeltaAtMax[_poolAddress]).ethmul(_volChain.queryPrice());}\n\n  // aggregate delta of all active contracts, optional including expiring contracts yet stamped as Expired. Arguments: spot price and whether to include expiring contracts\n  // function calculateAggregateDelta(address _pool, uint256 _price, bool _includeExpiring) public view returns(int256 _delta){\n  //   _delta= 0;\n  //   for(uint256 i=0;i<activeContractCount;i++){\n  //     OptionLib.Option storage _option = aOption[uint256(activeOptions.at(i))];\n  //     uint256 _maturityLeft = _option.calcRemainingMaturity();\n  //     uint256 _vol = volChain.queryVol(_maturityLeft);\n  //     _delta += _option.calcDelta(_price, _vol, _includeExpiring);}}\n  \n  // aggregate gamma. Arguments: spot price\n  // function calculateAggregateGamma(address _pool, uint256 _price) external view returns(int256 _gamma){\n  //   _gamma= 0;\n  //   for(uint256 i=0;i<activeContractCount;i++){\n  //     uint256 _id = uint256(activeOptions.at(i));\n  //     if(aOption[_id].status== OptionLib.OptionStatus.Active  && (aOption[_id].maturity > block.timestamp)){\n  //       uint256 _vol = volChain.queryVol(aOption[_id].maturity - block.timestamp);\n  //       int256 _contractGamma = SafeCast.toInt256(OptionLib.calcGamma(_price, aOption[_id].strike, _vol).ethmul(aOption[_id].amount));\n  //       if(aOption[_id].side==OptionLib.OptionSide.Sell){ _gamma -= _contractGamma;}\n  //       else{_gamma += _contractGamma;}}}}\n\n  // hypothetical gamma assuming at the money and 1-day expiry\n  // function calculateSpotGamma() external view returns(int256 _gamma){\n  //   uint256 _vol = volChain.queryVol(86400);\n  //   _gamma = SafeCast.toInt256(OptionLib.calcGamma(BASE, BASE, _vol));}\n\n  // functions used in expiring option contracts\n  // contract payoff of specified contract ID\n  function getContractPayoff(uint256 _id) external view returns(uint256 _payoff, uint256 _payback, uint256 _collateral){\n    Pool _pool = Pool(aOption[_id].pool);\n    VolatilityChain _volChain = _pool.marketMaker().getVolatilityChain();\n    return aOption[_id].calcPayoff(_volChain.queryPrice());}\n    \n  // check if any option contract is expiring\n  function anyOptionExpiring(address _poolAddress) external view returns(bool _isExpiring) {\n    _isExpiring = false;\n    uint256 _count = mActiveOption[_poolAddress].length();\n    for(uint256 i=0;i<_count;i++){\n      if(aOption[uint256(mActiveOption[_poolAddress].at(i))].isExpiring()){\n        _isExpiring = true;\n        break;}}}\n  // get the id of any expiring contract -> please only run it on view function as it has unlimited gas usage.\n  function getExpiringOptionId(address _poolAddress) external view returns(uint256 _id){\n    // uint256[] memory _id;\n    uint256 _count = mActiveOption[_poolAddress].length();\n    for(uint256 i=0;i<_count;i++){\n      uint256 _id_i = uint256(mActiveOption[_poolAddress].at(i));\n      if(aOption[_id_i].isExpiring()){\n        _id = _id_i;\n        break;}}}\n\n  function tryATMOptionCost(Pool _pool, uint256 _tenor, uint256 _amount, OptionLib.PayoffType _poType, OptionLib.OptionSide _side) public view returns(uint256 _premium, uint256 _collateral, uint256 _price, uint256 _volatilty){\n    OptionLib.Option memory _option = OptionLib.Option(_poType, _side, OptionLib.OptionStatus.Draft, msg.sender, 0, block.timestamp,  0, _tenor, 0,  0, _amount, 0, 0, 0, 0, 0, address(_pool));\n    return calcOptionCost(_option, true);\n  }\n\n  function calcOptionCost(OptionLib.Option memory _option, bool _forceATM) public view returns(uint256 _premium, uint256 _collateral, uint256 _price, uint256 _annualisedVol){\n    Pool _pool = Pool(_option.pool);\n    MarketMaker _market = _pool.marketMaker();\n\n    int256 _newNetNotional = mNetNotional[_option.pool] + SafeCast.toInt256(_option.amount) * (_option.side==OptionLib.OptionSide.Sell? -1: int(1));\n    uint256 _impVol; // vol * sqrt(t)\n    (_price, _impVol, _annualisedVol) = calcImpliedVol(_market, _option.tenor, _pool.volCapacityFactor(), mNetNotional[_option.pool], _newNetNotional);\n    \n    if (_forceATM){_option.strike = _price;}\n\n    _premium = _option.calcPremium(_price, _impVol, _market.loanInterest());\n    _collateral = _option.calcCollateral(_price);}\n\n  function calcImpliedVol(MarketMaker _market, uint256 _tenor, uint256 _volCapacityFactor, int256 _currentNetNotional, int256 _newNetNotional) public view returns(uint256 _price, uint256 _impVol, uint256 _annualisedVol){\n    VolatilityChain _volChain = _market.getVolatilityChain();\n    _price = _volChain.queryPrice();\n    _impVol = MarketLib.calcRiskPremium(MarketLib.getGrossCapital(_market, _price), _currentNetNotional, _newNetNotional, _volChain.queryVol(_tenor), _volCapacityFactor);\n    _annualisedVol = _impVol.ethmul(_volChain.getSqrtRatio(_tenor));}\n    \n  // functions related to capital calculation, addition and removals\n  // calculate capitals. Arguments: net for net capital (removing all collaterals and max exposures of option contracts) or gross (including all exposures in the underlying and funding tokens), average for average capital (total divided by number of Pool tokens) or gross (not divided by tokens)\n  function calcCapital(Pool _pool, bool _net, bool _average) external view returns(uint256){\n    MarketMaker _market = _pool.marketMaker();\n    VolatilityChain _volChain = _market.getVolatilityChain();\n    uint256 _price = _volChain.queryPrice();\n    uint256 _capital = MarketLib.getGrossCapital(_market, _price);\n    address _poolAddress = address(_pool);\n\n    if(_net){ \n      uint256 _maxHedge = Math.max(mDeltaAtZero[_poolAddress], mDeltaAtMax[_poolAddress]).ethmul(_price);\n      _capital -= Math.min(_maxHedge + mPutCollateral[_poolAddress], _capital);}\n\n    if(_average){ \n      uint256 _poolSupply = _pool.totalSupply();\n      if(_poolSupply > 0) {\n        _capital = _capital.ethdiv(_poolSupply); }\n      else if(_poolSupply == 0 && _capital == 0) {\n        _capital = BASE;}}\n    \n    return _capital;}\n}\n",
  "sourcePath": "/Users/sen/Documents/GitHub/moret/contracts/OptionVault.sol",
  "compiler": {
    "name": "solc",
    "version": "0.8.14+commit.80d49f37.Emscripten.clang"
  },
  "schemaVersion": "3.4.4",
  "updatedAt": "2022-05-31T00:20:59.429Z",
  "networkType": "ethereum",
  "devdoc": {
    "kind": "dev",
    "methods": {
      "getRoleAdmin(bytes32)": {
        "details": "Returns the admin role that controls `role`. See {grantRole} and {revokeRole}. To change a role's admin, use {_setRoleAdmin}."
      },
      "grantRole(bytes32,address)": {
        "details": "Grants `role` to `account`. If `account` had not been already granted `role`, emits a {RoleGranted} event. Requirements: - the caller must have ``role``'s admin role."
      },
      "hasRole(bytes32,address)": {
        "details": "Returns `true` if `account` has been granted `role`."
      },
      "renounceRole(bytes32,address)": {
        "details": "Revokes `role` from the calling account. Roles are often managed via {grantRole} and {revokeRole}: this function's purpose is to provide a mechanism for accounts to lose their privileges if they are compromised (such as when a trusted device is misplaced). If the calling account had been revoked `role`, emits a {RoleRevoked} event. Requirements: - the caller must be `account`."
      },
      "revokeRole(bytes32,address)": {
        "details": "Revokes `role` from `account`. If `account` had been granted `role`, emits a {RoleRevoked} event. Requirements: - the caller must have ``role``'s admin role."
      },
      "supportsInterface(bytes4)": {
        "details": "See {IERC165-supportsInterface}."
      }
    },
    "version": 1
  },
  "userdoc": {
    "kind": "user",
    "methods": {},
    "version": 1
  }
}