{
  "contractName": "OptionVault",
  "abi": [
    {
      "inputs": [],
      "stateMutability": "nonpayable",
      "type": "constructor"
    },
    {
      "anonymous": false,
      "inputs": [
        {
          "indexed": true,
          "internalType": "address",
          "name": "_bot",
          "type": "address"
        },
        {
          "indexed": true,
          "internalType": "address",
          "name": "_exchange",
          "type": "address"
        },
        {
          "indexed": false,
          "internalType": "address",
          "name": "_holder",
          "type": "address"
        },
        {
          "indexed": false,
          "internalType": "uint256",
          "name": "_id",
          "type": "uint256"
        },
        {
          "indexed": false,
          "internalType": "uint256",
          "name": "_payoff",
          "type": "uint256"
        }
      ],
      "name": "Expire",
      "type": "event"
    },
    {
      "anonymous": false,
      "inputs": [
        {
          "indexed": true,
          "internalType": "address",
          "name": "_hedger",
          "type": "address"
        },
        {
          "indexed": true,
          "internalType": "address",
          "name": "_market",
          "type": "address"
        },
        {
          "indexed": false,
          "internalType": "bool",
          "name": "success",
          "type": "bool"
        },
        {
          "indexed": false,
          "internalType": "bytes",
          "name": "data",
          "type": "bytes"
        }
      ],
      "name": "HedgeResponse",
      "type": "event"
    },
    {
      "anonymous": false,
      "inputs": [
        {
          "indexed": true,
          "internalType": "address",
          "name": "_hedger",
          "type": "address"
        },
        {
          "indexed": true,
          "internalType": "address",
          "name": "_market",
          "type": "address"
        },
        {
          "indexed": false,
          "internalType": "uint256[]",
          "name": "amounts",
          "type": "uint256[]"
        }
      ],
      "name": "HedgeSwapResponse",
      "type": "event"
    },
    {
      "anonymous": false,
      "inputs": [
        {
          "indexed": true,
          "internalType": "address",
          "name": "_purchaser",
          "type": "address"
        },
        {
          "indexed": true,
          "internalType": "address",
          "name": "_exchange",
          "type": "address"
        },
        {
          "indexed": false,
          "internalType": "uint256",
          "name": "_id",
          "type": "uint256"
        },
        {
          "indexed": false,
          "internalType": "uint256",
          "name": "_premium",
          "type": "uint256"
        },
        {
          "indexed": false,
          "internalType": "uint256",
          "name": "_collateral",
          "type": "uint256"
        },
        {
          "indexed": false,
          "internalType": "bool",
          "name": "_inVol",
          "type": "bool"
        }
      ],
      "name": "NewOption",
      "type": "event"
    },
    {
      "anonymous": false,
      "inputs": [
        {
          "indexed": false,
          "internalType": "address",
          "name": "_newBot",
          "type": "address"
        }
      ],
      "name": "ResetBotAddress",
      "type": "event"
    },
    {
      "anonymous": false,
      "inputs": [
        {
          "indexed": true,
          "internalType": "uint256",
          "name": "_parameterId",
          "type": "uint256"
        },
        {
          "indexed": false,
          "internalType": "uint256",
          "name": "_parameter",
          "type": "uint256"
        }
      ],
      "name": "ResetParameter",
      "type": "event"
    },
    {
      "anonymous": false,
      "inputs": [
        {
          "indexed": true,
          "internalType": "address",
          "name": "_exchange",
          "type": "address"
        },
        {
          "indexed": false,
          "internalType": "bool",
          "name": "_tradingAllowed",
          "type": "bool"
        }
      ],
      "name": "ResetTradingStatus",
      "type": "event"
    },
    {
      "anonymous": false,
      "inputs": [
        {
          "indexed": true,
          "internalType": "bytes32",
          "name": "role",
          "type": "bytes32"
        },
        {
          "indexed": true,
          "internalType": "bytes32",
          "name": "previousAdminRole",
          "type": "bytes32"
        },
        {
          "indexed": true,
          "internalType": "bytes32",
          "name": "newAdminRole",
          "type": "bytes32"
        }
      ],
      "name": "RoleAdminChanged",
      "type": "event"
    },
    {
      "anonymous": false,
      "inputs": [
        {
          "indexed": true,
          "internalType": "bytes32",
          "name": "role",
          "type": "bytes32"
        },
        {
          "indexed": true,
          "internalType": "address",
          "name": "account",
          "type": "address"
        },
        {
          "indexed": true,
          "internalType": "address",
          "name": "sender",
          "type": "address"
        }
      ],
      "name": "RoleGranted",
      "type": "event"
    },
    {
      "anonymous": false,
      "inputs": [
        {
          "indexed": true,
          "internalType": "bytes32",
          "name": "role",
          "type": "bytes32"
        },
        {
          "indexed": true,
          "internalType": "address",
          "name": "account",
          "type": "address"
        },
        {
          "indexed": true,
          "internalType": "address",
          "name": "sender",
          "type": "address"
        }
      ],
      "name": "RoleRevoked",
      "type": "event"
    },
    {
      "anonymous": false,
      "inputs": [
        {
          "indexed": true,
          "internalType": "address",
          "name": "_purchaser",
          "type": "address"
        },
        {
          "indexed": true,
          "internalType": "address",
          "name": "_exchange",
          "type": "address"
        },
        {
          "indexed": false,
          "internalType": "uint256",
          "name": "_cost",
          "type": "uint256"
        },
        {
          "indexed": false,
          "internalType": "uint256",
          "name": "_volAmount",
          "type": "uint256"
        },
        {
          "indexed": false,
          "internalType": "bool",
          "name": "_isPurchase",
          "type": "bool"
        }
      ],
      "name": "TradeVolatility",
      "type": "event"
    },
    {
      "inputs": [],
      "name": "DEFAULT_ADMIN_ROLE",
      "outputs": [
        {
          "internalType": "bytes32",
          "name": "",
          "type": "bytes32"
        }
      ],
      "stateMutability": "view",
      "type": "function"
    },
    {
      "inputs": [],
      "name": "EXCHANGE",
      "outputs": [
        {
          "internalType": "bytes32",
          "name": "",
          "type": "bytes32"
        }
      ],
      "stateMutability": "view",
      "type": "function"
    },
    {
      "inputs": [
        {
          "internalType": "bytes32",
          "name": "role",
          "type": "bytes32"
        }
      ],
      "name": "getRoleAdmin",
      "outputs": [
        {
          "internalType": "bytes32",
          "name": "",
          "type": "bytes32"
        }
      ],
      "stateMutability": "view",
      "type": "function"
    },
    {
      "inputs": [
        {
          "internalType": "bytes32",
          "name": "role",
          "type": "bytes32"
        },
        {
          "internalType": "address",
          "name": "account",
          "type": "address"
        }
      ],
      "name": "grantRole",
      "outputs": [],
      "stateMutability": "nonpayable",
      "type": "function"
    },
    {
      "inputs": [
        {
          "internalType": "bytes32",
          "name": "role",
          "type": "bytes32"
        },
        {
          "internalType": "address",
          "name": "account",
          "type": "address"
        }
      ],
      "name": "hasRole",
      "outputs": [
        {
          "internalType": "bool",
          "name": "",
          "type": "bool"
        }
      ],
      "stateMutability": "view",
      "type": "function"
    },
    {
      "inputs": [
        {
          "internalType": "address",
          "name": "",
          "type": "address"
        }
      ],
      "name": "mDeltaAtMax",
      "outputs": [
        {
          "internalType": "uint256",
          "name": "",
          "type": "uint256"
        }
      ],
      "stateMutability": "view",
      "type": "function"
    },
    {
      "inputs": [
        {
          "internalType": "address",
          "name": "",
          "type": "address"
        }
      ],
      "name": "mDeltaAtZero",
      "outputs": [
        {
          "internalType": "uint256",
          "name": "",
          "type": "uint256"
        }
      ],
      "stateMutability": "view",
      "type": "function"
    },
    {
      "inputs": [
        {
          "internalType": "address",
          "name": "",
          "type": "address"
        }
      ],
      "name": "mNetNotional",
      "outputs": [
        {
          "internalType": "int256",
          "name": "",
          "type": "int256"
        }
      ],
      "stateMutability": "view",
      "type": "function"
    },
    {
      "inputs": [
        {
          "internalType": "address",
          "name": "",
          "type": "address"
        }
      ],
      "name": "mPutCollateral",
      "outputs": [
        {
          "internalType": "uint256",
          "name": "",
          "type": "uint256"
        }
      ],
      "stateMutability": "view",
      "type": "function"
    },
    {
      "inputs": [
        {
          "internalType": "bytes32",
          "name": "role",
          "type": "bytes32"
        },
        {
          "internalType": "address",
          "name": "account",
          "type": "address"
        }
      ],
      "name": "renounceRole",
      "outputs": [],
      "stateMutability": "nonpayable",
      "type": "function"
    },
    {
      "inputs": [
        {
          "internalType": "bytes32",
          "name": "role",
          "type": "bytes32"
        },
        {
          "internalType": "address",
          "name": "account",
          "type": "address"
        }
      ],
      "name": "revokeRole",
      "outputs": [],
      "stateMutability": "nonpayable",
      "type": "function"
    },
    {
      "inputs": [
        {
          "internalType": "bytes4",
          "name": "interfaceId",
          "type": "bytes4"
        }
      ],
      "name": "supportsInterface",
      "outputs": [
        {
          "internalType": "bool",
          "name": "",
          "type": "bool"
        }
      ],
      "stateMutability": "view",
      "type": "function"
    },
    {
      "inputs": [
        {
          "components": [
            {
              "internalType": "enum OptionLib.PayoffType",
              "name": "poType",
              "type": "uint8"
            },
            {
              "internalType": "enum OptionLib.OptionSide",
              "name": "side",
              "type": "uint8"
            },
            {
              "internalType": "enum OptionLib.OptionStatus",
              "name": "status",
              "type": "uint8"
            },
            {
              "internalType": "address",
              "name": "holder",
              "type": "address"
            },
            {
              "internalType": "uint256",
              "name": "id",
              "type": "uint256"
            },
            {
              "internalType": "uint256",
              "name": "createTime",
              "type": "uint256"
            },
            {
              "internalType": "uint256",
              "name": "effectiveTime",
              "type": "uint256"
            },
            {
              "internalType": "uint256",
              "name": "tenor",
              "type": "uint256"
            },
            {
              "internalType": "uint256",
              "name": "maturity",
              "type": "uint256"
            },
            {
              "internalType": "uint256",
              "name": "exerciseTime",
              "type": "uint256"
            },
            {
              "internalType": "uint256",
              "name": "amount",
              "type": "uint256"
            },
            {
              "internalType": "uint256",
              "name": "spot",
              "type": "uint256"
            },
            {
              "internalType": "uint256",
              "name": "strike",
              "type": "uint256"
            },
            {
              "internalType": "uint256",
              "name": "volatility",
              "type": "uint256"
            },
            {
              "internalType": "uint256",
              "name": "premium",
              "type": "uint256"
            },
            {
              "internalType": "uint256",
              "name": "cost",
              "type": "uint256"
            },
            {
              "internalType": "address",
              "name": "pool",
              "type": "address"
            }
          ],
          "internalType": "struct OptionLib.Option",
          "name": "_option",
          "type": "tuple"
        },
        {
          "internalType": "uint256",
          "name": "_premium",
          "type": "uint256"
        },
        {
          "internalType": "uint256",
          "name": "_collateral",
          "type": "uint256"
        },
        {
          "internalType": "uint256",
          "name": "_price",
          "type": "uint256"
        },
        {
          "internalType": "uint256",
          "name": "_vol",
          "type": "uint256"
        }
      ],
      "name": "addOption",
      "outputs": [
        {
          "internalType": "uint256",
          "name": "_id",
          "type": "uint256"
        }
      ],
      "stateMutability": "nonpayable",
      "type": "function"
    },
    {
      "inputs": [
        {
          "internalType": "uint256",
          "name": "_id",
          "type": "uint256"
        },
        {
          "internalType": "address",
          "name": "_holder",
          "type": "address"
        }
      ],
      "name": "stampActiveOption",
      "outputs": [],
      "stateMutability": "nonpayable",
      "type": "function"
    },
    {
      "inputs": [
        {
          "internalType": "uint256",
          "name": "_id",
          "type": "uint256"
        }
      ],
      "name": "stampExpiredOption",
      "outputs": [],
      "stateMutability": "nonpayable",
      "type": "function"
    },
    {
      "inputs": [
        {
          "internalType": "address",
          "name": "_pool",
          "type": "address"
        },
        {
          "internalType": "address",
          "name": "_address",
          "type": "address"
        }
      ],
      "name": "getHolderOptions",
      "outputs": [
        {
          "internalType": "uint256[]",
          "name": "",
          "type": "uint256[]"
        }
      ],
      "stateMutability": "view",
      "type": "function"
    },
    {
      "inputs": [
        {
          "internalType": "uint256",
          "name": "_id",
          "type": "uint256"
        }
      ],
      "name": "getOption",
      "outputs": [
        {
          "components": [
            {
              "internalType": "enum OptionLib.PayoffType",
              "name": "poType",
              "type": "uint8"
            },
            {
              "internalType": "enum OptionLib.OptionSide",
              "name": "side",
              "type": "uint8"
            },
            {
              "internalType": "enum OptionLib.OptionStatus",
              "name": "status",
              "type": "uint8"
            },
            {
              "internalType": "address",
              "name": "holder",
              "type": "address"
            },
            {
              "internalType": "uint256",
              "name": "id",
              "type": "uint256"
            },
            {
              "internalType": "uint256",
              "name": "createTime",
              "type": "uint256"
            },
            {
              "internalType": "uint256",
              "name": "effectiveTime",
              "type": "uint256"
            },
            {
              "internalType": "uint256",
              "name": "tenor",
              "type": "uint256"
            },
            {
              "internalType": "uint256",
              "name": "maturity",
              "type": "uint256"
            },
            {
              "internalType": "uint256",
              "name": "exerciseTime",
              "type": "uint256"
            },
            {
              "internalType": "uint256",
              "name": "amount",
              "type": "uint256"
            },
            {
              "internalType": "uint256",
              "name": "spot",
              "type": "uint256"
            },
            {
              "internalType": "uint256",
              "name": "strike",
              "type": "uint256"
            },
            {
              "internalType": "uint256",
              "name": "volatility",
              "type": "uint256"
            },
            {
              "internalType": "uint256",
              "name": "premium",
              "type": "uint256"
            },
            {
              "internalType": "uint256",
              "name": "cost",
              "type": "uint256"
            },
            {
              "internalType": "address",
              "name": "pool",
              "type": "address"
            }
          ],
          "internalType": "struct OptionLib.Option",
          "name": "",
          "type": "tuple"
        }
      ],
      "stateMutability": "view",
      "type": "function"
    },
    {
      "inputs": [
        {
          "internalType": "address",
          "name": "_poolAddress",
          "type": "address"
        }
      ],
      "name": "getActiveOptionCount",
      "outputs": [
        {
          "internalType": "uint256",
          "name": "",
          "type": "uint256"
        }
      ],
      "stateMutability": "view",
      "type": "function"
    },
    {
      "inputs": [
        {
          "internalType": "uint256",
          "name": "_id",
          "type": "uint256"
        }
      ],
      "name": "getOptionInfo",
      "outputs": [
        {
          "internalType": "enum OptionLib.OptionStatus",
          "name": "",
          "type": "uint8"
        },
        {
          "internalType": "enum OptionLib.OptionSide",
          "name": "",
          "type": "uint8"
        },
        {
          "internalType": "address",
          "name": "",
          "type": "address"
        },
        {
          "internalType": "contract Pool",
          "name": "",
          "type": "address"
        }
      ],
      "stateMutability": "view",
      "type": "function"
    },
    {
      "inputs": [
        {
          "internalType": "uint256",
          "name": "_id",
          "type": "uint256"
        }
      ],
      "name": "getContractPayoff",
      "outputs": [
        {
          "internalType": "uint256",
          "name": "_payoff",
          "type": "uint256"
        },
        {
          "internalType": "uint256",
          "name": "_payback",
          "type": "uint256"
        },
        {
          "internalType": "uint256",
          "name": "_collateral",
          "type": "uint256"
        }
      ],
      "stateMutability": "view",
      "type": "function"
    },
    {
      "inputs": [
        {
          "internalType": "address",
          "name": "_poolAddress",
          "type": "address"
        }
      ],
      "name": "anyOptionExpiring",
      "outputs": [
        {
          "internalType": "bool",
          "name": "_isExpiring",
          "type": "bool"
        }
      ],
      "stateMutability": "view",
      "type": "function"
    },
    {
      "inputs": [
        {
          "internalType": "address",
          "name": "_poolAddress",
          "type": "address"
        }
      ],
      "name": "getExpiringOptionId",
      "outputs": [
        {
          "internalType": "uint256",
          "name": "_id",
          "type": "uint256"
        }
      ],
      "stateMutability": "view",
      "type": "function"
    },
    {
      "inputs": [
        {
          "components": [
            {
              "internalType": "enum OptionLib.PayoffType",
              "name": "poType",
              "type": "uint8"
            },
            {
              "internalType": "enum OptionLib.OptionSide",
              "name": "side",
              "type": "uint8"
            },
            {
              "internalType": "enum OptionLib.OptionStatus",
              "name": "status",
              "type": "uint8"
            },
            {
              "internalType": "address",
              "name": "holder",
              "type": "address"
            },
            {
              "internalType": "uint256",
              "name": "id",
              "type": "uint256"
            },
            {
              "internalType": "uint256",
              "name": "createTime",
              "type": "uint256"
            },
            {
              "internalType": "uint256",
              "name": "effectiveTime",
              "type": "uint256"
            },
            {
              "internalType": "uint256",
              "name": "tenor",
              "type": "uint256"
            },
            {
              "internalType": "uint256",
              "name": "maturity",
              "type": "uint256"
            },
            {
              "internalType": "uint256",
              "name": "exerciseTime",
              "type": "uint256"
            },
            {
              "internalType": "uint256",
              "name": "amount",
              "type": "uint256"
            },
            {
              "internalType": "uint256",
              "name": "spot",
              "type": "uint256"
            },
            {
              "internalType": "uint256",
              "name": "strike",
              "type": "uint256"
            },
            {
              "internalType": "uint256",
              "name": "volatility",
              "type": "uint256"
            },
            {
              "internalType": "uint256",
              "name": "premium",
              "type": "uint256"
            },
            {
              "internalType": "uint256",
              "name": "cost",
              "type": "uint256"
            },
            {
              "internalType": "address",
              "name": "pool",
              "type": "address"
            }
          ],
          "internalType": "struct OptionLib.Option",
          "name": "_option",
          "type": "tuple"
        },
        {
          "internalType": "bool",
          "name": "_forceATM",
          "type": "bool"
        }
      ],
      "name": "calcOptionCost",
      "outputs": [
        {
          "internalType": "uint256",
          "name": "_premium",
          "type": "uint256"
        },
        {
          "internalType": "uint256",
          "name": "_collateral",
          "type": "uint256"
        },
        {
          "internalType": "uint256",
          "name": "_price",
          "type": "uint256"
        },
        {
          "internalType": "uint256",
          "name": "_vol",
          "type": "uint256"
        }
      ],
      "stateMutability": "view",
      "type": "function"
    },
    {
      "inputs": [
        {
          "internalType": "contract MarketMaker",
          "name": "_market",
          "type": "address"
        },
        {
          "internalType": "uint256",
          "name": "_tenor",
          "type": "uint256"
        },
        {
          "internalType": "uint256",
          "name": "_volCapacityFactor",
          "type": "uint256"
        },
        {
          "internalType": "int256",
          "name": "_currentNetNotional",
          "type": "int256"
        },
        {
          "internalType": "int256",
          "name": "_newNetNotional",
          "type": "int256"
        }
      ],
      "name": "calcImpliedVol",
      "outputs": [
        {
          "internalType": "uint256",
          "name": "",
          "type": "uint256"
        },
        {
          "internalType": "uint256",
          "name": "",
          "type": "uint256"
        }
      ],
      "stateMutability": "view",
      "type": "function"
    },
    {
      "inputs": [
        {
          "internalType": "contract Pool",
          "name": "_pool",
          "type": "address"
        },
        {
          "internalType": "bool",
          "name": "_net",
          "type": "bool"
        },
        {
          "internalType": "bool",
          "name": "_average",
          "type": "bool"
        }
      ],
      "name": "calcCapital",
      "outputs": [
        {
          "internalType": "uint256",
          "name": "",
          "type": "uint256"
        }
      ],
      "stateMutability": "view",
      "type": "function"
    }
  ],
  "bytecode": "0x60806040523480156200001157600080fd5b50620000276000801b336200002d60201b60201c565b620001a6565b6200003f82826200004360201b60201c565b5050565b6200005582826200013460201b60201c565b6200013057600160008084815260200190815260200160002060000160008373ffffffffffffffffffffffffffffffffffffffff1673ffffffffffffffffffffffffffffffffffffffff16815260200190815260200160002060006101000a81548160ff021916908315150217905550620000d56200019e60201b60201c565b73ffffffffffffffffffffffffffffffffffffffff168173ffffffffffffffffffffffffffffffffffffffff16837f2f8788117e7eff1d82e926ec794901d17c78024a50270940304540a733656f0d60405160405180910390a45b5050565b600080600084815260200190815260200160002060000160008373ffffffffffffffffffffffffffffffffffffffff1673ffffffffffffffffffffffffffffffffffffffff16815260200190815260200160002060009054906101000a900460ff16905092915050565b600033905090565b614e7080620001b66000396000f3fe608060405234801561001057600080fd5b50600436106101735760003560e01c806365c22c5f116100de5780639bafc25411610097578063b50e44b811610071578063b50e44b81461050c578063b9f10b661461052a578063d547741f1461055a578063fc9d80e01461057657610173565b80639bafc2541461048e5780639f2b958c146104be578063a217fddf146104ee57610173565b806365c22c5f1461036c5780636a347c401461039c5780637be795e0146103cc578063844a7c9a146103fc57806385ae10e61461042c57806391d148541461045e57610173565b8063255242171161013057806325524217146102875780632f2ff15d146102b857806336568abe146102d45780633a328e29146102f05780635c273c2f14610320578063637baf601461035057610173565b806301ffc9a714610178578063132a0f1b146101a85780631ce5e9a6146101d85780632360e81714610208578063248a9ca31461023b57806324b4110e1461026b575b600080fd5b610192600480360381019061018d91906134a8565b6105a9565b60405161019f91906134f0565b60405180910390f35b6101c260048036038101906101bd9190613569565b610623565b6040516101cf91906135af565b60405180910390f35b6101f260048036038101906101ed91906135f6565b610673565b6040516101ff91906138a7565b60405180910390f35b610222600480360381019061021d9190613b7f565b610885565b6040516102329493929190613bc1565b60405180910390f35b61025560048036038101906102509190613c3c565b610c32565b6040516102629190613c78565b60405180910390f35b61028560048036038101906102809190613c93565b610c51565b005b6102a1600480360381019061029c9190613d47565b611144565b6040516102af929190613dc2565b60405180910390f35b6102d260048036038101906102cd9190613deb565b6114aa565b005b6102ee60048036038101906102e99190613deb565b6114d3565b005b61030a60048036038101906103059190613569565b611556565b60405161031791906135af565b60405180910390f35b61033a60048036038101906103359190613e69565b6116c6565b60405161034791906135af565b60405180910390f35b61036a600480360381019061036591906135f6565b611b4b565b005b61038660048036038101906103819190613569565b612127565b60405161039391906135af565b60405180910390f35b6103b660048036038101906103b19190613569565b61213f565b6040516103c391906135af565b60405180910390f35b6103e660048036038101906103e19190613ebc565b612157565b6040516103f39190613fab565b60405180910390f35b61041660048036038101906104119190613569565b6121e5565b6040516104239190613fdc565b60405180910390f35b610446600480360381019061044191906135f6565b6121fd565b60405161045593929190613ff7565b60405180910390f35b61047860048036038101906104739190613deb565b612446565b60405161048591906134f0565b60405180910390f35b6104a860048036038101906104a39190613569565b6124b0565b6040516104b591906135af565b60405180910390f35b6104d860048036038101906104d39190613569565b6124c8565b6040516104e591906134f0565b60405180910390f35b6104f6612632565b6040516105039190613c78565b60405180910390f35b610514612639565b6040516105219190613c78565b60405180910390f35b610544600480360381019061053f919061402e565b61265d565b60405161055191906135af565b60405180910390f35b610574600480360381019061056f9190613deb565b6129ab565b005b610590600480360381019061058b91906135f6565b6129d4565b6040516105a0949392919061413a565b60405180910390f35b60007f7965db0b000000000000000000000000000000000000000000000000000000007bffffffffffffffffffffffffffffffffffffffffffffffffffffffff1916827bffffffffffffffffffffffffffffffffffffffffffffffffffffffff1916148061061c575061061b82612aec565b5b9050919050565b600061066c600360008473ffffffffffffffffffffffffffffffffffffffff1673ffffffffffffffffffffffffffffffffffffffff168152602001908152602001600020612b56565b9050919050565b61067b61335b565b6001828154811061068f5761068e61417f565b5b90600052602060002090600e0201604051806102200160405290816000820160009054906101000a900460ff1660018111156106ce576106cd613623565b5b60018111156106e0576106df613623565b5b81526020016000820160019054906101000a900460ff16600181111561070957610708613623565b5b600181111561071b5761071a613623565b5b81526020016000820160029054906101000a900460ff16600381111561074457610743613623565b5b600381111561075657610755613623565b5b81526020016000820160039054906101000a900473ffffffffffffffffffffffffffffffffffffffff1673ffffffffffffffffffffffffffffffffffffffff1673ffffffffffffffffffffffffffffffffffffffff168152602001600182015481526020016002820154815260200160038201548152602001600482015481526020016005820154815260200160068201548152602001600782015481526020016008820154815260200160098201548152602001600a8201548152602001600b8201548152602001600c8201548152602001600d820160009054906101000a900473ffffffffffffffffffffffffffffffffffffffff1673ffffffffffffffffffffffffffffffffffffffff1673ffffffffffffffffffffffffffffffffffffffff16815250509050919050565b6000806000806000866102000151905060008173ffffffffffffffffffffffffffffffffffffffff16631f21f9af6040518163ffffffff1660e01b8152600401602060405180830381865afa1580156108e2573d6000803e3d6000fd5b505050506040513d601f19601f8201168201806040525081019061090691906141c3565b9050600060018081111561091d5761091c613623565b5b8960200151600181111561093457610933613623565b5b14610940576001610962565b7fffffffffffffffffffffffffffffffffffffffffffffffffffffffffffffffff5b6109708a6101400151612b6b565b61097a919061421f565b600460008b610200015173ffffffffffffffffffffffffffffffffffffffff1673ffffffffffffffffffffffffffffffffffffffff168152602001908152602001600020546109c99190614336565b9050610a8e828a60e001518573ffffffffffffffffffffffffffffffffffffffff16630f9026186040518163ffffffff1660e01b8152600401602060405180830381865afa158015610a1f573d6000803e3d6000fd5b505050506040513d601f19601f82011682018060405250810190610a4391906143df565b600460008e610200015173ffffffffffffffffffffffffffffffffffffffff1673ffffffffffffffffffffffffffffffffffffffff1681526020019081526020016000205485611144565b8095508196505050848961016001818152505083896101a00181815250508715610abe5784896101800181815250505b8873__OptionLib_____________________________636eef991090918473ffffffffffffffffffffffffffffffffffffffff1663a7292ea46040518163ffffffff1660e01b8152600401602060405180830381865afa158015610b26573d6000803e3d6000fd5b505050506040513d601f19601f82011682018060405250810190610b4a91906143df565b6040518363ffffffff1660e01b8152600401610b679291906145c5565b602060405180830381865af4158015610b84573d6000803e3d6000fd5b505050506040513d601f19601f82011682018060405250810190610ba891906143df565b96508873__OptionLib_____________________________63f8581c2c90916040518263ffffffff1660e01b8152600401610be391906145f0565b602060405180830381865af4158015610c00573d6000803e3d6000fd5b505050506040513d601f19601f82011682018060405250810190610c2491906143df565b955050505092959194509250565b6000806000838152602001908152602001600020600101549050919050565b7f10b261d3bc7a74f38949f9212b0336103474898eda034c06ae0a3e478dc0e4a5610c8381610c7e612bd8565b612be0565b600060018481548110610c9957610c9861417f565b5b90600052602060002090600e02019050428160030181905550806004015442610cc2919061460c565b816005018190555060018160000160026101000a81548160ff02191690836003811115610cf257610cf1613623565b5b0217905550600081600d0160009054906101000a900473ffffffffffffffffffffffffffffffffffffffff1690508173__OptionLib_____________________________63bf38721c90916040518263ffffffff1660e01b8152600401610d599190614669565b602060405180830381865af4158015610d76573d6000803e3d6000fd5b505050506040513d601f19601f82011682018060405250810190610d9a9190614699565b600460008373ffffffffffffffffffffffffffffffffffffffff1673ffffffffffffffffffffffffffffffffffffffff1681526020019081526020016000206000828254610de89190614336565b925050819055508173__OptionLib_____________________________631b4fb86990916040518263ffffffff1660e01b8152600401610e289190614669565b602060405180830381865af4158015610e45573d6000803e3d6000fd5b505050506040513d601f19601f82011682018060405250810190610e6991906143df565b600560008373ffffffffffffffffffffffffffffffffffffffff1673ffffffffffffffffffffffffffffffffffffffff1681526020019081526020016000206000828254610eb7919061460c565b925050819055508173__OptionLib_____________________________632e5cf0a790916040518263ffffffff1660e01b8152600401610ef79190614669565b602060405180830381865af4158015610f14573d6000803e3d6000fd5b505050506040513d601f19601f82011682018060405250810190610f3891906143df565b600660008373ffffffffffffffffffffffffffffffffffffffff1673ffffffffffffffffffffffffffffffffffffffff1681526020019081526020016000206000828254610f86919061460c565b925050819055508173__OptionLib_____________________________6304a65c3e90916040518263ffffffff1660e01b8152600401610fc69190614669565b602060405180830381865af4158015610fe3573d6000803e3d6000fd5b505050506040513d601f19601f8201168201806040525081019061100791906143df565b600760008373ffffffffffffffffffffffffffffffffffffffff1673ffffffffffffffffffffffffffffffffffffffff1681526020019081526020016000206000828254611055919061460c565b925050819055506110ea85600260008473ffffffffffffffffffffffffffffffffffffffff1673ffffffffffffffffffffffffffffffffffffffff16815260200190815260200160002060008773ffffffffffffffffffffffffffffffffffffffff1673ffffffffffffffffffffffffffffffffffffffff168152602001908152602001600020612c7d90919063ffffffff16565b5061113c85600360008473ffffffffffffffffffffffffffffffffffffffff1673ffffffffffffffffffffffffffffffffffffffff168152602001908152602001600020612c7d90919063ffffffff16565b505050505050565b60008060008773ffffffffffffffffffffffffffffffffffffffff1663c0a16f6a6040518163ffffffff1660e01b8152600401602060405180830381865afa158015611194573d6000803e3d6000fd5b505050506040513d601f19601f820116820180604052508101906111b89190614704565b905060008173ffffffffffffffffffffffffffffffffffffffff1663b0667cf86040518163ffffffff1660e01b8152600401602060405180830381865afa158015611207573d6000803e3d6000fd5b505050506040513d601f19601f8201168201806040525081019061122b91906143df565b9050600073__MarketLib_____________________________637bc7ed7873__MarketLib_____________________________63e74207d68d866040518363ffffffff1660e01b8152600401611282929190614752565b602060405180830381865af415801561129f573d6000803e3d6000fd5b505050506040513d601f19601f820116820180604052508101906112c391906143df565b89898773ffffffffffffffffffffffffffffffffffffffff1663cfc2dc208f6040518263ffffffff1660e01b81526004016112fe91906135af565b602060405180830381865afa15801561131b573d6000803e3d6000fd5b505050506040513d601f19601f8201168201806040525081019061133f91906143df565b8d6040518663ffffffff1660e01b815260040161136095949392919061478a565b602060405180830381865af415801561137d573d6000803e3d6000fd5b505050506040513d601f19601f820116820180604052508101906113a191906143df565b9050818173__MathLib_______________________________63fed4a0f390918673ffffffffffffffffffffffffffffffffffffffff1663430417f78e6040518263ffffffff1660e01b81526004016113fa91906135af565b602060405180830381865afa158015611417573d6000803e3d6000fd5b505050506040513d601f19601f8201168201806040525081019061143b91906143df565b6040518363ffffffff1660e01b81526004016114589291906147dd565b602060405180830381865af4158015611475573d6000803e3d6000fd5b505050506040513d601f19601f8201168201806040525081019061149991906143df565b945094505050509550959350505050565b6114b382610c32565b6114c4816114bf612bd8565b612be0565b6114ce8383612c97565b505050565b6114db612bd8565b73ffffffffffffffffffffffffffffffffffffffff168173ffffffffffffffffffffffffffffffffffffffff1614611548576040517f08c379a000000000000000000000000000000000000000000000000000000000815260040161153f90614889565b60405180910390fd5b6115528282612d77565b5050565b6000806115a0600360008573ffffffffffffffffffffffffffffffffffffffff1673ffffffffffffffffffffffffffffffffffffffff168152602001908152602001600020612b56565b905060005b818110156116bf57600061160082600360008873ffffffffffffffffffffffffffffffffffffffff1673ffffffffffffffffffffffffffffffffffffffff168152602001908152602001600020612e5890919063ffffffff16565b9050600181815481106116165761161561417f565b5b90600052602060002090600e020173__OptionLib_____________________________63febf205490916040518263ffffffff1660e01b815260040161165c9190614669565b602060405180830381865af4158015611679573d6000803e3d6000fd5b505050506040513d601f19601f8201168201806040525081019061169d91906148be565b156116ab57809350506116bf565b5080806116b7906148eb565b9150506115a5565b5050919050565b6000808473ffffffffffffffffffffffffffffffffffffffff16631f21f9af6040518163ffffffff1660e01b8152600401602060405180830381865afa158015611714573d6000803e3d6000fd5b505050506040513d601f19601f8201168201806040525081019061173891906141c3565b905060008173ffffffffffffffffffffffffffffffffffffffff1663c0a16f6a6040518163ffffffff1660e01b8152600401602060405180830381865afa158015611787573d6000803e3d6000fd5b505050506040513d601f19601f820116820180604052508101906117ab9190614704565b905060008173ffffffffffffffffffffffffffffffffffffffff1663b0667cf86040518163ffffffff1660e01b8152600401602060405180830381865afa1580156117fa573d6000803e3d6000fd5b505050506040513d601f19601f8201168201806040525081019061181e91906143df565b9050600073__MarketLib_____________________________63e74207d685846040518363ffffffff1660e01b815260040161185b929190614752565b602060405180830381865af4158015611878573d6000803e3d6000fd5b505050506040513d601f19601f8201168201806040525081019061189c91906143df565b905060008890508715611a13576000611933600660008473ffffffffffffffffffffffffffffffffffffffff1673ffffffffffffffffffffffffffffffffffffffff16815260200190815260200160002054600760008573ffffffffffffffffffffffffffffffffffffffff1673ffffffffffffffffffffffffffffffffffffffff16815260200190815260200160002054612e72565b73__MathLib_______________________________63fed4a0f39091866040518363ffffffff1660e01b815260040161196d9291906147dd565b602060405180830381865af415801561198a573d6000803e3d6000fd5b505050506040513d601f19601f820116820180604052508101906119ae91906143df565b9050611a04600560008473ffffffffffffffffffffffffffffffffffffffff1673ffffffffffffffffffffffffffffffffffffffff16815260200190815260200160002054826119fe919061460c565b84612e8c565b83611a0f9190614933565b9250505b8615611b3c5760008973ffffffffffffffffffffffffffffffffffffffff166318160ddd6040518163ffffffff1660e01b8152600401602060405180830381865afa158015611a66573d6000803e3d6000fd5b505050506040513d601f19601f82011682018060405250810190611a8a91906143df565b90506000811115611b18578273__MathLib_______________________________63de7f61709091836040518363ffffffff1660e01b8152600401611ad09291906147dd565b602060405180830381865af4158015611aed573d6000803e3d6000fd5b505050506040513d601f19601f82011682018060405250810190611b1191906143df565b9250611b3a565b600081148015611b285750600083145b15611b3957670de0b6b3a764000092505b5b505b81955050505050509392505050565b7f10b261d3bc7a74f38949f9212b0336103474898eda034c06ae0a3e478dc0e4a5611b7d81611b78612bd8565b612be0565b600060018381548110611b9357611b9261417f565b5b90600052602060002090600e02019050600081600d0160009054906101000a900473ffffffffffffffffffffffffffffffffffffffff16905060008260000160039054906101000a900473ffffffffffffffffffffffffffffffffffffffff169050611c4685600360008573ffffffffffffffffffffffffffffffffffffffff1673ffffffffffffffffffffffffffffffffffffffff168152602001908152602001600020612ea590919063ffffffff16565b50611cd585600260008573ffffffffffffffffffffffffffffffffffffffff1673ffffffffffffffffffffffffffffffffffffffff16815260200190815260200160002060008473ffffffffffffffffffffffffffffffffffffffff1673ffffffffffffffffffffffffffffffffffffffff168152602001908152602001600020612ea590919063ffffffff16565b508273__OptionLib_____________________________63bf38721c90916040518263ffffffff1660e01b8152600401611d0f9190614669565b602060405180830381865af4158015611d2c573d6000803e3d6000fd5b505050506040513d601f19601f82011682018060405250810190611d509190614699565b600460008473ffffffffffffffffffffffffffffffffffffffff1673ffffffffffffffffffffffffffffffffffffffff1681526020019081526020016000206000828254611d9e9190614967565b92505081905550611e67600660008473ffffffffffffffffffffffffffffffffffffffff1673ffffffffffffffffffffffffffffffffffffffff168152602001908152602001600020548473__OptionLib_____________________________632e5cf0a790916040518263ffffffff1660e01b8152600401611e219190614669565b602060405180830381865af4158015611e3e573d6000803e3d6000fd5b505050506040513d601f19601f82011682018060405250810190611e6291906143df565b612e8c565b600660008473ffffffffffffffffffffffffffffffffffffffff1673ffffffffffffffffffffffffffffffffffffffff1681526020019081526020016000206000828254611eb59190614933565b92505081905550611f7e600760008473ffffffffffffffffffffffffffffffffffffffff1673ffffffffffffffffffffffffffffffffffffffff168152602001908152602001600020548473__OptionLib_____________________________6304a65c3e90916040518263ffffffff1660e01b8152600401611f389190614669565b602060405180830381865af4158015611f55573d6000803e3d6000fd5b505050506040513d601f19601f82011682018060405250810190611f7991906143df565b612e8c565b600760008473ffffffffffffffffffffffffffffffffffffffff1673ffffffffffffffffffffffffffffffffffffffff1681526020019081526020016000206000828254611fcc9190614933565b92505081905550612095600560008473ffffffffffffffffffffffffffffffffffffffff1673ffffffffffffffffffffffffffffffffffffffff168152602001908152602001600020548473__OptionLib_____________________________631b4fb86990916040518263ffffffff1660e01b815260040161204f9190614669565b602060405180830381865af415801561206c573d6000803e3d6000fd5b505050506040513d601f19601f8201168201806040525081019061209091906143df565b612e8c565b600560008473ffffffffffffffffffffffffffffffffffffffff1673ffffffffffffffffffffffffffffffffffffffff16815260200190815260200160002060008282546120e39190614933565b9250508190555060038360000160026101000a81548160ff0219169083600381111561211257612111613623565b5b02179055504283600601819055505050505050565b60076020528060005260406000206000915090505481565b60066020528060005260406000206000915090505481565b60606121dd600260008573ffffffffffffffffffffffffffffffffffffffff1673ffffffffffffffffffffffffffffffffffffffff16815260200190815260200160002060008473ffffffffffffffffffffffffffffffffffffffff1673ffffffffffffffffffffffffffffffffffffffff168152602001908152602001600020612ebf565b905092915050565b60046020528060005260406000206000915090505481565b600080600080600185815481106122175761221661417f565b5b90600052602060002090600e0201600d0160009054906101000a900473ffffffffffffffffffffffffffffffffffffffff16905060008173ffffffffffffffffffffffffffffffffffffffff16631f21f9af6040518163ffffffff1660e01b8152600401602060405180830381865afa158015612298573d6000803e3d6000fd5b505050506040513d601f19601f820116820180604052508101906122bc91906141c3565b73ffffffffffffffffffffffffffffffffffffffff1663c0a16f6a6040518163ffffffff1660e01b8152600401602060405180830381865afa158015612306573d6000803e3d6000fd5b505050506040513d601f19601f8201168201806040525081019061232a9190614704565b9050600186815481106123405761233f61417f565b5b90600052602060002090600e020173__OptionLib_____________________________63357aa1df90918373ffffffffffffffffffffffffffffffffffffffff1663b0667cf86040518163ffffffff1660e01b8152600401602060405180830381865afa1580156123b5573d6000803e3d6000fd5b505050506040513d601f19601f820116820180604052508101906123d991906143df565b6040518363ffffffff1660e01b81526004016123f69291906149fb565b606060405180830381865af4158015612413573d6000803e3d6000fd5b505050506040513d601f19601f820116820180604052508101906124379190614a24565b94509450945050509193909250565b600080600084815260200190815260200160002060000160008373ffffffffffffffffffffffffffffffffffffffff1673ffffffffffffffffffffffffffffffffffffffff16815260200190815260200160002060009054906101000a900460ff16905092915050565b60056020528060005260406000206000915090505481565b600080612512600360008573ffffffffffffffffffffffffffffffffffffffff1673ffffffffffffffffffffffffffffffffffffffff168152602001908152602001600020612b56565b905060005b8181101561262b57600161257282600360008873ffffffffffffffffffffffffffffffffffffffff1673ffffffffffffffffffffffffffffffffffffffff168152602001908152602001600020612e5890919063ffffffff16565b815481106125835761258261417f565b5b90600052602060002090600e020173__OptionLib_____________________________63febf205490916040518263ffffffff1660e01b81526004016125c99190614669565b602060405180830381865af41580156125e6573d6000803e3d6000fd5b505050506040513d601f19601f8201168201806040525081019061260a91906148be565b15612618576001925061262b565b8080612623906148eb565b915050612517565b5050919050565b6000801b81565b7f10b261d3bc7a74f38949f9212b0336103474898eda034c06ae0a3e478dc0e4a581565b60007f10b261d3bc7a74f38949f9212b0336103474898eda034c06ae0a3e478dc0e4a56126918161268c612bd8565b612be0565b60008760e00151116126d8576040517f08c379a00000000000000000000000000000000000000000000000000000000081526004016126cf90614ac3565b60405180910390fd5b600180549050915060016040518061022001604052808960000151600181111561270557612704613623565b5b81526020018960200151600181111561272157612720613623565b5b81526020016000600381111561273a57612739613623565b5b8152602001896060015173ffffffffffffffffffffffffffffffffffffffff168152602001848152602001428152602001600081526020018960e00151815260200160008152602001600081526020018961014001518152602001868152602001896101800151815260200185815260200188815260200187815260200189610200015173ffffffffffffffffffffffffffffffffffffffff1681525090806001815401808255809150506001900390600052602060002090600e020160009091909190915060008201518160000160006101000a81548160ff0219169083600181111561282b5761282a613623565b5b021790555060208201518160000160016101000a81548160ff0219169083600181111561285b5761285a613623565b5b021790555060408201518160000160026101000a81548160ff0219169083600381111561288b5761288a613623565b5b021790555060608201518160000160036101000a81548173ffffffffffffffffffffffffffffffffffffffff021916908373ffffffffffffffffffffffffffffffffffffffff1602179055506080820151816001015560a0820151816002015560c0820151816003015560e08201518160040155610100820151816005015561012082015181600601556101408201518160070155610160820151816008015561018082015181600901556101a082015181600a01556101c082015181600b01556101e082015181600c015561020082015181600d0160006101000a81548173ffffffffffffffffffffffffffffffffffffffff021916908373ffffffffffffffffffffffffffffffffffffffff16021790555050505095945050505050565b6129b482610c32565b6129c5816129c0612bd8565b612be0565b6129cf8383612d77565b505050565b60008060008060018054905085106129eb57600080fd5b600185815481106129ff576129fe61417f565b5b90600052602060002090600e020160000160029054906101000a900460ff1660018681548110612a3257612a3161417f565b5b90600052602060002090600e020160000160019054906101000a900460ff1660018781548110612a6557612a6461417f565b5b90600052602060002090600e020160000160039054906101000a900473ffffffffffffffffffffffffffffffffffffffff1660018881548110612aab57612aaa61417f565b5b90600052602060002090600e0201600d0160009054906101000a900473ffffffffffffffffffffffffffffffffffffffff1693509350935093509193509193565b60007f01ffc9a7000000000000000000000000000000000000000000000000000000007bffffffffffffffffffffffffffffffffffffffffffffffffffffffff1916827bffffffffffffffffffffffffffffffffffffffffffffffffffffffff1916149050919050565b6000612b6482600001612ee0565b9050919050565b60007f7fffffffffffffffffffffffffffffffffffffffffffffffffffffffffffffff821115612bd0576040517f08c379a0000000000000000000000000000000000000000000000000000000008152600401612bc790614b55565b60405180910390fd5b819050919050565b600033905090565b612bea8282612446565b612c7957612c0f8173ffffffffffffffffffffffffffffffffffffffff166014612ef1565b612c1d8360001c6020612ef1565b604051602001612c2e929190614c87565b6040516020818303038152906040526040517f08c379a0000000000000000000000000000000000000000000000000000000008152600401612c709190614cfa565b60405180910390fd5b5050565b6000612c8f836000018360001b61312d565b905092915050565b612ca18282612446565b612d7357600160008084815260200190815260200160002060000160008373ffffffffffffffffffffffffffffffffffffffff1673ffffffffffffffffffffffffffffffffffffffff16815260200190815260200160002060006101000a81548160ff021916908315150217905550612d18612bd8565b73ffffffffffffffffffffffffffffffffffffffff168173ffffffffffffffffffffffffffffffffffffffff16837f2f8788117e7eff1d82e926ec794901d17c78024a50270940304540a733656f0d60405160405180910390a45b5050565b612d818282612446565b15612e5457600080600084815260200190815260200160002060000160008373ffffffffffffffffffffffffffffffffffffffff1673ffffffffffffffffffffffffffffffffffffffff16815260200190815260200160002060006101000a81548160ff021916908315150217905550612df9612bd8565b73ffffffffffffffffffffffffffffffffffffffff168173ffffffffffffffffffffffffffffffffffffffff16837ff6391f5c32d9c69d2a47ea670b442974b53935d1edc7fd64eb21e047a839171b60405160405180910390a45b5050565b6000612e67836000018361319d565b60001c905092915050565b600081831015612e825781612e84565b825b905092915050565b6000818310612e9b5781612e9d565b825b905092915050565b6000612eb7836000018360001b6131c8565b905092915050565b60606000612ecf836000016132dc565b905060608190508092505050919050565b600081600001805490509050919050565b606060006002836002612f049190614d1c565b612f0e919061460c565b67ffffffffffffffff811115612f2757612f266138d9565b5b6040519080825280601f01601f191660200182016040528015612f595781602001600182028036833780820191505090505b5090507f300000000000000000000000000000000000000000000000000000000000000081600081518110612f9157612f9061417f565b5b60200101907effffffffffffffffffffffffffffffffffffffffffffffffffffffffffffff1916908160001a9053507f780000000000000000000000000000000000000000000000000000000000000081600181518110612ff557612ff461417f565b5b60200101907effffffffffffffffffffffffffffffffffffffffffffffffffffffffffffff1916908160001a905350600060018460026130359190614d1c565b61303f919061460c565b90505b60018111156130df577f3031323334353637383961626364656600000000000000000000000000000000600f8616601081106130815761308061417f565b5b1a60f81b8282815181106130985761309761417f565b5b60200101907effffffffffffffffffffffffffffffffffffffffffffffffffffffffffffff1916908160001a905350600485901c9450806130d890614d76565b9050613042565b5060008414613123576040517f08c379a000000000000000000000000000000000000000000000000000000000815260040161311a90614deb565b60405180910390fd5b8091505092915050565b60006131398383613338565b613192578260000182908060018154018082558091505060019003906000526020600020016000909190919091505582600001805490508360010160008481526020019081526020016000208190555060019050613197565b600090505b92915050565b60008260000182815481106131b5576131b461417f565b5b9060005260206000200154905092915050565b600080836001016000848152602001908152602001600020549050600081146132d05760006001826131fa9190614933565b90506000600186600001805490506132129190614933565b90508181146132815760008660000182815481106132335761323261417f565b5b90600052602060002001549050808760000184815481106132575761325661417f565b5b90600052602060002001819055508387600101600083815260200190815260200160002081905550505b8560000180548061329557613294614e0b565b5b6001900381819060005260206000200160009055905585600101600086815260200190815260200160002060009055600193505050506132d6565b60009150505b92915050565b60608160000180548060200260200160405190810160405280929190818152602001828054801561332c57602002820191906000526020600020905b815481526020019060010190808311613318575b50505050509050919050565b600080836001016000848152602001908152602001600020541415905092915050565b6040518061022001604052806000600181111561337b5761337a613623565b5b81526020016000600181111561339457613393613623565b5b8152602001600060038111156133ad576133ac613623565b5b8152602001600073ffffffffffffffffffffffffffffffffffffffff168152602001600081526020016000815260200160008152602001600081526020016000815260200160008152602001600081526020016000815260200160008152602001600081526020016000815260200160008152602001600073ffffffffffffffffffffffffffffffffffffffff1681525090565b6000604051905090565b600080fd5b60007fffffffff0000000000000000000000000000000000000000000000000000000082169050919050565b61348581613450565b811461349057600080fd5b50565b6000813590506134a28161347c565b92915050565b6000602082840312156134be576134bd61344b565b5b60006134cc84828501613493565b91505092915050565b60008115159050919050565b6134ea816134d5565b82525050565b600060208201905061350560008301846134e1565b92915050565b600073ffffffffffffffffffffffffffffffffffffffff82169050919050565b60006135368261350b565b9050919050565b6135468161352b565b811461355157600080fd5b50565b6000813590506135638161353d565b92915050565b60006020828403121561357f5761357e61344b565b5b600061358d84828501613554565b91505092915050565b6000819050919050565b6135a981613596565b82525050565b60006020820190506135c460008301846135a0565b92915050565b6135d381613596565b81146135de57600080fd5b50565b6000813590506135f0816135ca565b92915050565b60006020828403121561360c5761360b61344b565b5b600061361a848285016135e1565b91505092915050565b7f4e487b7100000000000000000000000000000000000000000000000000000000600052602160045260246000fd5b6002811061366357613662613623565b5b50565b600081905061367482613652565b919050565b600061368482613666565b9050919050565b61369481613679565b82525050565b600281106136ab576136aa613623565b5b50565b60008190506136bc8261369a565b919050565b60006136cc826136ae565b9050919050565b6136dc816136c1565b82525050565b600481106136f3576136f2613623565b5b50565b6000819050613704826136e2565b919050565b6000613714826136f6565b9050919050565b61372481613709565b82525050565b6137338161352b565b82525050565b61374281613596565b82525050565b6102208201600082015161375f600085018261368b565b50602082015161377260208501826136d3565b506040820151613785604085018261371b565b506060820151613798606085018261372a565b5060808201516137ab6080850182613739565b5060a08201516137be60a0850182613739565b5060c08201516137d160c0850182613739565b5060e08201516137e460e0850182613739565b506101008201516137f9610100850182613739565b5061012082015161380e610120850182613739565b50610140820151613823610140850182613739565b50610160820151613838610160850182613739565b5061018082015161384d610180850182613739565b506101a08201516138626101a0850182613739565b506101c08201516138776101c0850182613739565b506101e082015161388c6101e0850182613739565b506102008201516138a161020085018261372a565b50505050565b6000610220820190506138bd6000830184613748565b92915050565b600080fd5b6000601f19601f8301169050919050565b7f4e487b7100000000000000000000000000000000000000000000000000000000600052604160045260246000fd5b613911826138c8565b810181811067ffffffffffffffff821117156139305761392f6138d9565b5b80604052505050565b6000613943613441565b905061394f8282613908565b919050565b6002811061396157600080fd5b50565b60008135905061397381613954565b92915050565b6002811061398657600080fd5b50565b60008135905061399881613979565b92915050565b600481106139ab57600080fd5b50565b6000813590506139bd8161399e565b92915050565b600061022082840312156139da576139d96138c3565b5b6139e5610220613939565b905060006139f584828501613964565b6000830152506020613a0984828501613989565b6020830152506040613a1d848285016139ae565b6040830152506060613a3184828501613554565b6060830152506080613a45848285016135e1565b60808301525060a0613a59848285016135e1565b60a08301525060c0613a6d848285016135e1565b60c08301525060e0613a81848285016135e1565b60e083015250610100613a96848285016135e1565b61010083015250610120613aac848285016135e1565b61012083015250610140613ac2848285016135e1565b61014083015250610160613ad8848285016135e1565b61016083015250610180613aee848285016135e1565b610180830152506101a0613b04848285016135e1565b6101a0830152506101c0613b1a848285016135e1565b6101c0830152506101e0613b30848285016135e1565b6101e083015250610200613b4684828501613554565b6102008301525092915050565b613b5c816134d5565b8114613b6757600080fd5b50565b600081359050613b7981613b53565b92915050565b6000806102408385031215613b9757613b9661344b565b5b6000613ba5858286016139c3565b925050610220613bb785828601613b6a565b9150509250929050565b6000608082019050613bd660008301876135a0565b613be360208301866135a0565b613bf060408301856135a0565b613bfd60608301846135a0565b95945050505050565b6000819050919050565b613c1981613c06565b8114613c2457600080fd5b50565b600081359050613c3681613c10565b92915050565b600060208284031215613c5257613c5161344b565b5b6000613c6084828501613c27565b91505092915050565b613c7281613c06565b82525050565b6000602082019050613c8d6000830184613c69565b92915050565b60008060408385031215613caa57613ca961344b565b5b6000613cb8858286016135e1565b9250506020613cc985828601613554565b9150509250929050565b6000613cde8261352b565b9050919050565b613cee81613cd3565b8114613cf957600080fd5b50565b600081359050613d0b81613ce5565b92915050565b6000819050919050565b613d2481613d11565b8114613d2f57600080fd5b50565b600081359050613d4181613d1b565b92915050565b600080600080600060a08688031215613d6357613d6261344b565b5b6000613d7188828901613cfc565b9550506020613d82888289016135e1565b9450506040613d93888289016135e1565b9350506060613da488828901613d32565b9250506080613db588828901613d32565b9150509295509295909350565b6000604082019050613dd760008301856135a0565b613de460208301846135a0565b9392505050565b60008060408385031215613e0257613e0161344b565b5b6000613e1085828601613c27565b9250506020613e2185828601613554565b9150509250929050565b6000613e368261352b565b9050919050565b613e4681613e2b565b8114613e5157600080fd5b50565b600081359050613e6381613e3d565b92915050565b600080600060608486031215613e8257613e8161344b565b5b6000613e9086828701613e54565b9350506020613ea186828701613b6a565b9250506040613eb286828701613b6a565b9150509250925092565b60008060408385031215613ed357613ed261344b565b5b6000613ee185828601613554565b9250506020613ef285828601613554565b9150509250929050565b600081519050919050565b600082825260208201905092915050565b6000819050602082019050919050565b6000613f348383613739565b60208301905092915050565b6000602082019050919050565b6000613f5882613efc565b613f628185613f07565b9350613f6d83613f18565b8060005b83811015613f9e578151613f858882613f28565b9750613f9083613f40565b925050600181019050613f71565b5085935050505092915050565b60006020820190508181036000830152613fc58184613f4d565b905092915050565b613fd681613d11565b82525050565b6000602082019050613ff16000830184613fcd565b92915050565b600060608201905061400c60008301866135a0565b61401960208301856135a0565b61402660408301846135a0565b949350505050565b60008060008060006102a0868803121561404b5761404a61344b565b5b6000614059888289016139c3565b95505061022061406b888289016135e1565b94505061024061407d888289016135e1565b93505061026061408f888289016135e1565b9250506102806140a1888289016135e1565b9150509295509295909350565b6140b781613709565b82525050565b6140c6816136c1565b82525050565b6140d58161352b565b82525050565b6000819050919050565b60006141006140fb6140f68461350b565b6140db565b61350b565b9050919050565b6000614112826140e5565b9050919050565b600061412482614107565b9050919050565b61413481614119565b82525050565b600060808201905061414f60008301876140ae565b61415c60208301866140bd565b61416960408301856140cc565b614176606083018461412b565b95945050505050565b7f4e487b7100000000000000000000000000000000000000000000000000000000600052603260045260246000fd5b6000815190506141bd81613ce5565b92915050565b6000602082840312156141d9576141d861344b565b5b60006141e7848285016141ae565b91505092915050565b7f4e487b7100000000000000000000000000000000000000000000000000000000600052601160045260246000fd5b600061422a82613d11565b915061423583613d11565b9250827f7fffffffffffffffffffffffffffffffffffffffffffffffffffffffffffffff0482116000841360008413161615614274576142736141f0565b5b817f800000000000000000000000000000000000000000000000000000000000000005831260008412600084131616156142b1576142b06141f0565b5b827f800000000000000000000000000000000000000000000000000000000000000005821260008413600084121616156142ee576142ed6141f0565b5b827f7fffffffffffffffffffffffffffffffffffffffffffffffffffffffffffffff058212600084126000841216161561432b5761432a6141f0565b5b828202905092915050565b600061434182613d11565b915061434c83613d11565b9250817f7fffffffffffffffffffffffffffffffffffffffffffffffffffffffffffffff03831360008312151615614387576143866141f0565b5b817f80000000000000000000000000000000000000000000000000000000000000000383126000831216156143bf576143be6141f0565b5b828201905092915050565b6000815190506143d9816135ca565b92915050565b6000602082840312156143f5576143f461344b565b5b6000614403848285016143ca565b91505092915050565b61441581613679565b82525050565b614424816136c1565b82525050565b61443381613709565b82525050565b6144428161352b565b82525050565b61445181613596565b82525050565b6102208201600082015161446e600085018261440c565b506020820151614481602085018261441b565b506040820151614494604085018261442a565b5060608201516144a76060850182614439565b5060808201516144ba6080850182614448565b5060a08201516144cd60a0850182614448565b5060c08201516144e060c0850182614448565b5060e08201516144f360e0850182614448565b50610100820151614508610100850182614448565b5061012082015161451d610120850182614448565b50610140820151614532610140850182614448565b50610160820151614547610160850182614448565b5061018082015161455c610180850182614448565b506101a08201516145716101a0850182614448565b506101c08201516145866101c0850182614448565b506101e082015161459b6101e0850182614448565b506102008201516145b0610200850182614439565b50505050565b6145bf81613596565b82525050565b6000610240820190506145db6000830185614457565b6145e96102208301846145b6565b9392505050565b6000610220820190506146066000830184614457565b92915050565b600061461782613596565b915061462283613596565b9250827fffffffffffffffffffffffffffffffffffffffffffffffffffffffffffffffff03821115614657576146566141f0565b5b828201905092915050565b8082525050565b600060208201905061467e6000830184614662565b92915050565b60008151905061469381613d1b565b92915050565b6000602082840312156146af576146ae61344b565b5b60006146bd84828501614684565b91505092915050565b60006146d18261352b565b9050919050565b6146e1816146c6565b81146146ec57600080fd5b50565b6000815190506146fe816146d8565b92915050565b60006020828403121561471a5761471961344b565b5b6000614728848285016146ef565b91505092915050565b600061473c82614107565b9050919050565b61474c81614731565b82525050565b60006040820190506147676000830185614743565b61477460208301846145b6565b9392505050565b61478481613d11565b82525050565b600060a08201905061479f60008301886145b6565b6147ac602083018761477b565b6147b9604083018661477b565b6147c660608301856145b6565b6147d360808301846145b6565b9695505050505050565b60006040820190506147f260008301856145b6565b6147ff60208301846145b6565b9392505050565b600082825260208201905092915050565b7f416363657373436f6e74726f6c3a2063616e206f6e6c792072656e6f756e636560008201527f20726f6c657320666f722073656c660000000000000000000000000000000000602082015250565b6000614873602f83614806565b915061487e82614817565b604082019050919050565b600060208201905081810360008301526148a281614866565b9050919050565b6000815190506148b881613b53565b92915050565b6000602082840312156148d4576148d361344b565b5b60006148e2848285016148a9565b91505092915050565b60006148f682613596565b91507fffffffffffffffffffffffffffffffffffffffffffffffffffffffffffffffff8203614928576149276141f0565b5b600182019050919050565b600061493e82613596565b915061494983613596565b92508282101561495c5761495b6141f0565b5b828203905092915050565b600061497282613d11565b915061497d83613d11565b9250827f8000000000000000000000000000000000000000000000000000000000000000018212600084121516156149b8576149b76141f0565b5b827f7fffffffffffffffffffffffffffffffffffffffffffffffffffffffffffffff0182136000841216156149f0576149ef6141f0565b5b828203905092915050565b6000604082019050614a106000830185614662565b614a1d60208301846145b6565b9392505050565b600080600060608486031215614a3d57614a3c61344b565b5b6000614a4b868287016143ca565b9350506020614a5c868287016143ca565b9250506040614a6d868287016143ca565b9150509250925092565b7f5a65726f2074656e6f7200000000000000000000000000000000000000000000600082015250565b6000614aad600a83614806565b9150614ab882614a77565b602082019050919050565b60006020820190508181036000830152614adc81614aa0565b9050919050565b7f53616665436173743a2076616c756520646f65736e27742066697420696e206160008201527f6e20696e74323536000000000000000000000000000000000000000000000000602082015250565b6000614b3f602883614806565b9150614b4a82614ae3565b604082019050919050565b60006020820190508181036000830152614b6e81614b32565b9050919050565b600081905092915050565b7f416363657373436f6e74726f6c3a206163636f756e7420000000000000000000600082015250565b6000614bb6601783614b75565b9150614bc182614b80565b601782019050919050565b600081519050919050565b60005b83811015614bf5578082015181840152602081019050614bda565b83811115614c04576000848401525b50505050565b6000614c1582614bcc565b614c1f8185614b75565b9350614c2f818560208601614bd7565b80840191505092915050565b7f206973206d697373696e6720726f6c6520000000000000000000000000000000600082015250565b6000614c71601183614b75565b9150614c7c82614c3b565b601182019050919050565b6000614c9282614ba9565b9150614c9e8285614c0a565b9150614ca982614c64565b9150614cb58284614c0a565b91508190509392505050565b6000614ccc82614bcc565b614cd68185614806565b9350614ce6818560208601614bd7565b614cef816138c8565b840191505092915050565b60006020820190508181036000830152614d148184614cc1565b905092915050565b6000614d2782613596565b9150614d3283613596565b9250817fffffffffffffffffffffffffffffffffffffffffffffffffffffffffffffffff0483118215151615614d6b57614d6a6141f0565b5b828202905092915050565b6000614d8182613596565b915060008203614d9457614d936141f0565b5b600182039050919050565b7f537472696e67733a20686578206c656e67746820696e73756666696369656e74600082015250565b6000614dd5602083614806565b9150614de082614d9f565b602082019050919050565b60006020820190508181036000830152614e0481614dc8565b9050919050565b7f4e487b7100000000000000000000000000000000000000000000000000000000600052603160045260246000fdfea26469706673582212200317285c5d96bf10bf13901ce95144b5de223574090f850aa45bea438d81e7bd64736f6c634300080d0033",
  "immutableReferences": {},
  "source": "// SPDX-License-Identifier: MIT\npragma solidity ^0.8.4;\n\nimport \"@openzeppelin/contracts/access/AccessControl.sol\";\nimport \"@openzeppelin/contracts/utils/structs/EnumerableSet.sol\";\nimport \"./libraries/MarketLib.sol\";\nimport \"./libraries/OptionLib.sol\";\nimport \"./libraries/MathLib.sol\";\nimport \"./interfaces/EOption.sol\";\nimport \"./pools/Pool.sol\";\nimport \"./pools/MarketMaker.sol\";\nimport \"./VolatilityChain.sol\";\n\ncontract OptionVault is EOption, AccessControl{\n  using MathLib for uint256;\n  using MarketLib for uint256;\n  using OptionLib for OptionLib.Option;\n  using EnumerableSet for EnumerableSet.UintSet;\n  using EnumerableSet for EnumerableSet.AddressSet;\n\n  bytes32 public constant EXCHANGE = keccak256(\"EXCHANGE\");\n  \n  // list of option contracts\n  OptionLib.Option[] internal aOption;\n  mapping(address=>mapping(address=> EnumerableSet.UintSet)) internal mHolderAtiveOption;\n  mapping(address=>EnumerableSet.UintSet) internal mActiveOption;\n  // mapping(address=>uint256) public mActiveContractCount = 0;\n  mapping(address=>int256) public mNetNotional;\n  mapping(address=>uint256) public mPutCollateral;\n  mapping(address=>uint256) public mDeltaAtZero;\n  mapping(address=>uint256) public mDeltaAtMax;\n\n  // immutable and constant values\n  uint256 internal constant BASE  = 1e18;\n  uint256 internal constant SCALING = 1e5;\n\n  // constructor\n  constructor(){\n    _setupRole(DEFAULT_ADMIN_ROLE, msg.sender); }\n\n  // function to add new option contracts, only executable by Exchange contract as owner\n  // arguments: tenor of option contracts (in seconds), strike (consistent with price source decimals), amount (consistent with underlying token decimals), option type (call or put), option side (buy or sell), premium (in funding token decimals), cost (in funding token decimals), price (in price source decimals), volatility (in default decimals 18), holder address\n  // return id of option contract\n  function addOption(OptionLib.Option memory _option, uint256 _premium, uint256 _collateral, uint256 _price, uint256 _vol) external onlyRole(EXCHANGE) returns(uint256 _id){\n    require(_option.tenor > 0, \"Zero tenor\");\n    _id = aOption.length;\n    // Arguments: option type, option side, contract status (default to draft), contract holder address, contract id, creation timestamp, effective timestamp (default to 0), tenor in seconds, maturity timestamp (default to 0), excersie timestamp (default to 0), amount or size of contract, current spot price, option strike, implied volatility, calculated premium and total cost including collaterals.\n    aOption.push(OptionLib.Option(_option.poType, _option.side, OptionLib.OptionStatus.Draft, _option.holder, _id, block.timestamp,  0, _option.tenor, 0,  0, _option.amount, _price, _option.strike, _vol, _premium, _collateral, _option.pool));}\n\n  // function to stamp option as an active contract, only executable by Exchange contract as owner\n  // arguments: contract id and holder address\n  function stampActiveOption(uint256 _id, address _holder) external onlyRole(EXCHANGE){\n    // update Option records\n    OptionLib.Option storage _option = aOption[_id];\n    _option.effectiveTime = block.timestamp;\n    _option.maturity = block.timestamp + _option.tenor;\n    _option.status = OptionLib.OptionStatus.Active;\n    \n    // update ownership and exposure records\n    address _poolAddress = _option.pool;\n    mNetNotional[_poolAddress] += _option.getNetNotional();\n    mPutCollateral[_poolAddress] += _option.sellPutCollateral();\n    mDeltaAtZero[_poolAddress] += _option.calcDeltaAtZero();\n    mDeltaAtMax[_poolAddress] += _option.calcDeltaAtMax();\n\n    mHolderAtiveOption[_poolAddress][_holder].add(_id);\n    mActiveOption[_poolAddress].add(_id);}\n\n  // function to stamp option as an expired contract, only executable by Exchange contract as owner\n  // arguments: contract id\n  function stampExpiredOption(uint256 _id)  external onlyRole(EXCHANGE){\n    // update Option records\n    OptionLib.Option storage _option = aOption[_id];\n    address _poolAddress = _option.pool;\n    address _holder = _option.holder;\n    mActiveOption[_poolAddress].remove(_id);\n    mHolderAtiveOption[_poolAddress][_holder].remove(_id);\n\n    mNetNotional[_poolAddress] -= _option.getNetNotional();\n    mDeltaAtZero[_poolAddress] -= Math.min(mDeltaAtZero[_poolAddress], _option.calcDeltaAtZero());\n    mDeltaAtMax[_poolAddress] -= Math.min(mDeltaAtMax[_poolAddress], _option.calcDeltaAtMax());\n    mPutCollateral[_poolAddress] -= Math.min(mPutCollateral[_poolAddress], _option.sellPutCollateral());\n   \n    _option.status = OptionLib.OptionStatus.Expired;\n    _option.exerciseTime = block.timestamp;}\n\n  // functions to get information of the option list -> ONLY USED in VIEW, gas cost unlimited\n  function getHolderOptions(address _pool, address _address) external view returns(uint256[] memory){\n    return mHolderAtiveOption[_pool][_address].values();}\n  function getOption(uint256 _id) external view returns(OptionLib.Option memory) {return aOption[_id];}\n  function getActiveOptionCount(address _poolAddress) external view returns(uint256) {return mActiveOption[_poolAddress].length();}\n\n  // function getHoldersOption(uint256 _index, address _address) external view returns(OptionLib.Option memory) {return aOption[activeOptionsPerOwner[_address].at(_index)];}\n  function getOptionInfo(uint256 _id) external view returns(OptionLib.OptionStatus, OptionLib.OptionSide, address, Pool) {\n    require(_id< aOption.length);\n    return (aOption[_id].status, aOption[_id].side, aOption[_id].holder, Pool(aOption[_id].pool));}\n\n  // functions to get the hedging inputs\n  // maximum hedges needed \n  // function getMaxHedge(Pool _pool) external view returns (uint256){\n  //   VolatilityChain _volChain = _pool.volChain();\n  //   address _poolAddress = address(_pool);\n  //   return Math.max(mDeltaAtZero[_poolAddress], mDeltaAtMax[_poolAddress]).ethmul(_volChain.queryPrice());}\n\n  // aggregate delta of all active contracts, optional including expiring contracts yet stamped as Expired. Arguments: spot price and whether to include expiring contracts\n  // function calculateAggregateDelta(address _pool, uint256 _price, bool _includeExpiring) public view returns(int256 _delta){\n  //   _delta= 0;\n  //   for(uint256 i=0;i<activeContractCount;i++){\n  //     OptionLib.Option storage _option = aOption[uint256(activeOptions.at(i))];\n  //     uint256 _maturityLeft = _option.calcRemainingMaturity();\n  //     uint256 _vol = volChain.queryVol(_maturityLeft);\n  //     _delta += _option.calcDelta(_price, _vol, _includeExpiring);}}\n  \n  // aggregate gamma. Arguments: spot price\n  // function calculateAggregateGamma(address _pool, uint256 _price) external view returns(int256 _gamma){\n  //   _gamma= 0;\n  //   for(uint256 i=0;i<activeContractCount;i++){\n  //     uint256 _id = uint256(activeOptions.at(i));\n  //     if(aOption[_id].status== OptionLib.OptionStatus.Active  && (aOption[_id].maturity > block.timestamp)){\n  //       uint256 _vol = volChain.queryVol(aOption[_id].maturity - block.timestamp);\n  //       int256 _contractGamma = SafeCast.toInt256(OptionLib.calcGamma(_price, aOption[_id].strike, _vol).ethmul(aOption[_id].amount));\n  //       if(aOption[_id].side==OptionLib.OptionSide.Sell){ _gamma -= _contractGamma;}\n  //       else{_gamma += _contractGamma;}}}}\n\n  // hypothetical gamma assuming at the money and 1-day expiry\n  // function calculateSpotGamma() external view returns(int256 _gamma){\n  //   uint256 _vol = volChain.queryVol(86400);\n  //   _gamma = SafeCast.toInt256(OptionLib.calcGamma(BASE, BASE, _vol));}\n\n  // functions used in expiring option contracts\n  // contract payoff of specified contract ID\n  function getContractPayoff(uint256 _id) external view returns(uint256 _payoff, uint256 _payback, uint256 _collateral){\n    Pool _pool = Pool(aOption[_id].pool);\n    VolatilityChain _volChain = _pool.marketMaker().getVolatilityChain();\n    return aOption[_id].calcPayoff(_volChain.queryPrice());}\n    \n  // check if any option contract is expiring\n  function anyOptionExpiring(address _poolAddress) external view returns(bool _isExpiring) {\n    _isExpiring = false;\n    uint256 _count = mActiveOption[_poolAddress].length();\n    for(uint256 i=0;i<_count;i++){\n      if(aOption[uint256(mActiveOption[_poolAddress].at(i))].isExpiring()){\n        _isExpiring = true;\n        break;}}}\n  // get the id of any expiring contract -> please only run it on view function as it has unlimited gas usage.\n  function getExpiringOptionId(address _poolAddress) external view returns(uint256 _id){\n    // uint256[] memory _id;\n    uint256 _count = mActiveOption[_poolAddress].length();\n    for(uint256 i=0;i<_count;i++){\n      uint256 _id_i = uint256(mActiveOption[_poolAddress].at(i));\n      if(aOption[_id_i].isExpiring()){\n        _id = _id_i;\n        break;}}}\n\n  function calcOptionCost(OptionLib.Option memory _option, bool _forceATM) public view returns(uint256 _premium, uint256 _collateral, uint256 _price, uint256 _vol){\n    Pool _pool = Pool(_option.pool);\n    MarketMaker _market = _pool.marketMaker();\n\n    int256 _newNetNotional = mNetNotional[_option.pool] + SafeCast.toInt256(_option.amount) * (_option.side==OptionLib.OptionSide.Sell? -1: int(1));\n    (_price, _vol) = calcImpliedVol(_market, _option.tenor, _pool.volCapacityFactor(), mNetNotional[_option.pool], _newNetNotional);\n    _option.spot = _price;\n    _option.volatility = _vol;\n    if (_forceATM){_option.strike = _price;}\n\n    _premium = _option.calcPremium(_market.loanInterest());\n    _collateral = _option.calcCollateral();}\n\n  function calcImpliedVol(MarketMaker _market, uint256 _tenor, uint256 _volCapacityFactor, int256 _currentNetNotional, int256 _newNetNotional) public view returns(uint256, uint256){\n    VolatilityChain _volChain = _market.getVolatilityChain();\n    uint256 _price = _volChain.queryPrice();\n    uint256 _impVol = MarketLib.calcRiskPremium(MarketLib.getGrossCapital(_market, _price), _currentNetNotional, _newNetNotional, _volChain.queryVol(_tenor), _volCapacityFactor);\n    return (_price, _impVol.ethmul(_volChain.getSqrtRatio(_tenor)));}\n    \n  // functions related to capital calculation, addition and removals\n  // calculate capitals. Arguments: net for net capital (removing all collaterals and max exposures of option contracts) or gross (including all exposures in the underlying and funding tokens), average for average capital (total divided by number of Pool tokens) or gross (not divided by tokens)\n  function calcCapital(Pool _pool, bool _net, bool _average) external view returns(uint256){\n    MarketMaker _market = _pool.marketMaker();\n    VolatilityChain _volChain = _market.getVolatilityChain();\n    uint256 _price = _volChain.queryPrice();\n    uint256 _capital = MarketLib.getGrossCapital(_market, _price);\n    address _poolAddress = address(_pool);\n\n    if(_net){ \n      uint256 _maxHedge = Math.max(mDeltaAtZero[_poolAddress], mDeltaAtMax[_poolAddress]).ethmul(_price);\n      _capital -= Math.min(_maxHedge + mPutCollateral[_poolAddress], _capital);}\n\n    if(_average){ \n      uint256 _poolSupply = _pool.totalSupply();\n      if(_poolSupply > 0) {\n        _capital = _capital.ethdiv(_poolSupply); }\n      else if(_poolSupply == 0 && _capital == 0) {\n        _capital = BASE;}}\n    \n    return _capital;}\n}\n",
  "sourcePath": "/Users/mac/Documents/GitHub/moret/contracts/OptionVault.sol",
  "compiler": {
    "name": "solc",
    "version": "0.8.13+commit.abaa5c0e.Emscripten.clang"
  },
  "schemaVersion": "3.4.3",
  "updatedAt": "2022-05-09T22:27:03.513Z",
  "devdoc": {
    "kind": "dev",
    "methods": {
      "getRoleAdmin(bytes32)": {
        "details": "Returns the admin role that controls `role`. See {grantRole} and {revokeRole}. To change a role's admin, use {_setRoleAdmin}."
      },
      "grantRole(bytes32,address)": {
        "details": "Grants `role` to `account`. If `account` had not been already granted `role`, emits a {RoleGranted} event. Requirements: - the caller must have ``role``'s admin role."
      },
      "hasRole(bytes32,address)": {
        "details": "Returns `true` if `account` has been granted `role`."
      },
      "renounceRole(bytes32,address)": {
        "details": "Revokes `role` from the calling account. Roles are often managed via {grantRole} and {revokeRole}: this function's purpose is to provide a mechanism for accounts to lose their privileges if they are compromised (such as when a trusted device is misplaced). If the calling account had been revoked `role`, emits a {RoleRevoked} event. Requirements: - the caller must be `account`."
      },
      "revokeRole(bytes32,address)": {
        "details": "Revokes `role` from `account`. If `account` had been granted `role`, emits a {RoleRevoked} event. Requirements: - the caller must have ``role``'s admin role."
      },
      "supportsInterface(bytes4)": {
        "details": "See {IERC165-supportsInterface}."
      }
    },
    "version": 1
  },
  "userdoc": {
    "kind": "user",
    "methods": {},
    "version": 1
  }
}