{
  "contractName": "OptionVault",
  "abi": [
    {
      "inputs": [
        {
          "internalType": "contract VolatilityChain",
          "name": "_volChain",
          "type": "address"
        },
        {
          "internalType": "contract ERC20",
          "name": "_underlying",
          "type": "address"
        },
        {
          "internalType": "contract ERC20",
          "name": "_funding",
          "type": "address"
        },
        {
          "internalType": "contract ILendingPoolAddressesProvider",
          "name": "_aaveAddress",
          "type": "address"
        }
      ],
      "stateMutability": "nonpayable",
      "type": "constructor"
    },
    {
      "anonymous": false,
      "inputs": [
        {
          "indexed": true,
          "internalType": "address",
          "name": "_purchaser",
          "type": "address"
        },
        {
          "indexed": false,
          "internalType": "uint256",
          "name": "_id",
          "type": "uint256"
        },
        {
          "indexed": false,
          "internalType": "uint256",
          "name": "_payoff",
          "type": "uint256"
        }
      ],
      "name": "Expire",
      "type": "event"
    },
    {
      "anonymous": false,
      "inputs": [
        {
          "indexed": true,
          "internalType": "address",
          "name": "_purchaser",
          "type": "address"
        },
        {
          "indexed": false,
          "internalType": "uint256",
          "name": "_id",
          "type": "uint256"
        },
        {
          "indexed": false,
          "internalType": "uint256",
          "name": "_cost",
          "type": "uint256"
        },
        {
          "indexed": false,
          "internalType": "bool",
          "name": "_inVol",
          "type": "bool"
        }
      ],
      "name": "NewOption",
      "type": "event"
    },
    {
      "anonymous": false,
      "inputs": [
        {
          "indexed": true,
          "internalType": "uint256",
          "name": "_addressId",
          "type": "uint256"
        },
        {
          "indexed": false,
          "internalType": "address",
          "name": "_address",
          "type": "address"
        }
      ],
      "name": "ResetAddress",
      "type": "event"
    },
    {
      "anonymous": false,
      "inputs": [
        {
          "indexed": true,
          "internalType": "uint256",
          "name": "_parameterId",
          "type": "uint256"
        },
        {
          "indexed": false,
          "internalType": "uint256",
          "name": "_parameter",
          "type": "uint256"
        }
      ],
      "name": "ResetParameter",
      "type": "event"
    },
    {
      "anonymous": false,
      "inputs": [
        {
          "indexed": false,
          "internalType": "bool",
          "name": "success",
          "type": "bool"
        },
        {
          "indexed": false,
          "internalType": "bytes",
          "name": "data",
          "type": "bytes"
        }
      ],
      "name": "Response",
      "type": "event"
    },
    {
      "anonymous": false,
      "inputs": [
        {
          "indexed": true,
          "internalType": "bytes32",
          "name": "role",
          "type": "bytes32"
        },
        {
          "indexed": true,
          "internalType": "bytes32",
          "name": "previousAdminRole",
          "type": "bytes32"
        },
        {
          "indexed": true,
          "internalType": "bytes32",
          "name": "newAdminRole",
          "type": "bytes32"
        }
      ],
      "name": "RoleAdminChanged",
      "type": "event"
    },
    {
      "anonymous": false,
      "inputs": [
        {
          "indexed": true,
          "internalType": "bytes32",
          "name": "role",
          "type": "bytes32"
        },
        {
          "indexed": true,
          "internalType": "address",
          "name": "account",
          "type": "address"
        },
        {
          "indexed": true,
          "internalType": "address",
          "name": "sender",
          "type": "address"
        }
      ],
      "name": "RoleGranted",
      "type": "event"
    },
    {
      "anonymous": false,
      "inputs": [
        {
          "indexed": true,
          "internalType": "bytes32",
          "name": "role",
          "type": "bytes32"
        },
        {
          "indexed": true,
          "internalType": "address",
          "name": "account",
          "type": "address"
        },
        {
          "indexed": true,
          "internalType": "address",
          "name": "sender",
          "type": "address"
        }
      ],
      "name": "RoleRevoked",
      "type": "event"
    },
    {
      "anonymous": false,
      "inputs": [
        {
          "indexed": true,
          "internalType": "uint256",
          "name": "_id",
          "type": "uint256"
        },
        {
          "indexed": false,
          "internalType": "uint256",
          "name": "_timestamp",
          "type": "uint256"
        }
      ],
      "name": "StampExpire",
      "type": "event"
    },
    {
      "anonymous": false,
      "inputs": [
        {
          "indexed": true,
          "internalType": "uint256",
          "name": "_id",
          "type": "uint256"
        },
        {
          "indexed": false,
          "internalType": "uint256",
          "name": "_timestamp",
          "type": "uint256"
        }
      ],
      "name": "StampNewOption",
      "type": "event"
    },
    {
      "anonymous": false,
      "inputs": [
        {
          "indexed": true,
          "internalType": "uint256",
          "name": "_tenor",
          "type": "uint256"
        },
        {
          "indexed": false,
          "internalType": "address",
          "name": "_tokenAddress",
          "type": "address"
        }
      ],
      "name": "VolTokenAddition",
      "type": "event"
    },
    {
      "anonymous": false,
      "inputs": [
        {
          "indexed": true,
          "internalType": "uint256",
          "name": "_tenor",
          "type": "uint256"
        }
      ],
      "name": "VolTokenRemoved",
      "type": "event"
    },
    {
      "inputs": [],
      "name": "DEFAULT_ADMIN_ROLE",
      "outputs": [
        {
          "internalType": "bytes32",
          "name": "",
          "type": "bytes32"
        }
      ],
      "stateMutability": "view",
      "type": "function",
      "constant": true
    },
    {
      "inputs": [],
      "name": "EXCHANGE_ROLE",
      "outputs": [
        {
          "internalType": "bytes32",
          "name": "",
          "type": "bytes32"
        }
      ],
      "stateMutability": "view",
      "type": "function",
      "constant": true
    },
    {
      "inputs": [],
      "name": "aaveAddress",
      "outputs": [
        {
          "internalType": "contract ILendingPoolAddressesProvider",
          "name": "",
          "type": "address"
        }
      ],
      "stateMutability": "view",
      "type": "function",
      "constant": true
    },
    {
      "inputs": [],
      "name": "activeContractCount",
      "outputs": [
        {
          "internalType": "uint256",
          "name": "",
          "type": "uint256"
        }
      ],
      "stateMutability": "view",
      "type": "function",
      "constant": true
    },
    {
      "inputs": [],
      "name": "deltaAtMax",
      "outputs": [
        {
          "internalType": "uint256",
          "name": "",
          "type": "uint256"
        }
      ],
      "stateMutability": "view",
      "type": "function",
      "constant": true
    },
    {
      "inputs": [],
      "name": "deltaAtZero",
      "outputs": [
        {
          "internalType": "uint256",
          "name": "",
          "type": "uint256"
        }
      ],
      "stateMutability": "view",
      "type": "function",
      "constant": true
    },
    {
      "inputs": [],
      "name": "funding",
      "outputs": [
        {
          "internalType": "contract ERC20",
          "name": "",
          "type": "address"
        }
      ],
      "stateMutability": "view",
      "type": "function",
      "constant": true
    },
    {
      "inputs": [
        {
          "internalType": "bytes32",
          "name": "role",
          "type": "bytes32"
        }
      ],
      "name": "getRoleAdmin",
      "outputs": [
        {
          "internalType": "bytes32",
          "name": "",
          "type": "bytes32"
        }
      ],
      "stateMutability": "view",
      "type": "function",
      "constant": true
    },
    {
      "inputs": [
        {
          "internalType": "bytes32",
          "name": "role",
          "type": "bytes32"
        },
        {
          "internalType": "address",
          "name": "account",
          "type": "address"
        }
      ],
      "name": "grantRole",
      "outputs": [],
      "stateMutability": "nonpayable",
      "type": "function"
    },
    {
      "inputs": [
        {
          "internalType": "bytes32",
          "name": "role",
          "type": "bytes32"
        },
        {
          "internalType": "address",
          "name": "account",
          "type": "address"
        }
      ],
      "name": "hasRole",
      "outputs": [
        {
          "internalType": "bool",
          "name": "",
          "type": "bool"
        }
      ],
      "stateMutability": "view",
      "type": "function",
      "constant": true
    },
    {
      "inputs": [],
      "name": "overCollateral",
      "outputs": [
        {
          "internalType": "uint256",
          "name": "",
          "type": "uint256"
        }
      ],
      "stateMutability": "view",
      "type": "function",
      "constant": true
    },
    {
      "inputs": [
        {
          "internalType": "bytes32",
          "name": "role",
          "type": "bytes32"
        },
        {
          "internalType": "address",
          "name": "account",
          "type": "address"
        }
      ],
      "name": "renounceRole",
      "outputs": [],
      "stateMutability": "nonpayable",
      "type": "function"
    },
    {
      "inputs": [
        {
          "internalType": "bytes32",
          "name": "role",
          "type": "bytes32"
        },
        {
          "internalType": "address",
          "name": "account",
          "type": "address"
        }
      ],
      "name": "revokeRole",
      "outputs": [],
      "stateMutability": "nonpayable",
      "type": "function"
    },
    {
      "inputs": [],
      "name": "sellPutCollaterals",
      "outputs": [
        {
          "internalType": "uint256",
          "name": "",
          "type": "uint256"
        }
      ],
      "stateMutability": "view",
      "type": "function",
      "constant": true
    },
    {
      "inputs": [
        {
          "internalType": "bytes4",
          "name": "interfaceId",
          "type": "bytes4"
        }
      ],
      "name": "supportsInterface",
      "outputs": [
        {
          "internalType": "bool",
          "name": "",
          "type": "bool"
        }
      ],
      "stateMutability": "view",
      "type": "function",
      "constant": true
    },
    {
      "inputs": [],
      "name": "underlying",
      "outputs": [
        {
          "internalType": "contract ERC20",
          "name": "",
          "type": "address"
        }
      ],
      "stateMutability": "view",
      "type": "function",
      "constant": true
    },
    {
      "inputs": [
        {
          "internalType": "uint256",
          "name": "_tenor",
          "type": "uint256"
        },
        {
          "internalType": "uint256",
          "name": "_strike",
          "type": "uint256"
        },
        {
          "internalType": "uint256",
          "name": "_amount",
          "type": "uint256"
        },
        {
          "internalType": "enum OptionLibrary.PayoffType",
          "name": "_poType",
          "type": "uint8"
        },
        {
          "internalType": "enum OptionLibrary.OptionSide",
          "name": "_side",
          "type": "uint8"
        },
        {
          "internalType": "uint256",
          "name": "_premium",
          "type": "uint256"
        },
        {
          "internalType": "uint256",
          "name": "_cost",
          "type": "uint256"
        },
        {
          "internalType": "uint256",
          "name": "_price",
          "type": "uint256"
        },
        {
          "internalType": "uint256",
          "name": "_volatility",
          "type": "uint256"
        },
        {
          "internalType": "address",
          "name": "_holder",
          "type": "address"
        }
      ],
      "name": "addOption",
      "outputs": [
        {
          "internalType": "uint256",
          "name": "_id",
          "type": "uint256"
        }
      ],
      "stateMutability": "nonpayable",
      "type": "function"
    },
    {
      "inputs": [
        {
          "internalType": "address",
          "name": "_address",
          "type": "address"
        }
      ],
      "name": "getHoldersOptionCount",
      "outputs": [
        {
          "internalType": "uint256",
          "name": "",
          "type": "uint256"
        }
      ],
      "stateMutability": "view",
      "type": "function",
      "constant": true
    },
    {
      "inputs": [
        {
          "internalType": "uint256",
          "name": "_index",
          "type": "uint256"
        },
        {
          "internalType": "address",
          "name": "_address",
          "type": "address"
        }
      ],
      "name": "getHoldersOption",
      "outputs": [
        {
          "components": [
            {
              "internalType": "enum OptionLibrary.PayoffType",
              "name": "poType",
              "type": "uint8"
            },
            {
              "internalType": "enum OptionLibrary.OptionSide",
              "name": "side",
              "type": "uint8"
            },
            {
              "internalType": "enum OptionLibrary.OptionStatus",
              "name": "status",
              "type": "uint8"
            },
            {
              "internalType": "address",
              "name": "holder",
              "type": "address"
            },
            {
              "internalType": "uint256",
              "name": "id",
              "type": "uint256"
            },
            {
              "internalType": "uint256",
              "name": "createTime",
              "type": "uint256"
            },
            {
              "internalType": "uint256",
              "name": "effectiveTime",
              "type": "uint256"
            },
            {
              "internalType": "uint256",
              "name": "tenor",
              "type": "uint256"
            },
            {
              "internalType": "uint256",
              "name": "maturity",
              "type": "uint256"
            },
            {
              "internalType": "uint256",
              "name": "exerciseTime",
              "type": "uint256"
            },
            {
              "internalType": "uint256",
              "name": "amount",
              "type": "uint256"
            },
            {
              "internalType": "uint256",
              "name": "spot",
              "type": "uint256"
            },
            {
              "internalType": "uint256",
              "name": "strike",
              "type": "uint256"
            },
            {
              "internalType": "uint256",
              "name": "volatility",
              "type": "uint256"
            },
            {
              "internalType": "uint256",
              "name": "premium",
              "type": "uint256"
            },
            {
              "internalType": "uint256",
              "name": "cost",
              "type": "uint256"
            }
          ],
          "internalType": "struct OptionLibrary.Option",
          "name": "",
          "type": "tuple"
        }
      ],
      "stateMutability": "view",
      "type": "function",
      "constant": true
    },
    {
      "inputs": [
        {
          "internalType": "uint256",
          "name": "_id",
          "type": "uint256"
        }
      ],
      "name": "getOptionInfo",
      "outputs": [
        {
          "internalType": "enum OptionLibrary.OptionStatus",
          "name": "",
          "type": "uint8"
        },
        {
          "internalType": "enum OptionLibrary.OptionSide",
          "name": "",
          "type": "uint8"
        },
        {
          "internalType": "address",
          "name": "",
          "type": "address"
        }
      ],
      "stateMutability": "view",
      "type": "function",
      "constant": true
    },
    {
      "inputs": [
        {
          "internalType": "address",
          "name": "_address",
          "type": "address"
        }
      ],
      "name": "getGrossCapital",
      "outputs": [
        {
          "internalType": "uint256",
          "name": "_capital",
          "type": "uint256"
        }
      ],
      "stateMutability": "view",
      "type": "function",
      "constant": true
    },
    {
      "inputs": [],
      "name": "getMaxHedge",
      "outputs": [
        {
          "internalType": "uint256",
          "name": "",
          "type": "uint256"
        }
      ],
      "stateMutability": "view",
      "type": "function",
      "constant": true
    },
    {
      "inputs": [
        {
          "internalType": "uint256",
          "name": "_id",
          "type": "uint256"
        }
      ],
      "name": "getContractPayoff",
      "outputs": [
        {
          "internalType": "uint256",
          "name": "_payoff",
          "type": "uint256"
        },
        {
          "internalType": "uint256",
          "name": "_payback",
          "type": "uint256"
        }
      ],
      "stateMutability": "view",
      "type": "function",
      "constant": true
    },
    {
      "inputs": [
        {
          "internalType": "uint256",
          "name": "_price",
          "type": "uint256"
        },
        {
          "internalType": "bool",
          "name": "_includeExpiring",
          "type": "bool"
        }
      ],
      "name": "calculateAggregateDelta",
      "outputs": [
        {
          "internalType": "int256",
          "name": "_delta",
          "type": "int256"
        }
      ],
      "stateMutability": "view",
      "type": "function",
      "constant": true
    },
    {
      "inputs": [
        {
          "internalType": "uint256",
          "name": "_id",
          "type": "uint256"
        },
        {
          "internalType": "uint256",
          "name": "_price",
          "type": "uint256"
        }
      ],
      "name": "calculateContractGamma",
      "outputs": [
        {
          "internalType": "int256",
          "name": "_gamma",
          "type": "int256"
        }
      ],
      "stateMutability": "view",
      "type": "function",
      "constant": true
    },
    {
      "inputs": [],
      "name": "calculateAggregateGamma",
      "outputs": [
        {
          "internalType": "int256",
          "name": "_gamma",
          "type": "int256"
        }
      ],
      "stateMutability": "view",
      "type": "function",
      "constant": true
    },
    {
      "inputs": [],
      "name": "calculateSpotGamma",
      "outputs": [
        {
          "internalType": "int256",
          "name": "_gamma",
          "type": "int256"
        }
      ],
      "stateMutability": "view",
      "type": "function",
      "constant": true
    },
    {
      "inputs": [],
      "name": "anyOptionExpiring",
      "outputs": [
        {
          "internalType": "bool",
          "name": "_isExpiring",
          "type": "bool"
        }
      ],
      "stateMutability": "view",
      "type": "function",
      "constant": true
    },
    {
      "inputs": [],
      "name": "getExpiringOptionId",
      "outputs": [
        {
          "internalType": "uint256",
          "name": "_id",
          "type": "uint256"
        }
      ],
      "stateMutability": "view",
      "type": "function",
      "constant": true
    },
    {
      "inputs": [
        {
          "internalType": "uint256",
          "name": "_id",
          "type": "uint256"
        },
        {
          "internalType": "address",
          "name": "_holder",
          "type": "address"
        }
      ],
      "name": "stampActiveOption",
      "outputs": [],
      "stateMutability": "nonpayable",
      "type": "function"
    },
    {
      "inputs": [
        {
          "internalType": "uint256",
          "name": "_id",
          "type": "uint256"
        }
      ],
      "name": "stampExpiredOption",
      "outputs": [],
      "stateMutability": "nonpayable",
      "type": "function"
    },
    {
      "inputs": [
        {
          "internalType": "address",
          "name": "_address",
          "type": "address"
        },
        {
          "internalType": "uint256",
          "name": "_swapSlippage",
          "type": "uint256"
        }
      ],
      "name": "calcSwapTradesInTok",
      "outputs": [
        {
          "internalType": "int256",
          "name": "_tradeUnderlyingAmount",
          "type": "int256"
        },
        {
          "internalType": "int256",
          "name": "_tradeFundingAmount",
          "type": "int256"
        }
      ],
      "stateMutability": "view",
      "type": "function",
      "constant": true
    },
    {
      "inputs": [
        {
          "internalType": "address",
          "name": "_address",
          "type": "address"
        }
      ],
      "name": "getBalances",
      "outputs": [
        {
          "internalType": "uint256",
          "name": "_underlyingBalance",
          "type": "uint256"
        },
        {
          "internalType": "uint256",
          "name": "_fundingBalance",
          "type": "uint256"
        },
        {
          "internalType": "uint256",
          "name": "_collateralBalance",
          "type": "uint256"
        },
        {
          "internalType": "uint256",
          "name": "_debtBalance",
          "type": "uint256"
        }
      ],
      "stateMutability": "view",
      "type": "function",
      "constant": true
    },
    {
      "inputs": [
        {
          "internalType": "address",
          "name": "_address",
          "type": "address"
        },
        {
          "internalType": "uint256",
          "name": "_lendingPoolRateMode",
          "type": "uint256"
        }
      ],
      "name": "calcLoanRepaymentInTok",
      "outputs": [
        {
          "internalType": "uint256",
          "name": "_repayAmount",
          "type": "uint256"
        },
        {
          "internalType": "uint256",
          "name": "_repaySwapValue",
          "type": "uint256"
        }
      ],
      "stateMutability": "view",
      "type": "function",
      "constant": true
    },
    {
      "inputs": [
        {
          "internalType": "address",
          "name": "_address",
          "type": "address"
        },
        {
          "internalType": "uint256",
          "name": "_lendingPoolRateMode",
          "type": "uint256"
        }
      ],
      "name": "calcLoanTradesInTok",
      "outputs": [
        {
          "internalType": "int256",
          "name": "_loanTradeAmount",
          "type": "int256"
        },
        {
          "internalType": "int256",
          "name": "_collateralChange",
          "type": "int256"
        },
        {
          "internalType": "address",
          "name": "_loanAddress",
          "type": "address"
        },
        {
          "internalType": "address",
          "name": "_collateralAddress",
          "type": "address"
        }
      ],
      "stateMutability": "view",
      "type": "function",
      "constant": true
    },
    {
      "inputs": [
        {
          "internalType": "uint256",
          "name": "_tenor",
          "type": "uint256"
        }
      ],
      "name": "queryVol",
      "outputs": [
        {
          "internalType": "uint256",
          "name": "",
          "type": "uint256"
        }
      ],
      "stateMutability": "view",
      "type": "function",
      "constant": true
    },
    {
      "inputs": [],
      "name": "queryPrice",
      "outputs": [
        {
          "internalType": "uint256",
          "name": "",
          "type": "uint256"
        },
        {
          "internalType": "uint256",
          "name": "",
          "type": "uint256"
        }
      ],
      "stateMutability": "view",
      "type": "function",
      "constant": true
    },
    {
      "inputs": [],
      "name": "tokenHash",
      "outputs": [
        {
          "internalType": "bytes32",
          "name": "",
          "type": "bytes32"
        }
      ],
      "stateMutability": "view",
      "type": "function",
      "constant": true
    },
    {
      "inputs": [
        {
          "internalType": "uint256",
          "name": "_overCollateral",
          "type": "uint256"
        }
      ],
      "name": "resetOverCollateral",
      "outputs": [],
      "stateMutability": "nonpayable",
      "type": "function"
    }
  ],
  "bytecode": "0x61014060405267016345785d8a000060055560006006556000600755600060085560006009553480156200003257600080fd5b5060405162005d0738038062005d078339818101604052810190620000589190620004f4565b6200006d6000801b336200027360201b60201c565b6200009f7f28d62fc77014de57a1bbaa8212ff0979fa61ab00d377b4b8d9762048fb419961336200027360201b60201c565b8373ffffffffffffffffffffffffffffffffffffffff1660808173ffffffffffffffffffffffffffffffffffffffff16815250508173ffffffffffffffffffffffffffffffffffffffff1660e08173ffffffffffffffffffffffffffffffffffffffff16815250508273ffffffffffffffffffffffffffffffffffffffff1660c08173ffffffffffffffffffffffffffffffffffffffff16815250508073ffffffffffffffffffffffffffffffffffffffff1660a08173ffffffffffffffffffffffffffffffffffffffff16815250508173ffffffffffffffffffffffffffffffffffffffff1663313ce5676040518163ffffffff1660e01b8152600401602060405180830381865afa158015620001bb573d6000803e3d6000fd5b505050506040513d601f19601f82011682018060405250810190620001e19190620005a4565b60ff1661010081815250508273ffffffffffffffffffffffffffffffffffffffff1663313ce5676040518163ffffffff1660e01b8152600401602060405180830381865afa15801562000238573d6000803e3d6000fd5b505050506040513d601f19601f820116820180604052508101906200025e9190620005a4565b60ff16610120818152505050505050620005d6565b6200028582826200028960201b60201c565b5050565b6200029b82826200037a60201b60201c565b6200037657600160008084815260200190815260200160002060000160008373ffffffffffffffffffffffffffffffffffffffff1673ffffffffffffffffffffffffffffffffffffffff16815260200190815260200160002060006101000a81548160ff0219169083151502179055506200031b620003e460201b60201c565b73ffffffffffffffffffffffffffffffffffffffff168173ffffffffffffffffffffffffffffffffffffffff16837f2f8788117e7eff1d82e926ec794901d17c78024a50270940304540a733656f0d60405160405180910390a45b5050565b600080600084815260200190815260200160002060000160008373ffffffffffffffffffffffffffffffffffffffff1673ffffffffffffffffffffffffffffffffffffffff16815260200190815260200160002060009054906101000a900460ff16905092915050565b600033905090565b600080fd5b600073ffffffffffffffffffffffffffffffffffffffff82169050919050565b60006200041e82620003f1565b9050919050565b6000620004328262000411565b9050919050565b620004448162000425565b81146200045057600080fd5b50565b600081519050620004648162000439565b92915050565b6000620004778262000411565b9050919050565b62000489816200046a565b81146200049557600080fd5b50565b600081519050620004a9816200047e565b92915050565b6000620004bc8262000411565b9050919050565b620004ce81620004af565b8114620004da57600080fd5b50565b600081519050620004ee81620004c3565b92915050565b60008060008060808587031215620005115762000510620003ec565b5b6000620005218782880162000453565b9450506020620005348782880162000498565b9350506040620005478782880162000498565b92505060606200055a87828801620004dd565b91505092959194509250565b600060ff82169050919050565b6200057e8162000566565b81146200058a57600080fd5b50565b6000815190506200059e8162000573565b92915050565b600060208284031215620005bd57620005bc620003ec565b5b6000620005cd848285016200058d565b91505092915050565b60805160a05160c05160e051610100516101205161562b620006dc600039600081816129bb015281816131f701526133d301526000818161291f0152613337015260008181610e0901528181612e7e0152612f0f015260008181610d5901528181610e2a015281816118fe01528181612730015281816127dd01528181612dd8015261315d015260008181610baa01528181610ca2015281816126970152612d22015260008181610bff01528181611143015281816113160152818161192501528181611afb01528181611e4201528181612120015281816123b40152818161253f015281816125da01528181612f3501528181612fcb01526130a0015261562b6000f3fe608060405234801561001057600080fd5b506004361061023d5760003560e01c80638a0687d21161013b578063b5310ff9116100b8578063cfc2dc201161007c578063cfc2dc2014610727578063d19f503214610757578063d547741f14610775578063ec53982814610791578063fc9d80e0146107c25761023d565b8063b5310ff91461066a578063c45b1d851461069a578063c84aae17146106b8578063cb4c86b7146106eb578063cca49473146107095761023d565b80639bc67cd2116100ff5780639bc67cd2146105ae578063a217fddf146105cc578063a42b6626146105ea578063b0667cf81461061a578063b4f8fe49146106395761023d565b80638a0687d2146104d05780638b83b6b6146105005780638e82c9f11461053057806390618ed91461056057806391d148541461057e5761023d565b80634aa2913e116101c95780636f307dc31161018d5780636f307dc3146104275780636fe44031146104455780637652e7c41461046357806380d600b51461048157806385ae10e61461049f5761023d565b80634aa2913e146103835780634b3ba3401461039f5780634d1dc7d8146103cf578063637baf60146103ed5780636940c817146104095761023d565b80632f2ff15d116102105780632f2ff15d146102dc578063305868da146102f857806336568abe1461032b5780633b73450114610347578063448ba42f146103655761023d565b806301ffc9a714610242578063248a9ca31461027257806324b4110e146102a2578063251e1e8a146102be575b600080fd5b61025c60048036038101906102579190613e42565b6107f4565b6040516102699190613e8a565b60405180910390f35b61028c60048036038101906102879190613edb565b61086e565b6040516102999190613f17565b60405180910390f35b6102bc60048036038101906102b79190613fc6565b61088d565b005b6102c6610ba8565b6040516102d39190614065565b60405180910390f35b6102f660048036038101906102f19190614080565b610bcc565b005b610312600480360381019061030d91906140c0565b610bf5565b6040516103229493929190614128565b60405180910390f35b61034560048036038101906103409190614080565b611097565b005b61034f61111a565b60405161035c9190613f17565b60405180910390f35b61036d61113e565b60405161037a919061417c565b60405180910390f35b61039d60048036038101906103989190614197565b611261565b005b6103b960048036038101906103b491906141c4565b611281565b6040516103c69190614204565b60405180910390f35b6103d761159e565b6040516103e4919061417c565b60405180910390f35b61040760048036038101906104029190614197565b6115a4565b005b6104116118f6565b60405161041e919061417c565b60405180910390f35b61042f6118fc565b60405161043c9190614240565b60405180910390f35b61044d611920565b60405161045a9190614204565b60405180910390f35b61046b611a07565b604051610478919061417c565b60405180910390f35b610489611aee565b604051610496919061417c565b60405180910390f35b6104b960048036038101906104b49190614197565b611af4565b6040516104c792919061425b565b60405180910390f35b6104ea60048036038101906104e59190613fc6565b611c30565b6040516104f791906144f3565b60405180910390f35b61051a6004803603810190610515919061450f565b611e3d565b604051610527919061417c565b60405180910390f35b61054a60048036038101906105459190614568565b612057565b6040516105579190614204565b60405180910390f35b610568612264565b6040516105759190613e8a565b60405180910390f35b61059860048036038101906105939190614080565b612345565b6040516105a59190613e8a565b60405180910390f35b6105b66123af565b6040516105c39190614204565b60405180910390f35b6105d46124e3565b6040516105e19190613f17565b60405180910390f35b61060460048036038101906105ff919061450f565b6124ea565b604051610611919061417c565b60405180910390f35b61062261253a565b60405161063092919061425b565b60405180910390f35b610653600480360381019061064e91906140c0565b6125d3565b60405161066192919061425b565b60405180910390f35b610684600480360381019061067f91906145f2565b612a46565b604051610691919061417c565b60405180910390f35b6106a2612d12565b6040516106af919061417c565b60405180910390f35b6106d260048036038101906106cd919061450f565b612d18565b6040516106e294939291906146d1565b60405180910390f35b6106f3612f0d565b6040516107009190614240565b60405180910390f35b610711612f31565b60405161071e9190613f17565b60405180910390f35b610741600480360381019061073c9190614197565b612fc7565b60405161074e919061417c565b60405180910390f35b61075f61306a565b60405161076c919061417c565b60405180910390f35b61078f600480360381019061078a9190614080565b613070565b005b6107ab60048036038101906107a691906140c0565b613099565b6040516107b9929190614716565b60405180910390f35b6107dc60048036038101906107d79190614197565b61345b565b6040516107eb9392919061475d565b60405180910390f35b60007f7965db0b000000000000000000000000000000000000000000000000000000007bffffffffffffffffffffffffffffffffffffffffffffffffffffffff1916827bffffffffffffffffffffffffffffffffffffffffffffffffffffffff1916148061086757506108668261352a565b5b9050919050565b6000806000838152602001908152602001600020600101549050919050565b7f28d62fc77014de57a1bbaa8212ff0979fa61ab00d377b4b8d9762048fb4199616108bf816108ba613594565b61359c565b6000600184815481106108d5576108d4614794565b5b90600052602060002090600d020190504281600301819055508060040154426108fe91906147f2565b816005018190555060018160000160026101000a81548160ff0219169083600381111561092e5761092d614284565b5b02179055508073__OptionLibrary_________________________631059c90e90916040518263ffffffff1660e01b815260040161096c919061484f565b602060405180830381865af4158015610989573d6000803e3d6000fd5b505050506040513d601f19601f820116820180604052508101906109ad919061487f565b600760008282546109be91906147f2565b925050819055508073__OptionLibrary_________________________638d98b89e90916040518263ffffffff1660e01b81526004016109fe919061484f565b602060405180830381865af4158015610a1b573d6000803e3d6000fd5b505050506040513d601f19601f82011682018060405250810190610a3f919061487f565b60086000828254610a5091906147f2565b925050819055508073__OptionLibrary_________________________63e7c9d3f590916040518263ffffffff1660e01b8152600401610a90919061484f565b602060405180830381865af4158015610aad573d6000803e3d6000fd5b505050506040513d601f19601f82011682018060405250810190610ad1919061487f565b60096000828254610ae291906147f2565b92505081905550610b3a84600260008673ffffffffffffffffffffffffffffffffffffffff1673ffffffffffffffffffffffffffffffffffffffff16815260200190815260200160002061363990919063ffffffff16565b50610b4f84600361363990919063ffffffff16565b50600160066000828254610b6391906147f2565b92505081905550837fa2e18ffcc8c9fde6dd551ec707e34469fa0e354eedaa83378b2bebb21b1d67de42604051610b9a919061417c565b60405180910390a250505050565b7f000000000000000000000000000000000000000000000000000000000000000081565b610bd58261086e565b610be681610be1613594565b61359c565b610bf08383613653565b505050565b60008060008060007f000000000000000000000000000000000000000000000000000000000000000073ffffffffffffffffffffffffffffffffffffffff1663b0667cf86040518163ffffffff1660e01b81526004016040805180830381865afa158015610c67573d6000803e3d6000fd5b505050506040513d601f19601f82011682018060405250810190610c8b91906148ac565b5090506000610c9b826000612057565b90506000807f000000000000000000000000000000000000000000000000000000000000000073ffffffffffffffffffffffffffffffffffffffff166321f8a7216040518163ffffffff1660e01b8152600401610cf790614912565b602060405180830381865afa158015610d14573d6000803e3d6000fd5b505050506040513d601f19601f82011682018060405250810190610d389190614940565b905073__MarketLibrary_________________________639e9be73f8b83867f000000000000000000000000000000000000000000000000000000000000000060028f146040518663ffffffff1660e01b8152600401610d9c9594939291906149ca565b606060405180830381865af4158015610db9573d6000803e3d6000fd5b505050506040513d601f19601f82011682018060405250810190610ddd9190614a49565b809850819450829a5050505073__MarketLibrary_________________________6303507d118b8385887f00000000000000000000000000000000000000000000000000000000000000007f00000000000000000000000000000000000000000000000000000000000000006005546040518863ffffffff1660e01b8152600401610e6e9796959493929190614aab565b6040805180830381865af4158015610e8a573d6000803e3d6000fd5b505050506040513d601f19601f82011682018060405250810190610eae9190614b1a565b809650819850505073__MarketLibrary_________________________6339a823d8898873ffffffffffffffffffffffffffffffffffffffff1663313ce5676040518163ffffffff1660e01b8152600401602060405180830381865afa158015610f1c573d6000803e3d6000fd5b505050506040513d601f19601f82011682018060405250810190610f409190614b93565b6040518363ffffffff1660e01b8152600401610f5d929190614bf1565b602060405180830381865af4158015610f7a573d6000803e3d6000fd5b505050506040513d601f19601f82011682018060405250810190610f9e9190614c1a565b975073__MarketLibrary_________________________6339a823d8888773ffffffffffffffffffffffffffffffffffffffff1663313ce5676040518163ffffffff1660e01b8152600401602060405180830381865afa158015611006573d6000803e3d6000fd5b505050506040513d601f19601f8201168201806040525081019061102a9190614b93565b6040518363ffffffff1660e01b8152600401611047929190614bf1565b602060405180830381865af4158015611064573d6000803e3d6000fd5b505050506040513d601f19601f820116820180604052508101906110889190614c1a565b96505050505092959194509250565b61109f613594565b73ffffffffffffffffffffffffffffffffffffffff168173ffffffffffffffffffffffffffffffffffffffff161461110c576040517f08c379a000000000000000000000000000000000000000000000000000000000815260040161110390614cca565b60405180910390fd5b6111168282613733565b5050565b7f28d62fc77014de57a1bbaa8212ff0979fa61ab00d377b4b8d9762048fb41996181565b6000807f000000000000000000000000000000000000000000000000000000000000000073ffffffffffffffffffffffffffffffffffffffff1663b0667cf86040518163ffffffff1660e01b81526004016040805180830381865afa1580156111ab573d6000803e3d6000fd5b505050506040513d601f19601f820116820180604052508101906111cf91906148ac565b5090506111e0600854600954613814565b73__FullMath______________________________63fed4a0f39091836040518363ffffffff1660e01b815260040161121a929190614cea565b602060405180830381865af4158015611237573d6000803e3d6000fd5b505050506040513d601f19601f8201168201806040525081019061125b919061487f565b91505090565b6000801b61127681611271613594565b61359c565b816005819055505050565b60006001600381111561129757611296614284565b5b600184815481106112ab576112aa614794565b5b90600052602060002090600d020160000160029054906101000a900460ff1660038111156112dc576112db614284565b5b14801561130d575042600184815481106112f9576112f8614794565b5b90600052602060002090600d020160050154115b156115985760007f000000000000000000000000000000000000000000000000000000000000000073ffffffffffffffffffffffffffffffffffffffff1663040b030f426001878154811061136557611364614794565b5b90600052602060002090600d0201600501546113819190614d13565b6040518263ffffffff1660e01b815260040161139d919061417c565b602060405180830381865afa1580156113ba573d6000803e3d6000fd5b505050506040513d601f19601f820116820180604052508101906113de919061487f565b905061152973__OptionLibrary_________________________639932b2be856001888154811061141257611411614794565b5b90600052602060002090600d020160090154856040518463ffffffff1660e01b815260040161144393929190614d47565b602060405180830381865af4158015611460573d6000803e3d6000fd5b505050506040513d601f19601f82011682018060405250810190611484919061487f565b73__FullMath______________________________63fed4a0f39091600188815481106114b4576114b3614794565b5b90600052602060002090600d0201600701546040518363ffffffff1660e01b81526004016114e3929190614cea565b602060405180830381865af4158015611500573d6000803e3d6000fd5b505050506040513d601f19601f82011682018060405250810190611524919061487f565b61382e565b915060018081111561153e5761153d614284565b5b6001858154811061155257611551614794565b5b90600052602060002090600d020160000160019054906101000a900460ff16600181111561158357611582614284565b5b1415611596578161159390614d7e565b91505b505b92915050565b60085481565b7f28d62fc77014de57a1bbaa8212ff0979fa61ab00d377b4b8d9762048fb4199616115d6816115d1613594565b61359c565b6115ea82600361389b90919063ffffffff16565b506115f860065460016138b5565b600660008282546116099190614d13565b9250508190555060006001838154811061162657611625614794565b5b90600052602060002090600d0201905060038160000160026101000a81548160ff0219169083600381111561165e5761165d614284565b5b02179055504281600601819055506116e183600260008460000160039054906101000a900473ffffffffffffffffffffffffffffffffffffffff1673ffffffffffffffffffffffffffffffffffffffff1673ffffffffffffffffffffffffffffffffffffffff16815260200190815260200160002061389b90919063ffffffff16565b506117676008548273__OptionLibrary_________________________638d98b89e90916040518263ffffffff1660e01b8152600401611721919061484f565b602060405180830381865af415801561173e573d6000803e3d6000fd5b505050506040513d601f19601f82011682018060405250810190611762919061487f565b6138b5565b600860008282546117789190614d13565b925050819055506118046009548273__OptionLibrary_________________________63e7c9d3f590916040518263ffffffff1660e01b81526004016117be919061484f565b602060405180830381865af41580156117db573d6000803e3d6000fd5b505050506040513d601f19601f820116820180604052508101906117ff919061487f565b6138b5565b600960008282546118159190614d13565b925050819055506118a16007548273__OptionLibrary_________________________631059c90e90916040518263ffffffff1660e01b815260040161185b919061484f565b602060405180830381865af4158015611878573d6000803e3d6000fd5b505050506040513d601f19601f8201168201806040525081019061189c919061487f565b6138b5565b600760008282546118b29190614d13565b92505081905550827f24c6712fdcfe6745b15553f78d0c1bb66bbdb5dd43711dac2c23c54b3ed49c5b426040516118e9919061417c565b60405180910390a2505050565b60065481565b7f000000000000000000000000000000000000000000000000000000000000000081565b6000807f000000000000000000000000000000000000000000000000000000000000000073ffffffffffffffffffffffffffffffffffffffff1663b0667cf86040518163ffffffff1660e01b81526004016040805180830381865afa15801561198d573d6000803e3d6000fd5b505050506040513d601f19601f820116820180604052508101906119b191906148ac565b5090506000915060005b600654811015611a02576119e26119dc8260036138ce90919063ffffffff16565b83611281565b836119ed9190614dc7565b925080806119fa90614e5b565b9150506119bb565b505090565b6000805b600654811015611aea576000611a2b8260036138ce90919063ffffffff16565b905060018181548110611a4157611a40614794565b5b90600052602060002090600d020173__OptionLibrary_________________________63de92030790916040518263ffffffff1660e01b8152600401611a87919061484f565b602060405180830381865af4158015611aa4573d6000803e3d6000fd5b505050506040513d601f19601f82011682018060405250810190611ac89190614eb9565b15611ad65780925050611aea565b508080611ae290614e5b565b915050611a0b565b5090565b60095481565b60008060007f000000000000000000000000000000000000000000000000000000000000000073ffffffffffffffffffffffffffffffffffffffff1663b0667cf86040518163ffffffff1660e01b81526004016040805180830381865afa158015611b63573d6000803e3d6000fd5b505050506040513d601f19601f82011682018060405250810190611b8791906148ac565b50905060018481548110611b9e57611b9d614794565b5b90600052602060002090600d020173__OptionLibrary_________________________63a69d3ae09091836040518363ffffffff1660e01b8152600401611be6929190614ee6565b6040805180830381865af4158015611c02573d6000803e3d6000fd5b505050506040513d601f19601f82011682018060405250810190611c2691906148ac565b9250925050915091565b611c38613d1c565b6001611c8b84600260008673ffffffffffffffffffffffffffffffffffffffff1673ffffffffffffffffffffffffffffffffffffffff1681526020019081526020016000206138ce90919063ffffffff16565b81548110611c9c57611c9b614794565b5b90600052602060002090600d0201604051806102000160405290816000820160009054906101000a900460ff166001811115611cdb57611cda614284565b5b6001811115611ced57611cec614284565b5b81526020016000820160019054906101000a900460ff166001811115611d1657611d15614284565b5b6001811115611d2857611d27614284565b5b81526020016000820160029054906101000a900460ff166003811115611d5157611d50614284565b5b6003811115611d6357611d62614284565b5b81526020016000820160039054906101000a900473ffffffffffffffffffffffffffffffffffffffff1673ffffffffffffffffffffffffffffffffffffffff1673ffffffffffffffffffffffffffffffffffffffff168152602001600182015481526020016002820154815260200160038201548152602001600482015481526020016005820154815260200160068201548152602001600782015481526020016008820154815260200160098201548152602001600a8201548152602001600b8201548152602001600c82015481525050905092915050565b6000807f000000000000000000000000000000000000000000000000000000000000000073ffffffffffffffffffffffffffffffffffffffff1663b0667cf86040518163ffffffff1660e01b81526004016040805180830381865afa158015611eaa573d6000803e3d6000fd5b505050506040513d601f19601f82011682018060405250810190611ece91906148ac565b509050600080600080611ee087612d18565b93509350935093508373__FullMath______________________________63fed4a0f39091876040518363ffffffff1660e01b8152600401611f23929190614cea565b602060405180830381865af4158015611f40573d6000803e3d6000fd5b505050506040513d601f19601f82011682018060405250810190611f64919061487f565b8284611f7091906147f2565b611f7a91906147f2565b955060008173__FullMath______________________________63fed4a0f39091886040518363ffffffff1660e01b8152600401611fb9929190614cea565b602060405180830381865af4158015611fd6573d6000803e3d6000fd5b505050506040513d601f19601f82011682018060405250810190611ffa919061487f565b905080871161203e576040517f08c379a000000000000000000000000000000000000000000000000000000000815260040161203590614f5b565b60405180910390fd5b808761204a9190614d13565b9650505050505050919050565b6000805b60065481101561225d576000600161207d8360036138ce90919063ffffffff16565b8154811061208e5761208d614794565b5b90600052602060002090600d0201905060008173__OptionLibrary_________________________636ae2bcc290916040518263ffffffff1660e01b81526004016120d9919061484f565b602060405180830381865af41580156120f6573d6000803e3d6000fd5b505050506040513d601f19601f8201168201806040525081019061211a919061487f565b905060007f000000000000000000000000000000000000000000000000000000000000000073ffffffffffffffffffffffffffffffffffffffff1663040b030f836040518263ffffffff1660e01b8152600401612177919061417c565b602060405180830381865afa158015612194573d6000803e3d6000fd5b505050506040513d601f19601f820116820180604052508101906121b8919061487f565b90508273__OptionLibrary_________________________6387711e2f909189848a6040518563ffffffff1660e01b81526004016121f99493929190614f7b565b602060405180830381865af4158015612216573d6000803e3d6000fd5b505050506040513d601f19601f8201168201806040525081019061223a9190614c1a565b856122459190614dc7565b9450505050808061225590614e5b565b91505061205b565b5092915050565b6000805b6006548110156123415760016122888260036138ce90919063ffffffff16565b8154811061229957612298614794565b5b90600052602060002090600d020173__OptionLibrary_________________________63de92030790916040518263ffffffff1660e01b81526004016122df919061484f565b602060405180830381865af41580156122fc573d6000803e3d6000fd5b505050506040513d601f19601f820116820180604052508101906123209190614eb9565b1561232e5760019150612341565b808061233990614e5b565b915050612268565b5090565b600080600084815260200190815260200160002060000160008373ffffffffffffffffffffffffffffffffffffffff1673ffffffffffffffffffffffffffffffffffffffff16815260200190815260200160002060009054906101000a900460ff16905092915050565b6000807f000000000000000000000000000000000000000000000000000000000000000073ffffffffffffffffffffffffffffffffffffffff1663040b030f620151806040518263ffffffff1660e01b815260040161240e9190614ffb565b602060405180830381865afa15801561242b573d6000803e3d6000fd5b505050506040513d601f19601f8201168201806040525081019061244f919061487f565b90506124dd73__OptionLibrary_________________________639932b2be670de0b6b3a764000080856040518463ffffffff1660e01b815260040161249793929190614d47565b602060405180830381865af41580156124b4573d6000803e3d6000fd5b505050506040513d601f19601f820116820180604052508101906124d8919061487f565b61382e565b91505090565b6000801b81565b6000612533600260008473ffffffffffffffffffffffffffffffffffffffff1673ffffffffffffffffffffffffffffffffffffffff1681526020019081526020016000206138e8565b9050919050565b6000807f000000000000000000000000000000000000000000000000000000000000000073ffffffffffffffffffffffffffffffffffffffff1663b0667cf86040518163ffffffff1660e01b81526004016040805180830381865afa1580156125a7573d6000803e3d6000fd5b505050506040513d601f19601f820116820180604052508101906125cb91906148ac565b915091509091565b60008060007f000000000000000000000000000000000000000000000000000000000000000073ffffffffffffffffffffffffffffffffffffffff1663b0667cf86040518163ffffffff1660e01b81526004016040805180830381865afa158015612642573d6000803e3d6000fd5b505050506040513d601f19601f8201168201806040525081019061266691906148ac565b5090506000612676826000612057565b9050600073__MarketLibrary_________________________639e9be73f887f000000000000000000000000000000000000000000000000000000000000000073ffffffffffffffffffffffffffffffffffffffff166321f8a7216040518163ffffffff1660e01b81526004016126ec90614912565b602060405180830381865afa158015612709573d6000803e3d6000fd5b505050506040513d601f19601f8201168201806040525081019061272d9190614940565b857f000000000000000000000000000000000000000000000000000000000000000060028c146040518663ffffffff1660e01b81526004016127739594939291906149ca565b606060405180830381865af4158015612790573d6000803e3d6000fd5b505050506040513d601f19601f820116820180604052508101906127b49190614a49565b5050905060009450600093506000811215612a3c576000816127d590614d7e565b905061287a817f000000000000000000000000000000000000000000000000000000000000000073ffffffffffffffffffffffffffffffffffffffff166370a08231306040518263ffffffff1660e01b81526004016128349190615016565b602060405180830381865afa158015612851573d6000803e3d6000fd5b505050506040513d601f19601f82011682018060405250810190612875919061487f565b6138b5565b816128859190614d13565b955073__MarketLibrary_________________________63174e20e68773__FullMath______________________________63fed4a0f39091886040518363ffffffff1660e01b81526004016128dc929190614cea565b602060405180830381865af41580156128f9573d6000803e3d6000fd5b505050506040513d601f19601f8201168201806040525081019061291d919061487f565b7f00000000000000000000000000000000000000000000000000000000000000006040518363ffffffff1660e01b815260040161295b929190614cea565b602060405180830381865af4158015612978573d6000803e3d6000fd5b505050506040513d601f19601f8201168201806040525081019061299c919061487f565b945073__MarketLibrary_________________________63174e20e6877f00000000000000000000000000000000000000000000000000000000000000006040518363ffffffff1660e01b81526004016129f7929190614cea565b602060405180830381865af4158015612a14573d6000803e3d6000fd5b505050506040513d601f19601f82011682018060405250810190612a38919061487f565b9550505b5050509250929050565b60007f28d62fc77014de57a1bbaa8212ff0979fa61ab00d377b4b8d9762048fb419961612a7a81612a75613594565b61359c565b60008c11612abd576040517f08c379a0000000000000000000000000000000000000000000000000000000008152600401612ab49061507d565b60405180910390fd5b600180549050915060016040518061020001604052808b6001811115612ae657612ae5614284565b5b81526020018a6001811115612afe57612afd614284565b5b815260200160006003811115612b1757612b16614284565b5b81526020018573ffffffffffffffffffffffffffffffffffffffff168152602001848152602001428152602001600081526020018e815260200160008152602001600081526020018c81526020018781526020018d81526020018681526020018981526020018881525090806001815401808255809150506001900390600052602060002090600d020160009091909190915060008201518160000160006101000a81548160ff02191690836001811115612bd557612bd4614284565b5b021790555060208201518160000160016101000a81548160ff02191690836001811115612c0557612c04614284565b5b021790555060408201518160000160026101000a81548160ff02191690836003811115612c3557612c34614284565b5b021790555060608201518160000160036101000a81548173ffffffffffffffffffffffffffffffffffffffff021916908373ffffffffffffffffffffffffffffffffffffffff1602179055506080820151816001015560a0820151816002015560c0820151816003015560e08201518160040155610100820151816005015561012082015181600601556101408201518160070155610160820151816008015561018082015181600901556101a082015181600a01556101c082015181600b01556101e082015181600c01555050509a9950505050505050505050565b60055481565b60008060008060007f000000000000000000000000000000000000000000000000000000000000000073ffffffffffffffffffffffffffffffffffffffff166321f8a7216040518163ffffffff1660e01b8152600401612d7790614912565b602060405180830381865afa158015612d94573d6000803e3d6000fd5b505050506040513d601f19601f82011682018060405250810190612db89190614940565b905073__MarketLibrary_________________________63358e7d4087837f00000000000000000000000000000000000000000000000000000000000000006040518463ffffffff1660e01b8152600401612e159392919061509d565b606060405180830381865af4158015612e32573d6000803e3d6000fd5b505050506040513d601f19601f82011682018060405250810190612e5691906150d4565b9050809350819650505073__MarketLibrary_________________________63358e7d4087837f00000000000000000000000000000000000000000000000000000000000000006040518463ffffffff1660e01b8152600401612ebb9392919061509d565b606060405180830381865af4158015612ed8573d6000803e3d6000fd5b505050506040513d601f19601f82011682018060405250810190612efc91906150d4565b508094508195505050509193509193565b7f000000000000000000000000000000000000000000000000000000000000000081565b60007f000000000000000000000000000000000000000000000000000000000000000073ffffffffffffffffffffffffffffffffffffffff1663cca494736040518163ffffffff1660e01b8152600401602060405180830381865afa158015612f9e573d6000803e3d6000fd5b505050506040513d601f19601f82011682018060405250810190612fc2919061513c565b905090565b60007f000000000000000000000000000000000000000000000000000000000000000073ffffffffffffffffffffffffffffffffffffffff1663040b030f836040518263ffffffff1660e01b8152600401613022919061417c565b602060405180830381865afa15801561303f573d6000803e3d6000fd5b505050506040513d601f19601f82011682018060405250810190613063919061487f565b9050919050565b60075481565b6130798261086e565b61308a81613085613594565b61359c565b6130948383613733565b505050565b60008060007f000000000000000000000000000000000000000000000000000000000000000073ffffffffffffffffffffffffffffffffffffffff1663b0667cf86040518163ffffffff1660e01b81526004016040805180830381865afa158015613108573d6000803e3d6000fd5b505050506040513d601f19601f8201168201806040525081019061312c91906148ac565b509050600061313c826000612057565b905061327973__MarketLibrary_________________________63ed1bb1997f000000000000000000000000000000000000000000000000000000000000000073ffffffffffffffffffffffffffffffffffffffff166370a082318a6040518263ffffffff1660e01b81526004016131b49190615016565b602060405180830381865afa1580156131d1573d6000803e3d6000fd5b505050506040513d601f19601f820116820180604052508101906131f5919061487f565b7f00000000000000000000000000000000000000000000000000000000000000006040518363ffffffff1660e01b8152600401613233929190614cea565b602060405180830381865af4158015613250573d6000803e3d6000fd5b505050506040513d601f19601f82011682018060405250810190613274919061487f565b61382e565b60008212156132915761328c600061382e565b613293565b815b61329d9190615169565b935073__MarketLibrary_________________________6339a823d873__OptionLibrary_________________________63ca0cc13d87868a6040518463ffffffff1660e01b81526004016132f4939291906151fd565b602060405180830381865af4158015613311573d6000803e3d6000fd5b505050506040513d601f19601f820116820180604052508101906133359190614c1a565b7f00000000000000000000000000000000000000000000000000000000000000006040518363ffffffff1660e01b8152600401613373929190615234565b602060405180830381865af4158015613390573d6000803e3d6000fd5b505050506040513d601f19601f820116820180604052508101906133b49190614c1a565b925073__MarketLibrary_________________________6339a823d8857f00000000000000000000000000000000000000000000000000000000000000006040518363ffffffff1660e01b815260040161340f929190615234565b602060405180830381865af415801561342c573d6000803e3d6000fd5b505050506040513d601f19601f820116820180604052508101906134509190614c1a565b935050509250929050565b6000806000600180549050841061347157600080fd5b6001848154811061348557613484614794565b5b90600052602060002090600d020160000160029054906101000a900460ff16600185815481106134b8576134b7614794565b5b90600052602060002090600d020160000160019054906101000a900460ff16600186815481106134eb576134ea614794565b5b90600052602060002090600d020160000160039054906101000a900473ffffffffffffffffffffffffffffffffffffffff169250925092509193909250565b60007f01ffc9a7000000000000000000000000000000000000000000000000000000007bffffffffffffffffffffffffffffffffffffffffffffffffffffffff1916827bffffffffffffffffffffffffffffffffffffffffffffffffffffffff1916149050919050565b600033905090565b6135a68282612345565b613635576135cb8173ffffffffffffffffffffffffffffffffffffffff1660146138fd565b6135d98360001c60206138fd565b6040516020016135ea92919061536f565b6040516020818303038152906040526040517f08c379a000000000000000000000000000000000000000000000000000000000815260040161362c91906153f3565b60405180910390fd5b5050565b600061364b836000018360001b613b39565b905092915050565b61365d8282612345565b61372f57600160008084815260200190815260200160002060000160008373ffffffffffffffffffffffffffffffffffffffff1673ffffffffffffffffffffffffffffffffffffffff16815260200190815260200160002060006101000a81548160ff0219169083151502179055506136d4613594565b73ffffffffffffffffffffffffffffffffffffffff168173ffffffffffffffffffffffffffffffffffffffff16837f2f8788117e7eff1d82e926ec794901d17c78024a50270940304540a733656f0d60405160405180910390a45b5050565b61373d8282612345565b1561381057600080600084815260200190815260200160002060000160008373ffffffffffffffffffffffffffffffffffffffff1673ffffffffffffffffffffffffffffffffffffffff16815260200190815260200160002060006101000a81548160ff0219169083151502179055506137b5613594565b73ffffffffffffffffffffffffffffffffffffffff168173ffffffffffffffffffffffffffffffffffffffff16837ff6391f5c32d9c69d2a47ea670b442974b53935d1edc7fd64eb21e047a839171b60405160405180910390a45b5050565b6000818310156138245781613826565b825b905092915050565b60007f7fffffffffffffffffffffffffffffffffffffffffffffffffffffffffffffff821115613893576040517f08c379a000000000000000000000000000000000000000000000000000000000815260040161388a90615487565b60405180910390fd5b819050919050565b60006138ad836000018360001b613ba9565b905092915050565b60008183106138c457816138c6565b825b905092915050565b60006138dd8360000183613cbd565b60001c905092915050565b60006138f682600001613ce8565b9050919050565b60606000600283600261391091906154a7565b61391a91906147f2565b67ffffffffffffffff81111561393357613932615501565b5b6040519080825280601f01601f1916602001820160405280156139655781602001600182028036833780820191505090505b5090507f30000000000000000000000000000000000000000000000000000000000000008160008151811061399d5761399c614794565b5b60200101907effffffffffffffffffffffffffffffffffffffffffffffffffffffffffffff1916908160001a9053507f780000000000000000000000000000000000000000000000000000000000000081600181518110613a0157613a00614794565b5b60200101907effffffffffffffffffffffffffffffffffffffffffffffffffffffffffffff1916908160001a90535060006001846002613a4191906154a7565b613a4b91906147f2565b90505b6001811115613aeb577f3031323334353637383961626364656600000000000000000000000000000000600f861660108110613a8d57613a8c614794565b5b1a60f81b828281518110613aa457613aa3614794565b5b60200101907effffffffffffffffffffffffffffffffffffffffffffffffffffffffffffff1916908160001a905350600485901c945080613ae490615530565b9050613a4e565b5060008414613b2f576040517f08c379a0000000000000000000000000000000000000000000000000000000008152600401613b26906155a6565b60405180910390fd5b8091505092915050565b6000613b458383613cf9565b613b9e578260000182908060018154018082558091505060019003906000526020600020016000909190919091505582600001805490508360010160008481526020019081526020016000208190555060019050613ba3565b600090505b92915050565b60008083600101600084815260200190815260200160002054905060008114613cb1576000600182613bdb9190614d13565b9050600060018660000180549050613bf39190614d13565b9050818114613c62576000866000018281548110613c1457613c13614794565b5b9060005260206000200154905080876000018481548110613c3857613c37614794565b5b90600052602060002001819055508387600101600083815260200190815260200160002081905550505b85600001805480613c7657613c756155c6565b5b600190038181906000526020600020016000905590558560010160008681526020019081526020016000206000905560019350505050613cb7565b60009150505b92915050565b6000826000018281548110613cd557613cd4614794565b5b9060005260206000200154905092915050565b600081600001805490509050919050565b600080836001016000848152602001908152602001600020541415905092915050565b60405180610200016040528060006001811115613d3c57613d3b614284565b5b815260200160006001811115613d5557613d54614284565b5b815260200160006003811115613d6e57613d6d614284565b5b8152602001600073ffffffffffffffffffffffffffffffffffffffff1681526020016000815260200160008152602001600081526020016000815260200160008152602001600081526020016000815260200160008152602001600081526020016000815260200160008152602001600081525090565b600080fd5b60007fffffffff0000000000000000000000000000000000000000000000000000000082169050919050565b613e1f81613dea565b8114613e2a57600080fd5b50565b600081359050613e3c81613e16565b92915050565b600060208284031215613e5857613e57613de5565b5b6000613e6684828501613e2d565b91505092915050565b60008115159050919050565b613e8481613e6f565b82525050565b6000602082019050613e9f6000830184613e7b565b92915050565b6000819050919050565b613eb881613ea5565b8114613ec357600080fd5b50565b600081359050613ed581613eaf565b92915050565b600060208284031215613ef157613ef0613de5565b5b6000613eff84828501613ec6565b91505092915050565b613f1181613ea5565b82525050565b6000602082019050613f2c6000830184613f08565b92915050565b6000819050919050565b613f4581613f32565b8114613f5057600080fd5b50565b600081359050613f6281613f3c565b92915050565b600073ffffffffffffffffffffffffffffffffffffffff82169050919050565b6000613f9382613f68565b9050919050565b613fa381613f88565b8114613fae57600080fd5b50565b600081359050613fc081613f9a565b92915050565b60008060408385031215613fdd57613fdc613de5565b5b6000613feb85828601613f53565b9250506020613ffc85828601613fb1565b9150509250929050565b6000819050919050565b600061402b61402661402184613f68565b614006565b613f68565b9050919050565b600061403d82614010565b9050919050565b600061404f82614032565b9050919050565b61405f81614044565b82525050565b600060208201905061407a6000830184614056565b92915050565b6000806040838503121561409757614096613de5565b5b60006140a585828601613ec6565b92505060206140b685828601613fb1565b9150509250929050565b600080604083850312156140d7576140d6613de5565b5b60006140e585828601613fb1565b92505060206140f685828601613f53565b9150509250929050565b6000819050919050565b61411381614100565b82525050565b61412281613f88565b82525050565b600060808201905061413d600083018761410a565b61414a602083018661410a565b6141576040830185614119565b6141646060830184614119565b95945050505050565b61417681613f32565b82525050565b6000602082019050614191600083018461416d565b92915050565b6000602082840312156141ad576141ac613de5565b5b60006141bb84828501613f53565b91505092915050565b600080604083850312156141db576141da613de5565b5b60006141e985828601613f53565b92505060206141fa85828601613f53565b9150509250929050565b6000602082019050614219600083018461410a565b92915050565b600061422a82614032565b9050919050565b61423a8161421f565b82525050565b60006020820190506142556000830184614231565b92915050565b6000604082019050614270600083018561416d565b61427d602083018461416d565b9392505050565b7f4e487b7100000000000000000000000000000000000000000000000000000000600052602160045260246000fd5b600281106142c4576142c3614284565b5b50565b60008190506142d5826142b3565b919050565b60006142e5826142c7565b9050919050565b6142f5816142da565b82525050565b6002811061430c5761430b614284565b5b50565b600081905061431d826142fb565b919050565b600061432d8261430f565b9050919050565b61433d81614322565b82525050565b6004811061435457614353614284565b5b50565b600081905061436582614343565b919050565b600061437582614357565b9050919050565b6143858161436a565b82525050565b61439481613f88565b82525050565b6143a381613f32565b82525050565b610200820160008201516143c060008501826142ec565b5060208201516143d36020850182614334565b5060408201516143e6604085018261437c565b5060608201516143f9606085018261438b565b50608082015161440c608085018261439a565b5060a082015161441f60a085018261439a565b5060c082015161443260c085018261439a565b5060e082015161444560e085018261439a565b5061010082015161445a61010085018261439a565b5061012082015161446f61012085018261439a565b5061014082015161448461014085018261439a565b5061016082015161449961016085018261439a565b506101808201516144ae61018085018261439a565b506101a08201516144c36101a085018261439a565b506101c08201516144d86101c085018261439a565b506101e08201516144ed6101e085018261439a565b50505050565b60006102008201905061450960008301846143a9565b92915050565b60006020828403121561452557614524613de5565b5b600061453384828501613fb1565b91505092915050565b61454581613e6f565b811461455057600080fd5b50565b6000813590506145628161453c565b92915050565b6000806040838503121561457f5761457e613de5565b5b600061458d85828601613f53565b925050602061459e85828601614553565b9150509250929050565b600281106145b557600080fd5b50565b6000813590506145c7816145a8565b92915050565b600281106145da57600080fd5b50565b6000813590506145ec816145cd565b92915050565b6000806000806000806000806000806101408b8d03121561461657614615613de5565b5b60006146248d828e01613f53565b9a505060206146358d828e01613f53565b99505060406146468d828e01613f53565b98505060606146578d828e016145b8565b97505060806146688d828e016145dd565b96505060a06146798d828e01613f53565b95505060c061468a8d828e01613f53565b94505060e061469b8d828e01613f53565b9350506101006146ad8d828e01613f53565b9250506101206146bf8d828e01613fb1565b9150509295989b9194979a5092959850565b60006080820190506146e6600083018761416d565b6146f3602083018661416d565b614700604083018561416d565b61470d606083018461416d565b95945050505050565b600060408201905061472b600083018561410a565b614738602083018461410a565b9392505050565b6147488161436a565b82525050565b61475781614322565b82525050565b6000606082019050614772600083018661473f565b61477f602083018561474e565b61478c6040830184614119565b949350505050565b7f4e487b7100000000000000000000000000000000000000000000000000000000600052603260045260246000fd5b7f4e487b7100000000000000000000000000000000000000000000000000000000600052601160045260246000fd5b60006147fd82613f32565b915061480883613f32565b9250827fffffffffffffffffffffffffffffffffffffffffffffffffffffffffffffffff0382111561483d5761483c6147c3565b5b828201905092915050565b8082525050565b60006020820190506148646000830184614848565b92915050565b60008151905061487981613f3c565b92915050565b60006020828403121561489557614894613de5565b5b60006148a38482850161486a565b91505092915050565b600080604083850312156148c3576148c2613de5565b5b60006148d18582860161486a565b92505060206148e28582860161486a565b9150509250929050565b7f3078310000000000000000000000000000000000000000000000000000000000815250565b6000602082019050614926600083016148ec565b919050565b60008151905061493a81613f9a565b92915050565b60006020828403121561495657614955613de5565b5b60006149648482850161492b565b91505092915050565b61497681613f88565b82525050565b600061498782614032565b9050919050565b6149978161497c565b82525050565b6149a681614100565b82525050565b6149b58161421f565b82525050565b6149c481613e6f565b82525050565b600060a0820190506149df600083018861496d565b6149ec602083018761498e565b6149f9604083018661499d565b614a0660608301856149ac565b614a1360808301846149bb565b9695505050505050565b614a2681614100565b8114614a3157600080fd5b50565b600081519050614a4381614a1d565b92915050565b600080600060608486031215614a6257614a61613de5565b5b6000614a7086828701614a34565b9350506020614a818682870161486a565b9250506040614a928682870161492b565b9150509250925092565b614aa581613f32565b82525050565b600060e082019050614ac0600083018a61496d565b614acd602083018961498e565b614ada6040830188614a9c565b614ae76060830187614a9c565b614af460808301866149ac565b614b0160a08301856149ac565b614b0e60c0830184614a9c565b98975050505050505050565b60008060408385031215614b3157614b30613de5565b5b6000614b3f85828601614a34565b9250506020614b508582860161492b565b9150509250929050565b600060ff82169050919050565b614b7081614b5a565b8114614b7b57600080fd5b50565b600081519050614b8d81614b67565b92915050565b600060208284031215614ba957614ba8613de5565b5b6000614bb784828501614b7e565b91505092915050565b6000614bdb614bd6614bd184614b5a565b614006565b613f32565b9050919050565b614beb81614bc0565b82525050565b6000604082019050614c06600083018561499d565b614c136020830184614be2565b9392505050565b600060208284031215614c3057614c2f613de5565b5b6000614c3e84828501614a34565b91505092915050565b600082825260208201905092915050565b7f416363657373436f6e74726f6c3a2063616e206f6e6c792072656e6f756e636560008201527f20726f6c657320666f722073656c660000000000000000000000000000000000602082015250565b6000614cb4602f83614c47565b9150614cbf82614c58565b604082019050919050565b60006020820190508181036000830152614ce381614ca7565b9050919050565b6000604082019050614cff6000830185614a9c565b614d0c6020830184614a9c565b9392505050565b6000614d1e82613f32565b9150614d2983613f32565b925082821015614d3c57614d3b6147c3565b5b828203905092915050565b6000606082019050614d5c6000830186614a9c565b614d696020830185614a9c565b614d766040830184614a9c565b949350505050565b6000614d8982614100565b91507f8000000000000000000000000000000000000000000000000000000000000000821415614dbc57614dbb6147c3565b5b816000039050919050565b6000614dd282614100565b9150614ddd83614100565b9250817f7fffffffffffffffffffffffffffffffffffffffffffffffffffffffffffffff03831360008312151615614e1857614e176147c3565b5b817f8000000000000000000000000000000000000000000000000000000000000000038312600083121615614e5057614e4f6147c3565b5b828201905092915050565b6000614e6682613f32565b91507fffffffffffffffffffffffffffffffffffffffffffffffffffffffffffffffff821415614e9957614e986147c3565b5b600182019050919050565b600081519050614eb38161453c565b92915050565b600060208284031215614ecf57614ece613de5565b5b6000614edd84828501614ea4565b91505092915050565b6000604082019050614efb6000830185614848565b614f086020830184614a9c565b9392505050565b7f4e65676174697665206571756974792e00000000000000000000000000000000600082015250565b6000614f45601083614c47565b9150614f5082614f0f565b602082019050919050565b60006020820190508181036000830152614f7481614f38565b9050919050565b6000608082019050614f906000830187614848565b614f9d6020830186614a9c565b614faa6040830185614a9c565b614fb760608301846149bb565b95945050505050565b6000819050919050565b6000614fe5614fe0614fdb84614fc0565b614006565b613f32565b9050919050565b614ff581614fca565b82525050565b60006020820190506150106000830184614fec565b92915050565b600060208201905061502b6000830184614119565b92915050565b7f5a65726f2074656e6f7200000000000000000000000000000000000000000000600082015250565b6000615067600a83614c47565b915061507282615031565b602082019050919050565b600060208201905081810360008301526150968161505a565b9050919050565b60006060820190506150b2600083018661496d565b6150bf602083018561498e565b6150cc60408301846149ac565b949350505050565b6000806000606084860312156150ed576150ec613de5565b5b60006150fb8682870161486a565b935050602061510c8682870161486a565b925050604061511d8682870161486a565b9150509250925092565b60008151905061513681613eaf565b92915050565b60006020828403121561515257615151613de5565b5b600061516084828501615127565b91505092915050565b600061517482614100565b915061517f83614100565b9250827f8000000000000000000000000000000000000000000000000000000000000000018212600084121516156151ba576151b96147c3565b5b827f7fffffffffffffffffffffffffffffffffffffffffffffffffffffffffffffff0182136000841216156151f2576151f16147c3565b5b828203905092915050565b6000606082019050615212600083018661499d565b61521f6020830185614a9c565b61522c6040830184614a9c565b949350505050565b6000604082019050615249600083018561499d565b6152566020830184614a9c565b9392505050565b600081905092915050565b7f416363657373436f6e74726f6c3a206163636f756e7420000000000000000000600082015250565b600061529e60178361525d565b91506152a982615268565b601782019050919050565b600081519050919050565b60005b838110156152dd5780820151818401526020810190506152c2565b838111156152ec576000848401525b50505050565b60006152fd826152b4565b615307818561525d565b93506153178185602086016152bf565b80840191505092915050565b7f206973206d697373696e6720726f6c6520000000000000000000000000000000600082015250565b600061535960118361525d565b915061536482615323565b601182019050919050565b600061537a82615291565b915061538682856152f2565b91506153918261534c565b915061539d82846152f2565b91508190509392505050565b6000601f19601f8301169050919050565b60006153c5826152b4565b6153cf8185614c47565b93506153df8185602086016152bf565b6153e8816153a9565b840191505092915050565b6000602082019050818103600083015261540d81846153ba565b905092915050565b7f53616665436173743a2076616c756520646f65736e27742066697420696e206160008201527f6e20696e74323536000000000000000000000000000000000000000000000000602082015250565b6000615471602883614c47565b915061547c82615415565b604082019050919050565b600060208201905081810360008301526154a081615464565b9050919050565b60006154b282613f32565b91506154bd83613f32565b9250817fffffffffffffffffffffffffffffffffffffffffffffffffffffffffffffffff04831182151516156154f6576154f56147c3565b5b828202905092915050565b7f4e487b7100000000000000000000000000000000000000000000000000000000600052604160045260246000fd5b600061553b82613f32565b9150600082141561554f5761554e6147c3565b5b600182039050919050565b7f537472696e67733a20686578206c656e67746820696e73756666696369656e74600082015250565b6000615590602083614c47565b915061559b8261555a565b602082019050919050565b600060208201905081810360008301526155bf81615583565b9050919050565b7f4e487b7100000000000000000000000000000000000000000000000000000000600052603160045260246000fdfea26469706673582212203a24c98a58e199a05f922b97e6b594f39c95cb67ead22a894058476e0491650964736f6c634300080b0033",
  "immutableReferences": {
    "7004": [
      {
        "length": 32,
        "start": 3071
      },
      {
        "length": 32,
        "start": 4419
      },
      {
        "length": 32,
        "start": 4886
      },
      {
        "length": 32,
        "start": 6437
      },
      {
        "length": 32,
        "start": 6907
      },
      {
        "length": 32,
        "start": 7746
      },
      {
        "length": 32,
        "start": 8480
      },
      {
        "length": 32,
        "start": 9140
      },
      {
        "length": 32,
        "start": 9535
      },
      {
        "length": 32,
        "start": 9690
      },
      {
        "length": 32,
        "start": 12085
      },
      {
        "length": 32,
        "start": 12235
      },
      {
        "length": 32,
        "start": 12448
      }
    ],
    "7007": [
      {
        "length": 32,
        "start": 2986
      },
      {
        "length": 32,
        "start": 3234
      },
      {
        "length": 32,
        "start": 9879
      },
      {
        "length": 32,
        "start": 11554
      }
    ],
    "7010": [
      {
        "length": 32,
        "start": 3417
      },
      {
        "length": 32,
        "start": 3626
      },
      {
        "length": 32,
        "start": 6398
      },
      {
        "length": 32,
        "start": 10032
      },
      {
        "length": 32,
        "start": 10205
      },
      {
        "length": 32,
        "start": 11736
      },
      {
        "length": 32,
        "start": 12637
      }
    ],
    "7013": [
      {
        "length": 32,
        "start": 3593
      },
      {
        "length": 32,
        "start": 11902
      },
      {
        "length": 32,
        "start": 12047
      }
    ],
    "7015": [
      {
        "length": 32,
        "start": 10527
      },
      {
        "length": 32,
        "start": 13111
      }
    ],
    "7017": [
      {
        "length": 32,
        "start": 10683
      },
      {
        "length": 32,
        "start": 12791
      },
      {
        "length": 32,
        "start": 13267
      }
    ]
  },
  "source": "/**\n * SPDX-License-Identifier: GPL-3.0-or-later\n * Moret\n * Copyright (C) 2021 Moret\n*/\n\npragma solidity ^0.8.0;\nimport \"@openzeppelin/contracts/access/AccessControl.sol\";\nimport \"@openzeppelin/contracts/utils/structs/EnumerableSet.sol\";\nimport \"./MarketLibrary.sol\";\nimport \"./VolatilityChain.sol\";\nimport \"./interfaces/EOption.sol\";\nimport \"./interfaces/IProtocolDataProvider.sol\";\nimport \"./interfaces/ILendingPoolAddressesProvider.sol\";\n\ncontract OptionVault is AccessControl, EOption{\n  using FullMath for uint256;\n  using OptionLibrary for OptionLibrary.Option;\n  using EnumerableSet for EnumerableSet.UintSet;\n\n  bytes32 public constant EXCHANGE_ROLE = keccak256(\"EXCHANGE_ROLE\");\n\n  OptionLibrary.Option[] internal optionsList;\n  mapping(address=> EnumerableSet.UintSet) internal activeOptionsPerOwner;\n  EnumerableSet.UintSet internal activeOptions;\n\n  VolatilityChain internal immutable volatilityChain;\n  ILendingPoolAddressesProvider public immutable aaveAddress;\n  ERC20 public immutable underlying;\n  ERC20 public immutable funding;\n  uint256 internal immutable fundingDecimals;\n  uint256 internal immutable underlyingDecimals;\n\n  uint256 internal constant BASE  = 1e18;\n  uint256 internal constant SCALING = 1e5;\n  uint256 public overCollateral = 1e17;\n\n  uint256 public activeContractCount = 0;\n  uint256 public sellPutCollaterals = 0;\n  uint256 public deltaAtZero = 0;\n  uint256 public deltaAtMax = 0;\n\n  constructor(VolatilityChain _volChain, ERC20 _underlying, ERC20 _funding, ILendingPoolAddressesProvider _aaveAddress){\n    _setupRole(DEFAULT_ADMIN_ROLE, msg.sender);\n    _setupRole(EXCHANGE_ROLE, msg.sender);\n    volatilityChain = _volChain; \n    funding = _funding;\n    underlying = _underlying;\n    aaveAddress = _aaveAddress;\n    fundingDecimals = _funding.decimals();\n    underlyingDecimals = _underlying.decimals();}\n\n  function addOption(uint256 _tenor, uint256 _strike, uint256 _amount, OptionLibrary.PayoffType _poType, OptionLibrary.OptionSide _side, uint256 _premium, uint256 _cost, uint256 _price, uint256 _volatility, address _holder) external onlyRole(EXCHANGE_ROLE) returns(uint256 _id) {\n    require(_tenor > 0, \"Zero tenor\");\n    _id = optionsList.length;\n    // Arguments: option type, option side, contract status (default to draft), contract holder address, contract id, creation timestamp, effective timestamp (default to 0), tenor in seconds, maturity timestamp (default to 0), excersie timestamp (default to 0), amount or size of contract, current spot price, option strike, implied volatility, calculated premium and total cost including collaterals.\n    optionsList.push(OptionLibrary.Option(_poType, _side, OptionLibrary.OptionStatus.Draft, _holder, _id, block.timestamp,  0, _tenor, 0,  0, _amount, _price, _strike, _volatility, _premium, _cost));}\n\n  function getHoldersOptionCount(address _address) external view returns(uint256){return activeOptionsPerOwner[_address].length();}\n  function getHoldersOption(uint256 _index, address _address) external view returns(OptionLibrary.Option memory) {return optionsList[activeOptionsPerOwner[_address].at(_index)];}\n\n  function getOptionInfo(uint256 _id) external view returns(OptionLibrary.OptionStatus, OptionLibrary.OptionSide, address) {\n    require(_id< optionsList.length);\n    return (optionsList[_id].status, optionsList[_id].side, optionsList[_id].holder);}\n\n  function getGrossCapital(address _address) external view returns(uint256 _capital){\n    (uint256 _price, ) = volatilityChain.queryPrice();\n    (uint256 _underlying_balance, uint256 _funding_balance, uint256 _collateral_balance, uint256 _debt_balance) = getBalances(_address);\n    _capital = _funding_balance + _collateral_balance + _underlying_balance.ethmul(_price);\n    uint256 _debt_amount = _debt_balance.ethmul(_price);\n    require(_capital > _debt_amount, \"Negative equity.\");\n    _capital -= _debt_amount;}\n\n  function getMaxHedge() external view returns (uint256){\n    (uint256 _price,) = volatilityChain.queryPrice();\n    return Math.max(deltaAtZero, deltaAtMax).ethmul(_price);}\n\n  function getContractPayoff(uint256 _id) external view returns(uint256 _payoff, uint256 _payback){\n    (uint256 _price,) = volatilityChain.queryPrice();\n    return optionsList[_id].calcPayoff(_price);}\n\n  function calculateAggregateDelta(uint256 _price, bool _includeExpiring) public view returns(int256 _delta){\n    _delta= 0;\n    for(uint256 i=0;i<activeContractCount;i++){\n      OptionLibrary.Option storage _option = optionsList[uint256(activeOptions.at(i))];\n      uint256 _maturityLeft = _option.calcRemainingMaturity();\n      uint256 _vol = volatilityChain.getVol(_maturityLeft);\n      _delta += _option.calcDelta(_price, _vol, _includeExpiring);}}\n\n  function calculateContractGamma(uint256 _id, uint256 _price) public view returns(int256 _gamma){\n    _gamma = 0;\n    if(optionsList[_id].status== OptionLibrary.OptionStatus.Active  && (optionsList[_id].maturity > block.timestamp)){\n      uint256 _vol = volatilityChain.getVol(optionsList[_id].maturity - block.timestamp);\n      _gamma = SafeCast.toInt256(OptionLibrary.calcGamma(_price, optionsList[_id].strike, _vol).ethmul(optionsList[_id].amount));\n      if(optionsList[_id].side==OptionLibrary.OptionSide.Sell){ _gamma = -_gamma;}}}\n      \n  function calculateAggregateGamma() external view returns(int256 _gamma){\n    (uint256 _price,) = volatilityChain.queryPrice();\n    _gamma= 0;\n    for(uint256 i=0;i<activeContractCount;i++){\n      _gamma += calculateContractGamma(uint256(activeOptions.at(i)),_price);}}\n\n  function calculateSpotGamma() external view returns(int256 _gamma){\n    uint256 _vol = volatilityChain.getVol(86400);\n    _gamma = SafeCast.toInt256(OptionLibrary.calcGamma(BASE, BASE, _vol));}\n\n  function anyOptionExpiring() external view returns(bool _isExpiring) {\n    _isExpiring = false;\n    for(uint256 i=0;i<activeContractCount;i++){\n      if(optionsList[uint256(activeOptions.at(i))].isExpiring()){\n        _isExpiring = true;\n        break;}}}\n\n  function getExpiringOptionId() external view returns(uint256 _id){\n    _id = 0;\n    for(uint256 i=0;i<activeContractCount;i++){\n      uint256 _id_i = uint256(activeOptions.at(i));\n      if(optionsList[_id_i].isExpiring()){\n        _id = _id_i;\n        break;}}}\n\n  function stampActiveOption(uint256 _id, address _holder) external onlyRole(EXCHANGE_ROLE) {\n    OptionLibrary.Option storage _option = optionsList[_id];\n    _option.effectiveTime = block.timestamp;\n    _option.maturity = block.timestamp + _option.tenor;\n    _option.status = OptionLibrary.OptionStatus.Active;\n    \n    sellPutCollaterals += _option.sellPutCollateral();\n    deltaAtZero += _option.calcDeltaAtZero();\n    deltaAtMax += _option.calcDeltaAtMax();\n\n    activeOptionsPerOwner[_holder].add(_id);\n    activeOptions.add(_id);\n    activeContractCount += 1;\n    \n    emit StampNewOption(_id, block.timestamp);}\n\n  function stampExpiredOption(uint256 _id)  external onlyRole(EXCHANGE_ROLE){\n    activeOptions.remove(_id);\n    activeContractCount -= Math.min(activeContractCount, 1);\n    \n    OptionLibrary.Option storage _option = optionsList[_id];\n    _option.status = OptionLibrary.OptionStatus.Expired;\n    _option.exerciseTime = block.timestamp;\n    activeOptionsPerOwner[_option.holder].remove(_id);\n    \n    deltaAtZero -= Math.min(deltaAtZero, _option.calcDeltaAtZero());\n    deltaAtMax -= Math.min(deltaAtMax, _option.calcDeltaAtMax());\n    sellPutCollaterals -= Math.min(sellPutCollaterals, _option.sellPutCollateral());\n    \n    emit StampExpire(_id, block.timestamp);}\n\n  // this function emits values in token decimals.\n  function calcSwapTradesInTok(address _address, uint256 _swapSlippage) external view returns(int256 _tradeUnderlyingAmount, int256 _tradeFundingAmount){\n    (uint256 _price,) = volatilityChain.queryPrice();\n    int256 _aggregateDelta = calculateAggregateDelta(_price, false);\n    _tradeUnderlyingAmount = (_aggregateDelta >= 0? _aggregateDelta: SafeCast.toInt256(0)) - SafeCast.toInt256(MarketLibrary.toWei(underlying.balanceOf(_address), underlyingDecimals));\n    _tradeFundingAmount = MarketLibrary.toDecimalsInt(OptionLibrary.getOpposeTrade(_tradeUnderlyingAmount, _price, _swapSlippage), fundingDecimals);\n    _tradeUnderlyingAmount = MarketLibrary.toDecimalsInt(_tradeUnderlyingAmount, underlyingDecimals);}\n  \n  // this function emits values in DEFAULT decimals.\n  function getBalances(address _address) public view returns(uint256 _underlyingBalance, uint256 _fundingBalance, uint256 _collateralBalance, uint256 _debtBalance){ \n    IProtocolDataProvider _protocolDataProvider = IProtocolDataProvider(aaveAddress.getAddress(\"0x1\"));\n    ( _underlyingBalance, ,  _debtBalance) = MarketLibrary.getTokenBalances(_address, _protocolDataProvider, underlying);\n    ( _fundingBalance,  _collateralBalance,) = MarketLibrary.getTokenBalances(_address, _protocolDataProvider, funding); }\n\n  // this function emits values in token decimals.\n  function calcLoanRepaymentInTok(address _address, uint256 _lendingPoolRateMode) external view returns(uint256 _repayAmount, uint256 _repaySwapValue){\n    (uint256 _price,) = volatilityChain.queryPrice();\n    int256 _aggregateDelta = calculateAggregateDelta(_price, false);\n    (int256 _loanTradeAmount, , ) = MarketLibrary.getLoanTrade(_address, IProtocolDataProvider(aaveAddress.getAddress(\"0x1\")), _aggregateDelta, underlying, _lendingPoolRateMode == 2);\n    _repayAmount = 0;\n    _repaySwapValue = 0;\n    if(_loanTradeAmount < 0){\n      uint256 _loanAmountU = uint256(-_loanTradeAmount);\n      _repayAmount = _loanAmountU - Math.min(_loanAmountU, ERC20(underlying).balanceOf(address(this)));\n      _repaySwapValue = MarketLibrary.toDecimals(_repayAmount.ethmul(_price), fundingDecimals);\n      _repayAmount = MarketLibrary.toDecimals(_repayAmount, underlyingDecimals);}}\n\n  // this function emits values in token decimals.\n  function calcLoanTradesInTok(address _address, uint256 _lendingPoolRateMode) external view returns(int256 _loanTradeAmount, int256 _collateralChange, address _loanAddress, address _collateralAddress){\n    (uint256 _price,) = volatilityChain.queryPrice();\n    int256 _aggregateDelta = calculateAggregateDelta(_price, false); \n    uint256 _targetLoan = 0;\n    IProtocolDataProvider _protocolProvider = IProtocolDataProvider(aaveAddress.getAddress(\"0x1\"));\n    (_loanTradeAmount, _targetLoan, _loanAddress) = MarketLibrary.getLoanTrade(_address, _protocolProvider , _aggregateDelta, underlying, _lendingPoolRateMode == 2);\n    (_collateralChange, _collateralAddress) = MarketLibrary.getCollateralTrade(_address, _protocolProvider, _targetLoan, _price, funding, underlying, overCollateral);\n    _loanTradeAmount = MarketLibrary.toDecimalsInt(_loanTradeAmount, ERC20(_loanAddress).decimals());\n    _collateralChange =MarketLibrary.toDecimalsInt(_collateralChange, ERC20(_collateralAddress).decimals());}\n\n  function queryVol(uint256 _tenor) external view returns(uint256){return volatilityChain.getVol(_tenor);}\n  function queryPrice() external view returns(uint256, uint256){return volatilityChain.queryPrice();}\n  function tokenHash() external view returns (bytes32) {return volatilityChain.tokenHash();}\n  function resetOverCollateral(uint256 _overCollateral) external onlyRole(DEFAULT_ADMIN_ROLE) { overCollateral= _overCollateral;}\n}\n",
  "sourcePath": "/Users/sen/Documents/GitHub/moret/contracts/OptionVault.sol",
  "compiler": {
    "name": "solc",
    "version": "0.8.11+commit.d7f03943.Emscripten.clang"
  },
  "schemaVersion": "3.4.4",
  "updatedAt": "2022-02-02T01:09:36.403Z",
  "networkType": "ethereum",
  "devdoc": {
    "kind": "dev",
    "methods": {
      "getRoleAdmin(bytes32)": {
        "details": "Returns the admin role that controls `role`. See {grantRole} and {revokeRole}. To change a role's admin, use {_setRoleAdmin}."
      },
      "grantRole(bytes32,address)": {
        "details": "Grants `role` to `account`. If `account` had not been already granted `role`, emits a {RoleGranted} event. Requirements: - the caller must have ``role``'s admin role."
      },
      "hasRole(bytes32,address)": {
        "details": "Returns `true` if `account` has been granted `role`."
      },
      "renounceRole(bytes32,address)": {
        "details": "Revokes `role` from the calling account. Roles are often managed via {grantRole} and {revokeRole}: this function's purpose is to provide a mechanism for accounts to lose their privileges if they are compromised (such as when a trusted device is misplaced). If the calling account had been revoked `role`, emits a {RoleRevoked} event. Requirements: - the caller must be `account`."
      },
      "revokeRole(bytes32,address)": {
        "details": "Revokes `role` from `account`. If `account` had been granted `role`, emits a {RoleRevoked} event. Requirements: - the caller must have ``role``'s admin role."
      },
      "supportsInterface(bytes4)": {
        "details": "See {IERC165-supportsInterface}."
      }
    },
    "version": 1
  },
  "userdoc": {
    "kind": "user",
    "methods": {},
    "version": 1
  }
}