{
  "contractName": "OptionVault",
  "abi": [
    {
      "inputs": [
        {
          "internalType": "address",
          "name": "_volChainAddress",
          "type": "address"
        },
        {
          "internalType": "address",
          "name": "_underlying",
          "type": "address"
        },
        {
          "internalType": "address",
          "name": "_funding",
          "type": "address"
        },
        {
          "internalType": "address",
          "name": "_aaveAddress",
          "type": "address"
        }
      ],
      "stateMutability": "nonpayable",
      "type": "constructor"
    },
    {
      "anonymous": false,
      "inputs": [
        {
          "indexed": true,
          "internalType": "bytes32",
          "name": "role",
          "type": "bytes32"
        },
        {
          "indexed": true,
          "internalType": "bytes32",
          "name": "previousAdminRole",
          "type": "bytes32"
        },
        {
          "indexed": true,
          "internalType": "bytes32",
          "name": "newAdminRole",
          "type": "bytes32"
        }
      ],
      "name": "RoleAdminChanged",
      "type": "event"
    },
    {
      "anonymous": false,
      "inputs": [
        {
          "indexed": true,
          "internalType": "bytes32",
          "name": "role",
          "type": "bytes32"
        },
        {
          "indexed": true,
          "internalType": "address",
          "name": "account",
          "type": "address"
        },
        {
          "indexed": true,
          "internalType": "address",
          "name": "sender",
          "type": "address"
        }
      ],
      "name": "RoleGranted",
      "type": "event"
    },
    {
      "anonymous": false,
      "inputs": [
        {
          "indexed": true,
          "internalType": "bytes32",
          "name": "role",
          "type": "bytes32"
        },
        {
          "indexed": true,
          "internalType": "address",
          "name": "account",
          "type": "address"
        },
        {
          "indexed": true,
          "internalType": "address",
          "name": "sender",
          "type": "address"
        }
      ],
      "name": "RoleRevoked",
      "type": "event"
    },
    {
      "inputs": [],
      "name": "DEFAULT_ADMIN_ROLE",
      "outputs": [
        {
          "internalType": "bytes32",
          "name": "",
          "type": "bytes32"
        }
      ],
      "stateMutability": "view",
      "type": "function",
      "constant": true
    },
    {
      "inputs": [],
      "name": "EXCHANGE_ROLE",
      "outputs": [
        {
          "internalType": "bytes32",
          "name": "",
          "type": "bytes32"
        }
      ],
      "stateMutability": "view",
      "type": "function",
      "constant": true
    },
    {
      "inputs": [],
      "name": "aaveAddress",
      "outputs": [
        {
          "internalType": "address",
          "name": "",
          "type": "address"
        }
      ],
      "stateMutability": "view",
      "type": "function",
      "constant": true
    },
    {
      "inputs": [],
      "name": "funding",
      "outputs": [
        {
          "internalType": "address",
          "name": "",
          "type": "address"
        }
      ],
      "stateMutability": "view",
      "type": "function",
      "constant": true
    },
    {
      "inputs": [
        {
          "internalType": "bytes32",
          "name": "role",
          "type": "bytes32"
        }
      ],
      "name": "getRoleAdmin",
      "outputs": [
        {
          "internalType": "bytes32",
          "name": "",
          "type": "bytes32"
        }
      ],
      "stateMutability": "view",
      "type": "function",
      "constant": true
    },
    {
      "inputs": [
        {
          "internalType": "bytes32",
          "name": "role",
          "type": "bytes32"
        },
        {
          "internalType": "address",
          "name": "account",
          "type": "address"
        }
      ],
      "name": "grantRole",
      "outputs": [],
      "stateMutability": "nonpayable",
      "type": "function"
    },
    {
      "inputs": [
        {
          "internalType": "bytes32",
          "name": "role",
          "type": "bytes32"
        },
        {
          "internalType": "address",
          "name": "account",
          "type": "address"
        }
      ],
      "name": "hasRole",
      "outputs": [
        {
          "internalType": "bool",
          "name": "",
          "type": "bool"
        }
      ],
      "stateMutability": "view",
      "type": "function",
      "constant": true
    },
    {
      "inputs": [],
      "name": "optionCounter",
      "outputs": [
        {
          "internalType": "uint256",
          "name": "",
          "type": "uint256"
        }
      ],
      "stateMutability": "view",
      "type": "function",
      "constant": true
    },
    {
      "inputs": [
        {
          "internalType": "bytes32",
          "name": "role",
          "type": "bytes32"
        },
        {
          "internalType": "address",
          "name": "account",
          "type": "address"
        }
      ],
      "name": "renounceRole",
      "outputs": [],
      "stateMutability": "nonpayable",
      "type": "function"
    },
    {
      "inputs": [
        {
          "internalType": "bytes32",
          "name": "role",
          "type": "bytes32"
        },
        {
          "internalType": "address",
          "name": "account",
          "type": "address"
        }
      ],
      "name": "revokeRole",
      "outputs": [],
      "stateMutability": "nonpayable",
      "type": "function"
    },
    {
      "inputs": [
        {
          "internalType": "bytes4",
          "name": "interfaceId",
          "type": "bytes4"
        }
      ],
      "name": "supportsInterface",
      "outputs": [
        {
          "internalType": "bool",
          "name": "",
          "type": "bool"
        }
      ],
      "stateMutability": "view",
      "type": "function",
      "constant": true
    },
    {
      "inputs": [],
      "name": "underlying",
      "outputs": [
        {
          "internalType": "address",
          "name": "",
          "type": "address"
        }
      ],
      "stateMutability": "view",
      "type": "function",
      "constant": true
    },
    {
      "inputs": [],
      "name": "descriptionHash",
      "outputs": [
        {
          "internalType": "bytes32",
          "name": "",
          "type": "bytes32"
        }
      ],
      "stateMutability": "view",
      "type": "function",
      "constant": true
    },
    {
      "inputs": [
        {
          "internalType": "uint256",
          "name": "_strike",
          "type": "uint256"
        },
        {
          "internalType": "uint256",
          "name": "_amount",
          "type": "uint256"
        },
        {
          "internalType": "uint256",
          "name": "_vol",
          "type": "uint256"
        },
        {
          "internalType": "enum OptionLibrary.PayoffType",
          "name": "_poType",
          "type": "uint8"
        },
        {
          "internalType": "enum OptionLibrary.OptionSide",
          "name": "_side",
          "type": "uint8"
        }
      ],
      "name": "queryOptionCost",
      "outputs": [
        {
          "internalType": "uint256",
          "name": "_premium",
          "type": "uint256"
        },
        {
          "internalType": "uint256",
          "name": "_cost",
          "type": "uint256"
        },
        {
          "internalType": "uint256",
          "name": "_price",
          "type": "uint256"
        }
      ],
      "stateMutability": "view",
      "type": "function",
      "constant": true
    },
    {
      "inputs": [
        {
          "internalType": "uint256",
          "name": "_tenor",
          "type": "uint256"
        },
        {
          "internalType": "uint256",
          "name": "_strike",
          "type": "uint256"
        },
        {
          "internalType": "uint256",
          "name": "_amount",
          "type": "uint256"
        },
        {
          "internalType": "enum OptionLibrary.PayoffType",
          "name": "_poType",
          "type": "uint8"
        },
        {
          "internalType": "enum OptionLibrary.OptionSide",
          "name": "_side",
          "type": "uint8"
        },
        {
          "internalType": "uint256",
          "name": "_premium",
          "type": "uint256"
        },
        {
          "internalType": "uint256",
          "name": "_cost",
          "type": "uint256"
        },
        {
          "internalType": "uint256",
          "name": "_price",
          "type": "uint256"
        },
        {
          "internalType": "uint256",
          "name": "_volatility",
          "type": "uint256"
        },
        {
          "internalType": "address",
          "name": "_holder",
          "type": "address"
        }
      ],
      "name": "addOption",
      "outputs": [
        {
          "internalType": "uint256",
          "name": "_id",
          "type": "uint256"
        }
      ],
      "stateMutability": "nonpayable",
      "type": "function"
    },
    {
      "inputs": [
        {
          "internalType": "uint256",
          "name": "_id",
          "type": "uint256"
        }
      ],
      "name": "getOptionHolder",
      "outputs": [
        {
          "internalType": "address",
          "name": "",
          "type": "address"
        }
      ],
      "stateMutability": "view",
      "type": "function",
      "constant": true
    },
    {
      "inputs": [
        {
          "internalType": "address",
          "name": "_address",
          "type": "address"
        }
      ],
      "name": "getHoldersOptionCount",
      "outputs": [
        {
          "internalType": "uint256",
          "name": "",
          "type": "uint256"
        }
      ],
      "stateMutability": "view",
      "type": "function",
      "constant": true
    },
    {
      "inputs": [
        {
          "internalType": "uint256",
          "name": "_index",
          "type": "uint256"
        },
        {
          "internalType": "address",
          "name": "_address",
          "type": "address"
        }
      ],
      "name": "getHoldersOption",
      "outputs": [
        {
          "components": [
            {
              "internalType": "enum OptionLibrary.PayoffType",
              "name": "poType",
              "type": "uint8"
            },
            {
              "internalType": "enum OptionLibrary.OptionSide",
              "name": "side",
              "type": "uint8"
            },
            {
              "internalType": "enum OptionLibrary.OptionStatus",
              "name": "status",
              "type": "uint8"
            },
            {
              "internalType": "address",
              "name": "holder",
              "type": "address"
            },
            {
              "internalType": "uint256",
              "name": "id",
              "type": "uint256"
            },
            {
              "internalType": "uint256",
              "name": "createTime",
              "type": "uint256"
            },
            {
              "internalType": "uint256",
              "name": "effectiveTime",
              "type": "uint256"
            },
            {
              "internalType": "uint256",
              "name": "tenor",
              "type": "uint256"
            },
            {
              "internalType": "uint256",
              "name": "maturity",
              "type": "uint256"
            },
            {
              "internalType": "uint256",
              "name": "exerciseTime",
              "type": "uint256"
            },
            {
              "internalType": "uint256",
              "name": "amount",
              "type": "uint256"
            },
            {
              "internalType": "uint256",
              "name": "spot",
              "type": "uint256"
            },
            {
              "internalType": "uint256",
              "name": "strike",
              "type": "uint256"
            },
            {
              "internalType": "uint256",
              "name": "volatility",
              "type": "uint256"
            },
            {
              "internalType": "uint256",
              "name": "premium",
              "type": "uint256"
            },
            {
              "internalType": "uint256",
              "name": "cost",
              "type": "uint256"
            }
          ],
          "internalType": "struct OptionLibrary.Option",
          "name": "",
          "type": "tuple"
        }
      ],
      "stateMutability": "view",
      "type": "function",
      "constant": true
    },
    {
      "inputs": [
        {
          "internalType": "uint256",
          "name": "_id",
          "type": "uint256"
        }
      ],
      "name": "getOption",
      "outputs": [
        {
          "components": [
            {
              "internalType": "enum OptionLibrary.PayoffType",
              "name": "poType",
              "type": "uint8"
            },
            {
              "internalType": "enum OptionLibrary.OptionSide",
              "name": "side",
              "type": "uint8"
            },
            {
              "internalType": "enum OptionLibrary.OptionStatus",
              "name": "status",
              "type": "uint8"
            },
            {
              "internalType": "address",
              "name": "holder",
              "type": "address"
            },
            {
              "internalType": "uint256",
              "name": "id",
              "type": "uint256"
            },
            {
              "internalType": "uint256",
              "name": "createTime",
              "type": "uint256"
            },
            {
              "internalType": "uint256",
              "name": "effectiveTime",
              "type": "uint256"
            },
            {
              "internalType": "uint256",
              "name": "tenor",
              "type": "uint256"
            },
            {
              "internalType": "uint256",
              "name": "maturity",
              "type": "uint256"
            },
            {
              "internalType": "uint256",
              "name": "exerciseTime",
              "type": "uint256"
            },
            {
              "internalType": "uint256",
              "name": "amount",
              "type": "uint256"
            },
            {
              "internalType": "uint256",
              "name": "spot",
              "type": "uint256"
            },
            {
              "internalType": "uint256",
              "name": "strike",
              "type": "uint256"
            },
            {
              "internalType": "uint256",
              "name": "volatility",
              "type": "uint256"
            },
            {
              "internalType": "uint256",
              "name": "premium",
              "type": "uint256"
            },
            {
              "internalType": "uint256",
              "name": "cost",
              "type": "uint256"
            }
          ],
          "internalType": "struct OptionLibrary.Option",
          "name": "",
          "type": "tuple"
        }
      ],
      "stateMutability": "view",
      "type": "function",
      "constant": true
    },
    {
      "inputs": [
        {
          "internalType": "uint256",
          "name": "_id",
          "type": "uint256"
        }
      ],
      "name": "queryOptionPremium",
      "outputs": [
        {
          "internalType": "uint256",
          "name": "",
          "type": "uint256"
        }
      ],
      "stateMutability": "view",
      "type": "function",
      "constant": true
    },
    {
      "inputs": [
        {
          "internalType": "uint256",
          "name": "_id",
          "type": "uint256"
        },
        {
          "internalType": "bool",
          "name": "_ignoreSells",
          "type": "bool"
        }
      ],
      "name": "queryOptionNotional",
      "outputs": [
        {
          "internalType": "uint256",
          "name": "_notional",
          "type": "uint256"
        }
      ],
      "stateMutability": "view",
      "type": "function",
      "constant": true
    },
    {
      "inputs": [
        {
          "internalType": "bool",
          "name": "_ignoreSells",
          "type": "bool"
        }
      ],
      "name": "getAggregateNotional",
      "outputs": [
        {
          "internalType": "uint256",
          "name": "_notional",
          "type": "uint256"
        }
      ],
      "stateMutability": "view",
      "type": "function",
      "constant": true
    },
    {
      "inputs": [
        {
          "internalType": "uint256",
          "name": "_id",
          "type": "uint256"
        }
      ],
      "name": "getContractPayoff",
      "outputs": [
        {
          "internalType": "uint256",
          "name": "_payoff",
          "type": "uint256"
        },
        {
          "internalType": "uint256",
          "name": "_payback",
          "type": "uint256"
        }
      ],
      "stateMutability": "view",
      "type": "function",
      "constant": true
    },
    {
      "inputs": [
        {
          "internalType": "uint256",
          "name": "_id",
          "type": "uint256"
        },
        {
          "internalType": "uint256",
          "name": "_price",
          "type": "uint256"
        },
        {
          "internalType": "bool",
          "name": "_ignoreSells",
          "type": "bool"
        }
      ],
      "name": "calculateContractDelta",
      "outputs": [
        {
          "internalType": "int256",
          "name": "_delta",
          "type": "int256"
        }
      ],
      "stateMutability": "view",
      "type": "function",
      "constant": true
    },
    {
      "inputs": [
        {
          "internalType": "bool",
          "name": "_ignoreSells",
          "type": "bool"
        }
      ],
      "name": "calculateAggregateDelta",
      "outputs": [
        {
          "internalType": "int256",
          "name": "_delta",
          "type": "int256"
        },
        {
          "internalType": "uint256",
          "name": "_price",
          "type": "uint256"
        }
      ],
      "stateMutability": "view",
      "type": "function",
      "constant": true
    },
    {
      "inputs": [
        {
          "internalType": "uint256",
          "name": "_id",
          "type": "uint256"
        },
        {
          "internalType": "uint256",
          "name": "_price",
          "type": "uint256"
        },
        {
          "internalType": "bool",
          "name": "_ignoreSells",
          "type": "bool"
        }
      ],
      "name": "calculateContractGamma",
      "outputs": [
        {
          "internalType": "int256",
          "name": "_gamma",
          "type": "int256"
        }
      ],
      "stateMutability": "view",
      "type": "function",
      "constant": true
    },
    {
      "inputs": [
        {
          "internalType": "bool",
          "name": "_ignoreSells",
          "type": "bool"
        }
      ],
      "name": "calculateAggregateGamma",
      "outputs": [
        {
          "internalType": "int256",
          "name": "_gamma",
          "type": "int256"
        }
      ],
      "stateMutability": "view",
      "type": "function",
      "constant": true
    },
    {
      "inputs": [],
      "name": "calculateSpotGamma",
      "outputs": [
        {
          "internalType": "int256",
          "name": "_gamma",
          "type": "int256"
        }
      ],
      "stateMutability": "view",
      "type": "function",
      "constant": true
    },
    {
      "inputs": [],
      "name": "anyOptionExpiring",
      "outputs": [
        {
          "internalType": "bool",
          "name": "_isExpiring",
          "type": "bool"
        }
      ],
      "stateMutability": "view",
      "type": "function",
      "constant": true
    },
    {
      "inputs": [
        {
          "internalType": "uint256",
          "name": "_id",
          "type": "uint256"
        }
      ],
      "name": "isExpiring",
      "outputs": [
        {
          "internalType": "bool",
          "name": "",
          "type": "bool"
        }
      ],
      "stateMutability": "view",
      "type": "function",
      "constant": true
    },
    {
      "inputs": [],
      "name": "getExpiringOptionId",
      "outputs": [
        {
          "internalType": "uint256",
          "name": "_id",
          "type": "uint256"
        }
      ],
      "stateMutability": "view",
      "type": "function",
      "constant": true
    },
    {
      "inputs": [
        {
          "internalType": "uint256",
          "name": "_id",
          "type": "uint256"
        },
        {
          "internalType": "address",
          "name": "_holder",
          "type": "address"
        }
      ],
      "name": "stampActiveOption",
      "outputs": [],
      "stateMutability": "nonpayable",
      "type": "function"
    },
    {
      "inputs": [
        {
          "internalType": "uint256",
          "name": "_id",
          "type": "uint256"
        }
      ],
      "name": "stampExpiredOption",
      "outputs": [],
      "stateMutability": "nonpayable",
      "type": "function"
    },
    {
      "inputs": [
        {
          "internalType": "uint256",
          "name": "_swapSlippage",
          "type": "uint256"
        }
      ],
      "name": "calcHedgeTradesForSwaps",
      "outputs": [
        {
          "internalType": "int256",
          "name": "_tradeUnderlyingAmount",
          "type": "int256"
        },
        {
          "internalType": "int256",
          "name": "_tradeFundingAmount",
          "type": "int256"
        }
      ],
      "stateMutability": "view",
      "type": "function",
      "constant": true
    },
    {
      "inputs": [
        {
          "internalType": "address",
          "name": "_address",
          "type": "address"
        }
      ],
      "name": "getBalances",
      "outputs": [
        {
          "internalType": "uint256",
          "name": "_underlyingBalance",
          "type": "uint256"
        },
        {
          "internalType": "uint256",
          "name": "_fundingBalance",
          "type": "uint256"
        },
        {
          "internalType": "uint256",
          "name": "_collateralBalance",
          "type": "uint256"
        },
        {
          "internalType": "uint256",
          "name": "_debtBalance",
          "type": "uint256"
        }
      ],
      "stateMutability": "view",
      "type": "function",
      "constant": true
    },
    {
      "inputs": [
        {
          "internalType": "address",
          "name": "_address",
          "type": "address"
        },
        {
          "internalType": "uint256",
          "name": "_lendingPoolRateMode",
          "type": "uint256"
        }
      ],
      "name": "calcLoanRepayment",
      "outputs": [
        {
          "internalType": "uint256",
          "name": "_repayAmount",
          "type": "uint256"
        },
        {
          "internalType": "uint256",
          "name": "_repaySwapValue",
          "type": "uint256"
        }
      ],
      "stateMutability": "view",
      "type": "function",
      "constant": true
    },
    {
      "inputs": [
        {
          "internalType": "address",
          "name": "_address",
          "type": "address"
        },
        {
          "internalType": "uint256",
          "name": "_lendingPoolRateMode",
          "type": "uint256"
        }
      ],
      "name": "calcHedgeTradesForLoans",
      "outputs": [
        {
          "internalType": "int256",
          "name": "_loanTradeAmount",
          "type": "int256"
        },
        {
          "internalType": "int256",
          "name": "_collateralChange",
          "type": "int256"
        },
        {
          "internalType": "address",
          "name": "_loanAddress",
          "type": "address"
        },
        {
          "internalType": "address",
          "name": "_collateralAddress",
          "type": "address"
        }
      ],
      "stateMutability": "view",
      "type": "function",
      "constant": true
    },
    {
      "inputs": [
        {
          "internalType": "uint256",
          "name": "_tenor",
          "type": "uint256"
        }
      ],
      "name": "queryVol",
      "outputs": [
        {
          "internalType": "uint256",
          "name": "",
          "type": "uint256"
        }
      ],
      "stateMutability": "view",
      "type": "function",
      "constant": true
    },
    {
      "inputs": [],
      "name": "queryPrice",
      "outputs": [
        {
          "internalType": "uint256",
          "name": "",
          "type": "uint256"
        },
        {
          "internalType": "uint256",
          "name": "",
          "type": "uint256"
        }
      ],
      "stateMutability": "view",
      "type": "function",
      "constant": true
    }
  ],
  "bytecode": "0x608060405260006002553480156200001657600080fd5b50604051620058c8380380620058c883398181016040528101906200003c919062000374565b620000516000801b336200019160201b60201c565b620000837f28d62fc77014de57a1bbaa8212ff0979fa61ab00d377b4b8d9762048fb419961336200019160201b60201c565b83600660006101000a81548173ffffffffffffffffffffffffffffffffffffffff021916908373ffffffffffffffffffffffffffffffffffffffff16021790555081600960006101000a81548173ffffffffffffffffffffffffffffffffffffffff021916908373ffffffffffffffffffffffffffffffffffffffff16021790555082600860006101000a81548173ffffffffffffffffffffffffffffffffffffffff021916908373ffffffffffffffffffffffffffffffffffffffff16021790555080600760006101000a81548173ffffffffffffffffffffffffffffffffffffffff021916908373ffffffffffffffffffffffffffffffffffffffff16021790555050505050620003e6565b620001a38282620001a760201b60201c565b5050565b620001b982826200029860201b60201c565b6200029457600160008084815260200190815260200160002060000160008373ffffffffffffffffffffffffffffffffffffffff1673ffffffffffffffffffffffffffffffffffffffff16815260200190815260200160002060006101000a81548160ff021916908315150217905550620002396200030260201b60201c565b73ffffffffffffffffffffffffffffffffffffffff168173ffffffffffffffffffffffffffffffffffffffff16837f2f8788117e7eff1d82e926ec794901d17c78024a50270940304540a733656f0d60405160405180910390a45b5050565b600080600084815260200190815260200160002060000160008373ffffffffffffffffffffffffffffffffffffffff1673ffffffffffffffffffffffffffffffffffffffff16815260200190815260200160002060009054906101000a900460ff16905092915050565b600033905090565b600080fd5b600073ffffffffffffffffffffffffffffffffffffffff82169050919050565b60006200033c826200030f565b9050919050565b6200034e816200032f565b81146200035a57600080fd5b50565b6000815190506200036e8162000343565b92915050565b600080600080608085870312156200039157620003906200030a565b5b6000620003a1878288016200035d565b9450506020620003b4878288016200035d565b9350506040620003c7878288016200035d565b9250506060620003da878288016200035d565b91505092959194509250565b6154d280620003f66000396000f3fe608060405234801561001057600080fd5b506004361061023d5760003560e01c806385ae10e61161013b578063b1cbbfb7116100b8578063cfc2dc201161007c578063cfc2dc20146107aa578063d547741f146107da578063df3189c2146107f6578063ea3d612d14610827578063f8a35181146108575761023d565b8063b1cbbfb7146106c9578063b5310ff9146106f9578063c7da750514610729578063c84aae1714610759578063cb4c86b71461078c5761023d565b806391d14854116100ff57806391d148541461060e5780639bc67cd21461063e578063a217fddf1461065c578063a42b66261461067a578063b0667cf8146106aa5761023d565b806385ae10e61461054157806385dcee93146105725780638a0687d2146105905780638cbb0cd0146105c057806390618ed9146105f05761023d565b80632f2ff15d116101c957806346047a661161018d57806346047a6614610487578063637baf60146104b75780636f307dc3146104d35780637652e7c4146104f157806376df2d081461050f5761023d565b80632f2ff15d146103d057806336568abe146103ec57806337f0882f146104085780633b734501146104395780633b7745ab146104575761023d565b80631a7985ba116102105780631a7985ba146103065780631ce5e9a614610336578063248a9ca31461036657806324b4110e14610396578063251e1e8a146103b25761023d565b806301ffc9a7146102425780630674367814610272578063105df856146102a5578063122ebb3c146102d5575b600080fd5b61025c60048036038101906102579190613dcd565b610875565b6040516102699190613e15565b60405180910390f35b61028c60048036038101906102879190613ec4565b6108ef565b60405161029c9493929190613f2c565b60405180910390f35b6102bf60048036038101906102ba9190613f9d565b610b5e565b6040516102cc9190613fec565b60405180910390f35b6102ef60048036038101906102ea9190613ec4565b610bdc565b6040516102fd929190614007565b60405180910390f35b610320600480360381019061031b9190614030565b611020565b60405161032d919061405d565b60405180910390f35b610350600480360381019061034b9190614030565b611060565b60405161035d91906142e7565b60405180910390f35b610380600480360381019061037b9190614339565b61120d565b60405161038d9190614375565b60405180910390f35b6103b060048036038101906103ab9190614390565b61122c565b005b6103ba611375565b6040516103c7919061405d565b60405180910390f35b6103ea60048036038101906103e591906143d0565b61139b565b005b610406600480360381019061040191906143d0565b6113c4565b005b610422600480360381019061041d9190614410565b611447565b60405161043092919061443d565b60405180910390f35b61044161154a565b60405161044e9190614375565b60405180910390f35b610471600480360381019061046c9190614410565b61156e565b60405161047e9190613fec565b60405180910390f35b6104a1600480360381019061049c9190614030565b6115c6565b6040516104ae9190613fec565b60405180910390f35b6104d160048036038101906104cc9190614030565b6115e6565b005b6104db611713565b6040516104e8919061405d565b60405180910390f35b6104f9611739565b6040516105069190613fec565b60405180910390f35b610529600480360381019061052491906144b0565b6117a1565b6040516105389392919061452b565b60405180910390f35b61055b60048036038101906105569190614030565b6119bc565b604051610569929190614007565b60405180910390f35b61057a611c4e565b6040516105879190614375565b60405180910390f35b6105aa60048036038101906105a59190614390565b611d20565b6040516105b791906142e7565b60405180910390f35b6105da60048036038101906105d59190614562565b611f1e565b6040516105e791906145b5565b60405180910390f35b6105f86122fc565b6040516106059190613e15565b60405180910390f35b610628600480360381019061062391906143d0565b612352565b6040516106359190613e15565b60405180910390f35b6106466123bc565b60405161065391906145b5565b60405180910390f35b6106646125f6565b6040516106719190614375565b60405180910390f35b610694600480360381019061068f91906145d0565b6125fd565b6040516106a19190613fec565b60405180910390f35b6106b261264d565b6040516106c0929190614007565b60405180910390f35b6106e360048036038101906106de9190614562565b6126f7565b6040516106f091906145b5565b60405180910390f35b610713600480360381019061070e91906145fd565b612a39565b6040516107209190613fec565b60405180910390f35b610743600480360381019061073e9190614030565b612cc0565b6040516107509190613e15565b60405180910390f35b610773600480360381019061076e91906145d0565b612d36565b60405161078394939291906146dc565b60405180910390f35b610794612f5e565b6040516107a1919061405d565b60405180910390f35b6107c460048036038101906107bf9190614030565b612f84565b6040516107d19190613fec565b60405180910390f35b6107f460048036038101906107ef91906143d0565b613038565b005b610810600480360381019061080b9190614030565b613061565b60405161081e929190614721565b60405180910390f35b610841600480360381019061083c9190614410565b613329565b60405161084e91906145b5565b60405180910390f35b61085f61342b565b60405161086c9190613fec565b60405180910390f35b60007f7965db0b000000000000000000000000000000000000000000000000000000007bffffffffffffffffffffffffffffffffffffffffffffffffffffffff1916827bffffffffffffffffffffffffffffffffffffffffffffffffffffffff191614806108e857506108e782613431565b5b9050919050565b6000806000806000806109026000611447565b915091506000600760009054906101000a900473ffffffffffffffffffffffffffffffffffffffff1673ffffffffffffffffffffffffffffffffffffffff166321f8a7216040518163ffffffff1660e01b815260040161096190614770565b60206040518083038186803b15801561097957600080fd5b505afa15801561098d573d6000803e3d6000fd5b505050506040513d601f19601f820116820180604052508101906109b1919061479e565b9050600073__MarketLibrary_________________________63b076288a8b8487600860009054906101000a900473ffffffffffffffffffffffffffffffffffffffff1660028f146040518663ffffffff1660e01b8152600401610a199594939291906147f8565b60606040518083038186803b158015610a3157600080fd5b505af4158015610a45573d6000803e3d6000fd5b505050506040513d601f19601f82011682018060405250810190610a69919061488c565b809850819350829a5050505073__MarketLibrary_________________________6312638d3a8b848487600960009054906101000a900473ffffffffffffffffffffffffffffffffffffffff16600860009054906101000a900473ffffffffffffffffffffffffffffffffffffffff166040518763ffffffff1660e01b8152600401610afa969594939291906148ee565b604080518083038186803b158015610b1157600080fd5b505af4158015610b25573d6000803e3d6000fd5b505050506040513d601f19601f82011682018060405250810190610b49919061494f565b80965081985050505050505092959194509250565b600060016000848152602001908152602001600020600701549050600180811115610b8c57610b8b614078565b5b6001600085815260200190815260200160002060000160019054906101000a900460ff166001811115610bc257610bc1614078565b5b148015610bcc5750815b15610bd657600090505b92915050565b600080600080610bec6000611447565b91509150600073__MarketLibrary_________________________63b076288a88600760009054906101000a900473ffffffffffffffffffffffffffffffffffffffff1673ffffffffffffffffffffffffffffffffffffffff166321f8a7216040518163ffffffff1660e01b8152600401610c6690614770565b60206040518083038186803b158015610c7e57600080fd5b505afa158015610c92573d6000803e3d6000fd5b505050506040513d601f19601f82011682018060405250810190610cb6919061479e565b86600860009054906101000a900473ffffffffffffffffffffffffffffffffffffffff1660028c146040518663ffffffff1660e01b8152600401610cfe9594939291906147f8565b60606040518083038186803b158015610d1657600080fd5b505af4158015610d2a573d6000803e3d6000fd5b505050506040513d601f19601f82011682018060405250810190610d4e919061488c565b505090506000945060009350600081121561101657610e2081610d70906149be565b600860009054906101000a900473ffffffffffffffffffffffffffffffffffffffff1673ffffffffffffffffffffffffffffffffffffffff166370a08231306040518263ffffffff1660e01b8152600401610dcb919061405d565b60206040518083038186803b158015610de357600080fd5b505afa158015610df7573d6000803e3d6000fd5b505050506040513d601f19601f82011682018060405250810190610e1b9190614a07565b61349b565b81610e2a906149be565b610e349190614a34565b945073__MarketLibrary_________________________638170ce80610ed6878573__OptionLibrary_________________________63fd9b87636040518163ffffffff1660e01b815260040160206040518083038186803b158015610e9957600080fd5b505af4158015610ead573d6000803e3d6000fd5b505050506040513d601f19601f82011682018060405250810190610ed19190614a07565b6134b4565b600960009054906101000a900473ffffffffffffffffffffffffffffffffffffffff166040518363ffffffff1660e01b8152600401610f16929190614a68565b60206040518083038186803b158015610f2e57600080fd5b505af4158015610f42573d6000803e3d6000fd5b505050506040513d601f19601f82011682018060405250810190610f669190614a07565b935073__MarketLibrary_________________________638170ce8086600860009054906101000a900473ffffffffffffffffffffffffffffffffffffffff166040518363ffffffff1660e01b8152600401610fc3929190614a68565b60206040518083038186803b158015610fdb57600080fd5b505af4158015610fef573d6000803e3d6000fd5b505050506040513d601f19601f820116820180604052508101906110139190614a07565b94505b5050509250929050565b60006001600083815260200190815260200160002060000160039054906101000a900473ffffffffffffffffffffffffffffffffffffffff169050919050565b611068613c98565b60016000838152602001908152602001600020604051806102000160405290816000820160009054906101000a900460ff1660018111156110ac576110ab614078565b5b60018111156110be576110bd614078565b5b81526020016000820160019054906101000a900460ff1660018111156110e7576110e6614078565b5b60018111156110f9576110f8614078565b5b81526020016000820160029054906101000a900460ff16600381111561112257611121614078565b5b600381111561113457611133614078565b5b81526020016000820160039054906101000a900473ffffffffffffffffffffffffffffffffffffffff1673ffffffffffffffffffffffffffffffffffffffff1673ffffffffffffffffffffffffffffffffffffffff168152602001600182015481526020016002820154815260200160038201548152602001600482015481526020016005820154815260200160068201548152602001600782015481526020016008820154815260200160098201548152602001600a8201548152602001600b8201548152602001600c820154815250509050919050565b6000806000838152602001908152602001600020600101549050919050565b7f28d62fc77014de57a1bbaa8212ff0979fa61ab00d377b4b8d9762048fb41996161125e816112596135b0565b6135b8565b426001600085815260200190815260200160002060030181905550600160008481526020019081526020016000206004015460016000858152602001908152602001600020600301546112b19190614a91565b6001600085815260200190815260200160002060050181905550600180600085815260200190815260200160002060000160026101000a81548160ff0219169083600381111561130457611303614078565b5b021790555061135a83600360008573ffffffffffffffffffffffffffffffffffffffff1673ffffffffffffffffffffffffffffffffffffffff16815260200190815260200160002061365590919063ffffffff16565b5061136f83600461365590919063ffffffff16565b50505050565b600760009054906101000a900473ffffffffffffffffffffffffffffffffffffffff1681565b6113a48261120d565b6113b5816113b06135b0565b6135b8565b6113bf838361366f565b505050565b6113cc6135b0565b73ffffffffffffffffffffffffffffffffffffffff168173ffffffffffffffffffffffffffffffffffffffff1614611439576040517f08c379a000000000000000000000000000000000000000000000000000000000815260040161143090614b6a565b60405180910390fd5b611443828261374f565b5050565b600080600660009054906101000a900473ffffffffffffffffffffffffffffffffffffffff1673ffffffffffffffffffffffffffffffffffffffff1663b0667cf86040518163ffffffff1660e01b8152600401604080518083038186803b1580156114b157600080fd5b505afa1580156114c5573d6000803e3d6000fd5b505050506040513d601f19601f820116820180604052508101906114e99190614b8a565b50809150506000915060005b6114ff6004613830565b8110156115445761152461151d82600461384590919063ffffffff16565b8386611f1e565b8361152f9190614bca565b9250808061153c90614c5e565b9150506114f5565b50915091565b7f28d62fc77014de57a1bbaa8212ff0979fa61ab00d377b4b8d9762048fb41996181565b6000805b61157c6004613830565b8110156115c0576115a061159a82600461384590919063ffffffff16565b84610b5e565b826115ab9190614a91565b915080806115b890614c5e565b915050611572565b50919050565b600060016000838152602001908152602001600020600b01549050919050565b7f28d62fc77014de57a1bbaa8212ff0979fa61ab00d377b4b8d9762048fb419961611618816116136135b0565b6135b8565b42600160008481526020019081526020016000206006018190555060036001600084815260200190815260200160002060000160026101000a81548160ff0219169083600381111561166d5761166c614078565b5b02179055506116f982600360006001600087815260200190815260200160002060000160039054906101000a900473ffffffffffffffffffffffffffffffffffffffff1673ffffffffffffffffffffffffffffffffffffffff1673ffffffffffffffffffffffffffffffffffffffff16815260200190815260200160002061385f90919063ffffffff16565b5061170e82600461385f90919063ffffffff16565b505050565b600860009054906101000a900473ffffffffffffffffffffffffffffffffffffffff1681565b6000805b6117476004613830565b81101561179d5761176a61176582600461384590919063ffffffff16565b612cc0565b1561178a5761178381600461384590919063ffffffff16565b915061179d565b808061179590614c5e565b91505061173d565b5090565b6000806000600660009054906101000a900473ffffffffffffffffffffffffffffffffffffffff1673ffffffffffffffffffffffffffffffffffffffff1663b0667cf86040518163ffffffff1660e01b8152600401604080518083038186803b15801561180d57600080fd5b505afa158015611821573d6000803e3d6000fd5b505050506040513d601f19601f820116820180604052508101906118459190614b8a565b508091505073__OptionLibrary_________________________6324f6434582888b898c6040518663ffffffff1660e01b8152600401611889959493929190614cb6565b60206040518083038186803b1580156118a157600080fd5b505af41580156118b5573d6000803e3d6000fd5b505050506040513d601f19601f820116820180604052508101906118d99190614a07565b92508291506001808111156118f1576118f0614078565b5b84600181111561190457611903614078565b5b14156119b1576000611992888373__OptionLibrary_________________________63fd9b87636040518163ffffffff1660e01b815260040160206040518083038186803b15801561195557600080fd5b505af4158015611969573d6000803e3d6000fd5b505050506040513d601f19601f8201168201806040525081019061198d9190614a07565b6134b4565b9050838110156119a157600080fd5b83816119ad9190614a34565b9250505b955095509592505050565b6000806000600660009054906101000a900473ffffffffffffffffffffffffffffffffffffffff1673ffffffffffffffffffffffffffffffffffffffff1663b0667cf86040518163ffffffff1660e01b8152600401604080518083038186803b158015611a2857600080fd5b505afa158015611a3c573d6000803e3d6000fd5b505050506040513d601f19601f82011682018060405250810190611a609190614b8a565b5090506001600085815260200190815260200160002073__OptionLibrary_________________________63a69d3ae09091836040518363ffffffff1660e01b8152600401611ab0929190614d10565b60206040518083038186803b158015611ac857600080fd5b505af4158015611adc573d6000803e3d6000fd5b505050506040513d601f19601f82011682018060405250810190611b009190614a07565b9250829150600180811115611b1857611b17614078565b5b6001600086815260200190815260200160002060000160019054906101000a900460ff166001811115611b4e57611b4d614078565b5b1415611c485760006001600086815260200190815260200160002073__OptionLibrary_________________________630862958b9091846040518363ffffffff1660e01b8152600401611ba3929190614d10565b60206040518083038186803b158015611bbb57600080fd5b505af4158015611bcf573d6000803e3d6000fd5b505050506040513d601f19601f82011682018060405250810190611bf39190614a07565b905083811015611c38576040517f08c379a0000000000000000000000000000000000000000000000000000000008152600401611c2f90614d85565b60405180910390fd5b8381611c449190614a34565b9250505b50915091565b6000600660009054906101000a900473ffffffffffffffffffffffffffffffffffffffff1673ffffffffffffffffffffffffffffffffffffffff166398de78976040518163ffffffff1660e01b815260040160006040518083038186803b158015611cb857600080fd5b505afa158015611ccc573d6000803e3d6000fd5b505050506040513d6000823e3d601f19601f82011682018060405250810190611cf59190614f0f565b604051602001611d059190614f9f565b60405160208183030381529060405280519060200120905090565b611d28613c98565b60016000611d7d85600360008773ffffffffffffffffffffffffffffffffffffffff1673ffffffffffffffffffffffffffffffffffffffff16815260200190815260200160002061384590919063ffffffff16565b8152602001908152602001600020604051806102000160405290816000820160009054906101000a900460ff166001811115611dbc57611dbb614078565b5b6001811115611dce57611dcd614078565b5b81526020016000820160019054906101000a900460ff166001811115611df757611df6614078565b5b6001811115611e0957611e08614078565b5b81526020016000820160029054906101000a900460ff166003811115611e3257611e31614078565b5b6003811115611e4457611e43614078565b5b81526020016000820160039054906101000a900473ffffffffffffffffffffffffffffffffffffffff1673ffffffffffffffffffffffffffffffffffffffff1673ffffffffffffffffffffffffffffffffffffffff168152602001600182015481526020016002820154815260200160038201548152602001600482015481526020016005820154815260200160068201548152602001600782015481526020016008820154815260200160098201548152602001600a8201548152602001600b8201548152602001600c82015481525050905092915050565b600060016003811115611f3457611f33614078565b5b6001600086815260200190815260200160002060000160029054906101000a900460ff166003811115611f6a57611f69614078565b5b148015611f8c5750426001600086815260200190815260200160002060050154115b8015611fe85750818015611fe65750600180811115611fae57611fad614078565b5b6001600086815260200190815260200160002060000160019054906101000a900460ff166001811115611fe457611fe3614078565b5b145b155b156122f5576000600660009054906101000a900473ffffffffffffffffffffffffffffffffffffffff1673ffffffffffffffffffffffffffffffffffffffff1663040b030f61204d60016000898152602001908152602001600020600501544261349b565b600160008981526020019081526020016000206005015461206e9190614a34565b6040518263ffffffff1660e01b815260040161208a9190613fec565b60206040518083038186803b1580156120a257600080fd5b505afa1580156120b6573d6000803e3d6000fd5b505050506040513d601f19601f820116820180604052508101906120da9190614a07565b905061221873__OptionLibrary_________________________6323a00f6586600160008a815260200190815260200160002060090154856040518463ffffffff1660e01b815260040161213093929190614fb6565b60206040518083038186803b15801561214857600080fd5b505af415801561215c573d6000803e3d6000fd5b505050506040513d601f19601f820116820180604052508101906121809190614a07565b600160008881526020019081526020016000206007015473__OptionLibrary_________________________63fd9b87636040518163ffffffff1660e01b815260040160206040518083038186803b1580156121db57600080fd5b505af41580156121ef573d6000803e3d6000fd5b505050506040513d601f19601f820116820180604052508101906122139190614a07565b6134b4565b915060018081111561222d5761222c614078565b5b6001600087815260200190815260200160002060000160009054906101000a900460ff16600181111561226357612262614078565b5b14156122975781600160008781526020019081526020016000206007015461228a906149be565b6122949190614bca565b91505b6001808111156122aa576122a9614078565b5b6001600087815260200190815260200160002060000160019054906101000a900460ff1660018111156122e0576122df614078565b5b14156122f357816122f0906149be565b91505b505b9392505050565b6000805b61230a6004613830565b81101561234e5761232d61232882600461384590919063ffffffff16565b612cc0565b1561233b576001915061234e565b808061234690614c5e565b915050612300565b5090565b600080600084815260200190815260200160002060000160008373ffffffffffffffffffffffffffffffffffffffff1673ffffffffffffffffffffffffffffffffffffffff16815260200190815260200160002060009054906101000a900460ff16905092915050565b600080600660009054906101000a900473ffffffffffffffffffffffffffffffffffffffff1673ffffffffffffffffffffffffffffffffffffffff1663040b030f620151806040518263ffffffff1660e01b815260040161241d9190615032565b60206040518083038186803b15801561243557600080fd5b505afa158015612449573d6000803e3d6000fd5b505050506040513d601f19601f8201168201806040525081019061246d9190614a07565b905073__OptionLibrary_________________________639932b2be73__OptionLibrary_________________________63fd9b87636040518163ffffffff1660e01b815260040160206040518083038186803b1580156124cd57600080fd5b505af41580156124e1573d6000803e3d6000fd5b505050506040513d601f19601f820116820180604052508101906125059190614a07565b73__OptionLibrary_________________________63fd9b87636040518163ffffffff1660e01b815260040160206040518083038186803b15801561254957600080fd5b505af415801561255d573d6000803e3d6000fd5b505050506040513d601f19601f820116820180604052508101906125819190614a07565b846040518463ffffffff1660e01b81526004016125a093929190614fb6565b60206040518083038186803b1580156125b857600080fd5b505af41580156125cc573d6000803e3d6000fd5b505050506040513d601f19601f820116820180604052508101906125f09190614a07565b91505090565b6000801b81565b6000612646600360008473ffffffffffffffffffffffffffffffffffffffff1673ffffffffffffffffffffffffffffffffffffffff168152602001908152602001600020613830565b9050919050565b600080600660009054906101000a900473ffffffffffffffffffffffffffffffffffffffff1673ffffffffffffffffffffffffffffffffffffffff1663b0667cf86040518163ffffffff1660e01b8152600401604080518083038186803b1580156126b757600080fd5b505afa1580156126cb573d6000803e3d6000fd5b505050506040513d601f19601f820116820180604052508101906126ef9190614b8a565b915091509091565b60006001600381111561270d5761270c614078565b5b6001600086815260200190815260200160002060000160029054906101000a900460ff16600381111561274357612742614078565b5b1480156127655750426001600086815260200190815260200160002060050154115b80156127c157508180156127bf575060018081111561278757612786614078565b5b6001600086815260200190815260200160002060000160019054906101000a900460ff1660018111156127bd576127bc614078565b5b145b155b15612a32576000600660009054906101000a900473ffffffffffffffffffffffffffffffffffffffff1673ffffffffffffffffffffffffffffffffffffffff1663040b030f4260016000898152602001908152602001600020600501546128289190614a34565b6040518263ffffffff1660e01b81526004016128449190613fec565b60206040518083038186803b15801561285c57600080fd5b505afa158015612870573d6000803e3d6000fd5b505050506040513d601f19601f820116820180604052508101906128949190614a07565b90506129d273__OptionLibrary_________________________639932b2be86600160008a815260200190815260200160002060090154856040518463ffffffff1660e01b81526004016128ea93929190614fb6565b60206040518083038186803b15801561290257600080fd5b505af4158015612916573d6000803e3d6000fd5b505050506040513d601f19601f8201168201806040525081019061293a9190614a07565b600160008881526020019081526020016000206007015473__OptionLibrary_________________________63fd9b87636040518163ffffffff1660e01b815260040160206040518083038186803b15801561299557600080fd5b505af41580156129a9573d6000803e3d6000fd5b505050506040513d601f19601f820116820180604052508101906129cd9190614a07565b6134b4565b91506001808111156129e7576129e6614078565b5b6001600087815260200190815260200160002060000160019054906101000a900460ff166001811115612a1d57612a1c614078565b5b1415612a305781612a2d906149be565b91505b505b9392505050565b60007f28d62fc77014de57a1bbaa8212ff0979fa61ab00d377b4b8d9762048fb419961612a6d81612a686135b0565b6135b8565b60026000815480929190612a8090614c5e565b919050555060025491506040518061020001604052808a6001811115612aa957612aa8614078565b5b8152602001896001811115612ac157612ac0614078565b5b815260200160006003811115612ada57612ad9614078565b5b81526020018473ffffffffffffffffffffffffffffffffffffffff168152602001838152602001428152602001600081526020018d815260200160008152602001600081526020018b81526020018681526020018c8152602001858152602001888152602001878152506001600084815260200190815260200160002060008201518160000160006101000a81548160ff02191690836001811115612b8257612b81614078565b5b021790555060208201518160000160016101000a81548160ff02191690836001811115612bb257612bb1614078565b5b021790555060408201518160000160026101000a81548160ff02191690836003811115612be257612be1614078565b5b021790555060608201518160000160036101000a81548173ffffffffffffffffffffffffffffffffffffffff021916908373ffffffffffffffffffffffffffffffffffffffff1602179055506080820151816001015560a0820151816002015560c0820151816003015560e08201518160040155610100820151816005015561012082015181600601556101408201518160070155610160820151816008015561018082015181600901556101a082015181600a01556101c082015181600b01556101e082015181600c0155905050509a9950505050505050505050565b600060016003811115612cd657612cd5614078565b5b6001600084815260200190815260200160002060000160029054906101000a900460ff166003811115612d0c57612d0b614078565b5b148015612d2f575042600160008481526020019081526020016000206005015411155b9050919050565b6000806000806000600760009054906101000a900473ffffffffffffffffffffffffffffffffffffffff1673ffffffffffffffffffffffffffffffffffffffff166321f8a7216040518163ffffffff1660e01b8152600401612d9790614770565b60206040518083038186803b158015612daf57600080fd5b505afa158015612dc3573d6000803e3d6000fd5b505050506040513d601f19601f82011682018060405250810190612de7919061479e565b905073__MarketLibrary_________________________6332c21e138783600860009054906101000a900473ffffffffffffffffffffffffffffffffffffffff166040518463ffffffff1660e01b8152600401612e469392919061504d565b60606040518083038186803b158015612e5e57600080fd5b505af4158015612e72573d6000803e3d6000fd5b505050506040513d601f19601f82011682018060405250810190612e969190615084565b9050809350819650505073__MarketLibrary_________________________6332c21e138783600960009054906101000a900473ffffffffffffffffffffffffffffffffffffffff166040518463ffffffff1660e01b8152600401612efd9392919061504d565b60606040518083038186803b158015612f1557600080fd5b505af4158015612f29573d6000803e3d6000fd5b505050506040513d601f19601f82011682018060405250810190612f4d9190615084565b508094508195505050509193509193565b600960009054906101000a900473ffffffffffffffffffffffffffffffffffffffff1681565b6000600660009054906101000a900473ffffffffffffffffffffffffffffffffffffffff1673ffffffffffffffffffffffffffffffffffffffff1663040b030f836040518263ffffffff1660e01b8152600401612fe19190613fec565b60206040518083038186803b158015612ff957600080fd5b505afa15801561300d573d6000803e3d6000fd5b505050506040513d601f19601f820116820180604052508101906130319190614a07565b9050919050565b6130418261120d565b6130528161304d6135b0565b6135b8565b61305c838361374f565b505050565b6000806000806130716000611447565b9150915073__MarketLibrary_________________________63eea2526b600860009054906101000a900473ffffffffffffffffffffffffffffffffffffffff16306040518363ffffffff1660e01b81526004016130d09291906150d7565b60206040518083038186803b1580156130e857600080fd5b505af41580156130fc573d6000803e3d6000fd5b505050506040513d601f19601f820116820180604052508101906131209190614a07565b6000831215613130576000613132565b825b61313c9190615100565b935073__MarketLibrary_________________________63aa5c12c773__OptionLibrary_________________________63ca0cc13d87858a6040518463ffffffff1660e01b815260040161319393929190615194565b60206040518083038186803b1580156131ab57600080fd5b505af41580156131bf573d6000803e3d6000fd5b505050506040513d601f19601f820116820180604052508101906131e391906151cb565b600960009054906101000a900473ffffffffffffffffffffffffffffffffffffffff166040518363ffffffff1660e01b81526004016132239291906151f8565b60206040518083038186803b15801561323b57600080fd5b505af415801561324f573d6000803e3d6000fd5b505050506040513d601f19601f8201168201806040525081019061327391906151cb565b925073__MarketLibrary_________________________63aa5c12c785600860009054906101000a900473ffffffffffffffffffffffffffffffffffffffff166040518363ffffffff1660e01b81526004016132d09291906151f8565b60206040518083038186803b1580156132e857600080fd5b505af41580156132fc573d6000803e3d6000fd5b505050506040513d601f19601f8201168201806040525081019061332091906151cb565b93505050915091565b600080600660009054906101000a900473ffffffffffffffffffffffffffffffffffffffff1673ffffffffffffffffffffffffffffffffffffffff1663b0667cf86040518163ffffffff1660e01b8152600401604080518083038186803b15801561339357600080fd5b505afa1580156133a7573d6000803e3d6000fd5b505050506040513d601f19601f820116820180604052508101906133cb9190614b8a565b5090506000915060005b6133df6004613830565b811015613424576134046133fd82600461384590919063ffffffff16565b83866126f7565b8361340f9190614bca565b9250808061341c90614c5e565b9150506133d5565b5050919050565b60025481565b60007f01ffc9a7000000000000000000000000000000000000000000000000000000007bffffffffffffffffffffffffffffffffffffffffffffffffffffffff1916827bffffffffffffffffffffffffffffffffffffffffffffffffffffffff1916149050919050565b60008183106134aa57816134ac565b825b905092915050565b6000806000801985870985870292508281108382030391505060008114156134ef57600084116134e357600080fd5b838204925050506135a9565b8084116134fb57600080fd5b60008486880990508281118203915080830392506000856001877fffffffffffffffffffffffffffffffffffffffffffffffffffffffffffffffff0301169050808604955080840493506001818260000304019050808302841793506000600287600302189050808702600203810290508087026002038102905080870260020381029050808702600203810290508087026002038102905080870260020381029050808502955050505050505b9392505050565b600033905090565b6135c28282612352565b613651576135e78173ffffffffffffffffffffffffffffffffffffffff166014613879565b6135f58360001c6020613879565b6040516020016136069291906152b9565b6040516020818303038152906040526040517f08c379a0000000000000000000000000000000000000000000000000000000008152600401613648919061532c565b60405180910390fd5b5050565b6000613667836000018360001b613ab5565b905092915050565b6136798282612352565b61374b57600160008084815260200190815260200160002060000160008373ffffffffffffffffffffffffffffffffffffffff1673ffffffffffffffffffffffffffffffffffffffff16815260200190815260200160002060006101000a81548160ff0219169083151502179055506136f06135b0565b73ffffffffffffffffffffffffffffffffffffffff168173ffffffffffffffffffffffffffffffffffffffff16837f2f8788117e7eff1d82e926ec794901d17c78024a50270940304540a733656f0d60405160405180910390a45b5050565b6137598282612352565b1561382c57600080600084815260200190815260200160002060000160008373ffffffffffffffffffffffffffffffffffffffff1673ffffffffffffffffffffffffffffffffffffffff16815260200190815260200160002060006101000a81548160ff0219169083151502179055506137d16135b0565b73ffffffffffffffffffffffffffffffffffffffff168173ffffffffffffffffffffffffffffffffffffffff16837ff6391f5c32d9c69d2a47ea670b442974b53935d1edc7fd64eb21e047a839171b60405160405180910390a45b5050565b600061383e82600001613b25565b9050919050565b60006138548360000183613b36565b60001c905092915050565b6000613871836000018360001b613b61565b905092915050565b60606000600283600261388c919061534e565b6138969190614a91565b67ffffffffffffffff8111156138af576138ae614dc0565b5b6040519080825280601f01601f1916602001820160405280156138e15781602001600182028036833780820191505090505b5090507f300000000000000000000000000000000000000000000000000000000000000081600081518110613919576139186153a8565b5b60200101907effffffffffffffffffffffffffffffffffffffffffffffffffffffffffffff1916908160001a9053507f78000000000000000000000000000000000000000000000000000000000000008160018151811061397d5761397c6153a8565b5b60200101907effffffffffffffffffffffffffffffffffffffffffffffffffffffffffffff1916908160001a905350600060018460026139bd919061534e565b6139c79190614a91565b90505b6001811115613a67577f3031323334353637383961626364656600000000000000000000000000000000600f861660108110613a0957613a086153a8565b5b1a60f81b828281518110613a2057613a1f6153a8565b5b60200101907effffffffffffffffffffffffffffffffffffffffffffffffffffffffffffff1916908160001a905350600485901c945080613a60906153d7565b90506139ca565b5060008414613aab576040517f08c379a0000000000000000000000000000000000000000000000000000000008152600401613aa29061544d565b60405180910390fd5b8091505092915050565b6000613ac18383613c75565b613b1a578260000182908060018154018082558091505060019003906000526020600020016000909190919091505582600001805490508360010160008481526020019081526020016000208190555060019050613b1f565b600090505b92915050565b600081600001805490509050919050565b6000826000018281548110613b4e57613b4d6153a8565b5b9060005260206000200154905092915050565b60008083600101600084815260200190815260200160002054905060008114613c69576000600182613b939190614a34565b9050600060018660000180549050613bab9190614a34565b9050818114613c1a576000866000018281548110613bcc57613bcb6153a8565b5b9060005260206000200154905080876000018481548110613bf057613bef6153a8565b5b90600052602060002001819055508387600101600083815260200190815260200160002081905550505b85600001805480613c2e57613c2d61546d565b5b600190038181906000526020600020016000905590558560010160008681526020019081526020016000206000905560019350505050613c6f565b60009150505b92915050565b600080836001016000848152602001908152602001600020541415905092915050565b60405180610200016040528060006001811115613cb857613cb7614078565b5b815260200160006001811115613cd157613cd0614078565b5b815260200160006003811115613cea57613ce9614078565b5b8152602001600073ffffffffffffffffffffffffffffffffffffffff1681526020016000815260200160008152602001600081526020016000815260200160008152602001600081526020016000815260200160008152602001600081526020016000815260200160008152602001600081525090565b6000604051905090565b600080fd5b600080fd5b60007fffffffff0000000000000000000000000000000000000000000000000000000082169050919050565b613daa81613d75565b8114613db557600080fd5b50565b600081359050613dc781613da1565b92915050565b600060208284031215613de357613de2613d6b565b5b6000613df184828501613db8565b91505092915050565b60008115159050919050565b613e0f81613dfa565b82525050565b6000602082019050613e2a6000830184613e06565b92915050565b600073ffffffffffffffffffffffffffffffffffffffff82169050919050565b6000613e5b82613e30565b9050919050565b613e6b81613e50565b8114613e7657600080fd5b50565b600081359050613e8881613e62565b92915050565b6000819050919050565b613ea181613e8e565b8114613eac57600080fd5b50565b600081359050613ebe81613e98565b92915050565b60008060408385031215613edb57613eda613d6b565b5b6000613ee985828601613e79565b9250506020613efa85828601613eaf565b9150509250929050565b6000819050919050565b613f1781613f04565b82525050565b613f2681613e50565b82525050565b6000608082019050613f416000830187613f0e565b613f4e6020830186613f0e565b613f5b6040830185613f1d565b613f686060830184613f1d565b95945050505050565b613f7a81613dfa565b8114613f8557600080fd5b50565b600081359050613f9781613f71565b92915050565b60008060408385031215613fb457613fb3613d6b565b5b6000613fc285828601613eaf565b9250506020613fd385828601613f88565b9150509250929050565b613fe681613e8e565b82525050565b60006020820190506140016000830184613fdd565b92915050565b600060408201905061401c6000830185613fdd565b6140296020830184613fdd565b9392505050565b60006020828403121561404657614045613d6b565b5b600061405484828501613eaf565b91505092915050565b60006020820190506140726000830184613f1d565b92915050565b7f4e487b7100000000000000000000000000000000000000000000000000000000600052602160045260246000fd5b600281106140b8576140b7614078565b5b50565b60008190506140c9826140a7565b919050565b60006140d9826140bb565b9050919050565b6140e9816140ce565b82525050565b60028110614100576140ff614078565b5b50565b6000819050614111826140ef565b919050565b600061412182614103565b9050919050565b61413181614116565b82525050565b6004811061414857614147614078565b5b50565b600081905061415982614137565b919050565b60006141698261414b565b9050919050565b6141798161415e565b82525050565b61418881613e50565b82525050565b61419781613e8e565b82525050565b610200820160008201516141b460008501826140e0565b5060208201516141c76020850182614128565b5060408201516141da6040850182614170565b5060608201516141ed606085018261417f565b506080820151614200608085018261418e565b5060a082015161421360a085018261418e565b5060c082015161422660c085018261418e565b5060e082015161423960e085018261418e565b5061010082015161424e61010085018261418e565b5061012082015161426361012085018261418e565b5061014082015161427861014085018261418e565b5061016082015161428d61016085018261418e565b506101808201516142a261018085018261418e565b506101a08201516142b76101a085018261418e565b506101c08201516142cc6101c085018261418e565b506101e08201516142e16101e085018261418e565b50505050565b6000610200820190506142fd600083018461419d565b92915050565b6000819050919050565b61431681614303565b811461432157600080fd5b50565b6000813590506143338161430d565b92915050565b60006020828403121561434f5761434e613d6b565b5b600061435d84828501614324565b91505092915050565b61436f81614303565b82525050565b600060208201905061438a6000830184614366565b92915050565b600080604083850312156143a7576143a6613d6b565b5b60006143b585828601613eaf565b92505060206143c685828601613e79565b9150509250929050565b600080604083850312156143e7576143e6613d6b565b5b60006143f585828601614324565b925050602061440685828601613e79565b9150509250929050565b60006020828403121561442657614425613d6b565b5b600061443484828501613f88565b91505092915050565b60006040820190506144526000830185613f0e565b61445f6020830184613fdd565b9392505050565b6002811061447357600080fd5b50565b60008135905061448581614466565b92915050565b6002811061449857600080fd5b50565b6000813590506144aa8161448b565b92915050565b600080600080600060a086880312156144cc576144cb613d6b565b5b60006144da88828901613eaf565b95505060206144eb88828901613eaf565b94505060406144fc88828901613eaf565b935050606061450d88828901614476565b925050608061451e8882890161449b565b9150509295509295909350565b60006060820190506145406000830186613fdd565b61454d6020830185613fdd565b61455a6040830184613fdd565b949350505050565b60008060006060848603121561457b5761457a613d6b565b5b600061458986828701613eaf565b935050602061459a86828701613eaf565b92505060406145ab86828701613f88565b9150509250925092565b60006020820190506145ca6000830184613f0e565b92915050565b6000602082840312156145e6576145e5613d6b565b5b60006145f484828501613e79565b91505092915050565b6000806000806000806000806000806101408b8d03121561462157614620613d6b565b5b600061462f8d828e01613eaf565b9a505060206146408d828e01613eaf565b99505060406146518d828e01613eaf565b98505060606146628d828e01614476565b97505060806146738d828e0161449b565b96505060a06146848d828e01613eaf565b95505060c06146958d828e01613eaf565b94505060e06146a68d828e01613eaf565b9350506101006146b88d828e01613eaf565b9250506101206146ca8d828e01613e79565b9150509295989b9194979a5092959850565b60006080820190506146f16000830187613fdd565b6146fe6020830186613fdd565b61470b6040830185613fdd565b6147186060830184613fdd565b95945050505050565b60006040820190506147366000830185613f0e565b6147436020830184613f0e565b9392505050565b7f3078310000000000000000000000000000000000000000000000000000000000815250565b60006020820190506147846000830161474a565b919050565b60008151905061479881613e62565b92915050565b6000602082840312156147b4576147b3613d6b565b5b60006147c284828501614789565b91505092915050565b6147d481613e50565b82525050565b6147e381613f04565b82525050565b6147f281613dfa565b82525050565b600060a08201905061480d60008301886147cb565b61481a60208301876147cb565b61482760408301866147da565b61483460608301856147cb565b61484160808301846147e9565b9695505050505050565b61485481613f04565b811461485f57600080fd5b50565b6000815190506148718161484b565b92915050565b60008151905061488681613e98565b92915050565b6000806000606084860312156148a5576148a4613d6b565b5b60006148b386828701614862565b93505060206148c486828701614877565b92505060406148d586828701614789565b9150509250925092565b6148e881613e8e565b82525050565b600060c08201905061490360008301896147cb565b61491060208301886147cb565b61491d60408301876148df565b61492a60608301866148df565b61493760808301856147cb565b61494460a08301846147cb565b979650505050505050565b6000806040838503121561496657614965613d6b565b5b600061497485828601614862565b925050602061498585828601614789565b9150509250929050565b7f4e487b7100000000000000000000000000000000000000000000000000000000600052601160045260246000fd5b60006149c982613f04565b91507f80000000000000000000000000000000000000000000000000000000000000008214156149fc576149fb61498f565b5b816000039050919050565b600060208284031215614a1d57614a1c613d6b565b5b6000614a2b84828501614877565b91505092915050565b6000614a3f82613e8e565b9150614a4a83613e8e565b925082821015614a5d57614a5c61498f565b5b828203905092915050565b6000604082019050614a7d60008301856148df565b614a8a60208301846147cb565b9392505050565b6000614a9c82613e8e565b9150614aa783613e8e565b9250827fffffffffffffffffffffffffffffffffffffffffffffffffffffffffffffffff03821115614adc57614adb61498f565b5b828201905092915050565b600082825260208201905092915050565b7f416363657373436f6e74726f6c3a2063616e206f6e6c792072656e6f756e636560008201527f20726f6c657320666f722073656c660000000000000000000000000000000000602082015250565b6000614b54602f83614ae7565b9150614b5f82614af8565b604082019050919050565b60006020820190508181036000830152614b8381614b47565b9050919050565b60008060408385031215614ba157614ba0613d6b565b5b6000614baf85828601614877565b9250506020614bc085828601614877565b9150509250929050565b6000614bd582613f04565b9150614be083613f04565b9250817f7fffffffffffffffffffffffffffffffffffffffffffffffffffffffffffffff03831360008312151615614c1b57614c1a61498f565b5b817f8000000000000000000000000000000000000000000000000000000000000000038312600083121615614c5357614c5261498f565b5b828201905092915050565b6000614c6982613e8e565b91507fffffffffffffffffffffffffffffffffffffffffffffffffffffffffffffffff821415614c9c57614c9b61498f565b5b600182019050919050565b614cb0816140ce565b82525050565b600060a082019050614ccb60008301886148df565b614cd860208301876148df565b614ce560408301866148df565b614cf26060830185614ca7565b614cff60808301846148df565b9695505050505050565b8082525050565b6000604082019050614d256000830185614d09565b614d3260208301846148df565b9392505050565b7f5061796f666620696e636f72726563742e000000000000000000000000000000600082015250565b6000614d6f601183614ae7565b9150614d7a82614d39565b602082019050919050565b60006020820190508181036000830152614d9e81614d62565b9050919050565b600080fd5b600080fd5b6000601f19601f8301169050919050565b7f4e487b7100000000000000000000000000000000000000000000000000000000600052604160045260246000fd5b614df882614daf565b810181811067ffffffffffffffff82111715614e1757614e16614dc0565b5b80604052505050565b6000614e2a613d61565b9050614e368282614def565b919050565b600067ffffffffffffffff821115614e5657614e55614dc0565b5b614e5f82614daf565b9050602081019050919050565b60005b83811015614e8a578082015181840152602081019050614e6f565b83811115614e99576000848401525b50505050565b6000614eb2614ead84614e3b565b614e20565b905082815260208101848484011115614ece57614ecd614daa565b5b614ed9848285614e6c565b509392505050565b600082601f830112614ef657614ef5614da5565b5b8151614f06848260208601614e9f565b91505092915050565b600060208284031215614f2557614f24613d6b565b5b600082015167ffffffffffffffff811115614f4357614f42613d70565b5b614f4f84828501614ee1565b91505092915050565b600081519050919050565b600081905092915050565b6000614f7982614f58565b614f838185614f63565b9350614f93818560208601614e6c565b80840191505092915050565b6000614fab8284614f6e565b915081905092915050565b6000606082019050614fcb60008301866148df565b614fd860208301856148df565b614fe560408301846148df565b949350505050565b6000819050919050565b6000819050919050565b600061501c61501761501284614fed565b614ff7565b613e8e565b9050919050565b61502c81615001565b82525050565b60006020820190506150476000830184615023565b92915050565b600060608201905061506260008301866147cb565b61506f60208301856147cb565b61507c60408301846147cb565b949350505050565b60008060006060848603121561509d5761509c613d6b565b5b60006150ab86828701614877565b93505060206150bc86828701614877565b92505060406150cd86828701614877565b9150509250925092565b60006040820190506150ec60008301856147cb565b6150f960208301846147cb565b9392505050565b600061510b82613f04565b915061511683613f04565b9250827f8000000000000000000000000000000000000000000000000000000000000000018212600084121516156151515761515061498f565b5b827f7fffffffffffffffffffffffffffffffffffffffffffffffffffffffffffffff0182136000841216156151895761518861498f565b5b828203905092915050565b60006060820190506151a960008301866147da565b6151b660208301856148df565b6151c360408301846148df565b949350505050565b6000602082840312156151e1576151e0613d6b565b5b60006151ef84828501614862565b91505092915050565b600060408201905061520d60008301856147da565b61521a60208301846147cb565b9392505050565b7f416363657373436f6e74726f6c3a206163636f756e7420000000000000000000600082015250565b6000615257601783614f63565b915061526282615221565b601782019050919050565b7f206973206d697373696e6720726f6c6520000000000000000000000000000000600082015250565b60006152a3601183614f63565b91506152ae8261526d565b601182019050919050565b60006152c48261524a565b91506152d08285614f6e565b91506152db82615296565b91506152e78284614f6e565b91508190509392505050565b60006152fe82614f58565b6153088185614ae7565b9350615318818560208601614e6c565b61532181614daf565b840191505092915050565b6000602082019050818103600083015261534681846152f3565b905092915050565b600061535982613e8e565b915061536483613e8e565b9250817fffffffffffffffffffffffffffffffffffffffffffffffffffffffffffffffff048311821515161561539d5761539c61498f565b5b828202905092915050565b7f4e487b7100000000000000000000000000000000000000000000000000000000600052603260045260246000fd5b60006153e282613e8e565b915060008214156153f6576153f561498f565b5b600182039050919050565b7f537472696e67733a20686578206c656e67746820696e73756666696369656e74600082015250565b6000615437602083614ae7565b915061544282615401565b602082019050919050565b600060208201905081810360008301526154668161542a565b9050919050565b7f4e487b7100000000000000000000000000000000000000000000000000000000600052603160045260246000fdfea26469706673582212202f2c57230ebc51668065001becb1066a7393ffd1be7b155aeb59a4d74fdd27a464736f6c63430008090033",
  "immutableReferences": {},
  "source": "/**\n * SPDX-License-Identifier: GPL-3.0-or-later\n * Moret\n * Copyright (C) 2021 Moret\n*/\n\npragma solidity 0.8.9;\nimport \"@openzeppelin/contracts/access/AccessControl.sol\";\nimport \"@openzeppelin/contracts/utils/structs/EnumerableSet.sol\";\nimport \"./MarketLibrary.sol\";\n\ncontract OptionVault is AccessControl{\n  using OptionLibrary for OptionLibrary.Option;\n  using EnumerableSet for EnumerableSet.UintSet;\n  // using EnumerableSet for EnumerableSet.AddressSet;\n\n  bytes32 public constant EXCHANGE_ROLE = keccak256(\"EXCHANGE_ROLE\");\n  mapping(uint256=> OptionLibrary.Option) internal optionsList;\n  uint256 public optionCounter = 0;\n  mapping(address=> EnumerableSet.UintSet) internal activeOptionsPerOwner;\n  EnumerableSet.UintSet internal activeOptions;\n  IVolatilityChain internal volatilityChain;\n\n  address public aaveAddress;\n  address public underlying;\n  address public funding;\n\n  constructor( address _volChainAddress, address _underlying, address _funding, address _aaveAddress){\n    _setupRole(DEFAULT_ADMIN_ROLE, msg.sender);\n    _setupRole(EXCHANGE_ROLE, msg.sender);\n    volatilityChain = IVolatilityChain(_volChainAddress); \n    funding = _funding;\n    underlying = _underlying;\n    aaveAddress = _aaveAddress;}\n  \n  function descriptionHash() external view returns (bytes32)  { return keccak256(abi.encodePacked(volatilityChain.getDecription()));}\n\n  function queryOptionCost(uint256 _strike, uint256 _amount, uint256 _vol, OptionLibrary.PayoffType _poType, OptionLibrary.OptionSide _side) external view returns(uint256 _premium, uint256 _cost, uint256 _price) {\n    (_price,) = volatilityChain.queryPrice();\n    _premium = OptionLibrary.calcPremium(_price, _vol, _strike, _poType, _amount);\n    _cost = _premium;\n    if(_side == OptionLibrary.OptionSide.Sell){\n      uint256 _notional = MulDiv(_amount, _price, OptionLibrary.Multiplier());\n      require(_notional>= _premium);\n      _cost = _notional - _premium;}}\n\n  function addOption(uint256 _tenor, uint256 _strike, uint256 _amount, OptionLibrary.PayoffType _poType, OptionLibrary.OptionSide _side, uint256 _premium, uint256 _cost, uint256 _price, uint256 _volatility, address _holder) external onlyRole(EXCHANGE_ROLE) returns(uint256 _id) {\n    optionCounter++;\n    _id = optionCounter;\n    optionsList[_id] = OptionLibrary.Option(_poType, _side, OptionLibrary.OptionStatus.Draft, _holder, _id, block.timestamp,  0, _tenor, 0,  0, _amount, _price, _strike, _volatility, _premium, _cost);}\n\n  function getOptionHolder(uint256 _id) external view returns(address) { return optionsList[_id].holder;}\n  function getHoldersOptionCount(address _address) external view returns(uint256){return activeOptionsPerOwner[_address].length();}\n  function getHoldersOption(uint256 _index, address _address) external view returns(OptionLibrary.Option memory) {return optionsList[activeOptionsPerOwner[_address].at(_index)];}\n  function getOption(uint256 _id) external view returns(OptionLibrary.Option memory) {return optionsList[_id];}\n\n  function queryOptionPremium(uint256 _id) external view returns(uint256) {return optionsList[_id].premium;}\n\n  function queryOptionNotional(uint256 _id, bool _ignoreSells) public view returns(uint256 _notional){\n    _notional=optionsList[_id].amount;\n    if(optionsList[_id].side==OptionLibrary.OptionSide.Sell && _ignoreSells){_notional=0;}}\n  \n  function getAggregateNotional(bool _ignoreSells) external view returns(uint256 _notional) {\n    _notional= 0;\n    for(uint256 i=0;i<activeOptions.length();i++){\n      _notional += queryOptionNotional(uint256(activeOptions.at(i)), _ignoreSells);} }\n\n  function getContractPayoff(uint256 _id) external view returns(uint256 _payoff, uint256 _payback){\n    (uint256 _price,) = volatilityChain.queryPrice();\n    _payoff = optionsList[_id].calcPayoff(_price);\n    _payback = _payoff;\n    if(optionsList[_id].side == OptionLibrary.OptionSide.Sell){ \n      uint256 _notional = optionsList[_id].calcNotionalExposure(_price);\n      require(_notional >= _payoff, \"Payoff incorrect.\");\n      _payback = _notional - _payoff;}}\n\n  function calculateContractDelta(uint256 _id, uint256 _price, bool _ignoreSells) public view returns(int256 _delta){\n    _delta = 0;\n    if(optionsList[_id].status== OptionLibrary.OptionStatus.Active && (optionsList[_id].maturity > block.timestamp) && !(_ignoreSells && optionsList[_id].side==OptionLibrary.OptionSide.Sell)){\n      uint256 _vol = volatilityChain.getVol(optionsList[_id].maturity - Math.min(optionsList[_id].maturity, block.timestamp));\n      _delta = int256(MulDiv(OptionLibrary.calcDelta(_price, optionsList[_id].strike, _vol), optionsList[_id].amount, OptionLibrary.Multiplier() ));\n      if(optionsList[_id].poType==OptionLibrary.PayoffType.Put) {_delta = -int256(optionsList[_id].amount) + _delta; }\n      if(optionsList[_id].side==OptionLibrary.OptionSide.Sell){ _delta = -_delta;}}}\n    \n  function calculateAggregateDelta(bool _ignoreSells) public view returns(int256 _delta, uint256 _price){\n    (_price,) = volatilityChain.queryPrice();\n    _delta= 0;\n    for(uint256 i=0;i<activeOptions.length();i++){\n      _delta += calculateContractDelta(uint256(activeOptions.at(i)),_price, _ignoreSells);}}\n\n  function calculateContractGamma(uint256 _id, uint256 _price, bool _ignoreSells) public view returns(int256 _gamma){\n    _gamma = 0;\n    if(optionsList[_id].status== OptionLibrary.OptionStatus.Active  && (optionsList[_id].maturity > block.timestamp) && !(_ignoreSells && optionsList[_id].side==OptionLibrary.OptionSide.Sell)){\n      uint256 _vol = volatilityChain.getVol(optionsList[_id].maturity - block.timestamp);\n      _gamma = int256(MulDiv(OptionLibrary.calcGamma(_price, optionsList[_id].strike, _vol), optionsList[_id].amount, OptionLibrary.Multiplier() ));\n      if(optionsList[_id].side==OptionLibrary.OptionSide.Sell){ _gamma = -_gamma;}}}\n      \n  function calculateAggregateGamma(bool _ignoreSells) external view returns(int256 _gamma){\n    (uint256 _price,) = volatilityChain.queryPrice();\n    _gamma= 0;\n    for(uint256 i=0;i<activeOptions.length();i++){\n      _gamma += calculateContractGamma(uint256(activeOptions.at(i)),_price, _ignoreSells);}}\n\n  function calculateSpotGamma() external view returns(int256 _gamma){\n    uint256 _vol = volatilityChain.getVol(86400);\n    _gamma = int256(OptionLibrary.calcGamma(OptionLibrary.Multiplier(), OptionLibrary.Multiplier(), _vol));}\n    \n  // function validateOption(uint256 _id, address _holder) external view {\n  //   require(optionsList[_id].holder== _holder, \"Not the owner.\");\n  //   require(optionsList[_id].maturity >= block.timestamp, \"Option has expired.\");\n  //   require(optionsList[_id].status==OptionLibrary.OptionStatus.Active, \"Not active option.\");}\n\n  function anyOptionExpiring() external view returns(bool _isExpiring) {\n    _isExpiring = false;\n    for(uint256 i=0;i<activeOptions.length();i++){\n      if(isExpiring(uint256(activeOptions.at(i)))){\n        _isExpiring = true;\n        break;}}}\n\n  function isExpiring(uint256 _id) public view returns (bool){ return (optionsList[_id].status== OptionLibrary.OptionStatus.Active) && (optionsList[_id].maturity <= block.timestamp);}\n\n  function getExpiringOptionId() external view returns(uint256 _id){\n    _id = 0;\n    for(uint256 i=0;i<activeOptions.length();i++){\n      if(isExpiring(uint256(activeOptions.at(i)))){\n        _id = uint256(activeOptions.at(i));\n        break;}}\n  }\n\n  function stampActiveOption(uint256 _id, address _holder) external onlyRole(EXCHANGE_ROLE) {\n    optionsList[_id].effectiveTime = block.timestamp;\n    optionsList[_id].maturity = optionsList[_id].effectiveTime + optionsList[_id].tenor;\n    optionsList[_id].status = OptionLibrary.OptionStatus.Active;\n    activeOptionsPerOwner[_holder].add(_id);\n    activeOptions.add(_id);}\n\n  // function stampExercisedOption(uint256 _id) external onlyRole(EXCHANGE_ROLE){\n  //     optionsList[_id].exerciseTime = block.timestamp;\n  //     optionsList[_id].status = OptionLibrary.OptionStatus.Exercised;}\n\n  function stampExpiredOption(uint256 _id)  external onlyRole(EXCHANGE_ROLE){\n    optionsList[_id].exerciseTime = block.timestamp;\n    optionsList[_id].status = OptionLibrary.OptionStatus.Expired;\n    activeOptionsPerOwner[optionsList[_id].holder].remove(_id);\n    activeOptions.remove(_id);}\n\n  function calcHedgeTradesForSwaps(uint256 _swapSlippage) external view returns(int256 _tradeUnderlyingAmount, int256 _tradeFundingAmount){\n    (int256 _aggregateDelta, uint256 _price) = calculateAggregateDelta(false);\n    _tradeUnderlyingAmount = (_aggregateDelta >= 0? _aggregateDelta: int256(0)) - int256(MarketLibrary.balanceDef(underlying, address(this)));\n    _tradeFundingAmount = MarketLibrary.cvtDecimalsInt(OptionLibrary.getOpposeTrade(_tradeUnderlyingAmount, _price, _swapSlippage), funding);\n    _tradeUnderlyingAmount = MarketLibrary.cvtDecimalsInt(_tradeUnderlyingAmount, underlying);}\n  \n  function getBalances(address _address) external view returns(uint256 _underlyingBalance, uint256 _fundingBalance, uint256 _collateralBalance, uint256 _debtBalance){\n    address _protocolAds = ILendingPoolAddressesProvider(aaveAddress).getAddress(\"0x1\");//bytes32(uint256(1)));\n    ( _underlyingBalance, ,  _debtBalance) = MarketLibrary.getTokenBalances(_address, _protocolAds, underlying);\n    ( _fundingBalance,  _collateralBalance,) = MarketLibrary.getTokenBalances(_address, _protocolAds, funding); }\n\n  function calcLoanRepayment(address _address, uint256 _lendingPoolRateMode) external view returns(uint256 _repayAmount, uint256 _repaySwapValue){\n    (int256 _aggregateDelta, uint256 _price ) = calculateAggregateDelta(false);\n    (int256 _loanTradeAmount, , ) = MarketLibrary.getLoanTrade(_address, ILendingPoolAddressesProvider(aaveAddress).getAddress(\"0x1\"), _aggregateDelta, underlying, _lendingPoolRateMode == 2);\n    _repayAmount = 0;\n    _repaySwapValue = 0;\n    if(_loanTradeAmount < 0){\n      _repayAmount = uint256(-_loanTradeAmount) - Math.min(uint256(-_loanTradeAmount), ERC20(underlying).balanceOf(address(this)));\n      _repaySwapValue = MarketLibrary.cvtDecimals(MulDiv(_repayAmount, _price, OptionLibrary.Multiplier()), funding);\n      _repayAmount = MarketLibrary.cvtDecimals(_repayAmount, underlying);}}\n\n  function calcHedgeTradesForLoans(address _address, uint256 _lendingPoolRateMode) external view returns(int256 _loanTradeAmount, int256 _collateralChange, address _loanAddress, address _collateralAddress){\n    (int256 _aggregateDelta, uint256 _price) = calculateAggregateDelta(false);\n    address _protocolAds = ILendingPoolAddressesProvider(aaveAddress).getAddress(\"0x1\");\n    uint256 _targetLoan = 0;\n    (_loanTradeAmount, _targetLoan, _loanAddress) = MarketLibrary.getLoanTrade(_address, _protocolAds, _aggregateDelta, underlying, _lendingPoolRateMode == 2);\n    (_collateralChange, _collateralAddress) = MarketLibrary.getCollateralTrade(_address, _protocolAds, _targetLoan, _price, funding, underlying);}\n\n  function queryVol(uint256 _tenor) external view returns(uint256){return volatilityChain.getVol(_tenor);}\n  function queryPrice() external view returns(uint256, uint256){return volatilityChain.queryPrice();}\n}\n",
  "sourcePath": "/Users/apple/Documents/GitHub/moret/contracts/OptionVault.sol",
  "compiler": {
    "name": "solc",
    "version": "0.8.9+commit.e5eed63a.Emscripten.clang"
  },
  "schemaVersion": "3.4.3",
  "updatedAt": "2021-11-24T19:45:48.481Z",
  "networkType": "ethereum",
  "devdoc": {
    "kind": "dev",
    "methods": {
      "getRoleAdmin(bytes32)": {
        "details": "Returns the admin role that controls `role`. See {grantRole} and {revokeRole}. To change a role's admin, use {_setRoleAdmin}."
      },
      "grantRole(bytes32,address)": {
        "details": "Grants `role` to `account`. If `account` had not been already granted `role`, emits a {RoleGranted} event. Requirements: - the caller must have ``role``'s admin role."
      },
      "hasRole(bytes32,address)": {
        "details": "Returns `true` if `account` has been granted `role`."
      },
      "renounceRole(bytes32,address)": {
        "details": "Revokes `role` from the calling account. Roles are often managed via {grantRole} and {revokeRole}: this function's purpose is to provide a mechanism for accounts to lose their privileges if they are compromised (such as when a trusted device is misplaced). If the calling account had been granted `role`, emits a {RoleRevoked} event. Requirements: - the caller must be `account`."
      },
      "revokeRole(bytes32,address)": {
        "details": "Revokes `role` from `account`. If `account` had been granted `role`, emits a {RoleRevoked} event. Requirements: - the caller must have ``role``'s admin role."
      },
      "supportsInterface(bytes4)": {
        "details": "See {IERC165-supportsInterface}."
      }
    },
    "version": 1
  },
  "userdoc": {
    "kind": "user",
    "methods": {},
    "version": 1
  }
}