{
  "contractName": "OptionVault",
  "abi": [
    {
      "inputs": [
        {
          "internalType": "address",
          "name": "_volChainAddress",
          "type": "address"
        },
        {
          "internalType": "address",
          "name": "_underlying",
          "type": "address"
        },
        {
          "internalType": "address",
          "name": "_funding",
          "type": "address"
        },
        {
          "internalType": "address",
          "name": "_aaveAddress",
          "type": "address"
        }
      ],
      "stateMutability": "nonpayable",
      "type": "constructor"
    },
    {
      "anonymous": false,
      "inputs": [
        {
          "indexed": true,
          "internalType": "bytes32",
          "name": "role",
          "type": "bytes32"
        },
        {
          "indexed": true,
          "internalType": "bytes32",
          "name": "previousAdminRole",
          "type": "bytes32"
        },
        {
          "indexed": true,
          "internalType": "bytes32",
          "name": "newAdminRole",
          "type": "bytes32"
        }
      ],
      "name": "RoleAdminChanged",
      "type": "event"
    },
    {
      "anonymous": false,
      "inputs": [
        {
          "indexed": true,
          "internalType": "bytes32",
          "name": "role",
          "type": "bytes32"
        },
        {
          "indexed": true,
          "internalType": "address",
          "name": "account",
          "type": "address"
        },
        {
          "indexed": true,
          "internalType": "address",
          "name": "sender",
          "type": "address"
        }
      ],
      "name": "RoleGranted",
      "type": "event"
    },
    {
      "anonymous": false,
      "inputs": [
        {
          "indexed": true,
          "internalType": "bytes32",
          "name": "role",
          "type": "bytes32"
        },
        {
          "indexed": true,
          "internalType": "address",
          "name": "account",
          "type": "address"
        },
        {
          "indexed": true,
          "internalType": "address",
          "name": "sender",
          "type": "address"
        }
      ],
      "name": "RoleRevoked",
      "type": "event"
    },
    {
      "inputs": [],
      "name": "DEFAULT_ADMIN_ROLE",
      "outputs": [
        {
          "internalType": "bytes32",
          "name": "",
          "type": "bytes32"
        }
      ],
      "stateMutability": "view",
      "type": "function",
      "constant": true
    },
    {
      "inputs": [],
      "name": "EXCHANGE_ROLE",
      "outputs": [
        {
          "internalType": "bytes32",
          "name": "",
          "type": "bytes32"
        }
      ],
      "stateMutability": "view",
      "type": "function",
      "constant": true
    },
    {
      "inputs": [],
      "name": "aaveAddress",
      "outputs": [
        {
          "internalType": "address",
          "name": "",
          "type": "address"
        }
      ],
      "stateMutability": "view",
      "type": "function",
      "constant": true
    },
    {
      "inputs": [],
      "name": "funding",
      "outputs": [
        {
          "internalType": "address",
          "name": "",
          "type": "address"
        }
      ],
      "stateMutability": "view",
      "type": "function",
      "constant": true
    },
    {
      "inputs": [
        {
          "internalType": "bytes32",
          "name": "role",
          "type": "bytes32"
        }
      ],
      "name": "getRoleAdmin",
      "outputs": [
        {
          "internalType": "bytes32",
          "name": "",
          "type": "bytes32"
        }
      ],
      "stateMutability": "view",
      "type": "function",
      "constant": true
    },
    {
      "inputs": [
        {
          "internalType": "bytes32",
          "name": "role",
          "type": "bytes32"
        },
        {
          "internalType": "address",
          "name": "account",
          "type": "address"
        }
      ],
      "name": "grantRole",
      "outputs": [],
      "stateMutability": "nonpayable",
      "type": "function"
    },
    {
      "inputs": [
        {
          "internalType": "bytes32",
          "name": "role",
          "type": "bytes32"
        },
        {
          "internalType": "address",
          "name": "account",
          "type": "address"
        }
      ],
      "name": "hasRole",
      "outputs": [
        {
          "internalType": "bool",
          "name": "",
          "type": "bool"
        }
      ],
      "stateMutability": "view",
      "type": "function",
      "constant": true
    },
    {
      "inputs": [],
      "name": "optionCounter",
      "outputs": [
        {
          "internalType": "uint256",
          "name": "",
          "type": "uint256"
        }
      ],
      "stateMutability": "view",
      "type": "function",
      "constant": true
    },
    {
      "inputs": [
        {
          "internalType": "bytes32",
          "name": "role",
          "type": "bytes32"
        },
        {
          "internalType": "address",
          "name": "account",
          "type": "address"
        }
      ],
      "name": "renounceRole",
      "outputs": [],
      "stateMutability": "nonpayable",
      "type": "function"
    },
    {
      "inputs": [
        {
          "internalType": "bytes32",
          "name": "role",
          "type": "bytes32"
        },
        {
          "internalType": "address",
          "name": "account",
          "type": "address"
        }
      ],
      "name": "revokeRole",
      "outputs": [],
      "stateMutability": "nonpayable",
      "type": "function"
    },
    {
      "inputs": [
        {
          "internalType": "bytes4",
          "name": "interfaceId",
          "type": "bytes4"
        }
      ],
      "name": "supportsInterface",
      "outputs": [
        {
          "internalType": "bool",
          "name": "",
          "type": "bool"
        }
      ],
      "stateMutability": "view",
      "type": "function",
      "constant": true
    },
    {
      "inputs": [],
      "name": "underlying",
      "outputs": [
        {
          "internalType": "address",
          "name": "",
          "type": "address"
        }
      ],
      "stateMutability": "view",
      "type": "function",
      "constant": true
    },
    {
      "inputs": [],
      "name": "volChainAddress",
      "outputs": [
        {
          "internalType": "address",
          "name": "",
          "type": "address"
        }
      ],
      "stateMutability": "view",
      "type": "function",
      "constant": true
    },
    {
      "inputs": [],
      "name": "descriptionHash",
      "outputs": [
        {
          "internalType": "bytes32",
          "name": "",
          "type": "bytes32"
        }
      ],
      "stateMutability": "view",
      "type": "function",
      "constant": true
    },
    {
      "inputs": [
        {
          "internalType": "uint256",
          "name": "_tenor",
          "type": "uint256"
        },
        {
          "internalType": "uint256",
          "name": "_strike",
          "type": "uint256"
        },
        {
          "internalType": "uint256",
          "name": "_amount",
          "type": "uint256"
        },
        {
          "internalType": "enum OptionLibrary.PayoffType",
          "name": "_poType",
          "type": "uint8"
        },
        {
          "internalType": "enum OptionLibrary.OptionSide",
          "name": "_side",
          "type": "uint8"
        },
        {
          "internalType": "uint256",
          "name": "_premium",
          "type": "uint256"
        },
        {
          "internalType": "uint256",
          "name": "_cost",
          "type": "uint256"
        },
        {
          "internalType": "uint256",
          "name": "_price",
          "type": "uint256"
        },
        {
          "internalType": "uint256",
          "name": "_volatility",
          "type": "uint256"
        },
        {
          "internalType": "address",
          "name": "_holder",
          "type": "address"
        }
      ],
      "name": "addOption",
      "outputs": [
        {
          "internalType": "uint256",
          "name": "_id",
          "type": "uint256"
        }
      ],
      "stateMutability": "nonpayable",
      "type": "function"
    },
    {
      "inputs": [
        {
          "internalType": "uint256",
          "name": "_id",
          "type": "uint256"
        }
      ],
      "name": "getOptionHolder",
      "outputs": [
        {
          "internalType": "address",
          "name": "",
          "type": "address"
        }
      ],
      "stateMutability": "view",
      "type": "function",
      "constant": true
    },
    {
      "inputs": [
        {
          "internalType": "address",
          "name": "_address",
          "type": "address"
        }
      ],
      "name": "getHoldersOptionCount",
      "outputs": [
        {
          "internalType": "uint256",
          "name": "",
          "type": "uint256"
        }
      ],
      "stateMutability": "view",
      "type": "function",
      "constant": true
    },
    {
      "inputs": [
        {
          "internalType": "uint256",
          "name": "_index",
          "type": "uint256"
        },
        {
          "internalType": "address",
          "name": "_address",
          "type": "address"
        }
      ],
      "name": "getHoldersOption",
      "outputs": [
        {
          "components": [
            {
              "internalType": "enum OptionLibrary.PayoffType",
              "name": "poType",
              "type": "uint8"
            },
            {
              "internalType": "enum OptionLibrary.OptionSide",
              "name": "side",
              "type": "uint8"
            },
            {
              "internalType": "enum OptionLibrary.OptionStatus",
              "name": "status",
              "type": "uint8"
            },
            {
              "internalType": "address",
              "name": "holder",
              "type": "address"
            },
            {
              "internalType": "uint256",
              "name": "id",
              "type": "uint256"
            },
            {
              "internalType": "uint256",
              "name": "createTime",
              "type": "uint256"
            },
            {
              "internalType": "uint256",
              "name": "effectiveTime",
              "type": "uint256"
            },
            {
              "internalType": "uint256",
              "name": "tenor",
              "type": "uint256"
            },
            {
              "internalType": "uint256",
              "name": "maturity",
              "type": "uint256"
            },
            {
              "internalType": "uint256",
              "name": "exerciseTime",
              "type": "uint256"
            },
            {
              "internalType": "uint256",
              "name": "amount",
              "type": "uint256"
            },
            {
              "internalType": "uint256",
              "name": "spot",
              "type": "uint256"
            },
            {
              "internalType": "uint256",
              "name": "strike",
              "type": "uint256"
            },
            {
              "internalType": "uint256",
              "name": "volatility",
              "type": "uint256"
            },
            {
              "internalType": "uint256",
              "name": "premium",
              "type": "uint256"
            },
            {
              "internalType": "uint256",
              "name": "cost",
              "type": "uint256"
            }
          ],
          "internalType": "struct OptionLibrary.Option",
          "name": "",
          "type": "tuple"
        }
      ],
      "stateMutability": "view",
      "type": "function",
      "constant": true
    },
    {
      "inputs": [
        {
          "internalType": "uint256",
          "name": "_id",
          "type": "uint256"
        }
      ],
      "name": "getOption",
      "outputs": [
        {
          "components": [
            {
              "internalType": "enum OptionLibrary.PayoffType",
              "name": "poType",
              "type": "uint8"
            },
            {
              "internalType": "enum OptionLibrary.OptionSide",
              "name": "side",
              "type": "uint8"
            },
            {
              "internalType": "enum OptionLibrary.OptionStatus",
              "name": "status",
              "type": "uint8"
            },
            {
              "internalType": "address",
              "name": "holder",
              "type": "address"
            },
            {
              "internalType": "uint256",
              "name": "id",
              "type": "uint256"
            },
            {
              "internalType": "uint256",
              "name": "createTime",
              "type": "uint256"
            },
            {
              "internalType": "uint256",
              "name": "effectiveTime",
              "type": "uint256"
            },
            {
              "internalType": "uint256",
              "name": "tenor",
              "type": "uint256"
            },
            {
              "internalType": "uint256",
              "name": "maturity",
              "type": "uint256"
            },
            {
              "internalType": "uint256",
              "name": "exerciseTime",
              "type": "uint256"
            },
            {
              "internalType": "uint256",
              "name": "amount",
              "type": "uint256"
            },
            {
              "internalType": "uint256",
              "name": "spot",
              "type": "uint256"
            },
            {
              "internalType": "uint256",
              "name": "strike",
              "type": "uint256"
            },
            {
              "internalType": "uint256",
              "name": "volatility",
              "type": "uint256"
            },
            {
              "internalType": "uint256",
              "name": "premium",
              "type": "uint256"
            },
            {
              "internalType": "uint256",
              "name": "cost",
              "type": "uint256"
            }
          ],
          "internalType": "struct OptionLibrary.Option",
          "name": "",
          "type": "tuple"
        }
      ],
      "stateMutability": "view",
      "type": "function",
      "constant": true
    },
    {
      "inputs": [],
      "name": "getAggregateNotional",
      "outputs": [
        {
          "internalType": "uint256",
          "name": "_notional",
          "type": "uint256"
        }
      ],
      "stateMutability": "view",
      "type": "function",
      "constant": true
    },
    {
      "inputs": [
        {
          "internalType": "address",
          "name": "_address",
          "type": "address"
        }
      ],
      "name": "getGrossCapital",
      "outputs": [
        {
          "internalType": "uint256",
          "name": "_capital",
          "type": "uint256"
        }
      ],
      "stateMutability": "view",
      "type": "function",
      "constant": true
    },
    {
      "inputs": [],
      "name": "getMaxHedge",
      "outputs": [
        {
          "internalType": "uint256",
          "name": "",
          "type": "uint256"
        }
      ],
      "stateMutability": "view",
      "type": "function",
      "constant": true
    },
    {
      "inputs": [
        {
          "internalType": "uint256",
          "name": "_id",
          "type": "uint256"
        }
      ],
      "name": "getContractPayoff",
      "outputs": [
        {
          "internalType": "uint256",
          "name": "_payoff",
          "type": "uint256"
        },
        {
          "internalType": "uint256",
          "name": "_payback",
          "type": "uint256"
        }
      ],
      "stateMutability": "view",
      "type": "function",
      "constant": true
    },
    {
      "inputs": [
        {
          "internalType": "uint256",
          "name": "_id",
          "type": "uint256"
        },
        {
          "internalType": "uint256",
          "name": "_price",
          "type": "uint256"
        }
      ],
      "name": "calculateContractDelta",
      "outputs": [
        {
          "internalType": "int256",
          "name": "_delta",
          "type": "int256"
        }
      ],
      "stateMutability": "view",
      "type": "function",
      "constant": true
    },
    {
      "inputs": [
        {
          "internalType": "uint256",
          "name": "_price",
          "type": "uint256"
        }
      ],
      "name": "calculateAggregateDelta",
      "outputs": [
        {
          "internalType": "int256",
          "name": "_delta",
          "type": "int256"
        }
      ],
      "stateMutability": "view",
      "type": "function",
      "constant": true
    },
    {
      "inputs": [
        {
          "internalType": "uint256",
          "name": "_id",
          "type": "uint256"
        },
        {
          "internalType": "uint256",
          "name": "_price",
          "type": "uint256"
        }
      ],
      "name": "calculateContractGamma",
      "outputs": [
        {
          "internalType": "int256",
          "name": "_gamma",
          "type": "int256"
        }
      ],
      "stateMutability": "view",
      "type": "function",
      "constant": true
    },
    {
      "inputs": [],
      "name": "calculateAggregateGamma",
      "outputs": [
        {
          "internalType": "int256",
          "name": "_gamma",
          "type": "int256"
        }
      ],
      "stateMutability": "view",
      "type": "function",
      "constant": true
    },
    {
      "inputs": [],
      "name": "calculateSpotGamma",
      "outputs": [
        {
          "internalType": "int256",
          "name": "_gamma",
          "type": "int256"
        }
      ],
      "stateMutability": "view",
      "type": "function",
      "constant": true
    },
    {
      "inputs": [],
      "name": "anyOptionExpiring",
      "outputs": [
        {
          "internalType": "bool",
          "name": "_isExpiring",
          "type": "bool"
        }
      ],
      "stateMutability": "view",
      "type": "function",
      "constant": true
    },
    {
      "inputs": [
        {
          "internalType": "uint256",
          "name": "_id",
          "type": "uint256"
        }
      ],
      "name": "isExpiring",
      "outputs": [
        {
          "internalType": "bool",
          "name": "",
          "type": "bool"
        }
      ],
      "stateMutability": "view",
      "type": "function",
      "constant": true
    },
    {
      "inputs": [],
      "name": "getExpiringOptionId",
      "outputs": [
        {
          "internalType": "uint256",
          "name": "_id",
          "type": "uint256"
        }
      ],
      "stateMutability": "view",
      "type": "function",
      "constant": true
    },
    {
      "inputs": [
        {
          "internalType": "uint256",
          "name": "_id",
          "type": "uint256"
        },
        {
          "internalType": "address",
          "name": "_holder",
          "type": "address"
        }
      ],
      "name": "stampActiveOption",
      "outputs": [],
      "stateMutability": "nonpayable",
      "type": "function"
    },
    {
      "inputs": [
        {
          "internalType": "uint256",
          "name": "_id",
          "type": "uint256"
        }
      ],
      "name": "stampExpiredOption",
      "outputs": [],
      "stateMutability": "nonpayable",
      "type": "function"
    },
    {
      "inputs": [
        {
          "internalType": "address",
          "name": "_address",
          "type": "address"
        },
        {
          "internalType": "uint256",
          "name": "_swapSlippage",
          "type": "uint256"
        }
      ],
      "name": "calcSwapTradesInTok",
      "outputs": [
        {
          "internalType": "int256",
          "name": "_tradeUnderlyingAmount",
          "type": "int256"
        },
        {
          "internalType": "int256",
          "name": "_tradeFundingAmount",
          "type": "int256"
        }
      ],
      "stateMutability": "view",
      "type": "function",
      "constant": true
    },
    {
      "inputs": [
        {
          "internalType": "address",
          "name": "_address",
          "type": "address"
        }
      ],
      "name": "getBalances",
      "outputs": [
        {
          "internalType": "uint256",
          "name": "_underlyingBalance",
          "type": "uint256"
        },
        {
          "internalType": "uint256",
          "name": "_fundingBalance",
          "type": "uint256"
        },
        {
          "internalType": "uint256",
          "name": "_collateralBalance",
          "type": "uint256"
        },
        {
          "internalType": "uint256",
          "name": "_debtBalance",
          "type": "uint256"
        }
      ],
      "stateMutability": "view",
      "type": "function",
      "constant": true
    },
    {
      "inputs": [
        {
          "internalType": "address",
          "name": "_address",
          "type": "address"
        },
        {
          "internalType": "uint256",
          "name": "_lendingPoolRateMode",
          "type": "uint256"
        }
      ],
      "name": "calcLoanRepaymentInTok",
      "outputs": [
        {
          "internalType": "uint256",
          "name": "_repayAmount",
          "type": "uint256"
        },
        {
          "internalType": "uint256",
          "name": "_repaySwapValue",
          "type": "uint256"
        }
      ],
      "stateMutability": "view",
      "type": "function",
      "constant": true
    },
    {
      "inputs": [
        {
          "internalType": "address",
          "name": "_address",
          "type": "address"
        },
        {
          "internalType": "uint256",
          "name": "_lendingPoolRateMode",
          "type": "uint256"
        }
      ],
      "name": "calcLoanTrades",
      "outputs": [
        {
          "internalType": "int256",
          "name": "_loanTradeAmount",
          "type": "int256"
        },
        {
          "internalType": "int256",
          "name": "_collateralChange",
          "type": "int256"
        },
        {
          "internalType": "address",
          "name": "_loanAddress",
          "type": "address"
        },
        {
          "internalType": "address",
          "name": "_collateralAddress",
          "type": "address"
        }
      ],
      "stateMutability": "view",
      "type": "function",
      "constant": true
    },
    {
      "inputs": [
        {
          "internalType": "uint256",
          "name": "_tenor",
          "type": "uint256"
        }
      ],
      "name": "queryVol",
      "outputs": [
        {
          "internalType": "uint256",
          "name": "",
          "type": "uint256"
        }
      ],
      "stateMutability": "view",
      "type": "function",
      "constant": true
    },
    {
      "inputs": [],
      "name": "queryPrice",
      "outputs": [
        {
          "internalType": "uint256",
          "name": "",
          "type": "uint256"
        },
        {
          "internalType": "uint256",
          "name": "",
          "type": "uint256"
        }
      ],
      "stateMutability": "view",
      "type": "function",
      "constant": true
    },
    {
      "inputs": [],
      "name": "tokenHash",
      "outputs": [
        {
          "internalType": "bytes32",
          "name": "",
          "type": "bytes32"
        }
      ],
      "stateMutability": "view",
      "type": "function",
      "constant": true
    }
  ],
  "bytecode": "0x608060405260006002553480156200001657600080fd5b506040516200589c3803806200589c83398181016040528101906200003c9190620003b5565b620000516000801b33620001d260201b60201c565b620000837f28d62fc77014de57a1bbaa8212ff0979fa61ab00d377b4b8d9762048fb41996133620001d260201b60201c565b83600760006101000a81548173ffffffffffffffffffffffffffffffffffffffff021916908373ffffffffffffffffffffffffffffffffffffffff16021790555083600660006101000a81548173ffffffffffffffffffffffffffffffffffffffff021916908373ffffffffffffffffffffffffffffffffffffffff16021790555081600a60006101000a81548173ffffffffffffffffffffffffffffffffffffffff021916908373ffffffffffffffffffffffffffffffffffffffff16021790555082600960006101000a81548173ffffffffffffffffffffffffffffffffffffffff021916908373ffffffffffffffffffffffffffffffffffffffff16021790555080600860006101000a81548173ffffffffffffffffffffffffffffffffffffffff021916908373ffffffffffffffffffffffffffffffffffffffff1602179055505050505062000427565b620001e48282620001e860201b60201c565b5050565b620001fa8282620002d960201b60201c565b620002d557600160008084815260200190815260200160002060000160008373ffffffffffffffffffffffffffffffffffffffff1673ffffffffffffffffffffffffffffffffffffffff16815260200190815260200160002060006101000a81548160ff0219169083151502179055506200027a6200034360201b60201c565b73ffffffffffffffffffffffffffffffffffffffff168173ffffffffffffffffffffffffffffffffffffffff16837f2f8788117e7eff1d82e926ec794901d17c78024a50270940304540a733656f0d60405160405180910390a45b5050565b600080600084815260200190815260200160002060000160008373ffffffffffffffffffffffffffffffffffffffff1673ffffffffffffffffffffffffffffffffffffffff16815260200190815260200160002060009054906101000a900460ff16905092915050565b600033905090565b600080fd5b600073ffffffffffffffffffffffffffffffffffffffff82169050919050565b60006200037d8262000350565b9050919050565b6200038f8162000370565b81146200039b57600080fd5b50565b600081519050620003af8162000384565b92915050565b60008060008060808587031215620003d257620003d16200034b565b5b6000620003e2878288016200039e565b9450506020620003f5878288016200039e565b935050604062000408878288016200039e565b92505060606200041b878288016200039e565b91505092959194509250565b61546580620004376000396000f3fe608060405234801561001057600080fd5b50600436106102485760003560e01c806385ae10e61161013b578063b4f8fe49116100b8578063cca494731161007c578063cca494731461079a578063cfc2dc20146107b8578063d547741f146107e8578063ec53982814610804578063f8a351811461083557610248565b8063b4f8fe49146106b8578063b5310ff9146106e9578063c7da750514610719578063c84aae1714610749578063cb4c86b71461077c57610248565b806391d14854116100ff57806391d14854146105fd5780639bc67cd21461062d578063a217fddf1461064b578063a42b662614610669578063b0667cf81461069957610248565b806385ae10e61461053057806385dcee93146105615780638a0687d21461057f5780638b83b6b6146105af57806390618ed9146105df57610248565b80633b734501116101c957806365bf99761161018d57806365bf9976146104855780636f307dc3146104b85780636fe44031146104d657806371eaf9c6146104f45780637652e7c41461051257610248565b80633b734501146103cd578063448ba42f146103eb57806347f1e3d9146104095780634b3ba34014610439578063637baf601461046957610248565b8063248a9ca311610210578063248a9ca31461032b57806324b4110e1461035b578063251e1e8a146103775780632f2ff15d1461039557806336568abe146103b157610248565b806301ffc9a71461024d5780630eb5cbfe1461027d57806314891a351461029b5780631a7985ba146102cb5780631ce5e9a6146102fb575b600080fd5b61026760048036038101906102629190613e3b565b610853565b6040516102749190613e83565b60405180910390f35b6102856108cd565b6040516102929190613eb7565b60405180910390f35b6102b560048036038101906102b09190613efe565b610930565b6040516102c29190613f44565b60405180910390f35b6102e560048036038101906102e09190613efe565b610988565b6040516102f29190613fa0565b60405180910390f35b61031560048036038101906103109190613efe565b6109c8565b604051610322919061422a565b60405180910390f35b6103456004803603810190610340919061427c565b610b75565b60405161035291906142b8565b60405180910390f35b610375600480360381019061037091906142ff565b610b94565b005b61037f610cdd565b60405161038c9190613fa0565b60405180910390f35b6103af60048036038101906103aa919061433f565b610d03565b005b6103cb60048036038101906103c6919061433f565b610d2c565b005b6103d5610daf565b6040516103e291906142b8565b60405180910390f35b6103f3610dd3565b6040516104009190613eb7565b60405180910390f35b610423600480360381019061041e919061437f565b610f59565b6040516104309190613f44565b60405180910390f35b610453600480360381019061044e919061437f565b6112ad565b6040516104609190613f44565b60405180910390f35b610483600480360381019061047e9190613efe565b611565565b005b61049f600480360381019061049a91906143bf565b611692565b6040516104af94939291906143ff565b60405180910390f35b6104c0611965565b6040516104cd9190613fa0565b60405180910390f35b6104de61198b565b6040516104eb9190613f44565b60405180910390f35b6104fc611a7b565b6040516105099190613fa0565b60405180910390f35b61051a611aa1565b6040516105279190613eb7565b60405180910390f35b61054a60048036038101906105459190613efe565b611b09565b604051610558929190614444565b60405180910390f35b610569611d6e565b60405161057691906142b8565b60405180910390f35b610599600480360381019061059491906142ff565b611e31565b6040516105a6919061422a565b60405180910390f35b6105c960048036038101906105c4919061446d565b61202f565b6040516105d69190613eb7565b60405180910390f35b6105e76122b1565b6040516105f49190613e83565b60405180910390f35b6106176004803603810190610612919061433f565b612307565b6040516106249190613e83565b60405180910390f35b610635612371565b6040516106429190613f44565b60405180910390f35b61065361256f565b60405161066091906142b8565b60405180910390f35b610683600480360381019061067e919061446d565b612576565b6040516106909190613eb7565b60405180910390f35b6106a16125c6565b6040516106af929190614444565b60405180910390f35b6106d260048036038101906106cd91906143bf565b612661565b6040516106e0929190614444565b60405180910390f35b61070360048036038101906106fe91906144e4565b612adc565b6040516107109190613eb7565b60405180910390f35b610733600480360381019061072e9190613efe565b612d63565b6040516107409190613e83565b60405180910390f35b610763600480360381019061075e919061446d565b612dd9565b60405161077394939291906145c3565b60405180910390f35b610784612fd4565b6040516107919190613fa0565b60405180910390f35b6107a2612ffa565b6040516107af91906142b8565b60405180910390f35b6107d260048036038101906107cd9190613efe565b613092565b6040516107df9190613eb7565b60405180910390f35b61080260048036038101906107fd919061433f565b613137565b005b61081e600480360381019061081991906143bf565b613160565b60405161082c929190614608565b60405180910390f35b61083d61347f565b60405161084a9190613eb7565b60405180910390f35b60007f7965db0b000000000000000000000000000000000000000000000000000000007bffffffffffffffffffffffffffffffffffffffffffffffffffffffff1916827bffffffffffffffffffffffffffffffffffffffffffffffffffffffff191614806108c657506108c582613485565b5b9050919050565b6000805b6108db60046134ef565b81101561092c57600160006108fa83600461350490919063ffffffff16565b815260200190815260200160002060070154826109179190614660565b91508080610924906146b6565b9150506108d1565b5090565b6000805b61093e60046134ef565b8110156109825761096261095c82600461350490919063ffffffff16565b84610f59565b8261096d91906146ff565b9150808061097a906146b6565b915050610934565b50919050565b60006001600083815260200190815260200160002060000160039054906101000a900473ffffffffffffffffffffffffffffffffffffffff169050919050565b6109d0613d06565b60016000838152602001908152602001600020604051806102000160405290816000820160009054906101000a900460ff166001811115610a1457610a13613fbb565b5b6001811115610a2657610a25613fbb565b5b81526020016000820160019054906101000a900460ff166001811115610a4f57610a4e613fbb565b5b6001811115610a6157610a60613fbb565b5b81526020016000820160029054906101000a900460ff166003811115610a8a57610a89613fbb565b5b6003811115610a9c57610a9b613fbb565b5b81526020016000820160039054906101000a900473ffffffffffffffffffffffffffffffffffffffff1673ffffffffffffffffffffffffffffffffffffffff1673ffffffffffffffffffffffffffffffffffffffff168152602001600182015481526020016002820154815260200160038201548152602001600482015481526020016005820154815260200160068201548152602001600782015481526020016008820154815260200160098201548152602001600a8201548152602001600b8201548152602001600c820154815250509050919050565b6000806000838152602001908152602001600020600101549050919050565b7f28d62fc77014de57a1bbaa8212ff0979fa61ab00d377b4b8d9762048fb419961610bc681610bc161351e565b613526565b42600160008581526020019081526020016000206003018190555060016000848152602001908152602001600020600401546001600085815260200190815260200160002060030154610c199190614660565b6001600085815260200190815260200160002060050181905550600180600085815260200190815260200160002060000160026101000a81548160ff02191690836003811115610c6c57610c6b613fbb565b5b0217905550610cc283600360008573ffffffffffffffffffffffffffffffffffffffff1673ffffffffffffffffffffffffffffffffffffffff1681526020019081526020016000206135c390919063ffffffff16565b50610cd78360046135c390919063ffffffff16565b50505050565b600860009054906101000a900473ffffffffffffffffffffffffffffffffffffffff1681565b610d0c82610b75565b610d1d81610d1861351e565b613526565b610d2783836135dd565b505050565b610d3461351e565b73ffffffffffffffffffffffffffffffffffffffff168173ffffffffffffffffffffffffffffffffffffffff1614610da1576040517f08c379a0000000000000000000000000000000000000000000000000000000008152600401610d9890614816565b60405180910390fd5b610dab82826136bd565b5050565b7f28d62fc77014de57a1bbaa8212ff0979fa61ab00d377b4b8d9762048fb41996181565b600080600660009054906101000a900473ffffffffffffffffffffffffffffffffffffffff1673ffffffffffffffffffffffffffffffffffffffff1663b0667cf86040518163ffffffff1660e01b81526004016040805180830381865afa158015610e42573d6000803e3d6000fd5b505050506040513d601f19601f82011682018060405250810190610e66919061484b565b5090506000610e82620186a083610e7d91906148ba565b610930565b90506000610e9d620186a084610e9891906148eb565b610930565b9050610f51610ede6000841215610ebd5783610eb890614945565b610ebf565b835b6000841215610ed75783610ed290614945565b610ed9565b835b61379e565b8473__OptionLibrary_________________________63fd9b87636040518163ffffffff1660e01b8152600401602060405180830381865af4158015610f28573d6000803e3d6000fd5b505050506040513d601f19601f82011682018060405250810190610f4c919061498e565b6137b8565b935050505090565b600060016003811115610f6f57610f6e613fbb565b5b6001600085815260200190815260200160002060000160029054906101000a900460ff166003811115610fa557610fa4613fbb565b5b148015610fc75750426001600085815260200190815260200160002060050154115b156112a7576000600660009054906101000a900473ffffffffffffffffffffffffffffffffffffffff1673ffffffffffffffffffffffffffffffffffffffff1663040b030f61102c6001600088815260200190815260200160002060050154426138b4565b600160008881526020019081526020016000206005015461104d91906149bb565b6040518263ffffffff1660e01b81526004016110699190613eb7565b602060405180830381865afa158015611086573d6000803e3d6000fd5b505050506040513d601f19601f820116820180604052508101906110aa919061498e565b90506111ca73__OptionLibrary_________________________6323a00f65856001600089815260200190815260200160002060090154856040518463ffffffff1660e01b8152600401611100939291906149fe565b602060405180830381865af415801561111d573d6000803e3d6000fd5b505050506040513d601f19601f82011682018060405250810190611141919061498e565b600160008781526020019081526020016000206007015473__OptionLibrary_________________________63fd9b87636040518163ffffffff1660e01b8152600401602060405180830381865af41580156111a1573d6000803e3d6000fd5b505050506040513d601f19601f820116820180604052508101906111c5919061498e565b6137b8565b91506001808111156111df576111de613fbb565b5b6001600086815260200190815260200160002060000160009054906101000a900460ff16600181111561121557611214613fbb565b5b14156112495781600160008681526020019081526020016000206007015461123c90614945565b61124691906146ff565b91505b60018081111561125c5761125b613fbb565b5b6001600086815260200190815260200160002060000160019054906101000a900460ff16600181111561129257611291613fbb565b5b14156112a557816112a290614945565b91505b505b92915050565b6000600160038111156112c3576112c2613fbb565b5b6001600085815260200190815260200160002060000160029054906101000a900460ff1660038111156112f9576112f8613fbb565b5b14801561131b5750426001600085815260200190815260200160002060050154115b1561155f576000600660009054906101000a900473ffffffffffffffffffffffffffffffffffffffff1673ffffffffffffffffffffffffffffffffffffffff1663040b030f42600160008881526020019081526020016000206005015461138291906149bb565b6040518263ffffffff1660e01b815260040161139e9190613eb7565b602060405180830381865afa1580156113bb573d6000803e3d6000fd5b505050506040513d601f19601f820116820180604052508101906113df919061498e565b90506114ff73__OptionLibrary_________________________639932b2be856001600089815260200190815260200160002060090154856040518463ffffffff1660e01b8152600401611435939291906149fe565b602060405180830381865af4158015611452573d6000803e3d6000fd5b505050506040513d601f19601f82011682018060405250810190611476919061498e565b600160008781526020019081526020016000206007015473__OptionLibrary_________________________63fd9b87636040518163ffffffff1660e01b8152600401602060405180830381865af41580156114d6573d6000803e3d6000fd5b505050506040513d601f19601f820116820180604052508101906114fa919061498e565b6137b8565b915060018081111561151457611513613fbb565b5b6001600086815260200190815260200160002060000160019054906101000a900460ff16600181111561154a57611549613fbb565b5b141561155d578161155a90614945565b91505b505b92915050565b7f28d62fc77014de57a1bbaa8212ff0979fa61ab00d377b4b8d9762048fb4199616115978161159261351e565b613526565b42600160008481526020019081526020016000206006018190555060036001600084815260200190815260200160002060000160026101000a81548160ff021916908360038111156115ec576115eb613fbb565b5b021790555061167882600360006001600087815260200190815260200160002060000160039054906101000a900473ffffffffffffffffffffffffffffffffffffffff1673ffffffffffffffffffffffffffffffffffffffff1673ffffffffffffffffffffffffffffffffffffffff1681526020019081526020016000206138cd90919063ffffffff16565b5061168d8260046138cd90919063ffffffff16565b505050565b6000806000806000600660009054906101000a900473ffffffffffffffffffffffffffffffffffffffff1673ffffffffffffffffffffffffffffffffffffffff1663b0667cf86040518163ffffffff1660e01b81526004016040805180830381865afa158015611706573d6000803e3d6000fd5b505050506040513d601f19601f8201168201806040525081019061172a919061484b565b509050600061173882610930565b90506000600860009054906101000a900473ffffffffffffffffffffffffffffffffffffffff1673ffffffffffffffffffffffffffffffffffffffff166321f8a7216040518163ffffffff1660e01b815260040161179590614a5b565b602060405180830381865afa1580156117b2573d6000803e3d6000fd5b505050506040513d601f19601f820116820180604052508101906117d69190614a89565b9050600073__MarketLibrary_________________________63b076288a8b8486600960009054906101000a900473ffffffffffffffffffffffffffffffffffffffff1660028f146040518663ffffffff1660e01b815260040161183e959493929190614ae3565b606060405180830381865af415801561185b573d6000803e3d6000fd5b505050506040513d601f19601f8201168201806040525081019061187f9190614b62565b809850819350829a5050505073__MarketLibrary_________________________6312638d3a8b848488600a60009054906101000a900473ffffffffffffffffffffffffffffffffffffffff16600960009054906101000a900473ffffffffffffffffffffffffffffffffffffffff166040518763ffffffff1660e01b815260040161191096959493929190614bb5565b6040805180830381865af415801561192c573d6000803e3d6000fd5b505050506040513d601f19601f820116820180604052508101906119509190614c16565b80965081985050505050505092959194509250565b600960009054906101000a900473ffffffffffffffffffffffffffffffffffffffff1681565b600080600660009054906101000a900473ffffffffffffffffffffffffffffffffffffffff1673ffffffffffffffffffffffffffffffffffffffff1663b0667cf86040518163ffffffff1660e01b81526004016040805180830381865afa1580156119fa573d6000803e3d6000fd5b505050506040513d601f19601f82011682018060405250810190611a1e919061484b565b5090506000915060005b611a3260046134ef565b811015611a7657611a56611a5082600461350490919063ffffffff16565b836112ad565b83611a6191906146ff565b92508080611a6e906146b6565b915050611a28565b505090565b600760009054906101000a900473ffffffffffffffffffffffffffffffffffffffff1681565b6000805b611aaf60046134ef565b811015611b0557611ad2611acd82600461350490919063ffffffff16565b612d63565b15611af257611aeb81600461350490919063ffffffff16565b9150611b05565b8080611afd906146b6565b915050611aa5565b5090565b6000806000600660009054906101000a900473ffffffffffffffffffffffffffffffffffffffff1673ffffffffffffffffffffffffffffffffffffffff1663b0667cf86040518163ffffffff1660e01b81526004016040805180830381865afa158015611b7a573d6000803e3d6000fd5b505050506040513d601f19601f82011682018060405250810190611b9e919061484b565b5090506001600085815260200190815260200160002073__OptionLibrary_________________________63a69d3ae09091836040518363ffffffff1660e01b8152600401611bee929190614c5d565b602060405180830381865af4158015611c0b573d6000803e3d6000fd5b505050506040513d601f19601f82011682018060405250810190611c2f919061498e565b9250829150600180811115611c4757611c46613fbb565b5b6001600086815260200190815260200160002060000160019054906101000a900460ff166001811115611c7d57611c7c613fbb565b5b1415611d685760006001600086815260200190815260200160002073__OptionLibrary_________________________630862958b9091846040518363ffffffff1660e01b8152600401611cd2929190614c5d565b602060405180830381865af4158015611cef573d6000803e3d6000fd5b505050506040513d601f19601f82011682018060405250810190611d13919061498e565b905083811015611d58576040517f08c379a0000000000000000000000000000000000000000000000000000000008152600401611d4f90614cd2565b60405180910390fd5b8381611d6491906149bb565b9250505b50915091565b6000600660009054906101000a900473ffffffffffffffffffffffffffffffffffffffff1673ffffffffffffffffffffffffffffffffffffffff166398de78976040518163ffffffff1660e01b8152600401600060405180830381865afa158015611ddd573d6000803e3d6000fd5b505050506040513d6000823e3d601f19601f82011682018060405250810190611e069190614e5c565b604051602001611e169190614eec565b60405160208183030381529060405280519060200120905090565b611e39613d06565b60016000611e8e85600360008773ffffffffffffffffffffffffffffffffffffffff1673ffffffffffffffffffffffffffffffffffffffff16815260200190815260200160002061350490919063ffffffff16565b8152602001908152602001600020604051806102000160405290816000820160009054906101000a900460ff166001811115611ecd57611ecc613fbb565b5b6001811115611edf57611ede613fbb565b5b81526020016000820160019054906101000a900460ff166001811115611f0857611f07613fbb565b5b6001811115611f1a57611f19613fbb565b5b81526020016000820160029054906101000a900460ff166003811115611f4357611f42613fbb565b5b6003811115611f5557611f54613fbb565b5b81526020016000820160039054906101000a900473ffffffffffffffffffffffffffffffffffffffff1673ffffffffffffffffffffffffffffffffffffffff1673ffffffffffffffffffffffffffffffffffffffff168152602001600182015481526020016002820154815260200160038201548152602001600482015481526020016005820154815260200160068201548152602001600782015481526020016008820154815260200160098201548152602001600a8201548152602001600b8201548152602001600c82015481525050905092915050565b600080600660009054906101000a900473ffffffffffffffffffffffffffffffffffffffff1673ffffffffffffffffffffffffffffffffffffffff1663b0667cf86040518163ffffffff1660e01b81526004016040805180830381865afa15801561209e573d6000803e3d6000fd5b505050506040513d601f19601f820116820180604052508101906120c2919061484b565b5090506000806000806120d487612dd9565b9350935093509350612153848673__OptionLibrary_________________________63fd9b87636040518163ffffffff1660e01b8152600401602060405180830381865af415801561212a573d6000803e3d6000fd5b505050506040513d601f19601f8201168201806040525081019061214e919061498e565b6137b8565b828461215f9190614660565b6121699190614660565b95506121e2818673__OptionLibrary_________________________63fd9b87636040518163ffffffff1660e01b8152600401602060405180830381865af41580156121b9573d6000803e3d6000fd5b505050506040513d601f19601f820116820180604052508101906121dd919061498e565b6137b8565b8611612223576040517f08c379a000000000000000000000000000000000000000000000000000000000815260040161221a90614f4f565b60405180910390fd5b61229a818673__OptionLibrary_________________________63fd9b87636040518163ffffffff1660e01b8152600401602060405180830381865af4158015612271573d6000803e3d6000fd5b505050506040513d601f19601f82011682018060405250810190612295919061498e565b6137b8565b866122a591906149bb565b95505050505050919050565b6000805b6122bf60046134ef565b811015612303576122e26122dd82600461350490919063ffffffff16565b612d63565b156122f05760019150612303565b80806122fb906146b6565b9150506122b5565b5090565b600080600084815260200190815260200160002060000160008373ffffffffffffffffffffffffffffffffffffffff1673ffffffffffffffffffffffffffffffffffffffff16815260200190815260200160002060009054906101000a900460ff16905092915050565b600080600660009054906101000a900473ffffffffffffffffffffffffffffffffffffffff1673ffffffffffffffffffffffffffffffffffffffff1663040b030f620151806040518263ffffffff1660e01b81526004016123d29190614fb4565b602060405180830381865afa1580156123ef573d6000803e3d6000fd5b505050506040513d601f19601f82011682018060405250810190612413919061498e565b905073__OptionLibrary_________________________639932b2be73__OptionLibrary_________________________63fd9b87636040518163ffffffff1660e01b8152600401602060405180830381865af4158015612478573d6000803e3d6000fd5b505050506040513d601f19601f8201168201806040525081019061249c919061498e565b73__OptionLibrary_________________________63fd9b87636040518163ffffffff1660e01b8152600401602060405180830381865af41580156124e5573d6000803e3d6000fd5b505050506040513d601f19601f82011682018060405250810190612509919061498e565b846040518463ffffffff1660e01b8152600401612528939291906149fe565b602060405180830381865af4158015612545573d6000803e3d6000fd5b505050506040513d601f19601f82011682018060405250810190612569919061498e565b91505090565b6000801b81565b60006125bf600360008473ffffffffffffffffffffffffffffffffffffffff1673ffffffffffffffffffffffffffffffffffffffff1681526020019081526020016000206134ef565b9050919050565b600080600660009054906101000a900473ffffffffffffffffffffffffffffffffffffffff1673ffffffffffffffffffffffffffffffffffffffff1663b0667cf86040518163ffffffff1660e01b81526004016040805180830381865afa158015612635573d6000803e3d6000fd5b505050506040513d601f19601f82011682018060405250810190612659919061484b565b915091509091565b6000806000600660009054906101000a900473ffffffffffffffffffffffffffffffffffffffff1673ffffffffffffffffffffffffffffffffffffffff1663b0667cf86040518163ffffffff1660e01b81526004016040805180830381865afa1580156126d2573d6000803e3d6000fd5b505050506040513d601f19601f820116820180604052508101906126f6919061484b565b509050600061270482610930565b9050600073__MarketLibrary_________________________63b076288a88600860009054906101000a900473ffffffffffffffffffffffffffffffffffffffff1673ffffffffffffffffffffffffffffffffffffffff166321f8a7216040518163ffffffff1660e01b815260040161277c90614a5b565b602060405180830381865afa158015612799573d6000803e3d6000fd5b505050506040513d601f19601f820116820180604052508101906127bd9190614a89565b85600960009054906101000a900473ffffffffffffffffffffffffffffffffffffffff1660028c146040518663ffffffff1660e01b8152600401612805959493929190614ae3565b606060405180830381865af4158015612822573d6000803e3d6000fd5b505050506040513d601f19601f820116820180604052508101906128469190614b62565b5050905060009450600093506000811215612ad2576129098161286890614945565b600960009054906101000a900473ffffffffffffffffffffffffffffffffffffffff1673ffffffffffffffffffffffffffffffffffffffff166370a08231306040518263ffffffff1660e01b81526004016128c39190613fa0565b602060405180830381865afa1580156128e0573d6000803e3d6000fd5b505050506040513d601f19601f82011682018060405250810190612904919061498e565b6138b4565b8161291390614945565b61291d91906149bb565b945073__MarketLibrary_________________________638170ce806129b0878673__OptionLibrary_________________________63fd9b87636040518163ffffffff1660e01b8152600401602060405180830381865af4158015612987573d6000803e3d6000fd5b505050506040513d601f19601f820116820180604052508101906129ab919061498e565b6137b8565b600a60009054906101000a900473ffffffffffffffffffffffffffffffffffffffff166040518363ffffffff1660e01b81526004016129f0929190614fcf565b602060405180830381865af4158015612a0d573d6000803e3d6000fd5b505050506040513d601f19601f82011682018060405250810190612a31919061498e565b935073__MarketLibrary_________________________638170ce8086600960009054906101000a900473ffffffffffffffffffffffffffffffffffffffff166040518363ffffffff1660e01b8152600401612a8e929190614fcf565b602060405180830381865af4158015612aab573d6000803e3d6000fd5b505050506040513d601f19601f82011682018060405250810190612acf919061498e565b94505b5050509250929050565b60007f28d62fc77014de57a1bbaa8212ff0979fa61ab00d377b4b8d9762048fb419961612b1081612b0b61351e565b613526565b60026000815480929190612b23906146b6565b919050555060025491506040518061020001604052808a6001811115612b4c57612b4b613fbb565b5b8152602001896001811115612b6457612b63613fbb565b5b815260200160006003811115612b7d57612b7c613fbb565b5b81526020018473ffffffffffffffffffffffffffffffffffffffff168152602001838152602001428152602001600081526020018d815260200160008152602001600081526020018b81526020018681526020018c8152602001858152602001888152602001878152506001600084815260200190815260200160002060008201518160000160006101000a81548160ff02191690836001811115612c2557612c24613fbb565b5b021790555060208201518160000160016101000a81548160ff02191690836001811115612c5557612c54613fbb565b5b021790555060408201518160000160026101000a81548160ff02191690836003811115612c8557612c84613fbb565b5b021790555060608201518160000160036101000a81548173ffffffffffffffffffffffffffffffffffffffff021916908373ffffffffffffffffffffffffffffffffffffffff1602179055506080820151816001015560a0820151816002015560c0820151816003015560e08201518160040155610100820151816005015561012082015181600601556101408201518160070155610160820151816008015561018082015181600901556101a082015181600a01556101c082015181600b01556101e082015181600c0155905050509a9950505050505050505050565b600060016003811115612d7957612d78613fbb565b5b6001600084815260200190815260200160002060000160029054906101000a900460ff166003811115612daf57612dae613fbb565b5b148015612dd2575042600160008481526020019081526020016000206005015411155b9050919050565b6000806000806000600860009054906101000a900473ffffffffffffffffffffffffffffffffffffffff1673ffffffffffffffffffffffffffffffffffffffff166321f8a7216040518163ffffffff1660e01b8152600401612e3a90614a5b565b602060405180830381865afa158015612e57573d6000803e3d6000fd5b505050506040513d601f19601f82011682018060405250810190612e7b9190614a89565b905073__MarketLibrary_________________________6332c21e138783600960009054906101000a900473ffffffffffffffffffffffffffffffffffffffff166040518463ffffffff1660e01b8152600401612eda93929190614ff8565b606060405180830381865af4158015612ef7573d6000803e3d6000fd5b505050506040513d601f19601f82011682018060405250810190612f1b919061502f565b9050809350819650505073__MarketLibrary_________________________6332c21e138783600a60009054906101000a900473ffffffffffffffffffffffffffffffffffffffff166040518463ffffffff1660e01b8152600401612f8293929190614ff8565b606060405180830381865af4158015612f9f573d6000803e3d6000fd5b505050506040513d601f19601f82011682018060405250810190612fc3919061502f565b508094508195505050509193509193565b600a60009054906101000a900473ffffffffffffffffffffffffffffffffffffffff1681565b6000600660009054906101000a900473ffffffffffffffffffffffffffffffffffffffff1673ffffffffffffffffffffffffffffffffffffffff1663def215446040518163ffffffff1660e01b8152600401602060405180830381865afa158015613069573d6000803e3d6000fd5b505050506040513d601f19601f8201168201806040525081019061308d9190615097565b905090565b6000600660009054906101000a900473ffffffffffffffffffffffffffffffffffffffff1673ffffffffffffffffffffffffffffffffffffffff1663040b030f836040518263ffffffff1660e01b81526004016130ef9190613eb7565b602060405180830381865afa15801561310c573d6000803e3d6000fd5b505050506040513d601f19601f82011682018060405250810190613130919061498e565b9050919050565b61314082610b75565b6131518161314c61351e565b613526565b61315b83836136bd565b505050565b6000806000600660009054906101000a900473ffffffffffffffffffffffffffffffffffffffff1673ffffffffffffffffffffffffffffffffffffffff1663b0667cf86040518163ffffffff1660e01b81526004016040805180830381865afa1580156131d1573d6000803e3d6000fd5b505050506040513d601f19601f820116820180604052508101906131f5919061484b565b509050600061320382610930565b905073__MarketLibrary_________________________63eea2526b600960009054906101000a900473ffffffffffffffffffffffffffffffffffffffff16886040518363ffffffff1660e01b81526004016132609291906150c4565b602060405180830381865af415801561327d573d6000803e3d6000fd5b505050506040513d601f19601f820116820180604052508101906132a1919061498e565b60008212156132b15760006132b3565b815b6132bd91906150ed565b935073__MarketLibrary_________________________63aa5c12c773__OptionLibrary_________________________63ca0cc13d87868a6040518463ffffffff1660e01b815260040161331493929190615181565b602060405180830381865af4158015613331573d6000803e3d6000fd5b505050506040513d601f19601f8201168201806040525081019061335591906151b8565b600a60009054906101000a900473ffffffffffffffffffffffffffffffffffffffff166040518363ffffffff1660e01b81526004016133959291906151e5565b602060405180830381865af41580156133b2573d6000803e3d6000fd5b505050506040513d601f19601f820116820180604052508101906133d691906151b8565b925073__MarketLibrary_________________________63aa5c12c785600960009054906101000a900473ffffffffffffffffffffffffffffffffffffffff166040518363ffffffff1660e01b81526004016134339291906151e5565b602060405180830381865af4158015613450573d6000803e3d6000fd5b505050506040513d601f19601f8201168201806040525081019061347491906151b8565b935050509250929050565b60025481565b60007f01ffc9a7000000000000000000000000000000000000000000000000000000007bffffffffffffffffffffffffffffffffffffffffffffffffffffffff1916827bffffffffffffffffffffffffffffffffffffffffffffffffffffffff1916149050919050565b60006134fd826000016138e7565b9050919050565b600061351383600001836138f8565b60001c905092915050565b600033905090565b6135308282612307565b6135bf576135558173ffffffffffffffffffffffffffffffffffffffff166014613923565b6135638360001c6020613923565b6040516020016135749291906152a6565b6040516020818303038152906040526040517f08c379a00000000000000000000000000000000000000000000000000000000081526004016135b69190615319565b60405180910390fd5b5050565b60006135d5836000018360001b613b5f565b905092915050565b6135e78282612307565b6136b957600160008084815260200190815260200160002060000160008373ffffffffffffffffffffffffffffffffffffffff1673ffffffffffffffffffffffffffffffffffffffff16815260200190815260200160002060006101000a81548160ff02191690831515021790555061365e61351e565b73ffffffffffffffffffffffffffffffffffffffff168173ffffffffffffffffffffffffffffffffffffffff16837f2f8788117e7eff1d82e926ec794901d17c78024a50270940304540a733656f0d60405160405180910390a45b5050565b6136c78282612307565b1561379a57600080600084815260200190815260200160002060000160008373ffffffffffffffffffffffffffffffffffffffff1673ffffffffffffffffffffffffffffffffffffffff16815260200190815260200160002060006101000a81548160ff02191690831515021790555061373f61351e565b73ffffffffffffffffffffffffffffffffffffffff168173ffffffffffffffffffffffffffffffffffffffff16837ff6391f5c32d9c69d2a47ea670b442974b53935d1edc7fd64eb21e047a839171b60405160405180910390a45b5050565b6000818310156137ae57816137b0565b825b905092915050565b6000806000801985870985870292508281108382030391505060008114156137f357600084116137e757600080fd5b838204925050506138ad565b8084116137ff57600080fd5b60008486880990508281118203915080830392506000856001877fffffffffffffffffffffffffffffffffffffffffffffffffffffffffffffffff0301169050808604955080840493506001818260000304019050808302841793506000600287600302189050808702600203810290508087026002038102905080870260020381029050808702600203810290508087026002038102905080870260020381029050808502955050505050505b9392505050565b60008183106138c357816138c5565b825b905092915050565b60006138df836000018360001b613bcf565b905092915050565b600081600001805490509050919050565b60008260000182815481106139105761390f61533b565b5b9060005260206000200154905092915050565b60606000600283600261393691906148eb565b6139409190614660565b67ffffffffffffffff81111561395957613958614d0d565b5b6040519080825280601f01601f19166020018201604052801561398b5781602001600182028036833780820191505090505b5090507f3000000000000000000000000000000000000000000000000000000000000000816000815181106139c3576139c261533b565b5b60200101907effffffffffffffffffffffffffffffffffffffffffffffffffffffffffffff1916908160001a9053507f780000000000000000000000000000000000000000000000000000000000000081600181518110613a2757613a2661533b565b5b60200101907effffffffffffffffffffffffffffffffffffffffffffffffffffffffffffff1916908160001a90535060006001846002613a6791906148eb565b613a719190614660565b90505b6001811115613b11577f3031323334353637383961626364656600000000000000000000000000000000600f861660108110613ab357613ab261533b565b5b1a60f81b828281518110613aca57613ac961533b565b5b60200101907effffffffffffffffffffffffffffffffffffffffffffffffffffffffffffff1916908160001a905350600485901c945080613b0a9061536a565b9050613a74565b5060008414613b55576040517f08c379a0000000000000000000000000000000000000000000000000000000008152600401613b4c906153e0565b60405180910390fd5b8091505092915050565b6000613b6b8383613ce3565b613bc4578260000182908060018154018082558091505060019003906000526020600020016000909190919091505582600001805490508360010160008481526020019081526020016000208190555060019050613bc9565b600090505b92915050565b60008083600101600084815260200190815260200160002054905060008114613cd7576000600182613c0191906149bb565b9050600060018660000180549050613c1991906149bb565b9050818114613c88576000866000018281548110613c3a57613c3961533b565b5b9060005260206000200154905080876000018481548110613c5e57613c5d61533b565b5b90600052602060002001819055508387600101600083815260200190815260200160002081905550505b85600001805480613c9c57613c9b615400565b5b600190038181906000526020600020016000905590558560010160008681526020019081526020016000206000905560019350505050613cdd565b60009150505b92915050565b600080836001016000848152602001908152602001600020541415905092915050565b60405180610200016040528060006001811115613d2657613d25613fbb565b5b815260200160006001811115613d3f57613d3e613fbb565b5b815260200160006003811115613d5857613d57613fbb565b5b8152602001600073ffffffffffffffffffffffffffffffffffffffff1681526020016000815260200160008152602001600081526020016000815260200160008152602001600081526020016000815260200160008152602001600081526020016000815260200160008152602001600081525090565b6000604051905090565b600080fd5b600080fd5b60007fffffffff0000000000000000000000000000000000000000000000000000000082169050919050565b613e1881613de3565b8114613e2357600080fd5b50565b600081359050613e3581613e0f565b92915050565b600060208284031215613e5157613e50613dd9565b5b6000613e5f84828501613e26565b91505092915050565b60008115159050919050565b613e7d81613e68565b82525050565b6000602082019050613e986000830184613e74565b92915050565b6000819050919050565b613eb181613e9e565b82525050565b6000602082019050613ecc6000830184613ea8565b92915050565b613edb81613e9e565b8114613ee657600080fd5b50565b600081359050613ef881613ed2565b92915050565b600060208284031215613f1457613f13613dd9565b5b6000613f2284828501613ee9565b91505092915050565b6000819050919050565b613f3e81613f2b565b82525050565b6000602082019050613f596000830184613f35565b92915050565b600073ffffffffffffffffffffffffffffffffffffffff82169050919050565b6000613f8a82613f5f565b9050919050565b613f9a81613f7f565b82525050565b6000602082019050613fb56000830184613f91565b92915050565b7f4e487b7100000000000000000000000000000000000000000000000000000000600052602160045260246000fd5b60028110613ffb57613ffa613fbb565b5b50565b600081905061400c82613fea565b919050565b600061401c82613ffe565b9050919050565b61402c81614011565b82525050565b6002811061404357614042613fbb565b5b50565b600081905061405482614032565b919050565b600061406482614046565b9050919050565b61407481614059565b82525050565b6004811061408b5761408a613fbb565b5b50565b600081905061409c8261407a565b919050565b60006140ac8261408e565b9050919050565b6140bc816140a1565b82525050565b6140cb81613f7f565b82525050565b6140da81613e9e565b82525050565b610200820160008201516140f76000850182614023565b50602082015161410a602085018261406b565b50604082015161411d60408501826140b3565b50606082015161413060608501826140c2565b50608082015161414360808501826140d1565b5060a082015161415660a08501826140d1565b5060c082015161416960c08501826140d1565b5060e082015161417c60e08501826140d1565b506101008201516141916101008501826140d1565b506101208201516141a66101208501826140d1565b506101408201516141bb6101408501826140d1565b506101608201516141d06101608501826140d1565b506101808201516141e56101808501826140d1565b506101a08201516141fa6101a08501826140d1565b506101c082015161420f6101c08501826140d1565b506101e08201516142246101e08501826140d1565b50505050565b60006102008201905061424060008301846140e0565b92915050565b6000819050919050565b61425981614246565b811461426457600080fd5b50565b60008135905061427681614250565b92915050565b60006020828403121561429257614291613dd9565b5b60006142a084828501614267565b91505092915050565b6142b281614246565b82525050565b60006020820190506142cd60008301846142a9565b92915050565b6142dc81613f7f565b81146142e757600080fd5b50565b6000813590506142f9816142d3565b92915050565b6000806040838503121561431657614315613dd9565b5b600061432485828601613ee9565b9250506020614335858286016142ea565b9150509250929050565b6000806040838503121561435657614355613dd9565b5b600061436485828601614267565b9250506020614375858286016142ea565b9150509250929050565b6000806040838503121561439657614395613dd9565b5b60006143a485828601613ee9565b92505060206143b585828601613ee9565b9150509250929050565b600080604083850312156143d6576143d5613dd9565b5b60006143e4858286016142ea565b92505060206143f585828601613ee9565b9150509250929050565b60006080820190506144146000830187613f35565b6144216020830186613f35565b61442e6040830185613f91565b61443b6060830184613f91565b95945050505050565b60006040820190506144596000830185613ea8565b6144666020830184613ea8565b9392505050565b60006020828403121561448357614482613dd9565b5b6000614491848285016142ea565b91505092915050565b600281106144a757600080fd5b50565b6000813590506144b98161449a565b92915050565b600281106144cc57600080fd5b50565b6000813590506144de816144bf565b92915050565b6000806000806000806000806000806101408b8d03121561450857614507613dd9565b5b60006145168d828e01613ee9565b9a505060206145278d828e01613ee9565b99505060406145388d828e01613ee9565b98505060606145498d828e016144aa565b975050608061455a8d828e016144cf565b96505060a061456b8d828e01613ee9565b95505060c061457c8d828e01613ee9565b94505060e061458d8d828e01613ee9565b93505061010061459f8d828e01613ee9565b9250506101206145b18d828e016142ea565b9150509295989b9194979a5092959850565b60006080820190506145d86000830187613ea8565b6145e56020830186613ea8565b6145f26040830185613ea8565b6145ff6060830184613ea8565b95945050505050565b600060408201905061461d6000830185613f35565b61462a6020830184613f35565b9392505050565b7f4e487b7100000000000000000000000000000000000000000000000000000000600052601160045260246000fd5b600061466b82613e9e565b915061467683613e9e565b9250827fffffffffffffffffffffffffffffffffffffffffffffffffffffffffffffffff038211156146ab576146aa614631565b5b828201905092915050565b60006146c182613e9e565b91507fffffffffffffffffffffffffffffffffffffffffffffffffffffffffffffffff8214156146f4576146f3614631565b5b600182019050919050565b600061470a82613f2b565b915061471583613f2b565b9250817f7fffffffffffffffffffffffffffffffffffffffffffffffffffffffffffffff038313600083121516156147505761474f614631565b5b817f800000000000000000000000000000000000000000000000000000000000000003831260008312161561478857614787614631565b5b828201905092915050565b600082825260208201905092915050565b7f416363657373436f6e74726f6c3a2063616e206f6e6c792072656e6f756e636560008201527f20726f6c657320666f722073656c660000000000000000000000000000000000602082015250565b6000614800602f83614793565b915061480b826147a4565b604082019050919050565b6000602082019050818103600083015261482f816147f3565b9050919050565b60008151905061484581613ed2565b92915050565b6000806040838503121561486257614861613dd9565b5b600061487085828601614836565b925050602061488185828601614836565b9150509250929050565b7f4e487b7100000000000000000000000000000000000000000000000000000000600052601260045260246000fd5b60006148c582613e9e565b91506148d083613e9e565b9250826148e0576148df61488b565b5b828204905092915050565b60006148f682613e9e565b915061490183613e9e565b9250817fffffffffffffffffffffffffffffffffffffffffffffffffffffffffffffffff048311821515161561493a57614939614631565b5b828202905092915050565b600061495082613f2b565b91507f800000000000000000000000000000000000000000000000000000000000000082141561498357614982614631565b5b816000039050919050565b6000602082840312156149a4576149a3613dd9565b5b60006149b284828501614836565b91505092915050565b60006149c682613e9e565b91506149d183613e9e565b9250828210156149e4576149e3614631565b5b828203905092915050565b6149f881613e9e565b82525050565b6000606082019050614a1360008301866149ef565b614a2060208301856149ef565b614a2d60408301846149ef565b949350505050565b7f3078310000000000000000000000000000000000000000000000000000000000815250565b6000602082019050614a6f60008301614a35565b919050565b600081519050614a83816142d3565b92915050565b600060208284031215614a9f57614a9e613dd9565b5b6000614aad84828501614a74565b91505092915050565b614abf81613f7f565b82525050565b614ace81613f2b565b82525050565b614add81613e68565b82525050565b600060a082019050614af86000830188614ab6565b614b056020830187614ab6565b614b126040830186614ac5565b614b1f6060830185614ab6565b614b2c6080830184614ad4565b9695505050505050565b614b3f81613f2b565b8114614b4a57600080fd5b50565b600081519050614b5c81614b36565b92915050565b600080600060608486031215614b7b57614b7a613dd9565b5b6000614b8986828701614b4d565b9350506020614b9a86828701614836565b9250506040614bab86828701614a74565b9150509250925092565b600060c082019050614bca6000830189614ab6565b614bd76020830188614ab6565b614be460408301876149ef565b614bf160608301866149ef565b614bfe6080830185614ab6565b614c0b60a0830184614ab6565b979650505050505050565b60008060408385031215614c2d57614c2c613dd9565b5b6000614c3b85828601614b4d565b9250506020614c4c85828601614a74565b9150509250929050565b8082525050565b6000604082019050614c726000830185614c56565b614c7f60208301846149ef565b9392505050565b7f5061796f666620696e636f72726563742e000000000000000000000000000000600082015250565b6000614cbc601183614793565b9150614cc782614c86565b602082019050919050565b60006020820190508181036000830152614ceb81614caf565b9050919050565b600080fd5b600080fd5b6000601f19601f8301169050919050565b7f4e487b7100000000000000000000000000000000000000000000000000000000600052604160045260246000fd5b614d4582614cfc565b810181811067ffffffffffffffff82111715614d6457614d63614d0d565b5b80604052505050565b6000614d77613dcf565b9050614d838282614d3c565b919050565b600067ffffffffffffffff821115614da357614da2614d0d565b5b614dac82614cfc565b9050602081019050919050565b60005b83811015614dd7578082015181840152602081019050614dbc565b83811115614de6576000848401525b50505050565b6000614dff614dfa84614d88565b614d6d565b905082815260208101848484011115614e1b57614e1a614cf7565b5b614e26848285614db9565b509392505050565b600082601f830112614e4357614e42614cf2565b5b8151614e53848260208601614dec565b91505092915050565b600060208284031215614e7257614e71613dd9565b5b600082015167ffffffffffffffff811115614e9057614e8f613dde565b5b614e9c84828501614e2e565b91505092915050565b600081519050919050565b600081905092915050565b6000614ec682614ea5565b614ed08185614eb0565b9350614ee0818560208601614db9565b80840191505092915050565b6000614ef88284614ebb565b915081905092915050565b7f4e65676174697665206571756974792e00000000000000000000000000000000600082015250565b6000614f39601083614793565b9150614f4482614f03565b602082019050919050565b60006020820190508181036000830152614f6881614f2c565b9050919050565b6000819050919050565b6000819050919050565b6000614f9e614f99614f9484614f6f565b614f79565b613e9e565b9050919050565b614fae81614f83565b82525050565b6000602082019050614fc96000830184614fa5565b92915050565b6000604082019050614fe460008301856149ef565b614ff16020830184614ab6565b9392505050565b600060608201905061500d6000830186614ab6565b61501a6020830185614ab6565b6150276040830184614ab6565b949350505050565b60008060006060848603121561504857615047613dd9565b5b600061505686828701614836565b935050602061506786828701614836565b925050604061507886828701614836565b9150509250925092565b60008151905061509181614250565b92915050565b6000602082840312156150ad576150ac613dd9565b5b60006150bb84828501615082565b91505092915050565b60006040820190506150d96000830185614ab6565b6150e66020830184614ab6565b9392505050565b60006150f882613f2b565b915061510383613f2b565b9250827f80000000000000000000000000000000000000000000000000000000000000000182126000841215161561513e5761513d614631565b5b827f7fffffffffffffffffffffffffffffffffffffffffffffffffffffffffffffff01821360008412161561517657615175614631565b5b828203905092915050565b60006060820190506151966000830186614ac5565b6151a360208301856149ef565b6151b060408301846149ef565b949350505050565b6000602082840312156151ce576151cd613dd9565b5b60006151dc84828501614b4d565b91505092915050565b60006040820190506151fa6000830185614ac5565b6152076020830184614ab6565b9392505050565b7f416363657373436f6e74726f6c3a206163636f756e7420000000000000000000600082015250565b6000615244601783614eb0565b915061524f8261520e565b601782019050919050565b7f206973206d697373696e6720726f6c6520000000000000000000000000000000600082015250565b6000615290601183614eb0565b915061529b8261525a565b601182019050919050565b60006152b182615237565b91506152bd8285614ebb565b91506152c882615283565b91506152d48284614ebb565b91508190509392505050565b60006152eb82614ea5565b6152f58185614793565b9350615305818560208601614db9565b61530e81614cfc565b840191505092915050565b6000602082019050818103600083015261533381846152e0565b905092915050565b7f4e487b7100000000000000000000000000000000000000000000000000000000600052603260045260246000fd5b600061537582613e9e565b9150600082141561538957615388614631565b5b600182039050919050565b7f537472696e67733a20686578206c656e67746820696e73756666696369656e74600082015250565b60006153ca602083614793565b91506153d582615394565b602082019050919050565b600060208201905081810360008301526153f9816153bd565b9050919050565b7f4e487b7100000000000000000000000000000000000000000000000000000000600052603160045260246000fdfea26469706673582212206b43c15c80b0a7c842fa01fc762404f9da57c3d39d16a0803644941785d2ed1464736f6c634300080a0033",
  "immutableReferences": {},
  "source": "/**\n * SPDX-License-Identifier: GPL-3.0-or-later\n * Moret\n * Copyright (C) 2021 Moret\n*/\n\npragma solidity 0.8.10;\nimport \"@openzeppelin/contracts/access/AccessControl.sol\";\nimport \"@openzeppelin/contracts/utils/structs/EnumerableSet.sol\";\nimport \"./MarketLibrary.sol\";\n\ncontract OptionVault is AccessControl{\n  using OptionLibrary for OptionLibrary.Option;\n  using EnumerableSet for EnumerableSet.UintSet;\n  // using EnumerableSet for EnumerableSet.AddressSet;\n\n  bytes32 public constant EXCHANGE_ROLE = keccak256(\"EXCHANGE_ROLE\");\n  mapping(uint256=> OptionLibrary.Option) internal optionsList;\n  uint256 public optionCounter = 0;\n  mapping(address=> EnumerableSet.UintSet) internal activeOptionsPerOwner;\n  EnumerableSet.UintSet internal activeOptions;\n  IVolatilityChain internal volatilityChain;\n\n  address public volChainAddress;\n  address public aaveAddress;\n  address public underlying;\n  address public funding;\n\n  constructor( address _volChainAddress, address _underlying, address _funding, address _aaveAddress){\n    _setupRole(DEFAULT_ADMIN_ROLE, msg.sender);\n    _setupRole(EXCHANGE_ROLE, msg.sender);\n    volChainAddress = _volChainAddress;\n    volatilityChain = IVolatilityChain(_volChainAddress); \n    funding = _funding;\n    underlying = _underlying;\n    aaveAddress = _aaveAddress;}\n  \n  function descriptionHash() external view returns (bytes32)  { return keccak256(abi.encodePacked(volatilityChain.getDecription()));}\n\n  function addOption(uint256 _tenor, uint256 _strike, uint256 _amount, OptionLibrary.PayoffType _poType, OptionLibrary.OptionSide _side, uint256 _premium, uint256 _cost, uint256 _price, uint256 _volatility, address _holder) external onlyRole(EXCHANGE_ROLE) returns(uint256 _id) {\n    optionCounter++;\n    _id = optionCounter;\n    optionsList[_id] = OptionLibrary.Option(_poType, _side, OptionLibrary.OptionStatus.Draft, _holder, _id, block.timestamp,  0, _tenor, 0,  0, _amount, _price, _strike, _volatility, _premium, _cost);}\n\n  function getOptionHolder(uint256 _id) external view returns(address) { return optionsList[_id].holder;}\n  function getHoldersOptionCount(address _address) external view returns(uint256){return activeOptionsPerOwner[_address].length();}\n  function getHoldersOption(uint256 _index, address _address) external view returns(OptionLibrary.Option memory) {return optionsList[activeOptionsPerOwner[_address].at(_index)];}\n  function getOption(uint256 _id) external view returns(OptionLibrary.Option memory) {return optionsList[_id];}\n\n  function getAggregateNotional() external view returns(uint256 _notional) {\n    _notional= 0;\n    for(uint256 i=0;i<activeOptions.length();i++){\n      _notional += optionsList[uint256(activeOptions.at(i))].amount;} }\n\n  function getGrossCapital(address _address) external view returns(uint256 _capital){\n    (uint256 _price, ) = volatilityChain.queryPrice();\n    (uint256 _underlying_balance, uint256 _funding_balance, uint256 _collateral_balance, uint256 _debt_balance) = getBalances(_address);\n    _capital = _funding_balance + _collateral_balance + MulDiv(_underlying_balance, _price, OptionLibrary.Multiplier());\n    require(_capital > MulDiv(_debt_balance, _price, OptionLibrary.Multiplier()), \"Negative equity.\");\n    _capital -= MulDiv(_debt_balance, _price, OptionLibrary.Multiplier());}\n\n  function getMaxHedge() external view returns (uint256){\n    (uint256 _price,) = volatilityChain.queryPrice();\n    int256 _deltaZero = calculateAggregateDelta(_price / 1e5);\n    int256 _deltaMax = calculateAggregateDelta(_price * 1e5);\n    return MulDiv(Math.max(_deltaZero>=0?uint256(_deltaZero):uint256(-_deltaZero), _deltaMax>=0?uint256(_deltaMax):uint256(-_deltaMax) ), _price, OptionLibrary.Multiplier());}\n\n  function getContractPayoff(uint256 _id) external view returns(uint256 _payoff, uint256 _payback){\n    (uint256 _price,) = volatilityChain.queryPrice();\n    _payoff = optionsList[_id].calcPayoff(_price);\n    _payback = _payoff;\n    if(optionsList[_id].side == OptionLibrary.OptionSide.Sell){ \n      uint256 _notional = optionsList[_id].calcNotionalExposure(_price);\n      require(_notional >= _payoff, \"Payoff incorrect.\");\n      _payback = _notional - _payoff;}}\n\n  function calculateContractDelta(uint256 _id, uint256 _price) public view returns(int256 _delta){\n    _delta = 0;\n    if(optionsList[_id].status== OptionLibrary.OptionStatus.Active && (optionsList[_id].maturity > block.timestamp)){\n      uint256 _vol = volatilityChain.getVol(optionsList[_id].maturity - Math.min(optionsList[_id].maturity, block.timestamp));\n      _delta = int256(MulDiv(OptionLibrary.calcDelta(_price, optionsList[_id].strike, _vol), optionsList[_id].amount, OptionLibrary.Multiplier() ));\n      if(optionsList[_id].poType==OptionLibrary.PayoffType.Put) {_delta = -int256(optionsList[_id].amount) + _delta; }\n      if(optionsList[_id].side==OptionLibrary.OptionSide.Sell){ _delta = -_delta;}}}\n    \n  function calculateAggregateDelta(uint256 _price) public view returns(int256 _delta){\n    _delta= 0;\n    for(uint256 i=0;i<activeOptions.length();i++){\n      _delta += calculateContractDelta(uint256(activeOptions.at(i)),_price);}}\n\n  function calculateContractGamma(uint256 _id, uint256 _price) public view returns(int256 _gamma){\n    _gamma = 0;\n    if(optionsList[_id].status== OptionLibrary.OptionStatus.Active  && (optionsList[_id].maturity > block.timestamp)){\n      uint256 _vol = volatilityChain.getVol(optionsList[_id].maturity - block.timestamp);\n      _gamma = int256(MulDiv(OptionLibrary.calcGamma(_price, optionsList[_id].strike, _vol), optionsList[_id].amount, OptionLibrary.Multiplier() ));\n      if(optionsList[_id].side==OptionLibrary.OptionSide.Sell){ _gamma = -_gamma;}}}\n      \n  function calculateAggregateGamma() external view returns(int256 _gamma){\n    (uint256 _price,) = volatilityChain.queryPrice();\n    _gamma= 0;\n    for(uint256 i=0;i<activeOptions.length();i++){\n      _gamma += calculateContractGamma(uint256(activeOptions.at(i)),_price);}}\n\n  function calculateSpotGamma() external view returns(int256 _gamma){\n    uint256 _vol = volatilityChain.getVol(86400);\n    _gamma = int256(OptionLibrary.calcGamma(OptionLibrary.Multiplier(), OptionLibrary.Multiplier(), _vol));}\n    \n  // function validateOption(uint256 _id, address _holder) external view {\n  //   require(optionsList[_id].holder== _holder, \"Not the owner.\");\n  //   require(optionsList[_id].maturity >= block.timestamp, \"Option has expired.\");\n  //   require(optionsList[_id].status==OptionLibrary.OptionStatus.Active, \"Not active option.\");}\n\n  function anyOptionExpiring() external view returns(bool _isExpiring) {\n    _isExpiring = false;\n    for(uint256 i=0;i<activeOptions.length();i++){\n      if(isExpiring(uint256(activeOptions.at(i)))){\n        _isExpiring = true;\n        break;}}}\n\n  function isExpiring(uint256 _id) public view returns (bool){ return (optionsList[_id].status== OptionLibrary.OptionStatus.Active) && (optionsList[_id].maturity <= block.timestamp);}\n\n  function getExpiringOptionId() external view returns(uint256 _id){\n    _id = 0;\n    for(uint256 i=0;i<activeOptions.length();i++){\n      if(isExpiring(uint256(activeOptions.at(i)))){\n        _id = uint256(activeOptions.at(i));\n        break;}}\n  }\n\n  function stampActiveOption(uint256 _id, address _holder) external onlyRole(EXCHANGE_ROLE) {\n    optionsList[_id].effectiveTime = block.timestamp;\n    optionsList[_id].maturity = optionsList[_id].effectiveTime + optionsList[_id].tenor;\n    optionsList[_id].status = OptionLibrary.OptionStatus.Active;\n    activeOptionsPerOwner[_holder].add(_id);\n    activeOptions.add(_id);}\n\n  // function stampExercisedOption(uint256 _id) external onlyRole(EXCHANGE_ROLE){\n  //     optionsList[_id].exerciseTime = block.timestamp;\n  //     optionsList[_id].status = OptionLibrary.OptionStatus.Exercised;}\n\n  function stampExpiredOption(uint256 _id)  external onlyRole(EXCHANGE_ROLE){\n    optionsList[_id].exerciseTime = block.timestamp;\n    optionsList[_id].status = OptionLibrary.OptionStatus.Expired;\n    activeOptionsPerOwner[optionsList[_id].holder].remove(_id);\n    activeOptions.remove(_id);}\n\n  // this function emits values in token decimals.\n  function calcSwapTradesInTok(address _address, uint256 _swapSlippage) external view returns(int256 _tradeUnderlyingAmount, int256 _tradeFundingAmount){\n    (uint256 _price,) = volatilityChain.queryPrice();\n    int256 _aggregateDelta = calculateAggregateDelta(_price);\n    _tradeUnderlyingAmount = (_aggregateDelta >= 0? _aggregateDelta: int256(0)) - int256(MarketLibrary.balanceDef(underlying, _address));\n    _tradeFundingAmount = MarketLibrary.cvtDecimalsInt(OptionLibrary.getOpposeTrade(_tradeUnderlyingAmount, _price, _swapSlippage), funding);\n    _tradeUnderlyingAmount = MarketLibrary.cvtDecimalsInt(_tradeUnderlyingAmount, underlying);}\n  \n  // this function emits values in DEFAULT decimals.\n  function getBalances(address _address) public view returns(uint256 _underlyingBalance, uint256 _fundingBalance, uint256 _collateralBalance, uint256 _debtBalance){\n    address _protocolAds = ILendingPoolAddressesProvider(aaveAddress).getAddress(\"0x1\");//bytes32(uint256(1)));\n    ( _underlyingBalance, ,  _debtBalance) = MarketLibrary.getTokenBalances(_address, _protocolAds, underlying);\n    ( _fundingBalance,  _collateralBalance,) = MarketLibrary.getTokenBalances(_address, _protocolAds, funding); }\n\n  // this function emits values in token decimals.\n  function calcLoanRepaymentInTok(address _address, uint256 _lendingPoolRateMode) external view returns(uint256 _repayAmount, uint256 _repaySwapValue){\n    (uint256 _price,) = volatilityChain.queryPrice();\n    int256 _aggregateDelta = calculateAggregateDelta(_price);\n    (int256 _loanTradeAmount, , ) = MarketLibrary.getLoanTrade(_address, ILendingPoolAddressesProvider(aaveAddress).getAddress(\"0x1\"), _aggregateDelta, underlying, _lendingPoolRateMode == 2);\n    _repayAmount = 0;\n    _repaySwapValue = 0;\n    if(_loanTradeAmount < 0){\n      _repayAmount = uint256(-_loanTradeAmount) - Math.min(uint256(-_loanTradeAmount), ERC20(underlying).balanceOf(address(this)));\n      _repaySwapValue = MarketLibrary.cvtDecimals(MulDiv(_repayAmount, _price, OptionLibrary.Multiplier()), funding);\n      _repayAmount = MarketLibrary.cvtDecimals(_repayAmount, underlying);}}\n\n  // this function emits values in DEFAULT decimals.\n  function calcLoanTrades(address _address, uint256 _lendingPoolRateMode) external view returns(int256 _loanTradeAmount, int256 _collateralChange, address _loanAddress, address _collateralAddress){\n    (uint256 _price,) = volatilityChain.queryPrice();\n    int256 _aggregateDelta = calculateAggregateDelta(_price);\n    address _protocolAds = ILendingPoolAddressesProvider(aaveAddress).getAddress(\"0x1\");\n    uint256 _targetLoan = 0;\n    (_loanTradeAmount, _targetLoan, _loanAddress) = MarketLibrary.getLoanTrade(_address, _protocolAds, _aggregateDelta, underlying, _lendingPoolRateMode == 2);\n    (_collateralChange, _collateralAddress) = MarketLibrary.getCollateralTrade(_address, _protocolAds, _targetLoan, _price, funding, underlying);}\n\n  function queryVol(uint256 _tenor) external view returns(uint256){return volatilityChain.getVol(_tenor);}\n  function queryPrice() external view returns(uint256, uint256){return volatilityChain.queryPrice();}\n  function tokenHash() external view returns (bytes32) {return volatilityChain.getTokenHash();}\n}\n",
  "sourcePath": "/Users/apple/Documents/GitHub/moret/contracts/OptionVault.sol",
  "compiler": {
    "name": "solc",
    "version": "0.8.10+commit.fc410830.Emscripten.clang"
  },
  "schemaVersion": "3.4.3",
  "updatedAt": "2021-11-28T12:43:15.223Z",
  "networkType": "ethereum",
  "devdoc": {
    "kind": "dev",
    "methods": {
      "getRoleAdmin(bytes32)": {
        "details": "Returns the admin role that controls `role`. See {grantRole} and {revokeRole}. To change a role's admin, use {_setRoleAdmin}."
      },
      "grantRole(bytes32,address)": {
        "details": "Grants `role` to `account`. If `account` had not been already granted `role`, emits a {RoleGranted} event. Requirements: - the caller must have ``role``'s admin role."
      },
      "hasRole(bytes32,address)": {
        "details": "Returns `true` if `account` has been granted `role`."
      },
      "renounceRole(bytes32,address)": {
        "details": "Revokes `role` from the calling account. Roles are often managed via {grantRole} and {revokeRole}: this function's purpose is to provide a mechanism for accounts to lose their privileges if they are compromised (such as when a trusted device is misplaced). If the calling account had been revoked `role`, emits a {RoleRevoked} event. Requirements: - the caller must be `account`."
      },
      "revokeRole(bytes32,address)": {
        "details": "Revokes `role` from `account`. If `account` had been granted `role`, emits a {RoleRevoked} event. Requirements: - the caller must have ``role``'s admin role."
      },
      "supportsInterface(bytes4)": {
        "details": "See {IERC165-supportsInterface}."
      }
    },
    "version": 1
  },
  "userdoc": {
    "kind": "user",
    "methods": {},
    "version": 1
  }
}