{
  "contractName": "PoolGovernor",
  "abi": [
    {
      "inputs": [
        {
          "internalType": "address",
          "name": "_token",
          "type": "address"
        },
        {
          "internalType": "address payable",
          "name": "_timelock",
          "type": "address"
        }
      ],
      "stateMutability": "nonpayable",
      "type": "constructor"
    },
    {
      "anonymous": false,
      "inputs": [
        {
          "indexed": false,
          "internalType": "uint256",
          "name": "proposalId",
          "type": "uint256"
        }
      ],
      "name": "ProposalCanceled",
      "type": "event"
    },
    {
      "anonymous": false,
      "inputs": [
        {
          "indexed": false,
          "internalType": "uint256",
          "name": "proposalId",
          "type": "uint256"
        },
        {
          "indexed": false,
          "internalType": "address",
          "name": "proposer",
          "type": "address"
        },
        {
          "indexed": false,
          "internalType": "address[]",
          "name": "targets",
          "type": "address[]"
        },
        {
          "indexed": false,
          "internalType": "uint256[]",
          "name": "values",
          "type": "uint256[]"
        },
        {
          "indexed": false,
          "internalType": "string[]",
          "name": "signatures",
          "type": "string[]"
        },
        {
          "indexed": false,
          "internalType": "bytes[]",
          "name": "calldatas",
          "type": "bytes[]"
        },
        {
          "indexed": false,
          "internalType": "uint256",
          "name": "startBlock",
          "type": "uint256"
        },
        {
          "indexed": false,
          "internalType": "uint256",
          "name": "endBlock",
          "type": "uint256"
        },
        {
          "indexed": false,
          "internalType": "string",
          "name": "description",
          "type": "string"
        }
      ],
      "name": "ProposalCreated",
      "type": "event"
    },
    {
      "anonymous": false,
      "inputs": [
        {
          "indexed": false,
          "internalType": "uint256",
          "name": "proposalId",
          "type": "uint256"
        }
      ],
      "name": "ProposalExecuted",
      "type": "event"
    },
    {
      "anonymous": false,
      "inputs": [
        {
          "indexed": false,
          "internalType": "uint256",
          "name": "proposalId",
          "type": "uint256"
        },
        {
          "indexed": false,
          "internalType": "uint256",
          "name": "eta",
          "type": "uint256"
        }
      ],
      "name": "ProposalQueued",
      "type": "event"
    },
    {
      "anonymous": false,
      "inputs": [
        {
          "indexed": false,
          "internalType": "uint256",
          "name": "oldProposalThreshold",
          "type": "uint256"
        },
        {
          "indexed": false,
          "internalType": "uint256",
          "name": "newProposalThreshold",
          "type": "uint256"
        }
      ],
      "name": "ProposalThresholdSet",
      "type": "event"
    },
    {
      "anonymous": false,
      "inputs": [
        {
          "indexed": false,
          "internalType": "uint256",
          "name": "oldQuorumNumerator",
          "type": "uint256"
        },
        {
          "indexed": false,
          "internalType": "uint256",
          "name": "newQuorumNumerator",
          "type": "uint256"
        }
      ],
      "name": "QuorumNumeratorUpdated",
      "type": "event"
    },
    {
      "anonymous": false,
      "inputs": [
        {
          "indexed": false,
          "internalType": "address",
          "name": "oldTimelock",
          "type": "address"
        },
        {
          "indexed": false,
          "internalType": "address",
          "name": "newTimelock",
          "type": "address"
        }
      ],
      "name": "TimelockChange",
      "type": "event"
    },
    {
      "anonymous": false,
      "inputs": [
        {
          "indexed": true,
          "internalType": "address",
          "name": "voter",
          "type": "address"
        },
        {
          "indexed": false,
          "internalType": "uint256",
          "name": "proposalId",
          "type": "uint256"
        },
        {
          "indexed": false,
          "internalType": "uint8",
          "name": "support",
          "type": "uint8"
        },
        {
          "indexed": false,
          "internalType": "uint256",
          "name": "weight",
          "type": "uint256"
        },
        {
          "indexed": false,
          "internalType": "string",
          "name": "reason",
          "type": "string"
        }
      ],
      "name": "VoteCast",
      "type": "event"
    },
    {
      "anonymous": false,
      "inputs": [
        {
          "indexed": false,
          "internalType": "uint256",
          "name": "oldVotingDelay",
          "type": "uint256"
        },
        {
          "indexed": false,
          "internalType": "uint256",
          "name": "newVotingDelay",
          "type": "uint256"
        }
      ],
      "name": "VotingDelaySet",
      "type": "event"
    },
    {
      "anonymous": false,
      "inputs": [
        {
          "indexed": false,
          "internalType": "uint256",
          "name": "oldVotingPeriod",
          "type": "uint256"
        },
        {
          "indexed": false,
          "internalType": "uint256",
          "name": "newVotingPeriod",
          "type": "uint256"
        }
      ],
      "name": "VotingPeriodSet",
      "type": "event"
    },
    {
      "inputs": [],
      "name": "BALLOT_TYPEHASH",
      "outputs": [
        {
          "internalType": "bytes32",
          "name": "",
          "type": "bytes32"
        }
      ],
      "stateMutability": "view",
      "type": "function"
    },
    {
      "inputs": [],
      "name": "COUNTING_MODE",
      "outputs": [
        {
          "internalType": "string",
          "name": "",
          "type": "string"
        }
      ],
      "stateMutability": "pure",
      "type": "function"
    },
    {
      "inputs": [
        {
          "internalType": "uint256",
          "name": "proposalId",
          "type": "uint256"
        },
        {
          "internalType": "uint8",
          "name": "support",
          "type": "uint8"
        }
      ],
      "name": "castVote",
      "outputs": [
        {
          "internalType": "uint256",
          "name": "",
          "type": "uint256"
        }
      ],
      "stateMutability": "nonpayable",
      "type": "function"
    },
    {
      "inputs": [
        {
          "internalType": "uint256",
          "name": "proposalId",
          "type": "uint256"
        },
        {
          "internalType": "uint8",
          "name": "support",
          "type": "uint8"
        },
        {
          "internalType": "uint8",
          "name": "v",
          "type": "uint8"
        },
        {
          "internalType": "bytes32",
          "name": "r",
          "type": "bytes32"
        },
        {
          "internalType": "bytes32",
          "name": "s",
          "type": "bytes32"
        }
      ],
      "name": "castVoteBySig",
      "outputs": [
        {
          "internalType": "uint256",
          "name": "",
          "type": "uint256"
        }
      ],
      "stateMutability": "nonpayable",
      "type": "function"
    },
    {
      "inputs": [
        {
          "internalType": "uint256",
          "name": "proposalId",
          "type": "uint256"
        },
        {
          "internalType": "uint8",
          "name": "support",
          "type": "uint8"
        },
        {
          "internalType": "string",
          "name": "reason",
          "type": "string"
        }
      ],
      "name": "castVoteWithReason",
      "outputs": [
        {
          "internalType": "uint256",
          "name": "",
          "type": "uint256"
        }
      ],
      "stateMutability": "nonpayable",
      "type": "function"
    },
    {
      "inputs": [
        {
          "internalType": "address[]",
          "name": "targets",
          "type": "address[]"
        },
        {
          "internalType": "uint256[]",
          "name": "values",
          "type": "uint256[]"
        },
        {
          "internalType": "bytes[]",
          "name": "calldatas",
          "type": "bytes[]"
        },
        {
          "internalType": "bytes32",
          "name": "descriptionHash",
          "type": "bytes32"
        }
      ],
      "name": "execute",
      "outputs": [
        {
          "internalType": "uint256",
          "name": "",
          "type": "uint256"
        }
      ],
      "stateMutability": "payable",
      "type": "function"
    },
    {
      "inputs": [
        {
          "internalType": "uint256",
          "name": "proposalId",
          "type": "uint256"
        },
        {
          "internalType": "address",
          "name": "account",
          "type": "address"
        }
      ],
      "name": "hasVoted",
      "outputs": [
        {
          "internalType": "bool",
          "name": "",
          "type": "bool"
        }
      ],
      "stateMutability": "view",
      "type": "function"
    },
    {
      "inputs": [
        {
          "internalType": "address[]",
          "name": "targets",
          "type": "address[]"
        },
        {
          "internalType": "uint256[]",
          "name": "values",
          "type": "uint256[]"
        },
        {
          "internalType": "bytes[]",
          "name": "calldatas",
          "type": "bytes[]"
        },
        {
          "internalType": "bytes32",
          "name": "descriptionHash",
          "type": "bytes32"
        }
      ],
      "name": "hashProposal",
      "outputs": [
        {
          "internalType": "uint256",
          "name": "",
          "type": "uint256"
        }
      ],
      "stateMutability": "pure",
      "type": "function"
    },
    {
      "inputs": [],
      "name": "name",
      "outputs": [
        {
          "internalType": "string",
          "name": "",
          "type": "string"
        }
      ],
      "stateMutability": "view",
      "type": "function"
    },
    {
      "inputs": [
        {
          "internalType": "uint256",
          "name": "proposalId",
          "type": "uint256"
        }
      ],
      "name": "proposalDeadline",
      "outputs": [
        {
          "internalType": "uint256",
          "name": "",
          "type": "uint256"
        }
      ],
      "stateMutability": "view",
      "type": "function"
    },
    {
      "inputs": [
        {
          "internalType": "uint256",
          "name": "proposalId",
          "type": "uint256"
        }
      ],
      "name": "proposalEta",
      "outputs": [
        {
          "internalType": "uint256",
          "name": "",
          "type": "uint256"
        }
      ],
      "stateMutability": "view",
      "type": "function"
    },
    {
      "inputs": [
        {
          "internalType": "uint256",
          "name": "proposalId",
          "type": "uint256"
        }
      ],
      "name": "proposalSnapshot",
      "outputs": [
        {
          "internalType": "uint256",
          "name": "",
          "type": "uint256"
        }
      ],
      "stateMutability": "view",
      "type": "function"
    },
    {
      "inputs": [
        {
          "internalType": "uint256",
          "name": "proposalId",
          "type": "uint256"
        }
      ],
      "name": "proposalVotes",
      "outputs": [
        {
          "internalType": "uint256",
          "name": "againstVotes",
          "type": "uint256"
        },
        {
          "internalType": "uint256",
          "name": "forVotes",
          "type": "uint256"
        },
        {
          "internalType": "uint256",
          "name": "abstainVotes",
          "type": "uint256"
        }
      ],
      "stateMutability": "view",
      "type": "function"
    },
    {
      "inputs": [
        {
          "internalType": "address[]",
          "name": "targets",
          "type": "address[]"
        },
        {
          "internalType": "uint256[]",
          "name": "values",
          "type": "uint256[]"
        },
        {
          "internalType": "bytes[]",
          "name": "calldatas",
          "type": "bytes[]"
        },
        {
          "internalType": "bytes32",
          "name": "descriptionHash",
          "type": "bytes32"
        }
      ],
      "name": "queue",
      "outputs": [
        {
          "internalType": "uint256",
          "name": "",
          "type": "uint256"
        }
      ],
      "stateMutability": "nonpayable",
      "type": "function"
    },
    {
      "inputs": [],
      "name": "quorumDenominator",
      "outputs": [
        {
          "internalType": "uint256",
          "name": "",
          "type": "uint256"
        }
      ],
      "stateMutability": "view",
      "type": "function"
    },
    {
      "inputs": [],
      "name": "quorumNumerator",
      "outputs": [
        {
          "internalType": "uint256",
          "name": "",
          "type": "uint256"
        }
      ],
      "stateMutability": "view",
      "type": "function"
    },
    {
      "inputs": [
        {
          "internalType": "address",
          "name": "target",
          "type": "address"
        },
        {
          "internalType": "uint256",
          "name": "value",
          "type": "uint256"
        },
        {
          "internalType": "bytes",
          "name": "data",
          "type": "bytes"
        }
      ],
      "name": "relay",
      "outputs": [],
      "stateMutability": "nonpayable",
      "type": "function"
    },
    {
      "inputs": [
        {
          "internalType": "uint256",
          "name": "newProposalThreshold",
          "type": "uint256"
        }
      ],
      "name": "setProposalThreshold",
      "outputs": [],
      "stateMutability": "nonpayable",
      "type": "function"
    },
    {
      "inputs": [
        {
          "internalType": "uint256",
          "name": "newVotingDelay",
          "type": "uint256"
        }
      ],
      "name": "setVotingDelay",
      "outputs": [],
      "stateMutability": "nonpayable",
      "type": "function"
    },
    {
      "inputs": [
        {
          "internalType": "uint256",
          "name": "newVotingPeriod",
          "type": "uint256"
        }
      ],
      "name": "setVotingPeriod",
      "outputs": [],
      "stateMutability": "nonpayable",
      "type": "function"
    },
    {
      "inputs": [],
      "name": "timelock",
      "outputs": [
        {
          "internalType": "address",
          "name": "",
          "type": "address"
        }
      ],
      "stateMutability": "view",
      "type": "function"
    },
    {
      "inputs": [],
      "name": "token",
      "outputs": [
        {
          "internalType": "contract IVotes",
          "name": "",
          "type": "address"
        }
      ],
      "stateMutability": "view",
      "type": "function"
    },
    {
      "inputs": [
        {
          "internalType": "uint256",
          "name": "newQuorumNumerator",
          "type": "uint256"
        }
      ],
      "name": "updateQuorumNumerator",
      "outputs": [],
      "stateMutability": "nonpayable",
      "type": "function"
    },
    {
      "inputs": [
        {
          "internalType": "contract TimelockController",
          "name": "newTimelock",
          "type": "address"
        }
      ],
      "name": "updateTimelock",
      "outputs": [],
      "stateMutability": "nonpayable",
      "type": "function"
    },
    {
      "inputs": [],
      "name": "version",
      "outputs": [
        {
          "internalType": "string",
          "name": "",
          "type": "string"
        }
      ],
      "stateMutability": "view",
      "type": "function"
    },
    {
      "stateMutability": "payable",
      "type": "receive"
    },
    {
      "inputs": [],
      "name": "votingDelay",
      "outputs": [
        {
          "internalType": "uint256",
          "name": "",
          "type": "uint256"
        }
      ],
      "stateMutability": "view",
      "type": "function"
    },
    {
      "inputs": [],
      "name": "votingPeriod",
      "outputs": [
        {
          "internalType": "uint256",
          "name": "",
          "type": "uint256"
        }
      ],
      "stateMutability": "view",
      "type": "function"
    },
    {
      "inputs": [
        {
          "internalType": "uint256",
          "name": "blockNumber",
          "type": "uint256"
        }
      ],
      "name": "quorum",
      "outputs": [
        {
          "internalType": "uint256",
          "name": "",
          "type": "uint256"
        }
      ],
      "stateMutability": "view",
      "type": "function"
    },
    {
      "inputs": [
        {
          "internalType": "address",
          "name": "account",
          "type": "address"
        },
        {
          "internalType": "uint256",
          "name": "blockNumber",
          "type": "uint256"
        }
      ],
      "name": "getVotes",
      "outputs": [
        {
          "internalType": "uint256",
          "name": "",
          "type": "uint256"
        }
      ],
      "stateMutability": "view",
      "type": "function"
    },
    {
      "inputs": [
        {
          "internalType": "uint256",
          "name": "proposalId",
          "type": "uint256"
        }
      ],
      "name": "state",
      "outputs": [
        {
          "internalType": "enum IGovernor.ProposalState",
          "name": "",
          "type": "uint8"
        }
      ],
      "stateMutability": "view",
      "type": "function"
    },
    {
      "inputs": [
        {
          "internalType": "address[]",
          "name": "targets",
          "type": "address[]"
        },
        {
          "internalType": "uint256[]",
          "name": "values",
          "type": "uint256[]"
        },
        {
          "internalType": "bytes[]",
          "name": "calldatas",
          "type": "bytes[]"
        },
        {
          "internalType": "string",
          "name": "description",
          "type": "string"
        }
      ],
      "name": "propose",
      "outputs": [
        {
          "internalType": "uint256",
          "name": "",
          "type": "uint256"
        }
      ],
      "stateMutability": "nonpayable",
      "type": "function"
    },
    {
      "inputs": [],
      "name": "proposalThreshold",
      "outputs": [
        {
          "internalType": "uint256",
          "name": "",
          "type": "uint256"
        }
      ],
      "stateMutability": "view",
      "type": "function"
    },
    {
      "inputs": [
        {
          "internalType": "bytes4",
          "name": "interfaceId",
          "type": "bytes4"
        }
      ],
      "name": "supportsInterface",
      "outputs": [
        {
          "internalType": "bool",
          "name": "",
          "type": "bool"
        }
      ],
      "stateMutability": "view",
      "type": "function"
    }
  ],
  "bytecode": "0x6101606040523480156200001257600080fd5b5060405162005a8138038062005a8183398181016040528101906200003891906200062e565b806004836119aa61b2fa60006040518060400160405280600481526020017f506f6f6c00000000000000000000000000000000000000000000000000000000815250806200008b620001ef60201b60201c565b60008280519060200120905060008280519060200120905060007f8b73c3c69bb8fe3d512ecc4cf759cc79239f7b179b0ffacaa9a75d522b39400f90508260e081815250508161010081815250504660a08181525050620000f48184846200022c60201b60201c565b608081815250503073ffffffffffffffffffffffffffffffffffffffff1660c08173ffffffffffffffffffffffffffffffffffffffff16815250508061012081815250505050505050806000908051906020019062000155929190620004cf565b505062000168836200026860201b60201c565b6200017982620002af60201b60201c565b6200018a816200033c60201b60201c565b5050508073ffffffffffffffffffffffffffffffffffffffff166101408173ffffffffffffffffffffffffffffffffffffffff168152505050620001d4816200038360201b60201c565b50620001e6816200042560201b60201c565b5050506200093e565b60606040518060400160405280600181526020017f3100000000000000000000000000000000000000000000000000000000000000815250905090565b6000838383463060405160200162000249959493929190620006bc565b6040516020818303038152906040528051906020012090509392505050565b7fc565b045403dc03c2eea82b81a0465edad9e2e7fc4d97e11421c209da93d7a93600254826040516200029d92919062000719565b60405180910390a18060028190555050565b60008111620002f5576040517f08c379a0000000000000000000000000000000000000000000000000000000008152600401620002ec90620007cd565b60405180910390fd5b7f7e3f7f0708a84de9203036abaa450dccc85ad5ff52f78c170f3edb55cf5e8828600354826040516200032a92919062000719565b60405180910390a18060038190555050565b7fccb45da8d5717e6c4544694297c4ba5cf151d455c9bb0ed4fc7a38411bc05461600454826040516200037192919062000719565b60405180910390a18060048190555050565b62000393620004c660201b60201c565b811115620003d8576040517f08c379a0000000000000000000000000000000000000000000000000000000008152600401620003cf906200088b565b60405180910390fd5b60006006549050816006819055507f0553476bf02ef2726e8ce5ced78d63e26e602e4a2257b1f559418e24b463399781836040516200041992919062000719565b60405180910390a15050565b7f08f74ea46ef7894f65eabfb5e6e695de773a000b47c529ab559178069b226401600760009054906101000a900473ffffffffffffffffffffffffffffffffffffffff16826040516200047a929190620008ad565b60405180910390a180600760006101000a81548173ffffffffffffffffffffffffffffffffffffffff021916908373ffffffffffffffffffffffffffffffffffffffff16021790555050565b60006064905090565b828054620004dd9062000909565b90600052602060002090601f0160209004810192826200050157600085556200054d565b82601f106200051c57805160ff19168380011785556200054d565b828001600101855582156200054d579182015b828111156200054c5782518255916020019190600101906200052f565b5b5090506200055c919062000560565b5090565b5b808211156200057b57600081600090555060010162000561565b5090565b600080fd5b600073ffffffffffffffffffffffffffffffffffffffff82169050919050565b6000620005b18262000584565b9050919050565b620005c381620005a4565b8114620005cf57600080fd5b50565b600081519050620005e381620005b8565b92915050565b6000620005f68262000584565b9050919050565b6200060881620005e9565b81146200061457600080fd5b50565b6000815190506200062881620005fd565b92915050565b600080604083850312156200064857620006476200057f565b5b60006200065885828601620005d2565b92505060206200066b8582860162000617565b9150509250929050565b6000819050919050565b6200068a8162000675565b82525050565b6000819050919050565b620006a58162000690565b82525050565b620006b681620005a4565b82525050565b600060a082019050620006d360008301886200067f565b620006e260208301876200067f565b620006f160408301866200067f565b6200070060608301856200069a565b6200070f6080830184620006ab565b9695505050505050565b60006040820190506200073060008301856200069a565b6200073f60208301846200069a565b9392505050565b600082825260208201905092915050565b7f476f7665726e6f7253657474696e67733a20766f74696e6720706572696f642060008201527f746f6f206c6f7700000000000000000000000000000000000000000000000000602082015250565b6000620007b560278362000746565b9150620007c28262000757565b604082019050919050565b60006020820190508181036000830152620007e881620007a6565b9050919050565b7f476f7665726e6f72566f74657351756f72756d4672616374696f6e3a2071756f60008201527f72756d4e756d657261746f72206f7665722071756f72756d44656e6f6d696e6160208201527f746f720000000000000000000000000000000000000000000000000000000000604082015250565b60006200087360438362000746565b91506200088082620007ef565b606082019050919050565b60006020820190508181036000830152620008a68162000864565b9050919050565b6000604082019050620008c46000830185620006ab565b620008d36020830184620006ab565b9392505050565b7f4e487b7100000000000000000000000000000000000000000000000000000000600052602260045260246000fd5b600060028204905060018216806200092257607f821691505b602082108103620009385762000937620008da565b5b50919050565b60805160a05160c05160e0516101005161012051610140516150da620009a7600039600081816115f001528181611f9e015261209901526000612312015260006123540152600061233301526000612268015260006122be015260006122e701526150da6000f3fe6080604052600436106101f25760003560e01c80637d5e81e21161010d578063c59057e4116100a0578063ea0217cf1161006f578063ea0217cf146107da578063eb9019d414610803578063ece40cc114610840578063f8ce560a14610869578063fc0c546a146108a657610238565b8063c59057e41461071c578063d33219b414610759578063dd4e2ba514610784578063deaaa7cc146107af57610238565b8063ab58fb8e116100dc578063ab58fb8e1461064e578063b58131b01461068b578063c01f9e37146106b6578063c28bc2fa146106f357610238565b80637d5e81e21461059257806397c3d334146105cf578063a7713a70146105fa578063a890c9101461062557610238565b80633bccf4fd1161018557806354fd4d501161015457806354fd4d50146104c457806356781388146104ef57806370b0f6601461052c5780637b3c71d31461055557610238565b80633bccf4fd146103ce5780633e4f49e61461040b5780634385963214610448578063544ffc9c1461048557610238565b8063160cbed7116101c1578063160cbed7146102f95780632656227d146103365780632d63f693146103665780633932abb1146103a357610238565b806301ffc9a71461023d57806302a251a31461027a57806306f3f9e6146102a557806306fdde03146102ce57610238565b36610238573073ffffffffffffffffffffffffffffffffffffffff166102166108d1565b73ffffffffffffffffffffffffffffffffffffffff161461023657600080fd5b005b600080fd5b34801561024957600080fd5b50610264600480360381019061025f9190612d60565b6108e0565b6040516102719190612da8565b60405180910390f35b34801561028657600080fd5b5061028f6108f2565b60405161029c9190612ddc565b60405180910390f35b3480156102b157600080fd5b506102cc60048036038101906102c79190612e23565b610901565b005b3480156102da57600080fd5b506102e3610989565b6040516102f09190612ee9565b60405180910390f35b34801561030557600080fd5b50610320600480360381019061031b9190613340565b610a1b565b60405161032d9190612ddc565b60405180910390f35b610350600480360381019061034b9190613340565b610cd5565b60405161035d9190612ddc565b60405180910390f35b34801561037257600080fd5b5061038d60048036038101906103889190612e23565b610e08565b60405161039a9190612ddc565b60405180910390f35b3480156103af57600080fd5b506103b8610e76565b6040516103c59190612ddc565b60405180910390f35b3480156103da57600080fd5b506103f560048036038101906103f09190613434565b610e85565b6040516104029190612ddc565b60405180910390f35b34801561041757600080fd5b50610432600480360381019061042d9190612e23565b610f0f565b60405161043f9190613526565b60405180910390f35b34801561045457600080fd5b5061046f600480360381019061046a9190613541565b610f21565b60405161047c9190612da8565b60405180910390f35b34801561049157600080fd5b506104ac60048036038101906104a79190612e23565b610f8c565b6040516104bb93929190613581565b60405180910390f35b3480156104d057600080fd5b506104d9610fc4565b6040516104e69190612ee9565b60405180910390f35b3480156104fb57600080fd5b50610516600480360381019061051191906135b8565b611001565b6040516105239190612ddc565b60405180910390f35b34801561053857600080fd5b50610553600480360381019061054e9190612e23565b611032565b005b34801561056157600080fd5b5061057c60048036038101906105779190613653565b6110ba565b6040516105899190612ddc565b60405180910390f35b34801561059e57600080fd5b506105b960048036038101906105b49190613768565b611122565b6040516105c69190612ddc565b60405180910390f35b3480156105db57600080fd5b506105e461113a565b6040516105f19190612ddc565b60405180910390f35b34801561060657600080fd5b5061060f611143565b60405161061c9190612ddc565b60405180910390f35b34801561063157600080fd5b5061064c6004803603810190610647919061388f565b61114d565b005b34801561065a57600080fd5b5061067560048036038101906106709190612e23565b6111d5565b6040516106829190612ddc565b60405180910390f35b34801561069757600080fd5b506106a06112a2565b6040516106ad9190612ddc565b60405180910390f35b3480156106c257600080fd5b506106dd60048036038101906106d89190612e23565b6112b1565b6040516106ea9190612ddc565b60405180910390f35b3480156106ff57600080fd5b5061071a60048036038101906107159190613912565b61131f565b005b34801561072857600080fd5b50610743600480360381019061073e9190613340565b6113f1565b6040516107509190612ddc565b60405180910390f35b34801561076557600080fd5b5061076e61142d565b60405161077b9190613995565b60405180910390f35b34801561079057600080fd5b50610799611457565b6040516107a69190612ee9565b60405180910390f35b3480156107bb57600080fd5b506107c4611494565b6040516107d191906139bf565b60405180910390f35b3480156107e657600080fd5b5061080160048036038101906107fc9190612e23565b6114b8565b005b34801561080f57600080fd5b5061082a600480360381019061082591906139da565b611540565b6040516108379190612ddc565b60405180910390f35b34801561084c57600080fd5b5061086760048036038101906108629190612e23565b611554565b005b34801561087557600080fd5b50610890600480360381019061088b9190612e23565b6115dc565b60405161089d9190612ddc565b60405180910390f35b3480156108b257600080fd5b506108bb6115ee565b6040516108c89190613a79565b60405180910390f35b60006108db611612565b905090565b60006108eb8261163c565b9050919050565b60006108fc6116b6565b905090565b6109096108d1565b73ffffffffffffffffffffffffffffffffffffffff166109276116c0565b73ffffffffffffffffffffffffffffffffffffffff161461097d576040517f08c379a000000000000000000000000000000000000000000000000000000000815260040161097490613ae0565b60405180910390fd5b610986816116c8565b50565b60606000805461099890613b2f565b80601f01602080910402602001604051908101604052809291908181526020018280546109c490613b2f565b8015610a115780601f106109e657610100808354040283529160200191610a11565b820191906000526020600020905b8154815290600101906020018083116109f457829003601f168201915b5050505050905090565b600080610a2a868686866113f1565b905060046007811115610a4057610a3f6134af565b5b610a4982610f0f565b6007811115610a5b57610a5a6134af565b5b14610a9b576040517f08c379a0000000000000000000000000000000000000000000000000000000008152600401610a9290613bd2565b60405180910390fd5b6000600760009054906101000a900473ffffffffffffffffffffffffffffffffffffffff1673ffffffffffffffffffffffffffffffffffffffff1663f27a0c926040518163ffffffff1660e01b8152600401602060405180830381865afa158015610b0a573d6000803e3d6000fd5b505050506040513d601f19601f82011682018060405250810190610b2e9190613c07565b9050600760009054906101000a900473ffffffffffffffffffffffffffffffffffffffff1673ffffffffffffffffffffffffffffffffffffffff1663b1c5f4278888886000896040518663ffffffff1660e01b8152600401610b94959493929190613f0f565b602060405180830381865afa158015610bb1573d6000803e3d6000fd5b505050506040513d601f19601f82011682018060405250810190610bd59190613f8c565b6008600084815260200190815260200160002081905550600760009054906101000a900473ffffffffffffffffffffffffffffffffffffffff1673ffffffffffffffffffffffffffffffffffffffff16638f2a0bb0888888600089876040518763ffffffff1660e01b8152600401610c5296959493929190613fb9565b600060405180830381600087803b158015610c6c57600080fd5b505af1158015610c80573d6000803e3d6000fd5b505050507f9a2e42fd6722813d69113e7d0079d3d940171428df7373df9c7f7617cfda2892828242610cb2919061405e565b604051610cc09291906140b4565b60405180910390a18192505050949350505050565b600080610ce4868686866113f1565b90506000610cf182610f0f565b905060046007811115610d0757610d066134af565b5b816007811115610d1a57610d196134af565b5b1480610d4a575060056007811115610d3557610d346134af565b5b816007811115610d4857610d476134af565b5b145b610d89576040517f08c379a0000000000000000000000000000000000000000000000000000000008152600401610d8090613bd2565b60405180910390fd5b600180600084815260200190815260200160002060020160006101000a81548160ff0219169083151502179055507f712ae1383f79ac853f8d882153778e0260ef8f03b504e2866e0593e04d2b291f82604051610de69190612ddc565b60405180910390a1610dfb828888888861175d565b8192505050949350505050565b6000610e65600160008481526020019081526020016000206000016040518060200160405290816000820160009054906101000a900467ffffffffffffffff1667ffffffffffffffff1667ffffffffffffffff1681525050611771565b67ffffffffffffffff169050919050565b6000610e8061177f565b905090565b600080610ee6610ede7f150214d74d59b7d1e90c73fc22ef3d991dd0a76b046543d4d80ab92d2a50328f8989604051602001610ec3939291906140ec565b60405160208183030381529060405280519060200120611789565b8686866117a3565b9050610f03878288604051806020016040528060008152506117ce565b91505095945050505050565b6000610f1a82611922565b9050919050565b60006005600084815260200190815260200160002060030160008373ffffffffffffffffffffffffffffffffffffffff1673ffffffffffffffffffffffffffffffffffffffff16815260200190815260200160002060009054906101000a900460ff16905092915050565b600080600080600560008681526020019081526020016000209050806000015481600101548260020154935093509350509193909250565b60606040518060400160405280600181526020017f3100000000000000000000000000000000000000000000000000000000000000815250905090565b60008061100c6116c0565b9050611029848285604051806020016040528060008152506117ce565b91505092915050565b61103a6108d1565b73ffffffffffffffffffffffffffffffffffffffff166110586116c0565b73ffffffffffffffffffffffffffffffffffffffff16146110ae576040517f08c379a00000000000000000000000000000000000000000000000000000000081526004016110a590613ae0565b60405180910390fd5b6110b781611af5565b50565b6000806110c56116c0565b905061111786828787878080601f016020809104026020016040519081016040528093929190818152602001838380828437600081840152601f19601f820116905080830192505050505050506117ce565b915050949350505050565b600061113085858585611b3a565b9050949350505050565b60006064905090565b6000600654905090565b6111556108d1565b73ffffffffffffffffffffffffffffffffffffffff166111736116c0565b73ffffffffffffffffffffffffffffffffffffffff16146111c9576040517f08c379a00000000000000000000000000000000000000000000000000000000081526004016111c090613ae0565b60405180910390fd5b6111d281611e3a565b50565b600080600760009054906101000a900473ffffffffffffffffffffffffffffffffffffffff1673ffffffffffffffffffffffffffffffffffffffff1663d45c443560086000868152602001908152602001600020546040518263ffffffff1660e01b815260040161124691906139bf565b602060405180830381865afa158015611263573d6000803e3d6000fd5b505050506040513d601f19601f820116820180604052508101906112879190613c07565b905060018114611297578061129a565b60005b915050919050565b60006112ac611ed9565b905090565b600061130e600160008481526020019081526020016000206001016040518060200160405290816000820160009054906101000a900467ffffffffffffffff1667ffffffffffffffff1667ffffffffffffffff1681525050611771565b67ffffffffffffffff169050919050565b6113276108d1565b73ffffffffffffffffffffffffffffffffffffffff166113456116c0565b73ffffffffffffffffffffffffffffffffffffffff161461139b576040517f08c379a000000000000000000000000000000000000000000000000000000000815260040161139290613ae0565b60405180910390fd5b6113ea8483838080601f016020809104026020016040519081016040528093929190818152602001838380828437600081840152601f19601f8201169050808301925050505050505085611ee3565b5050505050565b60008484848460405160200161140a9493929190614123565b6040516020818303038152906040528051906020012060001c9050949350505050565b6000600760009054906101000a900473ffffffffffffffffffffffffffffffffffffffff16905090565b60606040518060400160405280602081526020017f737570706f72743d627261766f2671756f72756d3d666f722c6162737461696e815250905090565b7f150214d74d59b7d1e90c73fc22ef3d991dd0a76b046543d4d80ab92d2a50328f81565b6114c06108d1565b73ffffffffffffffffffffffffffffffffffffffff166114de6116c0565b73ffffffffffffffffffffffffffffffffffffffff1614611534576040517f08c379a000000000000000000000000000000000000000000000000000000000815260040161152b90613ae0565b60405180910390fd5b61153d81611f12565b50565b600061154c8383611f9a565b905092915050565b61155c6108d1565b73ffffffffffffffffffffffffffffffffffffffff1661157a6116c0565b73ffffffffffffffffffffffffffffffffffffffff16146115d0576040517f08c379a00000000000000000000000000000000000000000000000000000000081526004016115c790613ae0565b60405180910390fd5b6115d981612040565b50565b60006115e782612085565b9050919050565b7f000000000000000000000000000000000000000000000000000000000000000081565b6000600760009054906101000a900473ffffffffffffffffffffffffffffffffffffffff16905090565b60007f6e665ced000000000000000000000000000000000000000000000000000000007bffffffffffffffffffffffffffffffffffffffffffffffffffffffff1916827bffffffffffffffffffffffffffffffffffffffffffffffffffffffff191614806116af57506116ae8261214c565b5b9050919050565b6000600354905090565b600033905090565b6116d061113a565b811115611712576040517f08c379a000000000000000000000000000000000000000000000000000000000815260040161170990614215565b60405180910390fd5b60006006549050816006819055507f0553476bf02ef2726e8ce5ced78d63e26e602e4a2257b1f559418e24b463399781836040516117519291906140b4565b60405180910390a15050565b61176a85858585856121c6565b5050505050565b600081600001519050919050565b6000600254905090565b600061179c611796612264565b8361237e565b9050919050565b60008060006117b4878787876123b1565b915091506117c1816124bd565b8192505050949350505050565b600080600160008781526020019081526020016000209050600160078111156117fa576117f96134af565b5b61180387610f0f565b6007811115611815576118146134af565b5b14611855576040517f08c379a000000000000000000000000000000000000000000000000000000000815260040161184c906142a7565b60405180910390fd5b60006118b3866118a4846000016040518060200160405290816000820160009054906101000a900467ffffffffffffffff1667ffffffffffffffff1667ffffffffffffffff1681525050611771565b67ffffffffffffffff16611540565b90506118c187878784612689565b8573ffffffffffffffffffffffffffffffffffffffff167fb8e138887d0aa13bab447e82de9d5c1777041ecd21ca36ba824ff1e6c07ddda48887848860405161190d94939291906142c7565b60405180910390a28092505050949350505050565b60008061192e8361288c565b905060046007811115611944576119436134af565b5b816007811115611957576119566134af565b5b146119655780915050611af0565b6000600860008581526020019081526020016000205490506000801b8103611991578192505050611af0565b600760009054906101000a900473ffffffffffffffffffffffffffffffffffffffff1673ffffffffffffffffffffffffffffffffffffffff16632ab0f529826040518263ffffffff1660e01b81526004016119ec91906139bf565b602060405180830381865afa158015611a09573d6000803e3d6000fd5b505050506040513d601f19601f82011682018060405250810190611a2d919061433f565b15611a3d57600792505050611af0565b600760009054906101000a900473ffffffffffffffffffffffffffffffffffffffff1673ffffffffffffffffffffffffffffffffffffffff1663584b153e826040518263ffffffff1660e01b8152600401611a9891906139bf565b602060405180830381865afa158015611ab5573d6000803e3d6000fd5b505050506040513d601f19601f82011682018060405250810190611ad9919061433f565b15611ae957600592505050611af0565b6002925050505b919050565b7fc565b045403dc03c2eea82b81a0465edad9e2e7fc4d97e11421c209da93d7a9360025482604051611b289291906140b4565b60405180910390a18060028190555050565b6000611b446112a2565b611b5a33600143611b55919061436c565b611540565b1015611b9b576040517f08c379a0000000000000000000000000000000000000000000000000000000008152600401611b9290614438565b60405180910390fd5b6000611bb086868686805190602001206113f1565b90508451865114611bf6576040517f08c379a0000000000000000000000000000000000000000000000000000000008152600401611bed906144ca565b60405180910390fd5b8351865114611c3a576040517f08c379a0000000000000000000000000000000000000000000000000000000008152600401611c31906144ca565b60405180910390fd5b6000865111611c7e576040517f08c379a0000000000000000000000000000000000000000000000000000000008152600401611c7590614536565b60405180910390fd5b6000600160008381526020019081526020016000209050611cde816000016040518060200160405290816000820160009054906101000a900467ffffffffffffffff1667ffffffffffffffff1667ffffffffffffffff16815250506129a0565b611d1d576040517f08c379a0000000000000000000000000000000000000000000000000000000008152600401611d14906145c8565b60405180910390fd5b6000611d2f611d2a610e76565b6129ba565b611d38436129ba565b611d4291906145fc565b90506000611d56611d516108f2565b6129ba565b82611d6191906145fc565b9050611d798284600001612a1190919063ffffffff16565b611d8f8184600101612a1190919063ffffffff16565b7f7d84a6263ae0d98d3329bd7b46bb4e8d6f98cd35a7adb45c274c8b7fd5ebd5e084611db96116c0565b8b8b8d5167ffffffffffffffff811115611dd657611dd5612f10565b5b604051908082528060200260200182016040528015611e0957816020015b6060815260200190600190039081611df45790505b508c88888e604051611e2399989796959493929190614777565b60405180910390a183945050505050949350505050565b7f08f74ea46ef7894f65eabfb5e6e695de773a000b47c529ab559178069b226401600760009054906101000a900473ffffffffffffffffffffffffffffffffffffffff1682604051611e8d929190614827565b60405180910390a180600760006101000a81548173ffffffffffffffffffffffffffffffffffffffff021916908373ffffffffffffffffffffffffffffffffffffffff16021790555050565b6000600454905090565b6060611f0984848460405180606001604052806029815260200161507c60299139612a40565b90509392505050565b60008111611f55576040517f08c379a0000000000000000000000000000000000000000000000000000000008152600401611f4c906148c2565b60405180910390fd5b7f7e3f7f0708a84de9203036abaa450dccc85ad5ff52f78c170f3edb55cf5e882860035482604051611f889291906140b4565b60405180910390a18060038190555050565b60007f000000000000000000000000000000000000000000000000000000000000000073ffffffffffffffffffffffffffffffffffffffff16633a46b1a884846040518363ffffffff1660e01b8152600401611ff79291906148e2565b602060405180830381865afa158015612014573d6000803e3d6000fd5b505050506040513d601f19601f820116820180604052508101906120389190613c07565b905092915050565b7fccb45da8d5717e6c4544694297c4ba5cf151d455c9bb0ed4fc7a38411bc05461600454826040516120739291906140b4565b60405180910390a18060048190555050565b600061208f61113a565b612097611143565b7f000000000000000000000000000000000000000000000000000000000000000073ffffffffffffffffffffffffffffffffffffffff16638e539e8c856040518263ffffffff1660e01b81526004016120f09190612ddc565b602060405180830381865afa15801561210d573d6000803e3d6000fd5b505050506040513d601f19601f820116820180604052508101906121319190613c07565b61213b919061490b565b6121459190614994565b9050919050565b60007fbf26d897000000000000000000000000000000000000000000000000000000007bffffffffffffffffffffffffffffffffffffffffffffffffffffffff1916827bffffffffffffffffffffffffffffffffffffffffffffffffffffffff191614806121bf57506121be82612b54565b5b9050919050565b600760009054906101000a900473ffffffffffffffffffffffffffffffffffffffff1673ffffffffffffffffffffffffffffffffffffffff1663e38335e5348686866000876040518763ffffffff1660e01b815260040161222b959493929190613f0f565b6000604051808303818588803b15801561224457600080fd5b505af1158015612258573d6000803e3d6000fd5b50505050505050505050565b60007f000000000000000000000000000000000000000000000000000000000000000073ffffffffffffffffffffffffffffffffffffffff163073ffffffffffffffffffffffffffffffffffffffff161480156122e057507f000000000000000000000000000000000000000000000000000000000000000046145b1561230d577f0000000000000000000000000000000000000000000000000000000000000000905061237b565b6123787f00000000000000000000000000000000000000000000000000000000000000007f00000000000000000000000000000000000000000000000000000000000000007f0000000000000000000000000000000000000000000000000000000000000000612bbe565b90505b90565b60008282604051602001612393929190614a3d565b60405160208183030381529060405280519060200120905092915050565b6000807f7fffffffffffffffffffffffffffffff5d576e7357a4501ddfe92f46681b20a08360001c11156123ec5760006003915091506124b4565b601b8560ff16141580156124045750601c8560ff1614155b156124165760006004915091506124b4565b60006001878787876040516000815260200160405260405161243b9493929190614a74565b6020604051602081039080840390855afa15801561245d573d6000803e3d6000fd5b505050602060405103519050600073ffffffffffffffffffffffffffffffffffffffff168173ffffffffffffffffffffffffffffffffffffffff16036124ab576000600192509250506124b4565b80600092509250505b94509492505050565b600060048111156124d1576124d06134af565b5b8160048111156124e4576124e36134af565b5b031561268657600160048111156124fe576124fd6134af565b5b816004811115612511576125106134af565b5b03612551576040517f08c379a000000000000000000000000000000000000000000000000000000000815260040161254890614b05565b60405180910390fd5b60026004811115612565576125646134af565b5b816004811115612578576125776134af565b5b036125b8576040517f08c379a00000000000000000000000000000000000000000000000000000000081526004016125af90614b71565b60405180910390fd5b600360048111156125cc576125cb6134af565b5b8160048111156125df576125de6134af565b5b0361261f576040517f08c379a000000000000000000000000000000000000000000000000000000000815260040161261690614c03565b60405180910390fd5b600480811115612632576126316134af565b5b816004811115612645576126446134af565b5b03612685576040517f08c379a000000000000000000000000000000000000000000000000000000000815260040161267c90614c95565b60405180910390fd5b5b50565b60006005600086815260200190815260200160002090508060030160008573ffffffffffffffffffffffffffffffffffffffff1673ffffffffffffffffffffffffffffffffffffffff16815260200190815260200160002060009054906101000a900460ff161561272f576040517f08c379a000000000000000000000000000000000000000000000000000000000815260040161272690614d27565b60405180910390fd5b60018160030160008673ffffffffffffffffffffffffffffffffffffffff1673ffffffffffffffffffffffffffffffffffffffff16815260200190815260200160002060006101000a81548160ff0219169083151502179055506000600281111561279d5761279c6134af565b5b60ff168360ff16036127c957818160000160008282546127bd919061405e565b92505081905550612885565b600160028111156127dd576127dc6134af565b5b60ff168360ff160361280957818160010160008282546127fd919061405e565b92505081905550612884565b60028081111561281c5761281b6134af565b5b60ff168360ff1603612848578181600201600082825461283c919061405e565b92505081905550612883565b6040517f08c379a000000000000000000000000000000000000000000000000000000000815260040161287a90614db9565b60405180910390fd5b5b5b5050505050565b6000806001600084815260200190815260200160002090508060020160009054906101000a900460ff16156128c557600791505061299b565b8060020160019054906101000a900460ff16156128e657600291505061299b565b60006128f184610e08565b905060008103612936576040517f08c379a000000000000000000000000000000000000000000000000000000000815260040161292d90614e25565b60405180910390fd5b4381106129485760009250505061299b565b6000612953856112b1565b9050438110612968576001935050505061299b565b61297185612bf8565b8015612982575061298185612c3f565b5b15612993576004935050505061299b565b600393505050505b919050565b600080826000015167ffffffffffffffff16149050919050565b600067ffffffffffffffff8016821115612a09576040517f08c379a0000000000000000000000000000000000000000000000000000000008152600401612a0090614eb7565b60405180910390fd5b819050919050565b808260000160006101000a81548167ffffffffffffffff021916908367ffffffffffffffff1602179055505050565b606082471015612a85576040517f08c379a0000000000000000000000000000000000000000000000000000000008152600401612a7c90614f49565b60405180910390fd5b612a8e85612c6a565b612acd576040517f08c379a0000000000000000000000000000000000000000000000000000000008152600401612ac490614fb5565b60405180910390fd5b6000808673ffffffffffffffffffffffffffffffffffffffff168587604051612af69190615011565b60006040518083038185875af1925050503d8060008114612b33576040519150601f19603f3d011682016040523d82523d6000602084013e612b38565b606091505b5091509150612b48828286612c8d565b92505050949350505050565b60007f01ffc9a7000000000000000000000000000000000000000000000000000000007bffffffffffffffffffffffffffffffffffffffffffffffffffffffff1916827bffffffffffffffffffffffffffffffffffffffffffffffffffffffff1916149050919050565b60008383834630604051602001612bd9959493929190615028565b6040516020818303038152906040528051906020012090509392505050565b60008060056000848152602001908152602001600020905080600201548160010154612c24919061405e565b612c35612c3085610e08565b6115dc565b1115915050919050565b6000806005600084815260200190815260200160002090508060000154816001015411915050919050565b6000808273ffffffffffffffffffffffffffffffffffffffff163b119050919050565b60608315612c9d57829050612ced565b600083511115612cb05782518084602001fd5b816040517f08c379a0000000000000000000000000000000000000000000000000000000008152600401612ce49190612ee9565b60405180910390fd5b9392505050565b6000604051905090565b600080fd5b600080fd5b60007fffffffff0000000000000000000000000000000000000000000000000000000082169050919050565b612d3d81612d08565b8114612d4857600080fd5b50565b600081359050612d5a81612d34565b92915050565b600060208284031215612d7657612d75612cfe565b5b6000612d8484828501612d4b565b91505092915050565b60008115159050919050565b612da281612d8d565b82525050565b6000602082019050612dbd6000830184612d99565b92915050565b6000819050919050565b612dd681612dc3565b82525050565b6000602082019050612df16000830184612dcd565b92915050565b612e0081612dc3565b8114612e0b57600080fd5b50565b600081359050612e1d81612df7565b92915050565b600060208284031215612e3957612e38612cfe565b5b6000612e4784828501612e0e565b91505092915050565b600081519050919050565b600082825260208201905092915050565b60005b83811015612e8a578082015181840152602081019050612e6f565b83811115612e99576000848401525b50505050565b6000601f19601f8301169050919050565b6000612ebb82612e50565b612ec58185612e5b565b9350612ed5818560208601612e6c565b612ede81612e9f565b840191505092915050565b60006020820190508181036000830152612f038184612eb0565b905092915050565b600080fd5b7f4e487b7100000000000000000000000000000000000000000000000000000000600052604160045260246000fd5b612f4882612e9f565b810181811067ffffffffffffffff82111715612f6757612f66612f10565b5b80604052505050565b6000612f7a612cf4565b9050612f868282612f3f565b919050565b600067ffffffffffffffff821115612fa657612fa5612f10565b5b602082029050602081019050919050565b600080fd5b600073ffffffffffffffffffffffffffffffffffffffff82169050919050565b6000612fe782612fbc565b9050919050565b612ff781612fdc565b811461300257600080fd5b50565b60008135905061301481612fee565b92915050565b600061302d61302884612f8b565b612f70565b905080838252602082019050602084028301858111156130505761304f612fb7565b5b835b8181101561307957806130658882613005565b845260208401935050602081019050613052565b5050509392505050565b600082601f83011261309857613097612f0b565b5b81356130a884826020860161301a565b91505092915050565b600067ffffffffffffffff8211156130cc576130cb612f10565b5b602082029050602081019050919050565b60006130f06130eb846130b1565b612f70565b9050808382526020820190506020840283018581111561311357613112612fb7565b5b835b8181101561313c57806131288882612e0e565b845260208401935050602081019050613115565b5050509392505050565b600082601f83011261315b5761315a612f0b565b5b813561316b8482602086016130dd565b91505092915050565b600067ffffffffffffffff82111561318f5761318e612f10565b5b602082029050602081019050919050565b600080fd5b600067ffffffffffffffff8211156131c0576131bf612f10565b5b6131c982612e9f565b9050602081019050919050565b82818337600083830152505050565b60006131f86131f3846131a5565b612f70565b905082815260208101848484011115613214576132136131a0565b5b61321f8482856131d6565b509392505050565b600082601f83011261323c5761323b612f0b565b5b813561324c8482602086016131e5565b91505092915050565b600061326861326384613174565b612f70565b9050808382526020820190506020840283018581111561328b5761328a612fb7565b5b835b818110156132d257803567ffffffffffffffff8111156132b0576132af612f0b565b5b8086016132bd8982613227565b8552602085019450505060208101905061328d565b5050509392505050565b600082601f8301126132f1576132f0612f0b565b5b8135613301848260208601613255565b91505092915050565b6000819050919050565b61331d8161330a565b811461332857600080fd5b50565b60008135905061333a81613314565b92915050565b6000806000806080858703121561335a57613359612cfe565b5b600085013567ffffffffffffffff81111561337857613377612d03565b5b61338487828801613083565b945050602085013567ffffffffffffffff8111156133a5576133a4612d03565b5b6133b187828801613146565b935050604085013567ffffffffffffffff8111156133d2576133d1612d03565b5b6133de878288016132dc565b92505060606133ef8782880161332b565b91505092959194509250565b600060ff82169050919050565b613411816133fb565b811461341c57600080fd5b50565b60008135905061342e81613408565b92915050565b600080600080600060a086880312156134505761344f612cfe565b5b600061345e88828901612e0e565b955050602061346f8882890161341f565b94505060406134808882890161341f565b93505060606134918882890161332b565b92505060806134a28882890161332b565b9150509295509295909350565b7f4e487b7100000000000000000000000000000000000000000000000000000000600052602160045260246000fd5b600881106134ef576134ee6134af565b5b50565b6000819050613500826134de565b919050565b6000613510826134f2565b9050919050565b61352081613505565b82525050565b600060208201905061353b6000830184613517565b92915050565b6000806040838503121561355857613557612cfe565b5b600061356685828601612e0e565b925050602061357785828601613005565b9150509250929050565b60006060820190506135966000830186612dcd565b6135a36020830185612dcd565b6135b06040830184612dcd565b949350505050565b600080604083850312156135cf576135ce612cfe565b5b60006135dd85828601612e0e565b92505060206135ee8582860161341f565b9150509250929050565b600080fd5b60008083601f84011261361357613612612f0b565b5b8235905067ffffffffffffffff8111156136305761362f6135f8565b5b60208301915083600182028301111561364c5761364b612fb7565b5b9250929050565b6000806000806060858703121561366d5761366c612cfe565b5b600061367b87828801612e0e565b945050602061368c8782880161341f565b935050604085013567ffffffffffffffff8111156136ad576136ac612d03565b5b6136b9878288016135fd565b925092505092959194509250565b600067ffffffffffffffff8211156136e2576136e1612f10565b5b6136eb82612e9f565b9050602081019050919050565b600061370b613706846136c7565b612f70565b905082815260208101848484011115613727576137266131a0565b5b6137328482856131d6565b509392505050565b600082601f83011261374f5761374e612f0b565b5b813561375f8482602086016136f8565b91505092915050565b6000806000806080858703121561378257613781612cfe565b5b600085013567ffffffffffffffff8111156137a05761379f612d03565b5b6137ac87828801613083565b945050602085013567ffffffffffffffff8111156137cd576137cc612d03565b5b6137d987828801613146565b935050604085013567ffffffffffffffff8111156137fa576137f9612d03565b5b613806878288016132dc565b925050606085013567ffffffffffffffff81111561382757613826612d03565b5b6138338782880161373a565b91505092959194509250565b600061384a82612fbc565b9050919050565b600061385c8261383f565b9050919050565b61386c81613851565b811461387757600080fd5b50565b60008135905061388981613863565b92915050565b6000602082840312156138a5576138a4612cfe565b5b60006138b38482850161387a565b91505092915050565b60008083601f8401126138d2576138d1612f0b565b5b8235905067ffffffffffffffff8111156138ef576138ee6135f8565b5b60208301915083600182028301111561390b5761390a612fb7565b5b9250929050565b6000806000806060858703121561392c5761392b612cfe565b5b600061393a87828801613005565b945050602061394b87828801612e0e565b935050604085013567ffffffffffffffff81111561396c5761396b612d03565b5b613978878288016138bc565b925092505092959194509250565b61398f81612fdc565b82525050565b60006020820190506139aa6000830184613986565b92915050565b6139b98161330a565b82525050565b60006020820190506139d460008301846139b0565b92915050565b600080604083850312156139f1576139f0612cfe565b5b60006139ff85828601613005565b9250506020613a1085828601612e0e565b9150509250929050565b6000819050919050565b6000613a3f613a3a613a3584612fbc565b613a1a565b612fbc565b9050919050565b6000613a5182613a24565b9050919050565b6000613a6382613a46565b9050919050565b613a7381613a58565b82525050565b6000602082019050613a8e6000830184613a6a565b92915050565b7f476f7665726e6f723a206f6e6c79476f7665726e616e63650000000000000000600082015250565b6000613aca601883612e5b565b9150613ad582613a94565b602082019050919050565b60006020820190508181036000830152613af981613abd565b9050919050565b7f4e487b7100000000000000000000000000000000000000000000000000000000600052602260045260246000fd5b60006002820490506001821680613b4757607f821691505b602082108103613b5a57613b59613b00565b5b50919050565b7f476f7665726e6f723a2070726f706f73616c206e6f742073756363657373667560008201527f6c00000000000000000000000000000000000000000000000000000000000000602082015250565b6000613bbc602183612e5b565b9150613bc782613b60565b604082019050919050565b60006020820190508181036000830152613beb81613baf565b9050919050565b600081519050613c0181612df7565b92915050565b600060208284031215613c1d57613c1c612cfe565b5b6000613c2b84828501613bf2565b91505092915050565b600081519050919050565b600082825260208201905092915050565b6000819050602082019050919050565b613c6981612fdc565b82525050565b6000613c7b8383613c60565b60208301905092915050565b6000602082019050919050565b6000613c9f82613c34565b613ca98185613c3f565b9350613cb483613c50565b8060005b83811015613ce5578151613ccc8882613c6f565b9750613cd783613c87565b925050600181019050613cb8565b5085935050505092915050565b600081519050919050565b600082825260208201905092915050565b6000819050602082019050919050565b613d2781612dc3565b82525050565b6000613d398383613d1e565b60208301905092915050565b6000602082019050919050565b6000613d5d82613cf2565b613d678185613cfd565b9350613d7283613d0e565b8060005b83811015613da3578151613d8a8882613d2d565b9750613d9583613d45565b925050600181019050613d76565b5085935050505092915050565b600081519050919050565b600082825260208201905092915050565b6000819050602082019050919050565b600081519050919050565b600082825260208201905092915050565b6000613e0382613ddc565b613e0d8185613de7565b9350613e1d818560208601612e6c565b613e2681612e9f565b840191505092915050565b6000613e3d8383613df8565b905092915050565b6000602082019050919050565b6000613e5d82613db0565b613e678185613dbb565b935083602082028501613e7985613dcc565b8060005b85811015613eb55784840389528151613e968582613e31565b9450613ea183613e45565b925060208a01995050600181019050613e7d565b50829750879550505050505092915050565b6000819050919050565b60008160001b9050919050565b6000613ef9613ef4613eef84613ec7565b613ed1565b61330a565b9050919050565b613f0981613ede565b82525050565b600060a0820190508181036000830152613f298188613c94565b90508181036020830152613f3d8187613d52565b90508181036040830152613f518186613e52565b9050613f606060830185613f00565b613f6d60808301846139b0565b9695505050505050565b600081519050613f8681613314565b92915050565b600060208284031215613fa257613fa1612cfe565b5b6000613fb084828501613f77565b91505092915050565b600060c0820190508181036000830152613fd38189613c94565b90508181036020830152613fe78188613d52565b90508181036040830152613ffb8187613e52565b905061400a6060830186613f00565b61401760808301856139b0565b61402460a0830184612dcd565b979650505050505050565b7f4e487b7100000000000000000000000000000000000000000000000000000000600052601160045260246000fd5b600061406982612dc3565b915061407483612dc3565b9250827fffffffffffffffffffffffffffffffffffffffffffffffffffffffffffffffff038211156140a9576140a861402f565b5b828201905092915050565b60006040820190506140c96000830185612dcd565b6140d66020830184612dcd565b9392505050565b6140e6816133fb565b82525050565b600060608201905061410160008301866139b0565b61410e6020830185612dcd565b61411b60408301846140dd565b949350505050565b6000608082019050818103600083015261413d8187613c94565b905081810360208301526141518186613d52565b905081810360408301526141658185613e52565b905061417460608301846139b0565b95945050505050565b7f476f7665726e6f72566f74657351756f72756d4672616374696f6e3a2071756f60008201527f72756d4e756d657261746f72206f7665722071756f72756d44656e6f6d696e6160208201527f746f720000000000000000000000000000000000000000000000000000000000604082015250565b60006141ff604383612e5b565b915061420a8261417d565b606082019050919050565b6000602082019050818103600083015261422e816141f2565b9050919050565b7f476f7665726e6f723a20766f7465206e6f742063757272656e746c792061637460008201527f6976650000000000000000000000000000000000000000000000000000000000602082015250565b6000614291602383612e5b565b915061429c82614235565b604082019050919050565b600060208201905081810360008301526142c081614284565b9050919050565b60006080820190506142dc6000830187612dcd565b6142e960208301866140dd565b6142f66040830185612dcd565b81810360608301526143088184612eb0565b905095945050505050565b61431c81612d8d565b811461432757600080fd5b50565b60008151905061433981614313565b92915050565b60006020828403121561435557614354612cfe565b5b60006143638482850161432a565b91505092915050565b600061437782612dc3565b915061438283612dc3565b9250828210156143955761439461402f565b5b828203905092915050565b7f476f7665726e6f72436f6d7061746962696c697479427261766f3a2070726f7060008201527f6f73657220766f7465732062656c6f772070726f706f73616c2074687265736860208201527f6f6c640000000000000000000000000000000000000000000000000000000000604082015250565b6000614422604383612e5b565b915061442d826143a0565b606082019050919050565b6000602082019050818103600083015261445181614415565b9050919050565b7f476f7665726e6f723a20696e76616c69642070726f706f73616c206c656e677460008201527f6800000000000000000000000000000000000000000000000000000000000000602082015250565b60006144b4602183612e5b565b91506144bf82614458565b604082019050919050565b600060208201905081810360008301526144e3816144a7565b9050919050565b7f476f7665726e6f723a20656d7074792070726f706f73616c0000000000000000600082015250565b6000614520601883612e5b565b915061452b826144ea565b602082019050919050565b6000602082019050818103600083015261454f81614513565b9050919050565b7f476f7665726e6f723a2070726f706f73616c20616c726561647920657869737460008201527f7300000000000000000000000000000000000000000000000000000000000000602082015250565b60006145b2602183612e5b565b91506145bd82614556565b604082019050919050565b600060208201905081810360008301526145e1816145a5565b9050919050565b600067ffffffffffffffff82169050919050565b6000614607826145e8565b9150614612836145e8565b92508267ffffffffffffffff0382111561462f5761462e61402f565b5b828201905092915050565b600081519050919050565b600082825260208201905092915050565b6000819050602082019050919050565b600082825260208201905092915050565b600061468282612e50565b61468c8185614666565b935061469c818560208601612e6c565b6146a581612e9f565b840191505092915050565b60006146bc8383614677565b905092915050565b6000602082019050919050565b60006146dc8261463a565b6146e68185614645565b9350836020820285016146f885614656565b8060005b85811015614734578484038952815161471585826146b0565b9450614720836146c4565b925060208a019950506001810190506146fc565b50829750879550505050505092915050565b600061476161475c614757846145e8565b613a1a565b612dc3565b9050919050565b61477181614746565b82525050565b60006101208201905061478d600083018c612dcd565b61479a602083018b613986565b81810360408301526147ac818a613c94565b905081810360608301526147c08189613d52565b905081810360808301526147d481886146d1565b905081810360a08301526147e88187613e52565b90506147f760c0830186614768565b61480460e0830185614768565b8181036101008301526148178184612eb0565b90509a9950505050505050505050565b600060408201905061483c6000830185613986565b6148496020830184613986565b9392505050565b7f476f7665726e6f7253657474696e67733a20766f74696e6720706572696f642060008201527f746f6f206c6f7700000000000000000000000000000000000000000000000000602082015250565b60006148ac602783612e5b565b91506148b782614850565b604082019050919050565b600060208201905081810360008301526148db8161489f565b9050919050565b60006040820190506148f76000830185613986565b6149046020830184612dcd565b9392505050565b600061491682612dc3565b915061492183612dc3565b9250817fffffffffffffffffffffffffffffffffffffffffffffffffffffffffffffffff048311821515161561495a5761495961402f565b5b828202905092915050565b7f4e487b7100000000000000000000000000000000000000000000000000000000600052601260045260246000fd5b600061499f82612dc3565b91506149aa83612dc3565b9250826149ba576149b9614965565b5b828204905092915050565b600081905092915050565b7f1901000000000000000000000000000000000000000000000000000000000000600082015250565b6000614a066002836149c5565b9150614a11826149d0565b600282019050919050565b6000819050919050565b614a37614a328261330a565b614a1c565b82525050565b6000614a48826149f9565b9150614a548285614a26565b602082019150614a648284614a26565b6020820191508190509392505050565b6000608082019050614a8960008301876139b0565b614a9660208301866140dd565b614aa360408301856139b0565b614ab060608301846139b0565b95945050505050565b7f45434453413a20696e76616c6964207369676e61747572650000000000000000600082015250565b6000614aef601883612e5b565b9150614afa82614ab9565b602082019050919050565b60006020820190508181036000830152614b1e81614ae2565b9050919050565b7f45434453413a20696e76616c6964207369676e6174757265206c656e67746800600082015250565b6000614b5b601f83612e5b565b9150614b6682614b25565b602082019050919050565b60006020820190508181036000830152614b8a81614b4e565b9050919050565b7f45434453413a20696e76616c6964207369676e6174757265202773272076616c60008201527f7565000000000000000000000000000000000000000000000000000000000000602082015250565b6000614bed602283612e5b565b9150614bf882614b91565b604082019050919050565b60006020820190508181036000830152614c1c81614be0565b9050919050565b7f45434453413a20696e76616c6964207369676e6174757265202776272076616c60008201527f7565000000000000000000000000000000000000000000000000000000000000602082015250565b6000614c7f602283612e5b565b9150614c8a82614c23565b604082019050919050565b60006020820190508181036000830152614cae81614c72565b9050919050565b7f476f7665726e6f72566f74696e6753696d706c653a20766f746520616c72656160008201527f6479206361737400000000000000000000000000000000000000000000000000602082015250565b6000614d11602783612e5b565b9150614d1c82614cb5565b604082019050919050565b60006020820190508181036000830152614d4081614d04565b9050919050565b7f476f7665726e6f72566f74696e6753696d706c653a20696e76616c696420766160008201527f6c756520666f7220656e756d20566f7465547970650000000000000000000000602082015250565b6000614da3603583612e5b565b9150614dae82614d47565b604082019050919050565b60006020820190508181036000830152614dd281614d96565b9050919050565b7f476f7665726e6f723a20756e6b6e6f776e2070726f706f73616c206964000000600082015250565b6000614e0f601d83612e5b565b9150614e1a82614dd9565b602082019050919050565b60006020820190508181036000830152614e3e81614e02565b9050919050565b7f53616665436173743a2076616c756520646f65736e27742066697420696e203660008201527f3420626974730000000000000000000000000000000000000000000000000000602082015250565b6000614ea1602683612e5b565b9150614eac82614e45565b604082019050919050565b60006020820190508181036000830152614ed081614e94565b9050919050565b7f416464726573733a20696e73756666696369656e742062616c616e636520666f60008201527f722063616c6c0000000000000000000000000000000000000000000000000000602082015250565b6000614f33602683612e5b565b9150614f3e82614ed7565b604082019050919050565b60006020820190508181036000830152614f6281614f26565b9050919050565b7f416464726573733a2063616c6c20746f206e6f6e2d636f6e7472616374000000600082015250565b6000614f9f601d83612e5b565b9150614faa82614f69565b602082019050919050565b60006020820190508181036000830152614fce81614f92565b9050919050565b600081905092915050565b6000614feb82613ddc565b614ff58185614fd5565b9350615005818560208601612e6c565b80840191505092915050565b600061501d8284614fe0565b915081905092915050565b600060a08201905061503d60008301886139b0565b61504a60208301876139b0565b61505760408301866139b0565b6150646060830185612dcd565b6150716080830184613986565b969550505050505056fe416464726573733a206c6f772d6c6576656c2063616c6c20776974682076616c7565206661696c6564a2646970667358221220e03357797858602a9fd35a20065ac2a3536a81de0e2c22236e58d57283d8e2fe64736f6c634300080d0033",
  "immutableReferences": {
    "3191": [
      {
        "length": 32,
        "start": 5616
      },
      {
        "length": 32,
        "start": 8094
      },
      {
        "length": 32,
        "start": 8345
      }
    ],
    "6312": [
      {
        "length": 32,
        "start": 8935
      }
    ],
    "6314": [
      {
        "length": 32,
        "start": 8894
      }
    ],
    "6316": [
      {
        "length": 32,
        "start": 8808
      }
    ],
    "6318": [
      {
        "length": 32,
        "start": 9011
      }
    ],
    "6320": [
      {
        "length": 32,
        "start": 9044
      }
    ],
    "6322": [
      {
        "length": 32,
        "start": 8978
      }
    ]
  },
  "source": "// SPDX-License-Identifier: MIT\npragma solidity ^0.8.4;\n\nimport \"@openzeppelin/contracts/governance/Governor.sol\";\nimport \"@openzeppelin/contracts/governance/extensions/GovernorSettings.sol\";\nimport \"@openzeppelin/contracts/governance/extensions/GovernorCountingSimple.sol\";\nimport \"@openzeppelin/contracts/governance/extensions/GovernorVotes.sol\";\nimport \"@openzeppelin/contracts/governance/extensions/GovernorVotesQuorumFraction.sol\";\nimport \"@openzeppelin/contracts/governance/extensions/GovernorTimelockControl.sol\";\n\n/// @custom:security-contact eight@moret.io\ncontract PoolGovernor is Governor, GovernorSettings, GovernorCountingSimple, GovernorVotes, GovernorVotesQuorumFraction, GovernorTimelockControl {\n    constructor(address _token, address payable _timelock)\n        Governor(\"Pool\")\n        GovernorSettings(6570, 45818, 0)\n        GovernorVotes(IVotes(_token))\n        GovernorVotesQuorumFraction(4)\n        GovernorTimelockControl(TimelockController(_timelock))\n    {}\n\n    // The following functions are overrides required by Solidity.\n\n    function votingDelay()\n        public\n        view\n        override(IGovernor, GovernorSettings)\n        returns (uint256)\n    {\n        return super.votingDelay();\n    }\n\n    function votingPeriod()\n        public\n        view\n        override(IGovernor, GovernorSettings)\n        returns (uint256)\n    {\n        return super.votingPeriod();\n    }\n\n    function quorum(uint256 blockNumber)\n        public\n        view\n        override(IGovernor, GovernorVotesQuorumFraction)\n        returns (uint256)\n    {\n        return super.quorum(blockNumber);\n    }\n\n    function getVotes(address account, uint256 blockNumber)\n        public\n        view\n        override(IGovernor, GovernorVotes)\n        returns (uint256)\n    {\n        return super.getVotes(account, blockNumber);\n    }\n\n    function state(uint256 proposalId)\n        public\n        view\n        override(Governor, GovernorTimelockControl)\n        returns (ProposalState)\n    {\n        return super.state(proposalId);\n    }\n\n    function propose(address[] memory targets, uint256[] memory values, bytes[] memory calldatas, string memory description)\n        public\n        override(Governor, IGovernor)\n        returns (uint256)\n    {\n        return super.propose(targets, values, calldatas, description);\n    }\n\n    function proposalThreshold()\n        public\n        view\n        override(Governor, GovernorSettings)\n        returns (uint256)\n    {\n        return super.proposalThreshold();\n    }\n\n    function _execute(uint256 proposalId, address[] memory targets, uint256[] memory values, bytes[] memory calldatas, bytes32 descriptionHash)\n        internal\n        override(Governor, GovernorTimelockControl)\n    {\n        super._execute(proposalId, targets, values, calldatas, descriptionHash);\n    }\n\n    function _cancel(address[] memory targets, uint256[] memory values, bytes[] memory calldatas, bytes32 descriptionHash)\n        internal\n        override(Governor, GovernorTimelockControl)\n        returns (uint256)\n    {\n        return super._cancel(targets, values, calldatas, descriptionHash);\n    }\n\n    function _executor()\n        internal\n        view\n        override(Governor, GovernorTimelockControl)\n        returns (address)\n    {\n        return super._executor();\n    }\n\n    function supportsInterface(bytes4 interfaceId)\n        public\n        view\n        override(Governor, GovernorTimelockControl)\n        returns (bool)\n    {\n        return super.supportsInterface(interfaceId);\n    }\n}\n",
  "sourcePath": "/Users/mac/Documents/GitHub/moret/contracts/pools/PoolGovernor.sol",
  "compiler": {
    "name": "solc",
    "version": "0.8.13+commit.abaa5c0e.Emscripten.clang"
  },
  "schemaVersion": "3.4.3",
  "updatedAt": "2022-05-09T22:27:04.100Z",
  "devdoc": {
    "custom:security-contact": "eight@moret.io",
    "kind": "dev",
    "methods": {
      "COUNTING_MODE()": {
        "details": "See {IGovernor-COUNTING_MODE}."
      },
      "castVote(uint256,uint8)": {
        "details": "See {IGovernor-castVote}."
      },
      "castVoteBySig(uint256,uint8,uint8,bytes32,bytes32)": {
        "details": "See {IGovernor-castVoteBySig}."
      },
      "castVoteWithReason(uint256,uint8,string)": {
        "details": "See {IGovernor-castVoteWithReason}."
      },
      "execute(address[],uint256[],bytes[],bytes32)": {
        "details": "See {IGovernor-execute}."
      },
      "hasVoted(uint256,address)": {
        "details": "See {IGovernor-hasVoted}."
      },
      "hashProposal(address[],uint256[],bytes[],bytes32)": {
        "details": "See {IGovernor-hashProposal}. The proposal id is produced by hashing the RLC encoded `targets` array, the `values` array, the `calldatas` array and the descriptionHash (bytes32 which itself is the keccak256 hash of the description string). This proposal id can be produced from the proposal data which is part of the {ProposalCreated} event. It can even be computed in advance, before the proposal is submitted. Note that the chainId and the governor address are not part of the proposal id computation. Consequently, the same proposal (with same operation and same description) will have the same id if submitted on multiple governors accross multiple networks. This also means that in order to execute the same operation twice (on the same governor) the proposer will have to change the description in order to avoid proposal id conflicts."
      },
      "name()": {
        "details": "See {IGovernor-name}."
      },
      "proposalDeadline(uint256)": {
        "details": "See {IGovernor-proposalDeadline}."
      },
      "proposalEta(uint256)": {
        "details": "Public accessor to check the eta of a queued proposal"
      },
      "proposalSnapshot(uint256)": {
        "details": "See {IGovernor-proposalSnapshot}."
      },
      "proposalVotes(uint256)": {
        "details": "Accessor to the internal vote counts."
      },
      "queue(address[],uint256[],bytes[],bytes32)": {
        "details": "Function to queue a proposal to the timelock."
      },
      "quorumDenominator()": {
        "details": "Returns the quorum denominator. Defaults to 100, but may be overridden."
      },
      "quorumNumerator()": {
        "details": "Returns the current quorum numerator. See {quorumDenominator}."
      },
      "relay(address,uint256,bytes)": {
        "details": "Relays a transaction or function call to an arbitrary target. In cases where the governance executor is some contract other than the governor itself, like when using a timelock, this function can be invoked in a governance proposal to recover tokens or Ether that was sent to the governor contract by mistake. Note that if the executor is simply the governor itself, use of `relay` is redundant."
      },
      "setProposalThreshold(uint256)": {
        "details": "Update the proposal threshold. This operation can only be performed through a governance proposal. Emits a {ProposalThresholdSet} event."
      },
      "setVotingDelay(uint256)": {
        "details": "Update the voting delay. This operation can only be performed through a governance proposal. Emits a {VotingDelaySet} event."
      },
      "setVotingPeriod(uint256)": {
        "details": "Update the voting period. This operation can only be performed through a governance proposal. Emits a {VotingPeriodSet} event."
      },
      "timelock()": {
        "details": "Public accessor to check the address of the timelock"
      },
      "updateQuorumNumerator(uint256)": {
        "details": "Changes the quorum numerator. Emits a {QuorumNumeratorUpdated} event. Requirements: - Must be called through a governance proposal. - New numerator must be smaller or equal to the denominator."
      },
      "updateTimelock(address)": {
        "details": "Public endpoint to update the underlying timelock instance. Restricted to the timelock itself, so updates must be proposed, scheduled, and executed through governance proposals. CAUTION: It is not recommended to change the timelock while there are other queued governance proposals."
      },
      "version()": {
        "details": "See {IGovernor-version}."
      }
    },
    "version": 1
  },
  "userdoc": {
    "kind": "user",
    "methods": {},
    "version": 1
  }
}