{
  "contractName": "PoolFactory",
  "abi": [
    {
      "anonymous": false,
      "inputs": [
        {
          "indexed": false,
          "internalType": "address",
          "name": "pool",
          "type": "address"
        }
      ],
      "name": "PoolCreated",
      "type": "event"
    },
    {
      "inputs": [
        {
          "internalType": "bytes32",
          "name": "salt",
          "type": "bytes32"
        },
        {
          "internalType": "string",
          "name": "_name",
          "type": "string"
        },
        {
          "internalType": "string",
          "name": "_symbol",
          "type": "string"
        },
        {
          "internalType": "address",
          "name": "_marketMaker",
          "type": "address"
        }
      ],
      "name": "computeAddress",
      "outputs": [
        {
          "internalType": "address",
          "name": "",
          "type": "address"
        }
      ],
      "stateMutability": "view",
      "type": "function"
    },
    {
      "inputs": [
        {
          "internalType": "bytes32",
          "name": "salt",
          "type": "bytes32"
        },
        {
          "internalType": "string",
          "name": "_name",
          "type": "string"
        },
        {
          "internalType": "string",
          "name": "_symbol",
          "type": "string"
        },
        {
          "internalType": "address",
          "name": "_marketMaker",
          "type": "address"
        },
        {
          "internalType": "address",
          "name": "_timelock",
          "type": "address"
        },
        {
          "internalType": "address",
          "name": "_broker",
          "type": "address"
        }
      ],
      "name": "deploy",
      "outputs": [],
      "stateMutability": "nonpayable",
      "type": "function"
    },
    {
      "inputs": [
        {
          "internalType": "string",
          "name": "_name",
          "type": "string"
        },
        {
          "internalType": "string",
          "name": "_symbol",
          "type": "string"
        },
        {
          "internalType": "address",
          "name": "_marketMaker",
          "type": "address"
        }
      ],
      "name": "getCreationCode",
      "outputs": [
        {
          "internalType": "bytes",
          "name": "",
          "type": "bytes"
        }
      ],
      "stateMutability": "pure",
      "type": "function"
    }
  ],
  "bytecode": "0x608060405234801561001057600080fd5b50615b3b806100206000396000f3fe60806040523480156200001157600080fd5b5060043610620000465760003560e01c806317d1b508146200004b57806370bb27e31462000081578063c5ff1d4714620000a1575b600080fd5b6200006960048036038101906200006391906200068d565b620000d7565b604051620000789190620007ba565b60405180910390f35b6200009f600480360381019062000099919062000819565b620001cb565b005b620000bf6004803603810190620000b99190620008f3565b62000315565b604051620000ce9190620009b4565b60405180910390f35b6060600073ffffffffffffffffffffffffffffffffffffffff168273ffffffffffffffffffffffffffffffffffffffff16036200014b576040517f08c379a0000000000000000000000000000000000000000000000000000000008152600401620001429062000a32565b60405180910390fd5b6000604051806020016200015f90620004a4565b6020820181038252601f19601f820116604052509050808585856040516020016200018d9392919062000aa0565b604051602081830303815290604052604051602001620001af92919062000b2d565b6040516020818303038152906040529050809150509392505050565b6000620001da868686620000d7565b90506000620001ec6000898462000346565b905060008190508073ffffffffffffffffffffffffffffffffffffffff1663f2fde38b866040518263ffffffff1660e01b81526004016200022e9190620009b4565b600060405180830381600087803b1580156200024957600080fd5b505af11580156200025e573d6000803e3d6000fd5b505050508373ffffffffffffffffffffffffffffffffffffffff1663d914cd4b826040518263ffffffff1660e01b81526004016200029d919062000bc0565b600060405180830381600087803b158015620002b857600080fd5b505af1158015620002cd573d6000803e3d6000fd5b505050507f83a48fbcfc991335314e74d0496aab6a1987e992ddc85dddbcc4d6dd6ef2e9fc82604051620003029190620009b4565b60405180910390a1505050505050505050565b60008062000325858585620000d7565b8051906020012090506200033b8682306200045e565b915050949350505050565b600080844710156200038f576040517f08c379a0000000000000000000000000000000000000000000000000000000008152600401620003869062000c2d565b60405180910390fd5b6000835103620003d6576040517f08c379a0000000000000000000000000000000000000000000000000000000008152600401620003cd9062000c9f565b60405180910390fd5b8383516020850187f59050600073ffffffffffffffffffffffffffffffffffffffff168173ffffffffffffffffffffffffffffffffffffffff160362000453576040517f08c379a00000000000000000000000000000000000000000000000000000000081526004016200044a9062000d11565b60405180910390fd5b809150509392505050565b60008060ff60f81b8386866040516020016200047e949392919062000df9565b6040516020818303038152906040528051906020012090508060001c9150509392505050565b614cb68062000e5083390190565b6000604051905090565b600080fd5b600080fd5b600080fd5b600080fd5b6000601f19601f8301169050919050565b7f4e487b7100000000000000000000000000000000000000000000000000000000600052604160045260246000fd5b6200051b82620004d0565b810181811067ffffffffffffffff821117156200053d576200053c620004e1565b5b80604052505050565b600062000552620004b2565b905062000560828262000510565b919050565b600067ffffffffffffffff821115620005835762000582620004e1565b5b6200058e82620004d0565b9050602081019050919050565b82818337600083830152505050565b6000620005c1620005bb8462000565565b62000546565b905082815260208101848484011115620005e057620005df620004cb565b5b620005ed8482856200059b565b509392505050565b600082601f8301126200060d576200060c620004c6565b5b81356200061f848260208601620005aa565b91505092915050565b600073ffffffffffffffffffffffffffffffffffffffff82169050919050565b6000620006558262000628565b9050919050565b620006678162000648565b81146200067357600080fd5b50565b60008135905062000687816200065c565b92915050565b600080600060608486031215620006a957620006a8620004bc565b5b600084013567ffffffffffffffff811115620006ca57620006c9620004c1565b5b620006d886828701620005f5565b935050602084013567ffffffffffffffff811115620006fc57620006fb620004c1565b5b6200070a86828701620005f5565b92505060406200071d8682870162000676565b9150509250925092565b600081519050919050565b600082825260208201905092915050565b60005b838110156200076357808201518184015260208101905062000746565b8381111562000773576000848401525b50505050565b6000620007868262000727565b62000792818562000732565b9350620007a481856020860162000743565b620007af81620004d0565b840191505092915050565b60006020820190508181036000830152620007d6818462000779565b905092915050565b6000819050919050565b620007f381620007de565b8114620007ff57600080fd5b50565b6000813590506200081381620007e8565b92915050565b60008060008060008060c08789031215620008395762000838620004bc565b5b60006200084989828a0162000802565b965050602087013567ffffffffffffffff8111156200086d576200086c620004c1565b5b6200087b89828a01620005f5565b955050604087013567ffffffffffffffff8111156200089f576200089e620004c1565b5b620008ad89828a01620005f5565b9450506060620008c089828a0162000676565b9350506080620008d389828a0162000676565b92505060a0620008e689828a0162000676565b9150509295509295509295565b6000806000806080858703121562000910576200090f620004bc565b5b6000620009208782880162000802565b945050602085013567ffffffffffffffff811115620009445762000943620004c1565b5b6200095287828801620005f5565b935050604085013567ffffffffffffffff811115620009765762000975620004c1565b5b6200098487828801620005f5565b9250506060620009978782880162000676565b91505092959194509250565b620009ae8162000648565b82525050565b6000602082019050620009cb6000830184620009a3565b92915050565b600082825260208201905092915050565b7f5046304100000000000000000000000000000000000000000000000000000000600082015250565b600062000a1a600483620009d1565b915062000a2782620009e2565b602082019050919050565b6000602082019050818103600083015262000a4d8162000a0b565b9050919050565b600081519050919050565b600062000a6c8262000a54565b62000a788185620009d1565b935062000a8a81856020860162000743565b62000a9581620004d0565b840191505092915050565b6000606082019050818103600083015262000abc818662000a5f565b9050818103602083015262000ad2818562000a5f565b905062000ae36040830184620009a3565b949350505050565b600081905092915050565b600062000b038262000727565b62000b0f818562000aeb565b935062000b2181856020860162000743565b80840191505092915050565b600062000b3b828562000af6565b915062000b49828462000af6565b91508190509392505050565b6000819050919050565b600062000b8062000b7a62000b748462000628565b62000b55565b62000628565b9050919050565b600062000b948262000b5f565b9050919050565b600062000ba88262000b87565b9050919050565b62000bba8162000b9b565b82525050565b600060208201905062000bd7600083018462000baf565b92915050565b7f437265617465323a20696e73756666696369656e742062616c616e6365000000600082015250565b600062000c15601d83620009d1565b915062000c228262000bdd565b602082019050919050565b6000602082019050818103600083015262000c488162000c06565b9050919050565b7f437265617465323a2062797465636f6465206c656e677468206973207a65726f600082015250565b600062000c87602083620009d1565b915062000c948262000c4f565b602082019050919050565b6000602082019050818103600083015262000cba8162000c78565b9050919050565b7f437265617465323a204661696c6564206f6e206465706c6f7900000000000000600082015250565b600062000cf9601983620009d1565b915062000d068262000cc1565b602082019050919050565b6000602082019050818103600083015262000d2c8162000cea565b9050919050565b60007fff0000000000000000000000000000000000000000000000000000000000000082169050919050565b6000819050919050565b62000d7e62000d788262000d33565b62000d5f565b82525050565b60008160601b9050919050565b600062000d9e8262000d84565b9050919050565b600062000db28262000d91565b9050919050565b62000dce62000dc88262000648565b62000da5565b82525050565b6000819050919050565b62000df362000ded82620007de565b62000dd4565b82525050565b600062000e07828762000d69565b60018201915062000e19828662000db9565b60148201915062000e2b828562000dde565b60208201915062000e3d828462000dde565b6020820191508190509594505050505056fe6101a06040527f6e71edae12b1b97f4d1f60370fef10105fa2faae0126114a169c64845d6126c9610140908152506611c37937e08000600a556706f05b59d3b20000600b553480156200005157600080fd5b5060405162004cb638038062004cb68339818101604052810190620000779190620006d1565b82806040518060400160405280600181526020017f310000000000000000000000000000000000000000000000000000000000000081525085858160039080519060200190620000c99291906200041f565b508060049080519060200190620000e29291906200041f565b50505060008280519060200120905060008280519060200120905060007f8b73c3c69bb8fe3d512ecc4cf759cc79239f7b179b0ffacaa9a75d522b39400f90508260e081815250508161010081815250504660a081815250506200014e8184846200031560201b60201c565b608081815250503073ffffffffffffffffffffffffffffffffffffffff1660c08173ffffffffffffffffffffffffffffffffffffffff1681525050806101208181525050505050505050620001b8620001ac6200035160201b60201c565b6200035960201b60201c565b8073ffffffffffffffffffffffffffffffffffffffff166101808173ffffffffffffffffffffffffffffffffffffffff16815250506101805173ffffffffffffffffffffffffffffffffffffffff1663c0a16f6a6040518163ffffffff1660e01b8152600401602060405180830381865afa1580156200023c573d6000803e3d6000fd5b505050506040513d601f19601f82011682018060405250810190620002629190620007b0565b506101805173ffffffffffffffffffffffffffffffffffffffff1663d2f7265a6040518163ffffffff1660e01b8152600401602060405180830381865afa158015620002b2573d6000803e3d6000fd5b505050506040513d601f19601f82011682018060405250810190620002d89190620007e2565b73ffffffffffffffffffffffffffffffffffffffff166101608173ffffffffffffffffffffffffffffffffffffffff16815250505050506200091c565b60008383834630604051602001620003329594939291906200085b565b6040516020818303038152906040528051906020012090509392505050565b600033905090565b6000600960009054906101000a900473ffffffffffffffffffffffffffffffffffffffff16905081600960006101000a81548173ffffffffffffffffffffffffffffffffffffffff021916908373ffffffffffffffffffffffffffffffffffffffff1602179055508173ffffffffffffffffffffffffffffffffffffffff168173ffffffffffffffffffffffffffffffffffffffff167f8be0079c531659141344cd1fd0a4f28419497f9722a3daafe3b4186f6b6457e060405160405180910390a35050565b8280546200042d90620008e7565b90600052602060002090601f0160209004810192826200045157600085556200049d565b82601f106200046c57805160ff19168380011785556200049d565b828001600101855582156200049d579182015b828111156200049c5782518255916020019190600101906200047f565b5b509050620004ac9190620004b0565b5090565b5b80821115620004cb576000816000905550600101620004b1565b5090565b6000604051905090565b600080fd5b600080fd5b600080fd5b600080fd5b6000601f19601f8301169050919050565b7f4e487b7100000000000000000000000000000000000000000000000000000000600052604160045260246000fd5b6200053882620004ed565b810181811067ffffffffffffffff821117156200055a5762000559620004fe565b5b80604052505050565b60006200056f620004cf565b90506200057d82826200052d565b919050565b600067ffffffffffffffff821115620005a0576200059f620004fe565b5b620005ab82620004ed565b9050602081019050919050565b60005b83811015620005d8578082015181840152602081019050620005bb565b83811115620005e8576000848401525b50505050565b600062000605620005ff8462000582565b62000563565b905082815260208101848484011115620006245762000623620004e8565b5b62000631848285620005b8565b509392505050565b600082601f830112620006515762000650620004e3565b5b815162000663848260208601620005ee565b91505092915050565b600073ffffffffffffffffffffffffffffffffffffffff82169050919050565b600062000699826200066c565b9050919050565b620006ab816200068c565b8114620006b757600080fd5b50565b600081519050620006cb81620006a0565b92915050565b600080600060608486031215620006ed57620006ec620004d9565b5b600084015167ffffffffffffffff8111156200070e576200070d620004de565b5b6200071c8682870162000639565b935050602084015167ffffffffffffffff81111562000740576200073f620004de565b5b6200074e8682870162000639565b92505060406200076186828701620006ba565b9150509250925092565b600062000778826200068c565b9050919050565b6200078a816200076b565b81146200079657600080fd5b50565b600081519050620007aa816200077f565b92915050565b600060208284031215620007c957620007c8620004d9565b5b6000620007d98482850162000799565b91505092915050565b600060208284031215620007fb57620007fa620004d9565b5b60006200080b84828501620006ba565b91505092915050565b6000819050919050565b620008298162000814565b82525050565b6000819050919050565b62000844816200082f565b82525050565b62000855816200068c565b82525050565b600060a0820190506200087260008301886200081e565b6200088160208301876200081e565b6200089060408301866200081e565b6200089f606083018562000839565b620008ae60808301846200084a565b9695505050505050565b7f4e487b7100000000000000000000000000000000000000000000000000000000600052602260045260246000fd5b600060028204905060018216806200090057607f821691505b602082108103620009165762000915620008b8565b5b50919050565b60805160a05160c05160e051610100516101205161014051610160516101805161431b6200099b60003960006107560152600081816108ff01528181610d790152610ff60152600061105f01526000611a4f01526000611a9101526000611a70015260006119a5015260006119fb01526000611a24015261431b6000f3fe608060405234801561001057600080fd5b50600436106101f05760003560e01c80637ecebe001161010f578063c3cda520116100a2578063dd62ed3e11610071578063dd62ed3e146105f7578063df95c3a714610627578063f1127ed814610643578063f2fde38b14610673576101f0565b8063c3cda52014610583578063d1c699aa1461059f578063d2f7265a146105bd578063d505accf146105db576101f0565b80639ab24eb0116100de5780639ab24eb0146104d75780639dc29fac14610507578063a457c2d714610523578063a9059cbb14610553576101f0565b80637ecebe001461043b5780638da5cb5b1461046b5780638e539e8c1461048957806395d89b41146104b9576101f0565b806339509351116101875780635c19a95c116101565780635c19a95c146103b55780636fcfff45146103d157806370a0823114610401578063715018a614610431576101f0565b806339509351146103095780633a46b1a81461033957806340c10f1914610369578063587cde1e14610385576101f0565b80631f21f9af116101c35780631f21f9af1461027f57806323b872dd1461029d578063313ce567146102cd5780633644e515146102eb576101f0565b806306fdde03146101f5578063095ea7b3146102135780630f9026181461024357806318160ddd14610261575b600080fd5b6101fd61068f565b60405161020a9190612c70565b60405180910390f35b61022d60048036038101906102289190612d2b565b610721565b60405161023a9190612d86565b60405180910390f35b61024b610744565b6040516102589190612db0565b60405180910390f35b61026961074a565b6040516102769190612db0565b60405180910390f35b610287610754565b6040516102949190612e2a565b60405180910390f35b6102b760048036038101906102b29190612e45565b610778565b6040516102c49190612d86565b60405180910390f35b6102d56107a7565b6040516102e29190612eb4565b60405180910390f35b6102f36107b0565b6040516103009190612ee8565b60405180910390f35b610323600480360381019061031e9190612d2b565b6107bf565b6040516103309190612d86565b60405180910390f35b610353600480360381019061034e9190612d2b565b610869565b6040516103609190612db0565b60405180910390f35b610383600480360381019061037e9190612d2b565b6108fd565b005b61039f600480360381019061039a9190612f03565b610963565b6040516103ac9190612f3f565b60405180910390f35b6103cf60048036038101906103ca9190612f03565b6109cc565b005b6103eb60048036038101906103e69190612f03565b6109e0565b6040516103f89190612f79565b60405180910390f35b61041b60048036038101906104169190612f03565b610a34565b6040516104289190612db0565b60405180910390f35b610439610a7c565b005b61045560048036038101906104509190612f03565b610b04565b6040516104629190612db0565b60405180910390f35b610473610b54565b6040516104809190612f3f565b60405180910390f35b6104a3600480360381019061049e9190612f94565b610b7e565b6040516104b09190612db0565b60405180910390f35b6104c1610bd4565b6040516104ce9190612c70565b60405180910390f35b6104f160048036038101906104ec9190612f03565b610c66565b6040516104fe9190612db0565b60405180910390f35b610521600480360381019061051c9190612d2b565b610d77565b005b61053d60048036038101906105389190612d2b565b610ddd565b60405161054a9190612d86565b60405180910390f35b61056d60048036038101906105689190612d2b565b610ec7565b60405161057a9190612d86565b60405180910390f35b61059d60048036038101906105989190613019565b610eea565b005b6105a7610fee565b6040516105b49190612db0565b60405180910390f35b6105c5610ff4565b6040516105d29190612f3f565b60405180910390f35b6105f560048036038101906105f091906130a6565b611018565b005b610611600480360381019061060c9190613148565b61115a565b60405161061e9190612db0565b60405180910390f35b610641600480360381019061063c9190613188565b6111e1565b005b61065d600480360381019061065891906131f4565b6112be565b60405161066a91906132a9565b60405180910390f35b61068d60048036038101906106889190612f03565b6113ce565b005b60606003805461069e906132f3565b80601f01602080910402602001604051908101604052809291908181526020018280546106ca906132f3565b80156107175780601f106106ec57610100808354040283529160200191610717565b820191906000526020600020905b8154815290600101906020018083116106fa57829003601f168201915b5050505050905090565b60008061072c6114c5565b90506107398185856114cd565b600191505092915050565b600b5481565b6000600254905090565b7f000000000000000000000000000000000000000000000000000000000000000081565b6000806107836114c5565b9050610790858285611696565b61079b858585611722565b60019150509392505050565b60006012905090565b60006107ba6119a1565b905090565b6000806107ca6114c5565b905061085e818585600160008673ffffffffffffffffffffffffffffffffffffffff1673ffffffffffffffffffffffffffffffffffffffff16815260200190815260200160002060008973ffffffffffffffffffffffffffffffffffffffff1673ffffffffffffffffffffffffffffffffffffffff168152602001908152602001600020546108599190613353565b6114cd565b600191505092915050565b60004382106108ad576040517f08c379a00000000000000000000000000000000000000000000000000000000081526004016108a4906133f5565b60405180910390fd5b6108f5600760008573ffffffffffffffffffffffffffffffffffffffff1673ffffffffffffffffffffffffffffffffffffffff16815260200190815260200160002083611abb565b905092915050565b7f000000000000000000000000000000000000000000000000000000000000000073ffffffffffffffffffffffffffffffffffffffff163373ffffffffffffffffffffffffffffffffffffffff161461095557600080fd5b61095f8282611bc7565b5050565b6000600660008373ffffffffffffffffffffffffffffffffffffffff1673ffffffffffffffffffffffffffffffffffffffff16815260200190815260200160002060009054906101000a900473ffffffffffffffffffffffffffffffffffffffff169050919050565b6109dd6109d76114c5565b82611bd5565b50565b6000610a2d600760008473ffffffffffffffffffffffffffffffffffffffff1673ffffffffffffffffffffffffffffffffffffffff16815260200190815260200160002080549050611cef565b9050919050565b60008060008373ffffffffffffffffffffffffffffffffffffffff1673ffffffffffffffffffffffffffffffffffffffff168152602001908152602001600020549050919050565b610a846114c5565b73ffffffffffffffffffffffffffffffffffffffff16610aa2610b54565b73ffffffffffffffffffffffffffffffffffffffff1614610af8576040517f08c379a0000000000000000000000000000000000000000000000000000000008152600401610aef90613461565b60405180910390fd5b610b026000611d42565b565b6000610b4d600560008473ffffffffffffffffffffffffffffffffffffffff1673ffffffffffffffffffffffffffffffffffffffff168152602001908152602001600020611e08565b9050919050565b6000600960009054906101000a900473ffffffffffffffffffffffffffffffffffffffff16905090565b6000438210610bc2576040517f08c379a0000000000000000000000000000000000000000000000000000000008152600401610bb9906133f5565b60405180910390fd5b610bcd600883611abb565b9050919050565b606060048054610be3906132f3565b80601f0160208091040260200160405190810160405280929190818152602001828054610c0f906132f3565b8015610c5c5780601f10610c3157610100808354040283529160200191610c5c565b820191906000526020600020905b815481529060010190602001808311610c3f57829003601f168201915b5050505050905090565b600080600760008473ffffffffffffffffffffffffffffffffffffffff1673ffffffffffffffffffffffffffffffffffffffff16815260200190815260200160002080549050905060008114610d4e57600760008473ffffffffffffffffffffffffffffffffffffffff1673ffffffffffffffffffffffffffffffffffffffff168152602001908152602001600020600182610d029190613481565b81548110610d1357610d126134b5565b5b9060005260206000200160000160049054906101000a90047bffffffffffffffffffffffffffffffffffffffffffffffffffffffff16610d51565b60005b7bffffffffffffffffffffffffffffffffffffffffffffffffffffffff16915050919050565b7f000000000000000000000000000000000000000000000000000000000000000073ffffffffffffffffffffffffffffffffffffffff163373ffffffffffffffffffffffffffffffffffffffff1614610dcf57600080fd5b610dd98282611e16565b5050565b600080610de86114c5565b90506000600160008373ffffffffffffffffffffffffffffffffffffffff1673ffffffffffffffffffffffffffffffffffffffff16815260200190815260200160002060008673ffffffffffffffffffffffffffffffffffffffff1673ffffffffffffffffffffffffffffffffffffffff16815260200190815260200160002054905083811015610eae576040517f08c379a0000000000000000000000000000000000000000000000000000000008152600401610ea590613556565b60405180910390fd5b610ebb82868684036114cd565b60019250505092915050565b600080610ed26114c5565b9050610edf818585611722565b600191505092915050565b83421115610f2d576040517f08c379a0000000000000000000000000000000000000000000000000000000008152600401610f24906135c2565b60405180910390fd5b6000610f8f610f877fe48329057bfd03d55e49b547132e39cffd9c1820ad7b9d4c5307691425d15adf898989604051602001610f6c94939291906135e2565b60405160208183030381529060405280519060200120611e24565b858585611e3e565b9050610f9a81611e69565b8614610fdb576040517f08c379a0000000000000000000000000000000000000000000000000000000008152600401610fd290613673565b60405180910390fd5b610fe58188611bd5565b50505050505050565b600a5481565b7f000000000000000000000000000000000000000000000000000000000000000081565b8342111561105b576040517f08c379a0000000000000000000000000000000000000000000000000000000008152600401611052906136df565b60405180910390fd5b60007f000000000000000000000000000000000000000000000000000000000000000088888861108a8c611e69565b896040516020016110a0969594939291906136ff565b60405160208183030381529060405280519060200120905060006110c382611e24565b905060006110d382878787611e3e565b90508973ffffffffffffffffffffffffffffffffffffffff168173ffffffffffffffffffffffffffffffffffffffff1614611143576040517f08c379a000000000000000000000000000000000000000000000000000000000815260040161113a906137ac565b60405180910390fd5b61114e8a8a8a6114cd565b50505050505050505050565b6000600160008473ffffffffffffffffffffffffffffffffffffffff1673ffffffffffffffffffffffffffffffffffffffff16815260200190815260200160002060008373ffffffffffffffffffffffffffffffffffffffff1673ffffffffffffffffffffffffffffffffffffffff16815260200190815260200160002054905092915050565b6111e96114c5565b73ffffffffffffffffffffffffffffffffffffffff16611207610b54565b73ffffffffffffffffffffffffffffffffffffffff161461125d576040517f08c379a000000000000000000000000000000000000000000000000000000000815260040161125490613461565b60405180910390fd5b600182036112715780600a81905550611282565b600282036112815780600b819055505b5b817f1f77a5f1218c5e380f0425a2e88a823d831b5f8906f5ab4db8b1565a36f780d7826040516112b29190612db0565b60405180910390a25050565b6112c6612b99565b600760008473ffffffffffffffffffffffffffffffffffffffff1673ffffffffffffffffffffffffffffffffffffffff1681526020019081526020016000208263ffffffff168154811061131d5761131c6134b5565b5b906000526020600020016040518060400160405290816000820160009054906101000a900463ffffffff1663ffffffff1663ffffffff1681526020016000820160049054906101000a90047bffffffffffffffffffffffffffffffffffffffffffffffffffffffff167bffffffffffffffffffffffffffffffffffffffffffffffffffffffff167bffffffffffffffffffffffffffffffffffffffffffffffffffffffff1681525050905092915050565b6113d66114c5565b73ffffffffffffffffffffffffffffffffffffffff166113f4610b54565b73ffffffffffffffffffffffffffffffffffffffff161461144a576040517f08c379a000000000000000000000000000000000000000000000000000000000815260040161144190613461565b60405180910390fd5b600073ffffffffffffffffffffffffffffffffffffffff168173ffffffffffffffffffffffffffffffffffffffff16036114b9576040517f08c379a00000000000000000000000000000000000000000000000000000000081526004016114b09061383e565b60405180910390fd5b6114c281611d42565b50565b600033905090565b600073ffffffffffffffffffffffffffffffffffffffff168373ffffffffffffffffffffffffffffffffffffffff160361153c576040517f08c379a0000000000000000000000000000000000000000000000000000000008152600401611533906138d0565b60405180910390fd5b600073ffffffffffffffffffffffffffffffffffffffff168273ffffffffffffffffffffffffffffffffffffffff16036115ab576040517f08c379a00000000000000000000000000000000000000000000000000000000081526004016115a290613962565b60405180910390fd5b80600160008573ffffffffffffffffffffffffffffffffffffffff1673ffffffffffffffffffffffffffffffffffffffff16815260200190815260200160002060008473ffffffffffffffffffffffffffffffffffffffff1673ffffffffffffffffffffffffffffffffffffffff168152602001908152602001600020819055508173ffffffffffffffffffffffffffffffffffffffff168373ffffffffffffffffffffffffffffffffffffffff167f8c5be1e5ebec7d5bd14f71427d1e84f3dd0314c0f7b2291e5b200ac8c7c3b925836040516116899190612db0565b60405180910390a3505050565b60006116a2848461115a565b90507fffffffffffffffffffffffffffffffffffffffffffffffffffffffffffffffff811461171c578181101561170e576040517f08c379a0000000000000000000000000000000000000000000000000000000008152600401611705906139ce565b60405180910390fd5b61171b84848484036114cd565b5b50505050565b600073ffffffffffffffffffffffffffffffffffffffff168373ffffffffffffffffffffffffffffffffffffffff1603611791576040517f08c379a000000000000000000000000000000000000000000000000000000000815260040161178890613a60565b60405180910390fd5b600073ffffffffffffffffffffffffffffffffffffffff168273ffffffffffffffffffffffffffffffffffffffff1603611800576040517f08c379a00000000000000000000000000000000000000000000000000000000081526004016117f790613af2565b60405180910390fd5b61180b838383611ec7565b60008060008573ffffffffffffffffffffffffffffffffffffffff1673ffffffffffffffffffffffffffffffffffffffff16815260200190815260200160002054905081811015611891576040517f08c379a000000000000000000000000000000000000000000000000000000000815260040161188890613b84565b60405180910390fd5b8181036000808673ffffffffffffffffffffffffffffffffffffffff1673ffffffffffffffffffffffffffffffffffffffff16815260200190815260200160002081905550816000808573ffffffffffffffffffffffffffffffffffffffff1673ffffffffffffffffffffffffffffffffffffffff16815260200190815260200160002060008282546119249190613353565b925050819055508273ffffffffffffffffffffffffffffffffffffffff168473ffffffffffffffffffffffffffffffffffffffff167fddf252ad1be2c89b69c2b068fc378daa952ba7f163c4a11628f55a4df523b3ef846040516119889190612db0565b60405180910390a361199b848484611ecc565b50505050565b60007f000000000000000000000000000000000000000000000000000000000000000073ffffffffffffffffffffffffffffffffffffffff163073ffffffffffffffffffffffffffffffffffffffff16148015611a1d57507f000000000000000000000000000000000000000000000000000000000000000046145b15611a4a577f00000000000000000000000000000000000000000000000000000000000000009050611ab8565b611ab57f00000000000000000000000000000000000000000000000000000000000000007f00000000000000000000000000000000000000000000000000000000000000007f0000000000000000000000000000000000000000000000000000000000000000611edc565b90505b90565b6000808380549050905060005b81811015611b3a576000611adc8284611f16565b905084868281548110611af257611af16134b5565b5b9060005260206000200160000160009054906101000a900463ffffffff1663ffffffff161115611b2457809250611b34565b600181611b319190613353565b91505b50611ac8565b60008214611b9c5784600183611b509190613481565b81548110611b6157611b606134b5565b5b9060005260206000200160000160049054906101000a90047bffffffffffffffffffffffffffffffffffffffffffffffffffffffff16611b9f565b60005b7bffffffffffffffffffffffffffffffffffffffffffffffffffffffff169250505092915050565b611bd18282611f3c565b5050565b6000611be083610963565b90506000611bed84610a34565b905082600660008673ffffffffffffffffffffffffffffffffffffffff1673ffffffffffffffffffffffffffffffffffffffff16815260200190815260200160002060006101000a81548173ffffffffffffffffffffffffffffffffffffffff021916908373ffffffffffffffffffffffffffffffffffffffff1602179055508273ffffffffffffffffffffffffffffffffffffffff168273ffffffffffffffffffffffffffffffffffffffff168573ffffffffffffffffffffffffffffffffffffffff167f3134e8a2e6d97e929a7e54011ea5485d7d196dd5f0ba4d4ef95803e8e3fc257f60405160405180910390a4611ce9828483611fc9565b50505050565b600063ffffffff8016821115611d3a576040517f08c379a0000000000000000000000000000000000000000000000000000000008152600401611d3190613c16565b60405180910390fd5b819050919050565b6000600960009054906101000a900473ffffffffffffffffffffffffffffffffffffffff16905081600960006101000a81548173ffffffffffffffffffffffffffffffffffffffff021916908373ffffffffffffffffffffffffffffffffffffffff1602179055508173ffffffffffffffffffffffffffffffffffffffff168173ffffffffffffffffffffffffffffffffffffffff167f8be0079c531659141344cd1fd0a4f28419497f9722a3daafe3b4186f6b6457e060405160405180910390a35050565b600081600001549050919050565b611e2082826121c2565b5050565b6000611e37611e316119a1565b836121e0565b9050919050565b6000806000611e4f87878787612213565b91509150611e5c8161231f565b8192505050949350505050565b600080600560008473ffffffffffffffffffffffffffffffffffffffff1673ffffffffffffffffffffffffffffffffffffffff1681526020019081526020016000209050611eb681611e08565b9150611ec1816124eb565b50919050565b505050565b611ed7838383612501565b505050565b60008383834630604051602001611ef7959493929190613c36565b6040516020818303038152906040528051906020012090509392505050565b60006002828418611f279190613cb8565b828416611f349190613353565b905092915050565b611f46828261252c565b611f4e61268b565b7bffffffffffffffffffffffffffffffffffffffffffffffffffffffff16611f7461074a565b1115611fb5576040517f08c379a0000000000000000000000000000000000000000000000000000000008152600401611fac90613d5b565b60405180910390fd5b611fc360086126af836126c5565b50505050565b8173ffffffffffffffffffffffffffffffffffffffff168373ffffffffffffffffffffffffffffffffffffffff16141580156120055750600081115b156121bd57600073ffffffffffffffffffffffffffffffffffffffff168373ffffffffffffffffffffffffffffffffffffffff16146120e35760008061208c600760008773ffffffffffffffffffffffffffffffffffffffff1673ffffffffffffffffffffffffffffffffffffffff16815260200190815260200160002061293d856126c5565b915091508473ffffffffffffffffffffffffffffffffffffffff167fdec2bacdd2f05b59de34da9b523dff8be42e5e38e818c82fdb0bae774387a72483836040516120d8929190613d7b565b60405180910390a250505b600073ffffffffffffffffffffffffffffffffffffffff168273ffffffffffffffffffffffffffffffffffffffff16146121bc57600080612165600760008673ffffffffffffffffffffffffffffffffffffffff1673ffffffffffffffffffffffffffffffffffffffff1681526020019081526020016000206126af856126c5565b915091508373ffffffffffffffffffffffffffffffffffffffff167fdec2bacdd2f05b59de34da9b523dff8be42e5e38e818c82fdb0bae774387a72483836040516121b1929190613d7b565b60405180910390a250505b5b505050565b6121cc8282612953565b6121da600861293d836126c5565b50505050565b600082826040516020016121f5929190613e1c565b60405160208183030381529060405280519060200120905092915050565b6000807f7fffffffffffffffffffffffffffffff5d576e7357a4501ddfe92f46681b20a08360001c111561224e576000600391509150612316565b601b8560ff16141580156122665750601c8560ff1614155b15612278576000600491509150612316565b60006001878787876040516000815260200160405260405161229d9493929190613e53565b6020604051602081039080840390855afa1580156122bf573d6000803e3d6000fd5b505050602060405103519050600073ffffffffffffffffffffffffffffffffffffffff168173ffffffffffffffffffffffffffffffffffffffff160361230d57600060019250925050612316565b80600092509250505b94509492505050565b6000600481111561233357612332613e98565b5b81600481111561234657612345613e98565b5b03156124e857600160048111156123605761235f613e98565b5b81600481111561237357612372613e98565b5b036123b3576040517f08c379a00000000000000000000000000000000000000000000000000000000081526004016123aa90613f13565b60405180910390fd5b600260048111156123c7576123c6613e98565b5b8160048111156123da576123d9613e98565b5b0361241a576040517f08c379a000000000000000000000000000000000000000000000000000000000815260040161241190613f7f565b60405180910390fd5b6003600481111561242e5761242d613e98565b5b81600481111561244157612440613e98565b5b03612481576040517f08c379a000000000000000000000000000000000000000000000000000000000815260040161247890614011565b60405180910390fd5b60048081111561249457612493613e98565b5b8160048111156124a7576124a6613e98565b5b036124e7576040517f08c379a00000000000000000000000000000000000000000000000000000000081526004016124de906140a3565b60405180910390fd5b5b50565b6001816000016000828254019250508190555050565b61250c838383612b29565b61252761251884610963565b61252184610963565b83611fc9565b505050565b600073ffffffffffffffffffffffffffffffffffffffff168273ffffffffffffffffffffffffffffffffffffffff160361259b576040517f08c379a00000000000000000000000000000000000000000000000000000000081526004016125929061410f565b60405180910390fd5b6125a760008383611ec7565b80600260008282546125b99190613353565b92505081905550806000808473ffffffffffffffffffffffffffffffffffffffff1673ffffffffffffffffffffffffffffffffffffffff168152602001908152602001600020600082825461260e9190613353565b925050819055508173ffffffffffffffffffffffffffffffffffffffff16600073ffffffffffffffffffffffffffffffffffffffff167fddf252ad1be2c89b69c2b068fc378daa952ba7f163c4a11628f55a4df523b3ef836040516126739190612db0565b60405180910390a361268760008383611ecc565b5050565b60007bffffffffffffffffffffffffffffffffffffffffffffffffffffffff905090565b600081836126bd9190613353565b905092915050565b6000806000858054905090506000811461273357856001826126e79190613481565b815481106126f8576126f76134b5565b5b9060005260206000200160000160049054906101000a90047bffffffffffffffffffffffffffffffffffffffffffffffffffffffff16612736565b60005b7bffffffffffffffffffffffffffffffffffffffffffffffffffffffff16925061276483858763ffffffff16565b91506000811180156127b7575043866001836127809190613481565b81548110612791576127906134b5565b5b9060005260206000200160000160009054906101000a900463ffffffff1663ffffffff16145b15612844576127c582612b2e565b866001836127d39190613481565b815481106127e4576127e36134b5565b5b9060005260206000200160000160046101000a8154817bffffffffffffffffffffffffffffffffffffffffffffffffffffffff02191690837bffffffffffffffffffffffffffffffffffffffffffffffffffffffff160217905550612934565b85604051806040016040528061285943611cef565b63ffffffff16815260200161286d85612b2e565b7bffffffffffffffffffffffffffffffffffffffffffffffffffffffff168152509080600181540180825580915050600190039060005260206000200160009091909190915060008201518160000160006101000a81548163ffffffff021916908363ffffffff16021790555060208201518160000160046101000a8154817bffffffffffffffffffffffffffffffffffffffffffffffffffffffff02191690837bffffffffffffffffffffffffffffffffffffffffffffffffffffffff16021790555050505b50935093915050565b6000818361294b9190613481565b905092915050565b600073ffffffffffffffffffffffffffffffffffffffff168273ffffffffffffffffffffffffffffffffffffffff16036129c2576040517f08c379a00000000000000000000000000000000000000000000000000000000081526004016129b9906141a1565b60405180910390fd5b6129ce82600083611ec7565b60008060008473ffffffffffffffffffffffffffffffffffffffff1673ffffffffffffffffffffffffffffffffffffffff16815260200190815260200160002054905081811015612a54576040517f08c379a0000000000000000000000000000000000000000000000000000000008152600401612a4b90614233565b60405180910390fd5b8181036000808573ffffffffffffffffffffffffffffffffffffffff1673ffffffffffffffffffffffffffffffffffffffff168152602001908152602001600020819055508160026000828254612aab9190613481565b92505081905550600073ffffffffffffffffffffffffffffffffffffffff168373ffffffffffffffffffffffffffffffffffffffff167fddf252ad1be2c89b69c2b068fc378daa952ba7f163c4a11628f55a4df523b3ef84604051612b109190612db0565b60405180910390a3612b2483600084611ecc565b505050565b505050565b60007bffffffffffffffffffffffffffffffffffffffffffffffffffffffff8016821115612b91576040517f08c379a0000000000000000000000000000000000000000000000000000000008152600401612b88906142c5565b60405180910390fd5b819050919050565b6040518060400160405280600063ffffffff16815260200160007bffffffffffffffffffffffffffffffffffffffffffffffffffffffff1681525090565b600081519050919050565b600082825260208201905092915050565b60005b83811015612c11578082015181840152602081019050612bf6565b83811115612c20576000848401525b50505050565b6000601f19601f8301169050919050565b6000612c4282612bd7565b612c4c8185612be2565b9350612c5c818560208601612bf3565b612c6581612c26565b840191505092915050565b60006020820190508181036000830152612c8a8184612c37565b905092915050565b600080fd5b600073ffffffffffffffffffffffffffffffffffffffff82169050919050565b6000612cc282612c97565b9050919050565b612cd281612cb7565b8114612cdd57600080fd5b50565b600081359050612cef81612cc9565b92915050565b6000819050919050565b612d0881612cf5565b8114612d1357600080fd5b50565b600081359050612d2581612cff565b92915050565b60008060408385031215612d4257612d41612c92565b5b6000612d5085828601612ce0565b9250506020612d6185828601612d16565b9150509250929050565b60008115159050919050565b612d8081612d6b565b82525050565b6000602082019050612d9b6000830184612d77565b92915050565b612daa81612cf5565b82525050565b6000602082019050612dc56000830184612da1565b92915050565b6000819050919050565b6000612df0612deb612de684612c97565b612dcb565b612c97565b9050919050565b6000612e0282612dd5565b9050919050565b6000612e1482612df7565b9050919050565b612e2481612e09565b82525050565b6000602082019050612e3f6000830184612e1b565b92915050565b600080600060608486031215612e5e57612e5d612c92565b5b6000612e6c86828701612ce0565b9350506020612e7d86828701612ce0565b9250506040612e8e86828701612d16565b9150509250925092565b600060ff82169050919050565b612eae81612e98565b82525050565b6000602082019050612ec96000830184612ea5565b92915050565b6000819050919050565b612ee281612ecf565b82525050565b6000602082019050612efd6000830184612ed9565b92915050565b600060208284031215612f1957612f18612c92565b5b6000612f2784828501612ce0565b91505092915050565b612f3981612cb7565b82525050565b6000602082019050612f546000830184612f30565b92915050565b600063ffffffff82169050919050565b612f7381612f5a565b82525050565b6000602082019050612f8e6000830184612f6a565b92915050565b600060208284031215612faa57612fa9612c92565b5b6000612fb884828501612d16565b91505092915050565b612fca81612e98565b8114612fd557600080fd5b50565b600081359050612fe781612fc1565b92915050565b612ff681612ecf565b811461300157600080fd5b50565b60008135905061301381612fed565b92915050565b60008060008060008060c0878903121561303657613035612c92565b5b600061304489828a01612ce0565b965050602061305589828a01612d16565b955050604061306689828a01612d16565b945050606061307789828a01612fd8565b935050608061308889828a01613004565b92505060a061309989828a01613004565b9150509295509295509295565b600080600080600080600060e0888a0312156130c5576130c4612c92565b5b60006130d38a828b01612ce0565b97505060206130e48a828b01612ce0565b96505060406130f58a828b01612d16565b95505060606131068a828b01612d16565b94505060806131178a828b01612fd8565b93505060a06131288a828b01613004565b92505060c06131398a828b01613004565b91505092959891949750929550565b6000806040838503121561315f5761315e612c92565b5b600061316d85828601612ce0565b925050602061317e85828601612ce0565b9150509250929050565b6000806040838503121561319f5761319e612c92565b5b60006131ad85828601612d16565b92505060206131be85828601612d16565b9150509250929050565b6131d181612f5a565b81146131dc57600080fd5b50565b6000813590506131ee816131c8565b92915050565b6000806040838503121561320b5761320a612c92565b5b600061321985828601612ce0565b925050602061322a858286016131df565b9150509250929050565b61323d81612f5a565b82525050565b60007bffffffffffffffffffffffffffffffffffffffffffffffffffffffff82169050919050565b61327481613243565b82525050565b6040820160008201516132906000850182613234565b5060208201516132a3602085018261326b565b50505050565b60006040820190506132be600083018461327a565b92915050565b7f4e487b7100000000000000000000000000000000000000000000000000000000600052602260045260246000fd5b6000600282049050600182168061330b57607f821691505b60208210810361331e5761331d6132c4565b5b50919050565b7f4e487b7100000000000000000000000000000000000000000000000000000000600052601160045260246000fd5b600061335e82612cf5565b915061336983612cf5565b9250827fffffffffffffffffffffffffffffffffffffffffffffffffffffffffffffffff0382111561339e5761339d613324565b5b828201905092915050565b7f4552433230566f7465733a20626c6f636b206e6f7420796574206d696e656400600082015250565b60006133df601f83612be2565b91506133ea826133a9565b602082019050919050565b6000602082019050818103600083015261340e816133d2565b9050919050565b7f4f776e61626c653a2063616c6c6572206973206e6f7420746865206f776e6572600082015250565b600061344b602083612be2565b915061345682613415565b602082019050919050565b6000602082019050818103600083015261347a8161343e565b9050919050565b600061348c82612cf5565b915061349783612cf5565b9250828210156134aa576134a9613324565b5b828203905092915050565b7f4e487b7100000000000000000000000000000000000000000000000000000000600052603260045260246000fd5b7f45524332303a2064656372656173656420616c6c6f77616e63652062656c6f7760008201527f207a65726f000000000000000000000000000000000000000000000000000000602082015250565b6000613540602583612be2565b915061354b826134e4565b604082019050919050565b6000602082019050818103600083015261356f81613533565b9050919050565b7f4552433230566f7465733a207369676e61747572652065787069726564000000600082015250565b60006135ac601d83612be2565b91506135b782613576565b602082019050919050565b600060208201905081810360008301526135db8161359f565b9050919050565b60006080820190506135f76000830187612ed9565b6136046020830186612f30565b6136116040830185612da1565b61361e6060830184612da1565b95945050505050565b7f4552433230566f7465733a20696e76616c6964206e6f6e636500000000000000600082015250565b600061365d601983612be2565b915061366882613627565b602082019050919050565b6000602082019050818103600083015261368c81613650565b9050919050565b7f45524332305065726d69743a206578706972656420646561646c696e65000000600082015250565b60006136c9601d83612be2565b91506136d482613693565b602082019050919050565b600060208201905081810360008301526136f8816136bc565b9050919050565b600060c0820190506137146000830189612ed9565b6137216020830188612f30565b61372e6040830187612f30565b61373b6060830186612da1565b6137486080830185612da1565b61375560a0830184612da1565b979650505050505050565b7f45524332305065726d69743a20696e76616c6964207369676e61747572650000600082015250565b6000613796601e83612be2565b91506137a182613760565b602082019050919050565b600060208201905081810360008301526137c581613789565b9050919050565b7f4f776e61626c653a206e6577206f776e657220697320746865207a65726f206160008201527f6464726573730000000000000000000000000000000000000000000000000000602082015250565b6000613828602683612be2565b9150613833826137cc565b604082019050919050565b600060208201905081810360008301526138578161381b565b9050919050565b7f45524332303a20617070726f76652066726f6d20746865207a65726f2061646460008201527f7265737300000000000000000000000000000000000000000000000000000000602082015250565b60006138ba602483612be2565b91506138c58261385e565b604082019050919050565b600060208201905081810360008301526138e9816138ad565b9050919050565b7f45524332303a20617070726f766520746f20746865207a65726f20616464726560008201527f7373000000000000000000000000000000000000000000000000000000000000602082015250565b600061394c602283612be2565b9150613957826138f0565b604082019050919050565b6000602082019050818103600083015261397b8161393f565b9050919050565b7f45524332303a20696e73756666696369656e7420616c6c6f77616e6365000000600082015250565b60006139b8601d83612be2565b91506139c382613982565b602082019050919050565b600060208201905081810360008301526139e7816139ab565b9050919050565b7f45524332303a207472616e736665722066726f6d20746865207a65726f20616460008201527f6472657373000000000000000000000000000000000000000000000000000000602082015250565b6000613a4a602583612be2565b9150613a55826139ee565b604082019050919050565b60006020820190508181036000830152613a7981613a3d565b9050919050565b7f45524332303a207472616e7366657220746f20746865207a65726f206164647260008201527f6573730000000000000000000000000000000000000000000000000000000000602082015250565b6000613adc602383612be2565b9150613ae782613a80565b604082019050919050565b60006020820190508181036000830152613b0b81613acf565b9050919050565b7f45524332303a207472616e7366657220616d6f756e742065786365656473206260008201527f616c616e63650000000000000000000000000000000000000000000000000000602082015250565b6000613b6e602683612be2565b9150613b7982613b12565b604082019050919050565b60006020820190508181036000830152613b9d81613b61565b9050919050565b7f53616665436173743a2076616c756520646f65736e27742066697420696e203360008201527f3220626974730000000000000000000000000000000000000000000000000000602082015250565b6000613c00602683612be2565b9150613c0b82613ba4565b604082019050919050565b60006020820190508181036000830152613c2f81613bf3565b9050919050565b600060a082019050613c4b6000830188612ed9565b613c586020830187612ed9565b613c656040830186612ed9565b613c726060830185612da1565b613c7f6080830184612f30565b9695505050505050565b7f4e487b7100000000000000000000000000000000000000000000000000000000600052601260045260246000fd5b6000613cc382612cf5565b9150613cce83612cf5565b925082613cde57613cdd613c89565b5b828204905092915050565b7f4552433230566f7465733a20746f74616c20737570706c79207269736b73206f60008201527f766572666c6f77696e6720766f74657300000000000000000000000000000000602082015250565b6000613d45603083612be2565b9150613d5082613ce9565b604082019050919050565b60006020820190508181036000830152613d7481613d38565b9050919050565b6000604082019050613d906000830185612da1565b613d9d6020830184612da1565b9392505050565b600081905092915050565b7f1901000000000000000000000000000000000000000000000000000000000000600082015250565b6000613de5600283613da4565b9150613df082613daf565b600282019050919050565b6000819050919050565b613e16613e1182612ecf565b613dfb565b82525050565b6000613e2782613dd8565b9150613e338285613e05565b602082019150613e438284613e05565b6020820191508190509392505050565b6000608082019050613e686000830187612ed9565b613e756020830186612ea5565b613e826040830185612ed9565b613e8f6060830184612ed9565b95945050505050565b7f4e487b7100000000000000000000000000000000000000000000000000000000600052602160045260246000fd5b7f45434453413a20696e76616c6964207369676e61747572650000000000000000600082015250565b6000613efd601883612be2565b9150613f0882613ec7565b602082019050919050565b60006020820190508181036000830152613f2c81613ef0565b9050919050565b7f45434453413a20696e76616c6964207369676e6174757265206c656e67746800600082015250565b6000613f69601f83612be2565b9150613f7482613f33565b602082019050919050565b60006020820190508181036000830152613f9881613f5c565b9050919050565b7f45434453413a20696e76616c6964207369676e6174757265202773272076616c60008201527f7565000000000000000000000000000000000000000000000000000000000000602082015250565b6000613ffb602283612be2565b915061400682613f9f565b604082019050919050565b6000602082019050818103600083015261402a81613fee565b9050919050565b7f45434453413a20696e76616c6964207369676e6174757265202776272076616c60008201527f7565000000000000000000000000000000000000000000000000000000000000602082015250565b600061408d602283612be2565b915061409882614031565b604082019050919050565b600060208201905081810360008301526140bc81614080565b9050919050565b7f45524332303a206d696e7420746f20746865207a65726f206164647265737300600082015250565b60006140f9601f83612be2565b9150614104826140c3565b602082019050919050565b60006020820190508181036000830152614128816140ec565b9050919050565b7f45524332303a206275726e2066726f6d20746865207a65726f2061646472657360008201527f7300000000000000000000000000000000000000000000000000000000000000602082015250565b600061418b602183612be2565b91506141968261412f565b604082019050919050565b600060208201905081810360008301526141ba8161417e565b9050919050565b7f45524332303a206275726e20616d6f756e7420657863656564732062616c616e60008201527f6365000000000000000000000000000000000000000000000000000000000000602082015250565b600061421d602283612be2565b9150614228826141c1565b604082019050919050565b6000602082019050818103600083015261424c81614210565b9050919050565b7f53616665436173743a2076616c756520646f65736e27742066697420696e203260008201527f3234206269747300000000000000000000000000000000000000000000000000602082015250565b60006142af602783612be2565b91506142ba82614253565b604082019050919050565b600060208201905081810360008301526142de816142a2565b905091905056fea2646970667358221220f325a6facabd14a9d68d300bf3e9151669071dd1df1b6bc734a9228b9a77988764736f6c634300080d0033a2646970667358221220a98054feba9f015fbf9633473b432f60d812cbc83f7d60cfc87644fe2fa1949c64736f6c634300080d0033",
  "immutableReferences": {},
  "source": "// SPDX-License-Identifier: MIT\npragma solidity ^0.8.4;\n\nimport \"@openzeppelin/contracts/token/ERC20/ERC20.sol\";\nimport \"@openzeppelin/contracts/utils/Create2.sol\";\n// import \"@openzeppelin/contracts/utils/Strings.sol\";\n// import \"@openzeppelin/contracts/governance/TimelockController.sol\";\nimport \"../governance/MoretBroker.sol\";\nimport \"../Exchange.sol\";\nimport \"./MarketMaker.sol\";\nimport \"./Pool.sol\";\n\ncontract PoolFactory {\n    // events\n    event PoolCreated(address pool);\n\n    function computeAddress(bytes32 salt, string memory _name, string memory _symbol, address _marketMaker) public view returns (address) {\n        bytes32 _bytecodeHash = keccak256(getCreationCode(_name, _symbol, _marketMaker));\n        return Create2.computeAddress(\n                salt, //keccak256(abi.encodePacked(salt)),\n                _bytecodeHash,\n                address(this)\n            );}\n\n    function deploy(bytes32 salt, string memory _name, string memory _symbol, address _marketMaker, address _timelock, address _broker) public {\n        bytes memory _bytecode = getCreationCode(_name, _symbol, _marketMaker);\n        address proxy = Create2.deploy(\n            0,\n            salt,//keccak256(abi.encodePacked(salt)),\n            _bytecode\n        );\n\n        Pool _pool = Pool(proxy);\n        _pool.transferOwnership(_timelock);\n        MoretBroker(_broker).addPool(_pool);\n\n        emit PoolCreated(proxy);}\n\n    function getCreationCode(string memory _name, string memory _symbol, address _marketMaker) public pure returns(bytes memory){\n        require(address(_marketMaker) != address(0), 'PF0A');\n        bytes memory _poolBytecode = type(Pool).creationCode;\n        _poolBytecode = abi.encodePacked(_poolBytecode, abi.encode(_name, _symbol, _marketMaker));\n        return _poolBytecode;}\n\n\n    // function createPool(string memory _name, string memory _symbol, address _marketMaker, address _timelock, address _broker, bytes32 _salt) external{\n    //     require(address(_marketMaker) != address(0), '0A');\n    //     // ERC20 _underlying = _marketMaker.underlying();\n    //     // uint256 _poolCount = _marketMaker.govToken().broker().getPoolsCount(address(_underlying));\n    //     // string memory _name = string(abi.encodePacked(_underlying.name(), \" Moret Pool #\", Strings.toString(_poolCount)));\n    //     // string memory _symbol = string(abi.encodePacked(_underlying.symbol(), \"mp\", Strings.toString(_poolCount)));\n\n    //     // bytes32 _salt = keccak256(abi.encodePacked(_marketMaker));\n\n    //     count += 1;\n    //     address _poolAddress;\n    //     bytes memory _poolBytecode = type(Pool).creationCode;\n    //     _poolBytecode = abi.encodePacked(_poolBytecode, abi.encode(_name, _symbol, _marketMaker));\n    //     assembly{\n    //         _poolAddress := create2(0, add(_poolBytecode, 0x20), mload(_poolBytecode), _salt)\n    //         if iszero(extcodesize(_poolAddress)) {revert(0,0)}\n    //     }\n    //     Pool _pool = Pool(_poolAddress);\n    //     _pool.transferOwnership(_timelock);\n    //     MoretBroker(_broker).addPool(_pool);\n\n    //     emit PoolCreated(_poolAddress, _salt);}\n}",
  "sourcePath": "/Users/mac/Documents/GitHub/moret/contracts/pools/PoolFactory.sol",
  "compiler": {
    "name": "solc",
    "version": "0.8.13+commit.abaa5c0e.Emscripten.clang"
  },
  "schemaVersion": "3.4.3",
  "updatedAt": "2022-05-09T22:27:04.014Z",
  "devdoc": {
    "kind": "dev",
    "methods": {},
    "version": 1
  },
  "userdoc": {
    "kind": "user",
    "methods": {},
    "version": 1
  }
}