{
  "contractName": "VolatilityChain",
  "abi": [
    {
      "inputs": [
        {
          "internalType": "contract AggregatorV3Interface",
          "name": "_priceSource",
          "type": "address"
        },
        {
          "internalType": "uint256",
          "name": "_parameterDecimals",
          "type": "uint256"
        },
        {
          "internalType": "string",
          "name": "_tokenName",
          "type": "string"
        },
        {
          "internalType": "address",
          "name": "_updateAddress",
          "type": "address"
        }
      ],
      "stateMutability": "nonpayable",
      "type": "constructor"
    },
    {
      "anonymous": false,
      "inputs": [
        {
          "indexed": true,
          "internalType": "uint256",
          "name": "_tenor",
          "type": "uint256"
        },
        {
          "indexed": false,
          "internalType": "uint256",
          "name": "_timeStamp",
          "type": "uint256"
        },
        {
          "components": [
            {
              "internalType": "uint256",
              "name": "startTime",
              "type": "uint256"
            },
            {
              "internalType": "uint256",
              "name": "endTime",
              "type": "uint256"
            },
            {
              "internalType": "uint256",
              "name": "open",
              "type": "uint256"
            },
            {
              "internalType": "uint256",
              "name": "highest",
              "type": "uint256"
            },
            {
              "internalType": "uint256",
              "name": "lowest",
              "type": "uint256"
            },
            {
              "internalType": "uint256",
              "name": "close",
              "type": "uint256"
            },
            {
              "internalType": "uint256",
              "name": "volatility",
              "type": "uint256"
            },
            {
              "internalType": "uint256",
              "name": "accentus",
              "type": "uint256"
            }
          ],
          "indexed": false,
          "internalType": "struct IVolatilityChain.PriceStamp",
          "name": "_book",
          "type": "tuple"
        }
      ],
      "name": "NewVolatilityChainBlock",
      "type": "event"
    },
    {
      "anonymous": false,
      "inputs": [
        {
          "indexed": true,
          "internalType": "address",
          "name": "previousOwner",
          "type": "address"
        },
        {
          "indexed": true,
          "internalType": "address",
          "name": "newOwner",
          "type": "address"
        }
      ],
      "name": "OwnershipTransferred",
      "type": "event"
    },
    {
      "anonymous": false,
      "inputs": [
        {
          "indexed": true,
          "internalType": "uint256",
          "name": "_tenor",
          "type": "uint256"
        },
        {
          "indexed": false,
          "internalType": "uint256",
          "name": "_timeStamp",
          "type": "uint256"
        },
        {
          "indexed": false,
          "internalType": "address",
          "name": "_executor",
          "type": "address"
        }
      ],
      "name": "RemovedTenor",
      "type": "event"
    },
    {
      "anonymous": false,
      "inputs": [
        {
          "indexed": true,
          "internalType": "uint256",
          "name": "_tenor",
          "type": "uint256"
        },
        {
          "indexed": false,
          "internalType": "uint256",
          "name": "_timeStamp",
          "type": "uint256"
        },
        {
          "indexed": false,
          "internalType": "address",
          "name": "_executor",
          "type": "address"
        }
      ],
      "name": "ResetVolChainParameter",
      "type": "event"
    },
    {
      "anonymous": false,
      "inputs": [
        {
          "indexed": true,
          "internalType": "bytes32",
          "name": "role",
          "type": "bytes32"
        },
        {
          "indexed": true,
          "internalType": "bytes32",
          "name": "previousAdminRole",
          "type": "bytes32"
        },
        {
          "indexed": true,
          "internalType": "bytes32",
          "name": "newAdminRole",
          "type": "bytes32"
        }
      ],
      "name": "RoleAdminChanged",
      "type": "event"
    },
    {
      "anonymous": false,
      "inputs": [
        {
          "indexed": true,
          "internalType": "bytes32",
          "name": "role",
          "type": "bytes32"
        },
        {
          "indexed": true,
          "internalType": "address",
          "name": "account",
          "type": "address"
        },
        {
          "indexed": true,
          "internalType": "address",
          "name": "sender",
          "type": "address"
        }
      ],
      "name": "RoleGranted",
      "type": "event"
    },
    {
      "anonymous": false,
      "inputs": [
        {
          "indexed": true,
          "internalType": "bytes32",
          "name": "role",
          "type": "bytes32"
        },
        {
          "indexed": true,
          "internalType": "address",
          "name": "account",
          "type": "address"
        },
        {
          "indexed": true,
          "internalType": "address",
          "name": "sender",
          "type": "address"
        }
      ],
      "name": "RoleRevoked",
      "type": "event"
    },
    {
      "inputs": [],
      "name": "DEFAULT_ADMIN_ROLE",
      "outputs": [
        {
          "internalType": "bytes32",
          "name": "",
          "type": "bytes32"
        }
      ],
      "stateMutability": "view",
      "type": "function",
      "constant": true
    },
    {
      "inputs": [],
      "name": "UPDATE_ROLE",
      "outputs": [
        {
          "internalType": "bytes32",
          "name": "",
          "type": "bytes32"
        }
      ],
      "stateMutability": "view",
      "type": "function",
      "constant": true
    },
    {
      "inputs": [
        {
          "internalType": "bytes32",
          "name": "role",
          "type": "bytes32"
        }
      ],
      "name": "getRoleAdmin",
      "outputs": [
        {
          "internalType": "bytes32",
          "name": "",
          "type": "bytes32"
        }
      ],
      "stateMutability": "view",
      "type": "function",
      "constant": true
    },
    {
      "inputs": [
        {
          "internalType": "bytes32",
          "name": "role",
          "type": "bytes32"
        },
        {
          "internalType": "address",
          "name": "account",
          "type": "address"
        }
      ],
      "name": "grantRole",
      "outputs": [],
      "stateMutability": "nonpayable",
      "type": "function"
    },
    {
      "inputs": [
        {
          "internalType": "bytes32",
          "name": "role",
          "type": "bytes32"
        },
        {
          "internalType": "address",
          "name": "account",
          "type": "address"
        }
      ],
      "name": "hasRole",
      "outputs": [
        {
          "internalType": "bool",
          "name": "",
          "type": "bool"
        }
      ],
      "stateMutability": "view",
      "type": "function",
      "constant": true
    },
    {
      "inputs": [
        {
          "internalType": "uint256",
          "name": "",
          "type": "uint256"
        }
      ],
      "name": "latestBookTime",
      "outputs": [
        {
          "internalType": "uint256",
          "name": "",
          "type": "uint256"
        }
      ],
      "stateMutability": "view",
      "type": "function",
      "constant": true
    },
    {
      "inputs": [],
      "name": "owner",
      "outputs": [
        {
          "internalType": "address",
          "name": "",
          "type": "address"
        }
      ],
      "stateMutability": "view",
      "type": "function",
      "constant": true
    },
    {
      "inputs": [],
      "name": "renounceOwnership",
      "outputs": [],
      "stateMutability": "nonpayable",
      "type": "function"
    },
    {
      "inputs": [
        {
          "internalType": "bytes32",
          "name": "role",
          "type": "bytes32"
        },
        {
          "internalType": "address",
          "name": "account",
          "type": "address"
        }
      ],
      "name": "renounceRole",
      "outputs": [],
      "stateMutability": "nonpayable",
      "type": "function"
    },
    {
      "inputs": [
        {
          "internalType": "bytes32",
          "name": "role",
          "type": "bytes32"
        },
        {
          "internalType": "address",
          "name": "account",
          "type": "address"
        }
      ],
      "name": "revokeRole",
      "outputs": [],
      "stateMutability": "nonpayable",
      "type": "function"
    },
    {
      "inputs": [
        {
          "internalType": "bytes4",
          "name": "interfaceId",
          "type": "bytes4"
        }
      ],
      "name": "supportsInterface",
      "outputs": [
        {
          "internalType": "bool",
          "name": "",
          "type": "bool"
        }
      ],
      "stateMutability": "view",
      "type": "function",
      "constant": true
    },
    {
      "inputs": [],
      "name": "tokenHash",
      "outputs": [
        {
          "internalType": "bytes32",
          "name": "",
          "type": "bytes32"
        }
      ],
      "stateMutability": "view",
      "type": "function",
      "constant": true
    },
    {
      "inputs": [
        {
          "internalType": "address",
          "name": "newOwner",
          "type": "address"
        }
      ],
      "name": "transferOwnership",
      "outputs": [],
      "stateMutability": "nonpayable",
      "type": "function"
    },
    {
      "inputs": [],
      "name": "volatilityUpdateCounter",
      "outputs": [
        {
          "internalType": "uint256",
          "name": "",
          "type": "uint256"
        }
      ],
      "stateMutability": "view",
      "type": "function",
      "constant": true
    },
    {
      "inputs": [],
      "name": "volatilityUpdateTime",
      "outputs": [
        {
          "internalType": "uint256",
          "name": "",
          "type": "uint256"
        }
      ],
      "stateMutability": "view",
      "type": "function",
      "constant": true
    },
    {
      "inputs": [
        {
          "internalType": "uint256",
          "name": "_tenor",
          "type": "uint256"
        }
      ],
      "name": "queryVol",
      "outputs": [
        {
          "internalType": "uint256",
          "name": "_vol",
          "type": "uint256"
        }
      ],
      "stateMutability": "view",
      "type": "function",
      "constant": true
    },
    {
      "inputs": [],
      "name": "queryPrice",
      "outputs": [
        {
          "internalType": "uint256",
          "name": "",
          "type": "uint256"
        }
      ],
      "stateMutability": "view",
      "type": "function",
      "constant": true
    },
    {
      "inputs": [],
      "name": "update",
      "outputs": [],
      "stateMutability": "nonpayable",
      "type": "function"
    },
    {
      "inputs": [
        {
          "internalType": "uint256",
          "name": "_tenor",
          "type": "uint256"
        },
        {
          "components": [
            {
              "internalType": "uint256",
              "name": "initialVol",
              "type": "uint256"
            },
            {
              "internalType": "uint256",
              "name": "ltVol",
              "type": "uint256"
            },
            {
              "internalType": "uint256",
              "name": "ltVolWeighted",
              "type": "uint256"
            },
            {
              "internalType": "uint256",
              "name": "w",
              "type": "uint256"
            },
            {
              "internalType": "uint256",
              "name": "p",
              "type": "uint256"
            },
            {
              "internalType": "uint256",
              "name": "q",
              "type": "uint256"
            }
          ],
          "internalType": "struct IVolatilityChain.VolParam",
          "name": "_volParams",
          "type": "tuple"
        }
      ],
      "name": "resetVolParams",
      "outputs": [],
      "stateMutability": "nonpayable",
      "type": "function"
    },
    {
      "inputs": [
        {
          "internalType": "uint256",
          "name": "_tenor",
          "type": "uint256"
        }
      ],
      "name": "removeTenor",
      "outputs": [],
      "stateMutability": "nonpayable",
      "type": "function"
    },
    {
      "inputs": [
        {
          "internalType": "uint256",
          "name": "_tenor",
          "type": "uint256"
        }
      ],
      "name": "getPriceBook",
      "outputs": [
        {
          "components": [
            {
              "internalType": "uint256",
              "name": "startTime",
              "type": "uint256"
            },
            {
              "internalType": "uint256",
              "name": "endTime",
              "type": "uint256"
            },
            {
              "internalType": "uint256",
              "name": "open",
              "type": "uint256"
            },
            {
              "internalType": "uint256",
              "name": "highest",
              "type": "uint256"
            },
            {
              "internalType": "uint256",
              "name": "lowest",
              "type": "uint256"
            },
            {
              "internalType": "uint256",
              "name": "close",
              "type": "uint256"
            },
            {
              "internalType": "uint256",
              "name": "volatility",
              "type": "uint256"
            },
            {
              "internalType": "uint256",
              "name": "accentus",
              "type": "uint256"
            }
          ],
          "internalType": "struct IVolatilityChain.PriceStamp",
          "name": "",
          "type": "tuple"
        }
      ],
      "stateMutability": "view",
      "type": "function",
      "constant": true
    },
    {
      "inputs": [
        {
          "internalType": "uint256",
          "name": "_tenor",
          "type": "uint256"
        }
      ],
      "name": "getSqrtRatio",
      "outputs": [
        {
          "internalType": "uint256",
          "name": "",
          "type": "uint256"
        }
      ],
      "stateMutability": "pure",
      "type": "function",
      "constant": true
    }
  ],
  "bytecode": "0x60e06040523480156200001157600080fd5b50604051620043d0380380620043d0833981810160405281019062000037919062000778565b620000576200004b620001f960201b60201c565b6200020160201b60201c565b6200006c6000801b33620002c560201b60201c565b6200009e7f3ee192ac25847473237ced4bba57f848e1fd794930ff85b4282329058096720582620002c560201b60201c565b8180519060200120600381905550620000ca620151806004620002db60201b620020921790919060201c565b50620000e962093a806004620002db60201b620020921790919060201c565b506200010862278d006004620002db60201b620020921790919060201c565b5083600260006101000a81548173ffffffffffffffffffffffffffffffffffffffff021916908373ffffffffffffffffffffffffffffffffffffffff1602179055508373ffffffffffffffffffffffffffffffffffffffff1663313ce5676040518163ffffffff1660e01b8152600401602060405180830381865afa15801562000196573d6000803e3d6000fd5b505050506040513d601f19601f82011682018060405250810190620001bc919062000847565b600a620001ca9190620009fc565b608081815250508260a0818152505082600a620001e8919062000a4d565b60c081815250505050505062000a9e565b600033905090565b60008060009054906101000a900473ffffffffffffffffffffffffffffffffffffffff169050816000806101000a81548173ffffffffffffffffffffffffffffffffffffffff021916908373ffffffffffffffffffffffffffffffffffffffff1602179055508173ffffffffffffffffffffffffffffffffffffffff168173ffffffffffffffffffffffffffffffffffffffff167f8be0079c531659141344cd1fd0a4f28419497f9722a3daafe3b4186f6b6457e060405160405180910390a35050565b620002d78282620002fd60201b60201c565b5050565b6000620002f5836000018360001b620003ee60201b60201c565b905092915050565b6200030f82826200046860201b60201c565b620003ea57600180600084815260200190815260200160002060000160008373ffffffffffffffffffffffffffffffffffffffff1673ffffffffffffffffffffffffffffffffffffffff16815260200190815260200160002060006101000a81548160ff0219169083151502179055506200038f620001f960201b60201c565b73ffffffffffffffffffffffffffffffffffffffff168173ffffffffffffffffffffffffffffffffffffffff16837f2f8788117e7eff1d82e926ec794901d17c78024a50270940304540a733656f0d60405160405180910390a45b5050565b6000620004028383620004d360201b60201c565b6200045d57826000018290806001815401808255809150506001900390600052602060002001600090919091909150558260000180549050836001016000848152602001908152602001600020819055506001905062000462565b600090505b92915050565b60006001600084815260200190815260200160002060000160008373ffffffffffffffffffffffffffffffffffffffff1673ffffffffffffffffffffffffffffffffffffffff16815260200190815260200160002060009054906101000a900460ff16905092915050565b600080836001016000848152602001908152602001600020541415905092915050565b6000604051905090565b600080fd5b600080fd5b600073ffffffffffffffffffffffffffffffffffffffff82169050919050565b600062000537826200050a565b9050919050565b60006200054b826200052a565b9050919050565b6200055d816200053e565b81146200056957600080fd5b50565b6000815190506200057d8162000552565b92915050565b6000819050919050565b620005988162000583565b8114620005a457600080fd5b50565b600081519050620005b8816200058d565b92915050565b600080fd5b600080fd5b6000601f19601f8301169050919050565b7f4e487b7100000000000000000000000000000000000000000000000000000000600052604160045260246000fd5b6200061382620005c8565b810181811067ffffffffffffffff82111715620006355762000634620005d9565b5b80604052505050565b60006200064a620004f6565b905062000658828262000608565b919050565b600067ffffffffffffffff8211156200067b576200067a620005d9565b5b6200068682620005c8565b9050602081019050919050565b60005b83811015620006b357808201518184015260208101905062000696565b83811115620006c3576000848401525b50505050565b6000620006e0620006da846200065d565b6200063e565b905082815260208101848484011115620006ff57620006fe620005c3565b5b6200070c84828562000693565b509392505050565b600082601f8301126200072c576200072b620005be565b5b81516200073e848260208601620006c9565b91505092915050565b62000752816200052a565b81146200075e57600080fd5b50565b600081519050620007728162000747565b92915050565b6000806000806080858703121562000795576200079462000500565b5b6000620007a5878288016200056c565b9450506020620007b887828801620005a7565b935050604085015167ffffffffffffffff811115620007dc57620007db62000505565b5b620007ea8782880162000714565b9250506060620007fd8782880162000761565b91505092959194509250565b600060ff82169050919050565b620008218162000809565b81146200082d57600080fd5b50565b600081519050620008418162000816565b92915050565b60006020828403121562000860576200085f62000500565b5b6000620008708482850162000830565b91505092915050565b7f4e487b7100000000000000000000000000000000000000000000000000000000600052601160045260246000fd5b60008160011c9050919050565b6000808291508390505b60018511156200090757808604811115620008df57620008de62000879565b5b6001851615620008ef5780820291505b8081029050620008ff85620008a8565b9450620008bf565b94509492505050565b600082620009225760019050620009f5565b81620009325760009050620009f5565b81600181146200094b576002811462000956576200098c565b6001915050620009f5565b60ff8411156200096b576200096a62000879565b5b8360020a91508482111562000985576200098462000879565b5b50620009f5565b5060208310610133831016604e8410600b8410161715620009c65782820a905083811115620009c057620009bf62000879565b5b620009f5565b620009d58484846001620008b5565b92509050818404811115620009ef57620009ee62000879565b5b81810290505b9392505050565b600062000a098262000583565b915062000a168362000809565b925062000a457fffffffffffffffffffffffffffffffffffffffffffffffffffffffffffffffff848462000910565b905092915050565b600062000a5a8262000583565b915062000a678362000583565b925062000a967fffffffffffffffffffffffffffffffffffffffffffffffffffffffffffffffff848462000910565b905092915050565b60805160a05160c0516138a362000b2d60003960008181610a3601528181610b42015281816112b501528181611362015281816114b1015261155e01526000505060008181610f1501528181610f9601528181610fc60152818161100401528181611097015281816110d90152818161118501528181611206015281816117e30152611ed801526138a36000f3fe608060405234801561001057600080fd5b50600436106101415760003560e01c806391d14854116100b8578063cca494731161007c578063cca4947314610350578063cfc2dc201461036e578063d547741f1461039e578063dcbc93f8146103ba578063f2fde38b146103d8578063fe67ec0c146103f457610141565b806391d14854146102be578063966e1766146102ee578063a217fddf1461030a578063a2e6204514610328578063b0667cf81461033257610141565b806336568abe1161010a57806336568abe146101fc578063430417f7146102185780636c23852d14610248578063714f13ee14610278578063715018a6146102965780638da5cb5b146102a057610141565b80624978461461014657806301ffc9a714610164578063248a9ca314610194578063285f9457146101c45780632f2ff15d146101e0575b600080fd5b61014e610424565b60405161015b919061299c565b60405180910390f35b61017e60048036038101906101799190612a1e565b610448565b60405161018b9190612a66565b60405180910390f35b6101ae60048036038101906101a99190612aad565b6104c2565b6040516101bb919061299c565b60405180910390f35b6101de60048036038101906101d99190612b10565b6104e2565b005b6101fa60048036038101906101f59190612b9b565b6105cd565b005b61021660048036038101906102119190612b9b565b6105ee565b005b610232600480360381019061022d9190612b10565b610671565b60405161023f9190612bea565b60405180910390f35b610262600480360381019061025d9190612b10565b610773565b60405161026f9190612cb6565b60405180910390f35b610280610868565b60405161028d9190612bea565b60405180910390f35b61029e61086e565b005b6102a86108f6565b6040516102b59190612ce1565b60405180910390f35b6102d860048036038101906102d39190612b9b565b61091f565b6040516102e59190612a66565b60405180910390f35b61030860048036038101906103039190612e2d565b61098a565b005b610312610d4a565b60405161031f919061299c565b60405180910390f35b610330610d51565b005b61033a611722565b6040516103479190612bea565b60405180910390f35b610358611866565b604051610365919061299c565b60405180910390f35b61038860048036038101906103839190612b10565b61186c565b6040516103959190612bea565b60405180910390f35b6103b860048036038101906103b39190612b9b565b611f5c565b005b6103c2611f7d565b6040516103cf9190612bea565b60405180910390f35b6103f260048036038101906103ed9190612e6d565b611f83565b005b61040e60048036038101906104099190612b10565b61207a565b60405161041b9190612bea565b60405180910390f35b7f3ee192ac25847473237ced4bba57f848e1fd794930ff85b4282329058096720581565b60007f7965db0b000000000000000000000000000000000000000000000000000000007bffffffffffffffffffffffffffffffffffffffffffffffffffffffff1916827bffffffffffffffffffffffffffffffffffffffffffffffffffffffff191614806104bb57506104ba826120ac565b5b9050919050565b600060016000838152602001908152602001600020600101549050919050565b6104ea612116565b73ffffffffffffffffffffffffffffffffffffffff166105086108f6565b73ffffffffffffffffffffffffffffffffffffffff161461055e576040517f08c379a000000000000000000000000000000000000000000000000000000000815260040161055590612ef7565b60405180910390fd5b61057281600461211e90919063ffffffff16565b61057b57600080fd5b61058f81600461213890919063ffffffff16565b50807f16525c17fb1186872bcf57b8588cd51b6e0a69ed167b3471bdd67b5ac538c47e42336040516105c2929190612f17565b60405180910390a250565b6105d6826104c2565b6105df81612152565b6105e98383612166565b505050565b6105f6612116565b73ffffffffffffffffffffffffffffffffffffffff168173ffffffffffffffffffffffffffffffffffffffff1614610663576040517f08c379a000000000000000000000000000000000000000000000000000000000815260040161065a90612fb2565b60405180910390fd5b61066d8282612246565b5050565b60006301e1338073__MathLib_______________________________63de7f61709091846040518363ffffffff1660e01b81526004016106b2929190612fe1565b602060405180830381865af41580156106cf573d6000803e3d6000fd5b505050506040513d601f19601f820116820180604052508101906106f3919061301f565b73__MathLib_______________________________63677342ce90916040518263ffffffff1660e01b815260040161072b919061304c565b602060405180830381865af4158015610748573d6000803e3d6000fd5b505050506040513d601f19601f8201168201806040525081019061076c919061301f565b9050919050565b61077b61293e565b61078f82600461211e90919063ffffffff16565b6107ce576040517f08c379a00000000000000000000000000000000000000000000000000000000081526004016107c5906130d9565b60405180910390fd5b6006600083815260200190815260200160002060006007600085815260200190815260200160002054815260200190815260200160002060405180610100016040529081600082015481526020016001820154815260200160028201548152602001600382015481526020016004820154815260200160058201548152602001600682015481526020016007820154815250509050919050565b60085481565b610876612116565b73ffffffffffffffffffffffffffffffffffffffff166108946108f6565b73ffffffffffffffffffffffffffffffffffffffff16146108ea576040517f08c379a00000000000000000000000000000000000000000000000000000000081526004016108e190612ef7565b60405180910390fd5b6108f46000612328565b565b60008060009054906101000a900473ffffffffffffffffffffffffffffffffffffffff16905090565b60006001600084815260200190815260200160002060000160008373ffffffffffffffffffffffffffffffffffffffff1673ffffffffffffffffffffffffffffffffffffffff16815260200190815260200160002060009054906101000a900460ff16905092915050565b610992612116565b73ffffffffffffffffffffffffffffffffffffffff166109b06108f6565b73ffffffffffffffffffffffffffffffffffffffff1614610a06576040517f08c379a00000000000000000000000000000000000000000000000000000000081526004016109fd90612ef7565b60405180910390fd5b610a1a82600461211e90919063ffffffff16565b610a3457610a3282600461209290919063ffffffff16565b505b7f00000000000000000000000000000000000000000000000000000000000000008160a0015182608001518360600151610a6e9190613128565b610a789190613128565b14610a8257600080fd5b80600a6000848152602001908152602001600020600082015181600001556020820151816001015560408201518160020155606082015181600301556080820151816004015560a08201518160050155905050600a600083815260200190815260200160002060010154600a600084815260200190815260200160002060010154610b0d919061317e565b73__MathLib_______________________________63b3947c179091600a6000868152602001908152602001600020600301547f00000000000000000000000000000000000000000000000000000000000000006040518463ffffffff1660e01b8152600401610b7f939291906131d8565b602060405180830381865af4158015610b9c573d6000803e3d6000fd5b505050506040513d601f19601f82011682018060405250810190610bc0919061301f565b600a600084815260200190815260200160002060020181905550600080600260009054906101000a900473ffffffffffffffffffffffffffffffffffffffff1673ffffffffffffffffffffffffffffffffffffffff1663feaf968c6040518163ffffffff1660e01b815260040160a060405180830381865afa158015610c4a573d6000803e3d6000fd5b505050506040513d601f19601f82011682018060405250810190610c6e9190613287565b509350509250506000610c80836123ec565b905081600760008781526020019081526020016000208190555060006006600087815260200190815260200160002060008481526020019081526020016000209050828160000181905550600a6000878152602001908152602001600020600001548160070181905581600601819055508181600401819055816003018190558160020181905550857fc9da3ef1cd9a1e60f158af3c87742d2ad2d68916eb599d3d740a66844efb13254233604051610d3a929190612f17565b60405180910390a2505050505050565b6000801b81565b7f3ee192ac25847473237ced4bba57f848e1fd794930ff85b42823290580967205610d7b81612152565b600080600260009054906101000a900473ffffffffffffffffffffffffffffffffffffffff1673ffffffffffffffffffffffffffffffffffffffff1663feaf968c6040518163ffffffff1660e01b815260040160a060405180830381865afa158015610deb573d6000803e3d6000fd5b505050506040513d601f19601f82011682018060405250810190610e0f9190613287565b509350509250506000610e21836123ec565b90506000610e2f6004612439565b905060005b818110156116fb576000610e5282600461244e90919063ffffffff16565b9050600060076000838152602001908152602001600020549050600060066000848152602001908152602001600020600083815260200190815260200160002090508060030154861115610eaa578581600301819055505b8060040154861015610ec0578581600401819055505b8282610ecc9190613128565b87106116e5578681600101819055508581600501819055506000816002015490506000878210610fc4578773__MathLib_______________________________63b3947c1790917f0000000000000000000000000000000000000000000000000000000000000000856040518463ffffffff1660e01b8152600401610f53939291906131d8565b602060405180830381865af4158015610f70573d6000803e3d6000fd5b505050506040513d601f19601f82011682018060405250810190610f94919061301f565b7f0000000000000000000000000000000000000000000000000000000000000000610fbf9190613302565b61108e565b7f00000000000000000000000000000000000000000000000000000000000000008873__MathLib_______________________________63b3947c1790917f0000000000000000000000000000000000000000000000000000000000000000866040518463ffffffff1660e01b8152600401611042939291906131d8565b602060405180830381865af415801561105f573d6000803e3d6000fd5b505050506040513d601f19601f82011682018060405250810190611083919061301f565b61108d9190613302565b5b905060006112347f0000000000000000000000000000000000000000000000000000000000000000856003015473__MathLib_______________________________63b3947c1790917f0000000000000000000000000000000000000000000000000000000000000000886040518463ffffffff1660e01b8152600401611117939291906131d8565b602060405180830381865af4158015611134573d6000803e3d6000fd5b505050506040513d601f19601f82011682018060405250810190611158919061301f565b6111629190613302565b856004015473__MathLib_______________________________63b3947c1790917f0000000000000000000000000000000000000000000000000000000000000000886040518463ffffffff1660e01b81526004016111c3939291906131d8565b602060405180830381865af41580156111e0573d6000803e3d6000fd5b505050506040513d601f19601f82011682018060405250810190611204919061301f565b7f000000000000000000000000000000000000000000000000000000000000000061122f9190613302565b612468565b905060006006600088815260200190815260200160002060008c815260200190815260200160002090506000600a600089815260200190815260200160002090508b826000018190555085600601548660060154611292919061317e565b73__MathLib_______________________________63b3947c17909183600401547f00000000000000000000000000000000000000000000000000000000000000006040518463ffffffff1660e01b81526004016112f2939291906131d8565b602060405180830381865af415801561130f573d6000803e3d6000fd5b505050506040513d601f19601f82011682018060405250810190611333919061301f565b848561133f919061317e565b73__MathLib_______________________________63b3947c17909184600501547f00000000000000000000000000000000000000000000000000000000000000006040518463ffffffff1660e01b815260040161139f939291906131d8565b602060405180830381865af41580156113bc573d6000803e3d6000fd5b505050506040513d601f19601f820116820180604052508101906113e0919061301f565b82600201546113ef9190613128565b6113f99190613128565b73__MathLib_______________________________63677342ce90916040518263ffffffff1660e01b8152600401611431919061304c565b602060405180830381865af415801561144e573d6000803e3d6000fd5b505050506040513d601f19601f82011682018060405250810190611472919061301f565b82600601819055508560070154866007015461148e919061317e565b73__MathLib_______________________________63b3947c17909183600401547f00000000000000000000000000000000000000000000000000000000000000006040518463ffffffff1660e01b81526004016114ee939291906131d8565b602060405180830381865af415801561150b573d6000803e3d6000fd5b505050506040513d601f19601f8201168201806040525081019061152f919061301f565b838461153b919061317e565b73__MathLib_______________________________63b3947c17909184600501547f00000000000000000000000000000000000000000000000000000000000000006040518463ffffffff1660e01b815260040161159b939291906131d8565b602060405180830381865af41580156115b8573d6000803e3d6000fd5b505050506040513d601f19601f820116820180604052508101906115dc919061301f565b82600201546115eb9190613128565b6115f59190613128565b73__MathLib_______________________________63677342ce90916040518263ffffffff1660e01b815260040161162d919061304c565b602060405180830381865af415801561164a573d6000803e3d6000fd5b505050506040513d601f19601f8201168201806040525081019061166e919061301f565b82600701819055508a826004018190558260030181905582600201819055508b600760008a815260200190815260200160002081905550877facc5a92f422695ec223f46e9e8d944e705858adc9b9bd84eef64b9c3bc462e218d846040516116d7929190613463565b60405180910390a250505050505b50505080806116f39061348d565b915050610e34565b5082600981905550600860008154809291906117169061348d565b91905055505050505050565b600080600260009054906101000a900473ffffffffffffffffffffffffffffffffffffffff1673ffffffffffffffffffffffffffffffffffffffff1663feaf968c6040518163ffffffff1660e01b815260040160a060405180830381865afa158015611792573d6000803e3d6000fd5b505050506040513d601f19601f820116820180604052508101906117b69190613287565b5050509150506117c5816123ec565b73__MathLib_______________________________63de7f617090917f00000000000000000000000000000000000000000000000000000000000000006040518363ffffffff1660e01b815260040161181f929190612fe1565b602060405180830381865af415801561183c573d6000803e3d6000fd5b505050506040513d601f19601f82011682018060405250810190611860919061301f565b91505090565b60035481565b600061188282600461211e90919063ffffffff16565b156118c95760066000838152602001908152602001600020600060076000858152602001908152602001600020548152602001908152602001600020600601549050611eb9565b60008060006118d86004612439565b905060005b818110156119555760006118fb82600461244e90919063ffffffff16565b905086811180156119165750848110806119155750600085145b5b1561191f578094505b86811080156119385750838111806119375750600084145b5b15611941578093505b50808061194d9061348d565b9150506118dd565b506000831480156119665750600082115b15611b22576000600660008481526020019081526020016000206000600760008681526020019081526020016000205481526020019081526020016000206006015490508073__MathLib_______________________________63b3947c1790918873__MathLib_______________________________63677342ce90916040518263ffffffff1660e01b8152600401611a00919061304c565b602060405180830381865af4158015611a1d573d6000803e3d6000fd5b505050506040513d601f19601f82011682018060405250810190611a41919061301f565b8673__MathLib_______________________________63677342ce90916040518263ffffffff1660e01b8152600401611a7a919061304c565b602060405180830381865af4158015611a97573d6000803e3d6000fd5b505050506040513d601f19601f82011682018060405250810190611abb919061301f565b6040518463ffffffff1660e01b8152600401611ad9939291906131d8565b602060405180830381865af4158015611af6573d6000803e3d6000fd5b505050506040513d601f19601f82011682018060405250810190611b1a919061301f565b945050611eb5565b600082148015611b325750600083115b15611cee576000600660008581526020019081526020016000206000600760008781526020019081526020016000205481526020019081526020016000206006015490508073__MathLib_______________________________63b3947c1790918873__MathLib_______________________________63677342ce90916040518263ffffffff1660e01b8152600401611bcc919061304c565b602060405180830381865af4158015611be9573d6000803e3d6000fd5b505050506040513d601f19601f82011682018060405250810190611c0d919061301f565b8773__MathLib_______________________________63677342ce90916040518263ffffffff1660e01b8152600401611c46919061304c565b602060405180830381865af4158015611c63573d6000803e3d6000fd5b505050506040513d601f19601f82011682018060405250810190611c87919061301f565b6040518463ffffffff1660e01b8152600401611ca5939291906131d8565b602060405180830381865af4158015611cc2573d6000803e3d6000fd5b505050506040513d601f19601f82011682018060405250810190611ce6919061301f565b945050611eb4565b600083118015611cfe5750600082115b15611eb35760006006600084815260200190815260200160002060006007600086815260200190815260200160002054815260200190815260200160002060060154905060006006600086815260200190815260200160002060006007600088815260200190815260200160002054815260200190815260200160002060060154905060008486611d8f9190613302565b90508173__MathLib_______________________________63b3947c179091878b611dba9190613302565b846040518463ffffffff1660e01b8152600401611dd9939291906131d8565b602060405180830381865af4158015611df6573d6000803e3d6000fd5b505050506040513d601f19601f82011682018060405250810190611e1a919061301f565b8373__MathLib_______________________________63b3947c1790918b8a611e439190613302565b856040518463ffffffff1660e01b8152600401611e62939291906131d8565b602060405180830381865af4158015611e7f573d6000803e3d6000fd5b505050506040513d601f19601f82011682018060405250810190611ea3919061301f565b611ead9190613128565b96505050505b5b5b5050505b8073__MathLib_______________________________63de7f617090917f00000000000000000000000000000000000000000000000000000000000000006040518363ffffffff1660e01b8152600401611f14929190612fe1565b602060405180830381865af4158015611f31573d6000803e3d6000fd5b505050506040513d601f19601f82011682018060405250810190611f55919061301f565b9050919050565b611f65826104c2565b611f6e81612152565b611f788383612246565b505050565b60095481565b611f8b612116565b73ffffffffffffffffffffffffffffffffffffffff16611fa96108f6565b73ffffffffffffffffffffffffffffffffffffffff1614611fff576040517f08c379a0000000000000000000000000000000000000000000000000000000008152600401611ff690612ef7565b60405180910390fd5b600073ffffffffffffffffffffffffffffffffffffffff168173ffffffffffffffffffffffffffffffffffffffff160361206e576040517f08c379a000000000000000000000000000000000000000000000000000000000815260040161206590613547565b60405180910390fd5b61207781612328565b50565b60076020528060005260406000206000915090505481565b60006120a4836000018360001b612482565b905092915050565b60007f01ffc9a7000000000000000000000000000000000000000000000000000000007bffffffffffffffffffffffffffffffffffffffffffffffffffffffff1916827bffffffffffffffffffffffffffffffffffffffffffffffffffffffff1916149050919050565b600033905090565b6000612130836000018360001b6124f2565b905092915050565b600061214a836000018360001b612515565b905092915050565b6121638161215e612116565b612629565b50565b612170828261091f565b61224257600180600084815260200190815260200160002060000160008373ffffffffffffffffffffffffffffffffffffffff1673ffffffffffffffffffffffffffffffffffffffff16815260200190815260200160002060006101000a81548160ff0219169083151502179055506121e7612116565b73ffffffffffffffffffffffffffffffffffffffff168173ffffffffffffffffffffffffffffffffffffffff16837f2f8788117e7eff1d82e926ec794901d17c78024a50270940304540a733656f0d60405160405180910390a45b5050565b612250828261091f565b156123245760006001600084815260200190815260200160002060000160008373ffffffffffffffffffffffffffffffffffffffff1673ffffffffffffffffffffffffffffffffffffffff16815260200190815260200160002060006101000a81548160ff0219169083151502179055506122c9612116565b73ffffffffffffffffffffffffffffffffffffffff168173ffffffffffffffffffffffffffffffffffffffff16837ff6391f5c32d9c69d2a47ea670b442974b53935d1edc7fd64eb21e047a839171b60405160405180910390a45b5050565b60008060009054906101000a900473ffffffffffffffffffffffffffffffffffffffff169050816000806101000a81548173ffffffffffffffffffffffffffffffffffffffff021916908373ffffffffffffffffffffffffffffffffffffffff1602179055508173ffffffffffffffffffffffffffffffffffffffff168173ffffffffffffffffffffffffffffffffffffffff167f8be0079c531659141344cd1fd0a4f28419497f9722a3daafe3b4186f6b6457e060405160405180910390a35050565b600080821215612431576040517f08c379a0000000000000000000000000000000000000000000000000000000008152600401612428906135b3565b60405180910390fd5b819050919050565b6000612447826000016126c6565b9050919050565b600061245d83600001836126d7565b60001c905092915050565b600081831015612478578161247a565b825b905092915050565b600061248e83836124f2565b6124e75782600001829080600181540180825580915050600190039060005260206000200160009091909190915055826000018054905083600101600084815260200190815260200160002081905550600190506124ec565b600090505b92915050565b600080836001016000848152602001908152602001600020541415905092915050565b6000808360010160008481526020019081526020016000205490506000811461261d5760006001826125479190613302565b905060006001866000018054905061255f9190613302565b90508181146125ce5760008660000182815481106125805761257f6135d3565b5b90600052602060002001549050808760000184815481106125a4576125a36135d3565b5b90600052602060002001819055508387600101600083815260200190815260200160002081905550505b856000018054806125e2576125e1613602565b5b600190038181906000526020600020016000905590558560010160008681526020019081526020016000206000905560019350505050612623565b60009150505b92915050565b612633828261091f565b6126c2576126588173ffffffffffffffffffffffffffffffffffffffff166014612702565b6126668360001c6020612702565b604051602001612677929190613743565b6040516020818303038152906040526040517f08c379a00000000000000000000000000000000000000000000000000000000081526004016126b991906137b6565b60405180910390fd5b5050565b600081600001805490509050919050565b60008260000182815481106126ef576126ee6135d3565b5b9060005260206000200154905092915050565b606060006002836002612715919061317e565b61271f9190613128565b67ffffffffffffffff81111561273857612737612d12565b5b6040519080825280601f01601f19166020018201604052801561276a5781602001600182028036833780820191505090505b5090507f3000000000000000000000000000000000000000000000000000000000000000816000815181106127a2576127a16135d3565b5b60200101907effffffffffffffffffffffffffffffffffffffffffffffffffffffffffffff1916908160001a9053507f780000000000000000000000000000000000000000000000000000000000000081600181518110612806576128056135d3565b5b60200101907effffffffffffffffffffffffffffffffffffffffffffffffffffffffffffff1916908160001a90535060006001846002612846919061317e565b6128509190613128565b90505b60018111156128f0577f3031323334353637383961626364656600000000000000000000000000000000600f861660108110612892576128916135d3565b5b1a60f81b8282815181106128a9576128a86135d3565b5b60200101907effffffffffffffffffffffffffffffffffffffffffffffffffffffffffffff1916908160001a905350600485901c9450806128e9906137d8565b9050612853565b5060008414612934576040517f08c379a000000000000000000000000000000000000000000000000000000000815260040161292b9061384d565b60405180910390fd5b8091505092915050565b60405180610100016040528060008152602001600081526020016000815260200160008152602001600081526020016000815260200160008152602001600081525090565b6000819050919050565b61299681612983565b82525050565b60006020820190506129b1600083018461298d565b92915050565b6000604051905090565b600080fd5b60007fffffffff0000000000000000000000000000000000000000000000000000000082169050919050565b6129fb816129c6565b8114612a0657600080fd5b50565b600081359050612a18816129f2565b92915050565b600060208284031215612a3457612a336129c1565b5b6000612a4284828501612a09565b91505092915050565b60008115159050919050565b612a6081612a4b565b82525050565b6000602082019050612a7b6000830184612a57565b92915050565b612a8a81612983565b8114612a9557600080fd5b50565b600081359050612aa781612a81565b92915050565b600060208284031215612ac357612ac26129c1565b5b6000612ad184828501612a98565b91505092915050565b6000819050919050565b612aed81612ada565b8114612af857600080fd5b50565b600081359050612b0a81612ae4565b92915050565b600060208284031215612b2657612b256129c1565b5b6000612b3484828501612afb565b91505092915050565b600073ffffffffffffffffffffffffffffffffffffffff82169050919050565b6000612b6882612b3d565b9050919050565b612b7881612b5d565b8114612b8357600080fd5b50565b600081359050612b9581612b6f565b92915050565b60008060408385031215612bb257612bb16129c1565b5b6000612bc085828601612a98565b9250506020612bd185828601612b86565b9150509250929050565b612be481612ada565b82525050565b6000602082019050612bff6000830184612bdb565b92915050565b612c0e81612ada565b82525050565b61010082016000820151612c2b6000850182612c05565b506020820151612c3e6020850182612c05565b506040820151612c516040850182612c05565b506060820151612c646060850182612c05565b506080820151612c776080850182612c05565b5060a0820151612c8a60a0850182612c05565b5060c0820151612c9d60c0850182612c05565b5060e0820151612cb060e0850182612c05565b50505050565b600061010082019050612ccc6000830184612c14565b92915050565b612cdb81612b5d565b82525050565b6000602082019050612cf66000830184612cd2565b92915050565b600080fd5b6000601f19601f8301169050919050565b7f4e487b7100000000000000000000000000000000000000000000000000000000600052604160045260246000fd5b612d4a82612d01565b810181811067ffffffffffffffff82111715612d6957612d68612d12565b5b80604052505050565b6000612d7c6129b7565b9050612d888282612d41565b919050565b600060c08284031215612da357612da2612cfc565b5b612dad60c0612d72565b90506000612dbd84828501612afb565b6000830152506020612dd184828501612afb565b6020830152506040612de584828501612afb565b6040830152506060612df984828501612afb565b6060830152506080612e0d84828501612afb565b60808301525060a0612e2184828501612afb565b60a08301525092915050565b60008060e08385031215612e4457612e436129c1565b5b6000612e5285828601612afb565b9250506020612e6385828601612d8d565b9150509250929050565b600060208284031215612e8357612e826129c1565b5b6000612e9184828501612b86565b91505092915050565b600082825260208201905092915050565b7f4f776e61626c653a2063616c6c6572206973206e6f7420746865206f776e6572600082015250565b6000612ee1602083612e9a565b9150612eec82612eab565b602082019050919050565b60006020820190508181036000830152612f1081612ed4565b9050919050565b6000604082019050612f2c6000830185612bdb565b612f396020830184612cd2565b9392505050565b7f416363657373436f6e74726f6c3a2063616e206f6e6c792072656e6f756e636560008201527f20726f6c657320666f722073656c660000000000000000000000000000000000602082015250565b6000612f9c602f83612e9a565b9150612fa782612f40565b604082019050919050565b60006020820190508181036000830152612fcb81612f8f565b9050919050565b612fdb81612ada565b82525050565b6000604082019050612ff66000830185612fd2565b6130036020830184612fd2565b9392505050565b60008151905061301981612ae4565b92915050565b600060208284031215613035576130346129c1565b5b60006130438482850161300a565b91505092915050565b60006020820190506130616000830184612fd2565b92915050565b7f496e707574206f7074696f6e2074656e6f72206973206e6f7420616c6c6f776560008201527f642e000000000000000000000000000000000000000000000000000000000000602082015250565b60006130c3602283612e9a565b91506130ce82613067565b604082019050919050565b600060208201905081810360008301526130f2816130b6565b9050919050565b7f4e487b7100000000000000000000000000000000000000000000000000000000600052601160045260246000fd5b600061313382612ada565b915061313e83612ada565b9250827fffffffffffffffffffffffffffffffffffffffffffffffffffffffffffffffff03821115613173576131726130f9565b5b828201905092915050565b600061318982612ada565b915061319483612ada565b9250817fffffffffffffffffffffffffffffffffffffffffffffffffffffffffffffffff04831182151516156131cd576131cc6130f9565b5b828202905092915050565b60006060820190506131ed6000830186612fd2565b6131fa6020830185612fd2565b6132076040830184612fd2565b949350505050565b600069ffffffffffffffffffff82169050919050565b61322e8161320f565b811461323957600080fd5b50565b60008151905061324b81613225565b92915050565b6000819050919050565b61326481613251565b811461326f57600080fd5b50565b6000815190506132818161325b565b92915050565b600080600080600060a086880312156132a3576132a26129c1565b5b60006132b18882890161323c565b95505060206132c288828901613272565b94505060406132d38882890161300a565b93505060606132e48882890161300a565b92505060806132f58882890161323c565b9150509295509295909350565b600061330d82612ada565b915061331883612ada565b92508282101561332b5761332a6130f9565b5b828203905092915050565b60008160001c9050919050565b6000819050919050565b600061336061335b83613336565b613343565b9050919050565b6101008201600080830154905061337d8161334d565b61338a6000860182612c05565b506001830154905061339b8161334d565b6133a86020860182612c05565b50600283015490506133b98161334d565b6133c66040860182612c05565b50600383015490506133d78161334d565b6133e46060860182612c05565b50600483015490506133f58161334d565b6134026080860182612c05565b50600583015490506134138161334d565b61342060a0860182612c05565b50600683015490506134318161334d565b61343e60c0860182612c05565b506007830154905061344f8161334d565b61345c60e0860182612c05565b5050505050565b6000610120820190506134796000830185612bdb565b6134866020830184613367565b9392505050565b600061349882612ada565b91507fffffffffffffffffffffffffffffffffffffffffffffffffffffffffffffffff82036134ca576134c96130f9565b5b600182019050919050565b7f4f776e61626c653a206e6577206f776e657220697320746865207a65726f206160008201527f6464726573730000000000000000000000000000000000000000000000000000602082015250565b6000613531602683612e9a565b915061353c826134d5565b604082019050919050565b6000602082019050818103600083015261356081613524565b9050919050565b7f53616665436173743a2076616c7565206d75737420626520706f736974697665600082015250565b600061359d602083612e9a565b91506135a882613567565b602082019050919050565b600060208201905081810360008301526135cc81613590565b9050919050565b7f4e487b7100000000000000000000000000000000000000000000000000000000600052603260045260246000fd5b7f4e487b7100000000000000000000000000000000000000000000000000000000600052603160045260246000fd5b600081905092915050565b7f416363657373436f6e74726f6c3a206163636f756e7420000000000000000000600082015250565b6000613672601783613631565b915061367d8261363c565b601782019050919050565b600081519050919050565b60005b838110156136b1578082015181840152602081019050613696565b838111156136c0576000848401525b50505050565b60006136d182613688565b6136db8185613631565b93506136eb818560208601613693565b80840191505092915050565b7f206973206d697373696e6720726f6c6520000000000000000000000000000000600082015250565b600061372d601183613631565b9150613738826136f7565b601182019050919050565b600061374e82613665565b915061375a82856136c6565b915061376582613720565b915061377182846136c6565b91508190509392505050565b600061378882613688565b6137928185612e9a565b93506137a2818560208601613693565b6137ab81612d01565b840191505092915050565b600060208201905081810360008301526137d0818461377d565b905092915050565b60006137e382612ada565b9150600082036137f6576137f56130f9565b5b600182039050919050565b7f537472696e67733a20686578206c656e67746820696e73756666696369656e74600082015250565b6000613837602083612e9a565b915061384282613801565b602082019050919050565b600060208201905081810360008301526138668161382a565b905091905056fea264697066735822122065b53f86970989e3b80f01ec19c0bcfaf2ed3850f5ea7a0e759bc5c0f155640c64736f6c634300080e0033",
  "immutableReferences": {
    "11838": [
      {
        "length": 32,
        "start": 3861
      },
      {
        "length": 32,
        "start": 3990
      },
      {
        "length": 32,
        "start": 4038
      },
      {
        "length": 32,
        "start": 4100
      },
      {
        "length": 32,
        "start": 4247
      },
      {
        "length": 32,
        "start": 4313
      },
      {
        "length": 32,
        "start": 4485
      },
      {
        "length": 32,
        "start": 4614
      },
      {
        "length": 32,
        "start": 6115
      },
      {
        "length": 32,
        "start": 7896
      }
    ],
    "11851": [
      {
        "length": 32,
        "start": 2614
      },
      {
        "length": 32,
        "start": 2882
      },
      {
        "length": 32,
        "start": 4789
      },
      {
        "length": 32,
        "start": 4962
      },
      {
        "length": 32,
        "start": 5297
      },
      {
        "length": 32,
        "start": 5470
      }
    ]
  },
  "source": "// SPDX-License-Identifier: MIT\npragma solidity ^0.8.4;\n\nimport {Ownable} from \"@openzeppelin/contracts/access/Ownable.sol\";\nimport \"@openzeppelin/contracts/utils/math/Math.sol\";\nimport {AccessControl} from \"@openzeppelin/contracts/access/AccessControl.sol\";\nimport \"@openzeppelin/contracts/utils/structs/EnumerableSet.sol\";\nimport \"@openzeppelin/contracts/utils/math/SafeCast.sol\";\nimport \"@chainlink/contracts/src/v0.8/interfaces/AggregatorV3Interface.sol\";\n\nimport \"./libraries/MathLib.sol\";\nimport \"./interfaces/IVolatilityChain.sol\";\n\ncontract VolatilityChain is Ownable, AccessControl, IVolatilityChain{\n  using MathLib for uint256;\n  using EnumerableSet for EnumerableSet.UintSet;\n\n  bytes32 public constant UPDATE_ROLE = keccak256(\"UPDATE_ROLE\");\n  AggregatorV3Interface internal priceInterface;\n  bytes32 public tokenHash;\n  EnumerableSet.UintSet tenors;\n\n  mapping(uint256=>mapping(uint256=>PriceStamp)) private priceBook;\n  mapping(uint256=>uint256) public latestBookTime;\n\n  uint256 internal immutable priceMultiplier;\n\n  uint256 public volatilityUpdateCounter;\n  uint256 public volatilityUpdateTime;\n\n  mapping(uint256=> VolParam) internal volatilityParameters;\n  uint256 internal immutable volParamDecimals;\n  uint256 internal immutable parameterMultiplier;\n\n  uint256 internal constant SECONDS_1Y = 31536000; // 365 * 24 * 60 * 60\n\n  constructor(AggregatorV3Interface _priceSource, uint256 _parameterDecimals, string memory _tokenName, address _updateAddress )  {\n    _setupRole(DEFAULT_ADMIN_ROLE, msg.sender); \n\n    _setupRole(UPDATE_ROLE, _updateAddress);\n    tokenHash = keccak256(bytes(_tokenName));\n    tenors.add(1 days);\n    tenors.add(7 days);\n    tenors.add(30 days);\n\n    priceInterface = _priceSource;\n    priceMultiplier = 10 ** _priceSource.decimals();\n    volParamDecimals = _parameterDecimals;\n    parameterMultiplier = 10 ** _parameterDecimals;}\n\n  function queryVol(uint256 _tenor) external override view returns(uint256 _vol){\n    _vol = 0;\n    if(tenors.contains(_tenor)){ \n      _vol = priceBook[_tenor][latestBookTime[_tenor]].volatility;}\n    else {\n      uint256 _upperTenor = 0;\n      uint256 _lowerTenor = 0;\n      uint _tenorsCount = tenors.length();\n\n      for(uint i = 0;i< _tenorsCount;i++){\n        uint256 _tenorI = tenors.at(i);\n        if(_tenorI >_tenor && (_tenorI < _upperTenor || _upperTenor == 0) ){ \n          _upperTenor = _tenorI; }\n        if(_tenorI <_tenor && (_tenorI > _lowerTenor || _lowerTenor == 0) ){ \n          _lowerTenor = _tenorI; }}\n\n      if(_upperTenor == 0 && _lowerTenor > 0) { \n        uint256 _lowerVol = priceBook[_lowerTenor][latestBookTime[_lowerTenor]].volatility;\n        _vol = _lowerVol.muldiv(_tenor.sqrt() , _lowerTenor.sqrt());}\n      else if(_lowerTenor==0 && _upperTenor > 0) {\n        uint256 _upperVol = priceBook[_upperTenor][latestBookTime[_upperTenor]].volatility;\n        _vol = _upperVol.muldiv( _tenor.sqrt() , _upperTenor.sqrt());}\n      else if(_upperTenor >0 && _lowerTenor >0){ \n        uint256 _lowerVol = priceBook[_lowerTenor][latestBookTime[_lowerTenor]].volatility;\n        uint256 _upperVol = priceBook[_upperTenor][latestBookTime[_upperTenor]].volatility;\n        uint256 _tenorInterval = _upperTenor - _lowerTenor;\n        _vol = _lowerVol.muldiv( _upperTenor - _tenor,  _tenorInterval) + _upperVol.muldiv( _tenor - _lowerTenor, _tenorInterval);}}\n\n      _vol = _vol.ethdiv(priceMultiplier);}\n\n  function queryPrice() external override view returns(uint256){\n    (,int _price,,,) = priceInterface.latestRoundData();\n    return SafeCast.toUint256(_price).ethdiv(priceMultiplier);}\n\n  function update() external onlyRole(UPDATE_ROLE){\n    (,int _price,,uint _timeStamp,) = priceInterface.latestRoundData();\n    uint256 _updatePrice = SafeCast.toUint256(_price);\n    uint _tenorsCount = tenors.length();\n\n    for(uint i = 0;i< _tenorsCount;i++) {\n      uint256 _tenor = tenors.at(i);\n      uint256 _latestTimeStamp = latestBookTime[_tenor];\n      PriceStamp storage _priceStamp = priceBook[_tenor][_latestTimeStamp];\n      if(_updatePrice > _priceStamp.highest){\n        _priceStamp.highest=_updatePrice;}\n      if(_updatePrice<_priceStamp.lowest){\n         _priceStamp.lowest=_updatePrice;}\n\n      if(_timeStamp>= (_latestTimeStamp + _tenor)){\n        _priceStamp.endTime = _timeStamp;\n        _priceStamp.close = _updatePrice;\n        uint256 _open = _priceStamp.open;\n        uint256 _periodMove = (_open < _updatePrice)? (_updatePrice.muldiv( priceMultiplier, _open) - priceMultiplier) : (priceMultiplier - _updatePrice.muldiv( priceMultiplier, _open ));\n        uint256 _largestMove = Math.max(_priceStamp.highest.muldiv(priceMultiplier, _open) - priceMultiplier , priceMultiplier - _priceStamp.lowest.muldiv( priceMultiplier, _open ));\n\n        PriceStamp storage _newPriceStamp = priceBook[_tenor][_timeStamp];\n        VolParam storage _volParameter = volatilityParameters[_tenor];\n        _newPriceStamp.startTime = _timeStamp;\n        _newPriceStamp.volatility = (_volParameter.ltVolWeighted + (_periodMove * _periodMove).muldiv( _volParameter.q, parameterMultiplier) + (_priceStamp.volatility * _priceStamp.volatility).muldiv( _volParameter.p, parameterMultiplier)).sqrt();\n        _newPriceStamp.accentus = (_volParameter.ltVolWeighted + (_largestMove * _largestMove).muldiv( _volParameter.q, parameterMultiplier) + (_priceStamp.accentus * _priceStamp.accentus).muldiv( _volParameter.p, parameterMultiplier)).sqrt();\n        _newPriceStamp.open = _newPriceStamp.highest = _newPriceStamp.lowest = _updatePrice;\n\n        latestBookTime[_tenor] = _timeStamp;\n        emit NewVolatilityChainBlock(_tenor, _timeStamp, _newPriceStamp);} }\n\n    volatilityUpdateTime = _timeStamp;\n    volatilityUpdateCounter ++;}\n\n  function resetVolParams(uint256 _tenor, VolParam memory _volParams) external onlyOwner{\n    if(!tenors.contains(_tenor)){\n      tenors.add(_tenor);}\n    // sqrtRatios[_tenor] = _ratio;\n    \n    require((_volParams.w + _volParams.p + _volParams.q)==parameterMultiplier);\n    volatilityParameters[_tenor] = _volParams;\n    volatilityParameters[_tenor].ltVolWeighted = (volatilityParameters[_tenor].ltVol*volatilityParameters[_tenor].ltVol).muldiv( volatilityParameters[_tenor].w, parameterMultiplier);\n\n    (,int _price,,uint _timeStamp,) = priceInterface.latestRoundData();\n    uint256 _updatePrice = SafeCast.toUint256(_price);\n\n    latestBookTime[_tenor] = _timeStamp;\n    PriceStamp storage _priceStamp = priceBook[_tenor][_timeStamp];\n    _priceStamp.startTime = _timeStamp;\n    _priceStamp.volatility = _priceStamp.accentus = volatilityParameters[_tenor].initialVol;\n    _priceStamp.open = _priceStamp.highest = _priceStamp.lowest = _updatePrice;\n    emit ResetVolChainParameter(_tenor, block.timestamp, msg.sender);}\n\n  function removeTenor(uint256 _tenor) external onlyOwner{\n    require(tenors.contains(_tenor));\n    tenors.remove(_tenor);\n    emit RemovedTenor(_tenor, block.timestamp, msg.sender);}\n\n  function getPriceBook(uint256 _tenor) external view returns(PriceStamp memory){\n    require(tenors.contains(_tenor), \"Input option tenor is not allowed.\");\n    return priceBook[_tenor][latestBookTime[_tenor]];}\n\n  // // update sqrt ratio\n  // function updateSqrtRatio(uint256 _tenor, uint256 _ratio) external onlyOwner{\n  //     if(!tenors.contains(_tenor)){\n  //       tenors.add(_tenor);}\n  //     sqrtRatios[_tenor] = _ratio;}\n  \n  function getSqrtRatio(uint256 _tenor) external pure returns(uint256){\n    return SECONDS_1Y.ethdiv(_tenor).sqrt();\n    }\n}\n",
  "sourcePath": "/Users/mac/Documents/GitHub/moret/contracts/VolatilityChain.sol",
  "compiler": {
    "name": "solc",
    "version": "0.8.14+commit.80d49f37.Emscripten.clang"
  },
  "schemaVersion": "3.4.3",
  "updatedAt": "2022-05-21T14:35:35.286Z",
  "networkType": "ethereum",
  "devdoc": {
    "kind": "dev",
    "methods": {
      "getRoleAdmin(bytes32)": {
        "details": "Returns the admin role that controls `role`. See {grantRole} and {revokeRole}. To change a role's admin, use {_setRoleAdmin}."
      },
      "grantRole(bytes32,address)": {
        "details": "Grants `role` to `account`. If `account` had not been already granted `role`, emits a {RoleGranted} event. Requirements: - the caller must have ``role``'s admin role."
      },
      "hasRole(bytes32,address)": {
        "details": "Returns `true` if `account` has been granted `role`."
      },
      "owner()": {
        "details": "Returns the address of the current owner."
      },
      "renounceOwnership()": {
        "details": "Leaves the contract without owner. It will not be possible to call `onlyOwner` functions anymore. Can only be called by the current owner. NOTE: Renouncing ownership will leave the contract without an owner, thereby removing any functionality that is only available to the owner."
      },
      "renounceRole(bytes32,address)": {
        "details": "Revokes `role` from the calling account. Roles are often managed via {grantRole} and {revokeRole}: this function's purpose is to provide a mechanism for accounts to lose their privileges if they are compromised (such as when a trusted device is misplaced). If the calling account had been revoked `role`, emits a {RoleRevoked} event. Requirements: - the caller must be `account`."
      },
      "revokeRole(bytes32,address)": {
        "details": "Revokes `role` from `account`. If `account` had been granted `role`, emits a {RoleRevoked} event. Requirements: - the caller must have ``role``'s admin role."
      },
      "supportsInterface(bytes4)": {
        "details": "See {IERC165-supportsInterface}."
      },
      "transferOwnership(address)": {
        "details": "Transfers ownership of the contract to a new account (`newOwner`). Can only be called by the current owner."
      }
    },
    "version": 1
  },
  "userdoc": {
    "kind": "user",
    "methods": {},
    "version": 1
  }
}