{
  "contractName": "VolatilityChain",
  "abi": [
    {
      "inputs": [
        {
          "internalType": "address",
          "name": "_priceSourceId",
          "type": "address"
        },
        {
          "internalType": "uint256",
          "name": "_parameterDecimals",
          "type": "uint256"
        },
        {
          "internalType": "string",
          "name": "_tokenName",
          "type": "string"
        }
      ],
      "stateMutability": "nonpayable",
      "type": "constructor"
    },
    {
      "anonymous": false,
      "inputs": [
        {
          "indexed": false,
          "internalType": "uint256",
          "name": "_tenor",
          "type": "uint256"
        },
        {
          "components": [
            {
              "internalType": "uint256",
              "name": "initialVol",
              "type": "uint256"
            },
            {
              "internalType": "uint256",
              "name": "ltVol",
              "type": "uint256"
            },
            {
              "internalType": "uint256",
              "name": "ltVolWeighted",
              "type": "uint256"
            },
            {
              "internalType": "uint256",
              "name": "w",
              "type": "uint256"
            },
            {
              "internalType": "uint256",
              "name": "p",
              "type": "uint256"
            },
            {
              "internalType": "uint256",
              "name": "q",
              "type": "uint256"
            }
          ],
          "indexed": false,
          "internalType": "struct VolatilityChain.VolParam",
          "name": "_volParams",
          "type": "tuple"
        }
      ],
      "name": "NewParameters",
      "type": "event"
    },
    {
      "anonymous": false,
      "inputs": [
        {
          "indexed": false,
          "internalType": "uint256",
          "name": "_newTenor",
          "type": "uint256"
        }
      ],
      "name": "NewTenor",
      "type": "event"
    },
    {
      "anonymous": false,
      "inputs": [
        {
          "indexed": false,
          "internalType": "uint256",
          "name": "_updateTime",
          "type": "uint256"
        },
        {
          "indexed": false,
          "internalType": "uint256",
          "name": "_updatePrice",
          "type": "uint256"
        },
        {
          "indexed": false,
          "internalType": "uint256",
          "name": "_counter",
          "type": "uint256"
        }
      ],
      "name": "OneUpdateCompleted",
      "type": "event"
    },
    {
      "anonymous": false,
      "inputs": [
        {
          "indexed": true,
          "internalType": "address",
          "name": "previousOwner",
          "type": "address"
        },
        {
          "indexed": true,
          "internalType": "address",
          "name": "newOwner",
          "type": "address"
        }
      ],
      "name": "OwnershipTransferred",
      "type": "event"
    },
    {
      "anonymous": false,
      "inputs": [
        {
          "indexed": true,
          "internalType": "bytes32",
          "name": "role",
          "type": "bytes32"
        },
        {
          "indexed": true,
          "internalType": "bytes32",
          "name": "previousAdminRole",
          "type": "bytes32"
        },
        {
          "indexed": true,
          "internalType": "bytes32",
          "name": "newAdminRole",
          "type": "bytes32"
        }
      ],
      "name": "RoleAdminChanged",
      "type": "event"
    },
    {
      "anonymous": false,
      "inputs": [
        {
          "indexed": true,
          "internalType": "bytes32",
          "name": "role",
          "type": "bytes32"
        },
        {
          "indexed": true,
          "internalType": "address",
          "name": "account",
          "type": "address"
        },
        {
          "indexed": true,
          "internalType": "address",
          "name": "sender",
          "type": "address"
        }
      ],
      "name": "RoleGranted",
      "type": "event"
    },
    {
      "anonymous": false,
      "inputs": [
        {
          "indexed": true,
          "internalType": "bytes32",
          "name": "role",
          "type": "bytes32"
        },
        {
          "indexed": true,
          "internalType": "address",
          "name": "account",
          "type": "address"
        },
        {
          "indexed": true,
          "internalType": "address",
          "name": "sender",
          "type": "address"
        }
      ],
      "name": "RoleRevoked",
      "type": "event"
    },
    {
      "anonymous": false,
      "inputs": [
        {
          "indexed": false,
          "internalType": "uint256",
          "name": "_updateTime",
          "type": "uint256"
        },
        {
          "indexed": false,
          "internalType": "uint256",
          "name": "_tenor",
          "type": "uint256"
        },
        {
          "indexed": false,
          "internalType": "uint256",
          "name": "_updatePrice",
          "type": "uint256"
        },
        {
          "indexed": false,
          "internalType": "uint256",
          "name": "_updateVolatility",
          "type": "uint256"
        }
      ],
      "name": "VolatilityUpdated",
      "type": "event"
    },
    {
      "inputs": [],
      "name": "DEFAULT_ADMIN_ROLE",
      "outputs": [
        {
          "internalType": "bytes32",
          "name": "",
          "type": "bytes32"
        }
      ],
      "stateMutability": "view",
      "type": "function"
    },
    {
      "inputs": [],
      "name": "UPDATE_ROLE",
      "outputs": [
        {
          "internalType": "bytes32",
          "name": "",
          "type": "bytes32"
        }
      ],
      "stateMutability": "view",
      "type": "function"
    },
    {
      "inputs": [],
      "name": "decimals",
      "outputs": [
        {
          "internalType": "uint256",
          "name": "",
          "type": "uint256"
        }
      ],
      "stateMutability": "view",
      "type": "function"
    },
    {
      "inputs": [],
      "name": "description",
      "outputs": [
        {
          "internalType": "string",
          "name": "",
          "type": "string"
        }
      ],
      "stateMutability": "view",
      "type": "function"
    },
    {
      "inputs": [
        {
          "internalType": "bytes32",
          "name": "role",
          "type": "bytes32"
        }
      ],
      "name": "getRoleAdmin",
      "outputs": [
        {
          "internalType": "bytes32",
          "name": "",
          "type": "bytes32"
        }
      ],
      "stateMutability": "view",
      "type": "function"
    },
    {
      "inputs": [
        {
          "internalType": "bytes32",
          "name": "role",
          "type": "bytes32"
        },
        {
          "internalType": "address",
          "name": "account",
          "type": "address"
        }
      ],
      "name": "grantRole",
      "outputs": [],
      "stateMutability": "nonpayable",
      "type": "function"
    },
    {
      "inputs": [
        {
          "internalType": "bytes32",
          "name": "role",
          "type": "bytes32"
        },
        {
          "internalType": "address",
          "name": "account",
          "type": "address"
        }
      ],
      "name": "hasRole",
      "outputs": [
        {
          "internalType": "bool",
          "name": "",
          "type": "bool"
        }
      ],
      "stateMutability": "view",
      "type": "function"
    },
    {
      "inputs": [],
      "name": "owner",
      "outputs": [
        {
          "internalType": "address",
          "name": "",
          "type": "address"
        }
      ],
      "stateMutability": "view",
      "type": "function"
    },
    {
      "inputs": [],
      "name": "renounceOwnership",
      "outputs": [],
      "stateMutability": "nonpayable",
      "type": "function"
    },
    {
      "inputs": [
        {
          "internalType": "bytes32",
          "name": "role",
          "type": "bytes32"
        },
        {
          "internalType": "address",
          "name": "account",
          "type": "address"
        }
      ],
      "name": "renounceRole",
      "outputs": [],
      "stateMutability": "nonpayable",
      "type": "function"
    },
    {
      "inputs": [
        {
          "internalType": "bytes32",
          "name": "role",
          "type": "bytes32"
        },
        {
          "internalType": "address",
          "name": "account",
          "type": "address"
        }
      ],
      "name": "revokeRole",
      "outputs": [],
      "stateMutability": "nonpayable",
      "type": "function"
    },
    {
      "inputs": [
        {
          "internalType": "bytes4",
          "name": "interfaceId",
          "type": "bytes4"
        }
      ],
      "name": "supportsInterface",
      "outputs": [
        {
          "internalType": "bool",
          "name": "",
          "type": "bool"
        }
      ],
      "stateMutability": "view",
      "type": "function"
    },
    {
      "inputs": [],
      "name": "tokenHash",
      "outputs": [
        {
          "internalType": "bytes32",
          "name": "",
          "type": "bytes32"
        }
      ],
      "stateMutability": "view",
      "type": "function"
    },
    {
      "inputs": [
        {
          "internalType": "address",
          "name": "newOwner",
          "type": "address"
        }
      ],
      "name": "transferOwnership",
      "outputs": [],
      "stateMutability": "nonpayable",
      "type": "function"
    },
    {
      "inputs": [],
      "name": "volParamDecimals",
      "outputs": [
        {
          "internalType": "uint256",
          "name": "",
          "type": "uint256"
        }
      ],
      "stateMutability": "view",
      "type": "function"
    },
    {
      "inputs": [
        {
          "internalType": "uint256",
          "name": "",
          "type": "uint256"
        }
      ],
      "name": "volatilityParameters",
      "outputs": [
        {
          "internalType": "uint256",
          "name": "initialVol",
          "type": "uint256"
        },
        {
          "internalType": "uint256",
          "name": "ltVol",
          "type": "uint256"
        },
        {
          "internalType": "uint256",
          "name": "ltVolWeighted",
          "type": "uint256"
        },
        {
          "internalType": "uint256",
          "name": "w",
          "type": "uint256"
        },
        {
          "internalType": "uint256",
          "name": "p",
          "type": "uint256"
        },
        {
          "internalType": "uint256",
          "name": "q",
          "type": "uint256"
        }
      ],
      "stateMutability": "view",
      "type": "function"
    },
    {
      "inputs": [],
      "name": "volatilityUpdateCounter",
      "outputs": [
        {
          "internalType": "uint256",
          "name": "",
          "type": "uint256"
        }
      ],
      "stateMutability": "view",
      "type": "function"
    },
    {
      "inputs": [],
      "name": "volatilityUpdateTime",
      "outputs": [
        {
          "internalType": "uint256",
          "name": "",
          "type": "uint256"
        }
      ],
      "stateMutability": "view",
      "type": "function"
    },
    {
      "inputs": [
        {
          "internalType": "uint256",
          "name": "_tenor",
          "type": "uint256"
        }
      ],
      "name": "getVol",
      "outputs": [
        {
          "internalType": "uint256",
          "name": "",
          "type": "uint256"
        }
      ],
      "stateMutability": "view",
      "type": "function"
    },
    {
      "inputs": [],
      "name": "queryPrice",
      "outputs": [
        {
          "internalType": "uint256",
          "name": "",
          "type": "uint256"
        },
        {
          "internalType": "uint256",
          "name": "",
          "type": "uint256"
        }
      ],
      "stateMutability": "view",
      "type": "function"
    },
    {
      "inputs": [],
      "name": "update",
      "outputs": [],
      "stateMutability": "nonpayable",
      "type": "function"
    },
    {
      "inputs": [
        {
          "internalType": "uint256[]",
          "name": "_tenorList",
          "type": "uint256[]"
        },
        {
          "components": [
            {
              "internalType": "uint256",
              "name": "initialVol",
              "type": "uint256"
            },
            {
              "internalType": "uint256",
              "name": "ltVol",
              "type": "uint256"
            },
            {
              "internalType": "uint256",
              "name": "ltVolWeighted",
              "type": "uint256"
            },
            {
              "internalType": "uint256",
              "name": "w",
              "type": "uint256"
            },
            {
              "internalType": "uint256",
              "name": "p",
              "type": "uint256"
            },
            {
              "internalType": "uint256",
              "name": "q",
              "type": "uint256"
            }
          ],
          "internalType": "struct VolatilityChain.VolParam",
          "name": "_volParams",
          "type": "tuple"
        }
      ],
      "name": "resetVolParamsList",
      "outputs": [],
      "stateMutability": "nonpayable",
      "type": "function"
    },
    {
      "inputs": [
        {
          "internalType": "uint256",
          "name": "_tenor",
          "type": "uint256"
        },
        {
          "components": [
            {
              "internalType": "uint256",
              "name": "initialVol",
              "type": "uint256"
            },
            {
              "internalType": "uint256",
              "name": "ltVol",
              "type": "uint256"
            },
            {
              "internalType": "uint256",
              "name": "ltVolWeighted",
              "type": "uint256"
            },
            {
              "internalType": "uint256",
              "name": "w",
              "type": "uint256"
            },
            {
              "internalType": "uint256",
              "name": "p",
              "type": "uint256"
            },
            {
              "internalType": "uint256",
              "name": "q",
              "type": "uint256"
            }
          ],
          "internalType": "struct VolatilityChain.VolParam",
          "name": "_volParams",
          "type": "tuple"
        }
      ],
      "name": "resetVolParams",
      "outputs": [],
      "stateMutability": "nonpayable",
      "type": "function"
    },
    {
      "inputs": [
        {
          "internalType": "uint256",
          "name": "_tenor",
          "type": "uint256"
        }
      ],
      "name": "removeTenor",
      "outputs": [],
      "stateMutability": "nonpayable",
      "type": "function"
    },
    {
      "inputs": [
        {
          "internalType": "uint256",
          "name": "_tenor",
          "type": "uint256"
        }
      ],
      "name": "displayPriceBook",
      "outputs": [
        {
          "components": [
            {
              "internalType": "uint256",
              "name": "startTime",
              "type": "uint256"
            },
            {
              "internalType": "uint256",
              "name": "endTime",
              "type": "uint256"
            },
            {
              "internalType": "uint256",
              "name": "open",
              "type": "uint256"
            },
            {
              "internalType": "uint256",
              "name": "highest",
              "type": "uint256"
            },
            {
              "internalType": "uint256",
              "name": "lowest",
              "type": "uint256"
            },
            {
              "internalType": "uint256",
              "name": "volatility",
              "type": "uint256"
            }
          ],
          "internalType": "struct VolatilityChain.PriceStamp",
          "name": "",
          "type": "tuple"
        }
      ],
      "stateMutability": "view",
      "type": "function"
    }
  ],
  "bytecode": "0x60806040523480156200001157600080fd5b5060405162003d4b38038062003d4b8339818101604052810190620000379190620006e1565b6000620000496200033560201b60201c565b9050806000806101000a81548173ffffffffffffffffffffffffffffffffffffffff021916908373ffffffffffffffffffffffffffffffffffffffff1602179055508073ffffffffffffffffffffffffffffffffffffffff16600073ffffffffffffffffffffffffffffffffffffffff167f8be0079c531659141344cd1fd0a4f28419497f9722a3daafe3b4186f6b6457e060405160405180910390a350620000fc6000801b336200033d60201b60201c565b806040516020016200010f919062000816565b60405160208183030381529060405280519060200120600381905550620001496201518060056200035360201b620016b01790919060201c565b5082600260006101000a81548173ffffffffffffffffffffffffffffffffffffffff021916908373ffffffffffffffffffffffffffffffffffffffff160217905550600260009054906101000a900473ffffffffffffffffffffffffffffffffffffffff1673ffffffffffffffffffffffffffffffffffffffff16637284e4166040518163ffffffff1660e01b815260040160006040518083038186803b158015620001f457600080fd5b505afa15801562000209573d6000803e3d6000fd5b505050506040513d6000823e3d601f19601f820116820180604052508101906200023491906200075c565b600490805190602001906200024b9291906200056e565b50600260009054906101000a900473ffffffffffffffffffffffffffffffffffffffff1673ffffffffffffffffffffffffffffffffffffffff1663313ce5676040518163ffffffff1660e01b815260040160206040518083038186803b158015620002b557600080fd5b505afa158015620002ca573d6000803e3d6000fd5b505050506040513d601f19601f82011682018060405250810190620002f09190620007ad565b60ff16600981905550600954600a6200030a9190620008ff565b600a8190555081600e8190555081600a620003269190620008ff565b600f8190555050505062000c36565b600033905090565b6200034f82826200037560201b60201c565b5050565b60006200036d836000018360001b6200046660201b60201c565b905092915050565b620003878282620004e060201b60201c565b6200046257600180600084815260200190815260200160002060000160008373ffffffffffffffffffffffffffffffffffffffff1673ffffffffffffffffffffffffffffffffffffffff16815260200190815260200160002060006101000a81548160ff021916908315150217905550620004076200033560201b60201c565b73ffffffffffffffffffffffffffffffffffffffff168173ffffffffffffffffffffffffffffffffffffffff16837f2f8788117e7eff1d82e926ec794901d17c78024a50270940304540a733656f0d60405160405180910390a45b5050565b60006200047a83836200054b60201b60201c565b620004d5578260000182908060018154018082558091505060019003906000526020600020016000909190919091505582600001805490508360010160008481526020019081526020016000208190555060019050620004da565b600090505b92915050565b60006001600084815260200190815260200160002060000160008373ffffffffffffffffffffffffffffffffffffffff1673ffffffffffffffffffffffffffffffffffffffff16815260200190815260200160002060009054906101000a900460ff16905092915050565b600080836001016000848152602001908152602001600020541415905092915050565b8280546200057c9062000abd565b90600052602060002090601f016020900481019282620005a05760008555620005ec565b82601f10620005bb57805160ff1916838001178555620005ec565b82800160010185558215620005ec579182015b82811115620005eb578251825591602001919060010190620005ce565b5b509050620005fb9190620005ff565b5090565b5b808211156200061a57600081600090555060010162000600565b5090565b6000620006356200062f8462000858565b6200082f565b90508281526020810184848401111562000654576200065362000bbb565b5b6200066184828562000a87565b509392505050565b6000815190506200067a8162000be8565b92915050565b600082601f83011262000698576200069762000bb6565b5b8151620006aa8482602086016200061e565b91505092915050565b600081519050620006c48162000c02565b92915050565b600081519050620006db8162000c1c565b92915050565b600080600060608486031215620006fd57620006fc62000bc5565b5b60006200070d8682870162000669565b93505060206200072086828701620006b3565b925050604084015167ffffffffffffffff81111562000744576200074362000bc0565b5b620007528682870162000680565b9150509250925092565b60006020828403121562000775576200077462000bc5565b5b600082015167ffffffffffffffff81111562000796576200079562000bc0565b5b620007a48482850162000680565b91505092915050565b600060208284031215620007c657620007c562000bc5565b5b6000620007d684828501620006ca565b91505092915050565b6000620007ec826200088e565b620007f8818562000899565b93506200080a81856020860162000a87565b80840191505092915050565b6000620008248284620007df565b915081905092915050565b60006200083b6200084e565b905062000849828262000af3565b919050565b6000604051905090565b600067ffffffffffffffff82111562000876576200087562000b87565b5b620008818262000bca565b9050602081019050919050565b600081519050919050565b600081905092915050565b6000808291508390505b6001851115620008f657808604811115620008ce57620008cd62000b29565b5b6001851615620008de5780820291505b8081029050620008ee8562000bdb565b9450620008ae565b94509492505050565b60006200090c8262000a70565b9150620009198362000a70565b9250620009487fffffffffffffffffffffffffffffffffffffffffffffffffffffffffffffffff848462000950565b905092915050565b60008262000962576001905062000a35565b8162000972576000905062000a35565b81600181146200098b57600281146200099657620009cc565b600191505062000a35565b60ff841115620009ab57620009aa62000b29565b5b8360020a915084821115620009c557620009c462000b29565b5b5062000a35565b5060208310610133831016604e8410600b841016171562000a065782820a90508381111562000a0057620009ff62000b29565b5b62000a35565b62000a158484846001620008a4565b9250905081840481111562000a2f5762000a2e62000b29565b5b81810290505b9392505050565b600062000a498262000a50565b9050919050565b600073ffffffffffffffffffffffffffffffffffffffff82169050919050565b6000819050919050565b600060ff82169050919050565b60005b8381101562000aa757808201518184015260208101905062000a8a565b8381111562000ab7576000848401525b50505050565b6000600282049050600182168062000ad657607f821691505b6020821081141562000aed5762000aec62000b58565b5b50919050565b62000afe8262000bca565b810181811067ffffffffffffffff8211171562000b205762000b1f62000b87565b5b80604052505050565b7f4e487b7100000000000000000000000000000000000000000000000000000000600052601160045260246000fd5b7f4e487b7100000000000000000000000000000000000000000000000000000000600052602260045260246000fd5b7f4e487b7100000000000000000000000000000000000000000000000000000000600052604160045260246000fd5b600080fd5b600080fd5b600080fd5b600080fd5b6000601f19601f8301169050919050565b60008160011c9050919050565b62000bf38162000a3c565b811462000bff57600080fd5b50565b62000c0d8162000a70565b811462000c1957600080fd5b50565b62000c278162000a7a565b811462000c3357600080fd5b50565b6131058062000c466000396000f3fe608060405234801561001057600080fd5b50600436106101725760003560e01c80637284e416116100de578063a2e6204511610097578063d547741f11610071578063d547741f14610416578063dcbc93f814610432578063de0a012914610450578063f2fde38b1461048557610172565b8063a2e62045146103cf578063b0667cf8146103d9578063cca49473146103f857610172565b80637284e416146102f95780638184641f146103175780638da5cb5b1461034757806391d1485414610365578063966e176614610395578063a217fddf146103b157610172565b8063313ce56711610130578063313ce5671461025d57806336568abe1461027b5780633ba8c292146102975780633dec20f4146102b3578063714f13ee146102d1578063715018a6146102ef57610172565b80624978461461017757806301ffc9a714610195578063040b030f146101c5578063248a9ca3146101f5578063285f9457146102255780632f2ff15d14610241575b600080fd5b61017f6104a1565b60405161018c919061275a565b60405180910390f35b6101af60048036038101906101aa91906122ce565b6104c5565b6040516101bc919061273f565b60405180910390f35b6101df60048036038101906101da91906122fb565b61053f565b6040516101ec9190612872565b60405180910390f35b61020f600480360381019061020a9190612261565b6105d6565b60405161021c919061275a565b60405180910390f35b61023f600480360381019061023a91906122fb565b6105f6565b005b61025b6004803603810190610256919061228e565b6106a7565b005b6102656106d0565b6040516102729190612872565b60405180910390f35b6102956004803603810190610290919061228e565b6106d6565b005b6102b160048036038101906102ac9190612205565b610759565b005b6102bb6108af565b6040516102c89190612872565b60405180910390f35b6102d96108b5565b6040516102e69190612872565b60405180910390f35b6102f76108bb565b005b6103016109f5565b60405161030e9190612775565b60405180910390f35b610331600480360381019061032c91906122fb565b610a83565b60405161033e9190612857565b60405180910390f35b61034f610b63565b60405161035c9190612724565b60405180910390f35b61037f600480360381019061037a919061228e565b610b8c565b60405161038c919061273f565b60405180910390f35b6103af60048036038101906103aa9190612328565b610bf7565b005b6103b9610eed565b6040516103c6919061275a565b60405180910390f35b6103d7610ef4565b005b6103e16113dd565b6040516103ef9291906128b6565b60405180910390f35b610400611496565b60405161040d919061275a565b60405180910390f35b610430600480360381019061042b919061228e565b61149c565b005b61043a6114c5565b6040516104479190612872565b60405180910390f35b61046a600480360381019061046591906122fb565b6114cb565b60405161047c9695949392919061295b565b60405180910390f35b61049f600480360381019061049a91906121d8565b611507565b005b7f3ee192ac25847473237ced4bba57f848e1fd794930ff85b4282329058096720581565b60007f7965db0b000000000000000000000000000000000000000000000000000000007bffffffffffffffffffffffffffffffffffffffffffffffffffffffff1916827bffffffffffffffffffffffffffffffffffffffffffffffffffffffff191614806105385750610537826116ca565b5b9050919050565b600061055582600561173490919063ffffffff16565b610594576040517f08c379a000000000000000000000000000000000000000000000000000000000815260040161058b906127f7565b60405180910390fd5b60076000838152602001908152602001600020600060086000858152602001908152602001600020548152602001908152602001600020600501549050919050565b600060016000838152602001908152602001600020600101549050919050565b6105fe61174e565b73ffffffffffffffffffffffffffffffffffffffff1661061c610b63565b73ffffffffffffffffffffffffffffffffffffffff1614610672576040517f08c379a000000000000000000000000000000000000000000000000000000000815260040161066990612817565b60405180910390fd5b61068681600561173490919063ffffffff16565b61068f57600080fd5b6106a381600561175690919063ffffffff16565b5050565b6106b0826105d6565b6106c1816106bc61174e565b611770565b6106cb838361180d565b505050565b60095481565b6106de61174e565b73ffffffffffffffffffffffffffffffffffffffff168173ffffffffffffffffffffffffffffffffffffffff161461074b576040517f08c379a000000000000000000000000000000000000000000000000000000000815260040161074290612837565b60405180910390fd5b61075582826118ed565b5050565b61076161174e565b73ffffffffffffffffffffffffffffffffffffffff1661077f610b63565b73ffffffffffffffffffffffffffffffffffffffff16146107d5576040517f08c379a00000000000000000000000000000000000000000000000000000000081526004016107cc90612817565b60405180910390fd5b600f548160a00151826080015183606001516107f19190612a34565b6107fb9190612a34565b1461080557600080fd5b60005b82518110156108aa5761083f83828151811061082757610826612dd0565b5b6020026020010151600561173490919063ffffffff16565b6108735761087183828151811061085957610858612dd0565b5b602002602001015160056116b090919063ffffffff16565b505b61089783828151811061088957610888612dd0565b5b602002602001015183610bf7565b80806108a290612ccb565b915050610808565b505050565b600e5481565b600b5481565b6108c361174e565b73ffffffffffffffffffffffffffffffffffffffff166108e1610b63565b73ffffffffffffffffffffffffffffffffffffffff1614610937576040517f08c379a000000000000000000000000000000000000000000000000000000000815260040161092e90612817565b60405180910390fd5b600073ffffffffffffffffffffffffffffffffffffffff1660008054906101000a900473ffffffffffffffffffffffffffffffffffffffff1673ffffffffffffffffffffffffffffffffffffffff167f8be0079c531659141344cd1fd0a4f28419497f9722a3daafe3b4186f6b6457e060405160405180910390a360008060006101000a81548173ffffffffffffffffffffffffffffffffffffffff021916908373ffffffffffffffffffffffffffffffffffffffff160217905550565b60048054610a0290612c4e565b80601f0160208091040260200160405190810160405280929190818152602001828054610a2e90612c4e565b8015610a7b5780601f10610a5057610100808354040283529160200191610a7b565b820191906000526020600020905b815481529060010190602001808311610a5e57829003601f168201915b505050505081565b610a8b611fd1565b610a9f82600561173490919063ffffffff16565b610ade576040517f08c379a0000000000000000000000000000000000000000000000000000000008152600401610ad5906127f7565b60405180910390fd5b600760008381526020019081526020016000206000600860008581526020019081526020016000205481526020019081526020016000206040518060c001604052908160008201548152602001600182015481526020016002820154815260200160038201548152602001600482015481526020016005820154815250509050919050565b60008060009054906101000a900473ffffffffffffffffffffffffffffffffffffffff16905090565b60006001600084815260200190815260200160002060000160008373ffffffffffffffffffffffffffffffffffffffff1673ffffffffffffffffffffffffffffffffffffffff16815260200190815260200160002060009054906101000a900460ff16905092915050565b610bff61174e565b73ffffffffffffffffffffffffffffffffffffffff16610c1d610b63565b73ffffffffffffffffffffffffffffffffffffffff1614610c73576040517f08c379a0000000000000000000000000000000000000000000000000000000008152600401610c6a90612817565b60405180910390fd5b610c8782600561173490919063ffffffff16565b610c9057600080fd5b600f548160a0015182608001518360600151610cac9190612a34565b610cb69190612a34565b14610cc057600080fd5b80600d6000848152602001908152602001600020600082015181600001556020820151816001015560408201518160020155606082015181600301556080820151816004015560a08201518160050155905050610d6d600d600084815260200190815260200160002060010154600d600085815260200190815260200160002060010154610d4e9190612abb565b600d600085815260200190815260200160002060030154600f546119cf565b600d600084815260200190815260200160002060020181905550600080610d926113dd565b915091508060086000868152602001908152602001600020819055508060076000868152602001908152602001600020600083815260200190815260200160002060000181905550600d6000858152602001908152602001600020600001546007600086815260200190815260200160002060008381526020019081526020016000206005018190555081600760008681526020019081526020016000206000838152602001908152602001600020600401819055600760008681526020019081526020016000206000838152602001908152602001600020600301819055600760008681526020019081526020016000206000838152602001908152602001600020600201819055507fc76729258e211df70282067428e557c1b4bfe7124a8bca5607037df98fb31f0a84600d6000878152602001908152602001600020604051610edf92919061288d565b60405180910390a150505050565b6000801b81565b7f3ee192ac25847473237ced4bba57f848e1fd794930ff85b42823290580967205610f2681610f2161174e565b611770565b600080610f316113dd565b9150915060005b610f426005611acb565b81101561137b576000610f5f826005611ae090919063ffffffff16565b90506007600082815260200190815260200160002060006008600084815260200190815260200160002054815260200190815260200160002060030154841115610fe3578360076000838152602001908152602001600020600060086000858152602001908152602001600020548152602001908152602001600020600301819055505b6007600082815260200190815260200160002060006008600084815260200190815260200160002054815260200190815260200160002060040154841015611065578360076000838152602001908152602001600020600060086000858152602001908152602001600020548152602001908152602001600020600401819055505b8060086000838152602001908152602001600020546110849190612a34565b8310611367576000600760008381526020019081526020016000206000600860008581526020019081526020016000205481526020019081526020016000206040518060c001604052908160008201548152602001600182015481526020016002820154815260200160038201548152602001600482015481526020016005820154815250509050600061115a600a546111298460600151600a5486604001516119cf565b6111339190612b15565b6111488460800151600a5486604001516119cf565b600a546111559190612b15565b611afa565b905060006111f56111978460a001518560a001516111789190612abb565b600d600088815260200190815260200160002060040154600f546119cf565b6111c584856111a69190612abb565b600d600089815260200190815260200160002060050154600f546119cf565b600d6000888152602001908152602001600020600201546111e69190612a34565b6111f09190612a34565b611b14565b90508560076000868152602001908152602001600020600060086000888152602001908152602001600020548152602001908152602001600020600101819055508560076000868152602001908152602001600020600088815260200190815260200160002060000181905550806007600086815260200190815260200160002060008881526020019081526020016000206005018190555086600760008681526020019081526020016000206000888152602001908152602001600020600401819055600760008681526020019081526020016000206000888152602001908152602001600020600301819055600760008681526020019081526020016000206000888152602001908152602001600020600201819055508560086000868152602001908152602001600020819055507f668936648375bd94a9e3a9e9fc2c6fa0dc0df133970645ccc98653b5d1552aa58685898460405161135b9493929190612916565b60405180910390a15050505b50808061137390612ccb565b915050610f38565b5080600c81905550600b600081548092919061139690612ccb565b91905055507f24f53141224991acfdf823961d5fb5f0c83f2ad4095ae2222f4af08bf111231d8183600b546040516113d0939291906128df565b60405180910390a1505050565b600080600080600260009054906101000a900473ffffffffffffffffffffffffffffffffffffffff1673ffffffffffffffffffffffffffffffffffffffff1663feaf968c6040518163ffffffff1660e01b815260040160a06040518083038186803b15801561144b57600080fd5b505afa15801561145f573d6000803e3d6000fd5b505050506040513d601f19601f820116820180604052508101906114839190612368565b5093505092505081819350935050509091565b60035481565b6114a5826105d6565b6114b6816114b161174e565b611770565b6114c083836118ed565b505050565b600c5481565b600d6020528060005260406000206000915090508060000154908060010154908060020154908060030154908060040154908060050154905086565b61150f61174e565b73ffffffffffffffffffffffffffffffffffffffff1661152d610b63565b73ffffffffffffffffffffffffffffffffffffffff1614611583576040517f08c379a000000000000000000000000000000000000000000000000000000000815260040161157a90612817565b60405180910390fd5b600073ffffffffffffffffffffffffffffffffffffffff168173ffffffffffffffffffffffffffffffffffffffff1614156115f3576040517f08c379a00000000000000000000000000000000000000000000000000000000081526004016115ea906127d7565b60405180910390fd5b8073ffffffffffffffffffffffffffffffffffffffff1660008054906101000a900473ffffffffffffffffffffffffffffffffffffffff1673ffffffffffffffffffffffffffffffffffffffff167f8be0079c531659141344cd1fd0a4f28419497f9722a3daafe3b4186f6b6457e060405160405180910390a3806000806101000a81548173ffffffffffffffffffffffffffffffffffffffff021916908373ffffffffffffffffffffffffffffffffffffffff16021790555050565b60006116c2836000018360001b611b71565b905092915050565b60007f01ffc9a7000000000000000000000000000000000000000000000000000000007bffffffffffffffffffffffffffffffffffffffffffffffffffffffff1916827bffffffffffffffffffffffffffffffffffffffffffffffffffffffff1916149050919050565b6000611746836000018360001b611be1565b905092915050565b600033905090565b6000611768836000018360001b611c04565b905092915050565b61177a8282610b8c565b6118095761179f8173ffffffffffffffffffffffffffffffffffffffff166014611d10565b6117ad8360001c6020611d10565b6040516020016117be9291906126ea565b6040516020818303038152906040526040517f08c379a00000000000000000000000000000000000000000000000000000000081526004016118009190612775565b60405180910390fd5b5050565b6118178282610b8c565b6118e957600180600084815260200190815260200160002060000160008373ffffffffffffffffffffffffffffffffffffffff1673ffffffffffffffffffffffffffffffffffffffff16815260200190815260200160002060006101000a81548160ff02191690831515021790555061188e61174e565b73ffffffffffffffffffffffffffffffffffffffff168173ffffffffffffffffffffffffffffffffffffffff16837f2f8788117e7eff1d82e926ec794901d17c78024a50270940304540a733656f0d60405160405180910390a45b5050565b6118f78282610b8c565b156119cb5760006001600084815260200190815260200160002060000160008373ffffffffffffffffffffffffffffffffffffffff1673ffffffffffffffffffffffffffffffffffffffff16815260200190815260200160002060006101000a81548160ff02191690831515021790555061197061174e565b73ffffffffffffffffffffffffffffffffffffffff168173ffffffffffffffffffffffffffffffffffffffff16837ff6391f5c32d9c69d2a47ea670b442974b53935d1edc7fd64eb21e047a839171b60405160405180910390a45b5050565b600080600080198587098587029250828110838203039150506000811415611a0a57600084116119fe57600080fd5b83820492505050611ac4565b808411611a1657600080fd5b60008486880990508281118203915080830392506000856001877fffffffffffffffffffffffffffffffffffffffffffffffffffffffffffffffff0301169050808604955080840493506001818260000304019050808302841793506000600287600302189050808702600203810290508087026002038102905080870260020381029050808702600203810290508087026002038102905080870260020381029050808502955050505050505b9392505050565b6000611ad982600001611f4c565b9050919050565b6000611aef8360000183611f5d565b60001c905092915050565b600081831015611b0a5781611b0c565b825b905092915050565b6000806002600184611b269190612a34565b611b309190612a8a565b90508291505b81811015611b6b578091506002818285611b509190612a8a565b611b5a9190612a34565b611b649190612a8a565b9050611b36565b50919050565b6000611b7d8383611be1565b611bd6578260000182908060018154018082558091505060019003906000526020600020016000909190919091505582600001805490508360010160008481526020019081526020016000208190555060019050611bdb565b600090505b92915050565b600080836001016000848152602001908152602001600020541415905092915050565b60008083600101600084815260200190815260200160002054905060008114611d04576000600182611c369190612b15565b9050600060018660000180549050611c4e9190612b15565b90506000866000018281548110611c6857611c67612dd0565b5b9060005260206000200154905080876000018481548110611c8c57611c8b612dd0565b5b9060005260206000200181905550838760010160008381526020019081526020016000208190555086600001805480611cc857611cc7612da1565b5b60019003818190600052602060002001600090559055866001016000878152602001908152602001600020600090556001945050505050611d0a565b60009150505b92915050565b606060006002836002611d239190612abb565b611d2d9190612a34565b67ffffffffffffffff811115611d4657611d45612dff565b5b6040519080825280601f01601f191660200182016040528015611d785781602001600182028036833780820191505090505b5090507f300000000000000000000000000000000000000000000000000000000000000081600081518110611db057611daf612dd0565b5b60200101907effffffffffffffffffffffffffffffffffffffffffffffffffffffffffffff1916908160001a9053507f780000000000000000000000000000000000000000000000000000000000000081600181518110611e1457611e13612dd0565b5b60200101907effffffffffffffffffffffffffffffffffffffffffffffffffffffffffffff1916908160001a90535060006001846002611e549190612abb565b611e5e9190612a34565b90505b6001811115611efe577f3031323334353637383961626364656600000000000000000000000000000000600f861660108110611ea057611e9f612dd0565b5b1a60f81b828281518110611eb757611eb6612dd0565b5b60200101907effffffffffffffffffffffffffffffffffffffffffffffffffffffffffffff1916908160001a905350600485901c945080611ef790612c24565b9050611e61565b5060008414611f42576040517f08c379a0000000000000000000000000000000000000000000000000000000008152600401611f39906127b7565b60405180910390fd5b8091505092915050565b600081600001805490509050919050565b600081836000018054905011611fa8576040517f08c379a0000000000000000000000000000000000000000000000000000000008152600401611f9f90612797565b60405180910390fd5b826000018281548110611fbe57611fbd612dd0565b5b9060005260206000200154905092915050565b6040518060c001604052806000815260200160008152602001600081526020016000815260200160008152602001600081525090565b600061201a612015846129e1565b6129bc565b9050808382526020820190508285602086028201111561203d5761203c612e38565b5b60005b8581101561206d57816120538882612199565b845260208401935060208301925050600181019050612040565b5050509392505050565b60008135905061208681613045565b92915050565b600082601f8301126120a1576120a0612e2e565b5b81356120b1848260208601612007565b91505092915050565b6000813590506120c98161305c565b92915050565b6000813590506120de81613073565b92915050565b6000815190506120f38161308a565b92915050565b600060c0828403121561210f5761210e612e33565b5b61211960c06129bc565b9050600061212984828501612199565b600083015250602061213d84828501612199565b602083015250604061215184828501612199565b604083015250606061216584828501612199565b606083015250608061217984828501612199565b60808301525060a061218d84828501612199565b60a08301525092915050565b6000813590506121a8816130a1565b92915050565b6000815190506121bd816130a1565b92915050565b6000815190506121d2816130b8565b92915050565b6000602082840312156121ee576121ed612e42565b5b60006121fc84828501612077565b91505092915050565b60008060e0838503121561221c5761221b612e42565b5b600083013567ffffffffffffffff81111561223a57612239612e3d565b5b6122468582860161208c565b9250506020612257858286016120f9565b9150509250929050565b60006020828403121561227757612276612e42565b5b6000612285848285016120ba565b91505092915050565b600080604083850312156122a5576122a4612e42565b5b60006122b3858286016120ba565b92505060206122c485828601612077565b9150509250929050565b6000602082840312156122e4576122e3612e42565b5b60006122f2848285016120cf565b91505092915050565b60006020828403121561231157612310612e42565b5b600061231f84828501612199565b91505092915050565b60008060e0838503121561233f5761233e612e42565b5b600061234d85828601612199565b925050602061235e858286016120f9565b9150509250929050565b600080600080600060a0868803121561238457612383612e42565b5b6000612392888289016121c3565b95505060206123a3888289016120e4565b94505060406123b4888289016121ae565b93505060606123c5888289016121ae565b92505060806123d6888289016121c3565b9150509295509295909350565b6123ec81612b53565b82525050565b6123fb81612b65565b82525050565b61240a81612b71565b82525050565b600061241b82612a0d565b6124258185612a18565b9350612435818560208601612bf1565b61243e81612e47565b840191505092915050565b600061245482612a0d565b61245e8185612a29565b935061246e818560208601612bf1565b80840191505092915050565b6000612487602283612a18565b915061249282612e65565b604082019050919050565b60006124aa602083612a18565b91506124b582612eb4565b602082019050919050565b60006124cd602683612a18565b91506124d882612edd565b604082019050919050565b60006124f0602283612a18565b91506124fb82612f2c565b604082019050919050565b6000612513602083612a18565b915061251e82612f7b565b602082019050919050565b6000612536601783612a29565b915061254182612fa4565b601782019050919050565b6000612559601183612a29565b915061256482612fcd565b601182019050919050565b600061257c602f83612a18565b915061258782612ff6565b604082019050919050565b60c0820160008201516125a860008501826126cc565b5060208201516125bb60208501826126cc565b5060408201516125ce60408501826126cc565b5060608201516125e160608501826126cc565b5060808201516125f460808501826126cc565b5060a082015161260760a08501826126cc565b50505050565b60c08201600080830154905061262281612c80565b61262f60008601826126cc565b506001830154905061264081612c80565b61264d60208601826126cc565b506002830154905061265e81612c80565b61266b60408601826126cc565b506003830154905061267c81612c80565b61268960608601826126cc565b506004830154905061269a81612c80565b6126a760808601826126cc565b50600583015490506126b881612c80565b6126c560a08601826126cc565b5050505050565b6126d581612bd1565b82525050565b6126e481612bd1565b82525050565b60006126f582612529565b91506127018285612449565b915061270c8261254c565b91506127188284612449565b91508190509392505050565b600060208201905061273960008301846123e3565b92915050565b600060208201905061275460008301846123f2565b92915050565b600060208201905061276f6000830184612401565b92915050565b6000602082019050818103600083015261278f8184612410565b905092915050565b600060208201905081810360008301526127b08161247a565b9050919050565b600060208201905081810360008301526127d08161249d565b9050919050565b600060208201905081810360008301526127f0816124c0565b9050919050565b60006020820190508181036000830152612810816124e3565b9050919050565b6000602082019050818103600083015261283081612506565b9050919050565b600060208201905081810360008301526128508161256f565b9050919050565b600060c08201905061286c6000830184612592565b92915050565b600060208201905061288760008301846126db565b92915050565b600060e0820190506128a260008301856126db565b6128af602083018461260d565b9392505050565b60006040820190506128cb60008301856126db565b6128d860208301846126db565b9392505050565b60006060820190506128f460008301866126db565b61290160208301856126db565b61290e60408301846126db565b949350505050565b600060808201905061292b60008301876126db565b61293860208301866126db565b61294560408301856126db565b61295260608301846126db565b95945050505050565b600060c08201905061297060008301896126db565b61297d60208301886126db565b61298a60408301876126db565b61299760608301866126db565b6129a460808301856126db565b6129b160a08301846126db565b979650505050505050565b60006129c66129d7565b90506129d28282612c9a565b919050565b6000604051905090565b600067ffffffffffffffff8211156129fc576129fb612dff565b5b602082029050602081019050919050565b600081519050919050565b600082825260208201905092915050565b600081905092915050565b6000612a3f82612bd1565b9150612a4a83612bd1565b9250827fffffffffffffffffffffffffffffffffffffffffffffffffffffffffffffffff03821115612a7f57612a7e612d14565b5b828201905092915050565b6000612a9582612bd1565b9150612aa083612bd1565b925082612ab057612aaf612d43565b5b828204905092915050565b6000612ac682612bd1565b9150612ad183612bd1565b9250817fffffffffffffffffffffffffffffffffffffffffffffffffffffffffffffffff0483118215151615612b0a57612b09612d14565b5b828202905092915050565b6000612b2082612bd1565b9150612b2b83612bd1565b925082821015612b3e57612b3d612d14565b5b828203905092915050565b6000819050919050565b6000612b5e82612bb1565b9050919050565b60008115159050919050565b6000819050919050565b60007fffffffff0000000000000000000000000000000000000000000000000000000082169050919050565b6000819050919050565b600073ffffffffffffffffffffffffffffffffffffffff82169050919050565b6000819050919050565b600069ffffffffffffffffffff82169050919050565b60005b83811015612c0f578082015181840152602081019050612bf4565b83811115612c1e576000848401525b50505050565b6000612c2f82612bd1565b91506000821415612c4357612c42612d14565b5b600182039050919050565b60006002820490506001821680612c6657607f821691505b60208210811415612c7a57612c79612d72565b5b50919050565b6000612c93612c8e83612e58565b612b49565b9050919050565b612ca382612e47565b810181811067ffffffffffffffff82111715612cc257612cc1612dff565b5b80604052505050565b6000612cd682612bd1565b91507fffffffffffffffffffffffffffffffffffffffffffffffffffffffffffffffff821415612d0957612d08612d14565b5b600182019050919050565b7f4e487b7100000000000000000000000000000000000000000000000000000000600052601160045260246000fd5b7f4e487b7100000000000000000000000000000000000000000000000000000000600052601260045260246000fd5b7f4e487b7100000000000000000000000000000000000000000000000000000000600052602260045260246000fd5b7f4e487b7100000000000000000000000000000000000000000000000000000000600052603160045260246000fd5b7f4e487b7100000000000000000000000000000000000000000000000000000000600052603260045260246000fd5b7f4e487b7100000000000000000000000000000000000000000000000000000000600052604160045260246000fd5b600080fd5b600080fd5b600080fd5b600080fd5b600080fd5b6000601f19601f8301169050919050565b60008160001c9050919050565b7f456e756d657261626c655365743a20696e646578206f7574206f6620626f756e60008201527f6473000000000000000000000000000000000000000000000000000000000000602082015250565b7f537472696e67733a20686578206c656e67746820696e73756666696369656e74600082015250565b7f4f776e61626c653a206e6577206f776e657220697320746865207a65726f206160008201527f6464726573730000000000000000000000000000000000000000000000000000602082015250565b7f496e707574206f7074696f6e2074656e6f72206973206e6f7420616c6c6f776560008201527f642e000000000000000000000000000000000000000000000000000000000000602082015250565b7f4f776e61626c653a2063616c6c6572206973206e6f7420746865206f776e6572600082015250565b7f416363657373436f6e74726f6c3a206163636f756e7420000000000000000000600082015250565b7f206973206d697373696e6720726f6c6520000000000000000000000000000000600082015250565b7f416363657373436f6e74726f6c3a2063616e206f6e6c792072656e6f756e636560008201527f20726f6c657320666f722073656c660000000000000000000000000000000000602082015250565b61304e81612b53565b811461305957600080fd5b50565b61306581612b71565b811461307057600080fd5b50565b61307c81612b7b565b811461308757600080fd5b50565b61309381612ba7565b811461309e57600080fd5b50565b6130aa81612bd1565b81146130b557600080fd5b50565b6130c181612bdb565b81146130cc57600080fd5b5056fea2646970667358221220ecb6ac6c770b71ca5d784f35a277d2197264c0bf32a4b03636b0401fe960ac0e64736f6c63430008060033",
  "immutableReferences": {},
  "source": "pragma solidity ^0.8.4;\n\n/**\n * SPDX-License-Identifier: GPL-3.0-or-later\n * Moret\n * Copyright (C) 2021 Moret\n */\nimport \"@openzeppelin/contracts/access/Ownable.sol\";\nimport \"@openzeppelin/contracts/utils/math/Math.sol\";\nimport \"@openzeppelin/contracts/access/AccessControl.sol\";\nimport \"@openzeppelin/contracts/utils/structs/EnumerableSet.sol\";\n/* import \"../interfaces/Interfaces.sol\"; */\n\nimport \"./FullMath.sol\";\nimport \"@chainlink/contracts/src/v0.8/interfaces/AggregatorV3Interface.sol\";\n// import \"https://github.com/smartcontractkit/chainlink/blob/master/evm-contracts/src/v0.8/interfaces/AggregatorV3Interface.sol\";\n\n contract VolatilityChain is Ownable, AccessControl\n {\n       using EnumerableSet for EnumerableSet.UintSet;\n\n     bytes32 public constant UPDATE_ROLE = keccak256(\"UPDATE_ROLE\");\n\n   AggregatorV3Interface internal priceInterface;\n   bytes32 public tokenHash;\n   string public description;\n\n  EnumerableSet.UintSet tenors;\n\n\n   mapping(uint256=>mapping(uint256=>PriceStamp)) private priceBook;\n   mapping(uint256=>uint256) private latestBookTime;\n   uint256 public decimals;\n   uint256 private priceMultiplier;\n\n    uint256 public volatilityUpdateCounter;\n    uint256 public volatilityUpdateTime;\n    mapping(uint256=> VolParam) public volatilityParameters;\n   uint256 public volParamDecimals;\n   uint256 private parameterMultiplier;\n\n   struct PriceStamp{\n    uint256 startTime;\n    uint256 endTime;\n    uint256 open;\n    uint256 highest;\n    uint256 lowest;\n    uint256 volatility;\n  }\n\n  struct VolParam{\n      uint256 initialVol;\n      uint256 ltVol;\n      uint256 ltVolWeighted;\n      uint256 w; // parameter for long-term average\n      uint256 p; // parameter for moving average\n      uint256 q; // paramter for auto regression\n  }\n\n   constructor(\n     address _priceSourceId,\n     uint256 _parameterDecimals,\n      string memory _tokenName\n     )  {\n\n         _setupRole(DEFAULT_ADMIN_ROLE, msg.sender);\n\n         tokenHash = keccak256(abi.encodePacked(_tokenName));\n\n\n      tenors.add(1 days);\n\n    priceInterface = AggregatorV3Interface(_priceSourceId);\n    description = priceInterface.description();\n    decimals = priceInterface.decimals();\n    priceMultiplier = 10 ** decimals;\n\n    volParamDecimals = _parameterDecimals;\n    parameterMultiplier = 10 ** _parameterDecimals;\n\n   }\n\n   function getVol(uint256 _tenor) external view returns(uint256)\n   {\n       require(tenors.contains(_tenor), \"Input option tenor is not allowed.\");\n     return priceBook[_tenor][latestBookTime[_tenor]].volatility;\n    }\n\n  function queryPrice() public view returns(uint256, uint256){\n    (,int _price,,uint _timeStamp,) = priceInterface.latestRoundData();\n   return (uint256(_price), uint256(_timeStamp));\n  }\n\n   function update() external onlyRole(UPDATE_ROLE){\n     (uint _updatePrice, uint _timeStamp) = queryPrice();\n\n     for(uint i = 0;i< tenors.length();i++)\n     {\n       uint256 _tenor = tenors.at(i);\n\n       if(_updatePrice > priceBook[_tenor][latestBookTime[_tenor]].highest)\n       {\n         priceBook[_tenor][latestBookTime[_tenor]].highest=_updatePrice;\n       }\n       if(_updatePrice<priceBook[_tenor][latestBookTime[_tenor]].lowest)\n       {\n         priceBook[_tenor][latestBookTime[_tenor]].lowest=_updatePrice;\n       }\n\n       if(_timeStamp>= (latestBookTime[_tenor] + _tenor))\n       {\n         PriceStamp memory _currentStamp = priceBook[_tenor][latestBookTime[_tenor]];\n         uint256 _latestMove = Math.max(MulDiv(_currentStamp.highest, priceMultiplier, _currentStamp.open) - priceMultiplier , priceMultiplier - MulDiv(_currentStamp.lowest, priceMultiplier, _currentStamp.open ));\n         uint256 _latestVolatility = Sqrt(volatilityParameters[_tenor].ltVolWeighted + MulDiv(_latestMove * _latestMove, volatilityParameters[_tenor].q, parameterMultiplier) + MulDiv(_currentStamp.volatility * _currentStamp.volatility, volatilityParameters[_tenor].p, parameterMultiplier));\n\n         priceBook[_tenor][latestBookTime[_tenor]].endTime = _timeStamp;\n\n         priceBook[_tenor][_timeStamp].startTime = _timeStamp;\n         priceBook[_tenor][_timeStamp].volatility = _latestVolatility;\n         priceBook[_tenor][_timeStamp].open = priceBook[_tenor][_timeStamp].highest = priceBook[_tenor][_timeStamp].lowest = _updatePrice;\n\n         latestBookTime[_tenor] = _timeStamp;\n\n         emit VolatilityUpdated(_timeStamp, _tenor, _updatePrice, _latestVolatility);\n\n       }\n\n     }\n\n     volatilityUpdateTime = _timeStamp;\n     volatilityUpdateCounter ++;\n     emit OneUpdateCompleted(_timeStamp, _updatePrice, volatilityUpdateCounter);\n   }\n\n   function resetVolParamsList(uint256[] memory _tenorList, VolParam memory _volParams) public onlyOwner{\n     require((_volParams.w + _volParams.p + _volParams.q)==parameterMultiplier);\n\n     for(uint256 i = 0;i<_tenorList.length;i++){\n       if(!tenors.contains(_tenorList[i]))\n       {\n         tenors.add(_tenorList[i]);\n       }\n       resetVolParams(_tenorList[i], _volParams);\n      }\n   }\n\n   function resetVolParams(uint256 _tenor, VolParam memory _volParams) public onlyOwner{\n       require(tenors.contains(_tenor));\n       require((_volParams.w + _volParams.p + _volParams.q)==parameterMultiplier);\n       volatilityParameters[_tenor] = _volParams;\n       volatilityParameters[_tenor].ltVolWeighted = MulDiv(volatilityParameters[_tenor].ltVol*volatilityParameters[_tenor].ltVol, volatilityParameters[_tenor].w, parameterMultiplier);\n\n        (uint _updatePrice, uint _timeStamp) = queryPrice();\n        latestBookTime[_tenor] = _timeStamp;\n       priceBook[_tenor][_timeStamp].startTime = _timeStamp;\n       priceBook[_tenor][_timeStamp].volatility = volatilityParameters[_tenor].initialVol;\n       priceBook[_tenor][_timeStamp].open = priceBook[_tenor][_timeStamp].highest = priceBook[_tenor][_timeStamp].lowest = _updatePrice;\n\n        emit NewParameters(_tenor, volatilityParameters[_tenor]);\n   }\n\n   function removeTenor(uint256 _tenor) public onlyOwner{\n     require(tenors.contains(_tenor));\n     tenors.remove(_tenor);\n   }\n\n   /* function displayTenors() public view returns(uint256[] memory)\n{\n  uint256[] memory _displayTenors;\n  for(uint256 i = 0;i<tenors.length();i++)\n  {\n    _displayTenors.push(tenors.at(i));\n  }\n  return _displayTenors;\n} */\n   function displayPriceBook(uint256 _tenor) external view returns(PriceStamp memory){\n        require(tenors.contains(_tenor), \"Input option tenor is not allowed.\");\n       return priceBook[_tenor][latestBookTime[_tenor]];\n   }\n\n    event OneUpdateCompleted(uint256 _updateTime, uint256 _updatePrice, uint256 _counter);\n    event VolatilityUpdated(uint256 _updateTime, uint256 _tenor, uint256 _updatePrice, uint256 _updateVolatility);\n    event NewTenor(uint256 _newTenor);\n    event NewParameters(uint256 _tenor, VolParam _volParams);\n }\n",
  "sourcePath": "/Users/mac/Documents/GitHub/moret/contracts/VolatilityChain.sol",
  "compiler": {
    "name": "solc",
    "version": "0.8.6+commit.11564f7e.Emscripten.clang"
  },
  "schemaVersion": "3.4.1",
  "updatedAt": "2021-06-24T19:45:29.508Z",
  "devdoc": {
    "kind": "dev",
    "methods": {
      "getRoleAdmin(bytes32)": {
        "details": "Returns the admin role that controls `role`. See {grantRole} and {revokeRole}. To change a role's admin, use {_setRoleAdmin}."
      },
      "grantRole(bytes32,address)": {
        "details": "Grants `role` to `account`. If `account` had not been already granted `role`, emits a {RoleGranted} event. Requirements: - the caller must have ``role``'s admin role."
      },
      "hasRole(bytes32,address)": {
        "details": "Returns `true` if `account` has been granted `role`."
      },
      "owner()": {
        "details": "Returns the address of the current owner."
      },
      "renounceOwnership()": {
        "details": "Leaves the contract without owner. It will not be possible to call `onlyOwner` functions anymore. Can only be called by the current owner. NOTE: Renouncing ownership will leave the contract without an owner, thereby removing any functionality that is only available to the owner."
      },
      "renounceRole(bytes32,address)": {
        "details": "Revokes `role` from the calling account. Roles are often managed via {grantRole} and {revokeRole}: this function's purpose is to provide a mechanism for accounts to lose their privileges if they are compromised (such as when a trusted device is misplaced). If the calling account had been granted `role`, emits a {RoleRevoked} event. Requirements: - the caller must be `account`."
      },
      "revokeRole(bytes32,address)": {
        "details": "Revokes `role` from `account`. If `account` had been granted `role`, emits a {RoleRevoked} event. Requirements: - the caller must have ``role``'s admin role."
      },
      "supportsInterface(bytes4)": {
        "details": "See {IERC165-supportsInterface}."
      },
      "transferOwnership(address)": {
        "details": "Transfers ownership of the contract to a new account (`newOwner`). Can only be called by the current owner."
      }
    },
    "version": 1
  },
  "userdoc": {
    "kind": "user",
    "methods": {},
    "version": 1
  }
}