{
  "contractName": "VolatilityToken",
  "abi": [
    {
      "inputs": [
        {
          "internalType": "address",
          "name": "_underlying",
          "type": "address"
        },
        {
          "internalType": "uint256",
          "name": "_tenor",
          "type": "uint256"
        },
        {
          "internalType": "string",
          "name": "_name",
          "type": "string"
        },
        {
          "internalType": "string",
          "name": "_symbol",
          "type": "string"
        },
        {
          "internalType": "address",
          "name": "_exchange",
          "type": "address"
        }
      ],
      "stateMutability": "nonpayable",
      "type": "constructor"
    },
    {
      "anonymous": false,
      "inputs": [
        {
          "indexed": true,
          "internalType": "address",
          "name": "owner",
          "type": "address"
        },
        {
          "indexed": true,
          "internalType": "address",
          "name": "spender",
          "type": "address"
        },
        {
          "indexed": false,
          "internalType": "uint256",
          "name": "value",
          "type": "uint256"
        }
      ],
      "name": "Approval",
      "type": "event"
    },
    {
      "anonymous": false,
      "inputs": [
        {
          "indexed": true,
          "internalType": "bytes32",
          "name": "role",
          "type": "bytes32"
        },
        {
          "indexed": true,
          "internalType": "bytes32",
          "name": "previousAdminRole",
          "type": "bytes32"
        },
        {
          "indexed": true,
          "internalType": "bytes32",
          "name": "newAdminRole",
          "type": "bytes32"
        }
      ],
      "name": "RoleAdminChanged",
      "type": "event"
    },
    {
      "anonymous": false,
      "inputs": [
        {
          "indexed": true,
          "internalType": "bytes32",
          "name": "role",
          "type": "bytes32"
        },
        {
          "indexed": true,
          "internalType": "address",
          "name": "account",
          "type": "address"
        },
        {
          "indexed": true,
          "internalType": "address",
          "name": "sender",
          "type": "address"
        }
      ],
      "name": "RoleGranted",
      "type": "event"
    },
    {
      "anonymous": false,
      "inputs": [
        {
          "indexed": true,
          "internalType": "bytes32",
          "name": "role",
          "type": "bytes32"
        },
        {
          "indexed": true,
          "internalType": "address",
          "name": "account",
          "type": "address"
        },
        {
          "indexed": true,
          "internalType": "address",
          "name": "sender",
          "type": "address"
        }
      ],
      "name": "RoleRevoked",
      "type": "event"
    },
    {
      "anonymous": false,
      "inputs": [
        {
          "indexed": true,
          "internalType": "address",
          "name": "from",
          "type": "address"
        },
        {
          "indexed": true,
          "internalType": "address",
          "name": "to",
          "type": "address"
        },
        {
          "indexed": false,
          "internalType": "uint256",
          "name": "value",
          "type": "uint256"
        }
      ],
      "name": "Transfer",
      "type": "event"
    },
    {
      "inputs": [],
      "name": "DEFAULT_ADMIN_ROLE",
      "outputs": [
        {
          "internalType": "bytes32",
          "name": "",
          "type": "bytes32"
        }
      ],
      "stateMutability": "view",
      "type": "function"
    },
    {
      "inputs": [],
      "name": "EXCHANGE",
      "outputs": [
        {
          "internalType": "bytes32",
          "name": "",
          "type": "bytes32"
        }
      ],
      "stateMutability": "view",
      "type": "function"
    },
    {
      "inputs": [
        {
          "internalType": "address",
          "name": "owner",
          "type": "address"
        },
        {
          "internalType": "address",
          "name": "spender",
          "type": "address"
        }
      ],
      "name": "allowance",
      "outputs": [
        {
          "internalType": "uint256",
          "name": "",
          "type": "uint256"
        }
      ],
      "stateMutability": "view",
      "type": "function"
    },
    {
      "inputs": [
        {
          "internalType": "address",
          "name": "spender",
          "type": "address"
        },
        {
          "internalType": "uint256",
          "name": "amount",
          "type": "uint256"
        }
      ],
      "name": "approve",
      "outputs": [
        {
          "internalType": "bool",
          "name": "",
          "type": "bool"
        }
      ],
      "stateMutability": "nonpayable",
      "type": "function"
    },
    {
      "inputs": [
        {
          "internalType": "address",
          "name": "account",
          "type": "address"
        }
      ],
      "name": "balanceOf",
      "outputs": [
        {
          "internalType": "uint256",
          "name": "",
          "type": "uint256"
        }
      ],
      "stateMutability": "view",
      "type": "function"
    },
    {
      "inputs": [],
      "name": "decimals",
      "outputs": [
        {
          "internalType": "uint8",
          "name": "",
          "type": "uint8"
        }
      ],
      "stateMutability": "view",
      "type": "function"
    },
    {
      "inputs": [
        {
          "internalType": "address",
          "name": "spender",
          "type": "address"
        },
        {
          "internalType": "uint256",
          "name": "subtractedValue",
          "type": "uint256"
        }
      ],
      "name": "decreaseAllowance",
      "outputs": [
        {
          "internalType": "bool",
          "name": "",
          "type": "bool"
        }
      ],
      "stateMutability": "nonpayable",
      "type": "function"
    },
    {
      "inputs": [
        {
          "internalType": "bytes32",
          "name": "role",
          "type": "bytes32"
        }
      ],
      "name": "getRoleAdmin",
      "outputs": [
        {
          "internalType": "bytes32",
          "name": "",
          "type": "bytes32"
        }
      ],
      "stateMutability": "view",
      "type": "function"
    },
    {
      "inputs": [
        {
          "internalType": "bytes32",
          "name": "role",
          "type": "bytes32"
        },
        {
          "internalType": "address",
          "name": "account",
          "type": "address"
        }
      ],
      "name": "grantRole",
      "outputs": [],
      "stateMutability": "nonpayable",
      "type": "function"
    },
    {
      "inputs": [
        {
          "internalType": "bytes32",
          "name": "role",
          "type": "bytes32"
        },
        {
          "internalType": "address",
          "name": "account",
          "type": "address"
        }
      ],
      "name": "hasRole",
      "outputs": [
        {
          "internalType": "bool",
          "name": "",
          "type": "bool"
        }
      ],
      "stateMutability": "view",
      "type": "function"
    },
    {
      "inputs": [
        {
          "internalType": "address",
          "name": "spender",
          "type": "address"
        },
        {
          "internalType": "uint256",
          "name": "addedValue",
          "type": "uint256"
        }
      ],
      "name": "increaseAllowance",
      "outputs": [
        {
          "internalType": "bool",
          "name": "",
          "type": "bool"
        }
      ],
      "stateMutability": "nonpayable",
      "type": "function"
    },
    {
      "inputs": [],
      "name": "name",
      "outputs": [
        {
          "internalType": "string",
          "name": "",
          "type": "string"
        }
      ],
      "stateMutability": "view",
      "type": "function"
    },
    {
      "inputs": [
        {
          "internalType": "bytes32",
          "name": "role",
          "type": "bytes32"
        },
        {
          "internalType": "address",
          "name": "account",
          "type": "address"
        }
      ],
      "name": "renounceRole",
      "outputs": [],
      "stateMutability": "nonpayable",
      "type": "function"
    },
    {
      "inputs": [
        {
          "internalType": "bytes32",
          "name": "role",
          "type": "bytes32"
        },
        {
          "internalType": "address",
          "name": "account",
          "type": "address"
        }
      ],
      "name": "revokeRole",
      "outputs": [],
      "stateMutability": "nonpayable",
      "type": "function"
    },
    {
      "inputs": [
        {
          "internalType": "bytes4",
          "name": "interfaceId",
          "type": "bytes4"
        }
      ],
      "name": "supportsInterface",
      "outputs": [
        {
          "internalType": "bool",
          "name": "",
          "type": "bool"
        }
      ],
      "stateMutability": "view",
      "type": "function"
    },
    {
      "inputs": [],
      "name": "symbol",
      "outputs": [
        {
          "internalType": "string",
          "name": "",
          "type": "string"
        }
      ],
      "stateMutability": "view",
      "type": "function"
    },
    {
      "inputs": [],
      "name": "tenor",
      "outputs": [
        {
          "internalType": "uint256",
          "name": "",
          "type": "uint256"
        }
      ],
      "stateMutability": "view",
      "type": "function"
    },
    {
      "inputs": [],
      "name": "totalSupply",
      "outputs": [
        {
          "internalType": "uint256",
          "name": "",
          "type": "uint256"
        }
      ],
      "stateMutability": "view",
      "type": "function"
    },
    {
      "inputs": [
        {
          "internalType": "address",
          "name": "to",
          "type": "address"
        },
        {
          "internalType": "uint256",
          "name": "amount",
          "type": "uint256"
        }
      ],
      "name": "transfer",
      "outputs": [
        {
          "internalType": "bool",
          "name": "",
          "type": "bool"
        }
      ],
      "stateMutability": "nonpayable",
      "type": "function"
    },
    {
      "inputs": [
        {
          "internalType": "address",
          "name": "from",
          "type": "address"
        },
        {
          "internalType": "address",
          "name": "to",
          "type": "address"
        },
        {
          "internalType": "uint256",
          "name": "amount",
          "type": "uint256"
        }
      ],
      "name": "transferFrom",
      "outputs": [
        {
          "internalType": "bool",
          "name": "",
          "type": "bool"
        }
      ],
      "stateMutability": "nonpayable",
      "type": "function"
    },
    {
      "inputs": [],
      "name": "underlying",
      "outputs": [
        {
          "internalType": "address",
          "name": "",
          "type": "address"
        }
      ],
      "stateMutability": "view",
      "type": "function"
    },
    {
      "inputs": [
        {
          "internalType": "address",
          "name": "_account",
          "type": "address"
        },
        {
          "internalType": "uint256",
          "name": "_amount",
          "type": "uint256"
        }
      ],
      "name": "mint",
      "outputs": [],
      "stateMutability": "nonpayable",
      "type": "function"
    },
    {
      "inputs": [
        {
          "internalType": "address",
          "name": "_account",
          "type": "address"
        },
        {
          "internalType": "uint256",
          "name": "_amount",
          "type": "uint256"
        }
      ],
      "name": "burn",
      "outputs": [],
      "stateMutability": "nonpayable",
      "type": "function"
    }
  ],
  "bytecode": "0x60806040523480156200001157600080fd5b506040516200342e3803806200342e8339818101604052810190620000379190620008f7565b82828160039080519060200190620000519291906200060a565b5080600490805190602001906200006a9291906200060a565b505050620000826000801b336200010760201b60201c565b8360068190555084600760006101000a81548173ffffffffffffffffffffffffffffffffffffffff021916908373ffffffffffffffffffffffffffffffffffffffff160217905550620000fc7f10b261d3bc7a74f38949f9212b0336103474898eda034c06ae0a3e478dc0e4a5826200011d60201b60201c565b505050505062000d82565b6200011982826200016660201b60201c565b5050565b6200012e826200025860201b60201c565b6200014f81620001436200027860201b60201c565b6200028060201b60201c565b6200016183836200016660201b60201c565b505050565b6200017882826200034460201b60201c565b620002545760016005600084815260200190815260200160002060000160008373ffffffffffffffffffffffffffffffffffffffff1673ffffffffffffffffffffffffffffffffffffffff16815260200190815260200160002060006101000a81548160ff021916908315150217905550620001f96200027860201b60201c565b73ffffffffffffffffffffffffffffffffffffffff168173ffffffffffffffffffffffffffffffffffffffff16837f2f8788117e7eff1d82e926ec794901d17c78024a50270940304540a733656f0d60405160405180910390a45b5050565b600060056000838152602001908152602001600020600101549050919050565b600033905090565b6200029282826200034460201b60201c565b6200034057620002c58173ffffffffffffffffffffffffffffffffffffffff166014620003af60201b62000b701760201c565b620002e08360001c6020620003af60201b62000b701760201c565b604051602001620002f392919062000aaa565b6040516020818303038152906040526040517f08c379a000000000000000000000000000000000000000000000000000000000815260040162000337919062000b3e565b60405180910390fd5b5050565b60006005600084815260200190815260200160002060000160008373ffffffffffffffffffffffffffffffffffffffff1673ffffffffffffffffffffffffffffffffffffffff16815260200190815260200160002060009054906101000a900460ff16905092915050565b606060006002836002620003c4919062000b91565b620003d0919062000bf2565b67ffffffffffffffff811115620003ec57620003eb62000789565b5b6040519080825280601f01601f1916602001820160405280156200041f5781602001600182028036833780820191505090505b5090507f3000000000000000000000000000000000000000000000000000000000000000816000815181106200045a576200045962000c4f565b5b60200101907effffffffffffffffffffffffffffffffffffffffffffffffffffffffffffff1916908160001a9053507f780000000000000000000000000000000000000000000000000000000000000081600181518110620004c157620004c062000c4f565b5b60200101907effffffffffffffffffffffffffffffffffffffffffffffffffffffffffffff1916908160001a9053506000600184600262000503919062000b91565b6200050f919062000bf2565b90505b6001811115620005b9577f3031323334353637383961626364656600000000000000000000000000000000600f86166010811062000555576200055462000c4f565b5b1a60f81b8282815181106200056f576200056e62000c4f565b5b60200101907effffffffffffffffffffffffffffffffffffffffffffffffffffffffffffff1916908160001a905350600485901c945080620005b19062000c7e565b905062000512565b506000841462000600576040517f08c379a0000000000000000000000000000000000000000000000000000000008152600401620005f79062000cfc565b60405180910390fd5b8091505092915050565b828054620006189062000d4d565b90600052602060002090601f0160209004810192826200063c576000855562000688565b82601f106200065757805160ff191683800117855562000688565b8280016001018555821562000688579182015b82811115620006875782518255916020019190600101906200066a565b5b5090506200069791906200069b565b5090565b5b80821115620006b65760008160009055506001016200069c565b5090565b6000604051905090565b600080fd5b600080fd5b600073ffffffffffffffffffffffffffffffffffffffff82169050919050565b6000620006fb82620006ce565b9050919050565b6200070d81620006ee565b81146200071957600080fd5b50565b6000815190506200072d8162000702565b92915050565b6000819050919050565b620007488162000733565b81146200075457600080fd5b50565b60008151905062000768816200073d565b92915050565b600080fd5b600080fd5b6000601f19601f8301169050919050565b7f4e487b7100000000000000000000000000000000000000000000000000000000600052604160045260246000fd5b620007c38262000778565b810181811067ffffffffffffffff82111715620007e557620007e462000789565b5b80604052505050565b6000620007fa620006ba565b9050620008088282620007b8565b919050565b600067ffffffffffffffff8211156200082b576200082a62000789565b5b620008368262000778565b9050602081019050919050565b60005b838110156200086357808201518184015260208101905062000846565b8381111562000873576000848401525b50505050565b6000620008906200088a846200080d565b620007ee565b905082815260208101848484011115620008af57620008ae62000773565b5b620008bc84828562000843565b509392505050565b600082601f830112620008dc57620008db6200076e565b5b8151620008ee84826020860162000879565b91505092915050565b600080600080600060a08688031215620009165762000915620006c4565b5b600062000926888289016200071c565b9550506020620009398882890162000757565b945050604086015167ffffffffffffffff8111156200095d576200095c620006c9565b5b6200096b88828901620008c4565b935050606086015167ffffffffffffffff8111156200098f576200098e620006c9565b5b6200099d88828901620008c4565b9250506080620009b0888289016200071c565b9150509295509295909350565b600081905092915050565b7f416363657373436f6e74726f6c3a206163636f756e7420000000000000000000600082015250565b600062000a00601783620009bd565b915062000a0d82620009c8565b601782019050919050565b600081519050919050565b600062000a308262000a18565b62000a3c8185620009bd565b935062000a4e81856020860162000843565b80840191505092915050565b7f206973206d697373696e6720726f6c6520000000000000000000000000000000600082015250565b600062000a92601183620009bd565b915062000a9f8262000a5a565b601182019050919050565b600062000ab782620009f1565b915062000ac5828562000a23565b915062000ad28262000a83565b915062000ae0828462000a23565b91508190509392505050565b600082825260208201905092915050565b600062000b0a8262000a18565b62000b16818562000aec565b935062000b2881856020860162000843565b62000b338162000778565b840191505092915050565b6000602082019050818103600083015262000b5a818462000afd565b905092915050565b7f4e487b7100000000000000000000000000000000000000000000000000000000600052601160045260246000fd5b600062000b9e8262000733565b915062000bab8362000733565b9250817fffffffffffffffffffffffffffffffffffffffffffffffffffffffffffffffff048311821515161562000be75762000be662000b62565b5b828202905092915050565b600062000bff8262000733565b915062000c0c8362000733565b9250827fffffffffffffffffffffffffffffffffffffffffffffffffffffffffffffffff0382111562000c445762000c4362000b62565b5b828201905092915050565b7f4e487b7100000000000000000000000000000000000000000000000000000000600052603260045260246000fd5b600062000c8b8262000733565b91506000820362000ca15762000ca062000b62565b5b600182039050919050565b7f537472696e67733a20686578206c656e67746820696e73756666696369656e74600082015250565b600062000ce460208362000aec565b915062000cf18262000cac565b602082019050919050565b6000602082019050818103600083015262000d178162000cd5565b9050919050565b7f4e487b7100000000000000000000000000000000000000000000000000000000600052602260045260246000fd5b6000600282049050600182168062000d6657607f821691505b60208210810362000d7c5762000d7b62000d1e565b5b50919050565b61269c8062000d926000396000f3fe608060405234801561001057600080fd5b506004361061014d5760003560e01c80636f307dc3116100c3578063a217fddf1161007c578063a217fddf146103c6578063a457c2d7146103e4578063a9059cbb14610414578063b50e44b814610444578063d547741f14610462578063dd62ed3e1461047e5761014d565b80636f307dc3146102f057806370a082311461030e57806391d148541461033e57806395d89b411461036e5780639dc29fac1461038c578063a15612d1146103a85761014d565b8063248a9ca311610115578063248a9ca31461021e5780632f2ff15d1461024e578063313ce5671461026a57806336568abe1461028857806339509351146102a457806340c10f19146102d45761014d565b806301ffc9a71461015257806306fdde0314610182578063095ea7b3146101a057806318160ddd146101d057806323b872dd146101ee575b600080fd5b61016c600480360381019061016791906118ee565b6104ae565b6040516101799190611936565b60405180910390f35b61018a610528565b60405161019791906119ea565b60405180910390f35b6101ba60048036038101906101b59190611aa0565b6105ba565b6040516101c79190611936565b60405180910390f35b6101d86105dd565b6040516101e59190611aef565b60405180910390f35b61020860048036038101906102039190611b0a565b6105e7565b6040516102159190611936565b60405180910390f35b61023860048036038101906102339190611b93565b610616565b6040516102459190611bcf565b60405180910390f35b61026860048036038101906102639190611bea565b610636565b005b61027261065f565b60405161027f9190611c46565b60405180910390f35b6102a2600480360381019061029d9190611bea565b610668565b005b6102be60048036038101906102b99190611aa0565b6106eb565b6040516102cb9190611936565b60405180910390f35b6102ee60048036038101906102e99190611aa0565b610795565b005b6102f86107d6565b6040516103059190611c70565b60405180910390f35b61032860048036038101906103239190611c8b565b6107fc565b6040516103359190611aef565b60405180910390f35b61035860048036038101906103539190611bea565b610844565b6040516103659190611936565b60405180910390f35b6103766108af565b60405161038391906119ea565b60405180910390f35b6103a660048036038101906103a19190611aa0565b610941565b005b6103b0610982565b6040516103bd9190611aef565b60405180910390f35b6103ce610988565b6040516103db9190611bcf565b60405180910390f35b6103fe60048036038101906103f99190611aa0565b61098f565b60405161040b9190611936565b60405180910390f35b61042e60048036038101906104299190611aa0565b610a79565b60405161043b9190611936565b60405180910390f35b61044c610a9c565b6040516104599190611bcf565b60405180910390f35b61047c60048036038101906104779190611bea565b610ac0565b005b61049860048036038101906104939190611cb8565b610ae9565b6040516104a59190611aef565b60405180910390f35b60007f7965db0b000000000000000000000000000000000000000000000000000000007bffffffffffffffffffffffffffffffffffffffffffffffffffffffff1916827bffffffffffffffffffffffffffffffffffffffffffffffffffffffff19161480610521575061052082610dac565b5b9050919050565b60606003805461053790611d27565b80601f016020809104026020016040519081016040528092919081815260200182805461056390611d27565b80156105b05780601f10610585576101008083540402835291602001916105b0565b820191906000526020600020905b81548152906001019060200180831161059357829003601f168201915b5050505050905090565b6000806105c5610e16565b90506105d2818585610e1e565b600191505092915050565b6000600254905090565b6000806105f2610e16565b90506105ff858285610fe7565b61060a858585611073565b60019150509392505050565b600060056000838152602001908152602001600020600101549050919050565b61063f82610616565b6106508161064b610e16565b6112f2565b61065a838361138f565b505050565b60006012905090565b610670610e16565b73ffffffffffffffffffffffffffffffffffffffff168173ffffffffffffffffffffffffffffffffffffffff16146106dd576040517f08c379a00000000000000000000000000000000000000000000000000000000081526004016106d490611dca565b60405180910390fd5b6106e78282611470565b5050565b6000806106f6610e16565b905061078a818585600160008673ffffffffffffffffffffffffffffffffffffffff1673ffffffffffffffffffffffffffffffffffffffff16815260200190815260200160002060008973ffffffffffffffffffffffffffffffffffffffff1673ffffffffffffffffffffffffffffffffffffffff168152602001908152602001600020546107859190611e19565b610e1e565b600191505092915050565b7f10b261d3bc7a74f38949f9212b0336103474898eda034c06ae0a3e478dc0e4a56107c7816107c2610e16565b6112f2565b6107d18383611552565b505050565b600760009054906101000a900473ffffffffffffffffffffffffffffffffffffffff1681565b60008060008373ffffffffffffffffffffffffffffffffffffffff1673ffffffffffffffffffffffffffffffffffffffff168152602001908152602001600020549050919050565b60006005600084815260200190815260200160002060000160008373ffffffffffffffffffffffffffffffffffffffff1673ffffffffffffffffffffffffffffffffffffffff16815260200190815260200160002060009054906101000a900460ff16905092915050565b6060600480546108be90611d27565b80601f01602080910402602001604051908101604052809291908181526020018280546108ea90611d27565b80156109375780601f1061090c57610100808354040283529160200191610937565b820191906000526020600020905b81548152906001019060200180831161091a57829003601f168201915b5050505050905090565b7f10b261d3bc7a74f38949f9212b0336103474898eda034c06ae0a3e478dc0e4a56109738161096e610e16565b6112f2565b61097d83836116b1565b505050565b60065481565b6000801b81565b60008061099a610e16565b90506000600160008373ffffffffffffffffffffffffffffffffffffffff1673ffffffffffffffffffffffffffffffffffffffff16815260200190815260200160002060008673ffffffffffffffffffffffffffffffffffffffff1673ffffffffffffffffffffffffffffffffffffffff16815260200190815260200160002054905083811015610a60576040517f08c379a0000000000000000000000000000000000000000000000000000000008152600401610a5790611ee1565b60405180910390fd5b610a6d8286868403610e1e565b60019250505092915050565b600080610a84610e16565b9050610a91818585611073565b600191505092915050565b7f10b261d3bc7a74f38949f9212b0336103474898eda034c06ae0a3e478dc0e4a581565b610ac982610616565b610ada81610ad5610e16565b6112f2565b610ae48383611470565b505050565b6000600160008473ffffffffffffffffffffffffffffffffffffffff1673ffffffffffffffffffffffffffffffffffffffff16815260200190815260200160002060008373ffffffffffffffffffffffffffffffffffffffff1673ffffffffffffffffffffffffffffffffffffffff16815260200190815260200160002054905092915050565b606060006002836002610b839190611f01565b610b8d9190611e19565b67ffffffffffffffff811115610ba657610ba5611f5b565b5b6040519080825280601f01601f191660200182016040528015610bd85781602001600182028036833780820191505090505b5090507f300000000000000000000000000000000000000000000000000000000000000081600081518110610c1057610c0f611f8a565b5b60200101907effffffffffffffffffffffffffffffffffffffffffffffffffffffffffffff1916908160001a9053507f780000000000000000000000000000000000000000000000000000000000000081600181518110610c7457610c73611f8a565b5b60200101907effffffffffffffffffffffffffffffffffffffffffffffffffffffffffffff1916908160001a90535060006001846002610cb49190611f01565b610cbe9190611e19565b90505b6001811115610d5e577f3031323334353637383961626364656600000000000000000000000000000000600f861660108110610d0057610cff611f8a565b5b1a60f81b828281518110610d1757610d16611f8a565b5b60200101907effffffffffffffffffffffffffffffffffffffffffffffffffffffffffffff1916908160001a905350600485901c945080610d5790611fb9565b9050610cc1565b5060008414610da2576040517f08c379a0000000000000000000000000000000000000000000000000000000008152600401610d999061202e565b60405180910390fd5b8091505092915050565b60007f01ffc9a7000000000000000000000000000000000000000000000000000000007bffffffffffffffffffffffffffffffffffffffffffffffffffffffff1916827bffffffffffffffffffffffffffffffffffffffffffffffffffffffff1916149050919050565b600033905090565b600073ffffffffffffffffffffffffffffffffffffffff168373ffffffffffffffffffffffffffffffffffffffff1603610e8d576040517f08c379a0000000000000000000000000000000000000000000000000000000008152600401610e84906120c0565b60405180910390fd5b600073ffffffffffffffffffffffffffffffffffffffff168273ffffffffffffffffffffffffffffffffffffffff1603610efc576040517f08c379a0000000000000000000000000000000000000000000000000000000008152600401610ef390612152565b60405180910390fd5b80600160008573ffffffffffffffffffffffffffffffffffffffff1673ffffffffffffffffffffffffffffffffffffffff16815260200190815260200160002060008473ffffffffffffffffffffffffffffffffffffffff1673ffffffffffffffffffffffffffffffffffffffff168152602001908152602001600020819055508173ffffffffffffffffffffffffffffffffffffffff168373ffffffffffffffffffffffffffffffffffffffff167f8c5be1e5ebec7d5bd14f71427d1e84f3dd0314c0f7b2291e5b200ac8c7c3b92583604051610fda9190611aef565b60405180910390a3505050565b6000610ff38484610ae9565b90507fffffffffffffffffffffffffffffffffffffffffffffffffffffffffffffffff811461106d578181101561105f576040517f08c379a0000000000000000000000000000000000000000000000000000000008152600401611056906121be565b60405180910390fd5b61106c8484848403610e1e565b5b50505050565b600073ffffffffffffffffffffffffffffffffffffffff168373ffffffffffffffffffffffffffffffffffffffff16036110e2576040517f08c379a00000000000000000000000000000000000000000000000000000000081526004016110d990612250565b60405180910390fd5b600073ffffffffffffffffffffffffffffffffffffffff168273ffffffffffffffffffffffffffffffffffffffff1603611151576040517f08c379a0000000000000000000000000000000000000000000000000000000008152600401611148906122e2565b60405180910390fd5b61115c838383611887565b60008060008573ffffffffffffffffffffffffffffffffffffffff1673ffffffffffffffffffffffffffffffffffffffff168152602001908152602001600020549050818110156111e2576040517f08c379a00000000000000000000000000000000000000000000000000000000081526004016111d990612374565b60405180910390fd5b8181036000808673ffffffffffffffffffffffffffffffffffffffff1673ffffffffffffffffffffffffffffffffffffffff16815260200190815260200160002081905550816000808573ffffffffffffffffffffffffffffffffffffffff1673ffffffffffffffffffffffffffffffffffffffff16815260200190815260200160002060008282546112759190611e19565b925050819055508273ffffffffffffffffffffffffffffffffffffffff168473ffffffffffffffffffffffffffffffffffffffff167fddf252ad1be2c89b69c2b068fc378daa952ba7f163c4a11628f55a4df523b3ef846040516112d99190611aef565b60405180910390a36112ec84848461188c565b50505050565b6112fc8282610844565b61138b576113218173ffffffffffffffffffffffffffffffffffffffff166014610b70565b61132f8360001c6020610b70565b604051602001611340929190612468565b6040516020818303038152906040526040517f08c379a000000000000000000000000000000000000000000000000000000000815260040161138291906119ea565b60405180910390fd5b5050565b6113998282610844565b61146c5760016005600084815260200190815260200160002060000160008373ffffffffffffffffffffffffffffffffffffffff1673ffffffffffffffffffffffffffffffffffffffff16815260200190815260200160002060006101000a81548160ff021916908315150217905550611411610e16565b73ffffffffffffffffffffffffffffffffffffffff168173ffffffffffffffffffffffffffffffffffffffff16837f2f8788117e7eff1d82e926ec794901d17c78024a50270940304540a733656f0d60405160405180910390a45b5050565b61147a8282610844565b1561154e5760006005600084815260200190815260200160002060000160008373ffffffffffffffffffffffffffffffffffffffff1673ffffffffffffffffffffffffffffffffffffffff16815260200190815260200160002060006101000a81548160ff0219169083151502179055506114f3610e16565b73ffffffffffffffffffffffffffffffffffffffff168173ffffffffffffffffffffffffffffffffffffffff16837ff6391f5c32d9c69d2a47ea670b442974b53935d1edc7fd64eb21e047a839171b60405160405180910390a45b5050565b600073ffffffffffffffffffffffffffffffffffffffff168273ffffffffffffffffffffffffffffffffffffffff16036115c1576040517f08c379a00000000000000000000000000000000000000000000000000000000081526004016115b8906124ee565b60405180910390fd5b6115cd60008383611887565b80600260008282546115df9190611e19565b92505081905550806000808473ffffffffffffffffffffffffffffffffffffffff1673ffffffffffffffffffffffffffffffffffffffff16815260200190815260200160002060008282546116349190611e19565b925050819055508173ffffffffffffffffffffffffffffffffffffffff16600073ffffffffffffffffffffffffffffffffffffffff167fddf252ad1be2c89b69c2b068fc378daa952ba7f163c4a11628f55a4df523b3ef836040516116999190611aef565b60405180910390a36116ad6000838361188c565b5050565b600073ffffffffffffffffffffffffffffffffffffffff168273ffffffffffffffffffffffffffffffffffffffff1603611720576040517f08c379a000000000000000000000000000000000000000000000000000000000815260040161171790612580565b60405180910390fd5b61172c82600083611887565b60008060008473ffffffffffffffffffffffffffffffffffffffff1673ffffffffffffffffffffffffffffffffffffffff168152602001908152602001600020549050818110156117b2576040517f08c379a00000000000000000000000000000000000000000000000000000000081526004016117a990612612565b60405180910390fd5b8181036000808573ffffffffffffffffffffffffffffffffffffffff1673ffffffffffffffffffffffffffffffffffffffff1681526020019081526020016000208190555081600260008282546118099190612632565b92505081905550600073ffffffffffffffffffffffffffffffffffffffff168373ffffffffffffffffffffffffffffffffffffffff167fddf252ad1be2c89b69c2b068fc378daa952ba7f163c4a11628f55a4df523b3ef8460405161186e9190611aef565b60405180910390a36118828360008461188c565b505050565b505050565b505050565b600080fd5b60007fffffffff0000000000000000000000000000000000000000000000000000000082169050919050565b6118cb81611896565b81146118d657600080fd5b50565b6000813590506118e8816118c2565b92915050565b60006020828403121561190457611903611891565b5b6000611912848285016118d9565b91505092915050565b60008115159050919050565b6119308161191b565b82525050565b600060208201905061194b6000830184611927565b92915050565b600081519050919050565b600082825260208201905092915050565b60005b8381101561198b578082015181840152602081019050611970565b8381111561199a576000848401525b50505050565b6000601f19601f8301169050919050565b60006119bc82611951565b6119c6818561195c565b93506119d681856020860161196d565b6119df816119a0565b840191505092915050565b60006020820190508181036000830152611a0481846119b1565b905092915050565b600073ffffffffffffffffffffffffffffffffffffffff82169050919050565b6000611a3782611a0c565b9050919050565b611a4781611a2c565b8114611a5257600080fd5b50565b600081359050611a6481611a3e565b92915050565b6000819050919050565b611a7d81611a6a565b8114611a8857600080fd5b50565b600081359050611a9a81611a74565b92915050565b60008060408385031215611ab757611ab6611891565b5b6000611ac585828601611a55565b9250506020611ad685828601611a8b565b9150509250929050565b611ae981611a6a565b82525050565b6000602082019050611b046000830184611ae0565b92915050565b600080600060608486031215611b2357611b22611891565b5b6000611b3186828701611a55565b9350506020611b4286828701611a55565b9250506040611b5386828701611a8b565b9150509250925092565b6000819050919050565b611b7081611b5d565b8114611b7b57600080fd5b50565b600081359050611b8d81611b67565b92915050565b600060208284031215611ba957611ba8611891565b5b6000611bb784828501611b7e565b91505092915050565b611bc981611b5d565b82525050565b6000602082019050611be46000830184611bc0565b92915050565b60008060408385031215611c0157611c00611891565b5b6000611c0f85828601611b7e565b9250506020611c2085828601611a55565b9150509250929050565b600060ff82169050919050565b611c4081611c2a565b82525050565b6000602082019050611c5b6000830184611c37565b92915050565b611c6a81611a2c565b82525050565b6000602082019050611c856000830184611c61565b92915050565b600060208284031215611ca157611ca0611891565b5b6000611caf84828501611a55565b91505092915050565b60008060408385031215611ccf57611cce611891565b5b6000611cdd85828601611a55565b9250506020611cee85828601611a55565b9150509250929050565b7f4e487b7100000000000000000000000000000000000000000000000000000000600052602260045260246000fd5b60006002820490506001821680611d3f57607f821691505b602082108103611d5257611d51611cf8565b5b50919050565b7f416363657373436f6e74726f6c3a2063616e206f6e6c792072656e6f756e636560008201527f20726f6c657320666f722073656c660000000000000000000000000000000000602082015250565b6000611db4602f8361195c565b9150611dbf82611d58565b604082019050919050565b60006020820190508181036000830152611de381611da7565b9050919050565b7f4e487b7100000000000000000000000000000000000000000000000000000000600052601160045260246000fd5b6000611e2482611a6a565b9150611e2f83611a6a565b9250827fffffffffffffffffffffffffffffffffffffffffffffffffffffffffffffffff03821115611e6457611e63611dea565b5b828201905092915050565b7f45524332303a2064656372656173656420616c6c6f77616e63652062656c6f7760008201527f207a65726f000000000000000000000000000000000000000000000000000000602082015250565b6000611ecb60258361195c565b9150611ed682611e6f565b604082019050919050565b60006020820190508181036000830152611efa81611ebe565b9050919050565b6000611f0c82611a6a565b9150611f1783611a6a565b9250817fffffffffffffffffffffffffffffffffffffffffffffffffffffffffffffffff0483118215151615611f5057611f4f611dea565b5b828202905092915050565b7f4e487b7100000000000000000000000000000000000000000000000000000000600052604160045260246000fd5b7f4e487b7100000000000000000000000000000000000000000000000000000000600052603260045260246000fd5b6000611fc482611a6a565b915060008203611fd757611fd6611dea565b5b600182039050919050565b7f537472696e67733a20686578206c656e67746820696e73756666696369656e74600082015250565b600061201860208361195c565b915061202382611fe2565b602082019050919050565b600060208201905081810360008301526120478161200b565b9050919050565b7f45524332303a20617070726f76652066726f6d20746865207a65726f2061646460008201527f7265737300000000000000000000000000000000000000000000000000000000602082015250565b60006120aa60248361195c565b91506120b58261204e565b604082019050919050565b600060208201905081810360008301526120d98161209d565b9050919050565b7f45524332303a20617070726f766520746f20746865207a65726f20616464726560008201527f7373000000000000000000000000000000000000000000000000000000000000602082015250565b600061213c60228361195c565b9150612147826120e0565b604082019050919050565b6000602082019050818103600083015261216b8161212f565b9050919050565b7f45524332303a20696e73756666696369656e7420616c6c6f77616e6365000000600082015250565b60006121a8601d8361195c565b91506121b382612172565b602082019050919050565b600060208201905081810360008301526121d78161219b565b9050919050565b7f45524332303a207472616e736665722066726f6d20746865207a65726f20616460008201527f6472657373000000000000000000000000000000000000000000000000000000602082015250565b600061223a60258361195c565b9150612245826121de565b604082019050919050565b600060208201905081810360008301526122698161222d565b9050919050565b7f45524332303a207472616e7366657220746f20746865207a65726f206164647260008201527f6573730000000000000000000000000000000000000000000000000000000000602082015250565b60006122cc60238361195c565b91506122d782612270565b604082019050919050565b600060208201905081810360008301526122fb816122bf565b9050919050565b7f45524332303a207472616e7366657220616d6f756e742065786365656473206260008201527f616c616e63650000000000000000000000000000000000000000000000000000602082015250565b600061235e60268361195c565b915061236982612302565b604082019050919050565b6000602082019050818103600083015261238d81612351565b9050919050565b600081905092915050565b7f416363657373436f6e74726f6c3a206163636f756e7420000000000000000000600082015250565b60006123d5601783612394565b91506123e08261239f565b601782019050919050565b60006123f682611951565b6124008185612394565b935061241081856020860161196d565b80840191505092915050565b7f206973206d697373696e6720726f6c6520000000000000000000000000000000600082015250565b6000612452601183612394565b915061245d8261241c565b601182019050919050565b6000612473826123c8565b915061247f82856123eb565b915061248a82612445565b915061249682846123eb565b91508190509392505050565b7f45524332303a206d696e7420746f20746865207a65726f206164647265737300600082015250565b60006124d8601f8361195c565b91506124e3826124a2565b602082019050919050565b60006020820190508181036000830152612507816124cb565b9050919050565b7f45524332303a206275726e2066726f6d20746865207a65726f2061646472657360008201527f7300000000000000000000000000000000000000000000000000000000000000602082015250565b600061256a60218361195c565b91506125758261250e565b604082019050919050565b600060208201905081810360008301526125998161255d565b9050919050565b7f45524332303a206275726e20616d6f756e7420657863656564732062616c616e60008201527f6365000000000000000000000000000000000000000000000000000000000000602082015250565b60006125fc60228361195c565b9150612607826125a0565b604082019050919050565b6000602082019050818103600083015261262b816125ef565b9050919050565b600061263d82611a6a565b915061264883611a6a565b92508282101561265b5761265a611dea565b5b82820390509291505056fea2646970667358221220467c43c4ad3da48bdea9055260516789d8515ae89901be4979d6f17686bbc0fe64736f6c634300080d0033",
  "immutableReferences": {},
  "source": "// SPDX-License-Identifier: MIT\npragma solidity ^0.8.4;\n\nimport \"@openzeppelin/contracts/token/ERC20/ERC20.sol\";\nimport \"@openzeppelin/contracts/access/AccessControl.sol\";\n\ncontract VolatilityToken is ERC20, AccessControl{\n    bytes32 public constant EXCHANGE = keccak256(\"EXCHANGE\");\n\n    uint256 public tenor;\n    address public underlying;\n\n    // constructor, ownership is transferred to Moret gov token which can mint and burn the tokens.\n    constructor(address _underlying, uint256 _tenor, string memory _name, string memory _symbol, address _exchange ) ERC20(_name, _symbol) {\n        _setupRole(DEFAULT_ADMIN_ROLE, msg.sender);\n        tenor = _tenor;\n        underlying = _underlying;\n        grantRole(EXCHANGE, _exchange);}\n\n    function mint(address _account, uint256 _amount) public onlyRole(EXCHANGE) {_mint(_account, _amount);}\n    function burn(address _account, uint256 _amount) public onlyRole(EXCHANGE){ _burn(_account, _amount);}\n}\n",
  "sourcePath": "/Users/mac/Documents/GitHub/moret/contracts/VolatilityToken.sol",
  "compiler": {
    "name": "solc",
    "version": "0.8.13+commit.abaa5c0e.Emscripten.clang"
  },
  "schemaVersion": "3.4.3",
  "updatedAt": "2022-05-09T22:27:03.630Z",
  "devdoc": {
    "kind": "dev",
    "methods": {
      "allowance(address,address)": {
        "details": "See {IERC20-allowance}."
      },
      "approve(address,uint256)": {
        "details": "See {IERC20-approve}. NOTE: If `amount` is the maximum `uint256`, the allowance is not updated on `transferFrom`. This is semantically equivalent to an infinite approval. Requirements: - `spender` cannot be the zero address."
      },
      "balanceOf(address)": {
        "details": "See {IERC20-balanceOf}."
      },
      "decimals()": {
        "details": "Returns the number of decimals used to get its user representation. For example, if `decimals` equals `2`, a balance of `505` tokens should be displayed to a user as `5.05` (`505 / 10 ** 2`). Tokens usually opt for a value of 18, imitating the relationship between Ether and Wei. This is the value {ERC20} uses, unless this function is overridden; NOTE: This information is only used for _display_ purposes: it in no way affects any of the arithmetic of the contract, including {IERC20-balanceOf} and {IERC20-transfer}."
      },
      "decreaseAllowance(address,uint256)": {
        "details": "Atomically decreases the allowance granted to `spender` by the caller. This is an alternative to {approve} that can be used as a mitigation for problems described in {IERC20-approve}. Emits an {Approval} event indicating the updated allowance. Requirements: - `spender` cannot be the zero address. - `spender` must have allowance for the caller of at least `subtractedValue`."
      },
      "getRoleAdmin(bytes32)": {
        "details": "Returns the admin role that controls `role`. See {grantRole} and {revokeRole}. To change a role's admin, use {_setRoleAdmin}."
      },
      "grantRole(bytes32,address)": {
        "details": "Grants `role` to `account`. If `account` had not been already granted `role`, emits a {RoleGranted} event. Requirements: - the caller must have ``role``'s admin role."
      },
      "hasRole(bytes32,address)": {
        "details": "Returns `true` if `account` has been granted `role`."
      },
      "increaseAllowance(address,uint256)": {
        "details": "Atomically increases the allowance granted to `spender` by the caller. This is an alternative to {approve} that can be used as a mitigation for problems described in {IERC20-approve}. Emits an {Approval} event indicating the updated allowance. Requirements: - `spender` cannot be the zero address."
      },
      "name()": {
        "details": "Returns the name of the token."
      },
      "renounceRole(bytes32,address)": {
        "details": "Revokes `role` from the calling account. Roles are often managed via {grantRole} and {revokeRole}: this function's purpose is to provide a mechanism for accounts to lose their privileges if they are compromised (such as when a trusted device is misplaced). If the calling account had been revoked `role`, emits a {RoleRevoked} event. Requirements: - the caller must be `account`."
      },
      "revokeRole(bytes32,address)": {
        "details": "Revokes `role` from `account`. If `account` had been granted `role`, emits a {RoleRevoked} event. Requirements: - the caller must have ``role``'s admin role."
      },
      "supportsInterface(bytes4)": {
        "details": "See {IERC165-supportsInterface}."
      },
      "symbol()": {
        "details": "Returns the symbol of the token, usually a shorter version of the name."
      },
      "totalSupply()": {
        "details": "See {IERC20-totalSupply}."
      },
      "transfer(address,uint256)": {
        "details": "See {IERC20-transfer}. Requirements: - `to` cannot be the zero address. - the caller must have a balance of at least `amount`."
      },
      "transferFrom(address,address,uint256)": {
        "details": "See {IERC20-transferFrom}. Emits an {Approval} event indicating the updated allowance. This is not required by the EIP. See the note at the beginning of {ERC20}. NOTE: Does not update the allowance if the current allowance is the maximum `uint256`. Requirements: - `from` and `to` cannot be the zero address. - `from` must have a balance of at least `amount`. - the caller must have allowance for ``from``'s tokens of at least `amount`."
      }
    },
    "version": 1
  },
  "userdoc": {
    "kind": "user",
    "methods": {},
    "version": 1
  }
}