{
  "contractName": "VolatilityChain",
  "abi": [
    {
      "inputs": [
        {
          "internalType": "address",
          "name": "_priceSourceId",
          "type": "address"
        },
        {
          "internalType": "uint256",
          "name": "_parameterDecimals",
          "type": "uint256"
        },
        {
          "internalType": "string",
          "name": "_tokenName",
          "type": "string"
        }
      ],
      "stateMutability": "nonpayable",
      "type": "constructor"
    },
    {
      "anonymous": false,
      "inputs": [
        {
          "indexed": true,
          "internalType": "address",
          "name": "previousOwner",
          "type": "address"
        },
        {
          "indexed": true,
          "internalType": "address",
          "name": "newOwner",
          "type": "address"
        }
      ],
      "name": "OwnershipTransferred",
      "type": "event"
    },
    {
      "anonymous": false,
      "inputs": [
        {
          "indexed": true,
          "internalType": "bytes32",
          "name": "role",
          "type": "bytes32"
        },
        {
          "indexed": true,
          "internalType": "bytes32",
          "name": "previousAdminRole",
          "type": "bytes32"
        },
        {
          "indexed": true,
          "internalType": "bytes32",
          "name": "newAdminRole",
          "type": "bytes32"
        }
      ],
      "name": "RoleAdminChanged",
      "type": "event"
    },
    {
      "anonymous": false,
      "inputs": [
        {
          "indexed": true,
          "internalType": "bytes32",
          "name": "role",
          "type": "bytes32"
        },
        {
          "indexed": true,
          "internalType": "address",
          "name": "account",
          "type": "address"
        },
        {
          "indexed": true,
          "internalType": "address",
          "name": "sender",
          "type": "address"
        }
      ],
      "name": "RoleGranted",
      "type": "event"
    },
    {
      "anonymous": false,
      "inputs": [
        {
          "indexed": true,
          "internalType": "bytes32",
          "name": "role",
          "type": "bytes32"
        },
        {
          "indexed": true,
          "internalType": "address",
          "name": "account",
          "type": "address"
        },
        {
          "indexed": true,
          "internalType": "address",
          "name": "sender",
          "type": "address"
        }
      ],
      "name": "RoleRevoked",
      "type": "event"
    },
    {
      "anonymous": false,
      "inputs": [
        {
          "indexed": true,
          "internalType": "uint256",
          "name": "_tenor",
          "type": "uint256"
        },
        {
          "indexed": false,
          "internalType": "uint256",
          "name": "_timeStamp",
          "type": "uint256"
        },
        {
          "components": [
            {
              "internalType": "uint256",
              "name": "startTime",
              "type": "uint256"
            },
            {
              "internalType": "uint256",
              "name": "endTime",
              "type": "uint256"
            },
            {
              "internalType": "uint256",
              "name": "open",
              "type": "uint256"
            },
            {
              "internalType": "uint256",
              "name": "highest",
              "type": "uint256"
            },
            {
              "internalType": "uint256",
              "name": "lowest",
              "type": "uint256"
            },
            {
              "internalType": "uint256",
              "name": "close",
              "type": "uint256"
            },
            {
              "internalType": "uint256",
              "name": "volatility",
              "type": "uint256"
            },
            {
              "internalType": "uint256",
              "name": "accentus",
              "type": "uint256"
            }
          ],
          "indexed": false,
          "internalType": "struct IVolatilityChain.PriceStamp",
          "name": "_book",
          "type": "tuple"
        }
      ],
      "name": "volatilityChainBlockAdded",
      "type": "event"
    },
    {
      "inputs": [],
      "name": "DEFAULT_ADMIN_ROLE",
      "outputs": [
        {
          "internalType": "bytes32",
          "name": "",
          "type": "bytes32"
        }
      ],
      "stateMutability": "view",
      "type": "function"
    },
    {
      "inputs": [],
      "name": "UPDATE_ROLE",
      "outputs": [
        {
          "internalType": "bytes32",
          "name": "",
          "type": "bytes32"
        }
      ],
      "stateMutability": "view",
      "type": "function"
    },
    {
      "inputs": [],
      "name": "description",
      "outputs": [
        {
          "internalType": "string",
          "name": "",
          "type": "string"
        }
      ],
      "stateMutability": "view",
      "type": "function"
    },
    {
      "inputs": [
        {
          "internalType": "bytes32",
          "name": "role",
          "type": "bytes32"
        }
      ],
      "name": "getRoleAdmin",
      "outputs": [
        {
          "internalType": "bytes32",
          "name": "",
          "type": "bytes32"
        }
      ],
      "stateMutability": "view",
      "type": "function"
    },
    {
      "inputs": [
        {
          "internalType": "bytes32",
          "name": "role",
          "type": "bytes32"
        },
        {
          "internalType": "address",
          "name": "account",
          "type": "address"
        }
      ],
      "name": "grantRole",
      "outputs": [],
      "stateMutability": "nonpayable",
      "type": "function"
    },
    {
      "inputs": [
        {
          "internalType": "bytes32",
          "name": "role",
          "type": "bytes32"
        },
        {
          "internalType": "address",
          "name": "account",
          "type": "address"
        }
      ],
      "name": "hasRole",
      "outputs": [
        {
          "internalType": "bool",
          "name": "",
          "type": "bool"
        }
      ],
      "stateMutability": "view",
      "type": "function"
    },
    {
      "inputs": [
        {
          "internalType": "uint256",
          "name": "",
          "type": "uint256"
        }
      ],
      "name": "latestBookTime",
      "outputs": [
        {
          "internalType": "uint256",
          "name": "",
          "type": "uint256"
        }
      ],
      "stateMutability": "view",
      "type": "function"
    },
    {
      "inputs": [],
      "name": "owner",
      "outputs": [
        {
          "internalType": "address",
          "name": "",
          "type": "address"
        }
      ],
      "stateMutability": "view",
      "type": "function"
    },
    {
      "inputs": [],
      "name": "renounceOwnership",
      "outputs": [],
      "stateMutability": "nonpayable",
      "type": "function"
    },
    {
      "inputs": [
        {
          "internalType": "bytes32",
          "name": "role",
          "type": "bytes32"
        },
        {
          "internalType": "address",
          "name": "account",
          "type": "address"
        }
      ],
      "name": "renounceRole",
      "outputs": [],
      "stateMutability": "nonpayable",
      "type": "function"
    },
    {
      "inputs": [
        {
          "internalType": "bytes32",
          "name": "role",
          "type": "bytes32"
        },
        {
          "internalType": "address",
          "name": "account",
          "type": "address"
        }
      ],
      "name": "revokeRole",
      "outputs": [],
      "stateMutability": "nonpayable",
      "type": "function"
    },
    {
      "inputs": [
        {
          "internalType": "bytes4",
          "name": "interfaceId",
          "type": "bytes4"
        }
      ],
      "name": "supportsInterface",
      "outputs": [
        {
          "internalType": "bool",
          "name": "",
          "type": "bool"
        }
      ],
      "stateMutability": "view",
      "type": "function"
    },
    {
      "inputs": [],
      "name": "tokenHash",
      "outputs": [
        {
          "internalType": "bytes32",
          "name": "",
          "type": "bytes32"
        }
      ],
      "stateMutability": "view",
      "type": "function"
    },
    {
      "inputs": [
        {
          "internalType": "address",
          "name": "newOwner",
          "type": "address"
        }
      ],
      "name": "transferOwnership",
      "outputs": [],
      "stateMutability": "nonpayable",
      "type": "function"
    },
    {
      "inputs": [],
      "name": "volParamDecimals",
      "outputs": [
        {
          "internalType": "uint256",
          "name": "",
          "type": "uint256"
        }
      ],
      "stateMutability": "view",
      "type": "function"
    },
    {
      "inputs": [
        {
          "internalType": "uint256",
          "name": "",
          "type": "uint256"
        }
      ],
      "name": "volatilityParameters",
      "outputs": [
        {
          "internalType": "uint256",
          "name": "initialVol",
          "type": "uint256"
        },
        {
          "internalType": "uint256",
          "name": "ltVol",
          "type": "uint256"
        },
        {
          "internalType": "uint256",
          "name": "ltVolWeighted",
          "type": "uint256"
        },
        {
          "internalType": "uint256",
          "name": "w",
          "type": "uint256"
        },
        {
          "internalType": "uint256",
          "name": "p",
          "type": "uint256"
        },
        {
          "internalType": "uint256",
          "name": "q",
          "type": "uint256"
        }
      ],
      "stateMutability": "view",
      "type": "function"
    },
    {
      "inputs": [],
      "name": "volatilityUpdateCounter",
      "outputs": [
        {
          "internalType": "uint256",
          "name": "",
          "type": "uint256"
        }
      ],
      "stateMutability": "view",
      "type": "function"
    },
    {
      "inputs": [],
      "name": "volatilityUpdateTime",
      "outputs": [
        {
          "internalType": "uint256",
          "name": "",
          "type": "uint256"
        }
      ],
      "stateMutability": "view",
      "type": "function"
    },
    {
      "inputs": [
        {
          "internalType": "uint256",
          "name": "_tenor",
          "type": "uint256"
        }
      ],
      "name": "getVol",
      "outputs": [
        {
          "internalType": "uint256",
          "name": "",
          "type": "uint256"
        },
        {
          "internalType": "uint256",
          "name": "",
          "type": "uint256"
        }
      ],
      "stateMutability": "view",
      "type": "function"
    },
    {
      "inputs": [],
      "name": "queryPrice",
      "outputs": [
        {
          "internalType": "uint256",
          "name": "",
          "type": "uint256"
        },
        {
          "internalType": "uint256",
          "name": "",
          "type": "uint256"
        }
      ],
      "stateMutability": "view",
      "type": "function"
    },
    {
      "inputs": [],
      "name": "update",
      "outputs": [],
      "stateMutability": "nonpayable",
      "type": "function"
    },
    {
      "inputs": [
        {
          "internalType": "uint256",
          "name": "_tenor",
          "type": "uint256"
        },
        {
          "components": [
            {
              "internalType": "uint256",
              "name": "initialVol",
              "type": "uint256"
            },
            {
              "internalType": "uint256",
              "name": "ltVol",
              "type": "uint256"
            },
            {
              "internalType": "uint256",
              "name": "ltVolWeighted",
              "type": "uint256"
            },
            {
              "internalType": "uint256",
              "name": "w",
              "type": "uint256"
            },
            {
              "internalType": "uint256",
              "name": "p",
              "type": "uint256"
            },
            {
              "internalType": "uint256",
              "name": "q",
              "type": "uint256"
            }
          ],
          "internalType": "struct IVolatilityChain.VolParam",
          "name": "_volParams",
          "type": "tuple"
        }
      ],
      "name": "resetVolParams",
      "outputs": [],
      "stateMutability": "nonpayable",
      "type": "function"
    },
    {
      "inputs": [
        {
          "internalType": "uint256",
          "name": "_tenor",
          "type": "uint256"
        }
      ],
      "name": "removeTenor",
      "outputs": [],
      "stateMutability": "nonpayable",
      "type": "function"
    },
    {
      "inputs": [
        {
          "internalType": "uint256",
          "name": "_tenor",
          "type": "uint256"
        }
      ],
      "name": "getPriceBook",
      "outputs": [
        {
          "components": [
            {
              "internalType": "uint256",
              "name": "startTime",
              "type": "uint256"
            },
            {
              "internalType": "uint256",
              "name": "endTime",
              "type": "uint256"
            },
            {
              "internalType": "uint256",
              "name": "open",
              "type": "uint256"
            },
            {
              "internalType": "uint256",
              "name": "highest",
              "type": "uint256"
            },
            {
              "internalType": "uint256",
              "name": "lowest",
              "type": "uint256"
            },
            {
              "internalType": "uint256",
              "name": "close",
              "type": "uint256"
            },
            {
              "internalType": "uint256",
              "name": "volatility",
              "type": "uint256"
            },
            {
              "internalType": "uint256",
              "name": "accentus",
              "type": "uint256"
            }
          ],
          "internalType": "struct IVolatilityChain.PriceStamp",
          "name": "",
          "type": "tuple"
        }
      ],
      "stateMutability": "view",
      "type": "function"
    },
    {
      "inputs": [],
      "name": "getPriceMultiplier",
      "outputs": [
        {
          "internalType": "uint256",
          "name": "",
          "type": "uint256"
        }
      ],
      "stateMutability": "view",
      "type": "function"
    },
    {
      "inputs": [],
      "name": "getPriceDecimals",
      "outputs": [
        {
          "internalType": "uint256",
          "name": "",
          "type": "uint256"
        }
      ],
      "stateMutability": "view",
      "type": "function"
    },
    {
      "inputs": [],
      "name": "getDecription",
      "outputs": [
        {
          "internalType": "string",
          "name": "",
          "type": "string"
        }
      ],
      "stateMutability": "view",
      "type": "function"
    }
  ],
  "bytecode": "0x60806040523480156200001157600080fd5b506040516200409b3803806200409b833981810160405281019062000037919062000713565b6000620000496200036760201b60201c565b9050806000806101000a81548173ffffffffffffffffffffffffffffffffffffffff021916908373ffffffffffffffffffffffffffffffffffffffff1602179055508073ffffffffffffffffffffffffffffffffffffffff16600073ffffffffffffffffffffffffffffffffffffffff167f8be0079c531659141344cd1fd0a4f28419497f9722a3daafe3b4186f6b6457e060405160405180910390a350620000fc6000801b336200036f60201b60201c565b6200012e7f3ee192ac25847473237ced4bba57f848e1fd794930ff85b42823290580967205336200036f60201b60201c565b8060405160200162000141919062000848565b604051602081830303815290604052805190602001206003819055506200017b6201518060056200038560201b62001b0a1790919060201c565b5082600260006101000a81548173ffffffffffffffffffffffffffffffffffffffff021916908373ffffffffffffffffffffffffffffffffffffffff160217905550600260009054906101000a900473ffffffffffffffffffffffffffffffffffffffff1673ffffffffffffffffffffffffffffffffffffffff16637284e4166040518163ffffffff1660e01b815260040160006040518083038186803b1580156200022657600080fd5b505afa1580156200023b573d6000803e3d6000fd5b505050506040513d6000823e3d601f19601f820116820180604052508101906200026691906200078e565b600490805190602001906200027d929190620005a0565b50600260009054906101000a900473ffffffffffffffffffffffffffffffffffffffff1673ffffffffffffffffffffffffffffffffffffffff1663313ce5676040518163ffffffff1660e01b815260040160206040518083038186803b158015620002e757600080fd5b505afa158015620002fc573d6000803e3d6000fd5b505050506040513d601f19601f82011682018060405250810190620003229190620007df565b60ff16600981905550600954600a6200033c919062000931565b600a8190555081600e8190555081600a62000358919062000931565b600f8190555050505062000c68565b600033905090565b620003818282620003a760201b60201c565b5050565b60006200039f836000018360001b6200049860201b60201c565b905092915050565b620003b982826200051260201b60201c565b6200049457600180600084815260200190815260200160002060000160008373ffffffffffffffffffffffffffffffffffffffff1673ffffffffffffffffffffffffffffffffffffffff16815260200190815260200160002060006101000a81548160ff021916908315150217905550620004396200036760201b60201c565b73ffffffffffffffffffffffffffffffffffffffff168173ffffffffffffffffffffffffffffffffffffffff16837f2f8788117e7eff1d82e926ec794901d17c78024a50270940304540a733656f0d60405160405180910390a45b5050565b6000620004ac83836200057d60201b60201c565b620005075782600001829080600181540180825580915050600190039060005260206000200160009091909190915055826000018054905083600101600084815260200190815260200160002081905550600190506200050c565b600090505b92915050565b60006001600084815260200190815260200160002060000160008373ffffffffffffffffffffffffffffffffffffffff1673ffffffffffffffffffffffffffffffffffffffff16815260200190815260200160002060009054906101000a900460ff16905092915050565b600080836001016000848152602001908152602001600020541415905092915050565b828054620005ae9062000aef565b90600052602060002090601f016020900481019282620005d257600085556200061e565b82601f10620005ed57805160ff19168380011785556200061e565b828001600101855582156200061e579182015b828111156200061d57825182559160200191906001019062000600565b5b5090506200062d919062000631565b5090565b5b808211156200064c57600081600090555060010162000632565b5090565b60006200066762000661846200088a565b62000861565b90508281526020810184848401111562000686576200068562000bed565b5b6200069384828562000ab9565b509392505050565b600081519050620006ac8162000c1a565b92915050565b600082601f830112620006ca57620006c962000be8565b5b8151620006dc84826020860162000650565b91505092915050565b600081519050620006f68162000c34565b92915050565b6000815190506200070d8162000c4e565b92915050565b6000806000606084860312156200072f576200072e62000bf7565b5b60006200073f868287016200069b565b93505060206200075286828701620006e5565b925050604084015167ffffffffffffffff81111562000776576200077562000bf2565b5b6200078486828701620006b2565b9150509250925092565b600060208284031215620007a757620007a662000bf7565b5b600082015167ffffffffffffffff811115620007c857620007c762000bf2565b5b620007d684828501620006b2565b91505092915050565b600060208284031215620007f857620007f762000bf7565b5b60006200080884828501620006fc565b91505092915050565b60006200081e82620008c0565b6200082a8185620008cb565b93506200083c81856020860162000ab9565b80840191505092915050565b600062000856828462000811565b915081905092915050565b60006200086d62000880565b90506200087b828262000b25565b919050565b6000604051905090565b600067ffffffffffffffff821115620008a857620008a762000bb9565b5b620008b38262000bfc565b9050602081019050919050565b600081519050919050565b600081905092915050565b6000808291508390505b600185111562000928578086048111156200090057620008ff62000b5b565b5b6001851615620009105780820291505b8081029050620009208562000c0d565b9450620008e0565b94509492505050565b60006200093e8262000aa2565b91506200094b8362000aa2565b92506200097a7fffffffffffffffffffffffffffffffffffffffffffffffffffffffffffffffff848462000982565b905092915050565b60008262000994576001905062000a67565b81620009a4576000905062000a67565b8160018114620009bd5760028114620009c857620009fe565b600191505062000a67565b60ff841115620009dd57620009dc62000b5b565b5b8360020a915084821115620009f757620009f662000b5b565b5b5062000a67565b5060208310610133831016604e8410600b841016171562000a385782820a90508381111562000a325762000a3162000b5b565b5b62000a67565b62000a478484846001620008d6565b9250905081840481111562000a615762000a6062000b5b565b5b81810290505b9392505050565b600062000a7b8262000a82565b9050919050565b600073ffffffffffffffffffffffffffffffffffffffff82169050919050565b6000819050919050565b600060ff82169050919050565b60005b8381101562000ad957808201518184015260208101905062000abc565b8381111562000ae9576000848401525b50505050565b6000600282049050600182168062000b0857607f821691505b6020821081141562000b1f5762000b1e62000b8a565b5b50919050565b62000b308262000bfc565b810181811067ffffffffffffffff8211171562000b525762000b5162000bb9565b5b80604052505050565b7f4e487b7100000000000000000000000000000000000000000000000000000000600052601160045260246000fd5b7f4e487b7100000000000000000000000000000000000000000000000000000000600052602260045260246000fd5b7f4e487b7100000000000000000000000000000000000000000000000000000000600052604160045260246000fd5b600080fd5b600080fd5b600080fd5b600080fd5b6000601f19601f8301169050919050565b60008160011c9050919050565b62000c258162000a6e565b811462000c3157600080fd5b50565b62000c3f8162000aa2565b811462000c4b57600080fd5b50565b62000c598162000aac565b811462000c6557600080fd5b50565b6134238062000c786000396000f3fe608060405234801561001057600080fd5b50600436106101a85760003560e01c80638da5cb5b116100f9578063bf0a03ca11610097578063dcbc93f811610071578063dcbc93f814610489578063de0a0129146104a7578063f2fde38b146104dc578063fe67ec0c146104f8576101a8565b8063bf0a03ca14610431578063cca494731461044f578063d547741f1461046d576101a8565b806398de7897116100d357806398de7897146103cc578063a217fddf146103ea578063a2e6204514610408578063b0667cf814610412576101a8565b80638da5cb5b1461036257806391d1485414610380578063966e1766146103b0576101a8565b80632f2ff15d116101665780636c23852d116101405780636c23852d146102ec578063714f13ee1461031c578063715018a61461033a5780637284e41614610344576101a8565b80632f2ff15d1461029657806336568abe146102b25780633dec20f4146102ce576101a8565b8062497846146101ad57806301ffc9a7146101cb578063040b030f146101fb5780631b30aafc1461022c578063248a9ca31461024a578063285f94571461027a575b600080fd5b6101b5610528565b6040516101c29190612b2d565b60405180910390f35b6101e560048036038101906101e0919061263d565b61054c565b6040516101f29190612b12565b60405180910390f35b6102156004803603810190610210919061266a565b6105c6565b604051610223929190612c8b565b60405180910390f35b61023461069b565b6040516102419190612c46565b60405180910390f35b610264600480360381019061025f91906125d0565b6106a5565b6040516102719190612b2d565b60405180910390f35b610294600480360381019061028f919061266a565b6106c5565b005b6102b060048036038101906102ab91906125fd565b610776565b005b6102cc60048036038101906102c791906125fd565b61079f565b005b6102d6610822565b6040516102e39190612c46565b60405180910390f35b6103066004803603810190610301919061266a565b610828565b6040516103139190612c2a565b60405180910390f35b61032461091d565b6040516103319190612c46565b60405180910390f35b610342610923565b005b61034c610a5d565b6040516103599190612b48565b60405180910390f35b61036a610aeb565b6040516103779190612af7565b60405180910390f35b61039a600480360381019061039591906125fd565b610b14565b6040516103a79190612b12565b60405180910390f35b6103ca60048036038101906103c59190612697565b610b7f565b005b6103d4610ef5565b6040516103e19190612b48565b60405180910390f35b6103f2610f87565b6040516103ff9190612b2d565b60405180910390f35b610410610f8e565b005b61041a611815565b604051610428929190612c8b565b60405180910390f35b6104396118ce565b6040516104469190612c46565b60405180910390f35b6104576118d8565b6040516104649190612b2d565b60405180910390f35b610487600480360381019061048291906125fd565b6118de565b005b610491611907565b60405161049e9190612c46565b60405180910390f35b6104c160048036038101906104bc919061266a565b61190d565b6040516104d396959493929190612cb4565b60405180910390f35b6104f660048036038101906104f191906125a3565b611949565b005b610512600480360381019061050d919061266a565b611af2565b60405161051f9190612c46565b60405180910390f35b7f3ee192ac25847473237ced4bba57f848e1fd794930ff85b4282329058096720581565b60007f7965db0b000000000000000000000000000000000000000000000000000000007bffffffffffffffffffffffffffffffffffffffffffffffffffffffff1916827bffffffffffffffffffffffffffffffffffffffffffffffffffffffff191614806105bf57506105be82611b24565b5b9050919050565b6000806105dd836005611b8e90919063ffffffff16565b61061c576040517f08c379a000000000000000000000000000000000000000000000000000000000815260040161061390612bca565b60405180910390fd5b6007600084815260200190815260200160002060006008600086815260200190815260200160002054815260200190815260200160002060060154600760008581526020019081526020016000206000600860008781526020019081526020016000205481526020019081526020016000206007015491509150915091565b6000600954905090565b600060016000838152602001908152602001600020600101549050919050565b6106cd611ba8565b73ffffffffffffffffffffffffffffffffffffffff166106eb610aeb565b73ffffffffffffffffffffffffffffffffffffffff1614610741576040517f08c379a000000000000000000000000000000000000000000000000000000000815260040161073890612bea565b60405180910390fd5b610755816005611b8e90919063ffffffff16565b61075e57600080fd5b610772816005611bb090919063ffffffff16565b5050565b61077f826106a5565b6107908161078b611ba8565b611bca565b61079a8383611c67565b505050565b6107a7611ba8565b73ffffffffffffffffffffffffffffffffffffffff168173ffffffffffffffffffffffffffffffffffffffff1614610814576040517f08c379a000000000000000000000000000000000000000000000000000000000815260040161080b90612c0a565b60405180910390fd5b61081e8282611d47565b5050565b600e5481565b61083061242b565b610844826005611b8e90919063ffffffff16565b610883576040517f08c379a000000000000000000000000000000000000000000000000000000000815260040161087a90612bca565b60405180910390fd5b6007600083815260200190815260200160002060006008600085815260200190815260200160002054815260200190815260200160002060405180610100016040529081600082015481526020016001820154815260200160028201548152602001600382015481526020016004820154815260200160058201548152602001600682015481526020016007820154815250509050919050565b600b5481565b61092b611ba8565b73ffffffffffffffffffffffffffffffffffffffff16610949610aeb565b73ffffffffffffffffffffffffffffffffffffffff161461099f576040517f08c379a000000000000000000000000000000000000000000000000000000000815260040161099690612bea565b60405180910390fd5b600073ffffffffffffffffffffffffffffffffffffffff1660008054906101000a900473ffffffffffffffffffffffffffffffffffffffff1673ffffffffffffffffffffffffffffffffffffffff167f8be0079c531659141344cd1fd0a4f28419497f9722a3daafe3b4186f6b6457e060405160405180910390a360008060006101000a81548173ffffffffffffffffffffffffffffffffffffffff021916908373ffffffffffffffffffffffffffffffffffffffff160217905550565b60048054610a6a90612f7b565b80601f0160208091040260200160405190810160405280929190818152602001828054610a9690612f7b565b8015610ae35780601f10610ab857610100808354040283529160200191610ae3565b820191906000526020600020905b815481529060010190602001808311610ac657829003601f168201915b505050505081565b60008060009054906101000a900473ffffffffffffffffffffffffffffffffffffffff16905090565b60006001600084815260200190815260200160002060000160008373ffffffffffffffffffffffffffffffffffffffff1673ffffffffffffffffffffffffffffffffffffffff16815260200190815260200160002060009054906101000a900460ff16905092915050565b610b87611ba8565b73ffffffffffffffffffffffffffffffffffffffff16610ba5610aeb565b73ffffffffffffffffffffffffffffffffffffffff1614610bfb576040517f08c379a0000000000000000000000000000000000000000000000000000000008152600401610bf290612bea565b60405180910390fd5b610c0f826005611b8e90919063ffffffff16565b610c1857600080fd5b600f548160a0015182608001518360600151610c349190612d61565b610c3e9190612d61565b14610c4857600080fd5b80600d6000848152602001908152602001600020600082015181600001556020820151816001015560408201518160020155606082015181600301556080820151816004015560a08201518160050155905050610cf5600d600084815260200190815260200160002060010154600d600085815260200190815260200160002060010154610cd69190612de8565b600d600085815260200190815260200160002060030154600f54611e29565b600d600084815260200190815260200160002060020181905550600080600260009054906101000a900473ffffffffffffffffffffffffffffffffffffffff1673ffffffffffffffffffffffffffffffffffffffff1663feaf968c6040518163ffffffff1660e01b815260040160a06040518083038186803b158015610d7a57600080fd5b505afa158015610d8e573d6000803e3d6000fd5b505050506040513d601f19601f82011682018060405250810190610db291906126d7565b5093505092505060008290508160086000878152602001908152602001600020819055508160076000878152602001908152602001600020600084815260200190815260200160002060000181905550600d6000868152602001908152602001600020600001546007600087815260200190815260200160002060008481526020019081526020016000206007018190556007600087815260200190815260200160002060008481526020019081526020016000206006018190555080600760008781526020019081526020016000206000848152602001908152602001600020600401819055600760008781526020019081526020016000206000848152602001908152602001600020600301819055600760008781526020019081526020016000206000848152602001908152602001600020600201819055505050505050565b606060048054610f0490612f7b565b80601f0160208091040260200160405190810160405280929190818152602001828054610f3090612f7b565b8015610f7d5780601f10610f5257610100808354040283529160200191610f7d565b820191906000526020600020905b815481529060010190602001808311610f6057829003601f168201915b5050505050905090565b6000801b81565b7f3ee192ac25847473237ced4bba57f848e1fd794930ff85b42823290580967205610fc081610fbb611ba8565b611bca565b600080600260009054906101000a900473ffffffffffffffffffffffffffffffffffffffff1673ffffffffffffffffffffffffffffffffffffffff1663feaf968c6040518163ffffffff1660e01b815260040160a06040518083038186803b15801561102b57600080fd5b505afa15801561103f573d6000803e3d6000fd5b505050506040513d601f19601f8201168201806040525081019061106391906126d7565b50935050925050600082905060005b61107c6005611f25565b8110156117ef576000611099826005611f3a90919063ffffffff16565b9050600760008281526020019081526020016000206000600860008481526020019081526020016000205481526020019081526020016000206003015483111561111d578260076000838152602001908152602001600020600060086000858152602001908152602001600020548152602001908152602001600020600301819055505b600760008281526020019081526020016000206000600860008481526020019081526020016000205481526020019081526020016000206004015483101561119f578260076000838152602001908152602001600020600060086000858152602001908152602001600020548152602001908152602001600020600401819055505b8060086000838152602001908152602001600020546111be9190612d61565b84106117db578360076000838152602001908152602001600020600060086000858152602001908152602001600020548152602001908152602001600020600101819055508260076000838152602001908152602001600020600060086000858152602001908152602001600020548152602001908152602001600020600501819055506000836007600084815260200190815260200160002060006008600086815260200190815260200160002054815260200190815260200160002060020154106112de576112cc84600a546007600086815260200190815260200160002060006008600088815260200190815260200160002054815260200190815260200160002060020154611e29565b600a546112d99190612e42565b611333565b600a5461132885600a546007600087815260200190815260200160002060006008600089815260200190815260200160002054815260200190815260200160002060020154611e29565b6113329190612e42565b5b9050600061145b600a546113be6007600087815260200190815260200160002060006008600089815260200190815260200160002054815260200190815260200160002060030154600a54600760008981526020019081526020016000206000600860008b815260200190815260200160002054815260200190815260200160002060020154611e29565b6113c89190612e42565b6114496007600087815260200190815260200160002060006008600089815260200190815260200160002054815260200190815260200160002060040154600a54600760008981526020019081526020016000206000600860008b815260200190815260200160002054815260200190815260200160002060020154611e29565b600a546114569190612e42565b611f54565b9050856007600085815260200190815260200160002060008881526020019081526020016000206000018190555061158c61152e6007600086815260200190815260200160002060006008600088815260200190815260200160002054815260200190815260200160002060060154600760008781526020019081526020016000206000600860008981526020019081526020016000205481526020019081526020016000206006015461150f9190612de8565b600d600087815260200190815260200160002060040154600f54611e29565b61155c848561153d9190612de8565b600d600088815260200190815260200160002060050154600f54611e29565b600d60008781526020019081526020016000206002015461157d9190612d61565b6115879190612d61565b611f6e565b600760008581526020019081526020016000206000888152602001908152602001600020600601819055506116ba61165c6007600086815260200190815260200160002060006008600088815260200190815260200160002054815260200190815260200160002060070154600760008781526020019081526020016000206000600860008981526020019081526020016000205481526020019081526020016000206007015461163d9190612de8565b600d600087815260200190815260200160002060040154600f54611e29565b61168a838461166b9190612de8565b600d600088815260200190815260200160002060050154600f54611e29565b600d6000878152602001908152602001600020600201546116ab9190612d61565b6116b59190612d61565b611f6e565b600760008581526020019081526020016000206000888152602001908152602001600020600701819055508460076000858152602001908152602001600020600088815260200190815260200160002060040181905560076000858152602001908152602001600020600088815260200190815260200160002060030181905560076000858152602001908152602001600020600088815260200190815260200160002060020181905550856008600085815260200190815260200160002081905550827d895f12d3f4f2376feff128f39b92005e9748404845000fd7028aa7edf428876007600087815260200190815260200160002060008a81526020019081526020016000206040516117d0929190612c61565b60405180910390a250505b5080806117e790612ff8565b915050611072565b5081600c81905550600b600081548092919061180a90612ff8565b919050555050505050565b600080600080600260009054906101000a900473ffffffffffffffffffffffffffffffffffffffff1673ffffffffffffffffffffffffffffffffffffffff1663feaf968c6040518163ffffffff1660e01b815260040160a06040518083038186803b15801561188357600080fd5b505afa158015611897573d6000803e3d6000fd5b505050506040513d601f19601f820116820180604052508101906118bb91906126d7565b5093505092505081819350935050509091565b6000600a54905090565b60035481565b6118e7826106a5565b6118f8816118f3611ba8565b611bca565b6119028383611d47565b505050565b600c5481565b600d6020528060005260406000206000915090508060000154908060010154908060020154908060030154908060040154908060050154905086565b611951611ba8565b73ffffffffffffffffffffffffffffffffffffffff1661196f610aeb565b73ffffffffffffffffffffffffffffffffffffffff16146119c5576040517f08c379a00000000000000000000000000000000000000000000000000000000081526004016119bc90612bea565b60405180910390fd5b600073ffffffffffffffffffffffffffffffffffffffff168173ffffffffffffffffffffffffffffffffffffffff161415611a35576040517f08c379a0000000000000000000000000000000000000000000000000000000008152600401611a2c90612baa565b60405180910390fd5b8073ffffffffffffffffffffffffffffffffffffffff1660008054906101000a900473ffffffffffffffffffffffffffffffffffffffff1673ffffffffffffffffffffffffffffffffffffffff167f8be0079c531659141344cd1fd0a4f28419497f9722a3daafe3b4186f6b6457e060405160405180910390a3806000806101000a81548173ffffffffffffffffffffffffffffffffffffffff021916908373ffffffffffffffffffffffffffffffffffffffff16021790555050565b60086020528060005260406000206000915090505481565b6000611b1c836000018360001b611fcb565b905092915050565b60007f01ffc9a7000000000000000000000000000000000000000000000000000000007bffffffffffffffffffffffffffffffffffffffffffffffffffffffff1916827bffffffffffffffffffffffffffffffffffffffffffffffffffffffff1916149050919050565b6000611ba0836000018360001b61203b565b905092915050565b600033905090565b6000611bc2836000018360001b61205e565b905092915050565b611bd48282610b14565b611c6357611bf98173ffffffffffffffffffffffffffffffffffffffff16601461216a565b611c078360001c602061216a565b604051602001611c18929190612abd565b6040516020818303038152906040526040517f08c379a0000000000000000000000000000000000000000000000000000000008152600401611c5a9190612b48565b60405180910390fd5b5050565b611c718282610b14565b611d4357600180600084815260200190815260200160002060000160008373ffffffffffffffffffffffffffffffffffffffff1673ffffffffffffffffffffffffffffffffffffffff16815260200190815260200160002060006101000a81548160ff021916908315150217905550611ce8611ba8565b73ffffffffffffffffffffffffffffffffffffffff168173ffffffffffffffffffffffffffffffffffffffff16837f2f8788117e7eff1d82e926ec794901d17c78024a50270940304540a733656f0d60405160405180910390a45b5050565b611d518282610b14565b15611e255760006001600084815260200190815260200160002060000160008373ffffffffffffffffffffffffffffffffffffffff1673ffffffffffffffffffffffffffffffffffffffff16815260200190815260200160002060006101000a81548160ff021916908315150217905550611dca611ba8565b73ffffffffffffffffffffffffffffffffffffffff168173ffffffffffffffffffffffffffffffffffffffff16837ff6391f5c32d9c69d2a47ea670b442974b53935d1edc7fd64eb21e047a839171b60405160405180910390a45b5050565b600080600080198587098587029250828110838203039150506000811415611e645760008411611e5857600080fd5b83820492505050611f1e565b808411611e7057600080fd5b60008486880990508281118203915080830392506000856001877fffffffffffffffffffffffffffffffffffffffffffffffffffffffffffffffff0301169050808604955080840493506001818260000304019050808302841793506000600287600302189050808702600203810290508087026002038102905080870260020381029050808702600203810290508087026002038102905080870260020381029050808502955050505050505b9392505050565b6000611f33826000016123a6565b9050919050565b6000611f4983600001836123b7565b60001c905092915050565b600081831015611f645781611f66565b825b905092915050565b6000806002600184611f809190612d61565b611f8a9190612db7565b90508291505b81811015611fc5578091506002818285611faa9190612db7565b611fb49190612d61565b611fbe9190612db7565b9050611f90565b50919050565b6000611fd7838361203b565b612030578260000182908060018154018082558091505060019003906000526020600020016000909190919091505582600001805490508360010160008481526020019081526020016000208190555060019050612035565b600090505b92915050565b600080836001016000848152602001908152602001600020541415905092915050565b6000808360010160008481526020019081526020016000205490506000811461215e5760006001826120909190612e42565b90506000600186600001805490506120a89190612e42565b905060008660000182815481106120c2576120c16130fd565b5b90600052602060002001549050808760000184815481106120e6576120e56130fd565b5b9060005260206000200181905550838760010160008381526020019081526020016000208190555086600001805480612122576121216130ce565b5b60019003818190600052602060002001600090559055866001016000878152602001908152602001600020600090556001945050505050612164565b60009150505b92915050565b60606000600283600261217d9190612de8565b6121879190612d61565b67ffffffffffffffff8111156121a05761219f61312c565b5b6040519080825280601f01601f1916602001820160405280156121d25781602001600182028036833780820191505090505b5090507f30000000000000000000000000000000000000000000000000000000000000008160008151811061220a576122096130fd565b5b60200101907effffffffffffffffffffffffffffffffffffffffffffffffffffffffffffff1916908160001a9053507f78000000000000000000000000000000000000000000000000000000000000008160018151811061226e5761226d6130fd565b5b60200101907effffffffffffffffffffffffffffffffffffffffffffffffffffffffffffff1916908160001a905350600060018460026122ae9190612de8565b6122b89190612d61565b90505b6001811115612358577f3031323334353637383961626364656600000000000000000000000000000000600f8616601081106122fa576122f96130fd565b5b1a60f81b828281518110612311576123106130fd565b5b60200101907effffffffffffffffffffffffffffffffffffffffffffffffffffffffffffff1916908160001a905350600485901c94508061235190612f51565b90506122bb565b506000841461239c576040517f08c379a000000000000000000000000000000000000000000000000000000000815260040161239390612b8a565b60405180910390fd5b8091505092915050565b600081600001805490509050919050565b600081836000018054905011612402576040517f08c379a00000000000000000000000000000000000000000000000000000000081526004016123f990612b6a565b60405180910390fd5b826000018281548110612418576124176130fd565b5b9060005260206000200154905092915050565b60405180610100016040528060008152602001600081526020016000815260200160008152602001600081526020016000815260200160008152602001600081525090565b60008135905061247f81613363565b92915050565b6000813590506124948161337a565b92915050565b6000813590506124a981613391565b92915050565b6000815190506124be816133a8565b92915050565b600060c082840312156124da576124d961315b565b5b6124e460c0612d15565b905060006124f484828501612564565b600083015250602061250884828501612564565b602083015250604061251c84828501612564565b604083015250606061253084828501612564565b606083015250608061254484828501612564565b60808301525060a061255884828501612564565b60a08301525092915050565b600081359050612573816133bf565b92915050565b600081519050612588816133bf565b92915050565b60008151905061259d816133d6565b92915050565b6000602082840312156125b9576125b8613160565b5b60006125c784828501612470565b91505092915050565b6000602082840312156125e6576125e5613160565b5b60006125f484828501612485565b91505092915050565b6000806040838503121561261457612613613160565b5b600061262285828601612485565b925050602061263385828601612470565b9150509250929050565b60006020828403121561265357612652613160565b5b60006126618482850161249a565b91505092915050565b6000602082840312156126805761267f613160565b5b600061268e84828501612564565b91505092915050565b60008060e083850312156126ae576126ad613160565b5b60006126bc85828601612564565b92505060206126cd858286016124c4565b9150509250929050565b600080600080600060a086880312156126f3576126f2613160565b5b60006127018882890161258e565b9550506020612712888289016124af565b945050604061272388828901612579565b935050606061273488828901612579565b92505060806127458882890161258e565b9150509295509295909350565b61275b81612e80565b82525050565b61276a81612e92565b82525050565b61277981612e9e565b82525050565b600061278a82612d3a565b6127948185612d45565b93506127a4818560208601612f1e565b6127ad81613165565b840191505092915050565b60006127c382612d3a565b6127cd8185612d56565b93506127dd818560208601612f1e565b80840191505092915050565b60006127f6602283612d45565b915061280182613183565b604082019050919050565b6000612819602083612d45565b9150612824826131d2565b602082019050919050565b600061283c602683612d45565b9150612847826131fb565b604082019050919050565b600061285f602283612d45565b915061286a8261324a565b604082019050919050565b6000612882602083612d45565b915061288d82613299565b602082019050919050565b60006128a5601783612d56565b91506128b0826132c2565b601782019050919050565b60006128c8601183612d56565b91506128d3826132eb565b601182019050919050565b60006128eb602f83612d45565b91506128f682613314565b604082019050919050565b610100820160008201516129186000850182612a9f565b50602082015161292b6020850182612a9f565b50604082015161293e6040850182612a9f565b5060608201516129516060850182612a9f565b5060808201516129646080850182612a9f565b5060a082015161297760a0850182612a9f565b5060c082015161298a60c0850182612a9f565b5060e082015161299d60e0850182612a9f565b50505050565b610100820160008083015490506129b981612fad565b6129c66000860182612a9f565b50600183015490506129d781612fad565b6129e46020860182612a9f565b50600283015490506129f581612fad565b612a026040860182612a9f565b5060038301549050612a1381612fad565b612a206060860182612a9f565b5060048301549050612a3181612fad565b612a3e6080860182612a9f565b5060058301549050612a4f81612fad565b612a5c60a0860182612a9f565b5060068301549050612a6d81612fad565b612a7a60c0860182612a9f565b5060078301549050612a8b81612fad565b612a9860e0860182612a9f565b5050505050565b612aa881612efe565b82525050565b612ab781612efe565b82525050565b6000612ac882612898565b9150612ad482856127b8565b9150612adf826128bb565b9150612aeb82846127b8565b91508190509392505050565b6000602082019050612b0c6000830184612752565b92915050565b6000602082019050612b276000830184612761565b92915050565b6000602082019050612b426000830184612770565b92915050565b60006020820190508181036000830152612b62818461277f565b905092915050565b60006020820190508181036000830152612b83816127e9565b9050919050565b60006020820190508181036000830152612ba38161280c565b9050919050565b60006020820190508181036000830152612bc38161282f565b9050919050565b60006020820190508181036000830152612be381612852565b9050919050565b60006020820190508181036000830152612c0381612875565b9050919050565b60006020820190508181036000830152612c23816128de565b9050919050565b600061010082019050612c406000830184612901565b92915050565b6000602082019050612c5b6000830184612aae565b92915050565b600061012082019050612c776000830185612aae565b612c8460208301846129a3565b9392505050565b6000604082019050612ca06000830185612aae565b612cad6020830184612aae565b9392505050565b600060c082019050612cc96000830189612aae565b612cd66020830188612aae565b612ce36040830187612aae565b612cf06060830186612aae565b612cfd6080830185612aae565b612d0a60a0830184612aae565b979650505050505050565b6000612d1f612d30565b9050612d2b8282612fc7565b919050565b6000604051905090565b600081519050919050565b600082825260208201905092915050565b600081905092915050565b6000612d6c82612efe565b9150612d7783612efe565b9250827fffffffffffffffffffffffffffffffffffffffffffffffffffffffffffffffff03821115612dac57612dab613041565b5b828201905092915050565b6000612dc282612efe565b9150612dcd83612efe565b925082612ddd57612ddc613070565b5b828204905092915050565b6000612df382612efe565b9150612dfe83612efe565b9250817fffffffffffffffffffffffffffffffffffffffffffffffffffffffffffffffff0483118215151615612e3757612e36613041565b5b828202905092915050565b6000612e4d82612efe565b9150612e5883612efe565b925082821015612e6b57612e6a613041565b5b828203905092915050565b6000819050919050565b6000612e8b82612ede565b9050919050565b60008115159050919050565b6000819050919050565b60007fffffffff0000000000000000000000000000000000000000000000000000000082169050919050565b6000819050919050565b600073ffffffffffffffffffffffffffffffffffffffff82169050919050565b6000819050919050565b600069ffffffffffffffffffff82169050919050565b60005b83811015612f3c578082015181840152602081019050612f21565b83811115612f4b576000848401525b50505050565b6000612f5c82612efe565b91506000821415612f7057612f6f613041565b5b600182039050919050565b60006002820490506001821680612f9357607f821691505b60208210811415612fa757612fa661309f565b5b50919050565b6000612fc0612fbb83613176565b612e76565b9050919050565b612fd082613165565b810181811067ffffffffffffffff82111715612fef57612fee61312c565b5b80604052505050565b600061300382612efe565b91507fffffffffffffffffffffffffffffffffffffffffffffffffffffffffffffffff82141561303657613035613041565b5b600182019050919050565b7f4e487b7100000000000000000000000000000000000000000000000000000000600052601160045260246000fd5b7f4e487b7100000000000000000000000000000000000000000000000000000000600052601260045260246000fd5b7f4e487b7100000000000000000000000000000000000000000000000000000000600052602260045260246000fd5b7f4e487b7100000000000000000000000000000000000000000000000000000000600052603160045260246000fd5b7f4e487b7100000000000000000000000000000000000000000000000000000000600052603260045260246000fd5b7f4e487b7100000000000000000000000000000000000000000000000000000000600052604160045260246000fd5b600080fd5b600080fd5b6000601f19601f8301169050919050565b60008160001c9050919050565b7f456e756d657261626c655365743a20696e646578206f7574206f6620626f756e60008201527f6473000000000000000000000000000000000000000000000000000000000000602082015250565b7f537472696e67733a20686578206c656e67746820696e73756666696369656e74600082015250565b7f4f776e61626c653a206e6577206f776e657220697320746865207a65726f206160008201527f6464726573730000000000000000000000000000000000000000000000000000602082015250565b7f496e707574206f7074696f6e2074656e6f72206973206e6f7420616c6c6f776560008201527f642e000000000000000000000000000000000000000000000000000000000000602082015250565b7f4f776e61626c653a2063616c6c6572206973206e6f7420746865206f776e6572600082015250565b7f416363657373436f6e74726f6c3a206163636f756e7420000000000000000000600082015250565b7f206973206d697373696e6720726f6c6520000000000000000000000000000000600082015250565b7f416363657373436f6e74726f6c3a2063616e206f6e6c792072656e6f756e636560008201527f20726f6c657320666f722073656c660000000000000000000000000000000000602082015250565b61336c81612e80565b811461337757600080fd5b50565b61338381612e9e565b811461338e57600080fd5b50565b61339a81612ea8565b81146133a557600080fd5b50565b6133b181612ed4565b81146133bc57600080fd5b50565b6133c881612efe565b81146133d357600080fd5b50565b6133df81612f08565b81146133ea57600080fd5b5056fea26469706673582212206ac76cc491d6890cf48c4c746795d0fafd8a02f010c74bea0cbb065b273f574064736f6c63430008060033",
  "immutableReferences": {},
  "source": "pragma solidity ^0.8.4;\n\n/**\n * SPDX-License-Identifier: GPL-3.0-or-later\n * Moret\n * Copyright (C) 2021 Moret\n */\nimport \"@openzeppelin/contracts/access/Ownable.sol\";\nimport \"@openzeppelin/contracts/utils/math/Math.sol\";\nimport \"@openzeppelin/contracts/access/AccessControl.sol\";\nimport \"@openzeppelin/contracts/utils/structs/EnumerableSet.sol\";\n\nimport \"./FullMath.sol\";\nimport \"./MoretInterfaces.sol\";\nimport \"@chainlink/contracts/src/v0.8/interfaces/AggregatorV3Interface.sol\";\n// import \"https://github.com/smartcontractkit/chainlink/blob/master/evm-contracts/src/v0.8/interfaces/AggregatorV3Interface.sol\";\n\n contract VolatilityChain is Ownable, AccessControl, IVolatilityChain\n {\n       using EnumerableSet for EnumerableSet.UintSet;\n\n     bytes32 public constant UPDATE_ROLE = keccak256(\"UPDATE_ROLE\");\n\n   AggregatorV3Interface internal priceInterface;\n   bytes32 public tokenHash;\n   string public description;\n\n  EnumerableSet.UintSet tenors;\n\n   mapping(uint256=>mapping(uint256=>PriceStamp)) private priceBook;\n   mapping(uint256=>uint256) public latestBookTime;\n   uint256 internal priceDecimals;\n   uint256 internal priceMultiplier;\n\n    uint256 public volatilityUpdateCounter;\n    uint256 public volatilityUpdateTime;\n    mapping(uint256=> VolParam) public volatilityParameters;\n   uint256 public volParamDecimals;\n   uint256 internal parameterMultiplier;\n\n   constructor(\n     address _priceSourceId,\n     uint256 _parameterDecimals,\n      string memory _tokenName\n     )  {\n\n         _setupRole(DEFAULT_ADMIN_ROLE, msg.sender);\n         _setupRole(UPDATE_ROLE, msg.sender);\n\n         tokenHash = keccak256(abi.encodePacked(_tokenName));\n\n\n      tenors.add(1 days);\n\n      priceInterface = AggregatorV3Interface(_priceSourceId);\n      description = priceInterface.description();\n      priceDecimals = priceInterface.decimals();\n      priceMultiplier = 10 ** priceDecimals;\n\n      volParamDecimals = _parameterDecimals;\n      parameterMultiplier = 10 ** _parameterDecimals;\n\n   }\n\n   function getVol(uint256 _tenor) external override view returns(uint256, uint256)\n   {\n       require(tenors.contains(_tenor), \"Input option tenor is not allowed.\");\n       return (priceBook[_tenor][latestBookTime[_tenor]].volatility, priceBook[_tenor][latestBookTime[_tenor]].accentus);\n    }\n\n  function queryPrice() external override view returns(uint256, uint256){\n      (,int _price,,uint _timeStamp,) = priceInterface.latestRoundData();\n      return (uint256(_price), uint256(_timeStamp));\n  }\n\n   function update() external onlyRole(UPDATE_ROLE){\n     (,int _price,,uint _timeStamp,) = priceInterface.latestRoundData();\n     uint256 _updatePrice = uint256(_price);\n\n     for(uint i = 0;i< tenors.length();i++)\n     {\n       uint256 _tenor = tenors.at(i);\n\n       if(_updatePrice > priceBook[_tenor][latestBookTime[_tenor]].highest)\n       {\n         priceBook[_tenor][latestBookTime[_tenor]].highest=_updatePrice;\n       }\n       if(_updatePrice<priceBook[_tenor][latestBookTime[_tenor]].lowest)\n       {\n         priceBook[_tenor][latestBookTime[_tenor]].lowest=_updatePrice;\n       }\n\n       if(_timeStamp>= (latestBookTime[_tenor] + _tenor))\n       {\n         priceBook[_tenor][latestBookTime[_tenor]].endTime = _timeStamp;\n         priceBook[_tenor][latestBookTime[_tenor]].close = _updatePrice;\n\n         uint256 _periodMove = (priceBook[_tenor][latestBookTime[_tenor]].open < _updatePrice)? (MulDiv(_updatePrice, priceMultiplier, priceBook[_tenor][latestBookTime[_tenor]].open) - priceMultiplier) : (priceMultiplier - MulDiv(_updatePrice, priceMultiplier, priceBook[_tenor][latestBookTime[_tenor]].open ));\n         uint256 _largestMove = Math.max(MulDiv(priceBook[_tenor][latestBookTime[_tenor]].highest, priceMultiplier, priceBook[_tenor][latestBookTime[_tenor]].open) - priceMultiplier , priceMultiplier - MulDiv(priceBook[_tenor][latestBookTime[_tenor]].lowest, priceMultiplier, priceBook[_tenor][latestBookTime[_tenor]].open ));\n\n         priceBook[_tenor][_timeStamp].startTime = _timeStamp;\n         priceBook[_tenor][_timeStamp].volatility = Sqrt(volatilityParameters[_tenor].ltVolWeighted + MulDiv(_periodMove * _periodMove, volatilityParameters[_tenor].q, parameterMultiplier) + MulDiv(priceBook[_tenor][latestBookTime[_tenor]].volatility * priceBook[_tenor][latestBookTime[_tenor]].volatility, volatilityParameters[_tenor].p, parameterMultiplier));\n         priceBook[_tenor][_timeStamp].accentus = Sqrt(volatilityParameters[_tenor].ltVolWeighted + MulDiv(_largestMove * _largestMove, volatilityParameters[_tenor].q, parameterMultiplier) + MulDiv(priceBook[_tenor][latestBookTime[_tenor]].accentus * priceBook[_tenor][latestBookTime[_tenor]].accentus, volatilityParameters[_tenor].p, parameterMultiplier));\n         priceBook[_tenor][_timeStamp].open = priceBook[_tenor][_timeStamp].highest = priceBook[_tenor][_timeStamp].lowest = _updatePrice;\n\n         latestBookTime[_tenor] = _timeStamp;\n         emit volatilityChainBlockAdded(_tenor, _timeStamp, priceBook[_tenor][_timeStamp]);\n       }\n\n     }\n\n     volatilityUpdateTime = _timeStamp;\n     volatilityUpdateCounter ++;\n\n   }\n\n   function resetVolParams(uint256 _tenor, VolParam memory _volParams) external onlyOwner{\n       require(tenors.contains(_tenor));\n       require((_volParams.w + _volParams.p + _volParams.q)==parameterMultiplier);\n       volatilityParameters[_tenor] = _volParams;\n       volatilityParameters[_tenor].ltVolWeighted = MulDiv(volatilityParameters[_tenor].ltVol*volatilityParameters[_tenor].ltVol, volatilityParameters[_tenor].w, parameterMultiplier);\n\n       (,int _price,,uint _timeStamp,) = priceInterface.latestRoundData();\n       uint256 _updatePrice = uint256(_price);\n\n       latestBookTime[_tenor] = _timeStamp;\n       priceBook[_tenor][_timeStamp].startTime = _timeStamp;\n       priceBook[_tenor][_timeStamp].volatility = priceBook[_tenor][_timeStamp].accentus = volatilityParameters[_tenor].initialVol;\n       priceBook[_tenor][_timeStamp].open = priceBook[_tenor][_timeStamp].highest = priceBook[_tenor][_timeStamp].lowest = _updatePrice;\n\n   }\n\n   function removeTenor(uint256 _tenor) external onlyOwner{\n     require(tenors.contains(_tenor));\n     tenors.remove(_tenor);\n   }\n\n   function getPriceBook(uint256 _tenor) external view returns(PriceStamp memory){\n        require(tenors.contains(_tenor), \"Input option tenor is not allowed.\");\n       return priceBook[_tenor][latestBookTime[_tenor]];\n   }\n\n   function getPriceMultiplier() external override view returns (uint256){return priceMultiplier;}\n   function getPriceDecimals() external override view returns (uint256) {return priceDecimals;}\n   function getDecription() external override view returns (string memory) {return description;}\n\n }\n",
  "sourcePath": "/Users/mac/Documents/GitHub/moret/contracts/VolatilityChain.sol",
  "compiler": {
    "name": "solc",
    "version": "0.8.6+commit.11564f7e.Emscripten.clang"
  },
  "schemaVersion": "3.4.1",
  "updatedAt": "2021-07-10T00:40:47.430Z",
  "devdoc": {
    "kind": "dev",
    "methods": {
      "getRoleAdmin(bytes32)": {
        "details": "Returns the admin role that controls `role`. See {grantRole} and {revokeRole}. To change a role's admin, use {_setRoleAdmin}."
      },
      "grantRole(bytes32,address)": {
        "details": "Grants `role` to `account`. If `account` had not been already granted `role`, emits a {RoleGranted} event. Requirements: - the caller must have ``role``'s admin role."
      },
      "hasRole(bytes32,address)": {
        "details": "Returns `true` if `account` has been granted `role`."
      },
      "owner()": {
        "details": "Returns the address of the current owner."
      },
      "renounceOwnership()": {
        "details": "Leaves the contract without owner. It will not be possible to call `onlyOwner` functions anymore. Can only be called by the current owner. NOTE: Renouncing ownership will leave the contract without an owner, thereby removing any functionality that is only available to the owner."
      },
      "renounceRole(bytes32,address)": {
        "details": "Revokes `role` from the calling account. Roles are often managed via {grantRole} and {revokeRole}: this function's purpose is to provide a mechanism for accounts to lose their privileges if they are compromised (such as when a trusted device is misplaced). If the calling account had been granted `role`, emits a {RoleRevoked} event. Requirements: - the caller must be `account`."
      },
      "revokeRole(bytes32,address)": {
        "details": "Revokes `role` from `account`. If `account` had been granted `role`, emits a {RoleRevoked} event. Requirements: - the caller must have ``role``'s admin role."
      },
      "supportsInterface(bytes4)": {
        "details": "See {IERC165-supportsInterface}."
      },
      "transferOwnership(address)": {
        "details": "Transfers ownership of the contract to a new account (`newOwner`). Can only be called by the current owner."
      }
    },
    "version": 1
  },
  "userdoc": {
    "kind": "user",
    "methods": {},
    "version": 1
  }
}