{
  "contractName": "VolatilityToken",
  "abi": [
    {
      "inputs": [
        {
          "internalType": "string",
          "name": "_underlyingName",
          "type": "string"
        },
        {
          "internalType": "uint256",
          "name": "_tenor",
          "type": "uint256"
        },
        {
          "internalType": "string",
          "name": "_name",
          "type": "string"
        },
        {
          "internalType": "string",
          "name": "_symbol",
          "type": "string"
        }
      ],
      "stateMutability": "nonpayable",
      "type": "constructor"
    },
    {
      "anonymous": false,
      "inputs": [
        {
          "indexed": true,
          "internalType": "address",
          "name": "owner",
          "type": "address"
        },
        {
          "indexed": true,
          "internalType": "address",
          "name": "spender",
          "type": "address"
        },
        {
          "indexed": false,
          "internalType": "uint256",
          "name": "value",
          "type": "uint256"
        }
      ],
      "name": "Approval",
      "type": "event"
    },
    {
      "anonymous": false,
      "inputs": [
        {
          "indexed": true,
          "internalType": "address",
          "name": "previousOwner",
          "type": "address"
        },
        {
          "indexed": true,
          "internalType": "address",
          "name": "newOwner",
          "type": "address"
        }
      ],
      "name": "OwnershipTransferred",
      "type": "event"
    },
    {
      "anonymous": false,
      "inputs": [
        {
          "indexed": true,
          "internalType": "bytes32",
          "name": "role",
          "type": "bytes32"
        },
        {
          "indexed": true,
          "internalType": "bytes32",
          "name": "previousAdminRole",
          "type": "bytes32"
        },
        {
          "indexed": true,
          "internalType": "bytes32",
          "name": "newAdminRole",
          "type": "bytes32"
        }
      ],
      "name": "RoleAdminChanged",
      "type": "event"
    },
    {
      "anonymous": false,
      "inputs": [
        {
          "indexed": true,
          "internalType": "bytes32",
          "name": "role",
          "type": "bytes32"
        },
        {
          "indexed": true,
          "internalType": "address",
          "name": "account",
          "type": "address"
        },
        {
          "indexed": true,
          "internalType": "address",
          "name": "sender",
          "type": "address"
        }
      ],
      "name": "RoleGranted",
      "type": "event"
    },
    {
      "anonymous": false,
      "inputs": [
        {
          "indexed": true,
          "internalType": "bytes32",
          "name": "role",
          "type": "bytes32"
        },
        {
          "indexed": true,
          "internalType": "address",
          "name": "account",
          "type": "address"
        },
        {
          "indexed": true,
          "internalType": "address",
          "name": "sender",
          "type": "address"
        }
      ],
      "name": "RoleRevoked",
      "type": "event"
    },
    {
      "anonymous": false,
      "inputs": [
        {
          "indexed": true,
          "internalType": "address",
          "name": "from",
          "type": "address"
        },
        {
          "indexed": true,
          "internalType": "address",
          "name": "to",
          "type": "address"
        },
        {
          "indexed": false,
          "internalType": "uint256",
          "name": "value",
          "type": "uint256"
        }
      ],
      "name": "Transfer",
      "type": "event"
    },
    {
      "anonymous": false,
      "inputs": [
        {
          "indexed": false,
          "internalType": "uint256",
          "name": "_margin",
          "type": "uint256"
        }
      ],
      "name": "newMargin",
      "type": "event"
    },
    {
      "inputs": [],
      "name": "BURN_ROLE",
      "outputs": [
        {
          "internalType": "bytes32",
          "name": "",
          "type": "bytes32"
        }
      ],
      "stateMutability": "view",
      "type": "function"
    },
    {
      "inputs": [],
      "name": "DEFAULT_ADMIN_ROLE",
      "outputs": [
        {
          "internalType": "bytes32",
          "name": "",
          "type": "bytes32"
        }
      ],
      "stateMutability": "view",
      "type": "function"
    },
    {
      "inputs": [],
      "name": "MINT_ROLE",
      "outputs": [
        {
          "internalType": "bytes32",
          "name": "",
          "type": "bytes32"
        }
      ],
      "stateMutability": "view",
      "type": "function"
    },
    {
      "inputs": [
        {
          "internalType": "address",
          "name": "owner",
          "type": "address"
        },
        {
          "internalType": "address",
          "name": "spender",
          "type": "address"
        }
      ],
      "name": "allowance",
      "outputs": [
        {
          "internalType": "uint256",
          "name": "",
          "type": "uint256"
        }
      ],
      "stateMutability": "view",
      "type": "function"
    },
    {
      "inputs": [
        {
          "internalType": "address",
          "name": "spender",
          "type": "address"
        },
        {
          "internalType": "uint256",
          "name": "amount",
          "type": "uint256"
        }
      ],
      "name": "approve",
      "outputs": [
        {
          "internalType": "bool",
          "name": "",
          "type": "bool"
        }
      ],
      "stateMutability": "nonpayable",
      "type": "function"
    },
    {
      "inputs": [
        {
          "internalType": "address",
          "name": "account",
          "type": "address"
        }
      ],
      "name": "balanceOf",
      "outputs": [
        {
          "internalType": "uint256",
          "name": "",
          "type": "uint256"
        }
      ],
      "stateMutability": "view",
      "type": "function"
    },
    {
      "inputs": [],
      "name": "contractAddress",
      "outputs": [
        {
          "internalType": "address payable",
          "name": "",
          "type": "address"
        }
      ],
      "stateMutability": "view",
      "type": "function"
    },
    {
      "inputs": [],
      "name": "decimals",
      "outputs": [
        {
          "internalType": "uint8",
          "name": "",
          "type": "uint8"
        }
      ],
      "stateMutability": "view",
      "type": "function"
    },
    {
      "inputs": [
        {
          "internalType": "address",
          "name": "spender",
          "type": "address"
        },
        {
          "internalType": "uint256",
          "name": "subtractedValue",
          "type": "uint256"
        }
      ],
      "name": "decreaseAllowance",
      "outputs": [
        {
          "internalType": "bool",
          "name": "",
          "type": "bool"
        }
      ],
      "stateMutability": "nonpayable",
      "type": "function"
    },
    {
      "inputs": [
        {
          "internalType": "bytes32",
          "name": "role",
          "type": "bytes32"
        }
      ],
      "name": "getRoleAdmin",
      "outputs": [
        {
          "internalType": "bytes32",
          "name": "",
          "type": "bytes32"
        }
      ],
      "stateMutability": "view",
      "type": "function"
    },
    {
      "inputs": [
        {
          "internalType": "bytes32",
          "name": "role",
          "type": "bytes32"
        },
        {
          "internalType": "address",
          "name": "account",
          "type": "address"
        }
      ],
      "name": "grantRole",
      "outputs": [],
      "stateMutability": "nonpayable",
      "type": "function"
    },
    {
      "inputs": [
        {
          "internalType": "bytes32",
          "name": "role",
          "type": "bytes32"
        },
        {
          "internalType": "address",
          "name": "account",
          "type": "address"
        }
      ],
      "name": "hasRole",
      "outputs": [
        {
          "internalType": "bool",
          "name": "",
          "type": "bool"
        }
      ],
      "stateMutability": "view",
      "type": "function"
    },
    {
      "inputs": [
        {
          "internalType": "address",
          "name": "spender",
          "type": "address"
        },
        {
          "internalType": "uint256",
          "name": "addedValue",
          "type": "uint256"
        }
      ],
      "name": "increaseAllowance",
      "outputs": [
        {
          "internalType": "bool",
          "name": "",
          "type": "bool"
        }
      ],
      "stateMutability": "nonpayable",
      "type": "function"
    },
    {
      "inputs": [],
      "name": "margin",
      "outputs": [
        {
          "internalType": "uint256",
          "name": "",
          "type": "uint256"
        }
      ],
      "stateMutability": "view",
      "type": "function"
    },
    {
      "inputs": [],
      "name": "marginDenom",
      "outputs": [
        {
          "internalType": "uint256",
          "name": "",
          "type": "uint256"
        }
      ],
      "stateMutability": "view",
      "type": "function"
    },
    {
      "inputs": [],
      "name": "name",
      "outputs": [
        {
          "internalType": "string",
          "name": "",
          "type": "string"
        }
      ],
      "stateMutability": "view",
      "type": "function"
    },
    {
      "inputs": [],
      "name": "owner",
      "outputs": [
        {
          "internalType": "address",
          "name": "",
          "type": "address"
        }
      ],
      "stateMutability": "view",
      "type": "function"
    },
    {
      "inputs": [],
      "name": "renounceOwnership",
      "outputs": [],
      "stateMutability": "nonpayable",
      "type": "function"
    },
    {
      "inputs": [
        {
          "internalType": "bytes32",
          "name": "role",
          "type": "bytes32"
        },
        {
          "internalType": "address",
          "name": "account",
          "type": "address"
        }
      ],
      "name": "renounceRole",
      "outputs": [],
      "stateMutability": "nonpayable",
      "type": "function"
    },
    {
      "inputs": [
        {
          "internalType": "bytes32",
          "name": "role",
          "type": "bytes32"
        },
        {
          "internalType": "address",
          "name": "account",
          "type": "address"
        }
      ],
      "name": "revokeRole",
      "outputs": [],
      "stateMutability": "nonpayable",
      "type": "function"
    },
    {
      "inputs": [
        {
          "internalType": "bytes4",
          "name": "interfaceId",
          "type": "bytes4"
        }
      ],
      "name": "supportsInterface",
      "outputs": [
        {
          "internalType": "bool",
          "name": "",
          "type": "bool"
        }
      ],
      "stateMutability": "view",
      "type": "function"
    },
    {
      "inputs": [],
      "name": "symbol",
      "outputs": [
        {
          "internalType": "string",
          "name": "",
          "type": "string"
        }
      ],
      "stateMutability": "view",
      "type": "function"
    },
    {
      "inputs": [],
      "name": "tenor",
      "outputs": [
        {
          "internalType": "uint256",
          "name": "",
          "type": "uint256"
        }
      ],
      "stateMutability": "view",
      "type": "function"
    },
    {
      "inputs": [],
      "name": "totalSupply",
      "outputs": [
        {
          "internalType": "uint256",
          "name": "",
          "type": "uint256"
        }
      ],
      "stateMutability": "view",
      "type": "function"
    },
    {
      "inputs": [
        {
          "internalType": "address",
          "name": "recipient",
          "type": "address"
        },
        {
          "internalType": "uint256",
          "name": "amount",
          "type": "uint256"
        }
      ],
      "name": "transfer",
      "outputs": [
        {
          "internalType": "bool",
          "name": "",
          "type": "bool"
        }
      ],
      "stateMutability": "nonpayable",
      "type": "function"
    },
    {
      "inputs": [
        {
          "internalType": "address",
          "name": "sender",
          "type": "address"
        },
        {
          "internalType": "address",
          "name": "recipient",
          "type": "address"
        },
        {
          "internalType": "uint256",
          "name": "amount",
          "type": "uint256"
        }
      ],
      "name": "transferFrom",
      "outputs": [
        {
          "internalType": "bool",
          "name": "",
          "type": "bool"
        }
      ],
      "stateMutability": "nonpayable",
      "type": "function"
    },
    {
      "inputs": [
        {
          "internalType": "address",
          "name": "newOwner",
          "type": "address"
        }
      ],
      "name": "transferOwnership",
      "outputs": [],
      "stateMutability": "nonpayable",
      "type": "function"
    },
    {
      "inputs": [],
      "name": "underlyingHash",
      "outputs": [
        {
          "internalType": "bytes32",
          "name": "",
          "type": "bytes32"
        }
      ],
      "stateMutability": "view",
      "type": "function"
    },
    {
      "stateMutability": "payable",
      "type": "receive"
    },
    {
      "inputs": [
        {
          "internalType": "address",
          "name": "_account",
          "type": "address"
        },
        {
          "internalType": "uint256",
          "name": "_amount",
          "type": "uint256"
        }
      ],
      "name": "mint",
      "outputs": [],
      "stateMutability": "payable",
      "type": "function"
    },
    {
      "inputs": [
        {
          "internalType": "address",
          "name": "_account",
          "type": "address"
        },
        {
          "internalType": "uint256",
          "name": "_amount",
          "type": "uint256"
        }
      ],
      "name": "burn",
      "outputs": [],
      "stateMutability": "nonpayable",
      "type": "function"
    },
    {
      "inputs": [
        {
          "internalType": "uint256",
          "name": "_amount",
          "type": "uint256"
        },
        {
          "internalType": "uint256",
          "name": "_price",
          "type": "uint256"
        },
        {
          "internalType": "uint256",
          "name": "_volatility",
          "type": "uint256"
        }
      ],
      "name": "calculateMintValue",
      "outputs": [
        {
          "internalType": "uint256",
          "name": "",
          "type": "uint256"
        }
      ],
      "stateMutability": "view",
      "type": "function"
    },
    {
      "inputs": [
        {
          "internalType": "uint256",
          "name": "_ethValue",
          "type": "uint256"
        },
        {
          "internalType": "uint256",
          "name": "_price",
          "type": "uint256"
        },
        {
          "internalType": "uint256",
          "name": "_volatility",
          "type": "uint256"
        }
      ],
      "name": "calculateMintableAmount",
      "outputs": [
        {
          "internalType": "uint256",
          "name": "",
          "type": "uint256"
        }
      ],
      "stateMutability": "view",
      "type": "function"
    },
    {
      "inputs": [
        {
          "internalType": "address payable",
          "name": "_recipient",
          "type": "address"
        },
        {
          "internalType": "uint256",
          "name": "_tokenAmount",
          "type": "uint256"
        }
      ],
      "name": "recycle",
      "outputs": [],
      "stateMutability": "payable",
      "type": "function"
    },
    {
      "inputs": [
        {
          "internalType": "uint256",
          "name": "_margin",
          "type": "uint256"
        }
      ],
      "name": "resetMargin",
      "outputs": [],
      "stateMutability": "nonpayable",
      "type": "function"
    }
  ],
  "bytecode": "0x60806040523480156200001157600080fd5b5060405162003eec38038062003eec8339818101604052810190620000379190620004e1565b81818160039080519060200190620000519291906200039c565b5080600490805190602001906200006a9291906200039c565b50505060006200007f6200022160201b60201c565b905080600560006101000a81548173ffffffffffffffffffffffffffffffffffffffff021916908373ffffffffffffffffffffffffffffffffffffffff1602179055508073ffffffffffffffffffffffffffffffffffffffff16600073ffffffffffffffffffffffffffffffffffffffff167f8be0079c531659141344cd1fd0a4f28419497f9722a3daafe3b4186f6b6457e060405160405180910390a350620001336000801b336200022960201b60201c565b620001657f154c00819833dac601ee5ddded6fda79d9d8b506b911b3dbd54cdb95fe6c3686336200022960201b60201c565b620001977fe97b137254058bd94f28d2f3eb79e2d34074ffb488d042e3bc958e0a57d2fa22336200022960201b60201c565b8260078190555083604051602001620001b19190620005e7565b60405160208183030381529060405280519060200120600881905550612710600a8190555030600960006101000a81548173ffffffffffffffffffffffffffffffffffffffff021916908373ffffffffffffffffffffffffffffffffffffffff16021790555050505050620007be565b600033905090565b6200023b82826200023f60201b60201c565b5050565b6200025182826200033160201b60201c565b6200032d5760016006600084815260200190815260200160002060000160008373ffffffffffffffffffffffffffffffffffffffff1673ffffffffffffffffffffffffffffffffffffffff16815260200190815260200160002060006101000a81548160ff021916908315150217905550620002d26200022160201b60201c565b73ffffffffffffffffffffffffffffffffffffffff168173ffffffffffffffffffffffffffffffffffffffff16837f2f8788117e7eff1d82e926ec794901d17c78024a50270940304540a733656f0d60405160405180910390a45b5050565b60006006600084815260200190815260200160002060000160008373ffffffffffffffffffffffffffffffffffffffff1673ffffffffffffffffffffffffffffffffffffffff16815260200190815260200160002060009054906101000a900460ff16905092915050565b828054620003aa90620006b5565b90600052602060002090601f016020900481019282620003ce57600085556200041a565b82601f10620003e957805160ff19168380011785556200041a565b828001600101855582156200041a579182015b8281111562000419578251825591602001919060010190620003fc565b5b5090506200042991906200042d565b5090565b5b80821115620004485760008160009055506001016200042e565b5090565b6000620004636200045d8462000629565b62000600565b90508281526020810184848401111562000482576200048162000784565b5b6200048f8482856200067f565b509392505050565b600082601f830112620004af57620004ae6200077f565b5b8151620004c18482602086016200044c565b91505092915050565b600081519050620004db81620007a4565b92915050565b60008060008060808587031215620004fe57620004fd6200078e565b5b600085015167ffffffffffffffff8111156200051f576200051e62000789565b5b6200052d8782880162000497565b94505060206200054087828801620004ca565b935050604085015167ffffffffffffffff81111562000564576200056362000789565b5b620005728782880162000497565b925050606085015167ffffffffffffffff81111562000596576200059562000789565b5b620005a48782880162000497565b91505092959194509250565b6000620005bd826200065f565b620005c981856200066a565b9350620005db8185602086016200067f565b80840191505092915050565b6000620005f58284620005b0565b915081905092915050565b60006200060c6200061f565b90506200061a8282620006eb565b919050565b6000604051905090565b600067ffffffffffffffff82111562000647576200064662000750565b5b620006528262000793565b9050602081019050919050565b600081519050919050565b600081905092915050565b6000819050919050565b60005b838110156200069f57808201518184015260208101905062000682565b83811115620006af576000848401525b50505050565b60006002820490506001821680620006ce57607f821691505b60208210811415620006e557620006e462000721565b5b50919050565b620006f68262000793565b810181811067ffffffffffffffff8211171562000718576200071762000750565b5b80604052505050565b7f4e487b7100000000000000000000000000000000000000000000000000000000600052602260045260246000fd5b7f4e487b7100000000000000000000000000000000000000000000000000000000600052604160045260246000fd5b600080fd5b600080fd5b600080fd5b600080fd5b6000601f19601f8301169050919050565b620007af8162000675565b8114620007bb57600080fd5b50565b61371e80620007ce6000396000f3fe6080604052600436106101fd5760003560e01c806370a082311161010d578063a217fddf116100a0578063d547741f1161006f578063d547741f14610774578063dd62ed3e1461079d578063e9a9c850146107da578063f2fde38b14610805578063f6b4dfb41461082e57610204565b8063a217fddf146106a4578063a457c2d7146106cf578063a9059cbb1461070c578063b930908f1461074957610204565b806391d14854116100dc57806391d14854146105e857806395d89b41146106255780639dc29fac14610650578063a15612d11461067957610204565b806370a082311461053e578063715018a61461057b5780638da5cb5b146105925780638f76691a146105bd57610204565b80632fc7a44a1161019057806340c10f191161015f57806340c10f19146104755780635d36d182146104915780635e2420f0146104ad57806362c5c119146104d6578063666293fa1461051357610204565b80632fc7a44a146103a7578063313ce567146103e457806336568abe1461040f578063395093511461043857610204565b806323b872dd116101cc57806323b872dd146102d9578063248a9ca3146103165780632b226d2a146103535780632f2ff15d1461037e57610204565b806301ffc9a71461020957806306fdde0314610246578063095ea7b31461027157806318160ddd146102ae57610204565b3661020457005b600080fd5b34801561021557600080fd5b50610230600480360381019061022b91906126e5565b610859565b60405161023d9190612bba565b60405180910390f35b34801561025257600080fd5b5061025b6108d3565b6040516102689190612bf0565b60405180910390f35b34801561027d57600080fd5b5061029860048036038101906102939190612638565b610965565b6040516102a59190612bba565b60405180910390f35b3480156102ba57600080fd5b506102c3610983565b6040516102d09190612e52565b60405180910390f35b3480156102e557600080fd5b5061030060048036038101906102fb91906125e5565b61098d565b60405161030d9190612bba565b60405180910390f35b34801561032257600080fd5b5061033d60048036038101906103389190612678565b610a8e565b60405161034a9190612bd5565b60405180910390f35b34801561035f57600080fd5b50610368610aae565b6040516103759190612bd5565b60405180910390f35b34801561038a57600080fd5b506103a560048036038101906103a091906126a5565b610ab4565b005b3480156103b357600080fd5b506103ce60048036038101906103c9919061273f565b610add565b6040516103db9190612e52565b60405180910390f35b3480156103f057600080fd5b506103f9610b10565b6040516104069190612e6d565b60405180910390f35b34801561041b57600080fd5b50610436600480360381019061043191906126a5565b610b19565b005b34801561044457600080fd5b5061045f600480360381019061045a9190612638565b610b9c565b60405161046c9190612bba565b60405180910390f35b61048f600480360381019061048a9190612638565b610c48565b005b6104ab60048036038101906104a69190612565565b610d58565b005b3480156104b957600080fd5b506104d460048036038101906104cf9190612712565b610f7b565b005b3480156104e257600080fd5b506104fd60048036038101906104f8919061273f565b611038565b60405161050a9190612e52565b60405180910390f35b34801561051f57600080fd5b5061052861106b565b6040516105359190612e52565b60405180910390f35b34801561054a57600080fd5b5061056560048036038101906105609190612538565b611072565b6040516105729190612e52565b60405180910390f35b34801561058757600080fd5b506105906110ba565b005b34801561059e57600080fd5b506105a76111f7565b6040516105b49190612b84565b60405180910390f35b3480156105c957600080fd5b506105d2611221565b6040516105df9190612e52565b60405180910390f35b3480156105f457600080fd5b5061060f600480360381019061060a91906126a5565b611227565b60405161061c9190612bba565b60405180910390f35b34801561063157600080fd5b5061063a611292565b6040516106479190612bf0565b60405180910390f35b34801561065c57600080fd5b5061067760048036038101906106729190612638565b611324565b005b34801561068557600080fd5b5061068e611365565b60405161069b9190612e52565b60405180910390f35b3480156106b057600080fd5b506106b961136b565b6040516106c69190612bd5565b60405180910390f35b3480156106db57600080fd5b506106f660048036038101906106f19190612638565b611372565b6040516107039190612bba565b60405180910390f35b34801561071857600080fd5b50610733600480360381019061072e9190612638565b611466565b6040516107409190612bba565b60405180910390f35b34801561075557600080fd5b5061075e611484565b60405161076b9190612bd5565b60405180910390f35b34801561078057600080fd5b5061079b600480360381019061079691906126a5565b6114a8565b005b3480156107a957600080fd5b506107c460048036038101906107bf91906125a5565b6114d1565b6040516107d19190612e52565b60405180910390f35b3480156107e657600080fd5b506107ef611558565b6040516107fc9190612bd5565b60405180910390f35b34801561081157600080fd5b5061082c60048036038101906108279190612538565b61157c565b005b34801561083a57600080fd5b50610843611728565b6040516108509190612b9f565b60405180910390f35b60007f7965db0b000000000000000000000000000000000000000000000000000000007bffffffffffffffffffffffffffffffffffffffffffffffffffffffff1916827bffffffffffffffffffffffffffffffffffffffffffffffffffffffff191614806108cc57506108cb8261174e565b5b9050919050565b6060600380546108e290613098565b80601f016020809104026020016040519081016040528092919081815260200182805461090e90613098565b801561095b5780601f106109305761010080835404028352916020019161095b565b820191906000526020600020905b81548152906001019060200180831161093e57829003601f168201915b5050505050905090565b60006109796109726117b8565b84846117c0565b6001905092915050565b6000600254905090565b600061099a84848461198b565b6000600160008673ffffffffffffffffffffffffffffffffffffffff1673ffffffffffffffffffffffffffffffffffffffff16815260200190815260200160002060006109e56117b8565b73ffffffffffffffffffffffffffffffffffffffff1673ffffffffffffffffffffffffffffffffffffffff16815260200190815260200160002054905082811015610a65576040517f08c379a0000000000000000000000000000000000000000000000000000000008152600401610a5c90612d12565b60405180910390fd5b610a8285610a716117b8565b8584610a7d9190612f6a565b6117c0565b60019150509392505050565b600060066000838152602001908152602001600020600101549050919050565b60085481565b610abd82610a8e565b610ace81610ac96117b8565b611c0a565b610ad88383611ca7565b505050565b6000610b07610b0085620f4240600a54620f4240610afb9190612eba565b611d88565b8484611d88565b90509392505050565b60006012905090565b610b216117b8565b73ffffffffffffffffffffffffffffffffffffffff168173ffffffffffffffffffffffffffffffffffffffff1614610b8e576040517f08c379a0000000000000000000000000000000000000000000000000000000008152600401610b8590612e12565b60405180910390fd5b610b988282611e84565b5050565b6000610c3e610ba96117b8565b848460016000610bb76117b8565b73ffffffffffffffffffffffffffffffffffffffff1673ffffffffffffffffffffffffffffffffffffffff16815260200190815260200160002060008873ffffffffffffffffffffffffffffffffffffffff1673ffffffffffffffffffffffffffffffffffffffff16815260200190815260200160002054610c399190612eba565b6117c0565b6001905092915050565b7f154c00819833dac601ee5ddded6fda79d9d8b506b911b3dbd54cdb95fe6c3686610c7a81610c756117b8565b611c0a565b6000600960009054906101000a900473ffffffffffffffffffffffffffffffffffffffff1673ffffffffffffffffffffffffffffffffffffffff1634604051610cc290612b35565b60006040518083038185875af1925050503d8060008114610cff576040519150601f19603f3d011682016040523d82523d6000602084013e610d04565b606091505b5050905080610d48576040517f08c379a0000000000000000000000000000000000000000000000000000000008152600401610d3f90612dd2565b60405180910390fd5b610d528484611f66565b50505050565b7fe97b137254058bd94f28d2f3eb79e2d34074ffb488d042e3bc958e0a57d2fa22610d8a81610d856117b8565b611c0a565b6000610ddf600960009054906101000a900473ffffffffffffffffffffffffffffffffffffffff1673ffffffffffffffffffffffffffffffffffffffff1631670de0b6b3a7640000610dda610983565b611d88565b90506000610df68483670de0b6b3a7640000611d88565b90503073ffffffffffffffffffffffffffffffffffffffff1631811115610e52576040517f08c379a0000000000000000000000000000000000000000000000000000000008152600401610e4990612d92565b60405180910390fd5b60008573ffffffffffffffffffffffffffffffffffffffff1682604051610e7890612b35565b60006040518083038185875af1925050503d8060008114610eb5576040519150601f19603f3d011682016040523d82523d6000602084013e610eba565b606091505b5050905080610efe576040517f08c379a0000000000000000000000000000000000000000000000000000000008152600401610ef590612cf2565b60405180910390fd5b610f2a600960009054906101000a900473ffffffffffffffffffffffffffffffffffffffff1686610b9c565b610f69576040517f08c379a0000000000000000000000000000000000000000000000000000000008152600401610f6090612cb2565b60405180910390fd5b610f7386866120ba565b505050505050565b610f836117b8565b73ffffffffffffffffffffffffffffffffffffffff16610fa16111f7565b73ffffffffffffffffffffffffffffffffffffffff1614610ff7576040517f08c379a0000000000000000000000000000000000000000000000000000000008152600401610fee90612d32565b60405180910390fd5b80600a819055507f7bb28e8aff44d3e75458433e3bdaf50a114dc5ac919cc0338d10e4786ed85d958160405161102d9190612e52565b60405180910390a150565b6000611062611048858486611d88565b600a54620f42406110599190612eba565b620f4240611d88565b90509392505050565b620f424081565b60008060008373ffffffffffffffffffffffffffffffffffffffff1673ffffffffffffffffffffffffffffffffffffffff168152602001908152602001600020549050919050565b6110c26117b8565b73ffffffffffffffffffffffffffffffffffffffff166110e06111f7565b73ffffffffffffffffffffffffffffffffffffffff1614611136576040517f08c379a000000000000000000000000000000000000000000000000000000000815260040161112d90612d32565b60405180910390fd5b600073ffffffffffffffffffffffffffffffffffffffff16600560009054906101000a900473ffffffffffffffffffffffffffffffffffffffff1673ffffffffffffffffffffffffffffffffffffffff167f8be0079c531659141344cd1fd0a4f28419497f9722a3daafe3b4186f6b6457e060405160405180910390a36000600560006101000a81548173ffffffffffffffffffffffffffffffffffffffff021916908373ffffffffffffffffffffffffffffffffffffffff160217905550565b6000600560009054906101000a900473ffffffffffffffffffffffffffffffffffffffff16905090565b600a5481565b60006006600084815260200190815260200160002060000160008373ffffffffffffffffffffffffffffffffffffffff1673ffffffffffffffffffffffffffffffffffffffff16815260200190815260200160002060009054906101000a900460ff16905092915050565b6060600480546112a190613098565b80601f01602080910402602001604051908101604052809291908181526020018280546112cd90613098565b801561131a5780601f106112ef5761010080835404028352916020019161131a565b820191906000526020600020905b8154815290600101906020018083116112fd57829003601f168201915b5050505050905090565b7fe97b137254058bd94f28d2f3eb79e2d34074ffb488d042e3bc958e0a57d2fa22611356816113516117b8565b611c0a565b61136083836120ba565b505050565b60075481565b6000801b81565b600080600160006113816117b8565b73ffffffffffffffffffffffffffffffffffffffff1673ffffffffffffffffffffffffffffffffffffffff16815260200190815260200160002060008573ffffffffffffffffffffffffffffffffffffffff1673ffffffffffffffffffffffffffffffffffffffff1681526020019081526020016000205490508281101561143e576040517f08c379a000000000000000000000000000000000000000000000000000000000815260040161143590612df2565b60405180910390fd5b61145b6114496117b8565b8585846114569190612f6a565b6117c0565b600191505092915050565b600061147a6114736117b8565b848461198b565b6001905092915050565b7fe97b137254058bd94f28d2f3eb79e2d34074ffb488d042e3bc958e0a57d2fa2281565b6114b182610a8e565b6114c2816114bd6117b8565b611c0a565b6114cc8383611e84565b505050565b6000600160008473ffffffffffffffffffffffffffffffffffffffff1673ffffffffffffffffffffffffffffffffffffffff16815260200190815260200160002060008373ffffffffffffffffffffffffffffffffffffffff1673ffffffffffffffffffffffffffffffffffffffff16815260200190815260200160002054905092915050565b7f154c00819833dac601ee5ddded6fda79d9d8b506b911b3dbd54cdb95fe6c368681565b6115846117b8565b73ffffffffffffffffffffffffffffffffffffffff166115a26111f7565b73ffffffffffffffffffffffffffffffffffffffff16146115f8576040517f08c379a00000000000000000000000000000000000000000000000000000000081526004016115ef90612d32565b60405180910390fd5b600073ffffffffffffffffffffffffffffffffffffffff168173ffffffffffffffffffffffffffffffffffffffff161415611668576040517f08c379a000000000000000000000000000000000000000000000000000000000815260040161165f90612c72565b60405180910390fd5b8073ffffffffffffffffffffffffffffffffffffffff16600560009054906101000a900473ffffffffffffffffffffffffffffffffffffffff1673ffffffffffffffffffffffffffffffffffffffff167f8be0079c531659141344cd1fd0a4f28419497f9722a3daafe3b4186f6b6457e060405160405180910390a380600560006101000a81548173ffffffffffffffffffffffffffffffffffffffff021916908373ffffffffffffffffffffffffffffffffffffffff16021790555050565b600960009054906101000a900473ffffffffffffffffffffffffffffffffffffffff1681565b60007f01ffc9a7000000000000000000000000000000000000000000000000000000007bffffffffffffffffffffffffffffffffffffffffffffffffffffffff1916827bffffffffffffffffffffffffffffffffffffffffffffffffffffffff1916149050919050565b600033905090565b600073ffffffffffffffffffffffffffffffffffffffff168373ffffffffffffffffffffffffffffffffffffffff161415611830576040517f08c379a000000000000000000000000000000000000000000000000000000000815260040161182790612db2565b60405180910390fd5b600073ffffffffffffffffffffffffffffffffffffffff168273ffffffffffffffffffffffffffffffffffffffff1614156118a0576040517f08c379a000000000000000000000000000000000000000000000000000000000815260040161189790612c92565b60405180910390fd5b80600160008573ffffffffffffffffffffffffffffffffffffffff1673ffffffffffffffffffffffffffffffffffffffff16815260200190815260200160002060008473ffffffffffffffffffffffffffffffffffffffff1673ffffffffffffffffffffffffffffffffffffffff168152602001908152602001600020819055508173ffffffffffffffffffffffffffffffffffffffff168373ffffffffffffffffffffffffffffffffffffffff167f8c5be1e5ebec7d5bd14f71427d1e84f3dd0314c0f7b2291e5b200ac8c7c3b9258360405161197e9190612e52565b60405180910390a3505050565b600073ffffffffffffffffffffffffffffffffffffffff168373ffffffffffffffffffffffffffffffffffffffff1614156119fb576040517f08c379a00000000000000000000000000000000000000000000000000000000081526004016119f290612d72565b60405180910390fd5b600073ffffffffffffffffffffffffffffffffffffffff168273ffffffffffffffffffffffffffffffffffffffff161415611a6b576040517f08c379a0000000000000000000000000000000000000000000000000000000008152600401611a6290612c32565b60405180910390fd5b611a7683838361228e565b60008060008573ffffffffffffffffffffffffffffffffffffffff1673ffffffffffffffffffffffffffffffffffffffff16815260200190815260200160002054905081811015611afc576040517f08c379a0000000000000000000000000000000000000000000000000000000008152600401611af390612cd2565b60405180910390fd5b8181611b089190612f6a565b6000808673ffffffffffffffffffffffffffffffffffffffff1673ffffffffffffffffffffffffffffffffffffffff16815260200190815260200160002081905550816000808573ffffffffffffffffffffffffffffffffffffffff1673ffffffffffffffffffffffffffffffffffffffff1681526020019081526020016000206000828254611b989190612eba565b925050819055508273ffffffffffffffffffffffffffffffffffffffff168473ffffffffffffffffffffffffffffffffffffffff167fddf252ad1be2c89b69c2b068fc378daa952ba7f163c4a11628f55a4df523b3ef84604051611bfc9190612e52565b60405180910390a350505050565b611c148282611227565b611ca357611c398173ffffffffffffffffffffffffffffffffffffffff166014612293565b611c478360001c6020612293565b604051602001611c58929190612b4a565b6040516020818303038152906040526040517f08c379a0000000000000000000000000000000000000000000000000000000008152600401611c9a9190612bf0565b60405180910390fd5b5050565b611cb18282611227565b611d845760016006600084815260200190815260200160002060000160008373ffffffffffffffffffffffffffffffffffffffff1673ffffffffffffffffffffffffffffffffffffffff16815260200190815260200160002060006101000a81548160ff021916908315150217905550611d296117b8565b73ffffffffffffffffffffffffffffffffffffffff168173ffffffffffffffffffffffffffffffffffffffff16837f2f8788117e7eff1d82e926ec794901d17c78024a50270940304540a733656f0d60405160405180910390a45b5050565b600080600080198587098587029250828110838203039150506000811415611dc35760008411611db757600080fd5b83820492505050611e7d565b808411611dcf57600080fd5b60008486880990508281118203915080830392506000856001877fffffffffffffffffffffffffffffffffffffffffffffffffffffffffffffffff0301169050808604955080840493506001818260000304019050808302841793506000600287600302189050808702600203810290508087026002038102905080870260020381029050808702600203810290508087026002038102905080870260020381029050808502955050505050505b9392505050565b611e8e8282611227565b15611f625760006006600084815260200190815260200160002060000160008373ffffffffffffffffffffffffffffffffffffffff1673ffffffffffffffffffffffffffffffffffffffff16815260200190815260200160002060006101000a81548160ff021916908315150217905550611f076117b8565b73ffffffffffffffffffffffffffffffffffffffff168173ffffffffffffffffffffffffffffffffffffffff16837ff6391f5c32d9c69d2a47ea670b442974b53935d1edc7fd64eb21e047a839171b60405160405180910390a45b5050565b600073ffffffffffffffffffffffffffffffffffffffff168273ffffffffffffffffffffffffffffffffffffffff161415611fd6576040517f08c379a0000000000000000000000000000000000000000000000000000000008152600401611fcd90612e32565b60405180910390fd5b611fe26000838361228e565b8060026000828254611ff49190612eba565b92505081905550806000808473ffffffffffffffffffffffffffffffffffffffff1673ffffffffffffffffffffffffffffffffffffffff16815260200190815260200160002060008282546120499190612eba565b925050819055508173ffffffffffffffffffffffffffffffffffffffff16600073ffffffffffffffffffffffffffffffffffffffff167fddf252ad1be2c89b69c2b068fc378daa952ba7f163c4a11628f55a4df523b3ef836040516120ae9190612e52565b60405180910390a35050565b600073ffffffffffffffffffffffffffffffffffffffff168273ffffffffffffffffffffffffffffffffffffffff16141561212a576040517f08c379a000000000000000000000000000000000000000000000000000000000815260040161212190612d52565b60405180910390fd5b6121368260008361228e565b60008060008473ffffffffffffffffffffffffffffffffffffffff1673ffffffffffffffffffffffffffffffffffffffff168152602001908152602001600020549050818110156121bc576040517f08c379a00000000000000000000000000000000000000000000000000000000081526004016121b390612c52565b60405180910390fd5b81816121c89190612f6a565b6000808573ffffffffffffffffffffffffffffffffffffffff1673ffffffffffffffffffffffffffffffffffffffff16815260200190815260200160002081905550816002600082825461221c9190612f6a565b92505081905550600073ffffffffffffffffffffffffffffffffffffffff168373ffffffffffffffffffffffffffffffffffffffff167fddf252ad1be2c89b69c2b068fc378daa952ba7f163c4a11628f55a4df523b3ef846040516122819190612e52565b60405180910390a3505050565b505050565b6060600060028360026122a69190612f10565b6122b09190612eba565b67ffffffffffffffff8111156122c9576122c8613157565b5b6040519080825280601f01601f1916602001820160405280156122fb5781602001600182028036833780820191505090505b5090507f30000000000000000000000000000000000000000000000000000000000000008160008151811061233357612332613128565b5b60200101907effffffffffffffffffffffffffffffffffffffffffffffffffffffffffffff1916908160001a9053507f78000000000000000000000000000000000000000000000000000000000000008160018151811061239757612396613128565b5b60200101907effffffffffffffffffffffffffffffffffffffffffffffffffffffffffffff1916908160001a905350600060018460026123d79190612f10565b6123e19190612eba565b90505b6001811115612481577f3031323334353637383961626364656600000000000000000000000000000000600f86166010811061242357612422613128565b5b1a60f81b82828151811061243a57612439613128565b5b60200101907effffffffffffffffffffffffffffffffffffffffffffffffffffffffffffff1916908160001a905350600485901c94508061247a9061306e565b90506123e4565b50600084146124c5576040517f08c379a00000000000000000000000000000000000000000000000000000000081526004016124bc90612c12565b60405180910390fd5b8091505092915050565b6000813590506124de81613675565b92915050565b6000813590506124f38161368c565b92915050565b600081359050612508816136a3565b92915050565b60008135905061251d816136ba565b92915050565b600081359050612532816136d1565b92915050565b60006020828403121561254e5761254d613186565b5b600061255c848285016124cf565b91505092915050565b6000806040838503121561257c5761257b613186565b5b600061258a858286016124e4565b925050602061259b85828601612523565b9150509250929050565b600080604083850312156125bc576125bb613186565b5b60006125ca858286016124cf565b92505060206125db858286016124cf565b9150509250929050565b6000806000606084860312156125fe576125fd613186565b5b600061260c868287016124cf565b935050602061261d868287016124cf565b925050604061262e86828701612523565b9150509250925092565b6000806040838503121561264f5761264e613186565b5b600061265d858286016124cf565b925050602061266e85828601612523565b9150509250929050565b60006020828403121561268e5761268d613186565b5b600061269c848285016124f9565b91505092915050565b600080604083850312156126bc576126bb613186565b5b60006126ca858286016124f9565b92505060206126db858286016124cf565b9150509250929050565b6000602082840312156126fb576126fa613186565b5b60006127098482850161250e565b91505092915050565b60006020828403121561272857612727613186565b5b600061273684828501612523565b91505092915050565b60008060006060848603121561275857612757613186565b5b600061276686828701612523565b935050602061277786828701612523565b925050604061278886828701612523565b9150509250925092565b61279b81612fb0565b82525050565b6127aa81612f9e565b82525050565b6127b981612fc2565b82525050565b6127c881612fce565b82525050565b60006127d982612e88565b6127e38185612e9e565b93506127f381856020860161303b565b6127fc8161318b565b840191505092915050565b600061281282612e88565b61281c8185612eaf565b935061282c81856020860161303b565b80840191505092915050565b6000612845602083612e9e565b91506128508261319c565b602082019050919050565b6000612868602383612e9e565b9150612873826131c5565b604082019050919050565b600061288b602283612e9e565b915061289682613214565b604082019050919050565b60006128ae602683612e9e565b91506128b982613263565b604082019050919050565b60006128d1602283612e9e565b91506128dc826132b2565b604082019050919050565b60006128f4601a83612e9e565b91506128ff82613301565b602082019050919050565b6000612917602683612e9e565b91506129228261332a565b604082019050919050565b600061293a601283612e9e565b915061294582613379565b602082019050919050565b600061295d602883612e9e565b9150612968826133a2565b604082019050919050565b6000612980602083612e9e565b915061298b826133f1565b602082019050919050565b60006129a3602183612e9e565b91506129ae8261341a565b604082019050919050565b60006129c6602583612e9e565b91506129d182613469565b604082019050919050565b60006129e9601f83612e9e565b91506129f4826134b8565b602082019050919050565b6000612a0c600083612e93565b9150612a17826134e1565b600082019050919050565b6000612a2f602483612e9e565b9150612a3a826134e4565b604082019050919050565b6000612a52601783612eaf565b9150612a5d82613533565b601782019050919050565b6000612a75600f83612e9e565b9150612a808261355c565b602082019050919050565b6000612a98602583612e9e565b9150612aa382613585565b604082019050919050565b6000612abb601183612eaf565b9150612ac6826135d4565b601182019050919050565b6000612ade602f83612e9e565b9150612ae9826135fd565b604082019050919050565b6000612b01601f83612e9e565b9150612b0c8261364c565b602082019050919050565b612b2081613024565b82525050565b612b2f8161302e565b82525050565b6000612b40826129ff565b9150819050919050565b6000612b5582612a45565b9150612b618285612807565b9150612b6c82612aae565b9150612b788284612807565b91508190509392505050565b6000602082019050612b9960008301846127a1565b92915050565b6000602082019050612bb46000830184612792565b92915050565b6000602082019050612bcf60008301846127b0565b92915050565b6000602082019050612bea60008301846127bf565b92915050565b60006020820190508181036000830152612c0a81846127ce565b905092915050565b60006020820190508181036000830152612c2b81612838565b9050919050565b60006020820190508181036000830152612c4b8161285b565b9050919050565b60006020820190508181036000830152612c6b8161287e565b9050919050565b60006020820190508181036000830152612c8b816128a1565b9050919050565b60006020820190508181036000830152612cab816128c4565b9050919050565b60006020820190508181036000830152612ccb816128e7565b9050919050565b60006020820190508181036000830152612ceb8161290a565b9050919050565b60006020820190508181036000830152612d0b8161292d565b9050919050565b60006020820190508181036000830152612d2b81612950565b9050919050565b60006020820190508181036000830152612d4b81612973565b9050919050565b60006020820190508181036000830152612d6b81612996565b9050919050565b60006020820190508181036000830152612d8b816129b9565b9050919050565b60006020820190508181036000830152612dab816129dc565b9050919050565b60006020820190508181036000830152612dcb81612a22565b9050919050565b60006020820190508181036000830152612deb81612a68565b9050919050565b60006020820190508181036000830152612e0b81612a8b565b9050919050565b60006020820190508181036000830152612e2b81612ad1565b9050919050565b60006020820190508181036000830152612e4b81612af4565b9050919050565b6000602082019050612e676000830184612b17565b92915050565b6000602082019050612e826000830184612b26565b92915050565b600081519050919050565b600081905092915050565b600082825260208201905092915050565b600081905092915050565b6000612ec582613024565b9150612ed083613024565b9250827fffffffffffffffffffffffffffffffffffffffffffffffffffffffffffffffff03821115612f0557612f046130ca565b5b828201905092915050565b6000612f1b82613024565b9150612f2683613024565b9250817fffffffffffffffffffffffffffffffffffffffffffffffffffffffffffffffff0483118215151615612f5f57612f5e6130ca565b5b828202905092915050565b6000612f7582613024565b9150612f8083613024565b925082821015612f9357612f926130ca565b5b828203905092915050565b6000612fa982613004565b9050919050565b6000612fbb82613004565b9050919050565b60008115159050919050565b6000819050919050565b60007fffffffff0000000000000000000000000000000000000000000000000000000082169050919050565b600073ffffffffffffffffffffffffffffffffffffffff82169050919050565b6000819050919050565b600060ff82169050919050565b60005b8381101561305957808201518184015260208101905061303e565b83811115613068576000848401525b50505050565b600061307982613024565b9150600082141561308d5761308c6130ca565b5b600182039050919050565b600060028204905060018216806130b057607f821691505b602082108114156130c4576130c36130f9565b5b50919050565b7f4e487b7100000000000000000000000000000000000000000000000000000000600052601160045260246000fd5b7f4e487b7100000000000000000000000000000000000000000000000000000000600052602260045260246000fd5b7f4e487b7100000000000000000000000000000000000000000000000000000000600052603260045260246000fd5b7f4e487b7100000000000000000000000000000000000000000000000000000000600052604160045260246000fd5b600080fd5b6000601f19601f8301169050919050565b7f537472696e67733a20686578206c656e67746820696e73756666696369656e74600082015250565b7f45524332303a207472616e7366657220746f20746865207a65726f206164647260008201527f6573730000000000000000000000000000000000000000000000000000000000602082015250565b7f45524332303a206275726e20616d6f756e7420657863656564732062616c616e60008201527f6365000000000000000000000000000000000000000000000000000000000000602082015250565b7f4f776e61626c653a206e6577206f776e657220697320746865207a65726f206160008201527f6464726573730000000000000000000000000000000000000000000000000000602082015250565b7f45524332303a20617070726f766520746f20746865207a65726f20616464726560008201527f7373000000000000000000000000000000000000000000000000000000000000602082015250565b7f496e63726561736520416c6c6f77616e6365206661696c65642e000000000000600082015250565b7f45524332303a207472616e7366657220616d6f756e742065786365656473206260008201527f616c616e63650000000000000000000000000000000000000000000000000000602082015250565b7f5769746864726177616c206661696c65642e0000000000000000000000000000600082015250565b7f45524332303a207472616e7366657220616d6f756e742065786365656473206160008201527f6c6c6f77616e6365000000000000000000000000000000000000000000000000602082015250565b7f4f776e61626c653a2063616c6c6572206973206e6f7420746865206f776e6572600082015250565b7f45524332303a206275726e2066726f6d20746865207a65726f2061646472657360008201527f7300000000000000000000000000000000000000000000000000000000000000602082015250565b7f45524332303a207472616e736665722066726f6d20746865207a65726f20616460008201527f6472657373000000000000000000000000000000000000000000000000000000602082015250565b7f43757272656e74204554482062616c616e6365206e6f7420656e6f7567682e00600082015250565b50565b7f45524332303a20617070726f76652066726f6d20746865207a65726f2061646460008201527f7265737300000000000000000000000000000000000000000000000000000000602082015250565b7f416363657373436f6e74726f6c3a206163636f756e7420000000000000000000600082015250565b7f4465706f736974206661696c65642e0000000000000000000000000000000000600082015250565b7f45524332303a2064656372656173656420616c6c6f77616e63652062656c6f7760008201527f207a65726f000000000000000000000000000000000000000000000000000000602082015250565b7f206973206d697373696e6720726f6c6520000000000000000000000000000000600082015250565b7f416363657373436f6e74726f6c3a2063616e206f6e6c792072656e6f756e636560008201527f20726f6c657320666f722073656c660000000000000000000000000000000000602082015250565b7f45524332303a206d696e7420746f20746865207a65726f206164647265737300600082015250565b61367e81612f9e565b811461368957600080fd5b50565b61369581612fb0565b81146136a057600080fd5b50565b6136ac81612fce565b81146136b757600080fd5b50565b6136c381612fd8565b81146136ce57600080fd5b50565b6136da81613024565b81146136e557600080fd5b5056fea26469706673582212204ff8ae334bd8c8034b8ccd53a71cc2b1e8f0a95ddc6c62a3a8884880c10737ca64736f6c63430008060033",
  "immutableReferences": {},
  "source": "pragma solidity ^0.8.4;\n\n/**\n * SPDX-License-Identifier: GPL-3.0-or-later\n * Moret\n * Copyright (C) 2021 Moret\n */\n\nimport \"./FullMath.sol\";\nimport \"@openzeppelin/contracts/access/Ownable.sol\";\nimport \"@openzeppelin/contracts/token/ERC20/ERC20.sol\";\nimport \"@openzeppelin/contracts/access/AccessControl.sol\";\nimport \"@openzeppelin/contracts/utils/structs/EnumerableSet.sol\";\n\ncontract VolatilityToken is ERC20, Ownable, AccessControl\n{\n  bytes32 public constant MINT_ROLE = keccak256(\"MINT_ROLE\");\n  bytes32 public constant BURN_ROLE = keccak256(\"BURN_ROLE\");\n  uint256 public tenor;\n  bytes32 public underlyingHash;\n  address payable public contractAddress;\n\n  uint256 public margin;\n  uint256 public constant marginDenom = 10 ** 6;\n\n  constructor(\n    string memory _underlyingName,\n    uint256 _tenor,\n    string memory _name,\n    string memory _symbol\n    )\n  ERC20(_name, _symbol)\n  {\n     _setupRole(DEFAULT_ADMIN_ROLE, msg.sender);\n     _setupRole(MINT_ROLE, msg.sender);\n     _setupRole(BURN_ROLE, msg.sender);\n\n    tenor = _tenor;\n    underlyingHash = keccak256(abi.encodePacked(_underlyingName));\n    margin = 10000;\n\n    contractAddress = payable(address(this));\n  }\n\n  function mint(address _account, uint256 _amount) public payable onlyRole(MINT_ROLE) {\n        (bool _sent, ) = contractAddress.call{value: msg.value }(\"\");\n        require(_sent, \"Deposit failed.\");\n\n        _mint(_account, _amount);\n  }\n\n  function burn(address _account, uint256 _amount) public onlyRole(BURN_ROLE){\n      _burn(_account, _amount);\n  }\n\n    function calculateMintValue(uint256 _amount, uint256 _price, uint256 _volatility)\n    public view returns(uint256){\n        return MulDiv(MulDiv(_amount, _volatility, _price), marginDenom + margin, marginDenom);\n    }\n\n    function calculateMintableAmount(uint256 _ethValue, uint256 _price, uint256 _volatility)\n    public view returns(uint256){\n        return MulDiv(MulDiv(_ethValue, marginDenom, marginDenom + margin), _price, _volatility);\n    }\n\n    function recycle(address payable _recipient, uint256 _tokenAmount) external payable onlyRole(BURN_ROLE) {\n        uint256 _impliedPrice = MulDiv(contractAddress.balance, 10 ** 18, totalSupply());\n        uint256 _swapAmount = MulDiv(_tokenAmount, _impliedPrice, 10 ** 18);\n\n        require(_swapAmount<= payable(address(this)).balance, \"Current ETH balance not enough.\");\n\n        (bool _sent, ) = _recipient.call{value: _swapAmount }(\"\");\n        require(_sent, \"Withdrawal failed.\");\n\n        require(increaseAllowance(contractAddress, _tokenAmount), \"Increase Allowance failed.\");\n        _burn(_recipient, _tokenAmount);\n    }\n\n    function resetMargin(uint256 _margin) public onlyOwner{\n        margin = _margin;\n        emit newMargin(_margin);\n    }\n\n    receive() external payable{}\n\n    event newMargin(uint256 _margin);\n}\n",
  "sourcePath": "/Users/mac/Documents/GitHub/moret/contracts/VolatilityToken.sol",
  "compiler": {
    "name": "solc",
    "version": "0.8.6+commit.11564f7e.Emscripten.clang"
  },
  "schemaVersion": "3.4.1",
  "updatedAt": "2021-06-24T19:45:29.566Z",
  "devdoc": {
    "kind": "dev",
    "methods": {
      "allowance(address,address)": {
        "details": "See {IERC20-allowance}."
      },
      "approve(address,uint256)": {
        "details": "See {IERC20-approve}. Requirements: - `spender` cannot be the zero address."
      },
      "balanceOf(address)": {
        "details": "See {IERC20-balanceOf}."
      },
      "decimals()": {
        "details": "Returns the number of decimals used to get its user representation. For example, if `decimals` equals `2`, a balance of `505` tokens should be displayed to a user as `5,05` (`505 / 10 ** 2`). Tokens usually opt for a value of 18, imitating the relationship between Ether and Wei. This is the value {ERC20} uses, unless this function is overridden; NOTE: This information is only used for _display_ purposes: it in no way affects any of the arithmetic of the contract, including {IERC20-balanceOf} and {IERC20-transfer}."
      },
      "decreaseAllowance(address,uint256)": {
        "details": "Atomically decreases the allowance granted to `spender` by the caller. This is an alternative to {approve} that can be used as a mitigation for problems described in {IERC20-approve}. Emits an {Approval} event indicating the updated allowance. Requirements: - `spender` cannot be the zero address. - `spender` must have allowance for the caller of at least `subtractedValue`."
      },
      "getRoleAdmin(bytes32)": {
        "details": "Returns the admin role that controls `role`. See {grantRole} and {revokeRole}. To change a role's admin, use {_setRoleAdmin}."
      },
      "grantRole(bytes32,address)": {
        "details": "Grants `role` to `account`. If `account` had not been already granted `role`, emits a {RoleGranted} event. Requirements: - the caller must have ``role``'s admin role."
      },
      "hasRole(bytes32,address)": {
        "details": "Returns `true` if `account` has been granted `role`."
      },
      "increaseAllowance(address,uint256)": {
        "details": "Atomically increases the allowance granted to `spender` by the caller. This is an alternative to {approve} that can be used as a mitigation for problems described in {IERC20-approve}. Emits an {Approval} event indicating the updated allowance. Requirements: - `spender` cannot be the zero address."
      },
      "name()": {
        "details": "Returns the name of the token."
      },
      "owner()": {
        "details": "Returns the address of the current owner."
      },
      "renounceOwnership()": {
        "details": "Leaves the contract without owner. It will not be possible to call `onlyOwner` functions anymore. Can only be called by the current owner. NOTE: Renouncing ownership will leave the contract without an owner, thereby removing any functionality that is only available to the owner."
      },
      "renounceRole(bytes32,address)": {
        "details": "Revokes `role` from the calling account. Roles are often managed via {grantRole} and {revokeRole}: this function's purpose is to provide a mechanism for accounts to lose their privileges if they are compromised (such as when a trusted device is misplaced). If the calling account had been granted `role`, emits a {RoleRevoked} event. Requirements: - the caller must be `account`."
      },
      "revokeRole(bytes32,address)": {
        "details": "Revokes `role` from `account`. If `account` had been granted `role`, emits a {RoleRevoked} event. Requirements: - the caller must have ``role``'s admin role."
      },
      "supportsInterface(bytes4)": {
        "details": "See {IERC165-supportsInterface}."
      },
      "symbol()": {
        "details": "Returns the symbol of the token, usually a shorter version of the name."
      },
      "totalSupply()": {
        "details": "See {IERC20-totalSupply}."
      },
      "transfer(address,uint256)": {
        "details": "See {IERC20-transfer}. Requirements: - `recipient` cannot be the zero address. - the caller must have a balance of at least `amount`."
      },
      "transferFrom(address,address,uint256)": {
        "details": "See {IERC20-transferFrom}. Emits an {Approval} event indicating the updated allowance. This is not required by the EIP. See the note at the beginning of {ERC20}. Requirements: - `sender` and `recipient` cannot be the zero address. - `sender` must have a balance of at least `amount`. - the caller must have allowance for ``sender``'s tokens of at least `amount`."
      },
      "transferOwnership(address)": {
        "details": "Transfers ownership of the contract to a new account (`newOwner`). Can only be called by the current owner."
      }
    },
    "version": 1
  },
  "userdoc": {
    "kind": "user",
    "methods": {},
    "version": 1
  }
}