{
  "contractName": "VolatilityChain",
  "abi": [
    {
      "inputs": [
        {
          "internalType": "address",
          "name": "_priceSourceId",
          "type": "address"
        },
        {
          "internalType": "uint256",
          "name": "_parameterDecimals",
          "type": "uint256"
        },
        {
          "internalType": "string",
          "name": "_tokenName",
          "type": "string"
        }
      ],
      "stateMutability": "nonpayable",
      "type": "constructor"
    },
    {
      "anonymous": false,
      "inputs": [
        {
          "indexed": true,
          "internalType": "address",
          "name": "previousOwner",
          "type": "address"
        },
        {
          "indexed": true,
          "internalType": "address",
          "name": "newOwner",
          "type": "address"
        }
      ],
      "name": "OwnershipTransferred",
      "type": "event"
    },
    {
      "anonymous": false,
      "inputs": [
        {
          "indexed": true,
          "internalType": "bytes32",
          "name": "role",
          "type": "bytes32"
        },
        {
          "indexed": true,
          "internalType": "bytes32",
          "name": "previousAdminRole",
          "type": "bytes32"
        },
        {
          "indexed": true,
          "internalType": "bytes32",
          "name": "newAdminRole",
          "type": "bytes32"
        }
      ],
      "name": "RoleAdminChanged",
      "type": "event"
    },
    {
      "anonymous": false,
      "inputs": [
        {
          "indexed": true,
          "internalType": "bytes32",
          "name": "role",
          "type": "bytes32"
        },
        {
          "indexed": true,
          "internalType": "address",
          "name": "account",
          "type": "address"
        },
        {
          "indexed": true,
          "internalType": "address",
          "name": "sender",
          "type": "address"
        }
      ],
      "name": "RoleGranted",
      "type": "event"
    },
    {
      "anonymous": false,
      "inputs": [
        {
          "indexed": true,
          "internalType": "bytes32",
          "name": "role",
          "type": "bytes32"
        },
        {
          "indexed": true,
          "internalType": "address",
          "name": "account",
          "type": "address"
        },
        {
          "indexed": true,
          "internalType": "address",
          "name": "sender",
          "type": "address"
        }
      ],
      "name": "RoleRevoked",
      "type": "event"
    },
    {
      "anonymous": false,
      "inputs": [
        {
          "indexed": false,
          "internalType": "uint256",
          "name": "_tenor",
          "type": "uint256"
        },
        {
          "indexed": false,
          "internalType": "uint256",
          "name": "_timeStamp",
          "type": "uint256"
        },
        {
          "components": [
            {
              "internalType": "uint256",
              "name": "startTime",
              "type": "uint256"
            },
            {
              "internalType": "uint256",
              "name": "endTime",
              "type": "uint256"
            },
            {
              "internalType": "uint256",
              "name": "open",
              "type": "uint256"
            },
            {
              "internalType": "uint256",
              "name": "highest",
              "type": "uint256"
            },
            {
              "internalType": "uint256",
              "name": "lowest",
              "type": "uint256"
            },
            {
              "internalType": "uint256",
              "name": "volatility",
              "type": "uint256"
            }
          ],
          "indexed": false,
          "internalType": "struct IVolatilityChain.PriceStamp",
          "name": "_book",
          "type": "tuple"
        }
      ],
      "name": "volatilityChainBlockAdded",
      "type": "event"
    },
    {
      "inputs": [],
      "name": "DEFAULT_ADMIN_ROLE",
      "outputs": [
        {
          "internalType": "bytes32",
          "name": "",
          "type": "bytes32"
        }
      ],
      "stateMutability": "view",
      "type": "function"
    },
    {
      "inputs": [],
      "name": "UPDATE_ROLE",
      "outputs": [
        {
          "internalType": "bytes32",
          "name": "",
          "type": "bytes32"
        }
      ],
      "stateMutability": "view",
      "type": "function"
    },
    {
      "inputs": [],
      "name": "decimals",
      "outputs": [
        {
          "internalType": "uint256",
          "name": "",
          "type": "uint256"
        }
      ],
      "stateMutability": "view",
      "type": "function"
    },
    {
      "inputs": [],
      "name": "description",
      "outputs": [
        {
          "internalType": "string",
          "name": "",
          "type": "string"
        }
      ],
      "stateMutability": "view",
      "type": "function"
    },
    {
      "inputs": [
        {
          "internalType": "bytes32",
          "name": "role",
          "type": "bytes32"
        }
      ],
      "name": "getRoleAdmin",
      "outputs": [
        {
          "internalType": "bytes32",
          "name": "",
          "type": "bytes32"
        }
      ],
      "stateMutability": "view",
      "type": "function"
    },
    {
      "inputs": [
        {
          "internalType": "bytes32",
          "name": "role",
          "type": "bytes32"
        },
        {
          "internalType": "address",
          "name": "account",
          "type": "address"
        }
      ],
      "name": "grantRole",
      "outputs": [],
      "stateMutability": "nonpayable",
      "type": "function"
    },
    {
      "inputs": [
        {
          "internalType": "bytes32",
          "name": "role",
          "type": "bytes32"
        },
        {
          "internalType": "address",
          "name": "account",
          "type": "address"
        }
      ],
      "name": "hasRole",
      "outputs": [
        {
          "internalType": "bool",
          "name": "",
          "type": "bool"
        }
      ],
      "stateMutability": "view",
      "type": "function"
    },
    {
      "inputs": [
        {
          "internalType": "uint256",
          "name": "",
          "type": "uint256"
        }
      ],
      "name": "latestBookTime",
      "outputs": [
        {
          "internalType": "uint256",
          "name": "",
          "type": "uint256"
        }
      ],
      "stateMutability": "view",
      "type": "function"
    },
    {
      "inputs": [],
      "name": "owner",
      "outputs": [
        {
          "internalType": "address",
          "name": "",
          "type": "address"
        }
      ],
      "stateMutability": "view",
      "type": "function"
    },
    {
      "inputs": [],
      "name": "renounceOwnership",
      "outputs": [],
      "stateMutability": "nonpayable",
      "type": "function"
    },
    {
      "inputs": [
        {
          "internalType": "bytes32",
          "name": "role",
          "type": "bytes32"
        },
        {
          "internalType": "address",
          "name": "account",
          "type": "address"
        }
      ],
      "name": "renounceRole",
      "outputs": [],
      "stateMutability": "nonpayable",
      "type": "function"
    },
    {
      "inputs": [
        {
          "internalType": "bytes32",
          "name": "role",
          "type": "bytes32"
        },
        {
          "internalType": "address",
          "name": "account",
          "type": "address"
        }
      ],
      "name": "revokeRole",
      "outputs": [],
      "stateMutability": "nonpayable",
      "type": "function"
    },
    {
      "inputs": [
        {
          "internalType": "bytes4",
          "name": "interfaceId",
          "type": "bytes4"
        }
      ],
      "name": "supportsInterface",
      "outputs": [
        {
          "internalType": "bool",
          "name": "",
          "type": "bool"
        }
      ],
      "stateMutability": "view",
      "type": "function"
    },
    {
      "inputs": [],
      "name": "tokenHash",
      "outputs": [
        {
          "internalType": "bytes32",
          "name": "",
          "type": "bytes32"
        }
      ],
      "stateMutability": "view",
      "type": "function"
    },
    {
      "inputs": [
        {
          "internalType": "address",
          "name": "newOwner",
          "type": "address"
        }
      ],
      "name": "transferOwnership",
      "outputs": [],
      "stateMutability": "nonpayable",
      "type": "function"
    },
    {
      "inputs": [],
      "name": "volParamDecimals",
      "outputs": [
        {
          "internalType": "uint256",
          "name": "",
          "type": "uint256"
        }
      ],
      "stateMutability": "view",
      "type": "function"
    },
    {
      "inputs": [
        {
          "internalType": "uint256",
          "name": "",
          "type": "uint256"
        }
      ],
      "name": "volatilityParameters",
      "outputs": [
        {
          "internalType": "uint256",
          "name": "initialVol",
          "type": "uint256"
        },
        {
          "internalType": "uint256",
          "name": "ltVol",
          "type": "uint256"
        },
        {
          "internalType": "uint256",
          "name": "ltVolWeighted",
          "type": "uint256"
        },
        {
          "internalType": "uint256",
          "name": "w",
          "type": "uint256"
        },
        {
          "internalType": "uint256",
          "name": "p",
          "type": "uint256"
        },
        {
          "internalType": "uint256",
          "name": "q",
          "type": "uint256"
        }
      ],
      "stateMutability": "view",
      "type": "function"
    },
    {
      "inputs": [],
      "name": "volatilityUpdateCounter",
      "outputs": [
        {
          "internalType": "uint256",
          "name": "",
          "type": "uint256"
        }
      ],
      "stateMutability": "view",
      "type": "function"
    },
    {
      "inputs": [],
      "name": "volatilityUpdateTime",
      "outputs": [
        {
          "internalType": "uint256",
          "name": "",
          "type": "uint256"
        }
      ],
      "stateMutability": "view",
      "type": "function"
    },
    {
      "inputs": [
        {
          "internalType": "uint256",
          "name": "_tenor",
          "type": "uint256"
        }
      ],
      "name": "getVol",
      "outputs": [
        {
          "internalType": "uint256",
          "name": "",
          "type": "uint256"
        }
      ],
      "stateMutability": "view",
      "type": "function"
    },
    {
      "inputs": [],
      "name": "queryPrice",
      "outputs": [
        {
          "internalType": "uint256",
          "name": "",
          "type": "uint256"
        },
        {
          "internalType": "uint256",
          "name": "",
          "type": "uint256"
        }
      ],
      "stateMutability": "view",
      "type": "function"
    },
    {
      "inputs": [],
      "name": "update",
      "outputs": [],
      "stateMutability": "nonpayable",
      "type": "function"
    },
    {
      "inputs": [
        {
          "internalType": "uint256",
          "name": "_tenor",
          "type": "uint256"
        },
        {
          "components": [
            {
              "internalType": "uint256",
              "name": "initialVol",
              "type": "uint256"
            },
            {
              "internalType": "uint256",
              "name": "ltVol",
              "type": "uint256"
            },
            {
              "internalType": "uint256",
              "name": "ltVolWeighted",
              "type": "uint256"
            },
            {
              "internalType": "uint256",
              "name": "w",
              "type": "uint256"
            },
            {
              "internalType": "uint256",
              "name": "p",
              "type": "uint256"
            },
            {
              "internalType": "uint256",
              "name": "q",
              "type": "uint256"
            }
          ],
          "internalType": "struct IVolatilityChain.VolParam",
          "name": "_volParams",
          "type": "tuple"
        }
      ],
      "name": "resetVolParams",
      "outputs": [],
      "stateMutability": "nonpayable",
      "type": "function"
    },
    {
      "inputs": [
        {
          "internalType": "uint256",
          "name": "_tenor",
          "type": "uint256"
        }
      ],
      "name": "removeTenor",
      "outputs": [],
      "stateMutability": "nonpayable",
      "type": "function"
    },
    {
      "inputs": [
        {
          "internalType": "uint256",
          "name": "_tenor",
          "type": "uint256"
        }
      ],
      "name": "getPriceBook",
      "outputs": [
        {
          "components": [
            {
              "internalType": "uint256",
              "name": "startTime",
              "type": "uint256"
            },
            {
              "internalType": "uint256",
              "name": "endTime",
              "type": "uint256"
            },
            {
              "internalType": "uint256",
              "name": "open",
              "type": "uint256"
            },
            {
              "internalType": "uint256",
              "name": "highest",
              "type": "uint256"
            },
            {
              "internalType": "uint256",
              "name": "lowest",
              "type": "uint256"
            },
            {
              "internalType": "uint256",
              "name": "volatility",
              "type": "uint256"
            }
          ],
          "internalType": "struct IVolatilityChain.PriceStamp",
          "name": "",
          "type": "tuple"
        }
      ],
      "stateMutability": "view",
      "type": "function"
    }
  ],
  "bytecode": "0x60806040523480156200001157600080fd5b5060405162003a1838038062003a188339818101604052810190620000379190620006e1565b6000620000496200033560201b60201c565b9050806000806101000a81548173ffffffffffffffffffffffffffffffffffffffff021916908373ffffffffffffffffffffffffffffffffffffffff1602179055508073ffffffffffffffffffffffffffffffffffffffff16600073ffffffffffffffffffffffffffffffffffffffff167f8be0079c531659141344cd1fd0a4f28419497f9722a3daafe3b4186f6b6457e060405160405180910390a350620000fc6000801b336200033d60201b60201c565b806040516020016200010f919062000816565b60405160208183030381529060405280519060200120600381905550620001496201518060056200035360201b6200151f1790919060201c565b5082600260006101000a81548173ffffffffffffffffffffffffffffffffffffffff021916908373ffffffffffffffffffffffffffffffffffffffff160217905550600260009054906101000a900473ffffffffffffffffffffffffffffffffffffffff1673ffffffffffffffffffffffffffffffffffffffff16637284e4166040518163ffffffff1660e01b815260040160006040518083038186803b158015620001f457600080fd5b505afa15801562000209573d6000803e3d6000fd5b505050506040513d6000823e3d601f19601f820116820180604052508101906200023491906200075c565b600490805190602001906200024b9291906200056e565b50600260009054906101000a900473ffffffffffffffffffffffffffffffffffffffff1673ffffffffffffffffffffffffffffffffffffffff1663313ce5676040518163ffffffff1660e01b815260040160206040518083038186803b158015620002b557600080fd5b505afa158015620002ca573d6000803e3d6000fd5b505050506040513d601f19601f82011682018060405250810190620002f09190620007ad565b60ff16600981905550600954600a6200030a9190620008ff565b600a8190555081600e8190555081600a620003269190620008ff565b600f8190555050505062000c36565b600033905090565b6200034f82826200037560201b60201c565b5050565b60006200036d836000018360001b6200046660201b60201c565b905092915050565b620003878282620004e060201b60201c565b6200046257600180600084815260200190815260200160002060000160008373ffffffffffffffffffffffffffffffffffffffff1673ffffffffffffffffffffffffffffffffffffffff16815260200190815260200160002060006101000a81548160ff021916908315150217905550620004076200033560201b60201c565b73ffffffffffffffffffffffffffffffffffffffff168173ffffffffffffffffffffffffffffffffffffffff16837f2f8788117e7eff1d82e926ec794901d17c78024a50270940304540a733656f0d60405160405180910390a45b5050565b60006200047a83836200054b60201b60201c565b620004d5578260000182908060018154018082558091505060019003906000526020600020016000909190919091505582600001805490508360010160008481526020019081526020016000208190555060019050620004da565b600090505b92915050565b60006001600084815260200190815260200160002060000160008373ffffffffffffffffffffffffffffffffffffffff1673ffffffffffffffffffffffffffffffffffffffff16815260200190815260200160002060009054906101000a900460ff16905092915050565b600080836001016000848152602001908152602001600020541415905092915050565b8280546200057c9062000abd565b90600052602060002090601f016020900481019282620005a05760008555620005ec565b82601f10620005bb57805160ff1916838001178555620005ec565b82800160010185558215620005ec579182015b82811115620005eb578251825591602001919060010190620005ce565b5b509050620005fb9190620005ff565b5090565b5b808211156200061a57600081600090555060010162000600565b5090565b6000620006356200062f8462000858565b6200082f565b90508281526020810184848401111562000654576200065362000bbb565b5b6200066184828562000a87565b509392505050565b6000815190506200067a8162000be8565b92915050565b600082601f83011262000698576200069762000bb6565b5b8151620006aa8482602086016200061e565b91505092915050565b600081519050620006c48162000c02565b92915050565b600081519050620006db8162000c1c565b92915050565b600080600060608486031215620006fd57620006fc62000bc5565b5b60006200070d8682870162000669565b93505060206200072086828701620006b3565b925050604084015167ffffffffffffffff81111562000744576200074362000bc0565b5b620007528682870162000680565b9150509250925092565b60006020828403121562000775576200077462000bc5565b5b600082015167ffffffffffffffff81111562000796576200079562000bc0565b5b620007a48482850162000680565b91505092915050565b600060208284031215620007c657620007c562000bc5565b5b6000620007d684828501620006ca565b91505092915050565b6000620007ec826200088e565b620007f8818562000899565b93506200080a81856020860162000a87565b80840191505092915050565b6000620008248284620007df565b915081905092915050565b60006200083b6200084e565b905062000849828262000af3565b919050565b6000604051905090565b600067ffffffffffffffff82111562000876576200087562000b87565b5b620008818262000bca565b9050602081019050919050565b600081519050919050565b600081905092915050565b6000808291508390505b6001851115620008f657808604811115620008ce57620008cd62000b29565b5b6001851615620008de5780820291505b8081029050620008ee8562000bdb565b9450620008ae565b94509492505050565b60006200090c8262000a70565b9150620009198362000a70565b9250620009487fffffffffffffffffffffffffffffffffffffffffffffffffffffffffffffffff848462000950565b905092915050565b60008262000962576001905062000a35565b8162000972576000905062000a35565b81600181146200098b57600281146200099657620009cc565b600191505062000a35565b60ff841115620009ab57620009aa62000b29565b5b8360020a915084821115620009c557620009c462000b29565b5b5062000a35565b5060208310610133831016604e8410600b841016171562000a065782820a90508381111562000a0057620009ff62000b29565b5b62000a35565b62000a158484846001620008a4565b9250905081840481111562000a2f5762000a2e62000b29565b5b81810290505b9392505050565b600062000a498262000a50565b9050919050565b600073ffffffffffffffffffffffffffffffffffffffff82169050919050565b6000819050919050565b600060ff82169050919050565b60005b8381101562000aa757808201518184015260208101905062000a8a565b8381111562000ab7576000848401525b50505050565b6000600282049050600182168062000ad657607f821691505b6020821081141562000aed5762000aec62000b58565b5b50919050565b62000afe8262000bca565b810181811067ffffffffffffffff8211171562000b205762000b1f62000b87565b5b80604052505050565b7f4e487b7100000000000000000000000000000000000000000000000000000000600052601160045260246000fd5b7f4e487b7100000000000000000000000000000000000000000000000000000000600052602260045260246000fd5b7f4e487b7100000000000000000000000000000000000000000000000000000000600052604160045260246000fd5b600080fd5b600080fd5b600080fd5b600080fd5b6000601f19601f8301169050919050565b60008160011c9050919050565b62000bf38162000a3c565b811462000bff57600080fd5b50565b62000c0d8162000a70565b811462000c1957600080fd5b50565b62000c278162000a7a565b811462000c3357600080fd5b50565b612dd28062000c466000396000f3fe608060405234801561001057600080fd5b50600436106101725760003560e01c80637284e416116100de578063b0667cf811610097578063dcbc93f811610071578063dcbc93f814610416578063de0a012914610434578063f2fde38b14610469578063fe67ec0c1461048557610172565b8063b0667cf8146103bd578063cca49473146103dc578063d547741f146103fa57610172565b80637284e4161461030d5780638da5cb5b1461032b57806391d1485414610349578063966e176614610379578063a217fddf14610395578063a2e62045146103b357610172565b8063313ce56711610130578063313ce5671461025d57806336568abe1461027b5780633dec20f4146102975780636c23852d146102b5578063714f13ee146102e5578063715018a61461030357610172565b80624978461461017757806301ffc9a714610195578063040b030f146101c5578063248a9ca3146101f5578063285f9457146102255780632f2ff15d14610241575b600080fd5b61017f6104b5565b60405161018c91906124cf565b60405180910390f35b6101af60048036038101906101aa9190612043565b6104d9565b6040516101bc91906124b4565b60405180910390f35b6101df60048036038101906101da9190612070565b610553565b6040516101ec91906125e7565b60405180910390f35b61020f600480360381019061020a9190611fd6565b6105ea565b60405161021c91906124cf565b60405180910390f35b61023f600480360381019061023a9190612070565b61060a565b005b61025b60048036038101906102569190612003565b6106bb565b005b6102656106e4565b60405161027291906125e7565b60405180910390f35b61029560048036038101906102909190612003565b6106ea565b005b61029f61076d565b6040516102ac91906125e7565b60405180910390f35b6102cf60048036038101906102ca9190612070565b610773565b6040516102dc91906125cc565b60405180910390f35b6102ed610853565b6040516102fa91906125e7565b60405180910390f35b61030b610859565b005b610315610993565b60405161032291906124ea565b60405180910390f35b610333610a21565b6040516103409190612499565b60405180910390f35b610363600480360381019061035e9190612003565b610a4a565b60405161037091906124b4565b60405180910390f35b610393600480360381019061038e919061209d565b610ab5565b005b61039d610d60565b6040516103aa91906124cf565b60405180910390f35b6103bb610d67565b005b6103c5611234565b6040516103d3929190612602565b60405180910390f35b6103e46112ed565b6040516103f191906124cf565b60405180910390f35b610414600480360381019061040f9190612003565b6112f3565b005b61041e61131c565b60405161042b91906125e7565b60405180910390f35b61044e60048036038101906104499190612070565b611322565b60405161046096959493929190612663565b60405180910390f35b610483600480360381019061047e9190611fa9565b61135e565b005b61049f600480360381019061049a9190612070565b611507565b6040516104ac91906125e7565b60405180910390f35b7f3ee192ac25847473237ced4bba57f848e1fd794930ff85b4282329058096720581565b60007f7965db0b000000000000000000000000000000000000000000000000000000007bffffffffffffffffffffffffffffffffffffffffffffffffffffffff1916827bffffffffffffffffffffffffffffffffffffffffffffffffffffffff1916148061054c575061054b82611539565b5b9050919050565b60006105698260056115a390919063ffffffff16565b6105a8576040517f08c379a000000000000000000000000000000000000000000000000000000000815260040161059f9061256c565b60405180910390fd5b60076000838152602001908152602001600020600060086000858152602001908152602001600020548152602001908152602001600020600501549050919050565b600060016000838152602001908152602001600020600101549050919050565b6106126115bd565b73ffffffffffffffffffffffffffffffffffffffff16610630610a21565b73ffffffffffffffffffffffffffffffffffffffff1614610686576040517f08c379a000000000000000000000000000000000000000000000000000000000815260040161067d9061258c565b60405180910390fd5b61069a8160056115a390919063ffffffff16565b6106a357600080fd5b6106b78160056115c590919063ffffffff16565b5050565b6106c4826105ea565b6106d5816106d06115bd565b6115df565b6106df838361167c565b505050565b60095481565b6106f26115bd565b73ffffffffffffffffffffffffffffffffffffffff168173ffffffffffffffffffffffffffffffffffffffff161461075f576040517f08c379a0000000000000000000000000000000000000000000000000000000008152600401610756906125ac565b60405180910390fd5b610769828261175c565b5050565b600e5481565b61077b611e40565b61078f8260056115a390919063ffffffff16565b6107ce576040517f08c379a00000000000000000000000000000000000000000000000000000000081526004016107c59061256c565b60405180910390fd5b600760008381526020019081526020016000206000600860008581526020019081526020016000205481526020019081526020016000206040518060c001604052908160008201548152602001600182015481526020016002820154815260200160038201548152602001600482015481526020016005820154815250509050919050565b600b5481565b6108616115bd565b73ffffffffffffffffffffffffffffffffffffffff1661087f610a21565b73ffffffffffffffffffffffffffffffffffffffff16146108d5576040517f08c379a00000000000000000000000000000000000000000000000000000000081526004016108cc9061258c565b60405180910390fd5b600073ffffffffffffffffffffffffffffffffffffffff1660008054906101000a900473ffffffffffffffffffffffffffffffffffffffff1673ffffffffffffffffffffffffffffffffffffffff167f8be0079c531659141344cd1fd0a4f28419497f9722a3daafe3b4186f6b6457e060405160405180910390a360008060006101000a81548173ffffffffffffffffffffffffffffffffffffffff021916908373ffffffffffffffffffffffffffffffffffffffff160217905550565b600480546109a09061292a565b80601f01602080910402602001604051908101604052809291908181526020018280546109cc9061292a565b8015610a195780601f106109ee57610100808354040283529160200191610a19565b820191906000526020600020905b8154815290600101906020018083116109fc57829003601f168201915b505050505081565b60008060009054906101000a900473ffffffffffffffffffffffffffffffffffffffff16905090565b60006001600084815260200190815260200160002060000160008373ffffffffffffffffffffffffffffffffffffffff1673ffffffffffffffffffffffffffffffffffffffff16815260200190815260200160002060009054906101000a900460ff16905092915050565b610abd6115bd565b73ffffffffffffffffffffffffffffffffffffffff16610adb610a21565b73ffffffffffffffffffffffffffffffffffffffff1614610b31576040517f08c379a0000000000000000000000000000000000000000000000000000000008152600401610b289061258c565b60405180910390fd5b610b458260056115a390919063ffffffff16565b610b4e57600080fd5b600f548160a0015182608001518360600151610b6a9190612710565b610b749190612710565b14610b7e57600080fd5b80600d6000848152602001908152602001600020600082015181600001556020820151816001015560408201518160020155606082015181600301556080820151816004015560a08201518160050155905050610c2b600d600084815260200190815260200160002060010154600d600085815260200190815260200160002060010154610c0c9190612797565b600d600085815260200190815260200160002060030154600f5461183e565b600d600084815260200190815260200160002060020181905550600080610c50611234565b915091508060086000868152602001908152602001600020819055508060076000868152602001908152602001600020600083815260200190815260200160002060000181905550600d60008581526020019081526020016000206000015460076000868152602001908152602001600020600083815260200190815260200160002060050181905550816007600086815260200190815260200160002060008381526020019081526020016000206004018190556007600086815260200190815260200160002060008381526020019081526020016000206003018190556007600086815260200190815260200160002060008381526020019081526020016000206002018190555050505050565b6000801b81565b7f3ee192ac25847473237ced4bba57f848e1fd794930ff85b42823290580967205610d9981610d946115bd565b6115df565b600080610da4611234565b9150915060005b610db5600561193a565b81101561120f576000610dd282600561194f90919063ffffffff16565b90506007600082815260200190815260200160002060006008600084815260200190815260200160002054815260200190815260200160002060030154841115610e56578360076000838152602001908152602001600020600060086000858152602001908152602001600020548152602001908152602001600020600301819055505b6007600082815260200190815260200160002060006008600084815260200190815260200160002054815260200190815260200160002060040154841015610ed8578360076000838152602001908152602001600020600060086000858152602001908152602001600020548152602001908152602001600020600401819055505b806008600083815260200190815260200160002054610ef79190612710565b83106111fb576000600760008381526020019081526020016000206000600860008581526020019081526020016000205481526020019081526020016000206040518060c0016040529081600082015481526020016001820154815260200160028201548152602001600382015481526020016004820154815260200160058201548152505090506000610fcd600a54610f9c8460600151600a54866040015161183e565b610fa691906127f1565b610fbb8460800151600a54866040015161183e565b600a54610fc891906127f1565b611969565b9050600061106861100a8460a001518560a00151610feb9190612797565b600d600088815260200190815260200160002060040154600f5461183e565b61103884856110199190612797565b600d600089815260200190815260200160002060050154600f5461183e565b600d6000888152602001908152602001600020600201546110599190612710565b6110639190612710565b611983565b90508560076000868152602001908152602001600020600060086000888152602001908152602001600020548152602001908152602001600020600101819055508560076000868152602001908152602001600020600088815260200190815260200160002060000181905550806007600086815260200190815260200160002060008881526020019081526020016000206005018190555086600760008681526020019081526020016000206000888152602001908152602001600020600401819055600760008681526020019081526020016000206000888152602001908152602001600020600301819055600760008681526020019081526020016000206000888152602001908152602001600020600201819055508560086000868152602001908152602001600020819055507fd7befd690ce46b7ac8307bba392cdf845fd7ee86696bc71d22e9c8f2a83cf34884876007600088815260200190815260200160002060008a81526020019081526020016000206040516111ef9392919061262b565b60405180910390a15050505b508080611207906129a7565b915050610dab565b5080600c81905550600b600081548092919061122a906129a7565b9190505550505050565b600080600080600260009054906101000a900473ffffffffffffffffffffffffffffffffffffffff1673ffffffffffffffffffffffffffffffffffffffff1663feaf968c6040518163ffffffff1660e01b815260040160a06040518083038186803b1580156112a257600080fd5b505afa1580156112b6573d6000803e3d6000fd5b505050506040513d601f19601f820116820180604052508101906112da91906120dd565b5093505092505081819350935050509091565b60035481565b6112fc826105ea565b61130d816113086115bd565b6115df565b611317838361175c565b505050565b600c5481565b600d6020528060005260406000206000915090508060000154908060010154908060020154908060030154908060040154908060050154905086565b6113666115bd565b73ffffffffffffffffffffffffffffffffffffffff16611384610a21565b73ffffffffffffffffffffffffffffffffffffffff16146113da576040517f08c379a00000000000000000000000000000000000000000000000000000000081526004016113d19061258c565b60405180910390fd5b600073ffffffffffffffffffffffffffffffffffffffff168173ffffffffffffffffffffffffffffffffffffffff16141561144a576040517f08c379a00000000000000000000000000000000000000000000000000000000081526004016114419061254c565b60405180910390fd5b8073ffffffffffffffffffffffffffffffffffffffff1660008054906101000a900473ffffffffffffffffffffffffffffffffffffffff1673ffffffffffffffffffffffffffffffffffffffff167f8be0079c531659141344cd1fd0a4f28419497f9722a3daafe3b4186f6b6457e060405160405180910390a3806000806101000a81548173ffffffffffffffffffffffffffffffffffffffff021916908373ffffffffffffffffffffffffffffffffffffffff16021790555050565b60086020528060005260406000206000915090505481565b6000611531836000018360001b6119e0565b905092915050565b60007f01ffc9a7000000000000000000000000000000000000000000000000000000007bffffffffffffffffffffffffffffffffffffffffffffffffffffffff1916827bffffffffffffffffffffffffffffffffffffffffffffffffffffffff1916149050919050565b60006115b5836000018360001b611a50565b905092915050565b600033905090565b60006115d7836000018360001b611a73565b905092915050565b6115e98282610a4a565b6116785761160e8173ffffffffffffffffffffffffffffffffffffffff166014611b7f565b61161c8360001c6020611b7f565b60405160200161162d92919061245f565b6040516020818303038152906040526040517f08c379a000000000000000000000000000000000000000000000000000000000815260040161166f91906124ea565b60405180910390fd5b5050565b6116868282610a4a565b61175857600180600084815260200190815260200160002060000160008373ffffffffffffffffffffffffffffffffffffffff1673ffffffffffffffffffffffffffffffffffffffff16815260200190815260200160002060006101000a81548160ff0219169083151502179055506116fd6115bd565b73ffffffffffffffffffffffffffffffffffffffff168173ffffffffffffffffffffffffffffffffffffffff16837f2f8788117e7eff1d82e926ec794901d17c78024a50270940304540a733656f0d60405160405180910390a45b5050565b6117668282610a4a565b1561183a5760006001600084815260200190815260200160002060000160008373ffffffffffffffffffffffffffffffffffffffff1673ffffffffffffffffffffffffffffffffffffffff16815260200190815260200160002060006101000a81548160ff0219169083151502179055506117df6115bd565b73ffffffffffffffffffffffffffffffffffffffff168173ffffffffffffffffffffffffffffffffffffffff16837ff6391f5c32d9c69d2a47ea670b442974b53935d1edc7fd64eb21e047a839171b60405160405180910390a45b5050565b600080600080198587098587029250828110838203039150506000811415611879576000841161186d57600080fd5b83820492505050611933565b80841161188557600080fd5b60008486880990508281118203915080830392506000856001877fffffffffffffffffffffffffffffffffffffffffffffffffffffffffffffffff0301169050808604955080840493506001818260000304019050808302841793506000600287600302189050808702600203810290508087026002038102905080870260020381029050808702600203810290508087026002038102905080870260020381029050808502955050505050505b9392505050565b600061194882600001611dbb565b9050919050565b600061195e8360000183611dcc565b60001c905092915050565b600081831015611979578161197b565b825b905092915050565b60008060026001846119959190612710565b61199f9190612766565b90508291505b818110156119da5780915060028182856119bf9190612766565b6119c99190612710565b6119d39190612766565b90506119a5565b50919050565b60006119ec8383611a50565b611a45578260000182908060018154018082558091505060019003906000526020600020016000909190919091505582600001805490508360010160008481526020019081526020016000208190555060019050611a4a565b600090505b92915050565b600080836001016000848152602001908152602001600020541415905092915050565b60008083600101600084815260200190815260200160002054905060008114611b73576000600182611aa591906127f1565b9050600060018660000180549050611abd91906127f1565b90506000866000018281548110611ad757611ad6612aac565b5b9060005260206000200154905080876000018481548110611afb57611afa612aac565b5b9060005260206000200181905550838760010160008381526020019081526020016000208190555086600001805480611b3757611b36612a7d565b5b60019003818190600052602060002001600090559055866001016000878152602001908152602001600020600090556001945050505050611b79565b60009150505b92915050565b606060006002836002611b929190612797565b611b9c9190612710565b67ffffffffffffffff811115611bb557611bb4612adb565b5b6040519080825280601f01601f191660200182016040528015611be75781602001600182028036833780820191505090505b5090507f300000000000000000000000000000000000000000000000000000000000000081600081518110611c1f57611c1e612aac565b5b60200101907effffffffffffffffffffffffffffffffffffffffffffffffffffffffffffff1916908160001a9053507f780000000000000000000000000000000000000000000000000000000000000081600181518110611c8357611c82612aac565b5b60200101907effffffffffffffffffffffffffffffffffffffffffffffffffffffffffffff1916908160001a90535060006001846002611cc39190612797565b611ccd9190612710565b90505b6001811115611d6d577f3031323334353637383961626364656600000000000000000000000000000000600f861660108110611d0f57611d0e612aac565b5b1a60f81b828281518110611d2657611d25612aac565b5b60200101907effffffffffffffffffffffffffffffffffffffffffffffffffffffffffffff1916908160001a905350600485901c945080611d6690612900565b9050611cd0565b5060008414611db1576040517f08c379a0000000000000000000000000000000000000000000000000000000008152600401611da89061252c565b60405180910390fd5b8091505092915050565b600081600001805490509050919050565b600081836000018054905011611e17576040517f08c379a0000000000000000000000000000000000000000000000000000000008152600401611e0e9061250c565b60405180910390fd5b826000018281548110611e2d57611e2c612aac565b5b9060005260206000200154905092915050565b6040518060c001604052806000815260200160008152602001600081526020016000815260200160008152602001600081525090565b600081359050611e8581612d12565b92915050565b600081359050611e9a81612d29565b92915050565b600081359050611eaf81612d40565b92915050565b600081519050611ec481612d57565b92915050565b600060c08284031215611ee057611edf612b0a565b5b611eea60c06126c4565b90506000611efa84828501611f6a565b6000830152506020611f0e84828501611f6a565b6020830152506040611f2284828501611f6a565b6040830152506060611f3684828501611f6a565b6060830152506080611f4a84828501611f6a565b60808301525060a0611f5e84828501611f6a565b60a08301525092915050565b600081359050611f7981612d6e565b92915050565b600081519050611f8e81612d6e565b92915050565b600081519050611fa381612d85565b92915050565b600060208284031215611fbf57611fbe612b0f565b5b6000611fcd84828501611e76565b91505092915050565b600060208284031215611fec57611feb612b0f565b5b6000611ffa84828501611e8b565b91505092915050565b6000806040838503121561201a57612019612b0f565b5b600061202885828601611e8b565b925050602061203985828601611e76565b9150509250929050565b60006020828403121561205957612058612b0f565b5b600061206784828501611ea0565b91505092915050565b60006020828403121561208657612085612b0f565b5b600061209484828501611f6a565b91505092915050565b60008060e083850312156120b4576120b3612b0f565b5b60006120c285828601611f6a565b92505060206120d385828601611eca565b9150509250929050565b600080600080600060a086880312156120f9576120f8612b0f565b5b600061210788828901611f94565b955050602061211888828901611eb5565b945050604061212988828901611f7f565b935050606061213a88828901611f7f565b925050608061214b88828901611f94565b9150509295509295909350565b6121618161282f565b82525050565b61217081612841565b82525050565b61217f8161284d565b82525050565b6000612190826126e9565b61219a81856126f4565b93506121aa8185602086016128cd565b6121b381612b14565b840191505092915050565b60006121c9826126e9565b6121d38185612705565b93506121e38185602086016128cd565b80840191505092915050565b60006121fc6022836126f4565b915061220782612b32565b604082019050919050565b600061221f6020836126f4565b915061222a82612b81565b602082019050919050565b60006122426026836126f4565b915061224d82612baa565b604082019050919050565b60006122656022836126f4565b915061227082612bf9565b604082019050919050565b60006122886020836126f4565b915061229382612c48565b602082019050919050565b60006122ab601783612705565b91506122b682612c71565b601782019050919050565b60006122ce601183612705565b91506122d982612c9a565b601182019050919050565b60006122f1602f836126f4565b91506122fc82612cc3565b604082019050919050565b60c08201600082015161231d6000850182612441565b5060208201516123306020850182612441565b5060408201516123436040850182612441565b5060608201516123566060850182612441565b5060808201516123696080850182612441565b5060a082015161237c60a0850182612441565b50505050565b60c0820160008083015490506123978161295c565b6123a46000860182612441565b50600183015490506123b58161295c565b6123c26020860182612441565b50600283015490506123d38161295c565b6123e06040860182612441565b50600383015490506123f18161295c565b6123fe6060860182612441565b506004830154905061240f8161295c565b61241c6080860182612441565b506005830154905061242d8161295c565b61243a60a0860182612441565b5050505050565b61244a816128ad565b82525050565b612459816128ad565b82525050565b600061246a8261229e565b915061247682856121be565b9150612481826122c1565b915061248d82846121be565b91508190509392505050565b60006020820190506124ae6000830184612158565b92915050565b60006020820190506124c96000830184612167565b92915050565b60006020820190506124e46000830184612176565b92915050565b600060208201905081810360008301526125048184612185565b905092915050565b60006020820190508181036000830152612525816121ef565b9050919050565b6000602082019050818103600083015261254581612212565b9050919050565b6000602082019050818103600083015261256581612235565b9050919050565b6000602082019050818103600083015261258581612258565b9050919050565b600060208201905081810360008301526125a58161227b565b9050919050565b600060208201905081810360008301526125c5816122e4565b9050919050565b600060c0820190506125e16000830184612307565b92915050565b60006020820190506125fc6000830184612450565b92915050565b60006040820190506126176000830185612450565b6126246020830184612450565b9392505050565b6000610100820190506126416000830186612450565b61264e6020830185612450565b61265b6040830184612382565b949350505050565b600060c0820190506126786000830189612450565b6126856020830188612450565b6126926040830187612450565b61269f6060830186612450565b6126ac6080830185612450565b6126b960a0830184612450565b979650505050505050565b60006126ce6126df565b90506126da8282612976565b919050565b6000604051905090565b600081519050919050565b600082825260208201905092915050565b600081905092915050565b600061271b826128ad565b9150612726836128ad565b9250827fffffffffffffffffffffffffffffffffffffffffffffffffffffffffffffffff0382111561275b5761275a6129f0565b5b828201905092915050565b6000612771826128ad565b915061277c836128ad565b92508261278c5761278b612a1f565b5b828204905092915050565b60006127a2826128ad565b91506127ad836128ad565b9250817fffffffffffffffffffffffffffffffffffffffffffffffffffffffffffffffff04831182151516156127e6576127e56129f0565b5b828202905092915050565b60006127fc826128ad565b9150612807836128ad565b92508282101561281a576128196129f0565b5b828203905092915050565b6000819050919050565b600061283a8261288d565b9050919050565b60008115159050919050565b6000819050919050565b60007fffffffff0000000000000000000000000000000000000000000000000000000082169050919050565b6000819050919050565b600073ffffffffffffffffffffffffffffffffffffffff82169050919050565b6000819050919050565b600069ffffffffffffffffffff82169050919050565b60005b838110156128eb5780820151818401526020810190506128d0565b838111156128fa576000848401525b50505050565b600061290b826128ad565b9150600082141561291f5761291e6129f0565b5b600182039050919050565b6000600282049050600182168061294257607f821691505b6020821081141561295657612955612a4e565b5b50919050565b600061296f61296a83612b25565b612825565b9050919050565b61297f82612b14565b810181811067ffffffffffffffff8211171561299e5761299d612adb565b5b80604052505050565b60006129b2826128ad565b91507fffffffffffffffffffffffffffffffffffffffffffffffffffffffffffffffff8214156129e5576129e46129f0565b5b600182019050919050565b7f4e487b7100000000000000000000000000000000000000000000000000000000600052601160045260246000fd5b7f4e487b7100000000000000000000000000000000000000000000000000000000600052601260045260246000fd5b7f4e487b7100000000000000000000000000000000000000000000000000000000600052602260045260246000fd5b7f4e487b7100000000000000000000000000000000000000000000000000000000600052603160045260246000fd5b7f4e487b7100000000000000000000000000000000000000000000000000000000600052603260045260246000fd5b7f4e487b7100000000000000000000000000000000000000000000000000000000600052604160045260246000fd5b600080fd5b600080fd5b6000601f19601f8301169050919050565b60008160001c9050919050565b7f456e756d657261626c655365743a20696e646578206f7574206f6620626f756e60008201527f6473000000000000000000000000000000000000000000000000000000000000602082015250565b7f537472696e67733a20686578206c656e67746820696e73756666696369656e74600082015250565b7f4f776e61626c653a206e6577206f776e657220697320746865207a65726f206160008201527f6464726573730000000000000000000000000000000000000000000000000000602082015250565b7f496e707574206f7074696f6e2074656e6f72206973206e6f7420616c6c6f776560008201527f642e000000000000000000000000000000000000000000000000000000000000602082015250565b7f4f776e61626c653a2063616c6c6572206973206e6f7420746865206f776e6572600082015250565b7f416363657373436f6e74726f6c3a206163636f756e7420000000000000000000600082015250565b7f206973206d697373696e6720726f6c6520000000000000000000000000000000600082015250565b7f416363657373436f6e74726f6c3a2063616e206f6e6c792072656e6f756e636560008201527f20726f6c657320666f722073656c660000000000000000000000000000000000602082015250565b612d1b8161282f565b8114612d2657600080fd5b50565b612d328161284d565b8114612d3d57600080fd5b50565b612d4981612857565b8114612d5457600080fd5b50565b612d6081612883565b8114612d6b57600080fd5b50565b612d77816128ad565b8114612d8257600080fd5b50565b612d8e816128b7565b8114612d9957600080fd5b5056fea2646970667358221220a597a3f6119b388f216090e501e5084bdedb687662184765251e878d81cd5d6064736f6c63430008060033",
  "immutableReferences": {},
  "source": "pragma solidity ^0.8.4;\n\n/**\n * SPDX-License-Identifier: GPL-3.0-or-later\n * Moret\n * Copyright (C) 2021 Moret\n */\nimport \"@openzeppelin/contracts/access/Ownable.sol\";\nimport \"@openzeppelin/contracts/utils/math/Math.sol\";\nimport \"@openzeppelin/contracts/access/AccessControl.sol\";\nimport \"@openzeppelin/contracts/utils/structs/EnumerableSet.sol\";\n\nimport \"./FullMath.sol\";\nimport \"./MoretInterfaces.sol\";\nimport \"@chainlink/contracts/src/v0.8/interfaces/AggregatorV3Interface.sol\";\n// import \"https://github.com/smartcontractkit/chainlink/blob/master/evm-contracts/src/v0.8/interfaces/AggregatorV3Interface.sol\";\n\n contract VolatilityChain is Ownable, AccessControl, IVolatilityChain\n {\n       using EnumerableSet for EnumerableSet.UintSet;\n\n     bytes32 public constant UPDATE_ROLE = keccak256(\"UPDATE_ROLE\");\n\n   AggregatorV3Interface internal priceInterface;\n   bytes32 public tokenHash;\n   string public description;\n\n  EnumerableSet.UintSet tenors;\n\n\n   mapping(uint256=>mapping(uint256=>PriceStamp)) private priceBook;\n   mapping(uint256=>uint256) public latestBookTime;\n   uint256 public decimals;\n   uint256 internal priceMultiplier;\n\n    uint256 public volatilityUpdateCounter;\n    uint256 public volatilityUpdateTime;\n    mapping(uint256=> VolParam) public volatilityParameters;\n   uint256 public volParamDecimals;\n   uint256 internal parameterMultiplier;\n\n   constructor(\n     address _priceSourceId,\n     uint256 _parameterDecimals,\n      string memory _tokenName\n     )  {\n\n         _setupRole(DEFAULT_ADMIN_ROLE, msg.sender);\n\n         tokenHash = keccak256(abi.encodePacked(_tokenName));\n\n\n      tenors.add(1 days);\n\n      priceInterface = AggregatorV3Interface(_priceSourceId);\n      description = priceInterface.description();\n      decimals = priceInterface.decimals();\n      priceMultiplier = 10 ** decimals;\n\n      volParamDecimals = _parameterDecimals;\n      parameterMultiplier = 10 ** _parameterDecimals;\n\n   }\n\n   function getVol(uint256 _tenor) external override view returns(uint256)\n   {\n       require(tenors.contains(_tenor), \"Input option tenor is not allowed.\");\n       return priceBook[_tenor][latestBookTime[_tenor]].volatility;\n    }\n\n  function queryPrice() public view returns(uint256, uint256){\n      (,int _price,,uint _timeStamp,) = priceInterface.latestRoundData();\n      return (uint256(_price), uint256(_timeStamp));\n  }\n\n   function update() external onlyRole(UPDATE_ROLE){\n     (uint _updatePrice, uint _timeStamp) = queryPrice();\n\n     for(uint i = 0;i< tenors.length();i++)\n     {\n       uint256 _tenor = tenors.at(i);\n\n       if(_updatePrice > priceBook[_tenor][latestBookTime[_tenor]].highest)\n       {\n         priceBook[_tenor][latestBookTime[_tenor]].highest=_updatePrice;\n       }\n       if(_updatePrice<priceBook[_tenor][latestBookTime[_tenor]].lowest)\n       {\n         priceBook[_tenor][latestBookTime[_tenor]].lowest=_updatePrice;\n       }\n\n       if(_timeStamp>= (latestBookTime[_tenor] + _tenor))\n       {\n         PriceStamp memory _currentStamp = priceBook[_tenor][latestBookTime[_tenor]];\n         uint256 _latestMove = Math.max(MulDiv(_currentStamp.highest, priceMultiplier, _currentStamp.open) - priceMultiplier , priceMultiplier - MulDiv(_currentStamp.lowest, priceMultiplier, _currentStamp.open ));\n         uint256 _latestVolatility = Sqrt(volatilityParameters[_tenor].ltVolWeighted + MulDiv(_latestMove * _latestMove, volatilityParameters[_tenor].q, parameterMultiplier) + MulDiv(_currentStamp.volatility * _currentStamp.volatility, volatilityParameters[_tenor].p, parameterMultiplier));\n\n         priceBook[_tenor][latestBookTime[_tenor]].endTime = _timeStamp;\n\n         priceBook[_tenor][_timeStamp].startTime = _timeStamp;\n         priceBook[_tenor][_timeStamp].volatility = _latestVolatility;\n         priceBook[_tenor][_timeStamp].open = priceBook[_tenor][_timeStamp].highest = priceBook[_tenor][_timeStamp].lowest = _updatePrice;\n\n         latestBookTime[_tenor] = _timeStamp;\n         emit volatilityChainBlockAdded(_tenor, _timeStamp, priceBook[_tenor][_timeStamp]);\n       }\n\n     }\n\n     volatilityUpdateTime = _timeStamp;\n     volatilityUpdateCounter ++;\n\n   }\n\n   function resetVolParams(uint256 _tenor, VolParam memory _volParams) external onlyOwner{\n       require(tenors.contains(_tenor));\n       require((_volParams.w + _volParams.p + _volParams.q)==parameterMultiplier);\n       volatilityParameters[_tenor] = _volParams;\n       volatilityParameters[_tenor].ltVolWeighted = MulDiv(volatilityParameters[_tenor].ltVol*volatilityParameters[_tenor].ltVol, volatilityParameters[_tenor].w, parameterMultiplier);\n\n        (uint _updatePrice, uint _timeStamp) = queryPrice();\n        latestBookTime[_tenor] = _timeStamp;\n       priceBook[_tenor][_timeStamp].startTime = _timeStamp;\n       priceBook[_tenor][_timeStamp].volatility = volatilityParameters[_tenor].initialVol;\n       priceBook[_tenor][_timeStamp].open = priceBook[_tenor][_timeStamp].highest = priceBook[_tenor][_timeStamp].lowest = _updatePrice;\n\n   }\n\n   function removeTenor(uint256 _tenor) external onlyOwner{\n     require(tenors.contains(_tenor));\n     tenors.remove(_tenor);\n   }\n\n   function getPriceBook(uint256 _tenor) external view returns(PriceStamp memory){\n        require(tenors.contains(_tenor), \"Input option tenor is not allowed.\");\n       return priceBook[_tenor][latestBookTime[_tenor]];\n   }\n\n }\n",
  "sourcePath": "/Users/mac/Documents/GitHub/moret/contracts/VolatilityChain.sol",
  "compiler": {
    "name": "solc",
    "version": "0.8.6+commit.11564f7e.Emscripten.clang"
  },
  "schemaVersion": "3.4.1",
  "updatedAt": "2021-07-02T23:42:32.202Z",
  "devdoc": {
    "kind": "dev",
    "methods": {
      "getRoleAdmin(bytes32)": {
        "details": "Returns the admin role that controls `role`. See {grantRole} and {revokeRole}. To change a role's admin, use {_setRoleAdmin}."
      },
      "grantRole(bytes32,address)": {
        "details": "Grants `role` to `account`. If `account` had not been already granted `role`, emits a {RoleGranted} event. Requirements: - the caller must have ``role``'s admin role."
      },
      "hasRole(bytes32,address)": {
        "details": "Returns `true` if `account` has been granted `role`."
      },
      "owner()": {
        "details": "Returns the address of the current owner."
      },
      "renounceOwnership()": {
        "details": "Leaves the contract without owner. It will not be possible to call `onlyOwner` functions anymore. Can only be called by the current owner. NOTE: Renouncing ownership will leave the contract without an owner, thereby removing any functionality that is only available to the owner."
      },
      "renounceRole(bytes32,address)": {
        "details": "Revokes `role` from the calling account. Roles are often managed via {grantRole} and {revokeRole}: this function's purpose is to provide a mechanism for accounts to lose their privileges if they are compromised (such as when a trusted device is misplaced). If the calling account had been granted `role`, emits a {RoleRevoked} event. Requirements: - the caller must be `account`."
      },
      "revokeRole(bytes32,address)": {
        "details": "Revokes `role` from `account`. If `account` had been granted `role`, emits a {RoleRevoked} event. Requirements: - the caller must have ``role``'s admin role."
      },
      "supportsInterface(bytes4)": {
        "details": "See {IERC165-supportsInterface}."
      },
      "transferOwnership(address)": {
        "details": "Transfers ownership of the contract to a new account (`newOwner`). Can only be called by the current owner."
      }
    },
    "version": 1
  },
  "userdoc": {
    "kind": "user",
    "methods": {},
    "version": 1
  }
}