{
  "contractName": "Exchange",
  "abi": [
    {
      "inputs": [
        {
          "internalType": "contract OptionVault",
          "name": "_optionVault",
          "type": "address"
        }
      ],
      "stateMutability": "nonpayable",
      "type": "constructor"
    },
    {
      "anonymous": false,
      "inputs": [
        {
          "indexed": true,
          "internalType": "address",
          "name": "_bot",
          "type": "address"
        },
        {
          "indexed": true,
          "internalType": "address",
          "name": "_exchange",
          "type": "address"
        },
        {
          "indexed": false,
          "internalType": "address",
          "name": "_holder",
          "type": "address"
        },
        {
          "indexed": false,
          "internalType": "uint256",
          "name": "_id",
          "type": "uint256"
        },
        {
          "indexed": false,
          "internalType": "uint256",
          "name": "_payoff",
          "type": "uint256"
        }
      ],
      "name": "Expire",
      "type": "event"
    },
    {
      "anonymous": false,
      "inputs": [
        {
          "indexed": true,
          "internalType": "address",
          "name": "_hedger",
          "type": "address"
        },
        {
          "indexed": true,
          "internalType": "address",
          "name": "_market",
          "type": "address"
        },
        {
          "indexed": false,
          "internalType": "bool",
          "name": "success",
          "type": "bool"
        },
        {
          "indexed": false,
          "internalType": "bytes",
          "name": "data",
          "type": "bytes"
        }
      ],
      "name": "HedgeResponse",
      "type": "event"
    },
    {
      "anonymous": false,
      "inputs": [
        {
          "indexed": true,
          "internalType": "address",
          "name": "_hedger",
          "type": "address"
        },
        {
          "indexed": true,
          "internalType": "address",
          "name": "_market",
          "type": "address"
        },
        {
          "indexed": false,
          "internalType": "uint256[]",
          "name": "amounts",
          "type": "uint256[]"
        }
      ],
      "name": "HedgeSwapResponse",
      "type": "event"
    },
    {
      "anonymous": false,
      "inputs": [
        {
          "indexed": true,
          "internalType": "address",
          "name": "_purchaser",
          "type": "address"
        },
        {
          "indexed": true,
          "internalType": "address",
          "name": "_underlying",
          "type": "address"
        },
        {
          "indexed": false,
          "internalType": "uint256",
          "name": "_optionId",
          "type": "uint256"
        }
      ],
      "name": "NewOption",
      "type": "event"
    },
    {
      "anonymous": false,
      "inputs": [
        {
          "indexed": true,
          "internalType": "address",
          "name": "previousOwner",
          "type": "address"
        },
        {
          "indexed": true,
          "internalType": "address",
          "name": "newOwner",
          "type": "address"
        }
      ],
      "name": "OwnershipTransferred",
      "type": "event"
    },
    {
      "anonymous": false,
      "inputs": [
        {
          "indexed": false,
          "internalType": "address",
          "name": "account",
          "type": "address"
        }
      ],
      "name": "Paused",
      "type": "event"
    },
    {
      "anonymous": false,
      "inputs": [
        {
          "indexed": false,
          "internalType": "address",
          "name": "_newBot",
          "type": "address"
        }
      ],
      "name": "ResetBotAddress",
      "type": "event"
    },
    {
      "anonymous": false,
      "inputs": [
        {
          "indexed": true,
          "internalType": "uint256",
          "name": "_parameterId",
          "type": "uint256"
        },
        {
          "indexed": false,
          "internalType": "uint256",
          "name": "_parameter",
          "type": "uint256"
        }
      ],
      "name": "ResetParameter",
      "type": "event"
    },
    {
      "anonymous": false,
      "inputs": [
        {
          "indexed": true,
          "internalType": "address",
          "name": "_exchange",
          "type": "address"
        },
        {
          "indexed": false,
          "internalType": "bool",
          "name": "_tradingAllowed",
          "type": "bool"
        }
      ],
      "name": "ResetTradingStatus",
      "type": "event"
    },
    {
      "anonymous": false,
      "inputs": [
        {
          "indexed": true,
          "internalType": "address",
          "name": "_purchaser",
          "type": "address"
        },
        {
          "indexed": true,
          "internalType": "address",
          "name": "_exchange",
          "type": "address"
        },
        {
          "indexed": false,
          "internalType": "uint256",
          "name": "_cost",
          "type": "uint256"
        },
        {
          "indexed": false,
          "internalType": "uint256",
          "name": "_volAmount",
          "type": "uint256"
        },
        {
          "indexed": false,
          "internalType": "bool",
          "name": "_isPurchase",
          "type": "bool"
        }
      ],
      "name": "TradeVolatility",
      "type": "event"
    },
    {
      "anonymous": false,
      "inputs": [
        {
          "indexed": false,
          "internalType": "address",
          "name": "account",
          "type": "address"
        }
      ],
      "name": "Unpaused",
      "type": "event"
    },
    {
      "inputs": [],
      "name": "owner",
      "outputs": [
        {
          "internalType": "address",
          "name": "",
          "type": "address"
        }
      ],
      "stateMutability": "view",
      "type": "function"
    },
    {
      "inputs": [],
      "name": "paused",
      "outputs": [
        {
          "internalType": "bool",
          "name": "",
          "type": "bool"
        }
      ],
      "stateMutability": "view",
      "type": "function"
    },
    {
      "inputs": [],
      "name": "renounceOwnership",
      "outputs": [],
      "stateMutability": "nonpayable",
      "type": "function"
    },
    {
      "inputs": [
        {
          "internalType": "address",
          "name": "newOwner",
          "type": "address"
        }
      ],
      "name": "transferOwnership",
      "outputs": [],
      "stateMutability": "nonpayable",
      "type": "function"
    },
    {
      "inputs": [],
      "name": "vault",
      "outputs": [
        {
          "internalType": "contract OptionVault",
          "name": "",
          "type": "address"
        }
      ],
      "stateMutability": "view",
      "type": "function"
    },
    {
      "inputs": [
        {
          "internalType": "contract Pool",
          "name": "_pool",
          "type": "address"
        },
        {
          "internalType": "uint256",
          "name": "_tenor",
          "type": "uint256"
        },
        {
          "internalType": "uint256",
          "name": "_strike",
          "type": "uint256"
        },
        {
          "internalType": "uint256",
          "name": "_amount",
          "type": "uint256"
        },
        {
          "internalType": "enum OptionLib.PayoffType",
          "name": "_poType",
          "type": "uint8"
        },
        {
          "internalType": "enum OptionLib.OptionSide",
          "name": "_side",
          "type": "uint8"
        },
        {
          "internalType": "bool",
          "name": "_forceATM",
          "type": "bool"
        }
      ],
      "name": "queryOption",
      "outputs": [
        {
          "internalType": "uint256",
          "name": "_premium",
          "type": "uint256"
        },
        {
          "internalType": "uint256",
          "name": "_collateral",
          "type": "uint256"
        },
        {
          "internalType": "uint256",
          "name": "_price",
          "type": "uint256"
        },
        {
          "internalType": "uint256",
          "name": "_volatility",
          "type": "uint256"
        }
      ],
      "stateMutability": "view",
      "type": "function"
    },
    {
      "inputs": [
        {
          "internalType": "contract Pool",
          "name": "_pool",
          "type": "address"
        },
        {
          "internalType": "uint256",
          "name": "_tenor",
          "type": "uint256"
        },
        {
          "internalType": "uint256",
          "name": "_strike",
          "type": "uint256"
        },
        {
          "internalType": "uint256",
          "name": "_amount",
          "type": "uint256"
        },
        {
          "internalType": "enum OptionLib.PayoffType",
          "name": "_poType",
          "type": "uint8"
        },
        {
          "internalType": "enum OptionLib.OptionSide",
          "name": "_side",
          "type": "uint8"
        },
        {
          "internalType": "enum OptionLib.PaymentMethod",
          "name": "_payment",
          "type": "uint8"
        }
      ],
      "name": "tradeOption",
      "outputs": [],
      "stateMutability": "nonpayable",
      "type": "function"
    },
    {
      "inputs": [
        {
          "internalType": "contract Pool",
          "name": "_pool",
          "type": "address"
        },
        {
          "internalType": "uint256",
          "name": "_tenor",
          "type": "uint256"
        },
        {
          "internalType": "uint256",
          "name": "_amount",
          "type": "uint256"
        },
        {
          "internalType": "enum OptionLib.OptionSide",
          "name": "_side",
          "type": "uint8"
        }
      ],
      "name": "tradeVolToken",
      "outputs": [],
      "stateMutability": "nonpayable",
      "type": "function"
    },
    {
      "inputs": [
        {
          "internalType": "contract Pool",
          "name": "_pool",
          "type": "address"
        },
        {
          "internalType": "uint256",
          "name": "_tenor",
          "type": "uint256"
        }
      ],
      "name": "getVolatilityToken",
      "outputs": [
        {
          "internalType": "contract VolatilityToken",
          "name": "",
          "type": "address"
        }
      ],
      "stateMutability": "view",
      "type": "function"
    },
    {
      "inputs": [
        {
          "internalType": "contract Pool",
          "name": "_pool",
          "type": "address"
        }
      ],
      "name": "getVolatilityChain",
      "outputs": [
        {
          "internalType": "contract VolatilityChain",
          "name": "",
          "type": "address"
        }
      ],
      "stateMutability": "view",
      "type": "function"
    },
    {
      "inputs": [
        {
          "internalType": "uint256",
          "name": "_expiringId",
          "type": "uint256"
        },
        {
          "internalType": "address",
          "name": "_exerciseFeeRecipient",
          "type": "address"
        }
      ],
      "name": "expireOption",
      "outputs": [],
      "stateMutability": "nonpayable",
      "type": "function"
    },
    {
      "inputs": [
        {
          "internalType": "contract Pool",
          "name": "_pool",
          "type": "address"
        },
        {
          "internalType": "uint256",
          "name": "_depositAmount",
          "type": "uint256"
        }
      ],
      "name": "addCapital",
      "outputs": [],
      "stateMutability": "nonpayable",
      "type": "function"
    },
    {
      "inputs": [
        {
          "internalType": "contract Pool",
          "name": "_pool",
          "type": "address"
        },
        {
          "internalType": "uint256",
          "name": "_burnPoolAmount",
          "type": "uint256"
        }
      ],
      "name": "withdrawCapital",
      "outputs": [],
      "stateMutability": "nonpayable",
      "type": "function"
    },
    {
      "inputs": [],
      "name": "pause",
      "outputs": [],
      "stateMutability": "nonpayable",
      "type": "function"
    },
    {
      "inputs": [],
      "name": "unpause",
      "outputs": [],
      "stateMutability": "nonpayable",
      "type": "function"
    }
  ],
  "bytecode": "0x60a06040523480156200001157600080fd5b5060405162005a2938038062005a298339818101604052810190620000379190620001f6565b620000576200004b620000ac60201b60201c565b620000b460201b60201c565b60008060146101000a81548160ff0219169083151502179055508073ffffffffffffffffffffffffffffffffffffffff1660808173ffffffffffffffffffffffffffffffffffffffff16815250505062000228565b600033905090565b60008060009054906101000a900473ffffffffffffffffffffffffffffffffffffffff169050816000806101000a81548173ffffffffffffffffffffffffffffffffffffffff021916908373ffffffffffffffffffffffffffffffffffffffff1602179055508173ffffffffffffffffffffffffffffffffffffffff168173ffffffffffffffffffffffffffffffffffffffff167f8be0079c531659141344cd1fd0a4f28419497f9722a3daafe3b4186f6b6457e060405160405180910390a35050565b600080fd5b600073ffffffffffffffffffffffffffffffffffffffff82169050919050565b6000620001aa826200017d565b9050919050565b6000620001be826200019d565b9050919050565b620001d081620001b1565b8114620001dc57600080fd5b50565b600081519050620001f081620001c5565b92915050565b6000602082840312156200020f576200020e62000178565b5b60006200021f84828501620001df565b91505092915050565b60805161579f6200028a6000396000818161054d0152818161066c01528181610712015281816108f5015281816109c301528181610a5101528181611bb60152818161221f01528181612738015281816128350152612d83015261579f6000f3fe608060405234801561001057600080fd5b50600436106100f55760003560e01c8063826fdbbd11610097578063b1ff617111610066578063b1ff617114610224578063e98254bb14610257578063f2fde38b14610273578063fbfa77cf1461028f576100f5565b8063826fdbbd146101c45780638456cb59146101e05780638da5cb5b146101ea5780639111fccd14610208576100f5565b806354f6e8c8116100d357806354f6e8c8146101505780635c975abb1461016c5780636cce89161461018a578063715018a6146101ba576100f5565b806315dc2e9d146100fa5780633f4ba83a1461012a578063508cd68d14610134575b600080fd5b610114600480360381019061010f91906143f3565b6102ad565b604051610121919061447f565b60405180910390f35b610132610398565b005b61014e6004803603810190610149919061453f565b61041e565b005b61016a6004803603810190610165919061460d565b6108ed565b005b610174611437565b6040516101819190614668565b60405180910390f35b6101a4600480360381019061019f9190614683565b61144d565b6040516101b191906146e4565b60405180910390f35b6101c2611622565b005b6101de60048036038101906101d991906146ff565b6116aa565b005b6101e8612124565b005b6101f26121aa565b6040516101ff9190614775565b60405180910390f35b610222600480360381019061021d9190614683565b6121d3565b005b61023e600480360381019061023991906147bc565b612651565b60405161024e949392919061486d565b60405180910390f35b610271600480360381019061026c9190614683565b6127e9565b005b61028d600480360381019061028891906148b2565b612c8a565b005b610297612d81565b6040516102a49190614900565b60405180910390f35b6000808273ffffffffffffffffffffffffffffffffffffffff16631f21f9af6040518163ffffffff1660e01b8152600401602060405180830381865afa1580156102fb573d6000803e3d6000fd5b505050506040513d601f19601f8201168201806040525081019061031f9190614959565b90508073ffffffffffffffffffffffffffffffffffffffff1663c0a16f6a6040518163ffffffff1660e01b8152600401602060405180830381865afa15801561036c573d6000803e3d6000fd5b505050506040513d601f19601f8201168201806040525081019061039091906149c4565b915050919050565b6103a0612da5565b73ffffffffffffffffffffffffffffffffffffffff166103be6121aa565b73ffffffffffffffffffffffffffffffffffffffff1614610414576040517f08c379a000000000000000000000000000000000000000000000000000000000815260040161040b90614a4e565b60405180910390fd5b61041c612dad565b565b610426611437565b15610466576040517f08c379a000000000000000000000000000000000000000000000000000000000815260040161045d90614aba565b60405180910390fd5b600060405180610220016040528085600181111561048757610486614ada565b5b815260200184600181111561049f5761049e614ada565b5b8152602001600060038111156104b8576104b7614ada565b5b81526020013373ffffffffffffffffffffffffffffffffffffffff16815260200160008152602001428152602001600081526020018881526020016000815260200160008152602001868152602001600081526020018781526020016000815260200160008152602001600081526020018973ffffffffffffffffffffffffffffffffffffffff1681525090506000806000807f000000000000000000000000000000000000000000000000000000000000000073ffffffffffffffffffffffffffffffffffffffff16632360e8178660006040518363ffffffff1660e01b81526004016105a7929190614d5e565b608060405180830381865afa1580156105c4573d6000803e3d6000fd5b505050506040513d601f19601f820116820180604052508101906105e89190614d9e565b93509350935093506000600181111561060457610603614ada565b5b87600181111561061757610616614ada565b5b0361062c5761062b8c338d8786868c612e4e565b5b60018081111561063f5761063e614ada565b5b87600181111561065257610651614ada565b5b03610668576106678c338d878787878d61379e565b5b60007f000000000000000000000000000000000000000000000000000000000000000073ffffffffffffffffffffffffffffffffffffffff1663b9f10b6687878787876040518663ffffffff1660e01b81526004016106cb959493929190614e05565b6020604051808303816000875af11580156106ea573d6000803e3d6000fd5b505050506040513d601f19601f8201168201806040525081019061070e9190614e5d565b90507f000000000000000000000000000000000000000000000000000000000000000073ffffffffffffffffffffffffffffffffffffffff166324b4110e82336040518363ffffffff1660e01b815260040161076b929190614e8a565b600060405180830381600087803b15801561078557600080fd5b505af1158015610799573d6000803e3d6000fd5b505050508c73ffffffffffffffffffffffffffffffffffffffff16631f21f9af6040518163ffffffff1660e01b8152600401602060405180830381865afa1580156107e8573d6000803e3d6000fd5b505050506040513d601f19601f8201168201806040525081019061080c9190614959565b73ffffffffffffffffffffffffffffffffffffffff16636f307dc36040518163ffffffff1660e01b8152600401602060405180830381865afa158015610856573d6000803e3d6000fd5b505050506040513d601f19601f8201168201806040525081019061087a9190614ec8565b73ffffffffffffffffffffffffffffffffffffffff163373ffffffffffffffffffffffffffffffffffffffff167f43e72efa3a4fa0d2e34fd004e07a50adf9a48ccb50611e1f75eefffbc3a65c67836040516108d69190614ef5565b60405180910390a350505050505050505050505050565b6000806000807f000000000000000000000000000000000000000000000000000000000000000073ffffffffffffffffffffffffffffffffffffffff1663fc9d80e0876040518263ffffffff1660e01b815260040161094c9190614ef5565b608060405180830381865afa158015610969573d6000803e3d6000fd5b505050506040513d601f19601f8201168201806040525081019061098d9190614f5f565b9350935093509350600160038111156109a9576109a8614ada565b5b8460038111156109bc576109bb614ada565b5b0361142f577f000000000000000000000000000000000000000000000000000000000000000073ffffffffffffffffffffffffffffffffffffffff1663637baf60876040518263ffffffff1660e01b8152600401610a1a9190614ef5565b600060405180830381600087803b158015610a3457600080fd5b505af1158015610a48573d6000803e3d6000fd5b505050506000807f000000000000000000000000000000000000000000000000000000000000000073ffffffffffffffffffffffffffffffffffffffff166385ae10e6896040518263ffffffff1660e01b8152600401610aa89190614ef5565b606060405180830381865afa158015610ac5573d6000803e3d6000fd5b505050506040513d601f19601f82011682018060405250810190610ae99190614fc6565b509150915060008373ffffffffffffffffffffffffffffffffffffffff16631f21f9af6040518163ffffffff1660e01b8152600401602060405180830381865afa158015610b3b573d6000803e3d6000fd5b505050506040513d601f19601f82011682018060405250810190610b5f9190614959565b73ffffffffffffffffffffffffffffffffffffffff1663cb4c86b76040518163ffffffff1660e01b8152600401602060405180830381865afa158015610ba9573d6000803e3d6000fd5b505050506040513d601f19601f82011682018060405250810190610bcd9190614ec8565b73ffffffffffffffffffffffffffffffffffffffff1663313ce5676040518163ffffffff1660e01b8152600401602060405180830381865afa158015610c17573d6000803e3d6000fd5b505050506040513d601f19601f82011682018060405250810190610c3b9190615052565b60ff16905060008373__MathLib_______________________________63fed4a0f390918773ffffffffffffffffffffffffffffffffffffffff16631f21f9af6040518163ffffffff1660e01b8152600401602060405180830381865afa158015610caa573d6000803e3d6000fd5b505050506040513d601f19601f82011682018060405250810190610cce9190614959565b73ffffffffffffffffffffffffffffffffffffffff166305268cff6040518163ffffffff1660e01b8152600401602060405180830381865afa158015610d18573d6000803e3d6000fd5b505050506040513d601f19601f82011682018060405250810190610d3c91906150bd565b73ffffffffffffffffffffffffffffffffffffffff1663b0e21e8a6040518163ffffffff1660e01b8152600401602060405180830381865afa158015610d86573d6000803e3d6000fd5b505050506040513d601f19601f82011682018060405250810190610daa9190614e5d565b6040518363ffffffff1660e01b8152600401610dc79291906150f9565b602060405180830381865af4158015610de4573d6000803e3d6000fd5b505050506040513d601f19601f82011682018060405250810190610e089190614e5d565b73__MarketLib_____________________________63174e20e69091846040518363ffffffff1660e01b8152600401610e429291906150f9565b602060405180830381865af4158015610e5f573d6000803e3d6000fd5b505050506040513d601f19601f82011682018060405250810190610e839190614e5d565b905060008473__MathLib_______________________________63fed4a0f390918873ffffffffffffffffffffffffffffffffffffffff1663d1c699aa6040518163ffffffff1660e01b8152600401602060405180830381865afa158015610eef573d6000803e3d6000fd5b505050506040513d601f19601f82011682018060405250810190610f139190614e5d565b6040518363ffffffff1660e01b8152600401610f309291906150f9565b602060405180830381865af4158015610f4d573d6000803e3d6000fd5b505050506040513d601f19601f82011682018060405250810190610f719190614e5d565b73__MarketLib_____________________________63174e20e69091856040518363ffffffff1660e01b8152600401610fab9291906150f9565b602060405180830381865af4158015610fc8573d6000803e3d6000fd5b505050506040513d601f19601f82011682018060405250810190610fec9190614e5d565b90508373__MarketLib_____________________________63174e20e69091856040518363ffffffff1660e01b81526004016110299291906150f9565b602060405180830381865af4158015611046573d6000803e3d6000fd5b505050506040513d601f19601f8201168201806040525081019061106a9190614e5d565b9350600060018111156110805761107f614ada565b5b88600181111561109357611092614ada565b5b03611429576110ad8482846110a89190615151565b6141fe565b846110b89190615185565b935060008673ffffffffffffffffffffffffffffffffffffffff16631f21f9af6040518163ffffffff1660e01b8152600401602060405180830381865afa158015611107573d6000803e3d6000fd5b505050506040513d601f19601f8201168201806040525081019061112b9190614959565b90508073ffffffffffffffffffffffffffffffffffffffff16633e60e34889876040518363ffffffff1660e01b81526004016111689291906151b9565b600060405180830381600087803b15801561118257600080fd5b505af1158015611196573d6000803e3d6000fd5b505050508073ffffffffffffffffffffffffffffffffffffffff16633e60e3488873ffffffffffffffffffffffffffffffffffffffff16631f21f9af6040518163ffffffff1660e01b8152600401602060405180830381865afa158015611201573d6000803e3d6000fd5b505050506040513d601f19601f820116820180604052508101906112259190614959565b73ffffffffffffffffffffffffffffffffffffffff166305268cff6040518163ffffffff1660e01b8152600401602060405180830381865afa15801561126f573d6000803e3d6000fd5b505050506040513d601f19601f8201168201806040525081019061129391906150bd565b73ffffffffffffffffffffffffffffffffffffffff166364df049e6040518163ffffffff1660e01b8152600401602060405180830381865afa1580156112dd573d6000803e3d6000fd5b505050506040513d601f19601f820116820180604052508101906113019190614ec8565b856040518363ffffffff1660e01b815260040161131f9291906151b9565b600060405180830381600087803b15801561133957600080fd5b505af115801561134d573d6000803e3d6000fd5b505050508073ffffffffffffffffffffffffffffffffffffffff16633e60e3488c846040518363ffffffff1660e01b815260040161138c9291906151b9565b600060405180830381600087803b1580156113a657600080fd5b505af11580156113ba573d6000803e3d6000fd5b505050503073ffffffffffffffffffffffffffffffffffffffff163373ffffffffffffffffffffffffffffffffffffffff167f1cf7404c642614322b1d508b6d5e34e05720d23d9596b59b19c8a05704b495e18a8f8960405161141f939291906151e2565b60405180910390a3505b50505050505b505050505050565b60008060149054906101000a900460ff16905090565b6000808373ffffffffffffffffffffffffffffffffffffffff16631f21f9af6040518163ffffffff1660e01b8152600401602060405180830381865afa15801561149b573d6000803e3d6000fd5b505050506040513d601f19601f820116820180604052508101906114bf9190614959565b90508073ffffffffffffffffffffffffffffffffffffffff166305268cff6040518163ffffffff1660e01b8152600401602060405180830381865afa15801561150c573d6000803e3d6000fd5b505050506040513d601f19601f8201168201806040525081019061153091906150bd565b73ffffffffffffffffffffffffffffffffffffffff16636cce89168273ffffffffffffffffffffffffffffffffffffffff16636f307dc36040518163ffffffff1660e01b8152600401602060405180830381865afa158015611596573d6000803e3d6000fd5b505050506040513d601f19601f820116820180604052508101906115ba9190614ec8565b856040518363ffffffff1660e01b81526004016115d89291906151b9565b602060405180830381865afa1580156115f5573d6000803e3d6000fd5b505050506040513d601f19601f820116820180604052508101906116199190615257565b91505092915050565b61162a612da5565b73ffffffffffffffffffffffffffffffffffffffff166116486121aa565b73ffffffffffffffffffffffffffffffffffffffff161461169e576040517f08c379a000000000000000000000000000000000000000000000000000000000815260040161169590614a4e565b60405180910390fd5b6116a86000614217565b565b6116b2611437565b156116f2576040517f08c379a00000000000000000000000000000000000000000000000000000000081526004016116e990614aba565b60405180910390fd5b60008473ffffffffffffffffffffffffffffffffffffffff16631f21f9af6040518163ffffffff1660e01b8152600401602060405180830381865afa15801561173f573d6000803e3d6000fd5b505050506040513d601f19601f820116820180604052508101906117639190614959565b90508073ffffffffffffffffffffffffffffffffffffffff166305268cff6040518163ffffffff1660e01b8152600401602060405180830381865afa1580156117b0573d6000803e3d6000fd5b505050506040513d601f19601f820116820180604052508101906117d491906150bd565b73ffffffffffffffffffffffffffffffffffffffff1663255fdcff866040518263ffffffff1660e01b815260040161180c9190614775565b602060405180830381865afa158015611829573d6000803e3d6000fd5b505050506040513d601f19601f8201168201806040525081019061184d9190615299565b61188c576040517f08c379a000000000000000000000000000000000000000000000000000000000815260040161188390615312565b60405180910390fd5b60008173ffffffffffffffffffffffffffffffffffffffff166305268cff6040518163ffffffff1660e01b8152600401602060405180830381865afa1580156118d9573d6000803e3d6000fd5b505050506040513d601f19601f820116820180604052508101906118fd91906150bd565b73ffffffffffffffffffffffffffffffffffffffff16636cce89168373ffffffffffffffffffffffffffffffffffffffff16636f307dc36040518163ffffffff1660e01b8152600401602060405180830381865afa158015611963573d6000803e3d6000fd5b505050506040513d601f19601f820116820180604052508101906119879190614ec8565b876040518363ffffffff1660e01b81526004016119a59291906151b9565b602060405180830381865afa1580156119c2573d6000803e3d6000fd5b505050506040513d601f19601f820116820180604052508101906119e69190615257565b90506000604051806102200160405280600180811115611a0957611a08614ada565b5b8152602001856001811115611a2157611a20614ada565b5b815260200160006003811115611a3a57611a39614ada565b5b81526020013373ffffffffffffffffffffffffffffffffffffffff1681526020016000815260200142815260200160008152602001878152602001600081526020016000815260200186815260200160008152602001600081526020016000815260200160008152602001600081526020018873ffffffffffffffffffffffffffffffffffffffff16815250905060008373ffffffffffffffffffffffffffffffffffffffff1663cb4c86b76040518163ffffffff1660e01b8152600401602060405180830381865afa158015611b15573d6000803e3d6000fd5b505050506040513d601f19601f82011682018060405250810190611b399190614ec8565b905060008173ffffffffffffffffffffffffffffffffffffffff1663313ce5676040518163ffffffff1660e01b8152600401602060405180830381865afa158015611b88573d6000803e3d6000fd5b505050506040513d601f19601f82011682018060405250810190611bac9190615052565b60ff1690506000807f000000000000000000000000000000000000000000000000000000000000000073ffffffffffffffffffffffffffffffffffffffff16632360e8178660016040518363ffffffff1660e01b8152600401611c10929190614d5e565b608060405180830381865afa158015611c2d573d6000803e3d6000fd5b505050506040513d601f19601f82011682018060405250810190611c519190614d9e565b9350505091506000806001811115611c6c57611c6b614ada565b5b896001811115611c7f57611c7e614ada565b5b03611eb0578473ffffffffffffffffffffffffffffffffffffffff166323b872dd33898673__MarketLib_____________________________63174e20e690918a6040518363ffffffff1660e01b8152600401611cdd9291906150f9565b602060405180830381865af4158015611cfa573d6000803e3d6000fd5b505050506040513d601f19601f82011682018060405250810190611d1e9190614e5d565b6040518463ffffffff1660e01b8152600401611d3c93929190615332565b6020604051808303816000875af1158015611d5b573d6000803e3d6000fd5b505050506040513d601f19601f82011682018060405250810190611d7f9190615299565b611dbe576040517f08c379a0000000000000000000000000000000000000000000000000000000008152600401611db5906153b5565b60405180910390fd5b8673ffffffffffffffffffffffffffffffffffffffff1663b3e1f05084846040518363ffffffff1660e01b8152600401611df99291906153d5565b6040805180830381865afa158015611e15573d6000803e3d6000fd5b505050506040513d601f19601f82011682018060405250810190611e3991906153fe565b50809150508673ffffffffffffffffffffffffffffffffffffffff166340c10f1933836040518363ffffffff1660e01b8152600401611e799291906151b9565b600060405180830381600087803b158015611e9357600080fd5b505af1158015611ea7573d6000803e3d6000fd5b50505050612086565b8673ffffffffffffffffffffffffffffffffffffffff1663921f2c3b84846040518363ffffffff1660e01b8152600401611eeb9291906153d5565b6040805180830381865afa158015611f07573d6000803e3d6000fd5b505050506040513d601f19601f82011682018060405250810190611f2b91906153fe565b50809150508673ffffffffffffffffffffffffffffffffffffffff16639dc29fac33836040518363ffffffff1660e01b8152600401611f6b9291906151b9565b600060405180830381600087803b158015611f8557600080fd5b505af1158015611f99573d6000803e3d6000fd5b505050508673ffffffffffffffffffffffffffffffffffffffff1663c4076876338573__MarketLib_____________________________63174e20e69091896040518363ffffffff1660e01b8152600401611ff59291906150f9565b602060405180830381865af4158015612012573d6000803e3d6000fd5b505050506040513d601f19601f820116820180604052508101906120369190614e5d565b6040518363ffffffff1660e01b81526004016120539291906151b9565b600060405180830381600087803b15801561206d57600080fd5b505af1158015612081573d6000803e3d6000fd5b505050505b8b73ffffffffffffffffffffffffffffffffffffffff163373ffffffffffffffffffffffffffffffffffffffff167fecff3762708241a160664f7092d4ff3e5e6eed425112beca3a558737639f0ba38c84600060018111156120eb576120ea614ada565b5b8e60018111156120fe576120fd614ada565b5b1460405161210e9392919061543e565b60405180910390a3505050505050505050505050565b61212c612da5565b73ffffffffffffffffffffffffffffffffffffffff1661214a6121aa565b73ffffffffffffffffffffffffffffffffffffffff16146121a0576040517f08c379a000000000000000000000000000000000000000000000000000000000815260040161219790614a4e565b60405180910390fd5b6121a86142db565b565b60008060009054906101000a900473ffffffffffffffffffffffffffffffffffffffff16905090565b6121db611437565b1561221b576040517f08c379a000000000000000000000000000000000000000000000000000000000815260040161221290614aba565b60405180910390fd5b60007f000000000000000000000000000000000000000000000000000000000000000073ffffffffffffffffffffffffffffffffffffffff16635c273c2f846001806040518463ffffffff1660e01b815260040161227b93929190615496565b602060405180830381865afa158015612298573d6000803e3d6000fd5b505050506040513d601f19601f820116820180604052508101906122bc9190614e5d565b905060008173__MathLib_______________________________63fed4a0f39091856040518363ffffffff1660e01b81526004016122fb9291906150f9565b602060405180830381865af4158015612318573d6000803e3d6000fd5b505050506040513d601f19601f8201168201806040525081019061233c9190614e5d565b73__MarketLib_____________________________63174e20e690918673ffffffffffffffffffffffffffffffffffffffff16631f21f9af6040518163ffffffff1660e01b8152600401602060405180830381865afa1580156123a3573d6000803e3d6000fd5b505050506040513d601f19601f820116820180604052508101906123c79190614959565b73ffffffffffffffffffffffffffffffffffffffff1663cb4c86b76040518163ffffffff1660e01b8152600401602060405180830381865afa158015612411573d6000803e3d6000fd5b505050506040513d601f19601f820116820180604052508101906124359190614ec8565b73ffffffffffffffffffffffffffffffffffffffff1663313ce5676040518163ffffffff1660e01b8152600401602060405180830381865afa15801561247f573d6000803e3d6000fd5b505050506040513d601f19601f820116820180604052508101906124a39190615052565b6040518363ffffffff1660e01b81526004016124c09291906154fe565b602060405180830381865af41580156124dd573d6000803e3d6000fd5b505050506040513d601f19601f820116820180604052508101906125019190614e5d565b90508373ffffffffffffffffffffffffffffffffffffffff16639dc29fac33856040518363ffffffff1660e01b815260040161253e9291906151b9565b600060405180830381600087803b15801561255857600080fd5b505af115801561256c573d6000803e3d6000fd5b505050508373ffffffffffffffffffffffffffffffffffffffff16631f21f9af6040518163ffffffff1660e01b8152600401602060405180830381865afa1580156125bb573d6000803e3d6000fd5b505050506040513d601f19601f820116820180604052508101906125df9190614959565b73ffffffffffffffffffffffffffffffffffffffff16633e60e34833836040518363ffffffff1660e01b81526004016126199291906151b9565b600060405180830381600087803b15801561263357600080fd5b505af1158015612647573d6000803e3d6000fd5b5050505050505050565b600080600080600060405180610220016040528089600181111561267857612677614ada565b5b81526020018860018111156126905761268f614ada565b5b8152602001600060038111156126a9576126a8614ada565b5b81526020013373ffffffffffffffffffffffffffffffffffffffff16815260200160008152602001428152602001600081526020018c815260200160008152602001600081526020018a8152602001600081526020018b81526020016000815260200160008152602001600081526020018d73ffffffffffffffffffffffffffffffffffffffff1681525090507f000000000000000000000000000000000000000000000000000000000000000073ffffffffffffffffffffffffffffffffffffffff16632360e81782886040518363ffffffff1660e01b8152600401612791929190614d5e565b608060405180830381865afa1580156127ae573d6000803e3d6000fd5b505050506040513d601f19601f820116820180604052508101906127d29190614d9e565b945094509450945050975097509750979350505050565b6127f1611437565b15612831576040517f08c379a000000000000000000000000000000000000000000000000000000000815260040161282890614aba565b60405180910390fd5b60007f000000000000000000000000000000000000000000000000000000000000000073ffffffffffffffffffffffffffffffffffffffff16635c273c2f84600060016040518463ffffffff1660e01b815260040161289293929190615496565b602060405180830381865afa1580156128af573d6000803e3d6000fd5b505050506040513d601f19601f820116820180604052508101906128d39190614e5d565b905060008373ffffffffffffffffffffffffffffffffffffffff16631f21f9af6040518163ffffffff1660e01b8152600401602060405180830381865afa158015612922573d6000803e3d6000fd5b505050506040513d601f19601f820116820180604052508101906129469190614959565b73ffffffffffffffffffffffffffffffffffffffff1663cb4c86b76040518163ffffffff1660e01b8152600401602060405180830381865afa158015612990573d6000803e3d6000fd5b505050506040513d601f19601f820116820180604052508101906129b49190614ec8565b905060008373__MarketLib_____________________________63ed1bb19990918473ffffffffffffffffffffffffffffffffffffffff1663313ce5676040518163ffffffff1660e01b8152600401602060405180830381865afa158015612a20573d6000803e3d6000fd5b505050506040513d601f19601f82011682018060405250810190612a449190615052565b6040518363ffffffff1660e01b8152600401612a619291906154fe565b602060405180830381865af4158015612a7e573d6000803e3d6000fd5b505050506040513d601f19601f82011682018060405250810190612aa29190614e5d565b73__MathLib_______________________________63de7f61709091856040518363ffffffff1660e01b8152600401612adc9291906150f9565b602060405180830381865af4158015612af9573d6000803e3d6000fd5b505050506040513d601f19601f82011682018060405250810190612b1d9190614e5d565b90508173ffffffffffffffffffffffffffffffffffffffff166323b872dd338773ffffffffffffffffffffffffffffffffffffffff16631f21f9af6040518163ffffffff1660e01b8152600401602060405180830381865afa158015612b87573d6000803e3d6000fd5b505050506040513d601f19601f82011682018060405250810190612bab9190614959565b876040518463ffffffff1660e01b8152600401612bca93929190615332565b6020604051808303816000875af1158015612be9573d6000803e3d6000fd5b505050506040513d601f19601f82011682018060405250810190612c0d9190615299565b612c1657600080fd5b8473ffffffffffffffffffffffffffffffffffffffff166340c10f1933836040518363ffffffff1660e01b8152600401612c519291906151b9565b600060405180830381600087803b158015612c6b57600080fd5b505af1158015612c7f573d6000803e3d6000fd5b505050505050505050565b612c92612da5565b73ffffffffffffffffffffffffffffffffffffffff16612cb06121aa565b73ffffffffffffffffffffffffffffffffffffffff1614612d06576040517f08c379a0000000000000000000000000000000000000000000000000000000008152600401612cfd90614a4e565b60405180910390fd5b600073ffffffffffffffffffffffffffffffffffffffff168173ffffffffffffffffffffffffffffffffffffffff1603612d75576040517f08c379a0000000000000000000000000000000000000000000000000000000008152600401612d6c90615599565b60405180910390fd5b612d7e81614217565b50565b7f000000000000000000000000000000000000000000000000000000000000000081565b600033905090565b612db5611437565b612df4576040517f08c379a0000000000000000000000000000000000000000000000000000000008152600401612deb90615605565b60405180910390fd5b60008060146101000a81548160ff0219169083151502179055507f5db9ee0a495bf2e6ff9c91a7834c1ba4fdd244a5e8aa4e537bd38aeae4b073aa612e37612da5565b604051612e449190614775565b60405180910390a1565b60008773ffffffffffffffffffffffffffffffffffffffff16631f21f9af6040518163ffffffff1660e01b8152600401602060405180830381865afa158015612e9b573d6000803e3d6000fd5b505050506040513d601f19601f82011682018060405250810190612ebf9190614959565b905060008173ffffffffffffffffffffffffffffffffffffffff1663cb4c86b76040518163ffffffff1660e01b8152600401602060405180830381865afa158015612f0e573d6000803e3d6000fd5b505050506040513d601f19601f82011682018060405250810190612f329190614ec8565b905060008173ffffffffffffffffffffffffffffffffffffffff1663313ce5676040518163ffffffff1660e01b8152600401602060405180830381865afa158015612f81573d6000803e3d6000fd5b505050506040513d601f19601f82011682018060405250810190612fa59190615052565b60ff16905060008373ffffffffffffffffffffffffffffffffffffffff16636f307dc36040518163ffffffff1660e01b8152600401602060405180830381865afa158015612ff7573d6000803e3d6000fd5b505050506040513d601f19601f8201168201806040525081019061301b9190614ec8565b90506000600281111561303157613030614ada565b5b85600281111561304457613043614ada565b5b03613188578273ffffffffffffffffffffffffffffffffffffffff166323b872dd8b868b73__MarketLib_____________________________63174e20e69091886040518363ffffffff1660e01b81526004016130a29291906150f9565b602060405180830381865af41580156130bf573d6000803e3d6000fd5b505050506040513d601f19601f820116820180604052508101906130e39190614e5d565b6040518463ffffffff1660e01b815260040161310193929190615332565b6020604051808303816000875af1158015613120573d6000803e3d6000fd5b505050506040513d601f19601f820116820180604052508101906131449190615299565b613183576040517f08c379a000000000000000000000000000000000000000000000000000000000815260040161317a90615671565b60405180910390fd5b613791565b6001600281111561319c5761319b614ada565b5b8560028111156131af576131ae614ada565b5b036133eb57600081905060008173ffffffffffffffffffffffffffffffffffffffff1663313ce5676040518163ffffffff1660e01b8152600401602060405180830381865afa158015613206573d6000803e3d6000fd5b505050506040513d601f19601f8201168201806040525081019061322a9190615052565b60ff1690508173ffffffffffffffffffffffffffffffffffffffff166323b872dd8d888d73__MathLib_______________________________63de7f617090918f6040518363ffffffff1660e01b81526004016132889291906150f9565b602060405180830381865af41580156132a5573d6000803e3d6000fd5b505050506040513d601f19601f820116820180604052508101906132c99190614e5d565b73__MarketLib_____________________________63174e20e69091876040518363ffffffff1660e01b81526004016133039291906150f9565b602060405180830381865af4158015613320573d6000803e3d6000fd5b505050506040513d601f19601f820116820180604052508101906133449190614e5d565b6040518463ffffffff1660e01b815260040161336293929190615332565b6020604051808303816000875af1158015613381573d6000803e3d6000fd5b505050506040513d601f19601f820116820180604052508101906133a59190615299565b6133e4576040517f08c379a00000000000000000000000000000000000000000000000000000000081526004016133db90615671565b60405180910390fd5b5050613790565b6002808111156133fe576133fd614ada565b5b85600281111561341157613410614ada565b5b0361378f5760008473ffffffffffffffffffffffffffffffffffffffff166305268cff6040518163ffffffff1660e01b8152600401602060405180830381865afa158015613463573d6000803e3d6000fd5b505050506040513d601f19601f8201168201806040525081019061348791906150bd565b73ffffffffffffffffffffffffffffffffffffffff16636cce8916838c6040518363ffffffff1660e01b81526004016134c19291906151b9565b602060405180830381865afa1580156134de573d6000803e3d6000fd5b505050506040513d601f19601f820116820180604052508101906135029190615257565b90506000808273ffffffffffffffffffffffffffffffffffffffff1663921f2c3b8c8b6040518363ffffffff1660e01b81526004016135429291906153d5565b6040805180830381865afa15801561355e573d6000803e3d6000fd5b505050506040513d601f19601f8201168201806040525081019061358291906153fe565b915091508d73ffffffffffffffffffffffffffffffffffffffff1663372688b06040518163ffffffff1660e01b8152600401602060405180830381865afa1580156135d1573d6000803e3d6000fd5b505050506040513d601f19601f820116820180604052508101906135f59190614e5d565b8111613636576040517f08c379a000000000000000000000000000000000000000000000000000000000815260040161362d906156dd565b60405180910390fd5b8273ffffffffffffffffffffffffffffffffffffffff16639dc29fac33846040518363ffffffff1660e01b81526004016136719291906151b9565b600060405180830381600087803b15801561368b57600080fd5b505af115801561369f573d6000803e3d6000fd5b505050508273ffffffffffffffffffffffffffffffffffffffff1663c4076876888d73__MarketLib_____________________________63174e20e690918a6040518363ffffffff1660e01b81526004016136fb9291906150f9565b602060405180830381865af4158015613718573d6000803e3d6000fd5b505050506040513d601f19601f8201168201806040525081019061373c9190614e5d565b6040518363ffffffff1660e01b81526004016137599291906151b9565b600060405180830381600087803b15801561377357600080fd5b505af1158015613787573d6000803e3d6000fd5b505050505050505b5b5b5050505050505050505050565b60008873ffffffffffffffffffffffffffffffffffffffff16631f21f9af6040518163ffffffff1660e01b8152600401602060405180830381865afa1580156137eb573d6000803e3d6000fd5b505050506040513d601f19601f8201168201806040525081019061380f9190614959565b905060008173ffffffffffffffffffffffffffffffffffffffff1663cb4c86b76040518163ffffffff1660e01b8152600401602060405180830381865afa15801561385e573d6000803e3d6000fd5b505050506040513d601f19601f820116820180604052508101906138829190614ec8565b905060008173ffffffffffffffffffffffffffffffffffffffff1663313ce5676040518163ffffffff1660e01b8152600401602060405180830381865afa1580156138d1573d6000803e3d6000fd5b505050506040513d601f19601f820116820180604052508101906138f59190615052565b60ff1690506000600281111561390e5761390d614ada565b5b84600281111561392157613920614ada565b5b03613a70578173ffffffffffffffffffffffffffffffffffffffff166323b872dd8b858b8b6139509190615185565b73__MarketLib_____________________________63174e20e69091876040518363ffffffff1660e01b815260040161398a9291906150f9565b602060405180830381865af41580156139a7573d6000803e3d6000fd5b505050506040513d601f19601f820116820180604052508101906139cb9190614e5d565b6040518463ffffffff1660e01b81526004016139e993929190615332565b6020604051808303816000875af1158015613a08573d6000803e3d6000fd5b505050506040513d601f19601f82011682018060405250810190613a2c9190615299565b613a6b576040517f08c379a0000000000000000000000000000000000000000000000000000000008152600401613a6290615671565b60405180910390fd5b6141f1565b60016002811115613a8457613a83614ada565b5b846002811115613a9757613a96614ada565b5b03613d4c5760008373ffffffffffffffffffffffffffffffffffffffff16636f307dc36040518163ffffffff1660e01b8152600401602060405180830381865afa158015613ae9573d6000803e3d6000fd5b505050506040513d601f19601f82011682018060405250810190613b0d9190614ec8565b905060008173ffffffffffffffffffffffffffffffffffffffff1663313ce5676040518163ffffffff1660e01b8152600401602060405180830381865afa158015613b5c573d6000803e3d6000fd5b505050506040513d601f19601f82011682018060405250810190613b809190615052565b60ff1690508173ffffffffffffffffffffffffffffffffffffffff166323b872dd8d878d8d613baf9190615185565b73__MathLib_______________________________63de7f617090918e6040518363ffffffff1660e01b8152600401613be99291906150f9565b602060405180830381865af4158015613c06573d6000803e3d6000fd5b505050506040513d601f19601f82011682018060405250810190613c2a9190614e5d565b73__MarketLib_____________________________63174e20e69091876040518363ffffffff1660e01b8152600401613c649291906150f9565b602060405180830381865af4158015613c81573d6000803e3d6000fd5b505050506040513d601f19601f82011682018060405250810190613ca59190614e5d565b6040518463ffffffff1660e01b8152600401613cc393929190615332565b6020604051808303816000875af1158015613ce2573d6000803e3d6000fd5b505050506040513d601f19601f82011682018060405250810190613d069190615299565b613d45576040517f08c379a0000000000000000000000000000000000000000000000000000000008152600401613d3c90615671565b60405180910390fd5b50506141f0565b600280811115613d5f57613d5e614ada565b5b846002811115613d7257613d71614ada565b5b036141ef576000871115613ebb578173ffffffffffffffffffffffffffffffffffffffff166323b872dd33858a73__MarketLib_____________________________63174e20e69091876040518363ffffffff1660e01b8152600401613dd99291906150f9565b602060405180830381865af4158015613df6573d6000803e3d6000fd5b505050506040513d601f19601f82011682018060405250810190613e1a9190614e5d565b6040518463ffffffff1660e01b8152600401613e3893929190615332565b6020604051808303816000875af1158015613e57573d6000803e3d6000fd5b505050506040513d601f19601f82011682018060405250810190613e7b9190615299565b613eba576040517f08c379a0000000000000000000000000000000000000000000000000000000008152600401613eb190615749565b60405180910390fd5b5b60008373ffffffffffffffffffffffffffffffffffffffff166305268cff6040518163ffffffff1660e01b8152600401602060405180830381865afa158015613f08573d6000803e3d6000fd5b505050506040513d601f19601f82011682018060405250810190613f2c91906150bd565b73ffffffffffffffffffffffffffffffffffffffff16636cce89168573ffffffffffffffffffffffffffffffffffffffff16636f307dc36040518163ffffffff1660e01b8152600401602060405180830381865afa158015613f92573d6000803e3d6000fd5b505050506040513d601f19601f82011682018060405250810190613fb69190614ec8565b8c6040518363ffffffff1660e01b8152600401613fd49291906151b9565b602060405180830381865afa158015613ff1573d6000803e3d6000fd5b505050506040513d601f19601f820116820180604052508101906140159190615257565b905060008173ffffffffffffffffffffffffffffffffffffffff1663b3e1f0508b896040518363ffffffff1660e01b81526004016140549291906153d5565b6040805180830381865afa158015614070573d6000803e3d6000fd5b505050506040513d601f19601f8201168201806040525081019061409491906153fe565b5090508473ffffffffffffffffffffffffffffffffffffffff16633e60e348838c73__MarketLib_____________________________63174e20e69091886040518363ffffffff1660e01b81526004016140ef9291906150f9565b602060405180830381865af415801561410c573d6000803e3d6000fd5b505050506040513d601f19601f820116820180604052508101906141309190614e5d565b6040518363ffffffff1660e01b815260040161414d9291906151b9565b600060405180830381600087803b15801561416757600080fd5b505af115801561417b573d6000803e3d6000fd5b505050508173ffffffffffffffffffffffffffffffffffffffff166340c10f1933836040518363ffffffff1660e01b81526004016141ba9291906151b9565b600060405180830381600087803b1580156141d457600080fd5b505af11580156141e8573d6000803e3d6000fd5b5050505050505b5b5b5050505050505050505050565b600081831061420d578161420f565b825b905092915050565b60008060009054906101000a900473ffffffffffffffffffffffffffffffffffffffff169050816000806101000a81548173ffffffffffffffffffffffffffffffffffffffff021916908373ffffffffffffffffffffffffffffffffffffffff1602179055508173ffffffffffffffffffffffffffffffffffffffff168173ffffffffffffffffffffffffffffffffffffffff167f8be0079c531659141344cd1fd0a4f28419497f9722a3daafe3b4186f6b6457e060405160405180910390a35050565b6142e3611437565b15614323576040517f08c379a000000000000000000000000000000000000000000000000000000000815260040161431a90614aba565b60405180910390fd5b6001600060146101000a81548160ff0219169083151502179055507f62e78cea01bee320cd4e420270b5ea74000d11b0c9f74754ebdbfc544b05a258614367612da5565b6040516143749190614775565b60405180910390a1565b600080fd5b600073ffffffffffffffffffffffffffffffffffffffff82169050919050565b60006143ae82614383565b9050919050565b60006143c0826143a3565b9050919050565b6143d0816143b5565b81146143db57600080fd5b50565b6000813590506143ed816143c7565b92915050565b6000602082840312156144095761440861437e565b5b6000614417848285016143de565b91505092915050565b6000819050919050565b600061444561444061443b84614383565b614420565b614383565b9050919050565b60006144578261442a565b9050919050565b60006144698261444c565b9050919050565b6144798161445e565b82525050565b60006020820190506144946000830184614470565b92915050565b6000819050919050565b6144ad8161449a565b81146144b857600080fd5b50565b6000813590506144ca816144a4565b92915050565b600281106144dd57600080fd5b50565b6000813590506144ef816144d0565b92915050565b6002811061450257600080fd5b50565b600081359050614514816144f5565b92915050565b6003811061452757600080fd5b50565b6000813590506145398161451a565b92915050565b600080600080600080600060e0888a03121561455e5761455d61437e565b5b600061456c8a828b016143de565b975050602061457d8a828b016144bb565b965050604061458e8a828b016144bb565b955050606061459f8a828b016144bb565b94505060806145b08a828b016144e0565b93505060a06145c18a828b01614505565b92505060c06145d28a828b0161452a565b91505092959891949750929550565b6145ea816143a3565b81146145f557600080fd5b50565b600081359050614607816145e1565b92915050565b600080604083850312156146245761462361437e565b5b6000614632858286016144bb565b9250506020614643858286016145f8565b9150509250929050565b60008115159050919050565b6146628161464d565b82525050565b600060208201905061467d6000830184614659565b92915050565b6000806040838503121561469a5761469961437e565b5b60006146a8858286016143de565b92505060206146b9858286016144bb565b9150509250929050565b60006146ce8261444c565b9050919050565b6146de816146c3565b82525050565b60006020820190506146f960008301846146d5565b92915050565b600080600080608085870312156147195761471861437e565b5b6000614727878288016143de565b9450506020614738878288016144bb565b9350506040614749878288016144bb565b925050606061475a87828801614505565b91505092959194509250565b61476f816143a3565b82525050565b600060208201905061478a6000830184614766565b92915050565b6147998161464d565b81146147a457600080fd5b50565b6000813590506147b681614790565b92915050565b600080600080600080600060e0888a0312156147db576147da61437e565b5b60006147e98a828b016143de565b97505060206147fa8a828b016144bb565b965050604061480b8a828b016144bb565b955050606061481c8a828b016144bb565b945050608061482d8a828b016144e0565b93505060a061483e8a828b01614505565b92505060c061484f8a828b016147a7565b91505092959891949750929550565b6148678161449a565b82525050565b6000608082019050614882600083018761485e565b61488f602083018661485e565b61489c604083018561485e565b6148a9606083018461485e565b95945050505050565b6000602082840312156148c8576148c761437e565b5b60006148d6848285016145f8565b91505092915050565b60006148ea8261444c565b9050919050565b6148fa816148df565b82525050565b600060208201905061491560008301846148f1565b92915050565b6000614926826143a3565b9050919050565b6149368161491b565b811461494157600080fd5b50565b6000815190506149538161492d565b92915050565b60006020828403121561496f5761496e61437e565b5b600061497d84828501614944565b91505092915050565b6000614991826143a3565b9050919050565b6149a181614986565b81146149ac57600080fd5b50565b6000815190506149be81614998565b92915050565b6000602082840312156149da576149d961437e565b5b60006149e8848285016149af565b91505092915050565b600082825260208201905092915050565b7f4f776e61626c653a2063616c6c6572206973206e6f7420746865206f776e6572600082015250565b6000614a386020836149f1565b9150614a4382614a02565b602082019050919050565b60006020820190508181036000830152614a6781614a2b565b9050919050565b7f5061757361626c653a2070617573656400000000000000000000000000000000600082015250565b6000614aa46010836149f1565b9150614aaf82614a6e565b602082019050919050565b60006020820190508181036000830152614ad381614a97565b9050919050565b7f4e487b7100000000000000000000000000000000000000000000000000000000600052602160045260246000fd5b60028110614b1a57614b19614ada565b5b50565b6000819050614b2b82614b09565b919050565b6000614b3b82614b1d565b9050919050565b614b4b81614b30565b82525050565b60028110614b6257614b61614ada565b5b50565b6000819050614b7382614b51565b919050565b6000614b8382614b65565b9050919050565b614b9381614b78565b82525050565b60048110614baa57614ba9614ada565b5b50565b6000819050614bbb82614b99565b919050565b6000614bcb82614bad565b9050919050565b614bdb81614bc0565b82525050565b614bea816143a3565b82525050565b614bf98161449a565b82525050565b61022082016000820151614c166000850182614b42565b506020820151614c296020850182614b8a565b506040820151614c3c6040850182614bd2565b506060820151614c4f6060850182614be1565b506080820151614c626080850182614bf0565b5060a0820151614c7560a0850182614bf0565b5060c0820151614c8860c0850182614bf0565b5060e0820151614c9b60e0850182614bf0565b50610100820151614cb0610100850182614bf0565b50610120820151614cc5610120850182614bf0565b50610140820151614cda610140850182614bf0565b50610160820151614cef610160850182614bf0565b50610180820151614d04610180850182614bf0565b506101a0820151614d196101a0850182614bf0565b506101c0820151614d2e6101c0850182614bf0565b506101e0820151614d436101e0850182614bf0565b50610200820151614d58610200850182614be1565b50505050565b600061024082019050614d746000830185614bff565b614d82610220830184614659565b9392505050565b600081519050614d98816144a4565b92915050565b60008060008060808587031215614db857614db761437e565b5b6000614dc687828801614d89565b9450506020614dd787828801614d89565b9350506040614de887828801614d89565b9250506060614df987828801614d89565b91505092959194509250565b60006102a082019050614e1b6000830188614bff565b614e2961022083018761485e565b614e3761024083018661485e565b614e4561026083018561485e565b614e5361028083018461485e565b9695505050505050565b600060208284031215614e7357614e7261437e565b5b6000614e8184828501614d89565b91505092915050565b6000604082019050614e9f600083018561485e565b614eac6020830184614766565b9392505050565b600081519050614ec2816145e1565b92915050565b600060208284031215614ede57614edd61437e565b5b6000614eec84828501614eb3565b91505092915050565b6000602082019050614f0a600083018461485e565b92915050565b60048110614f1d57600080fd5b50565b600081519050614f2f81614f10565b92915050565b600081519050614f44816144f5565b92915050565b600081519050614f59816143c7565b92915050565b60008060008060808587031215614f7957614f7861437e565b5b6000614f8787828801614f20565b9450506020614f9887828801614f35565b9350506040614fa987828801614eb3565b9250506060614fba87828801614f4a565b91505092959194509250565b600080600060608486031215614fdf57614fde61437e565b5b6000614fed86828701614d89565b9350506020614ffe86828701614d89565b925050604061500f86828701614d89565b9150509250925092565b600060ff82169050919050565b61502f81615019565b811461503a57600080fd5b50565b60008151905061504c81615026565b92915050565b6000602082840312156150685761506761437e565b5b60006150768482850161503d565b91505092915050565b600061508a826143a3565b9050919050565b61509a8161507f565b81146150a557600080fd5b50565b6000815190506150b781615091565b92915050565b6000602082840312156150d3576150d261437e565b5b60006150e1848285016150a8565b91505092915050565b6150f38161449a565b82525050565b600060408201905061510e60008301856150ea565b61511b60208301846150ea565b9392505050565b7f4e487b7100000000000000000000000000000000000000000000000000000000600052601160045260246000fd5b600061515c8261449a565b91506151678361449a565b925082820190508082111561517f5761517e615122565b5b92915050565b60006151908261449a565b915061519b8361449a565b92508282039050818111156151b3576151b2615122565b5b92915050565b60006040820190506151ce6000830185614766565b6151db602083018461485e565b9392505050565b60006060820190506151f76000830186614766565b615204602083018561485e565b615211604083018461485e565b949350505050565b6000615224826143a3565b9050919050565b61523481615219565b811461523f57600080fd5b50565b6000815190506152518161522b565b92915050565b60006020828403121561526d5761526c61437e565b5b600061527b84828501615242565b91505092915050565b60008151905061529381614790565b92915050565b6000602082840312156152af576152ae61437e565b5b60006152bd84828501615284565b91505092915050565b7f2d56500000000000000000000000000000000000000000000000000000000000600082015250565b60006152fc6003836149f1565b9150615307826152c6565b602082019050919050565b6000602082019050818103600083015261532b816152ef565b9050919050565b60006060820190506153476000830186614766565b6153546020830185614766565b615361604083018461485e565b949350505050565b7f2d56420000000000000000000000000000000000000000000000000000000000600082015250565b600061539f6003836149f1565b91506153aa82615369565b602082019050919050565b600060208201905081810360008301526153ce81615392565b9050919050565b60006040820190506153ea600083018561485e565b6153f7602083018461485e565b9392505050565b600080604083850312156154155761541461437e565b5b600061542385828601614d89565b925050602061543485828601614d89565b9150509250929050565b6000606082019050615453600083018661485e565b615460602083018561485e565b61546d6040830184614659565b949350505050565b60006154808261444c565b9050919050565b61549081615475565b82525050565b60006060820190506154ab6000830186615487565b6154b86020830185614659565b6154c56040830184614659565b949350505050565b60006154e86154e36154de84615019565b614420565b61449a565b9050919050565b6154f8816154cd565b82525050565b600060408201905061551360008301856150ea565b61552060208301846154ef565b9392505050565b7f4f776e61626c653a206e6577206f776e657220697320746865207a65726f206160008201527f6464726573730000000000000000000000000000000000000000000000000000602082015250565b60006155836026836149f1565b915061558e82615527565b604082019050919050565b600060208201905081810360008301526155b281615576565b9050919050565b7f5061757361626c653a206e6f7420706175736564000000000000000000000000600082015250565b60006155ef6014836149f1565b91506155fa826155b9565b602082019050919050565b6000602082019050818103600083015261561e816155e2565b9050919050565b7f2d504d0000000000000000000000000000000000000000000000000000000000600082015250565b600061565b6003836149f1565b915061566682615625565b602082019050919050565b6000602082019050818103600083015261568a8161564e565b9050919050565b7f6d56500000000000000000000000000000000000000000000000000000000000600082015250565b60006156c76003836149f1565b91506156d282615691565b602082019050919050565b600060208201905081810360008301526156f6816156ba565b9050919050565b7f2d434d0000000000000000000000000000000000000000000000000000000000600082015250565b60006157336003836149f1565b915061573e826156fd565b602082019050919050565b6000602082019050818103600083015261576281615726565b905091905056fea2646970667358221220a031c0fcde24ce82c765c17ce8ba1a390eb6c633379f02926ece310b645b2f7364736f6c63430008110033",
  "immutableReferences": {
    "8663": [
      {
        "length": 32,
        "start": 1357
      },
      {
        "length": 32,
        "start": 1644
      },
      {
        "length": 32,
        "start": 1810
      },
      {
        "length": 32,
        "start": 2293
      },
      {
        "length": 32,
        "start": 2499
      },
      {
        "length": 32,
        "start": 2641
      },
      {
        "length": 32,
        "start": 7094
      },
      {
        "length": 32,
        "start": 8735
      },
      {
        "length": 32,
        "start": 10040
      },
      {
        "length": 32,
        "start": 10293
      },
      {
        "length": 32,
        "start": 11651
      }
    ]
  },
  "source": "// SPDX-License-Identifier: MIT\npragma solidity ^0.8.4;\n\nimport \"@openzeppelin/contracts/token/ERC20/ERC20.sol\";\nimport \"@openzeppelin/contracts/access/Ownable.sol\";\nimport \"@openzeppelin/contracts/security/Pausable.sol\";\nimport \"@openzeppelin/contracts/utils/math/SafeMath.sol\";\nimport \"./interfaces/EOption.sol\";\nimport \"./libraries/MathLib.sol\";\nimport \"./libraries/MarketLib.sol\";\nimport \"./libraries/OptionLib.sol\";\nimport \"./governance/Moret.sol\";\nimport \"./pools/Pool.sol\";\nimport \"./pools/MarketMaker.sol\";\nimport \"./OptionVault.sol\";\nimport \"./VolatilityToken.sol\";\n\ncontract Exchange is Ownable, Pausable, EOption{\n  using MarketLib for uint256;\n  using MathLib for uint256;\n  using SafeMath for uint256;\n\n  event NewOption(address indexed _purchaser, address indexed _underlying, uint256 _optionId);\n\n  // immutable addresses\n  OptionVault public immutable vault;\n\n  // contructor. Arguments: pool tokens, volatility oracle, option vault and bot address\n  constructor(OptionVault _optionVault){\n    vault = _optionVault;}\n  \n  function queryOption(Pool _pool, uint256 _tenor, uint256 _strike, uint256 _amount, OptionLib.PayoffType _poType, OptionLib.OptionSide _side, bool _forceATM) external view returns(uint256 _premium, uint256 _collateral, uint256 _price, uint256 _volatility){\n    OptionLib.Option memory _option = OptionLib.Option(_poType, _side, OptionLib.OptionStatus.Draft, msg.sender, 0, block.timestamp,  0, _tenor, 0,  0, _amount, 0, _strike, 0, 0, 0, address(_pool));\n    return vault.calcOptionCost(_option, _forceATM);}\n\n  // functions to transact for option contracts\n  // arguments: pool token address, tenor in seconds, strike in 18 decimals, amount in 18 decimals, payoff type (call 0 or put 1), option side (buy 0 or sell 1)\n  function tradeOption(Pool _pool, uint256 _tenor, uint256 _strike, uint256 _amount, OptionLib.PayoffType _poType, OptionLib.OptionSide _side, OptionLib.PaymentMethod _payment) external whenNotPaused{\n    OptionLib.Option memory _option = OptionLib.Option(_poType, _side, OptionLib.OptionStatus.Draft, msg.sender, 0, block.timestamp,  0, _tenor, 0,  0, _amount, 0, _strike, 0, 0, 0, address(_pool));\n    (uint256 _premium, uint256 _collateral, uint256 _price, uint256 _vol) = vault.calcOptionCost(_option, false);\n\n    // transfer premiums\n    if(_side == OptionLib.OptionSide.Buy){\n      buyOption(_pool, msg.sender, _tenor, _premium, _price, _vol, _payment);\n    }\n    if(_side == OptionLib.OptionSide.Sell){\n      sellOption(_pool, msg.sender, _tenor, _premium, _collateral, _price, _vol, _payment);\n    }\n\n    uint256 _id = vault.addOption(_option, _premium, _collateral, _price, _vol);\n    vault.stampActiveOption(_id, msg.sender);\n\n    emit NewOption(msg.sender, _pool.marketMaker().underlying(), _id);}\n\n  function buyOption(Pool _pool, address _buyer, uint256 _tenor, uint256 _premium, uint256 _price, uint256 _vol, OptionLib.PaymentMethod _payment) internal {\n    MarketMaker _marketMaker = _pool.marketMaker();\n    ERC20 _funding = ERC20(_marketMaker.funding());\n    uint256 _fundingDecimals = _funding.decimals();\n    address _underlyingAddress = _marketMaker.underlying();\n    if(_payment == OptionLib.PaymentMethod.USDC){\n        require(_funding.transferFrom(_buyer, address(_marketMaker), _premium.toDecimals(_fundingDecimals)), '-PM');}\n      else if (_payment == OptionLib.PaymentMethod.Token){\n        ERC20 _underlying = ERC20(_underlyingAddress);\n        uint256 _decimals = _underlying.decimals();\n        require(_underlying.transferFrom(_buyer, address(_marketMaker), _premium.ethdiv(_price).toDecimals(_decimals)), '-PM');}\n      else if (_payment == OptionLib.PaymentMethod.Vol){\n        VolatilityToken _vToken = _marketMaker.govToken().getVolatilityToken(_underlyingAddress, _tenor);\n        (uint256 _volAmount, uint256 _volPrice) = _vToken.getBurnAmount(_premium, _vol);\n        require(_volPrice > _pool.minVolPrice(), 'mVP');\n        _vToken.burn(msg.sender, _volAmount);\n        _vToken.pay(address(_marketMaker), _premium.toDecimals(_fundingDecimals));}}\n\n  function sellOption(Pool _pool, address _buyer, uint256 _tenor, uint256 _premium, uint256 _collateral, uint256 _price, uint256 _vol, OptionLib.PaymentMethod _payment) internal {\n    MarketMaker _marketMaker = _pool.marketMaker();\n    ERC20 _funding = ERC20(_marketMaker.funding());\n    uint256 _fundingDecimals = _funding.decimals();\n    \n    if(_payment == OptionLib.PaymentMethod.USDC){\n      require(_funding.transferFrom(_buyer, address(_marketMaker), (_collateral - _premium).toDecimals(_fundingDecimals)), '-PM');}\n    else if (_payment == OptionLib.PaymentMethod.Token){\n      ERC20 _underlying = ERC20(_marketMaker.underlying());\n      uint256 _decimals = _underlying.decimals();\n      require(_underlying.transferFrom(_buyer, address(_marketMaker), (_collateral - _premium).ethdiv(_price).toDecimals(_decimals)), '-PM');}\n    else if (_payment == OptionLib.PaymentMethod.Vol){\n      if(_collateral > 0){\n        require(_funding.transferFrom(msg.sender, address(_marketMaker), _collateral.toDecimals(_fundingDecimals)), '-CM'); }\n      VolatilityToken _vToken = _marketMaker.govToken().getVolatilityToken(_marketMaker.underlying(), _tenor);\n      (uint256 _volAmount, ) = _vToken.getMintAmount(_premium, _vol);\n      _marketMaker.settlePayment(address(_vToken), _premium.toDecimals(_fundingDecimals)); \n      _vToken.mint(msg.sender, _volAmount);}}\n\n  // functions to transact volatility tokens (buy or sell)\n  // arguments: pool token address, tenor in seconds, strike in 18 decimals, amount in 18 decimals, payoff type (call 0 or put 1), option side (buy 0 or sell 1)\n  function tradeVolToken(Pool _pool, uint256 _tenor, uint256 _amount, OptionLib.OptionSide _side) external whenNotPaused{\n    MarketMaker _marketMaker = _pool.marketMaker();\n    require(_marketMaker.govToken().existVolTradingPool(address(_pool)), '-VP'); // only certified pools can trade vol\n    VolatilityToken _vToken = _marketMaker.govToken().getVolatilityToken(_marketMaker.underlying(), _tenor);\n    OptionLib.Option memory _option = OptionLib.Option(OptionLib.PayoffType.Put, _side, OptionLib.OptionStatus.Draft, msg.sender, 0, block.timestamp,  0, _tenor, 0,  0, _amount, 0, 0, 0, 0, 0, address(_pool));\n\n    ERC20 _funding = ERC20(_marketMaker.funding());\n    uint256 _fundingDecimals = _funding.decimals();\n    (uint256 _premium, , , uint256 _vol) = vault.calcOptionCost(_option, true); \n    \n    uint256 _volAmount;\n    if (_side == OptionLib.OptionSide.Buy){\n      require(_funding.transferFrom(msg.sender, address(_vToken), _premium.toDecimals(_fundingDecimals)), \"-VB\");\n      (_volAmount, ) = _vToken.getMintAmount(_premium, _vol);\n      _vToken.mint(msg.sender, _volAmount);}\n    else{\n      (_volAmount, ) = _vToken.getBurnAmount(_premium, _vol);\n      _vToken.burn(msg.sender, _volAmount);\n      _vToken.pay(msg.sender, _premium.toDecimals(_fundingDecimals));}\n    \n    emit TradeVolatility(msg.sender, address(_pool), _amount, _volAmount, _side == OptionLib.OptionSide.Buy);}\n\n  // get volatility token\n  function getVolatilityToken(Pool _pool, uint256 _tenor) external view returns(VolatilityToken){\n    MarketMaker _marketMaker = _pool.marketMaker();\n    return _marketMaker.govToken().getVolatilityToken(_marketMaker.underlying(), _tenor);\n  }\n\n  // get volatility chain\n  function getVolatilityChain(Pool _pool) external view returns(VolatilityChain){\n    MarketMaker _marketMaker = _pool.marketMaker();\n    return _marketMaker.getVolatilityChain();\n  }\n\n  // expire option contracts (one at a time), with exercise fees paid to the exercising bots.\n  function expireOption(uint256 _expiringId, address _exerciseFeeRecipient) external {\n    (OptionLib.OptionStatus _optionStatus, OptionLib.OptionSide _optionSide, address _optionHolder, Pool _pool) = vault.getOptionInfo(_expiringId);\n\n    if(_optionStatus == OptionLib.OptionStatus.Active){\n      vault.stampExpiredOption(_expiringId);\n      (uint256 _payoff, uint256 _payback,) = vault.getContractPayoff(_expiringId);\n      \n      uint256 _fundingDecimals = ERC20(_pool.marketMaker().funding()).decimals();\n      uint256 _protocolAmount = _payoff.ethmul(_pool.marketMaker().govToken().protocolFee()).toDecimals(_fundingDecimals);\n      uint256 _exerciseAmount = _payoff.ethmul(_pool.exerciseFee()).toDecimals(_fundingDecimals);\n      _payback = _payback.toDecimals(_fundingDecimals);\n\n      if(_optionSide == OptionLib.OptionSide.Buy){\n        _payback = _payback - Math.min(_payback, _protocolAmount + _exerciseAmount);\n\n      MarketMaker _marketMaker = MarketMaker(_pool.marketMaker());\n      _marketMaker.settlePayment(_optionHolder, _payback);\n      _marketMaker.settlePayment(_pool.marketMaker().govToken().protocolFeeRecipient(), _protocolAmount);\n      _marketMaker.settlePayment(_exerciseFeeRecipient, _exerciseAmount);      \n      emit Expire(msg.sender, address(this), _optionHolder, _expiringId, _payback);}}}\n  \n  // add capital by depositing amount in funding tokens\n  function addCapital(Pool _pool, uint256 _depositAmount) external whenNotPaused{\n    uint256 _averageGrossCapital = vault.calcCapital(_pool, false, true);\n    ERC20 _funding = ERC20(_pool.marketMaker().funding());\n    uint256 _mintPoolAmount = _depositAmount.toWei(_funding.decimals()).ethdiv(_averageGrossCapital);\n    require(_funding.transferFrom(msg.sender, address(_pool.marketMaker()), _depositAmount));\n    _pool.mint(msg.sender, _mintPoolAmount);}\n\n  // remove capital by withdrawing amount in funding tokens\n  function withdrawCapital(Pool _pool, uint256 _burnPoolAmount) external whenNotPaused{\n    uint256 _averageNetCapital = vault.calcCapital(_pool, true, true);\n    uint256 _withdrawValue = _averageNetCapital.ethmul(_burnPoolAmount).toDecimals(ERC20(_pool.marketMaker().funding()).decimals()); \n    _pool.burn(msg.sender, _burnPoolAmount);\n    _pool.marketMaker().settlePayment(msg.sender, _withdrawValue);}\n\n  function pause() external onlyOwner{\n    _pause();\n  }\n\n  function unpause() external onlyOwner{\n    _unpause();\n  }\n}\n",
  "sourcePath": "/Users/mac/Documents/GitHub/moret/contracts/Exchange.sol",
  "compiler": {
    "name": "solc",
    "version": "0.8.17+commit.8df45f5f.Emscripten.clang"
  },
  "schemaVersion": "3.4.3",
  "updatedAt": "2022-09-13T03:43:47.248Z",
  "devdoc": {
    "kind": "dev",
    "methods": {
      "owner()": {
        "details": "Returns the address of the current owner."
      },
      "paused()": {
        "details": "Returns true if the contract is paused, and false otherwise."
      },
      "renounceOwnership()": {
        "details": "Leaves the contract without owner. It will not be possible to call `onlyOwner` functions anymore. Can only be called by the current owner. NOTE: Renouncing ownership will leave the contract without an owner, thereby removing any functionality that is only available to the owner."
      },
      "transferOwnership(address)": {
        "details": "Transfers ownership of the contract to a new account (`newOwner`). Can only be called by the current owner."
      }
    },
    "version": 1
  },
  "userdoc": {
    "kind": "user",
    "methods": {},
    "version": 1
  }
}