{
  "contractName": "Exchange",
  "abi": [
    {
      "inputs": [
        {
          "internalType": "contract OptionVault",
          "name": "_optionVault",
          "type": "address"
        }
      ],
      "stateMutability": "nonpayable",
      "type": "constructor"
    },
    {
      "anonymous": false,
      "inputs": [
        {
          "indexed": true,
          "internalType": "address",
          "name": "_holder",
          "type": "address"
        },
        {
          "indexed": true,
          "internalType": "address",
          "name": "_pool",
          "type": "address"
        },
        {
          "indexed": false,
          "internalType": "uint256",
          "name": "_id",
          "type": "uint256"
        },
        {
          "indexed": false,
          "internalType": "uint256",
          "name": "_payoff",
          "type": "uint256"
        },
        {
          "indexed": false,
          "internalType": "address",
          "name": "_bot",
          "type": "address"
        }
      ],
      "name": "Expire",
      "type": "event"
    },
    {
      "anonymous": false,
      "inputs": [
        {
          "indexed": true,
          "internalType": "address",
          "name": "_hedger",
          "type": "address"
        },
        {
          "indexed": true,
          "internalType": "address",
          "name": "_market",
          "type": "address"
        },
        {
          "indexed": false,
          "internalType": "bool",
          "name": "success",
          "type": "bool"
        },
        {
          "indexed": false,
          "internalType": "bytes",
          "name": "data",
          "type": "bytes"
        }
      ],
      "name": "HedgeResponse",
      "type": "event"
    },
    {
      "anonymous": false,
      "inputs": [
        {
          "indexed": true,
          "internalType": "address",
          "name": "_hedger",
          "type": "address"
        },
        {
          "indexed": true,
          "internalType": "address",
          "name": "_market",
          "type": "address"
        },
        {
          "indexed": false,
          "internalType": "uint256[]",
          "name": "amounts",
          "type": "uint256[]"
        }
      ],
      "name": "HedgeSwapResponse",
      "type": "event"
    },
    {
      "anonymous": false,
      "inputs": [
        {
          "indexed": true,
          "internalType": "address",
          "name": "_purchaser",
          "type": "address"
        },
        {
          "indexed": true,
          "internalType": "address",
          "name": "_underlying",
          "type": "address"
        },
        {
          "indexed": false,
          "internalType": "uint256",
          "name": "_optionId",
          "type": "uint256"
        }
      ],
      "name": "NewOption",
      "type": "event"
    },
    {
      "anonymous": false,
      "inputs": [
        {
          "indexed": false,
          "internalType": "address",
          "name": "_newBot",
          "type": "address"
        }
      ],
      "name": "ResetBotAddress",
      "type": "event"
    },
    {
      "anonymous": false,
      "inputs": [
        {
          "indexed": true,
          "internalType": "uint256",
          "name": "_parameterId",
          "type": "uint256"
        },
        {
          "indexed": false,
          "internalType": "uint256",
          "name": "_parameter",
          "type": "uint256"
        }
      ],
      "name": "ResetParameter",
      "type": "event"
    },
    {
      "anonymous": false,
      "inputs": [
        {
          "indexed": true,
          "internalType": "address",
          "name": "_purchaser",
          "type": "address"
        },
        {
          "indexed": true,
          "internalType": "address",
          "name": "_pool",
          "type": "address"
        },
        {
          "indexed": false,
          "internalType": "uint256",
          "name": "_cost",
          "type": "uint256"
        },
        {
          "indexed": false,
          "internalType": "uint256",
          "name": "_volAmount",
          "type": "uint256"
        }
      ],
      "name": "TradeVolatility",
      "type": "event"
    },
    {
      "anonymous": false,
      "inputs": [
        {
          "indexed": true,
          "internalType": "address",
          "name": "_holder",
          "type": "address"
        },
        {
          "indexed": true,
          "internalType": "address",
          "name": "_pool",
          "type": "address"
        },
        {
          "indexed": false,
          "internalType": "uint256",
          "name": "_id",
          "type": "uint256"
        },
        {
          "indexed": false,
          "internalType": "uint256",
          "name": "_payoff",
          "type": "uint256"
        }
      ],
      "name": "Unwind",
      "type": "event"
    },
    {
      "inputs": [],
      "name": "vault",
      "outputs": [
        {
          "internalType": "contract OptionVault",
          "name": "",
          "type": "address"
        }
      ],
      "stateMutability": "view",
      "type": "function",
      "constant": true
    },
    {
      "inputs": [
        {
          "internalType": "contract Pool",
          "name": "_pool",
          "type": "address"
        },
        {
          "internalType": "uint256",
          "name": "_tenor",
          "type": "uint256"
        },
        {
          "internalType": "uint256",
          "name": "_strike",
          "type": "uint256"
        },
        {
          "internalType": "uint256",
          "name": "_spread",
          "type": "uint256"
        },
        {
          "internalType": "uint256",
          "name": "_amount",
          "type": "uint256"
        },
        {
          "internalType": "enum OptionLib.PayoffType",
          "name": "_poType",
          "type": "uint8"
        },
        {
          "internalType": "enum OptionLib.OptionSide",
          "name": "_side",
          "type": "uint8"
        }
      ],
      "name": "queryOption",
      "outputs": [
        {
          "internalType": "uint256",
          "name": "_premium",
          "type": "uint256"
        },
        {
          "internalType": "uint256",
          "name": "_collateral",
          "type": "uint256"
        },
        {
          "internalType": "uint256",
          "name": "_price",
          "type": "uint256"
        },
        {
          "internalType": "uint256",
          "name": "_volatility",
          "type": "uint256"
        },
        {
          "internalType": "uint256",
          "name": "_fee",
          "type": "uint256"
        }
      ],
      "stateMutability": "view",
      "type": "function",
      "constant": true
    },
    {
      "inputs": [
        {
          "internalType": "contract Pool",
          "name": "_pool",
          "type": "address"
        },
        {
          "internalType": "uint256",
          "name": "_tenor",
          "type": "uint256"
        },
        {
          "internalType": "uint256",
          "name": "_strike",
          "type": "uint256"
        },
        {
          "internalType": "uint256",
          "name": "_spread",
          "type": "uint256"
        },
        {
          "internalType": "uint256",
          "name": "_amount",
          "type": "uint256"
        },
        {
          "internalType": "enum OptionLib.PayoffType",
          "name": "_poType",
          "type": "uint8"
        },
        {
          "internalType": "enum OptionLib.OptionSide",
          "name": "_side",
          "type": "uint8"
        },
        {
          "internalType": "enum OptionLib.PaymentMethod",
          "name": "_payment",
          "type": "uint8"
        }
      ],
      "name": "tradeOption",
      "outputs": [],
      "stateMutability": "nonpayable",
      "type": "function"
    },
    {
      "inputs": [
        {
          "internalType": "contract Pool",
          "name": "_pool",
          "type": "address"
        },
        {
          "internalType": "uint256",
          "name": "_tenor",
          "type": "uint256"
        },
        {
          "internalType": "uint256",
          "name": "_amount",
          "type": "uint256"
        },
        {
          "internalType": "enum OptionLib.OptionSide",
          "name": "_side",
          "type": "uint8"
        }
      ],
      "name": "tradeVolToken",
      "outputs": [],
      "stateMutability": "nonpayable",
      "type": "function"
    },
    {
      "inputs": [
        {
          "internalType": "contract Pool",
          "name": "_pool",
          "type": "address"
        },
        {
          "internalType": "uint256",
          "name": "_tenor",
          "type": "uint256"
        }
      ],
      "name": "getVolatilityToken",
      "outputs": [
        {
          "internalType": "contract VolatilityToken",
          "name": "",
          "type": "address"
        }
      ],
      "stateMutability": "view",
      "type": "function",
      "constant": true
    },
    {
      "inputs": [
        {
          "internalType": "contract Pool",
          "name": "_pool",
          "type": "address"
        }
      ],
      "name": "getVolatilityChain",
      "outputs": [
        {
          "internalType": "contract VolatilityChain",
          "name": "",
          "type": "address"
        }
      ],
      "stateMutability": "view",
      "type": "function",
      "constant": true
    },
    {
      "inputs": [
        {
          "internalType": "uint256",
          "name": "_expiringId",
          "type": "uint256"
        },
        {
          "internalType": "address",
          "name": "_exerciseFeeRecipient",
          "type": "address"
        }
      ],
      "name": "expireOption",
      "outputs": [],
      "stateMutability": "nonpayable",
      "type": "function"
    },
    {
      "inputs": [
        {
          "internalType": "uint256",
          "name": "_optionId",
          "type": "uint256"
        }
      ],
      "name": "unwindOption",
      "outputs": [],
      "stateMutability": "nonpayable",
      "type": "function"
    },
    {
      "inputs": [
        {
          "internalType": "contract Pool",
          "name": "_pool",
          "type": "address"
        },
        {
          "internalType": "uint256",
          "name": "_depositAmount",
          "type": "uint256"
        }
      ],
      "name": "addCapital",
      "outputs": [],
      "stateMutability": "nonpayable",
      "type": "function"
    },
    {
      "inputs": [
        {
          "internalType": "contract Pool",
          "name": "_pool",
          "type": "address"
        },
        {
          "internalType": "uint256",
          "name": "_burnPoolAmount",
          "type": "uint256"
        }
      ],
      "name": "withdrawCapital",
      "outputs": [],
      "stateMutability": "nonpayable",
      "type": "function"
    }
  ],
  "bytecode": "0x60a06040523480156200001157600080fd5b50604051620052af380380620052af8339818101604052810190620000379190620000f0565b8073ffffffffffffffffffffffffffffffffffffffff1660808173ffffffffffffffffffffffffffffffffffffffff16815250505062000122565b600080fd5b600073ffffffffffffffffffffffffffffffffffffffff82169050919050565b6000620000a48262000077565b9050919050565b6000620000b88262000097565b9050919050565b620000ca81620000ab565b8114620000d657600080fd5b50565b600081519050620000ea81620000bf565b92915050565b60006020828403121562000109576200010862000072565b5b60006200011984828501620000d9565b91505092915050565b60805161511662000199600039600081816102ef0152818161042e015281816104bc01528181610c1201528181611455015281816114fd015281816116e3015281816117be0152818161184e0152818161264b01528181612bed0152818161311b015281816131d1015261362801526151166000f3fe608060405234801561001057600080fd5b506004361061009e5760003560e01c8063826fdbbd11610066578063826fdbbd146101575780639111fccd14610173578063b3c5a1011461018f578063e98254bb146101c3578063fbfa77cf146101df5761009e565b806315dc2e9d146100a35780631df9fa81146100d357806331d975d2146100ef57806354f6e8c81461010b5780636cce891614610127575b600080fd5b6100bd60048036038101906100b89190613db4565b6101fd565b6040516100ca9190613e40565b60405180910390f35b6100ed60048036038101906100e89190613e91565b6102e8565b005b61010960048036038101906101049190613f2d565b610a39565b005b6101256004803603810190610120919061400f565b6116db565b005b610141600480360381019061013c919061404f565b611ebc565b60405161014e91906140b0565b60405180910390f35b610171600480360381019061016c91906140cb565b612091565b005b61018d6004803603810190610188919061404f565b612be9565b005b6101a960048036038101906101a49190614132565b61301f565b6040516101ba9594939291906141e3565b60405180910390f35b6101dd60048036038101906101d8919061404f565b6131cd565b005b6101e7613626565b6040516101f49190614257565b60405180910390f35b6000808273ffffffffffffffffffffffffffffffffffffffff16631f21f9af6040518163ffffffff1660e01b8152600401602060405180830381865afa15801561024b573d6000803e3d6000fd5b505050506040513d601f19601f8201168201806040525081019061026f91906142b0565b90508073ffffffffffffffffffffffffffffffffffffffff1663c0a16f6a6040518163ffffffff1660e01b8152600401602060405180830381865afa1580156102bc573d6000803e3d6000fd5b505050506040513d601f19601f820116820180604052508101906102e0919061431b565b915050919050565b60008060007f000000000000000000000000000000000000000000000000000000000000000073ffffffffffffffffffffffffffffffffffffffff1663fc9d80e0856040518263ffffffff1660e01b81526004016103469190614348565b608060405180830381865afa158015610363573d6000803e3d6000fd5b505050506040513d601f19601f8201168201806040525081019061038791906143c7565b93509350509250600160038111156103a2576103a161442e565b5b8360038111156103b5576103b461442e565b5b1480156103ed57503373ffffffffffffffffffffffffffffffffffffffff168273ffffffffffffffffffffffffffffffffffffffff16145b61042c576040517f08c379a0000000000000000000000000000000000000000000000000000000008152600401610423906144ba565b60405180910390fd5b7f000000000000000000000000000000000000000000000000000000000000000073ffffffffffffffffffffffffffffffffffffffff1663637baf60856040518263ffffffff1660e01b81526004016104859190614348565b600060405180830381600087803b15801561049f57600080fd5b505af11580156104b3573d6000803e3d6000fd5b505050506000807f000000000000000000000000000000000000000000000000000000000000000073ffffffffffffffffffffffffffffffffffffffff166335080705876040518263ffffffff1660e01b81526004016105139190614348565b6040805180830381865afa15801561052f573d6000803e3d6000fd5b505050506040513d601f19601f8201168201806040525081019061055391906144da565b9150915060008373ffffffffffffffffffffffffffffffffffffffff16631f21f9af6040518163ffffffff1660e01b8152600401602060405180830381865afa1580156105a4573d6000803e3d6000fd5b505050506040513d601f19601f820116820180604052508101906105c891906142b0565b905060008173ffffffffffffffffffffffffffffffffffffffff1663cb4c86b76040518163ffffffff1660e01b8152600401602060405180830381865afa158015610617573d6000803e3d6000fd5b505050506040513d601f19601f8201168201806040525081019061063b919061451a565b73ffffffffffffffffffffffffffffffffffffffff1663313ce5676040518163ffffffff1660e01b8152600401602060405180830381865afa158015610685573d6000803e3d6000fd5b505050506040513d601f19601f820116820180604052508101906106a99190614580565b60ff1690508173ffffffffffffffffffffffffffffffffffffffff16633e60e3488673ffffffffffffffffffffffffffffffffffffffff16631f21f9af6040518163ffffffff1660e01b8152600401602060405180830381865afa158015610715573d6000803e3d6000fd5b505050506040513d601f19601f8201168201806040525081019061073991906142b0565b73ffffffffffffffffffffffffffffffffffffffff166305268cff6040518163ffffffff1660e01b8152600401602060405180830381865afa158015610783573d6000803e3d6000fd5b505050506040513d601f19601f820116820180604052508101906107a791906145eb565b73ffffffffffffffffffffffffffffffffffffffff166364df049e6040518163ffffffff1660e01b8152600401602060405180830381865afa1580156107f1573d6000803e3d6000fd5b505050506040513d601f19601f82011682018060405250810190610815919061451a565b8573__MarketLib_____________________________63174e20e69091866040518363ffffffff1660e01b8152600401610850929190614627565b602060405180830381865af415801561086d573d6000803e3d6000fd5b505050506040513d601f19601f820116820180604052508101906108919190614650565b6040518363ffffffff1660e01b81526004016108ae92919061468c565b600060405180830381600087803b1580156108c857600080fd5b505af11580156108dc573d6000803e3d6000fd5b505050508173ffffffffffffffffffffffffffffffffffffffff16633e60e348878673__MarketLib_____________________________63174e20e69091866040518363ffffffff1660e01b8152600401610938929190614627565b602060405180830381865af4158015610955573d6000803e3d6000fd5b505050506040513d601f19601f820116820180604052508101906109799190614650565b6040518363ffffffff1660e01b815260040161099692919061468c565b600060405180830381600087803b1580156109b057600080fd5b505af11580156109c4573d6000803e3d6000fd5b505050508473ffffffffffffffffffffffffffffffffffffffff168673ffffffffffffffffffffffffffffffffffffffff167fc4283de4990ce720e1ebcb2fec1d9f7eccd108f063cc96b11313dd95f743b9ba8a87604051610a279291906146b5565b60405180910390a35050505050505050565b3073ffffffffffffffffffffffffffffffffffffffff168873ffffffffffffffffffffffffffffffffffffffff1663d2f7265a6040518163ffffffff1660e01b8152600401602060405180830381865afa158015610a9b573d6000803e3d6000fd5b505050506040513d601f19601f82011682018060405250810190610abf919061451a565b73ffffffffffffffffffffffffffffffffffffffff1614610b15576040517f08c379a0000000000000000000000000000000000000000000000000000000008152600401610b0c9061472a565b60405180910390fd5b6000604051806102800160405280856003811115610b3657610b3561442e565b5b8152602001846001811115610b4e57610b4d61442e565b5b815260200160006003811115610b6757610b6661442e565b5b81526020013373ffffffffffffffffffffffffffffffffffffffff16815260200160008152602001428152602001600081526020018981526020016000815260200160008152602001868152602001600081526020018881526020018781526020016000815260200160008152602001600081526020018a73ffffffffffffffffffffffffffffffffffffffff168152602001600081526020016000815250905060008060008060007f000000000000000000000000000000000000000000000000000000000000000073ffffffffffffffffffffffffffffffffffffffff16638ac794fb876040518263ffffffff1660e01b8152600401610c6991906149f7565b60a060405180830381865afa158015610c86573d6000803e3d6000fd5b505050506040513d601f19601f82011682018060405250810190610caa9190614a13565b9450945094509450945060008e73ffffffffffffffffffffffffffffffffffffffff16631f21f9af6040518163ffffffff1660e01b8152600401602060405180830381865afa158015610d01573d6000803e3d6000fd5b505050506040513d601f19601f82011682018060405250810190610d2591906142b0565b9050600280811115610d3a57610d3961442e565b5b886002811115610d4d57610d4c61442e565b5b03610fa05760008286610d609190614abd565b1115610f8e5760008173ffffffffffffffffffffffffffffffffffffffff1663cb4c86b76040518163ffffffff1660e01b8152600401602060405180830381865afa158015610db3573d6000803e3d6000fd5b505050506040513d601f19601f82011682018060405250810190610dd7919061451a565b90508073ffffffffffffffffffffffffffffffffffffffff166323b872dd3384868a610e039190614abd565b73__MarketLib_____________________________63174e20e690918773ffffffffffffffffffffffffffffffffffffffff1663313ce5676040518163ffffffff1660e01b8152600401602060405180830381865afa158015610e6a573d6000803e3d6000fd5b505050506040513d601f19601f82011682018060405250810190610e8e9190614580565b6040518363ffffffff1660e01b8152600401610eab929190614b22565b602060405180830381865af4158015610ec8573d6000803e3d6000fd5b505050506040513d601f19601f82011682018060405250810190610eec9190614650565b6040518463ffffffff1660e01b8152600401610f0a93929190614b4b565b6020604051808303816000875af1158015610f29573d6000803e3d6000fd5b505050506040513d601f19601f82011682018060405250810190610f4d9190614bba565b610f8c576040517f08c379a0000000000000000000000000000000000000000000000000000000008152600401610f8390614c33565b60405180910390fd5b505b610f9b8f8f88868d61364a565b611451565b600060016002811115610fb657610fb561442e565b5b896002811115610fc957610fc861442e565b5b14611042578173ffffffffffffffffffffffffffffffffffffffff1663cb4c86b76040518163ffffffff1660e01b8152600401602060405180830381865afa158015611019573d6000803e3d6000fd5b505050506040513d601f19601f8201168201806040525081019061103d919061451a565b6110b2565b8173ffffffffffffffffffffffffffffffffffffffff16636f307dc36040518163ffffffff1660e01b8152600401602060405180830381865afa15801561108d573d6000803e3d6000fd5b505050506040513d601f19601f820116820180604052508101906110b1919061451a565b5b905060008060018111156110c9576110c861442e565b5b8b60018111156110dc576110db61442e565b5b146110fd578784886110ee9190614abd565b6110f89190614c53565b61110a565b87846111099190614abd565b5b9050600160028111156111205761111f61442e565b5b8a60028111156111335761113261442e565b5b14611227578073__MarketLib_____________________________63174e20e690918473ffffffffffffffffffffffffffffffffffffffff1663313ce5676040518163ffffffff1660e01b8152600401602060405180830381865afa1580156111a0573d6000803e3d6000fd5b505050506040513d601f19601f820116820180604052508101906111c49190614580565b6040518363ffffffff1660e01b81526004016111e1929190614b22565b602060405180830381865af41580156111fe573d6000803e3d6000fd5b505050506040513d601f19601f820116820180604052508101906112229190614650565b61138d565b8073__MathLib_______________________________63de7f61709091886040518363ffffffff1660e01b8152600401611262929190614627565b602060405180830381865af415801561127f573d6000803e3d6000fd5b505050506040513d601f19601f820116820180604052508101906112a39190614650565b73__MarketLib_____________________________63174e20e690918473ffffffffffffffffffffffffffffffffffffffff1663313ce5676040518163ffffffff1660e01b8152600401602060405180830381865afa15801561130a573d6000803e3d6000fd5b505050506040513d601f19601f8201168201806040525081019061132e9190614580565b6040518363ffffffff1660e01b815260040161134b929190614b22565b602060405180830381865af4158015611368573d6000803e3d6000fd5b505050506040513d601f19601f8201168201806040525081019061138c9190614650565b5b90508173ffffffffffffffffffffffffffffffffffffffff166323b872dd3385846040518463ffffffff1660e01b81526004016113cc93929190614b4b565b6020604051808303816000875af11580156113eb573d6000803e3d6000fd5b505050506040513d601f19601f8201168201806040525081019061140f9190614bba565b61144e576040517f08c379a000000000000000000000000000000000000000000000000000000000815260040161144590614cd3565b60405180910390fd5b50505b60007f000000000000000000000000000000000000000000000000000000000000000073ffffffffffffffffffffffffffffffffffffffff16636d0252c88989898989896040518763ffffffff1660e01b81526004016114b696959493929190614cf3565b6020604051808303816000875af11580156114d5573d6000803e3d6000fd5b505050506040513d601f19601f820116820180604052508101906114f99190614650565b90507f000000000000000000000000000000000000000000000000000000000000000073ffffffffffffffffffffffffffffffffffffffff166324b4110e82336040518363ffffffff1660e01b8152600401611556929190614d5a565b600060405180830381600087803b15801561157057600080fd5b505af1158015611584573d6000803e3d6000fd5b505050508f73ffffffffffffffffffffffffffffffffffffffff16631f21f9af6040518163ffffffff1660e01b8152600401602060405180830381865afa1580156115d3573d6000803e3d6000fd5b505050506040513d601f19601f820116820180604052508101906115f791906142b0565b73ffffffffffffffffffffffffffffffffffffffff16636f307dc36040518163ffffffff1660e01b8152600401602060405180830381865afa158015611641573d6000803e3d6000fd5b505050506040513d601f19601f82011682018060405250810190611665919061451a565b73ffffffffffffffffffffffffffffffffffffffff163373ffffffffffffffffffffffffffffffffffffffff167f43e72efa3a4fa0d2e34fd004e07a50adf9a48ccb50611e1f75eefffbc3a65c67836040516116c19190614348565b60405180910390a350505050505050505050505050505050565b6000806000807f000000000000000000000000000000000000000000000000000000000000000073ffffffffffffffffffffffffffffffffffffffff1663fc9d80e0876040518263ffffffff1660e01b815260040161173a9190614348565b608060405180830381865afa158015611757573d6000803e3d6000fd5b505050506040513d601f19601f8201168201806040525081019061177b91906143c7565b9350935093509350600160038111156117975761179661442e565b5b8460038111156117aa576117a961442e565b5b1480156117b75750428311155b15611eb4577f000000000000000000000000000000000000000000000000000000000000000073ffffffffffffffffffffffffffffffffffffffff1663637baf60876040518263ffffffff1660e01b81526004016118159190614348565b600060405180830381600087803b15801561182f57600080fd5b505af1158015611843573d6000803e3d6000fd5b5050505060008060007f000000000000000000000000000000000000000000000000000000000000000073ffffffffffffffffffffffffffffffffffffffff166385ae10e68a6040518263ffffffff1660e01b81526004016118a59190614348565b606060405180830381865afa1580156118c2573d6000803e3d6000fd5b505050506040513d601f19601f820116820180604052508101906118e69190614d83565b92509250925060008473ffffffffffffffffffffffffffffffffffffffff16631f21f9af6040518163ffffffff1660e01b8152600401602060405180830381865afa158015611939573d6000803e3d6000fd5b505050506040513d601f19601f8201168201806040525081019061195d91906142b0565b905060008173ffffffffffffffffffffffffffffffffffffffff1663cb4c86b76040518163ffffffff1660e01b8152600401602060405180830381865afa1580156119ac573d6000803e3d6000fd5b505050506040513d601f19601f820116820180604052508101906119d0919061451a565b73ffffffffffffffffffffffffffffffffffffffff1663313ce5676040518163ffffffff1660e01b8152600401602060405180830381865afa158015611a1a573d6000803e3d6000fd5b505050506040513d601f19601f82011682018060405250810190611a3e9190614580565b60ff1690508173ffffffffffffffffffffffffffffffffffffffff16633e60e3488773ffffffffffffffffffffffffffffffffffffffff16631f21f9af6040518163ffffffff1660e01b8152600401602060405180830381865afa158015611aaa573d6000803e3d6000fd5b505050506040513d601f19601f82011682018060405250810190611ace91906142b0565b73ffffffffffffffffffffffffffffffffffffffff166305268cff6040518163ffffffff1660e01b8152600401602060405180830381865afa158015611b18573d6000803e3d6000fd5b505050506040513d601f19601f82011682018060405250810190611b3c91906145eb565b73ffffffffffffffffffffffffffffffffffffffff166364df049e6040518163ffffffff1660e01b8152600401602060405180830381865afa158015611b86573d6000803e3d6000fd5b505050506040513d601f19601f82011682018060405250810190611baa919061451a565b8673__MarketLib_____________________________63174e20e69091866040518363ffffffff1660e01b8152600401611be5929190614627565b602060405180830381865af4158015611c02573d6000803e3d6000fd5b505050506040513d601f19601f82011682018060405250810190611c269190614650565b6040518363ffffffff1660e01b8152600401611c4392919061468c565b600060405180830381600087803b158015611c5d57600080fd5b505af1158015611c71573d6000803e3d6000fd5b505050508173ffffffffffffffffffffffffffffffffffffffff16633e60e348888773__MarketLib_____________________________63174e20e69091866040518363ffffffff1660e01b8152600401611ccd929190614627565b602060405180830381865af4158015611cea573d6000803e3d6000fd5b505050506040513d601f19601f82011682018060405250810190611d0e9190614650565b6040518363ffffffff1660e01b8152600401611d2b92919061468c565b600060405180830381600087803b158015611d4557600080fd5b505af1158015611d59573d6000803e3d6000fd5b505050508173ffffffffffffffffffffffffffffffffffffffff16633e60e3488b8573__MarketLib_____________________________63174e20e69091866040518363ffffffff1660e01b8152600401611db5929190614627565b602060405180830381865af4158015611dd2573d6000803e3d6000fd5b505050506040513d601f19601f82011682018060405250810190611df69190614650565b6040518363ffffffff1660e01b8152600401611e1392919061468c565b600060405180830381600087803b158015611e2d57600080fd5b505af1158015611e41573d6000803e3d6000fd5b505050508573ffffffffffffffffffffffffffffffffffffffff168773ffffffffffffffffffffffffffffffffffffffff167fed310d3af0cb4fbec3383307f0574d2c617caa57e4e0d6a24787dfe7e5f3d8448d8833604051611ea693929190614dd6565b60405180910390a350505050505b505050505050565b6000808373ffffffffffffffffffffffffffffffffffffffff16631f21f9af6040518163ffffffff1660e01b8152600401602060405180830381865afa158015611f0a573d6000803e3d6000fd5b505050506040513d601f19601f82011682018060405250810190611f2e91906142b0565b90508073ffffffffffffffffffffffffffffffffffffffff166305268cff6040518163ffffffff1660e01b8152600401602060405180830381865afa158015611f7b573d6000803e3d6000fd5b505050506040513d601f19601f82011682018060405250810190611f9f91906145eb565b73ffffffffffffffffffffffffffffffffffffffff16636cce89168273ffffffffffffffffffffffffffffffffffffffff16636f307dc36040518163ffffffff1660e01b8152600401602060405180830381865afa158015612005573d6000803e3d6000fd5b505050506040513d601f19601f82011682018060405250810190612029919061451a565b856040518363ffffffff1660e01b815260040161204792919061468c565b602060405180830381865afa158015612064573d6000803e3d6000fd5b505050506040513d601f19601f820116820180604052508101906120889190614e4b565b91505092915050565b60008473ffffffffffffffffffffffffffffffffffffffff16631f21f9af6040518163ffffffff1660e01b8152600401602060405180830381865afa1580156120de573d6000803e3d6000fd5b505050506040513d601f19601f8201168201806040525081019061210291906142b0565b90508073ffffffffffffffffffffffffffffffffffffffff166305268cff6040518163ffffffff1660e01b8152600401602060405180830381865afa15801561214f573d6000803e3d6000fd5b505050506040513d601f19601f8201168201806040525081019061217391906145eb565b73ffffffffffffffffffffffffffffffffffffffff1663255fdcff866040518263ffffffff1660e01b81526004016121ab9190614e78565b602060405180830381865afa1580156121c8573d6000803e3d6000fd5b505050506040513d601f19601f820116820180604052508101906121ec9190614bba565b61222b576040517f08c379a000000000000000000000000000000000000000000000000000000000815260040161222290614edf565b60405180910390fd5b60008173ffffffffffffffffffffffffffffffffffffffff166305268cff6040518163ffffffff1660e01b8152600401602060405180830381865afa158015612278573d6000803e3d6000fd5b505050506040513d601f19601f8201168201806040525081019061229c91906145eb565b73ffffffffffffffffffffffffffffffffffffffff16636cce89168373ffffffffffffffffffffffffffffffffffffffff16636f307dc36040518163ffffffff1660e01b8152600401602060405180830381865afa158015612302573d6000803e3d6000fd5b505050506040513d601f19601f82011682018060405250810190612326919061451a565b876040518363ffffffff1660e01b815260040161234492919061468c565b602060405180830381865afa158015612361573d6000803e3d6000fd5b505050506040513d601f19601f820116820180604052508101906123859190614e4b565b905060008273ffffffffffffffffffffffffffffffffffffffff1663c0a16f6a6040518163ffffffff1660e01b8152600401602060405180830381865afa1580156123d4573d6000803e3d6000fd5b505050506040513d601f19601f820116820180604052508101906123f8919061431b565b905060006040518061028001604052806001600381111561241c5761241b61442e565b5b81526020018660018111156124345761243361442e565b5b81526020016000600381111561244d5761244c61442e565b5b81526020013373ffffffffffffffffffffffffffffffffffffffff16815260200160008152602001428152602001600081526020018881526020016000815260200160008152602001878152602001600081526020018373ffffffffffffffffffffffffffffffffffffffff1663b0667cf86040518163ffffffff1660e01b8152600401602060405180830381865afa1580156124ee573d6000803e3d6000fd5b505050506040513d601f19601f820116820180604052508101906125129190614650565b8152602001600081526020016000815260200160008152602001600081526020018973ffffffffffffffffffffffffffffffffffffffff168152602001600081526020016000815250905060008473ffffffffffffffffffffffffffffffffffffffff1663cb4c86b76040518163ffffffff1660e01b8152600401602060405180830381865afa1580156125aa573d6000803e3d6000fd5b505050506040513d601f19601f820116820180604052508101906125ce919061451a565b905060008173ffffffffffffffffffffffffffffffffffffffff1663313ce5676040518163ffffffff1660e01b8152600401602060405180830381865afa15801561261d573d6000803e3d6000fd5b505050506040513d601f19601f820116820180604052508101906126419190614580565b60ff1690506000807f000000000000000000000000000000000000000000000000000000000000000073ffffffffffffffffffffffffffffffffffffffff16638ac794fb866040518263ffffffff1660e01b81526004016126a291906149f7565b60a060405180830381865afa1580156126bf573d6000803e3d6000fd5b505050506040513d601f19601f820116820180604052508101906126e39190614a13565b509350505091506000808873ffffffffffffffffffffffffffffffffffffffff1663dadc3bf8858560018081111561271e5761271d61442e565b5b8f60018111156127315761273061442e565b5b146040518463ffffffff1660e01b815260040161275093929190614f0e565b6040805180830381865afa15801561276c573d6000803e3d6000fd5b505050506040513d601f19601f8201168201806040525081019061279091906144da565b915091508d73ffffffffffffffffffffffffffffffffffffffff1663372688b06040518163ffffffff1660e01b8152600401602060405180830381865afa1580156127df573d6000803e3d6000fd5b505050506040513d601f19601f820116820180604052508101906128039190614650565b8111612844576040517f08c379a000000000000000000000000000000000000000000000000000000000815260040161283b90614f91565b60405180910390fd5b600060018111156128585761285761442e565b5b8b600181111561286b5761286a61442e565b5b03612a1c578573ffffffffffffffffffffffffffffffffffffffff166323b872dd338b8773__MarketLib_____________________________63174e20e690918b6040518363ffffffff1660e01b81526004016128c9929190614627565b602060405180830381865af41580156128e6573d6000803e3d6000fd5b505050506040513d601f19601f8201168201806040525081019061290a9190614650565b6040518463ffffffff1660e01b815260040161292893929190614b4b565b6020604051808303816000875af1158015612947573d6000803e3d6000fd5b505050506040513d601f19601f8201168201806040525081019061296b9190614bba565b6129aa576040517f08c379a00000000000000000000000000000000000000000000000000000000081526004016129a190614ffd565b60405180910390fd5b8873ffffffffffffffffffffffffffffffffffffffff166340c10f1933846040518363ffffffff1660e01b81526004016129e592919061468c565b600060405180830381600087803b1580156129ff57600080fd5b505af1158015612a13573d6000803e3d6000fd5b50505050612b72565b8873ffffffffffffffffffffffffffffffffffffffff16639dc29fac33846040518363ffffffff1660e01b8152600401612a5792919061468c565b600060405180830381600087803b158015612a7157600080fd5b505af1158015612a85573d6000803e3d6000fd5b505050508873ffffffffffffffffffffffffffffffffffffffff1663c4076876338673__MarketLib_____________________________63174e20e690918a6040518363ffffffff1660e01b8152600401612ae1929190614627565b602060405180830381865af4158015612afe573d6000803e3d6000fd5b505050506040513d601f19601f82011682018060405250810190612b229190614650565b6040518363ffffffff1660e01b8152600401612b3f92919061468c565b600060405180830381600087803b158015612b5957600080fd5b505af1158015612b6d573d6000803e3d6000fd5b505050505b8d73ffffffffffffffffffffffffffffffffffffffff163373ffffffffffffffffffffffffffffffffffffffff167f0a7cf8b9a296a34511e9e96ac84af791d1ee68f8c5b6301217c50c24e6d933508e85604051612bd19291906146b5565b60405180910390a35050505050505050505050505050565b60007f000000000000000000000000000000000000000000000000000000000000000073ffffffffffffffffffffffffffffffffffffffff16635c273c2f846001806040518463ffffffff1660e01b8152600401612c499392919061503e565b602060405180830381865afa158015612c66573d6000803e3d6000fd5b505050506040513d601f19601f82011682018060405250810190612c8a9190614650565b905060008173__MathLib_______________________________63fed4a0f39091856040518363ffffffff1660e01b8152600401612cc9929190614627565b602060405180830381865af4158015612ce6573d6000803e3d6000fd5b505050506040513d601f19601f82011682018060405250810190612d0a9190614650565b73__MarketLib_____________________________63174e20e690918673ffffffffffffffffffffffffffffffffffffffff16631f21f9af6040518163ffffffff1660e01b8152600401602060405180830381865afa158015612d71573d6000803e3d6000fd5b505050506040513d601f19601f82011682018060405250810190612d9591906142b0565b73ffffffffffffffffffffffffffffffffffffffff1663cb4c86b76040518163ffffffff1660e01b8152600401602060405180830381865afa158015612ddf573d6000803e3d6000fd5b505050506040513d601f19601f82011682018060405250810190612e03919061451a565b73ffffffffffffffffffffffffffffffffffffffff1663313ce5676040518163ffffffff1660e01b8152600401602060405180830381865afa158015612e4d573d6000803e3d6000fd5b505050506040513d601f19601f82011682018060405250810190612e719190614580565b6040518363ffffffff1660e01b8152600401612e8e929190614b22565b602060405180830381865af4158015612eab573d6000803e3d6000fd5b505050506040513d601f19601f82011682018060405250810190612ecf9190614650565b90508373ffffffffffffffffffffffffffffffffffffffff16639dc29fac33856040518363ffffffff1660e01b8152600401612f0c92919061468c565b600060405180830381600087803b158015612f2657600080fd5b505af1158015612f3a573d6000803e3d6000fd5b505050508373ffffffffffffffffffffffffffffffffffffffff16631f21f9af6040518163ffffffff1660e01b8152600401602060405180830381865afa158015612f89573d6000803e3d6000fd5b505050506040513d601f19601f82011682018060405250810190612fad91906142b0565b73ffffffffffffffffffffffffffffffffffffffff16633e60e34833836040518363ffffffff1660e01b8152600401612fe792919061468c565b600060405180830381600087803b15801561300157600080fd5b505af1158015613015573d6000803e3d6000fd5b5050505050505050565b6000806000806000806040518061028001604052808960038111156130475761304661442e565b5b815260200188600181111561305f5761305e61442e565b5b8152602001600060038111156130785761307761442e565b5b81526020013373ffffffffffffffffffffffffffffffffffffffff16815260200160008152602001428152602001600081526020018d815260200160008152602001600081526020018a8152602001600081526020018c81526020018b81526020016000815260200160008152602001600081526020018e73ffffffffffffffffffffffffffffffffffffffff16815260200160008152602001600081525090507f000000000000000000000000000000000000000000000000000000000000000073ffffffffffffffffffffffffffffffffffffffff16638ac794fb826040518263ffffffff1660e01b815260040161317291906149f7565b60a060405180830381865afa15801561318f573d6000803e3d6000fd5b505050506040513d601f19601f820116820180604052508101906131b39190614a13565b955095509550955095505097509750975097509792505050565b60007f000000000000000000000000000000000000000000000000000000000000000073ffffffffffffffffffffffffffffffffffffffff16635c273c2f84600060016040518463ffffffff1660e01b815260040161322e9392919061503e565b602060405180830381865afa15801561324b573d6000803e3d6000fd5b505050506040513d601f19601f8201168201806040525081019061326f9190614650565b905060008373ffffffffffffffffffffffffffffffffffffffff16631f21f9af6040518163ffffffff1660e01b8152600401602060405180830381865afa1580156132be573d6000803e3d6000fd5b505050506040513d601f19601f820116820180604052508101906132e291906142b0565b73ffffffffffffffffffffffffffffffffffffffff1663cb4c86b76040518163ffffffff1660e01b8152600401602060405180830381865afa15801561332c573d6000803e3d6000fd5b505050506040513d601f19601f82011682018060405250810190613350919061451a565b905060008373__MarketLib_____________________________63ed1bb19990918473ffffffffffffffffffffffffffffffffffffffff1663313ce5676040518163ffffffff1660e01b8152600401602060405180830381865afa1580156133bc573d6000803e3d6000fd5b505050506040513d601f19601f820116820180604052508101906133e09190614580565b6040518363ffffffff1660e01b81526004016133fd929190614b22565b602060405180830381865af415801561341a573d6000803e3d6000fd5b505050506040513d601f19601f8201168201806040525081019061343e9190614650565b73__MathLib_______________________________63de7f61709091856040518363ffffffff1660e01b8152600401613478929190614627565b602060405180830381865af4158015613495573d6000803e3d6000fd5b505050506040513d601f19601f820116820180604052508101906134b99190614650565b90508173ffffffffffffffffffffffffffffffffffffffff166323b872dd338773ffffffffffffffffffffffffffffffffffffffff16631f21f9af6040518163ffffffff1660e01b8152600401602060405180830381865afa158015613523573d6000803e3d6000fd5b505050506040513d601f19601f8201168201806040525081019061354791906142b0565b876040518463ffffffff1660e01b815260040161356693929190614b4b565b6020604051808303816000875af1158015613585573d6000803e3d6000fd5b505050506040513d601f19601f820116820180604052508101906135a99190614bba565b6135b257600080fd5b8473ffffffffffffffffffffffffffffffffffffffff166340c10f1933836040518363ffffffff1660e01b81526004016135ed92919061468c565b600060405180830381600087803b15801561360757600080fd5b505af115801561361b573d6000803e3d6000fd5b505050505050505050565b7f000000000000000000000000000000000000000000000000000000000000000081565b60008573ffffffffffffffffffffffffffffffffffffffff16631f21f9af6040518163ffffffff1660e01b8152600401602060405180830381865afa158015613697573d6000803e3d6000fd5b505050506040513d601f19601f820116820180604052508101906136bb91906142b0565b905060008173ffffffffffffffffffffffffffffffffffffffff166305268cff6040518163ffffffff1660e01b8152600401602060405180830381865afa15801561370a573d6000803e3d6000fd5b505050506040513d601f19601f8201168201806040525081019061372e91906145eb565b73ffffffffffffffffffffffffffffffffffffffff16636cce89168373ffffffffffffffffffffffffffffffffffffffff16636f307dc36040518163ffffffff1660e01b8152600401602060405180830381865afa158015613794573d6000803e3d6000fd5b505050506040513d601f19601f820116820180604052508101906137b8919061451a565b886040518363ffffffff1660e01b81526004016137d692919061468c565b602060405180830381865afa1580156137f3573d6000803e3d6000fd5b505050506040513d601f19601f820116820180604052508101906138179190614e4b565b905060008173ffffffffffffffffffffffffffffffffffffffff1663cb4c86b76040518163ffffffff1660e01b8152600401602060405180830381865afa158015613866573d6000803e3d6000fd5b505050506040513d601f19601f8201168201806040525081019061388a91906150b3565b73ffffffffffffffffffffffffffffffffffffffff1663313ce5676040518163ffffffff1660e01b8152600401602060405180830381865afa1580156138d4573d6000803e3d6000fd5b505050506040513d601f19601f820116820180604052508101906138f89190614580565b60ff1690506000808373ffffffffffffffffffffffffffffffffffffffff1663dadc3bf889896001808111156139315761393061442e565b5b8a60018111156139445761394361442e565b5b146040518463ffffffff1660e01b815260040161396393929190614f0e565b6040805180830381865afa15801561397f573d6000803e3d6000fd5b505050506040513d601f19601f820116820180604052508101906139a391906144da565b915091508973ffffffffffffffffffffffffffffffffffffffff1663372688b06040518163ffffffff1660e01b8152600401602060405180830381865afa1580156139f2573d6000803e3d6000fd5b505050506040513d601f19601f82011682018060405250810190613a169190614650565b8111613a57576040517f08c379a0000000000000000000000000000000000000000000000000000000008152600401613a4e90614f91565b60405180910390fd5b60006001811115613a6b57613a6a61442e565b5b866001811115613a7e57613a7d61442e565b5b03613bdd578373ffffffffffffffffffffffffffffffffffffffff16639dc29fac33846040518363ffffffff1660e01b8152600401613abe92919061468c565b600060405180830381600087803b158015613ad857600080fd5b505af1158015613aec573d6000803e3d6000fd5b505050508373ffffffffffffffffffffffffffffffffffffffff1663c4076876868a73__MarketLib_____________________________63174e20e69091886040518363ffffffff1660e01b8152600401613b48929190614627565b602060405180830381865af4158015613b65573d6000803e3d6000fd5b505050506040513d601f19601f82011682018060405250810190613b899190614650565b6040518363ffffffff1660e01b8152600401613ba692919061468c565b600060405180830381600087803b158015613bc057600080fd5b505af1158015613bd4573d6000803e3d6000fd5b50505050613d33565b8473ffffffffffffffffffffffffffffffffffffffff16633e60e348858a73__MarketLib_____________________________63174e20e69091886040518363ffffffff1660e01b8152600401613c35929190614627565b602060405180830381865af4158015613c52573d6000803e3d6000fd5b505050506040513d601f19601f82011682018060405250810190613c769190614650565b6040518363ffffffff1660e01b8152600401613c9392919061468c565b600060405180830381600087803b158015613cad57600080fd5b505af1158015613cc1573d6000803e3d6000fd5b505050508373ffffffffffffffffffffffffffffffffffffffff166340c10f1933846040518363ffffffff1660e01b8152600401613d0092919061468c565b600060405180830381600087803b158015613d1a57600080fd5b505af1158015613d2e573d6000803e3d6000fd5b505050505b50505050505050505050565b600080fd5b600073ffffffffffffffffffffffffffffffffffffffff82169050919050565b6000613d6f82613d44565b9050919050565b6000613d8182613d64565b9050919050565b613d9181613d76565b8114613d9c57600080fd5b50565b600081359050613dae81613d88565b92915050565b600060208284031215613dca57613dc9613d3f565b5b6000613dd884828501613d9f565b91505092915050565b6000819050919050565b6000613e06613e01613dfc84613d44565b613de1565b613d44565b9050919050565b6000613e1882613deb565b9050919050565b6000613e2a82613e0d565b9050919050565b613e3a81613e1f565b82525050565b6000602082019050613e556000830184613e31565b92915050565b6000819050919050565b613e6e81613e5b565b8114613e7957600080fd5b50565b600081359050613e8b81613e65565b92915050565b600060208284031215613ea757613ea6613d3f565b5b6000613eb584828501613e7c565b91505092915050565b60048110613ecb57600080fd5b50565b600081359050613edd81613ebe565b92915050565b60028110613ef057600080fd5b50565b600081359050613f0281613ee3565b92915050565b60038110613f1557600080fd5b50565b600081359050613f2781613f08565b92915050565b600080600080600080600080610100898b031215613f4e57613f4d613d3f565b5b6000613f5c8b828c01613d9f565b9850506020613f6d8b828c01613e7c565b9750506040613f7e8b828c01613e7c565b9650506060613f8f8b828c01613e7c565b9550506080613fa08b828c01613e7c565b94505060a0613fb18b828c01613ece565b93505060c0613fc28b828c01613ef3565b92505060e0613fd38b828c01613f18565b9150509295985092959890939650565b613fec81613d64565b8114613ff757600080fd5b50565b60008135905061400981613fe3565b92915050565b6000806040838503121561402657614025613d3f565b5b600061403485828601613e7c565b925050602061404585828601613ffa565b9150509250929050565b6000806040838503121561406657614065613d3f565b5b600061407485828601613d9f565b925050602061408585828601613e7c565b9150509250929050565b600061409a82613e0d565b9050919050565b6140aa8161408f565b82525050565b60006020820190506140c560008301846140a1565b92915050565b600080600080608085870312156140e5576140e4613d3f565b5b60006140f387828801613d9f565b945050602061410487828801613e7c565b935050604061411587828801613e7c565b925050606061412687828801613ef3565b91505092959194509250565b600080600080600080600060e0888a03121561415157614150613d3f565b5b600061415f8a828b01613d9f565b97505060206141708a828b01613e7c565b96505060406141818a828b01613e7c565b95505060606141928a828b01613e7c565b94505060806141a38a828b01613e7c565b93505060a06141b48a828b01613ece565b92505060c06141c58a828b01613ef3565b91505092959891949750929550565b6141dd81613e5b565b82525050565b600060a0820190506141f860008301886141d4565b61420560208301876141d4565b61421260408301866141d4565b61421f60608301856141d4565b61422c60808301846141d4565b9695505050505050565b600061424182613e0d565b9050919050565b61425181614236565b82525050565b600060208201905061426c6000830184614248565b92915050565b600061427d82613d64565b9050919050565b61428d81614272565b811461429857600080fd5b50565b6000815190506142aa81614284565b92915050565b6000602082840312156142c6576142c5613d3f565b5b60006142d48482850161429b565b91505092915050565b60006142e882613d64565b9050919050565b6142f8816142dd565b811461430357600080fd5b50565b600081519050614315816142ef565b92915050565b60006020828403121561433157614330613d3f565b5b600061433f84828501614306565b91505092915050565b600060208201905061435d60008301846141d4565b92915050565b6004811061437057600080fd5b50565b60008151905061438281614363565b92915050565b60008151905061439781613e65565b92915050565b6000815190506143ac81613fe3565b92915050565b6000815190506143c181613d88565b92915050565b600080600080608085870312156143e1576143e0613d3f565b5b60006143ef87828801614373565b945050602061440087828801614388565b93505060406144118782880161439d565b9250506060614422878288016143b2565b91505092959194509250565b7f4e487b7100000000000000000000000000000000000000000000000000000000600052602160045260246000fd5b600082825260208201905092915050565b7f756e77696e64206e6f7420616c6c6f7765640000000000000000000000000000600082015250565b60006144a460128361445d565b91506144af8261446e565b602082019050919050565b600060208201905081810360008301526144d381614497565b9050919050565b600080604083850312156144f1576144f0613d3f565b5b60006144ff85828601614388565b925050602061451085828601614388565b9150509250929050565b6000602082840312156145305761452f613d3f565b5b600061453e8482850161439d565b91505092915050565b600060ff82169050919050565b61455d81614547565b811461456857600080fd5b50565b60008151905061457a81614554565b92915050565b60006020828403121561459657614595613d3f565b5b60006145a48482850161456b565b91505092915050565b60006145b882613d64565b9050919050565b6145c8816145ad565b81146145d357600080fd5b50565b6000815190506145e5816145bf565b92915050565b60006020828403121561460157614600613d3f565b5b600061460f848285016145d6565b91505092915050565b61462181613e5b565b82525050565b600060408201905061463c6000830185614618565b6146496020830184614618565b9392505050565b60006020828403121561466657614665613d3f565b5b600061467484828501614388565b91505092915050565b61468681613d64565b82525050565b60006040820190506146a1600083018561467d565b6146ae60208301846141d4565b9392505050565b60006040820190506146ca60008301856141d4565b6146d760208301846141d4565b9392505050565b7f2d45780000000000000000000000000000000000000000000000000000000000600082015250565b600061471460038361445d565b915061471f826146de565b602082019050919050565b6000602082019050818103600083015261474381614707565b9050919050565b6004811061475b5761475a61442e565b5b50565b600081905061476c8261474a565b919050565b600061477c8261475e565b9050919050565b61478c81614771565b82525050565b600281106147a3576147a261442e565b5b50565b60008190506147b482614792565b919050565b60006147c4826147a6565b9050919050565b6147d4816147b9565b82525050565b600481106147eb576147ea61442e565b5b50565b60008190506147fc826147da565b919050565b600061480c826147ee565b9050919050565b61481c81614801565b82525050565b61482b81613d64565b82525050565b61483a81613e5b565b82525050565b6000819050919050565b61485381614840565b82525050565b610280820160008201516148706000850182614783565b50602082015161488360208501826147cb565b5060408201516148966040850182614813565b5060608201516148a96060850182614822565b5060808201516148bc6080850182614831565b5060a08201516148cf60a0850182614831565b5060c08201516148e260c0850182614831565b5060e08201516148f560e0850182614831565b5061010082015161490a610100850182614831565b5061012082015161491f610120850182614831565b50610140820151614934610140850182614831565b50610160820151614949610160850182614831565b5061018082015161495e610180850182614831565b506101a08201516149736101a0850182614831565b506101c08201516149886101c0850182614831565b506101e082015161499d6101e0850182614831565b506102008201516149b2610200850182614831565b506102208201516149c7610220850182614822565b506102408201516149dc61024085018261484a565b506102608201516149f1610260850182614831565b50505050565b600061028082019050614a0d6000830184614859565b92915050565b600080600080600060a08688031215614a2f57614a2e613d3f565b5b6000614a3d88828901614388565b9550506020614a4e88828901614388565b9450506040614a5f88828901614388565b9350506060614a7088828901614388565b9250506080614a8188828901614388565b9150509295509295909350565b7f4e487b7100000000000000000000000000000000000000000000000000000000600052601160045260246000fd5b6000614ac882613e5b565b9150614ad383613e5b565b9250828201905080821115614aeb57614aea614a8e565b5b92915050565b6000614b0c614b07614b0284614547565b613de1565b613e5b565b9050919050565b614b1c81614af1565b82525050565b6000604082019050614b376000830185614618565b614b446020830184614b13565b9392505050565b6000606082019050614b60600083018661467d565b614b6d602083018561467d565b614b7a60408301846141d4565b949350505050565b60008115159050919050565b614b9781614b82565b8114614ba257600080fd5b50565b600081519050614bb481614b8e565b92915050565b600060208284031215614bd057614bcf613d3f565b5b6000614bde84828501614ba5565b91505092915050565b7f2d434d0000000000000000000000000000000000000000000000000000000000600082015250565b6000614c1d60038361445d565b9150614c2882614be7565b602082019050919050565b60006020820190508181036000830152614c4c81614c10565b9050919050565b6000614c5e82613e5b565b9150614c6983613e5b565b9250828203905081811115614c8157614c80614a8e565b5b92915050565b7f2d5072656d69756d000000000000000000000000000000000000000000000000600082015250565b6000614cbd60088361445d565b9150614cc882614c87565b602082019050919050565b60006020820190508181036000830152614cec81614cb0565b9050919050565b600061032082019050614d096000830189614859565b614d176102808301886141d4565b614d256102a08301876141d4565b614d336102c08301866141d4565b614d416102e08301856141d4565b614d4f6103008301846141d4565b979650505050505050565b6000604082019050614d6f60008301856141d4565b614d7c602083018461467d565b9392505050565b600080600060608486031215614d9c57614d9b613d3f565b5b6000614daa86828701614388565b9350506020614dbb86828701614388565b9250506040614dcc86828701614388565b9150509250925092565b6000606082019050614deb60008301866141d4565b614df860208301856141d4565b614e05604083018461467d565b949350505050565b6000614e1882613d64565b9050919050565b614e2881614e0d565b8114614e3357600080fd5b50565b600081519050614e4581614e1f565b92915050565b600060208284031215614e6157614e60613d3f565b5b6000614e6f84828501614e36565b91505092915050565b6000602082019050614e8d600083018461467d565b92915050565b7f2d56500000000000000000000000000000000000000000000000000000000000600082015250565b6000614ec960038361445d565b9150614ed482614e93565b602082019050919050565b60006020820190508181036000830152614ef881614ebc565b9050919050565b614f0881614b82565b82525050565b6000606082019050614f2360008301866141d4565b614f3060208301856141d4565b614f3d6040830184614eff565b949350505050565b7f6d56500000000000000000000000000000000000000000000000000000000000600082015250565b6000614f7b60038361445d565b9150614f8682614f45565b602082019050919050565b60006020820190508181036000830152614faa81614f6e565b9050919050565b7f2d56420000000000000000000000000000000000000000000000000000000000600082015250565b6000614fe760038361445d565b9150614ff282614fb1565b602082019050919050565b6000602082019050818103600083015261501681614fda565b9050919050565b600061502882613e0d565b9050919050565b6150388161501d565b82525050565b6000606082019050615053600083018661502f565b6150606020830185614eff565b61506d6040830184614eff565b949350505050565b600061508082613d64565b9050919050565b61509081615075565b811461509b57600080fd5b50565b6000815190506150ad81615087565b92915050565b6000602082840312156150c9576150c8613d3f565b5b60006150d78482850161509e565b9150509291505056fea26469706673582212204fe0b7df3cae8fa98033f913b22e2ae6c2b0c3598430e8a45b51d8cf9ff706a664736f6c63430008110033",
  "immutableReferences": {
    "8565": [
      {
        "length": 32,
        "start": 751
      },
      {
        "length": 32,
        "start": 1070
      },
      {
        "length": 32,
        "start": 1212
      },
      {
        "length": 32,
        "start": 3090
      },
      {
        "length": 32,
        "start": 5205
      },
      {
        "length": 32,
        "start": 5373
      },
      {
        "length": 32,
        "start": 5859
      },
      {
        "length": 32,
        "start": 6078
      },
      {
        "length": 32,
        "start": 6222
      },
      {
        "length": 32,
        "start": 9803
      },
      {
        "length": 32,
        "start": 11245
      },
      {
        "length": 32,
        "start": 12571
      },
      {
        "length": 32,
        "start": 12753
      },
      {
        "length": 32,
        "start": 13864
      }
    ]
  },
  "source": "// SPDX-License-Identifier: MIT\npragma solidity 0.8.17;\n\nimport \"@openzeppelin/contracts/token/ERC20/ERC20.sol\";\nimport \"@openzeppelin/contracts/utils/math/SafeMath.sol\";\nimport \"./interfaces/EOption.sol\";\nimport \"./libraries/MathLib.sol\";\nimport \"./libraries/MarketLib.sol\";\nimport \"./libraries/OptionLib.sol\";\nimport \"./governance/Moret.sol\";\nimport \"./pools/Pool.sol\";\nimport \"./pools/MarketMaker.sol\";\nimport \"./OptionVault.sol\";\nimport \"./VolatilityToken.sol\";\n\ncontract Exchange is EOption {\n    using MarketLib for uint256;\n    using MathLib for uint256;\n    using SafeMath for uint256;\n\n    event NewOption(\n        address indexed _purchaser,\n        address indexed _underlying,\n        uint256 _optionId\n    );\n\n    // immutable addresses\n    OptionVault public immutable vault;\n\n    // contructor. Arguments: option vault and bot address\n    constructor(OptionVault _optionVault) {\n        vault = _optionVault;\n    }\n\n    function queryOption(\n        Pool _pool,\n        uint256 _tenor,\n        uint256 _strike,\n        uint256 _spread,\n        uint256 _amount,\n        OptionLib.PayoffType _poType,\n        OptionLib.OptionSide _side\n    )\n        external\n        view\n        returns (\n            uint256 _premium,\n            uint256 _collateral,\n            uint256 _price,\n            uint256 _volatility,\n            uint256 _fee\n        )\n    {\n        OptionLib.Option memory _option = OptionLib.Option(\n            _poType,\n            _side,\n            OptionLib.OptionStatus.Draft, // status\n            msg.sender, // holder\n            0, // id\n            block.timestamp, // create time\n            0, // effective time\n            _tenor, // tenor\n            0, // maturity\n            0, // exercise\n            _amount, // amount or  notional\n            0, // spot price\n            _strike,\n            _spread,\n            0, // implied volatility\n            0, // premium paid\n            0, // collateral\n            address(_pool),\n            0, // exposure\n            0 // fee\n        );\n        return vault.calcOptionCost(_option);\n    }\n\n    // functions to transact for option contracts\n    // arguments: pool token address, tenor in seconds, strike in 18 decimals, amount in 18 decimals, payoff type (call 0 or put 1), option side (buy 0 or sell 1), payment methods 0-usdc/1-token/2-vol\n    function tradeOption(\n        Pool _pool,\n        uint256 _tenor,\n        uint256 _strike,\n        uint256 _spread,\n        uint256 _amount,\n        OptionLib.PayoffType _poType,\n        OptionLib.OptionSide _side,\n        OptionLib.PaymentMethod _payment\n    ) external {\n        require(_pool.exchange() == address(this), \"-Ex\");\n        OptionLib.Option memory _option = OptionLib.Option(\n            _poType,\n            _side,\n            OptionLib.OptionStatus.Draft, // status\n            msg.sender, // holder\n            0, // id\n            block.timestamp, // create time\n            0, // effective time\n            _tenor,\n            0, // maturity\n            0, // exercise\n            _amount, // amount or notional\n            0, // spot price\n            _strike,\n            _spread,\n            0, // implied volatility\n            0, // premium paid\n            0, // collateral\n            address(_pool),\n            0, // exposure\n            0 // fee\n        );\n        (\n            uint256 _premium,\n            uint256 _collateral,\n            uint256 _price,\n            uint256 _vol,\n            uint256 _fee\n        ) = vault.calcOptionCost(_option);\n\n        // transfer premiums\n        MarketMaker _marketMaker = _pool.marketMaker();\n        if(_payment == OptionLib.PaymentMethod.Vol){\n            if(_collateral + _fee > 0){\n                ERC20 _funding = ERC20(_marketMaker.funding());\n                require(_funding.transferFrom(msg.sender, address(_marketMaker), (_collateral + _fee).toDecimals(_funding.decimals())), '-CM'); \n            }\n            tradeOptionInVol(_pool, _tenor, _premium, _vol, _side);\n        }\n        else{\n          ERC20 _paymentToken = _payment == OptionLib.PaymentMethod.Token? ERC20(_marketMaker.underlying()): ERC20(_marketMaker.funding());\n          uint256 _paymentAmount = _side == OptionLib.OptionSide.Buy ? _fee + _premium:  _collateral + _fee - _premium;\n          _paymentAmount = _payment == OptionLib.PaymentMethod.Token? _paymentAmount.ethdiv(_price).toDecimals(_paymentToken.decimals()) : _paymentAmount.toDecimals(_paymentToken.decimals());\n          require(\n                _paymentToken.transferFrom(\n                    msg.sender,\n                    address(_marketMaker),\n                    _paymentAmount\n                ),\n                \"-Premium\"\n            );\n        }\n\n        uint256 _id = vault.addOption(\n            _option,\n            _premium, // always in USD\n            _collateral, // always in USD\n            _price,\n            _vol, // annualised vol\n            _fee\n        );\n        vault.stampActiveOption(_id, msg.sender);\n\n        emit NewOption(msg.sender, _pool.marketMaker().underlying(), _id);\n    }\n\n    function tradeOptionInVol(Pool _pool, uint256 _tenor, uint256 _premium, uint256 _vol, OptionLib.OptionSide _side) internal{\n      MarketMaker _marketMaker = _pool.marketMaker();\n      VolatilityToken _vToken = _marketMaker\n                .govToken()\n                .getVolatilityToken(_marketMaker.underlying(), _tenor);\n      uint256 _fundingDecimals = _vToken.funding().decimals();\n      (uint256 _volAmount, uint256 _volPrice) = _vToken.calcAmount(_premium, _vol, _side==OptionLib.OptionSide.Sell);\n      require(_volPrice > _pool.minVolPrice(), \"mVP\");\n\n      if (_side == OptionLib.OptionSide.Buy) {\n        _vToken.burn(msg.sender, _volAmount);\n        _vToken.pay(address(_marketMaker), _premium.toDecimals(_fundingDecimals));\n      }\n      else{\n        _marketMaker.settlePayment( address(_vToken), _premium.toDecimals(_fundingDecimals));\n        _vToken.mint(msg.sender, _volAmount);\n      }     \n    }\n\n    // functions to transact volatility tokens (buy or sell)\n    // arguments: pool token address, tenor in seconds, amount in 18 decimals, option side (buy 0 or sell 1)\n    function tradeVolToken(\n        Pool _pool,\n        uint256 _tenor,\n        uint256 _amount,\n        OptionLib.OptionSide _side\n    ) external {\n        MarketMaker _marketMaker = _pool.marketMaker();\n        require(\n            _marketMaker.govToken().existVolTradingPool(address(_pool)),\n            \"-VP\"\n        ); // only certified pools can trade vol\n        VolatilityToken _vToken = _marketMaker.govToken().getVolatilityToken(\n            _marketMaker.underlying(),\n            _tenor\n        );\n        VolatilityChain _volChain = _marketMaker.getVolatilityChain();\n        OptionLib.Option memory _option = OptionLib.Option(\n            OptionLib.PayoffType.Put,\n            _side,\n            OptionLib.OptionStatus.Draft,\n            msg.sender,\n            0,\n            block.timestamp,\n            0,\n            _tenor,\n            0,\n            0,\n            _amount,\n            0,\n            _volChain.queryPrice(),\n            0,\n            0,\n            0,\n            0,\n            address(_pool),\n            0,\n            0\n        );\n\n        ERC20 _funding = ERC20(_marketMaker.funding());\n        uint256 _fundingDecimals = _funding.decimals();\n        (uint256 _premium, , , uint256 _vol, ) = vault\n            .calcOptionCost(_option);\n\n        (uint256 _volAmount, uint256 _volPrice) = _vToken.calcAmount(_premium, _vol, _side==OptionLib.OptionSide.Sell);\n        require(_volPrice > _pool.minVolPrice(), \"mVP\");\n\n        if (_side == OptionLib.OptionSide.Buy) {\n            require(\n                _funding.transferFrom(\n                    msg.sender,\n                    address(_vToken),\n                    _premium.toDecimals(_fundingDecimals)\n                ),\n                \"-VB\"\n            );\n            _vToken.mint(msg.sender, _volAmount);\n        } else {\n            _vToken.burn(msg.sender, _volAmount);\n            _vToken.pay(msg.sender, _premium.toDecimals(_fundingDecimals));\n        }\n\n        emit TradeVolatility(\n            msg.sender,\n            address(_pool),\n            _amount,\n            _volAmount\n        );\n    }\n\n    // get volatility token\n    function getVolatilityToken(Pool _pool, uint256 _tenor)\n        external\n        view\n        returns (VolatilityToken)\n    {\n        MarketMaker _marketMaker = _pool.marketMaker();\n        return\n            _marketMaker.govToken().getVolatilityToken(\n                _marketMaker.underlying(),\n                _tenor\n            );\n    }\n\n    // get volatility chain\n    function getVolatilityChain(Pool _pool)\n        external\n        view\n        returns (VolatilityChain)\n    {\n        MarketMaker _marketMaker = _pool.marketMaker();\n        return _marketMaker.getVolatilityChain();\n    }\n\n    // expire option contracts (one at a time), with exercise fees paid to the exercising bots.\n    function expireOption(uint256 _expiringId, address _exerciseFeeRecipient)\n        external\n    {\n        (\n            OptionLib.OptionStatus _optionStatus,\n            uint256 _maturity,\n            address _optionHolder,\n            Pool _pool\n        ) = vault.getOptionInfo(_expiringId);\n\n        if (\n            (_optionStatus == OptionLib.OptionStatus.Active) &&\n            (_maturity <= block.timestamp)\n        ) {\n            vault.stampExpiredOption(_expiringId);\n            (\n                uint256 _toHolder,\n                uint256 _toProtocol,\n                uint256 _toExerciser\n            ) = vault.getContractPayoff(_expiringId);\n\n            MarketMaker _marketMaker = _pool.marketMaker();\n            uint256 _fundingDecimals = ERC20(_marketMaker.funding()).decimals();\n            _marketMaker.settlePayment(\n                _pool.marketMaker().govToken().protocolFeeRecipient(),\n                _toProtocol.toDecimals(_fundingDecimals)\n            );\n            _marketMaker.settlePayment(_optionHolder, _toHolder.toDecimals(_fundingDecimals));\n            _marketMaker.settlePayment(_exerciseFeeRecipient, _toExerciser.toDecimals(_fundingDecimals));\n            emit Expire(\n                _optionHolder,\n                address(_pool),\n                _expiringId,\n                _toHolder,\n                msg.sender\n            );\n        }\n    }\n\n    // unwind existing option contracts\n    // arguments: pool token address, tenor in seconds, strike in 18 decimals, amount in 18 decimals, payoff type (call 0 or put 1), option side (buy 0 or sell 1), payment methods 0-usdc/1-token/2-vol\n    function unwindOption(uint256 _optionId) external {\n        (\n            OptionLib.OptionStatus _optionStatus,\n            ,\n            address _optionHolder,\n            Pool _pool\n        ) = vault.getOptionInfo(_optionId);\n\n        require((_optionStatus == OptionLib.OptionStatus.Active) &&\n            (_optionHolder == msg.sender), \"unwind not allowed\");\n      \n          vault.stampExpiredOption(_optionId);\n          // get unwind value\n          (uint256 _toHolder, uint256 _toProtocol) = vault\n              .calcOptionUnwindValue(_optionId);\n\n          MarketMaker _marketMaker = _pool.marketMaker();\n          uint256 _fundingDecimals = ERC20(_marketMaker.funding()).decimals();\n\n          _marketMaker.settlePayment(\n              _pool.marketMaker().govToken().protocolFeeRecipient(),\n              _toProtocol.toDecimals(_fundingDecimals)\n          );\n          _marketMaker.settlePayment(_optionHolder, _toHolder.toDecimals(_fundingDecimals));\n          emit Unwind(_optionHolder, address(_pool), _optionId, _toHolder);\n      \n    }\n\n    // add capital by depositing amount in funding tokens\n    function addCapital(Pool _pool, uint256 _depositAmount) external {\n        uint256 _averageGrossCapital = vault.calcCapital(_pool, false, true);\n        ERC20 _funding = ERC20(_pool.marketMaker().funding());\n        uint256 _mintPoolAmount = _depositAmount\n            .toWei(_funding.decimals())\n            .ethdiv(_averageGrossCapital);\n        require(\n            _funding.transferFrom(\n                msg.sender,\n                address(_pool.marketMaker()),\n                _depositAmount\n            )\n        );\n        _pool.mint(msg.sender, _mintPoolAmount);\n    }\n\n    // remove capital by withdrawing amount in funding tokens\n    function withdrawCapital(Pool _pool, uint256 _burnPoolAmount) external {\n        uint256 _averageNetCapital = vault.calcCapital(_pool, true, true);\n        uint256 _withdrawValue = _averageNetCapital\n            .ethmul(_burnPoolAmount)\n            .toDecimals(ERC20(_pool.marketMaker().funding()).decimals());\n        _pool.burn(msg.sender, _burnPoolAmount);\n        _pool.marketMaker().settlePayment(msg.sender, _withdrawValue);\n    }\n}\n",
  "sourcePath": "/Users/mac/Documents/GitHub/moret/contracts/Exchange.sol",
  "compiler": {
    "name": "solc",
    "version": "0.8.17+commit.8df45f5f.Emscripten.clang"
  },
  "schemaVersion": "3.4.3",
  "updatedAt": "2023-02-23T21:31:44.068Z",
  "networkType": "ethereum",
  "devdoc": {
    "kind": "dev",
    "methods": {},
    "version": 1
  },
  "userdoc": {
    "kind": "user",
    "methods": {},
    "version": 1
  }
}