{
  "contractName": "Exchange",
  "abi": [
    {
      "inputs": [
        {
          "internalType": "contract OptionVault",
          "name": "_optionVault",
          "type": "address"
        }
      ],
      "stateMutability": "nonpayable",
      "type": "constructor"
    },
    {
      "anonymous": false,
      "inputs": [
        {
          "indexed": true,
          "internalType": "address",
          "name": "_bot",
          "type": "address"
        },
        {
          "indexed": true,
          "internalType": "address",
          "name": "_exchange",
          "type": "address"
        },
        {
          "indexed": false,
          "internalType": "address",
          "name": "_holder",
          "type": "address"
        },
        {
          "indexed": false,
          "internalType": "uint256",
          "name": "_id",
          "type": "uint256"
        },
        {
          "indexed": false,
          "internalType": "uint256",
          "name": "_payoff",
          "type": "uint256"
        }
      ],
      "name": "Expire",
      "type": "event"
    },
    {
      "anonymous": false,
      "inputs": [
        {
          "indexed": true,
          "internalType": "address",
          "name": "_hedger",
          "type": "address"
        },
        {
          "indexed": true,
          "internalType": "address",
          "name": "_market",
          "type": "address"
        },
        {
          "indexed": false,
          "internalType": "bool",
          "name": "success",
          "type": "bool"
        },
        {
          "indexed": false,
          "internalType": "bytes",
          "name": "data",
          "type": "bytes"
        }
      ],
      "name": "HedgeResponse",
      "type": "event"
    },
    {
      "anonymous": false,
      "inputs": [
        {
          "indexed": true,
          "internalType": "address",
          "name": "_hedger",
          "type": "address"
        },
        {
          "indexed": true,
          "internalType": "address",
          "name": "_market",
          "type": "address"
        },
        {
          "indexed": false,
          "internalType": "uint256[]",
          "name": "amounts",
          "type": "uint256[]"
        }
      ],
      "name": "HedgeSwapResponse",
      "type": "event"
    },
    {
      "anonymous": false,
      "inputs": [
        {
          "indexed": true,
          "internalType": "address",
          "name": "_purchaser",
          "type": "address"
        },
        {
          "indexed": true,
          "internalType": "address",
          "name": "_exchange",
          "type": "address"
        },
        {
          "indexed": false,
          "internalType": "uint256",
          "name": "_id",
          "type": "uint256"
        },
        {
          "indexed": false,
          "internalType": "uint256",
          "name": "_premium",
          "type": "uint256"
        },
        {
          "indexed": false,
          "internalType": "uint256",
          "name": "_collateral",
          "type": "uint256"
        },
        {
          "indexed": false,
          "internalType": "bool",
          "name": "_inVol",
          "type": "bool"
        }
      ],
      "name": "NewOption",
      "type": "event"
    },
    {
      "anonymous": false,
      "inputs": [
        {
          "indexed": true,
          "internalType": "address",
          "name": "previousOwner",
          "type": "address"
        },
        {
          "indexed": true,
          "internalType": "address",
          "name": "newOwner",
          "type": "address"
        }
      ],
      "name": "OwnershipTransferred",
      "type": "event"
    },
    {
      "anonymous": false,
      "inputs": [
        {
          "indexed": false,
          "internalType": "address",
          "name": "_newBot",
          "type": "address"
        }
      ],
      "name": "ResetBotAddress",
      "type": "event"
    },
    {
      "anonymous": false,
      "inputs": [
        {
          "indexed": true,
          "internalType": "uint256",
          "name": "_parameterId",
          "type": "uint256"
        },
        {
          "indexed": false,
          "internalType": "uint256",
          "name": "_parameter",
          "type": "uint256"
        }
      ],
      "name": "ResetParameter",
      "type": "event"
    },
    {
      "anonymous": false,
      "inputs": [
        {
          "indexed": true,
          "internalType": "address",
          "name": "_exchange",
          "type": "address"
        },
        {
          "indexed": false,
          "internalType": "bool",
          "name": "_tradingAllowed",
          "type": "bool"
        }
      ],
      "name": "ResetTradingStatus",
      "type": "event"
    },
    {
      "anonymous": false,
      "inputs": [
        {
          "indexed": true,
          "internalType": "address",
          "name": "_purchaser",
          "type": "address"
        },
        {
          "indexed": true,
          "internalType": "address",
          "name": "_exchange",
          "type": "address"
        },
        {
          "indexed": false,
          "internalType": "uint256",
          "name": "_cost",
          "type": "uint256"
        },
        {
          "indexed": false,
          "internalType": "uint256",
          "name": "_volAmount",
          "type": "uint256"
        },
        {
          "indexed": false,
          "internalType": "bool",
          "name": "_isPurchase",
          "type": "bool"
        }
      ],
      "name": "TradeVolatility",
      "type": "event"
    },
    {
      "inputs": [],
      "name": "owner",
      "outputs": [
        {
          "internalType": "address",
          "name": "",
          "type": "address"
        }
      ],
      "stateMutability": "view",
      "type": "function"
    },
    {
      "inputs": [],
      "name": "renounceOwnership",
      "outputs": [],
      "stateMutability": "nonpayable",
      "type": "function"
    },
    {
      "inputs": [
        {
          "internalType": "address",
          "name": "newOwner",
          "type": "address"
        }
      ],
      "name": "transferOwnership",
      "outputs": [],
      "stateMutability": "nonpayable",
      "type": "function"
    },
    {
      "inputs": [],
      "name": "vault",
      "outputs": [
        {
          "internalType": "contract OptionVault",
          "name": "",
          "type": "address"
        }
      ],
      "stateMutability": "view",
      "type": "function"
    },
    {
      "inputs": [
        {
          "internalType": "contract Pool",
          "name": "_pool",
          "type": "address"
        },
        {
          "internalType": "uint256",
          "name": "_tenor",
          "type": "uint256"
        },
        {
          "internalType": "uint256",
          "name": "_strike",
          "type": "uint256"
        },
        {
          "internalType": "uint256",
          "name": "_amount",
          "type": "uint256"
        },
        {
          "internalType": "enum OptionLib.PayoffType",
          "name": "_poType",
          "type": "uint8"
        },
        {
          "internalType": "enum OptionLib.OptionSide",
          "name": "_side",
          "type": "uint8"
        },
        {
          "internalType": "bool",
          "name": "_forceATM",
          "type": "bool"
        }
      ],
      "name": "queryOption",
      "outputs": [
        {
          "internalType": "uint256",
          "name": "_premium",
          "type": "uint256"
        },
        {
          "internalType": "uint256",
          "name": "_collateral",
          "type": "uint256"
        },
        {
          "internalType": "uint256",
          "name": "_price",
          "type": "uint256"
        },
        {
          "internalType": "uint256",
          "name": "_volatility",
          "type": "uint256"
        }
      ],
      "stateMutability": "view",
      "type": "function"
    },
    {
      "inputs": [
        {
          "internalType": "contract Pool",
          "name": "_pool",
          "type": "address"
        },
        {
          "internalType": "uint256",
          "name": "_tenor",
          "type": "uint256"
        },
        {
          "internalType": "uint256",
          "name": "_strike",
          "type": "uint256"
        },
        {
          "internalType": "uint256",
          "name": "_amount",
          "type": "uint256"
        },
        {
          "internalType": "enum OptionLib.PayoffType",
          "name": "_poType",
          "type": "uint8"
        },
        {
          "internalType": "enum OptionLib.OptionSide",
          "name": "_side",
          "type": "uint8"
        }
      ],
      "name": "tradeOption",
      "outputs": [],
      "stateMutability": "nonpayable",
      "type": "function"
    },
    {
      "inputs": [
        {
          "internalType": "contract Pool",
          "name": "_pool",
          "type": "address"
        },
        {
          "internalType": "uint256",
          "name": "_tenor",
          "type": "uint256"
        },
        {
          "internalType": "uint256",
          "name": "_amount",
          "type": "uint256"
        },
        {
          "internalType": "enum OptionLib.PayoffType",
          "name": "_poType",
          "type": "uint8"
        },
        {
          "internalType": "enum OptionLib.OptionSide",
          "name": "_side",
          "type": "uint8"
        }
      ],
      "name": "tradeOptionInVol",
      "outputs": [],
      "stateMutability": "nonpayable",
      "type": "function"
    },
    {
      "inputs": [
        {
          "internalType": "contract Pool",
          "name": "_pool",
          "type": "address"
        },
        {
          "internalType": "uint256",
          "name": "_tenor",
          "type": "uint256"
        },
        {
          "internalType": "uint256",
          "name": "_amount",
          "type": "uint256"
        },
        {
          "internalType": "enum OptionLib.OptionSide",
          "name": "_side",
          "type": "uint8"
        }
      ],
      "name": "tradeVolToken",
      "outputs": [],
      "stateMutability": "nonpayable",
      "type": "function"
    },
    {
      "inputs": [
        {
          "internalType": "contract Pool",
          "name": "_pool",
          "type": "address"
        },
        {
          "internalType": "uint256",
          "name": "_tenor",
          "type": "uint256"
        }
      ],
      "name": "getVolatilityToken",
      "outputs": [
        {
          "internalType": "contract VolatilityToken",
          "name": "",
          "type": "address"
        }
      ],
      "stateMutability": "view",
      "type": "function"
    },
    {
      "inputs": [
        {
          "internalType": "contract Pool",
          "name": "_pool",
          "type": "address"
        }
      ],
      "name": "getVolatilityChain",
      "outputs": [
        {
          "internalType": "contract VolatilityChain",
          "name": "",
          "type": "address"
        }
      ],
      "stateMutability": "view",
      "type": "function"
    },
    {
      "inputs": [
        {
          "internalType": "uint256",
          "name": "_expiringId",
          "type": "uint256"
        },
        {
          "internalType": "address",
          "name": "_exerciseFeeRecipient",
          "type": "address"
        }
      ],
      "name": "expireOption",
      "outputs": [],
      "stateMutability": "nonpayable",
      "type": "function"
    },
    {
      "inputs": [
        {
          "internalType": "contract Pool",
          "name": "_pool",
          "type": "address"
        },
        {
          "internalType": "uint256",
          "name": "_depositAmount",
          "type": "uint256"
        }
      ],
      "name": "addCapital",
      "outputs": [],
      "stateMutability": "nonpayable",
      "type": "function"
    },
    {
      "inputs": [
        {
          "internalType": "contract Pool",
          "name": "_pool",
          "type": "address"
        },
        {
          "internalType": "uint256",
          "name": "_burnPoolAmount",
          "type": "uint256"
        }
      ],
      "name": "withdrawCapital",
      "outputs": [],
      "stateMutability": "nonpayable",
      "type": "function"
    }
  ],
  "bytecode": "0x60a06040523480156200001157600080fd5b506040516200539c3803806200539c8339818101604052810190620000379190620001dc565b620000576200004b6200009260201b60201c565b6200009a60201b60201c565b8073ffffffffffffffffffffffffffffffffffffffff1660808173ffffffffffffffffffffffffffffffffffffffff1681525050506200020e565b600033905090565b60008060009054906101000a900473ffffffffffffffffffffffffffffffffffffffff169050816000806101000a81548173ffffffffffffffffffffffffffffffffffffffff021916908373ffffffffffffffffffffffffffffffffffffffff1602179055508173ffffffffffffffffffffffffffffffffffffffff168173ffffffffffffffffffffffffffffffffffffffff167f8be0079c531659141344cd1fd0a4f28419497f9722a3daafe3b4186f6b6457e060405160405180910390a35050565b600080fd5b600073ffffffffffffffffffffffffffffffffffffffff82169050919050565b6000620001908262000163565b9050919050565b6000620001a48262000183565b9050919050565b620001b68162000197565b8114620001c257600080fd5b50565b600081519050620001d681620001ab565b92915050565b600060208284031215620001f557620001f46200015e565b5b60006200020584828501620001c5565b91505092915050565b60805161511e6200027e6000396000818161036401528181610432015281816104c0015281816115c701528181611b620152818161207b015281816125f301528181612cb301528181612fb3015281816133fd015281816134a3015281816135b00152613afe015261511e6000f3fe608060405234801561001057600080fd5b50600436106100cf5760003560e01c80639111fccd1161008c578063e6ab658e11610066578063e6ab658e146101ff578063e98254bb1461021b578063f2fde38b14610237578063fbfa77cf14610253576100cf565b80639111fccd14610194578063b1ff6171146101b0578063b808d76e146101e3576100cf565b806315dc2e9d146100d457806354f6e8c8146101045780636cce891614610120578063715018a614610150578063826fdbbd1461015a5780638da5cb5b14610176575b600080fd5b6100ee60048036038101906100e99190613c7a565b610271565b6040516100fb9190613d06565b60405180910390f35b61011e60048036038101906101199190613d83565b61035c565b005b61013a60048036038101906101359190613dc3565b610ea6565b6040516101479190613e24565b60405180910390f35b61015861107b565b005b610174600480360381019061016f9190613e64565b611103565b005b61017e611b35565b60405161018b9190613eda565b60405180910390f35b6101ae60048036038101906101a99190613dc3565b611b5e565b005b6101ca60048036038101906101c59190613f52565b611f94565b6040516101da9493929190614003565b60405180910390f35b6101fd60048036038101906101f89190614048565b61212c565b005b610219600480360381019061021491906140c3565b612ecc565b005b61023560048036038101906102309190613dc3565b6135ac565b005b610251600480360381019061024c9190614150565b613a05565b005b61025b613afc565b604051610268919061419e565b60405180910390f35b6000808273ffffffffffffffffffffffffffffffffffffffff16631f21f9af6040518163ffffffff1660e01b8152600401602060405180830381865afa1580156102bf573d6000803e3d6000fd5b505050506040513d601f19601f820116820180604052508101906102e391906141f7565b90508073ffffffffffffffffffffffffffffffffffffffff1663c0a16f6a6040518163ffffffff1660e01b8152600401602060405180830381865afa158015610330573d6000803e3d6000fd5b505050506040513d601f19601f820116820180604052508101906103549190614262565b915050919050565b6000806000807f000000000000000000000000000000000000000000000000000000000000000073ffffffffffffffffffffffffffffffffffffffff1663fc9d80e0876040518263ffffffff1660e01b81526004016103bb919061428f565b608060405180830381865afa1580156103d8573d6000803e3d6000fd5b505050506040513d601f19601f820116820180604052508101906103fc919061430e565b93509350935093506001600381111561041857610417614375565b5b84600381111561042b5761042a614375565b5b03610e9e577f000000000000000000000000000000000000000000000000000000000000000073ffffffffffffffffffffffffffffffffffffffff1663637baf60876040518263ffffffff1660e01b8152600401610489919061428f565b600060405180830381600087803b1580156104a357600080fd5b505af11580156104b7573d6000803e3d6000fd5b505050506000807f000000000000000000000000000000000000000000000000000000000000000073ffffffffffffffffffffffffffffffffffffffff166385ae10e6896040518263ffffffff1660e01b8152600401610517919061428f565b606060405180830381865afa158015610534573d6000803e3d6000fd5b505050506040513d601f19601f8201168201806040525081019061055891906143b9565b509150915060008373ffffffffffffffffffffffffffffffffffffffff16631f21f9af6040518163ffffffff1660e01b8152600401602060405180830381865afa1580156105aa573d6000803e3d6000fd5b505050506040513d601f19601f820116820180604052508101906105ce91906141f7565b73ffffffffffffffffffffffffffffffffffffffff1663cb4c86b76040518163ffffffff1660e01b8152600401602060405180830381865afa158015610618573d6000803e3d6000fd5b505050506040513d601f19601f8201168201806040525081019061063c919061444a565b73ffffffffffffffffffffffffffffffffffffffff1663313ce5676040518163ffffffff1660e01b8152600401602060405180830381865afa158015610686573d6000803e3d6000fd5b505050506040513d601f19601f820116820180604052508101906106aa91906144b0565b60ff16905060008373__MathLib_______________________________63fed4a0f390918773ffffffffffffffffffffffffffffffffffffffff16631f21f9af6040518163ffffffff1660e01b8152600401602060405180830381865afa158015610719573d6000803e3d6000fd5b505050506040513d601f19601f8201168201806040525081019061073d91906141f7565b73ffffffffffffffffffffffffffffffffffffffff166305268cff6040518163ffffffff1660e01b8152600401602060405180830381865afa158015610787573d6000803e3d6000fd5b505050506040513d601f19601f820116820180604052508101906107ab919061451b565b73ffffffffffffffffffffffffffffffffffffffff1663b0e21e8a6040518163ffffffff1660e01b8152600401602060405180830381865afa1580156107f5573d6000803e3d6000fd5b505050506040513d601f19601f820116820180604052508101906108199190614548565b6040518363ffffffff1660e01b8152600401610836929190614584565b602060405180830381865af4158015610853573d6000803e3d6000fd5b505050506040513d601f19601f820116820180604052508101906108779190614548565b73__MarketLib_____________________________63174e20e69091846040518363ffffffff1660e01b81526004016108b1929190614584565b602060405180830381865af41580156108ce573d6000803e3d6000fd5b505050506040513d601f19601f820116820180604052508101906108f29190614548565b905060008473__MathLib_______________________________63fed4a0f390918873ffffffffffffffffffffffffffffffffffffffff1663d1c699aa6040518163ffffffff1660e01b8152600401602060405180830381865afa15801561095e573d6000803e3d6000fd5b505050506040513d601f19601f820116820180604052508101906109829190614548565b6040518363ffffffff1660e01b815260040161099f929190614584565b602060405180830381865af41580156109bc573d6000803e3d6000fd5b505050506040513d601f19601f820116820180604052508101906109e09190614548565b73__MarketLib_____________________________63174e20e69091856040518363ffffffff1660e01b8152600401610a1a929190614584565b602060405180830381865af4158015610a37573d6000803e3d6000fd5b505050506040513d601f19601f82011682018060405250810190610a5b9190614548565b90508373__MarketLib_____________________________63174e20e69091856040518363ffffffff1660e01b8152600401610a98929190614584565b602060405180830381865af4158015610ab5573d6000803e3d6000fd5b505050506040513d601f19601f82011682018060405250810190610ad99190614548565b935060006001811115610aef57610aee614375565b5b886001811115610b0257610b01614375565b5b03610e9857610b1c848284610b1791906145dc565b613b20565b84610b279190614632565b935060008673ffffffffffffffffffffffffffffffffffffffff16631f21f9af6040518163ffffffff1660e01b8152600401602060405180830381865afa158015610b76573d6000803e3d6000fd5b505050506040513d601f19601f82011682018060405250810190610b9a91906141f7565b90508073ffffffffffffffffffffffffffffffffffffffff16633e60e34889876040518363ffffffff1660e01b8152600401610bd7929190614666565b600060405180830381600087803b158015610bf157600080fd5b505af1158015610c05573d6000803e3d6000fd5b505050508073ffffffffffffffffffffffffffffffffffffffff16633e60e3488873ffffffffffffffffffffffffffffffffffffffff16631f21f9af6040518163ffffffff1660e01b8152600401602060405180830381865afa158015610c70573d6000803e3d6000fd5b505050506040513d601f19601f82011682018060405250810190610c9491906141f7565b73ffffffffffffffffffffffffffffffffffffffff166305268cff6040518163ffffffff1660e01b8152600401602060405180830381865afa158015610cde573d6000803e3d6000fd5b505050506040513d601f19601f82011682018060405250810190610d02919061451b565b73ffffffffffffffffffffffffffffffffffffffff166364df049e6040518163ffffffff1660e01b8152600401602060405180830381865afa158015610d4c573d6000803e3d6000fd5b505050506040513d601f19601f82011682018060405250810190610d70919061468f565b856040518363ffffffff1660e01b8152600401610d8e929190614666565b600060405180830381600087803b158015610da857600080fd5b505af1158015610dbc573d6000803e3d6000fd5b505050508073ffffffffffffffffffffffffffffffffffffffff16633e60e3488c846040518363ffffffff1660e01b8152600401610dfb929190614666565b600060405180830381600087803b158015610e1557600080fd5b505af1158015610e29573d6000803e3d6000fd5b505050503073ffffffffffffffffffffffffffffffffffffffff163373ffffffffffffffffffffffffffffffffffffffff167f1cf7404c642614322b1d508b6d5e34e05720d23d9596b59b19c8a05704b495e18a8f89604051610e8e939291906146bc565b60405180910390a3505b50505050505b505050505050565b6000808373ffffffffffffffffffffffffffffffffffffffff16631f21f9af6040518163ffffffff1660e01b8152600401602060405180830381865afa158015610ef4573d6000803e3d6000fd5b505050506040513d601f19601f82011682018060405250810190610f1891906141f7565b90508073ffffffffffffffffffffffffffffffffffffffff166305268cff6040518163ffffffff1660e01b8152600401602060405180830381865afa158015610f65573d6000803e3d6000fd5b505050506040513d601f19601f82011682018060405250810190610f89919061451b565b73ffffffffffffffffffffffffffffffffffffffff16636cce89168273ffffffffffffffffffffffffffffffffffffffff16636f307dc36040518163ffffffff1660e01b8152600401602060405180830381865afa158015610fef573d6000803e3d6000fd5b505050506040513d601f19601f82011682018060405250810190611013919061468f565b856040518363ffffffff1660e01b8152600401611031929190614666565b602060405180830381865afa15801561104e573d6000803e3d6000fd5b505050506040513d601f19601f820116820180604052508101906110729190614731565b91505092915050565b611083613b39565b73ffffffffffffffffffffffffffffffffffffffff166110a1611b35565b73ffffffffffffffffffffffffffffffffffffffff16146110f7576040517f08c379a00000000000000000000000000000000000000000000000000000000081526004016110ee906147bb565b60405180910390fd5b6111016000613b41565b565b60008473ffffffffffffffffffffffffffffffffffffffff16631f21f9af6040518163ffffffff1660e01b8152600401602060405180830381865afa158015611150573d6000803e3d6000fd5b505050506040513d601f19601f8201168201806040525081019061117491906141f7565b90508073ffffffffffffffffffffffffffffffffffffffff166305268cff6040518163ffffffff1660e01b8152600401602060405180830381865afa1580156111c1573d6000803e3d6000fd5b505050506040513d601f19601f820116820180604052508101906111e5919061451b565b73ffffffffffffffffffffffffffffffffffffffff1663255fdcff866040518263ffffffff1660e01b815260040161121d9190613eda565b602060405180830381865afa15801561123a573d6000803e3d6000fd5b505050506040513d601f19601f8201168201806040525081019061125e91906147f0565b61129d576040517f08c379a000000000000000000000000000000000000000000000000000000000815260040161129490614869565b60405180910390fd5b60008173ffffffffffffffffffffffffffffffffffffffff166305268cff6040518163ffffffff1660e01b8152600401602060405180830381865afa1580156112ea573d6000803e3d6000fd5b505050506040513d601f19601f8201168201806040525081019061130e919061451b565b73ffffffffffffffffffffffffffffffffffffffff16636cce89168373ffffffffffffffffffffffffffffffffffffffff16636f307dc36040518163ffffffff1660e01b8152600401602060405180830381865afa158015611374573d6000803e3d6000fd5b505050506040513d601f19601f82011682018060405250810190611398919061468f565b876040518363ffffffff1660e01b81526004016113b6929190614666565b602060405180830381865afa1580156113d3573d6000803e3d6000fd5b505050506040513d601f19601f820116820180604052508101906113f79190614731565b9050600060405180610220016040528060018081111561141a57611419614375565b5b815260200185600181111561143257611431614375565b5b81526020016000600381111561144b5761144a614375565b5b81526020013373ffffffffffffffffffffffffffffffffffffffff1681526020016000815260200142815260200160008152602001878152602001600081526020016000815260200186815260200160008152602001600081526020016000815260200160008152602001600081526020018873ffffffffffffffffffffffffffffffffffffffff16815250905060008373ffffffffffffffffffffffffffffffffffffffff1663cb4c86b76040518163ffffffff1660e01b8152600401602060405180830381865afa158015611526573d6000803e3d6000fd5b505050506040513d601f19601f8201168201806040525081019061154a919061444a565b905060008173ffffffffffffffffffffffffffffffffffffffff1663313ce5676040518163ffffffff1660e01b8152600401602060405180830381865afa158015611599573d6000803e3d6000fd5b505050506040513d601f19601f820116820180604052508101906115bd91906144b0565b60ff1690506000807f000000000000000000000000000000000000000000000000000000000000000073ffffffffffffffffffffffffffffffffffffffff16632360e8178660016040518363ffffffff1660e01b8152600401611621929190614aed565b608060405180830381865afa15801561163e573d6000803e3d6000fd5b505050506040513d601f19601f820116820180604052508101906116629190614b18565b935050509150600080600181111561167d5761167c614375565b5b8960018111156116905761168f614375565b5b036118c1578473ffffffffffffffffffffffffffffffffffffffff166323b872dd33898673__MarketLib_____________________________63174e20e690918a6040518363ffffffff1660e01b81526004016116ee929190614584565b602060405180830381865af415801561170b573d6000803e3d6000fd5b505050506040513d601f19601f8201168201806040525081019061172f9190614548565b6040518463ffffffff1660e01b815260040161174d93929190614b7f565b6020604051808303816000875af115801561176c573d6000803e3d6000fd5b505050506040513d601f19601f8201168201806040525081019061179091906147f0565b6117cf576040517f08c379a00000000000000000000000000000000000000000000000000000000081526004016117c690614c02565b60405180910390fd5b8673ffffffffffffffffffffffffffffffffffffffff1663b3e1f05084846040518363ffffffff1660e01b815260040161180a929190614c22565b6040805180830381865afa158015611826573d6000803e3d6000fd5b505050506040513d601f19601f8201168201806040525081019061184a9190614c4b565b50809150508673ffffffffffffffffffffffffffffffffffffffff166340c10f1933836040518363ffffffff1660e01b815260040161188a929190614666565b600060405180830381600087803b1580156118a457600080fd5b505af11580156118b8573d6000803e3d6000fd5b50505050611a97565b8673ffffffffffffffffffffffffffffffffffffffff1663921f2c3b84846040518363ffffffff1660e01b81526004016118fc929190614c22565b6040805180830381865afa158015611918573d6000803e3d6000fd5b505050506040513d601f19601f8201168201806040525081019061193c9190614c4b565b50809150508673ffffffffffffffffffffffffffffffffffffffff16639dc29fac33836040518363ffffffff1660e01b815260040161197c929190614666565b600060405180830381600087803b15801561199657600080fd5b505af11580156119aa573d6000803e3d6000fd5b505050508673ffffffffffffffffffffffffffffffffffffffff1663c4076876338573__MarketLib_____________________________63174e20e69091896040518363ffffffff1660e01b8152600401611a06929190614584565b602060405180830381865af4158015611a23573d6000803e3d6000fd5b505050506040513d601f19601f82011682018060405250810190611a479190614548565b6040518363ffffffff1660e01b8152600401611a64929190614666565b600060405180830381600087803b158015611a7e57600080fd5b505af1158015611a92573d6000803e3d6000fd5b505050505b8b73ffffffffffffffffffffffffffffffffffffffff163373ffffffffffffffffffffffffffffffffffffffff167fecff3762708241a160664f7092d4ff3e5e6eed425112beca3a558737639f0ba38c8460006001811115611afc57611afb614375565b5b8e6001811115611b0f57611b0e614375565b5b14604051611b1f93929190614c8b565b60405180910390a3505050505050505050505050565b60008060009054906101000a900473ffffffffffffffffffffffffffffffffffffffff16905090565b60007f000000000000000000000000000000000000000000000000000000000000000073ffffffffffffffffffffffffffffffffffffffff16635c273c2f846001806040518463ffffffff1660e01b8152600401611bbe93929190614ce3565b602060405180830381865afa158015611bdb573d6000803e3d6000fd5b505050506040513d601f19601f82011682018060405250810190611bff9190614548565b905060008173__MathLib_______________________________63fed4a0f39091856040518363ffffffff1660e01b8152600401611c3e929190614584565b602060405180830381865af4158015611c5b573d6000803e3d6000fd5b505050506040513d601f19601f82011682018060405250810190611c7f9190614548565b73__MarketLib_____________________________63174e20e690918673ffffffffffffffffffffffffffffffffffffffff16631f21f9af6040518163ffffffff1660e01b8152600401602060405180830381865afa158015611ce6573d6000803e3d6000fd5b505050506040513d601f19601f82011682018060405250810190611d0a91906141f7565b73ffffffffffffffffffffffffffffffffffffffff1663cb4c86b76040518163ffffffff1660e01b8152600401602060405180830381865afa158015611d54573d6000803e3d6000fd5b505050506040513d601f19601f82011682018060405250810190611d78919061444a565b73ffffffffffffffffffffffffffffffffffffffff1663313ce5676040518163ffffffff1660e01b8152600401602060405180830381865afa158015611dc2573d6000803e3d6000fd5b505050506040513d601f19601f82011682018060405250810190611de691906144b0565b6040518363ffffffff1660e01b8152600401611e03929190614d4b565b602060405180830381865af4158015611e20573d6000803e3d6000fd5b505050506040513d601f19601f82011682018060405250810190611e449190614548565b90508373ffffffffffffffffffffffffffffffffffffffff16639dc29fac33856040518363ffffffff1660e01b8152600401611e81929190614666565b600060405180830381600087803b158015611e9b57600080fd5b505af1158015611eaf573d6000803e3d6000fd5b505050508373ffffffffffffffffffffffffffffffffffffffff16631f21f9af6040518163ffffffff1660e01b8152600401602060405180830381865afa158015611efe573d6000803e3d6000fd5b505050506040513d601f19601f82011682018060405250810190611f2291906141f7565b73ffffffffffffffffffffffffffffffffffffffff16633e60e34833836040518363ffffffff1660e01b8152600401611f5c929190614666565b600060405180830381600087803b158015611f7657600080fd5b505af1158015611f8a573d6000803e3d6000fd5b5050505050505050565b6000806000806000604051806102200160405280896001811115611fbb57611fba614375565b5b8152602001886001811115611fd357611fd2614375565b5b815260200160006003811115611fec57611feb614375565b5b81526020013373ffffffffffffffffffffffffffffffffffffffff16815260200160008152602001428152602001600081526020018c815260200160008152602001600081526020018a8152602001600081526020018b81526020016000815260200160008152602001600081526020018d73ffffffffffffffffffffffffffffffffffffffff1681525090507f000000000000000000000000000000000000000000000000000000000000000073ffffffffffffffffffffffffffffffffffffffff16632360e81782886040518363ffffffff1660e01b81526004016120d4929190614aed565b608060405180830381865afa1580156120f1573d6000803e3d6000fd5b505050506040513d601f19601f820116820180604052508101906121159190614b18565b945094509450945050975097509750979350505050565b60008573ffffffffffffffffffffffffffffffffffffffff16631f21f9af6040518163ffffffff1660e01b8152600401602060405180830381865afa158015612179573d6000803e3d6000fd5b505050506040513d601f19601f8201168201806040525081019061219d91906141f7565b90508073ffffffffffffffffffffffffffffffffffffffff166305268cff6040518163ffffffff1660e01b8152600401602060405180830381865afa1580156121ea573d6000803e3d6000fd5b505050506040513d601f19601f8201168201806040525081019061220e919061451b565b73ffffffffffffffffffffffffffffffffffffffff1663255fdcff876040518263ffffffff1660e01b81526004016122469190613eda565b602060405180830381865afa158015612263573d6000803e3d6000fd5b505050506040513d601f19601f8201168201806040525081019061228791906147f0565b6122c6576040517f08c379a00000000000000000000000000000000000000000000000000000000081526004016122bd90614869565b60405180910390fd5b60008173ffffffffffffffffffffffffffffffffffffffff166305268cff6040518163ffffffff1660e01b8152600401602060405180830381865afa158015612313573d6000803e3d6000fd5b505050506040513d601f19601f82011682018060405250810190612337919061451b565b73ffffffffffffffffffffffffffffffffffffffff16636cce89168373ffffffffffffffffffffffffffffffffffffffff16636f307dc36040518163ffffffff1660e01b8152600401602060405180830381865afa15801561239d573d6000803e3d6000fd5b505050506040513d601f19601f820116820180604052508101906123c1919061468f565b886040518363ffffffff1660e01b81526004016123df929190614666565b602060405180830381865afa1580156123fc573d6000803e3d6000fd5b505050506040513d601f19601f820116820180604052508101906124209190614731565b9050600060405180610220016040528086600181111561244357612442614375565b5b815260200185600181111561245b5761245a614375565b5b81526020016000600381111561247457612473614375565b5b81526020013373ffffffffffffffffffffffffffffffffffffffff1681526020016000815260200142815260200160008152602001888152602001600081526020016000815260200187815260200160008152602001600081526020016000815260200160008152602001600081526020018973ffffffffffffffffffffffffffffffffffffffff16815250905060008373ffffffffffffffffffffffffffffffffffffffff1663cb4c86b76040518163ffffffff1660e01b8152600401602060405180830381865afa15801561254f573d6000803e3d6000fd5b505050506040513d601f19601f82011682018060405250810190612573919061444a565b905060008173ffffffffffffffffffffffffffffffffffffffff1663313ce5676040518163ffffffff1660e01b8152600401602060405180830381865afa1580156125c2573d6000803e3d6000fd5b505050506040513d601f19601f820116820180604052508101906125e691906144b0565b60ff1690506000806000807f000000000000000000000000000000000000000000000000000000000000000073ffffffffffffffffffffffffffffffffffffffff16632360e8178860016040518363ffffffff1660e01b815260040161264d929190614aed565b608060405180830381865afa15801561266a573d6000803e3d6000fd5b505050506040513d601f19601f8201168201806040525081019061268e9190614b18565b9350935093509350600084116126d9576040517f08c379a00000000000000000000000000000000000000000000000000000000081526004016126d090614dc0565b60405180910390fd5b600080600060018111156126f0576126ef614375565b5b8c600181111561270357612702614375565b5b03612995578973ffffffffffffffffffffffffffffffffffffffff1663921f2c3b87856040518363ffffffff1660e01b8152600401612743929190614c22565b6040805180830381865afa15801561275f573d6000803e3d6000fd5b505050506040513d601f19601f820116820180604052508101906127839190614c4b565b80925081935050508f73ffffffffffffffffffffffffffffffffffffffff1663372688b06040518163ffffffff1660e01b8152600401602060405180830381865afa1580156127d6573d6000803e3d6000fd5b505050506040513d601f19601f820116820180604052508101906127fa9190614548565b811161283b576040517f08c379a000000000000000000000000000000000000000000000000000000000815260040161283290614e2c565b60405180910390fd5b8973ffffffffffffffffffffffffffffffffffffffff16639dc29fac33846040518363ffffffff1660e01b8152600401612876929190614666565b600060405180830381600087803b15801561289057600080fd5b505af11580156128a4573d6000803e3d6000fd5b505050508973ffffffffffffffffffffffffffffffffffffffff1663c40768768c8873__MarketLib_____________________________63174e20e690918c6040518363ffffffff1660e01b8152600401612900929190614584565b602060405180830381865af415801561291d573d6000803e3d6000fd5b505050506040513d601f19601f820116820180604052508101906129419190614548565b6040518363ffffffff1660e01b815260040161295e929190614666565b600060405180830381600087803b15801561297857600080fd5b505af115801561298c573d6000803e3d6000fd5b50505050612caf565b6000851115612ad9578773ffffffffffffffffffffffffffffffffffffffff166323b872dd338d8873__MarketLib_____________________________63174e20e690918d6040518363ffffffff1660e01b81526004016129f7929190614584565b602060405180830381865af4158015612a14573d6000803e3d6000fd5b505050506040513d601f19601f82011682018060405250810190612a389190614548565b6040518463ffffffff1660e01b8152600401612a5693929190614b7f565b6020604051808303816000875af1158015612a75573d6000803e3d6000fd5b505050506040513d601f19601f82011682018060405250810190612a9991906147f0565b612ad8576040517f08c379a0000000000000000000000000000000000000000000000000000000008152600401612acf90614e98565b60405180910390fd5b5b8973ffffffffffffffffffffffffffffffffffffffff1663b3e1f05087856040518363ffffffff1660e01b8152600401612b14929190614c22565b6040805180830381865afa158015612b30573d6000803e3d6000fd5b505050506040513d601f19601f82011682018060405250810190612b549190614c4b565b50809250508a73ffffffffffffffffffffffffffffffffffffffff16633e60e3488b8873__MarketLib_____________________________63174e20e690918c6040518363ffffffff1660e01b8152600401612bb1929190614584565b602060405180830381865af4158015612bce573d6000803e3d6000fd5b505050506040513d601f19601f82011682018060405250810190612bf29190614548565b6040518363ffffffff1660e01b8152600401612c0f929190614666565b600060405180830381600087803b158015612c2957600080fd5b505af1158015612c3d573d6000803e3d6000fd5b505050508973ffffffffffffffffffffffffffffffffffffffff166340c10f1933846040518363ffffffff1660e01b8152600401612c7c929190614666565b600060405180830381600087803b158015612c9657600080fd5b505af1158015612caa573d6000803e3d6000fd5b505050505b60007f000000000000000000000000000000000000000000000000000000000000000073ffffffffffffffffffffffffffffffffffffffff1663b9f10b668b8973__MarketLib_____________________________63174e20e690918d6040518363ffffffff1660e01b8152600401612d29929190614584565b602060405180830381865af4158015612d46573d6000803e3d6000fd5b505050506040513d601f19601f82011682018060405250810190612d6a9190614548565b8973__MarketLib_____________________________63174e20e690918e6040518363ffffffff1660e01b8152600401612da5929190614584565b602060405180830381865af4158015612dc2573d6000803e3d6000fd5b505050506040513d601f19601f82011682018060405250810190612de69190614548565b89896040518663ffffffff1660e01b8152600401612e08959493929190614eb8565b6020604051808303816000875af1158015612e27573d6000803e3d6000fd5b505050506040513d601f19601f82011682018060405250810190612e4b9190614548565b90503073ffffffffffffffffffffffffffffffffffffffff163373ffffffffffffffffffffffffffffffffffffffff167f2588b8b06c1fb0f749c19fc01df761fb6c5d2497e519c7193a5262ce0d84471483868a6001604051612eb19493929190614f10565b60405180910390a35050505050505050505050505050505050565b6000604051806102200160405280846001811115612eed57612eec614375565b5b8152602001836001811115612f0557612f04614375565b5b815260200160006003811115612f1e57612f1d614375565b5b81526020013373ffffffffffffffffffffffffffffffffffffffff16815260200160008152602001428152602001600081526020018781526020016000815260200160008152602001858152602001600081526020018681526020016000815260200160008152602001600081526020018873ffffffffffffffffffffffffffffffffffffffff1681525090506000806000807f000000000000000000000000000000000000000000000000000000000000000073ffffffffffffffffffffffffffffffffffffffff16632360e8178660006040518363ffffffff1660e01b815260040161300d929190614aed565b608060405180830381865afa15801561302a573d6000803e3d6000fd5b505050506040513d601f19601f8201168201806040525081019061304e9190614b18565b935093509350935060008b73ffffffffffffffffffffffffffffffffffffffff16631f21f9af6040518163ffffffff1660e01b8152600401602060405180830381865afa1580156130a3573d6000803e3d6000fd5b505050506040513d601f19601f820116820180604052508101906130c791906141f7565b905060008173ffffffffffffffffffffffffffffffffffffffff1663cb4c86b76040518163ffffffff1660e01b8152600401602060405180830381865afa158015613116573d6000803e3d6000fd5b505050506040513d601f19601f8201168201806040525081019061313a919061444a565b905060008173ffffffffffffffffffffffffffffffffffffffff1663313ce5676040518163ffffffff1660e01b8152600401602060405180830381865afa158015613189573d6000803e3d6000fd5b505050506040513d601f19601f820116820180604052508101906131ad91906144b0565b60ff1690508673__MarketLib_____________________________63174e20e69091836040518363ffffffff1660e01b81526004016131ed929190614584565b602060405180830381865af415801561320a573d6000803e3d6000fd5b505050506040513d601f19601f8201168201806040525081019061322e9190614548565b96508573__MarketLib_____________________________63174e20e69091836040518363ffffffff1660e01b815260040161326b929190614584565b602060405180830381865af4158015613288573d6000803e3d6000fd5b505050506040513d601f19601f820116820180604052508101906132ac9190614548565b9550600087876132bc91906145dc565b90506001808111156132d1576132d0614375565b5b8a60018111156132e4576132e3614375565b5b0361333a5787871161332b576040517f08c379a000000000000000000000000000000000000000000000000000000000815260040161332290614fa1565b60405180910390fd5b87876133379190614632565b90505b8273ffffffffffffffffffffffffffffffffffffffff166323b872dd3386846040518463ffffffff1660e01b815260040161337793929190614b7f565b6020604051808303816000875af1158015613396573d6000803e3d6000fd5b505050506040513d601f19601f820116820180604052508101906133ba91906147f0565b6133f9576040517f08c379a00000000000000000000000000000000000000000000000000000000081526004016133f09061500d565b60405180910390fd5b60007f000000000000000000000000000000000000000000000000000000000000000073ffffffffffffffffffffffffffffffffffffffff1663b9f10b668b8b8b8b8b6040518663ffffffff1660e01b815260040161345c959493929190614eb8565b6020604051808303816000875af115801561347b573d6000803e3d6000fd5b505050506040513d601f19601f8201168201806040525081019061349f9190614548565b90507f000000000000000000000000000000000000000000000000000000000000000073ffffffffffffffffffffffffffffffffffffffff166324b4110e82336040518363ffffffff1660e01b81526004016134fc92919061502d565b600060405180830381600087803b15801561351657600080fd5b505af115801561352a573d6000803e3d6000fd5b505050503073ffffffffffffffffffffffffffffffffffffffff163373ffffffffffffffffffffffffffffffffffffffff167f2588b8b06c1fb0f749c19fc01df761fb6c5d2497e519c7193a5262ce0d844714838c8c60006040516135929493929190614f10565b60405180910390a350505050505050505050505050505050565b60007f000000000000000000000000000000000000000000000000000000000000000073ffffffffffffffffffffffffffffffffffffffff16635c273c2f84600060016040518463ffffffff1660e01b815260040161360d93929190614ce3565b602060405180830381865afa15801561362a573d6000803e3d6000fd5b505050506040513d601f19601f8201168201806040525081019061364e9190614548565b905060008373ffffffffffffffffffffffffffffffffffffffff16631f21f9af6040518163ffffffff1660e01b8152600401602060405180830381865afa15801561369d573d6000803e3d6000fd5b505050506040513d601f19601f820116820180604052508101906136c191906141f7565b73ffffffffffffffffffffffffffffffffffffffff1663cb4c86b76040518163ffffffff1660e01b8152600401602060405180830381865afa15801561370b573d6000803e3d6000fd5b505050506040513d601f19601f8201168201806040525081019061372f919061444a565b905060008373__MarketLib_____________________________63ed1bb19990918473ffffffffffffffffffffffffffffffffffffffff1663313ce5676040518163ffffffff1660e01b8152600401602060405180830381865afa15801561379b573d6000803e3d6000fd5b505050506040513d601f19601f820116820180604052508101906137bf91906144b0565b6040518363ffffffff1660e01b81526004016137dc929190614d4b565b602060405180830381865af41580156137f9573d6000803e3d6000fd5b505050506040513d601f19601f8201168201806040525081019061381d9190614548565b73__MathLib_______________________________63de7f61709091856040518363ffffffff1660e01b8152600401613857929190614584565b602060405180830381865af4158015613874573d6000803e3d6000fd5b505050506040513d601f19601f820116820180604052508101906138989190614548565b90508173ffffffffffffffffffffffffffffffffffffffff166323b872dd338773ffffffffffffffffffffffffffffffffffffffff16631f21f9af6040518163ffffffff1660e01b8152600401602060405180830381865afa158015613902573d6000803e3d6000fd5b505050506040513d601f19601f8201168201806040525081019061392691906141f7565b876040518463ffffffff1660e01b815260040161394593929190614b7f565b6020604051808303816000875af1158015613964573d6000803e3d6000fd5b505050506040513d601f19601f8201168201806040525081019061398891906147f0565b61399157600080fd5b8473ffffffffffffffffffffffffffffffffffffffff166340c10f1933836040518363ffffffff1660e01b81526004016139cc929190614666565b600060405180830381600087803b1580156139e657600080fd5b505af11580156139fa573d6000803e3d6000fd5b505050505050505050565b613a0d613b39565b73ffffffffffffffffffffffffffffffffffffffff16613a2b611b35565b73ffffffffffffffffffffffffffffffffffffffff1614613a81576040517f08c379a0000000000000000000000000000000000000000000000000000000008152600401613a78906147bb565b60405180910390fd5b600073ffffffffffffffffffffffffffffffffffffffff168173ffffffffffffffffffffffffffffffffffffffff1603613af0576040517f08c379a0000000000000000000000000000000000000000000000000000000008152600401613ae7906150c8565b60405180910390fd5b613af981613b41565b50565b7f000000000000000000000000000000000000000000000000000000000000000081565b6000818310613b2f5781613b31565b825b905092915050565b600033905090565b60008060009054906101000a900473ffffffffffffffffffffffffffffffffffffffff169050816000806101000a81548173ffffffffffffffffffffffffffffffffffffffff021916908373ffffffffffffffffffffffffffffffffffffffff1602179055508173ffffffffffffffffffffffffffffffffffffffff168173ffffffffffffffffffffffffffffffffffffffff167f8be0079c531659141344cd1fd0a4f28419497f9722a3daafe3b4186f6b6457e060405160405180910390a35050565b600080fd5b600073ffffffffffffffffffffffffffffffffffffffff82169050919050565b6000613c3582613c0a565b9050919050565b6000613c4782613c2a565b9050919050565b613c5781613c3c565b8114613c6257600080fd5b50565b600081359050613c7481613c4e565b92915050565b600060208284031215613c9057613c8f613c05565b5b6000613c9e84828501613c65565b91505092915050565b6000819050919050565b6000613ccc613cc7613cc284613c0a565b613ca7565b613c0a565b9050919050565b6000613cde82613cb1565b9050919050565b6000613cf082613cd3565b9050919050565b613d0081613ce5565b82525050565b6000602082019050613d1b6000830184613cf7565b92915050565b6000819050919050565b613d3481613d21565b8114613d3f57600080fd5b50565b600081359050613d5181613d2b565b92915050565b613d6081613c2a565b8114613d6b57600080fd5b50565b600081359050613d7d81613d57565b92915050565b60008060408385031215613d9a57613d99613c05565b5b6000613da885828601613d42565b9250506020613db985828601613d6e565b9150509250929050565b60008060408385031215613dda57613dd9613c05565b5b6000613de885828601613c65565b9250506020613df985828601613d42565b9150509250929050565b6000613e0e82613cd3565b9050919050565b613e1e81613e03565b82525050565b6000602082019050613e396000830184613e15565b92915050565b60028110613e4c57600080fd5b50565b600081359050613e5e81613e3f565b92915050565b60008060008060808587031215613e7e57613e7d613c05565b5b6000613e8c87828801613c65565b9450506020613e9d87828801613d42565b9350506040613eae87828801613d42565b9250506060613ebf87828801613e4f565b91505092959194509250565b613ed481613c2a565b82525050565b6000602082019050613eef6000830184613ecb565b92915050565b60028110613f0257600080fd5b50565b600081359050613f1481613ef5565b92915050565b60008115159050919050565b613f2f81613f1a565b8114613f3a57600080fd5b50565b600081359050613f4c81613f26565b92915050565b600080600080600080600060e0888a031215613f7157613f70613c05565b5b6000613f7f8a828b01613c65565b9750506020613f908a828b01613d42565b9650506040613fa18a828b01613d42565b9550506060613fb28a828b01613d42565b9450506080613fc38a828b01613f05565b93505060a0613fd48a828b01613e4f565b92505060c0613fe58a828b01613f3d565b91505092959891949750929550565b613ffd81613d21565b82525050565b60006080820190506140186000830187613ff4565b6140256020830186613ff4565b6140326040830185613ff4565b61403f6060830184613ff4565b95945050505050565b600080600080600060a0868803121561406457614063613c05565b5b600061407288828901613c65565b955050602061408388828901613d42565b945050604061409488828901613d42565b93505060606140a588828901613f05565b92505060806140b688828901613e4f565b9150509295509295909350565b60008060008060008060c087890312156140e0576140df613c05565b5b60006140ee89828a01613c65565b96505060206140ff89828a01613d42565b955050604061411089828a01613d42565b945050606061412189828a01613d42565b935050608061413289828a01613f05565b92505060a061414389828a01613e4f565b9150509295509295509295565b60006020828403121561416657614165613c05565b5b600061417484828501613d6e565b91505092915050565b600061418882613cd3565b9050919050565b6141988161417d565b82525050565b60006020820190506141b3600083018461418f565b92915050565b60006141c482613c2a565b9050919050565b6141d4816141b9565b81146141df57600080fd5b50565b6000815190506141f1816141cb565b92915050565b60006020828403121561420d5761420c613c05565b5b600061421b848285016141e2565b91505092915050565b600061422f82613c2a565b9050919050565b61423f81614224565b811461424a57600080fd5b50565b60008151905061425c81614236565b92915050565b60006020828403121561427857614277613c05565b5b60006142868482850161424d565b91505092915050565b60006020820190506142a46000830184613ff4565b92915050565b600481106142b757600080fd5b50565b6000815190506142c9816142aa565b92915050565b6000815190506142de81613e3f565b92915050565b6000815190506142f381613d57565b92915050565b60008151905061430881613c4e565b92915050565b6000806000806080858703121561432857614327613c05565b5b6000614336878288016142ba565b9450506020614347878288016142cf565b9350506040614358878288016142e4565b9250506060614369878288016142f9565b91505092959194509250565b7f4e487b7100000000000000000000000000000000000000000000000000000000600052602160045260246000fd5b6000815190506143b381613d2b565b92915050565b6000806000606084860312156143d2576143d1613c05565b5b60006143e0868287016143a4565b93505060206143f1868287016143a4565b9250506040614402868287016143a4565b9150509250925092565b600061441782613c2a565b9050919050565b6144278161440c565b811461443257600080fd5b50565b6000815190506144448161441e565b92915050565b6000602082840312156144605761445f613c05565b5b600061446e84828501614435565b91505092915050565b600060ff82169050919050565b61448d81614477565b811461449857600080fd5b50565b6000815190506144aa81614484565b92915050565b6000602082840312156144c6576144c5613c05565b5b60006144d48482850161449b565b91505092915050565b60006144e882613c2a565b9050919050565b6144f8816144dd565b811461450357600080fd5b50565b600081519050614515816144ef565b92915050565b60006020828403121561453157614530613c05565b5b600061453f84828501614506565b91505092915050565b60006020828403121561455e5761455d613c05565b5b600061456c848285016143a4565b91505092915050565b61457e81613d21565b82525050565b60006040820190506145996000830185614575565b6145a66020830184614575565b9392505050565b7f4e487b7100000000000000000000000000000000000000000000000000000000600052601160045260246000fd5b60006145e782613d21565b91506145f283613d21565b9250827fffffffffffffffffffffffffffffffffffffffffffffffffffffffffffffffff03821115614627576146266145ad565b5b828201905092915050565b600061463d82613d21565b915061464883613d21565b92508282101561465b5761465a6145ad565b5b828203905092915050565b600060408201905061467b6000830185613ecb565b6146886020830184613ff4565b9392505050565b6000602082840312156146a5576146a4613c05565b5b60006146b3848285016142e4565b91505092915050565b60006060820190506146d16000830186613ecb565b6146de6020830185613ff4565b6146eb6040830184613ff4565b949350505050565b60006146fe82613c2a565b9050919050565b61470e816146f3565b811461471957600080fd5b50565b60008151905061472b81614705565b92915050565b60006020828403121561474757614746613c05565b5b60006147558482850161471c565b91505092915050565b600082825260208201905092915050565b7f4f776e61626c653a2063616c6c6572206973206e6f7420746865206f776e6572600082015250565b60006147a560208361475e565b91506147b08261476f565b602082019050919050565b600060208201905081810360008301526147d481614798565b9050919050565b6000815190506147ea81613f26565b92915050565b60006020828403121561480657614805613c05565b5b6000614814848285016147db565b91505092915050565b7f2d56500000000000000000000000000000000000000000000000000000000000600082015250565b600061485360038361475e565b915061485e8261481d565b602082019050919050565b6000602082019050818103600083015261488281614846565b9050919050565b6002811061489a57614899614375565b5b50565b60008190506148ab82614889565b919050565b60006148bb8261489d565b9050919050565b6148cb816148b0565b82525050565b600281106148e2576148e1614375565b5b50565b60008190506148f3826148d1565b919050565b6000614903826148e5565b9050919050565b614913816148f8565b82525050565b6004811061492a57614929614375565b5b50565b600081905061493b82614919565b919050565b600061494b8261492d565b9050919050565b61495b81614940565b82525050565b61496a81613c2a565b82525050565b61497981613d21565b82525050565b6102208201600082015161499660008501826148c2565b5060208201516149a9602085018261490a565b5060408201516149bc6040850182614952565b5060608201516149cf6060850182614961565b5060808201516149e26080850182614970565b5060a08201516149f560a0850182614970565b5060c0820151614a0860c0850182614970565b5060e0820151614a1b60e0850182614970565b50610100820151614a30610100850182614970565b50610120820151614a45610120850182614970565b50610140820151614a5a610140850182614970565b50610160820151614a6f610160850182614970565b50610180820151614a84610180850182614970565b506101a0820151614a996101a0850182614970565b506101c0820151614aae6101c0850182614970565b506101e0820151614ac36101e0850182614970565b50610200820151614ad8610200850182614961565b50505050565b614ae781613f1a565b82525050565b600061024082019050614b03600083018561497f565b614b11610220830184614ade565b9392505050565b60008060008060808587031215614b3257614b31613c05565b5b6000614b40878288016143a4565b9450506020614b51878288016143a4565b9350506040614b62878288016143a4565b9250506060614b73878288016143a4565b91505092959194509250565b6000606082019050614b946000830186613ecb565b614ba16020830185613ecb565b614bae6040830184613ff4565b949350505050565b7f2d56420000000000000000000000000000000000000000000000000000000000600082015250565b6000614bec60038361475e565b9150614bf782614bb6565b602082019050919050565b60006020820190508181036000830152614c1b81614bdf565b9050919050565b6000604082019050614c376000830185613ff4565b614c446020830184613ff4565b9392505050565b60008060408385031215614c6257614c61613c05565b5b6000614c70858286016143a4565b9250506020614c81858286016143a4565b9150509250929050565b6000606082019050614ca06000830186613ff4565b614cad6020830185613ff4565b614cba6040830184614ade565b949350505050565b6000614ccd82613cd3565b9050919050565b614cdd81614cc2565b82525050565b6000606082019050614cf86000830186614cd4565b614d056020830185614ade565b614d126040830184614ade565b949350505050565b6000614d35614d30614d2b84614477565b613ca7565b613d21565b9050919050565b614d4581614d1a565b82525050565b6000604082019050614d606000830185614575565b614d6d6020830184614d3c565b9392505050565b7f3050000000000000000000000000000000000000000000000000000000000000600082015250565b6000614daa60028361475e565b9150614db582614d74565b602082019050919050565b60006020820190508181036000830152614dd981614d9d565b9050919050565b7f6d56500000000000000000000000000000000000000000000000000000000000600082015250565b6000614e1660038361475e565b9150614e2182614de0565b602082019050919050565b60006020820190508181036000830152614e4581614e09565b9050919050565b7f2d434d0000000000000000000000000000000000000000000000000000000000600082015250565b6000614e8260038361475e565b9150614e8d82614e4c565b602082019050919050565b60006020820190508181036000830152614eb181614e75565b9050919050565b60006102a082019050614ece600083018861497f565b614edc610220830187613ff4565b614eea610240830186613ff4565b614ef8610260830185613ff4565b614f06610280830184613ff4565b9695505050505050565b6000608082019050614f256000830187613ff4565b614f326020830186613ff4565b614f3f6040830185613ff4565b614f4c6060830184614ade565b95945050505050565b7f77726f6e67207072656d69756d00000000000000000000000000000000000000600082015250565b6000614f8b600d8361475e565b9150614f9682614f55565b602082019050919050565b60006020820190508181036000830152614fba81614f7e565b9050919050565b7f2d454f0000000000000000000000000000000000000000000000000000000000600082015250565b6000614ff760038361475e565b915061500282614fc1565b602082019050919050565b6000602082019050818103600083015261502681614fea565b9050919050565b60006040820190506150426000830185613ff4565b61504f6020830184613ecb565b9392505050565b7f4f776e61626c653a206e6577206f776e657220697320746865207a65726f206160008201527f6464726573730000000000000000000000000000000000000000000000000000602082015250565b60006150b260268361475e565b91506150bd82615056565b604082019050919050565b600060208201905081810360008301526150e1816150a5565b905091905056fea26469706673582212201ae8291be56b9f242f17d0da884d823f81f94a20ef005b66d57f1f123f38c95164736f6c634300080e0033",
  "immutableReferences": {
    "5418": [
      {
        "length": 32,
        "start": 868
      },
      {
        "length": 32,
        "start": 1074
      },
      {
        "length": 32,
        "start": 1216
      },
      {
        "length": 32,
        "start": 5575
      },
      {
        "length": 32,
        "start": 7010
      },
      {
        "length": 32,
        "start": 8315
      },
      {
        "length": 32,
        "start": 9715
      },
      {
        "length": 32,
        "start": 11443
      },
      {
        "length": 32,
        "start": 12211
      },
      {
        "length": 32,
        "start": 13309
      },
      {
        "length": 32,
        "start": 13475
      },
      {
        "length": 32,
        "start": 13744
      },
      {
        "length": 32,
        "start": 15102
      }
    ]
  },
  "source": "// SPDX-License-Identifier: MIT\npragma solidity ^0.8.4;\n\nimport \"@openzeppelin/contracts/token/ERC20/ERC20.sol\";\nimport \"@openzeppelin/contracts/access/Ownable.sol\";\nimport \"@openzeppelin/contracts/utils/math/SafeMath.sol\";\nimport \"./interfaces/EOption.sol\";\nimport \"./libraries/MathLib.sol\";\nimport \"./libraries/MarketLib.sol\";\nimport \"./libraries/OptionLib.sol\";\nimport \"./governance/Moret.sol\";\nimport \"./pools/Pool.sol\";\nimport \"./pools/MarketMaker.sol\";\nimport \"./OptionVault.sol\";\nimport \"./VolatilityToken.sol\";\n\ncontract Exchange is Ownable, EOption{\n  using MarketLib for uint256;\n  using MathLib for uint256;\n  using SafeMath for uint256;\n\n  // immutable addresses\n  // Moret public immutable govToken;\n  OptionVault public immutable vault;\n  // ERC20 public immutable funding;\n  // uint256 public fundingDecimals;\n\n  // contructor. Arguments: pool tokens, volatility oracle, option vault and bot address\n  constructor(OptionVault _optionVault){\n    // govToken = _govToken;\n    // funding = _funding;\n    // fundingDecimals = _funding.decimals();\n    vault = _optionVault;}\n  \n  function queryOption(Pool _pool, uint256 _tenor, uint256 _strike, uint256 _amount, OptionLib.PayoffType _poType, OptionLib.OptionSide _side, bool _forceATM) external view returns(uint256 _premium, uint256 _collateral, uint256 _price, uint256 _volatility){\n    OptionLib.Option memory _option = OptionLib.Option(_poType, _side, OptionLib.OptionStatus.Draft, msg.sender, 0, block.timestamp,  0, _tenor, 0,  0, _amount, 0, _strike, 0, 0, 0, address(_pool));\n    return vault.calcOptionCost(_option, _forceATM);}\n\n  // functions to transact for option contracts\n  // arguments: pool token address, tenor in seconds, strike in 18 decimals, amount in 18 decimals, payoff type (call 0 or put 1), option side (buy 0 or sell 1)\n  function tradeOption(Pool _pool, uint256 _tenor, uint256 _strike, uint256 _amount, OptionLib.PayoffType _poType, OptionLib.OptionSide _side) external {\n    OptionLib.Option memory _option = OptionLib.Option(_poType, _side, OptionLib.OptionStatus.Draft, msg.sender, 0, block.timestamp,  0, _tenor, 0,  0, _amount, 0, _strike, 0, 0, 0, address(_pool));\n    \n    (uint256 _premium, uint256 _collateral, uint256 _price, uint256 _vol) = vault.calcOptionCost(_option, false);\n    MarketMaker _marketMaker = _pool.marketMaker();\n    ERC20 _funding = _marketMaker.funding();\n    uint256 _fundingDecimals = _funding.decimals();\n    _premium = _premium.toDecimals(_fundingDecimals);\n    _collateral = _collateral.toDecimals(_fundingDecimals);\n\n    uint256 _cost = _collateral + _premium;\n    if(_side == OptionLib.OptionSide.Sell){\n      require(_collateral > _premium,\"wrong premium\");\n      _cost = _collateral - _premium;}\n\n    require(_funding.transferFrom(msg.sender, address(_marketMaker), _cost), '-EO');  \n\n    uint256 _id = vault.addOption(_option, _premium, _collateral, _price, _vol);\n    vault.stampActiveOption(_id, msg.sender);\n\n    emit NewOption(msg.sender, address(this), _id, _premium, _collateral, false);}\n\n  // functions to transact for option contracts with volatility tokens (buy or sell)\n  // arguments: pool token address, tenor in seconds, strike in 18 decimals, amount in 18 decimals, payoff type (call 0 or put 1), option side (buy 0 or sell 1)\n  function tradeOptionInVol(Pool _pool, uint256 _tenor, uint256 _amount, OptionLib.PayoffType _poType, OptionLib.OptionSide _side) external {\n    MarketMaker _marketMaker = _pool.marketMaker();\n    require(_marketMaker.govToken().existVolTradingPool(address(_pool)), '-VP'); // only certified pools can trade vol\n    VolatilityToken _vToken = _marketMaker.govToken().getVolatilityToken(_marketMaker.underlying(), _tenor);\n    OptionLib.Option memory _option = OptionLib.Option(_poType, _side, OptionLib.OptionStatus.Draft, msg.sender, 0, block.timestamp,  0, _tenor, 0,  0, _amount, 0, 0, 0, 0, 0, address(_pool));\n\n    ERC20 _funding = _marketMaker.funding();\n    uint256 _fundingDecimals = _funding.decimals();\n    (uint256 _premium, uint256 _collateral , uint256 _price , uint256 _vol) = vault.calcOptionCost(_option, true); \n    require(_premium > 0, '0P'); // make sure premium is positive\n    \n    uint256 _volAmount;\n    uint256 _volPrice;\n    if (_side == OptionLib.OptionSide.Buy){\n      (_volAmount, _volPrice) = _vToken.getBurnAmount(_premium, _vol);\n      require(_volPrice > _pool.minVolPrice(), 'mVP');\n      _vToken.burn(msg.sender, _volAmount);\n      _vToken.pay(address(_marketMaker), _premium.toDecimals(_fundingDecimals));}\n    else{\n      if(_collateral > 0){\n        require(_funding.transferFrom(msg.sender, address(_marketMaker), _collateral.toDecimals(_fundingDecimals)), '-CM'); }\n\n      (_volAmount, ) = _vToken.getMintAmount(_premium, _vol);\n      _marketMaker.settlePayment(address(_vToken), _premium.toDecimals(_fundingDecimals)); \n      _vToken.mint(msg.sender, _volAmount);}\n\n    uint256 _id = vault.addOption(_option, _premium.toDecimals(_fundingDecimals), _collateral.toDecimals(_fundingDecimals), _price, _vol);\n\n    emit NewOption(msg.sender, address(this), _id, _volAmount, _collateral, true);\n  }\n\n  // functions to transact volatility tokens (buy or sell)\n  // arguments: pool token address, tenor in seconds, strike in 18 decimals, amount in 18 decimals, payoff type (call 0 or put 1), option side (buy 0 or sell 1)\n  function tradeVolToken(Pool _pool, uint256 _tenor, uint256 _amount, OptionLib.OptionSide _side) external {\n    MarketMaker _marketMaker = _pool.marketMaker();\n    require(_marketMaker.govToken().existVolTradingPool(address(_pool)), '-VP'); // only certified pools can trade vol\n    VolatilityToken _vToken = _marketMaker.govToken().getVolatilityToken(_marketMaker.underlying(), _tenor);\n    OptionLib.Option memory _option = OptionLib.Option(OptionLib.PayoffType.Put, _side, OptionLib.OptionStatus.Draft, msg.sender, 0, block.timestamp,  0, _tenor, 0,  0, _amount, 0, 0, 0, 0, 0, address(_pool));\n\n    ERC20 _funding = _marketMaker.funding();\n    uint256 _fundingDecimals = _funding.decimals();\n    (uint256 _premium, , , uint256 _vol) = vault.calcOptionCost(_option, true); \n    \n    uint256 _volAmount;\n    if (_side == OptionLib.OptionSide.Buy){\n      require(_funding.transferFrom(msg.sender, address(_vToken), _premium.toDecimals(_fundingDecimals)), \"-VB\");\n      (_volAmount, ) = _vToken.getMintAmount(_premium, _vol);\n      _vToken.mint(msg.sender, _volAmount);}\n    else{\n      (_volAmount, ) = _vToken.getBurnAmount(_premium, _vol);\n      _vToken.burn(msg.sender, _volAmount);\n      _vToken.pay(msg.sender, _premium.toDecimals(_fundingDecimals));}\n    \n    emit TradeVolatility(msg.sender, address(_pool), _amount, _volAmount, _side == OptionLib.OptionSide.Buy);}\n\n  // get volatility token\n  function getVolatilityToken(Pool _pool, uint256 _tenor) external view returns(VolatilityToken){\n    MarketMaker _marketMaker = _pool.marketMaker();\n    return _marketMaker.govToken().getVolatilityToken(_marketMaker.underlying(), _tenor);\n  }\n\n  // get volatility chain\n  function getVolatilityChain(Pool _pool) external view returns(VolatilityChain){\n    MarketMaker _marketMaker = _pool.marketMaker();\n    return _marketMaker.getVolatilityChain();\n  }\n\n  // expire option contracts (one at a time), with exercise fees paid to the exercising bots.\n  function expireOption(uint256 _expiringId, address _exerciseFeeRecipient) external {\n    // uint256 _expiringId = vault.getExpiringOptionId();\n    (OptionLib.OptionStatus _optionStatus, OptionLib.OptionSide _optionSide, address _optionHolder, Pool _pool) = vault.getOptionInfo(_expiringId);\n\n    if(_optionStatus == OptionLib.OptionStatus.Active){\n      vault.stampExpiredOption(_expiringId);\n      (uint256 _payoff, uint256 _payback,) = vault.getContractPayoff(_expiringId);\n      \n      uint256 _fundingDecimals = _pool.marketMaker().funding().decimals();\n      uint256 _protocolAmount = _payoff.ethmul(_pool.marketMaker().govToken().protocolFee()).toDecimals(_fundingDecimals);\n      uint256 _exerciseAmount = _payoff.ethmul(_pool.exerciseFee()).toDecimals(_fundingDecimals);\n      _payback = _payback.toDecimals(_fundingDecimals);\n\n      if(_optionSide == OptionLib.OptionSide.Buy){\n        _payback = _payback - Math.min(_payback, _protocolAmount + _exerciseAmount);\n\n      MarketMaker _marketMaker = MarketMaker(_pool.marketMaker());\n      _marketMaker.settlePayment(_optionHolder, _payback);\n      _marketMaker.settlePayment(_pool.marketMaker().govToken().protocolFeeRecipient(), _protocolAmount);\n      _marketMaker.settlePayment(_exerciseFeeRecipient, _exerciseAmount);      \n      emit Expire(msg.sender, address(this), _optionHolder, _expiringId, _payback);}}}\n  \n  // add capital by depositing amount in funding tokens\n  function addCapital(Pool _pool, uint256 _depositAmount) external {\n    uint256 _averageGrossCapital = vault.calcCapital(_pool, false, true);\n    ERC20 _funding = _pool.marketMaker().funding();\n    uint256 _mintPoolAmount = _depositAmount.toWei(_funding.decimals()).ethdiv(_averageGrossCapital);\n    require(_funding.transferFrom(msg.sender, address(_pool.marketMaker()), _depositAmount));\n    _pool.mint(msg.sender, _mintPoolAmount);}\n\n  // remove capital by withdrawing amount in funding tokens\n  function withdrawCapital(Pool _pool, uint256 _burnPoolAmount) external {\n    uint256 _averageNetCapital = vault.calcCapital(_pool, true, true);\n    uint256 _withdrawValue = _averageNetCapital.ethmul(_burnPoolAmount).toDecimals(_pool.marketMaker().funding().decimals()); \n    _pool.burn(msg.sender, _burnPoolAmount);\n    _pool.marketMaker().settlePayment(msg.sender, _withdrawValue);}\n\n}\n",
  "sourcePath": "/Users/mac/Documents/GitHub/moret/contracts/Exchange.sol",
  "compiler": {
    "name": "solc",
    "version": "0.8.14+commit.80d49f37.Emscripten.clang"
  },
  "schemaVersion": "3.4.3",
  "updatedAt": "2022-06-12T14:10:11.353Z",
  "devdoc": {
    "kind": "dev",
    "methods": {
      "owner()": {
        "details": "Returns the address of the current owner."
      },
      "renounceOwnership()": {
        "details": "Leaves the contract without owner. It will not be possible to call `onlyOwner` functions anymore. Can only be called by the current owner. NOTE: Renouncing ownership will leave the contract without an owner, thereby removing any functionality that is only available to the owner."
      },
      "transferOwnership(address)": {
        "details": "Transfers ownership of the contract to a new account (`newOwner`). Can only be called by the current owner."
      }
    },
    "version": 1
  },
  "userdoc": {
    "kind": "user",
    "methods": {},
    "version": 1
  }
}