{
  "contractName": "Exchange",
  "abi": [
    {
      "inputs": [
        {
          "internalType": "contract OptionVault",
          "name": "_optionVault",
          "type": "address"
        }
      ],
      "stateMutability": "nonpayable",
      "type": "constructor"
    },
    {
      "anonymous": false,
      "inputs": [
        {
          "indexed": true,
          "internalType": "address",
          "name": "_bot",
          "type": "address"
        },
        {
          "indexed": true,
          "internalType": "address",
          "name": "_exchange",
          "type": "address"
        },
        {
          "indexed": false,
          "internalType": "address",
          "name": "_holder",
          "type": "address"
        },
        {
          "indexed": false,
          "internalType": "uint256",
          "name": "_id",
          "type": "uint256"
        },
        {
          "indexed": false,
          "internalType": "uint256",
          "name": "_payoff",
          "type": "uint256"
        }
      ],
      "name": "Expire",
      "type": "event"
    },
    {
      "anonymous": false,
      "inputs": [
        {
          "indexed": true,
          "internalType": "address",
          "name": "_hedger",
          "type": "address"
        },
        {
          "indexed": true,
          "internalType": "address",
          "name": "_market",
          "type": "address"
        },
        {
          "indexed": false,
          "internalType": "bool",
          "name": "success",
          "type": "bool"
        },
        {
          "indexed": false,
          "internalType": "bytes",
          "name": "data",
          "type": "bytes"
        }
      ],
      "name": "HedgeResponse",
      "type": "event"
    },
    {
      "anonymous": false,
      "inputs": [
        {
          "indexed": true,
          "internalType": "address",
          "name": "_hedger",
          "type": "address"
        },
        {
          "indexed": true,
          "internalType": "address",
          "name": "_market",
          "type": "address"
        },
        {
          "indexed": false,
          "internalType": "uint256[]",
          "name": "amounts",
          "type": "uint256[]"
        }
      ],
      "name": "HedgeSwapResponse",
      "type": "event"
    },
    {
      "anonymous": false,
      "inputs": [
        {
          "indexed": true,
          "internalType": "address",
          "name": "_purchaser",
          "type": "address"
        },
        {
          "indexed": true,
          "internalType": "address",
          "name": "_underlying",
          "type": "address"
        },
        {
          "indexed": false,
          "internalType": "uint256",
          "name": "_optionId",
          "type": "uint256"
        }
      ],
      "name": "NewOption",
      "type": "event"
    },
    {
      "anonymous": false,
      "inputs": [
        {
          "indexed": true,
          "internalType": "address",
          "name": "previousOwner",
          "type": "address"
        },
        {
          "indexed": true,
          "internalType": "address",
          "name": "newOwner",
          "type": "address"
        }
      ],
      "name": "OwnershipTransferred",
      "type": "event"
    },
    {
      "anonymous": false,
      "inputs": [
        {
          "indexed": false,
          "internalType": "address",
          "name": "_newBot",
          "type": "address"
        }
      ],
      "name": "ResetBotAddress",
      "type": "event"
    },
    {
      "anonymous": false,
      "inputs": [
        {
          "indexed": true,
          "internalType": "uint256",
          "name": "_parameterId",
          "type": "uint256"
        },
        {
          "indexed": false,
          "internalType": "uint256",
          "name": "_parameter",
          "type": "uint256"
        }
      ],
      "name": "ResetParameter",
      "type": "event"
    },
    {
      "anonymous": false,
      "inputs": [
        {
          "indexed": true,
          "internalType": "address",
          "name": "_exchange",
          "type": "address"
        },
        {
          "indexed": false,
          "internalType": "bool",
          "name": "_tradingAllowed",
          "type": "bool"
        }
      ],
      "name": "ResetTradingStatus",
      "type": "event"
    },
    {
      "anonymous": false,
      "inputs": [
        {
          "indexed": true,
          "internalType": "address",
          "name": "_purchaser",
          "type": "address"
        },
        {
          "indexed": true,
          "internalType": "address",
          "name": "_exchange",
          "type": "address"
        },
        {
          "indexed": false,
          "internalType": "uint256",
          "name": "_cost",
          "type": "uint256"
        },
        {
          "indexed": false,
          "internalType": "uint256",
          "name": "_volAmount",
          "type": "uint256"
        },
        {
          "indexed": false,
          "internalType": "bool",
          "name": "_isPurchase",
          "type": "bool"
        }
      ],
      "name": "TradeVolatility",
      "type": "event"
    },
    {
      "inputs": [],
      "name": "owner",
      "outputs": [
        {
          "internalType": "address",
          "name": "",
          "type": "address"
        }
      ],
      "stateMutability": "view",
      "type": "function",
      "constant": true
    },
    {
      "inputs": [],
      "name": "renounceOwnership",
      "outputs": [],
      "stateMutability": "nonpayable",
      "type": "function"
    },
    {
      "inputs": [
        {
          "internalType": "address",
          "name": "newOwner",
          "type": "address"
        }
      ],
      "name": "transferOwnership",
      "outputs": [],
      "stateMutability": "nonpayable",
      "type": "function"
    },
    {
      "inputs": [],
      "name": "vault",
      "outputs": [
        {
          "internalType": "contract OptionVault",
          "name": "",
          "type": "address"
        }
      ],
      "stateMutability": "view",
      "type": "function",
      "constant": true
    },
    {
      "inputs": [
        {
          "internalType": "contract Pool",
          "name": "_pool",
          "type": "address"
        },
        {
          "internalType": "uint256",
          "name": "_tenor",
          "type": "uint256"
        },
        {
          "internalType": "uint256",
          "name": "_strike",
          "type": "uint256"
        },
        {
          "internalType": "uint256",
          "name": "_amount",
          "type": "uint256"
        },
        {
          "internalType": "enum OptionLib.PayoffType",
          "name": "_poType",
          "type": "uint8"
        },
        {
          "internalType": "enum OptionLib.OptionSide",
          "name": "_side",
          "type": "uint8"
        },
        {
          "internalType": "bool",
          "name": "_forceATM",
          "type": "bool"
        }
      ],
      "name": "queryOption",
      "outputs": [
        {
          "internalType": "uint256",
          "name": "_premium",
          "type": "uint256"
        },
        {
          "internalType": "uint256",
          "name": "_collateral",
          "type": "uint256"
        },
        {
          "internalType": "uint256",
          "name": "_price",
          "type": "uint256"
        },
        {
          "internalType": "uint256",
          "name": "_volatility",
          "type": "uint256"
        }
      ],
      "stateMutability": "view",
      "type": "function",
      "constant": true
    },
    {
      "inputs": [
        {
          "internalType": "contract Pool",
          "name": "_pool",
          "type": "address"
        },
        {
          "internalType": "uint256",
          "name": "_tenor",
          "type": "uint256"
        },
        {
          "internalType": "uint256",
          "name": "_strike",
          "type": "uint256"
        },
        {
          "internalType": "uint256",
          "name": "_amount",
          "type": "uint256"
        },
        {
          "internalType": "enum OptionLib.PayoffType",
          "name": "_poType",
          "type": "uint8"
        },
        {
          "internalType": "enum OptionLib.OptionSide",
          "name": "_side",
          "type": "uint8"
        },
        {
          "internalType": "enum OptionLib.PaymentMethod",
          "name": "_payment",
          "type": "uint8"
        }
      ],
      "name": "tradeOption",
      "outputs": [],
      "stateMutability": "nonpayable",
      "type": "function"
    },
    {
      "inputs": [
        {
          "internalType": "contract Pool",
          "name": "_pool",
          "type": "address"
        },
        {
          "internalType": "uint256",
          "name": "_tenor",
          "type": "uint256"
        },
        {
          "internalType": "uint256",
          "name": "_amount",
          "type": "uint256"
        },
        {
          "internalType": "enum OptionLib.OptionSide",
          "name": "_side",
          "type": "uint8"
        }
      ],
      "name": "tradeVolToken",
      "outputs": [],
      "stateMutability": "nonpayable",
      "type": "function"
    },
    {
      "inputs": [
        {
          "internalType": "contract Pool",
          "name": "_pool",
          "type": "address"
        },
        {
          "internalType": "uint256",
          "name": "_tenor",
          "type": "uint256"
        }
      ],
      "name": "getVolatilityToken",
      "outputs": [
        {
          "internalType": "contract VolatilityToken",
          "name": "",
          "type": "address"
        }
      ],
      "stateMutability": "view",
      "type": "function",
      "constant": true
    },
    {
      "inputs": [
        {
          "internalType": "contract Pool",
          "name": "_pool",
          "type": "address"
        }
      ],
      "name": "getVolatilityChain",
      "outputs": [
        {
          "internalType": "contract VolatilityChain",
          "name": "",
          "type": "address"
        }
      ],
      "stateMutability": "view",
      "type": "function",
      "constant": true
    },
    {
      "inputs": [
        {
          "internalType": "uint256",
          "name": "_expiringId",
          "type": "uint256"
        },
        {
          "internalType": "address",
          "name": "_exerciseFeeRecipient",
          "type": "address"
        }
      ],
      "name": "expireOption",
      "outputs": [],
      "stateMutability": "nonpayable",
      "type": "function"
    },
    {
      "inputs": [
        {
          "internalType": "contract Pool",
          "name": "_pool",
          "type": "address"
        },
        {
          "internalType": "uint256",
          "name": "_depositAmount",
          "type": "uint256"
        }
      ],
      "name": "addCapital",
      "outputs": [],
      "stateMutability": "nonpayable",
      "type": "function"
    },
    {
      "inputs": [
        {
          "internalType": "contract Pool",
          "name": "_pool",
          "type": "address"
        },
        {
          "internalType": "uint256",
          "name": "_burnPoolAmount",
          "type": "uint256"
        }
      ],
      "name": "withdrawCapital",
      "outputs": [],
      "stateMutability": "nonpayable",
      "type": "function"
    }
  ],
  "bytecode": "0x60a06040523480156200001157600080fd5b506040516200565e3803806200565e8339818101604052810190620000379190620001dc565b620000576200004b6200009260201b60201c565b6200009a60201b60201c565b8073ffffffffffffffffffffffffffffffffffffffff1660808173ffffffffffffffffffffffffffffffffffffffff1681525050506200020e565b600033905090565b60008060009054906101000a900473ffffffffffffffffffffffffffffffffffffffff169050816000806101000a81548173ffffffffffffffffffffffffffffffffffffffff021916908373ffffffffffffffffffffffffffffffffffffffff1602179055508173ffffffffffffffffffffffffffffffffffffffff168173ffffffffffffffffffffffffffffffffffffffff167f8be0079c531659141344cd1fd0a4f28419497f9722a3daafe3b4186f6b6457e060405160405180910390a35050565b600080fd5b600073ffffffffffffffffffffffffffffffffffffffff82169050919050565b6000620001908262000163565b9050919050565b6000620001a48262000183565b9050919050565b620001b68162000197565b8114620001c257600080fd5b50565b600081519050620001d681620001ab565b92915050565b600060208284031215620001f557620001f46200015e565b5b60006200020584828501620001c5565b91505092915050565b6080516153ee620002706000396000818161040c0152818161056d01528181610613015281816107f6015281816108c40152818161095201528181611a5901528181611ff40152818161250d015281816125c20152612b1001526153ee6000f3fe608060405234801561001057600080fd5b50600436106100b45760003560e01c80638da5cb5b116100715780638da5cb5b146101775780639111fccd14610195578063b1ff6171146101b1578063e98254bb146101e4578063f2fde38b14610200578063fbfa77cf1461021c576100b4565b806315dc2e9d146100b9578063508cd68d146100e957806354f6e8c8146101055780636cce891614610121578063715018a614610151578063826fdbbd1461015b575b600080fd5b6100d360048036038101906100ce919061403c565b61023a565b6040516100e091906140c8565b60405180910390f35b61010360048036038101906100fe9190614188565b610325565b005b61011f600480360381019061011a9190614256565b6107ee565b005b61013b60048036038101906101369190614296565b611338565b60405161014891906142f7565b60405180910390f35b61015961150d565b005b61017560048036038101906101709190614312565b611595565b005b61017f611fc7565b60405161018c9190614388565b60405180910390f35b6101af60048036038101906101aa9190614296565b611ff0565b005b6101cb60048036038101906101c691906143db565b612426565b6040516101db949392919061448c565b60405180910390f35b6101fe60048036038101906101f99190614296565b6125be565b005b61021a600480360381019061021591906144d1565b612a17565b005b610224612b0e565b604051610231919061451f565b60405180910390f35b6000808273ffffffffffffffffffffffffffffffffffffffff16631f21f9af6040518163ffffffff1660e01b8152600401602060405180830381865afa158015610288573d6000803e3d6000fd5b505050506040513d601f19601f820116820180604052508101906102ac9190614578565b90508073ffffffffffffffffffffffffffffffffffffffff1663c0a16f6a6040518163ffffffff1660e01b8152600401602060405180830381865afa1580156102f9573d6000803e3d6000fd5b505050506040513d601f19601f8201168201806040525081019061031d91906145e3565b915050919050565b600060405180610220016040528085600181111561034657610345614610565b5b815260200184600181111561035e5761035d614610565b5b81526020016000600381111561037757610376614610565b5b81526020013373ffffffffffffffffffffffffffffffffffffffff16815260200160008152602001428152602001600081526020018881526020016000815260200160008152602001868152602001600081526020018781526020016000815260200160008152602001600081526020018973ffffffffffffffffffffffffffffffffffffffff1681525090506000806000807f000000000000000000000000000000000000000000000000000000000000000073ffffffffffffffffffffffffffffffffffffffff16632360e8178660006040518363ffffffff1660e01b81526004016104669291906148a3565b608060405180830381865afa158015610483573d6000803e3d6000fd5b505050506040513d601f19601f820116820180604052508101906104a791906148e3565b93509350935093508383116104f1576040517f08c379a00000000000000000000000000000000000000000000000000000000081526004016104e8906149a7565b60405180910390fd5b6000600181111561050557610504614610565b5b87600181111561051857610517614610565b5b0361052d5761052c8c338d8786868c612b32565b5b6001808111156105405761053f614610565b5b87600181111561055357610552614610565b5b03610569576105688c338d878787878d613482565b5b60007f000000000000000000000000000000000000000000000000000000000000000073ffffffffffffffffffffffffffffffffffffffff1663b9f10b6687878787876040518663ffffffff1660e01b81526004016105cc9594939291906149c7565b6020604051808303816000875af11580156105eb573d6000803e3d6000fd5b505050506040513d601f19601f8201168201806040525081019061060f9190614a1f565b90507f000000000000000000000000000000000000000000000000000000000000000073ffffffffffffffffffffffffffffffffffffffff166324b4110e82336040518363ffffffff1660e01b815260040161066c929190614a4c565b600060405180830381600087803b15801561068657600080fd5b505af115801561069a573d6000803e3d6000fd5b505050508c73ffffffffffffffffffffffffffffffffffffffff16631f21f9af6040518163ffffffff1660e01b8152600401602060405180830381865afa1580156106e9573d6000803e3d6000fd5b505050506040513d601f19601f8201168201806040525081019061070d9190614578565b73ffffffffffffffffffffffffffffffffffffffff16636f307dc36040518163ffffffff1660e01b8152600401602060405180830381865afa158015610757573d6000803e3d6000fd5b505050506040513d601f19601f8201168201806040525081019061077b9190614a8a565b73ffffffffffffffffffffffffffffffffffffffff163373ffffffffffffffffffffffffffffffffffffffff167f43e72efa3a4fa0d2e34fd004e07a50adf9a48ccb50611e1f75eefffbc3a65c67836040516107d79190614ab7565b60405180910390a350505050505050505050505050565b6000806000807f000000000000000000000000000000000000000000000000000000000000000073ffffffffffffffffffffffffffffffffffffffff1663fc9d80e0876040518263ffffffff1660e01b815260040161084d9190614ab7565b608060405180830381865afa15801561086a573d6000803e3d6000fd5b505050506040513d601f19601f8201168201806040525081019061088e9190614b21565b9350935093509350600160038111156108aa576108a9614610565b5b8460038111156108bd576108bc614610565b5b03611330577f000000000000000000000000000000000000000000000000000000000000000073ffffffffffffffffffffffffffffffffffffffff1663637baf60876040518263ffffffff1660e01b815260040161091b9190614ab7565b600060405180830381600087803b15801561093557600080fd5b505af1158015610949573d6000803e3d6000fd5b505050506000807f000000000000000000000000000000000000000000000000000000000000000073ffffffffffffffffffffffffffffffffffffffff166385ae10e6896040518263ffffffff1660e01b81526004016109a99190614ab7565b606060405180830381865afa1580156109c6573d6000803e3d6000fd5b505050506040513d601f19601f820116820180604052508101906109ea9190614b88565b509150915060008373ffffffffffffffffffffffffffffffffffffffff16631f21f9af6040518163ffffffff1660e01b8152600401602060405180830381865afa158015610a3c573d6000803e3d6000fd5b505050506040513d601f19601f82011682018060405250810190610a609190614578565b73ffffffffffffffffffffffffffffffffffffffff1663cb4c86b76040518163ffffffff1660e01b8152600401602060405180830381865afa158015610aaa573d6000803e3d6000fd5b505050506040513d601f19601f82011682018060405250810190610ace9190614c19565b73ffffffffffffffffffffffffffffffffffffffff1663313ce5676040518163ffffffff1660e01b8152600401602060405180830381865afa158015610b18573d6000803e3d6000fd5b505050506040513d601f19601f82011682018060405250810190610b3c9190614c7f565b60ff16905060008373__MathLib_______________________________63fed4a0f390918773ffffffffffffffffffffffffffffffffffffffff16631f21f9af6040518163ffffffff1660e01b8152600401602060405180830381865afa158015610bab573d6000803e3d6000fd5b505050506040513d601f19601f82011682018060405250810190610bcf9190614578565b73ffffffffffffffffffffffffffffffffffffffff166305268cff6040518163ffffffff1660e01b8152600401602060405180830381865afa158015610c19573d6000803e3d6000fd5b505050506040513d601f19601f82011682018060405250810190610c3d9190614cea565b73ffffffffffffffffffffffffffffffffffffffff1663b0e21e8a6040518163ffffffff1660e01b8152600401602060405180830381865afa158015610c87573d6000803e3d6000fd5b505050506040513d601f19601f82011682018060405250810190610cab9190614a1f565b6040518363ffffffff1660e01b8152600401610cc8929190614d26565b602060405180830381865af4158015610ce5573d6000803e3d6000fd5b505050506040513d601f19601f82011682018060405250810190610d099190614a1f565b73__MarketLib_____________________________63174e20e69091846040518363ffffffff1660e01b8152600401610d43929190614d26565b602060405180830381865af4158015610d60573d6000803e3d6000fd5b505050506040513d601f19601f82011682018060405250810190610d849190614a1f565b905060008473__MathLib_______________________________63fed4a0f390918873ffffffffffffffffffffffffffffffffffffffff1663d1c699aa6040518163ffffffff1660e01b8152600401602060405180830381865afa158015610df0573d6000803e3d6000fd5b505050506040513d601f19601f82011682018060405250810190610e149190614a1f565b6040518363ffffffff1660e01b8152600401610e31929190614d26565b602060405180830381865af4158015610e4e573d6000803e3d6000fd5b505050506040513d601f19601f82011682018060405250810190610e729190614a1f565b73__MarketLib_____________________________63174e20e69091856040518363ffffffff1660e01b8152600401610eac929190614d26565b602060405180830381865af4158015610ec9573d6000803e3d6000fd5b505050506040513d601f19601f82011682018060405250810190610eed9190614a1f565b90508373__MarketLib_____________________________63174e20e69091856040518363ffffffff1660e01b8152600401610f2a929190614d26565b602060405180830381865af4158015610f47573d6000803e3d6000fd5b505050506040513d601f19601f82011682018060405250810190610f6b9190614a1f565b935060006001811115610f8157610f80614610565b5b886001811115610f9457610f93614610565b5b0361132a57610fae848284610fa99190614d7e565b613ee2565b84610fb99190614dd4565b935060008673ffffffffffffffffffffffffffffffffffffffff16631f21f9af6040518163ffffffff1660e01b8152600401602060405180830381865afa158015611008573d6000803e3d6000fd5b505050506040513d601f19601f8201168201806040525081019061102c9190614578565b90508073ffffffffffffffffffffffffffffffffffffffff16633e60e34889876040518363ffffffff1660e01b8152600401611069929190614e08565b600060405180830381600087803b15801561108357600080fd5b505af1158015611097573d6000803e3d6000fd5b505050508073ffffffffffffffffffffffffffffffffffffffff16633e60e3488873ffffffffffffffffffffffffffffffffffffffff16631f21f9af6040518163ffffffff1660e01b8152600401602060405180830381865afa158015611102573d6000803e3d6000fd5b505050506040513d601f19601f820116820180604052508101906111269190614578565b73ffffffffffffffffffffffffffffffffffffffff166305268cff6040518163ffffffff1660e01b8152600401602060405180830381865afa158015611170573d6000803e3d6000fd5b505050506040513d601f19601f820116820180604052508101906111949190614cea565b73ffffffffffffffffffffffffffffffffffffffff166364df049e6040518163ffffffff1660e01b8152600401602060405180830381865afa1580156111de573d6000803e3d6000fd5b505050506040513d601f19601f820116820180604052508101906112029190614a8a565b856040518363ffffffff1660e01b8152600401611220929190614e08565b600060405180830381600087803b15801561123a57600080fd5b505af115801561124e573d6000803e3d6000fd5b505050508073ffffffffffffffffffffffffffffffffffffffff16633e60e3488c846040518363ffffffff1660e01b815260040161128d929190614e08565b600060405180830381600087803b1580156112a757600080fd5b505af11580156112bb573d6000803e3d6000fd5b505050503073ffffffffffffffffffffffffffffffffffffffff163373ffffffffffffffffffffffffffffffffffffffff167f1cf7404c642614322b1d508b6d5e34e05720d23d9596b59b19c8a05704b495e18a8f8960405161132093929190614e31565b60405180910390a3505b50505050505b505050505050565b6000808373ffffffffffffffffffffffffffffffffffffffff16631f21f9af6040518163ffffffff1660e01b8152600401602060405180830381865afa158015611386573d6000803e3d6000fd5b505050506040513d601f19601f820116820180604052508101906113aa9190614578565b90508073ffffffffffffffffffffffffffffffffffffffff166305268cff6040518163ffffffff1660e01b8152600401602060405180830381865afa1580156113f7573d6000803e3d6000fd5b505050506040513d601f19601f8201168201806040525081019061141b9190614cea565b73ffffffffffffffffffffffffffffffffffffffff16636cce89168273ffffffffffffffffffffffffffffffffffffffff16636f307dc36040518163ffffffff1660e01b8152600401602060405180830381865afa158015611481573d6000803e3d6000fd5b505050506040513d601f19601f820116820180604052508101906114a59190614a8a565b856040518363ffffffff1660e01b81526004016114c3929190614e08565b602060405180830381865afa1580156114e0573d6000803e3d6000fd5b505050506040513d601f19601f820116820180604052508101906115049190614ea6565b91505092915050565b611515613efb565b73ffffffffffffffffffffffffffffffffffffffff16611533611fc7565b73ffffffffffffffffffffffffffffffffffffffff1614611589576040517f08c379a000000000000000000000000000000000000000000000000000000000815260040161158090614f1f565b60405180910390fd5b6115936000613f03565b565b60008473ffffffffffffffffffffffffffffffffffffffff16631f21f9af6040518163ffffffff1660e01b8152600401602060405180830381865afa1580156115e2573d6000803e3d6000fd5b505050506040513d601f19601f820116820180604052508101906116069190614578565b90508073ffffffffffffffffffffffffffffffffffffffff166305268cff6040518163ffffffff1660e01b8152600401602060405180830381865afa158015611653573d6000803e3d6000fd5b505050506040513d601f19601f820116820180604052508101906116779190614cea565b73ffffffffffffffffffffffffffffffffffffffff1663255fdcff866040518263ffffffff1660e01b81526004016116af9190614388565b602060405180830381865afa1580156116cc573d6000803e3d6000fd5b505050506040513d601f19601f820116820180604052508101906116f09190614f54565b61172f576040517f08c379a000000000000000000000000000000000000000000000000000000000815260040161172690614fcd565b60405180910390fd5b60008173ffffffffffffffffffffffffffffffffffffffff166305268cff6040518163ffffffff1660e01b8152600401602060405180830381865afa15801561177c573d6000803e3d6000fd5b505050506040513d601f19601f820116820180604052508101906117a09190614cea565b73ffffffffffffffffffffffffffffffffffffffff16636cce89168373ffffffffffffffffffffffffffffffffffffffff16636f307dc36040518163ffffffff1660e01b8152600401602060405180830381865afa158015611806573d6000803e3d6000fd5b505050506040513d601f19601f8201168201806040525081019061182a9190614a8a565b876040518363ffffffff1660e01b8152600401611848929190614e08565b602060405180830381865afa158015611865573d6000803e3d6000fd5b505050506040513d601f19601f820116820180604052508101906118899190614ea6565b905060006040518061022001604052806001808111156118ac576118ab614610565b5b81526020018560018111156118c4576118c3614610565b5b8152602001600060038111156118dd576118dc614610565b5b81526020013373ffffffffffffffffffffffffffffffffffffffff1681526020016000815260200142815260200160008152602001878152602001600081526020016000815260200186815260200160008152602001600081526020016000815260200160008152602001600081526020018873ffffffffffffffffffffffffffffffffffffffff16815250905060008373ffffffffffffffffffffffffffffffffffffffff1663cb4c86b76040518163ffffffff1660e01b8152600401602060405180830381865afa1580156119b8573d6000803e3d6000fd5b505050506040513d601f19601f820116820180604052508101906119dc9190614c19565b905060008173ffffffffffffffffffffffffffffffffffffffff1663313ce5676040518163ffffffff1660e01b8152600401602060405180830381865afa158015611a2b573d6000803e3d6000fd5b505050506040513d601f19601f82011682018060405250810190611a4f9190614c7f565b60ff1690506000807f000000000000000000000000000000000000000000000000000000000000000073ffffffffffffffffffffffffffffffffffffffff16632360e8178660016040518363ffffffff1660e01b8152600401611ab39291906148a3565b608060405180830381865afa158015611ad0573d6000803e3d6000fd5b505050506040513d601f19601f82011682018060405250810190611af491906148e3565b9350505091506000806001811115611b0f57611b0e614610565b5b896001811115611b2257611b21614610565b5b03611d53578473ffffffffffffffffffffffffffffffffffffffff166323b872dd33898673__MarketLib_____________________________63174e20e690918a6040518363ffffffff1660e01b8152600401611b80929190614d26565b602060405180830381865af4158015611b9d573d6000803e3d6000fd5b505050506040513d601f19601f82011682018060405250810190611bc19190614a1f565b6040518463ffffffff1660e01b8152600401611bdf93929190614fed565b6020604051808303816000875af1158015611bfe573d6000803e3d6000fd5b505050506040513d601f19601f82011682018060405250810190611c229190614f54565b611c61576040517f08c379a0000000000000000000000000000000000000000000000000000000008152600401611c5890615070565b60405180910390fd5b8673ffffffffffffffffffffffffffffffffffffffff1663b3e1f05084846040518363ffffffff1660e01b8152600401611c9c929190615090565b6040805180830381865afa158015611cb8573d6000803e3d6000fd5b505050506040513d601f19601f82011682018060405250810190611cdc91906150b9565b50809150508673ffffffffffffffffffffffffffffffffffffffff166340c10f1933836040518363ffffffff1660e01b8152600401611d1c929190614e08565b600060405180830381600087803b158015611d3657600080fd5b505af1158015611d4a573d6000803e3d6000fd5b50505050611f29565b8673ffffffffffffffffffffffffffffffffffffffff1663921f2c3b84846040518363ffffffff1660e01b8152600401611d8e929190615090565b6040805180830381865afa158015611daa573d6000803e3d6000fd5b505050506040513d601f19601f82011682018060405250810190611dce91906150b9565b50809150508673ffffffffffffffffffffffffffffffffffffffff16639dc29fac33836040518363ffffffff1660e01b8152600401611e0e929190614e08565b600060405180830381600087803b158015611e2857600080fd5b505af1158015611e3c573d6000803e3d6000fd5b505050508673ffffffffffffffffffffffffffffffffffffffff1663c4076876338573__MarketLib_____________________________63174e20e69091896040518363ffffffff1660e01b8152600401611e98929190614d26565b602060405180830381865af4158015611eb5573d6000803e3d6000fd5b505050506040513d601f19601f82011682018060405250810190611ed99190614a1f565b6040518363ffffffff1660e01b8152600401611ef6929190614e08565b600060405180830381600087803b158015611f1057600080fd5b505af1158015611f24573d6000803e3d6000fd5b505050505b8b73ffffffffffffffffffffffffffffffffffffffff163373ffffffffffffffffffffffffffffffffffffffff167fecff3762708241a160664f7092d4ff3e5e6eed425112beca3a558737639f0ba38c8460006001811115611f8e57611f8d614610565b5b8e6001811115611fa157611fa0614610565b5b14604051611fb1939291906150f9565b60405180910390a3505050505050505050505050565b60008060009054906101000a900473ffffffffffffffffffffffffffffffffffffffff16905090565b60007f000000000000000000000000000000000000000000000000000000000000000073ffffffffffffffffffffffffffffffffffffffff16635c273c2f846001806040518463ffffffff1660e01b815260040161205093929190615151565b602060405180830381865afa15801561206d573d6000803e3d6000fd5b505050506040513d601f19601f820116820180604052508101906120919190614a1f565b905060008173__MathLib_______________________________63fed4a0f39091856040518363ffffffff1660e01b81526004016120d0929190614d26565b602060405180830381865af41580156120ed573d6000803e3d6000fd5b505050506040513d601f19601f820116820180604052508101906121119190614a1f565b73__MarketLib_____________________________63174e20e690918673ffffffffffffffffffffffffffffffffffffffff16631f21f9af6040518163ffffffff1660e01b8152600401602060405180830381865afa158015612178573d6000803e3d6000fd5b505050506040513d601f19601f8201168201806040525081019061219c9190614578565b73ffffffffffffffffffffffffffffffffffffffff1663cb4c86b76040518163ffffffff1660e01b8152600401602060405180830381865afa1580156121e6573d6000803e3d6000fd5b505050506040513d601f19601f8201168201806040525081019061220a9190614c19565b73ffffffffffffffffffffffffffffffffffffffff1663313ce5676040518163ffffffff1660e01b8152600401602060405180830381865afa158015612254573d6000803e3d6000fd5b505050506040513d601f19601f820116820180604052508101906122789190614c7f565b6040518363ffffffff1660e01b81526004016122959291906151b9565b602060405180830381865af41580156122b2573d6000803e3d6000fd5b505050506040513d601f19601f820116820180604052508101906122d69190614a1f565b90508373ffffffffffffffffffffffffffffffffffffffff16639dc29fac33856040518363ffffffff1660e01b8152600401612313929190614e08565b600060405180830381600087803b15801561232d57600080fd5b505af1158015612341573d6000803e3d6000fd5b505050508373ffffffffffffffffffffffffffffffffffffffff16631f21f9af6040518163ffffffff1660e01b8152600401602060405180830381865afa158015612390573d6000803e3d6000fd5b505050506040513d601f19601f820116820180604052508101906123b49190614578565b73ffffffffffffffffffffffffffffffffffffffff16633e60e34833836040518363ffffffff1660e01b81526004016123ee929190614e08565b600060405180830381600087803b15801561240857600080fd5b505af115801561241c573d6000803e3d6000fd5b5050505050505050565b600080600080600060405180610220016040528089600181111561244d5761244c614610565b5b815260200188600181111561246557612464614610565b5b81526020016000600381111561247e5761247d614610565b5b81526020013373ffffffffffffffffffffffffffffffffffffffff16815260200160008152602001428152602001600081526020018c815260200160008152602001600081526020018a8152602001600081526020018b81526020016000815260200160008152602001600081526020018d73ffffffffffffffffffffffffffffffffffffffff1681525090507f000000000000000000000000000000000000000000000000000000000000000073ffffffffffffffffffffffffffffffffffffffff16632360e81782886040518363ffffffff1660e01b81526004016125669291906148a3565b608060405180830381865afa158015612583573d6000803e3d6000fd5b505050506040513d601f19601f820116820180604052508101906125a791906148e3565b945094509450945050975097509750979350505050565b60007f000000000000000000000000000000000000000000000000000000000000000073ffffffffffffffffffffffffffffffffffffffff16635c273c2f84600060016040518463ffffffff1660e01b815260040161261f93929190615151565b602060405180830381865afa15801561263c573d6000803e3d6000fd5b505050506040513d601f19601f820116820180604052508101906126609190614a1f565b905060008373ffffffffffffffffffffffffffffffffffffffff16631f21f9af6040518163ffffffff1660e01b8152600401602060405180830381865afa1580156126af573d6000803e3d6000fd5b505050506040513d601f19601f820116820180604052508101906126d39190614578565b73ffffffffffffffffffffffffffffffffffffffff1663cb4c86b76040518163ffffffff1660e01b8152600401602060405180830381865afa15801561271d573d6000803e3d6000fd5b505050506040513d601f19601f820116820180604052508101906127419190614c19565b905060008373__MarketLib_____________________________63ed1bb19990918473ffffffffffffffffffffffffffffffffffffffff1663313ce5676040518163ffffffff1660e01b8152600401602060405180830381865afa1580156127ad573d6000803e3d6000fd5b505050506040513d601f19601f820116820180604052508101906127d19190614c7f565b6040518363ffffffff1660e01b81526004016127ee9291906151b9565b602060405180830381865af415801561280b573d6000803e3d6000fd5b505050506040513d601f19601f8201168201806040525081019061282f9190614a1f565b73__MathLib_______________________________63de7f61709091856040518363ffffffff1660e01b8152600401612869929190614d26565b602060405180830381865af4158015612886573d6000803e3d6000fd5b505050506040513d601f19601f820116820180604052508101906128aa9190614a1f565b90508173ffffffffffffffffffffffffffffffffffffffff166323b872dd338773ffffffffffffffffffffffffffffffffffffffff16631f21f9af6040518163ffffffff1660e01b8152600401602060405180830381865afa158015612914573d6000803e3d6000fd5b505050506040513d601f19601f820116820180604052508101906129389190614578565b876040518463ffffffff1660e01b815260040161295793929190614fed565b6020604051808303816000875af1158015612976573d6000803e3d6000fd5b505050506040513d601f19601f8201168201806040525081019061299a9190614f54565b6129a357600080fd5b8473ffffffffffffffffffffffffffffffffffffffff166340c10f1933836040518363ffffffff1660e01b81526004016129de929190614e08565b600060405180830381600087803b1580156129f857600080fd5b505af1158015612a0c573d6000803e3d6000fd5b505050505050505050565b612a1f613efb565b73ffffffffffffffffffffffffffffffffffffffff16612a3d611fc7565b73ffffffffffffffffffffffffffffffffffffffff1614612a93576040517f08c379a0000000000000000000000000000000000000000000000000000000008152600401612a8a90614f1f565b60405180910390fd5b600073ffffffffffffffffffffffffffffffffffffffff168173ffffffffffffffffffffffffffffffffffffffff1603612b02576040517f08c379a0000000000000000000000000000000000000000000000000000000008152600401612af990615254565b60405180910390fd5b612b0b81613f03565b50565b7f000000000000000000000000000000000000000000000000000000000000000081565b60008773ffffffffffffffffffffffffffffffffffffffff16631f21f9af6040518163ffffffff1660e01b8152600401602060405180830381865afa158015612b7f573d6000803e3d6000fd5b505050506040513d601f19601f82011682018060405250810190612ba39190614578565b905060008173ffffffffffffffffffffffffffffffffffffffff1663cb4c86b76040518163ffffffff1660e01b8152600401602060405180830381865afa158015612bf2573d6000803e3d6000fd5b505050506040513d601f19601f82011682018060405250810190612c169190614c19565b905060008173ffffffffffffffffffffffffffffffffffffffff1663313ce5676040518163ffffffff1660e01b8152600401602060405180830381865afa158015612c65573d6000803e3d6000fd5b505050506040513d601f19601f82011682018060405250810190612c899190614c7f565b60ff16905060008373ffffffffffffffffffffffffffffffffffffffff16636f307dc36040518163ffffffff1660e01b8152600401602060405180830381865afa158015612cdb573d6000803e3d6000fd5b505050506040513d601f19601f82011682018060405250810190612cff9190614a8a565b905060006002811115612d1557612d14614610565b5b856002811115612d2857612d27614610565b5b03612e6c578273ffffffffffffffffffffffffffffffffffffffff166323b872dd8b868b73__MarketLib_____________________________63174e20e69091886040518363ffffffff1660e01b8152600401612d86929190614d26565b602060405180830381865af4158015612da3573d6000803e3d6000fd5b505050506040513d601f19601f82011682018060405250810190612dc79190614a1f565b6040518463ffffffff1660e01b8152600401612de593929190614fed565b6020604051808303816000875af1158015612e04573d6000803e3d6000fd5b505050506040513d601f19601f82011682018060405250810190612e289190614f54565b612e67576040517f08c379a0000000000000000000000000000000000000000000000000000000008152600401612e5e906152c0565b60405180910390fd5b613475565b60016002811115612e8057612e7f614610565b5b856002811115612e9357612e92614610565b5b036130cf57600081905060008173ffffffffffffffffffffffffffffffffffffffff1663313ce5676040518163ffffffff1660e01b8152600401602060405180830381865afa158015612eea573d6000803e3d6000fd5b505050506040513d601f19601f82011682018060405250810190612f0e9190614c7f565b60ff1690508173ffffffffffffffffffffffffffffffffffffffff166323b872dd8d888d73__MathLib_______________________________63de7f617090918f6040518363ffffffff1660e01b8152600401612f6c929190614d26565b602060405180830381865af4158015612f89573d6000803e3d6000fd5b505050506040513d601f19601f82011682018060405250810190612fad9190614a1f565b73__MarketLib_____________________________63174e20e69091876040518363ffffffff1660e01b8152600401612fe7929190614d26565b602060405180830381865af4158015613004573d6000803e3d6000fd5b505050506040513d601f19601f820116820180604052508101906130289190614a1f565b6040518463ffffffff1660e01b815260040161304693929190614fed565b6020604051808303816000875af1158015613065573d6000803e3d6000fd5b505050506040513d601f19601f820116820180604052508101906130899190614f54565b6130c8576040517f08c379a00000000000000000000000000000000000000000000000000000000081526004016130bf906152c0565b60405180910390fd5b5050613474565b6002808111156130e2576130e1614610565b5b8560028111156130f5576130f4614610565b5b036134735760008473ffffffffffffffffffffffffffffffffffffffff166305268cff6040518163ffffffff1660e01b8152600401602060405180830381865afa158015613147573d6000803e3d6000fd5b505050506040513d601f19601f8201168201806040525081019061316b9190614cea565b73ffffffffffffffffffffffffffffffffffffffff16636cce8916838c6040518363ffffffff1660e01b81526004016131a5929190614e08565b602060405180830381865afa1580156131c2573d6000803e3d6000fd5b505050506040513d601f19601f820116820180604052508101906131e69190614ea6565b90506000808273ffffffffffffffffffffffffffffffffffffffff1663921f2c3b8c8b6040518363ffffffff1660e01b8152600401613226929190615090565b6040805180830381865afa158015613242573d6000803e3d6000fd5b505050506040513d601f19601f8201168201806040525081019061326691906150b9565b915091508d73ffffffffffffffffffffffffffffffffffffffff1663372688b06040518163ffffffff1660e01b8152600401602060405180830381865afa1580156132b5573d6000803e3d6000fd5b505050506040513d601f19601f820116820180604052508101906132d99190614a1f565b811161331a576040517f08c379a00000000000000000000000000000000000000000000000000000000081526004016133119061532c565b60405180910390fd5b8273ffffffffffffffffffffffffffffffffffffffff16639dc29fac33846040518363ffffffff1660e01b8152600401613355929190614e08565b600060405180830381600087803b15801561336f57600080fd5b505af1158015613383573d6000803e3d6000fd5b505050508273ffffffffffffffffffffffffffffffffffffffff1663c4076876888d73__MarketLib_____________________________63174e20e690918a6040518363ffffffff1660e01b81526004016133df929190614d26565b602060405180830381865af41580156133fc573d6000803e3d6000fd5b505050506040513d601f19601f820116820180604052508101906134209190614a1f565b6040518363ffffffff1660e01b815260040161343d929190614e08565b600060405180830381600087803b15801561345757600080fd5b505af115801561346b573d6000803e3d6000fd5b505050505050505b5b5b5050505050505050505050565b60008873ffffffffffffffffffffffffffffffffffffffff16631f21f9af6040518163ffffffff1660e01b8152600401602060405180830381865afa1580156134cf573d6000803e3d6000fd5b505050506040513d601f19601f820116820180604052508101906134f39190614578565b905060008173ffffffffffffffffffffffffffffffffffffffff1663cb4c86b76040518163ffffffff1660e01b8152600401602060405180830381865afa158015613542573d6000803e3d6000fd5b505050506040513d601f19601f820116820180604052508101906135669190614c19565b905060008173ffffffffffffffffffffffffffffffffffffffff1663313ce5676040518163ffffffff1660e01b8152600401602060405180830381865afa1580156135b5573d6000803e3d6000fd5b505050506040513d601f19601f820116820180604052508101906135d99190614c7f565b60ff169050600060028111156135f2576135f1614610565b5b84600281111561360557613604614610565b5b03613754578173ffffffffffffffffffffffffffffffffffffffff166323b872dd8b858b8b6136349190614dd4565b73__MarketLib_____________________________63174e20e69091876040518363ffffffff1660e01b815260040161366e929190614d26565b602060405180830381865af415801561368b573d6000803e3d6000fd5b505050506040513d601f19601f820116820180604052508101906136af9190614a1f565b6040518463ffffffff1660e01b81526004016136cd93929190614fed565b6020604051808303816000875af11580156136ec573d6000803e3d6000fd5b505050506040513d601f19601f820116820180604052508101906137109190614f54565b61374f576040517f08c379a0000000000000000000000000000000000000000000000000000000008152600401613746906152c0565b60405180910390fd5b613ed5565b6001600281111561376857613767614610565b5b84600281111561377b5761377a614610565b5b03613a305760008373ffffffffffffffffffffffffffffffffffffffff16636f307dc36040518163ffffffff1660e01b8152600401602060405180830381865afa1580156137cd573d6000803e3d6000fd5b505050506040513d601f19601f820116820180604052508101906137f19190614a8a565b905060008173ffffffffffffffffffffffffffffffffffffffff1663313ce5676040518163ffffffff1660e01b8152600401602060405180830381865afa158015613840573d6000803e3d6000fd5b505050506040513d601f19601f820116820180604052508101906138649190614c7f565b60ff1690508173ffffffffffffffffffffffffffffffffffffffff166323b872dd8d878d8d6138939190614dd4565b73__MathLib_______________________________63de7f617090918e6040518363ffffffff1660e01b81526004016138cd929190614d26565b602060405180830381865af41580156138ea573d6000803e3d6000fd5b505050506040513d601f19601f8201168201806040525081019061390e9190614a1f565b73__MarketLib_____________________________63174e20e69091876040518363ffffffff1660e01b8152600401613948929190614d26565b602060405180830381865af4158015613965573d6000803e3d6000fd5b505050506040513d601f19601f820116820180604052508101906139899190614a1f565b6040518463ffffffff1660e01b81526004016139a793929190614fed565b6020604051808303816000875af11580156139c6573d6000803e3d6000fd5b505050506040513d601f19601f820116820180604052508101906139ea9190614f54565b613a29576040517f08c379a0000000000000000000000000000000000000000000000000000000008152600401613a20906152c0565b60405180910390fd5b5050613ed4565b600280811115613a4357613a42614610565b5b846002811115613a5657613a55614610565b5b03613ed3576000871115613b9f578173ffffffffffffffffffffffffffffffffffffffff166323b872dd33858a73__MarketLib_____________________________63174e20e69091876040518363ffffffff1660e01b8152600401613abd929190614d26565b602060405180830381865af4158015613ada573d6000803e3d6000fd5b505050506040513d601f19601f82011682018060405250810190613afe9190614a1f565b6040518463ffffffff1660e01b8152600401613b1c93929190614fed565b6020604051808303816000875af1158015613b3b573d6000803e3d6000fd5b505050506040513d601f19601f82011682018060405250810190613b5f9190614f54565b613b9e576040517f08c379a0000000000000000000000000000000000000000000000000000000008152600401613b9590615398565b60405180910390fd5b5b60008373ffffffffffffffffffffffffffffffffffffffff166305268cff6040518163ffffffff1660e01b8152600401602060405180830381865afa158015613bec573d6000803e3d6000fd5b505050506040513d601f19601f82011682018060405250810190613c109190614cea565b73ffffffffffffffffffffffffffffffffffffffff16636cce89168573ffffffffffffffffffffffffffffffffffffffff16636f307dc36040518163ffffffff1660e01b8152600401602060405180830381865afa158015613c76573d6000803e3d6000fd5b505050506040513d601f19601f82011682018060405250810190613c9a9190614a8a565b8c6040518363ffffffff1660e01b8152600401613cb8929190614e08565b602060405180830381865afa158015613cd5573d6000803e3d6000fd5b505050506040513d601f19601f82011682018060405250810190613cf99190614ea6565b905060008173ffffffffffffffffffffffffffffffffffffffff1663b3e1f0508b896040518363ffffffff1660e01b8152600401613d38929190615090565b6040805180830381865afa158015613d54573d6000803e3d6000fd5b505050506040513d601f19601f82011682018060405250810190613d7891906150b9565b5090508473ffffffffffffffffffffffffffffffffffffffff16633e60e348838c73__MarketLib_____________________________63174e20e69091886040518363ffffffff1660e01b8152600401613dd3929190614d26565b602060405180830381865af4158015613df0573d6000803e3d6000fd5b505050506040513d601f19601f82011682018060405250810190613e149190614a1f565b6040518363ffffffff1660e01b8152600401613e31929190614e08565b600060405180830381600087803b158015613e4b57600080fd5b505af1158015613e5f573d6000803e3d6000fd5b505050508173ffffffffffffffffffffffffffffffffffffffff166340c10f1933836040518363ffffffff1660e01b8152600401613e9e929190614e08565b600060405180830381600087803b158015613eb857600080fd5b505af1158015613ecc573d6000803e3d6000fd5b5050505050505b5b5b5050505050505050505050565b6000818310613ef15781613ef3565b825b905092915050565b600033905090565b60008060009054906101000a900473ffffffffffffffffffffffffffffffffffffffff169050816000806101000a81548173ffffffffffffffffffffffffffffffffffffffff021916908373ffffffffffffffffffffffffffffffffffffffff1602179055508173ffffffffffffffffffffffffffffffffffffffff168173ffffffffffffffffffffffffffffffffffffffff167f8be0079c531659141344cd1fd0a4f28419497f9722a3daafe3b4186f6b6457e060405160405180910390a35050565b600080fd5b600073ffffffffffffffffffffffffffffffffffffffff82169050919050565b6000613ff782613fcc565b9050919050565b600061400982613fec565b9050919050565b61401981613ffe565b811461402457600080fd5b50565b60008135905061403681614010565b92915050565b60006020828403121561405257614051613fc7565b5b600061406084828501614027565b91505092915050565b6000819050919050565b600061408e61408961408484613fcc565b614069565b613fcc565b9050919050565b60006140a082614073565b9050919050565b60006140b282614095565b9050919050565b6140c2816140a7565b82525050565b60006020820190506140dd60008301846140b9565b92915050565b6000819050919050565b6140f6816140e3565b811461410157600080fd5b50565b600081359050614113816140ed565b92915050565b6002811061412657600080fd5b50565b60008135905061413881614119565b92915050565b6002811061414b57600080fd5b50565b60008135905061415d8161413e565b92915050565b6003811061417057600080fd5b50565b60008135905061418281614163565b92915050565b600080600080600080600060e0888a0312156141a7576141a6613fc7565b5b60006141b58a828b01614027565b97505060206141c68a828b01614104565b96505060406141d78a828b01614104565b95505060606141e88a828b01614104565b94505060806141f98a828b01614129565b93505060a061420a8a828b0161414e565b92505060c061421b8a828b01614173565b91505092959891949750929550565b61423381613fec565b811461423e57600080fd5b50565b6000813590506142508161422a565b92915050565b6000806040838503121561426d5761426c613fc7565b5b600061427b85828601614104565b925050602061428c85828601614241565b9150509250929050565b600080604083850312156142ad576142ac613fc7565b5b60006142bb85828601614027565b92505060206142cc85828601614104565b9150509250929050565b60006142e182614095565b9050919050565b6142f1816142d6565b82525050565b600060208201905061430c60008301846142e8565b92915050565b6000806000806080858703121561432c5761432b613fc7565b5b600061433a87828801614027565b945050602061434b87828801614104565b935050604061435c87828801614104565b925050606061436d8782880161414e565b91505092959194509250565b61438281613fec565b82525050565b600060208201905061439d6000830184614379565b92915050565b60008115159050919050565b6143b8816143a3565b81146143c357600080fd5b50565b6000813590506143d5816143af565b92915050565b600080600080600080600060e0888a0312156143fa576143f9613fc7565b5b60006144088a828b01614027565b97505060206144198a828b01614104565b965050604061442a8a828b01614104565b955050606061443b8a828b01614104565b945050608061444c8a828b01614129565b93505060a061445d8a828b0161414e565b92505060c061446e8a828b016143c6565b91505092959891949750929550565b614486816140e3565b82525050565b60006080820190506144a1600083018761447d565b6144ae602083018661447d565b6144bb604083018561447d565b6144c8606083018461447d565b95945050505050565b6000602082840312156144e7576144e6613fc7565b5b60006144f584828501614241565b91505092915050565b600061450982614095565b9050919050565b614519816144fe565b82525050565b60006020820190506145346000830184614510565b92915050565b600061454582613fec565b9050919050565b6145558161453a565b811461456057600080fd5b50565b6000815190506145728161454c565b92915050565b60006020828403121561458e5761458d613fc7565b5b600061459c84828501614563565b91505092915050565b60006145b082613fec565b9050919050565b6145c0816145a5565b81146145cb57600080fd5b50565b6000815190506145dd816145b7565b92915050565b6000602082840312156145f9576145f8613fc7565b5b6000614607848285016145ce565b91505092915050565b7f4e487b7100000000000000000000000000000000000000000000000000000000600052602160045260246000fd5b600281106146505761464f614610565b5b50565b60008190506146618261463f565b919050565b600061467182614653565b9050919050565b61468181614666565b82525050565b6002811061469857614697614610565b5b50565b60008190506146a982614687565b919050565b60006146b98261469b565b9050919050565b6146c9816146ae565b82525050565b600481106146e0576146df614610565b5b50565b60008190506146f1826146cf565b919050565b6000614701826146e3565b9050919050565b614711816146f6565b82525050565b61472081613fec565b82525050565b61472f816140e3565b82525050565b6102208201600082015161474c6000850182614678565b50602082015161475f60208501826146c0565b5060408201516147726040850182614708565b5060608201516147856060850182614717565b5060808201516147986080850182614726565b5060a08201516147ab60a0850182614726565b5060c08201516147be60c0850182614726565b5060e08201516147d160e0850182614726565b506101008201516147e6610100850182614726565b506101208201516147fb610120850182614726565b50610140820151614810610140850182614726565b50610160820151614825610160850182614726565b5061018082015161483a610180850182614726565b506101a082015161484f6101a0850182614726565b506101c08201516148646101c0850182614726565b506101e08201516148796101e0850182614726565b5061020082015161488e610200850182614717565b50505050565b61489d816143a3565b82525050565b6000610240820190506148b96000830185614735565b6148c7610220830184614894565b9392505050565b6000815190506148dd816140ed565b92915050565b600080600080608085870312156148fd576148fc613fc7565b5b600061490b878288016148ce565b945050602061491c878288016148ce565b935050604061492d878288016148ce565b925050606061493e878288016148ce565b91505092959194509250565b600082825260208201905092915050565b7f77726f6e67207072656d69756d00000000000000000000000000000000000000600082015250565b6000614991600d8361494a565b915061499c8261495b565b602082019050919050565b600060208201905081810360008301526149c081614984565b9050919050565b60006102a0820190506149dd6000830188614735565b6149eb61022083018761447d565b6149f961024083018661447d565b614a0761026083018561447d565b614a1561028083018461447d565b9695505050505050565b600060208284031215614a3557614a34613fc7565b5b6000614a43848285016148ce565b91505092915050565b6000604082019050614a61600083018561447d565b614a6e6020830184614379565b9392505050565b600081519050614a848161422a565b92915050565b600060208284031215614aa057614a9f613fc7565b5b6000614aae84828501614a75565b91505092915050565b6000602082019050614acc600083018461447d565b92915050565b60048110614adf57600080fd5b50565b600081519050614af181614ad2565b92915050565b600081519050614b068161413e565b92915050565b600081519050614b1b81614010565b92915050565b60008060008060808587031215614b3b57614b3a613fc7565b5b6000614b4987828801614ae2565b9450506020614b5a87828801614af7565b9350506040614b6b87828801614a75565b9250506060614b7c87828801614b0c565b91505092959194509250565b600080600060608486031215614ba157614ba0613fc7565b5b6000614baf868287016148ce565b9350506020614bc0868287016148ce565b9250506040614bd1868287016148ce565b9150509250925092565b6000614be682613fec565b9050919050565b614bf681614bdb565b8114614c0157600080fd5b50565b600081519050614c1381614bed565b92915050565b600060208284031215614c2f57614c2e613fc7565b5b6000614c3d84828501614c04565b91505092915050565b600060ff82169050919050565b614c5c81614c46565b8114614c6757600080fd5b50565b600081519050614c7981614c53565b92915050565b600060208284031215614c9557614c94613fc7565b5b6000614ca384828501614c6a565b91505092915050565b6000614cb782613fec565b9050919050565b614cc781614cac565b8114614cd257600080fd5b50565b600081519050614ce481614cbe565b92915050565b600060208284031215614d0057614cff613fc7565b5b6000614d0e84828501614cd5565b91505092915050565b614d20816140e3565b82525050565b6000604082019050614d3b6000830185614d17565b614d486020830184614d17565b9392505050565b7f4e487b7100000000000000000000000000000000000000000000000000000000600052601160045260246000fd5b6000614d89826140e3565b9150614d94836140e3565b9250827fffffffffffffffffffffffffffffffffffffffffffffffffffffffffffffffff03821115614dc957614dc8614d4f565b5b828201905092915050565b6000614ddf826140e3565b9150614dea836140e3565b925082821015614dfd57614dfc614d4f565b5b828203905092915050565b6000604082019050614e1d6000830185614379565b614e2a602083018461447d565b9392505050565b6000606082019050614e466000830186614379565b614e53602083018561447d565b614e60604083018461447d565b949350505050565b6000614e7382613fec565b9050919050565b614e8381614e68565b8114614e8e57600080fd5b50565b600081519050614ea081614e7a565b92915050565b600060208284031215614ebc57614ebb613fc7565b5b6000614eca84828501614e91565b91505092915050565b7f4f776e61626c653a2063616c6c6572206973206e6f7420746865206f776e6572600082015250565b6000614f0960208361494a565b9150614f1482614ed3565b602082019050919050565b60006020820190508181036000830152614f3881614efc565b9050919050565b600081519050614f4e816143af565b92915050565b600060208284031215614f6a57614f69613fc7565b5b6000614f7884828501614f3f565b91505092915050565b7f2d56500000000000000000000000000000000000000000000000000000000000600082015250565b6000614fb760038361494a565b9150614fc282614f81565b602082019050919050565b60006020820190508181036000830152614fe681614faa565b9050919050565b60006060820190506150026000830186614379565b61500f6020830185614379565b61501c604083018461447d565b949350505050565b7f2d56420000000000000000000000000000000000000000000000000000000000600082015250565b600061505a60038361494a565b915061506582615024565b602082019050919050565b600060208201905081810360008301526150898161504d565b9050919050565b60006040820190506150a5600083018561447d565b6150b2602083018461447d565b9392505050565b600080604083850312156150d0576150cf613fc7565b5b60006150de858286016148ce565b92505060206150ef858286016148ce565b9150509250929050565b600060608201905061510e600083018661447d565b61511b602083018561447d565b6151286040830184614894565b949350505050565b600061513b82614095565b9050919050565b61514b81615130565b82525050565b60006060820190506151666000830186615142565b6151736020830185614894565b6151806040830184614894565b949350505050565b60006151a361519e61519984614c46565b614069565b6140e3565b9050919050565b6151b381615188565b82525050565b60006040820190506151ce6000830185614d17565b6151db60208301846151aa565b9392505050565b7f4f776e61626c653a206e6577206f776e657220697320746865207a65726f206160008201527f6464726573730000000000000000000000000000000000000000000000000000602082015250565b600061523e60268361494a565b9150615249826151e2565b604082019050919050565b6000602082019050818103600083015261526d81615231565b9050919050565b7f2d504d0000000000000000000000000000000000000000000000000000000000600082015250565b60006152aa60038361494a565b91506152b582615274565b602082019050919050565b600060208201905081810360008301526152d98161529d565b9050919050565b7f6d56500000000000000000000000000000000000000000000000000000000000600082015250565b600061531660038361494a565b9150615321826152e0565b602082019050919050565b6000602082019050818103600083015261534581615309565b9050919050565b7f2d434d0000000000000000000000000000000000000000000000000000000000600082015250565b600061538260038361494a565b915061538d8261534c565b602082019050919050565b600060208201905081810360008301526153b181615375565b905091905056fea26469706673582212201ba60e01664e01220ab40ff6623de57e1d5360b5a0467c74d2a3603de860d09a64736f6c634300080f0033",
  "immutableReferences": {
    "8304": [
      {
        "length": 32,
        "start": 1036
      },
      {
        "length": 32,
        "start": 1389
      },
      {
        "length": 32,
        "start": 1555
      },
      {
        "length": 32,
        "start": 2038
      },
      {
        "length": 32,
        "start": 2244
      },
      {
        "length": 32,
        "start": 2386
      },
      {
        "length": 32,
        "start": 6745
      },
      {
        "length": 32,
        "start": 8180
      },
      {
        "length": 32,
        "start": 9485
      },
      {
        "length": 32,
        "start": 9666
      },
      {
        "length": 32,
        "start": 11024
      }
    ]
  },
  "source": "// SPDX-License-Identifier: MIT\npragma solidity ^0.8.4;\n\nimport \"@openzeppelin/contracts/token/ERC20/ERC20.sol\";\nimport \"@openzeppelin/contracts/access/Ownable.sol\";\nimport \"@openzeppelin/contracts/utils/math/SafeMath.sol\";\nimport \"./interfaces/EOption.sol\";\nimport \"./libraries/MathLib.sol\";\nimport \"./libraries/MarketLib.sol\";\nimport \"./libraries/OptionLib.sol\";\nimport \"./governance/Moret.sol\";\nimport \"./pools/Pool.sol\";\nimport \"./pools/MarketMaker.sol\";\nimport \"./OptionVault.sol\";\nimport \"./VolatilityToken.sol\";\n\ncontract Exchange is Ownable, EOption{\n  using MarketLib for uint256;\n  using MathLib for uint256;\n  using SafeMath for uint256;\n\n  event NewOption(address indexed _purchaser, address indexed _underlying, uint256 _optionId);\n\n  // immutable addresses\n  OptionVault public immutable vault;\n\n  // contructor. Arguments: pool tokens, volatility oracle, option vault and bot address\n  constructor(OptionVault _optionVault){\n    vault = _optionVault;}\n  \n  function queryOption(Pool _pool, uint256 _tenor, uint256 _strike, uint256 _amount, OptionLib.PayoffType _poType, OptionLib.OptionSide _side, bool _forceATM) external view returns(uint256 _premium, uint256 _collateral, uint256 _price, uint256 _volatility){\n    OptionLib.Option memory _option = OptionLib.Option(_poType, _side, OptionLib.OptionStatus.Draft, msg.sender, 0, block.timestamp,  0, _tenor, 0,  0, _amount, 0, _strike, 0, 0, 0, address(_pool));\n    return vault.calcOptionCost(_option, _forceATM);}\n\n  // functions to transact for option contracts\n  // arguments: pool token address, tenor in seconds, strike in 18 decimals, amount in 18 decimals, payoff type (call 0 or put 1), option side (buy 0 or sell 1)\n  function tradeOption(Pool _pool, uint256 _tenor, uint256 _strike, uint256 _amount, OptionLib.PayoffType _poType, OptionLib.OptionSide _side, OptionLib.PaymentMethod _payment) external {\n    OptionLib.Option memory _option = OptionLib.Option(_poType, _side, OptionLib.OptionStatus.Draft, msg.sender, 0, block.timestamp,  0, _tenor, 0,  0, _amount, 0, _strike, 0, 0, 0, address(_pool));\n    (uint256 _premium, uint256 _collateral, uint256 _price, uint256 _vol) = vault.calcOptionCost(_option, false);\n\n    require(_collateral > _premium,\"wrong premium\");\n\n    // transfer premiums\n    if(_side == OptionLib.OptionSide.Buy){\n      buyOption(_pool, msg.sender, _tenor, _premium, _price, _vol, _payment);\n    }\n    if(_side == OptionLib.OptionSide.Sell){\n      sellOption(_pool, msg.sender, _tenor, _premium, _collateral, _price, _vol, _payment);\n    }\n\n    uint256 _id = vault.addOption(_option, _premium, _collateral, _price, _vol);\n    vault.stampActiveOption(_id, msg.sender);\n\n    emit NewOption(msg.sender, _pool.marketMaker().underlying(), _id);}\n\n  function buyOption(Pool _pool, address _buyer, uint256 _tenor, uint256 _premium, uint256 _price, uint256 _vol, OptionLib.PaymentMethod _payment) internal {\n    MarketMaker _marketMaker = _pool.marketMaker();\n    ERC20 _funding = _marketMaker.funding();\n    uint256 _fundingDecimals = _funding.decimals();\n    address _underlyingAddress = _marketMaker.underlying();\n    if(_payment == OptionLib.PaymentMethod.USDC){\n        require(_funding.transferFrom(_buyer, address(_marketMaker), _premium.toDecimals(_fundingDecimals)), '-PM');}\n      else if (_payment == OptionLib.PaymentMethod.Token){\n        ERC20 _underlying = ERC20(_underlyingAddress);\n        uint256 _decimals = _underlying.decimals();\n        require(_underlying.transferFrom(_buyer, address(_marketMaker), _premium.ethdiv(_price).toDecimals(_decimals)), '-PM');}\n      else if (_payment == OptionLib.PaymentMethod.Vol){\n        VolatilityToken _vToken = _marketMaker.govToken().getVolatilityToken(_underlyingAddress, _tenor);\n        (uint256 _volAmount, uint256 _volPrice) = _vToken.getBurnAmount(_premium, _vol);\n        require(_volPrice > _pool.minVolPrice(), 'mVP');\n        _vToken.burn(msg.sender, _volAmount);\n        _vToken.pay(address(_marketMaker), _premium.toDecimals(_fundingDecimals));}}\n\n  function sellOption(Pool _pool, address _buyer, uint256 _tenor, uint256 _premium, uint256 _collateral, uint256 _price, uint256 _vol, OptionLib.PaymentMethod _payment) internal {\n    MarketMaker _marketMaker = _pool.marketMaker();\n    ERC20 _funding = _marketMaker.funding();\n    uint256 _fundingDecimals = _funding.decimals();\n    \n    if(_payment == OptionLib.PaymentMethod.USDC){\n      require(_funding.transferFrom(_buyer, address(_marketMaker), (_collateral - _premium).toDecimals(_fundingDecimals)), '-PM');}\n    else if (_payment == OptionLib.PaymentMethod.Token){\n      ERC20 _underlying = ERC20(_marketMaker.underlying());\n      uint256 _decimals = _underlying.decimals();\n      require(_underlying.transferFrom(_buyer, address(_marketMaker), (_collateral - _premium).ethdiv(_price).toDecimals(_decimals)), '-PM');}\n    else if (_payment == OptionLib.PaymentMethod.Vol){\n      if(_collateral > 0){\n        require(_funding.transferFrom(msg.sender, address(_marketMaker), _collateral.toDecimals(_fundingDecimals)), '-CM'); }\n      VolatilityToken _vToken = _marketMaker.govToken().getVolatilityToken(_marketMaker.underlying(), _tenor);\n      (uint256 _volAmount, ) = _vToken.getMintAmount(_premium, _vol);\n      _marketMaker.settlePayment(address(_vToken), _premium.toDecimals(_fundingDecimals)); \n      _vToken.mint(msg.sender, _volAmount);}}\n\n  // functions to transact volatility tokens (buy or sell)\n  // arguments: pool token address, tenor in seconds, strike in 18 decimals, amount in 18 decimals, payoff type (call 0 or put 1), option side (buy 0 or sell 1)\n  function tradeVolToken(Pool _pool, uint256 _tenor, uint256 _amount, OptionLib.OptionSide _side) external {\n    MarketMaker _marketMaker = _pool.marketMaker();\n    require(_marketMaker.govToken().existVolTradingPool(address(_pool)), '-VP'); // only certified pools can trade vol\n    VolatilityToken _vToken = _marketMaker.govToken().getVolatilityToken(_marketMaker.underlying(), _tenor);\n    OptionLib.Option memory _option = OptionLib.Option(OptionLib.PayoffType.Put, _side, OptionLib.OptionStatus.Draft, msg.sender, 0, block.timestamp,  0, _tenor, 0,  0, _amount, 0, 0, 0, 0, 0, address(_pool));\n\n    ERC20 _funding = _marketMaker.funding();\n    uint256 _fundingDecimals = _funding.decimals();\n    (uint256 _premium, , , uint256 _vol) = vault.calcOptionCost(_option, true); \n    \n    uint256 _volAmount;\n    if (_side == OptionLib.OptionSide.Buy){\n      require(_funding.transferFrom(msg.sender, address(_vToken), _premium.toDecimals(_fundingDecimals)), \"-VB\");\n      (_volAmount, ) = _vToken.getMintAmount(_premium, _vol);\n      _vToken.mint(msg.sender, _volAmount);}\n    else{\n      (_volAmount, ) = _vToken.getBurnAmount(_premium, _vol);\n      _vToken.burn(msg.sender, _volAmount);\n      _vToken.pay(msg.sender, _premium.toDecimals(_fundingDecimals));}\n    \n    emit TradeVolatility(msg.sender, address(_pool), _amount, _volAmount, _side == OptionLib.OptionSide.Buy);}\n\n  // get volatility token\n  function getVolatilityToken(Pool _pool, uint256 _tenor) external view returns(VolatilityToken){\n    MarketMaker _marketMaker = _pool.marketMaker();\n    return _marketMaker.govToken().getVolatilityToken(_marketMaker.underlying(), _tenor);\n  }\n\n  // get volatility chain\n  function getVolatilityChain(Pool _pool) external view returns(VolatilityChain){\n    MarketMaker _marketMaker = _pool.marketMaker();\n    return _marketMaker.getVolatilityChain();\n  }\n\n  // expire option contracts (one at a time), with exercise fees paid to the exercising bots.\n  function expireOption(uint256 _expiringId, address _exerciseFeeRecipient) external {\n    (OptionLib.OptionStatus _optionStatus, OptionLib.OptionSide _optionSide, address _optionHolder, Pool _pool) = vault.getOptionInfo(_expiringId);\n\n    if(_optionStatus == OptionLib.OptionStatus.Active){\n      vault.stampExpiredOption(_expiringId);\n      (uint256 _payoff, uint256 _payback,) = vault.getContractPayoff(_expiringId);\n      \n      uint256 _fundingDecimals = _pool.marketMaker().funding().decimals();\n      uint256 _protocolAmount = _payoff.ethmul(_pool.marketMaker().govToken().protocolFee()).toDecimals(_fundingDecimals);\n      uint256 _exerciseAmount = _payoff.ethmul(_pool.exerciseFee()).toDecimals(_fundingDecimals);\n      _payback = _payback.toDecimals(_fundingDecimals);\n\n      if(_optionSide == OptionLib.OptionSide.Buy){\n        _payback = _payback - Math.min(_payback, _protocolAmount + _exerciseAmount);\n\n      MarketMaker _marketMaker = MarketMaker(_pool.marketMaker());\n      _marketMaker.settlePayment(_optionHolder, _payback);\n      _marketMaker.settlePayment(_pool.marketMaker().govToken().protocolFeeRecipient(), _protocolAmount);\n      _marketMaker.settlePayment(_exerciseFeeRecipient, _exerciseAmount);      \n      emit Expire(msg.sender, address(this), _optionHolder, _expiringId, _payback);}}}\n  \n  // add capital by depositing amount in funding tokens\n  function addCapital(Pool _pool, uint256 _depositAmount) external {\n    uint256 _averageGrossCapital = vault.calcCapital(_pool, false, true);\n    ERC20 _funding = _pool.marketMaker().funding();\n    uint256 _mintPoolAmount = _depositAmount.toWei(_funding.decimals()).ethdiv(_averageGrossCapital);\n    require(_funding.transferFrom(msg.sender, address(_pool.marketMaker()), _depositAmount));\n    _pool.mint(msg.sender, _mintPoolAmount);}\n\n  // remove capital by withdrawing amount in funding tokens\n  function withdrawCapital(Pool _pool, uint256 _burnPoolAmount) external {\n    uint256 _averageNetCapital = vault.calcCapital(_pool, true, true);\n    uint256 _withdrawValue = _averageNetCapital.ethmul(_burnPoolAmount).toDecimals(_pool.marketMaker().funding().decimals()); \n    _pool.burn(msg.sender, _burnPoolAmount);\n    _pool.marketMaker().settlePayment(msg.sender, _withdrawValue);}\n\n}\n",
  "sourcePath": "/Users/mac/Documents/GitHub/moret/contracts/Exchange.sol",
  "compiler": {
    "name": "solc",
    "version": "0.8.15+commit.e14f2714.Emscripten.clang"
  },
  "schemaVersion": "3.4.3",
  "updatedAt": "2022-06-28T19:45:37.486Z",
  "networkType": "ethereum",
  "devdoc": {
    "kind": "dev",
    "methods": {
      "owner()": {
        "details": "Returns the address of the current owner."
      },
      "renounceOwnership()": {
        "details": "Leaves the contract without owner. It will not be possible to call `onlyOwner` functions anymore. Can only be called by the current owner. NOTE: Renouncing ownership will leave the contract without an owner, thereby removing any functionality that is only available to the owner."
      },
      "transferOwnership(address)": {
        "details": "Transfers ownership of the contract to a new account (`newOwner`). Can only be called by the current owner."
      }
    },
    "version": 1
  },
  "userdoc": {
    "kind": "user",
    "methods": {},
    "version": 1
  }
}