{
  "contractName": "FixedIndex",
  "abi": [
    {
      "inputs": [
        {
          "internalType": "address",
          "name": "_pool",
          "type": "address"
        },
        {
          "internalType": "string",
          "name": "_name",
          "type": "string"
        },
        {
          "internalType": "string",
          "name": "_symbol",
          "type": "string"
        },
        {
          "components": [
            {
              "internalType": "uint256",
              "name": "callMoney",
              "type": "uint256"
            },
            {
              "internalType": "uint256",
              "name": "callTenor",
              "type": "uint256"
            },
            {
              "internalType": "uint256",
              "name": "putMoney",
              "type": "uint256"
            },
            {
              "internalType": "uint256",
              "name": "putTenor",
              "type": "uint256"
            },
            {
              "internalType": "uint256",
              "name": "putSpread",
              "type": "uint256"
            },
            {
              "internalType": "uint256",
              "name": "tradeWindow",
              "type": "uint256"
            },
            {
              "internalType": "uint256",
              "name": "leverage",
              "type": "uint256"
            },
            {
              "internalType": "uint256",
              "name": "multiplier",
              "type": "uint256"
            }
          ],
          "internalType": "struct FixedIndex.FIAParam",
          "name": "_params",
          "type": "tuple"
        }
      ],
      "stateMutability": "nonpayable",
      "type": "constructor"
    },
    {
      "anonymous": false,
      "inputs": [
        {
          "indexed": true,
          "internalType": "address",
          "name": "owner",
          "type": "address"
        },
        {
          "indexed": true,
          "internalType": "address",
          "name": "spender",
          "type": "address"
        },
        {
          "indexed": false,
          "internalType": "uint256",
          "name": "value",
          "type": "uint256"
        }
      ],
      "name": "Approval",
      "type": "event"
    },
    {
      "anonymous": false,
      "inputs": [
        {
          "indexed": false,
          "internalType": "address",
          "name": "investor",
          "type": "address"
        },
        {
          "indexed": false,
          "internalType": "uint256",
          "name": "tokenUnit",
          "type": "uint256"
        },
        {
          "indexed": false,
          "internalType": "uint256",
          "name": "divestAmount",
          "type": "uint256"
        }
      ],
      "name": "FIPDivest",
      "type": "event"
    },
    {
      "anonymous": false,
      "inputs": [
        {
          "indexed": false,
          "internalType": "address",
          "name": "investor",
          "type": "address"
        },
        {
          "indexed": false,
          "internalType": "uint256",
          "name": "tokenUnit",
          "type": "uint256"
        },
        {
          "indexed": false,
          "internalType": "uint256",
          "name": "investAmount",
          "type": "uint256"
        }
      ],
      "name": "FIPInvest",
      "type": "event"
    },
    {
      "anonymous": false,
      "inputs": [
        {
          "indexed": false,
          "internalType": "uint256",
          "name": "time",
          "type": "uint256"
        },
        {
          "indexed": false,
          "internalType": "uint256",
          "name": "rebTime",
          "type": "uint256"
        },
        {
          "indexed": false,
          "internalType": "bool",
          "name": "isRoll",
          "type": "bool"
        }
      ],
      "name": "FIPRoll",
      "type": "event"
    },
    {
      "anonymous": false,
      "inputs": [
        {
          "indexed": true,
          "internalType": "address",
          "name": "previousOwner",
          "type": "address"
        },
        {
          "indexed": true,
          "internalType": "address",
          "name": "newOwner",
          "type": "address"
        }
      ],
      "name": "OwnershipTransferred",
      "type": "event"
    },
    {
      "anonymous": false,
      "inputs": [
        {
          "indexed": true,
          "internalType": "address",
          "name": "from",
          "type": "address"
        },
        {
          "indexed": true,
          "internalType": "address",
          "name": "to",
          "type": "address"
        },
        {
          "indexed": false,
          "internalType": "uint256",
          "name": "value",
          "type": "uint256"
        }
      ],
      "name": "Transfer",
      "type": "event"
    },
    {
      "inputs": [
        {
          "internalType": "address",
          "name": "owner",
          "type": "address"
        },
        {
          "internalType": "address",
          "name": "spender",
          "type": "address"
        }
      ],
      "name": "allowance",
      "outputs": [
        {
          "internalType": "uint256",
          "name": "",
          "type": "uint256"
        }
      ],
      "stateMutability": "view",
      "type": "function"
    },
    {
      "inputs": [
        {
          "internalType": "address",
          "name": "spender",
          "type": "address"
        },
        {
          "internalType": "uint256",
          "name": "amount",
          "type": "uint256"
        }
      ],
      "name": "approve",
      "outputs": [
        {
          "internalType": "bool",
          "name": "",
          "type": "bool"
        }
      ],
      "stateMutability": "nonpayable",
      "type": "function"
    },
    {
      "inputs": [
        {
          "internalType": "address",
          "name": "account",
          "type": "address"
        }
      ],
      "name": "balanceOf",
      "outputs": [
        {
          "internalType": "uint256",
          "name": "",
          "type": "uint256"
        }
      ],
      "stateMutability": "view",
      "type": "function"
    },
    {
      "inputs": [],
      "name": "decimals",
      "outputs": [
        {
          "internalType": "uint8",
          "name": "",
          "type": "uint8"
        }
      ],
      "stateMutability": "view",
      "type": "function"
    },
    {
      "inputs": [
        {
          "internalType": "address",
          "name": "spender",
          "type": "address"
        },
        {
          "internalType": "uint256",
          "name": "subtractedValue",
          "type": "uint256"
        }
      ],
      "name": "decreaseAllowance",
      "outputs": [
        {
          "internalType": "bool",
          "name": "",
          "type": "bool"
        }
      ],
      "stateMutability": "nonpayable",
      "type": "function"
    },
    {
      "inputs": [],
      "name": "exchange",
      "outputs": [
        {
          "internalType": "contract Exchange",
          "name": "",
          "type": "address"
        }
      ],
      "stateMutability": "view",
      "type": "function"
    },
    {
      "inputs": [],
      "name": "fiaParams",
      "outputs": [
        {
          "internalType": "uint256",
          "name": "callMoney",
          "type": "uint256"
        },
        {
          "internalType": "uint256",
          "name": "callTenor",
          "type": "uint256"
        },
        {
          "internalType": "uint256",
          "name": "putMoney",
          "type": "uint256"
        },
        {
          "internalType": "uint256",
          "name": "putTenor",
          "type": "uint256"
        },
        {
          "internalType": "uint256",
          "name": "putSpread",
          "type": "uint256"
        },
        {
          "internalType": "uint256",
          "name": "tradeWindow",
          "type": "uint256"
        },
        {
          "internalType": "uint256",
          "name": "leverage",
          "type": "uint256"
        },
        {
          "internalType": "uint256",
          "name": "multiplier",
          "type": "uint256"
        }
      ],
      "stateMutability": "view",
      "type": "function"
    },
    {
      "inputs": [],
      "name": "funding",
      "outputs": [
        {
          "internalType": "contract ERC20",
          "name": "",
          "type": "address"
        }
      ],
      "stateMutability": "view",
      "type": "function"
    },
    {
      "inputs": [],
      "name": "fundingMultiplier",
      "outputs": [
        {
          "internalType": "uint256",
          "name": "",
          "type": "uint256"
        }
      ],
      "stateMutability": "view",
      "type": "function"
    },
    {
      "inputs": [
        {
          "internalType": "address",
          "name": "spender",
          "type": "address"
        },
        {
          "internalType": "uint256",
          "name": "addedValue",
          "type": "uint256"
        }
      ],
      "name": "increaseAllowance",
      "outputs": [
        {
          "internalType": "bool",
          "name": "",
          "type": "bool"
        }
      ],
      "stateMutability": "nonpayable",
      "type": "function"
    },
    {
      "inputs": [],
      "name": "name",
      "outputs": [
        {
          "internalType": "string",
          "name": "",
          "type": "string"
        }
      ],
      "stateMutability": "view",
      "type": "function"
    },
    {
      "inputs": [],
      "name": "nextRebTime",
      "outputs": [
        {
          "internalType": "uint256",
          "name": "",
          "type": "uint256"
        }
      ],
      "stateMutability": "view",
      "type": "function"
    },
    {
      "inputs": [],
      "name": "nextVintageTime",
      "outputs": [
        {
          "internalType": "uint256",
          "name": "",
          "type": "uint256"
        }
      ],
      "stateMutability": "view",
      "type": "function"
    },
    {
      "inputs": [],
      "name": "oracle",
      "outputs": [
        {
          "internalType": "contract VolatilityChain",
          "name": "",
          "type": "address"
        }
      ],
      "stateMutability": "view",
      "type": "function"
    },
    {
      "inputs": [],
      "name": "owner",
      "outputs": [
        {
          "internalType": "address",
          "name": "",
          "type": "address"
        }
      ],
      "stateMutability": "view",
      "type": "function"
    },
    {
      "inputs": [],
      "name": "pool",
      "outputs": [
        {
          "internalType": "contract Pool",
          "name": "",
          "type": "address"
        }
      ],
      "stateMutability": "view",
      "type": "function"
    },
    {
      "inputs": [],
      "name": "renounceOwnership",
      "outputs": [],
      "stateMutability": "nonpayable",
      "type": "function"
    },
    {
      "inputs": [],
      "name": "symbol",
      "outputs": [
        {
          "internalType": "string",
          "name": "",
          "type": "string"
        }
      ],
      "stateMutability": "view",
      "type": "function"
    },
    {
      "inputs": [],
      "name": "totalSupply",
      "outputs": [
        {
          "internalType": "uint256",
          "name": "",
          "type": "uint256"
        }
      ],
      "stateMutability": "view",
      "type": "function"
    },
    {
      "inputs": [
        {
          "internalType": "address",
          "name": "to",
          "type": "address"
        },
        {
          "internalType": "uint256",
          "name": "amount",
          "type": "uint256"
        }
      ],
      "name": "transfer",
      "outputs": [
        {
          "internalType": "bool",
          "name": "",
          "type": "bool"
        }
      ],
      "stateMutability": "nonpayable",
      "type": "function"
    },
    {
      "inputs": [
        {
          "internalType": "address",
          "name": "from",
          "type": "address"
        },
        {
          "internalType": "address",
          "name": "to",
          "type": "address"
        },
        {
          "internalType": "uint256",
          "name": "amount",
          "type": "uint256"
        }
      ],
      "name": "transferFrom",
      "outputs": [
        {
          "internalType": "bool",
          "name": "",
          "type": "bool"
        }
      ],
      "stateMutability": "nonpayable",
      "type": "function"
    },
    {
      "inputs": [
        {
          "internalType": "address",
          "name": "newOwner",
          "type": "address"
        }
      ],
      "name": "transferOwnership",
      "outputs": [],
      "stateMutability": "nonpayable",
      "type": "function"
    },
    {
      "inputs": [],
      "name": "vintage",
      "outputs": [
        {
          "internalType": "uint256",
          "name": "optionAmount",
          "type": "uint256"
        },
        {
          "internalType": "uint256",
          "name": "callStrike",
          "type": "uint256"
        },
        {
          "internalType": "uint256",
          "name": "putStrike",
          "type": "uint256"
        },
        {
          "internalType": "uint256",
          "name": "putSpread",
          "type": "uint256"
        },
        {
          "internalType": "uint256",
          "name": "startLevel",
          "type": "uint256"
        },
        {
          "internalType": "uint256",
          "name": "startNAV",
          "type": "uint256"
        }
      ],
      "stateMutability": "view",
      "type": "function"
    },
    {
      "inputs": [
        {
          "components": [
            {
              "internalType": "uint256",
              "name": "callMoney",
              "type": "uint256"
            },
            {
              "internalType": "uint256",
              "name": "callTenor",
              "type": "uint256"
            },
            {
              "internalType": "uint256",
              "name": "putMoney",
              "type": "uint256"
            },
            {
              "internalType": "uint256",
              "name": "putTenor",
              "type": "uint256"
            },
            {
              "internalType": "uint256",
              "name": "putSpread",
              "type": "uint256"
            },
            {
              "internalType": "uint256",
              "name": "tradeWindow",
              "type": "uint256"
            },
            {
              "internalType": "uint256",
              "name": "leverage",
              "type": "uint256"
            },
            {
              "internalType": "uint256",
              "name": "multiplier",
              "type": "uint256"
            }
          ],
          "internalType": "struct FixedIndex.FIAParam",
          "name": "_params",
          "type": "tuple"
        }
      ],
      "name": "setParameters",
      "outputs": [],
      "stateMutability": "nonpayable",
      "type": "function"
    },
    {
      "inputs": [
        {
          "internalType": "uint256",
          "name": "_toInvest",
          "type": "uint256"
        }
      ],
      "name": "invest",
      "outputs": [],
      "stateMutability": "nonpayable",
      "type": "function"
    },
    {
      "inputs": [
        {
          "internalType": "uint256",
          "name": "_toDivest",
          "type": "uint256"
        }
      ],
      "name": "divest",
      "outputs": [],
      "stateMutability": "nonpayable",
      "type": "function"
    },
    {
      "inputs": [],
      "name": "getRollsUnitAsset",
      "outputs": [
        {
          "internalType": "uint256",
          "name": "unitAsset",
          "type": "uint256"
        }
      ],
      "stateMutability": "view",
      "type": "function"
    },
    {
      "inputs": [],
      "name": "rollover",
      "outputs": [],
      "stateMutability": "nonpayable",
      "type": "function"
    },
    {
      "inputs": [],
      "name": "rebalance",
      "outputs": [],
      "stateMutability": "nonpayable",
      "type": "function"
    },
    {
      "inputs": [],
      "name": "getPV",
      "outputs": [
        {
          "internalType": "uint256",
          "name": "",
          "type": "uint256"
        }
      ],
      "stateMutability": "view",
      "type": "function"
    }
  ],
  "bytecode": "0x6101006040523480156200001257600080fd5b50604051620068f0380380620068f0833981810160405281019062000038919062000a63565b82826200005a6200004e6200068060201b60201c565b6200068860201b60201c565b81600490816200006b919062000d55565b5080600590816200007d919062000d55565b5050506001600681905550600073ffffffffffffffffffffffffffffffffffffffff168473ffffffffffffffffffffffffffffffffffffffff1603620000fa576040517f08c379a0000000000000000000000000000000000000000000000000000000008152600401620000f19062000e9d565b60405180910390fd5b83600760006101000a81548173ffffffffffffffffffffffffffffffffffffffff021916908373ffffffffffffffffffffffffffffffffffffffff160217905550600760009054906101000a900473ffffffffffffffffffffffffffffffffffffffff1673ffffffffffffffffffffffffffffffffffffffff1663d2f7265a6040518163ffffffff1660e01b8152600401602060405180830381865afa158015620001a9573d6000803e3d6000fd5b505050506040513d601f19601f82011682018060405250810190620001cf919062000ebf565b73ffffffffffffffffffffffffffffffffffffffff1660a08173ffffffffffffffffffffffffffffffffffffffff16815250506000600760009054906101000a900473ffffffffffffffffffffffffffffffffffffffff1673ffffffffffffffffffffffffffffffffffffffff16631f21f9af6040518163ffffffff1660e01b8152600401602060405180830381865afa15801562000272573d6000803e3d6000fd5b505050506040513d601f19601f8201168201806040525081019062000298919062000f36565b90508073ffffffffffffffffffffffffffffffffffffffff1663c0a16f6a6040518163ffffffff1660e01b8152600401602060405180830381865afa158015620002e6573d6000803e3d6000fd5b505050506040513d601f19601f820116820180604052508101906200030c919062000fad565b73ffffffffffffffffffffffffffffffffffffffff1660808173ffffffffffffffffffffffffffffffffffffffff16815250508073ffffffffffffffffffffffffffffffffffffffff1663cb4c86b76040518163ffffffff1660e01b8152600401602060405180830381865afa1580156200038b573d6000803e3d6000fd5b505050506040513d601f19601f82011682018060405250810190620003b1919062000ebf565b73ffffffffffffffffffffffffffffffffffffffff1660c08173ffffffffffffffffffffffffffffffffffffffff168152505060c05173ffffffffffffffffffffffffffffffffffffffff16633950935160a0517fffffffffffffffffffffffffffffffffffffffffffffffffffffffffffffffff6040518363ffffffff1660e01b81526004016200044592919062001033565b6020604051808303816000875af115801562000465573d6000803e3d6000fd5b505050506040513d601f19601f820116820180604052508101906200048b91906200109d565b50600060c05173ffffffffffffffffffffffffffffffffffffffff1663313ce5676040518163ffffffff1660e01b8152600401602060405180830381865afa158015620004dc573d6000803e3d6000fd5b505050506040513d601f19601f820116820180604052508101906200050291906200110d565b60ff16905080600a620005169190620012c2565b60e0818152505042601681905550426017819055508260e001518360000151101580156200054c57508260e00151836040015111155b801562000560575082604001518360800151105b620005a2576040517f08c379a0000000000000000000000000000000000000000000000000000000008152600401620005999062001363565b60405180910390fd5b600083606001518460200151620005ba9190620013b4565b1480620005dc5750600083602001518460600151620005da9190620013b4565b145b6200061e576040517f08c379a000000000000000000000000000000000000000000000000000000000815260040162000615906200143c565b60405180910390fd5b826008600082015181600001556020820151816001015560408201518160020155606082015181600301556080820151816004015560a0820151816005015560c0820151816006015560e082015181600701559050505050505050506200145e565b600033905090565b60008060009054906101000a900473ffffffffffffffffffffffffffffffffffffffff169050816000806101000a81548173ffffffffffffffffffffffffffffffffffffffff021916908373ffffffffffffffffffffffffffffffffffffffff1602179055508173ffffffffffffffffffffffffffffffffffffffff168173ffffffffffffffffffffffffffffffffffffffff167f8be0079c531659141344cd1fd0a4f28419497f9722a3daafe3b4186f6b6457e060405160405180910390a35050565b6000604051905090565b600080fd5b600080fd5b600073ffffffffffffffffffffffffffffffffffffffff82169050919050565b60006200078d8262000760565b9050919050565b6200079f8162000780565b8114620007ab57600080fd5b50565b600081519050620007bf8162000794565b92915050565b600080fd5b600080fd5b6000601f19601f8301169050919050565b7f4e487b7100000000000000000000000000000000000000000000000000000000600052604160045260246000fd5b6200081a82620007cf565b810181811067ffffffffffffffff821117156200083c576200083b620007e0565b5b80604052505050565b6000620008516200074c565b90506200085f82826200080f565b919050565b600067ffffffffffffffff821115620008825762000881620007e0565b5b6200088d82620007cf565b9050602081019050919050565b60005b83811015620008ba5780820151818401526020810190506200089d565b60008484015250505050565b6000620008dd620008d78462000864565b62000845565b905082815260208101848484011115620008fc57620008fb620007ca565b5b620009098482856200089a565b509392505050565b600082601f830112620009295762000928620007c5565b5b81516200093b848260208601620008c6565b91505092915050565b600080fd5b6000819050919050565b6200095e8162000949565b81146200096a57600080fd5b50565b6000815190506200097e8162000953565b92915050565b600061010082840312156200099e576200099d62000944565b5b620009ab61010062000845565b90506000620009bd848285016200096d565b6000830152506020620009d3848285016200096d565b6020830152506040620009e9848285016200096d565b6040830152506060620009ff848285016200096d565b606083015250608062000a15848285016200096d565b60808301525060a062000a2b848285016200096d565b60a08301525060c062000a41848285016200096d565b60c08301525060e062000a57848285016200096d565b60e08301525092915050565b600080600080610160858703121562000a815762000a8062000756565b5b600062000a9187828801620007ae565b945050602085015167ffffffffffffffff81111562000ab55762000ab46200075b565b5b62000ac38782880162000911565b935050604085015167ffffffffffffffff81111562000ae75762000ae66200075b565b5b62000af58782880162000911565b925050606062000b088782880162000984565b91505092959194509250565b600081519050919050565b7f4e487b7100000000000000000000000000000000000000000000000000000000600052602260045260246000fd5b6000600282049050600182168062000b6757607f821691505b60208210810362000b7d5762000b7c62000b1f565b5b50919050565b60008190508160005260206000209050919050565b60006020601f8301049050919050565b600082821b905092915050565b60006008830262000be77fffffffffffffffffffffffffffffffffffffffffffffffffffffffffffffffff8262000ba8565b62000bf3868362000ba8565b95508019841693508086168417925050509392505050565b6000819050919050565b600062000c3662000c3062000c2a8462000949565b62000c0b565b62000949565b9050919050565b6000819050919050565b62000c528362000c15565b62000c6a62000c618262000c3d565b84845462000bb5565b825550505050565b600090565b62000c8162000c72565b62000c8e81848462000c47565b505050565b5b8181101562000cb65762000caa60008262000c77565b60018101905062000c94565b5050565b601f82111562000d055762000ccf8162000b83565b62000cda8462000b98565b8101602085101562000cea578190505b62000d0262000cf98562000b98565b83018262000c93565b50505b505050565b600082821c905092915050565b600062000d2a6000198460080262000d0a565b1980831691505092915050565b600062000d45838362000d17565b9150826002028217905092915050565b62000d608262000b14565b67ffffffffffffffff81111562000d7c5762000d7b620007e0565b5b62000d88825462000b4e565b62000d9582828562000cba565b600060209050601f83116001811462000dcd576000841562000db8578287015190505b62000dc4858262000d37565b86555062000e34565b601f19841662000ddd8662000b83565b60005b8281101562000e075784890151825560018201915060208501945060208101905062000de0565b8683101562000e27578489015162000e23601f89168262000d17565b8355505b6001600288020188555050505b505050505050565b600082825260208201905092915050565b7f6e756c6c20706f6f6c2061646472657373000000000000000000000000000000600082015250565b600062000e8560118362000e3c565b915062000e928262000e4d565b602082019050919050565b6000602082019050818103600083015262000eb88162000e76565b9050919050565b60006020828403121562000ed85762000ed762000756565b5b600062000ee884828501620007ae565b91505092915050565b600062000efe8262000780565b9050919050565b62000f108162000ef1565b811462000f1c57600080fd5b50565b60008151905062000f308162000f05565b92915050565b60006020828403121562000f4f5762000f4e62000756565b5b600062000f5f8482850162000f1f565b91505092915050565b600062000f758262000780565b9050919050565b62000f878162000f68565b811462000f9357600080fd5b50565b60008151905062000fa78162000f7c565b92915050565b60006020828403121562000fc65762000fc562000756565b5b600062000fd68482850162000f96565b91505092915050565b62000fea8162000780565b82525050565b6000819050919050565b60006200101b620010156200100f8462000ff0565b62000c0b565b62000949565b9050919050565b6200102d8162000ffa565b82525050565b60006040820190506200104a600083018562000fdf565b62001059602083018462001022565b9392505050565b60008115159050919050565b620010778162001060565b81146200108357600080fd5b50565b60008151905062001097816200106c565b92915050565b600060208284031215620010b657620010b562000756565b5b6000620010c68482850162001086565b91505092915050565b600060ff82169050919050565b620010e781620010cf565b8114620010f357600080fd5b50565b6000815190506200110781620010dc565b92915050565b60006020828403121562001126576200112562000756565b5b60006200113684828501620010f6565b91505092915050565b7f4e487b7100000000000000000000000000000000000000000000000000000000600052601160045260246000fd5b60008160011c9050919050565b6000808291508390505b6001851115620011cd57808604811115620011a557620011a46200113f565b5b6001851615620011b55780820291505b8081029050620011c5856200116e565b945062001185565b94509492505050565b600082620011e85760019050620012bb565b81620011f85760009050620012bb565b81600181146200121157600281146200121c5762001252565b6001915050620012bb565b60ff8411156200123157620012306200113f565b5b8360020a9150848211156200124b576200124a6200113f565b5b50620012bb565b5060208310610133831016604e8410600b84101617156200128c5782820a9050838111156200128657620012856200113f565b5b620012bb565b6200129b84848460016200117b565b92509050818404811115620012b557620012b46200113f565b5b81810290505b9392505050565b6000620012cf8262000949565b9150620012dc8362000949565b92506200130b7fffffffffffffffffffffffffffffffffffffffffffffffffffffffffffffffff8484620011d6565b905092915050565b7f57726f6e6720737472696b657300000000000000000000000000000000000000600082015250565b60006200134b600d8362000e3c565b9150620013588262001313565b602082019050919050565b600060208201905081810360008301526200137e816200133c565b9050919050565b7f4e487b7100000000000000000000000000000000000000000000000000000000600052601260045260246000fd5b6000620013c18262000949565b9150620013ce8362000949565b925082620013e157620013e062001385565b5b828206905092915050565b7f57726f6e672074656e6f72730000000000000000000000000000000000000000600082015250565b600062001424600c8362000e3c565b91506200143182620013ec565b602082019050919050565b60006020820190508181036000830152620014578162001415565b9050919050565b60805160a05160c05160e0516153cc62001524600039600081816106c601528181610de901528181611957015261211b0152600081816107f801528181610c4e015281816110fb015281816118a101528181611cbe01528181611da8015281816120650152612827015260008181610ad501528181610e160152818161158c0152818161165401528181611a6f015281816123d6015281816125e4015281816126ba015261284b0152600081816112d101528181611b75015261219e01526153cc6000f3fe608060405234801561001057600080fd5b50600436106101da5760003560e01c80637d7c2a1c11610104578063a9059cbb116100a2578063d7043caa11610071578063d7043caa14610521578063dd62ed3e1461053f578063e6dfa4b21461056f578063f2fde38b1461058d576101da565b8063a9059cbb146104ab578063b056b49a146104db578063cb4c86b7146104e5578063d2f7265a14610503576101da565b80638da5cb5b116100de5780638da5cb5b1461041c5780638da61ee01461043a57806395d89b411461045d578063a457c2d71461047b576101da565b80637d7c2a1c146103d85780637dc0d1d0146103e25780638ca1799514610400576101da565b80632afcf4801161017c578063448077811161014b5780634480778114610362578063622e8a271461038057806370a082311461039e578063715018a6146103ce576101da565b80632afcf480146102dc578063313ce567146102f857806339509351146103165780633dcc27d914610346576101da565b806316f0115b116101b857806316f0115b1461025257806318160ddd14610270578063205a785a1461028e57806323b872dd146102ac576101da565b806306fdde03146101df578063095ea7b3146101fd57806312474a681461022d575b600080fd5b6101e76105a9565b6040516101f4919061372b565b60405180910390f35b610217600480360381019061021291906137f5565b61063b565b6040516102249190613850565b60405180910390f35b61023561065e565b60405161024998979695949392919061387a565b60405180910390f35b61025a610694565b6040516102679190613957565b60405180910390f35b6102786106ba565b6040516102859190613972565b60405180910390f35b6102966106c4565b6040516102a39190613972565b60405180910390f35b6102c660048036038101906102c1919061398d565b6106e8565b6040516102d39190613850565b60405180910390f35b6102f660048036038101906102f191906139e0565b610717565b005b61030061088f565b60405161030d9190613a29565b60405180910390f35b610330600480360381019061032b91906137f5565b610898565b60405161033d9190613850565b60405180910390f35b610360600480360381019061035b9190613b8e565b6108cf565b005b61036a610a8a565b6040516103779190613972565b60405180910390f35b610388610e11565b6040516103959190613972565b60405180910390f35b6103b860048036038101906103b39190613bbc565b6111aa565b6040516103c59190613972565b60405180910390f35b6103d66111f3565b005b6103e061127b565b005b6103ea611b73565b6040516103f79190613c0a565b60405180910390f35b61041a600480360381019061041591906139e0565b611b97565b005b610424611e34565b6040516104319190613c34565b60405180910390f35b610442611e5d565b60405161045496959493929190613c4f565b60405180910390f35b610465611e87565b604051610472919061372b565b60405180910390f35b610495600480360381019061049091906137f5565b611f19565b6040516104a29190613850565b60405180910390f35b6104c560048036038101906104c091906137f5565b611f90565b6040516104d29190613850565b60405180910390f35b6104e3611fb3565b005b6104ed612825565b6040516104fa9190613cd1565b60405180910390f35b61050b612849565b6040516105189190613d0d565b60405180910390f35b61052961286d565b6040516105369190613972565b60405180910390f35b61055960048036038101906105549190613d28565b612873565b6040516105669190613972565b60405180910390f35b6105776128fa565b6040516105849190613972565b60405180910390f35b6105a760048036038101906105a29190613bbc565b612900565b005b6060600480546105b890613d97565b80601f01602080910402602001604051908101604052809291908181526020018280546105e490613d97565b80156106315780601f1061060657610100808354040283529160200191610631565b820191906000526020600020905b81548152906001019060200180831161061457829003601f168201915b5050505050905090565b6000806106466129f7565b90506106538185856129ff565b600191505092915050565b60088060000154908060010154908060020154908060030154908060040154908060050154908060060154908060070154905088565b600760009054906101000a900473ffffffffffffffffffffffffffffffffffffffff1681565b6000600354905090565b7f000000000000000000000000000000000000000000000000000000000000000081565b6000806106f36129f7565b9050610700858285612bc8565b61070b858585612c54565b60019150509392505050565b60026006540361075c576040517f08c379a000000000000000000000000000000000000000000000000000000000815260040161075390613e14565b60405180910390fd5b6002600681905550600061076e610a8a565b905060008273__MathLib_______________________________63de7f61709091846040518363ffffffff1660e01b81526004016107ad929190613e43565b602060405180830381865af41580156107ca573d6000803e3d6000fd5b505050506040513d601f19601f820116820180604052508101906107ee9190613e81565b905061083d3330857f000000000000000000000000000000000000000000000000000000000000000073ffffffffffffffffffffffffffffffffffffffff16612ed6909392919063ffffffff16565b6108473382612f5f565b7f041b4469fcc88a5fc7aa0e470832c45ceb7a1a5f7ffbf1ace0ffc1dd1b22cf7433828560405161087a93929190613eae565b60405180910390a15050600160068190555050565b60006012905090565b6000806108a36129f7565b90506108c48185856108b58589612873565b6108bf9190613f14565b6129ff565b600191505092915050565b6108d76129f7565b73ffffffffffffffffffffffffffffffffffffffff166108f5611e34565b73ffffffffffffffffffffffffffffffffffffffff161461094b576040517f08c379a000000000000000000000000000000000000000000000000000000000815260040161094290613f94565b60405180910390fd5b8060e0015181600001511015801561096b57508060e00151816040015111155b801561097e575080604001518160800151105b6109bd576040517f08c379a00000000000000000000000000000000000000000000000000000000081526004016109b490614000565b60405180910390fd5b6000816060015182602001516109d3919061404f565b14806109f257506000816020015182606001516109f0919061404f565b145b610a31576040517f08c379a0000000000000000000000000000000000000000000000000000000008152600401610a28906140cc565b60405180910390fd5b806008600082015181600001556020820151816001015560408201518160020155606082015181600301556080820151816004015560a0820151816005015560c0820151816006015560e0820151816007015590505050565b6000601754421015610ad1576040517f08c379a0000000000000000000000000000000000000000000000000000000008152600401610ac890614138565b60405180910390fd5b60007f000000000000000000000000000000000000000000000000000000000000000073ffffffffffffffffffffffffffffffffffffffff1663fbfa77cf6040518163ffffffff1660e01b8152600401602060405180830381865afa158015610b3e573d6000803e3d6000fd5b505050506040513d601f19601f82011682018060405250810190610b629190614196565b73ffffffffffffffffffffffffffffffffffffffff16637be795e0600760009054906101000a900473ffffffffffffffffffffffffffffffffffffffff16306040518363ffffffff1660e01b8152600401610bbe9291906141c3565b600060405180830381865afa158015610bdb573d6000803e3d6000fd5b505050506040513d6000823e3d601f19601f82011682018060405250810190610c0491906142b9565b90506000815114610c4a576040517f08c379a0000000000000000000000000000000000000000000000000000000008152600401610c419061434e565b60405180910390fd5b60007f000000000000000000000000000000000000000000000000000000000000000073ffffffffffffffffffffffffffffffffffffffff166370a08231306040518263ffffffff1660e01b8152600401610ca59190613c34565b602060405180830381865afa158015610cc2573d6000803e3d6000fd5b505050506040513d601f19601f82011682018060405250810190610ce69190613e81565b905060003073ffffffffffffffffffffffffffffffffffffffff166318160ddd6040518163ffffffff1660e01b8152600401602060405180830381865afa158015610d35573d6000803e3d6000fd5b505050506040513d601f19601f82011682018060405250810190610d599190613e81565b90506000811115610de7578173__MathLib_______________________________63de7f61709091836040518363ffffffff1660e01b8152600401610d9f929190613e43565b602060405180830381865af4158015610dbc573d6000803e3d6000fd5b505050506040513d601f19601f82011682018060405250810190610de09190613e81565b9350610e0b565b7f000000000000000000000000000000000000000000000000000000000000000093505b50505090565b6000807f000000000000000000000000000000000000000000000000000000000000000073ffffffffffffffffffffffffffffffffffffffff1663fbfa77cf6040518163ffffffff1660e01b8152600401602060405180830381865afa158015610e7f573d6000803e3d6000fd5b505050506040513d601f19601f82011682018060405250810190610ea39190614196565b905060008173ffffffffffffffffffffffffffffffffffffffff16637be795e0600760009054906101000a900473ffffffffffffffffffffffffffffffffffffffff16306040518363ffffffff1660e01b8152600401610f049291906141c3565b600060405180830381865afa158015610f21573d6000803e3d6000fd5b505050506040513d6000823e3d601f19601f82011682018060405250810190610f4a91906142b9565b9050600281511115610f91576040517f08c379a0000000000000000000000000000000000000000000000000000000008152600401610f88906143ba565b60405180910390fd5b600060018251036110455760008373ffffffffffffffffffffffffffffffffffffffff16633508070584600081518110610fce57610fcd6143da565b5b60200260200101516040518263ffffffff1660e01b8152600401610ff29190613972565b6040805180830381865afa15801561100e573d6000803e3d6000fd5b505050506040513d601f19601f820116820180604052508101906110329190614409565b50905080826110419190613f14565b9150505b60028251036110f75760008373ffffffffffffffffffffffffffffffffffffffff166335080705846001815181106110805761107f6143da565b5b60200260200101516040518263ffffffff1660e01b81526004016110a49190613972565b6040805180830381865afa1580156110c0573d6000803e3d6000fd5b505050506040513d601f19601f820116820180604052508101906110e49190614409565b50905080826110f39190613f14565b9150505b60007f000000000000000000000000000000000000000000000000000000000000000073ffffffffffffffffffffffffffffffffffffffff166370a08231306040518263ffffffff1660e01b81526004016111529190613c34565b602060405180830381865afa15801561116f573d6000803e3d6000fd5b505050506040513d601f19601f820116820180604052508101906111939190613e81565b905080826111a19190613f14565b94505050505090565b6000600160008373ffffffffffffffffffffffffffffffffffffffff1673ffffffffffffffffffffffffffffffffffffffff168152602001908152602001600020549050919050565b6111fb6129f7565b73ffffffffffffffffffffffffffffffffffffffff16611219611e34565b73ffffffffffffffffffffffffffffffffffffffff161461126f576040517f08c379a000000000000000000000000000000000000000000000000000000000815260040161126690613f94565b60405180910390fd5b61127960006130bf565b565b601654421015801561128e575060175442105b6112cd576040517f08c379a00000000000000000000000000000000000000000000000000000000081526004016112c490614495565b60405180910390fd5b60007f000000000000000000000000000000000000000000000000000000000000000073ffffffffffffffffffffffffffffffffffffffff1663b0667cf86040518163ffffffff1660e01b8152600401602060405180830381865afa15801561133a573d6000803e3d6000fd5b505050506040513d601f19601f8201168201806040525081019061135e9190613e81565b9050600860030154600860010154111561171d576000601060020154116113ba576040517f08c379a00000000000000000000000000000000000000000000000000000000081526004016113b190614501565b60405180910390fd5b6113e16017546008600301546016546113d39190613f14565b61318390919063ffffffff16565b601681905550426016541161142b576040517f08c379a00000000000000000000000000000000000000000000000000000000081526004016114229061456d565b60405180910390fd5b60004260165461143b919061458d565b905060006114de6010600201548473__MathLib_______________________________63b3947c1790916008600201546008600701546040518463ffffffff1660e01b815260040161148f939291906145c1565b602060405180830381865af41580156114ac573d6000803e3d6000fd5b505050506040513d601f19601f820116820180604052508101906114d09190613e81565b61318390919063ffffffff16565b9050600060086004015411156116525760008173__MathLib_______________________________63b3947c179091600860040154600860020154611523919061458d565b6008600201546040518463ffffffff1660e01b8152600401611547939291906145c1565b602060405180830381865af4158015611564573d6000803e3d6000fd5b505050506040513d601f19601f820116820180604052508101906115889190613e81565b90507f000000000000000000000000000000000000000000000000000000000000000073ffffffffffffffffffffffffffffffffffffffff166331d975d2600760009054906101000a900473ffffffffffffffffffffffffffffffffffffffff1685858560106000015460036000806040518963ffffffff1660e01b815260040161161a9897969594939291906146ff565b600060405180830381600087803b15801561163457600080fd5b505af1158015611648573d6000803e3d6000fd5b5050505050611716565b7f000000000000000000000000000000000000000000000000000000000000000073ffffffffffffffffffffffffffffffffffffffff166331d975d2600760009054906101000a900473ffffffffffffffffffffffffffffffffffffffff168484600060106000015460016000806040518963ffffffff1660e01b81526004016116e39897969594939291906147b8565b600060405180830381600087803b1580156116fd57600080fd5b505af1158015611711573d6000803e3d6000fd5b505050505b5050611b32565b6008600301546008600101541015611b3157600060106001015411611777576040517f08c379a000000000000000000000000000000000000000000000000000000000815260040161176e90614882565b60405180910390fd5b61179e6017546008600101546016546117909190613f14565b61318390919063ffffffff16565b60168190555042601654116117e8576040517f08c379a00000000000000000000000000000000000000000000000000000000081526004016117df906148ee565b60405180910390fd5b6000426016546117f8919061458d565b9050600061189b6010600101548473__MathLib_______________________________63b3947c1790916008600001546008600701546040518463ffffffff1660e01b815260040161184c939291906145c1565b602060405180830381865af4158015611869573d6000803e3d6000fd5b505050506040513d601f19601f8201168201806040525081019061188d9190613e81565b61319c90919063ffffffff16565b905060007f000000000000000000000000000000000000000000000000000000000000000073ffffffffffffffffffffffffffffffffffffffff166370a08231306040518263ffffffff1660e01b81526004016118f89190613c34565b602060405180830381865afa158015611915573d6000803e3d6000fd5b505050506040513d601f19601f820116820180604052508101906119399190613e81565b73__MathLib_______________________________63de7f617090917f00000000000000000000000000000000000000000000000000000000000000006040518363ffffffff1660e01b8152600401611993929190613e43565b602060405180830381865af41580156119b0573d6000803e3d6000fd5b505050506040513d601f19601f820116820180604052508101906119d49190613e81565b90506000611a6b6010600001548373__MathLib_______________________________63de7f61709091896040518363ffffffff1660e01b8152600401611a1c929190613e43565b602060405180830381865af4158015611a39573d6000803e3d6000fd5b505050506040513d601f19601f82011682018060405250810190611a5d9190613e81565b61318390919063ffffffff16565b90507f000000000000000000000000000000000000000000000000000000000000000073ffffffffffffffffffffffffffffffffffffffff166331d975d2600760009054906101000a900473ffffffffffffffffffffffffffffffffffffffff1686866000866000600160006040518963ffffffff1660e01b8152600401611afa9897969594939291906147b8565b600060405180830381600087803b158015611b1457600080fd5b505af1158015611b28573d6000803e3d6000fd5b50505050505050505b5b7f237122ecc26db03503dc1dbb9f3131f31421dccbcf3b9cd95c3e4f89952aa8bd426016546000604051611b689392919061490e565b60405180910390a150565b7f000000000000000000000000000000000000000000000000000000000000000081565b600260065403611bdc576040517f08c379a0000000000000000000000000000000000000000000000000000000008152600401611bd390613e14565b60405180910390fd5b60026006819055506000611bee610a8a565b905060008273__MathLib_______________________________63fed4a0f39091846040518363ffffffff1660e01b8152600401611c2d929190613e43565b602060405180830381865af4158015611c4a573d6000803e3d6000fd5b505050506040513d601f19601f82011682018060405250810190611c6e9190613e81565b905082611c7a336111aa565b1015611cbb576040517f08c379a0000000000000000000000000000000000000000000000000000000008152600401611cb290614991565b60405180910390fd5b807f000000000000000000000000000000000000000000000000000000000000000073ffffffffffffffffffffffffffffffffffffffff166370a08231306040518263ffffffff1660e01b8152600401611d159190613c34565b602060405180830381865afa158015611d32573d6000803e3d6000fd5b505050506040513d601f19601f82011682018060405250810190611d569190613e81565b1015611d97576040517f08c379a0000000000000000000000000000000000000000000000000000000008152600401611d8e906149fd565b60405180910390fd5b611da133846131b6565b611dec33827f000000000000000000000000000000000000000000000000000000000000000073ffffffffffffffffffffffffffffffffffffffff1661338e9092919063ffffffff16565b7f9f640df38d8aaf522552ca6393f7244a2ac0fede0d9ae61c288d017daf5d8c60338483604051611e1f93929190613eae565b60405180910390a15050600160068190555050565b60008060009054906101000a900473ffffffffffffffffffffffffffffffffffffffff16905090565b60108060000154908060010154908060020154908060030154908060040154908060050154905086565b606060058054611e9690613d97565b80601f0160208091040260200160405190810160405280929190818152602001828054611ec290613d97565b8015611f0f5780601f10611ee457610100808354040283529160200191611f0f565b820191906000526020600020905b815481529060010190602001808311611ef257829003601f168201915b5050505050905090565b600080611f246129f7565b90506000611f328286612873565b905083811015611f77576040517f08c379a0000000000000000000000000000000000000000000000000000000008152600401611f6e90614a8f565b60405180910390fd5b611f8482868684036129ff565b60019250505092915050565b600080611f9b6129f7565b9050611fa8818585612c54565b600191505092915050565b600860050154601754611fc69190613f14565b421015612008576040517f08c379a0000000000000000000000000000000000000000000000000000000008152600401611fff90614afb565b60405180910390fd5b6000612012610a8a565b905060008111612057576040517f08c379a000000000000000000000000000000000000000000000000000000000815260040161204e90614b67565b60405180910390fd5b8060106005018190555060007f000000000000000000000000000000000000000000000000000000000000000073ffffffffffffffffffffffffffffffffffffffff166370a08231306040518263ffffffff1660e01b81526004016120bc9190613c34565b602060405180830381865afa1580156120d9573d6000803e3d6000fd5b505050506040513d601f19601f820116820180604052508101906120fd9190613e81565b73__MathLib_______________________________63de7f617090917f00000000000000000000000000000000000000000000000000000000000000006040518363ffffffff1660e01b8152600401612157929190613e43565b602060405180830381865af4158015612174573d6000803e3d6000fd5b505050506040513d601f19601f820116820180604052508101906121989190613e81565b905060007f000000000000000000000000000000000000000000000000000000000000000073ffffffffffffffffffffffffffffffffffffffff1663b0667cf86040518163ffffffff1660e01b8152600401602060405180830381865afa158015612207573d6000803e3d6000fd5b505050506040513d601f19601f8201168201806040525081019061222b9190613e81565b9050806010600401819055508173__MathLib_______________________________63de7f61709091836040518363ffffffff1660e01b8152600401612272929190613e43565b602060405180830381865af415801561228f573d6000803e3d6000fd5b505050506040513d601f19601f820116820180604052508101906122b39190613e81565b73__MathLib_______________________________63b3947c1790916008600601546008600701546040518463ffffffff1660e01b81526004016122f9939291906145c1565b602060405180830381865af4158015612316573d6000803e3d6000fd5b505050506040513d601f19601f8201168201806040525081019061233a9190613e81565b6010600001819055508073__MathLib_______________________________63b3947c1790916008600001546008600701546040518463ffffffff1660e01b815260040161238a939291906145c1565b602060405180830381865af41580156123a7573d6000803e3d6000fd5b505050506040513d601f19601f820116820180604052508101906123cb9190613e81565b6010600101819055507f000000000000000000000000000000000000000000000000000000000000000073ffffffffffffffffffffffffffffffffffffffff166331d975d2600760009054906101000a900473ffffffffffffffffffffffffffffffffffffffff1660086001015460106001015460006010600001546000600160006040518963ffffffff1660e01b81526004016124709897969594939291906147b8565b600060405180830381600087803b15801561248a57600080fd5b505af115801561249e573d6000803e3d6000fd5b505050508073__MathLib_______________________________63b3947c1790916008600201546008600701546040518463ffffffff1660e01b81526004016124e9939291906145c1565b602060405180830381865af4158015612506573d6000803e3d6000fd5b505050506040513d601f19601f8201168201806040525081019061252a9190613e81565b601060020181905550600060086004015411156126b8578073__MathLib_______________________________63b3947c179091600860040154600860020154612574919061458d565b6008600701546040518463ffffffff1660e01b8152600401612598939291906145c1565b602060405180830381865af41580156125b5573d6000803e3d6000fd5b505050506040513d601f19601f820116820180604052508101906125d99190613e81565b6010600301819055507f000000000000000000000000000000000000000000000000000000000000000073ffffffffffffffffffffffffffffffffffffffff166331d975d2600760009054906101000a900473ffffffffffffffffffffffffffffffffffffffff1660086003015460106002015460106003015460106000015460036000806040518963ffffffff1660e01b81526004016126819897969594939291906146ff565b600060405180830381600087803b15801561269b57600080fd5b505af11580156126af573d6000803e3d6000fd5b50505050612786565b7f000000000000000000000000000000000000000000000000000000000000000073ffffffffffffffffffffffffffffffffffffffff166331d975d2600760009054906101000a900473ffffffffffffffffffffffffffffffffffffffff16600860030154601060020154600060106000015460016000806040518963ffffffff1660e01b81526004016127539897969594939291906147b8565b600060405180830381600087803b15801561276d57600080fd5b505af1158015612781573d6000803e3d6000fd5b505050505b6127a360086003015460086001015461318390919063ffffffff16565b426127ae9190613f14565b6016819055506127d160086003015460086001015461319c90919063ffffffff16565b426127dc9190613f14565b6017819055507f237122ecc26db03503dc1dbb9f3131f31421dccbcf3b9cd95c3e4f89952aa8bd4260175460016040516128189392919061490e565b60405180910390a1505050565b7f000000000000000000000000000000000000000000000000000000000000000081565b7f000000000000000000000000000000000000000000000000000000000000000081565b60175481565b6000600260008473ffffffffffffffffffffffffffffffffffffffff1673ffffffffffffffffffffffffffffffffffffffff16815260200190815260200160002060008373ffffffffffffffffffffffffffffffffffffffff1673ffffffffffffffffffffffffffffffffffffffff16815260200190815260200160002054905092915050565b60165481565b6129086129f7565b73ffffffffffffffffffffffffffffffffffffffff16612926611e34565b73ffffffffffffffffffffffffffffffffffffffff161461297c576040517f08c379a000000000000000000000000000000000000000000000000000000000815260040161297390613f94565b60405180910390fd5b600073ffffffffffffffffffffffffffffffffffffffff168173ffffffffffffffffffffffffffffffffffffffff16036129eb576040517f08c379a00000000000000000000000000000000000000000000000000000000081526004016129e290614bf9565b60405180910390fd5b6129f4816130bf565b50565b600033905090565b600073ffffffffffffffffffffffffffffffffffffffff168373ffffffffffffffffffffffffffffffffffffffff1603612a6e576040517f08c379a0000000000000000000000000000000000000000000000000000000008152600401612a6590614c8b565b60405180910390fd5b600073ffffffffffffffffffffffffffffffffffffffff168273ffffffffffffffffffffffffffffffffffffffff1603612add576040517f08c379a0000000000000000000000000000000000000000000000000000000008152600401612ad490614d1d565b60405180910390fd5b80600260008573ffffffffffffffffffffffffffffffffffffffff1673ffffffffffffffffffffffffffffffffffffffff16815260200190815260200160002060008473ffffffffffffffffffffffffffffffffffffffff1673ffffffffffffffffffffffffffffffffffffffff168152602001908152602001600020819055508173ffffffffffffffffffffffffffffffffffffffff168373ffffffffffffffffffffffffffffffffffffffff167f8c5be1e5ebec7d5bd14f71427d1e84f3dd0314c0f7b2291e5b200ac8c7c3b92583604051612bbb9190613972565b60405180910390a3505050565b6000612bd48484612873565b90507fffffffffffffffffffffffffffffffffffffffffffffffffffffffffffffffff8114612c4e5781811015612c40576040517f08c379a0000000000000000000000000000000000000000000000000000000008152600401612c3790614d89565b60405180910390fd5b612c4d84848484036129ff565b5b50505050565b600073ffffffffffffffffffffffffffffffffffffffff168373ffffffffffffffffffffffffffffffffffffffff1603612cc3576040517f08c379a0000000000000000000000000000000000000000000000000000000008152600401612cba90614e1b565b60405180910390fd5b600073ffffffffffffffffffffffffffffffffffffffff168273ffffffffffffffffffffffffffffffffffffffff1603612d32576040517f08c379a0000000000000000000000000000000000000000000000000000000008152600401612d2990614ead565b60405180910390fd5b612d3d838383613414565b6000600160008573ffffffffffffffffffffffffffffffffffffffff1673ffffffffffffffffffffffffffffffffffffffff16815260200190815260200160002054905081811015612dc4576040517f08c379a0000000000000000000000000000000000000000000000000000000008152600401612dbb90614f3f565b60405180910390fd5b818103600160008673ffffffffffffffffffffffffffffffffffffffff1673ffffffffffffffffffffffffffffffffffffffff1681526020019081526020016000208190555081600160008573ffffffffffffffffffffffffffffffffffffffff1673ffffffffffffffffffffffffffffffffffffffff1681526020019081526020016000206000828254612e599190613f14565b925050819055508273ffffffffffffffffffffffffffffffffffffffff168473ffffffffffffffffffffffffffffffffffffffff167fddf252ad1be2c89b69c2b068fc378daa952ba7f163c4a11628f55a4df523b3ef84604051612ebd9190613972565b60405180910390a3612ed0848484613419565b50505050565b612f59846323b872dd60e01b858585604051602401612ef793929190614f5f565b604051602081830303815290604052907bffffffffffffffffffffffffffffffffffffffffffffffffffffffff19166020820180517bffffffffffffffffffffffffffffffffffffffffffffffffffffffff838183161783525050505061341e565b50505050565b600073ffffffffffffffffffffffffffffffffffffffff168273ffffffffffffffffffffffffffffffffffffffff1603612fce576040517f08c379a0000000000000000000000000000000000000000000000000000000008152600401612fc590614fe2565b60405180910390fd5b612fda60008383613414565b8060036000828254612fec9190613f14565b9250508190555080600160008473ffffffffffffffffffffffffffffffffffffffff1673ffffffffffffffffffffffffffffffffffffffff16815260200190815260200160002060008282546130429190613f14565b925050819055508173ffffffffffffffffffffffffffffffffffffffff16600073ffffffffffffffffffffffffffffffffffffffff167fddf252ad1be2c89b69c2b068fc378daa952ba7f163c4a11628f55a4df523b3ef836040516130a79190613972565b60405180910390a36130bb60008383613419565b5050565b60008060009054906101000a900473ffffffffffffffffffffffffffffffffffffffff169050816000806101000a81548173ffffffffffffffffffffffffffffffffffffffff021916908373ffffffffffffffffffffffffffffffffffffffff1602179055508173ffffffffffffffffffffffffffffffffffffffff168173ffffffffffffffffffffffffffffffffffffffff167f8be0079c531659141344cd1fd0a4f28419497f9722a3daafe3b4186f6b6457e060405160405180910390a35050565b60008183106131925781613194565b825b905092915050565b6000818310156131ac57816131ae565b825b905092915050565b600073ffffffffffffffffffffffffffffffffffffffff168273ffffffffffffffffffffffffffffffffffffffff1603613225576040517f08c379a000000000000000000000000000000000000000000000000000000000815260040161321c90615074565b60405180910390fd5b61323182600083613414565b6000600160008473ffffffffffffffffffffffffffffffffffffffff1673ffffffffffffffffffffffffffffffffffffffff168152602001908152602001600020549050818110156132b8576040517f08c379a00000000000000000000000000000000000000000000000000000000081526004016132af90615106565b60405180910390fd5b818103600160008573ffffffffffffffffffffffffffffffffffffffff1673ffffffffffffffffffffffffffffffffffffffff168152602001908152602001600020819055508160036000828254613310919061458d565b92505081905550600073ffffffffffffffffffffffffffffffffffffffff168373ffffffffffffffffffffffffffffffffffffffff167fddf252ad1be2c89b69c2b068fc378daa952ba7f163c4a11628f55a4df523b3ef846040516133759190613972565b60405180910390a361338983600084613419565b505050565b61340f8363a9059cbb60e01b84846040516024016133ad929190615126565b604051602081830303815290604052907bffffffffffffffffffffffffffffffffffffffffffffffffffffffff19166020820180517bffffffffffffffffffffffffffffffffffffffffffffffffffffffff838183161783525050505061341e565b505050565b505050565b505050565b6000613480826040518060400160405280602081526020017f5361666545524332303a206c6f772d6c6576656c2063616c6c206661696c65648152508573ffffffffffffffffffffffffffffffffffffffff166134e59092919063ffffffff16565b90506000815111156134e057808060200190518101906134a0919061517b565b6134df576040517f08c379a00000000000000000000000000000000000000000000000000000000081526004016134d69061521a565b60405180910390fd5b5b505050565b60606134f484846000856134fd565b90509392505050565b606082471015613542576040517f08c379a0000000000000000000000000000000000000000000000000000000008152600401613539906152ac565b60405180910390fd5b61354b85613611565b61358a576040517f08c379a000000000000000000000000000000000000000000000000000000000815260040161358190615318565b60405180910390fd5b6000808673ffffffffffffffffffffffffffffffffffffffff1685876040516135b3919061537f565b60006040518083038185875af1925050503d80600081146135f0576040519150601f19603f3d011682016040523d82523d6000602084013e6135f5565b606091505b5091509150613605828286613634565b92505050949350505050565b6000808273ffffffffffffffffffffffffffffffffffffffff163b119050919050565b6060831561364457829050613694565b6000835111156136575782518084602001fd5b816040517f08c379a000000000000000000000000000000000000000000000000000000000815260040161368b919061372b565b60405180910390fd5b9392505050565b600081519050919050565b600082825260208201905092915050565b60005b838110156136d55780820151818401526020810190506136ba565b60008484015250505050565b6000601f19601f8301169050919050565b60006136fd8261369b565b61370781856136a6565b93506137178185602086016136b7565b613720816136e1565b840191505092915050565b6000602082019050818103600083015261374581846136f2565b905092915050565b6000604051905090565b600080fd5b600080fd5b600073ffffffffffffffffffffffffffffffffffffffff82169050919050565b600061378c82613761565b9050919050565b61379c81613781565b81146137a757600080fd5b50565b6000813590506137b981613793565b92915050565b6000819050919050565b6137d2816137bf565b81146137dd57600080fd5b50565b6000813590506137ef816137c9565b92915050565b6000806040838503121561380c5761380b613757565b5b600061381a858286016137aa565b925050602061382b858286016137e0565b9150509250929050565b60008115159050919050565b61384a81613835565b82525050565b60006020820190506138656000830184613841565b92915050565b613874816137bf565b82525050565b600061010082019050613890600083018b61386b565b61389d602083018a61386b565b6138aa604083018961386b565b6138b7606083018861386b565b6138c4608083018761386b565b6138d160a083018661386b565b6138de60c083018561386b565b6138eb60e083018461386b565b9998505050505050505050565b6000819050919050565b600061391d61391861391384613761565b6138f8565b613761565b9050919050565b600061392f82613902565b9050919050565b600061394182613924565b9050919050565b61395181613936565b82525050565b600060208201905061396c6000830184613948565b92915050565b6000602082019050613987600083018461386b565b92915050565b6000806000606084860312156139a6576139a5613757565b5b60006139b4868287016137aa565b93505060206139c5868287016137aa565b92505060406139d6868287016137e0565b9150509250925092565b6000602082840312156139f6576139f5613757565b5b6000613a04848285016137e0565b91505092915050565b600060ff82169050919050565b613a2381613a0d565b82525050565b6000602082019050613a3e6000830184613a1a565b92915050565b600080fd5b7f4e487b7100000000000000000000000000000000000000000000000000000000600052604160045260246000fd5b613a81826136e1565b810181811067ffffffffffffffff82111715613aa057613a9f613a49565b5b80604052505050565b6000613ab361374d565b9050613abf8282613a78565b919050565b60006101008284031215613adb57613ada613a44565b5b613ae6610100613aa9565b90506000613af6848285016137e0565b6000830152506020613b0a848285016137e0565b6020830152506040613b1e848285016137e0565b6040830152506060613b32848285016137e0565b6060830152506080613b46848285016137e0565b60808301525060a0613b5a848285016137e0565b60a08301525060c0613b6e848285016137e0565b60c08301525060e0613b82848285016137e0565b60e08301525092915050565b60006101008284031215613ba557613ba4613757565b5b6000613bb384828501613ac4565b91505092915050565b600060208284031215613bd257613bd1613757565b5b6000613be0848285016137aa565b91505092915050565b6000613bf482613924565b9050919050565b613c0481613be9565b82525050565b6000602082019050613c1f6000830184613bfb565b92915050565b613c2e81613781565b82525050565b6000602082019050613c496000830184613c25565b92915050565b600060c082019050613c64600083018961386b565b613c71602083018861386b565b613c7e604083018761386b565b613c8b606083018661386b565b613c98608083018561386b565b613ca560a083018461386b565b979650505050505050565b6000613cbb82613924565b9050919050565b613ccb81613cb0565b82525050565b6000602082019050613ce66000830184613cc2565b92915050565b6000613cf782613924565b9050919050565b613d0781613cec565b82525050565b6000602082019050613d226000830184613cfe565b92915050565b60008060408385031215613d3f57613d3e613757565b5b6000613d4d858286016137aa565b9250506020613d5e858286016137aa565b9150509250929050565b7f4e487b7100000000000000000000000000000000000000000000000000000000600052602260045260246000fd5b60006002820490506001821680613daf57607f821691505b602082108103613dc257613dc1613d68565b5b50919050565b7f5265656e7472616e637947756172643a207265656e7472616e742063616c6c00600082015250565b6000613dfe601f836136a6565b9150613e0982613dc8565b602082019050919050565b60006020820190508181036000830152613e2d81613df1565b9050919050565b613e3d816137bf565b82525050565b6000604082019050613e586000830185613e34565b613e656020830184613e34565b9392505050565b600081519050613e7b816137c9565b92915050565b600060208284031215613e9757613e96613757565b5b6000613ea584828501613e6c565b91505092915050565b6000606082019050613ec36000830186613c25565b613ed0602083018561386b565b613edd604083018461386b565b949350505050565b7f4e487b7100000000000000000000000000000000000000000000000000000000600052601160045260246000fd5b6000613f1f826137bf565b9150613f2a836137bf565b9250828201905080821115613f4257613f41613ee5565b5b92915050565b7f4f776e61626c653a2063616c6c6572206973206e6f7420746865206f776e6572600082015250565b6000613f7e6020836136a6565b9150613f8982613f48565b602082019050919050565b60006020820190508181036000830152613fad81613f71565b9050919050565b7f57726f6e6720737472696b657300000000000000000000000000000000000000600082015250565b6000613fea600d836136a6565b9150613ff582613fb4565b602082019050919050565b6000602082019050818103600083015261401981613fdd565b9050919050565b7f4e487b7100000000000000000000000000000000000000000000000000000000600052601260045260246000fd5b600061405a826137bf565b9150614065836137bf565b92508261407557614074614020565b5b828206905092915050565b7f57726f6e672074656e6f72730000000000000000000000000000000000000000600082015250565b60006140b6600c836136a6565b91506140c182614080565b602082019050919050565b600060208201905081810360008301526140e5816140a9565b9050919050565b7f496e7665737420697320756e617661696c61626c652e00000000000000000000600082015250565b60006141226016836136a6565b915061412d826140ec565b602082019050919050565b6000602082019050818103600083015261415181614115565b9050919050565b600061416382613781565b9050919050565b61417381614158565b811461417e57600080fd5b50565b6000815190506141908161416a565b92915050565b6000602082840312156141ac576141ab613757565b5b60006141ba84828501614181565b91505092915050565b60006040820190506141d86000830185613c25565b6141e56020830184613c25565b9392505050565b600080fd5b600067ffffffffffffffff82111561420c5761420b613a49565b5b602082029050602081019050919050565b600080fd5b6000614235614230846141f1565b613aa9565b905080838252602082019050602084028301858111156142585761425761421d565b5b835b81811015614281578061426d8882613e6c565b84526020840193505060208101905061425a565b5050509392505050565b600082601f8301126142a05761429f6141ec565b5b81516142b0848260208601614222565b91505092915050565b6000602082840312156142cf576142ce613757565b5b600082015167ffffffffffffffff8111156142ed576142ec61375c565b5b6142f98482850161428b565b91505092915050565b7f6f7074696f6e7320796574206163746976650000000000000000000000000000600082015250565b60006143386012836136a6565b915061434382614302565b602082019050919050565b600060208201905081810360008301526143678161432b565b9050919050565b7f6f7074696f6e7320636f756e7420696e636f7272656374000000000000000000600082015250565b60006143a46017836136a6565b91506143af8261436e565b602082019050919050565b600060208201905081810360008301526143d381614397565b9050919050565b7f4e487b7100000000000000000000000000000000000000000000000000000000600052603260045260246000fd5b600080604083850312156144205761441f613757565b5b600061442e85828601613e6c565b925050602061443f85828601613e6c565b9150509250929050565b7f4e6f7420666f7220726562616c616e6365000000000000000000000000000000600082015250565b600061447f6011836136a6565b915061448a82614449565b602082019050919050565b600060208201905081810360008301526144ae81614472565b9050919050565b7f50757420737472696b6520756e73657400000000000000000000000000000000600082015250565b60006144eb6010836136a6565b91506144f6826144b5565b602082019050919050565b6000602082019050818103600083015261451a816144de565b9050919050565b7f7075742065787069727920696e20746865207061737400000000000000000000600082015250565b60006145576016836136a6565b915061456282614521565b602082019050919050565b600060208201905081810360008301526145868161454a565b9050919050565b6000614598826137bf565b91506145a3836137bf565b92508282039050818111156145bb576145ba613ee5565b5b92915050565b60006060820190506145d66000830186613e34565b6145e36020830185613e34565b6145f06040830184613e34565b949350505050565b7f4e487b7100000000000000000000000000000000000000000000000000000000600052602160045260246000fd5b60048110614638576146376145f8565b5b50565b600081905061464982614627565b919050565b60006146598261463b565b9050919050565b6146698161464e565b82525050565b600281106146805761467f6145f8565b5b50565b60008190506146918261466f565b919050565b60006146a182614683565b9050919050565b6146b181614696565b82525050565b600381106146c8576146c76145f8565b5b50565b60008190506146d9826146b7565b919050565b60006146e9826146cb565b9050919050565b6146f9816146de565b82525050565b600061010082019050614715600083018b613948565b614722602083018a61386b565b61472f604083018961386b565b61473c606083018861386b565b614749608083018761386b565b61475660a0830186614660565b61476360c08301856146a8565b61477060e08301846146f0565b9998505050505050505050565b6000819050919050565b60006147a261479d6147988461477d565b6138f8565b6137bf565b9050919050565b6147b281614787565b82525050565b6000610100820190506147ce600083018b613948565b6147db602083018a61386b565b6147e8604083018961386b565b6147f560608301886147a9565b614802608083018761386b565b61480f60a0830186614660565b61481c60c08301856146a8565b61482960e08301846146f0565b9998505050505050505050565b7f43616c6c20737472696b6520756e736574000000000000000000000000000000600082015250565b600061486c6011836136a6565b915061487782614836565b602082019050919050565b6000602082019050818103600083015261489b8161485f565b9050919050565b7f63616c6c2065787069727920696e207468652070617374000000000000000000600082015250565b60006148d86017836136a6565b91506148e3826148a2565b602082019050919050565b60006020820190508181036000830152614907816148cb565b9050919050565b6000606082019050614923600083018661386b565b614930602083018561386b565b61493d6040830184613841565b949350505050565b7f45786365656420746f74616c2062616c616e6365000000000000000000000000600082015250565b600061497b6014836136a6565b915061498682614945565b602082019050919050565b600060208201905081810360008301526149aa8161496e565b9050919050565b7f496e73756666696369656e742066756e64696e67000000000000000000000000600082015250565b60006149e76014836136a6565b91506149f2826149b1565b602082019050919050565b60006020820190508181036000830152614a16816149da565b9050919050565b7f45524332303a2064656372656173656420616c6c6f77616e63652062656c6f7760008201527f207a65726f000000000000000000000000000000000000000000000000000000602082015250565b6000614a796025836136a6565b9150614a8482614a1d565b604082019050919050565b60006020820190508181036000830152614aa881614a6c565b9050919050565b7f7064526f6c6c7300000000000000000000000000000000000000000000000000600082015250565b6000614ae56007836136a6565b9150614af082614aaf565b602082019050919050565b60006020820190508181036000830152614b1481614ad8565b9050919050565b7f3061737365740000000000000000000000000000000000000000000000000000600082015250565b6000614b516006836136a6565b9150614b5c82614b1b565b602082019050919050565b60006020820190508181036000830152614b8081614b44565b9050919050565b7f4f776e61626c653a206e6577206f776e657220697320746865207a65726f206160008201527f6464726573730000000000000000000000000000000000000000000000000000602082015250565b6000614be36026836136a6565b9150614bee82614b87565b604082019050919050565b60006020820190508181036000830152614c1281614bd6565b9050919050565b7f45524332303a20617070726f76652066726f6d20746865207a65726f2061646460008201527f7265737300000000000000000000000000000000000000000000000000000000602082015250565b6000614c756024836136a6565b9150614c8082614c19565b604082019050919050565b60006020820190508181036000830152614ca481614c68565b9050919050565b7f45524332303a20617070726f766520746f20746865207a65726f20616464726560008201527f7373000000000000000000000000000000000000000000000000000000000000602082015250565b6000614d076022836136a6565b9150614d1282614cab565b604082019050919050565b60006020820190508181036000830152614d3681614cfa565b9050919050565b7f45524332303a20696e73756666696369656e7420616c6c6f77616e6365000000600082015250565b6000614d73601d836136a6565b9150614d7e82614d3d565b602082019050919050565b60006020820190508181036000830152614da281614d66565b9050919050565b7f45524332303a207472616e736665722066726f6d20746865207a65726f20616460008201527f6472657373000000000000000000000000000000000000000000000000000000602082015250565b6000614e056025836136a6565b9150614e1082614da9565b604082019050919050565b60006020820190508181036000830152614e3481614df8565b9050919050565b7f45524332303a207472616e7366657220746f20746865207a65726f206164647260008201527f6573730000000000000000000000000000000000000000000000000000000000602082015250565b6000614e976023836136a6565b9150614ea282614e3b565b604082019050919050565b60006020820190508181036000830152614ec681614e8a565b9050919050565b7f45524332303a207472616e7366657220616d6f756e742065786365656473206260008201527f616c616e63650000000000000000000000000000000000000000000000000000602082015250565b6000614f296026836136a6565b9150614f3482614ecd565b604082019050919050565b60006020820190508181036000830152614f5881614f1c565b9050919050565b6000606082019050614f746000830186613c25565b614f816020830185613c25565b614f8e604083018461386b565b949350505050565b7f45524332303a206d696e7420746f20746865207a65726f206164647265737300600082015250565b6000614fcc601f836136a6565b9150614fd782614f96565b602082019050919050565b60006020820190508181036000830152614ffb81614fbf565b9050919050565b7f45524332303a206275726e2066726f6d20746865207a65726f2061646472657360008201527f7300000000000000000000000000000000000000000000000000000000000000602082015250565b600061505e6021836136a6565b915061506982615002565b604082019050919050565b6000602082019050818103600083015261508d81615051565b9050919050565b7f45524332303a206275726e20616d6f756e7420657863656564732062616c616e60008201527f6365000000000000000000000000000000000000000000000000000000000000602082015250565b60006150f06022836136a6565b91506150fb82615094565b604082019050919050565b6000602082019050818103600083015261511f816150e3565b9050919050565b600060408201905061513b6000830185613c25565b615148602083018461386b565b9392505050565b61515881613835565b811461516357600080fd5b50565b6000815190506151758161514f565b92915050565b60006020828403121561519157615190613757565b5b600061519f84828501615166565b91505092915050565b7f5361666545524332303a204552433230206f7065726174696f6e20646964206e60008201527f6f74207375636365656400000000000000000000000000000000000000000000602082015250565b6000615204602a836136a6565b915061520f826151a8565b604082019050919050565b60006020820190508181036000830152615233816151f7565b9050919050565b7f416464726573733a20696e73756666696369656e742062616c616e636520666f60008201527f722063616c6c0000000000000000000000000000000000000000000000000000602082015250565b60006152966026836136a6565b91506152a18261523a565b604082019050919050565b600060208201905081810360008301526152c581615289565b9050919050565b7f416464726573733a2063616c6c20746f206e6f6e2d636f6e7472616374000000600082015250565b6000615302601d836136a6565b915061530d826152cc565b602082019050919050565b60006020820190508181036000830152615331816152f5565b9050919050565b600081519050919050565b600081905092915050565b600061535982615338565b6153638185615343565b93506153738185602086016136b7565b80840191505092915050565b600061538b828461534e565b91508190509291505056fea264697066735822122069dba081344e32b98a4990748fa25cbd20f1b64af6cbb1a5d9c991df9fd3d94c64736f6c63430008110033",
  "immutableReferences": {
    "16773": [
      {
        "length": 32,
        "start": 4817
      },
      {
        "length": 32,
        "start": 7029
      },
      {
        "length": 32,
        "start": 8606
      }
    ],
    "16776": [
      {
        "length": 32,
        "start": 2773
      },
      {
        "length": 32,
        "start": 3606
      },
      {
        "length": 32,
        "start": 5516
      },
      {
        "length": 32,
        "start": 5716
      },
      {
        "length": 32,
        "start": 6767
      },
      {
        "length": 32,
        "start": 9174
      },
      {
        "length": 32,
        "start": 9700
      },
      {
        "length": 32,
        "start": 9914
      },
      {
        "length": 32,
        "start": 10315
      }
    ],
    "16779": [
      {
        "length": 32,
        "start": 2040
      },
      {
        "length": 32,
        "start": 3150
      },
      {
        "length": 32,
        "start": 4347
      },
      {
        "length": 32,
        "start": 6305
      },
      {
        "length": 32,
        "start": 7358
      },
      {
        "length": 32,
        "start": 7592
      },
      {
        "length": 32,
        "start": 8293
      },
      {
        "length": 32,
        "start": 10279
      }
    ],
    "16781": [
      {
        "length": 32,
        "start": 1734
      },
      {
        "length": 32,
        "start": 3561
      },
      {
        "length": 32,
        "start": 6487
      },
      {
        "length": 32,
        "start": 8475
      }
    ]
  },
  "source": "// SPDX-License-Identifier: MIT\npragma solidity 0.8.17;\n\nimport \"@openzeppelin/contracts/token/ERC20/ERC20.sol\";\nimport \"@openzeppelin/contracts/security/ReentrancyGuard.sol\";\nimport \"@openzeppelin/contracts/token/ERC20/utils/SafeERC20.sol\";\nimport \"@openzeppelin/contracts/utils/math/Math.sol\";\nimport \"@openzeppelin/contracts/access/Ownable.sol\";\nimport \"../Exchange.sol\";\nimport \"../OptionVault.sol\";\nimport \"../VolatilityChain.sol\";\nimport \"../pools/MarketMaker.sol\";\nimport \"../pools/Pool.sol\";\nimport \"../libraries/MathLib.sol\";\nimport \"../libraries/OptionLib.sol\";\n\ncontract FixedIndex is Ownable, ERC20, ReentrancyGuard{\n    using MathLib for uint256;\n    using Math for uint256;\n    using SafeERC20 for ERC20;\n\n    struct FIAParam{uint256 callMoney; uint256 callTenor; uint256 putMoney; uint256 putTenor; uint256 putSpread; uint256 tradeWindow; uint256 leverage; uint256 multiplier;}\n    struct VintageStats{uint256 optionAmount; uint256 callStrike; uint256 putStrike; uint256 putSpread; uint256 startLevel; uint256 startNAV;}\n\n    event FIPInvest(address investor, uint256 tokenUnit, uint256 investAmount);\n    event FIPDivest(address investor, uint256 tokenUnit, uint256 divestAmount);\n    event FIPRoll(uint256 time, uint256 rebTime, bool isRoll);\n\n    VolatilityChain public immutable oracle;\n    Exchange public immutable exchange;\n    ERC20 public immutable funding;\n    uint256 public immutable fundingMultiplier;\n    Pool public pool;\n\n    FIAParam public fiaParams;\n    VintageStats public vintage;\n\n    uint256 public nextRebTime; // next time for new option contracts\n    uint256 public nextVintageTime; // next time for new vintage\n\n    constructor(address _pool, string memory _name, string memory _symbol, FIAParam memory _params) ERC20(_name, _symbol){\n        require(_pool != address(0), \"null pool address\");\n        pool = Pool(_pool);\n\n        exchange = Exchange(pool.exchange()); \n\n        MarketMaker market = pool.marketMaker();\n        oracle = market.getVolatilityChain();\n        \n        funding = ERC20(market.funding());\n        funding.increaseAllowance(address(exchange), 2**256 - 1);\n        uint256 fundingDecimals = funding.decimals();\n        fundingMultiplier = 10 ** fundingDecimals;\n\n        nextRebTime = block.timestamp;\n        nextVintageTime = block.timestamp;\n\n        require(_params.callMoney >= _params.multiplier && _params.putMoney <= _params.multiplier && _params.putSpread < _params.putMoney, \"Wrong strikes\");\n        require(_params.callTenor % _params.putTenor == 0 || _params.putTenor % _params.callTenor == 0, \"Wrong tenors\");\n        fiaParams = _params;\n    }\n\n    function setParameters(FIAParam memory _params) external onlyOwner {\n        require(_params.callMoney >= _params.multiplier && _params.putMoney <= _params.multiplier && _params.putSpread < _params.putMoney, \"Wrong strikes\");\n        require(_params.callTenor % _params.putTenor == 0 || _params.putTenor % _params.callTenor == 0, \"Wrong tenors\");\n        fiaParams = _params;\n    }\n\n    // invest function to deposit USDC\n    // _toInvest: amount of USDC to invest during the investment window\n    function invest(uint256 _toInvest) external nonReentrant{\n        uint256 unitAsset = getRollsUnitAsset();\n        uint256 unitToMint = _toInvest.ethdiv(unitAsset);\n\n        funding.safeTransferFrom(msg.sender, address(this), _toInvest);\n        _mint(msg.sender, unitToMint);\n        emit FIPInvest(msg.sender, unitToMint, _toInvest);\n    }\n    \n    // invest function to withdraw USDC\n    // _toDivest: amount of FIP tokens to divest (by withdrawing corresponding amount of USDC) during the investment window\n    function divest(uint256 _toDivest) external nonReentrant{\n        uint256 unitAsset = getRollsUnitAsset();\n        uint256 assetToDivest = _toDivest.ethmul(unitAsset);\n\n        require(balanceOf(msg.sender) >= _toDivest, \"Exceed total balance\");\n        require(funding.balanceOf(address(this)) >= assetToDivest, \"Insufficient funding\");\n        _burn(msg.sender, _toDivest);\n        funding.safeTransfer(msg.sender, assetToDivest);\n        emit FIPDivest(msg.sender, _toDivest, assetToDivest);\n    }\n\n    // get unit assets in funding token decimals\n    function getRollsUnitAsset() public view returns(uint256 unitAsset){\n        require(block.timestamp >= nextVintageTime, \"Invest is unavailable.\");\n        uint256[] memory options = exchange.vault().getHolderOptions(address(pool), address(this));\n        require(options.length == 0, \"options yet active\");\n\n        uint256 currentAssets = funding.balanceOf(address(this));\n        uint256 currentSupply = this.totalSupply();\n        if(currentSupply>0){\n            unitAsset = currentAssets.ethdiv(currentSupply);\n        }\n        else{\n            unitAsset = fundingMultiplier;\n        }\n    }\n\n    function rollover() external{\n        require(block.timestamp >= (nextVintageTime + fiaParams.tradeWindow), \"pdRolls\");\n        uint256 unitAsset = getRollsUnitAsset();\n        require(unitAsset> 0, \"0asset\");\n        vintage.startNAV = unitAsset;\n\n        uint256 currentAssets = funding.balanceOf(address(this)).ethdiv(fundingMultiplier);\n        uint256 currentPrice = oracle.queryPrice();\n        vintage.startLevel = currentPrice;\n        vintage.optionAmount = currentAssets.ethdiv(currentPrice).muldiv(fiaParams.leverage, fiaParams.multiplier);\n\n        // sell call\n        vintage.callStrike = currentPrice.muldiv(fiaParams.callMoney, fiaParams.multiplier);\n        exchange.tradeOption(pool, fiaParams.callTenor, vintage.callStrike, 0, vintage.optionAmount, OptionLib.PayoffType.Call, OptionLib.OptionSide.Sell, OptionLib.PaymentMethod.USDC);\n\n        // buy put\n        vintage.putStrike = currentPrice.muldiv(fiaParams.putMoney, fiaParams.multiplier);\n        if(fiaParams.putSpread > 0){\n            vintage.putSpread = currentPrice.muldiv(fiaParams.putMoney - fiaParams.putSpread, fiaParams.multiplier);\n            exchange.tradeOption(pool, fiaParams.putTenor, vintage.putStrike, vintage.putSpread, vintage.optionAmount, OptionLib.PayoffType.PutSpread, OptionLib.OptionSide.Buy, OptionLib.PaymentMethod.USDC);\n        }\n        else{\n            exchange.tradeOption(pool, fiaParams.putTenor, vintage.putStrike, 0, vintage.optionAmount, OptionLib.PayoffType.Put, OptionLib.OptionSide.Buy, OptionLib.PaymentMethod.USDC);\n        }\n        \n        nextRebTime = block.timestamp + fiaParams.callTenor.min(fiaParams.putTenor);\n        nextVintageTime = block.timestamp + fiaParams.callTenor.max(fiaParams.putTenor);\n\n        emit FIPRoll(block.timestamp, nextVintageTime, true);\n    }\n\n    function rebalance() external {\n        require(block.timestamp >= nextRebTime && block.timestamp < nextVintageTime, \"Not for rebalance\");\n        uint256 currentPrice = oracle.queryPrice();\n        if(fiaParams.callTenor > fiaParams.putTenor){\n            require(vintage.putStrike > 0, \"Put strike unset\");\n            nextRebTime = (nextRebTime + fiaParams.putTenor).min(nextVintageTime);\n            require(nextRebTime > block.timestamp, \"put expiry in the past\");\n            uint256 tenor = nextRebTime - block.timestamp;\n            uint256 strike = currentPrice.muldiv(fiaParams.putMoney, fiaParams.multiplier).min(vintage.putStrike);\n            \n            if(fiaParams.putSpread > 0){\n                uint256 spread = strike.muldiv(fiaParams.putMoney - fiaParams.putSpread, fiaParams.putMoney);\n                exchange.tradeOption(pool, tenor, strike, spread, vintage.optionAmount, OptionLib.PayoffType.PutSpread, OptionLib.OptionSide.Buy, OptionLib.PaymentMethod.USDC);\n            }\n            else{\n                exchange.tradeOption(pool, tenor, strike, 0, vintage.optionAmount, OptionLib.PayoffType.Put, OptionLib.OptionSide.Buy, OptionLib.PaymentMethod.USDC);\n            }\n        }\n        else if (fiaParams.callTenor < fiaParams.putTenor){\n            require(vintage.callStrike > 0, \"Call strike unset\");\n            nextRebTime = (nextRebTime + fiaParams.callTenor).min(nextVintageTime);\n            require(nextRebTime > block.timestamp, \"call expiry in the past\");\n\n            uint256 tenor = nextRebTime - block.timestamp;\n            uint256 strike = currentPrice.muldiv(fiaParams.callMoney, fiaParams.multiplier).max(vintage.callStrike);\n\n            uint256 currentAssets = funding.balanceOf(address(this)).ethdiv(fundingMultiplier);\n            uint256 callOptionAmount = currentAssets.ethdiv(currentPrice).min(vintage.optionAmount);\n\n            exchange.tradeOption(pool, tenor, strike, 0, callOptionAmount, OptionLib.PayoffType.Call, OptionLib.OptionSide.Sell, OptionLib.PaymentMethod.USDC);\n        }\n\n        emit FIPRoll(block.timestamp, nextRebTime, false);\n    }\n\n    // returns present value of the whole protocol in funding token decimals.\n    function getPV() external view returns(uint256){\n        OptionVault _vault = exchange.vault();\n        uint256[] memory options = _vault.getHolderOptions(address(pool), address(this));\n        require(options.length <= 2, \"options count incorrect\");\n\n        uint256 _optionMV = 0;\n        if(options.length == 1){\n            (uint256 _unwindValue, ) = _vault.calcOptionUnwindValue(options[0]);\n            _optionMV = _optionMV + _unwindValue;\n        }\n        if(options.length == 2){\n            (uint256 _unwindValue, ) = _vault.calcOptionUnwindValue(options[1]);\n            _optionMV = _optionMV + _unwindValue;\n        }\n\n        // add to remaining USDC\n        uint256 _remainingBalance = funding.balanceOf(address(this));\n\n        return _optionMV + _remainingBalance;\n    }\n\n\n}",
  "sourcePath": "/Users/mac/Documents/GitHub/moret/contracts/vaults/FixedIndex.sol",
  "compiler": {
    "name": "solc",
    "version": "0.8.17+commit.8df45f5f.Emscripten.clang"
  },
  "schemaVersion": "3.4.3",
  "updatedAt": "2023-01-15T22:24:36.964Z",
  "networkType": "ethereum",
  "devdoc": {
    "kind": "dev",
    "methods": {
      "allowance(address,address)": {
        "details": "See {IERC20-allowance}."
      },
      "approve(address,uint256)": {
        "details": "See {IERC20-approve}. NOTE: If `amount` is the maximum `uint256`, the allowance is not updated on `transferFrom`. This is semantically equivalent to an infinite approval. Requirements: - `spender` cannot be the zero address."
      },
      "balanceOf(address)": {
        "details": "See {IERC20-balanceOf}."
      },
      "decimals()": {
        "details": "Returns the number of decimals used to get its user representation. For example, if `decimals` equals `2`, a balance of `505` tokens should be displayed to a user as `5.05` (`505 / 10 ** 2`). Tokens usually opt for a value of 18, imitating the relationship between Ether and Wei. This is the value {ERC20} uses, unless this function is overridden; NOTE: This information is only used for _display_ purposes: it in no way affects any of the arithmetic of the contract, including {IERC20-balanceOf} and {IERC20-transfer}."
      },
      "decreaseAllowance(address,uint256)": {
        "details": "Atomically decreases the allowance granted to `spender` by the caller. This is an alternative to {approve} that can be used as a mitigation for problems described in {IERC20-approve}. Emits an {Approval} event indicating the updated allowance. Requirements: - `spender` cannot be the zero address. - `spender` must have allowance for the caller of at least `subtractedValue`."
      },
      "increaseAllowance(address,uint256)": {
        "details": "Atomically increases the allowance granted to `spender` by the caller. This is an alternative to {approve} that can be used as a mitigation for problems described in {IERC20-approve}. Emits an {Approval} event indicating the updated allowance. Requirements: - `spender` cannot be the zero address."
      },
      "name()": {
        "details": "Returns the name of the token."
      },
      "owner()": {
        "details": "Returns the address of the current owner."
      },
      "renounceOwnership()": {
        "details": "Leaves the contract without owner. It will not be possible to call `onlyOwner` functions anymore. Can only be called by the current owner. NOTE: Renouncing ownership will leave the contract without an owner, thereby removing any functionality that is only available to the owner."
      },
      "symbol()": {
        "details": "Returns the symbol of the token, usually a shorter version of the name."
      },
      "totalSupply()": {
        "details": "See {IERC20-totalSupply}."
      },
      "transfer(address,uint256)": {
        "details": "See {IERC20-transfer}. Requirements: - `to` cannot be the zero address. - the caller must have a balance of at least `amount`."
      },
      "transferFrom(address,address,uint256)": {
        "details": "See {IERC20-transferFrom}. Emits an {Approval} event indicating the updated allowance. This is not required by the EIP. See the note at the beginning of {ERC20}. NOTE: Does not update the allowance if the current allowance is the maximum `uint256`. Requirements: - `from` and `to` cannot be the zero address. - `from` must have a balance of at least `amount`. - the caller must have allowance for ``from``'s tokens of at least `amount`."
      },
      "transferOwnership(address)": {
        "details": "Transfers ownership of the contract to a new account (`newOwner`). Can only be called by the current owner."
      }
    },
    "version": 1
  },
  "userdoc": {
    "kind": "user",
    "methods": {},
    "version": 1
  }
}