{
  "contractName": "MarketMaker",
  "abi": [
    {
      "inputs": [
        {
          "internalType": "address",
          "name": "_bot",
          "type": "address"
        },
        {
          "internalType": "bytes32",
          "name": "_description",
          "type": "bytes32"
        },
        {
          "internalType": "address",
          "name": "_underlying",
          "type": "address"
        },
        {
          "internalType": "address",
          "name": "_exchange",
          "type": "address"
        },
        {
          "internalType": "address",
          "name": "_govToken",
          "type": "address"
        }
      ],
      "stateMutability": "nonpayable",
      "type": "constructor"
    },
    {
      "anonymous": false,
      "inputs": [
        {
          "indexed": true,
          "internalType": "address",
          "name": "_bot",
          "type": "address"
        },
        {
          "indexed": true,
          "internalType": "address",
          "name": "_exchange",
          "type": "address"
        },
        {
          "indexed": false,
          "internalType": "address",
          "name": "_holder",
          "type": "address"
        },
        {
          "indexed": false,
          "internalType": "uint256",
          "name": "_id",
          "type": "uint256"
        },
        {
          "indexed": false,
          "internalType": "uint256",
          "name": "_payoff",
          "type": "uint256"
        }
      ],
      "name": "Expire",
      "type": "event"
    },
    {
      "anonymous": false,
      "inputs": [
        {
          "indexed": true,
          "internalType": "address",
          "name": "_hedger",
          "type": "address"
        },
        {
          "indexed": true,
          "internalType": "address",
          "name": "_market",
          "type": "address"
        },
        {
          "indexed": false,
          "internalType": "bool",
          "name": "success",
          "type": "bool"
        },
        {
          "indexed": false,
          "internalType": "bytes",
          "name": "data",
          "type": "bytes"
        }
      ],
      "name": "HedgeResponse",
      "type": "event"
    },
    {
      "anonymous": false,
      "inputs": [
        {
          "indexed": true,
          "internalType": "address",
          "name": "_hedger",
          "type": "address"
        },
        {
          "indexed": true,
          "internalType": "address",
          "name": "_market",
          "type": "address"
        },
        {
          "indexed": false,
          "internalType": "uint256[]",
          "name": "amounts",
          "type": "uint256[]"
        }
      ],
      "name": "HedgeSwapResponse",
      "type": "event"
    },
    {
      "anonymous": false,
      "inputs": [
        {
          "indexed": false,
          "internalType": "address",
          "name": "_newBot",
          "type": "address"
        }
      ],
      "name": "ResetBotAddress",
      "type": "event"
    },
    {
      "anonymous": false,
      "inputs": [
        {
          "indexed": true,
          "internalType": "uint256",
          "name": "_parameterId",
          "type": "uint256"
        },
        {
          "indexed": false,
          "internalType": "uint256",
          "name": "_parameter",
          "type": "uint256"
        }
      ],
      "name": "ResetParameter",
      "type": "event"
    },
    {
      "anonymous": false,
      "inputs": [
        {
          "indexed": true,
          "internalType": "address",
          "name": "_exchange",
          "type": "address"
        },
        {
          "indexed": false,
          "internalType": "bool",
          "name": "_tradingAllowed",
          "type": "bool"
        }
      ],
      "name": "ResetTradingStatus",
      "type": "event"
    },
    {
      "anonymous": false,
      "inputs": [
        {
          "indexed": true,
          "internalType": "address",
          "name": "_purchaser",
          "type": "address"
        },
        {
          "indexed": true,
          "internalType": "address",
          "name": "_exchange",
          "type": "address"
        },
        {
          "indexed": false,
          "internalType": "uint256",
          "name": "_cost",
          "type": "uint256"
        },
        {
          "indexed": false,
          "internalType": "uint256",
          "name": "_volAmount",
          "type": "uint256"
        },
        {
          "indexed": false,
          "internalType": "bool",
          "name": "_isPurchase",
          "type": "bool"
        }
      ],
      "name": "TradeVolatility",
      "type": "event"
    },
    {
      "inputs": [],
      "name": "description",
      "outputs": [
        {
          "internalType": "bytes32",
          "name": "",
          "type": "bytes32"
        }
      ],
      "stateMutability": "view",
      "type": "function"
    },
    {
      "inputs": [],
      "name": "exchange",
      "outputs": [
        {
          "internalType": "address",
          "name": "",
          "type": "address"
        }
      ],
      "stateMutability": "view",
      "type": "function"
    },
    {
      "inputs": [],
      "name": "funding",
      "outputs": [
        {
          "internalType": "address",
          "name": "",
          "type": "address"
        }
      ],
      "stateMutability": "view",
      "type": "function"
    },
    {
      "inputs": [],
      "name": "govToken",
      "outputs": [
        {
          "internalType": "contract Moret",
          "name": "",
          "type": "address"
        }
      ],
      "stateMutability": "view",
      "type": "function"
    },
    {
      "inputs": [],
      "name": "hedgingBot",
      "outputs": [
        {
          "internalType": "address",
          "name": "",
          "type": "address"
        }
      ],
      "stateMutability": "view",
      "type": "function"
    },
    {
      "inputs": [],
      "name": "hedgingCost",
      "outputs": [
        {
          "internalType": "uint256",
          "name": "",
          "type": "uint256"
        }
      ],
      "stateMutability": "view",
      "type": "function"
    },
    {
      "inputs": [],
      "name": "loanInterest",
      "outputs": [
        {
          "internalType": "uint256",
          "name": "",
          "type": "uint256"
        }
      ],
      "stateMutability": "view",
      "type": "function"
    },
    {
      "inputs": [],
      "name": "underlying",
      "outputs": [
        {
          "internalType": "address",
          "name": "",
          "type": "address"
        }
      ],
      "stateMutability": "view",
      "type": "function"
    },
    {
      "inputs": [
        {
          "internalType": "address",
          "name": "_to",
          "type": "address"
        },
        {
          "internalType": "uint256",
          "name": "_amount",
          "type": "uint256"
        }
      ],
      "name": "settlePayment",
      "outputs": [],
      "stateMutability": "nonpayable",
      "type": "function"
    },
    {
      "inputs": [
        {
          "internalType": "address",
          "name": "_fromAddress",
          "type": "address"
        },
        {
          "internalType": "uint256",
          "name": "_fromAmt",
          "type": "uint256"
        },
        {
          "internalType": "address payable",
          "name": "_spender",
          "type": "address"
        },
        {
          "internalType": "bytes",
          "name": "_calldata",
          "type": "bytes"
        },
        {
          "internalType": "uint256",
          "name": "_gas",
          "type": "uint256"
        }
      ],
      "name": "trade",
      "outputs": [],
      "stateMutability": "nonpayable",
      "type": "function"
    },
    {
      "inputs": [
        {
          "internalType": "uint256",
          "name": "_paramId",
          "type": "uint256"
        },
        {
          "internalType": "uint256",
          "name": "_newParameter",
          "type": "uint256"
        }
      ],
      "name": "setParameter",
      "outputs": [],
      "stateMutability": "nonpayable",
      "type": "function"
    },
    {
      "inputs": [],
      "name": "getVolatilityChain",
      "outputs": [
        {
          "internalType": "contract VolatilityChain",
          "name": "",
          "type": "address"
        }
      ],
      "stateMutability": "view",
      "type": "function"
    }
  ],
  "bytecode": "0x61014060405260008055660aa87bee5380006001553480156200002157600080fd5b50604051620016cc380380620016cc833981810160405281019062000047919062000278565b8473ffffffffffffffffffffffffffffffffffffffff1660808173ffffffffffffffffffffffffffffffffffffffff16815250508360a081815250508073ffffffffffffffffffffffffffffffffffffffff1660c08173ffffffffffffffffffffffffffffffffffffffff168152505060c05173ffffffffffffffffffffffffffffffffffffffff1663cb4c86b76040518163ffffffff1660e01b8152600401602060405180830381865afa15801562000105573d6000803e3d6000fd5b505050506040513d601f19601f820116820180604052508101906200012b919062000345565b73ffffffffffffffffffffffffffffffffffffffff166101008173ffffffffffffffffffffffffffffffffffffffff16815250508173ffffffffffffffffffffffffffffffffffffffff1660e08173ffffffffffffffffffffffffffffffffffffffff16815250508273ffffffffffffffffffffffffffffffffffffffff166101208173ffffffffffffffffffffffffffffffffffffffff1681525050505050505062000377565b600080fd5b600073ffffffffffffffffffffffffffffffffffffffff82169050919050565b60006200020582620001d8565b9050919050565b6200021781620001f8565b81146200022357600080fd5b50565b60008151905062000237816200020c565b92915050565b6000819050919050565b62000252816200023d565b81146200025e57600080fd5b50565b600081519050620002728162000247565b92915050565b600080600080600060a08688031215620002975762000296620001d3565b5b6000620002a78882890162000226565b9550506020620002ba8882890162000261565b9450506040620002cd8882890162000226565b9350506060620002e08882890162000226565b9250506080620002f38882890162000226565b9150509295509295909350565b60006200030d82620001f8565b9050919050565b6200031f8162000300565b81146200032b57600080fd5b50565b6000815190506200033f8162000314565b92915050565b6000602082840312156200035e576200035d620001d3565b5b60006200036e848285016200032e565b91505092915050565b60805160a05160c05160e05161010051610120516112d4620003f86000396000818161081d01526108cd015260008181610735015261095001526000818161062f015261097401526000818161021d015281816103b501526108910152600061084101526000818161024101528181610327015261086501526112d46000f3fe608060405234801561001057600080fd5b50600436106100b45760003560e01c80637284e416116100715780637284e4161461016757806384d3d76714610185578063a7292ea4146101a3578063c0a16f6a146101c1578063cb4c86b7146101df578063d2f7265a146101fd576100b4565b806305268cff146100b957806312ee63f3146100d7578063315818d2146100f35780633e60e3481461010f57806343cee9191461012b5780636f307dc314610149575b600080fd5b6100c161021b565b6040516100ce9190610a15565b60405180910390f35b6100f160048036038101906100ec9190610a70565b61023f565b005b61010d60048036038101906101089190610b91565b610325565b005b61012960048036038101906101249190610c2b565b61062d565b005b610133610815565b6040516101409190610c7a565b60405180910390f35b61015161081b565b60405161015e9190610ca4565b60405180910390f35b61016f61083f565b60405161017c9190610cd8565b60405180910390f35b61018d610863565b60405161019a9190610ca4565b60405180910390f35b6101ab610887565b6040516101b89190610c7a565b60405180910390f35b6101c961088d565b6040516101d69190610d14565b60405180910390f35b6101e761094e565b6040516101f49190610ca4565b60405180910390f35b610205610972565b6040516102129190610ca4565b60405180910390f35b7f000000000000000000000000000000000000000000000000000000000000000081565b7f000000000000000000000000000000000000000000000000000000000000000073ffffffffffffffffffffffffffffffffffffffff163373ffffffffffffffffffffffffffffffffffffffff16146102cd576040517f08c379a00000000000000000000000000000000000000000000000000000000081526004016102c490610d8c565b60405180910390fd5b606582036102e157806000819055506102e9565b806001819055505b817f1f77a5f1218c5e380f0425a2e88a823d831b5f8906f5ab4db8b1565a36f780d7826040516103199190610c7a565b60405180910390a25050565b7f000000000000000000000000000000000000000000000000000000000000000073ffffffffffffffffffffffffffffffffffffffff163373ffffffffffffffffffffffffffffffffffffffff16146103b3576040517f08c379a00000000000000000000000000000000000000000000000000000000081526004016103aa90610df8565b60405180910390fd5b7f000000000000000000000000000000000000000000000000000000000000000073ffffffffffffffffffffffffffffffffffffffff1663d5fb0a2a856040518263ffffffff1660e01b815260040161040c9190610ca4565b602060405180830381865afa158015610429573d6000803e3d6000fd5b505050506040513d601f19601f8201168201806040525081019061044d9190610e50565b61048c576040517f08c379a000000000000000000000000000000000000000000000000000000000815260040161048390610ec9565b60405180910390fd5b8573ffffffffffffffffffffffffffffffffffffffff1663095ea7b385876040518363ffffffff1660e01b81526004016104c7929190610f0a565b6020604051808303816000875af11580156104e6573d6000803e3d6000fd5b505050506040513d601f19601f8201168201806040525081019061050a9190610e50565b610549576040517f08c379a000000000000000000000000000000000000000000000000000000000815260040161054090610f7f565b60405180910390fd5b6000808573ffffffffffffffffffffffffffffffffffffffff16838686604051610574929190610fde565b60006040518083038160008787f1925050503d80600081146105b2576040519150601f19603f3d011682016040523d82523d6000602084013e6105b7565b606091505b50915091503073ffffffffffffffffffffffffffffffffffffffff163373ffffffffffffffffffffffffffffffffffffffff167f234723957084f18c54f8bc86e2b86341d24d4412c847641cf02b474d93c8bcd7848460405161061b929190611096565b60405180910390a35050505050505050565b7f000000000000000000000000000000000000000000000000000000000000000073ffffffffffffffffffffffffffffffffffffffff163373ffffffffffffffffffffffffffffffffffffffff16146106bb576040517f08c379a00000000000000000000000000000000000000000000000000000000081526004016106b290611112565b60405180910390fd5b600073ffffffffffffffffffffffffffffffffffffffff168273ffffffffffffffffffffffffffffffffffffffff160361072a576040517f08c379a00000000000000000000000000000000000000000000000000000000081526004016107219061117e565b60405180910390fd5b6000811115610811577f000000000000000000000000000000000000000000000000000000000000000073ffffffffffffffffffffffffffffffffffffffff1663a9059cbb83836040518363ffffffff1660e01b815260040161078e92919061119e565b6020604051808303816000875af11580156107ad573d6000803e3d6000fd5b505050506040513d601f19601f820116820180604052508101906107d19190610e50565b610810576040517f08c379a000000000000000000000000000000000000000000000000000000000815260040161080790611213565b60405180910390fd5b5b5050565b60015481565b7f000000000000000000000000000000000000000000000000000000000000000081565b7f000000000000000000000000000000000000000000000000000000000000000081565b7f000000000000000000000000000000000000000000000000000000000000000081565b60005481565b60007f000000000000000000000000000000000000000000000000000000000000000073ffffffffffffffffffffffffffffffffffffffff166315dc2e9d7f00000000000000000000000000000000000000000000000000000000000000006040518263ffffffff1660e01b81526004016109089190610ca4565b602060405180830381865afa158015610925573d6000803e3d6000fd5b505050506040513d601f19601f820116820180604052508101906109499190611271565b905090565b7f000000000000000000000000000000000000000000000000000000000000000081565b7f000000000000000000000000000000000000000000000000000000000000000081565b600073ffffffffffffffffffffffffffffffffffffffff82169050919050565b6000819050919050565b60006109db6109d66109d184610996565b6109b6565b610996565b9050919050565b60006109ed826109c0565b9050919050565b60006109ff826109e2565b9050919050565b610a0f816109f4565b82525050565b6000602082019050610a2a6000830184610a06565b92915050565b600080fd5b600080fd5b6000819050919050565b610a4d81610a3a565b8114610a5857600080fd5b50565b600081359050610a6a81610a44565b92915050565b60008060408385031215610a8757610a86610a30565b5b6000610a9585828601610a5b565b9250506020610aa685828601610a5b565b9150509250929050565b6000610abb82610996565b9050919050565b610acb81610ab0565b8114610ad657600080fd5b50565b600081359050610ae881610ac2565b92915050565b6000610af982610996565b9050919050565b610b0981610aee565b8114610b1457600080fd5b50565b600081359050610b2681610b00565b92915050565b600080fd5b600080fd5b600080fd5b60008083601f840112610b5157610b50610b2c565b5b8235905067ffffffffffffffff811115610b6e57610b6d610b31565b5b602083019150836001820283011115610b8a57610b89610b36565b5b9250929050565b60008060008060008060a08789031215610bae57610bad610a30565b5b6000610bbc89828a01610ad9565b9650506020610bcd89828a01610a5b565b9550506040610bde89828a01610b17565b945050606087013567ffffffffffffffff811115610bff57610bfe610a35565b5b610c0b89828a01610b3b565b93509350506080610c1e89828a01610a5b565b9150509295509295509295565b60008060408385031215610c4257610c41610a30565b5b6000610c5085828601610ad9565b9250506020610c6185828601610a5b565b9150509250929050565b610c7481610a3a565b82525050565b6000602082019050610c8f6000830184610c6b565b92915050565b610c9e81610ab0565b82525050565b6000602082019050610cb96000830184610c95565b92915050565b6000819050919050565b610cd281610cbf565b82525050565b6000602082019050610ced6000830184610cc9565b92915050565b6000610cfe826109e2565b9050919050565b610d0e81610cf3565b82525050565b6000602082019050610d296000830184610d05565b92915050565b600082825260208201905092915050565b7f2d73704800000000000000000000000000000000000000000000000000000000600082015250565b6000610d76600483610d2f565b9150610d8182610d40565b602082019050919050565b60006020820190508181036000830152610da581610d69565b9050919050565b7f2d74480000000000000000000000000000000000000000000000000000000000600082015250565b6000610de2600383610d2f565b9150610ded82610dac565b602082019050919050565b60006020820190508181036000830152610e1181610dd5565b9050919050565b60008115159050919050565b610e2d81610e18565b8114610e3857600080fd5b50565b600081519050610e4a81610e24565b92915050565b600060208284031215610e6657610e65610a30565b5b6000610e7484828501610e3b565b91505092915050565b7f2d52000000000000000000000000000000000000000000000000000000000000600082015250565b6000610eb3600283610d2f565b9150610ebe82610e7d565b602082019050919050565b60006020820190508181036000830152610ee281610ea6565b9050919050565b6000610ef4826109e2565b9050919050565b610f0481610ee9565b82525050565b6000604082019050610f1f6000830185610efb565b610f2c6020830184610c6b565b9392505050565b7f2d617070726f7665000000000000000000000000000000000000000000000000600082015250565b6000610f69600883610d2f565b9150610f7482610f33565b602082019050919050565b60006020820190508181036000830152610f9881610f5c565b9050919050565b600081905092915050565b82818337600083830152505050565b6000610fc58385610f9f565b9350610fd2838584610faa565b82840190509392505050565b6000610feb828486610fb9565b91508190509392505050565b61100081610e18565b82525050565b600081519050919050565b600082825260208201905092915050565b60005b83811015611040578082015181840152602081019050611025565b60008484015250505050565b6000601f19601f8301169050919050565b600061106882611006565b6110728185611011565b9350611082818560208601611022565b61108b8161104c565b840191505092915050565b60006040820190506110ab6000830185610ff7565b81810360208301526110bd818461105d565b90509392505050565b7f2d6d6d7058000000000000000000000000000000000000000000000000000000600082015250565b60006110fc600583610d2f565b9150611107826110c6565b602082019050919050565b6000602082019050818103600083015261112b816110ef565b9050919050565b7f3061646472000000000000000000000000000000000000000000000000000000600082015250565b6000611168600583610d2f565b915061117382611132565b602082019050919050565b600060208201905081810360008301526111978161115b565b9050919050565b60006040820190506111b36000830185610c95565b6111c06020830184610c6b565b9392505050565b7f2d7472616e736665720000000000000000000000000000000000000000000000600082015250565b60006111fd600983610d2f565b9150611208826111c7565b602082019050919050565b6000602082019050818103600083015261122c816111f0565b9050919050565b600061123e82610ab0565b9050919050565b61124e81611233565b811461125957600080fd5b50565b60008151905061126b81611245565b92915050565b60006020828403121561128757611286610a30565b5b60006112958482850161125c565b9150509291505056fea26469706673582212205b75ba7a96b5ea0cf13c250f083e6007fe4a3f168fbd03a6594bff18a097de7a64736f6c63430008110033",
  "immutableReferences": {
    "15835": [
      {
        "length": 32,
        "start": 577
      },
      {
        "length": 32,
        "start": 807
      },
      {
        "length": 32,
        "start": 2149
      }
    ],
    "15837": [
      {
        "length": 32,
        "start": 2113
      }
    ],
    "15840": [
      {
        "length": 32,
        "start": 541
      },
      {
        "length": 32,
        "start": 949
      },
      {
        "length": 32,
        "start": 2193
      }
    ],
    "15842": [
      {
        "length": 32,
        "start": 1583
      },
      {
        "length": 32,
        "start": 2420
      }
    ],
    "15844": [
      {
        "length": 32,
        "start": 1845
      },
      {
        "length": 32,
        "start": 2384
      }
    ],
    "15846": [
      {
        "length": 32,
        "start": 2077
      },
      {
        "length": 32,
        "start": 2253
      }
    ]
  },
  "source": "// SPDX-License-Identifier: MIT\npragma solidity ^0.8.4;\n\nimport \"@openzeppelin/contracts/token/ERC20/ERC20.sol\";\nimport \"../interfaces/EOption.sol\";\nimport \"../governance/Moret.sol\";\nimport \"../VolatilityChain.sol\";\n\ncontract MarketMaker is  EOption{\n  address public immutable hedgingBot; // hedge bot addresses\n  bytes32 public immutable description; // description of pool and its hedging strategies\n  Moret public immutable govToken; // Records of which routes are available for hedging strategies\n  address public immutable exchange; // EXCHANGE could be able to extract payments from MarketMaker\n  address public immutable funding;\n  address public immutable underlying;\n\n  // hedging parameters\n  uint256 public loanInterest = 0; // Annualised interest rate for option pricing; default: 0%\n  uint256 public hedgingCost = 0.003e18; // Trading cost for hedging; default: 0.3%\n\n  // contructor. Arguments: pool tokens, volatility oracle, option vault and bot address\n  constructor(address _bot, bytes32 _description, address _underlying, address _exchange, address _govToken) {\n    hedgingBot = _bot;\n    description = _description;\n    govToken = Moret(_govToken);\n    funding = address(govToken.funding());\n    exchange = _exchange;\n    underlying = _underlying;\n    }  \n\n  // function for sending option payout, \n  // !!! only callable by the unique Exchange contract address !!!\n  function settlePayment(address _to, uint256 _amount) external {\n    require(msg.sender == exchange, '-mmpX');\n    require(_to != address(0), \"0addr\");\n    if(_amount > 0){\n      require(ERC20(funding).transfer(_to, _amount), '-transfer');}}\n\n  // functions to make market by hedging underlyings\n  // trade swaps/loans via allowed routes (in MoretBook) such as 1Inch. Arguments: amount to be paid, paid token, route via which the transaction happens, calldata for the transaction bytes data pre-compiled externally, gas allowed for the transaction\n  function trade(address _fromAddress, uint256 _fromAmt, address payable _spender, bytes calldata _calldata, uint256 _gas) external {\n    require(msg.sender == hedgingBot, '-tH');\n    require(govToken.existEligibleRoute(address(_spender)), '-R'); // only routes in the eligible route list are allowed\n    require(ERC20(_fromAddress).approve(_spender, _fromAmt), '-approve');\n    (bool success, bytes memory data) = _spender.call{gas: _gas}(_calldata);\n    emit HedgeResponse(msg.sender, address(this), success, data);}\n\n  // Reset functions for parameters\n  function setParameter(uint256 _paramId, uint256 _newParameter) external{\n    require(msg.sender == hedgingBot, '-spH');\n    if(_paramId == 101){loanInterest = _newParameter;}\n    else{hedgingCost=_newParameter;}\n    emit ResetParameter(_paramId, _newParameter);}\n\n  function getVolatilityChain() external view returns(VolatilityChain){\n    return govToken.getVolatilityChain(underlying);}\n}\n",
  "sourcePath": "/Users/mac/Documents/GitHub/moret/contracts/pools/MarketMaker.sol",
  "compiler": {
    "name": "solc",
    "version": "0.8.17+commit.8df45f5f.Emscripten.clang"
  },
  "schemaVersion": "3.4.3",
  "updatedAt": "2022-09-13T03:43:47.496Z",
  "devdoc": {
    "kind": "dev",
    "methods": {},
    "version": 1
  },
  "userdoc": {
    "kind": "user",
    "methods": {},
    "version": 1
  }
}