{
  "contractName": "MarketMakerFactory",
  "abi": [
    {
      "inputs": [
        {
          "internalType": "contract Moret",
          "name": "_govToken",
          "type": "address"
        },
        {
          "internalType": "contract Exchange",
          "name": "_exchange",
          "type": "address"
        }
      ],
      "stateMutability": "nonpayable",
      "type": "constructor"
    },
    {
      "anonymous": false,
      "inputs": [
        {
          "indexed": true,
          "internalType": "address",
          "name": "underlyingAddress",
          "type": "address"
        },
        {
          "indexed": false,
          "internalType": "address",
          "name": "marketMaker",
          "type": "address"
        }
      ],
      "name": "MarketMakerCreated",
      "type": "event"
    },
    {
      "inputs": [],
      "name": "count",
      "outputs": [
        {
          "internalType": "uint256",
          "name": "",
          "type": "uint256"
        }
      ],
      "stateMutability": "view",
      "type": "function",
      "constant": true
    },
    {
      "inputs": [],
      "name": "exchange",
      "outputs": [
        {
          "internalType": "contract Exchange",
          "name": "",
          "type": "address"
        }
      ],
      "stateMutability": "view",
      "type": "function",
      "constant": true
    },
    {
      "inputs": [],
      "name": "govToken",
      "outputs": [
        {
          "internalType": "contract Moret",
          "name": "",
          "type": "address"
        }
      ],
      "stateMutability": "view",
      "type": "function",
      "constant": true
    },
    {
      "inputs": [
        {
          "internalType": "bytes32",
          "name": "salt",
          "type": "bytes32"
        },
        {
          "internalType": "address",
          "name": "_hedgingBot",
          "type": "address"
        },
        {
          "internalType": "address",
          "name": "_underlying",
          "type": "address"
        },
        {
          "internalType": "bytes32",
          "name": "_description",
          "type": "bytes32"
        }
      ],
      "name": "computeAddress",
      "outputs": [
        {
          "internalType": "address",
          "name": "",
          "type": "address"
        }
      ],
      "stateMutability": "view",
      "type": "function",
      "constant": true
    },
    {
      "inputs": [
        {
          "internalType": "bytes32",
          "name": "salt",
          "type": "bytes32"
        },
        {
          "internalType": "address",
          "name": "_hedgingBot",
          "type": "address"
        },
        {
          "internalType": "address",
          "name": "_underlying",
          "type": "address"
        },
        {
          "internalType": "bytes32",
          "name": "_description",
          "type": "bytes32"
        }
      ],
      "name": "deploy",
      "outputs": [],
      "stateMutability": "nonpayable",
      "type": "function"
    },
    {
      "inputs": [
        {
          "internalType": "address",
          "name": "_hedgingBot",
          "type": "address"
        },
        {
          "internalType": "address",
          "name": "_underlying",
          "type": "address"
        },
        {
          "internalType": "bytes32",
          "name": "_description",
          "type": "bytes32"
        }
      ],
      "name": "getCreationCode",
      "outputs": [
        {
          "internalType": "bytes",
          "name": "",
          "type": "bytes"
        }
      ],
      "stateMutability": "view",
      "type": "function",
      "constant": true
    }
  ],
  "bytecode": "0x60c0604052600080553480156200001557600080fd5b50604051620029353803806200293583398181016040528101906200003b9190620002c1565b8073ffffffffffffffffffffffffffffffffffffffff168273ffffffffffffffffffffffffffffffffffffffff1663abff01106040518163ffffffff1660e01b8152600401602060405180830381865afa1580156200009e573d6000803e3d6000fd5b505050506040513d601f19601f82011682018060405250810190620000c491906200034d565b73ffffffffffffffffffffffffffffffffffffffff1663d2f7265a6040518163ffffffff1660e01b8152600401602060405180830381865afa1580156200010f573d6000803e3d6000fd5b505050506040513d601f19601f82011682018060405250810190620001359190620003b0565b73ffffffffffffffffffffffffffffffffffffffff16146200018e576040517f08c379a0000000000000000000000000000000000000000000000000000000008152600401620001859062000443565b60405180910390fd5b8173ffffffffffffffffffffffffffffffffffffffff1660808173ffffffffffffffffffffffffffffffffffffffff16815250508073ffffffffffffffffffffffffffffffffffffffff1660a08173ffffffffffffffffffffffffffffffffffffffff1681525050505062000465565b600080fd5b600073ffffffffffffffffffffffffffffffffffffffff82169050919050565b6000620002308262000203565b9050919050565b6000620002448262000223565b9050919050565b620002568162000237565b81146200026257600080fd5b50565b60008151905062000276816200024b565b92915050565b6000620002898262000223565b9050919050565b6200029b816200027c565b8114620002a757600080fd5b50565b600081519050620002bb8162000290565b92915050565b60008060408385031215620002db57620002da620001fe565b5b6000620002eb8582860162000265565b9250506020620002fe85828601620002aa565b9150509250929050565b6000620003158262000223565b9050919050565b620003278162000308565b81146200033357600080fd5b50565b60008151905062000347816200031c565b92915050565b600060208284031215620003665762000365620001fe565b5b6000620003768482850162000336565b91505092915050565b6200038a8162000223565b81146200039657600080fd5b50565b600081519050620003aa816200037f565b92915050565b600060208284031215620003c957620003c8620001fe565b5b6000620003d98482850162000399565b91505092915050565b600082825260208201905092915050565b7f7845786368616e67650000000000000000000000000000000000000000000000600082015250565b60006200042b600983620003e2565b91506200043882620003f3565b602082019050919050565b600060208201905081810360008301526200045e816200041c565b9050919050565b60805160a05161249c620004996000396000818161026001526102f60152600081816101630152610281015261249c6000f3fe60806040523480156200001157600080fd5b50600436106200006a5760003560e01c806305268cff146200006f57806306661abd1462000091578063a204a74a14620000b3578063aa579a4b14620000e9578063d2f7265a146200011f578063d6e495881462000141575b600080fd5b6200007962000161565b604051620000889190620005a5565b60405180910390f35b6200009b62000185565b604051620000aa9190620005dd565b60405180910390f35b620000d16004803603810190620000cb91906200067f565b6200018b565b604051620000e0919062000702565b60405180910390f35b6200010760048036038101906200010191906200071f565b620001bc565b60405162000116919062000815565b60405180910390f35b62000129620002f4565b6040516200013891906200085e565b60405180910390f35b6200015f60048036038101906200015991906200067f565b62000318565b005b7f000000000000000000000000000000000000000000000000000000000000000081565b60005481565b6000806200019b858585620001bc565b805190602001209050620001b1868230620003ae565b915050949350505050565b6060600073ffffffffffffffffffffffffffffffffffffffff168473ffffffffffffffffffffffffffffffffffffffff160362000230576040517f08c379a00000000000000000000000000000000000000000000000000000000081526004016200022790620008dc565b60405180910390fd5b60006040518060200162000244906200050c565b6020820181038252601f19601f820116604052509050808584867f00000000000000000000000000000000000000000000000000000000000000007f0000000000000000000000000000000000000000000000000000000000000000604051602001620002b69594939291906200090f565b604051602081830303815290604052604051602001620002d8929190620009ae565b6040516020818303038152906040529050809150509392505050565b7f000000000000000000000000000000000000000000000000000000000000000081565b60016000808282546200032c919062000a05565b92505081905550600062000342848484620001bc565b905060006200035460008784620003f4565b90508373ffffffffffffffffffffffffffffffffffffffff167fa42c882cff0238125f6988621e4215919ff5bdb8aa38abb02c0f10df9e7da5e7826040516200039e919062000702565b60405180910390a2505050505050565b60008060ff60f81b838686604051602001620003ce949392919062000b06565b6040516020818303038152906040528051906020012090508060001c9150509392505050565b600080844710156200043d576040517f08c379a0000000000000000000000000000000000000000000000000000000008152600401620004349062000bac565b60405180910390fd5b600083510362000484576040517f08c379a00000000000000000000000000000000000000000000000000000000081526004016200047b9062000c1e565b60405180910390fd5b8383516020850187f59050600073ffffffffffffffffffffffffffffffffffffffff168173ffffffffffffffffffffffffffffffffffffffff160362000501576040517f08c379a0000000000000000000000000000000000000000000000000000000008152600401620004f89062000c90565b60405180910390fd5b809150509392505050565b6117b48062000cb383390190565b600073ffffffffffffffffffffffffffffffffffffffff82169050919050565b6000819050919050565b6000620005656200055f62000559846200051a565b6200053a565b6200051a565b9050919050565b6000620005798262000544565b9050919050565b60006200058d826200056c565b9050919050565b6200059f8162000580565b82525050565b6000602082019050620005bc600083018462000594565b92915050565b6000819050919050565b620005d781620005c2565b82525050565b6000602082019050620005f46000830184620005cc565b92915050565b600080fd5b6000819050919050565b6200061481620005ff565b81146200062057600080fd5b50565b600081359050620006348162000609565b92915050565b600062000647826200051a565b9050919050565b62000659816200063a565b81146200066557600080fd5b50565b60008135905062000679816200064e565b92915050565b600080600080608085870312156200069c576200069b620005fa565b5b6000620006ac8782880162000623565b9450506020620006bf8782880162000668565b9350506040620006d28782880162000668565b9250506060620006e58782880162000623565b91505092959194509250565b620006fc816200063a565b82525050565b6000602082019050620007196000830184620006f1565b92915050565b6000806000606084860312156200073b576200073a620005fa565b5b60006200074b8682870162000668565b93505060206200075e8682870162000668565b9250506040620007718682870162000623565b9150509250925092565b600081519050919050565b600082825260208201905092915050565b60005b83811015620007b75780820151818401526020810190506200079a565b60008484015250505050565b6000601f19601f8301169050919050565b6000620007e1826200077b565b620007ed818562000786565b9350620007ff81856020860162000797565b6200080a81620007c3565b840191505092915050565b60006020820190508181036000830152620008318184620007d4565b905092915050565b600062000846826200056c565b9050919050565b620008588162000839565b82525050565b60006020820190506200087560008301846200084d565b92915050565b600082825260208201905092915050565b7f4d46304100000000000000000000000000000000000000000000000000000000600082015250565b6000620008c46004836200087b565b9150620008d1826200088c565b602082019050919050565b60006020820190508181036000830152620008f781620008b5565b9050919050565b6200090981620005ff565b82525050565b600060a082019050620009266000830188620006f1565b620009356020830187620008fe565b620009446040830186620006f1565b6200095360608301856200084d565b62000962608083018462000594565b9695505050505050565b600081905092915050565b600062000984826200077b565b6200099081856200096c565b9350620009a281856020860162000797565b80840191505092915050565b6000620009bc828562000977565b9150620009ca828462000977565b91508190509392505050565b7f4e487b7100000000000000000000000000000000000000000000000000000000600052601160045260246000fd5b600062000a1282620005c2565b915062000a1f83620005c2565b925082820190508082111562000a3a5762000a39620009d6565b5b92915050565b60007fff0000000000000000000000000000000000000000000000000000000000000082169050919050565b6000819050919050565b62000a8b62000a858262000a40565b62000a6c565b82525050565b60008160601b9050919050565b600062000aab8262000a91565b9050919050565b600062000abf8262000a9e565b9050919050565b62000adb62000ad5826200063a565b62000ab2565b82525050565b6000819050919050565b62000b0062000afa82620005ff565b62000ae1565b82525050565b600062000b14828762000a76565b60018201915062000b26828662000ac6565b60148201915062000b38828562000aeb565b60208201915062000b4a828462000aeb565b60208201915081905095945050505050565b7f437265617465323a20696e73756666696369656e742062616c616e6365000000600082015250565b600062000b94601d836200087b565b915062000ba18262000b5c565b602082019050919050565b6000602082019050818103600083015262000bc78162000b85565b9050919050565b7f437265617465323a2062797465636f6465206c656e677468206973207a65726f600082015250565b600062000c066020836200087b565b915062000c138262000bce565b602082019050919050565b6000602082019050818103600083015262000c398162000bf7565b9050919050565b7f437265617465323a204661696c6564206f6e206465706c6f7900000000000000600082015250565b600062000c786019836200087b565b915062000c858262000c40565b602082019050919050565b6000602082019050818103600083015262000cab8162000c69565b905091905056fe61014060405260008055660aa87bee5380006001553480156200002157600080fd5b50604051620017b4380380620017b48339818101604052810190620000479190620002e9565b8473ffffffffffffffffffffffffffffffffffffffff1660808173ffffffffffffffffffffffffffffffffffffffff16815250508360a081815250508073ffffffffffffffffffffffffffffffffffffffff1660c08173ffffffffffffffffffffffffffffffffffffffff168152505060c05173ffffffffffffffffffffffffffffffffffffffff1663abff01106040518163ffffffff1660e01b8152600401602060405180830381865afa15801562000105573d6000803e3d6000fd5b505050506040513d601f19601f820116820180604052508101906200012b9190620003b6565b73ffffffffffffffffffffffffffffffffffffffff1663cb4c86b76040518163ffffffff1660e01b8152600401602060405180830381865afa15801562000176573d6000803e3d6000fd5b505050506040513d601f19601f820116820180604052508101906200019c91906200042d565b73ffffffffffffffffffffffffffffffffffffffff166101008173ffffffffffffffffffffffffffffffffffffffff16815250508173ffffffffffffffffffffffffffffffffffffffff1660e08173ffffffffffffffffffffffffffffffffffffffff16815250508273ffffffffffffffffffffffffffffffffffffffff166101208173ffffffffffffffffffffffffffffffffffffffff168152505050505050506200045f565b600080fd5b600073ffffffffffffffffffffffffffffffffffffffff82169050919050565b6000620002768262000249565b9050919050565b620002888162000269565b81146200029457600080fd5b50565b600081519050620002a8816200027d565b92915050565b6000819050919050565b620002c381620002ae565b8114620002cf57600080fd5b50565b600081519050620002e381620002b8565b92915050565b600080600080600060a0868803121562000308576200030762000244565b5b6000620003188882890162000297565b95505060206200032b88828901620002d2565b94505060406200033e8882890162000297565b9350506060620003518882890162000297565b9250506080620003648882890162000297565b9150509295509295909350565b60006200037e8262000269565b9050919050565b620003908162000371565b81146200039c57600080fd5b50565b600081519050620003b08162000385565b92915050565b600060208284031215620003cf57620003ce62000244565b5b6000620003df848285016200039f565b91505092915050565b6000620003f58262000269565b9050919050565b6200040781620003e8565b81146200041357600080fd5b50565b6000815190506200042781620003fc565b92915050565b60006020828403121562000446576200044562000244565b5b6000620004568482850162000416565b91505092915050565b60805160a05160c05160e05161010051610120516112d4620004e06000396000818161081d01526108cd015260008181610735015261095001526000818161062f015261097401526000818161021d015281816103b501526108910152600061084101526000818161024101528181610327015261086501526112d46000f3fe608060405234801561001057600080fd5b50600436106100b45760003560e01c80637284e416116100715780637284e4161461016757806384d3d76714610185578063a7292ea4146101a3578063c0a16f6a146101c1578063cb4c86b7146101df578063d2f7265a146101fd576100b4565b806305268cff146100b957806312ee63f3146100d7578063315818d2146100f35780633e60e3481461010f57806343cee9191461012b5780636f307dc314610149575b600080fd5b6100c161021b565b6040516100ce9190610a15565b60405180910390f35b6100f160048036038101906100ec9190610a70565b61023f565b005b61010d60048036038101906101089190610b91565b610325565b005b61012960048036038101906101249190610c2b565b61062d565b005b610133610815565b6040516101409190610c7a565b60405180910390f35b61015161081b565b60405161015e9190610ca4565b60405180910390f35b61016f61083f565b60405161017c9190610cd8565b60405180910390f35b61018d610863565b60405161019a9190610ca4565b60405180910390f35b6101ab610887565b6040516101b89190610c7a565b60405180910390f35b6101c961088d565b6040516101d69190610d14565b60405180910390f35b6101e761094e565b6040516101f49190610ca4565b60405180910390f35b610205610972565b6040516102129190610ca4565b60405180910390f35b7f000000000000000000000000000000000000000000000000000000000000000081565b7f000000000000000000000000000000000000000000000000000000000000000073ffffffffffffffffffffffffffffffffffffffff163373ffffffffffffffffffffffffffffffffffffffff16146102cd576040517f08c379a00000000000000000000000000000000000000000000000000000000081526004016102c490610d8c565b60405180910390fd5b606582036102e157806000819055506102e9565b806001819055505b817f1f77a5f1218c5e380f0425a2e88a823d831b5f8906f5ab4db8b1565a36f780d7826040516103199190610c7a565b60405180910390a25050565b7f000000000000000000000000000000000000000000000000000000000000000073ffffffffffffffffffffffffffffffffffffffff163373ffffffffffffffffffffffffffffffffffffffff16146103b3576040517f08c379a00000000000000000000000000000000000000000000000000000000081526004016103aa90610df8565b60405180910390fd5b7f000000000000000000000000000000000000000000000000000000000000000073ffffffffffffffffffffffffffffffffffffffff1663d5fb0a2a856040518263ffffffff1660e01b815260040161040c9190610ca4565b602060405180830381865afa158015610429573d6000803e3d6000fd5b505050506040513d601f19601f8201168201806040525081019061044d9190610e50565b61048c576040517f08c379a000000000000000000000000000000000000000000000000000000000815260040161048390610ec9565b60405180910390fd5b8573ffffffffffffffffffffffffffffffffffffffff1663095ea7b385876040518363ffffffff1660e01b81526004016104c7929190610f0a565b6020604051808303816000875af11580156104e6573d6000803e3d6000fd5b505050506040513d601f19601f8201168201806040525081019061050a9190610e50565b610549576040517f08c379a000000000000000000000000000000000000000000000000000000000815260040161054090610f7f565b60405180910390fd5b6000808573ffffffffffffffffffffffffffffffffffffffff16838686604051610574929190610fde565b60006040518083038160008787f1925050503d80600081146105b2576040519150601f19603f3d011682016040523d82523d6000602084013e6105b7565b606091505b50915091503073ffffffffffffffffffffffffffffffffffffffff163373ffffffffffffffffffffffffffffffffffffffff167f234723957084f18c54f8bc86e2b86341d24d4412c847641cf02b474d93c8bcd7848460405161061b929190611096565b60405180910390a35050505050505050565b7f000000000000000000000000000000000000000000000000000000000000000073ffffffffffffffffffffffffffffffffffffffff163373ffffffffffffffffffffffffffffffffffffffff16146106bb576040517f08c379a00000000000000000000000000000000000000000000000000000000081526004016106b290611112565b60405180910390fd5b600073ffffffffffffffffffffffffffffffffffffffff168273ffffffffffffffffffffffffffffffffffffffff160361072a576040517f08c379a00000000000000000000000000000000000000000000000000000000081526004016107219061117e565b60405180910390fd5b6000811115610811577f000000000000000000000000000000000000000000000000000000000000000073ffffffffffffffffffffffffffffffffffffffff1663a9059cbb83836040518363ffffffff1660e01b815260040161078e92919061119e565b6020604051808303816000875af11580156107ad573d6000803e3d6000fd5b505050506040513d601f19601f820116820180604052508101906107d19190610e50565b610810576040517f08c379a000000000000000000000000000000000000000000000000000000000815260040161080790611213565b60405180910390fd5b5b5050565b60015481565b7f000000000000000000000000000000000000000000000000000000000000000081565b7f000000000000000000000000000000000000000000000000000000000000000081565b7f000000000000000000000000000000000000000000000000000000000000000081565b60005481565b60007f000000000000000000000000000000000000000000000000000000000000000073ffffffffffffffffffffffffffffffffffffffff166315dc2e9d7f00000000000000000000000000000000000000000000000000000000000000006040518263ffffffff1660e01b81526004016109089190610ca4565b602060405180830381865afa158015610925573d6000803e3d6000fd5b505050506040513d601f19601f820116820180604052508101906109499190611271565b905090565b7f000000000000000000000000000000000000000000000000000000000000000081565b7f000000000000000000000000000000000000000000000000000000000000000081565b600073ffffffffffffffffffffffffffffffffffffffff82169050919050565b6000819050919050565b60006109db6109d66109d184610996565b6109b6565b610996565b9050919050565b60006109ed826109c0565b9050919050565b60006109ff826109e2565b9050919050565b610a0f816109f4565b82525050565b6000602082019050610a2a6000830184610a06565b92915050565b600080fd5b600080fd5b6000819050919050565b610a4d81610a3a565b8114610a5857600080fd5b50565b600081359050610a6a81610a44565b92915050565b60008060408385031215610a8757610a86610a30565b5b6000610a9585828601610a5b565b9250506020610aa685828601610a5b565b9150509250929050565b6000610abb82610996565b9050919050565b610acb81610ab0565b8114610ad657600080fd5b50565b600081359050610ae881610ac2565b92915050565b6000610af982610996565b9050919050565b610b0981610aee565b8114610b1457600080fd5b50565b600081359050610b2681610b00565b92915050565b600080fd5b600080fd5b600080fd5b60008083601f840112610b5157610b50610b2c565b5b8235905067ffffffffffffffff811115610b6e57610b6d610b31565b5b602083019150836001820283011115610b8a57610b89610b36565b5b9250929050565b60008060008060008060a08789031215610bae57610bad610a30565b5b6000610bbc89828a01610ad9565b9650506020610bcd89828a01610a5b565b9550506040610bde89828a01610b17565b945050606087013567ffffffffffffffff811115610bff57610bfe610a35565b5b610c0b89828a01610b3b565b93509350506080610c1e89828a01610a5b565b9150509295509295509295565b60008060408385031215610c4257610c41610a30565b5b6000610c5085828601610ad9565b9250506020610c6185828601610a5b565b9150509250929050565b610c7481610a3a565b82525050565b6000602082019050610c8f6000830184610c6b565b92915050565b610c9e81610ab0565b82525050565b6000602082019050610cb96000830184610c95565b92915050565b6000819050919050565b610cd281610cbf565b82525050565b6000602082019050610ced6000830184610cc9565b92915050565b6000610cfe826109e2565b9050919050565b610d0e81610cf3565b82525050565b6000602082019050610d296000830184610d05565b92915050565b600082825260208201905092915050565b7f2d73704800000000000000000000000000000000000000000000000000000000600082015250565b6000610d76600483610d2f565b9150610d8182610d40565b602082019050919050565b60006020820190508181036000830152610da581610d69565b9050919050565b7f2d74480000000000000000000000000000000000000000000000000000000000600082015250565b6000610de2600383610d2f565b9150610ded82610dac565b602082019050919050565b60006020820190508181036000830152610e1181610dd5565b9050919050565b60008115159050919050565b610e2d81610e18565b8114610e3857600080fd5b50565b600081519050610e4a81610e24565b92915050565b600060208284031215610e6657610e65610a30565b5b6000610e7484828501610e3b565b91505092915050565b7f2d52000000000000000000000000000000000000000000000000000000000000600082015250565b6000610eb3600283610d2f565b9150610ebe82610e7d565b602082019050919050565b60006020820190508181036000830152610ee281610ea6565b9050919050565b6000610ef4826109e2565b9050919050565b610f0481610ee9565b82525050565b6000604082019050610f1f6000830185610efb565b610f2c6020830184610c6b565b9392505050565b7f2d617070726f7665000000000000000000000000000000000000000000000000600082015250565b6000610f69600883610d2f565b9150610f7482610f33565b602082019050919050565b60006020820190508181036000830152610f9881610f5c565b9050919050565b600081905092915050565b82818337600083830152505050565b6000610fc58385610f9f565b9350610fd2838584610faa565b82840190509392505050565b6000610feb828486610fb9565b91508190509392505050565b61100081610e18565b82525050565b600081519050919050565b600082825260208201905092915050565b60005b83811015611040578082015181840152602081019050611025565b60008484015250505050565b6000601f19601f8301169050919050565b600061106882611006565b6110728185611011565b9350611082818560208601611022565b61108b8161104c565b840191505092915050565b60006040820190506110ab6000830185610ff7565b81810360208301526110bd818461105d565b90509392505050565b7f2d6d6d7058000000000000000000000000000000000000000000000000000000600082015250565b60006110fc600583610d2f565b9150611107826110c6565b602082019050919050565b6000602082019050818103600083015261112b816110ef565b9050919050565b7f3061646472000000000000000000000000000000000000000000000000000000600082015250565b6000611168600583610d2f565b915061117382611132565b602082019050919050565b600060208201905081810360008301526111978161115b565b9050919050565b60006040820190506111b36000830185610c95565b6111c06020830184610c6b565b9392505050565b7f2d7472616e736665720000000000000000000000000000000000000000000000600082015250565b60006111fd600983610d2f565b9150611208826111c7565b602082019050919050565b6000602082019050818103600083015261122c816111f0565b9050919050565b600061123e82610ab0565b9050919050565b61124e81611233565b811461125957600080fd5b50565b60008151905061126b81611245565b92915050565b60006020828403121561128757611286610a30565b5b60006112958482850161125c565b9150509291505056fea2646970667358221220b00ee0f6b05c5a5c8cd81a200ef03896dee03d3040d2410e10c39cc60902b1d064736f6c63430008110033a264697066735822122069982d691ebe4e7d5dd617cfbc93731def606a35ba662bb879c30672a52feb3364736f6c63430008110033",
  "immutableReferences": {
    "16081": [
      {
        "length": 32,
        "start": 355
      },
      {
        "length": 32,
        "start": 641
      }
    ],
    "16084": [
      {
        "length": 32,
        "start": 608
      },
      {
        "length": 32,
        "start": 758
      }
    ]
  },
  "source": "// SPDX-License-Identifier: MIT\npragma solidity 0.8.17;\n\nimport \"@openzeppelin/contracts/utils/Create2.sol\";\nimport \"../governance/Moret.sol\";\nimport \"./MarketMaker.sol\";\nimport \"../Exchange.sol\";\n\ncontract MarketMakerFactory {\n    Moret public immutable govToken;\n    Exchange public immutable exchange;\n    uint256 public count = 0;\n\n    // events\n    event MarketMakerCreated(address indexed underlyingAddress, address marketMaker);\n\n    constructor(Moret _govToken, Exchange _exchange) {\n        require(_govToken.broker().exchange() == address(_exchange), 'xExchange'); // make sure exchange address is affliated/fixed with Moret\n        govToken = _govToken;\n        exchange = _exchange;\n        }\n\n    function computeAddress(bytes32 salt, address _hedgingBot, address _underlying, bytes32 _description) external view returns (address) {\n        bytes32 _bytecodeHash = keccak256(getCreationCode(_hedgingBot, _underlying, _description));\n        return Create2.computeAddress(\n                salt, //keccak256(abi.encodePacked(salt)),\n                _bytecodeHash,\n                address(this)\n            );}\n\n    function deploy(bytes32 salt, address _hedgingBot, address _underlying, bytes32 _description) external {\n        count += 1;\n        bytes memory _bytecode = getCreationCode(_hedgingBot, _underlying, _description);\n        address proxy = Create2.deploy(\n            0,\n            salt, //keccak256(abi.encodePacked(salt)),\n            _bytecode\n        );\n        emit MarketMakerCreated(_underlying, proxy);}\n\n    function getCreationCode(address _hedgingBot, address _underlying, bytes32 _description) public view returns(bytes memory){\n        require(_hedgingBot != address(0), 'MF0A');\n        bytes memory _marketMakerBytecode = type(MarketMaker).creationCode;\n        _marketMakerBytecode = abi.encodePacked(_marketMakerBytecode, abi.encode(_hedgingBot, _description, _underlying, exchange, govToken));\n        return _marketMakerBytecode;}\n    \n\n}",
  "sourcePath": "/Users/mac/Documents/GitHub/moret/contracts/pools/MarketMakerFactory.sol",
  "compiler": {
    "name": "solc",
    "version": "0.8.17+commit.8df45f5f.Emscripten.clang"
  },
  "schemaVersion": "3.4.3",
  "updatedAt": "2023-02-23T21:31:43.997Z",
  "networkType": "ethereum",
  "devdoc": {
    "kind": "dev",
    "methods": {},
    "version": 1
  },
  "userdoc": {
    "kind": "user",
    "methods": {},
    "version": 1
  }
}