{
  "contractName": "MarketMaker",
  "abi": [
    {
      "inputs": [
        {
          "internalType": "address",
          "name": "_bot",
          "type": "address"
        },
        {
          "internalType": "bytes32",
          "name": "_description",
          "type": "bytes32"
        },
        {
          "internalType": "address",
          "name": "_underlying",
          "type": "address"
        },
        {
          "internalType": "address",
          "name": "_exchange",
          "type": "address"
        },
        {
          "internalType": "address",
          "name": "_govToken",
          "type": "address"
        }
      ],
      "stateMutability": "nonpayable",
      "type": "constructor"
    },
    {
      "anonymous": false,
      "inputs": [
        {
          "indexed": true,
          "internalType": "address",
          "name": "_bot",
          "type": "address"
        },
        {
          "indexed": true,
          "internalType": "address",
          "name": "_exchange",
          "type": "address"
        },
        {
          "indexed": false,
          "internalType": "address",
          "name": "_holder",
          "type": "address"
        },
        {
          "indexed": false,
          "internalType": "uint256",
          "name": "_id",
          "type": "uint256"
        },
        {
          "indexed": false,
          "internalType": "uint256",
          "name": "_payoff",
          "type": "uint256"
        }
      ],
      "name": "Expire",
      "type": "event"
    },
    {
      "anonymous": false,
      "inputs": [
        {
          "indexed": true,
          "internalType": "address",
          "name": "_hedger",
          "type": "address"
        },
        {
          "indexed": true,
          "internalType": "address",
          "name": "_market",
          "type": "address"
        },
        {
          "indexed": false,
          "internalType": "bool",
          "name": "success",
          "type": "bool"
        },
        {
          "indexed": false,
          "internalType": "bytes",
          "name": "data",
          "type": "bytes"
        }
      ],
      "name": "HedgeResponse",
      "type": "event"
    },
    {
      "anonymous": false,
      "inputs": [
        {
          "indexed": true,
          "internalType": "address",
          "name": "_hedger",
          "type": "address"
        },
        {
          "indexed": true,
          "internalType": "address",
          "name": "_market",
          "type": "address"
        },
        {
          "indexed": false,
          "internalType": "uint256[]",
          "name": "amounts",
          "type": "uint256[]"
        }
      ],
      "name": "HedgeSwapResponse",
      "type": "event"
    },
    {
      "anonymous": false,
      "inputs": [
        {
          "indexed": true,
          "internalType": "address",
          "name": "_purchaser",
          "type": "address"
        },
        {
          "indexed": true,
          "internalType": "address",
          "name": "_exchange",
          "type": "address"
        },
        {
          "indexed": false,
          "internalType": "uint256",
          "name": "_id",
          "type": "uint256"
        },
        {
          "indexed": false,
          "internalType": "uint256",
          "name": "_premium",
          "type": "uint256"
        },
        {
          "indexed": false,
          "internalType": "uint256",
          "name": "_collateral",
          "type": "uint256"
        },
        {
          "indexed": false,
          "internalType": "bool",
          "name": "_inVol",
          "type": "bool"
        }
      ],
      "name": "NewOption",
      "type": "event"
    },
    {
      "anonymous": false,
      "inputs": [
        {
          "indexed": false,
          "internalType": "address",
          "name": "_newBot",
          "type": "address"
        }
      ],
      "name": "ResetBotAddress",
      "type": "event"
    },
    {
      "anonymous": false,
      "inputs": [
        {
          "indexed": true,
          "internalType": "uint256",
          "name": "_parameterId",
          "type": "uint256"
        },
        {
          "indexed": false,
          "internalType": "uint256",
          "name": "_parameter",
          "type": "uint256"
        }
      ],
      "name": "ResetParameter",
      "type": "event"
    },
    {
      "anonymous": false,
      "inputs": [
        {
          "indexed": true,
          "internalType": "address",
          "name": "_exchange",
          "type": "address"
        },
        {
          "indexed": false,
          "internalType": "bool",
          "name": "_tradingAllowed",
          "type": "bool"
        }
      ],
      "name": "ResetTradingStatus",
      "type": "event"
    },
    {
      "anonymous": false,
      "inputs": [
        {
          "indexed": true,
          "internalType": "address",
          "name": "_purchaser",
          "type": "address"
        },
        {
          "indexed": true,
          "internalType": "address",
          "name": "_exchange",
          "type": "address"
        },
        {
          "indexed": false,
          "internalType": "uint256",
          "name": "_cost",
          "type": "uint256"
        },
        {
          "indexed": false,
          "internalType": "uint256",
          "name": "_volAmount",
          "type": "uint256"
        },
        {
          "indexed": false,
          "internalType": "bool",
          "name": "_isPurchase",
          "type": "bool"
        }
      ],
      "name": "TradeVolatility",
      "type": "event"
    },
    {
      "inputs": [],
      "name": "description",
      "outputs": [
        {
          "internalType": "bytes32",
          "name": "",
          "type": "bytes32"
        }
      ],
      "stateMutability": "view",
      "type": "function"
    },
    {
      "inputs": [],
      "name": "exchange",
      "outputs": [
        {
          "internalType": "address",
          "name": "",
          "type": "address"
        }
      ],
      "stateMutability": "view",
      "type": "function"
    },
    {
      "inputs": [],
      "name": "funding",
      "outputs": [
        {
          "internalType": "contract ERC20",
          "name": "",
          "type": "address"
        }
      ],
      "stateMutability": "view",
      "type": "function"
    },
    {
      "inputs": [],
      "name": "govToken",
      "outputs": [
        {
          "internalType": "contract Moret",
          "name": "",
          "type": "address"
        }
      ],
      "stateMutability": "view",
      "type": "function"
    },
    {
      "inputs": [],
      "name": "hedgingBot",
      "outputs": [
        {
          "internalType": "address",
          "name": "",
          "type": "address"
        }
      ],
      "stateMutability": "view",
      "type": "function"
    },
    {
      "inputs": [],
      "name": "hedgingCost",
      "outputs": [
        {
          "internalType": "uint256",
          "name": "",
          "type": "uint256"
        }
      ],
      "stateMutability": "view",
      "type": "function"
    },
    {
      "inputs": [],
      "name": "loanInterest",
      "outputs": [
        {
          "internalType": "uint256",
          "name": "",
          "type": "uint256"
        }
      ],
      "stateMutability": "view",
      "type": "function"
    },
    {
      "inputs": [],
      "name": "underlying",
      "outputs": [
        {
          "internalType": "address",
          "name": "",
          "type": "address"
        }
      ],
      "stateMutability": "view",
      "type": "function"
    },
    {
      "inputs": [
        {
          "internalType": "address",
          "name": "_to",
          "type": "address"
        },
        {
          "internalType": "uint256",
          "name": "_amount",
          "type": "uint256"
        }
      ],
      "name": "settlePayment",
      "outputs": [],
      "stateMutability": "nonpayable",
      "type": "function"
    },
    {
      "inputs": [
        {
          "internalType": "address",
          "name": "_fromAddress",
          "type": "address"
        },
        {
          "internalType": "uint256",
          "name": "_fromAmt",
          "type": "uint256"
        },
        {
          "internalType": "address payable",
          "name": "_spender",
          "type": "address"
        },
        {
          "internalType": "bytes",
          "name": "_calldata",
          "type": "bytes"
        },
        {
          "internalType": "uint256",
          "name": "_gas",
          "type": "uint256"
        }
      ],
      "name": "trade",
      "outputs": [],
      "stateMutability": "nonpayable",
      "type": "function"
    },
    {
      "inputs": [
        {
          "internalType": "uint256",
          "name": "_newParameter",
          "type": "uint256"
        }
      ],
      "name": "setLoanInterest",
      "outputs": [],
      "stateMutability": "nonpayable",
      "type": "function"
    },
    {
      "inputs": [],
      "name": "getVolatilityChain",
      "outputs": [
        {
          "internalType": "contract VolatilityChain",
          "name": "",
          "type": "address"
        }
      ],
      "stateMutability": "view",
      "type": "function"
    }
  ],
  "bytecode": "0x60806040526000600655660aa87bee5380006007553480156200002157600080fd5b506040516200143e3803806200143e8339818101604052810190620000479190620002d5565b846000806101000a81548173ffffffffffffffffffffffffffffffffffffffff021916908373ffffffffffffffffffffffffffffffffffffffff1602179055508360018190555080600260006101000a81548173ffffffffffffffffffffffffffffffffffffffff021916908373ffffffffffffffffffffffffffffffffffffffff160217905550600260009054906101000a900473ffffffffffffffffffffffffffffffffffffffff1673ffffffffffffffffffffffffffffffffffffffff1663cb4c86b76040518163ffffffff1660e01b8152600401602060405180830381865afa1580156200013d573d6000803e3d6000fd5b505050506040513d601f19601f82011682018060405250810190620001639190620003a2565b600460006101000a81548173ffffffffffffffffffffffffffffffffffffffff021916908373ffffffffffffffffffffffffffffffffffffffff16021790555081600360006101000a81548173ffffffffffffffffffffffffffffffffffffffff021916908373ffffffffffffffffffffffffffffffffffffffff16021790555082600560006101000a81548173ffffffffffffffffffffffffffffffffffffffff021916908373ffffffffffffffffffffffffffffffffffffffff1602179055505050505050620003d4565b600080fd5b600073ffffffffffffffffffffffffffffffffffffffff82169050919050565b6000620002628262000235565b9050919050565b620002748162000255565b81146200028057600080fd5b50565b600081519050620002948162000269565b92915050565b6000819050919050565b620002af816200029a565b8114620002bb57600080fd5b50565b600081519050620002cf81620002a4565b92915050565b600080600080600060a08688031215620002f457620002f362000230565b5b6000620003048882890162000283565b95505060206200031788828901620002be565b94505060406200032a8882890162000283565b93505060606200033d8882890162000283565b9250506080620003508882890162000283565b9150509295509295909350565b60006200036a8262000255565b9050919050565b6200037c816200035d565b81146200038857600080fd5b50565b6000815190506200039c8162000371565b92915050565b600060208284031215620003bb57620003ba62000230565b5b6000620003cb848285016200038b565b91505092915050565b61105a80620003e46000396000f3fe608060405234801561001057600080fd5b50600436106100b45760003560e01c80637284e416116100715780637284e4161461016757806384d3d76714610185578063a7292ea4146101a3578063c0a16f6a146101c1578063cb4c86b7146101df578063d2f7265a146101fd576100b4565b806305268cff146100b95780630c9eba2f146100d7578063315818d2146100f35780633e60e3481461010f57806343cee9191461012b5780636f307dc314610149575b600080fd5b6100c161021b565b6040516100ce9190610919565b60405180910390f35b6100f160048036038101906100ec9190610974565b610241565b005b61010d60048036038101906101089190610a82565b610312565b005b61012960048036038101906101249190610b1c565b6105e6565b005b61013361072d565b6040516101409190610b6b565b60405180910390f35b610151610733565b60405161015e9190610b95565b60405180910390f35b61016f610759565b60405161017c9190610bc9565b60405180910390f35b61018d61075f565b60405161019a9190610b95565b60405180910390f35b6101ab610783565b6040516101b89190610b6b565b60405180910390f35b6101c9610789565b6040516101d69190610c05565b60405180910390f35b6101e761084e565b6040516101f49190610c41565b60405180910390f35b610205610874565b6040516102129190610b95565b60405180910390f35b600260009054906101000a900473ffffffffffffffffffffffffffffffffffffffff1681565b60008054906101000a900473ffffffffffffffffffffffffffffffffffffffff1673ffffffffffffffffffffffffffffffffffffffff163373ffffffffffffffffffffffffffffffffffffffff16146102cf576040517f08c379a00000000000000000000000000000000000000000000000000000000081526004016102c690610cb9565b60405180910390fd5b8060068190555060657f1f77a5f1218c5e380f0425a2e88a823d831b5f8906f5ab4db8b1565a36f780d7826040516103079190610b6b565b60405180910390a250565b60008054906101000a900473ffffffffffffffffffffffffffffffffffffffff1673ffffffffffffffffffffffffffffffffffffffff163373ffffffffffffffffffffffffffffffffffffffff16146103a0576040517f08c379a000000000000000000000000000000000000000000000000000000000815260040161039790610cb9565b60405180910390fd5b600260009054906101000a900473ffffffffffffffffffffffffffffffffffffffff1673ffffffffffffffffffffffffffffffffffffffff1663d5fb0a2a856040518263ffffffff1660e01b81526004016103fb9190610b95565b602060405180830381865afa158015610418573d6000803e3d6000fd5b505050506040513d601f19601f8201168201806040525081019061043c9190610d11565b61047b576040517f08c379a000000000000000000000000000000000000000000000000000000000815260040161047290610d8a565b60405180910390fd5b8573ffffffffffffffffffffffffffffffffffffffff1663095ea7b385876040518363ffffffff1660e01b81526004016104b6929190610dcb565b6020604051808303816000875af11580156104d5573d6000803e3d6000fd5b505050506040513d601f19601f820116820180604052508101906104f99190610d11565b61050257600080fd5b6000808573ffffffffffffffffffffffffffffffffffffffff1683868660405161052d929190610e33565b60006040518083038160008787f1925050503d806000811461056b576040519150601f19603f3d011682016040523d82523d6000602084013e610570565b606091505b50915091503073ffffffffffffffffffffffffffffffffffffffff163373ffffffffffffffffffffffffffffffffffffffff167f234723957084f18c54f8bc86e2b86341d24d4412c847641cf02b474d93c8bcd784846040516105d4929190610ef4565b60405180910390a35050505050505050565b600360009054906101000a900473ffffffffffffffffffffffffffffffffffffffff1673ffffffffffffffffffffffffffffffffffffffff163373ffffffffffffffffffffffffffffffffffffffff1614610676576040517f08c379a000000000000000000000000000000000000000000000000000000000815260040161066d90610f70565b60405180910390fd5b600081111561072957600460009054906101000a900473ffffffffffffffffffffffffffffffffffffffff1673ffffffffffffffffffffffffffffffffffffffff1663a9059cbb83836040518363ffffffff1660e01b81526004016106dc929190610f90565b6020604051808303816000875af11580156106fb573d6000803e3d6000fd5b505050506040513d601f19601f8201168201806040525081019061071f9190610d11565b61072857600080fd5b5b5050565b60075481565b600560009054906101000a900473ffffffffffffffffffffffffffffffffffffffff1681565b60015481565b60008054906101000a900473ffffffffffffffffffffffffffffffffffffffff1681565b60065481565b6000600260009054906101000a900473ffffffffffffffffffffffffffffffffffffffff1673ffffffffffffffffffffffffffffffffffffffff166315dc2e9d600560009054906101000a900473ffffffffffffffffffffffffffffffffffffffff166040518263ffffffff1660e01b81526004016108089190610b95565b602060405180830381865afa158015610825573d6000803e3d6000fd5b505050506040513d601f19601f820116820180604052508101906108499190610ff7565b905090565b600460009054906101000a900473ffffffffffffffffffffffffffffffffffffffff1681565b600360009054906101000a900473ffffffffffffffffffffffffffffffffffffffff1681565b600073ffffffffffffffffffffffffffffffffffffffff82169050919050565b6000819050919050565b60006108df6108da6108d58461089a565b6108ba565b61089a565b9050919050565b60006108f1826108c4565b9050919050565b6000610903826108e6565b9050919050565b610913816108f8565b82525050565b600060208201905061092e600083018461090a565b92915050565b600080fd5b600080fd5b6000819050919050565b6109518161093e565b811461095c57600080fd5b50565b60008135905061096e81610948565b92915050565b60006020828403121561098a57610989610934565b5b60006109988482850161095f565b91505092915050565b60006109ac8261089a565b9050919050565b6109bc816109a1565b81146109c757600080fd5b50565b6000813590506109d9816109b3565b92915050565b60006109ea8261089a565b9050919050565b6109fa816109df565b8114610a0557600080fd5b50565b600081359050610a17816109f1565b92915050565b600080fd5b600080fd5b600080fd5b60008083601f840112610a4257610a41610a1d565b5b8235905067ffffffffffffffff811115610a5f57610a5e610a22565b5b602083019150836001820283011115610a7b57610a7a610a27565b5b9250929050565b60008060008060008060a08789031215610a9f57610a9e610934565b5b6000610aad89828a016109ca565b9650506020610abe89828a0161095f565b9550506040610acf89828a01610a08565b945050606087013567ffffffffffffffff811115610af057610aef610939565b5b610afc89828a01610a2c565b93509350506080610b0f89828a0161095f565b9150509295509295509295565b60008060408385031215610b3357610b32610934565b5b6000610b41858286016109ca565b9250506020610b528582860161095f565b9150509250929050565b610b658161093e565b82525050565b6000602082019050610b806000830184610b5c565b92915050565b610b8f816109a1565b82525050565b6000602082019050610baa6000830184610b86565b92915050565b6000819050919050565b610bc381610bb0565b82525050565b6000602082019050610bde6000830184610bba565b92915050565b6000610bef826108e6565b9050919050565b610bff81610be4565b82525050565b6000602082019050610c1a6000830184610bf6565b92915050565b6000610c2b826108e6565b9050919050565b610c3b81610c20565b82525050565b6000602082019050610c566000830184610c32565b92915050565b600082825260208201905092915050565b7f2d48000000000000000000000000000000000000000000000000000000000000600082015250565b6000610ca3600283610c5c565b9150610cae82610c6d565b602082019050919050565b60006020820190508181036000830152610cd281610c96565b9050919050565b60008115159050919050565b610cee81610cd9565b8114610cf957600080fd5b50565b600081519050610d0b81610ce5565b92915050565b600060208284031215610d2757610d26610934565b5b6000610d3584828501610cfc565b91505092915050565b7f2d52000000000000000000000000000000000000000000000000000000000000600082015250565b6000610d74600283610c5c565b9150610d7f82610d3e565b602082019050919050565b60006020820190508181036000830152610da381610d67565b9050919050565b6000610db5826108e6565b9050919050565b610dc581610daa565b82525050565b6000604082019050610de06000830185610dbc565b610ded6020830184610b5c565b9392505050565b600081905092915050565b82818337600083830152505050565b6000610e1a8385610df4565b9350610e27838584610dff565b82840190509392505050565b6000610e40828486610e0e565b91508190509392505050565b610e5581610cd9565b82525050565b600081519050919050565b600082825260208201905092915050565b60005b83811015610e95578082015181840152602081019050610e7a565b83811115610ea4576000848401525b50505050565b6000601f19601f8301169050919050565b6000610ec682610e5b565b610ed08185610e66565b9350610ee0818560208601610e77565b610ee981610eaa565b840191505092915050565b6000604082019050610f096000830185610e4c565b8181036020830152610f1b8184610ebb565b90509392505050565b7f2d58000000000000000000000000000000000000000000000000000000000000600082015250565b6000610f5a600283610c5c565b9150610f6582610f24565b602082019050919050565b60006020820190508181036000830152610f8981610f4d565b9050919050565b6000604082019050610fa56000830185610b86565b610fb26020830184610b5c565b9392505050565b6000610fc4826109a1565b9050919050565b610fd481610fb9565b8114610fdf57600080fd5b50565b600081519050610ff181610fcb565b92915050565b60006020828403121561100d5761100c610934565b5b600061101b84828501610fe2565b9150509291505056fea2646970667358221220d0a8c3fef7e3a6f08554b7cdfe7980223b04557dc6e69d0ec8210baa262f665164736f6c634300080e0033",
  "immutableReferences": {},
  "source": "// SPDX-License-Identifier: MIT\npragma solidity ^0.8.4;\n\nimport \"@openzeppelin/contracts/token/ERC20/ERC20.sol\";\nimport \"../interfaces/EOption.sol\";\nimport \"../governance/Moret.sol\";\nimport \"../VolatilityChain.sol\";\n\ncontract MarketMaker is  EOption{\n  address public  hedgingBot; // hedge bot addresses\n  bytes32 public  description; // description of pool and its hedging strategies\n  Moret public  govToken; // Records of which routes are available for hedging strategies\n  address public exchange; // EXCHANGE could be able to extract payments from MarketMaker\n  ERC20 public funding;\n  address public underlying;\n\n  // hedging parameters\n  uint256 public loanInterest = 0; // Annualised interest rate for option pricing; default: 0%\n  uint256 public hedgingCost = 0.003e18; // Trading cost for hedging; default: 0.3%\n\n  // contructor. Arguments: pool tokens, volatility oracle, option vault and bot address\n  constructor(address _bot, bytes32 _description, address _underlying, address _exchange, address _govToken) {\n    hedgingBot = _bot;\n    description = _description;\n    govToken = Moret(_govToken);\n    funding = govToken.funding();\n    exchange = _exchange;\n    underlying = _underlying;\n    }  \n\n  // function for sending option payout, only callable by the unique Exchange contract\n  function settlePayment(address _to, uint256 _amount) external {\n    require(msg.sender == exchange,'-X');\n    if(_amount > 0){\n      require(funding.transfer(_to, _amount));}}\n\n  // functions to make market by hedging underlyings\n  // trade swaps/loans via allowed routes (in MoretBook) such as 1Inch. Arguments: amount to be paid, paid token, route via which the transaction happens, calldata for the transaction bytes data pre-compiled externally, gas allowed for the transaction\n  function trade(address _fromAddress, uint256 _fromAmt, address payable _spender, bytes calldata _calldata, uint256 _gas) external {\n    require(msg.sender == hedgingBot, '-H');\n    require(govToken.existEligibleRoute(address(_spender)), '-R');\n    require(ERC20(_fromAddress).approve(_spender, _fromAmt));\n    (bool success, bytes memory data) = _spender.call{gas: _gas}(_calldata);\n    emit HedgeResponse(msg.sender, address(this), success, data);}\n\n  // Reset functions for parameters\n  function setLoanInterest(uint256 _newParameter) external{\n    require(msg.sender == hedgingBot, '-H');\n    loanInterest = _newParameter;\n    emit ResetParameter(101, _newParameter);}\n\n  function getVolatilityChain() external view returns(VolatilityChain){\n    return govToken.getVolatilityChain(underlying);}\n}\n",
  "sourcePath": "/Users/mac/Documents/GitHub/moret/contracts/pools/MarketMaker.sol",
  "compiler": {
    "name": "solc",
    "version": "0.8.14+commit.80d49f37.Emscripten.clang"
  },
  "schemaVersion": "3.4.3",
  "updatedAt": "2022-06-12T14:10:12.143Z",
  "devdoc": {
    "kind": "dev",
    "methods": {},
    "version": 1
  },
  "userdoc": {
    "kind": "user",
    "methods": {},
    "version": 1
  }
}