{
  "contractName": "MarketLib",
  "abi": [
    {
      "inputs": [],
      "name": "DECIMALS",
      "outputs": [
        {
          "internalType": "uint256",
          "name": "",
          "type": "uint256"
        }
      ],
      "stateMutability": "view",
      "type": "function",
      "constant": true
    },
    {
      "inputs": [],
      "name": "LTV_DECIMALS",
      "outputs": [
        {
          "internalType": "uint256",
          "name": "",
          "type": "uint256"
        }
      ],
      "stateMutability": "view",
      "type": "function",
      "constant": true
    },
    {
      "inputs": [
        {
          "internalType": "contract ERC20",
          "name": "_token",
          "type": "ERC20"
        },
        {
          "internalType": "address",
          "name": "_accountAddress",
          "type": "address"
        }
      ],
      "name": "balanceDef",
      "outputs": [
        {
          "internalType": "uint256",
          "name": "",
          "type": "uint256"
        }
      ],
      "stateMutability": "view",
      "type": "function",
      "constant": true
    },
    {
      "inputs": [
        {
          "internalType": "uint256",
          "name": "_rawData",
          "type": "uint256"
        },
        {
          "internalType": "uint256",
          "name": "_rawDataDecimals",
          "type": "uint256"
        }
      ],
      "name": "toWei",
      "outputs": [
        {
          "internalType": "uint256",
          "name": "_data",
          "type": "uint256"
        }
      ],
      "stateMutability": "pure",
      "type": "function",
      "constant": true
    },
    {
      "inputs": [
        {
          "internalType": "uint256",
          "name": "_rawData",
          "type": "uint256"
        },
        {
          "internalType": "uint256",
          "name": "_rawDataDecimals",
          "type": "uint256"
        }
      ],
      "name": "toDecimals",
      "outputs": [
        {
          "internalType": "uint256",
          "name": "_data",
          "type": "uint256"
        }
      ],
      "stateMutability": "pure",
      "type": "function",
      "constant": true
    },
    {
      "inputs": [
        {
          "internalType": "int256",
          "name": "_amount",
          "type": "int256"
        },
        {
          "internalType": "uint256",
          "name": "_tokenDecimals",
          "type": "uint256"
        }
      ],
      "name": "toDecimalsInt",
      "outputs": [
        {
          "internalType": "int256",
          "name": "_newAmount",
          "type": "int256"
        }
      ],
      "stateMutability": "pure",
      "type": "function",
      "constant": true
    },
    {
      "inputs": [
        {
          "internalType": "int256",
          "name": "_underlyingAmt",
          "type": "int256"
        },
        {
          "internalType": "int256",
          "name": "_fundingAmt",
          "type": "int256"
        },
        {
          "internalType": "address",
          "name": "_underlyingAddress",
          "type": "address"
        },
        {
          "internalType": "address",
          "name": "_fundingAddress",
          "type": "address"
        }
      ],
      "name": "cleanTradeAmounts",
      "outputs": [
        {
          "internalType": "uint256",
          "name": "_fromAmount",
          "type": "uint256"
        },
        {
          "internalType": "uint256",
          "name": "_toAmount",
          "type": "uint256"
        },
        {
          "internalType": "address",
          "name": "_fromAddress",
          "type": "address"
        },
        {
          "internalType": "address",
          "name": "_toAddress",
          "type": "address"
        }
      ],
      "stateMutability": "pure",
      "type": "function",
      "constant": true
    },
    {
      "inputs": [
        {
          "internalType": "contract MarketMaker",
          "name": "_market",
          "type": "MarketMaker"
        },
        {
          "internalType": "uint256",
          "name": "_price",
          "type": "uint256"
        }
      ],
      "name": "getGrossCapital",
      "outputs": [
        {
          "internalType": "uint256",
          "name": "",
          "type": "uint256"
        }
      ],
      "stateMutability": "view",
      "type": "function",
      "constant": true
    }
  ],
  "bytecode": "0x610f11610053600b82828239805160001a607314610046577f4e487b7100000000000000000000000000000000000000000000000000000000600052600060045260246000fd5b30600052607381538281f3fe73000000000000000000000000000000000000000030146080604052600436106100925760003560e01c8063983d3bb811610065578063983d3bb8146101485780639d38d06414610178578063e74207d614610196578063ed1bb199146101c657610092565b8063174e20e6146100975780632e0f2625146100c757806339a823d8146100e5578063865c998414610115575b600080fd5b6100b160048036038101906100ac91906106dd565b6101f6565b6040516100be919061072c565b60405180910390f35b6100cf610266565b6040516100dc919061072c565b60405180910390f35b6100ff60048036038101906100fa919061077d565b61026b565b60405161010c91906107cc565b60405180910390f35b61012f600480360381019061012a9190610845565b6102c9565b60405161013f94939291906108bb565b60405180910390f35b610162600480360381019061015d919061093e565b61033d565b60405161016f919061072c565b60405180910390f35b61018061043b565b60405161018d919061072c565b60405180910390f35b6101b060048036038101906101ab91906109bc565b610440565b6040516101bd919061072c565b60405180910390f35b6101e060048036038101906101db91906106dd565b6105ca565b6040516101ed919061072c565b60405180910390f35b6000829050816012111561022f578160126102119190610a2b565b600a61021d9190610b92565b836102289190610c0c565b9050610260565b816012101561025f576012826102459190610a2b565b600a6102519190610b92565b8361025c9190610c3d565b90505b5b92915050565b601281565b600082905060008313156102925761028b61028684846101f6565b610635565b90506102c3565b60008312156102c2576102b66102b1846102ab90610c7f565b846101f6565b610635565b6102bf90610c7f565b90505b5b92915050565b60008060008060009350600092508491508590506000881380156102ed5750600087125b1561030657866102fc90610c7f565b9350879250610332565b6000881280156103165750600087135b15610331578761032590610c7f565b93508591508692508490505b5b945094509450949050565b60006104338373ffffffffffffffffffffffffffffffffffffffff166370a08231846040518263ffffffff1660e01b815260040161037b9190610cd6565b602060405180830381865afa158015610398573d6000803e3d6000fd5b505050506040513d601f19601f820116820180604052508101906103bc9190610d06565b8473ffffffffffffffffffffffffffffffffffffffff1663313ce5676040518163ffffffff1660e01b8152600401602060405180830381865afa158015610407573d6000803e3d6000fd5b505050506040513d601f19601f8201168201806040525081019061042b9190610d6c565b60ff166105ca565b905092915050565b600481565b6000806104bb8473ffffffffffffffffffffffffffffffffffffffff16636f307dc36040518163ffffffff1660e01b8152600401602060405180830381865afa158015610491573d6000803e3d6000fd5b505050506040513d601f19601f820116820180604052508101906104b59190610dae565b8561033d565b905060006105378573ffffffffffffffffffffffffffffffffffffffff1663cb4c86b76040518163ffffffff1660e01b8152600401602060405180830381865afa15801561050d573d6000803e3d6000fd5b505050506040513d601f19601f820116820180604052508101906105319190610dae565b8661033d565b90508173__MathLib_______________________________63fed4a0f39091866040518363ffffffff1660e01b8152600401610574929190610ddb565b602060405180830381865af4158015610591573d6000803e3d6000fd5b505050506040513d601f19601f820116820180604052508101906105b59190610d06565b816105c09190610e04565b9250505092915050565b600082905081601211156105ff578160126105e59190610a2b565b600a6105f19190610b92565b836105fc9190610c3d565b90505b816012101561062f576012826106159190610a2b565b600a6106219190610b92565b8361062c9190610c0c565b90505b92915050565b60007f7fffffffffffffffffffffffffffffffffffffffffffffffffffffffffffffff82111561069a576040517f08c379a000000000000000000000000000000000000000000000000000000000815260040161069190610ebb565b60405180910390fd5b819050919050565b600080fd5b6000819050919050565b6106ba816106a7565b81146106c557600080fd5b50565b6000813590506106d7816106b1565b92915050565b600080604083850312156106f4576106f36106a2565b5b6000610702858286016106c8565b9250506020610713858286016106c8565b9150509250929050565b610726816106a7565b82525050565b6000602082019050610741600083018461071d565b92915050565b6000819050919050565b61075a81610747565b811461076557600080fd5b50565b60008135905061077781610751565b92915050565b60008060408385031215610794576107936106a2565b5b60006107a285828601610768565b92505060206107b3858286016106c8565b9150509250929050565b6107c681610747565b82525050565b60006020820190506107e160008301846107bd565b92915050565b600073ffffffffffffffffffffffffffffffffffffffff82169050919050565b6000610812826107e7565b9050919050565b61082281610807565b811461082d57600080fd5b50565b60008135905061083f81610819565b92915050565b6000806000806080858703121561085f5761085e6106a2565b5b600061086d87828801610768565b945050602061087e87828801610768565b935050604061088f87828801610830565b92505060606108a087828801610830565b91505092959194509250565b6108b581610807565b82525050565b60006080820190506108d0600083018761071d565b6108dd602083018661071d565b6108ea60408301856108ac565b6108f760608301846108ac565b95945050505050565b600061090b82610807565b9050919050565b61091b81610900565b811461092657600080fd5b50565b60008135905061093881610912565b92915050565b60008060408385031215610955576109546106a2565b5b600061096385828601610929565b925050602061097485828601610830565b9150509250929050565b600061098982610807565b9050919050565b6109998161097e565b81146109a457600080fd5b50565b6000813590506109b681610990565b92915050565b600080604083850312156109d3576109d26106a2565b5b60006109e1858286016109a7565b92505060206109f2858286016106c8565b9150509250929050565b7f4e487b7100000000000000000000000000000000000000000000000000000000600052601160045260246000fd5b6000610a36826106a7565b9150610a41836106a7565b9250828203905081811115610a5957610a586109fc565b5b92915050565b60008160011c9050919050565b6000808291508390505b6001851115610ab657808604811115610a9257610a916109fc565b5b6001851615610aa15780820291505b8081029050610aaf85610a5f565b9450610a76565b94509492505050565b600082610acf5760019050610b8b565b81610add5760009050610b8b565b8160018114610af35760028114610afd57610b2c565b6001915050610b8b565b60ff841115610b0f57610b0e6109fc565b5b8360020a915084821115610b2657610b256109fc565b5b50610b8b565b5060208310610133831016604e8410600b8410161715610b615782820a905083811115610b5c57610b5b6109fc565b5b610b8b565b610b6e8484846001610a6c565b92509050818404811115610b8557610b846109fc565b5b81810290505b9392505050565b6000610b9d826106a7565b9150610ba8836106a7565b9250610bd57fffffffffffffffffffffffffffffffffffffffffffffffffffffffffffffffff8484610abf565b905092915050565b7f4e487b7100000000000000000000000000000000000000000000000000000000600052601260045260246000fd5b6000610c17826106a7565b9150610c22836106a7565b925082610c3257610c31610bdd565b5b828204905092915050565b6000610c48826106a7565b9150610c53836106a7565b9250828202610c61816106a7565b91508282048414831517610c7857610c776109fc565b5b5092915050565b6000610c8a82610747565b91507f80000000000000000000000000000000000000000000000000000000000000008203610cbc57610cbb6109fc565b5b816000039050919050565b610cd081610807565b82525050565b6000602082019050610ceb6000830184610cc7565b92915050565b600081519050610d00816106b1565b92915050565b600060208284031215610d1c57610d1b6106a2565b5b6000610d2a84828501610cf1565b91505092915050565b600060ff82169050919050565b610d4981610d33565b8114610d5457600080fd5b50565b600081519050610d6681610d40565b92915050565b600060208284031215610d8257610d816106a2565b5b6000610d9084828501610d57565b91505092915050565b600081519050610da881610819565b92915050565b600060208284031215610dc457610dc36106a2565b5b6000610dd284828501610d99565b91505092915050565b6000604082019050610df0600083018561071d565b610dfd602083018461071d565b9392505050565b6000610e0f826106a7565b9150610e1a836106a7565b9250828201905080821115610e3257610e316109fc565b5b92915050565b600082825260208201905092915050565b7f53616665436173743a2076616c756520646f65736e27742066697420696e206160008201527f6e20696e74323536000000000000000000000000000000000000000000000000602082015250565b6000610ea5602883610e38565b9150610eb082610e49565b604082019050919050565b60006020820190508181036000830152610ed481610e98565b905091905056fea2646970667358221220ff8c0907811fe8c7cbd34a4b6ba4e868491da9aacc69414c3f378314548d818c64736f6c63430008110033",
  "immutableReferences": {},
  "source": "// SPDX-License-Identifier: MIT\npragma solidity 0.8.17;\n\nimport \"@openzeppelin/contracts/utils/math/SignedMath.sol\";\nimport \"@openzeppelin/contracts/utils/math/SafeCast.sol\";\nimport \"@openzeppelin/contracts/token/ERC20/ERC20.sol\";\nimport \"../pools/Pool.sol\";\nimport \"../pools/MarketMaker.sol\";\nimport \"./MathLib.sol\";\n\nlibrary MarketLib {\n  using MathLib for uint256;\n  using SignedMath for int256;\n  uint256 public constant LTV_DECIMALS = 4;\n  uint256 public constant DECIMALS = 18;\n  uint256 internal constant BASE  = 1e18;\n\n  function balanceDef(ERC20 _token, address _accountAddress) public view returns(uint256){\n    return toWei(_token.balanceOf(_accountAddress), _token.decimals());}\n\n  function toWei(uint256 _rawData, uint256 _rawDataDecimals) public pure returns(uint256 _data){\n    _data = _rawData;\n    if(DECIMALS > _rawDataDecimals){\n      _data = _rawData * (10** (DECIMALS - _rawDataDecimals));}\n    if(DECIMALS < _rawDataDecimals){\n      _data = _rawData / (10** (_rawDataDecimals - DECIMALS));}}\n\n  function toDecimals(uint256 _rawData, uint256 _rawDataDecimals) public pure returns(uint256 _data){\n    _data = _rawData;\n    if(DECIMALS > _rawDataDecimals){\n      _data = _rawData / (10 ** (DECIMALS - _rawDataDecimals));}\n    else if(DECIMALS < _rawDataDecimals){\n      _data = _rawData * (10 ** (_rawDataDecimals - DECIMALS));}}\n\n  function toDecimalsInt(int256 _amount, uint256 _tokenDecimals) external pure returns(int256 _newAmount){\n    _newAmount = _amount;\n    if(_amount > 0) {\n      _newAmount = SafeCast.toInt256(toDecimals(uint256(_amount), _tokenDecimals));}\n    else if(_amount < 0) {\n      _newAmount = -SafeCast.toInt256(toDecimals(uint256(-_amount), _tokenDecimals));}}\n  \n  function cleanTradeAmounts(int256 _underlyingAmt, int256 _fundingAmt, address _underlyingAddress, address _fundingAddress) external pure returns(uint256 _fromAmount, uint256 _toAmount, address _fromAddress, address _toAddress){\n    _fromAmount = 0;\n    _toAmount = 0;\n    _fromAddress = _fundingAddress;\n    _toAddress = _underlyingAddress;\n    if(_underlyingAmt > 0 && _fundingAmt < 0){\n      _fromAmount = uint256(-_fundingAmt);\n      _toAmount = uint256(_underlyingAmt);}\n    else if(_underlyingAmt < 0 && _fundingAmt> 0){\n      _fromAmount = uint256(-_underlyingAmt);\n      _fromAddress = _underlyingAddress;\n      _toAmount = uint256(_fundingAmt);\n      _toAddress = _fundingAddress;}}\n\n  // calculate the gross capital of a market address, in DEFAULT decimals.\n  function getGrossCapital(MarketMaker _market, uint256 _price) external view returns(uint256){\n    uint256 _underlyingBalance = balanceDef(ERC20(_market.underlying()), address(_market));\n    uint256 _fundingBalance = balanceDef(ERC20(_market.funding()), address(_market));\n    return  _fundingBalance + _underlyingBalance.ethmul(_price);}\n  \n  \n}\n",
  "sourcePath": "/Users/mac/Documents/GitHub/moret/contracts/libraries/MarketLib.sol",
  "compiler": {
    "name": "solc",
    "version": "0.8.17+commit.8df45f5f.Emscripten.clang"
  },
  "schemaVersion": "3.4.3",
  "updatedAt": "2023-04-01T11:10:30.734Z",
  "networkType": "ethereum",
  "devdoc": {
    "kind": "dev",
    "methods": {},
    "version": 1
  },
  "userdoc": {
    "kind": "user",
    "methods": {},
    "version": 1
  }
}