{
  "contractName": "MarketLib",
  "abi": [
    {
      "inputs": [],
      "name": "DECIMALS",
      "outputs": [
        {
          "internalType": "uint256",
          "name": "",
          "type": "uint256"
        }
      ],
      "stateMutability": "view",
      "type": "function"
    },
    {
      "inputs": [],
      "name": "LTV_DECIMALS",
      "outputs": [
        {
          "internalType": "uint256",
          "name": "",
          "type": "uint256"
        }
      ],
      "stateMutability": "view",
      "type": "function"
    },
    {
      "inputs": [
        {
          "internalType": "address",
          "name": "_contractAddress",
          "type": "address"
        },
        {
          "internalType": "contract IProtocolDataProvider",
          "name": "_protocolDataProvider",
          "type": "IProtocolDataProvider"
        },
        {
          "internalType": "contract ERC20",
          "name": "_token",
          "type": "ERC20"
        }
      ],
      "name": "getTokenBalances",
      "outputs": [
        {
          "internalType": "uint256",
          "name": "",
          "type": "uint256"
        },
        {
          "internalType": "uint256",
          "name": "",
          "type": "uint256"
        },
        {
          "internalType": "uint256",
          "name": "",
          "type": "uint256"
        }
      ],
      "stateMutability": "view",
      "type": "function"
    },
    {
      "inputs": [
        {
          "internalType": "contract IProtocolDataProvider",
          "name": "_protocolDataProvider",
          "type": "IProtocolDataProvider"
        },
        {
          "internalType": "address",
          "name": "_tokenAddress",
          "type": "address"
        }
      ],
      "name": "getLTV",
      "outputs": [
        {
          "internalType": "uint256",
          "name": "",
          "type": "uint256"
        }
      ],
      "stateMutability": "view",
      "type": "function"
    },
    {
      "inputs": [
        {
          "internalType": "address",
          "name": "_contractAddress",
          "type": "address"
        },
        {
          "internalType": "contract IProtocolDataProvider",
          "name": "_protocolDataProvider",
          "type": "IProtocolDataProvider"
        },
        {
          "internalType": "int256",
          "name": "_aggregateDelta",
          "type": "int256"
        },
        {
          "internalType": "contract ERC20",
          "name": "_underlying",
          "type": "ERC20"
        },
        {
          "internalType": "bool",
          "name": "_useVariableRate",
          "type": "bool"
        }
      ],
      "name": "getLoanTrade",
      "outputs": [
        {
          "internalType": "int256",
          "name": "_loanChange",
          "type": "int256"
        },
        {
          "internalType": "uint256",
          "name": "_targetLoan",
          "type": "uint256"
        },
        {
          "internalType": "address",
          "name": "_loanAddress",
          "type": "address"
        }
      ],
      "stateMutability": "view",
      "type": "function"
    },
    {
      "inputs": [
        {
          "internalType": "address",
          "name": "_contractAddress",
          "type": "address"
        },
        {
          "internalType": "contract IProtocolDataProvider",
          "name": "_protocolDataProvider",
          "type": "IProtocolDataProvider"
        },
        {
          "internalType": "uint256",
          "name": "_targetLoan",
          "type": "uint256"
        },
        {
          "internalType": "uint256",
          "name": "_price",
          "type": "uint256"
        },
        {
          "internalType": "contract ERC20",
          "name": "_funding",
          "type": "ERC20"
        },
        {
          "internalType": "contract ERC20",
          "name": "_underlying",
          "type": "ERC20"
        },
        {
          "internalType": "uint256",
          "name": "_overCollateral",
          "type": "uint256"
        }
      ],
      "name": "getCollateralTrade",
      "outputs": [
        {
          "internalType": "int256",
          "name": "_collateralChange",
          "type": "int256"
        },
        {
          "internalType": "address",
          "name": "_collateralAddress",
          "type": "address"
        }
      ],
      "stateMutability": "view",
      "type": "function"
    },
    {
      "inputs": [
        {
          "internalType": "contract ERC20",
          "name": "_token",
          "type": "ERC20"
        },
        {
          "internalType": "address",
          "name": "_accountAddress",
          "type": "address"
        }
      ],
      "name": "balanceDef",
      "outputs": [
        {
          "internalType": "uint256",
          "name": "",
          "type": "uint256"
        }
      ],
      "stateMutability": "view",
      "type": "function"
    },
    {
      "inputs": [
        {
          "internalType": "uint256",
          "name": "_rawData",
          "type": "uint256"
        },
        {
          "internalType": "uint256",
          "name": "_rawDataDecimals",
          "type": "uint256"
        }
      ],
      "name": "toWei",
      "outputs": [
        {
          "internalType": "uint256",
          "name": "_data",
          "type": "uint256"
        }
      ],
      "stateMutability": "pure",
      "type": "function"
    },
    {
      "inputs": [
        {
          "internalType": "uint256",
          "name": "_rawData",
          "type": "uint256"
        },
        {
          "internalType": "uint256",
          "name": "_rawDataDecimals",
          "type": "uint256"
        }
      ],
      "name": "toDecimals",
      "outputs": [
        {
          "internalType": "uint256",
          "name": "_data",
          "type": "uint256"
        }
      ],
      "stateMutability": "pure",
      "type": "function"
    },
    {
      "inputs": [
        {
          "internalType": "int256",
          "name": "_amount",
          "type": "int256"
        },
        {
          "internalType": "uint256",
          "name": "_tokenDecimals",
          "type": "uint256"
        }
      ],
      "name": "toDecimalsInt",
      "outputs": [
        {
          "internalType": "int256",
          "name": "_newAmount",
          "type": "int256"
        }
      ],
      "stateMutability": "pure",
      "type": "function"
    },
    {
      "inputs": [
        {
          "internalType": "int256",
          "name": "_underlyingAmt",
          "type": "int256"
        },
        {
          "internalType": "int256",
          "name": "_fundingAmt",
          "type": "int256"
        },
        {
          "internalType": "address",
          "name": "_underlyingAddress",
          "type": "address"
        },
        {
          "internalType": "address",
          "name": "_fundingAddress",
          "type": "address"
        }
      ],
      "name": "cleanTradeAmounts",
      "outputs": [
        {
          "internalType": "uint256",
          "name": "_fromAmount",
          "type": "uint256"
        },
        {
          "internalType": "uint256",
          "name": "_toAmount",
          "type": "uint256"
        },
        {
          "internalType": "address",
          "name": "_fromAddress",
          "type": "address"
        },
        {
          "internalType": "address",
          "name": "_toAddress",
          "type": "address"
        }
      ],
      "stateMutability": "pure",
      "type": "function"
    },
    {
      "inputs": [
        {
          "internalType": "contract MarketMaker",
          "name": "_market",
          "type": "MarketMaker"
        },
        {
          "internalType": "uint256",
          "name": "_price",
          "type": "uint256"
        }
      ],
      "name": "getGrossCapital",
      "outputs": [
        {
          "internalType": "uint256",
          "name": "",
          "type": "uint256"
        }
      ],
      "stateMutability": "view",
      "type": "function"
    },
    {
      "inputs": [
        {
          "internalType": "uint256",
          "name": "_grossCapital",
          "type": "uint256"
        },
        {
          "internalType": "int256",
          "name": "_currentNetNotional",
          "type": "int256"
        },
        {
          "internalType": "int256",
          "name": "_newNetNotional",
          "type": "int256"
        },
        {
          "internalType": "uint256",
          "name": "_runningVol",
          "type": "uint256"
        },
        {
          "internalType": "uint256",
          "name": "_volCapacityFactor",
          "type": "uint256"
        }
      ],
      "name": "calcRiskPremium",
      "outputs": [
        {
          "internalType": "uint256",
          "name": "",
          "type": "uint256"
        }
      ],
      "stateMutability": "pure",
      "type": "function"
    },
    {
      "inputs": [
        {
          "internalType": "uint256",
          "name": "_max",
          "type": "uint256"
        },
        {
          "internalType": "int256",
          "name": "_input",
          "type": "int256"
        },
        {
          "internalType": "uint256",
          "name": "_constant",
          "type": "uint256"
        },
        {
          "internalType": "uint256",
          "name": "_volCapacityFactor",
          "type": "uint256"
        }
      ],
      "name": "calcRiskPremiumAMM",
      "outputs": [
        {
          "internalType": "int256",
          "name": "",
          "type": "int256"
        }
      ],
      "stateMutability": "pure",
      "type": "function"
    }
  ],
  "bytecode": "0x612197610053600b82828239805160001a607314610046577f4e487b7100000000000000000000000000000000000000000000000000000000600052600060045260246000fd5b30600052607381538281f3fe73000000000000000000000000000000000000000030146080604052600436106100f45760003560e01c8063865c9984116100965780639e9be73f116100705780639e9be73f146102bb578063e74207d6146102ed578063ed1bb1991461031d578063fcc14dfd1461034d576100f4565b8063865c99841461023a578063983d3bb81461026d5780639d38d0641461029d576100f4565b80632e0f2625116100d25780632e0f26251461018a578063358e7d40146101a857806339a823d8146101da5780637bc7ed781461020a576100f4565b806303507d11146100f9578063174e20e61461012a5780632697b1d61461015a575b600080fd5b610113600480360381019061010e9190611198565b61037d565b604051610121929190611262565b60405180910390f35b610144600480360381019061013f919061128b565b6105a4565b60405161015191906112da565b60405180910390f35b610174600480360381019061016f91906112f5565b610614565b60405161018191906112da565b60405180910390f35b6101926106b1565b60405161019f91906112da565b60405180910390f35b6101c260048036038101906101bd9190611335565b6106b6565b6040516101d193929190611388565b60405180910390f35b6101f460048036038101906101ef91906113eb565b610783565b604051610201919061142b565b60405180910390f35b610224600480360381019061021f9190611446565b6107e1565b60405161023191906112da565b60405180910390f35b610254600480360381019061024f91906114c1565b61088d565b6040516102649493929190611528565b60405180910390f35b6102876004803603810190610282919061156d565b610901565b60405161029491906112da565b60405180910390f35b6102a56109ff565b6040516102b291906112da565b60405180910390f35b6102d560048036038101906102d091906115e5565b610a04565b6040516102e493929190611660565b60405180910390f35b610307600480360381019061030291906116d5565b610af1565b60405161031491906112da565b60405180910390f35b6103376004803603810190610332919061128b565b610ce9565b60405161034491906112da565b60405180910390f35b61036760048036038101906103629190611715565b610d54565b604051610374919061142b565b60405180910390f35b6000808773ffffffffffffffffffffffffffffffffffffffff1663d2493b6c866040518263ffffffff1660e01b81526004016103b9919061178b565b606060405180830381865afa1580156103d6573d6000803e3d6000fd5b505050506040513d601f19601f820116820180604052508101906103fa91906117bb565b90505080915050600061040d8986610614565b9050600061041b838c610901565b905060008973__MathLib_______________________________63b3947c1790918b866040518463ffffffff1660e01b815260040161045c93929190611388565b602060405180830381865af4158015610479573d6000803e3d6000fd5b505050506040513d601f19601f8201168201806040525081019061049d9190611823565b73__MathLib_______________________________631c4b9a2d9091886040518363ffffffff1660e01b81526004016104d7929190611850565b602060405180830381865af41580156104f4573d6000803e3d6000fd5b505050506040513d601f19601f820116820180604052508101906105189190611823565b90506000610526898e610901565b9050828161053491906118a8565b821115610576576040517f08c379a000000000000000000000000000000000000000000000000000000000815260040161056d9061195b565b60405180910390fd5b61057f83610f93565b61058883610f93565b610592919061197b565b95505050505097509795505050505050565b600082905081601211156105dd578160126105bf9190611a0f565b600a6105cb9190611b76565b836105d69190611bf0565b905061060e565b816012101561060d576012826105f39190611a0f565b600a6105ff9190611b76565b8361060a9190611c21565b90505b5b92915050565b6000808373ffffffffffffffffffffffffffffffffffffffff16633e150141846040518263ffffffff1660e01b8152600401610650919061178b565b61014060405180830381865afa15801561066e573d6000803e3d6000fd5b505050506040513d601f19601f820116820180604052508101906106929190611c90565b50505050505050509150506106a8816004610ce9565b91505092915050565b601281565b6000806000806000808773ffffffffffffffffffffffffffffffffffffffff1663d2493b6c886040518263ffffffff1660e01b81526004016106f8919061178b565b606060405180830381865afa158015610715573d6000803e3d6000fd5b505050506040513d601f19601f8201168201806040525081019061073991906117bb565b925092509250610749878a610901565b610753848b610901565b61075d838c610901565b610767858d610901565b61077191906118a8565b95509550955050505093509350939050565b600082905060008313156107aa576107a361079e84846105a4565b610f93565b90506107db565b60008312156107da576107ce6107c9846107c390611d6f565b846105a4565b610f93565b6107d790611d6f565b90505b5b92915050565b60008061080d6107f388878787610d54565b6107ff89898888610d54565b61100090919063ffffffff16565b905060008161081b86610f93565b6108259190611db7565b13610865576040517f08c379a000000000000000000000000000000000000000000000000000000000815260040161085c90611e97565b60405180910390fd5b6108818161087286610f93565b61087c9190611db7565b611036565b91505095945050505050565b60008060008060009350600092508491508590506000881380156108b15750600087125b156108ca57866108c090611d6f565b93508792506108f6565b6000881280156108da5750600087135b156108f557876108e990611d6f565b93508591508692508490505b5b945094509450949050565b60006109f78373ffffffffffffffffffffffffffffffffffffffff166370a08231846040518263ffffffff1660e01b815260040161093f919061178b565b602060405180830381865afa15801561095c573d6000803e3d6000fd5b505050506040513d601f19601f820116820180604052508101906109809190611823565b8473ffffffffffffffffffffffffffffffffffffffff1663313ce5676040518163ffffffff1660e01b8152600401602060405180830381865afa1580156109cb573d6000803e3d6000fd5b505050506040513d601f19601f820116820180604052508101906109ef9190611ef0565b60ff16610ce9565b905092915050565b600481565b60008060008060008873ffffffffffffffffffffffffffffffffffffffff1663d2493b6c886040518263ffffffff1660e01b8152600401610a45919061178b565b606060405180830381865afa158015610a62573d6000803e3d6000fd5b505050506040513d601f19601f82011682018060405250810190610a8691906117bb565b925092505085610a965781610a98565b805b92506000610aa6848c610901565b90506000891215610ac05788610abb90611d6f565b610ac3565b60005b9450610ace81610f93565b610ad786610f93565b610ae1919061197b565b9550505050955095509592505050565b600080610b6c8473ffffffffffffffffffffffffffffffffffffffff16636f307dc36040518163ffffffff1660e01b8152600401602060405180830381865afa158015610b42573d6000803e3d6000fd5b505050506040513d601f19601f82011682018060405250810190610b669190611f1d565b85610901565b90506000610c568573ffffffffffffffffffffffffffffffffffffffff166305268cff6040518163ffffffff1660e01b8152600401602060405180830381865afa158015610bbe573d6000803e3d6000fd5b505050506040513d601f19601f82011682018060405250810190610be29190611f88565b73ffffffffffffffffffffffffffffffffffffffff1663cb4c86b76040518163ffffffff1660e01b8152600401602060405180830381865afa158015610c2c573d6000803e3d6000fd5b505050506040513d601f19601f82011682018060405250810190610c509190611fca565b86610901565b90508173__MathLib_______________________________63fed4a0f39091866040518363ffffffff1660e01b8152600401610c93929190611850565b602060405180830381865af4158015610cb0573d6000803e3d6000fd5b505050506040513d601f19601f82011682018060405250810190610cd49190611823565b81610cdf91906118a8565b9250505092915050565b60008290508160121115610d1e57816012610d049190611a0f565b600a610d109190611b76565b83610d1b9190611c21565b90505b8160121015610d4e57601282610d349190611a0f565b600a610d409190611b76565b83610d4b9190611bf0565b90505b92915050565b600080610d68670de0b6b3a7640000610f93565b90506000851215610e1057610e0285610d8090611d6f565b73__MathLib_______________________________63b3947c179091868a6040518463ffffffff1660e01b8152600401610dbc93929190611388565b602060405180830381865af4158015610dd9573d6000803e3d6000fd5b505050506040513d601f19601f82011682018060405250810190610dfd9190611823565b610f93565b81610e0d9190611db7565b90505b6000851315610ead57610e9f8573__MathLib_______________________________63b3947c179091868a6040518463ffffffff1660e01b8152600401610e5993929190611388565b602060405180830381865af4158015610e76573d6000803e3d6000fd5b505050506040513d601f19601f82011682018060405250810190610e9a9190611823565b610f93565b81610eaa919061197b565b90505b6000811215610ef1576040517f08c379a0000000000000000000000000000000000000000000000000000000008152600401610ee890612043565b60405180910390fd5b610efa84610f93565b610f7e8573__MathLib_______________________________63de7f61709091856040518363ffffffff1660e01b8152600401610f38929190611850565b602060405180830381865af4158015610f55573d6000803e3d6000fd5b505050506040513d601f19601f82011682018060405250810190610f799190611823565b610f93565b610f88919061197b565b915050949350505050565b60007f7fffffffffffffffffffffffffffffffffffffffffffffffffffffffffffffff821115610ff8576040517f08c379a0000000000000000000000000000000000000000000000000000000008152600401610fef906120d5565b60405180910390fd5b819050919050565b6000806001838518901d8385166110179190611db7565b905082841860ff82901c168161102d9190611db7565b91505092915050565b60008082121561107b576040517f08c379a000000000000000000000000000000000000000000000000000000000815260040161107290612141565b60405180910390fd5b819050919050565b600080fd5b600073ffffffffffffffffffffffffffffffffffffffff82169050919050565b60006110b382611088565b9050919050565b6110c3816110a8565b81146110ce57600080fd5b50565b6000813590506110e0816110ba565b92915050565b60006110f1826110a8565b9050919050565b611101816110e6565b811461110c57600080fd5b50565b60008135905061111e816110f8565b92915050565b6000819050919050565b61113781611124565b811461114257600080fd5b50565b6000813590506111548161112e565b92915050565b6000611165826110a8565b9050919050565b6111758161115a565b811461118057600080fd5b50565b6000813590506111928161116c565b92915050565b600080600080600080600060e0888a0312156111b7576111b6611083565b5b60006111c58a828b016110d1565b97505060206111d68a828b0161110f565b96505060406111e78a828b01611145565b95505060606111f88a828b01611145565b94505060806112098a828b01611183565b93505060a061121a8a828b01611183565b92505060c061122b8a828b01611145565b91505092959891949750929550565b6000819050919050565b61124d8161123a565b82525050565b61125c816110a8565b82525050565b60006040820190506112776000830185611244565b6112846020830184611253565b9392505050565b600080604083850312156112a2576112a1611083565b5b60006112b085828601611145565b92505060206112c185828601611145565b9150509250929050565b6112d481611124565b82525050565b60006020820190506112ef60008301846112cb565b92915050565b6000806040838503121561130c5761130b611083565b5b600061131a8582860161110f565b925050602061132b858286016110d1565b9150509250929050565b60008060006060848603121561134e5761134d611083565b5b600061135c868287016110d1565b935050602061136d8682870161110f565b925050604061137e86828701611183565b9150509250925092565b600060608201905061139d60008301866112cb565b6113aa60208301856112cb565b6113b760408301846112cb565b949350505050565b6113c88161123a565b81146113d357600080fd5b50565b6000813590506113e5816113bf565b92915050565b6000806040838503121561140257611401611083565b5b6000611410858286016113d6565b925050602061142185828601611145565b9150509250929050565b60006020820190506114406000830184611244565b92915050565b600080600080600060a0868803121561146257611461611083565b5b600061147088828901611145565b9550506020611481888289016113d6565b9450506040611492888289016113d6565b93505060606114a388828901611145565b92505060806114b488828901611145565b9150509295509295909350565b600080600080608085870312156114db576114da611083565b5b60006114e9878288016113d6565b94505060206114fa878288016113d6565b935050604061150b878288016110d1565b925050606061151c878288016110d1565b91505092959194509250565b600060808201905061153d60008301876112cb565b61154a60208301866112cb565b6115576040830185611253565b6115646060830184611253565b95945050505050565b6000806040838503121561158457611583611083565b5b600061159285828601611183565b92505060206115a3858286016110d1565b9150509250929050565b60008115159050919050565b6115c2816115ad565b81146115cd57600080fd5b50565b6000813590506115df816115b9565b92915050565b600080600080600060a0868803121561160157611600611083565b5b600061160f888289016110d1565b95505060206116208882890161110f565b9450506040611631888289016113d6565b935050606061164288828901611183565b9250506080611653888289016115d0565b9150509295509295909350565b60006060820190506116756000830186611244565b61168260208301856112cb565b61168f6040830184611253565b949350505050565b60006116a2826110a8565b9050919050565b6116b281611697565b81146116bd57600080fd5b50565b6000813590506116cf816116a9565b92915050565b600080604083850312156116ec576116eb611083565b5b60006116fa858286016116c0565b925050602061170b85828601611145565b9150509250929050565b6000806000806080858703121561172f5761172e611083565b5b600061173d87828801611145565b945050602061174e878288016113d6565b935050604061175f87828801611145565b925050606061177087828801611145565b91505092959194509250565b611785816110a8565b82525050565b60006020820190506117a0600083018461177c565b92915050565b6000815190506117b5816110ba565b92915050565b6000806000606084860312156117d4576117d3611083565b5b60006117e2868287016117a6565b93505060206117f3868287016117a6565b9250506040611804868287016117a6565b9150509250925092565b60008151905061181d8161112e565b92915050565b60006020828403121561183957611838611083565b5b60006118478482850161180e565b91505092915050565b600060408201905061186560008301856112cb565b61187260208301846112cb565b9392505050565b7f4e487b7100000000000000000000000000000000000000000000000000000000600052601160045260246000fd5b60006118b382611124565b91506118be83611124565b9250827fffffffffffffffffffffffffffffffffffffffffffffffffffffffffffffffff038211156118f3576118f2611879565b5b828201905092915050565b600082825260208201905092915050565b7f496e73756666696369656e7420636f6c6c61746572616c3b0000000000000000600082015250565b60006119456018836118fe565b91506119508261190f565b602082019050919050565b6000602082019050818103600083015261197481611938565b9050919050565b60006119868261123a565b91506119918361123a565b9250827f8000000000000000000000000000000000000000000000000000000000000000018212600084121516156119cc576119cb611879565b5b827f7fffffffffffffffffffffffffffffffffffffffffffffffffffffffffffffff018213600084121615611a0457611a03611879565b5b828203905092915050565b6000611a1a82611124565b9150611a2583611124565b925082821015611a3857611a37611879565b5b828203905092915050565b60008160011c9050919050565b6000808291508390505b6001851115611a9a57808604811115611a7657611a75611879565b5b6001851615611a855780820291505b8081029050611a9385611a43565b9450611a5a565b94509492505050565b600082611ab35760019050611b6f565b81611ac15760009050611b6f565b8160018114611ad75760028114611ae157611b10565b6001915050611b6f565b60ff841115611af357611af2611879565b5b8360020a915084821115611b0a57611b09611879565b5b50611b6f565b5060208310610133831016604e8410600b8410161715611b455782820a905083811115611b4057611b3f611879565b5b611b6f565b611b528484846001611a50565b92509050818404811115611b6957611b68611879565b5b81810290505b9392505050565b6000611b8182611124565b9150611b8c83611124565b9250611bb97fffffffffffffffffffffffffffffffffffffffffffffffffffffffffffffffff8484611aa3565b905092915050565b7f4e487b7100000000000000000000000000000000000000000000000000000000600052601260045260246000fd5b6000611bfb82611124565b9150611c0683611124565b925082611c1657611c15611bc1565b5b828204905092915050565b6000611c2c82611124565b9150611c3783611124565b9250817fffffffffffffffffffffffffffffffffffffffffffffffffffffffffffffffff0483118215151615611c7057611c6f611879565b5b828202905092915050565b600081519050611c8a816115b9565b92915050565b6000806000806000806000806000806101408b8d031215611cb457611cb3611083565b5b6000611cc28d828e0161180e565b9a50506020611cd38d828e0161180e565b9950506040611ce48d828e0161180e565b9850506060611cf58d828e0161180e565b9750506080611d068d828e0161180e565b96505060a0611d178d828e01611c7b565b95505060c0611d288d828e01611c7b565b94505060e0611d398d828e01611c7b565b935050610100611d4b8d828e01611c7b565b925050610120611d5d8d828e01611c7b565b9150509295989b9194979a5092959850565b6000611d7a8261123a565b91507f80000000000000000000000000000000000000000000000000000000000000008203611dac57611dab611879565b5b816000039050919050565b6000611dc28261123a565b9150611dcd8361123a565b9250817f7fffffffffffffffffffffffffffffffffffffffffffffffffffffffffffffff03831360008312151615611e0857611e07611879565b5b817f8000000000000000000000000000000000000000000000000000000000000000038312600083121615611e4057611e3f611879565b5b828201905092915050565b7f496e636f727265637420766f6c207072656d69756d0000000000000000000000600082015250565b6000611e816015836118fe565b9150611e8c82611e4b565b602082019050919050565b60006020820190508181036000830152611eb081611e74565b9050919050565b600060ff82169050919050565b611ecd81611eb7565b8114611ed857600080fd5b50565b600081519050611eea81611ec4565b92915050565b600060208284031215611f0657611f05611083565b5b6000611f1484828501611edb565b91505092915050565b600060208284031215611f3357611f32611083565b5b6000611f41848285016117a6565b91505092915050565b6000611f55826110a8565b9050919050565b611f6581611f4a565b8114611f7057600080fd5b50565b600081519050611f8281611f5c565b92915050565b600060208284031215611f9e57611f9d611083565b5b6000611fac84828501611f73565b91505092915050565b600081519050611fc48161116c565b92915050565b600060208284031215611fe057611fdf611083565b5b6000611fee84828501611fb5565b91505092915050565b7f43617061636974792062726561636865642e0000000000000000000000000000600082015250565b600061202d6012836118fe565b915061203882611ff7565b602082019050919050565b6000602082019050818103600083015261205c81612020565b9050919050565b7f53616665436173743a2076616c756520646f65736e27742066697420696e206160008201527f6e20696e74323536000000000000000000000000000000000000000000000000602082015250565b60006120bf6028836118fe565b91506120ca82612063565b604082019050919050565b600060208201905081810360008301526120ee816120b2565b9050919050565b7f53616665436173743a2076616c7565206d75737420626520706f736974697665600082015250565b600061212b6020836118fe565b9150612136826120f5565b602082019050919050565b6000602082019050818103600083015261215a8161211e565b905091905056fea264697066735822122064ce058a7928de13a9a7fffd43ecc7cad73f37766e0131bf1591d39cd6cb165164736f6c634300080f0033",
  "immutableReferences": {},
  "source": "// SPDX-License-Identifier: MIT\npragma solidity ^0.8.4;\n\nimport \"@openzeppelin/contracts/utils/math/SignedMath.sol\";\nimport \"@openzeppelin/contracts/utils/math/SafeCast.sol\";\nimport \"@openzeppelin/contracts/token/ERC20/ERC20.sol\";\nimport \"../interfaces/IProtocolDataProvider.sol\";\nimport \"../interfaces/ILendingPoolAddressesProvider.sol\";\nimport \"../pools/Pool.sol\";\nimport \"../pools/MarketMaker.sol\";\nimport \"./MathLib.sol\";\n\nlibrary MarketLib {\n  using MathLib for uint256;\n  using SignedMath for int256;\n  uint256 public constant LTV_DECIMALS = 4;\n  uint256 public constant DECIMALS = 18;\n  uint256 internal constant BASE  = 1e18;\n\n  // Returns balances of ERC20 token (as for _tokenAddress), its corresponding aToken (i.e. collaterals posted), and its debt tokens (including both variable and fixed loans)\n  function getTokenBalances(address _contractAddress, IProtocolDataProvider _protocolDataProvider, ERC20 _token) public view returns(uint256, uint256, uint256) {\n    (address _aToken, address _stableLoan, address _variableLoan) = _protocolDataProvider.getReserveTokensAddresses(address(_token));\n    return (balanceDef(_token, _contractAddress), balanceDef(ERC20(_aToken), _contractAddress),balanceDef(ERC20(_stableLoan), _contractAddress) + balanceDef(ERC20(_variableLoan), _contractAddress)); }\n\n  function getLTV(IProtocolDataProvider _protocolDataProvider, address _tokenAddress) public view returns (uint256) {\n    (, uint256 _ltv, ,,,,,,, ) = _protocolDataProvider.getReserveConfigurationData(_tokenAddress);\n    return toWei(_ltv, LTV_DECIMALS); } \n    \n  function getLoanTrade(address _contractAddress, IProtocolDataProvider _protocolDataProvider, int256 _aggregateDelta, ERC20 _underlying, bool _useVariableRate) public view returns(int256 _loanChange, uint256 _targetLoan, address _loanAddress){\n    ( , address _stableLoanAddress,  address _variableLoanAddress) = _protocolDataProvider.getReserveTokensAddresses(address(_underlying));\n    _loanAddress = _useVariableRate? _variableLoanAddress: _stableLoanAddress;\n    uint256 _debtBalance = balanceDef(ERC20(_loanAddress), _contractAddress);\n    _targetLoan = _aggregateDelta >=0 ? 0: uint256(-_aggregateDelta);\n    _loanChange = SafeCast.toInt256(_targetLoan) - SafeCast.toInt256(_debtBalance);}\n  \n  function getCollateralTrade(address _contractAddress, IProtocolDataProvider _protocolDataProvider, uint256 _targetLoan, uint256 _price, ERC20 _funding, ERC20 _underlying, uint256 _overCollateral) public view returns(int256 _collateralChange, address _collateralAddress) {\n    (_collateralAddress, , ) = _protocolDataProvider.getReserveTokensAddresses(address(_funding));\n    uint256 _ltv = getLTV(_protocolDataProvider, address(_underlying));\n    uint256 _collateralBalance = balanceDef(ERC20(_collateralAddress), _contractAddress);\n    uint256 _requiredCollateral = _targetLoan.muldiv(_price , _ltv).accrue(_overCollateral);\n    uint256 _fundingBalance = balanceDef(_funding, _contractAddress);\n    require(_requiredCollateral<= (_fundingBalance + _collateralBalance), \"Insufficient collateral;\");\n    _collateralChange =  SafeCast.toInt256(_requiredCollateral) - SafeCast.toInt256(_collateralBalance);}\n\n  function balanceDef(ERC20 _token, address _accountAddress) public view returns(uint256){\n    return toWei(_token.balanceOf(_accountAddress), _token.decimals());}\n\n  function toWei(uint256 _rawData, uint256 _rawDataDecimals) public pure returns(uint256 _data){\n    _data = _rawData;\n    if(DECIMALS > _rawDataDecimals){\n      _data = _rawData * (10** (DECIMALS - _rawDataDecimals));}\n    if(DECIMALS < _rawDataDecimals){\n      _data = _rawData / (10** (_rawDataDecimals - DECIMALS));}}\n\n  function toDecimals(uint256 _rawData, uint256 _rawDataDecimals) public pure returns(uint256 _data){\n    _data = _rawData;\n    if(DECIMALS > _rawDataDecimals){\n      _data = _rawData / (10 ** (DECIMALS - _rawDataDecimals));}\n    else if(DECIMALS < _rawDataDecimals){\n      _data = _rawData * (10 ** (_rawDataDecimals - DECIMALS));}}\n\n  function toDecimalsInt(int256 _amount, uint256 _tokenDecimals) public pure returns(int256 _newAmount){\n    _newAmount = _amount;\n    if(_amount > 0) {\n      _newAmount = SafeCast.toInt256(toDecimals(uint256(_amount), _tokenDecimals));}\n    else if(_amount < 0) {\n      _newAmount = -SafeCast.toInt256(toDecimals(uint256(-_amount), _tokenDecimals));}}\n  \n  function cleanTradeAmounts(int256 _underlyingAmt, int256 _fundingAmt, address _underlyingAddress, address _fundingAddress) public pure returns(uint256 _fromAmount, uint256 _toAmount, address _fromAddress, address _toAddress){\n    _fromAmount = 0;\n    _toAmount = 0;\n    _fromAddress = _fundingAddress;\n    _toAddress = _underlyingAddress;\n    if(_underlyingAmt > 0 && _fundingAmt < 0){\n      _fromAmount = uint256(-_fundingAmt);\n      _toAmount = uint256(_underlyingAmt);}\n    else if(_underlyingAmt < 0 && _fundingAmt> 0){\n      _fromAmount = uint256(-_underlyingAmt);\n      _fromAddress = _underlyingAddress;\n      _toAmount = uint256(_fundingAmt);\n      _toAddress = _fundingAddress;}}\n\n  // calculate the gross capital of a market address, in DEFAULT decimals.\n  function getGrossCapital(MarketMaker _market, uint256 _price) public view returns(uint256){\n    // _price = _volChain.queryPrice();\n    // if(_pool.aaveAddressesProvider() != address(0)){\n    //   IProtocolDataProvider _protocolDataProvider = IProtocolDataProvider(ILendingPoolAddressesProvider(_pool.aaveAddressesProvider()).getAddress(\"0x1\"));\n    //   (uint256 _underlyingBalance, , uint256 _debtBalance) = getTokenBalances(address(_pool), _protocolDataProvider, _pool.underlying());\n    //   (uint256 _fundingBalance, uint256 _collateralBalance,) = getTokenBalances(address(_pool), _protocolDataProvider, _pool.govToken().funding());\n\n    //   _capital = _fundingBalance + _collateralBalance + _underlyingBalance.ethmul(_price);\n    //   uint256 _debt_amount = _debtBalance.ethmul(_price);\n    //   require(_capital > _debt_amount, \"Negative equity.\");\n    //   _capital -= _debt_amount;}\n    // else{\n    uint256 _underlyingBalance = balanceDef(ERC20(_market.underlying()), address(_market));\n    uint256 _fundingBalance = balanceDef(_market.govToken().funding(), address(_market));\n    return  _fundingBalance + _underlyingBalance.ethmul(_price);}\n  \n  function calcRiskPremium(uint256 _grossCapital, int256 _currentNetNotional, int256 _newNetNotional, uint256 _runningVol,uint256 _volCapacityFactor ) public pure returns(uint256){\n    int256 _riskPremium = calcRiskPremiumAMM(_grossCapital, _currentNetNotional,  _runningVol, _volCapacityFactor).average(calcRiskPremiumAMM(_grossCapital, _newNetNotional, _runningVol, _volCapacityFactor));\n    require((SafeCast.toInt256(_runningVol) + _riskPremium) > 0,\"Incorrect vol premium\");\n    return SafeCast.toUint256(SafeCast.toInt256(_runningVol) + _riskPremium); \n  }\n\n  function calcRiskPremiumAMM(uint256 _max, int256 _input, uint256 _constant, uint256 _volCapacityFactor) public pure returns(int256) {\n    int256 _capacity = SafeCast.toInt256(BASE); // capacity should be in (0,2)\n    if(_input < 0){_capacity +=  SafeCast.toInt256(uint256(-_input).muldiv(_volCapacityFactor, _max));}\n    if(_input > 0){ _capacity -= SafeCast.toInt256(uint256(_input).muldiv(_volCapacityFactor, _max));}\n    require(_capacity>=0 , \"Capacity breached.\");\n    return SafeCast.toInt256(_constant.ethdiv(uint256(_capacity))) - SafeCast.toInt256(_constant);}\n}\n",
  "sourcePath": "/Users/mac/Documents/GitHub/moret/contracts/libraries/MarketLib.sol",
  "compiler": {
    "name": "solc",
    "version": "0.8.15+commit.e14f2714.Emscripten.clang"
  },
  "schemaVersion": "3.4.3",
  "updatedAt": "2022-06-28T19:40:09.708Z",
  "networkType": "ethereum",
  "devdoc": {
    "kind": "dev",
    "methods": {},
    "version": 1
  },
  "userdoc": {
    "kind": "user",
    "methods": {},
    "version": 1
  }
}