{
  "contractName": "MathLib",
  "abi": [
    {
      "inputs": [
        {
          "internalType": "uint256",
          "name": "a",
          "type": "uint256"
        },
        {
          "internalType": "uint256",
          "name": "b",
          "type": "uint256"
        },
        {
          "internalType": "uint256",
          "name": "denominator",
          "type": "uint256"
        }
      ],
      "name": "muldiv",
      "outputs": [
        {
          "internalType": "uint256",
          "name": "result",
          "type": "uint256"
        }
      ],
      "stateMutability": "pure",
      "type": "function",
      "constant": true
    },
    {
      "inputs": [
        {
          "internalType": "uint256",
          "name": "x",
          "type": "uint256"
        },
        {
          "internalType": "uint256",
          "name": "y",
          "type": "uint256"
        }
      ],
      "name": "ethmul",
      "outputs": [
        {
          "internalType": "uint256",
          "name": "result",
          "type": "uint256"
        }
      ],
      "stateMutability": "pure",
      "type": "function",
      "constant": true
    },
    {
      "inputs": [
        {
          "internalType": "uint256",
          "name": "x",
          "type": "uint256"
        },
        {
          "internalType": "uint256",
          "name": "i",
          "type": "uint256"
        }
      ],
      "name": "accrue",
      "outputs": [
        {
          "internalType": "uint256",
          "name": "result",
          "type": "uint256"
        }
      ],
      "stateMutability": "pure",
      "type": "function",
      "constant": true
    },
    {
      "inputs": [
        {
          "internalType": "uint256",
          "name": "a",
          "type": "uint256"
        },
        {
          "internalType": "uint256",
          "name": "b",
          "type": "uint256"
        }
      ],
      "name": "ethdiv",
      "outputs": [
        {
          "internalType": "uint256",
          "name": "result",
          "type": "uint256"
        }
      ],
      "stateMutability": "pure",
      "type": "function",
      "constant": true
    },
    {
      "inputs": [
        {
          "internalType": "uint256",
          "name": "a",
          "type": "uint256"
        },
        {
          "internalType": "uint256",
          "name": "b",
          "type": "uint256"
        }
      ],
      "name": "discount",
      "outputs": [
        {
          "internalType": "uint256",
          "name": "result",
          "type": "uint256"
        }
      ],
      "stateMutability": "pure",
      "type": "function",
      "constant": true
    },
    {
      "inputs": [
        {
          "internalType": "uint256",
          "name": "x",
          "type": "uint256"
        }
      ],
      "name": "sqrt",
      "outputs": [
        {
          "internalType": "uint256",
          "name": "y",
          "type": "uint256"
        }
      ],
      "stateMutability": "pure",
      "type": "function",
      "constant": true
    },
    {
      "inputs": [
        {
          "internalType": "int256",
          "name": "x",
          "type": "int256"
        }
      ],
      "name": "abs",
      "outputs": [
        {
          "internalType": "uint256",
          "name": "y",
          "type": "uint256"
        }
      ],
      "stateMutability": "pure",
      "type": "function",
      "constant": true
    },
    {
      "inputs": [
        {
          "internalType": "int256",
          "name": "x",
          "type": "int256"
        }
      ],
      "name": "logistic",
      "outputs": [
        {
          "internalType": "uint256",
          "name": "y",
          "type": "uint256"
        }
      ],
      "stateMutability": "pure",
      "type": "function",
      "constant": true
    },
    {
      "inputs": [
        {
          "internalType": "int256",
          "name": "x",
          "type": "int256"
        }
      ],
      "name": "normalDensity",
      "outputs": [
        {
          "internalType": "uint256",
          "name": "y",
          "type": "uint256"
        }
      ],
      "stateMutability": "pure",
      "type": "function",
      "constant": true
    },
    {
      "inputs": [
        {
          "internalType": "int256",
          "name": "x",
          "type": "int256"
        },
        {
          "internalType": "int256",
          "name": "y",
          "type": "int256"
        }
      ],
      "name": "absmax",
      "outputs": [
        {
          "internalType": "uint256",
          "name": "z",
          "type": "uint256"
        }
      ],
      "stateMutability": "pure",
      "type": "function",
      "constant": true
    }
  ],
  "bytecode": "0x6130f5610053600b82828239805160001a607314610046577f4e487b7100000000000000000000000000000000000000000000000000000000600052600060045260246000fd5b30600052607381538281f3fe73000000000000000000000000000000000000000030146080604052600436106100a85760003560e01c8063806bcd4b11610070578063806bcd4b1461019d5780638d4f64ac146101cd578063b3947c17146101fd578063de7f61701461022d578063fed4a0f31461025d576100a8565b80631b5ac4b5146100ad5780631c4b9a2d146100dd5780633f8ac65c1461010d5780635543160e1461013d578063677342ce1461016d575b600080fd5b6100c760048036038101906100c29190612c0e565b61028d565b6040516100d49190612c54565b60405180910390f35b6100f760048036038101906100f29190612c9b565b6102af565b6040516101049190612c54565b60405180910390f35b61012760048036038101906101229190612c0e565b6102df565b6040516101349190612c54565b60405180910390f35b61015760048036038101906101529190612c0e565b6114f4565b6040516101649190612c54565b60405180910390f35b61018760048036038101906101829190612cdb565b612956565b6040516101949190612c54565b60405180910390f35b6101b760048036038101906101b29190612d08565b6129b3565b6040516101c49190612c54565b60405180910390f35b6101e760048036038101906101e29190612c9b565b612a02565b6040516101f49190612c54565b60405180910390f35b61021760048036038101906102129190612d48565b612a32565b6040516102249190612c54565b60405180910390f35b61024760048036038101906102429190612c9b565b612b99565b6040516102549190612c54565b60405180910390f35b61027760048036038101906102729190612c9b565b612bb6565b6040516102849190612c54565b60405180910390f35b6000808212156102a657816102a190612dca565b6102a8565b815b9050919050565b60006102d78383670de0b6b3a76400006102c99190612e12565b670de0b6b3a7640000612a32565b905092915050565b600080604051806109e001604052807fffffffffffffffffffffffffffffffffffffffffffffffff7538dcfb7618000060080b81526020017fffffffffffffffffffffffffffffffffffffffffffffffff831993af1d7c000060080b81526020017fffffffffffffffffffffffffffffffffffffffffffffffff90fa4a62c4e0000060080b81526020017fffffffffffffffffffffffffffffffffffffffffffffffff9edb01166c44000060080b81526020017fffffffffffffffffffffffffffffffffffffffffffffffffacbbb7ca13a8000060080b81526020017fffffffffffffffffffffffffffffffffffffffffffffffffba9c6e7dbb0c000060080b81526020017fffffffffffffffffffffffffffffffffffffffffffffffffc18cc9d78ebe000060080b81526020017fffffffffffffffffffffffffffffffffffffffffffffffffc87d25316270000060080b81526020017fffffffffffffffffffffffffffffffffffffffffffffffffcf6d808b3622000060080b81526020017fffffffffffffffffffffffffffffffffffffffffffffffffd65ddbe509d4000060080b81526020017fffffffffffffffffffffffffffffffffffffffffffffffffd7c1215d675e000060080b81526020017fffffffffffffffffffffffffffffffffffffffffffffffffd92466d5c4e8000060080b81526020017fffffffffffffffffffffffffffffffffffffffffffffffffda87ac4e2272000060080b81526020017fffffffffffffffffffffffffffffffffffffffffffffffffdbeaf1c67ffc000060080b81526020017fffffffffffffffffffffffffffffffffffffffffffffffffdd4e373edd86000060080b81526020017fffffffffffffffffffffffffffffffffffffffffffffffffdeb17cb73b10000060080b81526020017fffffffffffffffffffffffffffffffffffffffffffffffffe014c22f989a000060080b81526020017fffffffffffffffffffffffffffffffffffffffffffffffffe17807a7f624000060080b81526020017fffffffffffffffffffffffffffffffffffffffffffffffffe2db4d2053ae000060080b81526020017fffffffffffffffffffffffffffffffffffffffffffffffffe43e9298b138000060080b81526020017fffffffffffffffffffffffffffffffffffffffffffffffffe5a1d8110ec2000060080b81526020017fffffffffffffffffffffffffffffffffffffffffffffffffe7051d896c4c000060080b81526020017fffffffffffffffffffffffffffffffffffffffffffffffffe8686301c9d6000060080b81526020017fffffffffffffffffffffffffffffffffffffffffffffffffe9cba87a2760000060080b81526020017fffffffffffffffffffffffffffffffffffffffffffffffffeb2eedf284ea000060080b81526020017fffffffffffffffffffffffffffffffffffffffffffffffffec92336ae274000060080b81526020017fffffffffffffffffffffffffffffffffffffffffffffffffedf578e33ffe000060080b81526020017fffffffffffffffffffffffffffffffffffffffffffffffffef58be5b9d88000060080b81526020017ffffffffffffffffffffffffffffffffffffffffffffffffff0bc03d3fb12000060080b81526020017ffffffffffffffffffffffffffffffffffffffffffffffffff21f494c589c000060080b81526020017ffffffffffffffffffffffffffffffffffffffffffffffffff3828ec4b626000060080b81526020017ffffffffffffffffffffffffffffffffffffffffffffffffff4e5d43d13b0000060080b81526020017ffffffffffffffffffffffffffffffffffffffffffffffffff64919b5713a000060080b81526020017ffffffffffffffffffffffffffffffffffffffffffffffffff7ac5f2dcec4000060080b81526020017ffffffffffffffffffffffffffffffffffffffffffffffffff90fa4a62c4e000060080b81526020017ffffffffffffffffffffffffffffffffffffffffffffffffffa72ea1e89d8000060080b81526020017ffffffffffffffffffffffffffffffffffffffffffffffffffbd62f96e762000060080b81526020017ffffffffffffffffffffffffffffffffffffffffffffffffffd39750f44ec000060080b81526020017ffffffffffffffffffffffffffffffffffffffffffffffffffe9cba87a276000060080b8152602001600060080b815260200167016345785d8a000060080b81526020016702c68af0bb14000060080b8152602001670429d069189e000060080b815260200167058d15e17628000060080b81526020016706f05b59d3b2000060080b8152602001670853a0d2313c000060080b81526020016709b6e64a8ec6000060080b8152602001670b1a2bc2ec50000060080b8152602001670c7d713b49da000060080b8152602001670de0b6b3a764000060080b8152602001670f43fc2c04ee000060080b81526020016710a741a46278000060080b815260200167120a871cc002000060080b815260200167136dcc951d8c000060080b81526020016714d1120d7b16000060080b81526020016716345785d8a0000060080b81526020016717979cfe362a000060080b81526020016718fae27693b4000060080b8152602001671a5e27eef13e000060080b8152602001671bc16d674ec8000060080b8152602001671d24b2dfac52000060080b8152602001671e87f85809dc000060080b8152602001671feb3dd06766000060080b815260200167214e8348c4f0000060080b81526020016722b1c8c1227a000060080b81526020016724150e398004000060080b815260200167257853b1dd8e000060080b81526020016726db992a3b18000060080b815260200167283edea298a2000060080b81526020016729a2241af62c000060080b81526020016730927f74c9de000060080b8152602001673782dace9d90000060080b8152602001673e7336287142000060080b8152602001674563918244f4000060080b81526020016753444835ec58000060080b8152602001676124fee993bc000060080b8152602001676f05b59d3b20000060080b8152602001677ce66c50e284000060080b8152602001678ac7230489e8000060080b81525090506000604051806109e00160405280600067ffffffffffffffff168152602001600167ffffffffffffffff1681526020016113bc67ffffffffffffffff168152602001628b628067ffffffffffffffff16815260200164016a269d6167ffffffffffffffff16815260200165015a2763786e67ffffffffffffffff168152602001650e898135fad967ffffffffffffffff1681526020016579b7c711221567ffffffffffffffff168152602001660319b3460a328067ffffffffffffffff168152602001660fbebe1e4abcda67ffffffffffffffff168152602001661525cbf4650d6a67ffffffffffffffff168152602001661c1f0fafd71f8267ffffffffffffffff168152602001662505c8f5d7564867ffffffffffffffff168152602001663041a3782b3c6067ffffffffffffffff168152602001663e45e57c6f79f467ffffffffffffffff168152602001664f8fb4e722c61467ffffffffffffffff1681526020016664a34a6e2091b067ffffffffffffffff168152602001667e07f44926b76867ffffffffffffffff168152602001669c42d8f65b8fc067ffffffffffffffff16815260200166bfd07f7c193d0467ffffffffffffffff16815260200166e91d3c634adc7867ffffffffffffffff1681526020016701187cc02c7c53f867ffffffffffffffff16815260200167014e21233880a8d867ffffffffffffffff16815260200167018a11e95542410067ffffffffffffffff1681526020016701cc239129d402a067ffffffffffffffff168152602001670213f05632568ce867ffffffffffffffff168152602001670260d2d396ab1a1867ffffffffffffffff1681526020016702b1e3302b9bdfc867ffffffffffffffff168152602001670305f76699921a5867ffffffffffffffff16815260200167035ba7178901e65867ffffffffffffffff1681526020016703b15320002fb3b867ffffffffffffffff16815260200167040530eeb0c78ef867ffffffffffffffff168152602001670455594c4a0b562867ffffffffffffffff16815260200167049fda02c5c94dc067ffffffffffffffff1681526020016704e2c98ca38496e067ffffffffffffffff16815260200167051c5bbdce29af7867ffffffffffffffff16815260200167054af6328e2fcfe067ffffffffffffffff16815260200167056d4342226b390067ffffffffffffffff168152602001670582423d210dbe2067ffffffffffffffff16815260200167058953e3ed3631a867ffffffffffffffff168152602001670582423d210dbe2067ffffffffffffffff16815260200167056d4342226b390067ffffffffffffffff16815260200167054af6328e2fcfe067ffffffffffffffff16815260200167051c5bbdce29af7867ffffffffffffffff1681526020016704e2c98ca38496e067ffffffffffffffff16815260200167049fda02c5c94dc067ffffffffffffffff168152602001670455594c4a0b562867ffffffffffffffff16815260200167040530eeb0c78ef867ffffffffffffffff1681526020016703b15320002fb3b867ffffffffffffffff16815260200167035ba7178901e65867ffffffffffffffff168152602001670305f76699921a5867ffffffffffffffff1681526020016702b1e3302b9bdfc867ffffffffffffffff168152602001670260d2d396ab1a1867ffffffffffffffff168152602001670213f05632568ce867ffffffffffffffff1681526020016701cc239129d402a067ffffffffffffffff16815260200167018a11e95542410067ffffffffffffffff16815260200167014e21233880a8d867ffffffffffffffff1681526020016701187cc02c7c53f867ffffffffffffffff16815260200166e91d3c634adc7867ffffffffffffffff16815260200166bfd07f7c193d0467ffffffffffffffff168152602001669c42d8f65b8fc067ffffffffffffffff168152602001667e07f44926b76867ffffffffffffffff1681526020016664a34a6e2091b067ffffffffffffffff168152602001664f8fb4e722c61467ffffffffffffffff168152602001663e45e57c6f79f467ffffffffffffffff168152602001663041a3782b3c6067ffffffffffffffff168152602001662505c8f5d7564867ffffffffffffffff168152602001661c1f0fafd71f8267ffffffffffffffff168152602001661525cbf4650d6a67ffffffffffffffff168152602001660fbebe1e4abcda67ffffffffffffffff168152602001660319b3460a328067ffffffffffffffff1681526020016579b7c711221567ffffffffffffffff168152602001650e898135fad967ffffffffffffffff16815260200165015a2763786e67ffffffffffffffff16815260200164016a269d6167ffffffffffffffff168152602001628b628067ffffffffffffffff1681526020016113bc67ffffffffffffffff168152602001600167ffffffffffffffff168152602001600067ffffffffffffffff168152509050600080604f9050600094505b858483604f811061130657611305612e46565b5b602002015160080b121561132a57818061131f90612e75565b9250508082106112f2575b808203611362578260018361133f9190612ebd565b604f81106113505761134f612e46565b5b602002015167ffffffffffffffff1694505b60008211801561137157508082105b156114eb57836001836113849190612ebd565b604f811061139557611394612e46565b5b602002015160080b8483604f81106113b0576113af612e46565b5b602002015160080b6113c29190612ef1565b846001846113d09190612ebd565b604f81106113e1576113e0612e46565b5b602002015160080b876113f49190612ef1565b8484604f811061140757611406612e46565b5b602002015167ffffffffffffffff166114209190612f34565b61142a9190612fa5565b846001846114389190612ebd565b604f811061144957611448612e46565b5b602002015160080b8584604f811061146457611463612e46565b5b602002015160080b6114769190612ef1565b878685604f811061148a57611489612e46565b5b602002015160080b61149c9190612ef1565b856001866114aa9190612ebd565b604f81106114bb576114ba612e46565b5b602002015167ffffffffffffffff166114d49190612f34565b6114de9190612fa5565b6114e89190612e12565b94505b50505050919050565b60008060405180610b2001604052807fffffffffffffffffffffffffffffffffffffffffffffffff2fd54b793124000060080b81526020017fffffffffffffffffffffffffffffffffffffffffffffffff3db6022cd888000060080b81526020017fffffffffffffffffffffffffffffffffffffffffffffffff4b96b8e07fec000060080b81526020017fffffffffffffffffffffffffffffffffffffffffffffffff59776f942750000060080b81526020017fffffffffffffffffffffffffffffffffffffffffffffffff67582647ceb4000060080b81526020017fffffffffffffffffffffffffffffffffffffffffffffffff7538dcfb7618000060080b81526020017fffffffffffffffffffffffffffffffffffffffffffffffff831993af1d7c000060080b81526020017fffffffffffffffffffffffffffffffffffffffffffffffff90fa4a62c4e0000060080b81526020017fffffffffffffffffffffffffffffffffffffffffffffffff9edb01166c44000060080b81526020017fffffffffffffffffffffffffffffffffffffffffffffffffacbbb7ca13a8000060080b81526020017fffffffffffffffffffffffffffffffffffffffffffffffffba9c6e7dbb0c000060080b81526020017fffffffffffffffffffffffffffffffffffffffffffffffffc18cc9d78ebe000060080b81526020017fffffffffffffffffffffffffffffffffffffffffffffffffc87d25316270000060080b81526020017fffffffffffffffffffffffffffffffffffffffffffffffffcf6d808b3622000060080b81526020017fffffffffffffffffffffffffffffffffffffffffffffffffd65ddbe509d4000060080b81526020017fffffffffffffffffffffffffffffffffffffffffffffffffd7c1215d675e000060080b81526020017fffffffffffffffffffffffffffffffffffffffffffffffffd92466d5c4e8000060080b81526020017fffffffffffffffffffffffffffffffffffffffffffffffffda87ac4e2272000060080b81526020017fffffffffffffffffffffffffffffffffffffffffffffffffdbeaf1c67ffc000060080b81526020017fffffffffffffffffffffffffffffffffffffffffffffffffdd4e373edd86000060080b81526020017fffffffffffffffffffffffffffffffffffffffffffffffffdeb17cb73b10000060080b81526020017fffffffffffffffffffffffffffffffffffffffffffffffffe014c22f989a000060080b81526020017fffffffffffffffffffffffffffffffffffffffffffffffffe17807a7f624000060080b81526020017fffffffffffffffffffffffffffffffffffffffffffffffffe2db4d2053ae000060080b81526020017fffffffffffffffffffffffffffffffffffffffffffffffffe43e9298b138000060080b81526020017fffffffffffffffffffffffffffffffffffffffffffffffffe5a1d8110ec2000060080b81526020017fffffffffffffffffffffffffffffffffffffffffffffffffe7051d896c4c000060080b81526020017fffffffffffffffffffffffffffffffffffffffffffffffffe8686301c9d6000060080b81526020017fffffffffffffffffffffffffffffffffffffffffffffffffe9cba87a2760000060080b81526020017fffffffffffffffffffffffffffffffffffffffffffffffffeb2eedf284ea000060080b81526020017fffffffffffffffffffffffffffffffffffffffffffffffffec92336ae274000060080b81526020017fffffffffffffffffffffffffffffffffffffffffffffffffedf578e33ffe000060080b81526020017fffffffffffffffffffffffffffffffffffffffffffffffffef58be5b9d88000060080b81526020017ffffffffffffffffffffffffffffffffffffffffffffffffff0bc03d3fb12000060080b81526020017ffffffffffffffffffffffffffffffffffffffffffffffffff21f494c589c000060080b81526020017ffffffffffffffffffffffffffffffffffffffffffffffffff3828ec4b626000060080b81526020017ffffffffffffffffffffffffffffffffffffffffffffffffff4e5d43d13b0000060080b81526020017ffffffffffffffffffffffffffffffffffffffffffffffffff64919b5713a000060080b81526020017ffffffffffffffffffffffffffffffffffffffffffffffffff7ac5f2dcec4000060080b81526020017ffffffffffffffffffffffffffffffffffffffffffffffffff90fa4a62c4e000060080b81526020017ffffffffffffffffffffffffffffffffffffffffffffffffffa72ea1e89d8000060080b81526020017ffffffffffffffffffffffffffffffffffffffffffffffffffbd62f96e762000060080b81526020017ffffffffffffffffffffffffffffffffffffffffffffffffffd39750f44ec000060080b81526020017ffffffffffffffffffffffffffffffffffffffffffffffffffe9cba87a276000060080b8152602001600060080b815260200167016345785d8a000060080b81526020016702c68af0bb14000060080b8152602001670429d069189e000060080b815260200167058d15e17628000060080b81526020016706f05b59d3b2000060080b8152602001670853a0d2313c000060080b81526020016709b6e64a8ec6000060080b8152602001670b1a2bc2ec50000060080b8152602001670c7d713b49da000060080b8152602001670de0b6b3a764000060080b8152602001670f43fc2c04ee000060080b81526020016710a741a46278000060080b815260200167120a871cc002000060080b815260200167136dcc951d8c000060080b81526020016714d1120d7b16000060080b81526020016716345785d8a0000060080b81526020016717979cfe362a000060080b81526020016718fae27693b4000060080b8152602001671a5e27eef13e000060080b8152602001671bc16d674ec8000060080b8152602001671d24b2dfac52000060080b8152602001671e87f85809dc000060080b8152602001671feb3dd06766000060080b815260200167214e8348c4f0000060080b81526020016722b1c8c1227a000060080b81526020016724150e398004000060080b815260200167257853b1dd8e000060080b81526020016726db992a3b18000060080b815260200167283edea298a2000060080b81526020016729a2241af62c000060080b81526020016730927f74c9de000060080b8152602001673782dace9d90000060080b8152602001673e7336287142000060080b8152602001674563918244f4000060080b81526020016753444835ec58000060080b8152602001676124fee993bc000060080b8152602001676f05b59d3b20000060080b8152602001677ce66c50e284000060080b8152602001678ac7230489e8000060080b81526020016798a7d9b8314c000060080b815260200167a688906bd8b0000060080b815260200167b469471f8014000060080b815260200167c249fdd32778000060080b815260200167d02ab486cedc000060080b8152509050600060405180610b200160405280600067ffffffffffffffff1681526020016302ac265467ffffffffffffffff168152602001630ea87f4067ffffffffffffffff168152602001635066183867ffffffffffffffff1681526020016401b8fadbca67ffffffffffffffff168152602001640972bbc11467ffffffffffffffff1681526020016433d28609ff67ffffffffffffffff16815260200165011c3d90be9867ffffffffffffffff168152602001650617061e622b67ffffffffffffffff168152602001652166d7d7e58067ffffffffffffffff16815260200165b72cd961350a67ffffffffffffffff1681526020016601ace0ccb0ffd267ffffffffffffffff1681526020016603ebcac407bfa667ffffffffffffffff16815260200166092b644ed8971c67ffffffffffffffff168152602001661566963940bcf867ffffffffffffffff168152602001661957d7dbe793c467ffffffffffffffff168152602001661e0171808fc27467ffffffffffffffff1681526020016623846cc5efa3ce67ffffffffffffffff168152602001662a077e40df04f467ffffffffffffffff1681526020016631b7e487e8c6a067ffffffffffffffff168152602001663aca5f1113221467ffffffffffffffff16815260200166457c3aeabd4c2867ffffffffffffffff16815260200166521470d9790d5067ffffffffffffffff1681526020016660e4ccd85770fc67ffffffffffffffff16815260200166724b1217ecac5c67ffffffffffffffff1681526020016686b20819b6c83067ffffffffffffffff168152602001669e92552cde3d5467ffffffffffffffff16815260200166ba730044d8b20c67ffffffffffffffff16815260200166dae96810784be067ffffffffffffffff16815260200167010098700b8a077c67ffffffffffffffff16815260200167012c2e976c17d5e067ffffffffffffffff16815260200167015e62a3c6761e6c67ffffffffffffffff168152602001670197ee85e83622c067ffffffffffffffff1681526020016701d98828005076f867ffffffffffffffff168152602001670223d7ef126f75f867ffffffffffffffff1681526020016702776ced5782cd9867ffffffffffffffff1681526020016702d4af13f69d342067ffffffffffffffff16815260200167033bd01fb85ed9e067ffffffffffffffff1681526020016703acbc7c7ede19a067ffffffffffffffff1681526020016704270dd934bc304067ffffffffffffffff1681526020016704aa0180a81000d067ffffffffffffffff168152602001670534749bef40ff6867ffffffffffffffff1681526020016705c4e8260172086067ffffffffffffffff1681526020016706598d804261481067ffffffffffffffff1681526020016706f05b59d3b2000067ffffffffffffffff16815260200167078729336502b7f067ffffffffffffffff16815260200167081bce8da5f1f7a067ffffffffffffffff1681526020016708ac4217b823009867ffffffffffffffff168152602001670936b532ff53ff3067ffffffffffffffff1681526020016709b9a8da72a7cfc067ffffffffffffffff168152602001670a33fa372885e66067ffffffffffffffff168152602001670aa4e693ef05262067ffffffffffffffff168152602001670b0c079fb0c6cbe067ffffffffffffffff168152602001670b6949c64fe1326867ffffffffffffffff168152602001670bbcdec494f48a0867ffffffffffffffff168152602001670c072e8ba713890867ffffffffffffffff168152602001670c48c82dbf2ddd4067ffffffffffffffff168152602001670c82540fe0ede06867ffffffffffffffff168152602001670cb4881c3b4c289067ffffffffffffffff168152602001670ce01e439bd9f9b067ffffffffffffffff168152602001670d05cd4b96ebb35867ffffffffffffffff168152602001670d2643b3628b4f2067ffffffffffffffff168152602001670d42245e7a85c3d867ffffffffffffffff168152602001670d5a04ab8dad364067ffffffffffffffff168152602001670d6e6ba18f77534067ffffffffffffffff168152602001670d7fd1e6cf0c90f867ffffffffffffffff168152602001670d8ea242cdeaf12067ffffffffffffffff168152602001670d9b3a78bca6b3d867ffffffffffffffff168152602001670da5ec549650dbf867ffffffffffffffff168152602001670daefecf1f7b396067ffffffffffffffff168152602001670db6af356684faa867ffffffffffffffff168152602001670dbd3246e1745c0067ffffffffffffffff168152602001670dc2b54226d43d7867ffffffffffffffff168152602001670dc75edbcb7c6e3067ffffffffffffffff168152602001670dcb501d6e23444867ffffffffffffffff168152602001670dd78b4f588b699867ffffffffffffffff168152602001670ddccae8e35c416867ffffffffffffffff168152602001670ddf09d2dab3017067ffffffffffffffff168152602001670ddfff86ce02ccd067ffffffffffffffff168152602001670de0954ccf8c1b6867ffffffffffffffff168152602001670de0b09ca1459db867ffffffffffffffff168152602001670de0b59769d3424067ffffffffffffffff168152602001670de0b67fd4ddf56067ffffffffffffffff168152602001670de0b6aa34a83eb867ffffffffffffffff168152602001670de0b6b1ee69256867ffffffffffffffff168152602001670de0b6b356fde86067ffffffffffffffff168152602001670de0b6b398bb7f6067ffffffffffffffff168152602001670de0b6b3a4b7db6067ffffffffffffffff168152602001670de0b6b3a764000067ffffffffffffffff16815250905060005b8483826059811061274c5761274b612e46565b5b602002015160080b121561277157808061276590612e75565b91505060598110612738575b8160006059811061278557612784612e46565b5b602002015167ffffffffffffffff169350605981036127c457816058605981106127b2576127b1612e46565b5b602002015167ffffffffffffffff1693505b6000811180156127d45750605981105b1561294e57826001826127e79190612ebd565b605981106127f8576127f7612e46565b5b602002015160080b83826059811061281357612812612e46565b5b602002015160080b6128259190612ef1565b836001836128339190612ebd565b6059811061284457612843612e46565b5b602002015160080b866128579190612ef1565b83836059811061286a57612869612e46565b5b602002015167ffffffffffffffff166128839190612f34565b61288d9190612fa5565b8360018361289b9190612ebd565b605981106128ac576128ab612e46565b5b602002015160080b8483605981106128c7576128c6612e46565b5b602002015160080b6128d99190612ef1565b868584605981106128ed576128ec612e46565b5b602002015160080b6128ff9190612ef1565b8460018561290d9190612ebd565b6059811061291e5761291d612e46565b5b602002015167ffffffffffffffff166129379190612f34565b6129419190612fa5565b61294b9190612e12565b93505b505050919050565b60008060026001846129689190612e12565b6129729190612fa5565b90508291505b818110156129ad5780915060028182856129929190612fa5565b61299c9190612e12565b6129a69190612fa5565b9050612978565b50919050565b6000808313156129e55760008213156129dc578183136129d357816129d5565b825b90506129e0565b8290505b6129fc565b60008213156129f6578190506129fb565b600090505b5b92915050565b6000612a2a83670de0b6b3a764000084670de0b6b3a7640000612a259190612e12565b612a32565b905092915050565b6000806000801985870985870292508281108382030391505060008103612aa25760008411612a96576040517f08c379a0000000000000000000000000000000000000000000000000000000008152600401612a8d90613033565b60405180910390fd5b83820492505050612b92565b808411612ae4576040517f08c379a0000000000000000000000000000000000000000000000000000000008152600401612adb9061309f565b60405180910390fd5b60008486880990508281118203915080830392506000856001877fffffffffffffffffffffffffffffffffffffffffffffffffffffffffffffffff0301169050808604955080840493506001818260000304019050808302841793506000600287600302189050808702600203810290508087026002038102905080870260020381029050808702600203810290508087026002038102905080870260020381029050808502955050505050505b9392505050565b6000612bae83670de0b6b3a764000084612a32565b905092915050565b6000612bcb8383670de0b6b3a7640000612a32565b905092915050565b600080fd5b6000819050919050565b612beb81612bd8565b8114612bf657600080fd5b50565b600081359050612c0881612be2565b92915050565b600060208284031215612c2457612c23612bd3565b5b6000612c3284828501612bf9565b91505092915050565b6000819050919050565b612c4e81612c3b565b82525050565b6000602082019050612c696000830184612c45565b92915050565b612c7881612c3b565b8114612c8357600080fd5b50565b600081359050612c9581612c6f565b92915050565b60008060408385031215612cb257612cb1612bd3565b5b6000612cc085828601612c86565b9250506020612cd185828601612c86565b9150509250929050565b600060208284031215612cf157612cf0612bd3565b5b6000612cff84828501612c86565b91505092915050565b60008060408385031215612d1f57612d1e612bd3565b5b6000612d2d85828601612bf9565b9250506020612d3e85828601612bf9565b9150509250929050565b600080600060608486031215612d6157612d60612bd3565b5b6000612d6f86828701612c86565b9350506020612d8086828701612c86565b9250506040612d9186828701612c86565b9150509250925092565b7f4e487b7100000000000000000000000000000000000000000000000000000000600052601160045260246000fd5b6000612dd582612bd8565b91507f80000000000000000000000000000000000000000000000000000000000000008203612e0757612e06612d9b565b5b816000039050919050565b6000612e1d82612c3b565b9150612e2883612c3b565b9250828201905080821115612e4057612e3f612d9b565b5b92915050565b7f4e487b7100000000000000000000000000000000000000000000000000000000600052603260045260246000fd5b6000612e8082612c3b565b91507fffffffffffffffffffffffffffffffffffffffffffffffffffffffffffffffff8203612eb257612eb1612d9b565b5b600182019050919050565b6000612ec882612c3b565b9150612ed383612c3b565b9250828203905081811115612eeb57612eea612d9b565b5b92915050565b6000612efc82612bd8565b9150612f0783612bd8565b9250828203905081811260008412168282136000851215161715612f2e57612f2d612d9b565b5b92915050565b6000612f3f82612c3b565b9150612f4a83612c3b565b9250828202612f5881612c3b565b91508282048414831517612f6f57612f6e612d9b565b5b5092915050565b7f4e487b7100000000000000000000000000000000000000000000000000000000600052601260045260246000fd5b6000612fb082612c3b565b9150612fbb83612c3b565b925082612fcb57612fca612f76565b5b828204905092915050565b600082825260208201905092915050565b7f3e3064656e6f6d00000000000000000000000000000000000000000000000000600082015250565b600061301d600783612fd6565b915061302882612fe7565b602082019050919050565b6000602082019050818103600083015261304c81613010565b9050919050565b7f3e70726f64000000000000000000000000000000000000000000000000000000600082015250565b6000613089600583612fd6565b915061309482613053565b602082019050919050565b600060208201905081810360008301526130b88161307c565b905091905056fea2646970667358221220d2ab021a7f27cf038b813a117caf249bff41705a9faa0569d50deae95186b1d864736f6c63430008110033",
  "immutableReferences": {},
  "source": "// SPDX-License-Identifier: MIT\npragma solidity 0.8.17;\n\nlibrary MathLib {\n/// @notice Calculates floor(abdenominator) with full precision. Throws if result overflows a uint256 or denominator == 0\n/// @param a The multiplicand\n/// @param b The multiplier\n/// @param denominator The divisor\n/// @return result The 256-bit result\n/// @dev Credit to Remco Bloemen under MIT license https://xn--2-umb.com/21/muldiv\nfunction muldiv(\n    uint256 a,\n    uint256 b,\n    uint256 denominator\n)  public pure returns (uint256 result) {\n    // 512-bit multiply [prod1 prod0] = a * b\n    // Compute the product mod 2**256 and mod 2**256 - 1\n    // then use the Chinese Remainder Theorem to reconstruct\n    // the 512 bit result. The result is stored in two 256\n    // variables such that product = prod1 * 2**256 + prod0\n    uint256 prod0; // Least significant 256 bits of the product\n    uint256 prod1; // Most significant 256 bits of the product\n    assembly {\n        let mm := mulmod(a, b, not(0))\n        prod0 := mul(a, b)\n        prod1 := sub(sub(mm, prod0), lt(mm, prod0))\n    }\n\n    // Handle non-overflow cases, 256 by 256 division\n    if (prod1 == 0) {\n        require(denominator > 0, '>0denom');\n        assembly {\n            result := div(prod0, denominator)\n        }\n        return result;\n    }\n\n    // Make sure the result is less than 2**256.\n    // Also prevents denominator == 0\n    require(denominator > prod1, '>prod');\n\n    ///////////////////////////////////////////////\n    // 512 by 256 division.\n    ///////////////////////////////////////////////\n\n    // Make division exact by subtracting the remainder from [prod1 prod0]\n    // Compute remainder using mulmod\n    uint256 remainder;\n    assembly {\n        remainder := mulmod(a, b, denominator)\n    }\n    // Subtract 256 bit number from 512 bit number\n    assembly {\n        prod1 := sub(prod1, gt(remainder, prod0))\n        prod0 := sub(prod0, remainder)\n    }\n\n    // Factor powers of two out of denominator\n    // Compute largest power of two divisor of denominator.\n    // Always >= 1.\n    unchecked {\n        uint256 twos = (type(uint256).max - denominator + 1) & denominator;\n        // Divide denominator by power of two\n        assembly {\n            denominator := div(denominator, twos)\n        }\n\n        // Divide [prod1 prod0] by the factors of two\n        assembly {\n            prod0 := div(prod0, twos)\n        }\n        // Shift in bits from prod1 into prod0. For this we need\n        // to flip `twos` such that it is 2**256 / twos.\n        // If twos is zero, then it becomes one\n        assembly {\n            twos := add(div(sub(0, twos), twos), 1)\n        }\n        prod0 |= prod1 * twos;\n\n        // Invert denominator mod 2**256\n        // Now that denominator is an odd number, it has an inverse\n        // modulo 2**256 such that denominator * inv = 1 mod 2**256.\n        // Compute the inverse by starting with a seed that is correct\n        // correct for four bits. That is, denominator * inv = 1 mod 2**4\n        uint256 inv = (3 * denominator) ^ 2;\n        // Now use Newton-Raphson iteration to improve the precision.\n        // Thanks to Hensel's lifting lemma, this also works in modular\n        // arithmetic, doubling the correct bits in each step.\n        inv *= 2 - denominator * inv; // inverse mod 2**8\n        inv *= 2 - denominator * inv; // inverse mod 2**16\n        inv *= 2 - denominator * inv; // inverse mod 2**32\n        inv *= 2 - denominator * inv; // inverse mod 2**64\n        inv *= 2 - denominator * inv; // inverse mod 2**128\n        inv *= 2 - denominator * inv; // inverse mod 2**256\n\n        // Because the division is now exact we can divide by multiplying\n        // with the modular inverse of denominator. This will give us the\n        // correct result modulo 2**256. Since the precoditions guarantee\n        // that the outcome is less than 2**256, this is the final result.\n        // We don't need to compute the high bits of the result and prod1\n        // is no longer required.\n        result = prod0 * inv;\n        return result;\n    }\n}\n\n// see https://medium.com/coinmonks/math-in-solidity-part-3-percents-and-proportions-4db014e080b1#4821\nfunction ethmul (uint256 x, uint256 y) external pure returns (uint256 result)\n{\n    // uint256 z = 1e18;\n    // uint256 a = x / z; uint256 b = x % z; // x = a * z + b\n    // uint256 c = y / z; uint256 d = y % z; // y = c * z + d\n    // return a * b * z + a * d + b * c + b * d / z;\n    return muldiv(x, y, 1e18);\n}\n\nfunction accrue(uint256 x, uint256 i) external pure returns (uint256 result){\n    // uint256 z = 1e18;\n    // uint256 y = 1e18 + i;\n    // uint256 a = x / z; uint256 b = x % z; // x = a * z + b\n    // uint256 c = y / z; uint256 d = y % z; // y = c * z + d\n    // return a * b * z + a * d + b * c + b * d / z;\n    return muldiv(x, 1e18 + i, 1e18);\n}\n\nfunction ethdiv(\n    uint256 a,\n    uint256 b\n)  external pure returns (uint256 result){\n    return muldiv(a, 1e18, b);\n}\n\nfunction discount(\n    uint256 a,\n    uint256 b\n)  external pure returns (uint256 result){\n    return muldiv(a, 1e18, 1e18 + b);\n}\n\n// Babylonian method to find sqrt: https://en.wikipedia.org/wiki/Methods_of_computing_square_roots#Babylonian_method\nfunction sqrt(uint256 x) external pure returns (uint256 y) {\n    uint256 z = (x + 1) / 2;\n    y = x;\n    while (z < y) {\n        y = z;\n        z = (x / z + z) / 2;\n    }\n}\n\nfunction abs(int256 x) external pure returns (uint256 y){\n    y = x>=0?uint256(x):uint256(-x);\n}\n\nfunction logistic(int x) external pure returns (uint y){\n    int72[89] memory xArray = [-15000000000000000000,-14000000000000000000,-13000000000000000000,-12000000000000000000,-11000000000000000000,-10000000000000000000,-9000000000000000000,-8000000000000000000,-7000000000000000000,-6000000000000000000,-5000000000000000000,-4500000000000000000,-4000000000000000000,-3500000000000000000,-3000000000000000000,-2900000000000000000,-2800000000000000000,-2700000000000000000,-2600000000000000000,-2500000000000000000,-2400000000000000000,-2300000000000000000,-2200000000000000000,-2100000000000000000,-2000000000000000000,-1900000000000000000,-1800000000000000000,-1700000000000000000,-1600000000000000000,-1500000000000000000,-1400000000000000000,-1300000000000000000,-1200000000000000000,-1100000000000000000,-1000000000000000000,-900000000000000000,-800000000000000000,-700000000000000000,-600000000000000000,-500000000000000000,-400000000000000000,-300000000000000000,-200000000000000000,-100000000000000000,0,100000000000000000,200000000000000000,300000000000000000,400000000000000000,500000000000000000,600000000000000000,700000000000000000,800000000000000000,900000000000000000,1000000000000000000,1100000000000000000,1200000000000000000,1300000000000000000,1400000000000000000,1500000000000000000,1600000000000000000,1700000000000000000,1800000000000000000,1900000000000000000,2000000000000000000,2100000000000000000,2200000000000000000,2300000000000000000,2400000000000000000,2500000000000000000,2600000000000000000,2700000000000000000,2800000000000000000,2900000000000000000,3000000000000000000,3500000000000000000,4000000000000000000,4500000000000000000,5000000000000000000,6000000000000000000,7000000000000000000,8000000000000000000,9000000000000000000,10000000000000000000,11000000000000000000,12000000000000000000,13000000000000000000,14000000000000000000,15000000000000000000];\n    uint64[89] memory yArray = [0 ,44836436,245923648,1348868152,7398415306,40579612948,222575331839,1220803608216,6695956668971,36725591631232,201403253470474,471556483514322,1103681034895270,2580984609937180,6023769902595320,7133459036738500,8445836301156980,9997226897023950,11830187857478900,13994466019428000,16548058306388500,19558365881257000,23103423007755600,27273166218293500,32170688427895900,37913394740119600,44633940842921300,52480790660428300,61618178085112800,72225201035282300,84493720901637600,98624697397550700,114822574415160000,133287369369483000,154204234067179000,177730476935663000,203980383415252000,233008640395500000,264793720998468000,299223126787240000,336082774279586000,375052882061361000,415712315555580000,457552419163818000,500000000000000000,542447580836182000,584287684444420000,624947117938639000,663917225720414000,700776873212760000,735206279001532000,766991359604500000,796019616584748000,822269523064337000,845795765932821000,866712630630517000,885177425584840000,901375302602449000,915506279098362000,927774798964718000,938381821914887000,947519209339572000,955366059157079000,962086605259880000,967829311572104000,972726833781707000,976896576992244000,980441634118743000,983451941693611000,986005533980572000,988169812142521000,990002773102976000,991554163698843000,992866540963262000,993976230097405000,997419015390063000,998896318965105000,999528443516486000,999798596746530000,999963274408369000,999993304043331000,999998779196392000,999999777424668000,999999959420387000,999999992601585000,999999998651132000,999999999754076000,999999999955164000,1000000000000000000];\n\n    uint i = 0;\n    while(xArray[i]<x){ i++;\n    if(i >= 89){break;} }\n\n    y = uint(yArray[0]);\n    if(i==89) { y =   uint(yArray[88]);}\n    if(i>0 && i<89) { \n        y = (uint(yArray[i-1]) * uint(int(xArray[i]) - x) / uint(int(xArray[i]) - int(xArray[i-1]) )) + (uint(yArray[i]) * uint(x - int(xArray[i-1])) / uint(int(xArray[i]) - int(xArray[i-1]))) ; }    }\n\nfunction normalDensity(int x) external pure returns (uint y){\n    int72[79] memory xArray = [-10000000000000000000,-9000000000000000000,-8000000000000000000,-7000000000000000000,-6000000000000000000,-5000000000000000000,-4500000000000000000,-4000000000000000000,-3500000000000000000,-3000000000000000000,-2900000000000000000,-2800000000000000000,-2700000000000000000,-2600000000000000000,-2500000000000000000,-2400000000000000000,-2300000000000000000,-2200000000000000000,-2100000000000000000,-2000000000000000000,-1900000000000000000,-1800000000000000000,-1700000000000000000,-1600000000000000000,-1500000000000000000,-1400000000000000000,-1300000000000000000,-1200000000000000000,-1100000000000000000,-1000000000000000000,-900000000000000000,-800000000000000000,-700000000000000000,-600000000000000000,-500000000000000000,-400000000000000000,-300000000000000000,-200000000000000000,-100000000000000000,0,100000000000000000,200000000000000000,300000000000000000,400000000000000000,500000000000000000,600000000000000000,700000000000000000,800000000000000000,900000000000000000,1000000000000000000,1100000000000000000,1200000000000000000,1300000000000000000,1400000000000000000,1500000000000000000,1600000000000000000,1700000000000000000,1800000000000000000,1900000000000000000,2000000000000000000,2100000000000000000,2200000000000000000,2300000000000000000,2400000000000000000,2500000000000000000,2600000000000000000,2700000000000000000,2800000000000000000,2900000000000000000,3000000000000000000,3500000000000000000,4000000000000000000,4500000000000000000,5000000000000000000,6000000000000000000,7000000000000000000,8000000000000000000,9000000000000000000,10000000000000000000];\n    uint64[79] memory yArray = [0,1,5052,9134720,6075882849,1486719514734,15983741106905,133830225764885,872682695045760,4431848411938010,5952532419775850,7915451582979970,10420934814422600,13582969233685600,17528300493568500,22394530294842900,28327037741601200,35474592846231400,43983595980427200,53990966513188100,65615814774676600,78950158300894200,94049077376887000,110920834679456000,129517595665892000,149727465635745000,171368592047807000,194186054983213000,217852177032551000,241970724519143000,266085249898755000,289691552761483000,312253933366761000,333224602891800000,352065326764300000,368270140303323000,381387815460524000,391042693975456000,396952547477012000,398942280401433000,396952547477012000,391042693975456000,381387815460524000,368270140303323000,352065326764300000,333224602891800000,312253933366761000,289691552761483000,266085249898755000,241970724519143000,217852177032551000,194186054983213000,171368592047807000,149727465635745000,129517595665892000,110920834679456000,94049077376887000,78950158300894200,65615814774676600,53990966513188100,43983595980427200,35474592846231400,28327037741601200,22394530294842900,17528300493568500,13582969233685600,10420934814422600,7915451582979970,5952532419775850,4431848411938010,872682695045760,133830225764885,15983741106905,1486719514734,6075882849,9134720,5052,1,0];\n\n    uint i = 0;\n    uint iTotal = 79;\n    y=0;\n    while(xArray[i]<x) { \n        i++ ;\n        if(i >= iTotal) {break;}}\n\n    if(i==iTotal) { y =   uint(yArray[i-1]);}\n    if(i>0 && i<iTotal) { \n        y = (uint(yArray[i-1]) * uint(int(xArray[i]) - x) / uint(int(xArray[i]) - int(xArray[i-1]) )) + (uint(yArray[i]) * uint(x - int(xArray[i-1])) / uint(int(xArray[i]) - int(xArray[i-1]))) ; \n        }    \n        }\n\n\nfunction absmax(int x, int y) external pure returns (uint z){\n    if(x > 0)\n    {\n        if (y > 0){\n            z = x > y? uint(x): uint(y);\n        }\n        else{\n            z = uint(x);\n        }\n    }\n    else{\n        if(y>0){\n            z = uint(y);\n        }\n        else{\n            z = 0;\n        }\n    }\n}\n\n}",
  "sourcePath": "/Users/mac/Documents/GitHub/moret/contracts/libraries/MathLib.sol",
  "compiler": {
    "name": "solc",
    "version": "0.8.17+commit.8df45f5f.Emscripten.clang"
  },
  "schemaVersion": "3.4.3",
  "updatedAt": "2023-04-01T11:10:30.713Z",
  "networkType": "ethereum",
  "devdoc": {
    "kind": "dev",
    "methods": {
      "muldiv(uint256,uint256,uint256)": {
        "details": "Credit to Remco Bloemen under MIT license https://xn--2-umb.com/21/muldiv",
        "params": {
          "a": "The multiplicand",
          "b": "The multiplier",
          "denominator": "The divisor"
        },
        "returns": {
          "result": "The 256-bit result"
        }
      }
    },
    "version": 1
  },
  "userdoc": {
    "kind": "user",
    "methods": {
      "muldiv(uint256,uint256,uint256)": {
        "notice": "Calculates floor(abdenominator) with full precision. Throws if result overflows a uint256 or denominator == 0"
      }
    },
    "version": 1
  }
}