{
  "contractName": "Moret",
  "abi": [
    {
      "inputs": [
        {
          "internalType": "contract MoretBroker",
          "name": "_broker",
          "type": "address"
        }
      ],
      "stateMutability": "nonpayable",
      "type": "constructor"
    },
    {
      "anonymous": false,
      "inputs": [
        {
          "indexed": true,
          "internalType": "address",
          "name": "owner",
          "type": "address"
        },
        {
          "indexed": true,
          "internalType": "address",
          "name": "spender",
          "type": "address"
        },
        {
          "indexed": false,
          "internalType": "uint256",
          "name": "value",
          "type": "uint256"
        }
      ],
      "name": "Approval",
      "type": "event"
    },
    {
      "anonymous": false,
      "inputs": [
        {
          "indexed": true,
          "internalType": "address",
          "name": "delegator",
          "type": "address"
        },
        {
          "indexed": true,
          "internalType": "address",
          "name": "fromDelegate",
          "type": "address"
        },
        {
          "indexed": true,
          "internalType": "address",
          "name": "toDelegate",
          "type": "address"
        }
      ],
      "name": "DelegateChanged",
      "type": "event"
    },
    {
      "anonymous": false,
      "inputs": [
        {
          "indexed": true,
          "internalType": "address",
          "name": "delegate",
          "type": "address"
        },
        {
          "indexed": false,
          "internalType": "uint256",
          "name": "previousBalance",
          "type": "uint256"
        },
        {
          "indexed": false,
          "internalType": "uint256",
          "name": "newBalance",
          "type": "uint256"
        }
      ],
      "name": "DelegateVotesChanged",
      "type": "event"
    },
    {
      "anonymous": false,
      "inputs": [
        {
          "indexed": false,
          "internalType": "address",
          "name": "_pool",
          "type": "address"
        },
        {
          "indexed": false,
          "internalType": "address",
          "name": "_sender",
          "type": "address"
        },
        {
          "indexed": false,
          "internalType": "uint256",
          "name": "_amount",
          "type": "uint256"
        },
        {
          "indexed": false,
          "internalType": "uint256",
          "name": "_moretAmount",
          "type": "uint256"
        }
      ],
      "name": "ExchangePoolTokens",
      "type": "event"
    },
    {
      "anonymous": false,
      "inputs": [
        {
          "indexed": true,
          "internalType": "address",
          "name": "previousOwner",
          "type": "address"
        },
        {
          "indexed": true,
          "internalType": "address",
          "name": "newOwner",
          "type": "address"
        }
      ],
      "name": "OwnershipTransferred",
      "type": "event"
    },
    {
      "anonymous": false,
      "inputs": [
        {
          "indexed": true,
          "internalType": "address",
          "name": "from",
          "type": "address"
        },
        {
          "indexed": true,
          "internalType": "address",
          "name": "to",
          "type": "address"
        },
        {
          "indexed": false,
          "internalType": "uint256",
          "name": "value",
          "type": "uint256"
        }
      ],
      "name": "Transfer",
      "type": "event"
    },
    {
      "anonymous": false,
      "inputs": [
        {
          "indexed": false,
          "internalType": "uint256",
          "name": "_fee",
          "type": "uint256"
        }
      ],
      "name": "UpdateProtocolFees",
      "type": "event"
    },
    {
      "anonymous": false,
      "inputs": [
        {
          "indexed": false,
          "internalType": "address",
          "name": "_route",
          "type": "address"
        },
        {
          "indexed": false,
          "internalType": "bool",
          "name": "_addition",
          "type": "bool"
        }
      ],
      "name": "UpdateRoute",
      "type": "event"
    },
    {
      "anonymous": false,
      "inputs": [
        {
          "indexed": false,
          "internalType": "address",
          "name": "_pool",
          "type": "address"
        },
        {
          "indexed": false,
          "internalType": "uint256",
          "name": "_amount",
          "type": "uint256"
        }
      ],
      "name": "WithdrawPoolTokens",
      "type": "event"
    },
    {
      "inputs": [],
      "name": "DOMAIN_SEPARATOR",
      "outputs": [
        {
          "internalType": "bytes32",
          "name": "",
          "type": "bytes32"
        }
      ],
      "stateMutability": "view",
      "type": "function",
      "constant": true
    },
    {
      "inputs": [
        {
          "internalType": "address",
          "name": "owner",
          "type": "address"
        },
        {
          "internalType": "address",
          "name": "spender",
          "type": "address"
        }
      ],
      "name": "allowance",
      "outputs": [
        {
          "internalType": "uint256",
          "name": "",
          "type": "uint256"
        }
      ],
      "stateMutability": "view",
      "type": "function",
      "constant": true
    },
    {
      "inputs": [
        {
          "internalType": "address",
          "name": "spender",
          "type": "address"
        },
        {
          "internalType": "uint256",
          "name": "amount",
          "type": "uint256"
        }
      ],
      "name": "approve",
      "outputs": [
        {
          "internalType": "bool",
          "name": "",
          "type": "bool"
        }
      ],
      "stateMutability": "nonpayable",
      "type": "function"
    },
    {
      "inputs": [
        {
          "internalType": "address",
          "name": "account",
          "type": "address"
        }
      ],
      "name": "balanceOf",
      "outputs": [
        {
          "internalType": "uint256",
          "name": "",
          "type": "uint256"
        }
      ],
      "stateMutability": "view",
      "type": "function",
      "constant": true
    },
    {
      "inputs": [],
      "name": "broker",
      "outputs": [
        {
          "internalType": "contract MoretBroker",
          "name": "",
          "type": "address"
        }
      ],
      "stateMutability": "view",
      "type": "function",
      "constant": true
    },
    {
      "inputs": [
        {
          "internalType": "address",
          "name": "account",
          "type": "address"
        },
        {
          "internalType": "uint32",
          "name": "pos",
          "type": "uint32"
        }
      ],
      "name": "checkpoints",
      "outputs": [
        {
          "components": [
            {
              "internalType": "uint32",
              "name": "fromBlock",
              "type": "uint32"
            },
            {
              "internalType": "uint224",
              "name": "votes",
              "type": "uint224"
            }
          ],
          "internalType": "struct ERC20Votes.Checkpoint",
          "name": "",
          "type": "tuple"
        }
      ],
      "stateMutability": "view",
      "type": "function",
      "constant": true
    },
    {
      "inputs": [],
      "name": "decimals",
      "outputs": [
        {
          "internalType": "uint8",
          "name": "",
          "type": "uint8"
        }
      ],
      "stateMutability": "view",
      "type": "function",
      "constant": true
    },
    {
      "inputs": [
        {
          "internalType": "address",
          "name": "spender",
          "type": "address"
        },
        {
          "internalType": "uint256",
          "name": "subtractedValue",
          "type": "uint256"
        }
      ],
      "name": "decreaseAllowance",
      "outputs": [
        {
          "internalType": "bool",
          "name": "",
          "type": "bool"
        }
      ],
      "stateMutability": "nonpayable",
      "type": "function"
    },
    {
      "inputs": [
        {
          "internalType": "address",
          "name": "delegatee",
          "type": "address"
        }
      ],
      "name": "delegate",
      "outputs": [],
      "stateMutability": "nonpayable",
      "type": "function"
    },
    {
      "inputs": [
        {
          "internalType": "address",
          "name": "delegatee",
          "type": "address"
        },
        {
          "internalType": "uint256",
          "name": "nonce",
          "type": "uint256"
        },
        {
          "internalType": "uint256",
          "name": "expiry",
          "type": "uint256"
        },
        {
          "internalType": "uint8",
          "name": "v",
          "type": "uint8"
        },
        {
          "internalType": "bytes32",
          "name": "r",
          "type": "bytes32"
        },
        {
          "internalType": "bytes32",
          "name": "s",
          "type": "bytes32"
        }
      ],
      "name": "delegateBySig",
      "outputs": [],
      "stateMutability": "nonpayable",
      "type": "function"
    },
    {
      "inputs": [
        {
          "internalType": "address",
          "name": "account",
          "type": "address"
        }
      ],
      "name": "delegates",
      "outputs": [
        {
          "internalType": "address",
          "name": "",
          "type": "address"
        }
      ],
      "stateMutability": "view",
      "type": "function",
      "constant": true
    },
    {
      "inputs": [],
      "name": "funding",
      "outputs": [
        {
          "internalType": "contract ERC20",
          "name": "",
          "type": "address"
        }
      ],
      "stateMutability": "view",
      "type": "function",
      "constant": true
    },
    {
      "inputs": [
        {
          "internalType": "uint256",
          "name": "blockNumber",
          "type": "uint256"
        }
      ],
      "name": "getPastTotalSupply",
      "outputs": [
        {
          "internalType": "uint256",
          "name": "",
          "type": "uint256"
        }
      ],
      "stateMutability": "view",
      "type": "function",
      "constant": true
    },
    {
      "inputs": [
        {
          "internalType": "address",
          "name": "account",
          "type": "address"
        },
        {
          "internalType": "uint256",
          "name": "blockNumber",
          "type": "uint256"
        }
      ],
      "name": "getPastVotes",
      "outputs": [
        {
          "internalType": "uint256",
          "name": "",
          "type": "uint256"
        }
      ],
      "stateMutability": "view",
      "type": "function",
      "constant": true
    },
    {
      "inputs": [
        {
          "internalType": "address",
          "name": "account",
          "type": "address"
        }
      ],
      "name": "getVotes",
      "outputs": [
        {
          "internalType": "uint256",
          "name": "",
          "type": "uint256"
        }
      ],
      "stateMutability": "view",
      "type": "function",
      "constant": true
    },
    {
      "inputs": [
        {
          "internalType": "address",
          "name": "spender",
          "type": "address"
        },
        {
          "internalType": "uint256",
          "name": "addedValue",
          "type": "uint256"
        }
      ],
      "name": "increaseAllowance",
      "outputs": [
        {
          "internalType": "bool",
          "name": "",
          "type": "bool"
        }
      ],
      "stateMutability": "nonpayable",
      "type": "function"
    },
    {
      "inputs": [],
      "name": "name",
      "outputs": [
        {
          "internalType": "string",
          "name": "",
          "type": "string"
        }
      ],
      "stateMutability": "view",
      "type": "function",
      "constant": true
    },
    {
      "inputs": [
        {
          "internalType": "address",
          "name": "owner",
          "type": "address"
        }
      ],
      "name": "nonces",
      "outputs": [
        {
          "internalType": "uint256",
          "name": "",
          "type": "uint256"
        }
      ],
      "stateMutability": "view",
      "type": "function",
      "constant": true
    },
    {
      "inputs": [
        {
          "internalType": "address",
          "name": "account",
          "type": "address"
        }
      ],
      "name": "numCheckpoints",
      "outputs": [
        {
          "internalType": "uint32",
          "name": "",
          "type": "uint32"
        }
      ],
      "stateMutability": "view",
      "type": "function",
      "constant": true
    },
    {
      "inputs": [],
      "name": "owner",
      "outputs": [
        {
          "internalType": "address",
          "name": "",
          "type": "address"
        }
      ],
      "stateMutability": "view",
      "type": "function",
      "constant": true
    },
    {
      "inputs": [
        {
          "internalType": "address",
          "name": "owner",
          "type": "address"
        },
        {
          "internalType": "address",
          "name": "spender",
          "type": "address"
        },
        {
          "internalType": "uint256",
          "name": "value",
          "type": "uint256"
        },
        {
          "internalType": "uint256",
          "name": "deadline",
          "type": "uint256"
        },
        {
          "internalType": "uint8",
          "name": "v",
          "type": "uint8"
        },
        {
          "internalType": "bytes32",
          "name": "r",
          "type": "bytes32"
        },
        {
          "internalType": "bytes32",
          "name": "s",
          "type": "bytes32"
        }
      ],
      "name": "permit",
      "outputs": [],
      "stateMutability": "nonpayable",
      "type": "function"
    },
    {
      "inputs": [],
      "name": "protocolFee",
      "outputs": [
        {
          "internalType": "uint256",
          "name": "",
          "type": "uint256"
        }
      ],
      "stateMutability": "view",
      "type": "function",
      "constant": true
    },
    {
      "inputs": [],
      "name": "protocolFeeRecipient",
      "outputs": [
        {
          "internalType": "address",
          "name": "",
          "type": "address"
        }
      ],
      "stateMutability": "view",
      "type": "function",
      "constant": true
    },
    {
      "inputs": [],
      "name": "renounceOwnership",
      "outputs": [],
      "stateMutability": "nonpayable",
      "type": "function"
    },
    {
      "inputs": [],
      "name": "symbol",
      "outputs": [
        {
          "internalType": "string",
          "name": "",
          "type": "string"
        }
      ],
      "stateMutability": "view",
      "type": "function",
      "constant": true
    },
    {
      "inputs": [],
      "name": "totalSupply",
      "outputs": [
        {
          "internalType": "uint256",
          "name": "",
          "type": "uint256"
        }
      ],
      "stateMutability": "view",
      "type": "function",
      "constant": true
    },
    {
      "inputs": [
        {
          "internalType": "address",
          "name": "to",
          "type": "address"
        },
        {
          "internalType": "uint256",
          "name": "amount",
          "type": "uint256"
        }
      ],
      "name": "transfer",
      "outputs": [
        {
          "internalType": "bool",
          "name": "",
          "type": "bool"
        }
      ],
      "stateMutability": "nonpayable",
      "type": "function"
    },
    {
      "inputs": [
        {
          "internalType": "address",
          "name": "from",
          "type": "address"
        },
        {
          "internalType": "address",
          "name": "to",
          "type": "address"
        },
        {
          "internalType": "uint256",
          "name": "amount",
          "type": "uint256"
        }
      ],
      "name": "transferFrom",
      "outputs": [
        {
          "internalType": "bool",
          "name": "",
          "type": "bool"
        }
      ],
      "stateMutability": "nonpayable",
      "type": "function"
    },
    {
      "inputs": [
        {
          "internalType": "address",
          "name": "newOwner",
          "type": "address"
        }
      ],
      "name": "transferOwnership",
      "outputs": [],
      "stateMutability": "nonpayable",
      "type": "function"
    },
    {
      "inputs": [
        {
          "internalType": "address",
          "name": "_to",
          "type": "address"
        },
        {
          "internalType": "uint256",
          "name": "_amount",
          "type": "uint256"
        }
      ],
      "name": "mint",
      "outputs": [],
      "stateMutability": "nonpayable",
      "type": "function"
    },
    {
      "inputs": [
        {
          "internalType": "uint256",
          "name": "_amount",
          "type": "uint256"
        }
      ],
      "name": "divest",
      "outputs": [],
      "stateMutability": "nonpayable",
      "type": "function"
    },
    {
      "inputs": [
        {
          "internalType": "contract Pool",
          "name": "_pool",
          "type": "address"
        },
        {
          "internalType": "uint256",
          "name": "_amount",
          "type": "uint256"
        }
      ],
      "name": "withdraw",
      "outputs": [],
      "stateMutability": "nonpayable",
      "type": "function"
    },
    {
      "inputs": [
        {
          "internalType": "uint256",
          "name": "_newFee",
          "type": "uint256"
        }
      ],
      "name": "setProtocolFee",
      "outputs": [],
      "stateMutability": "nonpayable",
      "type": "function"
    },
    {
      "inputs": [
        {
          "internalType": "address",
          "name": "_newAddress",
          "type": "address"
        }
      ],
      "name": "setProtocolRecipient",
      "outputs": [],
      "stateMutability": "nonpayable",
      "type": "function"
    },
    {
      "inputs": [],
      "name": "getAllUnderlyings",
      "outputs": [
        {
          "internalType": "address[]",
          "name": "",
          "type": "address[]"
        }
      ],
      "stateMutability": "view",
      "type": "function",
      "constant": true
    },
    {
      "inputs": [
        {
          "internalType": "address",
          "name": "_underlyingAddress",
          "type": "address"
        },
        {
          "internalType": "contract VolatilityChain",
          "name": "_newOracle",
          "type": "address"
        }
      ],
      "name": "updateVolChain",
      "outputs": [],
      "stateMutability": "nonpayable",
      "type": "function"
    },
    {
      "inputs": [
        {
          "internalType": "address",
          "name": "_underlyingAddress",
          "type": "address"
        }
      ],
      "name": "getVolatilityChain",
      "outputs": [
        {
          "internalType": "contract VolatilityChain",
          "name": "",
          "type": "address"
        }
      ],
      "stateMutability": "view",
      "type": "function",
      "constant": true
    },
    {
      "inputs": [
        {
          "internalType": "address",
          "name": "_underlyingAddress",
          "type": "address"
        },
        {
          "internalType": "uint256",
          "name": "_tenor",
          "type": "uint256"
        },
        {
          "internalType": "contract VolatilityToken",
          "name": "_volToken",
          "type": "address"
        }
      ],
      "name": "updateVolToken",
      "outputs": [],
      "stateMutability": "nonpayable",
      "type": "function"
    },
    {
      "inputs": [
        {
          "internalType": "address",
          "name": "_underlyingAddress",
          "type": "address"
        },
        {
          "internalType": "uint256",
          "name": "_tenor",
          "type": "uint256"
        }
      ],
      "name": "getVolatilityToken",
      "outputs": [
        {
          "internalType": "contract VolatilityToken",
          "name": "",
          "type": "address"
        }
      ],
      "stateMutability": "view",
      "type": "function",
      "constant": true
    },
    {
      "inputs": [
        {
          "internalType": "address",
          "name": "_route",
          "type": "address"
        },
        {
          "internalType": "bool",
          "name": "_add",
          "type": "bool"
        }
      ],
      "name": "updateEligibleRoute",
      "outputs": [
        {
          "internalType": "bool",
          "name": "",
          "type": "bool"
        }
      ],
      "stateMutability": "nonpayable",
      "type": "function"
    },
    {
      "inputs": [
        {
          "internalType": "address",
          "name": "_route",
          "type": "address"
        }
      ],
      "name": "existEligibleRoute",
      "outputs": [
        {
          "internalType": "bool",
          "name": "",
          "type": "bool"
        }
      ],
      "stateMutability": "view",
      "type": "function",
      "constant": true
    },
    {
      "inputs": [
        {
          "internalType": "address",
          "name": "_poolAddress",
          "type": "address"
        },
        {
          "internalType": "bool",
          "name": "_add",
          "type": "bool"
        }
      ],
      "name": "updateVolTradingPool",
      "outputs": [
        {
          "internalType": "bool",
          "name": "",
          "type": "bool"
        }
      ],
      "stateMutability": "nonpayable",
      "type": "function"
    },
    {
      "inputs": [
        {
          "internalType": "address",
          "name": "_poolAddress",
          "type": "address"
        }
      ],
      "name": "existVolTradingPool",
      "outputs": [
        {
          "internalType": "bool",
          "name": "",
          "type": "bool"
        }
      ],
      "stateMutability": "view",
      "type": "function",
      "constant": true
    }
  ],
  "bytecode": "0x6101406040526611c37937e080006013553480156200001d57600080fd5b50604051620072a4380380620072a4833981810160405281019062000043919062000e1b565b6040518060400160405280600581526020017f4d6f726574000000000000000000000000000000000000000000000000000000815250806040518060400160405280600181526020017f31000000000000000000000000000000000000000000000000000000000000008152506040518060400160405280600581526020017f4d6f7265740000000000000000000000000000000000000000000000000000008152506040518060400160405280600381526020017f4d4f52000000000000000000000000000000000000000000000000000000000081525081600390816200012d9190620010c7565b5080600490816200013f9190620010c7565b50505062000162620001566200036c60201b60201c565b6200037460201b60201c565b60008280519060200120905060008280519060200120905060007f8b73c3c69bb8fe3d512ecc4cf759cc79239f7b179b0ffacaa9a75d522b39400f90508260e081815250508161010081815250504660a08181525050620001cb8184846200043a60201b60201c565b608081815250503073ffffffffffffffffffffffffffffffffffffffff1660c08173ffffffffffffffffffffffffffffffffffffffff168152505080610120818152505050505050505080601660006101000a81548173ffffffffffffffffffffffffffffffffffffffff021916908373ffffffffffffffffffffffffffffffffffffffff1602179055508073ffffffffffffffffffffffffffffffffffffffff1663cb4c86b76040518163ffffffff1660e01b8152600401602060405180830381865afa158015620002a2573d6000803e3d6000fd5b505050506040513d601f19601f82011682018060405250810190620002c89190620011f3565b601560006101000a81548173ffffffffffffffffffffffffffffffffffffffff021916908373ffffffffffffffffffffffffffffffffffffffff160217905550620003243369d3c21bcecceda10000006200047660201b60201c565b33601460006101000a81548173ffffffffffffffffffffffffffffffffffffffff021916908373ffffffffffffffffffffffffffffffffffffffff160217905550506200164a565b600033905090565b6000600560009054906101000a900473ffffffffffffffffffffffffffffffffffffffff16905081600560006101000a81548173ffffffffffffffffffffffffffffffffffffffff021916908373ffffffffffffffffffffffffffffffffffffffff1602179055508173ffffffffffffffffffffffffffffffffffffffff168173ffffffffffffffffffffffffffffffffffffffff167f8be0079c531659141344cd1fd0a4f28419497f9722a3daafe3b4186f6b6457e060405160405180910390a35050565b600083838346306040516020016200045795949392919062001262565b6040516020818303038152906040528051906020012090509392505050565b6200048d82826200049160201b620022441760201c565b5050565b620004a882826200054f60201b620022d11760201c565b620004b8620006c760201b60201c565b7bffffffffffffffffffffffffffffffffffffffffffffffffffffffff16620004e6620006eb60201b60201c565b11156200052a576040517f08c379a0000000000000000000000000000000000000000000000000000000008152600401620005219062001346565b60405180910390fd5b62000549600a620006f560201b6200243017836200070d60201b60201c565b50505050565b600073ffffffffffffffffffffffffffffffffffffffff168273ffffffffffffffffffffffffffffffffffffffff1603620005c1576040517f08c379a0000000000000000000000000000000000000000000000000000000008152600401620005b890620013b8565b60405180910390fd5b620005d560008383620009be60201b60201c565b8060026000828254620005e9919062001409565b92505081905550806000808473ffffffffffffffffffffffffffffffffffffffff1673ffffffffffffffffffffffffffffffffffffffff168152602001908152602001600020600082825462000640919062001409565b925050819055508173ffffffffffffffffffffffffffffffffffffffff16600073ffffffffffffffffffffffffffffffffffffffff167fddf252ad1be2c89b69c2b068fc378daa952ba7f163c4a11628f55a4df523b3ef83604051620006a7919062001466565b60405180910390a3620006c360008383620009c360201b60201c565b5050565b60007bffffffffffffffffffffffffffffffffffffffffffffffffffffffff905090565b6000600254905090565b6000818362000705919062001409565b905092915050565b6000806000858054905090506000811462000782578560018262000732919062001483565b81548110620007465762000745620014be565b5b9060005260206000200160000160049054906101000a90047bffffffffffffffffffffffffffffffffffffffffffffffffffffffff1662000785565b60005b7bffffffffffffffffffffffffffffffffffffffffffffffffffffffff169250620007b183858760201c565b91506000811180156200080a57504386600183620007d0919062001483565b81548110620007e457620007e3620014be565b5b9060005260206000200160000160009054906101000a900463ffffffff1663ffffffff16145b15620008ab576200082682620009e060201b620024461760201c565b8660018362000836919062001483565b815481106200084a5762000849620014be565b5b9060005260206000200160000160046101000a8154817bffffffffffffffffffffffffffffffffffffffffffffffffffffffff02191690837bffffffffffffffffffffffffffffffffffffffffffffffffffffffff160217905550620009b5565b856040518060400160405280620008cd4362000a4e60201b620024b11760201c565b63ffffffff168152602001620008ee85620009e060201b620024461760201c565b7bffffffffffffffffffffffffffffffffffffffffffffffffffffffff168152509080600181540180825580915050600190039060005260206000200160009091909190915060008201518160000160006101000a81548163ffffffff021916908363ffffffff16021790555060208201518160000160046101000a8154817bffffffffffffffffffffffffffffffffffffffffffffffffffffffff02191690837bffffffffffffffffffffffffffffffffffffffffffffffffffffffff16021790555050505b50935093915050565b505050565b620009db83838362000aa460201b620025041760201c565b505050565b60007bffffffffffffffffffffffffffffffffffffffffffffffffffffffff801682111562000a46576040517f08c379a000000000000000000000000000000000000000000000000000000000815260040162000a3d9062001563565b60405180910390fd5b819050919050565b600063ffffffff801682111562000a9c576040517f08c379a000000000000000000000000000000000000000000000000000000000815260040162000a9390620015fb565b60405180910390fd5b819050919050565b62000abc83838362000af460201b6200252f1760201c565b62000aef62000ad18462000af960201b60201c565b62000ae28462000af960201b60201c565b8362000b6260201b60201c565b505050565b505050565b6000600860008373ffffffffffffffffffffffffffffffffffffffff1673ffffffffffffffffffffffffffffffffffffffff16815260200190815260200160002060009054906101000a900473ffffffffffffffffffffffffffffffffffffffff169050919050565b8173ffffffffffffffffffffffffffffffffffffffff168373ffffffffffffffffffffffffffffffffffffffff161415801562000b9f5750600081115b1562000d8057600073ffffffffffffffffffffffffffffffffffffffff168373ffffffffffffffffffffffffffffffffffffffff161462000c925760008062000c39600960008773ffffffffffffffffffffffffffffffffffffffff1673ffffffffffffffffffffffffffffffffffffffff16815260200190815260200160002062000d8560201b6200253417856200070d60201b60201c565b915091508473ffffffffffffffffffffffffffffffffffffffff167fdec2bacdd2f05b59de34da9b523dff8be42e5e38e818c82fdb0bae774387a724838360405162000c879291906200161d565b60405180910390a250505b600073ffffffffffffffffffffffffffffffffffffffff168273ffffffffffffffffffffffffffffffffffffffff161462000d7f5760008062000d26600960008673ffffffffffffffffffffffffffffffffffffffff1673ffffffffffffffffffffffffffffffffffffffff168152602001908152602001600020620006f560201b6200243017856200070d60201b60201c565b915091508373ffffffffffffffffffffffffffffffffffffffff167fdec2bacdd2f05b59de34da9b523dff8be42e5e38e818c82fdb0bae774387a724838360405162000d749291906200161d565b60405180910390a250505b5b505050565b6000818362000d95919062001483565b905092915050565b600080fd5b600073ffffffffffffffffffffffffffffffffffffffff82169050919050565b600062000dcf8262000da2565b9050919050565b600062000de38262000dc2565b9050919050565b62000df58162000dd6565b811462000e0157600080fd5b50565b60008151905062000e158162000dea565b92915050565b60006020828403121562000e345762000e3362000d9d565b5b600062000e448482850162000e04565b91505092915050565b600081519050919050565b7f4e487b7100000000000000000000000000000000000000000000000000000000600052604160045260246000fd5b7f4e487b7100000000000000000000000000000000000000000000000000000000600052602260045260246000fd5b6000600282049050600182168062000ecf57607f821691505b60208210810362000ee55762000ee462000e87565b5b50919050565b60008190508160005260206000209050919050565b60006020601f8301049050919050565b600082821b905092915050565b60006008830262000f4f7fffffffffffffffffffffffffffffffffffffffffffffffffffffffffffffffff8262000f10565b62000f5b868362000f10565b95508019841693508086168417925050509392505050565b6000819050919050565b6000819050919050565b600062000fa862000fa262000f9c8462000f73565b62000f7d565b62000f73565b9050919050565b6000819050919050565b62000fc48362000f87565b62000fdc62000fd38262000faf565b84845462000f1d565b825550505050565b600090565b62000ff362000fe4565b6200100081848462000fb9565b505050565b5b8181101562001028576200101c60008262000fe9565b60018101905062001006565b5050565b601f8211156200107757620010418162000eeb565b6200104c8462000f00565b810160208510156200105c578190505b620010746200106b8562000f00565b83018262001005565b50505b505050565b600082821c905092915050565b60006200109c600019846008026200107c565b1980831691505092915050565b6000620010b7838362001089565b9150826002028217905092915050565b620010d28262000e4d565b67ffffffffffffffff811115620010ee57620010ed62000e58565b5b620010fa825462000eb6565b620011078282856200102c565b600060209050601f8311600181146200113f57600084156200112a578287015190505b620011368582620010a9565b865550620011a6565b601f1984166200114f8662000eeb565b60005b82811015620011795784890151825560018201915060208501945060208101905062001152565b8683101562001199578489015162001195601f89168262001089565b8355505b6001600288020188555050505b505050505050565b6000620011bb8262000dc2565b9050919050565b620011cd81620011ae565b8114620011d957600080fd5b50565b600081519050620011ed81620011c2565b92915050565b6000602082840312156200120c576200120b62000d9d565b5b60006200121c84828501620011dc565b91505092915050565b6000819050919050565b6200123a8162001225565b82525050565b6200124b8162000f73565b82525050565b6200125c8162000dc2565b82525050565b600060a0820190506200127960008301886200122f565b6200128860208301876200122f565b6200129760408301866200122f565b620012a6606083018562001240565b620012b5608083018462001251565b9695505050505050565b600082825260208201905092915050565b7f4552433230566f7465733a20746f74616c20737570706c79207269736b73206f60008201527f766572666c6f77696e6720766f74657300000000000000000000000000000000602082015250565b60006200132e603083620012bf565b91506200133b82620012d0565b604082019050919050565b6000602082019050818103600083015262001361816200131f565b9050919050565b7f45524332303a206d696e7420746f20746865207a65726f206164647265737300600082015250565b6000620013a0601f83620012bf565b9150620013ad8262001368565b602082019050919050565b60006020820190508181036000830152620013d38162001391565b9050919050565b7f4e487b7100000000000000000000000000000000000000000000000000000000600052601160045260246000fd5b6000620014168262000f73565b9150620014238362000f73565b9250827fffffffffffffffffffffffffffffffffffffffffffffffffffffffffffffffff038211156200145b576200145a620013da565b5b828201905092915050565b60006020820190506200147d600083018462001240565b92915050565b6000620014908262000f73565b91506200149d8362000f73565b925082821015620014b357620014b2620013da565b5b828203905092915050565b7f4e487b7100000000000000000000000000000000000000000000000000000000600052603260045260246000fd5b7f53616665436173743a2076616c756520646f65736e27742066697420696e203260008201527f3234206269747300000000000000000000000000000000000000000000000000602082015250565b60006200154b602783620012bf565b91506200155882620014ed565b604082019050919050565b600060208201905081810360008301526200157e816200153c565b9050919050565b7f53616665436173743a2076616c756520646f65736e27742066697420696e203360008201527f3220626974730000000000000000000000000000000000000000000000000000602082015250565b6000620015e3602683620012bf565b9150620015f08262001585565b604082019050919050565b600060208201905081810360008301526200161681620015d4565b9050919050565b600060408201905062001634600083018562001240565b62001643602083018462001240565b9392505050565b60805160a05160c05160e0516101005161012051615c0a6200169a6000396000612b0401526000612b4601526000612b2501526000612a5a01526000612ab001526000612ad90152615c0a6000f3fe608060405234801561001057600080fd5b50600436106102695760003560e01c80638ca1799511610151578063c3cda520116100c3578063dd62ed3e11610087578063dd62ed3e146107d2578063edabed8f14610802578063ef5ddd3a1461081e578063f1127ed81461084e578063f2fde38b1461087e578063f3fef3a31461089a57610269565b8063c3cda5201461072e578063c3f80bc41461074a578063cb4c86b714610768578063d505accf14610786578063d5fb0a2a146107a257610269565b80639ab24eb0116101155780639ab24eb014610646578063a457c2d714610676578063a9059cbb146106a6578063abff0110146106d6578063b0e21e8a146106f4578063bb3260e41461071257610269565b80638ca179951461058e5780638da5cb5b146105aa5780638e539e8c146105c857806391d0094c146105f857806395d89b411461062857610269565b80633a46b1a8116101ea5780636cce8916116101ae5780636cce8916146104a85780636fcfff45146104d857806370a0823114610508578063715018a614610538578063787dce3d146105425780637ecebe001461055e57610269565b80633a46b1a8146103f257806340c10f1914610422578063587cde1e1461043e5780635c19a95c1461046e57806364df049e1461048a57610269565b806323b872dd1161023157806323b872dd14610326578063255fdcff14610356578063313ce567146103865780633644e515146103a457806339509351146103c257610269565b806306fdde031461026e57806307ba8a541461028c578063095ea7b3146102a857806315dc2e9d146102d857806318160ddd14610308575b600080fd5b6102766108b6565b6040516102839190613ddc565b60405180910390f35b6102a660048036038101906102a19190613e61565b610948565b005b6102c260048036038101906102bd9190613ec4565b610a77565b6040516102cf9190613f1f565b60405180910390f35b6102f260048036038101906102ed9190613e61565b610a9a565b6040516102ff9190613f99565b60405180910390f35b610310610bd0565b60405161031d9190613fc3565b60405180910390f35b610340600480360381019061033b9190613fde565b610bda565b60405161034d9190613f1f565b60405180910390f35b610370600480360381019061036b9190613e61565b610c09565b60405161037d9190613f1f565b60405180910390f35b61038e610c26565b60405161039b919061404d565b60405180910390f35b6103ac610c2f565b6040516103b99190614081565b60405180910390f35b6103dc60048036038101906103d79190613ec4565b610c3e565b6040516103e99190613f1f565b60405180910390f35b61040c60048036038101906104079190613ec4565b610c75565b6040516104199190613fc3565b60405180910390f35b61043c60048036038101906104379190613ec4565b610d09565b005b61045860048036038101906104539190613e61565b610da7565b60405161046591906140ab565b60405180910390f35b61048860048036038101906104839190613e61565b610e10565b005b610492610e24565b60405161049f91906140ab565b60405180910390f35b6104c260048036038101906104bd9190613ec4565b610e4a565b6040516104cf91906140e7565b60405180910390f35b6104f260048036038101906104ed9190613e61565b610eef565b6040516104ff9190614121565b60405180910390f35b610522600480360381019061051d9190613e61565b610f43565b60405161052f9190613fc3565b60405180910390f35b610540610f8b565b005b61055c6004803603810190610557919061413c565b611013565b005b61057860048036038101906105739190613e61565b6110d0565b6040516105859190613fc3565b60405180910390f35b6105a860048036038101906105a3919061413c565b611120565b005b6105b26112f3565b6040516105bf91906140ab565b60405180910390f35b6105e260048036038101906105dd919061413c565b61131d565b6040516105ef9190613fc3565b60405180910390f35b610612600480360381019061060d9190614195565b611373565b60405161061f9190613f1f565b60405180910390f35b61063061149e565b60405161063d9190613ddc565b60405180910390f35b610660600480360381019061065b9190613e61565b611530565b60405161066d9190613fc3565b60405180910390f35b610690600480360381019061068b9190613ec4565b611641565b60405161069d9190613f1f565b60405180910390f35b6106c060048036038101906106bb9190613ec4565b6116b8565b6040516106cd9190613f1f565b60405180910390f35b6106de6116db565b6040516106eb91906141f6565b60405180910390f35b6106fc611701565b6040516107099190613fc3565b60405180910390f35b61072c6004803603810190610727919061424f565b611707565b005b610748600480360381019061074391906142e7565b611833565b005b610752611937565b60405161075f9190614432565b60405180910390f35b610770611948565b60405161077d9190614475565b60405180910390f35b6107a0600480360381019061079b9190614490565b61196e565b005b6107bc60048036038101906107b79190613e61565b611ab0565b6040516107c99190613f1f565b60405180910390f35b6107ec60048036038101906107e79190614532565b611acd565b6040516107f99190613fc3565b60405180910390f35b61081c600480360381019061081791906145b0565b611b54565b005b61083860048036038101906108339190614195565b611d7e565b6040516108459190613f1f565b60405180910390f35b6108686004803603810190610863919061462f565b611ea9565b60405161087591906146e4565b60405180910390f35b61089860048036038101906108939190613e61565b611fb9565b005b6108b460048036038101906108af919061473d565b6120b0565b005b6060600380546108c5906147ac565b80601f01602080910402602001604051908101604052809291908181526020018280546108f1906147ac565b801561093e5780601f106109135761010080835404028352916020019161093e565b820191906000526020600020905b81548152906001019060200180831161092157829003601f168201915b5050505050905090565b61095061254a565b73ffffffffffffffffffffffffffffffffffffffff1661096e6112f3565b73ffffffffffffffffffffffffffffffffffffffff16146109c4576040517f08c379a00000000000000000000000000000000000000000000000000000000081526004016109bb90614829565b60405180910390fd5b600073ffffffffffffffffffffffffffffffffffffffff168173ffffffffffffffffffffffffffffffffffffffff1603610a33576040517f08c379a0000000000000000000000000000000000000000000000000000000008152600401610a2a90614895565b60405180910390fd5b80601460006101000a81548173ffffffffffffffffffffffffffffffffffffffff021916908373ffffffffffffffffffffffffffffffffffffffff16021790555050565b600080610a8261254a565b9050610a8f818585612552565b600191505092915050565b60008073ffffffffffffffffffffffffffffffffffffffff16600d60008473ffffffffffffffffffffffffffffffffffffffff1673ffffffffffffffffffffffffffffffffffffffff16815260200190815260200160002060009054906101000a900473ffffffffffffffffffffffffffffffffffffffff1673ffffffffffffffffffffffffffffffffffffffff1603610b69576040517f08c379a0000000000000000000000000000000000000000000000000000000008152600401610b6090614901565b60405180910390fd5b600d60008373ffffffffffffffffffffffffffffffffffffffff1673ffffffffffffffffffffffffffffffffffffffff16815260200190815260200160002060009054906101000a900473ffffffffffffffffffffffffffffffffffffffff169050919050565b6000600254905090565b600080610be561254a565b9050610bf285828561271b565b610bfd8585856127a7565b60019150509392505050565b6000610c1f826011612a2690919063ffffffff16565b9050919050565b60006012905090565b6000610c39612a56565b905090565b600080610c4961254a565b9050610c6a818585610c5b8589611acd565b610c659190614950565b612552565b600191505092915050565b6000438210610cb9576040517f08c379a0000000000000000000000000000000000000000000000000000000008152600401610cb0906149f2565b60405180910390fd5b610d01600960008573ffffffffffffffffffffffffffffffffffffffff1673ffffffffffffffffffffffffffffffffffffffff16815260200190815260200160002083612b70565b905092915050565b3373ffffffffffffffffffffffffffffffffffffffff16601660009054906101000a900473ffffffffffffffffffffffffffffffffffffffff1673ffffffffffffffffffffffffffffffffffffffff1614610d99576040517f08c379a0000000000000000000000000000000000000000000000000000000008152600401610d9090614a5e565b60405180910390fd5b610da38282612c7c565b5050565b6000600860008373ffffffffffffffffffffffffffffffffffffffff1673ffffffffffffffffffffffffffffffffffffffff16815260200190815260200160002060009054906101000a900473ffffffffffffffffffffffffffffffffffffffff169050919050565b610e21610e1b61254a565b82612c8a565b50565b601460009054906101000a900473ffffffffffffffffffffffffffffffffffffffff1681565b6000806000610ea084600e60008873ffffffffffffffffffffffffffffffffffffffff1673ffffffffffffffffffffffffffffffffffffffff168152602001908152602001600020612da490919063ffffffff16565b9150915081610ee4576040517f08c379a0000000000000000000000000000000000000000000000000000000008152600401610edb90614aca565b60405180910390fd5b809250505092915050565b6000610f3c600960008473ffffffffffffffffffffffffffffffffffffffff1673ffffffffffffffffffffffffffffffffffffffff168152602001908152602001600020805490506124b1565b9050919050565b60008060008373ffffffffffffffffffffffffffffffffffffffff1673ffffffffffffffffffffffffffffffffffffffff168152602001908152602001600020549050919050565b610f9361254a565b73ffffffffffffffffffffffffffffffffffffffff16610fb16112f3565b73ffffffffffffffffffffffffffffffffffffffff1614611007576040517f08c379a0000000000000000000000000000000000000000000000000000000008152600401610ffe90614829565b60405180910390fd5b6110116000612dd0565b565b61101b61254a565b73ffffffffffffffffffffffffffffffffffffffff166110396112f3565b73ffffffffffffffffffffffffffffffffffffffff161461108f576040517f08c379a000000000000000000000000000000000000000000000000000000000815260040161108690614829565b60405180910390fd5b806013819055507f29472a82a52b1caa40964580caee03ad34e2750d3051c517527a5ef27eb58b30816040516110c59190613fc3565b60405180910390a150565b6000611119600660008473ffffffffffffffffffffffffffffffffffffffff1673ffffffffffffffffffffffffffffffffffffffff168152602001908152602001600020612e96565b9050919050565b60008173__MathLib_______________________________63b3947c179091601560009054906101000a900473ffffffffffffffffffffffffffffffffffffffff1673ffffffffffffffffffffffffffffffffffffffff166370a08231306040518263ffffffff1660e01b815260040161119a91906140ab565b602060405180830381865afa1580156111b7573d6000803e3d6000fd5b505050506040513d601f19601f820116820180604052508101906111db9190614aff565b6111e3610bd0565b6040518463ffffffff1660e01b815260040161120193929190614b3b565b602060405180830381865af415801561121e573d6000803e3d6000fd5b505050506040513d601f19601f820116820180604052508101906112429190614aff565b905061124e3383612ea4565b601560009054906101000a900473ffffffffffffffffffffffffffffffffffffffff1673ffffffffffffffffffffffffffffffffffffffff1663a9059cbb33836040518363ffffffff1660e01b81526004016112ab929190614b72565b6020604051808303816000875af11580156112ca573d6000803e3d6000fd5b505050506040513d601f19601f820116820180604052508101906112ee9190614bb0565b505050565b6000600560009054906101000a900473ffffffffffffffffffffffffffffffffffffffff16905090565b6000438210611361576040517f08c379a0000000000000000000000000000000000000000000000000000000008152600401611358906149f2565b60405180910390fd5b61136c600a83612b70565b9050919050565b600061137d61254a565b73ffffffffffffffffffffffffffffffffffffffff1661139b6112f3565b73ffffffffffffffffffffffffffffffffffffffff16146113f1576040517f08c379a00000000000000000000000000000000000000000000000000000000081526004016113e890614829565b60405180910390fd5b600073ffffffffffffffffffffffffffffffffffffffff168373ffffffffffffffffffffffffffffffffffffffff1603611460576040517f08c379a000000000000000000000000000000000000000000000000000000000815260040161145790614c29565b60405180910390fd5b81156114815761147a836011612eb290919063ffffffff16565b9050611498565b611495836011612ee290919063ffffffff16565b90505b92915050565b6060600480546114ad906147ac565b80601f01602080910402602001604051908101604052809291908181526020018280546114d9906147ac565b80156115265780601f106114fb57610100808354040283529160200191611526565b820191906000526020600020905b81548152906001019060200180831161150957829003601f168201915b5050505050905090565b600080600960008473ffffffffffffffffffffffffffffffffffffffff1673ffffffffffffffffffffffffffffffffffffffff1681526020019081526020016000208054905090506000811461161857600960008473ffffffffffffffffffffffffffffffffffffffff1673ffffffffffffffffffffffffffffffffffffffff1681526020019081526020016000206001826115cc9190614c49565b815481106115dd576115dc614c7d565b5b9060005260206000200160000160049054906101000a90047bffffffffffffffffffffffffffffffffffffffffffffffffffffffff1661161b565b60005b7bffffffffffffffffffffffffffffffffffffffffffffffffffffffff16915050919050565b60008061164c61254a565b9050600061165a8286611acd565b90508381101561169f576040517f08c379a000000000000000000000000000000000000000000000000000000000815260040161169690614d1e565b60405180910390fd5b6116ac8286868403612552565b60019250505092915050565b6000806116c361254a565b90506116d08185856127a7565b600191505092915050565b601660009054906101000a900473ffffffffffffffffffffffffffffffffffffffff1681565b60135481565b61170f61254a565b73ffffffffffffffffffffffffffffffffffffffff1661172d6112f3565b73ffffffffffffffffffffffffffffffffffffffff1614611783576040517f08c379a000000000000000000000000000000000000000000000000000000000815260040161177a90614829565b60405180910390fd5b61179782600b612a2690919063ffffffff16565b6117b1576117af82600b612eb290919063ffffffff16565b505b80600d60008473ffffffffffffffffffffffffffffffffffffffff1673ffffffffffffffffffffffffffffffffffffffff16815260200190815260200160002060006101000a81548173ffffffffffffffffffffffffffffffffffffffff021916908373ffffffffffffffffffffffffffffffffffffffff1602179055505050565b83421115611876576040517f08c379a000000000000000000000000000000000000000000000000000000000815260040161186d90614d8a565b60405180910390fd5b60006118d86118d07fe48329057bfd03d55e49b547132e39cffd9c1820ad7b9d4c5307691425d15adf8989896040516020016118b59493929190614daa565b60405160208183030381529060405280519060200120612f12565b858585612f2c565b90506118e381612f57565b8614611924576040517f08c379a000000000000000000000000000000000000000000000000000000000815260040161191b90614e3b565b60405180910390fd5b61192e8188612c8a565b50505050505050565b6060611943600b612fb5565b905090565b601560009054906101000a900473ffffffffffffffffffffffffffffffffffffffff1681565b834211156119b1576040517f08c379a00000000000000000000000000000000000000000000000000000000081526004016119a890614ea7565b60405180910390fd5b60007f6e71edae12b1b97f4d1f60370fef10105fa2faae0126114a169c64845d6126c98888886119e08c612f57565b896040516020016119f696959493929190614ec7565b6040516020818303038152906040528051906020012090506000611a1982612f12565b90506000611a2982878787612f2c565b90508973ffffffffffffffffffffffffffffffffffffffff168173ffffffffffffffffffffffffffffffffffffffff1614611a99576040517f08c379a0000000000000000000000000000000000000000000000000000000008152600401611a9090614f74565b60405180910390fd5b611aa48a8a8a612552565b50505050505050505050565b6000611ac682600f612a2690919063ffffffff16565b9050919050565b6000600160008473ffffffffffffffffffffffffffffffffffffffff1673ffffffffffffffffffffffffffffffffffffffff16815260200190815260200160002060008373ffffffffffffffffffffffffffffffffffffffff1673ffffffffffffffffffffffffffffffffffffffff16815260200190815260200160002054905092915050565b611b5c61254a565b73ffffffffffffffffffffffffffffffffffffffff16611b7a6112f3565b73ffffffffffffffffffffffffffffffffffffffff1614611bd0576040517f08c379a0000000000000000000000000000000000000000000000000000000008152600401611bc790614829565b60405180910390fd5b818173ffffffffffffffffffffffffffffffffffffffff1663a15612d16040518163ffffffff1660e01b8152600401602060405180830381865afa158015611c1c573d6000803e3d6000fd5b505050506040513d601f19601f82011682018060405250810190611c409190614aff565b148015611ce657508273ffffffffffffffffffffffffffffffffffffffff168173ffffffffffffffffffffffffffffffffffffffff16636f307dc36040518163ffffffff1660e01b8152600401602060405180830381865afa158015611caa573d6000803e3d6000fd5b505050506040513d601f19601f82011682018060405250810190611cce9190614fa9565b73ffffffffffffffffffffffffffffffffffffffff16145b611d25576040517f08c379a0000000000000000000000000000000000000000000000000000000008152600401611d1c90615022565b60405180910390fd5b611d788282600e60008773ffffffffffffffffffffffffffffffffffffffff1673ffffffffffffffffffffffffffffffffffffffff168152602001908152602001600020612fd69092919063ffffffff16565b50505050565b6000611d8861254a565b73ffffffffffffffffffffffffffffffffffffffff16611da66112f3565b73ffffffffffffffffffffffffffffffffffffffff1614611dfc576040517f08c379a0000000000000000000000000000000000000000000000000000000008152600401611df390614829565b60405180910390fd5b600073ffffffffffffffffffffffffffffffffffffffff168373ffffffffffffffffffffffffffffffffffffffff1603611e6b576040517f08c379a0000000000000000000000000000000000000000000000000000000008152600401611e6290614c29565b60405180910390fd5b8115611e8c57611e8583600f612eb290919063ffffffff16565b9050611ea3565b611ea083600f612ee290919063ffffffff16565b90505b92915050565b611eb1613d05565b600960008473ffffffffffffffffffffffffffffffffffffffff1673ffffffffffffffffffffffffffffffffffffffff1681526020019081526020016000208263ffffffff1681548110611f0857611f07614c7d565b5b906000526020600020016040518060400160405290816000820160009054906101000a900463ffffffff1663ffffffff1663ffffffff1681526020016000820160049054906101000a90047bffffffffffffffffffffffffffffffffffffffffffffffffffffffff167bffffffffffffffffffffffffffffffffffffffffffffffffffffffff167bffffffffffffffffffffffffffffffffffffffffffffffffffffffff1681525050905092915050565b611fc161254a565b73ffffffffffffffffffffffffffffffffffffffff16611fdf6112f3565b73ffffffffffffffffffffffffffffffffffffffff1614612035576040517f08c379a000000000000000000000000000000000000000000000000000000000815260040161202c90614829565b60405180910390fd5b600073ffffffffffffffffffffffffffffffffffffffff168173ffffffffffffffffffffffffffffffffffffffff16036120a4576040517f08c379a000000000000000000000000000000000000000000000000000000000815260040161209b906150b4565b60405180910390fd5b6120ad81612dd0565b50565b6120b861254a565b73ffffffffffffffffffffffffffffffffffffffff166120d66112f3565b73ffffffffffffffffffffffffffffffffffffffff161461212c576040517f08c379a000000000000000000000000000000000000000000000000000000000815260040161212390614829565b60405180910390fd5b8173ffffffffffffffffffffffffffffffffffffffff1663d2f7265a6040518163ffffffff1660e01b8152600401602060405180830381865afa158015612177573d6000803e3d6000fd5b505050506040513d601f19601f8201168201806040525081019061219b9190614fa9565b73ffffffffffffffffffffffffffffffffffffffff16639111fccd83836040518363ffffffff1660e01b81526004016121d59291906150f5565b600060405180830381600087803b1580156121ef57600080fd5b505af1158015612203573d6000803e3d6000fd5b505050507ffb24c384840b912caf631799804e8d43a3950d690745f2b8501b47c8e8d90fd28282604051612238929190614b72565b60405180910390a15050565b61224e82826122d1565b61225661300b565b7bffffffffffffffffffffffffffffffffffffffffffffffffffffffff1661227c610bd0565b11156122bd576040517f08c379a00000000000000000000000000000000000000000000000000000000081526004016122b490615190565b60405180910390fd5b6122cb600a6124308361302f565b50505050565b600073ffffffffffffffffffffffffffffffffffffffff168273ffffffffffffffffffffffffffffffffffffffff1603612340576040517f08c379a0000000000000000000000000000000000000000000000000000000008152600401612337906151fc565b60405180910390fd5b61234c600083836132a7565b806002600082825461235e9190614950565b92505081905550806000808473ffffffffffffffffffffffffffffffffffffffff1673ffffffffffffffffffffffffffffffffffffffff16815260200190815260200160002060008282546123b39190614950565b925050819055508173ffffffffffffffffffffffffffffffffffffffff16600073ffffffffffffffffffffffffffffffffffffffff167fddf252ad1be2c89b69c2b068fc378daa952ba7f163c4a11628f55a4df523b3ef836040516124189190613fc3565b60405180910390a361242c600083836132ac565b5050565b6000818361243e9190614950565b905092915050565b60007bffffffffffffffffffffffffffffffffffffffffffffffffffffffff80168211156124a9576040517f08c379a00000000000000000000000000000000000000000000000000000000081526004016124a09061528e565b60405180910390fd5b819050919050565b600063ffffffff80168211156124fc576040517f08c379a00000000000000000000000000000000000000000000000000000000081526004016124f390615320565b60405180910390fd5b819050919050565b61250f83838361252f565b61252a61251b84610da7565b61252484610da7565b836132bc565b505050565b505050565b600081836125429190614c49565b905092915050565b600033905090565b600073ffffffffffffffffffffffffffffffffffffffff168373ffffffffffffffffffffffffffffffffffffffff16036125c1576040517f08c379a00000000000000000000000000000000000000000000000000000000081526004016125b8906153b2565b60405180910390fd5b600073ffffffffffffffffffffffffffffffffffffffff168273ffffffffffffffffffffffffffffffffffffffff1603612630576040517f08c379a000000000000000000000000000000000000000000000000000000000815260040161262790615444565b60405180910390fd5b80600160008573ffffffffffffffffffffffffffffffffffffffff1673ffffffffffffffffffffffffffffffffffffffff16815260200190815260200160002060008473ffffffffffffffffffffffffffffffffffffffff1673ffffffffffffffffffffffffffffffffffffffff168152602001908152602001600020819055508173ffffffffffffffffffffffffffffffffffffffff168373ffffffffffffffffffffffffffffffffffffffff167f8c5be1e5ebec7d5bd14f71427d1e84f3dd0314c0f7b2291e5b200ac8c7c3b9258360405161270e9190613fc3565b60405180910390a3505050565b60006127278484611acd565b90507fffffffffffffffffffffffffffffffffffffffffffffffffffffffffffffffff81146127a15781811015612793576040517f08c379a000000000000000000000000000000000000000000000000000000000815260040161278a906154b0565b60405180910390fd5b6127a08484848403612552565b5b50505050565b600073ffffffffffffffffffffffffffffffffffffffff168373ffffffffffffffffffffffffffffffffffffffff1603612816576040517f08c379a000000000000000000000000000000000000000000000000000000000815260040161280d90615542565b60405180910390fd5b600073ffffffffffffffffffffffffffffffffffffffff168273ffffffffffffffffffffffffffffffffffffffff1603612885576040517f08c379a000000000000000000000000000000000000000000000000000000000815260040161287c906155d4565b60405180910390fd5b6128908383836132a7565b60008060008573ffffffffffffffffffffffffffffffffffffffff1673ffffffffffffffffffffffffffffffffffffffff16815260200190815260200160002054905081811015612916576040517f08c379a000000000000000000000000000000000000000000000000000000000815260040161290d90615666565b60405180910390fd5b8181036000808673ffffffffffffffffffffffffffffffffffffffff1673ffffffffffffffffffffffffffffffffffffffff16815260200190815260200160002081905550816000808573ffffffffffffffffffffffffffffffffffffffff1673ffffffffffffffffffffffffffffffffffffffff16815260200190815260200160002060008282546129a99190614950565b925050819055508273ffffffffffffffffffffffffffffffffffffffff168473ffffffffffffffffffffffffffffffffffffffff167fddf252ad1be2c89b69c2b068fc378daa952ba7f163c4a11628f55a4df523b3ef84604051612a0d9190613fc3565b60405180910390a3612a208484846132ac565b50505050565b6000612a4e836000018373ffffffffffffffffffffffffffffffffffffffff1660001b6134b5565b905092915050565b60007f000000000000000000000000000000000000000000000000000000000000000073ffffffffffffffffffffffffffffffffffffffff163073ffffffffffffffffffffffffffffffffffffffff16148015612ad257507f000000000000000000000000000000000000000000000000000000000000000046145b15612aff577f00000000000000000000000000000000000000000000000000000000000000009050612b6d565b612b6a7f00000000000000000000000000000000000000000000000000000000000000007f00000000000000000000000000000000000000000000000000000000000000007f00000000000000000000000000000000000000000000000000000000000000006134d8565b90505b90565b6000808380549050905060005b81811015612bef576000612b918284613512565b905084868281548110612ba757612ba6614c7d565b5b9060005260206000200160000160009054906101000a900463ffffffff1663ffffffff161115612bd957809250612be9565b600181612be69190614950565b91505b50612b7d565b60008214612c515784600183612c059190614c49565b81548110612c1657612c15614c7d565b5b9060005260206000200160000160049054906101000a90047bffffffffffffffffffffffffffffffffffffffffffffffffffffffff16612c54565b60005b7bffffffffffffffffffffffffffffffffffffffffffffffffffffffff169250505092915050565b612c868282612244565b5050565b6000612c9583610da7565b90506000612ca284610f43565b905082600860008673ffffffffffffffffffffffffffffffffffffffff1673ffffffffffffffffffffffffffffffffffffffff16815260200190815260200160002060006101000a81548173ffffffffffffffffffffffffffffffffffffffff021916908373ffffffffffffffffffffffffffffffffffffffff1602179055508273ffffffffffffffffffffffffffffffffffffffff168273ffffffffffffffffffffffffffffffffffffffff168573ffffffffffffffffffffffffffffffffffffffff167f3134e8a2e6d97e929a7e54011ea5485d7d196dd5f0ba4d4ef95803e8e3fc257f60405160405180910390a4612d9e8284836132bc565b50505050565b600080600080612dba866000018660001b613538565b91509150818160001c9350935050509250929050565b6000600560009054906101000a900473ffffffffffffffffffffffffffffffffffffffff16905081600560006101000a81548173ffffffffffffffffffffffffffffffffffffffff021916908373ffffffffffffffffffffffffffffffffffffffff1602179055508173ffffffffffffffffffffffffffffffffffffffff168173ffffffffffffffffffffffffffffffffffffffff167f8be0079c531659141344cd1fd0a4f28419497f9722a3daafe3b4186f6b6457e060405160405180910390a35050565b600081600001549050919050565b612eae8282613587565b5050565b6000612eda836000018373ffffffffffffffffffffffffffffffffffffffff1660001b6135a5565b905092915050565b6000612f0a836000018373ffffffffffffffffffffffffffffffffffffffff1660001b613615565b905092915050565b6000612f25612f1f612a56565b83613729565b9050919050565b6000806000612f3d8787878761375c565b91509150612f4a81613868565b8192505050949350505050565b600080600660008473ffffffffffffffffffffffffffffffffffffffff1673ffffffffffffffffffffffffffffffffffffffff1681526020019081526020016000209050612fa481612e96565b9150612faf81613a34565b50919050565b60606000612fc583600001613a4a565b905060608190508092505050919050565b6000613002846000018460001b8473ffffffffffffffffffffffffffffffffffffffff1660001b613aa6565b90509392505050565b60007bffffffffffffffffffffffffffffffffffffffffffffffffffffffff905090565b6000806000858054905090506000811461309d57856001826130519190614c49565b8154811061306257613061614c7d565b5b9060005260206000200160000160049054906101000a90047bffffffffffffffffffffffffffffffffffffffffffffffffffffffff166130a0565b60005b7bffffffffffffffffffffffffffffffffffffffffffffffffffffffff1692506130ce83858763ffffffff16565b9150600081118015613121575043866001836130ea9190614c49565b815481106130fb576130fa614c7d565b5b9060005260206000200160000160009054906101000a900463ffffffff1663ffffffff16145b156131ae5761312f82612446565b8660018361313d9190614c49565b8154811061314e5761314d614c7d565b5b9060005260206000200160000160046101000a8154817bffffffffffffffffffffffffffffffffffffffffffffffffffffffff02191690837bffffffffffffffffffffffffffffffffffffffffffffffffffffffff16021790555061329e565b8560405180604001604052806131c3436124b1565b63ffffffff1681526020016131d785612446565b7bffffffffffffffffffffffffffffffffffffffffffffffffffffffff168152509080600181540180825580915050600190039060005260206000200160009091909190915060008201518160000160006101000a81548163ffffffff021916908363ffffffff16021790555060208201518160000160046101000a8154817bffffffffffffffffffffffffffffffffffffffffffffffffffffffff02191690837bffffffffffffffffffffffffffffffffffffffffffffffffffffffff16021790555050505b50935093915050565b505050565b6132b7838383612504565b505050565b8173ffffffffffffffffffffffffffffffffffffffff168373ffffffffffffffffffffffffffffffffffffffff16141580156132f85750600081115b156134b057600073ffffffffffffffffffffffffffffffffffffffff168373ffffffffffffffffffffffffffffffffffffffff16146133d65760008061337f600960008773ffffffffffffffffffffffffffffffffffffffff1673ffffffffffffffffffffffffffffffffffffffff1681526020019081526020016000206125348561302f565b915091508473ffffffffffffffffffffffffffffffffffffffff167fdec2bacdd2f05b59de34da9b523dff8be42e5e38e818c82fdb0bae774387a72483836040516133cb929190615686565b60405180910390a250505b600073ffffffffffffffffffffffffffffffffffffffff168273ffffffffffffffffffffffffffffffffffffffff16146134af57600080613458600960008673ffffffffffffffffffffffffffffffffffffffff1673ffffffffffffffffffffffffffffffffffffffff1681526020019081526020016000206124308561302f565b915091508373ffffffffffffffffffffffffffffffffffffffff167fdec2bacdd2f05b59de34da9b523dff8be42e5e38e818c82fdb0bae774387a72483836040516134a4929190615686565b60405180910390a250505b5b505050565b600080836001016000848152602001908152602001600020541415905092915050565b600083838346306040516020016134f39594939291906156af565b6040516020818303038152906040528051906020012090509392505050565b600060028284186135239190615731565b8284166135309190614950565b905092915050565b60008060008460020160008581526020019081526020016000205490506000801b8103613577576135698585613ae1565b6000801b9250925050613580565b60018192509250505b9250929050565b6135918282613b01565b61359f600a6125348361302f565b50505050565b60006135b183836134b5565b61360a57826000018290806001815401808255809150506001900390600052602060002001600090919091909150558260000180549050836001016000848152602001908152602001600020819055506001905061360f565b600090505b92915050565b6000808360010160008481526020019081526020016000205490506000811461371d5760006001826136479190614c49565b905060006001866000018054905061365f9190614c49565b90508181146136ce5760008660000182815481106136805761367f614c7d565b5b90600052602060002001549050808760000184815481106136a4576136a3614c7d565b5b90600052602060002001819055508387600101600083815260200190815260200160002081905550505b856000018054806136e2576136e1615762565b5b600190038181906000526020600020016000905590558560010160008681526020019081526020016000206000905560019350505050613723565b60009150505b92915050565b6000828260405160200161373e929190615809565b60405160208183030381529060405280519060200120905092915050565b6000807f7fffffffffffffffffffffffffffffff5d576e7357a4501ddfe92f46681b20a08360001c111561379757600060039150915061385f565b601b8560ff16141580156137af5750601c8560ff1614155b156137c157600060049150915061385f565b6000600187878787604051600081526020016040526040516137e69493929190615840565b6020604051602081039080840390855afa158015613808573d6000803e3d6000fd5b505050602060405103519050600073ffffffffffffffffffffffffffffffffffffffff168173ffffffffffffffffffffffffffffffffffffffff16036138565760006001925092505061385f565b80600092509250505b94509492505050565b6000600481111561387c5761387b615885565b5b81600481111561388f5761388e615885565b5b0315613a3157600160048111156138a9576138a8615885565b5b8160048111156138bc576138bb615885565b5b036138fc576040517f08c379a00000000000000000000000000000000000000000000000000000000081526004016138f390615900565b60405180910390fd5b600260048111156139105761390f615885565b5b81600481111561392357613922615885565b5b03613963576040517f08c379a000000000000000000000000000000000000000000000000000000000815260040161395a9061596c565b60405180910390fd5b6003600481111561397757613976615885565b5b81600481111561398a57613989615885565b5b036139ca576040517f08c379a00000000000000000000000000000000000000000000000000000000081526004016139c1906159fe565b60405180910390fd5b6004808111156139dd576139dc615885565b5b8160048111156139f0576139ef615885565b5b03613a30576040517f08c379a0000000000000000000000000000000000000000000000000000000008152600401613a2790615a90565b60405180910390fd5b5b50565b6001816000016000828254019250508190555050565b606081600001805480602002602001604051908101604052809291908181526020018280548015613a9a57602002820191906000526020600020905b815481526020019060010190808311613a86575b50505050509050919050565b60008184600201600085815260200190815260200160002081905550613ad88385600001613cd790919063ffffffff16565b90509392505050565b6000613af98284600001613cee90919063ffffffff16565b905092915050565b600073ffffffffffffffffffffffffffffffffffffffff168273ffffffffffffffffffffffffffffffffffffffff1603613b70576040517f08c379a0000000000000000000000000000000000000000000000000000000008152600401613b6790615b22565b60405180910390fd5b613b7c826000836132a7565b60008060008473ffffffffffffffffffffffffffffffffffffffff1673ffffffffffffffffffffffffffffffffffffffff16815260200190815260200160002054905081811015613c02576040517f08c379a0000000000000000000000000000000000000000000000000000000008152600401613bf990615bb4565b60405180910390fd5b8181036000808573ffffffffffffffffffffffffffffffffffffffff1673ffffffffffffffffffffffffffffffffffffffff168152602001908152602001600020819055508160026000828254613c599190614c49565b92505081905550600073ffffffffffffffffffffffffffffffffffffffff168373ffffffffffffffffffffffffffffffffffffffff167fddf252ad1be2c89b69c2b068fc378daa952ba7f163c4a11628f55a4df523b3ef84604051613cbe9190613fc3565b60405180910390a3613cd2836000846132ac565b505050565b6000613ce683600001836135a5565b905092915050565b6000613cfd83600001836134b5565b905092915050565b6040518060400160405280600063ffffffff16815260200160007bffffffffffffffffffffffffffffffffffffffffffffffffffffffff1681525090565b600081519050919050565b600082825260208201905092915050565b60005b83811015613d7d578082015181840152602081019050613d62565b83811115613d8c576000848401525b50505050565b6000601f19601f8301169050919050565b6000613dae82613d43565b613db88185613d4e565b9350613dc8818560208601613d5f565b613dd181613d92565b840191505092915050565b60006020820190508181036000830152613df68184613da3565b905092915050565b600080fd5b600073ffffffffffffffffffffffffffffffffffffffff82169050919050565b6000613e2e82613e03565b9050919050565b613e3e81613e23565b8114613e4957600080fd5b50565b600081359050613e5b81613e35565b92915050565b600060208284031215613e7757613e76613dfe565b5b6000613e8584828501613e4c565b91505092915050565b6000819050919050565b613ea181613e8e565b8114613eac57600080fd5b50565b600081359050613ebe81613e98565b92915050565b60008060408385031215613edb57613eda613dfe565b5b6000613ee985828601613e4c565b9250506020613efa85828601613eaf565b9150509250929050565b60008115159050919050565b613f1981613f04565b82525050565b6000602082019050613f346000830184613f10565b92915050565b6000819050919050565b6000613f5f613f5a613f5584613e03565b613f3a565b613e03565b9050919050565b6000613f7182613f44565b9050919050565b6000613f8382613f66565b9050919050565b613f9381613f78565b82525050565b6000602082019050613fae6000830184613f8a565b92915050565b613fbd81613e8e565b82525050565b6000602082019050613fd86000830184613fb4565b92915050565b600080600060608486031215613ff757613ff6613dfe565b5b600061400586828701613e4c565b935050602061401686828701613e4c565b925050604061402786828701613eaf565b9150509250925092565b600060ff82169050919050565b61404781614031565b82525050565b6000602082019050614062600083018461403e565b92915050565b6000819050919050565b61407b81614068565b82525050565b60006020820190506140966000830184614072565b92915050565b6140a581613e23565b82525050565b60006020820190506140c0600083018461409c565b92915050565b60006140d182613f66565b9050919050565b6140e1816140c6565b82525050565b60006020820190506140fc60008301846140d8565b92915050565b600063ffffffff82169050919050565b61411b81614102565b82525050565b60006020820190506141366000830184614112565b92915050565b60006020828403121561415257614151613dfe565b5b600061416084828501613eaf565b91505092915050565b61417281613f04565b811461417d57600080fd5b50565b60008135905061418f81614169565b92915050565b600080604083850312156141ac576141ab613dfe565b5b60006141ba85828601613e4c565b92505060206141cb85828601614180565b9150509250929050565b60006141e082613f66565b9050919050565b6141f0816141d5565b82525050565b600060208201905061420b60008301846141e7565b92915050565b600061421c82613e23565b9050919050565b61422c81614211565b811461423757600080fd5b50565b60008135905061424981614223565b92915050565b6000806040838503121561426657614265613dfe565b5b600061427485828601613e4c565b92505060206142858582860161423a565b9150509250929050565b61429881614031565b81146142a357600080fd5b50565b6000813590506142b58161428f565b92915050565b6142c481614068565b81146142cf57600080fd5b50565b6000813590506142e1816142bb565b92915050565b60008060008060008060c0878903121561430457614303613dfe565b5b600061431289828a01613e4c565b965050602061432389828a01613eaf565b955050604061433489828a01613eaf565b945050606061434589828a016142a6565b935050608061435689828a016142d2565b92505060a061436789828a016142d2565b9150509295509295509295565b600081519050919050565b600082825260208201905092915050565b6000819050602082019050919050565b6143a981613e23565b82525050565b60006143bb83836143a0565b60208301905092915050565b6000602082019050919050565b60006143df82614374565b6143e9818561437f565b93506143f483614390565b8060005b8381101561442557815161440c88826143af565b9750614417836143c7565b9250506001810190506143f8565b5085935050505092915050565b6000602082019050818103600083015261444c81846143d4565b905092915050565b600061445f82613f66565b9050919050565b61446f81614454565b82525050565b600060208201905061448a6000830184614466565b92915050565b600080600080600080600060e0888a0312156144af576144ae613dfe565b5b60006144bd8a828b01613e4c565b97505060206144ce8a828b01613e4c565b96505060406144df8a828b01613eaf565b95505060606144f08a828b01613eaf565b94505060806145018a828b016142a6565b93505060a06145128a828b016142d2565b92505060c06145238a828b016142d2565b91505092959891949750929550565b6000806040838503121561454957614548613dfe565b5b600061455785828601613e4c565b925050602061456885828601613e4c565b9150509250929050565b600061457d82613e23565b9050919050565b61458d81614572565b811461459857600080fd5b50565b6000813590506145aa81614584565b92915050565b6000806000606084860312156145c9576145c8613dfe565b5b60006145d786828701613e4c565b93505060206145e886828701613eaf565b92505060406145f98682870161459b565b9150509250925092565b61460c81614102565b811461461757600080fd5b50565b60008135905061462981614603565b92915050565b6000806040838503121561464657614645613dfe565b5b600061465485828601613e4c565b92505060206146658582860161461a565b9150509250929050565b61467881614102565b82525050565b60007bffffffffffffffffffffffffffffffffffffffffffffffffffffffff82169050919050565b6146af8161467e565b82525050565b6040820160008201516146cb600085018261466f565b5060208201516146de60208501826146a6565b50505050565b60006040820190506146f960008301846146b5565b92915050565b600061470a82613e23565b9050919050565b61471a816146ff565b811461472557600080fd5b50565b60008135905061473781614711565b92915050565b6000806040838503121561475457614753613dfe565b5b600061476285828601614728565b925050602061477385828601613eaf565b9150509250929050565b7f4e487b7100000000000000000000000000000000000000000000000000000000600052602260045260246000fd5b600060028204905060018216806147c457607f821691505b6020821081036147d7576147d661477d565b5b50919050565b7f4f776e61626c653a2063616c6c6572206973206e6f7420746865206f776e6572600082015250565b6000614813602083613d4e565b915061481e826147dd565b602082019050919050565b6000602082019050818103600083015261484281614806565b9050919050565b7f3020616464726573730000000000000000000000000000000000000000000000600082015250565b600061487f600983613d4e565b915061488a82614849565b602082019050919050565b600060208201905081810360008301526148ae81614872565b9050919050565b7f4f7261636c65206e6f7420726567697374657265640000000000000000000000600082015250565b60006148eb601583613d4e565b91506148f6826148b5565b602082019050919050565b6000602082019050818103600083015261491a816148de565b9050919050565b7f4e487b7100000000000000000000000000000000000000000000000000000000600052601160045260246000fd5b600061495b82613e8e565b915061496683613e8e565b9250827fffffffffffffffffffffffffffffffffffffffffffffffffffffffffffffffff0382111561499b5761499a614921565b5b828201905092915050565b7f4552433230566f7465733a20626c6f636b206e6f7420796574206d696e656400600082015250565b60006149dc601f83613d4e565b91506149e7826149a6565b602082019050919050565b60006020820190508181036000830152614a0b816149cf565b9050919050565b7f62726f6b6572206f6e6c79000000000000000000000000000000000000000000600082015250565b6000614a48600b83613d4e565b9150614a5382614a12565b602082019050919050565b60006020820190508181036000830152614a7781614a3b565b9050919050565b7f6e6f20766f6c20746f6b656e0000000000000000000000000000000000000000600082015250565b6000614ab4600c83613d4e565b9150614abf82614a7e565b602082019050919050565b60006020820190508181036000830152614ae381614aa7565b9050919050565b600081519050614af981613e98565b92915050565b600060208284031215614b1557614b14613dfe565b5b6000614b2384828501614aea565b91505092915050565b614b3581613e8e565b82525050565b6000606082019050614b506000830186614b2c565b614b5d6020830185614b2c565b614b6a6040830184614b2c565b949350505050565b6000604082019050614b87600083018561409c565b614b946020830184613fb4565b9392505050565b600081519050614baa81614169565b92915050565b600060208284031215614bc657614bc5613dfe565b5b6000614bd484828501614b9b565b91505092915050565b7f656d707479206164647265737300000000000000000000000000000000000000600082015250565b6000614c13600d83613d4e565b9150614c1e82614bdd565b602082019050919050565b60006020820190508181036000830152614c4281614c06565b9050919050565b6000614c5482613e8e565b9150614c5f83613e8e565b925082821015614c7257614c71614921565b5b828203905092915050565b7f4e487b7100000000000000000000000000000000000000000000000000000000600052603260045260246000fd5b7f45524332303a2064656372656173656420616c6c6f77616e63652062656c6f7760008201527f207a65726f000000000000000000000000000000000000000000000000000000602082015250565b6000614d08602583613d4e565b9150614d1382614cac565b604082019050919050565b60006020820190508181036000830152614d3781614cfb565b9050919050565b7f4552433230566f7465733a207369676e61747572652065787069726564000000600082015250565b6000614d74601d83613d4e565b9150614d7f82614d3e565b602082019050919050565b60006020820190508181036000830152614da381614d67565b9050919050565b6000608082019050614dbf6000830187614072565b614dcc602083018661409c565b614dd96040830185613fb4565b614de66060830184613fb4565b95945050505050565b7f4552433230566f7465733a20696e76616c6964206e6f6e636500000000000000600082015250565b6000614e25601983613d4e565b9150614e3082614def565b602082019050919050565b60006020820190508181036000830152614e5481614e18565b9050919050565b7f45524332305065726d69743a206578706972656420646561646c696e65000000600082015250565b6000614e91601d83613d4e565b9150614e9c82614e5b565b602082019050919050565b60006020820190508181036000830152614ec081614e84565b9050919050565b600060c082019050614edc6000830189614072565b614ee9602083018861409c565b614ef6604083018761409c565b614f036060830186613fb4565b614f106080830185613fb4565b614f1d60a0830184613fb4565b979650505050505050565b7f45524332305065726d69743a20696e76616c6964207369676e61747572650000600082015250565b6000614f5e601e83613d4e565b9150614f6982614f28565b602082019050919050565b60006020820190508181036000830152614f8d81614f51565b9050919050565b600081519050614fa381613e35565b92915050565b600060208284031215614fbf57614fbe613dfe565b5b6000614fcd84828501614f94565b91505092915050565b7f7856000000000000000000000000000000000000000000000000000000000000600082015250565b600061500c600283613d4e565b915061501782614fd6565b602082019050919050565b6000602082019050818103600083015261503b81614fff565b9050919050565b7f4f776e61626c653a206e6577206f776e657220697320746865207a65726f206160008201527f6464726573730000000000000000000000000000000000000000000000000000602082015250565b600061509e602683613d4e565b91506150a982615042565b604082019050919050565b600060208201905081810360008301526150cd81615091565b9050919050565b60006150df82613f66565b9050919050565b6150ef816150d4565b82525050565b600060408201905061510a60008301856150e6565b6151176020830184613fb4565b9392505050565b7f4552433230566f7465733a20746f74616c20737570706c79207269736b73206f60008201527f766572666c6f77696e6720766f74657300000000000000000000000000000000602082015250565b600061517a603083613d4e565b91506151858261511e565b604082019050919050565b600060208201905081810360008301526151a98161516d565b9050919050565b7f45524332303a206d696e7420746f20746865207a65726f206164647265737300600082015250565b60006151e6601f83613d4e565b91506151f1826151b0565b602082019050919050565b60006020820190508181036000830152615215816151d9565b9050919050565b7f53616665436173743a2076616c756520646f65736e27742066697420696e203260008201527f3234206269747300000000000000000000000000000000000000000000000000602082015250565b6000615278602783613d4e565b91506152838261521c565b604082019050919050565b600060208201905081810360008301526152a78161526b565b9050919050565b7f53616665436173743a2076616c756520646f65736e27742066697420696e203360008201527f3220626974730000000000000000000000000000000000000000000000000000602082015250565b600061530a602683613d4e565b9150615315826152ae565b604082019050919050565b60006020820190508181036000830152615339816152fd565b9050919050565b7f45524332303a20617070726f76652066726f6d20746865207a65726f2061646460008201527f7265737300000000000000000000000000000000000000000000000000000000602082015250565b600061539c602483613d4e565b91506153a782615340565b604082019050919050565b600060208201905081810360008301526153cb8161538f565b9050919050565b7f45524332303a20617070726f766520746f20746865207a65726f20616464726560008201527f7373000000000000000000000000000000000000000000000000000000000000602082015250565b600061542e602283613d4e565b9150615439826153d2565b604082019050919050565b6000602082019050818103600083015261545d81615421565b9050919050565b7f45524332303a20696e73756666696369656e7420616c6c6f77616e6365000000600082015250565b600061549a601d83613d4e565b91506154a582615464565b602082019050919050565b600060208201905081810360008301526154c98161548d565b9050919050565b7f45524332303a207472616e736665722066726f6d20746865207a65726f20616460008201527f6472657373000000000000000000000000000000000000000000000000000000602082015250565b600061552c602583613d4e565b9150615537826154d0565b604082019050919050565b6000602082019050818103600083015261555b8161551f565b9050919050565b7f45524332303a207472616e7366657220746f20746865207a65726f206164647260008201527f6573730000000000000000000000000000000000000000000000000000000000602082015250565b60006155be602383613d4e565b91506155c982615562565b604082019050919050565b600060208201905081810360008301526155ed816155b1565b9050919050565b7f45524332303a207472616e7366657220616d6f756e742065786365656473206260008201527f616c616e63650000000000000000000000000000000000000000000000000000602082015250565b6000615650602683613d4e565b915061565b826155f4565b604082019050919050565b6000602082019050818103600083015261567f81615643565b9050919050565b600060408201905061569b6000830185613fb4565b6156a86020830184613fb4565b9392505050565b600060a0820190506156c46000830188614072565b6156d16020830187614072565b6156de6040830186614072565b6156eb6060830185613fb4565b6156f8608083018461409c565b9695505050505050565b7f4e487b7100000000000000000000000000000000000000000000000000000000600052601260045260246000fd5b600061573c82613e8e565b915061574783613e8e565b92508261575757615756615702565b5b828204905092915050565b7f4e487b7100000000000000000000000000000000000000000000000000000000600052603160045260246000fd5b600081905092915050565b7f1901000000000000000000000000000000000000000000000000000000000000600082015250565b60006157d2600283615791565b91506157dd8261579c565b600282019050919050565b6000819050919050565b6158036157fe82614068565b6157e8565b82525050565b6000615814826157c5565b915061582082856157f2565b60208201915061583082846157f2565b6020820191508190509392505050565b60006080820190506158556000830187614072565b615862602083018661403e565b61586f6040830185614072565b61587c6060830184614072565b95945050505050565b7f4e487b7100000000000000000000000000000000000000000000000000000000600052602160045260246000fd5b7f45434453413a20696e76616c6964207369676e61747572650000000000000000600082015250565b60006158ea601883613d4e565b91506158f5826158b4565b602082019050919050565b60006020820190508181036000830152615919816158dd565b9050919050565b7f45434453413a20696e76616c6964207369676e6174757265206c656e67746800600082015250565b6000615956601f83613d4e565b915061596182615920565b602082019050919050565b6000602082019050818103600083015261598581615949565b9050919050565b7f45434453413a20696e76616c6964207369676e6174757265202773272076616c60008201527f7565000000000000000000000000000000000000000000000000000000000000602082015250565b60006159e8602283613d4e565b91506159f38261598c565b604082019050919050565b60006020820190508181036000830152615a17816159db565b9050919050565b7f45434453413a20696e76616c6964207369676e6174757265202776272076616c60008201527f7565000000000000000000000000000000000000000000000000000000000000602082015250565b6000615a7a602283613d4e565b9150615a8582615a1e565b604082019050919050565b60006020820190508181036000830152615aa981615a6d565b9050919050565b7f45524332303a206275726e2066726f6d20746865207a65726f2061646472657360008201527f7300000000000000000000000000000000000000000000000000000000000000602082015250565b6000615b0c602183613d4e565b9150615b1782615ab0565b604082019050919050565b60006020820190508181036000830152615b3b81615aff565b9050919050565b7f45524332303a206275726e20616d6f756e7420657863656564732062616c616e60008201527f6365000000000000000000000000000000000000000000000000000000000000602082015250565b6000615b9e602283613d4e565b9150615ba982615b42565b604082019050919050565b60006020820190508181036000830152615bcd81615b91565b905091905056fea26469706673582212200c4c1e8fc3d13d037c20f050f04813810150150f4b6344534145c0a0379830d864736f6c634300080f0033",
  "immutableReferences": {
    "5515": [
      {
        "length": 32,
        "start": 10969
      }
    ],
    "5517": [
      {
        "length": 32,
        "start": 10928
      }
    ],
    "5519": [
      {
        "length": 32,
        "start": 10842
      }
    ],
    "5521": [
      {
        "length": 32,
        "start": 11045
      }
    ],
    "5523": [
      {
        "length": 32,
        "start": 11078
      }
    ],
    "5525": [
      {
        "length": 32,
        "start": 11012
      }
    ]
  },
  "source": "// SPDX-License-Identifier: MIT\npragma solidity ^0.8.4;\n\nimport \"@openzeppelin/contracts/token/ERC20/ERC20.sol\";\nimport \"@openzeppelin/contracts/access/Ownable.sol\";\nimport \"@openzeppelin/contracts/token/ERC20/extensions/draft-ERC20Permit.sol\";\nimport \"@openzeppelin/contracts/token/ERC20/extensions/ERC20Votes.sol\";\nimport \"@openzeppelin/contracts/utils/structs/EnumerableMap.sol\";\nimport \"@openzeppelin/contracts/utils/structs/EnumerableSet.sol\";\nimport \"../pools/Pool.sol\";\nimport \"../libraries/MathLib.sol\";\nimport \"../interfaces/EMoret.sol\";\nimport \"../VolatilityChain.sol\";\nimport \"../VolatilityToken.sol\";\nimport \"../Exchange.sol\";\nimport \"./MoretBroker.sol\";\n\n/// @custom:security-contact eight@moret.io\ncontract Moret is ERC20, Ownable, ERC20Permit, ERC20Votes, EMoret {\n    using MathLib for uint256;\n    using EnumerableSet for EnumerableSet.AddressSet;\n    using EnumerableMap for EnumerableMap.UintToAddressMap;\n\n    EnumerableSet.AddressSet internal underlyingList; // list of underlying tokens\n    mapping(address=>VolatilityChain) internal volatilityChainMap; // volatility oracle: token address => volatiltiy chain address\n    mapping(address=>EnumerableMap.UintToAddressMap) internal volatilityTokenMap; // volatility token list: token address => volatility token map (tenor => volatility tokens)\n    EnumerableSet.AddressSet internal eligibleTradingRoutes; // list of exchange routes that are allowed for hedging transactions\n    EnumerableSet.AddressSet internal volTradingPools; // pools allowed to trade volatility tokens\n\n    uint256 public protocolFee = 0.005e18; // protocol fees payable to governance token each time option contract is exercised\n    address public protocolFeeRecipient;\n    \n    // funding token address\n    ERC20 public funding;\n    MoretBroker public broker;\n\n    constructor(MoretBroker _broker) ERC20(\"Moret\", \"MOR\") ERC20Permit(\"Moret\") {\n        broker = _broker;\n        funding = _broker.funding();\n        _mint(msg.sender, 1e24); // initial mint, 1e6 * 1e18\n        protocolFeeRecipient = msg.sender;\n        }\n    \n    // mint function\n    function mint(address _to, uint256 _amount) external {\n        require(address(broker) == msg.sender, 'broker only');\n        _mint(_to, _amount);}\n    function divest(uint256 _amount) external {\n        uint256 _capitalToDivest = _amount.muldiv(funding.balanceOf(address(this)), totalSupply());\n        _burn(msg.sender, _amount);\n        funding.transfer(msg.sender, _capitalToDivest);\n        // emit DivestFromGov(msg.sender, _capitalToDivest);}\n    }\n\n    // withdraw from certain pool so funding tokens can be saved in. This could be only executed by the owner address\n    function withdraw(Pool _pool, uint256 _amount) external onlyOwner{\n        Exchange(_pool.exchange()).withdrawCapital(_pool, _amount);\n        emit WithdrawPoolTokens(address(_pool), _amount);}\n\n    // governable parameters\n    function setProtocolFee(uint256 _newFee) public onlyOwner(){ \n        protocolFee = _newFee;\n        emit UpdateProtocolFees(_newFee);}\n    function setProtocolRecipient(address _newAddress) public onlyOwner(){ \n        require(_newAddress != address(0), \"0 address\"); \n        protocolFeeRecipient = _newAddress;}\n\n    // list of underlying addresses\n    function getAllUnderlyings() external view returns(address[] memory){\n        return underlyingList.values();}\n\n    // update/add new volatility oracles\n    function updateVolChain(address _underlyingAddress, VolatilityChain _newOracle) external onlyOwner{\n        if(!underlyingList.contains(_underlyingAddress)){\n            underlyingList.add(_underlyingAddress);}\n        volatilityChainMap[_underlyingAddress] = _newOracle;}\n        // emit UpdateToken( _underlyingAddress, address(_newOracle));}\n    function getVolatilityChain(address _underlyingAddress) public view returns(VolatilityChain){\n        require(address(volatilityChainMap[_underlyingAddress]) != address(0), \"Oracle not registered\");\n        return volatilityChainMap[_underlyingAddress];}\n    \n    // update/get vol tokens.\n    function updateVolToken(address _underlyingAddress, uint256 _tenor, VolatilityToken _volToken) external onlyOwner{ \n        require((_volToken.tenor() == _tenor) && (_volToken.underlying() == _underlyingAddress), 'xV');\n        volatilityTokenMap[_underlyingAddress].set(_tenor, address(_volToken));}\n        // emit UpdateVolToken(_underlyingAddress, _tenor, address(_volToken)); }\n    function getVolatilityToken(address _underlyingAddress, uint256 _tenor) external view returns (VolatilityToken){\n        (bool _success, address _volToken) = volatilityTokenMap[_underlyingAddress].tryGet(_tenor);\n        require(_success, \"no vol token\");\n        return VolatilityToken(_volToken);}\n    \n    // update eligible routes\n    function updateEligibleRoute(address _route, bool _add) public onlyOwner returns(bool){\n        require(_route != address(0), \"empty address\");\n        if(_add) { return eligibleTradingRoutes.add(_route);}\n        else{ return eligibleTradingRoutes.remove(_route);}}\n    function existEligibleRoute(address _route) external view returns(bool){\n        return eligibleTradingRoutes.contains(_route);}\n    \n    // update vol trading pool\n    function updateVolTradingPool(address _poolAddress, bool _add) public onlyOwner returns(bool){\n        require(_poolAddress != address(0), \"empty address\");\n        if(_add) { return volTradingPools.add(_poolAddress);}\n        else{ return volTradingPools.remove(_poolAddress);}}\n    function existVolTradingPool(address _poolAddress) external view returns(bool){\n        return volTradingPools.contains(_poolAddress);}\n\n    // The following functions are overrides required by Solidity.\n\n    function _afterTokenTransfer(address from, address to, uint256 amount)\n        internal\n        override(ERC20, ERC20Votes)\n    {\n        super._afterTokenTransfer(from, to, amount);\n    }\n\n    function _mint(address to, uint256 amount)\n        internal\n        override(ERC20, ERC20Votes)\n    {\n        super._mint(to, amount);\n    }\n\n    function _burn(address account, uint256 amount)\n        internal\n        override(ERC20, ERC20Votes)\n    {\n        super._burn(account, amount);\n    }\n}\n",
  "sourcePath": "/Users/mac/Documents/GitHub/moret/contracts/governance/Moret.sol",
  "compiler": {
    "name": "solc",
    "version": "0.8.15+commit.e14f2714.Emscripten.clang"
  },
  "schemaVersion": "3.4.3",
  "updatedAt": "2022-06-28T19:42:18.153Z",
  "networkType": "ethereum",
  "devdoc": {
    "custom:security-contact": "eight@moret.io",
    "kind": "dev",
    "methods": {
      "DOMAIN_SEPARATOR()": {
        "details": "See {IERC20Permit-DOMAIN_SEPARATOR}."
      },
      "allowance(address,address)": {
        "details": "See {IERC20-allowance}."
      },
      "approve(address,uint256)": {
        "details": "See {IERC20-approve}. NOTE: If `amount` is the maximum `uint256`, the allowance is not updated on `transferFrom`. This is semantically equivalent to an infinite approval. Requirements: - `spender` cannot be the zero address."
      },
      "balanceOf(address)": {
        "details": "See {IERC20-balanceOf}."
      },
      "checkpoints(address,uint32)": {
        "details": "Get the `pos`-th checkpoint for `account`."
      },
      "decimals()": {
        "details": "Returns the number of decimals used to get its user representation. For example, if `decimals` equals `2`, a balance of `505` tokens should be displayed to a user as `5.05` (`505 / 10 ** 2`). Tokens usually opt for a value of 18, imitating the relationship between Ether and Wei. This is the value {ERC20} uses, unless this function is overridden; NOTE: This information is only used for _display_ purposes: it in no way affects any of the arithmetic of the contract, including {IERC20-balanceOf} and {IERC20-transfer}."
      },
      "decreaseAllowance(address,uint256)": {
        "details": "Atomically decreases the allowance granted to `spender` by the caller. This is an alternative to {approve} that can be used as a mitigation for problems described in {IERC20-approve}. Emits an {Approval} event indicating the updated allowance. Requirements: - `spender` cannot be the zero address. - `spender` must have allowance for the caller of at least `subtractedValue`."
      },
      "delegate(address)": {
        "details": "Delegate votes from the sender to `delegatee`."
      },
      "delegateBySig(address,uint256,uint256,uint8,bytes32,bytes32)": {
        "details": "Delegates votes from signer to `delegatee`"
      },
      "delegates(address)": {
        "details": "Get the address `account` is currently delegating to."
      },
      "getPastTotalSupply(uint256)": {
        "details": "Retrieve the `totalSupply` at the end of `blockNumber`. Note, this value is the sum of all balances. It is but NOT the sum of all the delegated votes! Requirements: - `blockNumber` must have been already mined"
      },
      "getPastVotes(address,uint256)": {
        "details": "Retrieve the number of votes for `account` at the end of `blockNumber`. Requirements: - `blockNumber` must have been already mined"
      },
      "getVotes(address)": {
        "details": "Gets the current votes balance for `account`"
      },
      "increaseAllowance(address,uint256)": {
        "details": "Atomically increases the allowance granted to `spender` by the caller. This is an alternative to {approve} that can be used as a mitigation for problems described in {IERC20-approve}. Emits an {Approval} event indicating the updated allowance. Requirements: - `spender` cannot be the zero address."
      },
      "name()": {
        "details": "Returns the name of the token."
      },
      "nonces(address)": {
        "details": "See {IERC20Permit-nonces}."
      },
      "numCheckpoints(address)": {
        "details": "Get number of checkpoints for `account`."
      },
      "owner()": {
        "details": "Returns the address of the current owner."
      },
      "permit(address,address,uint256,uint256,uint8,bytes32,bytes32)": {
        "details": "See {IERC20Permit-permit}."
      },
      "renounceOwnership()": {
        "details": "Leaves the contract without owner. It will not be possible to call `onlyOwner` functions anymore. Can only be called by the current owner. NOTE: Renouncing ownership will leave the contract without an owner, thereby removing any functionality that is only available to the owner."
      },
      "symbol()": {
        "details": "Returns the symbol of the token, usually a shorter version of the name."
      },
      "totalSupply()": {
        "details": "See {IERC20-totalSupply}."
      },
      "transfer(address,uint256)": {
        "details": "See {IERC20-transfer}. Requirements: - `to` cannot be the zero address. - the caller must have a balance of at least `amount`."
      },
      "transferFrom(address,address,uint256)": {
        "details": "See {IERC20-transferFrom}. Emits an {Approval} event indicating the updated allowance. This is not required by the EIP. See the note at the beginning of {ERC20}. NOTE: Does not update the allowance if the current allowance is the maximum `uint256`. Requirements: - `from` and `to` cannot be the zero address. - `from` must have a balance of at least `amount`. - the caller must have allowance for ``from``'s tokens of at least `amount`."
      },
      "transferOwnership(address)": {
        "details": "Transfers ownership of the contract to a new account (`newOwner`). Can only be called by the current owner."
      }
    },
    "version": 1
  },
  "userdoc": {
    "kind": "user",
    "methods": {},
    "version": 1
  }
}