{
  "contractName": "MoretBroker",
  "abi": [
    {
      "inputs": [
        {
          "internalType": "contract ERC20",
          "name": "_funding",
          "type": "address"
        },
        {
          "internalType": "address",
          "name": "_exchange",
          "type": "address"
        }
      ],
      "stateMutability": "nonpayable",
      "type": "constructor"
    },
    {
      "anonymous": false,
      "inputs": [
        {
          "indexed": false,
          "internalType": "address",
          "name": "_address",
          "type": "address"
        },
        {
          "indexed": false,
          "internalType": "bool",
          "name": "_add",
          "type": "bool"
        }
      ],
      "name": "AddPool",
      "type": "event"
    },
    {
      "anonymous": false,
      "inputs": [
        {
          "indexed": false,
          "internalType": "address",
          "name": "_pool",
          "type": "address"
        },
        {
          "indexed": false,
          "internalType": "address",
          "name": "_sender",
          "type": "address"
        },
        {
          "indexed": false,
          "internalType": "uint256",
          "name": "_amount",
          "type": "uint256"
        },
        {
          "indexed": false,
          "internalType": "uint256",
          "name": "_moretAmount",
          "type": "uint256"
        }
      ],
      "name": "ExchangePoolTokens",
      "type": "event"
    },
    {
      "anonymous": false,
      "inputs": [
        {
          "indexed": true,
          "internalType": "bytes32",
          "name": "role",
          "type": "bytes32"
        },
        {
          "indexed": true,
          "internalType": "bytes32",
          "name": "previousAdminRole",
          "type": "bytes32"
        },
        {
          "indexed": true,
          "internalType": "bytes32",
          "name": "newAdminRole",
          "type": "bytes32"
        }
      ],
      "name": "RoleAdminChanged",
      "type": "event"
    },
    {
      "anonymous": false,
      "inputs": [
        {
          "indexed": true,
          "internalType": "bytes32",
          "name": "role",
          "type": "bytes32"
        },
        {
          "indexed": true,
          "internalType": "address",
          "name": "account",
          "type": "address"
        },
        {
          "indexed": true,
          "internalType": "address",
          "name": "sender",
          "type": "address"
        }
      ],
      "name": "RoleGranted",
      "type": "event"
    },
    {
      "anonymous": false,
      "inputs": [
        {
          "indexed": true,
          "internalType": "bytes32",
          "name": "role",
          "type": "bytes32"
        },
        {
          "indexed": true,
          "internalType": "address",
          "name": "account",
          "type": "address"
        },
        {
          "indexed": true,
          "internalType": "address",
          "name": "sender",
          "type": "address"
        }
      ],
      "name": "RoleRevoked",
      "type": "event"
    },
    {
      "anonymous": false,
      "inputs": [
        {
          "indexed": false,
          "internalType": "uint256",
          "name": "_fee",
          "type": "uint256"
        }
      ],
      "name": "UpdateProtocolFees",
      "type": "event"
    },
    {
      "anonymous": false,
      "inputs": [
        {
          "indexed": false,
          "internalType": "address",
          "name": "_address",
          "type": "address"
        }
      ],
      "name": "UpdateProtocolRecipient",
      "type": "event"
    },
    {
      "anonymous": false,
      "inputs": [
        {
          "indexed": false,
          "internalType": "address",
          "name": "_route",
          "type": "address"
        },
        {
          "indexed": false,
          "internalType": "bool",
          "name": "_addition",
          "type": "bool"
        }
      ],
      "name": "UpdateRoute",
      "type": "event"
    },
    {
      "anonymous": false,
      "inputs": [
        {
          "indexed": false,
          "internalType": "address",
          "name": "_underlying",
          "type": "address"
        },
        {
          "indexed": false,
          "internalType": "address",
          "name": "_oracle",
          "type": "address"
        }
      ],
      "name": "UpdateToken",
      "type": "event"
    },
    {
      "anonymous": false,
      "inputs": [
        {
          "indexed": false,
          "internalType": "address",
          "name": "_underlying",
          "type": "address"
        },
        {
          "indexed": false,
          "internalType": "uint256",
          "name": "_tenor",
          "type": "uint256"
        },
        {
          "indexed": false,
          "internalType": "address",
          "name": "_volToken",
          "type": "address"
        }
      ],
      "name": "UpdateVolToken",
      "type": "event"
    },
    {
      "anonymous": false,
      "inputs": [
        {
          "indexed": false,
          "internalType": "address",
          "name": "_address",
          "type": "address"
        },
        {
          "indexed": false,
          "internalType": "bool",
          "name": "_add",
          "type": "bool"
        }
      ],
      "name": "UpdateVolTradingPool",
      "type": "event"
    },
    {
      "anonymous": false,
      "inputs": [
        {
          "indexed": false,
          "internalType": "address",
          "name": "_pool",
          "type": "address"
        },
        {
          "indexed": false,
          "internalType": "uint256",
          "name": "_amount",
          "type": "uint256"
        }
      ],
      "name": "WithdrawPoolTokens",
      "type": "event"
    },
    {
      "inputs": [],
      "name": "DEFAULT_ADMIN_ROLE",
      "outputs": [
        {
          "internalType": "bytes32",
          "name": "",
          "type": "bytes32"
        }
      ],
      "stateMutability": "view",
      "type": "function"
    },
    {
      "inputs": [],
      "name": "exchange",
      "outputs": [
        {
          "internalType": "address",
          "name": "",
          "type": "address"
        }
      ],
      "stateMutability": "view",
      "type": "function"
    },
    {
      "inputs": [],
      "name": "funding",
      "outputs": [
        {
          "internalType": "contract ERC20",
          "name": "",
          "type": "address"
        }
      ],
      "stateMutability": "view",
      "type": "function"
    },
    {
      "inputs": [
        {
          "internalType": "bytes32",
          "name": "role",
          "type": "bytes32"
        }
      ],
      "name": "getRoleAdmin",
      "outputs": [
        {
          "internalType": "bytes32",
          "name": "",
          "type": "bytes32"
        }
      ],
      "stateMutability": "view",
      "type": "function"
    },
    {
      "inputs": [
        {
          "internalType": "bytes32",
          "name": "role",
          "type": "bytes32"
        },
        {
          "internalType": "address",
          "name": "account",
          "type": "address"
        }
      ],
      "name": "grantRole",
      "outputs": [],
      "stateMutability": "nonpayable",
      "type": "function"
    },
    {
      "inputs": [
        {
          "internalType": "bytes32",
          "name": "role",
          "type": "bytes32"
        },
        {
          "internalType": "address",
          "name": "account",
          "type": "address"
        }
      ],
      "name": "hasRole",
      "outputs": [
        {
          "internalType": "bool",
          "name": "",
          "type": "bool"
        }
      ],
      "stateMutability": "view",
      "type": "function"
    },
    {
      "inputs": [],
      "name": "minCapital",
      "outputs": [
        {
          "internalType": "uint256",
          "name": "",
          "type": "uint256"
        }
      ],
      "stateMutability": "view",
      "type": "function"
    },
    {
      "inputs": [],
      "name": "poolCapital",
      "outputs": [
        {
          "internalType": "uint256",
          "name": "",
          "type": "uint256"
        }
      ],
      "stateMutability": "view",
      "type": "function"
    },
    {
      "inputs": [
        {
          "internalType": "bytes32",
          "name": "role",
          "type": "bytes32"
        },
        {
          "internalType": "address",
          "name": "account",
          "type": "address"
        }
      ],
      "name": "renounceRole",
      "outputs": [],
      "stateMutability": "nonpayable",
      "type": "function"
    },
    {
      "inputs": [
        {
          "internalType": "bytes32",
          "name": "role",
          "type": "bytes32"
        },
        {
          "internalType": "address",
          "name": "account",
          "type": "address"
        }
      ],
      "name": "revokeRole",
      "outputs": [],
      "stateMutability": "nonpayable",
      "type": "function"
    },
    {
      "inputs": [
        {
          "internalType": "bytes4",
          "name": "interfaceId",
          "type": "bytes4"
        }
      ],
      "name": "supportsInterface",
      "outputs": [
        {
          "internalType": "bool",
          "name": "",
          "type": "bool"
        }
      ],
      "stateMutability": "view",
      "type": "function"
    },
    {
      "inputs": [],
      "name": "vault",
      "outputs": [
        {
          "internalType": "contract OptionVault",
          "name": "",
          "type": "address"
        }
      ],
      "stateMutability": "view",
      "type": "function"
    },
    {
      "inputs": [
        {
          "internalType": "address",
          "name": "_poolAddr",
          "type": "address"
        },
        {
          "internalType": "uint256",
          "name": "_payInAmount",
          "type": "uint256"
        }
      ],
      "name": "exchangePoolForMoret",
      "outputs": [],
      "stateMutability": "nonpayable",
      "type": "function"
    },
    {
      "inputs": [
        {
          "internalType": "contract Pool",
          "name": "_pool",
          "type": "address"
        },
        {
          "internalType": "bool",
          "name": "_remove",
          "type": "bool"
        }
      ],
      "name": "addPool",
      "outputs": [],
      "stateMutability": "nonpayable",
      "type": "function"
    },
    {
      "inputs": [
        {
          "internalType": "address",
          "name": "_undAddr",
          "type": "address"
        }
      ],
      "name": "getAllPools",
      "outputs": [
        {
          "internalType": "address[]",
          "name": "",
          "type": "address[]"
        }
      ],
      "stateMutability": "view",
      "type": "function"
    },
    {
      "inputs": [
        {
          "internalType": "address",
          "name": "_undAddr",
          "type": "address"
        }
      ],
      "name": "getTopPool",
      "outputs": [
        {
          "internalType": "address",
          "name": "",
          "type": "address"
        }
      ],
      "stateMutability": "view",
      "type": "function"
    }
  ],
  "bytecode": "0x60a060405260006004553480156200001657600080fd5b5060405162003a4a38038062003a4a83398181016040528101906200003c919062000221565b6001808190555081600660006101000a81548173ffffffffffffffffffffffffffffffffffffffff021916908373ffffffffffffffffffffffffffffffffffffffff1602179055508073ffffffffffffffffffffffffffffffffffffffff1660808173ffffffffffffffffffffffffffffffffffffffff16815250508073ffffffffffffffffffffffffffffffffffffffff1663fbfa77cf6040518163ffffffff1660e01b8152600401602060405180830381865afa15801562000104573d6000803e3d6000fd5b505050506040513d601f19601f820116820180604052508101906200012a9190620002ad565b600760006101000a81548173ffffffffffffffffffffffffffffffffffffffff021916908373ffffffffffffffffffffffffffffffffffffffff1602179055505050620002df565b600080fd5b600073ffffffffffffffffffffffffffffffffffffffff82169050919050565b6000620001a48262000177565b9050919050565b6000620001b88262000197565b9050919050565b620001ca81620001ab565b8114620001d657600080fd5b50565b600081519050620001ea81620001bf565b92915050565b620001fb8162000197565b81146200020757600080fd5b50565b6000815190506200021b81620001f0565b92915050565b600080604083850312156200023b576200023a62000172565b5b60006200024b85828601620001d9565b92505060206200025e858286016200020a565b9150509250929050565b6000620002758262000197565b9050919050565b620002878162000268565b81146200029357600080fd5b50565b600081519050620002a7816200027c565b92915050565b600060208284031215620002c657620002c562000172565b5b6000620002d68482850162000296565b91505092915050565b60805161374862000302600039600081816107880152610a2301526137486000f3fe608060405234801561001057600080fd5b50600436106101005760003560e01c8063b0bb003111610097578063d547741f11610066578063d547741f146102af578063d9038027146102cb578063da882217146102e7578063fbfa77cf1461031757610100565b8063b0bb003114610239578063caa8c38214610255578063cb4c86b714610273578063d2f7265a1461029157610100565b806336568abe116100d357806336568abe146101b157806391d14854146101cd578063a217fddf146101fd578063aa61dcd31461021b57610100565b806301ffc9a714610105578063248a9ca3146101355780632f2ff15d14610165578063345954dc14610181575b600080fd5b61011f600480360381019061011a91906124d3565b610335565b60405161012c919061251b565b60405180910390f35b61014f600480360381019061014a919061256c565b6103af565b60405161015c91906125a8565b60405180910390f35b61017f600480360381019061017a9190612621565b6103ce565b005b61019b60048036038101906101969190612661565b6103ef565b6040516101a8919061274c565b60405180910390f35b6101cb60048036038101906101c69190612621565b61043f565b005b6101e760048036038101906101e29190612621565b6104c2565b6040516101f4919061251b565b60405180910390f35b61020561052c565b60405161021291906125a8565b60405180910390f35b610223610533565b6040516102309190612787565b60405180910390f35b610253600480360381019061024e919061280c565b610539565b005b61025d6109ed565b60405161026a9190612787565b60405180910390f35b61027b6109fb565b60405161028891906128ab565b60405180910390f35b610299610a21565b6040516102a691906128d5565b60405180910390f35b6102c960048036038101906102c49190612621565b610a45565b005b6102e560048036038101906102e0919061291c565b610a66565b005b61030160048036038101906102fc9190612661565b6112fb565b60405161030e91906128d5565b60405180910390f35b61031f611364565b60405161032c919061297d565b60405180910390f35b60007f7965db0b000000000000000000000000000000000000000000000000000000007bffffffffffffffffffffffffffffffffffffffffffffffffffffffff1916827bffffffffffffffffffffffffffffffffffffffffffffffffffffffff191614806103a857506103a78261138a565b5b9050919050565b6000806000838152602001908152602001600020600101549050919050565b6103d7826103af565b6103e0816113f4565b6103ea8383611408565b505050565b6060610438600360008473ffffffffffffffffffffffffffffffffffffffff1673ffffffffffffffffffffffffffffffffffffffff1681526020019081526020016000206114e8565b9050919050565b610447611509565b73ffffffffffffffffffffffffffffffffffffffff168173ffffffffffffffffffffffffffffffffffffffff16146104b4576040517f08c379a00000000000000000000000000000000000000000000000000000000081526004016104ab90612a1b565b60405180910390fd5b6104be8282611511565b5050565b600080600084815260200190815260200160002060000160008373ffffffffffffffffffffffffffffffffffffffff1673ffffffffffffffffffffffffffffffffffffffff16815260200190815260200160002060009054906101000a900460ff16905092915050565b6000801b81565b60045481565b60008273ffffffffffffffffffffffffffffffffffffffff16631f21f9af6040518163ffffffff1660e01b8152600401602060405180830381865afa158015610586573d6000803e3d6000fd5b505050506040513d601f19601f820116820180604052508101906105aa9190612a79565b73ffffffffffffffffffffffffffffffffffffffff16636f307dc36040518163ffffffff1660e01b8152600401602060405180830381865afa1580156105f4573d6000803e3d6000fd5b505050506040513d601f19601f820116820180604052508101906106189190612abb565b9050600660009054906101000a900473ffffffffffffffffffffffffffffffffffffffff1673ffffffffffffffffffffffffffffffffffffffff168373ffffffffffffffffffffffffffffffffffffffff16631f21f9af6040518163ffffffff1660e01b8152600401602060405180830381865afa15801561069e573d6000803e3d6000fd5b505050506040513d601f19601f820116820180604052508101906106c29190612a79565b73ffffffffffffffffffffffffffffffffffffffff1663cb4c86b76040518163ffffffff1660e01b8152600401602060405180830381865afa15801561070c573d6000803e3d6000fd5b505050506040513d601f19601f820116820180604052508101906107309190612abb565b73ffffffffffffffffffffffffffffffffffffffff1614610786576040517f08c379a000000000000000000000000000000000000000000000000000000000815260040161077d90612b34565b60405180910390fd5b7f000000000000000000000000000000000000000000000000000000000000000073ffffffffffffffffffffffffffffffffffffffff168373ffffffffffffffffffffffffffffffffffffffff1663d2f7265a6040518163ffffffff1660e01b8152600401602060405180830381865afa158015610808573d6000803e3d6000fd5b505050506040513d601f19601f8201168201806040525081019061082c9190612abb565b73ffffffffffffffffffffffffffffffffffffffff1614610882576040517f08c379a000000000000000000000000000000000000000000000000000000000815260040161087990612ba0565b60405180910390fd5b811561091d576108d983600360008473ffffffffffffffffffffffffffffffffffffffff1673ffffffffffffffffffffffffffffffffffffffff1681526020019081526020016000206115f290919063ffffffff16565b610918576040517f08c379a000000000000000000000000000000000000000000000000000000000815260040161090f90612c0c565b60405180910390fd5b6109ae565b61096e83600360008473ffffffffffffffffffffffffffffffffffffffff1673ffffffffffffffffffffffffffffffffffffffff16815260200190815260200160002061162290919063ffffffff16565b6109ad576040517f08c379a00000000000000000000000000000000000000000000000000000000081526004016109a490612c78565b60405180910390fd5b5b7f43443c3f641e5eade2da3e772f3557c519de2e00a357916d5e92bf34f0a1a9a58383156040516109e0929190612c98565b60405180910390a1505050565b69d3c21bcecceda100000081565b600660009054906101000a900473ffffffffffffffffffffffffffffffffffffffff1681565b7f000000000000000000000000000000000000000000000000000000000000000081565b610a4e826103af565b610a57816113f4565b610a618383611511565b505050565b600260015403610aab576040517f08c379a0000000000000000000000000000000000000000000000000000000008152600401610aa290612d0d565b60405180910390fd5b6002600181905550600082905060008173ffffffffffffffffffffffffffffffffffffffff16631f21f9af6040518163ffffffff1660e01b8152600401602060405180830381865afa158015610b05573d6000803e3d6000fd5b505050506040513d601f19601f82011682018060405250810190610b299190612a79565b73ffffffffffffffffffffffffffffffffffffffff166305268cff6040518163ffffffff1660e01b8152600401602060405180830381865afa158015610b73573d6000803e3d6000fd5b505050506040513d601f19601f82011682018060405250810190610b979190612d6b565b905060008273ffffffffffffffffffffffffffffffffffffffff16631f21f9af6040518163ffffffff1660e01b8152600401602060405180830381865afa158015610be6573d6000803e3d6000fd5b505050506040513d601f19601f82011682018060405250810190610c0a9190612a79565b73ffffffffffffffffffffffffffffffffffffffff16636f307dc36040518163ffffffff1660e01b8152600401602060405180830381865afa158015610c54573d6000803e3d6000fd5b505050506040513d601f19601f82011682018060405250810190610c789190612abb565b9050600073ffffffffffffffffffffffffffffffffffffffff168273ffffffffffffffffffffffffffffffffffffffff166315dc2e9d836040518263ffffffff1660e01b8152600401610ccb91906128d5565b602060405180830381865afa158015610ce8573d6000803e3d6000fd5b505050506040513d601f19601f82011682018060405250810190610d0c9190612dd6565b73ffffffffffffffffffffffffffffffffffffffff1603610d62576040517f08c379a0000000000000000000000000000000000000000000000000000000008152600401610d5990612e4f565b60405180910390fd5b610d8f3383868873ffffffffffffffffffffffffffffffffffffffff16611652909392919063ffffffff16565b6000610d9b84836116db565b905060008573__MathLib_______________________________63b3947c179091848873ffffffffffffffffffffffffffffffffffffffff166318160ddd6040518163ffffffff1660e01b8152600401602060405180830381865afa158015610e08573d6000803e3d6000fd5b505050506040513d601f19601f82011682018060405250810190610e2c9190612e84565b6040518463ffffffff1660e01b8152600401610e4a93929190612ec0565b602060405180830381865af4158015610e67573d6000803e3d6000fd5b505050506040513d601f19601f82011682018060405250810190610e8b9190612e84565b90506000610ea569d3c21bcecceda1000000600454611b1d565b905060008273__MathLib_______________________________63b3947c1790918873ffffffffffffffffffffffffffffffffffffffff166318160ddd6040518163ffffffff1660e01b8152600401602060405180830381865afa158015610f11573d6000803e3d6000fd5b505050506040513d601f19601f82011682018060405250810190610f359190612e84565b856040518463ffffffff1660e01b8152600401610f5493929190612ec0565b602060405180830381865af4158015610f71573d6000803e3d6000fd5b505050506040513d601f19601f82011682018060405250810190610f959190612e84565b905060008773ffffffffffffffffffffffffffffffffffffffff166370a08231886040518263ffffffff1660e01b8152600401610fd291906128d5565b602060405180830381865afa158015610fef573d6000803e3d6000fd5b505050506040513d601f19601f820116820180604052508101906110139190612e84565b73__MathLib_______________________________63b3947c179091878b73ffffffffffffffffffffffffffffffffffffffff166318160ddd6040518163ffffffff1660e01b8152600401602060405180830381865afa15801561107b573d6000803e3d6000fd5b505050506040513d601f19601f8201168201806040525081019061109f9190612e84565b6040518463ffffffff1660e01b81526004016110bd93929190612ec0565b602060405180830381865af41580156110da573d6000803e3d6000fd5b505050506040513d601f19601f820116820180604052508101906110fe9190612e84565b90506111518a600560008973ffffffffffffffffffffffffffffffffffffffff1673ffffffffffffffffffffffffffffffffffffffff168152602001908152602001600020611b3790919063ffffffff16565b156111d557806111b36004546111ae8d600560008c73ffffffffffffffffffffffffffffffffffffffff1673ffffffffffffffffffffffffffffffffffffffff168152602001908152602001600020611b6790919063ffffffff16565b611b9a565b6004546111c09190612f26565b6111ca9190612f5a565b6004819055506111ea565b806004546111e39190612f5a565b6004819055505b61123d8a82600560008a73ffffffffffffffffffffffffffffffffffffffff1673ffffffffffffffffffffffffffffffffffffffff168152602001908152602001600020611bb39092919063ffffffff16565b508673ffffffffffffffffffffffffffffffffffffffff166340c10f1933846040518363ffffffff1660e01b8152600401611279929190612f8e565b600060405180830381600087803b15801561129357600080fd5b505af11580156112a7573d6000803e3d6000fd5b505050507f4877c2e401ca94d9fe3d52bf4c0904a11f6a4bcbf76b8ec5a1684f396859e0c48a338b856040516112e09493929190612fb7565b60405180910390a15050505050505050600180819055505050565b6000600260008373ffffffffffffffffffffffffffffffffffffffff1673ffffffffffffffffffffffffffffffffffffffff16815260200190815260200160002060009054906101000a900473ffffffffffffffffffffffffffffffffffffffff169050919050565b600760009054906101000a900473ffffffffffffffffffffffffffffffffffffffff1681565b60007f01ffc9a7000000000000000000000000000000000000000000000000000000007bffffffffffffffffffffffffffffffffffffffffffffffffffffffff1916827bffffffffffffffffffffffffffffffffffffffffffffffffffffffff1916149050919050565b61140581611400611509565b611be8565b50565b61141282826104c2565b6114e457600160008084815260200190815260200160002060000160008373ffffffffffffffffffffffffffffffffffffffff1673ffffffffffffffffffffffffffffffffffffffff16815260200190815260200160002060006101000a81548160ff021916908315150217905550611489611509565b73ffffffffffffffffffffffffffffffffffffffff168173ffffffffffffffffffffffffffffffffffffffff16837f2f8788117e7eff1d82e926ec794901d17c78024a50270940304540a733656f0d60405160405180910390a45b5050565b606060006114f883600001611c85565b905060608190508092505050919050565b600033905090565b61151b82826104c2565b156115ee57600080600084815260200190815260200160002060000160008373ffffffffffffffffffffffffffffffffffffffff1673ffffffffffffffffffffffffffffffffffffffff16815260200190815260200160002060006101000a81548160ff021916908315150217905550611593611509565b73ffffffffffffffffffffffffffffffffffffffff168173ffffffffffffffffffffffffffffffffffffffff16837ff6391f5c32d9c69d2a47ea670b442974b53935d1edc7fd64eb21e047a839171b60405160405180910390a45b5050565b600061161a836000018373ffffffffffffffffffffffffffffffffffffffff1660001b611ce1565b905092915050565b600061164a836000018373ffffffffffffffffffffffffffffffffffffffff1660001b611df5565b905092915050565b6116d5846323b872dd60e01b85858560405160240161167393929190612ffc565b604051602081830303815290604052907bffffffffffffffffffffffffffffffffffffffffffffffffffffffff19166020820180517bffffffffffffffffffffffffffffffffffffffffffffffffffffffff8381831617835250505050611e65565b50505050565b600061172e83600360008573ffffffffffffffffffffffffffffffffffffffff1673ffffffffffffffffffffffffffffffffffffffff168152602001908152602001600020611f2c90919063ffffffff16565b61176d576040517f08c379a00000000000000000000000000000000000000000000000000000000081526004016117649061307f565b60405180910390fd5b600760009054906101000a900473ffffffffffffffffffffffffffffffffffffffff1673ffffffffffffffffffffffffffffffffffffffff16635c273c2f84600160006040518463ffffffff1660e01b81526004016117ce939291906130c0565b602060405180830381865afa1580156117eb573d6000803e3d6000fd5b505050506040513d601f19601f8201168201806040525081019061180f9190612e84565b905069d3c21bcecceda1000000811161185d576040517f08c379a000000000000000000000000000000000000000000000000000000000815260040161185490613143565b60405180910390fd5b8273ffffffffffffffffffffffffffffffffffffffff16600260008473ffffffffffffffffffffffffffffffffffffffff1673ffffffffffffffffffffffffffffffffffffffff16815260200190815260200160002060009054906101000a900473ffffffffffffffffffffffffffffffffffffffff1673ffffffffffffffffffffffffffffffffffffffff1614611b175760008073ffffffffffffffffffffffffffffffffffffffff16600260008573ffffffffffffffffffffffffffffffffffffffff1673ffffffffffffffffffffffffffffffffffffffff16815260200190815260200160002060009054906101000a900473ffffffffffffffffffffffffffffffffffffffff1673ffffffffffffffffffffffffffffffffffffffff160361198a576000611a8c565b600760009054906101000a900473ffffffffffffffffffffffffffffffffffffffff1673ffffffffffffffffffffffffffffffffffffffff16635c273c2f600260008673ffffffffffffffffffffffffffffffffffffffff1673ffffffffffffffffffffffffffffffffffffffff16815260200190815260200160002060009054906101000a900473ffffffffffffffffffffffffffffffffffffffff16600160006040518463ffffffff1660e01b8152600401611a4a939291906130c0565b602060405180830381865afa158015611a67573d6000803e3d6000fd5b505050506040513d601f19601f82011682018060405250810190611a8b9190612e84565b5b905080821115611b155783600260008573ffffffffffffffffffffffffffffffffffffffff1673ffffffffffffffffffffffffffffffffffffffff16815260200190815260200160002060006101000a81548173ffffffffffffffffffffffffffffffffffffffff021916908373ffffffffffffffffffffffffffffffffffffffff1602179055505b505b92915050565b600081831015611b2d5781611b2f565b825b905092915050565b6000611b5f836000018373ffffffffffffffffffffffffffffffffffffffff1660001b611f5c565b905092915050565b6000611b8f836000018373ffffffffffffffffffffffffffffffffffffffff1660001b611f7c565b60001c905092915050565b6000818310611ba95781611bab565b825b905092915050565b6000611bdf846000018473ffffffffffffffffffffffffffffffffffffffff1660001b8460001b611ff8565b90509392505050565b611bf282826104c2565b611c8157611c178173ffffffffffffffffffffffffffffffffffffffff166014612033565b611c258360001c6020612033565b604051602001611c3692919061326c565b6040516020818303038152906040526040517f08c379a0000000000000000000000000000000000000000000000000000000008152600401611c7891906132f0565b60405180910390fd5b5050565b606081600001805480602002602001604051908101604052809291908181526020018280548015611cd557602002820191906000526020600020905b815481526020019060010190808311611cc1575b50505050509050919050565b60008083600101600084815260200190815260200160002054905060008114611de9576000600182611d139190612f26565b9050600060018660000180549050611d2b9190612f26565b9050818114611d9a576000866000018281548110611d4c57611d4b613312565b5b9060005260206000200154905080876000018481548110611d7057611d6f613312565b5b90600052602060002001819055508387600101600083815260200190815260200160002081905550505b85600001805480611dae57611dad613341565b5b600190038181906000526020600020016000905590558560010160008681526020019081526020016000206000905560019350505050611def565b60009150505b92915050565b6000611e01838361226f565b611e5a578260000182908060018154018082558091505060019003906000526020600020016000909190919091505582600001805490508360010160008481526020019081526020016000208190555060019050611e5f565b600090505b92915050565b6000611ec7826040518060400160405280602081526020017f5361666545524332303a206c6f772d6c6576656c2063616c6c206661696c65648152508573ffffffffffffffffffffffffffffffffffffffff166122929092919063ffffffff16565b9050600081511115611f275780806020019051810190611ee79190613385565b611f26576040517f08c379a0000000000000000000000000000000000000000000000000000000008152600401611f1d90613424565b60405180910390fd5b5b505050565b6000611f54836000018373ffffffffffffffffffffffffffffffffffffffff1660001b61226f565b905092915050565b6000611f7482846000016122aa90919063ffffffff16565b905092915050565b6000808360020160008481526020019081526020016000205490506000801b81141580611faf5750611fae8484611f5c565b5b611fee576040517f08c379a0000000000000000000000000000000000000000000000000000000008152600401611fe590613490565b60405180910390fd5b8091505092915050565b6000818460020160008581526020019081526020016000208190555061202a83856000016122c190919063ffffffff16565b90509392505050565b60606000600283600261204691906134b0565b6120509190612f5a565b67ffffffffffffffff811115612069576120686134f2565b5b6040519080825280601f01601f19166020018201604052801561209b5781602001600182028036833780820191505090505b5090507f3000000000000000000000000000000000000000000000000000000000000000816000815181106120d3576120d2613312565b5b60200101907effffffffffffffffffffffffffffffffffffffffffffffffffffffffffffff1916908160001a9053507f78000000000000000000000000000000000000000000000000000000000000008160018151811061213757612136613312565b5b60200101907effffffffffffffffffffffffffffffffffffffffffffffffffffffffffffff1916908160001a9053506000600184600261217791906134b0565b6121819190612f5a565b90505b6001811115612221577f3031323334353637383961626364656600000000000000000000000000000000600f8616601081106121c3576121c2613312565b5b1a60f81b8282815181106121da576121d9613312565b5b60200101907effffffffffffffffffffffffffffffffffffffffffffffffffffffffffffff1916908160001a905350600485901c94508061221a90613521565b9050612184565b5060008414612265576040517f08c379a000000000000000000000000000000000000000000000000000000000815260040161225c90613596565b60405180910390fd5b8091505092915050565b600080836001016000848152602001908152602001600020541415905092915050565b60606122a184846000856122d8565b90509392505050565b60006122b9836000018361226f565b905092915050565b60006122d08360000183611df5565b905092915050565b60608247101561231d576040517f08c379a000000000000000000000000000000000000000000000000000000000815260040161231490613628565b60405180910390fd5b612326856123ec565b612365576040517f08c379a000000000000000000000000000000000000000000000000000000000815260040161235c90613694565b60405180910390fd5b6000808673ffffffffffffffffffffffffffffffffffffffff16858760405161238e91906136fb565b60006040518083038185875af1925050503d80600081146123cb576040519150601f19603f3d011682016040523d82523d6000602084013e6123d0565b606091505b50915091506123e082828661240f565b92505050949350505050565b6000808273ffffffffffffffffffffffffffffffffffffffff163b119050919050565b6060831561241f5782905061246f565b6000835111156124325782518084602001fd5b816040517f08c379a000000000000000000000000000000000000000000000000000000000815260040161246691906132f0565b60405180910390fd5b9392505050565b600080fd5b60007fffffffff0000000000000000000000000000000000000000000000000000000082169050919050565b6124b08161247b565b81146124bb57600080fd5b50565b6000813590506124cd816124a7565b92915050565b6000602082840312156124e9576124e8612476565b5b60006124f7848285016124be565b91505092915050565b60008115159050919050565b61251581612500565b82525050565b6000602082019050612530600083018461250c565b92915050565b6000819050919050565b61254981612536565b811461255457600080fd5b50565b60008135905061256681612540565b92915050565b60006020828403121561258257612581612476565b5b600061259084828501612557565b91505092915050565b6125a281612536565b82525050565b60006020820190506125bd6000830184612599565b92915050565b600073ffffffffffffffffffffffffffffffffffffffff82169050919050565b60006125ee826125c3565b9050919050565b6125fe816125e3565b811461260957600080fd5b50565b60008135905061261b816125f5565b92915050565b6000806040838503121561263857612637612476565b5b600061264685828601612557565b92505060206126578582860161260c565b9150509250929050565b60006020828403121561267757612676612476565b5b60006126858482850161260c565b91505092915050565b600081519050919050565b600082825260208201905092915050565b6000819050602082019050919050565b6126c3816125e3565b82525050565b60006126d583836126ba565b60208301905092915050565b6000602082019050919050565b60006126f98261268e565b6127038185612699565b935061270e836126aa565b8060005b8381101561273f57815161272688826126c9565b9750612731836126e1565b925050600181019050612712565b5085935050505092915050565b6000602082019050818103600083015261276681846126ee565b905092915050565b6000819050919050565b6127818161276e565b82525050565b600060208201905061279c6000830184612778565b92915050565b60006127ad826125e3565b9050919050565b6127bd816127a2565b81146127c857600080fd5b50565b6000813590506127da816127b4565b92915050565b6127e981612500565b81146127f457600080fd5b50565b600081359050612806816127e0565b92915050565b6000806040838503121561282357612822612476565b5b6000612831858286016127cb565b9250506020612842858286016127f7565b9150509250929050565b6000819050919050565b600061287161286c612867846125c3565b61284c565b6125c3565b9050919050565b600061288382612856565b9050919050565b600061289582612878565b9050919050565b6128a58161288a565b82525050565b60006020820190506128c0600083018461289c565b92915050565b6128cf816125e3565b82525050565b60006020820190506128ea60008301846128c6565b92915050565b6128f98161276e565b811461290457600080fd5b50565b600081359050612916816128f0565b92915050565b6000806040838503121561293357612932612476565b5b60006129418582860161260c565b925050602061295285828601612907565b9150509250929050565b600061296782612878565b9050919050565b6129778161295c565b82525050565b6000602082019050612992600083018461296e565b92915050565b600082825260208201905092915050565b7f416363657373436f6e74726f6c3a2063616e206f6e6c792072656e6f756e636560008201527f20726f6c657320666f722073656c660000000000000000000000000000000000602082015250565b6000612a05602f83612998565b9150612a10826129a9565b604082019050919050565b60006020820190508181036000830152612a34816129f8565b9050919050565b6000612a46826125e3565b9050919050565b612a5681612a3b565b8114612a6157600080fd5b50565b600081519050612a7381612a4d565b92915050565b600060208284031215612a8f57612a8e612476565b5b6000612a9d84828501612a64565b91505092915050565b600081519050612ab5816125f5565b92915050565b600060208284031215612ad157612ad0612476565b5b6000612adf84828501612aa6565b91505092915050565b7f7866756e64696e67730000000000000000000000000000000000000000000000600082015250565b6000612b1e600983612998565b9150612b2982612ae8565b602082019050919050565b60006020820190508181036000830152612b4d81612b11565b9050919050565b7f2d70457800000000000000000000000000000000000000000000000000000000600082015250565b6000612b8a600483612998565b9150612b9582612b54565b602082019050919050565b60006020820190508181036000830152612bb981612b7d565b9050919050565b7f2d726d0000000000000000000000000000000000000000000000000000000000600082015250565b6000612bf6600383612998565b9150612c0182612bc0565b602082019050919050565b60006020820190508181036000830152612c2581612be9565b9050919050565b7f2d61640000000000000000000000000000000000000000000000000000000000600082015250565b6000612c62600383612998565b9150612c6d82612c2c565b602082019050919050565b60006020820190508181036000830152612c9181612c55565b9050919050565b6000604082019050612cad60008301856128c6565b612cba602083018461250c565b9392505050565b7f5265656e7472616e637947756172643a207265656e7472616e742063616c6c00600082015250565b6000612cf7601f83612998565b9150612d0282612cc1565b602082019050919050565b60006020820190508181036000830152612d2681612cea565b9050919050565b6000612d38826125e3565b9050919050565b612d4881612d2d565b8114612d5357600080fd5b50565b600081519050612d6581612d3f565b92915050565b600060208284031215612d8157612d80612476565b5b6000612d8f84828501612d56565b91505092915050565b6000612da3826125e3565b9050919050565b612db381612d98565b8114612dbe57600080fd5b50565b600081519050612dd081612daa565b92915050565b600060208284031215612dec57612deb612476565b5b6000612dfa84828501612dc1565b91505092915050565b7f30766f6c636861696e0000000000000000000000000000000000000000000000600082015250565b6000612e39600983612998565b9150612e4482612e03565b602082019050919050565b60006020820190508181036000830152612e6881612e2c565b9050919050565b600081519050612e7e816128f0565b92915050565b600060208284031215612e9a57612e99612476565b5b6000612ea884828501612e6f565b91505092915050565b612eba8161276e565b82525050565b6000606082019050612ed56000830186612eb1565b612ee26020830185612eb1565b612eef6040830184612eb1565b949350505050565b7f4e487b7100000000000000000000000000000000000000000000000000000000600052601160045260246000fd5b6000612f318261276e565b9150612f3c8361276e565b9250828203905081811115612f5457612f53612ef7565b5b92915050565b6000612f658261276e565b9150612f708361276e565b9250828201905080821115612f8857612f87612ef7565b5b92915050565b6000604082019050612fa360008301856128c6565b612fb06020830184612778565b9392505050565b6000608082019050612fcc60008301876128c6565b612fd960208301866128c6565b612fe66040830185612778565b612ff36060830184612778565b95945050505050565b600060608201905061301160008301866128c6565b61301e60208301856128c6565b61302b6040830184612778565b949350505050565b7f2d50000000000000000000000000000000000000000000000000000000000000600082015250565b6000613069600283612998565b915061307482613033565b602082019050919050565b600060208201905081810360008301526130988161305c565b9050919050565b60006130aa82612878565b9050919050565b6130ba8161309f565b82525050565b60006060820190506130d560008301866130b1565b6130e2602083018561250c565b6130ef604083018461250c565b949350505050565b7f6d63500000000000000000000000000000000000000000000000000000000000600082015250565b600061312d600383612998565b9150613138826130f7565b602082019050919050565b6000602082019050818103600083015261315c81613120565b9050919050565b600081905092915050565b7f416363657373436f6e74726f6c3a206163636f756e7420000000000000000000600082015250565b60006131a4601783613163565b91506131af8261316e565b601782019050919050565b600081519050919050565b60005b838110156131e35780820151818401526020810190506131c8565b60008484015250505050565b60006131fa826131ba565b6132048185613163565b93506132148185602086016131c5565b80840191505092915050565b7f206973206d697373696e6720726f6c6520000000000000000000000000000000600082015250565b6000613256601183613163565b915061326182613220565b601182019050919050565b600061327782613197565b915061328382856131ef565b915061328e82613249565b915061329a82846131ef565b91508190509392505050565b6000601f19601f8301169050919050565b60006132c2826131ba565b6132cc8185612998565b93506132dc8185602086016131c5565b6132e5816132a6565b840191505092915050565b6000602082019050818103600083015261330a81846132b7565b905092915050565b7f4e487b7100000000000000000000000000000000000000000000000000000000600052603260045260246000fd5b7f4e487b7100000000000000000000000000000000000000000000000000000000600052603160045260246000fd5b60008151905061337f816127e0565b92915050565b60006020828403121561339b5761339a612476565b5b60006133a984828501613370565b91505092915050565b7f5361666545524332303a204552433230206f7065726174696f6e20646964206e60008201527f6f74207375636365656400000000000000000000000000000000000000000000602082015250565b600061340e602a83612998565b9150613419826133b2565b604082019050919050565b6000602082019050818103600083015261343d81613401565b9050919050565b7f456e756d657261626c654d61703a206e6f6e6578697374656e74206b65790000600082015250565b600061347a601e83612998565b915061348582613444565b602082019050919050565b600060208201905081810360008301526134a98161346d565b9050919050565b60006134bb8261276e565b91506134c68361276e565b92508282026134d48161276e565b915082820484148315176134eb576134ea612ef7565b5b5092915050565b7f4e487b7100000000000000000000000000000000000000000000000000000000600052604160045260246000fd5b600061352c8261276e565b91506000820361353f5761353e612ef7565b5b600182039050919050565b7f537472696e67733a20686578206c656e67746820696e73756666696369656e74600082015250565b6000613580602083612998565b915061358b8261354a565b602082019050919050565b600060208201905081810360008301526135af81613573565b9050919050565b7f416464726573733a20696e73756666696369656e742062616c616e636520666f60008201527f722063616c6c0000000000000000000000000000000000000000000000000000602082015250565b6000613612602683612998565b915061361d826135b6565b604082019050919050565b6000602082019050818103600083015261364181613605565b9050919050565b7f416464726573733a2063616c6c20746f206e6f6e2d636f6e7472616374000000600082015250565b600061367e601d83612998565b915061368982613648565b602082019050919050565b600060208201905081810360008301526136ad81613671565b9050919050565b600081519050919050565b600081905092915050565b60006136d5826136b4565b6136df81856136bf565b93506136ef8185602086016131c5565b80840191505092915050565b600061370782846136ca565b91508190509291505056fea2646970667358221220d2d9d84fe0e701667e73bb328f89e74dccf95357bc82733c2faa86c97afa52f364736f6c63430008110033",
  "immutableReferences": {
    "12672": [
      {
        "length": 32,
        "start": 1928
      },
      {
        "length": 32,
        "start": 2595
      }
    ]
  },
  "source": "// SPDX-License-Identifier: MIT\npragma solidity ^0.8.4;\n\nimport \"@openzeppelin/contracts/access/Ownable.sol\";\nimport \"@openzeppelin/contracts/access/AccessControl.sol\";\nimport \"@openzeppelin/contracts/token/ERC20/ERC20.sol\";\nimport \"@openzeppelin/contracts/utils/math/Math.sol\";\nimport \"@openzeppelin/contracts/utils/structs/EnumerableSet.sol\";\nimport \"@openzeppelin/contracts/utils/structs/EnumerableMap.sol\";\nimport \"@openzeppelin/contracts/security/ReentrancyGuard.sol\";\nimport \"@openzeppelin/contracts/token/ERC20/utils/SafeERC20.sol\";\nimport \"../pools/Pool.sol\";\nimport \"../libraries/MathLib.sol\";\nimport \"../interfaces/EMoret.sol\";\nimport \"../OptionVault.sol\";\nimport \"../VolatilityChain.sol\";\nimport \"../Exchange.sol\";\nimport \"./Moret.sol\";\n\n/// @custom:security-contact eight@moret.io\ncontract MoretBroker is EMoret, AccessControl, ReentrancyGuard {\n    using MathLib for uint256;\n    using EnumerableSet for EnumerableSet.AddressSet;\n    using EnumerableMap for EnumerableMap.AddressToUintMap;\n    using SafeERC20 for ERC20;\n\n    // list of pools\n    mapping(address=>address) internal topPoolMap; // only the top pool address is allowed to swap their pool tokens with Moret. underlying token addres => pool address\n    mapping(address=>EnumerableSet.AddressSet) internal allPoolMap; // all created pools\n    \n    // capital records\n    uint256 public constant minCapital = 1e24; // 1m min notional (in 18 decimals) // 1m minimum capital for the whole Moret pool and for exchanges\n    uint256 public poolCapital = 0; // total capitals\n    mapping(address=>EnumerableMap.AddressToUintMap) internal poolCapitalMap;\n    \n    // address\n    ERC20 public funding;\n    OptionVault public vault;\n    address public immutable exchange;\n\n    constructor(ERC20 _funding, address _exchange){\n        funding = _funding;\n        exchange = _exchange;\n        vault = Exchange(_exchange).vault();\n        }\n\n    // functions to allow pool to swap their tokens for Moret\n    // arguments: pool contract address, amount of pool tokens to be exchanged\n    // a minimum capital of 1m USDC is assumed for any calculations.\n    function exchangePoolForMoret(address _poolAddr, uint256 _payInAmount) external nonReentrant{\n        Pool _pool = Pool(_poolAddr);\n        Moret _gov = _pool.marketMaker().govToken();\n        address _undAddr = _pool.marketMaker().underlying();\n        require(address(_gov.getVolatilityChain(_undAddr)) != address(0), \"0volchain\"); // use this function to check if underlying exists.\n\n        ERC20(_poolAddr).safeTransferFrom(msg.sender, address(_gov), _payInAmount);\n\n        uint256 _poolNetCapital = getAndUpdateTopPool(_pool, _undAddr);\n        uint256 _payInCapital = _payInAmount.muldiv(_poolNetCapital, _pool.totalSupply());\n        uint256 _existingCapital = Math.max(minCapital, poolCapital);\n        uint256 _mintAmount = _payInCapital.muldiv(_gov.totalSupply(), _existingCapital);\n\n        uint256 _updatedCapital = _pool.balanceOf(address(_gov)).muldiv(_poolNetCapital, _pool.totalSupply());\n\n        // change stats of MoretBroker contract -> hence suspicious to reentry -> taken care of by nonReentrant and the step that pool tokens are first transferred to gov address\n        if(poolCapitalMap[_undAddr].contains(_poolAddr)){\n            poolCapital = poolCapital - Math.min(poolCapital, poolCapitalMap[_undAddr].get(_poolAddr)) + _updatedCapital;\n        }\n        else{\n            poolCapital = poolCapital + _updatedCapital;\n        }\n        poolCapitalMap[_undAddr].set(_poolAddr, _updatedCapital);\n        \n        _gov.mint(msg.sender, _mintAmount); // This ensures only the right Moret contract mints.\n        emit ExchangePoolTokens(_poolAddr, msg.sender, _payInAmount, _mintAmount);}\n\n    function getAndUpdateTopPool(Pool _pool, address _undAddr) internal returns(uint256 _poolNetCapital){\n        require(allPoolMap[_undAddr].contains(address(_pool)),'-P'); // check if pool was registered already\n        _poolNetCapital = vault.calcCapital(_pool, true, false);\n        require(_poolNetCapital > minCapital, \"mcP\"); // pool capital needs to be above threshold\n\n        if (topPoolMap[_undAddr] != address(_pool)){\n            uint256 _topCapital = (topPoolMap[_undAddr] != address(0))? vault.calcCapital(Pool(topPoolMap[_undAddr]), true, false): 0;\n            if (_poolNetCapital > _topCapital) {\n                topPoolMap[_undAddr] = address(_pool);}}}\n\n    // update list of pools\n    function addPool(Pool _pool, bool _remove) external{\n        address _poolUnd = _pool.marketMaker().underlying();\n        require(_pool.marketMaker().funding() == address(funding), 'xfundings');\n        require(_pool.exchange() == exchange, '-pEx');\n        if(_remove){\n            require(allPoolMap[_poolUnd].remove(address(_pool)), '-rm');    \n        }\n        else{\n            require(allPoolMap[_poolUnd].add(address(_pool)) , '-ad');}\n        emit AddPool(address(_pool), !_remove);}\n    function getAllPools(address _undAddr) external view returns(address[] memory){\n        return allPoolMap[_undAddr].values();}\n    function getTopPool(address _undAddr) external view returns(address){\n        return topPoolMap[_undAddr];}\n    // function getPoolsCount(address _undAddr) external view returns(uint256){\n    //     return allPoolMap[_undAddr].length();}\n    \n}",
  "sourcePath": "/Users/mac/Documents/GitHub/moret/contracts/governance/MoretBroker.sol",
  "compiler": {
    "name": "solc",
    "version": "0.8.17+commit.8df45f5f.Emscripten.clang"
  },
  "schemaVersion": "3.4.3",
  "updatedAt": "2022-09-13T03:43:47.424Z",
  "devdoc": {
    "custom:security-contact": "eight@moret.io",
    "kind": "dev",
    "methods": {
      "getRoleAdmin(bytes32)": {
        "details": "Returns the admin role that controls `role`. See {grantRole} and {revokeRole}. To change a role's admin, use {_setRoleAdmin}."
      },
      "grantRole(bytes32,address)": {
        "details": "Grants `role` to `account`. If `account` had not been already granted `role`, emits a {RoleGranted} event. Requirements: - the caller must have ``role``'s admin role."
      },
      "hasRole(bytes32,address)": {
        "details": "Returns `true` if `account` has been granted `role`."
      },
      "renounceRole(bytes32,address)": {
        "details": "Revokes `role` from the calling account. Roles are often managed via {grantRole} and {revokeRole}: this function's purpose is to provide a mechanism for accounts to lose their privileges if they are compromised (such as when a trusted device is misplaced). If the calling account had been revoked `role`, emits a {RoleRevoked} event. Requirements: - the caller must be `account`."
      },
      "revokeRole(bytes32,address)": {
        "details": "Revokes `role` from `account`. If `account` had been granted `role`, emits a {RoleRevoked} event. Requirements: - the caller must have ``role``'s admin role."
      },
      "supportsInterface(bytes4)": {
        "details": "See {IERC165-supportsInterface}."
      }
    },
    "version": 1
  },
  "userdoc": {
    "kind": "user",
    "methods": {},
    "version": 1
  }
}