{
  "contractName": "OptionVault",
  "abi": [
    {
      "inputs": [],
      "stateMutability": "nonpayable",
      "type": "constructor"
    },
    {
      "anonymous": false,
      "inputs": [
        {
          "indexed": true,
          "internalType": "address",
          "name": "_bot",
          "type": "address"
        },
        {
          "indexed": true,
          "internalType": "address",
          "name": "_exchange",
          "type": "address"
        },
        {
          "indexed": false,
          "internalType": "address",
          "name": "_holder",
          "type": "address"
        },
        {
          "indexed": false,
          "internalType": "uint256",
          "name": "_id",
          "type": "uint256"
        },
        {
          "indexed": false,
          "internalType": "uint256",
          "name": "_payoff",
          "type": "uint256"
        }
      ],
      "name": "Expire",
      "type": "event"
    },
    {
      "anonymous": false,
      "inputs": [
        {
          "indexed": true,
          "internalType": "address",
          "name": "_hedger",
          "type": "address"
        },
        {
          "indexed": true,
          "internalType": "address",
          "name": "_market",
          "type": "address"
        },
        {
          "indexed": false,
          "internalType": "bool",
          "name": "success",
          "type": "bool"
        },
        {
          "indexed": false,
          "internalType": "bytes",
          "name": "data",
          "type": "bytes"
        }
      ],
      "name": "HedgeResponse",
      "type": "event"
    },
    {
      "anonymous": false,
      "inputs": [
        {
          "indexed": true,
          "internalType": "address",
          "name": "_hedger",
          "type": "address"
        },
        {
          "indexed": true,
          "internalType": "address",
          "name": "_market",
          "type": "address"
        },
        {
          "indexed": false,
          "internalType": "uint256[]",
          "name": "amounts",
          "type": "uint256[]"
        }
      ],
      "name": "HedgeSwapResponse",
      "type": "event"
    },
    {
      "anonymous": false,
      "inputs": [
        {
          "indexed": true,
          "internalType": "address",
          "name": "_purchaser",
          "type": "address"
        },
        {
          "indexed": true,
          "internalType": "address",
          "name": "_exchange",
          "type": "address"
        },
        {
          "indexed": false,
          "internalType": "uint256",
          "name": "_id",
          "type": "uint256"
        },
        {
          "indexed": false,
          "internalType": "uint256",
          "name": "_premium",
          "type": "uint256"
        },
        {
          "indexed": false,
          "internalType": "uint256",
          "name": "_collateral",
          "type": "uint256"
        },
        {
          "indexed": false,
          "internalType": "bool",
          "name": "_inVol",
          "type": "bool"
        }
      ],
      "name": "NewOption",
      "type": "event"
    },
    {
      "anonymous": false,
      "inputs": [
        {
          "indexed": false,
          "internalType": "address",
          "name": "_newBot",
          "type": "address"
        }
      ],
      "name": "ResetBotAddress",
      "type": "event"
    },
    {
      "anonymous": false,
      "inputs": [
        {
          "indexed": true,
          "internalType": "uint256",
          "name": "_parameterId",
          "type": "uint256"
        },
        {
          "indexed": false,
          "internalType": "uint256",
          "name": "_parameter",
          "type": "uint256"
        }
      ],
      "name": "ResetParameter",
      "type": "event"
    },
    {
      "anonymous": false,
      "inputs": [
        {
          "indexed": true,
          "internalType": "address",
          "name": "_exchange",
          "type": "address"
        },
        {
          "indexed": false,
          "internalType": "bool",
          "name": "_tradingAllowed",
          "type": "bool"
        }
      ],
      "name": "ResetTradingStatus",
      "type": "event"
    },
    {
      "anonymous": false,
      "inputs": [
        {
          "indexed": true,
          "internalType": "bytes32",
          "name": "role",
          "type": "bytes32"
        },
        {
          "indexed": true,
          "internalType": "bytes32",
          "name": "previousAdminRole",
          "type": "bytes32"
        },
        {
          "indexed": true,
          "internalType": "bytes32",
          "name": "newAdminRole",
          "type": "bytes32"
        }
      ],
      "name": "RoleAdminChanged",
      "type": "event"
    },
    {
      "anonymous": false,
      "inputs": [
        {
          "indexed": true,
          "internalType": "bytes32",
          "name": "role",
          "type": "bytes32"
        },
        {
          "indexed": true,
          "internalType": "address",
          "name": "account",
          "type": "address"
        },
        {
          "indexed": true,
          "internalType": "address",
          "name": "sender",
          "type": "address"
        }
      ],
      "name": "RoleGranted",
      "type": "event"
    },
    {
      "anonymous": false,
      "inputs": [
        {
          "indexed": true,
          "internalType": "bytes32",
          "name": "role",
          "type": "bytes32"
        },
        {
          "indexed": true,
          "internalType": "address",
          "name": "account",
          "type": "address"
        },
        {
          "indexed": true,
          "internalType": "address",
          "name": "sender",
          "type": "address"
        }
      ],
      "name": "RoleRevoked",
      "type": "event"
    },
    {
      "anonymous": false,
      "inputs": [
        {
          "indexed": true,
          "internalType": "address",
          "name": "_purchaser",
          "type": "address"
        },
        {
          "indexed": true,
          "internalType": "address",
          "name": "_exchange",
          "type": "address"
        },
        {
          "indexed": false,
          "internalType": "uint256",
          "name": "_cost",
          "type": "uint256"
        },
        {
          "indexed": false,
          "internalType": "uint256",
          "name": "_volAmount",
          "type": "uint256"
        },
        {
          "indexed": false,
          "internalType": "bool",
          "name": "_isPurchase",
          "type": "bool"
        }
      ],
      "name": "TradeVolatility",
      "type": "event"
    },
    {
      "inputs": [],
      "name": "DEFAULT_ADMIN_ROLE",
      "outputs": [
        {
          "internalType": "bytes32",
          "name": "",
          "type": "bytes32"
        }
      ],
      "stateMutability": "view",
      "type": "function"
    },
    {
      "inputs": [],
      "name": "EXCHANGE",
      "outputs": [
        {
          "internalType": "bytes32",
          "name": "",
          "type": "bytes32"
        }
      ],
      "stateMutability": "view",
      "type": "function"
    },
    {
      "inputs": [
        {
          "internalType": "bytes32",
          "name": "role",
          "type": "bytes32"
        }
      ],
      "name": "getRoleAdmin",
      "outputs": [
        {
          "internalType": "bytes32",
          "name": "",
          "type": "bytes32"
        }
      ],
      "stateMutability": "view",
      "type": "function"
    },
    {
      "inputs": [
        {
          "internalType": "bytes32",
          "name": "role",
          "type": "bytes32"
        },
        {
          "internalType": "address",
          "name": "account",
          "type": "address"
        }
      ],
      "name": "grantRole",
      "outputs": [],
      "stateMutability": "nonpayable",
      "type": "function"
    },
    {
      "inputs": [
        {
          "internalType": "bytes32",
          "name": "role",
          "type": "bytes32"
        },
        {
          "internalType": "address",
          "name": "account",
          "type": "address"
        }
      ],
      "name": "hasRole",
      "outputs": [
        {
          "internalType": "bool",
          "name": "",
          "type": "bool"
        }
      ],
      "stateMutability": "view",
      "type": "function"
    },
    {
      "inputs": [
        {
          "internalType": "address",
          "name": "",
          "type": "address"
        }
      ],
      "name": "mDeltaAtMax",
      "outputs": [
        {
          "internalType": "uint256",
          "name": "",
          "type": "uint256"
        }
      ],
      "stateMutability": "view",
      "type": "function"
    },
    {
      "inputs": [
        {
          "internalType": "address",
          "name": "",
          "type": "address"
        }
      ],
      "name": "mDeltaAtZero",
      "outputs": [
        {
          "internalType": "uint256",
          "name": "",
          "type": "uint256"
        }
      ],
      "stateMutability": "view",
      "type": "function"
    },
    {
      "inputs": [
        {
          "internalType": "address",
          "name": "",
          "type": "address"
        }
      ],
      "name": "mNetNotional",
      "outputs": [
        {
          "internalType": "int256",
          "name": "",
          "type": "int256"
        }
      ],
      "stateMutability": "view",
      "type": "function"
    },
    {
      "inputs": [
        {
          "internalType": "address",
          "name": "",
          "type": "address"
        }
      ],
      "name": "mPutCollateral",
      "outputs": [
        {
          "internalType": "uint256",
          "name": "",
          "type": "uint256"
        }
      ],
      "stateMutability": "view",
      "type": "function"
    },
    {
      "inputs": [
        {
          "internalType": "bytes32",
          "name": "role",
          "type": "bytes32"
        },
        {
          "internalType": "address",
          "name": "account",
          "type": "address"
        }
      ],
      "name": "renounceRole",
      "outputs": [],
      "stateMutability": "nonpayable",
      "type": "function"
    },
    {
      "inputs": [
        {
          "internalType": "bytes32",
          "name": "role",
          "type": "bytes32"
        },
        {
          "internalType": "address",
          "name": "account",
          "type": "address"
        }
      ],
      "name": "revokeRole",
      "outputs": [],
      "stateMutability": "nonpayable",
      "type": "function"
    },
    {
      "inputs": [
        {
          "internalType": "bytes4",
          "name": "interfaceId",
          "type": "bytes4"
        }
      ],
      "name": "supportsInterface",
      "outputs": [
        {
          "internalType": "bool",
          "name": "",
          "type": "bool"
        }
      ],
      "stateMutability": "view",
      "type": "function"
    },
    {
      "inputs": [
        {
          "components": [
            {
              "internalType": "enum OptionLib.PayoffType",
              "name": "poType",
              "type": "uint8"
            },
            {
              "internalType": "enum OptionLib.OptionSide",
              "name": "side",
              "type": "uint8"
            },
            {
              "internalType": "enum OptionLib.OptionStatus",
              "name": "status",
              "type": "uint8"
            },
            {
              "internalType": "address",
              "name": "holder",
              "type": "address"
            },
            {
              "internalType": "uint256",
              "name": "id",
              "type": "uint256"
            },
            {
              "internalType": "uint256",
              "name": "createTime",
              "type": "uint256"
            },
            {
              "internalType": "uint256",
              "name": "effectiveTime",
              "type": "uint256"
            },
            {
              "internalType": "uint256",
              "name": "tenor",
              "type": "uint256"
            },
            {
              "internalType": "uint256",
              "name": "maturity",
              "type": "uint256"
            },
            {
              "internalType": "uint256",
              "name": "exerciseTime",
              "type": "uint256"
            },
            {
              "internalType": "uint256",
              "name": "amount",
              "type": "uint256"
            },
            {
              "internalType": "uint256",
              "name": "spot",
              "type": "uint256"
            },
            {
              "internalType": "uint256",
              "name": "strike",
              "type": "uint256"
            },
            {
              "internalType": "uint256",
              "name": "volatility",
              "type": "uint256"
            },
            {
              "internalType": "uint256",
              "name": "premium",
              "type": "uint256"
            },
            {
              "internalType": "uint256",
              "name": "cost",
              "type": "uint256"
            },
            {
              "internalType": "address",
              "name": "pool",
              "type": "address"
            }
          ],
          "internalType": "struct OptionLib.Option",
          "name": "_option",
          "type": "tuple"
        },
        {
          "internalType": "uint256",
          "name": "_premium",
          "type": "uint256"
        },
        {
          "internalType": "uint256",
          "name": "_collateral",
          "type": "uint256"
        },
        {
          "internalType": "uint256",
          "name": "_price",
          "type": "uint256"
        },
        {
          "internalType": "uint256",
          "name": "_vol",
          "type": "uint256"
        }
      ],
      "name": "addOption",
      "outputs": [
        {
          "internalType": "uint256",
          "name": "_id",
          "type": "uint256"
        }
      ],
      "stateMutability": "nonpayable",
      "type": "function"
    },
    {
      "inputs": [
        {
          "internalType": "uint256",
          "name": "_id",
          "type": "uint256"
        },
        {
          "internalType": "address",
          "name": "_holder",
          "type": "address"
        }
      ],
      "name": "stampActiveOption",
      "outputs": [],
      "stateMutability": "nonpayable",
      "type": "function"
    },
    {
      "inputs": [
        {
          "internalType": "uint256",
          "name": "_id",
          "type": "uint256"
        }
      ],
      "name": "stampExpiredOption",
      "outputs": [],
      "stateMutability": "nonpayable",
      "type": "function"
    },
    {
      "inputs": [
        {
          "internalType": "address",
          "name": "_pool",
          "type": "address"
        },
        {
          "internalType": "address",
          "name": "_address",
          "type": "address"
        }
      ],
      "name": "getHolderOptions",
      "outputs": [
        {
          "internalType": "uint256[]",
          "name": "",
          "type": "uint256[]"
        }
      ],
      "stateMutability": "view",
      "type": "function"
    },
    {
      "inputs": [
        {
          "internalType": "uint256",
          "name": "_id",
          "type": "uint256"
        }
      ],
      "name": "getOption",
      "outputs": [
        {
          "components": [
            {
              "internalType": "enum OptionLib.PayoffType",
              "name": "poType",
              "type": "uint8"
            },
            {
              "internalType": "enum OptionLib.OptionSide",
              "name": "side",
              "type": "uint8"
            },
            {
              "internalType": "enum OptionLib.OptionStatus",
              "name": "status",
              "type": "uint8"
            },
            {
              "internalType": "address",
              "name": "holder",
              "type": "address"
            },
            {
              "internalType": "uint256",
              "name": "id",
              "type": "uint256"
            },
            {
              "internalType": "uint256",
              "name": "createTime",
              "type": "uint256"
            },
            {
              "internalType": "uint256",
              "name": "effectiveTime",
              "type": "uint256"
            },
            {
              "internalType": "uint256",
              "name": "tenor",
              "type": "uint256"
            },
            {
              "internalType": "uint256",
              "name": "maturity",
              "type": "uint256"
            },
            {
              "internalType": "uint256",
              "name": "exerciseTime",
              "type": "uint256"
            },
            {
              "internalType": "uint256",
              "name": "amount",
              "type": "uint256"
            },
            {
              "internalType": "uint256",
              "name": "spot",
              "type": "uint256"
            },
            {
              "internalType": "uint256",
              "name": "strike",
              "type": "uint256"
            },
            {
              "internalType": "uint256",
              "name": "volatility",
              "type": "uint256"
            },
            {
              "internalType": "uint256",
              "name": "premium",
              "type": "uint256"
            },
            {
              "internalType": "uint256",
              "name": "cost",
              "type": "uint256"
            },
            {
              "internalType": "address",
              "name": "pool",
              "type": "address"
            }
          ],
          "internalType": "struct OptionLib.Option",
          "name": "",
          "type": "tuple"
        }
      ],
      "stateMutability": "view",
      "type": "function"
    },
    {
      "inputs": [
        {
          "internalType": "address",
          "name": "_poolAddress",
          "type": "address"
        }
      ],
      "name": "getActiveOptionCount",
      "outputs": [
        {
          "internalType": "uint256",
          "name": "",
          "type": "uint256"
        }
      ],
      "stateMutability": "view",
      "type": "function"
    },
    {
      "inputs": [
        {
          "internalType": "address",
          "name": "_poolAddress",
          "type": "address"
        }
      ],
      "name": "getActiveOptions",
      "outputs": [
        {
          "internalType": "uint256[]",
          "name": "",
          "type": "uint256[]"
        }
      ],
      "stateMutability": "view",
      "type": "function"
    },
    {
      "inputs": [
        {
          "internalType": "uint256",
          "name": "_id",
          "type": "uint256"
        }
      ],
      "name": "getOptionInfo",
      "outputs": [
        {
          "internalType": "enum OptionLib.OptionStatus",
          "name": "",
          "type": "uint8"
        },
        {
          "internalType": "enum OptionLib.OptionSide",
          "name": "",
          "type": "uint8"
        },
        {
          "internalType": "address",
          "name": "",
          "type": "address"
        },
        {
          "internalType": "contract Pool",
          "name": "",
          "type": "address"
        }
      ],
      "stateMutability": "view",
      "type": "function"
    },
    {
      "inputs": [
        {
          "internalType": "uint256",
          "name": "_id",
          "type": "uint256"
        }
      ],
      "name": "getContractPayoff",
      "outputs": [
        {
          "internalType": "uint256",
          "name": "_payoff",
          "type": "uint256"
        },
        {
          "internalType": "uint256",
          "name": "_payback",
          "type": "uint256"
        },
        {
          "internalType": "uint256",
          "name": "_collateral",
          "type": "uint256"
        }
      ],
      "stateMutability": "view",
      "type": "function"
    },
    {
      "inputs": [
        {
          "internalType": "address",
          "name": "_poolAddress",
          "type": "address"
        }
      ],
      "name": "anyOptionExpiring",
      "outputs": [
        {
          "internalType": "bool",
          "name": "_isExpiring",
          "type": "bool"
        }
      ],
      "stateMutability": "view",
      "type": "function"
    },
    {
      "inputs": [
        {
          "internalType": "address",
          "name": "_poolAddress",
          "type": "address"
        }
      ],
      "name": "getExpiringOptionId",
      "outputs": [
        {
          "internalType": "uint256",
          "name": "_id",
          "type": "uint256"
        }
      ],
      "stateMutability": "view",
      "type": "function"
    },
    {
      "inputs": [
        {
          "internalType": "contract Pool",
          "name": "_pool",
          "type": "address"
        },
        {
          "internalType": "uint256",
          "name": "_tenor",
          "type": "uint256"
        },
        {
          "internalType": "uint256",
          "name": "_amount",
          "type": "uint256"
        },
        {
          "internalType": "enum OptionLib.PayoffType",
          "name": "_poType",
          "type": "uint8"
        },
        {
          "internalType": "enum OptionLib.OptionSide",
          "name": "_side",
          "type": "uint8"
        }
      ],
      "name": "tryATMOptionCost",
      "outputs": [
        {
          "internalType": "uint256",
          "name": "_premium",
          "type": "uint256"
        },
        {
          "internalType": "uint256",
          "name": "_collateral",
          "type": "uint256"
        },
        {
          "internalType": "uint256",
          "name": "_price",
          "type": "uint256"
        },
        {
          "internalType": "uint256",
          "name": "_volatilty",
          "type": "uint256"
        }
      ],
      "stateMutability": "view",
      "type": "function"
    },
    {
      "inputs": [
        {
          "components": [
            {
              "internalType": "enum OptionLib.PayoffType",
              "name": "poType",
              "type": "uint8"
            },
            {
              "internalType": "enum OptionLib.OptionSide",
              "name": "side",
              "type": "uint8"
            },
            {
              "internalType": "enum OptionLib.OptionStatus",
              "name": "status",
              "type": "uint8"
            },
            {
              "internalType": "address",
              "name": "holder",
              "type": "address"
            },
            {
              "internalType": "uint256",
              "name": "id",
              "type": "uint256"
            },
            {
              "internalType": "uint256",
              "name": "createTime",
              "type": "uint256"
            },
            {
              "internalType": "uint256",
              "name": "effectiveTime",
              "type": "uint256"
            },
            {
              "internalType": "uint256",
              "name": "tenor",
              "type": "uint256"
            },
            {
              "internalType": "uint256",
              "name": "maturity",
              "type": "uint256"
            },
            {
              "internalType": "uint256",
              "name": "exerciseTime",
              "type": "uint256"
            },
            {
              "internalType": "uint256",
              "name": "amount",
              "type": "uint256"
            },
            {
              "internalType": "uint256",
              "name": "spot",
              "type": "uint256"
            },
            {
              "internalType": "uint256",
              "name": "strike",
              "type": "uint256"
            },
            {
              "internalType": "uint256",
              "name": "volatility",
              "type": "uint256"
            },
            {
              "internalType": "uint256",
              "name": "premium",
              "type": "uint256"
            },
            {
              "internalType": "uint256",
              "name": "cost",
              "type": "uint256"
            },
            {
              "internalType": "address",
              "name": "pool",
              "type": "address"
            }
          ],
          "internalType": "struct OptionLib.Option",
          "name": "_option",
          "type": "tuple"
        },
        {
          "internalType": "bool",
          "name": "_forceATM",
          "type": "bool"
        }
      ],
      "name": "calcOptionCost",
      "outputs": [
        {
          "internalType": "uint256",
          "name": "_premium",
          "type": "uint256"
        },
        {
          "internalType": "uint256",
          "name": "_collateral",
          "type": "uint256"
        },
        {
          "internalType": "uint256",
          "name": "_price",
          "type": "uint256"
        },
        {
          "internalType": "uint256",
          "name": "_annualisedVol",
          "type": "uint256"
        }
      ],
      "stateMutability": "view",
      "type": "function"
    },
    {
      "inputs": [
        {
          "internalType": "contract MarketMaker",
          "name": "_market",
          "type": "address"
        },
        {
          "internalType": "uint256",
          "name": "_tenor",
          "type": "uint256"
        },
        {
          "internalType": "uint256",
          "name": "_volCapacityFactor",
          "type": "uint256"
        },
        {
          "internalType": "int256",
          "name": "_currentNetNotional",
          "type": "int256"
        },
        {
          "internalType": "int256",
          "name": "_newNetNotional",
          "type": "int256"
        }
      ],
      "name": "calcImpliedVol",
      "outputs": [
        {
          "internalType": "uint256",
          "name": "_price",
          "type": "uint256"
        },
        {
          "internalType": "uint256",
          "name": "_impVol",
          "type": "uint256"
        },
        {
          "internalType": "uint256",
          "name": "_annualisedVol",
          "type": "uint256"
        }
      ],
      "stateMutability": "view",
      "type": "function"
    },
    {
      "inputs": [
        {
          "internalType": "contract Pool",
          "name": "_pool",
          "type": "address"
        },
        {
          "internalType": "bool",
          "name": "_net",
          "type": "bool"
        },
        {
          "internalType": "bool",
          "name": "_average",
          "type": "bool"
        }
      ],
      "name": "calcCapital",
      "outputs": [
        {
          "internalType": "uint256",
          "name": "",
          "type": "uint256"
        }
      ],
      "stateMutability": "view",
      "type": "function"
    }
  ],
  "bytecode": "0x60806040523480156200001157600080fd5b50620000276000801b336200002d60201b60201c565b620001a6565b6200003f82826200004360201b60201c565b5050565b6200005582826200013460201b60201c565b6200013057600160008084815260200190815260200160002060000160008373ffffffffffffffffffffffffffffffffffffffff1673ffffffffffffffffffffffffffffffffffffffff16815260200190815260200160002060006101000a81548160ff021916908315150217905550620000d56200019e60201b60201c565b73ffffffffffffffffffffffffffffffffffffffff168173ffffffffffffffffffffffffffffffffffffffff16837f2f8788117e7eff1d82e926ec794901d17c78024a50270940304540a733656f0d60405160405180910390a45b5050565b600080600084815260200190815260200160002060000160008373ffffffffffffffffffffffffffffffffffffffff1673ffffffffffffffffffffffffffffffffffffffff16815260200190815260200160002060009054906101000a900460ff16905092915050565b600033905090565b6150bb80620001b66000396000f3fe608060405234801561001057600080fd5b50600436106101a95760003560e01c806365c22c5f116100f95780639f2b958c11610097578063b9f10b6611610071578063b9f10b6614610594578063d547741f146105c4578063efb725af146105e0578063fc9d80e014610610576101a9565b80639f2b958c14610528578063a217fddf14610558578063b50e44b814610576576101a9565b8063844a7c9a116100d3578063844a7c9a1461046657806385ae10e61461049657806391d14854146104c85780639bafc254146104f8576101a9565b806365c22c5f146103d65780636a347c40146104065780637be795e014610436576101a9565b806325524217116101665780633a328e29116101405780633a328e29146103275780634bf728b2146103575780635c273c2f1461038a578063637baf60146103ba576101a9565b806325524217146102bd5780632f2ff15d146102ef57806336568abe1461030b576101a9565b806301ffc9a7146101ae578063132a0f1b146101de5780631ce5e9a61461020e5780632360e8171461023e578063248a9ca31461027157806324b4110e146102a1575b600080fd5b6101c860048036038101906101c39190613674565b610643565b6040516101d591906136bc565b60405180910390f35b6101f860048036038101906101f39190613735565b6106bd565b604051610205919061377b565b60405180910390f35b610228600480360381019061022391906137c2565b61070d565b6040516102359190613a73565b60405180910390f35b61025860048036038101906102539190613d4b565b61091f565b6040516102689493929190613d8d565b60405180910390f35b61028b60048036038101906102869190613e08565b610cc3565b6040516102989190613e44565b60405180910390f35b6102bb60048036038101906102b69190613e5f565b610ce2565b005b6102d760048036038101906102d29190613f13565b6111cd565b6040516102e693929190613f8e565b60405180910390f35b61030960048036038101906103049190613fc5565b61152c565b005b61032560048036038101906103209190613fc5565b61154d565b005b610341600480360381019061033c9190613735565b6115d0565b60405161034e919061377b565b60405180910390f35b610371600480360381019061036c9190614043565b611740565b6040516103819493929190613d8d565b60405180910390f35b6103a4600480360381019061039f91906140be565b611846565b6040516103b1919061377b565b60405180910390f35b6103d460048036038101906103cf91906137c2565b611ccb565b005b6103f060048036038101906103eb9190613735565b61229f565b6040516103fd919061377b565b60405180910390f35b610420600480360381019061041b9190613735565b6122b7565b60405161042d919061377b565b60405180910390f35b610450600480360381019061044b9190614111565b6122cf565b60405161045d9190614200565b60405180910390f35b610480600480360381019061047b9190613735565b61235d565b60405161048d9190614231565b60405180910390f35b6104b060048036038101906104ab91906137c2565b612375565b6040516104bf93929190613f8e565b60405180910390f35b6104e260048036038101906104dd9190613fc5565b6125be565b6040516104ef91906136bc565b60405180910390f35b610512600480360381019061050d9190613735565b612628565b60405161051f919061377b565b60405180910390f35b610542600480360381019061053d9190613735565b612640565b60405161054f91906136bc565b60405180910390f35b6105606127aa565b60405161056d9190613e44565b60405180910390f35b61057e6127b1565b60405161058b9190613e44565b60405180910390f35b6105ae60048036038101906105a9919061424c565b6127d5565b6040516105bb919061377b565b60405180910390f35b6105de60048036038101906105d99190613fc5565b612b1b565b005b6105fa60048036038101906105f59190613735565b612b3c565b6040516106079190614200565b60405180910390f35b61062a600480360381019061062591906137c2565b612b8c565b60405161063a9493929190614358565b60405180910390f35b60007f7965db0b000000000000000000000000000000000000000000000000000000007bffffffffffffffffffffffffffffffffffffffffffffffffffffffff1916827bffffffffffffffffffffffffffffffffffffffffffffffffffffffff191614806106b657506106b582612ca4565b5b9050919050565b6000610706600360008473ffffffffffffffffffffffffffffffffffffffff1673ffffffffffffffffffffffffffffffffffffffff168152602001908152602001600020612d0e565b9050919050565b610715613527565b600182815481106107295761072861439d565b5b90600052602060002090600e0201604051806102200160405290816000820160009054906101000a900460ff166001811115610768576107676137ef565b5b600181111561077a576107796137ef565b5b81526020016000820160019054906101000a900460ff1660018111156107a3576107a26137ef565b5b60018111156107b5576107b46137ef565b5b81526020016000820160029054906101000a900460ff1660038111156107de576107dd6137ef565b5b60038111156107f0576107ef6137ef565b5b81526020016000820160039054906101000a900473ffffffffffffffffffffffffffffffffffffffff1673ffffffffffffffffffffffffffffffffffffffff1673ffffffffffffffffffffffffffffffffffffffff168152602001600182015481526020016002820154815260200160038201548152602001600482015481526020016005820154815260200160068201548152602001600782015481526020016008820154815260200160098201548152602001600a8201548152602001600b8201548152602001600c8201548152602001600d820160009054906101000a900473ffffffffffffffffffffffffffffffffffffffff1673ffffffffffffffffffffffffffffffffffffffff1673ffffffffffffffffffffffffffffffffffffffff16815250509050919050565b6000806000806000866102000151905060008173ffffffffffffffffffffffffffffffffffffffff16631f21f9af6040518163ffffffff1660e01b8152600401602060405180830381865afa15801561097c573d6000803e3d6000fd5b505050506040513d601f19601f820116820180604052508101906109a091906143e1565b905060006001808111156109b7576109b66137ef565b5b896020015160018111156109ce576109cd6137ef565b5b146109da5760016109fc565b7fffffffffffffffffffffffffffffffffffffffffffffffffffffffffffffffff5b610a0a8a6101400151612d23565b610a14919061443d565b600460008b610200015173ffffffffffffffffffffffffffffffffffffffff1673ffffffffffffffffffffffffffffffffffffffff16815260200190815260200160002054610a639190614554565b90506000610b2a838b60e001518673ffffffffffffffffffffffffffffffffffffffff16630f9026186040518163ffffffff1660e01b8152600401602060405180830381865afa158015610abb573d6000803e3d6000fd5b505050506040513d601f19601f82011682018060405250810190610adf91906145fd565b600460008f610200015173ffffffffffffffffffffffffffffffffffffffff1673ffffffffffffffffffffffffffffffffffffffff16815260200190815260200160002054866111cd565b8097508193508298505050508815610b4857858a6101800181815250505b8973__OptionLib_____________________________638399d60c909188848773ffffffffffffffffffffffffffffffffffffffff1663a7292ea46040518163ffffffff1660e01b8152600401602060405180830381865afa158015610bb2573d6000803e3d6000fd5b505050506040513d601f19601f82011682018060405250810190610bd691906145fd565b6040518563ffffffff1660e01b8152600401610bf594939291906147e3565b602060405180830381865af4158015610c12573d6000803e3d6000fd5b505050506040513d601f19601f82011682018060405250810190610c3691906145fd565b97508973__OptionLib_____________________________63efa572899091886040518363ffffffff1660e01b8152600401610c7392919061482c565b602060405180830381865af4158015610c90573d6000803e3d6000fd5b505050506040513d601f19601f82011682018060405250810190610cb491906145fd565b96505050505092959194509250565b6000806000838152602001908152602001600020600101549050919050565b7f10b261d3bc7a74f38949f9212b0336103474898eda034c06ae0a3e478dc0e4a5610d0c81612d90565b600060018481548110610d2257610d2161439d565b5b90600052602060002090600e02019050428160030181905550806004015442610d4b9190614857565b816005018190555060018160000160026101000a81548160ff02191690836003811115610d7b57610d7a6137ef565b5b0217905550600081600d0160009054906101000a900473ffffffffffffffffffffffffffffffffffffffff1690508173__OptionLib_____________________________63bf38721c90916040518263ffffffff1660e01b8152600401610de291906148b4565b602060405180830381865af4158015610dff573d6000803e3d6000fd5b505050506040513d601f19601f82011682018060405250810190610e2391906148e4565b600460008373ffffffffffffffffffffffffffffffffffffffff1673ffffffffffffffffffffffffffffffffffffffff1681526020019081526020016000206000828254610e719190614554565b925050819055508173__OptionLib_____________________________631b4fb86990916040518263ffffffff1660e01b8152600401610eb191906148b4565b602060405180830381865af4158015610ece573d6000803e3d6000fd5b505050506040513d601f19601f82011682018060405250810190610ef291906145fd565b600560008373ffffffffffffffffffffffffffffffffffffffff1673ffffffffffffffffffffffffffffffffffffffff1681526020019081526020016000206000828254610f409190614857565b925050819055508173__OptionLib_____________________________632e5cf0a790916040518263ffffffff1660e01b8152600401610f8091906148b4565b602060405180830381865af4158015610f9d573d6000803e3d6000fd5b505050506040513d601f19601f82011682018060405250810190610fc191906145fd565b600660008373ffffffffffffffffffffffffffffffffffffffff1673ffffffffffffffffffffffffffffffffffffffff168152602001908152602001600020600082825461100f9190614857565b925050819055508173__OptionLib_____________________________6304a65c3e90916040518263ffffffff1660e01b815260040161104f91906148b4565b602060405180830381865af415801561106c573d6000803e3d6000fd5b505050506040513d601f19601f8201168201806040525081019061109091906145fd565b600760008373ffffffffffffffffffffffffffffffffffffffff1673ffffffffffffffffffffffffffffffffffffffff16815260200190815260200160002060008282546110de9190614857565b9250508190555061117385600260008473ffffffffffffffffffffffffffffffffffffffff1673ffffffffffffffffffffffffffffffffffffffff16815260200190815260200160002060008773ffffffffffffffffffffffffffffffffffffffff1673ffffffffffffffffffffffffffffffffffffffff168152602001908152602001600020612da490919063ffffffff16565b506111c585600360008473ffffffffffffffffffffffffffffffffffffffff1673ffffffffffffffffffffffffffffffffffffffff168152602001908152602001600020612da490919063ffffffff16565b505050505050565b6000806000808873ffffffffffffffffffffffffffffffffffffffff1663c0a16f6a6040518163ffffffff1660e01b8152600401602060405180830381865afa15801561121e573d6000803e3d6000fd5b505050506040513d601f19601f82011682018060405250810190611242919061494f565b90508073ffffffffffffffffffffffffffffffffffffffff1663b0667cf86040518163ffffffff1660e01b8152600401602060405180830381865afa15801561128f573d6000803e3d6000fd5b505050506040513d601f19601f820116820180604052508101906112b391906145fd565b935073__MarketLib_____________________________637bc7ed7873__MarketLib_____________________________63e74207d68c886040518363ffffffff1660e01b815260040161130892919061499d565b602060405180830381865af4158015611325573d6000803e3d6000fd5b505050506040513d601f19601f8201168201806040525081019061134991906145fd565b88888573ffffffffffffffffffffffffffffffffffffffff1663cfc2dc208e6040518263ffffffff1660e01b8152600401611384919061377b565b602060405180830381865afa1580156113a1573d6000803e3d6000fd5b505050506040513d601f19601f820116820180604052508101906113c591906145fd565b8c6040518663ffffffff1660e01b81526004016113e69594939291906149d5565b602060405180830381865af4158015611403573d6000803e3d6000fd5b505050506040513d601f19601f8201168201806040525081019061142791906145fd565b92508273__MathLib_______________________________63fed4a0f390918373ffffffffffffffffffffffffffffffffffffffff1663430417f78c6040518263ffffffff1660e01b815260040161147f919061377b565b602060405180830381865afa15801561149c573d6000803e3d6000fd5b505050506040513d601f19601f820116820180604052508101906114c091906145fd565b6040518363ffffffff1660e01b81526004016114dd929190614a28565b602060405180830381865af41580156114fa573d6000803e3d6000fd5b505050506040513d601f19601f8201168201806040525081019061151e91906145fd565b915050955095509592505050565b61153582610cc3565b61153e81612d90565b6115488383612dbe565b505050565b611555612e9e565b73ffffffffffffffffffffffffffffffffffffffff168173ffffffffffffffffffffffffffffffffffffffff16146115c2576040517f08c379a00000000000000000000000000000000000000000000000000000000081526004016115b990614ad4565b60405180910390fd5b6115cc8282612ea6565b5050565b60008061161a600360008573ffffffffffffffffffffffffffffffffffffffff1673ffffffffffffffffffffffffffffffffffffffff168152602001908152602001600020612d0e565b905060005b8181101561173957600061167a82600360008873ffffffffffffffffffffffffffffffffffffffff1673ffffffffffffffffffffffffffffffffffffffff168152602001908152602001600020612f8790919063ffffffff16565b9050600181815481106116905761168f61439d565b5b90600052602060002090600e020173__OptionLib_____________________________63febf205490916040518263ffffffff1660e01b81526004016116d691906148b4565b602060405180830381865af41580156116f3573d6000803e3d6000fd5b505050506040513d601f19601f820116820180604052508101906117179190614b09565b156117255780935050611739565b50808061173190614b36565b91505061161f565b5050919050565b6000806000806000604051806102200160405280886001811115611767576117666137ef565b5b815260200187600181111561177f5761177e6137ef565b5b815260200160006003811115611798576117976137ef565b5b81526020013373ffffffffffffffffffffffffffffffffffffffff16815260200160008152602001428152602001600081526020018a8152602001600081526020016000815260200189815260200160008152602001600081526020016000815260200160008152602001600081526020018b73ffffffffffffffffffffffffffffffffffffffff16815250905061183181600161091f565b94509450945094505095509550955095915050565b6000808473ffffffffffffffffffffffffffffffffffffffff16631f21f9af6040518163ffffffff1660e01b8152600401602060405180830381865afa158015611894573d6000803e3d6000fd5b505050506040513d601f19601f820116820180604052508101906118b891906143e1565b905060008173ffffffffffffffffffffffffffffffffffffffff1663c0a16f6a6040518163ffffffff1660e01b8152600401602060405180830381865afa158015611907573d6000803e3d6000fd5b505050506040513d601f19601f8201168201806040525081019061192b919061494f565b905060008173ffffffffffffffffffffffffffffffffffffffff1663b0667cf86040518163ffffffff1660e01b8152600401602060405180830381865afa15801561197a573d6000803e3d6000fd5b505050506040513d601f19601f8201168201806040525081019061199e91906145fd565b9050600073__MarketLib_____________________________63e74207d685846040518363ffffffff1660e01b81526004016119db92919061499d565b602060405180830381865af41580156119f8573d6000803e3d6000fd5b505050506040513d601f19601f82011682018060405250810190611a1c91906145fd565b905060008890508715611b93576000611ab3600660008473ffffffffffffffffffffffffffffffffffffffff1673ffffffffffffffffffffffffffffffffffffffff16815260200190815260200160002054600760008573ffffffffffffffffffffffffffffffffffffffff1673ffffffffffffffffffffffffffffffffffffffff16815260200190815260200160002054612fa1565b73__MathLib_______________________________63fed4a0f39091866040518363ffffffff1660e01b8152600401611aed929190614a28565b602060405180830381865af4158015611b0a573d6000803e3d6000fd5b505050506040513d601f19601f82011682018060405250810190611b2e91906145fd565b9050611b84600560008473ffffffffffffffffffffffffffffffffffffffff1673ffffffffffffffffffffffffffffffffffffffff1681526020019081526020016000205482611b7e9190614857565b84612fbb565b83611b8f9190614b7e565b9250505b8615611cbc5760008973ffffffffffffffffffffffffffffffffffffffff166318160ddd6040518163ffffffff1660e01b8152600401602060405180830381865afa158015611be6573d6000803e3d6000fd5b505050506040513d601f19601f82011682018060405250810190611c0a91906145fd565b90506000811115611c98578273__MathLib_______________________________63de7f61709091836040518363ffffffff1660e01b8152600401611c50929190614a28565b602060405180830381865af4158015611c6d573d6000803e3d6000fd5b505050506040513d601f19601f82011682018060405250810190611c9191906145fd565b9250611cba565b600081148015611ca85750600083145b15611cb957670de0b6b3a764000092505b5b505b81955050505050509392505050565b7f10b261d3bc7a74f38949f9212b0336103474898eda034c06ae0a3e478dc0e4a5611cf581612d90565b600060018381548110611d0b57611d0a61439d565b5b90600052602060002090600e02019050600081600d0160009054906101000a900473ffffffffffffffffffffffffffffffffffffffff16905060008260000160039054906101000a900473ffffffffffffffffffffffffffffffffffffffff169050611dbe85600360008573ffffffffffffffffffffffffffffffffffffffff1673ffffffffffffffffffffffffffffffffffffffff168152602001908152602001600020612fd490919063ffffffff16565b50611e4d85600260008573ffffffffffffffffffffffffffffffffffffffff1673ffffffffffffffffffffffffffffffffffffffff16815260200190815260200160002060008473ffffffffffffffffffffffffffffffffffffffff1673ffffffffffffffffffffffffffffffffffffffff168152602001908152602001600020612fd490919063ffffffff16565b508273__OptionLib_____________________________63bf38721c90916040518263ffffffff1660e01b8152600401611e8791906148b4565b602060405180830381865af4158015611ea4573d6000803e3d6000fd5b505050506040513d601f19601f82011682018060405250810190611ec891906148e4565b600460008473ffffffffffffffffffffffffffffffffffffffff1673ffffffffffffffffffffffffffffffffffffffff1681526020019081526020016000206000828254611f169190614bb2565b92505081905550611fdf600660008473ffffffffffffffffffffffffffffffffffffffff1673ffffffffffffffffffffffffffffffffffffffff168152602001908152602001600020548473__OptionLib_____________________________632e5cf0a790916040518263ffffffff1660e01b8152600401611f9991906148b4565b602060405180830381865af4158015611fb6573d6000803e3d6000fd5b505050506040513d601f19601f82011682018060405250810190611fda91906145fd565b612fbb565b600660008473ffffffffffffffffffffffffffffffffffffffff1673ffffffffffffffffffffffffffffffffffffffff168152602001908152602001600020600082825461202d9190614b7e565b925050819055506120f6600760008473ffffffffffffffffffffffffffffffffffffffff1673ffffffffffffffffffffffffffffffffffffffff168152602001908152602001600020548473__OptionLib_____________________________6304a65c3e90916040518263ffffffff1660e01b81526004016120b091906148b4565b602060405180830381865af41580156120cd573d6000803e3d6000fd5b505050506040513d601f19601f820116820180604052508101906120f191906145fd565b612fbb565b600760008473ffffffffffffffffffffffffffffffffffffffff1673ffffffffffffffffffffffffffffffffffffffff16815260200190815260200160002060008282546121449190614b7e565b9250508190555061220d600560008473ffffffffffffffffffffffffffffffffffffffff1673ffffffffffffffffffffffffffffffffffffffff168152602001908152602001600020548473__OptionLib_____________________________631b4fb86990916040518263ffffffff1660e01b81526004016121c791906148b4565b602060405180830381865af41580156121e4573d6000803e3d6000fd5b505050506040513d601f19601f8201168201806040525081019061220891906145fd565b612fbb565b600560008473ffffffffffffffffffffffffffffffffffffffff1673ffffffffffffffffffffffffffffffffffffffff168152602001908152602001600020600082825461225b9190614b7e565b9250508190555060038360000160026101000a81548160ff0219169083600381111561228a576122896137ef565b5b02179055504283600601819055505050505050565b60076020528060005260406000206000915090505481565b60066020528060005260406000206000915090505481565b6060612355600260008573ffffffffffffffffffffffffffffffffffffffff1673ffffffffffffffffffffffffffffffffffffffff16815260200190815260200160002060008473ffffffffffffffffffffffffffffffffffffffff1673ffffffffffffffffffffffffffffffffffffffff168152602001908152602001600020612fee565b905092915050565b60046020528060005260406000206000915090505481565b6000806000806001858154811061238f5761238e61439d565b5b90600052602060002090600e0201600d0160009054906101000a900473ffffffffffffffffffffffffffffffffffffffff16905060008173ffffffffffffffffffffffffffffffffffffffff16631f21f9af6040518163ffffffff1660e01b8152600401602060405180830381865afa158015612410573d6000803e3d6000fd5b505050506040513d601f19601f8201168201806040525081019061243491906143e1565b73ffffffffffffffffffffffffffffffffffffffff1663c0a16f6a6040518163ffffffff1660e01b8152600401602060405180830381865afa15801561247e573d6000803e3d6000fd5b505050506040513d601f19601f820116820180604052508101906124a2919061494f565b9050600186815481106124b8576124b761439d565b5b90600052602060002090600e020173__OptionLib_____________________________63357aa1df90918373ffffffffffffffffffffffffffffffffffffffff1663b0667cf86040518163ffffffff1660e01b8152600401602060405180830381865afa15801561252d573d6000803e3d6000fd5b505050506040513d601f19601f8201168201806040525081019061255191906145fd565b6040518363ffffffff1660e01b815260040161256e929190614c46565b606060405180830381865af415801561258b573d6000803e3d6000fd5b505050506040513d601f19601f820116820180604052508101906125af9190614c6f565b94509450945050509193909250565b600080600084815260200190815260200160002060000160008373ffffffffffffffffffffffffffffffffffffffff1673ffffffffffffffffffffffffffffffffffffffff16815260200190815260200160002060009054906101000a900460ff16905092915050565b60056020528060005260406000206000915090505481565b60008061268a600360008573ffffffffffffffffffffffffffffffffffffffff1673ffffffffffffffffffffffffffffffffffffffff168152602001908152602001600020612d0e565b905060005b818110156127a35760016126ea82600360008873ffffffffffffffffffffffffffffffffffffffff1673ffffffffffffffffffffffffffffffffffffffff168152602001908152602001600020612f8790919063ffffffff16565b815481106126fb576126fa61439d565b5b90600052602060002090600e020173__OptionLib_____________________________63febf205490916040518263ffffffff1660e01b815260040161274191906148b4565b602060405180830381865af415801561275e573d6000803e3d6000fd5b505050506040513d601f19601f820116820180604052508101906127829190614b09565b1561279057600192506127a3565b808061279b90614b36565b91505061268f565b5050919050565b6000801b81565b7f10b261d3bc7a74f38949f9212b0336103474898eda034c06ae0a3e478dc0e4a581565b60007f10b261d3bc7a74f38949f9212b0336103474898eda034c06ae0a3e478dc0e4a561280181612d90565b60008760e0015111612848576040517f08c379a000000000000000000000000000000000000000000000000000000000815260040161283f90614d0e565b60405180910390fd5b6001805490509150600160405180610220016040528089600001516001811115612875576128746137ef565b5b815260200189602001516001811115612891576128906137ef565b5b8152602001600060038111156128aa576128a96137ef565b5b8152602001896060015173ffffffffffffffffffffffffffffffffffffffff168152602001848152602001428152602001600081526020018960e00151815260200160008152602001600081526020018961014001518152602001868152602001896101800151815260200185815260200188815260200187815260200189610200015173ffffffffffffffffffffffffffffffffffffffff1681525090806001815401808255809150506001900390600052602060002090600e020160009091909190915060008201518160000160006101000a81548160ff0219169083600181111561299b5761299a6137ef565b5b021790555060208201518160000160016101000a81548160ff021916908360018111156129cb576129ca6137ef565b5b021790555060408201518160000160026101000a81548160ff021916908360038111156129fb576129fa6137ef565b5b021790555060608201518160000160036101000a81548173ffffffffffffffffffffffffffffffffffffffff021916908373ffffffffffffffffffffffffffffffffffffffff1602179055506080820151816001015560a0820151816002015560c0820151816003015560e08201518160040155610100820151816005015561012082015181600601556101408201518160070155610160820151816008015561018082015181600901556101a082015181600a01556101c082015181600b01556101e082015181600c015561020082015181600d0160006101000a81548173ffffffffffffffffffffffffffffffffffffffff021916908373ffffffffffffffffffffffffffffffffffffffff16021790555050505095945050505050565b612b2482610cc3565b612b2d81612d90565b612b378383612ea6565b505050565b6060612b85600360008473ffffffffffffffffffffffffffffffffffffffff1673ffffffffffffffffffffffffffffffffffffffff168152602001908152602001600020612fee565b9050919050565b6000806000806001805490508510612ba357600080fd5b60018581548110612bb757612bb661439d565b5b90600052602060002090600e020160000160029054906101000a900460ff1660018681548110612bea57612be961439d565b5b90600052602060002090600e020160000160019054906101000a900460ff1660018781548110612c1d57612c1c61439d565b5b90600052602060002090600e020160000160039054906101000a900473ffffffffffffffffffffffffffffffffffffffff1660018881548110612c6357612c6261439d565b5b90600052602060002090600e0201600d0160009054906101000a900473ffffffffffffffffffffffffffffffffffffffff1693509350935093509193509193565b60007f01ffc9a7000000000000000000000000000000000000000000000000000000007bffffffffffffffffffffffffffffffffffffffffffffffffffffffff1916827bffffffffffffffffffffffffffffffffffffffffffffffffffffffff1916149050919050565b6000612d1c8260000161300f565b9050919050565b60007f7fffffffffffffffffffffffffffffffffffffffffffffffffffffffffffffff821115612d88576040517f08c379a0000000000000000000000000000000000000000000000000000000008152600401612d7f90614da0565b60405180910390fd5b819050919050565b612da181612d9c612e9e565b613020565b50565b6000612db6836000018360001b6130bd565b905092915050565b612dc882826125be565b612e9a57600160008084815260200190815260200160002060000160008373ffffffffffffffffffffffffffffffffffffffff1673ffffffffffffffffffffffffffffffffffffffff16815260200190815260200160002060006101000a81548160ff021916908315150217905550612e3f612e9e565b73ffffffffffffffffffffffffffffffffffffffff168173ffffffffffffffffffffffffffffffffffffffff16837f2f8788117e7eff1d82e926ec794901d17c78024a50270940304540a733656f0d60405160405180910390a45b5050565b600033905090565b612eb082826125be565b15612f8357600080600084815260200190815260200160002060000160008373ffffffffffffffffffffffffffffffffffffffff1673ffffffffffffffffffffffffffffffffffffffff16815260200190815260200160002060006101000a81548160ff021916908315150217905550612f28612e9e565b73ffffffffffffffffffffffffffffffffffffffff168173ffffffffffffffffffffffffffffffffffffffff16837ff6391f5c32d9c69d2a47ea670b442974b53935d1edc7fd64eb21e047a839171b60405160405180910390a45b5050565b6000612f96836000018361312d565b60001c905092915050565b600081831015612fb15781612fb3565b825b905092915050565b6000818310612fca5781612fcc565b825b905092915050565b6000612fe6836000018360001b613158565b905092915050565b60606000612ffe8360000161326c565b905060608190508092505050919050565b600081600001805490509050919050565b61302a82826125be565b6130b95761304f8173ffffffffffffffffffffffffffffffffffffffff1660146132c8565b61305d8360001c60206132c8565b60405160200161306e929190614ed2565b6040516020818303038152906040526040517f08c379a00000000000000000000000000000000000000000000000000000000081526004016130b09190614f45565b60405180910390fd5b5050565b60006130c98383613504565b613122578260000182908060018154018082558091505060019003906000526020600020016000909190919091505582600001805490508360010160008481526020019081526020016000208190555060019050613127565b600090505b92915050565b60008260000182815481106131455761314461439d565b5b9060005260206000200154905092915050565b6000808360010160008481526020019081526020016000205490506000811461326057600060018261318a9190614b7e565b90506000600186600001805490506131a29190614b7e565b90508181146132115760008660000182815481106131c3576131c261439d565b5b90600052602060002001549050808760000184815481106131e7576131e661439d565b5b90600052602060002001819055508387600101600083815260200190815260200160002081905550505b8560000180548061322557613224614f67565b5b600190038181906000526020600020016000905590558560010160008681526020019081526020016000206000905560019350505050613266565b60009150505b92915050565b6060816000018054806020026020016040519081016040528092919081815260200182805480156132bc57602002820191906000526020600020905b8154815260200190600101908083116132a8575b50505050509050919050565b6060600060028360026132db9190614f96565b6132e59190614857565b67ffffffffffffffff8111156132fe576132fd613aa5565b5b6040519080825280601f01601f1916602001820160405280156133305781602001600182028036833780820191505090505b5090507f3000000000000000000000000000000000000000000000000000000000000000816000815181106133685761336761439d565b5b60200101907effffffffffffffffffffffffffffffffffffffffffffffffffffffffffffff1916908160001a9053507f7800000000000000000000000000000000000000000000000000000000000000816001815181106133cc576133cb61439d565b5b60200101907effffffffffffffffffffffffffffffffffffffffffffffffffffffffffffff1916908160001a9053506000600184600261340c9190614f96565b6134169190614857565b90505b60018111156134b6577f3031323334353637383961626364656600000000000000000000000000000000600f8616601081106134585761345761439d565b5b1a60f81b82828151811061346f5761346e61439d565b5b60200101907effffffffffffffffffffffffffffffffffffffffffffffffffffffffffffff1916908160001a905350600485901c9450806134af90614ff0565b9050613419565b50600084146134fa576040517f08c379a00000000000000000000000000000000000000000000000000000000081526004016134f190615065565b60405180910390fd5b8091505092915050565b600080836001016000848152602001908152602001600020541415905092915050565b60405180610220016040528060006001811115613547576135466137ef565b5b8152602001600060018111156135605761355f6137ef565b5b815260200160006003811115613579576135786137ef565b5b8152602001600073ffffffffffffffffffffffffffffffffffffffff168152602001600081526020016000815260200160008152602001600081526020016000815260200160008152602001600081526020016000815260200160008152602001600081526020016000815260200160008152602001600073ffffffffffffffffffffffffffffffffffffffff1681525090565b6000604051905090565b600080fd5b60007fffffffff0000000000000000000000000000000000000000000000000000000082169050919050565b6136518161361c565b811461365c57600080fd5b50565b60008135905061366e81613648565b92915050565b60006020828403121561368a57613689613617565b5b60006136988482850161365f565b91505092915050565b60008115159050919050565b6136b6816136a1565b82525050565b60006020820190506136d160008301846136ad565b92915050565b600073ffffffffffffffffffffffffffffffffffffffff82169050919050565b6000613702826136d7565b9050919050565b613712816136f7565b811461371d57600080fd5b50565b60008135905061372f81613709565b92915050565b60006020828403121561374b5761374a613617565b5b600061375984828501613720565b91505092915050565b6000819050919050565b61377581613762565b82525050565b6000602082019050613790600083018461376c565b92915050565b61379f81613762565b81146137aa57600080fd5b50565b6000813590506137bc81613796565b92915050565b6000602082840312156137d8576137d7613617565b5b60006137e6848285016137ad565b91505092915050565b7f4e487b7100000000000000000000000000000000000000000000000000000000600052602160045260246000fd5b6002811061382f5761382e6137ef565b5b50565b60008190506138408261381e565b919050565b600061385082613832565b9050919050565b61386081613845565b82525050565b60028110613877576138766137ef565b5b50565b600081905061388882613866565b919050565b60006138988261387a565b9050919050565b6138a88161388d565b82525050565b600481106138bf576138be6137ef565b5b50565b60008190506138d0826138ae565b919050565b60006138e0826138c2565b9050919050565b6138f0816138d5565b82525050565b6138ff816136f7565b82525050565b61390e81613762565b82525050565b6102208201600082015161392b6000850182613857565b50602082015161393e602085018261389f565b50604082015161395160408501826138e7565b50606082015161396460608501826138f6565b5060808201516139776080850182613905565b5060a082015161398a60a0850182613905565b5060c082015161399d60c0850182613905565b5060e08201516139b060e0850182613905565b506101008201516139c5610100850182613905565b506101208201516139da610120850182613905565b506101408201516139ef610140850182613905565b50610160820151613a04610160850182613905565b50610180820151613a19610180850182613905565b506101a0820151613a2e6101a0850182613905565b506101c0820151613a436101c0850182613905565b506101e0820151613a586101e0850182613905565b50610200820151613a6d6102008501826138f6565b50505050565b600061022082019050613a896000830184613914565b92915050565b600080fd5b6000601f19601f8301169050919050565b7f4e487b7100000000000000000000000000000000000000000000000000000000600052604160045260246000fd5b613add82613a94565b810181811067ffffffffffffffff82111715613afc57613afb613aa5565b5b80604052505050565b6000613b0f61360d565b9050613b1b8282613ad4565b919050565b60028110613b2d57600080fd5b50565b600081359050613b3f81613b20565b92915050565b60028110613b5257600080fd5b50565b600081359050613b6481613b45565b92915050565b60048110613b7757600080fd5b50565b600081359050613b8981613b6a565b92915050565b60006102208284031215613ba657613ba5613a8f565b5b613bb1610220613b05565b90506000613bc184828501613b30565b6000830152506020613bd584828501613b55565b6020830152506040613be984828501613b7a565b6040830152506060613bfd84828501613720565b6060830152506080613c11848285016137ad565b60808301525060a0613c25848285016137ad565b60a08301525060c0613c39848285016137ad565b60c08301525060e0613c4d848285016137ad565b60e083015250610100613c62848285016137ad565b61010083015250610120613c78848285016137ad565b61012083015250610140613c8e848285016137ad565b61014083015250610160613ca4848285016137ad565b61016083015250610180613cba848285016137ad565b610180830152506101a0613cd0848285016137ad565b6101a0830152506101c0613ce6848285016137ad565b6101c0830152506101e0613cfc848285016137ad565b6101e083015250610200613d1284828501613720565b6102008301525092915050565b613d28816136a1565b8114613d3357600080fd5b50565b600081359050613d4581613d1f565b92915050565b6000806102408385031215613d6357613d62613617565b5b6000613d7185828601613b8f565b925050610220613d8385828601613d36565b9150509250929050565b6000608082019050613da2600083018761376c565b613daf602083018661376c565b613dbc604083018561376c565b613dc9606083018461376c565b95945050505050565b6000819050919050565b613de581613dd2565b8114613df057600080fd5b50565b600081359050613e0281613ddc565b92915050565b600060208284031215613e1e57613e1d613617565b5b6000613e2c84828501613df3565b91505092915050565b613e3e81613dd2565b82525050565b6000602082019050613e596000830184613e35565b92915050565b60008060408385031215613e7657613e75613617565b5b6000613e84858286016137ad565b9250506020613e9585828601613720565b9150509250929050565b6000613eaa826136f7565b9050919050565b613eba81613e9f565b8114613ec557600080fd5b50565b600081359050613ed781613eb1565b92915050565b6000819050919050565b613ef081613edd565b8114613efb57600080fd5b50565b600081359050613f0d81613ee7565b92915050565b600080600080600060a08688031215613f2f57613f2e613617565b5b6000613f3d88828901613ec8565b9550506020613f4e888289016137ad565b9450506040613f5f888289016137ad565b9350506060613f7088828901613efe565b9250506080613f8188828901613efe565b9150509295509295909350565b6000606082019050613fa3600083018661376c565b613fb0602083018561376c565b613fbd604083018461376c565b949350505050565b60008060408385031215613fdc57613fdb613617565b5b6000613fea85828601613df3565b9250506020613ffb85828601613720565b9150509250929050565b6000614010826136f7565b9050919050565b61402081614005565b811461402b57600080fd5b50565b60008135905061403d81614017565b92915050565b600080600080600060a0868803121561405f5761405e613617565b5b600061406d8882890161402e565b955050602061407e888289016137ad565b945050604061408f888289016137ad565b93505060606140a088828901613b30565b92505060806140b188828901613b55565b9150509295509295909350565b6000806000606084860312156140d7576140d6613617565b5b60006140e58682870161402e565b93505060206140f686828701613d36565b925050604061410786828701613d36565b9150509250925092565b6000806040838503121561412857614127613617565b5b600061413685828601613720565b925050602061414785828601613720565b9150509250929050565b600081519050919050565b600082825260208201905092915050565b6000819050602082019050919050565b60006141898383613905565b60208301905092915050565b6000602082019050919050565b60006141ad82614151565b6141b7818561415c565b93506141c28361416d565b8060005b838110156141f35781516141da888261417d565b97506141e583614195565b9250506001810190506141c6565b5085935050505092915050565b6000602082019050818103600083015261421a81846141a2565b905092915050565b61422b81613edd565b82525050565b60006020820190506142466000830184614222565b92915050565b60008060008060006102a0868803121561426957614268613617565b5b600061427788828901613b8f565b955050610220614289888289016137ad565b94505061024061429b888289016137ad565b9350506102606142ad888289016137ad565b9250506102806142bf888289016137ad565b9150509295509295909350565b6142d5816138d5565b82525050565b6142e48161388d565b82525050565b6142f3816136f7565b82525050565b6000819050919050565b600061431e614319614314846136d7565b6142f9565b6136d7565b9050919050565b600061433082614303565b9050919050565b600061434282614325565b9050919050565b61435281614337565b82525050565b600060808201905061436d60008301876142cc565b61437a60208301866142db565b61438760408301856142ea565b6143946060830184614349565b95945050505050565b7f4e487b7100000000000000000000000000000000000000000000000000000000600052603260045260246000fd5b6000815190506143db81613eb1565b92915050565b6000602082840312156143f7576143f6613617565b5b6000614405848285016143cc565b91505092915050565b7f4e487b7100000000000000000000000000000000000000000000000000000000600052601160045260246000fd5b600061444882613edd565b915061445383613edd565b9250827f7fffffffffffffffffffffffffffffffffffffffffffffffffffffffffffffff04821160008413600084131616156144925761449161440e565b5b817f800000000000000000000000000000000000000000000000000000000000000005831260008412600084131616156144cf576144ce61440e565b5b827f8000000000000000000000000000000000000000000000000000000000000000058212600084136000841216161561450c5761450b61440e565b5b827f7fffffffffffffffffffffffffffffffffffffffffffffffffffffffffffffff05821260008412600084121616156145495761454861440e565b5b828202905092915050565b600061455f82613edd565b915061456a83613edd565b9250817f7fffffffffffffffffffffffffffffffffffffffffffffffffffffffffffffff038313600083121516156145a5576145a461440e565b5b817f80000000000000000000000000000000000000000000000000000000000000000383126000831216156145dd576145dc61440e565b5b828201905092915050565b6000815190506145f781613796565b92915050565b60006020828403121561461357614612613617565b5b6000614621848285016145e8565b91505092915050565b61463381613845565b82525050565b6146428161388d565b82525050565b614651816138d5565b82525050565b614660816136f7565b82525050565b61466f81613762565b82525050565b6102208201600082015161468c600085018261462a565b50602082015161469f6020850182614639565b5060408201516146b26040850182614648565b5060608201516146c56060850182614657565b5060808201516146d86080850182614666565b5060a08201516146eb60a0850182614666565b5060c08201516146fe60c0850182614666565b5060e082015161471160e0850182614666565b50610100820151614726610100850182614666565b5061012082015161473b610120850182614666565b50610140820151614750610140850182614666565b50610160820151614765610160850182614666565b5061018082015161477a610180850182614666565b506101a082015161478f6101a0850182614666565b506101c08201516147a46101c0850182614666565b506101e08201516147b96101e0850182614666565b506102008201516147ce610200850182614657565b50505050565b6147dd81613762565b82525050565b6000610280820190506147f96000830187614675565b6148076102208301866147d4565b6148156102408301856147d4565b6148236102608301846147d4565b95945050505050565b6000610240820190506148426000830185614675565b6148506102208301846147d4565b9392505050565b600061486282613762565b915061486d83613762565b9250827fffffffffffffffffffffffffffffffffffffffffffffffffffffffffffffffff038211156148a2576148a161440e565b5b828201905092915050565b8082525050565b60006020820190506148c960008301846148ad565b92915050565b6000815190506148de81613ee7565b92915050565b6000602082840312156148fa576148f9613617565b5b6000614908848285016148cf565b91505092915050565b600061491c826136f7565b9050919050565b61492c81614911565b811461493757600080fd5b50565b60008151905061494981614923565b92915050565b60006020828403121561496557614964613617565b5b60006149738482850161493a565b91505092915050565b600061498782614325565b9050919050565b6149978161497c565b82525050565b60006040820190506149b2600083018561498e565b6149bf60208301846147d4565b9392505050565b6149cf81613edd565b82525050565b600060a0820190506149ea60008301886147d4565b6149f760208301876149c6565b614a0460408301866149c6565b614a1160608301856147d4565b614a1e60808301846147d4565b9695505050505050565b6000604082019050614a3d60008301856147d4565b614a4a60208301846147d4565b9392505050565b600082825260208201905092915050565b7f416363657373436f6e74726f6c3a2063616e206f6e6c792072656e6f756e636560008201527f20726f6c657320666f722073656c660000000000000000000000000000000000602082015250565b6000614abe602f83614a51565b9150614ac982614a62565b604082019050919050565b60006020820190508181036000830152614aed81614ab1565b9050919050565b600081519050614b0381613d1f565b92915050565b600060208284031215614b1f57614b1e613617565b5b6000614b2d84828501614af4565b91505092915050565b6000614b4182613762565b91507fffffffffffffffffffffffffffffffffffffffffffffffffffffffffffffffff8203614b7357614b7261440e565b5b600182019050919050565b6000614b8982613762565b9150614b9483613762565b925082821015614ba757614ba661440e565b5b828203905092915050565b6000614bbd82613edd565b9150614bc883613edd565b9250827f800000000000000000000000000000000000000000000000000000000000000001821260008412151615614c0357614c0261440e565b5b827f7fffffffffffffffffffffffffffffffffffffffffffffffffffffffffffffff018213600084121615614c3b57614c3a61440e565b5b828203905092915050565b6000604082019050614c5b60008301856148ad565b614c6860208301846147d4565b9392505050565b600080600060608486031215614c8857614c87613617565b5b6000614c96868287016145e8565b9350506020614ca7868287016145e8565b9250506040614cb8868287016145e8565b9150509250925092565b7f5a65726f2074656e6f7200000000000000000000000000000000000000000000600082015250565b6000614cf8600a83614a51565b9150614d0382614cc2565b602082019050919050565b60006020820190508181036000830152614d2781614ceb565b9050919050565b7f53616665436173743a2076616c756520646f65736e27742066697420696e206160008201527f6e20696e74323536000000000000000000000000000000000000000000000000602082015250565b6000614d8a602883614a51565b9150614d9582614d2e565b604082019050919050565b60006020820190508181036000830152614db981614d7d565b9050919050565b600081905092915050565b7f416363657373436f6e74726f6c3a206163636f756e7420000000000000000000600082015250565b6000614e01601783614dc0565b9150614e0c82614dcb565b601782019050919050565b600081519050919050565b60005b83811015614e40578082015181840152602081019050614e25565b83811115614e4f576000848401525b50505050565b6000614e6082614e17565b614e6a8185614dc0565b9350614e7a818560208601614e22565b80840191505092915050565b7f206973206d697373696e6720726f6c6520000000000000000000000000000000600082015250565b6000614ebc601183614dc0565b9150614ec782614e86565b601182019050919050565b6000614edd82614df4565b9150614ee98285614e55565b9150614ef482614eaf565b9150614f008284614e55565b91508190509392505050565b6000614f1782614e17565b614f218185614a51565b9350614f31818560208601614e22565b614f3a81613a94565b840191505092915050565b60006020820190508181036000830152614f5f8184614f0c565b905092915050565b7f4e487b7100000000000000000000000000000000000000000000000000000000600052603160045260246000fd5b6000614fa182613762565b9150614fac83613762565b9250817fffffffffffffffffffffffffffffffffffffffffffffffffffffffffffffffff0483118215151615614fe557614fe461440e565b5b828202905092915050565b6000614ffb82613762565b91506000820361500e5761500d61440e565b5b600182039050919050565b7f537472696e67733a20686578206c656e67746820696e73756666696369656e74600082015250565b600061504f602083614a51565b915061505a82615019565b602082019050919050565b6000602082019050818103600083015261507e81615042565b905091905056fea2646970667358221220f9ec3f08a4926c831b307930b2b2b4a430480c70deea8ccd44a5dcea215e971f64736f6c634300080e0033",
  "immutableReferences": {},
  "source": "// SPDX-License-Identifier: MIT\npragma solidity ^0.8.4;\n\nimport \"@openzeppelin/contracts/access/AccessControl.sol\";\nimport \"@openzeppelin/contracts/utils/structs/EnumerableSet.sol\";\n\nimport \"./libraries/MarketLib.sol\";\nimport \"./libraries/OptionLib.sol\";\nimport \"./libraries/MathLib.sol\";\nimport \"./interfaces/EOption.sol\";\nimport \"./pools/Pool.sol\";\nimport \"./pools/MarketMaker.sol\";\nimport \"./VolatilityChain.sol\";\nimport \"./VolatilityToken.sol\";\n\ncontract OptionVault is EOption, AccessControl{\n  using MathLib for uint256;\n  using MarketLib for uint256;\n  \n  using OptionLib for OptionLib.Option;\n  using EnumerableSet for EnumerableSet.UintSet;\n  using EnumerableSet for EnumerableSet.AddressSet;\n\n  bytes32 public constant EXCHANGE = keccak256(\"EXCHANGE\");\n  \n  // list of option contracts\n  OptionLib.Option[] internal aOption;\n  mapping(address=>mapping(address=> EnumerableSet.UintSet)) internal mHolderAtiveOption;\n  mapping(address=>EnumerableSet.UintSet) internal mActiveOption;\n  // mapping(address=>uint256) public mActiveContractCount = 0;\n  mapping(address=>int256) public mNetNotional;\n  mapping(address=>uint256) public mPutCollateral;\n  mapping(address=>uint256) public mDeltaAtZero;\n  mapping(address=>uint256) public mDeltaAtMax;\n\n  // immutable and constant values\n  uint256 internal constant BASE  = 1e18;\n  uint256 internal constant SCALING = 1e5;\n\n  // constructor\n  constructor(){\n    _setupRole(DEFAULT_ADMIN_ROLE, msg.sender); }\n\n  // function to add new option contracts, only executable by Exchange contract as owner\n  // arguments: tenor of option contracts (in seconds), strike (consistent with price source decimals), amount (consistent with underlying token decimals), option type (call or put), option side (buy or sell), premium (in funding token decimals), cost (in funding token decimals), price (in price source decimals), volatility (in default decimals 18), holder address\n  // return id of option contract\n  function addOption(OptionLib.Option memory _option, uint256 _premium, uint256 _collateral, uint256 _price, uint256 _vol) external onlyRole(EXCHANGE) returns(uint256 _id){\n    require(_option.tenor > 0, \"Zero tenor\");\n    _id = aOption.length;\n    // Arguments: option type, option side, contract status (default to draft), contract holder address, contract id, creation timestamp, effective timestamp (default to 0), tenor in seconds, maturity timestamp (default to 0), excersie timestamp (default to 0), amount or size of contract, current spot price, option strike, implied volatility, calculated premium and total cost including collaterals.\n    aOption.push(OptionLib.Option(_option.poType, _option.side, OptionLib.OptionStatus.Draft, _option.holder, _id, block.timestamp,  0, _option.tenor, 0,  0, _option.amount, _price, _option.strike, _vol, _premium, _collateral, _option.pool));}\n\n  // function to stamp option as an active contract, only executable by Exchange contract as owner\n  // arguments: contract id and holder address\n  function stampActiveOption(uint256 _id, address _holder) external onlyRole(EXCHANGE){\n    // update Option records\n    OptionLib.Option storage _option = aOption[_id];\n    _option.effectiveTime = block.timestamp;\n    _option.maturity = block.timestamp + _option.tenor;\n    _option.status = OptionLib.OptionStatus.Active;\n    \n    // update ownership and exposure records\n    address _poolAddress = _option.pool;\n    mNetNotional[_poolAddress] += _option.getNetNotional();\n    mPutCollateral[_poolAddress] += _option.sellPutCollateral();\n    mDeltaAtZero[_poolAddress] += _option.calcDeltaAtZero();\n    mDeltaAtMax[_poolAddress] += _option.calcDeltaAtMax();\n\n    mHolderAtiveOption[_poolAddress][_holder].add(_id);\n    mActiveOption[_poolAddress].add(_id);}\n\n  // function to stamp option as an expired contract, only executable by Exchange contract as owner\n  // arguments: contract id\n  function stampExpiredOption(uint256 _id)  external onlyRole(EXCHANGE){\n    // update Option records\n    OptionLib.Option storage _option = aOption[_id];\n    address _poolAddress = _option.pool;\n    address _holder = _option.holder;\n    mActiveOption[_poolAddress].remove(_id);\n    mHolderAtiveOption[_poolAddress][_holder].remove(_id);\n\n    mNetNotional[_poolAddress] -= _option.getNetNotional();\n    mDeltaAtZero[_poolAddress] -= Math.min(mDeltaAtZero[_poolAddress], _option.calcDeltaAtZero());\n    mDeltaAtMax[_poolAddress] -= Math.min(mDeltaAtMax[_poolAddress], _option.calcDeltaAtMax());\n    mPutCollateral[_poolAddress] -= Math.min(mPutCollateral[_poolAddress], _option.sellPutCollateral());\n   \n    _option.status = OptionLib.OptionStatus.Expired;\n    _option.exerciseTime = block.timestamp;}\n\n  // functions to get information of the option list -> ONLY USED in VIEW, gas cost unlimited\n  function getHolderOptions(address _pool, address _address) external view returns(uint256[] memory){\n    return mHolderAtiveOption[_pool][_address].values();}\n  function getOption(uint256 _id) external view returns(OptionLib.Option memory) {return aOption[_id];}\n  function getActiveOptionCount(address _poolAddress) public view returns(uint256) {return mActiveOption[_poolAddress].length();}\n  function getActiveOptions(address _poolAddress) public view returns(uint256[] memory) {return mActiveOption[_poolAddress].values();}\n\n  // function getHoldersOption(uint256 _index, address _address) external view returns(OptionLib.Option memory) {return aOption[activeOptionsPerOwner[_address].at(_index)];}\n  function getOptionInfo(uint256 _id) external view returns(OptionLib.OptionStatus, OptionLib.OptionSide, address, Pool) {\n    require(_id< aOption.length);\n    return (aOption[_id].status, aOption[_id].side, aOption[_id].holder, Pool(aOption[_id].pool));}\n\n  // functions to get the hedging inputs\n  // maximum hedges needed \n  // function getMaxHedge(Pool _pool) external view returns (uint256){\n  //   VolatilityChain _volChain = _pool.volChain();\n  //   address _poolAddress = address(_pool);\n  //   return Math.max(mDeltaAtZero[_poolAddress], mDeltaAtMax[_poolAddress]).ethmul(_volChain.queryPrice());}\n\n  // aggregate delta of all active contracts, optional including expiring contracts yet stamped as Expired. Arguments: spot price and whether to include expiring contracts\n  // function calculateAggregateDelta(address _pool, uint256 _price, bool _includeExpiring) public view returns(int256 _delta){\n  //   _delta= 0;\n  //   uint256 _activeContractCount = getActiveOptionCount(_pool);\n  //   for(uint256 i= 0;i < _activeContractCount; i++){\n  //     OptionLib.Option storage _option = aOption[uint256(mActiveOption[_pool].at(i))];\n  //     uint256 _maturityLeft = _option.calcRemainingMaturity();\n  //     uint256 _vol = volChain.queryVol(_maturityLeft);\n  //     _delta += _option.calcDelta(_price, _vol, _includeExpiring);}}\n  \n  // aggregate gamma. Arguments: spot price\n  // function calculateAggregateGamma(address _pool, uint256 _price) external view returns(int256 _gamma){\n  //   _gamma= 0;\n  //   for(uint256 i=0;i<activeContractCount;i++){\n  //     uint256 _id = uint256(activeOptions.at(i));\n  //     if(aOption[_id].status== OptionLib.OptionStatus.Active  && (aOption[_id].maturity > block.timestamp)){\n  //       uint256 _vol = volChain.queryVol(aOption[_id].maturity - block.timestamp);\n  //       int256 _contractGamma = SafeCast.toInt256(OptionLib.calcGamma(_price, aOption[_id].strike, _vol).ethmul(aOption[_id].amount));\n  //       if(aOption[_id].side==OptionLib.OptionSide.Sell){ _gamma -= _contractGamma;}\n  //       else{_gamma += _contractGamma;}}}}\n\n  // hypothetical gamma assuming at the money and 1-day expiry\n  // function calculateSpotGamma() external view returns(int256 _gamma){\n  //   uint256 _vol = volChain.queryVol(86400);\n  //   _gamma = SafeCast.toInt256(OptionLib.calcGamma(BASE, BASE, _vol));}\n\n  // functions used in expiring option contracts\n  // contract payoff of specified contract ID\n  function getContractPayoff(uint256 _id) external view returns(uint256 _payoff, uint256 _payback, uint256 _collateral){\n    Pool _pool = Pool(aOption[_id].pool);\n    VolatilityChain _volChain = _pool.marketMaker().getVolatilityChain();\n    return aOption[_id].calcPayoff(_volChain.queryPrice());}\n    \n  // check if any option contract is expiring\n  function anyOptionExpiring(address _poolAddress) external view returns(bool _isExpiring) {\n    _isExpiring = false;\n    uint256 _count = mActiveOption[_poolAddress].length();\n    for(uint256 i=0;i<_count;i++){\n      if(aOption[uint256(mActiveOption[_poolAddress].at(i))].isExpiring()){\n        _isExpiring = true;\n        break;}}}\n  // get the id of any expiring contract -> please only run it on view function as it has unlimited gas usage.\n  function getExpiringOptionId(address _poolAddress) external view returns(uint256 _id){\n    // uint256[] memory _id;\n    uint256 _count = mActiveOption[_poolAddress].length();\n    for(uint256 i=0;i<_count;i++){\n      uint256 _id_i = uint256(mActiveOption[_poolAddress].at(i));\n      if(aOption[_id_i].isExpiring()){\n        _id = _id_i;\n        break;}}}\n\n  function tryATMOptionCost(Pool _pool, uint256 _tenor, uint256 _amount, OptionLib.PayoffType _poType, OptionLib.OptionSide _side) public view returns(uint256 _premium, uint256 _collateral, uint256 _price, uint256 _volatilty){\n    OptionLib.Option memory _option = OptionLib.Option(_poType, _side, OptionLib.OptionStatus.Draft, msg.sender, 0, block.timestamp,  0, _tenor, 0,  0, _amount, 0, 0, 0, 0, 0, address(_pool));\n    return calcOptionCost(_option, true);\n  }\n\n  function calcOptionCost(OptionLib.Option memory _option, bool _forceATM) public view returns(uint256 _premium, uint256 _collateral, uint256 _price, uint256 _annualisedVol){\n    Pool _pool = Pool(_option.pool);\n    MarketMaker _market = _pool.marketMaker();\n\n    int256 _newNetNotional = mNetNotional[_option.pool] + SafeCast.toInt256(_option.amount) * (_option.side==OptionLib.OptionSide.Sell? -1: int(1));\n    uint256 _impVol; // vol * sqrt(t)\n    (_price, _impVol, _annualisedVol) = calcImpliedVol(_market, _option.tenor, _pool.volCapacityFactor(), mNetNotional[_option.pool], _newNetNotional);\n    \n    if (_forceATM){_option.strike = _price;}\n\n    _premium = _option.calcPremium(_price, _impVol, _market.loanInterest());\n    _collateral = _option.calcCollateral(_price);}\n\n  function calcImpliedVol(MarketMaker _market, uint256 _tenor, uint256 _volCapacityFactor, int256 _currentNetNotional, int256 _newNetNotional) public view returns(uint256 _price, uint256 _impVol, uint256 _annualisedVol){\n    VolatilityChain _volChain = _market.getVolatilityChain();\n    _price = _volChain.queryPrice();\n    _impVol = MarketLib.calcRiskPremium(MarketLib.getGrossCapital(_market, _price), _currentNetNotional, _newNetNotional, _volChain.queryVol(_tenor), _volCapacityFactor);\n    _annualisedVol = _impVol.ethmul(_volChain.getSqrtRatio(_tenor));}\n    \n  // functions related to capital calculation, addition and removals\n  // calculate capitals. Arguments: net for net capital (removing all collaterals and max exposures of option contracts) or gross (including all exposures in the underlying and funding tokens), average for average capital (total divided by number of Pool tokens) or gross (not divided by tokens)\n  function calcCapital(Pool _pool, bool _net, bool _average) external view returns(uint256){\n    MarketMaker _market = _pool.marketMaker();\n    VolatilityChain _volChain = _market.getVolatilityChain();\n    uint256 _price = _volChain.queryPrice();\n    uint256 _capital = MarketLib.getGrossCapital(_market, _price);\n    address _poolAddress = address(_pool);\n\n    if(_net){ \n      uint256 _maxHedge = Math.max(mDeltaAtZero[_poolAddress], mDeltaAtMax[_poolAddress]).ethmul(_price);\n      _capital -= Math.min(_maxHedge + mPutCollateral[_poolAddress], _capital);}\n\n    if(_average){ \n      uint256 _poolSupply = _pool.totalSupply();\n      if(_poolSupply > 0) {\n        _capital = _capital.ethdiv(_poolSupply); }\n      else if(_poolSupply == 0 && _capital == 0) {\n        _capital = BASE;}}\n    \n    return _capital;}\n}\n",
  "sourcePath": "/Users/mac/Documents/GitHub/moret/contracts/OptionVault.sol",
  "compiler": {
    "name": "solc",
    "version": "0.8.14+commit.80d49f37.Emscripten.clang"
  },
  "schemaVersion": "3.4.3",
  "updatedAt": "2022-06-12T14:10:11.770Z",
  "devdoc": {
    "kind": "dev",
    "methods": {
      "getRoleAdmin(bytes32)": {
        "details": "Returns the admin role that controls `role`. See {grantRole} and {revokeRole}. To change a role's admin, use {_setRoleAdmin}."
      },
      "grantRole(bytes32,address)": {
        "details": "Grants `role` to `account`. If `account` had not been already granted `role`, emits a {RoleGranted} event. Requirements: - the caller must have ``role``'s admin role."
      },
      "hasRole(bytes32,address)": {
        "details": "Returns `true` if `account` has been granted `role`."
      },
      "renounceRole(bytes32,address)": {
        "details": "Revokes `role` from the calling account. Roles are often managed via {grantRole} and {revokeRole}: this function's purpose is to provide a mechanism for accounts to lose their privileges if they are compromised (such as when a trusted device is misplaced). If the calling account had been revoked `role`, emits a {RoleRevoked} event. Requirements: - the caller must be `account`."
      },
      "revokeRole(bytes32,address)": {
        "details": "Revokes `role` from `account`. If `account` had been granted `role`, emits a {RoleRevoked} event. Requirements: - the caller must have ``role``'s admin role."
      },
      "supportsInterface(bytes4)": {
        "details": "See {IERC165-supportsInterface}."
      }
    },
    "version": 1
  },
  "userdoc": {
    "kind": "user",
    "methods": {},
    "version": 1
  }
}