{
  "contractName": "OptionVault",
  "abi": [
    {
      "inputs": [],
      "stateMutability": "nonpayable",
      "type": "constructor"
    },
    {
      "anonymous": false,
      "inputs": [
        {
          "indexed": true,
          "internalType": "address",
          "name": "_bot",
          "type": "address"
        },
        {
          "indexed": true,
          "internalType": "address",
          "name": "_exchange",
          "type": "address"
        },
        {
          "indexed": false,
          "internalType": "address",
          "name": "_holder",
          "type": "address"
        },
        {
          "indexed": false,
          "internalType": "uint256",
          "name": "_id",
          "type": "uint256"
        },
        {
          "indexed": false,
          "internalType": "uint256",
          "name": "_payoff",
          "type": "uint256"
        }
      ],
      "name": "Expire",
      "type": "event"
    },
    {
      "anonymous": false,
      "inputs": [
        {
          "indexed": true,
          "internalType": "address",
          "name": "_hedger",
          "type": "address"
        },
        {
          "indexed": true,
          "internalType": "address",
          "name": "_market",
          "type": "address"
        },
        {
          "indexed": false,
          "internalType": "bool",
          "name": "success",
          "type": "bool"
        },
        {
          "indexed": false,
          "internalType": "bytes",
          "name": "data",
          "type": "bytes"
        }
      ],
      "name": "HedgeResponse",
      "type": "event"
    },
    {
      "anonymous": false,
      "inputs": [
        {
          "indexed": true,
          "internalType": "address",
          "name": "_hedger",
          "type": "address"
        },
        {
          "indexed": true,
          "internalType": "address",
          "name": "_market",
          "type": "address"
        },
        {
          "indexed": false,
          "internalType": "uint256[]",
          "name": "amounts",
          "type": "uint256[]"
        }
      ],
      "name": "HedgeSwapResponse",
      "type": "event"
    },
    {
      "anonymous": false,
      "inputs": [
        {
          "indexed": false,
          "internalType": "address",
          "name": "_newBot",
          "type": "address"
        }
      ],
      "name": "ResetBotAddress",
      "type": "event"
    },
    {
      "anonymous": false,
      "inputs": [
        {
          "indexed": true,
          "internalType": "uint256",
          "name": "_parameterId",
          "type": "uint256"
        },
        {
          "indexed": false,
          "internalType": "uint256",
          "name": "_parameter",
          "type": "uint256"
        }
      ],
      "name": "ResetParameter",
      "type": "event"
    },
    {
      "anonymous": false,
      "inputs": [
        {
          "indexed": true,
          "internalType": "address",
          "name": "_exchange",
          "type": "address"
        },
        {
          "indexed": false,
          "internalType": "bool",
          "name": "_tradingAllowed",
          "type": "bool"
        }
      ],
      "name": "ResetTradingStatus",
      "type": "event"
    },
    {
      "anonymous": false,
      "inputs": [
        {
          "indexed": true,
          "internalType": "bytes32",
          "name": "role",
          "type": "bytes32"
        },
        {
          "indexed": true,
          "internalType": "bytes32",
          "name": "previousAdminRole",
          "type": "bytes32"
        },
        {
          "indexed": true,
          "internalType": "bytes32",
          "name": "newAdminRole",
          "type": "bytes32"
        }
      ],
      "name": "RoleAdminChanged",
      "type": "event"
    },
    {
      "anonymous": false,
      "inputs": [
        {
          "indexed": true,
          "internalType": "bytes32",
          "name": "role",
          "type": "bytes32"
        },
        {
          "indexed": true,
          "internalType": "address",
          "name": "account",
          "type": "address"
        },
        {
          "indexed": true,
          "internalType": "address",
          "name": "sender",
          "type": "address"
        }
      ],
      "name": "RoleGranted",
      "type": "event"
    },
    {
      "anonymous": false,
      "inputs": [
        {
          "indexed": true,
          "internalType": "bytes32",
          "name": "role",
          "type": "bytes32"
        },
        {
          "indexed": true,
          "internalType": "address",
          "name": "account",
          "type": "address"
        },
        {
          "indexed": true,
          "internalType": "address",
          "name": "sender",
          "type": "address"
        }
      ],
      "name": "RoleRevoked",
      "type": "event"
    },
    {
      "anonymous": false,
      "inputs": [
        {
          "indexed": true,
          "internalType": "address",
          "name": "_purchaser",
          "type": "address"
        },
        {
          "indexed": true,
          "internalType": "address",
          "name": "_exchange",
          "type": "address"
        },
        {
          "indexed": false,
          "internalType": "uint256",
          "name": "_cost",
          "type": "uint256"
        },
        {
          "indexed": false,
          "internalType": "uint256",
          "name": "_volAmount",
          "type": "uint256"
        },
        {
          "indexed": false,
          "internalType": "bool",
          "name": "_isPurchase",
          "type": "bool"
        }
      ],
      "name": "TradeVolatility",
      "type": "event"
    },
    {
      "inputs": [],
      "name": "DEFAULT_ADMIN_ROLE",
      "outputs": [
        {
          "internalType": "bytes32",
          "name": "",
          "type": "bytes32"
        }
      ],
      "stateMutability": "view",
      "type": "function",
      "constant": true
    },
    {
      "inputs": [],
      "name": "EXCHANGE",
      "outputs": [
        {
          "internalType": "bytes32",
          "name": "",
          "type": "bytes32"
        }
      ],
      "stateMutability": "view",
      "type": "function",
      "constant": true
    },
    {
      "inputs": [
        {
          "internalType": "bytes32",
          "name": "role",
          "type": "bytes32"
        }
      ],
      "name": "getRoleAdmin",
      "outputs": [
        {
          "internalType": "bytes32",
          "name": "",
          "type": "bytes32"
        }
      ],
      "stateMutability": "view",
      "type": "function",
      "constant": true
    },
    {
      "inputs": [
        {
          "internalType": "bytes32",
          "name": "role",
          "type": "bytes32"
        },
        {
          "internalType": "address",
          "name": "account",
          "type": "address"
        }
      ],
      "name": "grantRole",
      "outputs": [],
      "stateMutability": "nonpayable",
      "type": "function"
    },
    {
      "inputs": [
        {
          "internalType": "bytes32",
          "name": "role",
          "type": "bytes32"
        },
        {
          "internalType": "address",
          "name": "account",
          "type": "address"
        }
      ],
      "name": "hasRole",
      "outputs": [
        {
          "internalType": "bool",
          "name": "",
          "type": "bool"
        }
      ],
      "stateMutability": "view",
      "type": "function",
      "constant": true
    },
    {
      "inputs": [
        {
          "internalType": "address",
          "name": "",
          "type": "address"
        }
      ],
      "name": "mDeltaAtMax",
      "outputs": [
        {
          "internalType": "uint256",
          "name": "",
          "type": "uint256"
        }
      ],
      "stateMutability": "view",
      "type": "function",
      "constant": true
    },
    {
      "inputs": [
        {
          "internalType": "address",
          "name": "",
          "type": "address"
        }
      ],
      "name": "mDeltaAtZero",
      "outputs": [
        {
          "internalType": "uint256",
          "name": "",
          "type": "uint256"
        }
      ],
      "stateMutability": "view",
      "type": "function",
      "constant": true
    },
    {
      "inputs": [
        {
          "internalType": "address",
          "name": "",
          "type": "address"
        }
      ],
      "name": "mNetNotional",
      "outputs": [
        {
          "internalType": "int256",
          "name": "",
          "type": "int256"
        }
      ],
      "stateMutability": "view",
      "type": "function",
      "constant": true
    },
    {
      "inputs": [
        {
          "internalType": "address",
          "name": "",
          "type": "address"
        }
      ],
      "name": "mPutCollateral",
      "outputs": [
        {
          "internalType": "uint256",
          "name": "",
          "type": "uint256"
        }
      ],
      "stateMutability": "view",
      "type": "function",
      "constant": true
    },
    {
      "inputs": [
        {
          "internalType": "bytes32",
          "name": "role",
          "type": "bytes32"
        },
        {
          "internalType": "address",
          "name": "account",
          "type": "address"
        }
      ],
      "name": "renounceRole",
      "outputs": [],
      "stateMutability": "nonpayable",
      "type": "function"
    },
    {
      "inputs": [
        {
          "internalType": "bytes32",
          "name": "role",
          "type": "bytes32"
        },
        {
          "internalType": "address",
          "name": "account",
          "type": "address"
        }
      ],
      "name": "revokeRole",
      "outputs": [],
      "stateMutability": "nonpayable",
      "type": "function"
    },
    {
      "inputs": [
        {
          "internalType": "bytes4",
          "name": "interfaceId",
          "type": "bytes4"
        }
      ],
      "name": "supportsInterface",
      "outputs": [
        {
          "internalType": "bool",
          "name": "",
          "type": "bool"
        }
      ],
      "stateMutability": "view",
      "type": "function",
      "constant": true
    },
    {
      "inputs": [
        {
          "components": [
            {
              "internalType": "enum OptionLib.PayoffType",
              "name": "poType",
              "type": "uint8"
            },
            {
              "internalType": "enum OptionLib.OptionSide",
              "name": "side",
              "type": "uint8"
            },
            {
              "internalType": "enum OptionLib.OptionStatus",
              "name": "status",
              "type": "uint8"
            },
            {
              "internalType": "address",
              "name": "holder",
              "type": "address"
            },
            {
              "internalType": "uint256",
              "name": "id",
              "type": "uint256"
            },
            {
              "internalType": "uint256",
              "name": "createTime",
              "type": "uint256"
            },
            {
              "internalType": "uint256",
              "name": "effectiveTime",
              "type": "uint256"
            },
            {
              "internalType": "uint256",
              "name": "tenor",
              "type": "uint256"
            },
            {
              "internalType": "uint256",
              "name": "maturity",
              "type": "uint256"
            },
            {
              "internalType": "uint256",
              "name": "exerciseTime",
              "type": "uint256"
            },
            {
              "internalType": "uint256",
              "name": "amount",
              "type": "uint256"
            },
            {
              "internalType": "uint256",
              "name": "spot",
              "type": "uint256"
            },
            {
              "internalType": "uint256",
              "name": "strike",
              "type": "uint256"
            },
            {
              "internalType": "uint256",
              "name": "volatility",
              "type": "uint256"
            },
            {
              "internalType": "uint256",
              "name": "premium",
              "type": "uint256"
            },
            {
              "internalType": "uint256",
              "name": "cost",
              "type": "uint256"
            },
            {
              "internalType": "address",
              "name": "pool",
              "type": "address"
            }
          ],
          "internalType": "struct OptionLib.Option",
          "name": "_option",
          "type": "tuple"
        },
        {
          "internalType": "uint256",
          "name": "_premium",
          "type": "uint256"
        },
        {
          "internalType": "uint256",
          "name": "_collateral",
          "type": "uint256"
        },
        {
          "internalType": "uint256",
          "name": "_price",
          "type": "uint256"
        },
        {
          "internalType": "uint256",
          "name": "_vol",
          "type": "uint256"
        }
      ],
      "name": "addOption",
      "outputs": [
        {
          "internalType": "uint256",
          "name": "_id",
          "type": "uint256"
        }
      ],
      "stateMutability": "nonpayable",
      "type": "function"
    },
    {
      "inputs": [
        {
          "internalType": "uint256",
          "name": "_id",
          "type": "uint256"
        },
        {
          "internalType": "address",
          "name": "_holder",
          "type": "address"
        }
      ],
      "name": "stampActiveOption",
      "outputs": [],
      "stateMutability": "nonpayable",
      "type": "function"
    },
    {
      "inputs": [
        {
          "internalType": "uint256",
          "name": "_id",
          "type": "uint256"
        }
      ],
      "name": "stampExpiredOption",
      "outputs": [],
      "stateMutability": "nonpayable",
      "type": "function"
    },
    {
      "inputs": [
        {
          "internalType": "address",
          "name": "_pool",
          "type": "address"
        },
        {
          "internalType": "address",
          "name": "_address",
          "type": "address"
        }
      ],
      "name": "getHolderOptions",
      "outputs": [
        {
          "internalType": "uint256[]",
          "name": "",
          "type": "uint256[]"
        }
      ],
      "stateMutability": "view",
      "type": "function",
      "constant": true
    },
    {
      "inputs": [
        {
          "internalType": "uint256",
          "name": "_id",
          "type": "uint256"
        }
      ],
      "name": "getOption",
      "outputs": [
        {
          "components": [
            {
              "internalType": "enum OptionLib.PayoffType",
              "name": "poType",
              "type": "uint8"
            },
            {
              "internalType": "enum OptionLib.OptionSide",
              "name": "side",
              "type": "uint8"
            },
            {
              "internalType": "enum OptionLib.OptionStatus",
              "name": "status",
              "type": "uint8"
            },
            {
              "internalType": "address",
              "name": "holder",
              "type": "address"
            },
            {
              "internalType": "uint256",
              "name": "id",
              "type": "uint256"
            },
            {
              "internalType": "uint256",
              "name": "createTime",
              "type": "uint256"
            },
            {
              "internalType": "uint256",
              "name": "effectiveTime",
              "type": "uint256"
            },
            {
              "internalType": "uint256",
              "name": "tenor",
              "type": "uint256"
            },
            {
              "internalType": "uint256",
              "name": "maturity",
              "type": "uint256"
            },
            {
              "internalType": "uint256",
              "name": "exerciseTime",
              "type": "uint256"
            },
            {
              "internalType": "uint256",
              "name": "amount",
              "type": "uint256"
            },
            {
              "internalType": "uint256",
              "name": "spot",
              "type": "uint256"
            },
            {
              "internalType": "uint256",
              "name": "strike",
              "type": "uint256"
            },
            {
              "internalType": "uint256",
              "name": "volatility",
              "type": "uint256"
            },
            {
              "internalType": "uint256",
              "name": "premium",
              "type": "uint256"
            },
            {
              "internalType": "uint256",
              "name": "cost",
              "type": "uint256"
            },
            {
              "internalType": "address",
              "name": "pool",
              "type": "address"
            }
          ],
          "internalType": "struct OptionLib.Option",
          "name": "",
          "type": "tuple"
        }
      ],
      "stateMutability": "view",
      "type": "function",
      "constant": true
    },
    {
      "inputs": [
        {
          "internalType": "address",
          "name": "_poolAddress",
          "type": "address"
        }
      ],
      "name": "getActiveOptionCount",
      "outputs": [
        {
          "internalType": "uint256",
          "name": "",
          "type": "uint256"
        }
      ],
      "stateMutability": "view",
      "type": "function",
      "constant": true
    },
    {
      "inputs": [
        {
          "internalType": "address",
          "name": "_poolAddress",
          "type": "address"
        }
      ],
      "name": "getActiveOptions",
      "outputs": [
        {
          "internalType": "uint256[]",
          "name": "",
          "type": "uint256[]"
        }
      ],
      "stateMutability": "view",
      "type": "function",
      "constant": true
    },
    {
      "inputs": [
        {
          "internalType": "uint256",
          "name": "_id",
          "type": "uint256"
        }
      ],
      "name": "getOptionInfo",
      "outputs": [
        {
          "internalType": "enum OptionLib.OptionStatus",
          "name": "",
          "type": "uint8"
        },
        {
          "internalType": "enum OptionLib.OptionSide",
          "name": "",
          "type": "uint8"
        },
        {
          "internalType": "address",
          "name": "",
          "type": "address"
        },
        {
          "internalType": "contract Pool",
          "name": "",
          "type": "address"
        }
      ],
      "stateMutability": "view",
      "type": "function",
      "constant": true
    },
    {
      "inputs": [
        {
          "internalType": "address",
          "name": "_pool",
          "type": "address"
        },
        {
          "internalType": "uint256",
          "name": "_price",
          "type": "uint256"
        },
        {
          "internalType": "bool",
          "name": "_includeExpiring",
          "type": "bool"
        }
      ],
      "name": "calculateAggregateDelta",
      "outputs": [
        {
          "internalType": "int256",
          "name": "_delta",
          "type": "int256"
        }
      ],
      "stateMutability": "view",
      "type": "function",
      "constant": true
    },
    {
      "inputs": [
        {
          "internalType": "uint256",
          "name": "_id",
          "type": "uint256"
        }
      ],
      "name": "getContractPayoff",
      "outputs": [
        {
          "internalType": "uint256",
          "name": "_payoff",
          "type": "uint256"
        },
        {
          "internalType": "uint256",
          "name": "_payback",
          "type": "uint256"
        },
        {
          "internalType": "uint256",
          "name": "_collateral",
          "type": "uint256"
        }
      ],
      "stateMutability": "view",
      "type": "function",
      "constant": true
    },
    {
      "inputs": [
        {
          "internalType": "address",
          "name": "_poolAddress",
          "type": "address"
        }
      ],
      "name": "anyOptionExpiring",
      "outputs": [
        {
          "internalType": "bool",
          "name": "_isExpiring",
          "type": "bool"
        }
      ],
      "stateMutability": "view",
      "type": "function",
      "constant": true
    },
    {
      "inputs": [
        {
          "internalType": "address",
          "name": "_poolAddress",
          "type": "address"
        }
      ],
      "name": "getExpiringOptionId",
      "outputs": [
        {
          "internalType": "uint256",
          "name": "_id",
          "type": "uint256"
        }
      ],
      "stateMutability": "view",
      "type": "function",
      "constant": true
    },
    {
      "inputs": [
        {
          "components": [
            {
              "internalType": "enum OptionLib.PayoffType",
              "name": "poType",
              "type": "uint8"
            },
            {
              "internalType": "enum OptionLib.OptionSide",
              "name": "side",
              "type": "uint8"
            },
            {
              "internalType": "enum OptionLib.OptionStatus",
              "name": "status",
              "type": "uint8"
            },
            {
              "internalType": "address",
              "name": "holder",
              "type": "address"
            },
            {
              "internalType": "uint256",
              "name": "id",
              "type": "uint256"
            },
            {
              "internalType": "uint256",
              "name": "createTime",
              "type": "uint256"
            },
            {
              "internalType": "uint256",
              "name": "effectiveTime",
              "type": "uint256"
            },
            {
              "internalType": "uint256",
              "name": "tenor",
              "type": "uint256"
            },
            {
              "internalType": "uint256",
              "name": "maturity",
              "type": "uint256"
            },
            {
              "internalType": "uint256",
              "name": "exerciseTime",
              "type": "uint256"
            },
            {
              "internalType": "uint256",
              "name": "amount",
              "type": "uint256"
            },
            {
              "internalType": "uint256",
              "name": "spot",
              "type": "uint256"
            },
            {
              "internalType": "uint256",
              "name": "strike",
              "type": "uint256"
            },
            {
              "internalType": "uint256",
              "name": "volatility",
              "type": "uint256"
            },
            {
              "internalType": "uint256",
              "name": "premium",
              "type": "uint256"
            },
            {
              "internalType": "uint256",
              "name": "cost",
              "type": "uint256"
            },
            {
              "internalType": "address",
              "name": "pool",
              "type": "address"
            }
          ],
          "internalType": "struct OptionLib.Option",
          "name": "_option",
          "type": "tuple"
        },
        {
          "internalType": "bool",
          "name": "_forceATM",
          "type": "bool"
        }
      ],
      "name": "calcOptionCost",
      "outputs": [
        {
          "internalType": "uint256",
          "name": "_premium",
          "type": "uint256"
        },
        {
          "internalType": "uint256",
          "name": "_collateral",
          "type": "uint256"
        },
        {
          "internalType": "uint256",
          "name": "_price",
          "type": "uint256"
        },
        {
          "internalType": "uint256",
          "name": "_annualisedVol",
          "type": "uint256"
        }
      ],
      "stateMutability": "view",
      "type": "function",
      "constant": true
    },
    {
      "inputs": [
        {
          "internalType": "contract MarketMaker",
          "name": "_market",
          "type": "address"
        },
        {
          "internalType": "uint256",
          "name": "_tenor",
          "type": "uint256"
        },
        {
          "internalType": "uint256",
          "name": "_volCapacityFactor",
          "type": "uint256"
        },
        {
          "internalType": "int256",
          "name": "_currentNetNotional",
          "type": "int256"
        },
        {
          "internalType": "int256",
          "name": "_newNetNotional",
          "type": "int256"
        }
      ],
      "name": "calcImpliedVol",
      "outputs": [
        {
          "internalType": "uint256",
          "name": "_price",
          "type": "uint256"
        },
        {
          "internalType": "uint256",
          "name": "_impVol",
          "type": "uint256"
        },
        {
          "internalType": "uint256",
          "name": "_annualisedVol",
          "type": "uint256"
        }
      ],
      "stateMutability": "view",
      "type": "function",
      "constant": true
    },
    {
      "inputs": [
        {
          "internalType": "contract Pool",
          "name": "_pool",
          "type": "address"
        },
        {
          "internalType": "bool",
          "name": "_net",
          "type": "bool"
        },
        {
          "internalType": "bool",
          "name": "_average",
          "type": "bool"
        }
      ],
      "name": "calcCapital",
      "outputs": [
        {
          "internalType": "uint256",
          "name": "",
          "type": "uint256"
        }
      ],
      "stateMutability": "view",
      "type": "function",
      "constant": true
    }
  ],
  "bytecode": "0x60806040523480156200001157600080fd5b50620000276000801b336200002d60201b60201c565b620001a6565b6200003f82826200004360201b60201c565b5050565b6200005582826200013460201b60201c565b6200013057600160008084815260200190815260200160002060000160008373ffffffffffffffffffffffffffffffffffffffff1673ffffffffffffffffffffffffffffffffffffffff16815260200190815260200160002060006101000a81548160ff021916908315150217905550620000d56200019e60201b60201c565b73ffffffffffffffffffffffffffffffffffffffff168173ffffffffffffffffffffffffffffffffffffffff16837f2f8788117e7eff1d82e926ec794901d17c78024a50270940304540a733656f0d60405160405180910390a45b5050565b600080600084815260200190815260200160002060000160008373ffffffffffffffffffffffffffffffffffffffff1673ffffffffffffffffffffffffffffffffffffffff16815260200190815260200160002060009054906101000a900460ff16905092915050565b600033905090565b61537e80620001b66000396000f3fe608060405234801561001057600080fd5b50600436106101a95760003560e01c80636a347c40116100f9578063a217fddf11610097578063d547741f11610071578063d547741f14610591578063eae3f74f146105ad578063efb725af146105dd578063fc9d80e01461060d576101a9565b8063a217fddf14610525578063b50e44b814610543578063b9f10b6614610561576101a9565b806385ae10e6116100d357806385ae10e61461046357806391d14854146104955780639bafc254146104c55780639f2b958c146104f5576101a9565b80636a347c40146103d35780637be795e014610403578063844a7c9a14610433576101a9565b806325524217116101665780633a328e29116101405780633a328e29146103275780635c273c2f14610357578063637baf601461038757806365c22c5f146103a3576101a9565b806325524217146102bd5780632f2ff15d146102ef57806336568abe1461030b576101a9565b806301ffc9a7146101ae578063132a0f1b146101de5780631ce5e9a61461020e5780632360e8171461023e578063248a9ca31461027157806324b4110e146102a1575b600080fd5b6101c860048036038101906101c3919061390b565b610640565b6040516101d59190613953565b60405180910390f35b6101f860048036038101906101f391906139cc565b6106ba565b6040516102059190613a12565b60405180910390f35b61022860048036038101906102239190613a59565b61070a565b6040516102359190613d0a565b60405180910390f35b61025860048036038101906102539190613fe2565b61091c565b6040516102689493929190614024565b60405180910390f35b61028b6004803603810190610286919061409f565b610cc0565b60405161029891906140db565b60405180910390f35b6102bb60048036038101906102b691906140f6565b610cdf565b005b6102d760048036038101906102d291906141aa565b6111ca565b6040516102e693929190614225565b60405180910390f35b6103096004803603810190610304919061425c565b6115aa565b005b6103256004803603810190610320919061425c565b6115cb565b005b610341600480360381019061033c91906139cc565b61164e565b60405161034e9190613a12565b60405180910390f35b610371600480360381019061036c91906142da565b6117be565b60405161037e9190613a12565b60405180910390f35b6103a1600480360381019061039c9190613a59565b611c43565b005b6103bd60048036038101906103b891906139cc565b612217565b6040516103ca9190613a12565b60405180910390f35b6103ed60048036038101906103e891906139cc565b61222f565b6040516103fa9190613a12565b60405180910390f35b61041d6004803603810190610418919061432d565b612247565b60405161042a919061441c565b60405180910390f35b61044d600480360381019061044891906139cc565b6122d5565b60405161045a919061444d565b60405180910390f35b61047d60048036038101906104789190613a59565b6122ed565b60405161048c93929190614225565b60405180910390f35b6104af60048036038101906104aa919061425c565b612536565b6040516104bc9190613953565b60405180910390f35b6104df60048036038101906104da91906139cc565b6125a0565b6040516104ec9190613a12565b60405180910390f35b61050f600480360381019061050a91906139cc565b6125b8565b60405161051c9190613953565b60405180910390f35b61052d612722565b60405161053a91906140db565b60405180910390f35b61054b612729565b60405161055891906140db565b60405180910390f35b61057b60048036038101906105769190614468565b61274d565b6040516105889190613a12565b60405180910390f35b6105ab60048036038101906105a6919061425c565b612a93565b005b6105c760048036038101906105c291906144e8565b612ab4565b6040516105d4919061444d565b60405180910390f35b6105f760048036038101906105f291906139cc565b612dd3565b604051610604919061441c565b60405180910390f35b61062760048036038101906106229190613a59565b612e23565b60405161063794939291906145c7565b60405180910390f35b60007f7965db0b000000000000000000000000000000000000000000000000000000007bffffffffffffffffffffffffffffffffffffffffffffffffffffffff1916827bffffffffffffffffffffffffffffffffffffffffffffffffffffffff191614806106b357506106b282612f3b565b5b9050919050565b6000610703600360008473ffffffffffffffffffffffffffffffffffffffff1673ffffffffffffffffffffffffffffffffffffffff168152602001908152602001600020612fa5565b9050919050565b6107126137be565b600182815481106107265761072561460c565b5b90600052602060002090600e0201604051806102200160405290816000820160009054906101000a900460ff16600181111561076557610764613a86565b5b600181111561077757610776613a86565b5b81526020016000820160019054906101000a900460ff1660018111156107a05761079f613a86565b5b60018111156107b2576107b1613a86565b5b81526020016000820160029054906101000a900460ff1660038111156107db576107da613a86565b5b60038111156107ed576107ec613a86565b5b81526020016000820160039054906101000a900473ffffffffffffffffffffffffffffffffffffffff1673ffffffffffffffffffffffffffffffffffffffff1673ffffffffffffffffffffffffffffffffffffffff168152602001600182015481526020016002820154815260200160038201548152602001600482015481526020016005820154815260200160068201548152602001600782015481526020016008820154815260200160098201548152602001600a8201548152602001600b8201548152602001600c8201548152602001600d820160009054906101000a900473ffffffffffffffffffffffffffffffffffffffff1673ffffffffffffffffffffffffffffffffffffffff1673ffffffffffffffffffffffffffffffffffffffff16815250509050919050565b6000806000806000866102000151905060008173ffffffffffffffffffffffffffffffffffffffff16631f21f9af6040518163ffffffff1660e01b8152600401602060405180830381865afa158015610979573d6000803e3d6000fd5b505050506040513d601f19601f8201168201806040525081019061099d9190614650565b905060006001808111156109b4576109b3613a86565b5b896020015160018111156109cb576109ca613a86565b5b146109d75760016109f9565b7fffffffffffffffffffffffffffffffffffffffffffffffffffffffffffffffff5b610a078a6101400151612fba565b610a1191906146ac565b600460008b610200015173ffffffffffffffffffffffffffffffffffffffff1673ffffffffffffffffffffffffffffffffffffffff16815260200190815260200160002054610a6091906147c3565b90506000610b27838b60e001518673ffffffffffffffffffffffffffffffffffffffff16630f9026186040518163ffffffff1660e01b8152600401602060405180830381865afa158015610ab8573d6000803e3d6000fd5b505050506040513d601f19601f82011682018060405250810190610adc919061486c565b600460008f610200015173ffffffffffffffffffffffffffffffffffffffff1673ffffffffffffffffffffffffffffffffffffffff16815260200190815260200160002054866111ca565b8097508193508298505050508815610b4557858a6101800181815250505b8973__OptionLib_____________________________638399d60c909188848773ffffffffffffffffffffffffffffffffffffffff1663a7292ea46040518163ffffffff1660e01b8152600401602060405180830381865afa158015610baf573d6000803e3d6000fd5b505050506040513d601f19601f82011682018060405250810190610bd3919061486c565b6040518563ffffffff1660e01b8152600401610bf29493929190614a52565b602060405180830381865af4158015610c0f573d6000803e3d6000fd5b505050506040513d601f19601f82011682018060405250810190610c33919061486c565b97508973__OptionLib_____________________________63efa572899091886040518363ffffffff1660e01b8152600401610c70929190614a9b565b602060405180830381865af4158015610c8d573d6000803e3d6000fd5b505050506040513d601f19601f82011682018060405250810190610cb1919061486c565b96505050505092959194509250565b6000806000838152602001908152602001600020600101549050919050565b7f10b261d3bc7a74f38949f9212b0336103474898eda034c06ae0a3e478dc0e4a5610d0981613027565b600060018481548110610d1f57610d1e61460c565b5b90600052602060002090600e02019050428160030181905550806004015442610d489190614ac6565b816005018190555060018160000160026101000a81548160ff02191690836003811115610d7857610d77613a86565b5b0217905550600081600d0160009054906101000a900473ffffffffffffffffffffffffffffffffffffffff1690508173__OptionLib_____________________________63bf38721c90916040518263ffffffff1660e01b8152600401610ddf9190614b23565b602060405180830381865af4158015610dfc573d6000803e3d6000fd5b505050506040513d601f19601f82011682018060405250810190610e209190614b53565b600460008373ffffffffffffffffffffffffffffffffffffffff1673ffffffffffffffffffffffffffffffffffffffff1681526020019081526020016000206000828254610e6e91906147c3565b925050819055508173__OptionLib_____________________________631b4fb86990916040518263ffffffff1660e01b8152600401610eae9190614b23565b602060405180830381865af4158015610ecb573d6000803e3d6000fd5b505050506040513d601f19601f82011682018060405250810190610eef919061486c565b600560008373ffffffffffffffffffffffffffffffffffffffff1673ffffffffffffffffffffffffffffffffffffffff1681526020019081526020016000206000828254610f3d9190614ac6565b925050819055508173__OptionLib_____________________________632e5cf0a790916040518263ffffffff1660e01b8152600401610f7d9190614b23565b602060405180830381865af4158015610f9a573d6000803e3d6000fd5b505050506040513d601f19601f82011682018060405250810190610fbe919061486c565b600660008373ffffffffffffffffffffffffffffffffffffffff1673ffffffffffffffffffffffffffffffffffffffff168152602001908152602001600020600082825461100c9190614ac6565b925050819055508173__OptionLib_____________________________6304a65c3e90916040518263ffffffff1660e01b815260040161104c9190614b23565b602060405180830381865af4158015611069573d6000803e3d6000fd5b505050506040513d601f19601f8201168201806040525081019061108d919061486c565b600760008373ffffffffffffffffffffffffffffffffffffffff1673ffffffffffffffffffffffffffffffffffffffff16815260200190815260200160002060008282546110db9190614ac6565b9250508190555061117085600260008473ffffffffffffffffffffffffffffffffffffffff1673ffffffffffffffffffffffffffffffffffffffff16815260200190815260200160002060008773ffffffffffffffffffffffffffffffffffffffff1673ffffffffffffffffffffffffffffffffffffffff16815260200190815260200160002061303b90919063ffffffff16565b506111c285600360008473ffffffffffffffffffffffffffffffffffffffff1673ffffffffffffffffffffffffffffffffffffffff16815260200190815260200160002061303b90919063ffffffff16565b505050505050565b6000806000808873ffffffffffffffffffffffffffffffffffffffff1663c0a16f6a6040518163ffffffff1660e01b8152600401602060405180830381865afa15801561121b573d6000803e3d6000fd5b505050506040513d601f19601f8201168201806040525081019061123f9190614bbe565b90508073ffffffffffffffffffffffffffffffffffffffff1663b0667cf86040518163ffffffff1660e01b8152600401602060405180830381865afa15801561128c573d6000803e3d6000fd5b505050506040513d601f19601f820116820180604052508101906112b0919061486c565b9350600073__MarketLib_____________________________63e74207d68b876040518363ffffffff1660e01b81526004016112ed929190614c0c565b602060405180830381865af415801561130a573d6000803e3d6000fd5b505050506040513d601f19601f8201168201806040525081019061132e919061486c565b73__MathLib_______________________________63de7f61709091876040518363ffffffff1660e01b8152600401611368929190614c35565b602060405180830381865af4158015611385573d6000803e3d6000fd5b505050506040513d601f19601f820116820180604052508101906113a9919061486c565b905073__MarketLib_____________________________637bc7ed788289898673ffffffffffffffffffffffffffffffffffffffff1663cfc2dc208f6040518263ffffffff1660e01b81526004016114019190613a12565b602060405180830381865afa15801561141e573d6000803e3d6000fd5b505050506040513d601f19601f82011682018060405250810190611442919061486c565b8d6040518663ffffffff1660e01b8152600401611463959493929190614c6d565b602060405180830381865af4158015611480573d6000803e3d6000fd5b505050506040513d601f19601f820116820180604052508101906114a4919061486c565b93508373__MathLib_______________________________63fed4a0f390918473ffffffffffffffffffffffffffffffffffffffff1663430417f78d6040518263ffffffff1660e01b81526004016114fc9190613a12565b602060405180830381865afa158015611519573d6000803e3d6000fd5b505050506040513d601f19601f8201168201806040525081019061153d919061486c565b6040518363ffffffff1660e01b815260040161155a929190614c35565b602060405180830381865af4158015611577573d6000803e3d6000fd5b505050506040513d601f19601f8201168201806040525081019061159b919061486c565b92505050955095509592505050565b6115b382610cc0565b6115bc81613027565b6115c68383613055565b505050565b6115d3613135565b73ffffffffffffffffffffffffffffffffffffffff168173ffffffffffffffffffffffffffffffffffffffff1614611640576040517f08c379a000000000000000000000000000000000000000000000000000000000815260040161163790614d43565b60405180910390fd5b61164a828261313d565b5050565b600080611698600360008573ffffffffffffffffffffffffffffffffffffffff1673ffffffffffffffffffffffffffffffffffffffff168152602001908152602001600020612fa5565b905060005b818110156117b75760006116f882600360008873ffffffffffffffffffffffffffffffffffffffff1673ffffffffffffffffffffffffffffffffffffffff16815260200190815260200160002061321e90919063ffffffff16565b90506001818154811061170e5761170d61460c565b5b90600052602060002090600e020173__OptionLib_____________________________63febf205490916040518263ffffffff1660e01b81526004016117549190614b23565b602060405180830381865af4158015611771573d6000803e3d6000fd5b505050506040513d601f19601f820116820180604052508101906117959190614d78565b156117a357809350506117b7565b5080806117af90614da5565b91505061169d565b5050919050565b6000808473ffffffffffffffffffffffffffffffffffffffff16631f21f9af6040518163ffffffff1660e01b8152600401602060405180830381865afa15801561180c573d6000803e3d6000fd5b505050506040513d601f19601f820116820180604052508101906118309190614650565b905060008173ffffffffffffffffffffffffffffffffffffffff1663c0a16f6a6040518163ffffffff1660e01b8152600401602060405180830381865afa15801561187f573d6000803e3d6000fd5b505050506040513d601f19601f820116820180604052508101906118a39190614bbe565b905060008173ffffffffffffffffffffffffffffffffffffffff1663b0667cf86040518163ffffffff1660e01b8152600401602060405180830381865afa1580156118f2573d6000803e3d6000fd5b505050506040513d601f19601f82011682018060405250810190611916919061486c565b9050600073__MarketLib_____________________________63e74207d685846040518363ffffffff1660e01b8152600401611953929190614c0c565b602060405180830381865af4158015611970573d6000803e3d6000fd5b505050506040513d601f19601f82011682018060405250810190611994919061486c565b905060008890508715611b0b576000611a2b600660008473ffffffffffffffffffffffffffffffffffffffff1673ffffffffffffffffffffffffffffffffffffffff16815260200190815260200160002054600760008573ffffffffffffffffffffffffffffffffffffffff1673ffffffffffffffffffffffffffffffffffffffff16815260200190815260200160002054613238565b73__MathLib_______________________________63fed4a0f39091866040518363ffffffff1660e01b8152600401611a65929190614c35565b602060405180830381865af4158015611a82573d6000803e3d6000fd5b505050506040513d601f19601f82011682018060405250810190611aa6919061486c565b9050611afc600560008473ffffffffffffffffffffffffffffffffffffffff1673ffffffffffffffffffffffffffffffffffffffff1681526020019081526020016000205482611af69190614ac6565b84613252565b83611b079190614ded565b9250505b8615611c345760008973ffffffffffffffffffffffffffffffffffffffff166318160ddd6040518163ffffffff1660e01b8152600401602060405180830381865afa158015611b5e573d6000803e3d6000fd5b505050506040513d601f19601f82011682018060405250810190611b82919061486c565b90506000811115611c10578273__MathLib_______________________________63de7f61709091836040518363ffffffff1660e01b8152600401611bc8929190614c35565b602060405180830381865af4158015611be5573d6000803e3d6000fd5b505050506040513d601f19601f82011682018060405250810190611c09919061486c565b9250611c32565b600081148015611c205750600083145b15611c3157670de0b6b3a764000092505b5b505b81955050505050509392505050565b7f10b261d3bc7a74f38949f9212b0336103474898eda034c06ae0a3e478dc0e4a5611c6d81613027565b600060018381548110611c8357611c8261460c565b5b90600052602060002090600e02019050600081600d0160009054906101000a900473ffffffffffffffffffffffffffffffffffffffff16905060008260000160039054906101000a900473ffffffffffffffffffffffffffffffffffffffff169050611d3685600360008573ffffffffffffffffffffffffffffffffffffffff1673ffffffffffffffffffffffffffffffffffffffff16815260200190815260200160002061326b90919063ffffffff16565b50611dc585600260008573ffffffffffffffffffffffffffffffffffffffff1673ffffffffffffffffffffffffffffffffffffffff16815260200190815260200160002060008473ffffffffffffffffffffffffffffffffffffffff1673ffffffffffffffffffffffffffffffffffffffff16815260200190815260200160002061326b90919063ffffffff16565b508273__OptionLib_____________________________63bf38721c90916040518263ffffffff1660e01b8152600401611dff9190614b23565b602060405180830381865af4158015611e1c573d6000803e3d6000fd5b505050506040513d601f19601f82011682018060405250810190611e409190614b53565b600460008473ffffffffffffffffffffffffffffffffffffffff1673ffffffffffffffffffffffffffffffffffffffff1681526020019081526020016000206000828254611e8e9190614e21565b92505081905550611f57600660008473ffffffffffffffffffffffffffffffffffffffff1673ffffffffffffffffffffffffffffffffffffffff168152602001908152602001600020548473__OptionLib_____________________________632e5cf0a790916040518263ffffffff1660e01b8152600401611f119190614b23565b602060405180830381865af4158015611f2e573d6000803e3d6000fd5b505050506040513d601f19601f82011682018060405250810190611f52919061486c565b613252565b600660008473ffffffffffffffffffffffffffffffffffffffff1673ffffffffffffffffffffffffffffffffffffffff1681526020019081526020016000206000828254611fa59190614ded565b9250508190555061206e600760008473ffffffffffffffffffffffffffffffffffffffff1673ffffffffffffffffffffffffffffffffffffffff168152602001908152602001600020548473__OptionLib_____________________________6304a65c3e90916040518263ffffffff1660e01b81526004016120289190614b23565b602060405180830381865af4158015612045573d6000803e3d6000fd5b505050506040513d601f19601f82011682018060405250810190612069919061486c565b613252565b600760008473ffffffffffffffffffffffffffffffffffffffff1673ffffffffffffffffffffffffffffffffffffffff16815260200190815260200160002060008282546120bc9190614ded565b92505081905550612185600560008473ffffffffffffffffffffffffffffffffffffffff1673ffffffffffffffffffffffffffffffffffffffff168152602001908152602001600020548473__OptionLib_____________________________631b4fb86990916040518263ffffffff1660e01b815260040161213f9190614b23565b602060405180830381865af415801561215c573d6000803e3d6000fd5b505050506040513d601f19601f82011682018060405250810190612180919061486c565b613252565b600560008473ffffffffffffffffffffffffffffffffffffffff1673ffffffffffffffffffffffffffffffffffffffff16815260200190815260200160002060008282546121d39190614ded565b9250508190555060038360000160026101000a81548160ff0219169083600381111561220257612201613a86565b5b02179055504283600601819055505050505050565b60076020528060005260406000206000915090505481565b60066020528060005260406000206000915090505481565b60606122cd600260008573ffffffffffffffffffffffffffffffffffffffff1673ffffffffffffffffffffffffffffffffffffffff16815260200190815260200160002060008473ffffffffffffffffffffffffffffffffffffffff1673ffffffffffffffffffffffffffffffffffffffff168152602001908152602001600020613285565b905092915050565b60046020528060005260406000206000915090505481565b600080600080600185815481106123075761230661460c565b5b90600052602060002090600e0201600d0160009054906101000a900473ffffffffffffffffffffffffffffffffffffffff16905060008173ffffffffffffffffffffffffffffffffffffffff16631f21f9af6040518163ffffffff1660e01b8152600401602060405180830381865afa158015612388573d6000803e3d6000fd5b505050506040513d601f19601f820116820180604052508101906123ac9190614650565b73ffffffffffffffffffffffffffffffffffffffff1663c0a16f6a6040518163ffffffff1660e01b8152600401602060405180830381865afa1580156123f6573d6000803e3d6000fd5b505050506040513d601f19601f8201168201806040525081019061241a9190614bbe565b9050600186815481106124305761242f61460c565b5b90600052602060002090600e020173__OptionLib_____________________________63357aa1df90918373ffffffffffffffffffffffffffffffffffffffff1663b0667cf86040518163ffffffff1660e01b8152600401602060405180830381865afa1580156124a5573d6000803e3d6000fd5b505050506040513d601f19601f820116820180604052508101906124c9919061486c565b6040518363ffffffff1660e01b81526004016124e6929190614eb5565b606060405180830381865af4158015612503573d6000803e3d6000fd5b505050506040513d601f19601f820116820180604052508101906125279190614ede565b94509450945050509193909250565b600080600084815260200190815260200160002060000160008373ffffffffffffffffffffffffffffffffffffffff1673ffffffffffffffffffffffffffffffffffffffff16815260200190815260200160002060009054906101000a900460ff16905092915050565b60056020528060005260406000206000915090505481565b600080612602600360008573ffffffffffffffffffffffffffffffffffffffff1673ffffffffffffffffffffffffffffffffffffffff168152602001908152602001600020612fa5565b905060005b8181101561271b57600161266282600360008873ffffffffffffffffffffffffffffffffffffffff1673ffffffffffffffffffffffffffffffffffffffff16815260200190815260200160002061321e90919063ffffffff16565b815481106126735761267261460c565b5b90600052602060002090600e020173__OptionLib_____________________________63febf205490916040518263ffffffff1660e01b81526004016126b99190614b23565b602060405180830381865af41580156126d6573d6000803e3d6000fd5b505050506040513d601f19601f820116820180604052508101906126fa9190614d78565b15612708576001925061271b565b808061271390614da5565b915050612607565b5050919050565b6000801b81565b7f10b261d3bc7a74f38949f9212b0336103474898eda034c06ae0a3e478dc0e4a581565b60007f10b261d3bc7a74f38949f9212b0336103474898eda034c06ae0a3e478dc0e4a561277981613027565b60008760e00151116127c0576040517f08c379a00000000000000000000000000000000000000000000000000000000081526004016127b790614f7d565b60405180910390fd5b60018054905091506001604051806102200160405280896000015160018111156127ed576127ec613a86565b5b81526020018960200151600181111561280957612808613a86565b5b81526020016000600381111561282257612821613a86565b5b8152602001896060015173ffffffffffffffffffffffffffffffffffffffff168152602001848152602001428152602001600081526020018960e00151815260200160008152602001600081526020018961014001518152602001868152602001896101800151815260200185815260200188815260200187815260200189610200015173ffffffffffffffffffffffffffffffffffffffff1681525090806001815401808255809150506001900390600052602060002090600e020160009091909190915060008201518160000160006101000a81548160ff0219169083600181111561291357612912613a86565b5b021790555060208201518160000160016101000a81548160ff0219169083600181111561294357612942613a86565b5b021790555060408201518160000160026101000a81548160ff0219169083600381111561297357612972613a86565b5b021790555060608201518160000160036101000a81548173ffffffffffffffffffffffffffffffffffffffff021916908373ffffffffffffffffffffffffffffffffffffffff1602179055506080820151816001015560a0820151816002015560c0820151816003015560e08201518160040155610100820151816005015561012082015181600601556101408201518160070155610160820151816008015561018082015181600901556101a082015181600a01556101c082015181600b01556101e082015181600c015561020082015181600d0160006101000a81548173ffffffffffffffffffffffffffffffffffffffff021916908373ffffffffffffffffffffffffffffffffffffffff16021790555050505095945050505050565b612a9c82610cc0565b612aa581613027565b612aaf838361313d565b505050565b600080612ac0856106ba565b905060008573ffffffffffffffffffffffffffffffffffffffff16631f21f9af6040518163ffffffff1660e01b8152600401602060405180830381865afa158015612b0f573d6000803e3d6000fd5b505050506040513d601f19601f82011682018060405250810190612b339190614650565b905060008173ffffffffffffffffffffffffffffffffffffffff1663c0a16f6a6040518163ffffffff1660e01b8152600401602060405180830381865afa158015612b82573d6000803e3d6000fd5b505050506040513d601f19601f82011682018060405250810190612ba69190614bbe565b905060005b83811015612dc85760006001612c0883600360008d73ffffffffffffffffffffffffffffffffffffffff1673ffffffffffffffffffffffffffffffffffffffff16815260200190815260200160002061321e90919063ffffffff16565b81548110612c1957612c1861460c565b5b90600052602060002090600e0201905060008173__OptionLib_____________________________633476369290916040518263ffffffff1660e01b8152600401612c649190614b23565b602060405180830381865af4158015612c81573d6000803e3d6000fd5b505050506040513d601f19601f82011682018060405250810190612ca5919061486c565b905060008473ffffffffffffffffffffffffffffffffffffffff1663cfc2dc20836040518263ffffffff1660e01b8152600401612ce29190613a12565b602060405180830381865afa158015612cff573d6000803e3d6000fd5b505050506040513d601f19601f82011682018060405250810190612d23919061486c565b90508273__OptionLib_____________________________63334fe90d90918c848d6040518563ffffffff1660e01b8152600401612d649493929190614fac565b602060405180830381865af4158015612d81573d6000803e3d6000fd5b505050506040513d601f19601f82011682018060405250810190612da59190614b53565b88612db091906147c3565b97505050508080612dc090614da5565b915050612bab565b505050509392505050565b6060612e1c600360008473ffffffffffffffffffffffffffffffffffffffff1673ffffffffffffffffffffffffffffffffffffffff168152602001908152602001600020613285565b9050919050565b6000806000806001805490508510612e3a57600080fd5b60018581548110612e4e57612e4d61460c565b5b90600052602060002090600e020160000160029054906101000a900460ff1660018681548110612e8157612e8061460c565b5b90600052602060002090600e020160000160019054906101000a900460ff1660018781548110612eb457612eb361460c565b5b90600052602060002090600e020160000160039054906101000a900473ffffffffffffffffffffffffffffffffffffffff1660018881548110612efa57612ef961460c565b5b90600052602060002090600e0201600d0160009054906101000a900473ffffffffffffffffffffffffffffffffffffffff1693509350935093509193509193565b60007f01ffc9a7000000000000000000000000000000000000000000000000000000007bffffffffffffffffffffffffffffffffffffffffffffffffffffffff1916827bffffffffffffffffffffffffffffffffffffffffffffffffffffffff1916149050919050565b6000612fb3826000016132a6565b9050919050565b60007f7fffffffffffffffffffffffffffffffffffffffffffffffffffffffffffffff82111561301f576040517f08c379a000000000000000000000000000000000000000000000000000000000815260040161301690615063565b60405180910390fd5b819050919050565b61303881613033613135565b6132b7565b50565b600061304d836000018360001b613354565b905092915050565b61305f8282612536565b61313157600160008084815260200190815260200160002060000160008373ffffffffffffffffffffffffffffffffffffffff1673ffffffffffffffffffffffffffffffffffffffff16815260200190815260200160002060006101000a81548160ff0219169083151502179055506130d6613135565b73ffffffffffffffffffffffffffffffffffffffff168173ffffffffffffffffffffffffffffffffffffffff16837f2f8788117e7eff1d82e926ec794901d17c78024a50270940304540a733656f0d60405160405180910390a45b5050565b600033905090565b6131478282612536565b1561321a57600080600084815260200190815260200160002060000160008373ffffffffffffffffffffffffffffffffffffffff1673ffffffffffffffffffffffffffffffffffffffff16815260200190815260200160002060006101000a81548160ff0219169083151502179055506131bf613135565b73ffffffffffffffffffffffffffffffffffffffff168173ffffffffffffffffffffffffffffffffffffffff16837ff6391f5c32d9c69d2a47ea670b442974b53935d1edc7fd64eb21e047a839171b60405160405180910390a45b5050565b600061322d83600001836133c4565b60001c905092915050565b600081831015613248578161324a565b825b905092915050565b60008183106132615781613263565b825b905092915050565b600061327d836000018360001b6133ef565b905092915050565b6060600061329583600001613503565b905060608190508092505050919050565b600081600001805490509050919050565b6132c18282612536565b613350576132e68173ffffffffffffffffffffffffffffffffffffffff16601461355f565b6132f48360001c602061355f565b604051602001613305929190615195565b6040516020818303038152906040526040517f08c379a00000000000000000000000000000000000000000000000000000000081526004016133479190615208565b60405180910390fd5b5050565b6000613360838361379b565b6133b95782600001829080600181540180825580915050600190039060005260206000200160009091909190915055826000018054905083600101600084815260200190815260200160002081905550600190506133be565b600090505b92915050565b60008260000182815481106133dc576133db61460c565b5b9060005260206000200154905092915050565b600080836001016000848152602001908152602001600020549050600081146134f75760006001826134219190614ded565b90506000600186600001805490506134399190614ded565b90508181146134a857600086600001828154811061345a5761345961460c565b5b906000526020600020015490508087600001848154811061347e5761347d61460c565b5b90600052602060002001819055508387600101600083815260200190815260200160002081905550505b856000018054806134bc576134bb61522a565b5b6001900381819060005260206000200160009055905585600101600086815260200190815260200160002060009055600193505050506134fd565b60009150505b92915050565b60608160000180548060200260200160405190810160405280929190818152602001828054801561355357602002820191906000526020600020905b81548152602001906001019080831161353f575b50505050509050919050565b6060600060028360026135729190615259565b61357c9190614ac6565b67ffffffffffffffff81111561359557613594613d3c565b5b6040519080825280601f01601f1916602001820160405280156135c75781602001600182028036833780820191505090505b5090507f3000000000000000000000000000000000000000000000000000000000000000816000815181106135ff576135fe61460c565b5b60200101907effffffffffffffffffffffffffffffffffffffffffffffffffffffffffffff1916908160001a9053507f7800000000000000000000000000000000000000000000000000000000000000816001815181106136635761366261460c565b5b60200101907effffffffffffffffffffffffffffffffffffffffffffffffffffffffffffff1916908160001a905350600060018460026136a39190615259565b6136ad9190614ac6565b90505b600181111561374d577f3031323334353637383961626364656600000000000000000000000000000000600f8616601081106136ef576136ee61460c565b5b1a60f81b8282815181106137065761370561460c565b5b60200101907effffffffffffffffffffffffffffffffffffffffffffffffffffffffffffff1916908160001a905350600485901c945080613746906152b3565b90506136b0565b5060008414613791576040517f08c379a000000000000000000000000000000000000000000000000000000000815260040161378890615328565b60405180910390fd5b8091505092915050565b600080836001016000848152602001908152602001600020541415905092915050565b604051806102200160405280600060018111156137de576137dd613a86565b5b8152602001600060018111156137f7576137f6613a86565b5b8152602001600060038111156138105761380f613a86565b5b8152602001600073ffffffffffffffffffffffffffffffffffffffff168152602001600081526020016000815260200160008152602001600081526020016000815260200160008152602001600081526020016000815260200160008152602001600081526020016000815260200160008152602001600073ffffffffffffffffffffffffffffffffffffffff1681525090565b6000604051905090565b600080fd5b60007fffffffff0000000000000000000000000000000000000000000000000000000082169050919050565b6138e8816138b3565b81146138f357600080fd5b50565b600081359050613905816138df565b92915050565b600060208284031215613921576139206138ae565b5b600061392f848285016138f6565b91505092915050565b60008115159050919050565b61394d81613938565b82525050565b60006020820190506139686000830184613944565b92915050565b600073ffffffffffffffffffffffffffffffffffffffff82169050919050565b60006139998261396e565b9050919050565b6139a98161398e565b81146139b457600080fd5b50565b6000813590506139c6816139a0565b92915050565b6000602082840312156139e2576139e16138ae565b5b60006139f0848285016139b7565b91505092915050565b6000819050919050565b613a0c816139f9565b82525050565b6000602082019050613a276000830184613a03565b92915050565b613a36816139f9565b8114613a4157600080fd5b50565b600081359050613a5381613a2d565b92915050565b600060208284031215613a6f57613a6e6138ae565b5b6000613a7d84828501613a44565b91505092915050565b7f4e487b7100000000000000000000000000000000000000000000000000000000600052602160045260246000fd5b60028110613ac657613ac5613a86565b5b50565b6000819050613ad782613ab5565b919050565b6000613ae782613ac9565b9050919050565b613af781613adc565b82525050565b60028110613b0e57613b0d613a86565b5b50565b6000819050613b1f82613afd565b919050565b6000613b2f82613b11565b9050919050565b613b3f81613b24565b82525050565b60048110613b5657613b55613a86565b5b50565b6000819050613b6782613b45565b919050565b6000613b7782613b59565b9050919050565b613b8781613b6c565b82525050565b613b968161398e565b82525050565b613ba5816139f9565b82525050565b61022082016000820151613bc26000850182613aee565b506020820151613bd56020850182613b36565b506040820151613be86040850182613b7e565b506060820151613bfb6060850182613b8d565b506080820151613c0e6080850182613b9c565b5060a0820151613c2160a0850182613b9c565b5060c0820151613c3460c0850182613b9c565b5060e0820151613c4760e0850182613b9c565b50610100820151613c5c610100850182613b9c565b50610120820151613c71610120850182613b9c565b50610140820151613c86610140850182613b9c565b50610160820151613c9b610160850182613b9c565b50610180820151613cb0610180850182613b9c565b506101a0820151613cc56101a0850182613b9c565b506101c0820151613cda6101c0850182613b9c565b506101e0820151613cef6101e0850182613b9c565b50610200820151613d04610200850182613b8d565b50505050565b600061022082019050613d206000830184613bab565b92915050565b600080fd5b6000601f19601f8301169050919050565b7f4e487b7100000000000000000000000000000000000000000000000000000000600052604160045260246000fd5b613d7482613d2b565b810181811067ffffffffffffffff82111715613d9357613d92613d3c565b5b80604052505050565b6000613da66138a4565b9050613db28282613d6b565b919050565b60028110613dc457600080fd5b50565b600081359050613dd681613db7565b92915050565b60028110613de957600080fd5b50565b600081359050613dfb81613ddc565b92915050565b60048110613e0e57600080fd5b50565b600081359050613e2081613e01565b92915050565b60006102208284031215613e3d57613e3c613d26565b5b613e48610220613d9c565b90506000613e5884828501613dc7565b6000830152506020613e6c84828501613dec565b6020830152506040613e8084828501613e11565b6040830152506060613e94848285016139b7565b6060830152506080613ea884828501613a44565b60808301525060a0613ebc84828501613a44565b60a08301525060c0613ed084828501613a44565b60c08301525060e0613ee484828501613a44565b60e083015250610100613ef984828501613a44565b61010083015250610120613f0f84828501613a44565b61012083015250610140613f2584828501613a44565b61014083015250610160613f3b84828501613a44565b61016083015250610180613f5184828501613a44565b610180830152506101a0613f6784828501613a44565b6101a0830152506101c0613f7d84828501613a44565b6101c0830152506101e0613f9384828501613a44565b6101e083015250610200613fa9848285016139b7565b6102008301525092915050565b613fbf81613938565b8114613fca57600080fd5b50565b600081359050613fdc81613fb6565b92915050565b6000806102408385031215613ffa57613ff96138ae565b5b600061400885828601613e26565b92505061022061401a85828601613fcd565b9150509250929050565b60006080820190506140396000830187613a03565b6140466020830186613a03565b6140536040830185613a03565b6140606060830184613a03565b95945050505050565b6000819050919050565b61407c81614069565b811461408757600080fd5b50565b60008135905061409981614073565b92915050565b6000602082840312156140b5576140b46138ae565b5b60006140c38482850161408a565b91505092915050565b6140d581614069565b82525050565b60006020820190506140f060008301846140cc565b92915050565b6000806040838503121561410d5761410c6138ae565b5b600061411b85828601613a44565b925050602061412c858286016139b7565b9150509250929050565b60006141418261398e565b9050919050565b61415181614136565b811461415c57600080fd5b50565b60008135905061416e81614148565b92915050565b6000819050919050565b61418781614174565b811461419257600080fd5b50565b6000813590506141a48161417e565b92915050565b600080600080600060a086880312156141c6576141c56138ae565b5b60006141d48882890161415f565b95505060206141e588828901613a44565b94505060406141f688828901613a44565b935050606061420788828901614195565b925050608061421888828901614195565b9150509295509295909350565b600060608201905061423a6000830186613a03565b6142476020830185613a03565b6142546040830184613a03565b949350505050565b60008060408385031215614273576142726138ae565b5b60006142818582860161408a565b9250506020614292858286016139b7565b9150509250929050565b60006142a78261398e565b9050919050565b6142b78161429c565b81146142c257600080fd5b50565b6000813590506142d4816142ae565b92915050565b6000806000606084860312156142f3576142f26138ae565b5b6000614301868287016142c5565b935050602061431286828701613fcd565b925050604061432386828701613fcd565b9150509250925092565b60008060408385031215614344576143436138ae565b5b6000614352858286016139b7565b9250506020614363858286016139b7565b9150509250929050565b600081519050919050565b600082825260208201905092915050565b6000819050602082019050919050565b60006143a58383613b9c565b60208301905092915050565b6000602082019050919050565b60006143c98261436d565b6143d38185614378565b93506143de83614389565b8060005b8381101561440f5781516143f68882614399565b9750614401836143b1565b9250506001810190506143e2565b5085935050505092915050565b6000602082019050818103600083015261443681846143be565b905092915050565b61444781614174565b82525050565b6000602082019050614462600083018461443e565b92915050565b60008060008060006102a08688031215614485576144846138ae565b5b600061449388828901613e26565b9550506102206144a588828901613a44565b9450506102406144b788828901613a44565b9350506102606144c988828901613a44565b9250506102806144db88828901613a44565b9150509295509295909350565b600080600060608486031215614501576145006138ae565b5b600061450f868287016139b7565b935050602061452086828701613a44565b925050604061453186828701613fcd565b9150509250925092565b61454481613b6c565b82525050565b61455381613b24565b82525050565b6145628161398e565b82525050565b6000819050919050565b600061458d6145886145838461396e565b614568565b61396e565b9050919050565b600061459f82614572565b9050919050565b60006145b182614594565b9050919050565b6145c1816145a6565b82525050565b60006080820190506145dc600083018761453b565b6145e9602083018661454a565b6145f66040830185614559565b61460360608301846145b8565b95945050505050565b7f4e487b7100000000000000000000000000000000000000000000000000000000600052603260045260246000fd5b60008151905061464a81614148565b92915050565b600060208284031215614666576146656138ae565b5b60006146748482850161463b565b91505092915050565b7f4e487b7100000000000000000000000000000000000000000000000000000000600052601160045260246000fd5b60006146b782614174565b91506146c283614174565b9250827f7fffffffffffffffffffffffffffffffffffffffffffffffffffffffffffffff04821160008413600084131616156147015761470061467d565b5b817f8000000000000000000000000000000000000000000000000000000000000000058312600084126000841316161561473e5761473d61467d565b5b827f8000000000000000000000000000000000000000000000000000000000000000058212600084136000841216161561477b5761477a61467d565b5b827f7fffffffffffffffffffffffffffffffffffffffffffffffffffffffffffffff05821260008412600084121616156147b8576147b761467d565b5b828202905092915050565b60006147ce82614174565b91506147d983614174565b9250817f7fffffffffffffffffffffffffffffffffffffffffffffffffffffffffffffff038313600083121516156148145761481361467d565b5b817f800000000000000000000000000000000000000000000000000000000000000003831260008312161561484c5761484b61467d565b5b828201905092915050565b60008151905061486681613a2d565b92915050565b600060208284031215614882576148816138ae565b5b600061489084828501614857565b91505092915050565b6148a281613adc565b82525050565b6148b181613b24565b82525050565b6148c081613b6c565b82525050565b6148cf8161398e565b82525050565b6148de816139f9565b82525050565b610220820160008201516148fb6000850182614899565b50602082015161490e60208501826148a8565b50604082015161492160408501826148b7565b50606082015161493460608501826148c6565b50608082015161494760808501826148d5565b5060a082015161495a60a08501826148d5565b5060c082015161496d60c08501826148d5565b5060e082015161498060e08501826148d5565b506101008201516149956101008501826148d5565b506101208201516149aa6101208501826148d5565b506101408201516149bf6101408501826148d5565b506101608201516149d46101608501826148d5565b506101808201516149e96101808501826148d5565b506101a08201516149fe6101a08501826148d5565b506101c0820151614a136101c08501826148d5565b506101e0820151614a286101e08501826148d5565b50610200820151614a3d6102008501826148c6565b50505050565b614a4c816139f9565b82525050565b600061028082019050614a6860008301876148e4565b614a76610220830186614a43565b614a84610240830185614a43565b614a92610260830184614a43565b95945050505050565b600061024082019050614ab160008301856148e4565b614abf610220830184614a43565b9392505050565b6000614ad1826139f9565b9150614adc836139f9565b9250827fffffffffffffffffffffffffffffffffffffffffffffffffffffffffffffffff03821115614b1157614b1061467d565b5b828201905092915050565b8082525050565b6000602082019050614b386000830184614b1c565b92915050565b600081519050614b4d8161417e565b92915050565b600060208284031215614b6957614b686138ae565b5b6000614b7784828501614b3e565b91505092915050565b6000614b8b8261398e565b9050919050565b614b9b81614b80565b8114614ba657600080fd5b50565b600081519050614bb881614b92565b92915050565b600060208284031215614bd457614bd36138ae565b5b6000614be284828501614ba9565b91505092915050565b6000614bf682614594565b9050919050565b614c0681614beb565b82525050565b6000604082019050614c216000830185614bfd565b614c2e6020830184614a43565b9392505050565b6000604082019050614c4a6000830185614a43565b614c576020830184614a43565b9392505050565b614c6781614174565b82525050565b600060a082019050614c826000830188614a43565b614c8f6020830187614c5e565b614c9c6040830186614c5e565b614ca96060830185614a43565b614cb66080830184614a43565b9695505050505050565b600082825260208201905092915050565b7f416363657373436f6e74726f6c3a2063616e206f6e6c792072656e6f756e636560008201527f20726f6c657320666f722073656c660000000000000000000000000000000000602082015250565b6000614d2d602f83614cc0565b9150614d3882614cd1565b604082019050919050565b60006020820190508181036000830152614d5c81614d20565b9050919050565b600081519050614d7281613fb6565b92915050565b600060208284031215614d8e57614d8d6138ae565b5b6000614d9c84828501614d63565b91505092915050565b6000614db0826139f9565b91507fffffffffffffffffffffffffffffffffffffffffffffffffffffffffffffffff8203614de257614de161467d565b5b600182019050919050565b6000614df8826139f9565b9150614e03836139f9565b925082821015614e1657614e1561467d565b5b828203905092915050565b6000614e2c82614174565b9150614e3783614174565b9250827f800000000000000000000000000000000000000000000000000000000000000001821260008412151615614e7257614e7161467d565b5b827f7fffffffffffffffffffffffffffffffffffffffffffffffffffffffffffffff018213600084121615614eaa57614ea961467d565b5b828203905092915050565b6000604082019050614eca6000830185614b1c565b614ed76020830184614a43565b9392505050565b600080600060608486031215614ef757614ef66138ae565b5b6000614f0586828701614857565b9350506020614f1686828701614857565b9250506040614f2786828701614857565b9150509250925092565b7f5a65726f2074656e6f7200000000000000000000000000000000000000000000600082015250565b6000614f67600a83614cc0565b9150614f7282614f31565b602082019050919050565b60006020820190508181036000830152614f9681614f5a565b9050919050565b614fa681613938565b82525050565b6000608082019050614fc16000830187614b1c565b614fce6020830186614a43565b614fdb6040830185614a43565b614fe86060830184614f9d565b95945050505050565b7f53616665436173743a2076616c756520646f65736e27742066697420696e206160008201527f6e20696e74323536000000000000000000000000000000000000000000000000602082015250565b600061504d602883614cc0565b915061505882614ff1565b604082019050919050565b6000602082019050818103600083015261507c81615040565b9050919050565b600081905092915050565b7f416363657373436f6e74726f6c3a206163636f756e7420000000000000000000600082015250565b60006150c4601783615083565b91506150cf8261508e565b601782019050919050565b600081519050919050565b60005b838110156151035780820151818401526020810190506150e8565b83811115615112576000848401525b50505050565b6000615123826150da565b61512d8185615083565b935061513d8185602086016150e5565b80840191505092915050565b7f206973206d697373696e6720726f6c6520000000000000000000000000000000600082015250565b600061517f601183615083565b915061518a82615149565b601182019050919050565b60006151a0826150b7565b91506151ac8285615118565b91506151b782615172565b91506151c38284615118565b91508190509392505050565b60006151da826150da565b6151e48185614cc0565b93506151f48185602086016150e5565b6151fd81613d2b565b840191505092915050565b6000602082019050818103600083015261522281846151cf565b905092915050565b7f4e487b7100000000000000000000000000000000000000000000000000000000600052603160045260246000fd5b6000615264826139f9565b915061526f836139f9565b9250817fffffffffffffffffffffffffffffffffffffffffffffffffffffffffffffffff04831182151516156152a8576152a761467d565b5b828202905092915050565b60006152be826139f9565b9150600082036152d1576152d061467d565b5b600182039050919050565b7f537472696e67733a20686578206c656e67746820696e73756666696369656e74600082015250565b6000615312602083614cc0565b915061531d826152dc565b602082019050919050565b6000602082019050818103600083015261534181615305565b905091905056fea26469706673582212208abbd11fbf554e315d638d1a47031ec6313a97816ae686fb3632b7e945aef50864736f6c634300080f0033",
  "immutableReferences": {},
  "source": "// SPDX-License-Identifier: MIT\npragma solidity ^0.8.4;\n\nimport \"@openzeppelin/contracts/access/AccessControl.sol\";\nimport \"@openzeppelin/contracts/utils/structs/EnumerableSet.sol\";\nimport \"./libraries/MarketLib.sol\";\nimport \"./libraries/OptionLib.sol\";\nimport \"./libraries/MathLib.sol\";\nimport \"./interfaces/EOption.sol\";\nimport \"./pools/Pool.sol\";\nimport \"./pools/MarketMaker.sol\";\nimport \"./VolatilityChain.sol\";\nimport \"./VolatilityToken.sol\";\n\ncontract OptionVault is EOption, AccessControl{\n  using MathLib for uint256;\n  using MarketLib for uint256;\n  \n  using OptionLib for OptionLib.Option;\n  using EnumerableSet for EnumerableSet.UintSet;\n  using EnumerableSet for EnumerableSet.AddressSet;\n\n  bytes32 public constant EXCHANGE = keccak256(\"EXCHANGE\");\n  \n  // list of option contracts\n  OptionLib.Option[] internal aOption;\n  mapping(address=>mapping(address=> EnumerableSet.UintSet)) internal mHolderAtiveOption;\n  mapping(address=>EnumerableSet.UintSet) internal mActiveOption;\n  mapping(address=>int256) public mNetNotional;\n  mapping(address=>uint256) public mPutCollateral;\n  mapping(address=>uint256) public mDeltaAtZero;\n  mapping(address=>uint256) public mDeltaAtMax;\n\n  // immutable and constant values\n  uint256 internal constant BASE  = 1e18;\n  uint256 internal constant SCALING = 1e5;\n\n  // constructor\n  constructor(){\n    _setupRole(DEFAULT_ADMIN_ROLE, msg.sender); }\n\n  // function to add new option contracts, only executable by Exchange contract as owner\n  // arguments: tenor of option contracts (in seconds), strike (consistent with price source decimals), amount (consistent with underlying token decimals), option type (call or put), option side (buy or sell), premium (in funding token decimals), cost (in funding token decimals), price (in price source decimals), volatility (in default decimals 18), holder address\n  // return id of option contract\n  function addOption(OptionLib.Option memory _option, uint256 _premium, uint256 _collateral, uint256 _price, uint256 _vol) external onlyRole(EXCHANGE) returns(uint256 _id){\n    require(_option.tenor > 0, \"Zero tenor\");\n    _id = aOption.length;\n    // Arguments: option type, option side, contract status (default to draft), contract holder address, contract id, creation timestamp, effective timestamp (default to 0), tenor in seconds, maturity timestamp (default to 0), excersie timestamp (default to 0), amount or size of contract, current spot price, option strike, implied volatility, calculated premium and total cost including collaterals.\n    aOption.push(OptionLib.Option(_option.poType, _option.side, OptionLib.OptionStatus.Draft, _option.holder, _id, block.timestamp,  0, _option.tenor, 0,  0, _option.amount, _price, _option.strike, _vol, _premium, _collateral, _option.pool));}\n\n  // function to stamp option as an active contract, only executable by Exchange contract as owner\n  // arguments: contract id and holder address\n  function stampActiveOption(uint256 _id, address _holder) external onlyRole(EXCHANGE){\n    // update Option records\n    OptionLib.Option storage _option = aOption[_id];\n    _option.effectiveTime = block.timestamp;\n    _option.maturity = block.timestamp + _option.tenor;\n    _option.status = OptionLib.OptionStatus.Active;\n    \n    // update ownership and exposure records\n    address _poolAddress = _option.pool;\n    mNetNotional[_poolAddress] += _option.getNetNotional();\n    mPutCollateral[_poolAddress] += _option.sellPutCollateral();\n    mDeltaAtZero[_poolAddress] += _option.calcDeltaAtZero();\n    mDeltaAtMax[_poolAddress] += _option.calcDeltaAtMax();\n\n    mHolderAtiveOption[_poolAddress][_holder].add(_id);\n    mActiveOption[_poolAddress].add(_id);}\n\n  // function to stamp option as an expired contract, only executable by Exchange contract as owner\n  // arguments: contract id\n  function stampExpiredOption(uint256 _id)  external onlyRole(EXCHANGE){\n    // update Option records\n    OptionLib.Option storage _option = aOption[_id];\n    address _poolAddress = _option.pool;\n    address _holder = _option.holder;\n    mActiveOption[_poolAddress].remove(_id);\n    mHolderAtiveOption[_poolAddress][_holder].remove(_id);\n\n    mNetNotional[_poolAddress] -= _option.getNetNotional();\n    mDeltaAtZero[_poolAddress] -= Math.min(mDeltaAtZero[_poolAddress], _option.calcDeltaAtZero());\n    mDeltaAtMax[_poolAddress] -= Math.min(mDeltaAtMax[_poolAddress], _option.calcDeltaAtMax());\n    mPutCollateral[_poolAddress] -= Math.min(mPutCollateral[_poolAddress], _option.sellPutCollateral());\n   \n    _option.status = OptionLib.OptionStatus.Expired;\n    _option.exerciseTime = block.timestamp;}\n\n  // functions to get information of the option list -> ONLY USED in VIEW, gas cost unlimited\n  function getHolderOptions(address _pool, address _address) external view returns(uint256[] memory){\n    return mHolderAtiveOption[_pool][_address].values();}\n  function getOption(uint256 _id) external view returns(OptionLib.Option memory) {return aOption[_id];}\n  function getActiveOptionCount(address _poolAddress) public view returns(uint256) {return mActiveOption[_poolAddress].length();}\n  function getActiveOptions(address _poolAddress) external view returns(uint256[] memory) {return mActiveOption[_poolAddress].values();}\n\n  // function getHoldersOption(uint256 _index, address _address) external view returns(OptionLib.Option memory) {return aOption[activeOptionsPerOwner[_address].at(_index)];}\n  function getOptionInfo(uint256 _id) external view returns(OptionLib.OptionStatus, OptionLib.OptionSide, address, Pool) {\n    require(_id< aOption.length);\n    return (aOption[_id].status, aOption[_id].side, aOption[_id].holder, Pool(aOption[_id].pool));}\n\n  // functions to get the hedging inputs\n  // maximum hedges needed \n  // function getMaxHedge(Pool _pool) external view returns (uint256){\n  //   VolatilityChain _volChain = _pool.volChain();\n  //   address _poolAddress = address(_pool);\n  //   return Math.max(mDeltaAtZero[_poolAddress], mDeltaAtMax[_poolAddress]).ethmul(_volChain.queryPrice());}\n\n  // aggregate delta of all active contracts, optional including expiring contracts yet stamped as Expired. Arguments: spot price and whether to include expiring contracts\n  function calculateAggregateDelta(address _pool, uint256 _price, bool _includeExpiring) public view returns(int256 _delta){\n    _delta= 0;\n    uint256 _activeContractCount = getActiveOptionCount(_pool);\n    MarketMaker _marketMaker = Pool(_pool).marketMaker();\n    VolatilityChain _volChain = _marketMaker.getVolatilityChain();\n    for(uint256 i=0;i< _activeContractCount;i++){\n      OptionLib.Option storage _option = aOption[uint256(mActiveOption[_pool].at(i))];\n      uint256 _maturityLeft = _option.calcRemainingMaturity();\n      uint256 _vol = _volChain.queryVol(_maturityLeft);\n      _delta += _option.calcDelta(_price, _vol, _includeExpiring);}}\n  \n  // aggregate gamma. Arguments: spot price\n  // function calculateAggregateGamma(address _pool, uint256 _price) external view returns(int256 _gamma){\n  //   _gamma= 0;\n  //   for(uint256 i=0;i<activeContractCount;i++){\n  //     uint256 _id = uint256(activeOptions.at(i));\n  //     if(aOption[_id].status== OptionLib.OptionStatus.Active  && (aOption[_id].maturity > block.timestamp)){\n  //       uint256 _vol = volChain.queryVol(aOption[_id].maturity - block.timestamp);\n  //       int256 _contractGamma = SafeCast.toInt256(OptionLib.calcGamma(_price, aOption[_id].strike, _vol).ethmul(aOption[_id].amount));\n  //       if(aOption[_id].side==OptionLib.OptionSide.Sell){ _gamma -= _contractGamma;}\n  //       else{_gamma += _contractGamma;}}}}\n\n  // hypothetical gamma assuming at the money and 1-day expiry\n  // function calculateSpotGamma() external view returns(int256 _gamma){\n  //   uint256 _vol = volChain.queryVol(86400);\n  //   _gamma = SafeCast.toInt256(OptionLib.calcGamma(BASE, BASE, _vol));}\n\n  // functions used in expiring option contracts\n  // contract payoff of specified contract ID\n  function getContractPayoff(uint256 _id) external view returns(uint256 _payoff, uint256 _payback, uint256 _collateral){\n    Pool _pool = Pool(aOption[_id].pool);\n    VolatilityChain _volChain = _pool.marketMaker().getVolatilityChain();\n    return aOption[_id].calcPayoff(_volChain.queryPrice());}\n    \n  // check if any option contract is expiring\n  function anyOptionExpiring(address _poolAddress) external view returns(bool _isExpiring) {\n    _isExpiring = false;\n    uint256 _count = mActiveOption[_poolAddress].length();\n    for(uint256 i=0;i<_count;i++){\n      if(aOption[uint256(mActiveOption[_poolAddress].at(i))].isExpiring()){\n        _isExpiring = true;\n        break;}}}\n  // get the id of any expiring contract -> please only run it on view function as it has unlimited gas usage.\n  function getExpiringOptionId(address _poolAddress) external view returns(uint256 _id){\n    // uint256[] memory _id;\n    uint256 _count = mActiveOption[_poolAddress].length();\n    for(uint256 i=0;i<_count;i++){\n      uint256 _id_i = uint256(mActiveOption[_poolAddress].at(i));\n      if(aOption[_id_i].isExpiring()){\n        _id = _id_i;\n        break;}}}\n\n  // function tryATMOptionCost(Pool _pool, uint256 _tenor, uint256 _amount, OptionLib.PayoffType _poType, OptionLib.OptionSide _side) public view returns(uint256 _premium, uint256 _collateral, uint256 _price, uint256 _volatilty){\n  //   OptionLib.Option memory _option = OptionLib.Option(_poType, _side, OptionLib.OptionStatus.Draft, msg.sender, 0, block.timestamp,  0, _tenor, 0,  0, _amount, 0, 0, 0, 0, 0, address(_pool));\n  //   return calcOptionCost(_option, true);\n  // }\n\n  function calcOptionCost(OptionLib.Option memory _option, bool _forceATM) public view returns(uint256 _premium, uint256 _collateral, uint256 _price, uint256 _annualisedVol){\n    Pool _pool = Pool(_option.pool);\n    MarketMaker _market = _pool.marketMaker();\n\n    int256 _newNetNotional = mNetNotional[_option.pool] + SafeCast.toInt256(_option.amount) * (_option.side==OptionLib.OptionSide.Sell? -1: int(1));\n    uint256 _impVol; // vol * sqrt(t)\n    (_price, _impVol, _annualisedVol) = calcImpliedVol(_market, _option.tenor, _pool.volCapacityFactor(), mNetNotional[_option.pool], _newNetNotional);\n    \n    if (_forceATM){_option.strike = _price;}\n\n    _premium = _option.calcPremium(_price, _impVol, _market.loanInterest());\n    _collateral = _option.calcCollateral(_price);}\n\n  function calcImpliedVol(MarketMaker _market, uint256 _tenor, uint256 _volCapacityFactor, int256 _currentNetNotional, int256 _newNetNotional) public view returns(uint256 _price, uint256 _impVol, uint256 _annualisedVol){\n    VolatilityChain _volChain = _market.getVolatilityChain();\n    _price = _volChain.queryPrice();\n    uint256 _capitalInNotional = MarketLib.getGrossCapital(_market, _price).ethdiv(_price);\n    _impVol = MarketLib.calcRiskPremium(_capitalInNotional, _currentNetNotional, _newNetNotional, _volChain.queryVol(_tenor), _volCapacityFactor);\n    _annualisedVol = _impVol.ethmul(_volChain.getSqrtRatio(_tenor));}\n    \n  // functions related to capital calculation, addition and removals\n  // calculate capitals. Arguments: net for net capital (removing all collaterals and max exposures of option contracts) or gross (including all exposures in the underlying and funding tokens), average for average capital (total divided by number of Pool tokens) or gross (not divided by tokens)\n  function calcCapital(Pool _pool, bool _net, bool _average) external view returns(uint256){\n    MarketMaker _market = _pool.marketMaker();\n    VolatilityChain _volChain = _market.getVolatilityChain();\n    uint256 _price = _volChain.queryPrice();\n    uint256 _capital = MarketLib.getGrossCapital(_market, _price);\n    address _poolAddress = address(_pool);\n\n    if(_net){ \n      uint256 _maxHedge = Math.max(mDeltaAtZero[_poolAddress], mDeltaAtMax[_poolAddress]).ethmul(_price);\n      _capital -= Math.min(_maxHedge + mPutCollateral[_poolAddress], _capital);}\n\n    if(_average){ \n      uint256 _poolSupply = _pool.totalSupply();\n      if(_poolSupply > 0) {\n        _capital = _capital.ethdiv(_poolSupply); }\n      else if(_poolSupply == 0 && _capital == 0) {\n        _capital = BASE;}}\n    \n    return _capital;}\n}\n",
  "sourcePath": "/Users/mac/Documents/GitHub/moret/contracts/OptionVault.sol",
  "compiler": {
    "name": "solc",
    "version": "0.8.15+commit.e14f2714.Emscripten.clang"
  },
  "schemaVersion": "3.4.3",
  "updatedAt": "2022-06-28T19:41:13.717Z",
  "networkType": "ethereum",
  "devdoc": {
    "kind": "dev",
    "methods": {
      "getRoleAdmin(bytes32)": {
        "details": "Returns the admin role that controls `role`. See {grantRole} and {revokeRole}. To change a role's admin, use {_setRoleAdmin}."
      },
      "grantRole(bytes32,address)": {
        "details": "Grants `role` to `account`. If `account` had not been already granted `role`, emits a {RoleGranted} event. Requirements: - the caller must have ``role``'s admin role."
      },
      "hasRole(bytes32,address)": {
        "details": "Returns `true` if `account` has been granted `role`."
      },
      "renounceRole(bytes32,address)": {
        "details": "Revokes `role` from the calling account. Roles are often managed via {grantRole} and {revokeRole}: this function's purpose is to provide a mechanism for accounts to lose their privileges if they are compromised (such as when a trusted device is misplaced). If the calling account had been revoked `role`, emits a {RoleRevoked} event. Requirements: - the caller must be `account`."
      },
      "revokeRole(bytes32,address)": {
        "details": "Revokes `role` from `account`. If `account` had been granted `role`, emits a {RoleRevoked} event. Requirements: - the caller must have ``role``'s admin role."
      },
      "supportsInterface(bytes4)": {
        "details": "See {IERC165-supportsInterface}."
      }
    },
    "version": 1
  },
  "userdoc": {
    "kind": "user",
    "methods": {},
    "version": 1
  }
}