{
  "contractName": "OptionVault",
  "abi": [
    {
      "inputs": [],
      "stateMutability": "nonpayable",
      "type": "constructor"
    },
    {
      "anonymous": false,
      "inputs": [
        {
          "indexed": true,
          "internalType": "address",
          "name": "_holder",
          "type": "address"
        },
        {
          "indexed": true,
          "internalType": "address",
          "name": "_pool",
          "type": "address"
        },
        {
          "indexed": false,
          "internalType": "uint256",
          "name": "_id",
          "type": "uint256"
        },
        {
          "indexed": false,
          "internalType": "uint256",
          "name": "_payoff",
          "type": "uint256"
        },
        {
          "indexed": false,
          "internalType": "address",
          "name": "_bot",
          "type": "address"
        }
      ],
      "name": "Expire",
      "type": "event"
    },
    {
      "anonymous": false,
      "inputs": [
        {
          "indexed": true,
          "internalType": "address",
          "name": "_hedger",
          "type": "address"
        },
        {
          "indexed": true,
          "internalType": "address",
          "name": "_market",
          "type": "address"
        },
        {
          "indexed": false,
          "internalType": "bool",
          "name": "success",
          "type": "bool"
        },
        {
          "indexed": false,
          "internalType": "bytes",
          "name": "data",
          "type": "bytes"
        }
      ],
      "name": "HedgeResponse",
      "type": "event"
    },
    {
      "anonymous": false,
      "inputs": [
        {
          "indexed": true,
          "internalType": "address",
          "name": "_hedger",
          "type": "address"
        },
        {
          "indexed": true,
          "internalType": "address",
          "name": "_market",
          "type": "address"
        },
        {
          "indexed": false,
          "internalType": "uint256[]",
          "name": "amounts",
          "type": "uint256[]"
        }
      ],
      "name": "HedgeSwapResponse",
      "type": "event"
    },
    {
      "anonymous": false,
      "inputs": [
        {
          "indexed": false,
          "internalType": "address",
          "name": "_newBot",
          "type": "address"
        }
      ],
      "name": "ResetBotAddress",
      "type": "event"
    },
    {
      "anonymous": false,
      "inputs": [
        {
          "indexed": true,
          "internalType": "uint256",
          "name": "_parameterId",
          "type": "uint256"
        },
        {
          "indexed": false,
          "internalType": "uint256",
          "name": "_parameter",
          "type": "uint256"
        }
      ],
      "name": "ResetParameter",
      "type": "event"
    },
    {
      "anonymous": false,
      "inputs": [
        {
          "indexed": true,
          "internalType": "bytes32",
          "name": "role",
          "type": "bytes32"
        },
        {
          "indexed": true,
          "internalType": "bytes32",
          "name": "previousAdminRole",
          "type": "bytes32"
        },
        {
          "indexed": true,
          "internalType": "bytes32",
          "name": "newAdminRole",
          "type": "bytes32"
        }
      ],
      "name": "RoleAdminChanged",
      "type": "event"
    },
    {
      "anonymous": false,
      "inputs": [
        {
          "indexed": true,
          "internalType": "bytes32",
          "name": "role",
          "type": "bytes32"
        },
        {
          "indexed": true,
          "internalType": "address",
          "name": "account",
          "type": "address"
        },
        {
          "indexed": true,
          "internalType": "address",
          "name": "sender",
          "type": "address"
        }
      ],
      "name": "RoleGranted",
      "type": "event"
    },
    {
      "anonymous": false,
      "inputs": [
        {
          "indexed": true,
          "internalType": "bytes32",
          "name": "role",
          "type": "bytes32"
        },
        {
          "indexed": true,
          "internalType": "address",
          "name": "account",
          "type": "address"
        },
        {
          "indexed": true,
          "internalType": "address",
          "name": "sender",
          "type": "address"
        }
      ],
      "name": "RoleRevoked",
      "type": "event"
    },
    {
      "anonymous": false,
      "inputs": [
        {
          "indexed": true,
          "internalType": "address",
          "name": "_purchaser",
          "type": "address"
        },
        {
          "indexed": true,
          "internalType": "address",
          "name": "_pool",
          "type": "address"
        },
        {
          "indexed": false,
          "internalType": "uint256",
          "name": "_cost",
          "type": "uint256"
        },
        {
          "indexed": false,
          "internalType": "uint256",
          "name": "_volAmount",
          "type": "uint256"
        }
      ],
      "name": "TradeVolatility",
      "type": "event"
    },
    {
      "anonymous": false,
      "inputs": [
        {
          "indexed": true,
          "internalType": "address",
          "name": "_holder",
          "type": "address"
        },
        {
          "indexed": true,
          "internalType": "address",
          "name": "_pool",
          "type": "address"
        },
        {
          "indexed": false,
          "internalType": "uint256",
          "name": "_id",
          "type": "uint256"
        },
        {
          "indexed": false,
          "internalType": "uint256",
          "name": "_payoff",
          "type": "uint256"
        }
      ],
      "name": "Unwind",
      "type": "event"
    },
    {
      "inputs": [],
      "name": "DEFAULT_ADMIN_ROLE",
      "outputs": [
        {
          "internalType": "bytes32",
          "name": "",
          "type": "bytes32"
        }
      ],
      "stateMutability": "view",
      "type": "function",
      "constant": true
    },
    {
      "inputs": [],
      "name": "EXCHANGE",
      "outputs": [
        {
          "internalType": "bytes32",
          "name": "",
          "type": "bytes32"
        }
      ],
      "stateMutability": "view",
      "type": "function",
      "constant": true
    },
    {
      "inputs": [
        {
          "internalType": "bytes32",
          "name": "role",
          "type": "bytes32"
        }
      ],
      "name": "getRoleAdmin",
      "outputs": [
        {
          "internalType": "bytes32",
          "name": "",
          "type": "bytes32"
        }
      ],
      "stateMutability": "view",
      "type": "function",
      "constant": true
    },
    {
      "inputs": [
        {
          "internalType": "bytes32",
          "name": "role",
          "type": "bytes32"
        },
        {
          "internalType": "address",
          "name": "account",
          "type": "address"
        }
      ],
      "name": "grantRole",
      "outputs": [],
      "stateMutability": "nonpayable",
      "type": "function"
    },
    {
      "inputs": [
        {
          "internalType": "bytes32",
          "name": "role",
          "type": "bytes32"
        },
        {
          "internalType": "address",
          "name": "account",
          "type": "address"
        }
      ],
      "name": "hasRole",
      "outputs": [
        {
          "internalType": "bool",
          "name": "",
          "type": "bool"
        }
      ],
      "stateMutability": "view",
      "type": "function",
      "constant": true
    },
    {
      "inputs": [
        {
          "internalType": "address",
          "name": "",
          "type": "address"
        }
      ],
      "name": "mExposureDown",
      "outputs": [
        {
          "internalType": "int256",
          "name": "",
          "type": "int256"
        }
      ],
      "stateMutability": "view",
      "type": "function",
      "constant": true
    },
    {
      "inputs": [
        {
          "internalType": "address",
          "name": "",
          "type": "address"
        }
      ],
      "name": "mExposureUp",
      "outputs": [
        {
          "internalType": "int256",
          "name": "",
          "type": "int256"
        }
      ],
      "stateMutability": "view",
      "type": "function",
      "constant": true
    },
    {
      "inputs": [
        {
          "internalType": "address",
          "name": "",
          "type": "address"
        }
      ],
      "name": "mFundCollateral",
      "outputs": [
        {
          "internalType": "uint256",
          "name": "",
          "type": "uint256"
        }
      ],
      "stateMutability": "view",
      "type": "function",
      "constant": true
    },
    {
      "inputs": [
        {
          "internalType": "address",
          "name": "",
          "type": "address"
        }
      ],
      "name": "mShortPremiums",
      "outputs": [
        {
          "internalType": "uint256",
          "name": "",
          "type": "uint256"
        }
      ],
      "stateMutability": "view",
      "type": "function",
      "constant": true
    },
    {
      "inputs": [
        {
          "internalType": "address",
          "name": "",
          "type": "address"
        }
      ],
      "name": "mUnderCollateral",
      "outputs": [
        {
          "internalType": "uint256",
          "name": "",
          "type": "uint256"
        }
      ],
      "stateMutability": "view",
      "type": "function",
      "constant": true
    },
    {
      "inputs": [
        {
          "internalType": "bytes32",
          "name": "role",
          "type": "bytes32"
        },
        {
          "internalType": "address",
          "name": "account",
          "type": "address"
        }
      ],
      "name": "renounceRole",
      "outputs": [],
      "stateMutability": "nonpayable",
      "type": "function"
    },
    {
      "inputs": [
        {
          "internalType": "bytes32",
          "name": "role",
          "type": "bytes32"
        },
        {
          "internalType": "address",
          "name": "account",
          "type": "address"
        }
      ],
      "name": "revokeRole",
      "outputs": [],
      "stateMutability": "nonpayable",
      "type": "function"
    },
    {
      "inputs": [
        {
          "internalType": "bytes4",
          "name": "interfaceId",
          "type": "bytes4"
        }
      ],
      "name": "supportsInterface",
      "outputs": [
        {
          "internalType": "bool",
          "name": "",
          "type": "bool"
        }
      ],
      "stateMutability": "view",
      "type": "function",
      "constant": true
    },
    {
      "inputs": [
        {
          "internalType": "address",
          "name": "_pool",
          "type": "address"
        },
        {
          "internalType": "address",
          "name": "_address",
          "type": "address"
        }
      ],
      "name": "getHolderOptions",
      "outputs": [
        {
          "internalType": "uint256[]",
          "name": "",
          "type": "uint256[]"
        }
      ],
      "stateMutability": "view",
      "type": "function",
      "constant": true
    },
    {
      "inputs": [
        {
          "internalType": "uint256",
          "name": "_id",
          "type": "uint256"
        }
      ],
      "name": "getOption",
      "outputs": [
        {
          "components": [
            {
              "internalType": "enum OptionLib.PayoffType",
              "name": "poType",
              "type": "uint8"
            },
            {
              "internalType": "enum OptionLib.OptionSide",
              "name": "side",
              "type": "uint8"
            },
            {
              "internalType": "enum OptionLib.OptionStatus",
              "name": "status",
              "type": "uint8"
            },
            {
              "internalType": "address",
              "name": "holder",
              "type": "address"
            },
            {
              "internalType": "uint256",
              "name": "id",
              "type": "uint256"
            },
            {
              "internalType": "uint256",
              "name": "createTime",
              "type": "uint256"
            },
            {
              "internalType": "uint256",
              "name": "effectiveTime",
              "type": "uint256"
            },
            {
              "internalType": "uint256",
              "name": "tenor",
              "type": "uint256"
            },
            {
              "internalType": "uint256",
              "name": "maturity",
              "type": "uint256"
            },
            {
              "internalType": "uint256",
              "name": "exerciseTime",
              "type": "uint256"
            },
            {
              "internalType": "uint256",
              "name": "amount",
              "type": "uint256"
            },
            {
              "internalType": "uint256",
              "name": "spot",
              "type": "uint256"
            },
            {
              "internalType": "uint256",
              "name": "strike",
              "type": "uint256"
            },
            {
              "internalType": "uint256",
              "name": "spread",
              "type": "uint256"
            },
            {
              "internalType": "uint256",
              "name": "volatility",
              "type": "uint256"
            },
            {
              "internalType": "uint256",
              "name": "premium",
              "type": "uint256"
            },
            {
              "internalType": "uint256",
              "name": "cost",
              "type": "uint256"
            },
            {
              "internalType": "address",
              "name": "pool",
              "type": "address"
            },
            {
              "internalType": "int256",
              "name": "exposure",
              "type": "int256"
            },
            {
              "internalType": "uint256",
              "name": "fee",
              "type": "uint256"
            }
          ],
          "internalType": "struct OptionLib.Option",
          "name": "",
          "type": "tuple"
        }
      ],
      "stateMutability": "view",
      "type": "function",
      "constant": true
    },
    {
      "inputs": [
        {
          "internalType": "address",
          "name": "_poolAddress",
          "type": "address"
        }
      ],
      "name": "getActiveOptionCount",
      "outputs": [
        {
          "internalType": "uint256",
          "name": "",
          "type": "uint256"
        }
      ],
      "stateMutability": "view",
      "type": "function",
      "constant": true
    },
    {
      "inputs": [
        {
          "internalType": "address",
          "name": "_poolAddress",
          "type": "address"
        }
      ],
      "name": "getActiveOptions",
      "outputs": [
        {
          "internalType": "uint256[]",
          "name": "",
          "type": "uint256[]"
        }
      ],
      "stateMutability": "view",
      "type": "function",
      "constant": true
    },
    {
      "inputs": [
        {
          "internalType": "uint256",
          "name": "_id",
          "type": "uint256"
        }
      ],
      "name": "getOptionInfo",
      "outputs": [
        {
          "internalType": "enum OptionLib.OptionStatus",
          "name": "",
          "type": "uint8"
        },
        {
          "internalType": "uint256",
          "name": "",
          "type": "uint256"
        },
        {
          "internalType": "address",
          "name": "",
          "type": "address"
        },
        {
          "internalType": "contract Pool",
          "name": "",
          "type": "address"
        }
      ],
      "stateMutability": "view",
      "type": "function",
      "constant": true
    },
    {
      "inputs": [
        {
          "components": [
            {
              "internalType": "enum OptionLib.PayoffType",
              "name": "poType",
              "type": "uint8"
            },
            {
              "internalType": "enum OptionLib.OptionSide",
              "name": "side",
              "type": "uint8"
            },
            {
              "internalType": "enum OptionLib.OptionStatus",
              "name": "status",
              "type": "uint8"
            },
            {
              "internalType": "address",
              "name": "holder",
              "type": "address"
            },
            {
              "internalType": "uint256",
              "name": "id",
              "type": "uint256"
            },
            {
              "internalType": "uint256",
              "name": "createTime",
              "type": "uint256"
            },
            {
              "internalType": "uint256",
              "name": "effectiveTime",
              "type": "uint256"
            },
            {
              "internalType": "uint256",
              "name": "tenor",
              "type": "uint256"
            },
            {
              "internalType": "uint256",
              "name": "maturity",
              "type": "uint256"
            },
            {
              "internalType": "uint256",
              "name": "exerciseTime",
              "type": "uint256"
            },
            {
              "internalType": "uint256",
              "name": "amount",
              "type": "uint256"
            },
            {
              "internalType": "uint256",
              "name": "spot",
              "type": "uint256"
            },
            {
              "internalType": "uint256",
              "name": "strike",
              "type": "uint256"
            },
            {
              "internalType": "uint256",
              "name": "spread",
              "type": "uint256"
            },
            {
              "internalType": "uint256",
              "name": "volatility",
              "type": "uint256"
            },
            {
              "internalType": "uint256",
              "name": "premium",
              "type": "uint256"
            },
            {
              "internalType": "uint256",
              "name": "cost",
              "type": "uint256"
            },
            {
              "internalType": "address",
              "name": "pool",
              "type": "address"
            },
            {
              "internalType": "int256",
              "name": "exposure",
              "type": "int256"
            },
            {
              "internalType": "uint256",
              "name": "fee",
              "type": "uint256"
            }
          ],
          "internalType": "struct OptionLib.Option",
          "name": "_option",
          "type": "tuple"
        },
        {
          "internalType": "uint256",
          "name": "_premium",
          "type": "uint256"
        },
        {
          "internalType": "uint256",
          "name": "_collateral",
          "type": "uint256"
        },
        {
          "internalType": "uint256",
          "name": "_price",
          "type": "uint256"
        },
        {
          "internalType": "uint256",
          "name": "_vol",
          "type": "uint256"
        },
        {
          "internalType": "uint256",
          "name": "_fee",
          "type": "uint256"
        }
      ],
      "name": "addOption",
      "outputs": [
        {
          "internalType": "uint256",
          "name": "_id",
          "type": "uint256"
        }
      ],
      "stateMutability": "nonpayable",
      "type": "function"
    },
    {
      "inputs": [
        {
          "internalType": "uint256",
          "name": "_id",
          "type": "uint256"
        },
        {
          "internalType": "address",
          "name": "_holder",
          "type": "address"
        }
      ],
      "name": "stampActiveOption",
      "outputs": [],
      "stateMutability": "nonpayable",
      "type": "function"
    },
    {
      "inputs": [
        {
          "internalType": "uint256",
          "name": "_id",
          "type": "uint256"
        }
      ],
      "name": "stampExpiredOption",
      "outputs": [],
      "stateMutability": "nonpayable",
      "type": "function"
    },
    {
      "inputs": [
        {
          "internalType": "uint256",
          "name": "_id",
          "type": "uint256"
        }
      ],
      "name": "getContractPayoff",
      "outputs": [
        {
          "internalType": "uint256",
          "name": "_toHolder",
          "type": "uint256"
        },
        {
          "internalType": "uint256",
          "name": "_toProtocol",
          "type": "uint256"
        },
        {
          "internalType": "uint256",
          "name": "_toExerciser",
          "type": "uint256"
        }
      ],
      "stateMutability": "view",
      "type": "function",
      "constant": true
    },
    {
      "inputs": [
        {
          "internalType": "uint256",
          "name": "_id",
          "type": "uint256"
        }
      ],
      "name": "calcOptionUnwindValue",
      "outputs": [
        {
          "internalType": "uint256",
          "name": "_toHolder",
          "type": "uint256"
        },
        {
          "internalType": "uint256",
          "name": "_toProtocol",
          "type": "uint256"
        }
      ],
      "stateMutability": "view",
      "type": "function",
      "constant": true
    },
    {
      "inputs": [
        {
          "components": [
            {
              "internalType": "enum OptionLib.PayoffType",
              "name": "poType",
              "type": "uint8"
            },
            {
              "internalType": "enum OptionLib.OptionSide",
              "name": "side",
              "type": "uint8"
            },
            {
              "internalType": "enum OptionLib.OptionStatus",
              "name": "status",
              "type": "uint8"
            },
            {
              "internalType": "address",
              "name": "holder",
              "type": "address"
            },
            {
              "internalType": "uint256",
              "name": "id",
              "type": "uint256"
            },
            {
              "internalType": "uint256",
              "name": "createTime",
              "type": "uint256"
            },
            {
              "internalType": "uint256",
              "name": "effectiveTime",
              "type": "uint256"
            },
            {
              "internalType": "uint256",
              "name": "tenor",
              "type": "uint256"
            },
            {
              "internalType": "uint256",
              "name": "maturity",
              "type": "uint256"
            },
            {
              "internalType": "uint256",
              "name": "exerciseTime",
              "type": "uint256"
            },
            {
              "internalType": "uint256",
              "name": "amount",
              "type": "uint256"
            },
            {
              "internalType": "uint256",
              "name": "spot",
              "type": "uint256"
            },
            {
              "internalType": "uint256",
              "name": "strike",
              "type": "uint256"
            },
            {
              "internalType": "uint256",
              "name": "spread",
              "type": "uint256"
            },
            {
              "internalType": "uint256",
              "name": "volatility",
              "type": "uint256"
            },
            {
              "internalType": "uint256",
              "name": "premium",
              "type": "uint256"
            },
            {
              "internalType": "uint256",
              "name": "cost",
              "type": "uint256"
            },
            {
              "internalType": "address",
              "name": "pool",
              "type": "address"
            },
            {
              "internalType": "int256",
              "name": "exposure",
              "type": "int256"
            },
            {
              "internalType": "uint256",
              "name": "fee",
              "type": "uint256"
            }
          ],
          "internalType": "struct OptionLib.Option",
          "name": "_option",
          "type": "tuple"
        }
      ],
      "name": "calcOptionCost",
      "outputs": [
        {
          "internalType": "uint256",
          "name": "_premium",
          "type": "uint256"
        },
        {
          "internalType": "uint256",
          "name": "_collateral",
          "type": "uint256"
        },
        {
          "internalType": "uint256",
          "name": "_price",
          "type": "uint256"
        },
        {
          "internalType": "uint256",
          "name": "_annualisedVol",
          "type": "uint256"
        },
        {
          "internalType": "uint256",
          "name": "_fee",
          "type": "uint256"
        }
      ],
      "stateMutability": "view",
      "type": "function",
      "constant": true
    },
    {
      "inputs": [
        {
          "components": [
            {
              "internalType": "enum OptionLib.PayoffType",
              "name": "poType",
              "type": "uint8"
            },
            {
              "internalType": "enum OptionLib.OptionSide",
              "name": "side",
              "type": "uint8"
            },
            {
              "internalType": "enum OptionLib.OptionStatus",
              "name": "status",
              "type": "uint8"
            },
            {
              "internalType": "address",
              "name": "holder",
              "type": "address"
            },
            {
              "internalType": "uint256",
              "name": "id",
              "type": "uint256"
            },
            {
              "internalType": "uint256",
              "name": "createTime",
              "type": "uint256"
            },
            {
              "internalType": "uint256",
              "name": "effectiveTime",
              "type": "uint256"
            },
            {
              "internalType": "uint256",
              "name": "tenor",
              "type": "uint256"
            },
            {
              "internalType": "uint256",
              "name": "maturity",
              "type": "uint256"
            },
            {
              "internalType": "uint256",
              "name": "exerciseTime",
              "type": "uint256"
            },
            {
              "internalType": "uint256",
              "name": "amount",
              "type": "uint256"
            },
            {
              "internalType": "uint256",
              "name": "spot",
              "type": "uint256"
            },
            {
              "internalType": "uint256",
              "name": "strike",
              "type": "uint256"
            },
            {
              "internalType": "uint256",
              "name": "spread",
              "type": "uint256"
            },
            {
              "internalType": "uint256",
              "name": "volatility",
              "type": "uint256"
            },
            {
              "internalType": "uint256",
              "name": "premium",
              "type": "uint256"
            },
            {
              "internalType": "uint256",
              "name": "cost",
              "type": "uint256"
            },
            {
              "internalType": "address",
              "name": "pool",
              "type": "address"
            },
            {
              "internalType": "int256",
              "name": "exposure",
              "type": "int256"
            },
            {
              "internalType": "uint256",
              "name": "fee",
              "type": "uint256"
            }
          ],
          "internalType": "struct OptionLib.Option",
          "name": "_option",
          "type": "tuple"
        },
        {
          "internalType": "uint256",
          "name": "_price",
          "type": "uint256"
        },
        {
          "internalType": "uint256",
          "name": "_volT",
          "type": "uint256"
        },
        {
          "internalType": "uint256",
          "name": "_maxExposure",
          "type": "uint256"
        }
      ],
      "name": "calcOptionExposure",
      "outputs": [
        {
          "internalType": "uint256",
          "name": "",
          "type": "uint256"
        },
        {
          "internalType": "int256",
          "name": "",
          "type": "int256"
        }
      ],
      "stateMutability": "view",
      "type": "function",
      "constant": true
    },
    {
      "inputs": [
        {
          "internalType": "contract Pool",
          "name": "_pool",
          "type": "address"
        },
        {
          "internalType": "bool",
          "name": "_net",
          "type": "bool"
        },
        {
          "internalType": "bool",
          "name": "_average",
          "type": "bool"
        }
      ],
      "name": "calcCapital",
      "outputs": [
        {
          "internalType": "uint256",
          "name": "",
          "type": "uint256"
        }
      ],
      "stateMutability": "view",
      "type": "function",
      "constant": true
    }
  ],
  "bytecode": "0x60806040523480156200001157600080fd5b50620000276000801b336200002d60201b60201c565b620001a6565b6200003f82826200004360201b60201c565b5050565b6200005582826200013460201b60201c565b6200013057600160008084815260200190815260200160002060000160008373ffffffffffffffffffffffffffffffffffffffff1673ffffffffffffffffffffffffffffffffffffffff16815260200190815260200160002060006101000a81548160ff021916908315150217905550620000d56200019e60201b60201c565b73ffffffffffffffffffffffffffffffffffffffff168173ffffffffffffffffffffffffffffffffffffffff16837f2f8788117e7eff1d82e926ec794901d17c78024a50270940304540a733656f0d60405160405180910390a45b5050565b600080600084815260200190815260200160002060000160008373ffffffffffffffffffffffffffffffffffffffff1673ffffffffffffffffffffffffffffffffffffffff16815260200190815260200160002060009054906101000a900460ff16905092915050565b600033905090565b615b7980620001b66000396000f3fe608060405234801561001057600080fd5b506004361061018e5760003560e01c80637be795e0116100de578063b50e44b811610097578063e04c3a7211610071578063e04c3a7214610533578063efb725af14610563578063fba0489114610593578063fc9d80e0146105c35761018e565b8063b50e44b8146104c9578063cf5b7f97146104e7578063d547741f146105175761018e565b80637be795e0146103b557806385ae10e6146103e55780638ac794fb1461041757806391d148541461044b578063a217fddf1461047b578063b058ac6e146104995761018e565b806334a8c71c1161014b578063408ad4bb11610125578063408ad4bb146103095780635c273c2f14610339578063637baf60146103695780636d0252c8146103855761018e565b806334a8c71c1461028b57806335080705146102bc57806336568abe146102ed5761018e565b806301ffc9a714610193578063132a0f1b146101c35780631ce5e9a6146101f3578063248a9ca31461022357806324b4110e146102535780632f2ff15d1461026f575b600080fd5b6101ad60048036038101906101a891906141ed565b6105f6565b6040516101ba9190614235565b60405180910390f35b6101dd60048036038101906101d891906142ae565b610670565b6040516101ea91906142f4565b60405180910390f35b61020d6004803603810190610208919061433b565b6106c0565b60405161021a9190614644565b60405180910390f35b61023d60048036038101906102389190614696565b6108f0565b60405161024a91906146d2565b60405180910390f35b61026d600480360381019061026891906146ed565b61090f565b005b6102896004803603810190610284919061472d565b610ea1565b005b6102a560048036038101906102a09190614a6b565b610ec2565b6040516102b3929190614ae5565b60405180910390f35b6102d660048036038101906102d1919061433b565b6113ee565b6040516102e4929190614b0e565b60405180910390f35b6103076004803603810190610302919061472d565b611620565b005b610323600480360381019061031e91906142ae565b6116a3565b6040516103309190614b37565b60405180910390f35b610353600480360381019061034e9190614bbc565b6116bb565b60405161036091906142f4565b60405180910390f35b610383600480360381019061037e919061433b565b611cf4565b005b61039f600480360381019061039a9190614c0f565b61235f565b6040516103ac91906142f4565b60405180910390f35b6103cf60048036038101906103ca9190614ca2565b6128e0565b6040516103dc9190614d91565b60405180910390f35b6103ff60048036038101906103fa919061433b565b61296e565b60405161040e93929190614db3565b60405180910390f35b610431600480360381019061042c9190614dea565b612e89565b604051610442959493929190614e18565b60405180910390f35b6104656004803603810190610460919061472d565b613613565b6040516104729190614235565b60405180910390f35b61048361367d565b60405161049091906146d2565b60405180910390f35b6104b360048036038101906104ae91906142ae565b613684565b6040516104c091906142f4565b60405180910390f35b6104d161369c565b6040516104de91906146d2565b60405180910390f35b61050160048036038101906104fc91906142ae565b6136c0565b60405161050e91906142f4565b60405180910390f35b610531600480360381019061052c919061472d565b6136d8565b005b61054d600480360381019061054891906142ae565b6136f9565b60405161055a9190614b37565b60405180910390f35b61057d600480360381019061057891906142ae565b613711565b60405161058a9190614d91565b60405180910390f35b6105ad60048036038101906105a891906142ae565b613761565b6040516105ba91906142f4565b60405180910390f35b6105dd60048036038101906105d8919061433b565b613779565b6040516105ed9493929190614ee8565b60405180910390f35b60007f7965db0b000000000000000000000000000000000000000000000000000000007bffffffffffffffffffffffffffffffffffffffffffffffffffffffff1916827bffffffffffffffffffffffffffffffffffffffffffffffffffffffff191614806106695750610668826138ba565b5b9050919050565b60006106b9600360008473ffffffffffffffffffffffffffffffffffffffff1673ffffffffffffffffffffffffffffffffffffffff168152602001908152602001600020613924565b9050919050565b6106c861408b565b600182815481106106dc576106db614f2d565b5b9060005260206000209060110201604051806102800160405290816000820160009054906101000a900460ff16600381111561071b5761071a614368565b5b600381111561072d5761072c614368565b5b81526020016000820160019054906101000a900460ff16600181111561075657610755614368565b5b600181111561076857610767614368565b5b81526020016000820160029054906101000a900460ff16600381111561079157610790614368565b5b60038111156107a3576107a2614368565b5b81526020016000820160039054906101000a900473ffffffffffffffffffffffffffffffffffffffff1673ffffffffffffffffffffffffffffffffffffffff1673ffffffffffffffffffffffffffffffffffffffff168152602001600182015481526020016002820154815260200160038201548152602001600482015481526020016005820154815260200160068201548152602001600782015481526020016008820154815260200160098201548152602001600a8201548152602001600b8201548152602001600c8201548152602001600d8201548152602001600e820160009054906101000a900473ffffffffffffffffffffffffffffffffffffffff1673ffffffffffffffffffffffffffffffffffffffff1673ffffffffffffffffffffffffffffffffffffffff168152602001600f82015481526020016010820154815250509050919050565b6000806000838152602001908152602001600020600101549050919050565b7f10b261d3bc7a74f38949f9212b0336103474898eda034c06ae0a3e478dc0e4a561093981613939565b600073ffffffffffffffffffffffffffffffffffffffff168273ffffffffffffffffffffffffffffffffffffffff16036109a8576040517f08c379a000000000000000000000000000000000000000000000000000000000815260040161099f90614fb9565b60405180910390fd5b6000600184815481106109be576109bd614f2d565b5b906000526020600020906011020190504281600301819055508060040154426109e79190615008565b816005018190555060018160000160026101000a81548160ff02191690836003811115610a1757610a16614368565b5b0217905550600081600e0160009054906101000a900473ffffffffffffffffffffffffffffffffffffffff1690508173__OptionLib_____________________________63d619502790916040518263ffffffff1660e01b8152600401610a7e9190615043565b602060405180830381865af4158015610a9b573d6000803e3d6000fd5b505050506040513d601f19601f82011682018060405250810190610abf9190615073565b600460008373ffffffffffffffffffffffffffffffffffffffff1673ffffffffffffffffffffffffffffffffffffffff1681526020019081526020016000206000828254610b0d9190615008565b925050819055508173__OptionLib_____________________________63b4abd93a90916040518263ffffffff1660e01b8152600401610b4d9190615043565b602060405180830381865af4158015610b6a573d6000803e3d6000fd5b505050506040513d601f19601f82011682018060405250810190610b8e9190615073565b600560008373ffffffffffffffffffffffffffffffffffffffff1673ffffffffffffffffffffffffffffffffffffffff1681526020019081526020016000206000828254610bdc9190615008565b92505081905550600180811115610bf657610bf5614368565b5b8260000160019054906101000a900460ff166001811115610c1a57610c19614368565b5b14610c26576000610c2c565b81600c01545b600660008373ffffffffffffffffffffffffffffffffffffffff1673ffffffffffffffffffffffffffffffffffffffff1681526020019081526020016000206000828254610c7a9190615008565b9250508190555060006003811115610c9557610c94614368565b5b8260000160009054906101000a900460ff166003811115610cb957610cb8614368565b5b1480610cfa575060026003811115610cd457610cd3614368565b5b8260000160009054906101000a900460ff166003811115610cf857610cf7614368565b5b145b15610d5e5781600f0154600760008373ffffffffffffffffffffffffffffffffffffffff1673ffffffffffffffffffffffffffffffffffffffff1681526020019081526020016000206000828254610d5291906150a0565b92505081905550610db9565b81600f0154600860008373ffffffffffffffffffffffffffffffffffffffff1673ffffffffffffffffffffffffffffffffffffffff1681526020019081526020016000206000828254610db191906150a0565b925050819055505b610e4785600260008473ffffffffffffffffffffffffffffffffffffffff1673ffffffffffffffffffffffffffffffffffffffff16815260200190815260200160002060008773ffffffffffffffffffffffffffffffffffffffff1673ffffffffffffffffffffffffffffffffffffffff16815260200190815260200160002061394d90919063ffffffff16565b50610e9985600360008473ffffffffffffffffffffffffffffffffffffffff1673ffffffffffffffffffffffffffffffffffffffff16815260200190815260200160002061394d90919063ffffffff16565b505050505050565b610eaa826108f0565b610eb381613939565b610ebd8383613967565b505050565b6000806000866102200151905060008173ffffffffffffffffffffffffffffffffffffffff1663e0548bd86040518163ffffffff1660e01b8152600401602060405180830381865afa158015610f1c573d6000803e3d6000fd5b505050506040513d601f19601f82011682018060405250810190610f409190615073565b905060008273ffffffffffffffffffffffffffffffffffffffff16630f9026186040518163ffffffff1660e01b8152600401602060405180830381865afa158015610f8f573d6000803e3d6000fd5b505050506040513d601f19601f82011682018060405250810190610fb39190615073565b905060006003811115610fc957610fc8614368565b5b89600001516003811115610fe057610fdf614368565b5b1480611014575060026003811115610ffb57610ffa614368565b5b8960000151600381111561101257611011614368565b5b145b156112015760008873__MathLib_______________________________63fed4a0f390918a73__MathLib_______________________________63fed4a0f39091886040518363ffffffff1660e01b81526004016110739291906150f3565b602060405180830381865af4158015611090573d6000803e3d6000fd5b505050506040513d601f19601f820116820180604052508101906110b49190615073565b670de0b6b3a76400006110c79190615008565b6040518363ffffffff1660e01b81526004016110e49291906150f3565b602060405180830381865af4158015611101573d6000803e3d6000fd5b505050506040513d601f19601f820116820180604052508101906111259190615073565b90506000600760008c610220015173ffffffffffffffffffffffffffffffffffffffff1673ffffffffffffffffffffffffffffffffffffffff1681526020019081526020016000205490508a73__OptionLib_____________________________63a47af6759091848c87868e6040518763ffffffff1660e01b81526004016111b396959493929190615323565b6040805180830381865af41580156111cf573d6000803e3d6000fd5b505050506040513d601f19601f820116820180604052508101906111f3919061539f565b9650965050505050506113e5565b60008873__MathLib_______________________________63de7f617090918a73__MathLib_______________________________63fed4a0f39091886040518363ffffffff1660e01b815260040161125b9291906150f3565b602060405180830381865af4158015611278573d6000803e3d6000fd5b505050506040513d601f19601f8201168201806040525081019061129c9190615073565b670de0b6b3a76400006112af9190615008565b6040518363ffffffff1660e01b81526004016112cc9291906150f3565b602060405180830381865af41580156112e9573d6000803e3d6000fd5b505050506040513d601f19601f8201168201806040525081019061130d9190615073565b90506000600860008c610220015173ffffffffffffffffffffffffffffffffffffffff1673ffffffffffffffffffffffffffffffffffffffff1681526020019081526020016000205490508a73__OptionLib_____________________________63e43aeed99091848c87868e6040518763ffffffff1660e01b815260040161139b96959493929190615323565b6040805180830381865af41580156113b7573d6000803e3d6000fd5b505050506040513d601f19601f820116820180604052508101906113db919061539f565b9650965050505050505b94509492505050565b60008060006113fc846106c0565b9050600080600181111561141357611412614368565b5b8260200151600181111561142a57611429614368565b5b1490508061143957600061143c565b60015b8260200190600181111561145357611452614368565b5b9081600181111561146757611466614368565b5b8152505060008061147784612e89565b50509250509150600084610260015173__MathLib_______________________________63b3947c17909160008860c001511180156114be57508760c00151886101000151115b6114cc578760e001516114f8565b6114f78860e001518960c001516114e8428c6101000151613a47565b6114f291906153df565b613a61565b5b8860e001516040518463ffffffff1660e01b815260040161151b93929190615413565b602060405180830381865af4158015611538573d6000803e3d6000fd5b505050506040513d601f19601f8201168201806040525081019061155c9190615073565b9050836115f157828573__OptionLib_____________________________63d8242549909185876040518463ffffffff1660e01b81526004016115a19392919061544a565b602060405180830381865af41580156115be573d6000803e3d6000fd5b505050506040513d601f19601f820116820180604052508101906115e29190615073565b6115ec91906153df565b6115f3565b825b965080856102600151886116079190615008565b61161191906153df565b96508095505050505050915091565b611628613a7a565b73ffffffffffffffffffffffffffffffffffffffff168173ffffffffffffffffffffffffffffffffffffffff1614611695576040517f08c379a000000000000000000000000000000000000000000000000000000000815260040161168c906154f6565b60405180910390fd5b61169f8282613a82565b5050565b60076020528060005260406000206000915090505481565b6000808473ffffffffffffffffffffffffffffffffffffffff16631f21f9af6040518163ffffffff1660e01b8152600401602060405180830381865afa158015611709573d6000803e3d6000fd5b505050506040513d601f19601f8201168201806040525081019061172d9190615554565b905060008173ffffffffffffffffffffffffffffffffffffffff1663c0a16f6a6040518163ffffffff1660e01b8152600401602060405180830381865afa15801561177c573d6000803e3d6000fd5b505050506040513d601f19601f820116820180604052508101906117a091906155bf565b905060008173ffffffffffffffffffffffffffffffffffffffff1663b0667cf86040518163ffffffff1660e01b8152600401602060405180830381865afa1580156117ef573d6000803e3d6000fd5b505050506040513d601f19601f820116820180604052508101906118139190615073565b905060008373ffffffffffffffffffffffffffffffffffffffff1673__MarketLib_____________________________63e74207d69091846040518363ffffffff1660e01b815260040161186892919061560d565b602060405180830381865af4158015611885573d6000803e3d6000fd5b505050506040513d601f19601f820116820180604052508101906118a99190615073565b905060008890506000600560008373ffffffffffffffffffffffffffffffffffffffff1673ffffffffffffffffffffffffffffffffffffffff16815260200190815260200160002054600460008473ffffffffffffffffffffffffffffffffffffffff1673ffffffffffffffffffffffffffffffffffffffff1681526020019081526020016000205473__MathLib_______________________________63fed4a0f39091876040518363ffffffff1660e01b815260040161196c9291906150f3565b602060405180830381865af4158015611989573d6000803e3d6000fd5b505050506040513d601f19601f820116820180604052508101906119ad9190615073565b6119b79190615008565b9050600660008373ffffffffffffffffffffffffffffffffffffffff1673ffffffffffffffffffffffffffffffffffffffff16815260200190815260200160002054611a038285613a61565b84611a0e91906153df565b611a189190615008565b92508815611bbb576000600760008473ffffffffffffffffffffffffffffffffffffffff1673ffffffffffffffffffffffffffffffffffffffff1681526020019081526020016000205473__MathLib_______________________________63806bcd4b9091600860008773ffffffffffffffffffffffffffffffffffffffff1673ffffffffffffffffffffffffffffffffffffffff16815260200190815260200160002054611ac790615636565b6040518363ffffffff1660e01b8152600401611ae492919061567e565b602060405180830381865af4158015611b01573d6000803e3d6000fd5b505050506040513d601f19601f82011682018060405250810190611b259190615073565b73__MathLib_______________________________63fed4a0f39091876040518363ffffffff1660e01b8152600401611b5f9291906150f3565b602060405180830381865af4158015611b7c573d6000803e3d6000fd5b505050506040513d601f19601f82011682018060405250810190611ba09190615073565b9050611bac8185613a61565b84611bb791906153df565b9350505b8715611ce45760008a73ffffffffffffffffffffffffffffffffffffffff166318160ddd6040518163ffffffff1660e01b8152600401602060405180830381865afa158015611c0e573d6000803e3d6000fd5b505050506040513d601f19601f82011682018060405250810190611c329190615073565b90506000811115611cc0578373__MathLib_______________________________63de7f61709091836040518363ffffffff1660e01b8152600401611c789291906150f3565b602060405180830381865af4158015611c95573d6000803e3d6000fd5b505050506040513d601f19601f82011682018060405250810190611cb99190615073565b9350611ce2565b600081148015611cd05750600084145b15611ce157670de0b6b3a764000093505b5b505b8296505050505050509392505050565b7f10b261d3bc7a74f38949f9212b0336103474898eda034c06ae0a3e478dc0e4a5611d1e81613939565b600060018381548110611d3457611d33614f2d565b5b90600052602060002090601102019050600081600e0160009054906101000a900473ffffffffffffffffffffffffffffffffffffffff16905060008260000160039054906101000a900473ffffffffffffffffffffffffffffffffffffffff169050611de785600360008573ffffffffffffffffffffffffffffffffffffffff1673ffffffffffffffffffffffffffffffffffffffff168152602001908152602001600020613b6390919063ffffffff16565b50611e7685600260008573ffffffffffffffffffffffffffffffffffffffff1673ffffffffffffffffffffffffffffffffffffffff16815260200190815260200160002060008473ffffffffffffffffffffffffffffffffffffffff1673ffffffffffffffffffffffffffffffffffffffff168152602001908152602001600020613b6390919063ffffffff16565b50611f39600460008473ffffffffffffffffffffffffffffffffffffffff1673ffffffffffffffffffffffffffffffffffffffff168152602001908152602001600020548473__OptionLib_____________________________63d619502790916040518263ffffffff1660e01b8152600401611ef39190615043565b602060405180830381865af4158015611f10573d6000803e3d6000fd5b505050506040513d601f19601f82011682018060405250810190611f349190615073565b613a61565b600460008473ffffffffffffffffffffffffffffffffffffffff1673ffffffffffffffffffffffffffffffffffffffff1681526020019081526020016000206000828254611f8791906153df565b92505081905550612050600560008473ffffffffffffffffffffffffffffffffffffffff1673ffffffffffffffffffffffffffffffffffffffff168152602001908152602001600020548473__OptionLib_____________________________63b4abd93a90916040518263ffffffff1660e01b815260040161200a9190615043565b602060405180830381865af4158015612027573d6000803e3d6000fd5b505050506040513d601f19601f8201168201806040525081019061204b9190615073565b613a61565b600560008473ffffffffffffffffffffffffffffffffffffffff1673ffffffffffffffffffffffffffffffffffffffff168152602001908152602001600020600082825461209e91906153df565b92505081905550612136600660008473ffffffffffffffffffffffffffffffffffffffff1673ffffffffffffffffffffffffffffffffffffffff168152602001908152602001600020546001808111156120fb576120fa614368565b5b8560000160019054906101000a900460ff16600181111561211f5761211e614368565b5b1461212b576000612131565b84600c01545b613a61565b600660008473ffffffffffffffffffffffffffffffffffffffff1673ffffffffffffffffffffffffffffffffffffffff168152602001908152602001600020600082825461218491906153df565b925050819055506000600381111561219f5761219e614368565b5b8360000160009054906101000a900460ff1660038111156121c3576121c2614368565b5b14806122045750600260038111156121de576121dd614368565b5b8360000160009054906101000a900460ff16600381111561220257612201614368565b5b145b156122685782600f0154600760008473ffffffffffffffffffffffffffffffffffffffff1673ffffffffffffffffffffffffffffffffffffffff168152602001908152602001600020600082825461225c91906156a7565b925050819055506122c3565b82600f0154600860008473ffffffffffffffffffffffffffffffffffffffff1673ffffffffffffffffffffffffffffffffffffffff16815260200190815260200160002060008282546122bb91906156a7565b925050819055505b8260000160039054906101000a900473ffffffffffffffffffffffffffffffffffffffff1673ffffffffffffffffffffffffffffffffffffffff163373ffffffffffffffffffffffffffffffffffffffff1614612321576003612324565b60025b8360000160026101000a81548160ff0219169083600381111561234a57612349614368565b5b02179055504283600601819055505050505050565b60007f10b261d3bc7a74f38949f9212b0336103474898eda034c06ae0a3e478dc0e4a561238b81613939565b60008860e00151116123d2576040517f08c379a00000000000000000000000000000000000000000000000000000000081526004016123c990615736565b60405180910390fd5b60018054905091506000886102200151905060008173ffffffffffffffffffffffffffffffffffffffff16631f21f9af6040518163ffffffff1660e01b8152600401602060405180830381865afa158015612431573d6000803e3d6000fd5b505050506040513d601f19601f820116820180604052508101906124559190615554565b73ffffffffffffffffffffffffffffffffffffffff1663c0a16f6a6040518163ffffffff1660e01b8152600401602060405180830381865afa15801561249f573d6000803e3d6000fd5b505050506040513d601f19601f820116820180604052508101906124c391906155bf565b905060006125d68b898473ffffffffffffffffffffffffffffffffffffffff1663cfc2dc208f60e001516040518263ffffffff1660e01b815260040161250991906142f4565b602060405180830381865afa158015612526573d6000803e3d6000fd5b505050506040513d601f19601f8201168201806040525081019061254a9190615073565b612556876000806116bb565b73__MathLib_______________________________63de7f617090918e6040518363ffffffff1660e01b81526004016125909291906150f3565b602060405180830381865af41580156125ad573d6000803e3d6000fd5b505050506040513d601f19601f820116820180604052508101906125d19190615073565b610ec2565b91505060016040518061028001604052808d6000015160038111156125fe576125fd614368565b5b81526020018d60200151600181111561261a57612619614368565b5b81526020016000600381111561263357612632614368565b5b81526020018d6060015173ffffffffffffffffffffffffffffffffffffffff168152602001878152602001428152602001600081526020018d60e00151815260200160008152602001600081526020018d610140015181526020018a81526020018d610180015181526020018d6101a0015181526020018981526020018c81526020018b81526020018d610220015173ffffffffffffffffffffffffffffffffffffffff16815260200183815260200188815250908060018154018082558091505060019003906000526020600020906011020160009091909190915060008201518160000160006101000a81548160ff0219169083600381111561273b5761273a614368565b5b021790555060208201518160000160016101000a81548160ff0219169083600181111561276b5761276a614368565b5b021790555060408201518160000160026101000a81548160ff0219169083600381111561279b5761279a614368565b5b021790555060608201518160000160036101000a81548173ffffffffffffffffffffffffffffffffffffffff021916908373ffffffffffffffffffffffffffffffffffffffff1602179055506080820151816001015560a0820151816002015560c0820151816003015560e08201518160040155610100820151816005015561012082015181600601556101408201518160070155610160820151816008015561018082015181600901556101a082015181600a01556101c082015181600b01556101e082015181600c015561020082015181600d015561022082015181600e0160006101000a81548173ffffffffffffffffffffffffffffffffffffffff021916908373ffffffffffffffffffffffffffffffffffffffff16021790555061024082015181600f015561026082015181601001555050505050509695505050505050565b6060612966600260008573ffffffffffffffffffffffffffffffffffffffff1673ffffffffffffffffffffffffffffffffffffffff16815260200190815260200160002060008473ffffffffffffffffffffffffffffffffffffffff1673ffffffffffffffffffffffffffffffffffffffff168152602001908152602001600020613b7d565b905092915050565b6000806000806001858154811061298857612987614f2d565b5b9060005260206000209060110201600e0160009054906101000a900473ffffffffffffffffffffffffffffffffffffffff16905060008173ffffffffffffffffffffffffffffffffffffffff16631f21f9af6040518163ffffffff1660e01b8152600401602060405180830381865afa158015612a09573d6000803e3d6000fd5b505050506040513d601f19601f82011682018060405250810190612a2d9190615554565b73ffffffffffffffffffffffffffffffffffffffff1663c0a16f6a6040518163ffffffff1660e01b8152600401602060405180830381865afa158015612a77573d6000803e3d6000fd5b505050506040513d601f19601f82011682018060405250810190612a9b91906155bf565b905060008173ffffffffffffffffffffffffffffffffffffffff1663b0667cf86040518163ffffffff1660e01b8152600401602060405180830381865afa158015612aea573d6000803e3d6000fd5b505050506040513d601f19601f82011682018060405250810190612b0e9190615073565b905060018781548110612b2457612b23614f2d565b5b906000526020600020906011020173__OptionLib_____________________________63357aa1df9091836040518363ffffffff1660e01b8152600401612b6c929190615756565b602060405180830381865af4158015612b89573d6000803e3d6000fd5b505050506040513d601f19601f82011682018060405250810190612bad9190615073565b955060018781548110612bc357612bc2614f2d565b5b906000526020600020906011020160100154945060018781548110612beb57612bea614f2d565b5b90600052602060002090601102016007015473__MathLib_______________________________63fed4a0f39091836040518363ffffffff1660e01b8152600401612c379291906150f3565b602060405180830381865af4158015612c54573d6000803e3d6000fd5b505050506040513d601f19601f82011682018060405250810190612c789190615073565b73__MathLib_______________________________63b3947c17909160018a81548110612ca857612ca7614f2d565b5b9060005260206000209060110201600401546301e133806040518463ffffffff1660e01b8152600401612cdd93929190615413565b602060405180830381865af4158015612cfa573d6000803e3d6000fd5b505050506040513d601f19601f82011682018060405250810190612d1e9190615073565b73__MathLib_______________________________63fed4a0f390918573ffffffffffffffffffffffffffffffffffffffff1663d1c699aa6040518163ffffffff1660e01b8152600401602060405180830381865afa158015612d85573d6000803e3d6000fd5b505050506040513d601f19601f82011682018060405250810190612da99190615073565b6040518363ffffffff1660e01b8152600401612dc69291906150f3565b602060405180830381865af4158015612de3573d6000803e3d6000fd5b505050506040513d601f19601f82011682018060405250810190612e079190615073565b935060006001811115612e1d57612e1c614368565b5b60018881548110612e3157612e30614f2d565b5b906000526020600020906011020160000160019054906101000a900460ff166001811115612e6257612e61614368565b5b03612e7f57612e718685613a61565b86612e7c91906153df565b95505b5050509193909250565b600080600080600080866102200151905060008173ffffffffffffffffffffffffffffffffffffffff16631f21f9af6040518163ffffffff1660e01b8152600401602060405180830381865afa158015612ee7573d6000803e3d6000fd5b505050506040513d601f19601f82011682018060405250810190612f0b9190615554565b905060008173ffffffffffffffffffffffffffffffffffffffff1663c0a16f6a6040518163ffffffff1660e01b8152600401602060405180830381865afa158015612f5a573d6000803e3d6000fd5b505050506040513d601f19601f82011682018060405250810190612f7e91906155bf565b90508073ffffffffffffffffffffffffffffffffffffffff1663b0667cf86040518163ffffffff1660e01b8152600401602060405180830381865afa158015612fcb573d6000803e3d6000fd5b505050506040513d601f19601f82011682018060405250810190612fef9190615073565b955060006131028a888473ffffffffffffffffffffffffffffffffffffffff1663cfc2dc208e60e001516040518263ffffffff1660e01b815260040161303591906142f4565b602060405180830381865afa158015613052573d6000803e3d6000fd5b505050506040513d601f19601f820116820180604052508101906130769190615073565b613082886000806116bb565b73__MathLib_______________________________63de7f617090918d6040518363ffffffff1660e01b81526004016130bc9291906150f3565b602060405180830381865af41580156130d9573d6000803e3d6000fd5b505050506040513d601f19601f820116820180604052508101906130fd9190615073565b610ec2565b5090508073__MathLib_______________________________63fed4a0f390918473ffffffffffffffffffffffffffffffffffffffff1663430417f78e60e001516040518263ffffffff1660e01b815260040161315f91906142f4565b602060405180830381865afa15801561317c573d6000803e3d6000fd5b505050506040513d601f19601f820116820180604052508101906131a09190615073565b6040518363ffffffff1660e01b81526004016131bd9291906150f3565b602060405180830381865af41580156131da573d6000803e3d6000fd5b505050506040513d601f19601f820116820180604052508101906131fe9190615073565b95508973__OptionLib_____________________________638399d60c909189848773ffffffffffffffffffffffffffffffffffffffff1663a7292ea46040518163ffffffff1660e01b8152600401602060405180830381865afa15801561326a573d6000803e3d6000fd5b505050506040513d601f19601f8201168201806040525081019061328e9190615073565b6040518563ffffffff1660e01b81526004016132ad949392919061577f565b602060405180830381865af41580156132ca573d6000803e3d6000fd5b505050506040513d601f19601f820116820180604052508101906132ee9190615073565b985060018081111561330357613302614368565b5b8a60200151600181111561331a57613319614368565b5b146133265760006133a5565b8973__OptionLib_____________________________63d82425499091898c6040518463ffffffff1660e01b81526004016133639392919061544a565b602060405180830381865af4158015613380573d6000803e3d6000fd5b505050506040513d601f19601f820116820180604052508101906133a49190615073565b5b975089610140015173__MathLib_______________________________63fed4a0f39091896040518363ffffffff1660e01b81526004016133e79291906150f3565b602060405180830381865af4158015613404573d6000803e3d6000fd5b505050506040513d601f19601f820116820180604052508101906134289190615073565b73__MathLib_______________________________63b3947c1790918c60e001516301e133806040518463ffffffff1660e01b815260040161346c93929190615413565b602060405180830381865af4158015613489573d6000803e3d6000fd5b505050506040513d601f19601f820116820180604052508101906134ad9190615073565b73__MathLib_______________________________63fed4a0f390918573ffffffffffffffffffffffffffffffffffffffff166305268cff6040518163ffffffff1660e01b8152600401602060405180830381865afa158015613514573d6000803e3d6000fd5b505050506040513d601f19601f820116820180604052508101906135389190615806565b73ffffffffffffffffffffffffffffffffffffffff1663b0e21e8a6040518163ffffffff1660e01b8152600401602060405180830381865afa158015613582573d6000803e3d6000fd5b505050506040513d601f19601f820116820180604052508101906135a69190615073565b6040518363ffffffff1660e01b81526004016135c39291906150f3565b602060405180830381865af41580156135e0573d6000803e3d6000fd5b505050506040513d601f19601f820116820180604052508101906136049190615073565b94505050505091939590929450565b600080600084815260200190815260200160002060000160008373ffffffffffffffffffffffffffffffffffffffff1673ffffffffffffffffffffffffffffffffffffffff16815260200190815260200160002060009054906101000a900460ff16905092915050565b6000801b81565b60056020528060005260406000206000915090505481565b7f10b261d3bc7a74f38949f9212b0336103474898eda034c06ae0a3e478dc0e4a581565b60046020528060005260406000206000915090505481565b6136e1826108f0565b6136ea81613939565b6136f48383613a82565b505050565b60086020528060005260406000206000915090505481565b606061375a600360008473ffffffffffffffffffffffffffffffffffffffff1673ffffffffffffffffffffffffffffffffffffffff168152602001908152602001600020613b7d565b9050919050565b60066020528060005260406000206000915090505481565b60008060008060018054905085106137c6576040517f08c379a00000000000000000000000000000000000000000000000000000000081526004016137bd9061587f565b60405180910390fd5b600185815481106137da576137d9614f2d565b5b906000526020600020906011020160000160029054906101000a900460ff166001868154811061380d5761380c614f2d565b5b9060005260206000209060110201600501546001878154811061383357613832614f2d565b5b906000526020600020906011020160000160039054906101000a900473ffffffffffffffffffffffffffffffffffffffff166001888154811061387957613878614f2d565b5b9060005260206000209060110201600e0160009054906101000a900473ffffffffffffffffffffffffffffffffffffffff1693509350935093509193509193565b60007f01ffc9a7000000000000000000000000000000000000000000000000000000007bffffffffffffffffffffffffffffffffffffffffffffffffffffffff1916827bffffffffffffffffffffffffffffffffffffffffffffffffffffffff1916149050919050565b600061393282600001613b9e565b9050919050565b61394a81613945613a7a565b613baf565b50565b600061395f836000018360001b613c4c565b905092915050565b6139718282613613565b613a4357600160008084815260200190815260200160002060000160008373ffffffffffffffffffffffffffffffffffffffff1673ffffffffffffffffffffffffffffffffffffffff16815260200190815260200160002060006101000a81548160ff0219169083151502179055506139e8613a7a565b73ffffffffffffffffffffffffffffffffffffffff168173ffffffffffffffffffffffffffffffffffffffff16837f2f8788117e7eff1d82e926ec794901d17c78024a50270940304540a733656f0d60405160405180910390a45b5050565b600081831015613a575781613a59565b825b905092915050565b6000818310613a705781613a72565b825b905092915050565b600033905090565b613a8c8282613613565b15613b5f57600080600084815260200190815260200160002060000160008373ffffffffffffffffffffffffffffffffffffffff1673ffffffffffffffffffffffffffffffffffffffff16815260200190815260200160002060006101000a81548160ff021916908315150217905550613b04613a7a565b73ffffffffffffffffffffffffffffffffffffffff168173ffffffffffffffffffffffffffffffffffffffff16837ff6391f5c32d9c69d2a47ea670b442974b53935d1edc7fd64eb21e047a839171b60405160405180910390a45b5050565b6000613b75836000018360001b613cbc565b905092915050565b60606000613b8d83600001613dd0565b905060608190508092505050919050565b600081600001805490509050919050565b613bb98282613613565b613c4857613bde8173ffffffffffffffffffffffffffffffffffffffff166014613e2c565b613bec8360001c6020613e2c565b604051602001613bfd9291906159a8565b6040516020818303038152906040526040517f08c379a0000000000000000000000000000000000000000000000000000000008152600401613c3f9190615a1b565b60405180910390fd5b5050565b6000613c588383614068565b613cb1578260000182908060018154018082558091505060019003906000526020600020016000909190919091505582600001805490508360010160008481526020019081526020016000208190555060019050613cb6565b600090505b92915050565b60008083600101600084815260200190815260200160002054905060008114613dc4576000600182613cee91906153df565b9050600060018660000180549050613d0691906153df565b9050818114613d75576000866000018281548110613d2757613d26614f2d565b5b9060005260206000200154905080876000018481548110613d4b57613d4a614f2d565b5b90600052602060002001819055508387600101600083815260200190815260200160002081905550505b85600001805480613d8957613d88615a3d565b5b600190038181906000526020600020016000905590558560010160008681526020019081526020016000206000905560019350505050613dca565b60009150505b92915050565b606081600001805480602002602001604051908101604052809291908181526020018280548015613e2057602002820191906000526020600020905b815481526020019060010190808311613e0c575b50505050509050919050565b606060006002836002613e3f9190615a6c565b613e499190615008565b67ffffffffffffffff811115613e6257613e61614783565b5b6040519080825280601f01601f191660200182016040528015613e945781602001600182028036833780820191505090505b5090507f300000000000000000000000000000000000000000000000000000000000000081600081518110613ecc57613ecb614f2d565b5b60200101907effffffffffffffffffffffffffffffffffffffffffffffffffffffffffffff1916908160001a9053507f780000000000000000000000000000000000000000000000000000000000000081600181518110613f3057613f2f614f2d565b5b60200101907effffffffffffffffffffffffffffffffffffffffffffffffffffffffffffff1916908160001a90535060006001846002613f709190615a6c565b613f7a9190615008565b90505b600181111561401a577f3031323334353637383961626364656600000000000000000000000000000000600f861660108110613fbc57613fbb614f2d565b5b1a60f81b828281518110613fd357613fd2614f2d565b5b60200101907effffffffffffffffffffffffffffffffffffffffffffffffffffffffffffff1916908160001a905350600485901c94508061401390615aae565b9050613f7d565b506000841461405e576040517f08c379a000000000000000000000000000000000000000000000000000000000815260040161405590615b23565b60405180910390fd5b8091505092915050565b600080836001016000848152602001908152602001600020541415905092915050565b604051806102800160405280600060038111156140ab576140aa614368565b5b8152602001600060018111156140c4576140c3614368565b5b8152602001600060038111156140dd576140dc614368565b5b8152602001600073ffffffffffffffffffffffffffffffffffffffff16815260200160008152602001600081526020016000815260200160008152602001600081526020016000815260200160008152602001600081526020016000815260200160008152602001600081526020016000815260200160008152602001600073ffffffffffffffffffffffffffffffffffffffff16815260200160008152602001600081525090565b6000604051905090565b600080fd5b60007fffffffff0000000000000000000000000000000000000000000000000000000082169050919050565b6141ca81614195565b81146141d557600080fd5b50565b6000813590506141e7816141c1565b92915050565b60006020828403121561420357614202614190565b5b6000614211848285016141d8565b91505092915050565b60008115159050919050565b61422f8161421a565b82525050565b600060208201905061424a6000830184614226565b92915050565b600073ffffffffffffffffffffffffffffffffffffffff82169050919050565b600061427b82614250565b9050919050565b61428b81614270565b811461429657600080fd5b50565b6000813590506142a881614282565b92915050565b6000602082840312156142c4576142c3614190565b5b60006142d284828501614299565b91505092915050565b6000819050919050565b6142ee816142db565b82525050565b600060208201905061430960008301846142e5565b92915050565b614318816142db565b811461432357600080fd5b50565b6000813590506143358161430f565b92915050565b60006020828403121561435157614350614190565b5b600061435f84828501614326565b91505092915050565b7f4e487b7100000000000000000000000000000000000000000000000000000000600052602160045260246000fd5b600481106143a8576143a7614368565b5b50565b60008190506143b982614397565b919050565b60006143c9826143ab565b9050919050565b6143d9816143be565b82525050565b600281106143f0576143ef614368565b5b50565b6000819050614401826143df565b919050565b6000614411826143f3565b9050919050565b61442181614406565b82525050565b6004811061443857614437614368565b5b50565b600081905061444982614427565b919050565b60006144598261443b565b9050919050565b6144698161444e565b82525050565b61447881614270565b82525050565b614487816142db565b82525050565b6000819050919050565b6144a08161448d565b82525050565b610280820160008201516144bd60008501826143d0565b5060208201516144d06020850182614418565b5060408201516144e36040850182614460565b5060608201516144f6606085018261446f565b506080820151614509608085018261447e565b5060a082015161451c60a085018261447e565b5060c082015161452f60c085018261447e565b5060e082015161454260e085018261447e565b5061010082015161455761010085018261447e565b5061012082015161456c61012085018261447e565b5061014082015161458161014085018261447e565b5061016082015161459661016085018261447e565b506101808201516145ab61018085018261447e565b506101a08201516145c06101a085018261447e565b506101c08201516145d56101c085018261447e565b506101e08201516145ea6101e085018261447e565b506102008201516145ff61020085018261447e565b5061022082015161461461022085018261446f565b50610240820151614629610240850182614497565b5061026082015161463e61026085018261447e565b50505050565b60006102808201905061465a60008301846144a6565b92915050565b6000819050919050565b61467381614660565b811461467e57600080fd5b50565b6000813590506146908161466a565b92915050565b6000602082840312156146ac576146ab614190565b5b60006146ba84828501614681565b91505092915050565b6146cc81614660565b82525050565b60006020820190506146e760008301846146c3565b92915050565b6000806040838503121561470457614703614190565b5b600061471285828601614326565b925050602061472385828601614299565b9150509250929050565b6000806040838503121561474457614743614190565b5b600061475285828601614681565b925050602061476385828601614299565b9150509250929050565b600080fd5b6000601f19601f8301169050919050565b7f4e487b7100000000000000000000000000000000000000000000000000000000600052604160045260246000fd5b6147bb82614772565b810181811067ffffffffffffffff821117156147da576147d9614783565b5b80604052505050565b60006147ed614186565b90506147f982826147b2565b919050565b6004811061480b57600080fd5b50565b60008135905061481d816147fe565b92915050565b6002811061483057600080fd5b50565b60008135905061484281614823565b92915050565b6004811061485557600080fd5b50565b60008135905061486781614848565b92915050565b6148768161448d565b811461488157600080fd5b50565b6000813590506148938161486d565b92915050565b600061028082840312156148b0576148af61476d565b5b6148bb6102806147e3565b905060006148cb8482850161480e565b60008301525060206148df84828501614833565b60208301525060406148f384828501614858565b604083015250606061490784828501614299565b606083015250608061491b84828501614326565b60808301525060a061492f84828501614326565b60a08301525060c061494384828501614326565b60c08301525060e061495784828501614326565b60e08301525061010061496c84828501614326565b6101008301525061012061498284828501614326565b6101208301525061014061499884828501614326565b610140830152506101606149ae84828501614326565b610160830152506101806149c484828501614326565b610180830152506101a06149da84828501614326565b6101a0830152506101c06149f084828501614326565b6101c0830152506101e0614a0684828501614326565b6101e083015250610200614a1c84828501614326565b61020083015250610220614a3284828501614299565b61022083015250610240614a4884828501614884565b61024083015250610260614a5e84828501614326565b6102608301525092915050565b6000806000806102e08587031215614a8657614a85614190565b5b6000614a9487828801614899565b945050610280614aa687828801614326565b9350506102a0614ab887828801614326565b9250506102c0614aca87828801614326565b91505092959194509250565b614adf8161448d565b82525050565b6000604082019050614afa60008301856142e5565b614b076020830184614ad6565b9392505050565b6000604082019050614b2360008301856142e5565b614b3060208301846142e5565b9392505050565b6000602082019050614b4c6000830184614ad6565b92915050565b6000614b5d82614270565b9050919050565b614b6d81614b52565b8114614b7857600080fd5b50565b600081359050614b8a81614b64565b92915050565b614b998161421a565b8114614ba457600080fd5b50565b600081359050614bb681614b90565b92915050565b600080600060608486031215614bd557614bd4614190565b5b6000614be386828701614b7b565b9350506020614bf486828701614ba7565b9250506040614c0586828701614ba7565b9150509250925092565b6000806000806000806103208789031215614c2d57614c2c614190565b5b6000614c3b89828a01614899565b965050610280614c4d89828a01614326565b9550506102a0614c5f89828a01614326565b9450506102c0614c7189828a01614326565b9350506102e0614c8389828a01614326565b925050610300614c9589828a01614326565b9150509295509295509295565b60008060408385031215614cb957614cb8614190565b5b6000614cc785828601614299565b9250506020614cd885828601614299565b9150509250929050565b600081519050919050565b600082825260208201905092915050565b6000819050602082019050919050565b6000614d1a838361447e565b60208301905092915050565b6000602082019050919050565b6000614d3e82614ce2565b614d488185614ced565b9350614d5383614cfe565b8060005b83811015614d84578151614d6b8882614d0e565b9750614d7683614d26565b925050600181019050614d57565b5085935050505092915050565b60006020820190508181036000830152614dab8184614d33565b905092915050565b6000606082019050614dc860008301866142e5565b614dd560208301856142e5565b614de260408301846142e5565b949350505050565b60006102808284031215614e0157614e00614190565b5b6000614e0f84828501614899565b91505092915050565b600060a082019050614e2d60008301886142e5565b614e3a60208301876142e5565b614e4760408301866142e5565b614e5460608301856142e5565b614e6160808301846142e5565b9695505050505050565b614e748161444e565b82525050565b614e8381614270565b82525050565b6000819050919050565b6000614eae614ea9614ea484614250565b614e89565b614250565b9050919050565b6000614ec082614e93565b9050919050565b6000614ed282614eb5565b9050919050565b614ee281614ec7565b82525050565b6000608082019050614efd6000830187614e6b565b614f0a60208301866142e5565b614f176040830185614e7a565b614f246060830184614ed9565b95945050505050565b7f4e487b7100000000000000000000000000000000000000000000000000000000600052603260045260246000fd5b600082825260208201905092915050565b7f3061646472000000000000000000000000000000000000000000000000000000600082015250565b6000614fa3600583614f5c565b9150614fae82614f6d565b602082019050919050565b60006020820190508181036000830152614fd281614f96565b9050919050565b7f4e487b7100000000000000000000000000000000000000000000000000000000600052601160045260246000fd5b6000615013826142db565b915061501e836142db565b925082820190508082111561503657615035614fd9565b5b92915050565b8082525050565b6000602082019050615058600083018461503c565b92915050565b60008151905061506d8161430f565b92915050565b60006020828403121561508957615088614190565b5b60006150978482850161505e565b91505092915050565b60006150ab8261448d565b91506150b68361448d565b9250828201905082811215600083121683821260008412151617156150de576150dd614fd9565b5b92915050565b6150ed816142db565b82525050565b600060408201905061510860008301856150e4565b61511560208301846150e4565b9392505050565b615125816143be565b82525050565b61513481614406565b82525050565b6151438161444e565b82525050565b61515281614270565b82525050565b615161816142db565b82525050565b6151708161448d565b82525050565b6102808201600082015161518d600085018261511c565b5060208201516151a0602085018261512b565b5060408201516151b3604085018261513a565b5060608201516151c66060850182615149565b5060808201516151d96080850182615158565b5060a08201516151ec60a0850182615158565b5060c08201516151ff60c0850182615158565b5060e082015161521260e0850182615158565b50610100820151615227610100850182615158565b5061012082015161523c610120850182615158565b50610140820151615251610140850182615158565b50610160820151615266610160850182615158565b5061018082015161527b610180850182615158565b506101a08201516152906101a0850182615158565b506101c08201516152a56101c0850182615158565b506101e08201516152ba6101e0850182615158565b506102008201516152cf610200850182615158565b506102208201516152e4610220850182615149565b506102408201516152f9610240850182615167565b5061026082015161530e610260850182615158565b50505050565b61531d8161448d565b82525050565b6000610320820190506153396000830189615176565b6153476102808301886150e4565b6153556102a08301876150e4565b6153636102c08301866150e4565b6153716102e0830185615314565b61537f6103008301846150e4565b979650505050505050565b6000815190506153998161486d565b92915050565b600080604083850312156153b6576153b5614190565b5b60006153c48582860161505e565b92505060206153d58582860161538a565b9150509250929050565b60006153ea826142db565b91506153f5836142db565b925082820390508181111561540d5761540c614fd9565b5b92915050565b600060608201905061542860008301866150e4565b61543560208301856150e4565b61544260408301846150e4565b949350505050565b60006102c0820190506154606000830186615176565b61546e6102808301856150e4565b61547c6102a08301846150e4565b949350505050565b7f416363657373436f6e74726f6c3a2063616e206f6e6c792072656e6f756e636560008201527f20726f6c657320666f722073656c660000000000000000000000000000000000602082015250565b60006154e0602f83614f5c565b91506154eb82615484565b604082019050919050565b6000602082019050818103600083015261550f816154d3565b9050919050565b600061552182614270565b9050919050565b61553181615516565b811461553c57600080fd5b50565b60008151905061554e81615528565b92915050565b60006020828403121561556a57615569614190565b5b60006155788482850161553f565b91505092915050565b600061558c82614270565b9050919050565b61559c81615581565b81146155a757600080fd5b50565b6000815190506155b981615593565b92915050565b6000602082840312156155d5576155d4614190565b5b60006155e3848285016155aa565b91505092915050565b60006155f782614eb5565b9050919050565b615607816155ec565b82525050565b600060408201905061562260008301856155fe565b61562f60208301846150e4565b9392505050565b60006156418261448d565b91507f8000000000000000000000000000000000000000000000000000000000000000820361567357615672614fd9565b5b816000039050919050565b60006040820190506156936000830185615314565b6156a06020830184615314565b9392505050565b60006156b28261448d565b91506156bd8361448d565b92508282039050818112600084121682821360008512151617156156e4576156e3614fd9565b5b92915050565b7f5a65726f2074656e6f7200000000000000000000000000000000000000000000600082015250565b6000615720600a83614f5c565b915061572b826156ea565b602082019050919050565b6000602082019050818103600083015261574f81615713565b9050919050565b600060408201905061576b600083018561503c565b61577860208301846150e4565b9392505050565b60006102e0820190506157956000830187615176565b6157a36102808301866150e4565b6157b16102a08301856150e4565b6157bf6102c08301846150e4565b95945050505050565b60006157d382614270565b9050919050565b6157e3816157c8565b81146157ee57600080fd5b50565b600081519050615800816157da565b92915050565b60006020828403121561581c5761581b614190565b5b600061582a848285016157f1565b91505092915050565b7f2d49440000000000000000000000000000000000000000000000000000000000600082015250565b6000615869600383614f5c565b915061587482615833565b602082019050919050565b600060208201905081810360008301526158988161585c565b9050919050565b600081905092915050565b7f416363657373436f6e74726f6c3a206163636f756e7420000000000000000000600082015250565b60006158e060178361589f565b91506158eb826158aa565b601782019050919050565b600081519050919050565b60005b8381101561591f578082015181840152602081019050615904565b60008484015250505050565b6000615936826158f6565b615940818561589f565b9350615950818560208601615901565b80840191505092915050565b7f206973206d697373696e6720726f6c6520000000000000000000000000000000600082015250565b600061599260118361589f565b915061599d8261595c565b601182019050919050565b60006159b3826158d3565b91506159bf828561592b565b91506159ca82615985565b91506159d6828461592b565b91508190509392505050565b60006159ed826158f6565b6159f78185614f5c565b9350615a07818560208601615901565b615a1081614772565b840191505092915050565b60006020820190508181036000830152615a3581846159e2565b905092915050565b7f4e487b7100000000000000000000000000000000000000000000000000000000600052603160045260246000fd5b6000615a77826142db565b9150615a82836142db565b9250828202615a90816142db565b91508282048414831517615aa757615aa6614fd9565b5b5092915050565b6000615ab9826142db565b915060008203615acc57615acb614fd9565b5b600182039050919050565b7f537472696e67733a20686578206c656e67746820696e73756666696369656e74600082015250565b6000615b0d602083614f5c565b9150615b1882615ad7565b602082019050919050565b60006020820190508181036000830152615b3c81615b00565b905091905056fea2646970667358221220bc9dc760b30ebab16fb881bf03c90710cd6226615755a66261a3aec8ec77dc9f64736f6c63430008110033",
  "immutableReferences": {},
  "source": "// SPDX-License-Identifier: MIT\npragma solidity 0.8.17;\n\nimport \"@openzeppelin/contracts/access/AccessControl.sol\";\nimport \"@openzeppelin/contracts/utils/structs/EnumerableSet.sol\";\nimport \"./libraries/MarketLib.sol\";\nimport \"./libraries/OptionLib.sol\";\nimport \"./libraries/MathLib.sol\";\nimport \"./interfaces/EOption.sol\";\nimport \"./pools/Pool.sol\";\nimport \"./pools/MarketMaker.sol\";\nimport \"./VolatilityChain.sol\";\nimport \"./VolatilityToken.sol\";\n\ncontract OptionVault is EOption, AccessControl{\n  using MathLib for uint256;\n  using MathLib for int256;\n  using MarketLib for uint256;\n  using MarketLib for MarketMaker;\n  \n  using OptionLib for OptionLib.Option;\n  using EnumerableSet for EnumerableSet.UintSet;\n\n  bytes32 public constant EXCHANGE = keccak256(\"EXCHANGE\");\n  \n  // list of option contracts\n  OptionLib.Option[] internal aOption;\n  mapping(address=>mapping(address=> EnumerableSet.UintSet)) internal mHolderAtiveOption;\n  mapping(address=>EnumerableSet.UintSet) internal mActiveOption;\n  mapping(address=>uint256) public mUnderCollateral;\n  mapping(address=>uint256) public mFundCollateral;\n  mapping(address=>uint256) public mShortPremiums;\n  mapping(address=>int256) public mExposureUp;\n  mapping(address=>int256) public mExposureDown;\n\n  // immutable and constant values\n  uint256 internal constant BASE  = 1e18;\n  uint256 internal constant SCALING = 1e5;\n  uint256 internal constant SECONDS_1Y = 31536000; // 86400 * 365\n\n  // constructor\n  constructor(){\n    _setupRole(DEFAULT_ADMIN_ROLE, msg.sender); }\n  \n  // functions to get information of the option list -> ONLY USED in VIEW, gas cost unlimited\n  function getHolderOptions(address _pool, address _address) external view returns(uint256[] memory){\n    return mHolderAtiveOption[_pool][_address].values();}\n  function getOption(uint256 _id) public view returns(OptionLib.Option memory) {return aOption[_id];}\n  function getActiveOptionCount(address _poolAddress) public view returns(uint256) {return mActiveOption[_poolAddress].length();}\n  function getActiveOptions(address _poolAddress) external view returns(uint256[] memory) {return mActiveOption[_poolAddress].values();}\n\n  function getOptionInfo(uint256 _id) external view returns(OptionLib.OptionStatus, uint256, address, Pool) {\n    require(_id< aOption.length, '-ID');\n    return (aOption[_id].status, aOption[_id].maturity, aOption[_id].holder, Pool(aOption[_id].pool));}\n\n  // function to add new option contracts, only executable by Exchange contract as owner\n  // arguments: option contracts (in struct), premium (in funding token decimals), collateral (in funding token decimals), price (in price source decimals), volatility (in default decimals 18)\n  // return id of option contract\n  function addOption(OptionLib.Option memory _option, uint256 _premium, uint256 _collateral, uint256 _price, uint256 _vol, uint256 _fee) external onlyRole(EXCHANGE) returns(uint256 _id){\n    require(_option.tenor > 0, \"Zero tenor\");\n    _id = aOption.length;\n    Pool _pool = Pool(_option.pool);\n    VolatilityChain _volChain = _pool.marketMaker().getVolatilityChain();\n    (, int256 _exposure) = calcOptionExposure(_option, _price, _volChain.queryVol(_option.tenor), calcCapital(_pool, false, false).ethdiv(_price));\n    \n    // Arguments: option type, option side, contract status (default to draft), contract holder address, contract id, creation timestamp, effective timestamp (default to 0), tenor in seconds, maturity timestamp (default to 0), excersie timestamp (default to 0), amount or size of contract, current spot price, option strike, implied volatility, calculated premium and total cost including collaterals.\n    aOption.push(OptionLib.Option(_option.poType, _option.side, OptionLib.OptionStatus.Draft, _option.holder, _id, block.timestamp,  0, _option.tenor, 0,  0, _option.amount, _price, _option.strike, _option.spread, _vol, _premium, _collateral, _option.pool, _exposure, _fee));}\n\n  // function to stamp option as an active contract, only executable by Exchange contract as owner\n  // arguments: contract id and holder address\n  function stampActiveOption(uint256 _id, address _holder) external onlyRole(EXCHANGE){\n    require(_holder != address(0), \"0addr\"); \n\n    // update Option records\n    OptionLib.Option storage _option = aOption[_id];\n    _option.effectiveTime = block.timestamp;\n    _option.maturity = block.timestamp + _option.tenor;\n    _option.status = OptionLib.OptionStatus.Active;\n    \n    // update ownership and exposure records\n    address _poolAddress = _option.pool;\n    mUnderCollateral[_poolAddress] += _option.getUnderCollateral();\n    mFundCollateral[_poolAddress] += _option.sellFundCollateral();\n    mShortPremiums[_poolAddress] += _option.side == OptionLib.OptionSide.Sell? _option.premium: 0;\n\n    if(_option.poType == OptionLib.PayoffType.Call || _option.poType == OptionLib.PayoffType.CallSpread){\n      mExposureUp[_poolAddress] += _option.exposure;}\n    else{\n      mExposureDown[_poolAddress] += _option.exposure;}\n\n    mHolderAtiveOption[_poolAddress][_holder].add(_id);\n    mActiveOption[_poolAddress].add(_id);}\n\n  // function to stamp option as an expired contract, only executable by Exchange contract as owner\n  // arguments: contract id\n  function stampExpiredOption(uint256 _id)  external onlyRole(EXCHANGE){\n    // update Option records\n    OptionLib.Option storage _option = aOption[_id];\n    address _poolAddress = _option.pool;\n    address _holder = _option.holder;\n    mActiveOption[_poolAddress].remove(_id);\n    mHolderAtiveOption[_poolAddress][_holder].remove(_id);\n\n    mUnderCollateral[_poolAddress] -= Math.min(mUnderCollateral[_poolAddress], _option.getUnderCollateral());\n    mFundCollateral[_poolAddress] -= Math.min(mFundCollateral[_poolAddress], _option.sellFundCollateral());\n    mShortPremiums[_poolAddress] -= Math.min(mShortPremiums[_poolAddress], _option.side == OptionLib.OptionSide.Sell? _option.premium: 0);\n\n    if(_option.poType == OptionLib.PayoffType.Call || _option.poType == OptionLib.PayoffType.CallSpread){\n      mExposureUp[_poolAddress] -= _option.exposure;}\n    else{\n      mExposureDown[_poolAddress] -= _option.exposure;}\n   \n    _option.status = (msg.sender == _option.holder)? OptionLib.OptionStatus.Exercised: OptionLib.OptionStatus.Expired;\n    _option.exerciseTime = block.timestamp;\n  }\n\n  // contract payoff of specified contract ID\n  function getContractPayoff(uint256 _id) external view returns(uint256 _toHolder, uint256 _toProtocol, uint256 _toExerciser){\n    Pool _pool = Pool(aOption[_id].pool);\n    VolatilityChain _volChain = _pool.marketMaker().getVolatilityChain();\n    uint256 _price = _volChain.queryPrice();\n    \n    \n    _toHolder = aOption[_id].calcPayoff(_price);\n    _toProtocol = aOption[_id].fee;\n    _toExerciser = aOption[_id].amount.ethmul(_price).muldiv(aOption[_id].tenor, SECONDS_1Y).ethmul(_pool.exerciseFee());\n    \n    if(aOption[_id].side == OptionLib.OptionSide.Buy){\n      _toHolder = _toHolder - Math.min(_toHolder, _toExerciser);\n    }\n  }\n\n  // contract unwind value of specified contract ID. no exerciser as only holder can unwind exiting contract\n  function calcOptionUnwindValue(uint256 _id) external view returns(uint256 _toHolder, uint256 _toProtocol){\n    OptionLib.Option memory _option = getOption(_id);\n    bool isBuyOption = _option.side == OptionLib.OptionSide.Buy;\n    _option.side = isBuyOption? OptionLib.OptionSide.Sell: OptionLib.OptionSide.Buy;\n    \n    (uint256 _premium, , uint256 _price , , ) = calcOptionCost(_option);\n    uint256 _feeProrata = _option.fee.muldiv(((_option.effectiveTime > 0) && (_option.maturity > _option.effectiveTime)) ? Math.min(_option.tenor, Math.max(block.timestamp, _option.maturity) - _option.effectiveTime): _option.tenor, _option.tenor);\n\n    _toHolder = isBuyOption? _premium: (_option.calcCollateral(_price, _premium) - _premium ); // collateral for buy backs\n    _toHolder = _toHolder + _option.fee - _feeProrata;\n    _toProtocol = _feeProrata;\n  }\n\n  function calcOptionCost(OptionLib.Option memory _option) public view returns(uint256 _premium, uint256 _collateral, uint256 _price, uint256 _annualisedVol, uint256 _fee){\n    Pool _pool = Pool(_option.pool);\n    MarketMaker _market = _pool.marketMaker();\n    VolatilityChain _volChain = _market.getVolatilityChain();\n    _price = _volChain.queryPrice();\n\n    (uint256 _impVol, ) = calcOptionExposure(_option, _price, _volChain.queryVol(_option.tenor), calcCapital(_pool, false, false).ethdiv(_price));\n    \n    _annualisedVol = _impVol.ethmul(_volChain.getSqrtRatio(_option.tenor));\n    _premium = _option.calcPremium(_price, _impVol, _market.loanInterest());\n    _collateral = _option.side == OptionLib.OptionSide.Sell? _option.calcCollateral(_price, _premium): 0;\n    _fee = _option.amount.ethmul(_price).muldiv(_option.tenor, SECONDS_1Y).ethmul(_market.govToken().protocolFee());\n  }\n\n  function calcOptionExposure(OptionLib.Option memory _option, uint256 _price, uint256 _volT, uint256 _maxExposure) public view returns(uint256, int256){\n    Pool _pool = Pool(_option.pool);\n    uint256 _exposureSigma = _pool.exposureSigma();\n    uint256 _capacityFactor = _pool.volCapacityFactor();\n    if(_option.poType == OptionLib.PayoffType.Call || _option.poType == OptionLib.PayoffType.CallSpread){\n      uint256 _priceAfter = _price.ethmul(BASE + _volT.ethmul(_exposureSigma));\n      int256 _currentExposure = mExposureUp[_option.pool];\n      return _option.quoteCallVol(_priceAfter, _volT, _capacityFactor, _currentExposure , _maxExposure);  \n    }\n    else{\n      uint256 _priceAfter = _price.ethdiv(BASE + _volT.ethmul(_exposureSigma));\n      int256 _currentExposure = mExposureDown[_option.pool];\n      return _option.quotePutVol(_priceAfter, _volT, _capacityFactor, _currentExposure, _maxExposure);  \n    }\n  }\n    \n  // functions related to capital calculation, addition and removals\n  // calculate capitals. Arguments: pool address, net for net capital (removing all collaterals and max exposures of option contracts) or gross (including all exposures in the underlying and funding tokens), average for average capital (total divided by number of Pool tokens) or gross (not divided by tokens)\n  function calcCapital(Pool _pool, bool _net, bool _average) public view returns(uint256){\n    MarketMaker _market = _pool.marketMaker();\n    VolatilityChain _volChain = _market.getVolatilityChain();\n    uint256 _price = _volChain.queryPrice();\n    uint256 _capital = _market.getGrossCapital(_price);\n\n    address _poolAddress = address(_pool);\n    uint256 _collateral = mUnderCollateral[_poolAddress].ethmul(_price) + mFundCollateral[_poolAddress];\n    _capital = _capital - Math.min(_collateral, _capital) + mShortPremiums[_poolAddress];\n    \n    if(_net){ \n      uint256 _exposure = mExposureUp[_poolAddress].absmax(-mExposureDown[_poolAddress]).ethmul(_price);\n      _capital -= Math.min(_exposure, _capital);}\n\n    if(_average){ \n      uint256 _poolSupply = _pool.totalSupply();\n      if(_poolSupply > 0) {\n        _capital = _capital.ethdiv(_poolSupply); }\n      else if(_poolSupply == 0 && _capital == 0) {\n        _capital = BASE;}}\n    \n    return _capital;\n  }\n}\n",
  "sourcePath": "/Users/mac/Documents/GitHub/moret/contracts/OptionVault.sol",
  "compiler": {
    "name": "solc",
    "version": "0.8.17+commit.8df45f5f.Emscripten.clang"
  },
  "schemaVersion": "3.4.3",
  "updatedAt": "2023-02-23T21:13:11.370Z",
  "networkType": "ethereum",
  "devdoc": {
    "kind": "dev",
    "methods": {
      "getRoleAdmin(bytes32)": {
        "details": "Returns the admin role that controls `role`. See {grantRole} and {revokeRole}. To change a role's admin, use {_setRoleAdmin}."
      },
      "grantRole(bytes32,address)": {
        "details": "Grants `role` to `account`. If `account` had not been already granted `role`, emits a {RoleGranted} event. Requirements: - the caller must have ``role``'s admin role."
      },
      "hasRole(bytes32,address)": {
        "details": "Returns `true` if `account` has been granted `role`."
      },
      "renounceRole(bytes32,address)": {
        "details": "Revokes `role` from the calling account. Roles are often managed via {grantRole} and {revokeRole}: this function's purpose is to provide a mechanism for accounts to lose their privileges if they are compromised (such as when a trusted device is misplaced). If the calling account had been revoked `role`, emits a {RoleRevoked} event. Requirements: - the caller must be `account`."
      },
      "revokeRole(bytes32,address)": {
        "details": "Revokes `role` from `account`. If `account` had been granted `role`, emits a {RoleRevoked} event. Requirements: - the caller must have ``role``'s admin role."
      },
      "supportsInterface(bytes4)": {
        "details": "See {IERC165-supportsInterface}."
      }
    },
    "version": 1
  },
  "userdoc": {
    "kind": "user",
    "methods": {},
    "version": 1
  }
}