{
  "contractName": "OptionVault",
  "abi": [
    {
      "inputs": [],
      "stateMutability": "nonpayable",
      "type": "constructor"
    },
    {
      "anonymous": false,
      "inputs": [
        {
          "indexed": true,
          "internalType": "address",
          "name": "_bot",
          "type": "address"
        },
        {
          "indexed": true,
          "internalType": "address",
          "name": "_exchange",
          "type": "address"
        },
        {
          "indexed": false,
          "internalType": "address",
          "name": "_holder",
          "type": "address"
        },
        {
          "indexed": false,
          "internalType": "uint256",
          "name": "_id",
          "type": "uint256"
        },
        {
          "indexed": false,
          "internalType": "uint256",
          "name": "_payoff",
          "type": "uint256"
        }
      ],
      "name": "Expire",
      "type": "event"
    },
    {
      "anonymous": false,
      "inputs": [
        {
          "indexed": true,
          "internalType": "address",
          "name": "_hedger",
          "type": "address"
        },
        {
          "indexed": true,
          "internalType": "address",
          "name": "_market",
          "type": "address"
        },
        {
          "indexed": false,
          "internalType": "bool",
          "name": "success",
          "type": "bool"
        },
        {
          "indexed": false,
          "internalType": "bytes",
          "name": "data",
          "type": "bytes"
        }
      ],
      "name": "HedgeResponse",
      "type": "event"
    },
    {
      "anonymous": false,
      "inputs": [
        {
          "indexed": true,
          "internalType": "address",
          "name": "_hedger",
          "type": "address"
        },
        {
          "indexed": true,
          "internalType": "address",
          "name": "_market",
          "type": "address"
        },
        {
          "indexed": false,
          "internalType": "uint256[]",
          "name": "amounts",
          "type": "uint256[]"
        }
      ],
      "name": "HedgeSwapResponse",
      "type": "event"
    },
    {
      "anonymous": false,
      "inputs": [
        {
          "indexed": false,
          "internalType": "address",
          "name": "_newBot",
          "type": "address"
        }
      ],
      "name": "ResetBotAddress",
      "type": "event"
    },
    {
      "anonymous": false,
      "inputs": [
        {
          "indexed": true,
          "internalType": "uint256",
          "name": "_parameterId",
          "type": "uint256"
        },
        {
          "indexed": false,
          "internalType": "uint256",
          "name": "_parameter",
          "type": "uint256"
        }
      ],
      "name": "ResetParameter",
      "type": "event"
    },
    {
      "anonymous": false,
      "inputs": [
        {
          "indexed": true,
          "internalType": "address",
          "name": "_exchange",
          "type": "address"
        },
        {
          "indexed": false,
          "internalType": "bool",
          "name": "_tradingAllowed",
          "type": "bool"
        }
      ],
      "name": "ResetTradingStatus",
      "type": "event"
    },
    {
      "anonymous": false,
      "inputs": [
        {
          "indexed": true,
          "internalType": "bytes32",
          "name": "role",
          "type": "bytes32"
        },
        {
          "indexed": true,
          "internalType": "bytes32",
          "name": "previousAdminRole",
          "type": "bytes32"
        },
        {
          "indexed": true,
          "internalType": "bytes32",
          "name": "newAdminRole",
          "type": "bytes32"
        }
      ],
      "name": "RoleAdminChanged",
      "type": "event"
    },
    {
      "anonymous": false,
      "inputs": [
        {
          "indexed": true,
          "internalType": "bytes32",
          "name": "role",
          "type": "bytes32"
        },
        {
          "indexed": true,
          "internalType": "address",
          "name": "account",
          "type": "address"
        },
        {
          "indexed": true,
          "internalType": "address",
          "name": "sender",
          "type": "address"
        }
      ],
      "name": "RoleGranted",
      "type": "event"
    },
    {
      "anonymous": false,
      "inputs": [
        {
          "indexed": true,
          "internalType": "bytes32",
          "name": "role",
          "type": "bytes32"
        },
        {
          "indexed": true,
          "internalType": "address",
          "name": "account",
          "type": "address"
        },
        {
          "indexed": true,
          "internalType": "address",
          "name": "sender",
          "type": "address"
        }
      ],
      "name": "RoleRevoked",
      "type": "event"
    },
    {
      "anonymous": false,
      "inputs": [
        {
          "indexed": true,
          "internalType": "address",
          "name": "_purchaser",
          "type": "address"
        },
        {
          "indexed": true,
          "internalType": "address",
          "name": "_exchange",
          "type": "address"
        },
        {
          "indexed": false,
          "internalType": "uint256",
          "name": "_cost",
          "type": "uint256"
        },
        {
          "indexed": false,
          "internalType": "uint256",
          "name": "_volAmount",
          "type": "uint256"
        },
        {
          "indexed": false,
          "internalType": "bool",
          "name": "_isPurchase",
          "type": "bool"
        }
      ],
      "name": "TradeVolatility",
      "type": "event"
    },
    {
      "inputs": [],
      "name": "DEFAULT_ADMIN_ROLE",
      "outputs": [
        {
          "internalType": "bytes32",
          "name": "",
          "type": "bytes32"
        }
      ],
      "stateMutability": "view",
      "type": "function",
      "constant": true
    },
    {
      "inputs": [],
      "name": "EXCHANGE",
      "outputs": [
        {
          "internalType": "bytes32",
          "name": "",
          "type": "bytes32"
        }
      ],
      "stateMutability": "view",
      "type": "function",
      "constant": true
    },
    {
      "inputs": [
        {
          "internalType": "bytes32",
          "name": "role",
          "type": "bytes32"
        }
      ],
      "name": "getRoleAdmin",
      "outputs": [
        {
          "internalType": "bytes32",
          "name": "",
          "type": "bytes32"
        }
      ],
      "stateMutability": "view",
      "type": "function",
      "constant": true
    },
    {
      "inputs": [
        {
          "internalType": "bytes32",
          "name": "role",
          "type": "bytes32"
        },
        {
          "internalType": "address",
          "name": "account",
          "type": "address"
        }
      ],
      "name": "grantRole",
      "outputs": [],
      "stateMutability": "nonpayable",
      "type": "function"
    },
    {
      "inputs": [
        {
          "internalType": "bytes32",
          "name": "role",
          "type": "bytes32"
        },
        {
          "internalType": "address",
          "name": "account",
          "type": "address"
        }
      ],
      "name": "hasRole",
      "outputs": [
        {
          "internalType": "bool",
          "name": "",
          "type": "bool"
        }
      ],
      "stateMutability": "view",
      "type": "function",
      "constant": true
    },
    {
      "inputs": [
        {
          "internalType": "address",
          "name": "",
          "type": "address"
        }
      ],
      "name": "mExposureDown",
      "outputs": [
        {
          "internalType": "int256",
          "name": "",
          "type": "int256"
        }
      ],
      "stateMutability": "view",
      "type": "function",
      "constant": true
    },
    {
      "inputs": [
        {
          "internalType": "address",
          "name": "",
          "type": "address"
        }
      ],
      "name": "mExposureUp",
      "outputs": [
        {
          "internalType": "int256",
          "name": "",
          "type": "int256"
        }
      ],
      "stateMutability": "view",
      "type": "function",
      "constant": true
    },
    {
      "inputs": [
        {
          "internalType": "address",
          "name": "",
          "type": "address"
        }
      ],
      "name": "mFundCollateral",
      "outputs": [
        {
          "internalType": "uint256",
          "name": "",
          "type": "uint256"
        }
      ],
      "stateMutability": "view",
      "type": "function",
      "constant": true
    },
    {
      "inputs": [
        {
          "internalType": "address",
          "name": "",
          "type": "address"
        }
      ],
      "name": "mUnderCollateral",
      "outputs": [
        {
          "internalType": "uint256",
          "name": "",
          "type": "uint256"
        }
      ],
      "stateMutability": "view",
      "type": "function",
      "constant": true
    },
    {
      "inputs": [
        {
          "internalType": "bytes32",
          "name": "role",
          "type": "bytes32"
        },
        {
          "internalType": "address",
          "name": "account",
          "type": "address"
        }
      ],
      "name": "renounceRole",
      "outputs": [],
      "stateMutability": "nonpayable",
      "type": "function"
    },
    {
      "inputs": [
        {
          "internalType": "bytes32",
          "name": "role",
          "type": "bytes32"
        },
        {
          "internalType": "address",
          "name": "account",
          "type": "address"
        }
      ],
      "name": "revokeRole",
      "outputs": [],
      "stateMutability": "nonpayable",
      "type": "function"
    },
    {
      "inputs": [
        {
          "internalType": "bytes4",
          "name": "interfaceId",
          "type": "bytes4"
        }
      ],
      "name": "supportsInterface",
      "outputs": [
        {
          "internalType": "bool",
          "name": "",
          "type": "bool"
        }
      ],
      "stateMutability": "view",
      "type": "function",
      "constant": true
    },
    {
      "inputs": [
        {
          "components": [
            {
              "internalType": "enum OptionLib.PayoffType",
              "name": "poType",
              "type": "uint8"
            },
            {
              "internalType": "enum OptionLib.OptionSide",
              "name": "side",
              "type": "uint8"
            },
            {
              "internalType": "enum OptionLib.OptionStatus",
              "name": "status",
              "type": "uint8"
            },
            {
              "internalType": "address",
              "name": "holder",
              "type": "address"
            },
            {
              "internalType": "uint256",
              "name": "id",
              "type": "uint256"
            },
            {
              "internalType": "uint256",
              "name": "createTime",
              "type": "uint256"
            },
            {
              "internalType": "uint256",
              "name": "effectiveTime",
              "type": "uint256"
            },
            {
              "internalType": "uint256",
              "name": "tenor",
              "type": "uint256"
            },
            {
              "internalType": "uint256",
              "name": "maturity",
              "type": "uint256"
            },
            {
              "internalType": "uint256",
              "name": "exerciseTime",
              "type": "uint256"
            },
            {
              "internalType": "uint256",
              "name": "amount",
              "type": "uint256"
            },
            {
              "internalType": "uint256",
              "name": "spot",
              "type": "uint256"
            },
            {
              "internalType": "uint256",
              "name": "strike",
              "type": "uint256"
            },
            {
              "internalType": "uint256",
              "name": "spread",
              "type": "uint256"
            },
            {
              "internalType": "uint256",
              "name": "volatility",
              "type": "uint256"
            },
            {
              "internalType": "uint256",
              "name": "premium",
              "type": "uint256"
            },
            {
              "internalType": "uint256",
              "name": "cost",
              "type": "uint256"
            },
            {
              "internalType": "address",
              "name": "pool",
              "type": "address"
            },
            {
              "internalType": "int256",
              "name": "exposure",
              "type": "int256"
            }
          ],
          "internalType": "struct OptionLib.Option",
          "name": "_option",
          "type": "tuple"
        },
        {
          "internalType": "uint256",
          "name": "_premium",
          "type": "uint256"
        },
        {
          "internalType": "uint256",
          "name": "_collateral",
          "type": "uint256"
        },
        {
          "internalType": "uint256",
          "name": "_price",
          "type": "uint256"
        },
        {
          "internalType": "uint256",
          "name": "_vol",
          "type": "uint256"
        },
        {
          "internalType": "int256",
          "name": "_exposure",
          "type": "int256"
        }
      ],
      "name": "addOption",
      "outputs": [
        {
          "internalType": "uint256",
          "name": "_id",
          "type": "uint256"
        }
      ],
      "stateMutability": "nonpayable",
      "type": "function"
    },
    {
      "inputs": [
        {
          "internalType": "uint256",
          "name": "_id",
          "type": "uint256"
        },
        {
          "internalType": "address",
          "name": "_holder",
          "type": "address"
        }
      ],
      "name": "stampActiveOption",
      "outputs": [],
      "stateMutability": "nonpayable",
      "type": "function"
    },
    {
      "inputs": [
        {
          "internalType": "uint256",
          "name": "_id",
          "type": "uint256"
        }
      ],
      "name": "stampExpiredOption",
      "outputs": [],
      "stateMutability": "nonpayable",
      "type": "function"
    },
    {
      "inputs": [
        {
          "internalType": "address",
          "name": "_pool",
          "type": "address"
        },
        {
          "internalType": "address",
          "name": "_address",
          "type": "address"
        }
      ],
      "name": "getHolderOptions",
      "outputs": [
        {
          "internalType": "uint256[]",
          "name": "",
          "type": "uint256[]"
        }
      ],
      "stateMutability": "view",
      "type": "function",
      "constant": true
    },
    {
      "inputs": [
        {
          "internalType": "uint256",
          "name": "_id",
          "type": "uint256"
        }
      ],
      "name": "getOption",
      "outputs": [
        {
          "components": [
            {
              "internalType": "enum OptionLib.PayoffType",
              "name": "poType",
              "type": "uint8"
            },
            {
              "internalType": "enum OptionLib.OptionSide",
              "name": "side",
              "type": "uint8"
            },
            {
              "internalType": "enum OptionLib.OptionStatus",
              "name": "status",
              "type": "uint8"
            },
            {
              "internalType": "address",
              "name": "holder",
              "type": "address"
            },
            {
              "internalType": "uint256",
              "name": "id",
              "type": "uint256"
            },
            {
              "internalType": "uint256",
              "name": "createTime",
              "type": "uint256"
            },
            {
              "internalType": "uint256",
              "name": "effectiveTime",
              "type": "uint256"
            },
            {
              "internalType": "uint256",
              "name": "tenor",
              "type": "uint256"
            },
            {
              "internalType": "uint256",
              "name": "maturity",
              "type": "uint256"
            },
            {
              "internalType": "uint256",
              "name": "exerciseTime",
              "type": "uint256"
            },
            {
              "internalType": "uint256",
              "name": "amount",
              "type": "uint256"
            },
            {
              "internalType": "uint256",
              "name": "spot",
              "type": "uint256"
            },
            {
              "internalType": "uint256",
              "name": "strike",
              "type": "uint256"
            },
            {
              "internalType": "uint256",
              "name": "spread",
              "type": "uint256"
            },
            {
              "internalType": "uint256",
              "name": "volatility",
              "type": "uint256"
            },
            {
              "internalType": "uint256",
              "name": "premium",
              "type": "uint256"
            },
            {
              "internalType": "uint256",
              "name": "cost",
              "type": "uint256"
            },
            {
              "internalType": "address",
              "name": "pool",
              "type": "address"
            },
            {
              "internalType": "int256",
              "name": "exposure",
              "type": "int256"
            }
          ],
          "internalType": "struct OptionLib.Option",
          "name": "",
          "type": "tuple"
        }
      ],
      "stateMutability": "view",
      "type": "function",
      "constant": true
    },
    {
      "inputs": [
        {
          "internalType": "address",
          "name": "_poolAddress",
          "type": "address"
        }
      ],
      "name": "getActiveOptionCount",
      "outputs": [
        {
          "internalType": "uint256",
          "name": "",
          "type": "uint256"
        }
      ],
      "stateMutability": "view",
      "type": "function",
      "constant": true
    },
    {
      "inputs": [
        {
          "internalType": "address",
          "name": "_poolAddress",
          "type": "address"
        }
      ],
      "name": "getActiveOptions",
      "outputs": [
        {
          "internalType": "uint256[]",
          "name": "",
          "type": "uint256[]"
        }
      ],
      "stateMutability": "view",
      "type": "function",
      "constant": true
    },
    {
      "inputs": [
        {
          "internalType": "uint256",
          "name": "_id",
          "type": "uint256"
        }
      ],
      "name": "getOptionInfo",
      "outputs": [
        {
          "internalType": "enum OptionLib.OptionStatus",
          "name": "",
          "type": "uint8"
        },
        {
          "internalType": "enum OptionLib.OptionSide",
          "name": "",
          "type": "uint8"
        },
        {
          "internalType": "address",
          "name": "",
          "type": "address"
        },
        {
          "internalType": "contract Pool",
          "name": "",
          "type": "address"
        }
      ],
      "stateMutability": "view",
      "type": "function",
      "constant": true
    },
    {
      "inputs": [
        {
          "internalType": "uint256",
          "name": "_id",
          "type": "uint256"
        }
      ],
      "name": "getContractPayoff",
      "outputs": [
        {
          "internalType": "uint256",
          "name": "_payoff",
          "type": "uint256"
        },
        {
          "internalType": "uint256",
          "name": "_payback",
          "type": "uint256"
        },
        {
          "internalType": "uint256",
          "name": "_collateral",
          "type": "uint256"
        }
      ],
      "stateMutability": "view",
      "type": "function",
      "constant": true
    },
    {
      "inputs": [
        {
          "internalType": "address",
          "name": "_poolAddress",
          "type": "address"
        }
      ],
      "name": "anyOptionExpiring",
      "outputs": [
        {
          "internalType": "bool",
          "name": "_isExpiring",
          "type": "bool"
        }
      ],
      "stateMutability": "view",
      "type": "function",
      "constant": true
    },
    {
      "inputs": [
        {
          "internalType": "address",
          "name": "_poolAddress",
          "type": "address"
        }
      ],
      "name": "getExpiringOptionId",
      "outputs": [
        {
          "internalType": "uint256",
          "name": "_id",
          "type": "uint256"
        }
      ],
      "stateMutability": "view",
      "type": "function",
      "constant": true
    },
    {
      "inputs": [
        {
          "components": [
            {
              "internalType": "enum OptionLib.PayoffType",
              "name": "poType",
              "type": "uint8"
            },
            {
              "internalType": "enum OptionLib.OptionSide",
              "name": "side",
              "type": "uint8"
            },
            {
              "internalType": "enum OptionLib.OptionStatus",
              "name": "status",
              "type": "uint8"
            },
            {
              "internalType": "address",
              "name": "holder",
              "type": "address"
            },
            {
              "internalType": "uint256",
              "name": "id",
              "type": "uint256"
            },
            {
              "internalType": "uint256",
              "name": "createTime",
              "type": "uint256"
            },
            {
              "internalType": "uint256",
              "name": "effectiveTime",
              "type": "uint256"
            },
            {
              "internalType": "uint256",
              "name": "tenor",
              "type": "uint256"
            },
            {
              "internalType": "uint256",
              "name": "maturity",
              "type": "uint256"
            },
            {
              "internalType": "uint256",
              "name": "exerciseTime",
              "type": "uint256"
            },
            {
              "internalType": "uint256",
              "name": "amount",
              "type": "uint256"
            },
            {
              "internalType": "uint256",
              "name": "spot",
              "type": "uint256"
            },
            {
              "internalType": "uint256",
              "name": "strike",
              "type": "uint256"
            },
            {
              "internalType": "uint256",
              "name": "spread",
              "type": "uint256"
            },
            {
              "internalType": "uint256",
              "name": "volatility",
              "type": "uint256"
            },
            {
              "internalType": "uint256",
              "name": "premium",
              "type": "uint256"
            },
            {
              "internalType": "uint256",
              "name": "cost",
              "type": "uint256"
            },
            {
              "internalType": "address",
              "name": "pool",
              "type": "address"
            },
            {
              "internalType": "int256",
              "name": "exposure",
              "type": "int256"
            }
          ],
          "internalType": "struct OptionLib.Option",
          "name": "_option",
          "type": "tuple"
        }
      ],
      "name": "calcOptionCost",
      "outputs": [
        {
          "internalType": "uint256",
          "name": "_premium",
          "type": "uint256"
        },
        {
          "internalType": "uint256",
          "name": "_collateral",
          "type": "uint256"
        },
        {
          "internalType": "uint256",
          "name": "_price",
          "type": "uint256"
        },
        {
          "internalType": "uint256",
          "name": "_annualisedVol",
          "type": "uint256"
        },
        {
          "internalType": "int256",
          "name": "_exposure",
          "type": "int256"
        }
      ],
      "stateMutability": "view",
      "type": "function",
      "constant": true
    },
    {
      "inputs": [
        {
          "components": [
            {
              "internalType": "enum OptionLib.PayoffType",
              "name": "poType",
              "type": "uint8"
            },
            {
              "internalType": "enum OptionLib.OptionSide",
              "name": "side",
              "type": "uint8"
            },
            {
              "internalType": "enum OptionLib.OptionStatus",
              "name": "status",
              "type": "uint8"
            },
            {
              "internalType": "address",
              "name": "holder",
              "type": "address"
            },
            {
              "internalType": "uint256",
              "name": "id",
              "type": "uint256"
            },
            {
              "internalType": "uint256",
              "name": "createTime",
              "type": "uint256"
            },
            {
              "internalType": "uint256",
              "name": "effectiveTime",
              "type": "uint256"
            },
            {
              "internalType": "uint256",
              "name": "tenor",
              "type": "uint256"
            },
            {
              "internalType": "uint256",
              "name": "maturity",
              "type": "uint256"
            },
            {
              "internalType": "uint256",
              "name": "exerciseTime",
              "type": "uint256"
            },
            {
              "internalType": "uint256",
              "name": "amount",
              "type": "uint256"
            },
            {
              "internalType": "uint256",
              "name": "spot",
              "type": "uint256"
            },
            {
              "internalType": "uint256",
              "name": "strike",
              "type": "uint256"
            },
            {
              "internalType": "uint256",
              "name": "spread",
              "type": "uint256"
            },
            {
              "internalType": "uint256",
              "name": "volatility",
              "type": "uint256"
            },
            {
              "internalType": "uint256",
              "name": "premium",
              "type": "uint256"
            },
            {
              "internalType": "uint256",
              "name": "cost",
              "type": "uint256"
            },
            {
              "internalType": "address",
              "name": "pool",
              "type": "address"
            },
            {
              "internalType": "int256",
              "name": "exposure",
              "type": "int256"
            }
          ],
          "internalType": "struct OptionLib.Option",
          "name": "_option",
          "type": "tuple"
        }
      ],
      "name": "getPrice",
      "outputs": [
        {
          "internalType": "uint256",
          "name": "_price",
          "type": "uint256"
        }
      ],
      "stateMutability": "view",
      "type": "function",
      "constant": true
    },
    {
      "inputs": [
        {
          "components": [
            {
              "internalType": "enum OptionLib.PayoffType",
              "name": "poType",
              "type": "uint8"
            },
            {
              "internalType": "enum OptionLib.OptionSide",
              "name": "side",
              "type": "uint8"
            },
            {
              "internalType": "enum OptionLib.OptionStatus",
              "name": "status",
              "type": "uint8"
            },
            {
              "internalType": "address",
              "name": "holder",
              "type": "address"
            },
            {
              "internalType": "uint256",
              "name": "id",
              "type": "uint256"
            },
            {
              "internalType": "uint256",
              "name": "createTime",
              "type": "uint256"
            },
            {
              "internalType": "uint256",
              "name": "effectiveTime",
              "type": "uint256"
            },
            {
              "internalType": "uint256",
              "name": "tenor",
              "type": "uint256"
            },
            {
              "internalType": "uint256",
              "name": "maturity",
              "type": "uint256"
            },
            {
              "internalType": "uint256",
              "name": "exerciseTime",
              "type": "uint256"
            },
            {
              "internalType": "uint256",
              "name": "amount",
              "type": "uint256"
            },
            {
              "internalType": "uint256",
              "name": "spot",
              "type": "uint256"
            },
            {
              "internalType": "uint256",
              "name": "strike",
              "type": "uint256"
            },
            {
              "internalType": "uint256",
              "name": "spread",
              "type": "uint256"
            },
            {
              "internalType": "uint256",
              "name": "volatility",
              "type": "uint256"
            },
            {
              "internalType": "uint256",
              "name": "premium",
              "type": "uint256"
            },
            {
              "internalType": "uint256",
              "name": "cost",
              "type": "uint256"
            },
            {
              "internalType": "address",
              "name": "pool",
              "type": "address"
            },
            {
              "internalType": "int256",
              "name": "exposure",
              "type": "int256"
            }
          ],
          "internalType": "struct OptionLib.Option",
          "name": "_option",
          "type": "tuple"
        },
        {
          "internalType": "uint256",
          "name": "_price",
          "type": "uint256"
        }
      ],
      "name": "getOptionParams",
      "outputs": [
        {
          "internalType": "uint256",
          "name": "_vol",
          "type": "uint256"
        },
        {
          "internalType": "uint256",
          "name": "_maxExposure",
          "type": "uint256"
        },
        {
          "internalType": "uint256",
          "name": "_sqrt",
          "type": "uint256"
        },
        {
          "internalType": "uint256",
          "name": "_interest",
          "type": "uint256"
        }
      ],
      "stateMutability": "view",
      "type": "function",
      "constant": true
    },
    {
      "inputs": [
        {
          "components": [
            {
              "internalType": "enum OptionLib.PayoffType",
              "name": "poType",
              "type": "uint8"
            },
            {
              "internalType": "enum OptionLib.OptionSide",
              "name": "side",
              "type": "uint8"
            },
            {
              "internalType": "enum OptionLib.OptionStatus",
              "name": "status",
              "type": "uint8"
            },
            {
              "internalType": "address",
              "name": "holder",
              "type": "address"
            },
            {
              "internalType": "uint256",
              "name": "id",
              "type": "uint256"
            },
            {
              "internalType": "uint256",
              "name": "createTime",
              "type": "uint256"
            },
            {
              "internalType": "uint256",
              "name": "effectiveTime",
              "type": "uint256"
            },
            {
              "internalType": "uint256",
              "name": "tenor",
              "type": "uint256"
            },
            {
              "internalType": "uint256",
              "name": "maturity",
              "type": "uint256"
            },
            {
              "internalType": "uint256",
              "name": "exerciseTime",
              "type": "uint256"
            },
            {
              "internalType": "uint256",
              "name": "amount",
              "type": "uint256"
            },
            {
              "internalType": "uint256",
              "name": "spot",
              "type": "uint256"
            },
            {
              "internalType": "uint256",
              "name": "strike",
              "type": "uint256"
            },
            {
              "internalType": "uint256",
              "name": "spread",
              "type": "uint256"
            },
            {
              "internalType": "uint256",
              "name": "volatility",
              "type": "uint256"
            },
            {
              "internalType": "uint256",
              "name": "premium",
              "type": "uint256"
            },
            {
              "internalType": "uint256",
              "name": "cost",
              "type": "uint256"
            },
            {
              "internalType": "address",
              "name": "pool",
              "type": "address"
            },
            {
              "internalType": "int256",
              "name": "exposure",
              "type": "int256"
            }
          ],
          "internalType": "struct OptionLib.Option",
          "name": "_option",
          "type": "tuple"
        },
        {
          "internalType": "uint256",
          "name": "_price",
          "type": "uint256"
        },
        {
          "internalType": "uint256",
          "name": "_volT",
          "type": "uint256"
        },
        {
          "internalType": "uint256",
          "name": "_maxExposure",
          "type": "uint256"
        }
      ],
      "name": "calcCallOptionCost",
      "outputs": [
        {
          "internalType": "uint256",
          "name": "_impVol",
          "type": "uint256"
        },
        {
          "internalType": "int256",
          "name": "_exposureUp",
          "type": "int256"
        }
      ],
      "stateMutability": "view",
      "type": "function",
      "constant": true
    },
    {
      "inputs": [
        {
          "components": [
            {
              "internalType": "enum OptionLib.PayoffType",
              "name": "poType",
              "type": "uint8"
            },
            {
              "internalType": "enum OptionLib.OptionSide",
              "name": "side",
              "type": "uint8"
            },
            {
              "internalType": "enum OptionLib.OptionStatus",
              "name": "status",
              "type": "uint8"
            },
            {
              "internalType": "address",
              "name": "holder",
              "type": "address"
            },
            {
              "internalType": "uint256",
              "name": "id",
              "type": "uint256"
            },
            {
              "internalType": "uint256",
              "name": "createTime",
              "type": "uint256"
            },
            {
              "internalType": "uint256",
              "name": "effectiveTime",
              "type": "uint256"
            },
            {
              "internalType": "uint256",
              "name": "tenor",
              "type": "uint256"
            },
            {
              "internalType": "uint256",
              "name": "maturity",
              "type": "uint256"
            },
            {
              "internalType": "uint256",
              "name": "exerciseTime",
              "type": "uint256"
            },
            {
              "internalType": "uint256",
              "name": "amount",
              "type": "uint256"
            },
            {
              "internalType": "uint256",
              "name": "spot",
              "type": "uint256"
            },
            {
              "internalType": "uint256",
              "name": "strike",
              "type": "uint256"
            },
            {
              "internalType": "uint256",
              "name": "spread",
              "type": "uint256"
            },
            {
              "internalType": "uint256",
              "name": "volatility",
              "type": "uint256"
            },
            {
              "internalType": "uint256",
              "name": "premium",
              "type": "uint256"
            },
            {
              "internalType": "uint256",
              "name": "cost",
              "type": "uint256"
            },
            {
              "internalType": "address",
              "name": "pool",
              "type": "address"
            },
            {
              "internalType": "int256",
              "name": "exposure",
              "type": "int256"
            }
          ],
          "internalType": "struct OptionLib.Option",
          "name": "_option",
          "type": "tuple"
        },
        {
          "internalType": "uint256",
          "name": "_price",
          "type": "uint256"
        },
        {
          "internalType": "uint256",
          "name": "_volT",
          "type": "uint256"
        },
        {
          "internalType": "uint256",
          "name": "_maxExposure",
          "type": "uint256"
        }
      ],
      "name": "calcPutOptionCost",
      "outputs": [
        {
          "internalType": "uint256",
          "name": "_impVol",
          "type": "uint256"
        },
        {
          "internalType": "int256",
          "name": "_exposureDown",
          "type": "int256"
        }
      ],
      "stateMutability": "view",
      "type": "function",
      "constant": true
    },
    {
      "inputs": [
        {
          "internalType": "contract Pool",
          "name": "_pool",
          "type": "address"
        },
        {
          "internalType": "bool",
          "name": "_net",
          "type": "bool"
        },
        {
          "internalType": "bool",
          "name": "_average",
          "type": "bool"
        }
      ],
      "name": "calcCapital",
      "outputs": [
        {
          "internalType": "uint256",
          "name": "",
          "type": "uint256"
        }
      ],
      "stateMutability": "view",
      "type": "function",
      "constant": true
    }
  ],
  "bytecode": "0x60806040523480156200001157600080fd5b50620000276000801b336200002d60201b60201c565b620001a6565b6200003f82826200004360201b60201c565b5050565b6200005582826200013460201b60201c565b6200013057600160008084815260200190815260200160002060000160008373ffffffffffffffffffffffffffffffffffffffff1673ffffffffffffffffffffffffffffffffffffffff16815260200190815260200160002060006101000a81548160ff021916908315150217905550620000d56200019e60201b60201c565b73ffffffffffffffffffffffffffffffffffffffff168173ffffffffffffffffffffffffffffffffffffffff16837f2f8788117e7eff1d82e926ec794901d17c78024a50270940304540a733656f0d60405160405180910390a45b5050565b600080600084815260200190815260200160002060000160008373ffffffffffffffffffffffffffffffffffffffff1673ffffffffffffffffffffffffffffffffffffffff16815260200190815260200160002060009054906101000a900460ff16905092915050565b600033905090565b6154a380620001b66000396000f3fe608060405234801561001057600080fd5b50600436106101cf5760003560e01c806385ae10e611610104578063b50e44b8116100a2578063e444ff2411610071578063e444ff2414610604578063ec511b5714610637578063efb725af14610667578063fc9d80e014610697576101cf565b8063b50e44b81461056a578063cf5b7f9714610588578063d547741f146105b8578063e04c3a72146105d4576101cf565b8063956da059116100de578063956da059146104b85780639f2b958c146104ec578063a217fddf1461051c578063b058ac6e1461053a576101cf565b806385ae10e61461042557806387fe1f771461045757806391d1485414610488576101cf565b80633a328e29116101715780635c273c2f1161014b5780635c273c2f14610378578063637baf60146103a85780637be795e0146103c4578063844cc586146103f4576101cf565b80633a328e29146102e8578063408ad4bb14610318578063587a6c1514610348576101cf565b8063248a9ca3116101ad578063248a9ca31461026457806324b4110e146102945780632f2ff15d146102b057806336568abe146102cc576101cf565b806301ffc9a7146101d4578063132a0f1b146102045780631ce5e9a614610234575b600080fd5b6101ee60048036038101906101e99190613b08565b6106ca565b6040516101fb9190613b50565b60405180910390f35b61021e60048036038101906102199190613bc9565b610744565b60405161022b9190613c0f565b60405180910390f35b61024e60048036038101906102499190613c56565b610794565b60405161025b9190613f4a565b60405180910390f35b61027e60048036038101906102799190613f9c565b6109ba565b60405161028b9190613fd8565b60405180910390f35b6102ae60048036038101906102a99190613ff3565b6109d9565b005b6102ca60048036038101906102c59190614033565b610ecd565b005b6102e660048036038101906102e19190614033565b610eee565b005b61030260048036038101906102fd9190613bc9565b610f71565b60405161030f9190613c0f565b60405180910390f35b610332600480360381019061032d9190613bc9565b6110e1565b60405161033f9190614082565b60405180910390f35b610362600480360381019061035d9190614385565b6110f9565b60405161036f9190613c0f565b60405180910390f35b610392600480360381019061038d9190614482565b611467565b60405161039f9190613c0f565b60405180910390f35b6103c260048036038101906103bd9190613c56565b6118bc565b005b6103de60048036038101906103d991906144d5565b611de2565b6040516103eb91906145c4565b60405180910390f35b61040e600480360381019061040991906145e6565b611e70565b60405161041c929190614651565b60405180910390f35b61043f600480360381019061043a9190613c56565b612153565b60405161044e9392919061467a565b60405180910390f35b610471600480360381019061046c91906145e6565b61239c565b60405161047f929190614651565b60405180910390f35b6104a2600480360381019061049d9190614033565b61267f565b6040516104af9190613b50565b60405180910390f35b6104d260048036038101906104cd91906146b1565b6126e9565b6040516104e39594939291906146df565b60405180910390f35b61050660048036038101906105019190613bc9565b612935565b6040516105139190613b50565b60405180910390f35b610524612a9f565b6040516105319190613fd8565b60405180910390f35b610554600480360381019061054f9190613bc9565b612aa6565b6040516105619190613c0f565b60405180910390f35b610572612abe565b60405161057f9190613fd8565b60405180910390f35b6105a2600480360381019061059d9190613bc9565b612ae2565b6040516105af9190613c0f565b60405180910390f35b6105d260048036038101906105cd9190614033565b612afa565b005b6105ee60048036038101906105e99190613bc9565b612b1b565b6040516105fb9190614082565b60405180910390f35b61061e60048036038101906106199190614732565b612b33565b60405161062e9493929190614774565b60405180910390f35b610651600480360381019061064c91906146b1565b612eb5565b60405161065e9190613c0f565b60405180910390f35b610681600480360381019061067c9190613bc9565b613013565b60405161068e91906145c4565b60405180910390f35b6106b160048036038101906106ac9190613c56565b613063565b6040516106c19493929190614845565b60405180910390f35b60007f7965db0b000000000000000000000000000000000000000000000000000000007bffffffffffffffffffffffffffffffffffffffffffffffffffffffff1916827bffffffffffffffffffffffffffffffffffffffffffffffffffffffff1916148061073d575061073c826131b1565b5b9050919050565b600061078d600360008473ffffffffffffffffffffffffffffffffffffffff1673ffffffffffffffffffffffffffffffffffffffff16815260200190815260200160002061321b565b9050919050565b61079c6139ad565b600182815481106107b0576107af61488a565b5b9060005260206000209060100201604051806102600160405290816000820160009054906101000a900460ff1660038111156107ef576107ee613c83565b5b600381111561080157610800613c83565b5b81526020016000820160019054906101000a900460ff16600181111561082a57610829613c83565b5b600181111561083c5761083b613c83565b5b81526020016000820160029054906101000a900460ff16600381111561086557610864613c83565b5b600381111561087757610876613c83565b5b81526020016000820160039054906101000a900473ffffffffffffffffffffffffffffffffffffffff1673ffffffffffffffffffffffffffffffffffffffff1673ffffffffffffffffffffffffffffffffffffffff168152602001600182015481526020016002820154815260200160038201548152602001600482015481526020016005820154815260200160068201548152602001600782015481526020016008820154815260200160098201548152602001600a8201548152602001600b8201548152602001600c8201548152602001600d8201548152602001600e820160009054906101000a900473ffffffffffffffffffffffffffffffffffffffff1673ffffffffffffffffffffffffffffffffffffffff1673ffffffffffffffffffffffffffffffffffffffff168152602001600f820154815250509050919050565b6000806000838152602001908152602001600020600101549050919050565b7f10b261d3bc7a74f38949f9212b0336103474898eda034c06ae0a3e478dc0e4a5610a0381613230565b600073ffffffffffffffffffffffffffffffffffffffff168273ffffffffffffffffffffffffffffffffffffffff1603610a72576040517f08c379a0000000000000000000000000000000000000000000000000000000008152600401610a6990614916565b60405180910390fd5b600060018481548110610a8857610a8761488a565b5b90600052602060002090601002019050428160030181905550806004015442610ab19190614965565b816005018190555060018160000160026101000a81548160ff02191690836003811115610ae157610ae0613c83565b5b0217905550600081600e0160009054906101000a900473ffffffffffffffffffffffffffffffffffffffff1690508173__OptionLib_____________________________63d619502790916040518263ffffffff1660e01b8152600401610b4891906149a0565b602060405180830381865af4158015610b65573d6000803e3d6000fd5b505050506040513d601f19601f82011682018060405250810190610b8991906149d0565b600460008373ffffffffffffffffffffffffffffffffffffffff1673ffffffffffffffffffffffffffffffffffffffff1681526020019081526020016000206000828254610bd79190614965565b925050819055508173__OptionLib_____________________________63b4abd93a90916040518263ffffffff1660e01b8152600401610c1791906149a0565b602060405180830381865af4158015610c34573d6000803e3d6000fd5b505050506040513d601f19601f82011682018060405250810190610c5891906149d0565b600560008373ffffffffffffffffffffffffffffffffffffffff1673ffffffffffffffffffffffffffffffffffffffff1681526020019081526020016000206000828254610ca69190614965565b9250508190555060006003811115610cc157610cc0613c83565b5b8260000160009054906101000a900460ff166003811115610ce557610ce4613c83565b5b1480610d26575060026003811115610d0057610cff613c83565b5b8260000160009054906101000a900460ff166003811115610d2457610d23613c83565b5b145b15610d8a5781600f0154600660008373ffffffffffffffffffffffffffffffffffffffff1673ffffffffffffffffffffffffffffffffffffffff1681526020019081526020016000206000828254610d7e91906149fd565b92505081905550610de5565b81600f0154600760008373ffffffffffffffffffffffffffffffffffffffff1673ffffffffffffffffffffffffffffffffffffffff1681526020019081526020016000206000828254610ddd91906149fd565b925050819055505b610e7385600260008473ffffffffffffffffffffffffffffffffffffffff1673ffffffffffffffffffffffffffffffffffffffff16815260200190815260200160002060008773ffffffffffffffffffffffffffffffffffffffff1673ffffffffffffffffffffffffffffffffffffffff16815260200190815260200160002061324490919063ffffffff16565b50610ec585600360008473ffffffffffffffffffffffffffffffffffffffff1673ffffffffffffffffffffffffffffffffffffffff16815260200190815260200160002061324490919063ffffffff16565b505050505050565b610ed6826109ba565b610edf81613230565b610ee9838361325e565b505050565b610ef661333e565b73ffffffffffffffffffffffffffffffffffffffff168173ffffffffffffffffffffffffffffffffffffffff1614610f63576040517f08c379a0000000000000000000000000000000000000000000000000000000008152600401610f5a90614ab3565b60405180910390fd5b610f6d8282613346565b5050565b600080610fbb600360008573ffffffffffffffffffffffffffffffffffffffff1673ffffffffffffffffffffffffffffffffffffffff16815260200190815260200160002061321b565b905060005b818110156110da57600061101b82600360008873ffffffffffffffffffffffffffffffffffffffff1673ffffffffffffffffffffffffffffffffffffffff16815260200190815260200160002061342790919063ffffffff16565b9050600181815481106110315761103061488a565b5b906000526020600020906010020173__OptionLib_____________________________63febf205490916040518263ffffffff1660e01b815260040161107791906149a0565b602060405180830381865af4158015611094573d6000803e3d6000fd5b505050506040513d601f19601f820116820180604052508101906110b89190614ae8565b156110c657809350506110da565b5080806110d290614b15565b915050610fc0565b5050919050565b60066020528060005260406000206000915090505481565b60007f10b261d3bc7a74f38949f9212b0336103474898eda034c06ae0a3e478dc0e4a561112581613230565b60008860e001511161116c576040517f08c379a000000000000000000000000000000000000000000000000000000000815260040161116390614ba9565b60405180910390fd5b600180549050915060016040518061026001604052808a60000151600381111561119957611198613c83565b5b81526020018a6020015160018111156111b5576111b4613c83565b5b8152602001600060038111156111ce576111cd613c83565b5b81526020018a6060015173ffffffffffffffffffffffffffffffffffffffff168152602001848152602001428152602001600081526020018a60e00151815260200160008152602001600081526020018a610140015181526020018781526020018a610180015181526020018a6101a0015181526020018681526020018981526020018881526020018a610220015173ffffffffffffffffffffffffffffffffffffffff16815260200185815250908060018154018082558091505060019003906000526020600020906010020160009091909190915060008201518160000160006101000a81548160ff021916908360038111156112d0576112cf613c83565b5b021790555060208201518160000160016101000a81548160ff02191690836001811115611300576112ff613c83565b5b021790555060408201518160000160026101000a81548160ff021916908360038111156113305761132f613c83565b5b021790555060608201518160000160036101000a81548173ffffffffffffffffffffffffffffffffffffffff021916908373ffffffffffffffffffffffffffffffffffffffff1602179055506080820151816001015560a0820151816002015560c0820151816003015560e08201518160040155610100820151816005015561012082015181600601556101408201518160070155610160820151816008015561018082015181600901556101a082015181600a01556101c082015181600b01556101e082015181600c015561020082015181600d015561022082015181600e0160006101000a81548173ffffffffffffffffffffffffffffffffffffffff021916908373ffffffffffffffffffffffffffffffffffffffff16021790555061024082015181600f01555050509695505050505050565b6000808473ffffffffffffffffffffffffffffffffffffffff16631f21f9af6040518163ffffffff1660e01b8152600401602060405180830381865afa1580156114b5573d6000803e3d6000fd5b505050506040513d601f19601f820116820180604052508101906114d99190614c07565b905060008173ffffffffffffffffffffffffffffffffffffffff1663c0a16f6a6040518163ffffffff1660e01b8152600401602060405180830381865afa158015611528573d6000803e3d6000fd5b505050506040513d601f19601f8201168201806040525081019061154c9190614c72565b905060008173ffffffffffffffffffffffffffffffffffffffff1663b0667cf86040518163ffffffff1660e01b8152600401602060405180830381865afa15801561159b573d6000803e3d6000fd5b505050506040513d601f19601f820116820180604052508101906115bf91906149d0565b905060008373ffffffffffffffffffffffffffffffffffffffff1673__MarketLib_____________________________63e74207d69091846040518363ffffffff1660e01b8152600401611614929190614ccf565b602060405180830381865af4158015611631573d6000803e3d6000fd5b505050506040513d601f19601f8201168201806040525081019061165591906149d0565b905060008890508715611784576000600560008373ffffffffffffffffffffffffffffffffffffffff1673ffffffffffffffffffffffffffffffffffffffff16815260200190815260200160002054600460008473ffffffffffffffffffffffffffffffffffffffff1673ffffffffffffffffffffffffffffffffffffffff1681526020019081526020016000205473__MathLib_______________________________63fed4a0f39091876040518363ffffffff1660e01b815260040161171e929190614cf8565b602060405180830381865af415801561173b573d6000803e3d6000fd5b505050506040513d601f19601f8201168201806040525081019061175f91906149d0565b6117699190614965565b90506117758184613441565b836117809190614d21565b9250505b86156118ad5760008973ffffffffffffffffffffffffffffffffffffffff166318160ddd6040518163ffffffff1660e01b8152600401602060405180830381865afa1580156117d7573d6000803e3d6000fd5b505050506040513d601f19601f820116820180604052508101906117fb91906149d0565b90506000811115611889578273__MathLib_______________________________63de7f61709091836040518363ffffffff1660e01b8152600401611841929190614cf8565b602060405180830381865af415801561185e573d6000803e3d6000fd5b505050506040513d601f19601f8201168201806040525081019061188291906149d0565b92506118ab565b6000811480156118995750600083145b156118aa57670de0b6b3a764000092505b5b505b81955050505050509392505050565b7f10b261d3bc7a74f38949f9212b0336103474898eda034c06ae0a3e478dc0e4a56118e681613230565b6000600183815481106118fc576118fb61488a565b5b90600052602060002090601002019050600081600e0160009054906101000a900473ffffffffffffffffffffffffffffffffffffffff16905060008260000160039054906101000a900473ffffffffffffffffffffffffffffffffffffffff1690506119af85600360008573ffffffffffffffffffffffffffffffffffffffff1673ffffffffffffffffffffffffffffffffffffffff16815260200190815260200160002061345a90919063ffffffff16565b50611a3e85600260008573ffffffffffffffffffffffffffffffffffffffff1673ffffffffffffffffffffffffffffffffffffffff16815260200190815260200160002060008473ffffffffffffffffffffffffffffffffffffffff1673ffffffffffffffffffffffffffffffffffffffff16815260200190815260200160002061345a90919063ffffffff16565b50611b01600460008473ffffffffffffffffffffffffffffffffffffffff1673ffffffffffffffffffffffffffffffffffffffff168152602001908152602001600020548473__OptionLib_____________________________63d619502790916040518263ffffffff1660e01b8152600401611abb91906149a0565b602060405180830381865af4158015611ad8573d6000803e3d6000fd5b505050506040513d601f19601f82011682018060405250810190611afc91906149d0565b613441565b600460008473ffffffffffffffffffffffffffffffffffffffff1673ffffffffffffffffffffffffffffffffffffffff1681526020019081526020016000206000828254611b4f9190614d21565b92505081905550611c18600560008473ffffffffffffffffffffffffffffffffffffffff1673ffffffffffffffffffffffffffffffffffffffff168152602001908152602001600020548473__OptionLib_____________________________63b4abd93a90916040518263ffffffff1660e01b8152600401611bd291906149a0565b602060405180830381865af4158015611bef573d6000803e3d6000fd5b505050506040513d601f19601f82011682018060405250810190611c1391906149d0565b613441565b600560008473ffffffffffffffffffffffffffffffffffffffff1673ffffffffffffffffffffffffffffffffffffffff1681526020019081526020016000206000828254611c669190614d21565b9250508190555060006003811115611c8157611c80613c83565b5b8360000160009054906101000a900460ff166003811115611ca557611ca4613c83565b5b1480611ce6575060026003811115611cc057611cbf613c83565b5b8360000160009054906101000a900460ff166003811115611ce457611ce3613c83565b5b145b15611d4a5782600f0154600660008473ffffffffffffffffffffffffffffffffffffffff1673ffffffffffffffffffffffffffffffffffffffff1681526020019081526020016000206000828254611d3e9190614d55565b92505081905550611da5565b82600f0154600760008473ffffffffffffffffffffffffffffffffffffffff1673ffffffffffffffffffffffffffffffffffffffff1681526020019081526020016000206000828254611d9d9190614d55565b925050819055505b60038360000160026101000a81548160ff02191690836003811115611dcd57611dcc613c83565b5b02179055504283600601819055505050505050565b6060611e68600260008573ffffffffffffffffffffffffffffffffffffffff1673ffffffffffffffffffffffffffffffffffffffff16815260200190815260200160002060008473ffffffffffffffffffffffffffffffffffffffff1673ffffffffffffffffffffffffffffffffffffffff168152602001908152602001600020613474565b905092915050565b6000806000866102200151905060008173ffffffffffffffffffffffffffffffffffffffff1663e0548bd86040518163ffffffff1660e01b8152600401602060405180830381865afa158015611eca573d6000803e3d6000fd5b505050506040513d601f19601f82011682018060405250810190611eee91906149d0565b905060008273ffffffffffffffffffffffffffffffffffffffff16630f9026186040518163ffffffff1660e01b8152600401602060405180830381865afa158015611f3d573d6000803e3d6000fd5b505050506040513d601f19601f82011682018060405250810190611f6191906149d0565b905060008873__MathLib_______________________________63de7f617090918a73__MathLib_______________________________63fed4a0f39091886040518363ffffffff1660e01b8152600401611fbd929190614cf8565b602060405180830381865af4158015611fda573d6000803e3d6000fd5b505050506040513d601f19601f82011682018060405250810190611ffe91906149d0565b670de0b6b3a76400006120119190614965565b6040518363ffffffff1660e01b815260040161202e929190614cf8565b602060405180830381865af415801561204b573d6000803e3d6000fd5b505050506040513d601f19601f8201168201806040525081019061206f91906149d0565b90506000600760008c610220015173ffffffffffffffffffffffffffffffffffffffff1673ffffffffffffffffffffffffffffffffffffffff1681526020019081526020016000205490508a73__OptionLib_____________________________63e43aeed99091848c87868e6040518763ffffffff1660e01b81526004016120fd96959493929190614f8a565b6040805180830381865af4158015612119573d6000803e3d6000fd5b505050506040513d601f19601f8201168201806040525081019061213d9190615006565b8097508198505050505050505094509492505050565b6000806000806001858154811061216d5761216c61488a565b5b9060005260206000209060100201600e0160009054906101000a900473ffffffffffffffffffffffffffffffffffffffff16905060008173ffffffffffffffffffffffffffffffffffffffff16631f21f9af6040518163ffffffff1660e01b8152600401602060405180830381865afa1580156121ee573d6000803e3d6000fd5b505050506040513d601f19601f820116820180604052508101906122129190614c07565b73ffffffffffffffffffffffffffffffffffffffff1663c0a16f6a6040518163ffffffff1660e01b8152600401602060405180830381865afa15801561225c573d6000803e3d6000fd5b505050506040513d601f19601f820116820180604052508101906122809190614c72565b9050600186815481106122965761229561488a565b5b906000526020600020906010020173__OptionLib_____________________________63357aa1df90918373ffffffffffffffffffffffffffffffffffffffff1663b0667cf86040518163ffffffff1660e01b8152600401602060405180830381865afa15801561230b573d6000803e3d6000fd5b505050506040513d601f19601f8201168201806040525081019061232f91906149d0565b6040518363ffffffff1660e01b815260040161234c929190615046565b606060405180830381865af4158015612369573d6000803e3d6000fd5b505050506040513d601f19601f8201168201806040525081019061238d919061506f565b94509450945050509193909250565b6000806000866102200151905060008173ffffffffffffffffffffffffffffffffffffffff1663e0548bd86040518163ffffffff1660e01b8152600401602060405180830381865afa1580156123f6573d6000803e3d6000fd5b505050506040513d601f19601f8201168201806040525081019061241a91906149d0565b905060008273ffffffffffffffffffffffffffffffffffffffff16630f9026186040518163ffffffff1660e01b8152600401602060405180830381865afa158015612469573d6000803e3d6000fd5b505050506040513d601f19601f8201168201806040525081019061248d91906149d0565b905060008873__MathLib_______________________________63fed4a0f390918a73__MathLib_______________________________63fed4a0f39091886040518363ffffffff1660e01b81526004016124e9929190614cf8565b602060405180830381865af4158015612506573d6000803e3d6000fd5b505050506040513d601f19601f8201168201806040525081019061252a91906149d0565b670de0b6b3a764000061253d9190614965565b6040518363ffffffff1660e01b815260040161255a929190614cf8565b602060405180830381865af4158015612577573d6000803e3d6000fd5b505050506040513d601f19601f8201168201806040525081019061259b91906149d0565b90506000600660008c610220015173ffffffffffffffffffffffffffffffffffffffff1673ffffffffffffffffffffffffffffffffffffffff1681526020019081526020016000205490508a73__OptionLib_____________________________63a47af6759091848c87868e6040518763ffffffff1660e01b815260040161262996959493929190614f8a565b6040805180830381865af4158015612645573d6000803e3d6000fd5b505050506040513d601f19601f820116820180604052508101906126699190615006565b8097508198505050505050505094509492505050565b600080600084815260200190815260200160002060000160008373ffffffffffffffffffffffffffffffffffffffff1673ffffffffffffffffffffffffffffffffffffffff16815260200190815260200160002060009054906101000a900460ff16905092915050565b60008060008060006126fa86612eb5565b925060008060008061270c8a88612b33565b9350935093509350600080600381111561272957612728613c83565b5b8b6000015160038111156127405761273f613c83565b5b148061277457506002600381111561275b5761275a613c83565b5b8b60000151600381111561277257612771613c83565b5b145b15612792576127858b89878761239c565b80975081925050506127a7565b61279e8b898787611e70565b80975081925050505b8073__MathLib_______________________________63fed4a0f39091856040518363ffffffff1660e01b81526004016127e2929190614cf8565b602060405180830381865af41580156127ff573d6000803e3d6000fd5b505050506040513d601f19601f8201168201806040525081019061282391906149d0565b96508a73__OptionLib_____________________________638399d60c90918a84866040518563ffffffff1660e01b815260040161286494939291906150c2565b602060405180830381865af4158015612881573d6000803e3d6000fd5b505050506040513d601f19601f820116820180604052508101906128a591906149d0565b99508a73__OptionLib_____________________________63d824254990918a8d6040518463ffffffff1660e01b81526004016128e49392919061510b565b602060405180830381865af4158015612901573d6000803e3d6000fd5b505050506040513d601f19601f8201168201806040525081019061292591906149d0565b9850505050505091939590929450565b60008061297f600360008573ffffffffffffffffffffffffffffffffffffffff1673ffffffffffffffffffffffffffffffffffffffff16815260200190815260200160002061321b565b905060005b81811015612a985760016129df82600360008873ffffffffffffffffffffffffffffffffffffffff1673ffffffffffffffffffffffffffffffffffffffff16815260200190815260200160002061342790919063ffffffff16565b815481106129f0576129ef61488a565b5b906000526020600020906010020173__OptionLib_____________________________63febf205490916040518263ffffffff1660e01b8152600401612a3691906149a0565b602060405180830381865af4158015612a53573d6000803e3d6000fd5b505050506040513d601f19601f82011682018060405250810190612a779190614ae8565b15612a855760019250612a98565b8080612a9090614b15565b915050612984565b5050919050565b6000801b81565b60056020528060005260406000206000915090505481565b7f10b261d3bc7a74f38949f9212b0336103474898eda034c06ae0a3e478dc0e4a581565b60046020528060005260406000206000915090505481565b612b03826109ba565b612b0c81613230565b612b168383613346565b505050565b60076020528060005260406000206000915090505481565b6000806000806000866102200151905060008173ffffffffffffffffffffffffffffffffffffffff16631f21f9af6040518163ffffffff1660e01b8152600401602060405180830381865afa158015612b90573d6000803e3d6000fd5b505050506040513d601f19601f82011682018060405250810190612bb49190614c07565b905060008173ffffffffffffffffffffffffffffffffffffffff1663c0a16f6a6040518163ffffffff1660e01b8152600401602060405180830381865afa158015612c03573d6000803e3d6000fd5b505050506040513d601f19601f82011682018060405250810190612c279190614c72565b90508073ffffffffffffffffffffffffffffffffffffffff1663cfc2dc208a60e001516040518263ffffffff1660e01b8152600401612c669190613c0f565b602060405180830381865afa158015612c83573d6000803e3d6000fd5b505050506040513d601f19601f82011682018060405250810190612ca791906149d0565b8273ffffffffffffffffffffffffffffffffffffffff1673__MarketLib_____________________________63e74207d690918b6040518363ffffffff1660e01b8152600401612cf8929190614ccf565b602060405180830381865af4158015612d15573d6000803e3d6000fd5b505050506040513d601f19601f82011682018060405250810190612d3991906149d0565b73__MathLib_______________________________63de7f617090918b6040518363ffffffff1660e01b8152600401612d73929190614cf8565b602060405180830381865af4158015612d90573d6000803e3d6000fd5b505050506040513d601f19601f82011682018060405250810190612db491906149d0565b8273ffffffffffffffffffffffffffffffffffffffff1663430417f78c60e001516040518263ffffffff1660e01b8152600401612df19190613c0f565b602060405180830381865afa158015612e0e573d6000803e3d6000fd5b505050506040513d601f19601f82011682018060405250810190612e3291906149d0565b8473ffffffffffffffffffffffffffffffffffffffff1663a7292ea46040518163ffffffff1660e01b8152600401602060405180830381865afa158015612e7d573d6000803e3d6000fd5b505050506040513d601f19601f82011682018060405250810190612ea191906149d0565b965096509650965050505092959194509250565b60008082610220015190508073ffffffffffffffffffffffffffffffffffffffff16631f21f9af6040518163ffffffff1660e01b8152600401602060405180830381865afa158015612f0b573d6000803e3d6000fd5b505050506040513d601f19601f82011682018060405250810190612f2f9190614c07565b73ffffffffffffffffffffffffffffffffffffffff1663c0a16f6a6040518163ffffffff1660e01b8152600401602060405180830381865afa158015612f79573d6000803e3d6000fd5b505050506040513d601f19601f82011682018060405250810190612f9d9190614c72565b73ffffffffffffffffffffffffffffffffffffffff1663b0667cf86040518163ffffffff1660e01b8152600401602060405180830381865afa158015612fe7573d6000803e3d6000fd5b505050506040513d601f19601f8201168201806040525081019061300b91906149d0565b915050919050565b606061305c600360008473ffffffffffffffffffffffffffffffffffffffff1673ffffffffffffffffffffffffffffffffffffffff168152602001908152602001600020613474565b9050919050565b60008060008060018054905085106130b0576040517f08c379a00000000000000000000000000000000000000000000000000000000081526004016130a790615191565b60405180910390fd5b600185815481106130c4576130c361488a565b5b906000526020600020906010020160000160029054906101000a900460ff16600186815481106130f7576130f661488a565b5b906000526020600020906010020160000160019054906101000a900460ff166001878154811061312a5761312961488a565b5b906000526020600020906010020160000160039054906101000a900473ffffffffffffffffffffffffffffffffffffffff16600188815481106131705761316f61488a565b5b9060005260206000209060100201600e0160009054906101000a900473ffffffffffffffffffffffffffffffffffffffff1693509350935093509193509193565b60007f01ffc9a7000000000000000000000000000000000000000000000000000000007bffffffffffffffffffffffffffffffffffffffffffffffffffffffff1916827bffffffffffffffffffffffffffffffffffffffffffffffffffffffff1916149050919050565b600061322982600001613495565b9050919050565b6132418161323c61333e565b6134a6565b50565b6000613256836000018360001b613543565b905092915050565b613268828261267f565b61333a57600160008084815260200190815260200160002060000160008373ffffffffffffffffffffffffffffffffffffffff1673ffffffffffffffffffffffffffffffffffffffff16815260200190815260200160002060006101000a81548160ff0219169083151502179055506132df61333e565b73ffffffffffffffffffffffffffffffffffffffff168173ffffffffffffffffffffffffffffffffffffffff16837f2f8788117e7eff1d82e926ec794901d17c78024a50270940304540a733656f0d60405160405180910390a45b5050565b600033905090565b613350828261267f565b1561342357600080600084815260200190815260200160002060000160008373ffffffffffffffffffffffffffffffffffffffff1673ffffffffffffffffffffffffffffffffffffffff16815260200190815260200160002060006101000a81548160ff0219169083151502179055506133c861333e565b73ffffffffffffffffffffffffffffffffffffffff168173ffffffffffffffffffffffffffffffffffffffff16837ff6391f5c32d9c69d2a47ea670b442974b53935d1edc7fd64eb21e047a839171b60405160405180910390a45b5050565b600061343683600001836135b3565b60001c905092915050565b60008183106134505781613452565b825b905092915050565b600061346c836000018360001b6135de565b905092915050565b60606000613484836000016136f2565b905060608190508092505050919050565b600081600001805490509050919050565b6134b0828261267f565b61353f576134d58173ffffffffffffffffffffffffffffffffffffffff16601461374e565b6134e38360001c602061374e565b6040516020016134f49291906152ba565b6040516020818303038152906040526040517f08c379a0000000000000000000000000000000000000000000000000000000008152600401613536919061532d565b60405180910390fd5b5050565b600061354f838361398a565b6135a85782600001829080600181540180825580915050600190039060005260206000200160009091909190915055826000018054905083600101600084815260200190815260200160002081905550600190506135ad565b600090505b92915050565b60008260000182815481106135cb576135ca61488a565b5b9060005260206000200154905092915050565b600080836001016000848152602001908152602001600020549050600081146136e65760006001826136109190614d21565b90506000600186600001805490506136289190614d21565b90508181146136975760008660000182815481106136495761364861488a565b5b906000526020600020015490508087600001848154811061366d5761366c61488a565b5b90600052602060002001819055508387600101600083815260200190815260200160002081905550505b856000018054806136ab576136aa61534f565b5b6001900381819060005260206000200160009055905585600101600086815260200190815260200160002060009055600193505050506136ec565b60009150505b92915050565b60608160000180548060200260200160405190810160405280929190818152602001828054801561374257602002820191906000526020600020905b81548152602001906001019080831161372e575b50505050509050919050565b606060006002836002613761919061537e565b61376b9190614965565b67ffffffffffffffff811115613784576137836140b3565b5b6040519080825280601f01601f1916602001820160405280156137b65781602001600182028036833780820191505090505b5090507f3000000000000000000000000000000000000000000000000000000000000000816000815181106137ee576137ed61488a565b5b60200101907effffffffffffffffffffffffffffffffffffffffffffffffffffffffffffff1916908160001a9053507f7800000000000000000000000000000000000000000000000000000000000000816001815181106138525761385161488a565b5b60200101907effffffffffffffffffffffffffffffffffffffffffffffffffffffffffffff1916908160001a90535060006001846002613892919061537e565b61389c9190614965565b90505b600181111561393c577f3031323334353637383961626364656600000000000000000000000000000000600f8616601081106138de576138dd61488a565b5b1a60f81b8282815181106138f5576138f461488a565b5b60200101907effffffffffffffffffffffffffffffffffffffffffffffffffffffffffffff1916908160001a905350600485901c945080613935906153d8565b905061389f565b5060008414613980576040517f08c379a00000000000000000000000000000000000000000000000000000000081526004016139779061544d565b60405180910390fd5b8091505092915050565b600080836001016000848152602001908152602001600020541415905092915050565b604051806102600160405280600060038111156139cd576139cc613c83565b5b8152602001600060018111156139e6576139e5613c83565b5b8152602001600060038111156139ff576139fe613c83565b5b8152602001600073ffffffffffffffffffffffffffffffffffffffff16815260200160008152602001600081526020016000815260200160008152602001600081526020016000815260200160008152602001600081526020016000815260200160008152602001600081526020016000815260200160008152602001600073ffffffffffffffffffffffffffffffffffffffff168152602001600081525090565b6000604051905090565b600080fd5b60007fffffffff0000000000000000000000000000000000000000000000000000000082169050919050565b613ae581613ab0565b8114613af057600080fd5b50565b600081359050613b0281613adc565b92915050565b600060208284031215613b1e57613b1d613aab565b5b6000613b2c84828501613af3565b91505092915050565b60008115159050919050565b613b4a81613b35565b82525050565b6000602082019050613b656000830184613b41565b92915050565b600073ffffffffffffffffffffffffffffffffffffffff82169050919050565b6000613b9682613b6b565b9050919050565b613ba681613b8b565b8114613bb157600080fd5b50565b600081359050613bc381613b9d565b92915050565b600060208284031215613bdf57613bde613aab565b5b6000613bed84828501613bb4565b91505092915050565b6000819050919050565b613c0981613bf6565b82525050565b6000602082019050613c246000830184613c00565b92915050565b613c3381613bf6565b8114613c3e57600080fd5b50565b600081359050613c5081613c2a565b92915050565b600060208284031215613c6c57613c6b613aab565b5b6000613c7a84828501613c41565b91505092915050565b7f4e487b7100000000000000000000000000000000000000000000000000000000600052602160045260246000fd5b60048110613cc357613cc2613c83565b5b50565b6000819050613cd482613cb2565b919050565b6000613ce482613cc6565b9050919050565b613cf481613cd9565b82525050565b60028110613d0b57613d0a613c83565b5b50565b6000819050613d1c82613cfa565b919050565b6000613d2c82613d0e565b9050919050565b613d3c81613d21565b82525050565b60048110613d5357613d52613c83565b5b50565b6000819050613d6482613d42565b919050565b6000613d7482613d56565b9050919050565b613d8481613d69565b82525050565b613d9381613b8b565b82525050565b613da281613bf6565b82525050565b6000819050919050565b613dbb81613da8565b82525050565b61026082016000820151613dd86000850182613ceb565b506020820151613deb6020850182613d33565b506040820151613dfe6040850182613d7b565b506060820151613e116060850182613d8a565b506080820151613e246080850182613d99565b5060a0820151613e3760a0850182613d99565b5060c0820151613e4a60c0850182613d99565b5060e0820151613e5d60e0850182613d99565b50610100820151613e72610100850182613d99565b50610120820151613e87610120850182613d99565b50610140820151613e9c610140850182613d99565b50610160820151613eb1610160850182613d99565b50610180820151613ec6610180850182613d99565b506101a0820151613edb6101a0850182613d99565b506101c0820151613ef06101c0850182613d99565b506101e0820151613f056101e0850182613d99565b50610200820151613f1a610200850182613d99565b50610220820151613f2f610220850182613d8a565b50610240820151613f44610240850182613db2565b50505050565b600061026082019050613f606000830184613dc1565b92915050565b6000819050919050565b613f7981613f66565b8114613f8457600080fd5b50565b600081359050613f9681613f70565b92915050565b600060208284031215613fb257613fb1613aab565b5b6000613fc084828501613f87565b91505092915050565b613fd281613f66565b82525050565b6000602082019050613fed6000830184613fc9565b92915050565b6000806040838503121561400a57614009613aab565b5b600061401885828601613c41565b925050602061402985828601613bb4565b9150509250929050565b6000806040838503121561404a57614049613aab565b5b600061405885828601613f87565b925050602061406985828601613bb4565b9150509250929050565b61407c81613da8565b82525050565b60006020820190506140976000830184614073565b92915050565b600080fd5b6000601f19601f8301169050919050565b7f4e487b7100000000000000000000000000000000000000000000000000000000600052604160045260246000fd5b6140eb826140a2565b810181811067ffffffffffffffff8211171561410a576141096140b3565b5b80604052505050565b600061411d613aa1565b905061412982826140e2565b919050565b6004811061413b57600080fd5b50565b60008135905061414d8161412e565b92915050565b6002811061416057600080fd5b50565b60008135905061417281614153565b92915050565b6004811061418557600080fd5b50565b60008135905061419781614178565b92915050565b6141a681613da8565b81146141b157600080fd5b50565b6000813590506141c38161419d565b92915050565b600061026082840312156141e0576141df61409d565b5b6141eb610260614113565b905060006141fb8482850161413e565b600083015250602061420f84828501614163565b602083015250604061422384828501614188565b604083015250606061423784828501613bb4565b606083015250608061424b84828501613c41565b60808301525060a061425f84828501613c41565b60a08301525060c061427384828501613c41565b60c08301525060e061428784828501613c41565b60e08301525061010061429c84828501613c41565b610100830152506101206142b284828501613c41565b610120830152506101406142c884828501613c41565b610140830152506101606142de84828501613c41565b610160830152506101806142f484828501613c41565b610180830152506101a061430a84828501613c41565b6101a0830152506101c061432084828501613c41565b6101c0830152506101e061433684828501613c41565b6101e08301525061020061434c84828501613c41565b6102008301525061022061436284828501613bb4565b61022083015250610240614378848285016141b4565b6102408301525092915050565b60008060008060008061030087890312156143a3576143a2613aab565b5b60006143b189828a016141c9565b9650506102606143c389828a01613c41565b9550506102806143d589828a01613c41565b9450506102a06143e789828a01613c41565b9350506102c06143f989828a01613c41565b9250506102e061440b89828a016141b4565b9150509295509295509295565b600061442382613b8b565b9050919050565b61443381614418565b811461443e57600080fd5b50565b6000813590506144508161442a565b92915050565b61445f81613b35565b811461446a57600080fd5b50565b60008135905061447c81614456565b92915050565b60008060006060848603121561449b5761449a613aab565b5b60006144a986828701614441565b93505060206144ba8682870161446d565b92505060406144cb8682870161446d565b9150509250925092565b600080604083850312156144ec576144eb613aab565b5b60006144fa85828601613bb4565b925050602061450b85828601613bb4565b9150509250929050565b600081519050919050565b600082825260208201905092915050565b6000819050602082019050919050565b600061454d8383613d99565b60208301905092915050565b6000602082019050919050565b600061457182614515565b61457b8185614520565b935061458683614531565b8060005b838110156145b757815161459e8882614541565b97506145a983614559565b92505060018101905061458a565b5085935050505092915050565b600060208201905081810360008301526145de8184614566565b905092915050565b6000806000806102c0858703121561460157614600613aab565b5b600061460f878288016141c9565b94505061026061462187828801613c41565b93505061028061463387828801613c41565b9250506102a061464587828801613c41565b91505092959194509250565b60006040820190506146666000830185613c00565b6146736020830184614073565b9392505050565b600060608201905061468f6000830186613c00565b61469c6020830185613c00565b6146a96040830184613c00565b949350505050565b600061026082840312156146c8576146c7613aab565b5b60006146d6848285016141c9565b91505092915050565b600060a0820190506146f46000830188613c00565b6147016020830187613c00565b61470e6040830186613c00565b61471b6060830185613c00565b6147286080830184614073565b9695505050505050565b600080610280838503121561474a57614749613aab565b5b6000614758858286016141c9565b92505061026061476a85828601613c41565b9150509250929050565b60006080820190506147896000830187613c00565b6147966020830186613c00565b6147a36040830185613c00565b6147b06060830184613c00565b95945050505050565b6147c281613d69565b82525050565b6147d181613d21565b82525050565b6147e081613b8b565b82525050565b6000819050919050565b600061480b61480661480184613b6b565b6147e6565b613b6b565b9050919050565b600061481d826147f0565b9050919050565b600061482f82614812565b9050919050565b61483f81614824565b82525050565b600060808201905061485a60008301876147b9565b61486760208301866147c8565b61487460408301856147d7565b6148816060830184614836565b95945050505050565b7f4e487b7100000000000000000000000000000000000000000000000000000000600052603260045260246000fd5b600082825260208201905092915050565b7f3061646472000000000000000000000000000000000000000000000000000000600082015250565b60006149006005836148b9565b915061490b826148ca565b602082019050919050565b6000602082019050818103600083015261492f816148f3565b9050919050565b7f4e487b7100000000000000000000000000000000000000000000000000000000600052601160045260246000fd5b600061497082613bf6565b915061497b83613bf6565b925082820190508082111561499357614992614936565b5b92915050565b8082525050565b60006020820190506149b56000830184614999565b92915050565b6000815190506149ca81613c2a565b92915050565b6000602082840312156149e6576149e5613aab565b5b60006149f4848285016149bb565b91505092915050565b6000614a0882613da8565b9150614a1383613da8565b925082820190508281121560008312168382126000841215161715614a3b57614a3a614936565b5b92915050565b7f416363657373436f6e74726f6c3a2063616e206f6e6c792072656e6f756e636560008201527f20726f6c657320666f722073656c660000000000000000000000000000000000602082015250565b6000614a9d602f836148b9565b9150614aa882614a41565b604082019050919050565b60006020820190508181036000830152614acc81614a90565b9050919050565b600081519050614ae281614456565b92915050565b600060208284031215614afe57614afd613aab565b5b6000614b0c84828501614ad3565b91505092915050565b6000614b2082613bf6565b91507fffffffffffffffffffffffffffffffffffffffffffffffffffffffffffffffff8203614b5257614b51614936565b5b600182019050919050565b7f5a65726f2074656e6f7200000000000000000000000000000000000000000000600082015250565b6000614b93600a836148b9565b9150614b9e82614b5d565b602082019050919050565b60006020820190508181036000830152614bc281614b86565b9050919050565b6000614bd482613b8b565b9050919050565b614be481614bc9565b8114614bef57600080fd5b50565b600081519050614c0181614bdb565b92915050565b600060208284031215614c1d57614c1c613aab565b5b6000614c2b84828501614bf2565b91505092915050565b6000614c3f82613b8b565b9050919050565b614c4f81614c34565b8114614c5a57600080fd5b50565b600081519050614c6c81614c46565b92915050565b600060208284031215614c8857614c87613aab565b5b6000614c9684828501614c5d565b91505092915050565b6000614caa82614812565b9050919050565b614cba81614c9f565b82525050565b614cc981613bf6565b82525050565b6000604082019050614ce46000830185614cb1565b614cf16020830184614cc0565b9392505050565b6000604082019050614d0d6000830185614cc0565b614d1a6020830184614cc0565b9392505050565b6000614d2c82613bf6565b9150614d3783613bf6565b9250828203905081811115614d4f57614d4e614936565b5b92915050565b6000614d6082613da8565b9150614d6b83613da8565b9250828203905081811260008412168282136000851215161715614d9257614d91614936565b5b92915050565b614da181613cd9565b82525050565b614db081613d21565b82525050565b614dbf81613d69565b82525050565b614dce81613b8b565b82525050565b614ddd81613bf6565b82525050565b614dec81613da8565b82525050565b61026082016000820151614e096000850182614d98565b506020820151614e1c6020850182614da7565b506040820151614e2f6040850182614db6565b506060820151614e426060850182614dc5565b506080820151614e556080850182614dd4565b5060a0820151614e6860a0850182614dd4565b5060c0820151614e7b60c0850182614dd4565b5060e0820151614e8e60e0850182614dd4565b50610100820151614ea3610100850182614dd4565b50610120820151614eb8610120850182614dd4565b50610140820151614ecd610140850182614dd4565b50610160820151614ee2610160850182614dd4565b50610180820151614ef7610180850182614dd4565b506101a0820151614f0c6101a0850182614dd4565b506101c0820151614f216101c0850182614dd4565b506101e0820151614f366101e0850182614dd4565b50610200820151614f4b610200850182614dd4565b50610220820151614f60610220850182614dc5565b50610240820151614f75610240850182614de3565b50505050565b614f8481613da8565b82525050565b600061030082019050614fa06000830189614df2565b614fae610260830188614cc0565b614fbc610280830187614cc0565b614fca6102a0830186614cc0565b614fd86102c0830185614f7b565b614fe66102e0830184614cc0565b979650505050505050565b6000815190506150008161419d565b92915050565b6000806040838503121561501d5761501c613aab565b5b600061502b858286016149bb565b925050602061503c85828601614ff1565b9150509250929050565b600060408201905061505b6000830185614999565b6150686020830184614cc0565b9392505050565b60008060006060848603121561508857615087613aab565b5b6000615096868287016149bb565b93505060206150a7868287016149bb565b92505060406150b8868287016149bb565b9150509250925092565b60006102c0820190506150d86000830187614df2565b6150e6610260830186614cc0565b6150f4610280830185614cc0565b6151026102a0830184614cc0565b95945050505050565b60006102a0820190506151216000830186614df2565b61512f610260830185614cc0565b61513d610280830184614cc0565b949350505050565b7f2d49440000000000000000000000000000000000000000000000000000000000600082015250565b600061517b6003836148b9565b915061518682615145565b602082019050919050565b600060208201905081810360008301526151aa8161516e565b9050919050565b600081905092915050565b7f416363657373436f6e74726f6c3a206163636f756e7420000000000000000000600082015250565b60006151f26017836151b1565b91506151fd826151bc565b601782019050919050565b600081519050919050565b60005b83811015615231578082015181840152602081019050615216565b60008484015250505050565b600061524882615208565b61525281856151b1565b9350615262818560208601615213565b80840191505092915050565b7f206973206d697373696e6720726f6c6520000000000000000000000000000000600082015250565b60006152a46011836151b1565b91506152af8261526e565b601182019050919050565b60006152c5826151e5565b91506152d1828561523d565b91506152dc82615297565b91506152e8828461523d565b91508190509392505050565b60006152ff82615208565b61530981856148b9565b9350615319818560208601615213565b615322816140a2565b840191505092915050565b6000602082019050818103600083015261534781846152f4565b905092915050565b7f4e487b7100000000000000000000000000000000000000000000000000000000600052603160045260246000fd5b600061538982613bf6565b915061539483613bf6565b9250817fffffffffffffffffffffffffffffffffffffffffffffffffffffffffffffffff04831182151516156153cd576153cc614936565b5b828202905092915050565b60006153e382613bf6565b9150600082036153f6576153f5614936565b5b600182039050919050565b7f537472696e67733a20686578206c656e67746820696e73756666696369656e74600082015250565b60006154376020836148b9565b915061544282615401565b602082019050919050565b600060208201905081810360008301526154668161542a565b905091905056fea264697066735822122014da758f3be20fd705226ae4bd2c0c3074a972bb4b3093679c2263ee35e87add64736f6c63430008100033",
  "immutableReferences": {},
  "source": "// SPDX-License-Identifier: MIT\npragma solidity 0.8.16;\n\nimport \"@openzeppelin/contracts/access/AccessControl.sol\";\nimport \"@openzeppelin/contracts/utils/structs/EnumerableSet.sol\";\nimport \"./libraries/MarketLib.sol\";\nimport \"./libraries/OptionLib.sol\";\nimport \"./libraries/MathLib.sol\";\nimport \"./interfaces/EOption.sol\";\nimport \"./pools/Pool.sol\";\nimport \"./pools/MarketMaker.sol\";\nimport \"./VolatilityChain.sol\";\nimport \"./VolatilityToken.sol\";\n\ncontract OptionVault is EOption, AccessControl{\n  using MathLib for uint256;\n  using MathLib for int256;\n  using MarketLib for uint256;\n  using MarketLib for MarketMaker;\n  \n  using OptionLib for OptionLib.Option;\n  using EnumerableSet for EnumerableSet.UintSet;\n  using EnumerableSet for EnumerableSet.AddressSet;\n\n  bytes32 public constant EXCHANGE = keccak256(\"EXCHANGE\");\n  \n  // list of option contracts\n  OptionLib.Option[] internal aOption;\n  mapping(address=>mapping(address=> EnumerableSet.UintSet)) internal mHolderAtiveOption;\n  mapping(address=>EnumerableSet.UintSet) internal mActiveOption;\n  mapping(address=>uint256) public mUnderCollateral;\n  mapping(address=>uint256) public mFundCollateral;\n  mapping(address=>int256) public mExposureUp;\n  mapping(address=>int256) public mExposureDown;\n\n  // immutable and constant values\n  uint256 internal constant BASE  = 1e18;\n  uint256 internal constant SCALING = 1e5;\n\n  // constructor\n  constructor(){\n    _setupRole(DEFAULT_ADMIN_ROLE, msg.sender); }\n\n  // function to add new option contracts, only executable by Exchange contract as owner\n  // arguments: option contracts (in struct), premium (in funding token decimals), collateral (in funding token decimals), price (in price source decimals), volatility (in default decimals 18)\n  // return id of option contract\n  function addOption(OptionLib.Option memory _option, uint256 _premium, uint256 _collateral, uint256 _price, uint256 _vol, int256 _exposure) external onlyRole(EXCHANGE) returns(uint256 _id){\n    require(_option.tenor > 0, \"Zero tenor\");\n    _id = aOption.length;\n    \n    // Arguments: option type, option side, contract status (default to draft), contract holder address, contract id, creation timestamp, effective timestamp (default to 0), tenor in seconds, maturity timestamp (default to 0), excersie timestamp (default to 0), amount or size of contract, current spot price, option strike, implied volatility, calculated premium and total cost including collaterals.\n    aOption.push(OptionLib.Option(_option.poType, _option.side, OptionLib.OptionStatus.Draft, _option.holder, _id, block.timestamp,  0, _option.tenor, 0,  0, _option.amount, _price, _option.strike, _option.spread, _vol, _premium, _collateral, _option.pool, _exposure));}\n\n  // function to stamp option as an active contract, only executable by Exchange contract as owner\n  // arguments: contract id and holder address\n  function stampActiveOption(uint256 _id, address _holder) external onlyRole(EXCHANGE){\n    require(_holder != address(0), \"0addr\"); \n\n    // update Option records\n    OptionLib.Option storage _option = aOption[_id];\n    _option.effectiveTime = block.timestamp;\n    _option.maturity = block.timestamp + _option.tenor;\n    _option.status = OptionLib.OptionStatus.Active;\n    \n    // update ownership and exposure records\n    address _poolAddress = _option.pool;\n    mUnderCollateral[_poolAddress] += _option.getUnderCollateral();\n    mFundCollateral[_poolAddress] += _option.sellFundCollateral();\n    if(_option.poType == OptionLib.PayoffType.Call || _option.poType == OptionLib.PayoffType.CallSpread){\n      mExposureUp[_poolAddress] += _option.exposure;}\n    else{\n      mExposureDown[_poolAddress] += _option.exposure;}\n\n    mHolderAtiveOption[_poolAddress][_holder].add(_id);\n    mActiveOption[_poolAddress].add(_id);}\n\n  // function to stamp option as an expired contract, only executable by Exchange contract as owner\n  // arguments: contract id\n  function stampExpiredOption(uint256 _id)  external onlyRole(EXCHANGE){\n    // update Option records\n    OptionLib.Option storage _option = aOption[_id];\n    address _poolAddress = _option.pool;\n    address _holder = _option.holder;\n    mActiveOption[_poolAddress].remove(_id);\n    mHolderAtiveOption[_poolAddress][_holder].remove(_id);\n\n    mUnderCollateral[_poolAddress] -= Math.min(mUnderCollateral[_poolAddress], _option.getUnderCollateral());\n    mFundCollateral[_poolAddress] -= Math.min(mFundCollateral[_poolAddress], _option.sellFundCollateral());\n\n    if(_option.poType == OptionLib.PayoffType.Call || _option.poType == OptionLib.PayoffType.CallSpread){\n      mExposureUp[_poolAddress] -= _option.exposure;}\n    else{\n      mExposureDown[_poolAddress] -= _option.exposure;}\n   \n    _option.status = OptionLib.OptionStatus.Expired;\n    _option.exerciseTime = block.timestamp;}\n\n  // functions to get information of the option list -> ONLY USED in VIEW, gas cost unlimited\n  function getHolderOptions(address _pool, address _address) external view returns(uint256[] memory){\n    return mHolderAtiveOption[_pool][_address].values();}\n  function getOption(uint256 _id) external view returns(OptionLib.Option memory) {return aOption[_id];}\n  function getActiveOptionCount(address _poolAddress) public view returns(uint256) {return mActiveOption[_poolAddress].length();}\n  function getActiveOptions(address _poolAddress) external view returns(uint256[] memory) {return mActiveOption[_poolAddress].values();}\n\n  function getOptionInfo(uint256 _id) external view returns(OptionLib.OptionStatus, OptionLib.OptionSide, address, Pool) {\n    require(_id< aOption.length, '-ID');\n    return (aOption[_id].status, aOption[_id].side, aOption[_id].holder, Pool(aOption[_id].pool));}\n\n  // contract payoff of specified contract ID\n  function getContractPayoff(uint256 _id) external view returns(uint256 _payoff, uint256 _payback, uint256 _collateral){\n    Pool _pool = Pool(aOption[_id].pool);\n    VolatilityChain _volChain = _pool.marketMaker().getVolatilityChain();\n    return aOption[_id].calcPayoff(_volChain.queryPrice());}\n    \n  // check if any option contract is expiring\n  function anyOptionExpiring(address _poolAddress) external view returns(bool _isExpiring) {\n    _isExpiring = false;\n    uint256 _count = mActiveOption[_poolAddress].length();\n    for(uint256 i=0;i<_count;i++){\n      if(aOption[uint256(mActiveOption[_poolAddress].at(i))].isExpiring()){\n        _isExpiring = true;\n        break;}}}\n\n  // get the id of any expiring contract -> please only run it on view function as it has unlimited gas usage.\n  function getExpiringOptionId(address _poolAddress) external view returns(uint256 _id){\n    // uint256[] memory _id;\n    uint256 _count = mActiveOption[_poolAddress].length();\n    for(uint256 i=0;i<_count;i++){\n      uint256 _id_i = uint256(mActiveOption[_poolAddress].at(i));\n      if(aOption[_id_i].isExpiring()){\n        _id = _id_i;\n        break;}}}\n\n  function calcOptionCost(OptionLib.Option memory _option) external view returns(uint256 _premium, uint256 _collateral, uint256 _price, uint256 _annualisedVol, int256 _exposure){\n    _price = getPrice(_option);\n    (uint256 _volT, uint256 _maxExposure, uint256 _sqrt, uint256 _interest) = getOptionParams(_option, _price);\n    \n    uint256 _impVol;\n    if(_option.poType == OptionLib.PayoffType.Call || _option.poType == OptionLib.PayoffType.CallSpread){\n      (_impVol, _exposure) = calcCallOptionCost(_option, _price, _volT, _maxExposure);\n    }\n    else{\n      (_impVol, _exposure) = calcPutOptionCost(_option, _price, _volT, _maxExposure);\n    }\n    _annualisedVol = _impVol.ethmul(_sqrt);\n    _premium = _option.calcPremium(_price, _impVol, _interest);\n    _collateral = _option.calcCollateral(_price, _premium);\n  }\n\n  function getPrice(OptionLib.Option memory _option) public view returns (uint256 _price){\n    Pool _pool = Pool(_option.pool);\n    return _pool.marketMaker().getVolatilityChain().queryPrice();\n  }\n\n  function getOptionParams(OptionLib.Option memory _option, uint256 _price) public view returns(uint256 _vol, uint256 _maxExposure, uint256 _sqrt, uint256 _interest){\n    Pool _pool = Pool(_option.pool);\n    MarketMaker _market = _pool.marketMaker();\n    VolatilityChain _volChain = _market.getVolatilityChain();\n    return (_volChain.queryVol(_option.tenor), _market.getGrossCapital(_price).ethdiv(_price), _volChain.getSqrtRatio(_option.tenor), _market.loanInterest());\n  }\n\n  function calcCallOptionCost(OptionLib.Option memory _option, uint256 _price, uint256 _volT, uint256 _maxExposure) public view returns(uint256 _impVol, int256 _exposureUp){\n    Pool _pool = Pool(_option.pool);\n    uint256 _exposureSigma = _pool.exposureSigma();\n    uint256 _capacityFactor = _pool.volCapacityFactor();\n    uint256 _priceUp = _price.ethmul(BASE + _volT.ethmul(_exposureSigma));\n    int256 _currentExposure = mExposureUp[_option.pool];\n    (_impVol, _exposureUp) = _option.quoteCallVol(_priceUp, _volT, _capacityFactor, _currentExposure , _maxExposure );  \n  }\n\n  function calcPutOptionCost(OptionLib.Option memory _option, uint256 _price, uint256 _volT, uint256 _maxExposure) public view returns(uint256 _impVol, int256 _exposureDown){\n    Pool _pool = Pool(_option.pool);\n    uint256 _exposureSigma = _pool.exposureSigma();\n    uint256 _capacityFactor = _pool.volCapacityFactor();\n    uint256 _priceDown = _price.ethdiv(BASE + _volT.ethmul(_exposureSigma));\n    int256 _currentExposure = mExposureDown[_option.pool];\n    (_impVol, _exposureDown) = _option.quotePutVol(_priceDown, _volT, _capacityFactor, _currentExposure, _maxExposure);  \n  }\n    \n  // functions related to capital calculation, addition and removals\n  // calculate capitals. Arguments: pool address, net for net capital (removing all collaterals and max exposures of option contracts) or gross (including all exposures in the underlying and funding tokens), average for average capital (total divided by number of Pool tokens) or gross (not divided by tokens)\n  function calcCapital(Pool _pool, bool _net, bool _average) external view returns(uint256){\n    MarketMaker _market = _pool.marketMaker();\n    VolatilityChain _volChain = _market.getVolatilityChain();\n    uint256 _price = _volChain.queryPrice();\n    uint256 _capital = _market.getGrossCapital(_price);\n    address _poolAddress = address(_pool);\n\n    if(_net){ \n      uint256 _collateral = mUnderCollateral[_poolAddress].ethmul(_price) + mFundCollateral[_poolAddress];\n      _capital -= Math.min(_collateral, _capital);}\n\n    if(_average){ \n      uint256 _poolSupply = _pool.totalSupply();\n      if(_poolSupply > 0) {\n        _capital = _capital.ethdiv(_poolSupply); }\n      else if(_poolSupply == 0 && _capital == 0) {\n        _capital = BASE;}}\n    \n    return _capital;}\n}\n",
  "sourcePath": "/Users/mac/Documents/GitHub/moret/contracts/OptionVault.sol",
  "compiler": {
    "name": "solc",
    "version": "0.8.16+commit.07a7930e.Emscripten.clang"
  },
  "schemaVersion": "3.4.3",
  "updatedAt": "2022-11-11T19:49:31.775Z",
  "networkType": "ethereum",
  "devdoc": {
    "kind": "dev",
    "methods": {
      "getRoleAdmin(bytes32)": {
        "details": "Returns the admin role that controls `role`. See {grantRole} and {revokeRole}. To change a role's admin, use {_setRoleAdmin}."
      },
      "grantRole(bytes32,address)": {
        "details": "Grants `role` to `account`. If `account` had not been already granted `role`, emits a {RoleGranted} event. Requirements: - the caller must have ``role``'s admin role."
      },
      "hasRole(bytes32,address)": {
        "details": "Returns `true` if `account` has been granted `role`."
      },
      "renounceRole(bytes32,address)": {
        "details": "Revokes `role` from the calling account. Roles are often managed via {grantRole} and {revokeRole}: this function's purpose is to provide a mechanism for accounts to lose their privileges if they are compromised (such as when a trusted device is misplaced). If the calling account had been revoked `role`, emits a {RoleRevoked} event. Requirements: - the caller must be `account`."
      },
      "revokeRole(bytes32,address)": {
        "details": "Revokes `role` from `account`. If `account` had been granted `role`, emits a {RoleRevoked} event. Requirements: - the caller must have ``role``'s admin role."
      },
      "supportsInterface(bytes4)": {
        "details": "See {IERC165-supportsInterface}."
      }
    },
    "version": 1
  },
  "userdoc": {
    "kind": "user",
    "methods": {},
    "version": 1
  }
}