{
  "contractName": "OptionLib",
  "abi": [
    {
      "inputs": [
        {
          "components": [
            {
              "internalType": "enum OptionLib.PayoffType",
              "name": "poType",
              "type": "OptionLib.PayoffType"
            },
            {
              "internalType": "enum OptionLib.OptionSide",
              "name": "side",
              "type": "OptionLib.OptionSide"
            },
            {
              "internalType": "enum OptionLib.OptionStatus",
              "name": "status",
              "type": "OptionLib.OptionStatus"
            },
            {
              "internalType": "address",
              "name": "holder",
              "type": "address"
            },
            {
              "internalType": "uint256",
              "name": "id",
              "type": "uint256"
            },
            {
              "internalType": "uint256",
              "name": "createTime",
              "type": "uint256"
            },
            {
              "internalType": "uint256",
              "name": "effectiveTime",
              "type": "uint256"
            },
            {
              "internalType": "uint256",
              "name": "tenor",
              "type": "uint256"
            },
            {
              "internalType": "uint256",
              "name": "maturity",
              "type": "uint256"
            },
            {
              "internalType": "uint256",
              "name": "exerciseTime",
              "type": "uint256"
            },
            {
              "internalType": "uint256",
              "name": "amount",
              "type": "uint256"
            },
            {
              "internalType": "uint256",
              "name": "spot",
              "type": "uint256"
            },
            {
              "internalType": "uint256",
              "name": "strike",
              "type": "uint256"
            },
            {
              "internalType": "uint256",
              "name": "spread",
              "type": "uint256"
            },
            {
              "internalType": "uint256",
              "name": "volatility",
              "type": "uint256"
            },
            {
              "internalType": "uint256",
              "name": "premium",
              "type": "uint256"
            },
            {
              "internalType": "uint256",
              "name": "cost",
              "type": "uint256"
            },
            {
              "internalType": "address",
              "name": "pool",
              "type": "address"
            },
            {
              "internalType": "int256",
              "name": "exposure",
              "type": "int256"
            },
            {
              "internalType": "uint256",
              "name": "fee",
              "type": "uint256"
            }
          ],
          "internalType": "struct OptionLib.Option",
          "name": "_option",
          "type": "tuple"
        },
        {
          "internalType": "uint256",
          "name": "_price",
          "type": "uint256"
        }
      ],
      "name": "calcIntrinsicValue",
      "outputs": [
        {
          "internalType": "uint256",
          "name": "",
          "type": "uint256"
        }
      ],
      "stateMutability": "pure",
      "type": "function",
      "constant": true
    },
    {
      "inputs": [
        {
          "internalType": "uint256",
          "name": "_strike",
          "type": "uint256"
        },
        {
          "internalType": "uint256",
          "name": "_amount",
          "type": "uint256"
        },
        {
          "internalType": "uint256",
          "name": "_price",
          "type": "uint256"
        },
        {
          "internalType": "uint256",
          "name": "_volatilityByT",
          "type": "uint256"
        },
        {
          "internalType": "uint256",
          "name": "_atmPremium",
          "type": "uint256"
        }
      ],
      "name": "calcTimeValue",
      "outputs": [
        {
          "internalType": "uint256",
          "name": "",
          "type": "uint256"
        }
      ],
      "stateMutability": "pure",
      "type": "function",
      "constant": true
    },
    {
      "inputs": [
        {
          "components": [
            {
              "internalType": "enum OptionLib.PayoffType",
              "name": "poType",
              "type": "OptionLib.PayoffType"
            },
            {
              "internalType": "enum OptionLib.OptionSide",
              "name": "side",
              "type": "OptionLib.OptionSide"
            },
            {
              "internalType": "enum OptionLib.OptionStatus",
              "name": "status",
              "type": "OptionLib.OptionStatus"
            },
            {
              "internalType": "address",
              "name": "holder",
              "type": "address"
            },
            {
              "internalType": "uint256",
              "name": "id",
              "type": "uint256"
            },
            {
              "internalType": "uint256",
              "name": "createTime",
              "type": "uint256"
            },
            {
              "internalType": "uint256",
              "name": "effectiveTime",
              "type": "uint256"
            },
            {
              "internalType": "uint256",
              "name": "tenor",
              "type": "uint256"
            },
            {
              "internalType": "uint256",
              "name": "maturity",
              "type": "uint256"
            },
            {
              "internalType": "uint256",
              "name": "exerciseTime",
              "type": "uint256"
            },
            {
              "internalType": "uint256",
              "name": "amount",
              "type": "uint256"
            },
            {
              "internalType": "uint256",
              "name": "spot",
              "type": "uint256"
            },
            {
              "internalType": "uint256",
              "name": "strike",
              "type": "uint256"
            },
            {
              "internalType": "uint256",
              "name": "spread",
              "type": "uint256"
            },
            {
              "internalType": "uint256",
              "name": "volatility",
              "type": "uint256"
            },
            {
              "internalType": "uint256",
              "name": "premium",
              "type": "uint256"
            },
            {
              "internalType": "uint256",
              "name": "cost",
              "type": "uint256"
            },
            {
              "internalType": "address",
              "name": "pool",
              "type": "address"
            },
            {
              "internalType": "int256",
              "name": "exposure",
              "type": "int256"
            },
            {
              "internalType": "uint256",
              "name": "fee",
              "type": "uint256"
            }
          ],
          "internalType": "struct OptionLib.Option",
          "name": "_option",
          "type": "tuple"
        },
        {
          "internalType": "uint256",
          "name": "_price",
          "type": "uint256"
        },
        {
          "internalType": "uint256",
          "name": "_volatilityByT",
          "type": "uint256"
        },
        {
          "internalType": "uint256",
          "name": "_loanInterest",
          "type": "uint256"
        }
      ],
      "name": "calcPremium",
      "outputs": [
        {
          "internalType": "uint256",
          "name": "_premium",
          "type": "uint256"
        }
      ],
      "stateMutability": "pure",
      "type": "function",
      "constant": true
    },
    {
      "inputs": [
        {
          "components": [
            {
              "internalType": "enum OptionLib.PayoffType",
              "name": "poType",
              "type": "OptionLib.PayoffType"
            },
            {
              "internalType": "enum OptionLib.OptionSide",
              "name": "side",
              "type": "OptionLib.OptionSide"
            },
            {
              "internalType": "enum OptionLib.OptionStatus",
              "name": "status",
              "type": "OptionLib.OptionStatus"
            },
            {
              "internalType": "address",
              "name": "holder",
              "type": "address"
            },
            {
              "internalType": "uint256",
              "name": "id",
              "type": "uint256"
            },
            {
              "internalType": "uint256",
              "name": "createTime",
              "type": "uint256"
            },
            {
              "internalType": "uint256",
              "name": "effectiveTime",
              "type": "uint256"
            },
            {
              "internalType": "uint256",
              "name": "tenor",
              "type": "uint256"
            },
            {
              "internalType": "uint256",
              "name": "maturity",
              "type": "uint256"
            },
            {
              "internalType": "uint256",
              "name": "exerciseTime",
              "type": "uint256"
            },
            {
              "internalType": "uint256",
              "name": "amount",
              "type": "uint256"
            },
            {
              "internalType": "uint256",
              "name": "spot",
              "type": "uint256"
            },
            {
              "internalType": "uint256",
              "name": "strike",
              "type": "uint256"
            },
            {
              "internalType": "uint256",
              "name": "spread",
              "type": "uint256"
            },
            {
              "internalType": "uint256",
              "name": "volatility",
              "type": "uint256"
            },
            {
              "internalType": "uint256",
              "name": "premium",
              "type": "uint256"
            },
            {
              "internalType": "uint256",
              "name": "cost",
              "type": "uint256"
            },
            {
              "internalType": "address",
              "name": "pool",
              "type": "address"
            },
            {
              "internalType": "int256",
              "name": "exposure",
              "type": "int256"
            },
            {
              "internalType": "uint256",
              "name": "fee",
              "type": "uint256"
            }
          ],
          "internalType": "struct OptionLib.Option",
          "name": "_option",
          "type": "tuple"
        },
        {
          "internalType": "uint256",
          "name": "_price",
          "type": "uint256"
        },
        {
          "internalType": "uint256",
          "name": "_premium",
          "type": "uint256"
        }
      ],
      "name": "calcCollateral",
      "outputs": [
        {
          "internalType": "uint256",
          "name": "_collateral",
          "type": "uint256"
        }
      ],
      "stateMutability": "pure",
      "type": "function",
      "constant": true
    },
    {
      "inputs": [
        {
          "components": [
            {
              "internalType": "enum OptionLib.PayoffType",
              "name": "poType",
              "type": "OptionLib.PayoffType"
            },
            {
              "internalType": "enum OptionLib.OptionSide",
              "name": "side",
              "type": "OptionLib.OptionSide"
            },
            {
              "internalType": "enum OptionLib.OptionStatus",
              "name": "status",
              "type": "OptionLib.OptionStatus"
            },
            {
              "internalType": "address",
              "name": "holder",
              "type": "address"
            },
            {
              "internalType": "uint256",
              "name": "id",
              "type": "uint256"
            },
            {
              "internalType": "uint256",
              "name": "createTime",
              "type": "uint256"
            },
            {
              "internalType": "uint256",
              "name": "effectiveTime",
              "type": "uint256"
            },
            {
              "internalType": "uint256",
              "name": "tenor",
              "type": "uint256"
            },
            {
              "internalType": "uint256",
              "name": "maturity",
              "type": "uint256"
            },
            {
              "internalType": "uint256",
              "name": "exerciseTime",
              "type": "uint256"
            },
            {
              "internalType": "uint256",
              "name": "amount",
              "type": "uint256"
            },
            {
              "internalType": "uint256",
              "name": "spot",
              "type": "uint256"
            },
            {
              "internalType": "uint256",
              "name": "strike",
              "type": "uint256"
            },
            {
              "internalType": "uint256",
              "name": "spread",
              "type": "uint256"
            },
            {
              "internalType": "uint256",
              "name": "volatility",
              "type": "uint256"
            },
            {
              "internalType": "uint256",
              "name": "premium",
              "type": "uint256"
            },
            {
              "internalType": "uint256",
              "name": "cost",
              "type": "uint256"
            },
            {
              "internalType": "address",
              "name": "pool",
              "type": "address"
            },
            {
              "internalType": "int256",
              "name": "exposure",
              "type": "int256"
            },
            {
              "internalType": "uint256",
              "name": "fee",
              "type": "uint256"
            }
          ],
          "internalType": "struct OptionLib.Option",
          "name": "_option",
          "type": "tuple"
        },
        {
          "internalType": "uint256",
          "name": "_price",
          "type": "uint256"
        },
        {
          "internalType": "uint256",
          "name": "_volatilityByT",
          "type": "uint256"
        },
        {
          "internalType": "uint256",
          "name": "_volCapacityFactor",
          "type": "uint256"
        },
        {
          "internalType": "int256",
          "name": "_currentExposureUp",
          "type": "int256"
        },
        {
          "internalType": "uint256",
          "name": "_maxExposure",
          "type": "uint256"
        }
      ],
      "name": "quoteCallVol",
      "outputs": [
        {
          "internalType": "uint256",
          "name": "_impVol",
          "type": "uint256"
        },
        {
          "internalType": "int256",
          "name": "_exposureUp",
          "type": "int256"
        }
      ],
      "stateMutability": "pure",
      "type": "function",
      "constant": true
    },
    {
      "inputs": [
        {
          "components": [
            {
              "internalType": "enum OptionLib.PayoffType",
              "name": "poType",
              "type": "OptionLib.PayoffType"
            },
            {
              "internalType": "enum OptionLib.OptionSide",
              "name": "side",
              "type": "OptionLib.OptionSide"
            },
            {
              "internalType": "enum OptionLib.OptionStatus",
              "name": "status",
              "type": "OptionLib.OptionStatus"
            },
            {
              "internalType": "address",
              "name": "holder",
              "type": "address"
            },
            {
              "internalType": "uint256",
              "name": "id",
              "type": "uint256"
            },
            {
              "internalType": "uint256",
              "name": "createTime",
              "type": "uint256"
            },
            {
              "internalType": "uint256",
              "name": "effectiveTime",
              "type": "uint256"
            },
            {
              "internalType": "uint256",
              "name": "tenor",
              "type": "uint256"
            },
            {
              "internalType": "uint256",
              "name": "maturity",
              "type": "uint256"
            },
            {
              "internalType": "uint256",
              "name": "exerciseTime",
              "type": "uint256"
            },
            {
              "internalType": "uint256",
              "name": "amount",
              "type": "uint256"
            },
            {
              "internalType": "uint256",
              "name": "spot",
              "type": "uint256"
            },
            {
              "internalType": "uint256",
              "name": "strike",
              "type": "uint256"
            },
            {
              "internalType": "uint256",
              "name": "spread",
              "type": "uint256"
            },
            {
              "internalType": "uint256",
              "name": "volatility",
              "type": "uint256"
            },
            {
              "internalType": "uint256",
              "name": "premium",
              "type": "uint256"
            },
            {
              "internalType": "uint256",
              "name": "cost",
              "type": "uint256"
            },
            {
              "internalType": "address",
              "name": "pool",
              "type": "address"
            },
            {
              "internalType": "int256",
              "name": "exposure",
              "type": "int256"
            },
            {
              "internalType": "uint256",
              "name": "fee",
              "type": "uint256"
            }
          ],
          "internalType": "struct OptionLib.Option",
          "name": "_option",
          "type": "tuple"
        },
        {
          "internalType": "uint256",
          "name": "_price",
          "type": "uint256"
        },
        {
          "internalType": "uint256",
          "name": "_volatilityByT",
          "type": "uint256"
        },
        {
          "internalType": "uint256",
          "name": "_volCapacityFactor",
          "type": "uint256"
        },
        {
          "internalType": "int256",
          "name": "_currentExposureDown",
          "type": "int256"
        },
        {
          "internalType": "uint256",
          "name": "_maxExposure",
          "type": "uint256"
        }
      ],
      "name": "quotePutVol",
      "outputs": [
        {
          "internalType": "uint256",
          "name": "_impVol",
          "type": "uint256"
        },
        {
          "internalType": "int256",
          "name": "_exposureDown",
          "type": "int256"
        }
      ],
      "stateMutability": "pure",
      "type": "function",
      "constant": true
    },
    {
      "inputs": [
        {
          "components": [
            {
              "internalType": "enum OptionLib.PayoffType",
              "name": "poType",
              "type": "OptionLib.PayoffType"
            },
            {
              "internalType": "enum OptionLib.OptionSide",
              "name": "side",
              "type": "OptionLib.OptionSide"
            },
            {
              "internalType": "enum OptionLib.OptionStatus",
              "name": "status",
              "type": "OptionLib.OptionStatus"
            },
            {
              "internalType": "address",
              "name": "holder",
              "type": "address"
            },
            {
              "internalType": "uint256",
              "name": "id",
              "type": "uint256"
            },
            {
              "internalType": "uint256",
              "name": "createTime",
              "type": "uint256"
            },
            {
              "internalType": "uint256",
              "name": "effectiveTime",
              "type": "uint256"
            },
            {
              "internalType": "uint256",
              "name": "tenor",
              "type": "uint256"
            },
            {
              "internalType": "uint256",
              "name": "maturity",
              "type": "uint256"
            },
            {
              "internalType": "uint256",
              "name": "exerciseTime",
              "type": "uint256"
            },
            {
              "internalType": "uint256",
              "name": "amount",
              "type": "uint256"
            },
            {
              "internalType": "uint256",
              "name": "spot",
              "type": "uint256"
            },
            {
              "internalType": "uint256",
              "name": "strike",
              "type": "uint256"
            },
            {
              "internalType": "uint256",
              "name": "spread",
              "type": "uint256"
            },
            {
              "internalType": "uint256",
              "name": "volatility",
              "type": "uint256"
            },
            {
              "internalType": "uint256",
              "name": "premium",
              "type": "uint256"
            },
            {
              "internalType": "uint256",
              "name": "cost",
              "type": "uint256"
            },
            {
              "internalType": "address",
              "name": "pool",
              "type": "address"
            },
            {
              "internalType": "int256",
              "name": "exposure",
              "type": "int256"
            },
            {
              "internalType": "uint256",
              "name": "fee",
              "type": "uint256"
            }
          ],
          "internalType": "struct OptionLib.Option",
          "name": "_option",
          "type": "tuple"
        },
        {
          "internalType": "uint256",
          "name": "_price",
          "type": "uint256"
        },
        {
          "internalType": "uint256",
          "name": "_volatilityByT",
          "type": "uint256"
        }
      ],
      "name": "calcDelta",
      "outputs": [
        {
          "internalType": "int256",
          "name": "_delta",
          "type": "int256"
        }
      ],
      "stateMutability": "pure",
      "type": "function",
      "constant": true
    },
    {
      "inputs": [
        {
          "internalType": "uint256",
          "name": "_price",
          "type": "uint256"
        },
        {
          "internalType": "uint256",
          "name": "_strike",
          "type": "uint256"
        },
        {
          "internalType": "uint256",
          "name": "_vol",
          "type": "uint256"
        },
        {
          "internalType": "uint256",
          "name": "_amount",
          "type": "uint256"
        }
      ],
      "name": "delta",
      "outputs": [
        {
          "internalType": "int256",
          "name": "_delta",
          "type": "int256"
        }
      ],
      "stateMutability": "pure",
      "type": "function",
      "constant": true
    },
    {
      "inputs": [
        {
          "internalType": "uint256",
          "name": "_maxExposure",
          "type": "uint256"
        },
        {
          "internalType": "int256",
          "name": "_currentExposure",
          "type": "int256"
        },
        {
          "internalType": "int256",
          "name": "_newExposure",
          "type": "int256"
        },
        {
          "internalType": "uint256",
          "name": "_runningVol",
          "type": "uint256"
        },
        {
          "internalType": "uint256",
          "name": "_volCapacityFactor",
          "type": "uint256"
        }
      ],
      "name": "calcRiskPremium",
      "outputs": [
        {
          "internalType": "uint256",
          "name": "",
          "type": "uint256"
        }
      ],
      "stateMutability": "pure",
      "type": "function",
      "constant": true
    },
    {
      "inputs": [
        {
          "internalType": "uint256",
          "name": "_max",
          "type": "uint256"
        },
        {
          "internalType": "int256",
          "name": "_input",
          "type": "int256"
        },
        {
          "internalType": "uint256",
          "name": "_constant",
          "type": "uint256"
        },
        {
          "internalType": "uint256",
          "name": "_volCapacityFactor",
          "type": "uint256"
        }
      ],
      "name": "calcRiskPremiumAMM",
      "outputs": [
        {
          "internalType": "int256",
          "name": "",
          "type": "int256"
        }
      ],
      "stateMutability": "pure",
      "type": "function",
      "constant": true
    }
  ],
  "bytecode": "0x612e84610053600b82828239805160001a607314610046577f4e487b7100000000000000000000000000000000000000000000000000000000600052600060045260246000fd5b30600052607381538281f3fe73000000000000000000000000000000000000000030146080604052600436106100d95760003560e01c8063b4abd93a11610096578063d619502711610070578063d61950271461028f578063d8242549146102bf578063e43aeed9146102ef578063fcc14dfd14610320576100d9565b8063b4abd93a146101ff578063b968a5a01461022f578063bbf7830e1461025f576100d9565b806326790bbc146100de578063357aa1df1461010e57806374cf61221461013e5780637bc7ed781461016e5780638399d60c1461019e578063a47af675146101ce575b600080fd5b6100f860048036038101906100f39190611fb3565b610350565b6040516101059190612033565b60405180910390f35b61012860048036038101906101239190612084565b6106bb565b60405161013591906120d3565b60405180910390f35b610158600480360381019061015391906120ee565b610a4b565b60405161016591906120d3565b60405180910390f35b61018860048036038101906101839190612195565b610e02565b60405161019591906120d3565b60405180910390f35b6101b860048036038101906101b39190612540565b610eae565b6040516101c591906120d3565b60405180910390f35b6101e860048036038101906101e391906125ab565b611162565b6040516101f692919061263e565b60405180910390f35b61021960048036038101906102149190612667565b61119d565b60405161022691906120d3565b60405180910390f35b61024960048036038101906102449190612694565b6113ae565b60405161025691906120d3565b60405180910390f35b610279600480360381019061027491906126d6565b611632565b6040516102869190612033565b60405180910390f35b6102a960048036038101906102a49190612667565b611884565b6040516102b691906120d3565b60405180910390f35b6102d960048036038101906102d491906126d6565b611911565b6040516102e691906120d3565b60405180910390f35b610309600480360381019061030491906125ab565b611bbf565b60405161031792919061263e565b60405180910390f35b61033a6004803603810190610335919061272c565b611c0c565b6040516103479190612033565b60405180910390f35b6000808573__MathLib_______________________________63de7f61709091876040518363ffffffff1660e01b815260040161038e929190612793565b602060405180830381865af41580156103ab573d6000803e3d6000fd5b505050506040513d601f19601f820116820180604052508101906103cf91906127d1565b905060006103e86002866103e3919061285c565b611e4b565b610480670de0b6b3a764000073__MathLib_______________________________63de7f61709091896040518363ffffffff1660e01b815260040161042e929190612793565b602060405180830381865af415801561044b573d6000803e3d6000fd5b505050506040513d601f19601f8201168201806040525081019061046f91906127d1565b600261047b919061288d565b611e4b565b61059c670de0b6b3a764000085610497919061288d565b73__MathLib_______________________________63677342ce90916040518263ffffffff1660e01b81526004016104cf91906120d3565b602060405180830381865af41580156104ec573d6000803e3d6000fd5b505050506040513d601f19601f8201168201806040525081019061051091906127d1565b73__MathLib_______________________________63de7f617090918a6040518363ffffffff1660e01b815260040161054a929190612793565b602060405180830381865af4158015610567573d6000803e3d6000fd5b505050506040513d601f19601f8201168201806040525081019061058b91906127d1565b6002610597919061288d565b611e4b565b6105a691906128cf565b6105b09190612912565b90506106af8173__MathLib_______________________________635543160e90916040518263ffffffff1660e01b81526004016105ee9190612033565b602060405180830381865af415801561060b573d6000803e3d6000fd5b505050506040513d601f19601f8201168201806040525081019061062f91906127d1565b73__MathLib_______________________________63fed4a0f39091876040518363ffffffff1660e01b8152600401610669929190612793565b602060405180830381865af4158015610686573d6000803e3d6000fd5b505050506040513d601f19601f820116820180604052508101906106aa91906127d1565b611e4b565b92505050949350505050565b6000806108c784604051806102800160405290816000820160009054906101000a900460ff1660038111156106f3576106f2612956565b5b600381111561070557610704612956565b5b81526020016000820160019054906101000a900460ff16600181111561072e5761072d612956565b5b60018111156107405761073f612956565b5b81526020016000820160029054906101000a900460ff16600381111561076957610768612956565b5b600381111561077b5761077a612956565b5b81526020016000820160039054906101000a900473ffffffffffffffffffffffffffffffffffffffff1673ffffffffffffffffffffffffffffffffffffffff1673ffffffffffffffffffffffffffffffffffffffff168152602001600182015481526020016002820154815260200160038201548152602001600482015481526020016005820154815260200160068201548152602001600782015481526020016008820154815260200160098201548152602001600a8201548152602001600b8201548152602001600c8201548152602001600d8201548152602001600e820160009054906101000a900473ffffffffffffffffffffffffffffffffffffffff1673ffffffffffffffffffffffffffffffffffffffff1673ffffffffffffffffffffffffffffffffffffffff168152602001600f8201548152602001601082015481525050846113ae565b90506001808111156108dc576108db612956565b5b8460000160019054906101000a900460ff166001811115610900576108ff612956565b5b03610a40576000846007015473__MathLib_______________________________63fed4a0f390916000600381111561093c5761093b612956565b5b8860000160009054906101000a900460ff1660038111156109605761095f612956565b5b146109b7576001600381111561097957610978612956565b5b8860000160009054906101000a900460ff16600381111561099d5761099c612956565b5b146109ac5787600a01546109b2565b87600901545b6109b9565b865b6040518363ffffffff1660e01b81526004016109d6929190612793565b602060405180830381865af41580156109f3573d6000803e3d6000fd5b505050506040513d601f19601f82011682018060405250810190610a1791906127d1565b9050610a2c8282611eb890919063ffffffff16565b81610a379190612985565b92505050610a45565b809150505b92915050565b6000808303610a5d5760009050610df9565b6000848711610ae7578673__MathLib_______________________________63de7f61709091876040518363ffffffff1660e01b8152600401610aa1929190612793565b602060405180830381865af4158015610abe573d6000803e3d6000fd5b505050506040513d601f19601f82011682018060405250810190610ae291906127d1565b610b64565b8473__MathLib_______________________________63de7f61709091896040518363ffffffff1660e01b8152600401610b22929190612793565b602060405180830381865af4158015610b3f573d6000803e3d6000fd5b505050506040513d601f19601f82011682018060405250810190610b6391906127d1565b5b90506000670de0b6b3a76400008511610b7d5784610b87565b670de0b6b3a76400005b90506000600282610b98919061285c565b73__MathLib_______________________________63de7f61709091600285610bc1919061285c565b670de0b6b3a7640000610bd491906129b9565b6040518363ffffffff1660e01b8152600401610bf1929190612793565b602060405180830381865af4158015610c0e573d6000803e3d6000fd5b505050506040513d601f19601f82011682018060405250810190610c3291906127d1565b90506000600283610c43919061285c565b73__MathLib_______________________________63de7f6170909186600287610c6d919061285c565b670de0b6b3a7640000610c8091906129b9565b610c8a9190612985565b6040518363ffffffff1660e01b8152600401610ca7929190612793565b602060405180830381865af4158015610cc4573d6000803e3d6000fd5b505050506040513d601f19601f82011682018060405250810190610ce891906127d1565b905060008282610cf89190612985565b90508673__MathLib_______________________________63fed4a0f39091836040518363ffffffff1660e01b8152600401610d35929190612793565b602060405180830381865af4158015610d52573d6000803e3d6000fd5b505050506040513d601f19601f82011682018060405250810190610d7691906127d1565b73__MathLib_______________________________63fed4a0f390918c6040518363ffffffff1660e01b8152600401610db0929190612793565b602060405180830381865af4158015610dcd573d6000803e3d6000fd5b505050506040513d601f19601f82011682018060405250810190610df191906127d1565b955050505050505b95945050505050565b600080610e2e610e1488878787611c0c565b610e2089898888611c0c565b611ed190919063ffffffff16565b9050600081610e3c86611e4b565b610e469190612912565b13610e86576040517f08c379a0000000000000000000000000000000000000000000000000000000008152600401610e7d90612a4a565b60405180910390fd5b610ea281610e9386611e4b565b610e9d9190612912565b611f07565b91505095945050505050565b600080610ebb86866113ae565b905060008473__MathLib_______________________________63b3947c1790916010600a6040518463ffffffff1660e01b8152600401610efe93929190612aea565b602060405180830381865af4158015610f1b573d6000803e3d6000fd5b505050506040513d601f19601f82011682018060405250810190610f3f91906127d1565b905060008673__MathLib_______________________________63fed4a0f39091600485610f6d919061285c565b6040518363ffffffff1660e01b8152600401610f8a929190612793565b602060405180830381865af4158015610fa7573d6000803e3d6000fd5b505050506040513d601f19601f82011682018060405250810190610fcb91906127d1565b90506000610fe68961018001518a61014001518a8686610a4b565b9050600060026003811115610ffe57610ffd612956565b5b8a60000151600381111561101557611014612956565b5b03611048576110418a6101a001518b610180015161103391906129b9565b8b61014001518b8787610a4b565b90506110ee565b60038081111561105b5761105a612956565b5b8a60000151600381111561107257611071612956565b5b036110ed57896101a001518a6101800151116110c3576040517f08c379a00000000000000000000000000000000000000000000000000000000081526004016110ba90612b6d565b60405180910390fd5b6110ea8a6101a001518b61018001516110dc9190612985565b8b61014001518b8787610a4b565b90505b5b8082866110fb91906129b9565b101561113c576040517f08c379a000000000000000000000000000000000000000000000000000000000815260040161113390612bd9565b60405180910390fd5b80828661114991906129b9565b6111539190612985565b95505050505050949350505050565b600080611170888888611632565b9050600081856111809190612912565b905061118f8486838a8a610e02565b925050965096945050505050565b60006001808111156111b2576111b1612956565b5b8260000160019054906101000a900460ff1660018111156111d6576111d5612956565b5b036113a957600160038111156111ef576111ee612956565b5b8260000160009054906101000a900460ff16600381111561121357611212612956565b5b036112a357816007015473__MathLib_______________________________63fed4a0f3909184600901546040518363ffffffff1660e01b815260040161125b929190612793565b602060405180830381865af4158015611278573d6000803e3d6000fd5b505050506040513d601f19601f8201168201806040525081019061129c91906127d1565b90506113a8565b6003808111156112b6576112b5612956565b5b8260000160009054906101000a900460ff1660038111156112da576112d9612956565b5b148061131b5750600260038111156112f5576112f4612956565b5b8260000160009054906101000a900460ff16600381111561131957611318612956565b5b145b156113a757816007015473__MathLib_______________________________63fed4a0f3909184600a01546040518363ffffffff1660e01b8152600401611363929190612793565b602060405180830381865af4158015611380573d6000803e3d6000fd5b505050506040513d601f19601f820116820180604052508101906113a491906127d1565b90505b5b5b919050565b60008060009050600060038111156113c9576113c8612956565b5b846000015160038111156113e0576113df612956565b5b1480156113f1575083610180015183115b1561140a57836101800151836114079190612985565b90505b6001600381111561141e5761141d612956565b5b8460000151600381111561143557611434612956565b5b148015611446575083610180015183105b1561145f578284610180015161145c9190612985565b90505b6002600381111561147357611472612956565b5b8460000151600381111561148a57611489612956565b5b14801561149b575083610180015183115b156114de57836101a001518461018001516114b691906129b9565b83106114c957836101a0015190506114dd565b836101800151836114da9190612985565b90505b5b6003808111156114f1576114f0612956565b5b8460000151600381111561150857611507612956565b5b148015611519575083610180015183105b156115a857836101a001518461018001511161156a576040517f08c379a000000000000000000000000000000000000000000000000000000000815260040161156190612b6d565b60405180910390fd5b836101a001518461018001516115809190612985565b831161159357836101a0015190506115a7565b828461018001516115a49190612985565b90505b5b8073__MathLib_______________________________63fed4a0f390918661014001516040518363ffffffff1660e01b81526004016115e8929190612793565b602060405180830381865af4158015611605573d6000803e3d6000fd5b505050506040513d601f19601f8201168201806040525081019061162991906127d1565b91505092915050565b600080600381111561164757611646612956565b5b8460000151600381111561165e5761165d612956565b5b03611680576116798385610180015184876101400151610350565b9050611841565b6001600381111561169457611693612956565b5b846000015160038111156116ab576116aa612956565b5b036116ee576116c68385610180015184876101400151610350565b6116d4856101400151611e4b565b6116dd90612bf9565b6116e79190612912565b9050611840565b60038081111561170157611700612956565b5b8460000151600381111561171857611717612956565b5b036117ce57836101a0015184610180015111611769576040517f08c379a000000000000000000000000000000000000000000000000000000000815260040161176090612b6d565b60405180910390fd5b6117a6611794856101a001518661018001516117859190612985565b85611eb890919063ffffffff16565b85610180015184876101400151610350565b6117b4856101400151611e4b565b6117bd90612bf9565b6117c79190612912565b905061183f565b600260038111156117e2576117e1612956565b5b846000015160038111156117f9576117f8612956565b5b0361183e5761183b611829856101a0015186610180015161181a91906129b9565b85611f5490919063ffffffff16565b85610180015184876101400151610350565b90505b5b5b5b60018081111561185457611853612956565b5b8460200151600181111561186b5761186a612956565b5b0361187d578061187a90612bf9565b90505b9392505050565b600060018081111561189957611898612956565b5b8260000160019054906101000a900460ff1660018111156118bd576118bc612956565b5b1480156118ff5750600060038111156118d9576118d8612956565b5b8260000160009054906101000a900460ff1660038111156118fd576118fc612956565b5b145b1561190c57816007015490505b919050565b60006001600381111561192757611926612956565b5b8460000151600381111561193e5761193d612956565b5b036119d05783610140015173__MathLib_______________________________63fed4a0f390918661018001516040518363ffffffff1660e01b8152600401611988929190612793565b602060405180830381865af41580156119a5573d6000803e3d6000fd5b505050506040513d601f19601f820116820180604052508101906119c991906127d1565b9050611b76565b600060038111156119e4576119e3612956565b5b846000015160038111156119fb576119fa612956565b5b03611a885783610140015173__MathLib_______________________________63fed4a0f39091856040518363ffffffff1660e01b8152600401611a40929190612793565b602060405180830381865af4158015611a5d573d6000803e3d6000fd5b505050506040513d601f19601f82011682018060405250810190611a8191906127d1565b9050611b75565b600380811115611a9b57611a9a612956565b5b84600001516003811115611ab257611ab1612956565b5b1480611ae6575060026003811115611acd57611acc612956565b5b84600001516003811115611ae457611ae3612956565b5b145b15611b745783610140015173__MathLib_______________________________63fed4a0f39091866101a001516040518363ffffffff1660e01b8152600401611b30929190612793565b602060405180830381865af4158015611b4d573d6000803e3d6000fd5b505050506040513d601f19601f82011682018060405250810190611b7191906127d1565b90505b5b5b818111611bb8576040517f08c379a0000000000000000000000000000000000000000000000000000000008152600401611baf90612c8d565b60405180910390fd5b9392505050565b600080611bcd888888611632565b905060008185611bdd9190612912565b9050611bfe8486611bed90612bf9565b83611bf790612bf9565b8a8a610e02565b925050965096945050505050565b600080611c20670de0b6b3a7640000611e4b565b90506000851215611cc857611cba85611c3890612bf9565b73__MathLib_______________________________63b3947c179091868a6040518463ffffffff1660e01b8152600401611c7493929190612cad565b602060405180830381865af4158015611c91573d6000803e3d6000fd5b505050506040513d601f19601f82011682018060405250810190611cb591906127d1565b611e4b565b81611cc59190612912565b90505b6000851315611d6557611d578573__MathLib_______________________________63b3947c179091868a6040518463ffffffff1660e01b8152600401611d1193929190612cad565b602060405180830381865af4158015611d2e573d6000803e3d6000fd5b505050506040513d601f19601f82011682018060405250810190611d5291906127d1565b611e4b565b81611d6291906128cf565b90505b6000811215611da9576040517f08c379a0000000000000000000000000000000000000000000000000000000008152600401611da090612d30565b60405180910390fd5b611db284611e4b565b611e368573__MathLib_______________________________63de7f61709091856040518363ffffffff1660e01b8152600401611df0929190612793565b602060405180830381865af4158015611e0d573d6000803e3d6000fd5b505050506040513d601f19601f82011682018060405250810190611e3191906127d1565b611e4b565b611e4091906128cf565b915050949350505050565b60007f7fffffffffffffffffffffffffffffffffffffffffffffffffffffffffffffff821115611eb0576040517f08c379a0000000000000000000000000000000000000000000000000000000008152600401611ea790612dc2565b60405180910390fd5b819050919050565b6000818310611ec75781611ec9565b825b905092915050565b6000806001838518901d838516611ee89190612912565b905082841860ff82901c1681611efe9190612912565b91505092915050565b600080821215611f4c576040517f08c379a0000000000000000000000000000000000000000000000000000000008152600401611f4390612e2e565b60405180910390fd5b819050919050565b600081831015611f645781611f66565b825b905092915050565b6000604051905090565b600080fd5b6000819050919050565b611f9081611f7d565b8114611f9b57600080fd5b50565b600081359050611fad81611f87565b92915050565b60008060008060808587031215611fcd57611fcc611f78565b5b6000611fdb87828801611f9e565b9450506020611fec87828801611f9e565b9350506040611ffd87828801611f9e565b925050606061200e87828801611f9e565b91505092959194509250565b6000819050919050565b61202d8161201a565b82525050565b60006020820190506120486000830184612024565b92915050565b6000819050919050565b6120618161204e565b811461206c57600080fd5b50565b60008135905061207e81612058565b92915050565b6000806040838503121561209b5761209a611f78565b5b60006120a98582860161206f565b92505060206120ba85828601611f9e565b9150509250929050565b6120cd81611f7d565b82525050565b60006020820190506120e860008301846120c4565b92915050565b600080600080600060a0868803121561210a57612109611f78565b5b600061211888828901611f9e565b955050602061212988828901611f9e565b945050604061213a88828901611f9e565b935050606061214b88828901611f9e565b925050608061215c88828901611f9e565b9150509295509295909350565b6121728161201a565b811461217d57600080fd5b50565b60008135905061218f81612169565b92915050565b600080600080600060a086880312156121b1576121b0611f78565b5b60006121bf88828901611f9e565b95505060206121d088828901612180565b94505060406121e188828901612180565b93505060606121f288828901611f9e565b925050608061220388828901611f9e565b9150509295509295909350565b600080fd5b6000601f19601f8301169050919050565b7f4e487b7100000000000000000000000000000000000000000000000000000000600052604160045260246000fd5b61225e82612215565b810181811067ffffffffffffffff8211171561227d5761227c612226565b5b80604052505050565b6000612290611f6e565b905061229c8282612255565b919050565b600481106122ae57600080fd5b50565b6000813590506122c0816122a1565b92915050565b600281106122d357600080fd5b50565b6000813590506122e5816122c6565b92915050565b600481106122f857600080fd5b50565b60008135905061230a816122eb565b92915050565b600073ffffffffffffffffffffffffffffffffffffffff82169050919050565b600061233b82612310565b9050919050565b61234b81612330565b811461235657600080fd5b50565b60008135905061236881612342565b92915050565b6000610280828403121561238557612384612210565b5b612390610280612286565b905060006123a0848285016122b1565b60008301525060206123b4848285016122d6565b60208301525060406123c8848285016122fb565b60408301525060606123dc84828501612359565b60608301525060806123f084828501611f9e565b60808301525060a061240484828501611f9e565b60a08301525060c061241884828501611f9e565b60c08301525060e061242c84828501611f9e565b60e08301525061010061244184828501611f9e565b6101008301525061012061245784828501611f9e565b6101208301525061014061246d84828501611f9e565b6101408301525061016061248384828501611f9e565b6101608301525061018061249984828501611f9e565b610180830152506101a06124af84828501611f9e565b6101a0830152506101c06124c584828501611f9e565b6101c0830152506101e06124db84828501611f9e565b6101e0830152506102006124f184828501611f9e565b6102008301525061022061250784828501612359565b6102208301525061024061251d84828501612180565b6102408301525061026061253384828501611f9e565b6102608301525092915050565b6000806000806102e0858703121561255b5761255a611f78565b5b60006125698782880161236e565b94505061028061257b87828801611f9e565b9350506102a061258d87828801611f9e565b9250506102c061259f87828801611f9e565b91505092959194509250565b60008060008060008061032087890312156125c9576125c8611f78565b5b60006125d789828a0161236e565b9650506102806125e989828a01611f9e565b9550506102a06125fb89828a01611f9e565b9450506102c061260d89828a01611f9e565b9350506102e061261f89828a01612180565b92505061030061263189828a01611f9e565b9150509295509295509295565b600060408201905061265360008301856120c4565b6126606020830184612024565b9392505050565b60006020828403121561267d5761267c611f78565b5b600061268b8482850161206f565b91505092915050565b6000806102a083850312156126ac576126ab611f78565b5b60006126ba8582860161236e565b9250506102806126cc85828601611f9e565b9150509250929050565b60008060006102c084860312156126f0576126ef611f78565b5b60006126fe8682870161236e565b93505061028061271086828701611f9e565b9250506102a061272286828701611f9e565b9150509250925092565b6000806000806080858703121561274657612745611f78565b5b600061275487828801611f9e565b945050602061276587828801612180565b935050604061277687828801611f9e565b925050606061278787828801611f9e565b91505092959194509250565b60006040820190506127a860008301856120c4565b6127b560208301846120c4565b9392505050565b6000815190506127cb81611f87565b92915050565b6000602082840312156127e7576127e6611f78565b5b60006127f5848285016127bc565b91505092915050565b7f4e487b7100000000000000000000000000000000000000000000000000000000600052601260045260246000fd5b7f4e487b7100000000000000000000000000000000000000000000000000000000600052601160045260246000fd5b600061286782611f7d565b915061287283611f7d565b925082612882576128816127fe565b5b828204905092915050565b600061289882611f7d565b91506128a383611f7d565b92508282026128b181611f7d565b915082820484148315176128c8576128c761282d565b5b5092915050565b60006128da8261201a565b91506128e58361201a565b925082820390508181126000841216828213600085121516171561290c5761290b61282d565b5b92915050565b600061291d8261201a565b91506129288361201a565b9250828201905082811215600083121683821260008412151617156129505761294f61282d565b5b92915050565b7f4e487b7100000000000000000000000000000000000000000000000000000000600052602160045260246000fd5b600061299082611f7d565b915061299b83611f7d565b92508282039050818111156129b3576129b261282d565b5b92915050565b60006129c482611f7d565b91506129cf83611f7d565b92508282019050808211156129e7576129e661282d565b5b92915050565b600082825260208201905092915050565b7f496e636f727265637420766f6c207072656d69756d0000000000000000000000600082015250565b6000612a346015836129ed565b9150612a3f826129fe565b602082019050919050565b60006020820190508181036000830152612a6381612a27565b9050919050565b6000819050919050565b6000819050919050565b6000612a99612a94612a8f84612a6a565b612a74565b611f7d565b9050919050565b612aa981612a7e565b82525050565b6000819050919050565b6000612ad4612acf612aca84612aaf565b612a74565b611f7d565b9050919050565b612ae481612ab9565b82525050565b6000606082019050612aff60008301866120c4565b612b0c6020830185612aa0565b612b196040830184612adb565b949350505050565b7f6f7074696f6e207370726561642077726f6e6700000000000000000000000000600082015250565b6000612b576013836129ed565b9150612b6282612b21565b602082019050919050565b60006020820190508181036000830152612b8681612b4a565b9050919050565b7f77726f6e672074696d652076616c756500000000000000000000000000000000600082015250565b6000612bc36010836129ed565b9150612bce82612b8d565b602082019050919050565b60006020820190508181036000830152612bf281612bb6565b9050919050565b6000612c048261201a565b91507f80000000000000000000000000000000000000000000000000000000000000008203612c3657612c3561282d565b5b816000039050919050565b7f77726f6e67207072656d69756d00000000000000000000000000000000000000600082015250565b6000612c77600d836129ed565b9150612c8282612c41565b602082019050919050565b60006020820190508181036000830152612ca681612c6a565b9050919050565b6000606082019050612cc260008301866120c4565b612ccf60208301856120c4565b612cdc60408301846120c4565b949350505050565b7f43617061636974792062726561636865642e0000000000000000000000000000600082015250565b6000612d1a6012836129ed565b9150612d2582612ce4565b602082019050919050565b60006020820190508181036000830152612d4981612d0d565b9050919050565b7f53616665436173743a2076616c756520646f65736e27742066697420696e206160008201527f6e20696e74323536000000000000000000000000000000000000000000000000602082015250565b6000612dac6028836129ed565b9150612db782612d50565b604082019050919050565b60006020820190508181036000830152612ddb81612d9f565b9050919050565b7f53616665436173743a2076616c7565206d75737420626520706f736974697665600082015250565b6000612e186020836129ed565b9150612e2382612de2565b602082019050919050565b60006020820190508181036000830152612e4781612e0b565b905091905056fea264697066735822122072d0d49570c83d46ab7ac2952f21a35534a4b22c874883a120504b1236dc1d0464736f6c63430008110033",
  "immutableReferences": {},
  "source": "// SPDX-License-Identifier: MIT\npragma solidity 0.8.17;\n\nimport \"@openzeppelin/contracts/utils/math/SafeCast.sol\";\nimport \"@openzeppelin/contracts/utils/math/SignedMath.sol\";\nimport \"@openzeppelin/contracts/utils/math/Math.sol\";\nimport \"./MathLib.sol\";\n\nlibrary OptionLib {\n  using MathLib for uint256;\n  using SignedMath for int256;\n  using MathLib for int256;\n  using Math for uint256;\n\n  enum PayoffType { Call, Put, CallSpread, PutSpread}\n  enum OptionSide{ Buy, Sell}\n  enum OptionStatus { Draft, Active, Exercised, Expired}\n  enum PaymentMethod { USDC, Token, Vol}\n\n  uint256 internal constant SECONDS_1Y = 31536000; // 365 * 24 * 60 * 60\n\n  // Items: option type, option side, contract status, contract holder address, contract id, creation timestamp, effective timestamp, tenor in seconds, maturity timestamp, excersie timestamp, amount or size of contract, current spot price, option strike, implied volatility, calculated premium and total cost including collaterals.\n  struct Option { \n    PayoffType poType; OptionSide side; OptionStatus status; \n    address holder; uint256 id; \n    uint256 createTime; uint256 effectiveTime; \n    uint256 tenor; uint256 maturity; uint256 exerciseTime; \n    uint256 amount;\n    uint256 spot; uint256 strike; uint256 spread;\n    uint256 volatility;\n    uint256 premium;uint256 cost;\n    address pool;\n    int256 exposure;\n    uint256 fee;}\n\n  uint256 internal constant BASE  = 1e18;\n\n  function calcIntrinsicValue(Option memory _option, uint256 _price) public pure returns(uint256){\n    uint256 _intrinsicValue = 0;\n    if((_option.poType == PayoffType.Call) && (_price > _option.strike)){\n      _intrinsicValue = _price - _option.strike; \n    }\n    if((_option.poType == PayoffType.Put) && (_price < _option.strike)){ \n      _intrinsicValue = _option.strike - _price;\n    }\n    if((_option.poType == PayoffType.CallSpread) && (_price > _option.strike)) {\n      if(_price >= _option.strike + _option.spread){ \n        _intrinsicValue = _option.spread;\n      }\n      else{ \n        _intrinsicValue = _price - _option.strike; \n      }\n    }\n    if((_option.poType == PayoffType.PutSpread) && (_price < _option.strike)){\n      require(_option.strike > _option.spread, \"option spread wrong\");\n      if(_price <= _option.strike - _option.spread){ \n        _intrinsicValue = _option.spread;\n      }\n      else{\n        _intrinsicValue = _option.strike - _price;\n      }\n    }\n    return _intrinsicValue.ethmul(_option.amount); }\n\n  function calcTimeValue(uint256 _strike, uint256 _amount, uint256 _price, uint256 _volatilityByT, uint256 _atmPremium) public pure returns (uint256){\n    if(_volatilityByT == 0) return 0;\n    uint256 _m = _strike > _price? _price.ethdiv(_strike) : _strike.ethdiv(_price); // always in (0,1]\n    uint256 _v = _volatilityByT > BASE? BASE: _volatilityByT; // always in (0, 1]\n    uint256 _v0 = (_v / 2).ethdiv(BASE + _v / 2); // base value of v0 when _m = 0, always < 1\n    uint256 _v1 = (_v / 2).ethdiv(BASE + _v / 2 - _m); // otm adjustment, always in [_v0, 1]\n    uint256 _vadj = _v1 - _v0; // ratio adjusted with v0 so that the ratio -> 0 when _m -> 0, always in [0, 1 - _v0]\n    return _atmPremium.ethmul(_vadj).ethmul(_amount);}\n\n  function calcPremium(Option memory _option, uint256 _price, uint256 _volatilityByT, uint256 _loanInterest) external pure returns(uint256 _premium){\n    uint256 _intrinsicValue = calcIntrinsicValue(_option, _price);\n\n    // uint256 _interest = _loanInterest.muldiv( _option.tenor, SECONDS_1Y);\n    // int256 _atm_d = SafeCast.toInt256(_volatilityByT/ 2); // d1 value when at the money\n    // uint256 _discount = (_atm_d - SafeCast.toInt256(_volatilityByT)).logistic().discount(_interest);\n    uint256 _volAdjusted = _volatilityByT.muldiv(16, 10); // multiply vol by 1.6 so when it's multiplied by 0.25 below the factor becomes 0.4\n    uint256 _atmPremium = _price.ethmul(_volAdjusted / 4); // use 0.25 sigma as atm premium to ensure arbitrage free //_atm_d.logistic() - _discount);\n    \n    uint256 _timeValue = calcTimeValue(_option.strike, _option.amount, _price, _volAdjusted, _atmPremium);\n    uint256 _spreadTimeValue = 0;\n    if(_option.poType == PayoffType.CallSpread){\n      _spreadTimeValue = calcTimeValue(_option.strike + _option.spread, _option.amount, _price, _volAdjusted, _atmPremium);\n    }\n    else if(_option.poType == PayoffType.PutSpread){\n      require(_option.strike > _option.spread, \"option spread wrong\");\n      _spreadTimeValue = calcTimeValue(_option.strike - _option.spread, _option.amount, _price, _volAdjusted, _atmPremium);\n    }\n    \n    require((_intrinsicValue + _timeValue) >= _spreadTimeValue, \"wrong time value\");\n    _premium = _intrinsicValue + _timeValue - _spreadTimeValue;}\n\n  function calcCollateral(Option memory _option, uint256 _price, uint256 _premium) external pure returns(uint256 _collateral){\n    if(_option.poType == PayoffType.Put){ \n      _collateral =  _option.amount.ethmul(_option.strike);\n    }\n    else if(_option.poType == PayoffType.Call){ \n      _collateral = _option.amount.ethmul(_price);\n    }\n    else if(_option.poType == PayoffType.PutSpread || _option.poType == PayoffType.CallSpread){ \n      _collateral =  _option.amount.ethmul(_option.spread);\n    }\n    require(_collateral > _premium , 'wrong premium');\n  }\n\n  // payoff is the premium of options, payback is the amount owned to the option holder including both the signed amount of payoff and paid collaterals.\n  function calcPayoff(Option storage _option, uint256 _price) external view returns(uint256){\n    uint256 _intrinsic = calcIntrinsicValue(_option, _price);\n    if(_option.side == OptionSide.Sell){\n      uint256 _collateral = _option.amount.ethmul((_option.poType == PayoffType.Call)? _price : ((_option.poType == PayoffType.Put)? _option.strike: _option.spread));\n      return _collateral - _collateral.min(_intrinsic);\n    }\n    else{\n      return _intrinsic;\n    }\n  }\n\n  function getUnderCollateral(Option storage _option) external view returns(uint256 _collateral){\n    if(_option.side == OptionSide.Sell && _option.poType == PayoffType.Call) {\n      _collateral = _option.amount;}\n      }\n\n  function sellFundCollateral(Option storage _option) external view returns (uint256 _collateral){\n    if(_option.side == OptionSide.Sell){\n      if(_option.poType == PayoffType.Put) {\n        _collateral = _option.amount.ethmul(_option.strike);}\n      else if(_option.poType == PayoffType.PutSpread || _option.poType == PayoffType.CallSpread){\n        _collateral = _option.amount.ethmul(_option.spread);}\n    } }\n\n  function quoteCallVol(Option memory _option, uint256 _price, uint256 _volatilityByT, uint256 _volCapacityFactor, int256 _currentExposureUp, uint256 _maxExposure) external pure returns(uint256 _impVol, int256 _exposureUp){\n    _exposureUp = calcDelta(_option, _price, _volatilityByT);\n    int256 _newExposure = _currentExposureUp + _exposureUp;\n    _impVol = calcRiskPremium(_maxExposure, _currentExposureUp, _newExposure, _volatilityByT , _volCapacityFactor);\n  }\n\n  function quotePutVol(Option memory _option, uint256 _price, uint256 _volatilityByT, uint256 _volCapacityFactor, int256 _currentExposureDown, uint256 _maxExposure) external pure returns(uint256 _impVol, int256 _exposureDown){\n    _exposureDown = calcDelta(_option, _price, _volatilityByT);\n    int256 _newExposure = _currentExposureDown + _exposureDown;\n    _impVol = calcRiskPremium(_maxExposure, -_currentExposureDown, -_newExposure, _volatilityByT , _volCapacityFactor);\n  }\n\n  function calcDelta(Option memory _option, uint256 _price, uint256 _volatilityByT) public pure returns(int256 _delta){\n    if (_option.poType == PayoffType.Call){\n      _delta = delta(_price, _option.strike, _volatilityByT, _option.amount);\n    }\n    else if(_option.poType == PayoffType.Put){\n      _delta = -SafeCast.toInt256(_option.amount) + delta(_price, _option.strike, _volatilityByT, _option.amount);\n    }\n    else if (_option.poType == PayoffType.PutSpread){\n      require(_option.strike > _option.spread, \"option spread wrong\");\n      _delta = -SafeCast.toInt256(_option.amount) + delta(_price.min(_option.strike - _option.spread), _option.strike, _volatilityByT, _option.amount);\n    }\n    else if (_option.poType == PayoffType.CallSpread){\n      _delta = delta(_price.max(_option.strike + _option.spread), _option.strike, _volatilityByT, _option.amount);\n    }\n    \n    if(_option.side== OptionSide.Sell){\n      _delta = -_delta;\n    }\n  }\n  \n  function delta(uint256 _price, uint256 _strike, uint256 _vol, uint256 _amount) public pure returns(int256 _delta){\n    uint256 _moneyness = _price.ethdiv(_strike);\n    int256 _d = SafeCast.toInt256(2 *  (_moneyness * BASE).sqrt().ethdiv(_vol)) - SafeCast.toInt256(2 * BASE.ethdiv(_vol)) + SafeCast.toInt256(_vol/ 2);\n    _delta = SafeCast.toInt256(_d.logistic().ethmul(_amount));\n  }\n\n  function calcRiskPremium(uint256 _maxExposure, int256 _currentExposure, int256 _newExposure, uint256 _runningVol,uint256 _volCapacityFactor ) public pure returns(uint256){\n    int256 _riskPremium = calcRiskPremiumAMM(_maxExposure, _currentExposure,  _runningVol, _volCapacityFactor).average(calcRiskPremiumAMM(_maxExposure, _newExposure, _runningVol, _volCapacityFactor));\n    require((SafeCast.toInt256(_runningVol) + _riskPremium) > 0,\"Incorrect vol premium\");\n    return SafeCast.toUint256(SafeCast.toInt256(_runningVol) + _riskPremium); \n  }\n\n  function calcRiskPremiumAMM(uint256 _max, int256 _input, uint256 _constant, uint256 _volCapacityFactor) public pure returns(int256) {\n    int256 _capacity = SafeCast.toInt256(BASE); // capacity should be in (0,2)\n    if(_input < 0){_capacity +=  SafeCast.toInt256(uint256(-_input).muldiv(_volCapacityFactor, _max));}\n    if(_input > 0){ _capacity -= SafeCast.toInt256(uint256(_input).muldiv(_volCapacityFactor, _max));}\n    require(_capacity>=0 , \"Capacity breached.\");\n    return SafeCast.toInt256(_constant.ethdiv(uint256(_capacity))) - SafeCast.toInt256(_constant);}\n  \n}\n",
  "sourcePath": "/Users/mac/Documents/GitHub/moret/contracts/libraries/OptionLib.sol",
  "compiler": {
    "name": "solc",
    "version": "0.8.17+commit.8df45f5f.Emscripten.clang"
  },
  "schemaVersion": "3.4.3",
  "updatedAt": "2023-04-01T11:10:30.622Z",
  "networkType": "ethereum",
  "devdoc": {
    "kind": "dev",
    "methods": {},
    "version": 1
  },
  "userdoc": {
    "kind": "user",
    "methods": {},
    "version": 1
  }
}