{
  "contractName": "Perp",
  "abi": [
    {
      "inputs": [
        {
          "internalType": "address",
          "name": "_pool",
          "type": "address"
        },
        {
          "internalType": "string",
          "name": "_name",
          "type": "string"
        },
        {
          "internalType": "string",
          "name": "_symbol",
          "type": "string"
        },
        {
          "components": [
            {
              "internalType": "bool",
              "name": "long",
              "type": "bool"
            },
            {
              "internalType": "uint256",
              "name": "itm",
              "type": "uint256"
            },
            {
              "internalType": "uint256",
              "name": "itm2",
              "type": "uint256"
            },
            {
              "internalType": "uint256",
              "name": "leverage",
              "type": "uint256"
            },
            {
              "internalType": "uint256",
              "name": "lower",
              "type": "uint256"
            },
            {
              "internalType": "uint256",
              "name": "upper",
              "type": "uint256"
            },
            {
              "internalType": "uint256",
              "name": "penalty",
              "type": "uint256"
            },
            {
              "internalType": "uint256",
              "name": "tenor",
              "type": "uint256"
            }
          ],
          "internalType": "struct Perp.PerpParam",
          "name": "_params",
          "type": "tuple"
        }
      ],
      "stateMutability": "nonpayable",
      "type": "constructor"
    },
    {
      "anonymous": false,
      "inputs": [
        {
          "indexed": true,
          "internalType": "address",
          "name": "owner",
          "type": "address"
        },
        {
          "indexed": true,
          "internalType": "address",
          "name": "spender",
          "type": "address"
        },
        {
          "indexed": false,
          "internalType": "uint256",
          "name": "value",
          "type": "uint256"
        }
      ],
      "name": "Approval",
      "type": "event"
    },
    {
      "anonymous": false,
      "inputs": [
        {
          "indexed": true,
          "internalType": "address",
          "name": "previousOwner",
          "type": "address"
        },
        {
          "indexed": true,
          "internalType": "address",
          "name": "newOwner",
          "type": "address"
        }
      ],
      "name": "OwnershipTransferred",
      "type": "event"
    },
    {
      "anonymous": false,
      "inputs": [
        {
          "indexed": false,
          "internalType": "address",
          "name": "investor",
          "type": "address"
        },
        {
          "indexed": false,
          "internalType": "uint256",
          "name": "tokenUnit",
          "type": "uint256"
        },
        {
          "indexed": false,
          "internalType": "uint256",
          "name": "divestAmount",
          "type": "uint256"
        }
      ],
      "name": "PerpDivest",
      "type": "event"
    },
    {
      "anonymous": false,
      "inputs": [
        {
          "indexed": false,
          "internalType": "address",
          "name": "investor",
          "type": "address"
        },
        {
          "indexed": false,
          "internalType": "uint256",
          "name": "tokenUnit",
          "type": "uint256"
        },
        {
          "indexed": false,
          "internalType": "uint256",
          "name": "investAmount",
          "type": "uint256"
        }
      ],
      "name": "PerpInvest",
      "type": "event"
    },
    {
      "anonymous": false,
      "inputs": [
        {
          "indexed": false,
          "internalType": "bool",
          "name": "liquidation",
          "type": "bool"
        },
        {
          "indexed": false,
          "internalType": "address",
          "name": "bot",
          "type": "address"
        }
      ],
      "name": "PerpLiquidation",
      "type": "event"
    },
    {
      "anonymous": false,
      "inputs": [
        {
          "indexed": false,
          "internalType": "uint256",
          "name": "leverage",
          "type": "uint256"
        },
        {
          "indexed": false,
          "internalType": "address",
          "name": "bot",
          "type": "address"
        }
      ],
      "name": "PerpRebalance",
      "type": "event"
    },
    {
      "anonymous": false,
      "inputs": [
        {
          "indexed": true,
          "internalType": "address",
          "name": "from",
          "type": "address"
        },
        {
          "indexed": true,
          "internalType": "address",
          "name": "to",
          "type": "address"
        },
        {
          "indexed": false,
          "internalType": "uint256",
          "name": "value",
          "type": "uint256"
        }
      ],
      "name": "Transfer",
      "type": "event"
    },
    {
      "inputs": [
        {
          "internalType": "address",
          "name": "owner",
          "type": "address"
        },
        {
          "internalType": "address",
          "name": "spender",
          "type": "address"
        }
      ],
      "name": "allowance",
      "outputs": [
        {
          "internalType": "uint256",
          "name": "",
          "type": "uint256"
        }
      ],
      "stateMutability": "view",
      "type": "function"
    },
    {
      "inputs": [
        {
          "internalType": "address",
          "name": "spender",
          "type": "address"
        },
        {
          "internalType": "uint256",
          "name": "amount",
          "type": "uint256"
        }
      ],
      "name": "approve",
      "outputs": [
        {
          "internalType": "bool",
          "name": "",
          "type": "bool"
        }
      ],
      "stateMutability": "nonpayable",
      "type": "function"
    },
    {
      "inputs": [
        {
          "internalType": "address",
          "name": "account",
          "type": "address"
        }
      ],
      "name": "balanceOf",
      "outputs": [
        {
          "internalType": "uint256",
          "name": "",
          "type": "uint256"
        }
      ],
      "stateMutability": "view",
      "type": "function"
    },
    {
      "inputs": [],
      "name": "decimals",
      "outputs": [
        {
          "internalType": "uint8",
          "name": "",
          "type": "uint8"
        }
      ],
      "stateMutability": "view",
      "type": "function"
    },
    {
      "inputs": [
        {
          "internalType": "address",
          "name": "spender",
          "type": "address"
        },
        {
          "internalType": "uint256",
          "name": "subtractedValue",
          "type": "uint256"
        }
      ],
      "name": "decreaseAllowance",
      "outputs": [
        {
          "internalType": "bool",
          "name": "",
          "type": "bool"
        }
      ],
      "stateMutability": "nonpayable",
      "type": "function"
    },
    {
      "inputs": [],
      "name": "exchange",
      "outputs": [
        {
          "internalType": "contract Exchange",
          "name": "",
          "type": "address"
        }
      ],
      "stateMutability": "view",
      "type": "function"
    },
    {
      "inputs": [],
      "name": "funding",
      "outputs": [
        {
          "internalType": "contract ERC20",
          "name": "",
          "type": "address"
        }
      ],
      "stateMutability": "view",
      "type": "function"
    },
    {
      "inputs": [],
      "name": "fundingDecimals",
      "outputs": [
        {
          "internalType": "uint256",
          "name": "",
          "type": "uint256"
        }
      ],
      "stateMutability": "view",
      "type": "function"
    },
    {
      "inputs": [],
      "name": "fundingMultiplier",
      "outputs": [
        {
          "internalType": "uint256",
          "name": "",
          "type": "uint256"
        }
      ],
      "stateMutability": "view",
      "type": "function"
    },
    {
      "inputs": [
        {
          "internalType": "address",
          "name": "spender",
          "type": "address"
        },
        {
          "internalType": "uint256",
          "name": "addedValue",
          "type": "uint256"
        }
      ],
      "name": "increaseAllowance",
      "outputs": [
        {
          "internalType": "bool",
          "name": "",
          "type": "bool"
        }
      ],
      "stateMutability": "nonpayable",
      "type": "function"
    },
    {
      "inputs": [],
      "name": "liquidating",
      "outputs": [
        {
          "internalType": "bool",
          "name": "",
          "type": "bool"
        }
      ],
      "stateMutability": "view",
      "type": "function"
    },
    {
      "inputs": [],
      "name": "margin",
      "outputs": [
        {
          "internalType": "uint256",
          "name": "",
          "type": "uint256"
        }
      ],
      "stateMutability": "view",
      "type": "function"
    },
    {
      "inputs": [],
      "name": "market",
      "outputs": [
        {
          "internalType": "contract MarketMaker",
          "name": "",
          "type": "address"
        }
      ],
      "stateMutability": "view",
      "type": "function"
    },
    {
      "inputs": [],
      "name": "name",
      "outputs": [
        {
          "internalType": "string",
          "name": "",
          "type": "string"
        }
      ],
      "stateMutability": "view",
      "type": "function"
    },
    {
      "inputs": [],
      "name": "notional",
      "outputs": [
        {
          "internalType": "uint256",
          "name": "",
          "type": "uint256"
        }
      ],
      "stateMutability": "view",
      "type": "function"
    },
    {
      "inputs": [],
      "name": "optionEffective",
      "outputs": [
        {
          "internalType": "uint256",
          "name": "",
          "type": "uint256"
        }
      ],
      "stateMutability": "view",
      "type": "function"
    },
    {
      "inputs": [],
      "name": "optionId",
      "outputs": [
        {
          "internalType": "uint256",
          "name": "",
          "type": "uint256"
        }
      ],
      "stateMutability": "view",
      "type": "function"
    },
    {
      "inputs": [],
      "name": "optionPayment",
      "outputs": [
        {
          "internalType": "enum OptionLib.PaymentMethod",
          "name": "",
          "type": "uint8"
        }
      ],
      "stateMutability": "view",
      "type": "function"
    },
    {
      "inputs": [],
      "name": "optionSide",
      "outputs": [
        {
          "internalType": "enum OptionLib.OptionSide",
          "name": "",
          "type": "uint8"
        }
      ],
      "stateMutability": "view",
      "type": "function"
    },
    {
      "inputs": [],
      "name": "optionStrike",
      "outputs": [
        {
          "internalType": "uint256",
          "name": "",
          "type": "uint256"
        }
      ],
      "stateMutability": "view",
      "type": "function"
    },
    {
      "inputs": [],
      "name": "oracle",
      "outputs": [
        {
          "internalType": "contract VolatilityChain",
          "name": "",
          "type": "address"
        }
      ],
      "stateMutability": "view",
      "type": "function"
    },
    {
      "inputs": [],
      "name": "owner",
      "outputs": [
        {
          "internalType": "address",
          "name": "",
          "type": "address"
        }
      ],
      "stateMutability": "view",
      "type": "function"
    },
    {
      "inputs": [],
      "name": "params",
      "outputs": [
        {
          "internalType": "bool",
          "name": "long",
          "type": "bool"
        },
        {
          "internalType": "uint256",
          "name": "itm",
          "type": "uint256"
        },
        {
          "internalType": "uint256",
          "name": "itm2",
          "type": "uint256"
        },
        {
          "internalType": "uint256",
          "name": "leverage",
          "type": "uint256"
        },
        {
          "internalType": "uint256",
          "name": "lower",
          "type": "uint256"
        },
        {
          "internalType": "uint256",
          "name": "upper",
          "type": "uint256"
        },
        {
          "internalType": "uint256",
          "name": "penalty",
          "type": "uint256"
        },
        {
          "internalType": "uint256",
          "name": "tenor",
          "type": "uint256"
        }
      ],
      "stateMutability": "view",
      "type": "function"
    },
    {
      "inputs": [],
      "name": "pool",
      "outputs": [
        {
          "internalType": "contract Pool",
          "name": "",
          "type": "address"
        }
      ],
      "stateMutability": "view",
      "type": "function"
    },
    {
      "inputs": [],
      "name": "renounceOwnership",
      "outputs": [],
      "stateMutability": "nonpayable",
      "type": "function"
    },
    {
      "inputs": [],
      "name": "symbol",
      "outputs": [
        {
          "internalType": "string",
          "name": "",
          "type": "string"
        }
      ],
      "stateMutability": "view",
      "type": "function"
    },
    {
      "inputs": [],
      "name": "totalSupply",
      "outputs": [
        {
          "internalType": "uint256",
          "name": "",
          "type": "uint256"
        }
      ],
      "stateMutability": "view",
      "type": "function"
    },
    {
      "inputs": [
        {
          "internalType": "address",
          "name": "to",
          "type": "address"
        },
        {
          "internalType": "uint256",
          "name": "amount",
          "type": "uint256"
        }
      ],
      "name": "transfer",
      "outputs": [
        {
          "internalType": "bool",
          "name": "",
          "type": "bool"
        }
      ],
      "stateMutability": "nonpayable",
      "type": "function"
    },
    {
      "inputs": [
        {
          "internalType": "address",
          "name": "from",
          "type": "address"
        },
        {
          "internalType": "address",
          "name": "to",
          "type": "address"
        },
        {
          "internalType": "uint256",
          "name": "amount",
          "type": "uint256"
        }
      ],
      "name": "transferFrom",
      "outputs": [
        {
          "internalType": "bool",
          "name": "",
          "type": "bool"
        }
      ],
      "stateMutability": "nonpayable",
      "type": "function"
    },
    {
      "inputs": [
        {
          "internalType": "address",
          "name": "newOwner",
          "type": "address"
        }
      ],
      "name": "transferOwnership",
      "outputs": [],
      "stateMutability": "nonpayable",
      "type": "function"
    },
    {
      "inputs": [],
      "name": "vault",
      "outputs": [
        {
          "internalType": "contract OptionVault",
          "name": "",
          "type": "address"
        }
      ],
      "stateMutability": "view",
      "type": "function"
    },
    {
      "inputs": [
        {
          "internalType": "uint256",
          "name": "_investment",
          "type": "uint256"
        }
      ],
      "name": "invest",
      "outputs": [],
      "stateMutability": "nonpayable",
      "type": "function"
    },
    {
      "inputs": [
        {
          "internalType": "uint256",
          "name": "_divestment",
          "type": "uint256"
        }
      ],
      "name": "divest",
      "outputs": [],
      "stateMutability": "nonpayable",
      "type": "function"
    },
    {
      "inputs": [],
      "name": "rebalance",
      "outputs": [],
      "stateMutability": "nonpayable",
      "type": "function"
    },
    {
      "inputs": [],
      "name": "createOption",
      "outputs": [],
      "stateMutability": "nonpayable",
      "type": "function"
    },
    {
      "inputs": [],
      "name": "getCurrentLeverage",
      "outputs": [
        {
          "internalType": "uint256",
          "name": "_leverage",
          "type": "uint256"
        }
      ],
      "stateMutability": "view",
      "type": "function"
    },
    {
      "inputs": [],
      "name": "getPV",
      "outputs": [
        {
          "internalType": "uint256",
          "name": "_pv",
          "type": "uint256"
        }
      ],
      "stateMutability": "view",
      "type": "function"
    },
    {
      "inputs": [
        {
          "internalType": "bool",
          "name": "_liquidating",
          "type": "bool"
        }
      ],
      "name": "setLiquidation",
      "outputs": [],
      "stateMutability": "nonpayable",
      "type": "function"
    }
  ],
  "bytecode": "0x6101c0604052600060018111156200001c576200001b620007e4565b5b6080906001811115620000345762000033620007e4565b5b815250600060028111156200004e576200004d620007e4565b5b60a0906002811115620000665762000065620007e4565b5b8152506000601460006101000a81548160ff0219169083151502179055503480156200009157600080fd5b506040516200668a3803806200668a8339818101604052810190620000b7919062000b67565b82828160039081620000ca919062000e59565b508060049081620000dc919062000e59565b505050620000ff620000f36200071660201b60201c565b6200071e60201b60201c565b6001600681905550600073ffffffffffffffffffffffffffffffffffffffff168473ffffffffffffffffffffffffffffffffffffffff160362000179576040517f08c379a0000000000000000000000000000000000000000000000000000000008152600401620001709062000fa1565b60405180910390fd5b8373ffffffffffffffffffffffffffffffffffffffff166101808173ffffffffffffffffffffffffffffffffffffffff16815250506101805173ffffffffffffffffffffffffffffffffffffffff1663d2f7265a6040518163ffffffff1660e01b8152600401602060405180830381865afa158015620001fd573d6000803e3d6000fd5b505050506040513d601f19601f8201168201806040525081019062000223919062000fc3565b73ffffffffffffffffffffffffffffffffffffffff1660e08173ffffffffffffffffffffffffffffffffffffffff168152505060e05173ffffffffffffffffffffffffffffffffffffffff1663fbfa77cf6040518163ffffffff1660e01b8152600401602060405180830381865afa158015620002a4573d6000803e3d6000fd5b505050506040513d601f19601f82011682018060405250810190620002ca91906200103a565b73ffffffffffffffffffffffffffffffffffffffff166101008173ffffffffffffffffffffffffffffffffffffffff16815250506101805173ffffffffffffffffffffffffffffffffffffffff16631f21f9af6040518163ffffffff1660e01b8152600401602060405180830381865afa1580156200034d573d6000803e3d6000fd5b505050506040513d601f19601f82011682018060405250810190620003739190620010b1565b73ffffffffffffffffffffffffffffffffffffffff166101a08173ffffffffffffffffffffffffffffffffffffffff16815250506101a05173ffffffffffffffffffffffffffffffffffffffff1663c0a16f6a6040518163ffffffff1660e01b8152600401602060405180830381865afa158015620003f6573d6000803e3d6000fd5b505050506040513d601f19601f820116820180604052508101906200041c919062001128565b73ffffffffffffffffffffffffffffffffffffffff1660c08173ffffffffffffffffffffffffffffffffffffffff16815250506101a05173ffffffffffffffffffffffffffffffffffffffff1663cb4c86b76040518163ffffffff1660e01b8152600401602060405180830381865afa1580156200049e573d6000803e3d6000fd5b505050506040513d601f19601f82011682018060405250810190620004c4919062000fc3565b73ffffffffffffffffffffffffffffffffffffffff166101208173ffffffffffffffffffffffffffffffffffffffff16815250506101205173ffffffffffffffffffffffffffffffffffffffff16633950935160e0517fffffffffffffffffffffffffffffffffffffffffffffffffffffffffffffffff6040518363ffffffff1660e01b81526004016200055a929190620011ae565b6020604051808303816000875af11580156200057a573d6000803e3d6000fd5b505050506040513d601f19601f82011682018060405250810190620005a09190620011db565b506101205173ffffffffffffffffffffffffffffffffffffffff1663313ce5676040518163ffffffff1660e01b8152600401602060405180830381865afa158015620005f0573d6000803e3d6000fd5b505050506040513d601f19601f820116820180604052508101906200061691906200124b565b60ff16610140818152505061014051600a62000633919062001400565b610160818152505042600a81905550600081602001511180156200065e575080602001518160400151115b620006a0576040517f08c379a00000000000000000000000000000000000000000000000000000000081526004016200069790620014a1565b60405180910390fd5b80600c60008201518160000160006101000a81548160ff0219169083151502179055506020820151816001015560408201518160020155606082015181600301556080820151816004015560a0820151816005015560c0820151816006015560e0820151816007015590505050505050620014c3565b600033905090565b6000600560009054906101000a900473ffffffffffffffffffffffffffffffffffffffff16905081600560006101000a81548173ffffffffffffffffffffffffffffffffffffffff021916908373ffffffffffffffffffffffffffffffffffffffff1602179055508173ffffffffffffffffffffffffffffffffffffffff168173ffffffffffffffffffffffffffffffffffffffff167f8be0079c531659141344cd1fd0a4f28419497f9722a3daafe3b4186f6b6457e060405160405180910390a35050565b7f4e487b7100000000000000000000000000000000000000000000000000000000600052602160045260246000fd5b6000604051905090565b600080fd5b600080fd5b600073ffffffffffffffffffffffffffffffffffffffff82169050919050565b6000620008548262000827565b9050919050565b620008668162000847565b81146200087257600080fd5b50565b60008151905062000886816200085b565b92915050565b600080fd5b600080fd5b6000601f19601f8301169050919050565b7f4e487b7100000000000000000000000000000000000000000000000000000000600052604160045260246000fd5b620008e18262000896565b810181811067ffffffffffffffff82111715620009035762000902620008a7565b5b80604052505050565b60006200091862000813565b9050620009268282620008d6565b919050565b600067ffffffffffffffff821115620009495762000948620008a7565b5b620009548262000896565b9050602081019050919050565b60005b838110156200098157808201518184015260208101905062000964565b60008484015250505050565b6000620009a46200099e846200092b565b6200090c565b905082815260208101848484011115620009c357620009c262000891565b5b620009d084828562000961565b509392505050565b600082601f830112620009f057620009ef6200088c565b5b815162000a028482602086016200098d565b91505092915050565b600080fd5b60008115159050919050565b62000a278162000a10565b811462000a3357600080fd5b50565b60008151905062000a478162000a1c565b92915050565b6000819050919050565b62000a628162000a4d565b811462000a6e57600080fd5b50565b60008151905062000a828162000a57565b92915050565b6000610100828403121562000aa25762000aa162000a0b565b5b62000aaf6101006200090c565b9050600062000ac18482850162000a36565b600083015250602062000ad78482850162000a71565b602083015250604062000aed8482850162000a71565b604083015250606062000b038482850162000a71565b606083015250608062000b198482850162000a71565b60808301525060a062000b2f8482850162000a71565b60a08301525060c062000b458482850162000a71565b60c08301525060e062000b5b8482850162000a71565b60e08301525092915050565b600080600080610160858703121562000b855762000b846200081d565b5b600062000b958782880162000875565b945050602085015167ffffffffffffffff81111562000bb95762000bb862000822565b5b62000bc787828801620009d8565b935050604085015167ffffffffffffffff81111562000beb5762000bea62000822565b5b62000bf987828801620009d8565b925050606062000c0c8782880162000a88565b91505092959194509250565b600081519050919050565b7f4e487b7100000000000000000000000000000000000000000000000000000000600052602260045260246000fd5b6000600282049050600182168062000c6b57607f821691505b60208210810362000c815762000c8062000c23565b5b50919050565b60008190508160005260206000209050919050565b60006020601f8301049050919050565b600082821b905092915050565b60006008830262000ceb7fffffffffffffffffffffffffffffffffffffffffffffffffffffffffffffffff8262000cac565b62000cf7868362000cac565b95508019841693508086168417925050509392505050565b6000819050919050565b600062000d3a62000d3462000d2e8462000a4d565b62000d0f565b62000a4d565b9050919050565b6000819050919050565b62000d568362000d19565b62000d6e62000d658262000d41565b84845462000cb9565b825550505050565b600090565b62000d8562000d76565b62000d9281848462000d4b565b505050565b5b8181101562000dba5762000dae60008262000d7b565b60018101905062000d98565b5050565b601f82111562000e095762000dd38162000c87565b62000dde8462000c9c565b8101602085101562000dee578190505b62000e0662000dfd8562000c9c565b83018262000d97565b50505b505050565b600082821c905092915050565b600062000e2e6000198460080262000e0e565b1980831691505092915050565b600062000e49838362000e1b565b9150826002028217905092915050565b62000e648262000c18565b67ffffffffffffffff81111562000e805762000e7f620008a7565b5b62000e8c825462000c52565b62000e9982828562000dbe565b600060209050601f83116001811462000ed1576000841562000ebc578287015190505b62000ec8858262000e3b565b86555062000f38565b601f19841662000ee18662000c87565b60005b8281101562000f0b5784890151825560018201915060208501945060208101905062000ee4565b8683101562000f2b578489015162000f27601f89168262000e1b565b8355505b6001600288020188555050505b505050505050565b600082825260208201905092915050565b7f6e756c6c20706f6f6c2061646472657373000000000000000000000000000000600082015250565b600062000f8960118362000f40565b915062000f968262000f51565b602082019050919050565b6000602082019050818103600083015262000fbc8162000f7a565b9050919050565b60006020828403121562000fdc5762000fdb6200081d565b5b600062000fec8482850162000875565b91505092915050565b6000620010028262000847565b9050919050565b620010148162000ff5565b81146200102057600080fd5b50565b600081519050620010348162001009565b92915050565b6000602082840312156200105357620010526200081d565b5b6000620010638482850162001023565b91505092915050565b6000620010798262000847565b9050919050565b6200108b816200106c565b81146200109757600080fd5b50565b600081519050620010ab8162001080565b92915050565b600060208284031215620010ca57620010c96200081d565b5b6000620010da848285016200109a565b91505092915050565b6000620010f08262000847565b9050919050565b6200110281620010e3565b81146200110e57600080fd5b50565b6000815190506200112281620010f7565b92915050565b6000602082840312156200114157620011406200081d565b5b6000620011518482850162001111565b91505092915050565b620011658162000847565b82525050565b6000819050919050565b600062001196620011906200118a846200116b565b62000d0f565b62000a4d565b9050919050565b620011a88162001175565b82525050565b6000604082019050620011c560008301856200115a565b620011d460208301846200119d565b9392505050565b600060208284031215620011f457620011f36200081d565b5b6000620012048482850162000a36565b91505092915050565b600060ff82169050919050565b62001225816200120d565b81146200123157600080fd5b50565b60008151905062001245816200121a565b92915050565b6000602082840312156200126457620012636200081d565b5b6000620012748482850162001234565b91505092915050565b7f4e487b7100000000000000000000000000000000000000000000000000000000600052601160045260246000fd5b60008160011c9050919050565b6000808291508390505b60018511156200130b57808604811115620012e357620012e26200127d565b5b6001851615620012f35780820291505b80810290506200130385620012ac565b9450620012c3565b94509492505050565b600082620013265760019050620013f9565b81620013365760009050620013f9565b81600181146200134f57600281146200135a5762001390565b6001915050620013f9565b60ff8411156200136f576200136e6200127d565b5b8360020a9150848211156200138957620013886200127d565b5b50620013f9565b5060208310610133831016604e8410600b8410161715620013ca5782820a905083811115620013c457620013c36200127d565b5b620013f9565b620013d98484846001620012b9565b92509050818404811115620013f357620013f26200127d565b5b81810290505b9392505050565b60006200140d8262000a4d565b91506200141a8362000a4d565b9250620014497fffffffffffffffffffffffffffffffffffffffffffffffffffffffffffffffff848462001314565b905092915050565b7f6572726f72207065727020706172616d73000000000000000000000000000000600082015250565b60006200148960118362000f40565b9150620014968262001451565b602082019050919050565b60006020820190508181036000830152620014bc816200147a565b9050919050565b60805160a05160c05160e05161010051610120516101405161016051610180516101a0516150806200160a60003960006117a70152600081816107a301528181612178015281816123a9015281816125540152612659015260006107d1015260008181610b090152610cbc01526000818161090c01528181610a0401528181611210015281816114a80152818161165f0152818161199401528181611b6401528181611df50152612779015260008181610cee015281816111700152818161261d015261299401526000818161087c01528181611418015281816119040152818161213c0152818161236d0152818161251801526127e6015260008181610de501528181610e96015281816117830152611ed30152600081816112d801526125a50152600081816121a8015281816123d901528181612584015261275501526150806000f3fe608060405234801561001057600080fd5b50600436106102325760003560e01c8063836a559a11610130578063c8144107116100b8578063d31062b91161007c578063d31062b914610646578063dd62ed3e14610664578063f2fde38b14610694578063f855c2b2146106b0578063fbfa77cf146106ce57610232565b8063c8144107146105a9578063cb4c86b7146105c7578063cf1a9b7a146105e5578063cff0ab9614610603578063d2f7265a1461062857610232565b806395d89b41116100ff57806395d89b4114610503578063a457c2d714610521578063a9059cbb14610551578063ad27179614610581578063c49eefa11461059f57610232565b8063836a559a1461048f5780638ca17995146104ab5780638da5cb5b146104c75780638f76691a146104e557610232565b806339509351116101be57806370a082311161018257806370a082311461040f578063715018a61461043f5780637d7c2a1c146104495780637dc0d1d01461045357806380f556051461047157610232565b806339509351146103675780634094fb62146103975780635bfb92ce146103b5578063622e8a27146103d357806369bbf1ac146103f157610232565b8063205a785a11610205578063205a785a146102c157806323b872dd146102df5780632afcf4801461030f578063313ce5671461032b578063334b3e481461034957610232565b806306fdde0314610237578063095ea7b31461025557806316f0115b1461028557806318160ddd146102a3575b600080fd5b61023f6106ec565b60405161024c919061338d565b60405180910390f35b61026f600480360381019061026a9190613457565b61077e565b60405161027c91906134b2565b60405180910390f35b61028d6107a1565b60405161029a919061352c565b60405180910390f35b6102ab6107c5565b6040516102b89190613556565b60405180910390f35b6102c96107cf565b6040516102d69190613556565b60405180910390f35b6102f960048036038101906102f49190613571565b6107f3565b60405161030691906134b2565b60405180910390f35b610329600480360381019061032491906135c4565b610822565b005b610333610c67565b604051610340919061360d565b60405180910390f35b610351610c70565b60405161035e91906134b2565b60405180910390f35b610381600480360381019061037c9190613457565b610c83565b60405161038e91906134b2565b60405180910390f35b61039f610cba565b6040516103ac9190613556565b60405180910390f35b6103bd610cde565b6040516103ca9190613556565b60405180910390f35b6103db611160565b6040516103e89190613556565b60405180910390f35b6103f96112d6565b604051610406919061369f565b60405180910390f35b610429600480360381019061042491906136ba565b6112fa565b6040516104369190613556565b60405180910390f35b610447611342565b005b6104516113ca565b005b61045b611781565b6040516104689190613708565b60405180910390f35b6104796117a5565b6040516104869190613744565b60405180910390f35b6104a960048036038101906104a4919061378b565b6117c9565b005b6104c560048036038101906104c091906135c4565b6118aa565b005b6104cf611c91565b6040516104dc91906137c7565b60405180910390f35b6104ed611cbb565b6040516104fa9190613556565b60405180910390f35b61050b611cc1565b604051610518919061338d565b60405180910390f35b61053b60048036038101906105369190613457565b611d53565b60405161054891906134b2565b60405180910390f35b61056b60048036038101906105669190613457565b611dca565b60405161057891906134b2565b60405180910390f35b610589611ded565b6040516105969190613556565b60405180910390f35b6105a7611df3565b005b6105b1612753565b6040516105be919061382a565b60405180910390f35b6105cf612777565b6040516105dc9190613866565b60405180910390f35b6105ed61279b565b6040516105fa9190613556565b60405180910390f35b61060b6127a1565b60405161061f989796959493929190613881565b60405180910390f35b6106306127e4565b60405161063d9190613920565b60405180910390f35b61064e612808565b60405161065b9190613556565b60405180910390f35b61067e6004803603810190610679919061393b565b61280e565b60405161068b9190613556565b60405180910390f35b6106ae60048036038101906106a991906136ba565b612895565b005b6106b861298c565b6040516106c59190613556565b60405180910390f35b6106d6612992565b6040516106e3919061399c565b60405180910390f35b6060600380546106fb906139e6565b80601f0160208091040260200160405190810160405280929190818152602001828054610727906139e6565b80156107745780601f1061074957610100808354040283529160200191610774565b820191906000526020600020905b81548152906001019060200180831161075757829003601f168201915b5050505050905090565b6000806107896129b6565b90506107968185856129be565b600191505092915050565b7f000000000000000000000000000000000000000000000000000000000000000081565b6000600254905090565b7f000000000000000000000000000000000000000000000000000000000000000081565b6000806107fe6129b6565b905061080b858285612b87565b610816858585612c13565b60019150509392505050565b600260065403610867576040517f08c379a000000000000000000000000000000000000000000000000000000000815260040161085e90613a63565b60405180910390fd5b600260068190555060006009541115610908577f000000000000000000000000000000000000000000000000000000000000000073ffffffffffffffffffffffffffffffffffffffff16631df9fa816009546040518263ffffffff1660e01b81526004016108d59190613556565b600060405180830381600087803b1580156108ef57600080fd5b505af1158015610903573d6000803e3d6000fd5b505050505b60007f000000000000000000000000000000000000000000000000000000000000000073ffffffffffffffffffffffffffffffffffffffff166370a08231306040518263ffffffff1660e01b815260040161096391906137c7565b602060405180830381865afa158015610980573d6000803e3d6000fd5b505050506040513d601f19601f820116820180604052508101906109a49190613a98565b905060006109b06107c5565b90506000811180156109c25750600082145b15610a02576040517f08c379a00000000000000000000000000000000000000000000000000000000081526004016109f990613b11565b60405180910390fd5b7f000000000000000000000000000000000000000000000000000000000000000073ffffffffffffffffffffffffffffffffffffffff166323b872dd3330866040518463ffffffff1660e01b8152600401610a5f93929190613b31565b6020604051808303816000875af1158015610a7e573d6000803e3d6000fd5b505050506040513d601f19601f82011682018060405250810190610aa29190613b7d565b610ae1576040517f08c379a0000000000000000000000000000000000000000000000000000000008152600401610ad890613bf6565b60405180910390fd5b6000808311610b8b578373__MarketLib_____________________________63ed1bb19990917f00000000000000000000000000000000000000000000000000000000000000006040518363ffffffff1660e01b8152600401610b45929190613c25565b602060405180830381865af4158015610b62573d6000803e3d6000fd5b505050506040513d601f19601f82011682018060405250810190610b869190613a98565b610c0a565b8173__MathLib_______________________________63b3947c17909186866040518463ffffffff1660e01b8152600401610bc893929190613c4e565b602060405180830381865af4158015610be5573d6000803e3d6000fd5b505050506040513d601f19601f82011682018060405250810190610c099190613a98565b5b9050610c163382612e92565b610c1e611df3565b7f2bfea785f216464b44117a0f6fed3cff976925d2dd3e89dec252213768471f9b338286604051610c5193929190613c85565b60405180910390a1505050600160068190555050565b60006012905090565b601460009054906101000a900460ff1681565b600080610c8e6129b6565b9050610caf818585610ca0858961280e565b610caa9190613ceb565b6129be565b600191505092915050565b7f000000000000000000000000000000000000000000000000000000000000000081565b600080600954111561115d5760007f000000000000000000000000000000000000000000000000000000000000000073ffffffffffffffffffffffffffffffffffffffff16631ce5e9a66009546040518263ffffffff1660e01b8152600401610d479190613556565b61028060405180830381865afa158015610d65573d6000803e3d6000fd5b505050506040513d601f19601f82011682018060405250810190610d89919061402b565b905060016003811115610d9f57610d9e613628565b5b81604001516003811115610db657610db5613628565b5b148015610dc7575042816101000151115b1561115b57600042826101000151610ddf9190614059565b905060007f000000000000000000000000000000000000000000000000000000000000000073ffffffffffffffffffffffffffffffffffffffff1663b0667cf86040518163ffffffff1660e01b8152600401602060405180830381865afa158015610e4e573d6000803e3d6000fd5b505050506040513d601f19601f82011682018060405250810190610e729190613a98565b905060008373__OptionLib_____________________________63bbf7830e9091847f000000000000000000000000000000000000000000000000000000000000000073ffffffffffffffffffffffffffffffffffffffff1663cfc2dc20886040518263ffffffff1660e01b8152600401610eed9190613556565b602060405180830381865afa158015610f0a573d6000803e3d6000fd5b505050506040513d601f19601f82011682018060405250810190610f2e9190613a98565b6040518463ffffffff1660e01b8152600401610f4c939291906142f7565b602060405180830381865af4158015610f69573d6000803e3d6000fd5b505050506040513d601f19601f82011682018060405250810190610f8d9190614331565b905060008112158015610faf5750600c60000160009054906101000a900460ff165b80610fd7575060008113158015610fd65750600c60000160009054906101000a900460ff16155b5b611016576040517f08c379a000000000000000000000000000000000000000000000000000000000815260040161100d906143aa565b60405180910390fd5b6000611020611160565b9050600c60000160009054906101000a900460ff166110cd5761104b82611046906143ca565b612ff1565b73__MathLib_______________________________63b3947c17909185846040518463ffffffff1660e01b815260040161108793929190613c4e565b602060405180830381865af41580156110a4573d6000803e3d6000fd5b505050506040513d601f19601f820116820180604052508101906110c89190613a98565b611154565b6110d682612ff1565b73__MathLib_______________________________63b3947c17909185846040518463ffffffff1660e01b815260040161111293929190613c4e565b602060405180830381865af415801561112f573d6000803e3d6000fd5b505050506040513d601f19601f820116820180604052508101906111539190613a98565b5b9550505050505b505b90565b60008060095411156112d35760007f000000000000000000000000000000000000000000000000000000000000000073ffffffffffffffffffffffffffffffffffffffff1663350807056009546040518263ffffffff1660e01b81526004016111c99190613556565b6040805180830381865afa1580156111e5573d6000803e3d6000fd5b505050506040513d601f19601f820116820180604052508101906112099190614412565b50905060007f000000000000000000000000000000000000000000000000000000000000000073ffffffffffffffffffffffffffffffffffffffff1673__MarketLib_____________________________63983d3bb89091306040518363ffffffff1660e01b815260040161127f929190614470565b602060405180830381865af415801561129c573d6000803e3d6000fd5b505050506040513d601f19601f820116820180604052508101906112c09190613a98565b905080826112ce9190613ceb565b925050505b90565b7f000000000000000000000000000000000000000000000000000000000000000081565b60008060008373ffffffffffffffffffffffffffffffffffffffff1673ffffffffffffffffffffffffffffffffffffffff168152602001908152602001600020549050919050565b61134a6129b6565b73ffffffffffffffffffffffffffffffffffffffff16611368611c91565b73ffffffffffffffffffffffffffffffffffffffff16146113be576040517f08c379a00000000000000000000000000000000000000000000000000000000081526004016113b5906144e5565b60405180910390fd5b6113c8600061303e565b565b60006113d4610cde565b9050600c600401548110806113ed5750600c6005015481115b80156114065750601460009054906101000a900460ff16155b1561177e57600060095411156114a4577f000000000000000000000000000000000000000000000000000000000000000073ffffffffffffffffffffffffffffffffffffffff16631df9fa816009546040518263ffffffff1660e01b81526004016114719190613556565b600060405180830381600087803b15801561148b57600080fd5b505af115801561149f573d6000803e3d6000fd5b505050505b60007f000000000000000000000000000000000000000000000000000000000000000073ffffffffffffffffffffffffffffffffffffffff166370a08231306040518263ffffffff1660e01b81526004016114ff91906137c7565b602060405180830381865afa15801561151c573d6000803e3d6000fd5b505050506040513d601f19601f820116820180604052508101906115409190613a98565b905060008173__MathLib_______________________________63b3947c17909161156d42600a54613104565b426115789190614059565b620151806040518463ffffffff1660e01b815260040161159a93929190613c4e565b602060405180830381865af41580156115b7573d6000803e3d6000fd5b505050506040513d601f19601f820116820180604052508101906115db9190613a98565b73__MathLib_______________________________63fed4a0f39091600c600601546040518363ffffffff1660e01b815260040161161a929190613c25565b602060405180830381865af4158015611637573d6000803e3d6000fd5b505050506040513d601f19601f8201168201806040525081019061165b9190613a98565b90507f000000000000000000000000000000000000000000000000000000000000000073ffffffffffffffffffffffffffffffffffffffff1663a9059cbb33836040518363ffffffff1660e01b81526004016116b8929190614505565b6020604051808303816000875af11580156116d7573d6000803e3d6000fd5b505050506040513d601f19601f820116820180604052508101906116fb9190613b7d565b61173a576040517f08c379a00000000000000000000000000000000000000000000000000000000081526004016117319061457a565b60405180910390fd5b611742611df3565b7f518884de66df7cf12aa505ef63bdf44e014173c861d2f19f35d1cc5c37a63db9833360405161177392919061459a565b60405180910390a150505b50565b7f000000000000000000000000000000000000000000000000000000000000000081565b7f000000000000000000000000000000000000000000000000000000000000000081565b6117d16129b6565b73ffffffffffffffffffffffffffffffffffffffff166117ef611c91565b73ffffffffffffffffffffffffffffffffffffffff1614611845576040517f08c379a000000000000000000000000000000000000000000000000000000000815260040161183c906144e5565b60405180910390fd5b80601460006101000a81548160ff0219169083151502179055507f94a96596071183e5a0c91da2bf971df299c6ff75c5c6a5fd143d3be24bd01e56601460009054906101000a900460ff163360405161189f9291906145c3565b60405180910390a150565b6002600654036118ef576040517f08c379a00000000000000000000000000000000000000000000000000000000081526004016118e690613a63565b60405180910390fd5b600260068190555060006009541115611990577f000000000000000000000000000000000000000000000000000000000000000073ffffffffffffffffffffffffffffffffffffffff16631df9fa816009546040518263ffffffff1660e01b815260040161195d9190613556565b600060405180830381600087803b15801561197757600080fd5b505af115801561198b573d6000803e3d6000fd5b505050505b60007f000000000000000000000000000000000000000000000000000000000000000073ffffffffffffffffffffffffffffffffffffffff166370a08231306040518263ffffffff1660e01b81526004016119eb91906137c7565b602060405180830381865afa158015611a08573d6000803e3d6000fd5b505050506040513d601f19601f82011682018060405250810190611a2c9190613a98565b90506000611a386107c5565b90506000611ad48373__MathLib_______________________________63b3947c179091611a65336112fa565b866040518463ffffffff1660e01b8152600401611a8493929190613c4e565b602060405180830381865af4158015611aa1573d6000803e3d6000fd5b505050506040513d601f19601f82011682018060405250810190611ac59190613a98565b8561310490919063ffffffff16565b905060008273__MathLib_______________________________63b3947c17909184876040518463ffffffff1660e01b8152600401611b1593929190613c4e565b602060405180830381865af4158015611b32573d6000803e3d6000fd5b505050506040513d601f19601f82011682018060405250810190611b569190613a98565b9050611b62338261311d565b7f000000000000000000000000000000000000000000000000000000000000000073ffffffffffffffffffffffffffffffffffffffff1663a9059cbb33846040518363ffffffff1660e01b8152600401611bbd929190614505565b6020604051808303816000875af1158015611bdc573d6000803e3d6000fd5b505050506040513d601f19601f82011682018060405250810190611c009190613b7d565b611c3f576040517f08c379a0000000000000000000000000000000000000000000000000000000008152600401611c3690614638565b60405180910390fd5b611c47611df3565b7f82ac6489807d2766b0b035528d370ccb3a1ee573548fef389f4bfda722ca1c11338284604051611c7a93929190613c85565b60405180910390a150505050600160068190555050565b6000600560009054906101000a900473ffffffffffffffffffffffffffffffffffffffff16905090565b60085481565b606060048054611cd0906139e6565b80601f0160208091040260200160405190810160405280929190818152602001828054611cfc906139e6565b8015611d495780601f10611d1e57610100808354040283529160200191611d49565b820191906000526020600020905b815481529060010190602001808311611d2c57829003601f168201915b5050505050905090565b600080611d5e6129b6565b90506000611d6c828661280e565b905083811015611db1576040517f08c379a0000000000000000000000000000000000000000000000000000000008152600401611da8906146ca565b60405180910390fd5b611dbe82868684036129be565b60019250505092915050565b600080611dd56129b6565b9050611de2818585612c13565b600191505092915050565b60095481565b7f000000000000000000000000000000000000000000000000000000000000000073ffffffffffffffffffffffffffffffffffffffff1673__MarketLib_____________________________63983d3bb89091306040518363ffffffff1660e01b8152600401611e64929190614470565b602060405180830381865af4158015611e81573d6000803e3d6000fd5b505050506040513d601f19601f82011682018060405250810190611ea59190613a98565b6008819055506000600854118015611eca5750601460009054906101000a900460ff16155b156127515760007f000000000000000000000000000000000000000000000000000000000000000073ffffffffffffffffffffffffffffffffffffffff1663b0667cf86040518163ffffffff1660e01b8152600401602060405180830381865afa158015611f3c573d6000803e3d6000fd5b505050506040513d601f19601f82011682018060405250810190611f609190613a98565b905060085473__MathLib_______________________________63b3947c179091600c60030154846040518463ffffffff1660e01b8152600401611fa693929190613c4e565b602060405180830381865af4158015611fc3573d6000803e3d6000fd5b505050506040513d601f19601f82011682018060405250810190611fe79190613a98565b600781905550600c60000160009054906101000a900460ff1661208a578073__MathLib_______________________________63de7f61709091600c600101546040518363ffffffff1660e01b8152600401612044929190613c25565b602060405180830381865af4158015612061573d6000803e3d6000fd5b505050506040513d601f19601f820116820180604052508101906120859190613a98565b61210c565b8073__MathLib_______________________________63fed4a0f39091600c600101546040518363ffffffff1660e01b81526004016120ca929190613c25565b602060405180830381865af41580156120e7573d6000803e3d6000fd5b505050506040513d601f19601f8201168201806040525081019061210b9190613a98565b5b600b819055506000600c60000160009054906101000a900460ff16612132576001612135565b60005b90506000807f000000000000000000000000000000000000000000000000000000000000000073ffffffffffffffffffffffffffffffffffffffff1663b3c5a1017f0000000000000000000000000000000000000000000000000000000000000000600c60070154600b546000600754897f00000000000000000000000000000000000000000000000000000000000000006040518863ffffffff1660e01b81526004016121e99796959493929190614734565b60a060405180830381865afa158015612206573d6000803e3d6000fd5b505050506040513d601f19601f8201168201806040525081019061222a91906147a3565b9450505050915060085481836122409190613ceb565b111561251657600c60000160009054906101000a900460ff166122e3578373__MathLib_______________________________63de7f61709091600c600201546040518363ffffffff1660e01b815260040161229d929190613c25565b602060405180830381865af41580156122ba573d6000803e3d6000fd5b505050506040513d601f19601f820116820180604052508101906122de9190613a98565b612365565b8373__MathLib_______________________________63fed4a0f39091600c600201546040518363ffffffff1660e01b8152600401612323929190613c25565b602060405180830381865af4158015612340573d6000803e3d6000fd5b505050506040513d601f19601f820116820180604052508101906123649190613a98565b5b600b819055507f000000000000000000000000000000000000000000000000000000000000000073ffffffffffffffffffffffffffffffffffffffff1663b3c5a1017f0000000000000000000000000000000000000000000000000000000000000000600c60070154600b546000600754897f00000000000000000000000000000000000000000000000000000000000000006040518863ffffffff1660e01b815260040161241a9796959493929190614734565b60a060405180830381865afa158015612437573d6000803e3d6000fd5b505050506040513d601f19601f8201168201806040525081019061245b91906147a3565b9091925090915090508092508193505050600854818361247b9190613ceb565b11156125155760075473__MathLib_______________________________63b3947c17909160085484866124af9190613ceb565b6040518463ffffffff1660e01b81526004016124cd93929190613c4e565b602060405180830381865af41580156124ea573d6000803e3d6000fd5b505050506040513d601f19601f8201168201806040525081019061250e9190613a98565b6007819055505b5b7f000000000000000000000000000000000000000000000000000000000000000073ffffffffffffffffffffffffffffffffffffffff166331d975d27f0000000000000000000000000000000000000000000000000000000000000000600c60070154600b546000600754897f00000000000000000000000000000000000000000000000000000000000000007f00000000000000000000000000000000000000000000000000000000000000006040518963ffffffff1660e01b81526004016125e798979695949392919061481e565b600060405180830381600087803b15801561260157600080fd5b505af1158015612615573d6000803e3d6000fd5b5050505060007f000000000000000000000000000000000000000000000000000000000000000073ffffffffffffffffffffffffffffffffffffffff16637be795e07f0000000000000000000000000000000000000000000000000000000000000000306040518363ffffffff1660e01b815260040161269692919061489c565b600060405180830381865afa1580156126b3573d6000803e3d6000fd5b505050506040513d6000823e3d601f19601f820116820180604052508101906126dc9190614992565b90506001815114612722576040517f08c379a000000000000000000000000000000000000000000000000000000000815260040161271990614a27565b60405180910390fd5b8060008151811061273657612735614a47565b5b602002602001015160098190555042600a8190555050505050505b565b7f000000000000000000000000000000000000000000000000000000000000000081565b7f000000000000000000000000000000000000000000000000000000000000000081565b600a5481565b600c8060000160009054906101000a900460ff16908060010154908060020154908060030154908060040154908060050154908060060154908060070154905088565b7f000000000000000000000000000000000000000000000000000000000000000081565b600b5481565b6000600160008473ffffffffffffffffffffffffffffffffffffffff1673ffffffffffffffffffffffffffffffffffffffff16815260200190815260200160002060008373ffffffffffffffffffffffffffffffffffffffff1673ffffffffffffffffffffffffffffffffffffffff16815260200190815260200160002054905092915050565b61289d6129b6565b73ffffffffffffffffffffffffffffffffffffffff166128bb611c91565b73ffffffffffffffffffffffffffffffffffffffff1614612911576040517f08c379a0000000000000000000000000000000000000000000000000000000008152600401612908906144e5565b60405180910390fd5b600073ffffffffffffffffffffffffffffffffffffffff168173ffffffffffffffffffffffffffffffffffffffff1603612980576040517f08c379a000000000000000000000000000000000000000000000000000000000815260040161297790614ae8565b60405180910390fd5b6129898161303e565b50565b60075481565b7f000000000000000000000000000000000000000000000000000000000000000081565b600033905090565b600073ffffffffffffffffffffffffffffffffffffffff168373ffffffffffffffffffffffffffffffffffffffff1603612a2d576040517f08c379a0000000000000000000000000000000000000000000000000000000008152600401612a2490614b7a565b60405180910390fd5b600073ffffffffffffffffffffffffffffffffffffffff168273ffffffffffffffffffffffffffffffffffffffff1603612a9c576040517f08c379a0000000000000000000000000000000000000000000000000000000008152600401612a9390614c0c565b60405180910390fd5b80600160008573ffffffffffffffffffffffffffffffffffffffff1673ffffffffffffffffffffffffffffffffffffffff16815260200190815260200160002060008473ffffffffffffffffffffffffffffffffffffffff1673ffffffffffffffffffffffffffffffffffffffff168152602001908152602001600020819055508173ffffffffffffffffffffffffffffffffffffffff168373ffffffffffffffffffffffffffffffffffffffff167f8c5be1e5ebec7d5bd14f71427d1e84f3dd0314c0f7b2291e5b200ac8c7c3b92583604051612b7a9190613556565b60405180910390a3505050565b6000612b93848461280e565b90507fffffffffffffffffffffffffffffffffffffffffffffffffffffffffffffffff8114612c0d5781811015612bff576040517f08c379a0000000000000000000000000000000000000000000000000000000008152600401612bf690614c78565b60405180910390fd5b612c0c84848484036129be565b5b50505050565b600073ffffffffffffffffffffffffffffffffffffffff168373ffffffffffffffffffffffffffffffffffffffff1603612c82576040517f08c379a0000000000000000000000000000000000000000000000000000000008152600401612c7990614d0a565b60405180910390fd5b600073ffffffffffffffffffffffffffffffffffffffff168273ffffffffffffffffffffffffffffffffffffffff1603612cf1576040517f08c379a0000000000000000000000000000000000000000000000000000000008152600401612ce890614d9c565b60405180910390fd5b612cfc8383836132f3565b60008060008573ffffffffffffffffffffffffffffffffffffffff1673ffffffffffffffffffffffffffffffffffffffff16815260200190815260200160002054905081811015612d82576040517f08c379a0000000000000000000000000000000000000000000000000000000008152600401612d7990614e2e565b60405180910390fd5b8181036000808673ffffffffffffffffffffffffffffffffffffffff1673ffffffffffffffffffffffffffffffffffffffff16815260200190815260200160002081905550816000808573ffffffffffffffffffffffffffffffffffffffff1673ffffffffffffffffffffffffffffffffffffffff1681526020019081526020016000206000828254612e159190613ceb565b925050819055508273ffffffffffffffffffffffffffffffffffffffff168473ffffffffffffffffffffffffffffffffffffffff167fddf252ad1be2c89b69c2b068fc378daa952ba7f163c4a11628f55a4df523b3ef84604051612e799190613556565b60405180910390a3612e8c8484846132f8565b50505050565b600073ffffffffffffffffffffffffffffffffffffffff168273ffffffffffffffffffffffffffffffffffffffff1603612f01576040517f08c379a0000000000000000000000000000000000000000000000000000000008152600401612ef890614e9a565b60405180910390fd5b612f0d600083836132f3565b8060026000828254612f1f9190613ceb565b92505081905550806000808473ffffffffffffffffffffffffffffffffffffffff1673ffffffffffffffffffffffffffffffffffffffff1681526020019081526020016000206000828254612f749190613ceb565b925050819055508173ffffffffffffffffffffffffffffffffffffffff16600073ffffffffffffffffffffffffffffffffffffffff167fddf252ad1be2c89b69c2b068fc378daa952ba7f163c4a11628f55a4df523b3ef83604051612fd99190613556565b60405180910390a3612fed600083836132f8565b5050565b600080821215613036576040517f08c379a000000000000000000000000000000000000000000000000000000000815260040161302d90614f06565b60405180910390fd5b819050919050565b6000600560009054906101000a900473ffffffffffffffffffffffffffffffffffffffff16905081600560006101000a81548173ffffffffffffffffffffffffffffffffffffffff021916908373ffffffffffffffffffffffffffffffffffffffff1602179055508173ffffffffffffffffffffffffffffffffffffffff168173ffffffffffffffffffffffffffffffffffffffff167f8be0079c531659141344cd1fd0a4f28419497f9722a3daafe3b4186f6b6457e060405160405180910390a35050565b60008183106131135781613115565b825b905092915050565b600073ffffffffffffffffffffffffffffffffffffffff168273ffffffffffffffffffffffffffffffffffffffff160361318c576040517f08c379a000000000000000000000000000000000000000000000000000000000815260040161318390614f98565b60405180910390fd5b613198826000836132f3565b60008060008473ffffffffffffffffffffffffffffffffffffffff1673ffffffffffffffffffffffffffffffffffffffff1681526020019081526020016000205490508181101561321e576040517f08c379a00000000000000000000000000000000000000000000000000000000081526004016132159061502a565b60405180910390fd5b8181036000808573ffffffffffffffffffffffffffffffffffffffff1673ffffffffffffffffffffffffffffffffffffffff1681526020019081526020016000208190555081600260008282546132759190614059565b92505081905550600073ffffffffffffffffffffffffffffffffffffffff168373ffffffffffffffffffffffffffffffffffffffff167fddf252ad1be2c89b69c2b068fc378daa952ba7f163c4a11628f55a4df523b3ef846040516132da9190613556565b60405180910390a36132ee836000846132f8565b505050565b505050565b505050565b600081519050919050565b600082825260208201905092915050565b60005b8381101561333757808201518184015260208101905061331c565b60008484015250505050565b6000601f19601f8301169050919050565b600061335f826132fd565b6133698185613308565b9350613379818560208601613319565b61338281613343565b840191505092915050565b600060208201905081810360008301526133a78184613354565b905092915050565b6000604051905090565b600080fd5b600080fd5b600073ffffffffffffffffffffffffffffffffffffffff82169050919050565b60006133ee826133c3565b9050919050565b6133fe816133e3565b811461340957600080fd5b50565b60008135905061341b816133f5565b92915050565b6000819050919050565b61343481613421565b811461343f57600080fd5b50565b6000813590506134518161342b565b92915050565b6000806040838503121561346e5761346d6133b9565b5b600061347c8582860161340c565b925050602061348d85828601613442565b9150509250929050565b60008115159050919050565b6134ac81613497565b82525050565b60006020820190506134c760008301846134a3565b92915050565b6000819050919050565b60006134f26134ed6134e8846133c3565b6134cd565b6133c3565b9050919050565b6000613504826134d7565b9050919050565b6000613516826134f9565b9050919050565b6135268161350b565b82525050565b6000602082019050613541600083018461351d565b92915050565b61355081613421565b82525050565b600060208201905061356b6000830184613547565b92915050565b60008060006060848603121561358a576135896133b9565b5b60006135988682870161340c565b93505060206135a98682870161340c565b92505060406135ba86828701613442565b9150509250925092565b6000602082840312156135da576135d96133b9565b5b60006135e884828501613442565b91505092915050565b600060ff82169050919050565b613607816135f1565b82525050565b600060208201905061362260008301846135fe565b92915050565b7f4e487b7100000000000000000000000000000000000000000000000000000000600052602160045260246000fd5b6003811061366857613667613628565b5b50565b600081905061367982613657565b919050565b60006136898261366b565b9050919050565b6136998161367e565b82525050565b60006020820190506136b46000830184613690565b92915050565b6000602082840312156136d0576136cf6133b9565b5b60006136de8482850161340c565b91505092915050565b60006136f2826134f9565b9050919050565b613702816136e7565b82525050565b600060208201905061371d60008301846136f9565b92915050565b600061372e826134f9565b9050919050565b61373e81613723565b82525050565b60006020820190506137596000830184613735565b92915050565b61376881613497565b811461377357600080fd5b50565b6000813590506137858161375f565b92915050565b6000602082840312156137a1576137a06133b9565b5b60006137af84828501613776565b91505092915050565b6137c1816133e3565b82525050565b60006020820190506137dc60008301846137b8565b92915050565b600281106137f3576137f2613628565b5b50565b6000819050613804826137e2565b919050565b6000613814826137f6565b9050919050565b61382481613809565b82525050565b600060208201905061383f600083018461381b565b92915050565b6000613850826134f9565b9050919050565b61386081613845565b82525050565b600060208201905061387b6000830184613857565b92915050565b600061010082019050613897600083018b6134a3565b6138a4602083018a613547565b6138b16040830189613547565b6138be6060830188613547565b6138cb6080830187613547565b6138d860a0830186613547565b6138e560c0830185613547565b6138f260e0830184613547565b9998505050505050505050565b600061390a826134f9565b9050919050565b61391a816138ff565b82525050565b60006020820190506139356000830184613911565b92915050565b60008060408385031215613952576139516133b9565b5b60006139608582860161340c565b92505060206139718582860161340c565b9150509250929050565b6000613986826134f9565b9050919050565b6139968161397b565b82525050565b60006020820190506139b1600083018461398d565b92915050565b7f4e487b7100000000000000000000000000000000000000000000000000000000600052602260045260246000fd5b600060028204905060018216806139fe57607f821691505b602082108103613a1157613a106139b7565b5b50919050565b7f5265656e7472616e637947756172643a207265656e7472616e742063616c6c00600082015250565b6000613a4d601f83613308565b9150613a5882613a17565b602082019050919050565b60006020820190508181036000830152613a7c81613a40565b9050919050565b600081519050613a928161342b565b92915050565b600060208284031215613aae57613aad6133b9565b5b6000613abc84828501613a83565b91505092915050565b7f636f6e7472616374206465616400000000000000000000000000000000000000600082015250565b6000613afb600d83613308565b9150613b0682613ac5565b602082019050919050565b60006020820190508181036000830152613b2a81613aee565b9050919050565b6000606082019050613b4660008301866137b8565b613b5360208301856137b8565b613b606040830184613547565b949350505050565b600081519050613b778161375f565b92915050565b600060208284031215613b9357613b926133b9565b5b6000613ba184828501613b68565b91505092915050565b7f696e76657374206572726f720000000000000000000000000000000000000000600082015250565b6000613be0600c83613308565b9150613beb82613baa565b602082019050919050565b60006020820190508181036000830152613c0f81613bd3565b9050919050565b613c1f81613421565b82525050565b6000604082019050613c3a6000830185613c16565b613c476020830184613c16565b9392505050565b6000606082019050613c636000830186613c16565b613c706020830185613c16565b613c7d6040830184613c16565b949350505050565b6000606082019050613c9a60008301866137b8565b613ca76020830185613547565b613cb46040830184613547565b949350505050565b7f4e487b7100000000000000000000000000000000000000000000000000000000600052601160045260246000fd5b6000613cf682613421565b9150613d0183613421565b9250828201905080821115613d1957613d18613cbc565b5b92915050565b600080fd5b7f4e487b7100000000000000000000000000000000000000000000000000000000600052604160045260246000fd5b613d5c82613343565b810181811067ffffffffffffffff82111715613d7b57613d7a613d24565b5b80604052505050565b6000613d8e6133af565b9050613d9a8282613d53565b919050565b60048110613dac57600080fd5b50565b600081519050613dbe81613d9f565b92915050565b60028110613dd157600080fd5b50565b600081519050613de381613dc4565b92915050565b60048110613df657600080fd5b50565b600081519050613e0881613de9565b92915050565b600081519050613e1d816133f5565b92915050565b6000819050919050565b613e3681613e23565b8114613e4157600080fd5b50565b600081519050613e5381613e2d565b92915050565b60006102808284031215613e7057613e6f613d1f565b5b613e7b610280613d84565b90506000613e8b84828501613daf565b6000830152506020613e9f84828501613dd4565b6020830152506040613eb384828501613df9565b6040830152506060613ec784828501613e0e565b6060830152506080613edb84828501613a83565b60808301525060a0613eef84828501613a83565b60a08301525060c0613f0384828501613a83565b60c08301525060e0613f1784828501613a83565b60e083015250610100613f2c84828501613a83565b61010083015250610120613f4284828501613a83565b61012083015250610140613f5884828501613a83565b61014083015250610160613f6e84828501613a83565b61016083015250610180613f8484828501613a83565b610180830152506101a0613f9a84828501613a83565b6101a0830152506101c0613fb084828501613a83565b6101c0830152506101e0613fc684828501613a83565b6101e083015250610200613fdc84828501613a83565b61020083015250610220613ff284828501613e0e565b6102208301525061024061400884828501613e44565b6102408301525061026061401e84828501613a83565b6102608301525092915050565b60006102808284031215614042576140416133b9565b5b600061405084828501613e59565b91505092915050565b600061406482613421565b915061406f83613421565b925082820390508181111561408757614086613cbc565b5b92915050565b6004811061409e5761409d613628565b5b50565b60008190506140af8261408d565b919050565b60006140bf826140a1565b9050919050565b6140cf816140b4565b82525050565b6140de81613809565b82525050565b600481106140f5576140f4613628565b5b50565b6000819050614106826140e4565b919050565b6000614116826140f8565b9050919050565b6141268161410b565b82525050565b614135816133e3565b82525050565b61414481613421565b82525050565b61415381613e23565b82525050565b6102808201600082015161417060008501826140c6565b50602082015161418360208501826140d5565b506040820151614196604085018261411d565b5060608201516141a9606085018261412c565b5060808201516141bc608085018261413b565b5060a08201516141cf60a085018261413b565b5060c08201516141e260c085018261413b565b5060e08201516141f560e085018261413b565b5061010082015161420a61010085018261413b565b5061012082015161421f61012085018261413b565b5061014082015161423461014085018261413b565b5061016082015161424961016085018261413b565b5061018082015161425e61018085018261413b565b506101a08201516142736101a085018261413b565b506101c08201516142886101c085018261413b565b506101e082015161429d6101e085018261413b565b506102008201516142b261020085018261413b565b506102208201516142c761022085018261412c565b506102408201516142dc61024085018261414a565b506102608201516142f161026085018261413b565b50505050565b60006102c08201905061430d6000830186614159565b61431b610280830185613c16565b6143296102a0830184613c16565b949350505050565b600060208284031215614347576143466133b9565b5b600061435584828501613e44565b91505092915050565b7f77726f6e672064656c7461000000000000000000000000000000000000000000600082015250565b6000614394600b83613308565b915061439f8261435e565b602082019050919050565b600060208201905081810360008301526143c381614387565b9050919050565b60006143d582613e23565b91507f8000000000000000000000000000000000000000000000000000000000000000820361440757614406613cbc565b5b816000039050919050565b60008060408385031215614429576144286133b9565b5b600061443785828601613a83565b925050602061444885828601613a83565b9150509250929050565b61445b81613845565b82525050565b61446a816133e3565b82525050565b60006040820190506144856000830185614452565b6144926020830184614461565b9392505050565b7f4f776e61626c653a2063616c6c6572206973206e6f7420746865206f776e6572600082015250565b60006144cf602083613308565b91506144da82614499565b602082019050919050565b600060208201905081810360008301526144fe816144c2565b9050919050565b600060408201905061451a60008301856137b8565b6145276020830184613547565b9392505050565b7f70656e616c7479206572726f7200000000000000000000000000000000000000600082015250565b6000614564600d83613308565b915061456f8261452e565b602082019050919050565b6000602082019050818103600083015261459381614557565b9050919050565b60006040820190506145af6000830185613547565b6145bc60208301846137b8565b9392505050565b60006040820190506145d860008301856134a3565b6145e560208301846137b8565b9392505050565b7f646976657374206572726f720000000000000000000000000000000000000000600082015250565b6000614622600c83613308565b915061462d826145ec565b602082019050919050565b6000602082019050818103600083015261465181614615565b9050919050565b7f45524332303a2064656372656173656420616c6c6f77616e63652062656c6f7760008201527f207a65726f000000000000000000000000000000000000000000000000000000602082015250565b60006146b4602583613308565b91506146bf82614658565b604082019050919050565b600060208201905081810360008301526146e3816146a7565b9050919050565b6000819050919050565b600061470f61470a614705846146ea565b6134cd565b613421565b9050919050565b61471f816146f4565b82525050565b61472e816140b4565b82525050565b600060e082019050614749600083018a61351d565b6147566020830189613547565b6147636040830188613547565b6147706060830187614716565b61477d6080830186613547565b61478a60a0830185614725565b61479760c083018461381b565b98975050505050505050565b600080600080600060a086880312156147bf576147be6133b9565b5b60006147cd88828901613a83565b95505060206147de88828901613a83565b94505060406147ef88828901613a83565b935050606061480088828901613a83565b925050608061481188828901613a83565b9150509295509295909350565b600061010082019050614834600083018b61351d565b614841602083018a613547565b61484e6040830189613547565b61485b6060830188614716565b6148686080830187613547565b61487560a0830186614725565b61488260c083018561381b565b61488f60e0830184613690565b9998505050505050505050565b60006040820190506148b160008301856137b8565b6148be60208301846137b8565b9392505050565b600080fd5b600067ffffffffffffffff8211156148e5576148e4613d24565b5b602082029050602081019050919050565b600080fd5b600061490e614909846148ca565b613d84565b90508083825260208201905060208402830185811115614931576149306148f6565b5b835b8181101561495a57806149468882613a83565b845260208401935050602081019050614933565b5050509392505050565b600082601f830112614979576149786148c5565b5b81516149898482602086016148fb565b91505092915050565b6000602082840312156149a8576149a76133b9565b5b600082015167ffffffffffffffff8111156149c6576149c56133be565b5b6149d284828501614964565b91505092915050565b7f77726f6e67206e756d626572206f66206f7074696f6e73000000000000000000600082015250565b6000614a11601783613308565b9150614a1c826149db565b602082019050919050565b60006020820190508181036000830152614a4081614a04565b9050919050565b7f4e487b7100000000000000000000000000000000000000000000000000000000600052603260045260246000fd5b7f4f776e61626c653a206e6577206f776e657220697320746865207a65726f206160008201527f6464726573730000000000000000000000000000000000000000000000000000602082015250565b6000614ad2602683613308565b9150614add82614a76565b604082019050919050565b60006020820190508181036000830152614b0181614ac5565b9050919050565b7f45524332303a20617070726f76652066726f6d20746865207a65726f2061646460008201527f7265737300000000000000000000000000000000000000000000000000000000602082015250565b6000614b64602483613308565b9150614b6f82614b08565b604082019050919050565b60006020820190508181036000830152614b9381614b57565b9050919050565b7f45524332303a20617070726f766520746f20746865207a65726f20616464726560008201527f7373000000000000000000000000000000000000000000000000000000000000602082015250565b6000614bf6602283613308565b9150614c0182614b9a565b604082019050919050565b60006020820190508181036000830152614c2581614be9565b9050919050565b7f45524332303a20696e73756666696369656e7420616c6c6f77616e6365000000600082015250565b6000614c62601d83613308565b9150614c6d82614c2c565b602082019050919050565b60006020820190508181036000830152614c9181614c55565b9050919050565b7f45524332303a207472616e736665722066726f6d20746865207a65726f20616460008201527f6472657373000000000000000000000000000000000000000000000000000000602082015250565b6000614cf4602583613308565b9150614cff82614c98565b604082019050919050565b60006020820190508181036000830152614d2381614ce7565b9050919050565b7f45524332303a207472616e7366657220746f20746865207a65726f206164647260008201527f6573730000000000000000000000000000000000000000000000000000000000602082015250565b6000614d86602383613308565b9150614d9182614d2a565b604082019050919050565b60006020820190508181036000830152614db581614d79565b9050919050565b7f45524332303a207472616e7366657220616d6f756e742065786365656473206260008201527f616c616e63650000000000000000000000000000000000000000000000000000602082015250565b6000614e18602683613308565b9150614e2382614dbc565b604082019050919050565b60006020820190508181036000830152614e4781614e0b565b9050919050565b7f45524332303a206d696e7420746f20746865207a65726f206164647265737300600082015250565b6000614e84601f83613308565b9150614e8f82614e4e565b602082019050919050565b60006020820190508181036000830152614eb381614e77565b9050919050565b7f53616665436173743a2076616c7565206d75737420626520706f736974697665600082015250565b6000614ef0602083613308565b9150614efb82614eba565b602082019050919050565b60006020820190508181036000830152614f1f81614ee3565b9050919050565b7f45524332303a206275726e2066726f6d20746865207a65726f2061646472657360008201527f7300000000000000000000000000000000000000000000000000000000000000602082015250565b6000614f82602183613308565b9150614f8d82614f26565b604082019050919050565b60006020820190508181036000830152614fb181614f75565b9050919050565b7f45524332303a206275726e20616d6f756e7420657863656564732062616c616e60008201527f6365000000000000000000000000000000000000000000000000000000000000602082015250565b6000615014602283613308565b915061501f82614fb8565b604082019050919050565b6000602082019050818103600083015261504381615007565b905091905056fea26469706673582212207ad60b30e3447afd2064f505fb2ad3e8b8fd674c63723227191b558912b1adee64736f6c63430008110033",
  "immutableReferences": {
    "17920": [
      {
        "length": 32,
        "start": 8616
      },
      {
        "length": 32,
        "start": 9177
      },
      {
        "length": 32,
        "start": 9604
      },
      {
        "length": 32,
        "start": 10069
      }
    ],
    "17926": [
      {
        "length": 32,
        "start": 4824
      },
      {
        "length": 32,
        "start": 9637
      }
    ],
    "17929": [
      {
        "length": 32,
        "start": 3557
      },
      {
        "length": 32,
        "start": 3734
      },
      {
        "length": 32,
        "start": 6019
      },
      {
        "length": 32,
        "start": 7891
      }
    ],
    "17932": [
      {
        "length": 32,
        "start": 2172
      },
      {
        "length": 32,
        "start": 5144
      },
      {
        "length": 32,
        "start": 6404
      },
      {
        "length": 32,
        "start": 8508
      },
      {
        "length": 32,
        "start": 9069
      },
      {
        "length": 32,
        "start": 9496
      },
      {
        "length": 32,
        "start": 10214
      }
    ],
    "17935": [
      {
        "length": 32,
        "start": 3310
      },
      {
        "length": 32,
        "start": 4464
      },
      {
        "length": 32,
        "start": 9757
      },
      {
        "length": 32,
        "start": 10644
      }
    ],
    "17938": [
      {
        "length": 32,
        "start": 2316
      },
      {
        "length": 32,
        "start": 2564
      },
      {
        "length": 32,
        "start": 4624
      },
      {
        "length": 32,
        "start": 5288
      },
      {
        "length": 32,
        "start": 5727
      },
      {
        "length": 32,
        "start": 6548
      },
      {
        "length": 32,
        "start": 7012
      },
      {
        "length": 32,
        "start": 7669
      },
      {
        "length": 32,
        "start": 10105
      }
    ],
    "17940": [
      {
        "length": 32,
        "start": 2825
      },
      {
        "length": 32,
        "start": 3260
      }
    ],
    "17942": [
      {
        "length": 32,
        "start": 2001
      }
    ],
    "17945": [
      {
        "length": 32,
        "start": 1955
      },
      {
        "length": 32,
        "start": 8568
      },
      {
        "length": 32,
        "start": 9129
      },
      {
        "length": 32,
        "start": 9556
      },
      {
        "length": 32,
        "start": 9817
      }
    ],
    "17948": [
      {
        "length": 32,
        "start": 6055
      }
    ]
  },
  "source": "// SPDX-License-Identifier: MIT\npragma solidity 0.8.17;\n\nimport \"@openzeppelin/contracts/token/ERC20/ERC20.sol\";\nimport \"@openzeppelin/contracts/security/ReentrancyGuard.sol\";\nimport \"@openzeppelin/contracts/utils/math/Math.sol\";\nimport \"@openzeppelin/contracts/utils/math/SafeCast.sol\";\nimport \"@openzeppelin/contracts/access/Ownable.sol\";\nimport \"../Exchange.sol\";\nimport \"../OptionVault.sol\";\nimport \"../VolatilityChain.sol\";\nimport \"../pools/MarketMaker.sol\";\nimport \"../pools/Pool.sol\";\nimport \"../libraries/MathLib.sol\";\nimport \"../libraries/OptionLib.sol\";\nimport \"../libraries/MarketLib.sol\";\n\ncontract Perp is ERC20, Ownable, ReentrancyGuard{\n    using MathLib for uint256;\n    using Math for uint256;\n    using SafeCast for int256;\n    using MarketLib for ERC20;\n    using MarketLib for uint256;\n    using OptionLib for OptionLib.Option;\n\n    struct PerpParam{bool long; uint itm; uint itm2; uint leverage; uint lower; uint256 upper; uint penalty; uint tenor;}\n\n    event PerpInvest(address investor, uint256 tokenUnit, uint256 investAmount);\n    event PerpDivest(address investor, uint256 tokenUnit, uint256 divestAmount);\n    event PerpRebalance(uint256 leverage, address bot);\n    event PerpLiquidation(bool liquidation, address bot);\n\n    uint256 public notional;\n    uint256 public margin;\n    uint256 public optionId;\n    uint256 public optionEffective;\n    uint256 public optionStrike;\n\n    PerpParam public params;\n    OptionLib.OptionSide public immutable optionSide = OptionLib.OptionSide.Buy;\n    OptionLib.PaymentMethod public immutable optionPayment = OptionLib.PaymentMethod.USDC;\n\n    VolatilityChain public immutable oracle;\n    Exchange public immutable exchange;\n    OptionVault public immutable vault;\n    ERC20 public immutable funding;\n    uint256 public immutable fundingDecimals;\n    uint256 public immutable fundingMultiplier;\n    Pool public immutable pool;\n    MarketMaker public immutable market;\n\n    uint256 internal constant SECONDS_1D = 86400;\n    bool public liquidating = false;\n\n    constructor(address _pool, string memory _name, string memory _symbol, PerpParam memory _params) ERC20(_name, _symbol){\n        require(_pool != address(0), \"null pool address\");\n        pool = Pool(_pool);\n\n        exchange = Exchange(pool.exchange()); \n        vault = exchange.vault();\n        market = pool.marketMaker();\n        oracle = market.getVolatilityChain();\n        funding = ERC20(market.funding());\n        funding.increaseAllowance(address(exchange), 2**256 - 1);\n        fundingDecimals = funding.decimals();\n        fundingMultiplier = 10 ** fundingDecimals;\n        optionEffective = block.timestamp;\n\n        require(_params.itm > 0 && _params.itm2 > _params.itm, \"error perp params\");\n        params = _params;\n    }\n\n    // invest amount of USDC: _investment in USDC decimals\n    function invest(uint256 _investment) external nonReentrant{\n        // unwind existing option\n        if(optionId > 0){\n            exchange.unwindOption(optionId);\n        }\n        uint256 _previousBalance = funding.balanceOf(address(this));\n        uint256 _previousSupply = totalSupply();\n        require(!(_previousSupply > 0 && _previousBalance == 0), \"contract dead\");\n\n        // transfer in investment\n        require(funding.transferFrom(msg.sender, address(this), _investment), 'invest error');\n\n        // mint new tokens\n        uint256 _newTokenAmount = _previousBalance > 0 ? _previousSupply.muldiv(_investment, _previousBalance): _investment.toWei(fundingDecimals);\n        _mint(msg.sender, _newTokenAmount);\n\n        // create options\n        createOption();\n\n        emit PerpInvest(msg.sender, _newTokenAmount, _investment);\n    }\n\n    // divest amount of USDC: _investment in USDC decimals\n    function divest(uint256 _divestment) external nonReentrant{\n        // unwind existing option\n        if(optionId > 0){\n            exchange.unwindOption(optionId);\n        }\n        uint256 _previousBalance = funding.balanceOf(address(this));\n        uint256 _previousSupply = totalSupply();\n        uint256 _redeemAmount = _divestment.min(_previousBalance.muldiv(balanceOf(msg.sender), _previousSupply));\n\n        // burn tokens\n        uint256 _burnTokenAmount = _previousSupply.muldiv(_redeemAmount, _previousBalance);\n        _burn(msg.sender, _burnTokenAmount);\n\n        // transfer out divestment\n        require(funding.transfer(msg.sender, _redeemAmount), 'divest error');\n\n        // create options\n        createOption();\n\n        emit PerpDivest(msg.sender, _burnTokenAmount, _redeemAmount);\n    }\n\n    // rebalance when leverage is below threshold\n    function rebalance() external{\n        // check bounds: can only reblance if leverage is below threshold\n        uint256 _currentLev = getCurrentLeverage();\n        if(((_currentLev < params.lower) || (_currentLev > params.upper)) && !liquidating){\n            // unwind existing option\n            if(optionId > 0){\n                exchange.unwindOption(optionId);\n            }\n            uint256 _previousBalance = funding.balanceOf(address(this));\n\n            // collect incentives for rebalancer\n            uint256 _incentive = _previousBalance.muldiv(block.timestamp - Math.min(block.timestamp, optionEffective), SECONDS_1D).ethmul(params.penalty);\n            require(funding.transfer(msg.sender, _incentive), \"penalty error\");\n\n            // create options\n            createOption();\n\n            emit PerpRebalance(_currentLev, msg.sender);\n        }\n    }\n\n    function createOption() public {\n        // calculate new trading notionals\n        margin = funding.balanceDef(address(this));\n        // it won't create new options if it's in liquidation phase (liquidating = true)\n        if(margin > 0 && !liquidating){ \n            uint256 currentPrice = oracle.queryPrice();\n            notional = margin.muldiv(params.leverage, currentPrice);\n            optionStrike = params.long? currentPrice.ethmul(params.itm): currentPrice.ethdiv(params.itm);\n            OptionLib.PayoffType _poType = params.long? OptionLib.PayoffType.Call: OptionLib.PayoffType.Put;\n            \n            // check notional\n            (uint256 _premium,,,, uint256 _fee) = exchange.queryOption(pool, params.tenor, optionStrike, 0, notional, _poType, optionSide);\n            if(_premium + _fee > margin){\n                optionStrike = params.long? currentPrice.ethmul(params.itm2): currentPrice.ethdiv(params.itm2);\n                (_premium,,,, _fee) = exchange.queryOption(pool, params.tenor, optionStrike, 0, notional, _poType, optionSide);\n                if(_premium + _fee > margin){\n                    notional = notional.muldiv(margin, _premium + _fee);\n                }\n            }\n\n            // create options\n            exchange.tradeOption(pool, params.tenor, optionStrike, 0, notional, _poType, optionSide, optionPayment);\n\n            // register new id\n            uint256[] memory _optionIdList = vault.getHolderOptions(address(pool), address(this));\n            require(_optionIdList.length == 1, \"wrong number of options\");\n            optionId = _optionIdList[0];\n            optionEffective = block.timestamp;\n        }\n    }\n\n    function getCurrentLeverage() public view returns(uint256 _leverage){\n        // calculate delta\n        if(optionId > 0){\n            OptionLib.Option memory _option = vault.getOption(optionId);\n            if(_option.status== OptionLib.OptionStatus.Active && (_option.maturity > block.timestamp)){\n                uint256 _remainingTenor = _option.maturity - block.timestamp;\n                uint256 _price = oracle.queryPrice();\n                int256 _delta = _option.calcDelta(_price, oracle.queryVol(_remainingTenor)); // in 18 decimals\n                require((_delta >= 0 && params.long) || (_delta <= 0 && !(params.long)), \"wrong delta\");\n\n                // multiply delta by the price then divided by current pv\n                uint256 _pv = getPV();\n                _leverage = params.long? _delta.toUint256().muldiv(_price, _pv): (-_delta).toUint256().muldiv(_price, _pv);\n            }\n        }\n    }\n\n    // returns present value of the whole protocol\n    function getPV() public view returns(uint256 _pv){\n        // calculate unwind value, in funding token decimals\n        if(optionId > 0){\n            (uint256 _optionPV, ) = vault.calcOptionUnwindValue(optionId);\n\n            // add to remaining USDC\n            uint256 _remainingBalance = funding.balanceDef(address(this));\n\n            _pv = _optionPV + _remainingBalance;\n        }\n    }\n\n    // set the pool to be liquidating, only executable by owner\n    // owner can't deal with any funds in the protocol but rather allow token holders to withdraw their funds when the liquidity pool can't support any more trades (so no rebalance would happen)\n    function setLiquidation(bool _liquidating) external onlyOwner{\n        liquidating = _liquidating;\n        emit PerpLiquidation(liquidating, msg.sender);\n    }\n}",
  "sourcePath": "/Users/mac/Documents/GitHub/moret/contracts/vaults/Perp.sol",
  "compiler": {
    "name": "solc",
    "version": "0.8.17+commit.8df45f5f.Emscripten.clang"
  },
  "schemaVersion": "3.4.3",
  "updatedAt": "2023-04-01T11:10:30.579Z",
  "networkType": "ethereum",
  "devdoc": {
    "kind": "dev",
    "methods": {
      "allowance(address,address)": {
        "details": "See {IERC20-allowance}."
      },
      "approve(address,uint256)": {
        "details": "See {IERC20-approve}. NOTE: If `amount` is the maximum `uint256`, the allowance is not updated on `transferFrom`. This is semantically equivalent to an infinite approval. Requirements: - `spender` cannot be the zero address."
      },
      "balanceOf(address)": {
        "details": "See {IERC20-balanceOf}."
      },
      "decimals()": {
        "details": "Returns the number of decimals used to get its user representation. For example, if `decimals` equals `2`, a balance of `505` tokens should be displayed to a user as `5.05` (`505 / 10 ** 2`). Tokens usually opt for a value of 18, imitating the relationship between Ether and Wei. This is the value {ERC20} uses, unless this function is overridden; NOTE: This information is only used for _display_ purposes: it in no way affects any of the arithmetic of the contract, including {IERC20-balanceOf} and {IERC20-transfer}."
      },
      "decreaseAllowance(address,uint256)": {
        "details": "Atomically decreases the allowance granted to `spender` by the caller. This is an alternative to {approve} that can be used as a mitigation for problems described in {IERC20-approve}. Emits an {Approval} event indicating the updated allowance. Requirements: - `spender` cannot be the zero address. - `spender` must have allowance for the caller of at least `subtractedValue`."
      },
      "increaseAllowance(address,uint256)": {
        "details": "Atomically increases the allowance granted to `spender` by the caller. This is an alternative to {approve} that can be used as a mitigation for problems described in {IERC20-approve}. Emits an {Approval} event indicating the updated allowance. Requirements: - `spender` cannot be the zero address."
      },
      "name()": {
        "details": "Returns the name of the token."
      },
      "owner()": {
        "details": "Returns the address of the current owner."
      },
      "renounceOwnership()": {
        "details": "Leaves the contract without owner. It will not be possible to call `onlyOwner` functions anymore. Can only be called by the current owner. NOTE: Renouncing ownership will leave the contract without an owner, thereby removing any functionality that is only available to the owner."
      },
      "symbol()": {
        "details": "Returns the symbol of the token, usually a shorter version of the name."
      },
      "totalSupply()": {
        "details": "See {IERC20-totalSupply}."
      },
      "transfer(address,uint256)": {
        "details": "See {IERC20-transfer}. Requirements: - `to` cannot be the zero address. - the caller must have a balance of at least `amount`."
      },
      "transferFrom(address,address,uint256)": {
        "details": "See {IERC20-transferFrom}. Emits an {Approval} event indicating the updated allowance. This is not required by the EIP. See the note at the beginning of {ERC20}. NOTE: Does not update the allowance if the current allowance is the maximum `uint256`. Requirements: - `from` and `to` cannot be the zero address. - `from` must have a balance of at least `amount`. - the caller must have allowance for ``from``'s tokens of at least `amount`."
      },
      "transferOwnership(address)": {
        "details": "Transfers ownership of the contract to a new account (`newOwner`). Can only be called by the current owner."
      }
    },
    "version": 1
  },
  "userdoc": {
    "kind": "user",
    "methods": {},
    "version": 1
  }
}