{
  "contractName": "Perp",
  "abi": [
    {
      "inputs": [
        {
          "internalType": "address",
          "name": "_pool",
          "type": "address"
        },
        {
          "internalType": "string",
          "name": "_name",
          "type": "string"
        },
        {
          "internalType": "string",
          "name": "_symbol",
          "type": "string"
        },
        {
          "components": [
            {
              "internalType": "bool",
              "name": "long",
              "type": "bool"
            },
            {
              "internalType": "uint256",
              "name": "itm",
              "type": "uint256"
            },
            {
              "internalType": "uint256",
              "name": "leverage",
              "type": "uint256"
            },
            {
              "internalType": "uint256",
              "name": "criticalLev",
              "type": "uint256"
            },
            {
              "internalType": "uint256",
              "name": "penalty",
              "type": "uint256"
            },
            {
              "internalType": "uint256",
              "name": "tenor",
              "type": "uint256"
            }
          ],
          "internalType": "struct Perp.PerpParam",
          "name": "_params",
          "type": "tuple"
        }
      ],
      "stateMutability": "nonpayable",
      "type": "constructor"
    },
    {
      "anonymous": false,
      "inputs": [
        {
          "indexed": true,
          "internalType": "address",
          "name": "owner",
          "type": "address"
        },
        {
          "indexed": true,
          "internalType": "address",
          "name": "spender",
          "type": "address"
        },
        {
          "indexed": false,
          "internalType": "uint256",
          "name": "value",
          "type": "uint256"
        }
      ],
      "name": "Approval",
      "type": "event"
    },
    {
      "anonymous": false,
      "inputs": [
        {
          "indexed": true,
          "internalType": "address",
          "name": "previousOwner",
          "type": "address"
        },
        {
          "indexed": true,
          "internalType": "address",
          "name": "newOwner",
          "type": "address"
        }
      ],
      "name": "OwnershipTransferred",
      "type": "event"
    },
    {
      "anonymous": false,
      "inputs": [
        {
          "indexed": false,
          "internalType": "address",
          "name": "investor",
          "type": "address"
        },
        {
          "indexed": false,
          "internalType": "uint256",
          "name": "tokenUnit",
          "type": "uint256"
        },
        {
          "indexed": false,
          "internalType": "uint256",
          "name": "divestAmount",
          "type": "uint256"
        }
      ],
      "name": "PerpDivest",
      "type": "event"
    },
    {
      "anonymous": false,
      "inputs": [
        {
          "indexed": false,
          "internalType": "address",
          "name": "investor",
          "type": "address"
        },
        {
          "indexed": false,
          "internalType": "uint256",
          "name": "tokenUnit",
          "type": "uint256"
        },
        {
          "indexed": false,
          "internalType": "uint256",
          "name": "investAmount",
          "type": "uint256"
        }
      ],
      "name": "PerpInvest",
      "type": "event"
    },
    {
      "anonymous": false,
      "inputs": [
        {
          "indexed": false,
          "internalType": "bool",
          "name": "liquidation",
          "type": "bool"
        },
        {
          "indexed": false,
          "internalType": "address",
          "name": "bot",
          "type": "address"
        }
      ],
      "name": "PerpLiquidation",
      "type": "event"
    },
    {
      "anonymous": false,
      "inputs": [
        {
          "indexed": false,
          "internalType": "uint256",
          "name": "leverage",
          "type": "uint256"
        },
        {
          "indexed": false,
          "internalType": "address",
          "name": "bot",
          "type": "address"
        }
      ],
      "name": "PerpRebalance",
      "type": "event"
    },
    {
      "anonymous": false,
      "inputs": [
        {
          "indexed": true,
          "internalType": "address",
          "name": "from",
          "type": "address"
        },
        {
          "indexed": true,
          "internalType": "address",
          "name": "to",
          "type": "address"
        },
        {
          "indexed": false,
          "internalType": "uint256",
          "name": "value",
          "type": "uint256"
        }
      ],
      "name": "Transfer",
      "type": "event"
    },
    {
      "inputs": [
        {
          "internalType": "address",
          "name": "owner",
          "type": "address"
        },
        {
          "internalType": "address",
          "name": "spender",
          "type": "address"
        }
      ],
      "name": "allowance",
      "outputs": [
        {
          "internalType": "uint256",
          "name": "",
          "type": "uint256"
        }
      ],
      "stateMutability": "view",
      "type": "function"
    },
    {
      "inputs": [
        {
          "internalType": "address",
          "name": "spender",
          "type": "address"
        },
        {
          "internalType": "uint256",
          "name": "amount",
          "type": "uint256"
        }
      ],
      "name": "approve",
      "outputs": [
        {
          "internalType": "bool",
          "name": "",
          "type": "bool"
        }
      ],
      "stateMutability": "nonpayable",
      "type": "function"
    },
    {
      "inputs": [
        {
          "internalType": "address",
          "name": "account",
          "type": "address"
        }
      ],
      "name": "balanceOf",
      "outputs": [
        {
          "internalType": "uint256",
          "name": "",
          "type": "uint256"
        }
      ],
      "stateMutability": "view",
      "type": "function"
    },
    {
      "inputs": [],
      "name": "decimals",
      "outputs": [
        {
          "internalType": "uint8",
          "name": "",
          "type": "uint8"
        }
      ],
      "stateMutability": "view",
      "type": "function"
    },
    {
      "inputs": [
        {
          "internalType": "address",
          "name": "spender",
          "type": "address"
        },
        {
          "internalType": "uint256",
          "name": "subtractedValue",
          "type": "uint256"
        }
      ],
      "name": "decreaseAllowance",
      "outputs": [
        {
          "internalType": "bool",
          "name": "",
          "type": "bool"
        }
      ],
      "stateMutability": "nonpayable",
      "type": "function"
    },
    {
      "inputs": [],
      "name": "exchange",
      "outputs": [
        {
          "internalType": "contract Exchange",
          "name": "",
          "type": "address"
        }
      ],
      "stateMutability": "view",
      "type": "function"
    },
    {
      "inputs": [],
      "name": "funding",
      "outputs": [
        {
          "internalType": "contract ERC20",
          "name": "",
          "type": "address"
        }
      ],
      "stateMutability": "view",
      "type": "function"
    },
    {
      "inputs": [],
      "name": "fundingDecimals",
      "outputs": [
        {
          "internalType": "uint256",
          "name": "",
          "type": "uint256"
        }
      ],
      "stateMutability": "view",
      "type": "function"
    },
    {
      "inputs": [],
      "name": "fundingMultiplier",
      "outputs": [
        {
          "internalType": "uint256",
          "name": "",
          "type": "uint256"
        }
      ],
      "stateMutability": "view",
      "type": "function"
    },
    {
      "inputs": [
        {
          "internalType": "address",
          "name": "spender",
          "type": "address"
        },
        {
          "internalType": "uint256",
          "name": "addedValue",
          "type": "uint256"
        }
      ],
      "name": "increaseAllowance",
      "outputs": [
        {
          "internalType": "bool",
          "name": "",
          "type": "bool"
        }
      ],
      "stateMutability": "nonpayable",
      "type": "function"
    },
    {
      "inputs": [],
      "name": "liquidating",
      "outputs": [
        {
          "internalType": "bool",
          "name": "",
          "type": "bool"
        }
      ],
      "stateMutability": "view",
      "type": "function"
    },
    {
      "inputs": [],
      "name": "margin",
      "outputs": [
        {
          "internalType": "uint256",
          "name": "",
          "type": "uint256"
        }
      ],
      "stateMutability": "view",
      "type": "function"
    },
    {
      "inputs": [],
      "name": "market",
      "outputs": [
        {
          "internalType": "contract MarketMaker",
          "name": "",
          "type": "address"
        }
      ],
      "stateMutability": "view",
      "type": "function"
    },
    {
      "inputs": [],
      "name": "name",
      "outputs": [
        {
          "internalType": "string",
          "name": "",
          "type": "string"
        }
      ],
      "stateMutability": "view",
      "type": "function"
    },
    {
      "inputs": [],
      "name": "notional",
      "outputs": [
        {
          "internalType": "uint256",
          "name": "",
          "type": "uint256"
        }
      ],
      "stateMutability": "view",
      "type": "function"
    },
    {
      "inputs": [],
      "name": "optionEffective",
      "outputs": [
        {
          "internalType": "uint256",
          "name": "",
          "type": "uint256"
        }
      ],
      "stateMutability": "view",
      "type": "function"
    },
    {
      "inputs": [],
      "name": "optionId",
      "outputs": [
        {
          "internalType": "uint256",
          "name": "",
          "type": "uint256"
        }
      ],
      "stateMutability": "view",
      "type": "function"
    },
    {
      "inputs": [],
      "name": "optionPayment",
      "outputs": [
        {
          "internalType": "enum OptionLib.PaymentMethod",
          "name": "",
          "type": "uint8"
        }
      ],
      "stateMutability": "view",
      "type": "function"
    },
    {
      "inputs": [],
      "name": "optionSide",
      "outputs": [
        {
          "internalType": "enum OptionLib.OptionSide",
          "name": "",
          "type": "uint8"
        }
      ],
      "stateMutability": "view",
      "type": "function"
    },
    {
      "inputs": [],
      "name": "oracle",
      "outputs": [
        {
          "internalType": "contract VolatilityChain",
          "name": "",
          "type": "address"
        }
      ],
      "stateMutability": "view",
      "type": "function"
    },
    {
      "inputs": [],
      "name": "owner",
      "outputs": [
        {
          "internalType": "address",
          "name": "",
          "type": "address"
        }
      ],
      "stateMutability": "view",
      "type": "function"
    },
    {
      "inputs": [],
      "name": "params",
      "outputs": [
        {
          "internalType": "bool",
          "name": "long",
          "type": "bool"
        },
        {
          "internalType": "uint256",
          "name": "itm",
          "type": "uint256"
        },
        {
          "internalType": "uint256",
          "name": "leverage",
          "type": "uint256"
        },
        {
          "internalType": "uint256",
          "name": "criticalLev",
          "type": "uint256"
        },
        {
          "internalType": "uint256",
          "name": "penalty",
          "type": "uint256"
        },
        {
          "internalType": "uint256",
          "name": "tenor",
          "type": "uint256"
        }
      ],
      "stateMutability": "view",
      "type": "function"
    },
    {
      "inputs": [],
      "name": "pool",
      "outputs": [
        {
          "internalType": "contract Pool",
          "name": "",
          "type": "address"
        }
      ],
      "stateMutability": "view",
      "type": "function"
    },
    {
      "inputs": [],
      "name": "renounceOwnership",
      "outputs": [],
      "stateMutability": "nonpayable",
      "type": "function"
    },
    {
      "inputs": [],
      "name": "symbol",
      "outputs": [
        {
          "internalType": "string",
          "name": "",
          "type": "string"
        }
      ],
      "stateMutability": "view",
      "type": "function"
    },
    {
      "inputs": [],
      "name": "totalSupply",
      "outputs": [
        {
          "internalType": "uint256",
          "name": "",
          "type": "uint256"
        }
      ],
      "stateMutability": "view",
      "type": "function"
    },
    {
      "inputs": [
        {
          "internalType": "address",
          "name": "to",
          "type": "address"
        },
        {
          "internalType": "uint256",
          "name": "amount",
          "type": "uint256"
        }
      ],
      "name": "transfer",
      "outputs": [
        {
          "internalType": "bool",
          "name": "",
          "type": "bool"
        }
      ],
      "stateMutability": "nonpayable",
      "type": "function"
    },
    {
      "inputs": [
        {
          "internalType": "address",
          "name": "from",
          "type": "address"
        },
        {
          "internalType": "address",
          "name": "to",
          "type": "address"
        },
        {
          "internalType": "uint256",
          "name": "amount",
          "type": "uint256"
        }
      ],
      "name": "transferFrom",
      "outputs": [
        {
          "internalType": "bool",
          "name": "",
          "type": "bool"
        }
      ],
      "stateMutability": "nonpayable",
      "type": "function"
    },
    {
      "inputs": [
        {
          "internalType": "address",
          "name": "newOwner",
          "type": "address"
        }
      ],
      "name": "transferOwnership",
      "outputs": [],
      "stateMutability": "nonpayable",
      "type": "function"
    },
    {
      "inputs": [],
      "name": "vault",
      "outputs": [
        {
          "internalType": "contract OptionVault",
          "name": "",
          "type": "address"
        }
      ],
      "stateMutability": "view",
      "type": "function"
    },
    {
      "inputs": [
        {
          "internalType": "uint256",
          "name": "_investment",
          "type": "uint256"
        }
      ],
      "name": "invest",
      "outputs": [],
      "stateMutability": "nonpayable",
      "type": "function"
    },
    {
      "inputs": [
        {
          "internalType": "uint256",
          "name": "_divestment",
          "type": "uint256"
        }
      ],
      "name": "divest",
      "outputs": [],
      "stateMutability": "nonpayable",
      "type": "function"
    },
    {
      "inputs": [],
      "name": "rebalance",
      "outputs": [],
      "stateMutability": "nonpayable",
      "type": "function"
    },
    {
      "inputs": [],
      "name": "createOption",
      "outputs": [],
      "stateMutability": "nonpayable",
      "type": "function"
    },
    {
      "inputs": [],
      "name": "getCurrentLeverage",
      "outputs": [
        {
          "internalType": "uint256",
          "name": "_leverage",
          "type": "uint256"
        }
      ],
      "stateMutability": "view",
      "type": "function"
    },
    {
      "inputs": [],
      "name": "getPV",
      "outputs": [
        {
          "internalType": "uint256",
          "name": "",
          "type": "uint256"
        }
      ],
      "stateMutability": "view",
      "type": "function"
    },
    {
      "inputs": [
        {
          "internalType": "bool",
          "name": "_liquidating",
          "type": "bool"
        }
      ],
      "name": "setLiquidation",
      "outputs": [],
      "stateMutability": "nonpayable",
      "type": "function"
    }
  ],
  "bytecode": "0x6101c0604052600060018111156200001c576200001b620007bc565b5b6080906001811115620000345762000033620007bc565b5b815250600060028111156200004e576200004d620007bc565b5b60a0906002811115620000665762000065620007bc565b5b8152506000601160006101000a81548160ff0219169083151502179055503480156200009157600080fd5b50604051620062e0380380620062e08339818101604052810190620000b7919062000b11565b82828160039081620000ca919062000e03565b508060049081620000dc919062000e03565b505050620000ff620000f3620006ee60201b60201c565b620006f660201b60201c565b6001600681905550600073ffffffffffffffffffffffffffffffffffffffff168473ffffffffffffffffffffffffffffffffffffffff160362000179576040517f08c379a0000000000000000000000000000000000000000000000000000000008152600401620001709062000f4b565b60405180910390fd5b8373ffffffffffffffffffffffffffffffffffffffff166101808173ffffffffffffffffffffffffffffffffffffffff16815250506101805173ffffffffffffffffffffffffffffffffffffffff1663d2f7265a6040518163ffffffff1660e01b8152600401602060405180830381865afa158015620001fd573d6000803e3d6000fd5b505050506040513d601f19601f8201168201806040525081019062000223919062000f6d565b73ffffffffffffffffffffffffffffffffffffffff1660e08173ffffffffffffffffffffffffffffffffffffffff168152505060e05173ffffffffffffffffffffffffffffffffffffffff1663fbfa77cf6040518163ffffffff1660e01b8152600401602060405180830381865afa158015620002a4573d6000803e3d6000fd5b505050506040513d601f19601f82011682018060405250810190620002ca919062000fe4565b73ffffffffffffffffffffffffffffffffffffffff166101008173ffffffffffffffffffffffffffffffffffffffff16815250506101805173ffffffffffffffffffffffffffffffffffffffff16631f21f9af6040518163ffffffff1660e01b8152600401602060405180830381865afa1580156200034d573d6000803e3d6000fd5b505050506040513d601f19601f820116820180604052508101906200037391906200105b565b73ffffffffffffffffffffffffffffffffffffffff166101a08173ffffffffffffffffffffffffffffffffffffffff16815250506101a05173ffffffffffffffffffffffffffffffffffffffff1663c0a16f6a6040518163ffffffff1660e01b8152600401602060405180830381865afa158015620003f6573d6000803e3d6000fd5b505050506040513d601f19601f820116820180604052508101906200041c9190620010d2565b73ffffffffffffffffffffffffffffffffffffffff1660c08173ffffffffffffffffffffffffffffffffffffffff16815250506101a05173ffffffffffffffffffffffffffffffffffffffff1663cb4c86b76040518163ffffffff1660e01b8152600401602060405180830381865afa1580156200049e573d6000803e3d6000fd5b505050506040513d601f19601f82011682018060405250810190620004c4919062000f6d565b73ffffffffffffffffffffffffffffffffffffffff166101208173ffffffffffffffffffffffffffffffffffffffff16815250506101205173ffffffffffffffffffffffffffffffffffffffff16633950935160e0517fffffffffffffffffffffffffffffffffffffffffffffffffffffffffffffffff6040518363ffffffff1660e01b81526004016200055a92919062001158565b6020604051808303816000875af11580156200057a573d6000803e3d6000fd5b505050506040513d601f19601f82011682018060405250810190620005a0919062001185565b506101205173ffffffffffffffffffffffffffffffffffffffff1663313ce5676040518163ffffffff1660e01b8152600401602060405180830381865afa158015620005f0573d6000803e3d6000fd5b505050506040513d601f19601f82011682018060405250810190620006169190620011f5565b60ff16610140818152505061014051600a620006339190620013aa565b610160818152505042600a8190555060008160200151116200068c576040517f08c379a000000000000000000000000000000000000000000000000000000000815260040162000683906200144b565b60405180910390fd5b80600b60008201518160000160006101000a81548160ff0219169083151502179055506020820151816001015560408201518160020155606082015181600301556080820151816004015560a08201518160050155905050505050506200146d565b600033905090565b6000600560009054906101000a900473ffffffffffffffffffffffffffffffffffffffff16905081600560006101000a81548173ffffffffffffffffffffffffffffffffffffffff021916908373ffffffffffffffffffffffffffffffffffffffff1602179055508173ffffffffffffffffffffffffffffffffffffffff168173ffffffffffffffffffffffffffffffffffffffff167f8be0079c531659141344cd1fd0a4f28419497f9722a3daafe3b4186f6b6457e060405160405180910390a35050565b7f4e487b7100000000000000000000000000000000000000000000000000000000600052602160045260246000fd5b6000604051905090565b600080fd5b600080fd5b600073ffffffffffffffffffffffffffffffffffffffff82169050919050565b60006200082c82620007ff565b9050919050565b6200083e816200081f565b81146200084a57600080fd5b50565b6000815190506200085e8162000833565b92915050565b600080fd5b600080fd5b6000601f19601f8301169050919050565b7f4e487b7100000000000000000000000000000000000000000000000000000000600052604160045260246000fd5b620008b9826200086e565b810181811067ffffffffffffffff82111715620008db57620008da6200087f565b5b80604052505050565b6000620008f0620007eb565b9050620008fe8282620008ae565b919050565b600067ffffffffffffffff8211156200092157620009206200087f565b5b6200092c826200086e565b9050602081019050919050565b60005b83811015620009595780820151818401526020810190506200093c565b60008484015250505050565b60006200097c620009768462000903565b620008e4565b9050828152602081018484840111156200099b576200099a62000869565b5b620009a884828562000939565b509392505050565b600082601f830112620009c857620009c762000864565b5b8151620009da84826020860162000965565b91505092915050565b600080fd5b60008115159050919050565b620009ff81620009e8565b811462000a0b57600080fd5b50565b60008151905062000a1f81620009f4565b92915050565b6000819050919050565b62000a3a8162000a25565b811462000a4657600080fd5b50565b60008151905062000a5a8162000a2f565b92915050565b600060c0828403121562000a795762000a78620009e3565b5b62000a8560c0620008e4565b9050600062000a978482850162000a0e565b600083015250602062000aad8482850162000a49565b602083015250604062000ac38482850162000a49565b604083015250606062000ad98482850162000a49565b606083015250608062000aef8482850162000a49565b60808301525060a062000b058482850162000a49565b60a08301525092915050565b600080600080610120858703121562000b2f5762000b2e620007f5565b5b600062000b3f878288016200084d565b945050602085015167ffffffffffffffff81111562000b635762000b62620007fa565b5b62000b7187828801620009b0565b935050604085015167ffffffffffffffff81111562000b955762000b94620007fa565b5b62000ba387828801620009b0565b925050606062000bb68782880162000a60565b91505092959194509250565b600081519050919050565b7f4e487b7100000000000000000000000000000000000000000000000000000000600052602260045260246000fd5b6000600282049050600182168062000c1557607f821691505b60208210810362000c2b5762000c2a62000bcd565b5b50919050565b60008190508160005260206000209050919050565b60006020601f8301049050919050565b600082821b905092915050565b60006008830262000c957fffffffffffffffffffffffffffffffffffffffffffffffffffffffffffffffff8262000c56565b62000ca1868362000c56565b95508019841693508086168417925050509392505050565b6000819050919050565b600062000ce462000cde62000cd88462000a25565b62000cb9565b62000a25565b9050919050565b6000819050919050565b62000d008362000cc3565b62000d1862000d0f8262000ceb565b84845462000c63565b825550505050565b600090565b62000d2f62000d20565b62000d3c81848462000cf5565b505050565b5b8181101562000d645762000d5860008262000d25565b60018101905062000d42565b5050565b601f82111562000db35762000d7d8162000c31565b62000d888462000c46565b8101602085101562000d98578190505b62000db062000da78562000c46565b83018262000d41565b50505b505050565b600082821c905092915050565b600062000dd86000198460080262000db8565b1980831691505092915050565b600062000df3838362000dc5565b9150826002028217905092915050565b62000e0e8262000bc2565b67ffffffffffffffff81111562000e2a5762000e296200087f565b5b62000e36825462000bfc565b62000e4382828562000d68565b600060209050601f83116001811462000e7b576000841562000e66578287015190505b62000e72858262000de5565b86555062000ee2565b601f19841662000e8b8662000c31565b60005b8281101562000eb55784890151825560018201915060208501945060208101905062000e8e565b8683101562000ed5578489015162000ed1601f89168262000dc5565b8355505b6001600288020188555050505b505050505050565b600082825260208201905092915050565b7f6e756c6c20706f6f6c2061646472657373000000000000000000000000000000600082015250565b600062000f3360118362000eea565b915062000f408262000efb565b602082019050919050565b6000602082019050818103600083015262000f668162000f24565b9050919050565b60006020828403121562000f865762000f85620007f5565b5b600062000f96848285016200084d565b91505092915050565b600062000fac826200081f565b9050919050565b62000fbe8162000f9f565b811462000fca57600080fd5b50565b60008151905062000fde8162000fb3565b92915050565b60006020828403121562000ffd5762000ffc620007f5565b5b60006200100d8482850162000fcd565b91505092915050565b600062001023826200081f565b9050919050565b620010358162001016565b81146200104157600080fd5b50565b60008151905062001055816200102a565b92915050565b600060208284031215620010745762001073620007f5565b5b6000620010848482850162001044565b91505092915050565b60006200109a826200081f565b9050919050565b620010ac816200108d565b8114620010b857600080fd5b50565b600081519050620010cc81620010a1565b92915050565b600060208284031215620010eb57620010ea620007f5565b5b6000620010fb84828501620010bb565b91505092915050565b6200110f816200081f565b82525050565b6000819050919050565b6000620011406200113a620011348462001115565b62000cb9565b62000a25565b9050919050565b62001152816200111f565b82525050565b60006040820190506200116f600083018562001104565b6200117e602083018462001147565b9392505050565b6000602082840312156200119e576200119d620007f5565b5b6000620011ae8482850162000a0e565b91505092915050565b600060ff82169050919050565b620011cf81620011b7565b8114620011db57600080fd5b50565b600081519050620011ef81620011c4565b92915050565b6000602082840312156200120e576200120d620007f5565b5b60006200121e84828501620011de565b91505092915050565b7f4e487b7100000000000000000000000000000000000000000000000000000000600052601160045260246000fd5b60008160011c9050919050565b6000808291508390505b6001851115620012b5578086048111156200128d576200128c62001227565b5b60018516156200129d5780820291505b8081029050620012ad8562001256565b94506200126d565b94509492505050565b600082620012d05760019050620013a3565b81620012e05760009050620013a3565b8160018114620012f9576002811462001304576200133a565b6001915050620013a3565b60ff84111562001319576200131862001227565b5b8360020a91508482111562001333576200133262001227565b5b50620013a3565b5060208310610133831016604e8410600b8410161715620013745782820a9050838111156200136e576200136d62001227565b5b620013a3565b62001383848484600162001263565b925090508184048111156200139d576200139c62001227565b5b81810290505b9392505050565b6000620013b78262000a25565b9150620013c48362000a25565b9250620013f37fffffffffffffffffffffffffffffffffffffffffffffffffffffffffffffffff8484620012be565b905092915050565b7f6572726f72207065727020706172616d73000000000000000000000000000000600082015250565b60006200143360118362000eea565b91506200144082620013fb565b602082019050919050565b60006020820190508181036000830152620014668162001424565b9050919050565b60805160a05160c05160e05161010051610120516101405161016051610180516101a051614d3a620015a660003960006117c00152600081816107780152818161218201528181612309015261240c015260006107a6015260008181610ad201528181610c850152610ffc0152600081816108d5015281816109cd0152818161125d015281816114c101528181611678015281816119a101528181611b7101528181611e0201526124f9015260008181610cac015281816111bd015281816123d00152612702015260008181610846015281816114320152818161191201528181612146015281816122cd015261255a015260008181610da301528181610e540152818161179c0152611ee001526000818161130c01526123580152600081816121b00152818161233701526124d50152614d3a6000f3fe608060405234801561001057600080fd5b50600436106102275760003560e01c806380f5560511610130578063c49eefa1116100b8578063d2f7265a1161007c578063d2f7265a1461061b578063dd62ed3e14610639578063f2fde38b14610669578063f855c2b214610685578063fbfa77cf146106a357610227565b8063c49eefa114610594578063c81441071461059e578063cb4c86b7146105bc578063cf1a9b7a146105da578063cff0ab96146105f857610227565b80638f76691a116100ff5780638f76691a146104da57806395d89b41146104f8578063a457c2d714610516578063a9059cbb14610546578063ad2717961461057657610227565b806380f5560514610466578063836a559a146104845780638ca17995146104a05780638da5cb5b146104bc57610227565b806339509351116101b357806369bbf1ac1161018257806369bbf1ac146103e657806370a0823114610404578063715018a6146104345780637d7c2a1c1461043e5780637dc0d1d01461044857610227565b8063395093511461035c5780634094fb621461038c5780635bfb92ce146103aa578063622e8a27146103c857610227565b8063205a785a116101fa578063205a785a146102b657806323b872dd146102d45780632afcf48014610304578063313ce56714610320578063334b3e481461033e57610227565b806306fdde031461022c578063095ea7b31461024a57806316f0115b1461027a57806318160ddd14610298575b600080fd5b6102346106c1565b60405161024191906130fb565b60405180910390f35b610264600480360381019061025f91906131c5565b610753565b6040516102719190613220565b60405180910390f35b610282610776565b60405161028f919061329a565b60405180910390f35b6102a061079a565b6040516102ad91906132c4565b60405180910390f35b6102be6107a4565b6040516102cb91906132c4565b60405180910390f35b6102ee60048036038101906102e991906132df565b6107c8565b6040516102fb9190613220565b60405180910390f35b61031e60048036038101906103199190613332565b6107f7565b005b610328610c30565b604051610335919061337b565b60405180910390f35b610346610c39565b6040516103539190613220565b60405180910390f35b610376600480360381019061037191906131c5565b610c4c565b6040516103839190613220565b60405180910390f35b610394610c83565b6040516103a191906132c4565b60405180910390f35b6103b2610ca7565b6040516103bf91906132c4565b60405180910390f35b6103d06111b8565b6040516103dd91906132c4565b60405180910390f35b6103ee61130a565b6040516103fb919061340d565b60405180910390f35b61041e60048036038101906104199190613428565b61132e565b60405161042b91906132c4565b60405180910390f35b61043c611376565b005b6104466113fe565b005b61045061179a565b60405161045d9190613476565b60405180910390f35b61046e6117be565b60405161047b91906134b2565b60405180910390f35b61049e600480360381019061049991906134f9565b6117e2565b005b6104ba60048036038101906104b59190613332565b6118c3565b005b6104c4611c9e565b6040516104d19190613535565b60405180910390f35b6104e2611cc8565b6040516104ef91906132c4565b60405180910390f35b610500611cce565b60405161050d91906130fb565b60405180910390f35b610530600480360381019061052b91906131c5565b611d60565b60405161053d9190613220565b60405180910390f35b610560600480360381019061055b91906131c5565b611dd7565b60405161056d9190613220565b60405180910390f35b61057e611dfa565b60405161058b91906132c4565b60405180910390f35b61059c611e00565b005b6105a66124d3565b6040516105b39190613598565b60405180910390f35b6105c46124f7565b6040516105d191906135d4565b60405180910390f35b6105e261251b565b6040516105ef91906132c4565b60405180910390f35b610600612521565b604051610612969594939291906135ef565b60405180910390f35b610623612558565b6040516106309190613671565b60405180910390f35b610653600480360381019061064e919061368c565b61257c565b60405161066091906132c4565b60405180910390f35b610683600480360381019061067e9190613428565b612603565b005b61068d6126fa565b60405161069a91906132c4565b60405180910390f35b6106ab612700565b6040516106b891906136ed565b60405180910390f35b6060600380546106d090613737565b80601f01602080910402602001604051908101604052809291908181526020018280546106fc90613737565b80156107495780601f1061071e57610100808354040283529160200191610749565b820191906000526020600020905b81548152906001019060200180831161072c57829003601f168201915b5050505050905090565b60008061075e612724565b905061076b81858561272c565b600191505092915050565b7f000000000000000000000000000000000000000000000000000000000000000081565b6000600254905090565b7f000000000000000000000000000000000000000000000000000000000000000081565b6000806107d3612724565b90506107e08582856128f5565b6107eb858585612981565b60019150509392505050565b60026006540361083c576040517f08c379a0000000000000000000000000000000000000000000000000000000008152600401610833906137b4565b60405180910390fd5b60026006819055507f000000000000000000000000000000000000000000000000000000000000000073ffffffffffffffffffffffffffffffffffffffff16631df9fa816009546040518263ffffffff1660e01b815260040161089f91906132c4565b600060405180830381600087803b1580156108b957600080fd5b505af11580156108cd573d6000803e3d6000fd5b5050505060007f000000000000000000000000000000000000000000000000000000000000000073ffffffffffffffffffffffffffffffffffffffff166370a08231306040518263ffffffff1660e01b815260040161092c9190613535565b602060405180830381865afa158015610949573d6000803e3d6000fd5b505050506040513d601f19601f8201168201806040525081019061096d91906137e9565b9050600061097961079a565b905060008111801561098b5750600082145b156109cb576040517f08c379a00000000000000000000000000000000000000000000000000000000081526004016109c290613862565b60405180910390fd5b7f000000000000000000000000000000000000000000000000000000000000000073ffffffffffffffffffffffffffffffffffffffff166323b872dd3330866040518463ffffffff1660e01b8152600401610a2893929190613882565b6020604051808303816000875af1158015610a47573d6000803e3d6000fd5b505050506040513d601f19601f82011682018060405250810190610a6b91906138ce565b610aaa576040517f08c379a0000000000000000000000000000000000000000000000000000000008152600401610aa190613947565b60405180910390fd5b6000808311610b54578373__MarketLib_____________________________63ed1bb19990917f00000000000000000000000000000000000000000000000000000000000000006040518363ffffffff1660e01b8152600401610b0e929190613976565b602060405180830381865af4158015610b2b573d6000803e3d6000fd5b505050506040513d601f19601f82011682018060405250810190610b4f91906137e9565b610bd3565b8173__MathLib_______________________________63b3947c17909186866040518463ffffffff1660e01b8152600401610b919392919061399f565b602060405180830381865af4158015610bae573d6000803e3d6000fd5b505050506040513d601f19601f82011682018060405250810190610bd291906137e9565b5b9050610bdf3382612c00565b610be7611e00565b7f2bfea785f216464b44117a0f6fed3cff976925d2dd3e89dec252213768471f9b338286604051610c1a939291906139d6565b60405180910390a1505050600160068190555050565b60006012905090565b601160009054906101000a900460ff1681565b600080610c57612724565b9050610c78818585610c69858961257c565b610c739190613a3c565b61272c565b600191505092915050565b7f000000000000000000000000000000000000000000000000000000000000000081565b6000807f000000000000000000000000000000000000000000000000000000000000000073ffffffffffffffffffffffffffffffffffffffff16631ce5e9a66009546040518263ffffffff1660e01b8152600401610d0591906132c4565b61026060405180830381865afa158015610d23573d6000803e3d6000fd5b505050506040513d601f19601f82011682018060405250810190610d479190613d66565b905060016003811115610d5d57610d5c613396565b5b81604001516003811115610d7457610d73613396565b5b148015610d85575042816101000151115b156111b457600042826101000151610d9d9190613d94565b905060007f000000000000000000000000000000000000000000000000000000000000000073ffffffffffffffffffffffffffffffffffffffff1663b0667cf86040518163ffffffff1660e01b8152600401602060405180830381865afa158015610e0c573d6000803e3d6000fd5b505050506040513d601f19601f82011682018060405250810190610e3091906137e9565b905060008373__OptionLib_____________________________63bbf7830e9091847f000000000000000000000000000000000000000000000000000000000000000073ffffffffffffffffffffffffffffffffffffffff1663cfc2dc20886040518263ffffffff1660e01b8152600401610eab91906132c4565b602060405180830381865afa158015610ec8573d6000803e3d6000fd5b505050506040513d601f19601f82011682018060405250810190610eec91906137e9565b6040518463ffffffff1660e01b8152600401610f0a9392919061401d565b602060405180830381865af4158015610f27573d6000803e3d6000fd5b505050506040513d601f19601f82011682018060405250810190610f4b9190614057565b905060008112158015610f6d5750600b60000160009054906101000a900460ff165b80610f95575060008113158015610f945750600b60000160009054906101000a900460ff16155b5b610fd4576040517f08c379a0000000000000000000000000000000000000000000000000000000008152600401610fcb906140d0565b60405180910390fd5b6000610fde6111b8565b73__MarketLib_____________________________63ed1bb19990917f00000000000000000000000000000000000000000000000000000000000000006040518363ffffffff1660e01b8152600401611038929190613976565b602060405180830381865af4158015611055573d6000803e3d6000fd5b505050506040513d601f19601f8201168201806040525081019061107991906137e9565b9050600b60000160009054906101000a900460ff16611126576110a48261109f906140f0565b612d5f565b73__MathLib_______________________________63b3947c17909185846040518463ffffffff1660e01b81526004016110e09392919061399f565b602060405180830381865af41580156110fd573d6000803e3d6000fd5b505050506040513d601f19601f8201168201806040525081019061112191906137e9565b6111ad565b61112f82612d5f565b73__MathLib_______________________________63b3947c17909185846040518463ffffffff1660e01b815260040161116b9392919061399f565b602060405180830381865af4158015611188573d6000803e3d6000fd5b505050506040513d601f19601f820116820180604052508101906111ac91906137e9565b5b9550505050505b5090565b6000807f000000000000000000000000000000000000000000000000000000000000000073ffffffffffffffffffffffffffffffffffffffff1663350807056009546040518263ffffffff1660e01b815260040161121691906132c4565b6040805180830381865afa158015611232573d6000803e3d6000fd5b505050506040513d601f19601f820116820180604052508101906112569190614138565b50905060007f000000000000000000000000000000000000000000000000000000000000000073ffffffffffffffffffffffffffffffffffffffff166370a08231306040518263ffffffff1660e01b81526004016112b49190613535565b602060405180830381865afa1580156112d1573d6000803e3d6000fd5b505050506040513d601f19601f820116820180604052508101906112f591906137e9565b905080826113039190613a3c565b9250505090565b7f000000000000000000000000000000000000000000000000000000000000000081565b60008060008373ffffffffffffffffffffffffffffffffffffffff1673ffffffffffffffffffffffffffffffffffffffff168152602001908152602001600020549050919050565b61137e612724565b73ffffffffffffffffffffffffffffffffffffffff1661139c611c9e565b73ffffffffffffffffffffffffffffffffffffffff16146113f2576040517f08c379a00000000000000000000000000000000000000000000000000000000081526004016113e9906141c4565b60405180910390fd5b6113fc6000612dac565b565b6000611408610ca7565b9050600b600301548110801561142b5750601160009054906101000a900460ff16155b15611797577f000000000000000000000000000000000000000000000000000000000000000073ffffffffffffffffffffffffffffffffffffffff16631df9fa816009546040518263ffffffff1660e01b815260040161148b91906132c4565b600060405180830381600087803b1580156114a557600080fd5b505af11580156114b9573d6000803e3d6000fd5b5050505060007f000000000000000000000000000000000000000000000000000000000000000073ffffffffffffffffffffffffffffffffffffffff166370a08231306040518263ffffffff1660e01b81526004016115189190613535565b602060405180830381865afa158015611535573d6000803e3d6000fd5b505050506040513d601f19601f8201168201806040525081019061155991906137e9565b905060008173__MathLib_______________________________63b3947c17909161158642600a54612e72565b426115919190613d94565b620151806040518463ffffffff1660e01b81526004016115b39392919061399f565b602060405180830381865af41580156115d0573d6000803e3d6000fd5b505050506040513d601f19601f820116820180604052508101906115f491906137e9565b73__MathLib_______________________________63fed4a0f39091600b600401546040518363ffffffff1660e01b8152600401611633929190613976565b602060405180830381865af4158015611650573d6000803e3d6000fd5b505050506040513d601f19601f8201168201806040525081019061167491906137e9565b90507f000000000000000000000000000000000000000000000000000000000000000073ffffffffffffffffffffffffffffffffffffffff1663a9059cbb33836040518363ffffffff1660e01b81526004016116d19291906141e4565b6020604051808303816000875af11580156116f0573d6000803e3d6000fd5b505050506040513d601f19601f8201168201806040525081019061171491906138ce565b611753576040517f08c379a000000000000000000000000000000000000000000000000000000000815260040161174a90614259565b60405180910390fd5b61175b611e00565b7f518884de66df7cf12aa505ef63bdf44e014173c861d2f19f35d1cc5c37a63db9833360405161178c929190614279565b60405180910390a150505b50565b7f000000000000000000000000000000000000000000000000000000000000000081565b7f000000000000000000000000000000000000000000000000000000000000000081565b6117ea612724565b73ffffffffffffffffffffffffffffffffffffffff16611808611c9e565b73ffffffffffffffffffffffffffffffffffffffff161461185e576040517f08c379a0000000000000000000000000000000000000000000000000000000008152600401611855906141c4565b60405180910390fd5b80601160006101000a81548160ff0219169083151502179055507f94a96596071183e5a0c91da2bf971df299c6ff75c5c6a5fd143d3be24bd01e56601160009054906101000a900460ff16336040516118b89291906142a2565b60405180910390a150565b600260065403611908576040517f08c379a00000000000000000000000000000000000000000000000000000000081526004016118ff906137b4565b60405180910390fd5b60026006819055507f000000000000000000000000000000000000000000000000000000000000000073ffffffffffffffffffffffffffffffffffffffff16631df9fa816009546040518263ffffffff1660e01b815260040161196b91906132c4565b600060405180830381600087803b15801561198557600080fd5b505af1158015611999573d6000803e3d6000fd5b5050505060007f000000000000000000000000000000000000000000000000000000000000000073ffffffffffffffffffffffffffffffffffffffff166370a08231306040518263ffffffff1660e01b81526004016119f89190613535565b602060405180830381865afa158015611a15573d6000803e3d6000fd5b505050506040513d601f19601f82011682018060405250810190611a3991906137e9565b90506000611a4561079a565b90506000611ae1611a553361132e565b8373__MathLib_______________________________63b3947c17909188886040518463ffffffff1660e01b8152600401611a929392919061399f565b602060405180830381865af4158015611aaf573d6000803e3d6000fd5b505050506040513d601f19601f82011682018060405250810190611ad391906137e9565b612e7290919063ffffffff16565b9050611aed3382612e8b565b60008373__MathLib_______________________________63b3947c17909184866040518463ffffffff1660e01b8152600401611b2c9392919061399f565b602060405180830381865af4158015611b49573d6000803e3d6000fd5b505050506040513d601f19601f82011682018060405250810190611b6d91906137e9565b90507f000000000000000000000000000000000000000000000000000000000000000073ffffffffffffffffffffffffffffffffffffffff1663a9059cbb33836040518363ffffffff1660e01b8152600401611bca9291906141e4565b6020604051808303816000875af1158015611be9573d6000803e3d6000fd5b505050506040513d601f19601f82011682018060405250810190611c0d91906138ce565b611c4c576040517f08c379a0000000000000000000000000000000000000000000000000000000008152600401611c4390614317565b60405180910390fd5b611c54611e00565b7f82ac6489807d2766b0b035528d370ccb3a1ee573548fef389f4bfda722ca1c11338383604051611c87939291906139d6565b60405180910390a150505050600160068190555050565b6000600560009054906101000a900473ffffffffffffffffffffffffffffffffffffffff16905090565b60085481565b606060048054611cdd90613737565b80601f0160208091040260200160405190810160405280929190818152602001828054611d0990613737565b8015611d565780601f10611d2b57610100808354040283529160200191611d56565b820191906000526020600020905b815481529060010190602001808311611d3957829003601f168201915b5050505050905090565b600080611d6b612724565b90506000611d79828661257c565b905083811015611dbe576040517f08c379a0000000000000000000000000000000000000000000000000000000008152600401611db5906143a9565b60405180910390fd5b611dcb828686840361272c565b60019250505092915050565b600080611de2612724565b9050611def818585612981565b600191505092915050565b60095481565b7f000000000000000000000000000000000000000000000000000000000000000073ffffffffffffffffffffffffffffffffffffffff1673__MarketLib_____________________________63983d3bb89091306040518363ffffffff1660e01b8152600401611e719291906143e7565b602060405180830381865af4158015611e8e573d6000803e3d6000fd5b505050506040513d601f19601f82011682018060405250810190611eb291906137e9565b6008819055506000600854118015611ed75750601160009054906101000a900460ff16155b156124d15760007f000000000000000000000000000000000000000000000000000000000000000073ffffffffffffffffffffffffffffffffffffffff1663b0667cf86040518163ffffffff1660e01b8152600401602060405180830381865afa158015611f49573d6000803e3d6000fd5b505050506040513d601f19601f82011682018060405250810190611f6d91906137e9565b905060085473__MathLib_______________________________63b3947c179091600b60020154846040518463ffffffff1660e01b8152600401611fb39392919061399f565b602060405180830381865af4158015611fd0573d6000803e3d6000fd5b505050506040513d601f19601f82011682018060405250810190611ff491906137e9565b6007819055506000600b60000160009054906101000a900460ff16612099578173__MathLib_______________________________63de7f61709091600b600101546040518363ffffffff1660e01b8152600401612053929190613976565b602060405180830381865af4158015612070573d6000803e3d6000fd5b505050506040513d601f19601f8201168201806040525081019061209491906137e9565b61211b565b8173__MathLib_______________________________63fed4a0f39091600b600101546040518363ffffffff1660e01b81526004016120d9929190613976565b602060405180830381865af41580156120f6573d6000803e3d6000fd5b505050506040513d601f19601f8201168201806040525081019061211a91906137e9565b5b90506000600b60000160009054906101000a900460ff1661213d576001612140565b60005b905060007f000000000000000000000000000000000000000000000000000000000000000073ffffffffffffffffffffffffffffffffffffffff1663b3c5a1017f0000000000000000000000000000000000000000000000000000000000000000600b60050154866000600754887f00000000000000000000000000000000000000000000000000000000000000006040518863ffffffff1660e01b81526004016121f1979695949392919061445a565b60a060405180830381865afa15801561220e573d6000803e3d6000fd5b505050506040513d601f19601f8201168201806040525081019061223291906144c9565b5050505090506008548111156122cb5760075473__MathLib_______________________________63b3947c179091600854846040518463ffffffff1660e01b81526004016122839392919061399f565b602060405180830381865af41580156122a0573d6000803e3d6000fd5b505050506040513d601f19601f820116820180604052508101906122c491906137e9565b6007819055505b7f000000000000000000000000000000000000000000000000000000000000000073ffffffffffffffffffffffffffffffffffffffff166331d975d27f0000000000000000000000000000000000000000000000000000000000000000600b60050154866000600754887f00000000000000000000000000000000000000000000000000000000000000007f00000000000000000000000000000000000000000000000000000000000000006040518963ffffffff1660e01b815260040161239a989796959493929190614544565b600060405180830381600087803b1580156123b457600080fd5b505af11580156123c8573d6000803e3d6000fd5b5050505060007f000000000000000000000000000000000000000000000000000000000000000073ffffffffffffffffffffffffffffffffffffffff16637be795e07f0000000000000000000000000000000000000000000000000000000000000000306040518363ffffffff1660e01b81526004016124499291906145c2565b600060405180830381865afa158015612466573d6000803e3d6000fd5b505050506040513d6000823e3d601f19601f8201168201806040525081019061248f91906146b8565b905060008151116124a15760006124be565b806000815181106124b5576124b4614701565b5b60200260200101515b60098190555042600a8190555050505050505b565b7f000000000000000000000000000000000000000000000000000000000000000081565b7f000000000000000000000000000000000000000000000000000000000000000081565b600a5481565b600b8060000160009054906101000a900460ff16908060010154908060020154908060030154908060040154908060050154905086565b7f000000000000000000000000000000000000000000000000000000000000000081565b6000600160008473ffffffffffffffffffffffffffffffffffffffff1673ffffffffffffffffffffffffffffffffffffffff16815260200190815260200160002060008373ffffffffffffffffffffffffffffffffffffffff1673ffffffffffffffffffffffffffffffffffffffff16815260200190815260200160002054905092915050565b61260b612724565b73ffffffffffffffffffffffffffffffffffffffff16612629611c9e565b73ffffffffffffffffffffffffffffffffffffffff161461267f576040517f08c379a0000000000000000000000000000000000000000000000000000000008152600401612676906141c4565b60405180910390fd5b600073ffffffffffffffffffffffffffffffffffffffff168173ffffffffffffffffffffffffffffffffffffffff16036126ee576040517f08c379a00000000000000000000000000000000000000000000000000000000081526004016126e5906147a2565b60405180910390fd5b6126f781612dac565b50565b60075481565b7f000000000000000000000000000000000000000000000000000000000000000081565b600033905090565b600073ffffffffffffffffffffffffffffffffffffffff168373ffffffffffffffffffffffffffffffffffffffff160361279b576040517f08c379a000000000000000000000000000000000000000000000000000000000815260040161279290614834565b60405180910390fd5b600073ffffffffffffffffffffffffffffffffffffffff168273ffffffffffffffffffffffffffffffffffffffff160361280a576040517f08c379a0000000000000000000000000000000000000000000000000000000008152600401612801906148c6565b60405180910390fd5b80600160008573ffffffffffffffffffffffffffffffffffffffff1673ffffffffffffffffffffffffffffffffffffffff16815260200190815260200160002060008473ffffffffffffffffffffffffffffffffffffffff1673ffffffffffffffffffffffffffffffffffffffff168152602001908152602001600020819055508173ffffffffffffffffffffffffffffffffffffffff168373ffffffffffffffffffffffffffffffffffffffff167f8c5be1e5ebec7d5bd14f71427d1e84f3dd0314c0f7b2291e5b200ac8c7c3b925836040516128e891906132c4565b60405180910390a3505050565b6000612901848461257c565b90507fffffffffffffffffffffffffffffffffffffffffffffffffffffffffffffffff811461297b578181101561296d576040517f08c379a000000000000000000000000000000000000000000000000000000000815260040161296490614932565b60405180910390fd5b61297a848484840361272c565b5b50505050565b600073ffffffffffffffffffffffffffffffffffffffff168373ffffffffffffffffffffffffffffffffffffffff16036129f0576040517f08c379a00000000000000000000000000000000000000000000000000000000081526004016129e7906149c4565b60405180910390fd5b600073ffffffffffffffffffffffffffffffffffffffff168273ffffffffffffffffffffffffffffffffffffffff1603612a5f576040517f08c379a0000000000000000000000000000000000000000000000000000000008152600401612a5690614a56565b60405180910390fd5b612a6a838383613061565b60008060008573ffffffffffffffffffffffffffffffffffffffff1673ffffffffffffffffffffffffffffffffffffffff16815260200190815260200160002054905081811015612af0576040517f08c379a0000000000000000000000000000000000000000000000000000000008152600401612ae790614ae8565b60405180910390fd5b8181036000808673ffffffffffffffffffffffffffffffffffffffff1673ffffffffffffffffffffffffffffffffffffffff16815260200190815260200160002081905550816000808573ffffffffffffffffffffffffffffffffffffffff1673ffffffffffffffffffffffffffffffffffffffff1681526020019081526020016000206000828254612b839190613a3c565b925050819055508273ffffffffffffffffffffffffffffffffffffffff168473ffffffffffffffffffffffffffffffffffffffff167fddf252ad1be2c89b69c2b068fc378daa952ba7f163c4a11628f55a4df523b3ef84604051612be791906132c4565b60405180910390a3612bfa848484613066565b50505050565b600073ffffffffffffffffffffffffffffffffffffffff168273ffffffffffffffffffffffffffffffffffffffff1603612c6f576040517f08c379a0000000000000000000000000000000000000000000000000000000008152600401612c6690614b54565b60405180910390fd5b612c7b60008383613061565b8060026000828254612c8d9190613a3c565b92505081905550806000808473ffffffffffffffffffffffffffffffffffffffff1673ffffffffffffffffffffffffffffffffffffffff1681526020019081526020016000206000828254612ce29190613a3c565b925050819055508173ffffffffffffffffffffffffffffffffffffffff16600073ffffffffffffffffffffffffffffffffffffffff167fddf252ad1be2c89b69c2b068fc378daa952ba7f163c4a11628f55a4df523b3ef83604051612d4791906132c4565b60405180910390a3612d5b60008383613066565b5050565b600080821215612da4576040517f08c379a0000000000000000000000000000000000000000000000000000000008152600401612d9b90614bc0565b60405180910390fd5b819050919050565b6000600560009054906101000a900473ffffffffffffffffffffffffffffffffffffffff16905081600560006101000a81548173ffffffffffffffffffffffffffffffffffffffff021916908373ffffffffffffffffffffffffffffffffffffffff1602179055508173ffffffffffffffffffffffffffffffffffffffff168173ffffffffffffffffffffffffffffffffffffffff167f8be0079c531659141344cd1fd0a4f28419497f9722a3daafe3b4186f6b6457e060405160405180910390a35050565b6000818310612e815781612e83565b825b905092915050565b600073ffffffffffffffffffffffffffffffffffffffff168273ffffffffffffffffffffffffffffffffffffffff1603612efa576040517f08c379a0000000000000000000000000000000000000000000000000000000008152600401612ef190614c52565b60405180910390fd5b612f0682600083613061565b60008060008473ffffffffffffffffffffffffffffffffffffffff1673ffffffffffffffffffffffffffffffffffffffff16815260200190815260200160002054905081811015612f8c576040517f08c379a0000000000000000000000000000000000000000000000000000000008152600401612f8390614ce4565b60405180910390fd5b8181036000808573ffffffffffffffffffffffffffffffffffffffff1673ffffffffffffffffffffffffffffffffffffffff168152602001908152602001600020819055508160026000828254612fe39190613d94565b92505081905550600073ffffffffffffffffffffffffffffffffffffffff168373ffffffffffffffffffffffffffffffffffffffff167fddf252ad1be2c89b69c2b068fc378daa952ba7f163c4a11628f55a4df523b3ef8460405161304891906132c4565b60405180910390a361305c83600084613066565b505050565b505050565b505050565b600081519050919050565b600082825260208201905092915050565b60005b838110156130a557808201518184015260208101905061308a565b60008484015250505050565b6000601f19601f8301169050919050565b60006130cd8261306b565b6130d78185613076565b93506130e7818560208601613087565b6130f0816130b1565b840191505092915050565b6000602082019050818103600083015261311581846130c2565b905092915050565b6000604051905090565b600080fd5b600080fd5b600073ffffffffffffffffffffffffffffffffffffffff82169050919050565b600061315c82613131565b9050919050565b61316c81613151565b811461317757600080fd5b50565b60008135905061318981613163565b92915050565b6000819050919050565b6131a28161318f565b81146131ad57600080fd5b50565b6000813590506131bf81613199565b92915050565b600080604083850312156131dc576131db613127565b5b60006131ea8582860161317a565b92505060206131fb858286016131b0565b9150509250929050565b60008115159050919050565b61321a81613205565b82525050565b60006020820190506132356000830184613211565b92915050565b6000819050919050565b600061326061325b61325684613131565b61323b565b613131565b9050919050565b600061327282613245565b9050919050565b600061328482613267565b9050919050565b61329481613279565b82525050565b60006020820190506132af600083018461328b565b92915050565b6132be8161318f565b82525050565b60006020820190506132d960008301846132b5565b92915050565b6000806000606084860312156132f8576132f7613127565b5b60006133068682870161317a565b93505060206133178682870161317a565b9250506040613328868287016131b0565b9150509250925092565b60006020828403121561334857613347613127565b5b6000613356848285016131b0565b91505092915050565b600060ff82169050919050565b6133758161335f565b82525050565b6000602082019050613390600083018461336c565b92915050565b7f4e487b7100000000000000000000000000000000000000000000000000000000600052602160045260246000fd5b600381106133d6576133d5613396565b5b50565b60008190506133e7826133c5565b919050565b60006133f7826133d9565b9050919050565b613407816133ec565b82525050565b600060208201905061342260008301846133fe565b92915050565b60006020828403121561343e5761343d613127565b5b600061344c8482850161317a565b91505092915050565b600061346082613267565b9050919050565b61347081613455565b82525050565b600060208201905061348b6000830184613467565b92915050565b600061349c82613267565b9050919050565b6134ac81613491565b82525050565b60006020820190506134c760008301846134a3565b92915050565b6134d681613205565b81146134e157600080fd5b50565b6000813590506134f3816134cd565b92915050565b60006020828403121561350f5761350e613127565b5b600061351d848285016134e4565b91505092915050565b61352f81613151565b82525050565b600060208201905061354a6000830184613526565b92915050565b6002811061356157613560613396565b5b50565b600081905061357282613550565b919050565b600061358282613564565b9050919050565b61359281613577565b82525050565b60006020820190506135ad6000830184613589565b92915050565b60006135be82613267565b9050919050565b6135ce816135b3565b82525050565b60006020820190506135e960008301846135c5565b92915050565b600060c0820190506136046000830189613211565b61361160208301886132b5565b61361e60408301876132b5565b61362b60608301866132b5565b61363860808301856132b5565b61364560a08301846132b5565b979650505050505050565b600061365b82613267565b9050919050565b61366b81613650565b82525050565b60006020820190506136866000830184613662565b92915050565b600080604083850312156136a3576136a2613127565b5b60006136b18582860161317a565b92505060206136c28582860161317a565b9150509250929050565b60006136d782613267565b9050919050565b6136e7816136cc565b82525050565b600060208201905061370260008301846136de565b92915050565b7f4e487b7100000000000000000000000000000000000000000000000000000000600052602260045260246000fd5b6000600282049050600182168061374f57607f821691505b60208210810361376257613761613708565b5b50919050565b7f5265656e7472616e637947756172643a207265656e7472616e742063616c6c00600082015250565b600061379e601f83613076565b91506137a982613768565b602082019050919050565b600060208201905081810360008301526137cd81613791565b9050919050565b6000815190506137e381613199565b92915050565b6000602082840312156137ff576137fe613127565b5b600061380d848285016137d4565b91505092915050565b7f636f6e7472616374206465616400000000000000000000000000000000000000600082015250565b600061384c600d83613076565b915061385782613816565b602082019050919050565b6000602082019050818103600083015261387b8161383f565b9050919050565b60006060820190506138976000830186613526565b6138a46020830185613526565b6138b160408301846132b5565b949350505050565b6000815190506138c8816134cd565b92915050565b6000602082840312156138e4576138e3613127565b5b60006138f2848285016138b9565b91505092915050565b7f696e76657374206572726f720000000000000000000000000000000000000000600082015250565b6000613931600c83613076565b915061393c826138fb565b602082019050919050565b6000602082019050818103600083015261396081613924565b9050919050565b6139708161318f565b82525050565b600060408201905061398b6000830185613967565b6139986020830184613967565b9392505050565b60006060820190506139b46000830186613967565b6139c16020830185613967565b6139ce6040830184613967565b949350505050565b60006060820190506139eb6000830186613526565b6139f860208301856132b5565b613a0560408301846132b5565b949350505050565b7f4e487b7100000000000000000000000000000000000000000000000000000000600052601160045260246000fd5b6000613a478261318f565b9150613a528361318f565b9250828201905080821115613a6a57613a69613a0d565b5b92915050565b600080fd5b7f4e487b7100000000000000000000000000000000000000000000000000000000600052604160045260246000fd5b613aad826130b1565b810181811067ffffffffffffffff82111715613acc57613acb613a75565b5b80604052505050565b6000613adf61311d565b9050613aeb8282613aa4565b919050565b60048110613afd57600080fd5b50565b600081519050613b0f81613af0565b92915050565b60028110613b2257600080fd5b50565b600081519050613b3481613b15565b92915050565b60048110613b4757600080fd5b50565b600081519050613b5981613b3a565b92915050565b600081519050613b6e81613163565b92915050565b6000819050919050565b613b8781613b74565b8114613b9257600080fd5b50565b600081519050613ba481613b7e565b92915050565b60006102608284031215613bc157613bc0613a70565b5b613bcc610260613ad5565b90506000613bdc84828501613b00565b6000830152506020613bf084828501613b25565b6020830152506040613c0484828501613b4a565b6040830152506060613c1884828501613b5f565b6060830152506080613c2c848285016137d4565b60808301525060a0613c40848285016137d4565b60a08301525060c0613c54848285016137d4565b60c08301525060e0613c68848285016137d4565b60e083015250610100613c7d848285016137d4565b61010083015250610120613c93848285016137d4565b61012083015250610140613ca9848285016137d4565b61014083015250610160613cbf848285016137d4565b61016083015250610180613cd5848285016137d4565b610180830152506101a0613ceb848285016137d4565b6101a0830152506101c0613d01848285016137d4565b6101c0830152506101e0613d17848285016137d4565b6101e083015250610200613d2d848285016137d4565b61020083015250610220613d4384828501613b5f565b61022083015250610240613d5984828501613b95565b6102408301525092915050565b60006102608284031215613d7d57613d7c613127565b5b6000613d8b84828501613baa565b91505092915050565b6000613d9f8261318f565b9150613daa8361318f565b9250828203905081811115613dc257613dc1613a0d565b5b92915050565b60048110613dd957613dd8613396565b5b50565b6000819050613dea82613dc8565b919050565b6000613dfa82613ddc565b9050919050565b613e0a81613def565b82525050565b613e1981613577565b82525050565b60048110613e3057613e2f613396565b5b50565b6000819050613e4182613e1f565b919050565b6000613e5182613e33565b9050919050565b613e6181613e46565b82525050565b613e7081613151565b82525050565b613e7f8161318f565b82525050565b613e8e81613b74565b82525050565b61026082016000820151613eab6000850182613e01565b506020820151613ebe6020850182613e10565b506040820151613ed16040850182613e58565b506060820151613ee46060850182613e67565b506080820151613ef76080850182613e76565b5060a0820151613f0a60a0850182613e76565b5060c0820151613f1d60c0850182613e76565b5060e0820151613f3060e0850182613e76565b50610100820151613f45610100850182613e76565b50610120820151613f5a610120850182613e76565b50610140820151613f6f610140850182613e76565b50610160820151613f84610160850182613e76565b50610180820151613f99610180850182613e76565b506101a0820151613fae6101a0850182613e76565b506101c0820151613fc36101c0850182613e76565b506101e0820151613fd86101e0850182613e76565b50610200820151613fed610200850182613e76565b50610220820151614002610220850182613e67565b50610240820151614017610240850182613e85565b50505050565b60006102a0820190506140336000830186613e94565b614041610260830185613967565b61404f610280830184613967565b949350505050565b60006020828403121561406d5761406c613127565b5b600061407b84828501613b95565b91505092915050565b7f77726f6e672064656c7461000000000000000000000000000000000000000000600082015250565b60006140ba600b83613076565b91506140c582614084565b602082019050919050565b600060208201905081810360008301526140e9816140ad565b9050919050565b60006140fb82613b74565b91507f8000000000000000000000000000000000000000000000000000000000000000820361412d5761412c613a0d565b5b816000039050919050565b6000806040838503121561414f5761414e613127565b5b600061415d858286016137d4565b925050602061416e858286016137d4565b9150509250929050565b7f4f776e61626c653a2063616c6c6572206973206e6f7420746865206f776e6572600082015250565b60006141ae602083613076565b91506141b982614178565b602082019050919050565b600060208201905081810360008301526141dd816141a1565b9050919050565b60006040820190506141f96000830185613526565b61420660208301846132b5565b9392505050565b7f70656e616c7479206572726f7200000000000000000000000000000000000000600082015250565b6000614243600d83613076565b915061424e8261420d565b602082019050919050565b6000602082019050818103600083015261427281614236565b9050919050565b600060408201905061428e60008301856132b5565b61429b6020830184613526565b9392505050565b60006040820190506142b76000830185613211565b6142c46020830184613526565b9392505050565b7f646976657374206572726f720000000000000000000000000000000000000000600082015250565b6000614301600c83613076565b915061430c826142cb565b602082019050919050565b60006020820190508181036000830152614330816142f4565b9050919050565b7f45524332303a2064656372656173656420616c6c6f77616e63652062656c6f7760008201527f207a65726f000000000000000000000000000000000000000000000000000000602082015250565b6000614393602583613076565b915061439e82614337565b604082019050919050565b600060208201905081810360008301526143c281614386565b9050919050565b6143d2816135b3565b82525050565b6143e181613151565b82525050565b60006040820190506143fc60008301856143c9565b61440960208301846143d8565b9392505050565b6000819050919050565b600061443561443061442b84614410565b61323b565b61318f565b9050919050565b6144458161441a565b82525050565b61445481613def565b82525050565b600060e08201905061446f600083018a61328b565b61447c60208301896132b5565b61448960408301886132b5565b614496606083018761443c565b6144a360808301866132b5565b6144b060a083018561444b565b6144bd60c0830184613589565b98975050505050505050565b600080600080600060a086880312156144e5576144e4613127565b5b60006144f3888289016137d4565b9550506020614504888289016137d4565b9450506040614515888289016137d4565b9350506060614526888289016137d4565b925050608061453788828901613b95565b9150509295509295909350565b60006101008201905061455a600083018b61328b565b614567602083018a6132b5565b61457460408301896132b5565b614581606083018861443c565b61458e60808301876132b5565b61459b60a083018661444b565b6145a860c0830185613589565b6145b560e08301846133fe565b9998505050505050505050565b60006040820190506145d76000830185613526565b6145e46020830184613526565b9392505050565b600080fd5b600067ffffffffffffffff82111561460b5761460a613a75565b5b602082029050602081019050919050565b600080fd5b600061463461462f846145f0565b613ad5565b905080838252602082019050602084028301858111156146575761465661461c565b5b835b81811015614680578061466c88826137d4565b845260208401935050602081019050614659565b5050509392505050565b600082601f83011261469f5761469e6145eb565b5b81516146af848260208601614621565b91505092915050565b6000602082840312156146ce576146cd613127565b5b600082015167ffffffffffffffff8111156146ec576146eb61312c565b5b6146f88482850161468a565b91505092915050565b7f4e487b7100000000000000000000000000000000000000000000000000000000600052603260045260246000fd5b7f4f776e61626c653a206e6577206f776e657220697320746865207a65726f206160008201527f6464726573730000000000000000000000000000000000000000000000000000602082015250565b600061478c602683613076565b915061479782614730565b604082019050919050565b600060208201905081810360008301526147bb8161477f565b9050919050565b7f45524332303a20617070726f76652066726f6d20746865207a65726f2061646460008201527f7265737300000000000000000000000000000000000000000000000000000000602082015250565b600061481e602483613076565b9150614829826147c2565b604082019050919050565b6000602082019050818103600083015261484d81614811565b9050919050565b7f45524332303a20617070726f766520746f20746865207a65726f20616464726560008201527f7373000000000000000000000000000000000000000000000000000000000000602082015250565b60006148b0602283613076565b91506148bb82614854565b604082019050919050565b600060208201905081810360008301526148df816148a3565b9050919050565b7f45524332303a20696e73756666696369656e7420616c6c6f77616e6365000000600082015250565b600061491c601d83613076565b9150614927826148e6565b602082019050919050565b6000602082019050818103600083015261494b8161490f565b9050919050565b7f45524332303a207472616e736665722066726f6d20746865207a65726f20616460008201527f6472657373000000000000000000000000000000000000000000000000000000602082015250565b60006149ae602583613076565b91506149b982614952565b604082019050919050565b600060208201905081810360008301526149dd816149a1565b9050919050565b7f45524332303a207472616e7366657220746f20746865207a65726f206164647260008201527f6573730000000000000000000000000000000000000000000000000000000000602082015250565b6000614a40602383613076565b9150614a4b826149e4565b604082019050919050565b60006020820190508181036000830152614a6f81614a33565b9050919050565b7f45524332303a207472616e7366657220616d6f756e742065786365656473206260008201527f616c616e63650000000000000000000000000000000000000000000000000000602082015250565b6000614ad2602683613076565b9150614add82614a76565b604082019050919050565b60006020820190508181036000830152614b0181614ac5565b9050919050565b7f45524332303a206d696e7420746f20746865207a65726f206164647265737300600082015250565b6000614b3e601f83613076565b9150614b4982614b08565b602082019050919050565b60006020820190508181036000830152614b6d81614b31565b9050919050565b7f53616665436173743a2076616c7565206d75737420626520706f736974697665600082015250565b6000614baa602083613076565b9150614bb582614b74565b602082019050919050565b60006020820190508181036000830152614bd981614b9d565b9050919050565b7f45524332303a206275726e2066726f6d20746865207a65726f2061646472657360008201527f7300000000000000000000000000000000000000000000000000000000000000602082015250565b6000614c3c602183613076565b9150614c4782614be0565b604082019050919050565b60006020820190508181036000830152614c6b81614c2f565b9050919050565b7f45524332303a206275726e20616d6f756e7420657863656564732062616c616e60008201527f6365000000000000000000000000000000000000000000000000000000000000602082015250565b6000614cce602283613076565b9150614cd982614c72565b604082019050919050565b60006020820190508181036000830152614cfd81614cc1565b905091905056fea2646970667358221220c194abd557f4d3b3b45e891cfa2820dccc9b4bce8f401b803b9a934037cd0ffa64736f6c63430008110033",
  "immutableReferences": {
    "16785": [
      {
        "length": 32,
        "start": 8624
      },
      {
        "length": 32,
        "start": 9015
      },
      {
        "length": 32,
        "start": 9429
      }
    ],
    "16791": [
      {
        "length": 32,
        "start": 4876
      },
      {
        "length": 32,
        "start": 9048
      }
    ],
    "16794": [
      {
        "length": 32,
        "start": 3491
      },
      {
        "length": 32,
        "start": 3668
      },
      {
        "length": 32,
        "start": 6044
      },
      {
        "length": 32,
        "start": 7904
      }
    ],
    "16797": [
      {
        "length": 32,
        "start": 2118
      },
      {
        "length": 32,
        "start": 5170
      },
      {
        "length": 32,
        "start": 6418
      },
      {
        "length": 32,
        "start": 8518
      },
      {
        "length": 32,
        "start": 8909
      },
      {
        "length": 32,
        "start": 9562
      }
    ],
    "16800": [
      {
        "length": 32,
        "start": 3244
      },
      {
        "length": 32,
        "start": 4541
      },
      {
        "length": 32,
        "start": 9168
      },
      {
        "length": 32,
        "start": 9986
      }
    ],
    "16803": [
      {
        "length": 32,
        "start": 2261
      },
      {
        "length": 32,
        "start": 2509
      },
      {
        "length": 32,
        "start": 4701
      },
      {
        "length": 32,
        "start": 5313
      },
      {
        "length": 32,
        "start": 5752
      },
      {
        "length": 32,
        "start": 6561
      },
      {
        "length": 32,
        "start": 7025
      },
      {
        "length": 32,
        "start": 7682
      },
      {
        "length": 32,
        "start": 9465
      }
    ],
    "16805": [
      {
        "length": 32,
        "start": 2770
      },
      {
        "length": 32,
        "start": 3205
      },
      {
        "length": 32,
        "start": 4092
      }
    ],
    "16807": [
      {
        "length": 32,
        "start": 1958
      }
    ],
    "16810": [
      {
        "length": 32,
        "start": 1912
      },
      {
        "length": 32,
        "start": 8578
      },
      {
        "length": 32,
        "start": 8969
      },
      {
        "length": 32,
        "start": 9228
      }
    ],
    "16813": [
      {
        "length": 32,
        "start": 6080
      }
    ]
  },
  "source": "// SPDX-License-Identifier: MIT\npragma solidity 0.8.17;\n\nimport \"@openzeppelin/contracts/token/ERC20/ERC20.sol\";\nimport \"@openzeppelin/contracts/security/ReentrancyGuard.sol\";\nimport \"@openzeppelin/contracts/utils/math/Math.sol\";\nimport \"@openzeppelin/contracts/utils/math/SafeCast.sol\";\nimport \"@openzeppelin/contracts/access/Ownable.sol\";\nimport \"../Exchange.sol\";\nimport \"../OptionVault.sol\";\nimport \"../VolatilityChain.sol\";\nimport \"../pools/MarketMaker.sol\";\nimport \"../pools/Pool.sol\";\nimport \"../libraries/MathLib.sol\";\nimport \"../libraries/OptionLib.sol\";\nimport \"../libraries/MarketLib.sol\";\n\ncontract Perp is ERC20, Ownable, ReentrancyGuard{\n    using MathLib for uint256;\n    using Math for uint256;\n    using SafeCast for int256;\n    using MarketLib for ERC20;\n    using MarketLib for uint256;\n    using OptionLib for OptionLib.Option;\n\n    struct PerpParam{bool long; uint itm; uint leverage; uint criticalLev; uint penalty; uint tenor;}\n\n    event PerpInvest(address investor, uint256 tokenUnit, uint256 investAmount);\n    event PerpDivest(address investor, uint256 tokenUnit, uint256 divestAmount);\n    event PerpRebalance(uint256 leverage, address bot);\n    event PerpLiquidation(bool liquidation, address bot);\n\n    uint256 public notional;\n    uint256 public margin;\n    uint256 public optionId;\n    uint256 public optionEffective;\n\n    PerpParam public params;\n    OptionLib.OptionSide public immutable optionSide = OptionLib.OptionSide.Buy;\n    OptionLib.PaymentMethod public immutable optionPayment = OptionLib.PaymentMethod.USDC;\n\n    VolatilityChain public immutable oracle;\n    Exchange public immutable exchange;\n    OptionVault public immutable vault;\n    ERC20 public immutable funding;\n    uint256 public immutable fundingDecimals;\n    uint256 public immutable fundingMultiplier;\n    Pool public immutable pool;\n    MarketMaker public immutable market;\n\n    uint256 internal constant SECONDS_1D = 86400;\n    bool public liquidating = false;\n\n    constructor(address _pool, string memory _name, string memory _symbol, PerpParam memory _params) ERC20(_name, _symbol){\n        require(_pool != address(0), \"null pool address\");\n        pool = Pool(_pool);\n\n        exchange = Exchange(pool.exchange()); \n        vault = exchange.vault();\n        market = pool.marketMaker();\n        oracle = market.getVolatilityChain();\n        funding = ERC20(market.funding());\n        funding.increaseAllowance(address(exchange), 2**256 - 1);\n        fundingDecimals = funding.decimals();\n        fundingMultiplier = 10 ** fundingDecimals;\n        optionEffective = block.timestamp;\n\n        require(_params.itm > 0, \"error perp params\");\n        params = _params;\n    }\n\n    // invest amount of USDC: _investment in USDC decimals\n    function invest(uint256 _investment) external nonReentrant{\n        // unwind existing option\n        exchange.unwindOption(optionId);\n        uint256 _previousBalance = funding.balanceOf(address(this));\n        uint256 _previousSupply = totalSupply();\n        require(!(_previousSupply > 0 && _previousBalance == 0), \"contract dead\");\n\n        // transfer in investment\n        require(funding.transferFrom(msg.sender, address(this), _investment), 'invest error');\n\n        // mint new tokens\n        uint256 _newTokenAmount = _previousBalance > 0 ? _previousSupply.muldiv(_investment, _previousBalance): _investment.toWei(fundingDecimals);\n        _mint(msg.sender, _newTokenAmount);\n\n        // create options\n        createOption();\n\n        emit PerpInvest(msg.sender, _newTokenAmount, _investment);\n    }\n\n    // divest amount of USDC: _investment in USDC decimals\n    function divest(uint256 _divestment) external nonReentrant{\n        // unwind existing option\n        exchange.unwindOption(optionId);\n        uint256 _previousBalance = funding.balanceOf(address(this));\n        uint256 _previousSupply = totalSupply();\n\n        // burn tokens\n        uint256 _burnTokenAmount = _previousSupply.muldiv(_divestment, _previousBalance).min(balanceOf(msg.sender));\n        _burn(msg.sender, _burnTokenAmount);\n\n        // transfer out divestment\n        uint256 _redeemAmount = _previousBalance.muldiv(_burnTokenAmount, _previousSupply);\n        require(funding.transfer(msg.sender, _redeemAmount), 'divest error');\n\n        // create options\n        createOption();\n\n        emit PerpDivest(msg.sender, _burnTokenAmount, _redeemAmount);\n    }\n\n    // rebalance when leverage is below threshold\n    function rebalance() external{\n        // check bounds: can only reblance if leverage is below threshold\n        uint256 _currentLev = getCurrentLeverage();\n        if(_currentLev < params.criticalLev && !liquidating){\n            // unwind existing option\n            exchange.unwindOption(optionId);\n            uint256 _previousBalance = funding.balanceOf(address(this));\n\n            // collect incentives for rebalancer\n            uint256 _incentive = _previousBalance.muldiv(block.timestamp - Math.min(block.timestamp, optionEffective), SECONDS_1D).ethmul(params.penalty);\n            require(funding.transfer(msg.sender, _incentive), \"penalty error\");\n\n            // create options\n            createOption();\n\n            emit PerpRebalance(_currentLev, msg.sender);\n        }\n    }\n\n    function createOption() public {\n        // calculate new trading notionals\n        margin = funding.balanceDef(address(this));\n        // it won't create new options if it's in liquidation phase (liquidating = true)\n        if(margin > 0 && !liquidating){ \n            uint256 currentPrice = oracle.queryPrice();\n            notional = margin.muldiv(params.leverage, currentPrice);\n            uint256 _strike = params.long? currentPrice.ethmul(params.itm): currentPrice.ethdiv(params.itm);\n            OptionLib.PayoffType _poType = params.long? OptionLib.PayoffType.Call: OptionLib.PayoffType.Put;\n            \n            // check notional\n            (uint256 _premium,,,,) = exchange.queryOption(pool, params.tenor, _strike, 0, notional, _poType, optionSide);\n            if(_premium > margin){\n                notional = notional.muldiv(margin, _premium);\n            }\n\n            // create options\n            exchange.tradeOption(pool, params.tenor, _strike, 0, notional, _poType, optionSide, optionPayment);\n\n            // register new id\n            uint256[] memory _optionIdList = vault.getHolderOptions(address(pool), address(this));\n            optionId = _optionIdList.length>0? _optionIdList[0]: 0;\n            optionEffective = block.timestamp;\n        }\n    }\n\n    function getCurrentLeverage() public view returns(uint256 _leverage){\n        // calculate delta\n        OptionLib.Option memory _option = vault.getOption(optionId);\n        if(_option.status== OptionLib.OptionStatus.Active && (_option.maturity > block.timestamp)){\n            uint256 _remainingTenor = _option.maturity - block.timestamp;\n            uint256 _price = oracle.queryPrice();\n            int256 _delta = _option.calcDelta(_price, oracle.queryVol(_remainingTenor)); // in 18 decimals\n            require((_delta >= 0 && params.long) || (_delta <= 0 && !(params.long)), \"wrong delta\");\n\n            // multiply delta by the price then divided by current pv\n            uint256 _pv = getPV().toWei(fundingDecimals);\n            _leverage = params.long? _delta.toUint256().muldiv(_price, _pv): (-_delta).toUint256().muldiv(_price, _pv);\n        }\n    }\n\n    // returns present value of the whole protocol in funding token decimals.\n    function getPV() public view returns(uint256){\n        // calculate unwind value, in funding token decimals\n        (uint256 _unwindValue, ) = vault.calcOptionUnwindValue(optionId);\n\n        // add to remaining USDC\n        uint256 _remainingBalance = funding.balanceOf(address(this));\n\n        return _unwindValue + _remainingBalance;\n    }\n\n    // set the pool to be liquidating, only executable by owner\n    // owner can't deal with any funds in the protocol but rather allow token holders to withdraw their funds when the liquidity pool can't support any more trades (so no rebalance would happen)\n    function setLiquidation(bool _liquidating) external onlyOwner{\n        liquidating = _liquidating;\n        emit PerpLiquidation(liquidating, msg.sender);\n    }\n}",
  "sourcePath": "/Users/mac/Documents/GitHub/moret/contracts/vaults/Perp.sol",
  "compiler": {
    "name": "solc",
    "version": "0.8.17+commit.8df45f5f.Emscripten.clang"
  },
  "schemaVersion": "3.4.3",
  "updatedAt": "2023-01-15T16:22:50.804Z",
  "networkType": "ethereum",
  "devdoc": {
    "kind": "dev",
    "methods": {
      "allowance(address,address)": {
        "details": "See {IERC20-allowance}."
      },
      "approve(address,uint256)": {
        "details": "See {IERC20-approve}. NOTE: If `amount` is the maximum `uint256`, the allowance is not updated on `transferFrom`. This is semantically equivalent to an infinite approval. Requirements: - `spender` cannot be the zero address."
      },
      "balanceOf(address)": {
        "details": "See {IERC20-balanceOf}."
      },
      "decimals()": {
        "details": "Returns the number of decimals used to get its user representation. For example, if `decimals` equals `2`, a balance of `505` tokens should be displayed to a user as `5.05` (`505 / 10 ** 2`). Tokens usually opt for a value of 18, imitating the relationship between Ether and Wei. This is the value {ERC20} uses, unless this function is overridden; NOTE: This information is only used for _display_ purposes: it in no way affects any of the arithmetic of the contract, including {IERC20-balanceOf} and {IERC20-transfer}."
      },
      "decreaseAllowance(address,uint256)": {
        "details": "Atomically decreases the allowance granted to `spender` by the caller. This is an alternative to {approve} that can be used as a mitigation for problems described in {IERC20-approve}. Emits an {Approval} event indicating the updated allowance. Requirements: - `spender` cannot be the zero address. - `spender` must have allowance for the caller of at least `subtractedValue`."
      },
      "increaseAllowance(address,uint256)": {
        "details": "Atomically increases the allowance granted to `spender` by the caller. This is an alternative to {approve} that can be used as a mitigation for problems described in {IERC20-approve}. Emits an {Approval} event indicating the updated allowance. Requirements: - `spender` cannot be the zero address."
      },
      "name()": {
        "details": "Returns the name of the token."
      },
      "owner()": {
        "details": "Returns the address of the current owner."
      },
      "renounceOwnership()": {
        "details": "Leaves the contract without owner. It will not be possible to call `onlyOwner` functions anymore. Can only be called by the current owner. NOTE: Renouncing ownership will leave the contract without an owner, thereby removing any functionality that is only available to the owner."
      },
      "symbol()": {
        "details": "Returns the symbol of the token, usually a shorter version of the name."
      },
      "totalSupply()": {
        "details": "See {IERC20-totalSupply}."
      },
      "transfer(address,uint256)": {
        "details": "See {IERC20-transfer}. Requirements: - `to` cannot be the zero address. - the caller must have a balance of at least `amount`."
      },
      "transferFrom(address,address,uint256)": {
        "details": "See {IERC20-transferFrom}. Emits an {Approval} event indicating the updated allowance. This is not required by the EIP. See the note at the beginning of {ERC20}. NOTE: Does not update the allowance if the current allowance is the maximum `uint256`. Requirements: - `from` and `to` cannot be the zero address. - `from` must have a balance of at least `amount`. - the caller must have allowance for ``from``'s tokens of at least `amount`."
      },
      "transferOwnership(address)": {
        "details": "Transfers ownership of the contract to a new account (`newOwner`). Can only be called by the current owner."
      }
    },
    "version": 1
  },
  "userdoc": {
    "kind": "user",
    "methods": {},
    "version": 1
  }
}