{
  "contractName": "Perp",
  "abi": [
    {
      "inputs": [
        {
          "internalType": "address",
          "name": "_pool",
          "type": "address"
        },
        {
          "internalType": "string",
          "name": "_name",
          "type": "string"
        },
        {
          "internalType": "string",
          "name": "_symbol",
          "type": "string"
        },
        {
          "components": [
            {
              "internalType": "bool",
              "name": "long",
              "type": "bool"
            },
            {
              "internalType": "uint256",
              "name": "itm",
              "type": "uint256"
            },
            {
              "internalType": "uint256",
              "name": "itm2",
              "type": "uint256"
            },
            {
              "internalType": "uint256",
              "name": "leverage",
              "type": "uint256"
            },
            {
              "internalType": "uint256",
              "name": "criticalLev",
              "type": "uint256"
            },
            {
              "internalType": "uint256",
              "name": "penalty",
              "type": "uint256"
            },
            {
              "internalType": "uint256",
              "name": "tenor",
              "type": "uint256"
            }
          ],
          "internalType": "struct Perp.PerpParam",
          "name": "_params",
          "type": "tuple"
        }
      ],
      "stateMutability": "nonpayable",
      "type": "constructor"
    },
    {
      "anonymous": false,
      "inputs": [
        {
          "indexed": true,
          "internalType": "address",
          "name": "owner",
          "type": "address"
        },
        {
          "indexed": true,
          "internalType": "address",
          "name": "spender",
          "type": "address"
        },
        {
          "indexed": false,
          "internalType": "uint256",
          "name": "value",
          "type": "uint256"
        }
      ],
      "name": "Approval",
      "type": "event"
    },
    {
      "anonymous": false,
      "inputs": [
        {
          "indexed": true,
          "internalType": "address",
          "name": "previousOwner",
          "type": "address"
        },
        {
          "indexed": true,
          "internalType": "address",
          "name": "newOwner",
          "type": "address"
        }
      ],
      "name": "OwnershipTransferred",
      "type": "event"
    },
    {
      "anonymous": false,
      "inputs": [
        {
          "indexed": false,
          "internalType": "address",
          "name": "investor",
          "type": "address"
        },
        {
          "indexed": false,
          "internalType": "uint256",
          "name": "tokenUnit",
          "type": "uint256"
        },
        {
          "indexed": false,
          "internalType": "uint256",
          "name": "divestAmount",
          "type": "uint256"
        }
      ],
      "name": "PerpDivest",
      "type": "event"
    },
    {
      "anonymous": false,
      "inputs": [
        {
          "indexed": false,
          "internalType": "address",
          "name": "investor",
          "type": "address"
        },
        {
          "indexed": false,
          "internalType": "uint256",
          "name": "tokenUnit",
          "type": "uint256"
        },
        {
          "indexed": false,
          "internalType": "uint256",
          "name": "investAmount",
          "type": "uint256"
        }
      ],
      "name": "PerpInvest",
      "type": "event"
    },
    {
      "anonymous": false,
      "inputs": [
        {
          "indexed": false,
          "internalType": "bool",
          "name": "liquidation",
          "type": "bool"
        },
        {
          "indexed": false,
          "internalType": "address",
          "name": "bot",
          "type": "address"
        }
      ],
      "name": "PerpLiquidation",
      "type": "event"
    },
    {
      "anonymous": false,
      "inputs": [
        {
          "indexed": false,
          "internalType": "uint256",
          "name": "leverage",
          "type": "uint256"
        },
        {
          "indexed": false,
          "internalType": "address",
          "name": "bot",
          "type": "address"
        }
      ],
      "name": "PerpRebalance",
      "type": "event"
    },
    {
      "anonymous": false,
      "inputs": [
        {
          "indexed": true,
          "internalType": "address",
          "name": "from",
          "type": "address"
        },
        {
          "indexed": true,
          "internalType": "address",
          "name": "to",
          "type": "address"
        },
        {
          "indexed": false,
          "internalType": "uint256",
          "name": "value",
          "type": "uint256"
        }
      ],
      "name": "Transfer",
      "type": "event"
    },
    {
      "inputs": [
        {
          "internalType": "address",
          "name": "owner",
          "type": "address"
        },
        {
          "internalType": "address",
          "name": "spender",
          "type": "address"
        }
      ],
      "name": "allowance",
      "outputs": [
        {
          "internalType": "uint256",
          "name": "",
          "type": "uint256"
        }
      ],
      "stateMutability": "view",
      "type": "function"
    },
    {
      "inputs": [
        {
          "internalType": "address",
          "name": "spender",
          "type": "address"
        },
        {
          "internalType": "uint256",
          "name": "amount",
          "type": "uint256"
        }
      ],
      "name": "approve",
      "outputs": [
        {
          "internalType": "bool",
          "name": "",
          "type": "bool"
        }
      ],
      "stateMutability": "nonpayable",
      "type": "function"
    },
    {
      "inputs": [
        {
          "internalType": "address",
          "name": "account",
          "type": "address"
        }
      ],
      "name": "balanceOf",
      "outputs": [
        {
          "internalType": "uint256",
          "name": "",
          "type": "uint256"
        }
      ],
      "stateMutability": "view",
      "type": "function"
    },
    {
      "inputs": [],
      "name": "decimals",
      "outputs": [
        {
          "internalType": "uint8",
          "name": "",
          "type": "uint8"
        }
      ],
      "stateMutability": "view",
      "type": "function"
    },
    {
      "inputs": [
        {
          "internalType": "address",
          "name": "spender",
          "type": "address"
        },
        {
          "internalType": "uint256",
          "name": "subtractedValue",
          "type": "uint256"
        }
      ],
      "name": "decreaseAllowance",
      "outputs": [
        {
          "internalType": "bool",
          "name": "",
          "type": "bool"
        }
      ],
      "stateMutability": "nonpayable",
      "type": "function"
    },
    {
      "inputs": [],
      "name": "exchange",
      "outputs": [
        {
          "internalType": "contract Exchange",
          "name": "",
          "type": "address"
        }
      ],
      "stateMutability": "view",
      "type": "function"
    },
    {
      "inputs": [],
      "name": "funding",
      "outputs": [
        {
          "internalType": "contract ERC20",
          "name": "",
          "type": "address"
        }
      ],
      "stateMutability": "view",
      "type": "function"
    },
    {
      "inputs": [],
      "name": "fundingDecimals",
      "outputs": [
        {
          "internalType": "uint256",
          "name": "",
          "type": "uint256"
        }
      ],
      "stateMutability": "view",
      "type": "function"
    },
    {
      "inputs": [],
      "name": "fundingMultiplier",
      "outputs": [
        {
          "internalType": "uint256",
          "name": "",
          "type": "uint256"
        }
      ],
      "stateMutability": "view",
      "type": "function"
    },
    {
      "inputs": [
        {
          "internalType": "address",
          "name": "spender",
          "type": "address"
        },
        {
          "internalType": "uint256",
          "name": "addedValue",
          "type": "uint256"
        }
      ],
      "name": "increaseAllowance",
      "outputs": [
        {
          "internalType": "bool",
          "name": "",
          "type": "bool"
        }
      ],
      "stateMutability": "nonpayable",
      "type": "function"
    },
    {
      "inputs": [],
      "name": "liquidating",
      "outputs": [
        {
          "internalType": "bool",
          "name": "",
          "type": "bool"
        }
      ],
      "stateMutability": "view",
      "type": "function"
    },
    {
      "inputs": [],
      "name": "margin",
      "outputs": [
        {
          "internalType": "uint256",
          "name": "",
          "type": "uint256"
        }
      ],
      "stateMutability": "view",
      "type": "function"
    },
    {
      "inputs": [],
      "name": "market",
      "outputs": [
        {
          "internalType": "contract MarketMaker",
          "name": "",
          "type": "address"
        }
      ],
      "stateMutability": "view",
      "type": "function"
    },
    {
      "inputs": [],
      "name": "name",
      "outputs": [
        {
          "internalType": "string",
          "name": "",
          "type": "string"
        }
      ],
      "stateMutability": "view",
      "type": "function"
    },
    {
      "inputs": [],
      "name": "notional",
      "outputs": [
        {
          "internalType": "uint256",
          "name": "",
          "type": "uint256"
        }
      ],
      "stateMutability": "view",
      "type": "function"
    },
    {
      "inputs": [],
      "name": "optionEffective",
      "outputs": [
        {
          "internalType": "uint256",
          "name": "",
          "type": "uint256"
        }
      ],
      "stateMutability": "view",
      "type": "function"
    },
    {
      "inputs": [],
      "name": "optionId",
      "outputs": [
        {
          "internalType": "uint256",
          "name": "",
          "type": "uint256"
        }
      ],
      "stateMutability": "view",
      "type": "function"
    },
    {
      "inputs": [],
      "name": "optionPayment",
      "outputs": [
        {
          "internalType": "enum OptionLib.PaymentMethod",
          "name": "",
          "type": "uint8"
        }
      ],
      "stateMutability": "view",
      "type": "function"
    },
    {
      "inputs": [],
      "name": "optionSide",
      "outputs": [
        {
          "internalType": "enum OptionLib.OptionSide",
          "name": "",
          "type": "uint8"
        }
      ],
      "stateMutability": "view",
      "type": "function"
    },
    {
      "inputs": [],
      "name": "optionStrike",
      "outputs": [
        {
          "internalType": "uint256",
          "name": "",
          "type": "uint256"
        }
      ],
      "stateMutability": "view",
      "type": "function"
    },
    {
      "inputs": [],
      "name": "oracle",
      "outputs": [
        {
          "internalType": "contract VolatilityChain",
          "name": "",
          "type": "address"
        }
      ],
      "stateMutability": "view",
      "type": "function"
    },
    {
      "inputs": [],
      "name": "owner",
      "outputs": [
        {
          "internalType": "address",
          "name": "",
          "type": "address"
        }
      ],
      "stateMutability": "view",
      "type": "function"
    },
    {
      "inputs": [],
      "name": "params",
      "outputs": [
        {
          "internalType": "bool",
          "name": "long",
          "type": "bool"
        },
        {
          "internalType": "uint256",
          "name": "itm",
          "type": "uint256"
        },
        {
          "internalType": "uint256",
          "name": "itm2",
          "type": "uint256"
        },
        {
          "internalType": "uint256",
          "name": "leverage",
          "type": "uint256"
        },
        {
          "internalType": "uint256",
          "name": "criticalLev",
          "type": "uint256"
        },
        {
          "internalType": "uint256",
          "name": "penalty",
          "type": "uint256"
        },
        {
          "internalType": "uint256",
          "name": "tenor",
          "type": "uint256"
        }
      ],
      "stateMutability": "view",
      "type": "function"
    },
    {
      "inputs": [],
      "name": "pool",
      "outputs": [
        {
          "internalType": "contract Pool",
          "name": "",
          "type": "address"
        }
      ],
      "stateMutability": "view",
      "type": "function"
    },
    {
      "inputs": [],
      "name": "renounceOwnership",
      "outputs": [],
      "stateMutability": "nonpayable",
      "type": "function"
    },
    {
      "inputs": [],
      "name": "symbol",
      "outputs": [
        {
          "internalType": "string",
          "name": "",
          "type": "string"
        }
      ],
      "stateMutability": "view",
      "type": "function"
    },
    {
      "inputs": [],
      "name": "totalSupply",
      "outputs": [
        {
          "internalType": "uint256",
          "name": "",
          "type": "uint256"
        }
      ],
      "stateMutability": "view",
      "type": "function"
    },
    {
      "inputs": [
        {
          "internalType": "address",
          "name": "to",
          "type": "address"
        },
        {
          "internalType": "uint256",
          "name": "amount",
          "type": "uint256"
        }
      ],
      "name": "transfer",
      "outputs": [
        {
          "internalType": "bool",
          "name": "",
          "type": "bool"
        }
      ],
      "stateMutability": "nonpayable",
      "type": "function"
    },
    {
      "inputs": [
        {
          "internalType": "address",
          "name": "from",
          "type": "address"
        },
        {
          "internalType": "address",
          "name": "to",
          "type": "address"
        },
        {
          "internalType": "uint256",
          "name": "amount",
          "type": "uint256"
        }
      ],
      "name": "transferFrom",
      "outputs": [
        {
          "internalType": "bool",
          "name": "",
          "type": "bool"
        }
      ],
      "stateMutability": "nonpayable",
      "type": "function"
    },
    {
      "inputs": [
        {
          "internalType": "address",
          "name": "newOwner",
          "type": "address"
        }
      ],
      "name": "transferOwnership",
      "outputs": [],
      "stateMutability": "nonpayable",
      "type": "function"
    },
    {
      "inputs": [],
      "name": "vault",
      "outputs": [
        {
          "internalType": "contract OptionVault",
          "name": "",
          "type": "address"
        }
      ],
      "stateMutability": "view",
      "type": "function"
    },
    {
      "inputs": [
        {
          "internalType": "uint256",
          "name": "_investment",
          "type": "uint256"
        }
      ],
      "name": "invest",
      "outputs": [],
      "stateMutability": "nonpayable",
      "type": "function"
    },
    {
      "inputs": [
        {
          "internalType": "uint256",
          "name": "_divestment",
          "type": "uint256"
        }
      ],
      "name": "divest",
      "outputs": [],
      "stateMutability": "nonpayable",
      "type": "function"
    },
    {
      "inputs": [],
      "name": "rebalance",
      "outputs": [],
      "stateMutability": "nonpayable",
      "type": "function"
    },
    {
      "inputs": [],
      "name": "createOption",
      "outputs": [],
      "stateMutability": "nonpayable",
      "type": "function"
    },
    {
      "inputs": [],
      "name": "getCurrentLeverage",
      "outputs": [
        {
          "internalType": "uint256",
          "name": "_leverage",
          "type": "uint256"
        }
      ],
      "stateMutability": "view",
      "type": "function"
    },
    {
      "inputs": [],
      "name": "getPV",
      "outputs": [
        {
          "internalType": "uint256",
          "name": "",
          "type": "uint256"
        }
      ],
      "stateMutability": "view",
      "type": "function"
    },
    {
      "inputs": [
        {
          "internalType": "bool",
          "name": "_liquidating",
          "type": "bool"
        }
      ],
      "name": "setLiquidation",
      "outputs": [],
      "stateMutability": "nonpayable",
      "type": "function"
    }
  ],
  "bytecode": "0x6101c0604052600060018111156200001c576200001b620007da565b5b6080906001811115620000345762000033620007da565b5b815250600060028111156200004e576200004d620007da565b5b60a0906002811115620000665762000065620007da565b5b8152506000601360006101000a81548160ff0219169083151502179055503480156200009157600080fd5b5060405162006607380380620066078339818101604052810190620000b7919062000b45565b82828160039081620000ca919062000e37565b508060049081620000dc919062000e37565b505050620000ff620000f36200070c60201b60201c565b6200071460201b60201c565b6001600681905550600073ffffffffffffffffffffffffffffffffffffffff168473ffffffffffffffffffffffffffffffffffffffff160362000179576040517f08c379a0000000000000000000000000000000000000000000000000000000008152600401620001709062000f7f565b60405180910390fd5b8373ffffffffffffffffffffffffffffffffffffffff166101808173ffffffffffffffffffffffffffffffffffffffff16815250506101805173ffffffffffffffffffffffffffffffffffffffff1663d2f7265a6040518163ffffffff1660e01b8152600401602060405180830381865afa158015620001fd573d6000803e3d6000fd5b505050506040513d601f19601f8201168201806040525081019062000223919062000fa1565b73ffffffffffffffffffffffffffffffffffffffff1660e08173ffffffffffffffffffffffffffffffffffffffff168152505060e05173ffffffffffffffffffffffffffffffffffffffff1663fbfa77cf6040518163ffffffff1660e01b8152600401602060405180830381865afa158015620002a4573d6000803e3d6000fd5b505050506040513d601f19601f82011682018060405250810190620002ca919062001018565b73ffffffffffffffffffffffffffffffffffffffff166101008173ffffffffffffffffffffffffffffffffffffffff16815250506101805173ffffffffffffffffffffffffffffffffffffffff16631f21f9af6040518163ffffffff1660e01b8152600401602060405180830381865afa1580156200034d573d6000803e3d6000fd5b505050506040513d601f19601f820116820180604052508101906200037391906200108f565b73ffffffffffffffffffffffffffffffffffffffff166101a08173ffffffffffffffffffffffffffffffffffffffff16815250506101a05173ffffffffffffffffffffffffffffffffffffffff1663c0a16f6a6040518163ffffffff1660e01b8152600401602060405180830381865afa158015620003f6573d6000803e3d6000fd5b505050506040513d601f19601f820116820180604052508101906200041c919062001106565b73ffffffffffffffffffffffffffffffffffffffff1660c08173ffffffffffffffffffffffffffffffffffffffff16815250506101a05173ffffffffffffffffffffffffffffffffffffffff1663cb4c86b76040518163ffffffff1660e01b8152600401602060405180830381865afa1580156200049e573d6000803e3d6000fd5b505050506040513d601f19601f82011682018060405250810190620004c4919062000fa1565b73ffffffffffffffffffffffffffffffffffffffff166101208173ffffffffffffffffffffffffffffffffffffffff16815250506101205173ffffffffffffffffffffffffffffffffffffffff16633950935160e0517fffffffffffffffffffffffffffffffffffffffffffffffffffffffffffffffff6040518363ffffffff1660e01b81526004016200055a9291906200118c565b6020604051808303816000875af11580156200057a573d6000803e3d6000fd5b505050506040513d601f19601f82011682018060405250810190620005a09190620011b9565b506101205173ffffffffffffffffffffffffffffffffffffffff1663313ce5676040518163ffffffff1660e01b8152600401602060405180830381865afa158015620005f0573d6000803e3d6000fd5b505050506040513d601f19601f8201168201806040525081019062000616919062001229565b60ff16610140818152505061014051600a620006339190620013de565b610160818152505042600a81905550600081602001511180156200065e575080602001518160400151115b620006a0576040517f08c379a000000000000000000000000000000000000000000000000000000000815260040162000697906200147f565b60405180910390fd5b80600c60008201518160000160006101000a81548160ff0219169083151502179055506020820151816001015560408201518160020155606082015181600301556080820151816004015560a0820151816005015560c0820151816006015590505050505050620014a1565b600033905090565b6000600560009054906101000a900473ffffffffffffffffffffffffffffffffffffffff16905081600560006101000a81548173ffffffffffffffffffffffffffffffffffffffff021916908373ffffffffffffffffffffffffffffffffffffffff1602179055508173ffffffffffffffffffffffffffffffffffffffff168173ffffffffffffffffffffffffffffffffffffffff167f8be0079c531659141344cd1fd0a4f28419497f9722a3daafe3b4186f6b6457e060405160405180910390a35050565b7f4e487b7100000000000000000000000000000000000000000000000000000000600052602160045260246000fd5b6000604051905090565b600080fd5b600080fd5b600073ffffffffffffffffffffffffffffffffffffffff82169050919050565b60006200084a826200081d565b9050919050565b6200085c816200083d565b81146200086857600080fd5b50565b6000815190506200087c8162000851565b92915050565b600080fd5b600080fd5b6000601f19601f8301169050919050565b7f4e487b7100000000000000000000000000000000000000000000000000000000600052604160045260246000fd5b620008d7826200088c565b810181811067ffffffffffffffff82111715620008f957620008f86200089d565b5b80604052505050565b60006200090e62000809565b90506200091c8282620008cc565b919050565b600067ffffffffffffffff8211156200093f576200093e6200089d565b5b6200094a826200088c565b9050602081019050919050565b60005b83811015620009775780820151818401526020810190506200095a565b60008484015250505050565b60006200099a620009948462000921565b62000902565b905082815260208101848484011115620009b957620009b862000887565b5b620009c684828562000957565b509392505050565b600082601f830112620009e657620009e562000882565b5b8151620009f884826020860162000983565b91505092915050565b600080fd5b60008115159050919050565b62000a1d8162000a06565b811462000a2957600080fd5b50565b60008151905062000a3d8162000a12565b92915050565b6000819050919050565b62000a588162000a43565b811462000a6457600080fd5b50565b60008151905062000a788162000a4d565b92915050565b600060e0828403121562000a975762000a9662000a01565b5b62000aa360e062000902565b9050600062000ab58482850162000a2c565b600083015250602062000acb8482850162000a67565b602083015250604062000ae18482850162000a67565b604083015250606062000af78482850162000a67565b606083015250608062000b0d8482850162000a67565b60808301525060a062000b238482850162000a67565b60a08301525060c062000b398482850162000a67565b60c08301525092915050565b600080600080610140858703121562000b635762000b6262000813565b5b600062000b73878288016200086b565b945050602085015167ffffffffffffffff81111562000b975762000b9662000818565b5b62000ba587828801620009ce565b935050604085015167ffffffffffffffff81111562000bc95762000bc862000818565b5b62000bd787828801620009ce565b925050606062000bea8782880162000a7e565b91505092959194509250565b600081519050919050565b7f4e487b7100000000000000000000000000000000000000000000000000000000600052602260045260246000fd5b6000600282049050600182168062000c4957607f821691505b60208210810362000c5f5762000c5e62000c01565b5b50919050565b60008190508160005260206000209050919050565b60006020601f8301049050919050565b600082821b905092915050565b60006008830262000cc97fffffffffffffffffffffffffffffffffffffffffffffffffffffffffffffffff8262000c8a565b62000cd5868362000c8a565b95508019841693508086168417925050509392505050565b6000819050919050565b600062000d1862000d1262000d0c8462000a43565b62000ced565b62000a43565b9050919050565b6000819050919050565b62000d348362000cf7565b62000d4c62000d438262000d1f565b84845462000c97565b825550505050565b600090565b62000d6362000d54565b62000d7081848462000d29565b505050565b5b8181101562000d985762000d8c60008262000d59565b60018101905062000d76565b5050565b601f82111562000de75762000db18162000c65565b62000dbc8462000c7a565b8101602085101562000dcc578190505b62000de462000ddb8562000c7a565b83018262000d75565b50505b505050565b600082821c905092915050565b600062000e0c6000198460080262000dec565b1980831691505092915050565b600062000e27838362000df9565b9150826002028217905092915050565b62000e428262000bf6565b67ffffffffffffffff81111562000e5e5762000e5d6200089d565b5b62000e6a825462000c30565b62000e7782828562000d9c565b600060209050601f83116001811462000eaf576000841562000e9a578287015190505b62000ea6858262000e19565b86555062000f16565b601f19841662000ebf8662000c65565b60005b8281101562000ee95784890151825560018201915060208501945060208101905062000ec2565b8683101562000f09578489015162000f05601f89168262000df9565b8355505b6001600288020188555050505b505050505050565b600082825260208201905092915050565b7f6e756c6c20706f6f6c2061646472657373000000000000000000000000000000600082015250565b600062000f6760118362000f1e565b915062000f748262000f2f565b602082019050919050565b6000602082019050818103600083015262000f9a8162000f58565b9050919050565b60006020828403121562000fba5762000fb962000813565b5b600062000fca848285016200086b565b91505092915050565b600062000fe0826200083d565b9050919050565b62000ff28162000fd3565b811462000ffe57600080fd5b50565b600081519050620010128162000fe7565b92915050565b60006020828403121562001031576200103062000813565b5b6000620010418482850162001001565b91505092915050565b600062001057826200083d565b9050919050565b62001069816200104a565b81146200107557600080fd5b50565b60008151905062001089816200105e565b92915050565b600060208284031215620010a857620010a762000813565b5b6000620010b88482850162001078565b91505092915050565b6000620010ce826200083d565b9050919050565b620010e081620010c1565b8114620010ec57600080fd5b50565b6000815190506200110081620010d5565b92915050565b6000602082840312156200111f576200111e62000813565b5b60006200112f84828501620010ef565b91505092915050565b62001143816200083d565b82525050565b6000819050919050565b6000620011746200116e620011688462001149565b62000ced565b62000a43565b9050919050565b620011868162001153565b82525050565b6000604082019050620011a3600083018562001138565b620011b260208301846200117b565b9392505050565b600060208284031215620011d257620011d162000813565b5b6000620011e28482850162000a2c565b91505092915050565b600060ff82169050919050565b6200120381620011eb565b81146200120f57600080fd5b50565b6000815190506200122381620011f8565b92915050565b60006020828403121562001242576200124162000813565b5b6000620012528482850162001212565b91505092915050565b7f4e487b7100000000000000000000000000000000000000000000000000000000600052601160045260246000fd5b60008160011c9050919050565b6000808291508390505b6001851115620012e957808604811115620012c157620012c06200125b565b5b6001851615620012d15780820291505b8081029050620012e1856200128a565b9450620012a1565b94509492505050565b600082620013045760019050620013d7565b81620013145760009050620013d7565b81600181146200132d576002811462001338576200136e565b6001915050620013d7565b60ff8411156200134d576200134c6200125b565b5b8360020a9150848211156200136757620013666200125b565b5b50620013d7565b5060208310610133831016604e8410600b8410161715620013a85782820a905083811115620013a257620013a16200125b565b5b620013d7565b620013b7848484600162001297565b92509050818404811115620013d157620013d06200125b565b5b81810290505b9392505050565b6000620013eb8262000a43565b9150620013f88362000a43565b9250620014277fffffffffffffffffffffffffffffffffffffffffffffffffffffffffffffffff8484620012f2565b905092915050565b7f6572726f72207065727020706172616d73000000000000000000000000000000600082015250565b60006200146760118362000f1e565b915062001474826200142f565b602082019050919050565b600060208201905081810360008301526200149a8162001458565b9050919050565b60805160a05160c05160e05161010051610120516101405161016051610180516101a05161501f620015e860003960006117670152600081816107a20152818161212c0152818161235d01528181612508015261260d015260006107d0015260008181610afc0152610caf0152600081816108ff015281816109f7015281816111ec015281816114680152818161161f0152818161194801528181611b1801528181611da9015261272d015260008181610cd60152818161114c015281816125d10152612942015260008181610870015281816113d9015281816118b9015281816120f001528181612321015281816124cc0152612794015260008181610dcd01528181610e7e015281816117430152611e870152600081816112b3015261255901526000818161215c0152818161238d015281816125380152612709015261501f6000f3fe608060405234801561001057600080fd5b50600436106102325760003560e01c8063836a559a11610130578063c8144107116100b8578063d31062b91161007c578063d31062b914610645578063dd62ed3e14610663578063f2fde38b14610693578063f855c2b2146106af578063fbfa77cf146106cd57610232565b8063c8144107146105a9578063cb4c86b7146105c7578063cf1a9b7a146105e5578063cff0ab9614610603578063d2f7265a1461062757610232565b806395d89b41116100ff57806395d89b4114610503578063a457c2d714610521578063a9059cbb14610551578063ad27179614610581578063c49eefa11461059f57610232565b8063836a559a1461048f5780638ca17995146104ab5780638da5cb5b146104c75780638f76691a146104e557610232565b806339509351116101be57806370a082311161018257806370a082311461040f578063715018a61461043f5780637d7c2a1c146104495780637dc0d1d01461045357806380f556051461047157610232565b806339509351146103675780634094fb62146103975780635bfb92ce146103b5578063622e8a27146103d357806369bbf1ac146103f157610232565b8063205a785a11610205578063205a785a146102c157806323b872dd146102df5780632afcf4801461030f578063313ce5671461032b578063334b3e481461034957610232565b806306fdde0314610237578063095ea7b31461025557806316f0115b1461028557806318160ddd146102a3575b600080fd5b61023f6106eb565b60405161024c919061333b565b60405180910390f35b61026f600480360381019061026a9190613405565b61077d565b60405161027c9190613460565b60405180910390f35b61028d6107a0565b60405161029a91906134da565b60405180910390f35b6102ab6107c4565b6040516102b89190613504565b60405180910390f35b6102c96107ce565b6040516102d69190613504565b60405180910390f35b6102f960048036038101906102f4919061351f565b6107f2565b6040516103069190613460565b60405180910390f35b61032960048036038101906103249190613572565b610821565b005b610333610c5a565b60405161034091906135bb565b60405180910390f35b610351610c63565b60405161035e9190613460565b60405180910390f35b610381600480360381019061037c9190613405565b610c76565b60405161038e9190613460565b60405180910390f35b61039f610cad565b6040516103ac9190613504565b60405180910390f35b6103bd610cd1565b6040516103ca9190613504565b60405180910390f35b6103db611147565b6040516103e89190613504565b60405180910390f35b6103f96112b1565b604051610406919061364d565b60405180910390f35b61042960048036038101906104249190613668565b6112d5565b6040516104369190613504565b60405180910390f35b61044761131d565b005b6104516113a5565b005b61045b611741565b60405161046891906136b6565b60405180910390f35b610479611765565b60405161048691906136f2565b60405180910390f35b6104a960048036038101906104a49190613739565b611789565b005b6104c560048036038101906104c09190613572565b61186a565b005b6104cf611c45565b6040516104dc9190613775565b60405180910390f35b6104ed611c6f565b6040516104fa9190613504565b60405180910390f35b61050b611c75565b604051610518919061333b565b60405180910390f35b61053b60048036038101906105369190613405565b611d07565b6040516105489190613460565b60405180910390f35b61056b60048036038101906105669190613405565b611d7e565b6040516105789190613460565b60405180910390f35b610589611da1565b6040516105969190613504565b60405180910390f35b6105a7611da7565b005b6105b1612707565b6040516105be91906137d8565b60405180910390f35b6105cf61272b565b6040516105dc9190613814565b60405180910390f35b6105ed61274f565b6040516105fa9190613504565b60405180910390f35b61060b612755565b60405161061e979695949392919061382f565b60405180910390f35b61062f612792565b60405161063c91906138bf565b60405180910390f35b61064d6127b6565b60405161065a9190613504565b60405180910390f35b61067d600480360381019061067891906138da565b6127bc565b60405161068a9190613504565b60405180910390f35b6106ad60048036038101906106a89190613668565b612843565b005b6106b761293a565b6040516106c49190613504565b60405180910390f35b6106d5612940565b6040516106e2919061393b565b60405180910390f35b6060600380546106fa90613985565b80601f016020809104026020016040519081016040528092919081815260200182805461072690613985565b80156107735780601f1061074857610100808354040283529160200191610773565b820191906000526020600020905b81548152906001019060200180831161075657829003601f168201915b5050505050905090565b600080610788612964565b905061079581858561296c565b600191505092915050565b7f000000000000000000000000000000000000000000000000000000000000000081565b6000600254905090565b7f000000000000000000000000000000000000000000000000000000000000000081565b6000806107fd612964565b905061080a858285612b35565b610815858585612bc1565b60019150509392505050565b600260065403610866576040517f08c379a000000000000000000000000000000000000000000000000000000000815260040161085d90613a02565b60405180910390fd5b60026006819055507f000000000000000000000000000000000000000000000000000000000000000073ffffffffffffffffffffffffffffffffffffffff16631df9fa816009546040518263ffffffff1660e01b81526004016108c99190613504565b600060405180830381600087803b1580156108e357600080fd5b505af11580156108f7573d6000803e3d6000fd5b5050505060007f000000000000000000000000000000000000000000000000000000000000000073ffffffffffffffffffffffffffffffffffffffff166370a08231306040518263ffffffff1660e01b81526004016109569190613775565b602060405180830381865afa158015610973573d6000803e3d6000fd5b505050506040513d601f19601f820116820180604052508101906109979190613a37565b905060006109a36107c4565b90506000811180156109b55750600082145b156109f5576040517f08c379a00000000000000000000000000000000000000000000000000000000081526004016109ec90613ab0565b60405180910390fd5b7f000000000000000000000000000000000000000000000000000000000000000073ffffffffffffffffffffffffffffffffffffffff166323b872dd3330866040518463ffffffff1660e01b8152600401610a5293929190613ad0565b6020604051808303816000875af1158015610a71573d6000803e3d6000fd5b505050506040513d601f19601f82011682018060405250810190610a959190613b1c565b610ad4576040517f08c379a0000000000000000000000000000000000000000000000000000000008152600401610acb90613b95565b60405180910390fd5b6000808311610b7e578373__MarketLib_____________________________63ed1bb19990917f00000000000000000000000000000000000000000000000000000000000000006040518363ffffffff1660e01b8152600401610b38929190613bc4565b602060405180830381865af4158015610b55573d6000803e3d6000fd5b505050506040513d601f19601f82011682018060405250810190610b799190613a37565b610bfd565b8173__MathLib_______________________________63b3947c17909186866040518463ffffffff1660e01b8152600401610bbb93929190613bed565b602060405180830381865af4158015610bd8573d6000803e3d6000fd5b505050506040513d601f19601f82011682018060405250810190610bfc9190613a37565b5b9050610c093382612e40565b610c11611da7565b7f2bfea785f216464b44117a0f6fed3cff976925d2dd3e89dec252213768471f9b338286604051610c4493929190613c24565b60405180910390a1505050600160068190555050565b60006012905090565b601360009054906101000a900460ff1681565b600080610c81612964565b9050610ca2818585610c9385896127bc565b610c9d9190613c8a565b61296c565b600191505092915050565b7f000000000000000000000000000000000000000000000000000000000000000081565b6000807f000000000000000000000000000000000000000000000000000000000000000073ffffffffffffffffffffffffffffffffffffffff16631ce5e9a66009546040518263ffffffff1660e01b8152600401610d2f9190613504565b61028060405180830381865afa158015610d4d573d6000803e3d6000fd5b505050506040513d601f19601f82011682018060405250810190610d719190613fca565b905060016003811115610d8757610d866135d6565b5b81604001516003811115610d9e57610d9d6135d6565b5b148015610daf575042816101000151115b1561114357600042826101000151610dc79190613ff8565b905060007f000000000000000000000000000000000000000000000000000000000000000073ffffffffffffffffffffffffffffffffffffffff1663b0667cf86040518163ffffffff1660e01b8152600401602060405180830381865afa158015610e36573d6000803e3d6000fd5b505050506040513d601f19601f82011682018060405250810190610e5a9190613a37565b905060008373__OptionLib_____________________________63bbf7830e9091847f000000000000000000000000000000000000000000000000000000000000000073ffffffffffffffffffffffffffffffffffffffff1663cfc2dc20886040518263ffffffff1660e01b8152600401610ed59190613504565b602060405180830381865afa158015610ef2573d6000803e3d6000fd5b505050506040513d601f19601f82011682018060405250810190610f169190613a37565b6040518463ffffffff1660e01b8152600401610f3493929190614296565b602060405180830381865af4158015610f51573d6000803e3d6000fd5b505050506040513d601f19601f82011682018060405250810190610f7591906142d0565b905060008112158015610f975750600c60000160009054906101000a900460ff165b80610fbf575060008113158015610fbe5750600c60000160009054906101000a900460ff16155b5b610ffe576040517f08c379a0000000000000000000000000000000000000000000000000000000008152600401610ff590614349565b60405180910390fd5b6000611008611147565b9050600c60000160009054906101000a900460ff166110b5576110338261102e90614369565b612f9f565b73__MathLib_______________________________63b3947c17909185846040518463ffffffff1660e01b815260040161106f93929190613bed565b602060405180830381865af415801561108c573d6000803e3d6000fd5b505050506040513d601f19601f820116820180604052508101906110b09190613a37565b61113c565b6110be82612f9f565b73__MathLib_______________________________63b3947c17909185846040518463ffffffff1660e01b81526004016110fa93929190613bed565b602060405180830381865af4158015611117573d6000803e3d6000fd5b505050506040513d601f19601f8201168201806040525081019061113b9190613a37565b5b9550505050505b5090565b6000807f000000000000000000000000000000000000000000000000000000000000000073ffffffffffffffffffffffffffffffffffffffff1663350807056009546040518263ffffffff1660e01b81526004016111a59190613504565b6040805180830381865afa1580156111c1573d6000803e3d6000fd5b505050506040513d601f19601f820116820180604052508101906111e591906143b1565b50905060007f000000000000000000000000000000000000000000000000000000000000000073ffffffffffffffffffffffffffffffffffffffff1673__MarketLib_____________________________63983d3bb89091306040518363ffffffff1660e01b815260040161125b92919061440f565b602060405180830381865af4158015611278573d6000803e3d6000fd5b505050506040513d601f19601f8201168201806040525081019061129c9190613a37565b905080826112aa9190613c8a565b9250505090565b7f000000000000000000000000000000000000000000000000000000000000000081565b60008060008373ffffffffffffffffffffffffffffffffffffffff1673ffffffffffffffffffffffffffffffffffffffff168152602001908152602001600020549050919050565b611325612964565b73ffffffffffffffffffffffffffffffffffffffff16611343611c45565b73ffffffffffffffffffffffffffffffffffffffff1614611399576040517f08c379a000000000000000000000000000000000000000000000000000000000815260040161139090614484565b60405180910390fd5b6113a36000612fec565b565b60006113af610cd1565b9050600c60040154811080156113d25750601360009054906101000a900460ff16155b1561173e577f000000000000000000000000000000000000000000000000000000000000000073ffffffffffffffffffffffffffffffffffffffff16631df9fa816009546040518263ffffffff1660e01b81526004016114329190613504565b600060405180830381600087803b15801561144c57600080fd5b505af1158015611460573d6000803e3d6000fd5b5050505060007f000000000000000000000000000000000000000000000000000000000000000073ffffffffffffffffffffffffffffffffffffffff166370a08231306040518263ffffffff1660e01b81526004016114bf9190613775565b602060405180830381865afa1580156114dc573d6000803e3d6000fd5b505050506040513d601f19601f820116820180604052508101906115009190613a37565b905060008173__MathLib_______________________________63b3947c17909161152d42600a546130b2565b426115389190613ff8565b620151806040518463ffffffff1660e01b815260040161155a93929190613bed565b602060405180830381865af4158015611577573d6000803e3d6000fd5b505050506040513d601f19601f8201168201806040525081019061159b9190613a37565b73__MathLib_______________________________63fed4a0f39091600c600501546040518363ffffffff1660e01b81526004016115da929190613bc4565b602060405180830381865af41580156115f7573d6000803e3d6000fd5b505050506040513d601f19601f8201168201806040525081019061161b9190613a37565b90507f000000000000000000000000000000000000000000000000000000000000000073ffffffffffffffffffffffffffffffffffffffff1663a9059cbb33836040518363ffffffff1660e01b81526004016116789291906144a4565b6020604051808303816000875af1158015611697573d6000803e3d6000fd5b505050506040513d601f19601f820116820180604052508101906116bb9190613b1c565b6116fa576040517f08c379a00000000000000000000000000000000000000000000000000000000081526004016116f190614519565b60405180910390fd5b611702611da7565b7f518884de66df7cf12aa505ef63bdf44e014173c861d2f19f35d1cc5c37a63db98333604051611733929190614539565b60405180910390a150505b50565b7f000000000000000000000000000000000000000000000000000000000000000081565b7f000000000000000000000000000000000000000000000000000000000000000081565b611791612964565b73ffffffffffffffffffffffffffffffffffffffff166117af611c45565b73ffffffffffffffffffffffffffffffffffffffff1614611805576040517f08c379a00000000000000000000000000000000000000000000000000000000081526004016117fc90614484565b60405180910390fd5b80601360006101000a81548160ff0219169083151502179055507f94a96596071183e5a0c91da2bf971df299c6ff75c5c6a5fd143d3be24bd01e56601360009054906101000a900460ff163360405161185f929190614562565b60405180910390a150565b6002600654036118af576040517f08c379a00000000000000000000000000000000000000000000000000000000081526004016118a690613a02565b60405180910390fd5b60026006819055507f000000000000000000000000000000000000000000000000000000000000000073ffffffffffffffffffffffffffffffffffffffff16631df9fa816009546040518263ffffffff1660e01b81526004016119129190613504565b600060405180830381600087803b15801561192c57600080fd5b505af1158015611940573d6000803e3d6000fd5b5050505060007f000000000000000000000000000000000000000000000000000000000000000073ffffffffffffffffffffffffffffffffffffffff166370a08231306040518263ffffffff1660e01b815260040161199f9190613775565b602060405180830381865afa1580156119bc573d6000803e3d6000fd5b505050506040513d601f19601f820116820180604052508101906119e09190613a37565b905060006119ec6107c4565b90506000611a886119fc336112d5565b8373__MathLib_______________________________63b3947c17909188886040518463ffffffff1660e01b8152600401611a3993929190613bed565b602060405180830381865af4158015611a56573d6000803e3d6000fd5b505050506040513d601f19601f82011682018060405250810190611a7a9190613a37565b6130b290919063ffffffff16565b9050611a9433826130cb565b60008373__MathLib_______________________________63b3947c17909184866040518463ffffffff1660e01b8152600401611ad393929190613bed565b602060405180830381865af4158015611af0573d6000803e3d6000fd5b505050506040513d601f19601f82011682018060405250810190611b149190613a37565b90507f000000000000000000000000000000000000000000000000000000000000000073ffffffffffffffffffffffffffffffffffffffff1663a9059cbb33836040518363ffffffff1660e01b8152600401611b719291906144a4565b6020604051808303816000875af1158015611b90573d6000803e3d6000fd5b505050506040513d601f19601f82011682018060405250810190611bb49190613b1c565b611bf3576040517f08c379a0000000000000000000000000000000000000000000000000000000008152600401611bea906145d7565b60405180910390fd5b611bfb611da7565b7f82ac6489807d2766b0b035528d370ccb3a1ee573548fef389f4bfda722ca1c11338383604051611c2e93929190613c24565b60405180910390a150505050600160068190555050565b6000600560009054906101000a900473ffffffffffffffffffffffffffffffffffffffff16905090565b60085481565b606060048054611c8490613985565b80601f0160208091040260200160405190810160405280929190818152602001828054611cb090613985565b8015611cfd5780601f10611cd257610100808354040283529160200191611cfd565b820191906000526020600020905b815481529060010190602001808311611ce057829003601f168201915b5050505050905090565b600080611d12612964565b90506000611d2082866127bc565b905083811015611d65576040517f08c379a0000000000000000000000000000000000000000000000000000000008152600401611d5c90614669565b60405180910390fd5b611d72828686840361296c565b60019250505092915050565b600080611d89612964565b9050611d96818585612bc1565b600191505092915050565b60095481565b7f000000000000000000000000000000000000000000000000000000000000000073ffffffffffffffffffffffffffffffffffffffff1673__MarketLib_____________________________63983d3bb89091306040518363ffffffff1660e01b8152600401611e1892919061440f565b602060405180830381865af4158015611e35573d6000803e3d6000fd5b505050506040513d601f19601f82011682018060405250810190611e599190613a37565b6008819055506000600854118015611e7e5750601360009054906101000a900460ff16155b156127055760007f000000000000000000000000000000000000000000000000000000000000000073ffffffffffffffffffffffffffffffffffffffff1663b0667cf86040518163ffffffff1660e01b8152600401602060405180830381865afa158015611ef0573d6000803e3d6000fd5b505050506040513d601f19601f82011682018060405250810190611f149190613a37565b905060085473__MathLib_______________________________63b3947c179091600c60030154846040518463ffffffff1660e01b8152600401611f5a93929190613bed565b602060405180830381865af4158015611f77573d6000803e3d6000fd5b505050506040513d601f19601f82011682018060405250810190611f9b9190613a37565b600781905550600c60000160009054906101000a900460ff1661203e578073__MathLib_______________________________63de7f61709091600c600101546040518363ffffffff1660e01b8152600401611ff8929190613bc4565b602060405180830381865af4158015612015573d6000803e3d6000fd5b505050506040513d601f19601f820116820180604052508101906120399190613a37565b6120c0565b8073__MathLib_______________________________63fed4a0f39091600c600101546040518363ffffffff1660e01b815260040161207e929190613bc4565b602060405180830381865af415801561209b573d6000803e3d6000fd5b505050506040513d601f19601f820116820180604052508101906120bf9190613a37565b5b600b819055506000600c60000160009054906101000a900460ff166120e65760016120e9565b60005b90506000807f000000000000000000000000000000000000000000000000000000000000000073ffffffffffffffffffffffffffffffffffffffff1663b3c5a1017f0000000000000000000000000000000000000000000000000000000000000000600c60060154600b546000600754897f00000000000000000000000000000000000000000000000000000000000000006040518863ffffffff1660e01b815260040161219d97969594939291906146d3565b60a060405180830381865afa1580156121ba573d6000803e3d6000fd5b505050506040513d601f19601f820116820180604052508101906121de9190614742565b9450505050915060085481836121f49190613c8a565b11156124ca57600c60000160009054906101000a900460ff16612297578373__MathLib_______________________________63de7f61709091600c600201546040518363ffffffff1660e01b8152600401612251929190613bc4565b602060405180830381865af415801561226e573d6000803e3d6000fd5b505050506040513d601f19601f820116820180604052508101906122929190613a37565b612319565b8373__MathLib_______________________________63fed4a0f39091600c600201546040518363ffffffff1660e01b81526004016122d7929190613bc4565b602060405180830381865af41580156122f4573d6000803e3d6000fd5b505050506040513d601f19601f820116820180604052508101906123189190613a37565b5b600b819055507f000000000000000000000000000000000000000000000000000000000000000073ffffffffffffffffffffffffffffffffffffffff1663b3c5a1017f0000000000000000000000000000000000000000000000000000000000000000600c60060154600b546000600754897f00000000000000000000000000000000000000000000000000000000000000006040518863ffffffff1660e01b81526004016123ce97969594939291906146d3565b60a060405180830381865afa1580156123eb573d6000803e3d6000fd5b505050506040513d601f19601f8201168201806040525081019061240f9190614742565b9091925090915090508092508193505050600854818361242f9190613c8a565b11156124c95760075473__MathLib_______________________________63b3947c17909160085484866124639190613c8a565b6040518463ffffffff1660e01b815260040161248193929190613bed565b602060405180830381865af415801561249e573d6000803e3d6000fd5b505050506040513d601f19601f820116820180604052508101906124c29190613a37565b6007819055505b5b7f000000000000000000000000000000000000000000000000000000000000000073ffffffffffffffffffffffffffffffffffffffff166331d975d27f0000000000000000000000000000000000000000000000000000000000000000600c60060154600b546000600754897f00000000000000000000000000000000000000000000000000000000000000007f00000000000000000000000000000000000000000000000000000000000000006040518963ffffffff1660e01b815260040161259b9897969594939291906147bd565b600060405180830381600087803b1580156125b557600080fd5b505af11580156125c9573d6000803e3d6000fd5b5050505060007f000000000000000000000000000000000000000000000000000000000000000073ffffffffffffffffffffffffffffffffffffffff16637be795e07f0000000000000000000000000000000000000000000000000000000000000000306040518363ffffffff1660e01b815260040161264a92919061483b565b600060405180830381865afa158015612667573d6000803e3d6000fd5b505050506040513d6000823e3d601f19601f820116820180604052508101906126909190614931565b905060018151146126d6576040517f08c379a00000000000000000000000000000000000000000000000000000000081526004016126cd906149c6565b60405180910390fd5b806000815181106126ea576126e96149e6565b5b602002602001015160098190555042600a8190555050505050505b565b7f000000000000000000000000000000000000000000000000000000000000000081565b7f000000000000000000000000000000000000000000000000000000000000000081565b600a5481565b600c8060000160009054906101000a900460ff16908060010154908060020154908060030154908060040154908060050154908060060154905087565b7f000000000000000000000000000000000000000000000000000000000000000081565b600b5481565b6000600160008473ffffffffffffffffffffffffffffffffffffffff1673ffffffffffffffffffffffffffffffffffffffff16815260200190815260200160002060008373ffffffffffffffffffffffffffffffffffffffff1673ffffffffffffffffffffffffffffffffffffffff16815260200190815260200160002054905092915050565b61284b612964565b73ffffffffffffffffffffffffffffffffffffffff16612869611c45565b73ffffffffffffffffffffffffffffffffffffffff16146128bf576040517f08c379a00000000000000000000000000000000000000000000000000000000081526004016128b690614484565b60405180910390fd5b600073ffffffffffffffffffffffffffffffffffffffff168173ffffffffffffffffffffffffffffffffffffffff160361292e576040517f08c379a000000000000000000000000000000000000000000000000000000000815260040161292590614a87565b60405180910390fd5b61293781612fec565b50565b60075481565b7f000000000000000000000000000000000000000000000000000000000000000081565b600033905090565b600073ffffffffffffffffffffffffffffffffffffffff168373ffffffffffffffffffffffffffffffffffffffff16036129db576040517f08c379a00000000000000000000000000000000000000000000000000000000081526004016129d290614b19565b60405180910390fd5b600073ffffffffffffffffffffffffffffffffffffffff168273ffffffffffffffffffffffffffffffffffffffff1603612a4a576040517f08c379a0000000000000000000000000000000000000000000000000000000008152600401612a4190614bab565b60405180910390fd5b80600160008573ffffffffffffffffffffffffffffffffffffffff1673ffffffffffffffffffffffffffffffffffffffff16815260200190815260200160002060008473ffffffffffffffffffffffffffffffffffffffff1673ffffffffffffffffffffffffffffffffffffffff168152602001908152602001600020819055508173ffffffffffffffffffffffffffffffffffffffff168373ffffffffffffffffffffffffffffffffffffffff167f8c5be1e5ebec7d5bd14f71427d1e84f3dd0314c0f7b2291e5b200ac8c7c3b92583604051612b289190613504565b60405180910390a3505050565b6000612b4184846127bc565b90507fffffffffffffffffffffffffffffffffffffffffffffffffffffffffffffffff8114612bbb5781811015612bad576040517f08c379a0000000000000000000000000000000000000000000000000000000008152600401612ba490614c17565b60405180910390fd5b612bba848484840361296c565b5b50505050565b600073ffffffffffffffffffffffffffffffffffffffff168373ffffffffffffffffffffffffffffffffffffffff1603612c30576040517f08c379a0000000000000000000000000000000000000000000000000000000008152600401612c2790614ca9565b60405180910390fd5b600073ffffffffffffffffffffffffffffffffffffffff168273ffffffffffffffffffffffffffffffffffffffff1603612c9f576040517f08c379a0000000000000000000000000000000000000000000000000000000008152600401612c9690614d3b565b60405180910390fd5b612caa8383836132a1565b60008060008573ffffffffffffffffffffffffffffffffffffffff1673ffffffffffffffffffffffffffffffffffffffff16815260200190815260200160002054905081811015612d30576040517f08c379a0000000000000000000000000000000000000000000000000000000008152600401612d2790614dcd565b60405180910390fd5b8181036000808673ffffffffffffffffffffffffffffffffffffffff1673ffffffffffffffffffffffffffffffffffffffff16815260200190815260200160002081905550816000808573ffffffffffffffffffffffffffffffffffffffff1673ffffffffffffffffffffffffffffffffffffffff1681526020019081526020016000206000828254612dc39190613c8a565b925050819055508273ffffffffffffffffffffffffffffffffffffffff168473ffffffffffffffffffffffffffffffffffffffff167fddf252ad1be2c89b69c2b068fc378daa952ba7f163c4a11628f55a4df523b3ef84604051612e279190613504565b60405180910390a3612e3a8484846132a6565b50505050565b600073ffffffffffffffffffffffffffffffffffffffff168273ffffffffffffffffffffffffffffffffffffffff1603612eaf576040517f08c379a0000000000000000000000000000000000000000000000000000000008152600401612ea690614e39565b60405180910390fd5b612ebb600083836132a1565b8060026000828254612ecd9190613c8a565b92505081905550806000808473ffffffffffffffffffffffffffffffffffffffff1673ffffffffffffffffffffffffffffffffffffffff1681526020019081526020016000206000828254612f229190613c8a565b925050819055508173ffffffffffffffffffffffffffffffffffffffff16600073ffffffffffffffffffffffffffffffffffffffff167fddf252ad1be2c89b69c2b068fc378daa952ba7f163c4a11628f55a4df523b3ef83604051612f879190613504565b60405180910390a3612f9b600083836132a6565b5050565b600080821215612fe4576040517f08c379a0000000000000000000000000000000000000000000000000000000008152600401612fdb90614ea5565b60405180910390fd5b819050919050565b6000600560009054906101000a900473ffffffffffffffffffffffffffffffffffffffff16905081600560006101000a81548173ffffffffffffffffffffffffffffffffffffffff021916908373ffffffffffffffffffffffffffffffffffffffff1602179055508173ffffffffffffffffffffffffffffffffffffffff168173ffffffffffffffffffffffffffffffffffffffff167f8be0079c531659141344cd1fd0a4f28419497f9722a3daafe3b4186f6b6457e060405160405180910390a35050565b60008183106130c157816130c3565b825b905092915050565b600073ffffffffffffffffffffffffffffffffffffffff168273ffffffffffffffffffffffffffffffffffffffff160361313a576040517f08c379a000000000000000000000000000000000000000000000000000000000815260040161313190614f37565b60405180910390fd5b613146826000836132a1565b60008060008473ffffffffffffffffffffffffffffffffffffffff1673ffffffffffffffffffffffffffffffffffffffff168152602001908152602001600020549050818110156131cc576040517f08c379a00000000000000000000000000000000000000000000000000000000081526004016131c390614fc9565b60405180910390fd5b8181036000808573ffffffffffffffffffffffffffffffffffffffff1673ffffffffffffffffffffffffffffffffffffffff1681526020019081526020016000208190555081600260008282546132239190613ff8565b92505081905550600073ffffffffffffffffffffffffffffffffffffffff168373ffffffffffffffffffffffffffffffffffffffff167fddf252ad1be2c89b69c2b068fc378daa952ba7f163c4a11628f55a4df523b3ef846040516132889190613504565b60405180910390a361329c836000846132a6565b505050565b505050565b505050565b600081519050919050565b600082825260208201905092915050565b60005b838110156132e55780820151818401526020810190506132ca565b60008484015250505050565b6000601f19601f8301169050919050565b600061330d826132ab565b61331781856132b6565b93506133278185602086016132c7565b613330816132f1565b840191505092915050565b600060208201905081810360008301526133558184613302565b905092915050565b6000604051905090565b600080fd5b600080fd5b600073ffffffffffffffffffffffffffffffffffffffff82169050919050565b600061339c82613371565b9050919050565b6133ac81613391565b81146133b757600080fd5b50565b6000813590506133c9816133a3565b92915050565b6000819050919050565b6133e2816133cf565b81146133ed57600080fd5b50565b6000813590506133ff816133d9565b92915050565b6000806040838503121561341c5761341b613367565b5b600061342a858286016133ba565b925050602061343b858286016133f0565b9150509250929050565b60008115159050919050565b61345a81613445565b82525050565b60006020820190506134756000830184613451565b92915050565b6000819050919050565b60006134a061349b61349684613371565b61347b565b613371565b9050919050565b60006134b282613485565b9050919050565b60006134c4826134a7565b9050919050565b6134d4816134b9565b82525050565b60006020820190506134ef60008301846134cb565b92915050565b6134fe816133cf565b82525050565b600060208201905061351960008301846134f5565b92915050565b60008060006060848603121561353857613537613367565b5b6000613546868287016133ba565b9350506020613557868287016133ba565b9250506040613568868287016133f0565b9150509250925092565b60006020828403121561358857613587613367565b5b6000613596848285016133f0565b91505092915050565b600060ff82169050919050565b6135b58161359f565b82525050565b60006020820190506135d060008301846135ac565b92915050565b7f4e487b7100000000000000000000000000000000000000000000000000000000600052602160045260246000fd5b60038110613616576136156135d6565b5b50565b600081905061362782613605565b919050565b600061363782613619565b9050919050565b6136478161362c565b82525050565b6000602082019050613662600083018461363e565b92915050565b60006020828403121561367e5761367d613367565b5b600061368c848285016133ba565b91505092915050565b60006136a0826134a7565b9050919050565b6136b081613695565b82525050565b60006020820190506136cb60008301846136a7565b92915050565b60006136dc826134a7565b9050919050565b6136ec816136d1565b82525050565b600060208201905061370760008301846136e3565b92915050565b61371681613445565b811461372157600080fd5b50565b6000813590506137338161370d565b92915050565b60006020828403121561374f5761374e613367565b5b600061375d84828501613724565b91505092915050565b61376f81613391565b82525050565b600060208201905061378a6000830184613766565b92915050565b600281106137a1576137a06135d6565b5b50565b60008190506137b282613790565b919050565b60006137c2826137a4565b9050919050565b6137d2816137b7565b82525050565b60006020820190506137ed60008301846137c9565b92915050565b60006137fe826134a7565b9050919050565b61380e816137f3565b82525050565b60006020820190506138296000830184613805565b92915050565b600060e082019050613844600083018a613451565b61385160208301896134f5565b61385e60408301886134f5565b61386b60608301876134f5565b61387860808301866134f5565b61388560a08301856134f5565b61389260c08301846134f5565b98975050505050505050565b60006138a9826134a7565b9050919050565b6138b98161389e565b82525050565b60006020820190506138d460008301846138b0565b92915050565b600080604083850312156138f1576138f0613367565b5b60006138ff858286016133ba565b9250506020613910858286016133ba565b9150509250929050565b6000613925826134a7565b9050919050565b6139358161391a565b82525050565b6000602082019050613950600083018461392c565b92915050565b7f4e487b7100000000000000000000000000000000000000000000000000000000600052602260045260246000fd5b6000600282049050600182168061399d57607f821691505b6020821081036139b0576139af613956565b5b50919050565b7f5265656e7472616e637947756172643a207265656e7472616e742063616c6c00600082015250565b60006139ec601f836132b6565b91506139f7826139b6565b602082019050919050565b60006020820190508181036000830152613a1b816139df565b9050919050565b600081519050613a31816133d9565b92915050565b600060208284031215613a4d57613a4c613367565b5b6000613a5b84828501613a22565b91505092915050565b7f636f6e7472616374206465616400000000000000000000000000000000000000600082015250565b6000613a9a600d836132b6565b9150613aa582613a64565b602082019050919050565b60006020820190508181036000830152613ac981613a8d565b9050919050565b6000606082019050613ae56000830186613766565b613af26020830185613766565b613aff60408301846134f5565b949350505050565b600081519050613b168161370d565b92915050565b600060208284031215613b3257613b31613367565b5b6000613b4084828501613b07565b91505092915050565b7f696e76657374206572726f720000000000000000000000000000000000000000600082015250565b6000613b7f600c836132b6565b9150613b8a82613b49565b602082019050919050565b60006020820190508181036000830152613bae81613b72565b9050919050565b613bbe816133cf565b82525050565b6000604082019050613bd96000830185613bb5565b613be66020830184613bb5565b9392505050565b6000606082019050613c026000830186613bb5565b613c0f6020830185613bb5565b613c1c6040830184613bb5565b949350505050565b6000606082019050613c396000830186613766565b613c4660208301856134f5565b613c5360408301846134f5565b949350505050565b7f4e487b7100000000000000000000000000000000000000000000000000000000600052601160045260246000fd5b6000613c95826133cf565b9150613ca0836133cf565b9250828201905080821115613cb857613cb7613c5b565b5b92915050565b600080fd5b7f4e487b7100000000000000000000000000000000000000000000000000000000600052604160045260246000fd5b613cfb826132f1565b810181811067ffffffffffffffff82111715613d1a57613d19613cc3565b5b80604052505050565b6000613d2d61335d565b9050613d398282613cf2565b919050565b60048110613d4b57600080fd5b50565b600081519050613d5d81613d3e565b92915050565b60028110613d7057600080fd5b50565b600081519050613d8281613d63565b92915050565b60048110613d9557600080fd5b50565b600081519050613da781613d88565b92915050565b600081519050613dbc816133a3565b92915050565b6000819050919050565b613dd581613dc2565b8114613de057600080fd5b50565b600081519050613df281613dcc565b92915050565b60006102808284031215613e0f57613e0e613cbe565b5b613e1a610280613d23565b90506000613e2a84828501613d4e565b6000830152506020613e3e84828501613d73565b6020830152506040613e5284828501613d98565b6040830152506060613e6684828501613dad565b6060830152506080613e7a84828501613a22565b60808301525060a0613e8e84828501613a22565b60a08301525060c0613ea284828501613a22565b60c08301525060e0613eb684828501613a22565b60e083015250610100613ecb84828501613a22565b61010083015250610120613ee184828501613a22565b61012083015250610140613ef784828501613a22565b61014083015250610160613f0d84828501613a22565b61016083015250610180613f2384828501613a22565b610180830152506101a0613f3984828501613a22565b6101a0830152506101c0613f4f84828501613a22565b6101c0830152506101e0613f6584828501613a22565b6101e083015250610200613f7b84828501613a22565b61020083015250610220613f9184828501613dad565b61022083015250610240613fa784828501613de3565b61024083015250610260613fbd84828501613a22565b6102608301525092915050565b60006102808284031215613fe157613fe0613367565b5b6000613fef84828501613df8565b91505092915050565b6000614003826133cf565b915061400e836133cf565b925082820390508181111561402657614025613c5b565b5b92915050565b6004811061403d5761403c6135d6565b5b50565b600081905061404e8261402c565b919050565b600061405e82614040565b9050919050565b61406e81614053565b82525050565b61407d816137b7565b82525050565b60048110614094576140936135d6565b5b50565b60008190506140a582614083565b919050565b60006140b582614097565b9050919050565b6140c5816140aa565b82525050565b6140d481613391565b82525050565b6140e3816133cf565b82525050565b6140f281613dc2565b82525050565b6102808201600082015161410f6000850182614065565b5060208201516141226020850182614074565b50604082015161413560408501826140bc565b50606082015161414860608501826140cb565b50608082015161415b60808501826140da565b5060a082015161416e60a08501826140da565b5060c082015161418160c08501826140da565b5060e082015161419460e08501826140da565b506101008201516141a96101008501826140da565b506101208201516141be6101208501826140da565b506101408201516141d36101408501826140da565b506101608201516141e86101608501826140da565b506101808201516141fd6101808501826140da565b506101a08201516142126101a08501826140da565b506101c08201516142276101c08501826140da565b506101e082015161423c6101e08501826140da565b506102008201516142516102008501826140da565b506102208201516142666102208501826140cb565b5061024082015161427b6102408501826140e9565b506102608201516142906102608501826140da565b50505050565b60006102c0820190506142ac60008301866140f8565b6142ba610280830185613bb5565b6142c86102a0830184613bb5565b949350505050565b6000602082840312156142e6576142e5613367565b5b60006142f484828501613de3565b91505092915050565b7f77726f6e672064656c7461000000000000000000000000000000000000000000600082015250565b6000614333600b836132b6565b915061433e826142fd565b602082019050919050565b6000602082019050818103600083015261436281614326565b9050919050565b600061437482613dc2565b91507f800000000000000000000000000000000000000000000000000000000000000082036143a6576143a5613c5b565b5b816000039050919050565b600080604083850312156143c8576143c7613367565b5b60006143d685828601613a22565b92505060206143e785828601613a22565b9150509250929050565b6143fa816137f3565b82525050565b61440981613391565b82525050565b600060408201905061442460008301856143f1565b6144316020830184614400565b9392505050565b7f4f776e61626c653a2063616c6c6572206973206e6f7420746865206f776e6572600082015250565b600061446e6020836132b6565b915061447982614438565b602082019050919050565b6000602082019050818103600083015261449d81614461565b9050919050565b60006040820190506144b96000830185613766565b6144c660208301846134f5565b9392505050565b7f70656e616c7479206572726f7200000000000000000000000000000000000000600082015250565b6000614503600d836132b6565b915061450e826144cd565b602082019050919050565b60006020820190508181036000830152614532816144f6565b9050919050565b600060408201905061454e60008301856134f5565b61455b6020830184613766565b9392505050565b60006040820190506145776000830185613451565b6145846020830184613766565b9392505050565b7f646976657374206572726f720000000000000000000000000000000000000000600082015250565b60006145c1600c836132b6565b91506145cc8261458b565b602082019050919050565b600060208201905081810360008301526145f0816145b4565b9050919050565b7f45524332303a2064656372656173656420616c6c6f77616e63652062656c6f7760008201527f207a65726f000000000000000000000000000000000000000000000000000000602082015250565b60006146536025836132b6565b915061465e826145f7565b604082019050919050565b6000602082019050818103600083015261468281614646565b9050919050565b6000819050919050565b60006146ae6146a96146a484614689565b61347b565b6133cf565b9050919050565b6146be81614693565b82525050565b6146cd81614053565b82525050565b600060e0820190506146e8600083018a6134cb565b6146f560208301896134f5565b61470260408301886134f5565b61470f60608301876146b5565b61471c60808301866134f5565b61472960a08301856146c4565b61473660c08301846137c9565b98975050505050505050565b600080600080600060a0868803121561475e5761475d613367565b5b600061476c88828901613a22565b955050602061477d88828901613a22565b945050604061478e88828901613a22565b935050606061479f88828901613a22565b92505060806147b088828901613a22565b9150509295509295909350565b6000610100820190506147d3600083018b6134cb565b6147e0602083018a6134f5565b6147ed60408301896134f5565b6147fa60608301886146b5565b61480760808301876134f5565b61481460a08301866146c4565b61482160c08301856137c9565b61482e60e083018461363e565b9998505050505050505050565b60006040820190506148506000830185613766565b61485d6020830184613766565b9392505050565b600080fd5b600067ffffffffffffffff82111561488457614883613cc3565b5b602082029050602081019050919050565b600080fd5b60006148ad6148a884614869565b613d23565b905080838252602082019050602084028301858111156148d0576148cf614895565b5b835b818110156148f957806148e58882613a22565b8452602084019350506020810190506148d2565b5050509392505050565b600082601f83011261491857614917614864565b5b815161492884826020860161489a565b91505092915050565b60006020828403121561494757614946613367565b5b600082015167ffffffffffffffff8111156149655761496461336c565b5b61497184828501614903565b91505092915050565b7f77726f6e67206e756d626572206f66206f7074696f6e73000000000000000000600082015250565b60006149b06017836132b6565b91506149bb8261497a565b602082019050919050565b600060208201905081810360008301526149df816149a3565b9050919050565b7f4e487b7100000000000000000000000000000000000000000000000000000000600052603260045260246000fd5b7f4f776e61626c653a206e6577206f776e657220697320746865207a65726f206160008201527f6464726573730000000000000000000000000000000000000000000000000000602082015250565b6000614a716026836132b6565b9150614a7c82614a15565b604082019050919050565b60006020820190508181036000830152614aa081614a64565b9050919050565b7f45524332303a20617070726f76652066726f6d20746865207a65726f2061646460008201527f7265737300000000000000000000000000000000000000000000000000000000602082015250565b6000614b036024836132b6565b9150614b0e82614aa7565b604082019050919050565b60006020820190508181036000830152614b3281614af6565b9050919050565b7f45524332303a20617070726f766520746f20746865207a65726f20616464726560008201527f7373000000000000000000000000000000000000000000000000000000000000602082015250565b6000614b956022836132b6565b9150614ba082614b39565b604082019050919050565b60006020820190508181036000830152614bc481614b88565b9050919050565b7f45524332303a20696e73756666696369656e7420616c6c6f77616e6365000000600082015250565b6000614c01601d836132b6565b9150614c0c82614bcb565b602082019050919050565b60006020820190508181036000830152614c3081614bf4565b9050919050565b7f45524332303a207472616e736665722066726f6d20746865207a65726f20616460008201527f6472657373000000000000000000000000000000000000000000000000000000602082015250565b6000614c936025836132b6565b9150614c9e82614c37565b604082019050919050565b60006020820190508181036000830152614cc281614c86565b9050919050565b7f45524332303a207472616e7366657220746f20746865207a65726f206164647260008201527f6573730000000000000000000000000000000000000000000000000000000000602082015250565b6000614d256023836132b6565b9150614d3082614cc9565b604082019050919050565b60006020820190508181036000830152614d5481614d18565b9050919050565b7f45524332303a207472616e7366657220616d6f756e742065786365656473206260008201527f616c616e63650000000000000000000000000000000000000000000000000000602082015250565b6000614db76026836132b6565b9150614dc282614d5b565b604082019050919050565b60006020820190508181036000830152614de681614daa565b9050919050565b7f45524332303a206d696e7420746f20746865207a65726f206164647265737300600082015250565b6000614e23601f836132b6565b9150614e2e82614ded565b602082019050919050565b60006020820190508181036000830152614e5281614e16565b9050919050565b7f53616665436173743a2076616c7565206d75737420626520706f736974697665600082015250565b6000614e8f6020836132b6565b9150614e9a82614e59565b602082019050919050565b60006020820190508181036000830152614ebe81614e82565b9050919050565b7f45524332303a206275726e2066726f6d20746865207a65726f2061646472657360008201527f7300000000000000000000000000000000000000000000000000000000000000602082015250565b6000614f216021836132b6565b9150614f2c82614ec5565b604082019050919050565b60006020820190508181036000830152614f5081614f14565b9050919050565b7f45524332303a206275726e20616d6f756e7420657863656564732062616c616e60008201527f6365000000000000000000000000000000000000000000000000000000000000602082015250565b6000614fb36022836132b6565b9150614fbe82614f57565b604082019050919050565b60006020820190508181036000830152614fe281614fa6565b905091905056fea264697066735822122076ff6e303dfa0973e3e2c3baccdcd402f7198c9fa246b7929fc826523b1191ff64736f6c63430008110033",
  "immutableReferences": {
    "16672": [
      {
        "length": 32,
        "start": 8540
      },
      {
        "length": 32,
        "start": 9101
      },
      {
        "length": 32,
        "start": 9528
      },
      {
        "length": 32,
        "start": 9993
      }
    ],
    "16678": [
      {
        "length": 32,
        "start": 4787
      },
      {
        "length": 32,
        "start": 9561
      }
    ],
    "16681": [
      {
        "length": 32,
        "start": 3533
      },
      {
        "length": 32,
        "start": 3710
      },
      {
        "length": 32,
        "start": 5955
      },
      {
        "length": 32,
        "start": 7815
      }
    ],
    "16684": [
      {
        "length": 32,
        "start": 2160
      },
      {
        "length": 32,
        "start": 5081
      },
      {
        "length": 32,
        "start": 6329
      },
      {
        "length": 32,
        "start": 8432
      },
      {
        "length": 32,
        "start": 8993
      },
      {
        "length": 32,
        "start": 9420
      },
      {
        "length": 32,
        "start": 10132
      }
    ],
    "16687": [
      {
        "length": 32,
        "start": 3286
      },
      {
        "length": 32,
        "start": 4428
      },
      {
        "length": 32,
        "start": 9681
      },
      {
        "length": 32,
        "start": 10562
      }
    ],
    "16690": [
      {
        "length": 32,
        "start": 2303
      },
      {
        "length": 32,
        "start": 2551
      },
      {
        "length": 32,
        "start": 4588
      },
      {
        "length": 32,
        "start": 5224
      },
      {
        "length": 32,
        "start": 5663
      },
      {
        "length": 32,
        "start": 6472
      },
      {
        "length": 32,
        "start": 6936
      },
      {
        "length": 32,
        "start": 7593
      },
      {
        "length": 32,
        "start": 10029
      }
    ],
    "16692": [
      {
        "length": 32,
        "start": 2812
      },
      {
        "length": 32,
        "start": 3247
      }
    ],
    "16694": [
      {
        "length": 32,
        "start": 2000
      }
    ],
    "16697": [
      {
        "length": 32,
        "start": 1954
      },
      {
        "length": 32,
        "start": 8492
      },
      {
        "length": 32,
        "start": 9053
      },
      {
        "length": 32,
        "start": 9480
      },
      {
        "length": 32,
        "start": 9741
      }
    ],
    "16700": [
      {
        "length": 32,
        "start": 5991
      }
    ]
  },
  "source": "// SPDX-License-Identifier: MIT\npragma solidity 0.8.17;\n\nimport \"@openzeppelin/contracts/token/ERC20/ERC20.sol\";\nimport \"@openzeppelin/contracts/security/ReentrancyGuard.sol\";\nimport \"@openzeppelin/contracts/utils/math/Math.sol\";\nimport \"@openzeppelin/contracts/utils/math/SafeCast.sol\";\nimport \"@openzeppelin/contracts/access/Ownable.sol\";\nimport \"../Exchange.sol\";\nimport \"../OptionVault.sol\";\nimport \"../VolatilityChain.sol\";\nimport \"../pools/MarketMaker.sol\";\nimport \"../pools/Pool.sol\";\nimport \"../libraries/MathLib.sol\";\nimport \"../libraries/OptionLib.sol\";\nimport \"../libraries/MarketLib.sol\";\n\ncontract Perp is ERC20, Ownable, ReentrancyGuard{\n    using MathLib for uint256;\n    using Math for uint256;\n    using SafeCast for int256;\n    using MarketLib for ERC20;\n    using MarketLib for uint256;\n    using OptionLib for OptionLib.Option;\n\n    struct PerpParam{bool long; uint itm; uint itm2; uint leverage; uint criticalLev; uint penalty; uint tenor;}\n\n    event PerpInvest(address investor, uint256 tokenUnit, uint256 investAmount);\n    event PerpDivest(address investor, uint256 tokenUnit, uint256 divestAmount);\n    event PerpRebalance(uint256 leverage, address bot);\n    event PerpLiquidation(bool liquidation, address bot);\n\n    uint256 public notional;\n    uint256 public margin;\n    uint256 public optionId;\n    uint256 public optionEffective;\n    uint256 public optionStrike;\n\n    PerpParam public params;\n    OptionLib.OptionSide public immutable optionSide = OptionLib.OptionSide.Buy;\n    OptionLib.PaymentMethod public immutable optionPayment = OptionLib.PaymentMethod.USDC;\n\n    VolatilityChain public immutable oracle;\n    Exchange public immutable exchange;\n    OptionVault public immutable vault;\n    ERC20 public immutable funding;\n    uint256 public immutable fundingDecimals;\n    uint256 public immutable fundingMultiplier;\n    Pool public immutable pool;\n    MarketMaker public immutable market;\n\n    uint256 internal constant SECONDS_1D = 86400;\n    bool public liquidating = false;\n\n    constructor(address _pool, string memory _name, string memory _symbol, PerpParam memory _params) ERC20(_name, _symbol){\n        require(_pool != address(0), \"null pool address\");\n        pool = Pool(_pool);\n\n        exchange = Exchange(pool.exchange()); \n        vault = exchange.vault();\n        market = pool.marketMaker();\n        oracle = market.getVolatilityChain();\n        funding = ERC20(market.funding());\n        funding.increaseAllowance(address(exchange), 2**256 - 1);\n        fundingDecimals = funding.decimals();\n        fundingMultiplier = 10 ** fundingDecimals;\n        optionEffective = block.timestamp;\n\n        require(_params.itm > 0 && _params.itm2 > _params.itm, \"error perp params\");\n        params = _params;\n    }\n\n    // invest amount of USDC: _investment in USDC decimals\n    function invest(uint256 _investment) external nonReentrant{\n        // unwind existing option\n        exchange.unwindOption(optionId);\n        uint256 _previousBalance = funding.balanceOf(address(this));\n        uint256 _previousSupply = totalSupply();\n        require(!(_previousSupply > 0 && _previousBalance == 0), \"contract dead\");\n\n        // transfer in investment\n        require(funding.transferFrom(msg.sender, address(this), _investment), 'invest error');\n\n        // mint new tokens\n        uint256 _newTokenAmount = _previousBalance > 0 ? _previousSupply.muldiv(_investment, _previousBalance): _investment.toWei(fundingDecimals);\n        _mint(msg.sender, _newTokenAmount);\n\n        // create options\n        createOption();\n\n        emit PerpInvest(msg.sender, _newTokenAmount, _investment);\n    }\n\n    // divest amount of USDC: _investment in USDC decimals\n    function divest(uint256 _divestment) external nonReentrant{\n        // unwind existing option\n        exchange.unwindOption(optionId);\n        uint256 _previousBalance = funding.balanceOf(address(this));\n        uint256 _previousSupply = totalSupply();\n\n        // burn tokens\n        uint256 _burnTokenAmount = _previousSupply.muldiv(_divestment, _previousBalance).min(balanceOf(msg.sender));\n        _burn(msg.sender, _burnTokenAmount);\n\n        // transfer out divestment\n        uint256 _redeemAmount = _previousBalance.muldiv(_burnTokenAmount, _previousSupply);\n        require(funding.transfer(msg.sender, _redeemAmount), 'divest error');\n\n        // create options\n        createOption();\n\n        emit PerpDivest(msg.sender, _burnTokenAmount, _redeemAmount);\n    }\n\n    // rebalance when leverage is below threshold\n    function rebalance() external{\n        // check bounds: can only reblance if leverage is below threshold\n        uint256 _currentLev = getCurrentLeverage();\n        if(_currentLev < params.criticalLev && !liquidating){\n            // unwind existing option\n            exchange.unwindOption(optionId);\n            uint256 _previousBalance = funding.balanceOf(address(this));\n\n            // collect incentives for rebalancer\n            uint256 _incentive = _previousBalance.muldiv(block.timestamp - Math.min(block.timestamp, optionEffective), SECONDS_1D).ethmul(params.penalty);\n            require(funding.transfer(msg.sender, _incentive), \"penalty error\");\n\n            // create options\n            createOption();\n\n            emit PerpRebalance(_currentLev, msg.sender);\n        }\n    }\n\n    function createOption() public {\n        // calculate new trading notionals\n        margin = funding.balanceDef(address(this));\n        // it won't create new options if it's in liquidation phase (liquidating = true)\n        if(margin > 0 && !liquidating){ \n            uint256 currentPrice = oracle.queryPrice();\n            notional = margin.muldiv(params.leverage, currentPrice);\n            optionStrike = params.long? currentPrice.ethmul(params.itm): currentPrice.ethdiv(params.itm);\n            OptionLib.PayoffType _poType = params.long? OptionLib.PayoffType.Call: OptionLib.PayoffType.Put;\n            \n            // check notional\n            (uint256 _premium,,,, uint256 _fee) = exchange.queryOption(pool, params.tenor, optionStrike, 0, notional, _poType, optionSide);\n            if(_premium + _fee > margin){\n                optionStrike = params.long? currentPrice.ethmul(params.itm2): currentPrice.ethdiv(params.itm2);\n                (_premium,,,, _fee) = exchange.queryOption(pool, params.tenor, optionStrike, 0, notional, _poType, optionSide);\n                if(_premium + _fee > margin){\n                    notional = notional.muldiv(margin, _premium + _fee);\n                }\n            }\n\n            // create options\n            exchange.tradeOption(pool, params.tenor, optionStrike, 0, notional, _poType, optionSide, optionPayment);\n\n            // register new id\n            uint256[] memory _optionIdList = vault.getHolderOptions(address(pool), address(this));\n            require(_optionIdList.length == 1, \"wrong number of options\");\n            optionId = _optionIdList[0];\n            optionEffective = block.timestamp;\n        }\n    }\n\n    function getCurrentLeverage() public view returns(uint256 _leverage){\n        // calculate delta\n        OptionLib.Option memory _option = vault.getOption(optionId);\n        if(_option.status== OptionLib.OptionStatus.Active && (_option.maturity > block.timestamp)){\n            uint256 _remainingTenor = _option.maturity - block.timestamp;\n            uint256 _price = oracle.queryPrice();\n            int256 _delta = _option.calcDelta(_price, oracle.queryVol(_remainingTenor)); // in 18 decimals\n            require((_delta >= 0 && params.long) || (_delta <= 0 && !(params.long)), \"wrong delta\");\n\n            // multiply delta by the price then divided by current pv\n            uint256 _pv = getPV();\n            _leverage = params.long? _delta.toUint256().muldiv(_price, _pv): (-_delta).toUint256().muldiv(_price, _pv);\n        }\n    }\n\n    // returns present value of the whole protocol\n    function getPV() public view returns(uint256){\n        // calculate unwind value, in funding token decimals\n        (uint256 _unwindValue, ) = vault.calcOptionUnwindValue(optionId);\n\n        // add to remaining USDC\n        uint256 _remainingBalance = funding.balanceDef(address(this));\n\n        return _unwindValue + _remainingBalance;\n    }\n\n    // set the pool to be liquidating, only executable by owner\n    // owner can't deal with any funds in the protocol but rather allow token holders to withdraw their funds when the liquidity pool can't support any more trades (so no rebalance would happen)\n    function setLiquidation(bool _liquidating) external onlyOwner{\n        liquidating = _liquidating;\n        emit PerpLiquidation(liquidating, msg.sender);\n    }\n}",
  "sourcePath": "/Users/mac/Documents/GitHub/moret/contracts/vaults/Perp.sol",
  "compiler": {
    "name": "solc",
    "version": "0.8.17+commit.8df45f5f.Emscripten.clang"
  },
  "schemaVersion": "3.4.3",
  "updatedAt": "2023-01-21T19:17:10.387Z",
  "networkType": "ethereum",
  "devdoc": {
    "kind": "dev",
    "methods": {
      "allowance(address,address)": {
        "details": "See {IERC20-allowance}."
      },
      "approve(address,uint256)": {
        "details": "See {IERC20-approve}. NOTE: If `amount` is the maximum `uint256`, the allowance is not updated on `transferFrom`. This is semantically equivalent to an infinite approval. Requirements: - `spender` cannot be the zero address."
      },
      "balanceOf(address)": {
        "details": "See {IERC20-balanceOf}."
      },
      "decimals()": {
        "details": "Returns the number of decimals used to get its user representation. For example, if `decimals` equals `2`, a balance of `505` tokens should be displayed to a user as `5.05` (`505 / 10 ** 2`). Tokens usually opt for a value of 18, imitating the relationship between Ether and Wei. This is the value {ERC20} uses, unless this function is overridden; NOTE: This information is only used for _display_ purposes: it in no way affects any of the arithmetic of the contract, including {IERC20-balanceOf} and {IERC20-transfer}."
      },
      "decreaseAllowance(address,uint256)": {
        "details": "Atomically decreases the allowance granted to `spender` by the caller. This is an alternative to {approve} that can be used as a mitigation for problems described in {IERC20-approve}. Emits an {Approval} event indicating the updated allowance. Requirements: - `spender` cannot be the zero address. - `spender` must have allowance for the caller of at least `subtractedValue`."
      },
      "increaseAllowance(address,uint256)": {
        "details": "Atomically increases the allowance granted to `spender` by the caller. This is an alternative to {approve} that can be used as a mitigation for problems described in {IERC20-approve}. Emits an {Approval} event indicating the updated allowance. Requirements: - `spender` cannot be the zero address."
      },
      "name()": {
        "details": "Returns the name of the token."
      },
      "owner()": {
        "details": "Returns the address of the current owner."
      },
      "renounceOwnership()": {
        "details": "Leaves the contract without owner. It will not be possible to call `onlyOwner` functions anymore. Can only be called by the current owner. NOTE: Renouncing ownership will leave the contract without an owner, thereby removing any functionality that is only available to the owner."
      },
      "symbol()": {
        "details": "Returns the symbol of the token, usually a shorter version of the name."
      },
      "totalSupply()": {
        "details": "See {IERC20-totalSupply}."
      },
      "transfer(address,uint256)": {
        "details": "See {IERC20-transfer}. Requirements: - `to` cannot be the zero address. - the caller must have a balance of at least `amount`."
      },
      "transferFrom(address,address,uint256)": {
        "details": "See {IERC20-transferFrom}. Emits an {Approval} event indicating the updated allowance. This is not required by the EIP. See the note at the beginning of {ERC20}. NOTE: Does not update the allowance if the current allowance is the maximum `uint256`. Requirements: - `from` and `to` cannot be the zero address. - `from` must have a balance of at least `amount`. - the caller must have allowance for ``from``'s tokens of at least `amount`."
      },
      "transferOwnership(address)": {
        "details": "Transfers ownership of the contract to a new account (`newOwner`). Can only be called by the current owner."
      }
    },
    "version": 1
  },
  "userdoc": {
    "kind": "user",
    "methods": {},
    "version": 1
  }
}