{
  "contractName": "Pool",
  "abi": [
    {
      "inputs": [
        {
          "internalType": "string",
          "name": "_name",
          "type": "string"
        },
        {
          "internalType": "string",
          "name": "_symbol",
          "type": "string"
        },
        {
          "internalType": "address",
          "name": "_marketMaker",
          "type": "address"
        }
      ],
      "stateMutability": "nonpayable",
      "type": "constructor"
    },
    {
      "anonymous": false,
      "inputs": [
        {
          "indexed": true,
          "internalType": "address",
          "name": "owner",
          "type": "address"
        },
        {
          "indexed": true,
          "internalType": "address",
          "name": "spender",
          "type": "address"
        },
        {
          "indexed": false,
          "internalType": "uint256",
          "name": "value",
          "type": "uint256"
        }
      ],
      "name": "Approval",
      "type": "event"
    },
    {
      "anonymous": false,
      "inputs": [
        {
          "indexed": true,
          "internalType": "address",
          "name": "delegator",
          "type": "address"
        },
        {
          "indexed": true,
          "internalType": "address",
          "name": "fromDelegate",
          "type": "address"
        },
        {
          "indexed": true,
          "internalType": "address",
          "name": "toDelegate",
          "type": "address"
        }
      ],
      "name": "DelegateChanged",
      "type": "event"
    },
    {
      "anonymous": false,
      "inputs": [
        {
          "indexed": true,
          "internalType": "address",
          "name": "delegate",
          "type": "address"
        },
        {
          "indexed": false,
          "internalType": "uint256",
          "name": "previousBalance",
          "type": "uint256"
        },
        {
          "indexed": false,
          "internalType": "uint256",
          "name": "newBalance",
          "type": "uint256"
        }
      ],
      "name": "DelegateVotesChanged",
      "type": "event"
    },
    {
      "anonymous": false,
      "inputs": [
        {
          "indexed": true,
          "internalType": "address",
          "name": "_bot",
          "type": "address"
        },
        {
          "indexed": true,
          "internalType": "address",
          "name": "_exchange",
          "type": "address"
        },
        {
          "indexed": false,
          "internalType": "address",
          "name": "_holder",
          "type": "address"
        },
        {
          "indexed": false,
          "internalType": "uint256",
          "name": "_id",
          "type": "uint256"
        },
        {
          "indexed": false,
          "internalType": "uint256",
          "name": "_payoff",
          "type": "uint256"
        }
      ],
      "name": "Expire",
      "type": "event"
    },
    {
      "anonymous": false,
      "inputs": [
        {
          "indexed": true,
          "internalType": "address",
          "name": "_hedger",
          "type": "address"
        },
        {
          "indexed": true,
          "internalType": "address",
          "name": "_market",
          "type": "address"
        },
        {
          "indexed": false,
          "internalType": "bool",
          "name": "success",
          "type": "bool"
        },
        {
          "indexed": false,
          "internalType": "bytes",
          "name": "data",
          "type": "bytes"
        }
      ],
      "name": "HedgeResponse",
      "type": "event"
    },
    {
      "anonymous": false,
      "inputs": [
        {
          "indexed": true,
          "internalType": "address",
          "name": "_hedger",
          "type": "address"
        },
        {
          "indexed": true,
          "internalType": "address",
          "name": "_market",
          "type": "address"
        },
        {
          "indexed": false,
          "internalType": "uint256[]",
          "name": "amounts",
          "type": "uint256[]"
        }
      ],
      "name": "HedgeSwapResponse",
      "type": "event"
    },
    {
      "anonymous": false,
      "inputs": [
        {
          "indexed": true,
          "internalType": "address",
          "name": "_purchaser",
          "type": "address"
        },
        {
          "indexed": true,
          "internalType": "address",
          "name": "_exchange",
          "type": "address"
        },
        {
          "indexed": false,
          "internalType": "uint256",
          "name": "_id",
          "type": "uint256"
        },
        {
          "indexed": false,
          "internalType": "uint256",
          "name": "_premium",
          "type": "uint256"
        },
        {
          "indexed": false,
          "internalType": "uint256",
          "name": "_collateral",
          "type": "uint256"
        },
        {
          "indexed": false,
          "internalType": "bool",
          "name": "_inVol",
          "type": "bool"
        }
      ],
      "name": "NewOption",
      "type": "event"
    },
    {
      "anonymous": false,
      "inputs": [
        {
          "indexed": true,
          "internalType": "address",
          "name": "previousOwner",
          "type": "address"
        },
        {
          "indexed": true,
          "internalType": "address",
          "name": "newOwner",
          "type": "address"
        }
      ],
      "name": "OwnershipTransferred",
      "type": "event"
    },
    {
      "anonymous": false,
      "inputs": [
        {
          "indexed": false,
          "internalType": "address",
          "name": "_newBot",
          "type": "address"
        }
      ],
      "name": "ResetBotAddress",
      "type": "event"
    },
    {
      "anonymous": false,
      "inputs": [
        {
          "indexed": true,
          "internalType": "uint256",
          "name": "_parameterId",
          "type": "uint256"
        },
        {
          "indexed": false,
          "internalType": "uint256",
          "name": "_parameter",
          "type": "uint256"
        }
      ],
      "name": "ResetParameter",
      "type": "event"
    },
    {
      "anonymous": false,
      "inputs": [
        {
          "indexed": true,
          "internalType": "address",
          "name": "_exchange",
          "type": "address"
        },
        {
          "indexed": false,
          "internalType": "bool",
          "name": "_tradingAllowed",
          "type": "bool"
        }
      ],
      "name": "ResetTradingStatus",
      "type": "event"
    },
    {
      "anonymous": false,
      "inputs": [
        {
          "indexed": true,
          "internalType": "address",
          "name": "_purchaser",
          "type": "address"
        },
        {
          "indexed": true,
          "internalType": "address",
          "name": "_exchange",
          "type": "address"
        },
        {
          "indexed": false,
          "internalType": "uint256",
          "name": "_cost",
          "type": "uint256"
        },
        {
          "indexed": false,
          "internalType": "uint256",
          "name": "_volAmount",
          "type": "uint256"
        },
        {
          "indexed": false,
          "internalType": "bool",
          "name": "_isPurchase",
          "type": "bool"
        }
      ],
      "name": "TradeVolatility",
      "type": "event"
    },
    {
      "anonymous": false,
      "inputs": [
        {
          "indexed": true,
          "internalType": "address",
          "name": "from",
          "type": "address"
        },
        {
          "indexed": true,
          "internalType": "address",
          "name": "to",
          "type": "address"
        },
        {
          "indexed": false,
          "internalType": "uint256",
          "name": "value",
          "type": "uint256"
        }
      ],
      "name": "Transfer",
      "type": "event"
    },
    {
      "inputs": [],
      "name": "DOMAIN_SEPARATOR",
      "outputs": [
        {
          "internalType": "bytes32",
          "name": "",
          "type": "bytes32"
        }
      ],
      "stateMutability": "view",
      "type": "function"
    },
    {
      "inputs": [
        {
          "internalType": "address",
          "name": "owner",
          "type": "address"
        },
        {
          "internalType": "address",
          "name": "spender",
          "type": "address"
        }
      ],
      "name": "allowance",
      "outputs": [
        {
          "internalType": "uint256",
          "name": "",
          "type": "uint256"
        }
      ],
      "stateMutability": "view",
      "type": "function"
    },
    {
      "inputs": [
        {
          "internalType": "address",
          "name": "spender",
          "type": "address"
        },
        {
          "internalType": "uint256",
          "name": "amount",
          "type": "uint256"
        }
      ],
      "name": "approve",
      "outputs": [
        {
          "internalType": "bool",
          "name": "",
          "type": "bool"
        }
      ],
      "stateMutability": "nonpayable",
      "type": "function"
    },
    {
      "inputs": [
        {
          "internalType": "address",
          "name": "account",
          "type": "address"
        }
      ],
      "name": "balanceOf",
      "outputs": [
        {
          "internalType": "uint256",
          "name": "",
          "type": "uint256"
        }
      ],
      "stateMutability": "view",
      "type": "function"
    },
    {
      "inputs": [
        {
          "internalType": "address",
          "name": "account",
          "type": "address"
        },
        {
          "internalType": "uint32",
          "name": "pos",
          "type": "uint32"
        }
      ],
      "name": "checkpoints",
      "outputs": [
        {
          "components": [
            {
              "internalType": "uint32",
              "name": "fromBlock",
              "type": "uint32"
            },
            {
              "internalType": "uint224",
              "name": "votes",
              "type": "uint224"
            }
          ],
          "internalType": "struct ERC20Votes.Checkpoint",
          "name": "",
          "type": "tuple"
        }
      ],
      "stateMutability": "view",
      "type": "function"
    },
    {
      "inputs": [],
      "name": "decimals",
      "outputs": [
        {
          "internalType": "uint8",
          "name": "",
          "type": "uint8"
        }
      ],
      "stateMutability": "view",
      "type": "function"
    },
    {
      "inputs": [
        {
          "internalType": "address",
          "name": "spender",
          "type": "address"
        },
        {
          "internalType": "uint256",
          "name": "subtractedValue",
          "type": "uint256"
        }
      ],
      "name": "decreaseAllowance",
      "outputs": [
        {
          "internalType": "bool",
          "name": "",
          "type": "bool"
        }
      ],
      "stateMutability": "nonpayable",
      "type": "function"
    },
    {
      "inputs": [
        {
          "internalType": "address",
          "name": "delegatee",
          "type": "address"
        }
      ],
      "name": "delegate",
      "outputs": [],
      "stateMutability": "nonpayable",
      "type": "function"
    },
    {
      "inputs": [
        {
          "internalType": "address",
          "name": "delegatee",
          "type": "address"
        },
        {
          "internalType": "uint256",
          "name": "nonce",
          "type": "uint256"
        },
        {
          "internalType": "uint256",
          "name": "expiry",
          "type": "uint256"
        },
        {
          "internalType": "uint8",
          "name": "v",
          "type": "uint8"
        },
        {
          "internalType": "bytes32",
          "name": "r",
          "type": "bytes32"
        },
        {
          "internalType": "bytes32",
          "name": "s",
          "type": "bytes32"
        }
      ],
      "name": "delegateBySig",
      "outputs": [],
      "stateMutability": "nonpayable",
      "type": "function"
    },
    {
      "inputs": [
        {
          "internalType": "address",
          "name": "account",
          "type": "address"
        }
      ],
      "name": "delegates",
      "outputs": [
        {
          "internalType": "address",
          "name": "",
          "type": "address"
        }
      ],
      "stateMutability": "view",
      "type": "function"
    },
    {
      "inputs": [],
      "name": "exchange",
      "outputs": [
        {
          "internalType": "address",
          "name": "",
          "type": "address"
        }
      ],
      "stateMutability": "view",
      "type": "function"
    },
    {
      "inputs": [],
      "name": "exerciseFee",
      "outputs": [
        {
          "internalType": "uint256",
          "name": "",
          "type": "uint256"
        }
      ],
      "stateMutability": "view",
      "type": "function"
    },
    {
      "inputs": [
        {
          "internalType": "uint256",
          "name": "blockNumber",
          "type": "uint256"
        }
      ],
      "name": "getPastTotalSupply",
      "outputs": [
        {
          "internalType": "uint256",
          "name": "",
          "type": "uint256"
        }
      ],
      "stateMutability": "view",
      "type": "function"
    },
    {
      "inputs": [
        {
          "internalType": "address",
          "name": "account",
          "type": "address"
        },
        {
          "internalType": "uint256",
          "name": "blockNumber",
          "type": "uint256"
        }
      ],
      "name": "getPastVotes",
      "outputs": [
        {
          "internalType": "uint256",
          "name": "",
          "type": "uint256"
        }
      ],
      "stateMutability": "view",
      "type": "function"
    },
    {
      "inputs": [
        {
          "internalType": "address",
          "name": "account",
          "type": "address"
        }
      ],
      "name": "getVotes",
      "outputs": [
        {
          "internalType": "uint256",
          "name": "",
          "type": "uint256"
        }
      ],
      "stateMutability": "view",
      "type": "function"
    },
    {
      "inputs": [
        {
          "internalType": "address",
          "name": "spender",
          "type": "address"
        },
        {
          "internalType": "uint256",
          "name": "addedValue",
          "type": "uint256"
        }
      ],
      "name": "increaseAllowance",
      "outputs": [
        {
          "internalType": "bool",
          "name": "",
          "type": "bool"
        }
      ],
      "stateMutability": "nonpayable",
      "type": "function"
    },
    {
      "inputs": [],
      "name": "marketMaker",
      "outputs": [
        {
          "internalType": "contract MarketMaker",
          "name": "",
          "type": "address"
        }
      ],
      "stateMutability": "view",
      "type": "function"
    },
    {
      "inputs": [],
      "name": "minVolPrice",
      "outputs": [
        {
          "internalType": "uint256",
          "name": "",
          "type": "uint256"
        }
      ],
      "stateMutability": "view",
      "type": "function"
    },
    {
      "inputs": [],
      "name": "name",
      "outputs": [
        {
          "internalType": "string",
          "name": "",
          "type": "string"
        }
      ],
      "stateMutability": "view",
      "type": "function"
    },
    {
      "inputs": [
        {
          "internalType": "address",
          "name": "owner",
          "type": "address"
        }
      ],
      "name": "nonces",
      "outputs": [
        {
          "internalType": "uint256",
          "name": "",
          "type": "uint256"
        }
      ],
      "stateMutability": "view",
      "type": "function"
    },
    {
      "inputs": [
        {
          "internalType": "address",
          "name": "account",
          "type": "address"
        }
      ],
      "name": "numCheckpoints",
      "outputs": [
        {
          "internalType": "uint32",
          "name": "",
          "type": "uint32"
        }
      ],
      "stateMutability": "view",
      "type": "function"
    },
    {
      "inputs": [],
      "name": "owner",
      "outputs": [
        {
          "internalType": "address",
          "name": "",
          "type": "address"
        }
      ],
      "stateMutability": "view",
      "type": "function"
    },
    {
      "inputs": [
        {
          "internalType": "address",
          "name": "owner",
          "type": "address"
        },
        {
          "internalType": "address",
          "name": "spender",
          "type": "address"
        },
        {
          "internalType": "uint256",
          "name": "value",
          "type": "uint256"
        },
        {
          "internalType": "uint256",
          "name": "deadline",
          "type": "uint256"
        },
        {
          "internalType": "uint8",
          "name": "v",
          "type": "uint8"
        },
        {
          "internalType": "bytes32",
          "name": "r",
          "type": "bytes32"
        },
        {
          "internalType": "bytes32",
          "name": "s",
          "type": "bytes32"
        }
      ],
      "name": "permit",
      "outputs": [],
      "stateMutability": "nonpayable",
      "type": "function"
    },
    {
      "inputs": [],
      "name": "renounceOwnership",
      "outputs": [],
      "stateMutability": "nonpayable",
      "type": "function"
    },
    {
      "inputs": [],
      "name": "symbol",
      "outputs": [
        {
          "internalType": "string",
          "name": "",
          "type": "string"
        }
      ],
      "stateMutability": "view",
      "type": "function"
    },
    {
      "inputs": [],
      "name": "totalSupply",
      "outputs": [
        {
          "internalType": "uint256",
          "name": "",
          "type": "uint256"
        }
      ],
      "stateMutability": "view",
      "type": "function"
    },
    {
      "inputs": [
        {
          "internalType": "address",
          "name": "to",
          "type": "address"
        },
        {
          "internalType": "uint256",
          "name": "amount",
          "type": "uint256"
        }
      ],
      "name": "transfer",
      "outputs": [
        {
          "internalType": "bool",
          "name": "",
          "type": "bool"
        }
      ],
      "stateMutability": "nonpayable",
      "type": "function"
    },
    {
      "inputs": [
        {
          "internalType": "address",
          "name": "from",
          "type": "address"
        },
        {
          "internalType": "address",
          "name": "to",
          "type": "address"
        },
        {
          "internalType": "uint256",
          "name": "amount",
          "type": "uint256"
        }
      ],
      "name": "transferFrom",
      "outputs": [
        {
          "internalType": "bool",
          "name": "",
          "type": "bool"
        }
      ],
      "stateMutability": "nonpayable",
      "type": "function"
    },
    {
      "inputs": [
        {
          "internalType": "address",
          "name": "newOwner",
          "type": "address"
        }
      ],
      "name": "transferOwnership",
      "outputs": [],
      "stateMutability": "nonpayable",
      "type": "function"
    },
    {
      "inputs": [],
      "name": "volCapacityFactor",
      "outputs": [
        {
          "internalType": "uint256",
          "name": "",
          "type": "uint256"
        }
      ],
      "stateMutability": "view",
      "type": "function"
    },
    {
      "inputs": [
        {
          "internalType": "uint256",
          "name": "_parameterId",
          "type": "uint256"
        },
        {
          "internalType": "uint256",
          "name": "_newParameter",
          "type": "uint256"
        }
      ],
      "name": "setPoolParameters",
      "outputs": [],
      "stateMutability": "nonpayable",
      "type": "function"
    },
    {
      "inputs": [
        {
          "internalType": "address",
          "name": "to",
          "type": "address"
        },
        {
          "internalType": "uint256",
          "name": "amount",
          "type": "uint256"
        }
      ],
      "name": "mint",
      "outputs": [],
      "stateMutability": "nonpayable",
      "type": "function"
    },
    {
      "inputs": [
        {
          "internalType": "address",
          "name": "account",
          "type": "address"
        },
        {
          "internalType": "uint256",
          "name": "amount",
          "type": "uint256"
        }
      ],
      "name": "burn",
      "outputs": [],
      "stateMutability": "nonpayable",
      "type": "function"
    }
  ],
  "bytecode": "0x6101806040526611c37937e08000600b556706f05b59d3b20000600c556706f05b59d3b20000600d553480156200003557600080fd5b5060405162004bed38038062004bed83398181016040528101906200005b9190620006b5565b82806040518060400160405280600181526020017f310000000000000000000000000000000000000000000000000000000000000081525085858160039080519060200190620000ad92919062000403565b508060049080519060200190620000c692919062000403565b50505060008280519060200120905060008280519060200120905060007f8b73c3c69bb8fe3d512ecc4cf759cc79239f7b179b0ffacaa9a75d522b39400f90508260e081815250508161010081815250504660a0818152505062000132818484620002f960201b60201c565b608081815250503073ffffffffffffffffffffffffffffffffffffffff1660c08173ffffffffffffffffffffffffffffffffffffffff16815250508061012081815250505050505050506200019c620001906200033560201b60201c565b6200033d60201b60201c565b8073ffffffffffffffffffffffffffffffffffffffff166101608173ffffffffffffffffffffffffffffffffffffffff16815250506101605173ffffffffffffffffffffffffffffffffffffffff1663c0a16f6a6040518163ffffffff1660e01b8152600401602060405180830381865afa15801562000220573d6000803e3d6000fd5b505050506040513d601f19601f8201168201806040525081019062000246919062000794565b506101605173ffffffffffffffffffffffffffffffffffffffff1663d2f7265a6040518163ffffffff1660e01b8152600401602060405180830381865afa15801562000296573d6000803e3d6000fd5b505050506040513d601f19601f82011682018060405250810190620002bc9190620007c6565b73ffffffffffffffffffffffffffffffffffffffff166101408173ffffffffffffffffffffffffffffffffffffffff168152505050505062000900565b60008383834630604051602001620003169594939291906200083f565b6040516020818303038152906040528051906020012090509392505050565b600033905090565b6000600a60009054906101000a900473ffffffffffffffffffffffffffffffffffffffff16905081600a60006101000a81548173ffffffffffffffffffffffffffffffffffffffff021916908373ffffffffffffffffffffffffffffffffffffffff1602179055508173ffffffffffffffffffffffffffffffffffffffff168173ffffffffffffffffffffffffffffffffffffffff167f8be0079c531659141344cd1fd0a4f28419497f9722a3daafe3b4186f6b6457e060405160405180910390a35050565b8280546200041190620008cb565b90600052602060002090601f01602090048101928262000435576000855562000481565b82601f106200045057805160ff191683800117855562000481565b8280016001018555821562000481579182015b828111156200048057825182559160200191906001019062000463565b5b50905062000490919062000494565b5090565b5b80821115620004af57600081600090555060010162000495565b5090565b6000604051905090565b600080fd5b600080fd5b600080fd5b600080fd5b6000601f19601f8301169050919050565b7f4e487b7100000000000000000000000000000000000000000000000000000000600052604160045260246000fd5b6200051c82620004d1565b810181811067ffffffffffffffff821117156200053e576200053d620004e2565b5b80604052505050565b600062000553620004b3565b905062000561828262000511565b919050565b600067ffffffffffffffff821115620005845762000583620004e2565b5b6200058f82620004d1565b9050602081019050919050565b60005b83811015620005bc5780820151818401526020810190506200059f565b83811115620005cc576000848401525b50505050565b6000620005e9620005e38462000566565b62000547565b905082815260208101848484011115620006085762000607620004cc565b5b620006158482856200059c565b509392505050565b600082601f830112620006355762000634620004c7565b5b815162000647848260208601620005d2565b91505092915050565b600073ffffffffffffffffffffffffffffffffffffffff82169050919050565b60006200067d8262000650565b9050919050565b6200068f8162000670565b81146200069b57600080fd5b50565b600081519050620006af8162000684565b92915050565b600080600060608486031215620006d157620006d0620004bd565b5b600084015167ffffffffffffffff811115620006f257620006f1620004c2565b5b62000700868287016200061d565b935050602084015167ffffffffffffffff811115620007245762000723620004c2565b5b62000732868287016200061d565b925050604062000745868287016200069e565b9150509250925092565b60006200075c8262000670565b9050919050565b6200076e816200074f565b81146200077a57600080fd5b50565b6000815190506200078e8162000763565b92915050565b600060208284031215620007ad57620007ac620004bd565b5b6000620007bd848285016200077d565b91505092915050565b600060208284031215620007df57620007de620004bd565b5b6000620007ef848285016200069e565b91505092915050565b6000819050919050565b6200080d81620007f8565b82525050565b6000819050919050565b620008288162000813565b82525050565b620008398162000670565b82525050565b600060a08201905062000856600083018862000802565b62000865602083018762000802565b62000874604083018662000802565b6200088360608301856200081d565b6200089260808301846200082e565b9695505050505050565b7f4e487b7100000000000000000000000000000000000000000000000000000000600052602260045260246000fd5b60006002820490506001821680620008e457607f821691505b602082108103620008fa57620008f96200089c565b5b50919050565b60805160a05160c05160e0516101005161012051610140516101605161427962000974600039600061077f0152600081816108bb01528181610d350152610f3f015260006119ad015260006119ef015260006119ce01526000611903015260006119590152600061198201526142796000f3fe608060405234801561001057600080fd5b50600436106101fb5760003560e01c8063715018a61161011a578063a9059cbb116100ad578063d505accf1161007c578063d505accf14610604578063dd62ed3e14610620578063df95c3a714610650578063f1127ed81461066c578063f2fde38b1461069c576101fb565b8063a9059cbb1461057c578063c3cda520146105ac578063d1c699aa146105c8578063d2f7265a146105e6576101fb565b806395d89b41116100e957806395d89b41146104e25780639ab24eb0146105005780639dc29fac14610530578063a457c2d71461054c576101fb565b8063715018a61461045a5780637ecebe00146104645780638da5cb5b146104945780638e539e8c146104b2576101fb565b8063372688b011610192578063587cde1e11610161578063587cde1e146103ae5780635c19a95c146103de5780636fcfff45146103fa57806370a082311461042a576101fb565b8063372688b01461031457806339509351146103325780633a46b1a81461036257806340c10f1914610392576101fb565b80631f21f9af116101ce5780631f21f9af1461028a57806323b872dd146102a8578063313ce567146102d85780633644e515146102f6576101fb565b806306fdde0314610200578063095ea7b31461021e5780630f9026181461024e57806318160ddd1461026c575b600080fd5b6102086106b8565b6040516102159190612bce565b60405180910390f35b61023860048036038101906102339190612c89565b61074a565b6040516102459190612ce4565b60405180910390f35b61025661076d565b6040516102639190612d0e565b60405180910390f35b610274610773565b6040516102819190612d0e565b60405180910390f35b61029261077d565b60405161029f9190612d88565b60405180910390f35b6102c260048036038101906102bd9190612da3565b6107a1565b6040516102cf9190612ce4565b60405180910390f35b6102e06107d0565b6040516102ed9190612e12565b60405180910390f35b6102fe6107d9565b60405161030b9190612e46565b60405180910390f35b61031c6107e8565b6040516103299190612d0e565b60405180910390f35b61034c60048036038101906103479190612c89565b6107ee565b6040516103599190612ce4565b60405180910390f35b61037c60048036038101906103779190612c89565b610825565b6040516103899190612d0e565b60405180910390f35b6103ac60048036038101906103a79190612c89565b6108b9565b005b6103c860048036038101906103c39190612e61565b61091f565b6040516103d59190612e9d565b60405180910390f35b6103f860048036038101906103f39190612e61565b610988565b005b610414600480360381019061040f9190612e61565b61099c565b6040516104219190612ed7565b60405180910390f35b610444600480360381019061043f9190612e61565b6109f0565b6040516104519190612d0e565b60405180910390f35b610462610a38565b005b61047e60048036038101906104799190612e61565b610ac0565b60405161048b9190612d0e565b60405180910390f35b61049c610b10565b6040516104a99190612e9d565b60405180910390f35b6104cc60048036038101906104c79190612ef2565b610b3a565b6040516104d99190612d0e565b60405180910390f35b6104ea610b90565b6040516104f79190612bce565b60405180910390f35b61051a60048036038101906105159190612e61565b610c22565b6040516105279190612d0e565b60405180910390f35b61054a60048036038101906105459190612c89565b610d33565b005b61056660048036038101906105619190612c89565b610d99565b6040516105739190612ce4565b60405180910390f35b61059660048036038101906105919190612c89565b610e10565b6040516105a39190612ce4565b60405180910390f35b6105c660048036038101906105c19190612f77565b610e33565b005b6105d0610f37565b6040516105dd9190612d0e565b60405180910390f35b6105ee610f3d565b6040516105fb9190612e9d565b60405180910390f35b61061e60048036038101906106199190613004565b610f61565b005b61063a600480360381019061063591906130a6565b6110a3565b6040516106479190612d0e565b60405180910390f35b61066a600480360381019061066591906130e6565b61112a565b005b61068660048036038101906106819190613152565b61121c565b6040516106939190613207565b60405180910390f35b6106b660048036038101906106b19190612e61565b61132c565b005b6060600380546106c790613251565b80601f01602080910402602001604051908101604052809291908181526020018280546106f390613251565b80156107405780601f1061071557610100808354040283529160200191610740565b820191906000526020600020905b81548152906001019060200180831161072357829003601f168201915b5050505050905090565b600080610755611423565b905061076281858561142b565b600191505092915050565b600c5481565b6000600254905090565b7f000000000000000000000000000000000000000000000000000000000000000081565b6000806107ac611423565b90506107b98582856115f4565b6107c4858585611680565b60019150509392505050565b60006012905090565b60006107e36118ff565b905090565b600d5481565b6000806107f9611423565b905061081a81858561080b85896110a3565b61081591906132b1565b61142b565b600191505092915050565b6000438210610869576040517f08c379a000000000000000000000000000000000000000000000000000000000815260040161086090613353565b60405180910390fd5b6108b1600860008573ffffffffffffffffffffffffffffffffffffffff1673ffffffffffffffffffffffffffffffffffffffff16815260200190815260200160002083611a19565b905092915050565b7f000000000000000000000000000000000000000000000000000000000000000073ffffffffffffffffffffffffffffffffffffffff163373ffffffffffffffffffffffffffffffffffffffff161461091157600080fd5b61091b8282611b25565b5050565b6000600760008373ffffffffffffffffffffffffffffffffffffffff1673ffffffffffffffffffffffffffffffffffffffff16815260200190815260200160002060009054906101000a900473ffffffffffffffffffffffffffffffffffffffff169050919050565b610999610993611423565b82611b33565b50565b60006109e9600860008473ffffffffffffffffffffffffffffffffffffffff1673ffffffffffffffffffffffffffffffffffffffff16815260200190815260200160002080549050611c4d565b9050919050565b60008060008373ffffffffffffffffffffffffffffffffffffffff1673ffffffffffffffffffffffffffffffffffffffff168152602001908152602001600020549050919050565b610a40611423565b73ffffffffffffffffffffffffffffffffffffffff16610a5e610b10565b73ffffffffffffffffffffffffffffffffffffffff1614610ab4576040517f08c379a0000000000000000000000000000000000000000000000000000000008152600401610aab906133bf565b60405180910390fd5b610abe6000611ca0565b565b6000610b09600560008473ffffffffffffffffffffffffffffffffffffffff1673ffffffffffffffffffffffffffffffffffffffff168152602001908152602001600020611d66565b9050919050565b6000600a60009054906101000a900473ffffffffffffffffffffffffffffffffffffffff16905090565b6000438210610b7e576040517f08c379a0000000000000000000000000000000000000000000000000000000008152600401610b7590613353565b60405180910390fd5b610b89600983611a19565b9050919050565b606060048054610b9f90613251565b80601f0160208091040260200160405190810160405280929190818152602001828054610bcb90613251565b8015610c185780601f10610bed57610100808354040283529160200191610c18565b820191906000526020600020905b815481529060010190602001808311610bfb57829003601f168201915b5050505050905090565b600080600860008473ffffffffffffffffffffffffffffffffffffffff1673ffffffffffffffffffffffffffffffffffffffff16815260200190815260200160002080549050905060008114610d0a57600860008473ffffffffffffffffffffffffffffffffffffffff1673ffffffffffffffffffffffffffffffffffffffff168152602001908152602001600020600182610cbe91906133df565b81548110610ccf57610cce613413565b5b9060005260206000200160000160049054906101000a90047bffffffffffffffffffffffffffffffffffffffffffffffffffffffff16610d0d565b60005b7bffffffffffffffffffffffffffffffffffffffffffffffffffffffff16915050919050565b7f000000000000000000000000000000000000000000000000000000000000000073ffffffffffffffffffffffffffffffffffffffff163373ffffffffffffffffffffffffffffffffffffffff1614610d8b57600080fd5b610d958282611d74565b5050565b600080610da4611423565b90506000610db282866110a3565b905083811015610df7576040517f08c379a0000000000000000000000000000000000000000000000000000000008152600401610dee906134b4565b60405180910390fd5b610e04828686840361142b565b60019250505092915050565b600080610e1b611423565b9050610e28818585611680565b600191505092915050565b83421115610e76576040517f08c379a0000000000000000000000000000000000000000000000000000000008152600401610e6d90613520565b60405180910390fd5b6000610ed8610ed07fe48329057bfd03d55e49b547132e39cffd9c1820ad7b9d4c5307691425d15adf898989604051602001610eb59493929190613540565b60405160208183030381529060405280519060200120611d82565b858585611d9c565b9050610ee381611dc7565b8614610f24576040517f08c379a0000000000000000000000000000000000000000000000000000000008152600401610f1b906135d1565b60405180910390fd5b610f2e8188611b33565b50505050505050565b600b5481565b7f000000000000000000000000000000000000000000000000000000000000000081565b83421115610fa4576040517f08c379a0000000000000000000000000000000000000000000000000000000008152600401610f9b9061363d565b60405180910390fd5b60007f6e71edae12b1b97f4d1f60370fef10105fa2faae0126114a169c64845d6126c9888888610fd38c611dc7565b89604051602001610fe99695949392919061365d565b604051602081830303815290604052805190602001209050600061100c82611d82565b9050600061101c82878787611d9c565b90508973ffffffffffffffffffffffffffffffffffffffff168173ffffffffffffffffffffffffffffffffffffffff161461108c576040517f08c379a00000000000000000000000000000000000000000000000000000000081526004016110839061370a565b60405180910390fd5b6110978a8a8a61142b565b50505050505050505050565b6000600160008473ffffffffffffffffffffffffffffffffffffffff1673ffffffffffffffffffffffffffffffffffffffff16815260200190815260200160002060008373ffffffffffffffffffffffffffffffffffffffff1673ffffffffffffffffffffffffffffffffffffffff16815260200190815260200160002054905092915050565b611132611423565b73ffffffffffffffffffffffffffffffffffffffff16611150610b10565b73ffffffffffffffffffffffffffffffffffffffff16146111a6576040517f08c379a000000000000000000000000000000000000000000000000000000000815260040161119d906133bf565b60405180910390fd5b600182036111ba5780600b819055506111e0565b600282036111ce5780600c819055506111df565b600382036111de5780600d819055505b5b5b817f1f77a5f1218c5e380f0425a2e88a823d831b5f8906f5ab4db8b1565a36f780d7826040516112109190612d0e565b60405180910390a25050565b611224612af7565b600860008473ffffffffffffffffffffffffffffffffffffffff1673ffffffffffffffffffffffffffffffffffffffff1681526020019081526020016000208263ffffffff168154811061127b5761127a613413565b5b906000526020600020016040518060400160405290816000820160009054906101000a900463ffffffff1663ffffffff1663ffffffff1681526020016000820160049054906101000a90047bffffffffffffffffffffffffffffffffffffffffffffffffffffffff167bffffffffffffffffffffffffffffffffffffffffffffffffffffffff167bffffffffffffffffffffffffffffffffffffffffffffffffffffffff1681525050905092915050565b611334611423565b73ffffffffffffffffffffffffffffffffffffffff16611352610b10565b73ffffffffffffffffffffffffffffffffffffffff16146113a8576040517f08c379a000000000000000000000000000000000000000000000000000000000815260040161139f906133bf565b60405180910390fd5b600073ffffffffffffffffffffffffffffffffffffffff168173ffffffffffffffffffffffffffffffffffffffff1603611417576040517f08c379a000000000000000000000000000000000000000000000000000000000815260040161140e9061379c565b60405180910390fd5b61142081611ca0565b50565b600033905090565b600073ffffffffffffffffffffffffffffffffffffffff168373ffffffffffffffffffffffffffffffffffffffff160361149a576040517f08c379a00000000000000000000000000000000000000000000000000000000081526004016114919061382e565b60405180910390fd5b600073ffffffffffffffffffffffffffffffffffffffff168273ffffffffffffffffffffffffffffffffffffffff1603611509576040517f08c379a0000000000000000000000000000000000000000000000000000000008152600401611500906138c0565b60405180910390fd5b80600160008573ffffffffffffffffffffffffffffffffffffffff1673ffffffffffffffffffffffffffffffffffffffff16815260200190815260200160002060008473ffffffffffffffffffffffffffffffffffffffff1673ffffffffffffffffffffffffffffffffffffffff168152602001908152602001600020819055508173ffffffffffffffffffffffffffffffffffffffff168373ffffffffffffffffffffffffffffffffffffffff167f8c5be1e5ebec7d5bd14f71427d1e84f3dd0314c0f7b2291e5b200ac8c7c3b925836040516115e79190612d0e565b60405180910390a3505050565b600061160084846110a3565b90507fffffffffffffffffffffffffffffffffffffffffffffffffffffffffffffffff811461167a578181101561166c576040517f08c379a00000000000000000000000000000000000000000000000000000000081526004016116639061392c565b60405180910390fd5b611679848484840361142b565b5b50505050565b600073ffffffffffffffffffffffffffffffffffffffff168373ffffffffffffffffffffffffffffffffffffffff16036116ef576040517f08c379a00000000000000000000000000000000000000000000000000000000081526004016116e6906139be565b60405180910390fd5b600073ffffffffffffffffffffffffffffffffffffffff168273ffffffffffffffffffffffffffffffffffffffff160361175e576040517f08c379a000000000000000000000000000000000000000000000000000000000815260040161175590613a50565b60405180910390fd5b611769838383611e25565b60008060008573ffffffffffffffffffffffffffffffffffffffff1673ffffffffffffffffffffffffffffffffffffffff168152602001908152602001600020549050818110156117ef576040517f08c379a00000000000000000000000000000000000000000000000000000000081526004016117e690613ae2565b60405180910390fd5b8181036000808673ffffffffffffffffffffffffffffffffffffffff1673ffffffffffffffffffffffffffffffffffffffff16815260200190815260200160002081905550816000808573ffffffffffffffffffffffffffffffffffffffff1673ffffffffffffffffffffffffffffffffffffffff168152602001908152602001600020600082825461188291906132b1565b925050819055508273ffffffffffffffffffffffffffffffffffffffff168473ffffffffffffffffffffffffffffffffffffffff167fddf252ad1be2c89b69c2b068fc378daa952ba7f163c4a11628f55a4df523b3ef846040516118e69190612d0e565b60405180910390a36118f9848484611e2a565b50505050565b60007f000000000000000000000000000000000000000000000000000000000000000073ffffffffffffffffffffffffffffffffffffffff163073ffffffffffffffffffffffffffffffffffffffff1614801561197b57507f000000000000000000000000000000000000000000000000000000000000000046145b156119a8577f00000000000000000000000000000000000000000000000000000000000000009050611a16565b611a137f00000000000000000000000000000000000000000000000000000000000000007f00000000000000000000000000000000000000000000000000000000000000007f0000000000000000000000000000000000000000000000000000000000000000611e3a565b90505b90565b6000808380549050905060005b81811015611a98576000611a3a8284611e74565b905084868281548110611a5057611a4f613413565b5b9060005260206000200160000160009054906101000a900463ffffffff1663ffffffff161115611a8257809250611a92565b600181611a8f91906132b1565b91505b50611a26565b60008214611afa5784600183611aae91906133df565b81548110611abf57611abe613413565b5b9060005260206000200160000160049054906101000a90047bffffffffffffffffffffffffffffffffffffffffffffffffffffffff16611afd565b60005b7bffffffffffffffffffffffffffffffffffffffffffffffffffffffff169250505092915050565b611b2f8282611e9a565b5050565b6000611b3e8361091f565b90506000611b4b846109f0565b905082600760008673ffffffffffffffffffffffffffffffffffffffff1673ffffffffffffffffffffffffffffffffffffffff16815260200190815260200160002060006101000a81548173ffffffffffffffffffffffffffffffffffffffff021916908373ffffffffffffffffffffffffffffffffffffffff1602179055508273ffffffffffffffffffffffffffffffffffffffff168273ffffffffffffffffffffffffffffffffffffffff168573ffffffffffffffffffffffffffffffffffffffff167f3134e8a2e6d97e929a7e54011ea5485d7d196dd5f0ba4d4ef95803e8e3fc257f60405160405180910390a4611c47828483611f27565b50505050565b600063ffffffff8016821115611c98576040517f08c379a0000000000000000000000000000000000000000000000000000000008152600401611c8f90613b74565b60405180910390fd5b819050919050565b6000600a60009054906101000a900473ffffffffffffffffffffffffffffffffffffffff16905081600a60006101000a81548173ffffffffffffffffffffffffffffffffffffffff021916908373ffffffffffffffffffffffffffffffffffffffff1602179055508173ffffffffffffffffffffffffffffffffffffffff168173ffffffffffffffffffffffffffffffffffffffff167f8be0079c531659141344cd1fd0a4f28419497f9722a3daafe3b4186f6b6457e060405160405180910390a35050565b600081600001549050919050565b611d7e8282612120565b5050565b6000611d95611d8f6118ff565b8361213e565b9050919050565b6000806000611dad87878787612171565b91509150611dba8161227d565b8192505050949350505050565b600080600560008473ffffffffffffffffffffffffffffffffffffffff1673ffffffffffffffffffffffffffffffffffffffff1681526020019081526020016000209050611e1481611d66565b9150611e1f81612449565b50919050565b505050565b611e3583838361245f565b505050565b60008383834630604051602001611e55959493929190613b94565b6040516020818303038152906040528051906020012090509392505050565b60006002828418611e859190613c16565b828416611e9291906132b1565b905092915050565b611ea4828261248a565b611eac6125e9565b7bffffffffffffffffffffffffffffffffffffffffffffffffffffffff16611ed2610773565b1115611f13576040517f08c379a0000000000000000000000000000000000000000000000000000000008152600401611f0a90613cb9565b60405180910390fd5b611f21600961260d83612623565b50505050565b8173ffffffffffffffffffffffffffffffffffffffff168373ffffffffffffffffffffffffffffffffffffffff1614158015611f635750600081115b1561211b57600073ffffffffffffffffffffffffffffffffffffffff168373ffffffffffffffffffffffffffffffffffffffff161461204157600080611fea600860008773ffffffffffffffffffffffffffffffffffffffff1673ffffffffffffffffffffffffffffffffffffffff16815260200190815260200160002061289b85612623565b915091508473ffffffffffffffffffffffffffffffffffffffff167fdec2bacdd2f05b59de34da9b523dff8be42e5e38e818c82fdb0bae774387a7248383604051612036929190613cd9565b60405180910390a250505b600073ffffffffffffffffffffffffffffffffffffffff168273ffffffffffffffffffffffffffffffffffffffff161461211a576000806120c3600860008673ffffffffffffffffffffffffffffffffffffffff1673ffffffffffffffffffffffffffffffffffffffff16815260200190815260200160002061260d85612623565b915091508373ffffffffffffffffffffffffffffffffffffffff167fdec2bacdd2f05b59de34da9b523dff8be42e5e38e818c82fdb0bae774387a724838360405161210f929190613cd9565b60405180910390a250505b5b505050565b61212a82826128b1565b612138600961289b83612623565b50505050565b60008282604051602001612153929190613d7a565b60405160208183030381529060405280519060200120905092915050565b6000807f7fffffffffffffffffffffffffffffff5d576e7357a4501ddfe92f46681b20a08360001c11156121ac576000600391509150612274565b601b8560ff16141580156121c45750601c8560ff1614155b156121d6576000600491509150612274565b6000600187878787604051600081526020016040526040516121fb9493929190613db1565b6020604051602081039080840390855afa15801561221d573d6000803e3d6000fd5b505050602060405103519050600073ffffffffffffffffffffffffffffffffffffffff168173ffffffffffffffffffffffffffffffffffffffff160361226b57600060019250925050612274565b80600092509250505b94509492505050565b6000600481111561229157612290613df6565b5b8160048111156122a4576122a3613df6565b5b031561244657600160048111156122be576122bd613df6565b5b8160048111156122d1576122d0613df6565b5b03612311576040517f08c379a000000000000000000000000000000000000000000000000000000000815260040161230890613e71565b60405180910390fd5b6002600481111561232557612324613df6565b5b81600481111561233857612337613df6565b5b03612378576040517f08c379a000000000000000000000000000000000000000000000000000000000815260040161236f90613edd565b60405180910390fd5b6003600481111561238c5761238b613df6565b5b81600481111561239f5761239e613df6565b5b036123df576040517f08c379a00000000000000000000000000000000000000000000000000000000081526004016123d690613f6f565b60405180910390fd5b6004808111156123f2576123f1613df6565b5b81600481111561240557612404613df6565b5b03612445576040517f08c379a000000000000000000000000000000000000000000000000000000000815260040161243c90614001565b60405180910390fd5b5b50565b6001816000016000828254019250508190555050565b61246a838383612a87565b6124856124768461091f565b61247f8461091f565b83611f27565b505050565b600073ffffffffffffffffffffffffffffffffffffffff168273ffffffffffffffffffffffffffffffffffffffff16036124f9576040517f08c379a00000000000000000000000000000000000000000000000000000000081526004016124f09061406d565b60405180910390fd5b61250560008383611e25565b806002600082825461251791906132b1565b92505081905550806000808473ffffffffffffffffffffffffffffffffffffffff1673ffffffffffffffffffffffffffffffffffffffff168152602001908152602001600020600082825461256c91906132b1565b925050819055508173ffffffffffffffffffffffffffffffffffffffff16600073ffffffffffffffffffffffffffffffffffffffff167fddf252ad1be2c89b69c2b068fc378daa952ba7f163c4a11628f55a4df523b3ef836040516125d19190612d0e565b60405180910390a36125e560008383611e2a565b5050565b60007bffffffffffffffffffffffffffffffffffffffffffffffffffffffff905090565b6000818361261b91906132b1565b905092915050565b60008060008580549050905060008114612691578560018261264591906133df565b8154811061265657612655613413565b5b9060005260206000200160000160049054906101000a90047bffffffffffffffffffffffffffffffffffffffffffffffffffffffff16612694565b60005b7bffffffffffffffffffffffffffffffffffffffffffffffffffffffff1692506126c283858763ffffffff16565b9150600081118015612715575043866001836126de91906133df565b815481106126ef576126ee613413565b5b9060005260206000200160000160009054906101000a900463ffffffff1663ffffffff16145b156127a25761272382612a8c565b8660018361273191906133df565b8154811061274257612741613413565b5b9060005260206000200160000160046101000a8154817bffffffffffffffffffffffffffffffffffffffffffffffffffffffff02191690837bffffffffffffffffffffffffffffffffffffffffffffffffffffffff160217905550612892565b8560405180604001604052806127b743611c4d565b63ffffffff1681526020016127cb85612a8c565b7bffffffffffffffffffffffffffffffffffffffffffffffffffffffff168152509080600181540180825580915050600190039060005260206000200160009091909190915060008201518160000160006101000a81548163ffffffff021916908363ffffffff16021790555060208201518160000160046101000a8154817bffffffffffffffffffffffffffffffffffffffffffffffffffffffff02191690837bffffffffffffffffffffffffffffffffffffffffffffffffffffffff16021790555050505b50935093915050565b600081836128a991906133df565b905092915050565b600073ffffffffffffffffffffffffffffffffffffffff168273ffffffffffffffffffffffffffffffffffffffff1603612920576040517f08c379a0000000000000000000000000000000000000000000000000000000008152600401612917906140ff565b60405180910390fd5b61292c82600083611e25565b60008060008473ffffffffffffffffffffffffffffffffffffffff1673ffffffffffffffffffffffffffffffffffffffff168152602001908152602001600020549050818110156129b2576040517f08c379a00000000000000000000000000000000000000000000000000000000081526004016129a990614191565b60405180910390fd5b8181036000808573ffffffffffffffffffffffffffffffffffffffff1673ffffffffffffffffffffffffffffffffffffffff168152602001908152602001600020819055508160026000828254612a0991906133df565b92505081905550600073ffffffffffffffffffffffffffffffffffffffff168373ffffffffffffffffffffffffffffffffffffffff167fddf252ad1be2c89b69c2b068fc378daa952ba7f163c4a11628f55a4df523b3ef84604051612a6e9190612d0e565b60405180910390a3612a8283600084611e2a565b505050565b505050565b60007bffffffffffffffffffffffffffffffffffffffffffffffffffffffff8016821115612aef576040517f08c379a0000000000000000000000000000000000000000000000000000000008152600401612ae690614223565b60405180910390fd5b819050919050565b6040518060400160405280600063ffffffff16815260200160007bffffffffffffffffffffffffffffffffffffffffffffffffffffffff1681525090565b600081519050919050565b600082825260208201905092915050565b60005b83811015612b6f578082015181840152602081019050612b54565b83811115612b7e576000848401525b50505050565b6000601f19601f8301169050919050565b6000612ba082612b35565b612baa8185612b40565b9350612bba818560208601612b51565b612bc381612b84565b840191505092915050565b60006020820190508181036000830152612be88184612b95565b905092915050565b600080fd5b600073ffffffffffffffffffffffffffffffffffffffff82169050919050565b6000612c2082612bf5565b9050919050565b612c3081612c15565b8114612c3b57600080fd5b50565b600081359050612c4d81612c27565b92915050565b6000819050919050565b612c6681612c53565b8114612c7157600080fd5b50565b600081359050612c8381612c5d565b92915050565b60008060408385031215612ca057612c9f612bf0565b5b6000612cae85828601612c3e565b9250506020612cbf85828601612c74565b9150509250929050565b60008115159050919050565b612cde81612cc9565b82525050565b6000602082019050612cf96000830184612cd5565b92915050565b612d0881612c53565b82525050565b6000602082019050612d236000830184612cff565b92915050565b6000819050919050565b6000612d4e612d49612d4484612bf5565b612d29565b612bf5565b9050919050565b6000612d6082612d33565b9050919050565b6000612d7282612d55565b9050919050565b612d8281612d67565b82525050565b6000602082019050612d9d6000830184612d79565b92915050565b600080600060608486031215612dbc57612dbb612bf0565b5b6000612dca86828701612c3e565b9350506020612ddb86828701612c3e565b9250506040612dec86828701612c74565b9150509250925092565b600060ff82169050919050565b612e0c81612df6565b82525050565b6000602082019050612e276000830184612e03565b92915050565b6000819050919050565b612e4081612e2d565b82525050565b6000602082019050612e5b6000830184612e37565b92915050565b600060208284031215612e7757612e76612bf0565b5b6000612e8584828501612c3e565b91505092915050565b612e9781612c15565b82525050565b6000602082019050612eb26000830184612e8e565b92915050565b600063ffffffff82169050919050565b612ed181612eb8565b82525050565b6000602082019050612eec6000830184612ec8565b92915050565b600060208284031215612f0857612f07612bf0565b5b6000612f1684828501612c74565b91505092915050565b612f2881612df6565b8114612f3357600080fd5b50565b600081359050612f4581612f1f565b92915050565b612f5481612e2d565b8114612f5f57600080fd5b50565b600081359050612f7181612f4b565b92915050565b60008060008060008060c08789031215612f9457612f93612bf0565b5b6000612fa289828a01612c3e565b9650506020612fb389828a01612c74565b9550506040612fc489828a01612c74565b9450506060612fd589828a01612f36565b9350506080612fe689828a01612f62565b92505060a0612ff789828a01612f62565b9150509295509295509295565b600080600080600080600060e0888a03121561302357613022612bf0565b5b60006130318a828b01612c3e565b97505060206130428a828b01612c3e565b96505060406130538a828b01612c74565b95505060606130648a828b01612c74565b94505060806130758a828b01612f36565b93505060a06130868a828b01612f62565b92505060c06130978a828b01612f62565b91505092959891949750929550565b600080604083850312156130bd576130bc612bf0565b5b60006130cb85828601612c3e565b92505060206130dc85828601612c3e565b9150509250929050565b600080604083850312156130fd576130fc612bf0565b5b600061310b85828601612c74565b925050602061311c85828601612c74565b9150509250929050565b61312f81612eb8565b811461313a57600080fd5b50565b60008135905061314c81613126565b92915050565b6000806040838503121561316957613168612bf0565b5b600061317785828601612c3e565b92505060206131888582860161313d565b9150509250929050565b61319b81612eb8565b82525050565b60007bffffffffffffffffffffffffffffffffffffffffffffffffffffffff82169050919050565b6131d2816131a1565b82525050565b6040820160008201516131ee6000850182613192565b50602082015161320160208501826131c9565b50505050565b600060408201905061321c60008301846131d8565b92915050565b7f4e487b7100000000000000000000000000000000000000000000000000000000600052602260045260246000fd5b6000600282049050600182168061326957607f821691505b60208210810361327c5761327b613222565b5b50919050565b7f4e487b7100000000000000000000000000000000000000000000000000000000600052601160045260246000fd5b60006132bc82612c53565b91506132c783612c53565b9250827fffffffffffffffffffffffffffffffffffffffffffffffffffffffffffffffff038211156132fc576132fb613282565b5b828201905092915050565b7f4552433230566f7465733a20626c6f636b206e6f7420796574206d696e656400600082015250565b600061333d601f83612b40565b915061334882613307565b602082019050919050565b6000602082019050818103600083015261336c81613330565b9050919050565b7f4f776e61626c653a2063616c6c6572206973206e6f7420746865206f776e6572600082015250565b60006133a9602083612b40565b91506133b482613373565b602082019050919050565b600060208201905081810360008301526133d88161339c565b9050919050565b60006133ea82612c53565b91506133f583612c53565b92508282101561340857613407613282565b5b828203905092915050565b7f4e487b7100000000000000000000000000000000000000000000000000000000600052603260045260246000fd5b7f45524332303a2064656372656173656420616c6c6f77616e63652062656c6f7760008201527f207a65726f000000000000000000000000000000000000000000000000000000602082015250565b600061349e602583612b40565b91506134a982613442565b604082019050919050565b600060208201905081810360008301526134cd81613491565b9050919050565b7f4552433230566f7465733a207369676e61747572652065787069726564000000600082015250565b600061350a601d83612b40565b9150613515826134d4565b602082019050919050565b60006020820190508181036000830152613539816134fd565b9050919050565b60006080820190506135556000830187612e37565b6135626020830186612e8e565b61356f6040830185612cff565b61357c6060830184612cff565b95945050505050565b7f4552433230566f7465733a20696e76616c6964206e6f6e636500000000000000600082015250565b60006135bb601983612b40565b91506135c682613585565b602082019050919050565b600060208201905081810360008301526135ea816135ae565b9050919050565b7f45524332305065726d69743a206578706972656420646561646c696e65000000600082015250565b6000613627601d83612b40565b9150613632826135f1565b602082019050919050565b600060208201905081810360008301526136568161361a565b9050919050565b600060c0820190506136726000830189612e37565b61367f6020830188612e8e565b61368c6040830187612e8e565b6136996060830186612cff565b6136a66080830185612cff565b6136b360a0830184612cff565b979650505050505050565b7f45524332305065726d69743a20696e76616c6964207369676e61747572650000600082015250565b60006136f4601e83612b40565b91506136ff826136be565b602082019050919050565b60006020820190508181036000830152613723816136e7565b9050919050565b7f4f776e61626c653a206e6577206f776e657220697320746865207a65726f206160008201527f6464726573730000000000000000000000000000000000000000000000000000602082015250565b6000613786602683612b40565b91506137918261372a565b604082019050919050565b600060208201905081810360008301526137b581613779565b9050919050565b7f45524332303a20617070726f76652066726f6d20746865207a65726f2061646460008201527f7265737300000000000000000000000000000000000000000000000000000000602082015250565b6000613818602483612b40565b9150613823826137bc565b604082019050919050565b600060208201905081810360008301526138478161380b565b9050919050565b7f45524332303a20617070726f766520746f20746865207a65726f20616464726560008201527f7373000000000000000000000000000000000000000000000000000000000000602082015250565b60006138aa602283612b40565b91506138b58261384e565b604082019050919050565b600060208201905081810360008301526138d98161389d565b9050919050565b7f45524332303a20696e73756666696369656e7420616c6c6f77616e6365000000600082015250565b6000613916601d83612b40565b9150613921826138e0565b602082019050919050565b6000602082019050818103600083015261394581613909565b9050919050565b7f45524332303a207472616e736665722066726f6d20746865207a65726f20616460008201527f6472657373000000000000000000000000000000000000000000000000000000602082015250565b60006139a8602583612b40565b91506139b38261394c565b604082019050919050565b600060208201905081810360008301526139d78161399b565b9050919050565b7f45524332303a207472616e7366657220746f20746865207a65726f206164647260008201527f6573730000000000000000000000000000000000000000000000000000000000602082015250565b6000613a3a602383612b40565b9150613a45826139de565b604082019050919050565b60006020820190508181036000830152613a6981613a2d565b9050919050565b7f45524332303a207472616e7366657220616d6f756e742065786365656473206260008201527f616c616e63650000000000000000000000000000000000000000000000000000602082015250565b6000613acc602683612b40565b9150613ad782613a70565b604082019050919050565b60006020820190508181036000830152613afb81613abf565b9050919050565b7f53616665436173743a2076616c756520646f65736e27742066697420696e203360008201527f3220626974730000000000000000000000000000000000000000000000000000602082015250565b6000613b5e602683612b40565b9150613b6982613b02565b604082019050919050565b60006020820190508181036000830152613b8d81613b51565b9050919050565b600060a082019050613ba96000830188612e37565b613bb66020830187612e37565b613bc36040830186612e37565b613bd06060830185612cff565b613bdd6080830184612e8e565b9695505050505050565b7f4e487b7100000000000000000000000000000000000000000000000000000000600052601260045260246000fd5b6000613c2182612c53565b9150613c2c83612c53565b925082613c3c57613c3b613be7565b5b828204905092915050565b7f4552433230566f7465733a20746f74616c20737570706c79207269736b73206f60008201527f766572666c6f77696e6720766f74657300000000000000000000000000000000602082015250565b6000613ca3603083612b40565b9150613cae82613c47565b604082019050919050565b60006020820190508181036000830152613cd281613c96565b9050919050565b6000604082019050613cee6000830185612cff565b613cfb6020830184612cff565b9392505050565b600081905092915050565b7f1901000000000000000000000000000000000000000000000000000000000000600082015250565b6000613d43600283613d02565b9150613d4e82613d0d565b600282019050919050565b6000819050919050565b613d74613d6f82612e2d565b613d59565b82525050565b6000613d8582613d36565b9150613d918285613d63565b602082019150613da18284613d63565b6020820191508190509392505050565b6000608082019050613dc66000830187612e37565b613dd36020830186612e03565b613de06040830185612e37565b613ded6060830184612e37565b95945050505050565b7f4e487b7100000000000000000000000000000000000000000000000000000000600052602160045260246000fd5b7f45434453413a20696e76616c6964207369676e61747572650000000000000000600082015250565b6000613e5b601883612b40565b9150613e6682613e25565b602082019050919050565b60006020820190508181036000830152613e8a81613e4e565b9050919050565b7f45434453413a20696e76616c6964207369676e6174757265206c656e67746800600082015250565b6000613ec7601f83612b40565b9150613ed282613e91565b602082019050919050565b60006020820190508181036000830152613ef681613eba565b9050919050565b7f45434453413a20696e76616c6964207369676e6174757265202773272076616c60008201527f7565000000000000000000000000000000000000000000000000000000000000602082015250565b6000613f59602283612b40565b9150613f6482613efd565b604082019050919050565b60006020820190508181036000830152613f8881613f4c565b9050919050565b7f45434453413a20696e76616c6964207369676e6174757265202776272076616c60008201527f7565000000000000000000000000000000000000000000000000000000000000602082015250565b6000613feb602283612b40565b9150613ff682613f8f565b604082019050919050565b6000602082019050818103600083015261401a81613fde565b9050919050565b7f45524332303a206d696e7420746f20746865207a65726f206164647265737300600082015250565b6000614057601f83612b40565b915061406282614021565b602082019050919050565b600060208201905081810360008301526140868161404a565b9050919050565b7f45524332303a206275726e2066726f6d20746865207a65726f2061646472657360008201527f7300000000000000000000000000000000000000000000000000000000000000602082015250565b60006140e9602183612b40565b91506140f48261408d565b604082019050919050565b60006020820190508181036000830152614118816140dc565b9050919050565b7f45524332303a206275726e20616d6f756e7420657863656564732062616c616e60008201527f6365000000000000000000000000000000000000000000000000000000000000602082015250565b600061417b602283612b40565b91506141868261411f565b604082019050919050565b600060208201905081810360008301526141aa8161416e565b9050919050565b7f53616665436173743a2076616c756520646f65736e27742066697420696e203260008201527f3234206269747300000000000000000000000000000000000000000000000000602082015250565b600061420d602783612b40565b9150614218826141b1565b604082019050919050565b6000602082019050818103600083015261423c81614200565b905091905056fea264697066735822122002b6dfdeb7b591a88d1dfffc407184a918e2960230f9937cba9377e0abe98e0e64736f6c634300080e0033",
  "immutableReferences": {
    "2978": [
      {
        "length": 32,
        "start": 6530
      }
    ],
    "2980": [
      {
        "length": 32,
        "start": 6489
      }
    ],
    "2982": [
      {
        "length": 32,
        "start": 6403
      }
    ],
    "2984": [
      {
        "length": 32,
        "start": 6606
      }
    ],
    "2986": [
      {
        "length": 32,
        "start": 6639
      }
    ],
    "2988": [
      {
        "length": 32,
        "start": 6573
      }
    ],
    "12485": [
      {
        "length": 32,
        "start": 2235
      },
      {
        "length": 32,
        "start": 3381
      },
      {
        "length": 32,
        "start": 3903
      }
    ],
    "12488": [
      {
        "length": 32,
        "start": 1919
      }
    ]
  },
  "source": "// SPDX-License-Identifier: MIT\npragma solidity ^0.8.4;\n\nimport \"@openzeppelin/contracts/access/Ownable.sol\";\nimport \"@openzeppelin/contracts/token/ERC20/ERC20.sol\";\nimport \"@openzeppelin/contracts/token/ERC20/extensions/draft-ERC20Permit.sol\";\nimport \"@openzeppelin/contracts/token/ERC20/extensions/ERC20Votes.sol\";\nimport \"../interfaces/EOption.sol\";\nimport \"../governance/Moret.sol\";\nimport \"./MarketMaker.sol\";\n\ncontract Pool is ERC20, ERC20Permit, ERC20Votes, Ownable, EOption{\n    address public immutable exchange;\n    MarketMaker public immutable marketMaker; // the fixed market maker contract to make markets by providing capital and running hedging programs.\n    \n    // Governable parameters\n    uint256 public exerciseFee= 0.005e18;  // Fees paid to exercise bots for exercising expiring option contracts; default: 0.5%\n    uint256 public volCapacityFactor = 0.5e18; // volatility capacity factor which determines the curvature of AMM functions; default: 0.5\n    uint256 public minVolPrice = 0.5e18; // min annualised vol for trading volatility tokens\n    \n    // constructor, used only in PoolFactor contract\n    constructor(string memory _name, string memory _symbol, address _marketMaker) ERC20(_name, _symbol) ERC20Permit(_name){\n        marketMaker = MarketMaker(_marketMaker);\n        marketMaker.getVolatilityChain(); // use this function to check if underlying exists.\n        exchange = marketMaker.exchange();}\n\n    // Reset functions for parameters\n    function setPoolParameters(uint256 _parameterId, uint256 _newParameter) public onlyOwner(){ \n        if(_parameterId == 1){\n            exerciseFee = _newParameter;}\n        else if(_parameterId == 2){\n            volCapacityFactor = _newParameter;}\n        else if (_parameterId == 3){\n            minVolPrice = _newParameter;}\n        emit ResetParameter(_parameterId, _newParameter);}\n\n    // generic mintable functions\n    function mint(address to, uint256 amount) public {\n        require(msg.sender == exchange);\n        _mint(to,amount);}\n\n    function burn(address account, uint256 amount) public {\n        require(msg.sender == exchange);\n        _burn(account, amount);}\n\n    // The functions below are overrides required by Solidity.\n\n    function _afterTokenTransfer(address from, address to, uint256 amount)\n        internal\n        override(ERC20, ERC20Votes)\n    {\n        super._afterTokenTransfer(from, to, amount);\n    }\n\n    function _mint(address to, uint256 amount)\n        internal\n        override(ERC20, ERC20Votes)\n    {\n        super._mint(to, amount);\n    }\n\n    function _burn(address account, uint256 amount)\n        internal\n        override(ERC20, ERC20Votes)\n    {\n        super._burn(account, amount);\n    }\n}\n",
  "sourcePath": "/Users/mac/Documents/GitHub/moret/contracts/pools/Pool.sol",
  "compiler": {
    "name": "solc",
    "version": "0.8.14+commit.80d49f37.Emscripten.clang"
  },
  "schemaVersion": "3.4.3",
  "updatedAt": "2022-06-12T14:10:12.187Z",
  "devdoc": {
    "kind": "dev",
    "methods": {
      "DOMAIN_SEPARATOR()": {
        "details": "See {IERC20Permit-DOMAIN_SEPARATOR}."
      },
      "allowance(address,address)": {
        "details": "See {IERC20-allowance}."
      },
      "approve(address,uint256)": {
        "details": "See {IERC20-approve}. NOTE: If `amount` is the maximum `uint256`, the allowance is not updated on `transferFrom`. This is semantically equivalent to an infinite approval. Requirements: - `spender` cannot be the zero address."
      },
      "balanceOf(address)": {
        "details": "See {IERC20-balanceOf}."
      },
      "checkpoints(address,uint32)": {
        "details": "Get the `pos`-th checkpoint for `account`."
      },
      "decimals()": {
        "details": "Returns the number of decimals used to get its user representation. For example, if `decimals` equals `2`, a balance of `505` tokens should be displayed to a user as `5.05` (`505 / 10 ** 2`). Tokens usually opt for a value of 18, imitating the relationship between Ether and Wei. This is the value {ERC20} uses, unless this function is overridden; NOTE: This information is only used for _display_ purposes: it in no way affects any of the arithmetic of the contract, including {IERC20-balanceOf} and {IERC20-transfer}."
      },
      "decreaseAllowance(address,uint256)": {
        "details": "Atomically decreases the allowance granted to `spender` by the caller. This is an alternative to {approve} that can be used as a mitigation for problems described in {IERC20-approve}. Emits an {Approval} event indicating the updated allowance. Requirements: - `spender` cannot be the zero address. - `spender` must have allowance for the caller of at least `subtractedValue`."
      },
      "delegate(address)": {
        "details": "Delegate votes from the sender to `delegatee`."
      },
      "delegateBySig(address,uint256,uint256,uint8,bytes32,bytes32)": {
        "details": "Delegates votes from signer to `delegatee`"
      },
      "delegates(address)": {
        "details": "Get the address `account` is currently delegating to."
      },
      "getPastTotalSupply(uint256)": {
        "details": "Retrieve the `totalSupply` at the end of `blockNumber`. Note, this value is the sum of all balances. It is but NOT the sum of all the delegated votes! Requirements: - `blockNumber` must have been already mined"
      },
      "getPastVotes(address,uint256)": {
        "details": "Retrieve the number of votes for `account` at the end of `blockNumber`. Requirements: - `blockNumber` must have been already mined"
      },
      "getVotes(address)": {
        "details": "Gets the current votes balance for `account`"
      },
      "increaseAllowance(address,uint256)": {
        "details": "Atomically increases the allowance granted to `spender` by the caller. This is an alternative to {approve} that can be used as a mitigation for problems described in {IERC20-approve}. Emits an {Approval} event indicating the updated allowance. Requirements: - `spender` cannot be the zero address."
      },
      "name()": {
        "details": "Returns the name of the token."
      },
      "nonces(address)": {
        "details": "See {IERC20Permit-nonces}."
      },
      "numCheckpoints(address)": {
        "details": "Get number of checkpoints for `account`."
      },
      "owner()": {
        "details": "Returns the address of the current owner."
      },
      "permit(address,address,uint256,uint256,uint8,bytes32,bytes32)": {
        "details": "See {IERC20Permit-permit}."
      },
      "renounceOwnership()": {
        "details": "Leaves the contract without owner. It will not be possible to call `onlyOwner` functions anymore. Can only be called by the current owner. NOTE: Renouncing ownership will leave the contract without an owner, thereby removing any functionality that is only available to the owner."
      },
      "symbol()": {
        "details": "Returns the symbol of the token, usually a shorter version of the name."
      },
      "totalSupply()": {
        "details": "See {IERC20-totalSupply}."
      },
      "transfer(address,uint256)": {
        "details": "See {IERC20-transfer}. Requirements: - `to` cannot be the zero address. - the caller must have a balance of at least `amount`."
      },
      "transferFrom(address,address,uint256)": {
        "details": "See {IERC20-transferFrom}. Emits an {Approval} event indicating the updated allowance. This is not required by the EIP. See the note at the beginning of {ERC20}. NOTE: Does not update the allowance if the current allowance is the maximum `uint256`. Requirements: - `from` and `to` cannot be the zero address. - `from` must have a balance of at least `amount`. - the caller must have allowance for ``from``'s tokens of at least `amount`."
      },
      "transferOwnership(address)": {
        "details": "Transfers ownership of the contract to a new account (`newOwner`). Can only be called by the current owner."
      }
    },
    "version": 1
  },
  "userdoc": {
    "kind": "user",
    "methods": {},
    "version": 1
  }
}