{
  "contractName": "VolatilityChain",
  "abi": [
    {
      "inputs": [
        {
          "internalType": "contract AggregatorV3Interface",
          "name": "_priceSource",
          "type": "address"
        },
        {
          "internalType": "uint256",
          "name": "_parameterDecimals",
          "type": "uint256"
        },
        {
          "internalType": "string",
          "name": "_tokenName",
          "type": "string"
        },
        {
          "internalType": "address",
          "name": "_updateAddress",
          "type": "address"
        }
      ],
      "stateMutability": "nonpayable",
      "type": "constructor"
    },
    {
      "anonymous": false,
      "inputs": [
        {
          "indexed": true,
          "internalType": "uint256",
          "name": "_tenor",
          "type": "uint256"
        },
        {
          "indexed": false,
          "internalType": "uint256",
          "name": "_timeStamp",
          "type": "uint256"
        },
        {
          "indexed": false,
          "internalType": "uint256",
          "name": "_price",
          "type": "uint256"
        },
        {
          "indexed": false,
          "internalType": "uint256",
          "name": "_volatility",
          "type": "uint256"
        },
        {
          "indexed": false,
          "internalType": "uint256",
          "name": "_baseTime",
          "type": "uint256"
        }
      ],
      "name": "NewVolatilityChainBlock",
      "type": "event"
    },
    {
      "anonymous": false,
      "inputs": [
        {
          "indexed": true,
          "internalType": "address",
          "name": "previousOwner",
          "type": "address"
        },
        {
          "indexed": true,
          "internalType": "address",
          "name": "newOwner",
          "type": "address"
        }
      ],
      "name": "OwnershipTransferred",
      "type": "event"
    },
    {
      "anonymous": false,
      "inputs": [
        {
          "indexed": true,
          "internalType": "uint256",
          "name": "_tenor",
          "type": "uint256"
        },
        {
          "indexed": false,
          "internalType": "uint256",
          "name": "_timeStamp",
          "type": "uint256"
        },
        {
          "indexed": false,
          "internalType": "address",
          "name": "_executor",
          "type": "address"
        }
      ],
      "name": "RemovedTenor",
      "type": "event"
    },
    {
      "anonymous": false,
      "inputs": [
        {
          "indexed": true,
          "internalType": "uint256",
          "name": "_tenor",
          "type": "uint256"
        },
        {
          "indexed": false,
          "internalType": "uint256",
          "name": "_timeStamp",
          "type": "uint256"
        },
        {
          "indexed": false,
          "internalType": "address",
          "name": "_executor",
          "type": "address"
        }
      ],
      "name": "ResetVolChainParameter",
      "type": "event"
    },
    {
      "anonymous": false,
      "inputs": [
        {
          "indexed": true,
          "internalType": "bytes32",
          "name": "role",
          "type": "bytes32"
        },
        {
          "indexed": true,
          "internalType": "bytes32",
          "name": "previousAdminRole",
          "type": "bytes32"
        },
        {
          "indexed": true,
          "internalType": "bytes32",
          "name": "newAdminRole",
          "type": "bytes32"
        }
      ],
      "name": "RoleAdminChanged",
      "type": "event"
    },
    {
      "anonymous": false,
      "inputs": [
        {
          "indexed": true,
          "internalType": "bytes32",
          "name": "role",
          "type": "bytes32"
        },
        {
          "indexed": true,
          "internalType": "address",
          "name": "account",
          "type": "address"
        },
        {
          "indexed": true,
          "internalType": "address",
          "name": "sender",
          "type": "address"
        }
      ],
      "name": "RoleGranted",
      "type": "event"
    },
    {
      "anonymous": false,
      "inputs": [
        {
          "indexed": true,
          "internalType": "bytes32",
          "name": "role",
          "type": "bytes32"
        },
        {
          "indexed": true,
          "internalType": "address",
          "name": "account",
          "type": "address"
        },
        {
          "indexed": true,
          "internalType": "address",
          "name": "sender",
          "type": "address"
        }
      ],
      "name": "RoleRevoked",
      "type": "event"
    },
    {
      "inputs": [],
      "name": "DEFAULT_ADMIN_ROLE",
      "outputs": [
        {
          "internalType": "bytes32",
          "name": "",
          "type": "bytes32"
        }
      ],
      "stateMutability": "view",
      "type": "function"
    },
    {
      "inputs": [],
      "name": "UPDATE_ROLE",
      "outputs": [
        {
          "internalType": "bytes32",
          "name": "",
          "type": "bytes32"
        }
      ],
      "stateMutability": "view",
      "type": "function"
    },
    {
      "inputs": [
        {
          "internalType": "bytes32",
          "name": "role",
          "type": "bytes32"
        }
      ],
      "name": "getRoleAdmin",
      "outputs": [
        {
          "internalType": "bytes32",
          "name": "",
          "type": "bytes32"
        }
      ],
      "stateMutability": "view",
      "type": "function"
    },
    {
      "inputs": [
        {
          "internalType": "bytes32",
          "name": "role",
          "type": "bytes32"
        },
        {
          "internalType": "address",
          "name": "account",
          "type": "address"
        }
      ],
      "name": "grantRole",
      "outputs": [],
      "stateMutability": "nonpayable",
      "type": "function"
    },
    {
      "inputs": [
        {
          "internalType": "bytes32",
          "name": "role",
          "type": "bytes32"
        },
        {
          "internalType": "address",
          "name": "account",
          "type": "address"
        }
      ],
      "name": "hasRole",
      "outputs": [
        {
          "internalType": "bool",
          "name": "",
          "type": "bool"
        }
      ],
      "stateMutability": "view",
      "type": "function"
    },
    {
      "inputs": [
        {
          "internalType": "uint256",
          "name": "",
          "type": "uint256"
        }
      ],
      "name": "latestBookTime",
      "outputs": [
        {
          "internalType": "uint256",
          "name": "",
          "type": "uint256"
        }
      ],
      "stateMutability": "view",
      "type": "function"
    },
    {
      "inputs": [],
      "name": "owner",
      "outputs": [
        {
          "internalType": "address",
          "name": "",
          "type": "address"
        }
      ],
      "stateMutability": "view",
      "type": "function"
    },
    {
      "inputs": [],
      "name": "renounceOwnership",
      "outputs": [],
      "stateMutability": "nonpayable",
      "type": "function"
    },
    {
      "inputs": [
        {
          "internalType": "bytes32",
          "name": "role",
          "type": "bytes32"
        },
        {
          "internalType": "address",
          "name": "account",
          "type": "address"
        }
      ],
      "name": "renounceRole",
      "outputs": [],
      "stateMutability": "nonpayable",
      "type": "function"
    },
    {
      "inputs": [
        {
          "internalType": "bytes32",
          "name": "role",
          "type": "bytes32"
        },
        {
          "internalType": "address",
          "name": "account",
          "type": "address"
        }
      ],
      "name": "revokeRole",
      "outputs": [],
      "stateMutability": "nonpayable",
      "type": "function"
    },
    {
      "inputs": [
        {
          "internalType": "uint256",
          "name": "",
          "type": "uint256"
        }
      ],
      "name": "sqrtRatios",
      "outputs": [
        {
          "internalType": "uint256",
          "name": "",
          "type": "uint256"
        }
      ],
      "stateMutability": "view",
      "type": "function"
    },
    {
      "inputs": [
        {
          "internalType": "bytes4",
          "name": "interfaceId",
          "type": "bytes4"
        }
      ],
      "name": "supportsInterface",
      "outputs": [
        {
          "internalType": "bool",
          "name": "",
          "type": "bool"
        }
      ],
      "stateMutability": "view",
      "type": "function"
    },
    {
      "inputs": [],
      "name": "tokenHash",
      "outputs": [
        {
          "internalType": "bytes32",
          "name": "",
          "type": "bytes32"
        }
      ],
      "stateMutability": "view",
      "type": "function"
    },
    {
      "inputs": [
        {
          "internalType": "address",
          "name": "newOwner",
          "type": "address"
        }
      ],
      "name": "transferOwnership",
      "outputs": [],
      "stateMutability": "nonpayable",
      "type": "function"
    },
    {
      "inputs": [
        {
          "internalType": "uint256",
          "name": "_tenor",
          "type": "uint256"
        }
      ],
      "name": "queryVol",
      "outputs": [
        {
          "internalType": "uint256",
          "name": "_vol",
          "type": "uint256"
        }
      ],
      "stateMutability": "view",
      "type": "function"
    },
    {
      "inputs": [],
      "name": "queryPrice",
      "outputs": [
        {
          "internalType": "uint256",
          "name": "",
          "type": "uint256"
        }
      ],
      "stateMutability": "view",
      "type": "function"
    },
    {
      "inputs": [
        {
          "internalType": "uint256",
          "name": "_tenor",
          "type": "uint256"
        }
      ],
      "name": "update",
      "outputs": [],
      "stateMutability": "nonpayable",
      "type": "function"
    },
    {
      "inputs": [
        {
          "internalType": "uint256",
          "name": "_tenor",
          "type": "uint256"
        },
        {
          "components": [
            {
              "internalType": "uint256",
              "name": "initialVol",
              "type": "uint256"
            },
            {
              "internalType": "uint256",
              "name": "ltVol",
              "type": "uint256"
            },
            {
              "internalType": "uint256",
              "name": "ltVolWeighted",
              "type": "uint256"
            },
            {
              "internalType": "uint256",
              "name": "w",
              "type": "uint256"
            },
            {
              "internalType": "uint256",
              "name": "p",
              "type": "uint256"
            },
            {
              "internalType": "uint256",
              "name": "q",
              "type": "uint256"
            }
          ],
          "internalType": "struct IVolatilityChain.VolParam",
          "name": "_volParams",
          "type": "tuple"
        }
      ],
      "name": "resetVolParams",
      "outputs": [],
      "stateMutability": "nonpayable",
      "type": "function"
    },
    {
      "inputs": [
        {
          "internalType": "uint256",
          "name": "_tenor",
          "type": "uint256"
        }
      ],
      "name": "removeTenor",
      "outputs": [],
      "stateMutability": "nonpayable",
      "type": "function"
    },
    {
      "inputs": [
        {
          "internalType": "uint256",
          "name": "_tenor",
          "type": "uint256"
        }
      ],
      "name": "getPriceBook",
      "outputs": [
        {
          "components": [
            {
              "internalType": "uint256",
              "name": "startTime",
              "type": "uint256"
            },
            {
              "internalType": "uint256",
              "name": "endTime",
              "type": "uint256"
            },
            {
              "internalType": "uint256",
              "name": "open",
              "type": "uint256"
            },
            {
              "internalType": "uint256",
              "name": "close",
              "type": "uint256"
            },
            {
              "internalType": "uint256",
              "name": "volatility",
              "type": "uint256"
            }
          ],
          "internalType": "struct IVolatilityChain.PriceStamp",
          "name": "",
          "type": "tuple"
        }
      ],
      "stateMutability": "view",
      "type": "function"
    },
    {
      "inputs": [
        {
          "internalType": "uint256",
          "name": "_tenor",
          "type": "uint256"
        }
      ],
      "name": "getSqrtRatio",
      "outputs": [
        {
          "internalType": "uint256",
          "name": "",
          "type": "uint256"
        }
      ],
      "stateMutability": "view",
      "type": "function"
    },
    {
      "inputs": [
        {
          "internalType": "uint256",
          "name": "_tenor",
          "type": "uint256"
        }
      ],
      "name": "getLatestBookTimeSet",
      "outputs": [
        {
          "internalType": "uint256[]",
          "name": "",
          "type": "uint256[]"
        }
      ],
      "stateMutability": "view",
      "type": "function"
    }
  ],
  "bytecode": "0x60e06040523480156200001157600080fd5b5060405162004bd238038062004bd28339818101604052810190620000379190620008a3565b620000576200004b6200032e60201b60201c565b6200033660201b60201c565b600073ffffffffffffffffffffffffffffffffffffffff168173ffffffffffffffffffffffffffffffffffffffff1603620000c9576040517f08c379a0000000000000000000000000000000000000000000000000000000008152600401620000c09062000995565b60405180910390fd5b620000de6000801b33620003fa60201b60201c565b620001107f3ee192ac25847473237ced4bba57f848e1fd794930ff85b4282329058096720582620003fa60201b60201c565b81805190602001206003819055506200013c6201518060046200041060201b620022da1790919060201c565b6200017e576040517f08c379a0000000000000000000000000000000000000000000000000000000008152600401620001759062000a07565b60405180910390fd5b6200019c62093a8060046200041060201b620022da1790919060201c565b620001de576040517f08c379a0000000000000000000000000000000000000000000000000000000008152600401620001d59062000a79565b60405180910390fd5b620001fc62278d0060046200041060201b620022da1790919060201c565b6200023e576040517f08c379a0000000000000000000000000000000000000000000000000000000008152600401620002359062000aeb565b60405180910390fd5b83600260006101000a81548173ffffffffffffffffffffffffffffffffffffffff021916908373ffffffffffffffffffffffffffffffffffffffff1602179055508373ffffffffffffffffffffffffffffffffffffffff1663313ce5676040518163ffffffff1660e01b8152600401602060405180830381865afa158015620002cb573d6000803e3d6000fd5b505050506040513d601f19601f82011682018060405250810190620002f1919062000b4b565b600a620002ff919062000d00565b608081815250508260a0818152505082600a6200031d919062000d51565b60c081815250505050505062000da2565b600033905090565b60008060009054906101000a900473ffffffffffffffffffffffffffffffffffffffff169050816000806101000a81548173ffffffffffffffffffffffffffffffffffffffff021916908373ffffffffffffffffffffffffffffffffffffffff1602179055508173ffffffffffffffffffffffffffffffffffffffff168173ffffffffffffffffffffffffffffffffffffffff167f8be0079c531659141344cd1fd0a4f28419497f9722a3daafe3b4186f6b6457e060405160405180910390a35050565b6200040c82826200043260201b60201c565b5050565b60006200042a836000018360001b6200052360201b60201c565b905092915050565b6200044482826200059d60201b60201c565b6200051f57600180600084815260200190815260200160002060000160008373ffffffffffffffffffffffffffffffffffffffff1673ffffffffffffffffffffffffffffffffffffffff16815260200190815260200160002060006101000a81548160ff021916908315150217905550620004c46200032e60201b60201c565b73ffffffffffffffffffffffffffffffffffffffff168173ffffffffffffffffffffffffffffffffffffffff16837f2f8788117e7eff1d82e926ec794901d17c78024a50270940304540a733656f0d60405160405180910390a45b5050565b60006200053783836200060860201b60201c565b6200059257826000018290806001815401808255809150506001900390600052602060002001600090919091909150558260000180549050836001016000848152602001908152602001600020819055506001905062000597565b600090505b92915050565b60006001600084815260200190815260200160002060000160008373ffffffffffffffffffffffffffffffffffffffff1673ffffffffffffffffffffffffffffffffffffffff16815260200190815260200160002060009054906101000a900460ff16905092915050565b600080836001016000848152602001908152602001600020541415905092915050565b6000604051905090565b600080fd5b600080fd5b600073ffffffffffffffffffffffffffffffffffffffff82169050919050565b60006200066c826200063f565b9050919050565b600062000680826200065f565b9050919050565b620006928162000673565b81146200069e57600080fd5b50565b600081519050620006b28162000687565b92915050565b6000819050919050565b620006cd81620006b8565b8114620006d957600080fd5b50565b600081519050620006ed81620006c2565b92915050565b600080fd5b600080fd5b6000601f19601f8301169050919050565b7f4e487b7100000000000000000000000000000000000000000000000000000000600052604160045260246000fd5b6200074882620006fd565b810181811067ffffffffffffffff821117156200076a57620007696200070e565b5b80604052505050565b60006200077f6200062b565b90506200078d82826200073d565b919050565b600067ffffffffffffffff821115620007b057620007af6200070e565b5b620007bb82620006fd565b9050602081019050919050565b60005b83811015620007e8578082015181840152602081019050620007cb565b60008484015250505050565b60006200080b620008058462000792565b62000773565b9050828152602081018484840111156200082a5762000829620006f8565b5b62000837848285620007c8565b509392505050565b600082601f830112620008575762000856620006f3565b5b815162000869848260208601620007f4565b91505092915050565b6200087d816200065f565b81146200088957600080fd5b50565b6000815190506200089d8162000872565b92915050565b60008060008060808587031215620008c057620008bf62000635565b5b6000620008d087828801620006a1565b9450506020620008e387828801620006dc565b935050604085015167ffffffffffffffff8111156200090757620009066200063a565b5b62000915878288016200083f565b925050606062000928878288016200088c565b91505092959194509250565b600082825260208201905092915050565b7f3061646472000000000000000000000000000000000000000000000000000000600082015250565b60006200097d60058362000934565b91506200098a8262000945565b602082019050919050565b60006020820190508181036000830152620009b0816200096e565b9050919050565b7f2d31640000000000000000000000000000000000000000000000000000000000600082015250565b6000620009ef60038362000934565b9150620009fc82620009b7565b602082019050919050565b6000602082019050818103600083015262000a2281620009e0565b9050919050565b7f2d37640000000000000000000000000000000000000000000000000000000000600082015250565b600062000a6160038362000934565b915062000a6e8262000a29565b602082019050919050565b6000602082019050818103600083015262000a948162000a52565b9050919050565b7f2d33306400000000000000000000000000000000000000000000000000000000600082015250565b600062000ad360048362000934565b915062000ae08262000a9b565b602082019050919050565b6000602082019050818103600083015262000b068162000ac4565b9050919050565b600060ff82169050919050565b62000b258162000b0d565b811462000b3157600080fd5b50565b60008151905062000b458162000b1a565b92915050565b60006020828403121562000b645762000b6362000635565b5b600062000b748482850162000b34565b91505092915050565b7f4e487b7100000000000000000000000000000000000000000000000000000000600052601160045260246000fd5b60008160011c9050919050565b6000808291508390505b600185111562000c0b5780860481111562000be35762000be262000b7d565b5b600185161562000bf35780820291505b808102905062000c038562000bac565b945062000bc3565b94509492505050565b60008262000c26576001905062000cf9565b8162000c36576000905062000cf9565b816001811462000c4f576002811462000c5a5762000c90565b600191505062000cf9565b60ff84111562000c6f5762000c6e62000b7d565b5b8360020a91508482111562000c895762000c8862000b7d565b5b5062000cf9565b5060208310610133831016604e8410600b841016171562000cca5782820a90508381111562000cc45762000cc362000b7d565b5b62000cf9565b62000cd9848484600162000bb9565b9250905081840481111562000cf35762000cf262000b7d565b5b81810290505b9392505050565b600062000d0d82620006b8565b915062000d1a8362000b0d565b925062000d497fffffffffffffffffffffffffffffffffffffffffffffffffffffffffffffffff848462000c14565b905092915050565b600062000d5e82620006b8565b915062000d6b83620006b8565b925062000d9a7fffffffffffffffffffffffffffffffffffffffffffffffffffffffffffffffff848462000c14565b905092915050565b60805160a05160c051613dcb62000e07600039600081816110ba01528181611167015281816115e8015261172a01526000505060008181610d7401528181610df501528181610e2501528181610e6301528181611a3101526121260152613dcb6000f3fe608060405234801561001057600080fd5b50600436106101415760003560e01c80638da5cb5b116100b8578063b0667cf81161007c578063b0667cf814610386578063cca49473146103a4578063cfc2dc20146103c2578063d547741f146103f2578063f2fde38b1461040e578063fe67ec0c1461042a57610141565b80638da5cb5b146102ce57806391d14854146102ec578063966e17661461031c578063a217fddf14610338578063a5fb26991461035657610141565b806336568abe1161010a57806336568abe146101fc578063430417f7146102185780636c23852d14610248578063715018a614610278578063717300021461028257806382ab890a146102b257610141565b80624978461461014657806301ffc9a714610164578063248a9ca314610194578063285f9457146101c45780632f2ff15d146101e0575b600080fd5b61014e61045a565b60405161015b9190612c31565b60405180910390f35b61017e60048036038101906101799190612cb3565b61047e565b60405161018b9190612cfb565b60405180910390f35b6101ae60048036038101906101a99190612d42565b6104f8565b6040516101bb9190612c31565b60405180910390f35b6101de60048036038101906101d99190612da5565b610518565b005b6101fa60048036038101906101f59190612e30565b610677565b005b61021660048036038101906102119190612e30565b610698565b005b610232600480360381019061022d9190612da5565b61071b565b60405161023f9190612e7f565b60405180910390f35b610262600480360381019061025d9190612da5565b610861565b60405161026f9190612f11565b60405180910390f35b610280610937565b005b61029c60048036038101906102979190612da5565b6109bf565b6040516102a99190612fdb565b60405180910390f35b6102cc60048036038101906102c79190612da5565b6109e3565b005b6102d661134b565b6040516102e3919061300c565b60405180910390f35b61030660048036038101906103019190612e30565b611374565b6040516103139190612cfb565b60405180910390f35b61033660048036038101906103319190613158565b6113df565b005b610340611951565b60405161034d9190612c31565b60405180910390f35b610370600480360381019061036b9190612da5565b611958565b60405161037d9190612e7f565b60405180910390f35b61038e611970565b60405161039b9190612e7f565b60405180910390f35b6103ac611ab4565b6040516103b99190612c31565b60405180910390f35b6103dc60048036038101906103d79190612da5565b611aba565b6040516103e99190612e7f565b60405180910390f35b61040c60048036038101906104079190612e30565b6121aa565b005b61042860048036038101906104239190613198565b6121cb565b005b610444600480360381019061043f9190612da5565b6122c2565b6040516104519190612e7f565b60405180910390f35b7f3ee192ac25847473237ced4bba57f848e1fd794930ff85b4282329058096720581565b60007f7965db0b000000000000000000000000000000000000000000000000000000007bffffffffffffffffffffffffffffffffffffffffffffffffffffffff1916827bffffffffffffffffffffffffffffffffffffffffffffffffffffffff191614806104f157506104f0826122f4565b5b9050919050565b600060016000838152602001908152602001600020600101549050919050565b61052061235e565b73ffffffffffffffffffffffffffffffffffffffff1661053e61134b565b73ffffffffffffffffffffffffffffffffffffffff1614610594576040517f08c379a000000000000000000000000000000000000000000000000000000000815260040161058b90613222565b60405180910390fd5b6105a881600461236690919063ffffffff16565b6105e7576040517f08c379a00000000000000000000000000000000000000000000000000000000081526004016105de9061328e565b60405180910390fd5b6105fb81600461238090919063ffffffff16565b61063a576040517f08c379a0000000000000000000000000000000000000000000000000000000008152600401610631906132fa565b60405180910390fd5b807f16525c17fb1186872bcf57b8588cd51b6e0a69ed167b3471bdd67b5ac538c47e423360405161066c92919061331a565b60405180910390a250565b610680826104f8565b6106898161239a565b61069383836123ae565b505050565b6106a061235e565b73ffffffffffffffffffffffffffffffffffffffff168173ffffffffffffffffffffffffffffffffffffffff161461070d576040517f08c379a0000000000000000000000000000000000000000000000000000000008152600401610704906133b5565b60405180910390fd5b610717828261248e565b5050565b600061073182600461236690919063ffffffff16565b1561075157600a600083815260200190815260200160002054905061085c565b633b9aca006301e1338073__MathLib_______________________________63de7f61709091856040518363ffffffff1660e01b81526004016107959291906133e4565b602060405180830381865af41580156107b2573d6000803e3d6000fd5b505050506040513d601f19601f820116820180604052508101906107d69190613422565b73__MathLib_______________________________63677342ce90916040518263ffffffff1660e01b815260040161080e919061344f565b602060405180830381865af415801561082b573d6000803e3d6000fd5b505050506040513d601f19601f8201168201806040525081019061084f9190613422565b6108599190613499565b90505b919050565b610869612be9565b61087d82600461236690919063ffffffff16565b6108bc576040517f08c379a00000000000000000000000000000000000000000000000000000000081526004016108b39061353f565b60405180910390fd5b600660008381526020019081526020016000206000600760008581526020019081526020016000205481526020019081526020016000206040518060a0016040529081600082015481526020016001820154815260200160028201548152602001600382015481526020016004820154815250509050919050565b61093f61235e565b73ffffffffffffffffffffffffffffffffffffffff1661095d61134b565b73ffffffffffffffffffffffffffffffffffffffff16146109b3576040517f08c379a00000000000000000000000000000000000000000000000000000000081526004016109aa90613222565b60405180910390fd5b6109bd6000612570565b565b60606109dc60086000848152602001908152602001600020612634565b9050919050565b7f3ee192ac25847473237ced4bba57f848e1fd794930ff85b42823290580967205610a0d8161239a565b610a2182600461236690919063ffffffff16565b610a60576040517f08c379a0000000000000000000000000000000000000000000000000000000008152600401610a57906135ab565b60405180910390fd5b600080600260009054906101000a900473ffffffffffffffffffffffffffffffffffffffff1673ffffffffffffffffffffffffffffffffffffffff1663feaf968c6040518163ffffffff1660e01b815260040160a060405180830381865afa158015610ad0573d6000803e3d6000fd5b505050506040513d601f19601f82011682018060405250810190610af49190613643565b509350509250506000610b0683612655565b90506000600760008781526020019081526020016000205490506000610b3d600860008981526020019081526020016000206126a2565b90506000811115610ccb5760008190505b6000811115610cc9576000610b8a600183610b6991906136be565b600860008c81526020019081526020016000206126b790919063ffffffff16565b9050603c8987610b9a91906136be565b610ba491906136f2565b8111610cb557603c8987610bb891906136be565b610bc291906136f2565b841115610bd157809350610cb4565b83811115610c4557610bfe84600860008c815260200190815260200160002061238090919063ffffffff16565b610c3d576040517f08c379a0000000000000000000000000000000000000000000000000000000008152600401610c3490613772565b60405180910390fd5b809350610cb3565b83811015610cb257610c7281600860008c815260200190815260200160002061238090919063ffffffff16565b610cb1576040517f08c379a0000000000000000000000000000000000000000000000000000000008152600401610ca8906137de565b60405180910390fd5b5b5b5b5b508080610cc1906137fe565b915050610b4e565b505b600060066000898152602001908152602001600020600084815260200190815260200160002090506000600660008a815260200190815260200160002060008781526020019081526020016000209050838160000181905550858160010181905550816003015481600201819055508481600301819055506000816002015490506000868210610e23578673__MathLib_______________________________63b3947c1790917f0000000000000000000000000000000000000000000000000000000000000000856040518463ffffffff1660e01b8152600401610db293929190613827565b602060405180830381865af4158015610dcf573d6000803e3d6000fd5b505050506040513d601f19601f82011682018060405250810190610df39190613422565b7f0000000000000000000000000000000000000000000000000000000000000000610e1e91906136be565b610eed565b7f00000000000000000000000000000000000000000000000000000000000000008773__MathLib_______________________________63b3947c1790917f0000000000000000000000000000000000000000000000000000000000000000866040518463ffffffff1660e01b8152600401610ea193929190613827565b602060405180830381865af4158015610ebe573d6000803e3d6000fd5b505050506040513d601f19601f82011682018060405250810190610ee29190613422565b610eec91906136be565b5b90508073__MathLib_______________________________63b3947c1790918d73__MathLib_______________________________63677342ce90916040518263ffffffff1660e01b8152600401610f45919061344f565b602060405180830381865af4158015610f62573d6000803e3d6000fd5b505050506040513d601f19601f82011682018060405250810190610f869190613422565b898c610f9291906136be565b73__MathLib_______________________________63677342ce90916040518263ffffffff1660e01b8152600401610fca919061344f565b602060405180830381865af4158015610fe7573d6000803e3d6000fd5b505050506040513d601f19601f8201168201806040525081019061100b9190613422565b6040518463ffffffff1660e01b815260040161102993929190613827565b602060405180830381865af4158015611046573d6000803e3d6000fd5b505050506040513d601f19601f8201168201806040525081019061106a9190613422565b90506000600960008d81526020019081526020016000209050846004015485600401546110979190613499565b73__MathLib_______________________________63b3947c17909183600401547f00000000000000000000000000000000000000000000000000000000000000006040518463ffffffff1660e01b81526004016110f793929190613827565b602060405180830381865af4158015611114573d6000803e3d6000fd5b505050506040513d601f19601f820116820180604052508101906111389190613422565b82836111449190613499565b73__MathLib_______________________________63b3947c17909184600501547f00000000000000000000000000000000000000000000000000000000000000006040518463ffffffff1660e01b81526004016111a493929190613827565b602060405180830381865af41580156111c1573d6000803e3d6000fd5b505050506040513d601f19601f820116820180604052508101906111e59190613422565b82600201546111f491906136f2565b6111fe91906136f2565b73__MathLib_______________________________63677342ce90916040518263ffffffff1660e01b8152600401611236919061344f565b602060405180830381865af4158015611253573d6000803e3d6000fd5b505050506040513d601f19601f820116820180604052508101906112779190613422565b846004018190555088600760008e8152602001908152602001600020819055506112bc89600860008f81526020019081526020016000206122da90919063ffffffff16565b6112fb576040517f08c379a00000000000000000000000000000000000000000000000000000000081526004016112f2906138aa565b60405180910390fd5b8b7f1410110200d988d0e4f783607f58e9fa21cb1c976ce3c8f92c3e6da080002d3b8a8a87600401548b60405161133594939291906138ca565b60405180910390a2505050505050505050505050565b60008060009054906101000a900473ffffffffffffffffffffffffffffffffffffffff16905090565b60006001600084815260200190815260200160002060000160008373ffffffffffffffffffffffffffffffffffffffff1673ffffffffffffffffffffffffffffffffffffffff16815260200190815260200160002060009054906101000a900460ff16905092915050565b6113e761235e565b73ffffffffffffffffffffffffffffffffffffffff1661140561134b565b73ffffffffffffffffffffffffffffffffffffffff161461145b576040517f08c379a000000000000000000000000000000000000000000000000000000000815260040161145290613222565b60405180910390fd5b61146f82600461236690919063ffffffff16565b6114c7576114878260046122da90919063ffffffff16565b6114c6576040517f08c379a00000000000000000000000000000000000000000000000000000000081526004016114bd9061395b565b60405180910390fd5b5b633b9aca006301e1338073__MathLib_______________________________63de7f61709091856040518363ffffffff1660e01b815260040161150b9291906133e4565b602060405180830381865af4158015611528573d6000803e3d6000fd5b505050506040513d601f19601f8201168201806040525081019061154c9190613422565b73__MathLib_______________________________63677342ce90916040518263ffffffff1660e01b8152600401611584919061344f565b602060405180830381865af41580156115a1573d6000803e3d6000fd5b505050506040513d601f19601f820116820180604052508101906115c59190613422565b6115cf9190613499565b600a6000848152602001908152602001600020819055507f00000000000000000000000000000000000000000000000000000000000000008160a001518260800151836060015161162091906136f2565b61162a91906136f2565b1461166a576040517f08c379a0000000000000000000000000000000000000000000000000000000008152600401611661906139c7565b60405180910390fd5b8060096000848152602001908152602001600020600082015181600001556020820151816001015560408201518160020155606082015181600301556080820151816004015560a08201518160050155905050600960008381526020019081526020016000206001015460096000848152602001908152602001600020600101546116f59190613499565b73__MathLib_______________________________63b3947c17909160096000868152602001908152602001600020600301547f00000000000000000000000000000000000000000000000000000000000000006040518463ffffffff1660e01b815260040161176793929190613827565b602060405180830381865af4158015611784573d6000803e3d6000fd5b505050506040513d601f19601f820116820180604052508101906117a89190613422565b6009600084815260200190815260200160002060020181905550600080600260009054906101000a900473ffffffffffffffffffffffffffffffffffffffff1673ffffffffffffffffffffffffffffffffffffffff1663feaf968c6040518163ffffffff1660e01b815260040160a060405180830381865afa158015611832573d6000803e3d6000fd5b505050506040513d601f19601f820116820180604052508101906118569190613643565b50935050925050600061186883612655565b90508160076000878152602001908152602001600020819055506118a782600860008881526020019081526020016000206122da90919063ffffffff16565b5060006006600087815260200190815260200160002060008481526020019081526020016000209050828160010181905581600001819055506009600087815260200190815260200160002060000154816004018190555081816003018190558160020181905550857fc9da3ef1cd9a1e60f158af3c87742d2ad2d68916eb599d3d740a66844efb1325423360405161194192919061331a565b60405180910390a2505050505050565b6000801b81565b600a6020528060005260406000206000915090505481565b600080600260009054906101000a900473ffffffffffffffffffffffffffffffffffffffff1673ffffffffffffffffffffffffffffffffffffffff1663feaf968c6040518163ffffffff1660e01b815260040160a060405180830381865afa1580156119e0573d6000803e3d6000fd5b505050506040513d601f19601f82011682018060405250810190611a049190613643565b505050915050611a1381612655565b73__MathLib_______________________________63de7f617090917f00000000000000000000000000000000000000000000000000000000000000006040518363ffffffff1660e01b8152600401611a6d9291906133e4565b602060405180830381865af4158015611a8a573d6000803e3d6000fd5b505050506040513d601f19601f82011682018060405250810190611aae9190613422565b91505090565b60035481565b6000611ad082600461236690919063ffffffff16565b15611b175760066000838152602001908152602001600020600060076000858152602001908152602001600020548152602001908152602001600020600401549050612107565b6000806000611b2660046126a2565b905060005b81811015611ba3576000611b498260046126b790919063ffffffff16565b90508681118015611b64575084811080611b635750600085145b5b15611b6d578094505b8681108015611b86575083811180611b855750600084145b5b15611b8f578093505b508080611b9b906139e7565b915050611b2b565b50600083148015611bb45750600082115b15611d70576000600660008481526020019081526020016000206000600760008681526020019081526020016000205481526020019081526020016000206004015490508073__MathLib_______________________________63b3947c1790918873__MathLib_______________________________63677342ce90916040518263ffffffff1660e01b8152600401611c4e919061344f565b602060405180830381865af4158015611c6b573d6000803e3d6000fd5b505050506040513d601f19601f82011682018060405250810190611c8f9190613422565b8673__MathLib_______________________________63677342ce90916040518263ffffffff1660e01b8152600401611cc8919061344f565b602060405180830381865af4158015611ce5573d6000803e3d6000fd5b505050506040513d601f19601f82011682018060405250810190611d099190613422565b6040518463ffffffff1660e01b8152600401611d2793929190613827565b602060405180830381865af4158015611d44573d6000803e3d6000fd5b505050506040513d601f19601f82011682018060405250810190611d689190613422565b945050612103565b600082148015611d805750600083115b15611f3c576000600660008581526020019081526020016000206000600760008781526020019081526020016000205481526020019081526020016000206004015490508073__MathLib_______________________________63b3947c1790918873__MathLib_______________________________63677342ce90916040518263ffffffff1660e01b8152600401611e1a919061344f565b602060405180830381865af4158015611e37573d6000803e3d6000fd5b505050506040513d601f19601f82011682018060405250810190611e5b9190613422565b8773__MathLib_______________________________63677342ce90916040518263ffffffff1660e01b8152600401611e94919061344f565b602060405180830381865af4158015611eb1573d6000803e3d6000fd5b505050506040513d601f19601f82011682018060405250810190611ed59190613422565b6040518463ffffffff1660e01b8152600401611ef393929190613827565b602060405180830381865af4158015611f10573d6000803e3d6000fd5b505050506040513d601f19601f82011682018060405250810190611f349190613422565b945050612102565b600083118015611f4c5750600082115b156121015760006006600084815260200190815260200160002060006007600086815260200190815260200160002054815260200190815260200160002060040154905060006006600086815260200190815260200160002060006007600088815260200190815260200160002054815260200190815260200160002060040154905060008486611fdd91906136be565b90508173__MathLib_______________________________63b3947c179091878b61200891906136be565b846040518463ffffffff1660e01b815260040161202793929190613827565b602060405180830381865af4158015612044573d6000803e3d6000fd5b505050506040513d601f19601f820116820180604052508101906120689190613422565b8373__MathLib_______________________________63b3947c1790918b8a61209191906136be565b856040518463ffffffff1660e01b81526004016120b093929190613827565b602060405180830381865af41580156120cd573d6000803e3d6000fd5b505050506040513d601f19601f820116820180604052508101906120f19190613422565b6120fb91906136f2565b96505050505b5b5b5050505b8073__MathLib_______________________________63de7f617090917f00000000000000000000000000000000000000000000000000000000000000006040518363ffffffff1660e01b81526004016121629291906133e4565b602060405180830381865af415801561217f573d6000803e3d6000fd5b505050506040513d601f19601f820116820180604052508101906121a39190613422565b9050919050565b6121b3826104f8565b6121bc8161239a565b6121c6838361248e565b505050565b6121d361235e565b73ffffffffffffffffffffffffffffffffffffffff166121f161134b565b73ffffffffffffffffffffffffffffffffffffffff1614612247576040517f08c379a000000000000000000000000000000000000000000000000000000000815260040161223e90613222565b60405180910390fd5b600073ffffffffffffffffffffffffffffffffffffffff168173ffffffffffffffffffffffffffffffffffffffff16036122b6576040517f08c379a00000000000000000000000000000000000000000000000000000000081526004016122ad90613aa1565b60405180910390fd5b6122bf81612570565b50565b60076020528060005260406000206000915090505481565b60006122ec836000018360001b6126d1565b905092915050565b60007f01ffc9a7000000000000000000000000000000000000000000000000000000007bffffffffffffffffffffffffffffffffffffffffffffffffffffffff1916827bffffffffffffffffffffffffffffffffffffffffffffffffffffffff1916149050919050565b600033905090565b6000612378836000018360001b612741565b905092915050565b6000612392836000018360001b612764565b905092915050565b6123ab816123a661235e565b612878565b50565b6123b88282611374565b61248a57600180600084815260200190815260200160002060000160008373ffffffffffffffffffffffffffffffffffffffff1673ffffffffffffffffffffffffffffffffffffffff16815260200190815260200160002060006101000a81548160ff02191690831515021790555061242f61235e565b73ffffffffffffffffffffffffffffffffffffffff168173ffffffffffffffffffffffffffffffffffffffff16837f2f8788117e7eff1d82e926ec794901d17c78024a50270940304540a733656f0d60405160405180910390a45b5050565b6124988282611374565b1561256c5760006001600084815260200190815260200160002060000160008373ffffffffffffffffffffffffffffffffffffffff1673ffffffffffffffffffffffffffffffffffffffff16815260200190815260200160002060006101000a81548160ff02191690831515021790555061251161235e565b73ffffffffffffffffffffffffffffffffffffffff168173ffffffffffffffffffffffffffffffffffffffff16837ff6391f5c32d9c69d2a47ea670b442974b53935d1edc7fd64eb21e047a839171b60405160405180910390a45b5050565b60008060009054906101000a900473ffffffffffffffffffffffffffffffffffffffff169050816000806101000a81548173ffffffffffffffffffffffffffffffffffffffff021916908373ffffffffffffffffffffffffffffffffffffffff1602179055508173ffffffffffffffffffffffffffffffffffffffff168173ffffffffffffffffffffffffffffffffffffffff167f8be0079c531659141344cd1fd0a4f28419497f9722a3daafe3b4186f6b6457e060405160405180910390a35050565b6060600061264483600001612915565b905060608190508092505050919050565b60008082121561269a576040517f08c379a000000000000000000000000000000000000000000000000000000000815260040161269190613b0d565b60405180910390fd5b819050919050565b60006126b082600001612971565b9050919050565b60006126c68360000183612982565b60001c905092915050565b60006126dd8383612741565b61273657826000018290806001815401808255809150506001900390600052602060002001600090919091909150558260000180549050836001016000848152602001908152602001600020819055506001905061273b565b600090505b92915050565b600080836001016000848152602001908152602001600020541415905092915050565b6000808360010160008481526020019081526020016000205490506000811461286c57600060018261279691906136be565b90506000600186600001805490506127ae91906136be565b905081811461281d5760008660000182815481106127cf576127ce613b2d565b5b90600052602060002001549050808760000184815481106127f3576127f2613b2d565b5b90600052602060002001819055508387600101600083815260200190815260200160002081905550505b8560000180548061283157612830613b5c565b5b600190038181906000526020600020016000905590558560010160008681526020019081526020016000206000905560019350505050612872565b60009150505b92915050565b6128828282611374565b612911576128a78173ffffffffffffffffffffffffffffffffffffffff1660146129ad565b6128b58360001c60206129ad565b6040516020016128c6929190613c94565b6040516020818303038152906040526040517f08c379a00000000000000000000000000000000000000000000000000000000081526004016129089190613d07565b60405180910390fd5b5050565b60608160000180548060200260200160405190810160405280929190818152602001828054801561296557602002820191906000526020600020905b815481526020019060010190808311612951575b50505050509050919050565b600081600001805490509050919050565b600082600001828154811061299a57612999613b2d565b5b9060005260206000200154905092915050565b6060600060028360026129c09190613499565b6129ca91906136f2565b67ffffffffffffffff8111156129e3576129e261303d565b5b6040519080825280601f01601f191660200182016040528015612a155781602001600182028036833780820191505090505b5090507f300000000000000000000000000000000000000000000000000000000000000081600081518110612a4d57612a4c613b2d565b5b60200101907effffffffffffffffffffffffffffffffffffffffffffffffffffffffffffff1916908160001a9053507f780000000000000000000000000000000000000000000000000000000000000081600181518110612ab157612ab0613b2d565b5b60200101907effffffffffffffffffffffffffffffffffffffffffffffffffffffffffffff1916908160001a90535060006001846002612af19190613499565b612afb91906136f2565b90505b6001811115612b9b577f3031323334353637383961626364656600000000000000000000000000000000600f861660108110612b3d57612b3c613b2d565b5b1a60f81b828281518110612b5457612b53613b2d565b5b60200101907effffffffffffffffffffffffffffffffffffffffffffffffffffffffffffff1916908160001a905350600485901c945080612b94906137fe565b9050612afe565b5060008414612bdf576040517f08c379a0000000000000000000000000000000000000000000000000000000008152600401612bd690613d75565b60405180910390fd5b8091505092915050565b6040518060a0016040528060008152602001600081526020016000815260200160008152602001600081525090565b6000819050919050565b612c2b81612c18565b82525050565b6000602082019050612c466000830184612c22565b92915050565b6000604051905090565b600080fd5b60007fffffffff0000000000000000000000000000000000000000000000000000000082169050919050565b612c9081612c5b565b8114612c9b57600080fd5b50565b600081359050612cad81612c87565b92915050565b600060208284031215612cc957612cc8612c56565b5b6000612cd784828501612c9e565b91505092915050565b60008115159050919050565b612cf581612ce0565b82525050565b6000602082019050612d106000830184612cec565b92915050565b612d1f81612c18565b8114612d2a57600080fd5b50565b600081359050612d3c81612d16565b92915050565b600060208284031215612d5857612d57612c56565b5b6000612d6684828501612d2d565b91505092915050565b6000819050919050565b612d8281612d6f565b8114612d8d57600080fd5b50565b600081359050612d9f81612d79565b92915050565b600060208284031215612dbb57612dba612c56565b5b6000612dc984828501612d90565b91505092915050565b600073ffffffffffffffffffffffffffffffffffffffff82169050919050565b6000612dfd82612dd2565b9050919050565b612e0d81612df2565b8114612e1857600080fd5b50565b600081359050612e2a81612e04565b92915050565b60008060408385031215612e4757612e46612c56565b5b6000612e5585828601612d2d565b9250506020612e6685828601612e1b565b9150509250929050565b612e7981612d6f565b82525050565b6000602082019050612e946000830184612e70565b92915050565b612ea381612d6f565b82525050565b60a082016000820151612ebf6000850182612e9a565b506020820151612ed26020850182612e9a565b506040820151612ee56040850182612e9a565b506060820151612ef86060850182612e9a565b506080820151612f0b6080850182612e9a565b50505050565b600060a082019050612f266000830184612ea9565b92915050565b600081519050919050565b600082825260208201905092915050565b6000819050602082019050919050565b6000612f648383612e9a565b60208301905092915050565b6000602082019050919050565b6000612f8882612f2c565b612f928185612f37565b9350612f9d83612f48565b8060005b83811015612fce578151612fb58882612f58565b9750612fc083612f70565b925050600181019050612fa1565b5085935050505092915050565b60006020820190508181036000830152612ff58184612f7d565b905092915050565b61300681612df2565b82525050565b60006020820190506130216000830184612ffd565b92915050565b600080fd5b6000601f19601f8301169050919050565b7f4e487b7100000000000000000000000000000000000000000000000000000000600052604160045260246000fd5b6130758261302c565b810181811067ffffffffffffffff821117156130945761309361303d565b5b80604052505050565b60006130a7612c4c565b90506130b3828261306c565b919050565b600060c082840312156130ce576130cd613027565b5b6130d860c061309d565b905060006130e884828501612d90565b60008301525060206130fc84828501612d90565b602083015250604061311084828501612d90565b604083015250606061312484828501612d90565b606083015250608061313884828501612d90565b60808301525060a061314c84828501612d90565b60a08301525092915050565b60008060e0838503121561316f5761316e612c56565b5b600061317d85828601612d90565b925050602061318e858286016130b8565b9150509250929050565b6000602082840312156131ae576131ad612c56565b5b60006131bc84828501612e1b565b91505092915050565b600082825260208201905092915050565b7f4f776e61626c653a2063616c6c6572206973206e6f7420746865206f776e6572600082015250565b600061320c6020836131c5565b9150613217826131d6565b602082019050919050565b6000602082019050818103600083015261323b816131ff565b9050919050565b7f2d74656e6f720000000000000000000000000000000000000000000000000000600082015250565b60006132786006836131c5565b915061328382613242565b602082019050919050565b600060208201905081810360008301526132a78161326b565b9050919050565b7f2d72656d6f766500000000000000000000000000000000000000000000000000600082015250565b60006132e46007836131c5565b91506132ef826132ae565b602082019050919050565b60006020820190508181036000830152613313816132d7565b9050919050565b600060408201905061332f6000830185612e70565b61333c6020830184612ffd565b9392505050565b7f416363657373436f6e74726f6c3a2063616e206f6e6c792072656e6f756e636560008201527f20726f6c657320666f722073656c660000000000000000000000000000000000602082015250565b600061339f602f836131c5565b91506133aa82613343565b604082019050919050565b600060208201905081810360008301526133ce81613392565b9050919050565b6133de81612d6f565b82525050565b60006040820190506133f960008301856133d5565b61340660208301846133d5565b9392505050565b60008151905061341c81612d79565b92915050565b60006020828403121561343857613437612c56565b5b60006134468482850161340d565b91505092915050565b600060208201905061346460008301846133d5565b92915050565b7f4e487b7100000000000000000000000000000000000000000000000000000000600052601160045260246000fd5b60006134a482612d6f565b91506134af83612d6f565b9250817fffffffffffffffffffffffffffffffffffffffffffffffffffffffffffffffff04831182151516156134e8576134e761346a565b5b828202905092915050565b7f496e7075742074656e6f72206e6f7420616c6c6f7765642e0000000000000000600082015250565b60006135296018836131c5565b9150613534826134f3565b602082019050919050565b600060208201905081810360008301526135588161351c565b9050919050565b7f6e6f20737563682074656e6f7200000000000000000000000000000000000000600082015250565b6000613595600d836131c5565b91506135a08261355f565b602082019050919050565b600060208201905081810360008301526135c481613588565b9050919050565b600069ffffffffffffffffffff82169050919050565b6135ea816135cb565b81146135f557600080fd5b50565b600081519050613607816135e1565b92915050565b6000819050919050565b6136208161360d565b811461362b57600080fd5b50565b60008151905061363d81613617565b92915050565b600080600080600060a0868803121561365f5761365e612c56565b5b600061366d888289016135f8565b955050602061367e8882890161362e565b945050604061368f8882890161340d565b93505060606136a08882890161340d565b92505060806136b1888289016135f8565b9150509295509295909350565b60006136c982612d6f565b91506136d483612d6f565b92508282039050818111156136ec576136eb61346a565b5b92915050565b60006136fd82612d6f565b915061370883612d6f565b92508282019050808211156137205761371f61346a565b5b92915050565b7f2d6261736554696d650000000000000000000000000000000000000000000000600082015250565b600061375c6009836131c5565b915061376782613726565b602082019050919050565b6000602082019050818103600083015261378b8161374f565b9050919050565b7f2d6954696d650000000000000000000000000000000000000000000000000000600082015250565b60006137c86006836131c5565b91506137d382613792565b602082019050919050565b600060208201905081810360008301526137f7816137bb565b9050919050565b600061380982612d6f565b91506000820361381c5761381b61346a565b5b600182039050919050565b600060608201905061383c60008301866133d5565b61384960208301856133d5565b61385660408301846133d5565b949350505050565b7f2d707269636554696d6500000000000000000000000000000000000000000000600082015250565b6000613894600a836131c5565b915061389f8261385e565b602082019050919050565b600060208201905081810360008301526138c381613887565b9050919050565b60006080820190506138df6000830187612e70565b6138ec6020830186612e70565b6138f96040830185612e70565b6139066060830184612e70565b95945050505050565b7f2d74000000000000000000000000000000000000000000000000000000000000600082015250565b60006139456002836131c5565b91506139508261390f565b602082019050919050565b6000602082019050818103600083015261397481613938565b9050919050565b7f2d53554d00000000000000000000000000000000000000000000000000000000600082015250565b60006139b16004836131c5565b91506139bc8261397b565b602082019050919050565b600060208201905081810360008301526139e0816139a4565b9050919050565b60006139f282612d6f565b91507fffffffffffffffffffffffffffffffffffffffffffffffffffffffffffffffff8203613a2457613a2361346a565b5b600182019050919050565b7f4f776e61626c653a206e6577206f776e657220697320746865207a65726f206160008201527f6464726573730000000000000000000000000000000000000000000000000000602082015250565b6000613a8b6026836131c5565b9150613a9682613a2f565b604082019050919050565b60006020820190508181036000830152613aba81613a7e565b9050919050565b7f53616665436173743a2076616c7565206d75737420626520706f736974697665600082015250565b6000613af76020836131c5565b9150613b0282613ac1565b602082019050919050565b60006020820190508181036000830152613b2681613aea565b9050919050565b7f4e487b7100000000000000000000000000000000000000000000000000000000600052603260045260246000fd5b7f4e487b7100000000000000000000000000000000000000000000000000000000600052603160045260246000fd5b600081905092915050565b7f416363657373436f6e74726f6c3a206163636f756e7420000000000000000000600082015250565b6000613bcc601783613b8b565b9150613bd782613b96565b601782019050919050565b600081519050919050565b60005b83811015613c0b578082015181840152602081019050613bf0565b60008484015250505050565b6000613c2282613be2565b613c2c8185613b8b565b9350613c3c818560208601613bed565b80840191505092915050565b7f206973206d697373696e6720726f6c6520000000000000000000000000000000600082015250565b6000613c7e601183613b8b565b9150613c8982613c48565b601182019050919050565b6000613c9f82613bbf565b9150613cab8285613c17565b9150613cb682613c71565b9150613cc28284613c17565b91508190509392505050565b6000613cd982613be2565b613ce381856131c5565b9350613cf3818560208601613bed565b613cfc8161302c565b840191505092915050565b60006020820190508181036000830152613d218184613cce565b905092915050565b7f537472696e67733a20686578206c656e67746820696e73756666696369656e74600082015250565b6000613d5f6020836131c5565b9150613d6a82613d29565b602082019050919050565b60006020820190508181036000830152613d8e81613d52565b905091905056fea2646970667358221220e0f7b4ccbd8d48e9402d918e6b63a8aa78b4309f7e1cb22175cad337e7f6b92c64736f6c63430008100033",
  "immutableReferences": {
    "10921": [
      {
        "length": 32,
        "start": 3444
      },
      {
        "length": 32,
        "start": 3573
      },
      {
        "length": 32,
        "start": 3621
      },
      {
        "length": 32,
        "start": 3683
      },
      {
        "length": 32,
        "start": 6705
      },
      {
        "length": 32,
        "start": 8486
      }
    ],
    "10934": [
      {
        "length": 32,
        "start": 4282
      },
      {
        "length": 32,
        "start": 4455
      },
      {
        "length": 32,
        "start": 5608
      },
      {
        "length": 32,
        "start": 5930
      }
    ]
  },
  "source": "// SPDX-License-Identifier: MIT\npragma solidity 0.8.16;\n\nimport {Ownable} from \"@openzeppelin/contracts/access/Ownable.sol\";\nimport \"@openzeppelin/contracts/utils/math/Math.sol\";\nimport {AccessControl} from \"@openzeppelin/contracts/access/AccessControl.sol\";\nimport \"@openzeppelin/contracts/utils/structs/EnumerableSet.sol\";\nimport \"@openzeppelin/contracts/utils/math/SafeCast.sol\";\nimport \"@chainlink/contracts/src/v0.8/interfaces/AggregatorV3Interface.sol\";\n\nimport \"./libraries/MathLib.sol\";\nimport \"./interfaces/IVolatilityChain.sol\";\n\ncontract VolatilityChain is Ownable, AccessControl, IVolatilityChain{\n  using MathLib for uint256;\n  using EnumerableSet for EnumerableSet.UintSet;\n\n  bytes32 public constant UPDATE_ROLE = keccak256(\"UPDATE_ROLE\");\n  AggregatorV3Interface internal priceInterface;\n  bytes32 public tokenHash;\n  EnumerableSet.UintSet tenors;\n\n  mapping(uint256=>mapping(uint256=>PriceStamp)) private priceBook;\n  mapping(uint256=>uint256) public latestBookTime;\n  mapping(uint256=>EnumerableSet.UintSet) internal latestBookTimeSet;\n\n  uint256 internal immutable priceMultiplier;\n\n  mapping(uint256=> VolParam) internal volatilityParameters;\n  mapping(uint256=>uint256) public sqrtRatios; \n  uint256 internal immutable volParamDecimals;\n  uint256 internal immutable parameterMultiplier;\n\n  uint256 internal constant SECONDS_1Y = 31536000; // 365 * 24 * 60 * 60\n  uint256 internal constant TOLERANCE = 60; // 60s tolerance for updating timestamp\n\n  constructor(AggregatorV3Interface _priceSource, uint256 _parameterDecimals, string memory _tokenName, address _updateAddress )  {\n    require(_updateAddress != address(0), \"0addr\");\n\n    _setupRole(DEFAULT_ADMIN_ROLE, msg.sender); \n\n    _setupRole(UPDATE_ROLE, _updateAddress);\n    tokenHash = keccak256(bytes(_tokenName));\n    require(tenors.add(1 days),'-1d');\n    require(tenors.add(7 days),'-7d');\n    require(tenors.add(30 days),'-30d');\n\n    priceInterface = _priceSource;\n    priceMultiplier = 10 ** _priceSource.decimals();\n    volParamDecimals = _parameterDecimals;\n    parameterMultiplier = 10 ** _parameterDecimals;}\n\n  function queryVol(uint256 _tenor) external override view returns(uint256 _vol){\n    _vol = 0;\n    if(tenors.contains(_tenor)){ \n      _vol = priceBook[_tenor][latestBookTime[_tenor]].volatility;}\n    else {\n      uint256 _upperTenor = 0;\n      uint256 _lowerTenor = 0;\n      uint _tenorsCount = tenors.length();\n\n      for(uint i = 0;i< _tenorsCount;i++){\n        uint256 _tenorI = tenors.at(i);\n        if(_tenorI >_tenor && (_tenorI < _upperTenor || _upperTenor == 0) ){ \n          _upperTenor = _tenorI; }\n        if(_tenorI <_tenor && (_tenorI > _lowerTenor || _lowerTenor == 0) ){ \n          _lowerTenor = _tenorI; }}\n\n      if(_upperTenor == 0 && _lowerTenor > 0) { \n        uint256 _lowerVol = priceBook[_lowerTenor][latestBookTime[_lowerTenor]].volatility;\n        _vol = _lowerVol.muldiv(_tenor.sqrt() , _lowerTenor.sqrt());}\n      else if(_lowerTenor==0 && _upperTenor > 0) {\n        uint256 _upperVol = priceBook[_upperTenor][latestBookTime[_upperTenor]].volatility;\n        _vol = _upperVol.muldiv( _tenor.sqrt() , _upperTenor.sqrt());}\n      else if(_upperTenor >0 && _lowerTenor >0){ \n        uint256 _lowerVol = priceBook[_lowerTenor][latestBookTime[_lowerTenor]].volatility;\n        uint256 _upperVol = priceBook[_upperTenor][latestBookTime[_upperTenor]].volatility;\n        uint256 _tenorInterval = _upperTenor - _lowerTenor;\n        _vol = _lowerVol.muldiv( _upperTenor - _tenor,  _tenorInterval) + _upperVol.muldiv( _tenor - _lowerTenor, _tenorInterval);}}\n\n      _vol = _vol.ethdiv(priceMultiplier);}\n\n  function queryPrice() external override view returns(uint256){\n    (,int _price,,,) = priceInterface.latestRoundData();\n    return SafeCast.toUint256(_price).ethdiv(priceMultiplier);}\n\n  function update(uint256 _tenor) external onlyRole(UPDATE_ROLE){\n    require(tenors.contains(_tenor),\"no such tenor\");\n    (,int _price,,uint _priceTime,) = priceInterface.latestRoundData();\n    uint256 _updatePrice = SafeCast.toUint256(_price);\n    \n    // find the last time stamp available prior to the tenor period\n    uint256 _baseTime = latestBookTime[_tenor];\n    // EnumerableSet.UintSet storage _bookTimeSet = latestBookTimeSet[_tenor];\n    uint256 _stampCount = latestBookTimeSet[_tenor].length();\n    if(_stampCount > 0){\n      for(uint256 i = _stampCount;i> 0;i--){\n        uint256 _iTime = latestBookTimeSet[_tenor].at(i-1);\n        \n        if (_iTime <= (_priceTime - _tenor + TOLERANCE)) {\n          if(_baseTime > (_priceTime - _tenor + TOLERANCE)){\n            _baseTime = _iTime;\n          }\n          else{\n            if (_iTime > _baseTime){\n              require(latestBookTimeSet[_tenor].remove(_baseTime),'-baseTime');\n              _baseTime = _iTime;\n              }\n            else if (_iTime < _baseTime){\n              require(latestBookTimeSet[_tenor].remove(_iTime),'-iTime');\n          }}}}}\n    \n    // update vols\n    PriceStamp storage _baseStamp = priceBook[_tenor][_baseTime];\n    PriceStamp storage _newStamp = priceBook[_tenor][_priceTime];\n    _newStamp.startTime = _baseTime;\n    _newStamp.endTime = _priceTime;\n    _newStamp.open = _baseStamp.close;\n    _newStamp.close = _updatePrice;\n\n    uint256 _open = _newStamp.open;\n    uint256 _priceMove = (_open < _updatePrice)? (_updatePrice.muldiv(priceMultiplier, _open) - priceMultiplier) : (priceMultiplier - _updatePrice.muldiv( priceMultiplier, _open));\n    _priceMove = _priceMove.muldiv(_tenor.sqrt(), (_priceTime-_baseTime).sqrt());\n\n    VolParam storage _volParameter = volatilityParameters[_tenor];\n    _newStamp.volatility = (_volParameter.ltVolWeighted + (_priceMove * _priceMove).muldiv( _volParameter.q, parameterMultiplier) + (_baseStamp.volatility * _baseStamp.volatility).muldiv( _volParameter.p, parameterMultiplier)).sqrt();\n\n    latestBookTime[_tenor] = _priceTime;\n    require(latestBookTimeSet[_tenor].add(_priceTime),'-priceTime');\n    emit NewVolatilityChainBlock(_tenor, _priceTime, _updatePrice, _newStamp.volatility, _baseTime);}\n\n  function resetVolParams(uint256 _tenor, VolParam memory _volParams) external onlyOwner{\n    if(!tenors.contains(_tenor)){\n      require(tenors.add(_tenor),'-t');}\n\n    sqrtRatios[_tenor] = SECONDS_1Y.ethdiv(_tenor).sqrt() * 1e9; // in 18 decimal places\n    \n    require((_volParams.w + _volParams.p + _volParams.q)==parameterMultiplier, '-SUM');\n    volatilityParameters[_tenor] = _volParams;\n    volatilityParameters[_tenor].ltVolWeighted = (volatilityParameters[_tenor].ltVol*volatilityParameters[_tenor].ltVol).muldiv( volatilityParameters[_tenor].w, parameterMultiplier);\n\n    (,int _price,,uint _priceTime,) = priceInterface.latestRoundData();\n    uint256 _updatePrice = SafeCast.toUint256(_price);\n\n    latestBookTime[_tenor] = _priceTime;\n    latestBookTimeSet[_tenor].add(_priceTime);\n\n    PriceStamp storage _priceStamp = priceBook[_tenor][_priceTime];\n    _priceStamp.startTime = _priceStamp.endTime = _priceTime;\n    _priceStamp.volatility = volatilityParameters[_tenor].initialVol;\n    _priceStamp.open = _priceStamp.close = _updatePrice;\n    emit ResetVolChainParameter(_tenor, block.timestamp, msg.sender);}\n\n  function removeTenor(uint256 _tenor) external onlyOwner{\n    require(tenors.contains(_tenor), '-tenor');\n    require(tenors.remove(_tenor), '-remove');\n    emit RemovedTenor(_tenor, block.timestamp, msg.sender);}\n\n  function getPriceBook(uint256 _tenor) external view returns(PriceStamp memory){\n    require(tenors.contains(_tenor), \"Input tenor not allowed.\");\n    return priceBook[_tenor][latestBookTime[_tenor]];}\n\n  function getSqrtRatio(uint256 _tenor) external view returns(uint256){\n    if(tenors.contains(_tenor)){\n      return sqrtRatios[_tenor];\n    }\n    else{\n      return SECONDS_1Y.ethdiv(_tenor).sqrt() * 1e9; // in 18 decimal places\n    }\n    }\n\n  function getLatestBookTimeSet(uint256 _tenor) external view returns(uint256[] memory){\n    return latestBookTimeSet[_tenor].values();\n  }\n}\n",
  "sourcePath": "/Users/mac/Documents/GitHub/moret/contracts/VolatilityChain.sol",
  "compiler": {
    "name": "solc",
    "version": "0.8.16+commit.07a7930e.Emscripten.clang"
  },
  "schemaVersion": "3.4.3",
  "updatedAt": "2022-11-11T00:42:27.323Z",
  "networkType": "ethereum",
  "devdoc": {
    "kind": "dev",
    "methods": {
      "getRoleAdmin(bytes32)": {
        "details": "Returns the admin role that controls `role`. See {grantRole} and {revokeRole}. To change a role's admin, use {_setRoleAdmin}."
      },
      "grantRole(bytes32,address)": {
        "details": "Grants `role` to `account`. If `account` had not been already granted `role`, emits a {RoleGranted} event. Requirements: - the caller must have ``role``'s admin role."
      },
      "hasRole(bytes32,address)": {
        "details": "Returns `true` if `account` has been granted `role`."
      },
      "owner()": {
        "details": "Returns the address of the current owner."
      },
      "renounceOwnership()": {
        "details": "Leaves the contract without owner. It will not be possible to call `onlyOwner` functions anymore. Can only be called by the current owner. NOTE: Renouncing ownership will leave the contract without an owner, thereby removing any functionality that is only available to the owner."
      },
      "renounceRole(bytes32,address)": {
        "details": "Revokes `role` from the calling account. Roles are often managed via {grantRole} and {revokeRole}: this function's purpose is to provide a mechanism for accounts to lose their privileges if they are compromised (such as when a trusted device is misplaced). If the calling account had been revoked `role`, emits a {RoleRevoked} event. Requirements: - the caller must be `account`."
      },
      "revokeRole(bytes32,address)": {
        "details": "Revokes `role` from `account`. If `account` had been granted `role`, emits a {RoleRevoked} event. Requirements: - the caller must have ``role``'s admin role."
      },
      "supportsInterface(bytes4)": {
        "details": "See {IERC165-supportsInterface}."
      },
      "transferOwnership(address)": {
        "details": "Transfers ownership of the contract to a new account (`newOwner`). Can only be called by the current owner."
      }
    },
    "version": 1
  },
  "userdoc": {
    "kind": "user",
    "methods": {},
    "version": 1
  }
}