{
  "contractName": "VolatilityChain",
  "abi": [
    {
      "inputs": [
        {
          "internalType": "contract AggregatorV3Interface",
          "name": "_priceSource",
          "type": "address"
        },
        {
          "internalType": "uint256",
          "name": "_parameterDecimals",
          "type": "uint256"
        },
        {
          "internalType": "string",
          "name": "_tokenName",
          "type": "string"
        },
        {
          "internalType": "address",
          "name": "_updateAddress",
          "type": "address"
        }
      ],
      "stateMutability": "nonpayable",
      "type": "constructor"
    },
    {
      "anonymous": false,
      "inputs": [
        {
          "indexed": true,
          "internalType": "uint256",
          "name": "_tenor",
          "type": "uint256"
        },
        {
          "indexed": false,
          "internalType": "uint256",
          "name": "_timeStamp",
          "type": "uint256"
        },
        {
          "components": [
            {
              "internalType": "uint256",
              "name": "startTime",
              "type": "uint256"
            },
            {
              "internalType": "uint256",
              "name": "endTime",
              "type": "uint256"
            },
            {
              "internalType": "uint256",
              "name": "open",
              "type": "uint256"
            },
            {
              "internalType": "uint256",
              "name": "highest",
              "type": "uint256"
            },
            {
              "internalType": "uint256",
              "name": "lowest",
              "type": "uint256"
            },
            {
              "internalType": "uint256",
              "name": "close",
              "type": "uint256"
            },
            {
              "internalType": "uint256",
              "name": "volatility",
              "type": "uint256"
            },
            {
              "internalType": "uint256",
              "name": "accentus",
              "type": "uint256"
            }
          ],
          "indexed": false,
          "internalType": "struct IVolatilityChain.PriceStamp",
          "name": "_book",
          "type": "tuple"
        }
      ],
      "name": "NewVolatilityChainBlock",
      "type": "event"
    },
    {
      "anonymous": false,
      "inputs": [
        {
          "indexed": true,
          "internalType": "address",
          "name": "previousOwner",
          "type": "address"
        },
        {
          "indexed": true,
          "internalType": "address",
          "name": "newOwner",
          "type": "address"
        }
      ],
      "name": "OwnershipTransferred",
      "type": "event"
    },
    {
      "anonymous": false,
      "inputs": [
        {
          "indexed": true,
          "internalType": "uint256",
          "name": "_tenor",
          "type": "uint256"
        },
        {
          "indexed": false,
          "internalType": "uint256",
          "name": "_timeStamp",
          "type": "uint256"
        },
        {
          "indexed": false,
          "internalType": "address",
          "name": "_executor",
          "type": "address"
        }
      ],
      "name": "RemovedTenor",
      "type": "event"
    },
    {
      "anonymous": false,
      "inputs": [
        {
          "indexed": true,
          "internalType": "uint256",
          "name": "_tenor",
          "type": "uint256"
        },
        {
          "indexed": false,
          "internalType": "uint256",
          "name": "_timeStamp",
          "type": "uint256"
        },
        {
          "indexed": false,
          "internalType": "address",
          "name": "_executor",
          "type": "address"
        }
      ],
      "name": "ResetVolChainParameter",
      "type": "event"
    },
    {
      "anonymous": false,
      "inputs": [
        {
          "indexed": true,
          "internalType": "bytes32",
          "name": "role",
          "type": "bytes32"
        },
        {
          "indexed": true,
          "internalType": "bytes32",
          "name": "previousAdminRole",
          "type": "bytes32"
        },
        {
          "indexed": true,
          "internalType": "bytes32",
          "name": "newAdminRole",
          "type": "bytes32"
        }
      ],
      "name": "RoleAdminChanged",
      "type": "event"
    },
    {
      "anonymous": false,
      "inputs": [
        {
          "indexed": true,
          "internalType": "bytes32",
          "name": "role",
          "type": "bytes32"
        },
        {
          "indexed": true,
          "internalType": "address",
          "name": "account",
          "type": "address"
        },
        {
          "indexed": true,
          "internalType": "address",
          "name": "sender",
          "type": "address"
        }
      ],
      "name": "RoleGranted",
      "type": "event"
    },
    {
      "anonymous": false,
      "inputs": [
        {
          "indexed": true,
          "internalType": "bytes32",
          "name": "role",
          "type": "bytes32"
        },
        {
          "indexed": true,
          "internalType": "address",
          "name": "account",
          "type": "address"
        },
        {
          "indexed": true,
          "internalType": "address",
          "name": "sender",
          "type": "address"
        }
      ],
      "name": "RoleRevoked",
      "type": "event"
    },
    {
      "inputs": [],
      "name": "DEFAULT_ADMIN_ROLE",
      "outputs": [
        {
          "internalType": "bytes32",
          "name": "",
          "type": "bytes32"
        }
      ],
      "stateMutability": "view",
      "type": "function",
      "constant": true
    },
    {
      "inputs": [],
      "name": "UPDATE_ROLE",
      "outputs": [
        {
          "internalType": "bytes32",
          "name": "",
          "type": "bytes32"
        }
      ],
      "stateMutability": "view",
      "type": "function",
      "constant": true
    },
    {
      "inputs": [
        {
          "internalType": "bytes32",
          "name": "role",
          "type": "bytes32"
        }
      ],
      "name": "getRoleAdmin",
      "outputs": [
        {
          "internalType": "bytes32",
          "name": "",
          "type": "bytes32"
        }
      ],
      "stateMutability": "view",
      "type": "function",
      "constant": true
    },
    {
      "inputs": [
        {
          "internalType": "bytes32",
          "name": "role",
          "type": "bytes32"
        },
        {
          "internalType": "address",
          "name": "account",
          "type": "address"
        }
      ],
      "name": "grantRole",
      "outputs": [],
      "stateMutability": "nonpayable",
      "type": "function"
    },
    {
      "inputs": [
        {
          "internalType": "bytes32",
          "name": "role",
          "type": "bytes32"
        },
        {
          "internalType": "address",
          "name": "account",
          "type": "address"
        }
      ],
      "name": "hasRole",
      "outputs": [
        {
          "internalType": "bool",
          "name": "",
          "type": "bool"
        }
      ],
      "stateMutability": "view",
      "type": "function",
      "constant": true
    },
    {
      "inputs": [
        {
          "internalType": "uint256",
          "name": "",
          "type": "uint256"
        }
      ],
      "name": "latestBookTime",
      "outputs": [
        {
          "internalType": "uint256",
          "name": "",
          "type": "uint256"
        }
      ],
      "stateMutability": "view",
      "type": "function",
      "constant": true
    },
    {
      "inputs": [],
      "name": "owner",
      "outputs": [
        {
          "internalType": "address",
          "name": "",
          "type": "address"
        }
      ],
      "stateMutability": "view",
      "type": "function",
      "constant": true
    },
    {
      "inputs": [],
      "name": "renounceOwnership",
      "outputs": [],
      "stateMutability": "nonpayable",
      "type": "function"
    },
    {
      "inputs": [
        {
          "internalType": "bytes32",
          "name": "role",
          "type": "bytes32"
        },
        {
          "internalType": "address",
          "name": "account",
          "type": "address"
        }
      ],
      "name": "renounceRole",
      "outputs": [],
      "stateMutability": "nonpayable",
      "type": "function"
    },
    {
      "inputs": [
        {
          "internalType": "bytes32",
          "name": "role",
          "type": "bytes32"
        },
        {
          "internalType": "address",
          "name": "account",
          "type": "address"
        }
      ],
      "name": "revokeRole",
      "outputs": [],
      "stateMutability": "nonpayable",
      "type": "function"
    },
    {
      "inputs": [
        {
          "internalType": "bytes4",
          "name": "interfaceId",
          "type": "bytes4"
        }
      ],
      "name": "supportsInterface",
      "outputs": [
        {
          "internalType": "bool",
          "name": "",
          "type": "bool"
        }
      ],
      "stateMutability": "view",
      "type": "function",
      "constant": true
    },
    {
      "inputs": [],
      "name": "tokenHash",
      "outputs": [
        {
          "internalType": "bytes32",
          "name": "",
          "type": "bytes32"
        }
      ],
      "stateMutability": "view",
      "type": "function",
      "constant": true
    },
    {
      "inputs": [
        {
          "internalType": "address",
          "name": "newOwner",
          "type": "address"
        }
      ],
      "name": "transferOwnership",
      "outputs": [],
      "stateMutability": "nonpayable",
      "type": "function"
    },
    {
      "inputs": [],
      "name": "volatilityUpdateCounter",
      "outputs": [
        {
          "internalType": "uint256",
          "name": "",
          "type": "uint256"
        }
      ],
      "stateMutability": "view",
      "type": "function",
      "constant": true
    },
    {
      "inputs": [],
      "name": "volatilityUpdateTime",
      "outputs": [
        {
          "internalType": "uint256",
          "name": "",
          "type": "uint256"
        }
      ],
      "stateMutability": "view",
      "type": "function",
      "constant": true
    },
    {
      "inputs": [
        {
          "internalType": "uint256",
          "name": "_tenor",
          "type": "uint256"
        }
      ],
      "name": "queryVol",
      "outputs": [
        {
          "internalType": "uint256",
          "name": "_vol",
          "type": "uint256"
        }
      ],
      "stateMutability": "view",
      "type": "function",
      "constant": true
    },
    {
      "inputs": [],
      "name": "queryPrice",
      "outputs": [
        {
          "internalType": "uint256",
          "name": "",
          "type": "uint256"
        }
      ],
      "stateMutability": "view",
      "type": "function",
      "constant": true
    },
    {
      "inputs": [],
      "name": "update",
      "outputs": [],
      "stateMutability": "nonpayable",
      "type": "function"
    },
    {
      "inputs": [
        {
          "internalType": "uint256",
          "name": "_tenor",
          "type": "uint256"
        },
        {
          "components": [
            {
              "internalType": "uint256",
              "name": "initialVol",
              "type": "uint256"
            },
            {
              "internalType": "uint256",
              "name": "ltVol",
              "type": "uint256"
            },
            {
              "internalType": "uint256",
              "name": "ltVolWeighted",
              "type": "uint256"
            },
            {
              "internalType": "uint256",
              "name": "w",
              "type": "uint256"
            },
            {
              "internalType": "uint256",
              "name": "p",
              "type": "uint256"
            },
            {
              "internalType": "uint256",
              "name": "q",
              "type": "uint256"
            }
          ],
          "internalType": "struct IVolatilityChain.VolParam",
          "name": "_volParams",
          "type": "tuple"
        }
      ],
      "name": "resetVolParams",
      "outputs": [],
      "stateMutability": "nonpayable",
      "type": "function"
    },
    {
      "inputs": [
        {
          "internalType": "uint256",
          "name": "_tenor",
          "type": "uint256"
        }
      ],
      "name": "removeTenor",
      "outputs": [],
      "stateMutability": "nonpayable",
      "type": "function"
    },
    {
      "inputs": [
        {
          "internalType": "uint256",
          "name": "_tenor",
          "type": "uint256"
        }
      ],
      "name": "getPriceBook",
      "outputs": [
        {
          "components": [
            {
              "internalType": "uint256",
              "name": "startTime",
              "type": "uint256"
            },
            {
              "internalType": "uint256",
              "name": "endTime",
              "type": "uint256"
            },
            {
              "internalType": "uint256",
              "name": "open",
              "type": "uint256"
            },
            {
              "internalType": "uint256",
              "name": "highest",
              "type": "uint256"
            },
            {
              "internalType": "uint256",
              "name": "lowest",
              "type": "uint256"
            },
            {
              "internalType": "uint256",
              "name": "close",
              "type": "uint256"
            },
            {
              "internalType": "uint256",
              "name": "volatility",
              "type": "uint256"
            },
            {
              "internalType": "uint256",
              "name": "accentus",
              "type": "uint256"
            }
          ],
          "internalType": "struct IVolatilityChain.PriceStamp",
          "name": "",
          "type": "tuple"
        }
      ],
      "stateMutability": "view",
      "type": "function",
      "constant": true
    },
    {
      "inputs": [
        {
          "internalType": "uint256",
          "name": "_tenor",
          "type": "uint256"
        }
      ],
      "name": "getSqrtRatio",
      "outputs": [
        {
          "internalType": "uint256",
          "name": "",
          "type": "uint256"
        }
      ],
      "stateMutability": "pure",
      "type": "function",
      "constant": true
    }
  ],
  "bytecode": "0x60e06040523480156200001157600080fd5b50604051620043fc380380620043fc833981810160405281019062000037919062000778565b620000576200004b620001f960201b60201c565b6200020160201b60201c565b6200006c6000801b33620002c560201b60201c565b6200009e7f3ee192ac25847473237ced4bba57f848e1fd794930ff85b4282329058096720582620002c560201b60201c565b8180519060200120600381905550620000ca620151806004620002db60201b620020a81790919060201c565b50620000e962093a806004620002db60201b620020a81790919060201c565b506200010862278d006004620002db60201b620020a81790919060201c565b5083600260006101000a81548173ffffffffffffffffffffffffffffffffffffffff021916908373ffffffffffffffffffffffffffffffffffffffff1602179055508373ffffffffffffffffffffffffffffffffffffffff1663313ce5676040518163ffffffff1660e01b8152600401602060405180830381865afa15801562000196573d6000803e3d6000fd5b505050506040513d601f19601f82011682018060405250810190620001bc919062000847565b600a620001ca9190620009fc565b608081815250508260a0818152505082600a620001e8919062000a4d565b60c081815250505050505062000a9e565b600033905090565b60008060009054906101000a900473ffffffffffffffffffffffffffffffffffffffff169050816000806101000a81548173ffffffffffffffffffffffffffffffffffffffff021916908373ffffffffffffffffffffffffffffffffffffffff1602179055508173ffffffffffffffffffffffffffffffffffffffff168173ffffffffffffffffffffffffffffffffffffffff167f8be0079c531659141344cd1fd0a4f28419497f9722a3daafe3b4186f6b6457e060405160405180910390a35050565b620002d78282620002fd60201b60201c565b5050565b6000620002f5836000018360001b620003ee60201b60201c565b905092915050565b6200030f82826200046860201b60201c565b620003ea57600180600084815260200190815260200160002060000160008373ffffffffffffffffffffffffffffffffffffffff1673ffffffffffffffffffffffffffffffffffffffff16815260200190815260200160002060006101000a81548160ff0219169083151502179055506200038f620001f960201b60201c565b73ffffffffffffffffffffffffffffffffffffffff168173ffffffffffffffffffffffffffffffffffffffff16837f2f8788117e7eff1d82e926ec794901d17c78024a50270940304540a733656f0d60405160405180910390a45b5050565b6000620004028383620004d360201b60201c565b6200045d57826000018290806001815401808255809150506001900390600052602060002001600090919091909150558260000180549050836001016000848152602001908152602001600020819055506001905062000462565b600090505b92915050565b60006001600084815260200190815260200160002060000160008373ffffffffffffffffffffffffffffffffffffffff1673ffffffffffffffffffffffffffffffffffffffff16815260200190815260200160002060009054906101000a900460ff16905092915050565b600080836001016000848152602001908152602001600020541415905092915050565b6000604051905090565b600080fd5b600080fd5b600073ffffffffffffffffffffffffffffffffffffffff82169050919050565b600062000537826200050a565b9050919050565b60006200054b826200052a565b9050919050565b6200055d816200053e565b81146200056957600080fd5b50565b6000815190506200057d8162000552565b92915050565b6000819050919050565b620005988162000583565b8114620005a457600080fd5b50565b600081519050620005b8816200058d565b92915050565b600080fd5b600080fd5b6000601f19601f8301169050919050565b7f4e487b7100000000000000000000000000000000000000000000000000000000600052604160045260246000fd5b6200061382620005c8565b810181811067ffffffffffffffff82111715620006355762000634620005d9565b5b80604052505050565b60006200064a620004f6565b905062000658828262000608565b919050565b600067ffffffffffffffff8211156200067b576200067a620005d9565b5b6200068682620005c8565b9050602081019050919050565b60005b83811015620006b357808201518184015260208101905062000696565b83811115620006c3576000848401525b50505050565b6000620006e0620006da846200065d565b6200063e565b905082815260208101848484011115620006ff57620006fe620005c3565b5b6200070c84828562000693565b509392505050565b600082601f8301126200072c576200072b620005be565b5b81516200073e848260208601620006c9565b91505092915050565b62000752816200052a565b81146200075e57600080fd5b50565b600081519050620007728162000747565b92915050565b6000806000806080858703121562000795576200079462000500565b5b6000620007a5878288016200056c565b9450506020620007b887828801620005a7565b935050604085015167ffffffffffffffff811115620007dc57620007db62000505565b5b620007ea8782880162000714565b9250506060620007fd8782880162000761565b91505092959194509250565b600060ff82169050919050565b620008218162000809565b81146200082d57600080fd5b50565b600081519050620008418162000816565b92915050565b60006020828403121562000860576200085f62000500565b5b6000620008708482850162000830565b91505092915050565b7f4e487b7100000000000000000000000000000000000000000000000000000000600052601160045260246000fd5b60008160011c9050919050565b6000808291508390505b60018511156200090757808604811115620008df57620008de62000879565b5b6001851615620008ef5780820291505b8081029050620008ff85620008a8565b9450620008bf565b94509492505050565b600082620009225760019050620009f5565b81620009325760009050620009f5565b81600181146200094b576002811462000956576200098c565b6001915050620009f5565b60ff8411156200096b576200096a62000879565b5b8360020a91508482111562000985576200098462000879565b5b50620009f5565b5060208310610133831016604e8410600b8410161715620009c65782820a905083811115620009c057620009bf62000879565b5b620009f5565b620009d58484846001620008b5565b92509050818404811115620009ef57620009ee62000879565b5b81810290505b9392505050565b600062000a098262000583565b915062000a168362000809565b925062000a457fffffffffffffffffffffffffffffffffffffffffffffffffffffffffffffffff848462000910565b905092915050565b600062000a5a8262000583565b915062000a678362000583565b925062000a967fffffffffffffffffffffffffffffffffffffffffffffffffffffffffffffffff848462000910565b905092915050565b60805160a05160c0516138cf62000b2d60003960008181610a4c01528181610b58015281816112cb01528181611378015281816114c7015261157401526000505060008181610f2b01528181610fac01528181610fdc0152818161101a015281816110ad015281816110ef0152818161119b0152818161121c015281816117f90152611eee01526138cf6000f3fe608060405234801561001057600080fd5b50600436106101415760003560e01c806391d14854116100b8578063cca494731161007c578063cca4947314610350578063cfc2dc201461036e578063d547741f1461039e578063dcbc93f8146103ba578063f2fde38b146103d8578063fe67ec0c146103f457610141565b806391d14854146102be578063966e1766146102ee578063a217fddf1461030a578063a2e6204514610328578063b0667cf81461033257610141565b806336568abe1161010a57806336568abe146101fc578063430417f7146102185780636c23852d14610248578063714f13ee14610278578063715018a6146102965780638da5cb5b146102a057610141565b80624978461461014657806301ffc9a714610164578063248a9ca314610194578063285f9457146101c45780632f2ff15d146101e0575b600080fd5b61014e610424565b60405161015b91906129c8565b60405180910390f35b61017e60048036038101906101799190612a4a565b610448565b60405161018b9190612a92565b60405180910390f35b6101ae60048036038101906101a99190612ad9565b6104c2565b6040516101bb91906129c8565b60405180910390f35b6101de60048036038101906101d99190612b3c565b6104e2565b005b6101fa60048036038101906101f59190612bc7565b6105cd565b005b61021660048036038101906102119190612bc7565b6105ee565b005b610232600480360381019061022d9190612b3c565b610671565b60405161023f9190612c16565b60405180910390f35b610262600480360381019061025d9190612b3c565b610789565b60405161026f9190612ce2565b60405180910390f35b61028061087e565b60405161028d9190612c16565b60405180910390f35b61029e610884565b005b6102a861090c565b6040516102b59190612d0d565b60405180910390f35b6102d860048036038101906102d39190612bc7565b610935565b6040516102e59190612a92565b60405180910390f35b61030860048036038101906103039190612e59565b6109a0565b005b610312610d60565b60405161031f91906129c8565b60405180910390f35b610330610d67565b005b61033a611738565b6040516103479190612c16565b60405180910390f35b61035861187c565b60405161036591906129c8565b60405180910390f35b61038860048036038101906103839190612b3c565b611882565b6040516103959190612c16565b60405180910390f35b6103b860048036038101906103b39190612bc7565b611f72565b005b6103c2611f93565b6040516103cf9190612c16565b60405180910390f35b6103f260048036038101906103ed9190612e99565b611f99565b005b61040e60048036038101906104099190612b3c565b612090565b60405161041b9190612c16565b60405180910390f35b7f3ee192ac25847473237ced4bba57f848e1fd794930ff85b4282329058096720581565b60007f7965db0b000000000000000000000000000000000000000000000000000000007bffffffffffffffffffffffffffffffffffffffffffffffffffffffff1916827bffffffffffffffffffffffffffffffffffffffffffffffffffffffff191614806104bb57506104ba826120c2565b5b9050919050565b600060016000838152602001908152602001600020600101549050919050565b6104ea61212c565b73ffffffffffffffffffffffffffffffffffffffff1661050861090c565b73ffffffffffffffffffffffffffffffffffffffff161461055e576040517f08c379a000000000000000000000000000000000000000000000000000000000815260040161055590612f23565b60405180910390fd5b61057281600461213490919063ffffffff16565b61057b57600080fd5b61058f81600461214e90919063ffffffff16565b50807f16525c17fb1186872bcf57b8588cd51b6e0a69ed167b3471bdd67b5ac538c47e42336040516105c2929190612f43565b60405180910390a250565b6105d6826104c2565b6105df81612168565b6105e9838361217c565b505050565b6105f661212c565b73ffffffffffffffffffffffffffffffffffffffff168173ffffffffffffffffffffffffffffffffffffffff1614610663576040517f08c379a000000000000000000000000000000000000000000000000000000000815260040161065a90612fde565b60405180910390fd5b61066d828261225c565b5050565b6000610782633b9aca006301e1338073__MathLib_______________________________63de7f61709091866040518363ffffffff1660e01b81526004016106ba92919061300d565b602060405180830381865af41580156106d7573d6000803e3d6000fd5b505050506040513d601f19601f820116820180604052508101906106fb919061304b565b73__MathLib_______________________________63677342ce90916040518263ffffffff1660e01b81526004016107339190613078565b602060405180830381865af4158015610750573d6000803e3d6000fd5b505050506040513d601f19601f82011682018060405250810190610774919061304b565b61233e90919063ffffffff16565b9050919050565b61079161296a565b6107a582600461213490919063ffffffff16565b6107e4576040517f08c379a00000000000000000000000000000000000000000000000000000000081526004016107db90613105565b60405180910390fd5b6006600083815260200190815260200160002060006007600085815260200190815260200160002054815260200190815260200160002060405180610100016040529081600082015481526020016001820154815260200160028201548152602001600382015481526020016004820154815260200160058201548152602001600682015481526020016007820154815250509050919050565b60085481565b61088c61212c565b73ffffffffffffffffffffffffffffffffffffffff166108aa61090c565b73ffffffffffffffffffffffffffffffffffffffff1614610900576040517f08c379a00000000000000000000000000000000000000000000000000000000081526004016108f790612f23565b60405180910390fd5b61090a6000612354565b565b60008060009054906101000a900473ffffffffffffffffffffffffffffffffffffffff16905090565b60006001600084815260200190815260200160002060000160008373ffffffffffffffffffffffffffffffffffffffff1673ffffffffffffffffffffffffffffffffffffffff16815260200190815260200160002060009054906101000a900460ff16905092915050565b6109a861212c565b73ffffffffffffffffffffffffffffffffffffffff166109c661090c565b73ffffffffffffffffffffffffffffffffffffffff1614610a1c576040517f08c379a0000000000000000000000000000000000000000000000000000000008152600401610a1390612f23565b60405180910390fd5b610a3082600461213490919063ffffffff16565b610a4a57610a488260046120a890919063ffffffff16565b505b7f00000000000000000000000000000000000000000000000000000000000000008160a0015182608001518360600151610a849190613154565b610a8e9190613154565b14610a9857600080fd5b80600a6000848152602001908152602001600020600082015181600001556020820151816001015560408201518160020155606082015181600301556080820151816004015560a08201518160050155905050600a600083815260200190815260200160002060010154600a600084815260200190815260200160002060010154610b2391906131aa565b73__MathLib_______________________________63b3947c179091600a6000868152602001908152602001600020600301547f00000000000000000000000000000000000000000000000000000000000000006040518463ffffffff1660e01b8152600401610b9593929190613204565b602060405180830381865af4158015610bb2573d6000803e3d6000fd5b505050506040513d601f19601f82011682018060405250810190610bd6919061304b565b600a600084815260200190815260200160002060020181905550600080600260009054906101000a900473ffffffffffffffffffffffffffffffffffffffff1673ffffffffffffffffffffffffffffffffffffffff1663feaf968c6040518163ffffffff1660e01b815260040160a060405180830381865afa158015610c60573d6000803e3d6000fd5b505050506040513d601f19601f82011682018060405250810190610c8491906132b3565b509350509250506000610c9683612418565b905081600760008781526020019081526020016000208190555060006006600087815260200190815260200160002060008481526020019081526020016000209050828160000181905550600a6000878152602001908152602001600020600001548160070181905581600601819055508181600401819055816003018190558160020181905550857fc9da3ef1cd9a1e60f158af3c87742d2ad2d68916eb599d3d740a66844efb13254233604051610d50929190612f43565b60405180910390a2505050505050565b6000801b81565b7f3ee192ac25847473237ced4bba57f848e1fd794930ff85b42823290580967205610d9181612168565b600080600260009054906101000a900473ffffffffffffffffffffffffffffffffffffffff1673ffffffffffffffffffffffffffffffffffffffff1663feaf968c6040518163ffffffff1660e01b815260040160a060405180830381865afa158015610e01573d6000803e3d6000fd5b505050506040513d601f19601f82011682018060405250810190610e2591906132b3565b509350509250506000610e3783612418565b90506000610e456004612465565b905060005b81811015611711576000610e6882600461247a90919063ffffffff16565b9050600060076000838152602001908152602001600020549050600060066000848152602001908152602001600020600083815260200190815260200160002090508060030154861115610ec0578581600301819055505b8060040154861015610ed6578581600401819055505b8282610ee29190613154565b87106116fb578681600101819055508581600501819055506000816002015490506000878210610fda578773__MathLib_______________________________63b3947c1790917f0000000000000000000000000000000000000000000000000000000000000000856040518463ffffffff1660e01b8152600401610f6993929190613204565b602060405180830381865af4158015610f86573d6000803e3d6000fd5b505050506040513d601f19601f82011682018060405250810190610faa919061304b565b7f0000000000000000000000000000000000000000000000000000000000000000610fd5919061332e565b6110a4565b7f00000000000000000000000000000000000000000000000000000000000000008873__MathLib_______________________________63b3947c1790917f0000000000000000000000000000000000000000000000000000000000000000866040518463ffffffff1660e01b815260040161105893929190613204565b602060405180830381865af4158015611075573d6000803e3d6000fd5b505050506040513d601f19601f82011682018060405250810190611099919061304b565b6110a3919061332e565b5b9050600061124a7f0000000000000000000000000000000000000000000000000000000000000000856003015473__MathLib_______________________________63b3947c1790917f0000000000000000000000000000000000000000000000000000000000000000886040518463ffffffff1660e01b815260040161112d93929190613204565b602060405180830381865af415801561114a573d6000803e3d6000fd5b505050506040513d601f19601f8201168201806040525081019061116e919061304b565b611178919061332e565b856004015473__MathLib_______________________________63b3947c1790917f0000000000000000000000000000000000000000000000000000000000000000886040518463ffffffff1660e01b81526004016111d993929190613204565b602060405180830381865af41580156111f6573d6000803e3d6000fd5b505050506040513d601f19601f8201168201806040525081019061121a919061304b565b7f0000000000000000000000000000000000000000000000000000000000000000611245919061332e565b612494565b905060006006600088815260200190815260200160002060008c815260200190815260200160002090506000600a600089815260200190815260200160002090508b8260000181905550856006015486600601546112a891906131aa565b73__MathLib_______________________________63b3947c17909183600401547f00000000000000000000000000000000000000000000000000000000000000006040518463ffffffff1660e01b815260040161130893929190613204565b602060405180830381865af4158015611325573d6000803e3d6000fd5b505050506040513d601f19601f82011682018060405250810190611349919061304b565b848561135591906131aa565b73__MathLib_______________________________63b3947c17909184600501547f00000000000000000000000000000000000000000000000000000000000000006040518463ffffffff1660e01b81526004016113b593929190613204565b602060405180830381865af41580156113d2573d6000803e3d6000fd5b505050506040513d601f19601f820116820180604052508101906113f6919061304b565b82600201546114059190613154565b61140f9190613154565b73__MathLib_______________________________63677342ce90916040518263ffffffff1660e01b81526004016114479190613078565b602060405180830381865af4158015611464573d6000803e3d6000fd5b505050506040513d601f19601f82011682018060405250810190611488919061304b565b8260060181905550856007015486600701546114a491906131aa565b73__MathLib_______________________________63b3947c17909183600401547f00000000000000000000000000000000000000000000000000000000000000006040518463ffffffff1660e01b815260040161150493929190613204565b602060405180830381865af4158015611521573d6000803e3d6000fd5b505050506040513d601f19601f82011682018060405250810190611545919061304b565b838461155191906131aa565b73__MathLib_______________________________63b3947c17909184600501547f00000000000000000000000000000000000000000000000000000000000000006040518463ffffffff1660e01b81526004016115b193929190613204565b602060405180830381865af41580156115ce573d6000803e3d6000fd5b505050506040513d601f19601f820116820180604052508101906115f2919061304b565b82600201546116019190613154565b61160b9190613154565b73__MathLib_______________________________63677342ce90916040518263ffffffff1660e01b81526004016116439190613078565b602060405180830381865af4158015611660573d6000803e3d6000fd5b505050506040513d601f19601f82011682018060405250810190611684919061304b565b82600701819055508a826004018190558260030181905582600201819055508b600760008a815260200190815260200160002081905550877facc5a92f422695ec223f46e9e8d944e705858adc9b9bd84eef64b9c3bc462e218d846040516116ed92919061348f565b60405180910390a250505050505b5050508080611709906134b9565b915050610e4a565b50826009819055506008600081548092919061172c906134b9565b91905055505050505050565b600080600260009054906101000a900473ffffffffffffffffffffffffffffffffffffffff1673ffffffffffffffffffffffffffffffffffffffff1663feaf968c6040518163ffffffff1660e01b815260040160a060405180830381865afa1580156117a8573d6000803e3d6000fd5b505050506040513d601f19601f820116820180604052508101906117cc91906132b3565b5050509150506117db81612418565b73__MathLib_______________________________63de7f617090917f00000000000000000000000000000000000000000000000000000000000000006040518363ffffffff1660e01b815260040161183592919061300d565b602060405180830381865af4158015611852573d6000803e3d6000fd5b505050506040513d601f19601f82011682018060405250810190611876919061304b565b91505090565b60035481565b600061189882600461213490919063ffffffff16565b156118df5760066000838152602001908152602001600020600060076000858152602001908152602001600020548152602001908152602001600020600601549050611ecf565b60008060006118ee6004612465565b905060005b8181101561196b57600061191182600461247a90919063ffffffff16565b9050868111801561192c57508481108061192b5750600085145b5b15611935578094505b868110801561194e57508381118061194d5750600084145b5b15611957578093505b508080611963906134b9565b9150506118f3565b5060008314801561197c5750600082115b15611b38576000600660008481526020019081526020016000206000600760008681526020019081526020016000205481526020019081526020016000206006015490508073__MathLib_______________________________63b3947c1790918873__MathLib_______________________________63677342ce90916040518263ffffffff1660e01b8152600401611a169190613078565b602060405180830381865af4158015611a33573d6000803e3d6000fd5b505050506040513d601f19601f82011682018060405250810190611a57919061304b565b8673__MathLib_______________________________63677342ce90916040518263ffffffff1660e01b8152600401611a909190613078565b602060405180830381865af4158015611aad573d6000803e3d6000fd5b505050506040513d601f19601f82011682018060405250810190611ad1919061304b565b6040518463ffffffff1660e01b8152600401611aef93929190613204565b602060405180830381865af4158015611b0c573d6000803e3d6000fd5b505050506040513d601f19601f82011682018060405250810190611b30919061304b565b945050611ecb565b600082148015611b485750600083115b15611d04576000600660008581526020019081526020016000206000600760008781526020019081526020016000205481526020019081526020016000206006015490508073__MathLib_______________________________63b3947c1790918873__MathLib_______________________________63677342ce90916040518263ffffffff1660e01b8152600401611be29190613078565b602060405180830381865af4158015611bff573d6000803e3d6000fd5b505050506040513d601f19601f82011682018060405250810190611c23919061304b565b8773__MathLib_______________________________63677342ce90916040518263ffffffff1660e01b8152600401611c5c9190613078565b602060405180830381865af4158015611c79573d6000803e3d6000fd5b505050506040513d601f19601f82011682018060405250810190611c9d919061304b565b6040518463ffffffff1660e01b8152600401611cbb93929190613204565b602060405180830381865af4158015611cd8573d6000803e3d6000fd5b505050506040513d601f19601f82011682018060405250810190611cfc919061304b565b945050611eca565b600083118015611d145750600082115b15611ec95760006006600084815260200190815260200160002060006007600086815260200190815260200160002054815260200190815260200160002060060154905060006006600086815260200190815260200160002060006007600088815260200190815260200160002054815260200190815260200160002060060154905060008486611da5919061332e565b90508173__MathLib_______________________________63b3947c179091878b611dd0919061332e565b846040518463ffffffff1660e01b8152600401611def93929190613204565b602060405180830381865af4158015611e0c573d6000803e3d6000fd5b505050506040513d601f19601f82011682018060405250810190611e30919061304b565b8373__MathLib_______________________________63b3947c1790918b8a611e59919061332e565b856040518463ffffffff1660e01b8152600401611e7893929190613204565b602060405180830381865af4158015611e95573d6000803e3d6000fd5b505050506040513d601f19601f82011682018060405250810190611eb9919061304b565b611ec39190613154565b96505050505b5b5b5050505b8073__MathLib_______________________________63de7f617090917f00000000000000000000000000000000000000000000000000000000000000006040518363ffffffff1660e01b8152600401611f2a92919061300d565b602060405180830381865af4158015611f47573d6000803e3d6000fd5b505050506040513d601f19601f82011682018060405250810190611f6b919061304b565b9050919050565b611f7b826104c2565b611f8481612168565b611f8e838361225c565b505050565b60095481565b611fa161212c565b73ffffffffffffffffffffffffffffffffffffffff16611fbf61090c565b73ffffffffffffffffffffffffffffffffffffffff1614612015576040517f08c379a000000000000000000000000000000000000000000000000000000000815260040161200c90612f23565b60405180910390fd5b600073ffffffffffffffffffffffffffffffffffffffff168173ffffffffffffffffffffffffffffffffffffffff1603612084576040517f08c379a000000000000000000000000000000000000000000000000000000000815260040161207b90613573565b60405180910390fd5b61208d81612354565b50565b60076020528060005260406000206000915090505481565b60006120ba836000018360001b6124ae565b905092915050565b60007f01ffc9a7000000000000000000000000000000000000000000000000000000007bffffffffffffffffffffffffffffffffffffffffffffffffffffffff1916827bffffffffffffffffffffffffffffffffffffffffffffffffffffffff1916149050919050565b600033905090565b6000612146836000018360001b61251e565b905092915050565b6000612160836000018360001b612541565b905092915050565b6121798161217461212c565b612655565b50565b6121868282610935565b61225857600180600084815260200190815260200160002060000160008373ffffffffffffffffffffffffffffffffffffffff1673ffffffffffffffffffffffffffffffffffffffff16815260200190815260200160002060006101000a81548160ff0219169083151502179055506121fd61212c565b73ffffffffffffffffffffffffffffffffffffffff168173ffffffffffffffffffffffffffffffffffffffff16837f2f8788117e7eff1d82e926ec794901d17c78024a50270940304540a733656f0d60405160405180910390a45b5050565b6122668282610935565b1561233a5760006001600084815260200190815260200160002060000160008373ffffffffffffffffffffffffffffffffffffffff1673ffffffffffffffffffffffffffffffffffffffff16815260200190815260200160002060006101000a81548160ff0219169083151502179055506122df61212c565b73ffffffffffffffffffffffffffffffffffffffff168173ffffffffffffffffffffffffffffffffffffffff16837ff6391f5c32d9c69d2a47ea670b442974b53935d1edc7fd64eb21e047a839171b60405160405180910390a45b5050565b6000818361234c91906131aa565b905092915050565b60008060009054906101000a900473ffffffffffffffffffffffffffffffffffffffff169050816000806101000a81548173ffffffffffffffffffffffffffffffffffffffff021916908373ffffffffffffffffffffffffffffffffffffffff1602179055508173ffffffffffffffffffffffffffffffffffffffff168173ffffffffffffffffffffffffffffffffffffffff167f8be0079c531659141344cd1fd0a4f28419497f9722a3daafe3b4186f6b6457e060405160405180910390a35050565b60008082121561245d576040517f08c379a0000000000000000000000000000000000000000000000000000000008152600401612454906135df565b60405180910390fd5b819050919050565b6000612473826000016126f2565b9050919050565b60006124898360000183612703565b60001c905092915050565b6000818310156124a457816124a6565b825b905092915050565b60006124ba838361251e565b612513578260000182908060018154018082558091505060019003906000526020600020016000909190919091505582600001805490508360010160008481526020019081526020016000208190555060019050612518565b600090505b92915050565b600080836001016000848152602001908152602001600020541415905092915050565b60008083600101600084815260200190815260200160002054905060008114612649576000600182612573919061332e565b905060006001866000018054905061258b919061332e565b90508181146125fa5760008660000182815481106125ac576125ab6135ff565b5b90600052602060002001549050808760000184815481106125d0576125cf6135ff565b5b90600052602060002001819055508387600101600083815260200190815260200160002081905550505b8560000180548061260e5761260d61362e565b5b60019003818190600052602060002001600090559055856001016000868152602001908152602001600020600090556001935050505061264f565b60009150505b92915050565b61265f8282610935565b6126ee576126848173ffffffffffffffffffffffffffffffffffffffff16601461272e565b6126928360001c602061272e565b6040516020016126a392919061376f565b6040516020818303038152906040526040517f08c379a00000000000000000000000000000000000000000000000000000000081526004016126e591906137e2565b60405180910390fd5b5050565b600081600001805490509050919050565b600082600001828154811061271b5761271a6135ff565b5b9060005260206000200154905092915050565b60606000600283600261274191906131aa565b61274b9190613154565b67ffffffffffffffff81111561276457612763612d3e565b5b6040519080825280601f01601f1916602001820160405280156127965781602001600182028036833780820191505090505b5090507f3000000000000000000000000000000000000000000000000000000000000000816000815181106127ce576127cd6135ff565b5b60200101907effffffffffffffffffffffffffffffffffffffffffffffffffffffffffffff1916908160001a9053507f780000000000000000000000000000000000000000000000000000000000000081600181518110612832576128316135ff565b5b60200101907effffffffffffffffffffffffffffffffffffffffffffffffffffffffffffff1916908160001a9053506000600184600261287291906131aa565b61287c9190613154565b90505b600181111561291c577f3031323334353637383961626364656600000000000000000000000000000000600f8616601081106128be576128bd6135ff565b5b1a60f81b8282815181106128d5576128d46135ff565b5b60200101907effffffffffffffffffffffffffffffffffffffffffffffffffffffffffffff1916908160001a905350600485901c94508061291590613804565b905061287f565b5060008414612960576040517f08c379a000000000000000000000000000000000000000000000000000000000815260040161295790613879565b60405180910390fd5b8091505092915050565b60405180610100016040528060008152602001600081526020016000815260200160008152602001600081526020016000815260200160008152602001600081525090565b6000819050919050565b6129c2816129af565b82525050565b60006020820190506129dd60008301846129b9565b92915050565b6000604051905090565b600080fd5b60007fffffffff0000000000000000000000000000000000000000000000000000000082169050919050565b612a27816129f2565b8114612a3257600080fd5b50565b600081359050612a4481612a1e565b92915050565b600060208284031215612a6057612a5f6129ed565b5b6000612a6e84828501612a35565b91505092915050565b60008115159050919050565b612a8c81612a77565b82525050565b6000602082019050612aa76000830184612a83565b92915050565b612ab6816129af565b8114612ac157600080fd5b50565b600081359050612ad381612aad565b92915050565b600060208284031215612aef57612aee6129ed565b5b6000612afd84828501612ac4565b91505092915050565b6000819050919050565b612b1981612b06565b8114612b2457600080fd5b50565b600081359050612b3681612b10565b92915050565b600060208284031215612b5257612b516129ed565b5b6000612b6084828501612b27565b91505092915050565b600073ffffffffffffffffffffffffffffffffffffffff82169050919050565b6000612b9482612b69565b9050919050565b612ba481612b89565b8114612baf57600080fd5b50565b600081359050612bc181612b9b565b92915050565b60008060408385031215612bde57612bdd6129ed565b5b6000612bec85828601612ac4565b9250506020612bfd85828601612bb2565b9150509250929050565b612c1081612b06565b82525050565b6000602082019050612c2b6000830184612c07565b92915050565b612c3a81612b06565b82525050565b61010082016000820151612c576000850182612c31565b506020820151612c6a6020850182612c31565b506040820151612c7d6040850182612c31565b506060820151612c906060850182612c31565b506080820151612ca36080850182612c31565b5060a0820151612cb660a0850182612c31565b5060c0820151612cc960c0850182612c31565b5060e0820151612cdc60e0850182612c31565b50505050565b600061010082019050612cf86000830184612c40565b92915050565b612d0781612b89565b82525050565b6000602082019050612d226000830184612cfe565b92915050565b600080fd5b6000601f19601f8301169050919050565b7f4e487b7100000000000000000000000000000000000000000000000000000000600052604160045260246000fd5b612d7682612d2d565b810181811067ffffffffffffffff82111715612d9557612d94612d3e565b5b80604052505050565b6000612da86129e3565b9050612db48282612d6d565b919050565b600060c08284031215612dcf57612dce612d28565b5b612dd960c0612d9e565b90506000612de984828501612b27565b6000830152506020612dfd84828501612b27565b6020830152506040612e1184828501612b27565b6040830152506060612e2584828501612b27565b6060830152506080612e3984828501612b27565b60808301525060a0612e4d84828501612b27565b60a08301525092915050565b60008060e08385031215612e7057612e6f6129ed565b5b6000612e7e85828601612b27565b9250506020612e8f85828601612db9565b9150509250929050565b600060208284031215612eaf57612eae6129ed565b5b6000612ebd84828501612bb2565b91505092915050565b600082825260208201905092915050565b7f4f776e61626c653a2063616c6c6572206973206e6f7420746865206f776e6572600082015250565b6000612f0d602083612ec6565b9150612f1882612ed7565b602082019050919050565b60006020820190508181036000830152612f3c81612f00565b9050919050565b6000604082019050612f586000830185612c07565b612f656020830184612cfe565b9392505050565b7f416363657373436f6e74726f6c3a2063616e206f6e6c792072656e6f756e636560008201527f20726f6c657320666f722073656c660000000000000000000000000000000000602082015250565b6000612fc8602f83612ec6565b9150612fd382612f6c565b604082019050919050565b60006020820190508181036000830152612ff781612fbb565b9050919050565b61300781612b06565b82525050565b60006040820190506130226000830185612ffe565b61302f6020830184612ffe565b9392505050565b60008151905061304581612b10565b92915050565b600060208284031215613061576130606129ed565b5b600061306f84828501613036565b91505092915050565b600060208201905061308d6000830184612ffe565b92915050565b7f496e707574206f7074696f6e2074656e6f72206973206e6f7420616c6c6f776560008201527f642e000000000000000000000000000000000000000000000000000000000000602082015250565b60006130ef602283612ec6565b91506130fa82613093565b604082019050919050565b6000602082019050818103600083015261311e816130e2565b9050919050565b7f4e487b7100000000000000000000000000000000000000000000000000000000600052601160045260246000fd5b600061315f82612b06565b915061316a83612b06565b9250827fffffffffffffffffffffffffffffffffffffffffffffffffffffffffffffffff0382111561319f5761319e613125565b5b828201905092915050565b60006131b582612b06565b91506131c083612b06565b9250817fffffffffffffffffffffffffffffffffffffffffffffffffffffffffffffffff04831182151516156131f9576131f8613125565b5b828202905092915050565b60006060820190506132196000830186612ffe565b6132266020830185612ffe565b6132336040830184612ffe565b949350505050565b600069ffffffffffffffffffff82169050919050565b61325a8161323b565b811461326557600080fd5b50565b60008151905061327781613251565b92915050565b6000819050919050565b6132908161327d565b811461329b57600080fd5b50565b6000815190506132ad81613287565b92915050565b600080600080600060a086880312156132cf576132ce6129ed565b5b60006132dd88828901613268565b95505060206132ee8882890161329e565b94505060406132ff88828901613036565b935050606061331088828901613036565b925050608061332188828901613268565b9150509295509295909350565b600061333982612b06565b915061334483612b06565b92508282101561335757613356613125565b5b828203905092915050565b60008160001c9050919050565b6000819050919050565b600061338c61338783613362565b61336f565b9050919050565b610100820160008083015490506133a981613379565b6133b66000860182612c31565b50600183015490506133c781613379565b6133d46020860182612c31565b50600283015490506133e581613379565b6133f26040860182612c31565b506003830154905061340381613379565b6134106060860182612c31565b506004830154905061342181613379565b61342e6080860182612c31565b506005830154905061343f81613379565b61344c60a0860182612c31565b506006830154905061345d81613379565b61346a60c0860182612c31565b506007830154905061347b81613379565b61348860e0860182612c31565b5050505050565b6000610120820190506134a56000830185612c07565b6134b26020830184613393565b9392505050565b60006134c482612b06565b91507fffffffffffffffffffffffffffffffffffffffffffffffffffffffffffffffff82036134f6576134f5613125565b5b600182019050919050565b7f4f776e61626c653a206e6577206f776e657220697320746865207a65726f206160008201527f6464726573730000000000000000000000000000000000000000000000000000602082015250565b600061355d602683612ec6565b915061356882613501565b604082019050919050565b6000602082019050818103600083015261358c81613550565b9050919050565b7f53616665436173743a2076616c7565206d75737420626520706f736974697665600082015250565b60006135c9602083612ec6565b91506135d482613593565b602082019050919050565b600060208201905081810360008301526135f8816135bc565b9050919050565b7f4e487b7100000000000000000000000000000000000000000000000000000000600052603260045260246000fd5b7f4e487b7100000000000000000000000000000000000000000000000000000000600052603160045260246000fd5b600081905092915050565b7f416363657373436f6e74726f6c3a206163636f756e7420000000000000000000600082015250565b600061369e60178361365d565b91506136a982613668565b601782019050919050565b600081519050919050565b60005b838110156136dd5780820151818401526020810190506136c2565b838111156136ec576000848401525b50505050565b60006136fd826136b4565b613707818561365d565b93506137178185602086016136bf565b80840191505092915050565b7f206973206d697373696e6720726f6c6520000000000000000000000000000000600082015250565b600061375960118361365d565b915061376482613723565b601182019050919050565b600061377a82613691565b915061378682856136f2565b91506137918261374c565b915061379d82846136f2565b91508190509392505050565b60006137b4826136b4565b6137be8185612ec6565b93506137ce8185602086016136bf565b6137d781612d2d565b840191505092915050565b600060208201905081810360008301526137fc81846137a9565b905092915050565b600061380f82612b06565b91506000820361382257613821613125565b5b600182039050919050565b7f537472696e67733a20686578206c656e67746820696e73756666696369656e74600082015250565b6000613863602083612ec6565b915061386e8261382d565b602082019050919050565b6000602082019050818103600083015261389281613856565b905091905056fea2646970667358221220b351a5c89ba60e3ab52c5e7a3b8f55dc123df74d8b7701fa6385967a4382298864736f6c634300080f0033",
  "immutableReferences": {
    "10542": [
      {
        "length": 32,
        "start": 3883
      },
      {
        "length": 32,
        "start": 4012
      },
      {
        "length": 32,
        "start": 4060
      },
      {
        "length": 32,
        "start": 4122
      },
      {
        "length": 32,
        "start": 4269
      },
      {
        "length": 32,
        "start": 4335
      },
      {
        "length": 32,
        "start": 4507
      },
      {
        "length": 32,
        "start": 4636
      },
      {
        "length": 32,
        "start": 6137
      },
      {
        "length": 32,
        "start": 7918
      }
    ],
    "10555": [
      {
        "length": 32,
        "start": 2636
      },
      {
        "length": 32,
        "start": 2904
      },
      {
        "length": 32,
        "start": 4811
      },
      {
        "length": 32,
        "start": 4984
      },
      {
        "length": 32,
        "start": 5319
      },
      {
        "length": 32,
        "start": 5492
      }
    ]
  },
  "source": "// SPDX-License-Identifier: MIT\npragma solidity ^0.8.4;\n\nimport {Ownable} from \"@openzeppelin/contracts/access/Ownable.sol\";\nimport \"@openzeppelin/contracts/utils/math/Math.sol\";\nimport \"@openzeppelin/contracts/utils/math/SafeMath.sol\";\nimport {AccessControl} from \"@openzeppelin/contracts/access/AccessControl.sol\";\nimport \"@openzeppelin/contracts/utils/structs/EnumerableSet.sol\";\nimport \"@openzeppelin/contracts/utils/math/SafeCast.sol\";\nimport \"@chainlink/contracts/src/v0.8/interfaces/AggregatorV3Interface.sol\";\n\nimport \"./libraries/MathLib.sol\";\nimport \"./interfaces/IVolatilityChain.sol\";\n\ncontract VolatilityChain is Ownable, AccessControl, IVolatilityChain{\n  using MathLib for uint256;\n  using SafeMath for uint256;\n  using EnumerableSet for EnumerableSet.UintSet;\n\n  bytes32 public constant UPDATE_ROLE = keccak256(\"UPDATE_ROLE\");\n  AggregatorV3Interface internal priceInterface;\n  bytes32 public tokenHash;\n  EnumerableSet.UintSet tenors;\n\n  mapping(uint256=>mapping(uint256=>PriceStamp)) private priceBook;\n  mapping(uint256=>uint256) public latestBookTime;\n\n  uint256 internal immutable priceMultiplier;\n\n  uint256 public volatilityUpdateCounter;\n  uint256 public volatilityUpdateTime;\n\n  mapping(uint256=> VolParam) internal volatilityParameters;\n  uint256 internal immutable volParamDecimals;\n  uint256 internal immutable parameterMultiplier;\n\n  uint256 internal constant SECONDS_1Y = 31536000; // 365 * 24 * 60 * 60\n\n  constructor(AggregatorV3Interface _priceSource, uint256 _parameterDecimals, string memory _tokenName, address _updateAddress )  {\n    _setupRole(DEFAULT_ADMIN_ROLE, msg.sender); \n\n    _setupRole(UPDATE_ROLE, _updateAddress);\n    tokenHash = keccak256(bytes(_tokenName));\n    tenors.add(1 days);\n    tenors.add(7 days);\n    tenors.add(30 days);\n\n    priceInterface = _priceSource;\n    priceMultiplier = 10 ** _priceSource.decimals();\n    volParamDecimals = _parameterDecimals;\n    parameterMultiplier = 10 ** _parameterDecimals;}\n\n  function queryVol(uint256 _tenor) external override view returns(uint256 _vol){\n    _vol = 0;\n    if(tenors.contains(_tenor)){ \n      _vol = priceBook[_tenor][latestBookTime[_tenor]].volatility;}\n    else {\n      uint256 _upperTenor = 0;\n      uint256 _lowerTenor = 0;\n      uint _tenorsCount = tenors.length();\n\n      for(uint i = 0;i< _tenorsCount;i++){\n        uint256 _tenorI = tenors.at(i);\n        if(_tenorI >_tenor && (_tenorI < _upperTenor || _upperTenor == 0) ){ \n          _upperTenor = _tenorI; }\n        if(_tenorI <_tenor && (_tenorI > _lowerTenor || _lowerTenor == 0) ){ \n          _lowerTenor = _tenorI; }}\n\n      if(_upperTenor == 0 && _lowerTenor > 0) { \n        uint256 _lowerVol = priceBook[_lowerTenor][latestBookTime[_lowerTenor]].volatility;\n        _vol = _lowerVol.muldiv(_tenor.sqrt() , _lowerTenor.sqrt());}\n      else if(_lowerTenor==0 && _upperTenor > 0) {\n        uint256 _upperVol = priceBook[_upperTenor][latestBookTime[_upperTenor]].volatility;\n        _vol = _upperVol.muldiv( _tenor.sqrt() , _upperTenor.sqrt());}\n      else if(_upperTenor >0 && _lowerTenor >0){ \n        uint256 _lowerVol = priceBook[_lowerTenor][latestBookTime[_lowerTenor]].volatility;\n        uint256 _upperVol = priceBook[_upperTenor][latestBookTime[_upperTenor]].volatility;\n        uint256 _tenorInterval = _upperTenor - _lowerTenor;\n        _vol = _lowerVol.muldiv( _upperTenor - _tenor,  _tenorInterval) + _upperVol.muldiv( _tenor - _lowerTenor, _tenorInterval);}}\n\n      _vol = _vol.ethdiv(priceMultiplier);}\n\n  function queryPrice() external override view returns(uint256){\n    (,int _price,,,) = priceInterface.latestRoundData();\n    return SafeCast.toUint256(_price).ethdiv(priceMultiplier);}\n\n  function update() external onlyRole(UPDATE_ROLE){\n    (,int _price,,uint _timeStamp,) = priceInterface.latestRoundData();\n    uint256 _updatePrice = SafeCast.toUint256(_price);\n    uint _tenorsCount = tenors.length();\n\n    for(uint i = 0;i< _tenorsCount;i++) {\n      uint256 _tenor = tenors.at(i);\n      uint256 _latestTimeStamp = latestBookTime[_tenor];\n      PriceStamp storage _priceStamp = priceBook[_tenor][_latestTimeStamp];\n      if(_updatePrice > _priceStamp.highest){\n        _priceStamp.highest=_updatePrice;}\n      if(_updatePrice<_priceStamp.lowest){\n         _priceStamp.lowest=_updatePrice;}\n\n      if(_timeStamp>= (_latestTimeStamp + _tenor)){\n        _priceStamp.endTime = _timeStamp;\n        _priceStamp.close = _updatePrice;\n        uint256 _open = _priceStamp.open;\n        uint256 _periodMove = (_open < _updatePrice)? (_updatePrice.muldiv( priceMultiplier, _open) - priceMultiplier) : (priceMultiplier - _updatePrice.muldiv( priceMultiplier, _open ));\n        uint256 _largestMove = Math.max(_priceStamp.highest.muldiv(priceMultiplier, _open) - priceMultiplier , priceMultiplier - _priceStamp.lowest.muldiv( priceMultiplier, _open ));\n\n        PriceStamp storage _newPriceStamp = priceBook[_tenor][_timeStamp];\n        VolParam storage _volParameter = volatilityParameters[_tenor];\n        _newPriceStamp.startTime = _timeStamp;\n        _newPriceStamp.volatility = (_volParameter.ltVolWeighted + (_periodMove * _periodMove).muldiv( _volParameter.q, parameterMultiplier) + (_priceStamp.volatility * _priceStamp.volatility).muldiv( _volParameter.p, parameterMultiplier)).sqrt();\n        _newPriceStamp.accentus = (_volParameter.ltVolWeighted + (_largestMove * _largestMove).muldiv( _volParameter.q, parameterMultiplier) + (_priceStamp.accentus * _priceStamp.accentus).muldiv( _volParameter.p, parameterMultiplier)).sqrt();\n        _newPriceStamp.open = _newPriceStamp.highest = _newPriceStamp.lowest = _updatePrice;\n\n        latestBookTime[_tenor] = _timeStamp;\n        emit NewVolatilityChainBlock(_tenor, _timeStamp, _newPriceStamp);} }\n\n    volatilityUpdateTime = _timeStamp;\n    volatilityUpdateCounter ++;}\n\n  function resetVolParams(uint256 _tenor, VolParam memory _volParams) external onlyOwner{\n    if(!tenors.contains(_tenor)){\n      tenors.add(_tenor);}\n    // sqrtRatios[_tenor] = _ratio;\n    \n    require((_volParams.w + _volParams.p + _volParams.q)==parameterMultiplier);\n    volatilityParameters[_tenor] = _volParams;\n    volatilityParameters[_tenor].ltVolWeighted = (volatilityParameters[_tenor].ltVol*volatilityParameters[_tenor].ltVol).muldiv( volatilityParameters[_tenor].w, parameterMultiplier);\n\n    (,int _price,,uint _timeStamp,) = priceInterface.latestRoundData();\n    uint256 _updatePrice = SafeCast.toUint256(_price);\n\n    latestBookTime[_tenor] = _timeStamp;\n    PriceStamp storage _priceStamp = priceBook[_tenor][_timeStamp];\n    _priceStamp.startTime = _timeStamp;\n    _priceStamp.volatility = _priceStamp.accentus = volatilityParameters[_tenor].initialVol;\n    _priceStamp.open = _priceStamp.highest = _priceStamp.lowest = _updatePrice;\n    emit ResetVolChainParameter(_tenor, block.timestamp, msg.sender);}\n\n  function removeTenor(uint256 _tenor) external onlyOwner{\n    require(tenors.contains(_tenor));\n    tenors.remove(_tenor);\n    emit RemovedTenor(_tenor, block.timestamp, msg.sender);}\n\n  function getPriceBook(uint256 _tenor) external view returns(PriceStamp memory){\n    require(tenors.contains(_tenor), \"Input option tenor is not allowed.\");\n    return priceBook[_tenor][latestBookTime[_tenor]];}\n\n  // // update sqrt ratio\n  // function updateSqrtRatio(uint256 _tenor, uint256 _ratio) external onlyOwner{\n  //     if(!tenors.contains(_tenor)){\n  //       tenors.add(_tenor);}\n  //     sqrtRatios[_tenor] = _ratio;}\n  \n  function getSqrtRatio(uint256 _tenor) external pure returns(uint256){\n    return SECONDS_1Y.ethdiv(_tenor).sqrt().mul(1e9); // in 18 decimal places\n    }\n}\n",
  "sourcePath": "/Users/mac/Documents/GitHub/moret/contracts/VolatilityChain.sol",
  "compiler": {
    "name": "solc",
    "version": "0.8.15+commit.e14f2714.Emscripten.clang"
  },
  "schemaVersion": "3.4.3",
  "updatedAt": "2022-06-28T19:45:37.369Z",
  "networkType": "ethereum",
  "devdoc": {
    "kind": "dev",
    "methods": {
      "getRoleAdmin(bytes32)": {
        "details": "Returns the admin role that controls `role`. See {grantRole} and {revokeRole}. To change a role's admin, use {_setRoleAdmin}."
      },
      "grantRole(bytes32,address)": {
        "details": "Grants `role` to `account`. If `account` had not been already granted `role`, emits a {RoleGranted} event. Requirements: - the caller must have ``role``'s admin role."
      },
      "hasRole(bytes32,address)": {
        "details": "Returns `true` if `account` has been granted `role`."
      },
      "owner()": {
        "details": "Returns the address of the current owner."
      },
      "renounceOwnership()": {
        "details": "Leaves the contract without owner. It will not be possible to call `onlyOwner` functions anymore. Can only be called by the current owner. NOTE: Renouncing ownership will leave the contract without an owner, thereby removing any functionality that is only available to the owner."
      },
      "renounceRole(bytes32,address)": {
        "details": "Revokes `role` from the calling account. Roles are often managed via {grantRole} and {revokeRole}: this function's purpose is to provide a mechanism for accounts to lose their privileges if they are compromised (such as when a trusted device is misplaced). If the calling account had been revoked `role`, emits a {RoleRevoked} event. Requirements: - the caller must be `account`."
      },
      "revokeRole(bytes32,address)": {
        "details": "Revokes `role` from `account`. If `account` had been granted `role`, emits a {RoleRevoked} event. Requirements: - the caller must have ``role``'s admin role."
      },
      "supportsInterface(bytes4)": {
        "details": "See {IERC165-supportsInterface}."
      },
      "transferOwnership(address)": {
        "details": "Transfers ownership of the contract to a new account (`newOwner`). Can only be called by the current owner."
      }
    },
    "version": 1
  },
  "userdoc": {
    "kind": "user",
    "methods": {},
    "version": 1
  }
}