{
  "contractName": "VolatilityToken",
  "abi": [
    {
      "inputs": [
        {
          "internalType": "contract ERC20",
          "name": "_funding",
          "type": "address"
        },
        {
          "internalType": "address",
          "name": "_underlying",
          "type": "address"
        },
        {
          "internalType": "uint256",
          "name": "_tenor",
          "type": "uint256"
        },
        {
          "internalType": "string",
          "name": "_name",
          "type": "string"
        },
        {
          "internalType": "string",
          "name": "_symbol",
          "type": "string"
        },
        {
          "internalType": "address",
          "name": "_exchange",
          "type": "address"
        }
      ],
      "stateMutability": "nonpayable",
      "type": "constructor"
    },
    {
      "anonymous": false,
      "inputs": [
        {
          "indexed": true,
          "internalType": "address",
          "name": "owner",
          "type": "address"
        },
        {
          "indexed": true,
          "internalType": "address",
          "name": "spender",
          "type": "address"
        },
        {
          "indexed": false,
          "internalType": "uint256",
          "name": "value",
          "type": "uint256"
        }
      ],
      "name": "Approval",
      "type": "event"
    },
    {
      "anonymous": false,
      "inputs": [
        {
          "indexed": true,
          "internalType": "bytes32",
          "name": "role",
          "type": "bytes32"
        },
        {
          "indexed": true,
          "internalType": "bytes32",
          "name": "previousAdminRole",
          "type": "bytes32"
        },
        {
          "indexed": true,
          "internalType": "bytes32",
          "name": "newAdminRole",
          "type": "bytes32"
        }
      ],
      "name": "RoleAdminChanged",
      "type": "event"
    },
    {
      "anonymous": false,
      "inputs": [
        {
          "indexed": true,
          "internalType": "bytes32",
          "name": "role",
          "type": "bytes32"
        },
        {
          "indexed": true,
          "internalType": "address",
          "name": "account",
          "type": "address"
        },
        {
          "indexed": true,
          "internalType": "address",
          "name": "sender",
          "type": "address"
        }
      ],
      "name": "RoleGranted",
      "type": "event"
    },
    {
      "anonymous": false,
      "inputs": [
        {
          "indexed": true,
          "internalType": "bytes32",
          "name": "role",
          "type": "bytes32"
        },
        {
          "indexed": true,
          "internalType": "address",
          "name": "account",
          "type": "address"
        },
        {
          "indexed": true,
          "internalType": "address",
          "name": "sender",
          "type": "address"
        }
      ],
      "name": "RoleRevoked",
      "type": "event"
    },
    {
      "anonymous": false,
      "inputs": [
        {
          "indexed": true,
          "internalType": "address",
          "name": "from",
          "type": "address"
        },
        {
          "indexed": true,
          "internalType": "address",
          "name": "to",
          "type": "address"
        },
        {
          "indexed": false,
          "internalType": "uint256",
          "name": "value",
          "type": "uint256"
        }
      ],
      "name": "Transfer",
      "type": "event"
    },
    {
      "inputs": [],
      "name": "DEFAULT_ADMIN_ROLE",
      "outputs": [
        {
          "internalType": "bytes32",
          "name": "",
          "type": "bytes32"
        }
      ],
      "stateMutability": "view",
      "type": "function",
      "constant": true
    },
    {
      "inputs": [],
      "name": "EXCHANGE",
      "outputs": [
        {
          "internalType": "bytes32",
          "name": "",
          "type": "bytes32"
        }
      ],
      "stateMutability": "view",
      "type": "function",
      "constant": true
    },
    {
      "inputs": [
        {
          "internalType": "address",
          "name": "owner",
          "type": "address"
        },
        {
          "internalType": "address",
          "name": "spender",
          "type": "address"
        }
      ],
      "name": "allowance",
      "outputs": [
        {
          "internalType": "uint256",
          "name": "",
          "type": "uint256"
        }
      ],
      "stateMutability": "view",
      "type": "function",
      "constant": true
    },
    {
      "inputs": [
        {
          "internalType": "address",
          "name": "spender",
          "type": "address"
        },
        {
          "internalType": "uint256",
          "name": "amount",
          "type": "uint256"
        }
      ],
      "name": "approve",
      "outputs": [
        {
          "internalType": "bool",
          "name": "",
          "type": "bool"
        }
      ],
      "stateMutability": "nonpayable",
      "type": "function"
    },
    {
      "inputs": [
        {
          "internalType": "address",
          "name": "account",
          "type": "address"
        }
      ],
      "name": "balanceOf",
      "outputs": [
        {
          "internalType": "uint256",
          "name": "",
          "type": "uint256"
        }
      ],
      "stateMutability": "view",
      "type": "function",
      "constant": true
    },
    {
      "inputs": [],
      "name": "decimals",
      "outputs": [
        {
          "internalType": "uint8",
          "name": "",
          "type": "uint8"
        }
      ],
      "stateMutability": "view",
      "type": "function",
      "constant": true
    },
    {
      "inputs": [
        {
          "internalType": "address",
          "name": "spender",
          "type": "address"
        },
        {
          "internalType": "uint256",
          "name": "subtractedValue",
          "type": "uint256"
        }
      ],
      "name": "decreaseAllowance",
      "outputs": [
        {
          "internalType": "bool",
          "name": "",
          "type": "bool"
        }
      ],
      "stateMutability": "nonpayable",
      "type": "function"
    },
    {
      "inputs": [],
      "name": "funding",
      "outputs": [
        {
          "internalType": "contract ERC20",
          "name": "",
          "type": "address"
        }
      ],
      "stateMutability": "view",
      "type": "function",
      "constant": true
    },
    {
      "inputs": [
        {
          "internalType": "bytes32",
          "name": "role",
          "type": "bytes32"
        }
      ],
      "name": "getRoleAdmin",
      "outputs": [
        {
          "internalType": "bytes32",
          "name": "",
          "type": "bytes32"
        }
      ],
      "stateMutability": "view",
      "type": "function",
      "constant": true
    },
    {
      "inputs": [
        {
          "internalType": "bytes32",
          "name": "role",
          "type": "bytes32"
        },
        {
          "internalType": "address",
          "name": "account",
          "type": "address"
        }
      ],
      "name": "grantRole",
      "outputs": [],
      "stateMutability": "nonpayable",
      "type": "function"
    },
    {
      "inputs": [
        {
          "internalType": "bytes32",
          "name": "role",
          "type": "bytes32"
        },
        {
          "internalType": "address",
          "name": "account",
          "type": "address"
        }
      ],
      "name": "hasRole",
      "outputs": [
        {
          "internalType": "bool",
          "name": "",
          "type": "bool"
        }
      ],
      "stateMutability": "view",
      "type": "function",
      "constant": true
    },
    {
      "inputs": [
        {
          "internalType": "address",
          "name": "spender",
          "type": "address"
        },
        {
          "internalType": "uint256",
          "name": "addedValue",
          "type": "uint256"
        }
      ],
      "name": "increaseAllowance",
      "outputs": [
        {
          "internalType": "bool",
          "name": "",
          "type": "bool"
        }
      ],
      "stateMutability": "nonpayable",
      "type": "function"
    },
    {
      "inputs": [],
      "name": "name",
      "outputs": [
        {
          "internalType": "string",
          "name": "",
          "type": "string"
        }
      ],
      "stateMutability": "view",
      "type": "function",
      "constant": true
    },
    {
      "inputs": [
        {
          "internalType": "bytes32",
          "name": "role",
          "type": "bytes32"
        },
        {
          "internalType": "address",
          "name": "account",
          "type": "address"
        }
      ],
      "name": "renounceRole",
      "outputs": [],
      "stateMutability": "nonpayable",
      "type": "function"
    },
    {
      "inputs": [
        {
          "internalType": "bytes32",
          "name": "role",
          "type": "bytes32"
        },
        {
          "internalType": "address",
          "name": "account",
          "type": "address"
        }
      ],
      "name": "revokeRole",
      "outputs": [],
      "stateMutability": "nonpayable",
      "type": "function"
    },
    {
      "inputs": [
        {
          "internalType": "bytes4",
          "name": "interfaceId",
          "type": "bytes4"
        }
      ],
      "name": "supportsInterface",
      "outputs": [
        {
          "internalType": "bool",
          "name": "",
          "type": "bool"
        }
      ],
      "stateMutability": "view",
      "type": "function",
      "constant": true
    },
    {
      "inputs": [],
      "name": "symbol",
      "outputs": [
        {
          "internalType": "string",
          "name": "",
          "type": "string"
        }
      ],
      "stateMutability": "view",
      "type": "function",
      "constant": true
    },
    {
      "inputs": [],
      "name": "tenor",
      "outputs": [
        {
          "internalType": "uint256",
          "name": "",
          "type": "uint256"
        }
      ],
      "stateMutability": "view",
      "type": "function",
      "constant": true
    },
    {
      "inputs": [],
      "name": "totalSupply",
      "outputs": [
        {
          "internalType": "uint256",
          "name": "",
          "type": "uint256"
        }
      ],
      "stateMutability": "view",
      "type": "function",
      "constant": true
    },
    {
      "inputs": [
        {
          "internalType": "address",
          "name": "to",
          "type": "address"
        },
        {
          "internalType": "uint256",
          "name": "amount",
          "type": "uint256"
        }
      ],
      "name": "transfer",
      "outputs": [
        {
          "internalType": "bool",
          "name": "",
          "type": "bool"
        }
      ],
      "stateMutability": "nonpayable",
      "type": "function"
    },
    {
      "inputs": [
        {
          "internalType": "address",
          "name": "from",
          "type": "address"
        },
        {
          "internalType": "address",
          "name": "to",
          "type": "address"
        },
        {
          "internalType": "uint256",
          "name": "amount",
          "type": "uint256"
        }
      ],
      "name": "transferFrom",
      "outputs": [
        {
          "internalType": "bool",
          "name": "",
          "type": "bool"
        }
      ],
      "stateMutability": "nonpayable",
      "type": "function"
    },
    {
      "inputs": [],
      "name": "underlying",
      "outputs": [
        {
          "internalType": "address",
          "name": "",
          "type": "address"
        }
      ],
      "stateMutability": "view",
      "type": "function",
      "constant": true
    },
    {
      "inputs": [
        {
          "internalType": "uint256",
          "name": "_premium",
          "type": "uint256"
        },
        {
          "internalType": "uint256",
          "name": "_vol",
          "type": "uint256"
        }
      ],
      "name": "getMintAmount",
      "outputs": [
        {
          "internalType": "uint256",
          "name": "_mintAmount",
          "type": "uint256"
        },
        {
          "internalType": "uint256",
          "name": "_volPrice",
          "type": "uint256"
        }
      ],
      "stateMutability": "view",
      "type": "function",
      "constant": true
    },
    {
      "inputs": [
        {
          "internalType": "uint256",
          "name": "_premium",
          "type": "uint256"
        },
        {
          "internalType": "uint256",
          "name": "_vol",
          "type": "uint256"
        }
      ],
      "name": "getBurnAmount",
      "outputs": [
        {
          "internalType": "uint256",
          "name": "_burnAmount",
          "type": "uint256"
        },
        {
          "internalType": "uint256",
          "name": "_volPrice",
          "type": "uint256"
        }
      ],
      "stateMutability": "view",
      "type": "function",
      "constant": true
    },
    {
      "inputs": [
        {
          "internalType": "address",
          "name": "_account",
          "type": "address"
        },
        {
          "internalType": "uint256",
          "name": "_amount",
          "type": "uint256"
        }
      ],
      "name": "mint",
      "outputs": [],
      "stateMutability": "nonpayable",
      "type": "function"
    },
    {
      "inputs": [
        {
          "internalType": "address",
          "name": "_account",
          "type": "address"
        },
        {
          "internalType": "uint256",
          "name": "_amount",
          "type": "uint256"
        }
      ],
      "name": "burn",
      "outputs": [],
      "stateMutability": "nonpayable",
      "type": "function"
    },
    {
      "inputs": [
        {
          "internalType": "address",
          "name": "_account",
          "type": "address"
        },
        {
          "internalType": "uint256",
          "name": "_amount",
          "type": "uint256"
        }
      ],
      "name": "pay",
      "outputs": [],
      "stateMutability": "nonpayable",
      "type": "function"
    }
  ],
  "bytecode": "0x60806040523480156200001157600080fd5b5060405162003e2e38038062003e2e8339818101604052810190620000379190620008d4565b828281600390816200004a919062000bef565b5080600490816200005c919062000bef565b505050620000746000801b336200013b60201b60201c565b85600860006101000a81548173ffffffffffffffffffffffffffffffffffffffff021916908373ffffffffffffffffffffffffffffffffffffffff1602179055508360068190555084600760006101000a81548173ffffffffffffffffffffffffffffffffffffffff021916908373ffffffffffffffffffffffffffffffffffffffff1602179055506200012f7f10b261d3bc7a74f38949f9212b0336103474898eda034c06ae0a3e478dc0e4a5826200015160201b60201c565b5050505050506200102c565b6200014d82826200018a60201b60201c565b5050565b62000162826200027c60201b60201c565b62000173816200029c60201b60201c565b6200018583836200018a60201b60201c565b505050565b6200019c8282620002c060201b60201c565b620002785760016005600084815260200190815260200160002060000160008373ffffffffffffffffffffffffffffffffffffffff1673ffffffffffffffffffffffffffffffffffffffff16815260200190815260200160002060006101000a81548160ff0219169083151502179055506200021d6200032b60201b60201c565b73ffffffffffffffffffffffffffffffffffffffff168173ffffffffffffffffffffffffffffffffffffffff16837f2f8788117e7eff1d82e926ec794901d17c78024a50270940304540a733656f0d60405160405180910390a45b5050565b600060056000838152602001908152602001600020600101549050919050565b620002bd81620002b16200032b60201b60201c565b6200033360201b60201c565b50565b60006005600084815260200190815260200160002060000160008373ffffffffffffffffffffffffffffffffffffffff1673ffffffffffffffffffffffffffffffffffffffff16815260200190815260200160002060009054906101000a900460ff16905092915050565b600033905090565b620003458282620002c060201b60201c565b620003f357620003788173ffffffffffffffffffffffffffffffffffffffff166014620003f760201b620010341760201c565b620003938360001c6020620003f760201b620010341760201c565b604051602001620003a692919062000db8565b6040516020818303038152906040526040517f08c379a0000000000000000000000000000000000000000000000000000000008152600401620003ea919062000e4c565b60405180910390fd5b5050565b6060600060028360026200040c919062000e9f565b62000418919062000f00565b67ffffffffffffffff81111562000434576200043362000766565b5b6040519080825280601f01601f191660200182016040528015620004675781602001600182028036833780820191505090505b5090507f300000000000000000000000000000000000000000000000000000000000000081600081518110620004a257620004a162000f5d565b5b60200101907effffffffffffffffffffffffffffffffffffffffffffffffffffffffffffff1916908160001a9053507f78000000000000000000000000000000000000000000000000000000000000008160018151811062000509576200050862000f5d565b5b60200101907effffffffffffffffffffffffffffffffffffffffffffffffffffffffffffff1916908160001a905350600060018460026200054b919062000e9f565b62000557919062000f00565b90505b600181111562000601577f3031323334353637383961626364656600000000000000000000000000000000600f8616601081106200059d576200059c62000f5d565b5b1a60f81b828281518110620005b757620005b662000f5d565b5b60200101907effffffffffffffffffffffffffffffffffffffffffffffffffffffffffffff1916908160001a905350600485901c945080620005f99062000f8c565b90506200055a565b506000841462000648576040517f08c379a00000000000000000000000000000000000000000000000000000000081526004016200063f906200100a565b60405180910390fd5b8091505092915050565b6000604051905090565b600080fd5b600080fd5b600073ffffffffffffffffffffffffffffffffffffffff82169050919050565b6000620006938262000666565b9050919050565b6000620006a78262000686565b9050919050565b620006b9816200069a565b8114620006c557600080fd5b50565b600081519050620006d981620006ae565b92915050565b620006ea8162000686565b8114620006f657600080fd5b50565b6000815190506200070a81620006df565b92915050565b6000819050919050565b620007258162000710565b81146200073157600080fd5b50565b60008151905062000745816200071a565b92915050565b600080fd5b600080fd5b6000601f19601f8301169050919050565b7f4e487b7100000000000000000000000000000000000000000000000000000000600052604160045260246000fd5b620007a08262000755565b810181811067ffffffffffffffff82111715620007c257620007c162000766565b5b80604052505050565b6000620007d762000652565b9050620007e5828262000795565b919050565b600067ffffffffffffffff82111562000808576200080762000766565b5b620008138262000755565b9050602081019050919050565b60005b838110156200084057808201518184015260208101905062000823565b8381111562000850576000848401525b50505050565b60006200086d6200086784620007ea565b620007cb565b9050828152602081018484840111156200088c576200088b62000750565b5b6200089984828562000820565b509392505050565b600082601f830112620008b957620008b86200074b565b5b8151620008cb84826020860162000856565b91505092915050565b60008060008060008060c08789031215620008f457620008f36200065c565b5b60006200090489828a01620006c8565b96505060206200091789828a01620006f9565b95505060406200092a89828a0162000734565b945050606087015167ffffffffffffffff8111156200094e576200094d62000661565b5b6200095c89828a01620008a1565b935050608087015167ffffffffffffffff81111562000980576200097f62000661565b5b6200098e89828a01620008a1565b92505060a0620009a189828a01620006f9565b9150509295509295509295565b600081519050919050565b7f4e487b7100000000000000000000000000000000000000000000000000000000600052602260045260246000fd5b6000600282049050600182168062000a0157607f821691505b60208210810362000a175762000a16620009b9565b5b50919050565b60008190508160005260206000209050919050565b60006020601f8301049050919050565b600082821b905092915050565b60006008830262000a817fffffffffffffffffffffffffffffffffffffffffffffffffffffffffffffffff8262000a42565b62000a8d868362000a42565b95508019841693508086168417925050509392505050565b6000819050919050565b600062000ad062000aca62000ac48462000710565b62000aa5565b62000710565b9050919050565b6000819050919050565b62000aec8362000aaf565b62000b0462000afb8262000ad7565b84845462000a4f565b825550505050565b600090565b62000b1b62000b0c565b62000b2881848462000ae1565b505050565b5b8181101562000b505762000b4460008262000b11565b60018101905062000b2e565b5050565b601f82111562000b9f5762000b698162000a1d565b62000b748462000a32565b8101602085101562000b84578190505b62000b9c62000b938562000a32565b83018262000b2d565b50505b505050565b600082821c905092915050565b600062000bc46000198460080262000ba4565b1980831691505092915050565b600062000bdf838362000bb1565b9150826002028217905092915050565b62000bfa82620009ae565b67ffffffffffffffff81111562000c165762000c1562000766565b5b62000c228254620009e8565b62000c2f82828562000b54565b600060209050601f83116001811462000c67576000841562000c52578287015190505b62000c5e858262000bd1565b86555062000cce565b601f19841662000c778662000a1d565b60005b8281101562000ca15784890151825560018201915060208501945060208101905062000c7a565b8683101562000cc1578489015162000cbd601f89168262000bb1565b8355505b6001600288020188555050505b505050505050565b600081905092915050565b7f416363657373436f6e74726f6c3a206163636f756e7420000000000000000000600082015250565b600062000d1960178362000cd6565b915062000d268262000ce1565b601782019050919050565b600062000d3e82620009ae565b62000d4a818562000cd6565b935062000d5c81856020860162000820565b80840191505092915050565b7f206973206d697373696e6720726f6c6520000000000000000000000000000000600082015250565b600062000da060118362000cd6565b915062000dad8262000d68565b601182019050919050565b600062000dc58262000d0a565b915062000dd3828562000d31565b915062000de08262000d91565b915062000dee828462000d31565b91508190509392505050565b600082825260208201905092915050565b600062000e1882620009ae565b62000e24818562000dfa565b935062000e3681856020860162000820565b62000e418162000755565b840191505092915050565b6000602082019050818103600083015262000e68818462000e0b565b905092915050565b7f4e487b7100000000000000000000000000000000000000000000000000000000600052601160045260246000fd5b600062000eac8262000710565b915062000eb98362000710565b9250817fffffffffffffffffffffffffffffffffffffffffffffffffffffffffffffffff048311821515161562000ef55762000ef462000e70565b5b828202905092915050565b600062000f0d8262000710565b915062000f1a8362000710565b9250827fffffffffffffffffffffffffffffffffffffffffffffffffffffffffffffffff0382111562000f525762000f5162000e70565b5b828201905092915050565b7f4e487b7100000000000000000000000000000000000000000000000000000000600052603260045260246000fd5b600062000f998262000710565b91506000820362000faf5762000fae62000e70565b5b600182039050919050565b7f537472696e67733a20686578206c656e67746820696e73756666696369656e74600082015250565b600062000ff260208362000dfa565b915062000fff8262000fba565b602082019050919050565b60006020820190508181036000830152620010258162000fe3565b9050919050565b612df2806200103c6000396000f3fe608060405234801561001057600080fd5b50600436106101a95760003560e01c806391d14854116100f9578063a9059cbb11610097578063c407687611610071578063c407687614610520578063cb4c86b71461053c578063d547741f1461055a578063dd62ed3e14610576576101a9565b8063a9059cbb146104a1578063b3e1f050146104d1578063b50e44b814610502576101a9565b80639dc29fac116100d35780639dc29fac14610419578063a15612d114610435578063a217fddf14610453578063a457c2d714610471576101a9565b806391d148541461039a578063921f2c3b146103ca57806395d89b41146103fb576101a9565b80632f2ff15d116101665780633950935111610140578063395093511461030057806340c10f19146103305780636f307dc31461034c57806370a082311461036a576101a9565b80632f2ff15d146102aa578063313ce567146102c657806336568abe146102e4576101a9565b806301ffc9a7146101ae57806306fdde03146101de578063095ea7b3146101fc57806318160ddd1461022c57806323b872dd1461024a578063248a9ca31461027a575b600080fd5b6101c860048036038101906101c39190611df9565b6105a6565b6040516101d59190611e41565b60405180910390f35b6101e6610620565b6040516101f39190611ef5565b60405180910390f35b61021660048036038101906102119190611fab565b6106b2565b6040516102239190611e41565b60405180910390f35b6102346106d5565b6040516102419190611ffa565b60405180910390f35b610264600480360381019061025f9190612015565b6106df565b6040516102719190611e41565b60405180910390f35b610294600480360381019061028f919061209e565b61070e565b6040516102a191906120da565b60405180910390f35b6102c460048036038101906102bf91906120f5565b61072e565b005b6102ce61074f565b6040516102db9190612151565b60405180910390f35b6102fe60048036038101906102f991906120f5565b610758565b005b61031a60048036038101906103159190611fab565b6107db565b6040516103279190611e41565b60405180910390f35b61034a60048036038101906103459190611fab565b610812565b005b61035461084b565b604051610361919061217b565b60405180910390f35b610384600480360381019061037f9190612196565b610871565b6040516103919190611ffa565b60405180910390f35b6103b460048036038101906103af91906120f5565b6108b9565b6040516103c19190611e41565b60405180910390f35b6103e460048036038101906103df91906121c3565b610924565b6040516103f2929190612203565b60405180910390f35b610403610af3565b6040516104109190611ef5565b60405180910390f35b610433600480360381019061042e9190611fab565b610b85565b005b61043d610bbe565b60405161044a9190611ffa565b60405180910390f35b61045b610bc4565b60405161046891906120da565b60405180910390f35b61048b60048036038101906104869190611fab565b610bcb565b6040516104989190611e41565b60405180910390f35b6104bb60048036038101906104b69190611fab565b610c42565b6040516104c89190611e41565b60405180910390f35b6104eb60048036038101906104e691906121c3565b610c65565b6040516104f9929190612203565b60405180910390f35b61050a610e34565b60405161051791906120da565b60405180910390f35b61053a60048036038101906105359190611fab565b610e58565b005b610544610f66565b604051610551919061228b565b60405180910390f35b610574600480360381019061056f91906120f5565b610f8c565b005b610590600480360381019061058b91906122a6565b610fad565b60405161059d9190611ffa565b60405180910390f35b60007f7965db0b000000000000000000000000000000000000000000000000000000007bffffffffffffffffffffffffffffffffffffffffffffffffffffffff1916827bffffffffffffffffffffffffffffffffffffffffffffffffffffffff19161480610619575061061882611270565b5b9050919050565b60606003805461062f90612315565b80601f016020809104026020016040519081016040528092919081815260200182805461065b90612315565b80156106a85780601f1061067d576101008083540402835291602001916106a8565b820191906000526020600020905b81548152906001019060200180831161068b57829003601f168201915b5050505050905090565b6000806106bd6112da565b90506106ca8185856112e2565b600191505092915050565b6000600254905090565b6000806106ea6112da565b90506106f78582856114ab565b610702858585611537565b60019150509392505050565b600060056000838152602001908152602001600020600101549050919050565b6107378261070e565b610740816117b6565b61074a83836117ca565b505050565b60006012905090565b6107606112da565b73ffffffffffffffffffffffffffffffffffffffff168173ffffffffffffffffffffffffffffffffffffffff16146107cd576040517f08c379a00000000000000000000000000000000000000000000000000000000081526004016107c4906123b8565b60405180910390fd5b6107d782826118ab565b5050565b6000806107e66112da565b90506108078185856107f88589610fad565b6108029190612407565b6112e2565b600191505092915050565b7f10b261d3bc7a74f38949f9212b0336103474898eda034c06ae0a3e478dc0e4a561083c816117b6565b610846838361198d565b505050565b600760009054906101000a900473ffffffffffffffffffffffffffffffffffffffff1681565b60008060008373ffffffffffffffffffffffffffffffffffffffff1673ffffffffffffffffffffffffffffffffffffffff168152602001908152602001600020549050919050565b60006005600084815260200190815260200160002060000160008373ffffffffffffffffffffffffffffffffffffffff1673ffffffffffffffffffffffffffffffffffffffff16815260200190815260200160002060009054906101000a900460ff16905092915050565b60008060006109316106d5565b9050600081116109415783610a6b565b610a6a600860009054906101000a900473ffffffffffffffffffffffffffffffffffffffff1673ffffffffffffffffffffffffffffffffffffffff166370a08231306040518263ffffffff1660e01b815260040161099f919061217b565b602060405180830381865afa1580156109bc573d6000803e3d6000fd5b505050506040513d601f19601f820116820180604052508101906109e09190612472565b73__MathLib_______________________________63de7f61709091846040518363ffffffff1660e01b8152600401610a1a9291906124ae565b602060405180830381865af4158015610a37573d6000803e3d6000fd5b505050506040513d601f19601f82011682018060405250810190610a5b9190612472565b85611aec90919063ffffffff16565b5b91508473__MathLib_______________________________63de7f61709091846040518363ffffffff1660e01b8152600401610aa89291906124ae565b602060405180830381865af4158015610ac5573d6000803e3d6000fd5b505050506040513d601f19601f82011682018060405250810190610ae99190612472565b9250509250929050565b606060048054610b0290612315565b80601f0160208091040260200160405190810160405280929190818152602001828054610b2e90612315565b8015610b7b5780601f10610b5057610100808354040283529160200191610b7b565b820191906000526020600020905b815481529060010190602001808311610b5e57829003601f168201915b5050505050905090565b7f10b261d3bc7a74f38949f9212b0336103474898eda034c06ae0a3e478dc0e4a5610baf816117b6565b610bb98383611b05565b505050565b60065481565b6000801b81565b600080610bd66112da565b90506000610be48286610fad565b905083811015610c29576040517f08c379a0000000000000000000000000000000000000000000000000000000008152600401610c2090612549565b60405180910390fd5b610c3682868684036112e2565b60019250505092915050565b600080610c4d6112da565b9050610c5a818585611537565b600191505092915050565b6000806000610c726106d5565b905060008111610c825783610dac565b610dab600860009054906101000a900473ffffffffffffffffffffffffffffffffffffffff1673ffffffffffffffffffffffffffffffffffffffff166370a08231306040518263ffffffff1660e01b8152600401610ce0919061217b565b602060405180830381865afa158015610cfd573d6000803e3d6000fd5b505050506040513d601f19601f82011682018060405250810190610d219190612472565b73__MathLib_______________________________63de7f61709091846040518363ffffffff1660e01b8152600401610d5b9291906124ae565b602060405180830381865af4158015610d78573d6000803e3d6000fd5b505050506040513d601f19601f82011682018060405250810190610d9c9190612472565b85611cdb90919063ffffffff16565b5b91508473__MathLib_______________________________63de7f61709091846040518363ffffffff1660e01b8152600401610de99291906124ae565b602060405180830381865af4158015610e06573d6000803e3d6000fd5b505050506040513d601f19601f82011682018060405250810190610e2a9190612472565b9250509250929050565b7f10b261d3bc7a74f38949f9212b0336103474898eda034c06ae0a3e478dc0e4a581565b7f10b261d3bc7a74f38949f9212b0336103474898eda034c06ae0a3e478dc0e4a5610e82816117b6565b600860009054906101000a900473ffffffffffffffffffffffffffffffffffffffff1673ffffffffffffffffffffffffffffffffffffffff1663a9059cbb84846040518363ffffffff1660e01b8152600401610edf929190612569565b6020604051808303816000875af1158015610efe573d6000803e3d6000fd5b505050506040513d601f19601f82011682018060405250810190610f2291906125be565b610f61576040517f08c379a0000000000000000000000000000000000000000000000000000000008152600401610f5890612637565b60405180910390fd5b505050565b600860009054906101000a900473ffffffffffffffffffffffffffffffffffffffff1681565b610f958261070e565b610f9e816117b6565b610fa883836118ab565b505050565b6000600160008473ffffffffffffffffffffffffffffffffffffffff1673ffffffffffffffffffffffffffffffffffffffff16815260200190815260200160002060008373ffffffffffffffffffffffffffffffffffffffff1673ffffffffffffffffffffffffffffffffffffffff16815260200190815260200160002054905092915050565b6060600060028360026110479190612657565b6110519190612407565b67ffffffffffffffff81111561106a576110696126b1565b5b6040519080825280601f01601f19166020018201604052801561109c5781602001600182028036833780820191505090505b5090507f3000000000000000000000000000000000000000000000000000000000000000816000815181106110d4576110d36126e0565b5b60200101907effffffffffffffffffffffffffffffffffffffffffffffffffffffffffffff1916908160001a9053507f780000000000000000000000000000000000000000000000000000000000000081600181518110611138576111376126e0565b5b60200101907effffffffffffffffffffffffffffffffffffffffffffffffffffffffffffff1916908160001a905350600060018460026111789190612657565b6111829190612407565b90505b6001811115611222577f3031323334353637383961626364656600000000000000000000000000000000600f8616601081106111c4576111c36126e0565b5b1a60f81b8282815181106111db576111da6126e0565b5b60200101907effffffffffffffffffffffffffffffffffffffffffffffffffffffffffffff1916908160001a905350600485901c94508061121b9061270f565b9050611185565b5060008414611266576040517f08c379a000000000000000000000000000000000000000000000000000000000815260040161125d90612784565b60405180910390fd5b8091505092915050565b60007f01ffc9a7000000000000000000000000000000000000000000000000000000007bffffffffffffffffffffffffffffffffffffffffffffffffffffffff1916827bffffffffffffffffffffffffffffffffffffffffffffffffffffffff1916149050919050565b600033905090565b600073ffffffffffffffffffffffffffffffffffffffff168373ffffffffffffffffffffffffffffffffffffffff1603611351576040517f08c379a000000000000000000000000000000000000000000000000000000000815260040161134890612816565b60405180910390fd5b600073ffffffffffffffffffffffffffffffffffffffff168273ffffffffffffffffffffffffffffffffffffffff16036113c0576040517f08c379a00000000000000000000000000000000000000000000000000000000081526004016113b7906128a8565b60405180910390fd5b80600160008573ffffffffffffffffffffffffffffffffffffffff1673ffffffffffffffffffffffffffffffffffffffff16815260200190815260200160002060008473ffffffffffffffffffffffffffffffffffffffff1673ffffffffffffffffffffffffffffffffffffffff168152602001908152602001600020819055508173ffffffffffffffffffffffffffffffffffffffff168373ffffffffffffffffffffffffffffffffffffffff167f8c5be1e5ebec7d5bd14f71427d1e84f3dd0314c0f7b2291e5b200ac8c7c3b9258360405161149e9190611ffa565b60405180910390a3505050565b60006114b78484610fad565b90507fffffffffffffffffffffffffffffffffffffffffffffffffffffffffffffffff81146115315781811015611523576040517f08c379a000000000000000000000000000000000000000000000000000000000815260040161151a90612914565b60405180910390fd5b61153084848484036112e2565b5b50505050565b600073ffffffffffffffffffffffffffffffffffffffff168373ffffffffffffffffffffffffffffffffffffffff16036115a6576040517f08c379a000000000000000000000000000000000000000000000000000000000815260040161159d906129a6565b60405180910390fd5b600073ffffffffffffffffffffffffffffffffffffffff168273ffffffffffffffffffffffffffffffffffffffff1603611615576040517f08c379a000000000000000000000000000000000000000000000000000000000815260040161160c90612a38565b60405180910390fd5b611620838383611cf5565b60008060008573ffffffffffffffffffffffffffffffffffffffff1673ffffffffffffffffffffffffffffffffffffffff168152602001908152602001600020549050818110156116a6576040517f08c379a000000000000000000000000000000000000000000000000000000000815260040161169d90612aca565b60405180910390fd5b8181036000808673ffffffffffffffffffffffffffffffffffffffff1673ffffffffffffffffffffffffffffffffffffffff16815260200190815260200160002081905550816000808573ffffffffffffffffffffffffffffffffffffffff1673ffffffffffffffffffffffffffffffffffffffff16815260200190815260200160002060008282546117399190612407565b925050819055508273ffffffffffffffffffffffffffffffffffffffff168473ffffffffffffffffffffffffffffffffffffffff167fddf252ad1be2c89b69c2b068fc378daa952ba7f163c4a11628f55a4df523b3ef8460405161179d9190611ffa565b60405180910390a36117b0848484611cfa565b50505050565b6117c7816117c26112da565b611cff565b50565b6117d482826108b9565b6118a75760016005600084815260200190815260200160002060000160008373ffffffffffffffffffffffffffffffffffffffff1673ffffffffffffffffffffffffffffffffffffffff16815260200190815260200160002060006101000a81548160ff02191690831515021790555061184c6112da565b73ffffffffffffffffffffffffffffffffffffffff168173ffffffffffffffffffffffffffffffffffffffff16837f2f8788117e7eff1d82e926ec794901d17c78024a50270940304540a733656f0d60405160405180910390a45b5050565b6118b582826108b9565b156119895760006005600084815260200190815260200160002060000160008373ffffffffffffffffffffffffffffffffffffffff1673ffffffffffffffffffffffffffffffffffffffff16815260200190815260200160002060006101000a81548160ff02191690831515021790555061192e6112da565b73ffffffffffffffffffffffffffffffffffffffff168173ffffffffffffffffffffffffffffffffffffffff16837ff6391f5c32d9c69d2a47ea670b442974b53935d1edc7fd64eb21e047a839171b60405160405180910390a45b5050565b600073ffffffffffffffffffffffffffffffffffffffff168273ffffffffffffffffffffffffffffffffffffffff16036119fc576040517f08c379a00000000000000000000000000000000000000000000000000000000081526004016119f390612b36565b60405180910390fd5b611a0860008383611cf5565b8060026000828254611a1a9190612407565b92505081905550806000808473ffffffffffffffffffffffffffffffffffffffff1673ffffffffffffffffffffffffffffffffffffffff1681526020019081526020016000206000828254611a6f9190612407565b925050819055508173ffffffffffffffffffffffffffffffffffffffff16600073ffffffffffffffffffffffffffffffffffffffff167fddf252ad1be2c89b69c2b068fc378daa952ba7f163c4a11628f55a4df523b3ef83604051611ad49190611ffa565b60405180910390a3611ae860008383611cfa565b5050565b6000818310611afb5781611afd565b825b905092915050565b600073ffffffffffffffffffffffffffffffffffffffff168273ffffffffffffffffffffffffffffffffffffffff1603611b74576040517f08c379a0000000000000000000000000000000000000000000000000000000008152600401611b6b90612bc8565b60405180910390fd5b611b8082600083611cf5565b60008060008473ffffffffffffffffffffffffffffffffffffffff1673ffffffffffffffffffffffffffffffffffffffff16815260200190815260200160002054905081811015611c06576040517f08c379a0000000000000000000000000000000000000000000000000000000008152600401611bfd90612c5a565b60405180910390fd5b8181036000808573ffffffffffffffffffffffffffffffffffffffff1673ffffffffffffffffffffffffffffffffffffffff168152602001908152602001600020819055508160026000828254611c5d9190612c7a565b92505081905550600073ffffffffffffffffffffffffffffffffffffffff168373ffffffffffffffffffffffffffffffffffffffff167fddf252ad1be2c89b69c2b068fc378daa952ba7f163c4a11628f55a4df523b3ef84604051611cc29190611ffa565b60405180910390a3611cd683600084611cfa565b505050565b600081831015611ceb5781611ced565b825b905092915050565b505050565b505050565b611d0982826108b9565b611d9857611d2e8173ffffffffffffffffffffffffffffffffffffffff166014611034565b611d3c8360001c6020611034565b604051602001611d4d929190612d82565b6040516020818303038152906040526040517f08c379a0000000000000000000000000000000000000000000000000000000008152600401611d8f9190611ef5565b60405180910390fd5b5050565b600080fd5b60007fffffffff0000000000000000000000000000000000000000000000000000000082169050919050565b611dd681611da1565b8114611de157600080fd5b50565b600081359050611df381611dcd565b92915050565b600060208284031215611e0f57611e0e611d9c565b5b6000611e1d84828501611de4565b91505092915050565b60008115159050919050565b611e3b81611e26565b82525050565b6000602082019050611e566000830184611e32565b92915050565b600081519050919050565b600082825260208201905092915050565b60005b83811015611e96578082015181840152602081019050611e7b565b83811115611ea5576000848401525b50505050565b6000601f19601f8301169050919050565b6000611ec782611e5c565b611ed18185611e67565b9350611ee1818560208601611e78565b611eea81611eab565b840191505092915050565b60006020820190508181036000830152611f0f8184611ebc565b905092915050565b600073ffffffffffffffffffffffffffffffffffffffff82169050919050565b6000611f4282611f17565b9050919050565b611f5281611f37565b8114611f5d57600080fd5b50565b600081359050611f6f81611f49565b92915050565b6000819050919050565b611f8881611f75565b8114611f9357600080fd5b50565b600081359050611fa581611f7f565b92915050565b60008060408385031215611fc257611fc1611d9c565b5b6000611fd085828601611f60565b9250506020611fe185828601611f96565b9150509250929050565b611ff481611f75565b82525050565b600060208201905061200f6000830184611feb565b92915050565b60008060006060848603121561202e5761202d611d9c565b5b600061203c86828701611f60565b935050602061204d86828701611f60565b925050604061205e86828701611f96565b9150509250925092565b6000819050919050565b61207b81612068565b811461208657600080fd5b50565b60008135905061209881612072565b92915050565b6000602082840312156120b4576120b3611d9c565b5b60006120c284828501612089565b91505092915050565b6120d481612068565b82525050565b60006020820190506120ef60008301846120cb565b92915050565b6000806040838503121561210c5761210b611d9c565b5b600061211a85828601612089565b925050602061212b85828601611f60565b9150509250929050565b600060ff82169050919050565b61214b81612135565b82525050565b60006020820190506121666000830184612142565b92915050565b61217581611f37565b82525050565b6000602082019050612190600083018461216c565b92915050565b6000602082840312156121ac576121ab611d9c565b5b60006121ba84828501611f60565b91505092915050565b600080604083850312156121da576121d9611d9c565b5b60006121e885828601611f96565b92505060206121f985828601611f96565b9150509250929050565b60006040820190506122186000830185611feb565b6122256020830184611feb565b9392505050565b6000819050919050565b600061225161224c61224784611f17565b61222c565b611f17565b9050919050565b600061226382612236565b9050919050565b600061227582612258565b9050919050565b6122858161226a565b82525050565b60006020820190506122a0600083018461227c565b92915050565b600080604083850312156122bd576122bc611d9c565b5b60006122cb85828601611f60565b92505060206122dc85828601611f60565b9150509250929050565b7f4e487b7100000000000000000000000000000000000000000000000000000000600052602260045260246000fd5b6000600282049050600182168061232d57607f821691505b6020821081036123405761233f6122e6565b5b50919050565b7f416363657373436f6e74726f6c3a2063616e206f6e6c792072656e6f756e636560008201527f20726f6c657320666f722073656c660000000000000000000000000000000000602082015250565b60006123a2602f83611e67565b91506123ad82612346565b604082019050919050565b600060208201905081810360008301526123d181612395565b9050919050565b7f4e487b7100000000000000000000000000000000000000000000000000000000600052601160045260246000fd5b600061241282611f75565b915061241d83611f75565b9250827fffffffffffffffffffffffffffffffffffffffffffffffffffffffffffffffff03821115612452576124516123d8565b5b828201905092915050565b60008151905061246c81611f7f565b92915050565b60006020828403121561248857612487611d9c565b5b60006124968482850161245d565b91505092915050565b6124a881611f75565b82525050565b60006040820190506124c3600083018561249f565b6124d0602083018461249f565b9392505050565b7f45524332303a2064656372656173656420616c6c6f77616e63652062656c6f7760008201527f207a65726f000000000000000000000000000000000000000000000000000000602082015250565b6000612533602583611e67565b915061253e826124d7565b604082019050919050565b6000602082019050818103600083015261256281612526565b9050919050565b600060408201905061257e600083018561216c565b61258b6020830184611feb565b9392505050565b61259b81611e26565b81146125a657600080fd5b50565b6000815190506125b881612592565b92915050565b6000602082840312156125d4576125d3611d9c565b5b60006125e2848285016125a9565b91505092915050565b7f2d56530000000000000000000000000000000000000000000000000000000000600082015250565b6000612621600383611e67565b915061262c826125eb565b602082019050919050565b6000602082019050818103600083015261265081612614565b9050919050565b600061266282611f75565b915061266d83611f75565b9250817fffffffffffffffffffffffffffffffffffffffffffffffffffffffffffffffff04831182151516156126a6576126a56123d8565b5b828202905092915050565b7f4e487b7100000000000000000000000000000000000000000000000000000000600052604160045260246000fd5b7f4e487b7100000000000000000000000000000000000000000000000000000000600052603260045260246000fd5b600061271a82611f75565b91506000820361272d5761272c6123d8565b5b600182039050919050565b7f537472696e67733a20686578206c656e67746820696e73756666696369656e74600082015250565b600061276e602083611e67565b915061277982612738565b602082019050919050565b6000602082019050818103600083015261279d81612761565b9050919050565b7f45524332303a20617070726f76652066726f6d20746865207a65726f2061646460008201527f7265737300000000000000000000000000000000000000000000000000000000602082015250565b6000612800602483611e67565b915061280b826127a4565b604082019050919050565b6000602082019050818103600083015261282f816127f3565b9050919050565b7f45524332303a20617070726f766520746f20746865207a65726f20616464726560008201527f7373000000000000000000000000000000000000000000000000000000000000602082015250565b6000612892602283611e67565b915061289d82612836565b604082019050919050565b600060208201905081810360008301526128c181612885565b9050919050565b7f45524332303a20696e73756666696369656e7420616c6c6f77616e6365000000600082015250565b60006128fe601d83611e67565b9150612909826128c8565b602082019050919050565b6000602082019050818103600083015261292d816128f1565b9050919050565b7f45524332303a207472616e736665722066726f6d20746865207a65726f20616460008201527f6472657373000000000000000000000000000000000000000000000000000000602082015250565b6000612990602583611e67565b915061299b82612934565b604082019050919050565b600060208201905081810360008301526129bf81612983565b9050919050565b7f45524332303a207472616e7366657220746f20746865207a65726f206164647260008201527f6573730000000000000000000000000000000000000000000000000000000000602082015250565b6000612a22602383611e67565b9150612a2d826129c6565b604082019050919050565b60006020820190508181036000830152612a5181612a15565b9050919050565b7f45524332303a207472616e7366657220616d6f756e742065786365656473206260008201527f616c616e63650000000000000000000000000000000000000000000000000000602082015250565b6000612ab4602683611e67565b9150612abf82612a58565b604082019050919050565b60006020820190508181036000830152612ae381612aa7565b9050919050565b7f45524332303a206d696e7420746f20746865207a65726f206164647265737300600082015250565b6000612b20601f83611e67565b9150612b2b82612aea565b602082019050919050565b60006020820190508181036000830152612b4f81612b13565b9050919050565b7f45524332303a206275726e2066726f6d20746865207a65726f2061646472657360008201527f7300000000000000000000000000000000000000000000000000000000000000602082015250565b6000612bb2602183611e67565b9150612bbd82612b56565b604082019050919050565b60006020820190508181036000830152612be181612ba5565b9050919050565b7f45524332303a206275726e20616d6f756e7420657863656564732062616c616e60008201527f6365000000000000000000000000000000000000000000000000000000000000602082015250565b6000612c44602283611e67565b9150612c4f82612be8565b604082019050919050565b60006020820190508181036000830152612c7381612c37565b9050919050565b6000612c8582611f75565b9150612c9083611f75565b925082821015612ca357612ca26123d8565b5b828203905092915050565b600081905092915050565b7f416363657373436f6e74726f6c3a206163636f756e7420000000000000000000600082015250565b6000612cef601783612cae565b9150612cfa82612cb9565b601782019050919050565b6000612d1082611e5c565b612d1a8185612cae565b9350612d2a818560208601611e78565b80840191505092915050565b7f206973206d697373696e6720726f6c6520000000000000000000000000000000600082015250565b6000612d6c601183612cae565b9150612d7782612d36565b601182019050919050565b6000612d8d82612ce2565b9150612d998285612d05565b9150612da482612d5f565b9150612db08284612d05565b9150819050939250505056fea26469706673582212206398848f5049834bd9f7f2672844c99b29a231c1ae28c47b29156b9e04a4c30164736f6c634300080f0033",
  "immutableReferences": {},
  "source": "// SPDX-License-Identifier: MIT\npragma solidity ^0.8.4;\n\nimport \"@openzeppelin/contracts/token/ERC20/ERC20.sol\";\nimport \"@openzeppelin/contracts/access/AccessControl.sol\";\nimport \"@openzeppelin/contracts/utils/math/Math.sol\";\nimport \"./libraries/MathLib.sol\";\n\ncontract VolatilityToken is ERC20, AccessControl{\n    using MathLib for uint256;\n    using Math for uint256;\n\n    bytes32 public constant EXCHANGE = keccak256(\"EXCHANGE\");\n\n    uint256 public tenor;\n    address public underlying;\n    ERC20 public funding;\n\n    // constructor, ownership is transferred to Moret gov token which can mint and burn the tokens.\n    constructor(ERC20 _funding, address _underlying, uint256 _tenor, string memory _name, string memory _symbol, address _exchange ) ERC20(_name, _symbol) {\n        _setupRole(DEFAULT_ADMIN_ROLE, msg.sender);\n        funding = _funding;\n        tenor = _tenor;\n        underlying = _underlying;\n        grantRole(EXCHANGE, _exchange);}\n\n    function getMintAmount(uint256 _premium, uint256 _vol) public view returns(uint256 _mintAmount, uint256 _volPrice){\n        uint256 _supply = totalSupply();\n        _volPrice = _supply > 0? _vol.max(funding.balanceOf(address(this)).ethdiv(_supply)): _vol;\n        _mintAmount = _premium.ethdiv(_volPrice);}\n\n    function getBurnAmount(uint256 _premium, uint256 _vol) public view returns(uint256 _burnAmount, uint256 _volPrice){\n        uint256 _supply = totalSupply();\n        _volPrice = _supply > 0? _vol.min(funding.balanceOf(address(this)).ethdiv(_supply)): _vol;\n        _burnAmount = _premium.ethdiv(_volPrice);}\n\n    function mint(address _account, uint256 _amount) public onlyRole(EXCHANGE) {_mint(_account, _amount);}\n    function burn(address _account, uint256 _amount) public onlyRole(EXCHANGE) {_burn(_account, _amount);}\n    function pay(address _account, uint256 _amount) public onlyRole(EXCHANGE){require(funding.transfer(_account, _amount), '-VS');}\n}\n",
  "sourcePath": "/Users/mac/Documents/GitHub/moret/contracts/VolatilityToken.sol",
  "compiler": {
    "name": "solc",
    "version": "0.8.15+commit.e14f2714.Emscripten.clang"
  },
  "schemaVersion": "3.4.3",
  "updatedAt": "2022-06-28T19:45:37.410Z",
  "networkType": "ethereum",
  "devdoc": {
    "kind": "dev",
    "methods": {
      "allowance(address,address)": {
        "details": "See {IERC20-allowance}."
      },
      "approve(address,uint256)": {
        "details": "See {IERC20-approve}. NOTE: If `amount` is the maximum `uint256`, the allowance is not updated on `transferFrom`. This is semantically equivalent to an infinite approval. Requirements: - `spender` cannot be the zero address."
      },
      "balanceOf(address)": {
        "details": "See {IERC20-balanceOf}."
      },
      "decimals()": {
        "details": "Returns the number of decimals used to get its user representation. For example, if `decimals` equals `2`, a balance of `505` tokens should be displayed to a user as `5.05` (`505 / 10 ** 2`). Tokens usually opt for a value of 18, imitating the relationship between Ether and Wei. This is the value {ERC20} uses, unless this function is overridden; NOTE: This information is only used for _display_ purposes: it in no way affects any of the arithmetic of the contract, including {IERC20-balanceOf} and {IERC20-transfer}."
      },
      "decreaseAllowance(address,uint256)": {
        "details": "Atomically decreases the allowance granted to `spender` by the caller. This is an alternative to {approve} that can be used as a mitigation for problems described in {IERC20-approve}. Emits an {Approval} event indicating the updated allowance. Requirements: - `spender` cannot be the zero address. - `spender` must have allowance for the caller of at least `subtractedValue`."
      },
      "getRoleAdmin(bytes32)": {
        "details": "Returns the admin role that controls `role`. See {grantRole} and {revokeRole}. To change a role's admin, use {_setRoleAdmin}."
      },
      "grantRole(bytes32,address)": {
        "details": "Grants `role` to `account`. If `account` had not been already granted `role`, emits a {RoleGranted} event. Requirements: - the caller must have ``role``'s admin role."
      },
      "hasRole(bytes32,address)": {
        "details": "Returns `true` if `account` has been granted `role`."
      },
      "increaseAllowance(address,uint256)": {
        "details": "Atomically increases the allowance granted to `spender` by the caller. This is an alternative to {approve} that can be used as a mitigation for problems described in {IERC20-approve}. Emits an {Approval} event indicating the updated allowance. Requirements: - `spender` cannot be the zero address."
      },
      "name()": {
        "details": "Returns the name of the token."
      },
      "renounceRole(bytes32,address)": {
        "details": "Revokes `role` from the calling account. Roles are often managed via {grantRole} and {revokeRole}: this function's purpose is to provide a mechanism for accounts to lose their privileges if they are compromised (such as when a trusted device is misplaced). If the calling account had been revoked `role`, emits a {RoleRevoked} event. Requirements: - the caller must be `account`."
      },
      "revokeRole(bytes32,address)": {
        "details": "Revokes `role` from `account`. If `account` had been granted `role`, emits a {RoleRevoked} event. Requirements: - the caller must have ``role``'s admin role."
      },
      "supportsInterface(bytes4)": {
        "details": "See {IERC165-supportsInterface}."
      },
      "symbol()": {
        "details": "Returns the symbol of the token, usually a shorter version of the name."
      },
      "totalSupply()": {
        "details": "See {IERC20-totalSupply}."
      },
      "transfer(address,uint256)": {
        "details": "See {IERC20-transfer}. Requirements: - `to` cannot be the zero address. - the caller must have a balance of at least `amount`."
      },
      "transferFrom(address,address,uint256)": {
        "details": "See {IERC20-transferFrom}. Emits an {Approval} event indicating the updated allowance. This is not required by the EIP. See the note at the beginning of {ERC20}. NOTE: Does not update the allowance if the current allowance is the maximum `uint256`. Requirements: - `from` and `to` cannot be the zero address. - `from` must have a balance of at least `amount`. - the caller must have allowance for ``from``'s tokens of at least `amount`."
      }
    },
    "version": 1
  },
  "userdoc": {
    "kind": "user",
    "methods": {},
    "version": 1
  }
}